{
  "address": "0xc637B9e8eeB373e4bd7c11cdAd6659633E236A6F",
  "abi": [
    {
      "inputs": [
        {
          "internalType": "address",
          "name": "saLPToken",
          "type": "address"
        },
        {
          "internalType": "address",
          "name": "account",
          "type": "address"
        }
      ],
      "name": "getBalanceOfUnderlying",
      "outputs": [
        {
          "internalType": "uint256",
          "name": "",
          "type": "uint256"
        }
      ],
      "stateMutability": "nonpayable",
      "type": "function"
    },
    {
      "inputs": [
        {
          "internalType": "address",
          "name": "saLPToken",
          "type": "address"
        }
      ],
      "name": "getRateFor",
      "outputs": [
        {
          "internalType": "uint256",
          "name": "",
          "type": "uint256"
        }
      ],
      "stateMutability": "view",
      "type": "function"
    },
    {
      "inputs": [
        {
          "internalType": "address",
          "name": "saLPToken",
          "type": "address"
        }
      ],
      "name": "getUnderlying",
      "outputs": [
        {
          "internalType": "address",
          "name": "",
          "type": "address"
        }
      ],
      "stateMutability": "view",
      "type": "function"
    },
    {
      "inputs": [
        {
          "internalType": "address",
          "name": "saLPToken",
          "type": "address"
        },
        {
          "internalType": "uint256",
          "name": "amount",
          "type": "uint256"
        }
      ],
      "name": "getValueOf",
      "outputs": [
        {
          "internalType": "uint256",
          "name": "",
          "type": "uint256"
        }
      ],
      "stateMutability": "view",
      "type": "function"
    }
  ],
  "artifactName": "AavePricer",
  "transactionHash": "0xb6ad3d81e656896aab06cba26d3c728712d7e723b2706780c95c030a28d8a017",
  "args": [],
  "solcInputHash": "665d1dd8dfb11b9a9b0d587270f130b8",
  "bytecode": "0x608060405234801561001057600080fd5b50610469806100206000396000f3fe608060405234801561001057600080fd5b506004361061004c5760003560e01c806305a933221461005157806334fb2078146100775780634e89a7111461008a578063727ae400146100b5575b600080fd5b61006461005f366004610243565b6100c8565b6040519081526020015b60405180910390f35b6100646100853660046102b3565b919050565b61009d610098366004610243565b61014c565b6040516001600160a01b03909116815260200161006e565b6100646100c336600461027b565b6101bf565b6000816001600160a01b031663313ce5676040518163ffffffff1660e01b815260040160206040518083038186803b15801561010357600080fd5b505afa158015610117573d6000803e3d6000fd5b505050506040513d601f19601f8201168201806040525081019061013b91906102f6565b61014690600a61035a565b92915050565b6000816001600160a01b031663b16a19de6040518163ffffffff1660e01b815260040160206040518083038186803b15801561018757600080fd5b505afa15801561019b573d6000803e3d6000fd5b505050506040513d601f19601f82011682018060405250810190610146919061025f565b6040516370a0823160e01b81526001600160a01b038281166004830152600091908416906370a082319060240160206040518083038186803b15801561020457600080fd5b505afa158015610218573d6000803e3d6000fd5b505050506040513d601f19601f8201168201806040525081019061023c91906102de565b9392505050565b600060208284031215610254578081fd5b813561023c8161041b565b600060208284031215610270578081fd5b815161023c8161041b565b6000806040838503121561028d578081fd5b82356102988161041b565b915060208301356102a88161041b565b809150509250929050565b600080604083850312156102c5578182fd5b82356102d08161041b565b946020939093013593505050565b6000602082840312156102ef578081fd5b5051919050565b600060208284031215610307578081fd5b815160ff8116811461023c578182fd5b600181815b8085111561035257816000190482111561033857610338610405565b8085161561034557918102915b93841c939080029061031c565b509250929050565b600061023c60ff84168360008261037357506001610146565b8161038057506000610146565b816001811461039657600281146103a0576103bc565b6001915050610146565b60ff8411156103b1576103b1610405565b50506001821b610146565b5060208310610133831016604e8410600b84101617156103df575081810a610146565b6103e98383610317565b80600019048211156103fd576103fd610405565b029392505050565b634e487b7160e01b600052601160045260246000fd5b6001600160a01b038116811461043057600080fd5b5056fea264697066735822122094cbe567e8881e1490f8468870c511486470aacde1e9a7149c410085b0875b3464736f6c63430008040033",
  "devdoc": {
    "kind": "dev",
    "methods": {
      "getBalanceOfUnderlying(address,address)": {
        "params": {
          "account": "Address of the account to get the balance of.",
          "saLPToken": "Address of the single asset liquidity provider token."
        },
        "returns": {
          "_0": "Balance of the underlying asset."
        }
      },
      "getRateFor(address)": {
        "details": "The exchange ratio for Aave tokens is always 1:1, however the token balance is compounded silently  using an index at the time of their last deposit. See {AavePricer.getBalanceOfUnderlying}",
        "params": {
          "saLPToken": "address of the single asset liquidity provider token."
        },
        "returns": {
          "_0": "Exchange rate for 1 saLP token in the underlying asset."
        }
      },
      "getUnderlying(address)": {
        "details": "cETH is the only Compound token that does not support the {underlying} function.",
        "params": {
          "saLPToken": "address of the Compound token."
        },
        "returns": {
          "_0": "address of the underlying saLPToken asset."
        }
      },
      "getValueOf(address,uint256)": {
        "details": "The value of an Aave token is always the same as the underlying asset amount. See {AavePricer.getRateFor}",
        "params": {
          "amount": "Amount of the token to convert into the underlying asset.",
          "saLPToken": "address of the single asset liquidity provider token"
        },
        "returns": {
          "_0": "Value of the saLP token in the underlying asset."
        }
      }
    },
    "version": 1
  },
  "userdoc": {
    "kind": "user",
    "methods": {
      "getBalanceOfUnderlying(address,address)": {
        "notice": "It calculates the balance of the underlying asset for {account}."
      },
      "getRateFor(address)": {
        "notice": "It returns the exchange rate of the aToken to the underlying asset."
      },
      "getUnderlying(address)": {
        "notice": "Gets the underlying asset address for the Compound token."
      },
      "getValueOf(address,uint256)": {
        "notice": "It calculates the value of the protocol token amount into the underlying asset."
      }
    },
    "version": 1
  },
  "storageLayout": {
    "storage": [],
    "types": null
  }
}