{
  "address": "0x9f972C973615d2d2cfcd23F2528F65A289FefE29",
  "abi": [
    {
      "inputs": [
        {
          "internalType": "uint256",
          "name": "index",
          "type": "uint256"
        },
        {
          "internalType": "uint256",
          "name": "tierIndex",
          "type": "uint256"
        }
      ],
      "name": "moveMerkle",
      "outputs": [],
      "stateMutability": "nonpayable",
      "type": "function"
    }
  ],
  "artifactName": "ent_moveMerkle_NFTDistributor_v1",
  "transactionHash": "0xfb29f58d12a41817ea2f3f72fc29a8b8a23690de1f2b86e05eca6c157d81a0ee",
  "args": [],
  "solcInputHash": "b5f251bb9db269a299bc010c3a1160db",
  "bytecode": "0x608060405234801561001057600080fd5b506101c3806100206000396000f3fe608060405234801561001057600080fd5b506004361061002b5760003560e01c80637b8f569714610030575b600080fd5b61004361003e36600461016c565b610045565b005b7fdf8b4c520ffe197c5343c6f5aec59570151ef9a492f2c624fd45ddde6135ec423361007182826100d3565b60007fcf1e960f2172c22b0a7308b10d2fa40d0d089ee0367c8e6cb72a5803f164c36060010185815481106100b657634e487b7160e01b600052603260045260246000fd5b600091825260209091206001600290920201019390935550505050565b60008281527f337c29a31b05a860fb532911919dbe85ab303a7465176333f1deb496e9fdd19e602090815260408083206001600160a01b038516845290915290205460ff166101685760405162461bcd60e51b815260206004820152601b60248201527f416363657373436f6e74726f6c3a20756e617574686f72697a65640000000000604482015260640160405180910390fd5b5050565b6000806040838503121561017e578182fd5b5050803592602090910135915056fea2646970667358221220bc6735edd9660ddbb4d14912a3d4eeb67e6a30aea2cf5e9449bc7fe4536ae8eb64736f6c63430008040033",
  "devdoc": {
    "kind": "dev",
    "methods": {
      "moveMerkle(uint256,uint256)": {
        "params": {
          "index": "Index of merkle to set.",
          "tierIndex": "Index of NFT tier to assign merkle for. Requirements:  - Caller must be an admin"
        }
      }
    },
    "version": 1
  },
  "userdoc": {
    "kind": "user",
    "methods": {
      "moveMerkle(uint256,uint256)": {
        "notice": "Change a merkle to be for a different tier to be able to claim NFTs."
      }
    },
    "version": 1
  },
  "storageLayout": {
    "storage": [],
    "types": null
  }
}