{
  "address": "0x5de30f117cBC0FE0933fC92DA740E6A13b0E0aaE",
  "abi": [
    {
      "inputs": [
        {
          "internalType": "bytes32",
          "name": "role",
          "type": "bytes32"
        },
        {
          "internalType": "address",
          "name": "account",
          "type": "address"
        }
      ],
      "name": "grantRole",
      "outputs": [],
      "stateMutability": "nonpayable",
      "type": "function"
    },
    {
      "inputs": [
        {
          "internalType": "address",
          "name": "_nft",
          "type": "address"
        },
        {
          "internalType": "address",
          "name": "_dictionary",
          "type": "address"
        },
        {
          "internalType": "address",
          "name": "admin",
          "type": "address"
        }
      ],
      "name": "initialize",
      "outputs": [],
      "stateMutability": "nonpayable",
      "type": "function"
    }
  ],
  "artifactName": "ent_initialize_NFTDistributor_v1",
  "transactionHash": "0x7802a3662d2a850b10c57dac7e36af54628cfebb8f58cf124238b8f30b594561",
  "args": [],
  "solcInputHash": "b5f251bb9db269a299bc010c3a1160db",
  "bytecode": "0x608060405234801561001057600080fd5b506103f7806100206000396000f3fe608060405234801561001057600080fd5b50600436106100365760003560e01c80632f2ff15d1461003b578063c0c53b8b14610050575b600080fd5b61004e610049366004610396565b610063565b005b61004e61005e366004610354565b610107565b60008281527f337c29a31b05a860fb532911919dbe85ab303a7465176333f1deb496e9fdd19e6020908152604080832060010154835280832033845290915290205460ff166100f95760405162461bcd60e51b815260206004820152601860248201527f416363657373436f6e74726f6c3a206e6f742061646d696e000000000000000060448201526064015b60405180910390fd5b61010382826101fd565b5050565b61010f6102c5565b5460ff16156101605760405162461bcd60e51b815260206004820152601b60248201527f54656c6c65723a20616c726561647920696e697469616c697a6564000000000060448201526064016100f0565b7fcf1e960f2172c22b0a7308b10d2fa40d0d089ee0367c8e6cb72a5803f164c36080546001600160a01b038086166001600160a01b0319928316179092557fcf1e960f2172c22b0a7308b10d2fa40d0d089ee0367c8e6cb72a5803f164c3638054928516929091169190911790556101f87fdf8b4c520ffe197c5343c6f5aec59570151ef9a492f2c624fd45ddde6135ec42826101fd565b505050565b60008281527f337c29a31b05a860fb532911919dbe85ab303a7465176333f1deb496e9fdd19e602090815260408083206001600160a01b038516845290915290205460ff161561024b575050565b60008281527f337c29a31b05a860fb532911919dbe85ab303a7465176333f1deb496e9fdd19e602090815260408083206001600160a01b0385168085529252808320805460ff1916600117905551339285917f2f8788117e7eff1d82e926ec794901d17c78024a50270940304540a733656f0d9190a45050565b60008060405160200161031a9060208082526028908201527f74656c6c65725f70726f746f636f6c2e636f6e746578742e696e697469616c696040820152677a61626c652e763160c01b606082015260800190565b60408051601f19818403018152919052805160209091012092915050565b80356001600160a01b038116811461034f57600080fd5b919050565b600080600060608486031215610368578283fd5b61037184610338565b925061037f60208501610338565b915061038d60408501610338565b90509250925092565b600080604083850312156103a8578081fd5b823591506103b860208401610338565b9050925092905056fea264697066735822122025d2221bea37994d9b33050b28e0d3ad2fe5a653c4826fb22d70a11ad94e277e64736f6c63430008040033",
  "devdoc": {
    "kind": "dev",
    "methods": {
      "initialize(address,address,address)": {
        "params": {
          "_nft": "The address of the TellerNFT.",
          "admin": "The address of an admin."
        }
      }
    },
    "version": 1
  },
  "userdoc": {
    "kind": "user",
    "methods": {
      "grantRole(bytes32,address)": {
        "notice": "Grants an address a new role. Requirements:  - Sender must be role admin."
      },
      "initialize(address,address,address)": {
        "notice": "Initializes the Distributor contract with the TellerNFT"
      }
    },
    "version": 1
  },
  "storageLayout": {
    "storage": [],
    "types": null
  }
}