{
  "address": "0x044a08cd4629CC397E09bB37B761C9F92160d5A2",
  "abi": [
    {
      "inputs": [
        {
          "internalType": "address",
          "name": "saLPToken",
          "type": "address"
        },
        {
          "internalType": "address",
          "name": "account",
          "type": "address"
        }
      ],
      "name": "getBalanceOfUnderlying",
      "outputs": [
        {
          "internalType": "uint256",
          "name": "",
          "type": "uint256"
        }
      ],
      "stateMutability": "nonpayable",
      "type": "function"
    },
    {
      "inputs": [
        {
          "internalType": "address",
          "name": "saLPToken",
          "type": "address"
        }
      ],
      "name": "getRateFor",
      "outputs": [
        {
          "internalType": "uint256",
          "name": "",
          "type": "uint256"
        }
      ],
      "stateMutability": "view",
      "type": "function"
    },
    {
      "inputs": [
        {
          "internalType": "address",
          "name": "saLPToken",
          "type": "address"
        }
      ],
      "name": "getUnderlying",
      "outputs": [
        {
          "internalType": "address",
          "name": "",
          "type": "address"
        }
      ],
      "stateMutability": "view",
      "type": "function"
    },
    {
      "inputs": [
        {
          "internalType": "address",
          "name": "saLPToken",
          "type": "address"
        },
        {
          "internalType": "uint256",
          "name": "amount",
          "type": "uint256"
        }
      ],
      "name": "getValueOf",
      "outputs": [
        {
          "internalType": "uint256",
          "name": "",
          "type": "uint256"
        }
      ],
      "stateMutability": "view",
      "type": "function"
    }
  ],
  "artifactName": "PoolTogetherPricer",
  "transactionHash": "0x3c203cbf6c032d23302dc77e2e9958985b3a6e55c011b013a9e9b852d9ef4716",
  "args": [],
  "solcInputHash": "665d1dd8dfb11b9a9b0d587270f130b8",
  "bytecode": "0x608060405234801561001057600080fd5b50610320806100206000396000f3fe608060405234801561001057600080fd5b506004361061004c5760003560e01c806305a933221461005157806334fb2078146100785780634e89a7111461008e578063727ae400146100b9575b600080fd5b61006561005f36600461021f565b50600090565b6040519081526020015b60405180910390f35b61006561008636600461028f565b600092915050565b6100a161009c36600461021f565b6100cc565b6040516001600160a01b03909116815260200161006f565b6100656100c7366004610257565b61014d565b60006100d7826101e4565b6001600160a01b031663fc0c546a6040518163ffffffff1660e01b815260040160206040518083038186803b15801561010f57600080fd5b505afa158015610123573d6000803e3d6000fd5b505050506040513d601f19601f82011682018060405250810190610147919061023b565b92915050565b6000610158836101e4565b60405163494de9f760e01b81526001600160a01b0384811660048301528581166024830152919091169063494de9f790604401602060405180830381600087803b1580156101a557600080fd5b505af11580156101b9573d6000803e3d6000fd5b505050506040513d601f19601f820116820180604052508101906101dd91906102ba565b9392505050565b6000816001600160a01b031663f77c47916040518163ffffffff1660e01b815260040160206040518083038186803b15801561010f57600080fd5b600060208284031215610230578081fd5b81356101dd816102d2565b60006020828403121561024c578081fd5b81516101dd816102d2565b60008060408385031215610269578081fd5b8235610274816102d2565b91506020830135610284816102d2565b809150509250929050565b600080604083850312156102a1578182fd5b82356102ac816102d2565b946020939093013593505050565b6000602082840312156102cb578081fd5b5051919050565b6001600160a01b03811681146102e757600080fd5b5056fea2646970667358221220cbbeb428a02f7ebd81f21b3ee44d7c9806e914e96709bddeb770c18b258e46ec64736f6c63430008040033",
  "devdoc": {
    "kind": "dev",
    "methods": {
      "getBalanceOfUnderlying(address,address)": {
        "params": {
          "account": "Address of the account to get the balance of.",
          "saLPToken": "Address of the single asset liquidity provider token."
        },
        "returns": {
          "_0": "Balance of the underlying asset."
        }
      },
      "getRateFor(address)": {
        "details": "The exchange ratio for Aave tokens is always 1:1, however the token balance is compounded silently  using an index at the time of their last deposit. See {AavePricer.getBalanceOfUnderlying}",
        "params": {
          "saLPToken": "address of the single asset liquidity provider token."
        },
        "returns": {
          "_0": "Exchange rate for 1 saLP token in the underlying asset."
        }
      },
      "getUnderlying(address)": {
        "details": "cETH is the only Compound token that does not support the {underlying} function.",
        "params": {
          "saLPToken": "address of the Compound token."
        },
        "returns": {
          "_0": "address of the underlying saLPToken asset."
        }
      },
      "getValueOf(address,uint256)": {
        "details": "The value of an Aave token is always the same as the underlying asset amount. See {AavePricer.getRateFor}",
        "params": {
          "amount": "Amount of the token to convert into the underlying asset.",
          "saLPToken": "address of the single asset liquidity provider token"
        },
        "returns": {
          "_0": "Value of the saLP token in the underlying asset."
        }
      }
    },
    "version": 1
  },
  "userdoc": {
    "kind": "user",
    "methods": {
      "getBalanceOfUnderlying(address,address)": {
        "notice": "It calculates the balance of the underlying asset for {account}."
      },
      "getRateFor(address)": {
        "notice": "It returns the exchange rate of the aToken to the underlying asset."
      },
      "getUnderlying(address)": {
        "notice": "Gets the underlying asset address for the Compound token."
      },
      "getValueOf(address,uint256)": {
        "notice": "It calculates the value of the protocol token amount into the underlying asset."
      }
    },
    "version": 1
  },
  "storageLayout": {
    "storage": [],
    "types": null
  }
}