{
  "address": "0x80e333799bFCbFDa5f66B6bB86557E525dd36929",
  "abi": [
    {
      "inputs": [
        {
          "internalType": "address",
          "name": "wETHAddress",
          "type": "address"
        }
      ],
      "stateMutability": "nonpayable",
      "type": "constructor"
    },
    {
      "inputs": [],
      "name": "chainlinkPricer",
      "outputs": [
        {
          "internalType": "contract ChainlinkPricer",
          "name": "",
          "type": "address"
        }
      ],
      "stateMutability": "view",
      "type": "function"
    },
    {
      "inputs": [
        {
          "internalType": "address",
          "name": "account",
          "type": "address"
        },
        {
          "internalType": "address",
          "name": "src",
          "type": "address"
        },
        {
          "internalType": "address",
          "name": "dst",
          "type": "address"
        }
      ],
      "name": "getBalanceOfFor",
      "outputs": [
        {
          "internalType": "uint256",
          "name": "",
          "type": "uint256"
        }
      ],
      "stateMutability": "nonpayable",
      "type": "function"
    },
    {
      "inputs": [
        {
          "internalType": "address",
          "name": "src",
          "type": "address"
        },
        {
          "internalType": "address",
          "name": "dst",
          "type": "address"
        }
      ],
      "name": "getPriceFor",
      "outputs": [
        {
          "internalType": "uint256",
          "name": "",
          "type": "uint256"
        }
      ],
      "stateMutability": "view",
      "type": "function"
    },
    {
      "inputs": [
        {
          "internalType": "address",
          "name": "src",
          "type": "address"
        },
        {
          "internalType": "address",
          "name": "dst",
          "type": "address"
        },
        {
          "internalType": "uint256",
          "name": "srcAmount",
          "type": "uint256"
        }
      ],
      "name": "getValueFor",
      "outputs": [
        {
          "internalType": "uint256",
          "name": "",
          "type": "uint256"
        }
      ],
      "stateMutability": "view",
      "type": "function"
    },
    {
      "inputs": [
        {
          "internalType": "bytes32",
          "name": "role",
          "type": "bytes32"
        },
        {
          "internalType": "address",
          "name": "account",
          "type": "address"
        }
      ],
      "name": "grantRole",
      "outputs": [],
      "stateMutability": "nonpayable",
      "type": "function"
    },
    {
      "inputs": [
        {
          "internalType": "bytes32",
          "name": "role",
          "type": "bytes32"
        },
        {
          "internalType": "address",
          "name": "account",
          "type": "address"
        }
      ],
      "name": "hasRole",
      "outputs": [
        {
          "internalType": "bool",
          "name": "",
          "type": "bool"
        }
      ],
      "stateMutability": "view",
      "type": "function"
    },
    {
      "inputs": [
        {
          "internalType": "address",
          "name": "chainlinkPricerAddress",
          "type": "address"
        }
      ],
      "name": "initialize",
      "outputs": [],
      "stateMutability": "nonpayable",
      "type": "function"
    },
    {
      "inputs": [
        {
          "internalType": "bytes32",
          "name": "role",
          "type": "bytes32"
        }
      ],
      "name": "renounceRole",
      "outputs": [],
      "stateMutability": "nonpayable",
      "type": "function"
    },
    {
      "inputs": [
        {
          "internalType": "bytes32",
          "name": "role",
          "type": "bytes32"
        },
        {
          "internalType": "address",
          "name": "account",
          "type": "address"
        }
      ],
      "name": "revokeRole",
      "outputs": [],
      "stateMutability": "nonpayable",
      "type": "function"
    },
    {
      "inputs": [
        {
          "internalType": "address",
          "name": "",
          "type": "address"
        }
      ],
      "name": "saLPPricer",
      "outputs": [
        {
          "internalType": "contract IsaLPPricer",
          "name": "",
          "type": "address"
        }
      ],
      "stateMutability": "view",
      "type": "function"
    },
    {
      "inputs": [
        {
          "internalType": "address",
          "name": "asset",
          "type": "address"
        },
        {
          "internalType": "address",
          "name": "pricer",
          "type": "address"
        }
      ],
      "name": "setAssetPricer",
      "outputs": [],
      "stateMutability": "nonpayable",
      "type": "function"
    },
    {
      "inputs": [
        {
          "internalType": "address",
          "name": "pricer",
          "type": "address"
        },
        {
          "internalType": "address[]",
          "name": "assets",
          "type": "address[]"
        }
      ],
      "name": "setAssetPricers",
      "outputs": [],
      "stateMutability": "nonpayable",
      "type": "function"
    },
    {
      "inputs": [
        {
          "internalType": "address",
          "name": "pricer",
          "type": "address"
        }
      ],
      "name": "setChainlinkPricer",
      "outputs": [],
      "stateMutability": "nonpayable",
      "type": "function"
    },
    {
      "inputs": [],
      "name": "wETH",
      "outputs": [
        {
          "internalType": "address",
          "name": "",
          "type": "address"
        }
      ],
      "stateMutability": "view",
      "type": "function"
    }
  ],
  "artifactName": "PriceAggregator",
  "transactionHash": "0xd066d8d7667b4fd2c2b80ce2afa1b36f6bd4dc3ebef26ca2865892a51570e07f",
  "args": [
    "0x7ceB23fD6bC0adD59E62ac25578270cFf1b9f619"
  ],
  "solcInputHash": "665d1dd8dfb11b9a9b0d587270f130b8",
  "bytecode": "0x60c060405234801561001057600080fd5b5060405161160a38038061160a83398101604081905261002f9161004b565b33606090811b6080521b6001600160601b03191660a052610079565b60006020828403121561005c578081fd5b81516001600160a01b0381168114610072578182fd5b9392505050565b60805160601c60a05160601c6115516100b96000396000818161022b0152818161090201526109ea015260008181610708015261077801526115516000f3fe608060405234801561001057600080fd5b50600436106100ea5760003560e01c806391d148541161008c578063d12a6cc911610066578063d12a6cc9146101d2578063d547741f14610213578063f242862114610226578063f5fd09e71461024d57600080fd5b806391d1485414610189578063c05b1ec3146101ac578063c4d66de8146101bf57600080fd5b80634d6f21a9116100c85780634d6f21a91461013d5780636261eb7c14610150578063758cc77c146101635780638bb9c5bf1461017657600080fd5b80632f2ff15d146100ef57806335a7206d146101045780633fd3ec8f1461012a575b600080fd5b6101026100fd366004611266565b610260565b005b610117610112366004611109565b6102af565b6040519081526020015b60405180910390f35b610102610138366004611109565b6102c4565b61011761014b366004611141565b610348565b61010261015e3660046111cb565b61051c565b6101026101713660046110d1565b6105b5565b61010261018436600461124e565b61062d565b61019c610197366004611266565b61063a565b6040519015158152602001610121565b6101176101ba36600461118b565b610646565b6101026101cd3660046110d1565b61065f565b6101fb6101e03660046110d1565b6001602052600090815260409020546001600160a01b031681565b6040516001600160a01b039091168152602001610121565b610102610221366004611266565b6107bb565b6101fb7f000000000000000000000000000000000000000000000000000000000000000081565b6002546101fb906001600160a01b031681565b6000805160206114fc8339815191523361027a82826107fb565b61029f5760405162461bcd60e51b8152600401610296906112c3565b60405180910390fd5b6102a98484610845565b50505050565b60006102bb83836108d2565b90505b92915050565b6000805160206114fc833981519152336102de82826107fb565b6102fa5760405162461bcd60e51b8152600401610296906112c3565b823b6103185760405162461bcd60e51b8152600401610296906112fa565b50506001600160a01b03918216600090815260016020526040902080546001600160a01b03191691909216179055565b6001600160a01b03808316600090815260016020526040808220548484168352908220549192908116911682826103f9576040516370a0823160e01b81526001600160a01b0388811660048301528716906370a082319060240160206040518083038186803b1580156103ba57600080fd5b505afa1580156103ce573d6000803e3d6000fd5b505050506040513d601f19601f820116820180604052508101906103f2919061128a565b90506104fb565b604051621c9eb960ea1b81526001600160a01b038781166004830152888116602483015284169063727ae40090604401602060405180830381600087803b15801561044357600080fd5b505af1158015610457573d6000803e3d6000fd5b505050506040513d601f19601f8201168201806040525081019061047b919061128a565b604051634e89a71160e01b81526001600160a01b03888116600483015291925090841690634e89a7119060240160206040518083038186803b1580156104c057600080fd5b505afa1580156104d4573d6000803e3d6000fd5b505050506040513d601f19601f820116820180604052508101906104f891906110ed565b95505b61050f868261050a89896108d2565b610ef1565b93505050505b9392505050565b6000805160206114fc8339815191523361053682826107fb565b6105525760405162461bcd60e51b8152600401610296906112c3565b60005b838110156105ad5761059b85858381811061058057634e487b7160e01b600052603260045260246000fd5b905060200201602081019061059591906110d1565b876102c4565b806105a5816114b5565b915050610555565b505050505050565b6000805160206114fc833981519152336105cf82826107fb565b6105eb5760405162461bcd60e51b8152600401610296906112c3565b823b6106095760405162461bcd60e51b8152600401610296906112fa565b5050600280546001600160a01b0319166001600160a01b0392909216919091179055565b6106378133610f10565b50565b60006102bb83836107fb565b6000610657848361050a87876108d2565b949350505050565b600054610100900460ff1680610678575060005460ff16155b6106db5760405162461bcd60e51b815260206004820152602e60248201527f496e697469616c697a61626c653a20636f6e747261637420697320616c72656160448201526d191e481a5b9a5d1a585b1a5e995960921b6064820152608401610296565b600054610100900460ff161580156106fd576000805461ffff19166101011790555b336001600160a01b037f000000000000000000000000000000000000000000000000000000000000000016146107645760405162461bcd60e51b815260206004820152600c60248201526b3737ba103232b83637bcb2b960a11b6044820152606401610296565b61079c6000805160206114fc8339815191527f0000000000000000000000000000000000000000000000000000000000000000610845565b6107a5826105b5565b80156107b7576000805461ff00191690555b5050565b6000805160206114fc833981519152336107d582826107fb565b6107f15760405162461bcd60e51b8152600401610296906112c3565b6102a98484610f10565b60009182527f7b305b6be5f275f648d05716597c483d754c2a242bd605feba3c64fb85360534602090815260408084206001600160a01b0393909316845291905290205460ff1690565b61084f82826107fb565b15610858575050565b60008281527f7b305b6be5f275f648d05716597c483d754c2a242bd605feba3c64fb85360534602090815260408083206001600160a01b0385168085529252808320805460ff1916600117905551339285917f2f8788117e7eff1d82e926ec794901d17c78024a50270940304540a733656f0d9190a45050565b6001600160a01b0380831660008181526001602052604080822054858516835290822054919390811692918116917f000000000000000000000000000000000000000000000000000000000000000090911614801561093857506001600160a01b038116155b156109e85760025460405163a6b24a8f60e01b81526001600160a01b038681166004830152600092169063a6b24a8f9060240160206040518083038186803b15801561098357600080fd5b505afa158015610997573d6000803e3d6000fd5b505050506040513d601f19601f820116820180604052508101906109bb919061128a565b90506109de6109cb826012610f99565b60126109d688610fbb565b60ff1661102e565b93505050506102be565b7f00000000000000000000000000000000000000000000000000000000000000006001600160a01b0316846001600160a01b0316148015610a3057506001600160a01b038216155b15610abe5760025460405163a6b24a8f60e01b81526001600160a01b038781166004830152600092169063a6b24a8f9060240160206040518083038186803b158015610a7b57600080fd5b505afa158015610a8f573d6000803e3d6000fd5b505050506040513d601f19601f82011682018060405250810190610ab3919061128a565b93506102be92505050565b6001600160a01b038216158015610adc57506001600160a01b038116155b15610bfa5760025460405163a6b24a8f60e01b81526001600160a01b038781166004830152600092169063a6b24a8f9060240160206040518083038186803b158015610b2757600080fd5b505afa158015610b3b573d6000803e3d6000fd5b505050506040513d601f19601f82011682018060405250810190610b5f919061128a565b60025460405163a6b24a8f60e01b81526001600160a01b0388811660048301529293506000929091169063a6b24a8f9060240160206040518083038186803b158015610baa57600080fd5b505afa158015610bbe573d6000803e3d6000fd5b505050506040513d601f19601f82011682018060405250810190610be2919061128a565b9050610bef82828861107d565b9450505050506102be565b6001600160a01b03821615801590610c1957506001600160a01b038116155b15610d5557604051634e89a71160e01b81526001600160a01b03868116600483015260009190841690634e89a7119060240160206040518083038186803b158015610c6357600080fd5b505afa158015610c77573d6000803e3d6000fd5b505050506040513d601f19601f82011682018060405250810190610c9b91906110ed565b6040516302d4999160e11b81526001600160a01b0388811660048301529192506000918516906305a933229060240160206040518083038186803b158015610ce257600080fd5b505afa158015610cf6573d6000803e3d6000fd5b505050506040513d601f19601f82011682018060405250810190610d1a919061128a565b9050856001600160a01b0316826001600160a01b03161415610d415793506102be92505050565b610bef81610d4f88856108d2565b8861107d565b604051634e89a71160e01b81526001600160a01b03858116600483015260009190831690634e89a7119060240160206040518083038186803b158015610d9a57600080fd5b505afa158015610dae573d6000803e3d6000fd5b505050506040513d601f19601f82011682018060405250810190610dd291906110ed565b90506001600160a01b038316158015610df357506001600160a01b03821615155b15610ecf576040516302d4999160e11b81526001600160a01b038681166004830152600091908416906305a933229060240160206040518083038186803b158015610e3d57600080fd5b505afa158015610e51573d6000803e3d6000fd5b505050506040513d601f19601f82011682018060405250810190610e75919061128a565b9050816001600160a01b0316876001600160a01b03161415610ebb57610bef610ead82610ea189610fbb565b60ff166109d68b610fbb565b610eb689610fbb565b610f99565b610bef610ec888846108d2565b828861107d565b610ee781610edd88846108d2565b61050a84896108d2565b9695505050505050565b6000610efc846110bb565b610f06838561147f565b6106579190611364565b610f1a82826107fb565b610f22575050565b60008281527f7b305b6be5f275f648d05716597c483d754c2a242bd605feba3c64fb85360534602090815260408083206001600160a01b0385168085529252808320805460ff1916905551339285917ff6391f5c32d9c69d2a47ea670b442974b53935d1edc7fd64eb21e047a839171b9190a45050565b600082610fa6838061133f565b610fb190600a6113d3565b6102bb9190611364565b6000816001600160a01b031663313ce5676040518163ffffffff1660e01b815260040160206040518083038186803b158015610ff657600080fd5b505afa15801561100a573d6000803e3d6000fd5b505050506040513d601f19601f820116820180604052508101906102be91906112a2565b60008282111561105e57611042838361149e565b61104d90600a6113c7565b611057908561147f565b9050610515565b611068828461149e565b61107390600a6113c7565b6110579085611364565b600083156110b3578261108f83610fbb565b61109a90600a6113d3565b6110a4908661147f565b6110ae9190611364565b610657565b509092915050565b60006110c682610fbb565b6102be90600a6113d3565b6000602082840312156110e2578081fd5b8135610515816114e6565b6000602082840312156110fe578081fd5b8151610515816114e6565b6000806040838503121561111b578081fd5b8235611126816114e6565b91506020830135611136816114e6565b809150509250929050565b600080600060608486031215611155578081fd5b8335611160816114e6565b92506020840135611170816114e6565b91506040840135611180816114e6565b809150509250925092565b60008060006060848603121561119f578283fd5b83356111aa816114e6565b925060208401356111ba816114e6565b929592945050506040919091013590565b6000806000604084860312156111df578283fd5b83356111ea816114e6565b9250602084013567ffffffffffffffff80821115611206578384fd5b818601915086601f830112611219578384fd5b813581811115611227578485fd5b8760208260051b850101111561123b578485fd5b6020830194508093505050509250925092565b60006020828403121561125f578081fd5b5035919050565b60008060408385031215611278578182fd5b823591506020830135611136816114e6565b60006020828403121561129b578081fd5b5051919050565b6000602082840312156112b3578081fd5b815160ff81168114610515578182fd5b6020808252601d908201527f416363657373436f6e74726f6c3a206e6f7420617574686f72697a6564000000604082015260600190565b60208082526025908201527f54656c6c65723a20436861696e6c696e6b20707269636572206e6f7420636f6e6040820152641d1c9858dd60da1b606082015260800190565b600060ff821660ff84168060ff0382111561135c5761135c6114d0565b019392505050565b60008261137f57634e487b7160e01b81526012600452602481fd5b500490565b600181815b808511156113bf5781600019048211156113a5576113a56114d0565b808516156113b257918102915b93841c9390800290611389565b509250929050565b60006102bb83836113de565b60006102bb60ff8416835b6000826113ed575060016102be565b816113fa575060006102be565b8160018114611410576002811461141a57611436565b60019150506102be565b60ff84111561142b5761142b6114d0565b50506001821b6102be565b5060208310610133831016604e8410600b8410161715611459575081810a6102be565b6114638383611384565b8060001904821115611477576114776114d0565b029392505050565b6000816000190483118215151615611499576114996114d0565b500290565b6000828210156114b0576114b06114d0565b500390565b60006000198214156114c9576114c96114d0565b5060010190565b634e487b7160e01b600052601160045260246000fd5b6001600160a01b038116811461063757600080fdfedf8b4c520ffe197c5343c6f5aec59570151ef9a492f2c624fd45ddde6135ec42a2646970667358221220e7055de187d8fd2df5a87b47ac8aa7292b519c04eb2b54e41406e9377de292af64736f6c63430008040033",
  "devdoc": {
    "kind": "dev",
    "methods": {
      "getBalanceOfFor(address,address,address)": {
        "params": {
          "account": "Address of the account to get the balance value of.",
          "dst": "Destination token address.",
          "src": "Source token address."
        },
        "returns": {
          "_0": "Value of the {src} token balance denoted in {dst} tokens."
        }
      },
      "getPriceFor(address,address)": {
        "details": "It tries to use ETH as a pass through asset if the direct pair is not supported.",
        "params": {
          "dst": "Destination token address.",
          "src": "Source token address."
        },
        "returns": {
          "_0": "uint256 The latest answer as given from Chainlink."
        }
      },
      "getValueFor(address,address,uint256)": {
        "params": {
          "dst": "Destination token address.",
          "src": "Source token address.",
          "srcAmount": "Amount of the source token to convert into the destination token."
        },
        "returns": {
          "_0": "uint256 Value of the source token amount in destination tokens."
        }
      },
      "grantRole(bytes32,address)": {
        "params": {
          "account": "Address to give the {role} to. Requirements:  - Sender must be role admin.",
          "role": "Encoding of the role to give."
        }
      },
      "hasRole(bytes32,address)": {
        "params": {
          "account": "Address to check the {role} for.",
          "role": "Encoding of the role to check."
        }
      },
      "renounceRole(bytes32)": {
        "params": {
          "role": "Encoding of the role to remove."
        }
      },
      "revokeRole(bytes32,address)": {
        "params": {
          "account": "Address to remove the {role} from. Requirements:  - Sender must be role admin.",
          "role": "Encoding of the role to remove."
        }
      }
    },
    "version": 1
  },
  "userdoc": {
    "kind": "user",
    "methods": {
      "getBalanceOfFor(address,address,address)": {
        "notice": "It calculates the value of the {src} token balance in {dst} token for the {account}."
      },
      "getPriceFor(address,address)": {
        "notice": "It returns the price of the token pair as given from the Chainlink Aggregator."
      },
      "getValueFor(address,address,uint256)": {
        "notice": "It calculates the value of a token amount into another."
      },
      "grantRole(bytes32,address)": {
        "notice": "Grants an account a new role."
      },
      "hasRole(bytes32,address)": {
        "notice": "Checks if an account has a specific role."
      },
      "renounceRole(bytes32)": {
        "notice": "Removes a role from the sender."
      },
      "revokeRole(bytes32,address)": {
        "notice": "Removes a role from an account."
      }
    },
    "version": 1
  },
  "storageLayout": {
    "storage": [
      {
        "astId": 9300,
        "contract": "contracts/price-aggregator/PriceAggregator.sol:PriceAggregator",
        "label": "_initialized",
        "offset": 0,
        "slot": "0",
        "type": "t_bool"
      },
      {
        "astId": 9303,
        "contract": "contracts/price-aggregator/PriceAggregator.sol:PriceAggregator",
        "label": "_initializing",
        "offset": 1,
        "slot": "0",
        "type": "t_bool"
      },
      {
        "astId": 28579,
        "contract": "contracts/price-aggregator/PriceAggregator.sol:PriceAggregator",
        "label": "saLPPricer",
        "offset": 0,
        "slot": "1",
        "type": "t_mapping(t_address,t_contract(IsaLPPricer)28510)"
      },
      {
        "astId": 28582,
        "contract": "contracts/price-aggregator/PriceAggregator.sol:PriceAggregator",
        "label": "chainlinkPricer",
        "offset": 0,
        "slot": "2",
        "type": "t_contract(ChainlinkPricer)29427"
      }
    ],
    "types": {
      "t_address": {
        "encoding": "inplace",
        "label": "address",
        "numberOfBytes": "20"
      },
      "t_bool": {
        "encoding": "inplace",
        "label": "bool",
        "numberOfBytes": "1"
      },
      "t_contract(ChainlinkPricer)29427": {
        "encoding": "inplace",
        "label": "contract ChainlinkPricer",
        "numberOfBytes": "20"
      },
      "t_contract(IsaLPPricer)28510": {
        "encoding": "inplace",
        "label": "contract IsaLPPricer",
        "numberOfBytes": "20"
      },
      "t_mapping(t_address,t_contract(IsaLPPricer)28510)": {
        "encoding": "mapping",
        "key": "t_address",
        "label": "mapping(address => contract IsaLPPricer)",
        "numberOfBytes": "32",
        "value": "t_contract(IsaLPPricer)28510"
      }
    }
  }
}