{
  "address": "0xE5aE32Be9a0c5c77478fC0c80C68a53f74a85de9",
  "abi": [
    {
      "inputs": [
        {
          "internalType": "address",
          "name": "wETHAddress",
          "type": "address"
        },
        {
          "internalType": "address",
          "name": "chainlinkPricerAddress",
          "type": "address"
        }
      ],
      "stateMutability": "nonpayable",
      "type": "constructor"
    },
    {
      "inputs": [],
      "name": "chainlinkPricer",
      "outputs": [
        {
          "internalType": "contract ChainlinkPricer",
          "name": "",
          "type": "address"
        }
      ],
      "stateMutability": "view",
      "type": "function"
    },
    {
      "inputs": [
        {
          "internalType": "address",
          "name": "account",
          "type": "address"
        },
        {
          "internalType": "address",
          "name": "src",
          "type": "address"
        },
        {
          "internalType": "address",
          "name": "dst",
          "type": "address"
        }
      ],
      "name": "getBalanceOfFor",
      "outputs": [
        {
          "internalType": "uint256",
          "name": "",
          "type": "uint256"
        }
      ],
      "stateMutability": "nonpayable",
      "type": "function"
    },
    {
      "inputs": [
        {
          "internalType": "address",
          "name": "src",
          "type": "address"
        },
        {
          "internalType": "address",
          "name": "dst",
          "type": "address"
        }
      ],
      "name": "getPriceFor",
      "outputs": [
        {
          "internalType": "uint256",
          "name": "",
          "type": "uint256"
        }
      ],
      "stateMutability": "view",
      "type": "function"
    },
    {
      "inputs": [
        {
          "internalType": "address",
          "name": "src",
          "type": "address"
        },
        {
          "internalType": "address",
          "name": "dst",
          "type": "address"
        },
        {
          "internalType": "uint256",
          "name": "srcAmount",
          "type": "uint256"
        }
      ],
      "name": "getValueFor",
      "outputs": [
        {
          "internalType": "uint256",
          "name": "",
          "type": "uint256"
        }
      ],
      "stateMutability": "view",
      "type": "function"
    },
    {
      "inputs": [
        {
          "internalType": "address",
          "name": "",
          "type": "address"
        }
      ],
      "name": "saLPPricer",
      "outputs": [
        {
          "internalType": "contract IsaLPPricer",
          "name": "",
          "type": "address"
        }
      ],
      "stateMutability": "view",
      "type": "function"
    },
    {
      "inputs": [
        {
          "internalType": "address",
          "name": "asset",
          "type": "address"
        },
        {
          "internalType": "address",
          "name": "pricer",
          "type": "address"
        }
      ],
      "name": "setAssetPricer",
      "outputs": [],
      "stateMutability": "nonpayable",
      "type": "function"
    },
    {
      "inputs": [
        {
          "internalType": "address",
          "name": "pricer",
          "type": "address"
        },
        {
          "internalType": "address[]",
          "name": "assets",
          "type": "address[]"
        }
      ],
      "name": "setAssetPricers",
      "outputs": [],
      "stateMutability": "nonpayable",
      "type": "function"
    },
    {
      "inputs": [],
      "name": "wETH",
      "outputs": [
        {
          "internalType": "address",
          "name": "",
          "type": "address"
        }
      ],
      "stateMutability": "view",
      "type": "function"
    }
  ],
  "artifactName": "PriceAggregator",
  "transactionHash": "0xef5890adde3e733c7f01061caf6e2b889439144b361ad8d7d6cc0515c36fba27",
  "args": [
    "0x7ceB23fD6bC0adD59E62ac25578270cFf1b9f619",
    "0x0439931527216FE417d81E367fb4E02b6E939883"
  ],
  "solcInputHash": "b5f251bb9db269a299bc010c3a1160db",
  "bytecode": "0x60a060405234801561001057600080fd5b5060405161100e38038061100e83398101604081905261002f91610082565b60609190911b6001600160601b031916608052600180546001600160a01b0319166001600160a01b039092169190911790556100b4565b80516001600160a01b038116811461007d57600080fd5b919050565b60008060408385031215610094578182fd5b61009d83610066565b91506100ab60208401610066565b90509250929050565b60805160601c610f2e6100e0600039600081816101470152818161043d01526105250152610f2e6000f3fe608060405234801561001057600080fd5b50600436106100885760003560e01c8063c05b1ec31161005b578063c05b1ec3146100ee578063d12a6cc914610101578063f242862114610142578063f5fd09e71461016957600080fd5b806335a7206d1461008d5780633fd3ec8f146100b35780634d6f21a9146100c85780636261eb7c146100db575b600080fd5b6100a061009b366004610bbb565b61017c565b6040519081526020015b60405180910390f35b6100c66100c1366004610bbb565b610191565b005b6100a06100d6366004610bf3565b6101bf565b6100c66100e9366004610c7d565b610393565b6100a06100fc366004610c3d565b6103f4565b61012a61010f366004610b83565b6000602081905290815260409020546001600160a01b031681565b6040516001600160a01b0390911681526020016100aa565b61012a7f000000000000000000000000000000000000000000000000000000000000000081565b60015461012a906001600160a01b031681565b6000610188838361040d565b90505b92915050565b6001600160a01b03918216600090815260208190526040902080546001600160a01b03191691909216179055565b6001600160a01b0380831660009081526020819052604080822054848416835290822054919290811691168282610270576040516370a0823160e01b81526001600160a01b0388811660048301528716906370a082319060240160206040518083038186803b15801561023157600080fd5b505afa158015610245573d6000803e3d6000fd5b505050506040513d601f19601f820116820180604052508101906102699190610d00565b9050610372565b604051621c9eb960ea1b81526001600160a01b038781166004830152888116602483015284169063727ae40090604401602060405180830381600087803b1580156102ba57600080fd5b505af11580156102ce573d6000803e3d6000fd5b505050506040513d601f19601f820116820180604052508101906102f29190610d00565b604051634e89a71160e01b81526001600160a01b03888116600483015291925090841690634e89a7119060240160206040518083038186803b15801561033757600080fd5b505afa15801561034b573d6000803e3d6000fd5b505050506040513d601f19601f8201168201806040525081019061036f9190610b9f565b95505b6103868682610381898961040d565b610a2c565b93505050505b9392505050565b60005b818110156103ee576103dc8383838181106103c157634e487b7160e01b600052603260045260246000fd5b90506020020160208101906103d69190610b83565b85610191565b806103e681610eaf565b915050610396565b50505050565b60006104058483610381878761040d565b949350505050565b6001600160a01b0380831660008181526020819052604080822054858516835290822054919390811692918116917f000000000000000000000000000000000000000000000000000000000000000090911614801561047357506001600160a01b038116155b156105235760015460405163a6b24a8f60e01b81526001600160a01b038681166004830152600092169063a6b24a8f9060240160206040518083038186803b1580156104be57600080fd5b505afa1580156104d2573d6000803e3d6000fd5b505050506040513d601f19601f820116820180604052508101906104f69190610d00565b9050610519610506826012610a4b565b601261051188610a6d565b60ff16610ae0565b935050505061018b565b7f00000000000000000000000000000000000000000000000000000000000000006001600160a01b0316846001600160a01b031614801561056b57506001600160a01b038216155b156105f95760015460405163a6b24a8f60e01b81526001600160a01b038781166004830152600092169063a6b24a8f9060240160206040518083038186803b1580156105b657600080fd5b505afa1580156105ca573d6000803e3d6000fd5b505050506040513d601f19601f820116820180604052508101906105ee9190610d00565b935061018b92505050565b6001600160a01b03821615801561061757506001600160a01b038116155b156107355760015460405163a6b24a8f60e01b81526001600160a01b038781166004830152600092169063a6b24a8f9060240160206040518083038186803b15801561066257600080fd5b505afa158015610676573d6000803e3d6000fd5b505050506040513d601f19601f8201168201806040525081019061069a9190610d00565b60015460405163a6b24a8f60e01b81526001600160a01b0388811660048301529293506000929091169063a6b24a8f9060240160206040518083038186803b1580156106e557600080fd5b505afa1580156106f9573d6000803e3d6000fd5b505050506040513d601f19601f8201168201806040525081019061071d9190610d00565b905061072a828288610b2f565b94505050505061018b565b6001600160a01b0382161580159061075457506001600160a01b038116155b1561089057604051634e89a71160e01b81526001600160a01b03868116600483015260009190841690634e89a7119060240160206040518083038186803b15801561079e57600080fd5b505afa1580156107b2573d6000803e3d6000fd5b505050506040513d601f19601f820116820180604052508101906107d69190610b9f565b6040516302d4999160e11b81526001600160a01b0388811660048301529192506000918516906305a933229060240160206040518083038186803b15801561081d57600080fd5b505afa158015610831573d6000803e3d6000fd5b505050506040513d601f19601f820116820180604052508101906108559190610d00565b9050856001600160a01b0316826001600160a01b0316141561087c57935061018b92505050565b61072a8161088a888561040d565b88610b2f565b604051634e89a71160e01b81526001600160a01b03858116600483015260009190831690634e89a7119060240160206040518083038186803b1580156108d557600080fd5b505afa1580156108e9573d6000803e3d6000fd5b505050506040513d601f19601f8201168201806040525081019061090d9190610b9f565b90506001600160a01b03831615801561092e57506001600160a01b03821615155b15610a0a576040516302d4999160e11b81526001600160a01b038681166004830152600091908416906305a933229060240160206040518083038186803b15801561097857600080fd5b505afa15801561098c573d6000803e3d6000fd5b505050506040513d601f19601f820116820180604052508101906109b09190610d00565b9050816001600160a01b0316876001600160a01b031614156109f65761072a6109e8826109dc89610a6d565b60ff166105118b610a6d565b6109f189610a6d565b610a4b565b61072a610a03888461040d565b8288610b2f565b610a2281610a18888461040d565b610381848961040d565b9695505050505050565b6000610a3784610b6d565b610a418385610e79565b6104059190610d5e565b600082610a588380610d39565b610a6390600a610dcd565b6101889190610d5e565b6000816001600160a01b031663313ce5676040518163ffffffff1660e01b815260040160206040518083038186803b158015610aa857600080fd5b505afa158015610abc573d6000803e3d6000fd5b505050506040513d601f19601f8201168201806040525081019061018b9190610d18565b600082821115610b1057610af48383610e98565b610aff90600a610dc1565b610b099085610e79565b905061038c565b610b1a8284610e98565b610b2590600a610dc1565b610b099085610d5e565b60008315610b655782610b4183610a6d565b610b4c90600a610dcd565b610b569086610e79565b610b609190610d5e565b610405565b509092915050565b6000610b7882610a6d565b61018b90600a610dcd565b600060208284031215610b94578081fd5b813561038c81610ee0565b600060208284031215610bb0578081fd5b815161038c81610ee0565b60008060408385031215610bcd578081fd5b8235610bd881610ee0565b91506020830135610be881610ee0565b809150509250929050565b600080600060608486031215610c07578081fd5b8335610c1281610ee0565b92506020840135610c2281610ee0565b91506040840135610c3281610ee0565b809150509250925092565b600080600060608486031215610c51578283fd5b8335610c5c81610ee0565b92506020840135610c6c81610ee0565b929592945050506040919091013590565b600080600060408486031215610c91578283fd5b8335610c9c81610ee0565b9250602084013567ffffffffffffffff80821115610cb8578384fd5b818601915086601f830112610ccb578384fd5b813581811115610cd9578485fd5b8760208260051b8501011115610ced578485fd5b6020830194508093505050509250925092565b600060208284031215610d11578081fd5b5051919050565b600060208284031215610d29578081fd5b815160ff8116811461038c578182fd5b600060ff821660ff84168060ff03821115610d5657610d56610eca565b019392505050565b600082610d7957634e487b7160e01b81526012600452602481fd5b500490565b600181815b80851115610db9578160001904821115610d9f57610d9f610eca565b80851615610dac57918102915b93841c9390800290610d83565b509250929050565b60006101888383610dd8565b600061018860ff8416835b600082610de75750600161018b565b81610df45750600061018b565b8160018114610e0a5760028114610e1457610e30565b600191505061018b565b60ff841115610e2557610e25610eca565b50506001821b61018b565b5060208310610133831016604e8410600b8410161715610e53575081810a61018b565b610e5d8383610d7e565b8060001904821115610e7157610e71610eca565b029392505050565b6000816000190483118215151615610e9357610e93610eca565b500290565b600082821015610eaa57610eaa610eca565b500390565b6000600019821415610ec357610ec3610eca565b5060010190565b634e487b7160e01b600052601160045260246000fd5b6001600160a01b0381168114610ef557600080fd5b5056fea2646970667358221220adeffa61b623951cccecb215a4fcf0e0947ff108f484d6bc8aec1b1b10c7bbc064736f6c63430008040033",
  "devdoc": {
    "kind": "dev",
    "methods": {
      "getBalanceOfFor(address,address,address)": {
        "params": {
          "account": "Address of the account to get the balance value of.",
          "dst": "Destination token address.",
          "src": "Source token address."
        },
        "returns": {
          "_0": "Value of the {src} token balance denoted in {dst} tokens."
        }
      },
      "getPriceFor(address,address)": {
        "details": "It tries to use ETH as a pass through asset if the direct pair is not supported.",
        "params": {
          "dst": "Destination token address.",
          "src": "Source token address."
        },
        "returns": {
          "_0": "uint256 The latest answer as given from Chainlink."
        }
      },
      "getValueFor(address,address,uint256)": {
        "params": {
          "dst": "Destination token address.",
          "src": "Source token address.",
          "srcAmount": "Amount of the source token to convert into the destination token."
        },
        "returns": {
          "_0": "uint256 Value of the source token amount in destination tokens."
        }
      }
    },
    "version": 1
  },
  "userdoc": {
    "kind": "user",
    "methods": {
      "getBalanceOfFor(address,address,address)": {
        "notice": "It calculates the value of the {src} token balance in {dst} token for the {account}."
      },
      "getPriceFor(address,address)": {
        "notice": "It returns the price of the token pair as given from the Chainlink Aggregator."
      },
      "getValueFor(address,address,uint256)": {
        "notice": "It calculates the value of a token amount into another."
      }
    },
    "version": 1
  },
  "storageLayout": {
    "storage": [
      {
        "astId": 24083,
        "contract": "contracts/price-aggregator/PriceAggregator.sol:PriceAggregator",
        "label": "saLPPricer",
        "offset": 0,
        "slot": "0",
        "type": "t_mapping(t_address,t_contract(IsaLPPricer)24029)"
      },
      {
        "astId": 24086,
        "contract": "contracts/price-aggregator/PriceAggregator.sol:PriceAggregator",
        "label": "chainlinkPricer",
        "offset": 0,
        "slot": "1",
        "type": "t_contract(ChainlinkPricer)24854"
      }
    ],
    "types": {
      "t_address": {
        "encoding": "inplace",
        "label": "address",
        "numberOfBytes": "20"
      },
      "t_contract(ChainlinkPricer)24854": {
        "encoding": "inplace",
        "label": "contract ChainlinkPricer",
        "numberOfBytes": "20"
      },
      "t_contract(IsaLPPricer)24029": {
        "encoding": "inplace",
        "label": "contract IsaLPPricer",
        "numberOfBytes": "20"
      },
      "t_mapping(t_address,t_contract(IsaLPPricer)24029)": {
        "encoding": "mapping",
        "key": "t_address",
        "label": "mapping(address => contract IsaLPPricer)",
        "numberOfBytes": "32",
        "value": "t_contract(IsaLPPricer)24029"
      }
    }
  }
}