{
  "address": "0x3BDc24EB8f8be0B7556FD46b7e1FD10aD696A42B",
  "abi": [
    {
      "anonymous": false,
      "inputs": [
        {
          "indexed": true,
          "internalType": "bytes32",
          "name": "role",
          "type": "bytes32"
        },
        {
          "indexed": true,
          "internalType": "bytes32",
          "name": "previousAdminRole",
          "type": "bytes32"
        },
        {
          "indexed": true,
          "internalType": "bytes32",
          "name": "newAdminRole",
          "type": "bytes32"
        }
      ],
      "name": "RoleAdminChanged",
      "type": "event"
    },
    {
      "anonymous": false,
      "inputs": [
        {
          "indexed": true,
          "internalType": "bytes32",
          "name": "role",
          "type": "bytes32"
        },
        {
          "indexed": true,
          "internalType": "address",
          "name": "account",
          "type": "address"
        },
        {
          "indexed": true,
          "internalType": "address",
          "name": "sender",
          "type": "address"
        }
      ],
      "name": "RoleGranted",
      "type": "event"
    },
    {
      "anonymous": false,
      "inputs": [
        {
          "indexed": true,
          "internalType": "bytes32",
          "name": "role",
          "type": "bytes32"
        },
        {
          "indexed": true,
          "internalType": "address",
          "name": "account",
          "type": "address"
        },
        {
          "indexed": true,
          "internalType": "address",
          "name": "sender",
          "type": "address"
        }
      ],
      "name": "RoleRevoked",
      "type": "event"
    },
    {
      "inputs": [],
      "name": "ADMIN",
      "outputs": [
        {
          "internalType": "bytes32",
          "name": "",
          "type": "bytes32"
        }
      ],
      "stateMutability": "view",
      "type": "function"
    },
    {
      "inputs": [],
      "name": "DEFAULT_ADMIN_ROLE",
      "outputs": [
        {
          "internalType": "bytes32",
          "name": "",
          "type": "bytes32"
        }
      ],
      "stateMutability": "view",
      "type": "function"
    },
    {
      "inputs": [
        {
          "internalType": "uint256",
          "name": "",
          "type": "uint256"
        }
      ],
      "name": "_tokenTierMappingCompressed",
      "outputs": [
        {
          "internalType": "uint256",
          "name": "",
          "type": "uint256"
        }
      ],
      "stateMutability": "view",
      "type": "function"
    },
    {
      "inputs": [],
      "name": "_tokenTierMappingCompressedSet",
      "outputs": [
        {
          "internalType": "bool",
          "name": "",
          "type": "bool"
        }
      ],
      "stateMutability": "view",
      "type": "function"
    },
    {
      "inputs": [
        {
          "internalType": "uint256",
          "name": "",
          "type": "uint256"
        }
      ],
      "name": "baseLoanSizes",
      "outputs": [
        {
          "internalType": "uint256",
          "name": "",
          "type": "uint256"
        }
      ],
      "stateMutability": "view",
      "type": "function"
    },
    {
      "inputs": [
        {
          "internalType": "uint256",
          "name": "",
          "type": "uint256"
        }
      ],
      "name": "contributionAssets",
      "outputs": [
        {
          "internalType": "address",
          "name": "",
          "type": "address"
        }
      ],
      "stateMutability": "view",
      "type": "function"
    },
    {
      "inputs": [
        {
          "internalType": "uint256",
          "name": "",
          "type": "uint256"
        }
      ],
      "name": "contributionMultipliers",
      "outputs": [
        {
          "internalType": "uint8",
          "name": "",
          "type": "uint8"
        }
      ],
      "stateMutability": "view",
      "type": "function"
    },
    {
      "inputs": [
        {
          "internalType": "uint256",
          "name": "",
          "type": "uint256"
        }
      ],
      "name": "contributionSizes",
      "outputs": [
        {
          "internalType": "uint256",
          "name": "",
          "type": "uint256"
        }
      ],
      "stateMutability": "view",
      "type": "function"
    },
    {
      "inputs": [
        {
          "internalType": "bytes32",
          "name": "role",
          "type": "bytes32"
        }
      ],
      "name": "getRoleAdmin",
      "outputs": [
        {
          "internalType": "bytes32",
          "name": "",
          "type": "bytes32"
        }
      ],
      "stateMutability": "view",
      "type": "function"
    },
    {
      "inputs": [
        {
          "internalType": "uint256",
          "name": "tierIndex",
          "type": "uint256"
        }
      ],
      "name": "getTierHashes",
      "outputs": [
        {
          "internalType": "string[]",
          "name": "",
          "type": "string[]"
        }
      ],
      "stateMutability": "view",
      "type": "function"
    },
    {
      "inputs": [
        {
          "internalType": "uint256",
          "name": "tokenId",
          "type": "uint256"
        }
      ],
      "name": "getTokenTierIndex",
      "outputs": [
        {
          "internalType": "uint8",
          "name": "index_",
          "type": "uint8"
        }
      ],
      "stateMutability": "view",
      "type": "function"
    },
    {
      "inputs": [
        {
          "internalType": "bytes32",
          "name": "role",
          "type": "bytes32"
        },
        {
          "internalType": "address",
          "name": "account",
          "type": "address"
        }
      ],
      "name": "grantRole",
      "outputs": [],
      "stateMutability": "nonpayable",
      "type": "function"
    },
    {
      "inputs": [
        {
          "internalType": "bytes32",
          "name": "role",
          "type": "bytes32"
        },
        {
          "internalType": "address",
          "name": "account",
          "type": "address"
        }
      ],
      "name": "hasRole",
      "outputs": [
        {
          "internalType": "bool",
          "name": "",
          "type": "bool"
        }
      ],
      "stateMutability": "view",
      "type": "function"
    },
    {
      "inputs": [
        {
          "internalType": "uint256",
          "name": "",
          "type": "uint256"
        },
        {
          "internalType": "uint256",
          "name": "",
          "type": "uint256"
        }
      ],
      "name": "hashes",
      "outputs": [
        {
          "internalType": "string",
          "name": "",
          "type": "string"
        }
      ],
      "stateMutability": "view",
      "type": "function"
    },
    {
      "inputs": [
        {
          "internalType": "address",
          "name": "initialAdmin",
          "type": "address"
        }
      ],
      "name": "initialize",
      "outputs": [],
      "stateMutability": "nonpayable",
      "type": "function"
    },
    {
      "inputs": [
        {
          "internalType": "bytes32",
          "name": "role",
          "type": "bytes32"
        },
        {
          "internalType": "address",
          "name": "account",
          "type": "address"
        }
      ],
      "name": "renounceRole",
      "outputs": [],
      "stateMutability": "nonpayable",
      "type": "function"
    },
    {
      "inputs": [
        {
          "internalType": "bytes32",
          "name": "role",
          "type": "bytes32"
        },
        {
          "internalType": "address",
          "name": "account",
          "type": "address"
        }
      ],
      "name": "revokeRole",
      "outputs": [],
      "stateMutability": "nonpayable",
      "type": "function"
    },
    {
      "inputs": [
        {
          "internalType": "uint256[]",
          "name": "tiersMapping",
          "type": "uint256[]"
        }
      ],
      "name": "setAllTokenTierMappings",
      "outputs": [
        {
          "internalType": "bool",
          "name": "",
          "type": "bool"
        }
      ],
      "stateMutability": "nonpayable",
      "type": "function"
    },
    {
      "inputs": [
        {
          "internalType": "uint256",
          "name": "index",
          "type": "uint256"
        },
        {
          "components": [
            {
              "internalType": "uint256",
              "name": "baseLoanSize",
              "type": "uint256"
            },
            {
              "internalType": "string[]",
              "name": "hashes",
              "type": "string[]"
            },
            {
              "internalType": "address",
              "name": "contributionAsset",
              "type": "address"
            },
            {
              "internalType": "uint256",
              "name": "contributionSize",
              "type": "uint256"
            },
            {
              "internalType": "uint8",
              "name": "contributionMultiplier",
              "type": "uint8"
            }
          ],
          "internalType": "struct TellerNFTDictionary.Tier",
          "name": "newTier",
          "type": "tuple"
        }
      ],
      "name": "setTier",
      "outputs": [
        {
          "internalType": "bool",
          "name": "",
          "type": "bool"
        }
      ],
      "stateMutability": "nonpayable",
      "type": "function"
    },
    {
      "inputs": [
        {
          "internalType": "uint256",
          "name": "tokenId",
          "type": "uint256"
        },
        {
          "internalType": "uint256",
          "name": "tokenTier",
          "type": "uint256"
        }
      ],
      "name": "setTokenTierForTokenId",
      "outputs": [
        {
          "internalType": "bool",
          "name": "",
          "type": "bool"
        }
      ],
      "stateMutability": "nonpayable",
      "type": "function"
    },
    {
      "inputs": [
        {
          "internalType": "uint256[]",
          "name": "tokenIds",
          "type": "uint256[]"
        },
        {
          "internalType": "uint256",
          "name": "tokenTier",
          "type": "uint256"
        }
      ],
      "name": "setTokenTierForTokenIds",
      "outputs": [
        {
          "internalType": "bool",
          "name": "",
          "type": "bool"
        }
      ],
      "stateMutability": "nonpayable",
      "type": "function"
    },
    {
      "inputs": [
        {
          "internalType": "uint256",
          "name": "index",
          "type": "uint256"
        },
        {
          "internalType": "uint256",
          "name": "tierMapping",
          "type": "uint256"
        }
      ],
      "name": "setTokenTierMapping",
      "outputs": [
        {
          "internalType": "bool",
          "name": "",
          "type": "bool"
        }
      ],
      "stateMutability": "nonpayable",
      "type": "function"
    },
    {
      "inputs": [
        {
          "internalType": "bytes4",
          "name": "interfaceId",
          "type": "bytes4"
        }
      ],
      "name": "supportsInterface",
      "outputs": [
        {
          "internalType": "bool",
          "name": "",
          "type": "bool"
        }
      ],
      "stateMutability": "view",
      "type": "function"
    },
    {
      "inputs": [
        {
          "internalType": "uint256",
          "name": "tokenId",
          "type": "uint256"
        }
      ],
      "name": "tokenBaseLoanSize",
      "outputs": [
        {
          "internalType": "uint256",
          "name": "",
          "type": "uint256"
        }
      ],
      "stateMutability": "view",
      "type": "function"
    },
    {
      "inputs": [
        {
          "internalType": "uint256",
          "name": "tokenId",
          "type": "uint256"
        }
      ],
      "name": "tokenContributionAsset",
      "outputs": [
        {
          "internalType": "address",
          "name": "",
          "type": "address"
        }
      ],
      "stateMutability": "view",
      "type": "function"
    },
    {
      "inputs": [
        {
          "internalType": "uint256",
          "name": "tokenId",
          "type": "uint256"
        }
      ],
      "name": "tokenContributionMultiplier",
      "outputs": [
        {
          "internalType": "uint8",
          "name": "",
          "type": "uint8"
        }
      ],
      "stateMutability": "view",
      "type": "function"
    },
    {
      "inputs": [
        {
          "internalType": "uint256",
          "name": "tokenId",
          "type": "uint256"
        }
      ],
      "name": "tokenContributionSize",
      "outputs": [
        {
          "internalType": "uint256",
          "name": "",
          "type": "uint256"
        }
      ],
      "stateMutability": "view",
      "type": "function"
    },
    {
      "inputs": [
        {
          "internalType": "uint256",
          "name": "tokenId",
          "type": "uint256"
        }
      ],
      "name": "tokenURIHash",
      "outputs": [
        {
          "internalType": "string",
          "name": "",
          "type": "string"
        }
      ],
      "stateMutability": "view",
      "type": "function"
    }
  ],
  "artifactName": "TellerNFTDictionary",
  "transactionHash": "0xe81e4584672beb3669b2466a3e2317500ca6cce20bdb1e1dabb1b562fa3d96a3",
  "args": [],
  "solcInputHash": "b5f251bb9db269a299bc010c3a1160db",
  "bytecode": "0x608060405234801561001057600080fd5b50611a39806100206000396000f3fe608060405234801561001057600080fd5b50600436106101c35760003560e01c80638a41823c116100f9578063c5d6bbaa11610097578063d300133911610071578063d300133914610447578063d547741f1461045a578063f40898ef1461046d578063f89a268e1461048057600080fd5b8063c5d6bbaa146103e7578063cbee53a314610407578063d13372ca1461042757600080fd5b8063a217fddf116100d3578063a217fddf1461039c578063bd5c89ed146103a4578063c07b03d0146103c7578063c4d66de8146103d457600080fd5b80638a41823c1461035657806391d1485414610376578063a16eae311461038957600080fd5b80632a0acc6a1161016657806336568abe1161014057806336568abe146102f857806346765a571461030b57806362a572331461031e57806375623b451461034357600080fd5b80632a0acc6a146102bb5780632a4ce651146102d05780632f2ff15d146102e357600080fd5b80631e89487a116101a25780631e89487a14610231578063245a69d414610272578063248a9ca31461028557806324db57f8146102a857600080fd5b806284c795146101c857806301ffc9a7146101ee5780631a61974014610211575b600080fd5b6101db6101d636600461147e565b610493565b6040519081526020015b60405180910390f35b6102016101fc3660046114c1565b6104b8565b60405190151581526020016101e5565b6101db61021f36600461147e565b60976020526000908152604090205481565b61025a61023f36600461147e565b6099602052600090815260409020546001600160a01b031681565b6040516001600160a01b0390911681526020016101e5565b6102016102803660046113e6565b6104e3565b6101db61029336600461147e565b60009081526065602052604090206001015490565b6101db6102b636600461147e565b610603565b6101db6000805160206119e483398151915281565b6102016102de366004611655565b610628565b6102f66102f1366004611496565b610674565b005b6102f6610306366004611496565b61069f565b6102016103193660046114e9565b61071d565b61033161032c36600461147e565b6107ee565b60405160ff90911681526020016101e5565b610201610351366004611655565b610816565b6101db61036436600461147e565b609a6020526000908152604090205481565b610201610384366004611496565b6108b9565b61033161039736600461147e565b6108e4565b6101db600081565b6103316103b236600461147e565b609b6020526000908152604090205460ff1681565b609d546102019060ff1681565b6102f66103e2366004611356565b610932565b6101db6103f536600461147e565b609c6020526000908152604090205481565b61041a61041536600461147e565b61096d565b6040516101e59190611717565b61043a610435366004611655565b610a59565b6040516101e59190611778565b61043a61045536600461147e565b610b12565b6102f6610468366004611496565b610c48565b61025a61047b36600461147e565b610c6e565b61020161048e366004611370565b610c9c565b60008061049f836108e4565b60ff166000908152609a60205260409020549392505050565b60006001600160e01b03198216630c3e4d3160e31b14806104dd57506104dd82610d2b565b92915050565b60006104fd6000805160206119e4833981519152336108b9565b6105225760405162461bcd60e51b81526004016105199061178b565b60405180910390fd5b609d5460ff16156105915760405162461bcd60e51b815260206004820152603360248201527f54656c6c65724e465444696374696f6e6172793a20746f6b656e2074696572206044820152721b585c1c1a5b99c8185b1c9958591e481cd95d606a1b6064820152608401610519565b60005b82518110156105eb578281815181106105bd57634e487b7160e01b600052603260045260246000fd5b6020908102919091018101516000838152609c909252604090912055806105e381611972565b915050610594565b5050609d805460ff191660019081179091555b919050565b60008061060f836108e4565b60ff166000908152609760205260409020549392505050565b60006106426000805160206119e4833981519152336108b9565b61065e5760405162461bcd60e51b81526004016105199061178b565b506000918252609c602052604090912055600190565b6000828152606560205260409020600101546106908133610d60565b61069a8383610dc4565b505050565b6001600160a01b038116331461070f5760405162461bcd60e51b815260206004820152602f60248201527f416363657373436f6e74726f6c3a2063616e206f6e6c792072656e6f756e636560448201526e103937b632b9903337b91039b2b63360891b6064820152608401610519565b6107198282610e4a565b5050565b60006107376000805160206119e4833981519152336108b9565b6107535760405162461bcd60e51b81526004016105199061178b565b8151600084815260976020908152604080832093909355808501516098825292909120825161078893919291909101906111e5565b505060408181015160009384526099602090815282852080546001600160a01b0319166001600160a01b03909316929092179091556060830151609a825282852055608090920151609b909252909120805460ff191660ff909216919091179055600190565b6000806107fa836108e4565b60ff9081166000908152609b6020526040902054169392505050565b60006108306000805160206119e4833981519152336108b9565b61084c5760405162461bcd60e51b81526004016105199061178b565b60006108596020856118a6565b6000818152609c60209081526040822054929350610877908761198d565b61088290601f6118d9565b61088d9060086118ba565b6000938452609c602052604090932094831b60ff90931b19919091169190911790925550600192915050565b60009182526065602090815260408084206001600160a01b0393909316845291905290205460ff1690565b6000806108f26020846118a6565b6000818152609c60209081526040822054929350610910908661198d565b61091b90601f6118d9565b6109269060086118ba565b9190911c949350505050565b61094a6000805160206119e483398151915282610eb1565b6109626000805160206119e483398151915280610ebb565b61096a610f0f565b50565b606060986000838152602001908152602001600020805480602002602001604051908101604052809291908181526020016000905b82821015610a4e5783829060005260206000200180546109c190611937565b80601f01602080910402602001604051908101604052809291908181526020018280546109ed90611937565b8015610a3a5780601f10610a0f57610100808354040283529160200191610a3a565b820191906000526020600020905b815481529060010190602001808311610a1d57829003601f168201915b5050505050815260200190600101906109a2565b505050509050919050565b60986020528160005260406000208181548110610a7557600080fd5b90600052602060002001600091509150508054610a9190611937565b80601f0160208091040260200160405190810160405280929190818152602001828054610abd90611937565b8015610b0a5780601f10610adf57610100808354040283529160200191610b0a565b820191906000526020600020905b815481529060010190602001808311610aed57829003601f168201915b505050505081565b60606000610b1f836108e4565b90506000609860008360ff168152602001908152602001600020805480602002602001604051908101604052809291908181526020016000905b82821015610c05578382906000526020600020018054610b7890611937565b80601f0160208091040260200160405190810160405280929190818152602001828054610ba490611937565b8015610bf15780601f10610bc657610100808354040283529160200191610bf1565b820191906000526020600020905b815481529060010190602001808311610bd457829003601f168201915b505050505081526020019060010190610b59565b50505050905080815185610c19919061198d565b81518110610c3757634e487b7160e01b600052603260045260246000fd5b602002602001015192505050919050565b600082815260656020526040902060010154610c648133610d60565b61069a8383610e4a565b600080610c7a836108e4565b60ff166000908152609960205260409020546001600160a01b03169392505050565b6000610cb66000805160206119e4833981519152336108b9565b610cd25760405162461bcd60e51b81526004016105199061178b565b60005b83811015610d2057610d0d858583818110610d0057634e487b7160e01b600052603260045260246000fd5b9050602002013584610816565b5080610d1881611972565b915050610cd5565b506001949350505050565b60006001600160e01b03198216637965db0b60e01b14806104dd57506301ffc9a760e01b6001600160e01b03198316146104dd565b610d6a82826108b9565b61071957610d82816001600160a01b03166014610f92565b610d8d836020610f92565b604051602001610d9e9291906116a2565b60408051601f198184030181529082905262461bcd60e51b825261051991600401611778565b610dce82826108b9565b6107195760008281526065602090815260408083206001600160a01b03851684529091529020805460ff19166001179055610e063390565b6001600160a01b0316816001600160a01b0316837f2f8788117e7eff1d82e926ec794901d17c78024a50270940304540a733656f0d60405160405180910390a45050565b610e5482826108b9565b156107195760008281526065602090815260408083206001600160a01b0385168085529252808320805460ff1916905551339285917ff6391f5c32d9c69d2a47ea670b442974b53935d1edc7fd64eb21e047a839171b9190a45050565b6107198282610dc4565b600082815260656020526040902060010154819060405184907fbd79b86ffe0ab8e8776151514217cd7cacd52c909f66475c3af44e129f0b00ff90600090a460009182526065602052604090912060010155565b600054610100900460ff1680610f28575060005460ff16155b610f445760405162461bcd60e51b8152600401610519906117c2565b600054610100900460ff16158015610f66576000805461ffff19166101011790555b610f6e61117b565b610f7661117b565b610f7e61117b565b801561096a576000805461ff001916905550565b60606000610fa18360026118ba565b610fac90600261188e565b67ffffffffffffffff811115610fd257634e487b7160e01b600052604160045260246000fd5b6040519080825280601f01601f191660200182016040528015610ffc576020820181803683370190505b509050600360fc1b8160008151811061102557634e487b7160e01b600052603260045260246000fd5b60200101906001600160f81b031916908160001a905350600f60fb1b8160018151811061106257634e487b7160e01b600052603260045260246000fd5b60200101906001600160f81b031916908160001a90535060006110868460026118ba565b61109190600161188e565b90505b6001811115611125576f181899199a1a9b1b9c1cb0b131b232b360811b85600f16601081106110d357634e487b7160e01b600052603260045260246000fd5b1a60f81b8282815181106110f757634e487b7160e01b600052603260045260246000fd5b60200101906001600160f81b031916908160001a90535060049490941c9361111e81611920565b9050611094565b5083156111745760405162461bcd60e51b815260206004820181905260248201527f537472696e67733a20686578206c656e67746820696e73756666696369656e746044820152606401610519565b9392505050565b600054610100900460ff1680611194575060005460ff16155b6111b05760405162461bcd60e51b8152600401610519906117c2565b600054610100900460ff16158015610f7e576000805461ffff1916610101179055801561096a576000805461ff001916905550565b828054828255906000526020600020908101928215611232579160200282015b828111156112325782518051611222918491602090910190611242565b5091602001919060010190611205565b5061123e9291506112c2565b5090565b82805461124e90611937565b90600052602060002090601f01602090048101928261127057600085556112b6565b82601f1061128957805160ff19168380011785556112b6565b828001600101855582156112b6579182015b828111156112b657825182559160200191906001019061129b565b5061123e9291506112df565b8082111561123e5760006112d682826112f4565b506001016112c2565b5b8082111561123e57600081556001016112e0565b50805461130090611937565b6000825580601f10611310575050565b601f01602090049060005260206000209081019061096a91906112df565b80356001600160a01b03811681146105fe57600080fd5b803560ff811681146105fe57600080fd5b600060208284031215611367578081fd5b6111748261132e565b600080600060408486031215611384578182fd5b833567ffffffffffffffff8082111561139b578384fd5b818601915086601f8301126113ae578384fd5b8135818111156113bc578485fd5b8760208260051b85010111156113d0578485fd5b6020928301989097509590910135949350505050565b600060208083850312156113f8578182fd5b823567ffffffffffffffff81111561140e578283fd5b8301601f8101851361141e578283fd5b803561143161142c8261186a565b611839565b80828252848201915084840188868560051b8701011115611450578687fd5b8694505b83851015611472578035835260019490940193918501918501611454565b50979650505050505050565b60006020828403121561148f578081fd5b5035919050565b600080604083850312156114a8578182fd5b823591506114b86020840161132e565b90509250929050565b6000602082840312156114d2578081fd5b81356001600160e01b031981168114611174578182fd5b600080604083850312156114fb578182fd5b8235915060208084013567ffffffffffffffff8082111561151a578384fd5b9085019060a0828803121561152d578384fd5b611535611810565b8235815281848401351115611548578485fd5b83830135830188601f82011261155c578586fd5b61156961142c823561186a565b808235825286820191508683018b88853560051b860101111561158a578889fd5b885b84358110156116125786823511156115a257898afd5b813585018d603f8201126115b4578a8bfd5b89810135888111156115c8576115c86119cd565b6115da601f8201601f19168c01611839565b8181528f60408385010111156115ee578c8dfd5b81604084018d8301379081018b018c9052855250928801929088019060010161158c565b5050838701525061162790506040840161132e565b60408201526060830135606082015261164260808401611345565b6080820152809450505050509250929050565b60008060408385031215611667578182fd5b50508035926020909101359150565b6000815180845261168e8160208601602086016118f0565b601f01601f19169290920160200192915050565b7f416363657373436f6e74726f6c3a206163636f756e74200000000000000000008152600083516116da8160178501602088016118f0565b7001034b99036b4b9b9b4b733903937b6329607d1b601791840191820152835161170b8160288401602088016118f0565b01602801949350505050565b6000602080830181845280855180835260408601915060408160051b8701019250838701855b8281101561176b57603f19888603018452611759858351611676565b9450928501929085019060010161173d565b5092979650505050505050565b6020815260006111746020830184611676565b6020808252601e908201527f54656c6c65724e465444696374696f6e6172793a206e6f742061646d696e0000604082015260600190565b6020808252602e908201527f496e697469616c697a61626c653a20636f6e747261637420697320616c72656160408201526d191e481a5b9a5d1a585b1a5e995960921b606082015260800190565b60405160a0810167ffffffffffffffff81118282101715611833576118336119cd565b60405290565b604051601f8201601f1916810167ffffffffffffffff81118282101715611862576118626119cd565b604052919050565b600067ffffffffffffffff821115611884576118846119cd565b5060051b60200190565b600082198211156118a1576118a16119a1565b500190565b6000826118b5576118b56119b7565b500490565b60008160001904831182151516156118d4576118d46119a1565b500290565b6000828210156118eb576118eb6119a1565b500390565b60005b8381101561190b5781810151838201526020016118f3565b8381111561191a576000848401525b50505050565b60008161192f5761192f6119a1565b506000190190565b600181811c9082168061194b57607f821691505b6020821081141561196c57634e487b7160e01b600052602260045260246000fd5b50919050565b6000600019821415611986576119866119a1565b5060010190565b60008261199c5761199c6119b7565b500690565b634e487b7160e01b600052601160045260246000fd5b634e487b7160e01b600052601260045260246000fd5b634e487b7160e01b600052604160045260246000fdfedf8b4c520ffe197c5343c6f5aec59570151ef9a492f2c624fd45ddde6135ec42a2646970667358221220c5e3ae96fb413ebe1608bffba356df296d0e3327b54abcab4ed3dc355e27f2b864736f6c63430008040033",
  "devdoc": {
    "author": "develop@teller.finance",
    "kind": "dev",
    "methods": {
      "getRoleAdmin(bytes32)": {
        "details": "Returns the admin role that controls `role`. See {grantRole} and {revokeRole}. To change a role's admin, use {_setRoleAdmin}."
      },
      "getTokenTierIndex(uint256)": {
        "params": {
          "tokenId": "ID of the token to get Tier info."
        }
      },
      "grantRole(bytes32,address)": {
        "details": "Grants `role` to `account`. If `account` had not been already granted `role`, emits a {RoleGranted} event. Requirements: - the caller must have ``role``'s admin role."
      },
      "hasRole(bytes32,address)": {
        "details": "Returns `true` if `account` has been granted `role`."
      },
      "renounceRole(bytes32,address)": {
        "details": "Revokes `role` from the calling account. Roles are often managed via {grantRole} and {revokeRole}: this function's purpose is to provide a mechanism for accounts to lose their privileges if they are compromised (such as when a trusted device is misplaced). If the calling account had been granted `role`, emits a {RoleRevoked} event. Requirements: - the caller must be `account`."
      },
      "revokeRole(bytes32,address)": {
        "details": "Revokes `role` from `account`. If `account` had been granted `role`, emits a {RoleRevoked} event. Requirements: - the caller must have ``role``'s admin role."
      },
      "setAllTokenTierMappings(uint256[])": {
        "params": {
          "tiersMapping": "Information about the new tiers to add. Requirements:  - Caller must have the {Admin} role"
        }
      },
      "setTier(uint256,(uint256,string[],address,uint256,uint8))": {
        "details": "It auto increments the index of the next tier to add.",
        "params": {
          "newTier": "Information about the new tier to add. Requirements:  - Caller must have the {Admin} role"
        }
      },
      "setTokenTierForTokenId(uint256,uint256)": {
        "params": {
          "tokenId": "the NFT token Id for which to add data",
          "tokenTier": "the index of the tier that these tokenIds should have Requirements:  - Caller must have the {Admin} role"
        }
      },
      "setTokenTierForTokenIds(uint256[],uint256)": {
        "params": {
          "tokenIds": "the NFT token Ids for which to add data",
          "tokenTier": "the index of the tier that these tokenIds should have Requirements:  - Caller must have the {Admin} role"
        }
      },
      "setTokenTierMapping(uint256,uint256)": {
        "params": {
          "index": "the mapping row, each holds data for 32 tokens",
          "tierMapping": "Information about the new tier to add. Requirements:  - Caller must have the {Admin} role"
        }
      },
      "supportsInterface(bytes4)": {
        "details": "See {IERC165-supportsInterface}."
      },
      "tokenBaseLoanSize(uint256)": {
        "params": {
          "tokenId": "ID of the token to get info."
        }
      },
      "tokenContributionAsset(uint256)": {
        "params": {
          "tokenId": "ID of the token to get info."
        }
      },
      "tokenContributionMultiplier(uint256)": {
        "params": {
          "tokenId": "ID of the token to get info."
        }
      },
      "tokenContributionSize(uint256)": {
        "params": {
          "tokenId": "ID of the token to get info."
        }
      },
      "tokenURIHash(uint256)": {
        "params": {
          "tokenId": "ID of the token to get info."
        }
      }
    },
    "version": 1
  },
  "userdoc": {
    "kind": "user",
    "methods": {
      "getTokenTierIndex(uint256)": {
        "notice": "It returns information about a Tier for a token ID."
      },
      "setAllTokenTierMappings(uint256[])": {
        "notice": "Sets the tiers for each tokenId using compressed data."
      },
      "setTier(uint256,(uint256,string[],address,uint256,uint8))": {
        "notice": "Adds a new Tier to be minted with the given information."
      },
      "setTokenTierForTokenId(uint256,uint256)": {
        "notice": "Sets a specific tier for a specific tokenId using compressed data."
      },
      "setTokenTierForTokenIds(uint256[],uint256)": {
        "notice": "Sets a specific tier for a specific tokenId using compressed data."
      },
      "setTokenTierMapping(uint256,uint256)": {
        "notice": "Sets the tiers for each tokenId using compressed data."
      },
      "tokenBaseLoanSize(uint256)": {
        "notice": "It returns Base Loan Size for a token ID."
      },
      "tokenContributionAsset(uint256)": {
        "notice": "It returns Contribution Asset for a token ID."
      },
      "tokenContributionMultiplier(uint256)": {
        "notice": "It returns Contribution Multiplier for a token ID."
      },
      "tokenContributionSize(uint256)": {
        "notice": "It returns Contribution Size for a token ID."
      },
      "tokenURIHash(uint256)": {
        "notice": "It returns Token URI Hash for a token ID."
      }
    },
    "notice": "This contract is used by borrowers to call Dapp functions (using delegate calls).This contract should only be constructed using it's upgradeable Proxy contract.In order to call a Dapp function, the Dapp must be added in the DappRegistry instance.",
    "version": 1
  },
  "storageLayout": {
    "storage": [
      {
        "astId": 5259,
        "contract": "contracts/nft/TellerNFTDictionary.sol:TellerNFTDictionary",
        "label": "_initialized",
        "offset": 0,
        "slot": "0",
        "type": "t_bool"
      },
      {
        "astId": 5262,
        "contract": "contracts/nft/TellerNFTDictionary.sol:TellerNFTDictionary",
        "label": "_initializing",
        "offset": 1,
        "slot": "0",
        "type": "t_bool"
      },
      {
        "astId": 7457,
        "contract": "contracts/nft/TellerNFTDictionary.sol:TellerNFTDictionary",
        "label": "__gap",
        "offset": 0,
        "slot": "1",
        "type": "t_array(t_uint256)50_storage"
      },
      {
        "astId": 7706,
        "contract": "contracts/nft/TellerNFTDictionary.sol:TellerNFTDictionary",
        "label": "__gap",
        "offset": 0,
        "slot": "51",
        "type": "t_array(t_uint256)50_storage"
      },
      {
        "astId": 4813,
        "contract": "contracts/nft/TellerNFTDictionary.sol:TellerNFTDictionary",
        "label": "_roles",
        "offset": 0,
        "slot": "101",
        "type": "t_mapping(t_bytes32,t_struct(RoleData)4808_storage)"
      },
      {
        "astId": 5121,
        "contract": "contracts/nft/TellerNFTDictionary.sol:TellerNFTDictionary",
        "label": "__gap",
        "offset": 0,
        "slot": "102",
        "type": "t_array(t_uint256)49_storage"
      },
      {
        "astId": 22504,
        "contract": "contracts/nft/TellerNFTDictionary.sol:TellerNFTDictionary",
        "label": "baseLoanSizes",
        "offset": 0,
        "slot": "151",
        "type": "t_mapping(t_uint256,t_uint256)"
      },
      {
        "astId": 22509,
        "contract": "contracts/nft/TellerNFTDictionary.sol:TellerNFTDictionary",
        "label": "hashes",
        "offset": 0,
        "slot": "152",
        "type": "t_mapping(t_uint256,t_array(t_string_storage)dyn_storage)"
      },
      {
        "astId": 22513,
        "contract": "contracts/nft/TellerNFTDictionary.sol:TellerNFTDictionary",
        "label": "contributionAssets",
        "offset": 0,
        "slot": "153",
        "type": "t_mapping(t_uint256,t_address)"
      },
      {
        "astId": 22517,
        "contract": "contracts/nft/TellerNFTDictionary.sol:TellerNFTDictionary",
        "label": "contributionSizes",
        "offset": 0,
        "slot": "154",
        "type": "t_mapping(t_uint256,t_uint256)"
      },
      {
        "astId": 22521,
        "contract": "contracts/nft/TellerNFTDictionary.sol:TellerNFTDictionary",
        "label": "contributionMultipliers",
        "offset": 0,
        "slot": "155",
        "type": "t_mapping(t_uint256,t_uint8)"
      },
      {
        "astId": 22530,
        "contract": "contracts/nft/TellerNFTDictionary.sol:TellerNFTDictionary",
        "label": "_tokenTierMappingCompressed",
        "offset": 0,
        "slot": "156",
        "type": "t_mapping(t_uint256,t_uint256)"
      },
      {
        "astId": 22532,
        "contract": "contracts/nft/TellerNFTDictionary.sol:TellerNFTDictionary",
        "label": "_tokenTierMappingCompressedSet",
        "offset": 0,
        "slot": "157",
        "type": "t_bool"
      }
    ],
    "types": {
      "t_address": {
        "encoding": "inplace",
        "label": "address",
        "numberOfBytes": "20"
      },
      "t_array(t_string_storage)dyn_storage": {
        "base": "t_string_storage",
        "encoding": "dynamic_array",
        "label": "string[]",
        "numberOfBytes": "32"
      },
      "t_array(t_uint256)49_storage": {
        "base": "t_uint256",
        "encoding": "inplace",
        "label": "uint256[49]",
        "numberOfBytes": "1568"
      },
      "t_array(t_uint256)50_storage": {
        "base": "t_uint256",
        "encoding": "inplace",
        "label": "uint256[50]",
        "numberOfBytes": "1600"
      },
      "t_bool": {
        "encoding": "inplace",
        "label": "bool",
        "numberOfBytes": "1"
      },
      "t_bytes32": {
        "encoding": "inplace",
        "label": "bytes32",
        "numberOfBytes": "32"
      },
      "t_mapping(t_address,t_bool)": {
        "encoding": "mapping",
        "key": "t_address",
        "label": "mapping(address => bool)",
        "numberOfBytes": "32",
        "value": "t_bool"
      },
      "t_mapping(t_bytes32,t_struct(RoleData)4808_storage)": {
        "encoding": "mapping",
        "key": "t_bytes32",
        "label": "mapping(bytes32 => struct AccessControlUpgradeable.RoleData)",
        "numberOfBytes": "32",
        "value": "t_struct(RoleData)4808_storage"
      },
      "t_mapping(t_uint256,t_address)": {
        "encoding": "mapping",
        "key": "t_uint256",
        "label": "mapping(uint256 => address)",
        "numberOfBytes": "32",
        "value": "t_address"
      },
      "t_mapping(t_uint256,t_array(t_string_storage)dyn_storage)": {
        "encoding": "mapping",
        "key": "t_uint256",
        "label": "mapping(uint256 => string[])",
        "numberOfBytes": "32",
        "value": "t_array(t_string_storage)dyn_storage"
      },
      "t_mapping(t_uint256,t_uint256)": {
        "encoding": "mapping",
        "key": "t_uint256",
        "label": "mapping(uint256 => uint256)",
        "numberOfBytes": "32",
        "value": "t_uint256"
      },
      "t_mapping(t_uint256,t_uint8)": {
        "encoding": "mapping",
        "key": "t_uint256",
        "label": "mapping(uint256 => uint8)",
        "numberOfBytes": "32",
        "value": "t_uint8"
      },
      "t_string_storage": {
        "encoding": "bytes",
        "label": "string",
        "numberOfBytes": "32"
      },
      "t_struct(RoleData)4808_storage": {
        "encoding": "inplace",
        "label": "struct AccessControlUpgradeable.RoleData",
        "members": [
          {
            "astId": 4805,
            "contract": "contracts/nft/TellerNFTDictionary.sol:TellerNFTDictionary",
            "label": "members",
            "offset": 0,
            "slot": "0",
            "type": "t_mapping(t_address,t_bool)"
          },
          {
            "astId": 4807,
            "contract": "contracts/nft/TellerNFTDictionary.sol:TellerNFTDictionary",
            "label": "adminRole",
            "offset": 0,
            "slot": "1",
            "type": "t_bytes32"
          }
        ],
        "numberOfBytes": "64"
      },
      "t_uint256": {
        "encoding": "inplace",
        "label": "uint256",
        "numberOfBytes": "32"
      },
      "t_uint8": {
        "encoding": "inplace",
        "label": "uint8",
        "numberOfBytes": "1"
      }
    }
  }
}