{
  "address": "0x3a0326286158FD83e835b53fEFf0cFBa24f6B618",
  "abi": [
    {
      "anonymous": false,
      "inputs": [
        {
          "indexed": false,
          "internalType": "address",
          "name": "recipient",
          "type": "address"
        },
        {
          "indexed": false,
          "internalType": "uint256",
          "name": "userReward",
          "type": "uint256"
        }
      ],
      "name": "AlphaInterestClaimed",
      "type": "event"
    },
    {
      "anonymous": false,
      "inputs": [
        {
          "indexed": true,
          "internalType": "address",
          "name": "owner",
          "type": "address"
        },
        {
          "indexed": true,
          "internalType": "address",
          "name": "spender",
          "type": "address"
        },
        {
          "indexed": false,
          "internalType": "uint256",
          "name": "value",
          "type": "uint256"
        }
      ],
      "name": "Approval",
      "type": "event"
    },
    {
      "anonymous": false,
      "inputs": [
        {
          "indexed": true,
          "internalType": "address",
          "name": "recipient",
          "type": "address"
        },
        {
          "indexed": false,
          "internalType": "uint256",
          "name": "totalBorrowed",
          "type": "uint256"
        }
      ],
      "name": "LoanFunded",
      "type": "event"
    },
    {
      "anonymous": false,
      "inputs": [
        {
          "indexed": true,
          "internalType": "address",
          "name": "sender",
          "type": "address"
        },
        {
          "indexed": false,
          "internalType": "uint256",
          "name": "principlePayment",
          "type": "uint256"
        },
        {
          "indexed": false,
          "internalType": "uint256",
          "name": "interestPayment",
          "type": "uint256"
        }
      ],
      "name": "LoanPaymentMade",
      "type": "event"
    },
    {
      "anonymous": false,
      "inputs": [
        {
          "indexed": true,
          "internalType": "address",
          "name": "sender",
          "type": "address"
        },
        {
          "indexed": false,
          "internalType": "uint256",
          "name": "tTokenAmount",
          "type": "uint256"
        },
        {
          "indexed": false,
          "internalType": "uint256",
          "name": "underlyingAmount",
          "type": "uint256"
        }
      ],
      "name": "Mint",
      "type": "event"
    },
    {
      "anonymous": false,
      "inputs": [
        {
          "indexed": false,
          "internalType": "bool",
          "name": "restriction",
          "type": "bool"
        },
        {
          "indexed": true,
          "internalType": "address",
          "name": "investmentManager",
          "type": "address"
        }
      ],
      "name": "PlatformRestricted",
      "type": "event"
    },
    {
      "anonymous": false,
      "inputs": [
        {
          "indexed": true,
          "internalType": "address",
          "name": "sender",
          "type": "address"
        },
        {
          "indexed": false,
          "internalType": "uint256",
          "name": "tTokenAmount",
          "type": "uint256"
        },
        {
          "indexed": false,
          "internalType": "uint256",
          "name": "underlyingAmount",
          "type": "uint256"
        }
      ],
      "name": "Redeem",
      "type": "event"
    },
    {
      "anonymous": false,
      "inputs": [
        {
          "indexed": false,
          "internalType": "address",
          "name": "strategyAddress",
          "type": "address"
        },
        {
          "indexed": true,
          "internalType": "address",
          "name": "sender",
          "type": "address"
        }
      ],
      "name": "StrategySet",
      "type": "event"
    },
    {
      "anonymous": false,
      "inputs": [
        {
          "indexed": true,
          "internalType": "address",
          "name": "from",
          "type": "address"
        },
        {
          "indexed": true,
          "internalType": "address",
          "name": "to",
          "type": "address"
        },
        {
          "indexed": false,
          "internalType": "uint256",
          "name": "value",
          "type": "uint256"
        }
      ],
      "name": "Transfer",
      "type": "event"
    },
    {
      "inputs": [
        {
          "internalType": "address",
          "name": "owner",
          "type": "address"
        },
        {
          "internalType": "address",
          "name": "spender",
          "type": "address"
        }
      ],
      "name": "allowance",
      "outputs": [
        {
          "internalType": "uint256",
          "name": "",
          "type": "uint256"
        }
      ],
      "stateMutability": "view",
      "type": "function"
    },
    {
      "inputs": [
        {
          "internalType": "address",
          "name": "spender",
          "type": "address"
        },
        {
          "internalType": "uint256",
          "name": "amount",
          "type": "uint256"
        }
      ],
      "name": "approve",
      "outputs": [
        {
          "internalType": "bool",
          "name": "",
          "type": "bool"
        }
      ],
      "stateMutability": "nonpayable",
      "type": "function"
    },
    {
      "inputs": [
        {
          "internalType": "address",
          "name": "account",
          "type": "address"
        }
      ],
      "name": "balanceOf",
      "outputs": [
        {
          "internalType": "uint256",
          "name": "",
          "type": "uint256"
        }
      ],
      "stateMutability": "view",
      "type": "function"
    },
    {
      "inputs": [
        {
          "internalType": "address",
          "name": "account",
          "type": "address"
        }
      ],
      "name": "balanceOfUnderlying",
      "outputs": [
        {
          "internalType": "uint256",
          "name": "",
          "type": "uint256"
        }
      ],
      "stateMutability": "nonpayable",
      "type": "function"
    },
    {
      "inputs": [
        {
          "internalType": "address",
          "name": "recipient",
          "type": "address"
        },
        {
          "internalType": "uint16",
          "name": "interestRatio",
          "type": "uint16"
        }
      ],
      "name": "claimAlphaInterest",
      "outputs": [],
      "stateMutability": "nonpayable",
      "type": "function"
    },
    {
      "inputs": [],
      "name": "currentTVL",
      "outputs": [
        {
          "internalType": "uint256",
          "name": "tvl_",
          "type": "uint256"
        }
      ],
      "stateMutability": "nonpayable",
      "type": "function"
    },
    {
      "inputs": [
        {
          "internalType": "uint256",
          "name": "newLoanAmount",
          "type": "uint256"
        }
      ],
      "name": "debtRatioFor",
      "outputs": [
        {
          "internalType": "uint16",
          "name": "ratio_",
          "type": "uint16"
        }
      ],
      "stateMutability": "nonpayable",
      "type": "function"
    },
    {
      "inputs": [],
      "name": "decimals",
      "outputs": [
        {
          "internalType": "uint8",
          "name": "",
          "type": "uint8"
        }
      ],
      "stateMutability": "view",
      "type": "function"
    },
    {
      "inputs": [
        {
          "internalType": "address",
          "name": "spender",
          "type": "address"
        },
        {
          "internalType": "uint256",
          "name": "subtractedValue",
          "type": "uint256"
        }
      ],
      "name": "decreaseAllowance",
      "outputs": [
        {
          "internalType": "bool",
          "name": "",
          "type": "bool"
        }
      ],
      "stateMutability": "nonpayable",
      "type": "function"
    },
    {
      "inputs": [],
      "name": "exchangeRate",
      "outputs": [
        {
          "internalType": "uint256",
          "name": "rate_",
          "type": "uint256"
        }
      ],
      "stateMutability": "nonpayable",
      "type": "function"
    },
    {
      "inputs": [
        {
          "internalType": "address",
          "name": "recipient",
          "type": "address"
        },
        {
          "internalType": "uint256",
          "name": "amount",
          "type": "uint256"
        }
      ],
      "name": "fundLoan",
      "outputs": [],
      "stateMutability": "nonpayable",
      "type": "function"
    },
    {
      "inputs": [],
      "name": "getAlphaInterestEarned",
      "outputs": [
        {
          "internalType": "uint256",
          "name": "",
          "type": "uint256"
        }
      ],
      "stateMutability": "view",
      "type": "function"
    },
    {
      "inputs": [],
      "name": "getMarketState",
      "outputs": [
        {
          "internalType": "uint256",
          "name": "totalSupplied",
          "type": "uint256"
        },
        {
          "internalType": "uint256",
          "name": "totalBorrowed",
          "type": "uint256"
        },
        {
          "internalType": "uint256",
          "name": "totalRepaid",
          "type": "uint256"
        },
        {
          "internalType": "uint256",
          "name": "totalInterestRepaid",
          "type": "uint256"
        },
        {
          "internalType": "uint256",
          "name": "totalOnLoan",
          "type": "uint256"
        }
      ],
      "stateMutability": "nonpayable",
      "type": "function"
    },
    {
      "inputs": [],
      "name": "getStrategy",
      "outputs": [
        {
          "internalType": "address",
          "name": "",
          "type": "address"
        }
      ],
      "stateMutability": "view",
      "type": "function"
    },
    {
      "inputs": [
        {
          "internalType": "bytes32",
          "name": "role",
          "type": "bytes32"
        },
        {
          "internalType": "address",
          "name": "account",
          "type": "address"
        }
      ],
      "name": "grantRole",
      "outputs": [],
      "stateMutability": "nonpayable",
      "type": "function"
    },
    {
      "inputs": [
        {
          "internalType": "bytes32",
          "name": "role",
          "type": "bytes32"
        },
        {
          "internalType": "address",
          "name": "account",
          "type": "address"
        }
      ],
      "name": "hasRole",
      "outputs": [
        {
          "internalType": "bool",
          "name": "",
          "type": "bool"
        }
      ],
      "stateMutability": "view",
      "type": "function"
    },
    {
      "inputs": [
        {
          "internalType": "address",
          "name": "spender",
          "type": "address"
        },
        {
          "internalType": "uint256",
          "name": "addedValue",
          "type": "uint256"
        }
      ],
      "name": "increaseAllowance",
      "outputs": [
        {
          "internalType": "bool",
          "name": "",
          "type": "bool"
        }
      ],
      "stateMutability": "nonpayable",
      "type": "function"
    },
    {
      "inputs": [
        {
          "internalType": "address",
          "name": "admin",
          "type": "address"
        },
        {
          "internalType": "address",
          "name": "underlying",
          "type": "address"
        }
      ],
      "name": "initialize",
      "outputs": [],
      "stateMutability": "nonpayable",
      "type": "function"
    },
    {
      "inputs": [],
      "name": "markEndOfAlpha",
      "outputs": [],
      "stateMutability": "nonpayable",
      "type": "function"
    },
    {
      "inputs": [
        {
          "internalType": "uint256",
          "name": "amount",
          "type": "uint256"
        }
      ],
      "name": "mint",
      "outputs": [
        {
          "internalType": "uint256",
          "name": "",
          "type": "uint256"
        }
      ],
      "stateMutability": "nonpayable",
      "type": "function"
    },
    {
      "inputs": [],
      "name": "name",
      "outputs": [
        {
          "internalType": "string",
          "name": "",
          "type": "string"
        }
      ],
      "stateMutability": "view",
      "type": "function"
    },
    {
      "inputs": [],
      "name": "rebalance",
      "outputs": [],
      "stateMutability": "nonpayable",
      "type": "function"
    },
    {
      "inputs": [
        {
          "internalType": "uint256",
          "name": "amount",
          "type": "uint256"
        }
      ],
      "name": "redeem",
      "outputs": [],
      "stateMutability": "nonpayable",
      "type": "function"
    },
    {
      "inputs": [
        {
          "internalType": "uint256",
          "name": "amount",
          "type": "uint256"
        }
      ],
      "name": "redeemUnderlying",
      "outputs": [],
      "stateMutability": "nonpayable",
      "type": "function"
    },
    {
      "inputs": [
        {
          "internalType": "bytes32",
          "name": "role",
          "type": "bytes32"
        }
      ],
      "name": "renounceRole",
      "outputs": [],
      "stateMutability": "nonpayable",
      "type": "function"
    },
    {
      "inputs": [
        {
          "internalType": "uint256",
          "name": "amount",
          "type": "uint256"
        },
        {
          "internalType": "uint256",
          "name": "interestAmount",
          "type": "uint256"
        }
      ],
      "name": "repayLoan",
      "outputs": [],
      "stateMutability": "nonpayable",
      "type": "function"
    },
    {
      "inputs": [
        {
          "internalType": "bool",
          "name": "state",
          "type": "bool"
        }
      ],
      "name": "restrict",
      "outputs": [],
      "stateMutability": "nonpayable",
      "type": "function"
    },
    {
      "inputs": [
        {
          "internalType": "bytes32",
          "name": "role",
          "type": "bytes32"
        },
        {
          "internalType": "address",
          "name": "account",
          "type": "address"
        }
      ],
      "name": "revokeRole",
      "outputs": [],
      "stateMutability": "nonpayable",
      "type": "function"
    },
    {
      "inputs": [
        {
          "internalType": "address",
          "name": "strategy",
          "type": "address"
        },
        {
          "internalType": "bytes",
          "name": "initData",
          "type": "bytes"
        }
      ],
      "name": "setStrategy",
      "outputs": [],
      "stateMutability": "nonpayable",
      "type": "function"
    },
    {
      "inputs": [],
      "name": "symbol",
      "outputs": [
        {
          "internalType": "string",
          "name": "",
          "type": "string"
        }
      ],
      "stateMutability": "view",
      "type": "function"
    },
    {
      "inputs": [],
      "name": "totalSupply",
      "outputs": [
        {
          "internalType": "uint256",
          "name": "",
          "type": "uint256"
        }
      ],
      "stateMutability": "view",
      "type": "function"
    },
    {
      "inputs": [],
      "name": "totalUnderlyingSupply",
      "outputs": [
        {
          "internalType": "uint256",
          "name": "",
          "type": "uint256"
        }
      ],
      "stateMutability": "nonpayable",
      "type": "function"
    },
    {
      "inputs": [
        {
          "internalType": "address",
          "name": "recipient",
          "type": "address"
        },
        {
          "internalType": "uint256",
          "name": "amount",
          "type": "uint256"
        }
      ],
      "name": "transfer",
      "outputs": [
        {
          "internalType": "bool",
          "name": "",
          "type": "bool"
        }
      ],
      "stateMutability": "nonpayable",
      "type": "function"
    },
    {
      "inputs": [
        {
          "internalType": "address",
          "name": "sender",
          "type": "address"
        },
        {
          "internalType": "address",
          "name": "recipient",
          "type": "address"
        },
        {
          "internalType": "uint256",
          "name": "amount",
          "type": "uint256"
        }
      ],
      "name": "transferFrom",
      "outputs": [
        {
          "internalType": "bool",
          "name": "",
          "type": "bool"
        }
      ],
      "stateMutability": "nonpayable",
      "type": "function"
    },
    {
      "inputs": [],
      "name": "underlying",
      "outputs": [
        {
          "internalType": "contract ERC20",
          "name": "",
          "type": "address"
        }
      ],
      "stateMutability": "view",
      "type": "function"
    }
  ],
  "artifactName": "TToken_V2_Alpha",
  "transactionHash": "0x52e3923cf6979d40f6100fb58c77d299a725307bdd1b778a9ed490cc46006dfe",
  "args": [],
  "solcInputHash": "665d1dd8dfb11b9a9b0d587270f130b8",
  "bytecode": "0x60806040523480156200001157600080fd5b50600054610100900460ff16806200002c575060005460ff16155b620000945760405162461bcd60e51b815260206004820152602e60248201527f496e697469616c697a61626c653a20636f6e747261637420697320616c72656160448201526d191e481a5b9a5d1a585b1a5e995960921b606482015260840160405180910390fd5b600054610100900460ff16158015620000b7576000805461ffff19166101011790555b8015620000ca576000805461ff00191690555b506130de80620000db6000396000f3fe608060405234801561001057600080fd5b50600436106102115760003560e01c80638a700b5311610125578063ae2050b7116100ad578063d8774d991161007c578063d8774d991461045f578063db006a7514610472578063dd62ed3e14610485578063e920b1e1146104be578063ecfd3519146104d157600080fd5b8063ae2050b714610401578063be71e66c14610409578063d547741f1461041c578063d81657431461042f57600080fd5b80639ad6070d116100f45780639ad6070d146103ad578063a0712d68146103c0578063a457c2d7146103d3578063a9059cbb146103e6578063a95411e0146103f957600080fd5b80638a700b531461036c5780638bb9c5bf1461037f57806391d148541461039257806395d89b41146103a557600080fd5b806339509351116101a8578063485cc95511610177578063485cc9551461030d5780636f307dc31461032057806370a08231146103285780637d7c2a1c14610351578063852a12e31461035957600080fd5b806339509351146102d75780633af9e669146102ea5780633ba0b9a9146102fd5780633ffb17da1461030557600080fd5b806318160ddd116101e457806318160ddd1461028d57806323b872dd146102955780632f2ff15d146102a8578063313ce567146102bd57600080fd5b806306fdde031461021657806307da060314610234578063095ea7b314610254578063143a08d414610277575b600080fd5b61021e6104f7565b60405161022b9190612d94565b60405180910390f35b61023c610589565b6040516001600160a01b03909116815260200161022b565b610267610262366004612b8d565b6105a5565b604051901515815260200161022b565b61027f6105bc565b60405190815260200161022b565b60355461027f565b6102676102a3366004612a98565b61060f565b6102bb6102b6366004612c06565b6106c0565b005b6102c5610706565b60405160ff909116815260200161022b565b6102676102e5366004612b8d565b61071c565b61027f6102f8366004612a4c565b610758565b61027f610782565b6102bb6107cb565b6102bb61031b366004612a66565b6108b2565b61023c610c38565b61027f610336366004612a4c565b6001600160a01b031660009081526033602052604090205490565b6102bb610c51565b6102bb610367366004612bee565b610c86565b6102bb61037a366004612cde565b610e20565b6102bb61038d366004612bee565b610ed8565b6102676103a0366004612c06565b610ee2565b61021e610eee565b6102bb6103bb366004612b51565b610efd565b61027f6103ce366004612bee565b611115565b6102676103e1366004612b8d565b611465565b6102676103f4366004612b8d565b6114fe565b61027f61150b565b61027f61154f565b6102bb610417366004612ad3565b611562565b6102bb61042a366004612c06565b6116c6565b610437611706565b604080519586526020860194909452928401919091526060830152608082015260a00161022b565b6102bb61046d366004612bb6565b611755565b6102bb610480366004612bee565b6117fd565b61027f610493366004612a66565b6001600160a01b03918216600090815260346020908152604080832093909416825291909152205490565b6102bb6104cc366004612b8d565b6119f9565b6104e46104df366004612bee565b611abf565b60405161ffff909116815260200161022b565b60606036805461050690612fac565b80601f016020809104026020016040519081016040528092919081815260200182805461053290612fac565b801561057f5780601f106105545761010080835404028352916020019161057f565b820191906000526020600020905b81548152906001019060200180831161056257829003601f168201915b5050505050905090565b6000610593611b20565b600101546001600160a01b0316919050565b60006105b2338484611b44565b5060015b92915050565b6040805160048152602481019091526020810180516001600160e01b031663050e823560e21b17905260009081906105f390611c68565b9050808060200190518101906106099190612cc6565b91505090565b600061061c848484611c88565b6001600160a01b0384166000908152603460209081526040808320338452909152902054828110156106a65760405162461bcd60e51b815260206004820152602860248201527f45524332303a207472616e7366657220616d6f756e74206578636565647320616044820152676c6c6f77616e636560c01b60648201526084015b60405180910390fd5b6106b38533858403611b44565b60019150505b9392505050565b600080516020613069833981519152336106da8282611e56565b6106f65760405162461bcd60e51b815260040161069d90612dc7565b6107008484611e8e565b50505050565b6000610710611b20565b6005015460ff16919050565b3360008181526034602090815260408083206001600160a01b038716845290915281205490916105b2918590610753908690612f12565b611b44565b6001600160a01b0381166000908152603360205260408120546105b69061077d610782565b611f09565b600061078d60355490565b61079e5750670de0b6b3a764000090565b603554670de0b6b3a76400006107b261150b565b6107bc9190612f4a565b6107c69190612f2a565b905090565b600080516020613069833981519152336107e58282611e56565b6108015760405162461bcd60e51b815260040161069d90612dc7565b610809611b20565b6005015462010000900460ff16156108635760405162461bcd60e51b815260206004820152601b60248201527f54656c6c65723a20616c70686120616c726561647920656e6465640000000000604482015260640161069d565b600161086d611b20565b6005018054911515620100000262ff000019909216919091179055610890611b20565b6004015461089c611b20565b6006015560006108aa611b20565b600401555050565b600054610100900460ff16806108cb575060005460ff16155b6108e75760405162461bcd60e51b815260040161069d90612e43565b600054610100900460ff16158015610909576000805461ffff19166101011790555b333b6109575760405162461bcd60e51b815260206004820152601f60248201527f54656c6c65723a20636f6e74726f6c6c6572206e6f7420636f6e747261637400604482015260640161069d565b813b6109b35760405162461bcd60e51b815260206004820152602560248201527f54656c6c65723a20756e6465726c79696e6720746f6b656e206e6f7420636f6e6044820152641d1c9858dd60da1b606482015260840161069d565b6109cb60008051602061302283398151915233611e8e565b6109e360008051602061306983398151915284611e8e565b816109ec611b20565b80546001600160a01b0319166001600160a01b0392909216919091179055610b5e610a15611b20565b54604080516306fdde0360e01b815290516001600160a01b03909216916306fdde0391600480820192600092909190829003018186803b158015610a5857600080fd5b505afa158015610a6c573d6000803e3d6000fd5b505050506040513d6000823e601f3d908101601f19168201604052610a949190810190612c28565b604051602001610aa49190612d3c565b604051602081830303815290604052610abb611b20565b54604080516395d89b4160e01b815290516001600160a01b03909216916395d89b4191600480820192600092909190829003018186803b158015610afe57600080fd5b505afa158015610b12573d6000803e3d6000fd5b505050506040513d6000823e601f3d908101601f19168201604052610b3a9190810190612c28565b604051602001610b4a9190612d6b565b604051602081830303815290604052611f28565b610b66611b20565b546040805163313ce56760e01b815290516001600160a01b039092169163313ce56791600480820192602092909190829003018186803b158015610ba957600080fd5b505afa158015610bbd573d6000803e3d6000fd5b505050506040513d601f19601f82011682018060405250810190610be19190612cff565b610be9611b20565b600501805460ff191660ff929092169190911790556001610c08611b20565b60050180549115156101000261ff00199092169190911790558015610c33576000805461ff00191690555b505050565b6000610c42611b20565b546001600160a01b0316919050565b6040805160048152602481019091526020810180516001600160e01b0316631f5f0a8760e21b179052610c8390611c68565b50565b7feba135a74248c737f901cbd8d0f53e729a3f212e734748c2e0d8d39096125e5c60008190527f7b305b6be5f275f648d05716597c483d754c2a242bd605feba3c64fb853605366020527fd51fad483e9bd4fa5dd43c95a6dde60b73fec1248ce54775bb96529d1141aa1b546000805160206130898339815191529060ff1615610d225760405162461bcd60e51b815260040161069d90612edb565b60008281526002820160205260409020805460ff1916600117905582610d865760405162461bcd60e51b8152602060048201526019602482015278054656c6c65723a2063616e6e6f74207769746864726177203603c1b604482015260640161069d565b610d8e6105bc565b831115610dad5760405162461bcd60e51b815260040161069d90612e91565b6000610db7610782565b90506000610dc58583611fa7565b610dd0906001612f12565b9050610ddb33610336565b811115610dfa5760405162461bcd60e51b815260040161069d90612dfe565b610e048186611fbc565b5050600091825260020160205260409020805460ff1916905550565b60008051602061302283398151915233610e3a8282611e56565b610e565760405162461bcd60e51b815260040161069d90612dc7565b83610e5f611b20565b6003016000828254610e719190612f12565b90915550839050610e80611b20565b6004016000828254610e929190612f12565b9091555050604080518581526020810185905233917fc091ac0b81e7f83b1bd632697aab4fe32a683168ca5ca7ad8075b49c3e669c4a910160405180910390a250505050565b610c838133612041565b60006106b98383611e56565b60606037805461050690612fac565b60008051602061302283398151915233610f178282611e56565b610f335760405162461bcd60e51b815260040161069d90612dc7565b610f3b611b20565b6005015462010000900460ff16610f945760405162461bcd60e51b815260206004820152601760248201527f54656c6c65723a20616c706861206e6f7420656e646564000000000000000000604482015260640161069d565b610f9c611b20565b6001600160a01b0385166000908152600791909101602052604090205460ff16156110095760405162461bcd60e51b815260206004820181905260248201527f54656c6c65723a20696e74657265737420616c726561647920636c61696d6564604482015260640161069d565b60008361ffff16116110695760405162461bcd60e51b8152602060048201526024808201527f54656c6c65723a20696e7465726573742070657263656e742063616e6e6f74206044820152630626520360e41b606482015260840161069d565b6000611080611076611b20565b60060154856120b8565b905061109e61108d611b20565b546001600160a01b031686836120cb565b60016110a8611b20565b6001600160a01b03871660008181526007929092016020908152604092839020805460ff19169415159490941790935581519081529182018390527fbfb3c3acece879b74b1f2b420ee22691e02cd059a6bef2070fdfed3190938fbc910160405180910390a15050505050565b600061111f611b20565b60050154610100900460ff16158061114a575061114a60008051602061302283398151915233611e56565b6111965760405162461bcd60e51b815260206004820152601b60248201527f54656c6c65723a20706c6174666f726d20726573747269637465640000000000604482015260640161069d565b7ffdf81848136595c31bb5f76217767372bc4bf906663038eb38381131ea27ecba60008190527f7b305b6be5f275f648d05716597c483d754c2a242bd605feba3c64fb853605366020527fa8b4b8db2d6e615394be6b6e7c62c4b724469d7ac9026422a171f9c66a50d83f546000805160206130898339815191529060ff16156112325760405162461bcd60e51b815260040161069d90612edb565b60008281526002820160205260409020805460ff19166001179055836112925760405162461bcd60e51b8152602060048201526015602482015274054656c6c65723a2063616e6e6f74206d696e74203605c1b604482015260640161069d565b61129a611b20565b546001600160a01b03166370a08231336040516001600160e01b031960e084901b1681526001600160a01b03909116600482015260240160206040518083038186803b1580156112e957600080fd5b505afa1580156112fd573d6000803e3d6000fd5b505050506040513d601f19601f820116820180604052508101906113219190612cc6565b8411156113705760405162461bcd60e51b815260206004820152601f60248201527f54656c6c65723a20696e73756666696369656e7420756e6465726c79696e6700604482015260640161069d565b60006113838561137e610782565b611fa7565b9050600081116113e55760405162461bcd60e51b815260206004820152602760248201527f54656c6c65723a20616d6f756e7420746f206265206d696e7465642063616e6e60448201526606f7420626520360cc1b606482015260840161069d565b6114026113f0611b20565b546001600160a01b031633308861212e565b61140c3382612166565b604080518281526020810187905233917f4c209b5fc8ad50758f13e2e1088ba56a560dff690a1c6fef26394f4c03821c4f910160405180910390a29250600091825260020160205260409020805460ff19169055919050565b3360009081526034602090815260408083206001600160a01b0386168452909152812054828110156114e75760405162461bcd60e51b815260206004820152602560248201527f45524332303a2064656372656173656420616c6c6f77616e63652062656c6f77604482015264207a65726f60d81b606482015260840161069d565b6114f43385858403611b44565b5060019392505050565b60006105b2338484611c88565b60006115156105bc565b61151f9082612f12565b9050611529611b20565b600201546115379082612f12565b9050611541611b20565b600301546107c69082612f69565b6000611559611b20565b60060154905090565b6000805160206130698339815191523361157c8282611e56565b6115985760405162461bcd60e51b815260040161069d90612dc7565b6115a98563475c5f8560e01b612245565b61160f5760405162461bcd60e51b815260206004820152603160248201527f54656c6c65723a20737472617465677920646f6573206e6f7420737570706f7260448201527074204954546f6b656e537472617465677960781b606482015260840161069d565b84611618611b20565b60010180546001600160a01b0319166001600160a01b039290921691909117905582156116805761167e84848080601f016020809104026020016040519081016040528093929190818152602001838380828437600092019190915250611c6892505050565b505b604080516001600160a01b0387168152905133917f7a587acd0fd101cfe7d6d98bad768e91209a7ae91e55c3702570425bf0eae9bc919081900360200190a25050505050565b600080516020613069833981519152336116e08282611e56565b6116fc5760405162461bcd60e51b815260040161069d90612dc7565b6107008484612041565b60008060008060006117166105bc565b9450611720611b20565b60020154935061172e611b20565b60030154925061173c611b20565b60040154915061174c8385612f69565b90509091929394565b6000805160206130698339815191523361176f8282611e56565b61178b5760405162461bcd60e51b815260040161069d90612dc7565b82611794611b20565b60050180549115156101000261ff00199092169190911790556117b43390565b6001600160a01b03167f9a8a686aa374e3c964e707566deb1d0ef1fda94567495b4767063063de913ff5846040516117f0911515815260200190565b60405180910390a2505050565b7feba135a74248c737f901cbd8d0f53e729a3f212e734748c2e0d8d39096125e5c60008190527f7b305b6be5f275f648d05716597c483d754c2a242bd605feba3c64fb853605366020527fd51fad483e9bd4fa5dd43c95a6dde60b73fec1248ce54775bb96529d1141aa1b546000805160206130898339815191529060ff16156118995760405162461bcd60e51b815260040161069d90612edb565b60008281526002820160205260409020805460ff19166001179055826118fd5760405162461bcd60e51b8152602060048201526019602482015278054656c6c65723a2063616e6e6f74207769746864726177203603c1b604482015260640161069d565b61190633610336565b8311156119255760405162461bcd60e51b815260040161069d90612dfe565b60006119338461077d610782565b9050600081116119ad576040805162461bcd60e51b81526020600482015260248101919091527f54656c6c65723a20756e6465726c79696e672074656c6c657220746f6b656e2060448201527f76616c756520746f2062652072656465656d65642063616e6e6f742062652030606482015260840161069d565b6119b56105bc565b8111156119d45760405162461bcd60e51b815260040161069d90612e91565b6119de8482611fbc565b50600091825260020160205260409020805460ff1916905550565b60008051602061302283398151915233611a138282611e56565b611a2f5760405162461bcd60e51b815260040161069d90612dc7565b60405160248101849052611a8190632e1a7d4d60e01b906044015b60408051601f198184030181529190526020810180516001600160e01b03166001600160e01b031990931692909217909152611c68565b5082611a8b611b20565b6002016000828254611a9d9190612f12565b909155506107009050611aae611b20565b546001600160a01b031685856120cb565b600080611aca611b20565b60030154611ad6611b20565b60020154611ae49190612f69565b9050600081611af16105bc565b611afb9190612f12565b90508015611b1957611b16611b108584612f12565b82612261565b92505b5050919050565b7ff72b349e2c69862bdc86afd2a363bf16c24bd97d10f7ac9d49f7e2eedebba2b490565b6001600160a01b038316611ba65760405162461bcd60e51b8152602060048201526024808201527f45524332303a20617070726f76652066726f6d20746865207a65726f206164646044820152637265737360e01b606482015260840161069d565b6001600160a01b038216611c075760405162461bcd60e51b815260206004820152602260248201527f45524332303a20617070726f766520746f20746865207a65726f206164647265604482015261737360f01b606482015260840161069d565b6001600160a01b0383811660008181526034602090815260408083209487168084529482529182902085905590518481527f8c5be1e5ebec7d5bd14f71427d1e84f3dd0314c0f7b2291e5b200ac8c7c3b925910160405180910390a3505050565b60606105b6611c75611b20565b600101546001600160a01b031683612296565b6001600160a01b038316611cec5760405162461bcd60e51b815260206004820152602560248201527f45524332303a207472616e736665722066726f6d20746865207a65726f206164604482015264647265737360d81b606482015260840161069d565b6001600160a01b038216611d4e5760405162461bcd60e51b815260206004820152602360248201527f45524332303a207472616e7366657220746f20746865207a65726f206164647260448201526265737360e81b606482015260840161069d565b6001600160a01b03831660009081526033602052604090205481811015611dc65760405162461bcd60e51b815260206004820152602660248201527f45524332303a207472616e7366657220616d6f756e7420657863656564732062604482015265616c616e636560d01b606482015260840161069d565b6001600160a01b03808516600090815260336020526040808220858503905591851681529081208054849290611dfd908490612f12565b92505081905550826001600160a01b0316846001600160a01b03167fddf252ad1be2c89b69c2b068fc378daa952ba7f163c4a11628f55a4df523b3ef84604051611e4991815260200190565b60405180910390a3610700565b6000918252600080516020613089833981519152602090815260408084206001600160a01b0393909316845291905290205460ff1690565b611e988282611e56565b15611ea1575050565b6000828152600080516020613089833981519152602090815260408083206001600160a01b0385168085529252808320805460ff1916600117905551339285917f2f8788117e7eff1d82e926ec794901d17c78024a50270940304540a733656f0d9190a45050565b6000670de0b6b3a7640000611f1e8385612f4a565b6106b99190612f2a565b600054610100900460ff1680611f41575060005460ff16155b611f5d5760405162461bcd60e51b815260040161069d90612e43565b600054610100900460ff16158015611f7f576000805461ffff19166101011790555b611f876122bb565b611f918383612326565b8015610c33576000805461ff0019169055505050565b600081611f1e670de0b6b3a764000085612f4a565b611fc633836123bb565b60405160248101829052611fe590632e1a7d4d60e01b90604401611a4a565b50612002611ff1611b20565b546001600160a01b031633836120cb565b604080518381526020810183905233917fe5b754fb1abb7f01b499791d0b820ae3b6af3424ac1c59768edb53f4ec31a929910160405180910390a25050565b61204b8282611e56565b612053575050565b6000828152600080516020613089833981519152602090815260408083206001600160a01b0385168085529252808320805460ff1916905551339285917ff6391f5c32d9c69d2a47ea670b442974b53935d1edc7fd64eb21e047a839171b9190a45050565b6000612710611f1e61ffff841685612f4a565b6040516001600160a01b038316602482015260448101829052610c3390849063a9059cbb60e01b906064015b60408051601f198184030181529190526020810180516001600160e01b03166001600160e01b031990931692909217909152612509565b6040516001600160a01b03808516602483015283166044820152606481018290526107009085906323b872dd60e01b906084016120f7565b6001600160a01b0382166121bc5760405162461bcd60e51b815260206004820152601f60248201527f45524332303a206d696e7420746f20746865207a65726f206164647265737300604482015260640161069d565b80603560008282546121ce9190612f12565b90915550506001600160a01b038216600090815260336020526040812080548392906121fb908490612f12565b90915550506040518181526001600160a01b038316906000907fddf252ad1be2c89b69c2b068fc378daa952ba7f163c4a11628f55a4df523b3ef9060200160405180910390a35050565b6000612250836125db565b80156106b957506106b9838361260e565b6000811561228d576122888261227961271086612f4a565b6122839190612f2a565b6126f7565b6106b9565b50600092915050565b60606106b983836040518060600160405280602781526020016130426027913961275e565b600054610100900460ff16806122d4575060005460ff16155b6122f05760405162461bcd60e51b815260040161069d90612e43565b600054610100900460ff16158015612312576000805461ffff19166101011790555b8015610c83576000805461ff001916905550565b600054610100900460ff168061233f575060005460ff16155b61235b5760405162461bcd60e51b815260040161069d90612e43565b600054610100900460ff1615801561237d576000805461ffff19166101011790555b82516123909060369060208601906129a0565b5081516123a49060379060208501906129a0565b508015610c33576000805461ff0019169055505050565b6001600160a01b03821661241b5760405162461bcd60e51b815260206004820152602160248201527f45524332303a206275726e2066726f6d20746865207a65726f206164647265736044820152607360f81b606482015260840161069d565b6001600160a01b0382166000908152603360205260409020548181101561248f5760405162461bcd60e51b815260206004820152602260248201527f45524332303a206275726e20616d6f756e7420657863656564732062616c616e604482015261636560f01b606482015260840161069d565b6001600160a01b03831660009081526033602052604081208383039055603580548492906124be908490612f69565b90915550506040518281526000906001600160a01b038516907fddf252ad1be2c89b69c2b068fc378daa952ba7f163c4a11628f55a4df523b3ef9060200160405180910390a3505050565b600061255e826040518060400160405280602081526020017f5361666545524332303a206c6f772d6c6576656c2063616c6c206661696c6564815250856001600160a01b03166128289092919063ffffffff16565b805190915015610c33578080602001905181019061257c9190612bd2565b610c335760405162461bcd60e51b815260206004820152602a60248201527f5361666545524332303a204552433230206f7065726174696f6e20646964206e6044820152691bdd081cdd58d8d9595960b21b606482015260840161069d565b60006125ee826301ffc9a760e01b61260e565b80156105b65750612607826001600160e01b031961260e565b1592915050565b604080516001600160e01b0319831660248083019190915282518083039091018152604490910182526020810180516001600160e01b03166301ffc9a760e01b179052905160009190829081906001600160a01b0387169061753090612675908690612d20565b6000604051808303818686fa925050503d80600081146126b1576040519150601f19603f3d011682016040523d82523d6000602084013e6126b6565b606091505b50915091506020815110156126d157600093505050506105b6565b8180156126ed5750808060200190518101906126ed9190612bd2565b9695505050505050565b600061ffff82111561275a5760405162461bcd60e51b815260206004820152602660248201527f53616665436173743a2076616c756520646f65736e27742066697420696e203160448201526536206269747360d01b606482015260840161069d565b5090565b6060833b6127bd5760405162461bcd60e51b815260206004820152602660248201527f416464726573733a2064656c65676174652063616c6c20746f206e6f6e2d636f6044820152651b9d1c9858dd60d21b606482015260840161069d565b600080856001600160a01b0316856040516127d89190612d20565b600060405180830381855af49150503d8060008114612813576040519150601f19603f3d011682016040523d82523d6000602084013e612818565b606091505b50915091506126ed82828661283f565b60606128378484600085612878565b949350505050565b6060831561284e5750816106b9565b82511561285e5782518084602001fd5b8160405162461bcd60e51b815260040161069d9190612d94565b6060824710156128d95760405162461bcd60e51b815260206004820152602660248201527f416464726573733a20696e73756666696369656e742062616c616e636520666f6044820152651c8818d85b1b60d21b606482015260840161069d565b843b6129275760405162461bcd60e51b815260206004820152601d60248201527f416464726573733a2063616c6c20746f206e6f6e2d636f6e7472616374000000604482015260640161069d565b600080866001600160a01b031685876040516129439190612d20565b60006040518083038185875af1925050503d8060008114612980576040519150601f19603f3d011682016040523d82523d6000602084013e612985565b606091505b509150915061299582828661283f565b979650505050505050565b8280546129ac90612fac565b90600052602060002090601f0160209004810192826129ce5760008555612a14565b82601f106129e757805160ff1916838001178555612a14565b82800160010185558215612a14579182015b82811115612a145782518255916020019190600101906129f9565b5061275a9291505b8082111561275a5760008155600101612a1c565b80356001600160a01b0381168114612a4757600080fd5b919050565b600060208284031215612a5d578081fd5b6106b982612a30565b60008060408385031215612a78578081fd5b612a8183612a30565b9150612a8f60208401612a30565b90509250929050565b600080600060608486031215612aac578081fd5b612ab584612a30565b9250612ac360208501612a30565b9150604084013590509250925092565b600080600060408486031215612ae7578283fd5b612af084612a30565b9250602084013567ffffffffffffffff80821115612b0c578384fd5b818601915086601f830112612b1f578384fd5b813581811115612b2d578485fd5b876020828501011115612b3e578485fd5b6020830194508093505050509250925092565b60008060408385031215612b63578182fd5b612b6c83612a30565b9150602083013561ffff81168114612b82578182fd5b809150509250929050565b60008060408385031215612b9f578182fd5b612ba883612a30565b946020939093013593505050565b600060208284031215612bc7578081fd5b81356106b981613013565b600060208284031215612be3578081fd5b81516106b981613013565b600060208284031215612bff578081fd5b5035919050565b60008060408385031215612c18578182fd5b82359150612a8f60208401612a30565b600060208284031215612c39578081fd5b815167ffffffffffffffff80821115612c50578283fd5b818401915084601f830112612c63578283fd5b815181811115612c7557612c75612ffd565b604051601f8201601f19908116603f01168101908382118183101715612c9d57612c9d612ffd565b81604052828152876020848701011115612cb5578586fd5b612995836020830160208801612f80565b600060208284031215612cd7578081fd5b5051919050565b60008060408385031215612cf0578182fd5b50508035926020909101359150565b600060208284031215612d10578081fd5b815160ff811681146106b9578182fd5b60008251612d32818460208701612f80565b9190910192915050565b6602a32b63632b9160cd1b815260008251612d5e816007850160208701612f80565b9190910160070192915050565b601d60fa1b815260008251612d87816001850160208701612f80565b9190910160010192915050565b6020815260008251806020840152612db3816040850160208701612f80565b601f01601f19169190910160400192915050565b6020808252601d908201527f416363657373436f6e74726f6c3a206e6f7420617574686f72697a6564000000604082015260600190565b60208082526025908201527f54656c6c65723a2072656465656d20616d6f756e7420657863656564732062616040820152646c616e636560d81b606082015260800190565b6020808252602e908201527f496e697469616c697a61626c653a20636f6e747261637420697320616c72656160408201526d191e481a5b9a5d1a585b1a5e995960921b606082015260800190565b6020808252602a908201527f54656c6c65723a2072656465656d2074746f6b656e206c70206e6f7420656e6f60408201526975676820737570706c7960b01b606082015260800190565b60208082526018908201527f416363657373436f6e74726f6c3a207265656e74657265640000000000000000604082015260600190565b60008219821115612f2557612f25612fe7565b500190565b600082612f4557634e487b7160e01b81526012600452602481fd5b500490565b6000816000190483118215151615612f6457612f64612fe7565b500290565b600082821015612f7b57612f7b612fe7565b500390565b60005b83811015612f9b578181015183820152602001612f83565b838111156107005750506000910152565b600181811c90821680612fc057607f821691505b60208210811415612fe157634e487b7160e01b600052602260045260246000fd5b50919050565b634e487b7160e01b600052601160045260246000fd5b634e487b7160e01b600052604160045260246000fd5b8015158114610c8357600080fdfe70546d1c92f8c2132ae23a23f5177aa8526356051c7510df99f50e012d221529416464726573733a206c6f772d6c6576656c2064656c65676174652063616c6c206661696c6564df8b4c520ffe197c5343c6f5aec59570151ef9a492f2c624fd45ddde6135ec427b305b6be5f275f648d05716597c483d754c2a242bd605feba3c64fb85360534a2646970667358221220ae93904fdc4ff65298b8e7296ce0ca268a1c7076a96ec29ef1232f95172a5ef864736f6c63430008040033",
  "devdoc": {
    "author": "develop@teller.finance",
    "events": {
      "AlphaInterestClaimed(address,uint256)": {
        "params": {
          "recipient": "The address who has claimed the interest",
          "userReward": "The amount of interest claimed by the Alpha participant"
        }
      }
    },
    "kind": "dev",
    "methods": {
      "allowance(address,address)": {
        "details": "See {IERC20-allowance}."
      },
      "approve(address,uint256)": {
        "details": "See {IERC20-approve}. Requirements: - `spender` cannot be the zero address."
      },
      "balanceOf(address)": {
        "details": "See {IERC20-balanceOf}."
      },
      "balanceOfUnderlying(address)": {
        "params": {
          "account": "Address to calculate the underlying balance."
        },
        "returns": {
          "_0": "balance_ the balance of the account"
        }
      },
      "claimAlphaInterest(address,uint16)": {
        "params": {
          "interestRatio": "The proportional amount of interest earned by the recipient to the total interest earned.",
          "recipient": "The address of the alpha participant claiming the interest."
        }
      },
      "currentTVL()": {
        "returns": {
          "tvl_": "The value locked in the pool. Note: This value includes the amount that is on loan (including ones that were sent to EOAs)."
        }
      },
      "debtRatioFor(uint256)": {
        "params": {
          "newLoanAmount": "the new loan amount to consider the StD ratio."
        },
        "returns": {
          "ratio_": "The debt ratio for lending pool."
        }
      },
      "decimals()": {
        "returns": {
          "_0": "decimals of the token"
        }
      },
      "decreaseAllowance(address,uint256)": {
        "details": "Atomically decreases the allowance granted to `spender` by the caller. This is an alternative to {approve} that can be used as a mitigation for problems described in {IERC20-approve}. Emits an {Approval} event indicating the updated allowance. Requirements: - `spender` cannot be the zero address. - `spender` must have allowance for the caller of at least `subtractedValue`."
      },
      "exchangeRate()": {
        "returns": {
          "rate_": "The current exchange rate, scaled by the EXCHANGE_RATE_FACTOR."
        }
      },
      "fundLoan(address,uint256)": {
        "params": {
          "amount": "Funds requested to fulfil the loan.",
          "recipient": "The account to send the funds to."
        }
      },
      "getMarketState()": {
        "returns": {
          "totalBorrowed": "Total amount borrowed through loans.",
          "totalInterestRepaid": "The total amount interest repaid till the current timestamp.",
          "totalOnLoan": "Total amount currently deployed in loans.",
          "totalRepaid": "The total amount repaid till the current timestamp.",
          "totalSupplied": "Total amount of the underlying asset supplied."
        }
      },
      "getStrategy()": {
        "returns": {
          "_0": "address of the strategy contract"
        }
      },
      "grantRole(bytes32,address)": {
        "params": {
          "account": "Address to give the {role} to. Requirements:  - Sender must be role admin.",
          "role": "Encoding of the role to give."
        }
      },
      "hasRole(bytes32,address)": {
        "params": {
          "account": "Address to check the {role} for.",
          "role": "Encoding of the role to check."
        }
      },
      "increaseAllowance(address,uint256)": {
        "details": "Atomically increases the allowance granted to `spender` by the caller. This is an alternative to {approve} that can be used as a mitigation for problems described in {IERC20-approve}. Emits an {Approval} event indicating the updated allowance. Requirements: - `spender` cannot be the zero address."
      },
      "initialize(address,address)": {
        "params": {
          "admin": "address of the admin to the respective Teller Token",
          "underlying": "address of the ERC20 token Requirements:  - Underlying token must implement `name`, `symbol` and `decimals`"
        }
      },
      "mint(uint256)": {
        "details": "The tToken contract needs to have been granted sufficient allowance to transfer the amount being used to mint.",
        "params": {
          "amount": "The amount of underlying tokens to use to mint."
        },
        "returns": {
          "_0": "Amount of TTokens minted."
        }
      },
      "name()": {
        "details": "Returns the name of the token."
      },
      "redeem(uint256)": {
        "params": {
          "amount": "The amount of Teller tokens to redeem."
        }
      },
      "redeemUnderlying(uint256)": {
        "params": {
          "amount": "The amount of underlying tokens to redeem."
        }
      },
      "renounceRole(bytes32)": {
        "params": {
          "role": "Encoding of the role to remove."
        }
      },
      "repayLoan(uint256,uint256)": {
        "params": {
          "amount": "Funds deposited back into the pool to repay the principal amount of a loan.",
          "interestAmount": "Interest value paid into the pool from a loan."
        }
      },
      "restrict(bool)": {
        "params": {
          "state": "boolean value that resembles the platform's state"
        }
      },
      "revokeRole(bytes32,address)": {
        "params": {
          "account": "Address to remove the {role} from. Requirements:  - Sender must be role admin.",
          "role": "Encoding of the role to remove."
        }
      },
      "setStrategy(address,bytes)": {
        "params": {
          "initData": "Optional data to initialize the strategy. Requirements:  - Sender must have ADMIN role",
          "strategy": "Address to the new strategy contract. Must implement the {ITTokenStrategy} interface."
        }
      },
      "symbol()": {
        "details": "Returns the symbol of the token, usually a shorter version of the name."
      },
      "totalSupply()": {
        "details": "See {IERC20-totalSupply}."
      },
      "totalUnderlyingSupply()": {
        "returns": {
          "_0": "totalSupply_ the total supply denoted in the underlying asset."
        }
      },
      "transfer(address,uint256)": {
        "details": "See {IERC20-transfer}. Requirements: - `recipient` cannot be the zero address. - the caller must have a balance of at least `amount`."
      },
      "transferFrom(address,address,uint256)": {
        "details": "See {IERC20-transferFrom}. Emits an {Approval} event indicating the updated allowance. This is not required by the EIP. See the note at the beginning of {ERC20}. Requirements: - `sender` and `recipient` cannot be the zero address. - `sender` must have a balance of at least `amount`. - the caller must have allowance for ``sender``'s tokens of at least `amount`."
      },
      "underlying()": {
        "returns": {
          "_0": "ERC20 token that is the underlying asset"
        }
      }
    },
    "version": 1
  },
  "userdoc": {
    "events": {
      "AlphaInterestClaimed(address,uint256)": {
        "notice": "The event is emitted when interest has been claimed at the end of Teller's Alpha"
      },
      "LoanFunded(address,uint256)": {
        "notice": "This event is emitted when a loan has been taken out through the Teller Diamond."
      },
      "LoanPaymentMade(address,uint256,uint256)": {
        "notice": "This event is emitted when a loan has been repaid through the Teller Diamond."
      },
      "Mint(address,uint256,uint256)": {
        "notice": "This event is emitted when a user deposits tokens into the pool."
      },
      "PlatformRestricted(bool,address)": {
        "notice": "This event is emitted when the platform restriction is switched"
      },
      "Redeem(address,uint256,uint256)": {
        "notice": "This event is emitted when a user withdraws tokens from the pool."
      },
      "StrategySet(address,address)": {
        "notice": "This event is emitted when a new investment management strategy has been set for a Teller token."
      }
    },
    "kind": "user",
    "methods": {
      "balanceOfUnderlying(address)": {
        "notice": "The balance of an {account} denoted in underlying value."
      },
      "claimAlphaInterest(address,uint16)": {
        "notice": "Called by the Teller Diamond contract at the end of Alpha for recipient's earned interest."
      },
      "currentTVL()": {
        "notice": "Calculates the current Total Value Locked, denoted in the underlying asset, in the Teller Token pool."
      },
      "debtRatioFor(uint256)": {
        "notice": "It validates whether supply to debt (StD) ratio is valid including the loan amount."
      },
      "decimals()": {
        "notice": "it returns the decimal places of the respective TToken"
      },
      "exchangeRate()": {
        "notice": "It calculates the current scaled exchange rate for a whole Teller Token based of the underlying token balance."
      },
      "fundLoan(address,uint256)": {
        "notice": "Called by the Teller Diamond contract when a loan has been taken out and requires funds."
      },
      "getAlphaInterestEarned()": {
        "notice": "Gets the amount of interest that was generated during the Alpha launch."
      },
      "getMarketState()": {
        "notice": "It calculates the market state values across a given market.Returns values that represent the global state across the market."
      },
      "getStrategy()": {
        "notice": "Gets the strategy used for balancing funds."
      },
      "grantRole(bytes32,address)": {
        "notice": "Grants an account a new role."
      },
      "hasRole(bytes32,address)": {
        "notice": "Checks if an account has a specific role."
      },
      "initialize(address,address)": {
        "notice": "it initializes the Teller Token"
      },
      "markEndOfAlpha()": {
        "notice": "Called by the Teller Diamond contract at the end of the protocol's Alpha."
      },
      "mint(uint256)": {
        "notice": "Deposit underlying token amount into LP and mint tokens."
      },
      "rebalance()": {
        "notice": "Rebalances the funds controlled by Teller Token according to the current strategy. See {TTokenStrategy}."
      },
      "redeem(uint256)": {
        "notice": "Redeem supplied Teller tokens for underlying value."
      },
      "redeemUnderlying(uint256)": {
        "notice": "Redeem supplied underlying value."
      },
      "renounceRole(bytes32)": {
        "notice": "Removes a role from the sender."
      },
      "repayLoan(uint256,uint256)": {
        "notice": "Called by the Teller Diamond contract when a loan has been repaid."
      },
      "restrict(bool)": {
        "notice": "Sets the restricted state of the tToken."
      },
      "revokeRole(bytes32,address)": {
        "notice": "Removes a role from an account."
      },
      "setStrategy(address,bytes)": {
        "notice": "Sets or updates a strategy to use for balancing funds."
      },
      "totalUnderlyingSupply()": {
        "notice": "It calculates the total supply of the underlying asset."
      },
      "underlying()": {
        "notice": "The token that is the underlying asset for this Teller token."
      }
    },
    "notice": "This contract represents a lending pool for an asset within Teller protocol.",
    "version": 1
  },
  "storageLayout": {
    "storage": [
      {
        "astId": 5265,
        "contract": "contracts/lending/ttoken/TToken_V2_Alpha.sol:TToken_V2_Alpha",
        "label": "_initialized",
        "offset": 0,
        "slot": "0",
        "type": "t_bool"
      },
      {
        "astId": 5268,
        "contract": "contracts/lending/ttoken/TToken_V2_Alpha.sol:TToken_V2_Alpha",
        "label": "_initializing",
        "offset": 1,
        "slot": "0",
        "type": "t_bool"
      },
      {
        "astId": 8786,
        "contract": "contracts/lending/ttoken/TToken_V2_Alpha.sol:TToken_V2_Alpha",
        "label": "__gap",
        "offset": 0,
        "slot": "1",
        "type": "t_array(t_uint256)50_storage"
      },
      {
        "astId": 6610,
        "contract": "contracts/lending/ttoken/TToken_V2_Alpha.sol:TToken_V2_Alpha",
        "label": "_balances",
        "offset": 0,
        "slot": "51",
        "type": "t_mapping(t_address,t_uint256)"
      },
      {
        "astId": 6616,
        "contract": "contracts/lending/ttoken/TToken_V2_Alpha.sol:TToken_V2_Alpha",
        "label": "_allowances",
        "offset": 0,
        "slot": "52",
        "type": "t_mapping(t_address,t_mapping(t_address,t_uint256))"
      },
      {
        "astId": 6618,
        "contract": "contracts/lending/ttoken/TToken_V2_Alpha.sol:TToken_V2_Alpha",
        "label": "_totalSupply",
        "offset": 0,
        "slot": "53",
        "type": "t_uint256"
      },
      {
        "astId": 6620,
        "contract": "contracts/lending/ttoken/TToken_V2_Alpha.sol:TToken_V2_Alpha",
        "label": "_name",
        "offset": 0,
        "slot": "54",
        "type": "t_string_storage"
      },
      {
        "astId": 6622,
        "contract": "contracts/lending/ttoken/TToken_V2_Alpha.sol:TToken_V2_Alpha",
        "label": "_symbol",
        "offset": 0,
        "slot": "55",
        "type": "t_string_storage"
      },
      {
        "astId": 7163,
        "contract": "contracts/lending/ttoken/TToken_V2_Alpha.sol:TToken_V2_Alpha",
        "label": "__gap",
        "offset": 0,
        "slot": "56",
        "type": "t_array(t_uint256)45_storage"
      }
    ],
    "types": {
      "t_address": {
        "encoding": "inplace",
        "label": "address",
        "numberOfBytes": "20"
      },
      "t_array(t_uint256)45_storage": {
        "base": "t_uint256",
        "encoding": "inplace",
        "label": "uint256[45]",
        "numberOfBytes": "1440"
      },
      "t_array(t_uint256)50_storage": {
        "base": "t_uint256",
        "encoding": "inplace",
        "label": "uint256[50]",
        "numberOfBytes": "1600"
      },
      "t_bool": {
        "encoding": "inplace",
        "label": "bool",
        "numberOfBytes": "1"
      },
      "t_mapping(t_address,t_mapping(t_address,t_uint256))": {
        "encoding": "mapping",
        "key": "t_address",
        "label": "mapping(address => mapping(address => uint256))",
        "numberOfBytes": "32",
        "value": "t_mapping(t_address,t_uint256)"
      },
      "t_mapping(t_address,t_uint256)": {
        "encoding": "mapping",
        "key": "t_address",
        "label": "mapping(address => uint256)",
        "numberOfBytes": "32",
        "value": "t_uint256"
      },
      "t_string_storage": {
        "encoding": "bytes",
        "label": "string",
        "numberOfBytes": "32"
      },
      "t_uint256": {
        "encoding": "inplace",
        "label": "uint256",
        "numberOfBytes": "32"
      }
    }
  }
}