{
  "address": "0x72b7c8b01184c8B8f1F9630B2276A96a9b8A6Ee2",
  "abi": [
    {
      "inputs": [
        {
          "internalType": "address",
          "name": "src",
          "type": "address"
        },
        {
          "internalType": "address",
          "name": "dst",
          "type": "address"
        },
        {
          "internalType": "address",
          "name": "aggregator",
          "type": "address"
        }
      ],
      "name": "addChainlinkAggregator",
      "outputs": [],
      "stateMutability": "nonpayable",
      "type": "function"
    },
    {
      "inputs": [
        {
          "internalType": "address",
          "name": "src",
          "type": "address"
        },
        {
          "internalType": "address",
          "name": "dst",
          "type": "address"
        }
      ],
      "name": "getChainlinkAggregatorFor",
      "outputs": [
        {
          "internalType": "address",
          "name": "agg",
          "type": "address"
        },
        {
          "internalType": "bool",
          "name": "found",
          "type": "bool"
        },
        {
          "internalType": "bool",
          "name": "inverse",
          "type": "bool"
        }
      ],
      "stateMutability": "view",
      "type": "function"
    },
    {
      "inputs": [
        {
          "internalType": "address",
          "name": "src",
          "type": "address"
        },
        {
          "internalType": "address",
          "name": "dst",
          "type": "address"
        }
      ],
      "name": "removeChainlinkAggregator",
      "outputs": [],
      "stateMutability": "nonpayable",
      "type": "function"
    }
  ],
  "transactionHash": "0x61363c15287cf1ab0ff4dd82a5a4629e3197261099c8ada95e1bf37e15349381",
  "args": [],
  "solcInputHash": "3c3e5b2c786bda25b38603e2b551c6d3",
  "bytecode": "0x608060405234801561001057600080fd5b5061060a806100206000396000f3fe608060405234801561001057600080fd5b50600436106100415760003560e01c8063020ce3a61461004657806310d940061461005b578063961113df14610099575b600080fd5b610059610054366004610560565b6100ac565b005b61006e610069366004610560565b61019e565b604080516001600160a01b039094168452911515602084015215159082015260600160405180910390f35b6100596100a7366004610592565b6101bb565b7fdf8b4c520ffe197c5343c6f5aec59570151ef9a492f2c624fd45ddde6135ec42336100d8828261042e565b6101295760405162461bcd60e51b815260206004820152601d60248201527f416363657373436f6e74726f6c3a206e6f7420617574686f72697a656400000060448201526064015b60405180910390fd5b60006101358585610462565b50915050806101445750610198565b506001600160a01b0384811660009081527f6e580dd31681e426edb2ee1b0c0ecdc390e3129c3a61bf056e0b2c13818dbc0b6020908152604080832093871683529290522080546001600160a01b03191690555b50505050565b60008060006101ad8585610462565b919790965090945092505050565b7fdf8b4c520ffe197c5343c6f5aec59570151ef9a492f2c624fd45ddde6135ec42336101e7828261042e565b6102335760405162461bcd60e51b815260206004820152601d60248201527f416363657373436f6e74726f6c3a206e6f7420617574686f72697a65640000006044820152606401610120565b600061023f8686610462565b5091505080156102a55760405162461bcd60e51b815260206004820152602b60248201527f54656c6c65723a20636861696e6c696e6b2061676772656761746f7220616c7260448201526a656164792065786973747360a81b6064820152608401610120565b6102ae866104ee565b6103045760405162461bcd60e51b815260206004820152602160248201527f54656c6c65723a20736f7572636520746f6b656e206e6f7420636f6e747261636044820152601d60fa1b6064820152608401610120565b61030d856104ee565b6103685760405162461bcd60e51b815260206004820152602660248201527f54656c6c65723a2064657374696e6174696f6e20746f6b656e206e6f7420636f6044820152651b9d1c9858dd60d21b6064820152608401610120565b610371846104ee565b6103cf5760405162461bcd60e51b815260206004820152602960248201527f54656c6c65723a20636861696e6c696e6b2061676772656761746f72206e6f746044820152680818dbdb9d1c9858dd60ba1b6064820152608401610120565b5050506001600160a01b0392831660009081527f6e580dd31681e426edb2ee1b0c0ecdc390e3129c3a61bf056e0b2c13818dbc0b6020908152604080832094861683529390529190912080546001600160a01b03191691909216179055565b60006104386104f8565b6000938452602090815260408085206001600160a01b039490941685529290525090205460ff1690565b600080600061046f610521565b6001600160a01b038087166000908152602092835260408082208884168352909352919091205416925082156104a857600191506104e7565b6104b0610521565b6001600160a01b038086166000908152602092835260408082208984168352909352919091205416925082156104e7575060019050805b9250925092565b803b15155b919050565b60007f7b305b6be5f275f648d05716597c483d754c2a242bd605feba3c64fb853605345b905090565b60007f6e580dd31681e426edb2ee1b0c0ecdc390e3129c3a61bf056e0b2c13818dbc0b61051c565b80356001600160a01b03811681146104f357600080fd5b60008060408385031215610572578182fd5b61057b83610549565b915061058960208401610549565b90509250929050565b6000806000606084860312156105a6578081fd5b6105af84610549565b92506105bd60208501610549565b91506105cb60408501610549565b9050925092509256fea26469706673582212209ec12d8eb678fa8e571eda2584560affbfccf803a9062a09099fd47bfed6a36f64736f6c63430008030033",
  "devdoc": {
    "kind": "dev",
    "methods": {
      "addChainlinkAggregator(address,address,address)": {
        "params": {
          "aggregator": "Price aggregator address.",
          "dst": "Destination token address.",
          "src": "Source token address."
        }
      },
      "getChainlinkAggregatorFor(address,address)": {
        "params": {
          "dst": "Destination token address.",
          "src": "Source token address."
        },
        "returns": {
          "agg": "The Chainlink Aggregator address.",
          "found": "whether or not the ChainlinkAggregator exists.",
          "inverse": "whether or not the values from the Aggregator should be considered inverted."
        }
      },
      "removeChainlinkAggregator(address,address)": {
        "params": {
          "dst": "Destination token address.",
          "src": "Source token address."
        }
      }
    },
    "version": 1
  },
  "userdoc": {
    "kind": "user",
    "methods": {
      "addChainlinkAggregator(address,address,address)": {
        "notice": "It allows for additional Chainlink Aggregators to be supported."
      },
      "getChainlinkAggregatorFor(address,address)": {
        "notice": "It grabs the Chainlink Aggregator contract address for the token pair if it is supported."
      },
      "removeChainlinkAggregator(address,address)": {
        "notice": "It removes support for a Chainlink Aggregator pair."
      }
    },
    "version": 1
  },
  "storageLayout": {
    "storage": [],
    "types": null
  }
}