{
  "address": "0x015857A8D6D91525b25fE39dd1434a113f21b1eC",
  "abi": [
    {
      "constant": false,
      "inputs": [
        {
          "internalType": "address",
          "name": "src",
          "type": "address"
        },
        {
          "internalType": "address",
          "name": "dst",
          "type": "address"
        },
        {
          "internalType": "address",
          "name": "aggregator",
          "type": "address"
        }
      ],
      "name": "add",
      "outputs": [],
      "payable": false,
      "stateMutability": "nonpayable",
      "type": "function"
    },
    {
      "constant": true,
      "inputs": [
        {
          "internalType": "address",
          "name": "src",
          "type": "address"
        },
        {
          "internalType": "address",
          "name": "dst",
          "type": "address"
        }
      ],
      "name": "aggregatorFor",
      "outputs": [
        {
          "internalType": "contract AggregatorV2V3Interface",
          "name": "",
          "type": "address"
        },
        {
          "internalType": "bool",
          "name": "",
          "type": "bool"
        }
      ],
      "payable": false,
      "stateMutability": "view",
      "type": "function"
    },
    {
      "constant": true,
      "inputs": [
        {
          "internalType": "address",
          "name": "tokenAddress",
          "type": "address"
        }
      ],
      "name": "getTokensSupportedBy",
      "outputs": [
        {
          "internalType": "address[]",
          "name": "",
          "type": "address[]"
        }
      ],
      "payable": false,
      "stateMutability": "view",
      "type": "function"
    },
    {
      "constant": true,
      "inputs": [],
      "name": "implementationStored",
      "outputs": [
        {
          "internalType": "address",
          "name": "",
          "type": "address"
        }
      ],
      "payable": false,
      "stateMutability": "view",
      "type": "function"
    },
    {
      "constant": false,
      "inputs": [],
      "name": "initialize",
      "outputs": [],
      "payable": false,
      "stateMutability": "nonpayable",
      "type": "function"
    },
    {
      "constant": true,
      "inputs": [
        {
          "internalType": "address",
          "name": "tokenAddress",
          "type": "address"
        }
      ],
      "name": "isTokenSupported",
      "outputs": [
        {
          "internalType": "bool",
          "name": "",
          "type": "bool"
        }
      ],
      "payable": false,
      "stateMutability": "view",
      "type": "function"
    },
    {
      "constant": true,
      "inputs": [
        {
          "internalType": "address",
          "name": "src",
          "type": "address"
        },
        {
          "internalType": "address",
          "name": "dst",
          "type": "address"
        }
      ],
      "name": "latestAnswerFor",
      "outputs": [
        {
          "internalType": "int256",
          "name": "",
          "type": "int256"
        }
      ],
      "payable": false,
      "stateMutability": "view",
      "type": "function"
    },
    {
      "constant": true,
      "inputs": [],
      "name": "logicName",
      "outputs": [
        {
          "internalType": "bytes32",
          "name": "",
          "type": "bytes32"
        }
      ],
      "payable": false,
      "stateMutability": "view",
      "type": "function"
    },
    {
      "constant": true,
      "inputs": [],
      "name": "logicRegistry",
      "outputs": [
        {
          "internalType": "contract LogicVersionsRegistryInterface",
          "name": "",
          "type": "address"
        }
      ],
      "payable": false,
      "stateMutability": "view",
      "type": "function"
    },
    {
      "constant": false,
      "inputs": [
        {
          "internalType": "address",
          "name": "tokenAddress",
          "type": "address"
        }
      ],
      "name": "remove",
      "outputs": [],
      "payable": false,
      "stateMutability": "nonpayable",
      "type": "function"
    },
    {
      "constant": false,
      "inputs": [
        {
          "internalType": "address",
          "name": "src",
          "type": "address"
        },
        {
          "internalType": "address",
          "name": "dst",
          "type": "address"
        }
      ],
      "name": "remove",
      "outputs": [],
      "payable": false,
      "stateMutability": "nonpayable",
      "type": "function"
    },
    {
      "constant": true,
      "inputs": [],
      "name": "settings",
      "outputs": [
        {
          "internalType": "contract SettingsInterface",
          "name": "",
          "type": "address"
        }
      ],
      "payable": false,
      "stateMutability": "view",
      "type": "function"
    },
    {
      "constant": true,
      "inputs": [],
      "name": "strictDynamic",
      "outputs": [
        {
          "internalType": "bool",
          "name": "",
          "type": "bool"
        }
      ],
      "payable": false,
      "stateMutability": "view",
      "type": "function"
    },
    {
      "constant": false,
      "inputs": [
        {
          "internalType": "address",
          "name": "newImplementation",
          "type": "address"
        }
      ],
      "name": "upgradeProxyTo",
      "outputs": [],
      "payable": false,
      "stateMutability": "nonpayable",
      "type": "function"
    },
    {
      "constant": true,
      "inputs": [
        {
          "internalType": "address",
          "name": "src",
          "type": "address"
        },
        {
          "internalType": "address",
          "name": "dst",
          "type": "address"
        },
        {
          "internalType": "uint256",
          "name": "srcAmount",
          "type": "uint256"
        }
      ],
      "name": "valueFor",
      "outputs": [
        {
          "internalType": "uint256",
          "name": "",
          "type": "uint256"
        }
      ],
      "payable": false,
      "stateMutability": "view",
      "type": "function"
    }
  ],
  "transactionHash": "0xcc99f03952fa08250b7e2ccd30fa64c5d151f3a44eac6bb0d9d1b9ae28449468",
  "args": [],
  "solcInputHash": "3790d34ca1d72794863015ffe08f35de",
  "bytecode": "0x608060405234801561001057600080fd5b50611909806100206000396000f3fe608060405234801561001057600080fd5b50600436106100f55760003560e01c80637f7c149111610097578063dbb21d4011610066578063dbb21d40146102b5578063e06174e4146102eb578063e154e9a4146102f3578063e7d535e5146102fb576100f5565b80637f7c1491146101f65780638129fc1c1461022457806392a38e5d1461022c578063a693686f1461027d576100f5565b80634f8654bc116100d35780634f8654bc1461016057806355dbd8eb1461016857806361e828061461018e57806375151b63146101bc576100f5565b806329092d0e146100fa5780632c26486d1461012257806337c3eedc1461013c575b600080fd5b6101206004803603602081101561011057600080fd5b50356001600160a01b0316610371565b005b61012a61051e565b60408051918252519081900360200190f35b610144610524565b604080516001600160a01b039092168252519081900360200190f35b610144610533565b6101206004803603602081101561017e57600080fd5b50356001600160a01b0316610547565b61012a600480360360408110156101a457600080fd5b506001600160a01b03813581169160200135166105cb565b6101e2600480360360208110156101d257600080fd5b50356001600160a01b03166105f6565b604080519115158252519081900360200190f35b6101206004803603604081101561020c57600080fd5b506001600160a01b038135811691602001351661062d565b61012061074d565b61025a6004803603604081101561024257600080fd5b506001600160a01b0381358116916020013516610758565b604080516001600160a01b03909316835290151560208301528051918290030190f35b6101206004803603606081101561029357600080fd5b506001600160a01b038135811691602081013582169160409091013516610787565b61012a600480360360608110156102cb57600080fd5b506001600160a01b03813581169160208101359091169060400135610b0f565b610144610b3a565b6101e2610b49565b6103216004803603602081101561031157600080fd5b50356001600160a01b0316610b52565b60408051602080825283518183015283519192839290830191858101910280838360005b8381101561035d578181015183820152602001610345565b505050509050019250505060405180910390f35b600480546040805163c095ea2760e01b81523393810193909352516001600160a01b039091169163c095ea27916024808301926000929190829003018186803b1580156103bd57600080fd5b505afa1580156103d1573d6000803e3d6000fd5b505050506103de81610bc8565b6001600160a01b03811660009081526010602052604081209192505b815481101561050c576000806104308585858154811061041657fe5b6000918252602090912001546001600160a01b0316610cd0565b915091508015610499576000600f600086868154811061044c57fe5b6000918252602080832091909101546001600160a01b03908116845283820194909452604092830182208a8516835290522080546001600160a01b03191692909116919091179055610502565b6001600160a01b0385166000908152600f60205260408120855482908790879081106104c157fe5b6000918252602080832091909101546001600160a01b039081168452908301939093526040909101902080546001600160a01b031916929091169190911790555b50506001016103fa565b506000610519828261182b565b505050565b60015481565b6000546001600160a01b031681565b60025461010090046001600160a01b031681565b6000546001600160a01b0316331461059f576040805162461bcd60e51b81526020600482015260166024820152754d5553545f42455f4c4f4749435f524547495354525960501b604482015290519081900360640190fd5b600280546001600160a01b0390921661010002610100600160a81b031990921691909117905543600355565b60006105d683610bc8565b92506105e182610bc8565b91506105ed8383610d5f565b90505b92915050565b600061060182610bc8565b6001600160a01b03811660009081526010602052604081209193509061062690611036565b1192915050565b600480546040805163c095ea2760e01b81523393810193909352516001600160a01b039091169163c095ea27916024808301926000929190829003018186803b15801561067957600080fd5b505afa15801561068d573d6000803e3d6000fd5b5050505061069a82610bc8565b91506106a581610bc8565b905060006106b38383610cd0565b5090506106c8816001600160a01b031661103a565b156106d35750610749565b6001600160a01b038084166000818152600f60209081526040808320948716835293815283822080546001600160a01b0319169055918152601090915220610721908363ffffffff61104716565b6001600160a01b0382166000908152601060205260409020610519908463ffffffff61104716565b5050565b61075633611074565b565b60008061076484610bc8565b935061076f83610bc8565b925061077b8484610cd0565b915091505b9250929050565b600480546040805163c095ea2760e01b81523393810193909352516001600160a01b039091169163c095ea27916024808301926000929190829003018186803b1580156107d357600080fd5b505afa1580156107e7573d6000803e3d6000fd5b505050506107f483610bc8565b92506107ff82610bc8565b9150600061080d8484610cd0565b509050610822816001600160a01b031661103a565b610873576040805162461bcd60e51b815260206004820152601d60248201527f434841494e4c494e4b5f504149525f414c52454144595f455849535453000000604482015290519081900360640190fd5b610885846001600160a01b03166110e4565b806109085750600480546040805163539a783760e11b815290516001600160a01b039092169263a734f06e928282019260209290829003018186803b1580156108cd57600080fd5b505afa1580156108e1573d6000803e3d6000fd5b505050506040513d60208110156108f757600080fd5b50516001600160a01b038581169116145b610950576040805162461bcd60e51b81526020600482015260146024820152731513d2d15397d057d393d517d0d3d395149050d560621b604482015290519081900360640190fd5b610962836001600160a01b03166110e4565b806109e55750600480546040805163539a783760e11b815290516001600160a01b039092169263a734f06e928282019260209290829003018186803b1580156109aa57600080fd5b505afa1580156109be573d6000803e3d6000fd5b505050506040513d60208110156109d457600080fd5b50516001600160a01b038481169116145b610a2d576040805162461bcd60e51b81526020600482015260146024820152731513d2d15397d097d393d517d0d3d395149050d560621b604482015290519081900360640190fd5b610a3f826001600160a01b03166110e4565b610a90576040805162461bcd60e51b815260206004820152601760248201527f41474752454741544f525f4e4f545f434f4e5452414354000000000000000000604482015290519081900360640190fd5b6001600160a01b038481166000818152600f602090815260408083208886168452825280832080546001600160a01b03191695881695909517909455918152601090915220610adf908461111d565b506001600160a01b0383166000908152601060205260409020610b08908563ffffffff61111d16565b5050505050565b6000610b1a84610bc8565b9350610b2583610bc8565b9250610b3284848461120d565b949350505050565b6004546001600160a01b031681565b60025460ff1681565b6001600160a01b038116600090815260106020908152604091829020805483518184028101840190945280845260609392830182828015610bbc57602002820191906000526020600020905b81546001600160a01b03168152600190910190602001808311610b9e575b50505050509050919050565b6000600460009054906101000a90046001600160a01b03166001600160a01b031663040141e56040518163ffffffff1660e01b815260040160206040518083038186803b158015610c1857600080fd5b505afa158015610c2c573d6000803e3d6000fd5b505050506040513d6020811015610c4257600080fd5b50516001600160a01b03838116911614610c5c57816105f0565b600480546040805163539a783760e11b815290516001600160a01b039092169263a734f06e928282019260209290829003018186803b158015610c9e57600080fd5b505afa158015610cb2573d6000803e3d6000fd5b505050506040513d6020811015610cc857600080fd5b505192915050565b6001600160a01b038281166000908152600f6020908152604080832085851684529091528120549091161580610d2d576001600160a01b038085166000908152600f60209081526040808320878516845290915290205416610d56565b6001600160a01b038084166000908152600f602090815260408083208885168452909152902054165b91509250929050565b6000806000610d6e8585610cd0565b915091506000610d7d85611247565b60ff169050600a81900a6001600160a01b03841615610f13576000846001600160a01b03166350d25bcd6040518163ffffffff1660e01b815260040160206040518083038186803b158015610dd157600080fd5b505afa158015610de5573d6000803e3d6000fd5b505050506040513d6020811015610dfb57600080fd5b50516040805163313ce56760e01b815290519192506000916001600160a01b0388169163313ce567916004808301926020929190829003018186803b158015610e4357600080fd5b505afa158015610e57573d6000803e3d6000fd5b505050506040513d6020811015610e6d57600080fd5b505160ff1690508415610ea057610e9d82610e8e838063ffffffff61134716565b600a0a9063ffffffff6113a116565b91505b80841115610ed257610ecb610ebb858363ffffffff61145916565b8390600a0a63ffffffff61149b16565b9150610ef8565b610ef5610ee5828663ffffffff61145916565b8390600a0a63ffffffff6113a116565b91505b6000610f038a611247565b509196506105f095505050505050565b60005b6001600160a01b038816600090815260106020526040902054811015610fef576001600160a01b0388166000908152601060205260408120805483908110610f5a57fe5b60009182526020808320909101546001600160a01b0316808352601090915260408220909250610f90908a63ffffffff61154416565b5090508015610fe5576000610fa58b84610d5f565b90506000610fb38b85610d5f565b9050610fd581610fc9848963ffffffff61149b16565b9063ffffffff6113a116565b99505050505050505050506105f0565b5050600101610f16565b506040805162461bcd60e51b815260206004820152601660248201527543414e4e4f545f43414c43554c4154455f56414c554560501b604482015290519081900360640190fd5b5490565b6001600160a01b03161590565b6000806110548484611544565b9150915081611064575050610749565b61106e848261159c565b50505050565b60408051808201909152601981527f53455454494e47535f4d5553545f42455f50524f56494445440000000000000060208201526110c2906001600160a01b0383169063ffffffff61163016565b600480546001600160a01b0319166001600160a01b0392909216919091179055565b6000813f7fc5d2460186f7233c927e7db2dcc703c0e500b653ca82273b7bfad8045d85a470818114801590610b32575050151592915050565b60006111706040518060400160405280601981526020017f454d5054595f414444524553535f4e4f545f414c4c4f57454400000000000000815250836001600160a01b031661163090919063ffffffff16565b60008061117d8585611544565b9150915081156111c5576040805162461bcd60e51b815260206004820152600e60248201526d414444524553535f45584953545360901b604482015290519081900360640190fd5b505082546001818101855560008581526020808220840180546001600160a01b039097166001600160a01b031990971687179055948152940190925250604090912081905590565b6000610b3261121b85611247565b60ff16600a0a61123b61122e8787610d5f565b859063ffffffff6116c316565b9063ffffffff61171c16565b6000600460009054906101000a90046001600160a01b03166001600160a01b031663a734f06e6040518163ffffffff1660e01b815260040160206040518083038186803b15801561129757600080fd5b505afa1580156112ab573d6000803e3d6000fd5b505050506040513d60208110156112c157600080fd5b50516001600160a01b0383811691161461133f57816001600160a01b031663313ce5676040518163ffffffff1660e01b815260040160206040518083038186803b15801561130e57600080fd5b505afa158015611322573d6000803e3d6000fd5b505050506040513d602081101561133857600080fd5b50516105f0565b506012919050565b6000828201838110156105ed576040805162461bcd60e51b815260206004820152601b60248201527f536166654d6174683a206164646974696f6e206f766572666c6f770000000000604482015290519081900360640190fd5b6000816113f5576040805162461bcd60e51b815260206004820181905260248201527f5369676e6564536166654d6174683a206469766973696f6e206279207a65726f604482015290519081900360640190fd5b816000191480156114095750600160ff1b83145b156114455760405162461bcd60e51b815260040180806020018281038252602181526020018061186c6021913960400191505060405180910390fd5b600082848161145057fe5b05949350505050565b60006105ed83836040518060400160405280601e81526020017f536166654d6174683a207375627472616374696f6e206f766572666c6f77000081525061175e565b6000826114aa575060006105f0565b826000191480156114be5750600160ff1b82145b156114fa5760405162461bcd60e51b81526004018080602001828103825260278152602001806118ae6027913960400191505060405180910390fd5b8282028284828161150757fe5b05146105ed5760405162461bcd60e51b81526004018080602001828103825260278152602001806118ae6027913960400191505060405180910390fd5b815460009081901561078057506001600160a01b0382166000818152600185016020526040902054845490919085908390811061157d57fe5b6000918252602090912001546001600160a01b03161491509250929050565b815481106115a957610749565b8154600019018114611620578154829060001981019081106115c757fe5b9060005260206000200160009054906101000a90046001600160a01b03168282815481106115f157fe5b9060005260206000200160006101000a8154816001600160a01b0302191690836001600160a01b031602179055505b815461051983600019830161182b565b611639826117b8565b81906105195760405162461bcd60e51b81526004018080602001828103825283818151815260200191508051906020019080838360005b83811015611688578181015183820152602001611670565b50505050905090810190601f1680156116b55780820380516001836020036101000a031916815260200191505b509250505060405180910390fd5b6000826116d2575060006105f0565b828202828482816116df57fe5b04146105ed5760405162461bcd60e51b815260040180806020018281038252602181526020018061188d6021913960400191505060405180910390fd5b60006105ed83836040518060400160405280601a81526020017f536166654d6174683a206469766973696f6e206279207a65726f0000000000008152506117c6565b600081848411156117b05760405162461bcd60e51b8152602060048201818152835160248401528351909283926044909101919085019080838360008315611688578181015183820152602001611670565b505050900390565b6001600160a01b0316151590565b600081836118155760405162461bcd60e51b8152602060048201818152835160248401528351909283926044909101919085019080838360008315611688578181015183820152602001611670565b50600083858161182157fe5b0495945050505050565b8154818355818111156105195760008381526020902061051991810190830161186891905b808211156118645760008155600101611850565b5090565b9056fe5369676e6564536166654d6174683a206469766973696f6e206f766572666c6f77536166654d6174683a206d756c7469706c69636174696f6e206f766572666c6f775369676e6564536166654d6174683a206d756c7469706c69636174696f6e206f766572666c6f77a265627a7a72315820e52559bd8b9e04f55826d13f3da32a0fd2f2c5810082eabbaab3d4f33a0d99b364736f6c63430005110032",
  "devdoc": {
    "author": "develop@teller.finance",
    "details": "It tries to find an aggregator using the token addresses supplied. If unable, it uses ETH as a pass through asset to construct a path conversion.",
    "methods": {
      "add(address,address,address)": {
        "params": {
          "aggregator": "Price aggregator address.",
          "dst": "Destination token address.",
          "src": "Source token address."
        }
      },
      "aggregatorFor(address,address)": {
        "params": {
          "dst": "Destination token address.",
          "src": "Source token address."
        },
        "return": "AggregatorV2V3Interface The Chainlink Aggregator address.bool whether or not the values from the Aggregator should be considered inverted."
      },
      "isTokenSupported(address)": {
        "params": {
          "tokenAddress": "Token address to check support for."
        },
        "return": "bool whether or not the token is supported."
      },
      "latestAnswerFor(address,address)": {
        "details": "It tries to use ETH as a pass through asset if the direct pair is not supported.",
        "params": {
          "dst": "Destination token address.",
          "src": "Source token address."
        },
        "return": "int256 The latest answer as given from Chainlink."
      },
      "remove(address)": {
        "params": {
          "tokenAddress": "Token to remove all markets for."
        }
      },
      "remove(address,address)": {
        "params": {
          "dst": "Destination token address.",
          "src": "Source token address."
        }
      },
      "valueFor(address,address,uint256)": {
        "params": {
          "dst": "Destination token address.",
          "src": "Source token address.",
          "srcAmount": "Amount of the source token to convert into the destination token."
        },
        "return": "uint256 Value of the source token amount in destination tokens."
      }
    }
  },
  "userdoc": {
    "methods": {
      "add(address,address,address)": {
        "notice": "It allows for additional Chainlink Aggregators to be supported."
      },
      "aggregatorFor(address,address)": {
        "notice": "It grabs the Chainlink Aggregator contract address for the token pair if it is supported."
      },
      "initialize()": {
        "notice": "It initializes this ChainlinkAggregator instance."
      },
      "isTokenSupported(address)": {
        "notice": "It checks if the token is supported."
      },
      "latestAnswerFor(address,address)": {
        "notice": "It returns the price of the token pair as given from the Chainlink Aggregator."
      },
      "remove(address)": {
        "notice": "It removes support for a Chainlink Aggregator."
      },
      "remove(address,address)": {
        "notice": "It removes support for a Chainlink Aggregator pair."
      },
      "valueFor(address,address,uint256)": {
        "notice": "It calculates the value of a token amount into another."
      }
    },
    "notice": "This contract is used to fetch and calculate prices and values from one token to another through Chainlink Aggregators."
  },
  "storageLayout": {
    "storage": [
      {
        "astId": 11226,
        "contract": "contracts/providers/chainlink/ChainlinkAggregator.sol:ChainlinkAggregator",
        "label": "logicRegistry",
        "offset": 0,
        "slot": "0",
        "type": "t_contract(LogicVersionsRegistryInterface)11867"
      },
      {
        "astId": 11228,
        "contract": "contracts/providers/chainlink/ChainlinkAggregator.sol:ChainlinkAggregator",
        "label": "logicName",
        "offset": 0,
        "slot": "1",
        "type": "t_bytes32"
      },
      {
        "astId": 11230,
        "contract": "contracts/providers/chainlink/ChainlinkAggregator.sol:ChainlinkAggregator",
        "label": "strictDynamic",
        "offset": 0,
        "slot": "2",
        "type": "t_bool"
      },
      {
        "astId": 11232,
        "contract": "contracts/providers/chainlink/ChainlinkAggregator.sol:ChainlinkAggregator",
        "label": "implementationStored",
        "offset": 1,
        "slot": "2",
        "type": "t_address"
      },
      {
        "astId": 11234,
        "contract": "contracts/providers/chainlink/ChainlinkAggregator.sol:ChainlinkAggregator",
        "label": "_implementationBlockUpdated",
        "offset": 0,
        "slot": "3",
        "type": "t_uint256"
      },
      {
        "astId": 1762,
        "contract": "contracts/providers/chainlink/ChainlinkAggregator.sol:ChainlinkAggregator",
        "label": "settings",
        "offset": 0,
        "slot": "4",
        "type": "t_contract(SettingsInterface)12172"
      },
      {
        "astId": 1766,
        "contract": "contracts/providers/chainlink/ChainlinkAggregator.sol:ChainlinkAggregator",
        "label": "__gap",
        "offset": 0,
        "slot": "5",
        "type": "t_array(t_uint256)10_storage"
      },
      {
        "astId": 12972,
        "contract": "contracts/providers/chainlink/ChainlinkAggregator.sol:ChainlinkAggregator",
        "label": "aggregators",
        "offset": 0,
        "slot": "15",
        "type": "t_mapping(t_address,t_mapping(t_address,t_address))"
      },
      {
        "astId": 12976,
        "contract": "contracts/providers/chainlink/ChainlinkAggregator.sol:ChainlinkAggregator",
        "label": "supportedTokens",
        "offset": 0,
        "slot": "16",
        "type": "t_mapping(t_address,t_struct(AddressArray)14159_storage)"
      }
    ],
    "types": {
      "t_address": {
        "encoding": "inplace",
        "label": "address",
        "numberOfBytes": "20"
      },
      "t_array(t_address)dyn_storage": {
        "base": "t_address",
        "encoding": "dynamic_array",
        "label": "address[]",
        "numberOfBytes": "32"
      },
      "t_array(t_uint256)10_storage": {
        "base": "t_uint256",
        "encoding": "inplace",
        "label": "uint256[10]",
        "numberOfBytes": "320"
      },
      "t_bool": {
        "encoding": "inplace",
        "label": "bool",
        "numberOfBytes": "1"
      },
      "t_bytes32": {
        "encoding": "inplace",
        "label": "bytes32",
        "numberOfBytes": "32"
      },
      "t_contract(LogicVersionsRegistryInterface)11867": {
        "encoding": "inplace",
        "label": "contract LogicVersionsRegistryInterface",
        "numberOfBytes": "20"
      },
      "t_contract(SettingsInterface)12172": {
        "encoding": "inplace",
        "label": "contract SettingsInterface",
        "numberOfBytes": "20"
      },
      "t_mapping(t_address,t_address)": {
        "encoding": "mapping",
        "key": "t_address",
        "label": "mapping(address => address)",
        "numberOfBytes": "32",
        "value": "t_address"
      },
      "t_mapping(t_address,t_mapping(t_address,t_address))": {
        "encoding": "mapping",
        "key": "t_address",
        "label": "mapping(address => mapping(address => address))",
        "numberOfBytes": "32",
        "value": "t_mapping(t_address,t_address)"
      },
      "t_mapping(t_address,t_struct(AddressArray)14159_storage)": {
        "encoding": "mapping",
        "key": "t_address",
        "label": "mapping(address => struct AddressArrayLib.AddressArray)",
        "numberOfBytes": "32",
        "value": "t_struct(AddressArray)14159_storage"
      },
      "t_mapping(t_address,t_uint256)": {
        "encoding": "mapping",
        "key": "t_address",
        "label": "mapping(address => uint256)",
        "numberOfBytes": "32",
        "value": "t_uint256"
      },
      "t_struct(AddressArray)14159_storage": {
        "encoding": "inplace",
        "label": "struct AddressArrayLib.AddressArray",
        "members": [
          {
            "astId": 14154,
            "contract": "contracts/providers/chainlink/ChainlinkAggregator.sol:ChainlinkAggregator",
            "label": "array",
            "offset": 0,
            "slot": "0",
            "type": "t_array(t_address)dyn_storage"
          },
          {
            "astId": 14158,
            "contract": "contracts/providers/chainlink/ChainlinkAggregator.sol:ChainlinkAggregator",
            "label": "indices",
            "offset": 0,
            "slot": "1",
            "type": "t_mapping(t_address,t_uint256)"
          }
        ],
        "numberOfBytes": "64"
      },
      "t_uint256": {
        "encoding": "inplace",
        "label": "uint256",
        "numberOfBytes": "32"
      }
    }
  }
}