{
  "address": "0x98dED4a83B47454124258F0e248105Ad413571aA",
  "abi": [
    {
      "anonymous": false,
      "inputs": [
        {
          "indexed": true,
          "internalType": "address",
          "name": "previousOwner",
          "type": "address"
        },
        {
          "indexed": true,
          "internalType": "address",
          "name": "newOwner",
          "type": "address"
        }
      ],
      "name": "OwnershipTransferred",
      "type": "event"
    },
    {
      "inputs": [
        {
          "internalType": "uint256",
          "name": "",
          "type": "uint256"
        }
      ],
      "name": "collateralBalances",
      "outputs": [
        {
          "internalType": "uint256",
          "name": "",
          "type": "uint256"
        }
      ],
      "stateMutability": "view",
      "type": "function"
    },
    {
      "inputs": [],
      "name": "collateralToken",
      "outputs": [
        {
          "internalType": "contract IERC20",
          "name": "",
          "type": "address"
        }
      ],
      "stateMutability": "view",
      "type": "function"
    },
    {
      "inputs": [
        {
          "internalType": "uint256",
          "name": "amount",
          "type": "uint256"
        },
        {
          "internalType": "uint256",
          "name": "loanID",
          "type": "uint256"
        }
      ],
      "name": "depositCollateral",
      "outputs": [],
      "stateMutability": "nonpayable",
      "type": "function"
    },
    {
      "inputs": [
        {
          "internalType": "address",
          "name": "tokenAddress",
          "type": "address"
        }
      ],
      "name": "init",
      "outputs": [],
      "stateMutability": "nonpayable",
      "type": "function"
    },
    {
      "inputs": [],
      "name": "owner",
      "outputs": [
        {
          "internalType": "address",
          "name": "",
          "type": "address"
        }
      ],
      "stateMutability": "view",
      "type": "function"
    },
    {
      "inputs": [],
      "name": "renounceOwnership",
      "outputs": [],
      "stateMutability": "nonpayable",
      "type": "function"
    },
    {
      "inputs": [
        {
          "internalType": "address",
          "name": "newOwner",
          "type": "address"
        }
      ],
      "name": "transferOwnership",
      "outputs": [],
      "stateMutability": "nonpayable",
      "type": "function"
    },
    {
      "inputs": [
        {
          "internalType": "uint256",
          "name": "amount",
          "type": "uint256"
        },
        {
          "internalType": "uint256",
          "name": "loanID",
          "type": "uint256"
        },
        {
          "internalType": "address",
          "name": "receiver",
          "type": "address"
        }
      ],
      "name": "withdrawCollateral",
      "outputs": [],
      "stateMutability": "nonpayable",
      "type": "function"
    }
  ],
  "transactionHash": "0xe8fee7abb3336dcc1071978f740fce238de4cc48d884284ff101aa2da0eafc64",
  "args": [],
  "solcInputHash": "3c3e5b2c786bda25b38603e2b551c6d3",
  "bytecode": "0x608060405234801561001057600080fd5b50610b59806100206000396000f3fe608060405234801561001057600080fd5b50600436106100885760003560e01c80638da5cb5b1161005b5780638da5cb5b146100f0578063b2016bd414610115578063ece1373214610128578063f2fde38b1461013b57610088565b806319ab453c1461008d5780636b6d8fc2146100a2578063715018a6146100b55780637b0a55d1146100bd575b600080fd5b6100a061009b366004610939565b61014e565b005b6100a06100b03660046109ac565b6101e5565b6100a06102c3565b6100dd6100cb366004610973565b60666020526000908152604090205481565b6040519081526020015b60405180910390f35b6033546001600160a01b03165b6040516001600160a01b0390911681526020016100e7565b6065546100fd906001600160a01b031681565b6100a061013636600461098b565b610337565b6100a0610149366004610939565b6103a0565b6001600160a01b0381166101bb5760405162461bcd60e51b815260206004820152602960248201527f54656c6c657220657363726f773a20636f6c6c61746572616c20746f6b656e2060448201526806164647265737320360bc1b60648201526084015b60405180910390fd5b6101c361048b565b606580546001600160a01b0319166001600160a01b0392909216919091179055565b6033546001600160a01b0316331461020f5760405162461bcd60e51b81526004016101b290610a7d565b6000828152606660205260409020548311156102845760405162461bcd60e51b815260206004820152602e60248201527f54656c6c657220657363726f773a20496e73756666696369656e7420636f6c6c60448201526d61746572616c2062616c616e636560901b60648201526084016101b2565b60655461029b906001600160a01b03168285610507565b600082815260666020526040812080548592906102b9908490610aca565b9091555050505050565b6033546001600160a01b031633146102ed5760405162461bcd60e51b81526004016101b290610a7d565b6033546040516000916001600160a01b0316907f8be0079c531659141344cd1fd0a4f28419497f9722a3daafe3b4186f6b6457e0908390a3603380546001600160a01b0319169055565b6033546001600160a01b031633146103615760405162461bcd60e51b81526004016101b290610a7d565b606554610379906001600160a01b031633308561056f565b60008181526066602052604081208054849290610397908490610ab2565b90915550505050565b6033546001600160a01b031633146103ca5760405162461bcd60e51b81526004016101b290610a7d565b6001600160a01b03811661042f5760405162461bcd60e51b815260206004820152602660248201527f4f776e61626c653a206e6577206f776e657220697320746865207a65726f206160448201526564647265737360d01b60648201526084016101b2565b6033546040516001600160a01b038084169216907f8be0079c531659141344cd1fd0a4f28419497f9722a3daafe3b4186f6b6457e090600090a3603380546001600160a01b0319166001600160a01b0392909216919091179055565b600054610100900460ff16806104a4575060005460ff16155b6104c05760405162461bcd60e51b81526004016101b290610a2f565b600054610100900460ff161580156104e2576000805461ffff19166101011790555b6104ea6105ad565b6104f2610617565b8015610504576000805461ff00191690555b50565b6040516001600160a01b03831660248201526044810182905261056a90849063a9059cbb60e01b906064015b60408051601f198184030181529190526020810180516001600160e01b03166001600160e01b0319909316929092179091526106c5565b505050565b6040516001600160a01b03808516602483015283166044820152606481018290526105a79085906323b872dd60e01b90608401610533565b50505050565b600054610100900460ff16806105c6575060005460ff16155b6105e25760405162461bcd60e51b81526004016101b290610a2f565b600054610100900460ff161580156104f2576000805461ffff19166101011790558015610504576000805461ff001916905550565b600054610100900460ff1680610630575060005460ff16155b61064c5760405162461bcd60e51b81526004016101b290610a2f565b600054610100900460ff1615801561066e576000805461ffff19166101011790555b603380546001600160a01b0319163390811790915560405181906000907f8be0079c531659141344cd1fd0a4f28419497f9722a3daafe3b4186f6b6457e0908290a3508015610504576000805461ff001916905550565b600061071a826040518060400160405280602081526020017f5361666545524332303a206c6f772d6c6576656c2063616c6c206661696c6564815250856001600160a01b03166107979092919063ffffffff16565b80519091501561056a57808060200190518101906107389190610953565b61056a5760405162461bcd60e51b815260206004820152602a60248201527f5361666545524332303a204552433230206f7065726174696f6e20646964206e6044820152691bdd081cdd58d8d9595960b21b60648201526084016101b2565b60606107a684846000856107b0565b90505b9392505050565b6060824710156108115760405162461bcd60e51b815260206004820152602660248201527f416464726573733a20696e73756666696369656e742062616c616e636520666f6044820152651c8818d85b1b60d21b60648201526084016101b2565b61081a856108df565b6108665760405162461bcd60e51b815260206004820152601d60248201527f416464726573733a2063616c6c20746f206e6f6e2d636f6e747261637400000060448201526064016101b2565b600080866001600160a01b0316858760405161088291906109e0565b60006040518083038185875af1925050503d80600081146108bf576040519150601f19603f3d011682016040523d82523d6000602084013e6108c4565b606091505b50915091506108d48282866108e9565b979650505050505050565b803b15155b919050565b606083156108f85750816107a9565b8251156109085782518084602001fd5b8160405162461bcd60e51b81526004016101b291906109fc565b80356001600160a01b03811681146108e457600080fd5b60006020828403121561094a578081fd5b6107a982610922565b600060208284031215610964578081fd5b815180151581146107a9578182fd5b600060208284031215610984578081fd5b5035919050565b6000806040838503121561099d578081fd5b50508035926020909101359150565b6000806000606084860312156109c0578081fd5b83359250602084013591506109d760408501610922565b90509250925092565b600082516109f2818460208701610ae1565b9190910192915050565b6000602082528251806020840152610a1b816040850160208701610ae1565b601f01601f19169190910160400192915050565b6020808252602e908201527f496e697469616c697a61626c653a20636f6e747261637420697320616c72656160408201526d191e481a5b9a5d1a585b1a5e995960921b606082015260800190565b6020808252818101527f4f776e61626c653a2063616c6c6572206973206e6f7420746865206f776e6572604082015260600190565b60008219821115610ac557610ac5610b0d565b500190565b600082821015610adc57610adc610b0d565b500390565b60005b83811015610afc578181015183820152602001610ae4565b838111156105a75750506000910152565b634e487b7160e01b600052601160045260246000fdfea2646970667358221220dbf0589c85e8d9244c00eaa6c2e145d8ba8b8c2cbfcf5b9d1d10a16e23c502ea64736f6c63430008030033",
  "devdoc": {
    "kind": "dev",
    "methods": {
      "owner()": {
        "details": "Returns the address of the current owner."
      },
      "renounceOwnership()": {
        "details": "Leaves the contract without owner. It will not be possible to call `onlyOwner` functions anymore. Can only be called by the current owner. NOTE: Renouncing ownership will leave the contract without an owner, thereby removing any functionality that is only available to the owner."
      },
      "transferOwnership(address)": {
        "details": "Transfers ownership of the contract to a new account (`newOwner`). Can only be called by the current owner."
      }
    },
    "version": 1
  },
  "userdoc": {
    "kind": "user",
    "methods": {},
    "version": 1
  },
  "storageLayout": {
    "storage": [
      {
        "astId": 779,
        "contract": "contracts/market/collateral/CollateralEscrow_V1.sol:CollateralEscrow_V1",
        "label": "_initialized",
        "offset": 0,
        "slot": "0",
        "type": "t_bool"
      },
      {
        "astId": 782,
        "contract": "contracts/market/collateral/CollateralEscrow_V1.sol:CollateralEscrow_V1",
        "label": "_initializing",
        "offset": 1,
        "slot": "0",
        "type": "t_bool"
      },
      {
        "astId": 2980,
        "contract": "contracts/market/collateral/CollateralEscrow_V1.sol:CollateralEscrow_V1",
        "label": "__gap",
        "offset": 0,
        "slot": "1",
        "type": "t_array(t_uint256)50_storage"
      },
      {
        "astId": 652,
        "contract": "contracts/market/collateral/CollateralEscrow_V1.sol:CollateralEscrow_V1",
        "label": "_owner",
        "offset": 0,
        "slot": "51",
        "type": "t_address"
      },
      {
        "astId": 771,
        "contract": "contracts/market/collateral/CollateralEscrow_V1.sol:CollateralEscrow_V1",
        "label": "__gap",
        "offset": 0,
        "slot": "52",
        "type": "t_array(t_uint256)49_storage"
      },
      {
        "astId": 13548,
        "contract": "contracts/market/collateral/CollateralEscrow_V1.sol:CollateralEscrow_V1",
        "label": "collateralToken",
        "offset": 0,
        "slot": "101",
        "type": "t_contract(IERC20)4192"
      },
      {
        "astId": 13552,
        "contract": "contracts/market/collateral/CollateralEscrow_V1.sol:CollateralEscrow_V1",
        "label": "collateralBalances",
        "offset": 0,
        "slot": "102",
        "type": "t_mapping(t_uint256,t_uint256)"
      }
    ],
    "types": {
      "t_address": {
        "encoding": "inplace",
        "label": "address",
        "numberOfBytes": "20"
      },
      "t_array(t_uint256)49_storage": {
        "base": "t_uint256",
        "encoding": "inplace",
        "label": "uint256[49]",
        "numberOfBytes": "1568"
      },
      "t_array(t_uint256)50_storage": {
        "base": "t_uint256",
        "encoding": "inplace",
        "label": "uint256[50]",
        "numberOfBytes": "1600"
      },
      "t_bool": {
        "encoding": "inplace",
        "label": "bool",
        "numberOfBytes": "1"
      },
      "t_contract(IERC20)4192": {
        "encoding": "inplace",
        "label": "contract IERC20",
        "numberOfBytes": "20"
      },
      "t_mapping(t_uint256,t_uint256)": {
        "encoding": "mapping",
        "key": "t_uint256",
        "label": "mapping(uint256 => uint256)",
        "numberOfBytes": "32",
        "value": "t_uint256"
      },
      "t_uint256": {
        "encoding": "inplace",
        "label": "uint256",
        "numberOfBytes": "32"
      }
    }
  }
}