{
  "address": "0xa0c294a9808A6968F631c204b9834852173F372F",
  "abi": [
    {
      "anonymous": false,
      "inputs": [
        {
          "indexed": true,
          "internalType": "address",
          "name": "previousOwner",
          "type": "address"
        },
        {
          "indexed": true,
          "internalType": "address",
          "name": "newOwner",
          "type": "address"
        }
      ],
      "name": "OwnershipTransferred",
      "type": "event"
    },
    {
      "inputs": [],
      "name": "collateralToken",
      "outputs": [
        {
          "internalType": "address",
          "name": "",
          "type": "address"
        }
      ],
      "stateMutability": "view",
      "type": "function"
    },
    {
      "inputs": [
        {
          "internalType": "uint256",
          "name": "loanID",
          "type": "uint256"
        },
        {
          "internalType": "uint256",
          "name": "amount",
          "type": "uint256"
        }
      ],
      "name": "deposit",
      "outputs": [],
      "stateMutability": "payable",
      "type": "function"
    },
    {
      "inputs": [
        {
          "internalType": "address",
          "name": "tokenAddress",
          "type": "address"
        },
        {
          "internalType": "bool",
          "name": "isWETH",
          "type": "bool"
        }
      ],
      "name": "init",
      "outputs": [],
      "stateMutability": "nonpayable",
      "type": "function"
    },
    {
      "inputs": [
        {
          "internalType": "uint256",
          "name": "loanID",
          "type": "uint256"
        }
      ],
      "name": "loanSupply",
      "outputs": [
        {
          "internalType": "uint256",
          "name": "supply_",
          "type": "uint256"
        }
      ],
      "stateMutability": "view",
      "type": "function"
    },
    {
      "inputs": [],
      "name": "owner",
      "outputs": [
        {
          "internalType": "address",
          "name": "",
          "type": "address"
        }
      ],
      "stateMutability": "view",
      "type": "function"
    },
    {
      "inputs": [],
      "name": "renounceOwnership",
      "outputs": [],
      "stateMutability": "nonpayable",
      "type": "function"
    },
    {
      "inputs": [],
      "name": "totalSupply",
      "outputs": [
        {
          "internalType": "uint256",
          "name": "supply_",
          "type": "uint256"
        }
      ],
      "stateMutability": "view",
      "type": "function"
    },
    {
      "inputs": [
        {
          "internalType": "address",
          "name": "newOwner",
          "type": "address"
        }
      ],
      "name": "transferOwnership",
      "outputs": [],
      "stateMutability": "nonpayable",
      "type": "function"
    },
    {
      "inputs": [
        {
          "internalType": "uint256",
          "name": "loanID",
          "type": "uint256"
        },
        {
          "internalType": "uint256",
          "name": "amount",
          "type": "uint256"
        },
        {
          "internalType": "address payable",
          "name": "receiver",
          "type": "address"
        }
      ],
      "name": "withdraw",
      "outputs": [],
      "stateMutability": "nonpayable",
      "type": "function"
    }
  ],
  "transactionHash": "0xd921749c3bcd82b3c7d63ef3f07fc9c4e1f73b5fd5498f73c7289db0d69df2ed",
  "args": [],
  "solcInputHash": "6e721a7b5735a7c937ef1c7eb2929f1d",
  "bytecode": "0x608060405234801561001057600080fd5b50610f0b806100206000396000f3fe6080604052600436106100865760003560e01c8063b2016bd411610059578063b2016bd41461011c578063cb9fa3661461013c578063d17b71d71461015c578063e2bbb15814610189578063f2fde38b1461019c57610086565b80630ad58d2f1461008b57806318160ddd146100ad578063715018a6146100d55780638da5cb5b146100ea575b600080fd5b34801561009757600080fd5b506100ab6100a6366004610d06565b6101bc565b005b3480156100b957600080fd5b506100c26103a2565b6040519081526020015b60405180910390f35b3480156100e157600080fd5b506100ab610423565b3480156100f657600080fd5b506033546001600160a01b03165b6040516001600160a01b0390911681526020016100cc565b34801561012857600080fd5b50606654610104906001600160a01b031681565b34801561014857600080fd5b506100ab610157366004610c61565b610497565b34801561016857600080fd5b506100c2610177366004610cb5565b60009081526065602052604090205490565b6100ab610197366004610ce5565b610534565b3480156101a857600080fd5b506100ab6101b7366004610c45565b61066c565b6033546001600160a01b031633146101ef5760405162461bcd60e51b81526004016101e690610e0c565b60405180910390fd5b6102426040518060400160405280601c81526020017f636f6c6c61746572616c2062616c616e6365202d2d20616d6f756e7400000000815250606560008681526020019081526020016000205484610757565b6000838152606560205260409020548211156102b75760405162461bcd60e51b815260206004820152602e60248201527f54656c6c657220657363726f773a20496e73756666696369656e7420636f6c6c60448201526d61746572616c2062616c616e636560901b60648201526084016101e6565b606654600160a01b900460ff161561036357606654604051632e1a7d4d60e01b8152600481018490526001600160a01b0390911690632e1a7d4d90602401600060405180830381600087803b15801561030f57600080fd5b505af1158015610323573d6000803e3d6000fd5b50506040516001600160a01b038416925084156108fc02915084906000818181858888f1935050505015801561035d573d6000803e3d6000fd5b5061037a565b60665461037a906001600160a01b031682846107a3565b60008381526065602052604081208054849290610398908490610e59565b9091555050505050565b6066546040516370a0823160e01b81523060048201526000916001600160a01b0316906370a082319060240160206040518083038186803b1580156103e657600080fd5b505afa1580156103fa573d6000803e3d6000fd5b505050506040513d601f19601f8201168201806040525081019061041e9190610ccd565b905090565b6033546001600160a01b0316331461044d5760405162461bcd60e51b81526004016101e690610e0c565b6033546040516000916001600160a01b0316907f8be0079c531659141344cd1fd0a4f28419497f9722a3daafe3b4186f6b6457e0908390a3603380546001600160a01b0319169055565b6001600160a01b0382166104ff5760405162461bcd60e51b815260206004820152602960248201527f54656c6c657220657363726f773a20636f6c6c61746572616c20746f6b656e2060448201526806164647265737320360bc1b60648201526084016101e6565b610507610806565b60668054911515600160a01b026001600160a81b03199092166001600160a01b0390931692909217179055565b6033546001600160a01b0316331461055e5760405162461bcd60e51b81526004016101e690610e0c565b606654600160a01b900460ff161561062d578034146105bf5760405162461bcd60e51b815260206004820152601d60248201527f54656c6c65723a20696e636f727265637420657468206465706f73697400000060448201526064016101e6565b606660009054906101000a90046001600160a01b03166001600160a01b031663d0e30db0346040518263ffffffff1660e01b81526004016000604051808303818588803b15801561060f57600080fd5b505af1158015610623573d6000803e3d6000fd5b5050505050610645565b606654610645906001600160a01b0316333084610882565b60008281526065602052604081208054839290610663908490610e41565b90915550505050565b6033546001600160a01b031633146106965760405162461bcd60e51b81526004016101e690610e0c565b6001600160a01b0381166106fb5760405162461bcd60e51b815260206004820152602660248201527f4f776e61626c653a206e6577206f776e657220697320746865207a65726f206160448201526564647265737360d01b60648201526084016101e6565b6033546040516001600160a01b038084169216907f8be0079c531659141344cd1fd0a4f28419497f9722a3daafe3b4186f6b6457e090600090a3603380546001600160a01b0319166001600160a01b0392909216919091179055565b61079e83838360405160240161076f93929190610d99565b60408051601f198184030181529190526020810180516001600160e01b031663969cdd0360e01b1790526108c0565b505050565b6040516001600160a01b03831660248201526044810182905261079e90849063a9059cbb60e01b906064015b60408051601f198184030181529190526020810180516001600160e01b03166001600160e01b0319909316929092179091526108e1565b600054610100900460ff168061081f575060005460ff16155b61083b5760405162461bcd60e51b81526004016101e690610dbe565b600054610100900460ff1615801561085d576000805461ffff19166101011790555b6108656109b3565b61086d610a1d565b801561087f576000805461ff00191690555b50565b6040516001600160a01b03808516602483015283166044820152606481018290526108ba9085906323b872dd60e01b906084016107cf565b50505050565b80516a636f6e736f6c652e6c6f67602083016000808483855afa5050505050565b6000610936826040518060400160405280602081526020017f5361666545524332303a206c6f772d6c6576656c2063616c6c206661696c6564815250856001600160a01b0316610acb9092919063ffffffff16565b80519091501561079e57808060200190518101906109549190610c99565b61079e5760405162461bcd60e51b815260206004820152602a60248201527f5361666545524332303a204552433230206f7065726174696f6e20646964206e6044820152691bdd081cdd58d8d9595960b21b60648201526084016101e6565b600054610100900460ff16806109cc575060005460ff16155b6109e85760405162461bcd60e51b81526004016101e690610dbe565b600054610100900460ff1615801561086d576000805461ffff1916610101179055801561087f576000805461ff001916905550565b600054610100900460ff1680610a36575060005460ff16155b610a525760405162461bcd60e51b81526004016101e690610dbe565b600054610100900460ff16158015610a74576000805461ffff19166101011790555b603380546001600160a01b0319163390811790915560405181906000907f8be0079c531659141344cd1fd0a4f28419497f9722a3daafe3b4186f6b6457e0908290a350801561087f576000805461ff001916905550565b6060610ada8484600085610ae4565b90505b9392505050565b606082471015610b455760405162461bcd60e51b815260206004820152602660248201527f416464726573733a20696e73756666696369656e742062616c616e636520666f6044820152651c8818d85b1b60d21b60648201526084016101e6565b843b610b935760405162461bcd60e51b815260206004820152601d60248201527f416464726573733a2063616c6c20746f206e6f6e2d636f6e747261637400000060448201526064016101e6565b600080866001600160a01b03168587604051610baf9190610d6a565b60006040518083038185875af1925050503d8060008114610bec576040519150601f19603f3d011682016040523d82523d6000602084013e610bf1565b606091505b5091509150610c01828286610c0c565b979650505050505050565b60608315610c1b575081610add565b825115610c2b5782518084602001fd5b8160405162461bcd60e51b81526004016101e69190610d86565b600060208284031215610c56578081fd5b8135610add81610eb2565b60008060408385031215610c73578081fd5b8235610c7e81610eb2565b91506020830135610c8e81610ec7565b809150509250929050565b600060208284031215610caa578081fd5b8151610add81610ec7565b600060208284031215610cc6578081fd5b5035919050565b600060208284031215610cde578081fd5b5051919050565b60008060408385031215610cf7578182fd5b50508035926020909101359150565b600080600060608486031215610d1a578081fd5b83359250602084013591506040840135610d3381610eb2565b809150509250925092565b60008151808452610d56816020860160208601610e70565b601f01601f19169290920160200192915050565b60008251610d7c818460208701610e70565b9190910192915050565b600060208252610add6020830184610d3e565b600060608252610dac6060830186610d3e565b60208301949094525060400152919050565b6020808252602e908201527f496e697469616c697a61626c653a20636f6e747261637420697320616c72656160408201526d191e481a5b9a5d1a585b1a5e995960921b606082015260800190565b6020808252818101527f4f776e61626c653a2063616c6c6572206973206e6f7420746865206f776e6572604082015260600190565b60008219821115610e5457610e54610e9c565b500190565b600082821015610e6b57610e6b610e9c565b500390565b60005b83811015610e8b578181015183820152602001610e73565b838111156108ba5750506000910152565b634e487b7160e01b600052601160045260246000fd5b6001600160a01b038116811461087f57600080fd5b801515811461087f57600080fdfea2646970667358221220b62ecfd343baaa1200f5817268725d121d8e4fb95c190b0710689e1c4263023264736f6c63430008030033",
  "devdoc": {
    "kind": "dev",
    "methods": {
      "owner()": {
        "details": "Returns the address of the current owner."
      },
      "renounceOwnership()": {
        "details": "Leaves the contract without owner. It will not be possible to call `onlyOwner` functions anymore. Can only be called by the current owner. NOTE: Renouncing ownership will leave the contract without an owner, thereby removing any functionality that is only available to the owner."
      },
      "transferOwnership(address)": {
        "details": "Transfers ownership of the contract to a new account (`newOwner`). Can only be called by the current owner."
      }
    },
    "version": 1
  },
  "userdoc": {
    "kind": "user",
    "methods": {},
    "version": 1
  },
  "storageLayout": {
    "storage": [
      {
        "astId": 779,
        "contract": "contracts/market/collateral/CollateralEscrow_V1.sol:CollateralEscrow_V1",
        "label": "_initialized",
        "offset": 0,
        "slot": "0",
        "type": "t_bool"
      },
      {
        "astId": 782,
        "contract": "contracts/market/collateral/CollateralEscrow_V1.sol:CollateralEscrow_V1",
        "label": "_initializing",
        "offset": 1,
        "slot": "0",
        "type": "t_bool"
      },
      {
        "astId": 2980,
        "contract": "contracts/market/collateral/CollateralEscrow_V1.sol:CollateralEscrow_V1",
        "label": "__gap",
        "offset": 0,
        "slot": "1",
        "type": "t_array(t_uint256)50_storage"
      },
      {
        "astId": 652,
        "contract": "contracts/market/collateral/CollateralEscrow_V1.sol:CollateralEscrow_V1",
        "label": "_owner",
        "offset": 0,
        "slot": "51",
        "type": "t_address"
      },
      {
        "astId": 771,
        "contract": "contracts/market/collateral/CollateralEscrow_V1.sol:CollateralEscrow_V1",
        "label": "__gap",
        "offset": 0,
        "slot": "52",
        "type": "t_array(t_uint256)49_storage"
      },
      {
        "astId": 13844,
        "contract": "contracts/market/collateral/CollateralEscrow_V1.sol:CollateralEscrow_V1",
        "label": "_balances",
        "offset": 0,
        "slot": "101",
        "type": "t_mapping(t_uint256,t_uint256)"
      },
      {
        "astId": 13846,
        "contract": "contracts/market/collateral/CollateralEscrow_V1.sol:CollateralEscrow_V1",
        "label": "collateralToken",
        "offset": 0,
        "slot": "102",
        "type": "t_address"
      },
      {
        "astId": 13848,
        "contract": "contracts/market/collateral/CollateralEscrow_V1.sol:CollateralEscrow_V1",
        "label": "_isWETH",
        "offset": 20,
        "slot": "102",
        "type": "t_bool"
      }
    ],
    "types": {
      "t_address": {
        "encoding": "inplace",
        "label": "address",
        "numberOfBytes": "20"
      },
      "t_array(t_uint256)49_storage": {
        "base": "t_uint256",
        "encoding": "inplace",
        "label": "uint256[49]",
        "numberOfBytes": "1568"
      },
      "t_array(t_uint256)50_storage": {
        "base": "t_uint256",
        "encoding": "inplace",
        "label": "uint256[50]",
        "numberOfBytes": "1600"
      },
      "t_bool": {
        "encoding": "inplace",
        "label": "bool",
        "numberOfBytes": "1"
      },
      "t_mapping(t_uint256,t_uint256)": {
        "encoding": "mapping",
        "key": "t_uint256",
        "label": "mapping(uint256 => uint256)",
        "numberOfBytes": "32",
        "value": "t_uint256"
      },
      "t_uint256": {
        "encoding": "inplace",
        "label": "uint256",
        "numberOfBytes": "32"
      }
    }
  }
}