{
  "address": "0x6cE10B2FFd73a8384Cdc072f14097E1746Bb93f4",
  "abi": [
    {
      "anonymous": false,
      "inputs": [
        {
          "indexed": true,
          "internalType": "address",
          "name": "owner",
          "type": "address"
        },
        {
          "indexed": true,
          "internalType": "address",
          "name": "approved",
          "type": "address"
        },
        {
          "indexed": true,
          "internalType": "uint256",
          "name": "tokenId",
          "type": "uint256"
        }
      ],
      "name": "Approval",
      "type": "event"
    },
    {
      "anonymous": false,
      "inputs": [
        {
          "indexed": true,
          "internalType": "address",
          "name": "owner",
          "type": "address"
        },
        {
          "indexed": true,
          "internalType": "address",
          "name": "operator",
          "type": "address"
        },
        {
          "indexed": false,
          "internalType": "bool",
          "name": "approved",
          "type": "bool"
        }
      ],
      "name": "ApprovalForAll",
      "type": "event"
    },
    {
      "anonymous": false,
      "inputs": [
        {
          "indexed": true,
          "internalType": "address",
          "name": "from",
          "type": "address"
        },
        {
          "indexed": true,
          "internalType": "address",
          "name": "to",
          "type": "address"
        },
        {
          "indexed": true,
          "internalType": "uint256",
          "name": "tokenId",
          "type": "uint256"
        }
      ],
      "name": "Transfer",
      "type": "event"
    },
    {
      "inputs": [
        {
          "internalType": "address",
          "name": "to",
          "type": "address"
        },
        {
          "internalType": "uint256",
          "name": "tokenId",
          "type": "uint256"
        }
      ],
      "name": "approve",
      "outputs": [],
      "stateMutability": "nonpayable",
      "type": "function"
    },
    {
      "inputs": [
        {
          "internalType": "address",
          "name": "owner",
          "type": "address"
        }
      ],
      "name": "balanceOf",
      "outputs": [
        {
          "internalType": "uint256",
          "name": "",
          "type": "uint256"
        }
      ],
      "stateMutability": "view",
      "type": "function"
    },
    {
      "inputs": [
        {
          "internalType": "uint256",
          "name": "tokenId",
          "type": "uint256"
        }
      ],
      "name": "getApproved",
      "outputs": [
        {
          "internalType": "address",
          "name": "",
          "type": "address"
        }
      ],
      "stateMutability": "view",
      "type": "function"
    },
    {
      "inputs": [
        {
          "internalType": "address",
          "name": "owner",
          "type": "address"
        },
        {
          "internalType": "address",
          "name": "operator",
          "type": "address"
        }
      ],
      "name": "isApprovedForAll",
      "outputs": [
        {
          "internalType": "bool",
          "name": "",
          "type": "bool"
        }
      ],
      "stateMutability": "view",
      "type": "function"
    },
    {
      "inputs": [],
      "name": "name",
      "outputs": [
        {
          "internalType": "string",
          "name": "",
          "type": "string"
        }
      ],
      "stateMutability": "view",
      "type": "function"
    },
    {
      "inputs": [
        {
          "internalType": "uint256",
          "name": "tokenId",
          "type": "uint256"
        }
      ],
      "name": "ownerOf",
      "outputs": [
        {
          "internalType": "address",
          "name": "",
          "type": "address"
        }
      ],
      "stateMutability": "view",
      "type": "function"
    },
    {
      "inputs": [
        {
          "internalType": "address",
          "name": "from",
          "type": "address"
        },
        {
          "internalType": "address",
          "name": "to",
          "type": "address"
        },
        {
          "internalType": "uint256",
          "name": "tokenId",
          "type": "uint256"
        }
      ],
      "name": "safeTransferFrom",
      "outputs": [],
      "stateMutability": "nonpayable",
      "type": "function"
    },
    {
      "inputs": [
        {
          "internalType": "address",
          "name": "from",
          "type": "address"
        },
        {
          "internalType": "address",
          "name": "to",
          "type": "address"
        },
        {
          "internalType": "uint256",
          "name": "tokenId",
          "type": "uint256"
        },
        {
          "internalType": "bytes",
          "name": "_data",
          "type": "bytes"
        }
      ],
      "name": "safeTransferFrom",
      "outputs": [],
      "stateMutability": "nonpayable",
      "type": "function"
    },
    {
      "inputs": [
        {
          "internalType": "address",
          "name": "operator",
          "type": "address"
        },
        {
          "internalType": "bool",
          "name": "approved",
          "type": "bool"
        }
      ],
      "name": "setApprovalForAll",
      "outputs": [],
      "stateMutability": "nonpayable",
      "type": "function"
    },
    {
      "inputs": [],
      "name": "symbol",
      "outputs": [
        {
          "internalType": "string",
          "name": "",
          "type": "string"
        }
      ],
      "stateMutability": "view",
      "type": "function"
    },
    {
      "inputs": [
        {
          "internalType": "uint256",
          "name": "tokenId",
          "type": "uint256"
        }
      ],
      "name": "tokenURI",
      "outputs": [
        {
          "internalType": "string",
          "name": "",
          "type": "string"
        }
      ],
      "stateMutability": "view",
      "type": "function"
    },
    {
      "inputs": [
        {
          "internalType": "address",
          "name": "from",
          "type": "address"
        },
        {
          "internalType": "address",
          "name": "to",
          "type": "address"
        },
        {
          "internalType": "uint256",
          "name": "tokenId",
          "type": "uint256"
        }
      ],
      "name": "transferFrom",
      "outputs": [],
      "stateMutability": "nonpayable",
      "type": "function"
    }
  ],
  "transactionHash": "0x4b85149066bdfe9259dc412b98b16d6d7ad1fab8fc3b8c8af5c8766d7b22389c",
  "args": [],
  "solcInputHash": "7e129727dcb3b47e20291ca868c9b416",
  "bytecode": "0x608060405234801561001057600080fd5b506112e2806100206000396000f3fe608060405234801561001057600080fd5b50600436106100b45760003560e01c806370a082311161007157806370a082311461015057806395d89b4114610171578063a22cb46514610179578063b88d4fde1461018c578063c87b56dd1461019f578063e985e9c5146101b2576100b4565b806306fdde03146100b9578063081812fc146100d7578063095ea7b31461010257806323b872dd1461011757806342842e0e1461012a5780636352211e1461013d575b600080fd5b6100c16101d5565b6040516100ce91906110db565b60405180910390f35b6100ea6100e536600461102b565b61026d565b6040516001600160a01b0390911681526020016100ce565b610115610110366004610fda565b61030a565b005b610115610125366004610e90565b61042c565b610115610138366004610e90565b61045d565b6100ea61014b36600461102b565b610478565b61016361015e366004610e44565b610506565b6040519081526020016100ce565b6100c161059b565b610115610187366004610fa0565b6105b3565b61011561019a366004610ecb565b61068f565b6100c16101ad36600461102b565b6106a1565b6101c56101c0366004610e5e565b610779565b60405190151581526020016100ce565b60606101df610785565b80546101ea90611200565b80601f016020809104026020016040519081016040528092919081815260200182805461021690611200565b80156102635780601f1061023857610100808354040283529160200191610263565b820191906000526020600020905b81548152906001019060200180831161024657829003601f168201915b5050505050905090565b6000610278826107a9565b6102de5760405162461bcd60e51b815260206004820152602c60248201527f4552433732313a20617070726f76656420717565727920666f72206e6f6e657860448201526b34b9ba32b73a103a37b5b2b760a11b60648201526084015b60405180910390fd5b6102e6610785565b600083815260049190910160205260409020546001600160a01b031690505b919050565b6000610314610785565b600083815260029190910160205260409020546001600160a01b039081169150831681141561038f5760405162461bcd60e51b815260206004820152602160248201527f4552433732313a20617070726f76616c20746f2063757272656e74206f776e656044820152603960f91b60648201526084016102d5565b336001600160a01b03821614806103ab57506103ab81336107d7565b61041d5760405162461bcd60e51b815260206004820152603860248201527f4552433732313a20617070726f76652063616c6c6572206973206e6f74206f7760448201527f6e6572206e6f7220617070726f76656420666f7220616c6c000000000000000060648201526084016102d5565b6104278383610814565b505050565b610436338261089e565b6104525760405162461bcd60e51b81526004016102d590611140565b6104278383836109b3565b61042783838360405180602001604052806000815250610ba1565b600080610483610785565b600084815260029190910160205260409020546001600160a01b03169050806105005760405162461bcd60e51b815260206004820152602960248201527f4552433732313a206f776e657220717565727920666f72206e6f6e657869737460448201526832b73a103a37b5b2b760b91b60648201526084016102d5565b92915050565b60006001600160a01b0382166105715760405162461bcd60e51b815260206004820152602a60248201527f4552433732313a2062616c616e636520717565727920666f7220746865207a65604482015269726f206164647265737360b01b60648201526084016102d5565b610579610785565b6001600160a01b03929092166000908152600390920160205250604090205490565b60606105a5610785565b60010180546101ea90611200565b6001600160a01b03821633141561060c5760405162461bcd60e51b815260206004820152601960248201527f4552433732313a20617070726f766520746f2063616c6c65720000000000000060448201526064016102d5565b80610615610785565b336000818152600592909201602090815260408084206001600160a01b038816808652925292839020805494151560ff199095169490941790935590517f17307eab39ab6107e8899845ad3d59bd9653f200f220920489ca2b5937696c319061068390851515815260200190565b60405180910390a35050565b61069b84848484610ba1565b50505050565b60606106ac826107a9565b6107105760405162461bcd60e51b815260206004820152602f60248201527f4552433732314d657461646174613a2055524920717565727920666f72206e6f60448201526e3732bc34b9ba32b73a103a37b5b2b760891b60648201526084016102d5565b600061072760408051602081019091526000815290565b905060008151116107475760405180602001604052806000815250610772565b8061075184610bfa565b60405160200161076292919061106f565b6040516020818303038152906040525b9392505050565b600061077283836107d7565b7f1e91dbccf5488299bd4adcb044f4c3df902739c02f1f78276dd4194ac6a8d99d90565b6000806107b4610785565b60009384526002016020526040909220546001600160a01b031690911415919050565b60006107e1610785565b6001600160a01b039384166000908152600591909101602090815260408083209490951682529290925250205460ff1690565b8161081d610785565b60008381526004919091016020526040902080546001600160a01b0319166001600160a01b0392831617905581908316610855610785565b600084815260029190910160205260408082205490516001600160a01b03909116917f8c5be1e5ebec7d5bd14f71427d1e84f3dd0314c0f7b2291e5b200ac8c7c3b92591a45050565b60006108a9826107a9565b61090a5760405162461bcd60e51b815260206004820152602c60248201527f4552433732313a206f70657261746f7220717565727920666f72206e6f6e657860448201526b34b9ba32b73a103a37b5b2b760a11b60648201526084016102d5565b6000610914610785565b600084815260029190910160205260409020546001600160a01b039081169150841681148061096e5750836001600160a01b0316610950610785565b600085815260049190910160205260409020546001600160a01b0316145b806109ab575061097c610785565b6001600160a01b03808316600090815260059290920160209081526040808420928816845291905290205460ff165b949350505050565b826001600160a01b03166109c5610785565b600083815260029190910160205260409020546001600160a01b031614610a405760405162461bcd60e51b815260206004820152602960248201527f4552433732313a207472616e73666572206f6620746f6b656e2074686174206960448201526839903737ba1037bbb760b91b60648201526084016102d5565b6001600160a01b038216610aa25760405162461bcd60e51b8152602060048201526024808201527f4552433732313a207472616e7366657220746f20746865207a65726f206164646044820152637265737360e01b60648201526084016102d5565b610aad600082610814565b6001610ab7610785565b6003016000856001600160a01b03166001600160a01b031681526020019081526020016000206000828254610aec91906111bd565b9091555060019050610afc610785565b6003016000846001600160a01b03166001600160a01b031681526020019081526020016000206000828254610b319190611191565b90915550829050610b40610785565b6000838152600291909101602052604080822080546001600160a01b0319166001600160a01b0394851617905551839285811692908716917fddf252ad1be2c89b69c2b068fc378daa952ba7f163c4a11628f55a4df523b3ef9190a4505050565b610bab338361089e565b610bc75760405162461bcd60e51b81526004016102d590611140565b610bd28484846109b3565b610bde84848484610c05565b61069b5760405162461bcd60e51b81526004016102d5906110ee565b606061050082610d12565b60006001600160a01b0384163b15610d0757604051630a85bd0160e11b81526001600160a01b0385169063150b7a0290610c4990339089908890889060040161109e565b602060405180830381600087803b158015610c6357600080fd5b505af1925050508015610c93575060408051601f3d908101601f19168201909252610c9091810190611003565b60015b610ced573d808015610cc1576040519150601f19603f3d011682016040523d82523d6000602084013e610cc6565b606091505b508051610ce55760405162461bcd60e51b81526004016102d5906110ee565b805181602001fd5b6001600160e01b031916630a85bd0160e11b1490506109ab565b506001949350505050565b606081610d3757506040805180820190915260018152600360fc1b6020820152610305565b8160005b8115610d615780610d4b8161123b565b9150610d5a9050600a836111a9565b9150610d3b565b60008167ffffffffffffffff811115610d8a57634e487b7160e01b600052604160045260246000fd5b6040519080825280601f01601f191660200182016040528015610db4576020820181803683370190505b5090505b84156109ab57610dc96001836111bd565b9150610dd6600a86611256565b610de1906030611191565b60f81b818381518110610e0457634e487b7160e01b600052603260045260246000fd5b60200101906001600160f81b031916908160001a905350610e26600a866111a9565b9450610db8565b80356001600160a01b038116811461030557600080fd5b600060208284031215610e55578081fd5b61077282610e2d565b60008060408385031215610e70578081fd5b610e7983610e2d565b9150610e8760208401610e2d565b90509250929050565b600080600060608486031215610ea4578081fd5b610ead84610e2d565b9250610ebb60208501610e2d565b9150604084013590509250925092565b60008060008060808587031215610ee0578081fd5b610ee985610e2d565b9350610ef760208601610e2d565b925060408501359150606085013567ffffffffffffffff80821115610f1a578283fd5b818701915087601f830112610f2d578283fd5b813581811115610f3f57610f3f611296565b604051601f8201601f19908116603f01168101908382118183101715610f6757610f67611296565b816040528281528a6020848701011115610f7f578586fd5b82602086016020830137918201602001949094529598949750929550505050565b60008060408385031215610fb2578182fd5b610fbb83610e2d565b915060208301358015158114610fcf578182fd5b809150509250929050565b60008060408385031215610fec578182fd5b610ff583610e2d565b946020939093013593505050565b600060208284031215611014578081fd5b81516001600160e01b031981168114610772578182fd5b60006020828403121561103c578081fd5b5035919050565b6000815180845261105b8160208601602086016111d4565b601f01601f19169290920160200192915050565b600083516110818184602088016111d4565b8351908301906110958183602088016111d4565b01949350505050565b6001600160a01b03858116825284166020820152604081018390526080606082018190526000906110d190830184611043565b9695505050505050565b6000602082526107726020830184611043565b60208082526032908201527f4552433732313a207472616e7366657220746f206e6f6e20455243373231526560408201527131b2b4bb32b91034b6b83632b6b2b73a32b960711b606082015260800190565b60208082526031908201527f4552433732313a207472616e736665722063616c6c6572206973206e6f74206f6040820152701ddb995c881b9bdc88185c1c1c9bdd9959607a1b606082015260800190565b600082198211156111a4576111a461126a565b500190565b6000826111b8576111b8611280565b500490565b6000828210156111cf576111cf61126a565b500390565b60005b838110156111ef5781810151838201526020016111d7565b8381111561069b5750506000910152565b600181811c9082168061121457607f821691505b6020821081141561123557634e487b7160e01b600052602260045260246000fd5b50919050565b600060001982141561124f5761124f61126a565b5060010190565b60008261126557611265611280565b500690565b634e487b7160e01b600052601160045260246000fd5b634e487b7160e01b600052601260045260246000fd5b634e487b7160e01b600052604160045260246000fdfea264697066735822122025d32e15b72888ade250738cfff9f2e82ae92cca3ff8a9f1eb6bb8fa98f255fe64736f6c63430008030033",
  "devdoc": {
    "kind": "dev",
    "methods": {
      "approve(address,uint256)": {
        "details": "See {IERC721-approve}."
      },
      "balanceOf(address)": {
        "details": "See {IERC721-balanceOf}."
      },
      "getApproved(uint256)": {
        "details": "See {IERC721-getApproved}."
      },
      "isApprovedForAll(address,address)": {
        "details": "See {IERC721-isApprovedForAll}."
      },
      "name()": {
        "details": "See {IERC721Metadata-name}."
      },
      "ownerOf(uint256)": {
        "details": "See {IERC721-ownerOf}."
      },
      "safeTransferFrom(address,address,uint256)": {
        "details": "See {IERC721-safeTransferFrom}."
      },
      "safeTransferFrom(address,address,uint256,bytes)": {
        "details": "See {IERC721-safeTransferFrom}."
      },
      "setApprovalForAll(address,bool)": {
        "details": "See {IERC721-setApprovalForAll}."
      },
      "symbol()": {
        "details": "See {IERC721Metadata-symbol}."
      },
      "tokenURI(uint256)": {
        "details": "See {IERC721Metadata-tokenURI}."
      },
      "transferFrom(address,address,uint256)": {
        "details": "See {IERC721-transferFrom}."
      }
    },
    "version": 1
  },
  "userdoc": {
    "kind": "user",
    "methods": {},
    "version": 1
  },
  "storageLayout": {
    "storage": [],
    "types": null
  }
}