{
  "address": "0x5CAd32eDE0C85315E4B40567D0e070a8bf82d1D3",
  "abi": [
    {
      "inputs": [
        {
          "internalType": "bytes32",
          "name": "newMerkleRoot",
          "type": "bytes32"
        }
      ],
      "name": "addTier",
      "outputs": [],
      "stateMutability": "nonpayable",
      "type": "function"
    }
  ],
  "transactionHash": "0xebabba392df97b3742ea5b6860b4f239769fec5122346538c01339875daf5064",
  "args": [],
  "solcInputHash": "4d710f7f8d3b1eb4b82dcadd299b0e8f",
  "bytecode": "0x608060405234801561001057600080fd5b50610214806100206000396000f3fe608060405234801561001057600080fd5b506004361061002b5760003560e01c8063307e72e414610030575b600080fd5b61004361003e3660046101a3565b610045565b005b7fdf8b4c520ffe197c5343c6f5aec59570151ef9a492f2c624fd45ddde6135ec4233610071828261010a565b7fcf1e960f2172c22b0a7308b10d2fa40d0d089ee0367c8e6cb72a5803f164c36180546001818101835560008390527fb9fa352bc973ec2d8453aa141171c316a3808e25ed4edf76f3674c4a7b18977790910185905590547f8a72996af74d1009e0d3b3895936b7ad9b9447c124a9e2e36b6553ceb1cc6d0f916100f4916101bb565b60405190815260200160405180910390a1505050565b60008281527f337c29a31b05a860fb532911919dbe85ab303a7465176333f1deb496e9fdd19e602090815260408083206001600160a01b038516845290915290205460ff1661019f5760405162461bcd60e51b815260206004820152601b60248201527f416363657373436f6e74726f6c3a20756e617574686f72697a65640000000000604482015260640160405180910390fd5b5050565b6000602082840312156101b4578081fd5b5035919050565b6000828210156101d957634e487b7160e01b81526011600452602481fd5b50039056fea2646970667358221220a501413a04f55812260469825f794bcb31678d864c608718d63db047e9a4026964736f6c63430008030033",
  "devdoc": {
    "kind": "dev",
    "methods": {
      "addTier(bytes32)": {
        "params": {
          "newMerkleRoot": "The merkle root to assign to the new tier. Requirements:  - Caller must be an admin  - Tier must already be added to TellerNFT"
        }
      }
    },
    "version": 1
  },
  "userdoc": {
    "kind": "user",
    "methods": {
      "addTier(bytes32)": {
        "notice": "Adds a new tier to be able to claim NFTs."
      }
    },
    "version": 1
  },
  "storageLayout": {
    "storage": [],
    "types": null
  }
}