{
  "address": "0xb6B602eebfBb60F18e7397A6bA20773cD18CDe7f",
  "abi": [
    {
      "inputs": [
        {
          "internalType": "address",
          "name": "account",
          "type": "address"
        },
        {
          "components": [
            {
              "internalType": "uint256",
              "name": "merkleIndex",
              "type": "uint256"
            },
            {
              "internalType": "uint256",
              "name": "nodeIndex",
              "type": "uint256"
            },
            {
              "internalType": "uint256",
              "name": "amount",
              "type": "uint256"
            },
            {
              "internalType": "bytes32[]",
              "name": "merkleProof",
              "type": "bytes32[]"
            }
          ],
          "internalType": "struct ClaimNFTRequest[]",
          "name": "requests",
          "type": "tuple[]"
        }
      ],
      "name": "claim",
      "outputs": [],
      "stateMutability": "nonpayable",
      "type": "function"
    }
  ],
  "transactionHash": "0xacd8bbf6156eadeade66d543063d24db21115397de4006d54e0b6dea229883df",
  "args": [],
  "solcInputHash": "68d48f71bec0b49e50af9b5c8246eeb7",
  "bytecode": "0x608060405234801561001057600080fd5b5061088e806100206000396000f3fe608060405234801561001057600080fd5b506004361061002b5760003560e01c806389e2173314610030575b600080fd5b61004361003e36600461062f565b610045565b005b60005b818110156103a7576100c183838381811061007357634e487b7160e01b600052603260045260246000fd5b905060200281019061008591906106bd565b358484848181106100a657634e487b7160e01b600052603260045260246000fd5b90506020028101906100b891906106bd565b602001356103e1565b156101225760405162461bcd60e51b815260206004820152602660248201527f54656c6c65724e4654204469737472696275746f723a20616c726561647920636044820152651b185a5b595960d21b60648201526084015b60405180910390fd5b6101668484848481811061014657634e487b7160e01b600052603260045260246000fd5b905060200281019061015891906106bd565b61016190610721565b61044b565b6101be5760405162461bcd60e51b8152602060048201526024808201527f54656c6c65724e4654204469737472696275746f723a20696e76616c696420706044820152633937b7b360e11b6064820152608401610119565b61022f8383838181106101e157634e487b7160e01b600052603260045260246000fd5b90506020028101906101f391906106bd565b3584848481811061021457634e487b7160e01b600052603260045260246000fd5b905060200281019061022691906106bd565b6020013561050a565b60007fcf1e960f2172c22b0a7308b10d2fa40d0d089ee0367c8e6cb72a5803f164c36184848481811061027257634e487b7160e01b600052603260045260246000fd5b905060200281019061028491906106bd565b60000135815481106102a657634e487b7160e01b600052603260045260246000fd5b906000526020600020906002020160010154905060005b8484848181106102dd57634e487b7160e01b600052603260045260246000fd5b90506020028101906102ef91906106bd565b60400135811015610392577fcf1e960f2172c22b0a7308b10d2fa40d0d089ee0367c8e6cb72a5803f164c360546040516394bf804d60e01b8152600481018490526001600160a01b038881166024830152909116906394bf804d90604401600060405180830381600087803b15801561036757600080fd5b505af115801561037b573d6000803e3d6000fd5b50505050808061038a906107f1565b9150506102bd565b5050808061039f906107f1565b915050610048565b506040516001600160a01b038416907fb449c24d261a59627b537c8c41c57ab559f4205c56bea745ff61c5521bece21490600090a2505050565b6000806103f06101008461070d565b9050600061040061010085610818565b60009586527fcf1e960f2172c22b0a7308b10d2fa40d0d089ee0367c8e6cb72a5803f164c362602090815260408088209488529390529190942054600190911b908116149392505050565b6000610503826060015161047c7fcf1e960f2172c22b0a7308b10d2fa40d0d089ee0367c8e6cb72a5803f164c36090565b6001018460000151815481106104a257634e487b7160e01b600052603260045260246000fd5b600091825260209182902060029091020154858201516040808801518151948501929092526bffffffffffffffffffffffff1960608a901b169084015260548301529060740160405160208183030381529060405280519060200120610572565b9392505050565b60006105186101008361070d565b9050600061052861010084610818565b60009485527fcf1e960f2172c22b0a7308b10d2fa40d0d089ee0367c8e6cb72a5803f164c36260209081526040808720948752939052919093208054600190921b90911790555050565b600081815b85518110156106245760008682815181106105a257634e487b7160e01b600052603260045260246000fd5b602002602001015190508083116105e4576040805160208101859052908101829052606001604051602081830303815290604052805190602001209250610611565b60408051602081018390529081018490526060016040516020818303038152906040528051906020012092505b508061061c816107f1565b915050610577565b509092149392505050565b600080600060408486031215610643578283fd5b83356001600160a01b0381168114610659578384fd5b9250602084013567ffffffffffffffff80821115610675578384fd5b818601915086601f830112610688578384fd5b813581811115610696578485fd5b8760208260051b85010111156106aa578485fd5b6020830194508093505050509250925092565b60008235607e198336030181126106d2578182fd5b9190910192915050565b604051601f8201601f1916810167ffffffffffffffff8111828210171561070557610705610842565b604052919050565b60008261071c5761071c61082c565b500490565b600060808236031215610732578081fd5b61073c60806106dc565b823581526020808401358183015260408401356040830152606084013567ffffffffffffffff8082111561076e578485fd5b9085019036601f830112610780578485fd5b81358181111561079257610792610842565b8060051b91506107a38483016106dc565b8181528481019084860136858701880111156107bd578889fd5b8895505b838610156107df5780358352600195909501949186019186016107c1565b50606087015250939695505050505050565b600060001982141561081157634e487b7160e01b81526011600452602481fd5b5060010190565b6000826108275761082761082c565b500690565b634e487b7160e01b600052601260045260246000fd5b634e487b7160e01b600052604160045260246000fdfea2646970667358221220bb8062d81ac7034fc1c47b3c1aa708c5ae61ca5e5d5f92e0bc1b6d037fb6e50964736f6c63430008030033",
  "devdoc": {
    "kind": "dev",
    "methods": {
      "claim(address,(uint256,uint256,uint256,bytes32[])[])": {
        "params": {
          "account": "The address to claim NFTs on behalf.",
          "requests": "An array requests data generated from the merkle tree. Requirements:  - Node in the merkle root must not be claimed already  - Proof of the node must match the merkle tree"
        }
      }
    },
    "version": 1
  },
  "userdoc": {
    "kind": "user",
    "methods": {
      "claim(address,(uint256,uint256,uint256,bytes32[])[])": {
        "notice": "Claims TellerNFTs for a given verifiable merkle proofs for each tier."
      }
    },
    "version": 1
  },
  "storageLayout": {
    "storage": [],
    "types": null
  }
}