{
  "address": "0xBF899A31899DD789bDf1cf259D07d6B58e9CA603",
  "abi": [
    {
      "inputs": [
        {
          "internalType": "address",
          "name": "from",
          "type": "address"
        },
        {
          "internalType": "address",
          "name": "to",
          "type": "address"
        },
        {
          "internalType": "uint256",
          "name": "tokenId",
          "type": "uint256"
        }
      ],
      "name": "safeTransferFrom",
      "outputs": [],
      "stateMutability": "nonpayable",
      "type": "function"
    },
    {
      "inputs": [
        {
          "internalType": "address",
          "name": "from",
          "type": "address"
        },
        {
          "internalType": "address",
          "name": "to",
          "type": "address"
        },
        {
          "internalType": "uint256",
          "name": "tokenId",
          "type": "uint256"
        },
        {
          "internalType": "bytes",
          "name": "_data",
          "type": "bytes"
        }
      ],
      "name": "safeTransferFrom",
      "outputs": [],
      "stateMutability": "nonpayable",
      "type": "function"
    },
    {
      "inputs": [
        {
          "internalType": "address",
          "name": "from",
          "type": "address"
        },
        {
          "internalType": "address",
          "name": "to",
          "type": "address"
        },
        {
          "internalType": "uint256",
          "name": "tokenId",
          "type": "uint256"
        }
      ],
      "name": "transferFrom",
      "outputs": [],
      "stateMutability": "nonpayable",
      "type": "function"
    }
  ],
  "transactionHash": "0x109f8a361fe9e09a1566c1a10593ae8aec1bb9d32f29bf54ea65a6b568e0f1c4",
  "args": [],
  "solcInputHash": "5c6a9058c46611581868a70d5eba78f6",
  "bytecode": "0x608060405234801561001057600080fd5b50610945806100206000396000f3fe608060405234801561001057600080fd5b50600436106100415760003560e01c806323b872dd1461004657806342842e0e1461005b578063b88d4fde1461006e575b600080fd5b610059610054366004610691565b610081565b005b610059610069366004610691565b6100c0565b61005961007c3660046106cc565b6100db565b61008b3382610124565b6100b05760405162461bcd60e51b81526004016100a790610859565b60405180910390fd5b6100bb838383610256565b505050565b6100bb8383836040518060200160405280600081525061044e565b61011d85858585858080601f01602080910402602001604051908101604052809392919081815260200183838082843760009201919091525061044e92505050565b5050505050565b600061012f826104ad565b6101905760405162461bcd60e51b815260206004820152602c60248201527f4552433732313a206f70657261746f7220717565727920666f72206e6f6e657860448201526b34b9ba32b73a103a37b5b2b760a11b60648201526084016100a7565b60008281526000805160206108f083398151915260205260409020546001600160a01b039081169084168114806101ff575060008381527f1e91dbccf5488299bd4adcb044f4c3df902739c02f1f78276dd4194ac6a8d9a160205260409020546001600160a01b038581169116145b8061024e57506001600160a01b0381811660009081527f1e91dbccf5488299bd4adcb044f4c3df902739c02f1f78276dd4194ac6a8d9a2602090815260408083209388168352929052205460ff165b949350505050565b60008181526000805160206108f083398151915260205260409020546001600160a01b038481169116146102de5760405162461bcd60e51b815260206004820152602960248201527f4552433732313a207472616e73666572206f6620746f6b656e2074686174206960448201526839903737ba1037bbb760b91b60648201526084016100a7565b6001600160a01b0382166103405760405162461bcd60e51b8152602060048201526024808201527f4552433732313a207472616e7366657220746f20746865207a65726f206164646044820152637265737360e01b60648201526084016100a7565b61034b6000826104da565b6001600160a01b03831660009081527f1e91dbccf5488299bd4adcb044f4c3df902739c02f1f78276dd4194ac6a8d9a0602052604081208054600192906103939084906108c2565b90915550506001600160a01b03821660009081527f1e91dbccf5488299bd4adcb044f4c3df902739c02f1f78276dd4194ac6a8d9a0602052604081208054600192906103e09084906108aa565b909155505060008181526000805160206108f0833981519152602052604080822080546001600160a01b0319166001600160a01b0386811691821790925591518493918716917fddf252ad1be2c89b69c2b068fc378daa952ba7f163c4a11628f55a4df523b3ef91a4505050565b6104583383610124565b6104745760405162461bcd60e51b81526004016100a790610859565b61047f848484610256565b61048b8484848461056d565b6104a75760405162461bcd60e51b81526004016100a790610807565b50505050565b60008181526000805160206108f083398151915260205260409020546001600160a01b031615155b919050565b60008181527f1e91dbccf5488299bd4adcb044f4c3df902739c02f1f78276dd4194ac6a8d9a16020908152604080832080546001600160a01b0319166001600160a01b038781169182179092556000805160206108f0833981519152909352818420549151859492909116917f8c5be1e5ebec7d5bd14f71427d1e84f3dd0314c0f7b2291e5b200ac8c7c3b92591a45050565b60006001600160a01b0384163b1561066f57604051630a85bd0160e11b81526001600160a01b0385169063150b7a02906105b1903390899088908890600401610791565b602060405180830381600087803b1580156105cb57600080fd5b505af19250505080156105fb575060408051601f3d908101601f191682019092526105f891810190610762565b60015b610655573d808015610629576040519150601f19603f3d011682016040523d82523d6000602084013e61062e565b606091505b50805161064d5760405162461bcd60e51b81526004016100a790610807565b805181602001fd5b6001600160e01b031916630a85bd0160e11b14905061024e565b506001949350505050565b80356001600160a01b03811681146104d557600080fd5b6000806000606084860312156106a5578283fd5b6106ae8461067a565b92506106bc6020850161067a565b9150604084013590509250925092565b6000806000806000608086880312156106e3578081fd5b6106ec8661067a565b94506106fa6020870161067a565b935060408601359250606086013567ffffffffffffffff8082111561071d578283fd5b818801915088601f830112610730578283fd5b81358181111561073e578384fd5b89602082850101111561074f578384fd5b9699959850939650602001949392505050565b600060208284031215610773578081fd5b81516001600160e01b03198116811461078a578182fd5b9392505050565b600060018060a01b0380871683526020818716818501528560408501526080606085015284519150816080850152825b828110156107dd5785810182015185820160a0015281016107c1565b828111156107ee578360a084870101525b5050601f01601f19169190910160a00195945050505050565b60208082526032908201527f4552433732313a207472616e7366657220746f206e6f6e20455243373231526560408201527131b2b4bb32b91034b6b83632b6b2b73a32b960711b606082015260800190565b60208082526031908201527f4552433732313a207472616e736665722063616c6c6572206973206e6f74206f6040820152701ddb995c881b9bdc88185c1c1c9bdd9959607a1b606082015260800190565b600082198211156108bd576108bd6108d9565b500190565b6000828210156108d4576108d46108d9565b500390565b634e487b7160e01b600052601160045260246000fdfe1e91dbccf5488299bd4adcb044f4c3df902739c02f1f78276dd4194ac6a8d99fa26469706673582212208954f34888439c1f1c5ec44f2e7211c1981377511234f29603ae4054ee5fdc8864736f6c63430008030033",
  "devdoc": {
    "kind": "dev",
    "methods": {
      "safeTransferFrom(address,address,uint256)": {
        "details": "See {IERC721-safeTransferFrom}."
      },
      "safeTransferFrom(address,address,uint256,bytes)": {
        "details": "See {IERC721-safeTransferFrom}."
      },
      "transferFrom(address,address,uint256)": {
        "details": "See {IERC721-transferFrom}."
      }
    },
    "version": 1
  },
  "userdoc": {
    "kind": "user",
    "methods": {},
    "version": 1
  },
  "storageLayout": {
    "storage": [],
    "types": null
  }
}