{
  "address": "0x98c73B979EfABB55042d3DF2fc1ed84a66930fA0",
  "abi": [
    {
      "inputs": [
        {
          "internalType": "uint256",
          "name": "tierIndex",
          "type": "uint256"
        },
        {
          "internalType": "address",
          "name": "owner",
          "type": "address"
        }
      ],
      "name": "mint",
      "outputs": [],
      "stateMutability": "nonpayable",
      "type": "function"
    }
  ],
  "transactionHash": "0xc93a896caf404ed224ff33df512215b56d86fac68c420e770cbbe3cfdbc49871",
  "args": [],
  "solcInputHash": "5c6a9058c46611581868a70d5eba78f6",
  "bytecode": "0x608060405234801561001057600080fd5b5061087f806100206000396000f3fe608060405234801561001057600080fd5b506004361061002b5760003560e01c806394bf804d14610030575b600080fd5b61004361003e366004610702565b610045565b005b7ff0887ba65ee2024ea881d91b74c2450ef19e1557f03bed3ea9f16b037cbe2dc93361007182826100e6565b7f0a84207e1143ff19b71979feb4ec3b9e9ab20a9f584206f464503fa07b113fc28054600181019091556100a58482610180565b60008181527f0a84207e1143ff19b71979feb4ec3b9e9ab20a9f584206f464503fa07b113fc4602052604090208590556100df848261019a565b5050505050565b60008281527f337c29a31b05a860fb532911919dbe85ab303a7465176333f1deb496e9fdd19e602090815260408083206001600160a01b038516845290915290205460ff1661017c5760405162461bcd60e51b815260206004820152601b60248201527f416363657373436f6e74726f6c3a20756e617574686f72697a6564000000000060448201526064015b60405180910390fd5b5050565b61017c828260405180602001604052806000815250610261565b60008181527f1e91dbccf5488299bd4adcb044f4c3df902739c02f1f78276dd4194ac6a8d99f60205260409020546001600160a01b0316801561021a576001600160a01b03811660009081527f7d831add1cfdac9c9a7c42498fe0e1d396f2a23a5826619aec75af6873a58884602052604090206102189083610299565b505b6001600160a01b03831660009081527f7d831add1cfdac9c9a7c42498fe0e1d396f2a23a5826619aec75af6873a588846020526040902061025b90836102ae565b50505050565b61026b83836102ba565b6102786000848484610459565b6102945760405162461bcd60e51b8152600401610173906107b2565b505050565b60006102a58383610567565b90505b92915050565b60006102a58383610684565b6001600160a01b0382166103105760405162461bcd60e51b815260206004820181905260248201527f4552433732313a206d696e7420746f20746865207a65726f20616464726573736044820152606401610173565b60008181527f1e91dbccf5488299bd4adcb044f4c3df902739c02f1f78276dd4194ac6a8d99f60205260409020546001600160a01b0316156103945760405162461bcd60e51b815260206004820152601c60248201527f4552433732313a20746f6b656e20616c7265616479206d696e746564000000006044820152606401610173565b6001600160a01b03821660009081527f1e91dbccf5488299bd4adcb044f4c3df902739c02f1f78276dd4194ac6a8d9a0602052604081208054600192906103dc908490610804565b909155505060008181527f1e91dbccf5488299bd4adcb044f4c3df902739c02f1f78276dd4194ac6a8d99f602052604080822080546001600160a01b0319166001600160a01b03861690811790915590518392907fddf252ad1be2c89b69c2b068fc378daa952ba7f163c4a11628f55a4df523b3ef908290a45050565b60006001600160a01b0384163b1561055b57604051630a85bd0160e11b81526001600160a01b0385169063150b7a029061049d90339089908890889060040161073c565b602060405180830381600087803b1580156104b757600080fd5b505af19250505080156104e7575060408051601f3d908101601f191682019092526104e4918101906106d3565b60015b610541573d808015610515576040519150601f19603f3d011682016040523d82523d6000602084013e61051a565b606091505b5080516105395760405162461bcd60e51b8152600401610173906107b2565b805181602001fd5b6001600160e01b031916630a85bd0160e11b14905061055f565b5060015b949350505050565b6000818152600183016020526040812054801561067a57600061058b60018361081c565b855490915060009061059f9060019061081c565b905060008660000182815481106105c657634e487b7160e01b600052603260045260246000fd5b90600052602060002001549050808760000184815481106105f757634e487b7160e01b600052603260045260246000fd5b60009182526020909120015561060e836001610804565b6000828152600189016020526040902055865487908061063e57634e487b7160e01b600052603160045260246000fd5b600190038181906000526020600020016000905590558660010160008781526020019081526020016000206000905560019450505050506102a8565b60009150506102a8565b60008181526001830160205260408120546106cb575081546001818101845560008481526020808220909301849055845484825282860190935260409020919091556102a8565b5060006102a8565b6000602082840312156106e4578081fd5b81516001600160e01b0319811681146106fb578182fd5b9392505050565b60008060408385031215610714578081fd5b8235915060208301356001600160a01b0381168114610731578182fd5b809150509250929050565b600060018060a01b0380871683526020818716818501528560408501526080606085015284519150816080850152825b828110156107885785810182015185820160a00152810161076c565b82811115610799578360a084870101525b5050601f01601f19169190910160a00195945050505050565b60208082526032908201527f4552433732313a207472616e7366657220746f206e6f6e20455243373231526560408201527131b2b4bb32b91034b6b83632b6b2b73a32b960711b606082015260800190565b6000821982111561081757610817610833565b500190565b60008282101561082e5761082e610833565b500390565b634e487b7160e01b600052601160045260246000fdfea2646970667358221220cc7468210889b0704030a25e4910adedda84fb617eb22cfb24069be49b51abe764736f6c63430008030033",
  "devdoc": {
    "kind": "dev",
    "methods": {},
    "version": 1
  },
  "userdoc": {
    "kind": "user",
    "methods": {
      "mint(uint256,address)": {
        "notice": "It mints a new token for a Tier index. Requirements:  - Caller must be an authorized minter"
      }
    },
    "version": 1
  },
  "storageLayout": {
    "storage": [],
    "types": null
  }
}