{
  "address": "0x2978e90bE88B589B296641Ad5406B2a5f98B72df",
  "abi": [
    {
      "inputs": [
        {
          "internalType": "address",
          "name": "to",
          "type": "address"
        },
        {
          "internalType": "uint256",
          "name": "tokenId",
          "type": "uint256"
        }
      ],
      "name": "approve",
      "outputs": [],
      "stateMutability": "nonpayable",
      "type": "function"
    },
    {
      "inputs": [
        {
          "internalType": "address",
          "name": "operator",
          "type": "address"
        },
        {
          "internalType": "bool",
          "name": "approved",
          "type": "bool"
        }
      ],
      "name": "setApprovalForAll",
      "outputs": [],
      "stateMutability": "nonpayable",
      "type": "function"
    }
  ],
  "transactionHash": "0x02ed6eea9c1cfa9e893f39c3f65ab98fee8b582a544ce6a739bdcb89078fdbc6",
  "args": [],
  "solcInputHash": "5c6a9058c46611581868a70d5eba78f6",
  "bytecode": "0x608060405234801561001057600080fd5b50610423806100206000396000f3fe608060405234801561001057600080fd5b50600436106100365760003560e01c8063095ea7b31461003b578063a22cb46514610050575b600080fd5b61004e6100493660046103c4565b610063565b005b61004e61005e36600461038a565b6101d7565b60008181527f1e91dbccf5488299bd4adcb044f4c3df902739c02f1f78276dd4194ac6a8d99f60205260409020546001600160a01b039081169083168114156100fd5760405162461bcd60e51b815260206004820152602160248201527f4552433732313a20617070726f76616c20746f2063757272656e74206f776e656044820152603960f91b60648201526084015b60405180910390fd5b336001600160a01b038216148061015657506001600160a01b03811660009081527f1e91dbccf5488299bd4adcb044f4c3df902739c02f1f78276dd4194ac6a8d9a26020908152604080832033845290915290205460ff165b6101c85760405162461bcd60e51b815260206004820152603860248201527f4552433732313a20617070726f76652063616c6c6572206973206e6f74206f7760448201527f6e6572206e6f7220617070726f76656420666f7220616c6c000000000000000060648201526084016100f4565b6101d2838361023e565b505050565b6001600160a01b0382163314156102305760405162461bcd60e51b815260206004820152601960248201527f4552433732313a20617070726f766520746f2063616c6c65720000000000000060448201526064016100f4565b61023a82826102e3565b5050565b60008181527f1e91dbccf5488299bd4adcb044f4c3df902739c02f1f78276dd4194ac6a8d9a16020908152604080832080546001600160a01b0319166001600160a01b038781169182179092557f1e91dbccf5488299bd4adcb044f4c3df902739c02f1f78276dd4194ac6a8d99f909352818420549151859492909116917f8c5be1e5ebec7d5bd14f71427d1e84f3dd0314c0f7b2291e5b200ac8c7c3b92591a45050565b3360008181527f1e91dbccf5488299bd4adcb044f4c3df902739c02f1f78276dd4194ac6a8d9a2602090815260408083206001600160a01b03871680855290835292819020805460ff191686151590811790915590519081529192917f17307eab39ab6107e8899845ad3d59bd9653f200f220920489ca2b5937696c31910160405180910390a35050565b80356001600160a01b038116811461038557600080fd5b919050565b6000806040838503121561039c578182fd5b6103a58361036e565b9150602083013580151581146103b9578182fd5b809150509250929050565b600080604083850312156103d6578182fd5b6103df8361036e565b94602093909301359350505056fea26469706673582212201a5a9644ec42d6fd9bb21f75c63fe71d56be50956462d28b5d79505836456a5564736f6c63430008030033",
  "devdoc": {
    "kind": "dev",
    "methods": {
      "approve(address,uint256)": {
        "details": "See {IERC721-approve}."
      },
      "setApprovalForAll(address,bool)": {
        "details": "See {IERC721-setApprovalForAll}."
      }
    },
    "version": 1
  },
  "userdoc": {
    "kind": "user",
    "methods": {},
    "version": 1
  },
  "storageLayout": {
    "storage": [],
    "types": null
  }
}