{
  "address": "0x6212f3bd11957efeA76d4bF21a3B9B70b467E5DE",
  "abi": [
    {
      "inputs": [
        {
          "internalType": "uint256",
          "name": "tierIndex",
          "type": "uint256"
        },
        {
          "internalType": "bytes32",
          "name": "merkleRoot",
          "type": "bytes32"
        }
      ],
      "name": "addMerkle",
      "outputs": [],
      "stateMutability": "nonpayable",
      "type": "function"
    }
  ],
  "transactionHash": "0x8ebc8b25f858fd0c42a6e00e904a7f9f9e9a1bd8557fee6d628ec7eec33c8d2b",
  "args": [],
  "solcInputHash": "68d48f71bec0b49e50af9b5c8246eeb7",
  "bytecode": "0x608060405234801561001057600080fd5b50610248806100206000396000f3fe608060405234801561001057600080fd5b506004361061002b5760003560e01c806398fa2abf14610030575b600080fd5b61004361003e3660046101ce565b610045565b005b7fdf8b4c520ffe197c5343c6f5aec59570151ef9a492f2c624fd45ddde6135ec42336100718282610135565b7fcf1e960f2172c22b0a7308b10d2fa40d0d089ee0367c8e6cb72a5803f164c361805460018082018355600083905260029091027fb9fa352bc973ec2d8453aa141171c316a3808e25ed4edf76f3674c4a7b18977881018790557fb9fa352bc973ec2d8453aa141171c316a3808e25ed4edf76f3674c4a7b1897770185815591547ff670e7d62789fc7ea11733fd5bc314d1f0f2000089c979a679949b37b03d4c8d9161011d916101ef565b60405190815260200160405180910390a15050505050565b60008281527f337c29a31b05a860fb532911919dbe85ab303a7465176333f1deb496e9fdd19e602090815260408083206001600160a01b038516845290915290205460ff166101ca5760405162461bcd60e51b815260206004820152601b60248201527f416363657373436f6e74726f6c3a20756e617574686f72697a65640000000000604482015260640160405180910390fd5b5050565b600080604083850312156101e0578182fd5b50508035926020909101359150565b60008282101561020d57634e487b7160e01b81526011600452602481fd5b50039056fea264697066735822122001400d967b09d54d7e140554097f212bd533ab186bada897d0c5408ac9b8499864736f6c63430008030033",
  "devdoc": {
    "kind": "dev",
    "methods": {
      "addMerkle(uint256,bytes32)": {
        "params": {
          "merkleRoot": "The merkle root to assign to the new tier. Requirements:  - Caller must be an admin",
          "tierIndex": "Index of NFT tier to assign merkle for."
        }
      }
    },
    "version": 1
  },
  "userdoc": {
    "kind": "user",
    "methods": {
      "addMerkle(uint256,bytes32)": {
        "notice": "Adds a new merkle to be able to claim NFTs."
      }
    },
    "version": 1
  },
  "storageLayout": {
    "storage": [],
    "types": null
  }
}