{
  "address": "0xb7F9b3E67D8cE32342Ace6B975F3c44EB716Ffaf",
  "abi": [
    {
      "inputs": [
        {
          "internalType": "string",
          "name": "contractURI",
          "type": "string"
        }
      ],
      "name": "setContractURI",
      "outputs": [],
      "stateMutability": "nonpayable",
      "type": "function"
    }
  ],
  "transactionHash": "0x85715a0309ea5a225c95508593db924a49cbbb199eb558f213c89ddb1cc71e4f",
  "args": [],
  "solcInputHash": "7dfea193bf8d74dddd4fadb38960c81e",
  "bytecode": "0x608060405234801561001057600080fd5b5061030f806100206000396000f3fe608060405234801561001057600080fd5b506004361061002b5760003560e01c8063938e3d7b14610030575b600080fd5b61004361003e3660046101de565b610045565b005b7fdf8b4c520ffe197c5343c6f5aec59570151ef9a492f2c624fd45ddde6135ec4233610071828261007f565b61007a83610118565b505050565b60008281527f337c29a31b05a860fb532911919dbe85ab303a7465176333f1deb496e9fdd19e602090815260408083206001600160a01b038516845290915290205460ff166101145760405162461bcd60e51b815260206004820152601b60248201527f416363657373436f6e74726f6c3a20756e617574686f72697a65640000000000604482015260640160405180910390fd5b5050565b8051610114907f7d831add1cfdac9c9a7c42498fe0e1d396f2a23a5826619aec75af6873a5888590602084019082805461015190610288565b90600052602060002090601f01602090048101928261017357600085556101b9565b82601f1061018c57805160ff19168380011785556101b9565b828001600101855582156101b9579182015b828111156101b957825182559160200191906001019061019e565b506101c59291506101c9565b5090565b5b808211156101c557600081556001016101ca565b6000602082840312156101ef578081fd5b813567ffffffffffffffff80821115610206578283fd5b818401915084601f830112610219578283fd5b81358181111561022b5761022b6102c3565b604051601f8201601f19908116603f01168101908382118183101715610253576102536102c3565b8160405282815287602084870101111561026b578586fd5b826020860160208301379182016020019490945295945050505050565b600181811c9082168061029c57607f821691505b602082108114156102bd57634e487b7160e01b600052602260045260246000fd5b50919050565b634e487b7160e01b600052604160045260246000fdfea2646970667358221220e2912232f5361ac0a2700822f33622b8bdd81b569108534af95ad66f3d69f16a64736f6c63430008030033",
  "devdoc": {
    "kind": "dev",
    "methods": {
      "setContractURI(string)": {
        "params": {
          "contractURI": "The link to the initial contract level metadata."
        }
      }
    },
    "version": 1
  },
  "userdoc": {
    "kind": "user",
    "methods": {
      "setContractURI(string)": {
        "notice": "Sets the contract level metadata URI."
      }
    },
    "version": 1
  },
  "storageLayout": {
    "storage": [],
    "types": null
  }
}