{
  "address": "0x1F3F1C521d8a28867271421E996721A7B7BA1B36",
  "abi": [
    {
      "anonymous": false,
      "inputs": [
        {
          "indexed": true,
          "internalType": "address",
          "name": "owner",
          "type": "address"
        }
      ],
      "name": "OwnerSet",
      "type": "event"
    },
    {
      "anonymous": false,
      "inputs": [
        {
          "indexed": true,
          "internalType": "address",
          "name": "owner",
          "type": "address"
        },
        {
          "indexed": true,
          "internalType": "address",
          "name": "prevOwner",
          "type": "address"
        }
      ],
      "name": "OwnerTransferred",
      "type": "event"
    },
    {
      "anonymous": false,
      "inputs": [
        {
          "indexed": true,
          "internalType": "bytes32",
          "name": "role",
          "type": "bytes32"
        },
        {
          "indexed": true,
          "internalType": "bytes32",
          "name": "previousAdminRole",
          "type": "bytes32"
        },
        {
          "indexed": true,
          "internalType": "bytes32",
          "name": "newAdminRole",
          "type": "bytes32"
        }
      ],
      "name": "RoleAdminChanged",
      "type": "event"
    },
    {
      "anonymous": false,
      "inputs": [
        {
          "indexed": true,
          "internalType": "bytes32",
          "name": "role",
          "type": "bytes32"
        },
        {
          "indexed": true,
          "internalType": "address",
          "name": "account",
          "type": "address"
        },
        {
          "indexed": true,
          "internalType": "address",
          "name": "sender",
          "type": "address"
        }
      ],
      "name": "RoleGranted",
      "type": "event"
    },
    {
      "anonymous": false,
      "inputs": [
        {
          "indexed": true,
          "internalType": "bytes32",
          "name": "role",
          "type": "bytes32"
        },
        {
          "indexed": true,
          "internalType": "address",
          "name": "account",
          "type": "address"
        },
        {
          "indexed": true,
          "internalType": "address",
          "name": "sender",
          "type": "address"
        }
      ],
      "name": "RoleRevoked",
      "type": "event"
    },
    {
      "inputs": [],
      "name": "DEFAULT_ADMIN_ROLE",
      "outputs": [
        {
          "internalType": "bytes32",
          "name": "",
          "type": "bytes32"
        }
      ],
      "stateMutability": "view",
      "type": "function"
    },
    {
      "inputs": [
        {
          "internalType": "address[]",
          "name": "minters",
          "type": "address[]"
        },
        {
          "internalType": "string",
          "name": "_contractURI",
          "type": "string"
        }
      ],
      "name": "initialize",
      "outputs": [],
      "stateMutability": "nonpayable",
      "type": "function"
    }
  ],
  "transactionHash": "0x9c8f648589973d851958add38f5727a5cf969fd5cb7f5ea3ef5d1f1261e04b27",
  "args": [],
  "solcInputHash": "7dfea193bf8d74dddd4fadb38960c81e",
  "bytecode": "0x608060405234801561001057600080fd5b506105ce806100206000396000f3fe608060405234801561001057600080fd5b50600436106100365760003560e01c80633233efe51461003b578063a217fddf14610050575b600080fd5b61004e610049366004610420565b61006a565b005b610058600081565b60405190815260200160405180910390f35b6100726101ee565b5460ff16156100c75760405162461bcd60e51b815260206004820152601b60248201527f54656c6c65723a20616c726561647920696e697469616c697a65640000000000604482015260640160405180910390fd5b60408051808201909152600a81526915195b1b195c8813919560b21b60208201527f1e91dbccf5488299bd4adcb044f4c3df902739c02f1f78276dd4194ac6a8d99d81516101189260200190610359565b50604080518082019091526004808252631513919560e21b6020909201918252610163917f1e91dbccf5488299bd4adcb044f4c3df902739c02f1f78276dd4194ac6a8d99e91610359565b5060005b828110156101df576101cd7ff0887ba65ee2024ea881d91b74c2450ef19e1557f03bed3ea9f16b037cbe2dc98585848181106101b357634e487b7160e01b600052603260045260246000fd5b90506020020160208101906101c891906103f2565b610261565b806101d78161055b565b915050610167565b506101e98161032b565b505050565b6000806040516020016102439060208082526028908201527f74656c6c65725f70726f746f636f6c2e636f6e746578742e696e697469616c696040820152677a61626c652e763160c01b606082015260800190565b60408051601f19818403018152919052805160209091012092915050565b60008281527f337c29a31b05a860fb532911919dbe85ab303a7465176333f1deb496e9fdd19e602090815260408083206001600160a01b038516845290915290205460ff16156102b057610327565b60008281527f337c29a31b05a860fb532911919dbe85ab303a7465176333f1deb496e9fdd19e602090815260408083206001600160a01b0385168085529252808320805460ff1916600117905551339285917f2f8788117e7eff1d82e926ec794901d17c78024a50270940304540a733656f0d9190a45b5050565b8051610327907f7d831add1cfdac9c9a7c42498fe0e1d396f2a23a5826619aec75af6873a588859060208401905b82805461036590610520565b90600052602060002090601f01602090048101928261038757600085556103cd565b82601f106103a057805160ff19168380011785556103cd565b828001600101855582156103cd579182015b828111156103cd5782518255916020019190600101906103b2565b506103d99291506103dd565b5090565b5b808211156103d957600081556001016103de565b600060208284031215610403578081fd5b81356001600160a01b0381168114610419578182fd5b9392505050565b600080600060408486031215610434578182fd5b833567ffffffffffffffff8082111561044b578384fd5b818601915086601f83011261045e578384fd5b81358181111561046c578485fd5b602088818360051b8601011115610481578586fd5b80840196508195508088013593508284111561049b578485fd5b838801935088601f8501126104ae578485fd5b83359150828211156104c2576104c2610582565b604051601f8301601f19908116603f011681019084821181831017156104ea576104ea610582565b816040528381528a83858801011115610501578687fd5b8383870184830137868385830101528096505050505050509250925092565b600181811c9082168061053457607f821691505b6020821081141561055557634e487b7160e01b600052602260045260246000fd5b50919050565b600060001982141561057b57634e487b7160e01b81526011600452602481fd5b5060010190565b634e487b7160e01b600052604160045260246000fdfea26469706673582212206d9c36a2712dcda928402b6aa1227c0aad26936b8fe39fe2230460b1ceac4d0d64736f6c63430008030033",
  "devdoc": {
    "kind": "dev",
    "methods": {
      "initialize(address[],string)": {
        "params": {
          "_contractURI": "The link to the initial contract level metadata.",
          "minters": "The addresses that should allowed to mint tokens."
        }
      }
    },
    "version": 1
  },
  "userdoc": {
    "kind": "user",
    "methods": {
      "initialize(address[],string)": {
        "notice": "Initializes the TellerNFT."
      }
    },
    "version": 1
  },
  "storageLayout": {
    "storage": [],
    "types": null
  }
}