{
  "address": "0xBf7E488835DB111d516544C415d37F173Fc00c96",
  "abi": [
    {
      "anonymous": false,
      "inputs": [
        {
          "indexed": true,
          "internalType": "address",
          "name": "owner",
          "type": "address"
        }
      ],
      "name": "OwnerSet",
      "type": "event"
    },
    {
      "anonymous": false,
      "inputs": [
        {
          "indexed": true,
          "internalType": "address",
          "name": "owner",
          "type": "address"
        },
        {
          "indexed": true,
          "internalType": "address",
          "name": "prevOwner",
          "type": "address"
        }
      ],
      "name": "OwnerTransferred",
      "type": "event"
    },
    {
      "anonymous": false,
      "inputs": [
        {
          "indexed": true,
          "internalType": "bytes32",
          "name": "role",
          "type": "bytes32"
        },
        {
          "indexed": true,
          "internalType": "bytes32",
          "name": "previousAdminRole",
          "type": "bytes32"
        },
        {
          "indexed": true,
          "internalType": "bytes32",
          "name": "newAdminRole",
          "type": "bytes32"
        }
      ],
      "name": "RoleAdminChanged",
      "type": "event"
    },
    {
      "anonymous": false,
      "inputs": [
        {
          "indexed": true,
          "internalType": "bytes32",
          "name": "role",
          "type": "bytes32"
        },
        {
          "indexed": true,
          "internalType": "address",
          "name": "account",
          "type": "address"
        },
        {
          "indexed": true,
          "internalType": "address",
          "name": "sender",
          "type": "address"
        }
      ],
      "name": "RoleGranted",
      "type": "event"
    },
    {
      "anonymous": false,
      "inputs": [
        {
          "indexed": true,
          "internalType": "bytes32",
          "name": "role",
          "type": "bytes32"
        },
        {
          "indexed": true,
          "internalType": "address",
          "name": "account",
          "type": "address"
        },
        {
          "indexed": true,
          "internalType": "address",
          "name": "sender",
          "type": "address"
        }
      ],
      "name": "RoleRevoked",
      "type": "event"
    },
    {
      "inputs": [],
      "name": "DEFAULT_ADMIN_ROLE",
      "outputs": [
        {
          "internalType": "bytes32",
          "name": "",
          "type": "bytes32"
        }
      ],
      "stateMutability": "view",
      "type": "function"
    },
    {
      "inputs": [
        {
          "internalType": "address[]",
          "name": "minters",
          "type": "address[]"
        }
      ],
      "name": "initialize",
      "outputs": [],
      "stateMutability": "nonpayable",
      "type": "function"
    }
  ],
  "transactionHash": "0x5677d0e82bec45f48919d2a52174de4750c5561fdf29bf05793e2e43c4fa095b",
  "args": [],
  "solcInputHash": "7e129727dcb3b47e20291ca868c9b416",
  "bytecode": "0x608060405234801561001057600080fd5b506104f0806100206000396000f3fe608060405234801561001057600080fd5b50600436106100365760003560e01c8063a217fddf1461003b578063a224cee714610055575b600080fd5b610043600081565b60405190815260200160405180910390f35b6100686100633660046103e8565b61006a565b005b6100726101e4565b5460ff16156100c75760405162461bcd60e51b815260206004820152601b60248201527f54656c6c65723a20616c726561647920696e697469616c697a65640000000000604482015260640160405180910390fd5b60408051808201909152600a81526915195b1b195c8813919560b21b60208201527f1e91dbccf5488299bd4adcb044f4c3df902739c02f1f78276dd4194ac6a8d99d81516101189260200190610321565b50604080518082019091526004808252631513919560e21b6020909201918252610163917f1e91dbccf5488299bd4adcb044f4c3df902739c02f1f78276dd4194ac6a8d99e91610321565b5060005b818110156101df576101cd7ff0887ba65ee2024ea881d91b74c2450ef19e1557f03bed3ea9f16b037cbe2dc98484848181106101b357634e487b7160e01b600052603260045260246000fd5b90506020020160208101906101c891906103ba565b610257565b806101d781610493565b915050610167565b505050565b6000806040516020016102399060208082526028908201527f74656c6c65725f70726f746f636f6c2e636f6e746578742e696e697469616c696040820152677a61626c652e763160c01b606082015260800190565b60408051601f19818403018152919052805160209091012092915050565b60008281527f337c29a31b05a860fb532911919dbe85ab303a7465176333f1deb496e9fdd19e602090815260408083206001600160a01b038516845290915290205460ff16156102a65761031d565b60008281527f337c29a31b05a860fb532911919dbe85ab303a7465176333f1deb496e9fdd19e602090815260408083206001600160a01b0385168085529252808320805460ff1916600117905551339285917f2f8788117e7eff1d82e926ec794901d17c78024a50270940304540a733656f0d9190a45b5050565b82805461032d90610458565b90600052602060002090601f01602090048101928261034f5760008555610395565b82601f1061036857805160ff1916838001178555610395565b82800160010185558215610395579182015b8281111561039557825182559160200191906001019061037a565b506103a19291506103a5565b5090565b5b808211156103a157600081556001016103a6565b6000602082840312156103cb578081fd5b81356001600160a01b03811681146103e1578182fd5b9392505050565b600080602083850312156103fa578081fd5b823567ffffffffffffffff80821115610411578283fd5b818501915085601f830112610424578283fd5b813581811115610432578384fd5b8660208260051b8501011115610446578384fd5b60209290920196919550909350505050565b600181811c9082168061046c57607f821691505b6020821081141561048d57634e487b7160e01b600052602260045260246000fd5b50919050565b60006000198214156104b357634e487b7160e01b81526011600452602481fd5b506001019056fea264697066735822122027013e56fc3165b7eac72c42cdc08be2403264fb8ae4317e39a9442fc7745ecf64736f6c63430008030033",
  "devdoc": {
    "kind": "dev",
    "methods": {
      "initialize(address[])": {
        "params": {
          "minters": "The addresses that should allowed to mint tokens."
        }
      }
    },
    "version": 1
  },
  "userdoc": {
    "kind": "user",
    "methods": {
      "initialize(address[])": {
        "notice": "Initializes the TellerNFT."
      }
    },
    "version": 1
  },
  "storageLayout": {
    "storage": [],
    "types": null
  }
}