{
  "address": "0x2635D7d7b7A99A5EFB24957d9eBC4359D77D240C",
  "abi": [
    {
      "inputs": [
        {
          "internalType": "address",
          "name": "account",
          "type": "address"
        },
        {
          "components": [
            {
              "internalType": "uint256",
              "name": "merkleIndex",
              "type": "uint256"
            },
            {
              "internalType": "uint256",
              "name": "nodeIndex",
              "type": "uint256"
            },
            {
              "internalType": "uint256",
              "name": "amount",
              "type": "uint256"
            },
            {
              "internalType": "bytes32[]",
              "name": "merkleProof",
              "type": "bytes32[]"
            }
          ],
          "internalType": "struct ClaimNFTRequest[]",
          "name": "requests",
          "type": "tuple[]"
        }
      ],
      "name": "claim",
      "outputs": [],
      "stateMutability": "nonpayable",
      "type": "function"
    }
  ],
  "transactionHash": "0x4844edac57794c0375b39da1c02f3e0f45b592458915f2c086e75737234f0ab6",
  "args": [],
  "solcInputHash": "4d710f7f8d3b1eb4b82dcadd299b0e8f",
  "bytecode": "0x608060405234801561001057600080fd5b50610842806100206000396000f3fe608060405234801561001057600080fd5b506004361061002b5760003560e01c806389e2173314610030575b600080fd5b61004361003e3660046105e3565b610045565b005b60005b81811015610356576100c183838381811061007357634e487b7160e01b600052603260045260246000fd5b90506020028101906100859190610671565b358484848181106100a657634e487b7160e01b600052603260045260246000fd5b90506020028101906100b89190610671565b60200135610390565b156101225760405162461bcd60e51b815260206004820152602660248201527f54656c6c65724e4654204469737472696275746f723a20616c726561647920636044820152651b185a5b595960d21b60648201526084015b60405180910390fd5b6101668484848481811061014657634e487b7160e01b600052603260045260246000fd5b90506020028101906101589190610671565b610161906106d5565b6103fa565b6101be5760405162461bcd60e51b8152602060048201526024808201527f54656c6c65724e4654204469737472696275746f723a20696e76616c696420706044820152633937b7b360e11b6064820152608401610119565b61022f8383838181106101e157634e487b7160e01b600052603260045260246000fd5b90506020028101906101f39190610671565b3584848481811061021457634e487b7160e01b600052603260045260246000fd5b90506020028101906102269190610671565b602001356104be565b60005b83838381811061025257634e487b7160e01b600052603260045260246000fd5b90506020028101906102649190610671565b60400135811015610343577fcf1e960f2172c22b0a7308b10d2fa40d0d089ee0367c8e6cb72a5803f164c360546001600160a01b03166394bf804d8585858181106102bf57634e487b7160e01b600052603260045260246000fd5b90506020028101906102d19190610671565b60405160e083901b6001600160e01b0319168152903560048201526001600160a01b0388166024820152604401600060405180830381600087803b15801561031857600080fd5b505af115801561032c573d6000803e3d6000fd5b50505050808061033b906107a5565b915050610232565b508061034e816107a5565b915050610048565b506040516001600160a01b038416907fb449c24d261a59627b537c8c41c57ab559f4205c56bea745ff61c5521bece21490600090a2505050565b60008061039f610100846106c1565b905060006103af610100856107cc565b60009586527fcf1e960f2172c22b0a7308b10d2fa40d0d089ee0367c8e6cb72a5803f164c362602090815260408088209488529390529190942054600190911b908116149392505050565b60006104b7826060015161042b7fcf1e960f2172c22b0a7308b10d2fa40d0d089ee0367c8e6cb72a5803f164c36090565b60010184600001518154811061045157634e487b7160e01b600052603260045260246000fd5b9060005260206000200154846020015186866040015160405160200161049c9392919092835260609190911b6bffffffffffffffffffffffff19166020830152603482015260540190565b60405160208183030381529060405280519060200120610526565b9392505050565b60006104cc610100836106c1565b905060006104dc610100846107cc565b60009485527fcf1e960f2172c22b0a7308b10d2fa40d0d089ee0367c8e6cb72a5803f164c36260209081526040808720948752939052919093208054600190921b90911790555050565b600081815b85518110156105d857600086828151811061055657634e487b7160e01b600052603260045260246000fd5b602002602001015190508083116105985760408051602081018590529081018290526060016040516020818303038152906040528051906020012092506105c5565b60408051602081018390529081018490526060016040516020818303038152906040528051906020012092505b50806105d0816107a5565b91505061052b565b509092149392505050565b6000806000604084860312156105f7578283fd5b83356001600160a01b038116811461060d578384fd5b9250602084013567ffffffffffffffff80821115610629578384fd5b818601915086601f83011261063c578384fd5b81358181111561064a578485fd5b8760208260051b850101111561065e578485fd5b6020830194508093505050509250925092565b60008235607e19833603018112610686578182fd5b9190910192915050565b604051601f8201601f1916810167ffffffffffffffff811182821017156106b9576106b96107f6565b604052919050565b6000826106d0576106d06107e0565b500490565b6000608082360312156106e6578081fd5b6106f06080610690565b823581526020808401358183015260408401356040830152606084013567ffffffffffffffff80821115610722578485fd5b9085019036601f830112610734578485fd5b813581811115610746576107466107f6565b8060051b9150610757848301610690565b818152848101908486013685870188011115610771578889fd5b8895505b83861015610793578035835260019590950194918601918601610775565b50606087015250939695505050505050565b60006000198214156107c557634e487b7160e01b81526011600452602481fd5b5060010190565b6000826107db576107db6107e0565b500690565b634e487b7160e01b600052601260045260246000fd5b634e487b7160e01b600052604160045260246000fdfea26469706673582212206b9059c72d6b79d6299fb51b29ab79364ae522bdfe759a6eb51d0681aa1738a264736f6c63430008030033",
  "devdoc": {
    "kind": "dev",
    "methods": {
      "claim(address,(uint256,uint256,uint256,bytes32[])[])": {
        "params": {
          "account": "The address to claim NFTs on behalf.",
          "requests": "An array requests data generated from the merkle tree. Requirements:  - Node in the merkle root must not be claimed already  - Proof of the node must match the merkle tree"
        }
      }
    },
    "version": 1
  },
  "userdoc": {
    "kind": "user",
    "methods": {
      "claim(address,(uint256,uint256,uint256,bytes32[])[])": {
        "notice": "Claims TellerNFTs for a given verifiable merkle proofs for each tier."
      }
    },
    "version": 1
  },
  "storageLayout": {
    "storage": [],
    "types": null
  }
}