{
  "address": "0x5EC44BaA95c64C94CB03f21c86F8E450c4e48205",
  "abi": [
    {
      "anonymous": false,
      "inputs": [
        {
          "indexed": true,
          "internalType": "address",
          "name": "owner",
          "type": "address"
        }
      ],
      "name": "OwnerSet",
      "type": "event"
    },
    {
      "anonymous": false,
      "inputs": [
        {
          "indexed": true,
          "internalType": "address",
          "name": "owner",
          "type": "address"
        },
        {
          "indexed": true,
          "internalType": "address",
          "name": "prevOwner",
          "type": "address"
        }
      ],
      "name": "OwnerTransferred",
      "type": "event"
    },
    {
      "anonymous": false,
      "inputs": [
        {
          "indexed": true,
          "internalType": "bytes32",
          "name": "role",
          "type": "bytes32"
        },
        {
          "indexed": true,
          "internalType": "bytes32",
          "name": "previousAdminRole",
          "type": "bytes32"
        },
        {
          "indexed": true,
          "internalType": "bytes32",
          "name": "newAdminRole",
          "type": "bytes32"
        }
      ],
      "name": "RoleAdminChanged",
      "type": "event"
    },
    {
      "anonymous": false,
      "inputs": [
        {
          "indexed": true,
          "internalType": "bytes32",
          "name": "role",
          "type": "bytes32"
        },
        {
          "indexed": true,
          "internalType": "address",
          "name": "account",
          "type": "address"
        },
        {
          "indexed": true,
          "internalType": "address",
          "name": "sender",
          "type": "address"
        }
      ],
      "name": "RoleGranted",
      "type": "event"
    },
    {
      "anonymous": false,
      "inputs": [
        {
          "indexed": true,
          "internalType": "bytes32",
          "name": "role",
          "type": "bytes32"
        },
        {
          "indexed": true,
          "internalType": "address",
          "name": "account",
          "type": "address"
        },
        {
          "indexed": true,
          "internalType": "address",
          "name": "sender",
          "type": "address"
        }
      ],
      "name": "RoleRevoked",
      "type": "event"
    },
    {
      "inputs": [],
      "name": "DEFAULT_ADMIN_ROLE",
      "outputs": [
        {
          "internalType": "bytes32",
          "name": "",
          "type": "bytes32"
        }
      ],
      "stateMutability": "view",
      "type": "function"
    },
    {
      "inputs": [
        {
          "internalType": "bytes32",
          "name": "newMerkleRoot",
          "type": "bytes32"
        }
      ],
      "name": "addTier",
      "outputs": [],
      "stateMutability": "nonpayable",
      "type": "function"
    },
    {
      "inputs": [
        {
          "internalType": "address",
          "name": "account",
          "type": "address"
        },
        {
          "components": [
            {
              "internalType": "uint256",
              "name": "tierIndex",
              "type": "uint256"
            },
            {
              "internalType": "uint256",
              "name": "nodeIndex",
              "type": "uint256"
            },
            {
              "internalType": "uint256",
              "name": "amount",
              "type": "uint256"
            },
            {
              "internalType": "bytes32[]",
              "name": "merkleProof",
              "type": "bytes32[]"
            }
          ],
          "internalType": "struct ClaimNFTTierRequest[]",
          "name": "requests",
          "type": "tuple[]"
        }
      ],
      "name": "claim",
      "outputs": [],
      "stateMutability": "nonpayable",
      "type": "function"
    },
    {
      "inputs": [
        {
          "internalType": "bytes32",
          "name": "role",
          "type": "bytes32"
        },
        {
          "internalType": "address",
          "name": "account",
          "type": "address"
        }
      ],
      "name": "grantRole",
      "outputs": [],
      "stateMutability": "nonpayable",
      "type": "function"
    },
    {
      "inputs": [
        {
          "internalType": "address",
          "name": "_nft",
          "type": "address"
        },
        {
          "internalType": "address",
          "name": "admin",
          "type": "address"
        }
      ],
      "name": "initialize",
      "outputs": [],
      "stateMutability": "nonpayable",
      "type": "function"
    },
    {
      "inputs": [
        {
          "internalType": "bytes32",
          "name": "role",
          "type": "bytes32"
        },
        {
          "internalType": "address",
          "name": "account",
          "type": "address"
        }
      ],
      "name": "renounceRole",
      "outputs": [],
      "stateMutability": "nonpayable",
      "type": "function"
    },
    {
      "inputs": [
        {
          "internalType": "bytes32",
          "name": "role",
          "type": "bytes32"
        },
        {
          "internalType": "address",
          "name": "account",
          "type": "address"
        }
      ],
      "name": "revokeRole",
      "outputs": [],
      "stateMutability": "nonpayable",
      "type": "function"
    }
  ],
  "transactionHash": "0x13b1579075de78886886875e796505712d248a7e10bb2c925d4f7a6451420f8c",
  "args": [],
  "solcInputHash": "7dfea193bf8d74dddd4fadb38960c81e",
  "bytecode": "0x608060405234801561001057600080fd5b50611299806100206000396000f3fe608060405234801561001057600080fd5b506004361061007d5760003560e01c8063485cc9551161005b578063485cc955146100bd57806389e21733146100d0578063a217fddf146100e3578063d547741f146100fd5761007d565b80632f2ff15d14610082578063307e72e41461009757806336568abe146100aa575b600080fd5b610095610090366004610ebf565b610110565b005b6100956100a5366004610ea7565b610174565b6100956100b8366004610ebf565b61033d565b6100956100cb366004610dec565b6103b7565b6100956100de366004610e24565b610462565b6100eb600081565b60405190815260200160405180910390f35b61009561010b366004610ebf565b61084b565b61011a823361089c565b6101665760405162461bcd60e51b815260206004820152601860248201527720b1b1b2b9b9a1b7b73a3937b61d103737ba1030b236b4b760411b60448201526064015b60405180910390fd5b61017082826108dd565b5050565b7fdf8b4c520ffe197c5343c6f5aec59570151ef9a492f2c624fd45ddde6135ec42336101a08282610959565b600080516020611224833981519152547fcf1e960f2172c22b0a7308b10d2fa40d0d089ee0367c8e6cb72a5803f164c3618054604051632783162d60e11b8152600481019190915290916000916001600160a01b0390911690634f062c5a9060240160006040518083038186803b15801561021a57600080fd5b505afa15801561022e573d6000803e3d6000fd5b505050506040513d6000823e601f3d908101601f191682016040526102569190810190610ee3565b604001516001600160a01b031614156102c15760405162461bcd60e51b815260206004820152602760248201527f4469737472696275746f723a207469657220646f6573206e6f74206578697374604482015266081bdb8813919560ca1b606482015260840161015d565b8054600180820183556000838152602090209091018590557fcf1e960f2172c22b0a7308b10d2fa40d0d089ee0367c8e6cb72a5803f164c361547f8a72996af74d1009e0d3b3895936b7ad9b9447c124a9e2e36b6553ceb1cc6d0f91610326916110cb565b60405190815260200160405180910390a150505050565b6001600160a01b03811633146103ad5760405162461bcd60e51b815260206004820152602f60248201527f416363657373436f6e74726f6c3a2063616e206f6e6c792072656e6f756e636560448201526e103937b632b9903337b91039b2b63360891b606482015260840161015d565b61017082826109af565b6103bf610a27565b5460ff16156104105760405162461bcd60e51b815260206004820152601b60248201527f54656c6c65723a20616c726561647920696e697469616c697a65640000000000604482015260640161015d565b60008051602061122483398151915280546001600160a01b0319166001600160a01b0384161790556101707fdf8b4c520ffe197c5343c6f5aec59570151ef9a492f2c624fd45ddde6135ec42826108dd565b60005b81811015610811576104df8184848481811061049157634e487b7160e01b600052603260045260246000fd5b90506020028101906104a39190611043565b358585858181106104c457634e487b7160e01b600052603260045260246000fd5b90506020028101906104d69190611043565b60200135610a9a565b61055861055384848481811061050557634e487b7160e01b600052603260045260246000fd5b90506020028101906105179190611043565b3585858581811061053857634e487b7160e01b600052603260045260246000fd5b905060200281019061054a9190611043565b60200135610aed565b610b57565b6105ae83838381811061057b57634e487b7160e01b600052603260045260246000fd5b905060200281019061058d9190611043565b3584848481811061053857634e487b7160e01b600052603260045260246000fd5b156105fb5760405162461bcd60e51b815260206004820152601c60248201527f4469737472696275746f723a20616c726561647920636c61696d656400000000604482015260640161015d565b61063f8484848481811061061f57634e487b7160e01b600052603260045260246000fd5b90506020028101906106319190611043565b61063a906110e2565b610b9b565b61068b5760405162461bcd60e51b815260206004820152601a60248201527f4469737472696275746f723a20696e76616c69642070726f6f66000000000000604482015260640161015d565b6106fc8383838181106106ae57634e487b7160e01b600052603260045260246000fd5b90506020028101906106c09190611043565b358484848181106106e157634e487b7160e01b600052603260045260246000fd5b90506020028101906106f39190611043565b60200135610c4d565b60005b83838381811061071f57634e487b7160e01b600052603260045260246000fd5b90506020028101906107319190611043565b604001358110156107fe57600080516020611224833981519152546001600160a01b03166394bf804d85858581811061077a57634e487b7160e01b600052603260045260246000fd5b905060200281019061078c9190611043565b60405160e083901b6001600160e01b0319168152903560048201526001600160a01b0388166024820152604401600060405180830381600087803b1580156107d357600080fd5b505af11580156107e7573d6000803e3d6000fd5b5050505080806107f69061119d565b9150506106ff565b50806108098161119d565b915050610465565b506040516001600160a01b038416907fb449c24d261a59627b537c8c41c57ab559f4205c56bea745ff61c5521bece21490600090a2505050565b610855823361089c565b6103ad5760405162461bcd60e51b815260206004820152601860248201527720b1b1b2b9b9a1b7b73a3937b61d103737ba1030b236b4b760411b604482015260640161015d565b6000918252600080516020611244833981519152602090815260408084206001015484528084206001600160a01b0393909316845291905290205460ff1690565b6108e78282610cb5565b156108f157610170565b6000828152600080516020611244833981519152602090815260408083206001600160a01b0385168085529252808320805460ff1916600117905551339285917f2f8788117e7eff1d82e926ec794901d17c78024a50270940304540a733656f0d9190a45050565b6109638282610cb5565b6101705760405162461bcd60e51b815260206004820152601b60248201527f416363657373436f6e74726f6c3a20756e617574686f72697a65640000000000604482015260640161015d565b6109b98282610cb5565b6109c257610170565b6000828152600080516020611244833981519152602090815260408083206001600160a01b0385168085529252808320805460ff1916905551339285917ff6391f5c32d9c69d2a47ea670b442974b53935d1edc7fd64eb21e047a839171b9190a45050565b600080604051602001610a7c9060208082526028908201527f74656c6c65725f70726f746f636f6c2e636f6e746578742e696e697469616c696040820152677a61626c652e763160c01b606082015260800190565b60408051601f19818403018152919052805160209091012092915050565b604051602481018490526044810183905260648101829052610ae89060840160408051601f198184030181529190526020810180516001600160e01b03166339e0829d60e21b179052610ced565b505050565b600080610afc610100846110b7565b90506000610b0c610100856111b8565b60009586527fcf1e960f2172c22b0a7308b10d2fa40d0d089ee0367c8e6cb72a5803f164c362602090815260408088209488529390529190942054600190911b908116149392505050565b6040518115156024820152610b989060440160408051601f198184030181529190526020810180516001600160e01b03166332458eed60e01b179052610ced565b50565b6000610c468260600151610bba60008051602061122483398151915290565b600101846000015181548110610be057634e487b7160e01b600052603260045260246000fd5b90600052602060002001548460200151868660400151604051602001610c2b9392919092835260609190911b6bffffffffffffffffffffffff19166020830152603482015260540190565b60405160208183030381529060405280519060200120610d0e565b9392505050565b6000610c5b610100836110b7565b90506000610c6b610100846111b8565b60009485527fcf1e960f2172c22b0a7308b10d2fa40d0d089ee0367c8e6cb72a5803f164c36260209081526040808720948752939052919093208054600190921b90911790555050565b6000918252600080516020611244833981519152602090815260408084206001600160a01b0393909316845291905290205460ff1690565b80516a636f6e736f6c652e6c6f67602083016000808483855afa5050505050565b600081815b8551811015610dc0576000868281518110610d3e57634e487b7160e01b600052603260045260246000fd5b60200260200101519050808311610d80576040805160208101859052908101829052606001604051602081830303815290604052805190602001209250610dad565b60408051602081018390529081018490526060016040516020818303038152906040528051906020012092505b5080610db88161119d565b915050610d13565b509092149392505050565b8051610dd68161120e565b919050565b805160ff81168114610dd657600080fd5b60008060408385031215610dfe578182fd5b8235610e098161120e565b91506020830135610e198161120e565b809150509250929050565b600080600060408486031215610e38578081fd5b8335610e438161120e565b9250602084013567ffffffffffffffff80821115610e5f578283fd5b818601915086601f830112610e72578283fd5b813581811115610e80578384fd5b8760208260051b8501011115610e94578384fd5b6020830194508093505050509250925092565b600060208284031215610eb8578081fd5b5035919050565b60008060408385031215610ed1578182fd5b823591506020830135610e198161120e565b60006020808385031215610ef5578182fd5b825167ffffffffffffffff80821115610f0c578384fd5b9084019060a08287031215610f1f578384fd5b610f2960a0611062565b825181528383015182811115610f3d578586fd5b8301601f81018813610f4d578586fd5b8051610f60610f5b82611093565b611062565b81815286810190838801895b8481101561100357815186018d603f820112610f86578b8cfd5b8a81015189811115610f9a57610f9a6111f8565b610fac601f8201601f19168d01611062565b8181528f6040838501011115610fc0578d8efd5b8d5b82811015610fde57838101604001518282018f01528d01610fc2565b82811115610fee578e8e84840101525b50865250509289019290890190600101610f6c565b5050848801525061101991505060408401610dcb565b60408201526060830151606082015261103460808401610ddb565b60808201529695505050505050565b60008235607e19833603018112611058578182fd5b9190910192915050565b604051601f8201601f1916810167ffffffffffffffff8111828210171561108b5761108b6111f8565b604052919050565b600067ffffffffffffffff8211156110ad576110ad6111f8565b5060051b60200190565b6000826110c6576110c66111e2565b500490565b6000828210156110dd576110dd6111cc565b500390565b6000608082360312156110f3578081fd5b6110fd6080611062565b823581526020808401358183015260408401356040830152606084013567ffffffffffffffff81111561112e578384fd5b840136601f82011261113e578384fd5b803561114c610f5b82611093565b8181528381019083850136600585901b86018701111561116a578788fd5b8794505b8385101561118c57803583526001949094019391850191850161116e565b506060860152509295945050505050565b60006000198214156111b1576111b16111cc565b5060010190565b6000826111c7576111c76111e2565b500690565b634e487b7160e01b600052601160045260246000fd5b634e487b7160e01b600052601260045260246000fd5b634e487b7160e01b600052604160045260246000fd5b6001600160a01b0381168114610b9857600080fdfecf1e960f2172c22b0a7308b10d2fa40d0d089ee0367c8e6cb72a5803f164c360337c29a31b05a860fb532911919dbe85ab303a7465176333f1deb496e9fdd19ea264697066735822122085e06264f8ec37922ee41a60a3b3a8e5d933aac01565744cf06016b611bb88af64736f6c63430008030033",
  "devdoc": {
    "kind": "dev",
    "methods": {
      "addTier(bytes32)": {
        "params": {
          "newMerkleRoot": "The merkle root to assign to the new tier. Requirements:  - Caller must be an admin  - Tier must already be added to TellerNFT"
        }
      },
      "claim(address,(uint256,uint256,uint256,bytes32[])[])": {
        "params": {
          "account": "The address to claim NFTs on behalf.",
          "requests": "An array requests data generated from the merkle tree. Requirements:  - Node in the merkle root must not be claimed already  - Proof of the node must match the merkle tree"
        }
      },
      "initialize(address,address)": {
        "params": {
          "_nft": "The address of the TellerNFT.",
          "admin": "The address of an admin."
        }
      }
    },
    "version": 1
  },
  "userdoc": {
    "kind": "user",
    "methods": {
      "addTier(bytes32)": {
        "notice": "Adds a new tier to be able to claim NFTs."
      },
      "claim(address,(uint256,uint256,uint256,bytes32[])[])": {
        "notice": "Claims TellerNFTs for a given verifiable merkle proofs for each tier."
      },
      "grantRole(bytes32,address)": {
        "notice": "Grants an address a new role. Requirements:  - Sender must be role admin."
      },
      "initialize(address,address)": {
        "notice": "Initializes the Distributor contract with the TellerNFT"
      },
      "renounceRole(bytes32,address)": {
        "notice": "Grants an address a new role. Requirements:  - Sender must be role admin."
      },
      "revokeRole(bytes32,address)": {
        "notice": "Removes a role from an address. Requirements:  - Sender must be role admin."
      }
    },
    "version": 1
  },
  "storageLayout": {
    "storage": [],
    "types": null
  }
}