{
  "address": "0x173b97013997d5eeD88d9F999f69df3E54122fAa",
  "abi": [
    {
      "anonymous": false,
      "inputs": [
        {
          "indexed": true,
          "internalType": "address",
          "name": "owner",
          "type": "address"
        }
      ],
      "name": "OwnerSet",
      "type": "event"
    },
    {
      "anonymous": false,
      "inputs": [
        {
          "indexed": true,
          "internalType": "address",
          "name": "owner",
          "type": "address"
        },
        {
          "indexed": true,
          "internalType": "address",
          "name": "prevOwner",
          "type": "address"
        }
      ],
      "name": "OwnerTransferred",
      "type": "event"
    },
    {
      "anonymous": false,
      "inputs": [
        {
          "indexed": true,
          "internalType": "bytes32",
          "name": "role",
          "type": "bytes32"
        },
        {
          "indexed": true,
          "internalType": "bytes32",
          "name": "previousAdminRole",
          "type": "bytes32"
        },
        {
          "indexed": true,
          "internalType": "bytes32",
          "name": "newAdminRole",
          "type": "bytes32"
        }
      ],
      "name": "RoleAdminChanged",
      "type": "event"
    },
    {
      "anonymous": false,
      "inputs": [
        {
          "indexed": true,
          "internalType": "bytes32",
          "name": "role",
          "type": "bytes32"
        },
        {
          "indexed": true,
          "internalType": "address",
          "name": "account",
          "type": "address"
        },
        {
          "indexed": true,
          "internalType": "address",
          "name": "sender",
          "type": "address"
        }
      ],
      "name": "RoleGranted",
      "type": "event"
    },
    {
      "anonymous": false,
      "inputs": [
        {
          "indexed": true,
          "internalType": "bytes32",
          "name": "role",
          "type": "bytes32"
        },
        {
          "indexed": true,
          "internalType": "address",
          "name": "account",
          "type": "address"
        },
        {
          "indexed": true,
          "internalType": "address",
          "name": "sender",
          "type": "address"
        }
      ],
      "name": "RoleRevoked",
      "type": "event"
    },
    {
      "inputs": [],
      "name": "DEFAULT_ADMIN_ROLE",
      "outputs": [
        {
          "internalType": "bytes32",
          "name": "",
          "type": "bytes32"
        }
      ],
      "stateMutability": "view",
      "type": "function"
    },
    {
      "inputs": [
        {
          "internalType": "address[]",
          "name": "minters",
          "type": "address[]"
        },
        {
          "internalType": "string",
          "name": "_contractURI",
          "type": "string"
        }
      ],
      "name": "initialize",
      "outputs": [],
      "stateMutability": "nonpayable",
      "type": "function"
    }
  ],
  "transactionHash": "0xd3ca8d15c745082e2b4c8c37b09fbf3ae2fa6a7e94c17b20b2f6f400b9bc6e5a",
  "args": [],
  "solcInputHash": "333984a3094be515f0fdf2f8a4c5c108",
  "bytecode": "0x608060405234801561001057600080fd5b5061064c806100206000396000f3fe608060405234801561001057600080fd5b50600436106100365760003560e01c80633233efe51461003b578063a217fddf14610050575b600080fd5b61004e61004936600461049e565b61006a565b005b610058600081565b60405190815260200160405180910390f35b61007261026c565b5460ff16156100c75760405162461bcd60e51b815260206004820152601b60248201527f54656c6c65723a20616c726561647920696e697469616c697a65640000000000604482015260640160405180910390fd5b60408051808201909152600a81526915195b1b195c8813919560b21b60208201527f1e91dbccf5488299bd4adcb044f4c3df902739c02f1f78276dd4194ac6a8d99d815161011892602001906103d7565b50604080518082019091526004808252631513919560e21b6020909201918252610163917f1e91dbccf5488299bd4adcb044f4c3df902739c02f1f78276dd4194ac6a8d99e916103d7565b50630ec2afbf60e31b60009081527fc8fcad8db84d3cc18b4c41d551ea0ee66dd599cde068d998e57d5e09332c131f6020527f60d95b29c33452174da33d98f800a14388b4cf47797e6ec9663ac297f2340367805460ff191660011790557fc8fcad8db84d3cc18b4c41d551ea0ee66dd599cde068d998e57d5e09332c131c905b8381101561025c5761024a7ff0887ba65ee2024ea881d91b74c2450ef19e1557f03bed3ea9f16b037cbe2dc986868481811061023057634e487b7160e01b600052603260045260246000fd5b90506020020160208101906102459190610470565b6102df565b80610254816105d9565b9150506101e4565b50610266826103a9565b50505050565b6000806040516020016102c19060208082526028908201527f74656c6c65725f70726f746f636f6c2e636f6e746578742e696e697469616c696040820152677a61626c652e763160c01b606082015260800190565b60408051601f19818403018152919052805160209091012092915050565b60008281527f337c29a31b05a860fb532911919dbe85ab303a7465176333f1deb496e9fdd19e602090815260408083206001600160a01b038516845290915290205460ff161561032e576103a5565b60008281527f337c29a31b05a860fb532911919dbe85ab303a7465176333f1deb496e9fdd19e602090815260408083206001600160a01b0385168085529252808320805460ff1916600117905551339285917f2f8788117e7eff1d82e926ec794901d17c78024a50270940304540a733656f0d9190a45b5050565b80516103a5907f7d831add1cfdac9c9a7c42498fe0e1d396f2a23a5826619aec75af6873a588859060208401905b8280546103e39061059e565b90600052602060002090601f016020900481019282610405576000855561044b565b82601f1061041e57805160ff191683800117855561044b565b8280016001018555821561044b579182015b8281111561044b578251825591602001919060010190610430565b5061045792915061045b565b5090565b5b80821115610457576000815560010161045c565b600060208284031215610481578081fd5b81356001600160a01b0381168114610497578182fd5b9392505050565b6000806000604084860312156104b2578182fd5b833567ffffffffffffffff808211156104c9578384fd5b818601915086601f8301126104dc578384fd5b8135818111156104ea578485fd5b602088818360051b86010111156104ff578586fd5b808401965081955080880135935082841115610519578485fd5b838801935088601f85011261052c578485fd5b833591508282111561054057610540610600565b604051601f8301601f19908116603f0116810190848211818310171561056857610568610600565b816040528381528a8385880101111561057f578687fd5b8383870184830137868385830101528096505050505050509250925092565b600181811c908216806105b257607f821691505b602082108114156105d357634e487b7160e01b600052602260045260246000fd5b50919050565b60006000198214156105f957634e487b7160e01b81526011600452602481fd5b5060010190565b634e487b7160e01b600052604160045260246000fdfea2646970667358221220474599d1ed5043949e3e3375ce81904ed90b5509449e0e956b974e6ddf5a50cb64736f6c63430008030033",
  "devdoc": {
    "kind": "dev",
    "methods": {
      "initialize(address[],string)": {
        "params": {
          "_contractURI": "The link to the initial contract level metadata.",
          "minters": "The addresses that should allowed to mint tokens."
        }
      }
    },
    "version": 1
  },
  "userdoc": {
    "kind": "user",
    "methods": {
      "initialize(address[],string)": {
        "notice": "Initializes the TellerNFT."
      }
    },
    "version": 1
  },
  "storageLayout": {
    "storage": [],
    "types": null
  }
}