{
  "address": "0xC9683628eD46B35f23fE534d27dcE3d8297d0225",
  "abi": [
    {
      "inputs": [
        {
          "components": [
            {
              "internalType": "uint256",
              "name": "baseLoanSize",
              "type": "uint256"
            },
            {
              "internalType": "string[]",
              "name": "hashes",
              "type": "string[]"
            },
            {
              "internalType": "address",
              "name": "contributionAsset",
              "type": "address"
            },
            {
              "internalType": "uint256",
              "name": "contributionSize",
              "type": "uint256"
            },
            {
              "internalType": "uint8",
              "name": "contributionMultiplier",
              "type": "uint8"
            }
          ],
          "internalType": "struct Tier",
          "name": "newTier",
          "type": "tuple"
        }
      ],
      "name": "addTier",
      "outputs": [],
      "stateMutability": "nonpayable",
      "type": "function"
    }
  ],
  "transactionHash": "0xdc9b3e842d7ea30ea9b9fb520c6510747b9b1a416899a09bc80753332a06d49e",
  "args": [],
  "solcInputHash": "5c6a9058c46611581868a70d5eba78f6",
  "bytecode": "0x608060405234801561001057600080fd5b50610588806100206000396000f3fe608060405234801561001057600080fd5b506004361061002b5760003560e01c8063cf932b7c14610030575b600080fd5b61004361003e366004610382565b610045565b005b7ff0887ba65ee2024ea881d91b74c2450ef19e1557f03bed3ea9f16b037cbe2dc933610071828261016b565b60007f0a84207e1143ff19b71979feb4ec3b9e9ab20a9f584206f464503fa07b113fc3816100be7f0a84207e1143ff19b71979feb4ec3b9e9ab20a9f584206f464503fa07b113fc1610204565b8152602080820192909252604001600020855181558582015180519193506100ed92600185019291019061020c565b5060408401516002820180546001600160a01b0319166001600160a01b0390921691909117905560608401516003820155608084015160048201805460ff191660ff9092169190911790556101657f0a84207e1143ff19b71979feb4ec3b9e9ab20a9f584206f464503fa07b113fc180546001019055565b50505050565b60008281527f337c29a31b05a860fb532911919dbe85ab303a7465176333f1deb496e9fdd19e602090815260408083206001600160a01b038516845290915290205460ff166102005760405162461bcd60e51b815260206004820152601b60248201527f416363657373436f6e74726f6c3a20756e617574686f72697a65640000000000604482015260640160405180910390fd5b5050565b80545b919050565b828054828255906000526020600020908101928215610259579160200282015b828111156102595782518051610249918491602090910190610269565b509160200191906001019061022c565b506102659291506102e9565b5090565b82805461027590610501565b90600052602060002090601f01602090048101928261029757600085556102dd565b82601f106102b057805160ff19168380011785556102dd565b828001600101855582156102dd579182015b828111156102dd5782518255916020019190600101906102c2565b50610265929150610306565b808211156102655760006102fd828261031b565b506001016102e9565b5b808211156102655760008155600101610307565b50805461032790610501565b6000825580601f106103395750610357565b601f0160209004906000526020600020908101906103579190610306565b50565b80356001600160a01b038116811461020757600080fd5b803560ff8116811461020757600080fd5b60006020808385031215610394578182fd5b823567ffffffffffffffff808211156103ab578384fd5b9084019060a082870312156103be578384fd5b6103c860a06104d0565b8235815283830135828111156103dc578586fd5b8301601f810188136103ec578586fd5b8035838111156103fe576103fe61053c565b61040c868260051b016104d0565b81815286810190838801895b8481101561049057813586018d603f820112610432578b8cfd5b8a810135898111156104465761044661053c565b610458601f8201601f19168d016104d0565b8181528f604083850101111561046c578d8efd5b81604084018e8301379081018c018d90528552509289019290890190600101610418565b505084880152506104a69150506040840161035a565b6040820152606083013560608201526104c160808401610371565b60808201529695505050505050565b604051601f8201601f1916810167ffffffffffffffff811182821017156104f9576104f961053c565b604052919050565b600181811c9082168061051557607f821691505b6020821081141561053657634e487b7160e01b600052602260045260246000fd5b50919050565b634e487b7160e01b600052604160045260246000fdfea26469706673582212204ec9ec9cfc42634c3cd01d246aa0db7c4e41cc9310234e01e59790ce8f2b70d564736f6c63430008030033",
  "devdoc": {
    "kind": "dev",
    "methods": {
      "addTier((uint256,string[],address,uint256,uint8))": {
        "details": "It auto increments the index of the next tier to add.",
        "params": {
          "newTier": "Information about the new tier to add. Requirements:  - Caller must have the {MINTER} role"
        }
      }
    },
    "version": 1
  },
  "userdoc": {
    "kind": "user",
    "methods": {
      "addTier((uint256,string[],address,uint256,uint8))": {
        "notice": "Adds a new Tier to be minted with the given information."
      }
    },
    "version": 1
  },
  "storageLayout": {
    "storage": [],
    "types": null
  }
}