{
  "address": "0x1Cd73EC615210effAE184C2ec83417c9C12ca601",
  "abi": [
    {
      "inputs": [
        {
          "internalType": "address",
          "name": "owner",
          "type": "address"
        }
      ],
      "name": "balanceOf",
      "outputs": [
        {
          "internalType": "uint256",
          "name": "",
          "type": "uint256"
        }
      ],
      "stateMutability": "view",
      "type": "function"
    }
  ],
  "transactionHash": "0xae56e4ad46329c94a72e3de720e9c8a5c6f2ba8af3b7098ea702b4f5f042f2f9",
  "args": [],
  "solcInputHash": "333984a3094be515f0fdf2f8a4c5c108",
  "bytecode": "0x608060405234801561001057600080fd5b50610163806100206000396000f3fe608060405234801561001057600080fd5b506004361061002b5760003560e01c806370a0823114610030575b600080fd5b61004361003e3660046100ff565b610055565b60405190815260200160405180910390f35b60006001600160a01b0382166100c45760405162461bcd60e51b815260206004820152602a60248201527f4552433732313a2062616c616e636520717565727920666f7220746865207a65604482015269726f206164647265737360b01b606482015260840160405180910390fd5b506001600160a01b031660009081527f1e91dbccf5488299bd4adcb044f4c3df902739c02f1f78276dd4194ac6a8d9a0602052604090205490565b600060208284031215610110578081fd5b81356001600160a01b0381168114610126578182fd5b939250505056fea264697066735822122089311de82f0cc68fbb44a37f02adf59639a8ba1ded8505138e8d1396786cf45664736f6c63430008030033",
  "devdoc": {
    "kind": "dev",
    "methods": {
      "balanceOf(address)": {
        "details": "See {IERC721-balanceOf}."
      }
    },
    "version": 1
  },
  "userdoc": {
    "kind": "user",
    "methods": {},
    "version": 1
  },
  "storageLayout": {
    "storage": [],
    "types": null
  }
}