{
  "address": "0x496887992Dd0667B7911dbd792AB7f8b81B23f31",
  "abi": [
    {
      "inputs": [],
      "name": "_symbol",
      "outputs": [
        {
          "internalType": "string",
          "name": "",
          "type": "string"
        }
      ],
      "stateMutability": "view",
      "type": "function"
    },
    {
      "inputs": [],
      "name": "name",
      "outputs": [
        {
          "internalType": "string",
          "name": "",
          "type": "string"
        }
      ],
      "stateMutability": "view",
      "type": "function"
    }
  ],
  "transactionHash": "0x4924e9d2648a4ade0db2d02a64e2faee658f85f288427395984022a3e96aeb9f",
  "args": [],
  "solcInputHash": "7dfea193bf8d74dddd4fadb38960c81e",
  "bytecode": "0x608060405234801561001057600080fd5b50610207806100206000396000f3fe608060405234801561001057600080fd5b50600436106100365760003560e01c806306fdde031461003b578063b09f126614610059575b600080fd5b610043610061565b6040516100509190610143565b60405180910390f35b610043610112565b60607f1e91dbccf5488299bd4adcb044f4c3df902739c02f1f78276dd4194ac6a8d99d805461008f90610196565b80601f01602080910402602001604051908101604052809291908181526020018280546100bb90610196565b80156101085780601f106100dd57610100808354040283529160200191610108565b820191906000526020600020905b8154815290600101906020018083116100eb57829003601f168201915b5050505050905090565b60607f1e91dbccf5488299bd4adcb044f4c3df902739c02f1f78276dd4194ac6a8d99d600101805461008f90610196565b6000602080835283518082850152825b8181101561016f57858101830151858201604001528201610153565b818111156101805783604083870101525b50601f01601f1916929092016040019392505050565b600181811c908216806101aa57607f821691505b602082108114156101cb57634e487b7160e01b600052602260045260246000fd5b5091905056fea2646970667358221220ae833809d92889f35fb6ef8482737062a16faf8f81bbfe336757778539e3881164736f6c63430008030033",
  "devdoc": {
    "kind": "dev",
    "methods": {
      "_symbol()": {
        "details": "See {IERC721Metadata-symbol}."
      },
      "name()": {
        "details": "See {IERC721Metadata-name}."
      }
    },
    "version": 1
  },
  "userdoc": {
    "kind": "user",
    "methods": {},
    "version": 1
  },
  "storageLayout": {
    "storage": [],
    "types": null
  }
}