{
  "address": "0xEBB0Ff7A353d7b1BE56225dCfe085c39C6A9a25c",
  "abi": [
    {
      "inputs": [
        {
          "internalType": "address",
          "name": "owner",
          "type": "address"
        }
      ],
      "name": "ownedTokens",
      "outputs": [
        {
          "internalType": "uint256[]",
          "name": "owned",
          "type": "uint256[]"
        }
      ],
      "stateMutability": "view",
      "type": "function"
    }
  ],
  "transactionHash": "0x73030affa7c95bc87abb824a54a41605bd67eb8aa356c91bc8a1b6b2ed562d86",
  "args": [],
  "solcInputHash": "7e129727dcb3b47e20291ca868c9b416",
  "bytecode": "0x608060405234801561001057600080fd5b506102cb806100206000396000f3fe608060405234801561001057600080fd5b506004361061002b5760003560e01c8063b12ab40f14610030575b600080fd5b61004361003e366004610203565b610059565b604051610050919061022a565b60405180910390f35b6001600160a01b03811660009081527f7d831add1cfdac9c9a7c42498fe0e1d396f2a23a5826619aec75af6873a588846020526040902060609061009c81610148565b67ffffffffffffffff8111156100c257634e487b7160e01b600052604160045260246000fd5b6040519080825280602002602001820160405280156100eb578160200160208202803683370190505b50915060005b8251811015610141576101048282610158565b83828151811061012457634e487b7160e01b600052603260045260246000fd5b6020908102919091010152806101398161026e565b9150506100f1565b5050919050565b6000610152825490565b92915050565b6000610164838361016b565b9392505050565b815460009082106101cd5760405162461bcd60e51b815260206004820152602260248201527f456e756d657261626c655365743a20696e646578206f7574206f6620626f756e604482015261647360f01b606482015260840160405180910390fd5b8260000182815481106101f057634e487b7160e01b600052603260045260246000fd5b9060005260206000200154905092915050565b600060208284031215610214578081fd5b81356001600160a01b0381168114610164578182fd5b6020808252825182820181905260009190848201906040850190845b8181101561026257835183529284019291840191600101610246565b50909695505050505050565b600060001982141561028e57634e487b7160e01b81526011600452602481fd5b506001019056fea2646970667358221220e0c814bc958969f1a68bb74f933c3a8189cb38d38ba59aaf4f666e9bca72ad7964736f6c63430008030033",
  "devdoc": {
    "kind": "dev",
    "methods": {
      "ownedTokens(address)": {
        "details": "It uses a EnumerableSet to store values and loops over each element to add to the array.Can be costly if calling within a contract for address with many tokens."
      }
    },
    "version": 1
  },
  "userdoc": {
    "kind": "user",
    "methods": {
      "ownedTokens(address)": {
        "notice": "It returns an array of token IDs owned by an address."
      }
    },
    "version": 1
  },
  "storageLayout": {
    "storage": [],
    "types": null
  }
}