{
  "address": "0x0094C665305853802F632D85559f8cB1f0c6D28c",
  "abi": [
    {
      "inputs": [
        {
          "internalType": "uint256",
          "name": "tokenId",
          "type": "uint256"
        }
      ],
      "name": "ownerOf",
      "outputs": [
        {
          "internalType": "address",
          "name": "",
          "type": "address"
        }
      ],
      "stateMutability": "view",
      "type": "function"
    }
  ],
  "transactionHash": "0x078c48571ee7c61b0f649c53fee7af45f195a56404819a12d03a5286cdba2816",
  "args": [],
  "solcInputHash": "333984a3094be515f0fdf2f8a4c5c108",
  "bytecode": "0x608060405234801561001057600080fd5b5061014d806100206000396000f3fe608060405234801561001057600080fd5b506004361061002b5760003560e01c80636352211e14610030575b600080fd5b61004361003e3660046100ff565b61005f565b6040516001600160a01b03909116815260200160405180910390f35b60008181527f1e91dbccf5488299bd4adcb044f4c3df902739c02f1f78276dd4194ac6a8d99f60205260408120546001600160a01b0316806100f95760405162461bcd60e51b815260206004820152602960248201527f4552433732313a206f776e657220717565727920666f72206e6f6e657869737460448201526832b73a103a37b5b2b760b91b606482015260840160405180910390fd5b92915050565b600060208284031215610110578081fd5b503591905056fea2646970667358221220d0fc07f1d34c2eff0f88de128ce34c9f45b7619fd0d851edddbb858e83316ecb64736f6c63430008030033",
  "devdoc": {
    "kind": "dev",
    "methods": {
      "ownerOf(uint256)": {
        "details": "See {IERC721-ownerOf}."
      }
    },
    "version": 1
  },
  "userdoc": {
    "kind": "user",
    "methods": {},
    "version": 1
  },
  "storageLayout": {
    "storage": [],
    "types": null
  }
}