{
  "address": "0xc5AAB6EEfe50F4002A8c327b02839e055F9a82C7",
  "abi": [
    {
      "inputs": [],
      "name": "baseURI",
      "outputs": [
        {
          "internalType": "string",
          "name": "",
          "type": "string"
        }
      ],
      "stateMutability": "view",
      "type": "function"
    },
    {
      "inputs": [],
      "name": "contractURI",
      "outputs": [
        {
          "internalType": "string",
          "name": "",
          "type": "string"
        }
      ],
      "stateMutability": "view",
      "type": "function"
    },
    {
      "inputs": [
        {
          "internalType": "uint256",
          "name": "tokenId",
          "type": "uint256"
        }
      ],
      "name": "tokenURI",
      "outputs": [
        {
          "internalType": "string",
          "name": "",
          "type": "string"
        }
      ],
      "stateMutability": "view",
      "type": "function"
    }
  ],
  "transactionHash": "0x333bc4ad524c9988cb1fa35d8b277b0c941e2609f3d172c506505e217e58a42e",
  "args": [],
  "solcInputHash": "333984a3094be515f0fdf2f8a4c5c108",
  "bytecode": "0x608060405234801561001057600080fd5b5061050c806100206000396000f3fe608060405234801561001057600080fd5b50600436106100415760003560e01c80636c0360eb14610046578063c87b56dd14610064578063e8a3d48514610077575b600080fd5b61004e61007f565b60405161005b91906103f6565b60405180910390f35b61004e6100723660046103af565b61008e565b61004e61018c565b6060610089610240565b905090565b60008181527f1e91dbccf5488299bd4adcb044f4c3df902739c02f1f78276dd4194ac6a8d99f60205260409020546060906001600160a01b03166101305760405162461bcd60e51b815260206004820152602f60248201527f4552433732314d657461646174613a2055524920717565727920666f72206e6f60448201526e3732bc34b9ba32b73a103a37b5b2b760891b606482015260840160405180910390fd5b600061013a610240565b9050600081511161015a5760405180602001604052806000815250610185565b806101648461024a565b6040516020016101759291906103c7565b6040516020818303038152906040525b9392505050565b60607f7d831add1cfdac9c9a7c42498fe0e1d396f2a23a5826619aec75af6873a5888460010180546101bd90610459565b80601f01602080910402602001604051908101604052809291908181526020018280546101e990610459565b80156102365780601f1061020b57610100808354040283529160200191610236565b820191906000526020600020905b81548152906001019060200180831161021957829003601f168201915b5050505050905090565b606061008961025b565b60606102558261027b565b92915050565b60606040518060600160405280602281526020016104b560229139905090565b60008181527f0a84207e1143ff19b71979feb4ec3b9e9ab20a9f584206f464503fa07b113fc4602090815260408083205483527f0a84207e1143ff19b71979feb4ec3b9e9ab20a9f584206f464503fa07b113fc3909152902060010180546060919081906102ea9085906103a3565b8154811061030857634e487b7160e01b600052603260045260246000fd5b90600052602060002001805461031d90610459565b80601f016020809104026020016040519081016040528092919081815260200182805461034990610459565b80156103965780601f1061036b57610100808354040283529160200191610396565b820191906000526020600020905b81548152906001019060200180831161037957829003601f168201915b5050505050915050919050565b60006101858284610494565b6000602082840312156103c0578081fd5b5035919050565b600083516103d9818460208801610429565b8351908301906103ed818360208801610429565b01949350505050565b6000602082528251806020840152610415816040850160208701610429565b601f01601f19169190910160400192915050565b60005b8381101561044457818101518382015260200161042c565b83811115610453576000848401525b50505050565b600181811c9082168061046d57607f821691505b6020821081141561048e57634e487b7160e01b600052602260045260246000fd5b50919050565b6000826104af57634e487b7160e01b81526012600452602481fd5b50069056fe68747470733a2f2f676174657761792e70696e6174612e636c6f75642f697066732fa2646970667358221220cac044c68ce4949db5a7316dd4d148dd499fd2e6d282967a74e4db24da07b5fa64736f6c63430008030033",
  "devdoc": {
    "kind": "dev",
    "methods": {},
    "version": 1
  },
  "userdoc": {
    "kind": "user",
    "methods": {
      "baseURI()": {
        "notice": "Base URI for computing {tokenURI}. See {IERC721Metadata-_baseURI}"
      },
      "tokenURI(uint256)": {
        "notice": "See {IERC721Metadata-tokenURI}."
      }
    },
    "version": 1
  },
  "storageLayout": {
    "storage": [],
    "types": null
  }
}