{
  "address": "0xD77c6228f6Dfd799D6831E9b844a14Ba31074961",
  "abi": [
    {
      "inputs": [
        {
          "internalType": "address",
          "name": "owner",
          "type": "address"
        }
      ],
      "name": "balanceOf",
      "outputs": [
        {
          "internalType": "uint256",
          "name": "",
          "type": "uint256"
        }
      ],
      "stateMutability": "view",
      "type": "function"
    }
  ],
  "transactionHash": "0x02b51ce0eda0958a7a37a6816edec2a388411033ea8b60791c3b7316ef1b485d",
  "args": [],
  "solcInputHash": "7dfea193bf8d74dddd4fadb38960c81e",
  "bytecode": "0x608060405234801561001057600080fd5b50610163806100206000396000f3fe608060405234801561001057600080fd5b506004361061002b5760003560e01c806370a0823114610030575b600080fd5b61004361003e3660046100ff565b610055565b60405190815260200160405180910390f35b60006001600160a01b0382166100c45760405162461bcd60e51b815260206004820152602a60248201527f4552433732313a2062616c616e636520717565727920666f7220746865207a65604482015269726f206164647265737360b01b606482015260840160405180910390fd5b506001600160a01b031660009081527f1e91dbccf5488299bd4adcb044f4c3df902739c02f1f78276dd4194ac6a8d9a0602052604090205490565b600060208284031215610110578081fd5b81356001600160a01b0381168114610126578182fd5b939250505056fea2646970667358221220e48b5ea73d4ad19dc58e97e0f730691d3258367dd19d6800c81f6ac7719f0d4064736f6c63430008030033",
  "devdoc": {
    "kind": "dev",
    "methods": {
      "balanceOf(address)": {
        "details": "See {IERC721-balanceOf}."
      }
    },
    "version": 1
  },
  "userdoc": {
    "kind": "user",
    "methods": {},
    "version": 1
  },
  "storageLayout": {
    "storage": [],
    "types": null
  }
}