{
  "address": "0xf2B413aBb801a9fbD72cA7394d928f44C3BD095A",
  "abi": [
    {
      "inputs": [
        {
          "internalType": "uint256",
          "name": "tokenId",
          "type": "uint256"
        }
      ],
      "name": "getApproved",
      "outputs": [
        {
          "internalType": "address",
          "name": "",
          "type": "address"
        }
      ],
      "stateMutability": "view",
      "type": "function"
    },
    {
      "inputs": [
        {
          "internalType": "address",
          "name": "owner",
          "type": "address"
        },
        {
          "internalType": "address",
          "name": "operator",
          "type": "address"
        }
      ],
      "name": "isApprovedForAll",
      "outputs": [
        {
          "internalType": "bool",
          "name": "",
          "type": "bool"
        }
      ],
      "stateMutability": "view",
      "type": "function"
    }
  ],
  "transactionHash": "0x35ca96598fad17694d04c18c37f6f7104ab977132136c3969ab530df2b27456b",
  "args": [],
  "solcInputHash": "333984a3094be515f0fdf2f8a4c5c108",
  "bytecode": "0x608060405234801561001057600080fd5b50610247806100206000396000f3fe608060405234801561001057600080fd5b50600436106100365760003560e01c8063081812fc1461003b578063e985e9c51461006b575b600080fd5b61004e6100493660046101f9565b6100d6565b6040516001600160a01b0390911681526020015b60405180910390f35b6100c66100793660046101c7565b6001600160a01b0391821660009081527f1e91dbccf5488299bd4adcb044f4c3df902739c02f1f78276dd4194ac6a8d9a26020908152604080832093909416825291909152205460ff1690565b6040519015158152602001610062565b60008181527f1e91dbccf5488299bd4adcb044f4c3df902739c02f1f78276dd4194ac6a8d99f60205260408120546001600160a01b03166101725760405162461bcd60e51b815260206004820152602c60248201527f4552433732313a20617070726f76656420717565727920666f72206e6f6e657860448201526b34b9ba32b73a103a37b5b2b760a11b606482015260840160405180910390fd5b5060008181527f1e91dbccf5488299bd4adcb044f4c3df902739c02f1f78276dd4194ac6a8d9a160205260409020546001600160a01b03165b919050565b80356001600160a01b03811681146101ab57600080fd5b600080604083850312156101d9578182fd5b6101e2836101b0565b91506101f0602084016101b0565b90509250929050565b60006020828403121561020a578081fd5b503591905056fea26469706673582212205035cff82c9ffabff9e63b851de257673a47f75ba90375c498cb2ed5d9f58bba64736f6c63430008030033",
  "devdoc": {
    "kind": "dev",
    "methods": {
      "getApproved(uint256)": {
        "details": "See {IERC721-getApproved}."
      },
      "isApprovedForAll(address,address)": {
        "details": "See {IERC721-isApprovedForAll}."
      }
    },
    "version": 1
  },
  "userdoc": {
    "kind": "user",
    "methods": {},
    "version": 1
  },
  "storageLayout": {
    "storage": [],
    "types": null
  }
}