{
  "address": "0xa9000D9604a893dE8fBa1415Ddd775a9b2fe09F3",
  "abi": [
    {
      "inputs": [
        {
          "internalType": "uint256",
          "name": "tokenId",
          "type": "uint256"
        }
      ],
      "name": "ownerOf",
      "outputs": [
        {
          "internalType": "address",
          "name": "",
          "type": "address"
        }
      ],
      "stateMutability": "view",
      "type": "function"
    }
  ],
  "transactionHash": "0xd158b488341c018195fdb55412e56f979bad917df1e6c20d342a001f9c9edb60",
  "args": [],
  "solcInputHash": "7dfea193bf8d74dddd4fadb38960c81e",
  "bytecode": "0x608060405234801561001057600080fd5b5061014d806100206000396000f3fe608060405234801561001057600080fd5b506004361061002b5760003560e01c80636352211e14610030575b600080fd5b61004361003e3660046100ff565b61005f565b6040516001600160a01b03909116815260200160405180910390f35b60008181527f1e91dbccf5488299bd4adcb044f4c3df902739c02f1f78276dd4194ac6a8d99f60205260408120546001600160a01b0316806100f95760405162461bcd60e51b815260206004820152602960248201527f4552433732313a206f776e657220717565727920666f72206e6f6e657869737460448201526832b73a103a37b5b2b760b91b606482015260840160405180910390fd5b92915050565b600060208284031215610110578081fd5b503591905056fea26469706673582212204ee6b6dd2f5203731184beffc35b809dee3cd9e7bfc7a73118f060d38c03b67264736f6c63430008030033",
  "devdoc": {
    "kind": "dev",
    "methods": {
      "ownerOf(uint256)": {
        "details": "See {IERC721-ownerOf}."
      }
    },
    "version": 1
  },
  "userdoc": {
    "kind": "user",
    "methods": {},
    "version": 1
  },
  "storageLayout": {
    "storage": [],
    "types": null
  }
}