{
  "address": "0xC3777063E7d5B845F18c8aeb77075bccc0734D0b",
  "abi": [
    {
      "payable": true,
      "stateMutability": "payable",
      "type": "fallback"
    },
    {
      "constant": true,
      "inputs": [],
      "name": "implementation",
      "outputs": [
        {
          "internalType": "address",
          "name": "",
          "type": "address"
        }
      ],
      "payable": false,
      "stateMutability": "view",
      "type": "function"
    },
    {
      "constant": true,
      "inputs": [],
      "name": "implementationStored",
      "outputs": [
        {
          "internalType": "address",
          "name": "",
          "type": "address"
        }
      ],
      "payable": false,
      "stateMutability": "view",
      "type": "function"
    },
    {
      "constant": false,
      "inputs": [
        {
          "internalType": "address",
          "name": "aLogicRegistryAddress",
          "type": "address"
        },
        {
          "internalType": "bytes32",
          "name": "aLogicName",
          "type": "bytes32"
        },
        {
          "internalType": "bool",
          "name": "isStrictDynamic",
          "type": "bool"
        }
      ],
      "name": "initialize",
      "outputs": [],
      "payable": false,
      "stateMutability": "nonpayable",
      "type": "function"
    },
    {
      "constant": true,
      "inputs": [],
      "name": "logicName",
      "outputs": [
        {
          "internalType": "bytes32",
          "name": "",
          "type": "bytes32"
        }
      ],
      "payable": false,
      "stateMutability": "view",
      "type": "function"
    },
    {
      "constant": true,
      "inputs": [],
      "name": "logicRegistry",
      "outputs": [
        {
          "internalType": "contract LogicVersionsRegistryInterface",
          "name": "",
          "type": "address"
        }
      ],
      "payable": false,
      "stateMutability": "view",
      "type": "function"
    },
    {
      "constant": true,
      "inputs": [],
      "name": "strictDynamic",
      "outputs": [
        {
          "internalType": "bool",
          "name": "",
          "type": "bool"
        }
      ],
      "payable": false,
      "stateMutability": "view",
      "type": "function"
    },
    {
      "constant": false,
      "inputs": [
        {
          "internalType": "address",
          "name": "newImplementation",
          "type": "address"
        }
      ],
      "name": "upgradeProxyTo",
      "outputs": [],
      "payable": false,
      "stateMutability": "nonpayable",
      "type": "function"
    }
  ],
  "transactionHash": "0x23e24c670a021dfd990ea39e4215af97203e01cd04c9852a6e06dee7a92aaf47",
  "args": [],
  "solcInputHash": "3790d34ca1d72794863015ffe08f35de",
  "bytecode": "0x608060405234801561001057600080fd5b5061050c806100206000396000f3fe6080604052600436106100705760003560e01c806355dbd8eb1161004e57806355dbd8eb146100dc5780635c60da1b146100fc578063e154e9a414610111578063e72fcb601461013357610070565b80632c26486d1461007a57806337c3eedc146100a55780634f8654bc146100c7575b610078610153565b005b34801561008657600080fd5b5061008f61016d565b60405161009c919061044c565b60405180910390f35b3480156100b157600080fd5b506100ba610173565b60405161009c919061042d565b3480156100d357600080fd5b506100ba610182565b3480156100e857600080fd5b506100786100f7366004610398565b610196565b34801561010857600080fd5b506100ba6101f5565b34801561011d57600080fd5b50610126610204565b60405161009c9190610441565b34801561013f57600080fd5b5061007861014e3660046103bb565b61020d565b61015b610271565b61016b610166610295565b6102a9565b565b60015481565b6000546001600160a01b031681565b60025461010090046001600160a01b031681565b6000546001600160a01b031633146101c95760405162461bcd60e51b81526004016101c090610481565b60405180910390fd5b600280546001600160a01b0390921661010002610100600160a81b031990921691909117905543600355565b60006101ff610295565b905090565b60025460ff1681565b6000546001600160a01b0316156102365760405162461bcd60e51b81526004016101c090610455565b600080546001600160a01b0319166001600160a01b03851617905560018290556002805460ff191682151517905561026c6102cd565b505050565b60025460ff16801561028857504360035460320111155b1561016b5761016b6102cd565b60025461010090046001600160a01b031690565b3660008037600080366000845af43d6000803e8080156102c8573d6000f35b3d6000fd5b60008054600154604051638b51f58b60e01b81526001600160a01b0390921691638b51f58b916102ff9160040161044c565b60606040518083038186803b15801561031757600080fd5b505afa15801561032b573d6000803e3d6000fd5b505050506040513d601f19601f8201168201806040525061034f9190810190610400565b6002549093506001600160a01b038085166101009092041614915061039190505760028054610100600160a81b0319166101006001600160a01b038416021790555b5043600355565b6000602082840312156103a9578081fd5b81356103b4816104b1565b9392505050565b6000806000606084860312156103cf578182fd5b83356103da816104b1565b925060208401359150604084013580151581146103f5578182fd5b809150509250925092565b600080600060608486031215610414578283fd5b835192506020840151915060408401516103f5816104b1565b6001600160a01b0391909116815260200190565b901515815260200190565b90815260200190565b602080825260129082015271141493d61657d053149150511657d253925560721b604082015260600190565b6020808252601690820152754d5553545f42455f4c4f4749435f524547495354525960501b604082015260600190565b6001600160a01b03811681146104c657600080fd5b5056fea365627a7a7231582077afba55674a3f600bb17b9b8debfcb68d093bee51c8f9e0eeed98915b75fb266c6578706572696d656e74616cf564736f6c63430005110040",
  "devdoc": {
    "author": "develop@teller.finance",
    "methods": {
      "implementation()": {
        "return": "Address of the current implementation"
      },
      "initialize(address,bytes32,bool)": {
        "params": {
          "aLogicName": "the settings contract address.",
          "aLogicRegistryAddress": "the settings contract address.",
          "isStrictDynamic": "Boolean indicating if the proxy must check the registry for a new implementation."
        }
      }
    }
  },
  "userdoc": {
    "methods": {
      "implementation()": {
        "notice": "Returns the current implementation."
      },
      "initialize(address,bytes32,bool)": {
        "notice": "It initializes a new dynamic proxy given a logic registry contract and a logic name."
      }
    },
    "notice": "It is a dynamic proxy contract for any contract. It uses the logic versions registry to get a logic contract address.It extends BaseUpgradeable to get access to the settings."
  },
  "storageLayout": {
    "storage": [
      {
        "astId": 11226,
        "contract": "contracts/base/proxies/InitializeableDynamicProxy.sol:InitializeableDynamicProxy",
        "label": "logicRegistry",
        "offset": 0,
        "slot": "0",
        "type": "t_contract(LogicVersionsRegistryInterface)11867"
      },
      {
        "astId": 11228,
        "contract": "contracts/base/proxies/InitializeableDynamicProxy.sol:InitializeableDynamicProxy",
        "label": "logicName",
        "offset": 0,
        "slot": "1",
        "type": "t_bytes32"
      },
      {
        "astId": 11230,
        "contract": "contracts/base/proxies/InitializeableDynamicProxy.sol:InitializeableDynamicProxy",
        "label": "strictDynamic",
        "offset": 0,
        "slot": "2",
        "type": "t_bool"
      },
      {
        "astId": 11232,
        "contract": "contracts/base/proxies/InitializeableDynamicProxy.sol:InitializeableDynamicProxy",
        "label": "implementationStored",
        "offset": 1,
        "slot": "2",
        "type": "t_address"
      },
      {
        "astId": 11234,
        "contract": "contracts/base/proxies/InitializeableDynamicProxy.sol:InitializeableDynamicProxy",
        "label": "_implementationBlockUpdated",
        "offset": 0,
        "slot": "3",
        "type": "t_uint256"
      }
    ],
    "types": {
      "t_address": {
        "encoding": "inplace",
        "label": "address",
        "numberOfBytes": "20"
      },
      "t_bool": {
        "encoding": "inplace",
        "label": "bool",
        "numberOfBytes": "1"
      },
      "t_bytes32": {
        "encoding": "inplace",
        "label": "bytes32",
        "numberOfBytes": "32"
      },
      "t_contract(LogicVersionsRegistryInterface)11867": {
        "encoding": "inplace",
        "label": "contract LogicVersionsRegistryInterface",
        "numberOfBytes": "20"
      },
      "t_uint256": {
        "encoding": "inplace",
        "label": "uint256",
        "numberOfBytes": "32"
      }
    }
  }
}