{
  "address": "0xdc4BbDE427E2BD91175aAF5DBA7Cd8CFf032DC17",
  "abi": [
    {
      "stateMutability": "payable",
      "type": "fallback"
    },
    {
      "inputs": [
        {
          "internalType": "address",
          "name": "beacon",
          "type": "address"
        },
        {
          "internalType": "bytes",
          "name": "data",
          "type": "bytes"
        }
      ],
      "name": "initialize",
      "outputs": [],
      "stateMutability": "payable",
      "type": "function"
    },
    {
      "stateMutability": "payable",
      "type": "receive"
    }
  ],
  "transactionHash": "0xcca4e4b61f0ae8f5217f5fd9396b3e9bece169896793f964a84f6f4456ccbfd0",
  "args": [],
  "solcInputHash": "6e721a7b5735a7c937ef1c7eb2929f1d",
  "bytecode": "0x608060405234801561001057600080fd5b50610641806100206000396000f3fe6080604052600436106100225760003560e01c8063d1f578941461003357610029565b3661002957005b610031610046565b005b61003161004136600461045f565b610058565b6100566100516100cd565b61016c565b565b61008360017fa3f0ad74e5423aebfd80d3ef4346578335a9a72aeaee59ff6cb3582b35133d5161056d565b7fa3f0ad74e5423aebfd80d3ef4346578335a9a72aeaee59ff6cb3582b35133d50146100bf57634e487b7160e01b600052600160045260246000fd5b6100c98282610195565b5050565b60006100f77fa3f0ad74e5423aebfd80d3ef4346578335a9a72aeaee59ff6cb3582b35133d505490565b6001600160a01b0316635c60da1b6040518163ffffffff1660e01b815260040160206040518083038186803b15801561012f57600080fd5b505afa158015610143573d6000803e3d6000fd5b505050506040513d601f19601f820116820180604052508101906101679190610443565b905090565b3660008037600080366000845af43d6000803e80801561018b573d6000f35b3d6000fd5b505050565b813b6101f65760405162461bcd60e51b815260206004820152602560248201527f426561636f6e50726f78793a20626561636f6e206973206e6f74206120636f6e6044820152641d1c9858dd60da1b60648201526084015b60405180910390fd5b610270826001600160a01b0316635c60da1b6040518163ffffffff1660e01b815260040160206040518083038186803b15801561023257600080fd5b505afa158015610246573d6000803e3d6000fd5b505050506040513d601f19601f8201168201806040525081019061026a9190610443565b3b151590565b6102d95760405162461bcd60e51b815260206004820152603460248201527f426561636f6e50726f78793a20626561636f6e20696d706c656d656e746174696044820152731bdb881a5cc81b9bdd08184818dbdb9d1c9858dd60621b60648201526084016101ed565b7fa3f0ad74e5423aebfd80d3ef4346578335a9a72aeaee59ff6cb3582b35133d508281558151156101905761032e61030f6100cd565b836040518060600160405280602181526020016105eb60219139610334565b50505050565b6060833b6103935760405162461bcd60e51b815260206004820152602660248201527f416464726573733a2064656c65676174652063616c6c20746f206e6f6e2d636f6044820152651b9d1c9858dd60d21b60648201526084016101ed565b600080856001600160a01b0316856040516103ae919061051e565b600060405180830381855af49150503d80600081146103e9576040519150601f19603f3d011682016040523d82523d6000602084013e6103ee565b606091505b50915091506103fe82828661040a565b925050505b9392505050565b60608315610419575081610403565b8251156104295782518084602001fd5b8160405162461bcd60e51b81526004016101ed919061053a565b600060208284031215610454578081fd5b8151610403816105d2565b60008060408385031215610471578081fd5b823561047c816105d2565b9150602083013567ffffffffffffffff80821115610498578283fd5b818501915085601f8301126104ab578283fd5b8135818111156104bd576104bd6105bc565b604051601f8201601f19908116603f011681019083821181831017156104e5576104e56105bc565b816040528281528860208487010111156104fd578586fd5b82602086016020830137856020848301015280955050505050509250929050565b60008251610530818460208701610590565b9190910192915050565b6000602082528251806020840152610559816040850160208701610590565b601f01601f19169190910160400192915050565b60008282101561058b57634e487b7160e01b81526011600452602481fd5b500390565b60005b838110156105ab578181015183820152602001610593565b8381111561032e5750506000910152565b634e487b7160e01b600052604160045260246000fd5b6001600160a01b03811681146105e757600080fd5b5056fe426561636f6e50726f78793a2066756e6374696f6e2063616c6c206661696c6564a264697066735822122095a8222b37c9b30fc242f4ca4113b00fb99abba411a89a011aea63d3d0621d0d64736f6c63430008030033",
  "devdoc": {
    "details": "This contract implements a proxy that gets the implementation address for each call from a {UpgradeableBeacon}. The beacon address is stored in storage slot `uint256(keccak256('eip1967.proxy.beacon')) - 1`, so that it doesn't conflict with the storage layout of the implementation behind the proxy. _Available since v3.4._",
    "kind": "dev",
    "methods": {
      "initialize(address,bytes)": {
        "details": "Initializes the proxy with `beacon`. If `data` is nonempty, it's used as data in a delegate call to the implementation returned by the beacon. This will typically be an encoded function call, and allows initializating the storage of the proxy like a Solidity constructor. Requirements: - `beacon` must be a contract with the interface {IBeacon}."
      }
    },
    "stateVariables": {
      "_BEACON_SLOT": {
        "details": "The storage slot of the UpgradeableBeacon contract which defines the implementation for this proxy. This is bytes32(uint256(keccak256('eip1967.proxy.beacon')) - 1)) and is validated in the constructor."
      }
    },
    "version": 1
  },
  "userdoc": {
    "kind": "user",
    "methods": {},
    "version": 1
  },
  "storageLayout": {
    "storage": [],
    "types": null
  }
}