{
  "address": "0x2609D42846ac64CA7E64F07dF74631c7F0d5D85d",
  "abi": [
    {
      "anonymous": false,
      "inputs": [
        {
          "indexed": true,
          "internalType": "address",
          "name": "sender",
          "type": "address"
        },
        {
          "indexed": true,
          "internalType": "address",
          "name": "oldInterestValidator",
          "type": "address"
        },
        {
          "indexed": true,
          "internalType": "address",
          "name": "newInterestValidator",
          "type": "address"
        }
      ],
      "name": "InterestValidatorUpdated",
      "type": "event"
    },
    {
      "anonymous": false,
      "inputs": [
        {
          "indexed": true,
          "internalType": "address",
          "name": "lender",
          "type": "address"
        },
        {
          "indexed": false,
          "internalType": "uint256",
          "name": "amount",
          "type": "uint256"
        }
      ],
      "name": "InterestWithdrawn",
      "type": "event"
    },
    {
      "anonymous": false,
      "inputs": [
        {
          "indexed": true,
          "internalType": "address",
          "name": "sender",
          "type": "address"
        },
        {
          "indexed": false,
          "internalType": "uint256",
          "name": "amount",
          "type": "uint256"
        },
        {
          "indexed": false,
          "internalType": "uint256",
          "name": "tTokenAmount",
          "type": "uint256"
        }
      ],
      "name": "TokenDeposited",
      "type": "event"
    },
    {
      "anonymous": false,
      "inputs": [
        {
          "indexed": true,
          "internalType": "address",
          "name": "borrower",
          "type": "address"
        },
        {
          "indexed": false,
          "internalType": "uint256",
          "name": "amount",
          "type": "uint256"
        }
      ],
      "name": "TokenRepaid",
      "type": "event"
    },
    {
      "anonymous": false,
      "inputs": [
        {
          "indexed": true,
          "internalType": "address",
          "name": "sender",
          "type": "address"
        },
        {
          "indexed": false,
          "internalType": "uint256",
          "name": "amount",
          "type": "uint256"
        },
        {
          "indexed": false,
          "internalType": "uint256",
          "name": "tTokenAmount",
          "type": "uint256"
        }
      ],
      "name": "TokenWithdrawn",
      "type": "event"
    },
    {
      "constant": true,
      "inputs": [],
      "name": "EXCHANGE_RATE_DECIMALS",
      "outputs": [
        {
          "internalType": "uint8",
          "name": "",
          "type": "uint8"
        }
      ],
      "payable": false,
      "stateMutability": "view",
      "type": "function"
    },
    {
      "constant": true,
      "inputs": [],
      "name": "assetSettings",
      "outputs": [
        {
          "internalType": "contract AssetSettingsInterface",
          "name": "",
          "type": "address"
        }
      ],
      "payable": false,
      "stateMutability": "view",
      "type": "function"
    },
    {
      "constant": false,
      "inputs": [
        {
          "internalType": "address",
          "name": "lender",
          "type": "address"
        }
      ],
      "name": "balanceOfUnderlying",
      "outputs": [
        {
          "internalType": "uint256",
          "name": "",
          "type": "uint256"
        }
      ],
      "payable": false,
      "stateMutability": "nonpayable",
      "type": "function"
    },
    {
      "constant": true,
      "inputs": [],
      "name": "cToken",
      "outputs": [
        {
          "internalType": "contract CErc20Interface",
          "name": "",
          "type": "address"
        }
      ],
      "payable": false,
      "stateMutability": "view",
      "type": "function"
    },
    {
      "constant": false,
      "inputs": [
        {
          "internalType": "uint256",
          "name": "amount",
          "type": "uint256"
        },
        {
          "internalType": "address",
          "name": "borrower",
          "type": "address"
        }
      ],
      "name": "createLoan",
      "outputs": [],
      "payable": false,
      "stateMutability": "nonpayable",
      "type": "function"
    },
    {
      "constant": false,
      "inputs": [
        {
          "internalType": "uint256",
          "name": "lendingTokenAmount",
          "type": "uint256"
        }
      ],
      "name": "deposit",
      "outputs": [],
      "payable": false,
      "stateMutability": "nonpayable",
      "type": "function"
    },
    {
      "constant": false,
      "inputs": [],
      "name": "exchangeRateCurrent",
      "outputs": [
        {
          "internalType": "uint256",
          "name": "",
          "type": "uint256"
        }
      ],
      "payable": false,
      "stateMutability": "nonpayable",
      "type": "function"
    },
    {
      "constant": true,
      "inputs": [],
      "name": "exchangeRateStored",
      "outputs": [
        {
          "internalType": "uint256",
          "name": "",
          "type": "uint256"
        }
      ],
      "payable": false,
      "stateMutability": "view",
      "type": "function"
    },
    {
      "constant": false,
      "inputs": [
        {
          "internalType": "address",
          "name": "lender",
          "type": "address"
        }
      ],
      "name": "getClaimableInterestEarned",
      "outputs": [
        {
          "internalType": "uint256",
          "name": "",
          "type": "uint256"
        }
      ],
      "payable": false,
      "stateMutability": "nonpayable",
      "type": "function"
    },
    {
      "constant": true,
      "inputs": [
        {
          "internalType": "uint256",
          "name": "loanAmount",
          "type": "uint256"
        }
      ],
      "name": "getDebtRatioFor",
      "outputs": [
        {
          "internalType": "uint256",
          "name": "",
          "type": "uint256"
        }
      ],
      "payable": false,
      "stateMutability": "view",
      "type": "function"
    },
    {
      "constant": false,
      "inputs": [
        {
          "internalType": "address",
          "name": "lender",
          "type": "address"
        }
      ],
      "name": "getLenderInterestEarned",
      "outputs": [
        {
          "internalType": "uint256",
          "name": "",
          "type": "uint256"
        }
      ],
      "payable": false,
      "stateMutability": "nonpayable",
      "type": "function"
    },
    {
      "constant": true,
      "inputs": [],
      "name": "getMarketState",
      "outputs": [
        {
          "internalType": "uint256",
          "name": "totalSupplied",
          "type": "uint256"
        },
        {
          "internalType": "uint256",
          "name": "totalBorrowed",
          "type": "uint256"
        },
        {
          "internalType": "uint256",
          "name": "totalRepaid",
          "type": "uint256"
        },
        {
          "internalType": "uint256",
          "name": "totalOnLoan",
          "type": "uint256"
        }
      ],
      "payable": false,
      "stateMutability": "view",
      "type": "function"
    },
    {
      "constant": false,
      "inputs": [],
      "name": "getMarketStateCurrent",
      "outputs": [
        {
          "internalType": "uint256",
          "name": "totalSupplied",
          "type": "uint256"
        },
        {
          "internalType": "uint256",
          "name": "totalBorrowed",
          "type": "uint256"
        },
        {
          "internalType": "uint256",
          "name": "totalRepaid",
          "type": "uint256"
        },
        {
          "internalType": "uint256",
          "name": "totalOnLoan",
          "type": "uint256"
        }
      ],
      "payable": false,
      "stateMutability": "nonpayable",
      "type": "function"
    },
    {
      "constant": true,
      "inputs": [],
      "name": "implementationStored",
      "outputs": [
        {
          "internalType": "address",
          "name": "",
          "type": "address"
        }
      ],
      "payable": false,
      "stateMutability": "view",
      "type": "function"
    },
    {
      "constant": false,
      "inputs": [
        {
          "internalType": "contract IMarketRegistry",
          "name": "aMarketRegistry",
          "type": "address"
        },
        {
          "internalType": "address",
          "name": "aLendingToken",
          "type": "address"
        },
        {
          "internalType": "address",
          "name": "aTToken",
          "type": "address"
        },
        {
          "internalType": "address",
          "name": "settingsAddress",
          "type": "address"
        }
      ],
      "name": "initialize",
      "outputs": [],
      "payable": false,
      "stateMutability": "nonpayable",
      "type": "function"
    },
    {
      "constant": true,
      "inputs": [],
      "name": "lendingToken",
      "outputs": [
        {
          "internalType": "contract ERC20Detailed",
          "name": "",
          "type": "address"
        }
      ],
      "payable": false,
      "stateMutability": "view",
      "type": "function"
    },
    {
      "constant": false,
      "inputs": [
        {
          "internalType": "uint256",
          "name": "tTokenAmount",
          "type": "uint256"
        }
      ],
      "name": "lendingTokensFromTTokens",
      "outputs": [
        {
          "internalType": "uint256",
          "name": "",
          "type": "uint256"
        }
      ],
      "payable": false,
      "stateMutability": "nonpayable",
      "type": "function"
    },
    {
      "constant": true,
      "inputs": [],
      "name": "logicName",
      "outputs": [
        {
          "internalType": "bytes32",
          "name": "",
          "type": "bytes32"
        }
      ],
      "payable": false,
      "stateMutability": "view",
      "type": "function"
    },
    {
      "constant": true,
      "inputs": [],
      "name": "logicRegistry",
      "outputs": [
        {
          "internalType": "contract LogicVersionsRegistryInterface",
          "name": "",
          "type": "address"
        }
      ],
      "payable": false,
      "stateMutability": "view",
      "type": "function"
    },
    {
      "constant": true,
      "inputs": [],
      "name": "marketRegistry",
      "outputs": [
        {
          "internalType": "contract IMarketRegistry",
          "name": "",
          "type": "address"
        }
      ],
      "payable": false,
      "stateMutability": "view",
      "type": "function"
    },
    {
      "constant": false,
      "inputs": [
        {
          "internalType": "uint256",
          "name": "principalAmount",
          "type": "uint256"
        },
        {
          "internalType": "uint256",
          "name": "interestAmount",
          "type": "uint256"
        },
        {
          "internalType": "address",
          "name": "borrower",
          "type": "address"
        }
      ],
      "name": "repay",
      "outputs": [],
      "payable": false,
      "stateMutability": "nonpayable",
      "type": "function"
    },
    {
      "constant": true,
      "inputs": [],
      "name": "settings",
      "outputs": [
        {
          "internalType": "contract SettingsInterface",
          "name": "",
          "type": "address"
        }
      ],
      "payable": false,
      "stateMutability": "view",
      "type": "function"
    },
    {
      "constant": true,
      "inputs": [],
      "name": "strictDynamic",
      "outputs": [
        {
          "internalType": "bool",
          "name": "",
          "type": "bool"
        }
      ],
      "payable": false,
      "stateMutability": "view",
      "type": "function"
    },
    {
      "constant": true,
      "inputs": [],
      "name": "tToken",
      "outputs": [
        {
          "internalType": "contract ITToken",
          "name": "",
          "type": "address"
        }
      ],
      "payable": false,
      "stateMutability": "view",
      "type": "function"
    },
    {
      "constant": false,
      "inputs": [
        {
          "internalType": "uint256",
          "name": "lendingTokenAmount",
          "type": "uint256"
        }
      ],
      "name": "tTokensFromLendingTokens",
      "outputs": [
        {
          "internalType": "uint256",
          "name": "",
          "type": "uint256"
        }
      ],
      "payable": false,
      "stateMutability": "nonpayable",
      "type": "function"
    },
    {
      "constant": true,
      "inputs": [],
      "name": "totalInterestEarned",
      "outputs": [
        {
          "internalType": "uint256",
          "name": "",
          "type": "uint256"
        }
      ],
      "payable": false,
      "stateMutability": "view",
      "type": "function"
    },
    {
      "constant": false,
      "inputs": [
        {
          "internalType": "address",
          "name": "newImplementation",
          "type": "address"
        }
      ],
      "name": "upgradeProxyTo",
      "outputs": [],
      "payable": false,
      "stateMutability": "nonpayable",
      "type": "function"
    },
    {
      "constant": false,
      "inputs": [
        {
          "internalType": "uint256",
          "name": "lendingTokenAmount",
          "type": "uint256"
        }
      ],
      "name": "withdraw",
      "outputs": [],
      "payable": false,
      "stateMutability": "nonpayable",
      "type": "function"
    },
    {
      "constant": false,
      "inputs": [],
      "name": "withdrawAll",
      "outputs": [
        {
          "internalType": "uint256",
          "name": "",
          "type": "uint256"
        }
      ],
      "payable": false,
      "stateMutability": "nonpayable",
      "type": "function"
    }
  ],
  "transactionHash": "0x73f2713b13f81ed50e45cc82cb8f6dd1794041f7eb226810e91f2b39bec7a0e6",
  "args": [],
  "solcInputHash": "3790d34ca1d72794863015ffe08f35de",
  "bytecode": "0x608060405234801561001057600080fd5b50612d09806100206000396000f3fe608060405234801561001057600080fd5b50600436106101cf5760003560e01c80639882597111610104578063b7d93f34116100a2578063e06174e411610071578063e06174e414610357578063e154e9a41461035f578063ecb96fe614610374578063f8c8765e1461037c576101cf565b8063b7d93f3414610337578063bd6d894d1461033f578063c35d64ea14610347578063d81657431461034f576101cf565b8063aaaca558116100de578063aaaca55814610301578063b1e8f8ef14610309578063b3076d001461031c578063b6b55f2514610324576101cf565b806398825971146102c35780639c21efa1146102db578063a47d4247146102ee576101cf565b80634f8654bc1161017157806369e527da1161014b57806369e527da1461028b5780637150697714610293578063853828b6146102a857806393704cc8146102b0576101cf565b80634f8654bc1461025d57806355dbd8eb146102655780636943d69d14610278576101cf565b80632c26486d116101ad5780632c26486d1461021a5780632e1a7d4d1461022257806337c3eedc146102355780633af9e6691461024a576101cf565b8063182df0f5146101d457806323053d1f146101f2578063272e848e14610205575b600080fd5b6101dc61038f565b6040516101e991906127c8565b60405180910390f35b6101dc61020036600461269f565b61039e565b6102186102133660046126cf565b6103b9565b005b6101dc610566565b61021861023036600461269f565b61056c565b61023d610748565b6040516101e99190612752565b6101dc6102583660046125ec565b610757565b61023d6107e6565b6102186102733660046125ec565b6107fa565b6101dc6102863660046125ec565b610850565b61023d610897565b61029b61091d565b6040516101e99190612c74565b6101dc610922565b6101dc6102be36600461269f565b610acb565b6102cb610b23565b6040516101e99493929190612c59565b6101dc6102e936600461269f565b610b47565b6101dc6102fc3660046125ec565b610b5a565b61023d610b68565b6102186103173660046126fe565b610b77565b61023d610d0e565b61021861033236600461269f565b610d1d565b6101dc610f81565b6101dc610f87565b61023d610f91565b6102cb610fa0565b61023d610fae565b610367610fbd565b6040516101e991906127bd565b61023d610fc6565b61021861038a366004612644565b610fd5565b6000610399611110565b905090565b60006103b1826103ac611122565b611134565b90505b919050565b601754600160a01b900460ff166103eb5760405162461bcd60e51b81526004016103e290612a58565b60405180910390fd5b6017805460ff60a01b1916905561040061116e565b3061040a8161120e565b156104275760405162461bcd60e51b81526004016103e290612839565b60048054604051636a3a61cd60e01b81526001600160a01b0390911691636a3a61cd9161045691339101612752565b60006040518083038186803b15801561046e57600080fd5b505afa158015610482573d6000803e3d6000fd5b50506010546040516370a0823160e01b8152600093506001600160a01b0390911691506370a08231906104b9903090600401612752565b60206040518083038186803b1580156104d157600080fd5b505afa1580156104e5573d6000803e3d6000fd5b505050506040513d601f19601f8201168201806040525061050991908101906126b7565b90508381101561052d5761052b610526858363ffffffff61129016565b6112d2565b505b61053783856114b7565b60135461054a908563ffffffff61157c16565b60135550506017805460ff60a01b1916600160a01b1790555050565b60015481565b601754600160a01b900460ff166105955760405162461bcd60e51b81526004016103e290612a58565b6017805460ff60a01b191690556105aa6115a1565b156105c75760405162461bcd60e51b81526004016103e2906129b4565b306105d18161120e565b156105ee5760405162461bcd60e51b81526004016103e290612839565b60048054604051636a3a61cd60e01b81526001600160a01b0390911691636a3a61cd9161061d91339101612752565b60006040518083038186803b15801561063557600080fd5b505afa158015610649573d6000803e3d6000fd5b505050506000610657611122565b905060006106658483611629565b9050600081116106875760405162461bcd60e51b81526004016103e290612926565b600f546040516370a0823160e01b815282916001600160a01b0316906370a08231906106b7903390600401612752565b60206040518083038186803b1580156106cf57600080fd5b505afa1580156106e3573d6000803e3d6000fd5b505050506040513d601f19601f8201168201806040525061070791908101906126b7565b116107245760405162461bcd60e51b81526004016103e2906129e0565b61072f84828461164e565b50506017805460ff60a01b1916600160a01b1790555050565b6000546001600160a01b031681565b600f546040516370a0823160e01b81526000916103b1916001600160a01b03909116906370a082319061078e908690600401612752565b60206040518083038186803b1580156107a657600080fd5b505afa1580156107ba573d6000803e3d6000fd5b505050506040513d601f19601f820116820180604052506107de91908101906126b7565b6103ac611122565b60025461010090046001600160a01b031681565b6000546001600160a01b031633146108245760405162461bcd60e51b81526004016103e290612c1b565b600280546001600160a01b0390921661010002610100600160a81b031990921691909117905543600355565b6000806108648361085f611122565b611882565b6001600160a01b038416600090815260156020526040902054909150610890908263ffffffff61157c16565b9392505050565b600480546010546040516326c7bd9360e01b81526000936001600160a01b03938416936326c7bd93936108cd9391169101612752565b60206040518083038186803b1580156108e557600080fd5b505afa1580156108f9573d6000803e3d6000fd5b505050506040513d601f19601f820116820180604052506103999190810190612608565b602481565b601754600090600160a01b900460ff1661094e5760405162461bcd60e51b81526004016103e290612a58565b6017805460ff60a01b191690556109636115a1565b156109805760405162461bcd60e51b81526004016103e2906129b4565b3061098a8161120e565b156109a75760405162461bcd60e51b81526004016103e290612839565b60048054604051636a3a61cd60e01b81526001600160a01b0390911691636a3a61cd916109d691339101612752565b60006040518083038186803b1580156109ee57600080fd5b505afa158015610a02573d6000803e3d6000fd5b5050600f546040516370a0823160e01b8152600093506001600160a01b0390911691506370a0823190610a39903390600401612752565b60206040518083038186803b158015610a5157600080fd5b505afa158015610a65573d6000803e3d6000fd5b505050506040513d601f19601f82011682018060405250610a8991908101906126b7565b90506000610a95611122565b90506000610aa38383611134565b9050610ab081848461164e565b93505050506017805460ff60a01b1916600160a01b17905590565b600080610ad6611944565b90508015610b1a57610b1581610b09601454610afd8760135461157c90919063ffffffff16565b9063ffffffff61129016565b9063ffffffff611ab516565b610890565b50600092915050565b600080600080610b31611ad3565b610b39611b59565b935093509350935090919293565b60006103b182610b55611122565b611629565b60006103b18261085f611122565b6010546001600160a01b031681565b601754600160a01b900460ff16610ba05760405162461bcd60e51b81526004016103e290612a58565b6017805460ff60a01b19169055610bb561116e565b30610bbf8161120e565b15610bdc5760405162461bcd60e51b81526004016103e290612839565b60048054604051636a3a61cd60e01b81526001600160a01b0390911691636a3a61cd91610c0b91339101612752565b60006040518083038186803b158015610c2357600080fd5b505afa158015610c37573d6000803e3d6000fd5b505050506000610c50848661157c90919063ffffffff16565b905060008111610c725760405162461bcd60e51b81526004016103e2906128cd565b610c7c8382611b8c565b50601454610c90908663ffffffff61157c16565b601455601654610ca6908563ffffffff61157c16565b601655610cb281611d68565b50826001600160a01b03167f4819c199ddf4c19bd6887c38dd715fbb8ef06fe379e6fbb356939d47affcb55782604051610cec91906127c8565b60405180910390a250506017805460ff60a01b1916600160a01b179055505050565b6017546001600160a01b031681565b601754600160a01b900460ff16610d465760405162461bcd60e51b81526004016103e290612a58565b6017805460ff60a01b19169055610d5b6115a1565b15610d785760405162461bcd60e51b81526004016103e2906129b4565b30610d828161120e565b15610d9f5760405162461bcd60e51b81526004016103e290612839565b60048054604051636a3a61cd60e01b81526001600160a01b0390911691636a3a61cd91610dce91339101612752565b60006040518083038186803b158015610de657600080fd5b505afa158015610dfa573d6000803e3d6000fd5b50505050610e06611ad3565b6000610e10611944565b9050610e1c3384611b8c565b60175460105460405163bf6d79ab60e01b81529295506001600160a01b039182169263bf6d79ab92610e52921690600401612752565b60206040518083038186803b158015610e6a57600080fd5b505afa158015610e7e573d6000803e3d6000fd5b505050506040513d601f19601f82011682018060405250610ea291908101906126b7565b610eb2828563ffffffff61157c16565b1115610ed05760405162461bcd60e51b81526004016103e29061298b565b33600090815260126020526040902054610ef0908463ffffffff61157c16565b33600090815260126020526040902055610f0983611d68565b506000610f1984610b5584611f8b565b9050610f2533826120bf565b336001600160a01b03167f1c83e520720711a18cf486e7e5a403bad3f020deb71d3326a4bbf507260e365f8583604051610f60929190612c4b565b60405180910390a250506017805460ff60a01b1916600160a01b1790555050565b60165481565b6000610399611122565b600f546001600160a01b031681565b600080600080610b39611b59565b6004546001600160a01b031681565b60025460ff1681565b6011546001600160a01b031681565b60408051808201909152601a81527f54544f4b454e5f414444524553535f49535f52455155495245440000000000006020820152611023906001600160a01b0384169063ffffffff61216316565b61102c8161218b565b601180546001600160a01b038087166001600160a01b031992831617909255600f8054858416908316179055601080548684169216919091179055600480546040805162b3076d60e81b81529051919093169263b3076d009281810192602092909190829003018186803b1580156110a357600080fd5b505afa1580156110b7573d6000803e3d6000fd5b505050506040513d601f19601f820116820180604052506110db9190810190612608565b6017805460ff60a01b196001600160a01b03939093166001600160a01b03199091161791909116600160a01b17905550505050565b600061039961111d611944565b611f8b565b600061112c611ad3565b610399611110565b60006111656ec097ce7bc90715b34b9f1000000000611159858563ffffffff6121fb16565b9063ffffffff61223516565b90505b92915050565b601154604051631a7a7ed560e11b81526001600160a01b03909116906334f4fdaa906111a0903090339060040161277f565b60206040518083038186803b1580156111b857600080fd5b505afa1580156111cc573d6000803e3d6000fd5b505050506040513d601f19601f820116820180604052506111f09190810190612624565b61120c5760405162461bcd60e51b81526004016103e290612aa8565b565b60048054604051633b66832160e01b81526000926001600160a01b0390921691633b6683219161124091869101612752565b60206040518083038186803b15801561125857600080fd5b505afa15801561126c573d6000803e3d6000fd5b505050506040513d601f19601f820116820180604052506103b19190810190612624565b600061116583836040518060400160405280601e81526020017f536166654d6174683a207375627472616374696f6e206f766572666c6f770000815250612277565b6000806112dd610897565b90506001600160a01b0381166112f75760009150506103b4565b6010546040516370a0823160e01b81526000916001600160a01b0316906370a0823190611328903090600401612752565b60206040518083038186803b15801561134057600080fd5b505afa158015611354573d6000803e3d6000fd5b505050506040513d601f19601f8201168201806040525061137891908101906126b7565b90506000826001600160a01b031663852a12e3866040518263ffffffff1660e01b81526004016113a891906127c8565b602060405180830381600087803b1580156113c257600080fd5b505af11580156113d6573d6000803e3d6000fd5b505050506040513d601f19601f820116820180604052506113fa91908101906126b7565b9050801561141a5760405162461bcd60e51b81526004016103e290612804565b6010546040516370a0823160e01b81526000916001600160a01b0316906370a082319061144b903090600401612752565b60206040518083038186803b15801561146357600080fd5b505afa158015611477573d6000803e3d6000fd5b505050506040513d601f19601f8201168201806040525061149b91908101906126b7565b90506114ad818463ffffffff61129016565b9695505050505050565b6010546040516370a0823160e01b81526000916001600160a01b0316906370a08231906114e8903090600401612752565b60206040518083038186803b15801561150057600080fd5b505afa158015611514573d6000803e3d6000fd5b505050506040513d601f19601f8201168201806040525061153891908101906126b7565b90508181101561155a5760405162461bcd60e51b81526004016103e290612baf565b601054611577906001600160a01b0316848463ffffffff6122a316565b505050565b6000828201838110156111655760405162461bcd60e51b81526004016103e290612896565b6000600460009054906101000a90046001600160a01b03166001600160a01b031663b187bd266040518163ffffffff1660e01b815260040160206040518083038186803b1580156115f157600080fd5b505afa158015611605573d6000803e3d6000fd5b505050506040513d601f19601f820116820180604052506103999190810190612624565b600061116582611159856ec097ce7bc90715b34b9f100000000063ffffffff6121fb16565b6010546040516370a0823160e01b81526000916001600160a01b0316906370a082319061167f903090600401612752565b60206040518083038186803b15801561169757600080fd5b505afa1580156116ab573d6000803e3d6000fd5b505050506040513d601f19601f820116820180604052506116cf91908101906126b7565b90506116e4610526858363ffffffff61129016565b5060006116f13384611882565b90506000818611156117455761170d868363ffffffff61129016565b33600090815260156020526040902054909150611730908363ffffffff61157c16565b33600090815260156020526040902055611776565b33600090815260156020526040902054611765908763ffffffff61157c16565b336000908152601560205260409020555b33600090815260126020526040902054611796908263ffffffff61129016565b336000818152601260205260409081902092909255600f549151632770a7eb60e21b81526001600160a01b0390921691639dc29fac916117da918990600401612766565b602060405180830381600087803b1580156117f457600080fd5b505af1158015611808573d6000803e3d6000fd5b505050506040513d601f19601f8201168201806040525061182c9190810190612624565b5061183733876114b7565b336001600160a01b03167f87941ed80175e66d99234a2a90bcf26c6dd49f0fd15c0fd5cb5d3d6acd9cabf78787604051611872929190612c4b565b60405180910390a2505050505050565b600f546040516370a0823160e01b8152600091829161190f916001600160a01b0316906370a08231906118b9908890600401612752565b60206040518083038186803b1580156118d157600080fd5b505afa1580156118e5573d6000803e3d6000fd5b505050506040513d601f19601f8201168201806040525061190991908101906126b7565b84611134565b6001600160a01b03851660009081526012602052604090205490915061193c90829063ffffffff61129016565b949350505050565b60006119ec61196060145460135461129090919063ffffffff16565b6010546040516370a0823160e01b81526001600160a01b03909116906370a0823190611990903090600401612752565b60206040518083038186803b1580156119a857600080fd5b505afa1580156119bc573d6000803e3d6000fd5b505050506040513d601f19601f820116820180604052506119e091908101906126b7565b9063ffffffff61157c16565b905060006119f8610897565b90506001600160a01b03811615611ab157611aae611aa1826001600160a01b03166370a08231306040518263ffffffff1660e01b8152600401611a3b9190612752565b60206040518083038186803b158015611a5357600080fd5b505afa158015611a67573d6000803e3d6000fd5b505050506040513d601f19601f82011682018060405250611a8b91908101906126b7565b6001600160a01b0384169063ffffffff6122fc16565b839063ffffffff61157c16565b91505b5090565b600061116582611159611ac661238e565b869063ffffffff6121fb16565b611adb610897565b60408051600481526024810182526020810180516001600160e01b031663a6afed9560e01b17905290516001600160a01b039290921691611b1c9190612736565b6000604051808303816000865af19150503d8060008114611577576040519150601f19603f3d011682016040523d82523d6000602084013e611577565b600080600080611b67611944565b60135460145491955093509150611b84838363ffffffff61129016565b905090919293565b6010546040516370a0823160e01b815260009182916001600160a01b03909116906370a0823190611bc1903090600401612752565b60206040518083038186803b158015611bd957600080fd5b505afa158015611bed573d6000803e3d6000fd5b505050506040513d601f19601f82011682018060405250611c1191908101906126b7565b601054604051636eb1769f60e11b81529192506000916001600160a01b039091169063dd62ed3e90611c49908890309060040161277f565b60206040518083038186803b158015611c6157600080fd5b505afa158015611c75573d6000803e3d6000fd5b505050506040513d601f19601f82011682018060405250611c9991908101906126b7565b905083811015611cbb5760405162461bcd60e51b81526004016103e290612954565b601054611cd9906001600160a01b031686308763ffffffff61239416565b6010546040516370a0823160e01b8152611d5f9184916001600160a01b03909116906370a0823190611d0f903090600401612752565b60206040518083038186803b158015611d2757600080fd5b505afa158015611d3b573d6000803e3d6000fd5b505050506040513d601f19601f82011682018060405250610afd91908101906126b7565b95945050505050565b600080611d73610897565b90506001600160a01b038116611d8d5760009150506103b4565b601054611daa906001600160a01b0316828563ffffffff6123be16565b6010546040516370a0823160e01b81526000916001600160a01b0316906370a0823190611ddb903090600401612752565b60206040518083038186803b158015611df357600080fd5b505afa158015611e07573d6000803e3d6000fd5b505050506040513d601f19601f82011682018060405250611e2b91908101906126b7565b90506000826001600160a01b031663a0712d68866040518263ffffffff1660e01b8152600401611e5b91906127c8565b602060405180830381600087803b158015611e7557600080fd5b505af1158015611e89573d6000803e3d6000fd5b505050506040513d601f19601f82011682018060405250611ead91908101906126b7565b90508015611ecd5760405162461bcd60e51b81526004016103e290612b29565b6010546040516370a0823160e01b81526000916001600160a01b0316906370a0823190611efe903090600401612752565b60206040518083038186803b158015611f1657600080fd5b505afa158015611f2a573d6000803e3d6000fd5b505050506040513d601f19601f82011682018060405250611f4e91908101906126b7565b9050611f60838263ffffffff61129016565b945060008511611f825760405162461bcd60e51b81526004016103e290612869565b50505050919050565b600f54604080516318160ddd60e01b815290516000926001600160a01b0316916318160ddd916004808301926020929190829003018186803b158015611fd057600080fd5b505afa158015611fe4573d6000803e3d6000fd5b505050506040513d601f19601f8201168201806040525061200891908101906126b7565b61202257506ec097ce7bc90715b34b9f10000000006103b4565b600f54604080516318160ddd60e01b815290516103b1926001600160a01b0316916318160ddd916004808301926020929190829003018186803b15801561206857600080fd5b505afa15801561207c573d6000803e3d6000fd5b505050506040513d601f19601f820116820180604052506120a091908101906126b7565b611159846ec097ce7bc90715b34b9f100000000063ffffffff6121fb16565b600f546040516340c10f1960e01b81526000916001600160a01b0316906340c10f19906120f29086908690600401612766565b602060405180830381600087803b15801561210c57600080fd5b505af1158015612120573d6000803e3d6000fd5b505050506040513d601f19601f820116820180604052506121449190810190612624565b9050806115775760405162461bcd60e51b81526004016103e290612a7c565b61216c82612484565b81906115775760405162461bcd60e51b81526004016103e291906127d1565b60408051808201909152601981527f53455454494e47535f4d5553545f42455f50524f56494445440000000000000060208201526121d9906001600160a01b0383169063ffffffff61216316565b600480546001600160a01b0319166001600160a01b0392909216919091179055565b60008261220a57506000611168565b8282028284828161221757fe5b04146111655760405162461bcd60e51b81526004016103e290612a17565b600061116583836040518060400160405280601a81526020017f536166654d6174683a206469766973696f6e206279207a65726f000000000000815250612492565b6000818484111561229b5760405162461bcd60e51b81526004016103e291906127d1565b505050900390565b60405161157790849063a9059cbb60e01b906122c59086908690602401612766565b60408051601f198184030181529190526020810180516001600160e01b03166001600160e01b0319909316929092179091526124c9565b60006123066125ae565b60ff16600a0a836001600160a01b031663182df0f56040518163ffffffff1660e01b815260040160206040518083038186803b15801561234557600080fd5b505afa158015612359573d6000803e3d6000fd5b505050506040513d601f19601f8201168201806040525061237d91908101906126b7565b83028161238657fe5b049392505050565b61271090565b6040516123b89085906323b872dd60e01b906122c590879087908790602401612799565b50505050565b8015806124465750604051636eb1769f60e11b81526001600160a01b0384169063dd62ed3e906123f4903090869060040161277f565b60206040518083038186803b15801561240c57600080fd5b505afa158015612420573d6000803e3d6000fd5b505050506040513d601f19601f8201168201806040525061244491908101906126b7565b155b6124625760405162461bcd60e51b81526004016103e290612b59565b60405161157790849063095ea7b360e01b906122c59086908690602401612766565b6001600160a01b0316151590565b600081836124b35760405162461bcd60e51b81526004016103e291906127d1565b5060008385816124bf57fe5b0495945050505050565b6124db826001600160a01b03166125b3565b6124f75760405162461bcd60e51b81526004016103e290612be4565b60006060836001600160a01b0316836040516125139190612736565b6000604051808303816000865af19150503d8060008114612550576040519150601f19603f3d011682016040523d82523d6000602084013e612555565b606091505b5091509150816125775760405162461bcd60e51b81526004016103e2906128f1565b8051156123b857808060200190516125929190810190612624565b6123b85760405162461bcd60e51b81526004016103e290612adf565b601290565b6000813f7fc5d2460186f7233c927e7db2dcc703c0e500b653ca82273b7bfad8045d85a47081811480159061193c575050151592915050565b6000602082840312156125fd578081fd5b813561116581612cae565b600060208284031215612619578081fd5b815161116581612cae565b600060208284031215612635578081fd5b81518015158114611165578182fd5b60008060008060808587031215612659578283fd5b843561266481612cae565b9350602085013561267481612cae565b9250604085013561268481612cae565b9150606085013561269481612cae565b939692955090935050565b6000602082840312156126b0578081fd5b5035919050565b6000602082840312156126c8578081fd5b5051919050565b600080604083850312156126e1578182fd5b8235915060208301356126f381612cae565b809150509250929050565b600080600060608486031215612712578283fd5b8335925060208401359150604084013561272b81612cae565b809150509250925092565b60008251612748818460208701612c82565b9190910192915050565b6001600160a01b0391909116815260200190565b6001600160a01b03929092168252602082015260400190565b6001600160a01b0392831681529116602082015260400190565b6001600160a01b039384168152919092166020820152604081019190915260600190565b901515815260200190565b90815260200190565b60006020825282518060208401526127f0816040850160208701612c82565b601f01601f19169190910160400192915050565b6020808252818101527f434f4d504f554e445f52454445454d5f554e4445524c59494e475f4552524f52604082015260600190565b60208082526016908201527513115391125391d7d413d3d317d254d7d4105554d15160521b604082015260600190565b60208082526013908201527211115413d4d25517d0d513d2d15397d11554d5606a1b604082015260600190565b6020808252601b908201527f536166654d6174683a206164646974696f6e206f766572666c6f770000000000604082015260600190565b6020808252600a908201526952455041595f5a45524f60b01b604082015260600190565b6020808252818101527f5361666545524332303a206c6f772d6c6576656c2063616c6c206661696c6564604082015260600190565b60208082526014908201527315d2551211149055d7d51513d2d15397d11554d560621b604082015260600190565b6020808252601f908201527f4c454e445f544f4b454e5f4e4f545f454e4f5547485f414c4c4f57414e434500604082015260600190565b6020808252600f908201526e13505617d5159317d4915050d21151608a1b604082015260600190565b602080825260129082015271141310551193d49357d254d7d4105554d15160721b604082015260600190565b60208082526019908201527f54544f4b454e5f4e4f545f454e4f5547485f42414c414e434500000000000000604082015260600190565b60208082526021908201527f536166654d6174683a206d756c7469706c69636174696f6e206f766572666c6f6040820152607760f81b606082015260800190565b6020808252600a90820152691c994b595b9d195c995960b21b604082015260600190565b602080825260129082015271151513d2d15397d352539517d1905253115160721b604082015260600190565b60208082526019908201527f43414c4c45525f4e4f545f4c4f414e535f434f4e545241435400000000000000604082015260600190565b6020808252602a908201527f5361666545524332303a204552433230206f7065726174696f6e20646964206e6040820152691bdd081cdd58d8d9595960b21b606082015260800190565b60208082526016908201527521a7a6a827aaa7222fa222a827a9a4aa2fa2a92927a960511b604082015260600190565b60208082526036908201527f5361666545524332303a20617070726f76652066726f6d206e6f6e2d7a65726f60408201527520746f206e6f6e2d7a65726f20616c6c6f77616e636560501b606082015260800190565b6020808252818101527f4c454e44494e475f544f4b454e5f4e4f545f454e4f5547485f42414c414e4345604082015260600190565b6020808252601f908201527f5361666545524332303a2063616c6c20746f206e6f6e2d636f6e747261637400604082015260600190565b6020808252601690820152754d5553545f42455f4c4f4749435f524547495354525960501b604082015260600190565b918252602082015260400190565b93845260208401929092526040830152606082015260800190565b60ff91909116815260200190565b60005b83811015612c9d578181015183820152602001612c85565b838111156123b85750506000910152565b6001600160a01b0381168114612cc357600080fd5b5056fea365627a7a72315820d7cdaa25952ae88fe167407340d1d8a891129d4804cebf5e757c25a557d6c8256c6578706572696d656e74616cf564736f6c63430005110040",
  "devdoc": {
    "author": "develop@teller.finance",
    "methods": {
      "balanceOfUnderlying(address)": {
        "return": "a lender's balance of the underlying token in the pool."
      },
      "cToken()": {
        "return": "Address of the cToken"
      },
      "createLoan(uint256,address)": {
        "details": "This function only can be invoked by the ILoanManager implementation.It withdraws the lending tokens from Compound before transferring tokens to the borrower.",
        "params": {
          "amount": "of tokens to transfer.",
          "borrower": "address which will receive the tokens."
        }
      },
      "deposit(uint256)": {
        "details": "the user must call ERC20.approve function previously.If the cToken is available (not 0x0), it deposits the lending token amount into Compound directly.",
        "params": {
          "lendingTokenAmount": "of tokens to deposit in the pool."
        }
      },
      "exchangeRateCurrent()": {
        "return": "the exchange rate for 1 TToken to the underlying token."
      },
      "exchangeRateStored()": {
        "return": "the exchange rate for 1 TToken to the underlying token."
      },
      "getClaimableInterestEarned(address)": {
        "return": "claimable interest value."
      },
      "getDebtRatioFor(uint256)": {
        "params": {
          "loanAmount": "a new loan amount to consider in the ratio."
        },
        "return": "the debt-to-supply ratio value."
      },
      "getLenderInterestEarned(address)": {
        "details": "This value includes already claimed + unclaimed interest earned.",
        "return": "total interest earned by lender."
      },
      "getMarketState()": {
        "return": "values that represent the global state across all markets."
      },
      "initialize(address,address,address,address)": {
        "details": "It throws a require error if the contract is already initialized.",
        "params": {
          "aLendingToken": "The underlying token that is used for lending.",
          "aMarketRegistry": "the MarketRegistry contract.",
          "aTToken": "the Teller token to link to the lending pool.",
          "settingsAddress": "Settings contract address."
        }
      },
      "repay(uint256,uint256,address)": {
        "details": "This function can be called ONLY by the LoanManager contract.It requires a ERC20.approve call before calling it.It throws a require error if borrower called ERC20.approve function before calling it.",
        "params": {
          "borrower": "address that is repaying the loan.",
          "interestAmount": "amount of tokens towards the interest.",
          "principalAmount": "amount of tokens towards the principal."
        }
      },
      "withdraw(uint256)": {
        "details": "If the cToken is available (not 0x0), it withdraws the lending tokens from Compound before transferring the tokens to the holder.",
        "params": {
          "lendingTokenAmount": "of tokens to withdraw."
        }
      }
    }
  },
  "userdoc": {
    "methods": {
      "balanceOfUnderlying(address)": {
        "notice": "It returns the balance of underlying tokens a lender owns with the amount of TTokens owned and the current exchange rate."
      },
      "cToken()": {
        "notice": "Returns the cToken in the lending pool"
      },
      "createLoan(uint256,address)": {
        "notice": "Once the loan is created, it transfers the amount of tokens to the borrower."
      },
      "deposit(uint256)": {
        "notice": "It allows users to deposit tokens into the pool."
      },
      "exchangeRateCurrent()": {
        "notice": "It calculates the current exchange rate for the TToken based on the total supply of the lending token."
      },
      "exchangeRateStored()": {
        "notice": "It calculates the stored exchange rate for the TToken based on the total supply of the lending token."
      },
      "getClaimableInterestEarned(address)": {
        "notice": "Returns the amount of claimable interest a lender has earned."
      },
      "getDebtRatioFor(uint256)": {
        "notice": "It gets the debt-to-supply (DtS) ratio for a given market, including a new loan amount.The formula to calculate DtS ratio (including a new loan amount) is: DtS = (SUM(total borrowed) - SUM(total repaid) + NewLoanAmount) / SUM(total supplied)The value has 2 decimal places. Example: 100 => 1%"
      },
      "getLenderInterestEarned(address)": {
        "notice": "Returns the total amount of interest earned by a lender."
      },
      "getMarketState()": {
        "notice": "It calculates the market state values across all markets."
      },
      "initialize(address,address,address,address)": {
        "notice": "It initializes the contract state variables."
      },
      "repay(uint256,uint256,address)": {
        "notice": "It allows a borrower repaying their loan."
      },
      "withdraw(uint256)": {
        "notice": "It allows any tToken holder to burn their tToken tokens and withdraw their tokens."
      }
    },
    "notice": "The LendingPool contract holds all of the tokens that lenders transfer into the protocol. It is the contract that lenders interact with to deposit and withdraw their tokens including interest."
  },
  "storageLayout": {
    "storage": [
      {
        "astId": 11226,
        "contract": "contracts/base/LendingPool.sol:LendingPool",
        "label": "logicRegistry",
        "offset": 0,
        "slot": "0",
        "type": "t_contract(LogicVersionsRegistryInterface)11867"
      },
      {
        "astId": 11228,
        "contract": "contracts/base/LendingPool.sol:LendingPool",
        "label": "logicName",
        "offset": 0,
        "slot": "1",
        "type": "t_bytes32"
      },
      {
        "astId": 11230,
        "contract": "contracts/base/LendingPool.sol:LendingPool",
        "label": "strictDynamic",
        "offset": 0,
        "slot": "2",
        "type": "t_bool"
      },
      {
        "astId": 11232,
        "contract": "contracts/base/LendingPool.sol:LendingPool",
        "label": "implementationStored",
        "offset": 1,
        "slot": "2",
        "type": "t_address"
      },
      {
        "astId": 11234,
        "contract": "contracts/base/LendingPool.sol:LendingPool",
        "label": "_implementationBlockUpdated",
        "offset": 0,
        "slot": "3",
        "type": "t_uint256"
      },
      {
        "astId": 1762,
        "contract": "contracts/base/LendingPool.sol:LendingPool",
        "label": "settings",
        "offset": 0,
        "slot": "4",
        "type": "t_contract(SettingsInterface)12172"
      },
      {
        "astId": 1766,
        "contract": "contracts/base/LendingPool.sol:LendingPool",
        "label": "__gap",
        "offset": 0,
        "slot": "5",
        "type": "t_array(t_uint256)10_storage"
      },
      {
        "astId": 1999,
        "contract": "contracts/base/LendingPool.sol:LendingPool",
        "label": "tToken",
        "offset": 0,
        "slot": "15",
        "type": "t_contract(ITToken)11635"
      },
      {
        "astId": 2001,
        "contract": "contracts/base/LendingPool.sol:LendingPool",
        "label": "lendingToken",
        "offset": 0,
        "slot": "16",
        "type": "t_contract(ERC20Detailed)1086"
      },
      {
        "astId": 2006,
        "contract": "contracts/base/LendingPool.sol:LendingPool",
        "label": "marketRegistry",
        "offset": 0,
        "slot": "17",
        "type": "t_contract(IMarketRegistry)11594"
      },
      {
        "astId": 2010,
        "contract": "contracts/base/LendingPool.sol:LendingPool",
        "label": "_totalSuppliedUnderlyingLender",
        "offset": 0,
        "slot": "18",
        "type": "t_mapping(t_address,t_uint256)"
      },
      {
        "astId": 2012,
        "contract": "contracts/base/LendingPool.sol:LendingPool",
        "label": "_totalBorrowed",
        "offset": 0,
        "slot": "19",
        "type": "t_uint256"
      },
      {
        "astId": 2014,
        "contract": "contracts/base/LendingPool.sol:LendingPool",
        "label": "_totalRepaid",
        "offset": 0,
        "slot": "20",
        "type": "t_uint256"
      },
      {
        "astId": 2018,
        "contract": "contracts/base/LendingPool.sol:LendingPool",
        "label": "_totalInterestEarnedLender",
        "offset": 0,
        "slot": "21",
        "type": "t_mapping(t_address,t_uint256)"
      },
      {
        "astId": 2020,
        "contract": "contracts/base/LendingPool.sol:LendingPool",
        "label": "totalInterestEarned",
        "offset": 0,
        "slot": "22",
        "type": "t_uint256"
      },
      {
        "astId": 2022,
        "contract": "contracts/base/LendingPool.sol:LendingPool",
        "label": "assetSettings",
        "offset": 0,
        "slot": "23",
        "type": "t_contract(AssetSettingsInterface)11401"
      },
      {
        "astId": 2024,
        "contract": "contracts/base/LendingPool.sol:LendingPool",
        "label": "_notEntered",
        "offset": 20,
        "slot": "23",
        "type": "t_bool"
      }
    ],
    "types": {
      "t_address": {
        "encoding": "inplace",
        "label": "address",
        "numberOfBytes": "20"
      },
      "t_array(t_uint256)10_storage": {
        "base": "t_uint256",
        "encoding": "inplace",
        "label": "uint256[10]",
        "numberOfBytes": "320"
      },
      "t_bool": {
        "encoding": "inplace",
        "label": "bool",
        "numberOfBytes": "1"
      },
      "t_bytes32": {
        "encoding": "inplace",
        "label": "bytes32",
        "numberOfBytes": "32"
      },
      "t_contract(AssetSettingsInterface)11401": {
        "encoding": "inplace",
        "label": "contract AssetSettingsInterface",
        "numberOfBytes": "20"
      },
      "t_contract(ERC20Detailed)1086": {
        "encoding": "inplace",
        "label": "contract ERC20Detailed",
        "numberOfBytes": "20"
      },
      "t_contract(IMarketRegistry)11594": {
        "encoding": "inplace",
        "label": "contract IMarketRegistry",
        "numberOfBytes": "20"
      },
      "t_contract(ITToken)11635": {
        "encoding": "inplace",
        "label": "contract ITToken",
        "numberOfBytes": "20"
      },
      "t_contract(LogicVersionsRegistryInterface)11867": {
        "encoding": "inplace",
        "label": "contract LogicVersionsRegistryInterface",
        "numberOfBytes": "20"
      },
      "t_contract(SettingsInterface)12172": {
        "encoding": "inplace",
        "label": "contract SettingsInterface",
        "numberOfBytes": "20"
      },
      "t_mapping(t_address,t_uint256)": {
        "encoding": "mapping",
        "key": "t_address",
        "label": "mapping(address => uint256)",
        "numberOfBytes": "32",
        "value": "t_uint256"
      },
      "t_uint256": {
        "encoding": "inplace",
        "label": "uint256",
        "numberOfBytes": "32"
      }
    }
  }
}