{
  "address": "0x94b873D8320e098Cc9b4F5b606847A058E390956",
  "abi": [
    {
      "anonymous": false,
      "inputs": [
        {
          "indexed": true,
          "internalType": "address",
          "name": "sender",
          "type": "address"
        },
        {
          "indexed": false,
          "internalType": "address",
          "name": "asset",
          "type": "address"
        }
      ],
      "name": "LendingPoolInitialized",
      "type": "event"
    },
    {
      "inputs": [
        {
          "internalType": "address",
          "name": "asset",
          "type": "address"
        }
      ],
      "name": "getTTokenFor",
      "outputs": [
        {
          "internalType": "address",
          "name": "tToken_",
          "type": "address"
        }
      ],
      "stateMutability": "view",
      "type": "function"
    },
    {
      "inputs": [
        {
          "internalType": "address",
          "name": "asset",
          "type": "address"
        },
        {
          "internalType": "address",
          "name": "tToken",
          "type": "address"
        }
      ],
      "name": "initLendingPool",
      "outputs": [],
      "stateMutability": "nonpayable",
      "type": "function"
    },
    {
      "inputs": [
        {
          "internalType": "address",
          "name": "asset",
          "type": "address"
        },
        {
          "internalType": "uint256",
          "name": "amount",
          "type": "uint256"
        }
      ],
      "name": "lendingPoolDeposit",
      "outputs": [],
      "stateMutability": "nonpayable",
      "type": "function"
    }
  ],
  "transactionHash": "0x606585194b163e15be36b4a2ac595486cb53f07bcd1fb9bd96f905be88504f86",
  "args": [],
  "solcInputHash": "b659a72f1aa150bf6b0a72f0b26a550c",
  "bytecode": "0x608060405234801561001057600080fd5b50610ba1806100206000396000f3fe608060405234801561001057600080fd5b50600436106100415760003560e01c80631e4d2992146100465780638a4f4f921461005b5780639912dde81461006e575b600080fd5b610059610054366004610a39565b61009d565b005b610059610069366004610a6b565b610205565b61008161007c366004610a1f565b6104f3565b6040516001600160a01b03909116815260200160405180910390f35b7fdf8b4c520ffe197c5343c6f5aec59570151ef9a492f2c624fd45ddde6135ec42336100c98282610504565b61011a5760405162461bcd60e51b815260206004820152601d60248201527f416363657373436f6e74726f6c3a206e6f7420617574686f72697a656400000060448201526064015b60405180910390fd5b600061012585610538565b6001600160a01b03161461018c5760405162461bcd60e51b815260206004820152602860248201527f54656c6c65723a206c656e64696e6720706f6f6c20616c726561647920696e696044820152671d1a585b1a5e995960c21b6064820152608401610111565b82610195610568565b6001600160a01b038681166000818152600893909301602090815260409384902080546001600160a01b0319169590931694909417909155905190815233917ff9fd6d57b1aaaeab2bfc4c1ab41e1b4973a5c3e7764d5b499168d1bfa0c2c384910160405180910390a250505050565b6000808061021281610591565b151514801561022c575080151561022883610591565b1515145b610235826105c8565b906102535760405162461bcd60e51b81526004016101119190610ae8565b507f50e75b23f8ec51bbcb044fe377457e835f3b5ccc7ebf69e80906452015dff607336102808282610504565b6102cc5760405162461bcd60e51b815260206004820152601d60248201527f416363657373436f6e74726f6c3a206e6f7420617574686f72697a65640000006044820152606401610111565b7f5bb6a25286bb8715dc575866da01fccb9319d7c050dc4a550830f9fd153b997c60008190527f7b305b6be5f275f648d05716597c483d754c2a242bd605feba3c64fb853605366020527f9acf82f2b98e95a6c5a3755f118cae333907de1a9d00a07da16fd2a5fc17a30b547f7b305b6be5f275f648d05716597c483d754c2a242bd605feba3c64fb853605349060ff16156103aa5760405162461bcd60e51b815260206004820152601860248201527f416363657373436f6e74726f6c3a207265656e746572656400000000000000006044820152606401610111565b60008281526002820160205260408120805460ff191660011790556103ce89610538565b90506001600160a01b0381166104325760405162461bcd60e51b8152602060048201526024808201527f54656c6c65723a206c656e64696e6720706f6f6c206e6f7420696e697469616c6044820152631a5e995960e21b6064820152608401610111565b61043e8933308b61062d565b61044989828a61069e565b6104d38133836001600160a01b031663a0712d688c6040518263ffffffff1660e01b815260040161047c91815260200190565b602060405180830381600087803b15801561049657600080fd5b505af11580156104aa573d6000803e3d6000fd5b505050506040513d601f19601f820116820180604052508101906104ce9190610ab4565b61075f565b50600091825260020160205260409020805460ff19169055505050505050565b60006104fe82610538565b92915050565b600061050e610794565b6000938452602090815260408085206001600160a01b039490941685529290525090205460ff1690565b6000610542610568565b6001600160a01b0392831660009081526008919091016020526040902054909116919050565b60007f0553069f1f0518e59f8623c18c83a1f987f2a0544d563e98dd803a7078142a855b905090565b60008181527f8d38b9c4a6bd39cbbed00b63fc26822c21f23355a1fa88e61a13a11b9bb3334a602052604090205460ff165b919050565b6060816105fd576040518060400160405280601081526020016f14185d5cd8589b194e881c185d5cd95960821b8152506104fe565b505060408051808201909152601481527314185d5cd8589b194e881b9bdd081c185d5cd95960621b602082015290565b6040516001600160a01b03808516602483015283166044820152606481018290526106989085906323b872dd60e01b906084015b60408051601f198184030181529190526020810180516001600160e01b03166001600160e01b0319909316929092179091526107bc565b50505050565b604051636eb1769f60e11b81523060048201526001600160a01b038381166024830152600091839186169063dd62ed3e9060440160206040518083038186803b1580156106ea57600080fd5b505afa1580156106fe573d6000803e3d6000fd5b505050506040513d601f19601f820116820180604052508101906107229190610ab4565b61072c9190610b1b565b6040516001600160a01b03851660248201526044810182905290915061069890859063095ea7b360e01b90606401610661565b6040516001600160a01b03831660248201526044810182905261078f90849063a9059cbb60e01b90606401610661565b505050565b60007f7b305b6be5f275f648d05716597c483d754c2a242bd605feba3c64fb8536053461058c565b6000610811826040518060400160405280602081526020017f5361666545524332303a206c6f772d6c6576656c2063616c6c206661696c6564815250856001600160a01b031661088e9092919063ffffffff16565b80519091501561078f578080602001905181019061082f9190610a94565b61078f5760405162461bcd60e51b815260206004820152602a60248201527f5361666545524332303a204552433230206f7065726174696f6e20646964206e6044820152691bdd081cdd58d8d9595960b21b6064820152608401610111565b606061089d84846000856108a7565b90505b9392505050565b6060824710156109085760405162461bcd60e51b815260206004820152602660248201527f416464726573733a20696e73756666696369656e742062616c616e636520666f6044820152651c8818d85b1b60d21b6064820152608401610111565b843b6109565760405162461bcd60e51b815260206004820152601d60248201527f416464726573733a2063616c6c20746f206e6f6e2d636f6e74726163740000006044820152606401610111565b600080866001600160a01b031685876040516109729190610acc565b60006040518083038185875af1925050503d80600081146109af576040519150601f19603f3d011682016040523d82523d6000602084013e6109b4565b606091505b50915091506109c48282866109cf565b979650505050505050565b606083156109de5750816108a0565b8251156109ee5782518084602001fd5b8160405162461bcd60e51b81526004016101119190610ae8565b80356001600160a01b03811681146105c357600080fd5b600060208284031215610a30578081fd5b6108a082610a08565b60008060408385031215610a4b578081fd5b610a5483610a08565b9150610a6260208401610a08565b90509250929050565b60008060408385031215610a7d578182fd5b610a8683610a08565b946020939093013593505050565b600060208284031215610aa5578081fd5b815180151581146108a0578182fd5b600060208284031215610ac5578081fd5b5051919050565b60008251610ade818460208701610b3f565b9190910192915050565b6000602082528251806020840152610b07816040850160208701610b3f565b601f01601f19169190910160400192915050565b60008219821115610b3a57634e487b7160e01b81526011600452602481fd5b500190565b60005b83811015610b5a578181015183820152602001610b42565b83811115610698575050600091015256fea2646970667358221220384643931e79a8098b5e4df35c4092b0f54059996bb5baf049abc31d20bd007664736f6c63430008030033",
  "devdoc": {
    "events": {
      "LendingPoolInitialized(address,address)": {
        "params": {
          "asset": "Token address the pool was initialized for.",
          "sender": "address."
        }
      }
    },
    "kind": "dev",
    "methods": {
      "getTTokenFor(address)": {
        "params": {
          "asset": "Address to get a Teller Token for."
        }
      },
      "lendingPoolDeposit(address,uint256)": {
        "details": "the user must call ERC20.approve function previously.If the cToken is available (not 0x0), it deposits the lending asset amount into Compound directly.",
        "params": {
          "amount": "Amount of {asset} to deposit in the pool.",
          "asset": "Token address to deposit into the lending pool."
        }
      }
    },
    "version": 1
  },
  "userdoc": {
    "events": {
      "LendingPoolInitialized(address,address)": {
        "notice": "This event is emitted when a new lending pool is initialized."
      }
    },
    "kind": "user",
    "methods": {
      "getTTokenFor(address)": {
        "notice": "Get the Teller Token address for an underlying asset."
      },
      "initLendingPool(address,address)": {
        "notice": "Initialized a new lending pool for {asset}"
      },
      "lendingPoolDeposit(address,uint256)": {
        "notice": "It allows users to deposit tokens into the pool."
      }
    },
    "version": 1
  },
  "storageLayout": {
    "storage": [],
    "types": null
  }
}