{
  "address": "0xaDfcEcfb62645f317b1c9513f75960d5B639094C",
  "abi": [
    {
      "anonymous": false,
      "inputs": [
        {
          "indexed": true,
          "internalType": "address",
          "name": "previousOwner",
          "type": "address"
        },
        {
          "indexed": true,
          "internalType": "address",
          "name": "newOwner",
          "type": "address"
        }
      ],
      "name": "OwnershipTransferred",
      "type": "event"
    },
    {
      "inputs": [
        {
          "internalType": "address",
          "name": "dappAddress",
          "type": "address"
        },
        {
          "internalType": "bytes",
          "name": "dappData",
          "type": "bytes"
        }
      ],
      "name": "callDapp",
      "outputs": [
        {
          "internalType": "bytes",
          "name": "resData_",
          "type": "bytes"
        }
      ],
      "stateMutability": "nonpayable",
      "type": "function"
    },
    {
      "inputs": [
        {
          "internalType": "address",
          "name": "token",
          "type": "address"
        },
        {
          "internalType": "address",
          "name": "to",
          "type": "address"
        },
        {
          "internalType": "uint256",
          "name": "amount",
          "type": "uint256"
        }
      ],
      "name": "claimToken",
      "outputs": [],
      "stateMutability": "nonpayable",
      "type": "function"
    },
    {
      "inputs": [],
      "name": "init",
      "outputs": [],
      "stateMutability": "nonpayable",
      "type": "function"
    },
    {
      "inputs": [],
      "name": "owner",
      "outputs": [
        {
          "internalType": "address",
          "name": "",
          "type": "address"
        }
      ],
      "stateMutability": "view",
      "type": "function"
    },
    {
      "inputs": [],
      "name": "renounceOwnership",
      "outputs": [],
      "stateMutability": "nonpayable",
      "type": "function"
    },
    {
      "inputs": [
        {
          "internalType": "address",
          "name": "token",
          "type": "address"
        },
        {
          "internalType": "address",
          "name": "spender",
          "type": "address"
        }
      ],
      "name": "setTokenAllowance",
      "outputs": [],
      "stateMutability": "nonpayable",
      "type": "function"
    },
    {
      "inputs": [
        {
          "internalType": "address",
          "name": "newOwner",
          "type": "address"
        }
      ],
      "name": "transferOwnership",
      "outputs": [],
      "stateMutability": "nonpayable",
      "type": "function"
    }
  ],
  "transactionHash": "0x7ae606c6ac16ba76e8237edffaea72031dc73b45f511c1b054bd7aa6a93f394d",
  "args": [],
  "solcInputHash": "68d48f71bec0b49e50af9b5c8246eeb7",
  "bytecode": "0x608060405234801561001057600080fd5b50610ad4806100206000396000f3fe608060405234801561001057600080fd5b506004361061007d5760003560e01c8063715018a61161005b578063715018a6146100d35780638da5cb5b146100db578063e1c7392a146100f6578063f2fde38b146100fe5761007d565b8063125bfb6614610082578063249e926a146100975780634331fa6e146100aa575b600080fd5b6100956100903660046108b7565b610111565b005b6100956100a5366004610885565b610154565b6100bd6100b83660046108f2565b610201565b6040516100ca91906109d8565b60405180910390f35b6100956102ab565b6033546040516001600160a01b0390911681526020016100ca565b61009561031f565b61009561010c36600461086b565b610329565b6033546001600160a01b031633146101445760405162461bcd60e51b815260040161013b90610a39565b60405180910390fd5b61014f838383610414565b505050565b6033546001600160a01b0316331461017e5760405162461bcd60e51b815260040161013b90610a39565b60405163095ea7b360e01b81526001600160a01b038281166004830152600019602483015283169063095ea7b390604401602060405180830381600087803b1580156101c957600080fd5b505af11580156101dd573d6000803e3d6000fd5b505050506040513d601f19601f8201168201806040525081019061014f9190610970565b6033546060906001600160a01b0316331461022e5760405162461bcd60e51b815260040161013b90610a39565b6102a38484848080601f0160208091040260200160405190810160405280939291908181526020018383808284376000920191909152505060408051808201909152601881527f54656c6c65723a20646170702063616c6c206661696c65640000000000000000602082015291506104669050565b949350505050565b6033546001600160a01b031633146102d55760405162461bcd60e51b815260040161013b90610a39565b6033546040516000916001600160a01b0316907f8be0079c531659141344cd1fd0a4f28419497f9722a3daafe3b4186f6b6457e0908390a3603380546001600160a01b0319169055565b61032761047c565b565b6033546001600160a01b031633146103535760405162461bcd60e51b815260040161013b90610a39565b6001600160a01b0381166103b85760405162461bcd60e51b815260206004820152602660248201527f4f776e61626c653a206e6577206f776e657220697320746865207a65726f206160448201526564647265737360d01b606482015260840161013b565b6033546040516001600160a01b038084169216907f8be0079c531659141344cd1fd0a4f28419497f9722a3daafe3b4186f6b6457e090600090a3603380546001600160a01b0319166001600160a01b0392909216919091179055565b604080516001600160a01b038416602482015260448082018490528251808303909101815260649091019091526020810180516001600160e01b031663a9059cbb60e01b17905261014f9084906104f8565b60606102a384846000856105ca565b9392505050565b600054610100900460ff1680610495575060005460ff16155b6104b15760405162461bcd60e51b815260040161013b906109eb565b600054610100900460ff161580156104d3576000805461ffff19166101011790555b6104db6106f9565b6104e3610763565b80156104f5576000805461ff00191690555b50565b600061054d826040518060400160405280602081526020017f5361666545524332303a206c6f772d6c6576656c2063616c6c206661696c6564815250856001600160a01b03166104669092919063ffffffff16565b80519091501561014f578080602001905181019061056b9190610970565b61014f5760405162461bcd60e51b815260206004820152602a60248201527f5361666545524332303a204552433230206f7065726174696f6e20646964206e6044820152691bdd081cdd58d8d9595960b21b606482015260840161013b565b60608247101561062b5760405162461bcd60e51b815260206004820152602660248201527f416464726573733a20696e73756666696369656e742062616c616e636520666f6044820152651c8818d85b1b60d21b606482015260840161013b565b61063485610811565b6106805760405162461bcd60e51b815260206004820152601d60248201527f416464726573733a2063616c6c20746f206e6f6e2d636f6e7472616374000000604482015260640161013b565b600080866001600160a01b0316858760405161069c91906109bc565b60006040518083038185875af1925050503d80600081146106d9576040519150601f19603f3d011682016040523d82523d6000602084013e6106de565b606091505b50915091506106ee82828661081b565b979650505050505050565b600054610100900460ff1680610712575060005460ff16155b61072e5760405162461bcd60e51b815260040161013b906109eb565b600054610100900460ff161580156104e3576000805461ffff191661010117905580156104f5576000805461ff001916905550565b600054610100900460ff168061077c575060005460ff16155b6107985760405162461bcd60e51b815260040161013b906109eb565b600054610100900460ff161580156107ba576000805461ffff19166101011790555b603380546001600160a01b0319163390811790915560405181906000907f8be0079c531659141344cd1fd0a4f28419497f9722a3daafe3b4186f6b6457e0908290a35080156104f5576000805461ff001916905550565b803b15155b919050565b6060831561082a575081610475565b82511561083a5782518084602001fd5b8160405162461bcd60e51b815260040161013b91906109d8565b80356001600160a01b038116811461081657600080fd5b60006020828403121561087c578081fd5b61047582610854565b60008060408385031215610897578081fd5b6108a083610854565b91506108ae60208401610854565b90509250929050565b6000806000606084860312156108cb578081fd5b6108d484610854565b92506108e260208501610854565b9150604084013590509250925092565b600080600060408486031215610906578283fd5b61090f84610854565b9250602084013567ffffffffffffffff8082111561092b578384fd5b818601915086601f83011261093e578384fd5b81358181111561094c578485fd5b87602082850101111561095d578485fd5b6020830194508093505050509250925092565b600060208284031215610981578081fd5b81518015158114610475578182fd5b600081518084526109a8816020860160208601610a6e565b601f01601f19169290920160200192915050565b600082516109ce818460208701610a6e565b9190910192915050565b6000602082526104756020830184610990565b6020808252602e908201527f496e697469616c697a61626c653a20636f6e747261637420697320616c72656160408201526d191e481a5b9a5d1a585b1a5e995960921b606082015260800190565b6020808252818101527f4f776e61626c653a2063616c6c6572206973206e6f7420746865206f776e6572604082015260600190565b60005b83811015610a89578181015183820152602001610a71565b83811115610a98576000848401525b5050505056fea26469706673582212202dd4c1391d4d307d04ea34de5a2af41d3b7d7fbe25a009bc183d0795f7af4bac64736f6c63430008030033",
  "devdoc": {
    "kind": "dev",
    "methods": {
      "owner()": {
        "details": "Returns the address of the current owner."
      },
      "renounceOwnership()": {
        "details": "Leaves the contract without owner. It will not be possible to call `onlyOwner` functions anymore. Can only be called by the current owner. NOTE: Renouncing ownership will leave the contract without an owner, thereby removing any functionality that is only available to the owner."
      },
      "transferOwnership(address)": {
        "details": "Transfers ownership of the contract to a new account (`newOwner`). Can only be called by the current owner."
      }
    },
    "version": 1
  },
  "userdoc": {
    "kind": "user",
    "methods": {},
    "version": 1
  },
  "storageLayout": {
    "storage": [
      {
        "astId": 591,
        "contract": "contracts/escrow/escrow/LoansEscrow_V1.sol:LoansEscrow_V1",
        "label": "_initialized",
        "offset": 0,
        "slot": "0",
        "type": "t_bool"
      },
      {
        "astId": 594,
        "contract": "contracts/escrow/escrow/LoansEscrow_V1.sol:LoansEscrow_V1",
        "label": "_initializing",
        "offset": 1,
        "slot": "0",
        "type": "t_bool"
      },
      {
        "astId": 2792,
        "contract": "contracts/escrow/escrow/LoansEscrow_V1.sol:LoansEscrow_V1",
        "label": "__gap",
        "offset": 0,
        "slot": "1",
        "type": "t_array(t_uint256)50_storage"
      },
      {
        "astId": 464,
        "contract": "contracts/escrow/escrow/LoansEscrow_V1.sol:LoansEscrow_V1",
        "label": "_owner",
        "offset": 0,
        "slot": "51",
        "type": "t_address"
      },
      {
        "astId": 583,
        "contract": "contracts/escrow/escrow/LoansEscrow_V1.sol:LoansEscrow_V1",
        "label": "__gap",
        "offset": 0,
        "slot": "52",
        "type": "t_array(t_uint256)49_storage"
      }
    ],
    "types": {
      "t_address": {
        "encoding": "inplace",
        "label": "address",
        "numberOfBytes": "20"
      },
      "t_array(t_uint256)49_storage": {
        "base": "t_uint256",
        "encoding": "inplace",
        "label": "uint256[49]",
        "numberOfBytes": "1568"
      },
      "t_array(t_uint256)50_storage": {
        "base": "t_uint256",
        "encoding": "inplace",
        "label": "uint256[50]",
        "numberOfBytes": "1600"
      },
      "t_bool": {
        "encoding": "inplace",
        "label": "bool",
        "numberOfBytes": "1"
      },
      "t_uint256": {
        "encoding": "inplace",
        "label": "uint256",
        "numberOfBytes": "32"
      }
    }
  }
}