{
  "address": "0xB8059286Eb518279Ec8F6F48b25455dd8de586B5",
  "abi": [
    {
      "anonymous": false,
      "inputs": [
        {
          "indexed": true,
          "internalType": "uint256",
          "name": "loanID",
          "type": "uint256"
        },
        {
          "indexed": true,
          "internalType": "address",
          "name": "borrower",
          "type": "address"
        },
        {
          "indexed": false,
          "internalType": "uint256",
          "name": "depositAmount",
          "type": "uint256"
        }
      ],
      "name": "CollateralDeposited",
      "type": "event"
    },
    {
      "anonymous": false,
      "inputs": [
        {
          "indexed": true,
          "internalType": "uint256",
          "name": "loanID",
          "type": "uint256"
        },
        {
          "indexed": true,
          "internalType": "address",
          "name": "borrower",
          "type": "address"
        },
        {
          "indexed": true,
          "internalType": "address",
          "name": "recipient",
          "type": "address"
        },
        {
          "indexed": false,
          "internalType": "uint256",
          "name": "amount",
          "type": "uint256"
        }
      ],
      "name": "CollateralWithdrawn",
      "type": "event"
    },
    {
      "anonymous": false,
      "inputs": [
        {
          "indexed": true,
          "internalType": "uint256",
          "name": "loanID",
          "type": "uint256"
        },
        {
          "indexed": true,
          "internalType": "address",
          "name": "borrower",
          "type": "address"
        },
        {
          "indexed": false,
          "internalType": "address",
          "name": "liquidator",
          "type": "address"
        },
        {
          "indexed": false,
          "internalType": "int256",
          "name": "collateralOut",
          "type": "int256"
        },
        {
          "indexed": false,
          "internalType": "uint256",
          "name": "tokensIn",
          "type": "uint256"
        }
      ],
      "name": "LoanLiquidated",
      "type": "event"
    },
    {
      "anonymous": false,
      "inputs": [
        {
          "indexed": true,
          "internalType": "uint256",
          "name": "loanID",
          "type": "uint256"
        },
        {
          "indexed": true,
          "internalType": "address",
          "name": "borrower",
          "type": "address"
        },
        {
          "indexed": false,
          "internalType": "uint256",
          "name": "amountPaid",
          "type": "uint256"
        },
        {
          "indexed": false,
          "internalType": "address",
          "name": "payer",
          "type": "address"
        }
      ],
      "name": "LoanRepaid",
      "type": "event"
    },
    {
      "anonymous": false,
      "inputs": [
        {
          "indexed": true,
          "internalType": "uint256",
          "name": "loanID",
          "type": "uint256"
        },
        {
          "indexed": true,
          "internalType": "address",
          "name": "borrower",
          "type": "address"
        },
        {
          "indexed": true,
          "internalType": "address",
          "name": "escrow",
          "type": "address"
        },
        {
          "indexed": false,
          "internalType": "uint256",
          "name": "amountBorrowed",
          "type": "uint256"
        }
      ],
      "name": "LoanTakenOut",
      "type": "event"
    },
    {
      "anonymous": false,
      "inputs": [
        {
          "indexed": true,
          "internalType": "uint256",
          "name": "loanID",
          "type": "uint256"
        },
        {
          "indexed": true,
          "internalType": "address",
          "name": "borrower",
          "type": "address"
        },
        {
          "indexed": true,
          "internalType": "address",
          "name": "recipient",
          "type": "address"
        }
      ],
      "name": "LoanTermsSet",
      "type": "event"
    },
    {
      "constant": true,
      "inputs": [],
      "name": "LOAN_DATA_LOGIC_NAME",
      "outputs": [
        {
          "internalType": "bytes32",
          "name": "",
          "type": "bytes32"
        }
      ],
      "payable": false,
      "stateMutability": "view",
      "type": "function"
    },
    {
      "constant": true,
      "inputs": [],
      "name": "LOAN_TERMS_CONSENSUS_LOGIC_NAME",
      "outputs": [
        {
          "internalType": "bytes32",
          "name": "",
          "type": "bytes32"
        }
      ],
      "payable": false,
      "stateMutability": "view",
      "type": "function"
    },
    {
      "constant": false,
      "inputs": [
        {
          "internalType": "address",
          "name": "account",
          "type": "address"
        }
      ],
      "name": "addSigner",
      "outputs": [],
      "payable": false,
      "stateMutability": "nonpayable",
      "type": "function"
    },
    {
      "constant": false,
      "inputs": [
        {
          "internalType": "address[]",
          "name": "accounts",
          "type": "address[]"
        }
      ],
      "name": "addSigners",
      "outputs": [],
      "payable": false,
      "stateMutability": "nonpayable",
      "type": "function"
    },
    {
      "constant": true,
      "inputs": [],
      "name": "assetSettings",
      "outputs": [
        {
          "internalType": "contract AssetSettingsInterface",
          "name": "",
          "type": "address"
        }
      ],
      "payable": false,
      "stateMutability": "view",
      "type": "function"
    },
    {
      "constant": true,
      "inputs": [],
      "name": "cToken",
      "outputs": [
        {
          "internalType": "contract CErc20Interface",
          "name": "",
          "type": "address"
        }
      ],
      "payable": false,
      "stateMutability": "view",
      "type": "function"
    },
    {
      "constant": true,
      "inputs": [
        {
          "internalType": "uint256",
          "name": "loanID",
          "type": "uint256"
        }
      ],
      "name": "canGoToEOA",
      "outputs": [
        {
          "internalType": "bool",
          "name": "",
          "type": "bool"
        }
      ],
      "payable": false,
      "stateMutability": "view",
      "type": "function"
    },
    {
      "constant": true,
      "inputs": [],
      "name": "collateralToken",
      "outputs": [
        {
          "internalType": "address",
          "name": "",
          "type": "address"
        }
      ],
      "payable": false,
      "stateMutability": "view",
      "type": "function"
    },
    {
      "constant": false,
      "inputs": [
        {
          "components": [
            {
              "internalType": "address payable",
              "name": "borrower",
              "type": "address"
            },
            {
              "internalType": "address",
              "name": "recipient",
              "type": "address"
            },
            {
              "internalType": "address",
              "name": "consensusAddress",
              "type": "address"
            },
            {
              "internalType": "uint256",
              "name": "requestNonce",
              "type": "uint256"
            },
            {
              "internalType": "uint256",
              "name": "amount",
              "type": "uint256"
            },
            {
              "internalType": "uint256",
              "name": "duration",
              "type": "uint256"
            },
            {
              "internalType": "uint256",
              "name": "requestTime",
              "type": "uint256"
            }
          ],
          "internalType": "struct TellerCommon.LoanRequest",
          "name": "request",
          "type": "tuple"
        },
        {
          "components": [
            {
              "internalType": "address",
              "name": "signer",
              "type": "address"
            },
            {
              "internalType": "address",
              "name": "consensusAddress",
              "type": "address"
            },
            {
              "internalType": "uint256",
              "name": "responseTime",
              "type": "uint256"
            },
            {
              "internalType": "uint256",
              "name": "interestRate",
              "type": "uint256"
            },
            {
              "internalType": "uint256",
              "name": "collateralRatio",
              "type": "uint256"
            },
            {
              "internalType": "uint256",
              "name": "maxLoanAmount",
              "type": "uint256"
            },
            {
              "components": [
                {
                  "internalType": "uint8",
                  "name": "v",
                  "type": "uint8"
                },
                {
                  "internalType": "bytes32",
                  "name": "r",
                  "type": "bytes32"
                },
                {
                  "internalType": "bytes32",
                  "name": "s",
                  "type": "bytes32"
                }
              ],
              "internalType": "struct TellerCommon.Signature",
              "name": "signature",
              "type": "tuple"
            }
          ],
          "internalType": "struct TellerCommon.LoanResponse[]",
          "name": "responses",
          "type": "tuple[]"
        },
        {
          "internalType": "uint256",
          "name": "collateralAmount",
          "type": "uint256"
        }
      ],
      "name": "createLoanWithTerms",
      "outputs": [],
      "payable": true,
      "stateMutability": "payable",
      "type": "function"
    },
    {
      "constant": false,
      "inputs": [
        {
          "internalType": "address",
          "name": "imp",
          "type": "address"
        },
        {
          "internalType": "bytes",
          "name": "sigWithData",
          "type": "bytes"
        }
      ],
      "name": "delegateTo",
      "outputs": [
        {
          "internalType": "bytes",
          "name": "returnData",
          "type": "bytes"
        }
      ],
      "payable": false,
      "stateMutability": "nonpayable",
      "type": "function"
    },
    {
      "constant": false,
      "inputs": [
        {
          "internalType": "address",
          "name": "borrower",
          "type": "address"
        },
        {
          "internalType": "uint256",
          "name": "loanID",
          "type": "uint256"
        },
        {
          "internalType": "uint256",
          "name": "amount",
          "type": "uint256"
        }
      ],
      "name": "depositCollateral",
      "outputs": [],
      "payable": true,
      "stateMutability": "payable",
      "type": "function"
    },
    {
      "constant": true,
      "inputs": [
        {
          "internalType": "address",
          "name": "borrower",
          "type": "address"
        }
      ],
      "name": "getBorrowerLoans",
      "outputs": [
        {
          "internalType": "uint256[]",
          "name": "",
          "type": "uint256[]"
        }
      ],
      "payable": false,
      "stateMutability": "view",
      "type": "function"
    },
    {
      "constant": true,
      "inputs": [
        {
          "internalType": "uint256",
          "name": "loanID",
          "type": "uint256"
        }
      ],
      "name": "getCollateralInLendingTokens",
      "outputs": [
        {
          "internalType": "uint256",
          "name": "",
          "type": "uint256"
        }
      ],
      "payable": false,
      "stateMutability": "view",
      "type": "function"
    },
    {
      "constant": true,
      "inputs": [
        {
          "internalType": "uint256",
          "name": "loanID",
          "type": "uint256"
        }
      ],
      "name": "getCollateralNeededInTokens",
      "outputs": [
        {
          "internalType": "int256",
          "name": "",
          "type": "int256"
        },
        {
          "internalType": "uint256",
          "name": "",
          "type": "uint256"
        }
      ],
      "payable": false,
      "stateMutability": "view",
      "type": "function"
    },
    {
      "constant": true,
      "inputs": [
        {
          "internalType": "uint256",
          "name": "loanID",
          "type": "uint256"
        }
      ],
      "name": "getCollateralNeededInfo",
      "outputs": [
        {
          "internalType": "int256",
          "name": "",
          "type": "int256"
        },
        {
          "internalType": "int256",
          "name": "",
          "type": "int256"
        },
        {
          "internalType": "uint256",
          "name": "",
          "type": "uint256"
        }
      ],
      "payable": false,
      "stateMutability": "view",
      "type": "function"
    },
    {
      "constant": true,
      "inputs": [
        {
          "internalType": "uint256",
          "name": "loanID",
          "type": "uint256"
        },
        {
          "internalType": "uint256",
          "name": "amountBorrow",
          "type": "uint256"
        }
      ],
      "name": "getInterestOwedFor",
      "outputs": [
        {
          "internalType": "uint256",
          "name": "",
          "type": "uint256"
        }
      ],
      "payable": false,
      "stateMutability": "view",
      "type": "function"
    },
    {
      "constant": true,
      "inputs": [
        {
          "internalType": "uint256",
          "name": "loanID",
          "type": "uint256"
        }
      ],
      "name": "getInterestRatio",
      "outputs": [
        {
          "internalType": "uint256",
          "name": "",
          "type": "uint256"
        }
      ],
      "payable": false,
      "stateMutability": "view",
      "type": "function"
    },
    {
      "constant": true,
      "inputs": [
        {
          "internalType": "uint256",
          "name": "loanID",
          "type": "uint256"
        }
      ],
      "name": "getLiquidationReward",
      "outputs": [
        {
          "internalType": "int256",
          "name": "",
          "type": "int256"
        }
      ],
      "payable": false,
      "stateMutability": "view",
      "type": "function"
    },
    {
      "constant": true,
      "inputs": [
        {
          "internalType": "uint256",
          "name": "loanID",
          "type": "uint256"
        }
      ],
      "name": "getLoanAmount",
      "outputs": [
        {
          "internalType": "uint256",
          "name": "",
          "type": "uint256"
        }
      ],
      "payable": false,
      "stateMutability": "view",
      "type": "function"
    },
    {
      "constant": true,
      "inputs": [
        {
          "internalType": "uint256",
          "name": "loanID",
          "type": "uint256"
        }
      ],
      "name": "getTotalOwed",
      "outputs": [
        {
          "internalType": "uint256",
          "name": "",
          "type": "uint256"
        }
      ],
      "payable": false,
      "stateMutability": "view",
      "type": "function"
    },
    {
      "constant": true,
      "inputs": [],
      "name": "implementationStored",
      "outputs": [
        {
          "internalType": "address",
          "name": "",
          "type": "address"
        }
      ],
      "payable": false,
      "stateMutability": "view",
      "type": "function"
    },
    {
      "constant": false,
      "inputs": [
        {
          "internalType": "address",
          "name": "lendingPoolAddress",
          "type": "address"
        },
        {
          "internalType": "address",
          "name": "settingsAddress",
          "type": "address"
        },
        {
          "internalType": "address",
          "name": "collateralTokenAddress",
          "type": "address"
        },
        {
          "internalType": "address",
          "name": "initDynamicProxyLogicAddress",
          "type": "address"
        }
      ],
      "name": "initialize",
      "outputs": [],
      "payable": false,
      "stateMutability": "nonpayable",
      "type": "function"
    },
    {
      "constant": true,
      "inputs": [
        {
          "internalType": "uint256",
          "name": "loanID",
          "type": "uint256"
        }
      ],
      "name": "isActiveOrSet",
      "outputs": [
        {
          "internalType": "bool",
          "name": "",
          "type": "bool"
        }
      ],
      "payable": false,
      "stateMutability": "view",
      "type": "function"
    },
    {
      "constant": true,
      "inputs": [
        {
          "internalType": "uint256",
          "name": "loanID",
          "type": "uint256"
        }
      ],
      "name": "isLiquidable",
      "outputs": [
        {
          "internalType": "bool",
          "name": "",
          "type": "bool"
        }
      ],
      "payable": false,
      "stateMutability": "view",
      "type": "function"
    },
    {
      "constant": true,
      "inputs": [
        {
          "internalType": "uint256",
          "name": "loanID",
          "type": "uint256"
        }
      ],
      "name": "isLoanSecured",
      "outputs": [
        {
          "internalType": "bool",
          "name": "",
          "type": "bool"
        }
      ],
      "payable": false,
      "stateMutability": "view",
      "type": "function"
    },
    {
      "constant": true,
      "inputs": [],
      "name": "lendingPool",
      "outputs": [
        {
          "internalType": "contract LendingPoolInterface",
          "name": "",
          "type": "address"
        }
      ],
      "payable": false,
      "stateMutability": "view",
      "type": "function"
    },
    {
      "constant": true,
      "inputs": [],
      "name": "lendingToken",
      "outputs": [
        {
          "internalType": "address",
          "name": "",
          "type": "address"
        }
      ],
      "payable": false,
      "stateMutability": "view",
      "type": "function"
    },
    {
      "constant": false,
      "inputs": [
        {
          "internalType": "uint256",
          "name": "loanID",
          "type": "uint256"
        }
      ],
      "name": "liquidateLoan",
      "outputs": [],
      "payable": false,
      "stateMutability": "nonpayable",
      "type": "function"
    },
    {
      "constant": true,
      "inputs": [],
      "name": "loanIDCounter",
      "outputs": [
        {
          "internalType": "uint256",
          "name": "",
          "type": "uint256"
        }
      ],
      "payable": false,
      "stateMutability": "view",
      "type": "function"
    },
    {
      "constant": true,
      "inputs": [
        {
          "internalType": "uint256",
          "name": "",
          "type": "uint256"
        }
      ],
      "name": "loans",
      "outputs": [
        {
          "internalType": "uint256",
          "name": "id",
          "type": "uint256"
        },
        {
          "components": [
            {
              "internalType": "address payable",
              "name": "borrower",
              "type": "address"
            },
            {
              "internalType": "address",
              "name": "recipient",
              "type": "address"
            },
            {
              "internalType": "uint256",
              "name": "interestRate",
              "type": "uint256"
            },
            {
              "internalType": "uint256",
              "name": "collateralRatio",
              "type": "uint256"
            },
            {
              "internalType": "uint256",
              "name": "maxLoanAmount",
              "type": "uint256"
            },
            {
              "internalType": "uint256",
              "name": "duration",
              "type": "uint256"
            }
          ],
          "internalType": "struct TellerCommon.LoanTerms",
          "name": "loanTerms",
          "type": "tuple"
        },
        {
          "internalType": "uint256",
          "name": "termsExpiry",
          "type": "uint256"
        },
        {
          "internalType": "uint256",
          "name": "loanStartTime",
          "type": "uint256"
        },
        {
          "internalType": "uint256",
          "name": "collateral",
          "type": "uint256"
        },
        {
          "internalType": "uint256",
          "name": "lastCollateralIn",
          "type": "uint256"
        },
        {
          "internalType": "uint256",
          "name": "principalOwed",
          "type": "uint256"
        },
        {
          "internalType": "uint256",
          "name": "interestOwed",
          "type": "uint256"
        },
        {
          "internalType": "uint256",
          "name": "borrowedAmount",
          "type": "uint256"
        },
        {
          "internalType": "address",
          "name": "escrow",
          "type": "address"
        },
        {
          "internalType": "enum TellerCommon.LoanStatus",
          "name": "status",
          "type": "uint8"
        },
        {
          "internalType": "bool",
          "name": "liquidated",
          "type": "bool"
        }
      ],
      "payable": false,
      "stateMutability": "view",
      "type": "function"
    },
    {
      "constant": true,
      "inputs": [],
      "name": "logicName",
      "outputs": [
        {
          "internalType": "bytes32",
          "name": "",
          "type": "bytes32"
        }
      ],
      "payable": false,
      "stateMutability": "view",
      "type": "function"
    },
    {
      "constant": true,
      "inputs": [],
      "name": "logicRegistry",
      "outputs": [
        {
          "internalType": "contract LogicVersionsRegistryInterface",
          "name": "",
          "type": "address"
        }
      ],
      "payable": false,
      "stateMutability": "view",
      "type": "function"
    },
    {
      "constant": true,
      "inputs": [
        {
          "components": [
            {
              "internalType": "address payable",
              "name": "borrower",
              "type": "address"
            },
            {
              "internalType": "address",
              "name": "recipient",
              "type": "address"
            },
            {
              "internalType": "address",
              "name": "consensusAddress",
              "type": "address"
            },
            {
              "internalType": "uint256",
              "name": "requestNonce",
              "type": "uint256"
            },
            {
              "internalType": "uint256",
              "name": "amount",
              "type": "uint256"
            },
            {
              "internalType": "uint256",
              "name": "duration",
              "type": "uint256"
            },
            {
              "internalType": "uint256",
              "name": "requestTime",
              "type": "uint256"
            }
          ],
          "internalType": "struct TellerCommon.LoanRequest",
          "name": "request",
          "type": "tuple"
        },
        {
          "components": [
            {
              "internalType": "address",
              "name": "signer",
              "type": "address"
            },
            {
              "internalType": "address",
              "name": "consensusAddress",
              "type": "address"
            },
            {
              "internalType": "uint256",
              "name": "responseTime",
              "type": "uint256"
            },
            {
              "internalType": "uint256",
              "name": "interestRate",
              "type": "uint256"
            },
            {
              "internalType": "uint256",
              "name": "collateralRatio",
              "type": "uint256"
            },
            {
              "internalType": "uint256",
              "name": "maxLoanAmount",
              "type": "uint256"
            },
            {
              "components": [
                {
                  "internalType": "uint8",
                  "name": "v",
                  "type": "uint8"
                },
                {
                  "internalType": "bytes32",
                  "name": "r",
                  "type": "bytes32"
                },
                {
                  "internalType": "bytes32",
                  "name": "s",
                  "type": "bytes32"
                }
              ],
              "internalType": "struct TellerCommon.Signature",
              "name": "signature",
              "type": "tuple"
            }
          ],
          "internalType": "struct TellerCommon.LoanResponse[]",
          "name": "responses",
          "type": "tuple[]"
        }
      ],
      "name": "processLoanTerms",
      "outputs": [
        {
          "internalType": "uint256",
          "name": "",
          "type": "uint256"
        },
        {
          "internalType": "uint256",
          "name": "",
          "type": "uint256"
        },
        {
          "internalType": "uint256",
          "name": "",
          "type": "uint256"
        }
      ],
      "payable": false,
      "stateMutability": "view",
      "type": "function"
    },
    {
      "constant": false,
      "inputs": [
        {
          "internalType": "uint256",
          "name": "amount",
          "type": "uint256"
        },
        {
          "internalType": "uint256",
          "name": "loanID",
          "type": "uint256"
        }
      ],
      "name": "repay",
      "outputs": [],
      "payable": false,
      "stateMutability": "nonpayable",
      "type": "function"
    },
    {
      "constant": true,
      "inputs": [],
      "name": "settings",
      "outputs": [
        {
          "internalType": "contract SettingsInterface",
          "name": "",
          "type": "address"
        }
      ],
      "payable": false,
      "stateMutability": "view",
      "type": "function"
    },
    {
      "constant": true,
      "inputs": [],
      "name": "strictDynamic",
      "outputs": [
        {
          "internalType": "bool",
          "name": "",
          "type": "bool"
        }
      ],
      "payable": false,
      "stateMutability": "view",
      "type": "function"
    },
    {
      "constant": false,
      "inputs": [
        {
          "internalType": "uint256",
          "name": "loanID",
          "type": "uint256"
        },
        {
          "internalType": "uint256",
          "name": "amountBorrow",
          "type": "uint256"
        }
      ],
      "name": "takeOutLoan",
      "outputs": [],
      "payable": false,
      "stateMutability": "nonpayable",
      "type": "function"
    },
    {
      "constant": true,
      "inputs": [],
      "name": "totalCollateral",
      "outputs": [
        {
          "internalType": "uint256",
          "name": "",
          "type": "uint256"
        }
      ],
      "payable": false,
      "stateMutability": "view",
      "type": "function"
    },
    {
      "constant": false,
      "inputs": [],
      "name": "updateLoanDataLogic",
      "outputs": [],
      "payable": false,
      "stateMutability": "nonpayable",
      "type": "function"
    },
    {
      "constant": false,
      "inputs": [],
      "name": "updateLoanTermsConsensusLogic",
      "outputs": [],
      "payable": false,
      "stateMutability": "nonpayable",
      "type": "function"
    },
    {
      "constant": false,
      "inputs": [
        {
          "internalType": "address",
          "name": "newImplementation",
          "type": "address"
        }
      ],
      "name": "upgradeProxyTo",
      "outputs": [],
      "payable": false,
      "stateMutability": "nonpayable",
      "type": "function"
    },
    {
      "constant": false,
      "inputs": [
        {
          "internalType": "uint256",
          "name": "amount",
          "type": "uint256"
        },
        {
          "internalType": "uint256",
          "name": "loanID",
          "type": "uint256"
        }
      ],
      "name": "withdrawCollateral",
      "outputs": [],
      "payable": false,
      "stateMutability": "nonpayable",
      "type": "function"
    }
  ],
  "transactionHash": "0xb08214055268250f109a0d90c61dcf59348160ae66a53c241fb8611c62e47872",
  "args": [],
  "solcInputHash": "3790d34ca1d72794863015ffe08f35de",
  "bytecode": "0x608060405234801561001057600080fd5b506143f5806100206000396000f3fe6080604052600436106102515760003560e01c8063a59a997311610139578063db24c683116100b6578063e8906a2d1161007a578063e8906a2d14610680578063e9497561146106a0578063eb12d61e146106c0578063eb78303b146106e0578063eee8b7ff14610700578063f8c8765e1461072d57610251565b8063db24c683146105e9578063e06174e4146105fe578063e154e9a414610613578063e1ec3c6814610628578063e6a901c11461066057610251565b8063b6780507116100fd578063b67805071461055f578063c49d99fd14610574578063c9e02bef14610589578063ccdd9f5d146105a9578063d8aed145146105c957610251565b8063a59a9973146104dd578063aaaca558146104f2578063b06164cf14610507578063b2016bd414610535578063b3076d001461054a57610251565b80634f8654bc116101d25780635ebc6334116101965780635ebc63341461041957806369e527da1461043957806372e113271461044e578063767a7b051461047d578063854768c01461049d57806386f0a621146104bd57610251565b80634f8654bc14610382578063513484541461039757806355dbd8eb146103ac57806359c697f4146103cc5780635ca879d7146103ec57610251565b806337c3eedc1161021957806337c3eedc146102e957806338c72f691461030b5780633ab01c0a146103205780633b9293001461034d5780634ac8eb5f1461036d57610251565b806302bc2cdb146102565780631a74856b146102785780631de2e8831461028b578063226546a41461029e5780632c26486d146102d4575b600080fd5b34801561026257600080fd5b506102766102713660046138d1565b61074d565b005b61027661028636600461357a565b610d3f565b61027661029936600461372b565b610eb4565b3480156102aa57600080fd5b506102be6102b93660046138b9565b6112cd565b6040516102cb9190613ba7565b60405180910390f35b3480156102e057600080fd5b506102be611341565b3480156102f557600080fd5b506102fe611347565b6040516102cb9190613a45565b34801561031757600080fd5b506102be611356565b34801561032c57600080fd5b5061034061033b3660046134e9565b61136d565b6040516102cb9190613bb0565b34801561035957600080fd5b506102be6103683660046138b9565b611398565b34801561037957600080fd5b506102be6113ee565b34801561038e57600080fd5b506102fe6113f4565b3480156103a357600080fd5b506102be611408565b3480156103b857600080fd5b506102766103c7366004613472565b61140e565b3480156103d857600080fd5b506102be6103e73660046138b9565b611464565b3480156103f857600080fd5b5061040c6104073660046138b9565b6114bb565b6040516102cb9190613b9c565b34801561042557600080fd5b506102be6104343660046138b9565b611528565b34801561044557600080fd5b506102fe61157f565b34801561045a57600080fd5b5061046e6104693660046138b9565b61158e565b6040516102cb93929190613bc3565b34801561048957600080fd5b506102766104983660046138d1565b61160d565b3480156104a957600080fd5b5061040c6104b83660046138b9565b611861565b3480156104c957600080fd5b506102be6104d83660046138b9565b6118b8565b3480156104e957600080fd5b506102fe61190f565b3480156104fe57600080fd5b506102fe61191e565b34801561051357600080fd5b506105276105223660046138b9565b61192d565b6040516102cb929190613bd9565b34801561054157600080fd5b506102fe6119ab565b34801561055657600080fd5b506102fe6119ba565b34801561056b57600080fd5b506102be6119c9565b34801561058057600080fd5b506102766119d5565b34801561059557600080fd5b5061040c6105a43660046138b9565b611a90565b3480156105b557600080fd5b506102766105c43660046138b9565b611ae7565b3480156105d557600080fd5b506102766105e43660046138d1565b611d4a565b3480156105f557600080fd5b506102766120df565b34801561060a57600080fd5b506102fe61219a565b34801561061f57600080fd5b5061040c6121a9565b34801561063457600080fd5b506106486106433660046138b9565b6121b2565b6040516102cb9c9b9a99989796959493929190614248565b34801561066c57600080fd5b5061040c61067b3660046138b9565b61226a565b34801561068c57600080fd5b5061027661069b3660046135ae565b6122c1565b3480156106ac57600080fd5b506102be6106bb3660046138d1565b61237a565b3480156106cc57600080fd5b506102766106db366004613472565b6123f1565b3480156106ec57600080fd5b5061046e6106fb3660046137d7565b6124a7565b34801561070c57600080fd5b5061072061071b366004613472565b612528565b6040516102cb9190613b59565b34801561073957600080fd5b5061027661074836600461348e565b612594565b601b54600160a01b900460ff1661077f5760405162461bcd60e51b815260040161077690613fee565b60405180910390fd5b601b805460ff60a01b191690556107946127ef565b156107b15760405162461bcd60e51b815260040161077690613f1d565b6010546001600160a01b03166107c68161287c565b156107e35760405162461bcd60e51b815260040161077690613c84565b60048054604051636a3a61cd60e01b81526001600160a01b0390911691636a3a61cd9161081291339101613a45565b60006040518083038186803b15801561082a57600080fd5b505afa15801561083e573d6000803e3d6000fd5b5050506000848152601660205260409020600101546001600160a01b03163314905061087c5760405162461bcd60e51b815260040161077690613ec9565b60016000848152601660205260409020600e0154600160a01b900460ff1660038111156108a557fe5b146108c25760405162461bcd60e51b81526004016107769061412b565b6000838152601660205260409020600701544211156108f35760405162461bcd60e51b815260040161077690614012565b6108fc82612904565b6109185760405162461bcd60e51b81526004016107769061409b565b6000838152601660205260409020600501548211156109495760405162461bcd60e51b815260040161077690613ceb565b60006109548461158e565b50600086815260166020526040902060090154909250821315905061098b5760405162461bcd60e51b815260040161077690613f49565b610a21600460009054906101000a90046001600160a01b03166001600160a01b03166393d748246040518163ffffffff1660e01b815260040160206040518083038186803b1580156109dc57600080fd5b505afa1580156109f0573d6000803e3d6000fd5b505050506040513d601f19601f82011682018060405250610a1491908101906136c3565b429063ffffffff612a1416565b6000858152601660205260409020600a01541115610a515760405162461bcd60e51b815260040161077690613f80565b6000848152601660205260409020600d8101849055600b01839055610a76848461237a565b6000858152601660205260408120600c810192909255600e8201805460ff60a01b1916600160a11b1790554260089092019190915580610ab586611a90565b90508015610b2857600086815260166020526040902060020154610ae1906001600160a01b0316612a56565b610b05576000868152601660205260409020600201546001600160a01b0316610b21565b6000868152601660205260409020600101546001600160a01b03165b9150610b62565b610b3186612a63565b6000878152601660205260409020600e0180546001600160a01b0319166001600160a01b0392831617908190551691505b601054604051631397424760e11b81526001600160a01b039091169063272e848e90610b949088908690600401614231565b600060405180830381600087803b158015610bae57600080fd5b505af1158015610bc2573d6000803e3d6000fd5b5050505080610cc057604080518082018252601b81527f455343524f575f434f4e54524143545f4e4f545f444546494e454400000000006020808301919091526000898152601690915291909120600e0154610c2f916001600160a01b039091169063ffffffff612b9a16565b60008681526016602052604090819020600e8101546004805460105460115460019095015495516333e1a22360e01b81526001600160a01b03948516966333e1a22396610c8d9694851695938516948f949181169392169101613a93565b600060405180830381600087803b158015610ca757600080fd5b505af1158015610cbb573d6000803e3d6000fd5b505050505b60008681526016602052604090819020600e81015460019091015491516001600160a01b03918216929091169088907f85b5516a17ce775661a4b967b1fb30c852678f6598d86d9f3c99b7b60ff2d0ce90610d1c908a90613ba7565b60405180910390a45050601b805460ff60a01b1916600160a01b17905550505050565b81610d498161226a565b610d655760405162461bcd60e51b815260040161077690613db2565b610d6d6127ef565b15610d8a5760405162461bcd60e51b815260040161077690613f1d565b6010546001600160a01b0316610d9f8161287c565b15610dbc5760405162461bcd60e51b815260040161077690613c84565b60048054604051636a3a61cd60e01b81526001600160a01b0390911691636a3a61cd91610deb91339101613a45565b60006040518083038186803b158015610e0357600080fd5b505afa158015610e17573d6000803e3d6000fd5b505050600085815260166020908152604091829020600101548251808401909352601983527f424f52524f5745525f4c4f414e5f49445f4d49534d415443480000000000000091830191909152610e8392506001600160a01b038881169291169063ffffffff612bc216565b60008311610ea35760405162461bcd60e51b81526004016107769061403e565b610ead8484612bf1565b5050505050565b601b54600160a01b900460ff16610edd5760405162461bcd60e51b815260040161077690613fee565b601b805460ff60a01b19169055610ef26127ef565b15610f0f5760405162461bcd60e51b815260040161077690613f1d565b610f1e368590038501856137bc565b6000600460009054906101000a90046001600160a01b03166001600160a01b03166354409f2b6040518163ffffffff1660e01b815260040160206040518083038186803b158015610f6e57600080fd5b505afa158015610f82573d6000803e3d6000fd5b505050506040513d601f19601f82011682018060405250610fa691908101906136c3565b90508160a00151811015610fcc5760405162461bcd60e51b815260040161077690613be7565b601c546011546080840151604051631a7fddd160e21b81526000936001600160a01b03908116936369ff77449361100a939290911691600401613a7a565b60206040518083038186803b15801561102257600080fd5b505afa158015611036573d6000803e3d6000fd5b505050506040513d601f19601f8201168201806040525061105a919081019061361a565b9050801561107a5760405162461bcd60e51b815260040161077690613cb4565b6110878360800151612904565b6110a35760405162461bcd60e51b81526004016107769061409b565b60048054604051636a3a61cd60e01b81526001600160a01b0390911691636a3a61cd916110d291339101613a45565b60006040518083038186803b1580156110ea57600080fd5b505afa1580156110fe573d6000803e3d6000fd5b50611110925050506020880188613472565b6001600160a01b0316336001600160a01b0316146111405760405162461bcd60e51b8152600401610776906140d2565b600080806111af611156368c90038c018c6137bc565b8a8a808060200260200160405190810160405280939291908181526020016000905b828210156111a557611196610120830286013681900381019061389d565b81526020019060010190611178565b50505050506124a7565b9194509250905060006111d26111ca368d90038d018d6137bc565b858585612ca8565b905087156111e4576111e48189612bf1565b6112056111f760408d0160208e01613472565b6001600160a01b0316612e9a565b1561122f5761121381611a90565b61122f5760405162461bcd60e51b815260040161077690613de2565b6014600061124060208e018e613472565b6001600160a01b039081168252602080830193909352604091820160009081208054600181018255908252848220018590558481526016909352818320600201549151911691339184917f1212bcd1e020b072aeb7a4d5e708f9c56412037702bfdbc5059d759eac9a1ce891a45050601b805460ff60a01b1916600160a01b179055505050505050505050565b601a54604051600091606091611324916001600160a01b0316906112f5908690602401613ba7565b60408051601f198184030181529190526020810180516001600160e01b031663089951a960e21b179052612ea8565b90508080602001905161133a91908101906136c3565b9392505050565b60015481565b6000546001600160a01b031681565b60405161136290613a01565b604051809103902081565b606033301461138e5760405162461bcd60e51b815260040161077690613e78565b61133a8383612f72565b601a54604051600091606091611324916001600160a01b0316906113c0908690602401613ba7565b60408051601f198184030181529190526020810180516001600160e01b0316623b929360e81b179052612ea8565b600f5481565b60025461010090046001600160a01b031681565b60155481565b6000546001600160a01b031633146114385760405162461bcd60e51b815260040161077690614151565b600280546001600160a01b0390921661010002610100600160a81b031990921691909117905543600355565b601a54604051600091606091611324916001600160a01b03169061148c908690602401613ba7565b60408051601f198184030181529190526020810180516001600160e01b0316631671a5fd60e21b179052612ea8565b601a54604051600091606091611512916001600160a01b0316906114e3908690602401613ba7565b60408051601f198184030181529190526020810180516001600160e01b0316635ca879d760e01b179052612ea8565b90508080602001905161133a919081019061361a565b601a54604051600091606091611324916001600160a01b031690611550908690602401613ba7565b60408051601f198184030181529190526020810180516001600160e01b03166317af18cd60e21b179052612ea8565b6013546001600160a01b031681565b601a54604051600091829182916060916115e9916001600160a01b0316906115ba908890602401613ba7565b60408051601f198184030181529190526020810180516001600160e01b03166372e1132760e01b179052612ea8565b9050808060200190516115ff91908101906136db565b935093509350509193909250565b601b54600160a01b900460ff166116365760405162461bcd60e51b815260040161077690613fee565b601b805460ff60a01b191690558061164d8161226a565b6116695760405162461bcd60e51b815260040161077690613db2565b6116716127ef565b1561168e5760405162461bcd60e51b815260040161077690613f1d565b6010546001600160a01b03166116a38161287c565b156116c05760405162461bcd60e51b815260040161077690613c84565b60048054604051636a3a61cd60e01b81526001600160a01b0390911691636a3a61cd916116ef91339101613a45565b60006040518083038186803b15801561170757600080fd5b505afa15801561171b573d6000803e3d6000fd5b5050506000848152601660205260409020600101546001600160a01b0316331490506117595760405162461bcd60e51b81526004016107769061406b565b600084116117795760405162461bcd60e51b815260040161077690613eef565b60026000848152601660205260409020600e0154600160a01b900460ff1660038111156117a257fe5b141561180c5760006117b38461158e565b509150506000811315611806576000848152601660205260408120600901546117e2908363ffffffff612a1416565b9050858110156118045760405162461bcd60e51b815260040161077690613fb7565b505b5061183d565b60008381526016602052604090206009015484111561183d5760405162461bcd60e51b815260040161077690613d16565b611848838533612fe6565b5050601b805460ff60a01b1916600160a01b1790555050565b601a54604051600091606091611512916001600160a01b031690611889908690602401613ba7565b60408051601f198184030181529190526020810180516001600160e01b03166302151da360e61b179052612ea8565b601a54604051600091606091611324916001600160a01b0316906118e0908690602401613ba7565b60408051601f198184030181529190526020810180516001600160e01b03166386f0a62160e01b179052612ea8565b6010546001600160a01b031681565b6011546001600160a01b031681565b600080606061198b601a60009054906101000a90046001600160a01b03168560405160240161195c9190613ba7565b60408051601f198184030181529190526020810180516001600160e01b031663b06164cf60e01b179052612ea8565b9050808060200190516119a19190810190613708565b9250925050915091565b6012546001600160a01b031681565b601c546001600160a01b031681565b60405161136290613a15565b6000546040516001600160a01b0390911690638b51f58b906119f690613a01565b6040519081900381206001600160e01b031960e084901b168252611a1c91600401613ba7565b60606040518083038186803b158015611a3457600080fd5b505afa158015611a48573d6000803e3d6000fd5b505050506040513d601f19601f82011682018060405250611a6c91908101906138f2565b601a80546001600160a01b0319166001600160a01b03929092169190911790555050565b601a54604051600091606091611512916001600160a01b031690611ab8908690602401613ba7565b60408051601f198184030181529190526020810180516001600160e01b031663c9e02bef60e01b179052612ea8565b601b54600160a01b900460ff16611b105760405162461bcd60e51b815260040161077690613fee565b601b805460ff60a01b191690558060026000828152601660205260409020600e0154600160a01b900460ff166003811115611b4757fe5b14611b645760405162461bcd60e51b815260040161077690613ea0565b611b6c6127ef565b15611b895760405162461bcd60e51b815260040161077690613f1d565b6010546001600160a01b0316611b9e8161287c565b15611bbb5760405162461bcd60e51b815260040161077690613c84565b611bc4836114bb565b611be05760405162461bcd60e51b815260040161077690613e19565b6000611beb84611528565b6000858152601660205260408120600c810154600b909101549293509091611c189163ffffffff61305116565b60105460008781526016602052604090819020600b810154600c90910154915163b1e8f8ef60e01b81529394506001600160a01b039092169263b1e8f8ef92611c679290913390600401614304565b600060405180830381600087803b158015611c8157600080fd5b505af1158015611c95573d6000803e3d6000fd5b5050506000868152601660205260409020600e01805460ff60a01b1916600360a01b1760ff60a81b1916600160a81b17905550611cd3858333613076565b600085815260166020526040908190206001015490516001600160a01b039091169086907f4ca647aea530b1ffb7616d399ad7e257e470510d1f439f1ea0b155e55b3994f990611d2890339087908790613a59565b60405180910390a35050601b805460ff60a01b1916600160a01b179055505050565b601b54600160a01b900460ff16611d735760405162461bcd60e51b815260040161077690613fee565b601b805460ff60a01b191690558060026000828152601660205260409020600e0154600160a01b900460ff166003811115611daa57fe5b14611dc75760405162461bcd60e51b815260040161077690613ea0565b611dcf6127ef565b15611dec5760405162461bcd60e51b815260040161077690613f1d565b6010546001600160a01b0316611e018161287c565b15611e1e5760405162461bcd60e51b815260040161077690613c84565b60048054604051636a3a61cd60e01b81526001600160a01b0390911691636a3a61cd91611e4d91339101613a45565b60006040518083038186803b158015611e6557600080fd5b505afa158015611e79573d6000803e3d6000fd5b5050505060008411611e9d5760405162461bcd60e51b815260040161077690613c1e565b6000611ea884611398565b905084811015611eb6578094505b611ec6818663ffffffff612a1416565b6000858152601660205260408120600c0154919250908190871015611f2157506000858152601660205260409020600c01548690611f0a908263ffffffff612a1416565b6000878152601660205260409020600c0155611fae565b6000868152601660205260409020600c015415611f7057506000858152601660205260409020600c0154611f5b878263ffffffff612a1416565b6000878152601660205260408120600c015596505b8615611fae576000868152601660205260409020600b0154879250611f9b908363ffffffff612a1416565b6000878152601660205260409020600b01555b60105460405163b1e8f8ef60e01b81526001600160a01b039091169063b1e8f8ef90611fe290859085903390600401614304565b600060405180830381600087803b158015611ffc57600080fd5b505af1158015612010573d6000803e3d6000fd5b50505050826000141561205f576000868152601660205260409020600e8101805460ff60a01b1916600360a01b179055600981015460019091015461205f9188916001600160a01b0316612fe6565b6000868152601660205260409020600101546001600160a01b0316867f6624efca0805a6e65ab9e0b331a2de62393a2a18e5463fd9c0ea1811352d4e4c6120ac858563ffffffff61305116565b336040516120bb929190614231565b60405180910390a35050601b805460ff60a01b1916600160a01b1790555050505050565b6000546040516001600160a01b0390911690638b51f58b9061210090613a15565b6040519081900381206001600160e01b031960e084901b16825261212691600401613ba7565b60606040518083038186803b15801561213e57600080fd5b505afa158015612152573d6000803e3d6000fd5b505050506040513d601f19601f8201168201806040525061217691908101906138f2565b601b80546001600160a01b0319166001600160a01b03929092169190911790555050565b6004546001600160a01b031681565b60025460ff1681565b6016602090815260009182526040918290208054835160c08101855260018301546001600160a01b03908116825260028401548116948201949094526003830154948101949094526004820154606085015260058201546080850152600682015460a0850152600782015460088301546009840154600a850154600b860154600c870154600d880154600e9098015496999895979496939592949193909281169060ff600160a01b8204811691600160a81b9004168c565b601a54604051600091606091611512916001600160a01b031690612292908690602401613ba7565b60408051601f198184030181529190526020810180516001600160e01b031663e6a901c160e01b179052612ea8565b6004805460405163c095ea2760e01b81526001600160a01b039091169163c095ea27916122f091339101613a45565b60006040518083038186803b15801561230857600080fd5b505afa15801561231c573d6000803e3d6000fd5b5050601b5460405161237593506001600160a01b0390911691506123469085908590602401613b0c565b60408051601f198184030181529190526020810180516001600160e01b031663e8906a2d60e01b179052612f72565b505050565b601a546040516000916060916123d3916001600160a01b0316906123a49087908790602401613bd9565b60408051601f198184030181529190526020810180516001600160e01b031663e949756160e01b179052612ea8565b9050808060200190516123e991908101906136c3565b949350505050565b6004805460405163c095ea2760e01b81526001600160a01b039091169163c095ea279161242091339101613a45565b60006040518083038186803b15801561243857600080fd5b505afa15801561244c573d6000803e3d6000fd5b5050601b546040516124a393506001600160a01b039091169150612474908490602401613a45565b60408051601f198184030181529190526020810180516001600160e01b03166375896b0f60e11b179052612f72565b5050565b601b5460405160009182918291606091612504916001600160a01b0316906124d59089908990602401614181565b60408051601f198184030181529190526020810180516001600160e01b031663eb78303b60e01b179052612ea8565b90508080602001905161251a91908101906136db565b935093509350509250925092565b6001600160a01b03811660009081526014602090815260409182902080548351818402810184019094528084526060939283018282801561258857602002820191906000526020600020905b815481526020019060010190808311612574575b50505050509050919050565b60408051808201909152601c81527f50524f564944455f4c454e44494e475f504f4f4c5f414444524553530000000060208201526125e2906001600160a01b0386169063ffffffff612b9a16565b6125eb836131b3565b601080546001600160a01b0319166001600160a01b0386811691909117918290556040805163155594ab60e31b81529051929091169163aaaca55891600480820192602092909190829003018186803b15801561264757600080fd5b505afa15801561265b573d6000803e3d6000fd5b505050506040513d601f19601f8201168201806040525061267f91908101906136a7565b601180546001600160a01b0319166001600160a01b03928316179055601054604080516334f293ed60e11b8152905191909216916369e527da916004808301926020929190829003018186803b1580156126d857600080fd5b505afa1580156126ec573d6000803e3d6000fd5b505050506040513d601f19601f8201168201806040525061271091908101906136a7565b601380546001600160a01b03199081166001600160a01b039384161790915560198054909116838316179055600480546040805162b3076d60e81b81529051919093169263b3076d009281810192602092909190829003018186803b15801561277857600080fd5b505afa15801561278c573d6000803e3d6000fd5b505050506040513d601f19601f820116820180604052506127b091908101906136a7565b601c80546001600160a01b03199081166001600160a01b0393841617909155601280549091169184169190911790556127e76119d5565b6118486120df565b6000600460009054906101000a90046001600160a01b03166001600160a01b031663b187bd266040518163ffffffff1660e01b815260040160206040518083038186803b15801561283f57600080fd5b505afa158015612853573d6000803e3d6000fd5b505050506040513d601f19601f82011682018060405250612877919081019061361a565b905090565b60048054604051633b66832160e01b81526000926001600160a01b0390921691633b668321916128ae91869101613a45565b60206040518083038186803b1580156128c657600080fd5b505afa1580156128da573d6000803e3d6000fd5b505050506040513d601f19601f820116820180604052506128fe919081019061361a565b92915050565b601c546011546040516362d128d160e01b81526000926001600160a01b03908116926362d128d19261293c9290911690600401613a45565b60206040518083038186803b15801561295457600080fd5b505afa158015612968573d6000803e3d6000fd5b505050506040513d601f19601f8201168201806040525061298c91908101906136c3565b60105460405163126e099960e31b81526001600160a01b03909116906393704cc8906129bc908690600401613ba7565b60206040518083038186803b1580156129d457600080fd5b505afa1580156129e8573d6000803e3d6000fd5b505050506040513d601f19601f82011682018060405250612a0c91908101906136c3565b111592915050565b600061133a83836040518060400160405280601e81526020017f536166654d6174683a207375627472616374696f6e206f766572666c6f770000815250613223565b6001600160a01b03161590565b6000818152601660205260408120600e01546001600160a01b031615612a9b5760405162461bcd60e51b815260040161077690613c4d565b601954612ab0906001600160a01b031661324f565b6000546040519192506001600160a01b038084169263e72fcb609290911690612ad890613a33565b6040519081900381206001600160e01b031960e085901b168252612b029291600190600401613ac5565b600060405180830381600087803b158015612b1c57600080fd5b505af1158015612b30573d6000803e3d6000fd5b505060048054604051630e5a3be960e21b81526001600160a01b039091169350633968efa49250612b6391859101613a45565b600060405180830381600087803b158015612b7d57600080fd5b505af1158015612b91573d6000803e3d6000fd5b50505050919050565b612ba382612e9a565b81906123755760405162461bcd60e51b81526004016107769190613bb0565b612bcc83836132a1565b8190612beb5760405162461bcd60e51b81526004016107769190613bb0565b50505050565b803414612c105760405162461bcd60e51b815260040161077690613d84565b600f54612c23908263ffffffff61305116565b600f55600082815260166020526040902060090154612c48908263ffffffff61305116565b60008381526016602052604090819020600981019290925542600a9092019190915551339083907feec2f3feb835e2f2fd44281034b04700a1ddda63dd402949d470a25a7c40b36c90612c9c908590613ba7565b60405180910390a35050565b601554600090612cbf81600163ffffffff61305116565b601555600080828152601660205260409020600e0154600160a01b900460ff166003811115612cea57fe5b14612d075760405162461bcd60e51b8152600401610776906140fe565b85516001600160a01b0316612d2e5760405162461bcd60e51b815260040161077690613e50565b6000818152601660205260409020818155600e0180546001919060ff60a01b1916600160a01b8302179055506040805160c08101825287516001600160a01b0390811682526020808a015182168184019081528385018a8152606085018a8152608086018a815260a0808f015190880190815260008a815260168752898120985160018a018054918a166001600160a01b0319928316179055955160028a018054918a1691909716179095559251600388015590516004808801919091559051600587015590516006909501949094558354855163cfa8bb9360e01b81529551919593169363cfa8bb939380820193929190829003018186803b158015612e3457600080fd5b505afa158015612e48573d6000803e3d6000fd5b505050506040513d601f19601f82011682018060405250612e6c91908101906136c3565b9050612e7e428263ffffffff61305116565b6000838152601660205260409020600701555095945050505050565b6001600160a01b0316151590565b606060006060306001600160a01b03168585604051602401612ecb929190613ae8565b60408051601f198184030181529181526020820180516001600160e01b0316631d580e0560e11b17905251612f0091906139e5565b600060405180830381855afa9150503d8060008114612f3b576040519150601f19603f3d011682016040523d82523d6000602084013e612f40565b606091505b50915091506000821415612f55573d60208201fd5b80806020019051612f69919081019061363a565b95945050505050565b60606000836001600160a01b031683604051612f8e91906139e5565b600060405180830381855af49150503d8060008114612fc9576040519150601f19603f3d011682016040523d82523d6000602084013e612fce565b606091505b509250905080612fdf573d60208301fd5b5092915050565b612ff18383836132b2565b600083815260166020526040908190206001015490516001600160a01b0380841692169085907f354da53cd88eb0936caa11700c1928b13f3f2803cca6f4f464ceff3b4bd7d38e90613044908790613ba7565b60405180910390a4505050565b60008282018381101561133a5760405162461bcd60e51b815260040161077690613d4d565b6000821361308357612375565b60008381526016602052604090206009015482908110156130ae576130a98482846132b2565b612beb565b6000848152601660205260409020600901548110612beb576000848152601660205260408120600901546130e990839063ffffffff612a1416565b60008681526016602052604090206009015490915061310a908690856132b2565b60008111801561313357506000858152601660205260409020600e01546001600160a01b031615155b15610ead5760008581526016602052604090819020600e015490516352fbd9cb60e11b81526001600160a01b039091169063a5f7b3969061317a9086908590600401613a7a565b600060405180830381600087803b15801561319457600080fd5b505af11580156131a8573d6000803e3d6000fd5b505050505050505050565b60408051808201909152601981527f53455454494e47535f4d5553545f42455f50524f5649444544000000000000006020820152613201906001600160a01b0383169063ffffffff612b9a16565b600480546001600160a01b0319166001600160a01b0392909216919091179055565b600081848411156132475760405162461bcd60e51b81526004016107769190613bb0565b505050900390565b6000808260601b9050604051733d602d80600a3d3981f3363d3d373d3d3d363d7360601b81528160148201526e5af43d82803e903d91602b57fd5bf360881b60288201526037816000f0949350505050565b6001600160a01b0390811691161490565b600f546132c5908363ffffffff612a1416565b600f556000838152601660205260409020600901546132ea908363ffffffff612a1416565b6000848152601660205260408082206009019290925590516001600160a01b0383169184156108fc02918591818181858888f19350505050158015612beb573d6000803e3d6000fd5b600060e08284031215613344578081fd5b61334e60e0614323565b9050813561335b8161439a565b8152602082013561336b8161439a565b6020820152604082013561337e8161439a565b80604083015250606082013560608201526080820135608082015260a082013560a082015260c082013560c082015292915050565b600061012082840312156133c5578081fd5b6133cf60e0614323565b905081356133dc8161439a565b815260208201356133ec8161439a565b8060208301525060408201356040820152606082013560608201526080820135608082015260a082013560a0820152606060bf1983850301121561342f57600080fd5b6134396060614323565b60c083013560ff8116811461344d57600080fd5b815260e0830135602082015261010090920135604083015260c0810191909152919050565b600060208284031215613483578081fd5b813561133a8161439a565b600080600080608085870312156134a3578283fd5b84356134ae8161439a565b935060208501356134be8161439a565b925060408501356134ce8161439a565b915060608501356134de8161439a565b939692955090935050565b600080604083850312156134fb578182fd5b82356135068161439a565b9150602083013567ffffffffffffffff811115613521578182fd5b80840185601f820112613532578283fd5b803591506135476135428361434a565b614323565b82815286602084840101111561355b578384fd5b8260208301602083013783602084830101528093505050509250929050565b60008060006060848603121561358e578081fd5b83356135998161439a565b95602085013595506040909401359392505050565b600080602083850312156135c0578182fd5b823567ffffffffffffffff808211156135d7578384fd5b81850186601f8201126135e8578485fd5b80359250818311156135f8578485fd5b866020808502830101111561360b578485fd5b60200196919550909350505050565b60006020828403121561362b578081fd5b8151801515811461133a578182fd5b60006020828403121561364b578081fd5b815167ffffffffffffffff811115613661578182fd5b80830184601f820112613672578283fd5b805191506136826135428361434a565b828152856020848401011115613696578384fd5b612f6983602083016020850161436e565b6000602082840312156136b8578081fd5b815161133a8161439a565b6000602082840312156136d4578081fd5b5051919050565b6000806000606084860312156136ef578081fd5b8351925060208401519150604084015190509250925092565b6000806040838503121561371a578182fd5b505080516020909101519092909150565b60008060008084860361012080821215613743578384fd5b60e0821215613750578384fd5b86955060e0870135915067ffffffffffffffff8083111561376f578485fd5b82880189601f820112613780578586fd5b8035935081841115613790578586fd5b89602084860283010111156137a3578586fd5b9699602090970198509196610100013595945050505050565b600060e082840312156137cd578081fd5b61133a8383613333565b60008061010083850312156137ea578182fd5b6137f48484613333565b915060e083013567ffffffffffffffff80821115613810578283fd5b81850186601f820112613821578384fd5b8035925081831115613831578384fd5b602091506138428283850201614323565b83815282810190828401610120808702850186018b1015613861578788fd5b8794505b8685101561388d576138778b836133b3565b8452600194909401939285019290810190613865565b5096999098509650505050505050565b600061012082840312156138af578081fd5b61133a83836133b3565b6000602082840312156138ca578081fd5b5035919050565b600080604083850312156138e3578182fd5b50508035926020909101359150565b600080600060608486031215613906578081fd5b8351925060208401519150604084015161391f8161439a565b809150509250925092565b80516001600160a01b0390811683526020808301519091168184015260408083015181850152606080840151908501526080808401519085015260a0838101519085015260c092830151805160ff16938501939093529082015160e084015201516101008201526101200190565b6001600160a01b03169052565b15159052565b600081518084526139c381602086016020860161436e565b601f01601f19169290920160200192915050565b600481106139e157fe5b9052565b600082516139f781846020870161436e565b9190910192915050565b674c6f616e4461746160c01b815260080190565b714c6f616e5465726d73436f6e73656e73757360701b815260120190565b65457363726f7760d01b815260060190565b6001600160a01b0391909116815260200190565b6001600160a01b039390931683526020830191909152604082015260600190565b6001600160a01b03929092168252602082015260400190565b6001600160a01b0395861681529385166020850152604084019290925283166060830152909116608082015260a00190565b6001600160a01b0393909316835260208301919091521515604082015260600190565b6001600160a01b03831681526040602082018190526000906123e9908301846139ab565b6020808252810182905260008360408301825b85811015613b4f578235613b328161439a565b6001600160a01b0316825260209283019290910190600101613b1f565b5095945050505050565b602080825282518282018190526000918401906040840190835b81811015613b91578351835260209384019390920191600101613b73565b509095945050505050565b901515815260200190565b90815260200190565b60006020825261133a60208301846139ab565b9283526020830191909152604082015260600190565b918252602082015260400190565b6020808252601d908201527f4455524154494f4e5f455843454544535f4d41585f4455524154494f4e000000604082015260600190565b602080825260159082015274105353d5539517d59053155157d491545552549151605a1b604082015260600190565b6020808252601a908201527f4c4f414e5f455343524f575f414c52454144595f455849535453000000000000604082015260600190565b60208082526016908201527513115391125391d7d413d3d317d254d7d4105554d15160521b604082015260600190565b60208082526019908201527f414d4f554e545f455843454544535f4d41585f414d4f554e5400000000000000604082015260600190565b60208082526011908201527013505617d313d05397d15610d151511151607a1b604082015260600190565b6020808252601b908201527f434f4c4c41544552414c5f414d4f554e545f4e4f545f4d415443480000000000604082015260600190565b6020808252601b908201527f536166654d6174683a206164646974696f6e206f766572666c6f770000000000604082015260600190565b602080825260149082015273125390d3d4949150d517d1551217d05353d5539560621b604082015260600190565b6020808252601690820152751313d05397d393d517d050d512559157d3d497d4d15560521b604082015260600190565b60208082526019908201527f554e4445525f434f4c4c5f574954485f524543495049454e5400000000000000604082015260600190565b60208082526017908201527f444f45534e545f4e4545445f4c49515549444154494f4e000000000000000000604082015260600190565b6020808252600e908201526d424f52524f5745525f454d50545960901b604082015260600190565b6020808252600e908201526d24a72b20a624a22fa1a0a62622a960911b604082015260600190565b6020808252600f908201526e4c4f414e5f4e4f545f41435449564560881b604082015260600190565b6020808252600c908201526b2727aa2fa127a92927aba2a960a11b604082015260600190565b60208082526014908201527343414e4e4f545f57495448445241575f5a45524f60601b604082015260600190565b602080825260129082015271141310551193d49357d254d7d4105554d15160721b604082015260600190565b60208082526018908201527f4d4f52455f434f4c4c41544552414c5f52455155495245440000000000000000604082015260600190565b6020808252601d908201527f434f4c4c41544552414c5f4445504f53495445445f524543454e544c59000000604082015260600190565b6020808252601a908201527f434f4c4c41544552414c5f414d4f554e545f544f4f5f48494748000000000000604082015260600190565b6020808252600a90820152691c994b595b9d195c995960b21b604082015260600190565b6020808252601290820152711313d05397d511549354d7d156141254915160721b604082015260600190565b60208082526013908201527243414e4e4f545f4445504f5349545f5a45524f60681b604082015260600190565b60208082526016908201527521a0a62622a92fa227a2a9a72a2fa7aba72fa627a0a760511b604082015260600190565b6020808252601a908201527f535550504c595f544f5f444542545f455843454544535f4d4158000000000000604082015260600190565b6020808252601290820152712727aa2fa627a0a72fa922a8aaa2a9aa22a960711b604082015260600190565b6020808252601390820152724c4f414e5f414c52454144595f45584953545360681b604082015260600190565b6020808252600c908201526b1313d05397d393d517d4d15560a21b604082015260600190565b6020808252601690820152754d5553545f42455f4c4f4749435f524547495354525960501b604082015260600190565b6000610100808301614194848751613998565b60208601516141a66020860182613998565b5060408601516141b96040860182613998565b50606086015160608501526080860151608085015260a086015160a085015260c086015160c08501528160e085015280915084516141f78183613ba7565b9250602086019150835b818110156142255761421484845161392a565b935060209290920191600101614201565b50919695505050505050565b9182526001600160a01b0316602082015260400190565b6000610220820190508d825260018060a01b03808e511660208401528060208f01511660408401525060408d0151606083015260608d0151608083015260808d015160a083015260a08d015160c08301528b60e08301528a61010083015289610120830152886101408301528761016083015286610180830152856101a08301526142d76101c0830186613998565b6142e56101e08301856139d7565b6142f36102008301846139a5565b9d9c50505050505050505050505050565b92835260208301919091526001600160a01b0316604082015260600190565b60405181810167ffffffffffffffff8111828210171561434257600080fd5b604052919050565b600067ffffffffffffffff821115614360578081fd5b50601f01601f191660200190565b60005b83811015614389578181015183820152602001614371565b83811115612beb5750506000910152565b6001600160a01b03811681146143af57600080fd5b5056fea365627a7a7231582044f0eb7baa2dd3e82d1ffcbe4e81d693013871922ba483236b274dc3ce2093986c6578706572696d656e74616cf564736f6c63430005110040",
  "devdoc": {
    "author": "develop@teller.finance",
    "methods": {
      "addSigner(address)": {
        "details": "The sender must be the owner.It throws a require error if the sender is not the owner.",
        "params": {
          "account": "address to add."
        }
      },
      "addSigners(address[])": {
        "details": "The sender must be the owner.It throws a require error if the sender is not the owner.",
        "params": {
          "accounts": "addresses to add."
        }
      },
      "createLoanWithTerms((address,address,address,uint256,uint256,uint256,uint256),(address,address,uint256,uint256,uint256,uint256,(uint8,bytes32,bytes32))[],uint256)": {
        "params": {
          "collateralAmount": "Amount of collateral required for the loan",
          "request": "Struct of the protocol loan request",
          "responses": "List of structs of the protocol loan responses"
        }
      },
      "depositCollateral(address,uint256,uint256)": {
        "params": {
          "amount": "The amount to deposit as collateral.",
          "borrower": "The address of the loan borrower.",
          "loanID": "The ID of the loan the collateral is for"
        }
      },
      "initialize(address,address,address,address)": {
        "params": {
          "collateralTokenAddress": "Address of the collateral token for loans in this contract.",
          "initDynamicProxyLogicAddress": "Address of a deployed InitializeableDynamicProxy contract.",
          "lendingPoolAddress": "Address of the LendingPool.",
          "settingsAddress": "Address for the platform Settings contract."
        }
      },
      "liquidateLoan(uint256)": {
        "params": {
          "loanID": "The ID of the loan to be liquidated"
        }
      },
      "repay(uint256,uint256)": {
        "params": {
          "amount": "The amount of tokens to pay back to the loan",
          "loanID": "The ID of the loan the payment is for"
        }
      },
      "takeOutLoan(uint256,uint256)": {
        "details": "collateral ratio is a percentage of the loan amount that's required in collateralthe percentage will be *(10**2). I.e. collateralRatio of 5244 means 52.44% collateralis required in the loan. Interest rate is also a percentage with 2 decimal points."
      },
      "withdrawCollateral(uint256,uint256)": {
        "params": {
          "amount": "The amount of collateral token or ether the caller is hoping to withdraw.",
          "loanID": "The ID of the loan the collateral is for"
        }
      }
    }
  },
  "userdoc": {
    "methods": {
      "addSigner(address)": {
        "notice": "It adds a new account as a signer."
      },
      "addSigners(address[])": {
        "notice": "It adds a list of account as signers."
      },
      "canGoToEOA(uint256)": {
        "notice": "See LoanData.canGoToEOA"
      },
      "createLoanWithTerms((address,address,address,uint256,uint256,uint256,uint256),(address,address,uint256,uint256,uint256,uint256,(uint8,bytes32,bytes32))[],uint256)": {
        "notice": "Creates a loan with the loan request and terms"
      },
      "depositCollateral(address,uint256,uint256)": {
        "notice": "Deposit collateral tokens into a loan."
      },
      "getBorrowerLoans(address)": {
        "notice": "See LoanData.getBorrowerLoans"
      },
      "getCollateralInLendingTokens(uint256)": {
        "notice": "See LoanData.getCollateralInLendingTokens"
      },
      "getCollateralNeededInTokens(uint256)": {
        "notice": "See LoanData.getCollateralNeededInTokens"
      },
      "getCollateralNeededInfo(uint256)": {
        "notice": "See LoanData.getCollateralNeededInfo"
      },
      "getInterestOwedFor(uint256,uint256)": {
        "notice": "See LoanData.getInterestOwedFor"
      },
      "getInterestRatio(uint256)": {
        "notice": "See LoanData.getInterestRatio"
      },
      "getLiquidationReward(uint256)": {
        "notice": "See LoanData.getLiquidationReward"
      },
      "getLoanAmount(uint256)": {
        "notice": "See LoanData.getLoanAmount"
      },
      "getTotalOwed(uint256)": {
        "notice": "See LoanData.getTotalOwed"
      },
      "initialize(address,address,address,address)": {
        "notice": "Initializes the current contract instance setting the required parameters."
      },
      "isActiveOrSet(uint256)": {
        "notice": "See LoanData.isActiveOrSet"
      },
      "isLiquidable(uint256)": {
        "notice": "See LoanData.isLiquidable"
      },
      "isLoanSecured(uint256)": {
        "notice": "See LoanData.isLoanSecured"
      },
      "liquidateLoan(uint256)": {
        "notice": "Liquidate a loan if it is expired or under collateralized"
      },
      "repay(uint256,uint256)": {
        "notice": "Make a payment to a loan"
      },
      "takeOutLoan(uint256,uint256)": {
        "notice": "Take out a loan"
      },
      "updateLoanDataLogic()": {
        "notice": "It calls the LogicVersionRegistry to update the stored logic address for LoanData."
      },
      "updateLoanTermsConsensusLogic()": {
        "notice": "It calls the LogicVersionRegistry to update the stored logic address for LoanTermsConsensus."
      },
      "withdrawCollateral(uint256,uint256)": {
        "notice": "Withdraw collateral from a loan, unless this isn't allowed"
      }
    },
    "notice": "This contract is used as a basis for the creation of the different types of loans across the platformIt implements the Base contract from Teller and the ILoanManager"
  },
  "storageLayout": {
    "storage": [
      {
        "astId": 11226,
        "contract": "contracts/base/loans/LoanManager.sol:LoanManager",
        "label": "logicRegistry",
        "offset": 0,
        "slot": "0",
        "type": "t_contract(LogicVersionsRegistryInterface)11867"
      },
      {
        "astId": 11228,
        "contract": "contracts/base/loans/LoanManager.sol:LoanManager",
        "label": "logicName",
        "offset": 0,
        "slot": "1",
        "type": "t_bytes32"
      },
      {
        "astId": 11230,
        "contract": "contracts/base/loans/LoanManager.sol:LoanManager",
        "label": "strictDynamic",
        "offset": 0,
        "slot": "2",
        "type": "t_bool"
      },
      {
        "astId": 11232,
        "contract": "contracts/base/loans/LoanManager.sol:LoanManager",
        "label": "implementationStored",
        "offset": 1,
        "slot": "2",
        "type": "t_address"
      },
      {
        "astId": 11234,
        "contract": "contracts/base/loans/LoanManager.sol:LoanManager",
        "label": "_implementationBlockUpdated",
        "offset": 0,
        "slot": "3",
        "type": "t_uint256"
      },
      {
        "astId": 1762,
        "contract": "contracts/base/loans/LoanManager.sol:LoanManager",
        "label": "settings",
        "offset": 0,
        "slot": "4",
        "type": "t_contract(SettingsInterface)12172"
      },
      {
        "astId": 1766,
        "contract": "contracts/base/loans/LoanManager.sol:LoanManager",
        "label": "__gap",
        "offset": 0,
        "slot": "5",
        "type": "t_array(t_uint256)10_storage"
      },
      {
        "astId": 8767,
        "contract": "contracts/base/loans/LoanManager.sol:LoanManager",
        "label": "totalCollateral",
        "offset": 0,
        "slot": "15",
        "type": "t_uint256"
      },
      {
        "astId": 8769,
        "contract": "contracts/base/loans/LoanManager.sol:LoanManager",
        "label": "lendingPool",
        "offset": 0,
        "slot": "16",
        "type": "t_contract(LendingPoolInterface)11775"
      },
      {
        "astId": 8771,
        "contract": "contracts/base/loans/LoanManager.sol:LoanManager",
        "label": "lendingToken",
        "offset": 0,
        "slot": "17",
        "type": "t_address"
      },
      {
        "astId": 8773,
        "contract": "contracts/base/loans/LoanManager.sol:LoanManager",
        "label": "collateralToken",
        "offset": 0,
        "slot": "18",
        "type": "t_address"
      },
      {
        "astId": 8775,
        "contract": "contracts/base/loans/LoanManager.sol:LoanManager",
        "label": "cToken",
        "offset": 0,
        "slot": "19",
        "type": "t_contract(CErc20Interface)13795"
      },
      {
        "astId": 8780,
        "contract": "contracts/base/loans/LoanManager.sol:LoanManager",
        "label": "borrowerLoans",
        "offset": 0,
        "slot": "20",
        "type": "t_mapping(t_address,t_array(t_uint256)dyn_storage)"
      },
      {
        "astId": 8782,
        "contract": "contracts/base/loans/LoanManager.sol:LoanManager",
        "label": "loanIDCounter",
        "offset": 0,
        "slot": "21",
        "type": "t_uint256"
      },
      {
        "astId": 8786,
        "contract": "contracts/base/loans/LoanManager.sol:LoanManager",
        "label": "loans",
        "offset": 0,
        "slot": "22",
        "type": "t_mapping(t_uint256,t_struct(Loan)15898_storage)"
      },
      {
        "astId": 8788,
        "contract": "contracts/base/loans/LoanManager.sol:LoanManager",
        "label": "signers",
        "offset": 0,
        "slot": "23",
        "type": "t_struct(AddressArray)14159_storage"
      },
      {
        "astId": 8790,
        "contract": "contracts/base/loans/LoanManager.sol:LoanManager",
        "label": "initDynamicProxyLogic",
        "offset": 0,
        "slot": "25",
        "type": "t_address"
      },
      {
        "astId": 8792,
        "contract": "contracts/base/loans/LoanManager.sol:LoanManager",
        "label": "loanData",
        "offset": 0,
        "slot": "26",
        "type": "t_address"
      },
      {
        "astId": 8794,
        "contract": "contracts/base/loans/LoanManager.sol:LoanManager",
        "label": "loanTermsConsensus",
        "offset": 0,
        "slot": "27",
        "type": "t_address"
      },
      {
        "astId": 8806,
        "contract": "contracts/base/loans/LoanManager.sol:LoanManager",
        "label": "_notEntered",
        "offset": 20,
        "slot": "27",
        "type": "t_bool"
      },
      {
        "astId": 8808,
        "contract": "contracts/base/loans/LoanManager.sol:LoanManager",
        "label": "assetSettings",
        "offset": 0,
        "slot": "28",
        "type": "t_contract(AssetSettingsInterface)11401"
      }
    ],
    "types": {
      "t_address": {
        "encoding": "inplace",
        "label": "address",
        "numberOfBytes": "20"
      },
      "t_address_payable": {
        "encoding": "inplace",
        "label": "address payable",
        "numberOfBytes": "20"
      },
      "t_array(t_address)dyn_storage": {
        "base": "t_address",
        "encoding": "dynamic_array",
        "label": "address[]",
        "numberOfBytes": "32"
      },
      "t_array(t_uint256)10_storage": {
        "base": "t_uint256",
        "encoding": "inplace",
        "label": "uint256[10]",
        "numberOfBytes": "320"
      },
      "t_array(t_uint256)dyn_storage": {
        "base": "t_uint256",
        "encoding": "dynamic_array",
        "label": "uint256[]",
        "numberOfBytes": "32"
      },
      "t_bool": {
        "encoding": "inplace",
        "label": "bool",
        "numberOfBytes": "1"
      },
      "t_bytes32": {
        "encoding": "inplace",
        "label": "bytes32",
        "numberOfBytes": "32"
      },
      "t_contract(AssetSettingsInterface)11401": {
        "encoding": "inplace",
        "label": "contract AssetSettingsInterface",
        "numberOfBytes": "20"
      },
      "t_contract(CErc20Interface)13795": {
        "encoding": "inplace",
        "label": "contract CErc20Interface",
        "numberOfBytes": "20"
      },
      "t_contract(LendingPoolInterface)11775": {
        "encoding": "inplace",
        "label": "contract LendingPoolInterface",
        "numberOfBytes": "20"
      },
      "t_contract(LogicVersionsRegistryInterface)11867": {
        "encoding": "inplace",
        "label": "contract LogicVersionsRegistryInterface",
        "numberOfBytes": "20"
      },
      "t_contract(SettingsInterface)12172": {
        "encoding": "inplace",
        "label": "contract SettingsInterface",
        "numberOfBytes": "20"
      },
      "t_enum(LoanStatus)15816": {
        "encoding": "inplace",
        "label": "enum TellerCommon.LoanStatus",
        "numberOfBytes": "1"
      },
      "t_mapping(t_address,t_array(t_uint256)dyn_storage)": {
        "encoding": "mapping",
        "key": "t_address",
        "label": "mapping(address => uint256[])",
        "numberOfBytes": "32",
        "value": "t_array(t_uint256)dyn_storage"
      },
      "t_mapping(t_address,t_uint256)": {
        "encoding": "mapping",
        "key": "t_address",
        "label": "mapping(address => uint256)",
        "numberOfBytes": "32",
        "value": "t_uint256"
      },
      "t_mapping(t_uint256,t_struct(Loan)15898_storage)": {
        "encoding": "mapping",
        "key": "t_uint256",
        "label": "mapping(uint256 => struct TellerCommon.Loan)",
        "numberOfBytes": "32",
        "value": "t_struct(Loan)15898_storage"
      },
      "t_struct(AddressArray)14159_storage": {
        "encoding": "inplace",
        "label": "struct AddressArrayLib.AddressArray",
        "members": [
          {
            "astId": 14154,
            "contract": "contracts/base/loans/LoanManager.sol:LoanManager",
            "label": "array",
            "offset": 0,
            "slot": "0",
            "type": "t_array(t_address)dyn_storage"
          },
          {
            "astId": 14158,
            "contract": "contracts/base/loans/LoanManager.sol:LoanManager",
            "label": "indices",
            "offset": 0,
            "slot": "1",
            "type": "t_mapping(t_address,t_uint256)"
          }
        ],
        "numberOfBytes": "64"
      },
      "t_struct(Loan)15898_storage": {
        "encoding": "inplace",
        "label": "struct TellerCommon.Loan",
        "members": [
          {
            "astId": 15875,
            "contract": "contracts/base/loans/LoanManager.sol:LoanManager",
            "label": "id",
            "offset": 0,
            "slot": "0",
            "type": "t_uint256"
          },
          {
            "astId": 15877,
            "contract": "contracts/base/loans/LoanManager.sol:LoanManager",
            "label": "loanTerms",
            "offset": 0,
            "slot": "1",
            "type": "t_struct(LoanTerms)15873_storage"
          },
          {
            "astId": 15879,
            "contract": "contracts/base/loans/LoanManager.sol:LoanManager",
            "label": "termsExpiry",
            "offset": 0,
            "slot": "7",
            "type": "t_uint256"
          },
          {
            "astId": 15881,
            "contract": "contracts/base/loans/LoanManager.sol:LoanManager",
            "label": "loanStartTime",
            "offset": 0,
            "slot": "8",
            "type": "t_uint256"
          },
          {
            "astId": 15883,
            "contract": "contracts/base/loans/LoanManager.sol:LoanManager",
            "label": "collateral",
            "offset": 0,
            "slot": "9",
            "type": "t_uint256"
          },
          {
            "astId": 15885,
            "contract": "contracts/base/loans/LoanManager.sol:LoanManager",
            "label": "lastCollateralIn",
            "offset": 0,
            "slot": "10",
            "type": "t_uint256"
          },
          {
            "astId": 15887,
            "contract": "contracts/base/loans/LoanManager.sol:LoanManager",
            "label": "principalOwed",
            "offset": 0,
            "slot": "11",
            "type": "t_uint256"
          },
          {
            "astId": 15889,
            "contract": "contracts/base/loans/LoanManager.sol:LoanManager",
            "label": "interestOwed",
            "offset": 0,
            "slot": "12",
            "type": "t_uint256"
          },
          {
            "astId": 15891,
            "contract": "contracts/base/loans/LoanManager.sol:LoanManager",
            "label": "borrowedAmount",
            "offset": 0,
            "slot": "13",
            "type": "t_uint256"
          },
          {
            "astId": 15893,
            "contract": "contracts/base/loans/LoanManager.sol:LoanManager",
            "label": "escrow",
            "offset": 0,
            "slot": "14",
            "type": "t_address"
          },
          {
            "astId": 15895,
            "contract": "contracts/base/loans/LoanManager.sol:LoanManager",
            "label": "status",
            "offset": 20,
            "slot": "14",
            "type": "t_enum(LoanStatus)15816"
          },
          {
            "astId": 15897,
            "contract": "contracts/base/loans/LoanManager.sol:LoanManager",
            "label": "liquidated",
            "offset": 21,
            "slot": "14",
            "type": "t_bool"
          }
        ],
        "numberOfBytes": "480"
      },
      "t_struct(LoanTerms)15873_storage": {
        "encoding": "inplace",
        "label": "struct TellerCommon.LoanTerms",
        "members": [
          {
            "astId": 15862,
            "contract": "contracts/base/loans/LoanManager.sol:LoanManager",
            "label": "borrower",
            "offset": 0,
            "slot": "0",
            "type": "t_address_payable"
          },
          {
            "astId": 15864,
            "contract": "contracts/base/loans/LoanManager.sol:LoanManager",
            "label": "recipient",
            "offset": 0,
            "slot": "1",
            "type": "t_address"
          },
          {
            "astId": 15866,
            "contract": "contracts/base/loans/LoanManager.sol:LoanManager",
            "label": "interestRate",
            "offset": 0,
            "slot": "2",
            "type": "t_uint256"
          },
          {
            "astId": 15868,
            "contract": "contracts/base/loans/LoanManager.sol:LoanManager",
            "label": "collateralRatio",
            "offset": 0,
            "slot": "3",
            "type": "t_uint256"
          },
          {
            "astId": 15870,
            "contract": "contracts/base/loans/LoanManager.sol:LoanManager",
            "label": "maxLoanAmount",
            "offset": 0,
            "slot": "4",
            "type": "t_uint256"
          },
          {
            "astId": 15872,
            "contract": "contracts/base/loans/LoanManager.sol:LoanManager",
            "label": "duration",
            "offset": 0,
            "slot": "5",
            "type": "t_uint256"
          }
        ],
        "numberOfBytes": "192"
      },
      "t_uint256": {
        "encoding": "inplace",
        "label": "uint256",
        "numberOfBytes": "32"
      }
    }
  }
}