{
  "address": "0x80Ab43E368A74337f46BD096374C76cbeee48ED2",
  "abi": [
    {
      "constant": true,
      "inputs": [],
      "name": "LOAN_DATA_LOGIC_NAME",
      "outputs": [
        {
          "internalType": "bytes32",
          "name": "",
          "type": "bytes32"
        }
      ],
      "payable": false,
      "stateMutability": "view",
      "type": "function"
    },
    {
      "constant": true,
      "inputs": [],
      "name": "LOAN_TERMS_CONSENSUS_LOGIC_NAME",
      "outputs": [
        {
          "internalType": "bytes32",
          "name": "",
          "type": "bytes32"
        }
      ],
      "payable": false,
      "stateMutability": "view",
      "type": "function"
    },
    {
      "constant": true,
      "inputs": [],
      "name": "assetSettings",
      "outputs": [
        {
          "internalType": "contract AssetSettingsInterface",
          "name": "",
          "type": "address"
        }
      ],
      "payable": false,
      "stateMutability": "view",
      "type": "function"
    },
    {
      "constant": true,
      "inputs": [],
      "name": "cToken",
      "outputs": [
        {
          "internalType": "contract CErc20Interface",
          "name": "",
          "type": "address"
        }
      ],
      "payable": false,
      "stateMutability": "view",
      "type": "function"
    },
    {
      "constant": true,
      "inputs": [
        {
          "internalType": "uint256",
          "name": "loanID",
          "type": "uint256"
        }
      ],
      "name": "canGoToEOA",
      "outputs": [
        {
          "internalType": "bool",
          "name": "",
          "type": "bool"
        }
      ],
      "payable": false,
      "stateMutability": "view",
      "type": "function"
    },
    {
      "constant": true,
      "inputs": [],
      "name": "collateralToken",
      "outputs": [
        {
          "internalType": "address",
          "name": "",
          "type": "address"
        }
      ],
      "payable": false,
      "stateMutability": "view",
      "type": "function"
    },
    {
      "constant": true,
      "inputs": [
        {
          "internalType": "uint256",
          "name": "loanID",
          "type": "uint256"
        }
      ],
      "name": "getCollateralInLendingTokens",
      "outputs": [
        {
          "internalType": "uint256",
          "name": "",
          "type": "uint256"
        }
      ],
      "payable": false,
      "stateMutability": "view",
      "type": "function"
    },
    {
      "constant": true,
      "inputs": [
        {
          "internalType": "uint256",
          "name": "loanID",
          "type": "uint256"
        }
      ],
      "name": "getCollateralNeededInTokens",
      "outputs": [
        {
          "internalType": "int256",
          "name": "neededInLendingTokens",
          "type": "int256"
        },
        {
          "internalType": "uint256",
          "name": "escrowLoanValue",
          "type": "uint256"
        }
      ],
      "payable": false,
      "stateMutability": "view",
      "type": "function"
    },
    {
      "constant": true,
      "inputs": [
        {
          "internalType": "uint256",
          "name": "loanID",
          "type": "uint256"
        }
      ],
      "name": "getCollateralNeededInfo",
      "outputs": [
        {
          "internalType": "int256",
          "name": "neededInLendingTokens",
          "type": "int256"
        },
        {
          "internalType": "int256",
          "name": "neededInCollateralTokens",
          "type": "int256"
        },
        {
          "internalType": "uint256",
          "name": "escrowLoanValue",
          "type": "uint256"
        }
      ],
      "payable": false,
      "stateMutability": "view",
      "type": "function"
    },
    {
      "constant": true,
      "inputs": [
        {
          "internalType": "uint256",
          "name": "loanID",
          "type": "uint256"
        },
        {
          "internalType": "uint256",
          "name": "amountBorrow",
          "type": "uint256"
        }
      ],
      "name": "getInterestOwedFor",
      "outputs": [
        {
          "internalType": "uint256",
          "name": "",
          "type": "uint256"
        }
      ],
      "payable": false,
      "stateMutability": "view",
      "type": "function"
    },
    {
      "constant": true,
      "inputs": [
        {
          "internalType": "uint256",
          "name": "loanID",
          "type": "uint256"
        }
      ],
      "name": "getInterestRatio",
      "outputs": [
        {
          "internalType": "uint256",
          "name": "",
          "type": "uint256"
        }
      ],
      "payable": false,
      "stateMutability": "view",
      "type": "function"
    },
    {
      "constant": true,
      "inputs": [
        {
          "internalType": "uint256",
          "name": "loanID",
          "type": "uint256"
        }
      ],
      "name": "getLiquidationReward",
      "outputs": [
        {
          "internalType": "int256",
          "name": "",
          "type": "int256"
        }
      ],
      "payable": false,
      "stateMutability": "view",
      "type": "function"
    },
    {
      "constant": true,
      "inputs": [
        {
          "internalType": "uint256",
          "name": "loanID",
          "type": "uint256"
        }
      ],
      "name": "getLoanAmount",
      "outputs": [
        {
          "internalType": "uint256",
          "name": "",
          "type": "uint256"
        }
      ],
      "payable": false,
      "stateMutability": "view",
      "type": "function"
    },
    {
      "constant": true,
      "inputs": [
        {
          "internalType": "uint256",
          "name": "loanID",
          "type": "uint256"
        }
      ],
      "name": "getTotalOwed",
      "outputs": [
        {
          "internalType": "uint256",
          "name": "",
          "type": "uint256"
        }
      ],
      "payable": false,
      "stateMutability": "view",
      "type": "function"
    },
    {
      "constant": true,
      "inputs": [],
      "name": "implementationStored",
      "outputs": [
        {
          "internalType": "address",
          "name": "",
          "type": "address"
        }
      ],
      "payable": false,
      "stateMutability": "view",
      "type": "function"
    },
    {
      "constant": true,
      "inputs": [
        {
          "internalType": "uint256",
          "name": "loanID",
          "type": "uint256"
        }
      ],
      "name": "isActiveOrSet",
      "outputs": [
        {
          "internalType": "bool",
          "name": "",
          "type": "bool"
        }
      ],
      "payable": false,
      "stateMutability": "view",
      "type": "function"
    },
    {
      "constant": true,
      "inputs": [
        {
          "internalType": "uint256",
          "name": "loanID",
          "type": "uint256"
        }
      ],
      "name": "isLiquidable",
      "outputs": [
        {
          "internalType": "bool",
          "name": "",
          "type": "bool"
        }
      ],
      "payable": false,
      "stateMutability": "view",
      "type": "function"
    },
    {
      "constant": true,
      "inputs": [
        {
          "internalType": "uint256",
          "name": "loanID",
          "type": "uint256"
        }
      ],
      "name": "isLoanSecured",
      "outputs": [
        {
          "internalType": "bool",
          "name": "",
          "type": "bool"
        }
      ],
      "payable": false,
      "stateMutability": "view",
      "type": "function"
    },
    {
      "constant": true,
      "inputs": [],
      "name": "lendingPool",
      "outputs": [
        {
          "internalType": "contract LendingPoolInterface",
          "name": "",
          "type": "address"
        }
      ],
      "payable": false,
      "stateMutability": "view",
      "type": "function"
    },
    {
      "constant": true,
      "inputs": [],
      "name": "lendingToken",
      "outputs": [
        {
          "internalType": "address",
          "name": "",
          "type": "address"
        }
      ],
      "payable": false,
      "stateMutability": "view",
      "type": "function"
    },
    {
      "constant": true,
      "inputs": [],
      "name": "loanIDCounter",
      "outputs": [
        {
          "internalType": "uint256",
          "name": "",
          "type": "uint256"
        }
      ],
      "payable": false,
      "stateMutability": "view",
      "type": "function"
    },
    {
      "constant": true,
      "inputs": [
        {
          "internalType": "uint256",
          "name": "",
          "type": "uint256"
        }
      ],
      "name": "loans",
      "outputs": [
        {
          "internalType": "uint256",
          "name": "id",
          "type": "uint256"
        },
        {
          "components": [
            {
              "internalType": "address payable",
              "name": "borrower",
              "type": "address"
            },
            {
              "internalType": "address",
              "name": "recipient",
              "type": "address"
            },
            {
              "internalType": "uint256",
              "name": "interestRate",
              "type": "uint256"
            },
            {
              "internalType": "uint256",
              "name": "collateralRatio",
              "type": "uint256"
            },
            {
              "internalType": "uint256",
              "name": "maxLoanAmount",
              "type": "uint256"
            },
            {
              "internalType": "uint256",
              "name": "duration",
              "type": "uint256"
            }
          ],
          "internalType": "struct TellerCommon.LoanTerms",
          "name": "loanTerms",
          "type": "tuple"
        },
        {
          "internalType": "uint256",
          "name": "termsExpiry",
          "type": "uint256"
        },
        {
          "internalType": "uint256",
          "name": "loanStartTime",
          "type": "uint256"
        },
        {
          "internalType": "uint256",
          "name": "collateral",
          "type": "uint256"
        },
        {
          "internalType": "uint256",
          "name": "lastCollateralIn",
          "type": "uint256"
        },
        {
          "internalType": "uint256",
          "name": "principalOwed",
          "type": "uint256"
        },
        {
          "internalType": "uint256",
          "name": "interestOwed",
          "type": "uint256"
        },
        {
          "internalType": "uint256",
          "name": "borrowedAmount",
          "type": "uint256"
        },
        {
          "internalType": "address",
          "name": "escrow",
          "type": "address"
        },
        {
          "internalType": "enum TellerCommon.LoanStatus",
          "name": "status",
          "type": "uint8"
        },
        {
          "internalType": "bool",
          "name": "liquidated",
          "type": "bool"
        }
      ],
      "payable": false,
      "stateMutability": "view",
      "type": "function"
    },
    {
      "constant": true,
      "inputs": [],
      "name": "logicName",
      "outputs": [
        {
          "internalType": "bytes32",
          "name": "",
          "type": "bytes32"
        }
      ],
      "payable": false,
      "stateMutability": "view",
      "type": "function"
    },
    {
      "constant": true,
      "inputs": [],
      "name": "logicRegistry",
      "outputs": [
        {
          "internalType": "contract LogicVersionsRegistryInterface",
          "name": "",
          "type": "address"
        }
      ],
      "payable": false,
      "stateMutability": "view",
      "type": "function"
    },
    {
      "constant": true,
      "inputs": [],
      "name": "settings",
      "outputs": [
        {
          "internalType": "contract SettingsInterface",
          "name": "",
          "type": "address"
        }
      ],
      "payable": false,
      "stateMutability": "view",
      "type": "function"
    },
    {
      "constant": true,
      "inputs": [],
      "name": "strictDynamic",
      "outputs": [
        {
          "internalType": "bool",
          "name": "",
          "type": "bool"
        }
      ],
      "payable": false,
      "stateMutability": "view",
      "type": "function"
    },
    {
      "constant": true,
      "inputs": [],
      "name": "totalCollateral",
      "outputs": [
        {
          "internalType": "uint256",
          "name": "",
          "type": "uint256"
        }
      ],
      "payable": false,
      "stateMutability": "view",
      "type": "function"
    }
  ],
  "transactionHash": "0x5654cebb7bbedca24a33eca2bef7db6b15fbf4175b70d84c1af8a63f453ce3e4",
  "args": [],
  "solcInputHash": "3790d34ca1d72794863015ffe08f35de",
  "bytecode": "0x608060405234801561001057600080fd5b50611620806100206000396000f3fe608060405234801561001057600080fd5b50600436106101a95760003560e01c8063854768c0116100f9578063b678050711610097578063e154e9a411610071578063e154e9a414610321578063e1ec3c6814610329578063e6a901c114610354578063e949756114610367576101a9565b8063b6780507146102fe578063c9e02bef14610306578063e06174e414610319576101a9565b8063aaaca558116100d3578063aaaca558146102c5578063b06164cf146102cd578063b2016bd4146102ee578063b3076d00146102f6576101a9565b8063854768c01461029757806386f0a621146102aa578063a59a9973146102bd576101a9565b80634f8654bc116101665780635ca879d7116101405780635ca879d71461023a5780635ebc63341461025a57806369e527da1461026d57806372e1132714610275576101a9565b80634f8654bc14610217578063513484541461021f57806359c697f414610227576101a9565b8063226546a4146101ae5780632c26486d146101d757806337c3eedc146101df57806338c72f69146101f45780633b929300146101fc5780634ac8eb5f1461020f575b600080fd5b6101c16101bc366004611276565b61037a565b6040516101ce919061135d565b60405180910390f35b6101c1610413565b6101e7610419565b6040516101ce919061131a565b6101c1610428565b6101c161020a366004611276565b61043f565b6101c1610518565b6101e761051e565b6101c1610532565b6101c1610235366004611276565b610538565b61024d610248366004611276565b61066a565b6040516101ce9190611352565b6101c1610268366004611276565b610714565b6101e761088b565b610288610283366004611276565b61089a565b6040516101ce93929190611366565b61024d6102a5366004611276565b610a0c565b6101c16102b8366004611276565b610aaf565b6101e7610aed565b6101e7610afc565b6102e06102db366004611276565b610b0b565b6040516101ce92919061137c565b6101e7610d73565b6101e7610d82565b6101c1610d91565b61024d610314366004611276565b610d9d565b6101e7610e35565b61024d610e44565b61033c610337366004611276565b610e4d565b6040516101ce9c9b9a99989796959493929190611521565b61024d610362366004611276565b610f05565b6101c16103753660046112a6565b610f67565b600060016000838152601660205260409020600e0154600160a01b900460ff1660038111156103a557fe5b14156103c3575060008181526016602052604090206005015461040e565b60026000838152601660205260409020600e0154600160a01b900460ff1660038111156103ec57fe5b141561040a57506000818152601660205260409020600d015461040e565b5060005b919050565b60015481565b6000546001600160a01b031681565b604051610434906112e8565b604051809103902081565b600060016000838152601660205260409020600e0154600160a01b900460ff16600381111561046a57fe5b14156104ba5760008281526016602052604081206005015461048d908490610f67565b6000848152601660205260409020600501549091506104b2908263ffffffff610f8916565b91505061040e565b60026000838152601660205260409020600e0154600160a01b900460ff1660038111156104e357fe5b141561040a576000828152601660205260409020600c810154600b909101546105119163ffffffff610f8916565b905061040e565b600f5481565b60025461010090046001600160a01b031681565b60155481565b600061054382610f05565b61054f5750600061040e565b600480546040805163140134db60e21b815290516001600160a01b0390921692635004d36c928282019260209290829003018186803b15801561059157600080fd5b505afa1580156105a5573d6000803e3d6000fd5b505050506040513d601f19601f820116820180604052506105c9919081019061124f565b6012546011546000858152601660205260409081902060090154905163036ec87560e61b81526001600160a01b039485169463dbb21d4094610614949082169391169160040161132e565b60206040518083038186803b15801561062c57600080fd5b505afa158015610640573d6000803e3d6000fd5b505050506040513d601f19601f82011682018060405250610664919081019061128e565b92915050565b600060026000838152601660205260409020600e0154600160a01b900460ff16600381111561069557fe5b146106a25750600061040e565b600082815260166020526040902060040154156106e25760006106c48361089a565b5060008581526016602052604090206009015412925061040e915050565b6000828152601660205260409020600681015460089091015461070a9163ffffffff610f8916565b421015905061040e565b6000806107208361043f565b6000848152601660209081526040808320600e01548151630a06101d60e41b8152915194955092936107c4936001600160a01b03169263a06101d09260048082019391829003018186803b15801561077757600080fd5b505afa15801561078b573d6000803e3d6000fd5b505050506040513d601f19601f820116820180604052506107af919081019061128e565b6107b886610538565b9063ffffffff610f8916565b600480546040805163375534b960e21b8152905193945060009361085b9361084e936001600160a01b03169263dd54d2e49281830192602092829003018186803b15801561081157600080fd5b505afa158015610825573d6000803e3d6000fd5b505050506040513d601f19601f82011682018060405250610849919081019061128e565b610fb7565b849063ffffffff610fca16565b90508083018210156108715750915061040e9050565b610881818463ffffffff610fe716565b935050505061040e565b6013546001600160a01b031681565b60008060006108a884610b0b565b9093509050826108bb5760009150610a05565b6000600460009054906101000a90046001600160a01b03166001600160a01b0316635004d36c6040518163ffffffff1660e01b815260040160206040518083038186803b15801561090b57600080fd5b505afa15801561091f573d6000803e3d6000fd5b505050506040513d601f19601f82011682018060405250610943919081019061124f565b6011546012546001600160a01b039283169263dbb21d4092811691166000881261096d5787610972565b876000035b6040518463ffffffff1660e01b81526004016109909392919061132e565b60206040518083038186803b1580156109a857600080fd5b505afa1580156109bc573d6000803e3d6000fd5b505050506040513d601f19601f820116820180604052506109e0919081019061128e565b90508092506000841215610a0357610a008360001963ffffffff61102d16565b92505b505b9193909250565b6000600460009054906101000a90046001600160a01b03166001600160a01b0316636c14b1e06040518163ffffffff1660e01b815260040160206040518083038186803b158015610a5c57600080fd5b505afa158015610a70573d6000803e3d6000fd5b505050506040513d601f19601f82011682018060405250610a94919081019061128e565b60008381526016602052604090206004015410159050919050565b60008181526016602052604081206006810154600390910154610664916301e1338091610ae19163ffffffff61109816565b9063ffffffff6110d216565b6010546001600160a01b031681565b6011546001600160a01b031681565b600080610b1783610f05565b1580610b325750600083815260166020526040902060040154155b15610b4257506000905080610d6e565b60016000848152601660205260409020600e0154600160a01b900460ff166003811115610b6b57fe5b1415610ba357600083815260166020526040902060040154610b9c90610b908561037a565b9063ffffffff61111416565b9150610d6e565b6000838152601660209081526040808320600b0154600480548351630360a58f60e51b815293519297506001600160a01b031693636c14b1e09380830193919290829003018186803b158015610bf857600080fd5b505afa158015610c0c573d6000803e3d6000fd5b505050506040513d601f19601f82011682018060405250610c30919081019061128e565b90506000610c6e82610c62610c4488610aaf565b6000898152601660205260409020600401549063ffffffff61113016565b9063ffffffff61113016565b6000868152601660205260409020600e01549091506001600160a01b031615610d4057600085815260166020908152604091829020600e01548251630a06101d60e41b815292516001600160a01b039091169263a06101d0926004808301939192829003018186803b158015610ce357600080fd5b505afa158015610cf7573d6000803e3d6000fd5b505050506040513d601f19601f82011682018060405250610d1b919081019061128e565b9250610d3d610d30858563ffffffff61117216565b859063ffffffff610fe716565b93505b6000858152601660205260409020600c0154610d69908290610b9090879063ffffffff610fe716565b935050505b915091565b6012546001600160a01b031681565b601c546001600160a01b031681565b604051610434906112fc565b600480546040805163f09d223b60e01b8152905160009384936001600160a01b03169263f09d223b9281830192602092829003018186803b158015610de157600080fd5b505afa158015610df5573d6000803e3d6000fd5b505050506040513d601f19601f82011682018060405250610e19919081019061128e565b6000848152601660205260409020600401541015915050919050565b6004546001600160a01b031681565b60025460ff1681565b6016602090815260009182526040918290208054835160c08101855260018301546001600160a01b03908116825260028401548116948201949094526003830154948101949094526004820154606085015260058201546080850152600682015460a0850152600782015460088301546009840154600a850154600b860154600c870154600d880154600e9098015496999895979496939592949193909281169060ff600160a01b8204811691600160a81b9004168c565b600060026000838152601660205260409020600e0154600160a01b900460ff166003811115610f3057fe5b1480610664575060016000838152601660205260409020600e0154600160a01b900460ff166003811115610f6057fe5b1492915050565b6000610f82610f7584610aaf565b839063ffffffff610fca16565b9392505050565b600082820183811015610f825760405162461bcd60e51b8152600401610fae906113dd565b60405180910390fd5b600061066482610fc56111b8565b6111be565b6000610f82610fd76111b8565b610ae1858563ffffffff61109816565b6000828201818312801590610ffc5750838112155b80611011575060008312801561101157508381125b610f825760405162461bcd60e51b8152600401610fae90611414565b60008261103c57506000610664565b826000191480156110505750600160ff1b82145b1561106d5760405162461bcd60e51b8152600401610fae90611496565b8282028284828161107a57fe5b0514610f825760405162461bcd60e51b8152600401610fae90611496565b6000826110a757506000610664565b828202828482816110b457fe5b0414610f825760405162461bcd60e51b8152600401610fae90611455565b6000610f8283836040518060400160405280601a81526020017f536166654d6174683a206469766973696f6e206279207a65726f0000000000008152506111ec565b600061111e6111b8565b8284028161112857fe5b059392505050565b6000610f8283836040518060400160405280601e81526020017f536166654d6174683a207375627472616374696f6e206f766572666c6f770000815250611223565b60008183038183128015906111875750838113155b8061119c575060008312801561119c57508381135b610f825760405162461bcd60e51b8152600401610fae906114dd565b61271090565b60008282116111dc576111d7838363ffffffff61113016565b610f82565b610f82828463ffffffff61113016565b6000818361120d5760405162461bcd60e51b8152600401610fae919061138a565b50600083858161121957fe5b0495945050505050565b600081848411156112475760405162461bcd60e51b8152600401610fae919061138a565b505050900390565b600060208284031215611260578081fd5b81516001600160a01b0381168114610f82578182fd5b600060208284031215611287578081fd5b5035919050565b60006020828403121561129f578081fd5b5051919050565b600080604083850312156112b8578081fd5b50508035926020909101359150565b6001600160a01b03169052565b15159052565b600481106112e457fe5b9052565b674c6f616e4461746160c01b815260080190565b714c6f616e5465726d73436f6e73656e73757360701b815260120190565b6001600160a01b0391909116815260200190565b6001600160a01b039384168152919092166020820152604081019190915260600190565b901515815260200190565b90815260200190565b9283526020830191909152604082015260600190565b918252602082015260400190565b6000602082528251806020840152815b818110156113b7576020818601810151604086840101520161139a565b818111156113c85782604083860101525b50601f01601f19169190910160400192915050565b6020808252601b908201527f536166654d6174683a206164646974696f6e206f766572666c6f770000000000604082015260600190565b60208082526021908201527f5369676e6564536166654d6174683a206164646974696f6e206f766572666c6f6040820152607760f81b606082015260800190565b60208082526021908201527f536166654d6174683a206d756c7469706c69636174696f6e206f766572666c6f6040820152607760f81b606082015260800190565b60208082526027908201527f5369676e6564536166654d6174683a206d756c7469706c69636174696f6e206f604082015266766572666c6f7760c81b606082015260800190565b60208082526024908201527f5369676e6564536166654d6174683a207375627472616374696f6e206f766572604082015263666c6f7760e01b606082015260800190565b6000610220820190508d825260018060a01b03808e511660208401528060208f01511660408401525060408d0151606083015260608d0151608083015260808d015160a083015260a08d015160c08301528b60e08301528a61010083015289610120830152886101408301528761016083015286610180830152856101a08301526115b06101c08301866112c7565b6115be6101e08301856112da565b6115cc6102008301846112d4565b9d9c5050505050505050505050505056fea365627a7a723158206c7718ca6e2076ee50d8384eee986dd433d2270ac1dbd6644275c4492f685aee6c6578706572696d656e74616cf564736f6c63430005110040",
  "devdoc": {
    "author": "develop@teller.finance.",
    "details": "It is used by the LoanManager contract to delegatecall from.",
    "methods": {
      "canGoToEOA(uint256)": {
        "params": {
          "loanID": "The loan ID to check the collateral ratio for."
        },
        "return": "bool indicating whether the loan with specified parameters can be deposited to an EOA."
      },
      "getCollateralInLendingTokens(uint256)": {
        "params": {
          "loanID": "The loan ID for which to get collateral information for"
        },
        "return": "uint256 Collateral needed in lending token value"
      },
      "getCollateralNeededInTokens(uint256)": {
        "details": "If the loan status is TermsSet, then the value is whats needed to take out the loan.If the loan status is Active, then the value is the threshold at which the loan can be liquidated at.",
        "params": {
          "loanID": "The loan ID to get needed collateral info for."
        },
        "return": "int256 The minimum collateral value threshold required.uint256 The value of the loan held in the escrow contract."
      },
      "getCollateralNeededInfo(uint256)": {
        "params": {
          "loanID": "The loan ID to get collateral info for."
        },
        "return": "int256 Collateral needed in Lending tokens.int256 Collateral needed in Collateral tokens (wei)uint256 The value of the loan held in the escrow contract"
      },
      "getInterestOwedFor(uint256,uint256)": {
        "params": {
          "amountBorrow": "The principal of the loan to take out.",
          "loanID": "The loan ID to get the owed interest."
        },
        "return": "uint256 The interest owed."
      },
      "getInterestRatio(uint256)": {
        "details": "The interest rate on the loan terms is APY.",
        "params": {
          "loanID": "The loan ID to get the interest rate for."
        }
      },
      "getLiquidationReward(uint256)": {
        "params": {
          "loanID": "The loan ID to get the info."
        },
        "return": "The value the liquidator will receive denoted in collateral tokens."
      },
      "getLoanAmount(uint256)": {
        "params": {
          "loanID": "The loan ID to get the total amount owed."
        },
        "return": "uint256 The amount owed."
      },
      "getTotalOwed(uint256)": {
        "params": {
          "loanID": "The loan ID to get the total amount owed."
        },
        "return": "uint256 The total owed amount."
      },
      "isActiveOrSet(uint256)": {
        "params": {
          "loanID": "The loan ID for which to check the status"
        },
        "return": "bool value indicating if the loan is active or has terms set"
      },
      "isLiquidable(uint256)": {
        "params": {
          "loanID": "The loan ID to check."
        },
        "return": "true if the loan is liquidable."
      },
      "isLoanSecured(uint256)": {
        "params": {
          "loanID": "The loan ID to check."
        },
        "return": "bool value of it being secured or not."
      }
    }
  },
  "userdoc": {
    "methods": {
      "canGoToEOA(uint256)": {
        "notice": "Checks whether a loan is allowed to be deposited to an Externally Owned Account."
      },
      "getCollateralInLendingTokens(uint256)": {
        "notice": "Returns the collateral needed for a loan, in the lending token, needed to take out the loan or for it be liquidated."
      },
      "getCollateralNeededInTokens(uint256)": {
        "notice": "Returns the minimum collateral value threshold, in the lending token, needed to take out the loan or for it be liquidated."
      },
      "getCollateralNeededInfo(uint256)": {
        "notice": "Get information on the collateral needed for the loan."
      },
      "getInterestOwedFor(uint256,uint256)": {
        "notice": "Returns the amount of interest owed for a given loan and loan amount."
      },
      "getInterestRatio(uint256)": {
        "notice": "Returns the interest ratio based on the loan interest rate for the loan duration."
      },
      "getLiquidationReward(uint256)": {
        "notice": "It gets the current liquidation reward for a given loan."
      },
      "getLoanAmount(uint256)": {
        "notice": "Returns the total amount owed for a specified loan."
      },
      "getTotalOwed(uint256)": {
        "notice": "Returns the total amount owed for a specified loan."
      },
      "isActiveOrSet(uint256)": {
        "notice": "Checks whether the status of a loan is Active or has Terms Set"
      },
      "isLiquidable(uint256)": {
        "notice": "It checks if a loan can be liquidated."
      },
      "isLoanSecured(uint256)": {
        "notice": "Checks whether the loan's collateral ratio is considered to be secured based on the settings collateral buffer value."
      }
    },
    "notice": "This contract stores the logic for calculating loan information."
  },
  "storageLayout": {
    "storage": [
      {
        "astId": 11226,
        "contract": "contracts/base/loans/LoanData.sol:LoanData",
        "label": "logicRegistry",
        "offset": 0,
        "slot": "0",
        "type": "t_contract(LogicVersionsRegistryInterface)11867"
      },
      {
        "astId": 11228,
        "contract": "contracts/base/loans/LoanData.sol:LoanData",
        "label": "logicName",
        "offset": 0,
        "slot": "1",
        "type": "t_bytes32"
      },
      {
        "astId": 11230,
        "contract": "contracts/base/loans/LoanData.sol:LoanData",
        "label": "strictDynamic",
        "offset": 0,
        "slot": "2",
        "type": "t_bool"
      },
      {
        "astId": 11232,
        "contract": "contracts/base/loans/LoanData.sol:LoanData",
        "label": "implementationStored",
        "offset": 1,
        "slot": "2",
        "type": "t_address"
      },
      {
        "astId": 11234,
        "contract": "contracts/base/loans/LoanData.sol:LoanData",
        "label": "_implementationBlockUpdated",
        "offset": 0,
        "slot": "3",
        "type": "t_uint256"
      },
      {
        "astId": 1762,
        "contract": "contracts/base/loans/LoanData.sol:LoanData",
        "label": "settings",
        "offset": 0,
        "slot": "4",
        "type": "t_contract(SettingsInterface)12172"
      },
      {
        "astId": 1766,
        "contract": "contracts/base/loans/LoanData.sol:LoanData",
        "label": "__gap",
        "offset": 0,
        "slot": "5",
        "type": "t_array(t_uint256)10_storage"
      },
      {
        "astId": 8767,
        "contract": "contracts/base/loans/LoanData.sol:LoanData",
        "label": "totalCollateral",
        "offset": 0,
        "slot": "15",
        "type": "t_uint256"
      },
      {
        "astId": 8769,
        "contract": "contracts/base/loans/LoanData.sol:LoanData",
        "label": "lendingPool",
        "offset": 0,
        "slot": "16",
        "type": "t_contract(LendingPoolInterface)11775"
      },
      {
        "astId": 8771,
        "contract": "contracts/base/loans/LoanData.sol:LoanData",
        "label": "lendingToken",
        "offset": 0,
        "slot": "17",
        "type": "t_address"
      },
      {
        "astId": 8773,
        "contract": "contracts/base/loans/LoanData.sol:LoanData",
        "label": "collateralToken",
        "offset": 0,
        "slot": "18",
        "type": "t_address"
      },
      {
        "astId": 8775,
        "contract": "contracts/base/loans/LoanData.sol:LoanData",
        "label": "cToken",
        "offset": 0,
        "slot": "19",
        "type": "t_contract(CErc20Interface)13795"
      },
      {
        "astId": 8780,
        "contract": "contracts/base/loans/LoanData.sol:LoanData",
        "label": "borrowerLoans",
        "offset": 0,
        "slot": "20",
        "type": "t_mapping(t_address,t_array(t_uint256)dyn_storage)"
      },
      {
        "astId": 8782,
        "contract": "contracts/base/loans/LoanData.sol:LoanData",
        "label": "loanIDCounter",
        "offset": 0,
        "slot": "21",
        "type": "t_uint256"
      },
      {
        "astId": 8786,
        "contract": "contracts/base/loans/LoanData.sol:LoanData",
        "label": "loans",
        "offset": 0,
        "slot": "22",
        "type": "t_mapping(t_uint256,t_struct(Loan)15898_storage)"
      },
      {
        "astId": 8788,
        "contract": "contracts/base/loans/LoanData.sol:LoanData",
        "label": "signers",
        "offset": 0,
        "slot": "23",
        "type": "t_struct(AddressArray)14159_storage"
      },
      {
        "astId": 8790,
        "contract": "contracts/base/loans/LoanData.sol:LoanData",
        "label": "initDynamicProxyLogic",
        "offset": 0,
        "slot": "25",
        "type": "t_address"
      },
      {
        "astId": 8792,
        "contract": "contracts/base/loans/LoanData.sol:LoanData",
        "label": "loanData",
        "offset": 0,
        "slot": "26",
        "type": "t_address"
      },
      {
        "astId": 8794,
        "contract": "contracts/base/loans/LoanData.sol:LoanData",
        "label": "loanTermsConsensus",
        "offset": 0,
        "slot": "27",
        "type": "t_address"
      },
      {
        "astId": 8806,
        "contract": "contracts/base/loans/LoanData.sol:LoanData",
        "label": "_notEntered",
        "offset": 20,
        "slot": "27",
        "type": "t_bool"
      },
      {
        "astId": 8808,
        "contract": "contracts/base/loans/LoanData.sol:LoanData",
        "label": "assetSettings",
        "offset": 0,
        "slot": "28",
        "type": "t_contract(AssetSettingsInterface)11401"
      }
    ],
    "types": {
      "t_address": {
        "encoding": "inplace",
        "label": "address",
        "numberOfBytes": "20"
      },
      "t_address_payable": {
        "encoding": "inplace",
        "label": "address payable",
        "numberOfBytes": "20"
      },
      "t_array(t_address)dyn_storage": {
        "base": "t_address",
        "encoding": "dynamic_array",
        "label": "address[]",
        "numberOfBytes": "32"
      },
      "t_array(t_uint256)10_storage": {
        "base": "t_uint256",
        "encoding": "inplace",
        "label": "uint256[10]",
        "numberOfBytes": "320"
      },
      "t_array(t_uint256)dyn_storage": {
        "base": "t_uint256",
        "encoding": "dynamic_array",
        "label": "uint256[]",
        "numberOfBytes": "32"
      },
      "t_bool": {
        "encoding": "inplace",
        "label": "bool",
        "numberOfBytes": "1"
      },
      "t_bytes32": {
        "encoding": "inplace",
        "label": "bytes32",
        "numberOfBytes": "32"
      },
      "t_contract(AssetSettingsInterface)11401": {
        "encoding": "inplace",
        "label": "contract AssetSettingsInterface",
        "numberOfBytes": "20"
      },
      "t_contract(CErc20Interface)13795": {
        "encoding": "inplace",
        "label": "contract CErc20Interface",
        "numberOfBytes": "20"
      },
      "t_contract(LendingPoolInterface)11775": {
        "encoding": "inplace",
        "label": "contract LendingPoolInterface",
        "numberOfBytes": "20"
      },
      "t_contract(LogicVersionsRegistryInterface)11867": {
        "encoding": "inplace",
        "label": "contract LogicVersionsRegistryInterface",
        "numberOfBytes": "20"
      },
      "t_contract(SettingsInterface)12172": {
        "encoding": "inplace",
        "label": "contract SettingsInterface",
        "numberOfBytes": "20"
      },
      "t_enum(LoanStatus)15816": {
        "encoding": "inplace",
        "label": "enum TellerCommon.LoanStatus",
        "numberOfBytes": "1"
      },
      "t_mapping(t_address,t_array(t_uint256)dyn_storage)": {
        "encoding": "mapping",
        "key": "t_address",
        "label": "mapping(address => uint256[])",
        "numberOfBytes": "32",
        "value": "t_array(t_uint256)dyn_storage"
      },
      "t_mapping(t_address,t_uint256)": {
        "encoding": "mapping",
        "key": "t_address",
        "label": "mapping(address => uint256)",
        "numberOfBytes": "32",
        "value": "t_uint256"
      },
      "t_mapping(t_uint256,t_struct(Loan)15898_storage)": {
        "encoding": "mapping",
        "key": "t_uint256",
        "label": "mapping(uint256 => struct TellerCommon.Loan)",
        "numberOfBytes": "32",
        "value": "t_struct(Loan)15898_storage"
      },
      "t_struct(AddressArray)14159_storage": {
        "encoding": "inplace",
        "label": "struct AddressArrayLib.AddressArray",
        "members": [
          {
            "astId": 14154,
            "contract": "contracts/base/loans/LoanData.sol:LoanData",
            "label": "array",
            "offset": 0,
            "slot": "0",
            "type": "t_array(t_address)dyn_storage"
          },
          {
            "astId": 14158,
            "contract": "contracts/base/loans/LoanData.sol:LoanData",
            "label": "indices",
            "offset": 0,
            "slot": "1",
            "type": "t_mapping(t_address,t_uint256)"
          }
        ],
        "numberOfBytes": "64"
      },
      "t_struct(Loan)15898_storage": {
        "encoding": "inplace",
        "label": "struct TellerCommon.Loan",
        "members": [
          {
            "astId": 15875,
            "contract": "contracts/base/loans/LoanData.sol:LoanData",
            "label": "id",
            "offset": 0,
            "slot": "0",
            "type": "t_uint256"
          },
          {
            "astId": 15877,
            "contract": "contracts/base/loans/LoanData.sol:LoanData",
            "label": "loanTerms",
            "offset": 0,
            "slot": "1",
            "type": "t_struct(LoanTerms)15873_storage"
          },
          {
            "astId": 15879,
            "contract": "contracts/base/loans/LoanData.sol:LoanData",
            "label": "termsExpiry",
            "offset": 0,
            "slot": "7",
            "type": "t_uint256"
          },
          {
            "astId": 15881,
            "contract": "contracts/base/loans/LoanData.sol:LoanData",
            "label": "loanStartTime",
            "offset": 0,
            "slot": "8",
            "type": "t_uint256"
          },
          {
            "astId": 15883,
            "contract": "contracts/base/loans/LoanData.sol:LoanData",
            "label": "collateral",
            "offset": 0,
            "slot": "9",
            "type": "t_uint256"
          },
          {
            "astId": 15885,
            "contract": "contracts/base/loans/LoanData.sol:LoanData",
            "label": "lastCollateralIn",
            "offset": 0,
            "slot": "10",
            "type": "t_uint256"
          },
          {
            "astId": 15887,
            "contract": "contracts/base/loans/LoanData.sol:LoanData",
            "label": "principalOwed",
            "offset": 0,
            "slot": "11",
            "type": "t_uint256"
          },
          {
            "astId": 15889,
            "contract": "contracts/base/loans/LoanData.sol:LoanData",
            "label": "interestOwed",
            "offset": 0,
            "slot": "12",
            "type": "t_uint256"
          },
          {
            "astId": 15891,
            "contract": "contracts/base/loans/LoanData.sol:LoanData",
            "label": "borrowedAmount",
            "offset": 0,
            "slot": "13",
            "type": "t_uint256"
          },
          {
            "astId": 15893,
            "contract": "contracts/base/loans/LoanData.sol:LoanData",
            "label": "escrow",
            "offset": 0,
            "slot": "14",
            "type": "t_address"
          },
          {
            "astId": 15895,
            "contract": "contracts/base/loans/LoanData.sol:LoanData",
            "label": "status",
            "offset": 20,
            "slot": "14",
            "type": "t_enum(LoanStatus)15816"
          },
          {
            "astId": 15897,
            "contract": "contracts/base/loans/LoanData.sol:LoanData",
            "label": "liquidated",
            "offset": 21,
            "slot": "14",
            "type": "t_bool"
          }
        ],
        "numberOfBytes": "480"
      },
      "t_struct(LoanTerms)15873_storage": {
        "encoding": "inplace",
        "label": "struct TellerCommon.LoanTerms",
        "members": [
          {
            "astId": 15862,
            "contract": "contracts/base/loans/LoanData.sol:LoanData",
            "label": "borrower",
            "offset": 0,
            "slot": "0",
            "type": "t_address_payable"
          },
          {
            "astId": 15864,
            "contract": "contracts/base/loans/LoanData.sol:LoanData",
            "label": "recipient",
            "offset": 0,
            "slot": "1",
            "type": "t_address"
          },
          {
            "astId": 15866,
            "contract": "contracts/base/loans/LoanData.sol:LoanData",
            "label": "interestRate",
            "offset": 0,
            "slot": "2",
            "type": "t_uint256"
          },
          {
            "astId": 15868,
            "contract": "contracts/base/loans/LoanData.sol:LoanData",
            "label": "collateralRatio",
            "offset": 0,
            "slot": "3",
            "type": "t_uint256"
          },
          {
            "astId": 15870,
            "contract": "contracts/base/loans/LoanData.sol:LoanData",
            "label": "maxLoanAmount",
            "offset": 0,
            "slot": "4",
            "type": "t_uint256"
          },
          {
            "astId": 15872,
            "contract": "contracts/base/loans/LoanData.sol:LoanData",
            "label": "duration",
            "offset": 0,
            "slot": "5",
            "type": "t_uint256"
          }
        ],
        "numberOfBytes": "192"
      },
      "t_uint256": {
        "encoding": "inplace",
        "label": "uint256",
        "numberOfBytes": "32"
      }
    }
  }
}