{
  "address": "0x2CECd86e5AE673adC6d77129BE850d7cAa469613",
  "abi": [
    {
      "anonymous": false,
      "inputs": [
        {
          "indexed": true,
          "internalType": "address",
          "name": "previousOwner",
          "type": "address"
        },
        {
          "indexed": true,
          "internalType": "address",
          "name": "newOwner",
          "type": "address"
        }
      ],
      "name": "OwnershipTransferred",
      "type": "event"
    },
    {
      "inputs": [
        {
          "internalType": "uint256",
          "name": "loanID",
          "type": "uint256"
        }
      ],
      "name": "calculateTotalValue",
      "outputs": [
        {
          "internalType": "uint256",
          "name": "",
          "type": "uint256"
        }
      ],
      "stateMutability": "view",
      "type": "function"
    },
    {
      "inputs": [
        {
          "internalType": "address",
          "name": "dappAddress",
          "type": "address"
        },
        {
          "internalType": "bytes",
          "name": "dappData",
          "type": "bytes"
        }
      ],
      "name": "callDapp",
      "outputs": [],
      "stateMutability": "nonpayable",
      "type": "function"
    },
    {
      "inputs": [
        {
          "internalType": "uint256",
          "name": "loanID",
          "type": "uint256"
        }
      ],
      "name": "claimTokens",
      "outputs": [],
      "stateMutability": "nonpayable",
      "type": "function"
    },
    {
      "inputs": [
        {
          "internalType": "uint256",
          "name": "loanID",
          "type": "uint256"
        },
        {
          "internalType": "address",
          "name": "recipient",
          "type": "address"
        },
        {
          "internalType": "uint256",
          "name": "value",
          "type": "uint256"
        }
      ],
      "name": "claimTokensByCollateralValue",
      "outputs": [],
      "stateMutability": "nonpayable",
      "type": "function"
    },
    {
      "inputs": [
        {
          "internalType": "address",
          "name": "_operator",
          "type": "address"
        }
      ],
      "name": "initLoansEscrow",
      "outputs": [],
      "stateMutability": "nonpayable",
      "type": "function"
    },
    {
      "inputs": [],
      "name": "operator",
      "outputs": [
        {
          "internalType": "address",
          "name": "",
          "type": "address"
        }
      ],
      "stateMutability": "view",
      "type": "function"
    },
    {
      "inputs": [],
      "name": "owner",
      "outputs": [
        {
          "internalType": "address",
          "name": "",
          "type": "address"
        }
      ],
      "stateMutability": "view",
      "type": "function"
    },
    {
      "inputs": [],
      "name": "renounceOwnership",
      "outputs": [],
      "stateMutability": "nonpayable",
      "type": "function"
    },
    {
      "inputs": [
        {
          "internalType": "address",
          "name": "newOwner",
          "type": "address"
        }
      ],
      "name": "transferOwnership",
      "outputs": [],
      "stateMutability": "nonpayable",
      "type": "function"
    }
  ],
  "transactionHash": "0xd89e5b9a6ad7b1815dae45744735ab47856432e042707b9d275836483b2d1f04",
  "args": [],
  "solcInputHash": "b659a72f1aa150bf6b0a72f0b26a550c",
  "bytecode": "0x608060405234801561001057600080fd5b50610739806100206000396000f3fe608060405234801561001057600080fd5b50600436106100935760003560e01c8063715018a611610066578063715018a6146101035780638da5cb5b1461010b578063ab626bc21461011c578063bcf877eb1461012f578063f2fde38b1461015157610093565b80634331fa6e1461009857806346e04a2f146100ad5780634b7856bf146100c0578063570ca735146100d3575b600080fd5b6100ab6100a63660046105eb565b610164565b005b6100ab6100bb366004610669565b6101cc565b6100ab6100ce366004610681565b505050565b6065546100e6906001600160a01b031681565b6040516001600160a01b0390911681526020015b60405180910390f35b6100ab610232565b6033546001600160a01b03166100e6565b6100ab61012a3660046105ca565b6102d6565b61014361013d366004610669565b50600090565b6040519081526020016100fa565b6100ab61015f3660046105ca565b610300565b6065546001600160a01b0316336001600160a01b0316146100ce5760405162461bcd60e51b815260206004820152601e60248201527f54656c6c65723a206e6f74206c7020657363726f77206f70657261746f72000060448201526064015b60405180910390fd5b6065546001600160a01b0316336001600160a01b03161461022f5760405162461bcd60e51b815260206004820152601e60248201527f54656c6c65723a206e6f74206c7020657363726f77206f70657261746f72000060448201526064016101c3565b50565b6033546001600160a01b0316331461028c5760405162461bcd60e51b815260206004820181905260248201527f4f776e61626c653a2063616c6c6572206973206e6f7420746865206f776e657260448201526064016101c3565b6033546040516000916001600160a01b0316907f8be0079c531659141344cd1fd0a4f28419497f9722a3daafe3b4186f6b6457e0908390a3603380546001600160a01b0319169055565b6102de61041b565b606580546001600160a01b0319166001600160a01b0392909216919091179055565b6033546001600160a01b0316331461035a5760405162461bcd60e51b815260206004820181905260248201527f4f776e61626c653a2063616c6c6572206973206e6f7420746865206f776e657260448201526064016101c3565b6001600160a01b0381166103bf5760405162461bcd60e51b815260206004820152602660248201527f4f776e61626c653a206e6577206f776e657220697320746865207a65726f206160448201526564647265737360d01b60648201526084016101c3565b6033546040516001600160a01b038084169216907f8be0079c531659141344cd1fd0a4f28419497f9722a3daafe3b4186f6b6457e090600090a3603380546001600160a01b0319166001600160a01b0392909216919091179055565b600054610100900460ff1680610434575060005460ff16155b6104505760405162461bcd60e51b81526004016101c3906106b5565b600054610100900460ff16158015610472576000805461ffff19166101011790555b61047a610496565b610482610500565b801561022f576000805461ff001916905550565b600054610100900460ff16806104af575060005460ff16155b6104cb5760405162461bcd60e51b81526004016101c3906106b5565b600054610100900460ff16158015610482576000805461ffff1916610101179055801561022f576000805461ff001916905550565b600054610100900460ff1680610519575060005460ff16155b6105355760405162461bcd60e51b81526004016101c3906106b5565b600054610100900460ff16158015610557576000805461ffff19166101011790555b603380546001600160a01b0319163390811790915560405181906000907f8be0079c531659141344cd1fd0a4f28419497f9722a3daafe3b4186f6b6457e0908290a350801561022f576000805461ff001916905550565b80356001600160a01b03811681146105c557600080fd5b919050565b6000602082840312156105db578081fd5b6105e4826105ae565b9392505050565b6000806000604084860312156105ff578182fd5b610608846105ae565b9250602084013567ffffffffffffffff80821115610624578384fd5b818601915086601f830112610637578384fd5b813581811115610645578485fd5b876020828501011115610656578485fd5b6020830194508093505050509250925092565b60006020828403121561067a578081fd5b5035919050565b600080600060608486031215610695578283fd5b833592506106a5602085016105ae565b9150604084013590509250925092565b6020808252602e908201527f496e697469616c697a61626c653a20636f6e747261637420697320616c72656160408201526d191e481a5b9a5d1a585b1a5e995960921b60608201526080019056fea2646970667358221220501b315cea5b443c65ba7655f22097b3d35e2907735c971790d0f65d6372409564736f6c63430008030033",
  "devdoc": {
    "kind": "dev",
    "methods": {
      "owner()": {
        "details": "Returns the address of the current owner."
      },
      "renounceOwnership()": {
        "details": "Leaves the contract without owner. It will not be possible to call `onlyOwner` functions anymore. Can only be called by the current owner. NOTE: Renouncing ownership will leave the contract without an owner, thereby removing any functionality that is only available to the owner."
      },
      "transferOwnership(address)": {
        "details": "Transfers ownership of the contract to a new account (`newOwner`). Can only be called by the current owner."
      }
    },
    "version": 1
  },
  "userdoc": {
    "kind": "user",
    "methods": {},
    "version": 1
  },
  "storageLayout": {
    "storage": [
      {
        "astId": 779,
        "contract": "contracts/escrow/interfaces/LoansEscrow_V1.sol:LoansEscrow_V1",
        "label": "_initialized",
        "offset": 0,
        "slot": "0",
        "type": "t_bool"
      },
      {
        "astId": 782,
        "contract": "contracts/escrow/interfaces/LoansEscrow_V1.sol:LoansEscrow_V1",
        "label": "_initializing",
        "offset": 1,
        "slot": "0",
        "type": "t_bool"
      },
      {
        "astId": 2980,
        "contract": "contracts/escrow/interfaces/LoansEscrow_V1.sol:LoansEscrow_V1",
        "label": "__gap",
        "offset": 0,
        "slot": "1",
        "type": "t_array(t_uint256)50_storage"
      },
      {
        "astId": 652,
        "contract": "contracts/escrow/interfaces/LoansEscrow_V1.sol:LoansEscrow_V1",
        "label": "_owner",
        "offset": 0,
        "slot": "51",
        "type": "t_address"
      },
      {
        "astId": 771,
        "contract": "contracts/escrow/interfaces/LoansEscrow_V1.sol:LoansEscrow_V1",
        "label": "__gap",
        "offset": 0,
        "slot": "52",
        "type": "t_array(t_uint256)49_storage"
      },
      {
        "astId": 10934,
        "contract": "contracts/escrow/interfaces/LoansEscrow_V1.sol:LoansEscrow_V1",
        "label": "operator",
        "offset": 0,
        "slot": "101",
        "type": "t_address"
      }
    ],
    "types": {
      "t_address": {
        "encoding": "inplace",
        "label": "address",
        "numberOfBytes": "20"
      },
      "t_array(t_uint256)49_storage": {
        "base": "t_uint256",
        "encoding": "inplace",
        "label": "uint256[49]",
        "numberOfBytes": "1568"
      },
      "t_array(t_uint256)50_storage": {
        "base": "t_uint256",
        "encoding": "inplace",
        "label": "uint256[50]",
        "numberOfBytes": "1600"
      },
      "t_bool": {
        "encoding": "inplace",
        "label": "bool",
        "numberOfBytes": "1"
      },
      "t_uint256": {
        "encoding": "inplace",
        "label": "uint256",
        "numberOfBytes": "32"
      }
    }
  }
}