{
  "address": "0x3846b73712Dcfb248c3Ea544195f76e3238515F3",
  "abi": [
    {
      "anonymous": false,
      "inputs": [
        {
          "indexed": true,
          "internalType": "bytes32",
          "name": "logicName",
          "type": "bytes32"
        },
        {
          "indexed": true,
          "internalType": "address",
          "name": "logic",
          "type": "address"
        },
        {
          "indexed": false,
          "internalType": "uint256",
          "name": "version",
          "type": "uint256"
        }
      ],
      "name": "LogicVersionCreated",
      "type": "event"
    },
    {
      "anonymous": false,
      "inputs": [
        {
          "indexed": true,
          "internalType": "bytes32",
          "name": "logicName",
          "type": "bytes32"
        },
        {
          "indexed": false,
          "internalType": "address",
          "name": "oldLogic",
          "type": "address"
        },
        {
          "indexed": false,
          "internalType": "address",
          "name": "newLogic",
          "type": "address"
        },
        {
          "indexed": false,
          "internalType": "uint256",
          "name": "oldVersion",
          "type": "uint256"
        },
        {
          "indexed": false,
          "internalType": "uint256",
          "name": "newVersion",
          "type": "uint256"
        }
      ],
      "name": "LogicVersionRollbacked",
      "type": "event"
    },
    {
      "anonymous": false,
      "inputs": [
        {
          "indexed": true,
          "internalType": "bytes32",
          "name": "logicName",
          "type": "bytes32"
        },
        {
          "indexed": false,
          "internalType": "address",
          "name": "oldLogic",
          "type": "address"
        },
        {
          "indexed": false,
          "internalType": "address",
          "name": "newLogic",
          "type": "address"
        },
        {
          "indexed": false,
          "internalType": "uint256",
          "name": "oldVersion",
          "type": "uint256"
        },
        {
          "indexed": false,
          "internalType": "uint256",
          "name": "newVersion",
          "type": "uint256"
        }
      ],
      "name": "LogicVersionUpgraded",
      "type": "event"
    },
    {
      "constant": false,
      "inputs": [
        {
          "components": [
            {
              "internalType": "address",
              "name": "logic",
              "type": "address"
            },
            {
              "internalType": "bytes32",
              "name": "logicName",
              "type": "bytes32"
            }
          ],
          "internalType": "struct TellerCommon.CreateLogicVersionRequest[]",
          "name": "newLogicVersions",
          "type": "tuple[]"
        }
      ],
      "name": "createLogicVersions",
      "outputs": [],
      "payable": false,
      "stateMutability": "nonpayable",
      "type": "function"
    },
    {
      "constant": true,
      "inputs": [
        {
          "internalType": "bytes32",
          "name": "logicName",
          "type": "bytes32"
        }
      ],
      "name": "getLogicVersion",
      "outputs": [
        {
          "internalType": "uint256",
          "name": "currentVersion",
          "type": "uint256"
        },
        {
          "internalType": "uint256",
          "name": "latestVersion",
          "type": "uint256"
        },
        {
          "internalType": "address",
          "name": "logic",
          "type": "address"
        }
      ],
      "payable": false,
      "stateMutability": "view",
      "type": "function"
    },
    {
      "constant": true,
      "inputs": [
        {
          "internalType": "bytes32",
          "name": "logicName",
          "type": "bytes32"
        }
      ],
      "name": "hasLogicVersion",
      "outputs": [
        {
          "internalType": "bool",
          "name": "",
          "type": "bool"
        }
      ],
      "payable": false,
      "stateMutability": "view",
      "type": "function"
    },
    {
      "constant": false,
      "inputs": [
        {
          "internalType": "address",
          "name": "aOwner",
          "type": "address"
        },
        {
          "components": [
            {
              "internalType": "address",
              "name": "logic",
              "type": "address"
            },
            {
              "internalType": "bytes32",
              "name": "logicName",
              "type": "bytes32"
            }
          ],
          "internalType": "struct TellerCommon.CreateLogicVersionRequest[]",
          "name": "initialLogicVersions",
          "type": "tuple[]"
        }
      ],
      "name": "initialize",
      "outputs": [],
      "payable": false,
      "stateMutability": "nonpayable",
      "type": "function"
    },
    {
      "constant": true,
      "inputs": [],
      "name": "owner",
      "outputs": [
        {
          "internalType": "address",
          "name": "",
          "type": "address"
        }
      ],
      "payable": false,
      "stateMutability": "view",
      "type": "function"
    },
    {
      "constant": false,
      "inputs": [
        {
          "internalType": "bytes32",
          "name": "logicName",
          "type": "bytes32"
        },
        {
          "internalType": "uint256",
          "name": "previousVersion",
          "type": "uint256"
        }
      ],
      "name": "rollbackLogicVersion",
      "outputs": [],
      "payable": false,
      "stateMutability": "nonpayable",
      "type": "function"
    },
    {
      "constant": false,
      "inputs": [
        {
          "internalType": "address",
          "name": "newOwner",
          "type": "address"
        }
      ],
      "name": "transferOwnership",
      "outputs": [],
      "payable": false,
      "stateMutability": "nonpayable",
      "type": "function"
    },
    {
      "constant": false,
      "inputs": [
        {
          "internalType": "bytes32",
          "name": "logicName",
          "type": "bytes32"
        },
        {
          "internalType": "address",
          "name": "newLogic",
          "type": "address"
        },
        {
          "internalType": "address",
          "name": "proxy",
          "type": "address"
        }
      ],
      "name": "upgradeLogicVersion",
      "outputs": [],
      "payable": false,
      "stateMutability": "nonpayable",
      "type": "function"
    },
    {
      "constant": false,
      "inputs": [
        {
          "components": [
            {
              "internalType": "address",
              "name": "logic",
              "type": "address"
            },
            {
              "internalType": "bytes32",
              "name": "logicName",
              "type": "bytes32"
            },
            {
              "internalType": "address",
              "name": "proxy",
              "type": "address"
            }
          ],
          "internalType": "struct TellerCommon.UpgradeLogicVersionRequest[]",
          "name": "newLogicVersions",
          "type": "tuple[]"
        }
      ],
      "name": "upgradeLogicVersions",
      "outputs": [],
      "payable": false,
      "stateMutability": "nonpayable",
      "type": "function"
    }
  ],
  "solcInputHash": "3790d34ca1d72794863015ffe08f35de",
  "bytecode": "0x608060405234801561001057600080fd5b5061116c806100206000396000f3fe608060405234801561001057600080fd5b50600436106100935760003560e01c80638da5cb5b116100665780638da5cb5b146100fe578063b28f5abb14610113578063cb8e2d9e14610133578063e7dadafd14610146578063f2fde38b1461015957610093565b80630e6c4d38146100985780635fd8a08a146100ad5780636560e476146100c05780638b51f58b146100d3575b600080fd5b6100ab6100a6366004610c43565b61016c565b005b6100ab6100bb366004610c03565b6101fe565b6100ab6100ce366004610bb1565b610283565b6100e66100e1366004610cd0565b61031b565b6040516100f5939291906110e3565b60405180910390f35b610106610351565b6040516100f59190610e27565b610126610121366004610cd0565b610360565b6040516100f59190610e64565b6100ab610141366004610d00565b610378565b6100ab610154366004610d3d565b6103ad565b6100ab610167366004610b8f565b610444565b6000546001600160a01b0316331461019f5760405162461bcd60e51b81526004016101969061103c565b60405180910390fd5b6101fa8282808060200260200160405190810160405280939291908181526020016000905b828210156101f0576101e160608302860136819003810190610da4565b815260200190600101906101c4565b5050505050610490565b5050565b6000546001600160a01b031633146102285760405162461bcd60e51b81526004016101969061103c565b6101fa8282808060200260200160405190810160405280939291908181526020016000905b828210156102795761026a60408302860136819003810190610d5e565b8152602001906001019061024d565b50505050506104f4565b6000546001600160a01b0316156102ac5760405162461bcd60e51b815260040161019690610eaf565b600080546001600160a01b0319166001600160a01b038516178155604080516020848102820181019092528381526103169290918591859182919085015b828210156102795761030760408302860136819003810190610d5e565b815260200190600101906102ea565b505050565b600090815260016020818152604080842080549381015484865260029091019092529092205490926001600160a01b0390911690565b6000546001600160a01b031681565b60009081526001602052604090206003015460ff1690565b6000546001600160a01b031633146103a25760405162461bcd60e51b81526004016101969061103c565b610316838383610540565b6000546001600160a01b031633146103d75760405162461bcd60e51b81526004016101969061103c565b6000828152600160205260408120819081906103f9908563ffffffff6107f516565b925092509250847ffad7bb59662a3fdf43c11a59641c6acad1c447212d1c451412bc5d18faa1aaa4838386886040516104359493929190610e3b565b60405180910390a25050505050565b6000546001600160a01b0316331461046e5760405162461bcd60e51b81526004016101969061103c565b600080546001600160a01b0319166001600160a01b0392909216919091179055565b60005b81518110156101fa576104ec8282815181106104ab57fe5b6020026020010151602001518383815181106104c357fe5b6020026020010151600001518484815181106104db57fe5b602002602001015160400151610540565b600101610493565b60005b81518110156101fa5761053882828151811061050f57fe5b60200260200101516020015183838151811061052757fe5b60200260200101516000015161087d565b6001016104f7565b6001600160a01b038116156107875760408051600481526024810182526020810180516001600160e01b03166338553a6960e21b17905290516000916060916001600160a01b0385169161059391610dee565b600060405180830381855afa9150503d80600081146105ce576040519150601f19603f3d011682016040523d82523d6000602084013e6105d3565b606091505b50915091508180156105f45750808060200190516105f49190810190610cb0565b6106105760405162461bcd60e51b815260040161019690611089565b60408051600481526024810182526020810180516001600160e01b0316632c26486d60e01b17905290516001600160a01b0385169161064e91610dee565b600060405180830381855afa9150503d8060008114610689576040519150601f19603f3d011682016040523d82523d6000602084013e61068e565b606091505b5090925090508180156106b3575084818060200190516106b19190810190610ce8565b145b6106cf5760405162461bcd60e51b81526004016101969061100f565b826001600160a01b0316846040516024016106ea9190610e27565b60408051601f198184030181529181526020820180516001600160e01b03166355dbd8eb60e01b1790525161071f9190610dee565b6000604051808303816000865af19150503d806000811461075c576040519150601f19603f3d011682016040523d82523d6000602084013e610761565b606091505b505080925050816107845760405162461bcd60e51b815260040161019690610e78565b50505b6000838152600160205260408120819081906107a9908663ffffffff6108ff16565b925092509250857f0599dc284af9eacdf296a3641636f76519a08e90a2b18f2bd2ccab49ae6cc486848785856040516107e59493929190610e3b565b60405180910390a2505050505050565b6000806000610803856109f4565b84548414156108245760405162461bcd60e51b815260040161019690610fd8565b83856001015410156108485760405162461bcd60e51b815260040161019690610fa1565b5050825460008181526002850160205260408082205485835291205493909455936001600160a01b0393841693909216919050565b8161089a5760405162461bcd60e51b815260040161019690610f6a565b60008281526001602052604090206108b8908263ffffffff610a1b16565b806001600160a01b0316827f8d6a306bb015034aa12c6b749d7d2e703b66086a3a89f3989bdaacafd0934fd360006040516108f39190610e6f565b60405180910390a35050565b600080600061090d856109f4565b845460009081526002860160205260409020546001600160a01b038581169116141561094b5760405162461bcd60e51b8152600401610196906110b7565b61095d846001600160a01b0316610a9f565b6109795760405162461bcd60e51b815260040161019690610f3a565b845460008181526002870160205260409020546001808801546001600160a01b0390921695509193506109b19163ffffffff610adb16565b8086556001860181905560008181526002909601602052604090952080546001600160a01b0319166001600160a01b039590951694909417909355909390929150565b600381015460ff16610a185760405162461bcd60e51b81526004016101969061105f565b50565b610a2482610b09565b610a36816001600160a01b0316610a9f565b610a525760405162461bcd60e51b815260040161019690610f3a565b6000808355600180840182905581805260028401602052604090912080546001600160a01b0319166001600160a01b0393909316929092179091556003909101805460ff19169091179055565b6000813f7fc5d2460186f7233c927e7db2dcc703c0e500b653ca82273b7bfad8045d85a470818114801590610ad357508115155b949350505050565b600082820183811015610b005760405162461bcd60e51b815260040161019690610ed5565b90505b92915050565b600381015460ff1615610a185760405162461bcd60e51b815260040161019690610f0c565b80356001600160a01b0381168114610b0357600080fd5b60008083601f840112610b56578182fd5b50813567ffffffffffffffff811115610b6d578182fd5b602083019150836020604083028501011115610b8857600080fd5b9250929050565b600060208284031215610ba0578081fd5b610baa8383610b2e565b9392505050565b600080600060408486031215610bc5578182fd5b610bcf8585610b2e565b9250602084013567ffffffffffffffff811115610bea578283fd5b610bf686828701610b45565b9497909650939450505050565b60008060208385031215610c15578182fd5b823567ffffffffffffffff811115610c2b578283fd5b610c3785828601610b45565b90969095509350505050565b60008060208385031215610c55578182fd5b823567ffffffffffffffff80821115610c6c578384fd5b81850186601f820112610c7d578485fd5b8035925081831115610c8d578485fd5b866020606085028301011115610ca1578485fd5b60200196919550909350505050565b600060208284031215610cc1578081fd5b81518015158114610b00578182fd5b600060208284031215610ce1578081fd5b5035919050565b600060208284031215610cf9578081fd5b5051919050565b600080600060608486031215610d14578283fd5b83359250610d258560208601610b2e565b9150610d348560408601610b2e565b90509250925092565b60008060408385031215610d4f578182fd5b50508035926020909101359150565b600060408284031215610d6f578081fd5b610d796040611102565b82356001600160a01b0381168114610d8f578283fd5b81526020928301359281019290925250919050565b600060608284031215610db5578081fd5b610dbf6060611102565b610dc98484610b2e565b815260208301356020820152610de28460408501610b2e565b60408201529392505050565b60008251815b81811015610e0e5760208186018101518583015201610df4565b81811115610e1c5782828501525b509190910192915050565b6001600160a01b0391909116815260200190565b6001600160a01b0394851681529290931660208301526040820152606081019190915260800190565b901515815260200190565b90815260200190565b6020808252601a908201527f4641494c45445f544f5f4449524543544c595f55504752414445000000000000604082015260600190565b6020808252600c908201526b1053149150511657d253925560a21b604082015260600190565b6020808252601b908201527f536166654d6174683a206164646974696f6e206f766572666c6f770000000000604082015260600190565b6020808252601490820152734c4f4749435f414c52454144595f45584953545360601b604082015260600190565b6020808252601690820152751313d1d250d7d35554d517d09157d0d3d395149050d560521b604082015260600190565b6020808252601b908201527f4c4f4749435f4e414d455f4d5553545f42455f50524f56494445440000000000604082015260600190565b6020808252601a908201527f56455253494f4e5f4d5553545f42455f4c54455f4c4154455354000000000000604082015260600190565b6020808252601c908201527f43555252454e545f56455253494f4e5f4d5553545f42455f4449464600000000604082015260600190565b6020808252601390820152724d49534d415443485f4c4f4749435f4e414d4560681b604082015260600190565b6020808252600990820152682727aa2fa7aba722a960b91b604082015260600190565b60208082526010908201526f4c4f4749435f4e4f545f45584953545360801b604082015260600190565b60208082526014908201527350524f58595f5354524943545f44594e414d494360601b604082015260600190565b602080825260129082015271139155d7d313d1d250d7d49154555254915160721b604082015260600190565b92835260208301919091526001600160a01b0316604082015260600190565b60405181810167ffffffffffffffff8111828210171561112157600080fd5b60405291905056fea365627a7a7231582088130dce6134094e36f935c12e91f4ecf339571887f1ac1f55169def1656b96f6c6578706572696d656e74616cf564736f6c63430005110040",
  "devdoc": {
    "author": "develop@teller.finance",
    "methods": {
      "createLogicVersions((address,bytes32)[])": {
        "params": {
          "newLogicVersions": "lists of the new logic versions to create."
        }
      },
      "getLogicVersion(bytes32)": {
        "params": {
          "logicName": "to get."
        },
        "return": "the current logic version."
      },
      "hasLogicVersion(bytes32)": {
        "params": {
          "logicName": "logic name to test."
        },
        "return": "true if the logic version is already configured. Otherwise it returns false."
      },
      "initialize(address,(address,bytes32)[])": {
        "params": {
          "aOwner": "address of the owner of the registry.",
          "initialLogicVersions": "lists of the new logic versions to create."
        }
      },
      "rollbackLogicVersion(bytes32,uint256)": {
        "params": {
          "logicName": "logic name to rollback.",
          "previousVersion": "the previous version to be used."
        }
      },
      "transferOwnership(address)": {
        "details": "Can only be called by the current owner.",
        "params": {
          "newOwner": "The address that should be the new owner."
        }
      },
      "upgradeLogicVersion(bytes32,address,address)": {
        "params": {
          "logicName": "logic name to upgrade.",
          "newLogic": "the new logic address to set.",
          "proxy": "The (optional) DynamicUpgradeable proxy address to attempt to directly upgrade."
        }
      },
      "upgradeLogicVersions((address,bytes32,address)[])": {
        "params": {
          "newLogicVersions": "lists of the new logic versions to create."
        }
      }
    }
  },
  "userdoc": {
    "methods": {
      "createLogicVersions((address,bytes32)[])": {
        "notice": "It creates multiple logic versions."
      },
      "getLogicVersion(bytes32)": {
        "notice": "It gets the current logic version for a given logic name."
      },
      "hasLogicVersion(bytes32)": {
        "notice": "It tests whether a logic name is already configured."
      },
      "initialize(address,(address,bytes32)[])": {
        "notice": "It initializes this logic versions constants."
      },
      "rollbackLogicVersion(bytes32,uint256)": {
        "notice": "It rollbacks a logic to a previous version."
      },
      "transferOwnership(address)": {
        "notice": "Transfers ownership of the contract to a new account (`newOwner`)."
      },
      "upgradeLogicVersion(bytes32,address,address)": {
        "notice": "It upgrades a logic version given a logic name."
      },
      "upgradeLogicVersions((address,bytes32,address)[])": {
        "notice": "It upgrades multiple logic addresses."
      }
    },
    "notice": "It manages all the logic contract versions, mapping each one to a logic name (or key)."
  },
  "storageLayout": {
    "storage": [
      {
        "astId": 3206,
        "contract": "contracts/base/LogicVersionsRegistry.sol:LogicVersionsRegistry",
        "label": "owner",
        "offset": 0,
        "slot": "0",
        "type": "t_address"
      },
      {
        "astId": 3210,
        "contract": "contracts/base/LogicVersionsRegistry.sol:LogicVersionsRegistry",
        "label": "logicVersions",
        "offset": 0,
        "slot": "1",
        "type": "t_mapping(t_bytes32,t_struct(LogicVersion)15103_storage)"
      }
    ],
    "types": {
      "t_address": {
        "encoding": "inplace",
        "label": "address",
        "numberOfBytes": "20"
      },
      "t_bool": {
        "encoding": "inplace",
        "label": "bool",
        "numberOfBytes": "1"
      },
      "t_bytes32": {
        "encoding": "inplace",
        "label": "bytes32",
        "numberOfBytes": "32"
      },
      "t_mapping(t_bytes32,t_struct(LogicVersion)15103_storage)": {
        "encoding": "mapping",
        "key": "t_bytes32",
        "label": "mapping(bytes32 => struct LogicVersionLib.LogicVersion)",
        "numberOfBytes": "32",
        "value": "t_struct(LogicVersion)15103_storage"
      },
      "t_mapping(t_uint256,t_address)": {
        "encoding": "mapping",
        "key": "t_uint256",
        "label": "mapping(uint256 => address)",
        "numberOfBytes": "32",
        "value": "t_address"
      },
      "t_struct(LogicVersion)15103_storage": {
        "encoding": "inplace",
        "label": "struct LogicVersionLib.LogicVersion",
        "members": [
          {
            "astId": 15094,
            "contract": "contracts/base/LogicVersionsRegistry.sol:LogicVersionsRegistry",
            "label": "currentVersion",
            "offset": 0,
            "slot": "0",
            "type": "t_uint256"
          },
          {
            "astId": 15096,
            "contract": "contracts/base/LogicVersionsRegistry.sol:LogicVersionsRegistry",
            "label": "latestVersion",
            "offset": 0,
            "slot": "1",
            "type": "t_uint256"
          },
          {
            "astId": 15100,
            "contract": "contracts/base/LogicVersionsRegistry.sol:LogicVersionsRegistry",
            "label": "versions",
            "offset": 0,
            "slot": "2",
            "type": "t_mapping(t_uint256,t_address)"
          },
          {
            "astId": 15102,
            "contract": "contracts/base/LogicVersionsRegistry.sol:LogicVersionsRegistry",
            "label": "exists",
            "offset": 0,
            "slot": "3",
            "type": "t_bool"
          }
        ],
        "numberOfBytes": "128"
      },
      "t_uint256": {
        "encoding": "inplace",
        "label": "uint256",
        "numberOfBytes": "32"
      }
    }
  }
}