{
  "address": "0xCD3C1f91FEEB975DB07bcB4D65D23F35929694a9",
  "abi": [
    {
      "anonymous": false,
      "inputs": [
        {
          "indexed": true,
          "internalType": "uint256",
          "name": "loanID",
          "type": "uint256"
        },
        {
          "indexed": true,
          "internalType": "address",
          "name": "borrower",
          "type": "address"
        },
        {
          "indexed": false,
          "internalType": "address",
          "name": "liquidator",
          "type": "address"
        },
        {
          "indexed": false,
          "internalType": "uint256",
          "name": "collateralOut",
          "type": "uint256"
        },
        {
          "indexed": false,
          "internalType": "uint256",
          "name": "tokensIn",
          "type": "uint256"
        }
      ],
      "name": "LoanLiquidated",
      "type": "event"
    },
    {
      "anonymous": false,
      "inputs": [
        {
          "indexed": true,
          "internalType": "uint256",
          "name": "loanID",
          "type": "uint256"
        },
        {
          "indexed": true,
          "internalType": "address",
          "name": "borrower",
          "type": "address"
        },
        {
          "indexed": false,
          "internalType": "uint256",
          "name": "amountPaid",
          "type": "uint256"
        },
        {
          "indexed": false,
          "internalType": "address",
          "name": "payer",
          "type": "address"
        },
        {
          "indexed": false,
          "internalType": "uint256",
          "name": "totalOwed",
          "type": "uint256"
        }
      ],
      "name": "LoanRepaid",
      "type": "event"
    },
    {
      "inputs": [
        {
          "internalType": "uint256",
          "name": "loanID",
          "type": "uint256"
        },
        {
          "internalType": "uint256",
          "name": "amount",
          "type": "uint256"
        }
      ],
      "name": "escrowRepay",
      "outputs": [],
      "stateMutability": "nonpayable",
      "type": "function"
    },
    {
      "inputs": [
        {
          "internalType": "uint256",
          "name": "loanID",
          "type": "uint256"
        }
      ],
      "name": "getLiquidationReward",
      "outputs": [
        {
          "internalType": "int256",
          "name": "",
          "type": "int256"
        }
      ],
      "stateMutability": "view",
      "type": "function"
    },
    {
      "inputs": [
        {
          "internalType": "uint256",
          "name": "loanID",
          "type": "uint256"
        }
      ],
      "name": "liquidateLoan",
      "outputs": [],
      "stateMutability": "nonpayable",
      "type": "function"
    },
    {
      "inputs": [
        {
          "internalType": "uint256",
          "name": "amount",
          "type": "uint256"
        },
        {
          "internalType": "uint256",
          "name": "loanID",
          "type": "uint256"
        }
      ],
      "name": "repay",
      "outputs": [],
      "stateMutability": "nonpayable",
      "type": "function"
    }
  ],
  "transactionHash": "0x8df5f439a7a996dce2e25cc857f78f2c793076faec4cac3924ce59e26a47d01e",
  "args": [],
  "solcInputHash": "3c3e5b2c786bda25b38603e2b551c6d3",
  "bytecode": "0x608060405234801561001057600080fd5b50611cca806100206000396000f3fe608060405234801561001057600080fd5b506004361061004c5760003560e01c80635ebc633414610051578063ccdd9f5d14610076578063d8aed1451461008b578063e89ad6561461009e575b600080fd5b61006461005f366004611a5a565b6100b1565b60405190815260200160405180910390f35b610089610084366004611a5a565b61012c565b005b610089610099366004611a8a565b6103d7565b6100896100ac366004611a8a565b6105c4565b6000806100bd836106f5565b905060006100ca846107d2565b6100d38561091f565b6100dd9190611ba9565b905060006100fa836100f56100f061097d565b6109ae565b6109bc565b90506101068184611ba9565b821015610117575091506101279050565b6101218382611b68565b93505050505b919050565b60008080527f7b305b6be5f275f648d05716597c483d754c2a242bd605feba3c64fb853605366020527f63eec20f0ae1af135811da961c707cd581594291a92cf7bcd78c1cf1aca4e4b054600080516020611c758339815191529060ff16156101b05760405162461bcd60e51b81526004016101a790611b31565b60405180910390fd5b60008281526002820160205260408120805460ff1916600117905580806101d6816109dc565b15151480156101f057508015156101ec836109dc565b1515145b6101f982610a10565b906102175760405162461bcd60e51b81526004016101a79190611ac7565b507f50e75b23f8ec51bbcb044fe377457e835f3b5ccc7ebf69e80906452015dff607336102448282610a75565b6102605760405162461bcd60e51b81526004016101a790611afa565b600061026b88610aa9565b905061027681610ac6565b6102cc5760405162461bcd60e51b815260206004820152602160248201527f54656c6c65723a20646f6573206e6f74206e656564206c69717569646174696f6044820152603760f91b60648201526084016101a7565b600081600b015482600a01546102e29190611ba9565b90506102ee8982610bb1565b1561033b5760405162461bcd60e51b815260206004820152601f60248201527f54656c6c65723a206c6971756964617465207061727469616c2072657061790060448201526064016101a7565b60098201805460ff1916600417905560006103558a6100b1565b90506103628a8233610dfe565b600383015460408051338152602081018490529081018490526001600160a01b03909116908b907f9950a0562c02382e2e840daa73082d5be7660ce37601f28fa4c84089c11e8a069060600160405180910390a350505060009586525050505060020160205260409020805460ff1916905550565b60008080527f7b305b6be5f275f648d05716597c483d754c2a242bd605feba3c64fb853605366020527f63eec20f0ae1af135811da961c707cd581594291a92cf7bcd78c1cf1aca4e4b054600080516020611c758339815191529060ff16156104525760405162461bcd60e51b81526004016101a790611b31565b60008281526002820160205260408120805460ff191660011790558080610478816109dc565b1515148015610492575080151561048e836109dc565b1515145b61049b82610a10565b906104b95760405162461bcd60e51b81526004016101a79190611ac7565b507f50e75b23f8ec51bbcb044fe377457e835f3b5ccc7ebf69e80906452015dff607336104e68282610a75565b6105025760405162461bcd60e51b81526004016101a790611afa565b600061050e888a610bb1565b9050600061051b89610aa9565b6003810154604080518d81523360208201529081018590529192506001600160a01b0316908a907f20a1f2ec363af45dc5ee7d9d622f2dd68b52501c382126c7f04b53663c4c69bf9060600160405180910390a3816105a35760098101805460ff19166003908117909155600f820154908201546105a3918b916001600160a01b0316610ed3565b505050600094855250505060020160205260409020805460ff191690555050565b600080806105d1816109dc565b15151480156105eb57508015156105e7836109dc565b1515145b6105f482610a10565b906106125760405162461bcd60e51b81526004016101a79190611ac7565b507f50e75b23f8ec51bbcb044fe377457e835f3b5ccc7ebf69e80906452015dff6073361063f8282610a75565b61065b5760405162461bcd60e51b81526004016101a790611afa565b60008080527f7b305b6be5f275f648d05716597c483d754c2a242bd605feba3c64fb853605366020527f63eec20f0ae1af135811da961c707cd581594291a92cf7bcd78c1cf1aca4e4b054600080516020611c758339815191529060ff16156106d65760405162461bcd60e51b81526004016101a790611b31565b600091825260020160205260409020805460ff19169055505050505050565b6000600161070283610aa9565b6009015460ff16600481111561072857634e487b7160e01b600052602160045260246000fd5b14156107685760006107468361073d85610aa9565b60070154611019565b90508061075284610aa9565b600701546107609190611ba9565b915050610127565b600261077383610aa9565b6009015460ff16600481111561079957634e487b7160e01b600052602160045260246000fd5b14156107ca576107a882610aa9565b600b01546107b583610aa9565b600a01546107c39190611ba9565b9050610127565b506000919050565b60008181527f0553069f1f0518e59f8623c18c83a1f987f2a0544d563e98dd803a7078142a8860205260408120816108098261102e565b11156109195760408051630ae8aa8960e31b8152600360048201529051908190036024019020546001600160a01b031660005b6108458361102e565b8110156108d357816001600160a01b03166108608483611038565b6001600160a01b03161415610893576108828561087d8584611038565b611044565b61088c9085611ba9565b93506108c1565b6108b46108a08483611038565b836108af8861087d8887611038565b6110e9565b6108be9085611ba9565b93505b806108cb81611c43565b91505061083c565b5060008481527f0553069f1f0518e59f8623c18c83a1f987f2a0544d563e98dd803a7078142a8660205260409020600101546001600160a01b03166101218282866110e9565b50919050565b600061092a8261113a565b61093657506000610127565b61097761094283610aa9565b600201546001600160a01b031661095884610aa9565b600101546001600160a01b031661096e85610aa9565b600f01546110e9565b92915050565b60006109a87f380ae77e5e693f4421bdfb22db481fe0679e237d8c156093b2f14282a7ef5ab16111a2565b54919050565b6000610977826127106111aa565b60006127106109cb8385611be1565b6109d59190611bc1565b9392505050565b60009081527f8d38b9c4a6bd39cbbed00b63fc26822c21f23355a1fa88e61a13a11b9bb3334a602052604090205460ff1690565b606081610a45576040518060400160405280601081526020016f14185d5cd8589b194e881c185d5cd95960821b815250610977565b505060408051808201909152601481527314185d5cd8589b194e881b9bdd081c185d5cd95960621b602082015290565b6000610a7f6111cc565b6000938452602090815260408085206001600160a01b039490941685529290525090205460ff1690565b6000610ab36111e3565b6000928352600101602052506040902090565b60006002600983015460ff166004811115610af157634e487b7160e01b600052602160045260246000fd5b14610afe57506000610127565b600682015415610b935781546040516372e1132760e01b815260009130916372e1132791610b329160040190815260200190565b60606040518083038186803b158015610b4a57600080fd5b505afa158015610b5e573d6000803e3d6000fd5b505050506040513d601f19601f82011682018060405250810190610b829190611a2d565b50600f850154129250610127915050565b6008820154600e830154610ba79190611ba9565b4210159050610127565b6000808211610bf75760405162461bcd60e51b815260206004820152601260248201527154656c6c65723a207a65726f20726570617960701b60448201526064016101a7565b6000610c0284610aa9565b905080600b015481600a0154610c189190611ba9565b915082821015610c2d57909150600090610c3a565b610c378383611c00565b91505b60018101546001600160a01b0390811660008181527f0553069f1f0518e59f8623c18c83a1f987f2a0544d563e98dd803a7078142a8e602052604090205490911690610c889033838761120b565b806001600160a01b031663870ba7466040518163ffffffff1660e01b8152600401600060405180830381600087803b158015610cc357600080fd5b505af1158015610cd7573d6000803e3d6000fd5b5050505060008083600b0154861015610d0c578590508584600b016000828254610d019190611c00565b90915550610d539050565b600b84015415610d305750600b830154610d268187611c00565b6000600b86015595505b8515610d53578591508584600a016000828254610d4d9190611c00565b90915550505b60018401546001600160a01b031660009081527f0553069f1f0518e59f8623c18c83a1f987f2a0544d563e98dd803a7078142a8c602052604081208054849290610d9e908490611ba9565b909155505060018401546001600160a01b031660009081527f0553069f1f0518e59f8623c18c83a1f987f2a0544d563e98dd803a7078142a8d602052604081208054839290610dee908490611ba9565b9091555094979650505050505050565b60008213610e0b57610ece565b81610e1584611276565b600f0154811015610e3057610e2b848284610ed3565b610ecc565b610e3984611276565b600f01548110610ecc576000610e4e85611276565b600f0154610e5c9083611c00565b9050610e7585610e6b87611276565b600f015485610ed3565b600081118015610eba575060008581527f0553069f1f0518e59f8623c18c83a1f987f2a0544d563e98dd803a7078142a8760205260409020546001600160a01b031615155b15610eca57610eca85848361129e565b505b505b505050565b7f0553069f1f0518e59f8623c18c83a1f987f2a0544d563e98dd803a7078142a896000610eff85611276565b600201546001600160a01b03908116825260208201929092526040016000205416636b6d8fc28385610f3081611276565b6003015460405160e085901b6001600160e01b0319168152600481019390935260248301919091526001600160a01b03166044820152606401600060405180830381600087803b158015610f8357600080fd5b505af1158015610f97573d6000803e3d6000fd5b5050505081610fa584611276565b600f016000828254610fb79190611c00565b90915550506001600160a01b038116610fcf84611276565b600301546040518481526001600160a01b039091169085907f354da53cd88eb0936caa11700c1928b13f3f2803cca6f4f464ceff3b4bd7d38e9060200160405180910390a4505050565b60006109d561102784611451565b83906109bc565b6000610977825490565b60006109d58383611486565b60008061104f6111e3565b60008581526002919091016020526040908190205490516370a0823160e01b81526001600160a01b03918216600482018190529250908416906370a082319060240160206040518083038186803b1580156110a957600080fd5b505afa1580156110bd573d6000803e3d6000fd5b505050506040513d601f19601f820116820180604052508101906110e19190611a72565b949350505050565b60405163c05b1ec360e01b81526001600160a01b0380851660048301528316602482015260448101829052600090309063c05b1ec39060640160206040518083038186803b1580156110a957600080fd5b60008061114683610aa9565b6009015460ff169050600281600481111561117157634e487b7160e01b600052602160045260246000fd5b14806109d55750600181600481111561119a57634e487b7160e01b600052602160045260246000fd5b149392505050565b600080610ab3565b60008282116111c2576111bd8284611c00565b6109d5565b6109d58383611c00565b6000600080516020611c758339815191525b905090565b60007f0553069f1f0518e59f8623c18c83a1f987f2a0544d563e98dd803a7078142a856111de565b6040516001600160a01b0380851660248301528316604482015260648101829052610ecc9085906323b872dd60e01b906084015b60408051601f198184030181529190526020810180516001600160e01b03166001600160e01b03199093169290921790915261151a565b60007f0553069f1f0518e59f8623c18c83a1f987f2a0544d563e98dd803a7078142a85610ab3565b60046112a984611276565b6009015460ff1660048111156112cf57634e487b7160e01b600052602160045260246000fd5b1461131c5760405162461bcd60e51b815260206004820152601b60248201527f54656c6c65723a206c6f616e206e6f74206c697175696461746564000000000060448201526064016101a7565b60008381527f0553069f1f0518e59f8623c18c83a1f987f2a0544d563e98dd803a7078142a88602052604081209082905b6113568361102e565b811015611449578161136757611449565b60006113778761087d8685611038565b9050600061138488611276565b600201546001600160a01b031690508115611434576000816001600160a01b03166113af8786611038565b6001600160a01b0316146113d6576113d16113ca8786611038565b83856110e9565b6113d8565b825b9050848111611406576113f56113ee8786611038565b89836115ec565b6113ff8186611c00565b945061141f565b61141a6114138786611038565b89876115ec565b600094505b6114328961142d8887611038565b61161c565b505b5050808061144190611c43565b91505061134d565b505050505050565b60006301e1338061146183610aa9565b6008015461146e84610aa9565b6005015461147c9190611be1565b6109779190611bc1565b815460009082106114e45760405162461bcd60e51b815260206004820152602260248201527f456e756d657261626c655365743a20696e646578206f7574206f6620626f756e604482015261647360f01b60648201526084016101a7565b82600001828154811061150757634e487b7160e01b600052603260045260246000fd5b9060005260206000200154905092915050565b600061156f826040518060400160405280602081526020017f5361666545524332303a206c6f772d6c6576656c2063616c6c206661696c6564815250856001600160a01b03166116e59092919063ffffffff16565b805190915015610ece578080602001905181019061158d9190611a0d565b610ece5760405162461bcd60e51b815260206004820152602a60248201527f5361666545524332303a204552433230206f7065726174696f6e20646964206e6044820152691bdd081cdd58d8d9595960b21b60648201526084016101a7565b6040516001600160a01b038316602482015260448101829052610ece90849063a9059cbb60e01b9060640161123f565b60006116266111e3565b600084815260029190910160205260409020546001600160a01b031614156116845760405162461bcd60e51b815260206004820152601160248201527054656c6c65723a206e6f20657363726f7760781b60448201526064016101a7565b600061168e6111e3565b60008481526003919091016020526040812091506116ac82846116f4565b905060006116ba8585611044565b11156116d55780610e2b576116cf8284611716565b50610ecc565b8015610ecc57610eca828461172b565b60606110e18484600085611740565b6001600160a01b038116600090815260018301602052604081205415156109d5565b60006109d5836001600160a01b038416611868565b60006109d5836001600160a01b0384166118b7565b6060824710156117a15760405162461bcd60e51b815260206004820152602660248201527f416464726573733a20696e73756666696369656e742062616c616e636520666f6044820152651c8818d85b1b60d21b60648201526084016101a7565b843b6117ef5760405162461bcd60e51b815260206004820152601d60248201527f416464726573733a2063616c6c20746f206e6f6e2d636f6e747261637400000060448201526064016101a7565b600080866001600160a01b0316858760405161180b9190611aab565b60006040518083038185875af1925050503d8060008114611848576040519150601f19603f3d011682016040523d82523d6000602084013e61184d565b606091505b509150915061185d8282866119d4565b979650505050505050565b60008181526001830160205260408120546118af57508154600181810184556000848152602080822090930184905584548482528286019093526040902091909155610977565b506000610977565b600081815260018301602052604081205480156119ca5760006118db600183611c00565b85549091506000906118ef90600190611c00565b9050600086600001828154811061191657634e487b7160e01b600052603260045260246000fd5b906000526020600020015490508087600001848154811061194757634e487b7160e01b600052603260045260246000fd5b60009182526020909120015561195e836001611ba9565b6000828152600189016020526040902055865487908061198e57634e487b7160e01b600052603160045260246000fd5b60019003818190600052602060002001600090559055866001016000878152602001908152602001600020600090556001945050505050610977565b6000915050610977565b606083156119e35750816109d5565b8251156119f35782518084602001fd5b8160405162461bcd60e51b81526004016101a79190611ac7565b600060208284031215611a1e578081fd5b815180151581146109d5578182fd5b600080600060608486031215611a41578182fd5b8351925060208401519150604084015190509250925092565b600060208284031215611a6b578081fd5b5035919050565b600060208284031215611a83578081fd5b5051919050565b60008060408385031215611a9c578182fd5b50508035926020909101359150565b60008251611abd818460208701611c17565b9190910192915050565b6000602082528251806020840152611ae6816040850160208701611c17565b601f01601f19169190910160400192915050565b6020808252601d908201527f416363657373436f6e74726f6c3a206e6f7420617574686f72697a6564000000604082015260600190565b60208082526018908201527f416363657373436f6e74726f6c3a207265656e74657265640000000000000000604082015260600190565b600080821280156001600160ff1b0384900385131615611b8a57611b8a611c5e565b600160ff1b8390038412811615611ba357611ba3611c5e565b50500190565b60008219821115611bbc57611bbc611c5e565b500190565b600082611bdc57634e487b7160e01b81526012600452602481fd5b500490565b6000816000190483118215151615611bfb57611bfb611c5e565b500290565b600082821015611c1257611c12611c5e565b500390565b60005b83811015611c32578181015183820152602001611c1a565b83811115610ecc5750506000910152565b6000600019821415611c5757611c57611c5e565b5060010190565b634e487b7160e01b600052601160045260246000fdfe7b305b6be5f275f648d05716597c483d754c2a242bd605feba3c64fb85360534a2646970667358221220cfc554c57d5bd583fa55b6f052f4151aaeb0d036163e12beb3bfa5a65e02768264736f6c63430008030033",
  "devdoc": {
    "events": {
      "LoanLiquidated(uint256,address,address,uint256,uint256)": {
        "params": {
          "borrower": "Account address of the borrower",
          "collateralOut": "Collateral that is sent to the liquidator",
          "liquidator": "Account address of the liquidator",
          "loanID": "ID of loan from which collateral was withdrawn",
          "tokensIn": "Percentage of the collateral price paid by the liquidator to the lending pool"
        }
      },
      "LoanRepaid(uint256,address,uint256,address,uint256)": {
        "params": {
          "amountPaid": "Amount of the loan paid back",
          "borrower": "Account address of the borrower",
          "loanID": "ID of loan from which collateral was withdrawn",
          "payer": "Account address of the payer",
          "totalOwed": "Total amount of the loan to be repaid"
        }
      }
    },
    "kind": "dev",
    "methods": {
      "escrowRepay(uint256,uint256)": {
        "details": "If the Escrow's balance of the borrowed token is less than the amount to repay, transfer tokens from the sender's wallet.Only the owner of the Escrow can call this. If someone else wants to make a payment, they should call the loan manager directly.",
        "params": {
          "amount": "The amount being repaid.",
          "loanID": "The id of the loan being used."
        }
      },
      "getLiquidationReward(uint256)": {
        "params": {
          "loanID": "The loan ID to get the info."
        },
        "returns": {
          "_0": "The value the liquidator will receive denoted in collateral tokens."
        }
      },
      "liquidateLoan(uint256)": {
        "params": {
          "loanID": "The ID of the loan to be liquidated"
        }
      },
      "repay(uint256,uint256)": {
        "params": {
          "amount": "The amount of tokens to pay back to the loan",
          "loanID": "The ID of the loan the payment is for"
        }
      }
    },
    "version": 1
  },
  "userdoc": {
    "events": {
      "LoanLiquidated(uint256,address,address,uint256,uint256)": {
        "notice": "This event is emitted when a loan has been successfully liquidated"
      },
      "LoanRepaid(uint256,address,uint256,address,uint256)": {
        "notice": "This event is emitted when a loan has been successfully repaid"
      }
    },
    "kind": "user",
    "methods": {
      "escrowRepay(uint256,uint256)": {
        "notice": "Repay this Escrow's loan."
      },
      "getLiquidationReward(uint256)": {
        "notice": "It gets the current liquidation reward for a given loan."
      },
      "liquidateLoan(uint256)": {
        "notice": "Liquidate a loan if it is expired or under collateralized"
      },
      "repay(uint256,uint256)": {
        "notice": "Make a payment to a loan"
      }
    },
    "version": 1
  },
  "storageLayout": {
    "storage": [],
    "types": null
  }
}