{
  "address": "0x250A64D11025C38360AfC18A7F7eCC9259016CF6",
  "abi": [
    {
      "anonymous": false,
      "inputs": [
        {
          "indexed": true,
          "internalType": "uint256",
          "name": "loanID",
          "type": "uint256"
        },
        {
          "indexed": true,
          "internalType": "address",
          "name": "borrower",
          "type": "address"
        },
        {
          "indexed": false,
          "internalType": "address",
          "name": "liquidator",
          "type": "address"
        },
        {
          "indexed": false,
          "internalType": "uint256",
          "name": "reward",
          "type": "uint256"
        },
        {
          "indexed": false,
          "internalType": "uint256",
          "name": "tokensIn",
          "type": "uint256"
        }
      ],
      "name": "LoanLiquidated",
      "type": "event"
    },
    {
      "anonymous": false,
      "inputs": [
        {
          "indexed": true,
          "internalType": "uint256",
          "name": "loanID",
          "type": "uint256"
        },
        {
          "indexed": true,
          "internalType": "address",
          "name": "borrower",
          "type": "address"
        },
        {
          "indexed": false,
          "internalType": "uint256",
          "name": "amountPaid",
          "type": "uint256"
        },
        {
          "indexed": false,
          "internalType": "address",
          "name": "payer",
          "type": "address"
        },
        {
          "indexed": false,
          "internalType": "uint256",
          "name": "totalOwed",
          "type": "uint256"
        }
      ],
      "name": "LoanRepaid",
      "type": "event"
    },
    {
      "inputs": [
        {
          "internalType": "uint256",
          "name": "loanID",
          "type": "uint256"
        },
        {
          "internalType": "uint256",
          "name": "amount",
          "type": "uint256"
        }
      ],
      "name": "escrowRepay",
      "outputs": [],
      "stateMutability": "nonpayable",
      "type": "function"
    },
    {
      "inputs": [
        {
          "internalType": "uint256",
          "name": "loanID",
          "type": "uint256"
        }
      ],
      "name": "getLiquidationReward",
      "outputs": [
        {
          "internalType": "uint256",
          "name": "inLending_",
          "type": "uint256"
        },
        {
          "internalType": "uint256",
          "name": "inCollateral_",
          "type": "uint256"
        }
      ],
      "stateMutability": "view",
      "type": "function"
    },
    {
      "inputs": [
        {
          "internalType": "uint256",
          "name": "loanID",
          "type": "uint256"
        }
      ],
      "name": "liquidateLoan",
      "outputs": [],
      "stateMutability": "nonpayable",
      "type": "function"
    },
    {
      "inputs": [
        {
          "internalType": "uint256",
          "name": "loanID",
          "type": "uint256"
        },
        {
          "internalType": "uint256",
          "name": "amount",
          "type": "uint256"
        }
      ],
      "name": "repayLoan",
      "outputs": [],
      "stateMutability": "nonpayable",
      "type": "function"
    }
  ],
  "transactionHash": "0xf812564fc10dacaf6fbf0345ebb25a234632c0c3ee096a2374efc2b528ed9137",
  "args": [],
  "solcInputHash": "68d48f71bec0b49e50af9b5c8246eeb7",
  "bytecode": "0x608060405234801561001057600080fd5b50611d92806100206000396000f3fe608060405234801561001057600080fd5b506004361061004c5760003560e01c80635ebc6334146100515780638a700b531461007d578063ccdd9f5d14610092578063e89ad656146100a5575b600080fd5b61006461005f366004611b12565b6100b8565b6040805192835260208301919091520160405180910390f35b61009061008b366004611b42565b610189565b005b6100906100a0366004611b12565b61037d565b6100906100b3366004611b42565b6106c5565b60008061014a836100c88561094c565b6001600160a01b031663d17b71d7866040518263ffffffff1660e01b81526004016100f591815260200190565b60206040518083038186803b15801561010d57600080fd5b505afa158015610121573d6000803e3d6000fd5b505050506040513d601f19601f820116820180604052508101906101459190611b2a565b6109b9565b50915061018261015984610ac9565b600101546001600160a01b031661016f85610ac9565b600201546001600160a01b031684610ae6565b9050915091565b60008080527f7b305b6be5f275f648d05716597c483d754c2a242bd605feba3c64fb853605366020527f63eec20f0ae1af135811da961c707cd581594291a92cf7bcd78c1cf1aca4e4b054600080516020611d3d8339815191529060ff161561020d5760405162461bcd60e51b815260040161020490611c3a565b60405180910390fd5b60008281526002820160205260408120805460ff19166001179055808061023381610b68565b151514801561024d575080151561024983610b68565b1515145b61025682610b80565b906102745760405162461bcd60e51b81526004016102049190611bd0565b507f50e75b23f8ec51bbcb044fe377457e835f3b5ccc7ebf69e80906452015dff607336102a18282610be9565b6102bd5760405162461bcd60e51b815260040161020490611c03565b60006102c889610ac9565b905060006102d7828a33610c1d565b9050806103095760098201805460ff1916600390811790915582549083015461030991906001600160a01b0316610eff565b60038201548254604080518c81523360208201529081018490526001600160a01b03909216917f20a1f2ec363af45dc5ee7d9d622f2dd68b52501c382126c7f04b53663c4c69bf9060600160405180910390a3505050600094855250505060020160205260409020805460ff191690555050565b60008080527f7b305b6be5f275f648d05716597c483d754c2a242bd605feba3c64fb853605366020527f63eec20f0ae1af135811da961c707cd581594291a92cf7bcd78c1cf1aca4e4b054600080516020611d3d8339815191529060ff16156103f85760405162461bcd60e51b815260040161020490611c3a565b60008281526002820160205260408120805460ff19166001179055808061041e81610b68565b1515148015610438575080151561043483610b68565b1515145b61044182610b80565b9061045f5760405162461bcd60e51b81526004016102049190611bd0565b507f50e75b23f8ec51bbcb044fe377457e835f3b5ccc7ebf69e80906452015dff6073361048c8282610be9565b6104a85760405162461bcd60e51b815260040161020490611c03565b60006104b388610ac9565b905060006104c4826000015461094c565b825460405163d17b71d760e01b81526001600160a01b03929092169163d17b71d7916104f69160040190815260200190565b60206040518083038186803b15801561050e57600080fd5b505afa158015610522573d6000803e3d6000fd5b505050506040513d601f19601f820116820180604052508101906105469190611b2a565b90506105528282610f93565b6105a85760405162461bcd60e51b815260206004820152602160248201527f54656c6c65723a20646f6573206e6f74206e656564206c69717569646174696f6044820152603760f91b6064820152608401610204565b6000806105b58b846109b9565b91509150600084600b015485600a01546105cf9190611c71565b90506105dc858233610c1d565b156106295760405162461bcd60e51b815260206004820152601f60248201527f54656c6c65723a206c6971756964617465207061727469616c207265706179006044820152606401610204565b60098501805460ff19166004179055821561064b5761064b8584848733611085565b600385015460408051338152602081018690529081018390526001600160a01b03909116908d907f9950a0562c02382e2e840daa73082d5be7660ce37601f28fa4c84089c11e8a069060600160405180910390a35050506000978852505050600290930160205250506040909120805460ff191690555050565b600080806106d281610b68565b15151480156106ec57508015156106e883610b68565b1515145b6106f582610b80565b906107135760405162461bcd60e51b81526004016102049190611bd0565b507f50e75b23f8ec51bbcb044fe377457e835f3b5ccc7ebf69e80906452015dff607336107408282610be9565b61075c5760405162461bcd60e51b815260040161020490611c03565b60008080527f7b305b6be5f275f648d05716597c483d754c2a242bd605feba3c64fb853605366020527f63eec20f0ae1af135811da961c707cd581594291a92cf7bcd78c1cf1aca4e4b054600080516020611d3d8339815191529060ff16156107d75760405162461bcd60e51b815260040161020490611c3a565b60008281526002820160205260408120805460ff19166001179055610811896107ff81610ac9565b600101546001600160a01b0316611181565b9050600061081e8a611219565b9050808210801561082e57508189115b15610882576000818a1161084b57610846838b611cc8565b610855565b6108558383611cc8565b90506108806108638c610ac9565b600101546001600160a01b03163361087a8e6112f6565b8461131d565b505b600061088d8b610ac9565b905060006108a4828c61089f8f6112f6565b610c1d565b9050806108d65760098201805460ff191660039081179091558254908301546108d691906001600160a01b0316610eff565b60038201548254604080518e81523360208201529081018490526001600160a01b03909216917f20a1f2ec363af45dc5ee7d9d622f2dd68b52501c382126c7f04b53663c4c69bf9060600160405180910390a350505060009283525060020160205260409020805460ff19169055505050505050565b60009081527f0553069f1f0518e59f8623c18c83a1f987f2a0544d563e98dd803a7078142a8660209081526040808320600201546001600160a01b0390811684527f0553069f1f0518e59f8623c18c83a1f987f2a0544d563e98dd803a7078142a89909252909120541690565b60008060006109c785610ac9565b600b01546109d486610ac9565b600a01546109e29190611c71565b90506000610a4082610a3b7f5166f2578d96d76687be006158a90b639fcc7501b0381b6b4ed953aca3e0e18360005260026020527f62b628cf249f5e3277a1eb89823e30745a52df5a9b080bff8ed5938c4131e3b05490565b61137b565b610a4a9083611c71565b90508415610a9657610a87610a5e87610ac9565b600201546001600160a01b0316610a7488610ac9565b600101546001600160a01b031687610ae6565b9250610a938385611c71565b93505b80841015610ab457610aa786611394565b610ab19085611c71565b93505b80841115610ac0578093505b50509250929050565b6000610ad3611486565b6000928352600101602052506040902090565b60405163c05b1ec360e01b8152600090309063c05b1ec390610b1090879087908790600401611bac565b60206040518083038186803b158015610b2857600080fd5b505afa158015610b3c573d6000803e3d6000fd5b505050506040513d601f19601f82011682018060405250810190610b609190611b2a565b949350505050565b60008181526001602052604090205460ff165b919050565b606081610bb5576040518060400160405280601081526020016f14185d5cd8589b194e881c185d5cd95960821b815250610be3565b6040518060400160405280601481526020017314185d5cd8589b194e881b9bdd081c185d5cd95960621b8152505b92915050565b6000610bf36114af565b6000938452602090815260408085206001600160a01b039490941685529290525090205460ff1690565b6000808311610c635760405162461bcd60e51b815260206004820152601260248201527154656c6c65723a207a65726f20726570617960701b6044820152606401610204565b83600b015484600a0154610c779190611c71565b905082811015610c8a5791506000610c97565b610c948382611cc8565b90505b60018401546001600160a01b0390811660009081527f0553069f1f0518e59f8623c18c83a1f987f2a0544d563e98dd803a7078142a8e6020526040902054855490821691841690610ce7906112f6565b6001600160a01b03161415610d6f578454610d01906112f6565b600186015460405163092dfdb360e11b81526001600160a01b039283169263125bfb6692610d389291169085908990600401611bac565b600060405180830381600087803b158015610d5257600080fd5b505af1158015610d66573d6000803e3d6000fd5b50505050610d89565b6001850154610d89906001600160a01b031684838761131d565b806001600160a01b031663870ba7466040518163ffffffff1660e01b8152600401600060405180830381600087803b158015610dc457600080fd5b505af1158015610dd8573d6000803e3d6000fd5b5050505060008086600b0154861015610e0d578590508587600b016000828254610e029190611cc8565b90915550610e549050565b600b87015415610e315750600b860154610e278187611cc8565b6000600b89015595505b8515610e54578591508587600a016000828254610e4e9190611cc8565b90915550505b60018701546001600160a01b031660009081527f0553069f1f0518e59f8623c18c83a1f987f2a0544d563e98dd803a7078142a8c602052604081208054849290610e9f908490611c71565b909155505060018701546001600160a01b031660009081527f0553069f1f0518e59f8623c18c83a1f987f2a0544d563e98dd803a7078142a8d602052604081208054839290610eef908490611c71565b9091555093979650505050505050565b610f8f82610f0c8461094c565b6001600160a01b031663d17b71d7856040518263ffffffff1660e01b8152600401610f3991815260200190565b60206040518083038186803b158015610f5157600080fd5b505afa158015610f65573d6000803e3d6000fd5b505050506040513d601f19601f82011682018060405250810190610f899190611b2a565b836114c5565b5050565b60006002600984015460ff166004811115610fbe57634e487b7160e01b600052602160045260246000fd5b14610fcb57506000610be3565b6006830154156110675782546040516372e1132760e01b815260009130916372e1132791610fff9160040190815260200190565b60606040518083038186803b15801561101757600080fd5b505afa15801561102b573d6000803e3d6000fd5b505050506040513d601f19601f8201168201806040525081019061104f9190611b63565b5091505082811115611065576001915050610be3565b505b6008830154600e84015461107b9190611c71565b4210159392505050565b6004600986015460ff1660048111156110ae57634e487b7160e01b600052602160045260246000fd5b146110fb5760405162461bcd60e51b815260206004820152601b60248201527f54656c6c65723a206c6f616e206e6f74206c69717569646174656400000000006044820152606401610204565b8284116111595760006111426111148760000154610ac9565b6001015487546001600160a01b039091169061112f90610ac9565b600201546001600160a01b031687610ae6565b9050611153866000015482846114c5565b5061117a565b84546111669083836114c5565b61117a85826111758688611cc8565b611582565b5050505050565b6000816001600160a01b03166370a0823161119b856112f6565b6040516001600160e01b031960e084901b1681526001600160a01b03909116600482015260240160206040518083038186803b1580156111da57600080fd5b505afa1580156111ee573d6000803e3d6000fd5b505050506040513d601f19601f820116820180604052508101906112129190611b2a565b9392505050565b6000600161122683610ac9565b6009015460ff16600481111561124c57634e487b7160e01b600052602160045260246000fd5b141561128c57600061126a8361126185610ac9565b600701546117ad565b90508061127684610ac9565b600701546112849190611c71565b915050610b7b565b600261129783610ac9565b6009015460ff1660048111156112bd57634e487b7160e01b600052602160045260246000fd5b14156112ee576112cc82610ac9565b600b01546112d983610ac9565b600a01546112e79190611c71565b9050610b7b565b506000919050565b6000611300611486565b60009283526002016020525060409020546001600160a01b031690565b611375846323b872dd60e01b85858560405160240161133e93929190611bac565b60408051601f198184030181529190526020810180516001600160e01b03166001600160e01b0319909316929092179091526117c2565b50505050565b600061271061138a8385611ca9565b6112129190611c89565b60008181527f0553069f1f0518e59f8623c18c83a1f987f2a0544d563e98dd803a7078142a8860205260408120816113cb82611894565b11156114805760006113dc84610ac9565b600101546001600160a01b0316905060005b6113f783611894565b81101561147d5760006114138661140e868561189e565b611181565b9050826001600160a01b0316611429858461189e565b6001600160a01b03161415611449576114428186611c71565b945061146a565b61145d611456858461189e565b8483610ae6565b6114679086611c71565b94505b508061147581611d0b565b9150506113ee565b50505b50919050565b60007f0553069f1f0518e59f8623c18c83a1f987f2a0544d563e98dd803a7078142a855b905090565b6000600080516020611d3d8339815191526114aa565b6114ce8361094c565b604051630ad58d2f60e01b815260048101859052602481018490526001600160a01b0383811660448301529190911690630ad58d2f90606401600060405180830381600087803b15801561152157600080fd5b505af1158015611535573d6000803e3d6000fd5b50505050806001600160a01b0316837f7c5e5cb62e5ed3caf3764e4b0afedfedef533e27809d43367799787ad2abcd418460405161157591815260200190565b60405180910390a3505050565b825460009081527f0553069f1f0518e59f8623c18c83a1f987f2a0544d563e98dd803a7078142a88602052604081209082905b6115be83611894565b8110156117a457816115d2575050506117a8565b60006115e6876000015461140e868561189e565b905080156117915760018701546000906001600160a01b0316611609868561189e565b6001600160a01b0316141561161f575080611643565b61164061162c868561189e565b60018a01546001600160a01b031684610ae6565b90505b8381116116d2578754611655906112f6565b6001600160a01b031663125bfb6661166d878661189e565b89856040518463ffffffff1660e01b815260040161168d93929190611bac565b600060405180830381600087803b1580156116a757600080fd5b505af11580156116bb573d6000803e3d6000fd5b5050505080846116cb9190611cc8565b935061178f565b60018801546000906001600160a01b03166116ed878661189e565b6001600160a01b03161415611703575083611714565b61171182610a3b87856118aa565b90505b885461171f906112f6565b6001600160a01b031663125bfb66611737888761189e565b8a846040518463ffffffff1660e01b815260040161175793929190611bac565b600060405180830381600087803b15801561177157600080fd5b505af1158015611785573d6000803e3d6000fd5b5050505060009450505b505b508061179c81611d0b565b9150506115b5565b5050505b505050565b60006112126117bb846118b9565b839061137b565b6000611817826040518060400160405280602081526020017f5361666545524332303a206c6f772d6c6576656c2063616c6c206661696c6564815250856001600160a01b03166118ee9092919063ffffffff16565b8051909150156117a857808060200190518101906118359190611af2565b6117a85760405162461bcd60e51b815260206004820152602a60248201527f5361666545524332303a204552433230206f7065726174696f6e20646964206e6044820152691bdd081cdd58d8d9595960b21b6064820152608401610204565b6000610be3825490565b600061121283836118fd565b60008161138a61271085611ca9565b60006301e133806118c983610ac9565b600801546118d684610ac9565b600501546118e49190611ca9565b610be39190611c89565b6060610b608484600085611991565b8154600090821061195b5760405162461bcd60e51b815260206004820152602260248201527f456e756d657261626c655365743a20696e646578206f7574206f6620626f756e604482015261647360f01b6064820152608401610204565b82600001828154811061197e57634e487b7160e01b600052603260045260246000fd5b9060005260206000200154905092915050565b6060824710156119f25760405162461bcd60e51b815260206004820152602660248201527f416464726573733a20696e73756666696369656e742062616c616e636520666f6044820152651c8818d85b1b60d21b6064820152608401610204565b843b611a405760405162461bcd60e51b815260206004820152601d60248201527f416464726573733a2063616c6c20746f206e6f6e2d636f6e74726163740000006044820152606401610204565b600080866001600160a01b03168587604051611a5c9190611b90565b60006040518083038185875af1925050503d8060008114611a99576040519150601f19603f3d011682016040523d82523d6000602084013e611a9e565b606091505b5091509150611aae828286611ab9565b979650505050505050565b60608315611ac8575081611212565b825115611ad85782518084602001fd5b8160405162461bcd60e51b81526004016102049190611bd0565b600060208284031215611b03578081fd5b81518015158114611212578182fd5b600060208284031215611b23578081fd5b5035919050565b600060208284031215611b3b578081fd5b5051919050565b60008060408385031215611b54578081fd5b50508035926020909101359150565b600080600060608486031215611b77578081fd5b8351925060208401519150604084015190509250925092565b60008251611ba2818460208701611cdf565b9190910192915050565b6001600160a01b039384168152919092166020820152604081019190915260600190565b6000602082528251806020840152611bef816040850160208701611cdf565b601f01601f19169190910160400192915050565b6020808252601d908201527f416363657373436f6e74726f6c3a206e6f7420617574686f72697a6564000000604082015260600190565b60208082526018908201527f416363657373436f6e74726f6c3a207265656e74657265640000000000000000604082015260600190565b60008219821115611c8457611c84611d26565b500190565b600082611ca457634e487b7160e01b81526012600452602481fd5b500490565b6000816000190483118215151615611cc357611cc3611d26565b500290565b600082821015611cda57611cda611d26565b500390565b60005b83811015611cfa578181015183820152602001611ce2565b838111156113755750506000910152565b6000600019821415611d1f57611d1f611d26565b5060010190565b634e487b7160e01b600052601160045260246000fdfe7b305b6be5f275f648d05716597c483d754c2a242bd605feba3c64fb85360534a26469706673582212203f6acb765bec41f9e9c37a35dc08c5b03980935c4885d8717e3a798ea2da7e6564736f6c63430008030033",
  "devdoc": {
    "events": {
      "LoanLiquidated(uint256,address,address,uint256,uint256)": {
        "params": {
          "borrower": "Account address of the borrower",
          "liquidator": "Account address of the liquidator",
          "loanID": "ID of loan from which collateral was withdrawn",
          "reward": "Value in lending token paid out to liquidator",
          "tokensIn": "Percentage of the collateral price paid by the liquidator to the lending pool"
        }
      },
      "LoanRepaid(uint256,address,uint256,address,uint256)": {
        "params": {
          "amountPaid": "Amount of the loan paid back",
          "borrower": "Account address of the borrower",
          "loanID": "ID of loan from which collateral was withdrawn",
          "payer": "Account address of the payer",
          "totalOwed": "Total amount of the loan to be repaid"
        }
      }
    },
    "kind": "dev",
    "methods": {
      "escrowRepay(uint256,uint256)": {
        "details": "If the Escrow's balance of the borrowed token is less than the amount to repay, transfer tokens from the sender's wallet.Only the owner of the Escrow can call this. If someone else wants to make a payment, they should call the loan manager directly.",
        "params": {
          "amount": "The amount being repaid.",
          "loanID": "The id of the loan being used."
        }
      },
      "getLiquidationReward(uint256)": {
        "params": {
          "loanID": "The loan ID to get the info."
        },
        "returns": {
          "inCollateral_": "The value the liquidator will receive denoted in collateral tokens.",
          "inLending_": "The value the liquidator will receive denoted in lending tokens."
        }
      },
      "liquidateLoan(uint256)": {
        "params": {
          "loanID": "The ID of the loan to be liquidated"
        }
      },
      "repayLoan(uint256,uint256)": {
        "params": {
          "amount": "The amount of tokens to pay back to the loan",
          "loanID": "The ID of the loan the payment is for"
        }
      }
    },
    "version": 1
  },
  "userdoc": {
    "events": {
      "LoanLiquidated(uint256,address,address,uint256,uint256)": {
        "notice": "This event is emitted when a loan has been successfully liquidated"
      },
      "LoanRepaid(uint256,address,uint256,address,uint256)": {
        "notice": "This event is emitted when a loan has been successfully repaid"
      }
    },
    "kind": "user",
    "methods": {
      "escrowRepay(uint256,uint256)": {
        "notice": "Repay this Escrow's loan."
      },
      "getLiquidationReward(uint256)": {
        "notice": "It gets the current liquidation reward for a given loan."
      },
      "liquidateLoan(uint256)": {
        "notice": "Liquidate a loan if it is expired or under collateralized"
      },
      "repayLoan(uint256,uint256)": {
        "notice": "Make a payment to a loan"
      }
    },
    "version": 1
  },
  "storageLayout": {
    "storage": [],
    "types": null
  }
}