{
  "address": "0x5e30357d5136Bc4BfaDBA1ab341D0da09Fe7a9F1",
  "abi": [
    {
      "anonymous": false,
      "inputs": [
        {
          "indexed": true,
          "internalType": "address",
          "name": "user",
          "type": "address"
        },
        {
          "indexed": true,
          "internalType": "address",
          "name": "pauser",
          "type": "address"
        }
      ],
      "name": "AuthorizationGranted",
      "type": "event"
    },
    {
      "anonymous": false,
      "inputs": [
        {
          "indexed": true,
          "internalType": "address",
          "name": "user",
          "type": "address"
        },
        {
          "indexed": true,
          "internalType": "address",
          "name": "pauser",
          "type": "address"
        }
      ],
      "name": "AuthorizationRevoked",
      "type": "event"
    },
    {
      "anonymous": false,
      "inputs": [
        {
          "indexed": true,
          "internalType": "address",
          "name": "account",
          "type": "address"
        },
        {
          "indexed": true,
          "internalType": "address",
          "name": "lendingPoolAddress",
          "type": "address"
        }
      ],
      "name": "LendingPoolPaused",
      "type": "event"
    },
    {
      "anonymous": false,
      "inputs": [
        {
          "indexed": true,
          "internalType": "address",
          "name": "account",
          "type": "address"
        },
        {
          "indexed": true,
          "internalType": "address",
          "name": "lendingPoolAddress",
          "type": "address"
        }
      ],
      "name": "LendingPoolUnpaused",
      "type": "event"
    },
    {
      "anonymous": false,
      "inputs": [
        {
          "indexed": false,
          "internalType": "address",
          "name": "account",
          "type": "address"
        }
      ],
      "name": "Paused",
      "type": "event"
    },
    {
      "anonymous": false,
      "inputs": [
        {
          "indexed": true,
          "internalType": "address",
          "name": "account",
          "type": "address"
        }
      ],
      "name": "PauserAdded",
      "type": "event"
    },
    {
      "anonymous": false,
      "inputs": [
        {
          "indexed": true,
          "internalType": "address",
          "name": "account",
          "type": "address"
        }
      ],
      "name": "PauserRemoved",
      "type": "event"
    },
    {
      "anonymous": false,
      "inputs": [
        {
          "indexed": false,
          "internalType": "bool",
          "name": "restriction",
          "type": "bool"
        },
        {
          "indexed": true,
          "internalType": "address",
          "name": "pauser",
          "type": "address"
        }
      ],
      "name": "PlatformRestricted",
      "type": "event"
    },
    {
      "anonymous": false,
      "inputs": [
        {
          "indexed": true,
          "internalType": "bytes32",
          "name": "settingName",
          "type": "bytes32"
        },
        {
          "indexed": true,
          "internalType": "address",
          "name": "sender",
          "type": "address"
        },
        {
          "indexed": false,
          "internalType": "uint256",
          "name": "value",
          "type": "uint256"
        },
        {
          "indexed": false,
          "internalType": "uint256",
          "name": "minValue",
          "type": "uint256"
        },
        {
          "indexed": false,
          "internalType": "uint256",
          "name": "maxValue",
          "type": "uint256"
        }
      ],
      "name": "PlatformSettingCreated",
      "type": "event"
    },
    {
      "anonymous": false,
      "inputs": [
        {
          "indexed": true,
          "internalType": "bytes32",
          "name": "settingName",
          "type": "bytes32"
        },
        {
          "indexed": false,
          "internalType": "uint256",
          "name": "lastValue",
          "type": "uint256"
        },
        {
          "indexed": true,
          "internalType": "address",
          "name": "sender",
          "type": "address"
        }
      ],
      "name": "PlatformSettingRemoved",
      "type": "event"
    },
    {
      "anonymous": false,
      "inputs": [
        {
          "indexed": true,
          "internalType": "bytes32",
          "name": "settingName",
          "type": "bytes32"
        },
        {
          "indexed": true,
          "internalType": "address",
          "name": "sender",
          "type": "address"
        },
        {
          "indexed": false,
          "internalType": "uint256",
          "name": "oldValue",
          "type": "uint256"
        },
        {
          "indexed": false,
          "internalType": "uint256",
          "name": "newValue",
          "type": "uint256"
        }
      ],
      "name": "PlatformSettingUpdated",
      "type": "event"
    },
    {
      "anonymous": false,
      "inputs": [
        {
          "indexed": false,
          "internalType": "address",
          "name": "account",
          "type": "address"
        }
      ],
      "name": "Unpaused",
      "type": "event"
    },
    {
      "constant": true,
      "inputs": [],
      "name": "CETH_ADDRESS",
      "outputs": [
        {
          "internalType": "address",
          "name": "",
          "type": "address"
        }
      ],
      "payable": false,
      "stateMutability": "view",
      "type": "function"
    },
    {
      "constant": true,
      "inputs": [],
      "name": "ETH_ADDRESS",
      "outputs": [
        {
          "internalType": "address",
          "name": "",
          "type": "address"
        }
      ],
      "payable": false,
      "stateMutability": "view",
      "type": "function"
    },
    {
      "constant": true,
      "inputs": [],
      "name": "WETH_ADDRESS",
      "outputs": [
        {
          "internalType": "address",
          "name": "",
          "type": "address"
        }
      ],
      "payable": false,
      "stateMutability": "view",
      "type": "function"
    },
    {
      "constant": false,
      "inputs": [
        {
          "internalType": "address",
          "name": "addressToAdd",
          "type": "address"
        }
      ],
      "name": "addAuthorizedAddress",
      "outputs": [],
      "payable": false,
      "stateMutability": "nonpayable",
      "type": "function"
    },
    {
      "constant": false,
      "inputs": [
        {
          "internalType": "address[]",
          "name": "addressesToAdd",
          "type": "address[]"
        }
      ],
      "name": "addAuthorizedAddressList",
      "outputs": [],
      "payable": false,
      "stateMutability": "nonpayable",
      "type": "function"
    },
    {
      "constant": false,
      "inputs": [
        {
          "internalType": "address",
          "name": "escrowAddress",
          "type": "address"
        }
      ],
      "name": "addEscrowAuthorized",
      "outputs": [],
      "payable": false,
      "stateMutability": "nonpayable",
      "type": "function"
    },
    {
      "constant": false,
      "inputs": [
        {
          "internalType": "address",
          "name": "account",
          "type": "address"
        }
      ],
      "name": "addPauser",
      "outputs": [],
      "payable": false,
      "stateMutability": "nonpayable",
      "type": "function"
    },
    {
      "constant": true,
      "inputs": [],
      "name": "assetSettings",
      "outputs": [
        {
          "internalType": "contract AssetSettingsInterface",
          "name": "",
          "type": "address"
        }
      ],
      "payable": false,
      "stateMutability": "view",
      "type": "function"
    },
    {
      "constant": true,
      "inputs": [
        {
          "internalType": "address",
          "name": "",
          "type": "address"
        }
      ],
      "name": "authorizedAddresses",
      "outputs": [
        {
          "internalType": "bool",
          "name": "",
          "type": "bool"
        }
      ],
      "payable": false,
      "stateMutability": "view",
      "type": "function"
    },
    {
      "constant": true,
      "inputs": [],
      "name": "chainlinkAggregator",
      "outputs": [
        {
          "internalType": "contract IChainlinkAggregator",
          "name": "",
          "type": "address"
        }
      ],
      "payable": false,
      "stateMutability": "view",
      "type": "function"
    },
    {
      "constant": false,
      "inputs": [
        {
          "internalType": "bytes32",
          "name": "settingName",
          "type": "bytes32"
        },
        {
          "internalType": "uint256",
          "name": "value",
          "type": "uint256"
        },
        {
          "internalType": "uint256",
          "name": "minValue",
          "type": "uint256"
        },
        {
          "internalType": "uint256",
          "name": "maxValue",
          "type": "uint256"
        }
      ],
      "name": "createPlatformSetting",
      "outputs": [],
      "payable": false,
      "stateMutability": "nonpayable",
      "type": "function"
    },
    {
      "constant": true,
      "inputs": [],
      "name": "dappRegistry",
      "outputs": [
        {
          "internalType": "contract IDappRegistry",
          "name": "",
          "type": "address"
        }
      ],
      "payable": false,
      "stateMutability": "view",
      "type": "function"
    },
    {
      "constant": true,
      "inputs": [
        {
          "internalType": "address",
          "name": "assetAddress",
          "type": "address"
        },
        {
          "internalType": "uint256",
          "name": "amount",
          "type": "uint256"
        }
      ],
      "name": "exceedsMaxLoanAmount",
      "outputs": [
        {
          "internalType": "bool",
          "name": "",
          "type": "bool"
        }
      ],
      "payable": false,
      "stateMutability": "view",
      "type": "function"
    },
    {
      "constant": true,
      "inputs": [
        {
          "internalType": "address",
          "name": "assetAddress",
          "type": "address"
        }
      ],
      "name": "getCTokenAddress",
      "outputs": [
        {
          "internalType": "address",
          "name": "",
          "type": "address"
        }
      ],
      "payable": false,
      "stateMutability": "view",
      "type": "function"
    },
    {
      "constant": true,
      "inputs": [],
      "name": "getCollateralBufferValue",
      "outputs": [
        {
          "internalType": "uint256",
          "name": "value",
          "type": "uint256"
        }
      ],
      "payable": false,
      "stateMutability": "view",
      "type": "function"
    },
    {
      "constant": true,
      "inputs": [],
      "name": "getLiquidateEthPriceValue",
      "outputs": [
        {
          "internalType": "uint256",
          "name": "value",
          "type": "uint256"
        }
      ],
      "payable": false,
      "stateMutability": "view",
      "type": "function"
    },
    {
      "constant": true,
      "inputs": [],
      "name": "getMaximumLoanDurationValue",
      "outputs": [
        {
          "internalType": "uint256",
          "name": "value",
          "type": "uint256"
        }
      ],
      "payable": false,
      "stateMutability": "view",
      "type": "function"
    },
    {
      "constant": true,
      "inputs": [],
      "name": "getMaximumToleranceValue",
      "outputs": [
        {
          "internalType": "uint256",
          "name": "value",
          "type": "uint256"
        }
      ],
      "payable": false,
      "stateMutability": "view",
      "type": "function"
    },
    {
      "constant": true,
      "inputs": [],
      "name": "getOverCollateralizedBufferValue",
      "outputs": [
        {
          "internalType": "uint256",
          "name": "value",
          "type": "uint256"
        }
      ],
      "payable": false,
      "stateMutability": "view",
      "type": "function"
    },
    {
      "constant": true,
      "inputs": [
        {
          "internalType": "bytes32",
          "name": "settingName",
          "type": "bytes32"
        }
      ],
      "name": "getPlatformSetting",
      "outputs": [
        {
          "components": [
            {
              "internalType": "uint256",
              "name": "value",
              "type": "uint256"
            },
            {
              "internalType": "uint256",
              "name": "min",
              "type": "uint256"
            },
            {
              "internalType": "uint256",
              "name": "max",
              "type": "uint256"
            },
            {
              "internalType": "bool",
              "name": "exists",
              "type": "bool"
            }
          ],
          "internalType": "struct PlatformSettingsLib.PlatformSetting",
          "name": "",
          "type": "tuple"
        }
      ],
      "payable": false,
      "stateMutability": "view",
      "type": "function"
    },
    {
      "constant": true,
      "inputs": [],
      "name": "getRequestLoanTermsRateLimitValue",
      "outputs": [
        {
          "internalType": "uint256",
          "name": "value",
          "type": "uint256"
        }
      ],
      "payable": false,
      "stateMutability": "view",
      "type": "function"
    },
    {
      "constant": true,
      "inputs": [],
      "name": "getRequiredSubmissionsPercentageValue",
      "outputs": [
        {
          "internalType": "uint256",
          "name": "value",
          "type": "uint256"
        }
      ],
      "payable": false,
      "stateMutability": "view",
      "type": "function"
    },
    {
      "constant": true,
      "inputs": [],
      "name": "getResponseExpiryLengthValue",
      "outputs": [
        {
          "internalType": "uint256",
          "name": "value",
          "type": "uint256"
        }
      ],
      "payable": false,
      "stateMutability": "view",
      "type": "function"
    },
    {
      "constant": true,
      "inputs": [],
      "name": "getSafetyIntervalValue",
      "outputs": [
        {
          "internalType": "uint256",
          "name": "value",
          "type": "uint256"
        }
      ],
      "payable": false,
      "stateMutability": "view",
      "type": "function"
    },
    {
      "constant": true,
      "inputs": [],
      "name": "getTermsExpiryTimeValue",
      "outputs": [
        {
          "internalType": "uint256",
          "name": "value",
          "type": "uint256"
        }
      ],
      "payable": false,
      "stateMutability": "view",
      "type": "function"
    },
    {
      "constant": true,
      "inputs": [
        {
          "internalType": "address",
          "name": "account",
          "type": "address"
        }
      ],
      "name": "hasAuthorization",
      "outputs": [
        {
          "internalType": "bool",
          "name": "",
          "type": "bool"
        }
      ],
      "payable": false,
      "stateMutability": "view",
      "type": "function"
    },
    {
      "constant": true,
      "inputs": [
        {
          "internalType": "bytes32",
          "name": "settingName",
          "type": "bytes32"
        }
      ],
      "name": "hasPlatformSetting",
      "outputs": [
        {
          "internalType": "bool",
          "name": "",
          "type": "bool"
        }
      ],
      "payable": false,
      "stateMutability": "view",
      "type": "function"
    },
    {
      "constant": true,
      "inputs": [],
      "name": "implementationStored",
      "outputs": [
        {
          "internalType": "address",
          "name": "",
          "type": "address"
        }
      ],
      "payable": false,
      "stateMutability": "view",
      "type": "function"
    },
    {
      "constant": true,
      "inputs": [],
      "name": "initDynamicProxyLogic",
      "outputs": [
        {
          "internalType": "address",
          "name": "",
          "type": "address"
        }
      ],
      "payable": false,
      "stateMutability": "view",
      "type": "function"
    },
    {
      "constant": false,
      "inputs": [
        {
          "internalType": "address",
          "name": "wethTokenAddress",
          "type": "address"
        },
        {
          "internalType": "address",
          "name": "cethTokenAddress",
          "type": "address"
        },
        {
          "internalType": "address",
          "name": "initDynamicProxyAddress",
          "type": "address"
        }
      ],
      "name": "initialize",
      "outputs": [],
      "payable": false,
      "stateMutability": "nonpayable",
      "type": "function"
    },
    {
      "constant": true,
      "inputs": [],
      "name": "isPaused",
      "outputs": [
        {
          "internalType": "bool",
          "name": "",
          "type": "bool"
        }
      ],
      "payable": false,
      "stateMutability": "view",
      "type": "function"
    },
    {
      "constant": true,
      "inputs": [
        {
          "internalType": "address",
          "name": "account",
          "type": "address"
        }
      ],
      "name": "isPauser",
      "outputs": [
        {
          "internalType": "bool",
          "name": "",
          "type": "bool"
        }
      ],
      "payable": false,
      "stateMutability": "view",
      "type": "function"
    },
    {
      "constant": true,
      "inputs": [],
      "name": "isPlatformRestricted",
      "outputs": [
        {
          "internalType": "bool",
          "name": "",
          "type": "bool"
        }
      ],
      "payable": false,
      "stateMutability": "view",
      "type": "function"
    },
    {
      "constant": true,
      "inputs": [
        {
          "internalType": "address",
          "name": "",
          "type": "address"
        }
      ],
      "name": "lendingPoolPaused",
      "outputs": [
        {
          "internalType": "bool",
          "name": "",
          "type": "bool"
        }
      ],
      "payable": false,
      "stateMutability": "view",
      "type": "function"
    },
    {
      "constant": true,
      "inputs": [],
      "name": "logicName",
      "outputs": [
        {
          "internalType": "bytes32",
          "name": "",
          "type": "bytes32"
        }
      ],
      "payable": false,
      "stateMutability": "view",
      "type": "function"
    },
    {
      "constant": true,
      "inputs": [],
      "name": "logicRegistry",
      "outputs": [
        {
          "internalType": "contract LogicVersionsRegistryInterface",
          "name": "",
          "type": "address"
        }
      ],
      "payable": false,
      "stateMutability": "view",
      "type": "function"
    },
    {
      "constant": true,
      "inputs": [],
      "name": "marketFactory",
      "outputs": [
        {
          "internalType": "contract IMarketFactory",
          "name": "",
          "type": "address"
        }
      ],
      "payable": false,
      "stateMutability": "view",
      "type": "function"
    },
    {
      "constant": false,
      "inputs": [],
      "name": "pause",
      "outputs": [],
      "payable": false,
      "stateMutability": "nonpayable",
      "type": "function"
    },
    {
      "constant": false,
      "inputs": [
        {
          "internalType": "address",
          "name": "lendingPoolAddress",
          "type": "address"
        }
      ],
      "name": "pauseLendingPool",
      "outputs": [],
      "payable": false,
      "stateMutability": "nonpayable",
      "type": "function"
    },
    {
      "constant": true,
      "inputs": [],
      "name": "paused",
      "outputs": [
        {
          "internalType": "bool",
          "name": "",
          "type": "bool"
        }
      ],
      "payable": false,
      "stateMutability": "view",
      "type": "function"
    },
    {
      "constant": true,
      "inputs": [],
      "name": "platformRestricted",
      "outputs": [
        {
          "internalType": "bool",
          "name": "",
          "type": "bool"
        }
      ],
      "payable": false,
      "stateMutability": "view",
      "type": "function"
    },
    {
      "constant": true,
      "inputs": [
        {
          "internalType": "bytes32",
          "name": "",
          "type": "bytes32"
        }
      ],
      "name": "platformSettings",
      "outputs": [
        {
          "internalType": "uint256",
          "name": "value",
          "type": "uint256"
        },
        {
          "internalType": "uint256",
          "name": "min",
          "type": "uint256"
        },
        {
          "internalType": "uint256",
          "name": "max",
          "type": "uint256"
        },
        {
          "internalType": "bool",
          "name": "exists",
          "type": "bool"
        }
      ],
      "payable": false,
      "stateMutability": "view",
      "type": "function"
    },
    {
      "constant": false,
      "inputs": [
        {
          "internalType": "address",
          "name": "addressToRemove",
          "type": "address"
        }
      ],
      "name": "removeAuthorizedAddress",
      "outputs": [],
      "payable": false,
      "stateMutability": "nonpayable",
      "type": "function"
    },
    {
      "constant": false,
      "inputs": [
        {
          "internalType": "address",
          "name": "account",
          "type": "address"
        }
      ],
      "name": "removePauser",
      "outputs": [],
      "payable": false,
      "stateMutability": "nonpayable",
      "type": "function"
    },
    {
      "constant": false,
      "inputs": [
        {
          "internalType": "bytes32",
          "name": "settingName",
          "type": "bytes32"
        }
      ],
      "name": "removePlatformSetting",
      "outputs": [],
      "payable": false,
      "stateMutability": "nonpayable",
      "type": "function"
    },
    {
      "constant": false,
      "inputs": [],
      "name": "renouncePauser",
      "outputs": [],
      "payable": false,
      "stateMutability": "nonpayable",
      "type": "function"
    },
    {
      "constant": true,
      "inputs": [
        {
          "internalType": "address",
          "name": "account",
          "type": "address"
        }
      ],
      "name": "requireAuthorization",
      "outputs": [],
      "payable": false,
      "stateMutability": "view",
      "type": "function"
    },
    {
      "constant": true,
      "inputs": [
        {
          "internalType": "address",
          "name": "account",
          "type": "address"
        }
      ],
      "name": "requirePauserRole",
      "outputs": [],
      "payable": false,
      "stateMutability": "view",
      "type": "function"
    },
    {
      "constant": false,
      "inputs": [
        {
          "internalType": "bool",
          "name": "restriction",
          "type": "bool"
        }
      ],
      "name": "restrictPlatform",
      "outputs": [],
      "payable": false,
      "stateMutability": "nonpayable",
      "type": "function"
    },
    {
      "constant": true,
      "inputs": [],
      "name": "settings",
      "outputs": [
        {
          "internalType": "contract SettingsInterface",
          "name": "",
          "type": "address"
        }
      ],
      "payable": false,
      "stateMutability": "view",
      "type": "function"
    },
    {
      "constant": true,
      "inputs": [],
      "name": "strictDynamic",
      "outputs": [
        {
          "internalType": "bool",
          "name": "",
          "type": "bool"
        }
      ],
      "payable": false,
      "stateMutability": "view",
      "type": "function"
    },
    {
      "constant": false,
      "inputs": [],
      "name": "unpause",
      "outputs": [],
      "payable": false,
      "stateMutability": "nonpayable",
      "type": "function"
    },
    {
      "constant": false,
      "inputs": [
        {
          "internalType": "address",
          "name": "lendingPoolAddress",
          "type": "address"
        }
      ],
      "name": "unpauseLendingPool",
      "outputs": [],
      "payable": false,
      "stateMutability": "nonpayable",
      "type": "function"
    },
    {
      "constant": false,
      "inputs": [
        {
          "internalType": "bytes32",
          "name": "settingName",
          "type": "bytes32"
        },
        {
          "internalType": "uint256",
          "name": "newValue",
          "type": "uint256"
        }
      ],
      "name": "updatePlatformSetting",
      "outputs": [],
      "payable": false,
      "stateMutability": "nonpayable",
      "type": "function"
    },
    {
      "constant": false,
      "inputs": [
        {
          "internalType": "address",
          "name": "newImplementation",
          "type": "address"
        }
      ],
      "name": "upgradeProxyTo",
      "outputs": [],
      "payable": false,
      "stateMutability": "nonpayable",
      "type": "function"
    }
  ],
  "transactionHash": "0xf8034d595acbcec511d81cf1cd5b506f4fa695560235866131d9a08cedf7b8fc",
  "args": [],
  "solcInputHash": "3790d34ca1d72794863015ffe08f35de",
  "bytecode": "0x608060405234801561001057600080fd5b5061254c806100206000396000f3fe608060405234801561001057600080fd5b506004361061035d5760003560e01c806370712939116101d3578063c0c53b8b11610104578063e06174e4116100a2578063f09d223b1161007c578063f09d223b14610646578063f19e207e1461064e578063f4f0d97314610661578063fbedbe5c146106695761035d565b8063e06174e41461062e578063e154e9a414610636578063eb0febe71461063e5761035d565b8063d10a0aec116100de578063d10a0aec14610603578063d8756fea14610616578063dd54d2e41461061e578063de0ca166146106265761035d565b8063c0c53b8b146105c8578063ce199129146105db578063cfa8bb93146105fb5761035d565b80639dec88b911610171578063ad21879e1161014b578063ad21879e14610592578063b187bd26146105a5578063b3076d00146105ad578063c095ea27146105b55761035d565b80639dec88b914610564578063a734f06e14610577578063a832221e1461057f5761035d565b80638456cb59116101ad5780638456cb59146105445780638e0c06301461054c57806391c3ecde1461055457806393d748241461055c5761035d565b8063707129391461050b57806374b7b6a61461051e57806382dc1ec4146105315761035d565b806346fbf68e116102ad57806362f9ed771161024b5780636b2c0f55116102255780636b2c0f55146104d55780636c14b1e0146104e85780636eade577146104f05780636ef8d66d146105035761035d565b806362f9ed771461049c57806369ff7744146104af5780636a3a61cd146104c25761035d565b80635004d36c116102875780635004d36c1461047157806354409f2b1461047957806355dbd8eb146104815780635c975abb146104945761035d565b806346fbf68e1461044e5780634ab45d33146104615780634f8654bc146104695761035d565b806326c7bd931161031a5780633968efa4116102f45780633968efa41461040d5780633b668321146104205780633f4ba83a1461043357806342f1181e1461043b5761035d565b806326c7bd93146103ea5780632c26486d146103fd57806337c3eedc146104055761035d565b8063040141e51461036257806306ae7095146103805780631362fee7146103885780631be0ed37146103ab57806325b77330146103c05780632653f3d4146103d5575b600080fd5b61036a61067c565b6040516103779190611f38565b60405180910390f35b61036a61068b565b61039b610396366004611e49565b61069a565b6040516103779493929190612499565b6103be6103b9366004611cf8565b6106c4565b005b6103c86107e4565b6040516103779190611fad565b6103dd610832565b6040516103779190611fa2565b61036a6103f8366004611cf8565b610840565b6103c86108c7565b61036a6108cd565b6103be61041b366004611cf8565b6108dc565b6103dd61042e366004611cf8565b610b03565b6103be610b18565b6103be610449366004611cf8565b610ba3565b6103dd61045c366004611cf8565b610c2b565b61036a610c3e565b61036a610c4d565b61036a610c61565b6103c8610c70565b6103be61048f366004611cf8565b610cb4565b6103dd610d0a565b6103be6104aa366004611e49565b610d13565b6103dd6104bd366004611d7a565b610d98565b6103be6104d0366004611cf8565b610e22565b6103be6104e3366004611cf8565b610e5c565b6103c8610e8a565b6103be6104fe366004611da5565b610ecb565b6103be610f07565b6103be610519366004611cf8565b610f12565b6103dd61052c366004611e49565b610f82565b6103be61053f366004611cf8565b610f97565b6103be610fc5565b6103dd61104a565b61036a611058565b6103c861106d565b6103be610572366004611e82565b6110ac565b61036a61115a565b6103be61058d366004611e11565b611172565b6103dd6105a0366004611cf8565b6111e7565b6103dd611217565b61036a611220565b6103be6105c3366004611cf8565b61122f565b6103be6105d6366004611d30565b611267565b6105ee6105e9366004611e49565b6113c7565b6040516103779190612448565b6103c86113d8565b6103be610611366004611e61565b611418565b6103c86114a6565b6103c86114e7565b61036a611529565b61036a611538565b6103dd611547565b6103c8611550565b6103c861159e565b6103dd61065c366004611cf8565b6115ec565b6103c8611601565b6103be610677366004611cf8565b611646565b600f546001600160a01b031681565b6016546001600160a01b031681565b60136020526000908152604090208054600182015460028301546003909301549192909160ff1684565b6106cd33610c2b565b6106f25760405162461bcd60e51b81526004016106e99061211b565b60405180910390fd5b60195460ff16156107155760405162461bcd60e51b81526004016106e99061232c565b60408051808201909152601881527713115391125391d7d413d3d317d254d7d49154555254915160421b602082015261075e906001600160a01b0383169063ffffffff61175916565b6001600160a01b03811660009081526011602052604090205460ff16156107975760405162461bcd60e51b81526004016106e990612013565b6001600160a01b038116600081815260116020526040808220805460ff191660011790555133917fff7b62e2b5984471f0fb76a23e84a0d6f2e5c3e8818a929948190ce967a2fc2e91a350565b7f526571756573744c6f616e5465726d73526174654c696d69740000000000000060005260136020527ff2ce0850ef7b415aa0c61fcc806fef8ef90441da8ad2fe6888e8118f5bfefc165490565b601954610100900460ff1690565b6012546040516326c7bd9360e01b81526000916001600160a01b0316906326c7bd9390610871908590600401611f38565b60206040518083038186803b15801561088957600080fd5b505afa15801561089d573d6000803e3d6000fd5b505050506040513d601f19601f820116820180604052506108c19190810190611d14565b92915050565b60015481565b6000546001600160a01b031681565b60408051600481526024810182526020810180516001600160e01b031663a59a997360e01b1790529051600091606091339161091791611eb3565b600060405180830381855afa9150503d8060008114610952576040519150601f19603f3d011682016040523d82523d6000602084013e610957565b606091505b5091509150816109795760405162461bcd60e51b81526004016106e99061229e565b60008180602001905161098f9190810190611d14565b9050601660009054906101000a90046001600160a01b03166001600160a01b031663ecb96fe66040518163ffffffff1660e01b8152600401602060405180830381600087803b1580156109e157600080fd5b505af11580156109f5573d6000803e3d6000fd5b505050506040513d601f19601f82011682018060405250610a199190810190611d14565b6001600160a01b03166334f4fdaa82336040518363ffffffff1660e01b8152600401610a46929190611f4c565b60206040518083038186803b158015610a5e57600080fd5b505afa158015610a72573d6000803e3d6000fd5b505050506040513d601f19601f82011682018060405250610a969190810190611e2d565b610ab25760405162461bcd60e51b81526004016106e990611fe9565b6001600160a01b038416600081815260176020526040808220805460ff19166001179055513392917f7221372411f0405c58b7b48e3951c448bb594dad75f79bf6aefa69af430d606291a350505050565b60116020526000908152604090205460ff1681565b610b2133610c2b565b610b3d5760405162461bcd60e51b81526004016106e99061211b565b60195460ff16610b5f5760405162461bcd60e51b81526004016106e9906123b4565b6019805460ff191690556040517f5db9ee0a495bf2e6ff9c91a7834c1ba4fdd244a5e8aa4e537bd38aeae4b073aa90610b99903390611f38565b60405180910390a1565b610bac33610c2b565b80610bc157506014546001600160a01b031633145b610bdd5760405162461bcd60e51b81526004016106e990612301565b6001600160a01b038116600081815260176020526040808220805460ff19166001179055513392917f7221372411f0405c58b7b48e3951c448bb594dad75f79bf6aefa69af430d606291a350565b60006108c160188363ffffffff61178116565b6010546001600160a01b031681565b60025461010090046001600160a01b031681565b6015546001600160a01b031681565b7226b0bc34b6bab6a637b0b7223ab930ba34b7b760691b60005260136020527fa23ca0b3aa52e2b708034b79bdde4e0356bfcca377d7591bd2618c29e1e437ab5490565b6000546001600160a01b03163314610cde5760405162461bcd60e51b81526004016106e9906123e1565b600280546001600160a01b0390921661010002610100600160a81b031990921691909117905543600355565b60195460ff1681565b610d1c33610c2b565b610d385760405162461bcd60e51b81526004016106e99061211b565b6000818152601360205260409020805490610d52906117c9565b336001600160a01b0316827f441e6d4e0fa187867205bff50ab3fdf95c4612c241878b3f50d93a1256669dc983604051610d8c9190611fad565b60405180910390a35050565b601254604051631a7fddd160e21b81526000916001600160a01b0316906369ff774490610dcb9086908690600401611f89565b60206040518083038186803b158015610de357600080fd5b505afa158015610df7573d6000803e3d6000fd5b505050506040513d601f19601f82011682018060405250610e1b9190810190611e2d565b9392505050565b601954610100900460ff161580610e3d5750610e3d816111e7565b610e595760405162461bcd60e51b81526004016106e990612355565b50565b610e6533610c2b565b610e815760405162461bcd60e51b81526004016106e99061211b565b610e59816117f0565b6f21b7b63630ba32b930b6213ab33332b960811b60005260136020527fe0932e17a89847a9323d03544711bec9353792e2155162b02158a08f6ae4b2fd5490565b60005b81811015610f0257610efa838383818110610ee557fe5b90506020020160206104499190810190611cf8565b600101610ece565b505050565b610f10336117f0565b565b610f1b33610c2b565b610f375760405162461bcd60e51b81526004016106e99061211b565b6001600160a01b038116600081815260176020526040808220805460ff19169055513392917f203a04209f1ae06508132ac82e6ad3b28d9e9ba11f97cc9934b4d9e6a83dd24e91a350565b6000610f8d82611838565b6060015192915050565b610fa033610c2b565b610fbc5760405162461bcd60e51b81526004016106e99061211b565b610e598161188a565b610fce33610c2b565b610fea5760405162461bcd60e51b81526004016106e99061211b565b60195460ff161561100d5760405162461bcd60e51b81526004016106e99061232c565b6019805460ff191660011790556040517f62e78cea01bee320cd4e420270b5ea74000d11b0c9f74754ebdbfc544b05a25890610b99903390611f38565b601954610100900460ff1681565b6019546201000090046001600160a01b031681565b6d14d859995d1e525b9d195c9d985b60921b60005260136020527fc3138ee094aa673bf7f43988e8329432cb37bcfaab638a0ec15d9f4c7540e35c5490565b6110b533610c2b565b6110d15760405162461bcd60e51b81526004016106e99061211b565b836110ee5760405162461bcd60e51b81526004016106e990612411565b600084815260136020526040902061110e9084848463ffffffff6118d216565b336001600160a01b0316847f88608f5277d08a47d0b5c4911811b474510dfcb1e303b13120b4fdd013ee4feb85858560405161114c93929190612483565b60405180910390a350505050565b73eeeeeeeeeeeeeeeeeeeeeeeeeeeeeeeeeeeeeeee81565b61117b33610c2b565b6111975760405162461bcd60e51b81526004016106e99061211b565b6019805461ff0019166101008315150217905560405133907f9a8a686aa374e3c964e707566deb1d0ef1fda94567495b4767063063de913ff5906111dc908490611fa2565b60405180910390a250565b60006111f282610c2b565b806108c15750506001600160a01b031660009081526017602052604090205460ff1690565b60195460ff1690565b6012546001600160a01b031681565b61123881610c2b565b8061124b57506001600160a01b03811630145b610e595760405162461bcd60e51b81526004016106e99061211b565b611279826001600160a01b0316611941565b6112955760405162461bcd60e51b81526004016106e99061237d565b61129e3361188a565b6112a73061197d565b600f80546001600160a01b038086166001600160a01b03199283161790925560108054858416921691909117905560198054918316620100000262010000600160b01b03199092169190911790556040516113129061130590611eee565b60405180910390206119ed565b601280546001600160a01b0319166001600160a01b03929092169190911790556040516113429061130590611ecf565b601580546001600160a01b0319166001600160a01b03929092169190911790556040516113729061130590611f20565b601480546001600160a01b0319166001600160a01b03929092169190911790556040516113a29061130590611f07565b601680546001600160a01b0319166001600160a01b0392909216919091179055505050565b6113cf611cce565b6108c182611838565b6e5465726d7345787069727954696d6560881b60005260136020527fc36659ecb1eb789a9cfc316745ff118b5162a624455abb3c63cf41320eb085d55490565b61142133610c2b565b61143d5760405162461bcd60e51b81526004016106e99061211b565b600082815260136020526040812061145b908363ffffffff611b1516565b9050336001600160a01b0316837ff5d6988acb4a237a95feb459c3b5d7f95ad15acfe26d31cd4bf88b8b1ec792de8385604051611499929190612475565b60405180910390a3505050565b6f4d6178696d756d546f6c6572616e636560801b60005260136020527f40d4ebda9170e9cfbc917f7bd88948948d2377db8da248ba1a6e0ee848d18be45490565b704c6971756964617465457468507269636560781b60005260136020527f2eade9ebf0a54206bcada70ec442b9da57a6dfb656ff7f7397ea3b5065b046885490565b6014546001600160a01b031681565b6004546001600160a01b031681565b60025460ff1681565b7f52657175697265645375626d697373696f6e7350657263656e7461676500000060005260136020527f50e21af67b05883c83ec53ed0ea57e468f90fc6225799db050c536de9220b5a95490565b7f4f766572436f6c6c61746572616c697a6564427566666572000000000000000060005260136020527f49f6e3bb03ca947afd70affc68f1921c7569b73293bb63a66bde02bfe4d3a0855490565b60176020526000908152604090205460ff1681565b730a4cae6e0dedce6ca8af0e0d2e4f298cadccee8d60631b60005260136020527fbdf814d23d6dbab688adfce292c223a267c599a1f92ee52a18f898e9d62198875490565b61164f33610c2b565b61166b5760405162461bcd60e51b81526004016106e99061211b565b60195460ff161561168e5760405162461bcd60e51b81526004016106e99061232c565b60408051808201909152601881527713115391125391d7d413d3d317d254d7d49154555254915160421b60208201526116d7906001600160a01b0383169063ffffffff61175916565b6001600160a01b03811660009081526011602052604090205460ff1661170f5760405162461bcd60e51b81526004016106e990612267565b6001600160a01b038116600081815260116020526040808220805460ff191690555133917fc55a972437581d7d7bfd8729cdde06ee7e788e1a407b4cfdc6a0330d04b391f191a350565b61176282611b91565b8190610f025760405162461bcd60e51b81526004016106e99190611fb6565b60006001600160a01b0382166117a95760405162461bcd60e51b81526004016106e990612225565b506001600160a01b03166000908152602091909152604090205460ff1690565b6117d281611b9f565b6000808255600182018190556002820155600301805460ff19169055565b61180160188263ffffffff611bc316565b6040516001600160a01b038216907fcd265ebaf09df2871cc7bd4133404a235ba12eff2041bb89d9c714a2621c7c7e90600090a250565b611840611cce565b5060009081526013602090815260409182902082516080810184528154815260018201549281019290925260028101549282019290925260039091015460ff161515606082015290565b61189b60188263ffffffff611c0b16565b6040516001600160a01b038216907f6719d08c1888103bea251a4ed56406bd0c3e69723c8a1686e017e7bbe159b6f890600090a250565b6118db84611c57565b818310156118fb5760405162461bcd60e51b81526004016106e990612176565b8083111561191b5760405162461bcd60e51b81526004016106e9906121ee565b91835560018084019190915560028301919091556003909101805460ff19169091179055565b6000813f7fc5d2460186f7233c927e7db2dcc703c0e500b653ca82273b7bfad8045d85a47081811480159061197557508115155b949350505050565b60408051808201909152601981527f53455454494e47535f4d5553545f42455f50524f56494445440000000000000060208201526119cb906001600160a01b0383169063ffffffff61175916565b600480546001600160a01b0319166001600160a01b0392909216919091179055565b601954600090611a0b906201000090046001600160a01b0316611c7c565b600080546040516307397e5b60e51b81529293506001600160a01b038085169363e72fcb6093611a4393909216918791600401611f66565b600060405180830381600087803b158015611a5d57600080fd5b505af1158015611a71573d6000803e3d6000fd5b505060408051600481526024810182526020810180516001600160e01b031663204a7f0760e21b1790529051600093506001600160a01b0385169250611ab79190611eb3565b6000604051808303816000865af19150503d8060008114611af4576040519150601f19603f3d011682016040523d82523d6000602084013e611af9565b606091505b5050905080611b0f576040513d806000833e8082fd5b50919050565b6000611b2083611b9f565b8254821415611b415760405162461bcd60e51b81526004016106e9906120ef565b8260010154821015611b655760405162461bcd60e51b81526004016106e9906120b8565b8260020154821115611b895760405162461bcd60e51b81526004016106e99061213f565b508154915590565b6001600160a01b0316151590565b600381015460ff16610e595760405162461bcd60e51b81526004016106e9906122ca565b611bcd8282611781565b611be95760405162461bcd60e51b81526004016106e9906121ad565b6001600160a01b0316600090815260209190915260409020805460ff19169055565b611c158282611781565b15611c325760405162461bcd60e51b81526004016106e99061204a565b6001600160a01b0316600090815260209190915260409020805460ff19166001179055565b600381015460ff1615610e595760405162461bcd60e51b81526004016106e990612081565b6000808260601b9050604051733d602d80600a3d3981f3363d3d373d3d3d363d7360601b81528160148201526e5af43d82803e903d91602b57fd5bf360881b60288201526037816000f0949350505050565b60405180608001604052806000815260200160008152602001600081526020016000151581525090565b600060208284031215611d09578081fd5b8135610e1b816124e6565b600060208284031215611d25578081fd5b8151610e1b816124e6565b600080600060608486031215611d44578182fd5b8335611d4f816124e6565b92506020840135611d5f816124e6565b91506040840135611d6f816124e6565b809150509250925092565b60008060408385031215611d8c578182fd5b8235611d97816124e6565b946020939093013593505050565b60008060208385031215611db7578182fd5b823567ffffffffffffffff80821115611dce578384fd5b81850186601f820112611ddf578485fd5b8035925081831115611def578485fd5b8660208085028301011115611e02578485fd5b60200196919550909350505050565b600060208284031215611e22578081fd5b8135610e1b816124fb565b600060208284031215611e3e578081fd5b8151610e1b816124fb565b600060208284031215611e5a578081fd5b5035919050565b60008060408385031215611e73578182fd5b50508035926020909101359150565b60008060008060808587031215611e97578081fd5b5050823594602084013594506040840135936060013592509050565b60008251611ec58184602087016124b6565b9190910192915050565b7221b430b4b73634b735a0b3b3b932b3b0ba37b960691b815260130190565b6c417373657453657474696e677360981b8152600d0190565b6c4d61726b6574466163746f727960981b8152600d0190565b6b44617070526567697374727960a01b8152600c0190565b6001600160a01b0391909116815260200190565b6001600160a01b0392831681529116602082015260400190565b6001600160a01b0393909316835260208301919091521515604082015260600190565b6001600160a01b03929092168252602082015260400190565b901515815260200190565b90815260200190565b6000602082528251806020840152611fd58160408501602087016124b6565b601f01601f19169190910160400192915050565b60208082526010908201526f43414c4c45525f4e4f545f4c4f414e5360801b604082015260600190565b6020808252601b908201527f4c454e44494e475f504f4f4c5f414c52454144595f5041555345440000000000604082015260600190565b6020808252601f908201527f526f6c65733a206163636f756e7420616c72656164792068617320726f6c6500604082015260600190565b6020808252601f908201527f504c4154464f524d5f53455454494e475f414c52454144595f45584953545300604082015260600190565b6020808252601f908201527f4e45575f56414c55455f4d5553545f42455f4754455f4d494e5f56414c554500604082015260600190565b602080825260129082015271139155d7d59053155157d49154555254915160721b604082015260600190565b6020808252600a90820152692727aa2fa820aaa9a2a960b11b604082015260600190565b6020808252601f908201527f4e45575f56414c55455f4d5553545f42455f4c54455f4d41585f56414c554500604082015260600190565b6020808252601b908201527f56414c55455f4d5553545f42455f4754455f4d494e5f56414c55450000000000604082015260600190565b60208082526021908201527f526f6c65733a206163636f756e7420646f6573206e6f74206861766520726f6c6040820152606560f81b606082015260800190565b6020808252601b908201527f56414c55455f4d5553545f42455f4c54455f4d41585f56414c55450000000000604082015260600190565b60208082526022908201527f526f6c65733a206163636f756e7420697320746865207a65726f206164647265604082015261737360f01b606082015260800190565b6020808252601a908201527f4c454e44494e475f504f4f4c5f49535f4e4f545f504155534544000000000000604082015260600190565b60208082526012908201527104641494c45445f4645544348494e475f4c560741b604082015260600190565b6020808252601b908201527f504c4154464f524d5f53455454494e475f4e4f545f4558495354530000000000604082015260600190565b60208082526011908201527021a0a62622a92fa727aa2fa820aaa9a2a960791b604082015260600190565b6020808252600f908201526e141310551193d49357d4105554d151608a1b604082015260600190565b6020808252600e908201526d1393d517d055551213d49256915160921b604082015260600190565b6020808252601d908201527f434554485f414444524553535f4d5553545f42455f434f4e5452414354000000604082015260600190565b602080825260139082015272141310551193d49357d393d517d4105554d151606a1b604082015260600190565b6020808252601690820152754d5553545f42455f4c4f4749435f524547495354525960501b604082015260600190565b6020808252601d908201527f53455454494e475f4e414d455f4d5553545f42455f50524f5649444544000000604082015260600190565b81518152602080830151908201526040808301519082015260609182015115159181019190915260800190565b918252602082015260400190565b9283526020830191909152604082015260600190565b938452602084019290925260408301521515606082015260800190565b60005b838110156124d15781810151838201526020016124b9565b838111156124e0576000848401525b50505050565b6001600160a01b0381168114610e5957600080fd5b8015158114610e5957600080fdfea365627a7a72315820915f93b5c4ea6fc74acc8c560f8a5514760440fbe617c3bec9886737c9b11e9c6c6578706572696d656e74616cf564736f6c63430005110040",
  "devdoc": {
    "author": "develop@teller.finance",
    "details": "The platform settings functions (create, update, and remove) don't include the whenNotPaused() modifier because we might need to use them in both cases (when the platform is paused and not paused). Example: - There is a potential issue and before analyzing it, we pause the platform to avoid funds losses. Finally, as result of the analysis, we decided to update a platform setting (or create a new one for the cloud nodes). In this scenario, if the modifier is present, we couldn't update the setting (because the platform is paused).",
    "methods": {
      "addAuthorizedAddress(address)": {
        "params": {
          "addressToAdd": "The wallet address of the user being authorized"
        }
      },
      "addAuthorizedAddressList(address[])": {
        "params": {
          "addressesToAdd": "The list of wallet addresses being authorized"
        }
      },
      "createPlatformSetting(bytes32,uint256,uint256,uint256)": {
        "params": {
          "maxValue": "the max value for the setting.",
          "minValue": "the min value for the setting.",
          "settingName": "setting name to create.",
          "value": "the initial value for the given setting name."
        }
      },
      "exceedsMaxLoanAmount(address,uint256)": {
        "params": {
          "amount": "amount to test.",
          "assetAddress": "asset address to test the setting."
        },
        "return": "true if amount exceeds current max loan amout. Otherwise it returns false."
      },
      "getCTokenAddress(address)": {
        "params": {
          "assetAddress": "token address."
        },
        "return": "the cToken address for a given asset address."
      },
      "getCollateralBufferValue()": {
        "return": "the current value."
      },
      "getLiquidateEthPriceValue()": {
        "return": "the current value."
      },
      "getMaximumLoanDurationValue()": {
        "return": "the current value."
      },
      "getMaximumToleranceValue()": {
        "return": "the current value."
      },
      "getOverCollateralizedBufferValue()": {
        "return": "the current value."
      },
      "getRequestLoanTermsRateLimitValue()": {
        "return": "the current value."
      },
      "getRequiredSubmissionsPercentageValue()": {
        "return": "the current value."
      },
      "getResponseExpiryLengthValue()": {
        "return": "the current value."
      },
      "getSafetyIntervalValue()": {
        "return": "the current value."
      },
      "getTermsExpiryTimeValue()": {
        "return": "the current value."
      },
      "hasAuthorization(address)": {
        "params": {
          "account": "The account address to check for"
        },
        "return": "True if account has authorization, false if it does not"
      },
      "hasPlatformSetting(bytes32)": {
        "params": {
          "settingName": "setting name to test."
        },
        "return": "true if the setting is already configured. Otherwise it returns false."
      },
      "initialize(address,address,address)": {
        "params": {
          "cethTokenAddress": "compound CETH token address.",
          "initDynamicProxyAddress": "Address of a deployed InitializeableDynamicProxy contract.",
          "wethTokenAddress": "canonical WETH token address."
        }
      },
      "isPaused()": {
        "return": "true if platform is paused. Otherwise it returns false."
      },
      "isPlatformRestricted()": {
        "return": "bool True if the platform is restricted, false if not"
      },
      "pause()": {
        "details": "Called by a pauser to pause, triggers stopped state."
      },
      "pauseLendingPool(address)": {
        "params": {
          "lendingPoolAddress": "lending pool address to pause."
        }
      },
      "removeAuthorizedAddress(address)": {
        "params": {
          "addressToRemove": "The wallet address of the user being unauthorized"
        }
      },
      "removePlatformSetting(bytes32)": {
        "params": {
          "settingName": "to remove."
        }
      },
      "requireAuthorization(address)": {
        "details": "Checks if an account address has authorization or proxy contract is registered.",
        "params": {
          "account": "account to test."
        }
      },
      "requirePauserRole(address)": {
        "params": {
          "account": "account to test."
        }
      },
      "restrictPlatform(bool)": {
        "params": {
          "restriction": "Bool turning the resitriction on or off"
        }
      },
      "unpause()": {
        "details": "Called by a pauser to unpause, returns to normal state."
      },
      "unpauseLendingPool(address)": {
        "params": {
          "lendingPoolAddress": "lending pool address to unpause."
        }
      },
      "updatePlatformSetting(bytes32,uint256)": {
        "params": {
          "newValue": "the new value to set.",
          "settingName": "setting name to update."
        }
      }
    }
  },
  "userdoc": {
    "methods": {
      "addAuthorizedAddress(address)": {
        "notice": "Adds a wallet address to the list of authorized wallets"
      },
      "addAuthorizedAddressList(address[])": {
        "notice": "Adds a list of wallet addresses to the list of authorized wallets"
      },
      "createPlatformSetting(bytes32,uint256,uint256,uint256)": {
        "notice": "It creates a new platform setting given a setting name, value, min and max values."
      },
      "exceedsMaxLoanAmount(address,uint256)": {
        "notice": "Tests whether amount exceeds the current maximum loan amount for a specific asset settings."
      },
      "getCTokenAddress(address)": {
        "notice": "Gets the cToken address for a given asset address."
      },
      "getCollateralBufferValue()": {
        "notice": "It gets the current \"CollateralBuffer\" setting's value"
      },
      "getLiquidateEthPriceValue()": {
        "notice": "It gets the current \"LiquidateEthPrice\" setting's value"
      },
      "getMaximumLoanDurationValue()": {
        "notice": "It gets the current \"MaximumLoanDuration\" setting's value"
      },
      "getMaximumToleranceValue()": {
        "notice": "It gets the current \"MaximumTolerance\" setting's value"
      },
      "getOverCollateralizedBufferValue()": {
        "notice": "It gets the current \"OverCollateralizedBuffer\" setting's value"
      },
      "getRequestLoanTermsRateLimitValue()": {
        "notice": "It gets the current \"RequestLoanTermsRateLimit\" setting's value"
      },
      "getRequiredSubmissionsPercentageValue()": {
        "notice": "It gets the current \"RequiredSubmissionsPercentage\" setting's value"
      },
      "getResponseExpiryLengthValue()": {
        "notice": "It gets the current \"ResponseExpiryLength\" setting's value"
      },
      "getSafetyIntervalValue()": {
        "notice": "It gets the current \"SafetyInterval\" setting's value"
      },
      "getTermsExpiryTimeValue()": {
        "notice": "It gets the current \"TermsExpiryTime\" setting's value"
      },
      "hasAuthorization(address)": {
        "notice": "Tests whether an account has authorization"
      },
      "hasPlatformSetting(bytes32)": {
        "notice": "It tests whether a setting name is already configured."
      },
      "initialize(address,address,address)": {
        "notice": "It initializes this settings contract instance."
      },
      "isPaused()": {
        "notice": "It gets whether the platform is paused or not."
      },
      "isPlatformRestricted()": {
        "notice": "Returns whether the platform is restricted or not"
      },
      "pauseLendingPool(address)": {
        "notice": "It pauses a specific lending pool."
      },
      "removeAuthorizedAddress(address)": {
        "notice": "Removes a wallet address from the list of authorized wallets"
      },
      "removePlatformSetting(bytes32)": {
        "notice": "Removes a current platform setting given a setting name."
      },
      "requireAuthorization(address)": {
        "notice": "Requires an account to have platform authorization."
      },
      "requirePauserRole(address)": {
        "notice": "Requires an account to have the pauser role."
      },
      "restrictPlatform(bool)": {
        "notice": "Restricts the use of the Teller protocol to authorized wallet addresses only"
      },
      "unpauseLendingPool(address)": {
        "notice": "It unpauses a specific lending pool."
      },
      "updatePlatformSetting(bytes32,uint256)": {
        "notice": "It updates an existent platform setting given a setting name.It only allows to update the value (not the min or max values).In case you need to update the min or max values, you need to remove it, and create it again."
      }
    },
    "notice": "This contract manages the configuration of the platform."
  },
  "storageLayout": {
    "storage": [
      {
        "astId": 11226,
        "contract": "contracts/base/settings/Settings.sol:Settings",
        "label": "logicRegistry",
        "offset": 0,
        "slot": "0",
        "type": "t_contract(LogicVersionsRegistryInterface)11867"
      },
      {
        "astId": 11228,
        "contract": "contracts/base/settings/Settings.sol:Settings",
        "label": "logicName",
        "offset": 0,
        "slot": "1",
        "type": "t_bytes32"
      },
      {
        "astId": 11230,
        "contract": "contracts/base/settings/Settings.sol:Settings",
        "label": "strictDynamic",
        "offset": 0,
        "slot": "2",
        "type": "t_bool"
      },
      {
        "astId": 11232,
        "contract": "contracts/base/settings/Settings.sol:Settings",
        "label": "implementationStored",
        "offset": 1,
        "slot": "2",
        "type": "t_address"
      },
      {
        "astId": 11234,
        "contract": "contracts/base/settings/Settings.sol:Settings",
        "label": "_implementationBlockUpdated",
        "offset": 0,
        "slot": "3",
        "type": "t_uint256"
      },
      {
        "astId": 1762,
        "contract": "contracts/base/settings/Settings.sol:Settings",
        "label": "settings",
        "offset": 0,
        "slot": "4",
        "type": "t_contract(SettingsInterface)12172"
      },
      {
        "astId": 1766,
        "contract": "contracts/base/settings/Settings.sol:Settings",
        "label": "__gap",
        "offset": 0,
        "slot": "5",
        "type": "t_array(t_uint256)10_storage"
      },
      {
        "astId": 10219,
        "contract": "contracts/base/settings/Settings.sol:Settings",
        "label": "WETH_ADDRESS",
        "offset": 0,
        "slot": "15",
        "type": "t_address"
      },
      {
        "astId": 10221,
        "contract": "contracts/base/settings/Settings.sol:Settings",
        "label": "CETH_ADDRESS",
        "offset": 0,
        "slot": "16",
        "type": "t_address"
      },
      {
        "astId": 10255,
        "contract": "contracts/base/settings/Settings.sol:Settings",
        "label": "lendingPoolPaused",
        "offset": 0,
        "slot": "17",
        "type": "t_mapping(t_address,t_bool)"
      },
      {
        "astId": 10257,
        "contract": "contracts/base/settings/Settings.sol:Settings",
        "label": "assetSettings",
        "offset": 0,
        "slot": "18",
        "type": "t_contract(AssetSettingsInterface)11401"
      },
      {
        "astId": 10261,
        "contract": "contracts/base/settings/Settings.sol:Settings",
        "label": "platformSettings",
        "offset": 0,
        "slot": "19",
        "type": "t_mapping(t_bytes32,t_struct(PlatformSetting)15642_storage)"
      },
      {
        "astId": 10263,
        "contract": "contracts/base/settings/Settings.sol:Settings",
        "label": "dappRegistry",
        "offset": 0,
        "slot": "20",
        "type": "t_contract(IDappRegistry)11481"
      },
      {
        "astId": 10265,
        "contract": "contracts/base/settings/Settings.sol:Settings",
        "label": "chainlinkAggregator",
        "offset": 0,
        "slot": "21",
        "type": "t_contract(IChainlinkAggregator)13707"
      },
      {
        "astId": 10267,
        "contract": "contracts/base/settings/Settings.sol:Settings",
        "label": "marketFactory",
        "offset": 0,
        "slot": "22",
        "type": "t_contract(IMarketFactory)11536"
      },
      {
        "astId": 10271,
        "contract": "contracts/base/settings/Settings.sol:Settings",
        "label": "authorizedAddresses",
        "offset": 0,
        "slot": "23",
        "type": "t_mapping(t_address,t_bool)"
      },
      {
        "astId": 10273,
        "contract": "contracts/base/settings/Settings.sol:Settings",
        "label": "_pausers",
        "offset": 0,
        "slot": "24",
        "type": "t_struct(Role)223_storage"
      },
      {
        "astId": 10275,
        "contract": "contracts/base/settings/Settings.sol:Settings",
        "label": "paused",
        "offset": 0,
        "slot": "25",
        "type": "t_bool"
      },
      {
        "astId": 10277,
        "contract": "contracts/base/settings/Settings.sol:Settings",
        "label": "platformRestricted",
        "offset": 1,
        "slot": "25",
        "type": "t_bool"
      },
      {
        "astId": 10279,
        "contract": "contracts/base/settings/Settings.sol:Settings",
        "label": "initDynamicProxyLogic",
        "offset": 2,
        "slot": "25",
        "type": "t_address"
      }
    ],
    "types": {
      "t_address": {
        "encoding": "inplace",
        "label": "address",
        "numberOfBytes": "20"
      },
      "t_array(t_uint256)10_storage": {
        "base": "t_uint256",
        "encoding": "inplace",
        "label": "uint256[10]",
        "numberOfBytes": "320"
      },
      "t_bool": {
        "encoding": "inplace",
        "label": "bool",
        "numberOfBytes": "1"
      },
      "t_bytes32": {
        "encoding": "inplace",
        "label": "bytes32",
        "numberOfBytes": "32"
      },
      "t_contract(AssetSettingsInterface)11401": {
        "encoding": "inplace",
        "label": "contract AssetSettingsInterface",
        "numberOfBytes": "20"
      },
      "t_contract(IChainlinkAggregator)13707": {
        "encoding": "inplace",
        "label": "contract IChainlinkAggregator",
        "numberOfBytes": "20"
      },
      "t_contract(IDappRegistry)11481": {
        "encoding": "inplace",
        "label": "contract IDappRegistry",
        "numberOfBytes": "20"
      },
      "t_contract(IMarketFactory)11536": {
        "encoding": "inplace",
        "label": "contract IMarketFactory",
        "numberOfBytes": "20"
      },
      "t_contract(LogicVersionsRegistryInterface)11867": {
        "encoding": "inplace",
        "label": "contract LogicVersionsRegistryInterface",
        "numberOfBytes": "20"
      },
      "t_contract(SettingsInterface)12172": {
        "encoding": "inplace",
        "label": "contract SettingsInterface",
        "numberOfBytes": "20"
      },
      "t_mapping(t_address,t_bool)": {
        "encoding": "mapping",
        "key": "t_address",
        "label": "mapping(address => bool)",
        "numberOfBytes": "32",
        "value": "t_bool"
      },
      "t_mapping(t_bytes32,t_struct(PlatformSetting)15642_storage)": {
        "encoding": "mapping",
        "key": "t_bytes32",
        "label": "mapping(bytes32 => struct PlatformSettingsLib.PlatformSetting)",
        "numberOfBytes": "32",
        "value": "t_struct(PlatformSetting)15642_storage"
      },
      "t_struct(PlatformSetting)15642_storage": {
        "encoding": "inplace",
        "label": "struct PlatformSettingsLib.PlatformSetting",
        "members": [
          {
            "astId": 15635,
            "contract": "contracts/base/settings/Settings.sol:Settings",
            "label": "value",
            "offset": 0,
            "slot": "0",
            "type": "t_uint256"
          },
          {
            "astId": 15637,
            "contract": "contracts/base/settings/Settings.sol:Settings",
            "label": "min",
            "offset": 0,
            "slot": "1",
            "type": "t_uint256"
          },
          {
            "astId": 15639,
            "contract": "contracts/base/settings/Settings.sol:Settings",
            "label": "max",
            "offset": 0,
            "slot": "2",
            "type": "t_uint256"
          },
          {
            "astId": 15641,
            "contract": "contracts/base/settings/Settings.sol:Settings",
            "label": "exists",
            "offset": 0,
            "slot": "3",
            "type": "t_bool"
          }
        ],
        "numberOfBytes": "128"
      },
      "t_struct(Role)223_storage": {
        "encoding": "inplace",
        "label": "struct Roles.Role",
        "members": [
          {
            "astId": 222,
            "contract": "contracts/base/settings/Settings.sol:Settings",
            "label": "bearer",
            "offset": 0,
            "slot": "0",
            "type": "t_mapping(t_address,t_bool)"
          }
        ],
        "numberOfBytes": "32"
      },
      "t_uint256": {
        "encoding": "inplace",
        "label": "uint256",
        "numberOfBytes": "32"
      }
    }
  }
}