{
  "address": "0xeBAfb310A59Ab9413529708b1fF1de84Fc787F04",
  "abi": [
    {
      "inputs": [
        {
          "internalType": "address",
          "name": "asset",
          "type": "address"
        },
        {
          "internalType": "address",
          "name": "account",
          "type": "address"
        }
      ],
      "name": "addSigner",
      "outputs": [],
      "stateMutability": "nonpayable",
      "type": "function"
    },
    {
      "inputs": [
        {
          "internalType": "address",
          "name": "asset",
          "type": "address"
        },
        {
          "internalType": "address[]",
          "name": "accounts",
          "type": "address[]"
        }
      ],
      "name": "addSigners",
      "outputs": [],
      "stateMutability": "nonpayable",
      "type": "function"
    },
    {
      "inputs": [
        {
          "internalType": "address",
          "name": "asset",
          "type": "address"
        },
        {
          "internalType": "address",
          "name": "account",
          "type": "address"
        }
      ],
      "name": "isSigner",
      "outputs": [
        {
          "internalType": "bool",
          "name": "isSigner_",
          "type": "bool"
        }
      ],
      "stateMutability": "view",
      "type": "function"
    }
  ],
  "transactionHash": "0x5b984c36e387df91c064284547339e7f4887a1ca49c668dc6d4f3276b5ba8ed7",
  "args": [],
  "solcInputHash": "68d48f71bec0b49e50af9b5c8246eeb7",
  "bytecode": "0x608060405234801561001057600080fd5b5061036d806100206000396000f3fe608060405234801561001057600080fd5b50600436106100415760003560e01c80632239f5561461004657806346efd16c1461005b57806378b248e41461006e575b600080fd5b61005961005436600461025d565b610095565b005b61005961006936600461028f565b6100a3565b61008161007c36600461025d565b610104565b604051901515815260200160405180910390f35b61009f828261014c565b5050565b60005b818110156100fe576100ec848484848181106100d257634e487b7160e01b600052603260045260246000fd5b90506020020160208101906100e79190610243565b61014c565b806100f681610310565b9150506100a6565b50505050565b6001600160a01b03821660009081527f0553069f1f0518e59f8623c18c83a1f987f2a0544d563e98dd803a7078142a8f6020526040812061014590836101a0565b9392505050565b6101568282610104565b61009f576001600160a01b03821660009081527f0553069f1f0518e59f8623c18c83a1f987f2a0544d563e98dd803a7078142a8f6020526040902061019b90826101c8565b505050565b6001600160a01b03811660009081526001830160205260408120541515610145565b92915050565b6000610145836001600160a01b038416600081815260018301602052604081205461021f575081546001818101845560008481526020808220909301849055845484825282860190935260409020919091556101c2565b5060006101c2565b80356001600160a01b038116811461023e57600080fd5b919050565b600060208284031215610254578081fd5b61014582610227565b6000806040838503121561026f578081fd5b61027883610227565b915061028660208401610227565b90509250929050565b6000806000604084860312156102a3578081fd5b6102ac84610227565b9250602084013567ffffffffffffffff808211156102c8578283fd5b818601915086601f8301126102db578283fd5b8135818111156102e9578384fd5b8760208260051b85010111156102fd578384fd5b6020830194508093505050509250925092565b600060001982141561033057634e487b7160e01b81526011600452602481fd5b506001019056fea2646970667358221220c074c60bdec0ce27fee07ec2ec213986cbf9f1ea31f88e0e07b8ec1a949f17ef64736f6c63430008030033",
  "devdoc": {
    "kind": "dev",
    "methods": {
      "addSigner(address,address)": {
        "details": "The sender must be the owner.It throws a require error if the sender is not the owner.",
        "params": {
          "account": "address to add.",
          "asset": "Token address to add signers for."
        }
      },
      "addSigners(address,address[])": {
        "details": "The sender must be the owner.It throws a require error if the sender is not the owner.",
        "params": {
          "accounts": "addresses to add.",
          "asset": "Token address to add signers for."
        }
      }
    },
    "version": 1
  },
  "userdoc": {
    "kind": "user",
    "methods": {
      "addSigner(address,address)": {
        "notice": "It adds a new account as a signer."
      },
      "addSigners(address,address[])": {
        "notice": "It adds a list of account as signers."
      }
    },
    "version": 1
  },
  "storageLayout": {
    "storage": [],
    "types": null
  }
}