{
  "address": "0x1E688028319B5D82B5D6270DB16cF7B7B7661e80",
  "abi": [
    {
      "anonymous": false,
      "inputs": [
        {
          "indexed": true,
          "internalType": "address",
          "name": "owner",
          "type": "address"
        },
        {
          "indexed": true,
          "internalType": "address",
          "name": "approved",
          "type": "address"
        },
        {
          "indexed": true,
          "internalType": "uint256",
          "name": "tokenId",
          "type": "uint256"
        }
      ],
      "name": "Approval",
      "type": "event"
    },
    {
      "anonymous": false,
      "inputs": [
        {
          "indexed": true,
          "internalType": "address",
          "name": "owner",
          "type": "address"
        },
        {
          "indexed": true,
          "internalType": "address",
          "name": "operator",
          "type": "address"
        },
        {
          "indexed": false,
          "internalType": "bool",
          "name": "approved",
          "type": "bool"
        }
      ],
      "name": "ApprovalForAll",
      "type": "event"
    },
    {
      "anonymous": false,
      "inputs": [
        {
          "indexed": true,
          "internalType": "bytes32",
          "name": "role",
          "type": "bytes32"
        },
        {
          "indexed": true,
          "internalType": "bytes32",
          "name": "previousAdminRole",
          "type": "bytes32"
        },
        {
          "indexed": true,
          "internalType": "bytes32",
          "name": "newAdminRole",
          "type": "bytes32"
        }
      ],
      "name": "RoleAdminChanged",
      "type": "event"
    },
    {
      "anonymous": false,
      "inputs": [
        {
          "indexed": true,
          "internalType": "bytes32",
          "name": "role",
          "type": "bytes32"
        },
        {
          "indexed": true,
          "internalType": "address",
          "name": "account",
          "type": "address"
        },
        {
          "indexed": true,
          "internalType": "address",
          "name": "sender",
          "type": "address"
        }
      ],
      "name": "RoleGranted",
      "type": "event"
    },
    {
      "anonymous": false,
      "inputs": [
        {
          "indexed": true,
          "internalType": "bytes32",
          "name": "role",
          "type": "bytes32"
        },
        {
          "indexed": true,
          "internalType": "address",
          "name": "account",
          "type": "address"
        },
        {
          "indexed": true,
          "internalType": "address",
          "name": "sender",
          "type": "address"
        }
      ],
      "name": "RoleRevoked",
      "type": "event"
    },
    {
      "anonymous": false,
      "inputs": [
        {
          "indexed": true,
          "internalType": "address",
          "name": "from",
          "type": "address"
        },
        {
          "indexed": true,
          "internalType": "address",
          "name": "to",
          "type": "address"
        },
        {
          "indexed": true,
          "internalType": "uint256",
          "name": "tokenId",
          "type": "uint256"
        }
      ],
      "name": "Transfer",
      "type": "event"
    },
    {
      "inputs": [],
      "name": "DEFAULT_ADMIN_ROLE",
      "outputs": [
        {
          "internalType": "bytes32",
          "name": "",
          "type": "bytes32"
        }
      ],
      "stateMutability": "view",
      "type": "function"
    },
    {
      "inputs": [],
      "name": "MINTER_ROLE",
      "outputs": [
        {
          "internalType": "bytes32",
          "name": "",
          "type": "bytes32"
        }
      ],
      "stateMutability": "view",
      "type": "function"
    },
    {
      "inputs": [
        {
          "internalType": "address",
          "name": "minter",
          "type": "address"
        }
      ],
      "name": "addMinter",
      "outputs": [],
      "stateMutability": "nonpayable",
      "type": "function"
    },
    {
      "inputs": [
        {
          "components": [
            {
              "internalType": "uint256",
              "name": "baseLoanSize",
              "type": "uint256"
            },
            {
              "internalType": "string[]",
              "name": "hashes",
              "type": "string[]"
            },
            {
              "internalType": "address",
              "name": "contributionAsset",
              "type": "address"
            },
            {
              "internalType": "uint256",
              "name": "contributionSize",
              "type": "uint256"
            },
            {
              "internalType": "uint8",
              "name": "contributionMultiplier",
              "type": "uint8"
            }
          ],
          "internalType": "struct ITellerNFT.Tier",
          "name": "newTier",
          "type": "tuple"
        }
      ],
      "name": "addTier",
      "outputs": [],
      "stateMutability": "nonpayable",
      "type": "function"
    },
    {
      "inputs": [
        {
          "internalType": "address",
          "name": "to",
          "type": "address"
        },
        {
          "internalType": "uint256",
          "name": "tokenId",
          "type": "uint256"
        }
      ],
      "name": "approve",
      "outputs": [],
      "stateMutability": "nonpayable",
      "type": "function"
    },
    {
      "inputs": [
        {
          "internalType": "address",
          "name": "owner",
          "type": "address"
        }
      ],
      "name": "balanceOf",
      "outputs": [
        {
          "internalType": "uint256",
          "name": "",
          "type": "uint256"
        }
      ],
      "stateMutability": "view",
      "type": "function"
    },
    {
      "inputs": [
        {
          "internalType": "uint256",
          "name": "tokenId",
          "type": "uint256"
        }
      ],
      "name": "getApproved",
      "outputs": [
        {
          "internalType": "address",
          "name": "",
          "type": "address"
        }
      ],
      "stateMutability": "view",
      "type": "function"
    },
    {
      "inputs": [
        {
          "internalType": "bytes32",
          "name": "role",
          "type": "bytes32"
        }
      ],
      "name": "getRoleAdmin",
      "outputs": [
        {
          "internalType": "bytes32",
          "name": "",
          "type": "bytes32"
        }
      ],
      "stateMutability": "view",
      "type": "function"
    },
    {
      "inputs": [
        {
          "internalType": "uint256",
          "name": "tierIndex",
          "type": "uint256"
        }
      ],
      "name": "getTierHashes",
      "outputs": [
        {
          "internalType": "string[]",
          "name": "",
          "type": "string[]"
        }
      ],
      "stateMutability": "view",
      "type": "function"
    },
    {
      "inputs": [
        {
          "internalType": "bytes32",
          "name": "role",
          "type": "bytes32"
        },
        {
          "internalType": "address",
          "name": "account",
          "type": "address"
        }
      ],
      "name": "grantRole",
      "outputs": [],
      "stateMutability": "nonpayable",
      "type": "function"
    },
    {
      "inputs": [
        {
          "internalType": "bytes32",
          "name": "role",
          "type": "bytes32"
        },
        {
          "internalType": "address",
          "name": "account",
          "type": "address"
        }
      ],
      "name": "hasRole",
      "outputs": [
        {
          "internalType": "bool",
          "name": "",
          "type": "bool"
        }
      ],
      "stateMutability": "view",
      "type": "function"
    },
    {
      "inputs": [
        {
          "internalType": "address[]",
          "name": "minters",
          "type": "address[]"
        }
      ],
      "name": "initialize",
      "outputs": [],
      "stateMutability": "nonpayable",
      "type": "function"
    },
    {
      "inputs": [
        {
          "internalType": "address",
          "name": "owner",
          "type": "address"
        },
        {
          "internalType": "address",
          "name": "operator",
          "type": "address"
        }
      ],
      "name": "isApprovedForAll",
      "outputs": [
        {
          "internalType": "bool",
          "name": "",
          "type": "bool"
        }
      ],
      "stateMutability": "view",
      "type": "function"
    },
    {
      "inputs": [
        {
          "internalType": "uint256",
          "name": "tierIndex",
          "type": "uint256"
        },
        {
          "internalType": "address",
          "name": "owner",
          "type": "address"
        }
      ],
      "name": "mint",
      "outputs": [],
      "stateMutability": "nonpayable",
      "type": "function"
    },
    {
      "inputs": [],
      "name": "name",
      "outputs": [
        {
          "internalType": "string",
          "name": "",
          "type": "string"
        }
      ],
      "stateMutability": "view",
      "type": "function"
    },
    {
      "inputs": [
        {
          "internalType": "address",
          "name": "owner",
          "type": "address"
        }
      ],
      "name": "ownedTokens",
      "outputs": [
        {
          "internalType": "uint256[]",
          "name": "owned",
          "type": "uint256[]"
        }
      ],
      "stateMutability": "view",
      "type": "function"
    },
    {
      "inputs": [
        {
          "internalType": "uint256",
          "name": "tokenId",
          "type": "uint256"
        }
      ],
      "name": "ownerOf",
      "outputs": [
        {
          "internalType": "address",
          "name": "",
          "type": "address"
        }
      ],
      "stateMutability": "view",
      "type": "function"
    },
    {
      "inputs": [
        {
          "internalType": "address",
          "name": "minter",
          "type": "address"
        }
      ],
      "name": "removeMinter",
      "outputs": [],
      "stateMutability": "nonpayable",
      "type": "function"
    },
    {
      "inputs": [
        {
          "internalType": "bytes32",
          "name": "role",
          "type": "bytes32"
        },
        {
          "internalType": "address",
          "name": "account",
          "type": "address"
        }
      ],
      "name": "renounceRole",
      "outputs": [],
      "stateMutability": "nonpayable",
      "type": "function"
    },
    {
      "inputs": [
        {
          "internalType": "bytes32",
          "name": "role",
          "type": "bytes32"
        },
        {
          "internalType": "address",
          "name": "account",
          "type": "address"
        }
      ],
      "name": "revokeRole",
      "outputs": [],
      "stateMutability": "nonpayable",
      "type": "function"
    },
    {
      "inputs": [
        {
          "internalType": "address",
          "name": "from",
          "type": "address"
        },
        {
          "internalType": "address",
          "name": "to",
          "type": "address"
        },
        {
          "internalType": "uint256",
          "name": "tokenId",
          "type": "uint256"
        }
      ],
      "name": "safeTransferFrom",
      "outputs": [],
      "stateMutability": "nonpayable",
      "type": "function"
    },
    {
      "inputs": [
        {
          "internalType": "address",
          "name": "from",
          "type": "address"
        },
        {
          "internalType": "address",
          "name": "to",
          "type": "address"
        },
        {
          "internalType": "uint256",
          "name": "tokenId",
          "type": "uint256"
        },
        {
          "internalType": "bytes",
          "name": "_data",
          "type": "bytes"
        }
      ],
      "name": "safeTransferFrom",
      "outputs": [],
      "stateMutability": "nonpayable",
      "type": "function"
    },
    {
      "inputs": [
        {
          "internalType": "address",
          "name": "operator",
          "type": "address"
        },
        {
          "internalType": "bool",
          "name": "approved",
          "type": "bool"
        }
      ],
      "name": "setApprovalForAll",
      "outputs": [],
      "stateMutability": "nonpayable",
      "type": "function"
    },
    {
      "inputs": [
        {
          "internalType": "bytes4",
          "name": "interfaceId",
          "type": "bytes4"
        }
      ],
      "name": "supportsInterface",
      "outputs": [
        {
          "internalType": "bool",
          "name": "",
          "type": "bool"
        }
      ],
      "stateMutability": "pure",
      "type": "function"
    },
    {
      "inputs": [],
      "name": "symbol",
      "outputs": [
        {
          "internalType": "string",
          "name": "",
          "type": "string"
        }
      ],
      "stateMutability": "view",
      "type": "function"
    },
    {
      "inputs": [
        {
          "internalType": "uint256",
          "name": "",
          "type": "uint256"
        }
      ],
      "name": "tiers",
      "outputs": [
        {
          "internalType": "uint256",
          "name": "baseLoanSize",
          "type": "uint256"
        },
        {
          "internalType": "address",
          "name": "contributionAsset",
          "type": "address"
        },
        {
          "internalType": "uint256",
          "name": "contributionSize",
          "type": "uint256"
        },
        {
          "internalType": "uint8",
          "name": "contributionMultiplier",
          "type": "uint8"
        }
      ],
      "stateMutability": "view",
      "type": "function"
    },
    {
      "inputs": [
        {
          "internalType": "uint256",
          "name": "",
          "type": "uint256"
        }
      ],
      "name": "tokenTierMap",
      "outputs": [
        {
          "internalType": "uint256",
          "name": "",
          "type": "uint256"
        }
      ],
      "stateMutability": "view",
      "type": "function"
    },
    {
      "inputs": [
        {
          "internalType": "uint256",
          "name": "tokenId",
          "type": "uint256"
        }
      ],
      "name": "tokenURI",
      "outputs": [
        {
          "internalType": "string",
          "name": "",
          "type": "string"
        }
      ],
      "stateMutability": "view",
      "type": "function"
    },
    {
      "inputs": [
        {
          "internalType": "address",
          "name": "from",
          "type": "address"
        },
        {
          "internalType": "address",
          "name": "to",
          "type": "address"
        },
        {
          "internalType": "uint256",
          "name": "tokenId",
          "type": "uint256"
        }
      ],
      "name": "transferFrom",
      "outputs": [],
      "stateMutability": "nonpayable",
      "type": "function"
    }
  ],
  "transactionHash": "0xa49c2b0503dd0b247f6c617c33e174e05553148a2bb00dadc42677f3c9c1a28d",
  "args": [],
  "solcInputHash": "a4ea15d4540f28fad2092d4efd84510d",
  "bytecode": "0x608060405234801561001057600080fd5b50612640806100206000396000f3fe608060405234801561001057600080fd5b50600436106101cf5760003560e01c806391d1485411610104578063b12ab40f116100a2578063cf932b7c11610071578063cf932b7c14610469578063d53913931461047c578063d547741f14610491578063e985e9c5146104a4576101cf565b8063b12ab40f14610403578063b88d4fde14610423578063c87b56dd14610436578063cbee53a314610449576101cf565b8063983b2d56116100de578063983b2d56146103c2578063a217fddf146103d5578063a224cee7146103dd578063a22cb465146103f0576101cf565b806391d148541461039457806394bf804d146103a757806395d89b41146103ba576101cf565b80632f2ff15d1161017157806342842e0e1161014b57806342842e0e1461033b5780636352211e1461034e5780636a47b8721461036157806370a0823114610381576101cf565b80632f2ff15d146103025780633092afd51461031557806336568abe14610328576101cf565b8063081812fc116101ad578063081812fc1461027e578063095ea7b3146102a957806323b872dd146102be578063248a9ca3146102d1576101cf565b806301ffc9a7146101d4578063039af9eb146101fc57806306fdde0314610269575b600080fd5b6101e76101e23660046120b9565b6104e0565b60405190151581526020015b60405180910390f35b61023e61020a36600461207f565b60cb60205260009081526040902080546002820154600383015460049093015491926001600160a01b039091169160ff1684565b604080519485526001600160a01b0390931660208501529183015260ff1660608201526080016101f3565b6102716104fa565b6040516101f39190612354565b61029161028c36600461207f565b61058c565b6040516001600160a01b0390911681526020016101f3565b6102bc6102b7366004611fe6565b610626565b005b6102bc6102cc366004611ef8565b61073c565b6102f46102df36600461207f565b60009081526097602052604090206001015490565b6040519081526020016101f3565b6102bc610310366004612097565b61076d565b6102bc610323366004611eac565b6107fc565b6102bc610336366004612097565b61084b565b6102bc610349366004611ef8565b6108c5565b61029161035c36600461207f565b6108e0565b6102f461036f36600461207f565b60cc6020526000908152604090205481565b6102f461038f366004611eac565b61095d565b6101e76103a2366004612097565b6109e4565b6102bc6103b5366004612205565b610a0f565b610271610a8e565b6102bc6103d0366004611eac565b610a9d565b6102f4600081565b6102bc6103eb36600461200f565b610ae9565b6102bc6103fe366004611fac565b610b9a565b610416610411366004611eac565b610c6c565b6040516101f39190612310565b6102bc610431366004611f33565b610d3c565b61027161044436600461207f565b610d6e565b61045c61045736600461207f565b610e49565b6040516101f391906122af565b6102bc6104773660046120f1565b610f38565b6102f46000805160206125eb83398151915281565b6102bc61049f366004612097565b61105e565b6101e76104b2366004611ec6565b6001600160a01b039182166000908152606a6020908152604080832093909416825291909152205460ff1690565b6001600160e01b03198116635b2cab3160e01b145b919050565b60606065805461050990612510565b80601f016020809104026020016040519081016040528092919081815260200182805461053590612510565b80156105825780601f1061055757610100808354040283529160200191610582565b820191906000526020600020905b81548152906001019060200180831161056557829003601f168201915b5050505050905090565b6000818152606760205260408120546001600160a01b031661060a5760405162461bcd60e51b815260206004820152602c60248201527f4552433732313a20617070726f76656420717565727920666f72206e6f6e657860448201526b34b9ba32b73a103a37b5b2b760a11b60648201526084015b60405180910390fd5b506000908152606960205260409020546001600160a01b031690565b6000610631826108e0565b9050806001600160a01b0316836001600160a01b0316141561069f5760405162461bcd60e51b815260206004820152602160248201527f4552433732313a20617070726f76616c20746f2063757272656e74206f776e656044820152603960f91b6064820152608401610601565b336001600160a01b03821614806106bb57506106bb81336104b2565b61072d5760405162461bcd60e51b815260206004820152603860248201527f4552433732313a20617070726f76652063616c6c6572206973206e6f74206f7760448201527f6e6572206e6f7220617070726f76656420666f7220616c6c00000000000000006064820152608401610601565b61073783836110de565b505050565b610746338261114c565b6107625760405162461bcd60e51b815260040161060190612433565b610737838383611243565b60008281526097602052604090206001015461078a905b336103a2565b6107ee5760405162461bcd60e51b815260206004820152602f60248201527f416363657373436f6e74726f6c3a2073656e646572206d75737420626520616e60448201526e0818591b5a5b881d1bc819dc985b9d608a1b6064820152608401610601565b6107f88282611258565b5050565b6108146000805160206125eb833981519152336103a2565b6108305760405162461bcd60e51b8152600401610601906123b9565b6108486000805160206125eb8339815191528261105e565b50565b6001600160a01b03811633146108bb5760405162461bcd60e51b815260206004820152602f60248201527f416363657373436f6e74726f6c3a2063616e206f6e6c792072656e6f756e636560448201526e103937b632b9903337b91039b2b63360891b6064820152608401610601565b6107f882826112de565b61073783838360405180602001604052806000815250610d3c565b6000818152606760205260408120546001600160a01b0316806109575760405162461bcd60e51b815260206004820152602960248201527f4552433732313a206f776e657220717565727920666f72206e6f6e657869737460448201526832b73a103a37b5b2b760b91b6064820152608401610601565b92915050565b60006001600160a01b0382166109c85760405162461bcd60e51b815260206004820152602a60248201527f4552433732313a2062616c616e636520717565727920666f7220746865207a65604482015269726f206164647265737360b01b6064820152608401610601565b506001600160a01b031660009081526068602052604090205490565b60009182526097602090815260408084206001600160a01b0393909316845291905290205460ff1690565b610a276000805160206125eb833981519152336103a2565b610a435760405162461bcd60e51b8152600401610601906123b9565b600082815260ca6020526040812090610a5a825490565b825460010183559050610a6d8382611345565b600081815260cc60205260409020849055610a88838261135f565b50505050565b60606066805461050990612510565b610ab56000805160206125eb833981519152336103a2565b610ad15760405162461bcd60e51b8152600401610601906123b9565b6108486000805160206125eb833981519152826107ee565b610b316040518060400160405280600a81526020016915195b1b195c8813919560b21b815250604051806040016040528060048152602001631513919560e21b8152506113c1565b60005b8181101561073757610b886000805160206125eb833981519152848484818110610b6e57634e487b7160e01b600052603260045260246000fd5b9050602002016020810190610b839190611eac565b6107ee565b80610b928161254b565b915050610b34565b6001600160a01b038216331415610bf35760405162461bcd60e51b815260206004820152601960248201527f4552433732313a20617070726f766520746f2063616c6c6572000000000000006044820152606401610601565b336000818152606a602090815260408083206001600160a01b0387168085529252909120805460ff1916841515179055906001600160a01b03167f17307eab39ab6107e8899845ad3d59bd9653f200f220920489ca2b5937696c3183604051610c60911515815260200190565b60405180910390a35050565b6001600160a01b038116600090815260cd60205260409020606090610c9081611448565b67ffffffffffffffff811115610cb657634e487b7160e01b600052604160045260246000fd5b604051908082528060200260200182016040528015610cdf578160200160208202803683370190505b50915060005b8251811015610d3557610cf88282611452565b838281518110610d1857634e487b7160e01b600052603260045260246000fd5b602090810291909101015280610d2d8161254b565b915050610ce5565b5050919050565b610d46338361114c565b610d625760405162461bcd60e51b815260040161060190612433565b610a888484848461145e565b6000818152606760205260409020546060906001600160a01b0316610ded5760405162461bcd60e51b815260206004820152602f60248201527f4552433732314d657461646174613a2055524920717565727920666f72206e6f60448201526e3732bc34b9ba32b73a103a37b5b2b760891b6064820152608401610601565b6000610df7611491565b90506000815111610e175760405180602001604052806000815250610e42565b80610e21846114b1565b604051602001610e32929190612243565b6040516020818303038152906040525b9392505050565b606060cb6000838152602001908152602001600020600101805480602002602001604051908101604052809291908181526020016000905b82821015610f2d578382906000526020600020018054610ea090612510565b80601f0160208091040260200160405190810160405280929190818152602001828054610ecc90612510565b8015610f195780601f10610eee57610100808354040283529160200191610f19565b820191906000526020600020905b815481529060010190602001808311610efc57829003601f168201915b505050505081526020019060010190610e81565b505050509050919050565b610f506000805160206125eb833981519152336103a2565b610f6c5760405162461bcd60e51b8152600401610601906123b9565b600060cb6000610f7b60c95490565b8152602081019190915260400160002060028101549091506001600160a01b031615610fe95760405162461bcd60e51b815260206004820152601b60248201527f54656c6c65723a207469657220616c72656164792065786973747300000000006044820152606401610601565b8151815560208083015180516110059260018501920190611ce1565b5060408201516002820180546001600160a01b0319166001600160a01b0390921691909117905560608201516003820155608082015160048201805460ff191660ff90921691909117905560c9805460010190556107f8565b60008281526097602052604090206001015461107990610784565b6108bb5760405162461bcd60e51b815260206004820152603060248201527f416363657373436f6e74726f6c3a2073656e646572206d75737420626520616e60448201526f2061646d696e20746f207265766f6b6560801b6064820152608401610601565b600081815260696020526040902080546001600160a01b0319166001600160a01b0384169081179091558190611113826108e0565b6001600160a01b03167f8c5be1e5ebec7d5bd14f71427d1e84f3dd0314c0f7b2291e5b200ac8c7c3b92560405160405180910390a45050565b6000818152606760205260408120546001600160a01b03166111c55760405162461bcd60e51b815260206004820152602c60248201527f4552433732313a206f70657261746f7220717565727920666f72206e6f6e657860448201526b34b9ba32b73a103a37b5b2b760a11b6064820152608401610601565b60006111d0836108e0565b9050806001600160a01b0316846001600160a01b0316148061120b5750836001600160a01b03166112008461058c565b6001600160a01b0316145b8061123b57506001600160a01b038082166000908152606a602090815260408083209388168352929052205460ff165b949350505050565b61124d828261135f565b61073783838361159b565b61126282826109e4565b6107f85760008281526097602090815260408083206001600160a01b03851684529091529020805460ff1916600117905561129a3390565b6001600160a01b0316816001600160a01b0316837f2f8788117e7eff1d82e926ec794901d17c78024a50270940304540a733656f0d60405160405180910390a45050565b6112e882826109e4565b156107f85760008281526097602090815260408083206001600160a01b0385168085529252808320805460ff1916905551339285917ff6391f5c32d9c69d2a47ea670b442974b53935d1edc7fd64eb21e047a839171b9190a45050565b6107f882826040518060200160405280600081525061173b565b600061136a826108e0565b90506001600160a01b0381161561139f576001600160a01b038116600090815260cd6020526040902061139d908361176e565b505b6001600160a01b038316600090815260cd60205260409020610a88908361177a565b600054610100900460ff16806113da575060005460ff16155b6113f65760405162461bcd60e51b8152600401610601906123e5565b600054610100900460ff16158015611418576000805461ffff19166101011790555b611420611786565b611428611786565b61143283836117f1565b8015610737576000805461ff0019169055505050565b6000610957825490565b6000610e428383611886565b611469848484611243565b6114758484848461191a565b610a885760405162461bcd60e51b815260040161060190612367565b60606040518060600160405280602281526020016125c960229139905090565b600081815260cc6020908152604080832054835260cb909152902060010180546060919081906114e2908590611a27565b8154811061150057634e487b7160e01b600052603260045260246000fd5b90600052602060002001805461151590612510565b80601f016020809104026020016040519081016040528092919081815260200182805461154190612510565b801561158e5780601f106115635761010080835404028352916020019161158e565b820191906000526020600020905b81548152906001019060200180831161157157829003601f168201915b5050505050915050919050565b826001600160a01b03166115ae826108e0565b6001600160a01b0316146116165760405162461bcd60e51b815260206004820152602960248201527f4552433732313a207472616e73666572206f6620746f6b656e2074686174206960448201526839903737ba1037bbb760b91b6064820152608401610601565b6001600160a01b0382166116785760405162461bcd60e51b8152602060048201526024808201527f4552433732313a207472616e7366657220746f20746865207a65726f206164646044820152637265737360e01b6064820152608401610601565b6116836000826110de565b6001600160a01b03831660009081526068602052604081208054600192906116ac9084906124cd565b90915550506001600160a01b03821660009081526068602052604081208054600192906116da9084906124b5565b909155505060008181526067602052604080822080546001600160a01b0319166001600160a01b0386811691821790925591518493918716917fddf252ad1be2c89b69c2b068fc378daa952ba7f163c4a11628f55a4df523b3ef91a4505050565b6117458383611a33565b611752600084848461191a565b6107375760405162461bcd60e51b815260040161060190612367565b6000610e428383611b75565b6000610e428383611c92565b600054610100900460ff168061179f575060005460ff16155b6117bb5760405162461bcd60e51b8152600401610601906123e5565b600054610100900460ff161580156117dd576000805461ffff19166101011790555b8015610848576000805461ff001916905550565b600054610100900460ff168061180a575060005460ff16155b6118265760405162461bcd60e51b8152600401610601906123e5565b600054610100900460ff16158015611848576000805461ffff19166101011790555b825161185b906065906020860190611d3e565b50815161186f906066906020850190611d3e565b508015610737576000805461ff0019169055505050565b815460009082106118e45760405162461bcd60e51b815260206004820152602260248201527f456e756d657261626c655365743a20696e646578206f7574206f6620626f756e604482015261647360f01b6064820152608401610601565b82600001828154811061190757634e487b7160e01b600052603260045260246000fd5b9060005260206000200154905092915050565b60006001600160a01b0384163b15611a1c57604051630a85bd0160e11b81526001600160a01b0385169063150b7a029061195e903390899088908890600401612272565b602060405180830381600087803b15801561197857600080fd5b505af19250505080156119a8575060408051601f3d908101601f191682019092526119a5918101906120d5565b60015b611a02573d8080156119d6576040519150601f19603f3d011682016040523d82523d6000602084013e6119db565b606091505b5080516119fa5760405162461bcd60e51b815260040161060190612367565b805181602001fd5b6001600160e01b031916630a85bd0160e11b14905061123b565b506001949350505050565b6000610e428284612566565b6001600160a01b038216611a895760405162461bcd60e51b815260206004820181905260248201527f4552433732313a206d696e7420746f20746865207a65726f20616464726573736044820152606401610601565b6000818152606760205260409020546001600160a01b031615611aee5760405162461bcd60e51b815260206004820152601c60248201527f4552433732313a20746f6b656e20616c7265616479206d696e746564000000006044820152606401610601565b6001600160a01b0382166000908152606860205260408120805460019290611b179084906124b5565b909155505060008181526067602052604080822080546001600160a01b0319166001600160a01b03861690811790915590518392907fddf252ad1be2c89b69c2b068fc378daa952ba7f163c4a11628f55a4df523b3ef908290a45050565b60008181526001830160205260408120548015611c88576000611b996001836124cd565b8554909150600090611bad906001906124cd565b90506000866000018281548110611bd457634e487b7160e01b600052603260045260246000fd5b9060005260206000200154905080876000018481548110611c0557634e487b7160e01b600052603260045260246000fd5b600091825260209091200155611c1c8360016124b5565b60008281526001890160205260409020558654879080611c4c57634e487b7160e01b600052603160045260246000fd5b60019003818190600052602060002001600090559055866001016000878152602001908152602001600020600090556001945050505050610957565b6000915050610957565b6000818152600183016020526040812054611cd957508154600181810184556000848152602080822090930184905584548482528286019093526040902091909155610957565b506000610957565b828054828255906000526020600020908101928215611d2e579160200282015b82811115611d2e5782518051611d1e918491602090910190611d3e565b5091602001919060010190611d01565b50611d3a929150611dbe565b5090565b828054611d4a90612510565b90600052602060002090601f016020900481019282611d6c5760008555611db2565b82601f10611d8557805160ff1916838001178555611db2565b82800160010185558215611db2579182015b82811115611db2578251825591602001919060010190611d97565b50611d3a929150611ddb565b80821115611d3a576000611dd28282611df0565b50600101611dbe565b5b80821115611d3a5760008155600101611ddc565b508054611dfc90612510565b6000825580601f10611e0e5750610848565b601f0160209004906000526020600020908101906108489190611ddb565b600067ffffffffffffffff831115611e4657611e4661259c565b611e59601f8401601f1916602001612484565b9050828152838383011115611e6d57600080fd5b828260208301376000602084830101529392505050565b80356001600160a01b03811681146104f557600080fd5b803560ff811681146104f557600080fd5b600060208284031215611ebd578081fd5b610e4282611e84565b60008060408385031215611ed8578081fd5b611ee183611e84565b9150611eef60208401611e84565b90509250929050565b600080600060608486031215611f0c578081fd5b611f1584611e84565b9250611f2360208501611e84565b9150604084013590509250925092565b60008060008060808587031215611f48578081fd5b611f5185611e84565b9350611f5f60208601611e84565b925060408501359150606085013567ffffffffffffffff811115611f81578182fd5b8501601f81018713611f91578182fd5b611fa087823560208401611e2c565b91505092959194509250565b60008060408385031215611fbe578182fd5b611fc783611e84565b915060208301358015158114611fdb578182fd5b809150509250929050565b60008060408385031215611ff8578182fd5b61200183611e84565b946020939093013593505050565b60008060208385031215612021578182fd5b823567ffffffffffffffff80821115612038578384fd5b818501915085601f83011261204b578384fd5b813581811115612059578485fd5b8660208260051b850101111561206d578485fd5b60209290920196919550909350505050565b600060208284031215612090578081fd5b5035919050565b600080604083850312156120a9578081fd5b82359150611eef60208401611e84565b6000602082840312156120ca578081fd5b8135610e42816125b2565b6000602082840312156120e6578081fd5b8151610e42816125b2565b60006020808385031215612103578182fd5b823567ffffffffffffffff8082111561211a578384fd5b9084019060a0828703121561212d578384fd5b61213760a0612484565b82358152838301358281111561214b578586fd5b8301601f8101881361215b578586fd5b80358381111561216d5761216d61259c565b61217b868260051b01612484565b8181528681019450828701885b838110156121c657813585018c603f8201126121a2578a8bfd5b6121b38d8b83013560408401611e2c565b8852509588019590880190600101612188565b505083870152506121db905060408401611e84565b6040820152606083013560608201526121f660808401611e9b565b60808201529695505050505050565b600080604083850312156120a9578182fd5b6000815180845261222f8160208601602086016124e4565b601f01601f19169290920160200192915050565b600083516122558184602088016124e4565b8351908301906122698183602088016124e4565b01949350505050565b6001600160a01b03858116825284166020820152604081018390526080606082018190526000906122a590830184612217565b9695505050505050565b6000602080830181845280855180835260408601915060408160051b8701019250838701855b8281101561230357603f198886030184526122f1858351612217565b945092850192908501906001016122d5565b5092979650505050505050565b6020808252825182820181905260009190848201906040850190845b818110156123485783518352928401929184019160010161232c565b50909695505050505050565b600060208252610e426020830184612217565b60208082526032908201527f4552433732313a207472616e7366657220746f206e6f6e20455243373231526560408201527131b2b4bb32b91034b6b83632b6b2b73a32b960711b606082015260800190565b6020808252601290820152712a32b63632b91d103737ba1036b4b73a32b960711b604082015260600190565b6020808252602e908201527f496e697469616c697a61626c653a20636f6e747261637420697320616c72656160408201526d191e481a5b9a5d1a585b1a5e995960921b606082015260800190565b60208082526031908201527f4552433732313a207472616e736665722063616c6c6572206973206e6f74206f6040820152701ddb995c881b9bdc88185c1c1c9bdd9959607a1b606082015260800190565b604051601f8201601f1916810167ffffffffffffffff811182821017156124ad576124ad61259c565b604052919050565b600082198211156124c8576124c8612586565b500190565b6000828210156124df576124df612586565b500390565b60005b838110156124ff5781810151838201526020016124e7565b83811115610a885750506000910152565b600181811c9082168061252457607f821691505b6020821081141561254557634e487b7160e01b600052602260045260246000fd5b50919050565b600060001982141561255f5761255f612586565b5060010190565b60008261258157634e487b7160e01b81526012600452602481fd5b500690565b634e487b7160e01b600052601160045260246000fd5b634e487b7160e01b600052604160045260246000fd5b6001600160e01b03198116811461084857600080fdfe68747470733a2f2f676174657761792e70696e6174612e636c6f75642f697066732f9f2df0fed2c77648de5860a4cc508cd0818c85b8b8a1ab4ceeef8d981c8956a6a2646970667358221220c6e37c620dcc503bb33f6732448c880a17e70cc36a654416dbe558026593083664736f6c63430008030033",
  "devdoc": {
    "author": "develop@teller.finance",
    "kind": "dev",
    "methods": {
      "approve(address,uint256)": {
        "details": "See {IERC721-approve}."
      },
      "balanceOf(address)": {
        "details": "See {IERC721-balanceOf}."
      },
      "getApproved(uint256)": {
        "details": "See {IERC721-getApproved}."
      },
      "getRoleAdmin(bytes32)": {
        "details": "Returns the admin role that controls `role`. See {grantRole} and {revokeRole}. To change a role's admin, use {_setRoleAdmin}."
      },
      "getTierHashes(uint256)": {
        "details": "It uses a EnumerableSet to store values and loops over each element to add to the array.Can be costly if calling within a contract for address with many tokens."
      },
      "grantRole(bytes32,address)": {
        "details": "Grants `role` to `account`. If `account` had not been already granted `role`, emits a {RoleGranted} event. Requirements: - the caller must have ``role``'s admin role."
      },
      "hasRole(bytes32,address)": {
        "details": "Returns `true` if `account` has been granted `role`."
      },
      "isApprovedForAll(address,address)": {
        "details": "See {IERC721-isApprovedForAll}."
      },
      "name()": {
        "details": "See {IERC721Metadata-name}."
      },
      "ownedTokens(address)": {
        "details": "It uses a EnumerableSet to store values and loops over each element to add to the array.Can be costly if calling within a contract for address with many tokens."
      },
      "ownerOf(uint256)": {
        "details": "See {IERC721-ownerOf}."
      },
      "renounceRole(bytes32,address)": {
        "details": "Revokes `role` from the calling account. Roles are often managed via {grantRole} and {revokeRole}: this function's purpose is to provide a mechanism for accounts to lose their privileges if they are compromised (such as when a trusted device is misplaced). If the calling account had been granted `role`, emits a {RoleRevoked} event. Requirements: - the caller must be `account`."
      },
      "revokeRole(bytes32,address)": {
        "details": "Revokes `role` from `account`. If `account` had been granted `role`, emits a {RoleRevoked} event. Requirements: - the caller must have ``role``'s admin role."
      },
      "safeTransferFrom(address,address,uint256)": {
        "details": "See {IERC721-safeTransferFrom}."
      },
      "safeTransferFrom(address,address,uint256,bytes)": {
        "details": "See {IERC721-safeTransferFrom}."
      },
      "setApprovalForAll(address,bool)": {
        "details": "See {IERC721-setApprovalForAll}."
      },
      "symbol()": {
        "details": "See {IERC721Metadata-symbol}."
      },
      "transferFrom(address,address,uint256)": {
        "details": "See {IERC721-transferFrom}."
      }
    },
    "version": 1
  },
  "userdoc": {
    "kind": "user",
    "methods": {
      "getTierHashes(uint256)": {
        "notice": "It returns an array of token IDs owned by an address."
      },
      "ownedTokens(address)": {
        "notice": "It returns an array of token IDs owned by an address."
      },
      "tokenURI(uint256)": {
        "notice": "The token URI is based on the token ID."
      }
    },
    "notice": "This contract is used by borrowers to call Dapp functions (using delegate calls).This contract should only be constructed using it's upgradeable Proxy contract.In order to call a Dapp function, the Dapp must be added in the DappRegistry instance.",
    "version": 1
  },
  "storageLayout": {
    "storage": [
      {
        "astId": 545,
        "contract": "contracts/base/nft/TellerNFT.sol:TellerNFT",
        "label": "_initialized",
        "offset": 0,
        "slot": "0",
        "type": "t_bool"
      },
      {
        "astId": 548,
        "contract": "contracts/base/nft/TellerNFT.sol:TellerNFT",
        "label": "_initializing",
        "offset": 1,
        "slot": "0",
        "type": "t_bool"
      },
      {
        "astId": 2522,
        "contract": "contracts/base/nft/TellerNFT.sol:TellerNFT",
        "label": "__gap",
        "offset": 0,
        "slot": "1",
        "type": "t_array(t_uint256)50_storage"
      },
      {
        "astId": 2771,
        "contract": "contracts/base/nft/TellerNFT.sol:TellerNFT",
        "label": "__gap",
        "offset": 0,
        "slot": "51",
        "type": "t_array(t_uint256)50_storage"
      },
      {
        "astId": 1221,
        "contract": "contracts/base/nft/TellerNFT.sol:TellerNFT",
        "label": "_name",
        "offset": 0,
        "slot": "101",
        "type": "t_string_storage"
      },
      {
        "astId": 1223,
        "contract": "contracts/base/nft/TellerNFT.sol:TellerNFT",
        "label": "_symbol",
        "offset": 0,
        "slot": "102",
        "type": "t_string_storage"
      },
      {
        "astId": 1227,
        "contract": "contracts/base/nft/TellerNFT.sol:TellerNFT",
        "label": "_owners",
        "offset": 0,
        "slot": "103",
        "type": "t_mapping(t_uint256,t_address)"
      },
      {
        "astId": 1231,
        "contract": "contracts/base/nft/TellerNFT.sol:TellerNFT",
        "label": "_balances",
        "offset": 0,
        "slot": "104",
        "type": "t_mapping(t_address,t_uint256)"
      },
      {
        "astId": 1235,
        "contract": "contracts/base/nft/TellerNFT.sol:TellerNFT",
        "label": "_tokenApprovals",
        "offset": 0,
        "slot": "105",
        "type": "t_mapping(t_uint256,t_address)"
      },
      {
        "astId": 1241,
        "contract": "contracts/base/nft/TellerNFT.sol:TellerNFT",
        "label": "_operatorApprovals",
        "offset": 0,
        "slot": "106",
        "type": "t_mapping(t_address,t_mapping(t_address,t_bool))"
      },
      {
        "astId": 2041,
        "contract": "contracts/base/nft/TellerNFT.sol:TellerNFT",
        "label": "__gap",
        "offset": 0,
        "slot": "107",
        "type": "t_array(t_uint256)44_storage"
      },
      {
        "astId": 273,
        "contract": "contracts/base/nft/TellerNFT.sol:TellerNFT",
        "label": "_roles",
        "offset": 0,
        "slot": "151",
        "type": "t_mapping(t_bytes32,t_struct(RoleData)268_storage)"
      },
      {
        "astId": 537,
        "contract": "contracts/base/nft/TellerNFT.sol:TellerNFT",
        "label": "__gap",
        "offset": 0,
        "slot": "152",
        "type": "t_array(t_uint256)49_storage"
      },
      {
        "astId": 14668,
        "contract": "contracts/base/nft/TellerNFT.sol:TellerNFT",
        "label": "tierCounter",
        "offset": 0,
        "slot": "201",
        "type": "t_struct(Counter)4004_storage"
      },
      {
        "astId": 14673,
        "contract": "contracts/base/nft/TellerNFT.sol:TellerNFT",
        "label": "tierTokenCounter",
        "offset": 0,
        "slot": "202",
        "type": "t_mapping(t_uint256,t_struct(Counter)4004_storage)"
      },
      {
        "astId": 14678,
        "contract": "contracts/base/nft/TellerNFT.sol:TellerNFT",
        "label": "tiers",
        "offset": 0,
        "slot": "203",
        "type": "t_mapping(t_uint256,t_struct(Tier)19167_storage)"
      },
      {
        "astId": 14682,
        "contract": "contracts/base/nft/TellerNFT.sol:TellerNFT",
        "label": "tokenTierMap",
        "offset": 0,
        "slot": "204",
        "type": "t_mapping(t_uint256,t_uint256)"
      },
      {
        "astId": 14687,
        "contract": "contracts/base/nft/TellerNFT.sol:TellerNFT",
        "label": "ownerTokenIDs",
        "offset": 0,
        "slot": "205",
        "type": "t_mapping(t_address,t_struct(UintSet)4921_storage)"
      }
    ],
    "types": {
      "t_address": {
        "encoding": "inplace",
        "label": "address",
        "numberOfBytes": "20"
      },
      "t_array(t_bytes32)dyn_storage": {
        "base": "t_bytes32",
        "encoding": "dynamic_array",
        "label": "bytes32[]",
        "numberOfBytes": "32"
      },
      "t_array(t_string_storage)dyn_storage": {
        "base": "t_string_storage",
        "encoding": "dynamic_array",
        "label": "string[]",
        "numberOfBytes": "32"
      },
      "t_array(t_uint256)44_storage": {
        "base": "t_uint256",
        "encoding": "inplace",
        "label": "uint256[44]",
        "numberOfBytes": "1408"
      },
      "t_array(t_uint256)49_storage": {
        "base": "t_uint256",
        "encoding": "inplace",
        "label": "uint256[49]",
        "numberOfBytes": "1568"
      },
      "t_array(t_uint256)50_storage": {
        "base": "t_uint256",
        "encoding": "inplace",
        "label": "uint256[50]",
        "numberOfBytes": "1600"
      },
      "t_bool": {
        "encoding": "inplace",
        "label": "bool",
        "numberOfBytes": "1"
      },
      "t_bytes32": {
        "encoding": "inplace",
        "label": "bytes32",
        "numberOfBytes": "32"
      },
      "t_mapping(t_address,t_bool)": {
        "encoding": "mapping",
        "key": "t_address",
        "label": "mapping(address => bool)",
        "numberOfBytes": "32",
        "value": "t_bool"
      },
      "t_mapping(t_address,t_mapping(t_address,t_bool))": {
        "encoding": "mapping",
        "key": "t_address",
        "label": "mapping(address => mapping(address => bool))",
        "numberOfBytes": "32",
        "value": "t_mapping(t_address,t_bool)"
      },
      "t_mapping(t_address,t_struct(UintSet)4921_storage)": {
        "encoding": "mapping",
        "key": "t_address",
        "label": "mapping(address => struct EnumerableSet.UintSet)",
        "numberOfBytes": "32",
        "value": "t_struct(UintSet)4921_storage"
      },
      "t_mapping(t_address,t_uint256)": {
        "encoding": "mapping",
        "key": "t_address",
        "label": "mapping(address => uint256)",
        "numberOfBytes": "32",
        "value": "t_uint256"
      },
      "t_mapping(t_bytes32,t_struct(RoleData)268_storage)": {
        "encoding": "mapping",
        "key": "t_bytes32",
        "label": "mapping(bytes32 => struct AccessControlUpgradeable.RoleData)",
        "numberOfBytes": "32",
        "value": "t_struct(RoleData)268_storage"
      },
      "t_mapping(t_bytes32,t_uint256)": {
        "encoding": "mapping",
        "key": "t_bytes32",
        "label": "mapping(bytes32 => uint256)",
        "numberOfBytes": "32",
        "value": "t_uint256"
      },
      "t_mapping(t_uint256,t_address)": {
        "encoding": "mapping",
        "key": "t_uint256",
        "label": "mapping(uint256 => address)",
        "numberOfBytes": "32",
        "value": "t_address"
      },
      "t_mapping(t_uint256,t_struct(Counter)4004_storage)": {
        "encoding": "mapping",
        "key": "t_uint256",
        "label": "mapping(uint256 => struct Counters.Counter)",
        "numberOfBytes": "32",
        "value": "t_struct(Counter)4004_storage"
      },
      "t_mapping(t_uint256,t_struct(Tier)19167_storage)": {
        "encoding": "mapping",
        "key": "t_uint256",
        "label": "mapping(uint256 => struct ITellerNFT.Tier)",
        "numberOfBytes": "32",
        "value": "t_struct(Tier)19167_storage"
      },
      "t_mapping(t_uint256,t_uint256)": {
        "encoding": "mapping",
        "key": "t_uint256",
        "label": "mapping(uint256 => uint256)",
        "numberOfBytes": "32",
        "value": "t_uint256"
      },
      "t_string_storage": {
        "encoding": "bytes",
        "label": "string",
        "numberOfBytes": "32"
      },
      "t_struct(Counter)4004_storage": {
        "encoding": "inplace",
        "label": "struct Counters.Counter",
        "members": [
          {
            "astId": 4003,
            "contract": "contracts/base/nft/TellerNFT.sol:TellerNFT",
            "label": "_value",
            "offset": 0,
            "slot": "0",
            "type": "t_uint256"
          }
        ],
        "numberOfBytes": "32"
      },
      "t_struct(RoleData)268_storage": {
        "encoding": "inplace",
        "label": "struct AccessControlUpgradeable.RoleData",
        "members": [
          {
            "astId": 265,
            "contract": "contracts/base/nft/TellerNFT.sol:TellerNFT",
            "label": "members",
            "offset": 0,
            "slot": "0",
            "type": "t_mapping(t_address,t_bool)"
          },
          {
            "astId": 267,
            "contract": "contracts/base/nft/TellerNFT.sol:TellerNFT",
            "label": "adminRole",
            "offset": 0,
            "slot": "1",
            "type": "t_bytes32"
          }
        ],
        "numberOfBytes": "64"
      },
      "t_struct(Set)4517_storage": {
        "encoding": "inplace",
        "label": "struct EnumerableSet.Set",
        "members": [
          {
            "astId": 4512,
            "contract": "contracts/base/nft/TellerNFT.sol:TellerNFT",
            "label": "_values",
            "offset": 0,
            "slot": "0",
            "type": "t_array(t_bytes32)dyn_storage"
          },
          {
            "astId": 4516,
            "contract": "contracts/base/nft/TellerNFT.sol:TellerNFT",
            "label": "_indexes",
            "offset": 0,
            "slot": "1",
            "type": "t_mapping(t_bytes32,t_uint256)"
          }
        ],
        "numberOfBytes": "64"
      },
      "t_struct(Tier)19167_storage": {
        "encoding": "inplace",
        "label": "struct ITellerNFT.Tier",
        "members": [
          {
            "astId": 19157,
            "contract": "contracts/base/nft/TellerNFT.sol:TellerNFT",
            "label": "baseLoanSize",
            "offset": 0,
            "slot": "0",
            "type": "t_uint256"
          },
          {
            "astId": 19160,
            "contract": "contracts/base/nft/TellerNFT.sol:TellerNFT",
            "label": "hashes",
            "offset": 0,
            "slot": "1",
            "type": "t_array(t_string_storage)dyn_storage"
          },
          {
            "astId": 19162,
            "contract": "contracts/base/nft/TellerNFT.sol:TellerNFT",
            "label": "contributionAsset",
            "offset": 0,
            "slot": "2",
            "type": "t_address"
          },
          {
            "astId": 19164,
            "contract": "contracts/base/nft/TellerNFT.sol:TellerNFT",
            "label": "contributionSize",
            "offset": 0,
            "slot": "3",
            "type": "t_uint256"
          },
          {
            "astId": 19166,
            "contract": "contracts/base/nft/TellerNFT.sol:TellerNFT",
            "label": "contributionMultiplier",
            "offset": 0,
            "slot": "4",
            "type": "t_uint8"
          }
        ],
        "numberOfBytes": "160"
      },
      "t_struct(UintSet)4921_storage": {
        "encoding": "inplace",
        "label": "struct EnumerableSet.UintSet",
        "members": [
          {
            "astId": 4920,
            "contract": "contracts/base/nft/TellerNFT.sol:TellerNFT",
            "label": "_inner",
            "offset": 0,
            "slot": "0",
            "type": "t_struct(Set)4517_storage"
          }
        ],
        "numberOfBytes": "64"
      },
      "t_uint256": {
        "encoding": "inplace",
        "label": "uint256",
        "numberOfBytes": "32"
      },
      "t_uint8": {
        "encoding": "inplace",
        "label": "uint8",
        "numberOfBytes": "1"
      }
    }
  }
}