{
  "address": "0xd93aa60Fc5C10Fb46Fdd6824a9ae07c73C2019cd",
  "abi": [
    {
      "anonymous": false,
      "inputs": [
        {
          "indexed": true,
          "internalType": "address",
          "name": "owner",
          "type": "address"
        },
        {
          "indexed": true,
          "internalType": "address",
          "name": "spender",
          "type": "address"
        },
        {
          "indexed": false,
          "internalType": "uint256",
          "name": "value",
          "type": "uint256"
        }
      ],
      "name": "Approval",
      "type": "event"
    },
    {
      "anonymous": false,
      "inputs": [
        {
          "indexed": true,
          "internalType": "address",
          "name": "sender",
          "type": "address"
        },
        {
          "indexed": false,
          "internalType": "uint256",
          "name": "tTokenAmount",
          "type": "uint256"
        },
        {
          "indexed": false,
          "internalType": "uint256",
          "name": "underlyingAmount",
          "type": "uint256"
        }
      ],
      "name": "Mint",
      "type": "event"
    },
    {
      "anonymous": false,
      "inputs": [
        {
          "indexed": true,
          "internalType": "address",
          "name": "sender",
          "type": "address"
        },
        {
          "indexed": false,
          "internalType": "uint256",
          "name": "tTokenAmount",
          "type": "uint256"
        },
        {
          "indexed": false,
          "internalType": "uint256",
          "name": "underlyingAmount",
          "type": "uint256"
        }
      ],
      "name": "Redeem",
      "type": "event"
    },
    {
      "anonymous": false,
      "inputs": [
        {
          "indexed": true,
          "internalType": "bytes32",
          "name": "role",
          "type": "bytes32"
        },
        {
          "indexed": true,
          "internalType": "bytes32",
          "name": "previousAdminRole",
          "type": "bytes32"
        },
        {
          "indexed": true,
          "internalType": "bytes32",
          "name": "newAdminRole",
          "type": "bytes32"
        }
      ],
      "name": "RoleAdminChanged",
      "type": "event"
    },
    {
      "anonymous": false,
      "inputs": [
        {
          "indexed": true,
          "internalType": "bytes32",
          "name": "role",
          "type": "bytes32"
        },
        {
          "indexed": true,
          "internalType": "address",
          "name": "account",
          "type": "address"
        },
        {
          "indexed": true,
          "internalType": "address",
          "name": "sender",
          "type": "address"
        }
      ],
      "name": "RoleGranted",
      "type": "event"
    },
    {
      "anonymous": false,
      "inputs": [
        {
          "indexed": true,
          "internalType": "bytes32",
          "name": "role",
          "type": "bytes32"
        },
        {
          "indexed": true,
          "internalType": "address",
          "name": "account",
          "type": "address"
        },
        {
          "indexed": true,
          "internalType": "address",
          "name": "sender",
          "type": "address"
        }
      ],
      "name": "RoleRevoked",
      "type": "event"
    },
    {
      "anonymous": false,
      "inputs": [
        {
          "indexed": true,
          "internalType": "address",
          "name": "from",
          "type": "address"
        },
        {
          "indexed": true,
          "internalType": "address",
          "name": "to",
          "type": "address"
        },
        {
          "indexed": false,
          "internalType": "uint256",
          "name": "value",
          "type": "uint256"
        }
      ],
      "name": "Transfer",
      "type": "event"
    },
    {
      "inputs": [],
      "name": "DEFAULT_ADMIN_ROLE",
      "outputs": [
        {
          "internalType": "bytes32",
          "name": "",
          "type": "bytes32"
        }
      ],
      "stateMutability": "view",
      "type": "function"
    },
    {
      "inputs": [],
      "name": "EXCHANGE_RATE_FACTOR",
      "outputs": [
        {
          "internalType": "uint256",
          "name": "",
          "type": "uint256"
        }
      ],
      "stateMutability": "view",
      "type": "function"
    },
    {
      "inputs": [],
      "name": "ONE_HUNDRED_PERCENT",
      "outputs": [
        {
          "internalType": "uint256",
          "name": "",
          "type": "uint256"
        }
      ],
      "stateMutability": "view",
      "type": "function"
    },
    {
      "inputs": [],
      "name": "accrueInterest",
      "outputs": [],
      "stateMutability": "nonpayable",
      "type": "function"
    },
    {
      "inputs": [
        {
          "internalType": "address",
          "name": "owner",
          "type": "address"
        },
        {
          "internalType": "address",
          "name": "spender",
          "type": "address"
        }
      ],
      "name": "allowance",
      "outputs": [
        {
          "internalType": "uint256",
          "name": "",
          "type": "uint256"
        }
      ],
      "stateMutability": "view",
      "type": "function"
    },
    {
      "inputs": [
        {
          "internalType": "address",
          "name": "spender",
          "type": "address"
        },
        {
          "internalType": "uint256",
          "name": "amount",
          "type": "uint256"
        }
      ],
      "name": "approve",
      "outputs": [
        {
          "internalType": "bool",
          "name": "",
          "type": "bool"
        }
      ],
      "stateMutability": "nonpayable",
      "type": "function"
    },
    {
      "inputs": [
        {
          "internalType": "address",
          "name": "account",
          "type": "address"
        }
      ],
      "name": "balanceOf",
      "outputs": [
        {
          "internalType": "uint256",
          "name": "",
          "type": "uint256"
        }
      ],
      "stateMutability": "view",
      "type": "function"
    },
    {
      "inputs": [
        {
          "internalType": "address",
          "name": "account",
          "type": "address"
        }
      ],
      "name": "balanceOfUnderlying",
      "outputs": [
        {
          "internalType": "uint256",
          "name": "balance_",
          "type": "uint256"
        }
      ],
      "stateMutability": "nonpayable",
      "type": "function"
    },
    {
      "inputs": [],
      "name": "cToken",
      "outputs": [
        {
          "internalType": "contract ICErc20",
          "name": "",
          "type": "address"
        }
      ],
      "stateMutability": "view",
      "type": "function"
    },
    {
      "inputs": [],
      "name": "decimals",
      "outputs": [
        {
          "internalType": "uint8",
          "name": "decimals_",
          "type": "uint8"
        }
      ],
      "stateMutability": "view",
      "type": "function"
    },
    {
      "inputs": [
        {
          "internalType": "address",
          "name": "spender",
          "type": "address"
        },
        {
          "internalType": "uint256",
          "name": "subtractedValue",
          "type": "uint256"
        }
      ],
      "name": "decreaseAllowance",
      "outputs": [
        {
          "internalType": "bool",
          "name": "",
          "type": "bool"
        }
      ],
      "stateMutability": "nonpayable",
      "type": "function"
    },
    {
      "inputs": [],
      "name": "depositStrategy",
      "outputs": [],
      "stateMutability": "nonpayable",
      "type": "function"
    },
    {
      "inputs": [],
      "name": "exchangeRate",
      "outputs": [
        {
          "internalType": "uint256",
          "name": "rate_",
          "type": "uint256"
        }
      ],
      "stateMutability": "nonpayable",
      "type": "function"
    },
    {
      "inputs": [
        {
          "internalType": "address",
          "name": "recipient",
          "type": "address"
        },
        {
          "internalType": "uint256",
          "name": "amount",
          "type": "uint256"
        }
      ],
      "name": "fundLoan",
      "outputs": [],
      "stateMutability": "nonpayable",
      "type": "function"
    },
    {
      "inputs": [
        {
          "internalType": "bytes32",
          "name": "role",
          "type": "bytes32"
        }
      ],
      "name": "getRoleAdmin",
      "outputs": [
        {
          "internalType": "bytes32",
          "name": "",
          "type": "bytes32"
        }
      ],
      "stateMutability": "view",
      "type": "function"
    },
    {
      "inputs": [
        {
          "internalType": "bytes32",
          "name": "role",
          "type": "bytes32"
        },
        {
          "internalType": "address",
          "name": "account",
          "type": "address"
        }
      ],
      "name": "grantRole",
      "outputs": [],
      "stateMutability": "nonpayable",
      "type": "function"
    },
    {
      "inputs": [
        {
          "internalType": "bytes32",
          "name": "role",
          "type": "bytes32"
        },
        {
          "internalType": "address",
          "name": "account",
          "type": "address"
        }
      ],
      "name": "hasRole",
      "outputs": [
        {
          "internalType": "bool",
          "name": "",
          "type": "bool"
        }
      ],
      "stateMutability": "view",
      "type": "function"
    },
    {
      "inputs": [
        {
          "internalType": "address",
          "name": "spender",
          "type": "address"
        },
        {
          "internalType": "uint256",
          "name": "addedValue",
          "type": "uint256"
        }
      ],
      "name": "increaseAllowance",
      "outputs": [
        {
          "internalType": "bool",
          "name": "",
          "type": "bool"
        }
      ],
      "stateMutability": "nonpayable",
      "type": "function"
    },
    {
      "inputs": [
        {
          "components": [
            {
              "internalType": "address",
              "name": "controller",
              "type": "address"
            },
            {
              "internalType": "address",
              "name": "admin",
              "type": "address"
            },
            {
              "internalType": "address",
              "name": "underlying",
              "type": "address"
            },
            {
              "internalType": "address",
              "name": "cToken",
              "type": "address"
            }
          ],
          "internalType": "struct InitArgs",
          "name": "args",
          "type": "tuple"
        }
      ],
      "name": "initialize",
      "outputs": [],
      "stateMutability": "nonpayable",
      "type": "function"
    },
    {
      "inputs": [
        {
          "internalType": "uint256",
          "name": "amount",
          "type": "uint256"
        }
      ],
      "name": "mint",
      "outputs": [
        {
          "internalType": "uint256",
          "name": "mintAmount_",
          "type": "uint256"
        }
      ],
      "stateMutability": "nonpayable",
      "type": "function"
    },
    {
      "inputs": [],
      "name": "name",
      "outputs": [
        {
          "internalType": "string",
          "name": "",
          "type": "string"
        }
      ],
      "stateMutability": "view",
      "type": "function"
    },
    {
      "inputs": [
        {
          "internalType": "uint256",
          "name": "amount",
          "type": "uint256"
        }
      ],
      "name": "redeem",
      "outputs": [],
      "stateMutability": "nonpayable",
      "type": "function"
    },
    {
      "inputs": [
        {
          "internalType": "uint256",
          "name": "amount",
          "type": "uint256"
        }
      ],
      "name": "redeemUnderlying",
      "outputs": [],
      "stateMutability": "nonpayable",
      "type": "function"
    },
    {
      "inputs": [
        {
          "internalType": "bytes32",
          "name": "role",
          "type": "bytes32"
        },
        {
          "internalType": "address",
          "name": "account",
          "type": "address"
        }
      ],
      "name": "renounceRole",
      "outputs": [],
      "stateMutability": "nonpayable",
      "type": "function"
    },
    {
      "inputs": [
        {
          "internalType": "bool",
          "name": "state",
          "type": "bool"
        }
      ],
      "name": "restrict",
      "outputs": [],
      "stateMutability": "nonpayable",
      "type": "function"
    },
    {
      "inputs": [
        {
          "internalType": "bytes32",
          "name": "role",
          "type": "bytes32"
        },
        {
          "internalType": "address",
          "name": "account",
          "type": "address"
        }
      ],
      "name": "revokeRole",
      "outputs": [],
      "stateMutability": "nonpayable",
      "type": "function"
    },
    {
      "inputs": [
        {
          "internalType": "bytes4",
          "name": "interfaceId",
          "type": "bytes4"
        }
      ],
      "name": "supportsInterface",
      "outputs": [
        {
          "internalType": "bool",
          "name": "",
          "type": "bool"
        }
      ],
      "stateMutability": "view",
      "type": "function"
    },
    {
      "inputs": [],
      "name": "symbol",
      "outputs": [
        {
          "internalType": "string",
          "name": "",
          "type": "string"
        }
      ],
      "stateMutability": "view",
      "type": "function"
    },
    {
      "inputs": [],
      "name": "totalSupply",
      "outputs": [
        {
          "internalType": "uint256",
          "name": "",
          "type": "uint256"
        }
      ],
      "stateMutability": "view",
      "type": "function"
    },
    {
      "inputs": [],
      "name": "totalUnderlyingSupply",
      "outputs": [
        {
          "internalType": "uint256",
          "name": "totalSupply_",
          "type": "uint256"
        }
      ],
      "stateMutability": "nonpayable",
      "type": "function"
    },
    {
      "inputs": [
        {
          "internalType": "address",
          "name": "recipient",
          "type": "address"
        },
        {
          "internalType": "uint256",
          "name": "amount",
          "type": "uint256"
        }
      ],
      "name": "transfer",
      "outputs": [
        {
          "internalType": "bool",
          "name": "",
          "type": "bool"
        }
      ],
      "stateMutability": "nonpayable",
      "type": "function"
    },
    {
      "inputs": [
        {
          "internalType": "address",
          "name": "sender",
          "type": "address"
        },
        {
          "internalType": "address",
          "name": "recipient",
          "type": "address"
        },
        {
          "internalType": "uint256",
          "name": "amount",
          "type": "uint256"
        }
      ],
      "name": "transferFrom",
      "outputs": [
        {
          "internalType": "bool",
          "name": "",
          "type": "bool"
        }
      ],
      "stateMutability": "nonpayable",
      "type": "function"
    },
    {
      "inputs": [],
      "name": "underlying",
      "outputs": [
        {
          "internalType": "contract ERC20",
          "name": "underlying_",
          "type": "address"
        }
      ],
      "stateMutability": "view",
      "type": "function"
    }
  ],
  "transactionHash": "0xa4899d9687b5b178c725cc471015e2878fd06813de4a020efdcc69d6165069a8",
  "args": [],
  "solcInputHash": "68d48f71bec0b49e50af9b5c8246eeb7",
  "bytecode": "0x608060405234801561001057600080fd5b506126fd806100206000396000f3fe608060405234801561001057600080fd5b50600436106101fb5760003560e01c806370a082311161011a578063a6afed95116100ad578063d8774d991161007c578063d8774d9914610432578063db006a7514610445578063dd0081c714610458578063dd62ed3e14610461578063e920b1e11461049a576101fb565b8063a6afed95146103f5578063a9059cbb146103fd578063c35a380a14610410578063d547741f1461041f576101fb565b806395d89b41116100e957806395d89b41146103bf578063a0712d68146103c7578063a217fddf146103da578063a457c2d7146103e2576101fb565b806370a0823114610368578063852a12e314610391578063870ba746146103a457806391d14854146103ac576101fb565b80632f2ff15d116101925780633af9e669116101615780633af9e669146103115780633ba0b9a91461032457806369e527da1461032c5780636f307dc314610357576101fb565b80632f2ff15d146102b9578063313ce567146102cc57806336568abe146102eb57806339509351146102fe576101fb565b8063143a08d4116101ce578063143a08d41461026557806318160ddd1461027b57806323b872dd14610283578063248a9ca314610296576101fb565b806301ffc9a7146102005780630415cc151461022857806306fdde031461023d578063095ea7b314610252575b600080fd5b61021361020e366004612324565b6104ad565b60405190151581526020015b60405180910390f35b61023b6102363660046123ea565b6104e6565b005b6102456108e2565b60405161021f91906124ae565b610213610260366004612289565b610975565b61026d61098b565b60405190815260200161021f565b60995461026d565b61021361029136600461224e565b610a18565b61026d6102a43660046122ea565b60009081526065602052604090206001015490565b61023b6102c7366004612302565b610acb565b60ca54600160a01b900460ff1660405160ff909116815260200161021f565b61023b6102f9366004612302565b610b56565b61021361030c366004612289565b610bd0565b61026d61031f366004612202565b610c07565b61026d610c31565b60c95461033f906001600160a01b031681565b6040516001600160a01b03909116815260200161021f565b60ca546001600160a01b031661033f565b61026d610376366004612202565b6001600160a01b031660009081526097602052604090205490565b61023b61039f3660046122ea565b610c67565b61023b610dfc565b6102136103ba366004612302565b610f16565b610245610f41565b61026d6103d53660046122ea565b610f50565b61026d600081565b6102136103f0366004612289565b61117b565b61023b611216565b61021361040b366004612289565b611280565b61026d670de0b6b3a764000081565b61023b61042d366004612302565b61128d565b61023b6104403660046122b2565b61130d565b61023b6104533660046122ea565b611360565b61026d61271081565b61026d61046f36600461221c565b6001600160a01b03918216600090815260986020908152604080832093909416825291909152205490565b61023b6104a8366004612289565b6114ea565b60006001600160e01b03198216637965db0b60e01b14806104de57506301ffc9a760e01b6001600160e01b03198316145b90505b919050565b600054610100900460ff16806104ff575060005460ff16155b6105245760405162461bcd60e51b815260040161051b90612526565b60405180910390fd5b600054610100900460ff16158015610546576000805461ffff19166101011790555b61055c6105566020840184612202565b3b151590565b6105a85760405162461bcd60e51b815260206004820152601f60248201527f54656c6c65723a20636f6e74726f6c6c6572206e6f7420636f6e747261637400604482015260640161051b565b6105bb6105566060840160408501612202565b6106155760405162461bcd60e51b815260206004820152602560248201527f54656c6c65723a20756e6465726c79696e6720746f6b656e206e6f7420636f6e6044820152641d1c9858dd60da1b606482015260840161051b565b61064b7f70546d1c92f8c2132ae23a23f5177aa8526356051c7510df99f50e012d2215296106466020850185612202565b610b4c565b61067f7fdf8b4c520ffe197c5343c6f5aec59570151ef9a492f2c624fd45ddde6135ec426106466040850160208601612202565b61068f6080830160608401612202565b60c980546001600160a01b0319166001600160a01b03929092169190911790556106bf6060830160408401612202565b60ca80546001600160a01b0319166001600160a01b03929092169182179055604080516306fdde0360e01b8152905161081692916306fdde03916004808301926000929190829003018186803b15801561071857600080fd5b505afa15801561072c573d6000803e3d6000fd5b505050506040513d6000823e601f3d908101601f19168201604052610754919081019061234c565b6040516020016107649190612456565b60408051601f1981840301815282825260ca546395d89b4160e01b8452915190926001600160a01b03909216916395d89b41916004808301926000929190829003018186803b1580156107b657600080fd5b505afa1580156107ca573d6000803e3d6000fd5b505050506040513d6000823e601f3d908101601f191682016040526107f2919081019061234c565b6040516020016108029190612485565b6040516020818303038152906040526115b9565b60ca60009054906101000a90046001600160a01b03166001600160a01b031663313ce5676040518163ffffffff1660e01b815260040160206040518083038186803b15801561086457600080fd5b505afa158015610878573d6000803e3d6000fd5b505050506040513d601f19601f8201168201806040525081019061089c9190612419565b60ca805460ff60a81b1960ff93909316600160a01b029290921661ffff60a01b1990921691909117600160a81b17905580156108de576000805461ff00191690555b5050565b6060609a80546108f190612658565b80601f016020809104026020016040519081016040528092919081815260200182805461091d90612658565b801561096a5780601f1061093f5761010080835404028352916020019161096a565b820191906000526020600020905b81548152906001019060200180831161094d57829003601f168201915b505050505090505b90565b6000610982338484611638565b50600192915050565b60c954604051633af9e66960e01b81523060048201526000916001600160a01b031690633af9e66990602401602060405180830381600087803b1580156109d157600080fd5b505af11580156109e5573d6000803e3d6000fd5b505050506040513d601f19601f82011682018060405250810190610a099190612401565b610a1390826125be565b905090565b6000610a2584848461175d565b6001600160a01b038416600090815260986020908152604080832033845290915290205482811015610aaa5760405162461bcd60e51b815260206004820152602860248201527f45524332303a207472616e7366657220616d6f756e74206578636565647320616044820152676c6c6f77616e636560c01b606482015260840161051b565b610abe8533610ab98685612615565b611638565b60019150505b9392505050565b600082815260656020526040902060010154610ae8905b336103ba565b610b4c5760405162461bcd60e51b815260206004820152602f60248201527f416363657373436f6e74726f6c3a2073656e646572206d75737420626520616e60448201526e0818591b5a5b881d1bc819dc985b9d608a1b606482015260840161051b565b6108de8282611935565b6001600160a01b0381163314610bc65760405162461bcd60e51b815260206004820152602f60248201527f416363657373436f6e74726f6c3a2063616e206f6e6c792072656e6f756e636560448201526e103937b632b9903337b91039b2b63360891b606482015260840161051b565b6108de82826119bb565b3360008181526098602090815260408083206001600160a01b03871684529091528120549091610982918590610ab99086906125be565b6001600160a01b0381166000908152609760205260408120546104de90610c2c610c31565b611a22565b6000610c3c60995490565b610c4f5750670de0b6b3a7640000610972565b610c57611216565b610a13610c6261098b565b611a41565b60008111610cb35760405162461bcd60e51b8152602060048201526019602482015278054656c6c65723a2063616e6e6f74207769746864726177203603c1b604482015260640161051b565b610cbb61098b565b811115610cda5760405162461bcd60e51b815260040161051b90612574565b6000610ce4610c31565b90506000610cf28383611a68565b9050610cfd33610376565b811115610d1c5760405162461bcd60e51b815260040161051b906124e1565b610d263382611a7d565b60c95460405163852a12e360e01b8152600481018590526001600160a01b039091169063852a12e390602401602060405180830381600087803b158015610d6c57600080fd5b505af1158015610d80573d6000803e3d6000fd5b505050506040513d601f19601f82011682018060405250810190610da49190612401565b5060ca54610dbc906001600160a01b03163385611bcc565b604080518281526020810185905233917fe5b754fb1abb7f01b499791d0b820ae3b6af3424ac1c59768edb53f4ec31a929910160405180910390a2505050565b60ca546040516370a0823160e01b81523060048201526000916001600160a01b0316906370a082319060240160206040518083038186803b158015610e4057600080fd5b505afa158015610e54573d6000803e3d6000fd5b505050506040513d601f19601f82011682018060405250810190610e789190612401565b60ca5460c954919250610e98916001600160a01b03918216911683611c2f565b60c95460405163140e25ad60e31b8152600481018390526001600160a01b039091169063a0712d6890602401602060405180830381600087803b158015610ede57600080fd5b505af1158015610ef2573d6000803e3d6000fd5b505050506040513d601f19601f820116820180604052508101906108de9190612401565b60009182526065602090815260408084206001600160a01b0393909316845291905290205460ff1690565b6060609b80546108f190612658565b60ca54600090600160a81b900460ff161580610f915750610f917f70546d1c92f8c2132ae23a23f5177aa8526356051c7510df99f50e012d221529336103ba565b610fdd5760405162461bcd60e51b815260206004820152601b60248201527f54656c6c65723a20706c6174666f726d20726573747269637465640000000000604482015260640161051b565b600082116110255760405162461bcd60e51b8152602060048201526015602482015274054656c6c65723a2063616e6e6f74206d696e74203605c1b604482015260640161051b565b60ca546001600160a01b03166370a08231336040516001600160e01b031960e084901b1681526001600160a01b03909116600482015260240160206040518083038186803b15801561107657600080fd5b505afa15801561108a573d6000803e3d6000fd5b505050506040513d601f19601f820116820180604052508101906110ae9190612401565b8211156110fd5760405162461bcd60e51b815260206004820152601f60248201527f54656c6c65723a20696e73756666696369656e7420756e6465726c79696e6700604482015260640161051b565b61110e82611109610c31565b611a68565b60ca54909150611129906001600160a01b0316333085611cf0565b611131610dfc565b61113b3382611d28565b604080518281526020810184905233917f4c209b5fc8ad50758f13e2e1088ba56a560dff690a1c6fef26394f4c03821c4f910160405180910390a2919050565b3360009081526098602090815260408083206001600160a01b0386168452909152812054828110156111fd5760405162461bcd60e51b815260206004820152602560248201527f45524332303a2064656372656173656420616c6c6f77616e63652062656c6f77604482015264207a65726f60d81b606482015260840161051b565b61120c3385610ab98685612615565b5060019392505050565b60c960009054906101000a90046001600160a01b03166001600160a01b031663a6afed956040518163ffffffff1660e01b8152600401600060405180830381600087803b15801561126657600080fd5b505af115801561127a573d6000803e3d6000fd5b50505050565b600061098233848461175d565b6000828152606560205260409020600101546112a890610ae2565b610bc65760405162461bcd60e51b815260206004820152603060248201527f416363657373436f6e74726f6c3a2073656e646572206d75737420626520616e60448201526f2061646d696e20746f207265766f6b6560801b606482015260840161051b565b7fdf8b4c520ffe197c5343c6f5aec59570151ef9a492f2c624fd45ddde6135ec4261133881336103ba565b61134157600080fd5b5060ca8054911515600160a81b0260ff60a81b19909216919091179055565b600081116113ac5760405162461bcd60e51b8152602060048201526019602482015278054656c6c65723a2063616e6e6f74207769746864726177203603c1b604482015260640161051b565b6113b533610376565b8111156113d45760405162461bcd60e51b815260040161051b906124e1565b60006113e282610c2c610c31565b90506113ec61098b565b81111561140b5760405162461bcd60e51b815260040161051b90612574565b6114153383611a7d565b60c95460405163852a12e360e01b8152600481018390526001600160a01b039091169063852a12e390602401602060405180830381600087803b15801561145b57600080fd5b505af115801561146f573d6000803e3d6000fd5b505050506040513d601f19601f820116820180604052508101906114939190612401565b5060ca546114ab906001600160a01b03163383611bcc565b604080518381526020810183905233917fe5b754fb1abb7f01b499791d0b820ae3b6af3424ac1c59768edb53f4ec31a929910160405180910390a25050565b7f70546d1c92f8c2132ae23a23f5177aa8526356051c7510df99f50e012d22152961151581336103ba565b61151e57600080fd5b60c95460405163852a12e360e01b8152600481018490526001600160a01b039091169063852a12e390602401602060405180830381600087803b15801561156457600080fd5b505af1158015611578573d6000803e3d6000fd5b505050506040513d601f19601f8201168201806040525081019061159c9190612401565b5060ca546115b4906001600160a01b03168484611bcc565b505050565b600054610100900460ff16806115d2575060005460ff16155b6115ee5760405162461bcd60e51b815260040161051b90612526565b600054610100900460ff16158015611610576000805461ffff19166101011790555b611618611e07565b6116228383611e73565b80156115b4576000805461ff0019169055505050565b6001600160a01b03831661169a5760405162461bcd60e51b8152602060048201526024808201527f45524332303a20617070726f76652066726f6d20746865207a65726f206164646044820152637265737360e01b606482015260840161051b565b6001600160a01b0382166116fb5760405162461bcd60e51b815260206004820152602260248201527f45524332303a20617070726f766520746f20746865207a65726f206164647265604482015261737360f01b606482015260840161051b565b6001600160a01b0383811660008181526098602090815260408083209487168084529482529182902085905590518481527f8c5be1e5ebec7d5bd14f71427d1e84f3dd0314c0f7b2291e5b200ac8c7c3b92591015b60405180910390a3505050565b6001600160a01b0383166117c15760405162461bcd60e51b815260206004820152602560248201527f45524332303a207472616e736665722066726f6d20746865207a65726f206164604482015264647265737360d81b606482015260840161051b565b6001600160a01b0382166118235760405162461bcd60e51b815260206004820152602360248201527f45524332303a207472616e7366657220746f20746865207a65726f206164647260448201526265737360e81b606482015260840161051b565b6001600160a01b0383166000908152609760205260409020548181101561189b5760405162461bcd60e51b815260206004820152602660248201527f45524332303a207472616e7366657220616d6f756e7420657863656564732062604482015265616c616e636560d01b606482015260840161051b565b6118a58282612615565b6001600160a01b0380861660009081526097602052604080822093909355908516815290812080548492906118db9084906125be565b92505081905550826001600160a01b0316846001600160a01b03167fddf252ad1be2c89b69c2b068fc378daa952ba7f163c4a11628f55a4df523b3ef8460405161192791815260200190565b60405180910390a350505050565b61193f8282610f16565b6108de5760008281526065602090815260408083206001600160a01b03851684529091529020805460ff191660011790556119773390565b6001600160a01b0316816001600160a01b0316837f2f8788117e7eff1d82e926ec794901d17c78024a50270940304540a733656f0d60405160405180910390a45050565b6119c58282610f16565b156108de5760008281526065602090815260408083206001600160a01b0385168085529252808320805460ff1916905551339285917ff6391f5c32d9c69d2a47ea670b442974b53935d1edc7fd64eb21e047a839171b9190a45050565b6000670de0b6b3a7640000611a3783856125f6565b610ac491906125d6565b6000611a4c60995490565b611a5e670de0b6b3a7640000846125f6565b6104de91906125d6565b600081611a37670de0b6b3a7640000856125f6565b6001600160a01b038216611add5760405162461bcd60e51b815260206004820152602160248201527f45524332303a206275726e2066726f6d20746865207a65726f206164647265736044820152607360f81b606482015260840161051b565b6001600160a01b03821660009081526097602052604090205481811015611b515760405162461bcd60e51b815260206004820152602260248201527f45524332303a206275726e20616d6f756e7420657863656564732062616c616e604482015261636560f01b606482015260840161051b565b611b5b8282612615565b6001600160a01b03841660009081526097602052604081209190915560998054849290611b89908490612615565b90915550506040518281526000906001600160a01b038516907fddf252ad1be2c89b69c2b068fc378daa952ba7f163c4a11628f55a4df523b3ef90602001611750565b6040516001600160a01b0383166024820152604481018290526115b490849063a9059cbb60e01b906064015b60408051601f198184030181529190526020810180516001600160e01b03166001600160e01b031990931692909217909152611f08565b604051636eb1769f60e11b81523060048201526001600160a01b038381166024830152600091839186169063dd62ed3e9060440160206040518083038186803b158015611c7b57600080fd5b505afa158015611c8f573d6000803e3d6000fd5b505050506040513d601f19601f82011682018060405250810190611cb39190612401565b611cbd91906125be565b6040516001600160a01b03851660248201526044810182905290915061127a90859063095ea7b360e01b90606401611bf8565b6040516001600160a01b038085166024830152831660448201526064810182905261127a9085906323b872dd60e01b90608401611bf8565b6001600160a01b038216611d7e5760405162461bcd60e51b815260206004820152601f60248201527f45524332303a206d696e7420746f20746865207a65726f206164647265737300604482015260640161051b565b8060996000828254611d9091906125be565b90915550506001600160a01b03821660009081526097602052604081208054839290611dbd9084906125be565b90915550506040518181526001600160a01b038316906000907fddf252ad1be2c89b69c2b068fc378daa952ba7f163c4a11628f55a4df523b3ef9060200160405180910390a35050565b600054610100900460ff1680611e20575060005460ff16155b611e3c5760405162461bcd60e51b815260040161051b90612526565b600054610100900460ff16158015611e5e576000805461ffff19166101011790555b8015611e70576000805461ff00191690555b50565b600054610100900460ff1680611e8c575060005460ff16155b611ea85760405162461bcd60e51b815260040161051b90612526565b600054610100900460ff16158015611eca576000805461ffff19166101011790555b8251611edd90609a906020860190612152565b508151611ef190609b906020850190612152565b5080156115b4576000805461ff0019169055505050565b6000611f5d826040518060400160405280602081526020017f5361666545524332303a206c6f772d6c6576656c2063616c6c206661696c6564815250856001600160a01b0316611fda9092919063ffffffff16565b8051909150156115b45780806020019051810190611f7b91906122ce565b6115b45760405162461bcd60e51b815260206004820152602a60248201527f5361666545524332303a204552433230206f7065726174696f6e20646964206e6044820152691bdd081cdd58d8d9595960b21b606482015260840161051b565b6060611fe98484600085611ff1565b949350505050565b6060824710156120525760405162461bcd60e51b815260206004820152602660248201527f416464726573733a20696e73756666696369656e742062616c616e636520666f6044820152651c8818d85b1b60d21b606482015260840161051b565b843b6120a05760405162461bcd60e51b815260206004820152601d60248201527f416464726573733a2063616c6c20746f206e6f6e2d636f6e7472616374000000604482015260640161051b565b600080866001600160a01b031685876040516120bc919061243a565b60006040518083038185875af1925050503d80600081146120f9576040519150601f19603f3d011682016040523d82523d6000602084013e6120fe565b606091505b509150915061210e828286612119565b979650505050505050565b60608315612128575081610ac4565b8251156121385782518084602001fd5b8160405162461bcd60e51b815260040161051b91906124ae565b82805461215e90612658565b90600052602060002090601f01602090048101928261218057600085556121c6565b82601f1061219957805160ff19168380011785556121c6565b828001600101855582156121c6579182015b828111156121c65782518255916020019190600101906121ab565b506121d29291506121d6565b5090565b5b808211156121d257600081556001016121d7565b80356001600160a01b03811681146104e157600080fd5b600060208284031215612213578081fd5b610ac4826121eb565b6000806040838503121561222e578081fd5b612237836121eb565b9150612245602084016121eb565b90509250929050565b600080600060608486031215612262578081fd5b61226b846121eb565b9250612279602085016121eb565b9150604084013590509250925092565b6000806040838503121561229b578182fd5b6122a4836121eb565b946020939093013593505050565b6000602082840312156122c3578081fd5b8135610ac4816126b9565b6000602082840312156122df578081fd5b8151610ac4816126b9565b6000602082840312156122fb578081fd5b5035919050565b60008060408385031215612314578182fd5b82359150612245602084016121eb565b600060208284031215612335578081fd5b81356001600160e01b031981168114610ac4578182fd5b60006020828403121561235d578081fd5b815167ffffffffffffffff80821115612374578283fd5b818401915084601f830112612387578283fd5b815181811115612399576123996126a3565b604051601f8201601f19908116603f011681019083821181831017156123c1576123c16126a3565b816040528281528760208487010111156123d9578586fd5b61210e83602083016020880161262c565b6000608082840312156123fb578081fd5b50919050565b600060208284031215612412578081fd5b5051919050565b60006020828403121561242a578081fd5b815160ff81168114610ac4578182fd5b6000825161244c81846020870161262c565b9190910192915050565b60006602a32b63632b9160cd1b8252825161247881600785016020870161262c565b9190910160070192915050565b6000601d60fa1b825282516124a181600185016020870161262c565b9190910160010192915050565b60006020825282518060208401526124cd81604085016020870161262c565b601f01601f19169190910160400192915050565b60208082526025908201527f54656c6c65723a2072656465656d20616d6f756e7420657863656564732062616040820152646c616e636560d81b606082015260800190565b6020808252602e908201527f496e697469616c697a61626c653a20636f6e747261637420697320616c72656160408201526d191e481a5b9a5d1a585b1a5e995960921b606082015260800190565b6020808252602a908201527f54656c6c65723a2072656465656d2074746f6b656e206c70206e6f7420656e6f60408201526975676820737570706c7960b01b606082015260800190565b600082198211156125d1576125d161268d565b500190565b6000826125f157634e487b7160e01b81526012600452602481fd5b500490565b60008160001904831182151516156126105761261061268d565b500290565b6000828210156126275761262761268d565b500390565b60005b8381101561264757818101518382015260200161262f565b8381111561127a5750506000910152565b600181811c9082168061266c57607f821691505b602082108114156123fb57634e487b7160e01b600052602260045260246000fd5b634e487b7160e01b600052601160045260246000fd5b634e487b7160e01b600052604160045260246000fd5b8015158114611e7057600080fdfea2646970667358221220738e3d91c9544556d63699b47700bdc71499f7e02a61b5c08dd119e43364017864736f6c63430008030033",
  "devdoc": {
    "author": "develop@teller.finance",
    "kind": "dev",
    "methods": {
      "allowance(address,address)": {
        "details": "See {IERC20-allowance}."
      },
      "approve(address,uint256)": {
        "details": "See {IERC20-approve}. Requirements: - `spender` cannot be the zero address."
      },
      "balanceOf(address)": {
        "details": "See {IERC20-balanceOf}."
      },
      "decimals()": {
        "details": "Returns the number of decimals used to get its user representation. For example, if `decimals` equals `2`, a balance of `505` tokens should be displayed to a user as `5,05` (`505 / 10 ** 2`). Tokens usually opt for a value of 18, imitating the relationship between Ether and Wei. This is the value {ERC20} uses, unless this function is overloaded; NOTE: This information is only used for _display_ purposes: it in no way affects any of the arithmetic of the contract, including {IERC20-balanceOf} and {IERC20-transfer}."
      },
      "decreaseAllowance(address,uint256)": {
        "details": "Atomically decreases the allowance granted to `spender` by the caller. This is an alternative to {approve} that can be used as a mitigation for problems described in {IERC20-approve}. Emits an {Approval} event indicating the updated allowance. Requirements: - `spender` cannot be the zero address. - `spender` must have allowance for the caller of at least `subtractedValue`."
      },
      "getRoleAdmin(bytes32)": {
        "details": "Returns the admin role that controls `role`. See {grantRole} and {revokeRole}. To change a role's admin, use {_setRoleAdmin}."
      },
      "grantRole(bytes32,address)": {
        "details": "Grants `role` to `account`. If `account` had not been already granted `role`, emits a {RoleGranted} event. Requirements: - the caller must have ``role``'s admin role."
      },
      "hasRole(bytes32,address)": {
        "details": "Returns `true` if `account` has been granted `role`."
      },
      "increaseAllowance(address,uint256)": {
        "details": "Atomically increases the allowance granted to `spender` by the caller. This is an alternative to {approve} that can be used as a mitigation for problems described in {IERC20-approve}. Emits an {Approval} event indicating the updated allowance. Requirements: - `spender` cannot be the zero address."
      },
      "mint(uint256)": {
        "params": {
          "amount": "The amount of underlying tokens to use to mint."
        }
      },
      "name()": {
        "details": "Returns the name of the token."
      },
      "redeem(uint256)": {
        "params": {
          "amount": "The amount of Teller tokens to redeem."
        }
      },
      "redeemUnderlying(uint256)": {
        "params": {
          "amount": "The amount of underlying tokens to redeem."
        }
      },
      "renounceRole(bytes32,address)": {
        "details": "Revokes `role` from the calling account. Roles are often managed via {grantRole} and {revokeRole}: this function's purpose is to provide a mechanism for accounts to lose their privileges if they are compromised (such as when a trusted device is misplaced). If the calling account had been granted `role`, emits a {RoleRevoked} event. Requirements: - the caller must be `account`."
      },
      "revokeRole(bytes32,address)": {
        "details": "Revokes `role` from `account`. If `account` had been granted `role`, emits a {RoleRevoked} event. Requirements: - the caller must have ``role``'s admin role."
      },
      "supportsInterface(bytes4)": {
        "details": "See {IERC165-supportsInterface}."
      },
      "symbol()": {
        "details": "Returns the symbol of the token, usually a shorter version of the name."
      },
      "totalSupply()": {
        "details": "See {IERC20-totalSupply}."
      },
      "totalUnderlyingSupply()": {
        "returns": {
          "totalSupply_": "the total supply denoted in the underlying asset."
        }
      },
      "transfer(address,uint256)": {
        "details": "See {IERC20-transfer}. Requirements: - `recipient` cannot be the zero address. - the caller must have a balance of at least `amount`."
      },
      "transferFrom(address,address,uint256)": {
        "details": "See {IERC20-transferFrom}. Emits an {Approval} event indicating the updated allowance. This is not required by the EIP. See the note at the beginning of {ERC20}. Requirements: - `sender` and `recipient` cannot be the zero address. - `sender` must have a balance of at least `amount`. - the caller must have allowance for ``sender``'s tokens of at least `amount`."
      }
    },
    "version": 1
  },
  "userdoc": {
    "events": {
      "Mint(address,uint256,uint256)": {
        "notice": "This event is emitted when an user deposits tokens into the pool."
      },
      "Redeem(address,uint256,uint256)": {
        "notice": "This event is emitted when an user withdraws tokens from the pool."
      }
    },
    "kind": "user",
    "methods": {
      "balanceOfUnderlying(address)": {
        "notice": "The balance of an {account} denoted in underlying value."
      },
      "initialize((address,address,address,address))": {
        "notice": "Initializes the Teller token"
      },
      "mint(uint256)": {
        "notice": "Deposit underlying token amount into LP and mint tokens."
      },
      "redeem(uint256)": {
        "notice": "Redeem supplied Teller token underlying value."
      },
      "redeemUnderlying(uint256)": {
        "notice": "Redeem supplied underlying value."
      },
      "restrict(bool)": {
        "notice": "Sets the restricted state of the platform."
      },
      "totalUnderlyingSupply()": {
        "notice": "It calculates the total supply of the underlying asset."
      },
      "underlying()": {
        "notice": "The token that is the underlying assets for this Teller token."
      }
    },
    "notice": "This contract represents a lending pool for an asset within Teller protocol.",
    "version": 1
  },
  "storageLayout": {
    "storage": [
      {
        "astId": 591,
        "contract": "contracts/lending/ttoken/TToken_V1.sol:TToken_V1",
        "label": "_initialized",
        "offset": 0,
        "slot": "0",
        "type": "t_bool"
      },
      {
        "astId": 594,
        "contract": "contracts/lending/ttoken/TToken_V1.sol:TToken_V1",
        "label": "_initializing",
        "offset": 1,
        "slot": "0",
        "type": "t_bool"
      },
      {
        "astId": 2792,
        "contract": "contracts/lending/ttoken/TToken_V1.sol:TToken_V1",
        "label": "__gap",
        "offset": 0,
        "slot": "1",
        "type": "t_array(t_uint256)50_storage"
      },
      {
        "astId": 3041,
        "contract": "contracts/lending/ttoken/TToken_V1.sol:TToken_V1",
        "label": "__gap",
        "offset": 0,
        "slot": "51",
        "type": "t_array(t_uint256)50_storage"
      },
      {
        "astId": 188,
        "contract": "contracts/lending/ttoken/TToken_V1.sol:TToken_V1",
        "label": "_roles",
        "offset": 0,
        "slot": "101",
        "type": "t_mapping(t_bytes32,t_struct(RoleData)183_storage)"
      },
      {
        "astId": 452,
        "contract": "contracts/lending/ttoken/TToken_V1.sol:TToken_V1",
        "label": "__gap",
        "offset": 0,
        "slot": "102",
        "type": "t_array(t_uint256)49_storage"
      },
      {
        "astId": 647,
        "contract": "contracts/lending/ttoken/TToken_V1.sol:TToken_V1",
        "label": "_balances",
        "offset": 0,
        "slot": "151",
        "type": "t_mapping(t_address,t_uint256)"
      },
      {
        "astId": 653,
        "contract": "contracts/lending/ttoken/TToken_V1.sol:TToken_V1",
        "label": "_allowances",
        "offset": 0,
        "slot": "152",
        "type": "t_mapping(t_address,t_mapping(t_address,t_uint256))"
      },
      {
        "astId": 655,
        "contract": "contracts/lending/ttoken/TToken_V1.sol:TToken_V1",
        "label": "_totalSupply",
        "offset": 0,
        "slot": "153",
        "type": "t_uint256"
      },
      {
        "astId": 657,
        "contract": "contracts/lending/ttoken/TToken_V1.sol:TToken_V1",
        "label": "_name",
        "offset": 0,
        "slot": "154",
        "type": "t_string_storage"
      },
      {
        "astId": 659,
        "contract": "contracts/lending/ttoken/TToken_V1.sol:TToken_V1",
        "label": "_symbol",
        "offset": 0,
        "slot": "155",
        "type": "t_string_storage"
      },
      {
        "astId": 1158,
        "contract": "contracts/lending/ttoken/TToken_V1.sol:TToken_V1",
        "label": "__gap",
        "offset": 0,
        "slot": "156",
        "type": "t_array(t_uint256)45_storage"
      },
      {
        "astId": 10768,
        "contract": "contracts/lending/ttoken/TToken_V1.sol:TToken_V1",
        "label": "cToken",
        "offset": 0,
        "slot": "201",
        "type": "t_contract(ICErc20)19779"
      },
      {
        "astId": 10771,
        "contract": "contracts/lending/ttoken/TToken_V1.sol:TToken_V1",
        "label": "_underlying",
        "offset": 0,
        "slot": "202",
        "type": "t_contract(ERC20)3926"
      },
      {
        "astId": 10773,
        "contract": "contracts/lending/ttoken/TToken_V1.sol:TToken_V1",
        "label": "_decimals",
        "offset": 20,
        "slot": "202",
        "type": "t_uint8"
      },
      {
        "astId": 10775,
        "contract": "contracts/lending/ttoken/TToken_V1.sol:TToken_V1",
        "label": "_restricted",
        "offset": 21,
        "slot": "202",
        "type": "t_bool"
      }
    ],
    "types": {
      "t_address": {
        "encoding": "inplace",
        "label": "address",
        "numberOfBytes": "20"
      },
      "t_array(t_uint256)45_storage": {
        "base": "t_uint256",
        "encoding": "inplace",
        "label": "uint256[45]",
        "numberOfBytes": "1440"
      },
      "t_array(t_uint256)49_storage": {
        "base": "t_uint256",
        "encoding": "inplace",
        "label": "uint256[49]",
        "numberOfBytes": "1568"
      },
      "t_array(t_uint256)50_storage": {
        "base": "t_uint256",
        "encoding": "inplace",
        "label": "uint256[50]",
        "numberOfBytes": "1600"
      },
      "t_bool": {
        "encoding": "inplace",
        "label": "bool",
        "numberOfBytes": "1"
      },
      "t_bytes32": {
        "encoding": "inplace",
        "label": "bytes32",
        "numberOfBytes": "32"
      },
      "t_contract(ERC20)3926": {
        "encoding": "inplace",
        "label": "contract ERC20",
        "numberOfBytes": "20"
      },
      "t_contract(ICErc20)19779": {
        "encoding": "inplace",
        "label": "contract ICErc20",
        "numberOfBytes": "20"
      },
      "t_mapping(t_address,t_bool)": {
        "encoding": "mapping",
        "key": "t_address",
        "label": "mapping(address => bool)",
        "numberOfBytes": "32",
        "value": "t_bool"
      },
      "t_mapping(t_address,t_mapping(t_address,t_uint256))": {
        "encoding": "mapping",
        "key": "t_address",
        "label": "mapping(address => mapping(address => uint256))",
        "numberOfBytes": "32",
        "value": "t_mapping(t_address,t_uint256)"
      },
      "t_mapping(t_address,t_uint256)": {
        "encoding": "mapping",
        "key": "t_address",
        "label": "mapping(address => uint256)",
        "numberOfBytes": "32",
        "value": "t_uint256"
      },
      "t_mapping(t_bytes32,t_struct(RoleData)183_storage)": {
        "encoding": "mapping",
        "key": "t_bytes32",
        "label": "mapping(bytes32 => struct AccessControlUpgradeable.RoleData)",
        "numberOfBytes": "32",
        "value": "t_struct(RoleData)183_storage"
      },
      "t_string_storage": {
        "encoding": "bytes",
        "label": "string",
        "numberOfBytes": "32"
      },
      "t_struct(RoleData)183_storage": {
        "encoding": "inplace",
        "label": "struct AccessControlUpgradeable.RoleData",
        "members": [
          {
            "astId": 180,
            "contract": "contracts/lending/ttoken/TToken_V1.sol:TToken_V1",
            "label": "members",
            "offset": 0,
            "slot": "0",
            "type": "t_mapping(t_address,t_bool)"
          },
          {
            "astId": 182,
            "contract": "contracts/lending/ttoken/TToken_V1.sol:TToken_V1",
            "label": "adminRole",
            "offset": 0,
            "slot": "1",
            "type": "t_bytes32"
          }
        ],
        "numberOfBytes": "64"
      },
      "t_uint256": {
        "encoding": "inplace",
        "label": "uint256",
        "numberOfBytes": "32"
      },
      "t_uint8": {
        "encoding": "inplace",
        "label": "uint8",
        "numberOfBytes": "1"
      }
    }
  }
}