{
  "address": "0xAEf4921c22080780da12E12435d0eD11e00Ee1BF",
  "abi": [
    {
      "anonymous": false,
      "inputs": [
        {
          "indexed": true,
          "internalType": "address",
          "name": "owner",
          "type": "address"
        },
        {
          "indexed": true,
          "internalType": "address",
          "name": "spender",
          "type": "address"
        },
        {
          "indexed": false,
          "internalType": "uint256",
          "name": "value",
          "type": "uint256"
        }
      ],
      "name": "Approval",
      "type": "event"
    },
    {
      "anonymous": false,
      "inputs": [
        {
          "indexed": true,
          "internalType": "address",
          "name": "sender",
          "type": "address"
        },
        {
          "indexed": false,
          "internalType": "uint256",
          "name": "tTokenAmount",
          "type": "uint256"
        },
        {
          "indexed": false,
          "internalType": "uint256",
          "name": "underlyingAmount",
          "type": "uint256"
        }
      ],
      "name": "Mint",
      "type": "event"
    },
    {
      "anonymous": false,
      "inputs": [
        {
          "indexed": true,
          "internalType": "address",
          "name": "sender",
          "type": "address"
        },
        {
          "indexed": false,
          "internalType": "uint256",
          "name": "tTokenAmount",
          "type": "uint256"
        },
        {
          "indexed": false,
          "internalType": "uint256",
          "name": "underlyingAmount",
          "type": "uint256"
        }
      ],
      "name": "Redeem",
      "type": "event"
    },
    {
      "anonymous": false,
      "inputs": [
        {
          "indexed": true,
          "internalType": "bytes32",
          "name": "role",
          "type": "bytes32"
        },
        {
          "indexed": true,
          "internalType": "bytes32",
          "name": "previousAdminRole",
          "type": "bytes32"
        },
        {
          "indexed": true,
          "internalType": "bytes32",
          "name": "newAdminRole",
          "type": "bytes32"
        }
      ],
      "name": "RoleAdminChanged",
      "type": "event"
    },
    {
      "anonymous": false,
      "inputs": [
        {
          "indexed": true,
          "internalType": "bytes32",
          "name": "role",
          "type": "bytes32"
        },
        {
          "indexed": true,
          "internalType": "address",
          "name": "account",
          "type": "address"
        },
        {
          "indexed": true,
          "internalType": "address",
          "name": "sender",
          "type": "address"
        }
      ],
      "name": "RoleGranted",
      "type": "event"
    },
    {
      "anonymous": false,
      "inputs": [
        {
          "indexed": true,
          "internalType": "bytes32",
          "name": "role",
          "type": "bytes32"
        },
        {
          "indexed": true,
          "internalType": "address",
          "name": "account",
          "type": "address"
        },
        {
          "indexed": true,
          "internalType": "address",
          "name": "sender",
          "type": "address"
        }
      ],
      "name": "RoleRevoked",
      "type": "event"
    },
    {
      "anonymous": false,
      "inputs": [
        {
          "indexed": true,
          "internalType": "address",
          "name": "from",
          "type": "address"
        },
        {
          "indexed": true,
          "internalType": "address",
          "name": "to",
          "type": "address"
        },
        {
          "indexed": false,
          "internalType": "uint256",
          "name": "value",
          "type": "uint256"
        }
      ],
      "name": "Transfer",
      "type": "event"
    },
    {
      "inputs": [],
      "name": "DEFAULT_ADMIN_ROLE",
      "outputs": [
        {
          "internalType": "bytes32",
          "name": "",
          "type": "bytes32"
        }
      ],
      "stateMutability": "view",
      "type": "function"
    },
    {
      "inputs": [],
      "name": "EXCHANGE_RATE_FACTOR",
      "outputs": [
        {
          "internalType": "uint256",
          "name": "",
          "type": "uint256"
        }
      ],
      "stateMutability": "view",
      "type": "function"
    },
    {
      "inputs": [],
      "name": "ONE_HUNDRED_PERCENT",
      "outputs": [
        {
          "internalType": "uint256",
          "name": "",
          "type": "uint256"
        }
      ],
      "stateMutability": "view",
      "type": "function"
    },
    {
      "inputs": [],
      "name": "accrueInterest",
      "outputs": [],
      "stateMutability": "nonpayable",
      "type": "function"
    },
    {
      "inputs": [
        {
          "internalType": "address",
          "name": "owner",
          "type": "address"
        },
        {
          "internalType": "address",
          "name": "spender",
          "type": "address"
        }
      ],
      "name": "allowance",
      "outputs": [
        {
          "internalType": "uint256",
          "name": "",
          "type": "uint256"
        }
      ],
      "stateMutability": "view",
      "type": "function"
    },
    {
      "inputs": [
        {
          "internalType": "address",
          "name": "spender",
          "type": "address"
        },
        {
          "internalType": "uint256",
          "name": "amount",
          "type": "uint256"
        }
      ],
      "name": "approve",
      "outputs": [
        {
          "internalType": "bool",
          "name": "",
          "type": "bool"
        }
      ],
      "stateMutability": "nonpayable",
      "type": "function"
    },
    {
      "inputs": [
        {
          "internalType": "address",
          "name": "account",
          "type": "address"
        }
      ],
      "name": "balanceOf",
      "outputs": [
        {
          "internalType": "uint256",
          "name": "",
          "type": "uint256"
        }
      ],
      "stateMutability": "view",
      "type": "function"
    },
    {
      "inputs": [
        {
          "internalType": "address",
          "name": "account",
          "type": "address"
        }
      ],
      "name": "balanceOfUnderlying",
      "outputs": [
        {
          "internalType": "uint256",
          "name": "balance_",
          "type": "uint256"
        }
      ],
      "stateMutability": "nonpayable",
      "type": "function"
    },
    {
      "inputs": [],
      "name": "cToken",
      "outputs": [
        {
          "internalType": "contract ICErc20",
          "name": "",
          "type": "address"
        }
      ],
      "stateMutability": "view",
      "type": "function"
    },
    {
      "inputs": [],
      "name": "decimals",
      "outputs": [
        {
          "internalType": "uint8",
          "name": "decimals_",
          "type": "uint8"
        }
      ],
      "stateMutability": "view",
      "type": "function"
    },
    {
      "inputs": [
        {
          "internalType": "address",
          "name": "spender",
          "type": "address"
        },
        {
          "internalType": "uint256",
          "name": "subtractedValue",
          "type": "uint256"
        }
      ],
      "name": "decreaseAllowance",
      "outputs": [
        {
          "internalType": "bool",
          "name": "",
          "type": "bool"
        }
      ],
      "stateMutability": "nonpayable",
      "type": "function"
    },
    {
      "inputs": [],
      "name": "exchangeRate",
      "outputs": [
        {
          "internalType": "uint256",
          "name": "rate_",
          "type": "uint256"
        }
      ],
      "stateMutability": "nonpayable",
      "type": "function"
    },
    {
      "inputs": [
        {
          "internalType": "bytes32",
          "name": "role",
          "type": "bytes32"
        }
      ],
      "name": "getRoleAdmin",
      "outputs": [
        {
          "internalType": "bytes32",
          "name": "",
          "type": "bytes32"
        }
      ],
      "stateMutability": "view",
      "type": "function"
    },
    {
      "inputs": [
        {
          "internalType": "bytes32",
          "name": "role",
          "type": "bytes32"
        },
        {
          "internalType": "address",
          "name": "account",
          "type": "address"
        }
      ],
      "name": "grantRole",
      "outputs": [],
      "stateMutability": "nonpayable",
      "type": "function"
    },
    {
      "inputs": [
        {
          "internalType": "bytes32",
          "name": "role",
          "type": "bytes32"
        },
        {
          "internalType": "address",
          "name": "account",
          "type": "address"
        }
      ],
      "name": "hasRole",
      "outputs": [
        {
          "internalType": "bool",
          "name": "",
          "type": "bool"
        }
      ],
      "stateMutability": "view",
      "type": "function"
    },
    {
      "inputs": [
        {
          "internalType": "address",
          "name": "spender",
          "type": "address"
        },
        {
          "internalType": "uint256",
          "name": "addedValue",
          "type": "uint256"
        }
      ],
      "name": "increaseAllowance",
      "outputs": [
        {
          "internalType": "bool",
          "name": "",
          "type": "bool"
        }
      ],
      "stateMutability": "nonpayable",
      "type": "function"
    },
    {
      "inputs": [
        {
          "components": [
            {
              "internalType": "address",
              "name": "controller",
              "type": "address"
            },
            {
              "internalType": "address",
              "name": "admin",
              "type": "address"
            },
            {
              "internalType": "address",
              "name": "underlying",
              "type": "address"
            },
            {
              "internalType": "address",
              "name": "cToken",
              "type": "address"
            },
            {
              "internalType": "uint256",
              "name": "maxTVL",
              "type": "uint256"
            }
          ],
          "internalType": "struct InitArgs",
          "name": "args",
          "type": "tuple"
        }
      ],
      "name": "initialize",
      "outputs": [],
      "stateMutability": "nonpayable",
      "type": "function"
    },
    {
      "inputs": [],
      "name": "maxTVL",
      "outputs": [
        {
          "internalType": "uint256",
          "name": "",
          "type": "uint256"
        }
      ],
      "stateMutability": "view",
      "type": "function"
    },
    {
      "inputs": [
        {
          "internalType": "uint256",
          "name": "amount",
          "type": "uint256"
        }
      ],
      "name": "mint",
      "outputs": [
        {
          "internalType": "uint256",
          "name": "mintAmount_",
          "type": "uint256"
        }
      ],
      "stateMutability": "nonpayable",
      "type": "function"
    },
    {
      "inputs": [],
      "name": "name",
      "outputs": [
        {
          "internalType": "string",
          "name": "",
          "type": "string"
        }
      ],
      "stateMutability": "view",
      "type": "function"
    },
    {
      "inputs": [
        {
          "internalType": "uint256",
          "name": "amount",
          "type": "uint256"
        }
      ],
      "name": "redeem",
      "outputs": [],
      "stateMutability": "nonpayable",
      "type": "function"
    },
    {
      "inputs": [
        {
          "internalType": "uint256",
          "name": "amount",
          "type": "uint256"
        }
      ],
      "name": "redeemUnderlying",
      "outputs": [],
      "stateMutability": "nonpayable",
      "type": "function"
    },
    {
      "inputs": [
        {
          "internalType": "bytes32",
          "name": "role",
          "type": "bytes32"
        },
        {
          "internalType": "address",
          "name": "account",
          "type": "address"
        }
      ],
      "name": "renounceRole",
      "outputs": [],
      "stateMutability": "nonpayable",
      "type": "function"
    },
    {
      "inputs": [
        {
          "internalType": "bool",
          "name": "state",
          "type": "bool"
        }
      ],
      "name": "restrict",
      "outputs": [],
      "stateMutability": "nonpayable",
      "type": "function"
    },
    {
      "inputs": [
        {
          "internalType": "bytes32",
          "name": "role",
          "type": "bytes32"
        },
        {
          "internalType": "address",
          "name": "account",
          "type": "address"
        }
      ],
      "name": "revokeRole",
      "outputs": [],
      "stateMutability": "nonpayable",
      "type": "function"
    },
    {
      "inputs": [
        {
          "internalType": "bytes4",
          "name": "interfaceId",
          "type": "bytes4"
        }
      ],
      "name": "supportsInterface",
      "outputs": [
        {
          "internalType": "bool",
          "name": "",
          "type": "bool"
        }
      ],
      "stateMutability": "view",
      "type": "function"
    },
    {
      "inputs": [],
      "name": "symbol",
      "outputs": [
        {
          "internalType": "string",
          "name": "",
          "type": "string"
        }
      ],
      "stateMutability": "view",
      "type": "function"
    },
    {
      "inputs": [],
      "name": "totalSupply",
      "outputs": [
        {
          "internalType": "uint256",
          "name": "",
          "type": "uint256"
        }
      ],
      "stateMutability": "view",
      "type": "function"
    },
    {
      "inputs": [],
      "name": "totalUnderlyingSupply",
      "outputs": [
        {
          "internalType": "uint256",
          "name": "totalSupply_",
          "type": "uint256"
        }
      ],
      "stateMutability": "nonpayable",
      "type": "function"
    },
    {
      "inputs": [
        {
          "internalType": "address",
          "name": "recipient",
          "type": "address"
        },
        {
          "internalType": "uint256",
          "name": "amount",
          "type": "uint256"
        }
      ],
      "name": "transfer",
      "outputs": [
        {
          "internalType": "bool",
          "name": "",
          "type": "bool"
        }
      ],
      "stateMutability": "nonpayable",
      "type": "function"
    },
    {
      "inputs": [
        {
          "internalType": "address",
          "name": "sender",
          "type": "address"
        },
        {
          "internalType": "address",
          "name": "recipient",
          "type": "address"
        },
        {
          "internalType": "uint256",
          "name": "amount",
          "type": "uint256"
        }
      ],
      "name": "transferFrom",
      "outputs": [
        {
          "internalType": "bool",
          "name": "",
          "type": "bool"
        }
      ],
      "stateMutability": "nonpayable",
      "type": "function"
    },
    {
      "inputs": [],
      "name": "underlying",
      "outputs": [
        {
          "internalType": "contract ERC20",
          "name": "underlying_",
          "type": "address"
        }
      ],
      "stateMutability": "view",
      "type": "function"
    }
  ],
  "transactionHash": "0xa7376d9eefd5760ca71280e40ab85613068e4a2c8b5bdf20f1379d070af7d161",
  "args": [],
  "solcInputHash": "b659a72f1aa150bf6b0a72f0b26a550c",
  "bytecode": "0x608060405234801561001057600080fd5b5061259d806100206000396000f3fe608060405234801561001057600080fd5b50600436106101f05760003560e01c806370a082311161010f578063a9059cbb116100a2578063d8774d9911610071578063d8774d9914610428578063db006a751461043b578063dd0081c71461044e578063dd62ed3e14610457576101f0565b8063a9059cbb146103ea578063c35a380a146103fd578063d2045f6d1461040c578063d547741f14610415576101f0565b8063a0712d68116100de578063a0712d68146103b4578063a217fddf146103c7578063a457c2d7146103cf578063a6afed95146103e2576101f0565b806370a082311461035d578063852a12e31461038657806391d148541461039957806395d89b41146103ac576101f0565b80632f2ff15d116101875780633af9e669116101565780633af9e669146103065780633ba0b9a91461031957806369e527da146103215780636f307dc31461034c576101f0565b80632f2ff15d146102ae578063313ce567146102c157806336568abe146102e057806339509351146102f3576101f0565b8063143a08d4116101c3578063143a08d41461025a57806318160ddd1461027057806323b872dd14610278578063248a9ca31461028b576101f0565b806301ffc9a7146101f557806306fdde031461021d578063095ea7b3146102325780630c8f855a14610245575b600080fd5b61020861020336600461220e565b610490565b60405190151581526020015b60405180910390f35b6102256104c9565b6040516102149190612398565b610208610240366004612173565b61055c565b6102586102533660046122d4565b610572565b005b610262610976565b604051908152602001610214565b609954610262565b610208610286366004612138565b610a03565b6102626102993660046121d4565b60009081526065602052604090206001015490565b6102586102bc3660046121ec565b610ab6565b60ca54600160a01b900460ff1660405160ff9091168152602001610214565b6102586102ee3660046121ec565b610b41565b610208610301366004612173565b610bbb565b6102626103143660046120ec565b610bf2565b610262610c1c565b60c954610334906001600160a01b031681565b6040516001600160a01b039091168152602001610214565b60ca546001600160a01b0316610334565b61026261036b3660046120ec565b6001600160a01b031660009081526097602052604090205490565b6102586103943660046121d4565b610c52565b6102086103a73660046121ec565b610dc0565b610225610deb565b6102626103c23660046121d4565b610dfa565b610262600081565b6102086103dd366004612173565b61111e565b6102586111b9565b6102086103f8366004612173565b611223565b610262670de0b6b3a764000081565b61026260cb5481565b6102586104233660046121ec565b611230565b61025861043636600461219c565b6112b0565b6102586104493660046121d4565b611303565b61026261271081565b610262610465366004612106565b6001600160a01b03918216600090815260986020908152604080832093909416825291909152205490565b60006001600160e01b03198216637965db0b60e01b14806104c157506301ffc9a760e01b6001600160e01b03198316145b90505b919050565b6060609a80546104d8906124f8565b80601f0160208091040260200160405190810160405280929190818152602001828054610504906124f8565b80156105515780601f1061052657610100808354040283529160200191610551565b820191906000526020600020905b81548152906001019060200180831161053457829003601f168201915b505050505090505b90565b6000610569338484611466565b50600192915050565b600054610100900460ff168061058b575060005460ff16155b6105b05760405162461bcd60e51b81526004016105a790612410565b60405180910390fd5b600054610100900460ff161580156105d2576000805461ffff19166101011790555b6105e86105e260208401846120ec565b3b151590565b6106345760405162461bcd60e51b815260206004820152601f60248201527f54656c6c65723a20636f6e74726f6c6c6572206e6f7420636f6e74726163740060448201526064016105a7565b6106476105e260608401604085016120ec565b6106a15760405162461bcd60e51b815260206004820152602560248201527f54656c6c65723a20756e6465726c79696e6720746f6b656e206e6f7420636f6e6044820152641d1c9858dd60da1b60648201526084016105a7565b6106d77f70546d1c92f8c2132ae23a23f5177aa8526356051c7510df99f50e012d2215296106d260208501856120ec565b610b37565b61070b7fdf8b4c520ffe197c5343c6f5aec59570151ef9a492f2c624fd45ddde6135ec426106d260408501602086016120ec565b61071b60808301606084016120ec565b60c980546001600160a01b0319166001600160a01b039290921691909117905561074b60608301604084016120ec565b60ca80546001600160a01b0319166001600160a01b03929092169182179055604080516306fdde0360e01b815290516108a292916306fdde03916004808301926000929190829003018186803b1580156107a457600080fd5b505afa1580156107b8573d6000803e3d6000fd5b505050506040513d6000823e601f3d908101601f191682016040526107e09190810190612236565b6040516020016107f09190612340565b60408051601f1981840301815282825260ca546395d89b4160e01b8452915190926001600160a01b03909216916395d89b41916004808301926000929190829003018186803b15801561084257600080fd5b505afa158015610856573d6000803e3d6000fd5b505050506040513d6000823e601f3d908101601f1916820160405261087e9190810190612236565b60405160200161088e919061236f565b60405160208183030381529060405261158b565b60ca60009054906101000a90046001600160a01b03166001600160a01b031663313ce5676040518163ffffffff1660e01b815260040160206040518083038186803b1580156108f057600080fd5b505afa158015610904573d6000803e3d6000fd5b505050506040513d601f19601f820116820180604052508101906109289190612303565b60ca805460ff60a81b1960ff93909316600160a01b029290921661ffff60a01b1990921691909117600160a81b179055608082013560cb558015610972576000805461ff00191690555b5050565b60c954604051633af9e66960e01b81523060048201526000916001600160a01b031690633af9e66990602401602060405180830381600087803b1580156109bc57600080fd5b505af11580156109d0573d6000803e3d6000fd5b505050506040513d601f19601f820116820180604052508101906109f491906122eb565b6109fe908261245e565b905090565b6000610a1084848461160b565b6001600160a01b038416600090815260986020908152604080832033845290915290205482811015610a955760405162461bcd60e51b815260206004820152602860248201527f45524332303a207472616e7366657220616d6f756e74206578636565647320616044820152676c6c6f77616e636560c01b60648201526084016105a7565b610aa98533610aa486856124b5565b611466565b60019150505b9392505050565b600082815260656020526040902060010154610ad3905b336103a7565b610b375760405162461bcd60e51b815260206004820152602f60248201527f416363657373436f6e74726f6c3a2073656e646572206d75737420626520616e60448201526e0818591b5a5b881d1bc819dc985b9d608a1b60648201526084016105a7565b61097282826117e3565b6001600160a01b0381163314610bb15760405162461bcd60e51b815260206004820152602f60248201527f416363657373436f6e74726f6c3a2063616e206f6e6c792072656e6f756e636560448201526e103937b632b9903337b91039b2b63360891b60648201526084016105a7565b6109728282611869565b3360008181526098602090815260408083206001600160a01b03871684529091528120549091610569918590610aa490869061245e565b6001600160a01b0381166000908152609760205260408120546104c190610c17610c1c565b6118d0565b6000610c2760995490565b610c3a5750670de0b6b3a7640000610559565b610c426111b9565b6109fe610c4d610976565b6118ef565b60008111610c9e5760405162461bcd60e51b8152602060048201526019602482015278054656c6c65723a2063616e6e6f74207769746864726177203603c1b60448201526064016105a7565b6000610ca8610c1c565b90506000610cb68383611916565b9050610cc13361036b565b811115610ce05760405162461bcd60e51b81526004016105a7906123cb565b610cea338261192b565b60c95460405163852a12e360e01b8152600481018590526001600160a01b039091169063852a12e390602401602060405180830381600087803b158015610d3057600080fd5b505af1158015610d44573d6000803e3d6000fd5b505050506040513d601f19601f82011682018060405250810190610d6891906122eb565b5060ca54610d80906001600160a01b03163385611a7a565b604080518281526020810185905233917fe5b754fb1abb7f01b499791d0b820ae3b6af3424ac1c59768edb53f4ec31a929910160405180910390a2505050565b60009182526065602090815260408084206001600160a01b0393909316845291905290205460ff1690565b6060609b80546104d8906124f8565b60ca54600090600160a81b900460ff161580610e3b5750610e3b7f70546d1c92f8c2132ae23a23f5177aa8526356051c7510df99f50e012d221529336103a7565b610e875760405162461bcd60e51b815260206004820152601b60248201527f54656c6c65723a20706c6174666f726d2072657374726963746564000000000060448201526064016105a7565b60008211610ecf5760405162461bcd60e51b8152602060048201526015602482015274054656c6c65723a2063616e6e6f74206d696e74203605c1b60448201526064016105a7565b60ca546001600160a01b03166370a08231336040516001600160e01b031960e084901b1681526001600160a01b03909116600482015260240160206040518083038186803b158015610f2057600080fd5b505afa158015610f34573d6000803e3d6000fd5b505050506040513d601f19601f82011682018060405250810190610f5891906122eb565b821115610fa75760405162461bcd60e51b815260206004820152601f60248201527f54656c6c65723a20696e73756666696369656e7420756e6465726c79696e670060448201526064016105a7565b600080610fb2611add565b60cb549193509150610fc4858361245e565b11156110125760405162461bcd60e51b815260206004820152601860248201527f54656c6c65723a206d61782074766c206578636565646564000000000000000060448201526064016105a7565b60ca5461102a906001600160a01b0316333087611b19565b60ca5460c954611047916001600160a01b03908116911686611b51565b60c95460405163140e25ad60e31b8152600481018690526001600160a01b039091169063a0712d6890602401602060405180830381600087803b15801561108d57600080fd5b505af11580156110a1573d6000803e3d6000fd5b505050506040513d601f19601f820116820180604052508101906110c591906122eb565b506110d08483611916565b92506110dc3384611c12565b604080518481526020810186905233917f4c209b5fc8ad50758f13e2e1088ba56a560dff690a1c6fef26394f4c03821c4f910160405180910390a25050919050565b3360009081526098602090815260408083206001600160a01b0386168452909152812054828110156111a05760405162461bcd60e51b815260206004820152602560248201527f45524332303a2064656372656173656420616c6c6f77616e63652062656c6f77604482015264207a65726f60d81b60648201526084016105a7565b6111af3385610aa486856124b5565b5060019392505050565b60c960009054906101000a90046001600160a01b03166001600160a01b031663a6afed956040518163ffffffff1660e01b8152600401600060405180830381600087803b15801561120957600080fd5b505af115801561121d573d6000803e3d6000fd5b50505050565b600061056933848461160b565b60008281526065602052604090206001015461124b90610acd565b610bb15760405162461bcd60e51b815260206004820152603060248201527f416363657373436f6e74726f6c3a2073656e646572206d75737420626520616e60448201526f2061646d696e20746f207265766f6b6560801b60648201526084016105a7565b7fdf8b4c520ffe197c5343c6f5aec59570151ef9a492f2c624fd45ddde6135ec426112db81336103a7565b6112e457600080fd5b5060ca8054911515600160a81b0260ff60a81b19909216919091179055565b6000811161134f5760405162461bcd60e51b8152602060048201526019602482015278054656c6c65723a2063616e6e6f74207769746864726177203603c1b60448201526064016105a7565b6113583361036b565b8111156113775760405162461bcd60e51b81526004016105a7906123cb565b600061138582610c17610c1c565b9050611391338361192b565b60c95460405163852a12e360e01b8152600481018390526001600160a01b039091169063852a12e390602401602060405180830381600087803b1580156113d757600080fd5b505af11580156113eb573d6000803e3d6000fd5b505050506040513d601f19601f8201168201806040525081019061140f91906122eb565b5060ca54611427906001600160a01b03163383611a7a565b604080518381526020810183905233917fe5b754fb1abb7f01b499791d0b820ae3b6af3424ac1c59768edb53f4ec31a929910160405180910390a25050565b6001600160a01b0383166114c85760405162461bcd60e51b8152602060048201526024808201527f45524332303a20617070726f76652066726f6d20746865207a65726f206164646044820152637265737360e01b60648201526084016105a7565b6001600160a01b0382166115295760405162461bcd60e51b815260206004820152602260248201527f45524332303a20617070726f766520746f20746865207a65726f206164647265604482015261737360f01b60648201526084016105a7565b6001600160a01b0383811660008181526098602090815260408083209487168084529482529182902085905590518481527f8c5be1e5ebec7d5bd14f71427d1e84f3dd0314c0f7b2291e5b200ac8c7c3b92591015b60405180910390a3505050565b600054610100900460ff16806115a4575060005460ff16155b6115c05760405162461bcd60e51b81526004016105a790612410565b600054610100900460ff161580156115e2576000805461ffff19166101011790555b6115ea611cf1565b6115f48383611d5d565b8015611606576000805461ff00191690555b505050565b6001600160a01b03831661166f5760405162461bcd60e51b815260206004820152602560248201527f45524332303a207472616e736665722066726f6d20746865207a65726f206164604482015264647265737360d81b60648201526084016105a7565b6001600160a01b0382166116d15760405162461bcd60e51b815260206004820152602360248201527f45524332303a207472616e7366657220746f20746865207a65726f206164647260448201526265737360e81b60648201526084016105a7565b6001600160a01b038316600090815260976020526040902054818110156117495760405162461bcd60e51b815260206004820152602660248201527f45524332303a207472616e7366657220616d6f756e7420657863656564732062604482015265616c616e636560d01b60648201526084016105a7565b61175382826124b5565b6001600160a01b03808616600090815260976020526040808220939093559085168152908120805484929061178990849061245e565b92505081905550826001600160a01b0316846001600160a01b03167fddf252ad1be2c89b69c2b068fc378daa952ba7f163c4a11628f55a4df523b3ef846040516117d591815260200190565b60405180910390a350505050565b6117ed8282610dc0565b6109725760008281526065602090815260408083206001600160a01b03851684529091529020805460ff191660011790556118253390565b6001600160a01b0316816001600160a01b0316837f2f8788117e7eff1d82e926ec794901d17c78024a50270940304540a733656f0d60405160405180910390a45050565b6118738282610dc0565b156109725760008281526065602090815260408083206001600160a01b0385168085529252808320805460ff1916905551339285917ff6391f5c32d9c69d2a47ea670b442974b53935d1edc7fd64eb21e047a839171b9190a45050565b6000670de0b6b3a76400006118e58385612496565b610aaf9190612476565b60006118fa60995490565b61190c670de0b6b3a764000084612496565b6104c19190612476565b6000816118e5670de0b6b3a764000085612496565b6001600160a01b03821661198b5760405162461bcd60e51b815260206004820152602160248201527f45524332303a206275726e2066726f6d20746865207a65726f206164647265736044820152607360f81b60648201526084016105a7565b6001600160a01b038216600090815260976020526040902054818110156119ff5760405162461bcd60e51b815260206004820152602260248201527f45524332303a206275726e20616d6f756e7420657863656564732062616c616e604482015261636560f01b60648201526084016105a7565b611a0982826124b5565b6001600160a01b03841660009081526097602052604081209190915560998054849290611a379084906124b5565b90915550506040518281526000906001600160a01b038516907fddf252ad1be2c89b69c2b068fc378daa952ba7f163c4a11628f55a4df523b3ef9060200161157e565b6040516001600160a01b03831660248201526044810182905261160690849063a9059cbb60e01b906064015b60408051601f198184030181529190526020810180516001600160e01b03166001600160e01b031990931692909217909152611df2565b600080611ae86111b9565b609954611aff57670de0b6b3a76400009150611b15565b611b07610976565b9050611b12816118ef565b91505b9091565b6040516001600160a01b038085166024830152831660448201526064810182905261121d9085906323b872dd60e01b90608401611aa6565b604051636eb1769f60e11b81523060048201526001600160a01b038381166024830152600091839186169063dd62ed3e9060440160206040518083038186803b158015611b9d57600080fd5b505afa158015611bb1573d6000803e3d6000fd5b505050506040513d601f19601f82011682018060405250810190611bd591906122eb565b611bdf919061245e565b6040516001600160a01b03851660248201526044810182905290915061121d90859063095ea7b360e01b90606401611aa6565b6001600160a01b038216611c685760405162461bcd60e51b815260206004820152601f60248201527f45524332303a206d696e7420746f20746865207a65726f20616464726573730060448201526064016105a7565b8060996000828254611c7a919061245e565b90915550506001600160a01b03821660009081526097602052604081208054839290611ca790849061245e565b90915550506040518181526001600160a01b038316906000907fddf252ad1be2c89b69c2b068fc378daa952ba7f163c4a11628f55a4df523b3ef9060200160405180910390a35050565b600054610100900460ff1680611d0a575060005460ff16155b611d265760405162461bcd60e51b81526004016105a790612410565b600054610100900460ff16158015611d48576000805461ffff19166101011790555b8015611d5a576000805461ff00191690555b50565b600054610100900460ff1680611d76575060005460ff16155b611d925760405162461bcd60e51b81526004016105a790612410565b600054610100900460ff16158015611db4576000805461ffff19166101011790555b8251611dc790609a90602086019061203c565b508151611ddb90609b90602085019061203c565b508015611606576000805461ff0019169055505050565b6000611e47826040518060400160405280602081526020017f5361666545524332303a206c6f772d6c6576656c2063616c6c206661696c6564815250856001600160a01b0316611ec49092919063ffffffff16565b8051909150156116065780806020019051810190611e6591906121b8565b6116065760405162461bcd60e51b815260206004820152602a60248201527f5361666545524332303a204552433230206f7065726174696f6e20646964206e6044820152691bdd081cdd58d8d9595960b21b60648201526084016105a7565b6060611ed38484600085611edb565b949350505050565b606082471015611f3c5760405162461bcd60e51b815260206004820152602660248201527f416464726573733a20696e73756666696369656e742062616c616e636520666f6044820152651c8818d85b1b60d21b60648201526084016105a7565b843b611f8a5760405162461bcd60e51b815260206004820152601d60248201527f416464726573733a2063616c6c20746f206e6f6e2d636f6e747261637400000060448201526064016105a7565b600080866001600160a01b03168587604051611fa69190612324565b60006040518083038185875af1925050503d8060008114611fe3576040519150601f19603f3d011682016040523d82523d6000602084013e611fe8565b606091505b5091509150611ff8828286612003565b979650505050505050565b60608315612012575081610aaf565b8251156120225782518084602001fd5b8160405162461bcd60e51b81526004016105a79190612398565b828054612048906124f8565b90600052602060002090601f01602090048101928261206a57600085556120b0565b82601f1061208357805160ff19168380011785556120b0565b828001600101855582156120b0579182015b828111156120b0578251825591602001919060010190612095565b506120bc9291506120c0565b5090565b5b808211156120bc57600081556001016120c1565b80356001600160a01b03811681146104c457600080fd5b6000602082840312156120fd578081fd5b610aaf826120d5565b60008060408385031215612118578081fd5b612121836120d5565b915061212f602084016120d5565b90509250929050565b60008060006060848603121561214c578081fd5b612155846120d5565b9250612163602085016120d5565b9150604084013590509250925092565b60008060408385031215612185578182fd5b61218e836120d5565b946020939093013593505050565b6000602082840312156121ad578081fd5b8135610aaf81612559565b6000602082840312156121c9578081fd5b8151610aaf81612559565b6000602082840312156121e5578081fd5b5035919050565b600080604083850312156121fe578182fd5b8235915061212f602084016120d5565b60006020828403121561221f578081fd5b81356001600160e01b031981168114610aaf578182fd5b600060208284031215612247578081fd5b815167ffffffffffffffff8082111561225e578283fd5b818401915084601f830112612271578283fd5b81518181111561228357612283612543565b604051601f8201601f19908116603f011681019083821181831017156122ab576122ab612543565b816040528281528760208487010111156122c3578586fd5b611ff88360208301602088016124cc565b600060a082840312156122e5578081fd5b50919050565b6000602082840312156122fc578081fd5b5051919050565b600060208284031215612314578081fd5b815160ff81168114610aaf578182fd5b600082516123368184602087016124cc565b9190910192915050565b60006602a32b63632b9160cd1b825282516123628160078501602087016124cc565b9190910160070192915050565b6000601d60fa1b8252825161238b8160018501602087016124cc565b9190910160010192915050565b60006020825282518060208401526123b78160408501602087016124cc565b601f01601f19169190910160400192915050565b60208082526025908201527f54656c6c65723a2072656465656d20616d6f756e7420657863656564732062616040820152646c616e636560d81b606082015260800190565b6020808252602e908201527f496e697469616c697a61626c653a20636f6e747261637420697320616c72656160408201526d191e481a5b9a5d1a585b1a5e995960921b606082015260800190565b600082198211156124715761247161252d565b500190565b60008261249157634e487b7160e01b81526012600452602481fd5b500490565b60008160001904831182151516156124b0576124b061252d565b500290565b6000828210156124c7576124c761252d565b500390565b60005b838110156124e75781810151838201526020016124cf565b8381111561121d5750506000910152565b600181811c9082168061250c57607f821691505b602082108114156122e557634e487b7160e01b600052602260045260246000fd5b634e487b7160e01b600052601160045260246000fd5b634e487b7160e01b600052604160045260246000fd5b8015158114611d5a57600080fdfea264697066735822122090afa5244620ce05e30c3d66e71977c16d8e26aa38870fe8142471d2a0ba589a64736f6c63430008030033",
  "devdoc": {
    "author": "develop@teller.finance",
    "kind": "dev",
    "methods": {
      "allowance(address,address)": {
        "details": "See {IERC20-allowance}."
      },
      "approve(address,uint256)": {
        "details": "See {IERC20-approve}. Requirements: - `spender` cannot be the zero address."
      },
      "balanceOf(address)": {
        "details": "See {IERC20-balanceOf}."
      },
      "decimals()": {
        "details": "Returns the number of decimals used to get its user representation. For example, if `decimals` equals `2`, a balance of `505` tokens should be displayed to a user as `5,05` (`505 / 10 ** 2`). Tokens usually opt for a value of 18, imitating the relationship between Ether and Wei. This is the value {ERC20} uses, unless this function is overloaded; NOTE: This information is only used for _display_ purposes: it in no way affects any of the arithmetic of the contract, including {IERC20-balanceOf} and {IERC20-transfer}."
      },
      "decreaseAllowance(address,uint256)": {
        "details": "Atomically decreases the allowance granted to `spender` by the caller. This is an alternative to {approve} that can be used as a mitigation for problems described in {IERC20-approve}. Emits an {Approval} event indicating the updated allowance. Requirements: - `spender` cannot be the zero address. - `spender` must have allowance for the caller of at least `subtractedValue`."
      },
      "getRoleAdmin(bytes32)": {
        "details": "Returns the admin role that controls `role`. See {grantRole} and {revokeRole}. To change a role's admin, use {_setRoleAdmin}."
      },
      "grantRole(bytes32,address)": {
        "details": "Grants `role` to `account`. If `account` had not been already granted `role`, emits a {RoleGranted} event. Requirements: - the caller must have ``role``'s admin role."
      },
      "hasRole(bytes32,address)": {
        "details": "Returns `true` if `account` has been granted `role`."
      },
      "increaseAllowance(address,uint256)": {
        "details": "Atomically increases the allowance granted to `spender` by the caller. This is an alternative to {approve} that can be used as a mitigation for problems described in {IERC20-approve}. Emits an {Approval} event indicating the updated allowance. Requirements: - `spender` cannot be the zero address."
      },
      "mint(uint256)": {
        "params": {
          "amount": "The amount of underlying tokens to use to mint."
        }
      },
      "name()": {
        "details": "Returns the name of the token."
      },
      "redeem(uint256)": {
        "params": {
          "amount": "The amount of Teller tokens to redeem."
        }
      },
      "redeemUnderlying(uint256)": {
        "params": {
          "amount": "The amount of underlying tokens to redeem."
        }
      },
      "renounceRole(bytes32,address)": {
        "details": "Revokes `role` from the calling account. Roles are often managed via {grantRole} and {revokeRole}: this function's purpose is to provide a mechanism for accounts to lose their privileges if they are compromised (such as when a trusted device is misplaced). If the calling account had been granted `role`, emits a {RoleRevoked} event. Requirements: - the caller must be `account`."
      },
      "revokeRole(bytes32,address)": {
        "details": "Revokes `role` from `account`. If `account` had been granted `role`, emits a {RoleRevoked} event. Requirements: - the caller must have ``role``'s admin role."
      },
      "supportsInterface(bytes4)": {
        "details": "See {IERC165-supportsInterface}."
      },
      "symbol()": {
        "details": "Returns the symbol of the token, usually a shorter version of the name."
      },
      "totalSupply()": {
        "details": "See {IERC20-totalSupply}."
      },
      "totalUnderlyingSupply()": {
        "returns": {
          "totalSupply_": "the total supply denoted in the underlying asset."
        }
      },
      "transfer(address,uint256)": {
        "details": "See {IERC20-transfer}. Requirements: - `recipient` cannot be the zero address. - the caller must have a balance of at least `amount`."
      },
      "transferFrom(address,address,uint256)": {
        "details": "See {IERC20-transferFrom}. Emits an {Approval} event indicating the updated allowance. This is not required by the EIP. See the note at the beginning of {ERC20}. Requirements: - `sender` and `recipient` cannot be the zero address. - `sender` must have a balance of at least `amount`. - the caller must have allowance for ``sender``'s tokens of at least `amount`."
      }
    },
    "version": 1
  },
  "userdoc": {
    "events": {
      "Mint(address,uint256,uint256)": {
        "notice": "This event is emitted when an user deposits tokens into the pool."
      },
      "Redeem(address,uint256,uint256)": {
        "notice": "This event is emitted when an user withdraws tokens from the pool."
      }
    },
    "kind": "user",
    "methods": {
      "balanceOfUnderlying(address)": {
        "notice": "The balance of an {account} denoted in underlying value."
      },
      "initialize((address,address,address,address,uint256))": {
        "notice": "Initializes the Teller token"
      },
      "mint(uint256)": {
        "notice": "Deposit underlying token amount into LP and mint tokens."
      },
      "redeem(uint256)": {
        "notice": "Redeem supplied Teller token underlying value."
      },
      "redeemUnderlying(uint256)": {
        "notice": "Redeem supplied underlying value."
      },
      "restrict(bool)": {
        "notice": "Sets the restricted state of the platform."
      },
      "totalUnderlyingSupply()": {
        "notice": "It calculates the total supply of the underlying asset."
      },
      "underlying()": {
        "notice": "The token that is the underlying assets for this Teller token."
      }
    },
    "notice": "This contract represents a lending pool for an asset within Teller protocol.",
    "version": 1
  },
  "storageLayout": {
    "storage": [
      {
        "astId": 779,
        "contract": "contracts/lending/ttoken/TToken_V1.sol:TToken_V1",
        "label": "_initialized",
        "offset": 0,
        "slot": "0",
        "type": "t_bool"
      },
      {
        "astId": 782,
        "contract": "contracts/lending/ttoken/TToken_V1.sol:TToken_V1",
        "label": "_initializing",
        "offset": 1,
        "slot": "0",
        "type": "t_bool"
      },
      {
        "astId": 2980,
        "contract": "contracts/lending/ttoken/TToken_V1.sol:TToken_V1",
        "label": "__gap",
        "offset": 0,
        "slot": "1",
        "type": "t_array(t_uint256)50_storage"
      },
      {
        "astId": 3229,
        "contract": "contracts/lending/ttoken/TToken_V1.sol:TToken_V1",
        "label": "__gap",
        "offset": 0,
        "slot": "51",
        "type": "t_array(t_uint256)50_storage"
      },
      {
        "astId": 376,
        "contract": "contracts/lending/ttoken/TToken_V1.sol:TToken_V1",
        "label": "_roles",
        "offset": 0,
        "slot": "101",
        "type": "t_mapping(t_bytes32,t_struct(RoleData)371_storage)"
      },
      {
        "astId": 640,
        "contract": "contracts/lending/ttoken/TToken_V1.sol:TToken_V1",
        "label": "__gap",
        "offset": 0,
        "slot": "102",
        "type": "t_array(t_uint256)49_storage"
      },
      {
        "astId": 835,
        "contract": "contracts/lending/ttoken/TToken_V1.sol:TToken_V1",
        "label": "_balances",
        "offset": 0,
        "slot": "151",
        "type": "t_mapping(t_address,t_uint256)"
      },
      {
        "astId": 841,
        "contract": "contracts/lending/ttoken/TToken_V1.sol:TToken_V1",
        "label": "_allowances",
        "offset": 0,
        "slot": "152",
        "type": "t_mapping(t_address,t_mapping(t_address,t_uint256))"
      },
      {
        "astId": 843,
        "contract": "contracts/lending/ttoken/TToken_V1.sol:TToken_V1",
        "label": "_totalSupply",
        "offset": 0,
        "slot": "153",
        "type": "t_uint256"
      },
      {
        "astId": 845,
        "contract": "contracts/lending/ttoken/TToken_V1.sol:TToken_V1",
        "label": "_name",
        "offset": 0,
        "slot": "154",
        "type": "t_string_storage"
      },
      {
        "astId": 847,
        "contract": "contracts/lending/ttoken/TToken_V1.sol:TToken_V1",
        "label": "_symbol",
        "offset": 0,
        "slot": "155",
        "type": "t_string_storage"
      },
      {
        "astId": 1346,
        "contract": "contracts/lending/ttoken/TToken_V1.sol:TToken_V1",
        "label": "__gap",
        "offset": 0,
        "slot": "156",
        "type": "t_array(t_uint256)45_storage"
      },
      {
        "astId": 11590,
        "contract": "contracts/lending/ttoken/TToken_V1.sol:TToken_V1",
        "label": "cToken",
        "offset": 0,
        "slot": "201",
        "type": "t_contract(ICErc20)19191"
      },
      {
        "astId": 11593,
        "contract": "contracts/lending/ttoken/TToken_V1.sol:TToken_V1",
        "label": "_underlying",
        "offset": 0,
        "slot": "202",
        "type": "t_contract(ERC20)4114"
      },
      {
        "astId": 11595,
        "contract": "contracts/lending/ttoken/TToken_V1.sol:TToken_V1",
        "label": "_decimals",
        "offset": 20,
        "slot": "202",
        "type": "t_uint8"
      },
      {
        "astId": 11597,
        "contract": "contracts/lending/ttoken/TToken_V1.sol:TToken_V1",
        "label": "_restricted",
        "offset": 21,
        "slot": "202",
        "type": "t_bool"
      },
      {
        "astId": 11599,
        "contract": "contracts/lending/ttoken/TToken_V1.sol:TToken_V1",
        "label": "maxTVL",
        "offset": 0,
        "slot": "203",
        "type": "t_uint256"
      }
    ],
    "types": {
      "t_address": {
        "encoding": "inplace",
        "label": "address",
        "numberOfBytes": "20"
      },
      "t_array(t_uint256)45_storage": {
        "base": "t_uint256",
        "encoding": "inplace",
        "label": "uint256[45]",
        "numberOfBytes": "1440"
      },
      "t_array(t_uint256)49_storage": {
        "base": "t_uint256",
        "encoding": "inplace",
        "label": "uint256[49]",
        "numberOfBytes": "1568"
      },
      "t_array(t_uint256)50_storage": {
        "base": "t_uint256",
        "encoding": "inplace",
        "label": "uint256[50]",
        "numberOfBytes": "1600"
      },
      "t_bool": {
        "encoding": "inplace",
        "label": "bool",
        "numberOfBytes": "1"
      },
      "t_bytes32": {
        "encoding": "inplace",
        "label": "bytes32",
        "numberOfBytes": "32"
      },
      "t_contract(ERC20)4114": {
        "encoding": "inplace",
        "label": "contract ERC20",
        "numberOfBytes": "20"
      },
      "t_contract(ICErc20)19191": {
        "encoding": "inplace",
        "label": "contract ICErc20",
        "numberOfBytes": "20"
      },
      "t_mapping(t_address,t_bool)": {
        "encoding": "mapping",
        "key": "t_address",
        "label": "mapping(address => bool)",
        "numberOfBytes": "32",
        "value": "t_bool"
      },
      "t_mapping(t_address,t_mapping(t_address,t_uint256))": {
        "encoding": "mapping",
        "key": "t_address",
        "label": "mapping(address => mapping(address => uint256))",
        "numberOfBytes": "32",
        "value": "t_mapping(t_address,t_uint256)"
      },
      "t_mapping(t_address,t_uint256)": {
        "encoding": "mapping",
        "key": "t_address",
        "label": "mapping(address => uint256)",
        "numberOfBytes": "32",
        "value": "t_uint256"
      },
      "t_mapping(t_bytes32,t_struct(RoleData)371_storage)": {
        "encoding": "mapping",
        "key": "t_bytes32",
        "label": "mapping(bytes32 => struct AccessControlUpgradeable.RoleData)",
        "numberOfBytes": "32",
        "value": "t_struct(RoleData)371_storage"
      },
      "t_string_storage": {
        "encoding": "bytes",
        "label": "string",
        "numberOfBytes": "32"
      },
      "t_struct(RoleData)371_storage": {
        "encoding": "inplace",
        "label": "struct AccessControlUpgradeable.RoleData",
        "members": [
          {
            "astId": 368,
            "contract": "contracts/lending/ttoken/TToken_V1.sol:TToken_V1",
            "label": "members",
            "offset": 0,
            "slot": "0",
            "type": "t_mapping(t_address,t_bool)"
          },
          {
            "astId": 370,
            "contract": "contracts/lending/ttoken/TToken_V1.sol:TToken_V1",
            "label": "adminRole",
            "offset": 0,
            "slot": "1",
            "type": "t_bytes32"
          }
        ],
        "numberOfBytes": "64"
      },
      "t_uint256": {
        "encoding": "inplace",
        "label": "uint256",
        "numberOfBytes": "32"
      },
      "t_uint8": {
        "encoding": "inplace",
        "label": "uint8",
        "numberOfBytes": "1"
      }
    }
  }
}