{
  "address": "0x59C31a02Fdb6D96769D1B3a02f2749cd2ea1A43B",
  "abi": [
    {
      "anonymous": false,
      "inputs": [
        {
          "indexed": false,
          "internalType": "address",
          "name": "tokenAddress",
          "type": "address"
        },
        {
          "indexed": false,
          "internalType": "uint256",
          "name": "index",
          "type": "uint256"
        }
      ],
      "name": "TokenAdded",
      "type": "event"
    },
    {
      "anonymous": false,
      "inputs": [
        {
          "indexed": false,
          "internalType": "address",
          "name": "tokenAddress",
          "type": "address"
        },
        {
          "indexed": false,
          "internalType": "uint256",
          "name": "index",
          "type": "uint256"
        }
      ],
      "name": "TokenRemoved",
      "type": "event"
    },
    {
      "anonymous": false,
      "inputs": [
        {
          "indexed": true,
          "internalType": "address",
          "name": "sourceToken",
          "type": "address"
        },
        {
          "indexed": true,
          "internalType": "address",
          "name": "destinationToken",
          "type": "address"
        },
        {
          "indexed": false,
          "internalType": "uint256",
          "name": "sourceAmount",
          "type": "uint256"
        },
        {
          "indexed": false,
          "internalType": "uint256",
          "name": "destinationAmount",
          "type": "uint256"
        }
      ],
      "name": "UniswapSwapped",
      "type": "event"
    },
    {
      "constant": true,
      "inputs": [],
      "name": "borrower",
      "outputs": [
        {
          "internalType": "address",
          "name": "",
          "type": "address"
        }
      ],
      "payable": false,
      "stateMutability": "view",
      "type": "function"
    },
    {
      "constant": true,
      "inputs": [],
      "name": "getTokens",
      "outputs": [
        {
          "internalType": "address[]",
          "name": "",
          "type": "address[]"
        }
      ],
      "payable": false,
      "stateMutability": "view",
      "type": "function"
    },
    {
      "constant": true,
      "inputs": [],
      "name": "implementationStored",
      "outputs": [
        {
          "internalType": "address",
          "name": "",
          "type": "address"
        }
      ],
      "payable": false,
      "stateMutability": "view",
      "type": "function"
    },
    {
      "constant": true,
      "inputs": [],
      "name": "lendingPool",
      "outputs": [
        {
          "internalType": "address",
          "name": "",
          "type": "address"
        }
      ],
      "payable": false,
      "stateMutability": "view",
      "type": "function"
    },
    {
      "constant": true,
      "inputs": [],
      "name": "lendingToken",
      "outputs": [
        {
          "internalType": "address",
          "name": "",
          "type": "address"
        }
      ],
      "payable": false,
      "stateMutability": "view",
      "type": "function"
    },
    {
      "constant": true,
      "inputs": [],
      "name": "loanID",
      "outputs": [
        {
          "internalType": "uint256",
          "name": "",
          "type": "uint256"
        }
      ],
      "payable": false,
      "stateMutability": "view",
      "type": "function"
    },
    {
      "constant": true,
      "inputs": [],
      "name": "loanManager",
      "outputs": [
        {
          "internalType": "contract ILoanManager",
          "name": "",
          "type": "address"
        }
      ],
      "payable": false,
      "stateMutability": "view",
      "type": "function"
    },
    {
      "constant": true,
      "inputs": [],
      "name": "logicName",
      "outputs": [
        {
          "internalType": "bytes32",
          "name": "",
          "type": "bytes32"
        }
      ],
      "payable": false,
      "stateMutability": "view",
      "type": "function"
    },
    {
      "constant": true,
      "inputs": [],
      "name": "logicRegistry",
      "outputs": [
        {
          "internalType": "contract LogicVersionsRegistryInterface",
          "name": "",
          "type": "address"
        }
      ],
      "payable": false,
      "stateMutability": "view",
      "type": "function"
    },
    {
      "constant": true,
      "inputs": [],
      "name": "router",
      "outputs": [
        {
          "internalType": "contract IUniswapV2Router02",
          "name": "",
          "type": "address"
        }
      ],
      "payable": false,
      "stateMutability": "view",
      "type": "function"
    },
    {
      "constant": true,
      "inputs": [],
      "name": "settings",
      "outputs": [
        {
          "internalType": "contract SettingsInterface",
          "name": "",
          "type": "address"
        }
      ],
      "payable": false,
      "stateMutability": "view",
      "type": "function"
    },
    {
      "constant": true,
      "inputs": [],
      "name": "strictDynamic",
      "outputs": [
        {
          "internalType": "bool",
          "name": "",
          "type": "bool"
        }
      ],
      "payable": false,
      "stateMutability": "view",
      "type": "function"
    },
    {
      "constant": false,
      "inputs": [
        {
          "internalType": "address[]",
          "name": "path",
          "type": "address[]"
        },
        {
          "internalType": "uint256",
          "name": "sourceAmount",
          "type": "uint256"
        },
        {
          "internalType": "uint256",
          "name": "minDestination",
          "type": "uint256"
        }
      ],
      "name": "swap",
      "outputs": [],
      "payable": false,
      "stateMutability": "nonpayable",
      "type": "function"
    },
    {
      "constant": false,
      "inputs": [
        {
          "internalType": "address",
          "name": "newImplementation",
          "type": "address"
        }
      ],
      "name": "upgradeProxyTo",
      "outputs": [],
      "payable": false,
      "stateMutability": "nonpayable",
      "type": "function"
    }
  ],
  "transactionHash": "0x5429a9eafcf850a7b4014924029cdf3296a06e3b76ec2e27404405ed1e750e6c",
  "args": [],
  "solcInputHash": "3790d34ca1d72794863015ffe08f35de",
  "bytecode": "0x608060405234801561001057600080fd5b5061148b806100206000396000f3fe608060405234801561001057600080fd5b50600436106100ea5760003560e01c8063a59a99731161008c578063b3ccbcfe11610066578063b3ccbcfe14610187578063e06174e41461018f578063e154e9a414610197578063f887ea40146101ac576100ea565b8063a59a997314610162578063aa6ca8081461016a578063aaaca5581461017f576100ea565b80633f3e37e4116100c85780633f3e37e41461012a5780634f8654bc1461013f57806355dbd8eb146101475780637df1f1b91461015a576100ea565b8063215b0dc6146100ef5780632c26486d1461010d57806337c3eedc14610115575b600080fd5b6100f76101b4565b6040516101049190611087565b60405180910390f35b6100f76101ba565b61011d6101c0565b6040516101049190611022565b61013d610138366004610e27565b6101cf565b005b61011d610227565b61013d610155366004610e0b565b61023b565b61011d610291565b61011d6102a0565b6101726102af565b6040516101049190611069565b61011d610315565b61011d610324565b61011d610333565b61019f610342565b604051610104919061107c565b61011d61034b565b60115481565b60015481565b6000546001600160a01b031681565b6013546001600160a01b031633146102025760405162461bcd60e51b81526004016101f9906111b9565b60405180910390fd5b610222737a250d5630b4cf539739df2c5dacb4c659f2488d848484610363565b505050565b60025461010090046001600160a01b031681565b6000546001600160a01b031633146102655760405162461bcd60e51b81526004016101f990611343565b600280546001600160a01b0390921661010002610100600160a81b031990921691909117905543600355565b6013546001600160a01b031681565b6010546001600160a01b031681565b6060601460000180548060200260200160405190810160405280929190818152602001828054801561030a57602002820191906000526020600020905b81546001600160a01b031681526001909101906020018083116102ec575b505050505090505b90565b6012546001600160a01b031681565b600f546001600160a01b031681565b6004546001600160a01b031681565b60025460ff1681565b737a250d5630b4cf539739df2c5dacb4c659f2488d81565b6002835110156103855760405162461bcd60e51b81526004016101f9906110c3565b60008360008151811061039457fe5b602002602001015190506000846001865103815181106103b057fe5b60200260200101519050600460009054906101000a90046001600160a01b03166001600160a01b0316635004d36c6040518163ffffffff1660e01b815260040160206040518083038186803b15801561040857600080fd5b505afa15801561041c573d6000803e3d6000fd5b505050506040513d601f19601f820116820180604052506104409190810190610f8e565b6001600160a01b03166375151b63836040518263ffffffff1660e01b815260040161046b9190611022565b60206040518083038186803b15801561048357600080fd5b505afa158015610497573d6000803e3d6000fd5b505050506040513d601f19601f820116820180604052506104bb9190810190610f6e565b6104d75760405162461bcd60e51b81526004016101f990611126565b600480546040805163140134db60e21b815290516001600160a01b0390921692635004d36c928282019260209290829003018186803b15801561051957600080fd5b505afa15801561052d573d6000803e3d6000fd5b505050506040513d601f19601f820116820180604052506105519190810190610f8e565b6001600160a01b03166375151b63826040518263ffffffff1660e01b815260040161057c9190611022565b60206040518083038186803b15801561059457600080fd5b505afa1580156105a8573d6000803e3d6000fd5b505050506040513d601f19601f820116820180604052506105cc9190810190610f6e565b6105e85760405162461bcd60e51b81526004016101f990611155565b836105f283610800565b10156106105760405162461bcd60e51b81526004016101f99061120b565b60408051808201909152601081526f554e495f5352435f4453545f53414d4560801b6020820152610653906001600160a01b03841690839063ffffffff61088516565b600083116106735760405162461bcd60e51b81526004016101f990611239565b600061067e82610800565b905061069a6001600160a01b038416888763ffffffff6108b416565b6040516338ed173960e01b81526060906001600160a01b038916906338ed1739906106d190899089908c9030904290600401611381565b600060405180830381600087803b1580156106eb57600080fd5b505af11580156106ff573d6000803e3d6000fd5b505050506040513d6000823e601f3d908101601f191682016040526107279190810190610edb565b9050600061073484610800565b90508583018110156107585760405162461bcd60e51b81526004016101f9906112d5565b87518251146107795760405162461bcd60e51b81526004016101f9906111df565b60008260018451038151811061078b57fe5b6020026020010151905061079e866109a0565b6107a7856109a0565b846001600160a01b0316866001600160a01b03167f1bb1e73a9804d75cf23770eb841f89d3179041febf415b046d77b318d3b5530d8a846040516107ec929190611373565b60405180910390a350505050505050505050565b6040516370a0823160e01b81526000906001600160a01b038316906370a082319061082f903090600401611022565b60206040518083038186803b15801561084757600080fd5b505afa15801561085b573d6000803e3d6000fd5b505050506040513d601f19601f8201168201806040525061087f9190810190610faa565b92915050565b61088f8383610a74565b81906108ae5760405162461bcd60e51b81526004016101f99190611090565b50505050565b600061094482856001600160a01b031663dd62ed3e30876040518363ffffffff1660e01b81526004016108e8929190611036565b60206040518083038186803b15801561090057600080fd5b505afa158015610914573d6000803e3d6000fd5b505050506040513d601f19601f820116820180604052506109389190810190610faa565b9063ffffffff610a8616565b6040519091506108ae90859063095ea7b360e01b906109699087908690602401611050565b60408051601f198184030181529190526020810180516001600160e01b03166001600160e01b031990931692909217909152610ab2565b6000806109b460148463ffffffff610b9716565b9150915060006109c384610800565b1115610a1f5781610a1a576109df60148463ffffffff610bf016565b507ff4c563a3ea86ff1f4275e8c207df0375a51963f2b831b7bf4da8be938d92876c8382604051610a11929190611050565b60405180910390a15b610222565b811561022257610a3660148263ffffffff610cba16565b7fbe9bb4bdca0a094babd75e3a98b1d2e2390633430d0a2f6e2b9970e2ee03fb2e8382604051610a67929190611050565b60405180910390a1505050565b6001600160a01b039081169116141590565b600082820183811015610aab5760405162461bcd60e51b81526004016101f9906110ef565b9392505050565b610ac4826001600160a01b0316610cc8565b610ae05760405162461bcd60e51b81526004016101f99061130c565b60006060836001600160a01b031683604051610afc9190611006565b6000604051808303816000865af19150503d8060008114610b39576040519150601f19603f3d011682016040523d82523d6000602084013e610b3e565b606091505b509150915081610b605760405162461bcd60e51b81526004016101f990611184565b8051156108ae5780806020019051610b7b9190810190610f6e565b6108ae5760405162461bcd60e51b81526004016101f99061128b565b8154600090819015610be957506001600160a01b03821660008181526001850160205260409020548454909190859083908110610bd057fe5b6000918252602090912001546001600160a01b03161491505b9250929050565b6000610c436040518060400160405280601981526020017f454d5054595f414444524553535f4e4f545f414c4c4f57454400000000000000815250836001600160a01b0316610d0490919063ffffffff16565b600080610c508585610b97565b915091508115610c725760405162461bcd60e51b81526004016101f990611263565b505082546001818101855560008581526020808220840180546001600160a01b039097166001600160a01b031990971687179055948152940190925250604090912081905590565b610cc48282610d2c565b5050565b6000813f7fc5d2460186f7233c927e7db2dcc703c0e500b653ca82273b7bfad8045d85a470818114801590610cfc57508115155b949350505050565b610d0d82610dc0565b81906102225760405162461bcd60e51b81526004016101f99190611090565b81548110610d3957610cc4565b8154600019018114610db057815482906000198101908110610d5757fe5b9060005260206000200160009054906101000a90046001600160a01b0316828281548110610d8157fe5b9060005260206000200160006101000a8154816001600160a01b0302191690836001600160a01b031602179055505b8154610222836000198301610dce565b6001600160a01b0316151590565b8154818355818111156102225760008381526020902061022291810190830161031291905b80821115610e075760008155600101610df3565b5090565b600060208284031215610e1c578081fd5b8135610aab81611430565b600080600060608486031215610e3b578182fd5b833567ffffffffffffffff811115610e51578283fd5b80850186601f820112610e62578384fd5b80359150610e77610e72836113e4565b6113bd565b80838252602080830192508084018a828388028701011115610e97578788fd5b8794505b85851015610ec2578035610eae81611430565b845260019490940193928101928101610e9b565b5090999088013598506040909701359695505050505050565b60006020808385031215610eed578182fd5b825167ffffffffffffffff811115610f03578283fd5b80840185601f820112610f14578384fd5b80519150610f24610e72836113e4565b8281528381019082850185850284018601891015610f40578687fd5b8693505b84841015610f62578051835260019390930192918501918501610f44565b50979650505050505050565b600060208284031215610f7f578081fd5b81518015158114610aab578182fd5b600060208284031215610f9f578081fd5b8151610aab81611430565b600060208284031215610fbb578081fd5b5051919050565b6000815180845260208401935060208301825b82811015610ffc5781516001600160a01b0316865260209586019590910190600101610fd5565b5093949350505050565b60008251611018818460208701611404565b9190910192915050565b6001600160a01b0391909116815260200190565b6001600160a01b0392831681529116602082015260400190565b6001600160a01b03929092168252602082015260400190565b600060208252610aab6020830184610fc2565b901515815260200190565b90815260200190565b60006020825282518060208401526110af816040850160208701611404565b601f01601f19169190910160400192915050565b60208082526012908201527115539257d410551217d513d3d7d4d213d49560721b604082015260600190565b6020808252601b908201527f536166654d6174683a206164646974696f6e206f766572666c6f770000000000604082015260600190565b60208082526015908201527415539257d4d490d7d393d517d4d5541413d4951151605a1b604082015260600190565b60208082526015908201527415539257d114d517d393d517d4d5541413d4951151605a1b604082015260600190565b6020808252818101527f5361666545524332303a206c6f772d6c6576656c2063616c6c206661696c6564604082015260600190565b6020808252600c908201526b2727aa2fa127a92927aba2a960a11b604082015260600190565b602080825260129082015271554e495f4552524f525f5357415050494e4760701b604082015260600190565b602080825260149082015273554e495f494e53554646494349454e545f53524360601b604082015260600190565b60208082526010908201526f554e495f4d494e5f4453545f5a45524f60801b604082015260600190565b6020808252600e908201526d414444524553535f45584953545360901b604082015260600190565b6020808252602a908201527f5361666545524332303a204552433230206f7065726174696f6e20646964206e6040820152691bdd081cdd58d8d9595960b21b606082015260800190565b60208082526019908201527f554e495f42414c414e43455f4e4f545f494e4352454153454400000000000000604082015260600190565b6020808252601f908201527f5361666545524332303a2063616c6c20746f206e6f6e2d636f6e747261637400604082015260600190565b6020808252601690820152754d5553545f42455f4c4f4749435f524547495354525960501b604082015260600190565b918252602082015260400190565b600086825285602083015260a060408301526113a060a0830186610fc2565b6001600160a01b0394909416606083015250608001529392505050565b60405181810167ffffffffffffffff811182821017156113dc57600080fd5b604052919050565b600067ffffffffffffffff8211156113fa578081fd5b5060209081020190565b60005b8381101561141f578181015183820152602001611407565b838111156108ae5750506000910152565b6001600160a01b038116811461144557600080fd5b5056fea365627a7a72315820fd7a1e6d6e753f3ebdfe0b65873c863df74e6c6288a2bcb8d8be2056b1151cd76c6578706572696d656e74616cf564736f6c63430005110040",
  "devdoc": {
    "author": "develop@teller.finance",
    "methods": {
      "getTokens()": {
        "return": "The list of all tokens held by this contract."
      },
      "swap(address[],uint256,uint256)": {
        "params": {
          "minDestination": "The minimum amount of output tokens that must be received for the transaction not to revert.",
          "path": "An array of token addresses. path.length must be >= 2. Pools for each consecutive pair of addresses must exist and have liquidity.",
          "sourceAmount": "amount of source token to swap."
        }
      }
    }
  },
  "userdoc": {
    "methods": {
      "getTokens()": {
        "notice": "Returns an array of token addresses, for which this Escrow contract has a balance."
      },
      "swap(address[],uint256,uint256)": {
        "notice": "Swaps ETH/Tokens for Tokens/ETH using different Uniswap v2 Router 02 methods."
      }
    },
    "notice": "This contract is used to define Uniswap dApp actions available. All dapp actions are invoked via delegatecalls from Escrow contract, so this contract's state is really Escrow."
  },
  "storageLayout": {
    "storage": [
      {
        "astId": 11226,
        "contract": "contracts/base/escrow/dapps/Uniswap.sol:Uniswap",
        "label": "logicRegistry",
        "offset": 0,
        "slot": "0",
        "type": "t_contract(LogicVersionsRegistryInterface)11867"
      },
      {
        "astId": 11228,
        "contract": "contracts/base/escrow/dapps/Uniswap.sol:Uniswap",
        "label": "logicName",
        "offset": 0,
        "slot": "1",
        "type": "t_bytes32"
      },
      {
        "astId": 11230,
        "contract": "contracts/base/escrow/dapps/Uniswap.sol:Uniswap",
        "label": "strictDynamic",
        "offset": 0,
        "slot": "2",
        "type": "t_bool"
      },
      {
        "astId": 11232,
        "contract": "contracts/base/escrow/dapps/Uniswap.sol:Uniswap",
        "label": "implementationStored",
        "offset": 1,
        "slot": "2",
        "type": "t_address"
      },
      {
        "astId": 11234,
        "contract": "contracts/base/escrow/dapps/Uniswap.sol:Uniswap",
        "label": "_implementationBlockUpdated",
        "offset": 0,
        "slot": "3",
        "type": "t_uint256"
      },
      {
        "astId": 1762,
        "contract": "contracts/base/escrow/dapps/Uniswap.sol:Uniswap",
        "label": "settings",
        "offset": 0,
        "slot": "4",
        "type": "t_contract(SettingsInterface)12172"
      },
      {
        "astId": 1766,
        "contract": "contracts/base/escrow/dapps/Uniswap.sol:Uniswap",
        "label": "__gap",
        "offset": 0,
        "slot": "5",
        "type": "t_array(t_uint256)10_storage"
      },
      {
        "astId": 5104,
        "contract": "contracts/base/escrow/dapps/Uniswap.sol:Uniswap",
        "label": "loanManager",
        "offset": 0,
        "slot": "15",
        "type": "t_contract(ILoanManager)12515"
      },
      {
        "astId": 5106,
        "contract": "contracts/base/escrow/dapps/Uniswap.sol:Uniswap",
        "label": "lendingPool",
        "offset": 0,
        "slot": "16",
        "type": "t_address"
      },
      {
        "astId": 5108,
        "contract": "contracts/base/escrow/dapps/Uniswap.sol:Uniswap",
        "label": "loanID",
        "offset": 0,
        "slot": "17",
        "type": "t_uint256"
      },
      {
        "astId": 5110,
        "contract": "contracts/base/escrow/dapps/Uniswap.sol:Uniswap",
        "label": "lendingToken",
        "offset": 0,
        "slot": "18",
        "type": "t_address"
      },
      {
        "astId": 5112,
        "contract": "contracts/base/escrow/dapps/Uniswap.sol:Uniswap",
        "label": "borrower",
        "offset": 0,
        "slot": "19",
        "type": "t_address"
      },
      {
        "astId": 5114,
        "contract": "contracts/base/escrow/dapps/Uniswap.sol:Uniswap",
        "label": "tokens",
        "offset": 0,
        "slot": "20",
        "type": "t_struct(AddressArray)14159_storage"
      }
    ],
    "types": {
      "t_address": {
        "encoding": "inplace",
        "label": "address",
        "numberOfBytes": "20"
      },
      "t_array(t_address)dyn_storage": {
        "base": "t_address",
        "encoding": "dynamic_array",
        "label": "address[]",
        "numberOfBytes": "32"
      },
      "t_array(t_uint256)10_storage": {
        "base": "t_uint256",
        "encoding": "inplace",
        "label": "uint256[10]",
        "numberOfBytes": "320"
      },
      "t_bool": {
        "encoding": "inplace",
        "label": "bool",
        "numberOfBytes": "1"
      },
      "t_bytes32": {
        "encoding": "inplace",
        "label": "bytes32",
        "numberOfBytes": "32"
      },
      "t_contract(ILoanManager)12515": {
        "encoding": "inplace",
        "label": "contract ILoanManager",
        "numberOfBytes": "20"
      },
      "t_contract(LogicVersionsRegistryInterface)11867": {
        "encoding": "inplace",
        "label": "contract LogicVersionsRegistryInterface",
        "numberOfBytes": "20"
      },
      "t_contract(SettingsInterface)12172": {
        "encoding": "inplace",
        "label": "contract SettingsInterface",
        "numberOfBytes": "20"
      },
      "t_mapping(t_address,t_uint256)": {
        "encoding": "mapping",
        "key": "t_address",
        "label": "mapping(address => uint256)",
        "numberOfBytes": "32",
        "value": "t_uint256"
      },
      "t_struct(AddressArray)14159_storage": {
        "encoding": "inplace",
        "label": "struct AddressArrayLib.AddressArray",
        "members": [
          {
            "astId": 14154,
            "contract": "contracts/base/escrow/dapps/Uniswap.sol:Uniswap",
            "label": "array",
            "offset": 0,
            "slot": "0",
            "type": "t_array(t_address)dyn_storage"
          },
          {
            "astId": 14158,
            "contract": "contracts/base/escrow/dapps/Uniswap.sol:Uniswap",
            "label": "indices",
            "offset": 0,
            "slot": "1",
            "type": "t_mapping(t_address,t_uint256)"
          }
        ],
        "numberOfBytes": "64"
      },
      "t_uint256": {
        "encoding": "inplace",
        "label": "uint256",
        "numberOfBytes": "32"
      }
    }
  }
}