{
  "address": "0xB812f503607Ee2259E9607Cb5E5836B550ac6492",
  "abi": [
    {
      "inputs": [],
      "stateMutability": "nonpayable",
      "type": "constructor"
    },
    {
      "anonymous": false,
      "inputs": [
        {
          "indexed": false,
          "internalType": "contract Diamond",
          "name": "diamond",
          "type": "address"
        }
      ],
      "name": "DiamondCreated",
      "type": "event"
    },
    {
      "inputs": [
        {
          "internalType": "address",
          "name": "owner",
          "type": "address"
        },
        {
          "components": [
            {
              "internalType": "address",
              "name": "facetAddress",
              "type": "address"
            },
            {
              "internalType": "enum IDiamondCut.FacetCutAction",
              "name": "action",
              "type": "uint8"
            },
            {
              "internalType": "bytes4[]",
              "name": "functionSelectors",
              "type": "bytes4[]"
            }
          ],
          "internalType": "struct IDiamondCut.FacetCut[]",
          "name": "_diamondCut",
          "type": "tuple[]"
        },
        {
          "internalType": "bytes",
          "name": "data",
          "type": "bytes"
        },
        {
          "internalType": "bytes32",
          "name": "salt",
          "type": "bytes32"
        }
      ],
      "name": "createDiamond",
      "outputs": [
        {
          "internalType": "contract Diamond",
          "name": "diamond",
          "type": "address"
        }
      ],
      "stateMutability": "payable",
      "type": "function"
    }
  ],
  "artifactName": "Diamantaire",
  "transactionHash": "0xe1f12fcd3aca3ca52147640702eb693ab8398ba370870b5dcf591fbc8bfa4849",
  "args": [],
  "solcInputHash": "1d060b65b8264d57d416f20cb1fe798a",
  "bytecode": "0x60806040523480156200001157600080fd5b5060606000604051620000249062000486565b604051809103906000f08015801562000041573d6000803e3d6000fd5b5060408051600180825281830190925291925060208083019080368337019050509150631f931c1c60e01b826000815181106200007a57fe5b6001600160e01b031992909216602092830291909101820152604080516060810182526001600160a01b038481168252600093820184815292820186905283546001810185559380528151600080516020620062a083398151915260029586020180546001600160a01b0319169190921617808255925191939092839160ff60a01b1990911690600160a01b9084908111156200011357fe5b0217905550604082015180516200013591600184019160209091019062000494565b5050506000604051620001489062000547565b604051809103906000f08015801562000165573d6000803e3d6000fd5b5060408051600580825260c082019092529192506020820160a08036833701905050925063adfca15e60e01b836000815181106200019f57fe5b6001600160e01b0319909216602092830291909101909101528251637a0ed62760e01b9084906001908110620001d157fe5b6001600160e01b03199092166020928302919091019091015282516366ffd66360e11b90849060029081106200020357fe5b6001600160e01b03199092166020928302919091019091015282516314bbdacb60e21b90849060039081106200023557fe5b6001600160e01b03199092166020928302919091019091015282516301ffc9a760e01b90849060049081106200026757fe5b6001600160e01b031992909216602092830291909101820152604080516060810182526001600160a01b038481168252600093820184815292820187905283546001810185559380528151600080516020620062a083398151915260029586020180546001600160a01b0319169190921617808255925191939092839160ff60a01b1990911690600160a01b9084908111156200030057fe5b0217905550604082015180516200032291600184019160209091019062000494565b5050506000604051620003359062000555565b604051809103906000f08015801562000352573d6000803e3d6000fd5b50604080516002808252606082018352929350919060208301908036833701905050935063f2fde38b60e01b846000815181106200038c57fe5b6001600160e01b0319909216602092830291909101909101528351638da5cb5b60e01b9085906001908110620003be57fe5b6001600160e01b031992909216602092830291909101820152604080516060810182526001600160a01b038481168252600093820184815292820188905283546001810185559380528151600080516020620062a083398151915260029586020180546001600160a01b0319169190921617808255925191939092839160ff60a01b1990911690600160a01b9084908111156200045757fe5b0217905550604082015180516200047991600184019160209091019062000494565b505050505050506200057a565b611b228062003d9383390190565b82805482825590600052602060002090600701600890048101928215620005355791602002820160005b838211156200050157835183826101000a81548163ffffffff021916908360e01c02179055509260200192600401602081600301049283019260010302620004be565b8015620005335782816101000a81549063ffffffff021916905560040160208160030104928301926001030262000501565b505b506200054392915062000563565b5090565b61073d80620058b583390190565b6102ae8062005ff283390190565b5b8082111562000543576000815560010162000564565b613809806200058a6000396000f3fe608060405260043610620000205760003560e01c8063ccc2e3161462000025575b600080fd5b6200003c620000363660046200031a565b62000054565b6040516200004b919062000524565b60405180910390f35b60008115620000f957818760405160200162000072929190620004f1565b604051602081830303815290604052805190602001209150348290600060405180602001604052803073ffffffffffffffffffffffffffffffffffffffff16815250604051620000c29062000298565b620000cf929190620006cc565b82906040518091039083f591505080158015620000f0573d6000803e3d6000fd5b50905062000147565b6040805160208101825230815290513491600091620001189062000298565b62000125929190620006cc565b6040518091039082f090508015801562000143573d6000803e3d6000fd5b5090505b7f644ca5b0a8b0418e9faf3880659eeb84eaad45ad838b0173808e5ca72f5efc498160405162000178919062000524565b60405180910390a173ffffffffffffffffffffffffffffffffffffffff8116631f931c1c878786620001ac576000620001ae565b845b88886040518663ffffffff1660e01b8152600401620001d295949392919062000545565b600060405180830381600087803b158015620001ed57600080fd5b505af115801562000202573d6000803e3d6000fd5b50506040517ff2fde38b00000000000000000000000000000000000000000000000000000000815273ffffffffffffffffffffffffffffffffffffffff8416925063f2fde38b91506200025a908a9060040162000524565b600060405180830381600087803b1580156200027557600080fd5b505af11580156200028a573d6000803e3d6000fd5b505050509695505050505050565b612d458062000a8f83390190565b803573ffffffffffffffffffffffffffffffffffffffff81168114620002cb57600080fd5b919050565b60008083601f840112620002e2578182fd5b50813567ffffffffffffffff811115620002fa578182fd5b6020830191508360208285010111156200031357600080fd5b9250929050565b6000806000806000806080878903121562000333578182fd5b6200033e87620002a6565b9550602087013567ffffffffffffffff808211156200035b578384fd5b818901915089601f8301126200036f578384fd5b8135818111156200037e578485fd5b8a6020808302850101111562000392578485fd5b602083019750809650506040890135915080821115620003b0578384fd5b50620003bf89828a01620002d0565b979a9699509497949695606090950135949350505050565b73ffffffffffffffffffffffffffffffffffffffff169052565b60008284526020808501945082825b858110156200044e5781357fffffffff0000000000000000000000000000000000000000000000000000000081168082146200043a578586fd5b885250958201959082019060010162000400565b509495945050505050565b7fffffffff00000000000000000000000000000000000000000000000000000000169052565b600082845282826020860137806020848601015260207fffffffffffffffffffffffffffffffffffffffffffffffffffffffffffffffe0601f85011685010190509392505050565b60038110620004d257fe5b9052565b5173ffffffffffffffffffffffffffffffffffffffff169052565b91825260601b7fffffffffffffffffffffffffffffffffffffffff00000000000000000000000016602082015260340190565b73ffffffffffffffffffffffffffffffffffffffff91909116815260200190565b60608082528181018690526000906020608080850190828a028601018a855b8b81101562000698577fffffffffffffffffffffffffffffffffffffffffffffffffffffffffffffff8088840301845281357fffffffffffffffffffffffffffffffffffffffffffffffffffffffffffffffa18e3603018112620005c6578788fd5b8d0173ffffffffffffffffffffffffffffffffffffffff620005e882620002a6565b1684528581013560038110620005fc578889fd5b6200060a87860182620004c7565b506040808201357fffffffffffffffffffffffffffffffffffffffffffffffffffffffffffffffe18336030181126200064157898afd5b8201803567ffffffffffffffff8111156200065a578a8bfd5b88810236038413156200066b578a8bfd5b8983880152620006818a8801828b8501620003f1565b978901979650505092860192505060010162000564565b5050620006a88387018a620003d7565b8581036040870152620006bd81888a6200047f565b9b9a5050505050505050505050565b60006040825260408201845480825260608401915060206060818302860101878552818520855b8481101562000a5b577fffffffffffffffffffffffffffffffffffffffffffffffffffffffffffffffa0888403018652815473ffffffffffffffffffffffffffffffffffffffff811684526200075285850160ff8360a01c16620004c7565b5060018083016060604086015260608501815462000771818362000a85565b91506200077e8362000a79565b92508a5b816007820110156200085e5783546200079f848260e01b62000459565b7fffffffff00000000000000000000000000000000000000000000000000000000620007d38b8601828460c01b1662000459565b620007e760408601828460a01b1662000459565b620007fb60608601828460801b1662000459565b6200080f60808601828460601b1662000459565b6200082360a08601828460401b1662000459565b6200083660c0860182848e1b1662000459565b6200084760e0860182841662000459565b505092840192610100929092019160080162000782565b92549281811015620008805762000879838560e01b62000459565b9188019184015b81811015620008c157620008ba837fffffffff000000000000000000000000000000000000000000000000000000008660c01b1662000459565b9188019184015b818110156200090257620008fb837fffffffff000000000000000000000000000000000000000000000000000000008660a01b1662000459565b9188019184015b8181101562000943576200093c837fffffffff000000000000000000000000000000000000000000000000000000008660801b1662000459565b9188019184015b8181101562000984576200097d837fffffffff000000000000000000000000000000000000000000000000000000008660601b1662000459565b9188019184015b81811015620009c557620009be837fffffffff000000000000000000000000000000000000000000000000000000008660401b1662000459565b9188019184015b8181101562000a0557620009fe837fffffffff00000000000000000000000000000000000000000000000000000000868c1b1662000459565b9188019184015b8181101562000a415762000a3c837fffffffff00000000000000000000000000000000000000000000000000000000861662000459565b918801915b5050978601979450505060029190910190600101620006f3565b50508094505062000a6f81860187620004d6565b5050509392505050565b60009081526020902090565b9081526020019056fe608060405260405162002d4538038062002d45833981016040819052620000269162000db2565b604080516000808252602082019092526200004e918491620000f560201b620000db1760201c565b620000688160000151620002b560201b6200027d1760201c565b60006200007f6200031760201b620003021760201c565b6301ffc9a760e01b600090815260039091016020526040808220805460ff1990811660019081179092556307e4c70760e21b845282842080548216831790556348e2b09360e01b845282842080548216831790556307f5828d60e41b845291909220805490911690911790555062001442915050565b60005b8351811015620002665760008482815181106200011157fe5b6020026020010151602001519050600060028111156200012d57fe5b8160028111156200013a57fe5b14156200018957620001838583815181106200015257fe5b6020026020010151600001518684815181106200016b57fe5b6020026020010151604001516200033b60201b60201c565b6200025c565b60018160028111156200019857fe5b1415620001e15762000183858381518110620001b057fe5b602002602001015160000151868481518110620001c957fe5b6020026020010151604001516200054e60201b60201c565b6002816002811115620001f057fe5b14156200023957620001838583815181106200020857fe5b6020026020010151600001518684815181106200022157fe5b6020026020010151604001516200077860201b60201c565b60405162461bcd60e51b815260040162000253906200117c565b60405180910390fd5b50600101620000f8565b507f8faa70878671ccd212d20771b795c50af8fd3ff6cf27f4bde57e5d4de0aeb6738383836040516200029c9392919062000f25565b60405180910390a1620002b082826200083f565b505050565b6000620002c162000317565b6004810180546001600160a01b038581166001600160a01b031983168117909355604051939450169182907f8be0079c531659141344cd1fd0a4f28419497f9722a3daafe3b4186f6b6457e090600090a3505050565b7fc8fcad8db84d3cc18b4c41d551ea0ee66dd599cde068d998e57d5e09332c131c90565b60008151116200035f5760405162461bcd60e51b81526004016200025390620010d4565b60006200036b62000317565b90506001600160a01b038316620003965760405162461bcd60e51b81526004016200025390620011c3565b6001600160a01b038316600090815260018201602052604090205461ffff81166200043c57620003e08460405180606001604052806024815260200162002d21602491396200097c565b6002820180546001600160a01b038616600081815260018087016020908152604083208201805461ffff191661ffff90961695909517909455845490810185559381529190912090910180546001600160a01b03191690911790555b60005b8351811015620005475760008482815181106200045857fe5b6020908102919091018101516001600160e01b031981166000908152918690526040909120549091506001600160a01b03168015620004ab5760405162461bcd60e51b81526004016200025390620012ba565b506001600160a01b0386166000818152600186810160209081526040808420805480850182559085528285206008820401805463ffffffff60079093166004026101000a928302191660e089901c929092029190911790556001600160e01b0319909516835287905292902080546001600160a01b03191690911761ffff60a01b1916600160a01b61ffff86160217905591820191016200043f565b5050505050565b6000815111620005725760405162461bcd60e51b81526004016200025390620010d4565b60006200057e62000317565b90506001600160a01b038316620005a95760405162461bcd60e51b81526004016200025390620011c3565b6001600160a01b038316600090815260018201602052604090205461ffff81166200064f57620005f38460405180606001604052806024815260200162002d21602491396200097c565b6002820180546001600160a01b038616600081815260018087016020908152604083208201805461ffff191661ffff90961695909517909455845490810185559381529190912090910180546001600160a01b03191690911790555b60005b8351811015620005475760008482815181106200066b57fe5b6020908102919091018101516001600160e01b031981166000908152918690526040909120549091506001600160a01b03908116908716811415620006c45760405162461bcd60e51b8152600401620002539062001317565b620006d08183620009a0565b506001600160e01b03198116600081815260208681526040808320805461ffff60a01b1916600160a01b61ffff8a16021781556001600160a01b038b168085526001808b018552928520805480850182559086528486206008820401805463ffffffff60079093166004026101000a928302191660e09990991c91909102979097179096559390925286905281546001600160a01b0319169092179055918201910162000652565b60008151116200079c5760405162461bcd60e51b81526004016200025390620010d4565b6000620007a862000317565b90506001600160a01b03831615620007d45760405162461bcd60e51b8152600401620002539062001374565b60005b825181101562000839576000838281518110620007f057fe5b6020908102919091018101516001600160e01b031981166000908152918590526040909120549091506001600160a01b03166200082e8183620009a0565b5050600101620007d7565b50505050565b6001600160a01b0382166200087657805115620008705760405162461bcd60e51b8152600401620002539062001031565b62000978565b60008151116200089a5760405162461bcd60e51b815260040162000253906200120f565b6001600160a01b0382163014620008d057620008d08260405180606001604052806028815260200162002cf9602891396200097c565b600080836001600160a01b031683604051620008ed919062000f07565b600060405180830381855af49150503d80600081146200092a576040519150601f19603f3d011682016040523d82523d6000602084013e6200092f565b606091505b50915091508162000839578051156200095e578060405162461bcd60e51b815260040162000253919062001015565b60405162461bcd60e51b815260040162000253906200108e565b5050565b813b8181620008395760405162461bcd60e51b815260040162000253919062001015565b6000620009ac62000317565b90506001600160a01b038316620009d75760405162461bcd60e51b815260040162000253906200111f565b6001600160a01b03831630141562000a035760405162461bcd60e51b815260040162000253906200126c565b6001600160e01b03198216600090815260208281526040808320546001600160a01b03871684526001850190925290912054600160a01b90910461ffff16906000190180821462000b27576001600160a01b0385166000908152600184016020526040812080548390811062000a7557fe5b600091825260208083206008830401546001600160a01b038a168452600188019091526040909220805460079092166004026101000a90920460e01b92508291908590811062000ac157fe5b600091825260208083206008830401805463ffffffff60079094166004026101000a938402191660e09590951c929092029390931790556001600160e01b031992909216825284905260409020805461ffff60a01b1916600160a01b61ffff8516021790555b6001600160a01b0385166000908152600184016020526040902080548062000b4b57fe5b60008281526020808220600860001990940193840401805463ffffffff600460078716026101000a0219169055919092556001600160e01b0319861682528490526040902080546001600160b01b031916905580620005475760028301546001600160a01b03861660009081526001858101602052604090912001546000199091019061ffff1680821462000c6357600085600201838154811062000bec57fe5b6000918252602090912001546002870180546001600160a01b03909216925082918490811062000c1857fe5b600091825260208083209190910180546001600160a01b0319166001600160a01b0394851617905592909116815260018781019092526040902001805461ffff191661ffff83161790555b8460020180548062000c7157fe5b60008281526020808220830160001990810180546001600160a01b03191690559092019092556001600160a01b03891682526001878101909152604090912001805461ffff1916905550505050505050565b80516001600160a01b038116811462000cdb57600080fd5b919050565b600082601f83011262000cf1578081fd5b8151602062000d0a62000d0483620013f5565b620013d1565b828152818101908583018385028701840188101562000d27578586fd5b855b8581101562000d5d5781516001600160e01b03198116811462000d4a578788fd5b8452928401929084019060010162000d29565b5090979650505050505050565b60006020828403121562000d7c578081fd5b604051602081016001600160401b038111828210171562000d9957fe5b60405290508062000daa8362000cc3565b905292915050565b6000806040838503121562000dc5578182fd5b82516001600160401b038082111562000ddc578384fd5b818501915085601f83011262000df0578384fd5b8151602062000e0362000d0483620013f5565b82815281810190858301885b8581101562000eaa57815188016060818e03601f1901121562000e30578a8bfd5b604051606081018181108a8211171562000e4657fe5b60405262000e5682880162000cc3565b815260408201516003811062000e6a578c8dfd5b8188015260608201518981111562000e80578c8dfd5b62000e908f898386010162000ce0565b604083015250855250928401929084019060010162000e0f565b5050809750505062000ebf8882890162000d6a565b9450505050509250929050565b6001600160a01b03169052565b6000815180845262000ef381602086016020860162001413565b601f01601f19169290920160200192915050565b6000825162000f1b81846020870162001413565b9190910192915050565b606080825284518282018190526000919060809081850190602080820287018401818b01875b8481101562000fe257898303607f19018652815180516001600160a01b0316845284810151898501906003811062000f7f57fe5b858701526040918201519185018a9052815190819052908501908a90898601905b8083101562000fcc5783516001600160e01b031916825292870192600192909201919087019062000fa0565b5097860197945050509083019060010162000f4b565b505062000ff28289018b62000ecc565b878103604089015262001006818a62000ed9565b9b9a5050505050505050505050565b6000602082526200102a602083018462000ed9565b9392505050565b6020808252603c908201527f4c69624469616d6f6e644375743a205f696e697420697320616464726573732860408201527f3029206275745f63616c6c64617461206973206e6f7420656d70747900000000606082015260800190565b60208082526026908201527f4c69624469616d6f6e644375743a205f696e69742066756e6374696f6e2072656040820152651d995c9d195960d21b606082015260800190565b6020808252602b908201527f4c69624469616d6f6e644375743a204e6f2073656c6563746f727320696e206660408201526a1858d95d081d1bc818dd5d60aa1b606082015260800190565b60208082526037908201527f4c69624469616d6f6e644375743a2043616e27742072656d6f76652066756e6360408201527f74696f6e207468617420646f65736e2774206578697374000000000000000000606082015260800190565b60208082526027908201527f4c69624469616d6f6e644375743a20496e636f727265637420466163657443756040820152663a20b1ba34b7b760c91b606082015260800190565b6020808252602c908201527f4c69624469616d6f6e644375743a204164642066616365742063616e2774206260408201526b65206164647265737328302960a01b606082015260800190565b6020808252603d908201527f4c69624469616d6f6e644375743a205f63616c6c6461746120697320656d707460408201527f7920627574205f696e6974206973206e6f742061646472657373283029000000606082015260800190565b6020808252602e908201527f4c69624469616d6f6e644375743a2043616e27742072656d6f766520696d6d7560408201526d3a30b1363290333ab731ba34b7b760911b606082015260800190565b60208082526035908201527f4c69624469616d6f6e644375743a2043616e2774206164642066756e6374696f60408201527f6e207468617420616c7265616479206578697374730000000000000000000000606082015260800190565b60208082526038908201527f4c69624469616d6f6e644375743a2043616e2774207265706c6163652066756e60408201527f6374696f6e20776974682073616d652066756e6374696f6e0000000000000000606082015260800190565b60208082526036908201527f4c69624469616d6f6e644375743a2052656d6f7665206661636574206164647260408201527f657373206d757374206265206164647265737328302900000000000000000000606082015260800190565b6040518181016001600160401b0381118282101715620013ed57fe5b604052919050565b60006001600160401b038211156200140957fe5b5060209081020190565b60005b838110156200143057818101518382015260200162001416565b83811115620008395750506000910152565b6118a780620014526000396000f3fe60806040523661000b57005b600080357fffffffff000000000000000000000000000000000000000000000000000000001681527fc8fcad8db84d3cc18b4c41d551ea0ee66dd599cde068d998e57d5e09332c131c6020819052604090912054819073ffffffffffffffffffffffffffffffffffffffff16806100b7576040517f08c379a00000000000000000000000000000000000000000000000000000000081526004016100ae906115f3565b60405180910390fd5b3660008037600080366000845af43d6000803e8080156100d6573d6000f35b3d6000fd5b60005b83518110156102325760008482815181106100f557fe5b60200260200101516020015190506000600281111561011057fe5b81600281111561011c57fe5b141561015f5761015a85838151811061013157fe5b60200260200101516000015186848151811061014957fe5b602002602001015160400151610326565b610229565b600181600281111561016d57fe5b14156101ab5761015a85838151811061018257fe5b60200260200101516000015186848151811061019a57fe5b60200260200101516040015161065e565b60028160028111156101b957fe5b14156101f75761015a8583815181106101ce57fe5b6020026020010151600001518684815181106101e657fe5b6020026020010151604001516109ab565b6040517f08c379a00000000000000000000000000000000000000000000000000000000081526004016100ae90611539565b506001016100de565b507f8faa70878671ccd212d20771b795c50af8fd3ff6cf27f4bde57e5d4de0aeb67383838360405161026693929190611282565b60405180910390a16102788282610acb565b505050565b6000610287610302565b60048101805473ffffffffffffffffffffffffffffffffffffffff8581167fffffffffffffffffffffffff000000000000000000000000000000000000000083168117909355604051939450169182907f8be0079c531659141344cd1fd0a4f28419497f9722a3daafe3b4186f6b6457e090600090a3505050565b7fc8fcad8db84d3cc18b4c41d551ea0ee66dd599cde068d998e57d5e09332c131c90565b6000815111610361576040517f08c379a00000000000000000000000000000000000000000000000000000000081526004016100ae9061147f565b600061036b610302565b905073ffffffffffffffffffffffffffffffffffffffff83166103ba576040517f08c379a00000000000000000000000000000000000000000000000000000000081526004016100ae90611596565b73ffffffffffffffffffffffffffffffffffffffff8316600090815260018201602052604090205461ffff81166104ab5761040d8460405180606001604052806024815260200161184e60249139610c81565b60028201805473ffffffffffffffffffffffffffffffffffffffff861660008181526001808701602090815260408320820180547fffffffffffffffffffffffffffffffffffffffffffffffffffffffffffff00001661ffff90961695909517909455845490810185559381529190912090910180547fffffffffffffffffffffffff00000000000000000000000000000000000000001690911790555b60005b83518110156106575760008482815181106104c557fe5b6020908102919091018101517fffffffff00000000000000000000000000000000000000000000000000000000811660009081529186905260409091205490915073ffffffffffffffffffffffffffffffffffffffff168015610554576040517f08c379a00000000000000000000000000000000000000000000000000000000081526004016100ae906116e2565b5073ffffffffffffffffffffffffffffffffffffffff86166000818152600186810160209081526040808420805480850182559085528285206008820401805463ffffffff60079093166004026101000a928302191660e089901c929092029190911790557fffffffff00000000000000000000000000000000000000000000000000000000909516835287905292902080547fffffffffffffffffffffffff0000000000000000000000000000000000000000169091177fffffffffffffffffffff0000ffffffffffffffffffffffffffffffffffffffff167401000000000000000000000000000000000000000061ffff86160217905591820191016104ae565b5050505050565b6000815111610699576040517f08c379a00000000000000000000000000000000000000000000000000000000081526004016100ae9061147f565b60006106a3610302565b905073ffffffffffffffffffffffffffffffffffffffff83166106f2576040517f08c379a00000000000000000000000000000000000000000000000000000000081526004016100ae90611596565b73ffffffffffffffffffffffffffffffffffffffff8316600090815260018201602052604090205461ffff81166107e3576107458460405180606001604052806024815260200161184e60249139610c81565b60028201805473ffffffffffffffffffffffffffffffffffffffff861660008181526001808701602090815260408320820180547fffffffffffffffffffffffffffffffffffffffffffffffffffffffffffff00001661ffff90961695909517909455845490810185559381529190912090910180547fffffffffffffffffffffffff00000000000000000000000000000000000000001690911790555b60005b83518110156106575760008482815181106107fd57fe5b6020908102919091018101517fffffffff00000000000000000000000000000000000000000000000000000000811660009081529186905260409091205490915073ffffffffffffffffffffffffffffffffffffffff908116908716811415610892576040517f08c379a00000000000000000000000000000000000000000000000000000000081526004016100ae9061173f565b61089c8183610cbc565b507fffffffff00000000000000000000000000000000000000000000000000000000811660008181526020868152604080832080547fffffffffffffffffffff0000ffffffffffffffffffffffffffffffffffffffff167401000000000000000000000000000000000000000061ffff8a160217815573ffffffffffffffffffffffffffffffffffffffff8b168085526001808b018552928520805480850182559086528486206008820401805463ffffffff60079093166004026101000a928302191660e09990991c91909102979097179096559390925286905281547fffffffffffffffffffffffff000000000000000000000000000000000000000016909217905591820191016107e6565b60008151116109e6576040517f08c379a00000000000000000000000000000000000000000000000000000000081526004016100ae9061147f565b60006109f0610302565b905073ffffffffffffffffffffffffffffffffffffffff831615610a40576040517f08c379a00000000000000000000000000000000000000000000000000000000081526004016100ae9061179c565b60005b8251811015610ac5576000838281518110610a5a57fe5b6020908102919091018101517fffffffff00000000000000000000000000000000000000000000000000000000811660009081529185905260409091205490915073ffffffffffffffffffffffffffffffffffffffff16610abb8183610cbc565b5050600101610a43565b50505050565b73ffffffffffffffffffffffffffffffffffffffff8216610b2457805115610b1f576040517f08c379a00000000000000000000000000000000000000000000000000000000081526004016100ae906113c5565b610c7d565b6000815111610b5f576040517f08c379a00000000000000000000000000000000000000000000000000000000081526004016100ae90611628565b73ffffffffffffffffffffffffffffffffffffffff82163014610b9e57610b9e8260405180606001604052806028815260200161182660289139610c81565b6000808373ffffffffffffffffffffffffffffffffffffffff1683604051610bc69190611266565b600060405180830381855af49150503d8060008114610c01576040519150601f19603f3d011682016040523d82523d6000602084013e610c06565b606091505b509150915081610ac557805115610c4b57806040517f08c379a00000000000000000000000000000000000000000000000000000000081526004016100ae91906113ab565b6040517f08c379a00000000000000000000000000000000000000000000000000000000081526004016100ae90611422565b5050565b813b8181610ac5576040517f08c379a00000000000000000000000000000000000000000000000000000000081526004016100ae91906113ab565b6000610cc6610302565b905073ffffffffffffffffffffffffffffffffffffffff8316610d15576040517f08c379a00000000000000000000000000000000000000000000000000000000081526004016100ae906114dc565b73ffffffffffffffffffffffffffffffffffffffff8316301415610d65576040517f08c379a00000000000000000000000000000000000000000000000000000000081526004016100ae90611685565b7fffffffff0000000000000000000000000000000000000000000000000000000082166000908152602082815260408083205473ffffffffffffffffffffffffffffffffffffffff8716845260018501909252909120547401000000000000000000000000000000000000000090910461ffff16907fffffffffffffffffffffffffffffffffffffffffffffffffffffffffffffffff01808214610f375773ffffffffffffffffffffffffffffffffffffffff851660009081526001840160205260408120805483908110610e3657fe5b6000918252602080832060088304015473ffffffffffffffffffffffffffffffffffffffff8a168452600188019091526040909220805460079092166004026101000a90920460e01b925082919085908110610e8e57fe5b600091825260208083206008830401805463ffffffff60079094166004026101000a938402191660e09590951c929092029390931790557fffffffff000000000000000000000000000000000000000000000000000000009290921682528490526040902080547fffffffffffffffffffff0000ffffffffffffffffffffffffffffffffffffffff167401000000000000000000000000000000000000000061ffff8516021790555b73ffffffffffffffffffffffffffffffffffffffff851660009081526001840160205260409020805480610f6757fe5b6000828152602080822060087fffffffffffffffffffffffffffffffffffffffffffffffffffffffffffffffff90940193840401805463ffffffff600460078716026101000a0219169055919092557fffffffff00000000000000000000000000000000000000000000000000000000861682528490526040902080547fffffffffffffffffffff000000000000000000000000000000000000000000001690558061065757600283015473ffffffffffffffffffffffffffffffffffffffff861660009081526001858101602052604090912001547fffffffffffffffffffffffffffffffffffffffffffffffffffffffffffffffff9091019061ffff1680821461114357600085600201838154811061107e57fe5b60009182526020909120015460028701805473ffffffffffffffffffffffffffffffffffffffff90921692508291849081106110b657fe5b600091825260208083209190910180547fffffffffffffffffffffffff00000000000000000000000000000000000000001673ffffffffffffffffffffffffffffffffffffffff9485161790559290911681526001878101909252604090200180547fffffffffffffffffffffffffffffffffffffffffffffffffffffffffffff00001661ffff83161790555b8460020180548061115057fe5b6000828152602080822083017fffffffffffffffffffffffffffffffffffffffffffffffffffffffffffffffff90810180547fffffffffffffffffffffffff000000000000000000000000000000000000000016905590920190925573ffffffffffffffffffffffffffffffffffffffff89168252600187810190915260409091200180547fffffffffffffffffffffffffffffffffffffffffffffffffffffffffffff000016905550505050505050565b73ffffffffffffffffffffffffffffffffffffffff169052565b600081518084526112348160208601602086016117f9565b601f017fffffffffffffffffffffffffffffffffffffffffffffffffffffffffffffffe0169290920160200192915050565b600082516112788184602087016117f9565b9190910192915050565b606080825284518282018190526000919060809081850190602080820287018401818b01875b8481101561137c577fffffffffffffffffffffffffffffffffffffffffffffffffffffffffffffff808a8403018652815188840173ffffffffffffffffffffffffffffffffffffffff8251168552858201516003811061130457fe5b858701526040918201519185018a9052815190819052908501908a90898601905b808310156113675783517fffffffff00000000000000000000000000000000000000000000000000000000168252928701926001929092019190870190611325565b509786019794505050908301906001016112a8565b505061138a8289018b611202565b878103604089015261139c818a61121c565b9b9a5050505050505050505050565b6000602082526113be602083018461121c565b9392505050565b6020808252603c908201527f4c69624469616d6f6e644375743a205f696e697420697320616464726573732860408201527f3029206275745f63616c6c64617461206973206e6f7420656d70747900000000606082015260800190565b60208082526026908201527f4c69624469616d6f6e644375743a205f696e69742066756e6374696f6e20726560408201527f7665727465640000000000000000000000000000000000000000000000000000606082015260800190565b6020808252602b908201527f4c69624469616d6f6e644375743a204e6f2073656c6563746f727320696e206660408201527f6163657420746f20637574000000000000000000000000000000000000000000606082015260800190565b60208082526037908201527f4c69624469616d6f6e644375743a2043616e27742072656d6f76652066756e6360408201527f74696f6e207468617420646f65736e2774206578697374000000000000000000606082015260800190565b60208082526027908201527f4c69624469616d6f6e644375743a20496e636f7272656374204661636574437560408201527f74416374696f6e00000000000000000000000000000000000000000000000000606082015260800190565b6020808252602c908201527f4c69624469616d6f6e644375743a204164642066616365742063616e2774206260408201527f6520616464726573732830290000000000000000000000000000000000000000606082015260800190565b6020808252818101527f4469616d6f6e643a2046756e6374696f6e20646f6573206e6f74206578697374604082015260600190565b6020808252603d908201527f4c69624469616d6f6e644375743a205f63616c6c6461746120697320656d707460408201527f7920627574205f696e6974206973206e6f742061646472657373283029000000606082015260800190565b6020808252602e908201527f4c69624469616d6f6e644375743a2043616e27742072656d6f766520696d6d7560408201527f7461626c652066756e6374696f6e000000000000000000000000000000000000606082015260800190565b60208082526035908201527f4c69624469616d6f6e644375743a2043616e2774206164642066756e6374696f60408201527f6e207468617420616c7265616479206578697374730000000000000000000000606082015260800190565b60208082526038908201527f4c69624469616d6f6e644375743a2043616e2774207265706c6163652066756e60408201527f6374696f6e20776974682073616d652066756e6374696f6e0000000000000000606082015260800190565b60208082526036908201527f4c69624469616d6f6e644375743a2052656d6f7665206661636574206164647260408201527f657373206d757374206265206164647265737328302900000000000000000000606082015260800190565b60005b838110156118145781810151838201526020016117fc565b83811115610ac5575050600091015256fe4c69624469616d6f6e644375743a205f696e6974206164647265737320686173206e6f20636f64654c69624469616d6f6e644375743a204e657720666163657420686173206e6f20636f6465a264697066735822122054a3c3a118803545231f43700030cb5e290869be0182196a4a05e7d4a1b71d7e64736f6c634300070600334c69624469616d6f6e644375743a205f696e6974206164647265737320686173206e6f20636f64654c69624469616d6f6e644375743a204e657720666163657420686173206e6f20636f6465a2646970667358221220a779f3d6a1861424e4a8869f0d4dd286296655589c48f5124a3fb585fe4e8b7664736f6c63430007060033608060405234801561001057600080fd5b50611b02806100206000396000f3fe608060405234801561001057600080fd5b506004361061002b5760003560e01c80631f931c1c14610030575b600080fd5b61004361003e366004611260565b610045565b005b61004d61009e565b61009761005a8587611993565b8484848080601f01602080910402602001604051908101604052809392919081815260200183838082843760009201919091525061010392505050565b5050505050565b6100a66102a5565b6004015473ffffffffffffffffffffffffffffffffffffffff163314610101576040517f08c379a00000000000000000000000000000000000000000000000000000000081526004016100f8906115af565b60405180910390fd5b565b60005b835181101561025a57600084828151811061011d57fe5b60200260200101516020015190506000600281111561013857fe5b81600281111561014457fe5b14156101875761018285838151811061015957fe5b60200260200101516000015186848151811061017157fe5b6020026020010151604001516102c9565b610251565b600181600281111561019557fe5b14156101d3576101828583815181106101aa57fe5b6020026020010151600001518684815181106101c257fe5b6020026020010151604001516105fa565b60028160028111156101e157fe5b141561021f576101828583815181106101f657fe5b60200260200101516000015186848151811061020e57fe5b602002602001015160400151610947565b6040517f08c379a00000000000000000000000000000000000000000000000000000000081526004016100f8906116c6565b50600101610106565b507f8faa70878671ccd212d20771b795c50af8fd3ff6cf27f4bde57e5d4de0aeb67383838360405161028e939291906113b2565b60405180910390a16102a08282610a67565b505050565b7fc8fcad8db84d3cc18b4c41d551ea0ee66dd599cde068d998e57d5e09332c131c90565b6000815111610304576040517f08c379a00000000000000000000000000000000000000000000000000000000081526004016100f89061160c565b600061030e6102a5565b905073ffffffffffffffffffffffffffffffffffffffff831661035d576040517f08c379a00000000000000000000000000000000000000000000000000000000081526004016100f890611723565b73ffffffffffffffffffffffffffffffffffffffff8316600090815260018201602052604090205461ffff811661044e576103b084604051806060016040528060248152602001611aa960249139610c1d565b60028201805473ffffffffffffffffffffffffffffffffffffffff861660008181526001808701602090815260408320820180547fffffffffffffffffffffffffffffffffffffffffffffffffffffffffffff00001661ffff90961695909517909455845490810185559381529190912090910180547fffffffffffffffffffffffff00000000000000000000000000000000000000001690911790555b60005b835181101561009757600084828151811061046857fe5b6020908102919091018101517fffffffff00000000000000000000000000000000000000000000000000000000811660009081529186905260409091205490915073ffffffffffffffffffffffffffffffffffffffff1680156104f7576040517f08c379a00000000000000000000000000000000000000000000000000000000081526004016100f89061183a565b5073ffffffffffffffffffffffffffffffffffffffff86166000818152600186810160209081526040808420805480850182559085528285206008820401805463ffffffff60079093166004026101000a928302191660e089901c929092029190911790557fffffffff00000000000000000000000000000000000000000000000000000000909516835287905292902080547fffffffffffffffffffffffff0000000000000000000000000000000000000000169091177fffffffffffffffffffff0000ffffffffffffffffffffffffffffffffffffffff167401000000000000000000000000000000000000000061ffff8616021790559182019101610451565b6000815111610635576040517f08c379a00000000000000000000000000000000000000000000000000000000081526004016100f89061160c565b600061063f6102a5565b905073ffffffffffffffffffffffffffffffffffffffff831661068e576040517f08c379a00000000000000000000000000000000000000000000000000000000081526004016100f890611723565b73ffffffffffffffffffffffffffffffffffffffff8316600090815260018201602052604090205461ffff811661077f576106e184604051806060016040528060248152602001611aa960249139610c1d565b60028201805473ffffffffffffffffffffffffffffffffffffffff861660008181526001808701602090815260408320820180547fffffffffffffffffffffffffffffffffffffffffffffffffffffffffffff00001661ffff90961695909517909455845490810185559381529190912090910180547fffffffffffffffffffffffff00000000000000000000000000000000000000001690911790555b60005b835181101561009757600084828151811061079957fe5b6020908102919091018101517fffffffff00000000000000000000000000000000000000000000000000000000811660009081529186905260409091205490915073ffffffffffffffffffffffffffffffffffffffff90811690871681141561082e576040517f08c379a00000000000000000000000000000000000000000000000000000000081526004016100f890611897565b6108388183610c58565b507fffffffff00000000000000000000000000000000000000000000000000000000811660008181526020868152604080832080547fffffffffffffffffffff0000ffffffffffffffffffffffffffffffffffffffff167401000000000000000000000000000000000000000061ffff8a160217815573ffffffffffffffffffffffffffffffffffffffff8b168085526001808b018552928520805480850182559086528486206008820401805463ffffffff60079093166004026101000a928302191660e09990991c91909102979097179096559390925286905281547fffffffffffffffffffffffff00000000000000000000000000000000000000001690921790559182019101610782565b6000815111610982576040517f08c379a00000000000000000000000000000000000000000000000000000000081526004016100f89061160c565b600061098c6102a5565b905073ffffffffffffffffffffffffffffffffffffffff8316156109dc576040517f08c379a00000000000000000000000000000000000000000000000000000000081526004016100f8906118f4565b60005b8251811015610a615760008382815181106109f657fe5b6020908102919091018101517fffffffff00000000000000000000000000000000000000000000000000000000811660009081529185905260409091205490915073ffffffffffffffffffffffffffffffffffffffff16610a578183610c58565b50506001016109df565b50505050565b73ffffffffffffffffffffffffffffffffffffffff8216610ac057805115610abb576040517f08c379a00000000000000000000000000000000000000000000000000000000081526004016100f8906114f5565b610c19565b6000815111610afb576040517f08c379a00000000000000000000000000000000000000000000000000000000081526004016100f890611780565b73ffffffffffffffffffffffffffffffffffffffff82163014610b3a57610b3a82604051806060016040528060288152602001611a8160289139610c1d565b6000808373ffffffffffffffffffffffffffffffffffffffff1683604051610b629190611396565b600060405180830381855af49150503d8060008114610b9d576040519150601f19603f3d011682016040523d82523d6000602084013e610ba2565b606091505b509150915081610a6157805115610be757806040517f08c379a00000000000000000000000000000000000000000000000000000000081526004016100f891906114db565b6040517f08c379a00000000000000000000000000000000000000000000000000000000081526004016100f890611552565b5050565b813b8181610a61576040517f08c379a00000000000000000000000000000000000000000000000000000000081526004016100f891906114db565b6000610c626102a5565b905073ffffffffffffffffffffffffffffffffffffffff8316610cb1576040517f08c379a00000000000000000000000000000000000000000000000000000000081526004016100f890611669565b73ffffffffffffffffffffffffffffffffffffffff8316301415610d01576040517f08c379a00000000000000000000000000000000000000000000000000000000081526004016100f8906117dd565b7fffffffff0000000000000000000000000000000000000000000000000000000082166000908152602082815260408083205473ffffffffffffffffffffffffffffffffffffffff8716845260018501909252909120547401000000000000000000000000000000000000000090910461ffff16907fffffffffffffffffffffffffffffffffffffffffffffffffffffffffffffffff01808214610ed35773ffffffffffffffffffffffffffffffffffffffff851660009081526001840160205260408120805483908110610dd257fe5b6000918252602080832060088304015473ffffffffffffffffffffffffffffffffffffffff8a168452600188019091526040909220805460079092166004026101000a90920460e01b925082919085908110610e2a57fe5b600091825260208083206008830401805463ffffffff60079094166004026101000a938402191660e09590951c929092029390931790557fffffffff000000000000000000000000000000000000000000000000000000009290921682528490526040902080547fffffffffffffffffffff0000ffffffffffffffffffffffffffffffffffffffff167401000000000000000000000000000000000000000061ffff8516021790555b73ffffffffffffffffffffffffffffffffffffffff851660009081526001840160205260409020805480610f0357fe5b6000828152602080822060087fffffffffffffffffffffffffffffffffffffffffffffffffffffffffffffffff90940193840401805463ffffffff600460078716026101000a0219169055919092557fffffffff00000000000000000000000000000000000000000000000000000000861682528490526040902080547fffffffffffffffffffff000000000000000000000000000000000000000000001690558061009757600283015473ffffffffffffffffffffffffffffffffffffffff861660009081526001858101602052604090912001547fffffffffffffffffffffffffffffffffffffffffffffffffffffffffffffffff9091019061ffff168082146110df57600085600201838154811061101a57fe5b60009182526020909120015460028701805473ffffffffffffffffffffffffffffffffffffffff909216925082918490811061105257fe5b600091825260208083209190910180547fffffffffffffffffffffffff00000000000000000000000000000000000000001673ffffffffffffffffffffffffffffffffffffffff9485161790559290911681526001878101909252604090200180547fffffffffffffffffffffffffffffffffffffffffffffffffffffffffffff00001661ffff83161790555b846002018054806110ec57fe5b6000828152602080822083017fffffffffffffffffffffffffffffffffffffffffffffffffffffffffffffffff90810180547fffffffffffffffffffffffff000000000000000000000000000000000000000016905590920190925573ffffffffffffffffffffffffffffffffffffffff89168252600187810190915260409091200180547fffffffffffffffffffffffffffffffffffffffffffffffffffffffffffff000016905550505050505050565b803573ffffffffffffffffffffffffffffffffffffffff811681146111c257600080fd5b919050565b600082601f8301126111d7578081fd5b813560206111ec6111e783611975565b611951565b8281528181019085830183850287018401881015611208578586fd5b855b858110156112535781357fffffffff0000000000000000000000000000000000000000000000000000000081168114611241578788fd5b8452928401929084019060010161120a565b5090979650505050505050565b600080600080600060608688031215611277578081fd5b853567ffffffffffffffff8082111561128e578283fd5b818801915088601f8301126112a1578283fd5b8135818111156112af578384fd5b60208a8182840286010111156112c3578485fd5b80840198508197506112d6818b0161119e565b965060408a01359350828411156112eb578485fd5b838a0193508a601f8501126112fe578485fd5b833591508282111561130e578485fd5b8a8183860101111561131e578485fd5b979a96995094975050909401935090919050565b73ffffffffffffffffffffffffffffffffffffffff169052565b60008151808452611364816020860160208601611a54565b601f017fffffffffffffffffffffffffffffffffffffffffffffffffffffffffffffffe0169290920160200192915050565b600082516113a8818460208701611a54565b9190910192915050565b606080825284518282018190526000919060809081850190602080820287018401818b01875b848110156114ac577fffffffffffffffffffffffffffffffffffffffffffffffffffffffffffffff808a8403018652815188840173ffffffffffffffffffffffffffffffffffffffff8251168552858201516003811061143457fe5b858701526040918201519185018a9052815190819052908501908a90898601905b808310156114975783517fffffffff00000000000000000000000000000000000000000000000000000000168252928701926001929092019190870190611455565b509786019794505050908301906001016113d8565b50506114ba8289018b611332565b87810360408901526114cc818a61134c565b9b9a5050505050505050505050565b6000602082526114ee602083018461134c565b9392505050565b6020808252603c908201527f4c69624469616d6f6e644375743a205f696e697420697320616464726573732860408201527f3029206275745f63616c6c64617461206973206e6f7420656d70747900000000606082015260800190565b60208082526026908201527f4c69624469616d6f6e644375743a205f696e69742066756e6374696f6e20726560408201527f7665727465640000000000000000000000000000000000000000000000000000606082015260800190565b60208082526022908201527f4c69624469616d6f6e643a204d75737420626520636f6e7472616374206f776e60408201527f6572000000000000000000000000000000000000000000000000000000000000606082015260800190565b6020808252602b908201527f4c69624469616d6f6e644375743a204e6f2073656c6563746f727320696e206660408201527f6163657420746f20637574000000000000000000000000000000000000000000606082015260800190565b60208082526037908201527f4c69624469616d6f6e644375743a2043616e27742072656d6f76652066756e6360408201527f74696f6e207468617420646f65736e2774206578697374000000000000000000606082015260800190565b60208082526027908201527f4c69624469616d6f6e644375743a20496e636f7272656374204661636574437560408201527f74416374696f6e00000000000000000000000000000000000000000000000000606082015260800190565b6020808252602c908201527f4c69624469616d6f6e644375743a204164642066616365742063616e2774206260408201527f6520616464726573732830290000000000000000000000000000000000000000606082015260800190565b6020808252603d908201527f4c69624469616d6f6e644375743a205f63616c6c6461746120697320656d707460408201527f7920627574205f696e6974206973206e6f742061646472657373283029000000606082015260800190565b6020808252602e908201527f4c69624469616d6f6e644375743a2043616e27742072656d6f766520696d6d7560408201527f7461626c652066756e6374696f6e000000000000000000000000000000000000606082015260800190565b60208082526035908201527f4c69624469616d6f6e644375743a2043616e2774206164642066756e6374696f60408201527f6e207468617420616c7265616479206578697374730000000000000000000000606082015260800190565b60208082526038908201527f4c69624469616d6f6e644375743a2043616e2774207265706c6163652066756e60408201527f6374696f6e20776974682073616d652066756e6374696f6e0000000000000000606082015260800190565b60208082526036908201527f4c69624469616d6f6e644375743a2052656d6f7665206661636574206164647260408201527f657373206d757374206265206164647265737328302900000000000000000000606082015260800190565b60405181810167ffffffffffffffff8111828210171561196d57fe5b604052919050565b600067ffffffffffffffff82111561198957fe5b5060209081020190565b60006119a16111e784611975565b8381526020808201919084845b87811015611a48578135870160608082360312156119ca578788fd5b604080519182019167ffffffffffffffff80841182851017156119e957fe5b8383526119f58561119e565b825287850135935060038410611a09578a8bfd5b838883015282850135935080841115611a20578a8bfd5b50611a2d368486016111c7565b918101919091528752505093820193908201906001016119ae565b50919695505050505050565b60005b83811015611a6f578181015183820152602001611a57565b83811115610a61575050600091015256fe4c69624469616d6f6e644375743a205f696e6974206164647265737320686173206e6f20636f64654c69624469616d6f6e644375743a204e657720666163657420686173206e6f20636f6465a26469706673582212201054dec537d95010fa7c5e1911dd66af99cadad1565cb9a7dc56139c3d2c40f164736f6c63430007060033608060405234801561001057600080fd5b5061071d806100206000396000f3fe608060405234801561001057600080fd5b50600436106100675760003560e01c80637a0ed627116100505780637a0ed627146100aa578063adfca15e146100bf578063cdffacc6146100df57610067565b806301ffc9a71461006c57806352ef6b2c14610095575b600080fd5b61007f61007a36600461050d565b6100ff565b60405161008c91906106dc565b60405180910390f35b61009d61014a565b60405161008c91906105ca565b6100b26101c3565b60405161008c9190610637565b6100d26100cd3660046104d2565b610370565b60405161008c9190610624565b6100f26100ed36600461050d565b61043c565b60405161008c91906105a9565b60008061010a610496565b7fffffffff00000000000000000000000000000000000000000000000000000000841660009081526003909101602052604090205460ff16915050919050565b60606000610156610496565b600281018054604080516020808402820181019092528281529394508301828280156101b857602002820191906000526020600020905b815473ffffffffffffffffffffffffffffffffffffffff16815260019091019060200180831161018d575b505050505091505090565b606060006101cf610496565b60028101549091508067ffffffffffffffff811180156101ee57600080fd5b5060405190808252806020026020018201604052801561022857816020015b6102156104ba565b81526020019060019003908161020d5790505b50925060005b8181101561036a57600083600201828154811061024757fe5b9060005260206000200160009054906101000a900473ffffffffffffffffffffffffffffffffffffffff1690508085838151811061028157fe5b60209081029190910181015173ffffffffffffffffffffffffffffffffffffffff928316905290821660009081526001860182526040908190208054825181850281018501909352808352919290919083018282801561034257602002820191906000526020600020906000905b82829054906101000a900460e01b7bffffffffffffffffffffffffffffffffffffffffffffffffffffffff1916815260200190600401906020826003010492830192600103820291508084116102ef5790505b505050505085838151811061035357fe5b60209081029190910181015101525060010161022e565b50505090565b6060600061037c610496565b73ffffffffffffffffffffffffffffffffffffffff84166000908152600182016020908152604091829020805483518184028101840190945280845293945091929083018282801561042f57602002820191906000526020600020906000905b82829054906101000a900460e01b7bffffffffffffffffffffffffffffffffffffffffffffffffffffffff1916815260200190600401906020826003010492830192600103820291508084116103dc5790505b5050505050915050919050565b600080610447610496565b7fffffffff0000000000000000000000000000000000000000000000000000000090931660009081526020939093525050604090205473ffffffffffffffffffffffffffffffffffffffff1690565b7fc8fcad8db84d3cc18b4c41d551ea0ee66dd599cde068d998e57d5e09332c131c90565b60408051808201909152600081526060602082015290565b6000602082840312156104e3578081fd5b813573ffffffffffffffffffffffffffffffffffffffff81168114610506578182fd5b9392505050565b60006020828403121561051e578081fd5b81357fffffffff0000000000000000000000000000000000000000000000000000000081168114610506578182fd5b6000815180845260208085019450808401835b8381101561059e5781517fffffffff000000000000000000000000000000000000000000000000000000001687529582019590820190600101610560565b509495945050505050565b73ffffffffffffffffffffffffffffffffffffffff91909116815260200190565b6020808252825182820181905260009190848201906040850190845b8181101561061857835173ffffffffffffffffffffffffffffffffffffffff16835292840192918401916001016105e6565b50909695505050505050565b600060208252610506602083018461054d565b60208082528251828201819052600091906040908185019080840286018301878501865b838110156106ce578883037fffffffffffffffffffffffffffffffffffffffffffffffffffffffffffffffc00185528151805173ffffffffffffffffffffffffffffffffffffffff1684528701518784018790526106bb8785018261054d565b958801959350509086019060010161065b565b509098975050505050505050565b90151581526020019056fea264697066735822122089d5ce8d99710bef242a45f969bf2ca524b5bdf0488783bd8b69c2fea19e15ed64736f6c63430007060033608060405234801561001057600080fd5b5061028e806100206000396000f3fe608060405234801561001057600080fd5b50600436106100365760003560e01c80638da5cb5b1461003b578063f2fde38b1461006c575b600080fd5b6100436100a1565b6040805173ffffffffffffffffffffffffffffffffffffffff9092168252519081900360200190f35b61009f6004803603602081101561008257600080fd5b503573ffffffffffffffffffffffffffffffffffffffff166100b0565b005b60006100ab6100c4565b905090565b6100b86100ed565b6100c181610152565b50565b60006100ce6101d7565b6004015473ffffffffffffffffffffffffffffffffffffffff16919050565b6100f56101d7565b6004015473ffffffffffffffffffffffffffffffffffffffff163314610150576040517f08c379a0000000000000000000000000000000000000000000000000000000008152600401610147906101fb565b60405180910390fd5b565b600061015c6101d7565b60048101805473ffffffffffffffffffffffffffffffffffffffff8581167fffffffffffffffffffffffff000000000000000000000000000000000000000083168117909355604051939450169182907f8be0079c531659141344cd1fd0a4f28419497f9722a3daafe3b4186f6b6457e090600090a3505050565b7fc8fcad8db84d3cc18b4c41d551ea0ee66dd599cde068d998e57d5e09332c131c90565b60208082526022908201527f4c69624469616d6f6e643a204d75737420626520636f6e7472616374206f776e60408201527f657200000000000000000000000000000000000000000000000000000000000060608201526080019056fea264697066735822122079ec72c8755f7643c02e0e5cbe49008e7623fffe4b39b7289aaf42f538b75bd664736f6c63430007060033290decd9548b62a8d60345a988386fc84ba6bc95484008f6362f93160ef3e563",
  "history": [
    {
      "address": "0xef0E0be2EEd4524Cb37030940a19022214180e54",
      "abi": [
        {
          "inputs": [],
          "stateMutability": "nonpayable",
          "type": "constructor"
        },
        {
          "anonymous": false,
          "inputs": [
            {
              "indexed": false,
              "internalType": "contract Diamond",
              "name": "diamond",
              "type": "address"
            }
          ],
          "name": "DiamondCreated",
          "type": "event"
        },
        {
          "inputs": [
            {
              "internalType": "address",
              "name": "owner",
              "type": "address"
            },
            {
              "components": [
                {
                  "internalType": "address",
                  "name": "facetAddress",
                  "type": "address"
                },
                {
                  "internalType": "enum IDiamondCut.FacetCutAction",
                  "name": "action",
                  "type": "uint8"
                },
                {
                  "internalType": "bytes4[]",
                  "name": "functionSelectors",
                  "type": "bytes4[]"
                }
              ],
              "internalType": "struct IDiamondCut.FacetCut[]",
              "name": "_diamondCut",
              "type": "tuple[]"
            },
            {
              "internalType": "bytes",
              "name": "data",
              "type": "bytes"
            },
            {
              "internalType": "bytes32",
              "name": "salt",
              "type": "bytes32"
            }
          ],
          "name": "createDiamond",
          "outputs": [
            {
              "internalType": "contract Diamond",
              "name": "diamond",
              "type": "address"
            }
          ],
          "stateMutability": "payable",
          "type": "function"
        }
      ],
      "artifactName": "Diamantaire",
      "transactionHash": "0x9a9dbde76198cde5a8c31394315d1bcfcaac923769ad9c99850c60da4ab853c1",
      "receipt": {
        "to": "0x4e59b44847b379578588920cA78FbF26c0B4956C",
        "from": "0xAFe87013dc96edE1E116a288D80FcaA0eFFE5fe5",
        "contractAddress": null,
        "transactionIndex": 55,
        "gasUsed": "5527695",
        "logsBloom": "0x00000000000000000000000000000000000000000000000000000000000000000000000000000000000000000000000000000000000000000000000000000000000000000000000000000000000000000000000000000000000000000000000000000000000000000000000000000000000000000000000000000000000000000000000000000000000000000000000000000000000000000000000000000000000000000000000000000000000000000000000000000000000000000000000000000000000000000000000000000000000000000000000000000000000000000000000000000000000000000000000000000000000000000000000000000000",
        "blockHash": "0xe2bb43348e2bc28d89b56df892beeb56cddcdf41aacd146ac2611f294e3eda55",
        "transactionHash": "0x9a9dbde76198cde5a8c31394315d1bcfcaac923769ad9c99850c60da4ab853c1",
        "logs": [],
        "blockNumber": 12190325,
        "cumulativeGasUsed": "8262074",
        "status": 1,
        "byzantium": true
      },
      "args": [],
      "solcInputHash": "152fdf0551c5078028c9843739ee7614",
      "metadata": "{\"compiler\":{\"version\":\"0.7.6+commit.7338295f\"},\"language\":\"Solidity\",\"output\":{\"abi\":[{\"inputs\":[],\"stateMutability\":\"nonpayable\",\"type\":\"constructor\"},{\"anonymous\":false,\"inputs\":[{\"indexed\":false,\"internalType\":\"contract Diamond\",\"name\":\"diamond\",\"type\":\"address\"}],\"name\":\"DiamondCreated\",\"type\":\"event\"},{\"inputs\":[{\"internalType\":\"address\",\"name\":\"owner\",\"type\":\"address\"},{\"components\":[{\"internalType\":\"address\",\"name\":\"facetAddress\",\"type\":\"address\"},{\"internalType\":\"enum IDiamondCut.FacetCutAction\",\"name\":\"action\",\"type\":\"uint8\"},{\"internalType\":\"bytes4[]\",\"name\":\"functionSelectors\",\"type\":\"bytes4[]\"}],\"internalType\":\"struct IDiamondCut.FacetCut[]\",\"name\":\"_diamondCut\",\"type\":\"tuple[]\"},{\"internalType\":\"bytes\",\"name\":\"data\",\"type\":\"bytes\"},{\"internalType\":\"bytes32\",\"name\":\"salt\",\"type\":\"bytes32\"}],\"name\":\"createDiamond\",\"outputs\":[{\"internalType\":\"contract Diamond\",\"name\":\"diamond\",\"type\":\"address\"}],\"stateMutability\":\"payable\",\"type\":\"function\"}],\"devdoc\":{\"kind\":\"dev\",\"methods\":{},\"version\":1},\"userdoc\":{\"kind\":\"user\",\"methods\":{},\"version\":1}},\"settings\":{\"compilationTarget\":{\"solc_0.7/diamond/Diamantaire.sol\":\"Diamantaire\"},\"evmVersion\":\"istanbul\",\"libraries\":{},\"metadata\":{\"bytecodeHash\":\"ipfs\",\"useLiteralContent\":true},\"optimizer\":{\"enabled\":true,\"runs\":2000000},\"remappings\":[]},\"sources\":{\"solc_0.7/diamond/Diamantaire.sol\":{\"content\":\"// SPDX-License-Identifier: MIT\\npragma solidity ^0.7.1;\\npragma experimental ABIEncoderV2;\\n\\nimport \\\"./interfaces/IDiamondCut.sol\\\";\\nimport \\\"./Diamond.sol\\\";\\nimport \\\"./facets/DiamondCutFacet.sol\\\";\\nimport \\\"./facets/DiamondLoupeFacet.sol\\\";\\nimport \\\"./facets/OwnershipFacet.sol\\\";\\n\\ncontract Diamantaire {\\n    event DiamondCreated(Diamond diamond);\\n\\n    IDiamondCut.FacetCut[] internal _builtinDiamondCut;\\n\\n    constructor() {\\n        bytes4[] memory functionSelectors;\\n\\n        // -------------------------------------------------------------------------\\n        // adding diamondCut function\\n        // -------------------------------------------------------------------------\\n        DiamondCutFacet diamondCutFacet = new DiamondCutFacet();\\n\\n        functionSelectors = new bytes4[](1);\\n        functionSelectors[0] = DiamondCutFacet.diamondCut.selector;\\n        _builtinDiamondCut.push(IDiamondCut.FacetCut({\\n            facetAddress:address(diamondCutFacet),\\n            action: IDiamondCut.FacetCutAction.Add,\\n            functionSelectors: functionSelectors\\n        }));\\n\\n\\n        // -------------------------------------------------------------------------\\n        // adding diamond loupe functions\\n        // -------------------------------------------------------------------------\\n        DiamondLoupeFacet diamondLoupeFacet = new DiamondLoupeFacet();\\n\\n        functionSelectors = new bytes4[](5);\\n        functionSelectors[0] = DiamondLoupeFacet.facetFunctionSelectors.selector;\\n        functionSelectors[1] = DiamondLoupeFacet.facets.selector;\\n        functionSelectors[2] = DiamondLoupeFacet.facetAddress.selector;\\n        functionSelectors[3] = DiamondLoupeFacet.facetAddresses.selector;\\n        functionSelectors[4] = DiamondLoupeFacet.supportsInterface.selector;\\n        _builtinDiamondCut.push(IDiamondCut.FacetCut({\\n            facetAddress:address(diamondLoupeFacet),\\n            action: IDiamondCut.FacetCutAction.Add,\\n            functionSelectors: functionSelectors\\n        }));\\n\\n\\n        // -------------------------------------------------------------------------\\n        // adding ownership functions\\n        // -------------------------------------------------------------------------\\n        OwnershipFacet ownershipFacet = new OwnershipFacet();\\n\\n        functionSelectors = new bytes4[](2);\\n        functionSelectors[0] = OwnershipFacet.transferOwnership.selector;\\n        functionSelectors[1] = OwnershipFacet.owner.selector;\\n        _builtinDiamondCut.push(IDiamondCut.FacetCut({\\n            facetAddress:address(ownershipFacet),\\n            action: IDiamondCut.FacetCutAction.Add,\\n            functionSelectors: functionSelectors\\n        }));\\n    }\\n\\n    function createDiamond(\\n        address owner,\\n        IDiamondCut.FacetCut[] calldata _diamondCut,\\n        bytes calldata data,\\n        bytes32 salt\\n    ) external payable returns (Diamond diamond) {\\n        if (salt != 0x0000000000000000000000000000000000000000000000000000000000000000) {\\n            salt = keccak256(abi.encodePacked(salt, owner));\\n            diamond = new Diamond{value: msg.value, salt: salt}(\\n                _builtinDiamondCut,\\n                Diamond.DiamondArgs({owner:address(this)})\\n            );\\n        } else {\\n            diamond = new Diamond{value: msg.value}(_builtinDiamondCut, Diamond.DiamondArgs({owner:address(this)}));\\n        }\\n        emit DiamondCreated(diamond);\\n\\n        IDiamondCut(address(diamond)).diamondCut(_diamondCut, data.length > 0 ? address(diamond) : address(0), data);\\n        IERC173(address(diamond)).transferOwnership(owner);\\n    }\\n}\\n\",\"keccak256\":\"0x9e84b633e6eaca79cafdb3074e5e5621e3e3c8ed38c67f6332621a34517f2fd2\",\"license\":\"MIT\"},\"solc_0.7/diamond/Diamond.sol\":{\"content\":\"// SPDX-License-Identifier: MIT\\npragma solidity ^0.7.6;\\npragma experimental ABIEncoderV2;\\n\\n/******************************************************************************\\\\\\n* Author: Nick Mudge <nick@perfectabstractions.com> (https://twitter.com/mudgen)\\n* EIP-2535 Diamond Standard: https://eips.ethereum.org/EIPS/eip-2535\\n* \\n* Implementation of a diamond.\\n/******************************************************************************/\\n\\nimport \\\"./libraries/LibDiamond.sol\\\";\\nimport \\\"./interfaces/IDiamondLoupe.sol\\\";\\nimport \\\"./interfaces/IDiamondCut.sol\\\";\\nimport \\\"./interfaces/IERC173.sol\\\";\\nimport \\\"./interfaces/IERC165.sol\\\";\\n\\ncontract Diamond {\\n    // more arguments are added to this struct\\n    // this avoids stack too deep errors\\n    struct DiamondArgs {\\n        address owner;\\n    }\\n\\n    constructor(IDiamondCut.FacetCut[] memory _diamondCut, DiamondArgs memory _args) payable {\\n        LibDiamond.diamondCut(_diamondCut, address(0), new bytes(0));\\n        LibDiamond.setContractOwner(_args.owner);\\n\\n        LibDiamond.DiamondStorage storage ds = LibDiamond.diamondStorage();\\n\\n        // adding ERC165 data\\n        ds.supportedInterfaces[type(IERC165).interfaceId] = true;\\n        ds.supportedInterfaces[type(IDiamondCut).interfaceId] = true;\\n        ds.supportedInterfaces[type(IDiamondLoupe).interfaceId] = true;\\n        ds.supportedInterfaces[type(IERC173).interfaceId] = true;\\n    }\\n\\n    // Find facet for function that is called and execute the\\n    // function if a facet is found and return any value.\\n    fallback() external payable {\\n        LibDiamond.DiamondStorage storage ds;\\n        bytes32 position = LibDiamond.DIAMOND_STORAGE_POSITION;\\n        assembly {\\n            ds.slot := position\\n        }\\n        address facet = ds.selectorToFacetAndPosition[msg.sig].facetAddress;\\n        require(facet != address(0), \\\"Diamond: Function does not exist\\\");\\n        assembly {\\n            calldatacopy(0, 0, calldatasize())\\n            let result := delegatecall(gas(), facet, 0, calldatasize(), 0, 0)\\n            returndatacopy(0, 0, returndatasize())\\n            switch result\\n                case 0 {\\n                    revert(0, returndatasize())\\n                }\\n                default {\\n                    return(0, returndatasize())\\n                }\\n        }\\n    }\\n\\n    receive() external payable {}\\n}\\n\",\"keccak256\":\"0x968d41f1fbb08e012a0617f3a8b865c06f60d783e043b675280741b791216202\",\"license\":\"MIT\"},\"solc_0.7/diamond/facets/DiamondCutFacet.sol\":{\"content\":\"// SPDX-License-Identifier: MIT\\npragma solidity ^0.7.6;\\npragma experimental ABIEncoderV2;\\n\\n/******************************************************************************\\\\\\n* Author: Nick Mudge <nick@perfectabstractions.com> (https://twitter.com/mudgen)\\n* EIP-2535 Diamond Standard: https://eips.ethereum.org/EIPS/eip-2535\\n/******************************************************************************/\\n\\nimport \\\"../interfaces/IDiamondCut.sol\\\";\\nimport \\\"../libraries/LibDiamond.sol\\\";\\n\\ncontract DiamondCutFacet is IDiamondCut {\\n    /// @notice Add/replace/remove any number of functions and optionally execute\\n    ///         a function with delegatecall\\n    /// @param _diamondCut Contains the facet addresses and function selectors\\n    /// @param _init The address of the contract or facet to execute _calldata\\n    /// @param _calldata A function call, including function selector and arguments\\n    ///                  _calldata is executed with delegatecall on _init\\n    function diamondCut(\\n        FacetCut[] calldata _diamondCut,\\n        address _init,\\n        bytes calldata _calldata\\n    ) external override {\\n        LibDiamond.enforceIsContractOwner();\\n        LibDiamond.diamondCut(_diamondCut, _init, _calldata);\\n    }\\n}\\n\",\"keccak256\":\"0x5ba6b5339797ec786263a4f7027f0248868dee5e75174a643d09e10197502ce4\",\"license\":\"MIT\"},\"solc_0.7/diamond/facets/DiamondLoupeFacet.sol\":{\"content\":\"// SPDX-License-Identifier: MIT\\npragma solidity ^0.7.6;\\npragma experimental ABIEncoderV2;\\n\\n/******************************************************************************\\\\\\n* Author: Nick Mudge <nick@perfectabstractions.com> (https://twitter.com/mudgen)\\n* EIP-2535 Diamond Standard: https://eips.ethereum.org/EIPS/eip-2535\\n/******************************************************************************/\\n\\nimport \\\"../libraries/LibDiamond.sol\\\";\\nimport \\\"../interfaces/IDiamondCut.sol\\\";\\nimport \\\"../interfaces/IDiamondLoupe.sol\\\";\\nimport \\\"../interfaces/IERC165.sol\\\";\\n\\ncontract DiamondLoupeFacet is IDiamondLoupe, IERC165 {\\n    // Diamond Loupe Functions\\n    ////////////////////////////////////////////////////////////////////\\n    /// These functions are expected to be called frequently by tools.\\n    //\\n    // struct Facet {\\n    //     address facetAddress;\\n    //     bytes4[] functionSelectors;\\n    // }\\n\\n    /// @notice Gets all facets and their selectors.\\n    /// @return facets_ Facet\\n    function facets() external override view returns (Facet[] memory facets_) {\\n        LibDiamond.DiamondStorage storage ds = LibDiamond.diamondStorage();\\n        uint256 numFacets = ds.facetAddresses.length;\\n        facets_ = new Facet[](numFacets);\\n        for (uint256 i; i < numFacets; i++) {\\n            address facetAddress_ = ds.facetAddresses[i];\\n            facets_[i].facetAddress = facetAddress_;\\n            facets_[i].functionSelectors = ds.facetFunctionSelectors[facetAddress_].functionSelectors;\\n        }\\n    }\\n\\n    /// @notice Gets all the function selectors provided by a facet.\\n    /// @param _facet The facet address.\\n    /// @return facetFunctionSelectors_\\n    function facetFunctionSelectors(address _facet) external override view returns (bytes4[] memory facetFunctionSelectors_) {\\n        LibDiamond.DiamondStorage storage ds = LibDiamond.diamondStorage();\\n        facetFunctionSelectors_ = ds.facetFunctionSelectors[_facet].functionSelectors;\\n    }\\n\\n    /// @notice Get all the facet addresses used by a diamond.\\n    /// @return facetAddresses_\\n    function facetAddresses() external override view returns (address[] memory facetAddresses_) {\\n        LibDiamond.DiamondStorage storage ds = LibDiamond.diamondStorage();\\n        facetAddresses_ = ds.facetAddresses;\\n    }\\n\\n    /// @notice Gets the facet that supports the given selector.\\n    /// @dev If facet is not found return address(0).\\n    /// @param _functionSelector The function selector.\\n    /// @return facetAddress_ The facet address.\\n    function facetAddress(bytes4 _functionSelector) external override view returns (address facetAddress_) {\\n        LibDiamond.DiamondStorage storage ds = LibDiamond.diamondStorage();\\n        facetAddress_ = ds.selectorToFacetAndPosition[_functionSelector].facetAddress;\\n    }\\n\\n    // This implements ERC-165.\\n    function supportsInterface(bytes4 _interfaceId) external override view returns (bool) {\\n        LibDiamond.DiamondStorage storage ds = LibDiamond.diamondStorage();\\n        return ds.supportedInterfaces[_interfaceId];\\n    }\\n}\\n\",\"keccak256\":\"0x0d7e901df775b4518d6a9805cbe226e19f8f3b1050cb8d3edccee1f382efdc00\",\"license\":\"MIT\"},\"solc_0.7/diamond/facets/OwnershipFacet.sol\":{\"content\":\"// SPDX-License-Identifier: MIT\\npragma solidity ^0.7.6;\\n\\nimport \\\"../libraries/LibDiamond.sol\\\";\\nimport \\\"../interfaces/IERC173.sol\\\";\\n\\ncontract OwnershipFacet is IERC173 {\\n    function transferOwnership(address _newOwner) external override {\\n        LibDiamond.enforceIsContractOwner();\\n        LibDiamond.setContractOwner(_newOwner);\\n    }\\n\\n    function owner() external override view returns (address owner_) {\\n        owner_ = LibDiamond.contractOwner();\\n    }\\n}\\n\",\"keccak256\":\"0x9ffdb0b88ad708052930bb61b44cd178843eb66a08de48722f7d4cb94eedfaf5\",\"license\":\"MIT\"},\"solc_0.7/diamond/interfaces/IDiamondCut.sol\":{\"content\":\"// SPDX-License-Identifier: MIT\\npragma solidity ^0.7.6;\\npragma experimental ABIEncoderV2;\\n\\n/******************************************************************************\\\\\\n* Author: Nick Mudge <nick@perfectabstractions.com> (https://twitter.com/mudgen)\\n* EIP-2535 Diamond Standard: https://eips.ethereum.org/EIPS/eip-2535\\n/******************************************************************************/\\n\\ninterface IDiamondCut {\\n    enum FacetCutAction {Add, Replace, Remove}\\n    // Add=0, Replace=1, Remove=2\\n\\n    struct FacetCut {\\n        address facetAddress;\\n        FacetCutAction action;\\n        bytes4[] functionSelectors;\\n    }\\n\\n    /// @notice Add/replace/remove any number of functions and optionally execute\\n    ///         a function with delegatecall\\n    /// @param _diamondCut Contains the facet addresses and function selectors\\n    /// @param _init The address of the contract or facet to execute _calldata\\n    /// @param _calldata A function call, including function selector and arguments\\n    ///                  _calldata is executed with delegatecall on _init\\n    function diamondCut(\\n        FacetCut[] calldata _diamondCut,\\n        address _init,\\n        bytes calldata _calldata\\n    ) external;\\n\\n    event DiamondCut(FacetCut[] _diamondCut, address _init, bytes _calldata);\\n}\\n\",\"keccak256\":\"0xfb3c1af58cd19e1e49f065e33c7c68045ce451c3e16920614979624c44faf892\",\"license\":\"MIT\"},\"solc_0.7/diamond/interfaces/IDiamondLoupe.sol\":{\"content\":\"// SPDX-License-Identifier: MIT\\npragma solidity ^0.7.6;\\npragma experimental ABIEncoderV2;\\n\\n/******************************************************************************\\\\\\n* Author: Nick Mudge <nick@perfectabstractions.com> (https://twitter.com/mudgen)\\n* EIP-2535 Diamond Standard: https://eips.ethereum.org/EIPS/eip-2535\\n/******************************************************************************/\\n\\n// A loupe is a small magnifying glass used to look at diamonds.\\n// These functions look at diamonds\\ninterface IDiamondLoupe {\\n    /// These functions are expected to be called frequently\\n    /// by tools.\\n\\n    struct Facet {\\n        address facetAddress;\\n        bytes4[] functionSelectors;\\n    }\\n\\n    /// @notice Gets all facet addresses and their four byte function selectors.\\n    /// @return facets_ Facet\\n    function facets() external view returns (Facet[] memory facets_);\\n\\n    /// @notice Gets all the function selectors supported by a specific facet.\\n    /// @param _facet The facet address.\\n    /// @return facetFunctionSelectors_\\n    function facetFunctionSelectors(address _facet) external view returns (bytes4[] memory facetFunctionSelectors_);\\n\\n    /// @notice Get all the facet addresses used by a diamond.\\n    /// @return facetAddresses_\\n    function facetAddresses() external view returns (address[] memory facetAddresses_);\\n\\n    /// @notice Gets the facet that supports the given selector.\\n    /// @dev If facet is not found return address(0).\\n    /// @param _functionSelector The function selector.\\n    /// @return facetAddress_ The facet address.\\n    function facetAddress(bytes4 _functionSelector) external view returns (address facetAddress_);\\n}\\n\",\"keccak256\":\"0xf4bc76153335588e7cb5fe1c9701857fd2ae0340ad94976adbf1c49054f82dfe\",\"license\":\"MIT\"},\"solc_0.7/diamond/interfaces/IERC165.sol\":{\"content\":\"// SPDX-License-Identifier: MIT\\npragma solidity ^0.7.6;\\npragma experimental ABIEncoderV2;\\n\\ninterface IERC165 {\\n    /// @notice Query if a contract implements an interface\\n    /// @param interfaceId The interface identifier, as specified in ERC-165\\n    /// @dev Interface identification is specified in ERC-165. This function\\n    ///  uses less than 30,000 gas.\\n    /// @return `true` if the contract implements `interfaceID` and\\n    ///  `interfaceID` is not 0xffffffff, `false` otherwise\\n    function supportsInterface(bytes4 interfaceId) external view returns (bool);\\n}\\n\",\"keccak256\":\"0xe3ccc62939f8e880bdd4d5a34b05ccb9576810b8e999df6d16124e51019a0603\",\"license\":\"MIT\"},\"solc_0.7/diamond/interfaces/IERC173.sol\":{\"content\":\"// SPDX-License-Identifier: MIT\\npragma solidity ^0.7.6;\\n\\n/// @title ERC-173 Contract Ownership Standard\\n///  Note: the ERC-165 identifier for this interface is 0x7f5828d0\\n/* is ERC165 */\\ninterface IERC173 {\\n    /// @dev This emits when ownership of a contract changes.\\n    event OwnershipTransferred(address indexed previousOwner, address indexed newOwner);\\n\\n    /// @notice Get the address of the owner\\n    /// @return owner_ The address of the owner.\\n    function owner() external view returns (address owner_);\\n\\n    /// @notice Set the address of the new owner of the contract\\n    /// @dev Set _newOwner to address(0) to renounce any ownership.\\n    /// @param _newOwner The address of the new owner of the contract\\n    function transferOwnership(address _newOwner) external;\\n}\\n\",\"keccak256\":\"0xa4023156092d7cb99c69e21bc95b910e13c54e582d6814601579bc2fb594ecf8\",\"license\":\"MIT\"},\"solc_0.7/diamond/libraries/LibDiamond.sol\":{\"content\":\"// SPDX-License-Identifier: MIT\\npragma solidity ^0.7.6;\\npragma experimental ABIEncoderV2;\\n\\n/******************************************************************************\\\\\\n* Author: Nick Mudge <nick@perfectabstractions.com> (https://twitter.com/mudgen)\\n* EIP-2535 Diamond Standard: https://eips.ethereum.org/EIPS/eip-2535\\n/******************************************************************************/\\n\\nimport \\\"../interfaces/IDiamondCut.sol\\\";\\n\\nlibrary LibDiamond {\\n    bytes32 constant DIAMOND_STORAGE_POSITION = keccak256(\\\"diamond.standard.diamond.storage\\\");\\n\\n    struct FacetAddressAndPosition {\\n        address facetAddress;\\n        uint16 functionSelectorPosition; // position in facetFunctionSelectors.functionSelectors array\\n    }\\n\\n    struct FacetFunctionSelectors {\\n        bytes4[] functionSelectors;\\n        uint16 facetAddressPosition; // position of facetAddress in facetAddresses array\\n    }\\n\\n    struct DiamondStorage {\\n        // maps function selector to the facet address and\\n        // the position of the selector in the facetFunctionSelectors.selectors array\\n        mapping(bytes4 => FacetAddressAndPosition) selectorToFacetAndPosition;\\n        // maps facet addresses to function selectors\\n        mapping(address => FacetFunctionSelectors) facetFunctionSelectors;\\n        // facet addresses\\n        address[] facetAddresses;\\n        // Used to query if a contract implements an interface.\\n        // Used to implement ERC-165.\\n        mapping(bytes4 => bool) supportedInterfaces;\\n        // owner of the contract\\n        address contractOwner;\\n    }\\n\\n    function diamondStorage() internal pure returns (DiamondStorage storage ds) {\\n        bytes32 position = DIAMOND_STORAGE_POSITION;\\n        assembly {\\n            ds.slot := position\\n        }\\n    }\\n\\n    event OwnershipTransferred(address indexed previousOwner, address indexed newOwner);\\n\\n    function setContractOwner(address _newOwner) internal {\\n        DiamondStorage storage ds = diamondStorage();\\n        address previousOwner = ds.contractOwner;\\n        ds.contractOwner = _newOwner;\\n        emit OwnershipTransferred(previousOwner, _newOwner);\\n    }\\n\\n    function contractOwner() internal view returns (address contractOwner_) {\\n        contractOwner_ = diamondStorage().contractOwner;\\n    }\\n\\n    function enforceIsContractOwner() internal view {\\n        require(msg.sender == diamondStorage().contractOwner, \\\"LibDiamond: Must be contract owner\\\");\\n    }\\n\\n    event DiamondCut(IDiamondCut.FacetCut[] _diamondCut, address _init, bytes _calldata);\\n\\n    // Internal function version of diamondCut\\n    function diamondCut(\\n        IDiamondCut.FacetCut[] memory _diamondCut,\\n        address _init,\\n        bytes memory _calldata\\n    ) internal {\\n        for (uint256 facetIndex; facetIndex < _diamondCut.length; facetIndex++) {\\n            IDiamondCut.FacetCutAction action = _diamondCut[facetIndex].action;\\n            if (action == IDiamondCut.FacetCutAction.Add) {\\n                addFunctions(_diamondCut[facetIndex].facetAddress, _diamondCut[facetIndex].functionSelectors);\\n            } else if (action == IDiamondCut.FacetCutAction.Replace) {\\n                replaceFunctions(_diamondCut[facetIndex].facetAddress, _diamondCut[facetIndex].functionSelectors);\\n            } else if (action == IDiamondCut.FacetCutAction.Remove) {\\n                removeFunctions(_diamondCut[facetIndex].facetAddress, _diamondCut[facetIndex].functionSelectors);\\n            } else {\\n                revert(\\\"LibDiamondCut: Incorrect FacetCutAction\\\");\\n            }\\n        }\\n        emit DiamondCut(_diamondCut, _init, _calldata);\\n        initializeDiamondCut(_init, _calldata);\\n    }\\n\\n    function addFunctions(address _facetAddress, bytes4[] memory _functionSelectors) internal {\\n        require(_functionSelectors.length > 0, \\\"LibDiamondCut: No selectors in facet to cut\\\");\\n        DiamondStorage storage ds = diamondStorage();\\n        // uint16 selectorCount = uint16(diamondStorage().selectors.length);\\n        require(_facetAddress != address(0), \\\"LibDiamondCut: Add facet can't be address(0)\\\");\\n        uint16 selectorPosition = uint16(ds.facetFunctionSelectors[_facetAddress].functionSelectors.length);\\n        // add new facet address if it does not exist\\n        if (selectorPosition == 0) {\\n            enforceHasContractCode(_facetAddress, \\\"LibDiamondCut: New facet has no code\\\");\\n            ds.facetFunctionSelectors[_facetAddress].facetAddressPosition = uint16(ds.facetAddresses.length);\\n            ds.facetAddresses.push(_facetAddress);\\n        }\\n        for (uint256 selectorIndex; selectorIndex < _functionSelectors.length; selectorIndex++) {\\n            bytes4 selector = _functionSelectors[selectorIndex];\\n            address oldFacetAddress = ds.selectorToFacetAndPosition[selector].facetAddress;\\n            require(oldFacetAddress == address(0), \\\"LibDiamondCut: Can't add function that already exists\\\");\\n            ds.facetFunctionSelectors[_facetAddress].functionSelectors.push(selector);\\n            ds.selectorToFacetAndPosition[selector].facetAddress = _facetAddress;\\n            ds.selectorToFacetAndPosition[selector].functionSelectorPosition = selectorPosition;\\n            selectorPosition++;\\n        }\\n    }\\n\\n    function replaceFunctions(address _facetAddress, bytes4[] memory _functionSelectors) internal {\\n        require(_functionSelectors.length > 0, \\\"LibDiamondCut: No selectors in facet to cut\\\");\\n        DiamondStorage storage ds = diamondStorage();\\n        require(_facetAddress != address(0), \\\"LibDiamondCut: Add facet can't be address(0)\\\");\\n        uint16 selectorPosition = uint16(ds.facetFunctionSelectors[_facetAddress].functionSelectors.length);\\n        // add new facet address if it does not exist\\n        if (selectorPosition == 0) {\\n            enforceHasContractCode(_facetAddress, \\\"LibDiamondCut: New facet has no code\\\");\\n            ds.facetFunctionSelectors[_facetAddress].facetAddressPosition = uint16(ds.facetAddresses.length);\\n            ds.facetAddresses.push(_facetAddress);\\n        }\\n        for (uint256 selectorIndex; selectorIndex < _functionSelectors.length; selectorIndex++) {\\n            bytes4 selector = _functionSelectors[selectorIndex];\\n            address oldFacetAddress = ds.selectorToFacetAndPosition[selector].facetAddress;\\n            require(oldFacetAddress != _facetAddress, \\\"LibDiamondCut: Can't replace function with same function\\\");\\n            removeFunction(oldFacetAddress, selector);\\n            // add function\\n            ds.selectorToFacetAndPosition[selector].functionSelectorPosition = selectorPosition;\\n            ds.facetFunctionSelectors[_facetAddress].functionSelectors.push(selector);\\n            ds.selectorToFacetAndPosition[selector].facetAddress = _facetAddress;\\n            selectorPosition++;\\n        }\\n    }\\n\\n    function removeFunctions(address _facetAddress, bytes4[] memory _functionSelectors) internal {\\n        require(_functionSelectors.length > 0, \\\"LibDiamondCut: No selectors in facet to cut\\\");\\n        DiamondStorage storage ds = diamondStorage();\\n        // if function does not exist then do nothing and return\\n        require(_facetAddress == address(0), \\\"LibDiamondCut: Remove facet address must be address(0)\\\");\\n        for (uint256 selectorIndex; selectorIndex < _functionSelectors.length; selectorIndex++) {\\n            bytes4 selector = _functionSelectors[selectorIndex];\\n            address oldFacetAddress = ds.selectorToFacetAndPosition[selector].facetAddress;\\n            removeFunction(oldFacetAddress, selector);\\n        }\\n    }\\n\\n    function removeFunction(address _facetAddress, bytes4 _selector) internal {\\n        DiamondStorage storage ds = diamondStorage();\\n        require(_facetAddress != address(0), \\\"LibDiamondCut: Can't remove function that doesn't exist\\\");\\n        // an immutable function is a function defined directly in a diamond\\n        require(_facetAddress != address(this), \\\"LibDiamondCut: Can't remove immutable function\\\");\\n        // replace selector with last selector, then delete last selector\\n        uint256 selectorPosition = ds.selectorToFacetAndPosition[_selector].functionSelectorPosition;\\n        uint256 lastSelectorPosition = ds.facetFunctionSelectors[_facetAddress].functionSelectors.length - 1;\\n        // if not the same then replace _selector with lastSelector\\n        if (selectorPosition != lastSelectorPosition) {\\n            bytes4 lastSelector = ds.facetFunctionSelectors[_facetAddress].functionSelectors[lastSelectorPosition];\\n            ds.facetFunctionSelectors[_facetAddress].functionSelectors[selectorPosition] = lastSelector;\\n            ds.selectorToFacetAndPosition[lastSelector].functionSelectorPosition = uint16(selectorPosition);\\n        }\\n        // delete the last selector\\n        ds.facetFunctionSelectors[_facetAddress].functionSelectors.pop();\\n        delete ds.selectorToFacetAndPosition[_selector];\\n\\n        // if no more selectors for facet address then delete the facet address\\n        if (lastSelectorPosition == 0) {\\n            // replace facet address with last facet address and delete last facet address\\n            uint256 lastFacetAddressPosition = ds.facetAddresses.length - 1;\\n            uint256 facetAddressPosition = ds.facetFunctionSelectors[_facetAddress].facetAddressPosition;\\n            if (facetAddressPosition != lastFacetAddressPosition) {\\n                address lastFacetAddress = ds.facetAddresses[lastFacetAddressPosition];\\n                ds.facetAddresses[facetAddressPosition] = lastFacetAddress;\\n                ds.facetFunctionSelectors[lastFacetAddress].facetAddressPosition = uint16(facetAddressPosition);\\n            }\\n            ds.facetAddresses.pop();\\n            delete ds.facetFunctionSelectors[_facetAddress].facetAddressPosition;\\n        }\\n    }\\n\\n    function initializeDiamondCut(address _init, bytes memory _calldata) internal {\\n        if (_init == address(0)) {\\n            require(_calldata.length == 0, \\\"LibDiamondCut: _init is address(0) but_calldata is not empty\\\");\\n        } else {\\n            require(_calldata.length > 0, \\\"LibDiamondCut: _calldata is empty but _init is not address(0)\\\");\\n            if (_init != address(this)) {\\n                enforceHasContractCode(_init, \\\"LibDiamondCut: _init address has no code\\\");\\n            }\\n            (bool success, bytes memory error) = _init.delegatecall(_calldata);\\n            if (!success) {\\n                if (error.length > 0) {\\n                    // bubble up the error\\n                    revert(string(error));\\n                } else {\\n                    revert(\\\"LibDiamondCut: _init function reverted\\\");\\n                }\\n            }\\n        }\\n    }\\n\\n    function enforceHasContractCode(address _contract, string memory _errorMessage) internal view {\\n        uint256 contractSize;\\n        assembly {\\n            contractSize := extcodesize(_contract)\\n        }\\n        require(contractSize > 0, _errorMessage);\\n    }\\n}\\n\",\"keccak256\":\"0x4eac03abb9864ad822b50481746c975a8e3e3278e179032cfc1b4b9c8e2320bc\",\"license\":\"MIT\"}},\"version\":1}",
      "bytecode": "0x60806040523480156200001157600080fd5b5060606000604051620000249062000486565b604051809103906000f08015801562000041573d6000803e3d6000fd5b5060408051600180825281830190925291925060208083019080368337019050509150631f931c1c60e01b826000815181106200007a57fe5b6001600160e01b031992909216602092830291909101820152604080516060810182526001600160a01b038481168252600093820184815292820186905283546001810185559380528151600080516020620062a083398151915260029586020180546001600160a01b0319169190921617808255925191939092839160ff60a01b1990911690600160a01b9084908111156200011357fe5b0217905550604082015180516200013591600184019160209091019062000494565b5050506000604051620001489062000547565b604051809103906000f08015801562000165573d6000803e3d6000fd5b5060408051600580825260c082019092529192506020820160a08036833701905050925063adfca15e60e01b836000815181106200019f57fe5b6001600160e01b0319909216602092830291909101909101528251637a0ed62760e01b9084906001908110620001d157fe5b6001600160e01b03199092166020928302919091019091015282516366ffd66360e11b90849060029081106200020357fe5b6001600160e01b03199092166020928302919091019091015282516314bbdacb60e21b90849060039081106200023557fe5b6001600160e01b03199092166020928302919091019091015282516301ffc9a760e01b90849060049081106200026757fe5b6001600160e01b031992909216602092830291909101820152604080516060810182526001600160a01b038481168252600093820184815292820187905283546001810185559380528151600080516020620062a083398151915260029586020180546001600160a01b0319169190921617808255925191939092839160ff60a01b1990911690600160a01b9084908111156200030057fe5b0217905550604082015180516200032291600184019160209091019062000494565b5050506000604051620003359062000555565b604051809103906000f08015801562000352573d6000803e3d6000fd5b50604080516002808252606082018352929350919060208301908036833701905050935063f2fde38b60e01b846000815181106200038c57fe5b6001600160e01b0319909216602092830291909101909101528351638da5cb5b60e01b9085906001908110620003be57fe5b6001600160e01b031992909216602092830291909101820152604080516060810182526001600160a01b038481168252600093820184815292820188905283546001810185559380528151600080516020620062a083398151915260029586020180546001600160a01b0319169190921617808255925191939092839160ff60a01b1990911690600160a01b9084908111156200045757fe5b0217905550604082015180516200047991600184019160209091019062000494565b505050505050506200057a565b611b228062003d9383390190565b82805482825590600052602060002090600701600890048101928215620005355791602002820160005b838211156200050157835183826101000a81548163ffffffff021916908360e01c02179055509260200192600401602081600301049283019260010302620004be565b8015620005335782816101000a81549063ffffffff021916905560040160208160030104928301926001030262000501565b505b506200054392915062000563565b5090565b61073d80620058b583390190565b6102ae8062005ff283390190565b5b8082111562000543576000815560010162000564565b613809806200058a6000396000f3fe608060405260043610620000205760003560e01c8063ccc2e3161462000025575b600080fd5b6200003c620000363660046200031a565b62000054565b6040516200004b919062000524565b60405180910390f35b60008115620000f957818760405160200162000072929190620004f1565b604051602081830303815290604052805190602001209150348290600060405180602001604052803073ffffffffffffffffffffffffffffffffffffffff16815250604051620000c29062000298565b620000cf929190620006cc565b82906040518091039083f591505080158015620000f0573d6000803e3d6000fd5b50905062000147565b6040805160208101825230815290513491600091620001189062000298565b62000125929190620006cc565b6040518091039082f090508015801562000143573d6000803e3d6000fd5b5090505b7f644ca5b0a8b0418e9faf3880659eeb84eaad45ad838b0173808e5ca72f5efc498160405162000178919062000524565b60405180910390a173ffffffffffffffffffffffffffffffffffffffff8116631f931c1c878786620001ac576000620001ae565b845b88886040518663ffffffff1660e01b8152600401620001d295949392919062000545565b600060405180830381600087803b158015620001ed57600080fd5b505af115801562000202573d6000803e3d6000fd5b50506040517ff2fde38b00000000000000000000000000000000000000000000000000000000815273ffffffffffffffffffffffffffffffffffffffff8416925063f2fde38b91506200025a908a9060040162000524565b600060405180830381600087803b1580156200027557600080fd5b505af11580156200028a573d6000803e3d6000fd5b505050509695505050505050565b612d458062000a8f83390190565b803573ffffffffffffffffffffffffffffffffffffffff81168114620002cb57600080fd5b919050565b60008083601f840112620002e2578182fd5b50813567ffffffffffffffff811115620002fa578182fd5b6020830191508360208285010111156200031357600080fd5b9250929050565b6000806000806000806080878903121562000333578182fd5b6200033e87620002a6565b9550602087013567ffffffffffffffff808211156200035b578384fd5b818901915089601f8301126200036f578384fd5b8135818111156200037e578485fd5b8a6020808302850101111562000392578485fd5b602083019750809650506040890135915080821115620003b0578384fd5b50620003bf89828a01620002d0565b979a9699509497949695606090950135949350505050565b73ffffffffffffffffffffffffffffffffffffffff169052565b60008284526020808501945082825b858110156200044e5781357fffffffff0000000000000000000000000000000000000000000000000000000081168082146200043a578586fd5b885250958201959082019060010162000400565b509495945050505050565b7fffffffff00000000000000000000000000000000000000000000000000000000169052565b600082845282826020860137806020848601015260207fffffffffffffffffffffffffffffffffffffffffffffffffffffffffffffffe0601f85011685010190509392505050565b60038110620004d257fe5b9052565b5173ffffffffffffffffffffffffffffffffffffffff169052565b91825260601b7fffffffffffffffffffffffffffffffffffffffff00000000000000000000000016602082015260340190565b73ffffffffffffffffffffffffffffffffffffffff91909116815260200190565b60608082528181018690526000906020608080850190828a028601018a855b8b81101562000698577fffffffffffffffffffffffffffffffffffffffffffffffffffffffffffffff8088840301845281357fffffffffffffffffffffffffffffffffffffffffffffffffffffffffffffffa18e3603018112620005c6578788fd5b8d0173ffffffffffffffffffffffffffffffffffffffff620005e882620002a6565b1684528581013560038110620005fc578889fd5b6200060a87860182620004c7565b506040808201357fffffffffffffffffffffffffffffffffffffffffffffffffffffffffffffffe18336030181126200064157898afd5b8201803567ffffffffffffffff8111156200065a578a8bfd5b88810236038413156200066b578a8bfd5b8983880152620006818a8801828b8501620003f1565b978901979650505092860192505060010162000564565b5050620006a88387018a620003d7565b8581036040870152620006bd81888a6200047f565b9b9a5050505050505050505050565b60006040825260408201845480825260608401915060206060818302860101878552818520855b8481101562000a5b577fffffffffffffffffffffffffffffffffffffffffffffffffffffffffffffffa0888403018652815473ffffffffffffffffffffffffffffffffffffffff811684526200075285850160ff8360a01c16620004c7565b5060018083016060604086015260608501815462000771818362000a85565b91506200077e8362000a79565b92508a5b816007820110156200085e5783546200079f848260e01b62000459565b7fffffffff00000000000000000000000000000000000000000000000000000000620007d38b8601828460c01b1662000459565b620007e760408601828460a01b1662000459565b620007fb60608601828460801b1662000459565b6200080f60808601828460601b1662000459565b6200082360a08601828460401b1662000459565b6200083660c0860182848e1b1662000459565b6200084760e0860182841662000459565b505092840192610100929092019160080162000782565b92549281811015620008805762000879838560e01b62000459565b9188019184015b81811015620008c157620008ba837fffffffff000000000000000000000000000000000000000000000000000000008660c01b1662000459565b9188019184015b818110156200090257620008fb837fffffffff000000000000000000000000000000000000000000000000000000008660a01b1662000459565b9188019184015b8181101562000943576200093c837fffffffff000000000000000000000000000000000000000000000000000000008660801b1662000459565b9188019184015b8181101562000984576200097d837fffffffff000000000000000000000000000000000000000000000000000000008660601b1662000459565b9188019184015b81811015620009c557620009be837fffffffff000000000000000000000000000000000000000000000000000000008660401b1662000459565b9188019184015b8181101562000a0557620009fe837fffffffff00000000000000000000000000000000000000000000000000000000868c1b1662000459565b9188019184015b8181101562000a415762000a3c837fffffffff00000000000000000000000000000000000000000000000000000000861662000459565b918801915b5050978601979450505060029190910190600101620006f3565b50508094505062000a6f81860187620004d6565b5050509392505050565b60009081526020902090565b9081526020019056fe608060405260405162002d4538038062002d45833981016040819052620000269162000db2565b604080516000808252602082019092526200004e918491620000f560201b620000db1760201c565b620000688160000151620002b560201b6200027d1760201c565b60006200007f6200031760201b620003021760201c565b6301ffc9a760e01b600090815260039091016020526040808220805460ff1990811660019081179092556307e4c70760e21b845282842080548216831790556348e2b09360e01b845282842080548216831790556307f5828d60e41b845291909220805490911690911790555062001442915050565b60005b8351811015620002665760008482815181106200011157fe5b6020026020010151602001519050600060028111156200012d57fe5b8160028111156200013a57fe5b14156200018957620001838583815181106200015257fe5b6020026020010151600001518684815181106200016b57fe5b6020026020010151604001516200033b60201b60201c565b6200025c565b60018160028111156200019857fe5b1415620001e15762000183858381518110620001b057fe5b602002602001015160000151868481518110620001c957fe5b6020026020010151604001516200054e60201b60201c565b6002816002811115620001f057fe5b14156200023957620001838583815181106200020857fe5b6020026020010151600001518684815181106200022157fe5b6020026020010151604001516200077860201b60201c565b60405162461bcd60e51b815260040162000253906200117c565b60405180910390fd5b50600101620000f8565b507f8faa70878671ccd212d20771b795c50af8fd3ff6cf27f4bde57e5d4de0aeb6738383836040516200029c9392919062000f25565b60405180910390a1620002b082826200083f565b505050565b6000620002c162000317565b6004810180546001600160a01b038581166001600160a01b031983168117909355604051939450169182907f8be0079c531659141344cd1fd0a4f28419497f9722a3daafe3b4186f6b6457e090600090a3505050565b7fc8fcad8db84d3cc18b4c41d551ea0ee66dd599cde068d998e57d5e09332c131c90565b60008151116200035f5760405162461bcd60e51b81526004016200025390620010d4565b60006200036b62000317565b90506001600160a01b038316620003965760405162461bcd60e51b81526004016200025390620011c3565b6001600160a01b038316600090815260018201602052604090205461ffff81166200043c57620003e08460405180606001604052806024815260200162002d21602491396200097c565b6002820180546001600160a01b038616600081815260018087016020908152604083208201805461ffff191661ffff90961695909517909455845490810185559381529190912090910180546001600160a01b03191690911790555b60005b8351811015620005475760008482815181106200045857fe5b6020908102919091018101516001600160e01b031981166000908152918690526040909120549091506001600160a01b03168015620004ab5760405162461bcd60e51b81526004016200025390620012ba565b506001600160a01b0386166000818152600186810160209081526040808420805480850182559085528285206008820401805463ffffffff60079093166004026101000a928302191660e089901c929092029190911790556001600160e01b0319909516835287905292902080546001600160a01b03191690911761ffff60a01b1916600160a01b61ffff86160217905591820191016200043f565b5050505050565b6000815111620005725760405162461bcd60e51b81526004016200025390620010d4565b60006200057e62000317565b90506001600160a01b038316620005a95760405162461bcd60e51b81526004016200025390620011c3565b6001600160a01b038316600090815260018201602052604090205461ffff81166200064f57620005f38460405180606001604052806024815260200162002d21602491396200097c565b6002820180546001600160a01b038616600081815260018087016020908152604083208201805461ffff191661ffff90961695909517909455845490810185559381529190912090910180546001600160a01b03191690911790555b60005b8351811015620005475760008482815181106200066b57fe5b6020908102919091018101516001600160e01b031981166000908152918690526040909120549091506001600160a01b03908116908716811415620006c45760405162461bcd60e51b8152600401620002539062001317565b620006d08183620009a0565b506001600160e01b03198116600081815260208681526040808320805461ffff60a01b1916600160a01b61ffff8a16021781556001600160a01b038b168085526001808b018552928520805480850182559086528486206008820401805463ffffffff60079093166004026101000a928302191660e09990991c91909102979097179096559390925286905281546001600160a01b0319169092179055918201910162000652565b60008151116200079c5760405162461bcd60e51b81526004016200025390620010d4565b6000620007a862000317565b90506001600160a01b03831615620007d45760405162461bcd60e51b8152600401620002539062001374565b60005b825181101562000839576000838281518110620007f057fe5b6020908102919091018101516001600160e01b031981166000908152918590526040909120549091506001600160a01b03166200082e8183620009a0565b5050600101620007d7565b50505050565b6001600160a01b0382166200087657805115620008705760405162461bcd60e51b8152600401620002539062001031565b62000978565b60008151116200089a5760405162461bcd60e51b815260040162000253906200120f565b6001600160a01b0382163014620008d057620008d08260405180606001604052806028815260200162002cf9602891396200097c565b600080836001600160a01b031683604051620008ed919062000f07565b600060405180830381855af49150503d80600081146200092a576040519150601f19603f3d011682016040523d82523d6000602084013e6200092f565b606091505b50915091508162000839578051156200095e578060405162461bcd60e51b815260040162000253919062001015565b60405162461bcd60e51b815260040162000253906200108e565b5050565b813b8181620008395760405162461bcd60e51b815260040162000253919062001015565b6000620009ac62000317565b90506001600160a01b038316620009d75760405162461bcd60e51b815260040162000253906200111f565b6001600160a01b03831630141562000a035760405162461bcd60e51b815260040162000253906200126c565b6001600160e01b03198216600090815260208281526040808320546001600160a01b03871684526001850190925290912054600160a01b90910461ffff16906000190180821462000b27576001600160a01b0385166000908152600184016020526040812080548390811062000a7557fe5b600091825260208083206008830401546001600160a01b038a168452600188019091526040909220805460079092166004026101000a90920460e01b92508291908590811062000ac157fe5b600091825260208083206008830401805463ffffffff60079094166004026101000a938402191660e09590951c929092029390931790556001600160e01b031992909216825284905260409020805461ffff60a01b1916600160a01b61ffff8516021790555b6001600160a01b0385166000908152600184016020526040902080548062000b4b57fe5b60008281526020808220600860001990940193840401805463ffffffff600460078716026101000a0219169055919092556001600160e01b0319861682528490526040902080546001600160b01b031916905580620005475760028301546001600160a01b03861660009081526001858101602052604090912001546000199091019061ffff1680821462000c6357600085600201838154811062000bec57fe5b6000918252602090912001546002870180546001600160a01b03909216925082918490811062000c1857fe5b600091825260208083209190910180546001600160a01b0319166001600160a01b0394851617905592909116815260018781019092526040902001805461ffff191661ffff83161790555b8460020180548062000c7157fe5b60008281526020808220830160001990810180546001600160a01b03191690559092019092556001600160a01b03891682526001878101909152604090912001805461ffff1916905550505050505050565b80516001600160a01b038116811462000cdb57600080fd5b919050565b600082601f83011262000cf1578081fd5b8151602062000d0a62000d0483620013f5565b620013d1565b828152818101908583018385028701840188101562000d27578586fd5b855b8581101562000d5d5781516001600160e01b03198116811462000d4a578788fd5b8452928401929084019060010162000d29565b5090979650505050505050565b60006020828403121562000d7c578081fd5b604051602081016001600160401b038111828210171562000d9957fe5b60405290508062000daa8362000cc3565b905292915050565b6000806040838503121562000dc5578182fd5b82516001600160401b038082111562000ddc578384fd5b818501915085601f83011262000df0578384fd5b8151602062000e0362000d0483620013f5565b82815281810190858301885b8581101562000eaa57815188016060818e03601f1901121562000e30578a8bfd5b604051606081018181108a8211171562000e4657fe5b60405262000e5682880162000cc3565b815260408201516003811062000e6a578c8dfd5b8188015260608201518981111562000e80578c8dfd5b62000e908f898386010162000ce0565b604083015250855250928401929084019060010162000e0f565b5050809750505062000ebf8882890162000d6a565b9450505050509250929050565b6001600160a01b03169052565b6000815180845262000ef381602086016020860162001413565b601f01601f19169290920160200192915050565b6000825162000f1b81846020870162001413565b9190910192915050565b606080825284518282018190526000919060809081850190602080820287018401818b01875b8481101562000fe257898303607f19018652815180516001600160a01b0316845284810151898501906003811062000f7f57fe5b858701526040918201519185018a9052815190819052908501908a90898601905b8083101562000fcc5783516001600160e01b031916825292870192600192909201919087019062000fa0565b5097860197945050509083019060010162000f4b565b505062000ff28289018b62000ecc565b878103604089015262001006818a62000ed9565b9b9a5050505050505050505050565b6000602082526200102a602083018462000ed9565b9392505050565b6020808252603c908201527f4c69624469616d6f6e644375743a205f696e697420697320616464726573732860408201527f3029206275745f63616c6c64617461206973206e6f7420656d70747900000000606082015260800190565b60208082526026908201527f4c69624469616d6f6e644375743a205f696e69742066756e6374696f6e2072656040820152651d995c9d195960d21b606082015260800190565b6020808252602b908201527f4c69624469616d6f6e644375743a204e6f2073656c6563746f727320696e206660408201526a1858d95d081d1bc818dd5d60aa1b606082015260800190565b60208082526037908201527f4c69624469616d6f6e644375743a2043616e27742072656d6f76652066756e6360408201527f74696f6e207468617420646f65736e2774206578697374000000000000000000606082015260800190565b60208082526027908201527f4c69624469616d6f6e644375743a20496e636f727265637420466163657443756040820152663a20b1ba34b7b760c91b606082015260800190565b6020808252602c908201527f4c69624469616d6f6e644375743a204164642066616365742063616e2774206260408201526b65206164647265737328302960a01b606082015260800190565b6020808252603d908201527f4c69624469616d6f6e644375743a205f63616c6c6461746120697320656d707460408201527f7920627574205f696e6974206973206e6f742061646472657373283029000000606082015260800190565b6020808252602e908201527f4c69624469616d6f6e644375743a2043616e27742072656d6f766520696d6d7560408201526d3a30b1363290333ab731ba34b7b760911b606082015260800190565b60208082526035908201527f4c69624469616d6f6e644375743a2043616e2774206164642066756e6374696f60408201527f6e207468617420616c7265616479206578697374730000000000000000000000606082015260800190565b60208082526038908201527f4c69624469616d6f6e644375743a2043616e2774207265706c6163652066756e60408201527f6374696f6e20776974682073616d652066756e6374696f6e0000000000000000606082015260800190565b60208082526036908201527f4c69624469616d6f6e644375743a2052656d6f7665206661636574206164647260408201527f657373206d757374206265206164647265737328302900000000000000000000606082015260800190565b6040518181016001600160401b0381118282101715620013ed57fe5b604052919050565b60006001600160401b038211156200140957fe5b5060209081020190565b60005b838110156200143057818101518382015260200162001416565b83811115620008395750506000910152565b6118a780620014526000396000f3fe60806040523661000b57005b600080357fffffffff000000000000000000000000000000000000000000000000000000001681527fc8fcad8db84d3cc18b4c41d551ea0ee66dd599cde068d998e57d5e09332c131c6020819052604090912054819073ffffffffffffffffffffffffffffffffffffffff16806100b7576040517f08c379a00000000000000000000000000000000000000000000000000000000081526004016100ae906115f3565b60405180910390fd5b3660008037600080366000845af43d6000803e8080156100d6573d6000f35b3d6000fd5b60005b83518110156102325760008482815181106100f557fe5b60200260200101516020015190506000600281111561011057fe5b81600281111561011c57fe5b141561015f5761015a85838151811061013157fe5b60200260200101516000015186848151811061014957fe5b602002602001015160400151610326565b610229565b600181600281111561016d57fe5b14156101ab5761015a85838151811061018257fe5b60200260200101516000015186848151811061019a57fe5b60200260200101516040015161065e565b60028160028111156101b957fe5b14156101f75761015a8583815181106101ce57fe5b6020026020010151600001518684815181106101e657fe5b6020026020010151604001516109ab565b6040517f08c379a00000000000000000000000000000000000000000000000000000000081526004016100ae90611539565b506001016100de565b507f8faa70878671ccd212d20771b795c50af8fd3ff6cf27f4bde57e5d4de0aeb67383838360405161026693929190611282565b60405180910390a16102788282610acb565b505050565b6000610287610302565b60048101805473ffffffffffffffffffffffffffffffffffffffff8581167fffffffffffffffffffffffff000000000000000000000000000000000000000083168117909355604051939450169182907f8be0079c531659141344cd1fd0a4f28419497f9722a3daafe3b4186f6b6457e090600090a3505050565b7fc8fcad8db84d3cc18b4c41d551ea0ee66dd599cde068d998e57d5e09332c131c90565b6000815111610361576040517f08c379a00000000000000000000000000000000000000000000000000000000081526004016100ae9061147f565b600061036b610302565b905073ffffffffffffffffffffffffffffffffffffffff83166103ba576040517f08c379a00000000000000000000000000000000000000000000000000000000081526004016100ae90611596565b73ffffffffffffffffffffffffffffffffffffffff8316600090815260018201602052604090205461ffff81166104ab5761040d8460405180606001604052806024815260200161184e60249139610c81565b60028201805473ffffffffffffffffffffffffffffffffffffffff861660008181526001808701602090815260408320820180547fffffffffffffffffffffffffffffffffffffffffffffffffffffffffffff00001661ffff90961695909517909455845490810185559381529190912090910180547fffffffffffffffffffffffff00000000000000000000000000000000000000001690911790555b60005b83518110156106575760008482815181106104c557fe5b6020908102919091018101517fffffffff00000000000000000000000000000000000000000000000000000000811660009081529186905260409091205490915073ffffffffffffffffffffffffffffffffffffffff168015610554576040517f08c379a00000000000000000000000000000000000000000000000000000000081526004016100ae906116e2565b5073ffffffffffffffffffffffffffffffffffffffff86166000818152600186810160209081526040808420805480850182559085528285206008820401805463ffffffff60079093166004026101000a928302191660e089901c929092029190911790557fffffffff00000000000000000000000000000000000000000000000000000000909516835287905292902080547fffffffffffffffffffffffff0000000000000000000000000000000000000000169091177fffffffffffffffffffff0000ffffffffffffffffffffffffffffffffffffffff167401000000000000000000000000000000000000000061ffff86160217905591820191016104ae565b5050505050565b6000815111610699576040517f08c379a00000000000000000000000000000000000000000000000000000000081526004016100ae9061147f565b60006106a3610302565b905073ffffffffffffffffffffffffffffffffffffffff83166106f2576040517f08c379a00000000000000000000000000000000000000000000000000000000081526004016100ae90611596565b73ffffffffffffffffffffffffffffffffffffffff8316600090815260018201602052604090205461ffff81166107e3576107458460405180606001604052806024815260200161184e60249139610c81565b60028201805473ffffffffffffffffffffffffffffffffffffffff861660008181526001808701602090815260408320820180547fffffffffffffffffffffffffffffffffffffffffffffffffffffffffffff00001661ffff90961695909517909455845490810185559381529190912090910180547fffffffffffffffffffffffff00000000000000000000000000000000000000001690911790555b60005b83518110156106575760008482815181106107fd57fe5b6020908102919091018101517fffffffff00000000000000000000000000000000000000000000000000000000811660009081529186905260409091205490915073ffffffffffffffffffffffffffffffffffffffff908116908716811415610892576040517f08c379a00000000000000000000000000000000000000000000000000000000081526004016100ae9061173f565b61089c8183610cbc565b507fffffffff00000000000000000000000000000000000000000000000000000000811660008181526020868152604080832080547fffffffffffffffffffff0000ffffffffffffffffffffffffffffffffffffffff167401000000000000000000000000000000000000000061ffff8a160217815573ffffffffffffffffffffffffffffffffffffffff8b168085526001808b018552928520805480850182559086528486206008820401805463ffffffff60079093166004026101000a928302191660e09990991c91909102979097179096559390925286905281547fffffffffffffffffffffffff000000000000000000000000000000000000000016909217905591820191016107e6565b60008151116109e6576040517f08c379a00000000000000000000000000000000000000000000000000000000081526004016100ae9061147f565b60006109f0610302565b905073ffffffffffffffffffffffffffffffffffffffff831615610a40576040517f08c379a00000000000000000000000000000000000000000000000000000000081526004016100ae9061179c565b60005b8251811015610ac5576000838281518110610a5a57fe5b6020908102919091018101517fffffffff00000000000000000000000000000000000000000000000000000000811660009081529185905260409091205490915073ffffffffffffffffffffffffffffffffffffffff16610abb8183610cbc565b5050600101610a43565b50505050565b73ffffffffffffffffffffffffffffffffffffffff8216610b2457805115610b1f576040517f08c379a00000000000000000000000000000000000000000000000000000000081526004016100ae906113c5565b610c7d565b6000815111610b5f576040517f08c379a00000000000000000000000000000000000000000000000000000000081526004016100ae90611628565b73ffffffffffffffffffffffffffffffffffffffff82163014610b9e57610b9e8260405180606001604052806028815260200161182660289139610c81565b6000808373ffffffffffffffffffffffffffffffffffffffff1683604051610bc69190611266565b600060405180830381855af49150503d8060008114610c01576040519150601f19603f3d011682016040523d82523d6000602084013e610c06565b606091505b509150915081610ac557805115610c4b57806040517f08c379a00000000000000000000000000000000000000000000000000000000081526004016100ae91906113ab565b6040517f08c379a00000000000000000000000000000000000000000000000000000000081526004016100ae90611422565b5050565b813b8181610ac5576040517f08c379a00000000000000000000000000000000000000000000000000000000081526004016100ae91906113ab565b6000610cc6610302565b905073ffffffffffffffffffffffffffffffffffffffff8316610d15576040517f08c379a00000000000000000000000000000000000000000000000000000000081526004016100ae906114dc565b73ffffffffffffffffffffffffffffffffffffffff8316301415610d65576040517f08c379a00000000000000000000000000000000000000000000000000000000081526004016100ae90611685565b7fffffffff0000000000000000000000000000000000000000000000000000000082166000908152602082815260408083205473ffffffffffffffffffffffffffffffffffffffff8716845260018501909252909120547401000000000000000000000000000000000000000090910461ffff16907fffffffffffffffffffffffffffffffffffffffffffffffffffffffffffffffff01808214610f375773ffffffffffffffffffffffffffffffffffffffff851660009081526001840160205260408120805483908110610e3657fe5b6000918252602080832060088304015473ffffffffffffffffffffffffffffffffffffffff8a168452600188019091526040909220805460079092166004026101000a90920460e01b925082919085908110610e8e57fe5b600091825260208083206008830401805463ffffffff60079094166004026101000a938402191660e09590951c929092029390931790557fffffffff000000000000000000000000000000000000000000000000000000009290921682528490526040902080547fffffffffffffffffffff0000ffffffffffffffffffffffffffffffffffffffff167401000000000000000000000000000000000000000061ffff8516021790555b73ffffffffffffffffffffffffffffffffffffffff851660009081526001840160205260409020805480610f6757fe5b6000828152602080822060087fffffffffffffffffffffffffffffffffffffffffffffffffffffffffffffffff90940193840401805463ffffffff600460078716026101000a0219169055919092557fffffffff00000000000000000000000000000000000000000000000000000000861682528490526040902080547fffffffffffffffffffff000000000000000000000000000000000000000000001690558061065757600283015473ffffffffffffffffffffffffffffffffffffffff861660009081526001858101602052604090912001547fffffffffffffffffffffffffffffffffffffffffffffffffffffffffffffffff9091019061ffff1680821461114357600085600201838154811061107e57fe5b60009182526020909120015460028701805473ffffffffffffffffffffffffffffffffffffffff90921692508291849081106110b657fe5b600091825260208083209190910180547fffffffffffffffffffffffff00000000000000000000000000000000000000001673ffffffffffffffffffffffffffffffffffffffff9485161790559290911681526001878101909252604090200180547fffffffffffffffffffffffffffffffffffffffffffffffffffffffffffff00001661ffff83161790555b8460020180548061115057fe5b6000828152602080822083017fffffffffffffffffffffffffffffffffffffffffffffffffffffffffffffffff90810180547fffffffffffffffffffffffff000000000000000000000000000000000000000016905590920190925573ffffffffffffffffffffffffffffffffffffffff89168252600187810190915260409091200180547fffffffffffffffffffffffffffffffffffffffffffffffffffffffffffff000016905550505050505050565b73ffffffffffffffffffffffffffffffffffffffff169052565b600081518084526112348160208601602086016117f9565b601f017fffffffffffffffffffffffffffffffffffffffffffffffffffffffffffffffe0169290920160200192915050565b600082516112788184602087016117f9565b9190910192915050565b606080825284518282018190526000919060809081850190602080820287018401818b01875b8481101561137c577fffffffffffffffffffffffffffffffffffffffffffffffffffffffffffffff808a8403018652815188840173ffffffffffffffffffffffffffffffffffffffff8251168552858201516003811061130457fe5b858701526040918201519185018a9052815190819052908501908a90898601905b808310156113675783517fffffffff00000000000000000000000000000000000000000000000000000000168252928701926001929092019190870190611325565b509786019794505050908301906001016112a8565b505061138a8289018b611202565b878103604089015261139c818a61121c565b9b9a5050505050505050505050565b6000602082526113be602083018461121c565b9392505050565b6020808252603c908201527f4c69624469616d6f6e644375743a205f696e697420697320616464726573732860408201527f3029206275745f63616c6c64617461206973206e6f7420656d70747900000000606082015260800190565b60208082526026908201527f4c69624469616d6f6e644375743a205f696e69742066756e6374696f6e20726560408201527f7665727465640000000000000000000000000000000000000000000000000000606082015260800190565b6020808252602b908201527f4c69624469616d6f6e644375743a204e6f2073656c6563746f727320696e206660408201527f6163657420746f20637574000000000000000000000000000000000000000000606082015260800190565b60208082526037908201527f4c69624469616d6f6e644375743a2043616e27742072656d6f76652066756e6360408201527f74696f6e207468617420646f65736e2774206578697374000000000000000000606082015260800190565b60208082526027908201527f4c69624469616d6f6e644375743a20496e636f7272656374204661636574437560408201527f74416374696f6e00000000000000000000000000000000000000000000000000606082015260800190565b6020808252602c908201527f4c69624469616d6f6e644375743a204164642066616365742063616e2774206260408201527f6520616464726573732830290000000000000000000000000000000000000000606082015260800190565b6020808252818101527f4469616d6f6e643a2046756e6374696f6e20646f6573206e6f74206578697374604082015260600190565b6020808252603d908201527f4c69624469616d6f6e644375743a205f63616c6c6461746120697320656d707460408201527f7920627574205f696e6974206973206e6f742061646472657373283029000000606082015260800190565b6020808252602e908201527f4c69624469616d6f6e644375743a2043616e27742072656d6f766520696d6d7560408201527f7461626c652066756e6374696f6e000000000000000000000000000000000000606082015260800190565b60208082526035908201527f4c69624469616d6f6e644375743a2043616e2774206164642066756e6374696f60408201527f6e207468617420616c7265616479206578697374730000000000000000000000606082015260800190565b60208082526038908201527f4c69624469616d6f6e644375743a2043616e2774207265706c6163652066756e60408201527f6374696f6e20776974682073616d652066756e6374696f6e0000000000000000606082015260800190565b60208082526036908201527f4c69624469616d6f6e644375743a2052656d6f7665206661636574206164647260408201527f657373206d757374206265206164647265737328302900000000000000000000606082015260800190565b60005b838110156118145781810151838201526020016117fc565b83811115610ac5575050600091015256fe4c69624469616d6f6e644375743a205f696e6974206164647265737320686173206e6f20636f64654c69624469616d6f6e644375743a204e657720666163657420686173206e6f20636f6465a2646970667358221220ea38627cf38ea2038c978c7cbeb3a7dcff63e682447f5fdf1c6029d8ae2270f964736f6c634300070600334c69624469616d6f6e644375743a205f696e6974206164647265737320686173206e6f20636f64654c69624469616d6f6e644375743a204e657720666163657420686173206e6f20636f6465a2646970667358221220c37f3bb422ae8a5bafabb97ac735ce243e7c23563bc782f927de436ca9011ed864736f6c63430007060033608060405234801561001057600080fd5b50611b02806100206000396000f3fe608060405234801561001057600080fd5b506004361061002b5760003560e01c80631f931c1c14610030575b600080fd5b61004361003e366004611260565b610045565b005b61004d61009e565b61009761005a8587611993565b8484848080601f01602080910402602001604051908101604052809392919081815260200183838082843760009201919091525061010392505050565b5050505050565b6100a66102a5565b6004015473ffffffffffffffffffffffffffffffffffffffff163314610101576040517f08c379a00000000000000000000000000000000000000000000000000000000081526004016100f8906115af565b60405180910390fd5b565b60005b835181101561025a57600084828151811061011d57fe5b60200260200101516020015190506000600281111561013857fe5b81600281111561014457fe5b14156101875761018285838151811061015957fe5b60200260200101516000015186848151811061017157fe5b6020026020010151604001516102c9565b610251565b600181600281111561019557fe5b14156101d3576101828583815181106101aa57fe5b6020026020010151600001518684815181106101c257fe5b6020026020010151604001516105fa565b60028160028111156101e157fe5b141561021f576101828583815181106101f657fe5b60200260200101516000015186848151811061020e57fe5b602002602001015160400151610947565b6040517f08c379a00000000000000000000000000000000000000000000000000000000081526004016100f8906116c6565b50600101610106565b507f8faa70878671ccd212d20771b795c50af8fd3ff6cf27f4bde57e5d4de0aeb67383838360405161028e939291906113b2565b60405180910390a16102a08282610a67565b505050565b7fc8fcad8db84d3cc18b4c41d551ea0ee66dd599cde068d998e57d5e09332c131c90565b6000815111610304576040517f08c379a00000000000000000000000000000000000000000000000000000000081526004016100f89061160c565b600061030e6102a5565b905073ffffffffffffffffffffffffffffffffffffffff831661035d576040517f08c379a00000000000000000000000000000000000000000000000000000000081526004016100f890611723565b73ffffffffffffffffffffffffffffffffffffffff8316600090815260018201602052604090205461ffff811661044e576103b084604051806060016040528060248152602001611aa960249139610c1d565b60028201805473ffffffffffffffffffffffffffffffffffffffff861660008181526001808701602090815260408320820180547fffffffffffffffffffffffffffffffffffffffffffffffffffffffffffff00001661ffff90961695909517909455845490810185559381529190912090910180547fffffffffffffffffffffffff00000000000000000000000000000000000000001690911790555b60005b835181101561009757600084828151811061046857fe5b6020908102919091018101517fffffffff00000000000000000000000000000000000000000000000000000000811660009081529186905260409091205490915073ffffffffffffffffffffffffffffffffffffffff1680156104f7576040517f08c379a00000000000000000000000000000000000000000000000000000000081526004016100f89061183a565b5073ffffffffffffffffffffffffffffffffffffffff86166000818152600186810160209081526040808420805480850182559085528285206008820401805463ffffffff60079093166004026101000a928302191660e089901c929092029190911790557fffffffff00000000000000000000000000000000000000000000000000000000909516835287905292902080547fffffffffffffffffffffffff0000000000000000000000000000000000000000169091177fffffffffffffffffffff0000ffffffffffffffffffffffffffffffffffffffff167401000000000000000000000000000000000000000061ffff8616021790559182019101610451565b6000815111610635576040517f08c379a00000000000000000000000000000000000000000000000000000000081526004016100f89061160c565b600061063f6102a5565b905073ffffffffffffffffffffffffffffffffffffffff831661068e576040517f08c379a00000000000000000000000000000000000000000000000000000000081526004016100f890611723565b73ffffffffffffffffffffffffffffffffffffffff8316600090815260018201602052604090205461ffff811661077f576106e184604051806060016040528060248152602001611aa960249139610c1d565b60028201805473ffffffffffffffffffffffffffffffffffffffff861660008181526001808701602090815260408320820180547fffffffffffffffffffffffffffffffffffffffffffffffffffffffffffff00001661ffff90961695909517909455845490810185559381529190912090910180547fffffffffffffffffffffffff00000000000000000000000000000000000000001690911790555b60005b835181101561009757600084828151811061079957fe5b6020908102919091018101517fffffffff00000000000000000000000000000000000000000000000000000000811660009081529186905260409091205490915073ffffffffffffffffffffffffffffffffffffffff90811690871681141561082e576040517f08c379a00000000000000000000000000000000000000000000000000000000081526004016100f890611897565b6108388183610c58565b507fffffffff00000000000000000000000000000000000000000000000000000000811660008181526020868152604080832080547fffffffffffffffffffff0000ffffffffffffffffffffffffffffffffffffffff167401000000000000000000000000000000000000000061ffff8a160217815573ffffffffffffffffffffffffffffffffffffffff8b168085526001808b018552928520805480850182559086528486206008820401805463ffffffff60079093166004026101000a928302191660e09990991c91909102979097179096559390925286905281547fffffffffffffffffffffffff00000000000000000000000000000000000000001690921790559182019101610782565b6000815111610982576040517f08c379a00000000000000000000000000000000000000000000000000000000081526004016100f89061160c565b600061098c6102a5565b905073ffffffffffffffffffffffffffffffffffffffff8316156109dc576040517f08c379a00000000000000000000000000000000000000000000000000000000081526004016100f8906118f4565b60005b8251811015610a615760008382815181106109f657fe5b6020908102919091018101517fffffffff00000000000000000000000000000000000000000000000000000000811660009081529185905260409091205490915073ffffffffffffffffffffffffffffffffffffffff16610a578183610c58565b50506001016109df565b50505050565b73ffffffffffffffffffffffffffffffffffffffff8216610ac057805115610abb576040517f08c379a00000000000000000000000000000000000000000000000000000000081526004016100f8906114f5565b610c19565b6000815111610afb576040517f08c379a00000000000000000000000000000000000000000000000000000000081526004016100f890611780565b73ffffffffffffffffffffffffffffffffffffffff82163014610b3a57610b3a82604051806060016040528060288152602001611a8160289139610c1d565b6000808373ffffffffffffffffffffffffffffffffffffffff1683604051610b629190611396565b600060405180830381855af49150503d8060008114610b9d576040519150601f19603f3d011682016040523d82523d6000602084013e610ba2565b606091505b509150915081610a6157805115610be757806040517f08c379a00000000000000000000000000000000000000000000000000000000081526004016100f891906114db565b6040517f08c379a00000000000000000000000000000000000000000000000000000000081526004016100f890611552565b5050565b813b8181610a61576040517f08c379a00000000000000000000000000000000000000000000000000000000081526004016100f891906114db565b6000610c626102a5565b905073ffffffffffffffffffffffffffffffffffffffff8316610cb1576040517f08c379a00000000000000000000000000000000000000000000000000000000081526004016100f890611669565b73ffffffffffffffffffffffffffffffffffffffff8316301415610d01576040517f08c379a00000000000000000000000000000000000000000000000000000000081526004016100f8906117dd565b7fffffffff0000000000000000000000000000000000000000000000000000000082166000908152602082815260408083205473ffffffffffffffffffffffffffffffffffffffff8716845260018501909252909120547401000000000000000000000000000000000000000090910461ffff16907fffffffffffffffffffffffffffffffffffffffffffffffffffffffffffffffff01808214610ed35773ffffffffffffffffffffffffffffffffffffffff851660009081526001840160205260408120805483908110610dd257fe5b6000918252602080832060088304015473ffffffffffffffffffffffffffffffffffffffff8a168452600188019091526040909220805460079092166004026101000a90920460e01b925082919085908110610e2a57fe5b600091825260208083206008830401805463ffffffff60079094166004026101000a938402191660e09590951c929092029390931790557fffffffff000000000000000000000000000000000000000000000000000000009290921682528490526040902080547fffffffffffffffffffff0000ffffffffffffffffffffffffffffffffffffffff167401000000000000000000000000000000000000000061ffff8516021790555b73ffffffffffffffffffffffffffffffffffffffff851660009081526001840160205260409020805480610f0357fe5b6000828152602080822060087fffffffffffffffffffffffffffffffffffffffffffffffffffffffffffffffff90940193840401805463ffffffff600460078716026101000a0219169055919092557fffffffff00000000000000000000000000000000000000000000000000000000861682528490526040902080547fffffffffffffffffffff000000000000000000000000000000000000000000001690558061009757600283015473ffffffffffffffffffffffffffffffffffffffff861660009081526001858101602052604090912001547fffffffffffffffffffffffffffffffffffffffffffffffffffffffffffffffff9091019061ffff168082146110df57600085600201838154811061101a57fe5b60009182526020909120015460028701805473ffffffffffffffffffffffffffffffffffffffff909216925082918490811061105257fe5b600091825260208083209190910180547fffffffffffffffffffffffff00000000000000000000000000000000000000001673ffffffffffffffffffffffffffffffffffffffff9485161790559290911681526001878101909252604090200180547fffffffffffffffffffffffffffffffffffffffffffffffffffffffffffff00001661ffff83161790555b846002018054806110ec57fe5b6000828152602080822083017fffffffffffffffffffffffffffffffffffffffffffffffffffffffffffffffff90810180547fffffffffffffffffffffffff000000000000000000000000000000000000000016905590920190925573ffffffffffffffffffffffffffffffffffffffff89168252600187810190915260409091200180547fffffffffffffffffffffffffffffffffffffffffffffffffffffffffffff000016905550505050505050565b803573ffffffffffffffffffffffffffffffffffffffff811681146111c257600080fd5b919050565b600082601f8301126111d7578081fd5b813560206111ec6111e783611975565b611951565b8281528181019085830183850287018401881015611208578586fd5b855b858110156112535781357fffffffff0000000000000000000000000000000000000000000000000000000081168114611241578788fd5b8452928401929084019060010161120a565b5090979650505050505050565b600080600080600060608688031215611277578081fd5b853567ffffffffffffffff8082111561128e578283fd5b818801915088601f8301126112a1578283fd5b8135818111156112af578384fd5b60208a8182840286010111156112c3578485fd5b80840198508197506112d6818b0161119e565b965060408a01359350828411156112eb578485fd5b838a0193508a601f8501126112fe578485fd5b833591508282111561130e578485fd5b8a8183860101111561131e578485fd5b979a96995094975050909401935090919050565b73ffffffffffffffffffffffffffffffffffffffff169052565b60008151808452611364816020860160208601611a54565b601f017fffffffffffffffffffffffffffffffffffffffffffffffffffffffffffffffe0169290920160200192915050565b600082516113a8818460208701611a54565b9190910192915050565b606080825284518282018190526000919060809081850190602080820287018401818b01875b848110156114ac577fffffffffffffffffffffffffffffffffffffffffffffffffffffffffffffff808a8403018652815188840173ffffffffffffffffffffffffffffffffffffffff8251168552858201516003811061143457fe5b858701526040918201519185018a9052815190819052908501908a90898601905b808310156114975783517fffffffff00000000000000000000000000000000000000000000000000000000168252928701926001929092019190870190611455565b509786019794505050908301906001016113d8565b50506114ba8289018b611332565b87810360408901526114cc818a61134c565b9b9a5050505050505050505050565b6000602082526114ee602083018461134c565b9392505050565b6020808252603c908201527f4c69624469616d6f6e644375743a205f696e697420697320616464726573732860408201527f3029206275745f63616c6c64617461206973206e6f7420656d70747900000000606082015260800190565b60208082526026908201527f4c69624469616d6f6e644375743a205f696e69742066756e6374696f6e20726560408201527f7665727465640000000000000000000000000000000000000000000000000000606082015260800190565b60208082526022908201527f4c69624469616d6f6e643a204d75737420626520636f6e7472616374206f776e60408201527f6572000000000000000000000000000000000000000000000000000000000000606082015260800190565b6020808252602b908201527f4c69624469616d6f6e644375743a204e6f2073656c6563746f727320696e206660408201527f6163657420746f20637574000000000000000000000000000000000000000000606082015260800190565b60208082526037908201527f4c69624469616d6f6e644375743a2043616e27742072656d6f76652066756e6360408201527f74696f6e207468617420646f65736e2774206578697374000000000000000000606082015260800190565b60208082526027908201527f4c69624469616d6f6e644375743a20496e636f7272656374204661636574437560408201527f74416374696f6e00000000000000000000000000000000000000000000000000606082015260800190565b6020808252602c908201527f4c69624469616d6f6e644375743a204164642066616365742063616e2774206260408201527f6520616464726573732830290000000000000000000000000000000000000000606082015260800190565b6020808252603d908201527f4c69624469616d6f6e644375743a205f63616c6c6461746120697320656d707460408201527f7920627574205f696e6974206973206e6f742061646472657373283029000000606082015260800190565b6020808252602e908201527f4c69624469616d6f6e644375743a2043616e27742072656d6f766520696d6d7560408201527f7461626c652066756e6374696f6e000000000000000000000000000000000000606082015260800190565b60208082526035908201527f4c69624469616d6f6e644375743a2043616e2774206164642066756e6374696f60408201527f6e207468617420616c7265616479206578697374730000000000000000000000606082015260800190565b60208082526038908201527f4c69624469616d6f6e644375743a2043616e2774207265706c6163652066756e60408201527f6374696f6e20776974682073616d652066756e6374696f6e0000000000000000606082015260800190565b60208082526036908201527f4c69624469616d6f6e644375743a2052656d6f7665206661636574206164647260408201527f657373206d757374206265206164647265737328302900000000000000000000606082015260800190565b60405181810167ffffffffffffffff8111828210171561196d57fe5b604052919050565b600067ffffffffffffffff82111561198957fe5b5060209081020190565b60006119a16111e784611975565b8381526020808201919084845b87811015611a48578135870160608082360312156119ca578788fd5b604080519182019167ffffffffffffffff80841182851017156119e957fe5b8383526119f58561119e565b825287850135935060038410611a09578a8bfd5b838883015282850135935080841115611a20578a8bfd5b50611a2d368486016111c7565b918101919091528752505093820193908201906001016119ae565b50919695505050505050565b60005b83811015611a6f578181015183820152602001611a57565b83811115610a61575050600091015256fe4c69624469616d6f6e644375743a205f696e6974206164647265737320686173206e6f20636f64654c69624469616d6f6e644375743a204e657720666163657420686173206e6f20636f6465a2646970667358221220fdf3086601bbbfe586abbdbc90e0239f65a65e72f3fa666537e2f321adc1164b64736f6c63430007060033608060405234801561001057600080fd5b5061071d806100206000396000f3fe608060405234801561001057600080fd5b50600436106100675760003560e01c80637a0ed627116100505780637a0ed627146100aa578063adfca15e146100bf578063cdffacc6146100df57610067565b806301ffc9a71461006c57806352ef6b2c14610095575b600080fd5b61007f61007a36600461050d565b6100ff565b60405161008c91906106dc565b60405180910390f35b61009d61014a565b60405161008c91906105ca565b6100b26101c3565b60405161008c9190610637565b6100d26100cd3660046104d2565b610370565b60405161008c9190610624565b6100f26100ed36600461050d565b61043c565b60405161008c91906105a9565b60008061010a610496565b7fffffffff00000000000000000000000000000000000000000000000000000000841660009081526003909101602052604090205460ff16915050919050565b60606000610156610496565b600281018054604080516020808402820181019092528281529394508301828280156101b857602002820191906000526020600020905b815473ffffffffffffffffffffffffffffffffffffffff16815260019091019060200180831161018d575b505050505091505090565b606060006101cf610496565b60028101549091508067ffffffffffffffff811180156101ee57600080fd5b5060405190808252806020026020018201604052801561022857816020015b6102156104ba565b81526020019060019003908161020d5790505b50925060005b8181101561036a57600083600201828154811061024757fe5b9060005260206000200160009054906101000a900473ffffffffffffffffffffffffffffffffffffffff1690508085838151811061028157fe5b60209081029190910181015173ffffffffffffffffffffffffffffffffffffffff928316905290821660009081526001860182526040908190208054825181850281018501909352808352919290919083018282801561034257602002820191906000526020600020906000905b82829054906101000a900460e01b7bffffffffffffffffffffffffffffffffffffffffffffffffffffffff1916815260200190600401906020826003010492830192600103820291508084116102ef5790505b505050505085838151811061035357fe5b60209081029190910181015101525060010161022e565b50505090565b6060600061037c610496565b73ffffffffffffffffffffffffffffffffffffffff84166000908152600182016020908152604091829020805483518184028101840190945280845293945091929083018282801561042f57602002820191906000526020600020906000905b82829054906101000a900460e01b7bffffffffffffffffffffffffffffffffffffffffffffffffffffffff1916815260200190600401906020826003010492830192600103820291508084116103dc5790505b5050505050915050919050565b600080610447610496565b7fffffffff0000000000000000000000000000000000000000000000000000000090931660009081526020939093525050604090205473ffffffffffffffffffffffffffffffffffffffff1690565b7fc8fcad8db84d3cc18b4c41d551ea0ee66dd599cde068d998e57d5e09332c131c90565b60408051808201909152600081526060602082015290565b6000602082840312156104e3578081fd5b813573ffffffffffffffffffffffffffffffffffffffff81168114610506578182fd5b9392505050565b60006020828403121561051e578081fd5b81357fffffffff0000000000000000000000000000000000000000000000000000000081168114610506578182fd5b6000815180845260208085019450808401835b8381101561059e5781517fffffffff000000000000000000000000000000000000000000000000000000001687529582019590820190600101610560565b509495945050505050565b73ffffffffffffffffffffffffffffffffffffffff91909116815260200190565b6020808252825182820181905260009190848201906040850190845b8181101561061857835173ffffffffffffffffffffffffffffffffffffffff16835292840192918401916001016105e6565b50909695505050505050565b600060208252610506602083018461054d565b60208082528251828201819052600091906040908185019080840286018301878501865b838110156106ce578883037fffffffffffffffffffffffffffffffffffffffffffffffffffffffffffffffc00185528151805173ffffffffffffffffffffffffffffffffffffffff1684528701518784018790526106bb8785018261054d565b958801959350509086019060010161065b565b509098975050505050505050565b90151581526020019056fea2646970667358221220f13120dbe434b9cd012d09af32134cd744901b6f02810d21b984f37c83696db464736f6c63430007060033608060405234801561001057600080fd5b5061028e806100206000396000f3fe608060405234801561001057600080fd5b50600436106100365760003560e01c80638da5cb5b1461003b578063f2fde38b1461006c575b600080fd5b6100436100a1565b6040805173ffffffffffffffffffffffffffffffffffffffff9092168252519081900360200190f35b61009f6004803603602081101561008257600080fd5b503573ffffffffffffffffffffffffffffffffffffffff166100b0565b005b60006100ab6100c4565b905090565b6100b86100ed565b6100c181610152565b50565b60006100ce6101d7565b6004015473ffffffffffffffffffffffffffffffffffffffff16919050565b6100f56101d7565b6004015473ffffffffffffffffffffffffffffffffffffffff163314610150576040517f08c379a0000000000000000000000000000000000000000000000000000000008152600401610147906101fb565b60405180910390fd5b565b600061015c6101d7565b60048101805473ffffffffffffffffffffffffffffffffffffffff8581167fffffffffffffffffffffffff000000000000000000000000000000000000000083168117909355604051939450169182907f8be0079c531659141344cd1fd0a4f28419497f9722a3daafe3b4186f6b6457e090600090a3505050565b7fc8fcad8db84d3cc18b4c41d551ea0ee66dd599cde068d998e57d5e09332c131c90565b60208082526022908201527f4c69624469616d6f6e643a204d75737420626520636f6e7472616374206f776e60408201527f657200000000000000000000000000000000000000000000000000000000000060608201526080019056fea264697066735822122039f13e82155bab8a1839d7c8d330134206d4a03a197e1a20faad8a27c91e9f3c64736f6c63430007060033290decd9548b62a8d60345a988386fc84ba6bc95484008f6362f93160ef3e563",
      "deployedBytecode": "0x608060405260043610620000205760003560e01c8063ccc2e3161462000025575b600080fd5b6200003c620000363660046200031a565b62000054565b6040516200004b919062000524565b60405180910390f35b60008115620000f957818760405160200162000072929190620004f1565b604051602081830303815290604052805190602001209150348290600060405180602001604052803073ffffffffffffffffffffffffffffffffffffffff16815250604051620000c29062000298565b620000cf929190620006cc565b82906040518091039083f591505080158015620000f0573d6000803e3d6000fd5b50905062000147565b6040805160208101825230815290513491600091620001189062000298565b62000125929190620006cc565b6040518091039082f090508015801562000143573d6000803e3d6000fd5b5090505b7f644ca5b0a8b0418e9faf3880659eeb84eaad45ad838b0173808e5ca72f5efc498160405162000178919062000524565b60405180910390a173ffffffffffffffffffffffffffffffffffffffff8116631f931c1c878786620001ac576000620001ae565b845b88886040518663ffffffff1660e01b8152600401620001d295949392919062000545565b600060405180830381600087803b158015620001ed57600080fd5b505af115801562000202573d6000803e3d6000fd5b50506040517ff2fde38b00000000000000000000000000000000000000000000000000000000815273ffffffffffffffffffffffffffffffffffffffff8416925063f2fde38b91506200025a908a9060040162000524565b600060405180830381600087803b1580156200027557600080fd5b505af11580156200028a573d6000803e3d6000fd5b505050509695505050505050565b612d458062000a8f83390190565b803573ffffffffffffffffffffffffffffffffffffffff81168114620002cb57600080fd5b919050565b60008083601f840112620002e2578182fd5b50813567ffffffffffffffff811115620002fa578182fd5b6020830191508360208285010111156200031357600080fd5b9250929050565b6000806000806000806080878903121562000333578182fd5b6200033e87620002a6565b9550602087013567ffffffffffffffff808211156200035b578384fd5b818901915089601f8301126200036f578384fd5b8135818111156200037e578485fd5b8a6020808302850101111562000392578485fd5b602083019750809650506040890135915080821115620003b0578384fd5b50620003bf89828a01620002d0565b979a9699509497949695606090950135949350505050565b73ffffffffffffffffffffffffffffffffffffffff169052565b60008284526020808501945082825b858110156200044e5781357fffffffff0000000000000000000000000000000000000000000000000000000081168082146200043a578586fd5b885250958201959082019060010162000400565b509495945050505050565b7fffffffff00000000000000000000000000000000000000000000000000000000169052565b600082845282826020860137806020848601015260207fffffffffffffffffffffffffffffffffffffffffffffffffffffffffffffffe0601f85011685010190509392505050565b60038110620004d257fe5b9052565b5173ffffffffffffffffffffffffffffffffffffffff169052565b91825260601b7fffffffffffffffffffffffffffffffffffffffff00000000000000000000000016602082015260340190565b73ffffffffffffffffffffffffffffffffffffffff91909116815260200190565b60608082528181018690526000906020608080850190828a028601018a855b8b81101562000698577fffffffffffffffffffffffffffffffffffffffffffffffffffffffffffffff8088840301845281357fffffffffffffffffffffffffffffffffffffffffffffffffffffffffffffffa18e3603018112620005c6578788fd5b8d0173ffffffffffffffffffffffffffffffffffffffff620005e882620002a6565b1684528581013560038110620005fc578889fd5b6200060a87860182620004c7565b506040808201357fffffffffffffffffffffffffffffffffffffffffffffffffffffffffffffffe18336030181126200064157898afd5b8201803567ffffffffffffffff8111156200065a578a8bfd5b88810236038413156200066b578a8bfd5b8983880152620006818a8801828b8501620003f1565b978901979650505092860192505060010162000564565b5050620006a88387018a620003d7565b8581036040870152620006bd81888a6200047f565b9b9a5050505050505050505050565b60006040825260408201845480825260608401915060206060818302860101878552818520855b8481101562000a5b577fffffffffffffffffffffffffffffffffffffffffffffffffffffffffffffffa0888403018652815473ffffffffffffffffffffffffffffffffffffffff811684526200075285850160ff8360a01c16620004c7565b5060018083016060604086015260608501815462000771818362000a85565b91506200077e8362000a79565b92508a5b816007820110156200085e5783546200079f848260e01b62000459565b7fffffffff00000000000000000000000000000000000000000000000000000000620007d38b8601828460c01b1662000459565b620007e760408601828460a01b1662000459565b620007fb60608601828460801b1662000459565b6200080f60808601828460601b1662000459565b6200082360a08601828460401b1662000459565b6200083660c0860182848e1b1662000459565b6200084760e0860182841662000459565b505092840192610100929092019160080162000782565b92549281811015620008805762000879838560e01b62000459565b9188019184015b81811015620008c157620008ba837fffffffff000000000000000000000000000000000000000000000000000000008660c01b1662000459565b9188019184015b818110156200090257620008fb837fffffffff000000000000000000000000000000000000000000000000000000008660a01b1662000459565b9188019184015b8181101562000943576200093c837fffffffff000000000000000000000000000000000000000000000000000000008660801b1662000459565b9188019184015b8181101562000984576200097d837fffffffff000000000000000000000000000000000000000000000000000000008660601b1662000459565b9188019184015b81811015620009c557620009be837fffffffff000000000000000000000000000000000000000000000000000000008660401b1662000459565b9188019184015b8181101562000a0557620009fe837fffffffff00000000000000000000000000000000000000000000000000000000868c1b1662000459565b9188019184015b8181101562000a415762000a3c837fffffffff00000000000000000000000000000000000000000000000000000000861662000459565b918801915b5050978601979450505060029190910190600101620006f3565b50508094505062000a6f81860187620004d6565b5050509392505050565b60009081526020902090565b9081526020019056fe608060405260405162002d4538038062002d45833981016040819052620000269162000db2565b604080516000808252602082019092526200004e918491620000f560201b620000db1760201c565b620000688160000151620002b560201b6200027d1760201c565b60006200007f6200031760201b620003021760201c565b6301ffc9a760e01b600090815260039091016020526040808220805460ff1990811660019081179092556307e4c70760e21b845282842080548216831790556348e2b09360e01b845282842080548216831790556307f5828d60e41b845291909220805490911690911790555062001442915050565b60005b8351811015620002665760008482815181106200011157fe5b6020026020010151602001519050600060028111156200012d57fe5b8160028111156200013a57fe5b14156200018957620001838583815181106200015257fe5b6020026020010151600001518684815181106200016b57fe5b6020026020010151604001516200033b60201b60201c565b6200025c565b60018160028111156200019857fe5b1415620001e15762000183858381518110620001b057fe5b602002602001015160000151868481518110620001c957fe5b6020026020010151604001516200054e60201b60201c565b6002816002811115620001f057fe5b14156200023957620001838583815181106200020857fe5b6020026020010151600001518684815181106200022157fe5b6020026020010151604001516200077860201b60201c565b60405162461bcd60e51b815260040162000253906200117c565b60405180910390fd5b50600101620000f8565b507f8faa70878671ccd212d20771b795c50af8fd3ff6cf27f4bde57e5d4de0aeb6738383836040516200029c9392919062000f25565b60405180910390a1620002b082826200083f565b505050565b6000620002c162000317565b6004810180546001600160a01b038581166001600160a01b031983168117909355604051939450169182907f8be0079c531659141344cd1fd0a4f28419497f9722a3daafe3b4186f6b6457e090600090a3505050565b7fc8fcad8db84d3cc18b4c41d551ea0ee66dd599cde068d998e57d5e09332c131c90565b60008151116200035f5760405162461bcd60e51b81526004016200025390620010d4565b60006200036b62000317565b90506001600160a01b038316620003965760405162461bcd60e51b81526004016200025390620011c3565b6001600160a01b038316600090815260018201602052604090205461ffff81166200043c57620003e08460405180606001604052806024815260200162002d21602491396200097c565b6002820180546001600160a01b038616600081815260018087016020908152604083208201805461ffff191661ffff90961695909517909455845490810185559381529190912090910180546001600160a01b03191690911790555b60005b8351811015620005475760008482815181106200045857fe5b6020908102919091018101516001600160e01b031981166000908152918690526040909120549091506001600160a01b03168015620004ab5760405162461bcd60e51b81526004016200025390620012ba565b506001600160a01b0386166000818152600186810160209081526040808420805480850182559085528285206008820401805463ffffffff60079093166004026101000a928302191660e089901c929092029190911790556001600160e01b0319909516835287905292902080546001600160a01b03191690911761ffff60a01b1916600160a01b61ffff86160217905591820191016200043f565b5050505050565b6000815111620005725760405162461bcd60e51b81526004016200025390620010d4565b60006200057e62000317565b90506001600160a01b038316620005a95760405162461bcd60e51b81526004016200025390620011c3565b6001600160a01b038316600090815260018201602052604090205461ffff81166200064f57620005f38460405180606001604052806024815260200162002d21602491396200097c565b6002820180546001600160a01b038616600081815260018087016020908152604083208201805461ffff191661ffff90961695909517909455845490810185559381529190912090910180546001600160a01b03191690911790555b60005b8351811015620005475760008482815181106200066b57fe5b6020908102919091018101516001600160e01b031981166000908152918690526040909120549091506001600160a01b03908116908716811415620006c45760405162461bcd60e51b8152600401620002539062001317565b620006d08183620009a0565b506001600160e01b03198116600081815260208681526040808320805461ffff60a01b1916600160a01b61ffff8a16021781556001600160a01b038b168085526001808b018552928520805480850182559086528486206008820401805463ffffffff60079093166004026101000a928302191660e09990991c91909102979097179096559390925286905281546001600160a01b0319169092179055918201910162000652565b60008151116200079c5760405162461bcd60e51b81526004016200025390620010d4565b6000620007a862000317565b90506001600160a01b03831615620007d45760405162461bcd60e51b8152600401620002539062001374565b60005b825181101562000839576000838281518110620007f057fe5b6020908102919091018101516001600160e01b031981166000908152918590526040909120549091506001600160a01b03166200082e8183620009a0565b5050600101620007d7565b50505050565b6001600160a01b0382166200087657805115620008705760405162461bcd60e51b8152600401620002539062001031565b62000978565b60008151116200089a5760405162461bcd60e51b815260040162000253906200120f565b6001600160a01b0382163014620008d057620008d08260405180606001604052806028815260200162002cf9602891396200097c565b600080836001600160a01b031683604051620008ed919062000f07565b600060405180830381855af49150503d80600081146200092a576040519150601f19603f3d011682016040523d82523d6000602084013e6200092f565b606091505b50915091508162000839578051156200095e578060405162461bcd60e51b815260040162000253919062001015565b60405162461bcd60e51b815260040162000253906200108e565b5050565b813b8181620008395760405162461bcd60e51b815260040162000253919062001015565b6000620009ac62000317565b90506001600160a01b038316620009d75760405162461bcd60e51b815260040162000253906200111f565b6001600160a01b03831630141562000a035760405162461bcd60e51b815260040162000253906200126c565b6001600160e01b03198216600090815260208281526040808320546001600160a01b03871684526001850190925290912054600160a01b90910461ffff16906000190180821462000b27576001600160a01b0385166000908152600184016020526040812080548390811062000a7557fe5b600091825260208083206008830401546001600160a01b038a168452600188019091526040909220805460079092166004026101000a90920460e01b92508291908590811062000ac157fe5b600091825260208083206008830401805463ffffffff60079094166004026101000a938402191660e09590951c929092029390931790556001600160e01b031992909216825284905260409020805461ffff60a01b1916600160a01b61ffff8516021790555b6001600160a01b0385166000908152600184016020526040902080548062000b4b57fe5b60008281526020808220600860001990940193840401805463ffffffff600460078716026101000a0219169055919092556001600160e01b0319861682528490526040902080546001600160b01b031916905580620005475760028301546001600160a01b03861660009081526001858101602052604090912001546000199091019061ffff1680821462000c6357600085600201838154811062000bec57fe5b6000918252602090912001546002870180546001600160a01b03909216925082918490811062000c1857fe5b600091825260208083209190910180546001600160a01b0319166001600160a01b0394851617905592909116815260018781019092526040902001805461ffff191661ffff83161790555b8460020180548062000c7157fe5b60008281526020808220830160001990810180546001600160a01b03191690559092019092556001600160a01b03891682526001878101909152604090912001805461ffff1916905550505050505050565b80516001600160a01b038116811462000cdb57600080fd5b919050565b600082601f83011262000cf1578081fd5b8151602062000d0a62000d0483620013f5565b620013d1565b828152818101908583018385028701840188101562000d27578586fd5b855b8581101562000d5d5781516001600160e01b03198116811462000d4a578788fd5b8452928401929084019060010162000d29565b5090979650505050505050565b60006020828403121562000d7c578081fd5b604051602081016001600160401b038111828210171562000d9957fe5b60405290508062000daa8362000cc3565b905292915050565b6000806040838503121562000dc5578182fd5b82516001600160401b038082111562000ddc578384fd5b818501915085601f83011262000df0578384fd5b8151602062000e0362000d0483620013f5565b82815281810190858301885b8581101562000eaa57815188016060818e03601f1901121562000e30578a8bfd5b604051606081018181108a8211171562000e4657fe5b60405262000e5682880162000cc3565b815260408201516003811062000e6a578c8dfd5b8188015260608201518981111562000e80578c8dfd5b62000e908f898386010162000ce0565b604083015250855250928401929084019060010162000e0f565b5050809750505062000ebf8882890162000d6a565b9450505050509250929050565b6001600160a01b03169052565b6000815180845262000ef381602086016020860162001413565b601f01601f19169290920160200192915050565b6000825162000f1b81846020870162001413565b9190910192915050565b606080825284518282018190526000919060809081850190602080820287018401818b01875b8481101562000fe257898303607f19018652815180516001600160a01b0316845284810151898501906003811062000f7f57fe5b858701526040918201519185018a9052815190819052908501908a90898601905b8083101562000fcc5783516001600160e01b031916825292870192600192909201919087019062000fa0565b5097860197945050509083019060010162000f4b565b505062000ff28289018b62000ecc565b878103604089015262001006818a62000ed9565b9b9a5050505050505050505050565b6000602082526200102a602083018462000ed9565b9392505050565b6020808252603c908201527f4c69624469616d6f6e644375743a205f696e697420697320616464726573732860408201527f3029206275745f63616c6c64617461206973206e6f7420656d70747900000000606082015260800190565b60208082526026908201527f4c69624469616d6f6e644375743a205f696e69742066756e6374696f6e2072656040820152651d995c9d195960d21b606082015260800190565b6020808252602b908201527f4c69624469616d6f6e644375743a204e6f2073656c6563746f727320696e206660408201526a1858d95d081d1bc818dd5d60aa1b606082015260800190565b60208082526037908201527f4c69624469616d6f6e644375743a2043616e27742072656d6f76652066756e6360408201527f74696f6e207468617420646f65736e2774206578697374000000000000000000606082015260800190565b60208082526027908201527f4c69624469616d6f6e644375743a20496e636f727265637420466163657443756040820152663a20b1ba34b7b760c91b606082015260800190565b6020808252602c908201527f4c69624469616d6f6e644375743a204164642066616365742063616e2774206260408201526b65206164647265737328302960a01b606082015260800190565b6020808252603d908201527f4c69624469616d6f6e644375743a205f63616c6c6461746120697320656d707460408201527f7920627574205f696e6974206973206e6f742061646472657373283029000000606082015260800190565b6020808252602e908201527f4c69624469616d6f6e644375743a2043616e27742072656d6f766520696d6d7560408201526d3a30b1363290333ab731ba34b7b760911b606082015260800190565b60208082526035908201527f4c69624469616d6f6e644375743a2043616e2774206164642066756e6374696f60408201527f6e207468617420616c7265616479206578697374730000000000000000000000606082015260800190565b60208082526038908201527f4c69624469616d6f6e644375743a2043616e2774207265706c6163652066756e60408201527f6374696f6e20776974682073616d652066756e6374696f6e0000000000000000606082015260800190565b60208082526036908201527f4c69624469616d6f6e644375743a2052656d6f7665206661636574206164647260408201527f657373206d757374206265206164647265737328302900000000000000000000606082015260800190565b6040518181016001600160401b0381118282101715620013ed57fe5b604052919050565b60006001600160401b038211156200140957fe5b5060209081020190565b60005b838110156200143057818101518382015260200162001416565b83811115620008395750506000910152565b6118a780620014526000396000f3fe60806040523661000b57005b600080357fffffffff000000000000000000000000000000000000000000000000000000001681527fc8fcad8db84d3cc18b4c41d551ea0ee66dd599cde068d998e57d5e09332c131c6020819052604090912054819073ffffffffffffffffffffffffffffffffffffffff16806100b7576040517f08c379a00000000000000000000000000000000000000000000000000000000081526004016100ae906115f3565b60405180910390fd5b3660008037600080366000845af43d6000803e8080156100d6573d6000f35b3d6000fd5b60005b83518110156102325760008482815181106100f557fe5b60200260200101516020015190506000600281111561011057fe5b81600281111561011c57fe5b141561015f5761015a85838151811061013157fe5b60200260200101516000015186848151811061014957fe5b602002602001015160400151610326565b610229565b600181600281111561016d57fe5b14156101ab5761015a85838151811061018257fe5b60200260200101516000015186848151811061019a57fe5b60200260200101516040015161065e565b60028160028111156101b957fe5b14156101f75761015a8583815181106101ce57fe5b6020026020010151600001518684815181106101e657fe5b6020026020010151604001516109ab565b6040517f08c379a00000000000000000000000000000000000000000000000000000000081526004016100ae90611539565b506001016100de565b507f8faa70878671ccd212d20771b795c50af8fd3ff6cf27f4bde57e5d4de0aeb67383838360405161026693929190611282565b60405180910390a16102788282610acb565b505050565b6000610287610302565b60048101805473ffffffffffffffffffffffffffffffffffffffff8581167fffffffffffffffffffffffff000000000000000000000000000000000000000083168117909355604051939450169182907f8be0079c531659141344cd1fd0a4f28419497f9722a3daafe3b4186f6b6457e090600090a3505050565b7fc8fcad8db84d3cc18b4c41d551ea0ee66dd599cde068d998e57d5e09332c131c90565b6000815111610361576040517f08c379a00000000000000000000000000000000000000000000000000000000081526004016100ae9061147f565b600061036b610302565b905073ffffffffffffffffffffffffffffffffffffffff83166103ba576040517f08c379a00000000000000000000000000000000000000000000000000000000081526004016100ae90611596565b73ffffffffffffffffffffffffffffffffffffffff8316600090815260018201602052604090205461ffff81166104ab5761040d8460405180606001604052806024815260200161184e60249139610c81565b60028201805473ffffffffffffffffffffffffffffffffffffffff861660008181526001808701602090815260408320820180547fffffffffffffffffffffffffffffffffffffffffffffffffffffffffffff00001661ffff90961695909517909455845490810185559381529190912090910180547fffffffffffffffffffffffff00000000000000000000000000000000000000001690911790555b60005b83518110156106575760008482815181106104c557fe5b6020908102919091018101517fffffffff00000000000000000000000000000000000000000000000000000000811660009081529186905260409091205490915073ffffffffffffffffffffffffffffffffffffffff168015610554576040517f08c379a00000000000000000000000000000000000000000000000000000000081526004016100ae906116e2565b5073ffffffffffffffffffffffffffffffffffffffff86166000818152600186810160209081526040808420805480850182559085528285206008820401805463ffffffff60079093166004026101000a928302191660e089901c929092029190911790557fffffffff00000000000000000000000000000000000000000000000000000000909516835287905292902080547fffffffffffffffffffffffff0000000000000000000000000000000000000000169091177fffffffffffffffffffff0000ffffffffffffffffffffffffffffffffffffffff167401000000000000000000000000000000000000000061ffff86160217905591820191016104ae565b5050505050565b6000815111610699576040517f08c379a00000000000000000000000000000000000000000000000000000000081526004016100ae9061147f565b60006106a3610302565b905073ffffffffffffffffffffffffffffffffffffffff83166106f2576040517f08c379a00000000000000000000000000000000000000000000000000000000081526004016100ae90611596565b73ffffffffffffffffffffffffffffffffffffffff8316600090815260018201602052604090205461ffff81166107e3576107458460405180606001604052806024815260200161184e60249139610c81565b60028201805473ffffffffffffffffffffffffffffffffffffffff861660008181526001808701602090815260408320820180547fffffffffffffffffffffffffffffffffffffffffffffffffffffffffffff00001661ffff90961695909517909455845490810185559381529190912090910180547fffffffffffffffffffffffff00000000000000000000000000000000000000001690911790555b60005b83518110156106575760008482815181106107fd57fe5b6020908102919091018101517fffffffff00000000000000000000000000000000000000000000000000000000811660009081529186905260409091205490915073ffffffffffffffffffffffffffffffffffffffff908116908716811415610892576040517f08c379a00000000000000000000000000000000000000000000000000000000081526004016100ae9061173f565b61089c8183610cbc565b507fffffffff00000000000000000000000000000000000000000000000000000000811660008181526020868152604080832080547fffffffffffffffffffff0000ffffffffffffffffffffffffffffffffffffffff167401000000000000000000000000000000000000000061ffff8a160217815573ffffffffffffffffffffffffffffffffffffffff8b168085526001808b018552928520805480850182559086528486206008820401805463ffffffff60079093166004026101000a928302191660e09990991c91909102979097179096559390925286905281547fffffffffffffffffffffffff000000000000000000000000000000000000000016909217905591820191016107e6565b60008151116109e6576040517f08c379a00000000000000000000000000000000000000000000000000000000081526004016100ae9061147f565b60006109f0610302565b905073ffffffffffffffffffffffffffffffffffffffff831615610a40576040517f08c379a00000000000000000000000000000000000000000000000000000000081526004016100ae9061179c565b60005b8251811015610ac5576000838281518110610a5a57fe5b6020908102919091018101517fffffffff00000000000000000000000000000000000000000000000000000000811660009081529185905260409091205490915073ffffffffffffffffffffffffffffffffffffffff16610abb8183610cbc565b5050600101610a43565b50505050565b73ffffffffffffffffffffffffffffffffffffffff8216610b2457805115610b1f576040517f08c379a00000000000000000000000000000000000000000000000000000000081526004016100ae906113c5565b610c7d565b6000815111610b5f576040517f08c379a00000000000000000000000000000000000000000000000000000000081526004016100ae90611628565b73ffffffffffffffffffffffffffffffffffffffff82163014610b9e57610b9e8260405180606001604052806028815260200161182660289139610c81565b6000808373ffffffffffffffffffffffffffffffffffffffff1683604051610bc69190611266565b600060405180830381855af49150503d8060008114610c01576040519150601f19603f3d011682016040523d82523d6000602084013e610c06565b606091505b509150915081610ac557805115610c4b57806040517f08c379a00000000000000000000000000000000000000000000000000000000081526004016100ae91906113ab565b6040517f08c379a00000000000000000000000000000000000000000000000000000000081526004016100ae90611422565b5050565b813b8181610ac5576040517f08c379a00000000000000000000000000000000000000000000000000000000081526004016100ae91906113ab565b6000610cc6610302565b905073ffffffffffffffffffffffffffffffffffffffff8316610d15576040517f08c379a00000000000000000000000000000000000000000000000000000000081526004016100ae906114dc565b73ffffffffffffffffffffffffffffffffffffffff8316301415610d65576040517f08c379a00000000000000000000000000000000000000000000000000000000081526004016100ae90611685565b7fffffffff0000000000000000000000000000000000000000000000000000000082166000908152602082815260408083205473ffffffffffffffffffffffffffffffffffffffff8716845260018501909252909120547401000000000000000000000000000000000000000090910461ffff16907fffffffffffffffffffffffffffffffffffffffffffffffffffffffffffffffff01808214610f375773ffffffffffffffffffffffffffffffffffffffff851660009081526001840160205260408120805483908110610e3657fe5b6000918252602080832060088304015473ffffffffffffffffffffffffffffffffffffffff8a168452600188019091526040909220805460079092166004026101000a90920460e01b925082919085908110610e8e57fe5b600091825260208083206008830401805463ffffffff60079094166004026101000a938402191660e09590951c929092029390931790557fffffffff000000000000000000000000000000000000000000000000000000009290921682528490526040902080547fffffffffffffffffffff0000ffffffffffffffffffffffffffffffffffffffff167401000000000000000000000000000000000000000061ffff8516021790555b73ffffffffffffffffffffffffffffffffffffffff851660009081526001840160205260409020805480610f6757fe5b6000828152602080822060087fffffffffffffffffffffffffffffffffffffffffffffffffffffffffffffffff90940193840401805463ffffffff600460078716026101000a0219169055919092557fffffffff00000000000000000000000000000000000000000000000000000000861682528490526040902080547fffffffffffffffffffff000000000000000000000000000000000000000000001690558061065757600283015473ffffffffffffffffffffffffffffffffffffffff861660009081526001858101602052604090912001547fffffffffffffffffffffffffffffffffffffffffffffffffffffffffffffffff9091019061ffff1680821461114357600085600201838154811061107e57fe5b60009182526020909120015460028701805473ffffffffffffffffffffffffffffffffffffffff90921692508291849081106110b657fe5b600091825260208083209190910180547fffffffffffffffffffffffff00000000000000000000000000000000000000001673ffffffffffffffffffffffffffffffffffffffff9485161790559290911681526001878101909252604090200180547fffffffffffffffffffffffffffffffffffffffffffffffffffffffffffff00001661ffff83161790555b8460020180548061115057fe5b6000828152602080822083017fffffffffffffffffffffffffffffffffffffffffffffffffffffffffffffffff90810180547fffffffffffffffffffffffff000000000000000000000000000000000000000016905590920190925573ffffffffffffffffffffffffffffffffffffffff89168252600187810190915260409091200180547fffffffffffffffffffffffffffffffffffffffffffffffffffffffffffff000016905550505050505050565b73ffffffffffffffffffffffffffffffffffffffff169052565b600081518084526112348160208601602086016117f9565b601f017fffffffffffffffffffffffffffffffffffffffffffffffffffffffffffffffe0169290920160200192915050565b600082516112788184602087016117f9565b9190910192915050565b606080825284518282018190526000919060809081850190602080820287018401818b01875b8481101561137c577fffffffffffffffffffffffffffffffffffffffffffffffffffffffffffffff808a8403018652815188840173ffffffffffffffffffffffffffffffffffffffff8251168552858201516003811061130457fe5b858701526040918201519185018a9052815190819052908501908a90898601905b808310156113675783517fffffffff00000000000000000000000000000000000000000000000000000000168252928701926001929092019190870190611325565b509786019794505050908301906001016112a8565b505061138a8289018b611202565b878103604089015261139c818a61121c565b9b9a5050505050505050505050565b6000602082526113be602083018461121c565b9392505050565b6020808252603c908201527f4c69624469616d6f6e644375743a205f696e697420697320616464726573732860408201527f3029206275745f63616c6c64617461206973206e6f7420656d70747900000000606082015260800190565b60208082526026908201527f4c69624469616d6f6e644375743a205f696e69742066756e6374696f6e20726560408201527f7665727465640000000000000000000000000000000000000000000000000000606082015260800190565b6020808252602b908201527f4c69624469616d6f6e644375743a204e6f2073656c6563746f727320696e206660408201527f6163657420746f20637574000000000000000000000000000000000000000000606082015260800190565b60208082526037908201527f4c69624469616d6f6e644375743a2043616e27742072656d6f76652066756e6360408201527f74696f6e207468617420646f65736e2774206578697374000000000000000000606082015260800190565b60208082526027908201527f4c69624469616d6f6e644375743a20496e636f7272656374204661636574437560408201527f74416374696f6e00000000000000000000000000000000000000000000000000606082015260800190565b6020808252602c908201527f4c69624469616d6f6e644375743a204164642066616365742063616e2774206260408201527f6520616464726573732830290000000000000000000000000000000000000000606082015260800190565b6020808252818101527f4469616d6f6e643a2046756e6374696f6e20646f6573206e6f74206578697374604082015260600190565b6020808252603d908201527f4c69624469616d6f6e644375743a205f63616c6c6461746120697320656d707460408201527f7920627574205f696e6974206973206e6f742061646472657373283029000000606082015260800190565b6020808252602e908201527f4c69624469616d6f6e644375743a2043616e27742072656d6f766520696d6d7560408201527f7461626c652066756e6374696f6e000000000000000000000000000000000000606082015260800190565b60208082526035908201527f4c69624469616d6f6e644375743a2043616e2774206164642066756e6374696f60408201527f6e207468617420616c7265616479206578697374730000000000000000000000606082015260800190565b60208082526038908201527f4c69624469616d6f6e644375743a2043616e2774207265706c6163652066756e60408201527f6374696f6e20776974682073616d652066756e6374696f6e0000000000000000606082015260800190565b60208082526036908201527f4c69624469616d6f6e644375743a2052656d6f7665206661636574206164647260408201527f657373206d757374206265206164647265737328302900000000000000000000606082015260800190565b60005b838110156118145781810151838201526020016117fc565b83811115610ac5575050600091015256fe4c69624469616d6f6e644375743a205f696e6974206164647265737320686173206e6f20636f64654c69624469616d6f6e644375743a204e657720666163657420686173206e6f20636f6465a2646970667358221220ea38627cf38ea2038c978c7cbeb3a7dcff63e682447f5fdf1c6029d8ae2270f964736f6c634300070600334c69624469616d6f6e644375743a205f696e6974206164647265737320686173206e6f20636f64654c69624469616d6f6e644375743a204e657720666163657420686173206e6f20636f6465a2646970667358221220c37f3bb422ae8a5bafabb97ac735ce243e7c23563bc782f927de436ca9011ed864736f6c63430007060033",
      "devdoc": {
        "kind": "dev",
        "methods": {},
        "version": 1
      },
      "userdoc": {
        "kind": "user",
        "methods": {},
        "version": 1
      },
      "storageLayout": {
        "storage": [
          {
            "astId": 14,
            "contract": "solc_0.7/diamond/Diamantaire.sol:Diamantaire",
            "label": "_builtinDiamondCut",
            "offset": 0,
            "slot": "0",
            "type": "t_array(t_struct(FacetCut)679_storage)dyn_storage"
          }
        ],
        "types": {
          "t_address": {
            "encoding": "inplace",
            "label": "address",
            "numberOfBytes": "20"
          },
          "t_array(t_bytes4)dyn_storage": {
            "base": "t_bytes4",
            "encoding": "dynamic_array",
            "label": "bytes4[]",
            "numberOfBytes": "32"
          },
          "t_array(t_struct(FacetCut)679_storage)dyn_storage": {
            "base": "t_struct(FacetCut)679_storage",
            "encoding": "dynamic_array",
            "label": "struct IDiamondCut.FacetCut[]",
            "numberOfBytes": "32"
          },
          "t_bytes4": {
            "encoding": "inplace",
            "label": "bytes4",
            "numberOfBytes": "4"
          },
          "t_enum(FacetCutAction)671": {
            "encoding": "inplace",
            "label": "enum IDiamondCut.FacetCutAction",
            "numberOfBytes": "1"
          },
          "t_struct(FacetCut)679_storage": {
            "encoding": "inplace",
            "label": "struct IDiamondCut.FacetCut",
            "members": [
              {
                "astId": 673,
                "contract": "solc_0.7/diamond/Diamantaire.sol:Diamantaire",
                "label": "facetAddress",
                "offset": 0,
                "slot": "0",
                "type": "t_address"
              },
              {
                "astId": 675,
                "contract": "solc_0.7/diamond/Diamantaire.sol:Diamantaire",
                "label": "action",
                "offset": 20,
                "slot": "0",
                "type": "t_enum(FacetCutAction)671"
              },
              {
                "astId": 678,
                "contract": "solc_0.7/diamond/Diamantaire.sol:Diamantaire",
                "label": "functionSelectors",
                "offset": 0,
                "slot": "1",
                "type": "t_array(t_bytes4)dyn_storage"
              }
            ],
            "numberOfBytes": "64"
          }
        }
      }
    }
  ],
  "devdoc": {
    "kind": "dev",
    "methods": {},
    "version": 1
  },
  "userdoc": {
    "kind": "user",
    "methods": {},
    "version": 1
  },
  "storageLayout": {
    "storage": [
      {
        "astId": 14,
        "contract": "solc_0.7/diamond/Diamantaire.sol:Diamantaire",
        "label": "_builtinDiamondCut",
        "offset": 0,
        "slot": "0",
        "type": "t_array(t_struct(FacetCut)679_storage)dyn_storage"
      }
    ],
    "types": {
      "t_address": {
        "encoding": "inplace",
        "label": "address",
        "numberOfBytes": "20"
      },
      "t_array(t_bytes4)dyn_storage": {
        "base": "t_bytes4",
        "encoding": "dynamic_array",
        "label": "bytes4[]",
        "numberOfBytes": "32"
      },
      "t_array(t_struct(FacetCut)679_storage)dyn_storage": {
        "base": "t_struct(FacetCut)679_storage",
        "encoding": "dynamic_array",
        "label": "struct IDiamondCut.FacetCut[]",
        "numberOfBytes": "32"
      },
      "t_bytes4": {
        "encoding": "inplace",
        "label": "bytes4",
        "numberOfBytes": "4"
      },
      "t_enum(FacetCutAction)671": {
        "encoding": "inplace",
        "label": "enum IDiamondCut.FacetCutAction",
        "numberOfBytes": "1"
      },
      "t_struct(FacetCut)679_storage": {
        "encoding": "inplace",
        "label": "struct IDiamondCut.FacetCut",
        "members": [
          {
            "astId": 673,
            "contract": "solc_0.7/diamond/Diamantaire.sol:Diamantaire",
            "label": "facetAddress",
            "offset": 0,
            "slot": "0",
            "type": "t_address"
          },
          {
            "astId": 675,
            "contract": "solc_0.7/diamond/Diamantaire.sol:Diamantaire",
            "label": "action",
            "offset": 20,
            "slot": "0",
            "type": "t_enum(FacetCutAction)671"
          },
          {
            "astId": 678,
            "contract": "solc_0.7/diamond/Diamantaire.sol:Diamantaire",
            "label": "functionSelectors",
            "offset": 0,
            "slot": "1",
            "type": "t_array(t_bytes4)dyn_storage"
          }
        ],
        "numberOfBytes": "64"
      }
    }
  }
}