{
  "address": "0x3827B8cdF75EEB457C814426D23958F8F66a3E40",
  "abi": [
    {
      "inputs": [
        {
          "internalType": "bytes32",
          "name": "role",
          "type": "bytes32"
        },
        {
          "internalType": "address",
          "name": "account",
          "type": "address"
        }
      ],
      "name": "grantRole",
      "outputs": [],
      "stateMutability": "nonpayable",
      "type": "function"
    },
    {
      "inputs": [
        {
          "internalType": "address",
          "name": "_nft",
          "type": "address"
        },
        {
          "internalType": "address",
          "name": "admin",
          "type": "address"
        }
      ],
      "name": "initialize",
      "outputs": [],
      "stateMutability": "nonpayable",
      "type": "function"
    }
  ],
  "artifactName": "ent_initialize_NFTDistributor_v1",
  "transactionHash": "0x76f31d49030affd1e3f7556bb3906baa8808127182f929bcc1a4e18382b5b7b5",
  "args": [],
  "solcInputHash": "2289fe9bb3bf3773a157fd04925493c9",
  "bytecode": "0x608060405234801561001057600080fd5b506103a2806100206000396000f3fe608060405234801561001057600080fd5b50600436106100365760003560e01c80632f2ff15d1461003b578063485cc95514610050575b600080fd5b61004e61004936600461034a565b610063565b005b61004e61005e366004610318565b610107565b60008281527f337c29a31b05a860fb532911919dbe85ab303a7465176333f1deb496e9fdd19e6020908152604080832060010154835280832033845290915290205460ff166100f95760405162461bcd60e51b815260206004820152601860248201527f416363657373436f6e74726f6c3a206e6f742061646d696e000000000000000060448201526064015b60405180910390fd5b61010382826101c0565b5050565b61010f610289565b5460ff16156101605760405162461bcd60e51b815260206004820152601b60248201527f54656c6c65723a20616c726561647920696e697469616c697a6564000000000060448201526064016100f0565b7fcf1e960f2172c22b0a7308b10d2fa40d0d089ee0367c8e6cb72a5803f164c36080546001600160a01b0319166001600160a01b0384161790556101037fdf8b4c520ffe197c5343c6f5aec59570151ef9a492f2c624fd45ddde6135ec42825b60008281527f337c29a31b05a860fb532911919dbe85ab303a7465176333f1deb496e9fdd19e602090815260408083206001600160a01b038516845290915290205460ff161561020f57610103565b60008281527f337c29a31b05a860fb532911919dbe85ab303a7465176333f1deb496e9fdd19e602090815260408083206001600160a01b0385168085529252808320805460ff1916600117905551339285917f2f8788117e7eff1d82e926ec794901d17c78024a50270940304540a733656f0d9190a45050565b6000806040516020016102de9060208082526028908201527f74656c6c65725f70726f746f636f6c2e636f6e746578742e696e697469616c696040820152677a61626c652e763160c01b606082015260800190565b60408051601f19818403018152919052805160209091012092915050565b80356001600160a01b038116811461031357600080fd5b919050565b6000806040838503121561032a578182fd5b610333836102fc565b9150610341602084016102fc565b90509250929050565b6000806040838503121561035c578182fd5b82359150610341602084016102fc56fea26469706673582212204cf1fc0b2aaae9a7b6616897e6caede60acc2942e7715716c20f1aac334665c464736f6c63430008030033",
  "devdoc": {
    "kind": "dev",
    "methods": {
      "initialize(address,address)": {
        "params": {
          "_nft": "The address of the TellerNFT.",
          "admin": "The address of an admin."
        }
      }
    },
    "version": 1
  },
  "userdoc": {
    "kind": "user",
    "methods": {
      "grantRole(bytes32,address)": {
        "notice": "Grants an address a new role. Requirements:  - Sender must be role admin."
      },
      "initialize(address,address)": {
        "notice": "Initializes the Distributor contract with the TellerNFT"
      }
    },
    "version": 1
  },
  "storageLayout": {
    "storage": [],
    "types": null
  }
}