{
  "address": "0xb129444b90fc2646f5f3b514c5cd3fafd43f071a",
  "abi": [
    {
      "inputs": [
        {
          "internalType": "address",
          "name": "account",
          "type": "address"
        },
        {
          "components": [
            {
              "internalType": "uint256",
              "name": "merkleIndex",
              "type": "uint256"
            },
            {
              "internalType": "uint256",
              "name": "nodeIndex",
              "type": "uint256"
            },
            {
              "internalType": "uint256",
              "name": "amount",
              "type": "uint256"
            },
            {
              "internalType": "bytes32[]",
              "name": "merkleProof",
              "type": "bytes32[]"
            }
          ],
          "internalType": "struct ClaimNFTRequest[]",
          "name": "requests",
          "type": "tuple[]"
        }
      ],
      "name": "claim",
      "outputs": [],
      "stateMutability": "nonpayable",
      "type": "function"
    },
    {
      "inputs": [
        {
          "internalType": "address",
          "name": "dictionary",
          "type": "address"
        }
      ],
      "name": "setNFTDictionaryAddress",
      "outputs": [],
      "stateMutability": "nonpayable",
      "type": "function"
    }
  ],
  "artifactName": "ent_claim_NFTDistributor_v1",
  "transactionHash": "0x53bc5f400860edae2b71ac9ff292eae5c33848a9a9fedccdb00cc96d436510fa",
  "args": [],
  "solcInputHash": "1389136e56e3a43cff4f2990a46ef548",
  "bytecode": "0x608060405234801561001057600080fd5b50610deb806100206000396000f3fe608060405234801561001057600080fd5b50600436106100365760003560e01c806389e217331461003b578063d9a6fc4a14610050575b600080fd5b61004e610049366004610a51565b610063565b005b61004e61005e366004610a37565b6106c9565b60005b8181101561068f576100df83838381811061009157634e487b7160e01b600052603260045260246000fd5b90506020028101906100a39190610bd2565b358484848181106100c457634e487b7160e01b600052603260045260246000fd5b90506020028101906100d69190610bd2565b60200135610738565b156101405760405162461bcd60e51b815260206004820152602660248201527f54656c6c65724e4654204469737472696275746f723a20616c726561647920636044820152651b185a5b595960d21b60648201526084015b60405180910390fd5b6101848484848481811061016457634e487b7160e01b600052603260045260246000fd5b90506020028101906101769190610bd2565b61017f90610c89565b6107a2565b6101dc5760405162461bcd60e51b8152602060048201526024808201527f54656c6c65724e4654204469737472696275746f723a20696e76616c696420706044820152633937b7b360e11b6064820152608401610137565b61024d8383838181106101ff57634e487b7160e01b600052603260045260246000fd5b90506020028101906102119190610bd2565b3584848481811061023257634e487b7160e01b600052603260045260246000fd5b90506020028101906102449190610bd2565b60200135610861565b60007fcf1e960f2172c22b0a7308b10d2fa40d0d089ee0367c8e6cb72a5803f164c36184848481811061029057634e487b7160e01b600052603260045260246000fd5b90506020028101906102a29190610bd2565b60000135815481106102c457634e487b7160e01b600052603260045260246000fd5b906000526020600020906002020160010154905060005b8484848181106102fb57634e487b7160e01b600052603260045260246000fd5b905060200281019061030d9190610bd2565b604001358110156103b0577fcf1e960f2172c22b0a7308b10d2fa40d0d089ee0367c8e6cb72a5803f164c360546040516394bf804d60e01b8152600481018490526001600160a01b038881166024830152909116906394bf804d90604401600060405180830381600087803b15801561038557600080fd5b505af1158015610399573d6000803e3d6000fd5b5050505080806103a890610d44565b9150506102db565b5060007fcf1e960f2172c22b0a7308b10d2fa40d0d089ee0367c8e6cb72a5803f164c3605460405163d9d6165560e01b81526001600160a01b0388811660048301529091169063d9d616559060240160006040518083038186803b15801561041757600080fd5b505afa15801561042b573d6000803e3d6000fd5b505050506040513d6000823e601f3d908101601f191682016040526104539190810190610ad2565b9050600085858581811061047757634e487b7160e01b600052603260045260246000fd5b90506020028101906104899190610bd2565b6040013567ffffffffffffffff8111156104b357634e487b7160e01b600052604160045260246000fd5b6040519080825280602002602001820160405280156104dc578160200160208202803683370190505b509050600086868681811061050157634e487b7160e01b600052603260045260246000fd5b90506020028101906105139190610bd2565b6040013583516105239190610c72565b905060005b87878781811061054857634e487b7160e01b600052603260045260246000fd5b905060200281019061055a9190610bd2565b604001358110156105d357836105708383610c46565b8151811061058e57634e487b7160e01b600052603260045260246000fd5b60200260200101518382815181106105b657634e487b7160e01b600052603260045260246000fd5b6020908102919091010152806105cb81610d44565b915050610528565b507fcf1e960f2172c22b0a7308b10d2fa40d0d089ee0367c8e6cb72a5803f164c36354604051637c4d134760e11b81526001600160a01b039091169063f89a268e906106259085908890600401610b8a565b602060405180830381600087803b15801561063f57600080fd5b505af1158015610653573d6000803e3d6000fd5b505050506040513d601f19601f820116820180604052508101906106779190610b6a565b5050505050808061068790610d44565b915050610066565b506040516001600160a01b038416907fb449c24d261a59627b537c8c41c57ab559f4205c56bea745ff61c5521bece21490600090a2505050565b7fdf8b4c520ffe197c5343c6f5aec59570151ef9a492f2c624fd45ddde6135ec42336106f582826108c9565b50507fcf1e960f2172c22b0a7308b10d2fa40d0d089ee0367c8e6cb72a5803f164c36380546001600160a01b0319166001600160a01b0392909216919091179055565b60008061074761010084610c5e565b9050600061075761010085610d5f565b60009586527fcf1e960f2172c22b0a7308b10d2fa40d0d089ee0367c8e6cb72a5803f164c362602090815260408088209488529390529190942054600190911b908116149392505050565b600061085a82606001516107d37fcf1e960f2172c22b0a7308b10d2fa40d0d089ee0367c8e6cb72a5803f164c36090565b6001018460000151815481106107f957634e487b7160e01b600052603260045260246000fd5b600091825260209182902060029091020154858201516040808801518151948501929092526bffffffffffffffffffffffff1960608a901b16908401526054830152906074016040516020818303038152906040528051906020012061095e565b9392505050565b600061086f61010083610c5e565b9050600061087f61010084610d5f565b60009485527fcf1e960f2172c22b0a7308b10d2fa40d0d089ee0367c8e6cb72a5803f164c36260209081526040808720948752939052919093208054600190921b90911790555050565b60008281527f337c29a31b05a860fb532911919dbe85ab303a7465176333f1deb496e9fdd19e602090815260408083206001600160a01b038516845290915290205460ff1661095a5760405162461bcd60e51b815260206004820152601b60248201527f416363657373436f6e74726f6c3a20756e617574686f72697a656400000000006044820152606401610137565b5050565b600081815b8551811015610a1057600086828151811061098e57634e487b7160e01b600052603260045260246000fd5b602002602001015190508083116109d05760408051602081018590529081018290526060016040516020818303038152906040528051906020012092506109fd565b60408051602081018390529081018490526060016040516020818303038152906040528051906020012092505b5080610a0881610d44565b915050610963565b509092149392505050565b80356001600160a01b0381168114610a3257600080fd5b919050565b600060208284031215610a48578081fd5b61085a82610a1b565b600080600060408486031215610a65578182fd5b610a6e84610a1b565b9250602084013567ffffffffffffffff80821115610a8a578384fd5b818601915086601f830112610a9d578384fd5b813581811115610aab578485fd5b8760208260051b8501011115610abf578485fd5b6020830194508093505050509250925092565b60006020808385031215610ae4578182fd5b825167ffffffffffffffff811115610afa578283fd5b8301601f81018513610b0a578283fd5b8051610b1d610b1882610c22565b610bf1565b80828252848201915084840188868560051b8701011115610b3c578687fd5b8694505b83851015610b5e578051835260019490940193918501918501610b40565b50979650505050505050565b600060208284031215610b7b578081fd5b8151801515811461085a578182fd5b604080825283519082018190526000906020906060840190828701845b82811015610bc357815184529284019290840190600101610ba7565b50505092019290925292915050565b60008235607e19833603018112610be7578182fd5b9190910192915050565b604051601f8201601f1916810167ffffffffffffffff81118282101715610c1a57610c1a610d9f565b604052919050565b600067ffffffffffffffff821115610c3c57610c3c610d9f565b5060051b60200190565b60008219821115610c5957610c59610d73565b500190565b600082610c6d57610c6d610d89565b500490565b600082821015610c8457610c84610d73565b500390565b600060808236031215610c9a578081fd5b610ca46080610bf1565b823581526020808401358183015260408401356040830152606084013567ffffffffffffffff811115610cd5578384fd5b840136601f820112610ce5578384fd5b8035610cf3610b1882610c22565b8181528381019083850136600585901b860187011115610d11578788fd5b8794505b83851015610d33578035835260019490940193918501918501610d15565b506060860152509295945050505050565b6000600019821415610d5857610d58610d73565b5060010190565b600082610d6e57610d6e610d89565b500690565b634e487b7160e01b600052601160045260246000fd5b634e487b7160e01b600052601260045260246000fd5b634e487b7160e01b600052604160045260246000fdfea2646970667358221220932c7b63c0208fe2b5d6b34c25e3641be6e352743e29081f74a075cc3806bdce64736f6c63430008030033",
  "devdoc": {
    "kind": "dev",
    "methods": {
      "claim(address,(uint256,uint256,uint256,bytes32[])[])": {
        "params": {
          "account": "The address to claim NFTs on behalf.",
          "requests": "An array requests data generated from the merkle tree. Requirements:  - Node in the merkle root must not be claimed already  - Proof of the node must match the merkle tree"
        }
      }
    },
    "version": 1
  },
  "userdoc": {
    "kind": "user",
    "methods": {
      "claim(address,(uint256,uint256,uint256,bytes32[])[])": {
        "notice": "Claims TellerNFTs for a given verifiable merkle proofs for each tier."
      }
    },
    "version": 1
  },
  "storageLayout": {
    "storage": [],
    "types": null
  }
}