{
  "address": "0xfb6Dc5D8aD57E48188928fAbbecf3c48b347d128",
  "abi": [
    {
      "inputs": [],
      "name": "getMerkleRoots",
      "outputs": [
        {
          "components": [
            {
              "internalType": "bytes32",
              "name": "merkleRoot",
              "type": "bytes32"
            },
            {
              "internalType": "uint256",
              "name": "tierIndex",
              "type": "uint256"
            }
          ],
          "internalType": "struct MerkleRoot[]",
          "name": "roots_",
          "type": "tuple[]"
        }
      ],
      "stateMutability": "view",
      "type": "function"
    },
    {
      "inputs": [
        {
          "internalType": "uint256",
          "name": "merkleIndex",
          "type": "uint256"
        },
        {
          "internalType": "uint256",
          "name": "nodeIndex",
          "type": "uint256"
        }
      ],
      "name": "isClaimed",
      "outputs": [
        {
          "internalType": "bool",
          "name": "claimed_",
          "type": "bool"
        }
      ],
      "stateMutability": "view",
      "type": "function"
    },
    {
      "inputs": [],
      "name": "nft",
      "outputs": [
        {
          "internalType": "contract ITellerNFT",
          "name": "nft_",
          "type": "address"
        }
      ],
      "stateMutability": "view",
      "type": "function"
    }
  ],
  "artifactName": "ext_distributor_NFT_v1",
  "transactionHash": "0x71dbd775aa5c1e4856a713fb3fbad66f5eb13f558740ef416bbcbffcefcd9548",
  "args": [],
  "solcInputHash": "e990111c1bb5dd75b0e9c470dbce1fde",
  "bytecode": "0x608060405234801561001057600080fd5b506102b3806100206000396000f3fe608060405234801561001057600080fd5b50600436106100415760003560e01c806347ccca021461004657806385135a1a14610085578063f364c90c1461009a575b600080fd5b7fcf1e960f2172c22b0a7308b10d2fa40d0d089ee0367c8e6cb72a5803f164c360546040516001600160a01b0390911681526020015b60405180910390f35b61008d6100bd565b60405161007c91906101f0565b6100ad6100a83660046101cf565b610152565b604051901515815260200161007c565b60607fcf1e960f2172c22b0a7308b10d2fa40d0d089ee0367c8e6cb72a5803f164c360600101805480602002602001604051908101604052809291908181526020016000905b8282101561014957838290600052602060002090600202016040518060400160405290816000820154815260200160018201548152505081526020019060010190610103565b50505050905090565b600061015e8383610165565b9392505050565b6000806101746101008461023f565b9050600061018461010085610253565b60009586527fcf1e960f2172c22b0a7308b10d2fa40d0d089ee0367c8e6cb72a5803f164c362602090815260408088209488529390529190942054600190911b908116149392505050565b600080604083850312156101e1578182fd5b50508035926020909101359150565b602080825282518282018190526000919060409081850190868401855b828110156102325781518051855286015186850152928401929085019060010161020d565b5091979650505050505050565b60008261024e5761024e610267565b500490565b60008261026257610262610267565b500690565b634e487b7160e01b600052601260045260246000fdfea2646970667358221220c04b976bd00f8a444c28a0c11b37c2881323dd4b9ca435365dfbd63f029d204d64736f6c63430008030033",
  "history": [
    {
      "address": "0xBD4037AdfF0958E1A8336F391a7E7453303e9012",
      "abi": [
        {
          "inputs": [],
          "name": "getMerkleRoots",
          "outputs": [
            {
              "components": [
                {
                  "internalType": "bytes32",
                  "name": "merkleRoot",
                  "type": "bytes32"
                },
                {
                  "internalType": "uint256",
                  "name": "tierIndex",
                  "type": "uint256"
                }
              ],
              "internalType": "struct MerkleRoot[]",
              "name": "roots_",
              "type": "tuple[]"
            }
          ],
          "stateMutability": "view",
          "type": "function"
        },
        {
          "inputs": [
            {
              "internalType": "uint256",
              "name": "merkleIndex",
              "type": "uint256"
            },
            {
              "internalType": "uint256",
              "name": "nodeIndex",
              "type": "uint256"
            }
          ],
          "name": "isClaimed",
          "outputs": [
            {
              "internalType": "bool",
              "name": "claimed_",
              "type": "bool"
            }
          ],
          "stateMutability": "view",
          "type": "function"
        },
        {
          "inputs": [],
          "name": "nft",
          "outputs": [
            {
              "internalType": "contract ITellerNFT",
              "name": "nft_",
              "type": "address"
            }
          ],
          "stateMutability": "view",
          "type": "function"
        }
      ],
      "artifactName": "ext_distributor_NFT_v1",
      "transactionHash": "0xdd330b67949d17274af280bbb727c69b189581b6bdf9bceb15aa3121c38d9ea3",
      "receipt": {
        "to": null,
        "from": "0xAFe87013dc96edE1E116a288D80FcaA0eFFE5fe5",
        "contractAddress": "0xBD4037AdfF0958E1A8336F391a7E7453303e9012",
        "transactionIndex": 2,
        "gasUsed": "202507",
        "logsBloom": "0x00000000000000000000000000000000000000000000000000000000000000000000000000000000000000000000000000000000000000000000000000000000000000000000000000000000000000000000000000000000000000000000000000000000000000000000000000000000000000000000000000000000000000000000000000000000000000000000000000000000000000000000000000000000000000000000000000000000000000000000000000000000000000000000000000000000000000000000000000000000000000000000000000000000000000000000000000000000000000000000000000000000000000000000000000000000",
        "blockHash": "0x467e2e5a2ec67a4408904f56ccff5310fddb32f0ac9205cf9932db3e2535b381",
        "transactionHash": "0xdd330b67949d17274af280bbb727c69b189581b6bdf9bceb15aa3121c38d9ea3",
        "logs": [],
        "blockNumber": 12190322,
        "cumulativeGasUsed": "296027",
        "status": 1,
        "byzantium": true
      },
      "args": [],
      "solcInputHash": "2289fe9bb3bf3773a157fd04925493c9",
      "metadata": "{\"compiler\":{\"version\":\"0.8.3+commit.8d00100c\"},\"language\":\"Solidity\",\"output\":{\"abi\":[{\"inputs\":[],\"name\":\"getMerkleRoots\",\"outputs\":[{\"components\":[{\"internalType\":\"bytes32\",\"name\":\"merkleRoot\",\"type\":\"bytes32\"},{\"internalType\":\"uint256\",\"name\":\"tierIndex\",\"type\":\"uint256\"}],\"internalType\":\"struct MerkleRoot[]\",\"name\":\"roots_\",\"type\":\"tuple[]\"}],\"stateMutability\":\"view\",\"type\":\"function\"},{\"inputs\":[{\"internalType\":\"uint256\",\"name\":\"merkleIndex\",\"type\":\"uint256\"},{\"internalType\":\"uint256\",\"name\":\"nodeIndex\",\"type\":\"uint256\"}],\"name\":\"isClaimed\",\"outputs\":[{\"internalType\":\"bool\",\"name\":\"claimed_\",\"type\":\"bool\"}],\"stateMutability\":\"view\",\"type\":\"function\"},{\"inputs\":[],\"name\":\"nft\",\"outputs\":[{\"internalType\":\"contract ITellerNFT\",\"name\":\"nft_\",\"type\":\"address\"}],\"stateMutability\":\"view\",\"type\":\"function\"}],\"devdoc\":{\"kind\":\"dev\",\"methods\":{\"isClaimed(uint256,uint256)\":{\"params\":{\"merkleIndex\":\"Index of the tier.\",\"nodeIndex\":\"Index of the node in the merkle root.\"}}},\"version\":1},\"userdoc\":{\"kind\":\"user\",\"methods\":{\"getMerkleRoots()\":{\"notice\":\"It gets the merkle roots for NFTs it can distribute.\"},\"isClaimed(uint256,uint256)\":{\"notice\":\"It checks the merkle root for a tier if it has already been claimed.\"},\"nft()\":{\"notice\":\"It gets the TellerNFT diamond instance used to mint.\"}},\"version\":1}},\"settings\":{\"compilationTarget\":{\"contracts/nft/distributor/external/distributor.sol\":\"ext_distributor_NFT_v1\"},\"evmVersion\":\"istanbul\",\"libraries\":{},\"metadata\":{\"bytecodeHash\":\"ipfs\",\"useLiteralContent\":true},\"optimizer\":{\"enabled\":true,\"runs\":200},\"remappings\":[]},\"sources\":{\"@openzeppelin/contracts/token/ERC721/IERC721.sol\":{\"content\":\"// SPDX-License-Identifier: MIT\\n\\npragma solidity ^0.8.0;\\n\\nimport \\\"../../utils/introspection/IERC165.sol\\\";\\n\\n/**\\n * @dev Required interface of an ERC721 compliant contract.\\n */\\ninterface IERC721 is IERC165 {\\n    /**\\n     * @dev Emitted when `tokenId` token is transferred from `from` to `to`.\\n     */\\n    event Transfer(address indexed from, address indexed to, uint256 indexed tokenId);\\n\\n    /**\\n     * @dev Emitted when `owner` enables `approved` to manage the `tokenId` token.\\n     */\\n    event Approval(address indexed owner, address indexed approved, uint256 indexed tokenId);\\n\\n    /**\\n     * @dev Emitted when `owner` enables or disables (`approved`) `operator` to manage all of its assets.\\n     */\\n    event ApprovalForAll(address indexed owner, address indexed operator, bool approved);\\n\\n    /**\\n     * @dev Returns the number of tokens in ``owner``'s account.\\n     */\\n    function balanceOf(address owner) external view returns (uint256 balance);\\n\\n    /**\\n     * @dev Returns the owner of the `tokenId` token.\\n     *\\n     * Requirements:\\n     *\\n     * - `tokenId` must exist.\\n     */\\n    function ownerOf(uint256 tokenId) external view returns (address owner);\\n\\n    /**\\n     * @dev Safely transfers `tokenId` token from `from` to `to`, checking first that contract recipients\\n     * are aware of the ERC721 protocol to prevent tokens from being forever locked.\\n     *\\n     * Requirements:\\n     *\\n     * - `from` cannot be the zero address.\\n     * - `to` cannot be the zero address.\\n     * - `tokenId` token must exist and be owned by `from`.\\n     * - If the caller is not `from`, it must be have been allowed to move this token by either {approve} or {setApprovalForAll}.\\n     * - If `to` refers to a smart contract, it must implement {IERC721Receiver-onERC721Received}, which is called upon a safe transfer.\\n     *\\n     * Emits a {Transfer} event.\\n     */\\n    function safeTransferFrom(address from, address to, uint256 tokenId) external;\\n\\n    /**\\n     * @dev Transfers `tokenId` token from `from` to `to`.\\n     *\\n     * WARNING: Usage of this method is discouraged, use {safeTransferFrom} whenever possible.\\n     *\\n     * Requirements:\\n     *\\n     * - `from` cannot be the zero address.\\n     * - `to` cannot be the zero address.\\n     * - `tokenId` token must be owned by `from`.\\n     * - If the caller is not `from`, it must be approved to move this token by either {approve} or {setApprovalForAll}.\\n     *\\n     * Emits a {Transfer} event.\\n     */\\n    function transferFrom(address from, address to, uint256 tokenId) external;\\n\\n    /**\\n     * @dev Gives permission to `to` to transfer `tokenId` token to another account.\\n     * The approval is cleared when the token is transferred.\\n     *\\n     * Only a single account can be approved at a time, so approving the zero address clears previous approvals.\\n     *\\n     * Requirements:\\n     *\\n     * - The caller must own the token or be an approved operator.\\n     * - `tokenId` must exist.\\n     *\\n     * Emits an {Approval} event.\\n     */\\n    function approve(address to, uint256 tokenId) external;\\n\\n    /**\\n     * @dev Returns the account approved for `tokenId` token.\\n     *\\n     * Requirements:\\n     *\\n     * - `tokenId` must exist.\\n     */\\n    function getApproved(uint256 tokenId) external view returns (address operator);\\n\\n    /**\\n     * @dev Approve or remove `operator` as an operator for the caller.\\n     * Operators can call {transferFrom} or {safeTransferFrom} for any token owned by the caller.\\n     *\\n     * Requirements:\\n     *\\n     * - The `operator` cannot be the caller.\\n     *\\n     * Emits an {ApprovalForAll} event.\\n     */\\n    function setApprovalForAll(address operator, bool _approved) external;\\n\\n    /**\\n     * @dev Returns if the `operator` is allowed to manage all of the assets of `owner`.\\n     *\\n     * See {setApprovalForAll}\\n     */\\n    function isApprovedForAll(address owner, address operator) external view returns (bool);\\n\\n    /**\\n      * @dev Safely transfers `tokenId` token from `from` to `to`.\\n      *\\n      * Requirements:\\n      *\\n      * - `from` cannot be the zero address.\\n      * - `to` cannot be the zero address.\\n      * - `tokenId` token must exist and be owned by `from`.\\n      * - If the caller is not `from`, it must be approved to move this token by either {approve} or {setApprovalForAll}.\\n      * - If `to` refers to a smart contract, it must implement {IERC721Receiver-onERC721Received}, which is called upon a safe transfer.\\n      *\\n      * Emits a {Transfer} event.\\n      */\\n    function safeTransferFrom(address from, address to, uint256 tokenId, bytes calldata data) external;\\n}\\n\",\"keccak256\":\"0xc1c941ad1e580b4623007305921efe2f26fc7320a4edc226234dd707c658a428\",\"license\":\"MIT\"},\"@openzeppelin/contracts/token/ERC721/extensions/IERC721Metadata.sol\":{\"content\":\"// SPDX-License-Identifier: MIT\\n\\npragma solidity ^0.8.0;\\n\\nimport \\\"../IERC721.sol\\\";\\n\\n/**\\n * @title ERC-721 Non-Fungible Token Standard, optional metadata extension\\n * @dev See https://eips.ethereum.org/EIPS/eip-721\\n */\\ninterface IERC721Metadata is IERC721 {\\n\\n    /**\\n     * @dev Returns the token collection name.\\n     */\\n    function name() external view returns (string memory);\\n\\n    /**\\n     * @dev Returns the token collection symbol.\\n     */\\n    function symbol() external view returns (string memory);\\n\\n    /**\\n     * @dev Returns the Uniform Resource Identifier (URI) for `tokenId` token.\\n     */\\n    function tokenURI(uint256 tokenId) external view returns (string memory);\\n}\\n\",\"keccak256\":\"0xb8d11e77eb1ed34a33720edb551d7d6a6b0eee2bfaa40a7024020e1fdf879b16\",\"license\":\"MIT\"},\"@openzeppelin/contracts/utils/cryptography/MerkleProof.sol\":{\"content\":\"// SPDX-License-Identifier: MIT\\n\\npragma solidity ^0.8.0;\\n\\n/**\\n * @dev These functions deal with verification of Merkle trees (hash trees),\\n */\\nlibrary MerkleProof {\\n    /**\\n     * @dev Returns true if a `leaf` can be proved to be a part of a Merkle tree\\n     * defined by `root`. For this, a `proof` must be provided, containing\\n     * sibling hashes on the branch from the leaf to the root of the tree. Each\\n     * pair of leaves and each pair of pre-images are assumed to be sorted.\\n     */\\n    function verify(bytes32[] memory proof, bytes32 root, bytes32 leaf) internal pure returns (bool) {\\n        bytes32 computedHash = leaf;\\n\\n        for (uint256 i = 0; i < proof.length; i++) {\\n            bytes32 proofElement = proof[i];\\n\\n            if (computedHash <= proofElement) {\\n                // Hash(current computed hash + current element of the proof)\\n                computedHash = keccak256(abi.encodePacked(computedHash, proofElement));\\n            } else {\\n                // Hash(current element of the proof + current computed hash)\\n                computedHash = keccak256(abi.encodePacked(proofElement, computedHash));\\n            }\\n        }\\n\\n        // Check if the computed hash (root) is equal to the provided root\\n        return computedHash == root;\\n    }\\n}\\n\",\"keccak256\":\"0xc5f68fba2036a18144e7a208c0cb8038221d3b985b735b77359f554aecec33b7\",\"license\":\"MIT\"},\"@openzeppelin/contracts/utils/introspection/IERC165.sol\":{\"content\":\"// SPDX-License-Identifier: MIT\\n\\npragma solidity ^0.8.0;\\n\\n/**\\n * @dev Interface of the ERC165 standard, as defined in the\\n * https://eips.ethereum.org/EIPS/eip-165[EIP].\\n *\\n * Implementers can declare support of contract interfaces, which can then be\\n * queried by others ({ERC165Checker}).\\n *\\n * For an implementation, see {ERC165}.\\n */\\ninterface IERC165 {\\n    /**\\n     * @dev Returns true if this contract implements the interface defined by\\n     * `interfaceId`. See the corresponding\\n     * https://eips.ethereum.org/EIPS/eip-165#how-interfaces-are-identified[EIP section]\\n     * to learn more about how these ids are created.\\n     *\\n     * This function call must use less than 30 000 gas.\\n     */\\n    function supportsInterface(bytes4 interfaceId) external view returns (bool);\\n}\\n\",\"keccak256\":\"0xa28007762d9da9db878dd421960c8cb9a10471f47ab5c1b3309bfe48e9e79ff4\",\"license\":\"MIT\"},\"contracts/nft/ITellerNFT.sol\":{\"content\":\"// SPDX-License-Identifier: MIT\\npragma solidity ^0.8.0;\\npragma experimental ABIEncoderV2;\\n\\n// Interfaces\\nimport \\\"@openzeppelin/contracts/token/ERC721/extensions/IERC721Metadata.sol\\\";\\n\\ninterface ITellerNFT {\\n    struct Tier {\\n        uint256 baseLoanSize;\\n        string[] hashes;\\n        address contributionAsset;\\n        uint256 contributionSize;\\n        uint8 contributionMultiplier;\\n    }\\n\\n    /**\\n     * @notice The contract metadata URI.\\n     */\\n    function contractURI() external view returns (string memory);\\n\\n    /**\\n     * @notice It returns information about a Tier for a token ID.\\n     * @param index Tier index to get info.\\n     */\\n    function getTier(uint256 index) external view returns (Tier memory tier_);\\n\\n    /**\\n     * @notice It returns information about a Tier for a token ID.\\n     * @param tokenId ID of the token to get Tier info.\\n     */\\n    function getTokenTier(uint256 tokenId)\\n        external\\n        view\\n        returns (uint256 index_, Tier memory tier_);\\n\\n    /**\\n     * @notice It returns an array of token IDs owned by an address.\\n     * @dev It uses a EnumerableSet to store values and loops over each element to add to the array.\\n     * @dev Can be costly if calling within a contract for address with many tokens.\\n     */\\n    function getTierHashes(uint256 tierIndex)\\n        external\\n        view\\n        returns (string[] memory hashes_);\\n\\n    /**\\n     * @notice It returns an array of token IDs owned by an address.\\n     * @dev It uses a EnumerableSet to store values and loops over each element to add to the array.\\n     * @dev Can be costly if calling within a contract for address with many tokens.\\n     */\\n    function getOwnedTokens(address owner)\\n        external\\n        view\\n        returns (uint256[] memory owned);\\n\\n    /**\\n     * @notice It mints a new token for a Tier index.\\n     *\\n     * Requirements:\\n     *  - Caller must be an authorized minter\\n     */\\n    function mint(uint256 tierIndex, address owner) external;\\n\\n    /**\\n     * @notice Adds a new Tier to be minted with the given information.\\n     * @dev It auto increments the index of the next tier to add.\\n     * @param newTier Information about the new tier to add.\\n     *\\n     * Requirements:\\n     *  - Caller must have the {MINTER} role\\n     */\\n    function addTier(Tier memory newTier) external;\\n\\n    /**\\n     * @notice Sets the contract level metadata URI hash.\\n     * @param contractURIHash The hash to the initial contract level metadata.\\n     */\\n    function setContractURIHash(string memory contractURIHash) external;\\n\\n    /**\\n     * @notice Initializes the TellerNFT.\\n     * @param minters The addresses that should allowed to mint tokens.\\n     */\\n    function initialize(address[] calldata minters) external;\\n}\\n\",\"keccak256\":\"0x7c788b94c175b70eec6b10bfe0655616fc0beb2ce3ef70a6fa750f291d35106c\",\"license\":\"MIT\"},\"contracts/nft/distributor/data.sol\":{\"content\":\"// SPDX-License-Identifier: MIT\\npragma solidity ^0.8.0;\\n\\nbytes32 constant ADMIN = keccak256(\\\"ADMIN\\\");\\nbytes32 constant MINTER = keccak256(\\\"MINTER\\\");\\n\\nstruct MerkleRoot {\\n    bytes32 merkleRoot;\\n    uint256 tierIndex;\\n}\\n\\nstruct ClaimNFTRequest {\\n    uint256 merkleIndex;\\n    uint256 nodeIndex;\\n    uint256 amount;\\n    bytes32[] merkleProof;\\n}\\n\\nlibrary DistributorEvents {\\n    event Claimed(address indexed account);\\n\\n    event MerkleAdded(uint256 index);\\n}\\n\",\"keccak256\":\"0x3d0d14b0ed21ead3c29e3cd4195c5d40fb987bda0e6e4b61a60d8e2c5c1807c3\",\"license\":\"MIT\"},\"contracts/nft/distributor/external/distributor.sol\":{\"content\":\"// SPDX-License-Identifier: MIT\\npragma solidity ^0.8.0;\\n\\n// Contracts\\nimport \\\"../store.sol\\\";\\nimport \\\"../internal/distributor.sol\\\";\\n\\ncontract ext_distributor_NFT_v1 is sto_NFTDistributor, int_distributor_NFT_v1 {\\n    /**\\n     * @notice It gets the TellerNFT diamond instance used to mint.\\n     */\\n    function nft() external view returns (ITellerNFT nft_) {\\n        nft_ = distributorStore().nft;\\n    }\\n\\n    /**\\n     * @notice It gets the merkle roots for NFTs it can distribute.\\n     */\\n    function getMerkleRoots()\\n        external\\n        view\\n        returns (MerkleRoot[] memory roots_)\\n    {\\n        roots_ = distributorStore().merkleRoots;\\n    }\\n\\n    /**\\n     * @notice It checks the merkle root for a tier if it has already been claimed.\\n     * @param merkleIndex Index of the tier.\\n     * @param nodeIndex Index of the node in the merkle root.\\n     */\\n    function isClaimed(uint256 merkleIndex, uint256 nodeIndex)\\n        external\\n        view\\n        returns (bool claimed_)\\n    {\\n        claimed_ = _isClaimed(merkleIndex, nodeIndex);\\n    }\\n}\\n\\ncontract ext_distributor_NFT is ext_distributor_NFT_v1 {}\\n\",\"keccak256\":\"0x284b9af0ba2eed134bd41bef7369a404759233828884de1214a4f43aed5c794f\",\"license\":\"MIT\"},\"contracts/nft/distributor/internal/distributor.sol\":{\"content\":\"// SPDX-License-Identifier: MIT\\npragma solidity ^0.8.0;\\n\\n// Contracts\\nimport \\\"../store.sol\\\";\\n\\n// Libraries\\nimport \\\"@openzeppelin/contracts/utils/cryptography/MerkleProof.sol\\\";\\n\\n// Utils\\nimport { ClaimNFTRequest } from \\\"../data.sol\\\";\\n\\ncontract int_distributor_NFT_v1 is sto_NFTDistributor {\\n    /**\\n     * @notice It checks the merkle root for a tier if it has already been claimed.\\n     * @param merkleIndex Index of the tier.\\n     * @param nodeIndex Index of the node in the merkle root.\\n     */\\n    function _setClaimed(uint256 merkleIndex, uint256 nodeIndex) internal {\\n        uint256 claimedWordIndex = nodeIndex / 256;\\n        uint256 claimedBitIndex = nodeIndex % 256;\\n        distributorStore().claimedBitMap[merkleIndex][claimedWordIndex] =\\n            distributorStore().claimedBitMap[merkleIndex][claimedWordIndex] |\\n            (1 << claimedBitIndex);\\n    }\\n\\n    /**\\n     * @notice It checks the merkle root for a tier if it has already been claimed.\\n     * @param merkleIndex Index of the tier.\\n     * @param nodeIndex Index of the node in the merkle root.\\n     */\\n    function _isClaimed(uint256 merkleIndex, uint256 nodeIndex)\\n        internal\\n        view\\n        returns (bool)\\n    {\\n        uint256 claimedWordIndex = nodeIndex / 256;\\n        uint256 claimedBitIndex = nodeIndex % 256;\\n        uint256 claimedWord =\\n            distributorStore().claimedBitMap[merkleIndex][claimedWordIndex];\\n        uint256 mask = (1 << claimedBitIndex);\\n        return claimedWord & mask == mask;\\n    }\\n\\n    function _verifyProof(address account, ClaimNFTRequest memory request)\\n        internal\\n        view\\n        returns (bool verified)\\n    {\\n        verified = MerkleProof.verify(\\n            request.merkleProof,\\n            distributorStore().merkleRoots[request.merkleIndex].merkleRoot,\\n            keccak256(\\n                abi.encodePacked(request.nodeIndex, account, request.amount)\\n            )\\n        );\\n    }\\n}\\n\",\"keccak256\":\"0xdccea61d21c527cb0ba9d3221bf8f06d09cf05a2ce74cc53ccf8f1891ef2a99e\",\"license\":\"MIT\"},\"contracts/nft/distributor/store.sol\":{\"content\":\"// SPDX-License-Identifier: MIT\\npragma solidity ^0.8.0;\\n\\n// Interfaces\\nimport \\\"../ITellerNFT.sol\\\";\\n\\n// Utils\\nimport { MerkleRoot } from \\\"./data.sol\\\";\\n\\nabstract contract sto_NFTDistributor {\\n    struct DistributorStorage {\\n        ITellerNFT nft;\\n        MerkleRoot[] merkleRoots;\\n        mapping(uint256 => mapping(uint256 => uint256)) claimedBitMap;\\n    }\\n\\n    bytes32 constant POSITION = keccak256(\\\"teller_nft.distributor\\\");\\n\\n    function distributorStore()\\n        internal\\n        pure\\n        returns (DistributorStorage storage s)\\n    {\\n        bytes32 P = POSITION;\\n        assembly {\\n            s.slot := P\\n        }\\n    }\\n}\\n\",\"keccak256\":\"0x36f9931c4a494d66a4ad3273c3c9cf82b4d3441dead869c69e3e0a7a3f4f08b2\",\"license\":\"MIT\"}},\"version\":1}",
      "bytecode": "0x608060405234801561001057600080fd5b506102b3806100206000396000f3fe608060405234801561001057600080fd5b50600436106100415760003560e01c806347ccca021461004657806385135a1a14610085578063f364c90c1461009a575b600080fd5b7fcf1e960f2172c22b0a7308b10d2fa40d0d089ee0367c8e6cb72a5803f164c360546040516001600160a01b0390911681526020015b60405180910390f35b61008d6100bd565b60405161007c91906101f0565b6100ad6100a83660046101cf565b610152565b604051901515815260200161007c565b60607fcf1e960f2172c22b0a7308b10d2fa40d0d089ee0367c8e6cb72a5803f164c360600101805480602002602001604051908101604052809291908181526020016000905b8282101561014957838290600052602060002090600202016040518060400160405290816000820154815260200160018201548152505081526020019060010190610103565b50505050905090565b600061015e8383610165565b9392505050565b6000806101746101008461023f565b9050600061018461010085610253565b60009586527fcf1e960f2172c22b0a7308b10d2fa40d0d089ee0367c8e6cb72a5803f164c362602090815260408088209488529390529190942054600190911b908116149392505050565b600080604083850312156101e1578182fd5b50508035926020909101359150565b602080825282518282018190526000919060409081850190868401855b828110156102325781518051855286015186850152928401929085019060010161020d565b5091979650505050505050565b60008261024e5761024e610267565b500490565b60008261026257610262610267565b500690565b634e487b7160e01b600052601260045260246000fdfea2646970667358221220191d4bcad69ee96a0441a269ab50638cf781bf24730826306eab83be91a9ee8e64736f6c63430008030033",
      "deployedBytecode": "0x608060405234801561001057600080fd5b50600436106100415760003560e01c806347ccca021461004657806385135a1a14610085578063f364c90c1461009a575b600080fd5b7fcf1e960f2172c22b0a7308b10d2fa40d0d089ee0367c8e6cb72a5803f164c360546040516001600160a01b0390911681526020015b60405180910390f35b61008d6100bd565b60405161007c91906101f0565b6100ad6100a83660046101cf565b610152565b604051901515815260200161007c565b60607fcf1e960f2172c22b0a7308b10d2fa40d0d089ee0367c8e6cb72a5803f164c360600101805480602002602001604051908101604052809291908181526020016000905b8282101561014957838290600052602060002090600202016040518060400160405290816000820154815260200160018201548152505081526020019060010190610103565b50505050905090565b600061015e8383610165565b9392505050565b6000806101746101008461023f565b9050600061018461010085610253565b60009586527fcf1e960f2172c22b0a7308b10d2fa40d0d089ee0367c8e6cb72a5803f164c362602090815260408088209488529390529190942054600190911b908116149392505050565b600080604083850312156101e1578182fd5b50508035926020909101359150565b602080825282518282018190526000919060409081850190868401855b828110156102325781518051855286015186850152928401929085019060010161020d565b5091979650505050505050565b60008261024e5761024e610267565b500490565b60008261026257610262610267565b500690565b634e487b7160e01b600052601260045260246000fdfea2646970667358221220191d4bcad69ee96a0441a269ab50638cf781bf24730826306eab83be91a9ee8e64736f6c63430008030033",
      "devdoc": {
        "kind": "dev",
        "methods": {
          "isClaimed(uint256,uint256)": {
            "params": {
              "merkleIndex": "Index of the tier.",
              "nodeIndex": "Index of the node in the merkle root."
            }
          }
        },
        "version": 1
      },
      "userdoc": {
        "kind": "user",
        "methods": {
          "getMerkleRoots()": {
            "notice": "It gets the merkle roots for NFTs it can distribute."
          },
          "isClaimed(uint256,uint256)": {
            "notice": "It checks the merkle root for a tier if it has already been claimed."
          },
          "nft()": {
            "notice": "It gets the TellerNFT diamond instance used to mint."
          }
        },
        "version": 1
      },
      "storageLayout": {
        "storage": [],
        "types": null
      }
    }
  ],
  "devdoc": {
    "kind": "dev",
    "methods": {
      "isClaimed(uint256,uint256)": {
        "params": {
          "merkleIndex": "Index of the tier.",
          "nodeIndex": "Index of the node in the merkle root."
        }
      }
    },
    "version": 1
  },
  "userdoc": {
    "kind": "user",
    "methods": {
      "getMerkleRoots()": {
        "notice": "It gets the merkle roots for NFTs it can distribute."
      },
      "isClaimed(uint256,uint256)": {
        "notice": "It checks the merkle root for a tier if it has already been claimed."
      },
      "nft()": {
        "notice": "It gets the TellerNFT diamond instance used to mint."
      }
    },
    "version": 1
  },
  "storageLayout": {
    "storage": [],
    "types": null
  }
}