{
  "address": "0x08162332b1C13E6d1E80AC0D756aF255d218DC20",
  "abi": [
    {
      "stateMutability": "payable",
      "type": "fallback"
    },
    {
      "inputs": [
        {
          "internalType": "address",
          "name": "beacon",
          "type": "address"
        },
        {
          "internalType": "bytes",
          "name": "data",
          "type": "bytes"
        }
      ],
      "name": "initialize",
      "outputs": [],
      "stateMutability": "payable",
      "type": "function"
    },
    {
      "stateMutability": "payable",
      "type": "receive"
    }
  ],
  "artifactName": "InitializeableBeaconProxy",
  "transactionHash": "0x36e156a0f6acc51a07f2c01c4263aab83ad2e5f5c7f077c4e9a407770d294597",
  "args": [],
  "solcInputHash": "7aad2cc112697924bcec275c5d33dbff",
  "bytecode": "0x608060405234801561001057600080fd5b5061055a806100206000396000f3fe6080604052600436106100225760003560e01c8063d1f578941461003357610029565b3661002957005b610031610046565b005b610031610041366004610358565b610058565b61005661005161012e565b6101bb565b565b61008360017fa3f0ad74e5423aebfd80d3ef4346578335a9a72aeaee59ff6cb3582b35133d51610466565b6000805160206104e4833981519152146100ad57634e487b7160e01b600052600160045260246000fd5b60006100c56000805160206104e48339815191525490565b6001600160a01b0316146101205760405162461bcd60e51b815260206004820152601b60248201527f426561636f6e3a20616c726561647920696e697469616c697a6564000000000060448201526064015b60405180910390fd5b61012a82826101e4565b5050565b60006101466000805160206104e48339815191525490565b6001600160a01b0316635c60da1b6040518163ffffffff1660e01b815260040160206040518083038186803b15801561017e57600080fd5b505afa158015610192573d6000803e3d6000fd5b505050506040513d601f19601f820116820180604052508101906101b6919061033c565b905090565b3660008037600080366000845af43d6000803e8080156101da573d6000f35b3d6000fd5b505050565b6000805160206104e48339815191528281558151156101df5761022761020861012e565b836040518060600160405280602181526020016105046021913961022d565b50505050565b6060833b61028c5760405162461bcd60e51b815260206004820152602660248201527f416464726573733a2064656c65676174652063616c6c20746f206e6f6e2d636f6044820152651b9d1c9858dd60d21b6064820152608401610117565b600080856001600160a01b0316856040516102a79190610417565b600060405180830381855af49150503d80600081146102e2576040519150601f19603f3d011682016040523d82523d6000602084013e6102e7565b606091505b50915091506102f7828286610303565b925050505b9392505050565b606083156103125750816102fc565b8251156103225782518084602001fd5b8160405162461bcd60e51b81526004016101179190610433565b60006020828403121561034d578081fd5b81516102fc816104cb565b6000806040838503121561036a578081fd5b8235610375816104cb565b9150602083013567ffffffffffffffff80821115610391578283fd5b818501915085601f8301126103a4578283fd5b8135818111156103b6576103b66104b5565b604051601f8201601f19908116603f011681019083821181831017156103de576103de6104b5565b816040528281528860208487010111156103f6578586fd5b82602086016020830137856020848301015280955050505050509250929050565b60008251610429818460208701610489565b9190910192915050565b6000602082528251806020840152610452816040850160208701610489565b601f01601f19169190910160400192915050565b60008282101561048457634e487b7160e01b81526011600452602481fd5b500390565b60005b838110156104a457818101518382015260200161048c565b838111156102275750506000910152565b634e487b7160e01b600052604160045260246000fd5b6001600160a01b03811681146104e057600080fd5b5056fea3f0ad74e5423aebfd80d3ef4346578335a9a72aeaee59ff6cb3582b35133d50426561636f6e50726f78793a2066756e6374696f6e2063616c6c206661696c6564a264697066735822122061c5354f9133109170529a4ad9dc8cb2f08659e45701d7c18c3e2c3027e7335364736f6c63430008030033",
  "devdoc": {
    "details": "This contract implements a proxy that gets the implementation address for each call from a {UpgradeableBeacon}. The beacon address is stored in storage slot `uint256(keccak256('eip1967.proxy.beacon')) - 1`, so that it doesn't conflict with the storage layout of the implementation behind the proxy. _Available since v3.4._",
    "kind": "dev",
    "methods": {
      "initialize(address,bytes)": {
        "details": "Initializes the proxy with `beacon`. If `data` is nonempty, it's used as data in a delegate call to the implementation returned by the beacon. This will typically be an encoded function call, and allows initializating the storage of the proxy like a Solidity constructor. Requirements: - `beacon` must be a contract with the interface {IBeacon}."
      }
    },
    "stateVariables": {
      "_BEACON_SLOT": {
        "details": "The storage slot of the UpgradeableBeacon contract which defines the implementation for this proxy. This is bytes32(uint256(keccak256('eip1967.proxy.beacon')) - 1)) and is validated in the constructor."
      }
    },
    "version": 1
  },
  "userdoc": {
    "kind": "user",
    "methods": {},
    "version": 1
  },
  "storageLayout": {
    "storage": [],
    "types": null
  }
}