{
  "address": "0xC4aCA6088017B6e7c2475d369d64e2685e3cc2fD",
  "abi": [
    {
      "inputs": [
        {
          "internalType": "address",
          "name": "dappAddress",
          "type": "address"
        },
        {
          "internalType": "bytes",
          "name": "dappData",
          "type": "bytes"
        }
      ],
      "name": "callDapp",
      "outputs": [
        {
          "internalType": "bytes",
          "name": "resData_",
          "type": "bytes"
        }
      ],
      "stateMutability": "nonpayable",
      "type": "function"
    },
    {
      "inputs": [
        {
          "internalType": "address",
          "name": "token",
          "type": "address"
        },
        {
          "internalType": "address",
          "name": "to",
          "type": "address"
        },
        {
          "internalType": "uint256",
          "name": "amount",
          "type": "uint256"
        }
      ],
      "name": "claimToken",
      "outputs": [],
      "stateMutability": "nonpayable",
      "type": "function"
    },
    {
      "inputs": [],
      "name": "init",
      "outputs": [],
      "stateMutability": "nonpayable",
      "type": "function"
    },
    {
      "inputs": [],
      "name": "owner",
      "outputs": [
        {
          "internalType": "address",
          "name": "",
          "type": "address"
        }
      ],
      "stateMutability": "view",
      "type": "function"
    },
    {
      "inputs": [
        {
          "internalType": "address",
          "name": "token",
          "type": "address"
        },
        {
          "internalType": "address",
          "name": "spender",
          "type": "address"
        }
      ],
      "name": "setTokenAllowance",
      "outputs": [],
      "stateMutability": "nonpayable",
      "type": "function"
    }
  ],
  "artifactName": "LoansEscrow_V1",
  "transactionHash": "0x10157d5d639b942c8c39f05cd9ef05ca0885b483d33e7d8d17bfd563f41b2609",
  "args": [],
  "solcInputHash": "7aad2cc112697924bcec275c5d33dbff",
  "bytecode": "0x608060405234801561001057600080fd5b506107bd806100206000396000f3fe608060405234801561001057600080fd5b50600436106100575760003560e01c8063125bfb661461005c578063249e926a146100715780634331fa6e146100845780638da5cb5b146100ad578063e1c7392a146100d8575b600080fd5b61006f61006a3660046105ec565b6100e0565b005b61006f61007f3660046105ba565b610123565b610097610092366004610627565b6101d0565b6040516100a4919061070d565b60405180910390f35b6000546100c0906001600160a01b031681565b6040516001600160a01b0390911681526020016100a4565b61006f61027a565b6000546001600160a01b031633146101135760405162461bcd60e51b815260040161010a90610720565b60405180910390fd5b61011e8383836102f7565b505050565b6000546001600160a01b0316331461014d5760405162461bcd60e51b815260040161010a90610720565b60405163095ea7b360e01b81526001600160a01b038281166004830152600019602483015283169063095ea7b390604401602060405180830381600087803b15801561019857600080fd5b505af11580156101ac573d6000803e3d6000fd5b505050506040513d601f19601f8201168201806040525081019061011e91906106a5565b6000546060906001600160a01b031633146101fd5760405162461bcd60e51b815260040161010a90610720565b6102728484848080601f0160208091040260200160405190810160405280939291908181526020018383808284376000920191909152505060408051808201909152601881527f54656c6c65723a20646170702063616c6c206661696c65640000000000000000602082015291506103499050565b949350505050565b6000546001600160a01b0316156102e35760405162461bcd60e51b815260206004820152602760248201527f54656c6c65723a206c6f616e20657363726f7720616c726561647920696e69746044820152661a585b1a5e995960ca1b606482015260840161010a565b600080546001600160a01b03191633179055565b604080516001600160a01b038416602482015260448082018490528251808303909101815260649091019091526020810180516001600160e01b031663a9059cbb60e01b17905261011e90849061035f565b60606102728484600085610431565b9392505050565b60006103b4826040518060400160405280602081526020017f5361666545524332303a206c6f772d6c6576656c2063616c6c206661696c6564815250856001600160a01b03166103499092919063ffffffff16565b80519091501561011e57808060200190518101906103d291906106a5565b61011e5760405162461bcd60e51b815260206004820152602a60248201527f5361666545524332303a204552433230206f7065726174696f6e20646964206e6044820152691bdd081cdd58d8d9595960b21b606482015260840161010a565b6060824710156104925760405162461bcd60e51b815260206004820152602660248201527f416464726573733a20696e73756666696369656e742062616c616e636520666f6044820152651c8818d85b1b60d21b606482015260840161010a565b61049b85610560565b6104e75760405162461bcd60e51b815260206004820152601d60248201527f416464726573733a2063616c6c20746f206e6f6e2d636f6e7472616374000000604482015260640161010a565b600080866001600160a01b0316858760405161050391906106f1565b60006040518083038185875af1925050503d8060008114610540576040519150601f19603f3d011682016040523d82523d6000602084013e610545565b606091505b509150915061055582828661056a565b979650505050505050565b803b15155b919050565b60608315610579575081610358565b8251156105895782518084602001fd5b8160405162461bcd60e51b815260040161010a919061070d565b80356001600160a01b038116811461056557600080fd5b600080604083850312156105cc578182fd5b6105d5836105a3565b91506105e3602084016105a3565b90509250929050565b600080600060608486031215610600578081fd5b610609846105a3565b9250610617602085016105a3565b9150604084013590509250925092565b60008060006040848603121561063b578283fd5b610644846105a3565b9250602084013567ffffffffffffffff80821115610660578384fd5b818601915086601f830112610673578384fd5b813581811115610681578485fd5b876020828501011115610692578485fd5b6020830194508093505050509250925092565b6000602082840312156106b6578081fd5b81518015158114610358578182fd5b600081518084526106dd816020860160208601610757565b601f01601f19169290920160200192915050565b60008251610703818460208701610757565b9190910192915050565b60006020825261035860208301846106c5565b6020808252601d908201527f54656c6c65723a206c6f616e20657363726f77206e6f74206f776e6572000000604082015260600190565b60005b8381101561077257818101518382015260200161075a565b83811115610781576000848401525b5050505056fea2646970667358221220b73d383e0a02c9d4254c8bccaceb792699370841e9484f8551275f78dbff78d764736f6c63430008030033",
  "devdoc": {
    "kind": "dev",
    "methods": {},
    "version": 1
  },
  "userdoc": {
    "kind": "user",
    "methods": {},
    "version": 1
  },
  "storageLayout": {
    "storage": [
      {
        "astId": 10847,
        "contract": "contracts/escrow/escrow/LoansEscrow_V1.sol:LoansEscrow_V1",
        "label": "owner",
        "offset": 0,
        "slot": "0",
        "type": "t_address"
      }
    ],
    "types": {
      "t_address": {
        "encoding": "inplace",
        "label": "address",
        "numberOfBytes": "20"
      }
    }
  }
}