{
  "address": "0x450e01AcB946151B6055276fb3ad3a7C03CA1809",
  "abi": [
    {
      "anonymous": false,
      "inputs": [
        {
          "indexed": true,
          "internalType": "bytes32",
          "name": "settingName",
          "type": "bytes32"
        },
        {
          "indexed": true,
          "internalType": "address",
          "name": "sender",
          "type": "address"
        },
        {
          "indexed": false,
          "internalType": "uint256",
          "name": "oldMin",
          "type": "uint256"
        },
        {
          "indexed": false,
          "internalType": "uint256",
          "name": "oldMax",
          "type": "uint256"
        },
        {
          "indexed": false,
          "internalType": "uint256",
          "name": "newMin",
          "type": "uint256"
        },
        {
          "indexed": false,
          "internalType": "uint256",
          "name": "newMax",
          "type": "uint256"
        }
      ],
      "name": "PlatformSettingBoundariesUpdated",
      "type": "event"
    },
    {
      "anonymous": false,
      "inputs": [
        {
          "indexed": true,
          "internalType": "bytes32",
          "name": "settingName",
          "type": "bytes32"
        },
        {
          "indexed": true,
          "internalType": "address",
          "name": "sender",
          "type": "address"
        },
        {
          "indexed": false,
          "internalType": "uint256",
          "name": "value",
          "type": "uint256"
        },
        {
          "indexed": false,
          "internalType": "uint256",
          "name": "minValue",
          "type": "uint256"
        },
        {
          "indexed": false,
          "internalType": "uint256",
          "name": "maxValue",
          "type": "uint256"
        }
      ],
      "name": "PlatformSettingCreated",
      "type": "event"
    },
    {
      "anonymous": false,
      "inputs": [
        {
          "indexed": true,
          "internalType": "bytes32",
          "name": "settingName",
          "type": "bytes32"
        },
        {
          "indexed": true,
          "internalType": "address",
          "name": "sender",
          "type": "address"
        },
        {
          "indexed": false,
          "internalType": "uint256",
          "name": "oldValue",
          "type": "uint256"
        },
        {
          "indexed": false,
          "internalType": "uint256",
          "name": "newValue",
          "type": "uint256"
        }
      ],
      "name": "PlatformSettingUpdated",
      "type": "event"
    },
    {
      "inputs": [
        {
          "internalType": "bytes32",
          "name": "name",
          "type": "bytes32"
        },
        {
          "internalType": "uint256",
          "name": "value",
          "type": "uint256"
        },
        {
          "internalType": "uint256",
          "name": "min",
          "type": "uint256"
        },
        {
          "internalType": "uint256",
          "name": "max",
          "type": "uint256"
        }
      ],
      "name": "createPlatformSetting",
      "outputs": [],
      "stateMutability": "nonpayable",
      "type": "function"
    },
    {
      "inputs": [
        {
          "internalType": "bytes32",
          "name": "name",
          "type": "bytes32"
        }
      ],
      "name": "getPlatformSetting",
      "outputs": [
        {
          "components": [
            {
              "internalType": "uint256",
              "name": "value",
              "type": "uint256"
            },
            {
              "internalType": "uint256",
              "name": "min",
              "type": "uint256"
            },
            {
              "internalType": "uint256",
              "name": "max",
              "type": "uint256"
            },
            {
              "internalType": "bool",
              "name": "exists",
              "type": "bool"
            }
          ],
          "internalType": "struct PlatformSetting",
          "name": "setting_",
          "type": "tuple"
        }
      ],
      "stateMutability": "view",
      "type": "function"
    },
    {
      "inputs": [
        {
          "internalType": "bytes32",
          "name": "name",
          "type": "bytes32"
        },
        {
          "internalType": "uint256",
          "name": "newValue",
          "type": "uint256"
        }
      ],
      "name": "updatePlatformSetting",
      "outputs": [
        {
          "internalType": "uint256",
          "name": "oldValue",
          "type": "uint256"
        }
      ],
      "stateMutability": "nonpayable",
      "type": "function"
    },
    {
      "inputs": [
        {
          "internalType": "bytes32",
          "name": "name",
          "type": "bytes32"
        },
        {
          "internalType": "uint256",
          "name": "min",
          "type": "uint256"
        },
        {
          "internalType": "uint256",
          "name": "max",
          "type": "uint256"
        }
      ],
      "name": "updatePlatformSettingBoundaries",
      "outputs": [],
      "stateMutability": "nonpayable",
      "type": "function"
    }
  ],
  "artifactName": "PlatformSettingsFacet",
  "transactionHash": "0xae18abcefcb58c91139e6645ba2d93825e60b81c0f49c5aa11ae5b6221603466",
  "args": [],
  "solcInputHash": "1be8a6a75d89e8f0cbe5f21c3ec1aa82",
  "bytecode": "0x608060405234801561001057600080fd5b50610838806100206000396000f3fe608060405234801561001057600080fd5b506004361061004c5760003560e01c806374b1d75d146100515780639dec88b914610066578063ce19912914610079578063d10a0aec146100ca575b600080fd5b61006461005f36600461072c565b6100eb565b005b610064610074366004610757565b610201565b61008c6100873660046106f3565b610403565b6040516100c1919081518152602080830151908201526040808301519082015260609182015115159181019190915260800190565b60405180910390f35b6100dd6100d836600461070b565b610478565b6040519081526020016100c1565b7fdf8b4c520ffe197c5343c6f5aec59570151ef9a492f2c624fd45ddde6135ec423361011782826106a9565b61013c5760405162461bcd60e51b815260040161013390610788565b60405180910390fd5b60008581526002602052604090206003015460ff1661016d5760405162461bcd60e51b8152600401610133906107bf565b33857fe6e38563c9d51c6265d9223ba7055d6de967b958c10c72bb8039f3e0a911efa76101a582600090815260026020526040902090565b6001015460008981526002602052604090206002015460408051928352602083019190915281018890526060810187905260800160405180910390a3505060009283526002602081905260409093206001810192909255910155565b7fdf8b4c520ffe197c5343c6f5aec59570151ef9a492f2c624fd45ddde6135ec423361022d82826106a9565b6102495760405162461bcd60e51b815260040161013390610788565b60008681526002602052604090206003015460ff16156102bb5760405162461bcd60e51b815260206004820152602760248201527f54656c6c65723a20706c6174666f726d2073657474696e6720616c72656164796044820152662065786973747360c81b6064820152608401610133565b838510156103205760405162461bcd60e51b815260206004820152602c60248201527f54656c6c65723a20706c6174666f726d2073657474696e672076616c7565206c60448201526b32b9b9903a3430b71036b4b760a11b6064820152608401610133565b828511156103885760405162461bcd60e51b815260206004820152602f60248201527f54656c6c65723a20706c6174666f726d2073657474696e672076616c7565206760448201526e0e4cac2e8cae440e8d0c2dc40dac2f608b1b6064820152608401610133565b6000868152600260208181526040928390208881556001808201899055928101879055600301805460ff191690921790915581518781529081018690528082018590529051339188917f88608f5277d08a47d0b5c4911811b474510dfcb1e303b13120b4fdd013ee4feb9181900360600190a3505050505050565b61043060405180608001604052806000815260200160008152602001600081526020016000151581525090565b600082815260026020526040902060408051608081018252825481526001830154602082015260028301549181019190915260039091015460ff161515606082015292915050565b60007fdf8b4c520ffe197c5343c6f5aec59570151ef9a492f2c624fd45ddde6135ec42336104a682826106a9565b6104c25760405162461bcd60e51b815260040161013390610788565b60008581526002602052604090206003015460ff166104f35760405162461bcd60e51b8152600401610133906107bf565b6000858152600260205260409020548414156105645760405162461bcd60e51b815260206004820152602a60248201527f54656c6c65723a206e657720706c6174666f726d2073657474696e67206e6f7460448201526908191a5999995c995b9d60b21b6064820152608401610133565b6000858152600260205260409020600101548410156105d85760405162461bcd60e51b815260206004820152602a60248201527f54656c6c65723a206e657720706c6174666f726d2073657474696e67206c657360448201526939903a3430b71036b4b760b11b6064820152608401610133565b60008581526002602052604090206002015484111561064f5760405162461bcd60e51b815260206004820152602d60248201527f54656c6c65723a206e657720706c6174666f726d2073657474696e672067726560448201526c0c2e8cae440e8d0c2dc40dac2f609b1b6064820152608401610133565b6000858152600260205260409020805493508490556040805184815260208101869052339187917ff5d6988acb4a237a95feb459c3b5d7f95ad15acfe26d31cd4bf88b8b1ec792de910160405180910390a3505092915050565b60009182527f7b305b6be5f275f648d05716597c483d754c2a242bd605feba3c64fb85360534602090815260408084206001600160a01b0393909316845291905290205460ff1690565b600060208284031215610704578081fd5b5035919050565b6000806040838503121561071d578081fd5b50508035926020909101359150565b600080600060608486031215610740578081fd5b505081359360208301359350604090920135919050565b6000806000806080858703121561076c578081fd5b5050823594602084013594506040840135936060013592509050565b6020808252601d908201527f416363657373436f6e74726f6c3a206e6f7420617574686f72697a6564000000604082015260600190565b60208082526023908201527f54656c6c65723a20706c6174666f726d2073657474696e67206e6f742065786960408201526273747360e81b60608201526080019056fea264697066735822122063bf91691f76af16d227ef8e5b5672cc02a7d38e6e7a4eac637af482d3642d6b64736f6c63430008040033",
  "history": [
    {
      "address": "0xEF2508E1673BD0BC26379d2b7d43c0a8047E92B4",
      "abi": [
        {
          "anonymous": false,
          "inputs": [
            {
              "indexed": true,
              "internalType": "bytes32",
              "name": "settingName",
              "type": "bytes32"
            },
            {
              "indexed": true,
              "internalType": "address",
              "name": "sender",
              "type": "address"
            },
            {
              "indexed": false,
              "internalType": "uint256",
              "name": "oldMin",
              "type": "uint256"
            },
            {
              "indexed": false,
              "internalType": "uint256",
              "name": "oldMax",
              "type": "uint256"
            },
            {
              "indexed": false,
              "internalType": "uint256",
              "name": "newMin",
              "type": "uint256"
            },
            {
              "indexed": false,
              "internalType": "uint256",
              "name": "newMax",
              "type": "uint256"
            }
          ],
          "name": "PlatformSettingBoundariesUpdated",
          "type": "event"
        },
        {
          "anonymous": false,
          "inputs": [
            {
              "indexed": true,
              "internalType": "bytes32",
              "name": "settingName",
              "type": "bytes32"
            },
            {
              "indexed": true,
              "internalType": "address",
              "name": "sender",
              "type": "address"
            },
            {
              "indexed": false,
              "internalType": "uint256",
              "name": "value",
              "type": "uint256"
            },
            {
              "indexed": false,
              "internalType": "uint256",
              "name": "minValue",
              "type": "uint256"
            },
            {
              "indexed": false,
              "internalType": "uint256",
              "name": "maxValue",
              "type": "uint256"
            }
          ],
          "name": "PlatformSettingCreated",
          "type": "event"
        },
        {
          "anonymous": false,
          "inputs": [
            {
              "indexed": true,
              "internalType": "bytes32",
              "name": "settingName",
              "type": "bytes32"
            },
            {
              "indexed": true,
              "internalType": "address",
              "name": "sender",
              "type": "address"
            },
            {
              "indexed": false,
              "internalType": "uint256",
              "name": "oldValue",
              "type": "uint256"
            },
            {
              "indexed": false,
              "internalType": "uint256",
              "name": "newValue",
              "type": "uint256"
            }
          ],
          "name": "PlatformSettingUpdated",
          "type": "event"
        },
        {
          "inputs": [
            {
              "internalType": "bytes32",
              "name": "name",
              "type": "bytes32"
            },
            {
              "internalType": "uint256",
              "name": "value",
              "type": "uint256"
            },
            {
              "internalType": "uint256",
              "name": "min",
              "type": "uint256"
            },
            {
              "internalType": "uint256",
              "name": "max",
              "type": "uint256"
            }
          ],
          "name": "createPlatformSetting",
          "outputs": [],
          "stateMutability": "nonpayable",
          "type": "function"
        },
        {
          "inputs": [
            {
              "internalType": "bytes32",
              "name": "name",
              "type": "bytes32"
            }
          ],
          "name": "getPlatformSetting",
          "outputs": [
            {
              "components": [
                {
                  "internalType": "uint256",
                  "name": "value",
                  "type": "uint256"
                },
                {
                  "internalType": "uint256",
                  "name": "min",
                  "type": "uint256"
                },
                {
                  "internalType": "uint256",
                  "name": "max",
                  "type": "uint256"
                },
                {
                  "internalType": "bool",
                  "name": "exists",
                  "type": "bool"
                }
              ],
              "internalType": "struct PlatformSetting",
              "name": "setting_",
              "type": "tuple"
            }
          ],
          "stateMutability": "view",
          "type": "function"
        },
        {
          "inputs": [
            {
              "internalType": "bytes32",
              "name": "name",
              "type": "bytes32"
            },
            {
              "internalType": "uint256",
              "name": "newValue",
              "type": "uint256"
            }
          ],
          "name": "updatePlatformSetting",
          "outputs": [
            {
              "internalType": "uint256",
              "name": "oldValue",
              "type": "uint256"
            }
          ],
          "stateMutability": "nonpayable",
          "type": "function"
        },
        {
          "inputs": [
            {
              "internalType": "bytes32",
              "name": "name",
              "type": "bytes32"
            },
            {
              "internalType": "uint256",
              "name": "min",
              "type": "uint256"
            },
            {
              "internalType": "uint256",
              "name": "max",
              "type": "uint256"
            }
          ],
          "name": "updatePlatformSettingBoundaries",
          "outputs": [],
          "stateMutability": "nonpayable",
          "type": "function"
        }
      ],
      "artifactName": "PlatformSettingsFacet",
      "transactionHash": "0xd39ee8c3d33f212851fe6ce3654f26ce81cb039932765ee864c19bfae5bfa00a",
      "receipt": {
        "to": null,
        "from": "0xAFe87013dc96edE1E116a288D80FcaA0eFFE5fe5",
        "contractAddress": "0xEF2508E1673BD0BC26379d2b7d43c0a8047E92B4",
        "transactionIndex": 62,
        "gasUsed": "507771",
        "logsBloom": "0x00000000000000000000000000000000000000000000000000000000000000000000000000000000000000000000000000000000000000000000000000000000000000000000000000000000000000000000000000000000000000000000000000000000000000000000000000000000000000000000000000000000000000000000000000000000000000000000000000000000000000000000000000000000000000000000000000000000000000000000000000000000000000000000000000000000000000000000000000000000000000000000000000000000000000000000000000000000000000000000000000000000000000000000000000000000",
        "blockHash": "0x4caace317fe06ba8e56026c9b82ee37a4cd9071e06eb52848a23bcf979335425",
        "transactionHash": "0xd39ee8c3d33f212851fe6ce3654f26ce81cb039932765ee864c19bfae5bfa00a",
        "logs": [],
        "blockNumber": 12437050,
        "cumulativeGasUsed": "3694500",
        "status": 1,
        "byzantium": true
      },
      "args": [],
      "solcInputHash": "7aad2cc112697924bcec275c5d33dbff",
      "metadata": "{\"compiler\":{\"version\":\"0.8.3+commit.8d00100c\"},\"language\":\"Solidity\",\"output\":{\"abi\":[{\"anonymous\":false,\"inputs\":[{\"indexed\":true,\"internalType\":\"bytes32\",\"name\":\"settingName\",\"type\":\"bytes32\"},{\"indexed\":true,\"internalType\":\"address\",\"name\":\"sender\",\"type\":\"address\"},{\"indexed\":false,\"internalType\":\"uint256\",\"name\":\"oldMin\",\"type\":\"uint256\"},{\"indexed\":false,\"internalType\":\"uint256\",\"name\":\"oldMax\",\"type\":\"uint256\"},{\"indexed\":false,\"internalType\":\"uint256\",\"name\":\"newMin\",\"type\":\"uint256\"},{\"indexed\":false,\"internalType\":\"uint256\",\"name\":\"newMax\",\"type\":\"uint256\"}],\"name\":\"PlatformSettingBoundariesUpdated\",\"type\":\"event\"},{\"anonymous\":false,\"inputs\":[{\"indexed\":true,\"internalType\":\"bytes32\",\"name\":\"settingName\",\"type\":\"bytes32\"},{\"indexed\":true,\"internalType\":\"address\",\"name\":\"sender\",\"type\":\"address\"},{\"indexed\":false,\"internalType\":\"uint256\",\"name\":\"value\",\"type\":\"uint256\"},{\"indexed\":false,\"internalType\":\"uint256\",\"name\":\"minValue\",\"type\":\"uint256\"},{\"indexed\":false,\"internalType\":\"uint256\",\"name\":\"maxValue\",\"type\":\"uint256\"}],\"name\":\"PlatformSettingCreated\",\"type\":\"event\"},{\"anonymous\":false,\"inputs\":[{\"indexed\":true,\"internalType\":\"bytes32\",\"name\":\"settingName\",\"type\":\"bytes32\"},{\"indexed\":true,\"internalType\":\"address\",\"name\":\"sender\",\"type\":\"address\"},{\"indexed\":false,\"internalType\":\"uint256\",\"name\":\"oldValue\",\"type\":\"uint256\"},{\"indexed\":false,\"internalType\":\"uint256\",\"name\":\"newValue\",\"type\":\"uint256\"}],\"name\":\"PlatformSettingUpdated\",\"type\":\"event\"},{\"inputs\":[{\"internalType\":\"bytes32\",\"name\":\"name\",\"type\":\"bytes32\"},{\"internalType\":\"uint256\",\"name\":\"value\",\"type\":\"uint256\"},{\"internalType\":\"uint256\",\"name\":\"min\",\"type\":\"uint256\"},{\"internalType\":\"uint256\",\"name\":\"max\",\"type\":\"uint256\"}],\"name\":\"createPlatformSetting\",\"outputs\":[],\"stateMutability\":\"nonpayable\",\"type\":\"function\"},{\"inputs\":[{\"internalType\":\"bytes32\",\"name\":\"name\",\"type\":\"bytes32\"}],\"name\":\"getPlatformSetting\",\"outputs\":[{\"components\":[{\"internalType\":\"uint256\",\"name\":\"value\",\"type\":\"uint256\"},{\"internalType\":\"uint256\",\"name\":\"min\",\"type\":\"uint256\"},{\"internalType\":\"uint256\",\"name\":\"max\",\"type\":\"uint256\"},{\"internalType\":\"bool\",\"name\":\"exists\",\"type\":\"bool\"}],\"internalType\":\"struct PlatformSetting\",\"name\":\"setting_\",\"type\":\"tuple\"}],\"stateMutability\":\"view\",\"type\":\"function\"},{\"inputs\":[{\"internalType\":\"bytes32\",\"name\":\"name\",\"type\":\"bytes32\"},{\"internalType\":\"uint256\",\"name\":\"newValue\",\"type\":\"uint256\"}],\"name\":\"updatePlatformSetting\",\"outputs\":[{\"internalType\":\"uint256\",\"name\":\"oldValue\",\"type\":\"uint256\"}],\"stateMutability\":\"nonpayable\",\"type\":\"function\"},{\"inputs\":[{\"internalType\":\"bytes32\",\"name\":\"name\",\"type\":\"bytes32\"},{\"internalType\":\"uint256\",\"name\":\"min\",\"type\":\"uint256\"},{\"internalType\":\"uint256\",\"name\":\"max\",\"type\":\"uint256\"}],\"name\":\"updatePlatformSettingBoundaries\",\"outputs\":[],\"stateMutability\":\"nonpayable\",\"type\":\"function\"}],\"devdoc\":{\"author\":\"develop@teller.finance\",\"events\":{\"PlatformSettingBoundariesUpdated(bytes32,address,uint256,uint256,uint256,uint256)\":{\"params\":{\"newMax\":\"New maximum boundary.\",\"newMin\":\"New minimum boundary.\",\"oldMax\":\"Previous minimum boundary.\",\"oldMin\":\"Previous minimum boundary.\",\"sender\":\"address that removed it.\",\"settingName\":\"setting name removed.\"}},\"PlatformSettingCreated(bytes32,address,uint256,uint256,uint256)\":{\"params\":{\"maxValue\":\"Maximum boundary for the new setting.\",\"minValue\":\"Minimum boundary for the new setting.\",\"sender\":\"Address that created it.\",\"settingName\":\"New setting name.\",\"value\":\"Value for the new setting.\"}},\"PlatformSettingUpdated(bytes32,address,uint256,uint256)\":{\"params\":{\"newValue\":\"New value for the setting.\",\"oldValue\":\"Previous value for the setting.\",\"sender\":\"Address that updated it.\",\"settingName\":\"Keccak'ed settings name.\"}}},\"kind\":\"dev\",\"methods\":{\"createPlatformSetting(bytes32,uint256,uint256,uint256)\":{\"params\":{\"max\":\"Maximum value allowed for the setting.\",\"min\":\"Minimum value allowed for the setting.\",\"name\":\"Keccak'ed name for the setting.\",\"value\":\"Initial value for the setting.\"}},\"getPlatformSetting(bytes32)\":{\"params\":{\"name\":\"The keccak'ed name for a setting.\"},\"returns\":{\"setting_\":\"Values for the setting {name}\"}},\"updatePlatformSetting(bytes32,uint256)\":{\"params\":{\"name\":\"Keccak'ed name for the setting.\",\"newValue\":\"the new value to set in the platform setting. Requirements:  - New value is equal to the current value.  - New value is grater than the max value.  - New value is less than the min value\"}},\"updatePlatformSettingBoundaries(bytes32,uint256,uint256)\":{\"params\":{\"max\":\"New maximum boundary for the setting.\",\"min\":\"New minimum boundary for the setting.\",\"name\":\"Keccak'ed name for the setting.\"}}},\"version\":1},\"userdoc\":{\"events\":{\"PlatformSettingBoundariesUpdated(bytes32,address,uint256,uint256,uint256,uint256)\":{\"notice\":\"This event is emitted when a current platform setting is removed.\"},\"PlatformSettingCreated(bytes32,address,uint256,uint256,uint256)\":{\"notice\":\"This event is emitted when a new platform setting is created.\"},\"PlatformSettingUpdated(bytes32,address,uint256,uint256)\":{\"notice\":\"This event is emitted when a platform setting is updated.\"}},\"kind\":\"user\",\"methods\":{\"createPlatformSetting(bytes32,uint256,uint256,uint256)\":{\"notice\":\"It creates a new platform setting given a name, min and max values.\"},\"getPlatformSetting(bytes32)\":{\"notice\":\"Gets the values for a platform setting name.\"},\"updatePlatformSetting(bytes32,uint256)\":{\"notice\":\"It updates a current platform setting.\"},\"updatePlatformSettingBoundaries(bytes32,uint256,uint256)\":{\"notice\":\"Updates the boundary (min & max) values for a platform setting.\"}},\"notice\":\"Utility library of inline functions on the PlatformSetting struct.\",\"version\":1}},\"settings\":{\"compilationTarget\":{\"contracts/settings/platform/PlatformSettingsFacet.sol\":\"PlatformSettingsFacet\"},\"evmVersion\":\"istanbul\",\"libraries\":{},\"metadata\":{\"bytecodeHash\":\"ipfs\",\"useLiteralContent\":true},\"optimizer\":{\"enabled\":true,\"runs\":200},\"remappings\":[]},\"sources\":{\"@openzeppelin/contracts-upgradeable/access/AccessControlUpgradeable.sol\":{\"content\":\"// SPDX-License-Identifier: MIT\\n\\npragma solidity ^0.8.0;\\n\\nimport \\\"../utils/ContextUpgradeable.sol\\\";\\nimport \\\"../utils/StringsUpgradeable.sol\\\";\\nimport \\\"../utils/introspection/ERC165Upgradeable.sol\\\";\\nimport \\\"../proxy/utils/Initializable.sol\\\";\\n\\n/**\\n * @dev External interface of AccessControl declared to support ERC165 detection.\\n */\\ninterface IAccessControlUpgradeable {\\n    function hasRole(bytes32 role, address account) external view returns (bool);\\n    function getRoleAdmin(bytes32 role) external view returns (bytes32);\\n    function grantRole(bytes32 role, address account) external;\\n    function revokeRole(bytes32 role, address account) external;\\n    function renounceRole(bytes32 role, address account) external;\\n}\\n\\n/**\\n * @dev Contract module that allows children to implement role-based access\\n * control mechanisms. This is a lightweight version that doesn't allow enumerating role\\n * members except through off-chain means by accessing the contract event logs. Some\\n * applications may benefit from on-chain enumerability, for those cases see\\n * {AccessControlEnumerable}.\\n *\\n * Roles are referred to by their `bytes32` identifier. These should be exposed\\n * in the external API and be unique. The best way to achieve this is by\\n * using `public constant` hash digests:\\n *\\n * ```\\n * bytes32 public constant MY_ROLE = keccak256(\\\"MY_ROLE\\\");\\n * ```\\n *\\n * Roles can be used to represent a set of permissions. To restrict access to a\\n * function call, use {hasRole}:\\n *\\n * ```\\n * function foo() public {\\n *     require(hasRole(MY_ROLE, msg.sender));\\n *     ...\\n * }\\n * ```\\n *\\n * Roles can be granted and revoked dynamically via the {grantRole} and\\n * {revokeRole} functions. Each role has an associated admin role, and only\\n * accounts that have a role's admin role can call {grantRole} and {revokeRole}.\\n *\\n * By default, the admin role for all roles is `DEFAULT_ADMIN_ROLE`, which means\\n * that only accounts with this role will be able to grant or revoke other\\n * roles. More complex role relationships can be created by using\\n * {_setRoleAdmin}.\\n *\\n * WARNING: The `DEFAULT_ADMIN_ROLE` is also its own admin: it has permission to\\n * grant and revoke this role. Extra precautions should be taken to secure\\n * accounts that have been granted it.\\n */\\nabstract contract AccessControlUpgradeable is Initializable, ContextUpgradeable, IAccessControlUpgradeable, ERC165Upgradeable {\\n    function __AccessControl_init() internal initializer {\\n        __Context_init_unchained();\\n        __ERC165_init_unchained();\\n        __AccessControl_init_unchained();\\n    }\\n\\n    function __AccessControl_init_unchained() internal initializer {\\n    }\\n    struct RoleData {\\n        mapping (address => bool) members;\\n        bytes32 adminRole;\\n    }\\n\\n    mapping (bytes32 => RoleData) private _roles;\\n\\n    bytes32 public constant DEFAULT_ADMIN_ROLE = 0x00;\\n\\n    /**\\n     * @dev Emitted when `newAdminRole` is set as ``role``'s admin role, replacing `previousAdminRole`\\n     *\\n     * `DEFAULT_ADMIN_ROLE` is the starting admin for all roles, despite\\n     * {RoleAdminChanged} not being emitted signaling this.\\n     *\\n     * _Available since v3.1._\\n     */\\n    event RoleAdminChanged(bytes32 indexed role, bytes32 indexed previousAdminRole, bytes32 indexed newAdminRole);\\n\\n    /**\\n     * @dev Emitted when `account` is granted `role`.\\n     *\\n     * `sender` is the account that originated the contract call, an admin role\\n     * bearer except when using {_setupRole}.\\n     */\\n    event RoleGranted(bytes32 indexed role, address indexed account, address indexed sender);\\n\\n    /**\\n     * @dev Emitted when `account` is revoked `role`.\\n     *\\n     * `sender` is the account that originated the contract call:\\n     *   - if using `revokeRole`, it is the admin role bearer\\n     *   - if using `renounceRole`, it is the role bearer (i.e. `account`)\\n     */\\n    event RoleRevoked(bytes32 indexed role, address indexed account, address indexed sender);\\n\\n    /**\\n     * @dev Modifier that checks that an account has a specific role. Reverts\\n     * with a standardized message including the required role.\\n     *\\n     * The format of the revert reason is given by the following regular expression:\\n     *\\n     *  /^AccessControl: account (0x[0-9a-f]{20}) is missing role (0x[0-9a-f]{32})$/\\n     *\\n     * _Available since v4.1._\\n     */\\n    modifier onlyRole(bytes32 role) {\\n        _checkRole(role, _msgSender());\\n        _;\\n    }\\n\\n    /**\\n     * @dev See {IERC165-supportsInterface}.\\n     */\\n    function supportsInterface(bytes4 interfaceId) public view virtual override returns (bool) {\\n        return interfaceId == type(IAccessControlUpgradeable).interfaceId\\n            || super.supportsInterface(interfaceId);\\n    }\\n\\n    /**\\n     * @dev Returns `true` if `account` has been granted `role`.\\n     */\\n    function hasRole(bytes32 role, address account) public view override returns (bool) {\\n        return _roles[role].members[account];\\n    }\\n\\n    /**\\n     * @dev Revert with a standard message if `account` is missing `role`.\\n     *\\n     * The format of the revert reason is given by the following regular expression:\\n     *\\n     *  /^AccessControl: account (0x[0-9a-f]{20}) is missing role (0x[0-9a-f]{32})$/\\n     */\\n    function _checkRole(bytes32 role, address account) internal view {\\n        if(!hasRole(role, account)) {\\n            revert(string(abi.encodePacked(\\n                \\\"AccessControl: account \\\",\\n                StringsUpgradeable.toHexString(uint160(account), 20),\\n                \\\" is missing role \\\",\\n                StringsUpgradeable.toHexString(uint256(role), 32)\\n            )));\\n        }\\n    }\\n\\n    /**\\n     * @dev Returns the admin role that controls `role`. See {grantRole} and\\n     * {revokeRole}.\\n     *\\n     * To change a role's admin, use {_setRoleAdmin}.\\n     */\\n    function getRoleAdmin(bytes32 role) public view override returns (bytes32) {\\n        return _roles[role].adminRole;\\n    }\\n\\n    /**\\n     * @dev Grants `role` to `account`.\\n     *\\n     * If `account` had not been already granted `role`, emits a {RoleGranted}\\n     * event.\\n     *\\n     * Requirements:\\n     *\\n     * - the caller must have ``role``'s admin role.\\n     */\\n    function grantRole(bytes32 role, address account) public virtual override onlyRole(getRoleAdmin(role)) {\\n        _grantRole(role, account);\\n    }\\n\\n    /**\\n     * @dev Revokes `role` from `account`.\\n     *\\n     * If `account` had been granted `role`, emits a {RoleRevoked} event.\\n     *\\n     * Requirements:\\n     *\\n     * - the caller must have ``role``'s admin role.\\n     */\\n    function revokeRole(bytes32 role, address account) public virtual override onlyRole(getRoleAdmin(role)) {\\n        _revokeRole(role, account);\\n    }\\n\\n    /**\\n     * @dev Revokes `role` from the calling account.\\n     *\\n     * Roles are often managed via {grantRole} and {revokeRole}: this function's\\n     * purpose is to provide a mechanism for accounts to lose their privileges\\n     * if they are compromised (such as when a trusted device is misplaced).\\n     *\\n     * If the calling account had been granted `role`, emits a {RoleRevoked}\\n     * event.\\n     *\\n     * Requirements:\\n     *\\n     * - the caller must be `account`.\\n     */\\n    function renounceRole(bytes32 role, address account) public virtual override {\\n        require(account == _msgSender(), \\\"AccessControl: can only renounce roles for self\\\");\\n\\n        _revokeRole(role, account);\\n    }\\n\\n    /**\\n     * @dev Grants `role` to `account`.\\n     *\\n     * If `account` had not been already granted `role`, emits a {RoleGranted}\\n     * event. Note that unlike {grantRole}, this function doesn't perform any\\n     * checks on the calling account.\\n     *\\n     * [WARNING]\\n     * ====\\n     * This function should only be called from the constructor when setting\\n     * up the initial roles for the system.\\n     *\\n     * Using this function in any other way is effectively circumventing the admin\\n     * system imposed by {AccessControl}.\\n     * ====\\n     */\\n    function _setupRole(bytes32 role, address account) internal virtual {\\n        _grantRole(role, account);\\n    }\\n\\n    /**\\n     * @dev Sets `adminRole` as ``role``'s admin role.\\n     *\\n     * Emits a {RoleAdminChanged} event.\\n     */\\n    function _setRoleAdmin(bytes32 role, bytes32 adminRole) internal virtual {\\n        emit RoleAdminChanged(role, getRoleAdmin(role), adminRole);\\n        _roles[role].adminRole = adminRole;\\n    }\\n\\n    function _grantRole(bytes32 role, address account) private {\\n        if (!hasRole(role, account)) {\\n            _roles[role].members[account] = true;\\n            emit RoleGranted(role, account, _msgSender());\\n        }\\n    }\\n\\n    function _revokeRole(bytes32 role, address account) private {\\n        if (hasRole(role, account)) {\\n            _roles[role].members[account] = false;\\n            emit RoleRevoked(role, account, _msgSender());\\n        }\\n    }\\n    uint256[49] private __gap;\\n}\\n\",\"keccak256\":\"0x719f71989e630280a6902f857ef2b038d761ef2d0d51611f9da463be6c7c4be5\",\"license\":\"MIT\"},\"@openzeppelin/contracts-upgradeable/proxy/utils/Initializable.sol\":{\"content\":\"// SPDX-License-Identifier: MIT\\n\\n// solhint-disable-next-line compiler-version\\npragma solidity ^0.8.0;\\n\\n/**\\n * @dev This is a base contract to aid in writing upgradeable contracts, or any kind of contract that will be deployed\\n * behind a proxy. Since a proxied contract can't have a constructor, it's common to move constructor logic to an\\n * external initializer function, usually called `initialize`. It then becomes necessary to protect this initializer\\n * function so it can only be called once. The {initializer} modifier provided by this contract will have this effect.\\n *\\n * TIP: To avoid leaving the proxy in an uninitialized state, the initializer function should be called as early as\\n * possible by providing the encoded function call as the `_data` argument to {ERC1967Proxy-constructor}.\\n *\\n * CAUTION: When used with inheritance, manual care must be taken to not invoke a parent initializer twice, or to ensure\\n * that all initializers are idempotent. This is not verified automatically as constructors are by Solidity.\\n */\\nabstract contract Initializable {\\n\\n    /**\\n     * @dev Indicates that the contract has been initialized.\\n     */\\n    bool private _initialized;\\n\\n    /**\\n     * @dev Indicates that the contract is in the process of being initialized.\\n     */\\n    bool private _initializing;\\n\\n    /**\\n     * @dev Modifier to protect an initializer function from being invoked twice.\\n     */\\n    modifier initializer() {\\n        require(_initializing || !_initialized, \\\"Initializable: contract is already initialized\\\");\\n\\n        bool isTopLevelCall = !_initializing;\\n        if (isTopLevelCall) {\\n            _initializing = true;\\n            _initialized = true;\\n        }\\n\\n        _;\\n\\n        if (isTopLevelCall) {\\n            _initializing = false;\\n        }\\n    }\\n}\\n\",\"keccak256\":\"0x67d2f282a9678e58e878a0b774041ba7a01e2740a262aea97a3f681339914713\",\"license\":\"MIT\"},\"@openzeppelin/contracts-upgradeable/token/ERC721/ERC721Upgradeable.sol\":{\"content\":\"// SPDX-License-Identifier: MIT\\n\\npragma solidity ^0.8.0;\\n\\nimport \\\"./IERC721Upgradeable.sol\\\";\\nimport \\\"./IERC721ReceiverUpgradeable.sol\\\";\\nimport \\\"./extensions/IERC721MetadataUpgradeable.sol\\\";\\nimport \\\"../../utils/AddressUpgradeable.sol\\\";\\nimport \\\"../../utils/ContextUpgradeable.sol\\\";\\nimport \\\"../../utils/StringsUpgradeable.sol\\\";\\nimport \\\"../../utils/introspection/ERC165Upgradeable.sol\\\";\\nimport \\\"../../proxy/utils/Initializable.sol\\\";\\n\\n/**\\n * @dev Implementation of https://eips.ethereum.org/EIPS/eip-721[ERC721] Non-Fungible Token Standard, including\\n * the Metadata extension, but not including the Enumerable extension, which is available separately as\\n * {ERC721Enumerable}.\\n */\\ncontract ERC721Upgradeable is Initializable, ContextUpgradeable, ERC165Upgradeable, IERC721Upgradeable, IERC721MetadataUpgradeable {\\n    using AddressUpgradeable for address;\\n    using StringsUpgradeable for uint256;\\n\\n    // Token name\\n    string private _name;\\n\\n    // Token symbol\\n    string private _symbol;\\n\\n    // Mapping from token ID to owner address\\n    mapping (uint256 => address) private _owners;\\n\\n    // Mapping owner address to token count\\n    mapping (address => uint256) private _balances;\\n\\n    // Mapping from token ID to approved address\\n    mapping (uint256 => address) private _tokenApprovals;\\n\\n    // Mapping from owner to operator approvals\\n    mapping (address => mapping (address => bool)) private _operatorApprovals;\\n\\n    /**\\n     * @dev Initializes the contract by setting a `name` and a `symbol` to the token collection.\\n     */\\n    function __ERC721_init(string memory name_, string memory symbol_) internal initializer {\\n        __Context_init_unchained();\\n        __ERC165_init_unchained();\\n        __ERC721_init_unchained(name_, symbol_);\\n    }\\n\\n    function __ERC721_init_unchained(string memory name_, string memory symbol_) internal initializer {\\n        _name = name_;\\n        _symbol = symbol_;\\n    }\\n\\n    /**\\n     * @dev See {IERC165-supportsInterface}.\\n     */\\n    function supportsInterface(bytes4 interfaceId) public view virtual override(ERC165Upgradeable, IERC165Upgradeable) returns (bool) {\\n        return interfaceId == type(IERC721Upgradeable).interfaceId\\n            || interfaceId == type(IERC721MetadataUpgradeable).interfaceId\\n            || super.supportsInterface(interfaceId);\\n    }\\n\\n    /**\\n     * @dev See {IERC721-balanceOf}.\\n     */\\n    function balanceOf(address owner) public view virtual override returns (uint256) {\\n        require(owner != address(0), \\\"ERC721: balance query for the zero address\\\");\\n        return _balances[owner];\\n    }\\n\\n    /**\\n     * @dev See {IERC721-ownerOf}.\\n     */\\n    function ownerOf(uint256 tokenId) public view virtual override returns (address) {\\n        address owner = _owners[tokenId];\\n        require(owner != address(0), \\\"ERC721: owner query for nonexistent token\\\");\\n        return owner;\\n    }\\n\\n    /**\\n     * @dev See {IERC721Metadata-name}.\\n     */\\n    function name() public view virtual override returns (string memory) {\\n        return _name;\\n    }\\n\\n    /**\\n     * @dev See {IERC721Metadata-symbol}.\\n     */\\n    function symbol() public view virtual override returns (string memory) {\\n        return _symbol;\\n    }\\n\\n    /**\\n     * @dev See {IERC721Metadata-tokenURI}.\\n     */\\n    function tokenURI(uint256 tokenId) public view virtual override returns (string memory) {\\n        require(_exists(tokenId), \\\"ERC721Metadata: URI query for nonexistent token\\\");\\n\\n        string memory baseURI = _baseURI();\\n        return bytes(baseURI).length > 0\\n            ? string(abi.encodePacked(baseURI, tokenId.toString()))\\n            : '';\\n    }\\n\\n    /**\\n     * @dev Base URI for computing {tokenURI}. Empty by default, can be overriden\\n     * in child contracts.\\n     */\\n    function _baseURI() internal view virtual returns (string memory) {\\n        return \\\"\\\";\\n    }\\n\\n    /**\\n     * @dev See {IERC721-approve}.\\n     */\\n    function approve(address to, uint256 tokenId) public virtual override {\\n        address owner = ERC721Upgradeable.ownerOf(tokenId);\\n        require(to != owner, \\\"ERC721: approval to current owner\\\");\\n\\n        require(_msgSender() == owner || isApprovedForAll(owner, _msgSender()),\\n            \\\"ERC721: approve caller is not owner nor approved for all\\\"\\n        );\\n\\n        _approve(to, tokenId);\\n    }\\n\\n    /**\\n     * @dev See {IERC721-getApproved}.\\n     */\\n    function getApproved(uint256 tokenId) public view virtual override returns (address) {\\n        require(_exists(tokenId), \\\"ERC721: approved query for nonexistent token\\\");\\n\\n        return _tokenApprovals[tokenId];\\n    }\\n\\n    /**\\n     * @dev See {IERC721-setApprovalForAll}.\\n     */\\n    function setApprovalForAll(address operator, bool approved) public virtual override {\\n        require(operator != _msgSender(), \\\"ERC721: approve to caller\\\");\\n\\n        _operatorApprovals[_msgSender()][operator] = approved;\\n        emit ApprovalForAll(_msgSender(), operator, approved);\\n    }\\n\\n    /**\\n     * @dev See {IERC721-isApprovedForAll}.\\n     */\\n    function isApprovedForAll(address owner, address operator) public view virtual override returns (bool) {\\n        return _operatorApprovals[owner][operator];\\n    }\\n\\n    /**\\n     * @dev See {IERC721-transferFrom}.\\n     */\\n    function transferFrom(address from, address to, uint256 tokenId) public virtual override {\\n        //solhint-disable-next-line max-line-length\\n        require(_isApprovedOrOwner(_msgSender(), tokenId), \\\"ERC721: transfer caller is not owner nor approved\\\");\\n\\n        _transfer(from, to, tokenId);\\n    }\\n\\n    /**\\n     * @dev See {IERC721-safeTransferFrom}.\\n     */\\n    function safeTransferFrom(address from, address to, uint256 tokenId) public virtual override {\\n        safeTransferFrom(from, to, tokenId, \\\"\\\");\\n    }\\n\\n    /**\\n     * @dev See {IERC721-safeTransferFrom}.\\n     */\\n    function safeTransferFrom(address from, address to, uint256 tokenId, bytes memory _data) public virtual override {\\n        require(_isApprovedOrOwner(_msgSender(), tokenId), \\\"ERC721: transfer caller is not owner nor approved\\\");\\n        _safeTransfer(from, to, tokenId, _data);\\n    }\\n\\n    /**\\n     * @dev Safely transfers `tokenId` token from `from` to `to`, checking first that contract recipients\\n     * are aware of the ERC721 protocol to prevent tokens from being forever locked.\\n     *\\n     * `_data` is additional data, it has no specified format and it is sent in call to `to`.\\n     *\\n     * This internal function is equivalent to {safeTransferFrom}, and can be used to e.g.\\n     * implement alternative mechanisms to perform token transfer, such as signature-based.\\n     *\\n     * Requirements:\\n     *\\n     * - `from` cannot be the zero address.\\n     * - `to` cannot be the zero address.\\n     * - `tokenId` token must exist and be owned by `from`.\\n     * - If `to` refers to a smart contract, it must implement {IERC721Receiver-onERC721Received}, which is called upon a safe transfer.\\n     *\\n     * Emits a {Transfer} event.\\n     */\\n    function _safeTransfer(address from, address to, uint256 tokenId, bytes memory _data) internal virtual {\\n        _transfer(from, to, tokenId);\\n        require(_checkOnERC721Received(from, to, tokenId, _data), \\\"ERC721: transfer to non ERC721Receiver implementer\\\");\\n    }\\n\\n    /**\\n     * @dev Returns whether `tokenId` exists.\\n     *\\n     * Tokens can be managed by their owner or approved accounts via {approve} or {setApprovalForAll}.\\n     *\\n     * Tokens start existing when they are minted (`_mint`),\\n     * and stop existing when they are burned (`_burn`).\\n     */\\n    function _exists(uint256 tokenId) internal view virtual returns (bool) {\\n        return _owners[tokenId] != address(0);\\n    }\\n\\n    /**\\n     * @dev Returns whether `spender` is allowed to manage `tokenId`.\\n     *\\n     * Requirements:\\n     *\\n     * - `tokenId` must exist.\\n     */\\n    function _isApprovedOrOwner(address spender, uint256 tokenId) internal view virtual returns (bool) {\\n        require(_exists(tokenId), \\\"ERC721: operator query for nonexistent token\\\");\\n        address owner = ERC721Upgradeable.ownerOf(tokenId);\\n        return (spender == owner || getApproved(tokenId) == spender || isApprovedForAll(owner, spender));\\n    }\\n\\n    /**\\n     * @dev Safely mints `tokenId` and transfers it to `to`.\\n     *\\n     * Requirements:\\n     *\\n     * - `tokenId` must not exist.\\n     * - If `to` refers to a smart contract, it must implement {IERC721Receiver-onERC721Received}, which is called upon a safe transfer.\\n     *\\n     * Emits a {Transfer} event.\\n     */\\n    function _safeMint(address to, uint256 tokenId) internal virtual {\\n        _safeMint(to, tokenId, \\\"\\\");\\n    }\\n\\n    /**\\n     * @dev Same as {xref-ERC721-_safeMint-address-uint256-}[`_safeMint`], with an additional `data` parameter which is\\n     * forwarded in {IERC721Receiver-onERC721Received} to contract recipients.\\n     */\\n    function _safeMint(address to, uint256 tokenId, bytes memory _data) internal virtual {\\n        _mint(to, tokenId);\\n        require(_checkOnERC721Received(address(0), to, tokenId, _data), \\\"ERC721: transfer to non ERC721Receiver implementer\\\");\\n    }\\n\\n    /**\\n     * @dev Mints `tokenId` and transfers it to `to`.\\n     *\\n     * WARNING: Usage of this method is discouraged, use {_safeMint} whenever possible\\n     *\\n     * Requirements:\\n     *\\n     * - `tokenId` must not exist.\\n     * - `to` cannot be the zero address.\\n     *\\n     * Emits a {Transfer} event.\\n     */\\n    function _mint(address to, uint256 tokenId) internal virtual {\\n        require(to != address(0), \\\"ERC721: mint to the zero address\\\");\\n        require(!_exists(tokenId), \\\"ERC721: token already minted\\\");\\n\\n        _beforeTokenTransfer(address(0), to, tokenId);\\n\\n        _balances[to] += 1;\\n        _owners[tokenId] = to;\\n\\n        emit Transfer(address(0), to, tokenId);\\n    }\\n\\n    /**\\n     * @dev Destroys `tokenId`.\\n     * The approval is cleared when the token is burned.\\n     *\\n     * Requirements:\\n     *\\n     * - `tokenId` must exist.\\n     *\\n     * Emits a {Transfer} event.\\n     */\\n    function _burn(uint256 tokenId) internal virtual {\\n        address owner = ERC721Upgradeable.ownerOf(tokenId);\\n\\n        _beforeTokenTransfer(owner, address(0), tokenId);\\n\\n        // Clear approvals\\n        _approve(address(0), tokenId);\\n\\n        _balances[owner] -= 1;\\n        delete _owners[tokenId];\\n\\n        emit Transfer(owner, address(0), tokenId);\\n    }\\n\\n    /**\\n     * @dev Transfers `tokenId` from `from` to `to`.\\n     *  As opposed to {transferFrom}, this imposes no restrictions on msg.sender.\\n     *\\n     * Requirements:\\n     *\\n     * - `to` cannot be the zero address.\\n     * - `tokenId` token must be owned by `from`.\\n     *\\n     * Emits a {Transfer} event.\\n     */\\n    function _transfer(address from, address to, uint256 tokenId) internal virtual {\\n        require(ERC721Upgradeable.ownerOf(tokenId) == from, \\\"ERC721: transfer of token that is not own\\\");\\n        require(to != address(0), \\\"ERC721: transfer to the zero address\\\");\\n\\n        _beforeTokenTransfer(from, to, tokenId);\\n\\n        // Clear approvals from the previous owner\\n        _approve(address(0), tokenId);\\n\\n        _balances[from] -= 1;\\n        _balances[to] += 1;\\n        _owners[tokenId] = to;\\n\\n        emit Transfer(from, to, tokenId);\\n    }\\n\\n    /**\\n     * @dev Approve `to` to operate on `tokenId`\\n     *\\n     * Emits a {Approval} event.\\n     */\\n    function _approve(address to, uint256 tokenId) internal virtual {\\n        _tokenApprovals[tokenId] = to;\\n        emit Approval(ERC721Upgradeable.ownerOf(tokenId), to, tokenId);\\n    }\\n\\n    /**\\n     * @dev Internal function to invoke {IERC721Receiver-onERC721Received} on a target address.\\n     * The call is not executed if the target address is not a contract.\\n     *\\n     * @param from address representing the previous owner of the given token ID\\n     * @param to target address that will receive the tokens\\n     * @param tokenId uint256 ID of the token to be transferred\\n     * @param _data bytes optional data to send along with the call\\n     * @return bool whether the call correctly returned the expected magic value\\n     */\\n    function _checkOnERC721Received(address from, address to, uint256 tokenId, bytes memory _data)\\n        private returns (bool)\\n    {\\n        if (to.isContract()) {\\n            try IERC721ReceiverUpgradeable(to).onERC721Received(_msgSender(), from, tokenId, _data) returns (bytes4 retval) {\\n                return retval == IERC721ReceiverUpgradeable(to).onERC721Received.selector;\\n            } catch (bytes memory reason) {\\n                if (reason.length == 0) {\\n                    revert(\\\"ERC721: transfer to non ERC721Receiver implementer\\\");\\n                } else {\\n                    // solhint-disable-next-line no-inline-assembly\\n                    assembly {\\n                        revert(add(32, reason), mload(reason))\\n                    }\\n                }\\n            }\\n        } else {\\n            return true;\\n        }\\n    }\\n\\n    /**\\n     * @dev Hook that is called before any token transfer. This includes minting\\n     * and burning.\\n     *\\n     * Calling conditions:\\n     *\\n     * - When `from` and `to` are both non-zero, ``from``'s `tokenId` will be\\n     * transferred to `to`.\\n     * - When `from` is zero, `tokenId` will be minted for `to`.\\n     * - When `to` is zero, ``from``'s `tokenId` will be burned.\\n     * - `from` cannot be the zero address.\\n     * - `to` cannot be the zero address.\\n     *\\n     * To learn more about hooks, head to xref:ROOT:extending-contracts.adoc#using-hooks[Using Hooks].\\n     */\\n    function _beforeTokenTransfer(address from, address to, uint256 tokenId) internal virtual { }\\n    uint256[44] private __gap;\\n}\\n\",\"keccak256\":\"0x2ab92ebd3f4d4d85f30b39bd678ec3489e00aadd0a432c7a0ffa98adc2799004\",\"license\":\"MIT\"},\"@openzeppelin/contracts-upgradeable/token/ERC721/IERC721ReceiverUpgradeable.sol\":{\"content\":\"// SPDX-License-Identifier: MIT\\n\\npragma solidity ^0.8.0;\\n\\n/**\\n * @title ERC721 token receiver interface\\n * @dev Interface for any contract that wants to support safeTransfers\\n * from ERC721 asset contracts.\\n */\\ninterface IERC721ReceiverUpgradeable {\\n    /**\\n     * @dev Whenever an {IERC721} `tokenId` token is transferred to this contract via {IERC721-safeTransferFrom}\\n     * by `operator` from `from`, this function is called.\\n     *\\n     * It must return its Solidity selector to confirm the token transfer.\\n     * If any other value is returned or the interface is not implemented by the recipient, the transfer will be reverted.\\n     *\\n     * The selector can be obtained in Solidity with `IERC721.onERC721Received.selector`.\\n     */\\n    function onERC721Received(address operator, address from, uint256 tokenId, bytes calldata data) external returns (bytes4);\\n}\\n\",\"keccak256\":\"0x33620beff0655c5e728a72fff76fb6ce2dc32fc6b61eb8e435b12ed1adf31525\",\"license\":\"MIT\"},\"@openzeppelin/contracts-upgradeable/token/ERC721/IERC721Upgradeable.sol\":{\"content\":\"// SPDX-License-Identifier: MIT\\n\\npragma solidity ^0.8.0;\\n\\nimport \\\"../../utils/introspection/IERC165Upgradeable.sol\\\";\\n\\n/**\\n * @dev Required interface of an ERC721 compliant contract.\\n */\\ninterface IERC721Upgradeable is IERC165Upgradeable {\\n    /**\\n     * @dev Emitted when `tokenId` token is transferred from `from` to `to`.\\n     */\\n    event Transfer(address indexed from, address indexed to, uint256 indexed tokenId);\\n\\n    /**\\n     * @dev Emitted when `owner` enables `approved` to manage the `tokenId` token.\\n     */\\n    event Approval(address indexed owner, address indexed approved, uint256 indexed tokenId);\\n\\n    /**\\n     * @dev Emitted when `owner` enables or disables (`approved`) `operator` to manage all of its assets.\\n     */\\n    event ApprovalForAll(address indexed owner, address indexed operator, bool approved);\\n\\n    /**\\n     * @dev Returns the number of tokens in ``owner``'s account.\\n     */\\n    function balanceOf(address owner) external view returns (uint256 balance);\\n\\n    /**\\n     * @dev Returns the owner of the `tokenId` token.\\n     *\\n     * Requirements:\\n     *\\n     * - `tokenId` must exist.\\n     */\\n    function ownerOf(uint256 tokenId) external view returns (address owner);\\n\\n    /**\\n     * @dev Safely transfers `tokenId` token from `from` to `to`, checking first that contract recipients\\n     * are aware of the ERC721 protocol to prevent tokens from being forever locked.\\n     *\\n     * Requirements:\\n     *\\n     * - `from` cannot be the zero address.\\n     * - `to` cannot be the zero address.\\n     * - `tokenId` token must exist and be owned by `from`.\\n     * - If the caller is not `from`, it must be have been allowed to move this token by either {approve} or {setApprovalForAll}.\\n     * - If `to` refers to a smart contract, it must implement {IERC721Receiver-onERC721Received}, which is called upon a safe transfer.\\n     *\\n     * Emits a {Transfer} event.\\n     */\\n    function safeTransferFrom(address from, address to, uint256 tokenId) external;\\n\\n    /**\\n     * @dev Transfers `tokenId` token from `from` to `to`.\\n     *\\n     * WARNING: Usage of this method is discouraged, use {safeTransferFrom} whenever possible.\\n     *\\n     * Requirements:\\n     *\\n     * - `from` cannot be the zero address.\\n     * - `to` cannot be the zero address.\\n     * - `tokenId` token must be owned by `from`.\\n     * - If the caller is not `from`, it must be approved to move this token by either {approve} or {setApprovalForAll}.\\n     *\\n     * Emits a {Transfer} event.\\n     */\\n    function transferFrom(address from, address to, uint256 tokenId) external;\\n\\n    /**\\n     * @dev Gives permission to `to` to transfer `tokenId` token to another account.\\n     * The approval is cleared when the token is transferred.\\n     *\\n     * Only a single account can be approved at a time, so approving the zero address clears previous approvals.\\n     *\\n     * Requirements:\\n     *\\n     * - The caller must own the token or be an approved operator.\\n     * - `tokenId` must exist.\\n     *\\n     * Emits an {Approval} event.\\n     */\\n    function approve(address to, uint256 tokenId) external;\\n\\n    /**\\n     * @dev Returns the account approved for `tokenId` token.\\n     *\\n     * Requirements:\\n     *\\n     * - `tokenId` must exist.\\n     */\\n    function getApproved(uint256 tokenId) external view returns (address operator);\\n\\n    /**\\n     * @dev Approve or remove `operator` as an operator for the caller.\\n     * Operators can call {transferFrom} or {safeTransferFrom} for any token owned by the caller.\\n     *\\n     * Requirements:\\n     *\\n     * - The `operator` cannot be the caller.\\n     *\\n     * Emits an {ApprovalForAll} event.\\n     */\\n    function setApprovalForAll(address operator, bool _approved) external;\\n\\n    /**\\n     * @dev Returns if the `operator` is allowed to manage all of the assets of `owner`.\\n     *\\n     * See {setApprovalForAll}\\n     */\\n    function isApprovedForAll(address owner, address operator) external view returns (bool);\\n\\n    /**\\n      * @dev Safely transfers `tokenId` token from `from` to `to`.\\n      *\\n      * Requirements:\\n      *\\n      * - `from` cannot be the zero address.\\n      * - `to` cannot be the zero address.\\n      * - `tokenId` token must exist and be owned by `from`.\\n      * - If the caller is not `from`, it must be approved to move this token by either {approve} or {setApprovalForAll}.\\n      * - If `to` refers to a smart contract, it must implement {IERC721Receiver-onERC721Received}, which is called upon a safe transfer.\\n      *\\n      * Emits a {Transfer} event.\\n      */\\n    function safeTransferFrom(address from, address to, uint256 tokenId, bytes calldata data) external;\\n}\\n\",\"keccak256\":\"0x9ef7f2874f4a491f253a81eb4c5b9a7b6467a287aa0c32ac3dd684260a3cd7ad\",\"license\":\"MIT\"},\"@openzeppelin/contracts-upgradeable/token/ERC721/extensions/IERC721MetadataUpgradeable.sol\":{\"content\":\"// SPDX-License-Identifier: MIT\\n\\npragma solidity ^0.8.0;\\n\\nimport \\\"../IERC721Upgradeable.sol\\\";\\n\\n/**\\n * @title ERC-721 Non-Fungible Token Standard, optional metadata extension\\n * @dev See https://eips.ethereum.org/EIPS/eip-721\\n */\\ninterface IERC721MetadataUpgradeable is IERC721Upgradeable {\\n\\n    /**\\n     * @dev Returns the token collection name.\\n     */\\n    function name() external view returns (string memory);\\n\\n    /**\\n     * @dev Returns the token collection symbol.\\n     */\\n    function symbol() external view returns (string memory);\\n\\n    /**\\n     * @dev Returns the Uniform Resource Identifier (URI) for `tokenId` token.\\n     */\\n    function tokenURI(uint256 tokenId) external view returns (string memory);\\n}\\n\",\"keccak256\":\"0x64581a092c059ab0cb74f473545e379b8a88f36a6a57f805515ef8c6ae061847\",\"license\":\"MIT\"},\"@openzeppelin/contracts-upgradeable/utils/AddressUpgradeable.sol\":{\"content\":\"// SPDX-License-Identifier: MIT\\n\\npragma solidity ^0.8.0;\\n\\n/**\\n * @dev Collection of functions related to the address type\\n */\\nlibrary AddressUpgradeable {\\n    /**\\n     * @dev Returns true if `account` is a contract.\\n     *\\n     * [IMPORTANT]\\n     * ====\\n     * It is unsafe to assume that an address for which this function returns\\n     * false is an externally-owned account (EOA) and not a contract.\\n     *\\n     * Among others, `isContract` will return false for the following\\n     * types of addresses:\\n     *\\n     *  - an externally-owned account\\n     *  - a contract in construction\\n     *  - an address where a contract will be created\\n     *  - an address where a contract lived, but was destroyed\\n     * ====\\n     */\\n    function isContract(address account) internal view returns (bool) {\\n        // This method relies on extcodesize, which returns 0 for contracts in\\n        // construction, since the code is only stored at the end of the\\n        // constructor execution.\\n\\n        uint256 size;\\n        // solhint-disable-next-line no-inline-assembly\\n        assembly { size := extcodesize(account) }\\n        return size > 0;\\n    }\\n\\n    /**\\n     * @dev Replacement for Solidity's `transfer`: sends `amount` wei to\\n     * `recipient`, forwarding all available gas and reverting on errors.\\n     *\\n     * https://eips.ethereum.org/EIPS/eip-1884[EIP1884] increases the gas cost\\n     * of certain opcodes, possibly making contracts go over the 2300 gas limit\\n     * imposed by `transfer`, making them unable to receive funds via\\n     * `transfer`. {sendValue} removes this limitation.\\n     *\\n     * https://diligence.consensys.net/posts/2019/09/stop-using-soliditys-transfer-now/[Learn more].\\n     *\\n     * IMPORTANT: because control is transferred to `recipient`, care must be\\n     * taken to not create reentrancy vulnerabilities. Consider using\\n     * {ReentrancyGuard} or the\\n     * https://solidity.readthedocs.io/en/v0.5.11/security-considerations.html#use-the-checks-effects-interactions-pattern[checks-effects-interactions pattern].\\n     */\\n    function sendValue(address payable recipient, uint256 amount) internal {\\n        require(address(this).balance >= amount, \\\"Address: insufficient balance\\\");\\n\\n        // solhint-disable-next-line avoid-low-level-calls, avoid-call-value\\n        (bool success, ) = recipient.call{ value: amount }(\\\"\\\");\\n        require(success, \\\"Address: unable to send value, recipient may have reverted\\\");\\n    }\\n\\n    /**\\n     * @dev Performs a Solidity function call using a low level `call`. A\\n     * plain`call` is an unsafe replacement for a function call: use this\\n     * function instead.\\n     *\\n     * If `target` reverts with a revert reason, it is bubbled up by this\\n     * function (like regular Solidity function calls).\\n     *\\n     * Returns the raw returned data. To convert to the expected return value,\\n     * use https://solidity.readthedocs.io/en/latest/units-and-global-variables.html?highlight=abi.decode#abi-encoding-and-decoding-functions[`abi.decode`].\\n     *\\n     * Requirements:\\n     *\\n     * - `target` must be a contract.\\n     * - calling `target` with `data` must not revert.\\n     *\\n     * _Available since v3.1._\\n     */\\n    function functionCall(address target, bytes memory data) internal returns (bytes memory) {\\n      return functionCall(target, data, \\\"Address: low-level call failed\\\");\\n    }\\n\\n    /**\\n     * @dev Same as {xref-Address-functionCall-address-bytes-}[`functionCall`], but with\\n     * `errorMessage` as a fallback revert reason when `target` reverts.\\n     *\\n     * _Available since v3.1._\\n     */\\n    function functionCall(address target, bytes memory data, string memory errorMessage) internal returns (bytes memory) {\\n        return functionCallWithValue(target, data, 0, errorMessage);\\n    }\\n\\n    /**\\n     * @dev Same as {xref-Address-functionCall-address-bytes-}[`functionCall`],\\n     * but also transferring `value` wei to `target`.\\n     *\\n     * Requirements:\\n     *\\n     * - the calling contract must have an ETH balance of at least `value`.\\n     * - the called Solidity function must be `payable`.\\n     *\\n     * _Available since v3.1._\\n     */\\n    function functionCallWithValue(address target, bytes memory data, uint256 value) internal returns (bytes memory) {\\n        return functionCallWithValue(target, data, value, \\\"Address: low-level call with value failed\\\");\\n    }\\n\\n    /**\\n     * @dev Same as {xref-Address-functionCallWithValue-address-bytes-uint256-}[`functionCallWithValue`], but\\n     * with `errorMessage` as a fallback revert reason when `target` reverts.\\n     *\\n     * _Available since v3.1._\\n     */\\n    function functionCallWithValue(address target, bytes memory data, uint256 value, string memory errorMessage) internal returns (bytes memory) {\\n        require(address(this).balance >= value, \\\"Address: insufficient balance for call\\\");\\n        require(isContract(target), \\\"Address: call to non-contract\\\");\\n\\n        // solhint-disable-next-line avoid-low-level-calls\\n        (bool success, bytes memory returndata) = target.call{ value: value }(data);\\n        return _verifyCallResult(success, returndata, errorMessage);\\n    }\\n\\n    /**\\n     * @dev Same as {xref-Address-functionCall-address-bytes-}[`functionCall`],\\n     * but performing a static call.\\n     *\\n     * _Available since v3.3._\\n     */\\n    function functionStaticCall(address target, bytes memory data) internal view returns (bytes memory) {\\n        return functionStaticCall(target, data, \\\"Address: low-level static call failed\\\");\\n    }\\n\\n    /**\\n     * @dev Same as {xref-Address-functionCall-address-bytes-string-}[`functionCall`],\\n     * but performing a static call.\\n     *\\n     * _Available since v3.3._\\n     */\\n    function functionStaticCall(address target, bytes memory data, string memory errorMessage) internal view returns (bytes memory) {\\n        require(isContract(target), \\\"Address: static call to non-contract\\\");\\n\\n        // solhint-disable-next-line avoid-low-level-calls\\n        (bool success, bytes memory returndata) = target.staticcall(data);\\n        return _verifyCallResult(success, returndata, errorMessage);\\n    }\\n\\n    function _verifyCallResult(bool success, bytes memory returndata, string memory errorMessage) private pure returns(bytes memory) {\\n        if (success) {\\n            return returndata;\\n        } else {\\n            // Look for revert reason and bubble it up if present\\n            if (returndata.length > 0) {\\n                // The easiest way to bubble the revert reason is using memory via assembly\\n\\n                // solhint-disable-next-line no-inline-assembly\\n                assembly {\\n                    let returndata_size := mload(returndata)\\n                    revert(add(32, returndata), returndata_size)\\n                }\\n            } else {\\n                revert(errorMessage);\\n            }\\n        }\\n    }\\n}\\n\",\"keccak256\":\"0x5642ae1d6b33c5c0b71a8412c6c64cbcf2468b84a002bee3e33cdb5644d25cdb\",\"license\":\"MIT\"},\"@openzeppelin/contracts-upgradeable/utils/ContextUpgradeable.sol\":{\"content\":\"// SPDX-License-Identifier: MIT\\n\\npragma solidity ^0.8.0;\\nimport \\\"../proxy/utils/Initializable.sol\\\";\\n\\n/*\\n * @dev Provides information about the current execution context, including the\\n * sender of the transaction and its data. While these are generally available\\n * via msg.sender and msg.data, they should not be accessed in such a direct\\n * manner, since when dealing with meta-transactions the account sending and\\n * paying for execution may not be the actual sender (as far as an application\\n * is concerned).\\n *\\n * This contract is only required for intermediate, library-like contracts.\\n */\\nabstract contract ContextUpgradeable is Initializable {\\n    function __Context_init() internal initializer {\\n        __Context_init_unchained();\\n    }\\n\\n    function __Context_init_unchained() internal initializer {\\n    }\\n    function _msgSender() internal view virtual returns (address) {\\n        return msg.sender;\\n    }\\n\\n    function _msgData() internal view virtual returns (bytes calldata) {\\n        this; // silence state mutability warning without generating bytecode - see https://github.com/ethereum/solidity/issues/2691\\n        return msg.data;\\n    }\\n    uint256[50] private __gap;\\n}\\n\",\"keccak256\":\"0x8e9eb503de1189f50c5f16fef327da310b11898d6b9ab3ca937df07c35233b9e\",\"license\":\"MIT\"},\"@openzeppelin/contracts-upgradeable/utils/StringsUpgradeable.sol\":{\"content\":\"// SPDX-License-Identifier: MIT\\n\\npragma solidity ^0.8.0;\\n\\n/**\\n * @dev String operations.\\n */\\nlibrary StringsUpgradeable {\\n    bytes16 private constant alphabet = \\\"0123456789abcdef\\\";\\n\\n    /**\\n     * @dev Converts a `uint256` to its ASCII `string` decimal representation.\\n     */\\n    function toString(uint256 value) internal pure returns (string memory) {\\n        // Inspired by OraclizeAPI's implementation - MIT licence\\n        // https://github.com/oraclize/ethereum-api/blob/b42146b063c7d6ee1358846c198246239e9360e8/oraclizeAPI_0.4.25.sol\\n\\n        if (value == 0) {\\n            return \\\"0\\\";\\n        }\\n        uint256 temp = value;\\n        uint256 digits;\\n        while (temp != 0) {\\n            digits++;\\n            temp /= 10;\\n        }\\n        bytes memory buffer = new bytes(digits);\\n        while (value != 0) {\\n            digits -= 1;\\n            buffer[digits] = bytes1(uint8(48 + uint256(value % 10)));\\n            value /= 10;\\n        }\\n        return string(buffer);\\n    }\\n\\n    /**\\n     * @dev Converts a `uint256` to its ASCII `string` hexadecimal representation.\\n     */\\n    function toHexString(uint256 value) internal pure returns (string memory) {\\n        if (value == 0) {\\n            return \\\"0x00\\\";\\n        }\\n        uint256 temp = value;\\n        uint256 length = 0;\\n        while (temp != 0) {\\n            length++;\\n            temp >>= 8;\\n        }\\n        return toHexString(value, length);\\n    }\\n\\n    /**\\n     * @dev Converts a `uint256` to its ASCII `string` hexadecimal representation with fixed length.\\n     */\\n    function toHexString(uint256 value, uint256 length) internal pure returns (string memory) {\\n        bytes memory buffer = new bytes(2 * length + 2);\\n        buffer[0] = \\\"0\\\";\\n        buffer[1] = \\\"x\\\";\\n        for (uint256 i = 2 * length + 1; i > 1; --i) {\\n            buffer[i] = alphabet[value & 0xf];\\n            value >>= 4;\\n        }\\n        require(value == 0, \\\"Strings: hex length insufficient\\\");\\n        return string(buffer);\\n    }\\n\\n}\\n\",\"keccak256\":\"0x6964377da5c19ade6b3e96bae0c0e82494d518af70cf12d2cdb3276f78fb3d85\",\"license\":\"MIT\"},\"@openzeppelin/contracts-upgradeable/utils/introspection/ERC165Upgradeable.sol\":{\"content\":\"// SPDX-License-Identifier: MIT\\n\\npragma solidity ^0.8.0;\\n\\nimport \\\"./IERC165Upgradeable.sol\\\";\\nimport \\\"../../proxy/utils/Initializable.sol\\\";\\n\\n/**\\n * @dev Implementation of the {IERC165} interface.\\n *\\n * Contracts that want to implement ERC165 should inherit from this contract and override {supportsInterface} to check\\n * for the additional interface id that will be supported. For example:\\n *\\n * ```solidity\\n * function supportsInterface(bytes4 interfaceId) public view virtual override returns (bool) {\\n *     return interfaceId == type(MyInterface).interfaceId || super.supportsInterface(interfaceId);\\n * }\\n * ```\\n *\\n * Alternatively, {ERC165Storage} provides an easier to use but more expensive implementation.\\n */\\nabstract contract ERC165Upgradeable is Initializable, IERC165Upgradeable {\\n    function __ERC165_init() internal initializer {\\n        __ERC165_init_unchained();\\n    }\\n\\n    function __ERC165_init_unchained() internal initializer {\\n    }\\n    /**\\n     * @dev See {IERC165-supportsInterface}.\\n     */\\n    function supportsInterface(bytes4 interfaceId) public view virtual override returns (bool) {\\n        return interfaceId == type(IERC165Upgradeable).interfaceId;\\n    }\\n    uint256[50] private __gap;\\n}\\n\",\"keccak256\":\"0x17c9c5d2d6b56527215ee7b3da6dde66b6f23f1b3d5c66cc436e753ef349a97a\",\"license\":\"MIT\"},\"@openzeppelin/contracts-upgradeable/utils/introspection/IERC165Upgradeable.sol\":{\"content\":\"// SPDX-License-Identifier: MIT\\n\\npragma solidity ^0.8.0;\\n\\n/**\\n * @dev Interface of the ERC165 standard, as defined in the\\n * https://eips.ethereum.org/EIPS/eip-165[EIP].\\n *\\n * Implementers can declare support of contract interfaces, which can then be\\n * queried by others ({ERC165Checker}).\\n *\\n * For an implementation, see {ERC165}.\\n */\\ninterface IERC165Upgradeable {\\n    /**\\n     * @dev Returns true if this contract implements the interface defined by\\n     * `interfaceId`. See the corresponding\\n     * https://eips.ethereum.org/EIPS/eip-165#how-interfaces-are-identified[EIP section]\\n     * to learn more about how these ids are created.\\n     *\\n     * This function call must use less than 30 000 gas.\\n     */\\n    function supportsInterface(bytes4 interfaceId) external view returns (bool);\\n}\\n\",\"keccak256\":\"0x1c4860acd323e34a67b3e97faab9aaa55fe8e92b1dcf08b5f47f3468d58ce75c\",\"license\":\"MIT\"},\"@openzeppelin/contracts/access/Ownable.sol\":{\"content\":\"// SPDX-License-Identifier: MIT\\n\\npragma solidity ^0.8.0;\\n\\nimport \\\"../utils/Context.sol\\\";\\n/**\\n * @dev Contract module which provides a basic access control mechanism, where\\n * there is an account (an owner) that can be granted exclusive access to\\n * specific functions.\\n *\\n * By default, the owner account will be the one that deploys the contract. This\\n * can later be changed with {transferOwnership}.\\n *\\n * This module is used through inheritance. It will make available the modifier\\n * `onlyOwner`, which can be applied to your functions to restrict their use to\\n * the owner.\\n */\\nabstract contract Ownable is Context {\\n    address private _owner;\\n\\n    event OwnershipTransferred(address indexed previousOwner, address indexed newOwner);\\n\\n    /**\\n     * @dev Initializes the contract setting the deployer as the initial owner.\\n     */\\n    constructor () {\\n        address msgSender = _msgSender();\\n        _owner = msgSender;\\n        emit OwnershipTransferred(address(0), msgSender);\\n    }\\n\\n    /**\\n     * @dev Returns the address of the current owner.\\n     */\\n    function owner() public view virtual returns (address) {\\n        return _owner;\\n    }\\n\\n    /**\\n     * @dev Throws if called by any account other than the owner.\\n     */\\n    modifier onlyOwner() {\\n        require(owner() == _msgSender(), \\\"Ownable: caller is not the owner\\\");\\n        _;\\n    }\\n\\n    /**\\n     * @dev Leaves the contract without owner. It will not be possible to call\\n     * `onlyOwner` functions anymore. Can only be called by the current owner.\\n     *\\n     * NOTE: Renouncing ownership will leave the contract without an owner,\\n     * thereby removing any functionality that is only available to the owner.\\n     */\\n    function renounceOwnership() public virtual onlyOwner {\\n        emit OwnershipTransferred(_owner, address(0));\\n        _owner = address(0);\\n    }\\n\\n    /**\\n     * @dev Transfers ownership of the contract to a new account (`newOwner`).\\n     * Can only be called by the current owner.\\n     */\\n    function transferOwnership(address newOwner) public virtual onlyOwner {\\n        require(newOwner != address(0), \\\"Ownable: new owner is the zero address\\\");\\n        emit OwnershipTransferred(_owner, newOwner);\\n        _owner = newOwner;\\n    }\\n}\\n\",\"keccak256\":\"0x1cae4f85f114ff17b90414f5da67365b1d00337abb5bce9bf944eb78a2c0673c\",\"license\":\"MIT\"},\"@openzeppelin/contracts/proxy/Clones.sol\":{\"content\":\"// SPDX-License-Identifier: MIT\\n\\npragma solidity ^0.8.0;\\n\\n/**\\n * @dev https://eips.ethereum.org/EIPS/eip-1167[EIP 1167] is a standard for\\n * deploying minimal proxy contracts, also known as \\\"clones\\\".\\n *\\n * > To simply and cheaply clone contract functionality in an immutable way, this standard specifies\\n * > a minimal bytecode implementation that delegates all calls to a known, fixed address.\\n *\\n * The library includes functions to deploy a proxy using either `create` (traditional deployment) or `create2`\\n * (salted deterministic deployment). It also includes functions to predict the addresses of clones deployed using the\\n * deterministic method.\\n *\\n * _Available since v3.4._\\n */\\nlibrary Clones {\\n    /**\\n     * @dev Deploys and returns the address of a clone that mimics the behaviour of `implementation`.\\n     *\\n     * This function uses the create opcode, which should never revert.\\n     */\\n    function clone(address implementation) internal returns (address instance) {\\n        // solhint-disable-next-line no-inline-assembly\\n        assembly {\\n            let ptr := mload(0x40)\\n            mstore(ptr, 0x3d602d80600a3d3981f3363d3d373d3d3d363d73000000000000000000000000)\\n            mstore(add(ptr, 0x14), shl(0x60, implementation))\\n            mstore(add(ptr, 0x28), 0x5af43d82803e903d91602b57fd5bf30000000000000000000000000000000000)\\n            instance := create(0, ptr, 0x37)\\n        }\\n        require(instance != address(0), \\\"ERC1167: create failed\\\");\\n    }\\n\\n    /**\\n     * @dev Deploys and returns the address of a clone that mimics the behaviour of `implementation`.\\n     *\\n     * This function uses the create2 opcode and a `salt` to deterministically deploy\\n     * the clone. Using the same `implementation` and `salt` multiple time will revert, since\\n     * the clones cannot be deployed twice at the same address.\\n     */\\n    function cloneDeterministic(address implementation, bytes32 salt) internal returns (address instance) {\\n        // solhint-disable-next-line no-inline-assembly\\n        assembly {\\n            let ptr := mload(0x40)\\n            mstore(ptr, 0x3d602d80600a3d3981f3363d3d373d3d3d363d73000000000000000000000000)\\n            mstore(add(ptr, 0x14), shl(0x60, implementation))\\n            mstore(add(ptr, 0x28), 0x5af43d82803e903d91602b57fd5bf30000000000000000000000000000000000)\\n            instance := create2(0, ptr, 0x37, salt)\\n        }\\n        require(instance != address(0), \\\"ERC1167: create2 failed\\\");\\n    }\\n\\n    /**\\n     * @dev Computes the address of a clone deployed using {Clones-cloneDeterministic}.\\n     */\\n    function predictDeterministicAddress(address implementation, bytes32 salt, address deployer) internal pure returns (address predicted) {\\n        // solhint-disable-next-line no-inline-assembly\\n        assembly {\\n            let ptr := mload(0x40)\\n            mstore(ptr, 0x3d602d80600a3d3981f3363d3d373d3d3d363d73000000000000000000000000)\\n            mstore(add(ptr, 0x14), shl(0x60, implementation))\\n            mstore(add(ptr, 0x28), 0x5af43d82803e903d91602b57fd5bf3ff00000000000000000000000000000000)\\n            mstore(add(ptr, 0x38), shl(0x60, deployer))\\n            mstore(add(ptr, 0x4c), salt)\\n            mstore(add(ptr, 0x6c), keccak256(ptr, 0x37))\\n            predicted := keccak256(add(ptr, 0x37), 0x55)\\n        }\\n    }\\n\\n    /**\\n     * @dev Computes the address of a clone deployed using {Clones-cloneDeterministic}.\\n     */\\n    function predictDeterministicAddress(address implementation, bytes32 salt) internal view returns (address predicted) {\\n        return predictDeterministicAddress(implementation, salt, address(this));\\n    }\\n}\\n\",\"keccak256\":\"0x90dec20805396efc780a82c62578626103e03278bc1f48b61bb3aba52a61617c\",\"license\":\"MIT\"},\"@openzeppelin/contracts/proxy/Proxy.sol\":{\"content\":\"// SPDX-License-Identifier: MIT\\n\\npragma solidity ^0.8.0;\\n\\n/**\\n * @dev This abstract contract provides a fallback function that delegates all calls to another contract using the EVM\\n * instruction `delegatecall`. We refer to the second contract as the _implementation_ behind the proxy, and it has to\\n * be specified by overriding the virtual {_implementation} function.\\n *\\n * Additionally, delegation to the implementation can be triggered manually through the {_fallback} function, or to a\\n * different contract through the {_delegate} function.\\n *\\n * The success and return data of the delegated call will be returned back to the caller of the proxy.\\n */\\nabstract contract Proxy {\\n    /**\\n     * @dev Delegates the current call to `implementation`.\\n     *\\n     * This function does not return to its internall call site, it will return directly to the external caller.\\n     */\\n    function _delegate(address implementation) internal virtual {\\n        // solhint-disable-next-line no-inline-assembly\\n        assembly {\\n            // Copy msg.data. We take full control of memory in this inline assembly\\n            // block because it will not return to Solidity code. We overwrite the\\n            // Solidity scratch pad at memory position 0.\\n            calldatacopy(0, 0, calldatasize())\\n\\n            // Call the implementation.\\n            // out and outsize are 0 because we don't know the size yet.\\n            let result := delegatecall(gas(), implementation, 0, calldatasize(), 0, 0)\\n\\n            // Copy the returned data.\\n            returndatacopy(0, 0, returndatasize())\\n\\n            switch result\\n            // delegatecall returns 0 on error.\\n            case 0 { revert(0, returndatasize()) }\\n            default { return(0, returndatasize()) }\\n        }\\n    }\\n\\n    /**\\n     * @dev This is a virtual function that should be overriden so it returns the address to which the fallback function\\n     * and {_fallback} should delegate.\\n     */\\n    function _implementation() internal view virtual returns (address);\\n\\n    /**\\n     * @dev Delegates the current call to the address returned by `_implementation()`.\\n     *\\n     * This function does not return to its internall call site, it will return directly to the external caller.\\n     */\\n    function _fallback() internal virtual {\\n        _beforeFallback();\\n        _delegate(_implementation());\\n    }\\n\\n    /**\\n     * @dev Fallback function that delegates calls to the address returned by `_implementation()`. Will run if no other\\n     * function in the contract matches the call data.\\n     */\\n    fallback () external payable virtual {\\n        _fallback();\\n    }\\n\\n    /**\\n     * @dev Fallback function that delegates calls to the address returned by `_implementation()`. Will run if call data\\n     * is empty.\\n     */\\n    receive () external payable virtual {\\n        _fallback();\\n    }\\n\\n    /**\\n     * @dev Hook that is called before falling back to the implementation. Can happen as part of a manual `_fallback`\\n     * call, or as part of the Solidity `fallback` or `receive` functions.\\n     *\\n     * If overriden should call `super._beforeFallback()`.\\n     */\\n    function _beforeFallback() internal virtual {\\n    }\\n}\\n\",\"keccak256\":\"0xc706395df88dc1d459f21e51c57ab8820af80d1e8c3c14933a651794d78a429f\",\"license\":\"MIT\"},\"@openzeppelin/contracts/proxy/beacon/IBeacon.sol\":{\"content\":\"// SPDX-License-Identifier: MIT\\n\\npragma solidity ^0.8.0;\\n\\n/**\\n * @dev This is the interface that {BeaconProxy} expects of its beacon.\\n */\\ninterface IBeacon {\\n    /**\\n     * @dev Must return an address that can be used as a delegate call target.\\n     *\\n     * {BeaconProxy} will check that this address is a contract.\\n     */\\n    function implementation() external view returns (address);\\n}\\n\",\"keccak256\":\"0x5615339d191e77be7e46319b67856f9355786f705b7b3c4a7237ab70c1864ab1\",\"license\":\"MIT\"},\"@openzeppelin/contracts/token/ERC721/IERC721.sol\":{\"content\":\"// SPDX-License-Identifier: MIT\\n\\npragma solidity ^0.8.0;\\n\\nimport \\\"../../utils/introspection/IERC165.sol\\\";\\n\\n/**\\n * @dev Required interface of an ERC721 compliant contract.\\n */\\ninterface IERC721 is IERC165 {\\n    /**\\n     * @dev Emitted when `tokenId` token is transferred from `from` to `to`.\\n     */\\n    event Transfer(address indexed from, address indexed to, uint256 indexed tokenId);\\n\\n    /**\\n     * @dev Emitted when `owner` enables `approved` to manage the `tokenId` token.\\n     */\\n    event Approval(address indexed owner, address indexed approved, uint256 indexed tokenId);\\n\\n    /**\\n     * @dev Emitted when `owner` enables or disables (`approved`) `operator` to manage all of its assets.\\n     */\\n    event ApprovalForAll(address indexed owner, address indexed operator, bool approved);\\n\\n    /**\\n     * @dev Returns the number of tokens in ``owner``'s account.\\n     */\\n    function balanceOf(address owner) external view returns (uint256 balance);\\n\\n    /**\\n     * @dev Returns the owner of the `tokenId` token.\\n     *\\n     * Requirements:\\n     *\\n     * - `tokenId` must exist.\\n     */\\n    function ownerOf(uint256 tokenId) external view returns (address owner);\\n\\n    /**\\n     * @dev Safely transfers `tokenId` token from `from` to `to`, checking first that contract recipients\\n     * are aware of the ERC721 protocol to prevent tokens from being forever locked.\\n     *\\n     * Requirements:\\n     *\\n     * - `from` cannot be the zero address.\\n     * - `to` cannot be the zero address.\\n     * - `tokenId` token must exist and be owned by `from`.\\n     * - If the caller is not `from`, it must be have been allowed to move this token by either {approve} or {setApprovalForAll}.\\n     * - If `to` refers to a smart contract, it must implement {IERC721Receiver-onERC721Received}, which is called upon a safe transfer.\\n     *\\n     * Emits a {Transfer} event.\\n     */\\n    function safeTransferFrom(address from, address to, uint256 tokenId) external;\\n\\n    /**\\n     * @dev Transfers `tokenId` token from `from` to `to`.\\n     *\\n     * WARNING: Usage of this method is discouraged, use {safeTransferFrom} whenever possible.\\n     *\\n     * Requirements:\\n     *\\n     * - `from` cannot be the zero address.\\n     * - `to` cannot be the zero address.\\n     * - `tokenId` token must be owned by `from`.\\n     * - If the caller is not `from`, it must be approved to move this token by either {approve} or {setApprovalForAll}.\\n     *\\n     * Emits a {Transfer} event.\\n     */\\n    function transferFrom(address from, address to, uint256 tokenId) external;\\n\\n    /**\\n     * @dev Gives permission to `to` to transfer `tokenId` token to another account.\\n     * The approval is cleared when the token is transferred.\\n     *\\n     * Only a single account can be approved at a time, so approving the zero address clears previous approvals.\\n     *\\n     * Requirements:\\n     *\\n     * - The caller must own the token or be an approved operator.\\n     * - `tokenId` must exist.\\n     *\\n     * Emits an {Approval} event.\\n     */\\n    function approve(address to, uint256 tokenId) external;\\n\\n    /**\\n     * @dev Returns the account approved for `tokenId` token.\\n     *\\n     * Requirements:\\n     *\\n     * - `tokenId` must exist.\\n     */\\n    function getApproved(uint256 tokenId) external view returns (address operator);\\n\\n    /**\\n     * @dev Approve or remove `operator` as an operator for the caller.\\n     * Operators can call {transferFrom} or {safeTransferFrom} for any token owned by the caller.\\n     *\\n     * Requirements:\\n     *\\n     * - The `operator` cannot be the caller.\\n     *\\n     * Emits an {ApprovalForAll} event.\\n     */\\n    function setApprovalForAll(address operator, bool _approved) external;\\n\\n    /**\\n     * @dev Returns if the `operator` is allowed to manage all of the assets of `owner`.\\n     *\\n     * See {setApprovalForAll}\\n     */\\n    function isApprovedForAll(address owner, address operator) external view returns (bool);\\n\\n    /**\\n      * @dev Safely transfers `tokenId` token from `from` to `to`.\\n      *\\n      * Requirements:\\n      *\\n      * - `from` cannot be the zero address.\\n      * - `to` cannot be the zero address.\\n      * - `tokenId` token must exist and be owned by `from`.\\n      * - If the caller is not `from`, it must be approved to move this token by either {approve} or {setApprovalForAll}.\\n      * - If `to` refers to a smart contract, it must implement {IERC721Receiver-onERC721Received}, which is called upon a safe transfer.\\n      *\\n      * Emits a {Transfer} event.\\n      */\\n    function safeTransferFrom(address from, address to, uint256 tokenId, bytes calldata data) external;\\n}\\n\",\"keccak256\":\"0xc1c941ad1e580b4623007305921efe2f26fc7320a4edc226234dd707c658a428\",\"license\":\"MIT\"},\"@openzeppelin/contracts/token/ERC721/extensions/IERC721Metadata.sol\":{\"content\":\"// SPDX-License-Identifier: MIT\\n\\npragma solidity ^0.8.0;\\n\\nimport \\\"../IERC721.sol\\\";\\n\\n/**\\n * @title ERC-721 Non-Fungible Token Standard, optional metadata extension\\n * @dev See https://eips.ethereum.org/EIPS/eip-721\\n */\\ninterface IERC721Metadata is IERC721 {\\n\\n    /**\\n     * @dev Returns the token collection name.\\n     */\\n    function name() external view returns (string memory);\\n\\n    /**\\n     * @dev Returns the token collection symbol.\\n     */\\n    function symbol() external view returns (string memory);\\n\\n    /**\\n     * @dev Returns the Uniform Resource Identifier (URI) for `tokenId` token.\\n     */\\n    function tokenURI(uint256 tokenId) external view returns (string memory);\\n}\\n\",\"keccak256\":\"0xb8d11e77eb1ed34a33720edb551d7d6a6b0eee2bfaa40a7024020e1fdf879b16\",\"license\":\"MIT\"},\"@openzeppelin/contracts/utils/Address.sol\":{\"content\":\"// SPDX-License-Identifier: MIT\\n\\npragma solidity ^0.8.0;\\n\\n/**\\n * @dev Collection of functions related to the address type\\n */\\nlibrary Address {\\n    /**\\n     * @dev Returns true if `account` is a contract.\\n     *\\n     * [IMPORTANT]\\n     * ====\\n     * It is unsafe to assume that an address for which this function returns\\n     * false is an externally-owned account (EOA) and not a contract.\\n     *\\n     * Among others, `isContract` will return false for the following\\n     * types of addresses:\\n     *\\n     *  - an externally-owned account\\n     *  - a contract in construction\\n     *  - an address where a contract will be created\\n     *  - an address where a contract lived, but was destroyed\\n     * ====\\n     */\\n    function isContract(address account) internal view returns (bool) {\\n        // This method relies on extcodesize, which returns 0 for contracts in\\n        // construction, since the code is only stored at the end of the\\n        // constructor execution.\\n\\n        uint256 size;\\n        // solhint-disable-next-line no-inline-assembly\\n        assembly { size := extcodesize(account) }\\n        return size > 0;\\n    }\\n\\n    /**\\n     * @dev Replacement for Solidity's `transfer`: sends `amount` wei to\\n     * `recipient`, forwarding all available gas and reverting on errors.\\n     *\\n     * https://eips.ethereum.org/EIPS/eip-1884[EIP1884] increases the gas cost\\n     * of certain opcodes, possibly making contracts go over the 2300 gas limit\\n     * imposed by `transfer`, making them unable to receive funds via\\n     * `transfer`. {sendValue} removes this limitation.\\n     *\\n     * https://diligence.consensys.net/posts/2019/09/stop-using-soliditys-transfer-now/[Learn more].\\n     *\\n     * IMPORTANT: because control is transferred to `recipient`, care must be\\n     * taken to not create reentrancy vulnerabilities. Consider using\\n     * {ReentrancyGuard} or the\\n     * https://solidity.readthedocs.io/en/v0.5.11/security-considerations.html#use-the-checks-effects-interactions-pattern[checks-effects-interactions pattern].\\n     */\\n    function sendValue(address payable recipient, uint256 amount) internal {\\n        require(address(this).balance >= amount, \\\"Address: insufficient balance\\\");\\n\\n        // solhint-disable-next-line avoid-low-level-calls, avoid-call-value\\n        (bool success, ) = recipient.call{ value: amount }(\\\"\\\");\\n        require(success, \\\"Address: unable to send value, recipient may have reverted\\\");\\n    }\\n\\n    /**\\n     * @dev Performs a Solidity function call using a low level `call`. A\\n     * plain`call` is an unsafe replacement for a function call: use this\\n     * function instead.\\n     *\\n     * If `target` reverts with a revert reason, it is bubbled up by this\\n     * function (like regular Solidity function calls).\\n     *\\n     * Returns the raw returned data. To convert to the expected return value,\\n     * use https://solidity.readthedocs.io/en/latest/units-and-global-variables.html?highlight=abi.decode#abi-encoding-and-decoding-functions[`abi.decode`].\\n     *\\n     * Requirements:\\n     *\\n     * - `target` must be a contract.\\n     * - calling `target` with `data` must not revert.\\n     *\\n     * _Available since v3.1._\\n     */\\n    function functionCall(address target, bytes memory data) internal returns (bytes memory) {\\n      return functionCall(target, data, \\\"Address: low-level call failed\\\");\\n    }\\n\\n    /**\\n     * @dev Same as {xref-Address-functionCall-address-bytes-}[`functionCall`], but with\\n     * `errorMessage` as a fallback revert reason when `target` reverts.\\n     *\\n     * _Available since v3.1._\\n     */\\n    function functionCall(address target, bytes memory data, string memory errorMessage) internal returns (bytes memory) {\\n        return functionCallWithValue(target, data, 0, errorMessage);\\n    }\\n\\n    /**\\n     * @dev Same as {xref-Address-functionCall-address-bytes-}[`functionCall`],\\n     * but also transferring `value` wei to `target`.\\n     *\\n     * Requirements:\\n     *\\n     * - the calling contract must have an ETH balance of at least `value`.\\n     * - the called Solidity function must be `payable`.\\n     *\\n     * _Available since v3.1._\\n     */\\n    function functionCallWithValue(address target, bytes memory data, uint256 value) internal returns (bytes memory) {\\n        return functionCallWithValue(target, data, value, \\\"Address: low-level call with value failed\\\");\\n    }\\n\\n    /**\\n     * @dev Same as {xref-Address-functionCallWithValue-address-bytes-uint256-}[`functionCallWithValue`], but\\n     * with `errorMessage` as a fallback revert reason when `target` reverts.\\n     *\\n     * _Available since v3.1._\\n     */\\n    function functionCallWithValue(address target, bytes memory data, uint256 value, string memory errorMessage) internal returns (bytes memory) {\\n        require(address(this).balance >= value, \\\"Address: insufficient balance for call\\\");\\n        require(isContract(target), \\\"Address: call to non-contract\\\");\\n\\n        // solhint-disable-next-line avoid-low-level-calls\\n        (bool success, bytes memory returndata) = target.call{ value: value }(data);\\n        return _verifyCallResult(success, returndata, errorMessage);\\n    }\\n\\n    /**\\n     * @dev Same as {xref-Address-functionCall-address-bytes-}[`functionCall`],\\n     * but performing a static call.\\n     *\\n     * _Available since v3.3._\\n     */\\n    function functionStaticCall(address target, bytes memory data) internal view returns (bytes memory) {\\n        return functionStaticCall(target, data, \\\"Address: low-level static call failed\\\");\\n    }\\n\\n    /**\\n     * @dev Same as {xref-Address-functionCall-address-bytes-string-}[`functionCall`],\\n     * but performing a static call.\\n     *\\n     * _Available since v3.3._\\n     */\\n    function functionStaticCall(address target, bytes memory data, string memory errorMessage) internal view returns (bytes memory) {\\n        require(isContract(target), \\\"Address: static call to non-contract\\\");\\n\\n        // solhint-disable-next-line avoid-low-level-calls\\n        (bool success, bytes memory returndata) = target.staticcall(data);\\n        return _verifyCallResult(success, returndata, errorMessage);\\n    }\\n\\n    /**\\n     * @dev Same as {xref-Address-functionCall-address-bytes-}[`functionCall`],\\n     * but performing a delegate call.\\n     *\\n     * _Available since v3.4._\\n     */\\n    function functionDelegateCall(address target, bytes memory data) internal returns (bytes memory) {\\n        return functionDelegateCall(target, data, \\\"Address: low-level delegate call failed\\\");\\n    }\\n\\n    /**\\n     * @dev Same as {xref-Address-functionCall-address-bytes-string-}[`functionCall`],\\n     * but performing a delegate call.\\n     *\\n     * _Available since v3.4._\\n     */\\n    function functionDelegateCall(address target, bytes memory data, string memory errorMessage) internal returns (bytes memory) {\\n        require(isContract(target), \\\"Address: delegate call to non-contract\\\");\\n\\n        // solhint-disable-next-line avoid-low-level-calls\\n        (bool success, bytes memory returndata) = target.delegatecall(data);\\n        return _verifyCallResult(success, returndata, errorMessage);\\n    }\\n\\n    function _verifyCallResult(bool success, bytes memory returndata, string memory errorMessage) private pure returns(bytes memory) {\\n        if (success) {\\n            return returndata;\\n        } else {\\n            // Look for revert reason and bubble it up if present\\n            if (returndata.length > 0) {\\n                // The easiest way to bubble the revert reason is using memory via assembly\\n\\n                // solhint-disable-next-line no-inline-assembly\\n                assembly {\\n                    let returndata_size := mload(returndata)\\n                    revert(add(32, returndata), returndata_size)\\n                }\\n            } else {\\n                revert(errorMessage);\\n            }\\n        }\\n    }\\n}\\n\",\"keccak256\":\"0x069b2631bb5b5193a58ccf7a06266c7361bd2c20095667af4402817605627f45\",\"license\":\"MIT\"},\"@openzeppelin/contracts/utils/Context.sol\":{\"content\":\"// SPDX-License-Identifier: MIT\\n\\npragma solidity ^0.8.0;\\n\\n/*\\n * @dev Provides information about the current execution context, including the\\n * sender of the transaction and its data. While these are generally available\\n * via msg.sender and msg.data, they should not be accessed in such a direct\\n * manner, since when dealing with meta-transactions the account sending and\\n * paying for execution may not be the actual sender (as far as an application\\n * is concerned).\\n *\\n * This contract is only required for intermediate, library-like contracts.\\n */\\nabstract contract Context {\\n    function _msgSender() internal view virtual returns (address) {\\n        return msg.sender;\\n    }\\n\\n    function _msgData() internal view virtual returns (bytes calldata) {\\n        this; // silence state mutability warning without generating bytecode - see https://github.com/ethereum/solidity/issues/2691\\n        return msg.data;\\n    }\\n}\\n\",\"keccak256\":\"0xf930d2df426bfcfc1f7415be724f04081c96f4fb9ec8d0e3a521c07692dface0\",\"license\":\"MIT\"},\"@openzeppelin/contracts/utils/Counters.sol\":{\"content\":\"// SPDX-License-Identifier: MIT\\n\\npragma solidity ^0.8.0;\\n\\n/**\\n * @title Counters\\n * @author Matt Condon (@shrugs)\\n * @dev Provides counters that can only be incremented or decremented by one. This can be used e.g. to track the number\\n * of elements in a mapping, issuing ERC721 ids, or counting request ids.\\n *\\n * Include with `using Counters for Counters.Counter;`\\n */\\nlibrary Counters {\\n    struct Counter {\\n        // This variable should never be directly accessed by users of the library: interactions must be restricted to\\n        // the library's function. As of Solidity v0.5.2, this cannot be enforced, though there is a proposal to add\\n        // this feature: see https://github.com/ethereum/solidity/issues/4637\\n        uint256 _value; // default: 0\\n    }\\n\\n    function current(Counter storage counter) internal view returns (uint256) {\\n        return counter._value;\\n    }\\n\\n    function increment(Counter storage counter) internal {\\n        unchecked {\\n            counter._value += 1;\\n        }\\n    }\\n\\n    function decrement(Counter storage counter) internal {\\n        uint256 value = counter._value;\\n        require(value > 0, \\\"Counter: decrement overflow\\\");\\n        unchecked {\\n            counter._value = value - 1;\\n        }\\n    }\\n}\\n\",\"keccak256\":\"0x62d306ff0499a11913bc60b5939eec619509b5c67b30e86ebf8b8bda0b7a7fee\",\"license\":\"MIT\"},\"@openzeppelin/contracts/utils/introspection/IERC165.sol\":{\"content\":\"// SPDX-License-Identifier: MIT\\n\\npragma solidity ^0.8.0;\\n\\n/**\\n * @dev Interface of the ERC165 standard, as defined in the\\n * https://eips.ethereum.org/EIPS/eip-165[EIP].\\n *\\n * Implementers can declare support of contract interfaces, which can then be\\n * queried by others ({ERC165Checker}).\\n *\\n * For an implementation, see {ERC165}.\\n */\\ninterface IERC165 {\\n    /**\\n     * @dev Returns true if this contract implements the interface defined by\\n     * `interfaceId`. See the corresponding\\n     * https://eips.ethereum.org/EIPS/eip-165#how-interfaces-are-identified[EIP section]\\n     * to learn more about how these ids are created.\\n     *\\n     * This function call must use less than 30 000 gas.\\n     */\\n    function supportsInterface(bytes4 interfaceId) external view returns (bool);\\n}\\n\",\"keccak256\":\"0xa28007762d9da9db878dd421960c8cb9a10471f47ab5c1b3309bfe48e9e79ff4\",\"license\":\"MIT\"},\"@openzeppelin/contracts/utils/math/SafeMath.sol\":{\"content\":\"// SPDX-License-Identifier: MIT\\n\\npragma solidity ^0.8.0;\\n\\n// CAUTION\\n// This version of SafeMath should only be used with Solidity 0.8 or later,\\n// because it relies on the compiler's built in overflow checks.\\n\\n/**\\n * @dev Wrappers over Solidity's arithmetic operations.\\n *\\n * NOTE: `SafeMath` is no longer needed starting with Solidity 0.8. The compiler\\n * now has built in overflow checking.\\n */\\nlibrary SafeMath {\\n    /**\\n     * @dev Returns the addition of two unsigned integers, with an overflow flag.\\n     *\\n     * _Available since v3.4._\\n     */\\n    function tryAdd(uint256 a, uint256 b) internal pure returns (bool, uint256) {\\n        unchecked {\\n            uint256 c = a + b;\\n            if (c < a) return (false, 0);\\n            return (true, c);\\n        }\\n    }\\n\\n    /**\\n     * @dev Returns the substraction of two unsigned integers, with an overflow flag.\\n     *\\n     * _Available since v3.4._\\n     */\\n    function trySub(uint256 a, uint256 b) internal pure returns (bool, uint256) {\\n        unchecked {\\n            if (b > a) return (false, 0);\\n            return (true, a - b);\\n        }\\n    }\\n\\n    /**\\n     * @dev Returns the multiplication of two unsigned integers, with an overflow flag.\\n     *\\n     * _Available since v3.4._\\n     */\\n    function tryMul(uint256 a, uint256 b) internal pure returns (bool, uint256) {\\n        unchecked {\\n            // Gas optimization: this is cheaper than requiring 'a' not being zero, but the\\n            // benefit is lost if 'b' is also tested.\\n            // See: https://github.com/OpenZeppelin/openzeppelin-contracts/pull/522\\n            if (a == 0) return (true, 0);\\n            uint256 c = a * b;\\n            if (c / a != b) return (false, 0);\\n            return (true, c);\\n        }\\n    }\\n\\n    /**\\n     * @dev Returns the division of two unsigned integers, with a division by zero flag.\\n     *\\n     * _Available since v3.4._\\n     */\\n    function tryDiv(uint256 a, uint256 b) internal pure returns (bool, uint256) {\\n        unchecked {\\n            if (b == 0) return (false, 0);\\n            return (true, a / b);\\n        }\\n    }\\n\\n    /**\\n     * @dev Returns the remainder of dividing two unsigned integers, with a division by zero flag.\\n     *\\n     * _Available since v3.4._\\n     */\\n    function tryMod(uint256 a, uint256 b) internal pure returns (bool, uint256) {\\n        unchecked {\\n            if (b == 0) return (false, 0);\\n            return (true, a % b);\\n        }\\n    }\\n\\n    /**\\n     * @dev Returns the addition of two unsigned integers, reverting on\\n     * overflow.\\n     *\\n     * Counterpart to Solidity's `+` operator.\\n     *\\n     * Requirements:\\n     *\\n     * - Addition cannot overflow.\\n     */\\n    function add(uint256 a, uint256 b) internal pure returns (uint256) {\\n        return a + b;\\n    }\\n\\n    /**\\n     * @dev Returns the subtraction of two unsigned integers, reverting on\\n     * overflow (when the result is negative).\\n     *\\n     * Counterpart to Solidity's `-` operator.\\n     *\\n     * Requirements:\\n     *\\n     * - Subtraction cannot overflow.\\n     */\\n    function sub(uint256 a, uint256 b) internal pure returns (uint256) {\\n        return a - b;\\n    }\\n\\n    /**\\n     * @dev Returns the multiplication of two unsigned integers, reverting on\\n     * overflow.\\n     *\\n     * Counterpart to Solidity's `*` operator.\\n     *\\n     * Requirements:\\n     *\\n     * - Multiplication cannot overflow.\\n     */\\n    function mul(uint256 a, uint256 b) internal pure returns (uint256) {\\n        return a * b;\\n    }\\n\\n    /**\\n     * @dev Returns the integer division of two unsigned integers, reverting on\\n     * division by zero. The result is rounded towards zero.\\n     *\\n     * Counterpart to Solidity's `/` operator.\\n     *\\n     * Requirements:\\n     *\\n     * - The divisor cannot be zero.\\n     */\\n    function div(uint256 a, uint256 b) internal pure returns (uint256) {\\n        return a / b;\\n    }\\n\\n    /**\\n     * @dev Returns the remainder of dividing two unsigned integers. (unsigned integer modulo),\\n     * reverting when dividing by zero.\\n     *\\n     * Counterpart to Solidity's `%` operator. This function uses a `revert`\\n     * opcode (which leaves remaining gas untouched) while Solidity uses an\\n     * invalid opcode to revert (consuming all remaining gas).\\n     *\\n     * Requirements:\\n     *\\n     * - The divisor cannot be zero.\\n     */\\n    function mod(uint256 a, uint256 b) internal pure returns (uint256) {\\n        return a % b;\\n    }\\n\\n    /**\\n     * @dev Returns the subtraction of two unsigned integers, reverting with custom message on\\n     * overflow (when the result is negative).\\n     *\\n     * CAUTION: This function is deprecated because it requires allocating memory for the error\\n     * message unnecessarily. For custom revert reasons use {trySub}.\\n     *\\n     * Counterpart to Solidity's `-` operator.\\n     *\\n     * Requirements:\\n     *\\n     * - Subtraction cannot overflow.\\n     */\\n    function sub(uint256 a, uint256 b, string memory errorMessage) internal pure returns (uint256) {\\n        unchecked {\\n            require(b <= a, errorMessage);\\n            return a - b;\\n        }\\n    }\\n\\n    /**\\n     * @dev Returns the integer division of two unsigned integers, reverting with custom message on\\n     * division by zero. The result is rounded towards zero.\\n     *\\n     * Counterpart to Solidity's `%` operator. This function uses a `revert`\\n     * opcode (which leaves remaining gas untouched) while Solidity uses an\\n     * invalid opcode to revert (consuming all remaining gas).\\n     *\\n     * Counterpart to Solidity's `/` operator. Note: this function uses a\\n     * `revert` opcode (which leaves remaining gas untouched) while Solidity\\n     * uses an invalid opcode to revert (consuming all remaining gas).\\n     *\\n     * Requirements:\\n     *\\n     * - The divisor cannot be zero.\\n     */\\n    function div(uint256 a, uint256 b, string memory errorMessage) internal pure returns (uint256) {\\n        unchecked {\\n            require(b > 0, errorMessage);\\n            return a / b;\\n        }\\n    }\\n\\n    /**\\n     * @dev Returns the remainder of dividing two unsigned integers. (unsigned integer modulo),\\n     * reverting with custom message when dividing by zero.\\n     *\\n     * CAUTION: This function is deprecated because it requires allocating memory for the error\\n     * message unnecessarily. For custom revert reasons use {tryMod}.\\n     *\\n     * Counterpart to Solidity's `%` operator. This function uses a `revert`\\n     * opcode (which leaves remaining gas untouched) while Solidity uses an\\n     * invalid opcode to revert (consuming all remaining gas).\\n     *\\n     * Requirements:\\n     *\\n     * - The divisor cannot be zero.\\n     */\\n    function mod(uint256 a, uint256 b, string memory errorMessage) internal pure returns (uint256) {\\n        unchecked {\\n            require(b > 0, errorMessage);\\n            return a % b;\\n        }\\n    }\\n}\\n\",\"keccak256\":\"0x2526b7c6a366fc211bbc176078ab02b83833e7682abcc5b3bed9d700b34e2a3e\",\"license\":\"MIT\"},\"@openzeppelin/contracts/utils/structs/EnumerableSet.sol\":{\"content\":\"// SPDX-License-Identifier: MIT\\n\\npragma solidity ^0.8.0;\\n\\n/**\\n * @dev Library for managing\\n * https://en.wikipedia.org/wiki/Set_(abstract_data_type)[sets] of primitive\\n * types.\\n *\\n * Sets have the following properties:\\n *\\n * - Elements are added, removed, and checked for existence in constant time\\n * (O(1)).\\n * - Elements are enumerated in O(n). No guarantees are made on the ordering.\\n *\\n * ```\\n * contract Example {\\n *     // Add the library methods\\n *     using EnumerableSet for EnumerableSet.AddressSet;\\n *\\n *     // Declare a set state variable\\n *     EnumerableSet.AddressSet private mySet;\\n * }\\n * ```\\n *\\n * As of v3.3.0, sets of type `bytes32` (`Bytes32Set`), `address` (`AddressSet`)\\n * and `uint256` (`UintSet`) are supported.\\n */\\nlibrary EnumerableSet {\\n    // To implement this library for multiple types with as little code\\n    // repetition as possible, we write it in terms of a generic Set type with\\n    // bytes32 values.\\n    // The Set implementation uses private functions, and user-facing\\n    // implementations (such as AddressSet) are just wrappers around the\\n    // underlying Set.\\n    // This means that we can only create new EnumerableSets for types that fit\\n    // in bytes32.\\n\\n    struct Set {\\n        // Storage of set values\\n        bytes32[] _values;\\n\\n        // Position of the value in the `values` array, plus 1 because index 0\\n        // means a value is not in the set.\\n        mapping (bytes32 => uint256) _indexes;\\n    }\\n\\n    /**\\n     * @dev Add a value to a set. O(1).\\n     *\\n     * Returns true if the value was added to the set, that is if it was not\\n     * already present.\\n     */\\n    function _add(Set storage set, bytes32 value) private returns (bool) {\\n        if (!_contains(set, value)) {\\n            set._values.push(value);\\n            // The value is stored at length-1, but we add 1 to all indexes\\n            // and use 0 as a sentinel value\\n            set._indexes[value] = set._values.length;\\n            return true;\\n        } else {\\n            return false;\\n        }\\n    }\\n\\n    /**\\n     * @dev Removes a value from a set. O(1).\\n     *\\n     * Returns true if the value was removed from the set, that is if it was\\n     * present.\\n     */\\n    function _remove(Set storage set, bytes32 value) private returns (bool) {\\n        // We read and store the value's index to prevent multiple reads from the same storage slot\\n        uint256 valueIndex = set._indexes[value];\\n\\n        if (valueIndex != 0) { // Equivalent to contains(set, value)\\n            // To delete an element from the _values array in O(1), we swap the element to delete with the last one in\\n            // the array, and then remove the last element (sometimes called as 'swap and pop').\\n            // This modifies the order of the array, as noted in {at}.\\n\\n            uint256 toDeleteIndex = valueIndex - 1;\\n            uint256 lastIndex = set._values.length - 1;\\n\\n            // When the value to delete is the last one, the swap operation is unnecessary. However, since this occurs\\n            // so rarely, we still do the swap anyway to avoid the gas cost of adding an 'if' statement.\\n\\n            bytes32 lastvalue = set._values[lastIndex];\\n\\n            // Move the last value to the index where the value to delete is\\n            set._values[toDeleteIndex] = lastvalue;\\n            // Update the index for the moved value\\n            set._indexes[lastvalue] = valueIndex; // Replace lastvalue's index to valueIndex\\n\\n            // Delete the slot where the moved value was stored\\n            set._values.pop();\\n\\n            // Delete the index for the deleted slot\\n            delete set._indexes[value];\\n\\n            return true;\\n        } else {\\n            return false;\\n        }\\n    }\\n\\n    /**\\n     * @dev Returns true if the value is in the set. O(1).\\n     */\\n    function _contains(Set storage set, bytes32 value) private view returns (bool) {\\n        return set._indexes[value] != 0;\\n    }\\n\\n    /**\\n     * @dev Returns the number of values on the set. O(1).\\n     */\\n    function _length(Set storage set) private view returns (uint256) {\\n        return set._values.length;\\n    }\\n\\n   /**\\n    * @dev Returns the value stored at position `index` in the set. O(1).\\n    *\\n    * Note that there are no guarantees on the ordering of values inside the\\n    * array, and it may change when more values are added or removed.\\n    *\\n    * Requirements:\\n    *\\n    * - `index` must be strictly less than {length}.\\n    */\\n    function _at(Set storage set, uint256 index) private view returns (bytes32) {\\n        require(set._values.length > index, \\\"EnumerableSet: index out of bounds\\\");\\n        return set._values[index];\\n    }\\n\\n    // Bytes32Set\\n\\n    struct Bytes32Set {\\n        Set _inner;\\n    }\\n\\n    /**\\n     * @dev Add a value to a set. O(1).\\n     *\\n     * Returns true if the value was added to the set, that is if it was not\\n     * already present.\\n     */\\n    function add(Bytes32Set storage set, bytes32 value) internal returns (bool) {\\n        return _add(set._inner, value);\\n    }\\n\\n    /**\\n     * @dev Removes a value from a set. O(1).\\n     *\\n     * Returns true if the value was removed from the set, that is if it was\\n     * present.\\n     */\\n    function remove(Bytes32Set storage set, bytes32 value) internal returns (bool) {\\n        return _remove(set._inner, value);\\n    }\\n\\n    /**\\n     * @dev Returns true if the value is in the set. O(1).\\n     */\\n    function contains(Bytes32Set storage set, bytes32 value) internal view returns (bool) {\\n        return _contains(set._inner, value);\\n    }\\n\\n    /**\\n     * @dev Returns the number of values in the set. O(1).\\n     */\\n    function length(Bytes32Set storage set) internal view returns (uint256) {\\n        return _length(set._inner);\\n    }\\n\\n   /**\\n    * @dev Returns the value stored at position `index` in the set. O(1).\\n    *\\n    * Note that there are no guarantees on the ordering of values inside the\\n    * array, and it may change when more values are added or removed.\\n    *\\n    * Requirements:\\n    *\\n    * - `index` must be strictly less than {length}.\\n    */\\n    function at(Bytes32Set storage set, uint256 index) internal view returns (bytes32) {\\n        return _at(set._inner, index);\\n    }\\n\\n    // AddressSet\\n\\n    struct AddressSet {\\n        Set _inner;\\n    }\\n\\n    /**\\n     * @dev Add a value to a set. O(1).\\n     *\\n     * Returns true if the value was added to the set, that is if it was not\\n     * already present.\\n     */\\n    function add(AddressSet storage set, address value) internal returns (bool) {\\n        return _add(set._inner, bytes32(uint256(uint160(value))));\\n    }\\n\\n    /**\\n     * @dev Removes a value from a set. O(1).\\n     *\\n     * Returns true if the value was removed from the set, that is if it was\\n     * present.\\n     */\\n    function remove(AddressSet storage set, address value) internal returns (bool) {\\n        return _remove(set._inner, bytes32(uint256(uint160(value))));\\n    }\\n\\n    /**\\n     * @dev Returns true if the value is in the set. O(1).\\n     */\\n    function contains(AddressSet storage set, address value) internal view returns (bool) {\\n        return _contains(set._inner, bytes32(uint256(uint160(value))));\\n    }\\n\\n    /**\\n     * @dev Returns the number of values in the set. O(1).\\n     */\\n    function length(AddressSet storage set) internal view returns (uint256) {\\n        return _length(set._inner);\\n    }\\n\\n   /**\\n    * @dev Returns the value stored at position `index` in the set. O(1).\\n    *\\n    * Note that there are no guarantees on the ordering of values inside the\\n    * array, and it may change when more values are added or removed.\\n    *\\n    * Requirements:\\n    *\\n    * - `index` must be strictly less than {length}.\\n    */\\n    function at(AddressSet storage set, uint256 index) internal view returns (address) {\\n        return address(uint160(uint256(_at(set._inner, index))));\\n    }\\n\\n\\n    // UintSet\\n\\n    struct UintSet {\\n        Set _inner;\\n    }\\n\\n    /**\\n     * @dev Add a value to a set. O(1).\\n     *\\n     * Returns true if the value was added to the set, that is if it was not\\n     * already present.\\n     */\\n    function add(UintSet storage set, uint256 value) internal returns (bool) {\\n        return _add(set._inner, bytes32(value));\\n    }\\n\\n    /**\\n     * @dev Removes a value from a set. O(1).\\n     *\\n     * Returns true if the value was removed from the set, that is if it was\\n     * present.\\n     */\\n    function remove(UintSet storage set, uint256 value) internal returns (bool) {\\n        return _remove(set._inner, bytes32(value));\\n    }\\n\\n    /**\\n     * @dev Returns true if the value is in the set. O(1).\\n     */\\n    function contains(UintSet storage set, uint256 value) internal view returns (bool) {\\n        return _contains(set._inner, bytes32(value));\\n    }\\n\\n    /**\\n     * @dev Returns the number of values on the set. O(1).\\n     */\\n    function length(UintSet storage set) internal view returns (uint256) {\\n        return _length(set._inner);\\n    }\\n\\n   /**\\n    * @dev Returns the value stored at position `index` in the set. O(1).\\n    *\\n    * Note that there are no guarantees on the ordering of values inside the\\n    * array, and it may change when more values are added or removed.\\n    *\\n    * Requirements:\\n    *\\n    * - `index` must be strictly less than {length}.\\n    */\\n    function at(UintSet storage set, uint256 index) internal view returns (uint256) {\\n        return uint256(_at(set._inner, index));\\n    }\\n}\\n\",\"keccak256\":\"0x4878ef6c288f4cef3c2a288d32cc548c648831cc55503ad3d9a581ed3b93aad9\",\"license\":\"MIT\"},\"contracts/contexts2/access-control/roles/RolesLib.sol\":{\"content\":\"// SPDX-License-Identifier: MIT\\npragma solidity ^0.8.0;\\n\\nimport { AccessControlStorageLib, AccessControlStorage } from \\\"../storage.sol\\\";\\n\\nlibrary RolesLib {\\n    function s() private pure returns (AccessControlStorage storage) {\\n        return AccessControlStorageLib.store();\\n    }\\n\\n    /**\\n     * @dev Emitted when `account` is granted `role`.\\n     */\\n    event RoleGranted(\\n        bytes32 indexed role,\\n        address indexed account,\\n        address indexed sender\\n    );\\n\\n    /**\\n     * @dev Emitted when `account` is revoked `role`.\\n     */\\n    event RoleRevoked(\\n        bytes32 indexed role,\\n        address indexed account,\\n        address indexed sender\\n    );\\n\\n    /**\\n     * @notice Checks if an account has a specific role.\\n     */\\n    function hasRole(bytes32 role, address account)\\n        internal\\n        view\\n        returns (bool)\\n    {\\n        return s().roles[role][account];\\n    }\\n\\n    /**\\n     * @dev Gives an account a new role.\\n     * @dev Should only use when circumventing admin checking.\\n     * @dev If account already has the role, no event is emitted.\\n     * @param role Encoding of the role to give.\\n     * @param account Address to give the {role} to.\\n     */\\n    function grantRole(bytes32 role, address account) internal {\\n        if (hasRole(role, account)) return;\\n        s().roles[role][account] = true;\\n        emit RoleGranted(role, account, msg.sender);\\n    }\\n\\n    /**\\n     * @dev Removes a role from an account.\\n     * @dev Should only use when circumventing admin checking.\\n     * @dev If account does not already have the role, no event is emitted.\\n     * @param role Encoding of the role to remove.\\n     * @param account Address to remove the {role} from.\\n     */\\n    function revokeRole(bytes32 role, address account) internal {\\n        if (!hasRole(role, account)) return;\\n        s().roles[role][account] = false;\\n        emit RoleRevoked(role, account, msg.sender);\\n    }\\n}\\n\",\"keccak256\":\"0x36d0f5db441d2c3db7ee04d84c88ce9b14251cff4387702e96965c51acd1bc84\",\"license\":\"MIT\"},\"contracts/contexts2/access-control/roles/RolesMods.sol\":{\"content\":\"// SPDX-License-Identifier: MIT\\npragma solidity ^0.8.0;\\n\\nimport { RolesLib } from \\\"./RolesLib.sol\\\";\\n\\nabstract contract RolesMods {\\n    /**\\n     * @notice Requires that the {account} has {role}\\n     * @param role Encoding of the role to check.\\n     * @param account Address to check the {role} for.\\n     */\\n    modifier authorized(bytes32 role, address account) {\\n        require(\\n            RolesLib.hasRole(role, account),\\n            \\\"AccessControl: not authorized\\\"\\n        );\\n        _;\\n    }\\n}\\n\",\"keccak256\":\"0x25eeaba823d4fc9c52d82a77cfdb409550ad985fc49b30a5560c1f313c1ca905\",\"license\":\"MIT\"},\"contracts/contexts2/access-control/storage.sol\":{\"content\":\"// SPDX-License-Identifier: MIT\\npragma solidity ^0.8.0;\\n\\nstruct AccessControlStorage {\\n    mapping(bytes32 => mapping(address => bool)) roles;\\n    mapping(address => address) owners;\\n    mapping(bytes32 => bool) entered;\\n}\\n\\nbytes32 constant ACCESS_CONTROL_POS = keccak256(\\n    \\\"teller.access_control.storage\\\"\\n);\\n\\nlibrary AccessControlStorageLib {\\n    function store() internal pure returns (AccessControlStorage storage s) {\\n        bytes32 pos = ACCESS_CONTROL_POS;\\n        assembly {\\n            s.slot := pos\\n        }\\n    }\\n}\\n\",\"keccak256\":\"0xf667fb8d6beb59fc6f37d60ada6b811b5861512fedc661c483b9eca042e96112\",\"license\":\"MIT\"},\"contracts/nft/ITellerNFT.sol\":{\"content\":\"// SPDX-License-Identifier: MIT\\npragma solidity ^0.8.0;\\npragma experimental ABIEncoderV2;\\n\\n// Interfaces\\nimport \\\"@openzeppelin/contracts/token/ERC721/extensions/IERC721Metadata.sol\\\";\\n\\ninterface ITellerNFT {\\n    struct Tier {\\n        uint256 baseLoanSize;\\n        string[] hashes;\\n        address contributionAsset;\\n        uint256 contributionSize;\\n        uint8 contributionMultiplier;\\n    }\\n\\n    /**\\n     * @notice The contract metadata URI.\\n     */\\n    function contractURI() external view returns (string memory);\\n\\n    /**\\n     * @notice It returns information about a Tier for a token ID.\\n     * @param index Tier index to get info.\\n     */\\n    function getTier(uint256 index) external view returns (Tier memory tier_);\\n\\n    /**\\n     * @notice It returns information about a Tier for a token ID.\\n     * @param tokenId ID of the token to get Tier info.\\n     */\\n    function getTokenTier(uint256 tokenId)\\n        external\\n        view\\n        returns (uint256 index_, Tier memory tier_);\\n\\n    /**\\n     * @notice It returns an array of token IDs owned by an address.\\n     * @dev It uses a EnumerableSet to store values and loops over each element to add to the array.\\n     * @dev Can be costly if calling within a contract for address with many tokens.\\n     */\\n    function getTierHashes(uint256 tierIndex)\\n        external\\n        view\\n        returns (string[] memory hashes_);\\n\\n    /**\\n     * @notice It returns an array of token IDs owned by an address.\\n     * @dev It uses a EnumerableSet to store values and loops over each element to add to the array.\\n     * @dev Can be costly if calling within a contract for address with many tokens.\\n     */\\n    function getOwnedTokens(address owner)\\n        external\\n        view\\n        returns (uint256[] memory owned);\\n\\n    /**\\n     * @notice It mints a new token for a Tier index.\\n     *\\n     * Requirements:\\n     *  - Caller must be an authorized minter\\n     */\\n    function mint(uint256 tierIndex, address owner) external;\\n\\n    /**\\n     * @notice Adds a new Tier to be minted with the given information.\\n     * @dev It auto increments the index of the next tier to add.\\n     * @param newTier Information about the new tier to add.\\n     *\\n     * Requirements:\\n     *  - Caller must have the {MINTER} role\\n     */\\n    function addTier(Tier memory newTier) external;\\n\\n    /**\\n     * @notice Sets the contract level metadata URI hash.\\n     * @param contractURIHash The hash to the initial contract level metadata.\\n     */\\n    function setContractURIHash(string memory contractURIHash) external;\\n\\n    /**\\n     * @notice Initializes the TellerNFT.\\n     * @param minters The addresses that should allowed to mint tokens.\\n     */\\n    function initialize(address[] calldata minters) external;\\n}\\n\",\"keccak256\":\"0x7c788b94c175b70eec6b10bfe0655616fc0beb2ce3ef70a6fa750f291d35106c\",\"license\":\"MIT\"},\"contracts/nft/TellerNFT.sol\":{\"content\":\"// SPDX-License-Identifier: MIT\\npragma solidity ^0.8.0;\\npragma experimental ABIEncoderV2;\\n\\n// Contracts\\nimport \\\"@openzeppelin/contracts-upgradeable/token/ERC721/ERC721Upgradeable.sol\\\";\\nimport \\\"@openzeppelin/contracts-upgradeable/access/AccessControlUpgradeable.sol\\\";\\n\\n// Libraries\\nimport \\\"@openzeppelin/contracts/utils/Counters.sol\\\";\\nimport \\\"@openzeppelin/contracts/utils/structs/EnumerableSet.sol\\\";\\nimport \\\"@openzeppelin/contracts/utils/math/SafeMath.sol\\\";\\n\\n// Interfaces\\nimport \\\"./ITellerNFT.sol\\\";\\n\\n/*****************************************************************************************************/\\n/**                                             WARNING                                             **/\\n/**                                  THIS CONTRACT IS UPGRADEABLE!                                  **/\\n/**  ---------------------------------------------------------------------------------------------  **/\\n/**  Do NOT change the order of or PREPEND any storage variables to this or new versions of this    **/\\n/**  contract as this will cause the the storage slots to be overwritten on the proxy contract!!    **/\\n/**                                                                                                 **/\\n/**  Visit https://docs.openzeppelin.com/upgrades/2.6/proxies#upgrading-via-the-proxy-pattern for   **/\\n/**  more information.                                                                              **/\\n/*****************************************************************************************************/\\n/**\\n * @notice This contract is used by borrowers to call Dapp functions (using delegate calls).\\n * @notice This contract should only be constructed using it's upgradeable Proxy contract.\\n * @notice In order to call a Dapp function, the Dapp must be added in the DappRegistry instance.\\n *\\n * @author develop@teller.finance\\n */\\ncontract TellerNFT is ITellerNFT, ERC721Upgradeable, AccessControlUpgradeable {\\n    using Counters for Counters.Counter;\\n    using EnumerableSet for EnumerableSet.UintSet;\\n    using SafeMath for uint256;\\n\\n    /* Constants */\\n\\n    bytes32 public constant ADMIN = keccak256(\\\"ADMIN\\\");\\n    bytes32 public constant MINTER = keccak256(\\\"MINTER\\\");\\n\\n    /* State Variables */\\n\\n    // It holds the total number of tiers.\\n    Counters.Counter internal _tierCounter;\\n\\n    // It holds the total number of tokens minted.\\n    Counters.Counter internal _tokenCounter;\\n\\n    // It holds the information about a tier.\\n    mapping(uint256 => Tier) internal _tiers;\\n\\n    // It holds which tier a token ID is in.\\n    mapping(uint256 => uint256) internal _tokenTier;\\n\\n    // It holds a set of token IDs for an owner address.\\n    mapping(address => EnumerableSet.UintSet) internal _ownerTokenIDs;\\n\\n    // Link to the contract metadata\\n    string private _metadataBaseURI;\\n\\n    // Hash to the contract metadata located on the {_metadataBaseURI}\\n    string private _contractURIHash;\\n\\n    /* Modifiers */\\n\\n    modifier onlyAdmin() {\\n        require(hasRole(ADMIN, _msgSender()), \\\"TellerNFT: not admin\\\");\\n        _;\\n    }\\n\\n    modifier onlyMinter() {\\n        require(hasRole(MINTER, _msgSender()), \\\"TellerNFT: not minter\\\");\\n        _;\\n    }\\n\\n    /* External Functions */\\n\\n    /**\\n     * @notice It returns information about a Tier for a token ID.\\n     * @param index Tier index to get info.\\n     */\\n    function getTier(uint256 index)\\n        external\\n        view\\n        override\\n        returns (Tier memory tier_)\\n    {\\n        tier_ = _tiers[index];\\n    }\\n\\n    /**\\n     * @notice It returns information about a Tier for a token ID.\\n     * @param tokenId ID of the token to get Tier info.\\n     */\\n    function getTokenTier(uint256 tokenId)\\n        external\\n        view\\n        override\\n        returns (uint256 index_, Tier memory tier_)\\n    {\\n        index_ = _tokenTier[tokenId];\\n        tier_ = _tiers[index_];\\n    }\\n\\n    /**\\n     * @notice It returns an array of token IDs owned by an address.\\n     * @dev It uses a EnumerableSet to store values and loops over each element to add to the array.\\n     * @dev Can be costly if calling within a contract for address with many tokens.\\n     */\\n    function getTierHashes(uint256 tierIndex)\\n        external\\n        view\\n        override\\n        returns (string[] memory hashes_)\\n    {\\n        hashes_ = _tiers[tierIndex].hashes;\\n    }\\n\\n    /**\\n     * @notice It returns an array of token IDs owned by an address.\\n     * @dev It uses a EnumerableSet to store values and loops over each element to add to the array.\\n     * @dev Can be costly if calling within a contract for address with many tokens.\\n     */\\n    function getOwnedTokens(address owner)\\n        external\\n        view\\n        override\\n        returns (uint256[] memory owned_)\\n    {\\n        EnumerableSet.UintSet storage set = _ownerTokenIDs[owner];\\n        owned_ = new uint256[](set.length());\\n        for (uint256 i; i < owned_.length; i++) {\\n            owned_[i] = set.at(i);\\n        }\\n    }\\n\\n    /**\\n     * @notice The contract metadata URI.\\n     */\\n    function contractURI() external view override returns (string memory) {\\n        return _contractURIHash;\\n    }\\n\\n    /**\\n     * @notice The token URI is based on the token ID.\\n     */\\n    function tokenURI(uint256 tokenId)\\n        public\\n        view\\n        override\\n        returns (string memory)\\n    {\\n        require(_exists(tokenId), \\\"TellerNFT: URI query for nonexistent token\\\");\\n\\n        string memory baseURI = _baseURI();\\n        return\\n            bytes(baseURI).length > 0\\n                ? string(abi.encodePacked(baseURI, _tokenURIHash(tokenId)))\\n                : \\\"\\\";\\n    }\\n\\n    /**\\n     * @notice It mints a new token for a Tier index.\\n     * @param tierIndex Tier to mint token on.\\n     * @param owner The owner of the new token.\\n     *\\n     * Requirements:\\n     *  - Caller must be an authorized minter\\n     */\\n    function mint(uint256 tierIndex, address owner)\\n        external\\n        override\\n        onlyMinter\\n    {\\n        // Get the new token ID\\n        uint256 tokenId = _tokenCounter.current();\\n        _tokenCounter.increment();\\n\\n        // Mint and set the token to the tier index\\n        _safeMint(owner, tokenId);\\n        _tokenTier[tokenId] = tierIndex;\\n\\n        // Set owner\\n        _setOwner(owner, tokenId);\\n    }\\n\\n    /**\\n     * @notice Adds a new Tier to be minted with the given information.\\n     * @dev It auto increments the index of the next tier to add.\\n     * @param newTier Information about the new tier to add.\\n     *\\n     * Requirements:\\n     *  - Caller must have the {MINTER} role\\n     */\\n    function addTier(Tier memory newTier) external override onlyMinter {\\n        Tier storage tier = _tiers[_tierCounter.current()];\\n\\n        tier.baseLoanSize = newTier.baseLoanSize;\\n        tier.hashes = newTier.hashes;\\n        tier.contributionAsset = newTier.contributionAsset;\\n        tier.contributionSize = newTier.contributionSize;\\n        tier.contributionMultiplier = newTier.contributionMultiplier;\\n\\n        _tierCounter.increment();\\n    }\\n\\n    function removeMinter(address minter) external onlyMinter {\\n        revokeRole(MINTER, minter);\\n    }\\n\\n    function addMinter(address minter) public onlyMinter {\\n        _setupRole(MINTER, minter);\\n    }\\n\\n    /**\\n     * @notice Sets the contract level metadata URI hash.\\n     * @param contractURIHash The hash to the initial contract level metadata.\\n     */\\n    function setContractURIHash(string memory contractURIHash)\\n        external\\n        override\\n        onlyAdmin\\n    {\\n        _contractURIHash = contractURIHash;\\n    }\\n\\n    /**\\n     * @notice Initializes the TellerNFT.\\n     * @param minters The addresses that should allowed to mint tokens.\\n     */\\n    function initialize(address[] calldata minters)\\n        external\\n        override\\n        initializer\\n    {\\n        __ERC721_init(\\\"Teller NFT\\\", \\\"TNFT\\\");\\n        __AccessControl_init();\\n\\n        for (uint256 i; i < minters.length; i++) {\\n            _setupRole(MINTER, minters[i]);\\n        }\\n\\n        _metadataBaseURI = \\\"https://gateway.pinata.cloud/ipfs/\\\";\\n        _contractURIHash = \\\"QmWAfQFFwptzRUCdF2cBFJhcB2gfHJMd7TQt64dZUysk3R\\\";\\n    }\\n\\n    function supportsInterface(bytes4 interfaceId)\\n        public\\n        view\\n        override(AccessControlUpgradeable, ERC721Upgradeable)\\n        returns (bool)\\n    {\\n        return\\n            interfaceId == type(ITellerNFT).interfaceId ||\\n            ERC721Upgradeable.supportsInterface(interfaceId) ||\\n            AccessControlUpgradeable.supportsInterface(interfaceId);\\n    }\\n\\n    /**\\n     * @notice It returns the hash to use for the token URI.\\n     */\\n    function _tokenURIHash(uint256 tokenId)\\n        internal\\n        view\\n        returns (string memory)\\n    {\\n        string[] storage tierImageHashes = _tiers[_tokenTier[tokenId]].hashes;\\n        return tierImageHashes[tokenId.mod(tierImageHashes.length)];\\n    }\\n\\n    /**\\n     * @notice The base URI path where the token media is hosted.\\n     * @dev Base URI for computing {tokenURI}.\\n     */\\n    function _baseURI() internal view override returns (string memory) {\\n        return _metadataBaseURI;\\n    }\\n\\n    /**\\n     * @notice Moves token to new owner set and then transfers.\\n     */\\n    function _transfer(\\n        address from,\\n        address to,\\n        uint256 tokenId\\n    ) internal override {\\n        _setOwner(to, tokenId);\\n        super._transfer(from, to, tokenId);\\n    }\\n\\n    /**\\n     * @notice It removes the token from the current owner set and adds to new owner.\\n     */\\n    function _setOwner(address newOwner, uint256 tokenId) internal {\\n        address currentOwner = ownerOf(tokenId);\\n        if (currentOwner != address(0)) {\\n            _ownerTokenIDs[currentOwner].remove(tokenId);\\n        }\\n        _ownerTokenIDs[newOwner].add(tokenId);\\n    }\\n\\n    function _msgData() internal pure override returns (bytes calldata) {\\n        return msg.data;\\n    }\\n}\\n\",\"keccak256\":\"0x39fd6d70fd1aa5ae45465d7eeb38f74e2bf90535c2510782fb0bb5f720250ac5\",\"license\":\"MIT\"},\"contracts/settings/platform/PlatformSettingsFacet.sol\":{\"content\":\"// SPDX-License-Identifier: MIT\\npragma solidity ^0.8.0;\\n\\n// Contracts\\nimport { RolesMods } from \\\"../../contexts2/access-control/roles/RolesMods.sol\\\";\\nimport { ADMIN, AUTHORIZED } from \\\"../../shared/roles.sol\\\";\\n\\n// Libraries\\nimport {\\n    PlatformSettingsLib,\\n    PlatformSetting\\n} from \\\"./libraries/PlatformSettingsLib.sol\\\";\\nimport { AppStorageLib } from \\\"../../storage/app.sol\\\";\\n\\n// Storage\\nimport { AppStorageLib, AppStorage } from \\\"../../storage/app.sol\\\";\\n\\n/**\\n * @notice Utility library of inline functions on the PlatformSetting struct.\\n *\\n * @author develop@teller.finance\\n */\\ncontract PlatformSettingsFacet is RolesMods {\\n    /**\\n     * @notice This event is emitted when a new platform setting is created.\\n     * @param settingName New setting name.\\n     * @param sender Address that created it.\\n     * @param value Value for the new setting.\\n     * @param minValue Minimum boundary for the new setting.\\n     * @param maxValue Maximum boundary for the new setting.\\n     */\\n    event PlatformSettingCreated(\\n        bytes32 indexed settingName,\\n        address indexed sender,\\n        uint256 value,\\n        uint256 minValue,\\n        uint256 maxValue\\n    );\\n\\n    /**\\n     * @notice This event is emitted when a platform setting is updated.\\n     * @param settingName Keccak'ed settings name.\\n     * @param sender Address that updated it.\\n     * @param oldValue Previous value for the setting.\\n     * @param newValue New value for the setting.\\n     */\\n    event PlatformSettingUpdated(\\n        bytes32 indexed settingName,\\n        address indexed sender,\\n        uint256 oldValue,\\n        uint256 newValue\\n    );\\n\\n    /**\\n     * @notice This event is emitted when a current platform setting is removed.\\n     * @param settingName setting name removed.\\n     * @param sender address that removed it.\\n     * @param oldMin Previous minimum boundary.\\n     * @param oldMax Previous minimum boundary.\\n     * @param newMin New minimum boundary.\\n     * @param newMax New maximum boundary.\\n     */\\n    event PlatformSettingBoundariesUpdated(\\n        bytes32 indexed settingName,\\n        address indexed sender,\\n        uint256 oldMin,\\n        uint256 oldMax,\\n        uint256 newMin,\\n        uint256 newMax\\n    );\\n\\n    /**\\n     * @notice Gets the values for a platform setting name.\\n     * @param name The keccak'ed name for a setting.\\n     * @return setting_ Values for the setting {name}\\n     */\\n    function getPlatformSetting(bytes32 name)\\n        external\\n        view\\n        returns (PlatformSetting memory setting_)\\n    {\\n        setting_ = PlatformSettingsLib.s(name);\\n    }\\n\\n    /**\\n     * @notice It creates a new platform setting given a name, min and max values.\\n     * @param name Keccak'ed name for the setting.\\n     * @param value Initial value for the setting.\\n     * @param min Minimum value allowed for the setting.\\n     * @param max Maximum value allowed for the setting.\\n     */\\n    function createPlatformSetting(\\n        bytes32 name,\\n        uint256 value,\\n        uint256 min,\\n        uint256 max\\n    ) external authorized(ADMIN, msg.sender) {\\n        require(\\n            !PlatformSettingsLib.s(name).exists,\\n            \\\"Teller: platform setting already exists\\\"\\n        );\\n        require(value >= min, \\\"Teller: platform setting value less than min\\\");\\n        require(\\n            value <= max,\\n            \\\"Teller: platform setting value greater than max\\\"\\n        );\\n\\n        PlatformSettingsLib.s(name).value = value;\\n        PlatformSettingsLib.s(name).min = min;\\n        PlatformSettingsLib.s(name).max = max;\\n        PlatformSettingsLib.s(name).exists = true;\\n\\n        emit PlatformSettingCreated(name, msg.sender, value, min, max);\\n    }\\n\\n    /**\\n     * @notice It updates a current platform setting.\\n     * @param name Keccak'ed name for the setting.\\n     * @param newValue the new value to set in the platform setting.\\n     *\\n     * Requirements:\\n     *  - New value is equal to the current value.\\n     *  - New value is grater than the max value.\\n     *  - New value is less than the min value\\n     */\\n    function updatePlatformSetting(bytes32 name, uint256 newValue)\\n        external\\n        authorized(ADMIN, msg.sender)\\n        returns (uint256 oldValue)\\n    {\\n        require(\\n            PlatformSettingsLib.s(name).exists,\\n            \\\"Teller: platform setting not exists\\\"\\n        );\\n        require(\\n            PlatformSettingsLib.s(name).value != newValue,\\n            \\\"Teller: new platform setting not different\\\"\\n        );\\n        require(\\n            newValue >= PlatformSettingsLib.s(name).min,\\n            \\\"Teller: new platform setting less than min\\\"\\n        );\\n        require(\\n            newValue <= PlatformSettingsLib.s(name).max,\\n            \\\"Teller: new platform setting greater than max\\\"\\n        );\\n\\n        oldValue = PlatformSettingsLib.s(name).value;\\n        PlatformSettingsLib.s(name).value = newValue;\\n\\n        emit PlatformSettingUpdated(name, msg.sender, oldValue, newValue);\\n    }\\n\\n    /**\\n     * @notice Updates the boundary (min & max) values for a platform setting.\\n     * @param name Keccak'ed name for the setting.\\n     * @param min New minimum boundary for the setting.\\n     * @param max New maximum boundary for the setting.\\n     */\\n    function updatePlatformSettingBoundaries(\\n        bytes32 name,\\n        uint256 min,\\n        uint256 max\\n    ) external authorized(ADMIN, msg.sender) {\\n        require(\\n            PlatformSettingsLib.s(name).exists,\\n            \\\"Teller: platform setting not exists\\\"\\n        );\\n\\n        emit PlatformSettingBoundariesUpdated(\\n            name,\\n            msg.sender,\\n            PlatformSettingsLib.s(name).min,\\n            PlatformSettingsLib.s(name).max,\\n            min,\\n            max\\n        );\\n\\n        PlatformSettingsLib.s(name).min = min;\\n        PlatformSettingsLib.s(name).max = max;\\n    }\\n}\\n\",\"keccak256\":\"0xb8b4d08d132a2c7b5abed5acb97928413eccf3d79715f7b54111d17c869951a0\",\"license\":\"MIT\"},\"contracts/settings/platform/libraries/PlatformSettingsLib.sol\":{\"content\":\"// SPDX-License-Identifier: MIT\\npragma solidity ^0.8.0;\\n\\nimport { AppStorageLib } from \\\"../../../storage/app.sol\\\";\\nimport \\\"../names.sol\\\" as NAMES;\\nimport {\\n    RolesMods\\n} from \\\"../../../contexts2/access-control/roles/RolesMods.sol\\\";\\nimport { ADMIN, AUTHORIZED } from \\\"../../../shared/roles.sol\\\";\\nimport { RolesLib } from \\\"../../../contexts2/access-control/roles/RolesLib.sol\\\";\\n\\n// It defines a platform settings. It includes: value, min, and max values.\\nstruct PlatformSetting {\\n    uint256 value;\\n    uint256 min;\\n    uint256 max;\\n    bool exists;\\n}\\n\\n/**\\n * @notice Utility library of inline functions on the PlatformSetting struct.\\n *\\n * @author develop@teller.finance\\n */\\nlibrary PlatformSettingsLib {\\n    function s(bytes32 name) internal view returns (PlatformSetting storage) {\\n        return AppStorageLib.store().platformSettings[name];\\n    }\\n\\n    /**\\n     * @notice It gets the current \\\"RequiredSubmissionsPercentage\\\" setting's value\\n     * @return value_ the current value.\\n     */\\n    function getRequiredSubmissionsPercentageValue()\\n        internal\\n        view\\n        returns (uint256 value_)\\n    {\\n        value_ = s(NAMES.REQUIRED_SUBMISSIONS_PERCENTAGE).value;\\n    }\\n\\n    /**\\n     * @notice It gets the current \\\"MaximumTolerance\\\" setting's value\\n     * @return value_ the current value.\\n     */\\n    function getMaximumToleranceValue() internal view returns (uint256 value_) {\\n        value_ = s(NAMES.MAXIMUM_TOLERANCE).value;\\n    }\\n\\n    /**\\n     * @notice It gets the current \\\"ResponseExpiryLength\\\" setting's value\\n     * @return value_ the current value.\\n     */\\n    function getResponseExpiryLengthValue()\\n        internal\\n        view\\n        returns (uint256 value_)\\n    {\\n        value_ = s(NAMES.RESPONSE_EXPIRY_LENGTH).value;\\n    }\\n\\n    /**\\n     * @notice It gets the current \\\"SafetyInterval\\\" setting's value\\n     * @return value_ the current value.\\n     */\\n    function getSafetyIntervalValue() internal view returns (uint256 value_) {\\n        value_ = s(NAMES.SAFETY_INTERVAL).value;\\n    }\\n\\n    /**\\n     * @notice It gets the current \\\"TermsExpiryTime\\\" setting's value\\n     * @return value_ the current value.\\n     */\\n    function getTermsExpiryTimeValue() internal view returns (uint256 value_) {\\n        value_ = s(NAMES.TERMS_EXPIRY_TIME).value;\\n    }\\n\\n    /**\\n     * @notice It gets the current \\\"LiquidateRewardPercent\\\" setting's value\\n     * @return value_ the current value.\\n     */\\n    function getLiquidateRewardPercent()\\n        internal\\n        view\\n        returns (uint256 value_)\\n    {\\n        value_ = s(NAMES.LIQUIDATE_REWARD_PERCENT).value;\\n    }\\n\\n    /**\\n     * @notice It gets the current \\\"MaximumLoanDuration\\\" setting's value\\n     * @return value_ the current value.\\n     */\\n    function getMaximumLoanDurationValue()\\n        internal\\n        view\\n        returns (uint256 value_)\\n    {\\n        value_ = s(NAMES.MAXIMUM_LOAN_DURATION).value;\\n    }\\n\\n    /**\\n     * @notice It gets the current \\\"RequestLoanTermsRateLimit\\\" setting's value\\n     * @return value_ the current value.\\n     */\\n    function getRequestLoanTermsRateLimitValue()\\n        internal\\n        view\\n        returns (uint256 value_)\\n    {\\n        value_ = s(NAMES.REQUEST_LOAN_TERMS_RATE_LIMIT).value;\\n    }\\n\\n    /**\\n     * @notice It gets the current \\\"CollateralBuffer\\\" setting's value\\n     * @return value_ the current value.\\n     */\\n    function getCollateralBufferValue() internal view returns (uint256 value_) {\\n        value_ = s(NAMES.COLLATERAL_BUFFER).value;\\n    }\\n\\n    /**\\n     * @notice It gets the current \\\"OverCollateralizedBuffer\\\" setting's value\\n     * @return value_ the current value.\\n     */\\n    function getOverCollateralizedBufferValue()\\n        internal\\n        view\\n        returns (uint256 value_)\\n    {\\n        value_ = s(NAMES.OVER_COLLATERALIZED_BUFFER).value;\\n    }\\n}\\n\",\"keccak256\":\"0xbeef1937dc1ed1f6f78b80f0737f018565ab264184cf05ef54c3c28ecd55a09b\",\"license\":\"MIT\"},\"contracts/settings/platform/names.sol\":{\"content\":\"// SPDX-License-Identifier: MIT\\npragma solidity ^0.8.0;\\n\\n/**\\n        @dev The setting name for the required subsmission settings.\\n        @dev This is the minimum percentage of node responses that will be required by the platform to either take out a loan, and to claim accrued interest. If the number of node responses are less than the ones specified here, the loan or accrued interest claim request will be rejected by the platform\\n     */\\nbytes32 constant REQUIRED_SUBMISSIONS_PERCENTAGE = keccak256(\\n    \\\"RequiredSubmissionsPercentage\\\"\\n);\\n\\n/**\\n        @dev The setting name for the maximum tolerance settings.\\n        @dev This is the maximum tolerance for the values submitted (by nodes) when they are aggregated (average). It is used in the consensus mechanisms.\\n        @dev This is a percentage value with 2 decimal places.\\n            i.e. maximumTolerance of 325 => tolerance of 3.25% => 0.0325 of value\\n            i.e. maximumTolerance of 0 => It means all the values submitted must be equals.\\n        @dev The max value is 100% => 10000\\n     */\\nbytes32 constant MAXIMUM_TOLERANCE = keccak256(\\\"MaximumTolerance\\\");\\n/**\\n        @dev The setting name for the response expiry length settings.\\n        @dev This is the maximum time (in seconds) a node has to submit a response. After that time, the response is considered expired and will not be accepted by the protocol.\\n     */\\n\\nbytes32 constant RESPONSE_EXPIRY_LENGTH = keccak256(\\\"ResponseExpiryLength\\\");\\n\\n/**\\n        @dev The setting name for the safety interval settings.\\n        @dev This is the minimum time you need to wait (in seconds) between the last time you deposit collateral and you take out the loan.\\n        @dev It is used to avoid potential attacks using Flash Loans (AAVE) or Flash Swaps (Uniswap V2).\\n     */\\nbytes32 constant SAFETY_INTERVAL = keccak256(\\\"SafetyInterval\\\");\\n\\n/**\\n        @dev The setting name for the term expiry time settings.\\n        @dev This represents the time (in seconds) that loan terms will be available after requesting them.\\n        @dev After this time, the loan terms will expire and the borrower will need to request it again.\\n     */\\nbytes32 constant TERMS_EXPIRY_TIME = keccak256(\\\"TermsExpiryTime\\\");\\n\\n/**\\n        @dev The setting name for the liquidation reward percent setting.\\n        @dev It represents the percentage value (with 2 decimal places) for the MAX liquidation reward.\\n            i.e. an ETH liquidation price at 5% is stored as 500\\n     */\\nbytes32 constant LIQUIDATE_REWARD_PERCENT = keccak256(\\\"LiquidateRewardPercent\\\");\\n\\n/**\\n        @dev The setting name for the maximum loan duration settings.\\n        @dev The maximum loan duration setting is defined in seconds. Loans will not be given for timespans larger than the one specified here.\\n     */\\nbytes32 constant MAXIMUM_LOAN_DURATION = keccak256(\\\"MaximumLoanDuration\\\");\\n\\n/**\\n        @dev The setting name for the request loan terms rate limit settings.\\n        @dev The request loan terms rate limit setting is defined in seconds.\\n     */\\nbytes32 constant REQUEST_LOAN_TERMS_RATE_LIMIT = keccak256(\\n    \\\"RequestLoanTermsRateLimit\\\"\\n);\\n\\n/**\\n        @dev The setting name for the collateral buffer.\\n        @dev The collateral buffer is a safety buffer above the required collateral amount to liquidate a loan. It is required to ensure the loan does not get liquidated immediately after the loan is taken out if the value of the collateral asset deposited drops drastically.\\n        @dev It represents the percentage value (with 2 decimal places) of a collateral buffer.\\n            e.g.: collateral buffer at 100% is stored as 10000.\\n     */\\nbytes32 constant COLLATERAL_BUFFER = keccak256(\\\"CollateralBuffer\\\");\\n\\n/**\\n        @dev The setting name for the over collateralized buffer.\\n        @dev The over collateralized buffer is the minimum required collateral ratio in order for a loan to be taken out without an Escrow contract and for the funds to go to the borrower's EOA (external overridely owned account).\\n        @dev It represents the percentage value (with 2 decimal places) of a over collateralized buffer.\\n            e.g.: over collateralized buffer at 130% is stored as 13000.\\n     */\\nbytes32 constant OVER_COLLATERALIZED_BUFFER = keccak256(\\n    \\\"OverCollateralizedBuffer\\\"\\n);\\n\",\"keccak256\":\"0xacf6bcb8c4afd2f337a0161e8be64b016c1b350d336cd862245dd922fcd10f33\",\"license\":\"MIT\"},\"contracts/shared/libraries/CacheLib.sol\":{\"content\":\"// SPDX-License-Identifier: MIT\\npragma solidity ^0.8.0;\\n\\nenum CacheType { Address, Uint, Int, Byte, Bool }\\n\\n/**\\n * @notice This struct manages the cache of the library instance.\\n * @param addresses A mapping of address values mapped to cache keys in bytes.\\n * @param uints A mapping of uint values mapped to cache keys names in bytes.\\n * @param ints A mapping of int values mapped to cache keys names in bytes.\\n * @param bites A mapping of bytes values mapped to cache keys names in bytes.\\n * @param bools A mapping of bool values mapped to cache keys names in bytes.\\n */\\nstruct Cache {\\n    // Mapping of cache keys names to address values.\\n    mapping(bytes32 => address) addresses;\\n    // Mapping of cache keys names to uint256 values.\\n    mapping(bytes32 => uint256) uints;\\n    // Mapping of cache keys names to int256 values.\\n    mapping(bytes32 => int256) ints;\\n    // Mapping of cache keys names to bytes32 values.\\n    mapping(bytes32 => bytes32) bites;\\n    // Mapping of cache keys names to bool values.\\n    mapping(bytes32 => bool) bools;\\n}\\n\\nlibrary CacheLib {\\n    // The constant for the initialization check\\n    bytes32 private constant INITIALIZED = keccak256(\\\"Initialized\\\");\\n\\n    /**\\n     * @notice Initializes the cache instance.\\n     * @param cache The current cache\\n     */\\n    function initialize(Cache storage cache) internal {\\n        requireNotExists(cache);\\n        cache.bools[INITIALIZED] = true;\\n    }\\n\\n    /**\\n     * @notice Checks whether the current cache does not, throwing an error if it does.\\n     * @param cache The current cache\\n     */\\n    function requireNotExists(Cache storage cache) internal view {\\n        require(!exists(cache), \\\"CACHE_ALREADY_EXISTS\\\");\\n    }\\n\\n    /**\\n     * @notice Checks whether the current cache exists, throwing an error if the cache does not.\\n     * @param cache The current cache\\n     */\\n    function requireExists(Cache storage cache) internal view {\\n        require(exists(cache), \\\"CACHE_DOES_NOT_EXIST\\\");\\n    }\\n\\n    /**\\n     * @notice Tests whether the current cache exists or not.\\n     * @param cache The current cache.\\n     * @return bool True if the cache exists.\\n     */\\n    function exists(Cache storage cache) internal view returns (bool) {\\n        return cache.bools[INITIALIZED];\\n    }\\n\\n    function update(\\n        Cache storage cache,\\n        bytes32 key,\\n        bytes32 value,\\n        CacheType cacheType\\n    ) internal {\\n        requireExists(cache);\\n\\n        assembly {\\n            mstore(0, value)\\n        }\\n        if (cacheType == CacheType.Address) {\\n            address addr;\\n            assembly {\\n                addr := mload(0)\\n            }\\n            cache.addresses[key] = addr;\\n        } else if (cacheType == CacheType.Uint) {\\n            uint256 ui;\\n            assembly {\\n                ui := mload(0)\\n            }\\n            cache.uints[key] = ui;\\n        } else if (cacheType == CacheType.Int) {\\n            int256 i;\\n            assembly {\\n                i := mload(0)\\n            }\\n            cache.ints[key] = i;\\n        } else if (cacheType == CacheType.Byte) {\\n            cache.bites[key] = value;\\n        } else if (cacheType == CacheType.Bool) {\\n            bool b;\\n            assembly {\\n                b := mload(0)\\n            }\\n            cache.bools[key] = b;\\n        }\\n    }\\n\\n    /**\\n     */\\n    function clearCache(\\n        Cache storage cache,\\n        bytes32[5] memory keysToClear,\\n        CacheType[5] memory keyTypes\\n    ) internal {\\n        requireExists(cache);\\n        require(\\n            keysToClear.length == keyTypes.length,\\n            \\\"ARRAY_LENGTHS_MISMATCH\\\"\\n        );\\n        for (uint256 i; i <= keysToClear.length; i++) {\\n            if (keyTypes[i] == CacheType.Address) {\\n                delete cache.addresses[keysToClear[i]];\\n            } else if (keyTypes[i] == CacheType.Uint) {\\n                delete cache.uints[keysToClear[i]];\\n            } else if (keyTypes[i] == CacheType.Int) {\\n                delete cache.ints[keysToClear[i]];\\n            } else if (keyTypes[i] == CacheType.Byte) {\\n                delete cache.bites[keysToClear[i]];\\n            } else if (keyTypes[i] == CacheType.Bool) {\\n                delete cache.bools[keysToClear[i]];\\n            }\\n        }\\n    }\\n}\\n\",\"keccak256\":\"0x4d9045666e86d675f7bd48202f9a77d0675fa20b2184131ad369710ac5eb3203\",\"license\":\"MIT\"},\"contracts/shared/proxy/beacon/InitializeableBeaconProxy.sol\":{\"content\":\"// SPDX-License-Identifier: MIT\\npragma solidity ^0.8.0;\\n\\nimport \\\"@openzeppelin/contracts/proxy/beacon/IBeacon.sol\\\";\\nimport \\\"@openzeppelin/contracts/proxy/Proxy.sol\\\";\\nimport \\\"@openzeppelin/contracts/utils/Address.sol\\\";\\n\\n/**\\n * @dev This contract implements a proxy that gets the implementation address for each call from a {UpgradeableBeacon}.\\n *\\n * The beacon address is stored in storage slot `uint256(keccak256('eip1967.proxy.beacon')) - 1`, so that it doesn't\\n * conflict with the storage layout of the implementation behind the proxy.\\n *\\n * _Available since v3.4._\\n */\\ncontract InitializeableBeaconProxy is Proxy {\\n    /**\\n     * @dev The storage slot of the UpgradeableBeacon contract which defines the implementation for this proxy.\\n     * This is bytes32(uint256(keccak256('eip1967.proxy.beacon')) - 1)) and is validated in the constructor.\\n     */\\n    bytes32 private constant _BEACON_SLOT =\\n        0xa3f0ad74e5423aebfd80d3ef4346578335a9a72aeaee59ff6cb3582b35133d50;\\n\\n    /**\\n     * @dev Initializes the proxy with `beacon`.\\n     *\\n     * If `data` is nonempty, it's used as data in a delegate call to the implementation returned by the beacon. This\\n     * will typically be an encoded function call, and allows initializating the storage of the proxy like a Solidity\\n     * constructor.\\n     *\\n     * Requirements:\\n     *\\n     * - `beacon` must be a contract with the interface {IBeacon}.\\n     */\\n    function initialize(address beacon, bytes memory data) external payable {\\n        assert(\\n            _BEACON_SLOT ==\\n                bytes32(uint256(keccak256(\\\"eip1967.proxy.beacon\\\")) - 1)\\n        );\\n        require(_beacon() == address(0), \\\"Beacon: already initialized\\\");\\n\\n        _setBeacon(beacon, data);\\n    }\\n\\n    /**\\n     * @dev Returns the current beacon address.\\n     */\\n    function _beacon() internal view virtual returns (address beacon) {\\n        bytes32 slot = _BEACON_SLOT;\\n        // solhint-disable-next-line no-inline-assembly\\n        assembly {\\n            beacon := sload(slot)\\n        }\\n    }\\n\\n    /**\\n     * @dev Returns the current implementation address of the associated beacon.\\n     */\\n    function _implementation()\\n        internal\\n        view\\n        virtual\\n        override\\n        returns (address)\\n    {\\n        return IBeacon(_beacon()).implementation();\\n    }\\n\\n    /**\\n     * @dev Changes the proxy to use a new beacon.\\n     *\\n     * If `data` is nonempty, it's used as data in a delegate call to the implementation returned by the beacon.\\n     *\\n     * Requirements:\\n     *\\n     * - `beacon` must be a contract.\\n     * - The implementation returned by `beacon` must be a contract.\\n     */\\n    function _setBeacon(address beacon, bytes memory data) internal virtual {\\n        bytes32 slot = _BEACON_SLOT;\\n\\n        // solhint-disable-next-line no-inline-assembly\\n        assembly {\\n            sstore(slot, beacon)\\n        }\\n\\n        if (data.length > 0) {\\n            Address.functionDelegateCall(\\n                _implementation(),\\n                data,\\n                \\\"BeaconProxy: function call failed\\\"\\n            );\\n        }\\n    }\\n\\n    receive() external payable override {\\n        // Needed to receive ETH without data\\n        // OZ Proxy contract calls the _fallback() on receive and tries to delegatecall which fails\\n    }\\n}\\n\",\"keccak256\":\"0x48aefbbc0c51b106f4d69580fa802dc6c5d7573fee24cb7d08f5370d79a2e6f2\",\"license\":\"MIT\"},\"contracts/shared/proxy/beacon/UpgradeableBeaconFactory.sol\":{\"content\":\"// SPDX-License-Identifier: MIT\\npragma solidity ^0.8.0;\\n\\nimport \\\"@openzeppelin/contracts/proxy/Clones.sol\\\";\\nimport \\\"@openzeppelin/contracts/proxy/beacon/IBeacon.sol\\\";\\nimport \\\"@openzeppelin/contracts/access/Ownable.sol\\\";\\nimport \\\"@openzeppelin/contracts/utils/Address.sol\\\";\\nimport \\\"./InitializeableBeaconProxy.sol\\\";\\n\\n/**\\n * @dev This contract is used in conjunction with one or more instances of {BeaconProxy} to determine their\\n * implementation contract, which is where they will delegate all function calls.\\n *\\n * An owner is able to change the implementation the beacon points to, thus upgrading the proxies that use this beacon.\\n */\\ncontract UpgradeableBeaconFactory is IBeacon, Ownable {\\n    address private _implementation;\\n    InitializeableBeaconProxy public proxyAddress;\\n\\n    /**\\n     * @dev Emitted when the implementation returned by the beacon is changed.\\n     */\\n    event Upgraded(address indexed implementation);\\n\\n    /**\\n     * @dev Sets the address of the initial implementation, and the deployer account as the owner who can upgrade the\\n     * beacon.\\n     */\\n    constructor(address payable proxyAddress_, address implementation_) {\\n        proxyAddress = InitializeableBeaconProxy(proxyAddress_);\\n        _setImplementation(implementation_);\\n    }\\n\\n    /**\\n     * @dev Returns the current implementation address.\\n     */\\n    function implementation() public view virtual override returns (address) {\\n        return _implementation;\\n    }\\n\\n    function cloneProxy(bytes memory initData)\\n        external\\n        returns (address payable proxy_)\\n    {\\n        proxy_ = payable(Clones.clone(address(proxyAddress)));\\n        InitializeableBeaconProxy(proxy_).initialize(address(this), initData);\\n    }\\n\\n    /**\\n     * @dev Upgrades the beacon to a new implementation.\\n     *\\n     * Emits an {Upgraded} event.\\n     *\\n     * Requirements:\\n     *\\n     * - msg.sender must be the owner of the contract.\\n     * - `newImplementation` must be a contract.\\n     */\\n    function upgradeTo(address newImplementation) public virtual onlyOwner {\\n        _setImplementation(newImplementation);\\n        emit Upgraded(newImplementation);\\n    }\\n\\n    /**\\n     * @dev Sets the implementation contract address for this beacon\\n     *\\n     * Requirements:\\n     *\\n     * - `newImplementation` must be a contract.\\n     */\\n    function _setImplementation(address newImplementation) private {\\n        require(\\n            Address.isContract(newImplementation),\\n            \\\"UpgradeableBeacon: implementation is not a contract\\\"\\n        );\\n        _implementation = newImplementation;\\n    }\\n}\\n\",\"keccak256\":\"0x8919fcdfb49018474c872c462c11b21a50faa7ab80f0162abd6b657cbbc5d04c\",\"license\":\"MIT\"},\"contracts/shared/roles.sol\":{\"content\":\"// SPDX-License-Identifier: MIT\\npragma solidity ^0.8.0;\\n\\nbytes32 constant ADMIN = keccak256(\\\"ADMIN\\\");\\nbytes32 constant PAUSER = keccak256(\\\"PAUSER\\\");\\nbytes32 constant AUTHORIZED = keccak256(\\\"AUTHORIZED\\\");\\n\",\"keccak256\":\"0x0888cf40ea019be9f0ee94cb8af1e030454c28f8c6512db9d89ed027fe21f18f\",\"license\":\"MIT\"},\"contracts/storage/app.sol\":{\"content\":\"// SPDX-License-Identifier: MIT\\npragma solidity ^0.8.0;\\n\\n// Contracts\\nimport { TellerNFT } from \\\"../nft/TellerNFT.sol\\\";\\n\\n// Interfaces\\n\\n// Libraries\\nimport {\\n    PlatformSetting\\n} from \\\"../settings/platform/libraries/PlatformSettingsLib.sol\\\";\\nimport { Cache } from \\\"../shared/libraries/CacheLib.sol\\\";\\nimport {\\n    UpgradeableBeaconFactory\\n} from \\\"../shared/proxy/beacon/UpgradeableBeaconFactory.sol\\\";\\n\\nstruct AppStorage {\\n    bool initialized;\\n    bool platformRestricted;\\n    mapping(bytes32 => bool) paused;\\n    mapping(bytes32 => PlatformSetting) platformSettings;\\n    mapping(address => Cache) assetSettings;\\n    mapping(string => address) assetAddresses;\\n    mapping(address => bool) cTokenRegistry;\\n    TellerNFT nft;\\n    UpgradeableBeaconFactory loansEscrowBeacon;\\n    UpgradeableBeaconFactory collateralEscrowBeacon;\\n    address nftLiquidationController;\\n    UpgradeableBeaconFactory tTokenBeacon;\\n}\\n\\nlibrary AppStorageLib {\\n    function store() internal pure returns (AppStorage storage s) {\\n        assembly {\\n            s.slot := 0\\n        }\\n    }\\n}\\n\",\"keccak256\":\"0xade1dda8163fc39658e5f6929b662187584b29cce47e9cb0915fc0d1832fb4f7\",\"license\":\"MIT\"}},\"version\":1}",
      "bytecode": "0x608060405234801561001057600080fd5b50610838806100206000396000f3fe608060405234801561001057600080fd5b506004361061004c5760003560e01c806374b1d75d146100515780639dec88b914610066578063ce19912914610079578063d10a0aec146100ca575b600080fd5b61006461005f36600461072c565b6100eb565b005b610064610074366004610757565b610201565b61008c6100873660046106f3565b610403565b6040516100c1919081518152602080830151908201526040808301519082015260609182015115159181019190915260800190565b60405180910390f35b6100dd6100d836600461070b565b610478565b6040519081526020016100c1565b7fdf8b4c520ffe197c5343c6f5aec59570151ef9a492f2c624fd45ddde6135ec423361011782826106a9565b61013c5760405162461bcd60e51b815260040161013390610788565b60405180910390fd5b60008581526002602052604090206003015460ff1661016d5760405162461bcd60e51b8152600401610133906107bf565b33857fe6e38563c9d51c6265d9223ba7055d6de967b958c10c72bb8039f3e0a911efa76101a582600090815260026020526040902090565b6001015460008981526002602052604090206002015460408051928352602083019190915281018890526060810187905260800160405180910390a3505060009283526002602081905260409093206001810192909255910155565b7fdf8b4c520ffe197c5343c6f5aec59570151ef9a492f2c624fd45ddde6135ec423361022d82826106a9565b6102495760405162461bcd60e51b815260040161013390610788565b60008681526002602052604090206003015460ff16156102bb5760405162461bcd60e51b815260206004820152602760248201527f54656c6c65723a20706c6174666f726d2073657474696e6720616c72656164796044820152662065786973747360c81b6064820152608401610133565b838510156103205760405162461bcd60e51b815260206004820152602c60248201527f54656c6c65723a20706c6174666f726d2073657474696e672076616c7565206c60448201526b32b9b9903a3430b71036b4b760a11b6064820152608401610133565b828511156103885760405162461bcd60e51b815260206004820152602f60248201527f54656c6c65723a20706c6174666f726d2073657474696e672076616c7565206760448201526e0e4cac2e8cae440e8d0c2dc40dac2f608b1b6064820152608401610133565b6000868152600260208181526040928390208881556001808201899055928101879055600301805460ff191690921790915581518781529081018690528082018590529051339188917f88608f5277d08a47d0b5c4911811b474510dfcb1e303b13120b4fdd013ee4feb9181900360600190a3505050505050565b61043060405180608001604052806000815260200160008152602001600081526020016000151581525090565b600082815260026020526040902060408051608081018252825481526001830154602082015260028301549181019190915260039091015460ff161515606082015292915050565b60007fdf8b4c520ffe197c5343c6f5aec59570151ef9a492f2c624fd45ddde6135ec42336104a682826106a9565b6104c25760405162461bcd60e51b815260040161013390610788565b60008581526002602052604090206003015460ff166104f35760405162461bcd60e51b8152600401610133906107bf565b6000858152600260205260409020548414156105645760405162461bcd60e51b815260206004820152602a60248201527f54656c6c65723a206e657720706c6174666f726d2073657474696e67206e6f7460448201526908191a5999995c995b9d60b21b6064820152608401610133565b6000858152600260205260409020600101548410156105d85760405162461bcd60e51b815260206004820152602a60248201527f54656c6c65723a206e657720706c6174666f726d2073657474696e67206c657360448201526939903a3430b71036b4b760b11b6064820152608401610133565b60008581526002602052604090206002015484111561064f5760405162461bcd60e51b815260206004820152602d60248201527f54656c6c65723a206e657720706c6174666f726d2073657474696e672067726560448201526c0c2e8cae440e8d0c2dc40dac2f609b1b6064820152608401610133565b6000858152600260205260409020805493508490556040805184815260208101869052339187917ff5d6988acb4a237a95feb459c3b5d7f95ad15acfe26d31cd4bf88b8b1ec792de910160405180910390a3505092915050565b60009182527f7b305b6be5f275f648d05716597c483d754c2a242bd605feba3c64fb85360534602090815260408084206001600160a01b0393909316845291905290205460ff1690565b600060208284031215610704578081fd5b5035919050565b6000806040838503121561071d578081fd5b50508035926020909101359150565b600080600060608486031215610740578081fd5b505081359360208301359350604090920135919050565b6000806000806080858703121561076c578081fd5b5050823594602084013594506040840135936060013592509050565b6020808252601d908201527f416363657373436f6e74726f6c3a206e6f7420617574686f72697a6564000000604082015260600190565b60208082526023908201527f54656c6c65723a20706c6174666f726d2073657474696e67206e6f742065786960408201526273747360e81b60608201526080019056fea26469706673582212208e330f5e21469228141e79c02ddca1cd2864481c44635e165b755a3701a36d1964736f6c63430008030033",
      "deployedBytecode": "0x608060405234801561001057600080fd5b506004361061004c5760003560e01c806374b1d75d146100515780639dec88b914610066578063ce19912914610079578063d10a0aec146100ca575b600080fd5b61006461005f36600461072c565b6100eb565b005b610064610074366004610757565b610201565b61008c6100873660046106f3565b610403565b6040516100c1919081518152602080830151908201526040808301519082015260609182015115159181019190915260800190565b60405180910390f35b6100dd6100d836600461070b565b610478565b6040519081526020016100c1565b7fdf8b4c520ffe197c5343c6f5aec59570151ef9a492f2c624fd45ddde6135ec423361011782826106a9565b61013c5760405162461bcd60e51b815260040161013390610788565b60405180910390fd5b60008581526002602052604090206003015460ff1661016d5760405162461bcd60e51b8152600401610133906107bf565b33857fe6e38563c9d51c6265d9223ba7055d6de967b958c10c72bb8039f3e0a911efa76101a582600090815260026020526040902090565b6001015460008981526002602052604090206002015460408051928352602083019190915281018890526060810187905260800160405180910390a3505060009283526002602081905260409093206001810192909255910155565b7fdf8b4c520ffe197c5343c6f5aec59570151ef9a492f2c624fd45ddde6135ec423361022d82826106a9565b6102495760405162461bcd60e51b815260040161013390610788565b60008681526002602052604090206003015460ff16156102bb5760405162461bcd60e51b815260206004820152602760248201527f54656c6c65723a20706c6174666f726d2073657474696e6720616c72656164796044820152662065786973747360c81b6064820152608401610133565b838510156103205760405162461bcd60e51b815260206004820152602c60248201527f54656c6c65723a20706c6174666f726d2073657474696e672076616c7565206c60448201526b32b9b9903a3430b71036b4b760a11b6064820152608401610133565b828511156103885760405162461bcd60e51b815260206004820152602f60248201527f54656c6c65723a20706c6174666f726d2073657474696e672076616c7565206760448201526e0e4cac2e8cae440e8d0c2dc40dac2f608b1b6064820152608401610133565b6000868152600260208181526040928390208881556001808201899055928101879055600301805460ff191690921790915581518781529081018690528082018590529051339188917f88608f5277d08a47d0b5c4911811b474510dfcb1e303b13120b4fdd013ee4feb9181900360600190a3505050505050565b61043060405180608001604052806000815260200160008152602001600081526020016000151581525090565b600082815260026020526040902060408051608081018252825481526001830154602082015260028301549181019190915260039091015460ff161515606082015292915050565b60007fdf8b4c520ffe197c5343c6f5aec59570151ef9a492f2c624fd45ddde6135ec42336104a682826106a9565b6104c25760405162461bcd60e51b815260040161013390610788565b60008581526002602052604090206003015460ff166104f35760405162461bcd60e51b8152600401610133906107bf565b6000858152600260205260409020548414156105645760405162461bcd60e51b815260206004820152602a60248201527f54656c6c65723a206e657720706c6174666f726d2073657474696e67206e6f7460448201526908191a5999995c995b9d60b21b6064820152608401610133565b6000858152600260205260409020600101548410156105d85760405162461bcd60e51b815260206004820152602a60248201527f54656c6c65723a206e657720706c6174666f726d2073657474696e67206c657360448201526939903a3430b71036b4b760b11b6064820152608401610133565b60008581526002602052604090206002015484111561064f5760405162461bcd60e51b815260206004820152602d60248201527f54656c6c65723a206e657720706c6174666f726d2073657474696e672067726560448201526c0c2e8cae440e8d0c2dc40dac2f609b1b6064820152608401610133565b6000858152600260205260409020805493508490556040805184815260208101869052339187917ff5d6988acb4a237a95feb459c3b5d7f95ad15acfe26d31cd4bf88b8b1ec792de910160405180910390a3505092915050565b60009182527f7b305b6be5f275f648d05716597c483d754c2a242bd605feba3c64fb85360534602090815260408084206001600160a01b0393909316845291905290205460ff1690565b600060208284031215610704578081fd5b5035919050565b6000806040838503121561071d578081fd5b50508035926020909101359150565b600080600060608486031215610740578081fd5b505081359360208301359350604090920135919050565b6000806000806080858703121561076c578081fd5b5050823594602084013594506040840135936060013592509050565b6020808252601d908201527f416363657373436f6e74726f6c3a206e6f7420617574686f72697a6564000000604082015260600190565b60208082526023908201527f54656c6c65723a20706c6174666f726d2073657474696e67206e6f742065786960408201526273747360e81b60608201526080019056fea26469706673582212208e330f5e21469228141e79c02ddca1cd2864481c44635e165b755a3701a36d1964736f6c63430008030033",
      "devdoc": {
        "author": "develop@teller.finance",
        "events": {
          "PlatformSettingBoundariesUpdated(bytes32,address,uint256,uint256,uint256,uint256)": {
            "params": {
              "newMax": "New maximum boundary.",
              "newMin": "New minimum boundary.",
              "oldMax": "Previous minimum boundary.",
              "oldMin": "Previous minimum boundary.",
              "sender": "address that removed it.",
              "settingName": "setting name removed."
            }
          },
          "PlatformSettingCreated(bytes32,address,uint256,uint256,uint256)": {
            "params": {
              "maxValue": "Maximum boundary for the new setting.",
              "minValue": "Minimum boundary for the new setting.",
              "sender": "Address that created it.",
              "settingName": "New setting name.",
              "value": "Value for the new setting."
            }
          },
          "PlatformSettingUpdated(bytes32,address,uint256,uint256)": {
            "params": {
              "newValue": "New value for the setting.",
              "oldValue": "Previous value for the setting.",
              "sender": "Address that updated it.",
              "settingName": "Keccak'ed settings name."
            }
          }
        },
        "kind": "dev",
        "methods": {
          "createPlatformSetting(bytes32,uint256,uint256,uint256)": {
            "params": {
              "max": "Maximum value allowed for the setting.",
              "min": "Minimum value allowed for the setting.",
              "name": "Keccak'ed name for the setting.",
              "value": "Initial value for the setting."
            }
          },
          "getPlatformSetting(bytes32)": {
            "params": {
              "name": "The keccak'ed name for a setting."
            },
            "returns": {
              "setting_": "Values for the setting {name}"
            }
          },
          "updatePlatformSetting(bytes32,uint256)": {
            "params": {
              "name": "Keccak'ed name for the setting.",
              "newValue": "the new value to set in the platform setting. Requirements:  - New value is equal to the current value.  - New value is grater than the max value.  - New value is less than the min value"
            }
          },
          "updatePlatformSettingBoundaries(bytes32,uint256,uint256)": {
            "params": {
              "max": "New maximum boundary for the setting.",
              "min": "New minimum boundary for the setting.",
              "name": "Keccak'ed name for the setting."
            }
          }
        },
        "version": 1
      },
      "userdoc": {
        "events": {
          "PlatformSettingBoundariesUpdated(bytes32,address,uint256,uint256,uint256,uint256)": {
            "notice": "This event is emitted when a current platform setting is removed."
          },
          "PlatformSettingCreated(bytes32,address,uint256,uint256,uint256)": {
            "notice": "This event is emitted when a new platform setting is created."
          },
          "PlatformSettingUpdated(bytes32,address,uint256,uint256)": {
            "notice": "This event is emitted when a platform setting is updated."
          }
        },
        "kind": "user",
        "methods": {
          "createPlatformSetting(bytes32,uint256,uint256,uint256)": {
            "notice": "It creates a new platform setting given a name, min and max values."
          },
          "getPlatformSetting(bytes32)": {
            "notice": "Gets the values for a platform setting name."
          },
          "updatePlatformSetting(bytes32,uint256)": {
            "notice": "It updates a current platform setting."
          },
          "updatePlatformSettingBoundaries(bytes32,uint256,uint256)": {
            "notice": "Updates the boundary (min & max) values for a platform setting."
          }
        },
        "notice": "Utility library of inline functions on the PlatformSetting struct.",
        "version": 1
      },
      "storageLayout": {
        "storage": [],
        "types": null
      }
    }
  ],
  "devdoc": {
    "author": "develop@teller.finance",
    "events": {
      "PlatformSettingBoundariesUpdated(bytes32,address,uint256,uint256,uint256,uint256)": {
        "params": {
          "newMax": "New maximum boundary.",
          "newMin": "New minimum boundary.",
          "oldMax": "Previous minimum boundary.",
          "oldMin": "Previous minimum boundary.",
          "sender": "address that removed it.",
          "settingName": "setting name removed."
        }
      },
      "PlatformSettingCreated(bytes32,address,uint256,uint256,uint256)": {
        "params": {
          "maxValue": "Maximum boundary for the new setting.",
          "minValue": "Minimum boundary for the new setting.",
          "sender": "Address that created it.",
          "settingName": "New setting name.",
          "value": "Value for the new setting."
        }
      },
      "PlatformSettingUpdated(bytes32,address,uint256,uint256)": {
        "params": {
          "newValue": "New value for the setting.",
          "oldValue": "Previous value for the setting.",
          "sender": "Address that updated it.",
          "settingName": "Keccak'ed settings name."
        }
      }
    },
    "kind": "dev",
    "methods": {
      "createPlatformSetting(bytes32,uint256,uint256,uint256)": {
        "params": {
          "max": "Maximum value allowed for the setting.",
          "min": "Minimum value allowed for the setting.",
          "name": "Keccak'ed name for the setting.",
          "value": "Initial value for the setting."
        }
      },
      "getPlatformSetting(bytes32)": {
        "params": {
          "name": "The keccak'ed name for a setting."
        },
        "returns": {
          "setting_": "Values for the setting {name}"
        }
      },
      "updatePlatformSetting(bytes32,uint256)": {
        "params": {
          "name": "Keccak'ed name for the setting.",
          "newValue": "the new value to set in the platform setting. Requirements:  - New value is equal to the current value.  - New value is grater than the max value.  - New value is less than the min value"
        }
      },
      "updatePlatformSettingBoundaries(bytes32,uint256,uint256)": {
        "params": {
          "max": "New maximum boundary for the setting.",
          "min": "New minimum boundary for the setting.",
          "name": "Keccak'ed name for the setting."
        }
      }
    },
    "version": 1
  },
  "userdoc": {
    "events": {
      "PlatformSettingBoundariesUpdated(bytes32,address,uint256,uint256,uint256,uint256)": {
        "notice": "This event is emitted when a current platform setting is removed."
      },
      "PlatformSettingCreated(bytes32,address,uint256,uint256,uint256)": {
        "notice": "This event is emitted when a new platform setting is created."
      },
      "PlatformSettingUpdated(bytes32,address,uint256,uint256)": {
        "notice": "This event is emitted when a platform setting is updated."
      }
    },
    "kind": "user",
    "methods": {
      "createPlatformSetting(bytes32,uint256,uint256,uint256)": {
        "notice": "It creates a new platform setting given a name, min and max values."
      },
      "getPlatformSetting(bytes32)": {
        "notice": "Gets the values for a platform setting name."
      },
      "updatePlatformSetting(bytes32,uint256)": {
        "notice": "It updates a current platform setting."
      },
      "updatePlatformSettingBoundaries(bytes32,uint256,uint256)": {
        "notice": "Updates the boundary (min & max) values for a platform setting."
      }
    },
    "notice": "Utility library of inline functions on the PlatformSetting struct.",
    "version": 1
  },
  "storageLayout": {
    "storage": [],
    "types": null
  }
}