{
  "address": "0x2ceB85a2402C94305526ab108e7597a102D6C175",
  "abi": [
    {
      "anonymous": false,
      "inputs": [
        {
          "indexed": true,
          "internalType": "address",
          "name": "owner",
          "type": "address"
        },
        {
          "indexed": true,
          "internalType": "address",
          "name": "approved",
          "type": "address"
        },
        {
          "indexed": true,
          "internalType": "uint256",
          "name": "tokenId",
          "type": "uint256"
        }
      ],
      "name": "Approval",
      "type": "event"
    },
    {
      "anonymous": false,
      "inputs": [
        {
          "indexed": true,
          "internalType": "address",
          "name": "owner",
          "type": "address"
        },
        {
          "indexed": true,
          "internalType": "address",
          "name": "operator",
          "type": "address"
        },
        {
          "indexed": false,
          "internalType": "bool",
          "name": "approved",
          "type": "bool"
        }
      ],
      "name": "ApprovalForAll",
      "type": "event"
    },
    {
      "anonymous": false,
      "inputs": [
        {
          "indexed": true,
          "internalType": "bytes32",
          "name": "role",
          "type": "bytes32"
        },
        {
          "indexed": true,
          "internalType": "bytes32",
          "name": "previousAdminRole",
          "type": "bytes32"
        },
        {
          "indexed": true,
          "internalType": "bytes32",
          "name": "newAdminRole",
          "type": "bytes32"
        }
      ],
      "name": "RoleAdminChanged",
      "type": "event"
    },
    {
      "anonymous": false,
      "inputs": [
        {
          "indexed": true,
          "internalType": "bytes32",
          "name": "role",
          "type": "bytes32"
        },
        {
          "indexed": true,
          "internalType": "address",
          "name": "account",
          "type": "address"
        },
        {
          "indexed": true,
          "internalType": "address",
          "name": "sender",
          "type": "address"
        }
      ],
      "name": "RoleGranted",
      "type": "event"
    },
    {
      "anonymous": false,
      "inputs": [
        {
          "indexed": true,
          "internalType": "bytes32",
          "name": "role",
          "type": "bytes32"
        },
        {
          "indexed": true,
          "internalType": "address",
          "name": "account",
          "type": "address"
        },
        {
          "indexed": true,
          "internalType": "address",
          "name": "sender",
          "type": "address"
        }
      ],
      "name": "RoleRevoked",
      "type": "event"
    },
    {
      "anonymous": false,
      "inputs": [
        {
          "indexed": true,
          "internalType": "address",
          "name": "from",
          "type": "address"
        },
        {
          "indexed": true,
          "internalType": "address",
          "name": "to",
          "type": "address"
        },
        {
          "indexed": true,
          "internalType": "uint256",
          "name": "tokenId",
          "type": "uint256"
        }
      ],
      "name": "Transfer",
      "type": "event"
    },
    {
      "inputs": [],
      "name": "ADMIN",
      "outputs": [
        {
          "internalType": "bytes32",
          "name": "",
          "type": "bytes32"
        }
      ],
      "stateMutability": "view",
      "type": "function"
    },
    {
      "inputs": [],
      "name": "DEFAULT_ADMIN_ROLE",
      "outputs": [
        {
          "internalType": "bytes32",
          "name": "",
          "type": "bytes32"
        }
      ],
      "stateMutability": "view",
      "type": "function"
    },
    {
      "inputs": [],
      "name": "MINTER",
      "outputs": [
        {
          "internalType": "bytes32",
          "name": "",
          "type": "bytes32"
        }
      ],
      "stateMutability": "view",
      "type": "function"
    },
    {
      "inputs": [
        {
          "internalType": "address",
          "name": "minter",
          "type": "address"
        }
      ],
      "name": "addMinter",
      "outputs": [],
      "stateMutability": "nonpayable",
      "type": "function"
    },
    {
      "inputs": [
        {
          "components": [
            {
              "internalType": "uint256",
              "name": "baseLoanSize",
              "type": "uint256"
            },
            {
              "internalType": "string[]",
              "name": "hashes",
              "type": "string[]"
            },
            {
              "internalType": "address",
              "name": "contributionAsset",
              "type": "address"
            },
            {
              "internalType": "uint256",
              "name": "contributionSize",
              "type": "uint256"
            },
            {
              "internalType": "uint8",
              "name": "contributionMultiplier",
              "type": "uint8"
            }
          ],
          "internalType": "struct ITellerNFT.Tier",
          "name": "newTier",
          "type": "tuple"
        }
      ],
      "name": "addTier",
      "outputs": [],
      "stateMutability": "nonpayable",
      "type": "function"
    },
    {
      "inputs": [
        {
          "internalType": "address",
          "name": "to",
          "type": "address"
        },
        {
          "internalType": "uint256",
          "name": "tokenId",
          "type": "uint256"
        }
      ],
      "name": "approve",
      "outputs": [],
      "stateMutability": "nonpayable",
      "type": "function"
    },
    {
      "inputs": [
        {
          "internalType": "address",
          "name": "owner",
          "type": "address"
        }
      ],
      "name": "balanceOf",
      "outputs": [
        {
          "internalType": "uint256",
          "name": "",
          "type": "uint256"
        }
      ],
      "stateMutability": "view",
      "type": "function"
    },
    {
      "inputs": [],
      "name": "contractURI",
      "outputs": [
        {
          "internalType": "string",
          "name": "",
          "type": "string"
        }
      ],
      "stateMutability": "view",
      "type": "function"
    },
    {
      "inputs": [
        {
          "internalType": "uint256",
          "name": "tokenId",
          "type": "uint256"
        }
      ],
      "name": "getApproved",
      "outputs": [
        {
          "internalType": "address",
          "name": "",
          "type": "address"
        }
      ],
      "stateMutability": "view",
      "type": "function"
    },
    {
      "inputs": [
        {
          "internalType": "address",
          "name": "owner",
          "type": "address"
        }
      ],
      "name": "getOwnedTokens",
      "outputs": [
        {
          "internalType": "uint256[]",
          "name": "owned_",
          "type": "uint256[]"
        }
      ],
      "stateMutability": "view",
      "type": "function"
    },
    {
      "inputs": [
        {
          "internalType": "bytes32",
          "name": "role",
          "type": "bytes32"
        }
      ],
      "name": "getRoleAdmin",
      "outputs": [
        {
          "internalType": "bytes32",
          "name": "",
          "type": "bytes32"
        }
      ],
      "stateMutability": "view",
      "type": "function"
    },
    {
      "inputs": [
        {
          "internalType": "uint256",
          "name": "index",
          "type": "uint256"
        }
      ],
      "name": "getTier",
      "outputs": [
        {
          "components": [
            {
              "internalType": "uint256",
              "name": "baseLoanSize",
              "type": "uint256"
            },
            {
              "internalType": "string[]",
              "name": "hashes",
              "type": "string[]"
            },
            {
              "internalType": "address",
              "name": "contributionAsset",
              "type": "address"
            },
            {
              "internalType": "uint256",
              "name": "contributionSize",
              "type": "uint256"
            },
            {
              "internalType": "uint8",
              "name": "contributionMultiplier",
              "type": "uint8"
            }
          ],
          "internalType": "struct ITellerNFT.Tier",
          "name": "tier_",
          "type": "tuple"
        }
      ],
      "stateMutability": "view",
      "type": "function"
    },
    {
      "inputs": [
        {
          "internalType": "uint256",
          "name": "tierIndex",
          "type": "uint256"
        }
      ],
      "name": "getTierHashes",
      "outputs": [
        {
          "internalType": "string[]",
          "name": "hashes_",
          "type": "string[]"
        }
      ],
      "stateMutability": "view",
      "type": "function"
    },
    {
      "inputs": [
        {
          "internalType": "uint256",
          "name": "tokenId",
          "type": "uint256"
        }
      ],
      "name": "getTokenTier",
      "outputs": [
        {
          "internalType": "uint256",
          "name": "index_",
          "type": "uint256"
        },
        {
          "components": [
            {
              "internalType": "uint256",
              "name": "baseLoanSize",
              "type": "uint256"
            },
            {
              "internalType": "string[]",
              "name": "hashes",
              "type": "string[]"
            },
            {
              "internalType": "address",
              "name": "contributionAsset",
              "type": "address"
            },
            {
              "internalType": "uint256",
              "name": "contributionSize",
              "type": "uint256"
            },
            {
              "internalType": "uint8",
              "name": "contributionMultiplier",
              "type": "uint8"
            }
          ],
          "internalType": "struct ITellerNFT.Tier",
          "name": "tier_",
          "type": "tuple"
        }
      ],
      "stateMutability": "view",
      "type": "function"
    },
    {
      "inputs": [
        {
          "internalType": "bytes32",
          "name": "role",
          "type": "bytes32"
        },
        {
          "internalType": "address",
          "name": "account",
          "type": "address"
        }
      ],
      "name": "grantRole",
      "outputs": [],
      "stateMutability": "nonpayable",
      "type": "function"
    },
    {
      "inputs": [
        {
          "internalType": "bytes32",
          "name": "role",
          "type": "bytes32"
        },
        {
          "internalType": "address",
          "name": "account",
          "type": "address"
        }
      ],
      "name": "hasRole",
      "outputs": [
        {
          "internalType": "bool",
          "name": "",
          "type": "bool"
        }
      ],
      "stateMutability": "view",
      "type": "function"
    },
    {
      "inputs": [
        {
          "internalType": "address[]",
          "name": "minters",
          "type": "address[]"
        }
      ],
      "name": "initialize",
      "outputs": [],
      "stateMutability": "nonpayable",
      "type": "function"
    },
    {
      "inputs": [
        {
          "internalType": "address",
          "name": "owner",
          "type": "address"
        },
        {
          "internalType": "address",
          "name": "operator",
          "type": "address"
        }
      ],
      "name": "isApprovedForAll",
      "outputs": [
        {
          "internalType": "bool",
          "name": "",
          "type": "bool"
        }
      ],
      "stateMutability": "view",
      "type": "function"
    },
    {
      "inputs": [
        {
          "internalType": "uint256",
          "name": "tierIndex",
          "type": "uint256"
        },
        {
          "internalType": "address",
          "name": "owner",
          "type": "address"
        }
      ],
      "name": "mint",
      "outputs": [],
      "stateMutability": "nonpayable",
      "type": "function"
    },
    {
      "inputs": [],
      "name": "name",
      "outputs": [
        {
          "internalType": "string",
          "name": "",
          "type": "string"
        }
      ],
      "stateMutability": "view",
      "type": "function"
    },
    {
      "inputs": [
        {
          "internalType": "uint256",
          "name": "tokenId",
          "type": "uint256"
        }
      ],
      "name": "ownerOf",
      "outputs": [
        {
          "internalType": "address",
          "name": "",
          "type": "address"
        }
      ],
      "stateMutability": "view",
      "type": "function"
    },
    {
      "inputs": [
        {
          "internalType": "address",
          "name": "minter",
          "type": "address"
        }
      ],
      "name": "removeMinter",
      "outputs": [],
      "stateMutability": "nonpayable",
      "type": "function"
    },
    {
      "inputs": [
        {
          "internalType": "bytes32",
          "name": "role",
          "type": "bytes32"
        },
        {
          "internalType": "address",
          "name": "account",
          "type": "address"
        }
      ],
      "name": "renounceRole",
      "outputs": [],
      "stateMutability": "nonpayable",
      "type": "function"
    },
    {
      "inputs": [
        {
          "internalType": "bytes32",
          "name": "role",
          "type": "bytes32"
        },
        {
          "internalType": "address",
          "name": "account",
          "type": "address"
        }
      ],
      "name": "revokeRole",
      "outputs": [],
      "stateMutability": "nonpayable",
      "type": "function"
    },
    {
      "inputs": [
        {
          "internalType": "address",
          "name": "from",
          "type": "address"
        },
        {
          "internalType": "address",
          "name": "to",
          "type": "address"
        },
        {
          "internalType": "uint256",
          "name": "tokenId",
          "type": "uint256"
        }
      ],
      "name": "safeTransferFrom",
      "outputs": [],
      "stateMutability": "nonpayable",
      "type": "function"
    },
    {
      "inputs": [
        {
          "internalType": "address",
          "name": "from",
          "type": "address"
        },
        {
          "internalType": "address",
          "name": "to",
          "type": "address"
        },
        {
          "internalType": "uint256",
          "name": "tokenId",
          "type": "uint256"
        },
        {
          "internalType": "bytes",
          "name": "_data",
          "type": "bytes"
        }
      ],
      "name": "safeTransferFrom",
      "outputs": [],
      "stateMutability": "nonpayable",
      "type": "function"
    },
    {
      "inputs": [
        {
          "internalType": "address",
          "name": "operator",
          "type": "address"
        },
        {
          "internalType": "bool",
          "name": "approved",
          "type": "bool"
        }
      ],
      "name": "setApprovalForAll",
      "outputs": [],
      "stateMutability": "nonpayable",
      "type": "function"
    },
    {
      "inputs": [
        {
          "internalType": "string",
          "name": "contractURIHash",
          "type": "string"
        }
      ],
      "name": "setContractURIHash",
      "outputs": [],
      "stateMutability": "nonpayable",
      "type": "function"
    },
    {
      "inputs": [
        {
          "internalType": "bytes4",
          "name": "interfaceId",
          "type": "bytes4"
        }
      ],
      "name": "supportsInterface",
      "outputs": [
        {
          "internalType": "bool",
          "name": "",
          "type": "bool"
        }
      ],
      "stateMutability": "view",
      "type": "function"
    },
    {
      "inputs": [],
      "name": "symbol",
      "outputs": [
        {
          "internalType": "string",
          "name": "",
          "type": "string"
        }
      ],
      "stateMutability": "view",
      "type": "function"
    },
    {
      "inputs": [
        {
          "internalType": "uint256",
          "name": "tokenId",
          "type": "uint256"
        }
      ],
      "name": "tokenURI",
      "outputs": [
        {
          "internalType": "string",
          "name": "",
          "type": "string"
        }
      ],
      "stateMutability": "view",
      "type": "function"
    },
    {
      "inputs": [
        {
          "internalType": "address",
          "name": "from",
          "type": "address"
        },
        {
          "internalType": "address",
          "name": "to",
          "type": "address"
        },
        {
          "internalType": "uint256",
          "name": "tokenId",
          "type": "uint256"
        }
      ],
      "name": "transferFrom",
      "outputs": [],
      "stateMutability": "nonpayable",
      "type": "function"
    }
  ],
  "artifactName": "TellerNFT",
  "transactionHash": "0x914eca05b6917ab965321e177f0746e27b5dd48e885a78c1ccee00937070895b",
  "args": [],
  "solcInputHash": "2289fe9bb3bf3773a157fd04925493c9",
  "bytecode": "0x608060405234801561001057600080fd5b50612c37806100206000396000f3fe608060405234801561001057600080fd5b50600436106101f05760003560e01c806395d89b411161010f578063c87b56dd116100a2578063d9d6165511610071578063d9d616551461047e578063e8a3d4851461049e578063e985e9c5146104a6578063fe6d8124146104e2576101f0565b8063c87b56dd14610425578063cbee53a314610438578063cf932b7c14610458578063d547741f1461046b576101f0565b8063a22cb465116100de578063a22cb465146103cb578063b88d4fde146103de578063baedc1c4146103f1578063c26b265f14610404576101f0565b806395d89b4114610395578063983b2d561461039d578063a217fddf146103b0578063a224cee7146103b8576101f0565b80633092afd5116101875780636352211e116101565780636352211e1461034957806370a082311461035c57806391d148541461036f57806394bf804d14610382576101f0565b80633092afd5146102f057806336568abe1461030357806342842e0e146103165780634f062c5a14610329576101f0565b806323b872dd116101c357806323b872dd14610272578063248a9ca3146102855780632a0acc6a146102b65780632f2ff15d146102dd576101f0565b806301ffc9a7146101f557806306fdde031461021d578063081812fc14610232578063095ea7b31461025d575b600080fd5b61020861020336600461258d565b6104f7565b60405190151581526020015b60405180910390f35b610225610533565b60405161021491906128ee565b610245610240366004612553565b6105c5565b6040516001600160a01b039091168152602001610214565b61027061026b3660046124ba565b61065f565b005b6102706102803660046123cc565b610775565b6102a8610293366004612553565b60009081526097602052604090206001015490565b604051908152602001610214565b6102a87fdf8b4c520ffe197c5343c6f5aec59570151ef9a492f2c624fd45ddde6135ec4281565b6102706102eb36600461256b565b6107a6565b6102706102fe366004612380565b610835565b61027061031136600461256b565b610884565b6102706103243660046123cc565b6108fe565b61033c610337366004612553565b610919565b6040516102149190612a21565b610245610357366004612553565b610a53565b6102a861036a366004612380565b610aca565b61020861037d36600461256b565b610b51565b6102706103903660046126f7565b610b7e565b610225610bf2565b6102706103ab366004612380565b610c01565b6102a8600081565b6102706103c63660046124e3565b610c4d565b6102706103d9366004612480565b610dd0565b6102706103ec366004612407565b610ea2565b6102706103ff3660046125c5565b610eda565b610417610412366004612553565b610f5a565b604051610214929190612a34565b610225610433366004612553565b61109a565b61044b610446366004612553565b611170565b6040516102149190612849565b6102706104663660046125f8565b61125f565b61027061047936600461256b565b61132a565b61049161048c366004612380565b6113aa565b60405161021491906128aa565b61022561147a565b6102086104b436600461239a565b6001600160a01b039182166000908152606a6020908152604080832093909416825291909152205460ff1690565b6102a8600080516020612b9283398151915281565b60006001600160e01b03198216630d04cfd960e21b148061051c575061051c82611489565b8061052b575061052b826114d9565b90505b919050565b60606065805461054290612ad9565b80601f016020809104026020016040519081016040528092919081815260200182805461056e90612ad9565b80156105bb5780601f10610590576101008083540402835291602001916105bb565b820191906000526020600020905b81548152906001019060200180831161059e57829003601f168201915b5050505050905090565b6000818152606760205260408120546001600160a01b03166106435760405162461bcd60e51b815260206004820152602c60248201527f4552433732313a20617070726f76656420717565727920666f72206e6f6e657860448201526b34b9ba32b73a103a37b5b2b760a11b60648201526084015b60405180910390fd5b506000908152606960205260409020546001600160a01b031690565b600061066a82610a53565b9050806001600160a01b0316836001600160a01b031614156106d85760405162461bcd60e51b815260206004820152602160248201527f4552433732313a20617070726f76616c20746f2063757272656e74206f776e656044820152603960f91b606482015260840161063a565b336001600160a01b03821614806106f457506106f481336104b4565b6107665760405162461bcd60e51b815260206004820152603860248201527f4552433732313a20617070726f76652063616c6c6572206973206e6f74206f7760448201527f6e6572206e6f7220617070726f76656420666f7220616c6c0000000000000000606482015260840161063a565b61077083836114fe565b505050565b61077f338261156c565b61079b5760405162461bcd60e51b815260040161063a906129d0565b610770838383611663565b6000828152609760205260409020600101546107c3905b3361037d565b6108275760405162461bcd60e51b815260206004820152602f60248201527f416363657373436f6e74726f6c3a2073656e646572206d75737420626520616e60448201526e0818591b5a5b881d1bc819dc985b9d608a1b606482015260840161063a565b6108318282611678565b5050565b61084d600080516020612b928339815191523361037d565b6108695760405162461bcd60e51b815260040161063a90612953565b610881600080516020612b928339815191528261132a565b50565b6001600160a01b03811633146108f45760405162461bcd60e51b815260206004820152602f60248201527f416363657373436f6e74726f6c3a2063616e206f6e6c792072656e6f756e636560448201526e103937b632b9903337b91039b2b63360891b606482015260840161063a565b61083182826116fe565b61077083838360405180602001604052806000815250610ea2565b61092161215b565b60cb60008381526020019081526020016000206040518060a00160405290816000820154815260200160018201805480602002602001604051908101604052809291908181526020016000905b82821015610a1a57838290600052602060002001805461098d90612ad9565b80601f01602080910402602001604051908101604052809291908181526020018280546109b990612ad9565b8015610a065780601f106109db57610100808354040283529160200191610a06565b820191906000526020600020905b8154815290600101906020018083116109e957829003601f168201915b50505050508152602001906001019061096e565b5050509082525060028201546001600160a01b031660208201526003820154604082015260049091015460ff1660609091015292915050565b6000818152606760205260408120546001600160a01b03168061052b5760405162461bcd60e51b815260206004820152602960248201527f4552433732313a206f776e657220717565727920666f72206e6f6e657869737460448201526832b73a103a37b5b2b760b91b606482015260840161063a565b60006001600160a01b038216610b355760405162461bcd60e51b815260206004820152602a60248201527f4552433732313a2062616c616e636520717565727920666f7220746865207a65604482015269726f206164647265737360b01b606482015260840161063a565b506001600160a01b031660009081526068602052604090205490565b60008281526097602090815260408083206001600160a01b038516845290915290205460ff165b92915050565b610b96600080516020612b928339815191523361037d565b610bb25760405162461bcd60e51b815260040161063a90612953565b6000610bbd60ca5490565b9050610bcd60ca80546001019055565b610bd78282611765565b600081815260cc60205260409020839055610770828261177f565b60606066805461054290612ad9565b610c19600080516020612b928339815191523361037d565b610c355760405162461bcd60e51b815260040161063a90612953565b610881600080516020612b9283398151915282610827565b600054610100900460ff1680610c66575060005460ff16155b610c825760405162461bcd60e51b815260040161063a90612982565b600054610100900460ff16158015610ca4576000805461ffff19166101011790555b610cec6040518060400160405280600a81526020016915195b1b195c8813919560b21b815250604051806040016040528060048152602001631513919560e21b8152506117e1565b610cf4611868565b60005b82811015610d5d57610d4b600080516020612b92833981519152858584818110610d3157634e487b7160e01b600052603260045260246000fd5b9050602002016020810190610d469190612380565b610827565b80610d5581612b14565b915050610cf7565b50604051806060016040528060228152602001612be0602291398051610d8b9160ce91602090910190612196565b506040518060600160405280602e8152602001612bb2602e91398051610db99160cf91602090910190612196565b508015610770576000805461ff0019169055505050565b6001600160a01b038216331415610e295760405162461bcd60e51b815260206004820152601960248201527f4552433732313a20617070726f766520746f2063616c6c657200000000000000604482015260640161063a565b336000818152606a602090815260408083206001600160a01b0387168085529252909120805460ff1916841515179055906001600160a01b03167f17307eab39ab6107e8899845ad3d59bd9653f200f220920489ca2b5937696c3183604051610e96911515815260200190565b60405180910390a35050565b610eac338361156c565b610ec85760405162461bcd60e51b815260040161063a906129d0565b610ed4848484846118eb565b50505050565b610f047fdf8b4c520ffe197c5343c6f5aec59570151ef9a492f2c624fd45ddde6135ec423361037d565b610f475760405162461bcd60e51b81526020600482015260146024820152732a32b63632b927232a1d103737ba1030b236b4b760611b604482015260640161063a565b80516108319060cf906020840190612196565b6000610f6461215b565b600083815260cc602090815260408083205480845260cb8352818420825160a0810184528154815260018201805485518188028101880190965280865293985090959194868101949391929084015b8282101561105f578382906000526020600020018054610fd290612ad9565b80601f0160208091040260200160405190810160405280929190818152602001828054610ffe90612ad9565b801561104b5780601f106110205761010080835404028352916020019161104b565b820191906000526020600020905b81548152906001019060200180831161102e57829003601f168201915b505050505081526020019060010190610fb3565b5050509082525060028201546001600160a01b031660208201526003820154604082015260049091015460ff16606090910152919391925050565b6000818152606760205260409020546060906001600160a01b03166111145760405162461bcd60e51b815260206004820152602a60248201527f54656c6c65724e46543a2055524920717565727920666f72206e6f6e657869736044820152693a32b73a103a37b5b2b760b11b606482015260840161063a565b600061111e61191e565b9050600081511161113e5760405180602001604052806000815250611169565b806111488461192d565b6040516020016111599291906127dd565b6040516020818303038152906040525b9392505050565b606060cb6000838152602001908152602001600020600101805480602002602001604051908101604052809291908181526020016000905b828210156112545783829060005260206000200180546111c790612ad9565b80601f01602080910402602001604051908101604052809291908181526020018280546111f390612ad9565b80156112405780601f1061121557610100808354040283529160200191611240565b820191906000526020600020905b81548152906001019060200180831161122357829003601f168201915b5050505050815260200190600101906111a8565b505050509050919050565b611277600080516020612b928339815191523361037d565b6112935760405162461bcd60e51b815260040161063a90612953565b600060cb60006112a260c95490565b8152602080820192909252604001600020835181558382015180519193506112d192600185019291019061221a565b5060408201516002820180546001600160a01b0319166001600160a01b0390921691909117905560608201516003820155608082015160048201805460ff191660ff90921691909117905560c980546001019055610831565b600082815260976020526040902060010154611345906107bd565b6108f45760405162461bcd60e51b815260206004820152603060248201527f416363657373436f6e74726f6c3a2073656e646572206d75737420626520616e60448201526f2061646d696e20746f207265766f6b6560801b606482015260840161063a565b6001600160a01b038116600090815260cd602052604090206060906113ce81611a17565b67ffffffffffffffff8111156113f457634e487b7160e01b600052604160045260246000fd5b60405190808252806020026020018201604052801561141d578160200160208202803683370190505b50915060005b8251811015611473576114368282611a21565b83828151811061145657634e487b7160e01b600052603260045260246000fd5b60209081029190910101528061146b81612b14565b915050611423565b5050919050565b606060cf805461054290612ad9565b60006001600160e01b031982166380ac58cd60e01b14806114ba57506001600160e01b03198216635b5e139f60e01b145b8061052b57506301ffc9a760e01b6001600160e01b031983161461052b565b60006001600160e01b03198216637965db0b60e01b148061052b575061052b82611489565b600081815260696020526040902080546001600160a01b0319166001600160a01b038416908117909155819061153382610a53565b6001600160a01b03167f8c5be1e5ebec7d5bd14f71427d1e84f3dd0314c0f7b2291e5b200ac8c7c3b92560405160405180910390a45050565b6000818152606760205260408120546001600160a01b03166115e55760405162461bcd60e51b815260206004820152602c60248201527f4552433732313a206f70657261746f7220717565727920666f72206e6f6e657860448201526b34b9ba32b73a103a37b5b2b760a11b606482015260840161063a565b60006115f083610a53565b9050806001600160a01b0316846001600160a01b0316148061162b5750836001600160a01b0316611620846105c5565b6001600160a01b0316145b8061165b57506001600160a01b038082166000908152606a602090815260408083209388168352929052205460ff165b949350505050565b61166d828261177f565b610770838383611a2d565b6116828282610b51565b6108315760008281526097602090815260408083206001600160a01b03851684529091529020805460ff191660011790556116ba3390565b6001600160a01b0316816001600160a01b0316837f2f8788117e7eff1d82e926ec794901d17c78024a50270940304540a733656f0d60405160405180910390a45050565b6117088282610b51565b156108315760008281526097602090815260408083206001600160a01b0385168085529252808320805460ff1916905551339285917ff6391f5c32d9c69d2a47ea670b442974b53935d1edc7fd64eb21e047a839171b9190a45050565b610831828260405180602001604052806000815250611bcd565b600061178a82610a53565b90506001600160a01b038116156117bf576001600160a01b038116600090815260cd602052604090206117bd9083611c00565b505b6001600160a01b038316600090815260cd60205260409020610ed49083611c0c565b600054610100900460ff16806117fa575060005460ff16155b6118165760405162461bcd60e51b815260040161063a90612982565b600054610100900460ff16158015611838576000805461ffff19166101011790555b611840611c18565b611848611c18565b6118528383611c82565b8015610770576000805461ff0019169055505050565b600054610100900460ff1680611881575060005460ff16155b61189d5760405162461bcd60e51b815260040161063a90612982565b600054610100900460ff161580156118bf576000805461ffff19166101011790555b6118c7611c18565b6118cf611c18565b6118d7611c18565b8015610881576000805461ff001916905550565b6118f6848484611663565b61190284848484611d00565b610ed45760405162461bcd60e51b815260040161063a90612901565b606060ce805461054290612ad9565b600081815260cc6020908152604080832054835260cb9091529020600101805460609190819061195e908590611e0d565b8154811061197c57634e487b7160e01b600052603260045260246000fd5b90600052602060002001805461199190612ad9565b80601f01602080910402602001604051908101604052809291908181526020018280546119bd90612ad9565b8015611a0a5780601f106119df57610100808354040283529160200191611a0a565b820191906000526020600020905b8154815290600101906020018083116119ed57829003601f168201915b5050505050915050919050565b600061052b825490565b60006111698383611e19565b826001600160a01b0316611a4082610a53565b6001600160a01b031614611aa85760405162461bcd60e51b815260206004820152602960248201527f4552433732313a207472616e73666572206f6620746f6b656e2074686174206960448201526839903737ba1037bbb760b91b606482015260840161063a565b6001600160a01b038216611b0a5760405162461bcd60e51b8152602060048201526024808201527f4552433732313a207472616e7366657220746f20746865207a65726f206164646044820152637265737360e01b606482015260840161063a565b611b156000826114fe565b6001600160a01b0383166000908152606860205260408120805460019290611b3e908490612a96565b90915550506001600160a01b0382166000908152606860205260408120805460019290611b6c908490612a7e565b909155505060008181526067602052604080822080546001600160a01b0319166001600160a01b0386811691821790925591518493918716917fddf252ad1be2c89b69c2b068fc378daa952ba7f163c4a11628f55a4df523b3ef91a4505050565b611bd78383611ead565b611be46000848484611d00565b6107705760405162461bcd60e51b815260040161063a90612901565b60006111698383611fef565b6000611169838361210c565b600054610100900460ff1680611c31575060005460ff16155b611c4d5760405162461bcd60e51b815260040161063a90612982565b600054610100900460ff161580156118d7576000805461ffff19166101011790558015610881576000805461ff001916905550565b600054610100900460ff1680611c9b575060005460ff16155b611cb75760405162461bcd60e51b815260040161063a90612982565b600054610100900460ff16158015611cd9576000805461ffff19166101011790555b8251611cec906065906020860190612196565b508151610db9906066906020850190612196565b60006001600160a01b0384163b15611e0257604051630a85bd0160e11b81526001600160a01b0385169063150b7a0290611d4490339089908890889060040161280c565b602060405180830381600087803b158015611d5e57600080fd5b505af1925050508015611d8e575060408051601f3d908101601f19168201909252611d8b918101906125a9565b60015b611de8573d808015611dbc576040519150601f19603f3d011682016040523d82523d6000602084013e611dc1565b606091505b508051611de05760405162461bcd60e51b815260040161063a90612901565b805181602001fd5b6001600160e01b031916630a85bd0160e11b14905061165b565b506001949350505050565b60006111698284612b2f565b81546000908210611e775760405162461bcd60e51b815260206004820152602260248201527f456e756d657261626c655365743a20696e646578206f7574206f6620626f756e604482015261647360f01b606482015260840161063a565b826000018281548110611e9a57634e487b7160e01b600052603260045260246000fd5b9060005260206000200154905092915050565b6001600160a01b038216611f035760405162461bcd60e51b815260206004820181905260248201527f4552433732313a206d696e7420746f20746865207a65726f2061646472657373604482015260640161063a565b6000818152606760205260409020546001600160a01b031615611f685760405162461bcd60e51b815260206004820152601c60248201527f4552433732313a20746f6b656e20616c7265616479206d696e74656400000000604482015260640161063a565b6001600160a01b0382166000908152606860205260408120805460019290611f91908490612a7e565b909155505060008181526067602052604080822080546001600160a01b0319166001600160a01b03861690811790915590518392907fddf252ad1be2c89b69c2b068fc378daa952ba7f163c4a11628f55a4df523b3ef908290a45050565b60008181526001830160205260408120548015612102576000612013600183612a96565b855490915060009061202790600190612a96565b9050600086600001828154811061204e57634e487b7160e01b600052603260045260246000fd5b906000526020600020015490508087600001848154811061207f57634e487b7160e01b600052603260045260246000fd5b600091825260209091200155612096836001612a7e565b600082815260018901602052604090205586548790806120c657634e487b7160e01b600052603160045260246000fd5b60019003818190600052602060002001600090559055866001016000878152602001908152602001600020600090556001945050505050610b78565b6000915050610b78565b600081815260018301602052604081205461215357508154600181810184556000848152602080822090930184905584548482528286019093526040902091909155610b78565b506000610b78565b6040518060a00160405280600081526020016060815260200160006001600160a01b0316815260200160008152602001600060ff1681525090565b8280546121a290612ad9565b90600052602060002090601f0160209004810192826121c4576000855561220a565b82601f106121dd57805160ff191683800117855561220a565b8280016001018555821561220a579182015b8281111561220a5782518255916020019190600101906121ef565b50612216929150612273565b5090565b828054828255906000526020600020908101928215612267579160200282015b828111156122675782518051612257918491602090910190612196565b509160200191906001019061223a565b50612216929150612288565b5b808211156122165760008155600101612274565b8082111561221657600061229c82826122a5565b50600101612288565b5080546122b190612ad9565b6000825580601f106122c35750610881565b601f0160209004906000526020600020908101906108819190612273565b600067ffffffffffffffff8311156122fb576122fb612b65565b61230e601f8401601f1916602001612a4d565b905082815283838301111561232257600080fd5b828260208301376000602084830101529392505050565b80356001600160a01b038116811461052e57600080fd5b600082601f830112612360578081fd5b611169838335602085016122e1565b803560ff8116811461052e57600080fd5b600060208284031215612391578081fd5b61116982612339565b600080604083850312156123ac578081fd5b6123b583612339565b91506123c360208401612339565b90509250929050565b6000806000606084860312156123e0578081fd5b6123e984612339565b92506123f760208501612339565b9150604084013590509250925092565b6000806000806080858703121561241c578081fd5b61242585612339565b935061243360208601612339565b925060408501359150606085013567ffffffffffffffff811115612455578182fd5b8501601f81018713612465578182fd5b612474878235602084016122e1565b91505092959194509250565b60008060408385031215612492578182fd5b61249b83612339565b9150602083013580151581146124af578182fd5b809150509250929050565b600080604083850312156124cc578182fd5b6124d583612339565b946020939093013593505050565b600080602083850312156124f5578182fd5b823567ffffffffffffffff8082111561250c578384fd5b818501915085601f83011261251f578384fd5b81358181111561252d578485fd5b8660208260051b8501011115612541578485fd5b60209290920196919550909350505050565b600060208284031215612564578081fd5b5035919050565b6000806040838503121561257d578081fd5b823591506123c360208401612339565b60006020828403121561259e578081fd5b813561116981612b7b565b6000602082840312156125ba578081fd5b815161116981612b7b565b6000602082840312156125d6578081fd5b813567ffffffffffffffff8111156125ec578182fd5b61165b84828501612350565b6000602080838503121561260a578182fd5b823567ffffffffffffffff80821115612621578384fd5b9084019060a08287031215612634578384fd5b61263e60a0612a4d565b823581528383013582811115612652578586fd5b8301601f81018813612662578586fd5b80358381111561267457612674612b65565b612682868260051b01612a4d565b8181528681019450828701885b838110156126b8576126a68c8a8435880101612350565b8752958801959088019060010161268f565b505083870152506126cd905060408401612339565b6040820152606083013560608201526126e86080840161236f565b60808201529695505050505050565b6000806040838503121561257d578182fd5b60008151808452612721816020860160208601612aad565b601f01601f19169290920160200192915050565b600060a083018251845260208084015160a08287015282815180855260c08801915060c08160051b89010194508383019250855b818110156127975760bf19898703018352612785868551612709565b95509284019291840191600101612769565b505050505060408301516127b660408601826001600160a01b03169052565b506060830151606085015260808301516127d5608086018260ff169052565b509392505050565b600083516127ef818460208801612aad565b835190830190612803818360208801612aad565b01949350505050565b6001600160a01b038581168252841660208201526040810183905260806060820181905260009061283f90830184612709565b9695505050505050565b6000602080830181845280855180835260408601915060408160051b8701019250838701855b8281101561289d57603f1988860301845261288b858351612709565b9450928501929085019060010161286f565b5092979650505050505050565b6020808252825182820181905260009190848201906040850190845b818110156128e2578351835292840192918401916001016128c6565b50909695505050505050565b6000602082526111696020830184612709565b60208082526032908201527f4552433732313a207472616e7366657220746f206e6f6e20455243373231526560408201527131b2b4bb32b91034b6b83632b6b2b73a32b960711b606082015260800190565b6020808252601590820152742a32b63632b927232a1d103737ba1036b4b73a32b960591b604082015260600190565b6020808252602e908201527f496e697469616c697a61626c653a20636f6e747261637420697320616c72656160408201526d191e481a5b9a5d1a585b1a5e995960921b606082015260800190565b60208082526031908201527f4552433732313a207472616e736665722063616c6c6572206973206e6f74206f6040820152701ddb995c881b9bdc88185c1c1c9bdd9959607a1b606082015260800190565b6000602082526111696020830184612735565b60008382526040602083015261165b6040830184612735565b604051601f8201601f1916810167ffffffffffffffff81118282101715612a7657612a76612b65565b604052919050565b60008219821115612a9157612a91612b4f565b500190565b600082821015612aa857612aa8612b4f565b500390565b60005b83811015612ac8578181015183820152602001612ab0565b83811115610ed45750506000910152565b600181811c90821680612aed57607f821691505b60208210811415612b0e57634e487b7160e01b600052602260045260246000fd5b50919050565b6000600019821415612b2857612b28612b4f565b5060010190565b600082612b4a57634e487b7160e01b81526012600452602481fd5b500690565b634e487b7160e01b600052601160045260246000fd5b634e487b7160e01b600052604160045260246000fd5b6001600160e01b03198116811461088157600080fdfef0887ba65ee2024ea881d91b74c2450ef19e1557f03bed3ea9f16b037cbe2dc9516d5741665146467770747a5255436446326342464a686342326766484a4d64375451743634645a5579736b335268747470733a2f2f676174657761792e70696e6174612e636c6f75642f697066732fa26469706673582212202dc51e1ad2a1f02e5651bc637a026144cb0bd9c5e3dddd4eeb896087ca6e025364736f6c63430008030033",
  "devdoc": {
    "author": "develop@teller.finance",
    "kind": "dev",
    "methods": {
      "addTier((uint256,string[],address,uint256,uint8))": {
        "details": "It auto increments the index of the next tier to add.",
        "params": {
          "newTier": "Information about the new tier to add. Requirements:  - Caller must have the {MINTER} role"
        }
      },
      "approve(address,uint256)": {
        "details": "See {IERC721-approve}."
      },
      "balanceOf(address)": {
        "details": "See {IERC721-balanceOf}."
      },
      "getApproved(uint256)": {
        "details": "See {IERC721-getApproved}."
      },
      "getOwnedTokens(address)": {
        "details": "It uses a EnumerableSet to store values and loops over each element to add to the array.Can be costly if calling within a contract for address with many tokens."
      },
      "getRoleAdmin(bytes32)": {
        "details": "Returns the admin role that controls `role`. See {grantRole} and {revokeRole}. To change a role's admin, use {_setRoleAdmin}."
      },
      "getTier(uint256)": {
        "params": {
          "index": "Tier index to get info."
        }
      },
      "getTierHashes(uint256)": {
        "details": "It uses a EnumerableSet to store values and loops over each element to add to the array.Can be costly if calling within a contract for address with many tokens."
      },
      "getTokenTier(uint256)": {
        "params": {
          "tokenId": "ID of the token to get Tier info."
        }
      },
      "grantRole(bytes32,address)": {
        "details": "Grants `role` to `account`. If `account` had not been already granted `role`, emits a {RoleGranted} event. Requirements: - the caller must have ``role``'s admin role."
      },
      "hasRole(bytes32,address)": {
        "details": "Returns `true` if `account` has been granted `role`."
      },
      "initialize(address[])": {
        "params": {
          "minters": "The addresses that should allowed to mint tokens."
        }
      },
      "isApprovedForAll(address,address)": {
        "details": "See {IERC721-isApprovedForAll}."
      },
      "mint(uint256,address)": {
        "params": {
          "owner": "The owner of the new token. Requirements:  - Caller must be an authorized minter",
          "tierIndex": "Tier to mint token on."
        }
      },
      "name()": {
        "details": "See {IERC721Metadata-name}."
      },
      "ownerOf(uint256)": {
        "details": "See {IERC721-ownerOf}."
      },
      "renounceRole(bytes32,address)": {
        "details": "Revokes `role` from the calling account. Roles are often managed via {grantRole} and {revokeRole}: this function's purpose is to provide a mechanism for accounts to lose their privileges if they are compromised (such as when a trusted device is misplaced). If the calling account had been granted `role`, emits a {RoleRevoked} event. Requirements: - the caller must be `account`."
      },
      "revokeRole(bytes32,address)": {
        "details": "Revokes `role` from `account`. If `account` had been granted `role`, emits a {RoleRevoked} event. Requirements: - the caller must have ``role``'s admin role."
      },
      "safeTransferFrom(address,address,uint256)": {
        "details": "See {IERC721-safeTransferFrom}."
      },
      "safeTransferFrom(address,address,uint256,bytes)": {
        "details": "See {IERC721-safeTransferFrom}."
      },
      "setApprovalForAll(address,bool)": {
        "details": "See {IERC721-setApprovalForAll}."
      },
      "setContractURIHash(string)": {
        "params": {
          "contractURIHash": "The hash to the initial contract level metadata."
        }
      },
      "symbol()": {
        "details": "See {IERC721Metadata-symbol}."
      },
      "transferFrom(address,address,uint256)": {
        "details": "See {IERC721-transferFrom}."
      }
    },
    "version": 1
  },
  "userdoc": {
    "kind": "user",
    "methods": {
      "addTier((uint256,string[],address,uint256,uint8))": {
        "notice": "Adds a new Tier to be minted with the given information."
      },
      "contractURI()": {
        "notice": "The contract metadata URI."
      },
      "getOwnedTokens(address)": {
        "notice": "It returns an array of token IDs owned by an address."
      },
      "getTier(uint256)": {
        "notice": "It returns information about a Tier for a token ID."
      },
      "getTierHashes(uint256)": {
        "notice": "It returns an array of token IDs owned by an address."
      },
      "getTokenTier(uint256)": {
        "notice": "It returns information about a Tier for a token ID."
      },
      "initialize(address[])": {
        "notice": "Initializes the TellerNFT."
      },
      "mint(uint256,address)": {
        "notice": "It mints a new token for a Tier index."
      },
      "setContractURIHash(string)": {
        "notice": "Sets the contract level metadata URI hash."
      },
      "tokenURI(uint256)": {
        "notice": "The token URI is based on the token ID."
      }
    },
    "notice": "This contract is used by borrowers to call Dapp functions (using delegate calls).This contract should only be constructed using it's upgradeable Proxy contract.In order to call a Dapp function, the Dapp must be added in the DappRegistry instance.",
    "version": 1
  },
  "storageLayout": {
    "storage": [
      {
        "astId": 357,
        "contract": "contracts/nft/TellerNFT.sol:TellerNFT",
        "label": "_initialized",
        "offset": 0,
        "slot": "0",
        "type": "t_bool"
      },
      {
        "astId": 360,
        "contract": "contracts/nft/TellerNFT.sol:TellerNFT",
        "label": "_initializing",
        "offset": 1,
        "slot": "0",
        "type": "t_bool"
      },
      {
        "astId": 1728,
        "contract": "contracts/nft/TellerNFT.sol:TellerNFT",
        "label": "__gap",
        "offset": 0,
        "slot": "1",
        "type": "t_array(t_uint256)50_storage"
      },
      {
        "astId": 1977,
        "contract": "contracts/nft/TellerNFT.sol:TellerNFT",
        "label": "__gap",
        "offset": 0,
        "slot": "51",
        "type": "t_array(t_uint256)50_storage"
      },
      {
        "astId": 427,
        "contract": "contracts/nft/TellerNFT.sol:TellerNFT",
        "label": "_name",
        "offset": 0,
        "slot": "101",
        "type": "t_string_storage"
      },
      {
        "astId": 429,
        "contract": "contracts/nft/TellerNFT.sol:TellerNFT",
        "label": "_symbol",
        "offset": 0,
        "slot": "102",
        "type": "t_string_storage"
      },
      {
        "astId": 433,
        "contract": "contracts/nft/TellerNFT.sol:TellerNFT",
        "label": "_owners",
        "offset": 0,
        "slot": "103",
        "type": "t_mapping(t_uint256,t_address)"
      },
      {
        "astId": 437,
        "contract": "contracts/nft/TellerNFT.sol:TellerNFT",
        "label": "_balances",
        "offset": 0,
        "slot": "104",
        "type": "t_mapping(t_address,t_uint256)"
      },
      {
        "astId": 441,
        "contract": "contracts/nft/TellerNFT.sol:TellerNFT",
        "label": "_tokenApprovals",
        "offset": 0,
        "slot": "105",
        "type": "t_mapping(t_uint256,t_address)"
      },
      {
        "astId": 447,
        "contract": "contracts/nft/TellerNFT.sol:TellerNFT",
        "label": "_operatorApprovals",
        "offset": 0,
        "slot": "106",
        "type": "t_mapping(t_address,t_mapping(t_address,t_bool))"
      },
      {
        "astId": 1247,
        "contract": "contracts/nft/TellerNFT.sol:TellerNFT",
        "label": "__gap",
        "offset": 0,
        "slot": "107",
        "type": "t_array(t_uint256)44_storage"
      },
      {
        "astId": 85,
        "contract": "contracts/nft/TellerNFT.sol:TellerNFT",
        "label": "_roles",
        "offset": 0,
        "slot": "151",
        "type": "t_mapping(t_bytes32,t_struct(RoleData)80_storage)"
      },
      {
        "astId": 349,
        "contract": "contracts/nft/TellerNFT.sol:TellerNFT",
        "label": "__gap",
        "offset": 0,
        "slot": "152",
        "type": "t_array(t_uint256)49_storage"
      },
      {
        "astId": 4029,
        "contract": "contracts/nft/TellerNFT.sol:TellerNFT",
        "label": "_tierCounter",
        "offset": 0,
        "slot": "201",
        "type": "t_struct(Counter)2139_storage"
      },
      {
        "astId": 4032,
        "contract": "contracts/nft/TellerNFT.sol:TellerNFT",
        "label": "_tokenCounter",
        "offset": 0,
        "slot": "202",
        "type": "t_struct(Counter)2139_storage"
      },
      {
        "astId": 4037,
        "contract": "contracts/nft/TellerNFT.sol:TellerNFT",
        "label": "_tiers",
        "offset": 0,
        "slot": "203",
        "type": "t_mapping(t_uint256,t_struct(Tier)3916_storage)"
      },
      {
        "astId": 4041,
        "contract": "contracts/nft/TellerNFT.sol:TellerNFT",
        "label": "_tokenTier",
        "offset": 0,
        "slot": "204",
        "type": "t_mapping(t_uint256,t_uint256)"
      },
      {
        "astId": 4046,
        "contract": "contracts/nft/TellerNFT.sol:TellerNFT",
        "label": "_ownerTokenIDs",
        "offset": 0,
        "slot": "205",
        "type": "t_mapping(t_address,t_struct(UintSet)3004_storage)"
      },
      {
        "astId": 4048,
        "contract": "contracts/nft/TellerNFT.sol:TellerNFT",
        "label": "_metadataBaseURI",
        "offset": 0,
        "slot": "206",
        "type": "t_string_storage"
      },
      {
        "astId": 4050,
        "contract": "contracts/nft/TellerNFT.sol:TellerNFT",
        "label": "_contractURIHash",
        "offset": 0,
        "slot": "207",
        "type": "t_string_storage"
      }
    ],
    "types": {
      "t_address": {
        "encoding": "inplace",
        "label": "address",
        "numberOfBytes": "20"
      },
      "t_array(t_bytes32)dyn_storage": {
        "base": "t_bytes32",
        "encoding": "dynamic_array",
        "label": "bytes32[]",
        "numberOfBytes": "32"
      },
      "t_array(t_string_storage)dyn_storage": {
        "base": "t_string_storage",
        "encoding": "dynamic_array",
        "label": "string[]",
        "numberOfBytes": "32"
      },
      "t_array(t_uint256)44_storage": {
        "base": "t_uint256",
        "encoding": "inplace",
        "label": "uint256[44]",
        "numberOfBytes": "1408"
      },
      "t_array(t_uint256)49_storage": {
        "base": "t_uint256",
        "encoding": "inplace",
        "label": "uint256[49]",
        "numberOfBytes": "1568"
      },
      "t_array(t_uint256)50_storage": {
        "base": "t_uint256",
        "encoding": "inplace",
        "label": "uint256[50]",
        "numberOfBytes": "1600"
      },
      "t_bool": {
        "encoding": "inplace",
        "label": "bool",
        "numberOfBytes": "1"
      },
      "t_bytes32": {
        "encoding": "inplace",
        "label": "bytes32",
        "numberOfBytes": "32"
      },
      "t_mapping(t_address,t_bool)": {
        "encoding": "mapping",
        "key": "t_address",
        "label": "mapping(address => bool)",
        "numberOfBytes": "32",
        "value": "t_bool"
      },
      "t_mapping(t_address,t_mapping(t_address,t_bool))": {
        "encoding": "mapping",
        "key": "t_address",
        "label": "mapping(address => mapping(address => bool))",
        "numberOfBytes": "32",
        "value": "t_mapping(t_address,t_bool)"
      },
      "t_mapping(t_address,t_struct(UintSet)3004_storage)": {
        "encoding": "mapping",
        "key": "t_address",
        "label": "mapping(address => struct EnumerableSet.UintSet)",
        "numberOfBytes": "32",
        "value": "t_struct(UintSet)3004_storage"
      },
      "t_mapping(t_address,t_uint256)": {
        "encoding": "mapping",
        "key": "t_address",
        "label": "mapping(address => uint256)",
        "numberOfBytes": "32",
        "value": "t_uint256"
      },
      "t_mapping(t_bytes32,t_struct(RoleData)80_storage)": {
        "encoding": "mapping",
        "key": "t_bytes32",
        "label": "mapping(bytes32 => struct AccessControlUpgradeable.RoleData)",
        "numberOfBytes": "32",
        "value": "t_struct(RoleData)80_storage"
      },
      "t_mapping(t_bytes32,t_uint256)": {
        "encoding": "mapping",
        "key": "t_bytes32",
        "label": "mapping(bytes32 => uint256)",
        "numberOfBytes": "32",
        "value": "t_uint256"
      },
      "t_mapping(t_uint256,t_address)": {
        "encoding": "mapping",
        "key": "t_uint256",
        "label": "mapping(uint256 => address)",
        "numberOfBytes": "32",
        "value": "t_address"
      },
      "t_mapping(t_uint256,t_struct(Tier)3916_storage)": {
        "encoding": "mapping",
        "key": "t_uint256",
        "label": "mapping(uint256 => struct ITellerNFT.Tier)",
        "numberOfBytes": "32",
        "value": "t_struct(Tier)3916_storage"
      },
      "t_mapping(t_uint256,t_uint256)": {
        "encoding": "mapping",
        "key": "t_uint256",
        "label": "mapping(uint256 => uint256)",
        "numberOfBytes": "32",
        "value": "t_uint256"
      },
      "t_string_storage": {
        "encoding": "bytes",
        "label": "string",
        "numberOfBytes": "32"
      },
      "t_struct(Counter)2139_storage": {
        "encoding": "inplace",
        "label": "struct Counters.Counter",
        "members": [
          {
            "astId": 2138,
            "contract": "contracts/nft/TellerNFT.sol:TellerNFT",
            "label": "_value",
            "offset": 0,
            "slot": "0",
            "type": "t_uint256"
          }
        ],
        "numberOfBytes": "32"
      },
      "t_struct(RoleData)80_storage": {
        "encoding": "inplace",
        "label": "struct AccessControlUpgradeable.RoleData",
        "members": [
          {
            "astId": 77,
            "contract": "contracts/nft/TellerNFT.sol:TellerNFT",
            "label": "members",
            "offset": 0,
            "slot": "0",
            "type": "t_mapping(t_address,t_bool)"
          },
          {
            "astId": 79,
            "contract": "contracts/nft/TellerNFT.sol:TellerNFT",
            "label": "adminRole",
            "offset": 0,
            "slot": "1",
            "type": "t_bytes32"
          }
        ],
        "numberOfBytes": "64"
      },
      "t_struct(Set)2600_storage": {
        "encoding": "inplace",
        "label": "struct EnumerableSet.Set",
        "members": [
          {
            "astId": 2595,
            "contract": "contracts/nft/TellerNFT.sol:TellerNFT",
            "label": "_values",
            "offset": 0,
            "slot": "0",
            "type": "t_array(t_bytes32)dyn_storage"
          },
          {
            "astId": 2599,
            "contract": "contracts/nft/TellerNFT.sol:TellerNFT",
            "label": "_indexes",
            "offset": 0,
            "slot": "1",
            "type": "t_mapping(t_bytes32,t_uint256)"
          }
        ],
        "numberOfBytes": "64"
      },
      "t_struct(Tier)3916_storage": {
        "encoding": "inplace",
        "label": "struct ITellerNFT.Tier",
        "members": [
          {
            "astId": 3906,
            "contract": "contracts/nft/TellerNFT.sol:TellerNFT",
            "label": "baseLoanSize",
            "offset": 0,
            "slot": "0",
            "type": "t_uint256"
          },
          {
            "astId": 3909,
            "contract": "contracts/nft/TellerNFT.sol:TellerNFT",
            "label": "hashes",
            "offset": 0,
            "slot": "1",
            "type": "t_array(t_string_storage)dyn_storage"
          },
          {
            "astId": 3911,
            "contract": "contracts/nft/TellerNFT.sol:TellerNFT",
            "label": "contributionAsset",
            "offset": 0,
            "slot": "2",
            "type": "t_address"
          },
          {
            "astId": 3913,
            "contract": "contracts/nft/TellerNFT.sol:TellerNFT",
            "label": "contributionSize",
            "offset": 0,
            "slot": "3",
            "type": "t_uint256"
          },
          {
            "astId": 3915,
            "contract": "contracts/nft/TellerNFT.sol:TellerNFT",
            "label": "contributionMultiplier",
            "offset": 0,
            "slot": "4",
            "type": "t_uint8"
          }
        ],
        "numberOfBytes": "160"
      },
      "t_struct(UintSet)3004_storage": {
        "encoding": "inplace",
        "label": "struct EnumerableSet.UintSet",
        "members": [
          {
            "astId": 3003,
            "contract": "contracts/nft/TellerNFT.sol:TellerNFT",
            "label": "_inner",
            "offset": 0,
            "slot": "0",
            "type": "t_struct(Set)2600_storage"
          }
        ],
        "numberOfBytes": "64"
      },
      "t_uint256": {
        "encoding": "inplace",
        "label": "uint256",
        "numberOfBytes": "32"
      },
      "t_uint8": {
        "encoding": "inplace",
        "label": "uint8",
        "numberOfBytes": "1"
      }
    }
  }
}