{
  "address": "0xaB9D13A600dA3FAfE39C7eD4902D3b27d625b12C",
  "abi": [
    {
      "anonymous": false,
      "inputs": [
        {
          "indexed": true,
          "internalType": "bytes32",
          "name": "role",
          "type": "bytes32"
        },
        {
          "indexed": true,
          "internalType": "bytes32",
          "name": "previousAdminRole",
          "type": "bytes32"
        },
        {
          "indexed": true,
          "internalType": "bytes32",
          "name": "newAdminRole",
          "type": "bytes32"
        }
      ],
      "name": "RoleAdminChanged",
      "type": "event"
    },
    {
      "anonymous": false,
      "inputs": [
        {
          "indexed": true,
          "internalType": "bytes32",
          "name": "role",
          "type": "bytes32"
        },
        {
          "indexed": true,
          "internalType": "address",
          "name": "account",
          "type": "address"
        },
        {
          "indexed": true,
          "internalType": "address",
          "name": "sender",
          "type": "address"
        }
      ],
      "name": "RoleGranted",
      "type": "event"
    },
    {
      "anonymous": false,
      "inputs": [
        {
          "indexed": true,
          "internalType": "bytes32",
          "name": "role",
          "type": "bytes32"
        },
        {
          "indexed": true,
          "internalType": "address",
          "name": "account",
          "type": "address"
        },
        {
          "indexed": true,
          "internalType": "address",
          "name": "sender",
          "type": "address"
        }
      ],
      "name": "RoleRevoked",
      "type": "event"
    },
    {
      "inputs": [],
      "name": "ADMIN",
      "outputs": [
        {
          "internalType": "bytes32",
          "name": "",
          "type": "bytes32"
        }
      ],
      "stateMutability": "view",
      "type": "function"
    },
    {
      "inputs": [],
      "name": "DEFAULT_ADMIN_ROLE",
      "outputs": [
        {
          "internalType": "bytes32",
          "name": "",
          "type": "bytes32"
        }
      ],
      "stateMutability": "view",
      "type": "function"
    },
    {
      "inputs": [
        {
          "internalType": "uint256",
          "name": "",
          "type": "uint256"
        }
      ],
      "name": "_tokenTierMappingCompressed",
      "outputs": [
        {
          "internalType": "uint256",
          "name": "",
          "type": "uint256"
        }
      ],
      "stateMutability": "view",
      "type": "function"
    },
    {
      "inputs": [],
      "name": "_tokenTierMappingCompressedSet",
      "outputs": [
        {
          "internalType": "bool",
          "name": "",
          "type": "bool"
        }
      ],
      "stateMutability": "view",
      "type": "function"
    },
    {
      "inputs": [
        {
          "internalType": "uint256",
          "name": "",
          "type": "uint256"
        }
      ],
      "name": "baseLoanSizes",
      "outputs": [
        {
          "internalType": "uint256",
          "name": "",
          "type": "uint256"
        }
      ],
      "stateMutability": "view",
      "type": "function"
    },
    {
      "inputs": [
        {
          "internalType": "uint256",
          "name": "",
          "type": "uint256"
        }
      ],
      "name": "contributionAssets",
      "outputs": [
        {
          "internalType": "address",
          "name": "",
          "type": "address"
        }
      ],
      "stateMutability": "view",
      "type": "function"
    },
    {
      "inputs": [
        {
          "internalType": "uint256",
          "name": "",
          "type": "uint256"
        }
      ],
      "name": "contributionMultipliers",
      "outputs": [
        {
          "internalType": "uint8",
          "name": "",
          "type": "uint8"
        }
      ],
      "stateMutability": "view",
      "type": "function"
    },
    {
      "inputs": [
        {
          "internalType": "uint256",
          "name": "",
          "type": "uint256"
        }
      ],
      "name": "contributionSizes",
      "outputs": [
        {
          "internalType": "uint256",
          "name": "",
          "type": "uint256"
        }
      ],
      "stateMutability": "view",
      "type": "function"
    },
    {
      "inputs": [
        {
          "internalType": "bytes32",
          "name": "role",
          "type": "bytes32"
        }
      ],
      "name": "getRoleAdmin",
      "outputs": [
        {
          "internalType": "bytes32",
          "name": "",
          "type": "bytes32"
        }
      ],
      "stateMutability": "view",
      "type": "function"
    },
    {
      "inputs": [
        {
          "internalType": "uint256",
          "name": "tierIndex",
          "type": "uint256"
        }
      ],
      "name": "getTierHashes",
      "outputs": [
        {
          "internalType": "string[]",
          "name": "",
          "type": "string[]"
        }
      ],
      "stateMutability": "view",
      "type": "function"
    },
    {
      "inputs": [
        {
          "internalType": "uint256",
          "name": "tokenId",
          "type": "uint256"
        }
      ],
      "name": "getTokenTierIndex",
      "outputs": [
        {
          "internalType": "uint8",
          "name": "index_",
          "type": "uint8"
        }
      ],
      "stateMutability": "view",
      "type": "function"
    },
    {
      "inputs": [
        {
          "internalType": "bytes32",
          "name": "role",
          "type": "bytes32"
        },
        {
          "internalType": "address",
          "name": "account",
          "type": "address"
        }
      ],
      "name": "grantRole",
      "outputs": [],
      "stateMutability": "nonpayable",
      "type": "function"
    },
    {
      "inputs": [
        {
          "internalType": "bytes32",
          "name": "role",
          "type": "bytes32"
        },
        {
          "internalType": "address",
          "name": "account",
          "type": "address"
        }
      ],
      "name": "hasRole",
      "outputs": [
        {
          "internalType": "bool",
          "name": "",
          "type": "bool"
        }
      ],
      "stateMutability": "view",
      "type": "function"
    },
    {
      "inputs": [
        {
          "internalType": "uint256",
          "name": "",
          "type": "uint256"
        },
        {
          "internalType": "uint256",
          "name": "",
          "type": "uint256"
        }
      ],
      "name": "hashes",
      "outputs": [
        {
          "internalType": "string",
          "name": "",
          "type": "string"
        }
      ],
      "stateMutability": "view",
      "type": "function"
    },
    {
      "inputs": [
        {
          "internalType": "address",
          "name": "initialAdmin",
          "type": "address"
        }
      ],
      "name": "initialize",
      "outputs": [],
      "stateMutability": "nonpayable",
      "type": "function"
    },
    {
      "inputs": [
        {
          "internalType": "bytes32",
          "name": "role",
          "type": "bytes32"
        },
        {
          "internalType": "address",
          "name": "account",
          "type": "address"
        }
      ],
      "name": "renounceRole",
      "outputs": [],
      "stateMutability": "nonpayable",
      "type": "function"
    },
    {
      "inputs": [
        {
          "internalType": "bytes32",
          "name": "role",
          "type": "bytes32"
        },
        {
          "internalType": "address",
          "name": "account",
          "type": "address"
        }
      ],
      "name": "revokeRole",
      "outputs": [],
      "stateMutability": "nonpayable",
      "type": "function"
    },
    {
      "inputs": [
        {
          "internalType": "uint256[]",
          "name": "tiersMapping",
          "type": "uint256[]"
        }
      ],
      "name": "setAllTokenTierMappings",
      "outputs": [
        {
          "internalType": "bool",
          "name": "",
          "type": "bool"
        }
      ],
      "stateMutability": "nonpayable",
      "type": "function"
    },
    {
      "inputs": [
        {
          "internalType": "uint256",
          "name": "index",
          "type": "uint256"
        },
        {
          "components": [
            {
              "internalType": "uint256",
              "name": "baseLoanSize",
              "type": "uint256"
            },
            {
              "internalType": "string[]",
              "name": "hashes",
              "type": "string[]"
            },
            {
              "internalType": "address",
              "name": "contributionAsset",
              "type": "address"
            },
            {
              "internalType": "uint256",
              "name": "contributionSize",
              "type": "uint256"
            },
            {
              "internalType": "uint8",
              "name": "contributionMultiplier",
              "type": "uint8"
            }
          ],
          "internalType": "struct TellerNFTDictionary.Tier",
          "name": "newTier",
          "type": "tuple"
        }
      ],
      "name": "setTier",
      "outputs": [
        {
          "internalType": "bool",
          "name": "",
          "type": "bool"
        }
      ],
      "stateMutability": "nonpayable",
      "type": "function"
    },
    {
      "inputs": [
        {
          "internalType": "uint256",
          "name": "tokenId",
          "type": "uint256"
        },
        {
          "internalType": "uint256",
          "name": "tokenTier",
          "type": "uint256"
        }
      ],
      "name": "setTokenTierForTokenId",
      "outputs": [
        {
          "internalType": "bool",
          "name": "",
          "type": "bool"
        }
      ],
      "stateMutability": "nonpayable",
      "type": "function"
    },
    {
      "inputs": [
        {
          "internalType": "uint256[]",
          "name": "tokenIds",
          "type": "uint256[]"
        },
        {
          "internalType": "uint256",
          "name": "tokenTier",
          "type": "uint256"
        }
      ],
      "name": "setTokenTierForTokenIds",
      "outputs": [
        {
          "internalType": "bool",
          "name": "",
          "type": "bool"
        }
      ],
      "stateMutability": "nonpayable",
      "type": "function"
    },
    {
      "inputs": [
        {
          "internalType": "uint256",
          "name": "index",
          "type": "uint256"
        },
        {
          "internalType": "uint256",
          "name": "tierMapping",
          "type": "uint256"
        }
      ],
      "name": "setTokenTierMapping",
      "outputs": [
        {
          "internalType": "bool",
          "name": "",
          "type": "bool"
        }
      ],
      "stateMutability": "nonpayable",
      "type": "function"
    },
    {
      "inputs": [
        {
          "internalType": "bytes4",
          "name": "interfaceId",
          "type": "bytes4"
        }
      ],
      "name": "supportsInterface",
      "outputs": [
        {
          "internalType": "bool",
          "name": "",
          "type": "bool"
        }
      ],
      "stateMutability": "view",
      "type": "function"
    },
    {
      "inputs": [
        {
          "internalType": "uint256",
          "name": "tokenId",
          "type": "uint256"
        }
      ],
      "name": "tokenBaseLoanSize",
      "outputs": [
        {
          "internalType": "uint256",
          "name": "",
          "type": "uint256"
        }
      ],
      "stateMutability": "view",
      "type": "function"
    },
    {
      "inputs": [
        {
          "internalType": "uint256",
          "name": "tokenId",
          "type": "uint256"
        }
      ],
      "name": "tokenContributionAsset",
      "outputs": [
        {
          "internalType": "address",
          "name": "",
          "type": "address"
        }
      ],
      "stateMutability": "view",
      "type": "function"
    },
    {
      "inputs": [
        {
          "internalType": "uint256",
          "name": "tokenId",
          "type": "uint256"
        }
      ],
      "name": "tokenContributionMultiplier",
      "outputs": [
        {
          "internalType": "uint8",
          "name": "",
          "type": "uint8"
        }
      ],
      "stateMutability": "view",
      "type": "function"
    },
    {
      "inputs": [
        {
          "internalType": "uint256",
          "name": "tokenId",
          "type": "uint256"
        }
      ],
      "name": "tokenContributionSize",
      "outputs": [
        {
          "internalType": "uint256",
          "name": "",
          "type": "uint256"
        }
      ],
      "stateMutability": "view",
      "type": "function"
    },
    {
      "inputs": [
        {
          "internalType": "uint256",
          "name": "tokenId",
          "type": "uint256"
        }
      ],
      "name": "tokenURIHash",
      "outputs": [
        {
          "internalType": "string",
          "name": "",
          "type": "string"
        }
      ],
      "stateMutability": "view",
      "type": "function"
    }
  ],
  "artifactName": "TellerNFTDictionary",
  "transactionHash": "0xc840e6c1d133633aec83b7f8ba8ef86d55888313fce15e6053f94eae9b4136c3",
  "args": [],
  "solcInputHash": "1389136e56e3a43cff4f2990a46ef548",
  "bytecode": "0x608060405234801561001057600080fd5b506119f0806100206000396000f3fe608060405234801561001057600080fd5b50600436106101c35760003560e01c80638a41823c116100f9578063c5d6bbaa11610097578063d300133911610071578063d300133914610447578063d547741f1461045a578063f40898ef1461046d578063f89a268e14610480576101c3565b8063c5d6bbaa146103e7578063cbee53a314610407578063d13372ca14610427576101c3565b8063a217fddf116100d3578063a217fddf1461039c578063bd5c89ed146103a4578063c07b03d0146103c7578063c4d66de8146103d4576101c3565b80638a41823c1461035657806391d1485414610376578063a16eae3114610389576101c3565b80632a0acc6a1161016657806336568abe1161014057806336568abe146102f857806346765a571461030b57806362a572331461031e57806375623b4514610343576101c3565b80632a0acc6a146102bb5780632a4ce651146102d05780632f2ff15d146102e3576101c3565b80631e89487a116101a25780631e89487a14610231578063245a69d414610272578063248a9ca31461028557806324db57f8146102a8576101c3565b806284c795146101c857806301ffc9a7146101ee5780631a61974014610211575b600080fd5b6101db6101d6366004611482565b610493565b6040519081526020015b60405180910390f35b6102016101fc3660046114c5565b6104ba565b60405190151581526020016101e5565b6101db61021f366004611482565b60976020526000908152604090205481565b61025a61023f366004611482565b6099602052600090815260409020546001600160a01b031681565b6040516001600160a01b0390911681526020016101e5565b6102016102803660046113ea565b6104e5565b6101db610293366004611482565b60009081526065602052604090206001015490565b6101db6102b6366004611482565b610604565b6101db60008051602061199b83398151915281565b6102016102de366004611635565b610629565b6102f66102f136600461149a565b610675565b005b6102f661030636600461149a565b6106a1565b6102016103193660046114ed565b61071f565b61033161032c366004611482565b6107f0565b60405160ff90911681526020016101e5565b610201610351366004611635565b610818565b6101db610364366004611482565b609a6020526000908152604090205481565b61020161038436600461149a565b6108bb565b610331610397366004611482565b6108e6565b6101db600081565b6103316103b2366004611482565b609b6020526000908152604090205460ff1681565b609d546102019060ff1681565b6102f66103e236600461135a565b610934565b6101db6103f5366004611482565b609c6020526000908152604090205481565b61041a610415366004611482565b61096f565b6040516101e591906116f7565b61043a610435366004611635565b610a5b565b6040516101e59190611758565b61043a610455366004611482565b610b14565b6102f661046836600461149a565b610c4a565b61025a61047b366004611482565b610c70565b61020161048e366004611374565b610c9e565b60008061049f836108e6565b60ff166000908152609a60205260409020549150505b919050565b60006001600160e01b03198216630c3e4d3160e31b14806104df57506104df82610d2d565b92915050565b60006104ff60008051602061199b83398151915233610384565b6105245760405162461bcd60e51b815260040161051b9061176b565b60405180910390fd5b609d5460ff16156105935760405162461bcd60e51b815260206004820152603360248201527f54656c6c65724e465444696374696f6e6172793a20746f6b656e2074696572206044820152721b585c1c1a5b99c8185b1c9958591e481cd95d606a1b606482015260840161051b565b60005b82518110156105ed578281815181106105bf57634e487b7160e01b600052603260045260246000fd5b6020908102919091018101516000838152609c909252604090912055806105e581611929565b915050610596565b5050609d805460ff19166001908117909155919050565b600080610610836108e6565b60ff166000908152609760205260409020549392505050565b600061064360008051602061199b83398151915233610384565b61065f5760405162461bcd60e51b815260040161051b9061176b565b506000918252609c602052604090912055600190565b60008281526065602052604090206001015461069281335b610d62565b61069c8383610dc6565b505050565b6001600160a01b03811633146107115760405162461bcd60e51b815260206004820152602f60248201527f416363657373436f6e74726f6c3a2063616e206f6e6c792072656e6f756e636560448201526e103937b632b9903337b91039b2b63360891b606482015260840161051b565b61071b8282610e4c565b5050565b600061073960008051602061199b83398151915233610384565b6107555760405162461bcd60e51b815260040161051b9061176b565b8151600084815260976020908152604080832093909355808501516098825292909120825161078a93919291909101906111e7565b505060408181015160009384526099602090815282852080546001600160a01b0319166001600160a01b03909316929092179091556060830151609a825282852055608090920151609b909252909120805460ff191660ff909216919091179055600190565b6000806107fc836108e6565b60ff9081166000908152609b6020526040902054169392505050565b600061083260008051602061199b83398151915233610384565b61084e5760405162461bcd60e51b815260040161051b9061176b565b600061085b60208561185d565b6000818152609c602090815260408220549293506108799087611944565b61088490601f611890565b61088f906008611871565b6000938452609c602052604090932094831b60ff90931b19919091169190911790925550600192915050565b60009182526065602090815260408084206001600160a01b0393909316845291905290205460ff1690565b6000806108f460208461185d565b6000818152609c602090815260408220549293506109129086611944565b61091d90601f611890565b610928906008611871565b9190911c949350505050565b61094c60008051602061199b83398151915282610eb3565b61096460008051602061199b83398151915280610ebd565b61096c610f11565b50565b606060986000838152602001908152602001600020805480602002602001604051908101604052809291908181526020016000905b82821015610a505783829060005260206000200180546109c3906118ee565b80601f01602080910402602001604051908101604052809291908181526020018280546109ef906118ee565b8015610a3c5780601f10610a1157610100808354040283529160200191610a3c565b820191906000526020600020905b815481529060010190602001808311610a1f57829003601f168201915b5050505050815260200190600101906109a4565b505050509050919050565b60986020528160005260406000208181548110610a7757600080fd5b90600052602060002001600091509150508054610a93906118ee565b80601f0160208091040260200160405190810160405280929190818152602001828054610abf906118ee565b8015610b0c5780601f10610ae157610100808354040283529160200191610b0c565b820191906000526020600020905b815481529060010190602001808311610aef57829003601f168201915b505050505081565b60606000610b21836108e6565b90506000609860008360ff168152602001908152602001600020805480602002602001604051908101604052809291908181526020016000905b82821015610c07578382906000526020600020018054610b7a906118ee565b80601f0160208091040260200160405190810160405280929190818152602001828054610ba6906118ee565b8015610bf35780601f10610bc857610100808354040283529160200191610bf3565b820191906000526020600020905b815481529060010190602001808311610bd657829003601f168201915b505050505081526020019060010190610b5b565b50505050905080815185610c1b9190611944565b81518110610c3957634e487b7160e01b600052603260045260246000fd5b602002602001015192505050919050565b600082815260656020526040902060010154610c66813361068d565b61069c8383610e4c565b600080610c7c836108e6565b60ff166000908152609960205260409020546001600160a01b03169392505050565b6000610cb860008051602061199b83398151915233610384565b610cd45760405162461bcd60e51b815260040161051b9061176b565b60005b83811015610d2257610d0f858583818110610d0257634e487b7160e01b600052603260045260246000fd5b9050602002013584610818565b5080610d1a81611929565b915050610cd7565b506001949350505050565b60006001600160e01b03198216637965db0b60e01b14806104df57506301ffc9a760e01b6001600160e01b03198316146104df565b610d6c82826108bb565b61071b57610d84816001600160a01b03166014610f94565b610d8f836020610f94565b604051602001610da0929190611682565b60408051601f198184030181529082905262461bcd60e51b825261051b91600401611758565b610dd082826108bb565b61071b5760008281526065602090815260408083206001600160a01b03851684529091529020805460ff19166001179055610e083390565b6001600160a01b0316816001600160a01b0316837f2f8788117e7eff1d82e926ec794901d17c78024a50270940304540a733656f0d60405160405180910390a45050565b610e5682826108bb565b1561071b5760008281526065602090815260408083206001600160a01b0385168085529252808320805460ff1916905551339285917ff6391f5c32d9c69d2a47ea670b442974b53935d1edc7fd64eb21e047a839171b9190a45050565b61071b8282610dc6565b600082815260656020526040902060010154819060405184907fbd79b86ffe0ab8e8776151514217cd7cacd52c909f66475c3af44e129f0b00ff90600090a460009182526065602052604090912060010155565b600054610100900460ff1680610f2a575060005460ff16155b610f465760405162461bcd60e51b815260040161051b906117a2565b600054610100900460ff16158015610f68576000805461ffff19166101011790555b610f7061117d565b610f7861117d565b610f8061117d565b801561096c576000805461ff001916905550565b60606000610fa3836002611871565b610fae906002611845565b67ffffffffffffffff811115610fd457634e487b7160e01b600052604160045260246000fd5b6040519080825280601f01601f191660200182016040528015610ffe576020820181803683370190505b509050600360fc1b8160008151811061102757634e487b7160e01b600052603260045260246000fd5b60200101906001600160f81b031916908160001a905350600f60fb1b8160018151811061106457634e487b7160e01b600052603260045260246000fd5b60200101906001600160f81b031916908160001a9053506000611088846002611871565b611093906001611845565b90505b6001811115611127576f181899199a1a9b1b9c1cb0b131b232b360811b85600f16601081106110d557634e487b7160e01b600052603260045260246000fd5b1a60f81b8282815181106110f957634e487b7160e01b600052603260045260246000fd5b60200101906001600160f81b031916908160001a90535060049490941c93611120816118d7565b9050611096565b5083156111765760405162461bcd60e51b815260206004820181905260248201527f537472696e67733a20686578206c656e67746820696e73756666696369656e74604482015260640161051b565b9392505050565b600054610100900460ff1680611196575060005460ff16155b6111b25760405162461bcd60e51b815260040161051b906117a2565b600054610100900460ff16158015610f80576000805461ffff1916610101179055801561096c576000805461ff001916905550565b828054828255906000526020600020908101928215611234579160200282015b828111156112345782518051611224918491602090910190611244565b5091602001919060010190611207565b506112409291506112c4565b5090565b828054611250906118ee565b90600052602060002090601f01602090048101928261127257600085556112b8565b82601f1061128b57805160ff19168380011785556112b8565b828001600101855582156112b8579182015b828111156112b857825182559160200191906001019061129d565b506112409291506112e1565b808211156112405760006112d882826112f6565b506001016112c4565b5b8082111561124057600081556001016112e2565b508054611302906118ee565b6000825580601f10611314575061096c565b601f01602090049060005260206000209081019061096c91906112e1565b80356001600160a01b03811681146104b557600080fd5b803560ff811681146104b557600080fd5b60006020828403121561136b578081fd5b61117682611332565b600080600060408486031215611388578182fd5b833567ffffffffffffffff8082111561139f578384fd5b818601915086601f8301126113b2578384fd5b8135818111156113c0578485fd5b8760208260051b85010111156113d4578485fd5b6020928301989097509590910135949350505050565b600060208083850312156113fc578182fd5b823567ffffffffffffffff811115611412578283fd5b8301601f81018513611422578283fd5b803561143561143082611821565b6117f0565b80828252848201915084840188868560051b8701011115611454578687fd5b8694505b83851015611476578035835260019490940193918501918501611458565b50979650505050505050565b600060208284031215611493578081fd5b5035919050565b600080604083850312156114ac578182fd5b823591506114bc60208401611332565b90509250929050565b6000602082840312156114d6578081fd5b81356001600160e01b031981168114611176578182fd5b600080604083850312156114ff578182fd5b8235915060208084013567ffffffffffffffff8082111561151e578384fd5b9085019060a08288031215611531578384fd5b61153b60a06117f0565b82358152838301358281111561154f578586fd5b8301601f8101891361155f578586fd5b61156c6114308235611821565b8135815285810190868301885b84358110156115f257813585018d603f820112611594578a8bfd5b89810135888111156115a8576115a8611984565b6115ba601f8201601f19168c016117f0565b8181528f60408385010111156115ce578c8dfd5b81604084018d8301379081018b018c90528552509288019290880190600101611579565b50508387015250611607905060408401611332565b60408201526060830135606082015261162260808401611349565b6080820152809450505050509250929050565b60008060408385031215611647578182fd5b50508035926020909101359150565b6000815180845261166e8160208601602086016118a7565b601f01601f19169290920160200192915050565b60007f416363657373436f6e74726f6c3a206163636f756e7420000000000000000000825283516116ba8160178501602088016118a7565b7001034b99036b4b9b9b4b733903937b6329607d1b60179184019182015283516116eb8160288401602088016118a7565b01602801949350505050565b6000602080830181845280855180835260408601915060408160051b8701019250838701855b8281101561174b57603f19888603018452611739858351611656565b9450928501929085019060010161171d565b5092979650505050505050565b6000602082526111766020830184611656565b6020808252601e908201527f54656c6c65724e465444696374696f6e6172793a206e6f742061646d696e0000604082015260600190565b6020808252602e908201527f496e697469616c697a61626c653a20636f6e747261637420697320616c72656160408201526d191e481a5b9a5d1a585b1a5e995960921b606082015260800190565b604051601f8201601f1916810167ffffffffffffffff8111828210171561181957611819611984565b604052919050565b600067ffffffffffffffff82111561183b5761183b611984565b5060051b60200190565b6000821982111561185857611858611958565b500190565b60008261186c5761186c61196e565b500490565b600081600019048311821515161561188b5761188b611958565b500290565b6000828210156118a2576118a2611958565b500390565b60005b838110156118c25781810151838201526020016118aa565b838111156118d1576000848401525b50505050565b6000816118e6576118e6611958565b506000190190565b600181811c9082168061190257607f821691505b6020821081141561192357634e487b7160e01b600052602260045260246000fd5b50919050565b600060001982141561193d5761193d611958565b5060010190565b6000826119535761195361196e565b500690565b634e487b7160e01b600052601160045260246000fd5b634e487b7160e01b600052601260045260246000fd5b634e487b7160e01b600052604160045260246000fdfedf8b4c520ffe197c5343c6f5aec59570151ef9a492f2c624fd45ddde6135ec42a2646970667358221220d0935eb51310f4c559855d9ba58852b203420d82a3d55d8a0e15d2ee4866d2c764736f6c63430008030033",
  "devdoc": {
    "author": "develop@teller.finance",
    "kind": "dev",
    "methods": {
      "getRoleAdmin(bytes32)": {
        "details": "Returns the admin role that controls `role`. See {grantRole} and {revokeRole}. To change a role's admin, use {_setRoleAdmin}."
      },
      "getTokenTierIndex(uint256)": {
        "params": {
          "tokenId": "ID of the token to get Tier info."
        }
      },
      "grantRole(bytes32,address)": {
        "details": "Grants `role` to `account`. If `account` had not been already granted `role`, emits a {RoleGranted} event. Requirements: - the caller must have ``role``'s admin role."
      },
      "hasRole(bytes32,address)": {
        "details": "Returns `true` if `account` has been granted `role`."
      },
      "renounceRole(bytes32,address)": {
        "details": "Revokes `role` from the calling account. Roles are often managed via {grantRole} and {revokeRole}: this function's purpose is to provide a mechanism for accounts to lose their privileges if they are compromised (such as when a trusted device is misplaced). If the calling account had been granted `role`, emits a {RoleRevoked} event. Requirements: - the caller must be `account`."
      },
      "revokeRole(bytes32,address)": {
        "details": "Revokes `role` from `account`. If `account` had been granted `role`, emits a {RoleRevoked} event. Requirements: - the caller must have ``role``'s admin role."
      },
      "setAllTokenTierMappings(uint256[])": {
        "params": {
          "tiersMapping": "Information about the new tiers to add. Requirements:  - Caller must have the {Admin} role"
        }
      },
      "setTier(uint256,(uint256,string[],address,uint256,uint8))": {
        "details": "It auto increments the index of the next tier to add.",
        "params": {
          "newTier": "Information about the new tier to add. Requirements:  - Caller must have the {Admin} role"
        }
      },
      "setTokenTierForTokenId(uint256,uint256)": {
        "params": {
          "tokenId": "the NFT token Id for which to add data",
          "tokenTier": "the index of the tier that these tokenIds should have Requirements:  - Caller must have the {Admin} role"
        }
      },
      "setTokenTierForTokenIds(uint256[],uint256)": {
        "params": {
          "tokenIds": "the NFT token Ids for which to add data",
          "tokenTier": "the index of the tier that these tokenIds should have Requirements:  - Caller must have the {Admin} role"
        }
      },
      "setTokenTierMapping(uint256,uint256)": {
        "params": {
          "index": "the mapping row, each holds data for 32 tokens",
          "tierMapping": "Information about the new tier to add. Requirements:  - Caller must have the {Admin} role"
        }
      },
      "supportsInterface(bytes4)": {
        "details": "See {IERC165-supportsInterface}."
      },
      "tokenBaseLoanSize(uint256)": {
        "params": {
          "tokenId": "ID of the token to get info."
        }
      },
      "tokenContributionAsset(uint256)": {
        "params": {
          "tokenId": "ID of the token to get info."
        }
      },
      "tokenContributionMultiplier(uint256)": {
        "params": {
          "tokenId": "ID of the token to get info."
        }
      },
      "tokenContributionSize(uint256)": {
        "params": {
          "tokenId": "ID of the token to get info."
        }
      },
      "tokenURIHash(uint256)": {
        "params": {
          "tokenId": "ID of the token to get info."
        }
      }
    },
    "version": 1
  },
  "userdoc": {
    "kind": "user",
    "methods": {
      "getTokenTierIndex(uint256)": {
        "notice": "It returns information about a Tier for a token ID."
      },
      "setAllTokenTierMappings(uint256[])": {
        "notice": "Sets the tiers for each tokenId using compressed data."
      },
      "setTier(uint256,(uint256,string[],address,uint256,uint8))": {
        "notice": "Adds a new Tier to be minted with the given information."
      },
      "setTokenTierForTokenId(uint256,uint256)": {
        "notice": "Sets a specific tier for a specific tokenId using compressed data."
      },
      "setTokenTierForTokenIds(uint256[],uint256)": {
        "notice": "Sets a specific tier for a specific tokenId using compressed data."
      },
      "setTokenTierMapping(uint256,uint256)": {
        "notice": "Sets the tiers for each tokenId using compressed data."
      },
      "tokenBaseLoanSize(uint256)": {
        "notice": "It returns Base Loan Size for a token ID."
      },
      "tokenContributionAsset(uint256)": {
        "notice": "It returns Contribution Asset for a token ID."
      },
      "tokenContributionMultiplier(uint256)": {
        "notice": "It returns Contribution Multiplier for a token ID."
      },
      "tokenContributionSize(uint256)": {
        "notice": "It returns Contribution Size for a token ID."
      },
      "tokenURIHash(uint256)": {
        "notice": "It returns Token URI Hash for a token ID."
      }
    },
    "notice": "This contract is used by borrowers to call Dapp functions (using delegate calls).This contract should only be constructed using it's upgradeable Proxy contract.In order to call a Dapp function, the Dapp must be added in the DappRegistry instance.",
    "version": 1
  },
  "storageLayout": {
    "storage": [
      {
        "astId": 635,
        "contract": "contracts/nft/TellerNFTDictionary.sol:TellerNFTDictionary",
        "label": "_initialized",
        "offset": 0,
        "slot": "0",
        "type": "t_bool"
      },
      {
        "astId": 638,
        "contract": "contracts/nft/TellerNFTDictionary.sol:TellerNFTDictionary",
        "label": "_initializing",
        "offset": 1,
        "slot": "0",
        "type": "t_bool"
      },
      {
        "astId": 2833,
        "contract": "contracts/nft/TellerNFTDictionary.sol:TellerNFTDictionary",
        "label": "__gap",
        "offset": 0,
        "slot": "1",
        "type": "t_array(t_uint256)50_storage"
      },
      {
        "astId": 3082,
        "contract": "contracts/nft/TellerNFTDictionary.sol:TellerNFTDictionary",
        "label": "__gap",
        "offset": 0,
        "slot": "51",
        "type": "t_array(t_uint256)50_storage"
      },
      {
        "astId": 189,
        "contract": "contracts/nft/TellerNFTDictionary.sol:TellerNFTDictionary",
        "label": "_roles",
        "offset": 0,
        "slot": "101",
        "type": "t_mapping(t_bytes32,t_struct(RoleData)184_storage)"
      },
      {
        "astId": 497,
        "contract": "contracts/nft/TellerNFTDictionary.sol:TellerNFTDictionary",
        "label": "__gap",
        "offset": 0,
        "slot": "102",
        "type": "t_array(t_uint256)49_storage"
      },
      {
        "astId": 17457,
        "contract": "contracts/nft/TellerNFTDictionary.sol:TellerNFTDictionary",
        "label": "baseLoanSizes",
        "offset": 0,
        "slot": "151",
        "type": "t_mapping(t_uint256,t_uint256)"
      },
      {
        "astId": 17462,
        "contract": "contracts/nft/TellerNFTDictionary.sol:TellerNFTDictionary",
        "label": "hashes",
        "offset": 0,
        "slot": "152",
        "type": "t_mapping(t_uint256,t_array(t_string_storage)dyn_storage)"
      },
      {
        "astId": 17466,
        "contract": "contracts/nft/TellerNFTDictionary.sol:TellerNFTDictionary",
        "label": "contributionAssets",
        "offset": 0,
        "slot": "153",
        "type": "t_mapping(t_uint256,t_address)"
      },
      {
        "astId": 17470,
        "contract": "contracts/nft/TellerNFTDictionary.sol:TellerNFTDictionary",
        "label": "contributionSizes",
        "offset": 0,
        "slot": "154",
        "type": "t_mapping(t_uint256,t_uint256)"
      },
      {
        "astId": 17474,
        "contract": "contracts/nft/TellerNFTDictionary.sol:TellerNFTDictionary",
        "label": "contributionMultipliers",
        "offset": 0,
        "slot": "155",
        "type": "t_mapping(t_uint256,t_uint8)"
      },
      {
        "astId": 17483,
        "contract": "contracts/nft/TellerNFTDictionary.sol:TellerNFTDictionary",
        "label": "_tokenTierMappingCompressed",
        "offset": 0,
        "slot": "156",
        "type": "t_mapping(t_uint256,t_uint256)"
      },
      {
        "astId": 17485,
        "contract": "contracts/nft/TellerNFTDictionary.sol:TellerNFTDictionary",
        "label": "_tokenTierMappingCompressedSet",
        "offset": 0,
        "slot": "157",
        "type": "t_bool"
      }
    ],
    "types": {
      "t_address": {
        "encoding": "inplace",
        "label": "address",
        "numberOfBytes": "20"
      },
      "t_array(t_string_storage)dyn_storage": {
        "base": "t_string_storage",
        "encoding": "dynamic_array",
        "label": "string[]",
        "numberOfBytes": "32"
      },
      "t_array(t_uint256)49_storage": {
        "base": "t_uint256",
        "encoding": "inplace",
        "label": "uint256[49]",
        "numberOfBytes": "1568"
      },
      "t_array(t_uint256)50_storage": {
        "base": "t_uint256",
        "encoding": "inplace",
        "label": "uint256[50]",
        "numberOfBytes": "1600"
      },
      "t_bool": {
        "encoding": "inplace",
        "label": "bool",
        "numberOfBytes": "1"
      },
      "t_bytes32": {
        "encoding": "inplace",
        "label": "bytes32",
        "numberOfBytes": "32"
      },
      "t_mapping(t_address,t_bool)": {
        "encoding": "mapping",
        "key": "t_address",
        "label": "mapping(address => bool)",
        "numberOfBytes": "32",
        "value": "t_bool"
      },
      "t_mapping(t_bytes32,t_struct(RoleData)184_storage)": {
        "encoding": "mapping",
        "key": "t_bytes32",
        "label": "mapping(bytes32 => struct AccessControlUpgradeable.RoleData)",
        "numberOfBytes": "32",
        "value": "t_struct(RoleData)184_storage"
      },
      "t_mapping(t_uint256,t_address)": {
        "encoding": "mapping",
        "key": "t_uint256",
        "label": "mapping(uint256 => address)",
        "numberOfBytes": "32",
        "value": "t_address"
      },
      "t_mapping(t_uint256,t_array(t_string_storage)dyn_storage)": {
        "encoding": "mapping",
        "key": "t_uint256",
        "label": "mapping(uint256 => string[])",
        "numberOfBytes": "32",
        "value": "t_array(t_string_storage)dyn_storage"
      },
      "t_mapping(t_uint256,t_uint256)": {
        "encoding": "mapping",
        "key": "t_uint256",
        "label": "mapping(uint256 => uint256)",
        "numberOfBytes": "32",
        "value": "t_uint256"
      },
      "t_mapping(t_uint256,t_uint8)": {
        "encoding": "mapping",
        "key": "t_uint256",
        "label": "mapping(uint256 => uint8)",
        "numberOfBytes": "32",
        "value": "t_uint8"
      },
      "t_string_storage": {
        "encoding": "bytes",
        "label": "string",
        "numberOfBytes": "32"
      },
      "t_struct(RoleData)184_storage": {
        "encoding": "inplace",
        "label": "struct AccessControlUpgradeable.RoleData",
        "members": [
          {
            "astId": 181,
            "contract": "contracts/nft/TellerNFTDictionary.sol:TellerNFTDictionary",
            "label": "members",
            "offset": 0,
            "slot": "0",
            "type": "t_mapping(t_address,t_bool)"
          },
          {
            "astId": 183,
            "contract": "contracts/nft/TellerNFTDictionary.sol:TellerNFTDictionary",
            "label": "adminRole",
            "offset": 0,
            "slot": "1",
            "type": "t_bytes32"
          }
        ],
        "numberOfBytes": "64"
      },
      "t_uint256": {
        "encoding": "inplace",
        "label": "uint256",
        "numberOfBytes": "32"
      },
      "t_uint8": {
        "encoding": "inplace",
        "label": "uint8",
        "numberOfBytes": "1"
      }
    }
  }
}