{
  "address": "0x164Ac16e514f4e47d201aFF991740E166d409b8A",
  "abi": [
    {
      "inputs": [],
      "stateMutability": "nonpayable",
      "type": "constructor"
    },
    {
      "anonymous": false,
      "inputs": [
        {
          "indexed": true,
          "internalType": "address",
          "name": "owner",
          "type": "address"
        },
        {
          "indexed": true,
          "internalType": "address",
          "name": "spender",
          "type": "address"
        },
        {
          "indexed": false,
          "internalType": "uint256",
          "name": "value",
          "type": "uint256"
        }
      ],
      "name": "Approval",
      "type": "event"
    },
    {
      "anonymous": false,
      "inputs": [
        {
          "indexed": true,
          "internalType": "address",
          "name": "recipient",
          "type": "address"
        },
        {
          "indexed": false,
          "internalType": "uint256",
          "name": "totalBorrowed",
          "type": "uint256"
        }
      ],
      "name": "LoanFunded",
      "type": "event"
    },
    {
      "anonymous": false,
      "inputs": [
        {
          "indexed": true,
          "internalType": "address",
          "name": "sender",
          "type": "address"
        },
        {
          "indexed": false,
          "internalType": "uint256",
          "name": "principlePayment",
          "type": "uint256"
        },
        {
          "indexed": false,
          "internalType": "uint256",
          "name": "interestPayment",
          "type": "uint256"
        }
      ],
      "name": "LoanPaymentMade",
      "type": "event"
    },
    {
      "anonymous": false,
      "inputs": [
        {
          "indexed": true,
          "internalType": "address",
          "name": "sender",
          "type": "address"
        },
        {
          "indexed": false,
          "internalType": "uint256",
          "name": "tTokenAmount",
          "type": "uint256"
        },
        {
          "indexed": false,
          "internalType": "uint256",
          "name": "underlyingAmount",
          "type": "uint256"
        }
      ],
      "name": "Mint",
      "type": "event"
    },
    {
      "anonymous": false,
      "inputs": [
        {
          "indexed": true,
          "internalType": "address",
          "name": "sender",
          "type": "address"
        },
        {
          "indexed": false,
          "internalType": "uint256",
          "name": "tTokenAmount",
          "type": "uint256"
        },
        {
          "indexed": false,
          "internalType": "uint256",
          "name": "underlyingAmount",
          "type": "uint256"
        }
      ],
      "name": "Redeem",
      "type": "event"
    },
    {
      "anonymous": false,
      "inputs": [
        {
          "indexed": false,
          "internalType": "address",
          "name": "strategyAddress",
          "type": "address"
        },
        {
          "indexed": true,
          "internalType": "address",
          "name": "sender",
          "type": "address"
        }
      ],
      "name": "StrategySet",
      "type": "event"
    },
    {
      "anonymous": false,
      "inputs": [
        {
          "indexed": true,
          "internalType": "address",
          "name": "from",
          "type": "address"
        },
        {
          "indexed": true,
          "internalType": "address",
          "name": "to",
          "type": "address"
        },
        {
          "indexed": false,
          "internalType": "uint256",
          "name": "value",
          "type": "uint256"
        }
      ],
      "name": "Transfer",
      "type": "event"
    },
    {
      "inputs": [
        {
          "internalType": "address",
          "name": "owner",
          "type": "address"
        },
        {
          "internalType": "address",
          "name": "spender",
          "type": "address"
        }
      ],
      "name": "allowance",
      "outputs": [
        {
          "internalType": "uint256",
          "name": "",
          "type": "uint256"
        }
      ],
      "stateMutability": "view",
      "type": "function"
    },
    {
      "inputs": [
        {
          "internalType": "address",
          "name": "spender",
          "type": "address"
        },
        {
          "internalType": "uint256",
          "name": "amount",
          "type": "uint256"
        }
      ],
      "name": "approve",
      "outputs": [
        {
          "internalType": "bool",
          "name": "",
          "type": "bool"
        }
      ],
      "stateMutability": "nonpayable",
      "type": "function"
    },
    {
      "inputs": [
        {
          "internalType": "address",
          "name": "account",
          "type": "address"
        }
      ],
      "name": "balanceOf",
      "outputs": [
        {
          "internalType": "uint256",
          "name": "",
          "type": "uint256"
        }
      ],
      "stateMutability": "view",
      "type": "function"
    },
    {
      "inputs": [
        {
          "internalType": "address",
          "name": "account",
          "type": "address"
        }
      ],
      "name": "balanceOfUnderlying",
      "outputs": [
        {
          "internalType": "uint256",
          "name": "",
          "type": "uint256"
        }
      ],
      "stateMutability": "nonpayable",
      "type": "function"
    },
    {
      "inputs": [],
      "name": "currentTVL",
      "outputs": [
        {
          "internalType": "uint256",
          "name": "tvl_",
          "type": "uint256"
        }
      ],
      "stateMutability": "nonpayable",
      "type": "function"
    },
    {
      "inputs": [
        {
          "internalType": "uint256",
          "name": "newLoanAmount",
          "type": "uint256"
        }
      ],
      "name": "debtRatioFor",
      "outputs": [
        {
          "internalType": "uint16",
          "name": "ratio_",
          "type": "uint16"
        }
      ],
      "stateMutability": "nonpayable",
      "type": "function"
    },
    {
      "inputs": [],
      "name": "decimals",
      "outputs": [
        {
          "internalType": "uint8",
          "name": "",
          "type": "uint8"
        }
      ],
      "stateMutability": "view",
      "type": "function"
    },
    {
      "inputs": [
        {
          "internalType": "address",
          "name": "spender",
          "type": "address"
        },
        {
          "internalType": "uint256",
          "name": "subtractedValue",
          "type": "uint256"
        }
      ],
      "name": "decreaseAllowance",
      "outputs": [
        {
          "internalType": "bool",
          "name": "",
          "type": "bool"
        }
      ],
      "stateMutability": "nonpayable",
      "type": "function"
    },
    {
      "inputs": [],
      "name": "exchangeRate",
      "outputs": [
        {
          "internalType": "uint256",
          "name": "rate_",
          "type": "uint256"
        }
      ],
      "stateMutability": "nonpayable",
      "type": "function"
    },
    {
      "inputs": [
        {
          "internalType": "address",
          "name": "recipient",
          "type": "address"
        },
        {
          "internalType": "uint256",
          "name": "amount",
          "type": "uint256"
        }
      ],
      "name": "fundLoan",
      "outputs": [],
      "stateMutability": "nonpayable",
      "type": "function"
    },
    {
      "inputs": [],
      "name": "getMarketState",
      "outputs": [
        {
          "internalType": "uint256",
          "name": "totalSupplied",
          "type": "uint256"
        },
        {
          "internalType": "uint256",
          "name": "totalBorrowed",
          "type": "uint256"
        },
        {
          "internalType": "uint256",
          "name": "totalRepaid",
          "type": "uint256"
        },
        {
          "internalType": "uint256",
          "name": "totalInterestRepaid",
          "type": "uint256"
        },
        {
          "internalType": "uint256",
          "name": "totalOnLoan",
          "type": "uint256"
        }
      ],
      "stateMutability": "nonpayable",
      "type": "function"
    },
    {
      "inputs": [],
      "name": "getStrategy",
      "outputs": [
        {
          "internalType": "address",
          "name": "",
          "type": "address"
        }
      ],
      "stateMutability": "view",
      "type": "function"
    },
    {
      "inputs": [
        {
          "internalType": "bytes32",
          "name": "role",
          "type": "bytes32"
        },
        {
          "internalType": "address",
          "name": "account",
          "type": "address"
        }
      ],
      "name": "grantRole",
      "outputs": [],
      "stateMutability": "nonpayable",
      "type": "function"
    },
    {
      "inputs": [
        {
          "internalType": "bytes32",
          "name": "role",
          "type": "bytes32"
        },
        {
          "internalType": "address",
          "name": "account",
          "type": "address"
        }
      ],
      "name": "hasRole",
      "outputs": [
        {
          "internalType": "bool",
          "name": "",
          "type": "bool"
        }
      ],
      "stateMutability": "view",
      "type": "function"
    },
    {
      "inputs": [
        {
          "internalType": "address",
          "name": "spender",
          "type": "address"
        },
        {
          "internalType": "uint256",
          "name": "addedValue",
          "type": "uint256"
        }
      ],
      "name": "increaseAllowance",
      "outputs": [
        {
          "internalType": "bool",
          "name": "",
          "type": "bool"
        }
      ],
      "stateMutability": "nonpayable",
      "type": "function"
    },
    {
      "inputs": [
        {
          "internalType": "address",
          "name": "admin",
          "type": "address"
        },
        {
          "internalType": "address",
          "name": "underlying",
          "type": "address"
        },
        {
          "internalType": "bool",
          "name": "isWrappedNative",
          "type": "bool"
        }
      ],
      "name": "initialize",
      "outputs": [],
      "stateMutability": "nonpayable",
      "type": "function"
    },
    {
      "inputs": [
        {
          "internalType": "uint256",
          "name": "amount",
          "type": "uint256"
        }
      ],
      "name": "mint",
      "outputs": [
        {
          "internalType": "uint256",
          "name": "",
          "type": "uint256"
        }
      ],
      "stateMutability": "payable",
      "type": "function"
    },
    {
      "inputs": [],
      "name": "name",
      "outputs": [
        {
          "internalType": "string",
          "name": "",
          "type": "string"
        }
      ],
      "stateMutability": "view",
      "type": "function"
    },
    {
      "inputs": [],
      "name": "rebalance",
      "outputs": [],
      "stateMutability": "nonpayable",
      "type": "function"
    },
    {
      "inputs": [
        {
          "internalType": "uint256",
          "name": "amount",
          "type": "uint256"
        }
      ],
      "name": "redeem",
      "outputs": [],
      "stateMutability": "nonpayable",
      "type": "function"
    },
    {
      "inputs": [
        {
          "internalType": "uint256",
          "name": "amount",
          "type": "uint256"
        }
      ],
      "name": "redeemUnderlying",
      "outputs": [],
      "stateMutability": "nonpayable",
      "type": "function"
    },
    {
      "inputs": [
        {
          "internalType": "bytes32",
          "name": "role",
          "type": "bytes32"
        }
      ],
      "name": "renounceRole",
      "outputs": [],
      "stateMutability": "nonpayable",
      "type": "function"
    },
    {
      "inputs": [
        {
          "internalType": "uint256",
          "name": "amount",
          "type": "uint256"
        },
        {
          "internalType": "uint256",
          "name": "interestAmount",
          "type": "uint256"
        }
      ],
      "name": "repayLoan",
      "outputs": [],
      "stateMutability": "nonpayable",
      "type": "function"
    },
    {
      "inputs": [
        {
          "internalType": "bytes32",
          "name": "role",
          "type": "bytes32"
        },
        {
          "internalType": "address",
          "name": "account",
          "type": "address"
        }
      ],
      "name": "revokeRole",
      "outputs": [],
      "stateMutability": "nonpayable",
      "type": "function"
    },
    {
      "inputs": [
        {
          "internalType": "address",
          "name": "strategy",
          "type": "address"
        },
        {
          "internalType": "bytes",
          "name": "initData",
          "type": "bytes"
        }
      ],
      "name": "setStrategy",
      "outputs": [],
      "stateMutability": "nonpayable",
      "type": "function"
    },
    {
      "inputs": [],
      "name": "symbol",
      "outputs": [
        {
          "internalType": "string",
          "name": "",
          "type": "string"
        }
      ],
      "stateMutability": "view",
      "type": "function"
    },
    {
      "inputs": [],
      "name": "totalSupply",
      "outputs": [
        {
          "internalType": "uint256",
          "name": "",
          "type": "uint256"
        }
      ],
      "stateMutability": "view",
      "type": "function"
    },
    {
      "inputs": [],
      "name": "totalUnderlyingSupply",
      "outputs": [
        {
          "internalType": "uint256",
          "name": "",
          "type": "uint256"
        }
      ],
      "stateMutability": "nonpayable",
      "type": "function"
    },
    {
      "inputs": [
        {
          "internalType": "address",
          "name": "recipient",
          "type": "address"
        },
        {
          "internalType": "uint256",
          "name": "amount",
          "type": "uint256"
        }
      ],
      "name": "transfer",
      "outputs": [
        {
          "internalType": "bool",
          "name": "",
          "type": "bool"
        }
      ],
      "stateMutability": "nonpayable",
      "type": "function"
    },
    {
      "inputs": [
        {
          "internalType": "address",
          "name": "sender",
          "type": "address"
        },
        {
          "internalType": "address",
          "name": "recipient",
          "type": "address"
        },
        {
          "internalType": "uint256",
          "name": "amount",
          "type": "uint256"
        }
      ],
      "name": "transferFrom",
      "outputs": [
        {
          "internalType": "bool",
          "name": "",
          "type": "bool"
        }
      ],
      "stateMutability": "nonpayable",
      "type": "function"
    },
    {
      "inputs": [],
      "name": "underlying",
      "outputs": [
        {
          "internalType": "contract ERC20",
          "name": "",
          "type": "address"
        }
      ],
      "stateMutability": "view",
      "type": "function"
    }
  ],
  "artifactName": "TToken_V3",
  "transactionHash": "0xfd01461dd77f56d2c57decb3d6820808fa5bad9644755c145030cd419947b56a",
  "args": [],
  "solcInputHash": "1be8a6a75d89e8f0cbe5f21c3ec1aa82",
  "bytecode": "0x60806040523480156200001157600080fd5b50600054610100900460ff16806200002c575060005460ff16155b620000945760405162461bcd60e51b815260206004820152602e60248201527f496e697469616c697a61626c653a20636f6e747261637420697320616c72656160448201526d191e481a5b9a5d1a585b1a5e995960921b606482015260840160405180910390fd5b600054610100900460ff16158015620000b7576000805461ffff19166101011790555b8015620000ca576000805461ff00191690555b50612e7580620000db6000396000f3fe6080604052600436106101d85760003560e01c80638a700b5311610102578063be71e66c11610095578063dd62ed3e11610064578063dd62ed3e14610555578063e4bbb5a81461059b578063e920b1e1146105bb578063ecfd3519146105db57600080fd5b8063be71e66c146104b8578063d547741f146104d8578063d8165743146104f8578063db006a751461053557600080fd5b8063a0712d68116100d1578063a0712d6814610450578063a457c2d714610463578063a9059cbb14610483578063a95411e0146104a357600080fd5b80638a700b53146103db5780638bb9c5bf146103fb57806391d148541461041b57806395d89b411461043b57600080fd5b8063313ce5671161017a5780636f307dc3116101495780636f307dc31461035b57806370a08231146103705780637d7c2a1c146103a6578063852a12e3146103bb57600080fd5b8063313ce567146102df57806339509351146103065780633af9e669146103265780633ba0b9a91461034657600080fd5b8063143a08d4116101b6578063143a08d41461026557806318160ddd1461028857806323b872dd1461029d5780632f2ff15d146102bd57600080fd5b806306fdde03146101dd57806307da060314610208578063095ea7b314610235575b600080fd5b3480156101e957600080fd5b506101f261060e565b6040516101ff9190612b4b565b60405180910390f35b34801561021457600080fd5b5061021d6106a0565b6040516001600160a01b0390911681526020016101ff565b34801561024157600080fd5b50610255610250366004612960565b6106bc565b60405190151581526020016101ff565b34801561027157600080fd5b5061027a6106d3565b6040519081526020016101ff565b34801561029457600080fd5b5060355461027a565b3480156102a957600080fd5b506102556102b83660046128a7565b610726565b3480156102c957600080fd5b506102dd6102d83660046129bd565b6107d7565b005b3480156102eb57600080fd5b506102f461081d565b60405160ff90911681526020016101ff565b34801561031257600080fd5b50610255610321366004612960565b610833565b34801561033257600080fd5b5061027a610341366004612815565b61086f565b34801561035257600080fd5b5061027a610899565b34801561036757600080fd5b5061021d6108e2565b34801561037c57600080fd5b5061027a61038b366004612815565b6001600160a01b031660009081526033602052604090205490565b3480156103b257600080fd5b506102dd6108fb565b3480156103c757600080fd5b506102dd6103d63660046129a5565b610930565b3480156103e757600080fd5b506102dd6103f6366004612a95565b610aca565b34801561040757600080fd5b506102dd6104163660046129a5565b610b94565b34801561042757600080fd5b506102556104363660046129bd565b610b9e565b34801561044757600080fd5b506101f2610baa565b61027a61045e3660046129a5565b610bb9565b34801561046f57600080fd5b5061025561047e366004612960565b610f50565b34801561048f57600080fd5b5061025561049e366004612960565b610fe9565b3480156104af57600080fd5b5061027a610ff6565b3480156104c457600080fd5b506102dd6104d33660046128e2565b61103a565b3480156104e457600080fd5b506102dd6104f33660046129bd565b61119e565b34801561050457600080fd5b5061050d6111de565b604080519586526020860194909452928401919091526060830152608082015260a0016101ff565b34801561054157600080fd5b506102dd6105503660046129a5565b61122d565b34801561056157600080fd5b5061027a61057036600461282f565b6001600160a01b03918216600090815260346020908152604080832093909416825291909152205490565b3480156105a757600080fd5b506102dd6105b6366004612861565b611429565b3480156105c757600080fd5b506102dd6105d6366004612960565b6117c2565b3480156105e757600080fd5b506105fb6105f63660046129a5565b61189a565b60405161ffff90911681526020016101ff565b60606036805461061d90612d63565b80601f016020809104026020016040519081016040528092919081815260200182805461064990612d63565b80156106965780601f1061066b57610100808354040283529160200191610696565b820191906000526020600020905b81548152906001019060200180831161067957829003601f168201915b5050505050905090565b60006106aa6118fb565b600101546001600160a01b0316919050565b60006106c933848461191f565b5060015b92915050565b6040805160048152602481019091526020810180516001600160e01b031663050e823560e21b179052600090819061070a90611a43565b9050808060200190518101906107209190612a7d565b91505090565b6000610733848484611a63565b6001600160a01b0384166000908152603460209081526040808320338452909152902054828110156107bd5760405162461bcd60e51b815260206004820152602860248201527f45524332303a207472616e7366657220616d6f756e74206578636565647320616044820152676c6c6f77616e636560c01b60648201526084015b60405180910390fd5b6107ca853385840361191f565b60019150505b9392505050565b600080516020612e00833981519152336107f18282611c31565b61080d5760405162461bcd60e51b81526004016107b490612b7e565b6108178484611c69565b50505050565b60006108276118fb565b6005015460ff16919050565b3360008181526034602090815260408083206001600160a01b038716845290915281205490916106c991859061086a908690612cc9565b61191f565b6001600160a01b0381166000908152603360205260408120546106cd90610894610899565b611ce4565b60006108a460355490565b6108b55750670de0b6b3a764000090565b603554670de0b6b3a76400006108c9610ff6565b6108d39190612d01565b6108dd9190612ce1565b905090565b60006108ec6118fb565b546001600160a01b0316919050565b6040805160048152602481019091526020810180516001600160e01b0316631f5f0a8760e21b17905261092d90611a43565b50565b7feba135a74248c737f901cbd8d0f53e729a3f212e734748c2e0d8d39096125e5c60008190527f7b305b6be5f275f648d05716597c483d754c2a242bd605feba3c64fb853605366020527fd51fad483e9bd4fa5dd43c95a6dde60b73fec1248ce54775bb96529d1141aa1b54600080516020612e208339815191529060ff16156109cc5760405162461bcd60e51b81526004016107b490612c92565b60008281526002820160205260409020805460ff1916600117905582610a305760405162461bcd60e51b8152602060048201526019602482015278054656c6c65723a2063616e6e6f74207769746864726177203603c1b60448201526064016107b4565b610a386106d3565b831115610a575760405162461bcd60e51b81526004016107b490612c48565b6000610a61610899565b90506000610a6f8583611d03565b610a7a906001612cc9565b9050610a853361038b565b811115610aa45760405162461bcd60e51b81526004016107b490612bb5565b610aae8186611d18565b5050600091825260020160205260409020805460ff1916905550565b7f70546d1c92f8c2132ae23a23f5177aa8526356051c7510df99f50e012d22152933610af68282611c31565b610b125760405162461bcd60e51b81526004016107b490612b7e565b83610b1b6118fb565b6003016000828254610b2d9190612cc9565b90915550839050610b3c6118fb565b6004016000828254610b4e9190612cc9565b9091555050604080518581526020810185905233917fc091ac0b81e7f83b1bd632697aab4fe32a683168ca5ca7ad8075b49c3e669c4a910160405180910390a250505050565b61092d8133611d9d565b60006107d08383611c31565b60606037805461061d90612d63565b7ffdf81848136595c31bb5f76217767372bc4bf906663038eb38381131ea27ecba60008181527f7b305b6be5f275f648d05716597c483d754c2a242bd605feba3c64fb853605366020527fa8b4b8db2d6e615394be6b6e7c62c4b724469d7ac9026422a171f9c66a50d83f54909190600080516020612e208339815191529060ff1615610c585760405162461bcd60e51b81526004016107b490612c92565b60008281526002820160205260409020805460ff1916600117905583610cb85760405162461bcd60e51b8152602060048201526015602482015274054656c6c65723a2063616e6e6f74206d696e74203605c1b60448201526064016107b4565b6000306001600160a01b0316633ba0b9a96040518163ffffffff1660e01b8152600401602060405180830381600087803b158015610cf557600080fd5b505af1158015610d09573d6000803e3d6000fd5b505050506040513d601f19601f82011682018060405250810190610d2d9190612a7d565b90506000610d3b8683611d03565b905060008111610d9d5760405162461bcd60e51b815260206004820152602760248201527f54656c6c65723a20616d6f756e7420746f206265206d696e7465642063616e6e60448201526606f7420626520360cc1b60648201526084016107b4565b3415610ecf57610dab6118fb565b6005015462010000900460ff16610e155760405162461bcd60e51b815260206004820152602860248201527f54656c6c65723a2076616c756520676976656e20666f72206e6f6e206e6174696044820152673b32903a37b5b2b760c11b60648201526084016107b4565b853414610e645760405162461bcd60e51b815260206004820152601760248201527f54656c6c65723a20696e636f72726563742076616c756500000000000000000060448201526064016107b4565b610e6c6118fb565b5460408051630d0e30db60e41b815290516001600160a01b039092169163d0e30db0913491600480830192600092919082900301818588803b158015610eb157600080fd5b505af1158015610ec5573d6000803e3d6000fd5b5050505050610eec565b610eec610eda6118fb565b546001600160a01b0316333089611e14565b610ef63382611e7f565b604080518281526020810188905233917f4c209b5fc8ad50758f13e2e1088ba56a560dff690a1c6fef26394f4c03821c4f910160405180910390a2935050600091825260020160205260409020805460ff19169055919050565b3360009081526034602090815260408083206001600160a01b038616845290915281205482811015610fd25760405162461bcd60e51b815260206004820152602560248201527f45524332303a2064656372656173656420616c6c6f77616e63652062656c6f77604482015264207a65726f60d81b60648201526084016107b4565b610fdf338585840361191f565b5060019392505050565b60006106c9338484611a63565b60006110006106d3565b61100a9082612cc9565b90506110146118fb565b600201546110229082612cc9565b905061102c6118fb565b600301546108dd9082612d20565b600080516020612e00833981519152336110548282611c31565b6110705760405162461bcd60e51b81526004016107b490612b7e565b6110818563475c5f8560e01b611f5e565b6110e75760405162461bcd60e51b815260206004820152603160248201527f54656c6c65723a20737472617465677920646f6573206e6f7420737570706f7260448201527074204954546f6b656e537472617465677960781b60648201526084016107b4565b846110f06118fb565b60010180546001600160a01b0319166001600160a01b039290921691909117905582156111585761115684848080601f016020809104026020016040519081016040528093929190818152602001838380828437600092019190915250611a4392505050565b505b604080516001600160a01b0387168152905133917f7a587acd0fd101cfe7d6d98bad768e91209a7ae91e55c3702570425bf0eae9bc919081900360200190a25050505050565b600080516020612e00833981519152336111b88282611c31565b6111d45760405162461bcd60e51b81526004016107b490612b7e565b6108178484611d9d565b60008060008060006111ee6106d3565b94506111f86118fb565b6002015493506112066118fb565b6003015492506112146118fb565b6004015491506112248385612d20565b90509091929394565b7feba135a74248c737f901cbd8d0f53e729a3f212e734748c2e0d8d39096125e5c60008190527f7b305b6be5f275f648d05716597c483d754c2a242bd605feba3c64fb853605366020527fd51fad483e9bd4fa5dd43c95a6dde60b73fec1248ce54775bb96529d1141aa1b54600080516020612e208339815191529060ff16156112c95760405162461bcd60e51b81526004016107b490612c92565b60008281526002820160205260409020805460ff191660011790558261132d5760405162461bcd60e51b8152602060048201526019602482015278054656c6c65723a2063616e6e6f74207769746864726177203603c1b60448201526064016107b4565b6113363361038b565b8311156113555760405162461bcd60e51b81526004016107b490612bb5565b600061136384610894610899565b9050600081116113dd576040805162461bcd60e51b81526020600482015260248101919091527f54656c6c65723a20756e6465726c79696e672074656c6c657220746f6b656e2060448201527f76616c756520746f2062652072656465656d65642063616e6e6f74206265203060648201526084016107b4565b6113e56106d3565b8111156114045760405162461bcd60e51b81526004016107b490612c48565b61140e8482611d18565b50600091825260020160205260409020805460ff1916905550565b600054610100900460ff1680611442575060005460ff16155b61145e5760405162461bcd60e51b81526004016107b490612bfa565b600054610100900460ff16158015611480576000805461ffff19166101011790555b333b6114ce5760405162461bcd60e51b815260206004820152601f60248201527f54656c6c65723a20636f6e74726f6c6c6572206e6f7420636f6e74726163740060448201526064016107b4565b823b61152a5760405162461bcd60e51b815260206004820152602560248201527f54656c6c65723a20756e6465726c79696e6720746f6b656e206e6f7420636f6e6044820152641d1c9858dd60da1b60648201526084016107b4565b6115547f70546d1c92f8c2132ae23a23f5177aa8526356051c7510df99f50e012d22152933611c69565b61156c600080516020612e0083398151915285611c69565b826115756118fb565b80546001600160a01b0319166001600160a01b03929092169190911790556116e761159e6118fb565b54604080516306fdde0360e01b815290516001600160a01b03909216916306fdde0391600480820192600092909190829003018186803b1580156115e157600080fd5b505afa1580156115f5573d6000803e3d6000fd5b505050506040513d6000823e601f3d908101601f1916820160405261161d91908101906129df565b60405160200161162d9190612af3565b6040516020818303038152906040526116446118fb565b54604080516395d89b4160e01b815290516001600160a01b03909216916395d89b4191600480820192600092909190829003018186803b15801561168757600080fd5b505afa15801561169b573d6000803e3d6000fd5b505050506040513d6000823e601f3d908101601f191682016040526116c391908101906129df565b6040516020016116d39190612b22565b604051602081830303815290604052611f7a565b6116ef6118fb565b546040805163313ce56760e01b815290516001600160a01b039092169163313ce56791600480820192602092909190829003018186803b15801561173257600080fd5b505afa158015611746573d6000803e3d6000fd5b505050506040513d601f19601f8201168201806040525081019061176a9190612ab6565b6117726118fb565b600501805460ff191660ff92909216919091179055816117906118fb565b6005018054911515620100000262ff0000199092169190911790558015610817576000805461ff001916905550505050565b7f70546d1c92f8c2132ae23a23f5177aa8526356051c7510df99f50e012d221529336117ee8282611c31565b61180a5760405162461bcd60e51b81526004016107b490612b7e565b6040516024810184905261185c90632e1a7d4d60e01b906044015b60408051601f198184030181529190526020810180516001600160e01b03166001600160e01b031990931692909217909152611a43565b50826118666118fb565b60020160008282546118789190612cc9565b9091555061081790506118896118fb565b546001600160a01b03168585611ffa565b6000806118a56118fb565b600301546118b16118fb565b600201546118bf9190612d20565b90506000816118cc6106d3565b6118d69190612cc9565b905080156118f4576118f16118eb8584612cc9565b8261202a565b92505b5050919050565b7ff72b349e2c69862bdc86afd2a363bf16c24bd97d10f7ac9d49f7e2eedebba2b490565b6001600160a01b0383166119815760405162461bcd60e51b8152602060048201526024808201527f45524332303a20617070726f76652066726f6d20746865207a65726f206164646044820152637265737360e01b60648201526084016107b4565b6001600160a01b0382166119e25760405162461bcd60e51b815260206004820152602260248201527f45524332303a20617070726f766520746f20746865207a65726f206164647265604482015261737360f01b60648201526084016107b4565b6001600160a01b0383811660008181526034602090815260408083209487168084529482529182902085905590518481527f8c5be1e5ebec7d5bd14f71427d1e84f3dd0314c0f7b2291e5b200ac8c7c3b925910160405180910390a3505050565b60606106cd611a506118fb565b600101546001600160a01b03168361205f565b6001600160a01b038316611ac75760405162461bcd60e51b815260206004820152602560248201527f45524332303a207472616e736665722066726f6d20746865207a65726f206164604482015264647265737360d81b60648201526084016107b4565b6001600160a01b038216611b295760405162461bcd60e51b815260206004820152602360248201527f45524332303a207472616e7366657220746f20746865207a65726f206164647260448201526265737360e81b60648201526084016107b4565b6001600160a01b03831660009081526033602052604090205481811015611ba15760405162461bcd60e51b815260206004820152602660248201527f45524332303a207472616e7366657220616d6f756e7420657863656564732062604482015265616c616e636560d01b60648201526084016107b4565b6001600160a01b03808516600090815260336020526040808220858503905591851681529081208054849290611bd8908490612cc9565b92505081905550826001600160a01b0316846001600160a01b03167fddf252ad1be2c89b69c2b068fc378daa952ba7f163c4a11628f55a4df523b3ef84604051611c2491815260200190565b60405180910390a3610817565b6000918252600080516020612e20833981519152602090815260408084206001600160a01b0393909316845291905290205460ff1690565b611c738282611c31565b15611c7c575050565b6000828152600080516020612e20833981519152602090815260408083206001600160a01b0385168085529252808320805460ff1916600117905551339285917f2f8788117e7eff1d82e926ec794901d17c78024a50270940304540a733656f0d9190a45050565b6000670de0b6b3a7640000611cf98385612d01565b6107d09190612ce1565b600081611cf9670de0b6b3a764000085612d01565b611d223383612084565b60405160248101829052611d4190632e1a7d4d60e01b90604401611825565b50611d5e611d4d6118fb565b546001600160a01b03163383611ffa565b604080518381526020810183905233917fe5b754fb1abb7f01b499791d0b820ae3b6af3424ac1c59768edb53f4ec31a929910160405180910390a25050565b611da78282611c31565b611daf575050565b6000828152600080516020612e20833981519152602090815260408083206001600160a01b0385168085529252808320805460ff1916905551339285917ff6391f5c32d9c69d2a47ea670b442974b53935d1edc7fd64eb21e047a839171b9190a45050565b6040516001600160a01b03808516602483015283166044820152606481018290526108179085906323b872dd60e01b906084015b60408051601f198184030181529190526020810180516001600160e01b03166001600160e01b0319909316929092179091526121d2565b6001600160a01b038216611ed55760405162461bcd60e51b815260206004820152601f60248201527f45524332303a206d696e7420746f20746865207a65726f20616464726573730060448201526064016107b4565b8060356000828254611ee79190612cc9565b90915550506001600160a01b03821660009081526033602052604081208054839290611f14908490612cc9565b90915550506040518181526001600160a01b038316906000907fddf252ad1be2c89b69c2b068fc378daa952ba7f163c4a11628f55a4df523b3ef9060200160405180910390a35050565b6000611f69836122a4565b80156107d057506107d083836122d7565b600054610100900460ff1680611f93575060005460ff16155b611faf5760405162461bcd60e51b81526004016107b490612bfa565b600054610100900460ff16158015611fd1576000805461ffff19166101011790555b611fd96123c0565b611fe3838361242b565b8015611ff5576000805461ff00191690555b505050565b6040516001600160a01b038316602482015260448101829052611ff590849063a9059cbb60e01b90606401611e48565b60008115612056576120518261204261271086612d01565b61204c9190612ce1565b6124c0565b6107d0565b50600092915050565b60606107d08383604051806060016040528060278152602001612dd960279139612527565b6001600160a01b0382166120e45760405162461bcd60e51b815260206004820152602160248201527f45524332303a206275726e2066726f6d20746865207a65726f206164647265736044820152607360f81b60648201526084016107b4565b6001600160a01b038216600090815260336020526040902054818110156121585760405162461bcd60e51b815260206004820152602260248201527f45524332303a206275726e20616d6f756e7420657863656564732062616c616e604482015261636560f01b60648201526084016107b4565b6001600160a01b0383166000908152603360205260408120838303905560358054849290612187908490612d20565b90915550506040518281526000906001600160a01b038516907fddf252ad1be2c89b69c2b068fc378daa952ba7f163c4a11628f55a4df523b3ef9060200160405180910390a3505050565b6000612227826040518060400160405280602081526020017f5361666545524332303a206c6f772d6c6576656c2063616c6c206661696c6564815250856001600160a01b03166125f19092919063ffffffff16565b805190915015611ff557808060200190518101906122459190612989565b611ff55760405162461bcd60e51b815260206004820152602a60248201527f5361666545524332303a204552433230206f7065726174696f6e20646964206e6044820152691bdd081cdd58d8d9595960b21b60648201526084016107b4565b60006122b7826301ffc9a760e01b6122d7565b80156106cd57506122d0826001600160e01b03196122d7565b1592915050565b604080516001600160e01b0319831660248083019190915282518083039091018152604490910182526020810180516001600160e01b03166301ffc9a760e01b179052905160009190829081906001600160a01b038716906175309061233e908690612ad7565b6000604051808303818686fa925050503d806000811461237a576040519150601f19603f3d011682016040523d82523d6000602084013e61237f565b606091505b509150915060208151101561239a57600093505050506106cd565b8180156123b65750808060200190518101906123b69190612989565b9695505050505050565b600054610100900460ff16806123d9575060005460ff16155b6123f55760405162461bcd60e51b81526004016107b490612bfa565b600054610100900460ff16158015612417576000805461ffff19166101011790555b801561092d576000805461ff001916905550565b600054610100900460ff1680612444575060005460ff16155b6124605760405162461bcd60e51b81526004016107b490612bfa565b600054610100900460ff16158015612482576000805461ffff19166101011790555b8251612495906036906020860190612769565b5081516124a9906037906020850190612769565b508015611ff5576000805461ff0019169055505050565b600061ffff8211156125235760405162461bcd60e51b815260206004820152602660248201527f53616665436173743a2076616c756520646f65736e27742066697420696e203160448201526536206269747360d01b60648201526084016107b4565b5090565b6060833b6125865760405162461bcd60e51b815260206004820152602660248201527f416464726573733a2064656c65676174652063616c6c20746f206e6f6e2d636f6044820152651b9d1c9858dd60d21b60648201526084016107b4565b600080856001600160a01b0316856040516125a19190612ad7565b600060405180830381855af49150503d80600081146125dc576040519150601f19603f3d011682016040523d82523d6000602084013e6125e1565b606091505b50915091506123b6828286612608565b60606126008484600085612641565b949350505050565b606083156126175750816107d0565b8251156126275782518084602001fd5b8160405162461bcd60e51b81526004016107b49190612b4b565b6060824710156126a25760405162461bcd60e51b815260206004820152602660248201527f416464726573733a20696e73756666696369656e742062616c616e636520666f6044820152651c8818d85b1b60d21b60648201526084016107b4565b843b6126f05760405162461bcd60e51b815260206004820152601d60248201527f416464726573733a2063616c6c20746f206e6f6e2d636f6e747261637400000060448201526064016107b4565b600080866001600160a01b0316858760405161270c9190612ad7565b60006040518083038185875af1925050503d8060008114612749576040519150601f19603f3d011682016040523d82523d6000602084013e61274e565b606091505b509150915061275e828286612608565b979650505050505050565b82805461277590612d63565b90600052602060002090601f01602090048101928261279757600085556127dd565b82601f106127b057805160ff19168380011785556127dd565b828001600101855582156127dd579182015b828111156127dd5782518255916020019190600101906127c2565b506125239291505b8082111561252357600081556001016127e5565b80356001600160a01b038116811461281057600080fd5b919050565b600060208284031215612826578081fd5b6107d0826127f9565b60008060408385031215612841578081fd5b61284a836127f9565b9150612858602084016127f9565b90509250929050565b600080600060608486031215612875578081fd5b61287e846127f9565b925061288c602085016127f9565b9150604084013561289c81612dca565b809150509250925092565b6000806000606084860312156128bb578283fd5b6128c4846127f9565b92506128d2602085016127f9565b9150604084013590509250925092565b6000806000604084860312156128f6578283fd5b6128ff846127f9565b9250602084013567ffffffffffffffff8082111561291b578384fd5b818601915086601f83011261292e578384fd5b81358181111561293c578485fd5b87602082850101111561294d578485fd5b6020830194508093505050509250925092565b60008060408385031215612972578182fd5b61297b836127f9565b946020939093013593505050565b60006020828403121561299a578081fd5b81516107d081612dca565b6000602082840312156129b6578081fd5b5035919050565b600080604083850312156129cf578182fd5b82359150612858602084016127f9565b6000602082840312156129f0578081fd5b815167ffffffffffffffff80821115612a07578283fd5b818401915084601f830112612a1a578283fd5b815181811115612a2c57612a2c612db4565b604051601f8201601f19908116603f01168101908382118183101715612a5457612a54612db4565b81604052828152876020848701011115612a6c578586fd5b61275e836020830160208801612d37565b600060208284031215612a8e578081fd5b5051919050565b60008060408385031215612aa7578182fd5b50508035926020909101359150565b600060208284031215612ac7578081fd5b815160ff811681146107d0578182fd5b60008251612ae9818460208701612d37565b9190910192915050565b6602a32b63632b9160cd1b815260008251612b15816007850160208701612d37565b9190910160070192915050565b601d60fa1b815260008251612b3e816001850160208701612d37565b9190910160010192915050565b6020815260008251806020840152612b6a816040850160208701612d37565b601f01601f19169190910160400192915050565b6020808252601d908201527f416363657373436f6e74726f6c3a206e6f7420617574686f72697a6564000000604082015260600190565b60208082526025908201527f54656c6c65723a2072656465656d20616d6f756e7420657863656564732062616040820152646c616e636560d81b606082015260800190565b6020808252602e908201527f496e697469616c697a61626c653a20636f6e747261637420697320616c72656160408201526d191e481a5b9a5d1a585b1a5e995960921b606082015260800190565b6020808252602a908201527f54656c6c65723a2072656465656d2074746f6b656e206c70206e6f7420656e6f60408201526975676820737570706c7960b01b606082015260800190565b60208082526018908201527f416363657373436f6e74726f6c3a207265656e74657265640000000000000000604082015260600190565b60008219821115612cdc57612cdc612d9e565b500190565b600082612cfc57634e487b7160e01b81526012600452602481fd5b500490565b6000816000190483118215151615612d1b57612d1b612d9e565b500290565b600082821015612d3257612d32612d9e565b500390565b60005b83811015612d52578181015183820152602001612d3a565b838111156108175750506000910152565b600181811c90821680612d7757607f821691505b60208210811415612d9857634e487b7160e01b600052602260045260246000fd5b50919050565b634e487b7160e01b600052601160045260246000fd5b634e487b7160e01b600052604160045260246000fd5b801515811461092d57600080fdfe416464726573733a206c6f772d6c6576656c2064656c65676174652063616c6c206661696c6564df8b4c520ffe197c5343c6f5aec59570151ef9a492f2c624fd45ddde6135ec427b305b6be5f275f648d05716597c483d754c2a242bd605feba3c64fb85360534a26469706673582212200e61627130387291382ad32200992083890e478bec09d949e53198c2d2b9bd7e64736f6c63430008040033",
  "devdoc": {
    "author": "develop@teller.finance",
    "kind": "dev",
    "methods": {
      "allowance(address,address)": {
        "details": "See {IERC20-allowance}."
      },
      "approve(address,uint256)": {
        "details": "See {IERC20-approve}. Requirements: - `spender` cannot be the zero address."
      },
      "balanceOf(address)": {
        "details": "See {IERC20-balanceOf}."
      },
      "balanceOfUnderlying(address)": {
        "params": {
          "account": "Address to calculate the underlying balance."
        },
        "returns": {
          "_0": "balance_ the balance of the account"
        }
      },
      "currentTVL()": {
        "returns": {
          "tvl_": "The value locked in the pool. Note: This value includes the amount that is on loan (including ones that were sent to EOAs)."
        }
      },
      "debtRatioFor(uint256)": {
        "params": {
          "newLoanAmount": "the new loan amount to consider the StD ratio."
        },
        "returns": {
          "ratio_": "The debt ratio for lending pool."
        }
      },
      "decimals()": {
        "returns": {
          "_0": "decimals of the token"
        }
      },
      "decreaseAllowance(address,uint256)": {
        "details": "Atomically decreases the allowance granted to `spender` by the caller. This is an alternative to {approve} that can be used as a mitigation for problems described in {IERC20-approve}. Emits an {Approval} event indicating the updated allowance. Requirements: - `spender` cannot be the zero address. - `spender` must have allowance for the caller of at least `subtractedValue`."
      },
      "exchangeRate()": {
        "returns": {
          "rate_": "The current exchange rate, scaled by the EXCHANGE_RATE_FACTOR."
        }
      },
      "fundLoan(address,uint256)": {
        "params": {
          "amount": "Funds requested to fulfil the loan.",
          "recipient": "The account to send the funds to."
        }
      },
      "getMarketState()": {
        "returns": {
          "totalBorrowed": "Total amount borrowed through loans.",
          "totalInterestRepaid": "The total amount interest repaid till the current timestamp.",
          "totalOnLoan": "Total amount currently deployed in loans.",
          "totalRepaid": "The total amount repaid till the current timestamp.",
          "totalSupplied": "Total amount of the underlying asset supplied."
        }
      },
      "getStrategy()": {
        "returns": {
          "_0": "address of the strategy contract"
        }
      },
      "grantRole(bytes32,address)": {
        "params": {
          "account": "Address to give the {role} to. Requirements:  - Sender must be role admin.",
          "role": "Encoding of the role to give."
        }
      },
      "hasRole(bytes32,address)": {
        "params": {
          "account": "Address to check the {role} for.",
          "role": "Encoding of the role to check."
        }
      },
      "increaseAllowance(address,uint256)": {
        "details": "Atomically increases the allowance granted to `spender` by the caller. This is an alternative to {approve} that can be used as a mitigation for problems described in {IERC20-approve}. Emits an {Approval} event indicating the updated allowance. Requirements: - `spender` cannot be the zero address."
      },
      "initialize(address,address,bool)": {
        "params": {
          "admin": "address of the admin to the respective Teller Token",
          "isWrappedNative": "boolean indicating the underlying asset is the wrapped native token Requirements:  - Underlying token must implement `name`, `symbol` and `decimals`",
          "underlying": "address of the ERC20 token"
        }
      },
      "mint(uint256)": {
        "details": "The tToken contract needs to have been granted sufficient allowance to transfer the amount being used to mint.",
        "params": {
          "amount": "The amount of underlying tokens to use to mint."
        },
        "returns": {
          "_0": "Amount of TTokens minted."
        }
      },
      "name()": {
        "details": "Returns the name of the token."
      },
      "redeem(uint256)": {
        "params": {
          "amount": "The amount of Teller tokens to redeem."
        }
      },
      "redeemUnderlying(uint256)": {
        "params": {
          "amount": "The amount of underlying tokens to redeem."
        }
      },
      "renounceRole(bytes32)": {
        "params": {
          "role": "Encoding of the role to remove."
        }
      },
      "repayLoan(uint256,uint256)": {
        "params": {
          "amount": "Funds deposited back into the pool to repay the principal amount of a loan.",
          "interestAmount": "Interest value paid into the pool from a loan."
        }
      },
      "revokeRole(bytes32,address)": {
        "params": {
          "account": "Address to remove the {role} from. Requirements:  - Sender must be role admin.",
          "role": "Encoding of the role to remove."
        }
      },
      "setStrategy(address,bytes)": {
        "params": {
          "initData": "Optional data to initialize the strategy. Requirements:  - Sender must have ADMIN role",
          "strategy": "Address to the new strategy contract. Must implement the {ITTokenStrategy} interface."
        }
      },
      "symbol()": {
        "details": "Returns the symbol of the token, usually a shorter version of the name."
      },
      "totalSupply()": {
        "details": "See {IERC20-totalSupply}."
      },
      "totalUnderlyingSupply()": {
        "returns": {
          "_0": "totalSupply_ the total supply denoted in the underlying asset."
        }
      },
      "transfer(address,uint256)": {
        "details": "See {IERC20-transfer}. Requirements: - `recipient` cannot be the zero address. - the caller must have a balance of at least `amount`."
      },
      "transferFrom(address,address,uint256)": {
        "details": "See {IERC20-transferFrom}. Emits an {Approval} event indicating the updated allowance. This is not required by the EIP. See the note at the beginning of {ERC20}. Requirements: - `sender` and `recipient` cannot be the zero address. - `sender` must have a balance of at least `amount`. - the caller must have allowance for ``sender``'s tokens of at least `amount`."
      },
      "underlying()": {
        "returns": {
          "_0": "ERC20 token that is the underlying asset"
        }
      }
    },
    "version": 1
  },
  "userdoc": {
    "events": {
      "LoanFunded(address,uint256)": {
        "notice": "This event is emitted when a loan has been taken out through the Teller Diamond."
      },
      "LoanPaymentMade(address,uint256,uint256)": {
        "notice": "This event is emitted when a loan has been repaid through the Teller Diamond."
      },
      "Mint(address,uint256,uint256)": {
        "notice": "This event is emitted when a user deposits tokens into the pool."
      },
      "Redeem(address,uint256,uint256)": {
        "notice": "This event is emitted when a user withdraws tokens from the pool."
      },
      "StrategySet(address,address)": {
        "notice": "This event is emitted when a new investment management strategy has been set for a Teller token."
      }
    },
    "kind": "user",
    "methods": {
      "balanceOfUnderlying(address)": {
        "notice": "The balance of an {account} denoted in underlying value."
      },
      "constructor": {
        "notice": "To prevent the initialization of this TToken implementation contract, we call the initializer modifier.  This prevents someone from:      1. Becoming the ADMIN of the implementation contract      2. Setting a strategy      3. Calling a malicious function on the strategy that destroys the logic contract"
      },
      "currentTVL()": {
        "notice": "Calculates the current Total Value Locked, denoted in the underlying asset, in the Teller Token pool."
      },
      "debtRatioFor(uint256)": {
        "notice": "It validates whether supply to debt (StD) ratio is valid including the loan amount."
      },
      "decimals()": {
        "notice": "it returns the decimal places of the respective TToken"
      },
      "exchangeRate()": {
        "notice": "It calculates the current scaled exchange rate for a whole Teller Token based of the underlying token balance."
      },
      "fundLoan(address,uint256)": {
        "notice": "Called by the Teller Diamond contract when a loan has been taken out and requires funds."
      },
      "getMarketState()": {
        "notice": "It calculates the market state values across a given market.Returns values that represent the global state across the market."
      },
      "getStrategy()": {
        "notice": "Gets the strategy used for balancing funds."
      },
      "grantRole(bytes32,address)": {
        "notice": "Grants an account a new role."
      },
      "hasRole(bytes32,address)": {
        "notice": "Checks if an account has a specific role."
      },
      "initialize(address,address,bool)": {
        "notice": "it initializes the Teller Token"
      },
      "mint(uint256)": {
        "notice": "Deposit underlying token amount into LP and mint tokens."
      },
      "rebalance()": {
        "notice": "Rebalances the funds controlled by Teller Token according to the current strategy. See {TTokenStrategy}."
      },
      "redeem(uint256)": {
        "notice": "Redeem supplied Teller tokens for underlying value."
      },
      "redeemUnderlying(uint256)": {
        "notice": "Redeem supplied underlying value."
      },
      "renounceRole(bytes32)": {
        "notice": "Removes a role from the sender."
      },
      "repayLoan(uint256,uint256)": {
        "notice": "Called by the Teller Diamond contract when a loan has been repaid."
      },
      "revokeRole(bytes32,address)": {
        "notice": "Removes a role from an account."
      },
      "setStrategy(address,bytes)": {
        "notice": "Sets or updates a strategy to use for balancing funds."
      },
      "totalUnderlyingSupply()": {
        "notice": "It calculates the total supply of the underlying asset."
      },
      "underlying()": {
        "notice": "The token that is the underlying asset for this Teller token."
      }
    },
    "notice": "This contract represents a lending pool for an asset within Teller protocol.",
    "version": 1
  },
  "storageLayout": {
    "storage": [
      {
        "astId": 5265,
        "contract": "contracts/lending/ttoken/TToken_V3.sol:TToken_V3",
        "label": "_initialized",
        "offset": 0,
        "slot": "0",
        "type": "t_bool"
      },
      {
        "astId": 5268,
        "contract": "contracts/lending/ttoken/TToken_V3.sol:TToken_V3",
        "label": "_initializing",
        "offset": 1,
        "slot": "0",
        "type": "t_bool"
      },
      {
        "astId": 8562,
        "contract": "contracts/lending/ttoken/TToken_V3.sol:TToken_V3",
        "label": "__gap",
        "offset": 0,
        "slot": "1",
        "type": "t_array(t_uint256)50_storage"
      },
      {
        "astId": 6610,
        "contract": "contracts/lending/ttoken/TToken_V3.sol:TToken_V3",
        "label": "_balances",
        "offset": 0,
        "slot": "51",
        "type": "t_mapping(t_address,t_uint256)"
      },
      {
        "astId": 6616,
        "contract": "contracts/lending/ttoken/TToken_V3.sol:TToken_V3",
        "label": "_allowances",
        "offset": 0,
        "slot": "52",
        "type": "t_mapping(t_address,t_mapping(t_address,t_uint256))"
      },
      {
        "astId": 6618,
        "contract": "contracts/lending/ttoken/TToken_V3.sol:TToken_V3",
        "label": "_totalSupply",
        "offset": 0,
        "slot": "53",
        "type": "t_uint256"
      },
      {
        "astId": 6620,
        "contract": "contracts/lending/ttoken/TToken_V3.sol:TToken_V3",
        "label": "_name",
        "offset": 0,
        "slot": "54",
        "type": "t_string_storage"
      },
      {
        "astId": 6622,
        "contract": "contracts/lending/ttoken/TToken_V3.sol:TToken_V3",
        "label": "_symbol",
        "offset": 0,
        "slot": "55",
        "type": "t_string_storage"
      },
      {
        "astId": 7163,
        "contract": "contracts/lending/ttoken/TToken_V3.sol:TToken_V3",
        "label": "__gap",
        "offset": 0,
        "slot": "56",
        "type": "t_array(t_uint256)45_storage"
      }
    ],
    "types": {
      "t_address": {
        "encoding": "inplace",
        "label": "address",
        "numberOfBytes": "20"
      },
      "t_array(t_uint256)45_storage": {
        "base": "t_uint256",
        "encoding": "inplace",
        "label": "uint256[45]",
        "numberOfBytes": "1440"
      },
      "t_array(t_uint256)50_storage": {
        "base": "t_uint256",
        "encoding": "inplace",
        "label": "uint256[50]",
        "numberOfBytes": "1600"
      },
      "t_bool": {
        "encoding": "inplace",
        "label": "bool",
        "numberOfBytes": "1"
      },
      "t_mapping(t_address,t_mapping(t_address,t_uint256))": {
        "encoding": "mapping",
        "key": "t_address",
        "label": "mapping(address => mapping(address => uint256))",
        "numberOfBytes": "32",
        "value": "t_mapping(t_address,t_uint256)"
      },
      "t_mapping(t_address,t_uint256)": {
        "encoding": "mapping",
        "key": "t_address",
        "label": "mapping(address => uint256)",
        "numberOfBytes": "32",
        "value": "t_uint256"
      },
      "t_string_storage": {
        "encoding": "bytes",
        "label": "string",
        "numberOfBytes": "32"
      },
      "t_uint256": {
        "encoding": "inplace",
        "label": "uint256",
        "numberOfBytes": "32"
      }
    }
  }
}