{
  "address": "0x32Cd9474007782d4EECDd320284E3a9851aE353f",
  "abi": [
    {
      "anonymous": false,
      "inputs": [
        {
          "indexed": true,
          "internalType": "address",
          "name": "tokenAddress",
          "type": "address"
        },
        {
          "indexed": true,
          "internalType": "address",
          "name": "aTokenAddress",
          "type": "address"
        },
        {
          "indexed": false,
          "internalType": "uint256",
          "name": "amount",
          "type": "uint256"
        },
        {
          "indexed": false,
          "internalType": "uint256",
          "name": "aTokenBalanceBeforeDeposit",
          "type": "uint256"
        },
        {
          "indexed": false,
          "internalType": "uint256",
          "name": "aTokenBalanceAfterDeposit",
          "type": "uint256"
        }
      ],
      "name": "AaveDeposited",
      "type": "event"
    },
    {
      "anonymous": false,
      "inputs": [
        {
          "indexed": true,
          "internalType": "address",
          "name": "tokenAddress",
          "type": "address"
        },
        {
          "indexed": true,
          "internalType": "address",
          "name": "aTokenAddress",
          "type": "address"
        },
        {
          "indexed": false,
          "internalType": "uint256",
          "name": "amount",
          "type": "uint256"
        },
        {
          "indexed": false,
          "internalType": "uint256",
          "name": "aTokenBalanceBeforeDeposit",
          "type": "uint256"
        },
        {
          "indexed": false,
          "internalType": "uint256",
          "name": "aTokenBalanceAfterWithdrawal",
          "type": "uint256"
        }
      ],
      "name": "AaveWithdrawn",
      "type": "event"
    },
    {
      "anonymous": false,
      "inputs": [
        {
          "indexed": false,
          "internalType": "address",
          "name": "tokenAddress",
          "type": "address"
        },
        {
          "indexed": false,
          "internalType": "uint256",
          "name": "index",
          "type": "uint256"
        }
      ],
      "name": "TokenAdded",
      "type": "event"
    },
    {
      "anonymous": false,
      "inputs": [
        {
          "indexed": false,
          "internalType": "address",
          "name": "tokenAddress",
          "type": "address"
        },
        {
          "indexed": false,
          "internalType": "uint256",
          "name": "index",
          "type": "uint256"
        }
      ],
      "name": "TokenRemoved",
      "type": "event"
    },
    {
      "inputs": [],
      "name": "_updateImplementationStored",
      "outputs": [],
      "stateMutability": "nonpayable",
      "type": "function"
    },
    {
      "inputs": [],
      "name": "borrower",
      "outputs": [
        {
          "internalType": "address",
          "name": "",
          "type": "address"
        }
      ],
      "stateMutability": "view",
      "type": "function"
    },
    {
      "inputs": [
        {
          "internalType": "address",
          "name": "tokenAddress",
          "type": "address"
        },
        {
          "internalType": "uint256",
          "name": "amount",
          "type": "uint256"
        }
      ],
      "name": "deposit",
      "outputs": [],
      "stateMutability": "nonpayable",
      "type": "function"
    },
    {
      "inputs": [],
      "name": "getTokens",
      "outputs": [
        {
          "internalType": "address[]",
          "name": "",
          "type": "address[]"
        }
      ],
      "stateMutability": "view",
      "type": "function"
    },
    {
      "inputs": [],
      "name": "implementationStored",
      "outputs": [
        {
          "internalType": "address",
          "name": "",
          "type": "address"
        }
      ],
      "stateMutability": "view",
      "type": "function"
    },
    {
      "inputs": [],
      "name": "lendingPool",
      "outputs": [
        {
          "internalType": "address",
          "name": "",
          "type": "address"
        }
      ],
      "stateMutability": "view",
      "type": "function"
    },
    {
      "inputs": [],
      "name": "lendingToken",
      "outputs": [
        {
          "internalType": "address",
          "name": "",
          "type": "address"
        }
      ],
      "stateMutability": "view",
      "type": "function"
    },
    {
      "inputs": [],
      "name": "loanID",
      "outputs": [
        {
          "internalType": "uint256",
          "name": "",
          "type": "uint256"
        }
      ],
      "stateMutability": "view",
      "type": "function"
    },
    {
      "inputs": [],
      "name": "loanManager",
      "outputs": [
        {
          "internalType": "contract ILoans",
          "name": "",
          "type": "address"
        }
      ],
      "stateMutability": "view",
      "type": "function"
    },
    {
      "inputs": [],
      "name": "logicName",
      "outputs": [
        {
          "internalType": "bytes32",
          "name": "",
          "type": "bytes32"
        }
      ],
      "stateMutability": "view",
      "type": "function"
    },
    {
      "inputs": [],
      "name": "logicRegistry",
      "outputs": [
        {
          "internalType": "contract LogicVersionsRegistryInterface",
          "name": "",
          "type": "address"
        }
      ],
      "stateMutability": "view",
      "type": "function"
    },
    {
      "inputs": [],
      "name": "settings",
      "outputs": [
        {
          "internalType": "contract SettingsInterface",
          "name": "",
          "type": "address"
        }
      ],
      "stateMutability": "view",
      "type": "function"
    },
    {
      "inputs": [],
      "name": "strictDynamic",
      "outputs": [
        {
          "internalType": "bool",
          "name": "",
          "type": "bool"
        }
      ],
      "stateMutability": "view",
      "type": "function"
    },
    {
      "inputs": [
        {
          "internalType": "address",
          "name": "newImplementation",
          "type": "address"
        }
      ],
      "name": "upgradeProxyTo",
      "outputs": [],
      "stateMutability": "nonpayable",
      "type": "function"
    },
    {
      "inputs": [
        {
          "internalType": "address",
          "name": "tokenAddress",
          "type": "address"
        },
        {
          "internalType": "uint256",
          "name": "amount",
          "type": "uint256"
        }
      ],
      "name": "withdraw",
      "outputs": [],
      "stateMutability": "nonpayable",
      "type": "function"
    },
    {
      "inputs": [
        {
          "internalType": "address",
          "name": "tokenAddress",
          "type": "address"
        }
      ],
      "name": "withdrawAll",
      "outputs": [],
      "stateMutability": "nonpayable",
      "type": "function"
    }
  ],
  "transactionHash": "0x0a7580a7bcd43a294862b28610cb20b6adc116f65977f6534113902a7e574032",
  "args": [],
  "solcInputHash": "0c80e7fb8aff27a671cb2892ea4bafd6",
  "bytecode": "0x608060405234801561001057600080fd5b50611843806100206000396000f3fe608060405234801561001057600080fd5b50600436106101005760003560e01c8063a59a997311610097578063e06174e411610066578063e06174e4146101fe578063e154e9a414610211578063f3fef3a31461022e578063fa09e6301461024157610100565b8063a59a9973146101b0578063aa6ca808146101c3578063aaaca558146101d8578063b3ccbcfe146101eb57610100565b806347e7ef24116100d357806347e7ef241461015f5780634f8654bc1461017257806355dbd8eb1461018a5780637df1f1b91461019d57610100565b80631eb83d5414610105578063215b0dc61461010f5780632c26486d1461012b57806337c3eedc14610134575b600080fd5b61010d610254565b005b61011860115481565b6040519081526020015b60405180910390f35b61011860015481565b600054610147906001600160a01b031681565b6040516001600160a01b039091168152602001610122565b61010d61016d366004611516565b610323565b6002546101479061010090046001600160a01b031681565b61010d6101983660046114de565b6105a6565b601354610147906001600160a01b031681565b601054610147906001600160a01b031681565b6101cb610625565b60405161012291906116bd565b601254610147906001600160a01b031681565b600f54610147906001600160a01b031681565b600454610147906001600160a01b031681565b60025461021e9060ff1681565b6040519015158152602001610122565b61010d61023c366004611516565b61068a565b61010d61024f3660046114de565b61093f565b60008054600154604051638b51f58b60e01b81526001600160a01b0390921691638b51f58b9161028a9160040190815260200190565b60606040518083038186803b1580156102a257600080fd5b505afa1580156102b6573d6000803e3d6000fd5b505050506040513d601f19601f820116820180604052508101906102da9190611669565b6002549093506001600160a01b038085166101009092041614915061031c90505760028054610100600160a81b0319166101006001600160a01b038416021790555b5043600355565b6013546001600160a01b031633146103565760405162461bcd60e51b815260040161034d9061173d565b60405180910390fd5b6000610360610bb6565b9050600061036d84610c42565b6040516370a0823160e01b81523060048201529091506000906001600160a01b038316906370a082319060240160206040518083038186803b1580156103b257600080fd5b505afa1580156103c6573d6000803e3d6000fd5b505050506040513d601f19601f820116820180604052508101906103ea9190611651565b90506104006001600160a01b0386168486610cd4565b60405163e8eda9df60e01b81526001600160a01b038681166004830152602482018690523060448301526000606483015284169063e8eda9df90608401600060405180830381600087803b15801561045757600080fd5b505af115801561046b573d6000803e3d6000fd5b50506040516370a0823160e01b8152306004820152600092506001600160a01b03851691506370a082319060240160206040518083038186803b1580156104b157600080fd5b505afa1580156104c5573d6000803e3d6000fd5b505050506040513d601f19601f820116820180604052508101906104e99190611651565b905081811161053a5760405162461bcd60e51b815260206004820152601a60248201527f414156455f42414c414e43455f4e4f545f494e43524541534544000000000000604482015260640161034d565b61054383610e1f565b61054c86610e1f565b60408051868152602081018490529081018290526001600160a01b0380851691908816907f97cfeb2fae6dae8c7b8dbb500d805842a4c8dbc974c3e37fdf3229cf0efde87b906060015b60405180910390a3505050505050565b6000546001600160a01b031633146105f95760405162461bcd60e51b81526020600482015260166024820152754d5553545f42455f4c4f4749435f524547495354525960501b604482015260640161034d565b600280546001600160a01b0390921661010002610100600160a81b031990921691909117905543600355565b6060601460000180548060200260200160405190810160405280929190818152602001828054801561068057602002820191906000526020600020905b81546001600160a01b03168152600190910190602001808311610662575b5050505050905090565b6013546001600160a01b031633146106b45760405162461bcd60e51b815260040161034d9061173d565b60006106bf83610c42565b905060006106cb610bb6565b6040516370a0823160e01b81523060048201529091506000906001600160a01b038416906370a082319060240160206040518083038186803b15801561071057600080fd5b505afa158015610724573d6000803e3d6000fd5b505050506040513d601f19601f820116820180604052508101906107489190611651565b9050838110156107935760405162461bcd60e51b81526020600482015260166024820152754e4f5f42414c414e43455f544f5f574954484452415760501b604482015260640161034d565b604051631a4ca37b60e21b81526001600160a01b038681166004830152602482018690523060448301528316906369328dec90606401602060405180830381600087803b1580156107e357600080fd5b505af11580156107f7573d6000803e3d6000fd5b505050506040513d601f19601f8201168201806040525081019061081b9190611651565b506040516370a0823160e01b81523060048201526000906001600160a01b038516906370a082319060240160206040518083038186803b15801561085e57600080fd5b505afa158015610872573d6000803e3d6000fd5b505050506040513d601f19601f820116820180604052508101906108969190611651565b90508181106108df5760405162461bcd60e51b815260206004820152601560248201527420a0ab22afaba4aa24222920aba0a62fa2a92927a960591b604482015260640161034d565b6108e884610e1f565b6108f186610e1f565b60408051868152602081018490529081018290526001600160a01b0380861691908816907fa8405a8a1647a5e0acad28d7c5479855c88ea06ab429d2eab516d0ca096163c590606001610596565b6013546001600160a01b031633146109695760405162461bcd60e51b815260040161034d9061173d565b600061097482610c42565b6040516370a0823160e01b81523060048201529091506000906001600160a01b038316906370a082319060240160206040518083038186803b1580156109b957600080fd5b505afa1580156109cd573d6000803e3d6000fd5b505050506040513d601f19601f820116820180604052508101906109f19190611651565b905060006109fd610bb6565b604051631a4ca37b60e21b81526001600160a01b03868116600483015260248201859052306044830152919250908216906369328dec90606401602060405180830381600087803b158015610a5157600080fd5b505af1158015610a65573d6000803e3d6000fd5b505050506040513d601f19601f82011682018060405250810190610a899190611651565b506040516370a0823160e01b81523060048201526000906001600160a01b038516906370a082319060240160206040518083038186803b158015610acc57600080fd5b505afa158015610ae0573d6000803e3d6000fd5b505050506040513d601f19601f82011682018060405250810190610b049190611651565b90508015610b4c5760405162461bcd60e51b815260206004820152601560248201527420a0ab22afaba4aa24222920aba0a62fa2a92927a960591b604482015260640161034d565b610b5584610e1f565b610b5e85610e1f565b60408051848152602081018590529081018290526001600160a01b0380861691908716907fa8405a8a1647a5e0acad28d7c5479855c88ea06ab429d2eab516d0ca096163c59060600160405180910390a35050505050565b600073b53c1a33016b2dc2ff3653530bff1848a515c8c56001600160a01b0316630261bf8b6040518163ffffffff1660e01b815260040160206040518083038186803b158015610c0557600080fd5b505afa158015610c19573d6000803e3d6000fd5b505050506040513d601f19601f82011682018060405250810190610c3d91906114fa565b905090565b6000610c4c610bb6565b6040516335ea6a7560e01b81526001600160a01b03848116600483015291909116906335ea6a75906024016101806040518083038186803b158015610c9057600080fd5b505afa158015610ca4573d6000803e3d6000fd5b505050506040513d601f19601f82011682018060405250810190610cc89190611561565b60e0015190505b919050565b801580610d5d5750604051636eb1769f60e11b81523060048201526001600160a01b03838116602483015284169063dd62ed3e9060440160206040518083038186803b158015610d2357600080fd5b505afa158015610d37573d6000803e3d6000fd5b505050506040513d601f19601f82011682018060405250810190610d5b9190611651565b155b610dc85760405162461bcd60e51b815260206004820152603660248201527f5361666545524332303a20617070726f76652066726f6d206e6f6e2d7a65726f60448201527520746f206e6f6e2d7a65726f20616c6c6f77616e636560501b606482015260840161034d565b604080516001600160a01b038416602482015260448082018490528251808303909101815260649091019091526020810180516001600160e01b031663095ea7b360e01b179052610e1a908490610ef3565b505050565b600080610e2d601484610fc5565b915091506000610e3c84611032565b1115610e9b5781610e9657610e526014846110b2565b50604080516001600160a01b0385168152602081018390527ff4c563a3ea86ff1f4275e8c207df0375a51963f2b831b7bf4da8be938d92876c910160405180910390a15b610e1a565b8115610e1a57610eac6014826111b8565b604080516001600160a01b0385168152602081018390527fbe9bb4bdca0a094babd75e3a98b1d2e2390633430d0a2f6e2b9970e2ee03fb2e910160405180910390a1505050565b6000610f48826040518060400160405280602081526020017f5361666545524332303a206c6f772d6c6576656c2063616c6c206661696c6564815250856001600160a01b03166111c69092919063ffffffff16565b805190915015610e1a5780806020019051810190610f669190611541565b610e1a5760405162461bcd60e51b815260206004820152602a60248201527f5361666545524332303a204552433230206f7065726174696f6e20646964206e6044820152691bdd081cdd58d8d9595960b21b606482015260840161034d565b815460009081901561102b57506001600160a01b0382166000818152600185016020526040902054845490919085908390811061101257634e487b7160e01b600052603260045260246000fd5b6000918252602090912001546001600160a01b03161491505b9250929050565b6040516370a0823160e01b81523060048201526000906001600160a01b038316906370a082319060240160206040518083038186803b15801561107457600080fd5b505afa158015611088573d6000803e3d6000fd5b505050506040513d601f19601f820116820180604052508101906110ac9190611651565b92915050565b60006111056040518060400160405280601981526020017f454d5054595f414444524553535f4e4f545f414c4c4f57454400000000000000815250836001600160a01b03166111df90919063ffffffff16565b60006111118484610fc5565b50905080156111535760405162461bcd60e51b815260206004820152600e60248201526d414444524553535f45584953545360901b604482015260640161034d565b83546001808201865560008681526020902090910180546001600160a01b0319166001600160a01b038616179055611189855490565b61119391906117a2565b6001600160a01b03909316600090815260019094016020525050604090912081905590565b6111c28282611207565b5050565b60606111d58484600085611307565b90505b9392505050565b806001600160a01b038316610e1a5760405162461bcd60e51b815260040161034d919061170a565b81548110611214576111c2565b8154611222906001906117a2565b81146112c35781548290611238906001906117a2565b8154811061125657634e487b7160e01b600052603260045260246000fd5b9060005260206000200160009054906101000a90046001600160a01b031682828154811061129457634e487b7160e01b600052603260045260246000fd5b9060005260206000200160006101000a8154816001600160a01b0302191690836001600160a01b031602179055505b818054806112e157634e487b7160e01b600052603160045260246000fd5b600082815260209020810160001990810180546001600160a01b03191690550190555050565b6060824710156113685760405162461bcd60e51b815260206004820152602660248201527f416464726573733a20696e73756666696369656e742062616c616e636520666f6044820152651c8818d85b1b60d21b606482015260840161034d565b843b6113b65760405162461bcd60e51b815260206004820152601d60248201527f416464726573733a2063616c6c20746f206e6f6e2d636f6e7472616374000000604482015260640161034d565b600080866001600160a01b031685876040516113d291906116a1565b60006040518083038185875af1925050503d806000811461140f576040519150601f19603f3d011682016040523d82523d6000602084013e611414565b606091505b509150915061142482828661142f565b979650505050505050565b6060831561143e5750816111d8565b82511561144e5782518084602001fd5b8160405162461bcd60e51b815260040161034d919061170a565b8051610ccf816117f5565b600060208284031215611484578081fd5b61148e6020611763565b9151825250919050565b80516fffffffffffffffffffffffffffffffff81168114610ccf57600080fd5b805164ffffffffff81168114610ccf57600080fd5b805160ff81168114610ccf57600080fd5b6000602082840312156114ef578081fd5b81356111d8816117f5565b60006020828403121561150b578081fd5b81516111d8816117f5565b60008060408385031215611528578081fd5b8235611533816117f5565b946020939093013593505050565b600060208284031215611552578081fd5b815180151581146111d8578182fd5b6000610180808385031215611574578182fd5b61157d81611763565b90506115898484611473565b815261159760208401611498565b60208201526115a860408401611498565b60408201526115b960608401611498565b60608201526115ca60808401611498565b60808201526115db60a08401611498565b60a08201526115ec60c084016114b8565b60c08201526115fd60e08401611468565b60e0820152610100611610818501611468565b90820152610120611622848201611468565b90820152610140611634848201611468565b908201526101606116468482016114cd565b908201529392505050565b600060208284031215611662578081fd5b5051919050565b60008060006060848603121561167d578081fd5b83519250602084015191506040840151611696816117f5565b809150509250925092565b600082516116b38184602087016117c5565b9190910192915050565b6020808252825182820181905260009190848201906040850190845b818110156116fe5783516001600160a01b0316835292840192918401916001016116d9565b50909695505050505050565b60006020825282518060208401526117298160408501602087016117c5565b601f01601f19169190910160400192915050565b6020808252600c908201526b2727aa2fa127a92927aba2a960a11b604082015260600190565b604051601f8201601f1916810167ffffffffffffffff8111828210171561179a57634e487b7160e01b600052604160045260246000fd5b604052919050565b6000828210156117c057634e487b7160e01b81526011600452602481fd5b500390565b60005b838110156117e05781810151838201526020016117c8565b838111156117ef576000848401525b50505050565b6001600160a01b038116811461180a57600080fd5b5056fea26469706673582212208b018b4ff38598cff7117ece6344bc07d997869d10d6b47c1646c10da6596de064736f6c63430008030033",
  "devdoc": {
    "author": "develop@teller.finance",
    "kind": "dev",
    "methods": {
      "_updateImplementationStored()": {
        "details": "It uses the LogicVersionsRegistry contract to get the logic address or the cached address if valid.It caches the current logic address for the proxy to reduce gas on subsequent calls within the same block."
      },
      "deposit(address,uint256)": {
        "params": {
          "amount": "amount of tokens to deposit",
          "tokenAddress": "address of the token"
        }
      },
      "getTokens()": {
        "returns": {
          "_0": "The list of all tokens held by this contract."
        }
      },
      "withdraw(address,uint256)": {
        "params": {
          "amount": "amount of the underlying tokens to withdraw",
          "tokenAddress": "address of the token"
        }
      },
      "withdrawAll(address)": {
        "params": {
          "tokenAddress": "address of the token"
        }
      }
    },
    "version": 1
  },
  "userdoc": {
    "events": {
      "AaveDeposited(address,address,uint256,uint256,uint256)": {
        "notice": "This event is emitted every time Aave deposit is invoked successfully."
      },
      "AaveWithdrawn(address,address,uint256,uint256,uint256)": {
        "notice": "This event is emitted every time Aave redeem is invoked successfully."
      },
      "TokenAdded(address,uint256)": {
        "notice": "This event is emitted when a new token is added to this Escrow."
      },
      "TokenRemoved(address,uint256)": {
        "notice": "This event is emitted when a new token is removed from this Escrow."
      }
    },
    "kind": "user",
    "methods": {
      "_updateImplementationStored()": {
        "notice": "Updates the current implementation logic address for the stored logic name."
      },
      "borrower()": {
        "notice": "Holds the borrower's address that owns this Escrow loan."
      },
      "deposit(address,uint256)": {
        "notice": "The deposit, the aToken needs to be approved to have access to the token balance"
      },
      "getTokens()": {
        "notice": "Returns an array of token addresses, for which this Escrow contract has a balance."
      },
      "implementationStored()": {
        "notice": "It stores the last known logic address locally to reduce gas costs."
      },
      "lendingPool()": {
        "notice": "Holds the address of the LendingPool used for this Escrow loan."
      },
      "lendingToken()": {
        "notice": "Holds the token that this Escrow loan was taken out with."
      },
      "loanID()": {
        "notice": "Holds the loan ID of the loan for this Escrow in the LoansManager contract."
      },
      "loanManager()": {
        "notice": "Holds the instance of the associated LoanManager contract for this Escrow loan."
      },
      "logicName()": {
        "notice": "It represent the logic name (key) used for this proxy."
      },
      "logicRegistry()": {
        "notice": "It returns the logic registry that is used to determine the implementation logic for this proxy."
      },
      "settings()": {
        "notice": "It holds the platform Settings instance."
      },
      "strictDynamic()": {
        "notice": "Boolean indicating if the proxy must check the registry for a new implementation."
      },
      "upgradeProxyTo(address)": {
        "notice": "It updates a proxy's cached implementation address.It must only be called by the LogicVersionsRegistry for non strict DynamicProxy"
      },
      "withdraw(address,uint256)": {
        "notice": "This function withdraws the user's aTokens for a specific amount"
      },
      "withdrawAll(address)": {
        "notice": "This function withdraws all the user's aTokens from previous deposits"
      }
    },
    "notice": "This contract is used to define Aave dApp actions available. All dapp actions are invoked via delegatecalls from Escrow contract, so this contract's state is really Escrow.",
    "version": 1
  },
  "storageLayout": {
    "storage": [
      {
        "astId": 13960,
        "contract": "contracts/base/escrow/dapps/AaveDapp.sol:AaveDapp",
        "label": "logicRegistry",
        "offset": 0,
        "slot": "0",
        "type": "t_contract(LogicVersionsRegistryInterface)14789"
      },
      {
        "astId": 13963,
        "contract": "contracts/base/escrow/dapps/AaveDapp.sol:AaveDapp",
        "label": "logicName",
        "offset": 0,
        "slot": "1",
        "type": "t_bytes32"
      },
      {
        "astId": 13966,
        "contract": "contracts/base/escrow/dapps/AaveDapp.sol:AaveDapp",
        "label": "strictDynamic",
        "offset": 0,
        "slot": "2",
        "type": "t_bool"
      },
      {
        "astId": 13969,
        "contract": "contracts/base/escrow/dapps/AaveDapp.sol:AaveDapp",
        "label": "implementationStored",
        "offset": 1,
        "slot": "2",
        "type": "t_address"
      },
      {
        "astId": 13972,
        "contract": "contracts/base/escrow/dapps/AaveDapp.sol:AaveDapp",
        "label": "_implementationBlockUpdated",
        "offset": 0,
        "slot": "3",
        "type": "t_uint256"
      },
      {
        "astId": 1898,
        "contract": "contracts/base/escrow/dapps/AaveDapp.sol:AaveDapp",
        "label": "settings",
        "offset": 0,
        "slot": "4",
        "type": "t_contract(SettingsInterface)15153"
      },
      {
        "astId": 1903,
        "contract": "contracts/base/escrow/dapps/AaveDapp.sol:AaveDapp",
        "label": "__gap",
        "offset": 0,
        "slot": "5",
        "type": "t_array(t_uint256)10_storage"
      },
      {
        "astId": 4821,
        "contract": "contracts/base/escrow/dapps/AaveDapp.sol:AaveDapp",
        "label": "loanManager",
        "offset": 0,
        "slot": "15",
        "type": "t_contract(ILoans)15763"
      },
      {
        "astId": 4824,
        "contract": "contracts/base/escrow/dapps/AaveDapp.sol:AaveDapp",
        "label": "lendingPool",
        "offset": 0,
        "slot": "16",
        "type": "t_address"
      },
      {
        "astId": 4827,
        "contract": "contracts/base/escrow/dapps/AaveDapp.sol:AaveDapp",
        "label": "loanID",
        "offset": 0,
        "slot": "17",
        "type": "t_uint256"
      },
      {
        "astId": 4830,
        "contract": "contracts/base/escrow/dapps/AaveDapp.sol:AaveDapp",
        "label": "lendingToken",
        "offset": 0,
        "slot": "18",
        "type": "t_address"
      },
      {
        "astId": 4833,
        "contract": "contracts/base/escrow/dapps/AaveDapp.sol:AaveDapp",
        "label": "borrower",
        "offset": 0,
        "slot": "19",
        "type": "t_address"
      },
      {
        "astId": 4836,
        "contract": "contracts/base/escrow/dapps/AaveDapp.sol:AaveDapp",
        "label": "tokens",
        "offset": 0,
        "slot": "20",
        "type": "t_struct(AddressArray)17340_storage"
      }
    ],
    "types": {
      "t_address": {
        "encoding": "inplace",
        "label": "address",
        "numberOfBytes": "20"
      },
      "t_array(t_address)dyn_storage": {
        "base": "t_address",
        "encoding": "dynamic_array",
        "label": "address[]",
        "numberOfBytes": "32"
      },
      "t_array(t_uint256)10_storage": {
        "base": "t_uint256",
        "encoding": "inplace",
        "label": "uint256[10]",
        "numberOfBytes": "320"
      },
      "t_bool": {
        "encoding": "inplace",
        "label": "bool",
        "numberOfBytes": "1"
      },
      "t_bytes32": {
        "encoding": "inplace",
        "label": "bytes32",
        "numberOfBytes": "32"
      },
      "t_contract(ILoans)15763": {
        "encoding": "inplace",
        "label": "contract ILoans",
        "numberOfBytes": "20"
      },
      "t_contract(LogicVersionsRegistryInterface)14789": {
        "encoding": "inplace",
        "label": "contract LogicVersionsRegistryInterface",
        "numberOfBytes": "20"
      },
      "t_contract(SettingsInterface)15153": {
        "encoding": "inplace",
        "label": "contract SettingsInterface",
        "numberOfBytes": "20"
      },
      "t_mapping(t_address,t_uint256)": {
        "encoding": "mapping",
        "key": "t_address",
        "label": "mapping(address => uint256)",
        "numberOfBytes": "32",
        "value": "t_uint256"
      },
      "t_struct(AddressArray)17340_storage": {
        "encoding": "inplace",
        "label": "struct AddressArrayLib.AddressArray",
        "members": [
          {
            "astId": 17335,
            "contract": "contracts/base/escrow/dapps/AaveDapp.sol:AaveDapp",
            "label": "array",
            "offset": 0,
            "slot": "0",
            "type": "t_array(t_address)dyn_storage"
          },
          {
            "astId": 17339,
            "contract": "contracts/base/escrow/dapps/AaveDapp.sol:AaveDapp",
            "label": "indices",
            "offset": 0,
            "slot": "1",
            "type": "t_mapping(t_address,t_uint256)"
          }
        ],
        "numberOfBytes": "64"
      },
      "t_uint256": {
        "encoding": "inplace",
        "label": "uint256",
        "numberOfBytes": "32"
      }
    }
  }
}