{
  "address": "0x2ab8b467568A6D8FF72339a0043F4B44Fd7fc2b0",
  "abi": [
    {
      "inputs": [
        {
          "internalType": "address",
          "name": "ensResolver",
          "type": "address"
        }
      ],
      "stateMutability": "nonpayable",
      "type": "constructor"
    },
    {
      "inputs": [],
      "name": "ENS_DOMAIN",
      "outputs": [
        {
          "internalType": "bytes32",
          "name": "",
          "type": "bytes32"
        }
      ],
      "stateMutability": "view",
      "type": "function"
    },
    {
      "inputs": [],
      "name": "ENS_RESOLVER",
      "outputs": [
        {
          "internalType": "address",
          "name": "",
          "type": "address"
        }
      ],
      "stateMutability": "view",
      "type": "function"
    },
    {
      "inputs": [
        {
          "internalType": "address",
          "name": "token",
          "type": "address"
        }
      ],
      "name": "getEthAggregator",
      "outputs": [
        {
          "internalType": "address",
          "name": "",
          "type": "address"
        }
      ],
      "stateMutability": "view",
      "type": "function"
    },
    {
      "inputs": [
        {
          "internalType": "address",
          "name": "token",
          "type": "address"
        }
      ],
      "name": "getEthPrice",
      "outputs": [
        {
          "internalType": "uint256",
          "name": "price_",
          "type": "uint256"
        }
      ],
      "stateMutability": "view",
      "type": "function"
    }
  ],
  "artifactName": "ChainlinkPricer",
  "transactionHash": "0xbd16d6978b0d583032e4211a513af237b0d637248ebca8acebb442504e68b24c",
  "args": [
    "0xE13C3AFAB5C9E86DC93e7eF7f781352aa41Ce3de"
  ],
  "solcInputHash": "72974315af9eee2c5de273080157f330",
  "bytecode": "0x60a060405234801561001057600080fd5b5060405161095038038061095083398101604081905261002f916100ad565b610042816100a760201b6102071760201c565b6100925760405162461bcd60e51b815260206004820152601d60248201527f54656c6c65723a207265736f6c766572206e6f7420636f6e7472616374000000604482015260640160405180910390fd5b60601b6001600160601b0319166080526100db565b3b151590565b6000602082840312156100be578081fd5b81516001600160a01b03811681146100d4578182fd5b9392505050565b60805160601c6108516100ff60003960008181605601526101b201526108516000f3fe608060405234801561001057600080fd5b506004361061004c5760003560e01c806393ed446414610051578063a6b24a8f14610095578063b01e00bc146100b6578063b951ed8c146100dd575b600080fd5b6100787f000000000000000000000000000000000000000000000000000000000000000081565b6040516001600160a01b0390911681526020015b60405180910390f35b6100a86100a3366004610623565b6100f0565b60405190815260200161008c565b6100a87f4a9dd6923a809a49d009b308182940df46ac3a45ee16c1133f90db66596dae1f81565b6100786100eb366004610623565b610179565b60006101736100fe83610179565b6001600160a01b03166350d25bcd6040518163ffffffff1660e01b815260040160206040518083038186803b15801561013657600080fd5b505afa15801561014a573d6000803e3d6000fd5b505050506040513d601f19601f8201168201806040525081019061016e919061065b565b61020d565b92915050565b6000806101ab6040518060400160405280600481526020016305acae8d60e31b8152506101a585610267565b90610390565b90506102007f00000000000000000000000000000000000000000000000000000000000000006101fb837f4a9dd6923a809a49d009b308182940df46ac3a45ee16c1133f90db66596dae1f6103bc565b61040d565b9392505050565b3b151590565b6000808212156102635760405162461bcd60e51b815260206004820181905260248201527f53616665436173743a2076616c7565206d75737420626520706f736974697665604482015260640160405180910390fd5b5090565b60606000826001600160a01b03166395d89b416040518163ffffffff1660e01b815260040160006040518083038186803b1580156102a457600080fd5b505afa1580156102b8573d6000803e3d6000fd5b505050506040513d6000823e601f3d908101601f191682016040526102e09190810190610673565b9050610311604051806040016040528060048152602001635742544360e01b8152508261048890919063ffffffff16565b1561033757505060408051808201909152600381526262746360e81b6020820152919050565b604080518082019091526006815265574d4154494360d01b602082015261035f908290610488565b156103875750506040805180820190915260058152646d6174696360d81b6020820152919050565b61020081610542565b606082826040516020016103a5929190610738565b604051602081830303815290604052905092915050565b6000610200836040516020016103d2919061071c565b60408051601f198184030181528282528051602091820120838201879052838301528151808403830181526060909301909152815191012090565b604051631d9dabef60e11b8152600481018290526000906001600160a01b03841690633b3b57de9060240160206040518083038186803b15801561045057600080fd5b505afa158015610464573d6000803e3d6000fd5b505050506040513d601f19601f82011682018060405250810190610200919061063f565b8051825160009184918491146104a357600092505050610173565b60005b8251811015610536578181815181106104cf57634e487b7160e01b600052603260045260246000fd5b602001015160f81c60f81b6001600160f81b03191683828151811061050457634e487b7160e01b600052603260045260246000fd5b01602001516001600160f81b031916146105245760009350505050610173565b8061052e816107bc565b9150506104a6565b50600195945050505050565b60608160005b81518110156105d15761058882828151811061057457634e487b7160e01b600052603260045260246000fd5b01602001516001600160f81b0319166105d8565b8282815181106105a857634e487b7160e01b600052603260045260246000fd5b60200101906001600160f81b031916908160001a905350806105c9816107bc565b915050610548565b5092915050565b6000604160f81b6001600160f81b03198316108015906106065750602d60f91b6001600160f81b0319831611155b156102635761061a60f883901c6020610767565b60f81b92915050565b600060208284031215610634578081fd5b813561020081610803565b600060208284031215610650578081fd5b815161020081610803565b60006020828403121561066c578081fd5b5051919050565b600060208284031215610684578081fd5b815167ffffffffffffffff8082111561069b578283fd5b818401915084601f8301126106ae578283fd5b8151818111156106c0576106c06107ed565b604051601f8201601f19908116603f011681019083821181831017156106e8576106e86107ed565b81604052828152876020848701011115610700578586fd5b61071183602083016020880161078c565b979650505050505050565b6000825161072e81846020870161078c565b9190910192915050565b6000835161074a81846020880161078c565b83519083019061075e81836020880161078c565b01949350505050565b600060ff821660ff84168060ff03821115610784576107846107d7565b019392505050565b60005b838110156107a757818101518382015260200161078f565b838111156107b6576000848401525b50505050565b60006000198214156107d0576107d06107d7565b5060010190565b634e487b7160e01b600052601160045260246000fd5b634e487b7160e01b600052604160045260246000fd5b6001600160a01b038116811461081857600080fd5b5056fea264697066735822122025fd1d19e8366389d17a4fdad7752856b820184807915e6bac02f322111a8a9364736f6c63430008040033",
  "devdoc": {
    "kind": "dev",
    "methods": {},
    "version": 1
  },
  "userdoc": {
    "kind": "user",
    "methods": {},
    "version": 1
  },
  "storageLayout": {
    "storage": [],
    "types": null
  }
}