{
  "address": "0xB49dc3f2D0179B0f0dDe86fFD56820509C18ffD6",
  "abi": [
    {
      "anonymous": false,
      "inputs": [
        {
          "indexed": true,
          "internalType": "address",
          "name": "previousOwner",
          "type": "address"
        },
        {
          "indexed": true,
          "internalType": "address",
          "name": "newOwner",
          "type": "address"
        }
      ],
      "name": "OwnershipTransferred",
      "type": "event"
    },
    {
      "inputs": [],
      "name": "collateralToken",
      "outputs": [
        {
          "internalType": "address",
          "name": "",
          "type": "address"
        }
      ],
      "stateMutability": "view",
      "type": "function"
    },
    {
      "inputs": [
        {
          "internalType": "uint256",
          "name": "loanID",
          "type": "uint256"
        },
        {
          "internalType": "uint256",
          "name": "amount",
          "type": "uint256"
        }
      ],
      "name": "deposit",
      "outputs": [],
      "stateMutability": "payable",
      "type": "function"
    },
    {
      "inputs": [
        {
          "internalType": "address",
          "name": "tokenAddress",
          "type": "address"
        },
        {
          "internalType": "bool",
          "name": "isWrappedNativeToken",
          "type": "bool"
        }
      ],
      "name": "init",
      "outputs": [],
      "stateMutability": "nonpayable",
      "type": "function"
    },
    {
      "inputs": [
        {
          "internalType": "uint256",
          "name": "loanID",
          "type": "uint256"
        }
      ],
      "name": "loanSupply",
      "outputs": [
        {
          "internalType": "uint256",
          "name": "supply_",
          "type": "uint256"
        }
      ],
      "stateMutability": "view",
      "type": "function"
    },
    {
      "inputs": [],
      "name": "owner",
      "outputs": [
        {
          "internalType": "address",
          "name": "",
          "type": "address"
        }
      ],
      "stateMutability": "view",
      "type": "function"
    },
    {
      "inputs": [],
      "name": "renounceOwnership",
      "outputs": [],
      "stateMutability": "nonpayable",
      "type": "function"
    },
    {
      "inputs": [],
      "name": "totalSupply",
      "outputs": [
        {
          "internalType": "uint256",
          "name": "supply_",
          "type": "uint256"
        }
      ],
      "stateMutability": "view",
      "type": "function"
    },
    {
      "inputs": [
        {
          "internalType": "address",
          "name": "newOwner",
          "type": "address"
        }
      ],
      "name": "transferOwnership",
      "outputs": [],
      "stateMutability": "nonpayable",
      "type": "function"
    },
    {
      "inputs": [
        {
          "internalType": "uint256",
          "name": "loanID",
          "type": "uint256"
        },
        {
          "internalType": "uint256",
          "name": "amount",
          "type": "uint256"
        },
        {
          "internalType": "address payable",
          "name": "receiver",
          "type": "address"
        }
      ],
      "name": "withdraw",
      "outputs": [],
      "stateMutability": "nonpayable",
      "type": "function"
    }
  ],
  "artifactName": "CollateralEscrow_V1",
  "transactionHash": "0xe2c3a9f49912ac4d0ee2823f4d3df502d3df028db9bbfe24072d7c9dc832994b",
  "args": [],
  "solcInputHash": "72974315af9eee2c5de273080157f330",
  "bytecode": "0x608060405234801561001057600080fd5b50610cf4806100206000396000f3fe6080604052600436106100865760003560e01c8063b2016bd411610059578063b2016bd41461011c578063cb9fa3661461013c578063d17b71d71461015c578063e2bbb15814610189578063f2fde38b1461019c57600080fd5b80630ad58d2f1461008b57806318160ddd146100ad578063715018a6146100d55780638da5cb5b146100ea575b600080fd5b34801561009757600080fd5b506100ab6100a6366004610b20565b6101bc565b005b3480156100b957600080fd5b506100c26102a3565b6040519081526020015b60405180910390f35b3480156100e157600080fd5b506100ab610324565b3480156100f657600080fd5b506033546001600160a01b03165b6040516001600160a01b0390911681526020016100cc565b34801561012857600080fd5b50606654610104906001600160a01b031681565b34801561014857600080fd5b506100ab610157366004610a7b565b61035a565b34801561016857600080fd5b506100c2610177366004610acf565b60009081526065602052604090205490565b6100ab610197366004610aff565b6103f7565b3480156101a857600080fd5b506100ab6101b7366004610a5f565b61053b565b6033546001600160a01b031633146101ef5760405162461bcd60e51b81526004016101e690610bf5565b60405180910390fd5b6000838152606560205260409020548211156102645760405162461bcd60e51b815260206004820152602e60248201527f54656c6c657220657363726f773a20496e73756666696369656e7420636f6c6c60448201526d61746572616c2062616c616e636560901b60648201526084016101e6565b60665461027b906001600160a01b031682846105d6565b60008381526065602052604081208054849290610299908490610c42565b9091555050505050565b6066546040516370a0823160e01b81523060048201526000916001600160a01b0316906370a082319060240160206040518083038186803b1580156102e757600080fd5b505afa1580156102fb573d6000803e3d6000fd5b505050506040513d601f19601f8201168201806040525081019061031f9190610ae7565b905090565b6033546001600160a01b0316331461034e5760405162461bcd60e51b81526004016101e690610bf5565b610358600061063e565b565b6001600160a01b0382166103c25760405162461bcd60e51b815260206004820152602960248201527f54656c6c657220657363726f773a20636f6c6c61746572616c20746f6b656e2060448201526806164647265737320360bc1b60648201526084016101e6565b6103ca610690565b60668054911515600160a01b026001600160a81b03199092166001600160a01b0390931692909217179055565b6033546001600160a01b031633146104215760405162461bcd60e51b81526004016101e690610bf5565b606654600160a01b900460ff16801561043a5750600034115b156104fc5780341461048e5760405162461bcd60e51b815260206004820152601d60248201527f54656c6c65723a20696e636f727265637420657468206465706f73697400000060448201526064016101e6565b606660009054906101000a90046001600160a01b03166001600160a01b031663d0e30db0346040518263ffffffff1660e01b81526004016000604051808303818588803b1580156104de57600080fd5b505af11580156104f2573d6000803e3d6000fd5b5050505050610514565b606654610514906001600160a01b031633308461070b565b60008281526065602052604081208054839290610532908490610c2a565b90915550505050565b6033546001600160a01b031633146105655760405162461bcd60e51b81526004016101e690610bf5565b6001600160a01b0381166105ca5760405162461bcd60e51b815260206004820152602660248201527f4f776e61626c653a206e6577206f776e657220697320746865207a65726f206160448201526564647265737360d01b60648201526084016101e6565b6105d38161063e565b50565b6040516001600160a01b03831660248201526044810182905261063990849063a9059cbb60e01b906064015b60408051601f198184030181529190526020810180516001600160e01b03166001600160e01b031990931692909217909152610749565b505050565b603380546001600160a01b038381166001600160a01b0319831681179093556040519116919082907f8be0079c531659141344cd1fd0a4f28419497f9722a3daafe3b4186f6b6457e090600090a35050565b600054610100900460ff16806106a9575060005460ff16155b6106c55760405162461bcd60e51b81526004016101e690610ba7565b600054610100900460ff161580156106e7576000805461ffff19166101011790555b6106ef61081b565b6106f7610885565b80156105d3576000805461ff001916905550565b6040516001600160a01b03808516602483015283166044820152606481018290526107439085906323b872dd60e01b90608401610602565b50505050565b600061079e826040518060400160405280602081526020017f5361666545524332303a206c6f772d6c6576656c2063616c6c206661696c6564815250856001600160a01b03166108e59092919063ffffffff16565b80519091501561063957808060200190518101906107bc9190610ab3565b6106395760405162461bcd60e51b815260206004820152602a60248201527f5361666545524332303a204552433230206f7065726174696f6e20646964206e6044820152691bdd081cdd58d8d9595960b21b60648201526084016101e6565b600054610100900460ff1680610834575060005460ff16155b6108505760405162461bcd60e51b81526004016101e690610ba7565b600054610100900460ff161580156106f7576000805461ffff191661010117905580156105d3576000805461ff001916905550565b600054610100900460ff168061089e575060005460ff16155b6108ba5760405162461bcd60e51b81526004016101e690610ba7565b600054610100900460ff161580156108dc576000805461ffff19166101011790555b6106f73361063e565b60606108f484846000856108fe565b90505b9392505050565b60608247101561095f5760405162461bcd60e51b815260206004820152602660248201527f416464726573733a20696e73756666696369656e742062616c616e636520666f6044820152651c8818d85b1b60d21b60648201526084016101e6565b843b6109ad5760405162461bcd60e51b815260206004820152601d60248201527f416464726573733a2063616c6c20746f206e6f6e2d636f6e747261637400000060448201526064016101e6565b600080866001600160a01b031685876040516109c99190610b58565b60006040518083038185875af1925050503d8060008114610a06576040519150601f19603f3d011682016040523d82523d6000602084013e610a0b565b606091505b5091509150610a1b828286610a26565b979650505050505050565b60608315610a355750816108f7565b825115610a455782518084602001fd5b8160405162461bcd60e51b81526004016101e69190610b74565b600060208284031215610a70578081fd5b81356108f781610c9b565b60008060408385031215610a8d578081fd5b8235610a9881610c9b565b91506020830135610aa881610cb0565b809150509250929050565b600060208284031215610ac4578081fd5b81516108f781610cb0565b600060208284031215610ae0578081fd5b5035919050565b600060208284031215610af8578081fd5b5051919050565b60008060408385031215610b11578182fd5b50508035926020909101359150565b600080600060608486031215610b34578081fd5b83359250602084013591506040840135610b4d81610c9b565b809150509250925092565b60008251610b6a818460208701610c59565b9190910192915050565b6020815260008251806020840152610b93816040850160208701610c59565b601f01601f19169190910160400192915050565b6020808252602e908201527f496e697469616c697a61626c653a20636f6e747261637420697320616c72656160408201526d191e481a5b9a5d1a585b1a5e995960921b606082015260800190565b6020808252818101527f4f776e61626c653a2063616c6c6572206973206e6f7420746865206f776e6572604082015260600190565b60008219821115610c3d57610c3d610c85565b500190565b600082821015610c5457610c54610c85565b500390565b60005b83811015610c74578181015183820152602001610c5c565b838111156107435750506000910152565b634e487b7160e01b600052601160045260246000fd5b6001600160a01b03811681146105d357600080fd5b80151581146105d357600080fdfea2646970667358221220b5205c830762606f85e5b484d727439ee65fd5f6f0f9a0b0c67a7d375847f41664736f6c63430008040033",
  "devdoc": {
    "kind": "dev",
    "methods": {
      "deposit(uint256,uint256)": {
        "params": {
          "amount": "the amount of collateral tokens to be deposited",
          "loanID": "the ID of the loan"
        }
      },
      "init(address,bool)": {
        "params": {
          "isWrappedNativeToken": "check if it's wrapped Ethereum/MATIC",
          "tokenAddress": "the address of the collateral token to be stored"
        }
      },
      "loanSupply(uint256)": {
        "params": {
          "loanID": "the respective loan ID"
        },
        "returns": {
          "supply_": "the amount in collateral of the respective loan"
        }
      },
      "owner()": {
        "details": "Returns the address of the current owner."
      },
      "renounceOwnership()": {
        "details": "Leaves the contract without owner. It will not be possible to call `onlyOwner` functions anymore. Can only be called by the current owner. NOTE: Renouncing ownership will leave the contract without an owner, thereby removing any functionality that is only available to the owner."
      },
      "totalSupply()": {
        "returns": {
          "supply_": "the total amount of collateral"
        }
      },
      "transferOwnership(address)": {
        "details": "Transfers ownership of the contract to a new account (`newOwner`). Can only be called by the current owner."
      },
      "withdraw(uint256,uint256,address)": {
        "details": "only the TellerDiamond can make this call on behalf of the borrower",
        "params": {
          "amount": "number of collateral tokens to send",
          "loanID": "identifier of the loan",
          "receiver": "payable address to transfer money to"
        }
      }
    },
    "version": 1
  },
  "userdoc": {
    "kind": "user",
    "methods": {
      "deposit(uint256,uint256)": {
        "notice": "it deposits an amount of the respective collateral token into the escrow"
      },
      "init(address,bool)": {
        "notice": "it initializes an escrow"
      },
      "loanSupply(uint256)": {
        "notice": "it returns the supply of collateral of the respective loan"
      },
      "totalSupply()": {
        "notice": "it returns the total supply of the collateral token held by the contract"
      },
      "withdraw(uint256,uint256,address)": {
        "notice": "it withdraws an amount of tokens in a respective loanID on behalf of the borrower"
      }
    },
    "version": 1
  },
  "storageLayout": {
    "storage": [
      {
        "astId": 5253,
        "contract": "contracts/market/collateral/CollateralEscrow_V1.sol:CollateralEscrow_V1",
        "label": "_initialized",
        "offset": 0,
        "slot": "0",
        "type": "t_bool"
      },
      {
        "astId": 5256,
        "contract": "contracts/market/collateral/CollateralEscrow_V1.sol:CollateralEscrow_V1",
        "label": "_initializing",
        "offset": 1,
        "slot": "0",
        "type": "t_bool"
      },
      {
        "astId": 8778,
        "contract": "contracts/market/collateral/CollateralEscrow_V1.sol:CollateralEscrow_V1",
        "label": "__gap",
        "offset": 0,
        "slot": "1",
        "type": "t_array(t_uint256)50_storage"
      },
      {
        "astId": 5133,
        "contract": "contracts/market/collateral/CollateralEscrow_V1.sol:CollateralEscrow_V1",
        "label": "_owner",
        "offset": 0,
        "slot": "51",
        "type": "t_address"
      },
      {
        "astId": 5246,
        "contract": "contracts/market/collateral/CollateralEscrow_V1.sol:CollateralEscrow_V1",
        "label": "__gap",
        "offset": 0,
        "slot": "52",
        "type": "t_array(t_uint256)49_storage"
      },
      {
        "astId": 21644,
        "contract": "contracts/market/collateral/CollateralEscrow_V1.sol:CollateralEscrow_V1",
        "label": "_balances",
        "offset": 0,
        "slot": "101",
        "type": "t_mapping(t_uint256,t_uint256)"
      },
      {
        "astId": 21646,
        "contract": "contracts/market/collateral/CollateralEscrow_V1.sol:CollateralEscrow_V1",
        "label": "collateralToken",
        "offset": 0,
        "slot": "102",
        "type": "t_address"
      },
      {
        "astId": 21648,
        "contract": "contracts/market/collateral/CollateralEscrow_V1.sol:CollateralEscrow_V1",
        "label": "_isWrappedNativeToken",
        "offset": 20,
        "slot": "102",
        "type": "t_bool"
      }
    ],
    "types": {
      "t_address": {
        "encoding": "inplace",
        "label": "address",
        "numberOfBytes": "20"
      },
      "t_array(t_uint256)49_storage": {
        "base": "t_uint256",
        "encoding": "inplace",
        "label": "uint256[49]",
        "numberOfBytes": "1568"
      },
      "t_array(t_uint256)50_storage": {
        "base": "t_uint256",
        "encoding": "inplace",
        "label": "uint256[50]",
        "numberOfBytes": "1600"
      },
      "t_bool": {
        "encoding": "inplace",
        "label": "bool",
        "numberOfBytes": "1"
      },
      "t_mapping(t_uint256,t_uint256)": {
        "encoding": "mapping",
        "key": "t_uint256",
        "label": "mapping(uint256 => uint256)",
        "numberOfBytes": "32",
        "value": "t_uint256"
      },
      "t_uint256": {
        "encoding": "inplace",
        "label": "uint256",
        "numberOfBytes": "32"
      }
    }
  }
}