{
  "address": "0xDEbdbE732ECc714aF18F692DF02027fd647ad280",
  "abi": [
    {
      "inputs": [
        {
          "internalType": "address",
          "name": "wETHAddress",
          "type": "address"
        },
        {
          "internalType": "address",
          "name": "cETHAddress",
          "type": "address"
        }
      ],
      "stateMutability": "nonpayable",
      "type": "constructor"
    },
    {
      "inputs": [],
      "name": "cETH",
      "outputs": [
        {
          "internalType": "address",
          "name": "",
          "type": "address"
        }
      ],
      "stateMutability": "view",
      "type": "function"
    },
    {
      "inputs": [
        {
          "internalType": "address",
          "name": "saLPToken",
          "type": "address"
        },
        {
          "internalType": "address",
          "name": "account",
          "type": "address"
        }
      ],
      "name": "getBalanceOfUnderlying",
      "outputs": [
        {
          "internalType": "uint256",
          "name": "",
          "type": "uint256"
        }
      ],
      "stateMutability": "nonpayable",
      "type": "function"
    },
    {
      "inputs": [
        {
          "internalType": "address",
          "name": "saLPToken",
          "type": "address"
        }
      ],
      "name": "getRateFor",
      "outputs": [
        {
          "internalType": "uint256",
          "name": "",
          "type": "uint256"
        }
      ],
      "stateMutability": "view",
      "type": "function"
    },
    {
      "inputs": [
        {
          "internalType": "address",
          "name": "saLPToken",
          "type": "address"
        }
      ],
      "name": "getUnderlying",
      "outputs": [
        {
          "internalType": "address",
          "name": "",
          "type": "address"
        }
      ],
      "stateMutability": "view",
      "type": "function"
    },
    {
      "inputs": [
        {
          "internalType": "address",
          "name": "saLPToken",
          "type": "address"
        },
        {
          "internalType": "uint256",
          "name": "amount",
          "type": "uint256"
        }
      ],
      "name": "getValueOf",
      "outputs": [
        {
          "internalType": "uint256",
          "name": "",
          "type": "uint256"
        }
      ],
      "stateMutability": "view",
      "type": "function"
    },
    {
      "inputs": [],
      "name": "wETH",
      "outputs": [
        {
          "internalType": "address",
          "name": "",
          "type": "address"
        }
      ],
      "stateMutability": "view",
      "type": "function"
    }
  ],
  "artifactName": "CompoundPricer",
  "transactionHash": "0x06b89a484f635e08dd9befd4c41453a3e397afe06a3b7b92585530dacdbc03c8",
  "args": [
    "0xd0a1e359811322d97991e03f863a0c30c2cf029c",
    "0x41b5844f4680a8c38fbb695b7f9cfd1f64474a72"
  ],
  "solcInputHash": "2f48200b1837e05d9756a8e8b45c14c8",
  "bytecode": "0x60c060405234801561001057600080fd5b5060405161062538038061062583398101604081905261002f91610069565b6001600160601b0319606092831b8116608052911b1660a05261009b565b80516001600160a01b038116811461006457600080fd5b919050565b6000806040838503121561007b578182fd5b6100848361004d565b91506100926020840161004d565b90509250929050565b60805160601c60a05160601c6105526100d36000396000818160e301526101fa01526000818161010a015261023501526105526000f3fe608060405234801561001057600080fd5b50600436106100625760003560e01c806305a933221461006757806334fb20781461008d5780634e89a711146100a0578063727ae400146100cb578063a1b4d011146100de578063f242862114610105575b600080fd5b61007a6100753660046103cd565b61012c565b6040519081526020015b60405180910390f35b61007a61009b36600461043d565b6101c7565b6100b36100ae3660046103cd565b6101f6565b6040516001600160a01b039091168152602001610084565b61007a6100d9366004610405565b61034e565b6100b37f000000000000000000000000000000000000000000000000000000000000000081565b6100b37f000000000000000000000000000000000000000000000000000000000000000081565b6000670de0b6b3a76400006305f5e100836001600160a01b031663182df0f56040518163ffffffff1660e01b815260040160206040518083038186803b15801561017557600080fd5b505afa158015610189573d6000803e3d6000fd5b505050506040513d601f19601f820116820180604052508101906101ad9190610468565b6101b791906104d9565b6101c191906104b9565b92915050565b6000670de0b6b3a76400006101db8461012c565b6101e590846104d9565b6101ef91906104b9565b9392505050565b60007f00000000000000000000000000000000000000000000000000000000000000006001600160a01b0316826001600160a01b0316141561025957507f0000000000000000000000000000000000000000000000000000000000000000919050565b60408051600481526024810182526020810180516001600160e01b0316636f307dc360e01b179052905160009182916001600160a01b0386169161029c91610480565b600060405180830381855afa9150503d80600081146102d7576040519150601f19603f3d011682016040523d82523d6000602084013e6102dc565b606091505b5091509150816103325760405162461bcd60e51b815260206004820152601a60248201527f54656c6c65723a20756e737570706f727465642063546f6b656e000000000000604482015260640160405180910390fd5b8080602001905181019061034691906103e9565b949350505050565b604051633af9e66960e01b81526001600160a01b03828116600483015260009190841690633af9e66990602401602060405180830381600087803b15801561039557600080fd5b505af11580156103a9573d6000803e3d6000fd5b505050506040513d601f19601f820116820180604052508101906101ef9190610468565b6000602082840312156103de578081fd5b81356101ef81610504565b6000602082840312156103fa578081fd5b81516101ef81610504565b60008060408385031215610417578081fd5b823561042281610504565b9150602083013561043281610504565b809150509250929050565b6000806040838503121561044f578182fd5b823561045a81610504565b946020939093013593505050565b600060208284031215610479578081fd5b5051919050565b60008251815b818110156104a05760208186018101518583015201610486565b818111156104ae5782828501525b509190910192915050565b6000826104d457634e487b7160e01b81526012600452602481fd5b500490565b60008160001904831182151516156104ff57634e487b7160e01b81526011600452602481fd5b500290565b6001600160a01b038116811461051957600080fd5b5056fea2646970667358221220a3c756b036b05346c621f4a37c53b4f753ac846be0449120dcaee6041cf9463064736f6c63430008040033",
  "devdoc": {
    "kind": "dev",
    "methods": {
      "getBalanceOfUnderlying(address,address)": {
        "params": {
          "account": "Address of the account to get the balance of.",
          "saLPToken": "Address of the single asset liquidity provider token."
        },
        "returns": {
          "_0": "Balance of the underlying asset."
        }
      },
      "getRateFor(address)": {
        "params": {
          "saLPToken": "address of the single asset liquidity provider token."
        },
        "returns": {
          "_0": "Exchange rate for 1 saLP token in the underlying asset."
        }
      },
      "getUnderlying(address)": {
        "details": "cETH is the only Compound token that does not support the {underlying} function.",
        "params": {
          "saLPToken": "Address of the Compound token."
        },
        "returns": {
          "_0": "Address of the underlying saLPToken asset. Null address if token not supported."
        }
      },
      "getValueOf(address,uint256)": {
        "params": {
          "amount": "Amount of the token to convert into the underlying asset.",
          "saLPToken": "address of the single asset liquidity provider token"
        },
        "returns": {
          "_0": "Value of the saLP token in the underlying asset."
        }
      }
    },
    "version": 1
  },
  "userdoc": {
    "kind": "user",
    "methods": {
      "getBalanceOfUnderlying(address,address)": {
        "notice": "It calculates the balance of the underlying asset for {account}."
      },
      "getRateFor(address)": {
        "notice": "It returns the exchange rate of the single asset liquidity provider token."
      },
      "getUnderlying(address)": {
        "notice": "Gets the underlying asset address for the Compound token."
      },
      "getValueOf(address,uint256)": {
        "notice": "It calculates the value of the protocol token amount into the underlying asset."
      }
    },
    "version": 1
  },
  "storageLayout": {
    "storage": [],
    "types": null
  }
}