{
  "address": "0xb23914d098a049D2AC0cb4920d576F484EEe0c91",
  "abi": [
    {
      "inputs": [
        {
          "components": [
            {
              "components": [
                {
                  "internalType": "address payable",
                  "name": "borrower",
                  "type": "address"
                },
                {
                  "internalType": "address",
                  "name": "assetAddress",
                  "type": "address"
                },
                {
                  "internalType": "uint256",
                  "name": "amount",
                  "type": "uint256"
                },
                {
                  "internalType": "uint32",
                  "name": "requestNonce",
                  "type": "uint32"
                },
                {
                  "internalType": "uint32",
                  "name": "duration",
                  "type": "uint32"
                },
                {
                  "internalType": "uint32",
                  "name": "requestTime",
                  "type": "uint32"
                }
              ],
              "internalType": "struct LoanUserRequest",
              "name": "request",
              "type": "tuple"
            },
            {
              "components": [
                {
                  "internalType": "address",
                  "name": "signer",
                  "type": "address"
                },
                {
                  "internalType": "address",
                  "name": "assetAddress",
                  "type": "address"
                },
                {
                  "internalType": "uint256",
                  "name": "maxLoanAmount",
                  "type": "uint256"
                },
                {
                  "internalType": "uint32",
                  "name": "responseTime",
                  "type": "uint32"
                },
                {
                  "internalType": "uint16",
                  "name": "interestRate",
                  "type": "uint16"
                },
                {
                  "internalType": "uint16",
                  "name": "collateralRatio",
                  "type": "uint16"
                },
                {
                  "components": [
                    {
                      "internalType": "uint8",
                      "name": "v",
                      "type": "uint8"
                    },
                    {
                      "internalType": "bytes32",
                      "name": "r",
                      "type": "bytes32"
                    },
                    {
                      "internalType": "bytes32",
                      "name": "s",
                      "type": "bytes32"
                    }
                  ],
                  "internalType": "struct Signature",
                  "name": "signature",
                  "type": "tuple"
                }
              ],
              "internalType": "struct LoanConsensusResponse[]",
              "name": "responses",
              "type": "tuple[]"
            }
          ],
          "internalType": "struct LoanRequest",
          "name": "request",
          "type": "tuple"
        },
        {
          "internalType": "address",
          "name": "collateralToken",
          "type": "address"
        },
        {
          "internalType": "uint256",
          "name": "collateralAmount",
          "type": "uint256"
        }
      ],
      "name": "takeOutLoan",
      "outputs": [],
      "stateMutability": "payable",
      "type": "function"
    }
  ],
  "artifactName": "CreateLoanConsensusFacet",
  "transactionHash": "0x7a2a727d38739c782f0ef42aeb8c2e3e32841e18ab1c31e116d41b8fa0e76b65",
  "args": [],
  "solcInputHash": "dae98d0e01986e19d83194799e8c01d2",
  "bytecode": "0x608060405234801561001057600080fd5b506128ae806100206000396000f3fe60806040526004361061001e5760003560e01c8063ea40e51a14610023575b600080fd5b61003661003136600461251d565b610038565b005b600080805260016020527fa6eef7e35abe7026729641147f7915573c7e97b47efa546f5f6e3230263bcb49547f4638dd49816562b7bd690c45fb41f5a91a31307f754a373a0341dd7fb00ca9e1919060ff161580156100ab575060008281526001602052604090205460ff161515811515145b6100b482610582565b906100db5760405162461bcd60e51b81526004016100d2919061266e565b60405180910390fd5b5060008080527f7b305b6be5f275f648d05716597c483d754c2a242bd605feba3c64fb853605366020527f63eec20f0ae1af135811da961c707cd581594291a92cf7bcd78c1cf1aca4e4b0547f7b305b6be5f275f648d05716597c483d754c2a242bd605feba3c64fb853605349060ff16156101995760405162461bcd60e51b815260206004820152601860248201527f416363657373436f6e74726f6c3a207265656e7465726564000000000000000060448201526064016100d2565b60008281526002820160209081526040909120805460ff191660011790556101c39088018861240b565b6001600160a01b0316336001600160a01b0316146102235760405162461bcd60e51b815260206004820152601a60248201527f54656c6c65723a206e6f74206c6f616e2072657175657374657200000000000060448201526064016100d2565b6001600160a01b0386161580159061029257506102927f0553069f1f0518e59f8623c18c83a1f987f2a0544d563e98dd803a7078142a8f600061026c60408b0160208c0161240b565b6001600160a01b03166001600160a01b03168152602001908152602001600020876105eb565b6102ea5760405162461bcd60e51b8152602060048201526024808201527f54656c6c65723a20636f6c6c61746572616c20746f6b656e206e6f7420616c6c6044820152631bddd95960e21b60648201526084016100d2565b60008060006102f88a610610565b91945092509050600061033161031460408d0160208e0161240b565b838d600001608001602081019061032b9190612654565b87610abd565b6002810180546001600160a01b0319166001600160a01b038d1617905560048101805461ffff60d01b1916600160d01b61ffff8716021790559050881561038b57600481015461038b906001600160801b03168b8b610e96565b60048101546103a2906001600160801b0316611066565b60048281015460405163d17b71d760e01b81526001600160801b03909116918101919091526001600160a01b03919091169063d17b71d79060240160206040518083038186803b1580156103f557600080fd5b505afa158015610409573d6000803e3d6000fd5b505050506040513d601f19601f8201168201806040525081019061042d919061263c565b6004820154610444906001600160801b03166110d3565b11156104925760405162461bcd60e51b815260206004820181905260248201527f54656c6c65723a206d6f726520636f6c6c61746572616c20726571756972656460448201526064016100d2565b60048101546000906104ae90600160d01b900461ffff166110e6565b6104ce5760048201546104c9906001600160801b03166110f9565b6104da565b81546001600160a01b03165b600183015460038401549192506104fe916001600160a01b03909116908390611230565b600482018054600160e11b60ff60e01b198216179091556003830154604080519182526000602083015233926001600160801b0316917fd3d2f140ab34e898d34ecc0f8cb23c37effe528d7936fbc4ece4f5152c841d35910160405180910390a35050506000938452505060020160205260409020805460ff191690555050505050565b6060816105b7576040518060400160405280601081526020016f14185d5cd8589b194e881c185d5cd95960821b8152506105e5565b6040518060400160405280601481526020017314185d5cd8589b194e881b9bdd081c185d5cd95960621b8152505b92915050565b6001600160a01b038116600090815260018301602052604081205415155b9392505050565b60008080807f0553069f1f0518e59f8623c18c83a1f987f2a0544d563e98dd803a7078142a8e81610647604088016020890161240b565b6001600160a01b03166001600160a01b0316815260200190815260200160002090506106716112a2565b61069161068160c08801886126c1565b905061068c846112d3565b6112dd565b61ffff1610156106f15760405162461bcd60e51b815260206004820152602560248201527f54656c6c65723a20696e73756666696369656e74207369676e657220726573706044820152646f6e73657360d81b60648201526084016100d2565b61071c610701602087018761240b565b6107116080880160608901612654565b63ffffffff16611312565b46600061073761073136899003890189612579565b836114ad565b90506107416122db565b60005b61075160c08a018a6126c1565b9050811015610a7557600061076960c08b018b6126c1565b8381811061078757634e487b7160e01b600052603260045260246000fd5b9050610120020180360381019061079e9190612463565b90506107ae8682600001516105eb565b6107f35760405162461bcd60e51b81526020600482015260166024820152752a32b63632b91d1034b73b30b634b21039b4b3b732b960511b60448201526064016100d2565b61080360408b0160208c0161240b565b6001600160a01b031681602001516001600160a01b0316146108725760405162461bcd60e51b815260206004820152602260248201527f54656c6c65723a20636f6e73656e7375732061646472657373206d69736d61746044820152610c6d60f31b60648201526084016100d2565b61087a611541565b61088490426127d5565b816060015163ffffffff1610156108e85760405162461bcd60e51b815260206004820152602260248201527f54656c6c65723a20636f6e73656e73757320726573706f6e7365206578706972604482015261195960f21b60648201526084016100d2565b6109028160c001516108fb86848961156c565b8351611604565b6109595760405162461bcd60e51b815260206004820152602260248201527f54656c6c65723a20726573706f6e7365207369676e617475726520696e76616c6044820152611a5960f21b60648201526084016100d2565b60005b828160ff161015610a235761097460c08c018c6126c1565b8260ff1681811061099557634e487b7160e01b600052603260045260246000fd5b6109ac92602061012090920201908101915061240b565b6001600160a01b031682600001516001600160a01b03161415610a115760405162461bcd60e51b815260206004820152601b60248201527f54656c6c65723a20647570207369676e657220726573706f6e7365000000000060448201526064016100d2565b80610a1b81612807565b91505061095c565b5060808101518351610a389161ffff16611685565b60a08101516020840151610a4f9161ffff16611685565b60408082015190840151610a6291611685565b5080610a6d816127ec565b915050610744565b506000610a806116df565b9050610a9082600001518261170a565b9750610aa082602001518261170a565b9650610ab082604001518261170a565b9799969850505050505050565b60008263ffffffff16610ace611780565b1015610b275760405162461bcd60e51b815260206004820152602260248201527f54656c6c65723a206d6178206c6f616e206475726174696f6e20657863656564604482015261195960f21b60648201526084016100d2565b83610b75866001600160a01b031660009081526003602090815260408083207ff525bf48e9856fe8ffe40794a6793d36612641c2549eb536845518cf7ffcb992845260010190915290205490565b11610bd15760405162461bcd60e51b815260206004820152602660248201527f54656c6c65723a206173736574206d6178206c6f616e20616d6f756e7420657860448201526518d95959195960d21b60648201526084016100d2565b6001600160a01b03851660009081526003602090815260408083207f83b40eb469a0678431fc4a0b7aa01cfc7df278115c36fcd0c4f77e9811288328845260010190915290205461ffff16610c25866117ab565b6001600160a01b031663ecfd3519866040518263ffffffff1660e01b8152600401610c5291815260200190565b602060405180830381600087803b158015610c6c57600080fd5b505af1158015610c80573d6000803e3d6000fd5b505050506040513d601f19601f82011682018060405250810190610ca49190612620565b61ffff161115610d085760405162461bcd60e51b815260206004820152602960248201527f54656c6c65723a206d617820737570706c792d746f2d6465627420726174696f60448201526808195e18d95959195960ba1b60648201526084016100d2565b6000610d3a7f0553069f1f0518e59f8623c18c83a1f987f2a0544d563e98dd803a7078142a8580546001810190915590565b9050610d45816117ec565b6004810180548254336001600160a01b03199182161784556001840180549091166001600160a01b038b16179055600383018890556001600160801b03841679ffff0000000000000000ffffffffffffffffffffffffffffffff1990911617600160c01b61ffff8716021767ffffffffffffffff60801b1916600160a01b4263ffffffff9081169190910263ffffffff60801b191691909117600160801b91881691909102179055915084610df98261181c565b556003820154610e0a908290611853565b610e138261181c565b60019081019190915582546001600160a01b031660009081527f0553069f1f0518e59f8623c18c83a1f987f2a0544d563e98dd803a7078142a8c60209081526040822080548085018255908352912060028204018054919092166010026101000a6001600160801b03818102199092169390911602919091179055949350505050565b34610fbc576040516323b872dd60e01b8152336004820152306024820152604481018290526001600160a01b038316906323b872dd90606401602060405180830381600087803b158015610ee957600080fd5b505af1158015610efd573d6000803e3d6000fd5b505050506040513d601f19601f82011682018060405250810190610f219190612443565b50816001600160a01b031663095ea7b3610f3a85611066565b6040516001600160e01b031960e084901b1681526001600160a01b03909116600482015260248101849052604401602060405180830381600087803b158015610f8257600080fd5b505af1158015610f96573d6000803e3d6000fd5b505050506040513d601f19601f82011682018060405250810190610fba9190612443565b505b610fc583611066565b604051631c57762b60e31b815260048101859052602481018390526001600160a01b03919091169063e2bbb1589034906044016000604051808303818588803b15801561101157600080fd5b505af1158015611025573d6000803e3d6000fd5b50506040518481523393508692507feec2f3feb835e2f2fd44281034b04700a1ddda63dd402949d470a25a7c40b36c915060200160405180910390a3505050565b60009081527f0553069f1f0518e59f8623c18c83a1f987f2a0544d563e98dd803a7078142a8660209081526040808320600201546001600160a01b0390811684527f0553069f1f0518e59f8623c18c83a1f987f2a0544d563e98dd803a7078142a8b909252909120541690565b60006110de82611868565b509392505050565b60006110f061194c565b90911015919050565b600080600701546040516327662c6960e11b815260206004820152600060248201526001600160a01b0390911690634ecc58d290604401602060405180830381600087803b15801561114a57600080fd5b505af115801561115e573d6000803e3d6000fd5b505050506040513d601f19601f820116820180604052508101906111829190612427565b9050806001600160a01b031663e1c7392a6040518163ffffffff1660e01b8152600401600060405180830381600087803b1580156111bf57600080fd5b505af11580156111d3573d6000803e3d6000fd5b50505050806111ff7f0553069f1f0518e59f8623c18c83a1f987f2a0544d563e98dd803a7078142a8590565b6000938452600401602052604090922080546001600160a01b0319166001600160a01b039093169290921790915590565b611239836117ab565b60405163e920b1e160e01b81526001600160a01b03848116600483015260248201849052919091169063e920b1e190604401600060405180830381600087803b15801561128557600080fd5b505af1158015611299573d6000803e3d6000fd5b50505050505050565b60006112cd7f635fd0fa064efecc14856c8c6b212b01ecd6f28b1cf6de252dfe65cfd8b955fb611973565b54919050565b60006105e5825490565b6000811561130957611304826112f561271086612763565b6112ff9190612728565b61197b565b610609565b50600092915050565b6001600160a01b03821660009081527f0553069f1f0518e59f8623c18c83a1f987f2a0544d563e98dd803a7078142a8c60205260409020805482811461139a5760405162461bcd60e51b815260206004820152601960248201527f54656c6c65723a206261642072657175657374206e6f6e63650000000000000060448201526064016100d2565b806113a55750505050565b426113ae6119de565b7f0553069f1f0518e59f8623c18c83a1f987f2a0544d563e98dd803a7078142a866000856113dd6001876127d5565b815481106113fb57634e487b7160e01b600052603260045260246000fd5b6000918252602080832060028304015460019092166010026101000a9091046001600160801b0316835282019290925260400190206004015461144b9190600160a01b900463ffffffff16612710565b11156114a75760405162461bcd60e51b815260206004820152602560248201527f54656c6c65723a206c6f616e207465726d732072617465206c696d69742072656044820152641858da195960da1b60648201526084016100d2565b50505050565b81516020808401516040808601516060870151608088015160a0890151935160009761152397909695918a91016001600160a01b039788168152959096166020860152604085019390935263ffffffff91821660608501528116608084015290811660a08301529190911660c082015260e00190565b60405160208183030381529060405280519060200120905092915050565b60006112cd7f60a024eb6ab6fa3eab944dedcc1f5045a86494b3adcbce91e6ce8bd7a523988f611973565b60008260200151836040015185856060015186608001518760a00151876040516020016115e597969594939291906001600160a01b039790971687526020870195909552604086019390935263ffffffff918216606086015261ffff90811660808601529190911660a08401521660c082015260e00190565b6040516020818303038152906040528051906020012090509392505050565b6040517f19457468657265756d205369676e6564204d6573736167653a0a3332000000006020820152603c810183905260009061166890605c0160405160208183030381529060405280519060200120856000015186602001518760400151611a09565b6001600160a01b0316826001600160a01b03161490509392505050565b808260200151101561169957602082018190525b80826040015111806116aa57508151155b156116b757604082018190525b8082606001516116c79190612710565b606083015281516116d9906001612710565b90915250565b60006112cd7fd16340ba0b87a0ca7eb821e20443b879c404accea8ebf9aa3d98db60f43befdb611973565b60006117168383611a31565b6117775760405162461bcd60e51b815260206004820152602c60248201527f54656c6c65723a20636f6e73656e73757320726573706f6e73652076616c756560448201526b1cc81d1bdbc81d985c9a595960a21b60648201526084016100d2565b61060983611abe565b60006112cd7fee99212d4b9f607ce22114cd74d9a2d87dfd61b2fbf4d89855f88b3ba9b6c974611973565b6001600160a01b0390811660009081527f0553069f1f0518e59f8623c18c83a1f987f2a0544d563e98dd803a7078142a8d60205260409020541690565b5090565b60009081527f0553069f1f0518e59f8623c18c83a1f987f2a0544d563e98dd803a7078142a866020526040902090565b60007f0553069f1f0518e59f8623c18c83a1f987f2a0544d563e98dd803a7078142a855b6000928352600201602052506040902090565b600061060961186184611aeb565b8390611b6b565b600080600061187684611b88565b9093509050826118895760009150611945565b600c546001600160a01b031663c05b1ec36118a3866117ec565b600101546001600160a01b03166118b9876117ec565b6002015460405160e084901b6001600160e01b03191681526001600160a01b039283166004820152911660248201526044810186905260640160206040518083038186803b15801561190a57600080fd5b505afa15801561191e573d6000803e3d6000fd5b505050506040513d601f19601f82011682018060405250810190611942919061263c565b91505b9193909250565b60006112cd7f1f0b459949cf4594178576aeedabc987ab86509018ce5e016d2e728fe1f4f3475b600080611840565b600061ffff8211156117e85760405162461bcd60e51b815260206004820152602660248201527f53616665436173743a2076616c756520646f65736e27742066697420696e203160448201526536206269747360d01b60648201526084016100d2565b60006112cd7ffe080dd71ec39eb228621eda15e748315f8b911e094dfbbafeef9adb6d4cdf54611973565b6000806000611a1a87878787611d08565b91509150611a2781611df5565b5095945050505050565b6000611a3c83611ff9565b15611a49575060006105e5565b6000611a5484611abe565b90506000611a628285611b6b565b90506000611a7082846127d5565b90508086604001511015611a8a57600093505050506105e5565b6000611a968385612710565b90508087602001511115611ab15760009450505050506105e5565b5060019695505050505050565b6000611ac982611ff9565b611ae35781518260600151611ade9190612728565b6105e5565b600092915050565b600080611af7836117ec565b60040154600160c01b900461ffff161115611b66576301e13380611b1a836117ec565b60040154600160c01b900461ffff16611b32846117ec565b60040154611b4d9190600160801b900463ffffffff16612782565b611b57919061273c565b905061ffff8116611b66575060015b919050565b6000612710611b7e61ffff841685612763565b6106099190612728565b600080611b94836117ec565b60040154600160d01b900461ffff16611bb257506000928392509050565b6001611bbd846117ec565b600490810154600160e01b900460ff1690811115611beb57634e487b7160e01b600052602160045260246000fd5b1415611c2657611c1f611bfd846117ec565b60040154600160d01b900461ffff16611c15856117ec565b6003015490611b6b565b9150915091565b6002611c31846117ec565b600490810154600160e01b900460ff1690811115611c5f57634e487b7160e01b600052602160045260246000fd5b1415611d03576000611c6f61200a565b611c7885611aeb565b611c81866117ec565b60040154611c9a9190600160d01b900461ffff166127b2565b611ca491906127b2565b9050611caf8461181c565b60010154611cbc8561181c565b54611cc79190612710565b9250611cd284612035565b9150600082118015611ce357508183115b15611cf557611cf282846127d5565b92505b611cff8382611b6b565b9250505b915091565b6000807f7fffffffffffffffffffffffffffffff5d576e7357a4501ddfe92f46681b20a0831115611d3f5750600090506003611dec565b8460ff16601b14158015611d5757508460ff16601c14155b15611d685750600090506004611dec565b6040805160008082526020820180845289905260ff881692820192909252606081018690526080810185905260019060a0016020604051602081039080840390855afa158015611dbc573d6000803e3d6000fd5b5050604051601f1901519150506001600160a01b038116611de557600060019250925050611dec565b9150600090505b94509492505050565b6000816004811115611e1757634e487b7160e01b600052602160045260246000fd5b1415611e205750565b6001816004811115611e4257634e487b7160e01b600052602160045260246000fd5b1415611e905760405162461bcd60e51b815260206004820152601860248201527f45434453413a20696e76616c6964207369676e6174757265000000000000000060448201526064016100d2565b6002816004811115611eb257634e487b7160e01b600052602160045260246000fd5b1415611f005760405162461bcd60e51b815260206004820152601f60248201527f45434453413a20696e76616c6964207369676e6174757265206c656e6774680060448201526064016100d2565b6003816004811115611f2257634e487b7160e01b600052602160045260246000fd5b1415611f7b5760405162461bcd60e51b815260206004820152602260248201527f45434453413a20696e76616c6964207369676e6174757265202773272076616c604482015261756560f01b60648201526084016100d2565b6004816004811115611f9d57634e487b7160e01b600052602160045260246000fd5b1415611ff65760405162461bcd60e51b815260206004820152602260248201527f45434453413a20696e76616c6964207369676e6174757265202776272076616c604482015261756560f01b60648201526084016100d2565b50565b6000612003825190565b1592915050565b60006112cd7f30876f9fd2a6e11f15d1ba3c09dc28f8fb0930bf076960ca8796d199fd0b2ec3611973565b6000612040826121a0565b61204c57506000919050565b6000612057836117ec565b600101546001600160a01b0316905061207083826121bd565b61207a9083612710565b60008481527f0553069f1f0518e59f8623c18c83a1f987f2a0544d563e98dd803a7078142a8a602052604081209193506120b3826112d3565b11156121995760005b6120c5826112d3565b81101561219757600c546001600160a01b0316634d6f21a96120e687612262565b6120f0858561229c565b6040516001600160e01b031960e085901b1681526001600160a01b03928316600482015290821660248201529086166044820152606401602060405180830381600087803b15801561214157600080fd5b505af1158015612155573d6000803e3d6000fd5b505050506040513d601f19601f82011682018060405250810190612179919061263c565b6121839085612710565b93508061218f816127ec565b9150506120bc565b505b5050919050565b6000806121ac83612262565b6001600160a01b0316141592915050565b60006121c8836121a0565b6121d3576000610609565b816001600160a01b03166370a082316121eb85612262565b6040516001600160e01b031960e084901b1681526001600160a01b03909116600482015260240160206040518083038186803b15801561222a57600080fd5b505afa15801561223e573d6000803e3d6000fd5b505050506040513d601f19601f82011682018060405250810190610609919061263c565b60009081527f0553069f1f0518e59f8623c18c83a1f987f2a0544d563e98dd803a7078142a8960205260409020546001600160a01b031690565b6000610609838360008260000182815481106122c857634e487b7160e01b600052603260045260246000fd5b9060005260206000200154905092915050565b60405180606001604052806123116040518060800160405280600081526020016000815260200160008152602001600081525090565b81526020016123416040518060800160405280600081526020016000815260200160008152602001600081525090565b81526020016123716040518060800160405280600081526020016000815260200160008152602001600081525090565b905290565b600060608284031215612387578081fd5b6040516060810181811067ffffffffffffffff821117156123b657634e487b7160e01b83526041600452602483fd5b604052905080823560ff811681146123cd57600080fd5b8082525060208301356020820152604083013560408201525092915050565b8035611b6681612868565b803563ffffffff81168114611b6657600080fd5b60006020828403121561241c578081fd5b813561060981612853565b600060208284031215612438578081fd5b815161060981612853565b600060208284031215612454578081fd5b81518015158114610609578182fd5b60006101208284031215612475578081fd5b60405160e0810181811067ffffffffffffffff821117156124a457634e487b7160e01b83526041600452602483fd5b60405282356124b281612853565b815260208301356124c281612853565b6020820152604083810135908201526124dd606084016123f7565b60608201526124ee608084016123ec565b60808201526124ff60a084016123ec565b60a08201526125118460c08501612376565b60c08201529392505050565b600080600060608486031215612531578182fd5b833567ffffffffffffffff811115612547578283fd5b840160e08187031215612558578283fd5b9250602084013561256881612853565b929592945050506040919091013590565b600060c0828403121561258a578081fd5b60405160c0810181811067ffffffffffffffff821117156125b957634e487b7160e01b83526041600452602483fd5b60405282356125c781612853565b815260208301356125d781612853565b6020820152604083810135908201526125f2606084016123f7565b6060820152612603608084016123f7565b608082015261261460a084016123f7565b60a08201529392505050565b600060208284031215612631578081fd5b815161060981612868565b60006020828403121561264d578081fd5b5051919050565b600060208284031215612665578081fd5b610609826123f7565b6000602080835283518082850152825b8181101561269a5785810183015185820160400152820161267e565b818111156126ab5783604083870101525b50601f01601f1916929092016040019392505050565b6000808335601e198436030181126126d7578283fd5b83018035915067ffffffffffffffff8211156126f1578283fd5b60200191506101208102360382131561270957600080fd5b9250929050565b6000821982111561272357612723612827565b500190565b6000826127375761273761283d565b500490565b600067ffffffffffffffff808416806127575761275761283d565b92169190910492915050565b600081600019048311821515161561277d5761277d612827565b500290565b600067ffffffffffffffff808316818516818304811182151516156127a9576127a9612827565b02949350505050565b600061ffff838116908316818110156127cd576127cd612827565b039392505050565b6000828210156127e7576127e7612827565b500390565b600060001982141561280057612800612827565b5060010190565b600060ff821660ff81141561281e5761281e612827565b60010192915050565b634e487b7160e01b600052601160045260246000fd5b634e487b7160e01b600052601260045260246000fd5b6001600160a01b0381168114611ff657600080fd5b61ffff81168114611ff657600080fdfea2646970667358221220dc1ea748bf7652959bfa3eeec8df65b52e23ca6ba128ed87e0ccde178c23c0bc64736f6c63430008040033",
  "history": [
    {
      "address": "0xA32453B455251200B8C837E8c642b3Fd0e5B6A4b",
      "abi": [
        {
          "inputs": [
            {
              "components": [
                {
                  "components": [
                    {
                      "internalType": "address payable",
                      "name": "borrower",
                      "type": "address"
                    },
                    {
                      "internalType": "address",
                      "name": "assetAddress",
                      "type": "address"
                    },
                    {
                      "internalType": "uint256",
                      "name": "amount",
                      "type": "uint256"
                    },
                    {
                      "internalType": "uint32",
                      "name": "requestNonce",
                      "type": "uint32"
                    },
                    {
                      "internalType": "uint32",
                      "name": "duration",
                      "type": "uint32"
                    },
                    {
                      "internalType": "uint32",
                      "name": "requestTime",
                      "type": "uint32"
                    }
                  ],
                  "internalType": "struct LoanUserRequest",
                  "name": "request",
                  "type": "tuple"
                },
                {
                  "components": [
                    {
                      "internalType": "address",
                      "name": "signer",
                      "type": "address"
                    },
                    {
                      "internalType": "address",
                      "name": "assetAddress",
                      "type": "address"
                    },
                    {
                      "internalType": "uint256",
                      "name": "maxLoanAmount",
                      "type": "uint256"
                    },
                    {
                      "internalType": "uint32",
                      "name": "responseTime",
                      "type": "uint32"
                    },
                    {
                      "internalType": "uint16",
                      "name": "interestRate",
                      "type": "uint16"
                    },
                    {
                      "internalType": "uint16",
                      "name": "collateralRatio",
                      "type": "uint16"
                    },
                    {
                      "components": [
                        {
                          "internalType": "uint8",
                          "name": "v",
                          "type": "uint8"
                        },
                        {
                          "internalType": "bytes32",
                          "name": "r",
                          "type": "bytes32"
                        },
                        {
                          "internalType": "bytes32",
                          "name": "s",
                          "type": "bytes32"
                        }
                      ],
                      "internalType": "struct Signature",
                      "name": "signature",
                      "type": "tuple"
                    }
                  ],
                  "internalType": "struct LoanConsensusResponse[]",
                  "name": "responses",
                  "type": "tuple[]"
                }
              ],
              "internalType": "struct LoanRequest",
              "name": "request",
              "type": "tuple"
            },
            {
              "internalType": "address",
              "name": "collateralToken",
              "type": "address"
            },
            {
              "internalType": "uint256",
              "name": "collateralAmount",
              "type": "uint256"
            }
          ],
          "name": "takeOutLoan",
          "outputs": [],
          "stateMutability": "payable",
          "type": "function"
        }
      ],
      "artifactName": "CreateLoanConsensusFacet",
      "transactionHash": "0x6a43e66b1868ab86d9306ae379e6883e1885da1cbb95644ad184a5e4b8bb0158",
      "receipt": {
        "to": null,
        "from": "0xAFe87013dc96edE1E116a288D80FcaA0eFFE5fe5",
        "contractAddress": "0xA32453B455251200B8C837E8c642b3Fd0e5B6A4b",
        "transactionIndex": 2,
        "gasUsed": "2337322",
        "logsBloom": "0x00000000000000000000000000000000000000000000000000000000000000000000000000000000000000000000000000000000000000000000000000000000000000000000000000000000000000000000000000000000000000000000000000000000000000000000000000000000000000000000000000000000000000000000000000000000000000000000000000000000000000000000000000000000000000000000000000000000000000000000000000000000000000000000000000000000000000000000000000000000000000000000000000000000000000000000000000000000000000000000000000000000000000000000000000000000",
        "blockHash": "0x39da2a007bc64f56137fbe684719f5e30ed10e597c88673c001e5f580be615f3",
        "transactionHash": "0x6a43e66b1868ab86d9306ae379e6883e1885da1cbb95644ad184a5e4b8bb0158",
        "logs": [],
        "blockNumber": 27415608,
        "cumulativeGasUsed": "3270701",
        "status": 1,
        "byzantium": true
      },
      "args": [],
      "solcInputHash": "665d1dd8dfb11b9a9b0d587270f130b8",
      "metadata": "{\"compiler\":{\"version\":\"0.8.4+commit.c7e474f2\"},\"language\":\"Solidity\",\"output\":{\"abi\":[{\"inputs\":[{\"components\":[{\"components\":[{\"internalType\":\"address payable\",\"name\":\"borrower\",\"type\":\"address\"},{\"internalType\":\"address\",\"name\":\"assetAddress\",\"type\":\"address\"},{\"internalType\":\"uint256\",\"name\":\"amount\",\"type\":\"uint256\"},{\"internalType\":\"uint32\",\"name\":\"requestNonce\",\"type\":\"uint32\"},{\"internalType\":\"uint32\",\"name\":\"duration\",\"type\":\"uint32\"},{\"internalType\":\"uint32\",\"name\":\"requestTime\",\"type\":\"uint32\"}],\"internalType\":\"struct LoanUserRequest\",\"name\":\"request\",\"type\":\"tuple\"},{\"components\":[{\"internalType\":\"address\",\"name\":\"signer\",\"type\":\"address\"},{\"internalType\":\"address\",\"name\":\"assetAddress\",\"type\":\"address\"},{\"internalType\":\"uint256\",\"name\":\"maxLoanAmount\",\"type\":\"uint256\"},{\"internalType\":\"uint32\",\"name\":\"responseTime\",\"type\":\"uint32\"},{\"internalType\":\"uint16\",\"name\":\"interestRate\",\"type\":\"uint16\"},{\"internalType\":\"uint16\",\"name\":\"collateralRatio\",\"type\":\"uint16\"},{\"components\":[{\"internalType\":\"uint8\",\"name\":\"v\",\"type\":\"uint8\"},{\"internalType\":\"bytes32\",\"name\":\"r\",\"type\":\"bytes32\"},{\"internalType\":\"bytes32\",\"name\":\"s\",\"type\":\"bytes32\"}],\"internalType\":\"struct Signature\",\"name\":\"signature\",\"type\":\"tuple\"}],\"internalType\":\"struct LoanConsensusResponse[]\",\"name\":\"responses\",\"type\":\"tuple[]\"}],\"internalType\":\"struct LoanRequest\",\"name\":\"request\",\"type\":\"tuple\"},{\"internalType\":\"address\",\"name\":\"collateralToken\",\"type\":\"address\"},{\"internalType\":\"uint256\",\"name\":\"collateralAmount\",\"type\":\"uint256\"}],\"name\":\"takeOutLoan\",\"outputs\":[],\"stateMutability\":\"payable\",\"type\":\"function\"}],\"devdoc\":{\"kind\":\"dev\",\"methods\":{\"takeOutLoan(((address,address,uint256,uint32,uint32,uint32),(address,address,uint256,uint32,uint16,uint16,(uint8,bytes32,bytes32))[]),address,uint256)\":{\"details\":\"collateral ratio is a percentage of the loan amount that's required in collateralthe percentage will be *(10**2). I.e. collateralRatio of 5244 means 52.44% collateralis required in the loan. Interest rate is also a percentage with 2 decimal points.\",\"params\":{\"collateralAmount\":\"Amount of collateral required for the loan\",\"collateralToken\":\"Token address to use as collateral for the new loan\",\"request\":\"Struct of the protocol loan request\"}}},\"version\":1},\"userdoc\":{\"kind\":\"user\",\"methods\":{\"takeOutLoan(((address,address,uint256,uint32,uint32,uint32),(address,address,uint256,uint32,uint16,uint16,(uint8,bytes32,bytes32))[]),address,uint256)\":{\"notice\":\"Take out a loan\"}},\"version\":1}},\"settings\":{\"compilationTarget\":{\"contracts/market/CreateLoanConsensusFacet.sol\":\"CreateLoanConsensusFacet\"},\"evmVersion\":\"istanbul\",\"libraries\":{},\"metadata\":{\"bytecodeHash\":\"ipfs\",\"useLiteralContent\":true},\"optimizer\":{\"enabled\":true,\"runs\":200},\"remappings\":[]},\"sources\":{\"@chainlink/contracts/src/v0.8/interfaces/AggregatorInterface.sol\":{\"content\":\"// SPDX-License-Identifier: MIT\\npragma solidity ^0.8.0;\\n\\ninterface AggregatorInterface {\\n  function latestAnswer()\\n    external\\n    view\\n    returns (\\n      int256\\n    );\\n  \\n  function latestTimestamp()\\n    external\\n    view\\n    returns (\\n      uint256\\n    );\\n\\n  function latestRound()\\n    external\\n    view\\n    returns (\\n      uint256\\n    );\\n\\n  function getAnswer(\\n    uint256 roundId\\n  )\\n    external\\n    view\\n    returns (\\n      int256\\n    );\\n\\n  function getTimestamp(\\n    uint256 roundId\\n  )\\n    external\\n    view\\n    returns (\\n      uint256\\n    );\\n\\n  event AnswerUpdated(\\n    int256 indexed current,\\n    uint256 indexed roundId,\\n    uint256 updatedAt\\n  );\\n\\n  event NewRound(\\n    uint256 indexed roundId,\\n    address indexed startedBy,\\n    uint256 startedAt\\n  );\\n}\\n\",\"keccak256\":\"0x1a5dc81544a6479f64437a8aca22c869769dd54ee3522c7ef5ebae0d329a28f0\",\"license\":\"MIT\"},\"@chainlink/contracts/src/v0.8/interfaces/AggregatorV2V3Interface.sol\":{\"content\":\"// SPDX-License-Identifier: MIT\\npragma solidity ^0.8.0;\\n\\nimport \\\"./AggregatorInterface.sol\\\";\\nimport \\\"./AggregatorV3Interface.sol\\\";\\n\\ninterface AggregatorV2V3Interface is AggregatorInterface, AggregatorV3Interface\\n{\\n}\\n\",\"keccak256\":\"0xe8f8d98b515366730824d24269c7267eee7f0288cf737db8659acbb0c751eb53\",\"license\":\"MIT\"},\"@chainlink/contracts/src/v0.8/interfaces/AggregatorV3Interface.sol\":{\"content\":\"// SPDX-License-Identifier: MIT\\npragma solidity ^0.8.0;\\n\\ninterface AggregatorV3Interface {\\n\\n  function decimals()\\n    external\\n    view\\n    returns (\\n      uint8\\n    );\\n\\n  function description()\\n    external\\n    view\\n    returns (\\n      string memory\\n    );\\n\\n  function version()\\n    external\\n    view\\n    returns (\\n      uint256\\n    );\\n\\n  // getRoundData and latestRoundData should both raise \\\"No data present\\\"\\n  // if they do not have data to report, instead of returning unset values\\n  // which could be misinterpreted as actual reported values.\\n  function getRoundData(\\n    uint80 _roundId\\n  )\\n    external\\n    view\\n    returns (\\n      uint80 roundId,\\n      int256 answer,\\n      uint256 startedAt,\\n      uint256 updatedAt,\\n      uint80 answeredInRound\\n    );\\n\\n  function latestRoundData()\\n    external\\n    view\\n    returns (\\n      uint80 roundId,\\n      int256 answer,\\n      uint256 startedAt,\\n      uint256 updatedAt,\\n      uint80 answeredInRound\\n    );\\n\\n}\\n\",\"keccak256\":\"0xe6f5ac8c47f3b9b6135051efb9216f9ba5b312a6ecc20209b4f66a780443c328\",\"license\":\"MIT\"},\"@ensdomains/buffer/contracts/Buffer.sol\":{\"content\":\"pragma solidity ^0.8.4;\\n\\n/**\\n* @dev A library for working with mutable byte buffers in Solidity.\\n*\\n* Byte buffers are mutable and expandable, and provide a variety of primitives\\n* for writing to them. At any time you can fetch a bytes object containing the\\n* current contents of the buffer. The bytes object should not be stored between\\n* operations, as it may change due to resizing of the buffer.\\n*/\\nlibrary Buffer {\\n    /**\\n    * @dev Represents a mutable buffer. Buffers have a current value (buf) and\\n    *      a capacity. The capacity may be longer than the current value, in\\n    *      which case it can be extended without the need to allocate more memory.\\n    */\\n    struct buffer {\\n        bytes buf;\\n        uint capacity;\\n    }\\n\\n    /**\\n    * @dev Initializes a buffer with an initial capacity.\\n    * @param buf The buffer to initialize.\\n    * @param capacity The number of bytes of space to allocate the buffer.\\n    * @return The buffer, for chaining.\\n    */\\n    function init(buffer memory buf, uint capacity) internal pure returns(buffer memory) {\\n        if (capacity % 32 != 0) {\\n            capacity += 32 - (capacity % 32);\\n        }\\n        // Allocate space for the buffer data\\n        buf.capacity = capacity;\\n        assembly {\\n            let ptr := mload(0x40)\\n            mstore(buf, ptr)\\n            mstore(ptr, 0)\\n            mstore(0x40, add(32, add(ptr, capacity)))\\n        }\\n        return buf;\\n    }\\n\\n    /**\\n    * @dev Initializes a new buffer from an existing bytes object.\\n    *      Changes to the buffer may mutate the original value.\\n    * @param b The bytes object to initialize the buffer with.\\n    * @return A new buffer.\\n    */\\n    function fromBytes(bytes memory b) internal pure returns(buffer memory) {\\n        buffer memory buf;\\n        buf.buf = b;\\n        buf.capacity = b.length;\\n        return buf;\\n    }\\n\\n    function resize(buffer memory buf, uint capacity) private pure {\\n        bytes memory oldbuf = buf.buf;\\n        init(buf, capacity);\\n        append(buf, oldbuf);\\n    }\\n\\n    function max(uint a, uint b) private pure returns(uint) {\\n        if (a > b) {\\n            return a;\\n        }\\n        return b;\\n    }\\n\\n    /**\\n    * @dev Sets buffer length to 0.\\n    * @param buf The buffer to truncate.\\n    * @return The original buffer, for chaining..\\n    */\\n    function truncate(buffer memory buf) internal pure returns (buffer memory) {\\n        assembly {\\n            let bufptr := mload(buf)\\n            mstore(bufptr, 0)\\n        }\\n        return buf;\\n    }\\n\\n    /**\\n    * @dev Writes a byte string to a buffer. Resizes if doing so would exceed\\n    *      the capacity of the buffer.\\n    * @param buf The buffer to append to.\\n    * @param off The start offset to write to.\\n    * @param data The data to append.\\n    * @param len The number of bytes to copy.\\n    * @return The original buffer, for chaining.\\n    */\\n    function write(buffer memory buf, uint off, bytes memory data, uint len) internal pure returns(buffer memory) {\\n        require(len <= data.length);\\n\\n        if (off + len > buf.capacity) {\\n            resize(buf, max(buf.capacity, len + off) * 2);\\n        }\\n\\n        uint dest;\\n        uint src;\\n        assembly {\\n            // Memory address of the buffer data\\n            let bufptr := mload(buf)\\n            // Length of existing buffer data\\n            let buflen := mload(bufptr)\\n            // Start address = buffer address + offset + sizeof(buffer length)\\n            dest := add(add(bufptr, 32), off)\\n            // Update buffer length if we're extending it\\n            if gt(add(len, off), buflen) {\\n                mstore(bufptr, add(len, off))\\n            }\\n            src := add(data, 32)\\n        }\\n\\n        // Copy word-length chunks while possible\\n        for (; len >= 32; len -= 32) {\\n            assembly {\\n                mstore(dest, mload(src))\\n            }\\n            dest += 32;\\n            src += 32;\\n        }\\n\\n        // Copy remaining bytes\\n        unchecked {\\n            uint mask = (256 ** (32 - len)) - 1;\\n            assembly {\\n                let srcpart := and(mload(src), not(mask))\\n                let destpart := and(mload(dest), mask)\\n                mstore(dest, or(destpart, srcpart))\\n            }\\n        }\\n\\n        return buf;\\n    }\\n\\n    /**\\n    * @dev Appends a byte string to a buffer. Resizes if doing so would exceed\\n    *      the capacity of the buffer.\\n    * @param buf The buffer to append to.\\n    * @param data The data to append.\\n    * @param len The number of bytes to copy.\\n    * @return The original buffer, for chaining.\\n    */\\n    function append(buffer memory buf, bytes memory data, uint len) internal pure returns (buffer memory) {\\n        return write(buf, buf.buf.length, data, len);\\n    }\\n\\n    /**\\n    * @dev Appends a byte string to a buffer. Resizes if doing so would exceed\\n    *      the capacity of the buffer.\\n    * @param buf The buffer to append to.\\n    * @param data The data to append.\\n    * @return The original buffer, for chaining.\\n    */\\n    function append(buffer memory buf, bytes memory data) internal pure returns (buffer memory) {\\n        return write(buf, buf.buf.length, data, data.length);\\n    }\\n\\n    /**\\n    * @dev Writes a byte to the buffer. Resizes if doing so would exceed the\\n    *      capacity of the buffer.\\n    * @param buf The buffer to append to.\\n    * @param off The offset to write the byte at.\\n    * @param data The data to append.\\n    * @return The original buffer, for chaining.\\n    */\\n    function writeUint8(buffer memory buf, uint off, uint8 data) internal pure returns(buffer memory) {\\n        if (off >= buf.capacity) {\\n            resize(buf, buf.capacity * 2);\\n        }\\n\\n        assembly {\\n            // Memory address of the buffer data\\n            let bufptr := mload(buf)\\n            // Length of existing buffer data\\n            let buflen := mload(bufptr)\\n            // Address = buffer address + sizeof(buffer length) + off\\n            let dest := add(add(bufptr, off), 32)\\n            mstore8(dest, data)\\n            // Update buffer length if we extended it\\n            if eq(off, buflen) {\\n                mstore(bufptr, add(buflen, 1))\\n            }\\n        }\\n        return buf;\\n    }\\n\\n    /**\\n    * @dev Appends a byte to the buffer. Resizes if doing so would exceed the\\n    *      capacity of the buffer.\\n    * @param buf The buffer to append to.\\n    * @param data The data to append.\\n    * @return The original buffer, for chaining.\\n    */\\n    function appendUint8(buffer memory buf, uint8 data) internal pure returns(buffer memory) {\\n        return writeUint8(buf, buf.buf.length, data);\\n    }\\n\\n    /**\\n    * @dev Writes up to 32 bytes to the buffer. Resizes if doing so would\\n    *      exceed the capacity of the buffer.\\n    * @param buf The buffer to append to.\\n    * @param off The offset to write at.\\n    * @param data The data to append.\\n    * @param len The number of bytes to write (left-aligned).\\n    * @return The original buffer, for chaining.\\n    */\\n    function write(buffer memory buf, uint off, bytes32 data, uint len) private pure returns(buffer memory) {\\n        if (len + off > buf.capacity) {\\n            resize(buf, (len + off) * 2);\\n        }\\n\\n        unchecked {\\n            uint mask = (256 ** len) - 1;\\n            // Right-align data\\n            data = data >> (8 * (32 - len));\\n            assembly {\\n                // Memory address of the buffer data\\n                let bufptr := mload(buf)\\n                // Address = buffer address + sizeof(buffer length) + off + len\\n                let dest := add(add(bufptr, off), len)\\n                mstore(dest, or(and(mload(dest), not(mask)), data))\\n                // Update buffer length if we extended it\\n                if gt(add(off, len), mload(bufptr)) {\\n                    mstore(bufptr, add(off, len))\\n                }\\n            }\\n        }\\n        return buf;\\n    }\\n\\n    /**\\n    * @dev Writes a bytes20 to the buffer. Resizes if doing so would exceed the\\n    *      capacity of the buffer.\\n    * @param buf The buffer to append to.\\n    * @param off The offset to write at.\\n    * @param data The data to append.\\n    * @return The original buffer, for chaining.\\n    */\\n    function writeBytes20(buffer memory buf, uint off, bytes20 data) internal pure returns (buffer memory) {\\n        return write(buf, off, bytes32(data), 20);\\n    }\\n\\n    /**\\n    * @dev Appends a bytes20 to the buffer. Resizes if doing so would exceed\\n    *      the capacity of the buffer.\\n    * @param buf The buffer to append to.\\n    * @param data The data to append.\\n    * @return The original buffer, for chhaining.\\n    */\\n    function appendBytes20(buffer memory buf, bytes20 data) internal pure returns (buffer memory) {\\n        return write(buf, buf.buf.length, bytes32(data), 20);\\n    }\\n\\n    /**\\n    * @dev Appends a bytes32 to the buffer. Resizes if doing so would exceed\\n    *      the capacity of the buffer.\\n    * @param buf The buffer to append to.\\n    * @param data The data to append.\\n    * @return The original buffer, for chaining.\\n    */\\n    function appendBytes32(buffer memory buf, bytes32 data) internal pure returns (buffer memory) {\\n        return write(buf, buf.buf.length, data, 32);\\n    }\\n\\n    /**\\n    * @dev Writes an integer to the buffer. Resizes if doing so would exceed\\n    *      the capacity of the buffer.\\n    * @param buf The buffer to append to.\\n    * @param off The offset to write at.\\n    * @param data The data to append.\\n    * @param len The number of bytes to write (right-aligned).\\n    * @return The original buffer, for chaining.\\n    */\\n    function writeInt(buffer memory buf, uint off, uint data, uint len) private pure returns(buffer memory) {\\n        if (len + off > buf.capacity) {\\n            resize(buf, (len + off) * 2);\\n        }\\n\\n        uint mask = (256 ** len) - 1;\\n        assembly {\\n            // Memory address of the buffer data\\n            let bufptr := mload(buf)\\n            // Address = buffer address + off + sizeof(buffer length) + len\\n            let dest := add(add(bufptr, off), len)\\n            mstore(dest, or(and(mload(dest), not(mask)), data))\\n            // Update buffer length if we extended it\\n            if gt(add(off, len), mload(bufptr)) {\\n                mstore(bufptr, add(off, len))\\n            }\\n        }\\n        return buf;\\n    }\\n\\n    /**\\n     * @dev Appends a byte to the end of the buffer. Resizes if doing so would\\n     * exceed the capacity of the buffer.\\n     * @param buf The buffer to append to.\\n     * @param data The data to append.\\n     * @return The original buffer.\\n     */\\n    function appendInt(buffer memory buf, uint data, uint len) internal pure returns(buffer memory) {\\n        return writeInt(buf, buf.buf.length, data, len);\\n    }\\n}\\n\",\"keccak256\":\"0x18e42be1a3e4f7b4442d7ab0b524af5e09163503439954faf0ab3792cce91caa\"},\"@ensdomains/ens-contracts/contracts/dnssec-oracle/BytesUtils.sol\":{\"content\":\"pragma solidity ^0.8.4;\\n\\nlibrary BytesUtils {\\n    /*\\n    * @dev Returns the keccak-256 hash of a byte range.\\n    * @param self The byte string to hash.\\n    * @param offset The position to start hashing at.\\n    * @param len The number of bytes to hash.\\n    * @return The hash of the byte range.\\n    */\\n    function keccak(bytes memory self, uint offset, uint len) internal pure returns (bytes32 ret) {\\n        require(offset + len <= self.length);\\n        assembly {\\n            ret := keccak256(add(add(self, 32), offset), len)\\n        }\\n    }\\n\\n\\n    /*\\n    * @dev Returns a positive number if `other` comes lexicographically after\\n    *      `self`, a negative number if it comes before, or zero if the\\n    *      contents of the two bytes are equal.\\n    * @param self The first bytes to compare.\\n    * @param other The second bytes to compare.\\n    * @return The result of the comparison.\\n    */\\n    function compare(bytes memory self, bytes memory other) internal pure returns (int) {\\n        return compare(self, 0, self.length, other, 0, other.length);\\n    }\\n\\n    /*\\n    * @dev Returns a positive number if `other` comes lexicographically after\\n    *      `self`, a negative number if it comes before, or zero if the\\n    *      contents of the two bytes are equal. Comparison is done per-rune,\\n    *      on unicode codepoints.\\n    * @param self The first bytes to compare.\\n    * @param offset The offset of self.\\n    * @param len    The length of self.\\n    * @param other The second bytes to compare.\\n    * @param otheroffset The offset of the other string.\\n    * @param otherlen    The length of the other string.\\n    * @return The result of the comparison.\\n    */\\n    function compare(bytes memory self, uint offset, uint len, bytes memory other, uint otheroffset, uint otherlen) internal pure returns (int) {\\n        uint shortest = len;\\n        if (otherlen < len)\\n        shortest = otherlen;\\n\\n        uint selfptr;\\n        uint otherptr;\\n\\n        assembly {\\n            selfptr := add(self, add(offset, 32))\\n            otherptr := add(other, add(otheroffset, 32))\\n        }\\n        for (uint idx = 0; idx < shortest; idx += 32) {\\n            uint a;\\n            uint b;\\n            assembly {\\n                a := mload(selfptr)\\n                b := mload(otherptr)\\n            }\\n            if (a != b) {\\n                // Mask out irrelevant bytes and check again\\n                uint mask;\\n                if (shortest > 32) {\\n                    mask = type(uint256).max;\\n                } else {\\n                    mask = ~(2 ** (8 * (32 - shortest + idx)) - 1);\\n                }\\n                int diff = int(a & mask) - int(b & mask);\\n                if (diff != 0)\\n                return diff;\\n            }\\n            selfptr += 32;\\n            otherptr += 32;\\n        }\\n\\n        return int(len) - int(otherlen);\\n    }\\n\\n    /*\\n    * @dev Returns true if the two byte ranges are equal.\\n    * @param self The first byte range to compare.\\n    * @param offset The offset into the first byte range.\\n    * @param other The second byte range to compare.\\n    * @param otherOffset The offset into the second byte range.\\n    * @param len The number of bytes to compare\\n    * @return True if the byte ranges are equal, false otherwise.\\n    */\\n    function equals(bytes memory self, uint offset, bytes memory other, uint otherOffset, uint len) internal pure returns (bool) {\\n        return keccak(self, offset, len) == keccak(other, otherOffset, len);\\n    }\\n\\n    /*\\n    * @dev Returns true if the two byte ranges are equal with offsets.\\n    * @param self The first byte range to compare.\\n    * @param offset The offset into the first byte range.\\n    * @param other The second byte range to compare.\\n    * @param otherOffset The offset into the second byte range.\\n    * @return True if the byte ranges are equal, false otherwise.\\n    */\\n    function equals(bytes memory self, uint offset, bytes memory other, uint otherOffset) internal pure returns (bool) {\\n        return keccak(self, offset, self.length - offset) == keccak(other, otherOffset, other.length - otherOffset);\\n    }\\n\\n    /*\\n    * @dev Compares a range of 'self' to all of 'other' and returns True iff\\n    *      they are equal.\\n    * @param self The first byte range to compare.\\n    * @param offset The offset into the first byte range.\\n    * @param other The second byte range to compare.\\n    * @return True if the byte ranges are equal, false otherwise.\\n    */\\n    function equals(bytes memory self, uint offset, bytes memory other) internal pure returns (bool) {\\n        return self.length >= offset + other.length && equals(self, offset, other, 0, other.length);\\n    }\\n\\n    /*\\n    * @dev Returns true if the two byte ranges are equal.\\n    * @param self The first byte range to compare.\\n    * @param other The second byte range to compare.\\n    * @return True if the byte ranges are equal, false otherwise.\\n    */\\n    function equals(bytes memory self, bytes memory other) internal pure returns(bool) {\\n        return self.length == other.length && equals(self, 0, other, 0, self.length);\\n    }\\n\\n    /*\\n    * @dev Returns the 8-bit number at the specified index of self.\\n    * @param self The byte string.\\n    * @param idx The index into the bytes\\n    * @return The specified 8 bits of the string, interpreted as an integer.\\n    */\\n    function readUint8(bytes memory self, uint idx) internal pure returns (uint8 ret) {\\n        return uint8(self[idx]);\\n    }\\n\\n    /*\\n    * @dev Returns the 16-bit number at the specified index of self.\\n    * @param self The byte string.\\n    * @param idx The index into the bytes\\n    * @return The specified 16 bits of the string, interpreted as an integer.\\n    */\\n    function readUint16(bytes memory self, uint idx) internal pure returns (uint16 ret) {\\n        require(idx + 2 <= self.length);\\n        assembly {\\n            ret := and(mload(add(add(self, 2), idx)), 0xFFFF)\\n        }\\n    }\\n\\n    /*\\n    * @dev Returns the 32-bit number at the specified index of self.\\n    * @param self The byte string.\\n    * @param idx The index into the bytes\\n    * @return The specified 32 bits of the string, interpreted as an integer.\\n    */\\n    function readUint32(bytes memory self, uint idx) internal pure returns (uint32 ret) {\\n        require(idx + 4 <= self.length);\\n        assembly {\\n            ret := and(mload(add(add(self, 4), idx)), 0xFFFFFFFF)\\n        }\\n    }\\n\\n    /*\\n    * @dev Returns the 32 byte value at the specified index of self.\\n    * @param self The byte string.\\n    * @param idx The index into the bytes\\n    * @return The specified 32 bytes of the string.\\n    */\\n    function readBytes32(bytes memory self, uint idx) internal pure returns (bytes32 ret) {\\n        require(idx + 32 <= self.length);\\n        assembly {\\n            ret := mload(add(add(self, 32), idx))\\n        }\\n    }\\n\\n    /*\\n    * @dev Returns the 32 byte value at the specified index of self.\\n    * @param self The byte string.\\n    * @param idx The index into the bytes\\n    * @return The specified 32 bytes of the string.\\n    */\\n    function readBytes20(bytes memory self, uint idx) internal pure returns (bytes20 ret) {\\n        require(idx + 20 <= self.length);\\n        assembly {\\n            ret := and(mload(add(add(self, 32), idx)), 0xFFFFFFFFFFFFFFFFFFFFFFFFFFFFFFFFFFFFFFFF000000000000000000000000)\\n        }\\n    }\\n\\n    /*\\n    * @dev Returns the n byte value at the specified index of self.\\n    * @param self The byte string.\\n    * @param idx The index into the bytes.\\n    * @param len The number of bytes.\\n    * @return The specified 32 bytes of the string.\\n    */\\n    function readBytesN(bytes memory self, uint idx, uint len) internal pure returns (bytes32 ret) {\\n        require(len <= 32);\\n        require(idx + len <= self.length);\\n        assembly {\\n            let mask := not(sub(exp(256, sub(32, len)), 1))\\n            ret := and(mload(add(add(self, 32), idx)),  mask)\\n        }\\n    }\\n\\n    function memcpy(uint dest, uint src, uint len) private pure {\\n        // Copy word-length chunks while possible\\n        for (; len >= 32; len -= 32) {\\n            assembly {\\n                mstore(dest, mload(src))\\n            }\\n            dest += 32;\\n            src += 32;\\n        }\\n\\n        // Copy remaining bytes\\n        unchecked {\\n            uint mask = (256 ** (32 - len)) - 1;\\n            assembly {\\n                let srcpart := and(mload(src), not(mask))\\n                let destpart := and(mload(dest), mask)\\n                mstore(dest, or(destpart, srcpart))\\n            }\\n        }\\n    }\\n\\n    /*\\n    * @dev Copies a substring into a new byte string.\\n    * @param self The byte string to copy from.\\n    * @param offset The offset to start copying at.\\n    * @param len The number of bytes to copy.\\n    */\\n    function substring(bytes memory self, uint offset, uint len) internal pure returns(bytes memory) {\\n        require(offset + len <= self.length);\\n\\n        bytes memory ret = new bytes(len);\\n        uint dest;\\n        uint src;\\n\\n        assembly {\\n            dest := add(ret, 32)\\n            src := add(add(self, 32), offset)\\n        }\\n        memcpy(dest, src, len);\\n\\n        return ret;\\n    }\\n\\n    // Maps characters from 0x30 to 0x7A to their base32 values.\\n    // 0xFF represents invalid characters in that range.\\n    bytes constant base32HexTable = hex'00010203040506070809FFFFFFFFFFFFFF0A0B0C0D0E0F101112131415161718191A1B1C1D1E1FFFFFFFFFFFFFFFFFFFFF0A0B0C0D0E0F101112131415161718191A1B1C1D1E1F';\\n\\n    /**\\n     * @dev Decodes unpadded base32 data of up to one word in length.\\n     * @param self The data to decode.\\n     * @param off Offset into the string to start at.\\n     * @param len Number of characters to decode.\\n     * @return The decoded data, left aligned.\\n     */\\n    function base32HexDecodeWord(bytes memory self, uint off, uint len) internal pure returns(bytes32) {\\n        require(len <= 52);\\n\\n        uint ret = 0;\\n        uint8 decoded;\\n        for(uint i = 0; i < len; i++) {\\n            bytes1 char = self[off + i];\\n            require(char >= 0x30 && char <= 0x7A);\\n            decoded = uint8(base32HexTable[uint(uint8(char)) - 0x30]);\\n            require(decoded <= 0x20);\\n            if(i == len - 1) {\\n                break;\\n            }\\n            ret = (ret << 5) | decoded;\\n        }\\n\\n        uint bitlen = len * 5;\\n        if(len % 8 == 0) {\\n            // Multiple of 8 characters, no padding\\n            ret = (ret << 5) | decoded;\\n        } else if(len % 8 == 2) {\\n            // Two extra characters - 1 byte\\n            ret = (ret << 3) | (decoded >> 2);\\n            bitlen -= 2;\\n        } else if(len % 8 == 4) {\\n            // Four extra characters - 2 bytes\\n            ret = (ret << 1) | (decoded >> 4);\\n            bitlen -= 4;\\n        } else if(len % 8 == 5) {\\n            // Five extra characters - 3 bytes\\n            ret = (ret << 4) | (decoded >> 1);\\n            bitlen -= 1;\\n        } else if(len % 8 == 7) {\\n            // Seven extra characters - 4 bytes\\n            ret = (ret << 2) | (decoded >> 3);\\n            bitlen -= 3;\\n        } else {\\n            revert();\\n        }\\n\\n        return bytes32(ret << (256 - bitlen));\\n    }\\n}\",\"keccak256\":\"0x83315df2e54c74451577c70da2c267c3459802b08b9aeec6516302eee70f796e\"},\"@ensdomains/ens-contracts/contracts/dnssec-oracle/RRUtils.sol\":{\"content\":\"pragma solidity ^0.8.4;\\n\\nimport \\\"./BytesUtils.sol\\\";\\nimport \\\"@ensdomains/buffer/contracts/Buffer.sol\\\";\\n\\n/**\\n* @dev RRUtils is a library that provides utilities for parsing DNS resource records.\\n*/\\nlibrary RRUtils {\\n    using BytesUtils for *;\\n    using Buffer for *;\\n\\n    /**\\n    * @dev Returns the number of bytes in the DNS name at 'offset' in 'self'.\\n    * @param self The byte array to read a name from.\\n    * @param offset The offset to start reading at.\\n    * @return The length of the DNS name at 'offset', in bytes.\\n    */\\n    function nameLength(bytes memory self, uint offset) internal pure returns(uint) {\\n        uint idx = offset;\\n        while (true) {\\n            assert(idx < self.length);\\n            uint labelLen = self.readUint8(idx);\\n            idx += labelLen + 1;\\n            if (labelLen == 0) {\\n                break;\\n            }\\n        }\\n        return idx - offset;\\n    }\\n\\n    /**\\n    * @dev Returns a DNS format name at the specified offset of self.\\n    * @param self The byte array to read a name from.\\n    * @param offset The offset to start reading at.\\n    * @return ret The name.\\n    */\\n    function readName(bytes memory self, uint offset) internal pure returns(bytes memory ret) {\\n        uint len = nameLength(self, offset);\\n        return self.substring(offset, len);\\n    }\\n\\n    /**\\n    * @dev Returns the number of labels in the DNS name at 'offset' in 'self'.\\n    * @param self The byte array to read a name from.\\n    * @param offset The offset to start reading at.\\n    * @return The number of labels in the DNS name at 'offset', in bytes.\\n    */\\n    function labelCount(bytes memory self, uint offset) internal pure returns(uint) {\\n        uint count = 0;\\n        while (true) {\\n            assert(offset < self.length);\\n            uint labelLen = self.readUint8(offset);\\n            offset += labelLen + 1;\\n            if (labelLen == 0) {\\n                break;\\n            }\\n            count += 1;\\n        }\\n        return count;\\n    }\\n\\n    uint constant RRSIG_TYPE = 0;\\n    uint constant RRSIG_ALGORITHM = 2;\\n    uint constant RRSIG_LABELS = 3;\\n    uint constant RRSIG_TTL = 4;\\n    uint constant RRSIG_EXPIRATION = 8;\\n    uint constant RRSIG_INCEPTION = 12;\\n    uint constant RRSIG_KEY_TAG = 16;\\n    uint constant RRSIG_SIGNER_NAME = 18;\\n\\n    struct SignedSet {\\n        uint16 typeCovered;\\n        uint8 algorithm;\\n        uint8 labels;\\n        uint32 ttl;\\n        uint32 expiration;\\n        uint32 inception;\\n        uint16 keytag;\\n        bytes signerName;\\n        bytes data;\\n        bytes name;\\n    }\\n\\n    function readSignedSet(bytes memory data) internal pure returns(SignedSet memory self) {\\n        self.typeCovered = data.readUint16(RRSIG_TYPE);\\n        self.algorithm = data.readUint8(RRSIG_ALGORITHM);\\n        self.labels = data.readUint8(RRSIG_LABELS);\\n        self.ttl = data.readUint32(RRSIG_TTL);\\n        self.expiration = data.readUint32(RRSIG_EXPIRATION);\\n        self.inception = data.readUint32(RRSIG_INCEPTION);\\n        self.keytag = data.readUint16(RRSIG_KEY_TAG);\\n        self.signerName = readName(data, RRSIG_SIGNER_NAME);\\n        self.data = data.substring(RRSIG_SIGNER_NAME + self.signerName.length, data.length - RRSIG_SIGNER_NAME - self.signerName.length);\\n    }\\n\\n    function rrs(SignedSet memory rrset) internal pure returns(RRIterator memory) {\\n        return iterateRRs(rrset.data, 0);\\n    }\\n\\n    /**\\n    * @dev An iterator over resource records.\\n    */\\n    struct RRIterator {\\n        bytes data;\\n        uint offset;\\n        uint16 dnstype;\\n        uint16 class;\\n        uint32 ttl;\\n        uint rdataOffset;\\n        uint nextOffset;\\n    }\\n\\n    /**\\n    * @dev Begins iterating over resource records.\\n    * @param self The byte string to read from.\\n    * @param offset The offset to start reading at.\\n    * @return ret An iterator object.\\n    */\\n    function iterateRRs(bytes memory self, uint offset) internal pure returns (RRIterator memory ret) {\\n        ret.data = self;\\n        ret.nextOffset = offset;\\n        next(ret);\\n    }\\n\\n    /**\\n    * @dev Returns true iff there are more RRs to iterate.\\n    * @param iter The iterator to check.\\n    * @return True iff the iterator has finished.\\n    */\\n    function done(RRIterator memory iter) internal pure returns(bool) {\\n        return iter.offset >= iter.data.length;\\n    }\\n\\n    /**\\n    * @dev Moves the iterator to the next resource record.\\n    * @param iter The iterator to advance.\\n    */\\n    function next(RRIterator memory iter) internal pure {\\n        iter.offset = iter.nextOffset;\\n        if (iter.offset >= iter.data.length) {\\n            return;\\n        }\\n\\n        // Skip the name\\n        uint off = iter.offset + nameLength(iter.data, iter.offset);\\n\\n        // Read type, class, and ttl\\n        iter.dnstype = iter.data.readUint16(off);\\n        off += 2;\\n        iter.class = iter.data.readUint16(off);\\n        off += 2;\\n        iter.ttl = iter.data.readUint32(off);\\n        off += 4;\\n\\n        // Read the rdata\\n        uint rdataLength = iter.data.readUint16(off);\\n        off += 2;\\n        iter.rdataOffset = off;\\n        iter.nextOffset = off + rdataLength;\\n    }\\n\\n    /**\\n    * @dev Returns the name of the current record.\\n    * @param iter The iterator.\\n    * @return A new bytes object containing the owner name from the RR.\\n    */\\n    function name(RRIterator memory iter) internal pure returns(bytes memory) {\\n        return iter.data.substring(iter.offset, nameLength(iter.data, iter.offset));\\n    }\\n\\n    /**\\n    * @dev Returns the rdata portion of the current record.\\n    * @param iter The iterator.\\n    * @return A new bytes object containing the RR's RDATA.\\n    */\\n    function rdata(RRIterator memory iter) internal pure returns(bytes memory) {\\n        return iter.data.substring(iter.rdataOffset, iter.nextOffset - iter.rdataOffset);\\n    }\\n\\n    uint constant DNSKEY_FLAGS = 0;\\n    uint constant DNSKEY_PROTOCOL = 2;\\n    uint constant DNSKEY_ALGORITHM = 3;\\n    uint constant DNSKEY_PUBKEY = 4;\\n\\n    struct DNSKEY {\\n        uint16 flags;\\n        uint8 protocol;\\n        uint8 algorithm;\\n        bytes publicKey;\\n    }\\n\\n    function readDNSKEY(bytes memory data, uint offset, uint length) internal pure returns(DNSKEY memory self) {\\n        self.flags = data.readUint16(offset + DNSKEY_FLAGS);\\n        self.protocol = data.readUint8(offset + DNSKEY_PROTOCOL);\\n        self.algorithm = data.readUint8(offset + DNSKEY_ALGORITHM);\\n        self.publicKey = data.substring(offset + DNSKEY_PUBKEY, length - DNSKEY_PUBKEY);\\n    } \\n\\n    uint constant DS_KEY_TAG = 0;\\n    uint constant DS_ALGORITHM = 2;\\n    uint constant DS_DIGEST_TYPE = 3;\\n    uint constant DS_DIGEST = 4;\\n\\n    struct DS {\\n        uint16 keytag;\\n        uint8 algorithm;\\n        uint8 digestType;\\n        bytes digest;\\n    }\\n\\n    function readDS(bytes memory data, uint offset, uint length) internal pure returns(DS memory self) {\\n        self.keytag = data.readUint16(offset + DS_KEY_TAG);\\n        self.algorithm = data.readUint8(offset + DS_ALGORITHM);\\n        self.digestType = data.readUint8(offset + DS_DIGEST_TYPE);\\n        self.digest = data.substring(offset + DS_DIGEST, length - DS_DIGEST);\\n    }\\n\\n    struct NSEC3 {\\n        uint8 hashAlgorithm;\\n        uint8 flags;\\n        uint16 iterations;\\n        bytes salt;\\n        bytes32 nextHashedOwnerName;\\n        bytes typeBitmap;\\n    }\\n\\n    uint constant NSEC3_HASH_ALGORITHM = 0;\\n    uint constant NSEC3_FLAGS = 1;\\n    uint constant NSEC3_ITERATIONS = 2;\\n    uint constant NSEC3_SALT_LENGTH = 4;\\n    uint constant NSEC3_SALT = 5;\\n\\n    function readNSEC3(bytes memory data, uint offset, uint length) internal pure returns(NSEC3 memory self) {\\n        uint end = offset + length;\\n        self.hashAlgorithm = data.readUint8(offset + NSEC3_HASH_ALGORITHM);\\n        self.flags = data.readUint8(offset + NSEC3_FLAGS);\\n        self.iterations = data.readUint16(offset + NSEC3_ITERATIONS);\\n        uint8 saltLength = data.readUint8(offset + NSEC3_SALT_LENGTH);\\n        offset = offset + NSEC3_SALT;\\n        self.salt = data.substring(offset, saltLength);\\n        offset += saltLength;\\n        uint8 nextLength = data.readUint8(offset);\\n        require(nextLength <= 32);\\n        offset += 1;\\n        self.nextHashedOwnerName = data.readBytesN(offset, nextLength);\\n        offset += nextLength;\\n        self.typeBitmap = data.substring(offset, end - offset);\\n    }\\n\\n    function checkTypeBitmap(NSEC3 memory self, uint16 rrtype) internal pure returns(bool) {\\n        return checkTypeBitmap(self.typeBitmap, 0, rrtype);\\n    }\\n\\n    /**\\n    * @dev Checks if a given RR type exists in a type bitmap.\\n    * @param bitmap The byte string to read the type bitmap from.\\n    * @param offset The offset to start reading at.\\n    * @param rrtype The RR type to check for.\\n    * @return True if the type is found in the bitmap, false otherwise.\\n    */\\n    function checkTypeBitmap(bytes memory bitmap, uint offset, uint16 rrtype) internal pure returns (bool) {\\n        uint8 typeWindow = uint8(rrtype >> 8);\\n        uint8 windowByte = uint8((rrtype & 0xff) / 8);\\n        uint8 windowBitmask = uint8(uint8(1) << (uint8(7) - uint8(rrtype & 0x7)));\\n        for (uint off = offset; off < bitmap.length;) {\\n            uint8 window = bitmap.readUint8(off);\\n            uint8 len = bitmap.readUint8(off + 1);\\n            if (typeWindow < window) {\\n                // We've gone past our window; it's not here.\\n                return false;\\n            } else if (typeWindow == window) {\\n                // Check this type bitmap\\n                if (len <= windowByte) {\\n                    // Our type is past the end of the bitmap\\n                    return false;\\n                }\\n                return (bitmap.readUint8(off + windowByte + 2) & windowBitmask) != 0;\\n            } else {\\n                // Skip this type bitmap\\n                off += len + 2;\\n            }\\n        }\\n\\n        return false;\\n    }\\n\\n    function compareNames(bytes memory self, bytes memory other) internal pure returns (int) {\\n        if (self.equals(other)) {\\n            return 0;\\n        }\\n\\n        uint off;\\n        uint otheroff;\\n        uint prevoff;\\n        uint otherprevoff;\\n        uint counts = labelCount(self, 0);\\n        uint othercounts = labelCount(other, 0);\\n\\n        // Keep removing labels from the front of the name until both names are equal length\\n        while (counts > othercounts) {\\n            prevoff = off;\\n            off = progress(self, off);\\n            counts--;\\n        }\\n\\n        while (othercounts > counts) {\\n            otherprevoff = otheroff;\\n            otheroff = progress(other, otheroff);\\n            othercounts--;\\n        }\\n\\n        // Compare the last nonequal labels to each other\\n        while (counts > 0 && !self.equals(off, other, otheroff)) {\\n            prevoff = off;\\n            off = progress(self, off);\\n            otherprevoff = otheroff;\\n            otheroff = progress(other, otheroff);\\n            counts -= 1;\\n        }\\n\\n        if (off == 0) {\\n            return -1;\\n        }\\n        if(otheroff == 0) {\\n            return 1;\\n        }\\n\\n        return self.compare(prevoff + 1, self.readUint8(prevoff), other, otherprevoff + 1, other.readUint8(otherprevoff));\\n    }\\n\\n    /**\\n     * @dev Compares two serial numbers using RFC1982 serial number math.\\n     */\\n    function serialNumberGte(uint32 i1, uint32 i2) internal pure returns(bool) {\\n        return int32(i1) - int32(i2) >= 0;\\n    }\\n\\n    function progress(bytes memory body, uint off) internal pure returns(uint) {\\n        return off + 1 + body.readUint8(off);\\n    }\\n}\",\"keccak256\":\"0x021cc7832a603e41b94d38eced8175452eaa5ab4794376fa3f722362844aeefe\"},\"@ensdomains/ens-contracts/contracts/registry/ENS.sol\":{\"content\":\"pragma solidity >=0.8.4;\\n\\ninterface ENS {\\n\\n    // Logged when the owner of a node assigns a new owner to a subnode.\\n    event NewOwner(bytes32 indexed node, bytes32 indexed label, address owner);\\n\\n    // Logged when the owner of a node transfers ownership to a new account.\\n    event Transfer(bytes32 indexed node, address owner);\\n\\n    // Logged when the resolver for a node changes.\\n    event NewResolver(bytes32 indexed node, address resolver);\\n\\n    // Logged when the TTL of a node changes\\n    event NewTTL(bytes32 indexed node, uint64 ttl);\\n\\n    // Logged when an operator is added or removed.\\n    event ApprovalForAll(address indexed owner, address indexed operator, bool approved);\\n\\n    function setRecord(bytes32 node, address owner, address resolver, uint64 ttl) external virtual;\\n    function setSubnodeRecord(bytes32 node, bytes32 label, address owner, address resolver, uint64 ttl) external virtual;\\n    function setSubnodeOwner(bytes32 node, bytes32 label, address owner) external virtual returns(bytes32);\\n    function setResolver(bytes32 node, address resolver) external virtual;\\n    function setOwner(bytes32 node, address owner) external virtual;\\n    function setTTL(bytes32 node, uint64 ttl) external virtual;\\n    function setApprovalForAll(address operator, bool approved) external virtual;\\n    function owner(bytes32 node) external virtual view returns (address);\\n    function resolver(bytes32 node) external virtual view returns (address);\\n    function ttl(bytes32 node) external virtual view returns (uint64);\\n    function recordExists(bytes32 node) external virtual view returns (bool);\\n    function isApprovedForAll(address owner, address operator) external virtual view returns (bool);\\n}\\n\",\"keccak256\":\"0x942ef29bd7c0f62228aeb91879ddd1ba101f52a2162970d3e48adffa498f4483\"},\"@ensdomains/ens-contracts/contracts/registry/ENSRegistry.sol\":{\"content\":\"pragma solidity >=0.8.4;\\n\\nimport \\\"./ENS.sol\\\";\\n\\n/**\\n * The ENS registry contract.\\n */\\ncontract ENSRegistry is ENS {\\n\\n    struct Record {\\n        address owner;\\n        address resolver;\\n        uint64 ttl;\\n    }\\n\\n    mapping (bytes32 => Record) records;\\n    mapping (address => mapping(address => bool)) operators;\\n\\n    // Permits modifications only by the owner of the specified node.\\n    modifier authorised(bytes32 node) {\\n        address owner = records[node].owner;\\n        require(owner == msg.sender || operators[owner][msg.sender]);\\n        _;\\n    }\\n\\n    /**\\n     * @dev Constructs a new ENS registrar.\\n     */\\n    constructor() public {\\n        records[0x0].owner = msg.sender;\\n    }\\n\\n    /**\\n     * @dev Sets the record for a node.\\n     * @param node The node to update.\\n     * @param owner The address of the new owner.\\n     * @param resolver The address of the resolver.\\n     * @param ttl The TTL in seconds.\\n     */\\n    function setRecord(bytes32 node, address owner, address resolver, uint64 ttl) external virtual override {\\n        setOwner(node, owner);\\n        _setResolverAndTTL(node, resolver, ttl);\\n    }\\n\\n    /**\\n     * @dev Sets the record for a subnode.\\n     * @param node The parent node.\\n     * @param label The hash of the label specifying the subnode.\\n     * @param owner The address of the new owner.\\n     * @param resolver The address of the resolver.\\n     * @param ttl The TTL in seconds.\\n     */\\n    function setSubnodeRecord(bytes32 node, bytes32 label, address owner, address resolver, uint64 ttl) external virtual override {\\n        bytes32 subnode = setSubnodeOwner(node, label, owner);\\n        _setResolverAndTTL(subnode, resolver, ttl);\\n    }\\n\\n    /**\\n     * @dev Transfers ownership of a node to a new address. May only be called by the current owner of the node.\\n     * @param node The node to transfer ownership of.\\n     * @param owner The address of the new owner.\\n     */\\n    function setOwner(bytes32 node, address owner) public virtual override authorised(node) {\\n        _setOwner(node, owner);\\n        emit Transfer(node, owner);\\n    }\\n\\n    /**\\n     * @dev Transfers ownership of a subnode keccak256(node, label) to a new address. May only be called by the owner of the parent node.\\n     * @param node The parent node.\\n     * @param label The hash of the label specifying the subnode.\\n     * @param owner The address of the new owner.\\n     */\\n    function setSubnodeOwner(bytes32 node, bytes32 label, address owner) public virtual override authorised(node) returns(bytes32) {\\n        bytes32 subnode = keccak256(abi.encodePacked(node, label));\\n        _setOwner(subnode, owner);\\n        emit NewOwner(node, label, owner);\\n        return subnode;\\n    }\\n\\n    /**\\n     * @dev Sets the resolver address for the specified node.\\n     * @param node The node to update.\\n     * @param resolver The address of the resolver.\\n     */\\n    function setResolver(bytes32 node, address resolver) public virtual override authorised(node) {\\n        emit NewResolver(node, resolver);\\n        records[node].resolver = resolver;\\n    }\\n\\n    /**\\n     * @dev Sets the TTL for the specified node.\\n     * @param node The node to update.\\n     * @param ttl The TTL in seconds.\\n     */\\n    function setTTL(bytes32 node, uint64 ttl) public virtual override authorised(node) {\\n        emit NewTTL(node, ttl);\\n        records[node].ttl = ttl;\\n    }\\n\\n    /**\\n     * @dev Enable or disable approval for a third party (\\\"operator\\\") to manage\\n     *  all of `msg.sender`'s ENS records. Emits the ApprovalForAll event.\\n     * @param operator Address to add to the set of authorized operators.\\n     * @param approved True if the operator is approved, false to revoke approval.\\n     */\\n    function setApprovalForAll(address operator, bool approved) external virtual override {\\n        operators[msg.sender][operator] = approved;\\n        emit ApprovalForAll(msg.sender, operator, approved);\\n    }\\n\\n    /**\\n     * @dev Returns the address that owns the specified node.\\n     * @param node The specified node.\\n     * @return address of the owner.\\n     */\\n    function owner(bytes32 node) public virtual override view returns (address) {\\n        address addr = records[node].owner;\\n        if (addr == address(this)) {\\n            return address(0x0);\\n        }\\n\\n        return addr;\\n    }\\n\\n    /**\\n     * @dev Returns the address of the resolver for the specified node.\\n     * @param node The specified node.\\n     * @return address of the resolver.\\n     */\\n    function resolver(bytes32 node) public virtual override view returns (address) {\\n        return records[node].resolver;\\n    }\\n\\n    /**\\n     * @dev Returns the TTL of a node, and any records associated with it.\\n     * @param node The specified node.\\n     * @return ttl of the node.\\n     */\\n    function ttl(bytes32 node) public virtual override view returns (uint64) {\\n        return records[node].ttl;\\n    }\\n\\n    /**\\n     * @dev Returns whether a record has been imported to the registry.\\n     * @param node The specified node.\\n     * @return Bool if record exists\\n     */\\n    function recordExists(bytes32 node) public virtual override view returns (bool) {\\n        return records[node].owner != address(0x0);\\n    }\\n\\n    /**\\n     * @dev Query if an address is an authorized operator for another address.\\n     * @param owner The address that owns the records.\\n     * @param operator The address that acts on behalf of the owner.\\n     * @return True if `operator` is an approved operator for `owner`, false otherwise.\\n     */\\n    function isApprovedForAll(address owner, address operator) external virtual override view returns (bool) {\\n        return operators[owner][operator];\\n    }\\n\\n    function _setOwner(bytes32 node, address owner) internal virtual {\\n        records[node].owner = owner;\\n    }\\n\\n    function _setResolverAndTTL(bytes32 node, address resolver, uint64 ttl) internal {\\n        if(resolver != records[node].resolver) {\\n            records[node].resolver = resolver;\\n            emit NewResolver(node, resolver);\\n        }\\n\\n        if(ttl != records[node].ttl) {\\n            records[node].ttl = ttl;\\n            emit NewTTL(node, ttl);\\n        }\\n    }\\n}\\n\",\"keccak256\":\"0xf025a2fa3fcf89a3db7064e85e9b618707a39cb47c9c1bfedaec5313b118a1c6\"},\"@ensdomains/ens-contracts/contracts/resolvers/PublicResolver.sol\":{\"content\":\"pragma solidity >=0.8.4;\\n\\nimport \\\"../registry/ENS.sol\\\";\\nimport \\\"./profiles/ABIResolver.sol\\\";\\nimport \\\"./profiles/AddrResolver.sol\\\";\\nimport \\\"./profiles/ContentHashResolver.sol\\\";\\nimport \\\"./profiles/DNSResolver.sol\\\";\\nimport \\\"./profiles/InterfaceResolver.sol\\\";\\nimport \\\"./profiles/NameResolver.sol\\\";\\nimport \\\"./profiles/PubkeyResolver.sol\\\";\\nimport \\\"./profiles/TextResolver.sol\\\";\\n\\ninterface INameWrapper {\\n    function ownerOf(uint256 id) external view returns (address);\\n}\\n\\n/**\\n * A simple resolver anyone can use; only allows the owner of a node to set its\\n * address.\\n */\\ncontract PublicResolver is ABIResolver, AddrResolver, ContentHashResolver, DNSResolver, InterfaceResolver, NameResolver, PubkeyResolver, TextResolver {\\n    ENS ens;\\n    INameWrapper nameWrapper;\\n\\n    /**\\n     * A mapping of operators. An address that is authorised for an address\\n     * may make any changes to the name that the owner could, but may not update\\n     * the set of authorisations.\\n     * (owner, operator) => approved\\n     */\\n    mapping(address => mapping(address => bool)) private _operatorApprovals;\\n\\n    // Logged when an operator is added or removed.\\n    event ApprovalForAll(address indexed owner, address indexed operator, bool approved);\\n\\n    constructor(ENS _ens, INameWrapper wrapperAddress){\\n        ens = _ens;\\n        nameWrapper = wrapperAddress;\\n    }\\n\\n    /**\\n     * @dev See {IERC1155-setApprovalForAll}.\\n     */\\n    function setApprovalForAll(address operator, bool approved) external{\\n        require(\\n            msg.sender != operator,\\n            \\\"ERC1155: setting approval status for self\\\"\\n        );\\n\\n        _operatorApprovals[msg.sender][operator] = approved;\\n        emit ApprovalForAll(msg.sender, operator, approved);\\n    }\\n\\n    function isAuthorised(bytes32 node) internal override view returns(bool) {\\n        address owner = ens.owner(node);\\n        if(owner == address(nameWrapper) ){\\n            owner = nameWrapper.ownerOf(uint256(node));\\n        }\\n        return owner == msg.sender || isApprovedForAll(owner, msg.sender);\\n    }\\n\\n    /**\\n     * @dev See {IERC1155-isApprovedForAll}.\\n     */\\n    function isApprovedForAll(address account, address operator) public view returns (bool){\\n        return _operatorApprovals[account][operator];\\n    }\\n\\n    function multicall(bytes[] calldata data) external returns(bytes[] memory results) {\\n        results = new bytes[](data.length);\\n        for(uint i = 0; i < data.length; i++) {\\n            (bool success, bytes memory result) = address(this).delegatecall(data[i]);\\n            require(success);\\n            results[i] = result;\\n        }\\n        return results;\\n    }\\n\\n    function supportsInterface(bytes4 interfaceID) virtual override(ABIResolver, AddrResolver, ContentHashResolver, DNSResolver, InterfaceResolver, NameResolver, PubkeyResolver, TextResolver) public pure returns(bool) {\\n        return super.supportsInterface(interfaceID);\\n    }\\n}\\n\",\"keccak256\":\"0x6798b8d8cfbe72bcf416321bf2a631cc3cf0a0e4b66001e0992af580ef198f30\"},\"@ensdomains/ens-contracts/contracts/resolvers/ResolverBase.sol\":{\"content\":\"pragma solidity >=0.8.4;\\nabstract contract ResolverBase {\\n    bytes4 private constant INTERFACE_META_ID = 0x01ffc9a7;\\n\\n    function supportsInterface(bytes4 interfaceID) virtual public pure returns(bool) {\\n        return interfaceID == INTERFACE_META_ID;\\n    }\\n\\n    function isAuthorised(bytes32 node) internal virtual view returns(bool);\\n\\n    modifier authorised(bytes32 node) {\\n        require(isAuthorised(node));\\n        _;\\n    }\\n\\n    function bytesToAddress(bytes memory b) internal pure returns(address payable a) {\\n        require(b.length == 20);\\n        assembly {\\n            a := div(mload(add(b, 32)), exp(256, 12))\\n        }\\n    }\\n\\n    function addressToBytes(address a) internal pure returns(bytes memory b) {\\n        b = new bytes(20);\\n        assembly {\\n            mstore(add(b, 32), mul(a, exp(256, 12)))\\n        }\\n    }\\n}\\n\",\"keccak256\":\"0x19ff93130a91ea54f949022dafa27cd9fa9af647820d957aed3c8641b1354d8e\"},\"@ensdomains/ens-contracts/contracts/resolvers/profiles/ABIResolver.sol\":{\"content\":\"pragma solidity >=0.8.4;\\nimport \\\"../ResolverBase.sol\\\";\\n\\nabstract contract ABIResolver is ResolverBase {\\n    bytes4 constant private ABI_INTERFACE_ID = 0x2203ab56;\\n\\n    event ABIChanged(bytes32 indexed node, uint256 indexed contentType);\\n\\n    mapping(bytes32=>mapping(uint256=>bytes)) abis;\\n\\n    /**\\n     * Sets the ABI associated with an ENS node.\\n     * Nodes may have one ABI of each content type. To remove an ABI, set it to\\n     * the empty string.\\n     * @param node The node to update.\\n     * @param contentType The content type of the ABI\\n     * @param data The ABI data.\\n     */\\n    function setABI(bytes32 node, uint256 contentType, bytes calldata data) external authorised(node) {\\n        // Content types must be powers of 2\\n        require(((contentType - 1) & contentType) == 0);\\n\\n        abis[node][contentType] = data;\\n        emit ABIChanged(node, contentType);\\n    }\\n\\n    /**\\n     * Returns the ABI associated with an ENS node.\\n     * Defined in EIP205.\\n     * @param node The ENS node to query\\n     * @param contentTypes A bitwise OR of the ABI formats accepted by the caller.\\n     * @return contentType The content type of the return value\\n     * @return data The ABI data\\n     */\\n    function ABI(bytes32 node, uint256 contentTypes) external view returns (uint256, bytes memory) {\\n        mapping(uint256=>bytes) storage abiset = abis[node];\\n\\n        for (uint256 contentType = 1; contentType <= contentTypes; contentType <<= 1) {\\n            if ((contentType & contentTypes) != 0 && abiset[contentType].length > 0) {\\n                return (contentType, abiset[contentType]);\\n            }\\n        }\\n\\n        return (0, bytes(\\\"\\\"));\\n    }\\n\\n    function supportsInterface(bytes4 interfaceID) virtual override public pure returns(bool) {\\n        return interfaceID == ABI_INTERFACE_ID || super.supportsInterface(interfaceID);\\n    }\\n}\\n\",\"keccak256\":\"0x371491a137dde6b09a7345f568539e8b4585fb30615d2192ceeeb46d82dc0935\"},\"@ensdomains/ens-contracts/contracts/resolvers/profiles/AddrResolver.sol\":{\"content\":\"pragma solidity >=0.8.4;\\nimport \\\"../ResolverBase.sol\\\";\\n\\nabstract contract AddrResolver is ResolverBase {\\n    bytes4 constant private ADDR_INTERFACE_ID = 0x3b3b57de;\\n    bytes4 constant private ADDRESS_INTERFACE_ID = 0xf1cb7e06;\\n    uint constant private COIN_TYPE_ETH = 60;\\n\\n    event AddrChanged(bytes32 indexed node, address a);\\n    event AddressChanged(bytes32 indexed node, uint coinType, bytes newAddress);\\n\\n    mapping(bytes32=>mapping(uint=>bytes)) _addresses;\\n\\n    /**\\n     * Sets the address associated with an ENS node.\\n     * May only be called by the owner of that node in the ENS registry.\\n     * @param node The node to update.\\n     * @param a The address to set.\\n     */\\n    function setAddr(bytes32 node, address a) external authorised(node) {\\n        setAddr(node, COIN_TYPE_ETH, addressToBytes(a));\\n    }\\n\\n    /**\\n     * Returns the address associated with an ENS node.\\n     * @param node The ENS node to query.\\n     * @return The associated address.\\n     */\\n    function addr(bytes32 node) public view returns (address payable) {\\n        bytes memory a = addr(node, COIN_TYPE_ETH);\\n        if(a.length == 0) {\\n            return payable(0);\\n        }\\n        return bytesToAddress(a);\\n    }\\n\\n    function setAddr(bytes32 node, uint coinType, bytes memory a) public authorised(node) {\\n        emit AddressChanged(node, coinType, a);\\n        if(coinType == COIN_TYPE_ETH) {\\n            emit AddrChanged(node, bytesToAddress(a));\\n        }\\n        _addresses[node][coinType] = a;\\n    }\\n\\n    function addr(bytes32 node, uint coinType) public view returns(bytes memory) {\\n        return _addresses[node][coinType];\\n    }\\n\\n    function supportsInterface(bytes4 interfaceID) virtual override public pure returns(bool) {\\n        return interfaceID == ADDR_INTERFACE_ID || interfaceID == ADDRESS_INTERFACE_ID || super.supportsInterface(interfaceID);\\n    }\\n}\\n\",\"keccak256\":\"0x5e32ad40c831931e1d1cba27622078fd8a838227ed23d2bba253e1256e8f331a\"},\"@ensdomains/ens-contracts/contracts/resolvers/profiles/ContentHashResolver.sol\":{\"content\":\"pragma solidity >=0.8.4;\\nimport \\\"../ResolverBase.sol\\\";\\n\\nabstract contract ContentHashResolver is ResolverBase {\\n    bytes4 constant private CONTENT_HASH_INTERFACE_ID = 0xbc1c58d1;\\n\\n    event ContenthashChanged(bytes32 indexed node, bytes hash);\\n\\n    mapping(bytes32=>bytes) hashes;\\n\\n    /**\\n     * Sets the contenthash associated with an ENS node.\\n     * May only be called by the owner of that node in the ENS registry.\\n     * @param node The node to update.\\n     * @param hash The contenthash to set\\n     */\\n    function setContenthash(bytes32 node, bytes calldata hash) external authorised(node) {\\n        hashes[node] = hash;\\n        emit ContenthashChanged(node, hash);\\n    }\\n\\n    /**\\n     * Returns the contenthash associated with an ENS node.\\n     * @param node The ENS node to query.\\n     * @return The associated contenthash.\\n     */\\n    function contenthash(bytes32 node) external view returns (bytes memory) {\\n        return hashes[node];\\n    }\\n\\n    function supportsInterface(bytes4 interfaceID) virtual override public pure returns(bool) {\\n        return interfaceID == CONTENT_HASH_INTERFACE_ID || super.supportsInterface(interfaceID);\\n    }\\n}\\n\",\"keccak256\":\"0x46f179cc9a316da02c1c568b6c701b42409c144116e56ea4534b642326379a6b\"},\"@ensdomains/ens-contracts/contracts/resolvers/profiles/DNSResolver.sol\":{\"content\":\"pragma solidity >=0.8.4;\\nimport \\\"../ResolverBase.sol\\\";\\nimport \\\"../../dnssec-oracle/RRUtils.sol\\\";\\n\\nabstract contract DNSResolver is ResolverBase {\\n    using RRUtils for *;\\n    using BytesUtils for bytes;\\n\\n    bytes4 constant private DNS_RECORD_INTERFACE_ID = 0xa8fa5682;\\n    bytes4 constant private DNS_ZONE_INTERFACE_ID = 0x5c47637c;\\n\\n    // DNSRecordChanged is emitted whenever a given node/name/resource's RRSET is updated.\\n    event DNSRecordChanged(bytes32 indexed node, bytes name, uint16 resource, bytes record);\\n    // DNSRecordDeleted is emitted whenever a given node/name/resource's RRSET is deleted.\\n    event DNSRecordDeleted(bytes32 indexed node, bytes name, uint16 resource);\\n    // DNSZoneCleared is emitted whenever a given node's zone information is cleared.\\n    event DNSZoneCleared(bytes32 indexed node);\\n\\n    // DNSZonehashChanged is emitted whenever a given node's zone hash is updated.\\n    event DNSZonehashChanged(bytes32 indexed node, bytes lastzonehash, bytes zonehash);\\n\\n    // Zone hashes for the domains.\\n    // A zone hash is an EIP-1577 content hash in binary format that should point to a\\n    // resource containing a single zonefile.\\n    // node => contenthash\\n    mapping(bytes32=>bytes) private zonehashes;\\n\\n    // Version the mapping for each zone.  This allows users who have lost\\n    // track of their entries to effectively delete an entire zone by bumping\\n    // the version number.\\n    // node => version\\n    mapping(bytes32=>uint256) private versions;\\n\\n    // The records themselves.  Stored as binary RRSETs\\n    // node => version => name => resource => data\\n    mapping(bytes32=>mapping(uint256=>mapping(bytes32=>mapping(uint16=>bytes)))) private records;\\n\\n    // Count of number of entries for a given name.  Required for DNS resolvers\\n    // when resolving wildcards.\\n    // node => version => name => number of records\\n    mapping(bytes32=>mapping(uint256=>mapping(bytes32=>uint16))) private nameEntriesCount;\\n\\n    /**\\n     * Set one or more DNS records.  Records are supplied in wire-format.\\n     * Records with the same node/name/resource must be supplied one after the\\n     * other to ensure the data is updated correctly. For example, if the data\\n     * was supplied:\\n     *     a.example.com IN A 1.2.3.4\\n     *     a.example.com IN A 5.6.7.8\\n     *     www.example.com IN CNAME a.example.com.\\n     * then this would store the two A records for a.example.com correctly as a\\n     * single RRSET, however if the data was supplied:\\n     *     a.example.com IN A 1.2.3.4\\n     *     www.example.com IN CNAME a.example.com.\\n     *     a.example.com IN A 5.6.7.8\\n     * then this would store the first A record, the CNAME, then the second A\\n     * record which would overwrite the first.\\n     *\\n     * @param node the namehash of the node for which to set the records\\n     * @param data the DNS wire format records to set\\n     */\\n    function setDNSRecords(bytes32 node, bytes calldata data) external authorised(node) {\\n        uint16 resource = 0;\\n        uint256 offset = 0;\\n        bytes memory name;\\n        bytes memory value;\\n        bytes32 nameHash;\\n        // Iterate over the data to add the resource records\\n        for (RRUtils.RRIterator memory iter = data.iterateRRs(0); !iter.done(); iter.next()) {\\n            if (resource == 0) {\\n                resource = iter.dnstype;\\n                name = iter.name();\\n                nameHash = keccak256(abi.encodePacked(name));\\n                value = bytes(iter.rdata());\\n            } else {\\n                bytes memory newName = iter.name();\\n                if (resource != iter.dnstype || !name.equals(newName)) {\\n                    setDNSRRSet(node, name, resource, data, offset, iter.offset - offset, value.length == 0);\\n                    resource = iter.dnstype;\\n                    offset = iter.offset;\\n                    name = newName;\\n                    nameHash = keccak256(name);\\n                    value = bytes(iter.rdata());\\n                }\\n            }\\n        }\\n        if (name.length > 0) {\\n            setDNSRRSet(node, name, resource, data, offset, data.length - offset, value.length == 0);\\n        }\\n    }\\n\\n    /**\\n     * Obtain a DNS record.\\n     * @param node the namehash of the node for which to fetch the record\\n     * @param name the keccak-256 hash of the fully-qualified name for which to fetch the record\\n     * @param resource the ID of the resource as per https://en.wikipedia.org/wiki/List_of_DNS_record_types\\n     * @return the DNS record in wire format if present, otherwise empty\\n     */\\n    function dnsRecord(bytes32 node, bytes32 name, uint16 resource) public view returns (bytes memory) {\\n        return records[node][versions[node]][name][resource];\\n    }\\n\\n    /**\\n     * Check if a given node has records.\\n     * @param node the namehash of the node for which to check the records\\n     * @param name the namehash of the node for which to check the records\\n     */\\n    function hasDNSRecords(bytes32 node, bytes32 name) public view returns (bool) {\\n        return (nameEntriesCount[node][versions[node]][name] != 0);\\n    }\\n\\n    /**\\n     * Clear all information for a DNS zone.\\n     * @param node the namehash of the node for which to clear the zone\\n     */\\n    function clearDNSZone(bytes32 node) public authorised(node) {\\n        versions[node]++;\\n        emit DNSZoneCleared(node);\\n    }\\n\\n    /**\\n     * setZonehash sets the hash for the zone.\\n     * May only be called by the owner of that node in the ENS registry.\\n     * @param node The node to update.\\n     * @param hash The zonehash to set\\n     */\\n    function setZonehash(bytes32 node, bytes calldata hash) external authorised(node) {\\n        bytes memory oldhash = zonehashes[node];\\n        zonehashes[node] = hash;\\n        emit DNSZonehashChanged(node, oldhash, hash);\\n    }\\n\\n    /**\\n     * zonehash obtains the hash for the zone.\\n     * @param node The ENS node to query.\\n     * @return The associated contenthash.\\n     */\\n    function zonehash(bytes32 node) external view returns (bytes memory) {\\n        return zonehashes[node];\\n    }\\n\\n    function supportsInterface(bytes4 interfaceID) virtual override public pure returns(bool) {\\n        return interfaceID == DNS_RECORD_INTERFACE_ID ||\\n               interfaceID == DNS_ZONE_INTERFACE_ID ||\\n               super.supportsInterface(interfaceID);\\n    }\\n\\n    function setDNSRRSet(\\n        bytes32 node,\\n        bytes memory name,\\n        uint16 resource,\\n        bytes memory data,\\n        uint256 offset,\\n        uint256 size,\\n        bool deleteRecord) private\\n    {\\n        uint256 version = versions[node];\\n        bytes32 nameHash = keccak256(name);\\n        bytes memory rrData = data.substring(offset, size);\\n        if (deleteRecord) {\\n            if (records[node][version][nameHash][resource].length != 0) {\\n                nameEntriesCount[node][version][nameHash]--;\\n            }\\n            delete(records[node][version][nameHash][resource]);\\n            emit DNSRecordDeleted(node, name, resource);\\n        } else {\\n            if (records[node][version][nameHash][resource].length == 0) {\\n                nameEntriesCount[node][version][nameHash]++;\\n            }\\n            records[node][version][nameHash][resource] = rrData;\\n            emit DNSRecordChanged(node, name, resource, rrData);\\n        }\\n    }\\n}\\n\",\"keccak256\":\"0x4d74aef492a44a29ea8757a6148740413a8c8f1256ce8d4551c89bdc2d91e0b1\"},\"@ensdomains/ens-contracts/contracts/resolvers/profiles/InterfaceResolver.sol\":{\"content\":\"pragma solidity >=0.8.4;\\nimport \\\"../ResolverBase.sol\\\";\\nimport \\\"./AddrResolver.sol\\\";\\n\\nabstract contract InterfaceResolver is ResolverBase, AddrResolver {\\n    bytes4 constant private INTERFACE_INTERFACE_ID = bytes4(keccak256(\\\"interfaceImplementer(bytes32,bytes4)\\\"));\\n    bytes4 private constant INTERFACE_META_ID = 0x01ffc9a7;\\n\\n    event InterfaceChanged(bytes32 indexed node, bytes4 indexed interfaceID, address implementer);\\n\\n    mapping(bytes32=>mapping(bytes4=>address)) interfaces;\\n\\n    /**\\n     * Sets an interface associated with a name.\\n     * Setting the address to 0 restores the default behaviour of querying the contract at `addr()` for interface support.\\n     * @param node The node to update.\\n     * @param interfaceID The EIP 165 interface ID.\\n     * @param implementer The address of a contract that implements this interface for this node.\\n     */\\n    function setInterface(bytes32 node, bytes4 interfaceID, address implementer) external authorised(node) {\\n        interfaces[node][interfaceID] = implementer;\\n        emit InterfaceChanged(node, interfaceID, implementer);\\n    }\\n\\n    /**\\n     * Returns the address of a contract that implements the specified interface for this name.\\n     * If an implementer has not been set for this interfaceID and name, the resolver will query\\n     * the contract at `addr()`. If `addr()` is set, a contract exists at that address, and that\\n     * contract implements EIP165 and returns `true` for the specified interfaceID, its address\\n     * will be returned.\\n     * @param node The ENS node to query.\\n     * @param interfaceID The EIP 165 interface ID to check for.\\n     * @return The address that implements this interface, or 0 if the interface is unsupported.\\n     */\\n    function interfaceImplementer(bytes32 node, bytes4 interfaceID) external view returns (address) {\\n        address implementer = interfaces[node][interfaceID];\\n        if(implementer != address(0)) {\\n            return implementer;\\n        }\\n\\n        address a = addr(node);\\n        if(a == address(0)) {\\n            return address(0);\\n        }\\n\\n        (bool success, bytes memory returnData) = a.staticcall(abi.encodeWithSignature(\\\"supportsInterface(bytes4)\\\", INTERFACE_META_ID));\\n        if(!success || returnData.length < 32 || returnData[31] == 0) {\\n            // EIP 165 not supported by target\\n            return address(0);\\n        }\\n\\n        (success, returnData) = a.staticcall(abi.encodeWithSignature(\\\"supportsInterface(bytes4)\\\", interfaceID));\\n        if(!success || returnData.length < 32 || returnData[31] == 0) {\\n            // Specified interface not supported by target\\n            return address(0);\\n        }\\n\\n        return a;\\n    }\\n\\n    function supportsInterface(bytes4 interfaceID) virtual override(AddrResolver, ResolverBase) public pure returns(bool) {\\n        return interfaceID == INTERFACE_INTERFACE_ID || super.supportsInterface(interfaceID);\\n    }\\n}\\n\",\"keccak256\":\"0x4e06e3117df99a3f6ec7fb00ec542a78d31ffdb19bbaa96b2c96c339f23ae65b\"},\"@ensdomains/ens-contracts/contracts/resolvers/profiles/NameResolver.sol\":{\"content\":\"pragma solidity >=0.8.4;\\nimport \\\"../ResolverBase.sol\\\";\\n\\nabstract contract NameResolver is ResolverBase {\\n    bytes4 constant private NAME_INTERFACE_ID = 0x691f3431;\\n\\n    event NameChanged(bytes32 indexed node, string name);\\n\\n    mapping(bytes32=>string) names;\\n\\n    /**\\n     * Sets the name associated with an ENS node, for reverse records.\\n     * May only be called by the owner of that node in the ENS registry.\\n     * @param node The node to update.\\n     * @param name The name to set.\\n     */\\n    function setName(bytes32 node, string calldata name) external authorised(node) {\\n        names[node] = name;\\n        emit NameChanged(node, name);\\n    }\\n\\n    /**\\n     * Returns the name associated with an ENS node, for reverse records.\\n     * Defined in EIP181.\\n     * @param node The ENS node to query.\\n     * @return The associated name.\\n     */\\n    function name(bytes32 node) external view returns (string memory) {\\n        return names[node];\\n    }\\n\\n    function supportsInterface(bytes4 interfaceID) virtual override public pure returns(bool) {\\n        return interfaceID == NAME_INTERFACE_ID || super.supportsInterface(interfaceID);\\n    }\\n}\\n\",\"keccak256\":\"0x49a44703212e1f5770fbe57dfa2d36806417eb74796af6956b25cbb6121f3f61\"},\"@ensdomains/ens-contracts/contracts/resolvers/profiles/PubkeyResolver.sol\":{\"content\":\"pragma solidity >=0.8.4;\\nimport \\\"../ResolverBase.sol\\\";\\n\\nabstract contract PubkeyResolver is ResolverBase {\\n    bytes4 constant private PUBKEY_INTERFACE_ID = 0xc8690233;\\n\\n    event PubkeyChanged(bytes32 indexed node, bytes32 x, bytes32 y);\\n\\n    struct PublicKey {\\n        bytes32 x;\\n        bytes32 y;\\n    }\\n\\n    mapping(bytes32=>PublicKey) pubkeys;\\n\\n    /**\\n     * Sets the SECP256k1 public key associated with an ENS node.\\n     * @param node The ENS node to query\\n     * @param x the X coordinate of the curve point for the public key.\\n     * @param y the Y coordinate of the curve point for the public key.\\n     */\\n    function setPubkey(bytes32 node, bytes32 x, bytes32 y) external authorised(node) {\\n        pubkeys[node] = PublicKey(x, y);\\n        emit PubkeyChanged(node, x, y);\\n    }\\n\\n    /**\\n     * Returns the SECP256k1 public key associated with an ENS node.\\n     * Defined in EIP 619.\\n     * @param node The ENS node to query\\n     * @return x The X coordinate of the curve point for the public key.\\n     * @return y The Y coordinate of the curve point for the public key.\\n     */\\n    function pubkey(bytes32 node) external view returns (bytes32 x, bytes32 y) {\\n        return (pubkeys[node].x, pubkeys[node].y);\\n    }\\n\\n    function supportsInterface(bytes4 interfaceID) virtual override public pure returns(bool) {\\n        return interfaceID == PUBKEY_INTERFACE_ID || super.supportsInterface(interfaceID);\\n    }\\n}\\n\",\"keccak256\":\"0xc055d31c586552cb87de93a6c2b0e36e9b8671a117a1a76fc1a795c6237e5b06\"},\"@ensdomains/ens-contracts/contracts/resolvers/profiles/TextResolver.sol\":{\"content\":\"pragma solidity >=0.8.4;\\nimport \\\"../ResolverBase.sol\\\";\\n\\nabstract contract TextResolver is ResolverBase {\\n    bytes4 constant private TEXT_INTERFACE_ID = 0x59d1d43c;\\n\\n    event TextChanged(bytes32 indexed node, string indexed indexedKey, string key);\\n\\n    mapping(bytes32=>mapping(string=>string)) texts;\\n\\n    /**\\n     * Sets the text data associated with an ENS node and key.\\n     * May only be called by the owner of that node in the ENS registry.\\n     * @param node The node to update.\\n     * @param key The key to set.\\n     * @param value The text data value to set.\\n     */\\n    function setText(bytes32 node, string calldata key, string calldata value) external authorised(node) {\\n        texts[node][key] = value;\\n        emit TextChanged(node, key, key);\\n    }\\n\\n    /**\\n     * Returns the text data associated with an ENS node and key.\\n     * @param node The ENS node to query.\\n     * @param key The text data key to query.\\n     * @return The associated text data.\\n     */\\n    function text(bytes32 node, string calldata key) external view returns (string memory) {\\n        return texts[node][key];\\n    }\\n\\n    function supportsInterface(bytes4 interfaceID) virtual override public pure returns(bool) {\\n        return interfaceID == TEXT_INTERFACE_ID || super.supportsInterface(interfaceID);\\n    }\\n}\\n\",\"keccak256\":\"0x22ef36660cc42fbccfc8820bee1ec3f2cfac6f8f6cf61fa3ab585e8456557cb2\"},\"@openzeppelin/contracts-upgradeable/access/AccessControlUpgradeable.sol\":{\"content\":\"// SPDX-License-Identifier: MIT\\n\\npragma solidity ^0.8.0;\\n\\nimport \\\"./IAccessControlUpgradeable.sol\\\";\\nimport \\\"../utils/ContextUpgradeable.sol\\\";\\nimport \\\"../utils/StringsUpgradeable.sol\\\";\\nimport \\\"../utils/introspection/ERC165Upgradeable.sol\\\";\\nimport \\\"../proxy/utils/Initializable.sol\\\";\\n\\n/**\\n * @dev Contract module that allows children to implement role-based access\\n * control mechanisms. This is a lightweight version that doesn't allow enumerating role\\n * members except through off-chain means by accessing the contract event logs. Some\\n * applications may benefit from on-chain enumerability, for those cases see\\n * {AccessControlEnumerable}.\\n *\\n * Roles are referred to by their `bytes32` identifier. These should be exposed\\n * in the external API and be unique. The best way to achieve this is by\\n * using `public constant` hash digests:\\n *\\n * ```\\n * bytes32 public constant MY_ROLE = keccak256(\\\"MY_ROLE\\\");\\n * ```\\n *\\n * Roles can be used to represent a set of permissions. To restrict access to a\\n * function call, use {hasRole}:\\n *\\n * ```\\n * function foo() public {\\n *     require(hasRole(MY_ROLE, msg.sender));\\n *     ...\\n * }\\n * ```\\n *\\n * Roles can be granted and revoked dynamically via the {grantRole} and\\n * {revokeRole} functions. Each role has an associated admin role, and only\\n * accounts that have a role's admin role can call {grantRole} and {revokeRole}.\\n *\\n * By default, the admin role for all roles is `DEFAULT_ADMIN_ROLE`, which means\\n * that only accounts with this role will be able to grant or revoke other\\n * roles. More complex role relationships can be created by using\\n * {_setRoleAdmin}.\\n *\\n * WARNING: The `DEFAULT_ADMIN_ROLE` is also its own admin: it has permission to\\n * grant and revoke this role. Extra precautions should be taken to secure\\n * accounts that have been granted it.\\n */\\nabstract contract AccessControlUpgradeable is Initializable, ContextUpgradeable, IAccessControlUpgradeable, ERC165Upgradeable {\\n    function __AccessControl_init() internal initializer {\\n        __Context_init_unchained();\\n        __ERC165_init_unchained();\\n        __AccessControl_init_unchained();\\n    }\\n\\n    function __AccessControl_init_unchained() internal initializer {\\n    }\\n    struct RoleData {\\n        mapping(address => bool) members;\\n        bytes32 adminRole;\\n    }\\n\\n    mapping(bytes32 => RoleData) private _roles;\\n\\n    bytes32 public constant DEFAULT_ADMIN_ROLE = 0x00;\\n\\n    /**\\n     * @dev Modifier that checks that an account has a specific role. Reverts\\n     * with a standardized message including the required role.\\n     *\\n     * The format of the revert reason is given by the following regular expression:\\n     *\\n     *  /^AccessControl: account (0x[0-9a-f]{40}) is missing role (0x[0-9a-f]{64})$/\\n     *\\n     * _Available since v4.1._\\n     */\\n    modifier onlyRole(bytes32 role) {\\n        _checkRole(role, _msgSender());\\n        _;\\n    }\\n\\n    /**\\n     * @dev See {IERC165-supportsInterface}.\\n     */\\n    function supportsInterface(bytes4 interfaceId) public view virtual override returns (bool) {\\n        return interfaceId == type(IAccessControlUpgradeable).interfaceId || super.supportsInterface(interfaceId);\\n    }\\n\\n    /**\\n     * @dev Returns `true` if `account` has been granted `role`.\\n     */\\n    function hasRole(bytes32 role, address account) public view override returns (bool) {\\n        return _roles[role].members[account];\\n    }\\n\\n    /**\\n     * @dev Revert with a standard message if `account` is missing `role`.\\n     *\\n     * The format of the revert reason is given by the following regular expression:\\n     *\\n     *  /^AccessControl: account (0x[0-9a-f]{40}) is missing role (0x[0-9a-f]{64})$/\\n     */\\n    function _checkRole(bytes32 role, address account) internal view {\\n        if (!hasRole(role, account)) {\\n            revert(\\n                string(\\n                    abi.encodePacked(\\n                        \\\"AccessControl: account \\\",\\n                        StringsUpgradeable.toHexString(uint160(account), 20),\\n                        \\\" is missing role \\\",\\n                        StringsUpgradeable.toHexString(uint256(role), 32)\\n                    )\\n                )\\n            );\\n        }\\n    }\\n\\n    /**\\n     * @dev Returns the admin role that controls `role`. See {grantRole} and\\n     * {revokeRole}.\\n     *\\n     * To change a role's admin, use {_setRoleAdmin}.\\n     */\\n    function getRoleAdmin(bytes32 role) public view override returns (bytes32) {\\n        return _roles[role].adminRole;\\n    }\\n\\n    /**\\n     * @dev Grants `role` to `account`.\\n     *\\n     * If `account` had not been already granted `role`, emits a {RoleGranted}\\n     * event.\\n     *\\n     * Requirements:\\n     *\\n     * - the caller must have ``role``'s admin role.\\n     */\\n    function grantRole(bytes32 role, address account) public virtual override onlyRole(getRoleAdmin(role)) {\\n        _grantRole(role, account);\\n    }\\n\\n    /**\\n     * @dev Revokes `role` from `account`.\\n     *\\n     * If `account` had been granted `role`, emits a {RoleRevoked} event.\\n     *\\n     * Requirements:\\n     *\\n     * - the caller must have ``role``'s admin role.\\n     */\\n    function revokeRole(bytes32 role, address account) public virtual override onlyRole(getRoleAdmin(role)) {\\n        _revokeRole(role, account);\\n    }\\n\\n    /**\\n     * @dev Revokes `role` from the calling account.\\n     *\\n     * Roles are often managed via {grantRole} and {revokeRole}: this function's\\n     * purpose is to provide a mechanism for accounts to lose their privileges\\n     * if they are compromised (such as when a trusted device is misplaced).\\n     *\\n     * If the calling account had been granted `role`, emits a {RoleRevoked}\\n     * event.\\n     *\\n     * Requirements:\\n     *\\n     * - the caller must be `account`.\\n     */\\n    function renounceRole(bytes32 role, address account) public virtual override {\\n        require(account == _msgSender(), \\\"AccessControl: can only renounce roles for self\\\");\\n\\n        _revokeRole(role, account);\\n    }\\n\\n    /**\\n     * @dev Grants `role` to `account`.\\n     *\\n     * If `account` had not been already granted `role`, emits a {RoleGranted}\\n     * event. Note that unlike {grantRole}, this function doesn't perform any\\n     * checks on the calling account.\\n     *\\n     * [WARNING]\\n     * ====\\n     * This function should only be called from the constructor when setting\\n     * up the initial roles for the system.\\n     *\\n     * Using this function in any other way is effectively circumventing the admin\\n     * system imposed by {AccessControl}.\\n     * ====\\n     */\\n    function _setupRole(bytes32 role, address account) internal virtual {\\n        _grantRole(role, account);\\n    }\\n\\n    /**\\n     * @dev Sets `adminRole` as ``role``'s admin role.\\n     *\\n     * Emits a {RoleAdminChanged} event.\\n     */\\n    function _setRoleAdmin(bytes32 role, bytes32 adminRole) internal virtual {\\n        bytes32 previousAdminRole = getRoleAdmin(role);\\n        _roles[role].adminRole = adminRole;\\n        emit RoleAdminChanged(role, previousAdminRole, adminRole);\\n    }\\n\\n    function _grantRole(bytes32 role, address account) private {\\n        if (!hasRole(role, account)) {\\n            _roles[role].members[account] = true;\\n            emit RoleGranted(role, account, _msgSender());\\n        }\\n    }\\n\\n    function _revokeRole(bytes32 role, address account) private {\\n        if (hasRole(role, account)) {\\n            _roles[role].members[account] = false;\\n            emit RoleRevoked(role, account, _msgSender());\\n        }\\n    }\\n    uint256[49] private __gap;\\n}\\n\",\"keccak256\":\"0x29d96f28c0dfcd25ddffef02e56438bde20e1135df9745d7eeb196f08665da6d\",\"license\":\"MIT\"},\"@openzeppelin/contracts-upgradeable/access/IAccessControlUpgradeable.sol\":{\"content\":\"// SPDX-License-Identifier: MIT\\n\\npragma solidity ^0.8.0;\\n\\n/**\\n * @dev External interface of AccessControl declared to support ERC165 detection.\\n */\\ninterface IAccessControlUpgradeable {\\n    /**\\n     * @dev Emitted when `newAdminRole` is set as ``role``'s admin role, replacing `previousAdminRole`\\n     *\\n     * `DEFAULT_ADMIN_ROLE` is the starting admin for all roles, despite\\n     * {RoleAdminChanged} not being emitted signaling this.\\n     *\\n     * _Available since v3.1._\\n     */\\n    event RoleAdminChanged(bytes32 indexed role, bytes32 indexed previousAdminRole, bytes32 indexed newAdminRole);\\n\\n    /**\\n     * @dev Emitted when `account` is granted `role`.\\n     *\\n     * `sender` is the account that originated the contract call, an admin role\\n     * bearer except when using {AccessControl-_setupRole}.\\n     */\\n    event RoleGranted(bytes32 indexed role, address indexed account, address indexed sender);\\n\\n    /**\\n     * @dev Emitted when `account` is revoked `role`.\\n     *\\n     * `sender` is the account that originated the contract call:\\n     *   - if using `revokeRole`, it is the admin role bearer\\n     *   - if using `renounceRole`, it is the role bearer (i.e. `account`)\\n     */\\n    event RoleRevoked(bytes32 indexed role, address indexed account, address indexed sender);\\n\\n    /**\\n     * @dev Returns `true` if `account` has been granted `role`.\\n     */\\n    function hasRole(bytes32 role, address account) external view returns (bool);\\n\\n    /**\\n     * @dev Returns the admin role that controls `role`. See {grantRole} and\\n     * {revokeRole}.\\n     *\\n     * To change a role's admin, use {AccessControl-_setRoleAdmin}.\\n     */\\n    function getRoleAdmin(bytes32 role) external view returns (bytes32);\\n\\n    /**\\n     * @dev Grants `role` to `account`.\\n     *\\n     * If `account` had not been already granted `role`, emits a {RoleGranted}\\n     * event.\\n     *\\n     * Requirements:\\n     *\\n     * - the caller must have ``role``'s admin role.\\n     */\\n    function grantRole(bytes32 role, address account) external;\\n\\n    /**\\n     * @dev Revokes `role` from `account`.\\n     *\\n     * If `account` had been granted `role`, emits a {RoleRevoked} event.\\n     *\\n     * Requirements:\\n     *\\n     * - the caller must have ``role``'s admin role.\\n     */\\n    function revokeRole(bytes32 role, address account) external;\\n\\n    /**\\n     * @dev Revokes `role` from the calling account.\\n     *\\n     * Roles are often managed via {grantRole} and {revokeRole}: this function's\\n     * purpose is to provide a mechanism for accounts to lose their privileges\\n     * if they are compromised (such as when a trusted device is misplaced).\\n     *\\n     * If the calling account had been granted `role`, emits a {RoleRevoked}\\n     * event.\\n     *\\n     * Requirements:\\n     *\\n     * - the caller must be `account`.\\n     */\\n    function renounceRole(bytes32 role, address account) external;\\n}\\n\",\"keccak256\":\"0xb138a22255a0c28ffa169cd269120bbfa27711cefe14b531462b22560cf374fc\",\"license\":\"MIT\"},\"@openzeppelin/contracts-upgradeable/proxy/utils/Initializable.sol\":{\"content\":\"// SPDX-License-Identifier: MIT\\n\\npragma solidity ^0.8.0;\\n\\n/**\\n * @dev This is a base contract to aid in writing upgradeable contracts, or any kind of contract that will be deployed\\n * behind a proxy. Since a proxied contract can't have a constructor, it's common to move constructor logic to an\\n * external initializer function, usually called `initialize`. It then becomes necessary to protect this initializer\\n * function so it can only be called once. The {initializer} modifier provided by this contract will have this effect.\\n *\\n * TIP: To avoid leaving the proxy in an uninitialized state, the initializer function should be called as early as\\n * possible by providing the encoded function call as the `_data` argument to {ERC1967Proxy-constructor}.\\n *\\n * CAUTION: When used with inheritance, manual care must be taken to not invoke a parent initializer twice, or to ensure\\n * that all initializers are idempotent. This is not verified automatically as constructors are by Solidity.\\n */\\nabstract contract Initializable {\\n    /**\\n     * @dev Indicates that the contract has been initialized.\\n     */\\n    bool private _initialized;\\n\\n    /**\\n     * @dev Indicates that the contract is in the process of being initialized.\\n     */\\n    bool private _initializing;\\n\\n    /**\\n     * @dev Modifier to protect an initializer function from being invoked twice.\\n     */\\n    modifier initializer() {\\n        require(_initializing || !_initialized, \\\"Initializable: contract is already initialized\\\");\\n\\n        bool isTopLevelCall = !_initializing;\\n        if (isTopLevelCall) {\\n            _initializing = true;\\n            _initialized = true;\\n        }\\n\\n        _;\\n\\n        if (isTopLevelCall) {\\n            _initializing = false;\\n        }\\n    }\\n}\\n\",\"keccak256\":\"0x8b2abd85d0ece7e866e100e9d47ca9cbec93c87cf71a8d267b2b93eb81f7d5e9\",\"license\":\"MIT\"},\"@openzeppelin/contracts-upgradeable/token/ERC20/ERC20Upgradeable.sol\":{\"content\":\"// SPDX-License-Identifier: MIT\\n\\npragma solidity ^0.8.0;\\n\\nimport \\\"./IERC20Upgradeable.sol\\\";\\nimport \\\"./extensions/IERC20MetadataUpgradeable.sol\\\";\\nimport \\\"../../utils/ContextUpgradeable.sol\\\";\\nimport \\\"../../proxy/utils/Initializable.sol\\\";\\n\\n/**\\n * @dev Implementation of the {IERC20} interface.\\n *\\n * This implementation is agnostic to the way tokens are created. This means\\n * that a supply mechanism has to be added in a derived contract using {_mint}.\\n * For a generic mechanism see {ERC20PresetMinterPauser}.\\n *\\n * TIP: For a detailed writeup see our guide\\n * https://forum.zeppelin.solutions/t/how-to-implement-erc20-supply-mechanisms/226[How\\n * to implement supply mechanisms].\\n *\\n * We have followed general OpenZeppelin Contracts guidelines: functions revert\\n * instead returning `false` on failure. This behavior is nonetheless\\n * conventional and does not conflict with the expectations of ERC20\\n * applications.\\n *\\n * Additionally, an {Approval} event is emitted on calls to {transferFrom}.\\n * This allows applications to reconstruct the allowance for all accounts just\\n * by listening to said events. Other implementations of the EIP may not emit\\n * these events, as it isn't required by the specification.\\n *\\n * Finally, the non-standard {decreaseAllowance} and {increaseAllowance}\\n * functions have been added to mitigate the well-known issues around setting\\n * allowances. See {IERC20-approve}.\\n */\\ncontract ERC20Upgradeable is Initializable, ContextUpgradeable, IERC20Upgradeable, IERC20MetadataUpgradeable {\\n    mapping(address => uint256) private _balances;\\n\\n    mapping(address => mapping(address => uint256)) private _allowances;\\n\\n    uint256 private _totalSupply;\\n\\n    string private _name;\\n    string private _symbol;\\n\\n    /**\\n     * @dev Sets the values for {name} and {symbol}.\\n     *\\n     * The default value of {decimals} is 18. To select a different value for\\n     * {decimals} you should overload it.\\n     *\\n     * All two of these values are immutable: they can only be set once during\\n     * construction.\\n     */\\n    function __ERC20_init(string memory name_, string memory symbol_) internal initializer {\\n        __Context_init_unchained();\\n        __ERC20_init_unchained(name_, symbol_);\\n    }\\n\\n    function __ERC20_init_unchained(string memory name_, string memory symbol_) internal initializer {\\n        _name = name_;\\n        _symbol = symbol_;\\n    }\\n\\n    /**\\n     * @dev Returns the name of the token.\\n     */\\n    function name() public view virtual override returns (string memory) {\\n        return _name;\\n    }\\n\\n    /**\\n     * @dev Returns the symbol of the token, usually a shorter version of the\\n     * name.\\n     */\\n    function symbol() public view virtual override returns (string memory) {\\n        return _symbol;\\n    }\\n\\n    /**\\n     * @dev Returns the number of decimals used to get its user representation.\\n     * For example, if `decimals` equals `2`, a balance of `505` tokens should\\n     * be displayed to a user as `5.05` (`505 / 10 ** 2`).\\n     *\\n     * Tokens usually opt for a value of 18, imitating the relationship between\\n     * Ether and Wei. This is the value {ERC20} uses, unless this function is\\n     * overridden;\\n     *\\n     * NOTE: This information is only used for _display_ purposes: it in\\n     * no way affects any of the arithmetic of the contract, including\\n     * {IERC20-balanceOf} and {IERC20-transfer}.\\n     */\\n    function decimals() public view virtual override returns (uint8) {\\n        return 18;\\n    }\\n\\n    /**\\n     * @dev See {IERC20-totalSupply}.\\n     */\\n    function totalSupply() public view virtual override returns (uint256) {\\n        return _totalSupply;\\n    }\\n\\n    /**\\n     * @dev See {IERC20-balanceOf}.\\n     */\\n    function balanceOf(address account) public view virtual override returns (uint256) {\\n        return _balances[account];\\n    }\\n\\n    /**\\n     * @dev See {IERC20-transfer}.\\n     *\\n     * Requirements:\\n     *\\n     * - `recipient` cannot be the zero address.\\n     * - the caller must have a balance of at least `amount`.\\n     */\\n    function transfer(address recipient, uint256 amount) public virtual override returns (bool) {\\n        _transfer(_msgSender(), recipient, amount);\\n        return true;\\n    }\\n\\n    /**\\n     * @dev See {IERC20-allowance}.\\n     */\\n    function allowance(address owner, address spender) public view virtual override returns (uint256) {\\n        return _allowances[owner][spender];\\n    }\\n\\n    /**\\n     * @dev See {IERC20-approve}.\\n     *\\n     * Requirements:\\n     *\\n     * - `spender` cannot be the zero address.\\n     */\\n    function approve(address spender, uint256 amount) public virtual override returns (bool) {\\n        _approve(_msgSender(), spender, amount);\\n        return true;\\n    }\\n\\n    /**\\n     * @dev See {IERC20-transferFrom}.\\n     *\\n     * Emits an {Approval} event indicating the updated allowance. This is not\\n     * required by the EIP. See the note at the beginning of {ERC20}.\\n     *\\n     * Requirements:\\n     *\\n     * - `sender` and `recipient` cannot be the zero address.\\n     * - `sender` must have a balance of at least `amount`.\\n     * - the caller must have allowance for ``sender``'s tokens of at least\\n     * `amount`.\\n     */\\n    function transferFrom(\\n        address sender,\\n        address recipient,\\n        uint256 amount\\n    ) public virtual override returns (bool) {\\n        _transfer(sender, recipient, amount);\\n\\n        uint256 currentAllowance = _allowances[sender][_msgSender()];\\n        require(currentAllowance >= amount, \\\"ERC20: transfer amount exceeds allowance\\\");\\n        unchecked {\\n            _approve(sender, _msgSender(), currentAllowance - amount);\\n        }\\n\\n        return true;\\n    }\\n\\n    /**\\n     * @dev Atomically increases the allowance granted to `spender` by the caller.\\n     *\\n     * This is an alternative to {approve} that can be used as a mitigation for\\n     * problems described in {IERC20-approve}.\\n     *\\n     * Emits an {Approval} event indicating the updated allowance.\\n     *\\n     * Requirements:\\n     *\\n     * - `spender` cannot be the zero address.\\n     */\\n    function increaseAllowance(address spender, uint256 addedValue) public virtual returns (bool) {\\n        _approve(_msgSender(), spender, _allowances[_msgSender()][spender] + addedValue);\\n        return true;\\n    }\\n\\n    /**\\n     * @dev Atomically decreases the allowance granted to `spender` by the caller.\\n     *\\n     * This is an alternative to {approve} that can be used as a mitigation for\\n     * problems described in {IERC20-approve}.\\n     *\\n     * Emits an {Approval} event indicating the updated allowance.\\n     *\\n     * Requirements:\\n     *\\n     * - `spender` cannot be the zero address.\\n     * - `spender` must have allowance for the caller of at least\\n     * `subtractedValue`.\\n     */\\n    function decreaseAllowance(address spender, uint256 subtractedValue) public virtual returns (bool) {\\n        uint256 currentAllowance = _allowances[_msgSender()][spender];\\n        require(currentAllowance >= subtractedValue, \\\"ERC20: decreased allowance below zero\\\");\\n        unchecked {\\n            _approve(_msgSender(), spender, currentAllowance - subtractedValue);\\n        }\\n\\n        return true;\\n    }\\n\\n    /**\\n     * @dev Moves `amount` of tokens from `sender` to `recipient`.\\n     *\\n     * This internal function is equivalent to {transfer}, and can be used to\\n     * e.g. implement automatic token fees, slashing mechanisms, etc.\\n     *\\n     * Emits a {Transfer} event.\\n     *\\n     * Requirements:\\n     *\\n     * - `sender` cannot be the zero address.\\n     * - `recipient` cannot be the zero address.\\n     * - `sender` must have a balance of at least `amount`.\\n     */\\n    function _transfer(\\n        address sender,\\n        address recipient,\\n        uint256 amount\\n    ) internal virtual {\\n        require(sender != address(0), \\\"ERC20: transfer from the zero address\\\");\\n        require(recipient != address(0), \\\"ERC20: transfer to the zero address\\\");\\n\\n        _beforeTokenTransfer(sender, recipient, amount);\\n\\n        uint256 senderBalance = _balances[sender];\\n        require(senderBalance >= amount, \\\"ERC20: transfer amount exceeds balance\\\");\\n        unchecked {\\n            _balances[sender] = senderBalance - amount;\\n        }\\n        _balances[recipient] += amount;\\n\\n        emit Transfer(sender, recipient, amount);\\n\\n        _afterTokenTransfer(sender, recipient, amount);\\n    }\\n\\n    /** @dev Creates `amount` tokens and assigns them to `account`, increasing\\n     * the total supply.\\n     *\\n     * Emits a {Transfer} event with `from` set to the zero address.\\n     *\\n     * Requirements:\\n     *\\n     * - `account` cannot be the zero address.\\n     */\\n    function _mint(address account, uint256 amount) internal virtual {\\n        require(account != address(0), \\\"ERC20: mint to the zero address\\\");\\n\\n        _beforeTokenTransfer(address(0), account, amount);\\n\\n        _totalSupply += amount;\\n        _balances[account] += amount;\\n        emit Transfer(address(0), account, amount);\\n\\n        _afterTokenTransfer(address(0), account, amount);\\n    }\\n\\n    /**\\n     * @dev Destroys `amount` tokens from `account`, reducing the\\n     * total supply.\\n     *\\n     * Emits a {Transfer} event with `to` set to the zero address.\\n     *\\n     * Requirements:\\n     *\\n     * - `account` cannot be the zero address.\\n     * - `account` must have at least `amount` tokens.\\n     */\\n    function _burn(address account, uint256 amount) internal virtual {\\n        require(account != address(0), \\\"ERC20: burn from the zero address\\\");\\n\\n        _beforeTokenTransfer(account, address(0), amount);\\n\\n        uint256 accountBalance = _balances[account];\\n        require(accountBalance >= amount, \\\"ERC20: burn amount exceeds balance\\\");\\n        unchecked {\\n            _balances[account] = accountBalance - amount;\\n        }\\n        _totalSupply -= amount;\\n\\n        emit Transfer(account, address(0), amount);\\n\\n        _afterTokenTransfer(account, address(0), amount);\\n    }\\n\\n    /**\\n     * @dev Sets `amount` as the allowance of `spender` over the `owner` s tokens.\\n     *\\n     * This internal function is equivalent to `approve`, and can be used to\\n     * e.g. set automatic allowances for certain subsystems, etc.\\n     *\\n     * Emits an {Approval} event.\\n     *\\n     * Requirements:\\n     *\\n     * - `owner` cannot be the zero address.\\n     * - `spender` cannot be the zero address.\\n     */\\n    function _approve(\\n        address owner,\\n        address spender,\\n        uint256 amount\\n    ) internal virtual {\\n        require(owner != address(0), \\\"ERC20: approve from the zero address\\\");\\n        require(spender != address(0), \\\"ERC20: approve to the zero address\\\");\\n\\n        _allowances[owner][spender] = amount;\\n        emit Approval(owner, spender, amount);\\n    }\\n\\n    /**\\n     * @dev Hook that is called before any transfer of tokens. This includes\\n     * minting and burning.\\n     *\\n     * Calling conditions:\\n     *\\n     * - when `from` and `to` are both non-zero, `amount` of ``from``'s tokens\\n     * will be transferred to `to`.\\n     * - when `from` is zero, `amount` tokens will be minted for `to`.\\n     * - when `to` is zero, `amount` of ``from``'s tokens will be burned.\\n     * - `from` and `to` are never both zero.\\n     *\\n     * To learn more about hooks, head to xref:ROOT:extending-contracts.adoc#using-hooks[Using Hooks].\\n     */\\n    function _beforeTokenTransfer(\\n        address from,\\n        address to,\\n        uint256 amount\\n    ) internal virtual {}\\n\\n    /**\\n     * @dev Hook that is called after any transfer of tokens. This includes\\n     * minting and burning.\\n     *\\n     * Calling conditions:\\n     *\\n     * - when `from` and `to` are both non-zero, `amount` of ``from``'s tokens\\n     * has been transferred to `to`.\\n     * - when `from` is zero, `amount` tokens have been minted for `to`.\\n     * - when `to` is zero, `amount` of ``from``'s tokens have been burned.\\n     * - `from` and `to` are never both zero.\\n     *\\n     * To learn more about hooks, head to xref:ROOT:extending-contracts.adoc#using-hooks[Using Hooks].\\n     */\\n    function _afterTokenTransfer(\\n        address from,\\n        address to,\\n        uint256 amount\\n    ) internal virtual {}\\n    uint256[45] private __gap;\\n}\\n\",\"keccak256\":\"0x891fbf39ac5b9524f417db912d33684f239195a0fc5c11db439659676e51aab6\",\"license\":\"MIT\"},\"@openzeppelin/contracts-upgradeable/token/ERC20/IERC20Upgradeable.sol\":{\"content\":\"// SPDX-License-Identifier: MIT\\n\\npragma solidity ^0.8.0;\\n\\n/**\\n * @dev Interface of the ERC20 standard as defined in the EIP.\\n */\\ninterface IERC20Upgradeable {\\n    /**\\n     * @dev Returns the amount of tokens in existence.\\n     */\\n    function totalSupply() external view returns (uint256);\\n\\n    /**\\n     * @dev Returns the amount of tokens owned by `account`.\\n     */\\n    function balanceOf(address account) external view returns (uint256);\\n\\n    /**\\n     * @dev Moves `amount` tokens from the caller's account to `recipient`.\\n     *\\n     * Returns a boolean value indicating whether the operation succeeded.\\n     *\\n     * Emits a {Transfer} event.\\n     */\\n    function transfer(address recipient, uint256 amount) external returns (bool);\\n\\n    /**\\n     * @dev Returns the remaining number of tokens that `spender` will be\\n     * allowed to spend on behalf of `owner` through {transferFrom}. This is\\n     * zero by default.\\n     *\\n     * This value changes when {approve} or {transferFrom} are called.\\n     */\\n    function allowance(address owner, address spender) external view returns (uint256);\\n\\n    /**\\n     * @dev Sets `amount` as the allowance of `spender` over the caller's tokens.\\n     *\\n     * Returns a boolean value indicating whether the operation succeeded.\\n     *\\n     * IMPORTANT: Beware that changing an allowance with this method brings the risk\\n     * that someone may use both the old and the new allowance by unfortunate\\n     * transaction ordering. One possible solution to mitigate this race\\n     * condition is to first reduce the spender's allowance to 0 and set the\\n     * desired value afterwards:\\n     * https://github.com/ethereum/EIPs/issues/20#issuecomment-263524729\\n     *\\n     * Emits an {Approval} event.\\n     */\\n    function approve(address spender, uint256 amount) external returns (bool);\\n\\n    /**\\n     * @dev Moves `amount` tokens from `sender` to `recipient` using the\\n     * allowance mechanism. `amount` is then deducted from the caller's\\n     * allowance.\\n     *\\n     * Returns a boolean value indicating whether the operation succeeded.\\n     *\\n     * Emits a {Transfer} event.\\n     */\\n    function transferFrom(\\n        address sender,\\n        address recipient,\\n        uint256 amount\\n    ) external returns (bool);\\n\\n    /**\\n     * @dev Emitted when `value` tokens are moved from one account (`from`) to\\n     * another (`to`).\\n     *\\n     * Note that `value` may be zero.\\n     */\\n    event Transfer(address indexed from, address indexed to, uint256 value);\\n\\n    /**\\n     * @dev Emitted when the allowance of a `spender` for an `owner` is set by\\n     * a call to {approve}. `value` is the new allowance.\\n     */\\n    event Approval(address indexed owner, address indexed spender, uint256 value);\\n}\\n\",\"keccak256\":\"0xf449ca0a763d4b1b4462cf8706857074492f324020a2b9d099181b5383055ad3\",\"license\":\"MIT\"},\"@openzeppelin/contracts-upgradeable/token/ERC20/extensions/IERC20MetadataUpgradeable.sol\":{\"content\":\"// SPDX-License-Identifier: MIT\\n\\npragma solidity ^0.8.0;\\n\\nimport \\\"../IERC20Upgradeable.sol\\\";\\n\\n/**\\n * @dev Interface for the optional metadata functions from the ERC20 standard.\\n *\\n * _Available since v4.1._\\n */\\ninterface IERC20MetadataUpgradeable is IERC20Upgradeable {\\n    /**\\n     * @dev Returns the name of the token.\\n     */\\n    function name() external view returns (string memory);\\n\\n    /**\\n     * @dev Returns the symbol of the token.\\n     */\\n    function symbol() external view returns (string memory);\\n\\n    /**\\n     * @dev Returns the decimals places of the token.\\n     */\\n    function decimals() external view returns (uint8);\\n}\\n\",\"keccak256\":\"0x6795c369a4eefa78468e38966f7851fbc2dda5e5b9ccd3fa2b45970e2e4d3abd\",\"license\":\"MIT\"},\"@openzeppelin/contracts-upgradeable/token/ERC721/ERC721Upgradeable.sol\":{\"content\":\"// SPDX-License-Identifier: MIT\\n\\npragma solidity ^0.8.0;\\n\\nimport \\\"./IERC721Upgradeable.sol\\\";\\nimport \\\"./IERC721ReceiverUpgradeable.sol\\\";\\nimport \\\"./extensions/IERC721MetadataUpgradeable.sol\\\";\\nimport \\\"../../utils/AddressUpgradeable.sol\\\";\\nimport \\\"../../utils/ContextUpgradeable.sol\\\";\\nimport \\\"../../utils/StringsUpgradeable.sol\\\";\\nimport \\\"../../utils/introspection/ERC165Upgradeable.sol\\\";\\nimport \\\"../../proxy/utils/Initializable.sol\\\";\\n\\n/**\\n * @dev Implementation of https://eips.ethereum.org/EIPS/eip-721[ERC721] Non-Fungible Token Standard, including\\n * the Metadata extension, but not including the Enumerable extension, which is available separately as\\n * {ERC721Enumerable}.\\n */\\ncontract ERC721Upgradeable is Initializable, ContextUpgradeable, ERC165Upgradeable, IERC721Upgradeable, IERC721MetadataUpgradeable {\\n    using AddressUpgradeable for address;\\n    using StringsUpgradeable for uint256;\\n\\n    // Token name\\n    string private _name;\\n\\n    // Token symbol\\n    string private _symbol;\\n\\n    // Mapping from token ID to owner address\\n    mapping(uint256 => address) private _owners;\\n\\n    // Mapping owner address to token count\\n    mapping(address => uint256) private _balances;\\n\\n    // Mapping from token ID to approved address\\n    mapping(uint256 => address) private _tokenApprovals;\\n\\n    // Mapping from owner to operator approvals\\n    mapping(address => mapping(address => bool)) private _operatorApprovals;\\n\\n    /**\\n     * @dev Initializes the contract by setting a `name` and a `symbol` to the token collection.\\n     */\\n    function __ERC721_init(string memory name_, string memory symbol_) internal initializer {\\n        __Context_init_unchained();\\n        __ERC165_init_unchained();\\n        __ERC721_init_unchained(name_, symbol_);\\n    }\\n\\n    function __ERC721_init_unchained(string memory name_, string memory symbol_) internal initializer {\\n        _name = name_;\\n        _symbol = symbol_;\\n    }\\n\\n    /**\\n     * @dev See {IERC165-supportsInterface}.\\n     */\\n    function supportsInterface(bytes4 interfaceId) public view virtual override(ERC165Upgradeable, IERC165Upgradeable) returns (bool) {\\n        return\\n            interfaceId == type(IERC721Upgradeable).interfaceId ||\\n            interfaceId == type(IERC721MetadataUpgradeable).interfaceId ||\\n            super.supportsInterface(interfaceId);\\n    }\\n\\n    /**\\n     * @dev See {IERC721-balanceOf}.\\n     */\\n    function balanceOf(address owner) public view virtual override returns (uint256) {\\n        require(owner != address(0), \\\"ERC721: balance query for the zero address\\\");\\n        return _balances[owner];\\n    }\\n\\n    /**\\n     * @dev See {IERC721-ownerOf}.\\n     */\\n    function ownerOf(uint256 tokenId) public view virtual override returns (address) {\\n        address owner = _owners[tokenId];\\n        require(owner != address(0), \\\"ERC721: owner query for nonexistent token\\\");\\n        return owner;\\n    }\\n\\n    /**\\n     * @dev See {IERC721Metadata-name}.\\n     */\\n    function name() public view virtual override returns (string memory) {\\n        return _name;\\n    }\\n\\n    /**\\n     * @dev See {IERC721Metadata-symbol}.\\n     */\\n    function symbol() public view virtual override returns (string memory) {\\n        return _symbol;\\n    }\\n\\n    /**\\n     * @dev See {IERC721Metadata-tokenURI}.\\n     */\\n    function tokenURI(uint256 tokenId) public view virtual override returns (string memory) {\\n        require(_exists(tokenId), \\\"ERC721Metadata: URI query for nonexistent token\\\");\\n\\n        string memory baseURI = _baseURI();\\n        return bytes(baseURI).length > 0 ? string(abi.encodePacked(baseURI, tokenId.toString())) : \\\"\\\";\\n    }\\n\\n    /**\\n     * @dev Base URI for computing {tokenURI}. If set, the resulting URI for each\\n     * token will be the concatenation of the `baseURI` and the `tokenId`. Empty\\n     * by default, can be overriden in child contracts.\\n     */\\n    function _baseURI() internal view virtual returns (string memory) {\\n        return \\\"\\\";\\n    }\\n\\n    /**\\n     * @dev See {IERC721-approve}.\\n     */\\n    function approve(address to, uint256 tokenId) public virtual override {\\n        address owner = ERC721Upgradeable.ownerOf(tokenId);\\n        require(to != owner, \\\"ERC721: approval to current owner\\\");\\n\\n        require(\\n            _msgSender() == owner || isApprovedForAll(owner, _msgSender()),\\n            \\\"ERC721: approve caller is not owner nor approved for all\\\"\\n        );\\n\\n        _approve(to, tokenId);\\n    }\\n\\n    /**\\n     * @dev See {IERC721-getApproved}.\\n     */\\n    function getApproved(uint256 tokenId) public view virtual override returns (address) {\\n        require(_exists(tokenId), \\\"ERC721: approved query for nonexistent token\\\");\\n\\n        return _tokenApprovals[tokenId];\\n    }\\n\\n    /**\\n     * @dev See {IERC721-setApprovalForAll}.\\n     */\\n    function setApprovalForAll(address operator, bool approved) public virtual override {\\n        require(operator != _msgSender(), \\\"ERC721: approve to caller\\\");\\n\\n        _operatorApprovals[_msgSender()][operator] = approved;\\n        emit ApprovalForAll(_msgSender(), operator, approved);\\n    }\\n\\n    /**\\n     * @dev See {IERC721-isApprovedForAll}.\\n     */\\n    function isApprovedForAll(address owner, address operator) public view virtual override returns (bool) {\\n        return _operatorApprovals[owner][operator];\\n    }\\n\\n    /**\\n     * @dev See {IERC721-transferFrom}.\\n     */\\n    function transferFrom(\\n        address from,\\n        address to,\\n        uint256 tokenId\\n    ) public virtual override {\\n        //solhint-disable-next-line max-line-length\\n        require(_isApprovedOrOwner(_msgSender(), tokenId), \\\"ERC721: transfer caller is not owner nor approved\\\");\\n\\n        _transfer(from, to, tokenId);\\n    }\\n\\n    /**\\n     * @dev See {IERC721-safeTransferFrom}.\\n     */\\n    function safeTransferFrom(\\n        address from,\\n        address to,\\n        uint256 tokenId\\n    ) public virtual override {\\n        safeTransferFrom(from, to, tokenId, \\\"\\\");\\n    }\\n\\n    /**\\n     * @dev See {IERC721-safeTransferFrom}.\\n     */\\n    function safeTransferFrom(\\n        address from,\\n        address to,\\n        uint256 tokenId,\\n        bytes memory _data\\n    ) public virtual override {\\n        require(_isApprovedOrOwner(_msgSender(), tokenId), \\\"ERC721: transfer caller is not owner nor approved\\\");\\n        _safeTransfer(from, to, tokenId, _data);\\n    }\\n\\n    /**\\n     * @dev Safely transfers `tokenId` token from `from` to `to`, checking first that contract recipients\\n     * are aware of the ERC721 protocol to prevent tokens from being forever locked.\\n     *\\n     * `_data` is additional data, it has no specified format and it is sent in call to `to`.\\n     *\\n     * This internal function is equivalent to {safeTransferFrom}, and can be used to e.g.\\n     * implement alternative mechanisms to perform token transfer, such as signature-based.\\n     *\\n     * Requirements:\\n     *\\n     * - `from` cannot be the zero address.\\n     * - `to` cannot be the zero address.\\n     * - `tokenId` token must exist and be owned by `from`.\\n     * - If `to` refers to a smart contract, it must implement {IERC721Receiver-onERC721Received}, which is called upon a safe transfer.\\n     *\\n     * Emits a {Transfer} event.\\n     */\\n    function _safeTransfer(\\n        address from,\\n        address to,\\n        uint256 tokenId,\\n        bytes memory _data\\n    ) internal virtual {\\n        _transfer(from, to, tokenId);\\n        require(_checkOnERC721Received(from, to, tokenId, _data), \\\"ERC721: transfer to non ERC721Receiver implementer\\\");\\n    }\\n\\n    /**\\n     * @dev Returns whether `tokenId` exists.\\n     *\\n     * Tokens can be managed by their owner or approved accounts via {approve} or {setApprovalForAll}.\\n     *\\n     * Tokens start existing when they are minted (`_mint`),\\n     * and stop existing when they are burned (`_burn`).\\n     */\\n    function _exists(uint256 tokenId) internal view virtual returns (bool) {\\n        return _owners[tokenId] != address(0);\\n    }\\n\\n    /**\\n     * @dev Returns whether `spender` is allowed to manage `tokenId`.\\n     *\\n     * Requirements:\\n     *\\n     * - `tokenId` must exist.\\n     */\\n    function _isApprovedOrOwner(address spender, uint256 tokenId) internal view virtual returns (bool) {\\n        require(_exists(tokenId), \\\"ERC721: operator query for nonexistent token\\\");\\n        address owner = ERC721Upgradeable.ownerOf(tokenId);\\n        return (spender == owner || getApproved(tokenId) == spender || isApprovedForAll(owner, spender));\\n    }\\n\\n    /**\\n     * @dev Safely mints `tokenId` and transfers it to `to`.\\n     *\\n     * Requirements:\\n     *\\n     * - `tokenId` must not exist.\\n     * - If `to` refers to a smart contract, it must implement {IERC721Receiver-onERC721Received}, which is called upon a safe transfer.\\n     *\\n     * Emits a {Transfer} event.\\n     */\\n    function _safeMint(address to, uint256 tokenId) internal virtual {\\n        _safeMint(to, tokenId, \\\"\\\");\\n    }\\n\\n    /**\\n     * @dev Same as {xref-ERC721-_safeMint-address-uint256-}[`_safeMint`], with an additional `data` parameter which is\\n     * forwarded in {IERC721Receiver-onERC721Received} to contract recipients.\\n     */\\n    function _safeMint(\\n        address to,\\n        uint256 tokenId,\\n        bytes memory _data\\n    ) internal virtual {\\n        _mint(to, tokenId);\\n        require(\\n            _checkOnERC721Received(address(0), to, tokenId, _data),\\n            \\\"ERC721: transfer to non ERC721Receiver implementer\\\"\\n        );\\n    }\\n\\n    /**\\n     * @dev Mints `tokenId` and transfers it to `to`.\\n     *\\n     * WARNING: Usage of this method is discouraged, use {_safeMint} whenever possible\\n     *\\n     * Requirements:\\n     *\\n     * - `tokenId` must not exist.\\n     * - `to` cannot be the zero address.\\n     *\\n     * Emits a {Transfer} event.\\n     */\\n    function _mint(address to, uint256 tokenId) internal virtual {\\n        require(to != address(0), \\\"ERC721: mint to the zero address\\\");\\n        require(!_exists(tokenId), \\\"ERC721: token already minted\\\");\\n\\n        _beforeTokenTransfer(address(0), to, tokenId);\\n\\n        _balances[to] += 1;\\n        _owners[tokenId] = to;\\n\\n        emit Transfer(address(0), to, tokenId);\\n    }\\n\\n    /**\\n     * @dev Destroys `tokenId`.\\n     * The approval is cleared when the token is burned.\\n     *\\n     * Requirements:\\n     *\\n     * - `tokenId` must exist.\\n     *\\n     * Emits a {Transfer} event.\\n     */\\n    function _burn(uint256 tokenId) internal virtual {\\n        address owner = ERC721Upgradeable.ownerOf(tokenId);\\n\\n        _beforeTokenTransfer(owner, address(0), tokenId);\\n\\n        // Clear approvals\\n        _approve(address(0), tokenId);\\n\\n        _balances[owner] -= 1;\\n        delete _owners[tokenId];\\n\\n        emit Transfer(owner, address(0), tokenId);\\n    }\\n\\n    /**\\n     * @dev Transfers `tokenId` from `from` to `to`.\\n     *  As opposed to {transferFrom}, this imposes no restrictions on msg.sender.\\n     *\\n     * Requirements:\\n     *\\n     * - `to` cannot be the zero address.\\n     * - `tokenId` token must be owned by `from`.\\n     *\\n     * Emits a {Transfer} event.\\n     */\\n    function _transfer(\\n        address from,\\n        address to,\\n        uint256 tokenId\\n    ) internal virtual {\\n        require(ERC721Upgradeable.ownerOf(tokenId) == from, \\\"ERC721: transfer of token that is not own\\\");\\n        require(to != address(0), \\\"ERC721: transfer to the zero address\\\");\\n\\n        _beforeTokenTransfer(from, to, tokenId);\\n\\n        // Clear approvals from the previous owner\\n        _approve(address(0), tokenId);\\n\\n        _balances[from] -= 1;\\n        _balances[to] += 1;\\n        _owners[tokenId] = to;\\n\\n        emit Transfer(from, to, tokenId);\\n    }\\n\\n    /**\\n     * @dev Approve `to` to operate on `tokenId`\\n     *\\n     * Emits a {Approval} event.\\n     */\\n    function _approve(address to, uint256 tokenId) internal virtual {\\n        _tokenApprovals[tokenId] = to;\\n        emit Approval(ERC721Upgradeable.ownerOf(tokenId), to, tokenId);\\n    }\\n\\n    /**\\n     * @dev Internal function to invoke {IERC721Receiver-onERC721Received} on a target address.\\n     * The call is not executed if the target address is not a contract.\\n     *\\n     * @param from address representing the previous owner of the given token ID\\n     * @param to target address that will receive the tokens\\n     * @param tokenId uint256 ID of the token to be transferred\\n     * @param _data bytes optional data to send along with the call\\n     * @return bool whether the call correctly returned the expected magic value\\n     */\\n    function _checkOnERC721Received(\\n        address from,\\n        address to,\\n        uint256 tokenId,\\n        bytes memory _data\\n    ) private returns (bool) {\\n        if (to.isContract()) {\\n            try IERC721ReceiverUpgradeable(to).onERC721Received(_msgSender(), from, tokenId, _data) returns (bytes4 retval) {\\n                return retval == IERC721ReceiverUpgradeable.onERC721Received.selector;\\n            } catch (bytes memory reason) {\\n                if (reason.length == 0) {\\n                    revert(\\\"ERC721: transfer to non ERC721Receiver implementer\\\");\\n                } else {\\n                    assembly {\\n                        revert(add(32, reason), mload(reason))\\n                    }\\n                }\\n            }\\n        } else {\\n            return true;\\n        }\\n    }\\n\\n    /**\\n     * @dev Hook that is called before any token transfer. This includes minting\\n     * and burning.\\n     *\\n     * Calling conditions:\\n     *\\n     * - When `from` and `to` are both non-zero, ``from``'s `tokenId` will be\\n     * transferred to `to`.\\n     * - When `from` is zero, `tokenId` will be minted for `to`.\\n     * - When `to` is zero, ``from``'s `tokenId` will be burned.\\n     * - `from` and `to` are never both zero.\\n     *\\n     * To learn more about hooks, head to xref:ROOT:extending-contracts.adoc#using-hooks[Using Hooks].\\n     */\\n    function _beforeTokenTransfer(\\n        address from,\\n        address to,\\n        uint256 tokenId\\n    ) internal virtual {}\\n    uint256[44] private __gap;\\n}\\n\",\"keccak256\":\"0x56f89378fca44345fe8de632c70311052c39d64a7a710513316676d343380e68\",\"license\":\"MIT\"},\"@openzeppelin/contracts-upgradeable/token/ERC721/IERC721ReceiverUpgradeable.sol\":{\"content\":\"// SPDX-License-Identifier: MIT\\n\\npragma solidity ^0.8.0;\\n\\n/**\\n * @title ERC721 token receiver interface\\n * @dev Interface for any contract that wants to support safeTransfers\\n * from ERC721 asset contracts.\\n */\\ninterface IERC721ReceiverUpgradeable {\\n    /**\\n     * @dev Whenever an {IERC721} `tokenId` token is transferred to this contract via {IERC721-safeTransferFrom}\\n     * by `operator` from `from`, this function is called.\\n     *\\n     * It must return its Solidity selector to confirm the token transfer.\\n     * If any other value is returned or the interface is not implemented by the recipient, the transfer will be reverted.\\n     *\\n     * The selector can be obtained in Solidity with `IERC721.onERC721Received.selector`.\\n     */\\n    function onERC721Received(\\n        address operator,\\n        address from,\\n        uint256 tokenId,\\n        bytes calldata data\\n    ) external returns (bytes4);\\n}\\n\",\"keccak256\":\"0x3d03f5cb8b9f17b75c3b6eb4921b1fe7b87ed77cf0c8638496eee5183a5101e0\",\"license\":\"MIT\"},\"@openzeppelin/contracts-upgradeable/token/ERC721/IERC721Upgradeable.sol\":{\"content\":\"// SPDX-License-Identifier: MIT\\n\\npragma solidity ^0.8.0;\\n\\nimport \\\"../../utils/introspection/IERC165Upgradeable.sol\\\";\\n\\n/**\\n * @dev Required interface of an ERC721 compliant contract.\\n */\\ninterface IERC721Upgradeable is IERC165Upgradeable {\\n    /**\\n     * @dev Emitted when `tokenId` token is transferred from `from` to `to`.\\n     */\\n    event Transfer(address indexed from, address indexed to, uint256 indexed tokenId);\\n\\n    /**\\n     * @dev Emitted when `owner` enables `approved` to manage the `tokenId` token.\\n     */\\n    event Approval(address indexed owner, address indexed approved, uint256 indexed tokenId);\\n\\n    /**\\n     * @dev Emitted when `owner` enables or disables (`approved`) `operator` to manage all of its assets.\\n     */\\n    event ApprovalForAll(address indexed owner, address indexed operator, bool approved);\\n\\n    /**\\n     * @dev Returns the number of tokens in ``owner``'s account.\\n     */\\n    function balanceOf(address owner) external view returns (uint256 balance);\\n\\n    /**\\n     * @dev Returns the owner of the `tokenId` token.\\n     *\\n     * Requirements:\\n     *\\n     * - `tokenId` must exist.\\n     */\\n    function ownerOf(uint256 tokenId) external view returns (address owner);\\n\\n    /**\\n     * @dev Safely transfers `tokenId` token from `from` to `to`, checking first that contract recipients\\n     * are aware of the ERC721 protocol to prevent tokens from being forever locked.\\n     *\\n     * Requirements:\\n     *\\n     * - `from` cannot be the zero address.\\n     * - `to` cannot be the zero address.\\n     * - `tokenId` token must exist and be owned by `from`.\\n     * - If the caller is not `from`, it must be have been allowed to move this token by either {approve} or {setApprovalForAll}.\\n     * - If `to` refers to a smart contract, it must implement {IERC721Receiver-onERC721Received}, which is called upon a safe transfer.\\n     *\\n     * Emits a {Transfer} event.\\n     */\\n    function safeTransferFrom(\\n        address from,\\n        address to,\\n        uint256 tokenId\\n    ) external;\\n\\n    /**\\n     * @dev Transfers `tokenId` token from `from` to `to`.\\n     *\\n     * WARNING: Usage of this method is discouraged, use {safeTransferFrom} whenever possible.\\n     *\\n     * Requirements:\\n     *\\n     * - `from` cannot be the zero address.\\n     * - `to` cannot be the zero address.\\n     * - `tokenId` token must be owned by `from`.\\n     * - If the caller is not `from`, it must be approved to move this token by either {approve} or {setApprovalForAll}.\\n     *\\n     * Emits a {Transfer} event.\\n     */\\n    function transferFrom(\\n        address from,\\n        address to,\\n        uint256 tokenId\\n    ) external;\\n\\n    /**\\n     * @dev Gives permission to `to` to transfer `tokenId` token to another account.\\n     * The approval is cleared when the token is transferred.\\n     *\\n     * Only a single account can be approved at a time, so approving the zero address clears previous approvals.\\n     *\\n     * Requirements:\\n     *\\n     * - The caller must own the token or be an approved operator.\\n     * - `tokenId` must exist.\\n     *\\n     * Emits an {Approval} event.\\n     */\\n    function approve(address to, uint256 tokenId) external;\\n\\n    /**\\n     * @dev Returns the account approved for `tokenId` token.\\n     *\\n     * Requirements:\\n     *\\n     * - `tokenId` must exist.\\n     */\\n    function getApproved(uint256 tokenId) external view returns (address operator);\\n\\n    /**\\n     * @dev Approve or remove `operator` as an operator for the caller.\\n     * Operators can call {transferFrom} or {safeTransferFrom} for any token owned by the caller.\\n     *\\n     * Requirements:\\n     *\\n     * - The `operator` cannot be the caller.\\n     *\\n     * Emits an {ApprovalForAll} event.\\n     */\\n    function setApprovalForAll(address operator, bool _approved) external;\\n\\n    /**\\n     * @dev Returns if the `operator` is allowed to manage all of the assets of `owner`.\\n     *\\n     * See {setApprovalForAll}\\n     */\\n    function isApprovedForAll(address owner, address operator) external view returns (bool);\\n\\n    /**\\n     * @dev Safely transfers `tokenId` token from `from` to `to`.\\n     *\\n     * Requirements:\\n     *\\n     * - `from` cannot be the zero address.\\n     * - `to` cannot be the zero address.\\n     * - `tokenId` token must exist and be owned by `from`.\\n     * - If the caller is not `from`, it must be approved to move this token by either {approve} or {setApprovalForAll}.\\n     * - If `to` refers to a smart contract, it must implement {IERC721Receiver-onERC721Received}, which is called upon a safe transfer.\\n     *\\n     * Emits a {Transfer} event.\\n     */\\n    function safeTransferFrom(\\n        address from,\\n        address to,\\n        uint256 tokenId,\\n        bytes calldata data\\n    ) external;\\n}\\n\",\"keccak256\":\"0xfbb3ca7272af58dc245a20e91a1f68481ee04706fa3fe46d184000efc21f4bad\",\"license\":\"MIT\"},\"@openzeppelin/contracts-upgradeable/token/ERC721/extensions/IERC721MetadataUpgradeable.sol\":{\"content\":\"// SPDX-License-Identifier: MIT\\n\\npragma solidity ^0.8.0;\\n\\nimport \\\"../IERC721Upgradeable.sol\\\";\\n\\n/**\\n * @title ERC-721 Non-Fungible Token Standard, optional metadata extension\\n * @dev See https://eips.ethereum.org/EIPS/eip-721\\n */\\ninterface IERC721MetadataUpgradeable is IERC721Upgradeable {\\n    /**\\n     * @dev Returns the token collection name.\\n     */\\n    function name() external view returns (string memory);\\n\\n    /**\\n     * @dev Returns the token collection symbol.\\n     */\\n    function symbol() external view returns (string memory);\\n\\n    /**\\n     * @dev Returns the Uniform Resource Identifier (URI) for `tokenId` token.\\n     */\\n    function tokenURI(uint256 tokenId) external view returns (string memory);\\n}\\n\",\"keccak256\":\"0x6dd43e44dbaad99d1863be7f2837085f361efdcb1fde5a9bf84c4efa07f89ed3\",\"license\":\"MIT\"},\"@openzeppelin/contracts-upgradeable/utils/AddressUpgradeable.sol\":{\"content\":\"// SPDX-License-Identifier: MIT\\n\\npragma solidity ^0.8.0;\\n\\n/**\\n * @dev Collection of functions related to the address type\\n */\\nlibrary AddressUpgradeable {\\n    /**\\n     * @dev Returns true if `account` is a contract.\\n     *\\n     * [IMPORTANT]\\n     * ====\\n     * It is unsafe to assume that an address for which this function returns\\n     * false is an externally-owned account (EOA) and not a contract.\\n     *\\n     * Among others, `isContract` will return false for the following\\n     * types of addresses:\\n     *\\n     *  - an externally-owned account\\n     *  - a contract in construction\\n     *  - an address where a contract will be created\\n     *  - an address where a contract lived, but was destroyed\\n     * ====\\n     */\\n    function isContract(address account) internal view returns (bool) {\\n        // This method relies on extcodesize, which returns 0 for contracts in\\n        // construction, since the code is only stored at the end of the\\n        // constructor execution.\\n\\n        uint256 size;\\n        assembly {\\n            size := extcodesize(account)\\n        }\\n        return size > 0;\\n    }\\n\\n    /**\\n     * @dev Replacement for Solidity's `transfer`: sends `amount` wei to\\n     * `recipient`, forwarding all available gas and reverting on errors.\\n     *\\n     * https://eips.ethereum.org/EIPS/eip-1884[EIP1884] increases the gas cost\\n     * of certain opcodes, possibly making contracts go over the 2300 gas limit\\n     * imposed by `transfer`, making them unable to receive funds via\\n     * `transfer`. {sendValue} removes this limitation.\\n     *\\n     * https://diligence.consensys.net/posts/2019/09/stop-using-soliditys-transfer-now/[Learn more].\\n     *\\n     * IMPORTANT: because control is transferred to `recipient`, care must be\\n     * taken to not create reentrancy vulnerabilities. Consider using\\n     * {ReentrancyGuard} or the\\n     * https://solidity.readthedocs.io/en/v0.5.11/security-considerations.html#use-the-checks-effects-interactions-pattern[checks-effects-interactions pattern].\\n     */\\n    function sendValue(address payable recipient, uint256 amount) internal {\\n        require(address(this).balance >= amount, \\\"Address: insufficient balance\\\");\\n\\n        (bool success, ) = recipient.call{value: amount}(\\\"\\\");\\n        require(success, \\\"Address: unable to send value, recipient may have reverted\\\");\\n    }\\n\\n    /**\\n     * @dev Performs a Solidity function call using a low level `call`. A\\n     * plain `call` is an unsafe replacement for a function call: use this\\n     * function instead.\\n     *\\n     * If `target` reverts with a revert reason, it is bubbled up by this\\n     * function (like regular Solidity function calls).\\n     *\\n     * Returns the raw returned data. To convert to the expected return value,\\n     * use https://solidity.readthedocs.io/en/latest/units-and-global-variables.html?highlight=abi.decode#abi-encoding-and-decoding-functions[`abi.decode`].\\n     *\\n     * Requirements:\\n     *\\n     * - `target` must be a contract.\\n     * - calling `target` with `data` must not revert.\\n     *\\n     * _Available since v3.1._\\n     */\\n    function functionCall(address target, bytes memory data) internal returns (bytes memory) {\\n        return functionCall(target, data, \\\"Address: low-level call failed\\\");\\n    }\\n\\n    /**\\n     * @dev Same as {xref-Address-functionCall-address-bytes-}[`functionCall`], but with\\n     * `errorMessage` as a fallback revert reason when `target` reverts.\\n     *\\n     * _Available since v3.1._\\n     */\\n    function functionCall(\\n        address target,\\n        bytes memory data,\\n        string memory errorMessage\\n    ) internal returns (bytes memory) {\\n        return functionCallWithValue(target, data, 0, errorMessage);\\n    }\\n\\n    /**\\n     * @dev Same as {xref-Address-functionCall-address-bytes-}[`functionCall`],\\n     * but also transferring `value` wei to `target`.\\n     *\\n     * Requirements:\\n     *\\n     * - the calling contract must have an ETH balance of at least `value`.\\n     * - the called Solidity function must be `payable`.\\n     *\\n     * _Available since v3.1._\\n     */\\n    function functionCallWithValue(\\n        address target,\\n        bytes memory data,\\n        uint256 value\\n    ) internal returns (bytes memory) {\\n        return functionCallWithValue(target, data, value, \\\"Address: low-level call with value failed\\\");\\n    }\\n\\n    /**\\n     * @dev Same as {xref-Address-functionCallWithValue-address-bytes-uint256-}[`functionCallWithValue`], but\\n     * with `errorMessage` as a fallback revert reason when `target` reverts.\\n     *\\n     * _Available since v3.1._\\n     */\\n    function functionCallWithValue(\\n        address target,\\n        bytes memory data,\\n        uint256 value,\\n        string memory errorMessage\\n    ) internal returns (bytes memory) {\\n        require(address(this).balance >= value, \\\"Address: insufficient balance for call\\\");\\n        require(isContract(target), \\\"Address: call to non-contract\\\");\\n\\n        (bool success, bytes memory returndata) = target.call{value: value}(data);\\n        return verifyCallResult(success, returndata, errorMessage);\\n    }\\n\\n    /**\\n     * @dev Same as {xref-Address-functionCall-address-bytes-}[`functionCall`],\\n     * but performing a static call.\\n     *\\n     * _Available since v3.3._\\n     */\\n    function functionStaticCall(address target, bytes memory data) internal view returns (bytes memory) {\\n        return functionStaticCall(target, data, \\\"Address: low-level static call failed\\\");\\n    }\\n\\n    /**\\n     * @dev Same as {xref-Address-functionCall-address-bytes-string-}[`functionCall`],\\n     * but performing a static call.\\n     *\\n     * _Available since v3.3._\\n     */\\n    function functionStaticCall(\\n        address target,\\n        bytes memory data,\\n        string memory errorMessage\\n    ) internal view returns (bytes memory) {\\n        require(isContract(target), \\\"Address: static call to non-contract\\\");\\n\\n        (bool success, bytes memory returndata) = target.staticcall(data);\\n        return verifyCallResult(success, returndata, errorMessage);\\n    }\\n\\n    /**\\n     * @dev Tool to verifies that a low level call was successful, and revert if it wasn't, either by bubbling the\\n     * revert reason using the provided one.\\n     *\\n     * _Available since v4.3._\\n     */\\n    function verifyCallResult(\\n        bool success,\\n        bytes memory returndata,\\n        string memory errorMessage\\n    ) internal pure returns (bytes memory) {\\n        if (success) {\\n            return returndata;\\n        } else {\\n            // Look for revert reason and bubble it up if present\\n            if (returndata.length > 0) {\\n                // The easiest way to bubble the revert reason is using memory via assembly\\n\\n                assembly {\\n                    let returndata_size := mload(returndata)\\n                    revert(add(32, returndata), returndata_size)\\n                }\\n            } else {\\n                revert(errorMessage);\\n            }\\n        }\\n    }\\n}\\n\",\"keccak256\":\"0x946f08c0a132c5877d458d7af7956da60607f20a5c03dd75760708c848aae6b7\",\"license\":\"MIT\"},\"@openzeppelin/contracts-upgradeable/utils/ContextUpgradeable.sol\":{\"content\":\"// SPDX-License-Identifier: MIT\\n\\npragma solidity ^0.8.0;\\nimport \\\"../proxy/utils/Initializable.sol\\\";\\n\\n/**\\n * @dev Provides information about the current execution context, including the\\n * sender of the transaction and its data. While these are generally available\\n * via msg.sender and msg.data, they should not be accessed in such a direct\\n * manner, since when dealing with meta-transactions the account sending and\\n * paying for execution may not be the actual sender (as far as an application\\n * is concerned).\\n *\\n * This contract is only required for intermediate, library-like contracts.\\n */\\nabstract contract ContextUpgradeable is Initializable {\\n    function __Context_init() internal initializer {\\n        __Context_init_unchained();\\n    }\\n\\n    function __Context_init_unchained() internal initializer {\\n    }\\n    function _msgSender() internal view virtual returns (address) {\\n        return msg.sender;\\n    }\\n\\n    function _msgData() internal view virtual returns (bytes calldata) {\\n        return msg.data;\\n    }\\n    uint256[50] private __gap;\\n}\\n\",\"keccak256\":\"0x062b5a0f7cc6b0528fa350033759f3a15ba42afb57423d7c593753860f2c82e0\",\"license\":\"MIT\"},\"@openzeppelin/contracts-upgradeable/utils/StringsUpgradeable.sol\":{\"content\":\"// SPDX-License-Identifier: MIT\\n\\npragma solidity ^0.8.0;\\n\\n/**\\n * @dev String operations.\\n */\\nlibrary StringsUpgradeable {\\n    bytes16 private constant _HEX_SYMBOLS = \\\"0123456789abcdef\\\";\\n\\n    /**\\n     * @dev Converts a `uint256` to its ASCII `string` decimal representation.\\n     */\\n    function toString(uint256 value) internal pure returns (string memory) {\\n        // Inspired by OraclizeAPI's implementation - MIT licence\\n        // https://github.com/oraclize/ethereum-api/blob/b42146b063c7d6ee1358846c198246239e9360e8/oraclizeAPI_0.4.25.sol\\n\\n        if (value == 0) {\\n            return \\\"0\\\";\\n        }\\n        uint256 temp = value;\\n        uint256 digits;\\n        while (temp != 0) {\\n            digits++;\\n            temp /= 10;\\n        }\\n        bytes memory buffer = new bytes(digits);\\n        while (value != 0) {\\n            digits -= 1;\\n            buffer[digits] = bytes1(uint8(48 + uint256(value % 10)));\\n            value /= 10;\\n        }\\n        return string(buffer);\\n    }\\n\\n    /**\\n     * @dev Converts a `uint256` to its ASCII `string` hexadecimal representation.\\n     */\\n    function toHexString(uint256 value) internal pure returns (string memory) {\\n        if (value == 0) {\\n            return \\\"0x00\\\";\\n        }\\n        uint256 temp = value;\\n        uint256 length = 0;\\n        while (temp != 0) {\\n            length++;\\n            temp >>= 8;\\n        }\\n        return toHexString(value, length);\\n    }\\n\\n    /**\\n     * @dev Converts a `uint256` to its ASCII `string` hexadecimal representation with fixed length.\\n     */\\n    function toHexString(uint256 value, uint256 length) internal pure returns (string memory) {\\n        bytes memory buffer = new bytes(2 * length + 2);\\n        buffer[0] = \\\"0\\\";\\n        buffer[1] = \\\"x\\\";\\n        for (uint256 i = 2 * length + 1; i > 1; --i) {\\n            buffer[i] = _HEX_SYMBOLS[value & 0xf];\\n            value >>= 4;\\n        }\\n        require(value == 0, \\\"Strings: hex length insufficient\\\");\\n        return string(buffer);\\n    }\\n}\\n\",\"keccak256\":\"0xc7af08df3d3e818ce36f95aa879c13245772fed21b553e6033292ea4edc2a9f3\",\"license\":\"MIT\"},\"@openzeppelin/contracts-upgradeable/utils/introspection/ERC165Upgradeable.sol\":{\"content\":\"// SPDX-License-Identifier: MIT\\n\\npragma solidity ^0.8.0;\\n\\nimport \\\"./IERC165Upgradeable.sol\\\";\\nimport \\\"../../proxy/utils/Initializable.sol\\\";\\n\\n/**\\n * @dev Implementation of the {IERC165} interface.\\n *\\n * Contracts that want to implement ERC165 should inherit from this contract and override {supportsInterface} to check\\n * for the additional interface id that will be supported. For example:\\n *\\n * ```solidity\\n * function supportsInterface(bytes4 interfaceId) public view virtual override returns (bool) {\\n *     return interfaceId == type(MyInterface).interfaceId || super.supportsInterface(interfaceId);\\n * }\\n * ```\\n *\\n * Alternatively, {ERC165Storage} provides an easier to use but more expensive implementation.\\n */\\nabstract contract ERC165Upgradeable is Initializable, IERC165Upgradeable {\\n    function __ERC165_init() internal initializer {\\n        __ERC165_init_unchained();\\n    }\\n\\n    function __ERC165_init_unchained() internal initializer {\\n    }\\n    /**\\n     * @dev See {IERC165-supportsInterface}.\\n     */\\n    function supportsInterface(bytes4 interfaceId) public view virtual override returns (bool) {\\n        return interfaceId == type(IERC165Upgradeable).interfaceId;\\n    }\\n    uint256[50] private __gap;\\n}\\n\",\"keccak256\":\"0x17c9c5d2d6b56527215ee7b3da6dde66b6f23f1b3d5c66cc436e753ef349a97a\",\"license\":\"MIT\"},\"@openzeppelin/contracts-upgradeable/utils/introspection/IERC165Upgradeable.sol\":{\"content\":\"// SPDX-License-Identifier: MIT\\n\\npragma solidity ^0.8.0;\\n\\n/**\\n * @dev Interface of the ERC165 standard, as defined in the\\n * https://eips.ethereum.org/EIPS/eip-165[EIP].\\n *\\n * Implementers can declare support of contract interfaces, which can then be\\n * queried by others ({ERC165Checker}).\\n *\\n * For an implementation, see {ERC165}.\\n */\\ninterface IERC165Upgradeable {\\n    /**\\n     * @dev Returns true if this contract implements the interface defined by\\n     * `interfaceId`. See the corresponding\\n     * https://eips.ethereum.org/EIPS/eip-165#how-interfaces-are-identified[EIP section]\\n     * to learn more about how these ids are created.\\n     *\\n     * This function call must use less than 30 000 gas.\\n     */\\n    function supportsInterface(bytes4 interfaceId) external view returns (bool);\\n}\\n\",\"keccak256\":\"0x1c4860acd323e34a67b3e97faab9aaa55fe8e92b1dcf08b5f47f3468d58ce75c\",\"license\":\"MIT\"},\"@openzeppelin/contracts/access/Ownable.sol\":{\"content\":\"// SPDX-License-Identifier: MIT\\n\\npragma solidity ^0.8.0;\\n\\nimport \\\"../utils/Context.sol\\\";\\n\\n/**\\n * @dev Contract module which provides a basic access control mechanism, where\\n * there is an account (an owner) that can be granted exclusive access to\\n * specific functions.\\n *\\n * By default, the owner account will be the one that deploys the contract. This\\n * can later be changed with {transferOwnership}.\\n *\\n * This module is used through inheritance. It will make available the modifier\\n * `onlyOwner`, which can be applied to your functions to restrict their use to\\n * the owner.\\n */\\nabstract contract Ownable is Context {\\n    address private _owner;\\n\\n    event OwnershipTransferred(address indexed previousOwner, address indexed newOwner);\\n\\n    /**\\n     * @dev Initializes the contract setting the deployer as the initial owner.\\n     */\\n    constructor() {\\n        _setOwner(_msgSender());\\n    }\\n\\n    /**\\n     * @dev Returns the address of the current owner.\\n     */\\n    function owner() public view virtual returns (address) {\\n        return _owner;\\n    }\\n\\n    /**\\n     * @dev Throws if called by any account other than the owner.\\n     */\\n    modifier onlyOwner() {\\n        require(owner() == _msgSender(), \\\"Ownable: caller is not the owner\\\");\\n        _;\\n    }\\n\\n    /**\\n     * @dev Leaves the contract without owner. It will not be possible to call\\n     * `onlyOwner` functions anymore. Can only be called by the current owner.\\n     *\\n     * NOTE: Renouncing ownership will leave the contract without an owner,\\n     * thereby removing any functionality that is only available to the owner.\\n     */\\n    function renounceOwnership() public virtual onlyOwner {\\n        _setOwner(address(0));\\n    }\\n\\n    /**\\n     * @dev Transfers ownership of the contract to a new account (`newOwner`).\\n     * Can only be called by the current owner.\\n     */\\n    function transferOwnership(address newOwner) public virtual onlyOwner {\\n        require(newOwner != address(0), \\\"Ownable: new owner is the zero address\\\");\\n        _setOwner(newOwner);\\n    }\\n\\n    function _setOwner(address newOwner) private {\\n        address oldOwner = _owner;\\n        _owner = newOwner;\\n        emit OwnershipTransferred(oldOwner, newOwner);\\n    }\\n}\\n\",\"keccak256\":\"0x6bb804a310218875e89d12c053e94a13a4607cdf7cc2052f3e52bd32a0dc50a1\",\"license\":\"MIT\"},\"@openzeppelin/contracts/proxy/Clones.sol\":{\"content\":\"// SPDX-License-Identifier: MIT\\n\\npragma solidity ^0.8.0;\\n\\n/**\\n * @dev https://eips.ethereum.org/EIPS/eip-1167[EIP 1167] is a standard for\\n * deploying minimal proxy contracts, also known as \\\"clones\\\".\\n *\\n * > To simply and cheaply clone contract functionality in an immutable way, this standard specifies\\n * > a minimal bytecode implementation that delegates all calls to a known, fixed address.\\n *\\n * The library includes functions to deploy a proxy using either `create` (traditional deployment) or `create2`\\n * (salted deterministic deployment). It also includes functions to predict the addresses of clones deployed using the\\n * deterministic method.\\n *\\n * _Available since v3.4._\\n */\\nlibrary Clones {\\n    /**\\n     * @dev Deploys and returns the address of a clone that mimics the behaviour of `implementation`.\\n     *\\n     * This function uses the create opcode, which should never revert.\\n     */\\n    function clone(address implementation) internal returns (address instance) {\\n        assembly {\\n            let ptr := mload(0x40)\\n            mstore(ptr, 0x3d602d80600a3d3981f3363d3d373d3d3d363d73000000000000000000000000)\\n            mstore(add(ptr, 0x14), shl(0x60, implementation))\\n            mstore(add(ptr, 0x28), 0x5af43d82803e903d91602b57fd5bf30000000000000000000000000000000000)\\n            instance := create(0, ptr, 0x37)\\n        }\\n        require(instance != address(0), \\\"ERC1167: create failed\\\");\\n    }\\n\\n    /**\\n     * @dev Deploys and returns the address of a clone that mimics the behaviour of `implementation`.\\n     *\\n     * This function uses the create2 opcode and a `salt` to deterministically deploy\\n     * the clone. Using the same `implementation` and `salt` multiple time will revert, since\\n     * the clones cannot be deployed twice at the same address.\\n     */\\n    function cloneDeterministic(address implementation, bytes32 salt) internal returns (address instance) {\\n        assembly {\\n            let ptr := mload(0x40)\\n            mstore(ptr, 0x3d602d80600a3d3981f3363d3d373d3d3d363d73000000000000000000000000)\\n            mstore(add(ptr, 0x14), shl(0x60, implementation))\\n            mstore(add(ptr, 0x28), 0x5af43d82803e903d91602b57fd5bf30000000000000000000000000000000000)\\n            instance := create2(0, ptr, 0x37, salt)\\n        }\\n        require(instance != address(0), \\\"ERC1167: create2 failed\\\");\\n    }\\n\\n    /**\\n     * @dev Computes the address of a clone deployed using {Clones-cloneDeterministic}.\\n     */\\n    function predictDeterministicAddress(\\n        address implementation,\\n        bytes32 salt,\\n        address deployer\\n    ) internal pure returns (address predicted) {\\n        assembly {\\n            let ptr := mload(0x40)\\n            mstore(ptr, 0x3d602d80600a3d3981f3363d3d373d3d3d363d73000000000000000000000000)\\n            mstore(add(ptr, 0x14), shl(0x60, implementation))\\n            mstore(add(ptr, 0x28), 0x5af43d82803e903d91602b57fd5bf3ff00000000000000000000000000000000)\\n            mstore(add(ptr, 0x38), shl(0x60, deployer))\\n            mstore(add(ptr, 0x4c), salt)\\n            mstore(add(ptr, 0x6c), keccak256(ptr, 0x37))\\n            predicted := keccak256(add(ptr, 0x37), 0x55)\\n        }\\n    }\\n\\n    /**\\n     * @dev Computes the address of a clone deployed using {Clones-cloneDeterministic}.\\n     */\\n    function predictDeterministicAddress(address implementation, bytes32 salt)\\n        internal\\n        view\\n        returns (address predicted)\\n    {\\n        return predictDeterministicAddress(implementation, salt, address(this));\\n    }\\n}\\n\",\"keccak256\":\"0xa3bbab77849522b73d8c6cd3d2ac54bef7580e4354484f35f4cabf55d3d2b3f9\",\"license\":\"MIT\"},\"@openzeppelin/contracts/proxy/Proxy.sol\":{\"content\":\"// SPDX-License-Identifier: MIT\\n\\npragma solidity ^0.8.0;\\n\\n/**\\n * @dev This abstract contract provides a fallback function that delegates all calls to another contract using the EVM\\n * instruction `delegatecall`. We refer to the second contract as the _implementation_ behind the proxy, and it has to\\n * be specified by overriding the virtual {_implementation} function.\\n *\\n * Additionally, delegation to the implementation can be triggered manually through the {_fallback} function, or to a\\n * different contract through the {_delegate} function.\\n *\\n * The success and return data of the delegated call will be returned back to the caller of the proxy.\\n */\\nabstract contract Proxy {\\n    /**\\n     * @dev Delegates the current call to `implementation`.\\n     *\\n     * This function does not return to its internall call site, it will return directly to the external caller.\\n     */\\n    function _delegate(address implementation) internal virtual {\\n        assembly {\\n            // Copy msg.data. We take full control of memory in this inline assembly\\n            // block because it will not return to Solidity code. We overwrite the\\n            // Solidity scratch pad at memory position 0.\\n            calldatacopy(0, 0, calldatasize())\\n\\n            // Call the implementation.\\n            // out and outsize are 0 because we don't know the size yet.\\n            let result := delegatecall(gas(), implementation, 0, calldatasize(), 0, 0)\\n\\n            // Copy the returned data.\\n            returndatacopy(0, 0, returndatasize())\\n\\n            switch result\\n            // delegatecall returns 0 on error.\\n            case 0 {\\n                revert(0, returndatasize())\\n            }\\n            default {\\n                return(0, returndatasize())\\n            }\\n        }\\n    }\\n\\n    /**\\n     * @dev This is a virtual function that should be overriden so it returns the address to which the fallback function\\n     * and {_fallback} should delegate.\\n     */\\n    function _implementation() internal view virtual returns (address);\\n\\n    /**\\n     * @dev Delegates the current call to the address returned by `_implementation()`.\\n     *\\n     * This function does not return to its internall call site, it will return directly to the external caller.\\n     */\\n    function _fallback() internal virtual {\\n        _beforeFallback();\\n        _delegate(_implementation());\\n    }\\n\\n    /**\\n     * @dev Fallback function that delegates calls to the address returned by `_implementation()`. Will run if no other\\n     * function in the contract matches the call data.\\n     */\\n    fallback() external payable virtual {\\n        _fallback();\\n    }\\n\\n    /**\\n     * @dev Fallback function that delegates calls to the address returned by `_implementation()`. Will run if call data\\n     * is empty.\\n     */\\n    receive() external payable virtual {\\n        _fallback();\\n    }\\n\\n    /**\\n     * @dev Hook that is called before falling back to the implementation. Can happen as part of a manual `_fallback`\\n     * call, or as part of the Solidity `fallback` or `receive` functions.\\n     *\\n     * If overriden should call `super._beforeFallback()`.\\n     */\\n    function _beforeFallback() internal virtual {}\\n}\\n\",\"keccak256\":\"0x8ddea9f930f26e588ea606f44c90d2623560c908e38614a03a4ca78aea8f9202\",\"license\":\"MIT\"},\"@openzeppelin/contracts/proxy/beacon/IBeacon.sol\":{\"content\":\"// SPDX-License-Identifier: MIT\\n\\npragma solidity ^0.8.0;\\n\\n/**\\n * @dev This is the interface that {BeaconProxy} expects of its beacon.\\n */\\ninterface IBeacon {\\n    /**\\n     * @dev Must return an address that can be used as a delegate call target.\\n     *\\n     * {BeaconProxy} will check that this address is a contract.\\n     */\\n    function implementation() external view returns (address);\\n}\\n\",\"keccak256\":\"0x5615339d191e77be7e46319b67856f9355786f705b7b3c4a7237ab70c1864ab1\",\"license\":\"MIT\"},\"@openzeppelin/contracts/proxy/utils/Initializable.sol\":{\"content\":\"// SPDX-License-Identifier: MIT\\n\\npragma solidity ^0.8.0;\\n\\n/**\\n * @dev This is a base contract to aid in writing upgradeable contracts, or any kind of contract that will be deployed\\n * behind a proxy. Since a proxied contract can't have a constructor, it's common to move constructor logic to an\\n * external initializer function, usually called `initialize`. It then becomes necessary to protect this initializer\\n * function so it can only be called once. The {initializer} modifier provided by this contract will have this effect.\\n *\\n * TIP: To avoid leaving the proxy in an uninitialized state, the initializer function should be called as early as\\n * possible by providing the encoded function call as the `_data` argument to {ERC1967Proxy-constructor}.\\n *\\n * CAUTION: When used with inheritance, manual care must be taken to not invoke a parent initializer twice, or to ensure\\n * that all initializers are idempotent. This is not verified automatically as constructors are by Solidity.\\n */\\nabstract contract Initializable {\\n    /**\\n     * @dev Indicates that the contract has been initialized.\\n     */\\n    bool private _initialized;\\n\\n    /**\\n     * @dev Indicates that the contract is in the process of being initialized.\\n     */\\n    bool private _initializing;\\n\\n    /**\\n     * @dev Modifier to protect an initializer function from being invoked twice.\\n     */\\n    modifier initializer() {\\n        require(_initializing || !_initialized, \\\"Initializable: contract is already initialized\\\");\\n\\n        bool isTopLevelCall = !_initializing;\\n        if (isTopLevelCall) {\\n            _initializing = true;\\n            _initialized = true;\\n        }\\n\\n        _;\\n\\n        if (isTopLevelCall) {\\n            _initializing = false;\\n        }\\n    }\\n}\\n\",\"keccak256\":\"0x8b2abd85d0ece7e866e100e9d47ca9cbec93c87cf71a8d267b2b93eb81f7d5e9\",\"license\":\"MIT\"},\"@openzeppelin/contracts/token/ERC20/ERC20.sol\":{\"content\":\"// SPDX-License-Identifier: MIT\\n\\npragma solidity ^0.8.0;\\n\\nimport \\\"./IERC20.sol\\\";\\nimport \\\"./extensions/IERC20Metadata.sol\\\";\\nimport \\\"../../utils/Context.sol\\\";\\n\\n/**\\n * @dev Implementation of the {IERC20} interface.\\n *\\n * This implementation is agnostic to the way tokens are created. This means\\n * that a supply mechanism has to be added in a derived contract using {_mint}.\\n * For a generic mechanism see {ERC20PresetMinterPauser}.\\n *\\n * TIP: For a detailed writeup see our guide\\n * https://forum.zeppelin.solutions/t/how-to-implement-erc20-supply-mechanisms/226[How\\n * to implement supply mechanisms].\\n *\\n * We have followed general OpenZeppelin Contracts guidelines: functions revert\\n * instead returning `false` on failure. This behavior is nonetheless\\n * conventional and does not conflict with the expectations of ERC20\\n * applications.\\n *\\n * Additionally, an {Approval} event is emitted on calls to {transferFrom}.\\n * This allows applications to reconstruct the allowance for all accounts just\\n * by listening to said events. Other implementations of the EIP may not emit\\n * these events, as it isn't required by the specification.\\n *\\n * Finally, the non-standard {decreaseAllowance} and {increaseAllowance}\\n * functions have been added to mitigate the well-known issues around setting\\n * allowances. See {IERC20-approve}.\\n */\\ncontract ERC20 is Context, IERC20, IERC20Metadata {\\n    mapping(address => uint256) private _balances;\\n\\n    mapping(address => mapping(address => uint256)) private _allowances;\\n\\n    uint256 private _totalSupply;\\n\\n    string private _name;\\n    string private _symbol;\\n\\n    /**\\n     * @dev Sets the values for {name} and {symbol}.\\n     *\\n     * The default value of {decimals} is 18. To select a different value for\\n     * {decimals} you should overload it.\\n     *\\n     * All two of these values are immutable: they can only be set once during\\n     * construction.\\n     */\\n    constructor(string memory name_, string memory symbol_) {\\n        _name = name_;\\n        _symbol = symbol_;\\n    }\\n\\n    /**\\n     * @dev Returns the name of the token.\\n     */\\n    function name() public view virtual override returns (string memory) {\\n        return _name;\\n    }\\n\\n    /**\\n     * @dev Returns the symbol of the token, usually a shorter version of the\\n     * name.\\n     */\\n    function symbol() public view virtual override returns (string memory) {\\n        return _symbol;\\n    }\\n\\n    /**\\n     * @dev Returns the number of decimals used to get its user representation.\\n     * For example, if `decimals` equals `2`, a balance of `505` tokens should\\n     * be displayed to a user as `5.05` (`505 / 10 ** 2`).\\n     *\\n     * Tokens usually opt for a value of 18, imitating the relationship between\\n     * Ether and Wei. This is the value {ERC20} uses, unless this function is\\n     * overridden;\\n     *\\n     * NOTE: This information is only used for _display_ purposes: it in\\n     * no way affects any of the arithmetic of the contract, including\\n     * {IERC20-balanceOf} and {IERC20-transfer}.\\n     */\\n    function decimals() public view virtual override returns (uint8) {\\n        return 18;\\n    }\\n\\n    /**\\n     * @dev See {IERC20-totalSupply}.\\n     */\\n    function totalSupply() public view virtual override returns (uint256) {\\n        return _totalSupply;\\n    }\\n\\n    /**\\n     * @dev See {IERC20-balanceOf}.\\n     */\\n    function balanceOf(address account) public view virtual override returns (uint256) {\\n        return _balances[account];\\n    }\\n\\n    /**\\n     * @dev See {IERC20-transfer}.\\n     *\\n     * Requirements:\\n     *\\n     * - `recipient` cannot be the zero address.\\n     * - the caller must have a balance of at least `amount`.\\n     */\\n    function transfer(address recipient, uint256 amount) public virtual override returns (bool) {\\n        _transfer(_msgSender(), recipient, amount);\\n        return true;\\n    }\\n\\n    /**\\n     * @dev See {IERC20-allowance}.\\n     */\\n    function allowance(address owner, address spender) public view virtual override returns (uint256) {\\n        return _allowances[owner][spender];\\n    }\\n\\n    /**\\n     * @dev See {IERC20-approve}.\\n     *\\n     * Requirements:\\n     *\\n     * - `spender` cannot be the zero address.\\n     */\\n    function approve(address spender, uint256 amount) public virtual override returns (bool) {\\n        _approve(_msgSender(), spender, amount);\\n        return true;\\n    }\\n\\n    /**\\n     * @dev See {IERC20-transferFrom}.\\n     *\\n     * Emits an {Approval} event indicating the updated allowance. This is not\\n     * required by the EIP. See the note at the beginning of {ERC20}.\\n     *\\n     * Requirements:\\n     *\\n     * - `sender` and `recipient` cannot be the zero address.\\n     * - `sender` must have a balance of at least `amount`.\\n     * - the caller must have allowance for ``sender``'s tokens of at least\\n     * `amount`.\\n     */\\n    function transferFrom(\\n        address sender,\\n        address recipient,\\n        uint256 amount\\n    ) public virtual override returns (bool) {\\n        _transfer(sender, recipient, amount);\\n\\n        uint256 currentAllowance = _allowances[sender][_msgSender()];\\n        require(currentAllowance >= amount, \\\"ERC20: transfer amount exceeds allowance\\\");\\n        unchecked {\\n            _approve(sender, _msgSender(), currentAllowance - amount);\\n        }\\n\\n        return true;\\n    }\\n\\n    /**\\n     * @dev Atomically increases the allowance granted to `spender` by the caller.\\n     *\\n     * This is an alternative to {approve} that can be used as a mitigation for\\n     * problems described in {IERC20-approve}.\\n     *\\n     * Emits an {Approval} event indicating the updated allowance.\\n     *\\n     * Requirements:\\n     *\\n     * - `spender` cannot be the zero address.\\n     */\\n    function increaseAllowance(address spender, uint256 addedValue) public virtual returns (bool) {\\n        _approve(_msgSender(), spender, _allowances[_msgSender()][spender] + addedValue);\\n        return true;\\n    }\\n\\n    /**\\n     * @dev Atomically decreases the allowance granted to `spender` by the caller.\\n     *\\n     * This is an alternative to {approve} that can be used as a mitigation for\\n     * problems described in {IERC20-approve}.\\n     *\\n     * Emits an {Approval} event indicating the updated allowance.\\n     *\\n     * Requirements:\\n     *\\n     * - `spender` cannot be the zero address.\\n     * - `spender` must have allowance for the caller of at least\\n     * `subtractedValue`.\\n     */\\n    function decreaseAllowance(address spender, uint256 subtractedValue) public virtual returns (bool) {\\n        uint256 currentAllowance = _allowances[_msgSender()][spender];\\n        require(currentAllowance >= subtractedValue, \\\"ERC20: decreased allowance below zero\\\");\\n        unchecked {\\n            _approve(_msgSender(), spender, currentAllowance - subtractedValue);\\n        }\\n\\n        return true;\\n    }\\n\\n    /**\\n     * @dev Moves `amount` of tokens from `sender` to `recipient`.\\n     *\\n     * This internal function is equivalent to {transfer}, and can be used to\\n     * e.g. implement automatic token fees, slashing mechanisms, etc.\\n     *\\n     * Emits a {Transfer} event.\\n     *\\n     * Requirements:\\n     *\\n     * - `sender` cannot be the zero address.\\n     * - `recipient` cannot be the zero address.\\n     * - `sender` must have a balance of at least `amount`.\\n     */\\n    function _transfer(\\n        address sender,\\n        address recipient,\\n        uint256 amount\\n    ) internal virtual {\\n        require(sender != address(0), \\\"ERC20: transfer from the zero address\\\");\\n        require(recipient != address(0), \\\"ERC20: transfer to the zero address\\\");\\n\\n        _beforeTokenTransfer(sender, recipient, amount);\\n\\n        uint256 senderBalance = _balances[sender];\\n        require(senderBalance >= amount, \\\"ERC20: transfer amount exceeds balance\\\");\\n        unchecked {\\n            _balances[sender] = senderBalance - amount;\\n        }\\n        _balances[recipient] += amount;\\n\\n        emit Transfer(sender, recipient, amount);\\n\\n        _afterTokenTransfer(sender, recipient, amount);\\n    }\\n\\n    /** @dev Creates `amount` tokens and assigns them to `account`, increasing\\n     * the total supply.\\n     *\\n     * Emits a {Transfer} event with `from` set to the zero address.\\n     *\\n     * Requirements:\\n     *\\n     * - `account` cannot be the zero address.\\n     */\\n    function _mint(address account, uint256 amount) internal virtual {\\n        require(account != address(0), \\\"ERC20: mint to the zero address\\\");\\n\\n        _beforeTokenTransfer(address(0), account, amount);\\n\\n        _totalSupply += amount;\\n        _balances[account] += amount;\\n        emit Transfer(address(0), account, amount);\\n\\n        _afterTokenTransfer(address(0), account, amount);\\n    }\\n\\n    /**\\n     * @dev Destroys `amount` tokens from `account`, reducing the\\n     * total supply.\\n     *\\n     * Emits a {Transfer} event with `to` set to the zero address.\\n     *\\n     * Requirements:\\n     *\\n     * - `account` cannot be the zero address.\\n     * - `account` must have at least `amount` tokens.\\n     */\\n    function _burn(address account, uint256 amount) internal virtual {\\n        require(account != address(0), \\\"ERC20: burn from the zero address\\\");\\n\\n        _beforeTokenTransfer(account, address(0), amount);\\n\\n        uint256 accountBalance = _balances[account];\\n        require(accountBalance >= amount, \\\"ERC20: burn amount exceeds balance\\\");\\n        unchecked {\\n            _balances[account] = accountBalance - amount;\\n        }\\n        _totalSupply -= amount;\\n\\n        emit Transfer(account, address(0), amount);\\n\\n        _afterTokenTransfer(account, address(0), amount);\\n    }\\n\\n    /**\\n     * @dev Sets `amount` as the allowance of `spender` over the `owner` s tokens.\\n     *\\n     * This internal function is equivalent to `approve`, and can be used to\\n     * e.g. set automatic allowances for certain subsystems, etc.\\n     *\\n     * Emits an {Approval} event.\\n     *\\n     * Requirements:\\n     *\\n     * - `owner` cannot be the zero address.\\n     * - `spender` cannot be the zero address.\\n     */\\n    function _approve(\\n        address owner,\\n        address spender,\\n        uint256 amount\\n    ) internal virtual {\\n        require(owner != address(0), \\\"ERC20: approve from the zero address\\\");\\n        require(spender != address(0), \\\"ERC20: approve to the zero address\\\");\\n\\n        _allowances[owner][spender] = amount;\\n        emit Approval(owner, spender, amount);\\n    }\\n\\n    /**\\n     * @dev Hook that is called before any transfer of tokens. This includes\\n     * minting and burning.\\n     *\\n     * Calling conditions:\\n     *\\n     * - when `from` and `to` are both non-zero, `amount` of ``from``'s tokens\\n     * will be transferred to `to`.\\n     * - when `from` is zero, `amount` tokens will be minted for `to`.\\n     * - when `to` is zero, `amount` of ``from``'s tokens will be burned.\\n     * - `from` and `to` are never both zero.\\n     *\\n     * To learn more about hooks, head to xref:ROOT:extending-contracts.adoc#using-hooks[Using Hooks].\\n     */\\n    function _beforeTokenTransfer(\\n        address from,\\n        address to,\\n        uint256 amount\\n    ) internal virtual {}\\n\\n    /**\\n     * @dev Hook that is called after any transfer of tokens. This includes\\n     * minting and burning.\\n     *\\n     * Calling conditions:\\n     *\\n     * - when `from` and `to` are both non-zero, `amount` of ``from``'s tokens\\n     * has been transferred to `to`.\\n     * - when `from` is zero, `amount` tokens have been minted for `to`.\\n     * - when `to` is zero, `amount` of ``from``'s tokens have been burned.\\n     * - `from` and `to` are never both zero.\\n     *\\n     * To learn more about hooks, head to xref:ROOT:extending-contracts.adoc#using-hooks[Using Hooks].\\n     */\\n    function _afterTokenTransfer(\\n        address from,\\n        address to,\\n        uint256 amount\\n    ) internal virtual {}\\n}\\n\",\"keccak256\":\"0xb03df8481a954604ad0c9125680893b2e3f7ff770fe470e38b89ac61b84e8072\",\"license\":\"MIT\"},\"@openzeppelin/contracts/token/ERC20/IERC20.sol\":{\"content\":\"// SPDX-License-Identifier: MIT\\n\\npragma solidity ^0.8.0;\\n\\n/**\\n * @dev Interface of the ERC20 standard as defined in the EIP.\\n */\\ninterface IERC20 {\\n    /**\\n     * @dev Returns the amount of tokens in existence.\\n     */\\n    function totalSupply() external view returns (uint256);\\n\\n    /**\\n     * @dev Returns the amount of tokens owned by `account`.\\n     */\\n    function balanceOf(address account) external view returns (uint256);\\n\\n    /**\\n     * @dev Moves `amount` tokens from the caller's account to `recipient`.\\n     *\\n     * Returns a boolean value indicating whether the operation succeeded.\\n     *\\n     * Emits a {Transfer} event.\\n     */\\n    function transfer(address recipient, uint256 amount) external returns (bool);\\n\\n    /**\\n     * @dev Returns the remaining number of tokens that `spender` will be\\n     * allowed to spend on behalf of `owner` through {transferFrom}. This is\\n     * zero by default.\\n     *\\n     * This value changes when {approve} or {transferFrom} are called.\\n     */\\n    function allowance(address owner, address spender) external view returns (uint256);\\n\\n    /**\\n     * @dev Sets `amount` as the allowance of `spender` over the caller's tokens.\\n     *\\n     * Returns a boolean value indicating whether the operation succeeded.\\n     *\\n     * IMPORTANT: Beware that changing an allowance with this method brings the risk\\n     * that someone may use both the old and the new allowance by unfortunate\\n     * transaction ordering. One possible solution to mitigate this race\\n     * condition is to first reduce the spender's allowance to 0 and set the\\n     * desired value afterwards:\\n     * https://github.com/ethereum/EIPs/issues/20#issuecomment-263524729\\n     *\\n     * Emits an {Approval} event.\\n     */\\n    function approve(address spender, uint256 amount) external returns (bool);\\n\\n    /**\\n     * @dev Moves `amount` tokens from `sender` to `recipient` using the\\n     * allowance mechanism. `amount` is then deducted from the caller's\\n     * allowance.\\n     *\\n     * Returns a boolean value indicating whether the operation succeeded.\\n     *\\n     * Emits a {Transfer} event.\\n     */\\n    function transferFrom(\\n        address sender,\\n        address recipient,\\n        uint256 amount\\n    ) external returns (bool);\\n\\n    /**\\n     * @dev Emitted when `value` tokens are moved from one account (`from`) to\\n     * another (`to`).\\n     *\\n     * Note that `value` may be zero.\\n     */\\n    event Transfer(address indexed from, address indexed to, uint256 value);\\n\\n    /**\\n     * @dev Emitted when the allowance of a `spender` for an `owner` is set by\\n     * a call to {approve}. `value` is the new allowance.\\n     */\\n    event Approval(address indexed owner, address indexed spender, uint256 value);\\n}\\n\",\"keccak256\":\"0x027b891937d20ccf213fdb9c31531574256de774bda99d3a70ecef6e1913ed2a\",\"license\":\"MIT\"},\"@openzeppelin/contracts/token/ERC20/extensions/IERC20Metadata.sol\":{\"content\":\"// SPDX-License-Identifier: MIT\\n\\npragma solidity ^0.8.0;\\n\\nimport \\\"../IERC20.sol\\\";\\n\\n/**\\n * @dev Interface for the optional metadata functions from the ERC20 standard.\\n *\\n * _Available since v4.1._\\n */\\ninterface IERC20Metadata is IERC20 {\\n    /**\\n     * @dev Returns the name of the token.\\n     */\\n    function name() external view returns (string memory);\\n\\n    /**\\n     * @dev Returns the symbol of the token.\\n     */\\n    function symbol() external view returns (string memory);\\n\\n    /**\\n     * @dev Returns the decimals places of the token.\\n     */\\n    function decimals() external view returns (uint8);\\n}\\n\",\"keccak256\":\"0x83fe24f5c04a56091e50f4a345ff504c8bff658a76d4c43b16878c8f940c53b2\",\"license\":\"MIT\"},\"@openzeppelin/contracts/token/ERC721/IERC721.sol\":{\"content\":\"// SPDX-License-Identifier: MIT\\n\\npragma solidity ^0.8.0;\\n\\nimport \\\"../../utils/introspection/IERC165.sol\\\";\\n\\n/**\\n * @dev Required interface of an ERC721 compliant contract.\\n */\\ninterface IERC721 is IERC165 {\\n    /**\\n     * @dev Emitted when `tokenId` token is transferred from `from` to `to`.\\n     */\\n    event Transfer(address indexed from, address indexed to, uint256 indexed tokenId);\\n\\n    /**\\n     * @dev Emitted when `owner` enables `approved` to manage the `tokenId` token.\\n     */\\n    event Approval(address indexed owner, address indexed approved, uint256 indexed tokenId);\\n\\n    /**\\n     * @dev Emitted when `owner` enables or disables (`approved`) `operator` to manage all of its assets.\\n     */\\n    event ApprovalForAll(address indexed owner, address indexed operator, bool approved);\\n\\n    /**\\n     * @dev Returns the number of tokens in ``owner``'s account.\\n     */\\n    function balanceOf(address owner) external view returns (uint256 balance);\\n\\n    /**\\n     * @dev Returns the owner of the `tokenId` token.\\n     *\\n     * Requirements:\\n     *\\n     * - `tokenId` must exist.\\n     */\\n    function ownerOf(uint256 tokenId) external view returns (address owner);\\n\\n    /**\\n     * @dev Safely transfers `tokenId` token from `from` to `to`, checking first that contract recipients\\n     * are aware of the ERC721 protocol to prevent tokens from being forever locked.\\n     *\\n     * Requirements:\\n     *\\n     * - `from` cannot be the zero address.\\n     * - `to` cannot be the zero address.\\n     * - `tokenId` token must exist and be owned by `from`.\\n     * - If the caller is not `from`, it must be have been allowed to move this token by either {approve} or {setApprovalForAll}.\\n     * - If `to` refers to a smart contract, it must implement {IERC721Receiver-onERC721Received}, which is called upon a safe transfer.\\n     *\\n     * Emits a {Transfer} event.\\n     */\\n    function safeTransferFrom(\\n        address from,\\n        address to,\\n        uint256 tokenId\\n    ) external;\\n\\n    /**\\n     * @dev Transfers `tokenId` token from `from` to `to`.\\n     *\\n     * WARNING: Usage of this method is discouraged, use {safeTransferFrom} whenever possible.\\n     *\\n     * Requirements:\\n     *\\n     * - `from` cannot be the zero address.\\n     * - `to` cannot be the zero address.\\n     * - `tokenId` token must be owned by `from`.\\n     * - If the caller is not `from`, it must be approved to move this token by either {approve} or {setApprovalForAll}.\\n     *\\n     * Emits a {Transfer} event.\\n     */\\n    function transferFrom(\\n        address from,\\n        address to,\\n        uint256 tokenId\\n    ) external;\\n\\n    /**\\n     * @dev Gives permission to `to` to transfer `tokenId` token to another account.\\n     * The approval is cleared when the token is transferred.\\n     *\\n     * Only a single account can be approved at a time, so approving the zero address clears previous approvals.\\n     *\\n     * Requirements:\\n     *\\n     * - The caller must own the token or be an approved operator.\\n     * - `tokenId` must exist.\\n     *\\n     * Emits an {Approval} event.\\n     */\\n    function approve(address to, uint256 tokenId) external;\\n\\n    /**\\n     * @dev Returns the account approved for `tokenId` token.\\n     *\\n     * Requirements:\\n     *\\n     * - `tokenId` must exist.\\n     */\\n    function getApproved(uint256 tokenId) external view returns (address operator);\\n\\n    /**\\n     * @dev Approve or remove `operator` as an operator for the caller.\\n     * Operators can call {transferFrom} or {safeTransferFrom} for any token owned by the caller.\\n     *\\n     * Requirements:\\n     *\\n     * - The `operator` cannot be the caller.\\n     *\\n     * Emits an {ApprovalForAll} event.\\n     */\\n    function setApprovalForAll(address operator, bool _approved) external;\\n\\n    /**\\n     * @dev Returns if the `operator` is allowed to manage all of the assets of `owner`.\\n     *\\n     * See {setApprovalForAll}\\n     */\\n    function isApprovedForAll(address owner, address operator) external view returns (bool);\\n\\n    /**\\n     * @dev Safely transfers `tokenId` token from `from` to `to`.\\n     *\\n     * Requirements:\\n     *\\n     * - `from` cannot be the zero address.\\n     * - `to` cannot be the zero address.\\n     * - `tokenId` token must exist and be owned by `from`.\\n     * - If the caller is not `from`, it must be approved to move this token by either {approve} or {setApprovalForAll}.\\n     * - If `to` refers to a smart contract, it must implement {IERC721Receiver-onERC721Received}, which is called upon a safe transfer.\\n     *\\n     * Emits a {Transfer} event.\\n     */\\n    function safeTransferFrom(\\n        address from,\\n        address to,\\n        uint256 tokenId,\\n        bytes calldata data\\n    ) external;\\n}\\n\",\"keccak256\":\"0xf101e8720213560fab41104d53b3cc7ba0456ef3a98455aa7f022391783144a0\",\"license\":\"MIT\"},\"@openzeppelin/contracts/token/ERC721/extensions/IERC721Metadata.sol\":{\"content\":\"// SPDX-License-Identifier: MIT\\n\\npragma solidity ^0.8.0;\\n\\nimport \\\"../IERC721.sol\\\";\\n\\n/**\\n * @title ERC-721 Non-Fungible Token Standard, optional metadata extension\\n * @dev See https://eips.ethereum.org/EIPS/eip-721\\n */\\ninterface IERC721Metadata is IERC721 {\\n    /**\\n     * @dev Returns the token collection name.\\n     */\\n    function name() external view returns (string memory);\\n\\n    /**\\n     * @dev Returns the token collection symbol.\\n     */\\n    function symbol() external view returns (string memory);\\n\\n    /**\\n     * @dev Returns the Uniform Resource Identifier (URI) for `tokenId` token.\\n     */\\n    function tokenURI(uint256 tokenId) external view returns (string memory);\\n}\\n\",\"keccak256\":\"0xd32fb7f530a914b1083d10a6bed3a586f2451952fec04fe542bcc670a82f7ba5\",\"license\":\"MIT\"},\"@openzeppelin/contracts/utils/Address.sol\":{\"content\":\"// SPDX-License-Identifier: MIT\\n\\npragma solidity ^0.8.0;\\n\\n/**\\n * @dev Collection of functions related to the address type\\n */\\nlibrary Address {\\n    /**\\n     * @dev Returns true if `account` is a contract.\\n     *\\n     * [IMPORTANT]\\n     * ====\\n     * It is unsafe to assume that an address for which this function returns\\n     * false is an externally-owned account (EOA) and not a contract.\\n     *\\n     * Among others, `isContract` will return false for the following\\n     * types of addresses:\\n     *\\n     *  - an externally-owned account\\n     *  - a contract in construction\\n     *  - an address where a contract will be created\\n     *  - an address where a contract lived, but was destroyed\\n     * ====\\n     */\\n    function isContract(address account) internal view returns (bool) {\\n        // This method relies on extcodesize, which returns 0 for contracts in\\n        // construction, since the code is only stored at the end of the\\n        // constructor execution.\\n\\n        uint256 size;\\n        assembly {\\n            size := extcodesize(account)\\n        }\\n        return size > 0;\\n    }\\n\\n    /**\\n     * @dev Replacement for Solidity's `transfer`: sends `amount` wei to\\n     * `recipient`, forwarding all available gas and reverting on errors.\\n     *\\n     * https://eips.ethereum.org/EIPS/eip-1884[EIP1884] increases the gas cost\\n     * of certain opcodes, possibly making contracts go over the 2300 gas limit\\n     * imposed by `transfer`, making them unable to receive funds via\\n     * `transfer`. {sendValue} removes this limitation.\\n     *\\n     * https://diligence.consensys.net/posts/2019/09/stop-using-soliditys-transfer-now/[Learn more].\\n     *\\n     * IMPORTANT: because control is transferred to `recipient`, care must be\\n     * taken to not create reentrancy vulnerabilities. Consider using\\n     * {ReentrancyGuard} or the\\n     * https://solidity.readthedocs.io/en/v0.5.11/security-considerations.html#use-the-checks-effects-interactions-pattern[checks-effects-interactions pattern].\\n     */\\n    function sendValue(address payable recipient, uint256 amount) internal {\\n        require(address(this).balance >= amount, \\\"Address: insufficient balance\\\");\\n\\n        (bool success, ) = recipient.call{value: amount}(\\\"\\\");\\n        require(success, \\\"Address: unable to send value, recipient may have reverted\\\");\\n    }\\n\\n    /**\\n     * @dev Performs a Solidity function call using a low level `call`. A\\n     * plain `call` is an unsafe replacement for a function call: use this\\n     * function instead.\\n     *\\n     * If `target` reverts with a revert reason, it is bubbled up by this\\n     * function (like regular Solidity function calls).\\n     *\\n     * Returns the raw returned data. To convert to the expected return value,\\n     * use https://solidity.readthedocs.io/en/latest/units-and-global-variables.html?highlight=abi.decode#abi-encoding-and-decoding-functions[`abi.decode`].\\n     *\\n     * Requirements:\\n     *\\n     * - `target` must be a contract.\\n     * - calling `target` with `data` must not revert.\\n     *\\n     * _Available since v3.1._\\n     */\\n    function functionCall(address target, bytes memory data) internal returns (bytes memory) {\\n        return functionCall(target, data, \\\"Address: low-level call failed\\\");\\n    }\\n\\n    /**\\n     * @dev Same as {xref-Address-functionCall-address-bytes-}[`functionCall`], but with\\n     * `errorMessage` as a fallback revert reason when `target` reverts.\\n     *\\n     * _Available since v3.1._\\n     */\\n    function functionCall(\\n        address target,\\n        bytes memory data,\\n        string memory errorMessage\\n    ) internal returns (bytes memory) {\\n        return functionCallWithValue(target, data, 0, errorMessage);\\n    }\\n\\n    /**\\n     * @dev Same as {xref-Address-functionCall-address-bytes-}[`functionCall`],\\n     * but also transferring `value` wei to `target`.\\n     *\\n     * Requirements:\\n     *\\n     * - the calling contract must have an ETH balance of at least `value`.\\n     * - the called Solidity function must be `payable`.\\n     *\\n     * _Available since v3.1._\\n     */\\n    function functionCallWithValue(\\n        address target,\\n        bytes memory data,\\n        uint256 value\\n    ) internal returns (bytes memory) {\\n        return functionCallWithValue(target, data, value, \\\"Address: low-level call with value failed\\\");\\n    }\\n\\n    /**\\n     * @dev Same as {xref-Address-functionCallWithValue-address-bytes-uint256-}[`functionCallWithValue`], but\\n     * with `errorMessage` as a fallback revert reason when `target` reverts.\\n     *\\n     * _Available since v3.1._\\n     */\\n    function functionCallWithValue(\\n        address target,\\n        bytes memory data,\\n        uint256 value,\\n        string memory errorMessage\\n    ) internal returns (bytes memory) {\\n        require(address(this).balance >= value, \\\"Address: insufficient balance for call\\\");\\n        require(isContract(target), \\\"Address: call to non-contract\\\");\\n\\n        (bool success, bytes memory returndata) = target.call{value: value}(data);\\n        return verifyCallResult(success, returndata, errorMessage);\\n    }\\n\\n    /**\\n     * @dev Same as {xref-Address-functionCall-address-bytes-}[`functionCall`],\\n     * but performing a static call.\\n     *\\n     * _Available since v3.3._\\n     */\\n    function functionStaticCall(address target, bytes memory data) internal view returns (bytes memory) {\\n        return functionStaticCall(target, data, \\\"Address: low-level static call failed\\\");\\n    }\\n\\n    /**\\n     * @dev Same as {xref-Address-functionCall-address-bytes-string-}[`functionCall`],\\n     * but performing a static call.\\n     *\\n     * _Available since v3.3._\\n     */\\n    function functionStaticCall(\\n        address target,\\n        bytes memory data,\\n        string memory errorMessage\\n    ) internal view returns (bytes memory) {\\n        require(isContract(target), \\\"Address: static call to non-contract\\\");\\n\\n        (bool success, bytes memory returndata) = target.staticcall(data);\\n        return verifyCallResult(success, returndata, errorMessage);\\n    }\\n\\n    /**\\n     * @dev Same as {xref-Address-functionCall-address-bytes-}[`functionCall`],\\n     * but performing a delegate call.\\n     *\\n     * _Available since v3.4._\\n     */\\n    function functionDelegateCall(address target, bytes memory data) internal returns (bytes memory) {\\n        return functionDelegateCall(target, data, \\\"Address: low-level delegate call failed\\\");\\n    }\\n\\n    /**\\n     * @dev Same as {xref-Address-functionCall-address-bytes-string-}[`functionCall`],\\n     * but performing a delegate call.\\n     *\\n     * _Available since v3.4._\\n     */\\n    function functionDelegateCall(\\n        address target,\\n        bytes memory data,\\n        string memory errorMessage\\n    ) internal returns (bytes memory) {\\n        require(isContract(target), \\\"Address: delegate call to non-contract\\\");\\n\\n        (bool success, bytes memory returndata) = target.delegatecall(data);\\n        return verifyCallResult(success, returndata, errorMessage);\\n    }\\n\\n    /**\\n     * @dev Tool to verifies that a low level call was successful, and revert if it wasn't, either by bubbling the\\n     * revert reason using the provided one.\\n     *\\n     * _Available since v4.3._\\n     */\\n    function verifyCallResult(\\n        bool success,\\n        bytes memory returndata,\\n        string memory errorMessage\\n    ) internal pure returns (bytes memory) {\\n        if (success) {\\n            return returndata;\\n        } else {\\n            // Look for revert reason and bubble it up if present\\n            if (returndata.length > 0) {\\n                // The easiest way to bubble the revert reason is using memory via assembly\\n\\n                assembly {\\n                    let returndata_size := mload(returndata)\\n                    revert(add(32, returndata), returndata_size)\\n                }\\n            } else {\\n                revert(errorMessage);\\n            }\\n        }\\n    }\\n}\\n\",\"keccak256\":\"0x3336baae5cf23e94274d75336e2d412193be508504aee185e61dc7d58cd05c8a\",\"license\":\"MIT\"},\"@openzeppelin/contracts/utils/Context.sol\":{\"content\":\"// SPDX-License-Identifier: MIT\\n\\npragma solidity ^0.8.0;\\n\\n/**\\n * @dev Provides information about the current execution context, including the\\n * sender of the transaction and its data. While these are generally available\\n * via msg.sender and msg.data, they should not be accessed in such a direct\\n * manner, since when dealing with meta-transactions the account sending and\\n * paying for execution may not be the actual sender (as far as an application\\n * is concerned).\\n *\\n * This contract is only required for intermediate, library-like contracts.\\n */\\nabstract contract Context {\\n    function _msgSender() internal view virtual returns (address) {\\n        return msg.sender;\\n    }\\n\\n    function _msgData() internal view virtual returns (bytes calldata) {\\n        return msg.data;\\n    }\\n}\\n\",\"keccak256\":\"0x90565a39ae45c80f0468dc96c7b20d0afc3055f344c8203a0c9258239f350b9f\",\"license\":\"MIT\"},\"@openzeppelin/contracts/utils/Counters.sol\":{\"content\":\"// SPDX-License-Identifier: MIT\\n\\npragma solidity ^0.8.0;\\n\\n/**\\n * @title Counters\\n * @author Matt Condon (@shrugs)\\n * @dev Provides counters that can only be incremented, decremented or reset. This can be used e.g. to track the number\\n * of elements in a mapping, issuing ERC721 ids, or counting request ids.\\n *\\n * Include with `using Counters for Counters.Counter;`\\n */\\nlibrary Counters {\\n    struct Counter {\\n        // This variable should never be directly accessed by users of the library: interactions must be restricted to\\n        // the library's function. As of Solidity v0.5.2, this cannot be enforced, though there is a proposal to add\\n        // this feature: see https://github.com/ethereum/solidity/issues/4637\\n        uint256 _value; // default: 0\\n    }\\n\\n    function current(Counter storage counter) internal view returns (uint256) {\\n        return counter._value;\\n    }\\n\\n    function increment(Counter storage counter) internal {\\n        unchecked {\\n            counter._value += 1;\\n        }\\n    }\\n\\n    function decrement(Counter storage counter) internal {\\n        uint256 value = counter._value;\\n        require(value > 0, \\\"Counter: decrement overflow\\\");\\n        unchecked {\\n            counter._value = value - 1;\\n        }\\n    }\\n\\n    function reset(Counter storage counter) internal {\\n        counter._value = 0;\\n    }\\n}\\n\",\"keccak256\":\"0x78450f4e3b722cce467b21e285f72ce5eaf361e9ba9dd2241a413926246773cd\",\"license\":\"MIT\"},\"@openzeppelin/contracts/utils/cryptography/ECDSA.sol\":{\"content\":\"// SPDX-License-Identifier: MIT\\n\\npragma solidity ^0.8.0;\\n\\n/**\\n * @dev Elliptic Curve Digital Signature Algorithm (ECDSA) operations.\\n *\\n * These functions can be used to verify that a message was signed by the holder\\n * of the private keys of a given address.\\n */\\nlibrary ECDSA {\\n    enum RecoverError {\\n        NoError,\\n        InvalidSignature,\\n        InvalidSignatureLength,\\n        InvalidSignatureS,\\n        InvalidSignatureV\\n    }\\n\\n    function _throwError(RecoverError error) private pure {\\n        if (error == RecoverError.NoError) {\\n            return; // no error: do nothing\\n        } else if (error == RecoverError.InvalidSignature) {\\n            revert(\\\"ECDSA: invalid signature\\\");\\n        } else if (error == RecoverError.InvalidSignatureLength) {\\n            revert(\\\"ECDSA: invalid signature length\\\");\\n        } else if (error == RecoverError.InvalidSignatureS) {\\n            revert(\\\"ECDSA: invalid signature 's' value\\\");\\n        } else if (error == RecoverError.InvalidSignatureV) {\\n            revert(\\\"ECDSA: invalid signature 'v' value\\\");\\n        }\\n    }\\n\\n    /**\\n     * @dev Returns the address that signed a hashed message (`hash`) with\\n     * `signature` or error string. This address can then be used for verification purposes.\\n     *\\n     * The `ecrecover` EVM opcode allows for malleable (non-unique) signatures:\\n     * this function rejects them by requiring the `s` value to be in the lower\\n     * half order, and the `v` value to be either 27 or 28.\\n     *\\n     * IMPORTANT: `hash` _must_ be the result of a hash operation for the\\n     * verification to be secure: it is possible to craft signatures that\\n     * recover to arbitrary addresses for non-hashed data. A safe way to ensure\\n     * this is by receiving a hash of the original message (which may otherwise\\n     * be too long), and then calling {toEthSignedMessageHash} on it.\\n     *\\n     * Documentation for signature generation:\\n     * - with https://web3js.readthedocs.io/en/v1.3.4/web3-eth-accounts.html#sign[Web3.js]\\n     * - with https://docs.ethers.io/v5/api/signer/#Signer-signMessage[ethers]\\n     *\\n     * _Available since v4.3._\\n     */\\n    function tryRecover(bytes32 hash, bytes memory signature) internal pure returns (address, RecoverError) {\\n        // Check the signature length\\n        // - case 65: r,s,v signature (standard)\\n        // - case 64: r,vs signature (cf https://eips.ethereum.org/EIPS/eip-2098) _Available since v4.1._\\n        if (signature.length == 65) {\\n            bytes32 r;\\n            bytes32 s;\\n            uint8 v;\\n            // ecrecover takes the signature parameters, and the only way to get them\\n            // currently is to use assembly.\\n            assembly {\\n                r := mload(add(signature, 0x20))\\n                s := mload(add(signature, 0x40))\\n                v := byte(0, mload(add(signature, 0x60)))\\n            }\\n            return tryRecover(hash, v, r, s);\\n        } else if (signature.length == 64) {\\n            bytes32 r;\\n            bytes32 vs;\\n            // ecrecover takes the signature parameters, and the only way to get them\\n            // currently is to use assembly.\\n            assembly {\\n                r := mload(add(signature, 0x20))\\n                vs := mload(add(signature, 0x40))\\n            }\\n            return tryRecover(hash, r, vs);\\n        } else {\\n            return (address(0), RecoverError.InvalidSignatureLength);\\n        }\\n    }\\n\\n    /**\\n     * @dev Returns the address that signed a hashed message (`hash`) with\\n     * `signature`. This address can then be used for verification purposes.\\n     *\\n     * The `ecrecover` EVM opcode allows for malleable (non-unique) signatures:\\n     * this function rejects them by requiring the `s` value to be in the lower\\n     * half order, and the `v` value to be either 27 or 28.\\n     *\\n     * IMPORTANT: `hash` _must_ be the result of a hash operation for the\\n     * verification to be secure: it is possible to craft signatures that\\n     * recover to arbitrary addresses for non-hashed data. A safe way to ensure\\n     * this is by receiving a hash of the original message (which may otherwise\\n     * be too long), and then calling {toEthSignedMessageHash} on it.\\n     */\\n    function recover(bytes32 hash, bytes memory signature) internal pure returns (address) {\\n        (address recovered, RecoverError error) = tryRecover(hash, signature);\\n        _throwError(error);\\n        return recovered;\\n    }\\n\\n    /**\\n     * @dev Overload of {ECDSA-tryRecover} that receives the `r` and `vs` short-signature fields separately.\\n     *\\n     * See https://eips.ethereum.org/EIPS/eip-2098[EIP-2098 short signatures]\\n     *\\n     * _Available since v4.3._\\n     */\\n    function tryRecover(\\n        bytes32 hash,\\n        bytes32 r,\\n        bytes32 vs\\n    ) internal pure returns (address, RecoverError) {\\n        bytes32 s;\\n        uint8 v;\\n        assembly {\\n            s := and(vs, 0x7fffffffffffffffffffffffffffffffffffffffffffffffffffffffffffffff)\\n            v := add(shr(255, vs), 27)\\n        }\\n        return tryRecover(hash, v, r, s);\\n    }\\n\\n    /**\\n     * @dev Overload of {ECDSA-recover} that receives the `r and `vs` short-signature fields separately.\\n     *\\n     * _Available since v4.2._\\n     */\\n    function recover(\\n        bytes32 hash,\\n        bytes32 r,\\n        bytes32 vs\\n    ) internal pure returns (address) {\\n        (address recovered, RecoverError error) = tryRecover(hash, r, vs);\\n        _throwError(error);\\n        return recovered;\\n    }\\n\\n    /**\\n     * @dev Overload of {ECDSA-tryRecover} that receives the `v`,\\n     * `r` and `s` signature fields separately.\\n     *\\n     * _Available since v4.3._\\n     */\\n    function tryRecover(\\n        bytes32 hash,\\n        uint8 v,\\n        bytes32 r,\\n        bytes32 s\\n    ) internal pure returns (address, RecoverError) {\\n        // EIP-2 still allows signature malleability for ecrecover(). Remove this possibility and make the signature\\n        // unique. Appendix F in the Ethereum Yellow paper (https://ethereum.github.io/yellowpaper/paper.pdf), defines\\n        // the valid range for s in (301): 0 < s < secp256k1n \\u00f7 2 + 1, and for v in (302): v \\u2208 {27, 28}. Most\\n        // signatures from current libraries generate a unique signature with an s-value in the lower half order.\\n        //\\n        // If your library generates malleable signatures, such as s-values in the upper range, calculate a new s-value\\n        // with 0xFFFFFFFFFFFFFFFFFFFFFFFFFFFFFFFEBAAEDCE6AF48A03BBFD25E8CD0364141 - s1 and flip v from 27 to 28 or\\n        // vice versa. If your library also generates signatures with 0/1 for v instead 27/28, add 27 to v to accept\\n        // these malleable signatures as well.\\n        if (uint256(s) > 0x7FFFFFFFFFFFFFFFFFFFFFFFFFFFFFFF5D576E7357A4501DDFE92F46681B20A0) {\\n            return (address(0), RecoverError.InvalidSignatureS);\\n        }\\n        if (v != 27 && v != 28) {\\n            return (address(0), RecoverError.InvalidSignatureV);\\n        }\\n\\n        // If the signature is valid (and not malleable), return the signer address\\n        address signer = ecrecover(hash, v, r, s);\\n        if (signer == address(0)) {\\n            return (address(0), RecoverError.InvalidSignature);\\n        }\\n\\n        return (signer, RecoverError.NoError);\\n    }\\n\\n    /**\\n     * @dev Overload of {ECDSA-recover} that receives the `v`,\\n     * `r` and `s` signature fields separately.\\n     */\\n    function recover(\\n        bytes32 hash,\\n        uint8 v,\\n        bytes32 r,\\n        bytes32 s\\n    ) internal pure returns (address) {\\n        (address recovered, RecoverError error) = tryRecover(hash, v, r, s);\\n        _throwError(error);\\n        return recovered;\\n    }\\n\\n    /**\\n     * @dev Returns an Ethereum Signed Message, created from a `hash`. This\\n     * produces hash corresponding to the one signed with the\\n     * https://eth.wiki/json-rpc/API#eth_sign[`eth_sign`]\\n     * JSON-RPC method as part of EIP-191.\\n     *\\n     * See {recover}.\\n     */\\n    function toEthSignedMessageHash(bytes32 hash) internal pure returns (bytes32) {\\n        // 32 is the length in bytes of hash,\\n        // enforced by the type signature above\\n        return keccak256(abi.encodePacked(\\\"\\\\x19Ethereum Signed Message:\\\\n32\\\", hash));\\n    }\\n\\n    /**\\n     * @dev Returns an Ethereum Signed Typed Data, created from a\\n     * `domainSeparator` and a `structHash`. This produces hash corresponding\\n     * to the one signed with the\\n     * https://eips.ethereum.org/EIPS/eip-712[`eth_signTypedData`]\\n     * JSON-RPC method as part of EIP-712.\\n     *\\n     * See {recover}.\\n     */\\n    function toTypedDataHash(bytes32 domainSeparator, bytes32 structHash) internal pure returns (bytes32) {\\n        return keccak256(abi.encodePacked(\\\"\\\\x19\\\\x01\\\", domainSeparator, structHash));\\n    }\\n}\\n\",\"keccak256\":\"0xbc991a1cf357ce19480831a40792c814238a3b5458134703682abd8aa39719fb\",\"license\":\"MIT\"},\"@openzeppelin/contracts/utils/introspection/IERC165.sol\":{\"content\":\"// SPDX-License-Identifier: MIT\\n\\npragma solidity ^0.8.0;\\n\\n/**\\n * @dev Interface of the ERC165 standard, as defined in the\\n * https://eips.ethereum.org/EIPS/eip-165[EIP].\\n *\\n * Implementers can declare support of contract interfaces, which can then be\\n * queried by others ({ERC165Checker}).\\n *\\n * For an implementation, see {ERC165}.\\n */\\ninterface IERC165 {\\n    /**\\n     * @dev Returns true if this contract implements the interface defined by\\n     * `interfaceId`. See the corresponding\\n     * https://eips.ethereum.org/EIPS/eip-165#how-interfaces-are-identified[EIP section]\\n     * to learn more about how these ids are created.\\n     *\\n     * This function call must use less than 30 000 gas.\\n     */\\n    function supportsInterface(bytes4 interfaceId) external view returns (bool);\\n}\\n\",\"keccak256\":\"0xa28007762d9da9db878dd421960c8cb9a10471f47ab5c1b3309bfe48e9e79ff4\",\"license\":\"MIT\"},\"@openzeppelin/contracts/utils/math/SafeCast.sol\":{\"content\":\"// SPDX-License-Identifier: MIT\\n\\npragma solidity ^0.8.0;\\n\\n/**\\n * @dev Wrappers over Solidity's uintXX/intXX casting operators with added overflow\\n * checks.\\n *\\n * Downcasting from uint256/int256 in Solidity does not revert on overflow. This can\\n * easily result in undesired exploitation or bugs, since developers usually\\n * assume that overflows raise errors. `SafeCast` restores this intuition by\\n * reverting the transaction when such an operation overflows.\\n *\\n * Using this library instead of the unchecked operations eliminates an entire\\n * class of bugs, so it's recommended to use it always.\\n *\\n * Can be combined with {SafeMath} and {SignedSafeMath} to extend it to smaller types, by performing\\n * all math on `uint256` and `int256` and then downcasting.\\n */\\nlibrary SafeCast {\\n    /**\\n     * @dev Returns the downcasted uint224 from uint256, reverting on\\n     * overflow (when the input is greater than largest uint224).\\n     *\\n     * Counterpart to Solidity's `uint224` operator.\\n     *\\n     * Requirements:\\n     *\\n     * - input must fit into 224 bits\\n     */\\n    function toUint224(uint256 value) internal pure returns (uint224) {\\n        require(value <= type(uint224).max, \\\"SafeCast: value doesn't fit in 224 bits\\\");\\n        return uint224(value);\\n    }\\n\\n    /**\\n     * @dev Returns the downcasted uint128 from uint256, reverting on\\n     * overflow (when the input is greater than largest uint128).\\n     *\\n     * Counterpart to Solidity's `uint128` operator.\\n     *\\n     * Requirements:\\n     *\\n     * - input must fit into 128 bits\\n     */\\n    function toUint128(uint256 value) internal pure returns (uint128) {\\n        require(value <= type(uint128).max, \\\"SafeCast: value doesn't fit in 128 bits\\\");\\n        return uint128(value);\\n    }\\n\\n    /**\\n     * @dev Returns the downcasted uint96 from uint256, reverting on\\n     * overflow (when the input is greater than largest uint96).\\n     *\\n     * Counterpart to Solidity's `uint96` operator.\\n     *\\n     * Requirements:\\n     *\\n     * - input must fit into 96 bits\\n     */\\n    function toUint96(uint256 value) internal pure returns (uint96) {\\n        require(value <= type(uint96).max, \\\"SafeCast: value doesn't fit in 96 bits\\\");\\n        return uint96(value);\\n    }\\n\\n    /**\\n     * @dev Returns the downcasted uint64 from uint256, reverting on\\n     * overflow (when the input is greater than largest uint64).\\n     *\\n     * Counterpart to Solidity's `uint64` operator.\\n     *\\n     * Requirements:\\n     *\\n     * - input must fit into 64 bits\\n     */\\n    function toUint64(uint256 value) internal pure returns (uint64) {\\n        require(value <= type(uint64).max, \\\"SafeCast: value doesn't fit in 64 bits\\\");\\n        return uint64(value);\\n    }\\n\\n    /**\\n     * @dev Returns the downcasted uint32 from uint256, reverting on\\n     * overflow (when the input is greater than largest uint32).\\n     *\\n     * Counterpart to Solidity's `uint32` operator.\\n     *\\n     * Requirements:\\n     *\\n     * - input must fit into 32 bits\\n     */\\n    function toUint32(uint256 value) internal pure returns (uint32) {\\n        require(value <= type(uint32).max, \\\"SafeCast: value doesn't fit in 32 bits\\\");\\n        return uint32(value);\\n    }\\n\\n    /**\\n     * @dev Returns the downcasted uint16 from uint256, reverting on\\n     * overflow (when the input is greater than largest uint16).\\n     *\\n     * Counterpart to Solidity's `uint16` operator.\\n     *\\n     * Requirements:\\n     *\\n     * - input must fit into 16 bits\\n     */\\n    function toUint16(uint256 value) internal pure returns (uint16) {\\n        require(value <= type(uint16).max, \\\"SafeCast: value doesn't fit in 16 bits\\\");\\n        return uint16(value);\\n    }\\n\\n    /**\\n     * @dev Returns the downcasted uint8 from uint256, reverting on\\n     * overflow (when the input is greater than largest uint8).\\n     *\\n     * Counterpart to Solidity's `uint8` operator.\\n     *\\n     * Requirements:\\n     *\\n     * - input must fit into 8 bits.\\n     */\\n    function toUint8(uint256 value) internal pure returns (uint8) {\\n        require(value <= type(uint8).max, \\\"SafeCast: value doesn't fit in 8 bits\\\");\\n        return uint8(value);\\n    }\\n\\n    /**\\n     * @dev Converts a signed int256 into an unsigned uint256.\\n     *\\n     * Requirements:\\n     *\\n     * - input must be greater than or equal to 0.\\n     */\\n    function toUint256(int256 value) internal pure returns (uint256) {\\n        require(value >= 0, \\\"SafeCast: value must be positive\\\");\\n        return uint256(value);\\n    }\\n\\n    /**\\n     * @dev Returns the downcasted int128 from int256, reverting on\\n     * overflow (when the input is less than smallest int128 or\\n     * greater than largest int128).\\n     *\\n     * Counterpart to Solidity's `int128` operator.\\n     *\\n     * Requirements:\\n     *\\n     * - input must fit into 128 bits\\n     *\\n     * _Available since v3.1._\\n     */\\n    function toInt128(int256 value) internal pure returns (int128) {\\n        require(value >= type(int128).min && value <= type(int128).max, \\\"SafeCast: value doesn't fit in 128 bits\\\");\\n        return int128(value);\\n    }\\n\\n    /**\\n     * @dev Returns the downcasted int64 from int256, reverting on\\n     * overflow (when the input is less than smallest int64 or\\n     * greater than largest int64).\\n     *\\n     * Counterpart to Solidity's `int64` operator.\\n     *\\n     * Requirements:\\n     *\\n     * - input must fit into 64 bits\\n     *\\n     * _Available since v3.1._\\n     */\\n    function toInt64(int256 value) internal pure returns (int64) {\\n        require(value >= type(int64).min && value <= type(int64).max, \\\"SafeCast: value doesn't fit in 64 bits\\\");\\n        return int64(value);\\n    }\\n\\n    /**\\n     * @dev Returns the downcasted int32 from int256, reverting on\\n     * overflow (when the input is less than smallest int32 or\\n     * greater than largest int32).\\n     *\\n     * Counterpart to Solidity's `int32` operator.\\n     *\\n     * Requirements:\\n     *\\n     * - input must fit into 32 bits\\n     *\\n     * _Available since v3.1._\\n     */\\n    function toInt32(int256 value) internal pure returns (int32) {\\n        require(value >= type(int32).min && value <= type(int32).max, \\\"SafeCast: value doesn't fit in 32 bits\\\");\\n        return int32(value);\\n    }\\n\\n    /**\\n     * @dev Returns the downcasted int16 from int256, reverting on\\n     * overflow (when the input is less than smallest int16 or\\n     * greater than largest int16).\\n     *\\n     * Counterpart to Solidity's `int16` operator.\\n     *\\n     * Requirements:\\n     *\\n     * - input must fit into 16 bits\\n     *\\n     * _Available since v3.1._\\n     */\\n    function toInt16(int256 value) internal pure returns (int16) {\\n        require(value >= type(int16).min && value <= type(int16).max, \\\"SafeCast: value doesn't fit in 16 bits\\\");\\n        return int16(value);\\n    }\\n\\n    /**\\n     * @dev Returns the downcasted int8 from int256, reverting on\\n     * overflow (when the input is less than smallest int8 or\\n     * greater than largest int8).\\n     *\\n     * Counterpart to Solidity's `int8` operator.\\n     *\\n     * Requirements:\\n     *\\n     * - input must fit into 8 bits.\\n     *\\n     * _Available since v3.1._\\n     */\\n    function toInt8(int256 value) internal pure returns (int8) {\\n        require(value >= type(int8).min && value <= type(int8).max, \\\"SafeCast: value doesn't fit in 8 bits\\\");\\n        return int8(value);\\n    }\\n\\n    /**\\n     * @dev Converts an unsigned uint256 into a signed int256.\\n     *\\n     * Requirements:\\n     *\\n     * - input must be less than or equal to maxInt256.\\n     */\\n    function toInt256(uint256 value) internal pure returns (int256) {\\n        // Note: Unsafe cast below is okay because `type(int256).max` is guaranteed to be positive\\n        require(value <= uint256(type(int256).max), \\\"SafeCast: value doesn't fit in an int256\\\");\\n        return int256(value);\\n    }\\n}\\n\",\"keccak256\":\"0x08d867b4c0bb782b9135691fa732b6846e0f133006489c3aa505abd1f6de56cb\",\"license\":\"MIT\"},\"@openzeppelin/contracts/utils/math/SafeMath.sol\":{\"content\":\"// SPDX-License-Identifier: MIT\\n\\npragma solidity ^0.8.0;\\n\\n// CAUTION\\n// This version of SafeMath should only be used with Solidity 0.8 or later,\\n// because it relies on the compiler's built in overflow checks.\\n\\n/**\\n * @dev Wrappers over Solidity's arithmetic operations.\\n *\\n * NOTE: `SafeMath` is no longer needed starting with Solidity 0.8. The compiler\\n * now has built in overflow checking.\\n */\\nlibrary SafeMath {\\n    /**\\n     * @dev Returns the addition of two unsigned integers, with an overflow flag.\\n     *\\n     * _Available since v3.4._\\n     */\\n    function tryAdd(uint256 a, uint256 b) internal pure returns (bool, uint256) {\\n        unchecked {\\n            uint256 c = a + b;\\n            if (c < a) return (false, 0);\\n            return (true, c);\\n        }\\n    }\\n\\n    /**\\n     * @dev Returns the substraction of two unsigned integers, with an overflow flag.\\n     *\\n     * _Available since v3.4._\\n     */\\n    function trySub(uint256 a, uint256 b) internal pure returns (bool, uint256) {\\n        unchecked {\\n            if (b > a) return (false, 0);\\n            return (true, a - b);\\n        }\\n    }\\n\\n    /**\\n     * @dev Returns the multiplication of two unsigned integers, with an overflow flag.\\n     *\\n     * _Available since v3.4._\\n     */\\n    function tryMul(uint256 a, uint256 b) internal pure returns (bool, uint256) {\\n        unchecked {\\n            // Gas optimization: this is cheaper than requiring 'a' not being zero, but the\\n            // benefit is lost if 'b' is also tested.\\n            // See: https://github.com/OpenZeppelin/openzeppelin-contracts/pull/522\\n            if (a == 0) return (true, 0);\\n            uint256 c = a * b;\\n            if (c / a != b) return (false, 0);\\n            return (true, c);\\n        }\\n    }\\n\\n    /**\\n     * @dev Returns the division of two unsigned integers, with a division by zero flag.\\n     *\\n     * _Available since v3.4._\\n     */\\n    function tryDiv(uint256 a, uint256 b) internal pure returns (bool, uint256) {\\n        unchecked {\\n            if (b == 0) return (false, 0);\\n            return (true, a / b);\\n        }\\n    }\\n\\n    /**\\n     * @dev Returns the remainder of dividing two unsigned integers, with a division by zero flag.\\n     *\\n     * _Available since v3.4._\\n     */\\n    function tryMod(uint256 a, uint256 b) internal pure returns (bool, uint256) {\\n        unchecked {\\n            if (b == 0) return (false, 0);\\n            return (true, a % b);\\n        }\\n    }\\n\\n    /**\\n     * @dev Returns the addition of two unsigned integers, reverting on\\n     * overflow.\\n     *\\n     * Counterpart to Solidity's `+` operator.\\n     *\\n     * Requirements:\\n     *\\n     * - Addition cannot overflow.\\n     */\\n    function add(uint256 a, uint256 b) internal pure returns (uint256) {\\n        return a + b;\\n    }\\n\\n    /**\\n     * @dev Returns the subtraction of two unsigned integers, reverting on\\n     * overflow (when the result is negative).\\n     *\\n     * Counterpart to Solidity's `-` operator.\\n     *\\n     * Requirements:\\n     *\\n     * - Subtraction cannot overflow.\\n     */\\n    function sub(uint256 a, uint256 b) internal pure returns (uint256) {\\n        return a - b;\\n    }\\n\\n    /**\\n     * @dev Returns the multiplication of two unsigned integers, reverting on\\n     * overflow.\\n     *\\n     * Counterpart to Solidity's `*` operator.\\n     *\\n     * Requirements:\\n     *\\n     * - Multiplication cannot overflow.\\n     */\\n    function mul(uint256 a, uint256 b) internal pure returns (uint256) {\\n        return a * b;\\n    }\\n\\n    /**\\n     * @dev Returns the integer division of two unsigned integers, reverting on\\n     * division by zero. The result is rounded towards zero.\\n     *\\n     * Counterpart to Solidity's `/` operator.\\n     *\\n     * Requirements:\\n     *\\n     * - The divisor cannot be zero.\\n     */\\n    function div(uint256 a, uint256 b) internal pure returns (uint256) {\\n        return a / b;\\n    }\\n\\n    /**\\n     * @dev Returns the remainder of dividing two unsigned integers. (unsigned integer modulo),\\n     * reverting when dividing by zero.\\n     *\\n     * Counterpart to Solidity's `%` operator. This function uses a `revert`\\n     * opcode (which leaves remaining gas untouched) while Solidity uses an\\n     * invalid opcode to revert (consuming all remaining gas).\\n     *\\n     * Requirements:\\n     *\\n     * - The divisor cannot be zero.\\n     */\\n    function mod(uint256 a, uint256 b) internal pure returns (uint256) {\\n        return a % b;\\n    }\\n\\n    /**\\n     * @dev Returns the subtraction of two unsigned integers, reverting with custom message on\\n     * overflow (when the result is negative).\\n     *\\n     * CAUTION: This function is deprecated because it requires allocating memory for the error\\n     * message unnecessarily. For custom revert reasons use {trySub}.\\n     *\\n     * Counterpart to Solidity's `-` operator.\\n     *\\n     * Requirements:\\n     *\\n     * - Subtraction cannot overflow.\\n     */\\n    function sub(\\n        uint256 a,\\n        uint256 b,\\n        string memory errorMessage\\n    ) internal pure returns (uint256) {\\n        unchecked {\\n            require(b <= a, errorMessage);\\n            return a - b;\\n        }\\n    }\\n\\n    /**\\n     * @dev Returns the integer division of two unsigned integers, reverting with custom message on\\n     * division by zero. The result is rounded towards zero.\\n     *\\n     * Counterpart to Solidity's `/` operator. Note: this function uses a\\n     * `revert` opcode (which leaves remaining gas untouched) while Solidity\\n     * uses an invalid opcode to revert (consuming all remaining gas).\\n     *\\n     * Requirements:\\n     *\\n     * - The divisor cannot be zero.\\n     */\\n    function div(\\n        uint256 a,\\n        uint256 b,\\n        string memory errorMessage\\n    ) internal pure returns (uint256) {\\n        unchecked {\\n            require(b > 0, errorMessage);\\n            return a / b;\\n        }\\n    }\\n\\n    /**\\n     * @dev Returns the remainder of dividing two unsigned integers. (unsigned integer modulo),\\n     * reverting with custom message when dividing by zero.\\n     *\\n     * CAUTION: This function is deprecated because it requires allocating memory for the error\\n     * message unnecessarily. For custom revert reasons use {tryMod}.\\n     *\\n     * Counterpart to Solidity's `%` operator. This function uses a `revert`\\n     * opcode (which leaves remaining gas untouched) while Solidity uses an\\n     * invalid opcode to revert (consuming all remaining gas).\\n     *\\n     * Requirements:\\n     *\\n     * - The divisor cannot be zero.\\n     */\\n    function mod(\\n        uint256 a,\\n        uint256 b,\\n        string memory errorMessage\\n    ) internal pure returns (uint256) {\\n        unchecked {\\n            require(b > 0, errorMessage);\\n            return a % b;\\n        }\\n    }\\n}\\n\",\"keccak256\":\"0x8666f020bd8fc9dc14f07e2ebc52b5f236ab4cdde7c77679b08cb2f94730043b\",\"license\":\"MIT\"},\"@openzeppelin/contracts/utils/structs/EnumerableSet.sol\":{\"content\":\"// SPDX-License-Identifier: MIT\\n\\npragma solidity ^0.8.0;\\n\\n/**\\n * @dev Library for managing\\n * https://en.wikipedia.org/wiki/Set_(abstract_data_type)[sets] of primitive\\n * types.\\n *\\n * Sets have the following properties:\\n *\\n * - Elements are added, removed, and checked for existence in constant time\\n * (O(1)).\\n * - Elements are enumerated in O(n). No guarantees are made on the ordering.\\n *\\n * ```\\n * contract Example {\\n *     // Add the library methods\\n *     using EnumerableSet for EnumerableSet.AddressSet;\\n *\\n *     // Declare a set state variable\\n *     EnumerableSet.AddressSet private mySet;\\n * }\\n * ```\\n *\\n * As of v3.3.0, sets of type `bytes32` (`Bytes32Set`), `address` (`AddressSet`)\\n * and `uint256` (`UintSet`) are supported.\\n */\\nlibrary EnumerableSet {\\n    // To implement this library for multiple types with as little code\\n    // repetition as possible, we write it in terms of a generic Set type with\\n    // bytes32 values.\\n    // The Set implementation uses private functions, and user-facing\\n    // implementations (such as AddressSet) are just wrappers around the\\n    // underlying Set.\\n    // This means that we can only create new EnumerableSets for types that fit\\n    // in bytes32.\\n\\n    struct Set {\\n        // Storage of set values\\n        bytes32[] _values;\\n        // Position of the value in the `values` array, plus 1 because index 0\\n        // means a value is not in the set.\\n        mapping(bytes32 => uint256) _indexes;\\n    }\\n\\n    /**\\n     * @dev Add a value to a set. O(1).\\n     *\\n     * Returns true if the value was added to the set, that is if it was not\\n     * already present.\\n     */\\n    function _add(Set storage set, bytes32 value) private returns (bool) {\\n        if (!_contains(set, value)) {\\n            set._values.push(value);\\n            // The value is stored at length-1, but we add 1 to all indexes\\n            // and use 0 as a sentinel value\\n            set._indexes[value] = set._values.length;\\n            return true;\\n        } else {\\n            return false;\\n        }\\n    }\\n\\n    /**\\n     * @dev Removes a value from a set. O(1).\\n     *\\n     * Returns true if the value was removed from the set, that is if it was\\n     * present.\\n     */\\n    function _remove(Set storage set, bytes32 value) private returns (bool) {\\n        // We read and store the value's index to prevent multiple reads from the same storage slot\\n        uint256 valueIndex = set._indexes[value];\\n\\n        if (valueIndex != 0) {\\n            // Equivalent to contains(set, value)\\n            // To delete an element from the _values array in O(1), we swap the element to delete with the last one in\\n            // the array, and then remove the last element (sometimes called as 'swap and pop').\\n            // This modifies the order of the array, as noted in {at}.\\n\\n            uint256 toDeleteIndex = valueIndex - 1;\\n            uint256 lastIndex = set._values.length - 1;\\n\\n            if (lastIndex != toDeleteIndex) {\\n                bytes32 lastvalue = set._values[lastIndex];\\n\\n                // Move the last value to the index where the value to delete is\\n                set._values[toDeleteIndex] = lastvalue;\\n                // Update the index for the moved value\\n                set._indexes[lastvalue] = valueIndex; // Replace lastvalue's index to valueIndex\\n            }\\n\\n            // Delete the slot where the moved value was stored\\n            set._values.pop();\\n\\n            // Delete the index for the deleted slot\\n            delete set._indexes[value];\\n\\n            return true;\\n        } else {\\n            return false;\\n        }\\n    }\\n\\n    /**\\n     * @dev Returns true if the value is in the set. O(1).\\n     */\\n    function _contains(Set storage set, bytes32 value) private view returns (bool) {\\n        return set._indexes[value] != 0;\\n    }\\n\\n    /**\\n     * @dev Returns the number of values on the set. O(1).\\n     */\\n    function _length(Set storage set) private view returns (uint256) {\\n        return set._values.length;\\n    }\\n\\n    /**\\n     * @dev Returns the value stored at position `index` in the set. O(1).\\n     *\\n     * Note that there are no guarantees on the ordering of values inside the\\n     * array, and it may change when more values are added or removed.\\n     *\\n     * Requirements:\\n     *\\n     * - `index` must be strictly less than {length}.\\n     */\\n    function _at(Set storage set, uint256 index) private view returns (bytes32) {\\n        return set._values[index];\\n    }\\n\\n    /**\\n     * @dev Return the entire set in an array\\n     *\\n     * WARNING: This operation will copy the entire storage to memory, which can be quite expensive. This is designed\\n     * to mostly be used by view accessors that are queried without any gas fees. Developers should keep in mind that\\n     * this function has an unbounded cost, and using it as part of a state-changing function may render the function\\n     * uncallable if the set grows to a point where copying to memory consumes too much gas to fit in a block.\\n     */\\n    function _values(Set storage set) private view returns (bytes32[] memory) {\\n        return set._values;\\n    }\\n\\n    // Bytes32Set\\n\\n    struct Bytes32Set {\\n        Set _inner;\\n    }\\n\\n    /**\\n     * @dev Add a value to a set. O(1).\\n     *\\n     * Returns true if the value was added to the set, that is if it was not\\n     * already present.\\n     */\\n    function add(Bytes32Set storage set, bytes32 value) internal returns (bool) {\\n        return _add(set._inner, value);\\n    }\\n\\n    /**\\n     * @dev Removes a value from a set. O(1).\\n     *\\n     * Returns true if the value was removed from the set, that is if it was\\n     * present.\\n     */\\n    function remove(Bytes32Set storage set, bytes32 value) internal returns (bool) {\\n        return _remove(set._inner, value);\\n    }\\n\\n    /**\\n     * @dev Returns true if the value is in the set. O(1).\\n     */\\n    function contains(Bytes32Set storage set, bytes32 value) internal view returns (bool) {\\n        return _contains(set._inner, value);\\n    }\\n\\n    /**\\n     * @dev Returns the number of values in the set. O(1).\\n     */\\n    function length(Bytes32Set storage set) internal view returns (uint256) {\\n        return _length(set._inner);\\n    }\\n\\n    /**\\n     * @dev Returns the value stored at position `index` in the set. O(1).\\n     *\\n     * Note that there are no guarantees on the ordering of values inside the\\n     * array, and it may change when more values are added or removed.\\n     *\\n     * Requirements:\\n     *\\n     * - `index` must be strictly less than {length}.\\n     */\\n    function at(Bytes32Set storage set, uint256 index) internal view returns (bytes32) {\\n        return _at(set._inner, index);\\n    }\\n\\n    /**\\n     * @dev Return the entire set in an array\\n     *\\n     * WARNING: This operation will copy the entire storage to memory, which can be quite expensive. This is designed\\n     * to mostly be used by view accessors that are queried without any gas fees. Developers should keep in mind that\\n     * this function has an unbounded cost, and using it as part of a state-changing function may render the function\\n     * uncallable if the set grows to a point where copying to memory consumes too much gas to fit in a block.\\n     */\\n    function values(Bytes32Set storage set) internal view returns (bytes32[] memory) {\\n        return _values(set._inner);\\n    }\\n\\n    // AddressSet\\n\\n    struct AddressSet {\\n        Set _inner;\\n    }\\n\\n    /**\\n     * @dev Add a value to a set. O(1).\\n     *\\n     * Returns true if the value was added to the set, that is if it was not\\n     * already present.\\n     */\\n    function add(AddressSet storage set, address value) internal returns (bool) {\\n        return _add(set._inner, bytes32(uint256(uint160(value))));\\n    }\\n\\n    /**\\n     * @dev Removes a value from a set. O(1).\\n     *\\n     * Returns true if the value was removed from the set, that is if it was\\n     * present.\\n     */\\n    function remove(AddressSet storage set, address value) internal returns (bool) {\\n        return _remove(set._inner, bytes32(uint256(uint160(value))));\\n    }\\n\\n    /**\\n     * @dev Returns true if the value is in the set. O(1).\\n     */\\n    function contains(AddressSet storage set, address value) internal view returns (bool) {\\n        return _contains(set._inner, bytes32(uint256(uint160(value))));\\n    }\\n\\n    /**\\n     * @dev Returns the number of values in the set. O(1).\\n     */\\n    function length(AddressSet storage set) internal view returns (uint256) {\\n        return _length(set._inner);\\n    }\\n\\n    /**\\n     * @dev Returns the value stored at position `index` in the set. O(1).\\n     *\\n     * Note that there are no guarantees on the ordering of values inside the\\n     * array, and it may change when more values are added or removed.\\n     *\\n     * Requirements:\\n     *\\n     * - `index` must be strictly less than {length}.\\n     */\\n    function at(AddressSet storage set, uint256 index) internal view returns (address) {\\n        return address(uint160(uint256(_at(set._inner, index))));\\n    }\\n\\n    /**\\n     * @dev Return the entire set in an array\\n     *\\n     * WARNING: This operation will copy the entire storage to memory, which can be quite expensive. This is designed\\n     * to mostly be used by view accessors that are queried without any gas fees. Developers should keep in mind that\\n     * this function has an unbounded cost, and using it as part of a state-changing function may render the function\\n     * uncallable if the set grows to a point where copying to memory consumes too much gas to fit in a block.\\n     */\\n    function values(AddressSet storage set) internal view returns (address[] memory) {\\n        bytes32[] memory store = _values(set._inner);\\n        address[] memory result;\\n\\n        assembly {\\n            result := store\\n        }\\n\\n        return result;\\n    }\\n\\n    // UintSet\\n\\n    struct UintSet {\\n        Set _inner;\\n    }\\n\\n    /**\\n     * @dev Add a value to a set. O(1).\\n     *\\n     * Returns true if the value was added to the set, that is if it was not\\n     * already present.\\n     */\\n    function add(UintSet storage set, uint256 value) internal returns (bool) {\\n        return _add(set._inner, bytes32(value));\\n    }\\n\\n    /**\\n     * @dev Removes a value from a set. O(1).\\n     *\\n     * Returns true if the value was removed from the set, that is if it was\\n     * present.\\n     */\\n    function remove(UintSet storage set, uint256 value) internal returns (bool) {\\n        return _remove(set._inner, bytes32(value));\\n    }\\n\\n    /**\\n     * @dev Returns true if the value is in the set. O(1).\\n     */\\n    function contains(UintSet storage set, uint256 value) internal view returns (bool) {\\n        return _contains(set._inner, bytes32(value));\\n    }\\n\\n    /**\\n     * @dev Returns the number of values on the set. O(1).\\n     */\\n    function length(UintSet storage set) internal view returns (uint256) {\\n        return _length(set._inner);\\n    }\\n\\n    /**\\n     * @dev Returns the value stored at position `index` in the set. O(1).\\n     *\\n     * Note that there are no guarantees on the ordering of values inside the\\n     * array, and it may change when more values are added or removed.\\n     *\\n     * Requirements:\\n     *\\n     * - `index` must be strictly less than {length}.\\n     */\\n    function at(UintSet storage set, uint256 index) internal view returns (uint256) {\\n        return uint256(_at(set._inner, index));\\n    }\\n\\n    /**\\n     * @dev Return the entire set in an array\\n     *\\n     * WARNING: This operation will copy the entire storage to memory, which can be quite expensive. This is designed\\n     * to mostly be used by view accessors that are queried without any gas fees. Developers should keep in mind that\\n     * this function has an unbounded cost, and using it as part of a state-changing function may render the function\\n     * uncallable if the set grows to a point where copying to memory consumes too much gas to fit in a block.\\n     */\\n    function values(UintSet storage set) internal view returns (uint256[] memory) {\\n        bytes32[] memory store = _values(set._inner);\\n        uint256[] memory result;\\n\\n        assembly {\\n            result := store\\n        }\\n\\n        return result;\\n    }\\n}\\n\",\"keccak256\":\"0x3778dc944f4a696335878bad8beca60f38b7c79b7a0bd8ddbeb618bd502a95ae\",\"license\":\"MIT\"},\"contracts/contexts2/access-control/reentry/ReentryMods.sol\":{\"content\":\"// SPDX-License-Identifier: MIT\\npragma solidity ^0.8.0;\\n\\nimport { AccessControlStorageLib, AccessControlStorage } from \\\"../storage.sol\\\";\\n\\nabstract contract ReentryMods {\\n    modifier nonReentry(bytes32 id) {\\n        AccessControlStorage storage s = AccessControlStorageLib.store();\\n        require(!s.entered[id], \\\"AccessControl: reentered\\\");\\n        s.entered[id] = true;\\n        _;\\n        s.entered[id] = false;\\n    }\\n}\\n\",\"keccak256\":\"0x033c1164af25ef7d35a38a60973bf379b1cc603596914ffd85dcbcf0acdb6970\",\"license\":\"MIT\"},\"contracts/contexts2/access-control/roles/RolesFacet.sol\":{\"content\":\"// SPDX-License-Identifier: MIT\\npragma solidity ^0.8.0;\\n\\nimport { RolesMods } from \\\"./RolesMods.sol\\\";\\nimport { RolesLib } from \\\"./RolesLib.sol\\\";\\nimport { ADMIN } from \\\"../../../shared/roles.sol\\\";\\n\\ncontract RolesFacet is RolesMods {\\n    /**\\n     * @notice Checks if an account has a specific role.\\n     * @param role Encoding of the role to check.\\n     * @param account Address to check the {role} for.\\n     */\\n    function hasRole(bytes32 role, address account)\\n        external\\n        view\\n        returns (bool)\\n    {\\n        return RolesLib.hasRole(role, account);\\n    }\\n\\n    /**\\n     * @notice Grants an account a new role.\\n     * @param role Encoding of the role to give.\\n     * @param account Address to give the {role} to.\\n     *\\n     * Requirements:\\n     *  - Sender must be role admin.\\n     */\\n    function grantRole(bytes32 role, address account)\\n        external\\n        authorized(ADMIN, msg.sender)\\n    {\\n        RolesLib.grantRole(role, account);\\n    }\\n\\n    /**\\n     * @notice Removes a role from an account.\\n     * @param role Encoding of the role to remove.\\n     * @param account Address to remove the {role} from.\\n     *\\n     * Requirements:\\n     *  - Sender must be role admin.\\n     */\\n    function revokeRole(bytes32 role, address account)\\n        external\\n        authorized(ADMIN, msg.sender)\\n    {\\n        RolesLib.revokeRole(role, account);\\n    }\\n\\n    /**\\n     * @notice Removes a role from the sender.\\n     * @param role Encoding of the role to remove.\\n     */\\n    function renounceRole(bytes32 role) external {\\n        RolesLib.revokeRole(role, msg.sender);\\n    }\\n}\\n\",\"keccak256\":\"0x3d02fb1286754a6da3419c81632d23e9444b1fe8cd64283e15fcb07a9b201815\",\"license\":\"MIT\"},\"contracts/contexts2/access-control/roles/RolesLib.sol\":{\"content\":\"// SPDX-License-Identifier: MIT\\npragma solidity ^0.8.0;\\n\\nimport { AccessControlStorageLib, AccessControlStorage } from \\\"../storage.sol\\\";\\n\\nlibrary RolesLib {\\n    function s() private pure returns (AccessControlStorage storage) {\\n        return AccessControlStorageLib.store();\\n    }\\n\\n    /**\\n     * @dev Emitted when `account` is granted `role`.\\n     */\\n    event RoleGranted(\\n        bytes32 indexed role,\\n        address indexed account,\\n        address indexed sender\\n    );\\n\\n    /**\\n     * @dev Emitted when `account` is revoked `role`.\\n     */\\n    event RoleRevoked(\\n        bytes32 indexed role,\\n        address indexed account,\\n        address indexed sender\\n    );\\n\\n    /**\\n     * @notice Checks if an account has a specific role.\\n     */\\n    function hasRole(bytes32 role, address account)\\n        internal\\n        view\\n        returns (bool)\\n    {\\n        return s().roles[role][account];\\n    }\\n\\n    /**\\n     * @dev Gives an account a new role.\\n     * @dev Should only use when circumventing admin checking.\\n     * @dev If account already has the role, no event is emitted.\\n     * @param role Encoding of the role to give.\\n     * @param account Address to give the {role} to.\\n     */\\n    function grantRole(bytes32 role, address account) internal {\\n        if (hasRole(role, account)) return;\\n        s().roles[role][account] = true;\\n        emit RoleGranted(role, account, msg.sender);\\n    }\\n\\n    /**\\n     * @dev Removes a role from an account.\\n     * @dev Should only use when circumventing admin checking.\\n     * @dev If account does not already have the role, no event is emitted.\\n     * @param role Encoding of the role to remove.\\n     * @param account Address to remove the {role} from.\\n     */\\n    function revokeRole(bytes32 role, address account) internal {\\n        if (!hasRole(role, account)) return;\\n        s().roles[role][account] = false;\\n        emit RoleRevoked(role, account, msg.sender);\\n    }\\n}\\n\",\"keccak256\":\"0x36d0f5db441d2c3db7ee04d84c88ce9b14251cff4387702e96965c51acd1bc84\",\"license\":\"MIT\"},\"contracts/contexts2/access-control/roles/RolesMods.sol\":{\"content\":\"// SPDX-License-Identifier: MIT\\npragma solidity ^0.8.0;\\n\\nimport { RolesLib } from \\\"./RolesLib.sol\\\";\\n\\nabstract contract RolesMods {\\n    /**\\n     * @notice Requires that the {account} has {role}\\n     * @param role Encoding of the role to check.\\n     * @param account Address to check the {role} for.\\n     */\\n    modifier authorized(bytes32 role, address account) {\\n        require(\\n            RolesLib.hasRole(role, account),\\n            \\\"AccessControl: not authorized\\\"\\n        );\\n        _;\\n    }\\n}\\n\",\"keccak256\":\"0x25eeaba823d4fc9c52d82a77cfdb409550ad985fc49b30a5560c1f313c1ca905\",\"license\":\"MIT\"},\"contracts/contexts2/access-control/storage.sol\":{\"content\":\"// SPDX-License-Identifier: MIT\\npragma solidity ^0.8.0;\\n\\nstruct AccessControlStorage {\\n    mapping(bytes32 => mapping(address => bool)) roles;\\n    mapping(address => address) owners;\\n    mapping(bytes32 => bool) entered;\\n}\\n\\nbytes32 constant ACCESS_CONTROL_POS = keccak256(\\n    \\\"teller.access_control.storage\\\"\\n);\\n\\nlibrary AccessControlStorageLib {\\n    function store() internal pure returns (AccessControlStorage storage s) {\\n        bytes32 pos = ACCESS_CONTROL_POS;\\n        assembly {\\n            s.slot := pos\\n        }\\n    }\\n}\\n\",\"keccak256\":\"0xf667fb8d6beb59fc6f37d60ada6b811b5861512fedc661c483b9eca042e96112\",\"license\":\"MIT\"},\"contracts/escrow/dapps/libraries/LibDapps.sol\":{\"content\":\"// SPDX-License-Identifier: MIT\\npragma solidity ^0.8.0;\\n\\n// Interfaces\\nimport { IERC20 } from \\\"@openzeppelin/contracts/token/ERC20/IERC20.sol\\\";\\nimport { IAToken } from \\\"../../../shared/interfaces/IAToken.sol\\\";\\nimport {\\n    IAaveLendingPool\\n} from \\\"../../../shared/interfaces/IAaveLendingPool.sol\\\";\\nimport {\\n    IAaveLendingPoolAddressesProvider\\n} from \\\"../../../shared/interfaces/IAaveLendingPoolAddressesProvider.sol\\\";\\n\\n// Libraries\\nimport {\\n    EnumerableSet\\n} from \\\"@openzeppelin/contracts/utils/structs/EnumerableSet.sol\\\";\\n\\n// Storage\\nimport { MarketStorageLib, MarketStorage } from \\\"../../../storage/market.sol\\\";\\nimport { AppStorageLib } from \\\"../../../storage/app.sol\\\";\\n\\nlibrary LibDapps {\\n    function s() internal pure returns (MarketStorage storage) {\\n        return MarketStorageLib.store();\\n    }\\n\\n    /**\\n        @notice Grabs the Aave lending pool instance from the Aave lending pool address provider.\\n        @param aaveLPAddressProvider The immutable address of Aave's Lending Pool Address Provider on the deployed network.\\n        @return IAaveLendingPool instance address.\\n     */\\n    function getAaveLendingPool(address aaveLPAddressProvider)\\n        internal\\n        view\\n        returns (IAaveLendingPool)\\n    {\\n        return\\n            IAaveLendingPool(\\n                IAaveLendingPoolAddressesProvider(aaveLPAddressProvider)\\n                    .getLendingPool()\\n            ); // LP address provider contract is immutable on each deployed network and the address will never change\\n    }\\n\\n    /**\\n        @notice Grabs the aToken instance from the lending pool.\\n        @param aaveLPAddressProvider The immutable address of Aave's Lending Pool Address Provider on the deployed network.\\n        @param tokenAddress The underlying asset address to get the aToken for.\\n        @return IAToken instance.\\n     */\\n    function getAToken(address aaveLPAddressProvider, address tokenAddress)\\n        internal\\n        view\\n        returns (IAToken)\\n    {\\n        return\\n            IAToken(\\n                getAaveLendingPool(aaveLPAddressProvider).getReserveData(\\n                    tokenAddress\\n                ).aTokenAddress\\n            );\\n    }\\n}\\n\",\"keccak256\":\"0xe472bcb7bd9f87aba8b2ae2f855b2539c885827cebe52bc308e850e6f9274ce4\",\"license\":\"MIT\"},\"contracts/escrow/escrow/ILoansEscrow.sol\":{\"content\":\"// SPDX-License-Identifier: MIT\\npragma solidity ^0.8.0;\\n\\ninterface ILoansEscrow {\\n    function init() external;\\n\\n    /**\\n     * @notice it calls a dapp like YearnFinance at a target contract address with specified calldata\\n     * @param dappAddress address of the target contract address\\n     * @param dappData encoded abi of the function in our contract we want to call\\n     * @return the called data in bytes\\n     */\\n    function callDapp(address dappAddress, bytes calldata dappData)\\n        external\\n        returns (bytes memory);\\n\\n    /**\\n     * @notice it approves the spender to spend a maximum amount of a respective token from a token address\\n     * @param token address of the respective ERC20 token to approve for the spender\\n     * @param spender address of the respective spender who is approved by the token contract\\n     */\\n    function setTokenAllowance(address token, address spender) external;\\n\\n    /**\\n     * @notice it allows user to claim their escrow tokens\\n     * @dev only the owner (TellerDiamond) can make this call on behalf of the users\\n     * @param token address of the respective token contract to claim tokens from\\n     * @param to address where the tokens should be transferred to\\n     * @param amount uint256 amount of tokens to be claimed\\n     */\\n    function claimToken(\\n        address token,\\n        address to,\\n        uint256 amount\\n    ) external;\\n}\\n\",\"keccak256\":\"0xaf67fc4454ffaa4d2f7e46fe7101876e8ebdb1a5426c30f87b8e18cc573ac019\",\"license\":\"MIT\"},\"contracts/escrow/libraries/LibEscrow.sol\":{\"content\":\"// SPDX-License-Identifier: MIT\\npragma solidity ^0.8.0;\\n\\n// Libraries\\nimport { LibDapps } from \\\"../dapps/libraries/LibDapps.sol\\\";\\nimport { LibLoans } from \\\"../../market/libraries/LibLoans.sol\\\";\\nimport {\\n    EnumerableSet\\n} from \\\"@openzeppelin/contracts/utils/structs/EnumerableSet.sol\\\";\\n\\n// Interfaces\\nimport { IERC20 } from \\\"@openzeppelin/contracts/token/ERC20/IERC20.sol\\\";\\nimport { ILoansEscrow } from \\\"../escrow/ILoansEscrow.sol\\\";\\n\\n// Storage\\nimport { AppStorageLib } from \\\"../../storage/app.sol\\\";\\nimport { MarketStorageLib, MarketStorage } from \\\"../../storage/market.sol\\\";\\n\\nlibrary LibEscrow {\\n    function s() internal pure returns (MarketStorage storage) {\\n        return MarketStorageLib.store();\\n    }\\n\\n    function e(uint256 loanID) internal view returns (ILoansEscrow e_) {\\n        e_ = s().loanEscrows[loanID];\\n    }\\n\\n    function exists(uint256 loanID) internal view returns (bool) {\\n        return address(e(loanID)) != address(0);\\n    }\\n\\n    /**\\n     * @notice It returns a list of tokens owned by a loan escrow\\n     * @param loanID uint256 index used to return our token list\\n     * @return t_ which is a list of tokens\\n     */\\n    function getEscrowTokens(uint256 loanID)\\n        internal\\n        view\\n        returns (EnumerableSet.AddressSet storage t_)\\n    {\\n        t_ = s().escrowTokens[loanID];\\n    }\\n\\n    /**\\n     * @notice It returns the balance of a respective token in a loan escrow\\n     * @param loanID uint256 index used to point to our loan escrow\\n     * @param token address of respective token to give us the balance of in our loan escrow\\n     * @return uint256 balance of respective token returned in an escrow loan\\n     */\\n    function balanceOf(uint256 loanID, address token)\\n        internal\\n        view\\n        returns (uint256)\\n    {\\n        return exists(loanID) ? IERC20(token).balanceOf(address(e(loanID))) : 0;\\n    }\\n\\n    /**\\n     * @notice Adds or removes tokens held by the Escrow contract\\n     * @param loanID The loan ID to update the token list for\\n     * @param tokenAddress The token address to be added or removed\\n     */\\n    function tokenUpdated(uint256 loanID, address tokenAddress) internal {\\n        // Skip if is lending token\\n        if (LibLoans.loan(loanID).lendingToken == tokenAddress) return;\\n\\n        EnumerableSet.AddressSet storage tokens = s().escrowTokens[loanID];\\n        bool contains = EnumerableSet.contains(tokens, tokenAddress);\\n        if (balanceOf(loanID, tokenAddress) > 0) {\\n            if (!contains) {\\n                EnumerableSet.add(tokens, tokenAddress);\\n            }\\n        } else if (contains) {\\n            EnumerableSet.remove(tokens, tokenAddress);\\n        }\\n    }\\n\\n    /**\\n     * @notice Calculate the value of the loan by getting the value of all tokens the Escrow owns.\\n     * @param loanID The loan ID to calculate value for\\n     * @return value_ Escrow total value denoted in the lending token.\\n     */\\n    function calculateTotalValue(uint256 loanID)\\n        internal\\n        returns (uint256 value_)\\n    {\\n        if (!exists(loanID)) {\\n            return 0;\\n        }\\n\\n        address lendingToken = LibLoans.loan(loanID).lendingToken;\\n        value_ += balanceOf(loanID, lendingToken);\\n\\n        EnumerableSet.AddressSet storage tokens = getEscrowTokens(loanID);\\n        if (EnumerableSet.length(tokens) > 0) {\\n            for (uint256 i = 0; i < EnumerableSet.length(tokens); i++) {\\n                value_ += AppStorageLib.store()\\n                    .priceAggregator\\n                    .getBalanceOfFor(\\n                        address(e(loanID)),\\n                        EnumerableSet.at(tokens, i),\\n                        lendingToken\\n                    );\\n            }\\n        }\\n    }\\n}\\n\",\"keccak256\":\"0x3bb2001c6b397d2b529ff7eef8c949d165a78cf79efd9da4e620a580ca30f585\",\"license\":\"MIT\"},\"contracts/lending/libraries/LendingLib.sol\":{\"content\":\"// SPDX-License-Identifier: MIT\\npragma solidity ^0.8.0;\\n\\n// Libraries\\nimport { NumbersLib } from \\\"../../shared/libraries/NumbersLib.sol\\\";\\n\\n// Interfaces\\nimport { ITToken } from \\\"../ttoken/ITToken.sol\\\";\\n\\n// Storage\\nimport { MarketStorageLib, MarketStorage } from \\\"../../storage/market.sol\\\";\\n\\nlibrary LendingLib {\\n    bytes32 internal constant ID = keccak256(\\\"LENDING\\\");\\n\\n    function s() internal pure returns (MarketStorage storage) {\\n        return MarketStorageLib.store();\\n    }\\n\\n    function tToken(address asset) internal view returns (ITToken tToken_) {\\n        tToken_ = s().tTokens[asset];\\n    }\\n}\\n\",\"keccak256\":\"0x4d0342163b61741c913e52d248a77d797047f1d1fc4249e3bf268c90ce7742fa\",\"license\":\"MIT\"},\"contracts/lending/ttoken/ITToken.sol\":{\"content\":\"// SPDX-License-Identifier: MIT\\npragma solidity ^0.8.0;\\n\\n// Contracts\\nimport {\\n    ERC20Upgradeable\\n} from \\\"@openzeppelin/contracts-upgradeable/token/ERC20/ERC20Upgradeable.sol\\\";\\nimport { ERC20 } from \\\"@openzeppelin/contracts/token/ERC20/ERC20.sol\\\";\\nimport {\\n    RolesFacet\\n} from \\\"../../contexts2/access-control/roles/RolesFacet.sol\\\";\\n\\n/**\\n * @notice This contract acts as an interface for the Teller token (TToken).\\n *\\n * @author develop@teller.finance\\n */\\nabstract contract ITToken is ERC20Upgradeable, RolesFacet {\\n    /**\\n     * @notice This event is emitted when a user deposits tokens into the pool.\\n     */\\n    event Mint(\\n        address indexed sender,\\n        uint256 tTokenAmount,\\n        uint256 underlyingAmount\\n    );\\n\\n    /**\\n     * @notice This event is emitted when a user withdraws tokens from the pool.\\n     */\\n    event Redeem(\\n        address indexed sender,\\n        uint256 tTokenAmount,\\n        uint256 underlyingAmount\\n    );\\n\\n    /**\\n     * @notice This event is emitted when a loan has been taken out through the Teller Diamond.\\n     * @param recipient The address receiving the borrowed funds.\\n     * @param totalBorrowed The total amount being loaned out by the tToken.\\n     */\\n    event LoanFunded(address indexed recipient, uint256 totalBorrowed);\\n\\n    /**\\n     * @notice This event is emitted when a loan has been repaid through the Teller Diamond.\\n     * @param sender The address making the payment to the tToken.\\n     * @param principlePayment The amount paid back towards the principle loaned out by the tToken.\\n     * @param interestPayment The amount paid back towards the interest owed to the tToken.\\n     */\\n    event LoanPaymentMade(\\n        address indexed sender,\\n        uint256 principlePayment,\\n        uint256 interestPayment\\n    );\\n\\n    /**\\n     * @notice This event is emitted when a new investment management strategy has been set for a Teller token.\\n     * @param strategyAddress The address of the new strategy set for managing the underlying assets held by the tToken.\\n     * @param sender The address of the sender setting the token strategy.\\n     */\\n    event StrategySet(address strategyAddress, address indexed sender);\\n\\n    /**\\n     * @notice This event is emitted when the platform restriction is switched\\n     * @param restriction Boolean representing the state of the restriction\\n     * @param investmentManager address of the investment manager flipping the switch\\n     */\\n    event PlatformRestricted(\\n        bool restriction,\\n        address indexed investmentManager\\n    );\\n\\n    /**\\n     * @notice The token that is the underlying asset for this Teller token.\\n     * @return ERC20 token\\n     */\\n    function underlying() external view virtual returns (ERC20);\\n\\n    /**\\n     * @notice The balance of an {account} denoted in underlying value.\\n     * @param account Address to calculate the underlying balance.\\n     * @return balance_ the balance of the account\\n     */\\n    function balanceOfUnderlying(address account)\\n        external\\n        virtual\\n        returns (uint256 balance_);\\n\\n    /**\\n     * @notice It calculates the current exchange rate for a whole Teller Token based off the underlying token balance.\\n     * @return rate_ The current exchange rate.\\n     */\\n    function exchangeRate() external virtual returns (uint256 rate_);\\n\\n    /**\\n     * @notice It calculates the total supply of the underlying asset.\\n     * @return totalSupply_ the total supply denoted in the underlying asset.\\n     */\\n    function totalUnderlyingSupply()\\n        external\\n        virtual\\n        returns (uint256 totalSupply_);\\n\\n    /**\\n     * @notice It calculates the market state values across a given market.\\n     * @notice Returns values that represent the global state across the market.\\n     * @return totalSupplied Total amount of the underlying asset supplied.\\n     * @return totalBorrowed Total amount borrowed through loans.\\n     * @return totalRepaid The total amount repaid till the current timestamp.\\n     * @return totalInterestRepaid The total amount interest repaid till the current timestamp.\\n     * @return totalOnLoan Total amount currently deployed in loans.\\n     */\\n    function getMarketState()\\n        external\\n        virtual\\n        returns (\\n            uint256 totalSupplied,\\n            uint256 totalBorrowed,\\n            uint256 totalRepaid,\\n            uint256 totalInterestRepaid,\\n            uint256 totalOnLoan\\n        );\\n\\n    /**\\n     * @notice Calculates the current Total Value Locked, denoted in the underlying asset, in the Teller Token pool.\\n     * @return tvl_ The value locked in the pool.\\n     *\\n     * Note: This value includes the amount that is on loan (including ones that were sent to EOAs).\\n     */\\n    function currentTVL() external virtual returns (uint256 tvl_);\\n\\n    /**\\n     * @notice It validates whether supply to debt (StD) ratio is valid including the loan amount.\\n     * @param newLoanAmount the new loan amount to consider the StD ratio.\\n     * @return ratio_ The debt ratio for lending pool.\\n     */\\n    function debtRatioFor(uint256 newLoanAmount)\\n        external\\n        virtual\\n        returns (uint16 ratio_);\\n\\n    /**\\n     * @notice Called by the Teller Diamond contract when a loan has been taken out and requires funds.\\n     * @param recipient The account to send the funds to.\\n     * @param amount Funds requested to fulfill the loan.\\n     */\\n    function fundLoan(address recipient, uint256 amount) external virtual;\\n\\n    /**\\n     * @notice Called by the Teller Diamond contract when a loan has been repaid.\\n     * @param amount Funds deposited back into the pool to repay the principal amount of a loan.\\n     * @param interestAmount Interest value paid into the pool from a loan.\\n     */\\n    function repayLoan(uint256 amount, uint256 interestAmount) external virtual;\\n\\n    /**\\n     * @notice Increase account supply of specified token amount.\\n     * @param amount The amount of underlying tokens to use to mint.\\n     * @return mintAmount_ the amount minted of the specified token\\n     */\\n    function mint(uint256 amount)\\n        external\\n        virtual\\n        returns (uint256 mintAmount_);\\n\\n    /**\\n     * @notice Redeem supplied Teller tokens for underlying value.\\n     * @param amount The amount of Teller tokens to redeem.\\n     */\\n    function redeem(uint256 amount) external virtual;\\n\\n    /**\\n     * @notice Redeem supplied underlying value.\\n     * @param amount The amount of underlying tokens to redeem.\\n     */\\n    function redeemUnderlying(uint256 amount) external virtual;\\n\\n    /**\\n     * @notice Rebalances the funds controlled by Teller Token according to the current strategy.\\n     *\\n     * See {TTokenStrategy}.\\n     */\\n    function rebalance() external virtual;\\n\\n    /**\\n     * @notice Sets a new strategy to use for balancing funds.\\n     * @param strategy Address to the new strategy contract. Must implement the {ITTokenStrategy} interface.\\n     * @param initData Optional data to initialize the strategy.\\n     *\\n     * Requirements:\\n     *  - Sender must have ADMIN role\\n     */\\n    function setStrategy(address strategy, bytes calldata initData)\\n        external\\n        virtual;\\n\\n    /**\\n     * @notice Gets the strategy used for balancing funds.\\n     * @return address of the strategy contract\\n     */\\n    function getStrategy() external view virtual returns (address);\\n\\n    /**\\n     * @notice Sets the restricted state of the platform.\\n     * @param state boolean value that resembles the platform's state\\n     */\\n    function restrict(bool state) external virtual;\\n\\n    /**\\n     * @notice it initializes the Teller Token\\n     * @param admin address of the admin to the respective Teller Token\\n     * @param underlying address of the ERC20 token\\n     */\\n    function initialize(address admin, address underlying) external virtual;\\n}\\n\",\"keccak256\":\"0xf69438c2d61508185e9dfa0d2adadc43d0f7a445b9211ee7ece0d18978c8b807\",\"license\":\"MIT\"},\"contracts/market/CreateLoanConsensusFacet.sol\":{\"content\":\"// SPDX-License-Identifier: MIT\\npragma solidity ^0.8.0;\\n\\n// Contracts\\nimport { PausableMods } from \\\"../settings/pausable/PausableMods.sol\\\";\\nimport {\\n    ReentryMods\\n} from \\\"../contexts2/access-control/reentry/ReentryMods.sol\\\";\\nimport { RolesMods } from \\\"../contexts2/access-control/roles/RolesMods.sol\\\";\\nimport { AUTHORIZED } from \\\"../shared/roles.sol\\\";\\nimport { ERC20 } from \\\"@openzeppelin/contracts/token/ERC20/ERC20.sol\\\";\\n\\n// Libraries\\nimport { LibCreateLoan } from \\\"./libraries/LibCreateLoan.sol\\\";\\nimport { LibLoans } from \\\"./libraries/LibLoans.sol\\\";\\nimport { LibCollateral } from \\\"./libraries/LibCollateral.sol\\\";\\nimport { LibConsensus } from \\\"./libraries/LibConsensus.sol\\\";\\nimport { LendingLib } from \\\"../lending/libraries/LendingLib.sol\\\";\\nimport {\\n    EnumerableSet\\n} from \\\"@openzeppelin/contracts/utils/structs/EnumerableSet.sol\\\";\\n\\n// Storage\\nimport {\\n    LoanRequest,\\n    LoanStatus,\\n    Loan,\\n    MarketStorageLib\\n} from \\\"../storage/market.sol\\\";\\n\\ncontract CreateLoanConsensusFacet is RolesMods, ReentryMods, PausableMods {\\n    /**\\n     * @notice Take out a loan\\n     *\\n     * @dev collateral ratio is a percentage of the loan amount that's required in collateral\\n     * @dev the percentage will be *(10**2). I.e. collateralRatio of 5244 means 52.44% collateral\\n     * @dev is required in the loan. Interest rate is also a percentage with 2 decimal points.\\n     *\\n     * @param request Struct of the protocol loan request\\n     * @param collateralToken Token address to use as collateral for the new loan\\n     * @param collateralAmount Amount of collateral required for the loan\\n     */\\n    function takeOutLoan(\\n        LoanRequest calldata request,\\n        address collateralToken,\\n        uint256 collateralAmount\\n    )\\n        external\\n        payable\\n        paused(LibLoans.ID, false)\\n        nonReentry(\\\"\\\")\\n        authorized(AUTHORIZED, msg.sender)\\n    {\\n        // Perform loan request checks\\n        require(\\n            msg.sender == request.request.borrower,\\n            \\\"Teller: not loan requester\\\"\\n        );\\n        require(\\n            collateralToken != address(0) &&\\n                EnumerableSet.contains(\\n                    MarketStorageLib.store().collateralTokens[\\n                        request.request.assetAddress\\n                    ],\\n                    collateralToken\\n                ),\\n            \\\"Teller: collateral token not allowed\\\"\\n        );\\n\\n        // Get consensus values from request\\n        (\\n            uint16 interestRate,\\n            uint16 collateralRatio,\\n            uint256 maxLoanAmount\\n        ) = LibConsensus.processLoanTerms(request);\\n        Loan storage loan = LibCreateLoan.initNewLoan(\\n            request.request.assetAddress,\\n            maxLoanAmount,\\n            request.request.duration,\\n            interestRate\\n        );\\n        // Save collateral token to loan\\n        loan.collateralToken = collateralToken;\\n        // Set the collateral ratio to loans\\n        loan.collateralRatio = collateralRatio;\\n\\n        // Pay in collateral\\n        if (collateralAmount > 0) {\\n            LibCollateral.deposit(loan.id, collateralToken, collateralAmount);\\n        }\\n\\n        // Check that enough collateral has been provided for this loan\\n        require(\\n            LibLoans.getCollateralNeeded(loan.id) <=\\n                LibCollateral.e(loan.id).loanSupply(loan.id),\\n            \\\"Teller: more collateral required\\\"\\n        );\\n\\n        address borrower = LibLoans.canGoToEOAWithCollateralRatio(\\n            loan.collateralRatio\\n        )\\n            ? loan.borrower\\n            : LibCreateLoan.createEscrow(loan.id);\\n        LibCreateLoan.fundLoan(\\n            loan.lendingToken,\\n            borrower,\\n            loan.borrowedAmount\\n        );\\n\\n        // Set the loan to active\\n        loan.status = LoanStatus.Active;\\n\\n        emit LibCreateLoan.LoanTakenOut(\\n            loan.id,\\n            msg.sender,\\n            loan.borrowedAmount,\\n            false\\n        );\\n    }\\n}\\n\",\"keccak256\":\"0x6226cc328107d03b931171c526e46156a645b6cebd1f7abdaf60eeed006543d2\",\"license\":\"MIT\"},\"contracts/market/collateral/ICollateralEscrow.sol\":{\"content\":\"// SPDX-License-Identifier: MIT\\npragma solidity ^0.8.0;\\n\\ninterface ICollateralEscrow {\\n    /**\\n     * @notice it initializes an escrow\\n     * @param tokenAddress the address of the collateral token to be stored\\n     * @param isWETH check if it's wrapped Ethereum\\n     */\\n    function init(address tokenAddress, bool isWETH) external;\\n\\n    /**\\n     * @notice it deposits an amount of the respective collateral token into the escrow\\n     * @param loanID the ID of the loan\\n     * @param amount the amount of collateral tokens to be deposited\\n     */\\n    function deposit(uint256 loanID, uint256 amount) external payable;\\n\\n    /**\\n     * @notice it withdraws an amount of tokens in a respective loanID on behalf of the borrower\\n     * @dev only the TellerDiamond can make this call on behalf of the borrower\\n     * @param loanID identifier of the loan\\n     * @param amount number of collateral tokens to send\\n     * @param receiver payable address to transfer money to\\n     */\\n    function withdraw(\\n        uint256 loanID,\\n        uint256 amount,\\n        address payable receiver\\n    ) external;\\n\\n    /**\\n     * @notice it returns the supply of the respective loan\\n     * @param loanID the respective loan ID\\n     * @return supply_ the amount in collateral of the respective loan\\n     */\\n    function loanSupply(uint256 loanID) external view returns (uint256 supply_);\\n\\n    /**\\n     * @notice it returns the total supply of the collateral token held by the contract\\n     * @return supply_ the total amount of collateral\\n     */\\n    function totalSupply() external view returns (uint256 supply_);\\n}\\n\",\"keccak256\":\"0x900fed2311f919ba1451a6583ddbf9f3bc8afa8f5189500fff51f0c049258ed3\",\"license\":\"MIT\"},\"contracts/market/libraries/LibCollateral.sol\":{\"content\":\"// SPDX-License-Identifier: MIT\\npragma solidity ^0.8.0;\\n\\n// Interfaces\\nimport { IERC20 } from \\\"@openzeppelin/contracts/token/ERC20/ERC20.sol\\\";\\nimport { ICollateralEscrow } from \\\"../collateral/ICollateralEscrow.sol\\\";\\n\\n// Storage\\nimport { AppStorageLib } from \\\"../../storage/app.sol\\\";\\nimport { MarketStorageLib } from \\\"../../storage/market.sol\\\";\\n\\nlibrary LibCollateral {\\n    /**\\n     * @notice This event is emitted when collateral has been deposited for the loan\\n     * @param loanID ID of the loan for which collateral was deposited\\n     * @param depositor Account that deposited funds\\n     * @param amount Amount of collateral deposited\\n     */\\n    event CollateralDeposited(\\n        uint256 indexed loanID,\\n        address indexed depositor,\\n        uint256 amount\\n    );\\n\\n    /**\\n     * @notice This event is emitted when collateral has been withdrawn\\n     * @param loanID ID of loan from which collateral was withdrawn\\n     * @param receiver Account that received funds\\n     * @param amount Value of collateral withdrawn\\n     */\\n    event CollateralWithdrawn(\\n        uint256 indexed loanID,\\n        address indexed receiver,\\n        uint256 amount\\n    );\\n\\n    /**\\n     * @notice it gets MarketStorage's collateral escrow using the loanID\\n     * @param loanID the loanID to be used\\n     * @return c_ which is the collateral escrow\\n     */\\n    function e(uint256 loanID) internal view returns (ICollateralEscrow c_) {\\n        c_ = MarketStorageLib.store().collateralEscrows[\\n            MarketStorageLib.store().loans[loanID].collateralToken\\n        ];\\n    }\\n\\n    function e(address token) internal view returns (ICollateralEscrow c_) {\\n        c_ = MarketStorageLib.store().collateralEscrows[token];\\n    }\\n\\n    /**\\n     * @notice it deposits an amount of collateral into a collateral escrow's address of a respective loan\\n     * @param loanID the respective loan ID\\n     * @param amount the amount of collateral to deposit\\n     */\\n    function deposit(\\n        uint256 loanID,\\n        address collateralToken,\\n        uint256 amount\\n    ) internal {\\n        if (msg.value == 0) {\\n            IERC20(collateralToken).transferFrom(\\n                msg.sender,\\n                address(this),\\n                amount\\n            );\\n            IERC20(collateralToken).approve(address(e(loanID)), amount);\\n        }\\n        e(loanID).deposit{ value: msg.value }(loanID, amount);\\n\\n        emit CollateralDeposited(loanID, msg.sender, amount);\\n    }\\n\\n    /**\\n     * @notice it withdraws an amount from the collateral escrow\\n     * @param loanID the respective loanID to withdraw from\\n     * @param amount the number of collateral tokens to withdraw\\n     * @param receiver the address who receives the withdrawal\\n     */\\n    function withdraw(\\n        uint256 loanID,\\n        uint256 amount,\\n        address payable receiver\\n    ) internal {\\n        if (amount == 0) return;\\n\\n        e(loanID).withdraw(loanID, amount, receiver);\\n\\n        emit CollateralWithdrawn(loanID, receiver, amount);\\n    }\\n\\n    /**\\n     * @notice it withdraws the entire supply in collateral of a respective loan to an address\\n     * @param loanID the respective loan's ID\\n     * @param receiver the address of the receiver to withdraw tokens from\\n     */\\n    function withdrawAll(uint256 loanID, address payable receiver) internal {\\n        withdraw(loanID, e(loanID).loanSupply(loanID), receiver);\\n    }\\n\\n    /**\\n     * @notice it initializes a new escrow collateral to hold collateral tokens\\n     * @param token address of the collateral token it holds\\n     */\\n    function createEscrow(address token) internal {\\n        // Check if collateral escrow exists\\n        if (address(e(token)) == address(0)) {\\n            // Create escrow\\n            address escrow = AppStorageLib.store()\\n                .collateralEscrowBeacon\\n                .cloneProxy(\\\"\\\");\\n            ICollateralEscrow(escrow).init(\\n                token,\\n                // Check if collateral token is the base network token\\n                token == AppStorageLib.store().wrappedNativeToken\\n            );\\n\\n            // Set max allowance\\n            IERC20(token).approve(escrow, type(uint256).max);\\n            // Save escrow address for loan\\n            MarketStorageLib.store().collateralEscrows[\\n                token\\n            ] = ICollateralEscrow(escrow);\\n        }\\n    }\\n}\\n\",\"keccak256\":\"0x1b2f914163eb31079546c90f6f8efe953b3163d6eb31d6533fea74a3493d425b\",\"license\":\"MIT\"},\"contracts/market/libraries/LibConsensus.sol\":{\"content\":\"// SPDX-License-Identifier: MIT\\npragma solidity ^0.8.0;\\n\\nimport { AppStorageLib } from \\\"../../storage/app.sol\\\";\\nimport {\\n    MarketStorageLib,\\n    MarketStorage,\\n    LoanRequest,\\n    LoanUserRequest,\\n    LoanConsensusResponse,\\n    Signature\\n} from \\\"../../storage/market.sol\\\";\\nimport { NumbersLib } from \\\"../../shared/libraries/NumbersLib.sol\\\";\\nimport { NumbersList } from \\\"../../shared/libraries/NumbersList.sol\\\";\\nimport {\\n    PlatformSettingsLib\\n} from \\\"../../settings/platform/libraries/PlatformSettingsLib.sol\\\";\\nimport { ECDSA } from \\\"@openzeppelin/contracts/utils/cryptography/ECDSA.sol\\\";\\nimport { RolesLib } from \\\"../../contexts2/access-control/roles/RolesLib.sol\\\";\\nimport {\\n    EnumerableSet\\n} from \\\"@openzeppelin/contracts/utils/structs/EnumerableSet.sol\\\";\\n\\nlibrary LibConsensus {\\n    using NumbersList for NumbersList.Values;\\n\\n    /**\\n     * @notice Represents loan terms based on consensus values\\n     * @param interestRate The consensus value for the interest rate based on all the loan responses from the signers\\n     * @param collateralRatio The consensus value for the ratio of collateral to loan amount required for the loan, based on all the loan responses from the signers\\n     * @param maxLoanAmount The consensus value for the largest amount of tokens that can be taken out in the loan, based on all the loan responses from the signers\\n     */\\n    struct AccruedLoanTerms {\\n        NumbersList.Values interestRate;\\n        NumbersList.Values collateralRatio;\\n        NumbersList.Values maxLoanAmount;\\n    }\\n\\n    function s() private pure returns (MarketStorage storage) {\\n        return MarketStorageLib.store();\\n    }\\n\\n    /**\\n     * @notice it processes a loan terms by doing multiple checks on the LoanRequest request and LoanResponse[] responses\\n     * @param request LoanRequest is the borrower request object to take out a loan\\n     * @return interestRate the borrower needs to pay back\\n     * @return collateralRatio the ratio of collateral the borrower needs to put up for the loan with an underlying asset\\n     * @return maxLoanAmount the borrower is entitled for\\n     */\\n    function processLoanTerms(LoanRequest calldata request)\\n        internal\\n        view\\n        returns (\\n            uint16 interestRate,\\n            uint16 collateralRatio,\\n            uint256 maxLoanAmount\\n        )\\n    {\\n        // get the signers from the asset address\\n        EnumerableSet.AddressSet storage signers = s().signers[\\n            request.request.assetAddress\\n        ];\\n\\n        require(\\n            uint256(\\n                NumbersLib.ratioOf(\\n                    request.responses.length,\\n                    EnumerableSet.length(signers)\\n                )\\n            ) >= PlatformSettingsLib.getRequiredSubmissionsPercentageValue(),\\n            \\\"Teller: insufficient signer responses\\\"\\n        );\\n\\n        _validateLoanRequest(\\n            request.request.borrower,\\n            request.request.requestNonce\\n        );\\n\\n        uint32 chainId = _getChainId();\\n        bytes32 requestHash = _hashRequest(request.request, chainId);\\n\\n        // create term submissions for every response ...\\n        AccruedLoanTerms memory termSubmissions;\\n\\n        for (uint256 i = 0; i < request.responses.length; i++) {\\n            LoanConsensusResponse memory response = request.responses[i];\\n\\n            // check if the signers contains the response's signer\\n            require(\\n                EnumerableSet.contains(signers, response.signer),\\n                \\\"Teller: invalid signer\\\"\\n            );\\n\\n            // check if the request's asset address equates to the response's asset address\\n            require(\\n                response.assetAddress == request.request.assetAddress,\\n                \\\"Teller: consensus address mismatch\\\"\\n            );\\n\\n            // check if consensus response has expired\\n            require(\\n                uint256(response.responseTime) >=\\n                    block.timestamp -\\n                        PlatformSettingsLib.getTermsExpiryTimeValue(),\\n                \\\"Teller: consensus response expired\\\"\\n            );\\n\\n            // check if the signature of hashed response data matches\\n            require(\\n                _signatureValid(\\n                    response.signature,\\n                    _hashResponse(requestHash, response, chainId),\\n                    response.signer\\n                ),\\n                \\\"Teller: response signature invalid\\\"\\n            );\\n\\n            // TODO: use a local AddressArrayLib instead to save gas\\n            for (uint8 j = 0; j < i; j++) {\\n                require(\\n                    response.signer != request.responses[j].signer,\\n                    \\\"Teller: dup signer response\\\"\\n                );\\n            }\\n\\n            termSubmissions.interestRate.addValue(response.interestRate);\\n            termSubmissions.collateralRatio.addValue(response.collateralRatio);\\n            termSubmissions.maxLoanAmount.addValue(response.maxLoanAmount);\\n        }\\n\\n        // get maximum tolerance value in order to receive the interestRate, collateralRatio and maxLoanAmount\\n        uint16 tolerance = uint16(\\n            PlatformSettingsLib.getMaximumToleranceValue()\\n        );\\n        interestRate = uint16(\\n            _getConsensus(termSubmissions.interestRate, tolerance)\\n        );\\n        collateralRatio = uint16(\\n            _getConsensus(termSubmissions.collateralRatio, tolerance)\\n        );\\n        maxLoanAmount = _getConsensus(termSubmissions.maxLoanAmount, tolerance);\\n    }\\n\\n    /**\\n     * @dev Checks if the nonce provided in the request is equal to the borrower's number of loans.\\n     * @dev Also verifies if the borrower has taken out a loan recently (rate limit).\\n     * @param borrower the borrower's address.\\n     * @param nonce the nonce included in the loan request.\\n     */\\n    function _validateLoanRequest(address borrower, uint256 nonce)\\n        private\\n        view\\n    {\\n        uint128[] storage borrowerLoans = s().borrowerLoans[borrower];\\n        uint256 numberOfLoans = borrowerLoans.length;\\n\\n        require(nonce == numberOfLoans, \\\"Teller: bad request nonce\\\");\\n\\n        // In case it is the first time that borrower requests loan terms, we don't\\n        // validate the rate limit.\\n        if (numberOfLoans == 0) {\\n            return;\\n        }\\n\\n        require(\\n            uint256(\\n                s()\\n                    .loans[uint256(borrowerLoans[numberOfLoans - 1])]\\n                    .loanStartTime\\n            ) +\\n                PlatformSettingsLib.getRequestLoanTermsRateLimitValue() <=\\n                block.timestamp,\\n            \\\"Teller: loan terms rate limit reached\\\"\\n        );\\n    }\\n\\n    /**\\n     * @notice Gets the current chain id using the opcode 'chainid()'.\\n     * @return id_ The current chain id.\\n     */\\n    function _getChainId() private view returns (uint32 id_) {\\n        // silence state mutability warning without generating bytecode.\\n        // see https://github.com/ethereum/solidity/issues/2691\\n        assembly {\\n            id_ := chainid()\\n        }\\n    }\\n\\n    /**\\n     * @notice Generates a hash for the loan request\\n     * @param request Struct of the protocol loan request\\n     * @return bytes32 Hash of the loan request\\n     */\\n    function _hashRequest(LoanUserRequest memory request, uint32 chainId)\\n        private\\n        pure\\n        returns (bytes32)\\n    {\\n        return\\n            keccak256(\\n                abi.encode(\\n                    request.borrower,\\n                    request.assetAddress,\\n                    request.amount,\\n                    request.requestNonce,\\n                    request.duration,\\n                    request.requestTime,\\n                    chainId\\n                )\\n            );\\n    }\\n\\n    /**\\n     * @notice Generates a hash for the loan response\\n     * @param requestHash Hash of the loan request\\n     * @param response Structs of the protocol loan responses\\n     * @return bytes32 Hash of the loan response\\n     */\\n    function _hashResponse(\\n        bytes32 requestHash,\\n        LoanConsensusResponse memory response,\\n        uint32 chainId\\n    ) internal pure returns (bytes32) {\\n        return\\n            keccak256(\\n                abi.encode(\\n                    response.assetAddress,\\n                    response.maxLoanAmount,\\n                    requestHash,\\n                    response.responseTime,\\n                    response.interestRate,\\n                    response.collateralRatio,\\n                    chainId\\n                )\\n            );\\n    }\\n\\n    /**\\n     * @notice It validates whether a signature is valid or not.\\n     * @param signature signature to validate.\\n     * @param dataHash used to recover the signer.\\n     * @param expectedSigner the expected signer address.\\n     * @return true if the expected signer is equal to the signer. Otherwise it returns false.\\n     */\\n    function _signatureValid(\\n        Signature memory signature,\\n        bytes32 dataHash,\\n        address expectedSigner\\n    ) internal pure returns (bool) {\\n        return\\n            expectedSigner ==\\n            ECDSA.recover(\\n                keccak256(\\n                    abi.encodePacked(\\n                        \\\"\\\\x19Ethereum Signed Message:\\\\n32\\\",\\n                        dataHash\\n                    )\\n                ),\\n                signature.v,\\n                signature.r,\\n                signature.s\\n            );\\n    }\\n\\n    /**\\n     * @notice Gets the consensus value for a list of values (uint values).\\n     * @notice The values must be in a maximum tolerance range.\\n     * @return the consensus value.\\n     */\\n    function _getConsensus(NumbersList.Values memory values, uint16 tolerance)\\n        internal\\n        pure\\n        returns (uint256)\\n    {\\n        require(\\n            values.isWithinTolerance(tolerance),\\n            \\\"Teller: consensus response values too varied\\\"\\n        );\\n\\n        return values.getAverage();\\n    }\\n}\\n\",\"keccak256\":\"0x21f0b4129a7fc8b1591e15976b75f2ffa4edd9628c6d6550f8f31346c965db5e\",\"license\":\"MIT\"},\"contracts/market/libraries/LibCreateLoan.sol\":{\"content\":\"// SPDX-License-Identifier: MIT\\npragma solidity ^0.8.0;\\n\\n// Libraries\\nimport { LibLoans } from \\\"../libraries/LibLoans.sol\\\";\\nimport { LendingLib } from \\\"../../lending/libraries/LendingLib.sol\\\";\\nimport { Counters } from \\\"@openzeppelin/contracts/utils/Counters.sol\\\";\\nimport {\\n    PlatformSettingsLib\\n} from \\\"../../settings/platform/libraries/PlatformSettingsLib.sol\\\";\\nimport {\\n    MaxDebtRatioLib\\n} from \\\"../../settings/asset/libraries/MaxDebtRatioLib.sol\\\";\\nimport {\\n    MaxLoanAmountLib\\n} from \\\"../../settings/asset/libraries/MaxLoanAmountLib.sol\\\";\\nimport { ILoansEscrow } from \\\"../../escrow/escrow/ILoansEscrow.sol\\\";\\n\\n// Storage\\nimport {\\n    LoanUserRequest,\\n    LoanStatus,\\n    Loan,\\n    MarketStorageLib\\n} from \\\"../../storage/market.sol\\\";\\nimport { AppStorageLib } from \\\"../../storage/app.sol\\\";\\n\\nlibrary LibCreateLoan {\\n    /**\\n     * @notice This event is emitted when a loan has been successfully taken out\\n     * @param loanID ID of loan from which collateral was withdrawn\\n     * @param borrower Account address of the borrower\\n     * @param amountBorrowed Total amount taken out in the loan\\n     * @param withNFT Boolean indicating if the loan was taken out using NFTs\\n     */\\n    event LoanTakenOut(\\n        uint256 indexed loanID,\\n        address indexed borrower,\\n        uint256 amountBorrowed,\\n        bool withNFT\\n    );\\n\\n    function initNewLoan(\\n        address assetAddress,\\n        uint256 amount,\\n        uint32 duration,\\n        uint16 interestRate\\n    ) internal returns (Loan storage loan_) {\\n        // Perform loan request checks\\n        require(\\n            PlatformSettingsLib.getMaximumLoanDurationValue() >= duration,\\n            \\\"Teller: max loan duration exceeded\\\"\\n        );\\n        require(\\n            MaxLoanAmountLib.get(assetAddress) > amount,\\n            \\\"Teller: asset max loan amount exceeded\\\"\\n        );\\n        require(\\n            LendingLib.tToken(assetAddress).debtRatioFor(amount) <=\\n                MaxDebtRatioLib.get(assetAddress),\\n            \\\"Teller: max supply-to-debt ratio exceeded\\\"\\n        );\\n\\n        // Get and increment new loan ID\\n        uint256 loanID = newID();\\n        loan_ = LibLoans.loan(loanID);\\n\\n        // Set loan data based on terms\\n        loan_.id = uint128(loanID);\\n        loan_.borrower = payable(msg.sender);\\n        loan_.lendingToken = assetAddress;\\n        loan_.borrowedAmount = amount;\\n        loan_.interestRate = interestRate;\\n        loan_.loanStartTime = uint32(block.timestamp);\\n        loan_.duration = duration;\\n\\n        // Set loan debt\\n        LibLoans.debt(loanID).principalOwed = loan_.borrowedAmount;\\n        LibLoans.debt(loanID).interestOwed = LibLoans.getInterestOwedFor(\\n            uint256(loanID),\\n            loan_.borrowedAmount\\n        );\\n\\n        // Add loanID to borrower list\\n        MarketStorageLib.store().borrowerLoans[loan_.borrower].push(\\n            uint128(loanID)\\n        );\\n    }\\n\\n    function fundLoan(\\n        address lendingToken,\\n        address destination,\\n        uint256 amount\\n    ) internal {\\n        // Pull funds from Teller Token LP and transfer to the new loan escrow\\n        LendingLib.tToken(lendingToken).fundLoan(destination, amount);\\n    }\\n\\n    /**\\n     * @notice increments the loanIDCounter\\n     * @return id_ the new ID requested, which stores it in the loan data\\n     */\\n    function newID() internal returns (uint256 id_) {\\n        Counters.Counter storage counter = MarketStorageLib.store()\\n            .loanIDCounter;\\n        id_ = Counters.current(counter);\\n        Counters.increment(counter);\\n    }\\n\\n    function currentID() internal view returns (uint256 id_) {\\n        Counters.Counter storage counter = MarketStorageLib.store()\\n            .loanIDCounter;\\n        id_ = Counters.current(counter);\\n    }\\n\\n    /**\\n     * @notice it creates a new loan escrow contract\\n     * @param loanID the ID that identifies the loan\\n     * @return escrow_ the loanEscrow that gets created\\n     */\\n    function createEscrow(uint256 loanID) internal returns (address escrow_) {\\n        // Create escrow\\n        escrow_ = AppStorageLib.store().loansEscrowBeacon.cloneProxy(\\\"\\\");\\n        ILoansEscrow(escrow_).init();\\n        // Save escrow address for loan\\n        MarketStorageLib.store().loanEscrows[loanID] = ILoansEscrow(escrow_);\\n    }\\n}\\n\",\"keccak256\":\"0xb073d62ac80dc05111a8b80bdde01ba79047356cbad57e2ff353333c51cb2cb2\",\"license\":\"MIT\"},\"contracts/market/libraries/LibLoans.sol\":{\"content\":\"// SPDX-License-Identifier: MIT\\npragma solidity ^0.8.0;\\n\\n// Libraries\\nimport { LibEscrow } from \\\"../../escrow/libraries/LibEscrow.sol\\\";\\nimport { NumbersLib } from \\\"../../shared/libraries/NumbersLib.sol\\\";\\nimport {\\n    PlatformSettingsLib\\n} from \\\"../../settings/platform/libraries/PlatformSettingsLib.sol\\\";\\n\\n// Storage\\nimport { AppStorageLib } from \\\"../../storage/app.sol\\\";\\nimport {\\n    MarketStorageLib,\\n    MarketStorage,\\n    Loan,\\n    LoanStatus,\\n    LoanDebt,\\n    LoanTerms\\n} from \\\"../../storage/market.sol\\\";\\n\\nlibrary LibLoans {\\n    using NumbersLib for int256;\\n    using NumbersLib for uint256;\\n\\n    bytes32 internal constant ID = keccak256(\\\"LOANS\\\");\\n    uint32 internal constant SECONDS_PER_YEAR = 31536000;\\n\\n    function s() internal pure returns (MarketStorage storage) {\\n        return MarketStorageLib.store();\\n    }\\n\\n    /**\\n     * @notice it returns the loan\\n     * @param loanID the ID of the respective loan\\n     * @return l_ the loan\\n     */\\n    function loan(uint256 loanID) internal view returns (Loan storage l_) {\\n        l_ = s().loans[loanID];\\n    }\\n\\n    /**\\n     * @notice it returns the loan debt from a respective loan\\n     * @param loanID the ID of the respective loan\\n     * @return d_ the loan debt from a respective loan\\n     */\\n    function debt(uint256 loanID) internal view returns (LoanDebt storage d_) {\\n        d_ = s().loanDebt[loanID];\\n    }\\n\\n    // DEPRECATED\\n    function terms(uint256 loanID)\\n        internal\\n        view\\n        returns (LoanTerms storage t_)\\n    {\\n        t_ = s()._loanTerms[loanID];\\n    }\\n\\n    /**\\n     * @notice Returns the total amount owed for a specified loan.\\n     * @param loanID The loan ID to get the total amount owed.\\n     * @return owed_ uint256 The total owed amount.\\n     */\\n    function getTotalOwed(uint256 loanID)\\n        internal\\n        view\\n        returns (uint256 owed_)\\n    {\\n        if (loan(loanID).status == LoanStatus.Active) {\\n            owed_ = debt(loanID).principalOwed + (debt(loanID).interestOwed);\\n        }\\n    }\\n\\n    /**\\n     * @notice Returns the amount of interest owed for a given loan and loan amount.\\n     * @param loanID The loan ID to get the owed interest.\\n     * @param amountBorrow The principal of the loan to take out.\\n     * @return uint256 The interest owed.\\n     */\\n    function getInterestOwedFor(uint256 loanID, uint256 amountBorrow)\\n        internal\\n        view\\n        returns (uint256)\\n    {\\n        return amountBorrow.percent(uint16(getInterestRatio(loanID)));\\n    }\\n\\n    function getCollateralNeeded(uint256 loanID)\\n        internal\\n        returns (uint256 _needed)\\n    {\\n        (, _needed, ) = getCollateralNeededInfo(loanID);\\n    }\\n\\n    /**\\n     * @notice it returns the total collateral needed in lending tokens, in collateral tokens and in escrowed loan values\\n     * @param loanID the loanID to get the total collateral needed\\n     * @return neededInLendingTokens total collateral needed in lending tokens\\n     * @return neededInCollateralTokens total collateral needed in collateral tokens\\n     * @return escrowLoanValue total collateral needed in loan value\\n     */\\n    function getCollateralNeededInfo(uint256 loanID)\\n        internal\\n        returns (\\n            uint256 neededInLendingTokens,\\n            uint256 neededInCollateralTokens,\\n            uint256 escrowLoanValue\\n        )\\n    {\\n        (neededInLendingTokens, escrowLoanValue) = getCollateralNeededInTokens(\\n            loanID\\n        );\\n\\n        // check if needed lending tokens is zero. if true, then needed collateral tokens is zero. else,\\n        if (neededInLendingTokens == 0) {\\n            neededInCollateralTokens = 0;\\n        } else {\\n            neededInCollateralTokens = AppStorageLib.store()\\n                .priceAggregator\\n                .getValueFor(\\n                    loan(loanID).lendingToken,\\n                    loan(loanID).collateralToken,\\n                    neededInLendingTokens\\n                );\\n        }\\n    }\\n\\n    /**\\n     * @notice Returns the minimum collateral value threshold, in the lending token, needed to take out the loan or for it be liquidated.\\n     * @dev If the loan status is TermsSet, then the value is whats needed to take out the loan.\\n     * @dev If the loan status is Active, then the value is the threshold at which the loan can be liquidated at.\\n     * @param loanID The loan ID to get needed collateral info for.\\n     * @return neededInLendingTokens int256 The minimum collateral value threshold required.\\n     * @return escrowLoanValue uint256 The value of the loan held in the escrow contract.\\n     */\\n    function getCollateralNeededInTokens(uint256 loanID)\\n        internal\\n        returns (uint256 neededInLendingTokens, uint256 escrowLoanValue)\\n    {\\n        if (loan(loanID).collateralRatio == 0) {\\n            return (0, 0);\\n        }\\n\\n        /*\\n            The collateral to principal owed ratio is the sum of:\\n                * collateral buffer percent\\n                * loan interest rate\\n                * liquidation reward percent\\n                * X factor of additional collateral\\n        */\\n        // * To take out a loan (if status == TermsSet), the required collateral is (max loan amount * the collateral ratio).\\n        // * For the loan to not be liquidated (when status == Active), the minimum collateral is (principal owed * (X collateral factor + liquidation reward)).\\n        // * If the loan has an escrow account, the minimum collateral is ((principal owed - escrow value) * (X collateral factor + liquidation reward)).\\n        if (loan(loanID).status == LoanStatus.TermsSet) {\\n            neededInLendingTokens = loan(loanID).borrowedAmount.percent(\\n                loan(loanID).collateralRatio\\n            );\\n        } else if (loan(loanID).status == LoanStatus.Active) {\\n            uint16 requiredRatio = loan(loanID).collateralRatio -\\n                getInterestRatio(loanID) -\\n                uint16(PlatformSettingsLib.getCollateralBufferValue());\\n\\n            neededInLendingTokens =\\n                debt(loanID).principalOwed +\\n                debt(loanID).interestOwed;\\n            escrowLoanValue = LibEscrow.calculateTotalValue(loanID);\\n            if (\\n                escrowLoanValue > 0 && neededInLendingTokens > escrowLoanValue\\n            ) {\\n                neededInLendingTokens -= escrowLoanValue;\\n            }\\n            neededInLendingTokens = neededInLendingTokens.percent(\\n                requiredRatio\\n            );\\n        }\\n    }\\n\\n    /**\\n     * @notice check if a loan can go to end of auction with a collateral ratio\\n     * @return bool checking if collateralRatio is >= the over collateralized buffer value\\n     */\\n    function canGoToEOAWithCollateralRatio(uint256 collateralRatio)\\n        internal\\n        view\\n        returns (bool)\\n    {\\n        return\\n            collateralRatio >=\\n            PlatformSettingsLib.getOverCollateralizedBufferValue();\\n    }\\n\\n    /**\\n     * @notice Returns the interest ratio based on the loan interest rate for the loan duration.\\n     * @notice There is a minimum threshold of 1%.\\n     * @dev The interest rate is APY (annual percentage yield).\\n     * @param loanID The loan ID to get the interest rate for.\\n     */\\n    function getInterestRatio(uint256 loanID)\\n        internal\\n        view\\n        returns (uint16 ratio_)\\n    {\\n        if (loan(loanID).interestRate > 0) {\\n            ratio_ = uint16(\\n                (uint64(loan(loanID).duration) * loan(loanID).interestRate) /\\n                    SECONDS_PER_YEAR\\n            );\\n\\n            // If calculation for interest ratio chopped off decimals resulting in 0%, set minimum interest to 1%\\n            if (ratio_ == 0) {\\n                ratio_ = 1;\\n            }\\n        }\\n    }\\n}\\n\",\"keccak256\":\"0x1ef51978dc279befd7b3418003f37217a919183f0980c8f657033b7eed1f09d6\",\"license\":\"MIT\"},\"contracts/nft/ITellerNFT.sol\":{\"content\":\"// SPDX-License-Identifier: MIT\\npragma solidity ^0.8.0;\\npragma experimental ABIEncoderV2;\\n\\n// Interfaces\\nimport \\\"@openzeppelin/contracts/token/ERC721/extensions/IERC721Metadata.sol\\\";\\n\\ninterface ITellerNFT {\\n    struct Tier {\\n        uint256 baseLoanSize;\\n        string[] hashes;\\n        address contributionAsset;\\n        uint256 contributionSize;\\n        uint8 contributionMultiplier;\\n    }\\n\\n    /**\\n     * @notice The contract metadata URI.\\n     * @return the contractURI in string\\n     */\\n    function contractURI() external view returns (string memory);\\n\\n    /**\\n     * @notice It returns information about a Tier with from a tier index\\n     * @param index Tier index to get info.\\n     * @return tier_ the tier which belongs to the respective index\\n     */\\n    function getTier(uint256 index) external view returns (Tier memory tier_);\\n\\n    /**\\n     * @notice It returns information about a Tier for a token ID.\\n     * @param tokenId ID of the token to get Tier info.\\n     * @return index_ the index of the tier the tokenID belongs in\\n     * @return tier_ the tier where the tokenID belongs in\\n     */\\n    function getTokenTier(uint256 tokenId)\\n        external\\n        view\\n        returns (uint256 index_, Tier memory tier_);\\n\\n    /**\\n     * @notice It returns an array of hashes in a tier\\n     * @param tierIndex the tier index to get the tier hashes\\n     * @return hashes_ all the tokenID hashes\\n     */\\n    function getTierHashes(uint256 tierIndex)\\n        external\\n        view\\n        returns (string[] memory hashes_);\\n\\n    /**\\n     * @notice It returns an array of token IDs owned by an address.\\n     * @dev It uses a EnumerableSet to store values and loops over each element to add to the array.\\n     * @dev Can be costly if calling within a contract for address with many tokens.\\n     * @return owned the array of tokenIDs owned by the address\\n     */\\n    function getOwnedTokens(address owner)\\n        external\\n        view\\n        returns (uint256[] memory owned);\\n\\n    /**\\n     * @notice It mints a new token for a Tier index.\\n     * @param tierIndex the tier index to mint the token in\\n     * @param owner the owner of the new token\\n     * Requirements:\\n     *  - Caller must be an authorized minter\\n     */\\n    function mint(uint256 tierIndex, address owner) external;\\n\\n    /**\\n     * @notice Adds a new Tier to be minted with the given information.\\n     * @dev It auto increments the index of the next tier to add.\\n     * @param newTier Information about the new tier to add.\\n     *\\n     * Requirements:\\n     *  - Caller must have the {MINTER} role\\n     */\\n    function addTier(Tier memory newTier) external;\\n\\n    /**\\n     * @notice Sets the contract level metadata URI hash.\\n     * @param contractURIHash The hash to the initial contract level metadata.\\n     */\\n    function setContractURIHash(string memory contractURIHash) external;\\n\\n    /**\\n     * @notice Initializes the TellerNFT.\\n     * @param minters The addresses that should allowed to mint tokens.\\n     */\\n    function initialize(address[] calldata minters) external;\\n}\\n\",\"keccak256\":\"0x39eb585b176c0ed9b155976fb6396827902f68366c1a91d23548758058509288\",\"license\":\"MIT\"},\"contracts/nft/TellerNFT.sol\":{\"content\":\"// SPDX-License-Identifier: MIT\\npragma solidity ^0.8.0;\\npragma experimental ABIEncoderV2;\\n\\n// Contracts\\nimport \\\"@openzeppelin/contracts-upgradeable/token/ERC721/ERC721Upgradeable.sol\\\";\\nimport \\\"@openzeppelin/contracts-upgradeable/access/AccessControlUpgradeable.sol\\\";\\n\\n// Libraries\\nimport \\\"@openzeppelin/contracts/utils/Counters.sol\\\";\\nimport \\\"@openzeppelin/contracts/utils/structs/EnumerableSet.sol\\\";\\nimport \\\"@openzeppelin/contracts/utils/math/SafeMath.sol\\\";\\n\\n// Interfaces\\nimport \\\"./ITellerNFT.sol\\\";\\n\\n/*****************************************************************************************************/\\n/**                                             WARNING                                             **/\\n/**                                  THIS CONTRACT IS UPGRADEABLE!                                  **/\\n/**  ---------------------------------------------------------------------------------------------  **/\\n/**  Do NOT change the order of or PREPEND any storage variables to this or new versions of this    **/\\n/**  contract as this will cause the the storage slots to be overwritten on the proxy contract!!    **/\\n/**                                                                                                 **/\\n/**  Visit https://docs.openzeppelin.com/upgrades/2.6/proxies#upgrading-via-the-proxy-pattern for   **/\\n/**  more information.                                                                              **/\\n/*****************************************************************************************************/\\n/**\\n * @notice This contract is used by borrowers to call Dapp functions (using delegate calls).\\n * @notice This contract should only be constructed using it's upgradeable Proxy contract.\\n * @notice In order to call a Dapp function, the Dapp must be added in the DappRegistry instance.\\n *\\n * @author develop@teller.finance\\n */\\ncontract TellerNFT is ITellerNFT, ERC721Upgradeable, AccessControlUpgradeable {\\n    using Counters for Counters.Counter;\\n    using EnumerableSet for EnumerableSet.UintSet;\\n    using SafeMath for uint256;\\n\\n    /* Constants */\\n\\n    bytes32 public constant ADMIN = keccak256(\\\"ADMIN\\\");\\n    bytes32 public constant MINTER = keccak256(\\\"MINTER\\\");\\n\\n    /* State Variables */\\n\\n    // It holds the total number of tiers.\\n    Counters.Counter internal _tierCounter;\\n\\n    // It holds the total number of tokens minted.\\n    Counters.Counter internal _tokenCounter;\\n\\n    // It holds the information about a tier.\\n    mapping(uint256 => Tier) internal _tiers;\\n\\n    // It holds which tier a token ID is in.\\n    mapping(uint256 => uint256) internal _tokenTier;\\n\\n    // It holds a set of token IDs for an owner address.\\n    mapping(address => EnumerableSet.UintSet) internal _ownerTokenIDs;\\n\\n    // Link to the contract metadata\\n    string private _metadataBaseURI;\\n\\n    // Hash to the contract metadata located on the {_metadataBaseURI}\\n    string private _contractURIHash;\\n\\n    /* Modifiers */\\n\\n    modifier onlyAdmin() {\\n        require(hasRole(ADMIN, _msgSender()), \\\"TellerNFT: not admin\\\");\\n        _;\\n    }\\n\\n    modifier onlyMinter() {\\n        require(hasRole(MINTER, _msgSender()), \\\"TellerNFT: not minter\\\");\\n        _;\\n    }\\n\\n    /* External Functions */\\n\\n    /**\\n     * @notice It returns information about a Tier for a token ID.\\n     * @param index Tier index to get info.\\n     * @return tier_ the tier which belongs to the respective index\\n     */\\n    function getTier(uint256 index)\\n        external\\n        view\\n        override\\n        returns (Tier memory tier_)\\n    {\\n        tier_ = _tiers[index];\\n    }\\n\\n    /**\\n     * @notice It returns information about a Tier for a token ID.\\n     * @param tokenId ID of the token to get Tier info.\\n     * @return index_ the index of the tier the tokenID belongs in\\n     * @return tier_ the tier where the tokenID belongs in\\n     */\\n    function getTokenTier(uint256 tokenId)\\n        external\\n        view\\n        override\\n        returns (uint256 index_, Tier memory tier_)\\n    {\\n        index_ = _tokenTier[tokenId];\\n        tier_ = _tiers[index_];\\n    }\\n\\n    /**\\n     * @notice It returns an array of hashes in a tier\\n     * @param tierIndex the tier index to get the tier hashes\\n     * @return hashes_ all the tokenID hashes\\n     */\\n    function getTierHashes(uint256 tierIndex)\\n        external\\n        view\\n        override\\n        returns (string[] memory hashes_)\\n    {\\n        hashes_ = _tiers[tierIndex].hashes;\\n    }\\n\\n    /**\\n     * @notice It returns an array of token IDs owned by an address.\\n     * @dev It uses a EnumerableSet to store values and loops over each element to add to the array.\\n     * @dev Can be costly if calling within a contract for address with many tokens.\\n     * @return owned_ the array of tokenIDs owned by the address\\n     */\\n    function getOwnedTokens(address owner)\\n        external\\n        view\\n        override\\n        returns (uint256[] memory owned_)\\n    {\\n        EnumerableSet.UintSet storage set = _ownerTokenIDs[owner];\\n        owned_ = new uint256[](set.length());\\n        for (uint256 i; i < owned_.length; i++) {\\n            owned_[i] = set.at(i);\\n        }\\n    }\\n\\n    /**\\n     * @notice The contract metadata URI.\\n     * @return the contract URI hash\\n     */\\n    function contractURI() external view override returns (string memory) {\\n        return _contractURIHash;\\n    }\\n\\n    /**\\n     * @notice The token URI is based on the token ID.\\n     * @param tokenId the token identifier that returns the hash of the baseURI and the tokenURI hash\\n     * @return the tokenURI\\n     */\\n    function tokenURI(uint256 tokenId)\\n        public\\n        view\\n        override\\n        returns (string memory)\\n    {\\n        require(_exists(tokenId), \\\"TellerNFT: URI query for nonexistent token\\\");\\n\\n        string memory baseURI = _baseURI();\\n        return\\n            bytes(baseURI).length > 0\\n                ? string(abi.encodePacked(baseURI, _tokenURIHash(tokenId)))\\n                : \\\"\\\";\\n    }\\n\\n    /**\\n     * @notice It mints a new token for a Tier index.\\n     * @param tierIndex Tier to mint token on.\\n     * @param owner The owner of the new token.\\n     *\\n     * Requirements:\\n     *  - Caller must be an authorized minter\\n     */\\n    function mint(uint256 tierIndex, address owner)\\n        external\\n        override\\n        onlyMinter\\n    {\\n        // Get the new token ID\\n        uint256 tokenId = _tokenCounter.current();\\n        _tokenCounter.increment();\\n\\n        // Mint and set the token to the tier index\\n        _safeMint(owner, tokenId);\\n        _tokenTier[tokenId] = tierIndex;\\n\\n        // Set owner\\n        _setOwner(owner, tokenId);\\n    }\\n\\n    /**\\n     * @notice Adds a new Tier to be minted with the given information.\\n     * @dev It auto increments the index of the next tier to add.\\n     * @param newTier Information about the new tier to add.\\n     *\\n     * Requirements:\\n     *  - Caller must have the {MINTER} role\\n     */\\n    function addTier(Tier memory newTier) external override onlyMinter {\\n        Tier storage tier = _tiers[_tierCounter.current()];\\n\\n        tier.baseLoanSize = newTier.baseLoanSize;\\n        tier.hashes = newTier.hashes;\\n        tier.contributionAsset = newTier.contributionAsset;\\n        tier.contributionSize = newTier.contributionSize;\\n        tier.contributionMultiplier = newTier.contributionMultiplier;\\n\\n        _tierCounter.increment();\\n    }\\n\\n    /**\\n     * @notice it removes the minter by revoking the role of the address assigned to MINTER\\n     * @param minter the address of the minter\\n     */\\n    function removeMinter(address minter) external onlyMinter {\\n        revokeRole(MINTER, minter);\\n    }\\n\\n    /**\\n     * @notice it adds the minter to the rule\\n     * @param minter the address of the minter to add to the role of MINTER\\n     */\\n    function addMinter(address minter) public onlyMinter {\\n        _setupRole(MINTER, minter);\\n    }\\n\\n    /**\\n     * @notice Sets the contract level metadata URI hash.\\n     * @param contractURIHash The hash to the initial contract level metadata.\\n     */\\n    function setContractURIHash(string memory contractURIHash)\\n        external\\n        override\\n        onlyAdmin\\n    {\\n        _contractURIHash = contractURIHash;\\n    }\\n\\n    /**\\n     * @notice Initializes the TellerNFT.\\n     * @param minters The addresses that should allowed to mint tokens.\\n     */\\n    function initialize(address[] calldata minters)\\n        external\\n        virtual\\n        override\\n        initializer\\n    {\\n        __ERC721_init(\\\"Teller NFT\\\", \\\"TNFT\\\");\\n        __AccessControl_init();\\n\\n        for (uint256 i; i < minters.length; i++) {\\n            _setupRole(MINTER, minters[i]);\\n        }\\n\\n        _metadataBaseURI = \\\"https://gateway.pinata.cloud/ipfs/\\\";\\n        _contractURIHash = \\\"QmWAfQFFwptzRUCdF2cBFJhcB2gfHJMd7TQt64dZUysk3R\\\";\\n    }\\n\\n    /**\\n     * @notice checks if an interface is supported by ITellerNFT, ERC721Upgradeable or AccessControlUpgradeable\\n     * @param interfaceId the identifier of the interface\\n     * @return bool stating whether or not our interface is supported\\n     */\\n    function supportsInterface(bytes4 interfaceId)\\n        public\\n        view\\n        override(AccessControlUpgradeable, ERC721Upgradeable)\\n        returns (bool)\\n    {\\n        return\\n            interfaceId == type(ITellerNFT).interfaceId ||\\n            ERC721Upgradeable.supportsInterface(interfaceId) ||\\n            AccessControlUpgradeable.supportsInterface(interfaceId);\\n    }\\n\\n    /**\\n     * @notice It returns the hash to use for the token URI.\\n     * @param tokenId the tokenId to get the tokenURI hash\\n     * @return the tokenURIHash of our NFT\\n     */\\n    function _tokenURIHash(uint256 tokenId)\\n        internal\\n        view\\n        returns (string memory)\\n    {\\n        string[] storage tierImageHashes = _tiers[_tokenTier[tokenId]].hashes;\\n        return tierImageHashes[tokenId.mod(tierImageHashes.length)];\\n    }\\n\\n    /**\\n     * @notice The base URI path where the token media is hosted.\\n     * @dev Base URI for computing {tokenURI}\\n     * @return our metadata URI\\n     */\\n    function _baseURI() internal view override returns (string memory) {\\n        return _metadataBaseURI;\\n    }\\n\\n    /**\\n     * @notice Moves token to new owner set and then transfers.\\n     * @param from address to transfer from\\n     * @param to address to transfer to\\n     * @param tokenId tokenID to transfer\\n     */\\n    function _transfer(\\n        address from,\\n        address to,\\n        uint256 tokenId\\n    ) internal override {\\n        _setOwner(to, tokenId);\\n        super._transfer(from, to, tokenId);\\n    }\\n\\n    /**\\n     * @notice It removes the token from the current owner set and adds to new owner.\\n     * @param newOwner the new owner of the tokenID\\n     * @param tokenId the ID of the NFT\\n     */\\n    function _setOwner(address newOwner, uint256 tokenId) internal {\\n        address currentOwner = ownerOf(tokenId);\\n        if (currentOwner != address(0)) {\\n            _ownerTokenIDs[currentOwner].remove(tokenId);\\n        }\\n        _ownerTokenIDs[newOwner].add(tokenId);\\n    }\\n\\n    function _msgData() internal pure override returns (bytes calldata) {\\n        return msg.data;\\n    }\\n}\\n\",\"keccak256\":\"0xd13b122983fba24f41b3802e5031fe017b6898e6c41d121fda16f494a38d3b69\",\"license\":\"MIT\"},\"contracts/price-aggregator/IsaLPPricer.sol\":{\"content\":\"// SPDX-License-Identifier: MIT\\npragma solidity ^0.8.0;\\n\\ninterface IsaLPPricer {\\n    /**\\n     * @notice It returns the exchange rate of the single asset liquidity provider token.\\n     * @param saLPToken address of the single asset liquidity provider token.\\n     * @return Exchange rate for 1 saLP token in the underlying asset.\\n     */\\n    function getRateFor(address saLPToken) external view returns (uint256);\\n\\n    /**\\n     * @notice It calculates the value of the protocol token amount into the underlying asset.\\n     * @param saLPToken address of the single asset liquidity provider token\\n     * @param amount Amount of the token to convert into the underlying asset.\\n     * @return Value of the saLP token in the underlying asset.\\n     */\\n    function getValueOf(address saLPToken, uint256 amount)\\n        external\\n        view\\n        returns (uint256);\\n\\n    /**\\n     * @notice It calculates the balance of the underlying asset for {account}.\\n     * @param saLPToken Address of the single asset liquidity provider token.\\n     * @param account Address of the account to get the balance of.\\n     * @return Balance of the underlying asset.\\n     */\\n    function getBalanceOfUnderlying(address saLPToken, address account)\\n        external\\n        returns (uint256);\\n\\n    /**\\n     * @notice Gets the underlying asset address for the {saLPToken}.\\n     * @param saLPToken address of the single asset liquidity provider token.\\n     * @return Address of the underlying asset.\\n     */\\n    function getUnderlying(address saLPToken) external view returns (address);\\n}\\n\",\"keccak256\":\"0xa37ad64548debbbef687af3809e9c51bb46c8e4d2e4b18c009625b96fc7ba96e\",\"license\":\"MIT\"},\"contracts/price-aggregator/PriceAggregator.sol\":{\"content\":\"// SPDX-License-Identifier: MIT\\npragma solidity ^0.8.0;\\n\\n// Contracts\\nimport { ChainlinkPricer } from \\\"./pricers/ChainlinkPricer.sol\\\";\\nimport {\\n    Initializable\\n} from \\\"@openzeppelin/contracts/proxy/utils/Initializable.sol\\\";\\nimport {\\n    RolesFacet,\\n    RolesLib\\n} from \\\"../contexts2/access-control/roles/RolesFacet.sol\\\";\\nimport { ADMIN } from \\\"../shared/roles.sol\\\";\\nimport { ERC20 } from \\\"@openzeppelin/contracts/token/ERC20/ERC20.sol\\\";\\n\\n// Interfaces\\nimport { IsaLPPricer } from \\\"./IsaLPPricer.sol\\\";\\nimport {\\n    AggregatorV2V3Interface\\n} from \\\"@chainlink/contracts/src/v0.8/interfaces/AggregatorV2V3Interface.sol\\\";\\n\\n// Libraries\\nimport { Address } from \\\"@openzeppelin/contracts/utils/Address.sol\\\";\\n\\ncontract PriceAggregator is RolesFacet, Initializable {\\n    address private immutable DEPLOYER;\\n    uint256 internal constant TEN = 10;\\n    address public immutable wETH;\\n\\n    mapping(address => IsaLPPricer) public saLPPricer;\\n    ChainlinkPricer public chainlinkPricer;\\n\\n    constructor(address wETHAddress) {\\n        DEPLOYER = msg.sender;\\n        wETH = wETHAddress;\\n    }\\n\\n    function initialize(address chainlinkPricerAddress) external initializer {\\n        // Checks that the account initializing is the contract deployer\\n        require(msg.sender == DEPLOYER, \\\"not deployer\\\");\\n        // The account must first be grated the ADMIN role and then call {setChainlinkPricer}\\n        RolesLib.grantRole(ADMIN, DEPLOYER);\\n        setChainlinkPricer(chainlinkPricerAddress);\\n    }\\n\\n    function setChainlinkPricer(address pricer)\\n        public\\n        authorized(ADMIN, msg.sender)\\n    {\\n        require(\\n            Address.isContract(pricer),\\n            \\\"Teller: Chainlink pricer not contract\\\"\\n        );\\n        chainlinkPricer = ChainlinkPricer(pricer);\\n    }\\n\\n    function setAssetPricers(address pricer, address[] calldata assets)\\n        external\\n        authorized(ADMIN, msg.sender)\\n    {\\n        for (uint256 i; i < assets.length; i++) {\\n            setAssetPricer(assets[i], pricer);\\n        }\\n    }\\n\\n    function setAssetPricer(address asset, address pricer)\\n        public\\n        authorized(ADMIN, msg.sender)\\n    {\\n        require(\\n            Address.isContract(pricer),\\n            \\\"Teller: Chainlink pricer not contract\\\"\\n        );\\n        saLPPricer[asset] = IsaLPPricer(pricer);\\n    }\\n\\n    /**\\n     * @notice It returns the price of the token pair as given from the Chainlink Aggregator.\\n     * @dev It tries to use ETH as a pass through asset if the direct pair is not supported.\\n     * @param src Source token address.\\n     * @param dst Destination token address.\\n     * @return uint256 The latest answer as given from Chainlink.\\n     */\\n    function getPriceFor(address src, address dst)\\n        external\\n        view\\n        returns (uint256)\\n    {\\n        return _priceFor(src, dst);\\n    }\\n\\n    /**\\n     * @notice It calculates the value of a token amount into another.\\n     * @param src Source token address.\\n     * @param dst Destination token address.\\n     * @param srcAmount Amount of the source token to convert into the destination token.\\n     * @return uint256 Value of the source token amount in destination tokens.\\n     */\\n    function getValueFor(\\n        address src,\\n        address dst,\\n        uint256 srcAmount\\n    ) external view returns (uint256) {\\n        return _valueFor(src, srcAmount, uint256(_priceFor(src, dst)));\\n    }\\n\\n    /**\\n     * @notice It calculates the value of the {src} token balance in {dst} token for the {account}.\\n     * @param account Address of the account to get the balance value of.\\n     * @param src Source token address.\\n     * @param dst Destination token address.\\n     * @return Value of the {src} token balance denoted in {dst} tokens.\\n     */\\n    function getBalanceOfFor(\\n        address account,\\n        address src,\\n        address dst\\n    ) external returns (uint256) {\\n        IsaLPPricer srcPricer = saLPPricer[src];\\n        IsaLPPricer dstPricer = saLPPricer[dst];\\n\\n        uint256 srcBalance;\\n        if (address(srcPricer) == address(0)) {\\n            srcBalance = ERC20(src).balanceOf(account);\\n        } else {\\n            srcBalance = srcPricer.getBalanceOfUnderlying(src, account);\\n            src = srcPricer.getUnderlying(src);\\n        }\\n\\n        return _valueFor(src, srcBalance, uint256(_priceFor(src, dst)));\\n    }\\n\\n    /**\\n     * @notice It calculates the value of a token amount into another.\\n     * @param src Source token address.\\n     * @param amount Amount of the source token to convert into the destination token.\\n     * @param exchangeRate The calculated exchange rate between the tokens.\\n     * @return uint256 Value of the source token amount given an exchange rate peg.\\n     */\\n    function _valueFor(\\n        address src,\\n        uint256 amount,\\n        uint256 exchangeRate\\n    ) internal view returns (uint256) {\\n        return (amount * exchangeRate) / _oneToken(src);\\n    }\\n\\n    /**\\n     * @notice it returns 10^{numberOfDecimals} for a token\\n     * @param token the address to calculate the decimals for\\n     * @return 10^number of decimals used to calculate the price and value of different token pairs\\n     */\\n    function _oneToken(address token) internal view returns (uint256) {\\n        return TEN**_decimalsFor(token);\\n    }\\n\\n    /**\\n     * @notice It gets the number of decimals for a given token.\\n     * @param addr Token address to get decimals for.\\n     * @return uint8 Number of decimals the given token.\\n     */\\n    function _decimalsFor(address addr) internal view returns (uint8) {\\n        return ERC20(addr).decimals();\\n    }\\n\\n    /**\\n     * @notice it tries to calculate a price from Compound and Chainlink.\\n     * @dev if no price is found on compound, then calculate it on chainlink\\n     * @param src the token address to calculate the price for in dst\\n     * @param dst the token address to retrieve the price of src\\n     * @return price_ the price of src in dst\\n     */\\n    function _priceFor(address src, address dst)\\n        private\\n        view\\n        returns (uint256 price_)\\n    {\\n        IsaLPPricer srcPricer = saLPPricer[src];\\n        IsaLPPricer dstPricer = saLPPricer[dst];\\n\\n        // ETH / ASSET\\n        if (src == wETH && address(dstPricer) == address(0)) {\\n            // Get destination asset Chainlink price in ETH\\n            uint256 dstEthPrice = chainlinkPricer.getEthPrice(dst);\\n            // Since the source asset is ETH and the price is in ETH, we need the inverse\\n            return _scale(_inverseRate(dstEthPrice, 18), 18, _decimalsFor(dst));\\n        }\\n\\n        // ASSET / ETH\\n        if (dst == wETH && address(srcPricer) == address(0)) {\\n            // Get source asset Chainlink price in ETH\\n            uint256 srcEthPrice = chainlinkPricer.getEthPrice(src);\\n            return srcEthPrice;\\n        }\\n\\n        // ASSET / ASSET\\n        if (\\n            address(srcPricer) == address(0) && address(dstPricer) == address(0)\\n        ) {\\n            // Get source asset Chainlink price in ETH\\n            uint256 srcEthPrice = chainlinkPricer.getEthPrice(src);\\n            // Get destination asset Chainlink price in ETH\\n            uint256 dstEthPrice = chainlinkPricer.getEthPrice(dst);\\n            // Merge the 2 rates\\n            return _mergeRates(srcEthPrice, dstEthPrice, dst);\\n        }\\n\\n        // saLP / ASSET\\n        if (\\n            address(srcPricer) != address(0) && address(dstPricer) == address(0)\\n        ) {\\n            // Get the underlying source asset\\n            address srcUnderlying = srcPricer.getUnderlying(src);\\n            // Get source asset exchange rate for the underlying asset\\n            uint256 srcExchangeRate = srcPricer.getRateFor(src);\\n            if (srcUnderlying == dst) {\\n                return srcExchangeRate;\\n            } else {\\n                return\\n                    _mergeRates(\\n                        srcExchangeRate,\\n                        _priceFor(dst, srcUnderlying),\\n                        dst\\n                    );\\n            }\\n        }\\n\\n        // Get the underlying destination asset\\n        address dstUnderlying = dstPricer.getUnderlying(dst);\\n\\n        // ASSET / saLP\\n        if (\\n            address(srcPricer) == address(0) && address(dstPricer) != address(0)\\n        ) {\\n            // Get destination asset exchange rate for the underlying asset\\n            uint256 dstExchangeRate = dstPricer.getRateFor(dst);\\n            // If the source asset and underlying destination asset are the same, inverse the saLP asset rate\\n            if (src == dstUnderlying) {\\n                return\\n                    _inverseRate(\\n                        _scale(\\n                            dstExchangeRate,\\n                            _decimalsFor(dst),\\n                            _decimalsFor(src)\\n                        ),\\n                        _decimalsFor(src)\\n                    );\\n            } else {\\n                return\\n                    _mergeRates(\\n                        _priceFor(src, dstUnderlying),\\n                        dstExchangeRate,\\n                        dst\\n                    );\\n            }\\n        }\\n\\n        // saLP / saLP\\n\\n        // Get the underlying destination asset\\n        return\\n            _valueFor(\\n                dstUnderlying,\\n                _priceFor(src, dstUnderlying),\\n                _priceFor(dstUnderlying, dst)\\n            );\\n    }\\n\\n    /**\\n     * @notice Scales the {value} by the difference in decimal values.\\n     * @param value the the value of the src in dst\\n     * @param srcDecimals src token decimals\\n     * @param dstDecimals dst token decimals\\n     * @return the price of src in dst after scaling the difference in decimal values\\n     */\\n    function _scale(\\n        uint256 value,\\n        uint256 srcDecimals,\\n        uint256 dstDecimals\\n    ) internal pure returns (uint256) {\\n        if (dstDecimals > srcDecimals) {\\n            return value * (TEN**(dstDecimals - srcDecimals));\\n        } else {\\n            return value / (TEN**(srcDecimals - dstDecimals));\\n        }\\n    }\\n\\n    function _inverseRate(uint256 rate, uint8 dstDecimals)\\n        internal\\n        pure\\n        returns (uint256)\\n    {\\n        return (TEN**(dstDecimals + dstDecimals)) / rate;\\n    }\\n\\n    function _mergeRates(\\n        uint256 rate1,\\n        uint256 rate2,\\n        address dst\\n    ) internal view returns (uint256) {\\n        return\\n            rate1 == 0 ? rate2 : ((rate1 * (TEN**_decimalsFor(dst))) / rate2);\\n    }\\n}\\n\",\"keccak256\":\"0x81629082f946f692f85d040b1f109a0c5b9904911d7fd7178bc8291a59e7e71e\",\"license\":\"MIT\"},\"contracts/price-aggregator/pricers/ChainlinkPricer.sol\":{\"content\":\"// SPDX-License-Identifier: MIT\\npragma solidity ^0.8.0;\\n\\n// Interfaces\\nimport {\\n    AggregatorV2V3Interface as ChainlinkAgg\\n} from \\\"@chainlink/contracts/src/v0.8/interfaces/AggregatorV2V3Interface.sol\\\";\\nimport { ERC20 } from \\\"@openzeppelin/contracts/token/ERC20/ERC20.sol\\\";\\n\\n// Libraries\\nimport { ENS } from \\\"../../shared/libraries/ENSLib.sol\\\";\\nimport { StringsLib } from \\\"../../shared/libraries/StringsLib.sol\\\";\\nimport { SafeCast } from \\\"@openzeppelin/contracts/utils/math/SafeCast.sol\\\";\\nimport { Address } from \\\"@openzeppelin/contracts/utils/Address.sol\\\";\\n\\ncontract ChainlinkPricer {\\n    using StringsLib for string;\\n\\n    // Chainlink ENS resolver\\n    address public immutable ENS_RESOLVER;\\n    // namehash of `data.eth` domain\\n    bytes32 public constant ENS_DOMAIN =\\n        0x4a9dd6923a809a49d009b308182940df46ac3a45ee16c1133f90db66596dae1f;\\n\\n    constructor(address ensResolver) {\\n        require(\\n            Address.isContract(ensResolver),\\n            \\\"Teller: resolver not contract\\\"\\n        );\\n        ENS_RESOLVER = ensResolver;\\n    }\\n\\n    function getEthPrice(address token) external view returns (uint256 price_) {\\n        price_ = SafeCast.toUint256(\\n            ChainlinkAgg(getEthAggregator(token)).latestAnswer()\\n        );\\n    }\\n\\n    function getEthAggregator(address token) public view returns (address) {\\n        string memory name = _getTokenSymbol(token).concat(\\\"-eth\\\");\\n        return ENS.resolve(ENS_RESOLVER, ENS.subnode(name, ENS_DOMAIN));\\n    }\\n\\n    function _getTokenSymbol(address token)\\n        internal\\n        view\\n        returns (string memory)\\n    {\\n        string memory symbol_ = ERC20(token).symbol();\\n        if (symbol_.compareTo(\\\"WBTC\\\")) {\\n            return \\\"btc\\\";\\n        }\\n        if (symbol_.compareTo(\\\"WMATIC\\\")) {\\n            return \\\"matic\\\";\\n        }\\n        return symbol_.lower();\\n    }\\n}\\n\",\"keccak256\":\"0xeba26b8aa2b03378a37b1cd4e882700baa312170b4dac66a77776c957dd26e78\",\"license\":\"MIT\"},\"contracts/settings/asset/libraries/MaxDebtRatioLib.sol\":{\"content\":\"// SPDX-License-Identifier: MIT\\npragma solidity ^0.8.0;\\n\\n// Libraries\\nimport {\\n    CacheLib,\\n    Cache,\\n    CacheType\\n} from \\\"../../../shared/libraries/CacheLib.sol\\\";\\n\\n// Storage\\nimport { AppStorageLib } from \\\"../../../storage/app.sol\\\";\\n\\n/**\\n * @notice Utility library of inline functions for MaxDebtRatio asset setting.\\n *\\n * @author develop@teller.finance\\n */\\nlibrary MaxDebtRatioLib {\\n    bytes32 private constant NAME = keccak256(\\\"MaxDebtRatio\\\");\\n\\n    function s(address asset) private view returns (Cache storage) {\\n        return AppStorageLib.store().assetSettings[asset];\\n    }\\n\\n    function get(address asset) internal view returns (uint16) {\\n        return uint16(s(asset).uints[NAME]);\\n    }\\n\\n    function set(address asset, uint16 newValue) internal {\\n        s(asset).uints[NAME] = uint256(newValue);\\n    }\\n}\\n\",\"keccak256\":\"0x66a869c2cf30a14cb54a6bfbd241aaaac58bced13f40da7c4b5cbc5edc363769\",\"license\":\"MIT\"},\"contracts/settings/asset/libraries/MaxLoanAmountLib.sol\":{\"content\":\"// SPDX-License-Identifier: MIT\\npragma solidity ^0.8.0;\\n\\n// Libraries\\nimport {\\n    CacheLib,\\n    Cache,\\n    CacheType\\n} from \\\"../../../shared/libraries/CacheLib.sol\\\";\\n\\n// Storage\\nimport { AppStorageLib } from \\\"../../../storage/app.sol\\\";\\n\\n/**\\n * @notice Utility library of inline functions for MaxLoanAmount asset setting.\\n *\\n * @author develop@teller.finance\\n */\\nlibrary MaxLoanAmountLib {\\n    bytes32 private constant NAME = keccak256(\\\"MaxLoanAmount\\\");\\n\\n    function s(address asset) private view returns (Cache storage) {\\n        return AppStorageLib.store().assetSettings[asset];\\n    }\\n\\n    function get(address asset) internal view returns (uint256) {\\n        return s(asset).uints[NAME];\\n    }\\n\\n    function set(address asset, uint256 newValue) internal {\\n        s(asset).uints[NAME] = newValue;\\n    }\\n}\\n\",\"keccak256\":\"0x5ccd9e2708630103508f6498a6ed200de70670a65a47a20f8b4bca8788111116\",\"license\":\"MIT\"},\"contracts/settings/pausable/PausableMods.sol\":{\"content\":\"// SPDX-License-Identifier: MIT\\npragma solidity ^0.8.0;\\n\\nimport { AppStorageLib } from \\\"../../storage/app.sol\\\";\\n\\nabstract contract PausableMods {\\n    /**\\n     * @notice Requires that the state of the protocol AND the given facet id equal {state}.\\n     * @param id id of the facet to check if is paused.\\n     * @param state Boolean that the protocol AND facet should be in.\\n     */\\n    modifier paused(bytes32 id, bool state) {\\n        require(\\n            __isPaused(\\\"\\\") == state && __isPaused(id) == state,\\n            __pausedMessage(state)\\n        );\\n        _;\\n    }\\n\\n    /**\\n     * @dev Checks if the given id is paused.\\n     * @param id Encoded id of the facet to check if is paused.\\n     * @return the bool to tell us if the facet is paused (true) or not (false)\\n     */\\n    function __isPaused(bytes32 id) private view returns (bool) {\\n        return AppStorageLib.store().paused[id];\\n    }\\n\\n    /**\\n     * @dev Gets the message that should be reverted with given a state it should be in.\\n     * @param state Boolean that an id should be in.\\n     * @return a message stating whether the facet is paused or not\\n     */\\n    function __pausedMessage(bool state) private pure returns (string memory) {\\n        return state ? \\\"Pausable: not paused\\\" : \\\"Pausable: paused\\\";\\n    }\\n}\\n\",\"keccak256\":\"0x2d3f848ee56ae5fa365539c2509c03c167affc89c89f98bb98cb9b83fbe8ae4c\",\"license\":\"MIT\"},\"contracts/settings/platform/libraries/PlatformSettingsLib.sol\":{\"content\":\"// SPDX-License-Identifier: MIT\\npragma solidity ^0.8.0;\\n\\nimport { AppStorageLib } from \\\"../../../storage/app.sol\\\";\\nimport \\\"../names.sol\\\" as NAMES;\\nimport {\\n    RolesMods\\n} from \\\"../../../contexts2/access-control/roles/RolesMods.sol\\\";\\nimport { ADMIN, AUTHORIZED } from \\\"../../../shared/roles.sol\\\";\\nimport { RolesLib } from \\\"../../../contexts2/access-control/roles/RolesLib.sol\\\";\\n\\n// It defines a platform settings. It includes: value, min, and max values.\\nstruct PlatformSetting {\\n    uint256 value;\\n    uint256 min;\\n    uint256 max;\\n    bool exists;\\n}\\n\\n/**\\n * @notice Utility library of inline functions on the PlatformSetting struct.\\n *\\n * @author develop@teller.finance\\n */\\nlibrary PlatformSettingsLib {\\n    function s(bytes32 name) internal view returns (PlatformSetting storage) {\\n        return AppStorageLib.store().platformSettings[name];\\n    }\\n\\n    /**\\n     * @notice It gets the current \\\"NFTInterestRate\\\" setting's value\\n     * @return value_ the current value.\\n     */\\n    function getNFTInterestRate() internal view returns (uint16 value_) {\\n        value_ = uint16(s(NAMES.NFT_INTEREST_RATE).value);\\n    }\\n\\n    /**\\n     * @notice It gets the current \\\"RequiredSubmissionsPercentage\\\" setting's value\\n     * @return value_ the current value.\\n     */\\n    function getRequiredSubmissionsPercentageValue()\\n        internal\\n        view\\n        returns (uint256 value_)\\n    {\\n        value_ = s(NAMES.REQUIRED_SUBMISSIONS_PERCENTAGE).value;\\n    }\\n\\n    /**\\n     * @notice It gets the current \\\"MaximumTolerance\\\" setting's value\\n     * @return value_ the current value.\\n     */\\n    function getMaximumToleranceValue() internal view returns (uint256 value_) {\\n        value_ = s(NAMES.MAXIMUM_TOLERANCE).value;\\n    }\\n\\n    /**\\n     * @notice It gets the current \\\"ResponseExpiryLength\\\" setting's value\\n     * @return value_ the current value.\\n     */\\n    function getResponseExpiryLengthValue()\\n        internal\\n        view\\n        returns (uint256 value_)\\n    {\\n        value_ = s(NAMES.RESPONSE_EXPIRY_LENGTH).value;\\n    }\\n\\n    /**\\n     * @notice It gets the current \\\"SafetyInterval\\\" setting's value\\n     * @return value_ the current value.\\n     */\\n    function getSafetyIntervalValue() internal view returns (uint256 value_) {\\n        value_ = s(NAMES.SAFETY_INTERVAL).value;\\n    }\\n\\n    /**\\n     * @notice It gets the current \\\"TermsExpiryTime\\\" setting's value\\n     * @return value_ the current value.\\n     */\\n    function getTermsExpiryTimeValue() internal view returns (uint256 value_) {\\n        value_ = s(NAMES.TERMS_EXPIRY_TIME).value;\\n    }\\n\\n    /**\\n     * @notice It gets the current \\\"LiquidateRewardPercent\\\" setting's value\\n     * @return value_ the current value.\\n     */\\n    function getLiquidateRewardPercent()\\n        internal\\n        view\\n        returns (uint256 value_)\\n    {\\n        value_ = s(NAMES.LIQUIDATE_REWARD_PERCENT).value;\\n    }\\n\\n    /**\\n     * @notice It gets the current \\\"MaximumLoanDuration\\\" setting's value\\n     * @return value_ the current value.\\n     */\\n    function getMaximumLoanDurationValue()\\n        internal\\n        view\\n        returns (uint256 value_)\\n    {\\n        value_ = s(NAMES.MAXIMUM_LOAN_DURATION).value;\\n    }\\n\\n    /**\\n     * @notice It gets the current \\\"RequestLoanTermsRateLimit\\\" setting's value\\n     * @return value_ the current value.\\n     */\\n    function getRequestLoanTermsRateLimitValue()\\n        internal\\n        view\\n        returns (uint256 value_)\\n    {\\n        value_ = s(NAMES.REQUEST_LOAN_TERMS_RATE_LIMIT).value;\\n    }\\n\\n    /**\\n     * @notice It gets the current \\\"CollateralBuffer\\\" setting's value\\n     * @return value_ the current value.\\n     */\\n    function getCollateralBufferValue() internal view returns (uint256 value_) {\\n        value_ = s(NAMES.COLLATERAL_BUFFER).value;\\n    }\\n\\n    /**\\n     * @notice It gets the current \\\"OverCollateralizedBuffer\\\" setting's value\\n     * @return value_ the current value.\\n     */\\n    function getOverCollateralizedBufferValue()\\n        internal\\n        view\\n        returns (uint256 value_)\\n    {\\n        value_ = s(NAMES.OVER_COLLATERALIZED_BUFFER).value;\\n    }\\n}\\n\",\"keccak256\":\"0x44294be1af9f913b2ed391a40cd4b646537a4b463b8d5ff1fac8ead3988966c1\",\"license\":\"MIT\"},\"contracts/settings/platform/names.sol\":{\"content\":\"// SPDX-License-Identifier: MIT\\npragma solidity ^0.8.0;\\n\\n/**\\n        @dev The setting name for loans taken out with an NFT.\\n        @dev This is the interest rate value that will be applied to loans taken out with an NFT.\\n     */\\nbytes32 constant NFT_INTEREST_RATE = keccak256(\\\"NFTInterestRate\\\");\\n\\n/**\\n        @dev The setting name for the required subsmission settings.\\n        @dev This is the minimum percentage of node responses that will be required by the platform to either take out a loan, and to claim accrued interest. If the number of node responses are less than the ones specified here, the loan or accrued interest claim request will be rejected by the platform\\n     */\\nbytes32 constant REQUIRED_SUBMISSIONS_PERCENTAGE = keccak256(\\n    \\\"RequiredSubmissionsPercentage\\\"\\n);\\n\\n/**\\n        @dev The setting name for the maximum tolerance settings.\\n        @dev This is the maximum tolerance for the values submitted (by nodes) when they are aggregated (average). It is used in the consensus mechanisms.\\n        @dev This is a percentage value with 2 decimal places.\\n            i.e. maximumTolerance of 325 => tolerance of 3.25% => 0.0325 of value\\n            i.e. maximumTolerance of 0 => It means all the values submitted must be equals.\\n        @dev The max value is 100% => 10000\\n     */\\nbytes32 constant MAXIMUM_TOLERANCE = keccak256(\\\"MaximumTolerance\\\");\\n/**\\n        @dev The setting name for the response expiry length settings.\\n        @dev This is the maximum time (in seconds) a node has to submit a response. After that time, the response is considered expired and will not be accepted by the protocol.\\n     */\\n\\nbytes32 constant RESPONSE_EXPIRY_LENGTH = keccak256(\\\"ResponseExpiryLength\\\");\\n\\n/**\\n        @dev The setting name for the safety interval settings.\\n        @dev This is the minimum time you need to wait (in seconds) between the last time you deposit collateral and you take out the loan.\\n        @dev It is used to avoid potential attacks using Flash Loans (AAVE) or Flash Swaps (Uniswap V2).\\n     */\\nbytes32 constant SAFETY_INTERVAL = keccak256(\\\"SafetyInterval\\\");\\n\\n/**\\n        @dev The setting name for the term expiry time settings.\\n        @dev This represents the time (in seconds) that loan terms will be available after requesting them.\\n        @dev After this time, the loan terms will expire and the borrower will need to request it again.\\n     */\\nbytes32 constant TERMS_EXPIRY_TIME = keccak256(\\\"TermsExpiryTime\\\");\\n\\n/**\\n        @dev The setting name for the liquidation reward percent setting.\\n        @dev It represents the percentage value (with 2 decimal places) for the MAX liquidation reward.\\n            i.e. an ETH liquidation price at 5% is stored as 500\\n     */\\nbytes32 constant LIQUIDATE_REWARD_PERCENT = keccak256(\\\"LiquidateRewardPercent\\\");\\n\\n/**\\n        @dev The setting name for the maximum loan duration settings.\\n        @dev The maximum loan duration setting is defined in seconds. Loans will not be given for timespans larger than the one specified here.\\n     */\\nbytes32 constant MAXIMUM_LOAN_DURATION = keccak256(\\\"MaximumLoanDuration\\\");\\n\\n/**\\n        @dev The setting name for the request loan terms rate limit settings.\\n        @dev The request loan terms rate limit setting is defined in seconds.\\n     */\\nbytes32 constant REQUEST_LOAN_TERMS_RATE_LIMIT = keccak256(\\n    \\\"RequestLoanTermsRateLimit\\\"\\n);\\n\\n/**\\n        @dev The setting name for the collateral buffer.\\n        @dev The collateral buffer is a safety buffer above the required collateral amount to liquidate a loan. It is required to ensure the loan does not get liquidated immediately after the loan is taken out if the value of the collateral asset deposited drops drastically.\\n        @dev It represents the percentage value (with 2 decimal places) of a collateral buffer.\\n            e.g.: collateral buffer at 100% is stored as 10000.\\n     */\\nbytes32 constant COLLATERAL_BUFFER = keccak256(\\\"CollateralBuffer\\\");\\n\\n/**\\n        @dev The setting name for the over collateralized buffer.\\n        @dev The over collateralized buffer is the minimum required collateral ratio in order for a loan to be taken out without an Escrow contract and for the funds to go to the borrower's EOA (external overridely owned account).\\n        @dev It represents the percentage value (with 2 decimal places) of a over collateralized buffer.\\n            e.g.: over collateralized buffer at 130% is stored as 13000.\\n     */\\nbytes32 constant OVER_COLLATERALIZED_BUFFER = keccak256(\\n    \\\"OverCollateralizedBuffer\\\"\\n);\\n\",\"keccak256\":\"0xd68a7df42b2bbba6f935d5890b7b37997c1432e25ae113827b8bde87f94fd86f\",\"license\":\"MIT\"},\"contracts/shared/interfaces/DataTypes.sol\":{\"content\":\"// SPDX-License-Identifier: agpl-3.0\\npragma solidity ^0.8.0;\\n\\nlibrary DataTypes {\\n    // refer to the aave whitepaper, section 1.1 basic concepts for a formal description of these properties.\\n    struct ReserveData {\\n        //stores the reserve configuration\\n        ReserveConfigurationMap configuration;\\n        //the liquidity index. Expressed in ray\\n        uint128 liquidityIndex;\\n        //variable borrow index. Expressed in ray\\n        uint128 variableBorrowIndex;\\n        //the current supply rate. Expressed in ray\\n        uint128 currentLiquidityRate;\\n        //the current variable borrow rate. Expressed in ray\\n        uint128 currentVariableBorrowRate;\\n        //the current stable borrow rate. Expressed in ray\\n        uint128 currentStableBorrowRate;\\n        uint40 lastUpdateTimestamp;\\n        //tokens addresses\\n        address aTokenAddress;\\n        address stableDebtTokenAddress;\\n        address variableDebtTokenAddress;\\n        //address of the interest rate strategy\\n        address interestRateStrategyAddress;\\n        //the id of the reserve. Represents the position in the list of the active reserves\\n        uint8 id;\\n    }\\n\\n    struct ReserveConfigurationMap {\\n        //bit 0-15: LTV\\n        //bit 16-31: Liq. threshold\\n        //bit 32-47: Liq. bonus\\n        //bit 48-55: Decimals\\n        //bit 56: Reserve is active\\n        //bit 57: reserve is frozen\\n        //bit 58: borrowing is enabled\\n        //bit 59: stable rate borrowing enabled\\n        //bit 60-63: reserved\\n        //bit 64-79: reserve factor\\n        uint256 data;\\n    }\\n\\n    struct UserConfigurationMap {\\n        uint256 data;\\n    }\\n\\n    enum InterestRateMode {\\n        NONE,\\n        STABLE,\\n        VARIABLE\\n    }\\n}\\n\",\"keccak256\":\"0xef1420dbff466d6cf40754ff30c011db7b088b3f5c382299372c793cc49e385d\",\"license\":\"agpl-3.0\"},\"contracts/shared/interfaces/IAToken.sol\":{\"content\":\"// SPDX-License-Identifier: agpl-3.0\\npragma solidity ^0.8.0;\\n\\ninterface IAToken {\\n    /**\\n     * @dev Returns the underlying token address\\n     * @return address of the underlying token\\n     */\\n    function UNDERLYING_ASSET_ADDRESS() external view returns (address);\\n\\n    /**\\n     * @dev Mints `amount` aTokens to `user`\\n     * @param user The address receiving the minted tokens\\n     * @param amount The amount of tokens getting minted\\n     * @param index The new liquidity index of the reserve\\n     * @return `true` if the the previous balance of the user was 0\\n     */\\n    function mint(\\n        address user,\\n        uint256 amount,\\n        uint256 index\\n    ) external returns (bool);\\n\\n    /**\\n     * @dev Burns aTokens from `user` and sends the equivalent amount of underlying to `receiverOfUnderlying`\\n     * @param user The owner of the aTokens, getting them burned\\n     * @param receiverOfUnderlying The address that will receive the underlying\\n     * @param amount The amount being burned\\n     * @param index The new liquidity index of the reserve\\n     **/\\n    function burn(\\n        address user,\\n        address receiverOfUnderlying,\\n        uint256 amount,\\n        uint256 index\\n    ) external;\\n\\n    /**\\n     * @dev Transfers the underlying asset to `target`. Used by the LendingPool to transfer\\n     * assets in borrow(), withdraw() and flashLoan()\\n     * @param user The recipient of the aTokens\\n     * @param amount The amount getting transferred\\n     * @return The amount transferred\\n     **/\\n    function transferUnderlyingTo(address user, uint256 amount)\\n        external\\n        returns (uint256);\\n\\n    /**\\n     * @dev Returns the amount of tokens owned by `account`.\\n     */\\n    function balanceOf(address account) external view returns (uint256);\\n\\n    /**\\n     * @dev Returns the remaining number of tokens that `spender` will be\\n     * allowed to spend on behalf of `owner` through {transferFrom}. This is\\n     * zero by default.\\n     *\\n     * This value changes when {approve} or {transferFrom} are called.\\n     */\\n    function allowance(address owner, address spender)\\n        external\\n        view\\n        returns (uint256);\\n\\n    /**\\n     * @dev Sets `amount` as the allowance of `spender` over the caller's tokens.\\n     *\\n     * Returns a boolean value indicating whether the operation succeeded.\\n     *\\n     * IMPORTANT: Beware that changing an allowance with this method brings the risk\\n     * that someone may use both the old and the new allowance by unfortunate\\n     * transaction ordering. One possible solution to mitigate this race\\n     * condition is to first reduce the spender's allowance to 0 and set the\\n     * desired value afterwards:\\n     * https://github.com/ethereum/EIPs/issues/20#issuecomment-263524729\\n     *\\n     * Emits an {Approval} event.\\n     */\\n    function approve(address spender, uint256 amount) external returns (bool);\\n\\n    /**\\n     * @dev Returns the scaled balance of the user. The scaled balance is the sum of all the\\n     * updated stored balance divided by the reserve's liquidity index at the moment of the update\\n     * @param user The user whose balance is calculated\\n     * @return The scaled balance of the user\\n     **/\\n    function scaledBalanceOf(address user) external view returns (uint256);\\n\\n    /**\\n     * @dev Returns the scaled balance of the user and the scaled total supply.\\n     * @param user The address of the user\\n     * @return The scaled balance of the user\\n     * @return The scaled balance and the scaled total supply\\n     **/\\n    function getScaledUserBalanceAndSupply(address user)\\n        external\\n        view\\n        returns (uint256, uint256);\\n\\n    /**\\n     * @dev Returns the scaled total supply of the variable debt token. Represents sum(debt/index)\\n     * @return The scaled total supply\\n     **/\\n    function scaledTotalSupply() external view returns (uint256);\\n}\\n\",\"keccak256\":\"0xe7a58bbfd313c245eff1870d49e47f4df23e09bf47a05cb3e5f169a921736375\",\"license\":\"agpl-3.0\"},\"contracts/shared/interfaces/IAaveLendingPool.sol\":{\"content\":\"// SPDX-License-Identifier: agpl-3.0\\npragma solidity ^0.8.0;\\n\\nimport \\\"./IAaveLendingPoolAddressesProvider.sol\\\";\\nimport \\\"./DataTypes.sol\\\";\\n\\ninterface IAaveLendingPool {\\n    /**\\n     * @dev Deposits an `amount` of underlying asset into the reserve, receiving in return overlying aTokens.\\n     * - E.g. User deposits 100 USDC and gets in return 100 aUSDC\\n     * @param asset The address of the underlying asset to deposit\\n     * @param amount The amount to be deposited\\n     * @param onBehalfOf The address that will receive the aTokens, same as msg.sender if the user\\n     *   wants to receive them on his own wallet, or a different address if the beneficiary of aTokens\\n     *   is a different wallet\\n     * @param referralCode Code used to register the integrator originating the operation, for potential rewards.\\n     *   0 if the action is executed directly by the user, without any middle-man\\n     **/\\n    function deposit(\\n        address asset,\\n        uint256 amount,\\n        address onBehalfOf,\\n        uint16 referralCode\\n    ) external;\\n\\n    /**\\n     * @dev Withdraws an `amount` of underlying asset from the reserve, burning the equivalent aTokens owned\\n     * E.g. User has 100 aUSDC, calls withdraw() and receives 100 USDC, burning the 100 aUSDC\\n     * @param asset The address of the underlying asset to withdraw\\n     * @param amount The underlying amount to be withdrawn\\n     *   - Send the value type(uint256).max in order to withdraw the whole aToken balance\\n     * @param to Address that will receive the underlying, same as msg.sender if the user\\n     *   wants to receive it on his own wallet, or a different address if the beneficiary is a\\n     *   different wallet\\n     * @return The final amount withdrawn\\n     **/\\n    function withdraw(\\n        address asset,\\n        uint256 amount,\\n        address to\\n    ) external returns (uint256);\\n\\n    /**\\n     * @dev Allows users to borrow a specific `amount` of the reserve underlying asset, provided that the borrower\\n     * already deposited enough collateral, or he was given enough allowance by a credit delegator on the\\n     * corresponding debt token (StableDebtToken or VariableDebtToken)\\n     * - E.g. User borrows 100 USDC passing as `onBehalfOf` his own address, receiving the 100 USDC in his wallet\\n     *   and 100 stable/variable debt tokens, depending on the `interestRateMode`\\n     * @param asset The address of the underlying asset to borrow\\n     * @param amount The amount to be borrowed\\n     * @param interestRateMode The interest rate mode at which the user wants to borrow: 1 for Stable, 2 for Variable\\n     * @param referralCode Code used to register the integrator originating the operation, for potential rewards.\\n     *   0 if the action is executed directly by the user, without any middle-man\\n     * @param onBehalfOf Address of the user who will receive the debt. Should be the address of the borrower itself\\n     * calling the function if he wants to borrow against his own collateral, or the address of the credit delegator\\n     * if he has been given credit delegation allowance\\n     **/\\n    function borrow(\\n        address asset,\\n        uint256 amount,\\n        uint256 interestRateMode,\\n        uint16 referralCode,\\n        address onBehalfOf\\n    ) external;\\n\\n    /**\\n     * @notice Repays a borrowed `amount` on a specific reserve, burning the equivalent debt tokens owned\\n     * - E.g. User repays 100 USDC, burning 100 variable/stable debt tokens of the `onBehalfOf` address\\n     * @param asset The address of the borrowed underlying asset previously borrowed\\n     * @param amount The amount to repay\\n     * - Send the value type(uint256).max in order to repay the whole debt for `asset` on the specific `debtMode`\\n     * @param rateMode The interest rate mode at of the debt the user wants to repay: 1 for Stable, 2 for Variable\\n     * @param onBehalfOf Address of the user who will get his debt reduced/removed. Should be the address of the\\n     * user calling the function if he wants to reduce/remove his own debt, or the address of any other\\n     * other borrower whose debt should be removed\\n     * @return The final amount repaid\\n     **/\\n    function repay(\\n        address asset,\\n        uint256 amount,\\n        uint256 rateMode,\\n        address onBehalfOf\\n    ) external returns (uint256);\\n\\n    /**\\n     * @dev Allows a borrower to swap his debt between stable and variable mode, or viceversa\\n     * @param asset The address of the underlying asset borrowed\\n     * @param rateMode The rate mode that the user wants to swap to\\n     **/\\n    function swapBorrowRateMode(address asset, uint256 rateMode) external;\\n\\n    /**\\n     * @dev Rebalances the stable interest rate of a user to the current stable rate defined on the reserve.\\n     * - Users can be rebalanced if the following conditions are satisfied:\\n     *     1. Usage ratio is above 95%\\n     *     2. the current deposit APY is below REBALANCE_UP_THRESHOLD * maxVariableBorrowRate, which means that too much has been\\n     *        borrowed at a stable rate and depositors are not earning enough\\n     * @param asset The address of the underlying asset borrowed\\n     * @param user The address of the user to be rebalanced\\n     **/\\n    function rebalanceStableBorrowRate(address asset, address user) external;\\n\\n    /**\\n     * @dev Allows depositors to enable/disable a specific deposited asset as collateral\\n     * @param asset The address of the underlying asset deposited\\n     * @param useAsCollateral `true` if the user wants to use the deposit as collateral, `false` otherwise\\n     **/\\n    function setUserUseReserveAsCollateral(address asset, bool useAsCollateral)\\n        external;\\n\\n    /**\\n     * @dev Function to liquidate a non-healthy position collateral-wise, with Health Factor below 1\\n     * - The caller (liquidator) covers `debtToCover` amount of debt of the user getting liquidated, and receives\\n     *   a proportionally amount of the `collateralAsset` plus a bonus to cover market risk\\n     * @param collateralAsset The address of the underlying asset used as collateral, to receive as result of the liquidation\\n     * @param debtAsset The address of the underlying borrowed asset to be repaid with the liquidation\\n     * @param user The address of the borrower getting liquidated\\n     * @param debtToCover The debt amount of borrowed `asset` the liquidator wants to cover\\n     * @param receiveAToken `true` if the liquidators wants to receive the collateral aTokens, `false` if he wants\\n     * to receive the underlying collateral asset directly\\n     **/\\n    function liquidationCall(\\n        address collateralAsset,\\n        address debtAsset,\\n        address user,\\n        uint256 debtToCover,\\n        bool receiveAToken\\n    ) external;\\n\\n    /**\\n     * @dev Allows smartcontracts to access the liquidity of the pool within one transaction,\\n     * as long as the amount taken plus a fee is returned.\\n     * IMPORTANT There are security concerns for developers of flashloan receiver contracts that must be kept into consideration.\\n     * For further details please visit https://developers.aave.com\\n     * @param receiverAddress The address of the contract receiving the funds, implementing the IFlashLoanReceiver interface\\n     * @param assets The addresses of the assets being flash-borrowed\\n     * @param amounts The amounts amounts being flash-borrowed\\n     * @param modes Types of the debt to open if the flash loan is not returned:\\n     *   0 -> Don't open any debt, just revert if funds can't be transferred from the receiver\\n     *   1 -> Open debt at stable rate for the value of the amount flash-borrowed to the `onBehalfOf` address\\n     *   2 -> Open debt at variable rate for the value of the amount flash-borrowed to the `onBehalfOf` address\\n     * @param onBehalfOf The address  that will receive the debt in the case of using on `modes` 1 or 2\\n     * @param params Variadic packed params to pass to the receiver as extra information\\n     * @param referralCode Code used to register the integrator originating the operation, for potential rewards.\\n     *   0 if the action is executed directly by the user, without any middle-man\\n     **/\\n    function flashLoan(\\n        address receiverAddress,\\n        address[] calldata assets,\\n        uint256[] calldata amounts,\\n        uint256[] calldata modes,\\n        address onBehalfOf,\\n        bytes calldata params,\\n        uint16 referralCode\\n    ) external;\\n\\n    /**\\n     * @dev Returns the user account data across all the reserves\\n     * @param user The address of the user\\n     * @return totalCollateralETH the total collateral in ETH of the user\\n     * @return totalDebtETH the total debt in ETH of the user\\n     * @return availableBorrowsETH the borrowing power left of the user\\n     * @return currentLiquidationThreshold the liquidation threshold of the user\\n     * @return ltv the loan to value of the user\\n     * @return healthFactor the current health factor of the user\\n     **/\\n    function getUserAccountData(address user)\\n        external\\n        view\\n        returns (\\n            uint256 totalCollateralETH,\\n            uint256 totalDebtETH,\\n            uint256 availableBorrowsETH,\\n            uint256 currentLiquidationThreshold,\\n            uint256 ltv,\\n            uint256 healthFactor\\n        );\\n\\n    /**\\n     * @dev Returns the configuration of the reserve\\n     * @param asset The address of the underlying asset of the reserve\\n     * @return The configuration of the reserve\\n     **/\\n    function getConfiguration(address asset)\\n        external\\n        view\\n        returns (DataTypes.ReserveConfigurationMap memory);\\n\\n    /**\\n     * @dev Returns the configuration of the user across all the reserves\\n     * @param user The user address\\n     * @return The configuration of the user\\n     **/\\n    function getUserConfiguration(address user)\\n        external\\n        view\\n        returns (DataTypes.UserConfigurationMap memory);\\n\\n    /**\\n     * @dev Returns the normalized income normalized income of the reserve\\n     * @param asset The address of the underlying asset of the reserve\\n     * @return The reserve's normalized income\\n     */\\n    function getReserveNormalizedIncome(address asset)\\n        external\\n        view\\n        returns (uint256);\\n\\n    /**\\n     * @dev Returns the normalized variable debt per unit of asset\\n     * @param asset The address of the underlying asset of the reserve\\n     * @return The reserve normalized variable debt\\n     */\\n    function getReserveNormalizedVariableDebt(address asset)\\n        external\\n        view\\n        returns (uint256);\\n\\n    /**\\n     * @dev Returns the state and configuration of the reserve\\n     * @param asset The address of the underlying asset of the reserve\\n     * @return The state of the reserve\\n     **/\\n    function getReserveData(address asset)\\n        external\\n        view\\n        returns (DataTypes.ReserveData memory);\\n\\n    function finalizeTransfer(\\n        address asset,\\n        address from,\\n        address to,\\n        uint256 amount,\\n        uint256 balanceFromAfter,\\n        uint256 balanceToBefore\\n    ) external;\\n\\n    function getReservesList() external view returns (address[] memory);\\n\\n    function getAddressesProvider()\\n        external\\n        view\\n        returns (IAaveLendingPoolAddressesProvider);\\n\\n    function paused() external view returns (bool);\\n}\\n\",\"keccak256\":\"0x8fb5cf82d1c19d0c61151dfb8cf6f6c2a17a15b63600b75f359fe4e9e3acc23f\",\"license\":\"agpl-3.0\"},\"contracts/shared/interfaces/IAaveLendingPoolAddressesProvider.sol\":{\"content\":\"// SPDX-License-Identifier: agpl-3.0\\npragma solidity ^0.8.0;\\n\\n/**\\n * @title LendingPoolAddressesProvider contract\\n * @dev Main registry of addresses part of or connected to the protocol, including permissioned roles\\n * - Acting also as factory of proxies and admin of those, so with right to change its implementations\\n * - Owned by the Aave Governance\\n * @author Aave\\n **/\\ninterface IAaveLendingPoolAddressesProvider {\\n    function getMarketId() external view returns (string memory);\\n\\n    function getAddress(bytes32 id) external view returns (address);\\n\\n    function getLendingPool() external view returns (address);\\n\\n    function getPriceOracle() external view returns (address);\\n\\n    function getLendingRateOracle() external view returns (address);\\n}\\n\",\"keccak256\":\"0x9d21dbefac677da74786c27ad0fe1b148c00df63f7a2616d75c2b97c756007b3\",\"license\":\"agpl-3.0\"},\"contracts/shared/libraries/CacheLib.sol\":{\"content\":\"// SPDX-License-Identifier: MIT\\npragma solidity ^0.8.0;\\n\\nenum CacheType {\\n    Address,\\n    Uint,\\n    Int,\\n    Byte,\\n    Bool\\n}\\n\\n/**\\n * @notice This struct manages the cache of the library instance.\\n * @param addresses A mapping of address values mapped to cache keys in bytes.\\n * @param uints A mapping of uint values mapped to cache keys names in bytes.\\n * @param ints A mapping of int values mapped to cache keys names in bytes.\\n * @param bites A mapping of bytes values mapped to cache keys names in bytes.\\n * @param bools A mapping of bool values mapped to cache keys names in bytes.\\n */\\nstruct Cache {\\n    // Mapping of cache keys names to address values.\\n    mapping(bytes32 => address) addresses;\\n    // Mapping of cache keys names to uint256 values.\\n    mapping(bytes32 => uint256) uints;\\n    // Mapping of cache keys names to int256 values.\\n    mapping(bytes32 => int256) ints;\\n    // Mapping of cache keys names to bytes32 values.\\n    mapping(bytes32 => bytes32) bites;\\n    // Mapping of cache keys names to bool values.\\n    mapping(bytes32 => bool) bools;\\n}\\n\\nlibrary CacheLib {\\n    // The constant for the initialization check\\n    bytes32 private constant INITIALIZED = keccak256(\\\"Initialized\\\");\\n\\n    /**\\n     * @notice Initializes the cache instance.\\n     * @param cache The current cache\\n     */\\n    function initialize(Cache storage cache) internal {\\n        requireNotExists(cache);\\n        cache.bools[INITIALIZED] = true;\\n    }\\n\\n    /**\\n     * @notice Checks whether the current cache does not, throwing an error if it does.\\n     * @param cache The current cache\\n     */\\n    function requireNotExists(Cache storage cache) internal view {\\n        require(!exists(cache), \\\"CACHE_ALREADY_EXISTS\\\");\\n    }\\n\\n    /**\\n     * @notice Checks whether the current cache exists, throwing an error if the cache does not.\\n     * @param cache The current cache\\n     */\\n    function requireExists(Cache storage cache) internal view {\\n        require(exists(cache), \\\"CACHE_DOES_NOT_EXIST\\\");\\n    }\\n\\n    /**\\n     * @notice Tests whether the current cache exists or not.\\n     * @param cache The current cache.\\n     * @return bool True if the cache exists.\\n     */\\n    function exists(Cache storage cache) internal view returns (bool) {\\n        return cache.bools[INITIALIZED];\\n    }\\n\\n    /**\\n     * @notice it updates the cache with a key, value and cache type\\n     * @param cache cache to update\\n     * @param key the memory reference to the value in bytes32\\n     * @param value the value to update at the key\\n     * @param cacheType the enum type of cache to update\\n     */\\n    function update(\\n        Cache storage cache,\\n        bytes32 key,\\n        bytes32 value,\\n        CacheType cacheType\\n    ) internal {\\n        requireExists(cache);\\n\\n        assembly {\\n            mstore(0, value)\\n        }\\n        if (cacheType == CacheType.Address) {\\n            address addr;\\n            assembly {\\n                addr := mload(0)\\n            }\\n            cache.addresses[key] = addr;\\n        } else if (cacheType == CacheType.Uint) {\\n            uint256 ui;\\n            assembly {\\n                ui := mload(0)\\n            }\\n            cache.uints[key] = ui;\\n        } else if (cacheType == CacheType.Int) {\\n            int256 i;\\n            assembly {\\n                i := mload(0)\\n            }\\n            cache.ints[key] = i;\\n        } else if (cacheType == CacheType.Byte) {\\n            cache.bites[key] = value;\\n        } else if (cacheType == CacheType.Bool) {\\n            bool b;\\n            assembly {\\n                b := mload(0)\\n            }\\n            cache.bools[key] = b;\\n        }\\n    }\\n\\n    /**\\n     * @notice it deletes the cache values at the specified key\\n     * @param cache the cache to delete keys from\\n     * @param keysToClear the keys to delete\\n     * @param keyTypes the types of keys to target different parts of the cache\\n     */\\n    function clearCache(\\n        Cache storage cache,\\n        bytes32[5] memory keysToClear,\\n        CacheType[5] memory keyTypes\\n    ) internal {\\n        requireExists(cache);\\n        require(\\n            keysToClear.length == keyTypes.length,\\n            \\\"ARRAY_LENGTHS_MISMATCH\\\"\\n        );\\n        for (uint256 i; i <= keysToClear.length; i++) {\\n            if (keyTypes[i] == CacheType.Address) {\\n                delete cache.addresses[keysToClear[i]];\\n            } else if (keyTypes[i] == CacheType.Uint) {\\n                delete cache.uints[keysToClear[i]];\\n            } else if (keyTypes[i] == CacheType.Int) {\\n                delete cache.ints[keysToClear[i]];\\n            } else if (keyTypes[i] == CacheType.Byte) {\\n                delete cache.bites[keysToClear[i]];\\n            } else if (keyTypes[i] == CacheType.Bool) {\\n                delete cache.bools[keysToClear[i]];\\n            }\\n        }\\n    }\\n}\\n\",\"keccak256\":\"0xd193e1c296d6fdc10400cb98273c5c705fdb7f0d48dc08e482acdb066e6ec6c2\",\"license\":\"MIT\"},\"contracts/shared/libraries/ENSLib.sol\":{\"content\":\"// SPDX-License-Identifier: MIT\\npragma solidity ^0.8.0;\\n\\nimport {\\n    ENSRegistry\\n} from \\\"@ensdomains/ens-contracts/contracts/registry/ENSRegistry.sol\\\";\\nimport {\\n    PublicResolver\\n} from \\\"@ensdomains/ens-contracts/contracts/resolvers/PublicResolver.sol\\\";\\n\\nlibrary ENS {\\n    bytes32 public constant ETH_NAMEHASH =\\n        0x93cdeb708b7545dc668eb9280176169d1c33cfd8ed6f04690a0bcc88a93fc4ae;\\n\\n    function registryResolve(address registry, bytes32 node)\\n        internal\\n        view\\n        returns (address)\\n    {\\n        return resolve(resolver(registry, node), node);\\n    }\\n\\n    function resolve(address resolver, bytes32 node)\\n        internal\\n        view\\n        returns (address)\\n    {\\n        return PublicResolver(resolver).addr(node);\\n    }\\n\\n    function resolver(address registry, bytes32 node)\\n        internal\\n        view\\n        returns (address)\\n    {\\n        return ENSRegistry(registry).resolver(node);\\n    }\\n\\n    function subnode(string memory name, bytes32 node)\\n        internal\\n        pure\\n        returns (bytes32 namehash_)\\n    {\\n        namehash_ = subnode(keccak256(abi.encodePacked(name)), node);\\n    }\\n\\n    function subnode(bytes32 label, bytes32 node)\\n        internal\\n        pure\\n        returns (bytes32 namehash_)\\n    {\\n        namehash_ = keccak256(abi.encodePacked(node, label));\\n    }\\n}\\n\",\"keccak256\":\"0xe18af3624d5ee7bdf06e9b0c85439945a3bd162f35afe7d5a0ec9305e8ebaf49\",\"license\":\"MIT\"},\"contracts/shared/libraries/NumbersLib.sol\":{\"content\":\"// SPDX-License-Identifier: MIT\\npragma solidity ^0.8.0;\\n\\n// Libraries\\nimport { SafeCast } from \\\"@openzeppelin/contracts/utils/math/SafeCast.sol\\\";\\n\\n/**\\n * @dev Utility library for uint256 numbers\\n *\\n * @author develop@teller.finance\\n */\\nlibrary NumbersLib {\\n    /**\\n     * @dev It represents 100% with 2 decimal places.\\n     */\\n    uint256 internal constant ONE_HUNDRED_PERCENT = 10000;\\n\\n    /**\\n     * @notice Returns a percentage value of a number.\\n     * @param self The number to get a percentage of.\\n     * @param percentage The percentage value to calculate with 2 decimal places (10000 = 100%).\\n     */\\n    function percent(uint256 self, uint16 percentage)\\n        internal\\n        pure\\n        returns (uint256)\\n    {\\n        return (self * uint256(percentage)) / ONE_HUNDRED_PERCENT;\\n    }\\n\\n    function percent(int256 self, uint256 percentage)\\n        internal\\n        pure\\n        returns (int256)\\n    {\\n        return (self * int256(percentage)) / int256(ONE_HUNDRED_PERCENT);\\n    }\\n\\n    /**\\n     * @notice it returns the absolute number of a specified parameter\\n     * @param self the number to be returned in it's absolute\\n     * @return the absolute number\\n     */\\n    function abs(int256 self) internal pure returns (uint256) {\\n        return self >= 0 ? uint256(self) : uint256(-1 * self);\\n    }\\n\\n    /**\\n     * @notice Returns a ratio percentage of {num1} to {num2}.\\n     * @param num1 The number used to get the ratio for.\\n     * @param num2 The number used to get the ratio from.\\n     * @return Ratio percentage with 2 decimal places (10000 = 100%).\\n     */\\n    function ratioOf(uint256 num1, uint256 num2)\\n        internal\\n        pure\\n        returns (uint16)\\n    {\\n        return\\n            num2 == 0\\n                ? 0\\n                : SafeCast.toUint16((num1 * ONE_HUNDRED_PERCENT) / num2);\\n    }\\n}\\n\",\"keccak256\":\"0x863cbfc9fe609554ca1bd86af2193454580ce7e7a68ea0cc0f7638111c0e7a76\",\"license\":\"MIT\"},\"contracts/shared/libraries/NumbersList.sol\":{\"content\":\"// SPDX-License-Identifier: MIT\\npragma solidity ^0.8.0;\\n\\nimport \\\"@openzeppelin/contracts/utils/math/SafeMath.sol\\\";\\nimport \\\"./NumbersLib.sol\\\";\\n\\n/**\\n * @dev Utility library of inline functions on NumbersList.Values\\n *\\n * @author develop@teller.finance\\n */\\nlibrary NumbersList {\\n    using NumbersLib for uint256;\\n\\n    // Holds values to calculate the threshold of a list of numbers\\n    struct Values {\\n        uint256 count; // The total number of numbers added\\n        uint256 max; // The maximum number that was added\\n        uint256 min; // The minimum number that was added\\n        uint256 sum; // The total sum of the numbers that were added\\n    }\\n\\n    /**\\n     * @dev Add to the sum while keeping track of min and max values\\n     * @param self The Value this function was called on\\n     * @param newValue Number to increment sum by\\n     */\\n    function addValue(Values memory self, uint256 newValue) internal pure {\\n        if (self.max < newValue) {\\n            self.max = newValue;\\n        }\\n        if (self.min > newValue || self.count == 0) {\\n            self.min = newValue;\\n        }\\n        self.sum = self.sum + (newValue);\\n        self.count = self.count + 1;\\n    }\\n\\n    /**\\n     * @param self The Value this function was called on\\n     * @return the number of times the sum has updated\\n     */\\n    function valuesCount(Values memory self) internal pure returns (uint256) {\\n        return self.count;\\n    }\\n\\n    /**\\n     * @dev Checks if the sum has been changed\\n     * @param self The Value this function was called on\\n     * @return boolean\\n     */\\n    function isEmpty(Values memory self) internal pure returns (bool) {\\n        return valuesCount(self) == 0;\\n    }\\n\\n    /**\\n     * @param self The Value this function was called on\\n     * @return the average number that was used to calculate the sum\\n     */\\n    function getAverage(Values memory self) internal pure returns (uint256) {\\n        return isEmpty(self) ? 0 : self.sum / (valuesCount(self));\\n    }\\n\\n    /**\\n     * @dev Checks if the min and max numbers are within the acceptable tolerance\\n     * @param self The Value this function was called on\\n     * @param tolerancePercentage Acceptable tolerance percentage as a whole number\\n     * The percentage should be entered with 2 decimal places. e.g. 2.5% should be entered as 250.\\n     * @return boolean\\n     */\\n    function isWithinTolerance(Values memory self, uint16 tolerancePercentage)\\n        internal\\n        pure\\n        returns (bool)\\n    {\\n        if (isEmpty(self)) {\\n            return false;\\n        }\\n        uint256 average = getAverage(self);\\n        uint256 toleranceAmount = average.percent(tolerancePercentage);\\n\\n        uint256 minTolerance = average - toleranceAmount;\\n        if (self.min < minTolerance) {\\n            return false;\\n        }\\n\\n        uint256 maxTolerance = average + toleranceAmount;\\n        if (self.max > maxTolerance) {\\n            return false;\\n        }\\n        return true;\\n    }\\n}\\n\",\"keccak256\":\"0xfd64d3765eb776aaebf1c6eeb8af33ad4a9bd89bad676300542086c1fefd44da\",\"license\":\"MIT\"},\"contracts/shared/libraries/StringsLib.sol\":{\"content\":\"// SPDX-License-Identifier: MIT\\npragma solidity ^0.8.0;\\n\\n/**\\n * Strings Library\\n *\\n * In summary this is a simple library of string functions which make simple\\n * string operations less tedious in solidity.\\n *\\n * Please be aware these functions can be quite gas heavy so use them only when\\n * necessary not to clog the blockchain with expensive transactions.\\n *\\n * @author James Lockhart <james@n3tw0rk.co.uk>\\n */\\nlibrary StringsLib {\\n    /**\\n     * Concat\\n     *\\n     * Appends two strings together and returns a new value\\n     *\\n     * @param _base When being used for a data type this is the extended object\\n     *              otherwise this is the string which will be the concatenated\\n     *              prefix\\n     * @param _value The value to be the concatenated suffix\\n     * @return string The resulting string from combining the base and value\\n     */\\n    function concat(string memory _base, string memory _value)\\n        internal\\n        pure\\n        returns (string memory)\\n    {\\n        return string(abi.encodePacked(_base, _value));\\n    }\\n\\n    /**\\n     * Index Of\\n     *\\n     * Locates and returns the position of a character within a string\\n     *\\n     * @param _base When being used for a data type this is the extended object\\n     *              otherwise this is the string acting as the haystack to be\\n     *              searched\\n     * @param _value The needle to search for, at present this is currently\\n     *               limited to one character\\n     * @return int The position of the needle starting from 0 and returning -1\\n     *             in the case of no matches found\\n     */\\n    function indexOf(string memory _base, string memory _value)\\n        internal\\n        pure\\n        returns (int256)\\n    {\\n        return _indexOf(_base, _value, 0);\\n    }\\n\\n    /**\\n     * Index Of\\n     *\\n     * Locates and returns the position of a character within a string starting\\n     * from a defined offset\\n     *\\n     * @param _base When being used for a data type this is the extended object\\n     *              otherwise this is the string acting as the haystack to be\\n     *              searched\\n     * @param _value The needle to search for, at present this is currently\\n     *               limited to one character\\n     * @param _offset The starting point to start searching from which can start\\n     *                from 0, but must not exceed the length of the string\\n     * @return int The position of the needle starting from 0 and returning -1\\n     *             in the case of no matches found\\n     */\\n    function _indexOf(\\n        string memory _base,\\n        string memory _value,\\n        uint256 _offset\\n    ) internal pure returns (int256) {\\n        bytes memory _baseBytes = bytes(_base);\\n        bytes memory _valueBytes = bytes(_value);\\n\\n        assert(_valueBytes.length == 1);\\n\\n        for (uint256 i = _offset; i < _baseBytes.length; i++) {\\n            if (_baseBytes[i] == _valueBytes[0]) {\\n                return int256(i);\\n            }\\n        }\\n\\n        return -1;\\n    }\\n\\n    /**\\n     * Length\\n     *\\n     * Returns the length of the specified string\\n     *\\n     * @param _base When being used for a data type this is the extended object\\n     *              otherwise this is the string to be measured\\n     * @return uint The length of the passed string\\n     */\\n    function length(string memory _base) internal pure returns (uint256) {\\n        bytes memory _baseBytes = bytes(_base);\\n        return _baseBytes.length;\\n    }\\n\\n    /**\\n     * Sub String\\n     *\\n     * Extracts the beginning part of a string based on the desired length\\n     *\\n     * @param _base When being used for a data type this is the extended object\\n     *              otherwise this is the string that will be used for\\n     *              extracting the sub string from\\n     * @param _length The length of the sub string to be extracted from the base\\n     * @return string The extracted sub string\\n     */\\n    function substring(string memory _base, int256 _length)\\n        internal\\n        pure\\n        returns (string memory)\\n    {\\n        return _substring(_base, _length, 0);\\n    }\\n\\n    /**\\n     * Sub String\\n     *\\n     * Extracts the part of a string based on the desired length and offset. The\\n     * offset and length must not exceed the lenth of the base string.\\n     *\\n     * @param _base When being used for a data type this is the extended object\\n     *              otherwise this is the string that will be used for\\n     *              extracting the sub string from\\n     * @param _length The length of the sub string to be extracted from the base\\n     * @param _offset The starting point to extract the sub string from\\n     * @return string The extracted sub string\\n     */\\n    function _substring(\\n        string memory _base,\\n        int256 _length,\\n        int256 _offset\\n    ) internal pure returns (string memory) {\\n        bytes memory _baseBytes = bytes(_base);\\n\\n        assert(uint256(_offset + _length) <= _baseBytes.length);\\n\\n        string memory _tmp = new string(uint256(_length));\\n        bytes memory _tmpBytes = bytes(_tmp);\\n\\n        uint256 j = 0;\\n        for (\\n            uint256 i = uint256(_offset);\\n            i < uint256(_offset + _length);\\n            i++\\n        ) {\\n            _tmpBytes[j++] = _baseBytes[i];\\n        }\\n\\n        return string(_tmpBytes);\\n    }\\n\\n    /**\\n     * String Split (Very high gas cost)\\n     *\\n     * Splits a string into an array of strings based off the delimiter value.\\n     * Please note this can be quite a gas expensive function due to the use of\\n     * storage so only use if really required.\\n     *\\n     * @param _base When being used for a data type this is the extended object\\n     *               otherwise this is the string value to be split.\\n     * @param _value The delimiter to split the string on which must be a single\\n     *               character\\n     * @return splitArr An array of values split based off the delimiter, but\\n     *                  do not container the delimiter.\\n     */\\n    function split(string memory _base, string memory _value)\\n        internal\\n        pure\\n        returns (string[] memory splitArr)\\n    {\\n        bytes memory _baseBytes = bytes(_base);\\n\\n        uint256 _offset = 0;\\n        uint256 _splitsCount = 1;\\n        while (_offset < _baseBytes.length - 1) {\\n            int256 _limit = _indexOf(_base, _value, _offset);\\n            if (_limit == -1) break;\\n            else {\\n                _splitsCount++;\\n                _offset = uint256(_limit) + 1;\\n            }\\n        }\\n\\n        splitArr = new string[](_splitsCount);\\n\\n        _offset = 0;\\n        _splitsCount = 0;\\n        while (_offset < _baseBytes.length - 1) {\\n            int256 _limit = _indexOf(_base, _value, _offset);\\n            if (_limit == -1) {\\n                _limit = int256(_baseBytes.length);\\n            }\\n\\n            string memory _tmp = new string(uint256(_limit) - _offset);\\n            bytes memory _tmpBytes = bytes(_tmp);\\n\\n            uint256 j = 0;\\n            for (uint256 i = _offset; i < uint256(_limit); i++) {\\n                _tmpBytes[j++] = _baseBytes[i];\\n            }\\n            _offset = uint256(_limit) + 1;\\n            splitArr[_splitsCount++] = string(_tmpBytes);\\n        }\\n        return splitArr;\\n    }\\n\\n    /**\\n     * Compare To\\n     *\\n     * Compares the characters of two strings, to ensure that they have an\\n     * identical footprint\\n     *\\n     * @param _base When being used for a data type this is the extended object\\n     *               otherwise this is the string base to compare against\\n     * @param _value The string the base is being compared to\\n     * @return bool Simply notates if the two string have an equivalent\\n     */\\n    function compareTo(string memory _base, string memory _value)\\n        internal\\n        pure\\n        returns (bool)\\n    {\\n        bytes memory _baseBytes = bytes(_base);\\n        bytes memory _valueBytes = bytes(_value);\\n\\n        if (_baseBytes.length != _valueBytes.length) {\\n            return false;\\n        }\\n\\n        for (uint256 i = 0; i < _baseBytes.length; i++) {\\n            if (_baseBytes[i] != _valueBytes[i]) {\\n                return false;\\n            }\\n        }\\n\\n        return true;\\n    }\\n\\n    /**\\n     * Compare To Ignore Case (High gas cost)\\n     *\\n     * Compares the characters of two strings, converting them to the same case\\n     * where applicable to alphabetic characters to distinguish if the values\\n     * match.\\n     *\\n     * @param _base When being used for a data type this is the extended object\\n     *               otherwise this is the string base to compare against\\n     * @param _value The string the base is being compared to\\n     * @return bool Simply notates if the two string have an equivalent value\\n     *              discarding case\\n     */\\n    function compareToIgnoreCase(string memory _base, string memory _value)\\n        internal\\n        pure\\n        returns (bool)\\n    {\\n        bytes memory _baseBytes = bytes(_base);\\n        bytes memory _valueBytes = bytes(_value);\\n\\n        if (_baseBytes.length != _valueBytes.length) {\\n            return false;\\n        }\\n\\n        for (uint256 i = 0; i < _baseBytes.length; i++) {\\n            if (\\n                _baseBytes[i] != _valueBytes[i] &&\\n                _upper(_baseBytes[i]) != _upper(_valueBytes[i])\\n            ) {\\n                return false;\\n            }\\n        }\\n\\n        return true;\\n    }\\n\\n    /**\\n     * Upper\\n     *\\n     * Converts all the values of a string to their corresponding upper case\\n     * value.\\n     *\\n     * @param _base When being used for a data type this is the extended object\\n     *              otherwise this is the string base to convert to upper case\\n     * @return string\\n     */\\n    function upper(string memory _base) internal pure returns (string memory) {\\n        bytes memory _baseBytes = bytes(_base);\\n        for (uint256 i = 0; i < _baseBytes.length; i++) {\\n            _baseBytes[i] = _upper(_baseBytes[i]);\\n        }\\n        return string(_baseBytes);\\n    }\\n\\n    /**\\n     * Lower\\n     *\\n     * Converts all the values of a string to their corresponding lower case\\n     * value.\\n     *\\n     * @param _base When being used for a data type this is the extended object\\n     *              otherwise this is the string base to convert to lower case\\n     * @return string\\n     */\\n    function lower(string memory _base) internal pure returns (string memory) {\\n        bytes memory _baseBytes = bytes(_base);\\n        for (uint256 i = 0; i < _baseBytes.length; i++) {\\n            _baseBytes[i] = _lower(_baseBytes[i]);\\n        }\\n        return string(_baseBytes);\\n    }\\n\\n    /**\\n     * Upper\\n     *\\n     * Convert an alphabetic character to upper case and return the original\\n     * value when not alphabetic\\n     *\\n     * @param _b1 The byte to be converted to upper case\\n     * @return bytes1 The converted value if the passed value was alphabetic\\n     *                and in a lower case otherwise returns the original value\\n     */\\n    function _upper(bytes1 _b1) private pure returns (bytes1) {\\n        if (_b1 >= 0x61 && _b1 <= 0x7A) {\\n            return bytes1(uint8(_b1) - 32);\\n        }\\n\\n        return _b1;\\n    }\\n\\n    /**\\n     * Lower\\n     *\\n     * Convert an alphabetic character to lower case and return the original\\n     * value when not alphabetic\\n     *\\n     * @param _b1 The byte to be converted to lower case\\n     * @return bytes1 The converted value if the passed value was alphabetic\\n     *                and in a upper case otherwise returns the original value\\n     */\\n    function _lower(bytes1 _b1) private pure returns (bytes1) {\\n        if (_b1 >= 0x41 && _b1 <= 0x5A) {\\n            return bytes1(uint8(_b1) + 32);\\n        }\\n\\n        return _b1;\\n    }\\n}\\n\",\"keccak256\":\"0x1d85cf593c0c2b92fed1f1db387d09e393e392c63ba905a4f66ac88789acba59\",\"license\":\"MIT\"},\"contracts/shared/proxy/beacon/InitializeableBeaconProxy.sol\":{\"content\":\"// SPDX-License-Identifier: MIT\\npragma solidity ^0.8.0;\\n\\nimport \\\"@openzeppelin/contracts/proxy/beacon/IBeacon.sol\\\";\\nimport \\\"@openzeppelin/contracts/proxy/Proxy.sol\\\";\\nimport \\\"@openzeppelin/contracts/utils/Address.sol\\\";\\n\\n/**\\n * @dev This contract implements a proxy that gets the implementation address for each call from a {UpgradeableBeacon}.\\n *\\n * The beacon address is stored in storage slot `uint256(keccak256('eip1967.proxy.beacon')) - 1`, so that it doesn't\\n * conflict with the storage layout of the implementation behind the proxy.\\n *\\n * _Available since v3.4._\\n */\\ncontract InitializeableBeaconProxy is Proxy {\\n    /**\\n     * @dev The storage slot of the UpgradeableBeacon contract which defines the implementation for this proxy.\\n     * This is bytes32(uint256(keccak256('eip1967.proxy.beacon')) - 1)) and is validated in the constructor.\\n     */\\n    bytes32 private constant _BEACON_SLOT =\\n        0xa3f0ad74e5423aebfd80d3ef4346578335a9a72aeaee59ff6cb3582b35133d50;\\n\\n    /**\\n     * @notice This proxy is an implementation of a BeaconProxy and is meant to be cloned using EIP 1167. Therefore,\\n     *  once this proxy is deployed, we immediately initialize it so that it cannot be initialized by an external party.\\n     *  The UpgradeableBeaconFactory should clone this proxy and then initialize the clone in the same call.\\n     */\\n    constructor() {\\n        _setBeacon(address(1), \\\"\\\");\\n    }\\n\\n    /**\\n     * @dev Initializes the proxy with `beacon`.\\n     *\\n     * If `data` is nonempty, it's used as data in a delegate call to the implementation returned by the beacon. This\\n     * will typically be an encoded function call, and allows initializating the storage of the proxy like a Solidity\\n     * constructor.\\n     *\\n     * Requirements:\\n     *\\n     * - `beacon` must be a contract with the interface {IBeacon}.\\n     */\\n    function initialize(address beacon, bytes memory data) external payable {\\n        assert(\\n            _BEACON_SLOT ==\\n                bytes32(uint256(keccak256(\\\"eip1967.proxy.beacon\\\")) - 1)\\n        );\\n        require(_beacon() == address(0), \\\"Beacon: already initialized\\\");\\n\\n        _setBeacon(beacon, data);\\n    }\\n\\n    /**\\n     * @dev Returns the current beacon address.\\n     */\\n    function _beacon() internal view virtual returns (address beacon) {\\n        bytes32 slot = _BEACON_SLOT;\\n        // solhint-disable-next-line no-inline-assembly\\n        assembly {\\n            beacon := sload(slot)\\n        }\\n    }\\n\\n    /**\\n     * @dev Returns the current implementation address of the associated beacon.\\n     */\\n    function _implementation()\\n        internal\\n        view\\n        virtual\\n        override\\n        returns (address)\\n    {\\n        return IBeacon(_beacon()).implementation();\\n    }\\n\\n    /**\\n     * @dev Changes the proxy to use a new beacon.\\n     *\\n     * If `data` is nonempty, it's used as data in a delegate call to the implementation returned by the beacon.\\n     *\\n     * Requirements:\\n     *\\n     * - `beacon` must be a contract.\\n     * - The implementation returned by `beacon` must be a contract.\\n     */\\n    function _setBeacon(address beacon, bytes memory data) internal virtual {\\n        bytes32 slot = _BEACON_SLOT;\\n\\n        // solhint-disable-next-line no-inline-assembly\\n        assembly {\\n            sstore(slot, beacon)\\n        }\\n\\n        if (data.length > 0) {\\n            Address.functionDelegateCall(\\n                _implementation(),\\n                data,\\n                \\\"BeaconProxy: function call failed\\\"\\n            );\\n        }\\n    }\\n\\n    receive() external payable override {\\n        // Needed to receive ETH without data\\n        // OZ Proxy contract calls the _fallback() on receive and tries to delegatecall which fails\\n    }\\n}\\n\",\"keccak256\":\"0x8cf5e13093d7fbd9e3b9f7193ee81dc3b510b9cbcfc4386125a8665e2591dedf\",\"license\":\"MIT\"},\"contracts/shared/proxy/beacon/UpgradeableBeaconFactory.sol\":{\"content\":\"// SPDX-License-Identifier: MIT\\npragma solidity ^0.8.0;\\n\\nimport \\\"@openzeppelin/contracts/proxy/Clones.sol\\\";\\nimport \\\"@openzeppelin/contracts/proxy/beacon/IBeacon.sol\\\";\\nimport \\\"@openzeppelin/contracts/access/Ownable.sol\\\";\\nimport \\\"@openzeppelin/contracts/utils/Address.sol\\\";\\nimport \\\"./InitializeableBeaconProxy.sol\\\";\\n\\n/**\\n * @dev This contract is used in conjunction with one or more instances of {BeaconProxy} to determine their\\n * implementation contract, which is where they will delegate all function calls.\\n *\\n * An owner is able to change the implementation the beacon points to, thus upgrading the proxies that use this beacon.\\n */\\ncontract UpgradeableBeaconFactory is IBeacon, Ownable {\\n    address private _implementation;\\n    InitializeableBeaconProxy public proxyAddress;\\n\\n    /**\\n     * @dev Emitted when the implementation returned by the beacon is changed.\\n     */\\n    event Upgraded(address indexed implementation);\\n\\n    /**\\n     * @dev Sets the address of the initial implementation, and the deployer account as the owner who can upgrade the\\n     * beacon.\\n     */\\n    constructor(address payable proxyAddress_, address implementation_) {\\n        require(proxyAddress_ != address(0) && implementation_ != address(0));\\n        proxyAddress = InitializeableBeaconProxy(proxyAddress_);\\n        _setImplementation(implementation_);\\n    }\\n\\n    /**\\n     * @dev Returns the current implementation address.\\n     */\\n    function implementation() public view virtual override returns (address) {\\n        return _implementation;\\n    }\\n\\n    /**\\n     * @notice it clones the proxy contract at an address\\n     * @param initData the data to initialize after the proxy is cloned\\n     * @return proxy_ the cloned proxy\\n     */\\n    function cloneProxy(bytes memory initData)\\n        external\\n        returns (address payable proxy_)\\n    {\\n        proxy_ = payable(Clones.clone(address(proxyAddress)));\\n        InitializeableBeaconProxy(proxy_).initialize(address(this), initData);\\n    }\\n\\n    /**\\n     * @dev Upgrades the beacon to a new implementation.\\n     *\\n     * Emits an {Upgraded} event.\\n     *\\n     * Requirements:\\n     *\\n     * - msg.sender must be the owner of the contract.\\n     * - `newImplementation` must be a contract.\\n     */\\n    function upgradeTo(address newImplementation) public virtual onlyOwner {\\n        _setImplementation(newImplementation);\\n        emit Upgraded(newImplementation);\\n    }\\n\\n    /**\\n     * @dev Sets the implementation contract address for this beacon\\n     *\\n     * Requirements:\\n     *\\n     * - `newImplementation` must be a contract.\\n     */\\n    function _setImplementation(address newImplementation) private {\\n        require(\\n            Address.isContract(newImplementation),\\n            \\\"UpgradeableBeacon: implementation is not a contract\\\"\\n        );\\n        _implementation = newImplementation;\\n    }\\n}\\n\",\"keccak256\":\"0xd054b02caa8425757712a8a84fd2922989461b37c7350de9d07b724757af9f0f\",\"license\":\"MIT\"},\"contracts/shared/roles.sol\":{\"content\":\"// SPDX-License-Identifier: MIT\\npragma solidity ^0.8.0;\\n\\n/**\\n * @dev the roles for the user to assign, revoke and check in functions\\n */\\nbytes32 constant ADMIN = keccak256(\\\"ADMIN\\\");\\nbytes32 constant PAUSER = keccak256(\\\"PAUSER\\\");\\nbytes32 constant AUTHORIZED = keccak256(\\\"AUTHORIZED\\\");\\n\",\"keccak256\":\"0x711c08f4fb19dd5c1c76acf9bd08ac1dcd9df9ce143f5195c043d56d4650c8da\",\"license\":\"MIT\"},\"contracts/storage/app.sol\":{\"content\":\"// SPDX-License-Identifier: MIT\\npragma solidity ^0.8.0;\\n\\n// Contracts\\nimport { TellerNFT } from \\\"../nft/TellerNFT.sol\\\";\\nimport { PriceAggregator } from \\\"../price-aggregator/PriceAggregator.sol\\\";\\n\\n// Libraries\\nimport {\\n    PlatformSetting\\n} from \\\"../settings/platform/libraries/PlatformSettingsLib.sol\\\";\\nimport { Cache } from \\\"../shared/libraries/CacheLib.sol\\\";\\nimport {\\n    UpgradeableBeaconFactory\\n} from \\\"../shared/proxy/beacon/UpgradeableBeaconFactory.sol\\\";\\n\\nstruct AppStorage {\\n    // is it initialized\\n    bool initialized;\\n    // is it platform restricted\\n    bool platformRestricted;\\n    // mapping between contract IDs and if they're paused\\n    mapping(bytes32 => bool) paused;\\n    //p\\n    mapping(bytes32 => PlatformSetting) platformSettings;\\n    mapping(address => Cache) assetSettings;\\n    mapping(string => address) _assetAddresses; // DEPRECATED\\n    mapping(address => bool) _cTokenRegistry; // DEPRECATED\\n    TellerNFT nft;\\n    UpgradeableBeaconFactory loansEscrowBeacon;\\n    UpgradeableBeaconFactory collateralEscrowBeacon;\\n    address nftLiquidationController;\\n    UpgradeableBeaconFactory tTokenBeacon;\\n    address wrappedNativeToken;\\n    PriceAggregator priceAggregator;\\n}\\n\\nlibrary AppStorageLib {\\n    function store() internal pure returns (AppStorage storage s) {\\n        assembly {\\n            s.slot := 0\\n        }\\n    }\\n}\\n\",\"keccak256\":\"0xba6e933d0af72ff1b3b91789e7c9409083d2bfc1001b58bed02dd90fd0a4d2d7\",\"license\":\"MIT\"},\"contracts/storage/market.sol\":{\"content\":\"// SPDX-License-Identifier: MIT\\npragma solidity ^0.8.0;\\n\\n// Libraries\\nimport { Counters } from \\\"@openzeppelin/contracts/utils/Counters.sol\\\";\\nimport {\\n    EnumerableSet\\n} from \\\"@openzeppelin/contracts/utils/structs/EnumerableSet.sol\\\";\\nimport \\\"../shared/libraries/NumbersList.sol\\\";\\n\\n// Interfaces\\nimport { ILoansEscrow } from \\\"../escrow/escrow/ILoansEscrow.sol\\\";\\nimport { ICollateralEscrow } from \\\"../market/collateral/ICollateralEscrow.sol\\\";\\nimport { ITToken } from \\\"../lending/ttoken/ITToken.sol\\\";\\n\\n// DEPRECATED\\nstruct LoanTerms {\\n    // Max size the loan max be taken out with\\n    uint256 maxLoanAmount;\\n    // The timestamp at which the loan terms expire, after which if the loan is not yet active, cannot be taken out\\n    uint32 termsExpiry;\\n}\\n\\nenum LoanStatus {\\n    NonExistent,\\n    TermsSet,\\n    Active,\\n    Closed,\\n    Liquidated\\n}\\n\\nstruct Loan {\\n    // Account that owns the loan\\n    address payable borrower;\\n    // The asset lent out for the loan\\n    address lendingToken;\\n    // The token used as collateral for the loan\\n    address collateralToken;\\n    // The total amount of the loan size taken out\\n    uint256 borrowedAmount;\\n    // The id of the loan for internal tracking\\n    uint128 id;\\n    // How long in seconds until the loan must be repaid\\n    uint32 duration;\\n    // The timestamp at which the loan became active\\n    uint32 loanStartTime;\\n    // The interest rate given for repaying the loan\\n    uint16 interestRate;\\n    // Ratio used to determine amount of collateral required based on the collateral asset price\\n    uint16 collateralRatio;\\n    // The status of the loan\\n    LoanStatus status;\\n}\\n\\nstruct LoanDebt {\\n    // The total amount of the loan taken out by the borrower, reduces on loan repayments\\n    uint256 principalOwed;\\n    // The total interest owed by the borrower for the loan, reduces on loan repayments\\n    uint256 interestOwed;\\n}\\n\\nstruct LoanRequest {\\n    LoanUserRequest request;\\n    LoanConsensusResponse[] responses;\\n}\\n\\n/**\\n * @notice Borrower request object to take out a loan\\n * @param borrower The wallet address of the borrower\\n * @param assetAddress The address of the asset for the requested loan\\n * @param amount The amount of tokens requested by the borrower for the loan\\n * @param requestNonce The nonce of the borrower wallet address required for authentication\\n * @param duration The length of time in seconds that the loan has been requested for\\n * @param requestTime The timestamp at which the loan was requested\\n */\\nstruct LoanUserRequest {\\n    address payable borrower;\\n    address assetAddress;\\n    uint256 amount;\\n    uint32 requestNonce;\\n    uint32 duration;\\n    uint32 requestTime;\\n}\\n\\n/**\\n * @notice Borrower response object to take out a loan\\n * @param signer The wallet address of the signer validating the interest request of the lender\\n * @param assetAddress The address of the asset for the requested loan\\n * @param maxLoanAmount The largest amount of tokens that can be taken out in the loan by the borrower\\n * @param responseTime The timestamp at which the response was sent\\n * @param interestRate The signed interest rate generated by the signer's Credit Risk Algorithm (CRA)\\n * @param collateralRatio The ratio of collateral to loan amount that is generated by the signer's Credit Risk Algorithm (CRA)\\n * @param signature The signature generated by the signer in the format of the above Signature struct\\n */\\nstruct LoanConsensusResponse {\\n    address signer;\\n    address assetAddress;\\n    uint256 maxLoanAmount;\\n    uint32 responseTime;\\n    uint16 interestRate;\\n    uint16 collateralRatio;\\n    Signature signature;\\n}\\n\\n/**\\n * @notice Represents a user signature\\n * @param v The recovery identifier represented by the last byte of a ECDSA signature as an int\\n * @param r The random point x-coordinate of the signature respresented by the first 32 bytes of the generated ECDSA signature\\n * @param s The signature proof represented by the second 32 bytes of the generated ECDSA signature\\n */\\nstruct Signature {\\n    uint8 v;\\n    bytes32 r;\\n    bytes32 s;\\n}\\n\\nstruct MarketStorage {\\n    // Holds the index for the next loan ID\\n    Counters.Counter loanIDCounter;\\n    // Maps loanIDs to loan data\\n    mapping(uint256 => Loan) loans;\\n    // Maps loanID to loan debt (total owed left)\\n    mapping(uint256 => LoanDebt) loanDebt;\\n    // Maps loanID to loan terms\\n    mapping(uint256 => LoanTerms) _loanTerms; // DEPRECATED: DO NOT REMOVE\\n    // Maps loanIDs to escrow address to list of held tokens\\n    mapping(uint256 => ILoansEscrow) loanEscrows;\\n    // Maps loanIDs to list of tokens owned by a loan escrow\\n    mapping(uint256 => EnumerableSet.AddressSet) escrowTokens;\\n    // Maps collateral token address to a LoanCollateralEscrow that hold collateral funds\\n    mapping(address => ICollateralEscrow) collateralEscrows;\\n    // Maps accounts to owned loan IDs\\n    mapping(address => uint128[]) borrowerLoans;\\n    // Maps lending token to overall amount of interest collected from loans\\n    mapping(address => ITToken) tTokens;\\n    // Maps lending token to list of signer addresses who are only ones allowed to verify loan requests\\n    mapping(address => EnumerableSet.AddressSet) signers;\\n    // Maps lending token to list of allowed collateral tokens\\n    mapping(address => EnumerableSet.AddressSet) collateralTokens;\\n}\\n\\nbytes32 constant MARKET_STORAGE_POS = keccak256(\\\"teller.market.storage\\\");\\n\\nlibrary MarketStorageLib {\\n    function store() internal pure returns (MarketStorage storage s) {\\n        bytes32 pos = MARKET_STORAGE_POS;\\n        assembly {\\n            s.slot := pos\\n        }\\n    }\\n}\\n\",\"keccak256\":\"0x7f80b55fd004d852515e71860a53879d1ddc3dba36d0fc006b2270263f20afbf\",\"license\":\"MIT\"}},\"version\":1}",
      "bytecode": "0x608060405234801561001057600080fd5b50612954806100206000396000f3fe60806040526004361061001e5760003560e01c8063ea40e51a14610023575b600080fd5b6100366100313660046125c3565b610038565b005b600080805260016020527fa6eef7e35abe7026729641147f7915573c7e97b47efa546f5f6e3230263bcb49547f4638dd49816562b7bd690c45fb41f5a91a31307f754a373a0341dd7fb00ca9e1919060ff161580156100ab575060008281526001602052604090205460ff161515811515145b6100b482610628565b906100db5760405162461bcd60e51b81526004016100d29190612714565b60405180910390fd5b5060008080527f7b305b6be5f275f648d05716597c483d754c2a242bd605feba3c64fb853605366020527f63eec20f0ae1af135811da961c707cd581594291a92cf7bcd78c1cf1aca4e4b0547f7b305b6be5f275f648d05716597c483d754c2a242bd605feba3c64fb853605349060ff16156101995760405162461bcd60e51b815260206004820152601860248201527f416363657373436f6e74726f6c3a207265656e7465726564000000000000000060448201526064016100d2565b60008281526002820160209081526040808320805460ff19166001179055338084527f300365d024b0c29c1605875d04a9dd61dc2761b19c199b99db884e58a1940fba909252909120547f50e75b23f8ec51bbcb044fe377457e835f3b5ccc7ebf69e80906452015dff607919060ff166102555760405162461bcd60e51b815260206004820152601d60248201527f416363657373436f6e74726f6c3a206e6f7420617574686f72697a656400000060448201526064016100d2565b61026260208a018a6124b1565b6001600160a01b0316336001600160a01b0316146102c25760405162461bcd60e51b815260206004820152601a60248201527f54656c6c65723a206e6f74206c6f616e2072657175657374657200000000000060448201526064016100d2565b6001600160a01b0388161580159061033157506103317f0553069f1f0518e59f8623c18c83a1f987f2a0544d563e98dd803a7078142a8f600061030b60408d0160208e016124b1565b6001600160a01b03166001600160a01b0316815260200190815260200160002089610691565b6103895760405162461bcd60e51b8152602060048201526024808201527f54656c6c65723a20636f6c6c61746572616c20746f6b656e206e6f7420616c6c6044820152631bddd95960e21b60648201526084016100d2565b60008060006103978c6106b6565b92509250925060006103d58d60000160200160208101906103b891906124b1565b838f60000160800160208101906103cf91906126fa565b87610b63565b6002810180546001600160a01b0319166001600160a01b038f1617905560048101805461ffff60d01b1916600160d01b61ffff87160217905590508a1561042f57600481015461042f906001600160801b03168d8d610f3c565b6004810154610446906001600160801b031661110c565b60048281015460405163d17b71d760e01b81526001600160801b03909116918101919091526001600160a01b03919091169063d17b71d79060240160206040518083038186803b15801561049957600080fd5b505afa1580156104ad573d6000803e3d6000fd5b505050506040513d601f19601f820116820180604052508101906104d191906126e2565b60048201546104e8906001600160801b0316611179565b11156105365760405162461bcd60e51b815260206004820181905260248201527f54656c6c65723a206d6f726520636f6c6c61746572616c20726571756972656460448201526064016100d2565b600481015460009061055290600160d01b900461ffff1661118c565b61057257600482015461056d906001600160801b031661119f565b61057e565b81546001600160a01b03165b600183015460038401549192506105a2916001600160a01b039091169083906112d6565b600482018054600160e11b60ff60e01b198216179091556003830154604080519182526000602083015233926001600160801b0316917fd3d2f140ab34e898d34ecc0f8cb23c37effe528d7936fbc4ece4f5152c841d35910160405180910390a350505060009586525050505060020160205260409020805460ff191690555050505050565b60608161065d576040518060400160405280601081526020016f14185d5cd8589b194e881c185d5cd95960821b81525061068b565b6040518060400160405280601481526020017314185d5cd8589b194e881b9bdd081c185d5cd95960621b8152505b92915050565b6001600160a01b038116600090815260018301602052604081205415155b9392505050565b60008080807f0553069f1f0518e59f8623c18c83a1f987f2a0544d563e98dd803a7078142a8e816106ed60408801602089016124b1565b6001600160a01b03166001600160a01b031681526020019081526020016000209050610717611348565b61073761072760c0880188612767565b905061073284611379565b611383565b61ffff1610156107975760405162461bcd60e51b815260206004820152602560248201527f54656c6c65723a20696e73756666696369656e74207369676e657220726573706044820152646f6e73657360d81b60648201526084016100d2565b6107c26107a760208701876124b1565b6107b760808801606089016126fa565b63ffffffff166113b8565b4660006107dd6107d73689900389018961261f565b83611553565b90506107e7612381565b60005b6107f760c08a018a612767565b9050811015610b1b57600061080f60c08b018b612767565b8381811061082d57634e487b7160e01b600052603260045260246000fd5b905061012002018036038101906108449190612509565b9050610854868260000151610691565b6108995760405162461bcd60e51b81526020600482015260166024820152752a32b63632b91d1034b73b30b634b21039b4b3b732b960511b60448201526064016100d2565b6108a960408b0160208c016124b1565b6001600160a01b031681602001516001600160a01b0316146109185760405162461bcd60e51b815260206004820152602260248201527f54656c6c65723a20636f6e73656e7375732061646472657373206d69736d61746044820152610c6d60f31b60648201526084016100d2565b6109206115e7565b61092a904261287b565b816060015163ffffffff16101561098e5760405162461bcd60e51b815260206004820152602260248201527f54656c6c65723a20636f6e73656e73757320726573706f6e7365206578706972604482015261195960f21b60648201526084016100d2565b6109a88160c001516109a1868489611612565b83516116aa565b6109ff5760405162461bcd60e51b815260206004820152602260248201527f54656c6c65723a20726573706f6e7365207369676e617475726520696e76616c6044820152611a5960f21b60648201526084016100d2565b60005b828160ff161015610ac957610a1a60c08c018c612767565b8260ff16818110610a3b57634e487b7160e01b600052603260045260246000fd5b610a529260206101209092020190810191506124b1565b6001600160a01b031682600001516001600160a01b03161415610ab75760405162461bcd60e51b815260206004820152601b60248201527f54656c6c65723a20647570207369676e657220726573706f6e7365000000000060448201526064016100d2565b80610ac1816128ad565b915050610a02565b5060808101518351610ade9161ffff1661172b565b60a08101516020840151610af59161ffff1661172b565b60408082015190840151610b089161172b565b5080610b1381612892565b9150506107ea565b506000610b26611785565b9050610b368260000151826117b0565b9750610b468260200151826117b0565b9650610b568260400151826117b0565b9799969850505050505050565b60008263ffffffff16610b74611826565b1015610bcd5760405162461bcd60e51b815260206004820152602260248201527f54656c6c65723a206d6178206c6f616e206475726174696f6e20657863656564604482015261195960f21b60648201526084016100d2565b83610c1b866001600160a01b031660009081526003602090815260408083207ff525bf48e9856fe8ffe40794a6793d36612641c2549eb536845518cf7ffcb992845260010190915290205490565b11610c775760405162461bcd60e51b815260206004820152602660248201527f54656c6c65723a206173736574206d6178206c6f616e20616d6f756e7420657860448201526518d95959195960d21b60648201526084016100d2565b6001600160a01b03851660009081526003602090815260408083207f83b40eb469a0678431fc4a0b7aa01cfc7df278115c36fcd0c4f77e9811288328845260010190915290205461ffff16610ccb86611851565b6001600160a01b031663ecfd3519866040518263ffffffff1660e01b8152600401610cf891815260200190565b602060405180830381600087803b158015610d1257600080fd5b505af1158015610d26573d6000803e3d6000fd5b505050506040513d601f19601f82011682018060405250810190610d4a91906126c6565b61ffff161115610dae5760405162461bcd60e51b815260206004820152602960248201527f54656c6c65723a206d617820737570706c792d746f2d6465627420726174696f60448201526808195e18d95959195960ba1b60648201526084016100d2565b6000610de07f0553069f1f0518e59f8623c18c83a1f987f2a0544d563e98dd803a7078142a8580546001810190915590565b9050610deb81611892565b6004810180548254336001600160a01b03199182161784556001840180549091166001600160a01b038b16179055600383018890556001600160801b03841679ffff0000000000000000ffffffffffffffffffffffffffffffff1990911617600160c01b61ffff8716021767ffffffffffffffff60801b1916600160a01b4263ffffffff9081169190910263ffffffff60801b191691909117600160801b91881691909102179055915084610e9f826118c2565b556003820154610eb09082906118f9565b610eb9826118c2565b60019081019190915582546001600160a01b031660009081527f0553069f1f0518e59f8623c18c83a1f987f2a0544d563e98dd803a7078142a8c60209081526040822080548085018255908352912060028204018054919092166010026101000a6001600160801b03818102199092169390911602919091179055949350505050565b34611062576040516323b872dd60e01b8152336004820152306024820152604481018290526001600160a01b038316906323b872dd90606401602060405180830381600087803b158015610f8f57600080fd5b505af1158015610fa3573d6000803e3d6000fd5b505050506040513d601f19601f82011682018060405250810190610fc791906124e9565b50816001600160a01b031663095ea7b3610fe08561110c565b6040516001600160e01b031960e084901b1681526001600160a01b03909116600482015260248101849052604401602060405180830381600087803b15801561102857600080fd5b505af115801561103c573d6000803e3d6000fd5b505050506040513d601f19601f8201168201806040525081019061106091906124e9565b505b61106b8361110c565b604051631c57762b60e31b815260048101859052602481018390526001600160a01b03919091169063e2bbb1589034906044016000604051808303818588803b1580156110b757600080fd5b505af11580156110cb573d6000803e3d6000fd5b50506040518481523393508692507feec2f3feb835e2f2fd44281034b04700a1ddda63dd402949d470a25a7c40b36c915060200160405180910390a3505050565b60009081527f0553069f1f0518e59f8623c18c83a1f987f2a0544d563e98dd803a7078142a8660209081526040808320600201546001600160a01b0390811684527f0553069f1f0518e59f8623c18c83a1f987f2a0544d563e98dd803a7078142a8b909252909120541690565b60006111848261190e565b509392505050565b60006111966119f2565b90911015919050565b600080600701546040516327662c6960e11b815260206004820152600060248201526001600160a01b0390911690634ecc58d290604401602060405180830381600087803b1580156111f057600080fd5b505af1158015611204573d6000803e3d6000fd5b505050506040513d601f19601f8201168201806040525081019061122891906124cd565b9050806001600160a01b031663e1c7392a6040518163ffffffff1660e01b8152600401600060405180830381600087803b15801561126557600080fd5b505af1158015611279573d6000803e3d6000fd5b50505050806112a57f0553069f1f0518e59f8623c18c83a1f987f2a0544d563e98dd803a7078142a8590565b6000938452600401602052604090922080546001600160a01b0319166001600160a01b039093169290921790915590565b6112df83611851565b60405163e920b1e160e01b81526001600160a01b03848116600483015260248201849052919091169063e920b1e190604401600060405180830381600087803b15801561132b57600080fd5b505af115801561133f573d6000803e3d6000fd5b50505050505050565b60006113737f635fd0fa064efecc14856c8c6b212b01ecd6f28b1cf6de252dfe65cfd8b955fb611a19565b54919050565b600061068b825490565b600081156113af576113aa8261139b61271086612809565b6113a591906127ce565b611a21565b6106af565b50600092915050565b6001600160a01b03821660009081527f0553069f1f0518e59f8623c18c83a1f987f2a0544d563e98dd803a7078142a8c6020526040902080548281146114405760405162461bcd60e51b815260206004820152601960248201527f54656c6c65723a206261642072657175657374206e6f6e63650000000000000060448201526064016100d2565b8061144b5750505050565b42611454611a84565b7f0553069f1f0518e59f8623c18c83a1f987f2a0544d563e98dd803a7078142a8660008561148360018761287b565b815481106114a157634e487b7160e01b600052603260045260246000fd5b6000918252602080832060028304015460019092166010026101000a9091046001600160801b031683528201929092526040019020600401546114f19190600160a01b900463ffffffff166127b6565b111561154d5760405162461bcd60e51b815260206004820152602560248201527f54656c6c65723a206c6f616e207465726d732072617465206c696d69742072656044820152641858da195960da1b60648201526084016100d2565b50505050565b81516020808401516040808601516060870151608088015160a089015193516000976115c997909695918a91016001600160a01b039788168152959096166020860152604085019390935263ffffffff91821660608501528116608084015290811660a08301529190911660c082015260e00190565b60405160208183030381529060405280519060200120905092915050565b60006113737f60a024eb6ab6fa3eab944dedcc1f5045a86494b3adcbce91e6ce8bd7a523988f611a19565b60008260200151836040015185856060015186608001518760a001518760405160200161168b97969594939291906001600160a01b039790971687526020870195909552604086019390935263ffffffff918216606086015261ffff90811660808601529190911660a08401521660c082015260e00190565b6040516020818303038152906040528051906020012090509392505050565b6040517f19457468657265756d205369676e6564204d6573736167653a0a3332000000006020820152603c810183905260009061170e90605c0160405160208183030381529060405280519060200120856000015186602001518760400151611aaf565b6001600160a01b0316826001600160a01b03161490509392505050565b808260200151101561173f57602082018190525b808260400151118061175057508151155b1561175d57604082018190525b80826060015161176d91906127b6565b6060830152815161177f9060016127b6565b90915250565b60006113737fd16340ba0b87a0ca7eb821e20443b879c404accea8ebf9aa3d98db60f43befdb611a19565b60006117bc8383611ad7565b61181d5760405162461bcd60e51b815260206004820152602c60248201527f54656c6c65723a20636f6e73656e73757320726573706f6e73652076616c756560448201526b1cc81d1bdbc81d985c9a595960a21b60648201526084016100d2565b6106af83611b64565b60006113737fee99212d4b9f607ce22114cd74d9a2d87dfd61b2fbf4d89855f88b3ba9b6c974611a19565b6001600160a01b0390811660009081527f0553069f1f0518e59f8623c18c83a1f987f2a0544d563e98dd803a7078142a8d60205260409020541690565b5090565b60009081527f0553069f1f0518e59f8623c18c83a1f987f2a0544d563e98dd803a7078142a866020526040902090565b60007f0553069f1f0518e59f8623c18c83a1f987f2a0544d563e98dd803a7078142a855b6000928352600201602052506040902090565b60006106af61190784611b91565b8390611c11565b600080600061191c84611c2e565b90935090508261192f57600091506119eb565b600c546001600160a01b031663c05b1ec361194986611892565b600101546001600160a01b031661195f87611892565b6002015460405160e084901b6001600160e01b03191681526001600160a01b039283166004820152911660248201526044810186905260640160206040518083038186803b1580156119b057600080fd5b505afa1580156119c4573d6000803e3d6000fd5b505050506040513d601f19601f820116820180604052508101906119e891906126e2565b91505b9193909250565b60006113737f1f0b459949cf4594178576aeedabc987ab86509018ce5e016d2e728fe1f4f3475b6000806118e6565b600061ffff82111561188e5760405162461bcd60e51b815260206004820152602660248201527f53616665436173743a2076616c756520646f65736e27742066697420696e203160448201526536206269747360d01b60648201526084016100d2565b60006113737ffe080dd71ec39eb228621eda15e748315f8b911e094dfbbafeef9adb6d4cdf54611a19565b6000806000611ac087878787611dae565b91509150611acd81611e9b565b5095945050505050565b6000611ae28361209f565b15611aef5750600061068b565b6000611afa84611b64565b90506000611b088285611c11565b90506000611b16828461287b565b90508086604001511015611b30576000935050505061068b565b6000611b3c83856127b6565b90508087602001511115611b5757600094505050505061068b565b5060019695505050505050565b6000611b6f8261209f565b611b895781518260600151611b8491906127ce565b61068b565b600092915050565b600080611b9d83611892565b60040154600160c01b900461ffff161115611c0c576301e13380611bc083611892565b60040154600160c01b900461ffff16611bd884611892565b60040154611bf39190600160801b900463ffffffff16612828565b611bfd91906127e2565b905061ffff8116611c0c575060015b919050565b6000612710611c2461ffff841685612809565b6106af91906127ce565b600080611c3a83611892565b60040154600160d01b900461ffff16611c5857506000928392509050565b6001611c6384611892565b600490810154600160e01b900460ff1690811115611c9157634e487b7160e01b600052602160045260246000fd5b1415611ccc57611cc5611ca384611892565b60040154600160d01b900461ffff16611cbb85611892565b6003015490611c11565b9150915091565b6002611cd784611892565b600490810154600160e01b900460ff1690811115611d0557634e487b7160e01b600052602160045260246000fd5b1415611da9576000611d156120b0565b611d1e85611b91565b611d2786611892565b60040154611d409190600160d01b900461ffff16612858565b611d4a9190612858565b9050611d55846118c2565b60010154611d62856118c2565b54611d6d91906127b6565b9250611d78846120db565b9150600082118015611d8957508183115b15611d9b57611d98828461287b565b92505b611da58382611c11565b9250505b915091565b6000807f7fffffffffffffffffffffffffffffff5d576e7357a4501ddfe92f46681b20a0831115611de55750600090506003611e92565b8460ff16601b14158015611dfd57508460ff16601c14155b15611e0e5750600090506004611e92565b6040805160008082526020820180845289905260ff881692820192909252606081018690526080810185905260019060a0016020604051602081039080840390855afa158015611e62573d6000803e3d6000fd5b5050604051601f1901519150506001600160a01b038116611e8b57600060019250925050611e92565b9150600090505b94509492505050565b6000816004811115611ebd57634e487b7160e01b600052602160045260246000fd5b1415611ec65750565b6001816004811115611ee857634e487b7160e01b600052602160045260246000fd5b1415611f365760405162461bcd60e51b815260206004820152601860248201527f45434453413a20696e76616c6964207369676e6174757265000000000000000060448201526064016100d2565b6002816004811115611f5857634e487b7160e01b600052602160045260246000fd5b1415611fa65760405162461bcd60e51b815260206004820152601f60248201527f45434453413a20696e76616c6964207369676e6174757265206c656e6774680060448201526064016100d2565b6003816004811115611fc857634e487b7160e01b600052602160045260246000fd5b14156120215760405162461bcd60e51b815260206004820152602260248201527f45434453413a20696e76616c6964207369676e6174757265202773272076616c604482015261756560f01b60648201526084016100d2565b600481600481111561204357634e487b7160e01b600052602160045260246000fd5b141561209c5760405162461bcd60e51b815260206004820152602260248201527f45434453413a20696e76616c6964207369676e6174757265202776272076616c604482015261756560f01b60648201526084016100d2565b50565b60006120a9825190565b1592915050565b60006113737f30876f9fd2a6e11f15d1ba3c09dc28f8fb0930bf076960ca8796d199fd0b2ec3611a19565b60006120e682612246565b6120f257506000919050565b60006120fd83611892565b600101546001600160a01b031690506121168382612263565b61212090836127b6565b60008481527f0553069f1f0518e59f8623c18c83a1f987f2a0544d563e98dd803a7078142a8a6020526040812091935061215982611379565b111561223f5760005b61216b82611379565b81101561223d57600c546001600160a01b0316634d6f21a961218c87612308565b6121968585612342565b6040516001600160e01b031960e085901b1681526001600160a01b03928316600482015290821660248201529086166044820152606401602060405180830381600087803b1580156121e757600080fd5b505af11580156121fb573d6000803e3d6000fd5b505050506040513d601f19601f8201168201806040525081019061221f91906126e2565b61222990856127b6565b93508061223581612892565b915050612162565b505b5050919050565b60008061225283612308565b6001600160a01b0316141592915050565b600061226e83612246565b6122795760006106af565b816001600160a01b03166370a0823161229185612308565b6040516001600160e01b031960e084901b1681526001600160a01b03909116600482015260240160206040518083038186803b1580156122d057600080fd5b505afa1580156122e4573d6000803e3d6000fd5b505050506040513d601f19601f820116820180604052508101906106af91906126e2565b60009081527f0553069f1f0518e59f8623c18c83a1f987f2a0544d563e98dd803a7078142a8960205260409020546001600160a01b031690565b60006106af8383600082600001828154811061236e57634e487b7160e01b600052603260045260246000fd5b9060005260206000200154905092915050565b60405180606001604052806123b76040518060800160405280600081526020016000815260200160008152602001600081525090565b81526020016123e76040518060800160405280600081526020016000815260200160008152602001600081525090565b81526020016124176040518060800160405280600081526020016000815260200160008152602001600081525090565b905290565b60006060828403121561242d578081fd5b6040516060810181811067ffffffffffffffff8211171561245c57634e487b7160e01b83526041600452602483fd5b604052905080823560ff8116811461247357600080fd5b8082525060208301356020820152604083013560408201525092915050565b8035611c0c8161290e565b803563ffffffff81168114611c0c57600080fd5b6000602082840312156124c2578081fd5b81356106af816128f9565b6000602082840312156124de578081fd5b81516106af816128f9565b6000602082840312156124fa578081fd5b815180151581146106af578182fd5b6000610120828403121561251b578081fd5b60405160e0810181811067ffffffffffffffff8211171561254a57634e487b7160e01b83526041600452602483fd5b6040528235612558816128f9565b81526020830135612568816128f9565b6020820152604083810135908201526125836060840161249d565b606082015261259460808401612492565b60808201526125a560a08401612492565b60a08201526125b78460c0850161241c565b60c08201529392505050565b6000806000606084860312156125d7578182fd5b833567ffffffffffffffff8111156125ed578283fd5b840160e081870312156125fe578283fd5b9250602084013561260e816128f9565b929592945050506040919091013590565b600060c08284031215612630578081fd5b60405160c0810181811067ffffffffffffffff8211171561265f57634e487b7160e01b83526041600452602483fd5b604052823561266d816128f9565b8152602083013561267d816128f9565b6020820152604083810135908201526126986060840161249d565b60608201526126a96080840161249d565b60808201526126ba60a0840161249d565b60a08201529392505050565b6000602082840312156126d7578081fd5b81516106af8161290e565b6000602082840312156126f3578081fd5b5051919050565b60006020828403121561270b578081fd5b6106af8261249d565b6000602080835283518082850152825b8181101561274057858101830151858201604001528201612724565b818111156127515783604083870101525b50601f01601f1916929092016040019392505050565b6000808335601e1984360301811261277d578283fd5b83018035915067ffffffffffffffff821115612797578283fd5b6020019150610120810236038213156127af57600080fd5b9250929050565b600082198211156127c9576127c96128cd565b500190565b6000826127dd576127dd6128e3565b500490565b600067ffffffffffffffff808416806127fd576127fd6128e3565b92169190910492915050565b6000816000190483118215151615612823576128236128cd565b500290565b600067ffffffffffffffff8083168185168183048111821515161561284f5761284f6128cd565b02949350505050565b600061ffff83811690831681811015612873576128736128cd565b039392505050565b60008282101561288d5761288d6128cd565b500390565b60006000198214156128a6576128a66128cd565b5060010190565b600060ff821660ff8114156128c4576128c46128cd565b60010192915050565b634e487b7160e01b600052601160045260246000fd5b634e487b7160e01b600052601260045260246000fd5b6001600160a01b038116811461209c57600080fd5b61ffff8116811461209c57600080fdfea2646970667358221220460fbc99aac30cbf76159af9565fce48fc669d811dee7a8482e7c9d21f992d8b64736f6c63430008040033",
      "deployedBytecode": "0x60806040526004361061001e5760003560e01c8063ea40e51a14610023575b600080fd5b6100366100313660046125c3565b610038565b005b600080805260016020527fa6eef7e35abe7026729641147f7915573c7e97b47efa546f5f6e3230263bcb49547f4638dd49816562b7bd690c45fb41f5a91a31307f754a373a0341dd7fb00ca9e1919060ff161580156100ab575060008281526001602052604090205460ff161515811515145b6100b482610628565b906100db5760405162461bcd60e51b81526004016100d29190612714565b60405180910390fd5b5060008080527f7b305b6be5f275f648d05716597c483d754c2a242bd605feba3c64fb853605366020527f63eec20f0ae1af135811da961c707cd581594291a92cf7bcd78c1cf1aca4e4b0547f7b305b6be5f275f648d05716597c483d754c2a242bd605feba3c64fb853605349060ff16156101995760405162461bcd60e51b815260206004820152601860248201527f416363657373436f6e74726f6c3a207265656e7465726564000000000000000060448201526064016100d2565b60008281526002820160209081526040808320805460ff19166001179055338084527f300365d024b0c29c1605875d04a9dd61dc2761b19c199b99db884e58a1940fba909252909120547f50e75b23f8ec51bbcb044fe377457e835f3b5ccc7ebf69e80906452015dff607919060ff166102555760405162461bcd60e51b815260206004820152601d60248201527f416363657373436f6e74726f6c3a206e6f7420617574686f72697a656400000060448201526064016100d2565b61026260208a018a6124b1565b6001600160a01b0316336001600160a01b0316146102c25760405162461bcd60e51b815260206004820152601a60248201527f54656c6c65723a206e6f74206c6f616e2072657175657374657200000000000060448201526064016100d2565b6001600160a01b0388161580159061033157506103317f0553069f1f0518e59f8623c18c83a1f987f2a0544d563e98dd803a7078142a8f600061030b60408d0160208e016124b1565b6001600160a01b03166001600160a01b0316815260200190815260200160002089610691565b6103895760405162461bcd60e51b8152602060048201526024808201527f54656c6c65723a20636f6c6c61746572616c20746f6b656e206e6f7420616c6c6044820152631bddd95960e21b60648201526084016100d2565b60008060006103978c6106b6565b92509250925060006103d58d60000160200160208101906103b891906124b1565b838f60000160800160208101906103cf91906126fa565b87610b63565b6002810180546001600160a01b0319166001600160a01b038f1617905560048101805461ffff60d01b1916600160d01b61ffff87160217905590508a1561042f57600481015461042f906001600160801b03168d8d610f3c565b6004810154610446906001600160801b031661110c565b60048281015460405163d17b71d760e01b81526001600160801b03909116918101919091526001600160a01b03919091169063d17b71d79060240160206040518083038186803b15801561049957600080fd5b505afa1580156104ad573d6000803e3d6000fd5b505050506040513d601f19601f820116820180604052508101906104d191906126e2565b60048201546104e8906001600160801b0316611179565b11156105365760405162461bcd60e51b815260206004820181905260248201527f54656c6c65723a206d6f726520636f6c6c61746572616c20726571756972656460448201526064016100d2565b600481015460009061055290600160d01b900461ffff1661118c565b61057257600482015461056d906001600160801b031661119f565b61057e565b81546001600160a01b03165b600183015460038401549192506105a2916001600160a01b039091169083906112d6565b600482018054600160e11b60ff60e01b198216179091556003830154604080519182526000602083015233926001600160801b0316917fd3d2f140ab34e898d34ecc0f8cb23c37effe528d7936fbc4ece4f5152c841d35910160405180910390a350505060009586525050505060020160205260409020805460ff191690555050505050565b60608161065d576040518060400160405280601081526020016f14185d5cd8589b194e881c185d5cd95960821b81525061068b565b6040518060400160405280601481526020017314185d5cd8589b194e881b9bdd081c185d5cd95960621b8152505b92915050565b6001600160a01b038116600090815260018301602052604081205415155b9392505050565b60008080807f0553069f1f0518e59f8623c18c83a1f987f2a0544d563e98dd803a7078142a8e816106ed60408801602089016124b1565b6001600160a01b03166001600160a01b031681526020019081526020016000209050610717611348565b61073761072760c0880188612767565b905061073284611379565b611383565b61ffff1610156107975760405162461bcd60e51b815260206004820152602560248201527f54656c6c65723a20696e73756666696369656e74207369676e657220726573706044820152646f6e73657360d81b60648201526084016100d2565b6107c26107a760208701876124b1565b6107b760808801606089016126fa565b63ffffffff166113b8565b4660006107dd6107d73689900389018961261f565b83611553565b90506107e7612381565b60005b6107f760c08a018a612767565b9050811015610b1b57600061080f60c08b018b612767565b8381811061082d57634e487b7160e01b600052603260045260246000fd5b905061012002018036038101906108449190612509565b9050610854868260000151610691565b6108995760405162461bcd60e51b81526020600482015260166024820152752a32b63632b91d1034b73b30b634b21039b4b3b732b960511b60448201526064016100d2565b6108a960408b0160208c016124b1565b6001600160a01b031681602001516001600160a01b0316146109185760405162461bcd60e51b815260206004820152602260248201527f54656c6c65723a20636f6e73656e7375732061646472657373206d69736d61746044820152610c6d60f31b60648201526084016100d2565b6109206115e7565b61092a904261287b565b816060015163ffffffff16101561098e5760405162461bcd60e51b815260206004820152602260248201527f54656c6c65723a20636f6e73656e73757320726573706f6e7365206578706972604482015261195960f21b60648201526084016100d2565b6109a88160c001516109a1868489611612565b83516116aa565b6109ff5760405162461bcd60e51b815260206004820152602260248201527f54656c6c65723a20726573706f6e7365207369676e617475726520696e76616c6044820152611a5960f21b60648201526084016100d2565b60005b828160ff161015610ac957610a1a60c08c018c612767565b8260ff16818110610a3b57634e487b7160e01b600052603260045260246000fd5b610a529260206101209092020190810191506124b1565b6001600160a01b031682600001516001600160a01b03161415610ab75760405162461bcd60e51b815260206004820152601b60248201527f54656c6c65723a20647570207369676e657220726573706f6e7365000000000060448201526064016100d2565b80610ac1816128ad565b915050610a02565b5060808101518351610ade9161ffff1661172b565b60a08101516020840151610af59161ffff1661172b565b60408082015190840151610b089161172b565b5080610b1381612892565b9150506107ea565b506000610b26611785565b9050610b368260000151826117b0565b9750610b468260200151826117b0565b9650610b568260400151826117b0565b9799969850505050505050565b60008263ffffffff16610b74611826565b1015610bcd5760405162461bcd60e51b815260206004820152602260248201527f54656c6c65723a206d6178206c6f616e206475726174696f6e20657863656564604482015261195960f21b60648201526084016100d2565b83610c1b866001600160a01b031660009081526003602090815260408083207ff525bf48e9856fe8ffe40794a6793d36612641c2549eb536845518cf7ffcb992845260010190915290205490565b11610c775760405162461bcd60e51b815260206004820152602660248201527f54656c6c65723a206173736574206d6178206c6f616e20616d6f756e7420657860448201526518d95959195960d21b60648201526084016100d2565b6001600160a01b03851660009081526003602090815260408083207f83b40eb469a0678431fc4a0b7aa01cfc7df278115c36fcd0c4f77e9811288328845260010190915290205461ffff16610ccb86611851565b6001600160a01b031663ecfd3519866040518263ffffffff1660e01b8152600401610cf891815260200190565b602060405180830381600087803b158015610d1257600080fd5b505af1158015610d26573d6000803e3d6000fd5b505050506040513d601f19601f82011682018060405250810190610d4a91906126c6565b61ffff161115610dae5760405162461bcd60e51b815260206004820152602960248201527f54656c6c65723a206d617820737570706c792d746f2d6465627420726174696f60448201526808195e18d95959195960ba1b60648201526084016100d2565b6000610de07f0553069f1f0518e59f8623c18c83a1f987f2a0544d563e98dd803a7078142a8580546001810190915590565b9050610deb81611892565b6004810180548254336001600160a01b03199182161784556001840180549091166001600160a01b038b16179055600383018890556001600160801b03841679ffff0000000000000000ffffffffffffffffffffffffffffffff1990911617600160c01b61ffff8716021767ffffffffffffffff60801b1916600160a01b4263ffffffff9081169190910263ffffffff60801b191691909117600160801b91881691909102179055915084610e9f826118c2565b556003820154610eb09082906118f9565b610eb9826118c2565b60019081019190915582546001600160a01b031660009081527f0553069f1f0518e59f8623c18c83a1f987f2a0544d563e98dd803a7078142a8c60209081526040822080548085018255908352912060028204018054919092166010026101000a6001600160801b03818102199092169390911602919091179055949350505050565b34611062576040516323b872dd60e01b8152336004820152306024820152604481018290526001600160a01b038316906323b872dd90606401602060405180830381600087803b158015610f8f57600080fd5b505af1158015610fa3573d6000803e3d6000fd5b505050506040513d601f19601f82011682018060405250810190610fc791906124e9565b50816001600160a01b031663095ea7b3610fe08561110c565b6040516001600160e01b031960e084901b1681526001600160a01b03909116600482015260248101849052604401602060405180830381600087803b15801561102857600080fd5b505af115801561103c573d6000803e3d6000fd5b505050506040513d601f19601f8201168201806040525081019061106091906124e9565b505b61106b8361110c565b604051631c57762b60e31b815260048101859052602481018390526001600160a01b03919091169063e2bbb1589034906044016000604051808303818588803b1580156110b757600080fd5b505af11580156110cb573d6000803e3d6000fd5b50506040518481523393508692507feec2f3feb835e2f2fd44281034b04700a1ddda63dd402949d470a25a7c40b36c915060200160405180910390a3505050565b60009081527f0553069f1f0518e59f8623c18c83a1f987f2a0544d563e98dd803a7078142a8660209081526040808320600201546001600160a01b0390811684527f0553069f1f0518e59f8623c18c83a1f987f2a0544d563e98dd803a7078142a8b909252909120541690565b60006111848261190e565b509392505050565b60006111966119f2565b90911015919050565b600080600701546040516327662c6960e11b815260206004820152600060248201526001600160a01b0390911690634ecc58d290604401602060405180830381600087803b1580156111f057600080fd5b505af1158015611204573d6000803e3d6000fd5b505050506040513d601f19601f8201168201806040525081019061122891906124cd565b9050806001600160a01b031663e1c7392a6040518163ffffffff1660e01b8152600401600060405180830381600087803b15801561126557600080fd5b505af1158015611279573d6000803e3d6000fd5b50505050806112a57f0553069f1f0518e59f8623c18c83a1f987f2a0544d563e98dd803a7078142a8590565b6000938452600401602052604090922080546001600160a01b0319166001600160a01b039093169290921790915590565b6112df83611851565b60405163e920b1e160e01b81526001600160a01b03848116600483015260248201849052919091169063e920b1e190604401600060405180830381600087803b15801561132b57600080fd5b505af115801561133f573d6000803e3d6000fd5b50505050505050565b60006113737f635fd0fa064efecc14856c8c6b212b01ecd6f28b1cf6de252dfe65cfd8b955fb611a19565b54919050565b600061068b825490565b600081156113af576113aa8261139b61271086612809565b6113a591906127ce565b611a21565b6106af565b50600092915050565b6001600160a01b03821660009081527f0553069f1f0518e59f8623c18c83a1f987f2a0544d563e98dd803a7078142a8c6020526040902080548281146114405760405162461bcd60e51b815260206004820152601960248201527f54656c6c65723a206261642072657175657374206e6f6e63650000000000000060448201526064016100d2565b8061144b5750505050565b42611454611a84565b7f0553069f1f0518e59f8623c18c83a1f987f2a0544d563e98dd803a7078142a8660008561148360018761287b565b815481106114a157634e487b7160e01b600052603260045260246000fd5b6000918252602080832060028304015460019092166010026101000a9091046001600160801b031683528201929092526040019020600401546114f19190600160a01b900463ffffffff166127b6565b111561154d5760405162461bcd60e51b815260206004820152602560248201527f54656c6c65723a206c6f616e207465726d732072617465206c696d69742072656044820152641858da195960da1b60648201526084016100d2565b50505050565b81516020808401516040808601516060870151608088015160a089015193516000976115c997909695918a91016001600160a01b039788168152959096166020860152604085019390935263ffffffff91821660608501528116608084015290811660a08301529190911660c082015260e00190565b60405160208183030381529060405280519060200120905092915050565b60006113737f60a024eb6ab6fa3eab944dedcc1f5045a86494b3adcbce91e6ce8bd7a523988f611a19565b60008260200151836040015185856060015186608001518760a001518760405160200161168b97969594939291906001600160a01b039790971687526020870195909552604086019390935263ffffffff918216606086015261ffff90811660808601529190911660a08401521660c082015260e00190565b6040516020818303038152906040528051906020012090509392505050565b6040517f19457468657265756d205369676e6564204d6573736167653a0a3332000000006020820152603c810183905260009061170e90605c0160405160208183030381529060405280519060200120856000015186602001518760400151611aaf565b6001600160a01b0316826001600160a01b03161490509392505050565b808260200151101561173f57602082018190525b808260400151118061175057508151155b1561175d57604082018190525b80826060015161176d91906127b6565b6060830152815161177f9060016127b6565b90915250565b60006113737fd16340ba0b87a0ca7eb821e20443b879c404accea8ebf9aa3d98db60f43befdb611a19565b60006117bc8383611ad7565b61181d5760405162461bcd60e51b815260206004820152602c60248201527f54656c6c65723a20636f6e73656e73757320726573706f6e73652076616c756560448201526b1cc81d1bdbc81d985c9a595960a21b60648201526084016100d2565b6106af83611b64565b60006113737fee99212d4b9f607ce22114cd74d9a2d87dfd61b2fbf4d89855f88b3ba9b6c974611a19565b6001600160a01b0390811660009081527f0553069f1f0518e59f8623c18c83a1f987f2a0544d563e98dd803a7078142a8d60205260409020541690565b5090565b60009081527f0553069f1f0518e59f8623c18c83a1f987f2a0544d563e98dd803a7078142a866020526040902090565b60007f0553069f1f0518e59f8623c18c83a1f987f2a0544d563e98dd803a7078142a855b6000928352600201602052506040902090565b60006106af61190784611b91565b8390611c11565b600080600061191c84611c2e565b90935090508261192f57600091506119eb565b600c546001600160a01b031663c05b1ec361194986611892565b600101546001600160a01b031661195f87611892565b6002015460405160e084901b6001600160e01b03191681526001600160a01b039283166004820152911660248201526044810186905260640160206040518083038186803b1580156119b057600080fd5b505afa1580156119c4573d6000803e3d6000fd5b505050506040513d601f19601f820116820180604052508101906119e891906126e2565b91505b9193909250565b60006113737f1f0b459949cf4594178576aeedabc987ab86509018ce5e016d2e728fe1f4f3475b6000806118e6565b600061ffff82111561188e5760405162461bcd60e51b815260206004820152602660248201527f53616665436173743a2076616c756520646f65736e27742066697420696e203160448201526536206269747360d01b60648201526084016100d2565b60006113737ffe080dd71ec39eb228621eda15e748315f8b911e094dfbbafeef9adb6d4cdf54611a19565b6000806000611ac087878787611dae565b91509150611acd81611e9b565b5095945050505050565b6000611ae28361209f565b15611aef5750600061068b565b6000611afa84611b64565b90506000611b088285611c11565b90506000611b16828461287b565b90508086604001511015611b30576000935050505061068b565b6000611b3c83856127b6565b90508087602001511115611b5757600094505050505061068b565b5060019695505050505050565b6000611b6f8261209f565b611b895781518260600151611b8491906127ce565b61068b565b600092915050565b600080611b9d83611892565b60040154600160c01b900461ffff161115611c0c576301e13380611bc083611892565b60040154600160c01b900461ffff16611bd884611892565b60040154611bf39190600160801b900463ffffffff16612828565b611bfd91906127e2565b905061ffff8116611c0c575060015b919050565b6000612710611c2461ffff841685612809565b6106af91906127ce565b600080611c3a83611892565b60040154600160d01b900461ffff16611c5857506000928392509050565b6001611c6384611892565b600490810154600160e01b900460ff1690811115611c9157634e487b7160e01b600052602160045260246000fd5b1415611ccc57611cc5611ca384611892565b60040154600160d01b900461ffff16611cbb85611892565b6003015490611c11565b9150915091565b6002611cd784611892565b600490810154600160e01b900460ff1690811115611d0557634e487b7160e01b600052602160045260246000fd5b1415611da9576000611d156120b0565b611d1e85611b91565b611d2786611892565b60040154611d409190600160d01b900461ffff16612858565b611d4a9190612858565b9050611d55846118c2565b60010154611d62856118c2565b54611d6d91906127b6565b9250611d78846120db565b9150600082118015611d8957508183115b15611d9b57611d98828461287b565b92505b611da58382611c11565b9250505b915091565b6000807f7fffffffffffffffffffffffffffffff5d576e7357a4501ddfe92f46681b20a0831115611de55750600090506003611e92565b8460ff16601b14158015611dfd57508460ff16601c14155b15611e0e5750600090506004611e92565b6040805160008082526020820180845289905260ff881692820192909252606081018690526080810185905260019060a0016020604051602081039080840390855afa158015611e62573d6000803e3d6000fd5b5050604051601f1901519150506001600160a01b038116611e8b57600060019250925050611e92565b9150600090505b94509492505050565b6000816004811115611ebd57634e487b7160e01b600052602160045260246000fd5b1415611ec65750565b6001816004811115611ee857634e487b7160e01b600052602160045260246000fd5b1415611f365760405162461bcd60e51b815260206004820152601860248201527f45434453413a20696e76616c6964207369676e6174757265000000000000000060448201526064016100d2565b6002816004811115611f5857634e487b7160e01b600052602160045260246000fd5b1415611fa65760405162461bcd60e51b815260206004820152601f60248201527f45434453413a20696e76616c6964207369676e6174757265206c656e6774680060448201526064016100d2565b6003816004811115611fc857634e487b7160e01b600052602160045260246000fd5b14156120215760405162461bcd60e51b815260206004820152602260248201527f45434453413a20696e76616c6964207369676e6174757265202773272076616c604482015261756560f01b60648201526084016100d2565b600481600481111561204357634e487b7160e01b600052602160045260246000fd5b141561209c5760405162461bcd60e51b815260206004820152602260248201527f45434453413a20696e76616c6964207369676e6174757265202776272076616c604482015261756560f01b60648201526084016100d2565b50565b60006120a9825190565b1592915050565b60006113737f30876f9fd2a6e11f15d1ba3c09dc28f8fb0930bf076960ca8796d199fd0b2ec3611a19565b60006120e682612246565b6120f257506000919050565b60006120fd83611892565b600101546001600160a01b031690506121168382612263565b61212090836127b6565b60008481527f0553069f1f0518e59f8623c18c83a1f987f2a0544d563e98dd803a7078142a8a6020526040812091935061215982611379565b111561223f5760005b61216b82611379565b81101561223d57600c546001600160a01b0316634d6f21a961218c87612308565b6121968585612342565b6040516001600160e01b031960e085901b1681526001600160a01b03928316600482015290821660248201529086166044820152606401602060405180830381600087803b1580156121e757600080fd5b505af11580156121fb573d6000803e3d6000fd5b505050506040513d601f19601f8201168201806040525081019061221f91906126e2565b61222990856127b6565b93508061223581612892565b915050612162565b505b5050919050565b60008061225283612308565b6001600160a01b0316141592915050565b600061226e83612246565b6122795760006106af565b816001600160a01b03166370a0823161229185612308565b6040516001600160e01b031960e084901b1681526001600160a01b03909116600482015260240160206040518083038186803b1580156122d057600080fd5b505afa1580156122e4573d6000803e3d6000fd5b505050506040513d601f19601f820116820180604052508101906106af91906126e2565b60009081527f0553069f1f0518e59f8623c18c83a1f987f2a0544d563e98dd803a7078142a8960205260409020546001600160a01b031690565b60006106af8383600082600001828154811061236e57634e487b7160e01b600052603260045260246000fd5b9060005260206000200154905092915050565b60405180606001604052806123b76040518060800160405280600081526020016000815260200160008152602001600081525090565b81526020016123e76040518060800160405280600081526020016000815260200160008152602001600081525090565b81526020016124176040518060800160405280600081526020016000815260200160008152602001600081525090565b905290565b60006060828403121561242d578081fd5b6040516060810181811067ffffffffffffffff8211171561245c57634e487b7160e01b83526041600452602483fd5b604052905080823560ff8116811461247357600080fd5b8082525060208301356020820152604083013560408201525092915050565b8035611c0c8161290e565b803563ffffffff81168114611c0c57600080fd5b6000602082840312156124c2578081fd5b81356106af816128f9565b6000602082840312156124de578081fd5b81516106af816128f9565b6000602082840312156124fa578081fd5b815180151581146106af578182fd5b6000610120828403121561251b578081fd5b60405160e0810181811067ffffffffffffffff8211171561254a57634e487b7160e01b83526041600452602483fd5b6040528235612558816128f9565b81526020830135612568816128f9565b6020820152604083810135908201526125836060840161249d565b606082015261259460808401612492565b60808201526125a560a08401612492565b60a08201526125b78460c0850161241c565b60c08201529392505050565b6000806000606084860312156125d7578182fd5b833567ffffffffffffffff8111156125ed578283fd5b840160e081870312156125fe578283fd5b9250602084013561260e816128f9565b929592945050506040919091013590565b600060c08284031215612630578081fd5b60405160c0810181811067ffffffffffffffff8211171561265f57634e487b7160e01b83526041600452602483fd5b604052823561266d816128f9565b8152602083013561267d816128f9565b6020820152604083810135908201526126986060840161249d565b60608201526126a96080840161249d565b60808201526126ba60a0840161249d565b60a08201529392505050565b6000602082840312156126d7578081fd5b81516106af8161290e565b6000602082840312156126f3578081fd5b5051919050565b60006020828403121561270b578081fd5b6106af8261249d565b6000602080835283518082850152825b8181101561274057858101830151858201604001528201612724565b818111156127515783604083870101525b50601f01601f1916929092016040019392505050565b6000808335601e1984360301811261277d578283fd5b83018035915067ffffffffffffffff821115612797578283fd5b6020019150610120810236038213156127af57600080fd5b9250929050565b600082198211156127c9576127c96128cd565b500190565b6000826127dd576127dd6128e3565b500490565b600067ffffffffffffffff808416806127fd576127fd6128e3565b92169190910492915050565b6000816000190483118215151615612823576128236128cd565b500290565b600067ffffffffffffffff8083168185168183048111821515161561284f5761284f6128cd565b02949350505050565b600061ffff83811690831681811015612873576128736128cd565b039392505050565b60008282101561288d5761288d6128cd565b500390565b60006000198214156128a6576128a66128cd565b5060010190565b600060ff821660ff8114156128c4576128c46128cd565b60010192915050565b634e487b7160e01b600052601160045260246000fd5b634e487b7160e01b600052601260045260246000fd5b6001600160a01b038116811461209c57600080fd5b61ffff8116811461209c57600080fdfea2646970667358221220460fbc99aac30cbf76159af9565fce48fc669d811dee7a8482e7c9d21f992d8b64736f6c63430008040033",
      "devdoc": {
        "kind": "dev",
        "methods": {
          "takeOutLoan(((address,address,uint256,uint32,uint32,uint32),(address,address,uint256,uint32,uint16,uint16,(uint8,bytes32,bytes32))[]),address,uint256)": {
            "details": "collateral ratio is a percentage of the loan amount that's required in collateralthe percentage will be *(10**2). I.e. collateralRatio of 5244 means 52.44% collateralis required in the loan. Interest rate is also a percentage with 2 decimal points.",
            "params": {
              "collateralAmount": "Amount of collateral required for the loan",
              "collateralToken": "Token address to use as collateral for the new loan",
              "request": "Struct of the protocol loan request"
            }
          }
        },
        "version": 1
      },
      "userdoc": {
        "kind": "user",
        "methods": {
          "takeOutLoan(((address,address,uint256,uint32,uint32,uint32),(address,address,uint256,uint32,uint16,uint16,(uint8,bytes32,bytes32))[]),address,uint256)": {
            "notice": "Take out a loan"
          }
        },
        "version": 1
      },
      "storageLayout": {
        "storage": [],
        "types": null
      }
    }
  ],
  "devdoc": {
    "kind": "dev",
    "methods": {
      "takeOutLoan(((address,address,uint256,uint32,uint32,uint32),(address,address,uint256,uint32,uint16,uint16,(uint8,bytes32,bytes32))[]),address,uint256)": {
        "details": "collateral ratio is a percentage of the loan amount that's required in collateralthe percentage will be *(10**2). I.e. collateralRatio of 5244 means 52.44% collateralis required in the loan. Interest rate is also a percentage with 2 decimal points.",
        "params": {
          "collateralAmount": "Amount of collateral required for the loan",
          "collateralToken": "Token address to use as collateral for the new loan",
          "request": "Struct of the protocol loan request"
        }
      }
    },
    "version": 1
  },
  "userdoc": {
    "kind": "user",
    "methods": {
      "takeOutLoan(((address,address,uint256,uint32,uint32,uint32),(address,address,uint256,uint32,uint16,uint16,(uint8,bytes32,bytes32))[]),address,uint256)": {
        "notice": "Take out a loan"
      }
    },
    "version": 1
  },
  "storageLayout": {
    "storage": [],
    "types": null
  }
}