{
  "address": "0x188be4905CC4d026e1FDe36B59Fc4AE8cbAb0646",
  "abi": [
    {
      "inputs": [],
      "stateMutability": "nonpayable",
      "type": "constructor"
    },
    {
      "anonymous": false,
      "inputs": [
        {
          "indexed": true,
          "internalType": "address",
          "name": "owner",
          "type": "address"
        },
        {
          "indexed": true,
          "internalType": "address",
          "name": "operator",
          "type": "address"
        },
        {
          "indexed": false,
          "internalType": "bool",
          "name": "approved",
          "type": "bool"
        }
      ],
      "name": "ApprovalForAll",
      "type": "event"
    },
    {
      "anonymous": false,
      "inputs": [
        {
          "indexed": true,
          "internalType": "bytes32",
          "name": "node",
          "type": "bytes32"
        },
        {
          "indexed": true,
          "internalType": "bytes32",
          "name": "label",
          "type": "bytes32"
        },
        {
          "indexed": false,
          "internalType": "address",
          "name": "owner",
          "type": "address"
        }
      ],
      "name": "NewOwner",
      "type": "event"
    },
    {
      "anonymous": false,
      "inputs": [
        {
          "indexed": true,
          "internalType": "bytes32",
          "name": "node",
          "type": "bytes32"
        },
        {
          "indexed": false,
          "internalType": "address",
          "name": "resolver",
          "type": "address"
        }
      ],
      "name": "NewResolver",
      "type": "event"
    },
    {
      "anonymous": false,
      "inputs": [
        {
          "indexed": true,
          "internalType": "bytes32",
          "name": "node",
          "type": "bytes32"
        },
        {
          "indexed": false,
          "internalType": "uint64",
          "name": "ttl",
          "type": "uint64"
        }
      ],
      "name": "NewTTL",
      "type": "event"
    },
    {
      "anonymous": false,
      "inputs": [
        {
          "indexed": true,
          "internalType": "bytes32",
          "name": "node",
          "type": "bytes32"
        },
        {
          "indexed": false,
          "internalType": "address",
          "name": "owner",
          "type": "address"
        }
      ],
      "name": "Transfer",
      "type": "event"
    },
    {
      "inputs": [
        {
          "internalType": "address",
          "name": "owner",
          "type": "address"
        },
        {
          "internalType": "address",
          "name": "operator",
          "type": "address"
        }
      ],
      "name": "isApprovedForAll",
      "outputs": [
        {
          "internalType": "bool",
          "name": "",
          "type": "bool"
        }
      ],
      "stateMutability": "view",
      "type": "function"
    },
    {
      "inputs": [
        {
          "internalType": "bytes32",
          "name": "node",
          "type": "bytes32"
        }
      ],
      "name": "owner",
      "outputs": [
        {
          "internalType": "address",
          "name": "",
          "type": "address"
        }
      ],
      "stateMutability": "view",
      "type": "function"
    },
    {
      "inputs": [
        {
          "internalType": "bytes32",
          "name": "node",
          "type": "bytes32"
        }
      ],
      "name": "recordExists",
      "outputs": [
        {
          "internalType": "bool",
          "name": "",
          "type": "bool"
        }
      ],
      "stateMutability": "view",
      "type": "function"
    },
    {
      "inputs": [
        {
          "internalType": "bytes32",
          "name": "node",
          "type": "bytes32"
        }
      ],
      "name": "resolver",
      "outputs": [
        {
          "internalType": "address",
          "name": "",
          "type": "address"
        }
      ],
      "stateMutability": "view",
      "type": "function"
    },
    {
      "inputs": [
        {
          "internalType": "address",
          "name": "operator",
          "type": "address"
        },
        {
          "internalType": "bool",
          "name": "approved",
          "type": "bool"
        }
      ],
      "name": "setApprovalForAll",
      "outputs": [],
      "stateMutability": "nonpayable",
      "type": "function"
    },
    {
      "inputs": [
        {
          "internalType": "bytes32",
          "name": "node",
          "type": "bytes32"
        },
        {
          "internalType": "address",
          "name": "owner",
          "type": "address"
        }
      ],
      "name": "setOwner",
      "outputs": [],
      "stateMutability": "nonpayable",
      "type": "function"
    },
    {
      "inputs": [
        {
          "internalType": "bytes32",
          "name": "node",
          "type": "bytes32"
        },
        {
          "internalType": "address",
          "name": "owner",
          "type": "address"
        },
        {
          "internalType": "address",
          "name": "resolver",
          "type": "address"
        },
        {
          "internalType": "uint64",
          "name": "ttl",
          "type": "uint64"
        }
      ],
      "name": "setRecord",
      "outputs": [],
      "stateMutability": "nonpayable",
      "type": "function"
    },
    {
      "inputs": [
        {
          "internalType": "bytes32",
          "name": "node",
          "type": "bytes32"
        },
        {
          "internalType": "address",
          "name": "resolver",
          "type": "address"
        }
      ],
      "name": "setResolver",
      "outputs": [],
      "stateMutability": "nonpayable",
      "type": "function"
    },
    {
      "inputs": [
        {
          "internalType": "bytes32",
          "name": "node",
          "type": "bytes32"
        },
        {
          "internalType": "bytes32",
          "name": "label",
          "type": "bytes32"
        },
        {
          "internalType": "address",
          "name": "owner",
          "type": "address"
        }
      ],
      "name": "setSubnodeOwner",
      "outputs": [
        {
          "internalType": "bytes32",
          "name": "",
          "type": "bytes32"
        }
      ],
      "stateMutability": "nonpayable",
      "type": "function"
    },
    {
      "inputs": [
        {
          "internalType": "bytes32",
          "name": "node",
          "type": "bytes32"
        },
        {
          "internalType": "bytes32",
          "name": "label",
          "type": "bytes32"
        },
        {
          "internalType": "address",
          "name": "owner",
          "type": "address"
        },
        {
          "internalType": "address",
          "name": "resolver",
          "type": "address"
        },
        {
          "internalType": "uint64",
          "name": "ttl",
          "type": "uint64"
        }
      ],
      "name": "setSubnodeRecord",
      "outputs": [],
      "stateMutability": "nonpayable",
      "type": "function"
    },
    {
      "inputs": [
        {
          "internalType": "bytes32",
          "name": "node",
          "type": "bytes32"
        },
        {
          "internalType": "uint64",
          "name": "ttl",
          "type": "uint64"
        }
      ],
      "name": "setTTL",
      "outputs": [],
      "stateMutability": "nonpayable",
      "type": "function"
    },
    {
      "inputs": [
        {
          "internalType": "bytes32",
          "name": "node",
          "type": "bytes32"
        }
      ],
      "name": "ttl",
      "outputs": [
        {
          "internalType": "uint64",
          "name": "",
          "type": "uint64"
        }
      ],
      "stateMutability": "view",
      "type": "function"
    }
  ],
  "artifactName": "ENSRegistry",
  "transactionHash": "0xa5d6189db10db6fa943b774f7cc1dce1ebb0ac1341becd7eae218e66efc3d64c",
  "args": [],
  "solcInputHash": "72974315af9eee2c5de273080157f330",
  "bytecode": "0x608060405234801561001057600080fd5b5060008080526020527fad3228b676f7d3cd4284a5443f17f1962b36e491b30a40b2405849e597ba5fb580546001600160a01b031916331790556109ad806100596000396000f3fe608060405234801561001057600080fd5b50600436106100b45760003560e01c80635b0fc9c3116100715780635b0fc9c3146101ab5780635ef2c7f0146101be578063a22cb465146101d1578063cf408823146101e4578063e985e9c5146101f7578063f79fe5381461024357600080fd5b80630178b8bf146100b957806302571be31461010257806306ab59231461011557806314ab90381461013657806316a25cbd1461014b5780631896f70a14610198575b600080fd5b6100e56100c7366004610845565b6000908152602081905260409020600101546001600160a01b031690565b6040516001600160a01b0390911681526020015b60405180910390f35b6100e5610110366004610845565b61026e565b6101286101233660046108cb565b61029d565b6040519081526020016100f9565b610149610144366004610955565b61036d565b005b61017f610159366004610845565b600090815260208190526040902060010154600160a01b900467ffffffffffffffff1690565b60405167ffffffffffffffff90911681526020016100f9565b6101496101a636600461085d565b610440565b6101496101b936600461085d565b610505565b6101496101cc3660046108ff565b6105a7565b6101496101df36600461080b565b6105c9565b6101496101f236600461087f565b610635565b6102336102053660046107d9565b6001600160a01b03918216600090815260016020908152604080832093909416825291909152205460ff1690565b60405190151581526020016100f9565b610233610251366004610845565b6000908152602081905260409020546001600160a01b0316151590565b6000818152602081905260408120546001600160a01b0316308114156102975750600092915050565b92915050565b60008381526020819052604081205484906001600160a01b0316338114806102e857506001600160a01b038116600090815260016020908152604080832033845290915290205460ff165b6102f157600080fd5b604080516020808201899052818301889052825180830384018152606090920190925280519101206103238186610650565b6040516001600160a01b0386168152869088907fce0457fe73731f824cc272376169235128c118b49d344817417c6d108d155e829060200160405180910390a39695505050505050565b60008281526020819052604090205482906001600160a01b0316338114806103b857506001600160a01b038116600090815260016020908152604080832033845290915290205460ff165b6103c157600080fd5b60405167ffffffffffffffff8416815284907f1d4f9bbfc9cab89d66e1a1562f2233ccbf1308cb4f63de2ead5787adddb8fa689060200160405180910390a25050600091825260208290526040909120600101805467ffffffffffffffff909216600160a01b0267ffffffffffffffff60a01b19909216919091179055565b60008281526020819052604090205482906001600160a01b03163381148061048b57506001600160a01b038116600090815260016020908152604080832033845290915290205460ff165b61049457600080fd5b6040516001600160a01b038416815284907f335721b01866dc23fbee8b6b2c7b1e14d6f05c28cd35a2c934239f94095602a09060200160405180910390a2505060009182526020829052604090912060010180546001600160a01b0319166001600160a01b03909216919091179055565b60008281526020819052604090205482906001600160a01b03163381148061055057506001600160a01b038116600090815260016020908152604080832033845290915290205460ff165b61055957600080fd5b6105638484610650565b6040516001600160a01b038416815284907fd4735d920b0f87494915f556dd9b54c8f309026070caea5c737245152564d2669060200160405180910390a250505050565b60006105b486868661029d565b90506105c181848461067e565b505050505050565b3360008181526001602090815260408083206001600160a01b03871680855290835292819020805460ff191686151590811790915590519081529192917f17307eab39ab6107e8899845ad3d59bd9653f200f220920489ca2b5937696c31910160405180910390a35050565b61063f8484610505565b61064a84838361067e565b50505050565b60009182526020829052604090912080546001600160a01b0319166001600160a01b03909216919091179055565b6000838152602081905260409020600101546001600160a01b03838116911614610704576000838152602081815260409182902060010180546001600160a01b0319166001600160a01b038616908117909155915191825284917f335721b01866dc23fbee8b6b2c7b1e14d6f05c28cd35a2c934239f94095602a0910160405180910390a25b60008381526020819052604090206001015467ffffffffffffffff828116600160a01b90920416146107a05760008381526020818152604091829020600101805467ffffffffffffffff60a01b1916600160a01b67ffffffffffffffff861690810291909117909155915191825284917f1d4f9bbfc9cab89d66e1a1562f2233ccbf1308cb4f63de2ead5787adddb8fa68910160405180910390a25b505050565b80356001600160a01b03811681146107bc57600080fd5b919050565b803567ffffffffffffffff811681146107bc57600080fd5b600080604083850312156107eb578182fd5b6107f4836107a5565b9150610802602084016107a5565b90509250929050565b6000806040838503121561081d578182fd5b610826836107a5565b91506020830135801515811461083a578182fd5b809150509250929050565b600060208284031215610856578081fd5b5035919050565b6000806040838503121561086f578182fd5b82359150610802602084016107a5565b60008060008060808587031215610894578182fd5b843593506108a4602086016107a5565b92506108b2604086016107a5565b91506108c0606086016107c1565b905092959194509250565b6000806000606084860312156108df578283fd5b83359250602084013591506108f6604085016107a5565b90509250925092565b600080600080600060a08688031215610916578081fd5b853594506020860135935061092d604087016107a5565b925061093b606087016107a5565b9150610949608087016107c1565b90509295509295909350565b60008060408385031215610967578182fd5b82359150610802602084016107c156fea2646970667358221220cddc71022358442f23619a16995122f97b2ef0588396037843148b534095d5eb64736f6c63430008040033",
  "devdoc": {
    "kind": "dev",
    "methods": {
      "constructor": {
        "details": "Constructs a new ENS registrar."
      },
      "isApprovedForAll(address,address)": {
        "details": "Query if an address is an authorized operator for another address.",
        "params": {
          "operator": "The address that acts on behalf of the owner.",
          "owner": "The address that owns the records."
        },
        "returns": {
          "_0": "True if `operator` is an approved operator for `owner`, false otherwise."
        }
      },
      "owner(bytes32)": {
        "details": "Returns the address that owns the specified node.",
        "params": {
          "node": "The specified node."
        },
        "returns": {
          "_0": "address of the owner."
        }
      },
      "recordExists(bytes32)": {
        "details": "Returns whether a record has been imported to the registry.",
        "params": {
          "node": "The specified node."
        },
        "returns": {
          "_0": "Bool if record exists"
        }
      },
      "resolver(bytes32)": {
        "details": "Returns the address of the resolver for the specified node.",
        "params": {
          "node": "The specified node."
        },
        "returns": {
          "_0": "address of the resolver."
        }
      },
      "setApprovalForAll(address,bool)": {
        "details": "Enable or disable approval for a third party (\"operator\") to manage  all of `msg.sender`'s ENS records. Emits the ApprovalForAll event.",
        "params": {
          "approved": "True if the operator is approved, false to revoke approval.",
          "operator": "Address to add to the set of authorized operators."
        }
      },
      "setOwner(bytes32,address)": {
        "details": "Transfers ownership of a node to a new address. May only be called by the current owner of the node.",
        "params": {
          "node": "The node to transfer ownership of.",
          "owner": "The address of the new owner."
        }
      },
      "setRecord(bytes32,address,address,uint64)": {
        "details": "Sets the record for a node.",
        "params": {
          "node": "The node to update.",
          "owner": "The address of the new owner.",
          "resolver": "The address of the resolver.",
          "ttl": "The TTL in seconds."
        }
      },
      "setResolver(bytes32,address)": {
        "details": "Sets the resolver address for the specified node.",
        "params": {
          "node": "The node to update.",
          "resolver": "The address of the resolver."
        }
      },
      "setSubnodeOwner(bytes32,bytes32,address)": {
        "details": "Transfers ownership of a subnode keccak256(node, label) to a new address. May only be called by the owner of the parent node.",
        "params": {
          "label": "The hash of the label specifying the subnode.",
          "node": "The parent node.",
          "owner": "The address of the new owner."
        }
      },
      "setSubnodeRecord(bytes32,bytes32,address,address,uint64)": {
        "details": "Sets the record for a subnode.",
        "params": {
          "label": "The hash of the label specifying the subnode.",
          "node": "The parent node.",
          "owner": "The address of the new owner.",
          "resolver": "The address of the resolver.",
          "ttl": "The TTL in seconds."
        }
      },
      "setTTL(bytes32,uint64)": {
        "details": "Sets the TTL for the specified node.",
        "params": {
          "node": "The node to update.",
          "ttl": "The TTL in seconds."
        }
      },
      "ttl(bytes32)": {
        "details": "Returns the TTL of a node, and any records associated with it.",
        "params": {
          "node": "The specified node."
        },
        "returns": {
          "_0": "ttl of the node."
        }
      }
    },
    "version": 1
  },
  "userdoc": {
    "kind": "user",
    "methods": {},
    "notice": "The ENS registry contract.",
    "version": 1
  },
  "storageLayout": {
    "storage": [
      {
        "astId": 2671,
        "contract": "@ensdomains/ens-contracts/contracts/registry/ENSRegistry.sol:ENSRegistry",
        "label": "records",
        "offset": 0,
        "slot": "0",
        "type": "t_mapping(t_bytes32,t_struct(Record)2666_storage)"
      },
      {
        "astId": 2677,
        "contract": "@ensdomains/ens-contracts/contracts/registry/ENSRegistry.sol:ENSRegistry",
        "label": "operators",
        "offset": 0,
        "slot": "1",
        "type": "t_mapping(t_address,t_mapping(t_address,t_bool))"
      }
    ],
    "types": {
      "t_address": {
        "encoding": "inplace",
        "label": "address",
        "numberOfBytes": "20"
      },
      "t_bool": {
        "encoding": "inplace",
        "label": "bool",
        "numberOfBytes": "1"
      },
      "t_bytes32": {
        "encoding": "inplace",
        "label": "bytes32",
        "numberOfBytes": "32"
      },
      "t_mapping(t_address,t_bool)": {
        "encoding": "mapping",
        "key": "t_address",
        "label": "mapping(address => bool)",
        "numberOfBytes": "32",
        "value": "t_bool"
      },
      "t_mapping(t_address,t_mapping(t_address,t_bool))": {
        "encoding": "mapping",
        "key": "t_address",
        "label": "mapping(address => mapping(address => bool))",
        "numberOfBytes": "32",
        "value": "t_mapping(t_address,t_bool)"
      },
      "t_mapping(t_bytes32,t_struct(Record)2666_storage)": {
        "encoding": "mapping",
        "key": "t_bytes32",
        "label": "mapping(bytes32 => struct ENSRegistry.Record)",
        "numberOfBytes": "32",
        "value": "t_struct(Record)2666_storage"
      },
      "t_struct(Record)2666_storage": {
        "encoding": "inplace",
        "label": "struct ENSRegistry.Record",
        "members": [
          {
            "astId": 2661,
            "contract": "@ensdomains/ens-contracts/contracts/registry/ENSRegistry.sol:ENSRegistry",
            "label": "owner",
            "offset": 0,
            "slot": "0",
            "type": "t_address"
          },
          {
            "astId": 2663,
            "contract": "@ensdomains/ens-contracts/contracts/registry/ENSRegistry.sol:ENSRegistry",
            "label": "resolver",
            "offset": 0,
            "slot": "1",
            "type": "t_address"
          },
          {
            "astId": 2665,
            "contract": "@ensdomains/ens-contracts/contracts/registry/ENSRegistry.sol:ENSRegistry",
            "label": "ttl",
            "offset": 20,
            "slot": "1",
            "type": "t_uint64"
          }
        ],
        "numberOfBytes": "64"
      },
      "t_uint64": {
        "encoding": "inplace",
        "label": "uint64",
        "numberOfBytes": "8"
      }
    }
  }
}