{
  "address": "0x60FD8B742dFc3f9c51C436EE15a1341886199791",
  "abi": [
    {
      "anonymous": false,
      "inputs": [
        {
          "indexed": false,
          "internalType": "address",
          "name": "tokenAddress",
          "type": "address"
        },
        {
          "indexed": false,
          "internalType": "uint256",
          "name": "index",
          "type": "uint256"
        }
      ],
      "name": "TokenAdded",
      "type": "event"
    },
    {
      "anonymous": false,
      "inputs": [
        {
          "indexed": false,
          "internalType": "address",
          "name": "tokenAddress",
          "type": "address"
        },
        {
          "indexed": false,
          "internalType": "uint256",
          "name": "index",
          "type": "uint256"
        }
      ],
      "name": "TokenRemoved",
      "type": "event"
    },
    {
      "anonymous": false,
      "inputs": [
        {
          "indexed": false,
          "internalType": "address",
          "name": "recipient",
          "type": "address"
        }
      ],
      "name": "TokensClaimed",
      "type": "event"
    },
    {
      "inputs": [],
      "name": "_updateImplementationStored",
      "outputs": [],
      "stateMutability": "nonpayable",
      "type": "function"
    },
    {
      "inputs": [],
      "name": "borrower",
      "outputs": [
        {
          "internalType": "address",
          "name": "",
          "type": "address"
        }
      ],
      "stateMutability": "view",
      "type": "function"
    },
    {
      "inputs": [],
      "name": "calculateTotalValue",
      "outputs": [
        {
          "internalType": "uint256",
          "name": "",
          "type": "uint256"
        }
      ],
      "stateMutability": "view",
      "type": "function"
    },
    {
      "inputs": [
        {
          "components": [
            {
              "internalType": "address",
              "name": "location",
              "type": "address"
            },
            {
              "internalType": "bytes",
              "name": "data",
              "type": "bytes"
            }
          ],
          "internalType": "struct TellerCommon.DappData",
          "name": "dappData",
          "type": "tuple"
        }
      ],
      "name": "callDapp",
      "outputs": [],
      "stateMutability": "nonpayable",
      "type": "function"
    },
    {
      "inputs": [],
      "name": "claimTokens",
      "outputs": [],
      "stateMutability": "nonpayable",
      "type": "function"
    },
    {
      "inputs": [
        {
          "internalType": "address",
          "name": "recipient",
          "type": "address"
        },
        {
          "internalType": "uint256",
          "name": "value",
          "type": "uint256"
        }
      ],
      "name": "claimTokensByCollateralValue",
      "outputs": [],
      "stateMutability": "nonpayable",
      "type": "function"
    },
    {
      "inputs": [],
      "name": "getTokens",
      "outputs": [
        {
          "internalType": "address[]",
          "name": "",
          "type": "address[]"
        }
      ],
      "stateMutability": "view",
      "type": "function"
    },
    {
      "inputs": [],
      "name": "implementationStored",
      "outputs": [
        {
          "internalType": "address",
          "name": "",
          "type": "address"
        }
      ],
      "stateMutability": "view",
      "type": "function"
    },
    {
      "inputs": [
        {
          "internalType": "address",
          "name": "settingsAddress",
          "type": "address"
        },
        {
          "internalType": "address",
          "name": "lendingPoolAddress",
          "type": "address"
        },
        {
          "internalType": "uint256",
          "name": "aLoanID",
          "type": "uint256"
        },
        {
          "internalType": "address",
          "name": "lendingTokenAddress",
          "type": "address"
        },
        {
          "internalType": "address",
          "name": "borrowerAddress",
          "type": "address"
        }
      ],
      "name": "initialize",
      "outputs": [],
      "stateMutability": "nonpayable",
      "type": "function"
    },
    {
      "inputs": [],
      "name": "lendingPool",
      "outputs": [
        {
          "internalType": "address",
          "name": "",
          "type": "address"
        }
      ],
      "stateMutability": "view",
      "type": "function"
    },
    {
      "inputs": [],
      "name": "lendingToken",
      "outputs": [
        {
          "internalType": "address",
          "name": "",
          "type": "address"
        }
      ],
      "stateMutability": "view",
      "type": "function"
    },
    {
      "inputs": [],
      "name": "loanID",
      "outputs": [
        {
          "internalType": "uint256",
          "name": "",
          "type": "uint256"
        }
      ],
      "stateMutability": "view",
      "type": "function"
    },
    {
      "inputs": [],
      "name": "loanManager",
      "outputs": [
        {
          "internalType": "contract ILoans",
          "name": "",
          "type": "address"
        }
      ],
      "stateMutability": "view",
      "type": "function"
    },
    {
      "inputs": [],
      "name": "logicName",
      "outputs": [
        {
          "internalType": "bytes32",
          "name": "",
          "type": "bytes32"
        }
      ],
      "stateMutability": "view",
      "type": "function"
    },
    {
      "inputs": [],
      "name": "logicRegistry",
      "outputs": [
        {
          "internalType": "contract LogicVersionsRegistryInterface",
          "name": "",
          "type": "address"
        }
      ],
      "stateMutability": "view",
      "type": "function"
    },
    {
      "inputs": [
        {
          "internalType": "uint256",
          "name": "amount",
          "type": "uint256"
        }
      ],
      "name": "repay",
      "outputs": [],
      "stateMutability": "nonpayable",
      "type": "function"
    },
    {
      "inputs": [],
      "name": "settings",
      "outputs": [
        {
          "internalType": "contract SettingsInterface",
          "name": "",
          "type": "address"
        }
      ],
      "stateMutability": "view",
      "type": "function"
    },
    {
      "inputs": [],
      "name": "strictDynamic",
      "outputs": [
        {
          "internalType": "bool",
          "name": "",
          "type": "bool"
        }
      ],
      "stateMutability": "view",
      "type": "function"
    },
    {
      "inputs": [
        {
          "internalType": "address",
          "name": "newImplementation",
          "type": "address"
        }
      ],
      "name": "upgradeProxyTo",
      "outputs": [],
      "stateMutability": "nonpayable",
      "type": "function"
    }
  ],
  "transactionHash": "0x6eb12da85fb5e53cb6da4810c11055b33cf67107ae8b561315d798a2a5e894a8",
  "args": [],
  "solcInputHash": "0c80e7fb8aff27a671cb2892ea4bafd6",
  "bytecode": "0x608060405234801561001057600080fd5b50612818806100206000396000f3fe608060405234801561001057600080fd5b50600436106101215760003560e01c80637df1f1b9116100ad578063aaaca55811610071578063aaaca5581461022f578063b3ccbcfe14610242578063b41304b114610255578063e06174e414610268578063e154e9a41461027b57610121565b80637df1f1b9146101d9578063a06101d0146101ec578063a59a9973146101f4578063a5f7b39614610207578063aa6ca8081461021a57610121565b8063371fd8e6116100f4578063371fd8e61461016857806337c3eedc1461017b57806348c54b9d146101a65780634f8654bc146101ae57806355dbd8eb146101c657610121565b80631eb83d5414610126578063215b0dc6146101305780632c26486d1461014c57806333e1a22314610155575b600080fd5b61012e610298565b005b61013960115481565b6040519081526020015b60405180910390f35b61013960015481565b61012e6101633660046122a8565b610367565b61012e610176366004612411565b6103ce565b60005461018e906001600160a01b031681565b6040516001600160a01b039091168152602001610143565b61012e6105b5565b60025461018e9061010090046001600160a01b031681565b61012e6101d4366004612270565b6107d9565b60135461018e906001600160a01b031681565b610139610858565b60105461018e906001600160a01b031681565b61012e61021536600461230f565b610af5565b610222610fe1565b60405161014391906124c6565b60125461018e906001600160a01b031681565b600f5461018e906001600160a01b031681565b61012e610263366004612373565b611046565b60045461018e906001600160a01b031681565b6002546102889060ff1681565b6040519015158152602001610143565b60008054600154604051638b51f58b60e01b81526001600160a01b0390921691638b51f58b916102ce9160040190815260200190565b60606040518083038186803b1580156102e657600080fd5b505afa1580156102fa573d6000803e3d6000fd5b505050506040513d601f19601f8201168201806040525081019061031e9190612441565b6002549093506001600160a01b038085166101009092041614915061036090505760028054610100600160a81b0319166101006001600160a01b038416021790555b5043600355565b610370856113eb565b600f8054336001600160a01b0319918216179091556010805482166001600160a01b03878116919091179091556011859055601280548316858316179055601380549092169083161790556103c6601483611455565b505050505050565b6103d661155b565b156103e3576103e3610298565b6013546001600160a01b031633146104165760405162461bcd60e51b815260040161040d90612546565b60405180910390fd5b61041e611583565b1561043b5760405162461bcd60e51b815260040161040d9061256c565b6012546001600160a01b031660006104528261160b565b600f54601154604051623b929360e81b81529293506000926001600160a01b0390921691633b9293009161048c9160040190815260200190565b60206040518083038186803b1580156104a457600080fd5b505afa1580156104b8573d6000803e3d6000fd5b505050506040513d601f19601f820116820180604052508101906104dc9190612429565b905080821080156104ec57508184115b1561052c57600081851161050957610504858461168d565b610513565b610513828461168d565b905061052a6001600160a01b0385163330846116a0565b505b601054610546906001600160a01b0385811691168661170b565b600f5460115460405163d8aed14560e01b81526004810187905260248101919091526001600160a01b039091169063d8aed14590604401600060405180830381600087803b15801561059757600080fd5b505af11580156105ab573d6000803e3d6000fd5b5050505050505050565b6105bd61155b565b156105ca576105ca610298565b6013546001600160a01b031633146105f45760405162461bcd60e51b815260040161040d90612546565b6105fc611583565b156106195760405162461bcd60e51b815260040161040d9061256c565b600f546011546040516342d21ef760e01b815260048101919091526003916001600160a01b0316906342d21ef79060240160206040518083038186803b15801561066257600080fd5b505afa158015610676573d6000803e3d6000fd5b505050506040513d601f19601f8201168201806040525081019061069a9190612354565b60038111156106b957634e487b7160e01b600052602160045260246000fd5b146106f85760405162461bcd60e51b815260206004820152600f60248201526e1313d05397d393d517d0d313d4d151608a1b604482015260640161040d565b6000610702610fe1565b905060005b81518110156107a257600061074283838151811061073557634e487b7160e01b600052603260045260246000fd5b602002602001015161160b565b9050801561078f5761078f338285858151811061076f57634e487b7160e01b600052603260045260246000fd5b60200260200101516001600160a01b03166118349092919063ffffffff16565b508061079a81612799565b915050610707565b506040513381527fb638240958296a5b145c2f18c8ec62f72a20911efab2d38fb48c76695373761f9060200160405180910390a150565b6000546001600160a01b0316331461082c5760405162461bcd60e51b81526020600482015260166024820152754d5553545f42455f4c4f4749435f524547495354525960501b604482015260640161040d565b600280546001600160a01b0390921661010002610100600160a81b031990921691909117905543600355565b6000806000610865610fe1565b905060005b8151811015610a5257600480546040805163040141e560e01b815290516001600160a01b039092169263040141e5928282019260209290829003018186803b1580156108b557600080fd5b505afa1580156108c9573d6000803e3d6000fd5b505050506040513d601f19601f820116820180604052508101906108ed919061228c565b6001600160a01b031682828151811061091657634e487b7160e01b600052603260045260246000fd5b60200260200101516001600160a01b031614156109615761095a61095383838151811061073557634e487b7160e01b600052603260045260246000fd5b8490611864565b9250610a40565b610a3d61095383838151811061098757634e487b7160e01b600052603260045260246000fd5b6020026020010151600460009054906101000a90046001600160a01b03166001600160a01b031663a734f06e6040518163ffffffff1660e01b815260040160206040518083038186803b1580156109dd57600080fd5b505afa1580156109f1573d6000803e3d6000fd5b505050506040513d601f19601f82011682018060405250810190610a15919061228c565b610a3886868151811061073557634e487b7160e01b600052603260045260246000fd5b611870565b92505b80610a4a81612799565b91505061086a565b50610aee600460009054906101000a90046001600160a01b03166001600160a01b031663a734f06e6040518163ffffffff1660e01b815260040160206040518083038186803b158015610aa457600080fd5b505afa158015610ab8573d6000803e3d6000fd5b505050506040513d601f19601f82011682018060405250810190610adc919061228c565b6012546001600160a01b031684611870565b9250505090565b610afd61155b565b15610b0a57610b0a610298565b610b12611583565b15610b2f5760405162461bcd60e51b815260040161040d9061256c565b600f546011546040516342d21ef760e01b815260048101919091526003916001600160a01b0316906342d21ef79060240160206040518083038186803b158015610b7857600080fd5b505afa158015610b8c573d6000803e3d6000fd5b505050506040513d601f19601f82011682018060405250810190610bb09190612354565b6003811115610bcf57634e487b7160e01b600052602160045260246000fd5b14610c0e5760405162461bcd60e51b815260206004820152600f60248201526e1313d05397d393d517d0d313d4d151608a1b604482015260640161040d565b600f54601154604051635ea2a2cf60e01b81526001600160a01b0390921691635ea2a2cf91610c439160040190815260200190565b60206040518083038186803b158015610c5b57600080fd5b505afa158015610c6f573d6000803e3d6000fd5b505050506040513d601f19601f82011682018060405250810190610c93919061233a565b610cd55760405162461bcd60e51b81526020600482015260136024820152721313d05397d393d517d3125455525110551151606a1b604482015260640161040d565b600f546001600160a01b03163314610d265760405162461bcd60e51b815260206004820152601460248201527343414c4c45525f4d5553545f42455f4c4f414e5360601b604482015260640161040d565b6000610d30610fe1565b90508160005b8251811015610f9e5781610d4957610f9e565b6000610d6e84838151811061073557634e487b7160e01b600052603260045260246000fd5b90508015610f8b57600f5460408051632c805af560e21b815290516000926001600160a01b03169163b2016bd4916004808301926020929190829003018186803b158015610dbb57600080fd5b505afa158015610dcf573d6000803e3d6000fd5b505050506040513d601f19601f82011682018060405250810190610df3919061228c565b6001600160a01b0316858481518110610e1c57634e487b7160e01b600052603260045260246000fd5b60200260200101516001600160a01b031614610eee57610ee9858481518110610e5557634e487b7160e01b600052603260045260246000fd5b6020026020010151600f60009054906101000a90046001600160a01b03166001600160a01b031663b2016bd46040518163ffffffff1660e01b815260040160206040518083038186803b158015610eab57600080fd5b505afa158015610ebf573d6000803e3d6000fd5b505050506040513d601f19601f82011682018060405250810190610ee3919061228c565b84611870565b610ef0565b815b9050838111610f2f57610f1e878287868151811061076f57634e487b7160e01b600052603260045260246000fd5b610f28848261168d565b9350610f59565b610f54878587868151811061076f57634e487b7160e01b600052603260045260246000fd5b600093505b610f89858481518110610f7c57634e487b7160e01b600052603260045260246000fd5b6020026020010151611d65565b505b5080610f9681612799565b915050610d36565b506040516001600160a01b03851681527fb638240958296a5b145c2f18c8ec62f72a20911efab2d38fb48c76695373761f9060200160405180910390a150505050565b6060601460000180548060200260200160405190810160405280929190818152602001828054801561103c57602002820191906000526020600020905b81546001600160a01b0316815260019091019060200180831161101e575b5050505050905090565b61104e61155b565b1561105b5761105b610298565b6013546001600160a01b031633146110855760405162461bcd60e51b815260040161040d90612546565b61108d611583565b156110aa5760405162461bcd60e51b815260040161040d9061256c565b6000600460009054906101000a90046001600160a01b03166001600160a01b031663de0ca1666040518163ffffffff1660e01b815260040160206040518083038186803b1580156110fa57600080fd5b505afa15801561110e573d6000803e3d6000fd5b505050506040513d601f19601f82011682018060405250810190611132919061228c565b6001600160a01b03166355670f3161114d6020850185612270565b6040516001600160e01b031960e084901b1681526001600160a01b039091166004820152602401604080518083038186803b15801561118b57600080fd5b505afa15801561119f573d6000803e3d6000fd5b505050506040513d601f19601f820116820180604052508101906111c391906123ab565b805190915061120b5760405162461bcd60e51b81526020600482015260146024820152731110541417d393d517d5d2125511531254d5115160621b604482015260640161040d565b80602001518061129b5750600f546011546040516302151da360e61b81526001600160a01b039092169163854768c09161124b9160040190815260200190565b60206040518083038186803b15801561126357600080fd5b505afa158015611277573d6000803e3d6000fd5b505050506040513d601f19601f8201168201806040525081019061129b919061233a565b6112e75760405162461bcd60e51b815260206004820152601a60248201527f444150505f554e534543555245445f4e4f545f414c4c4f574544000000000000604482015260640161040d565b60006112f66020840184612270565b6001600160a01b0316635c60da1b6040518163ffffffff1660e01b815260040160206040518083038186803b15801561132e57600080fd5b505afa158015611342573d6000803e3d6000fd5b505050506040513d601f19601f82011682018060405250810190611366919061228c565b905060006001600160a01b0382166113816020860186612598565b60405161138f92919061249a565b600060405180830381855af49150503d80600081146113ca576040519150601f19603f3d011682016040523d82523d6000602084013e6113cf565b606091505b50509050806113e5576040513d806000833e8082fd5b50505050565b60408051808201909152601981527f53455454494e47535f4d5553545f42455f50524f5649444544000000000000006020820152611433906001600160a01b03831690611e39565b600480546001600160a01b0319166001600160a01b0392909216919091179055565b60006114a86040518060400160405280601981526020017f454d5054595f414444524553535f4e4f545f414c4c4f57454400000000000000815250836001600160a01b0316611e3990919063ffffffff16565b60006114b48484611e61565b50905080156114f65760405162461bcd60e51b815260206004820152600e60248201526d414444524553535f45584953545360901b604482015260640161040d565b83546001808201865560008681526020902090910180546001600160a01b0319166001600160a01b03861617905561152c855490565b6115369190612756565b6001600160a01b03909316600090815260019094016020525050604090912081905590565b60025460009060ff16801561157e575043600354600161157b91906125dd565b11155b905090565b6000600460009054906101000a90046001600160a01b03166001600160a01b031663b187bd266040518163ffffffff1660e01b815260040160206040518083038186803b1580156115d357600080fd5b505afa1580156115e7573d6000803e3d6000fd5b505050506040513d601f19601f8201168201806040525081019061157e919061233a565b6040516370a0823160e01b81523060048201526000906001600160a01b038316906370a082319060240160206040518083038186803b15801561164d57600080fd5b505afa158015611661573d6000803e3d6000fd5b505050506040513d601f19601f820116820180604052508101906116859190612429565b90505b919050565b60006116998284612756565b9392505050565b6040516001600160a01b03808516602483015283166044820152606481018290526113e59085906323b872dd60e01b906084015b60408051601f198184030181529190526020810180516001600160e01b03166001600160e01b031990931692909217909152611ece565b8015806117945750604051636eb1769f60e11b81523060048201526001600160a01b03838116602483015284169063dd62ed3e9060440160206040518083038186803b15801561175a57600080fd5b505afa15801561176e573d6000803e3d6000fd5b505050506040513d601f19601f820116820180604052508101906117929190612429565b155b6117ff5760405162461bcd60e51b815260206004820152603660248201527f5361666545524332303a20617070726f76652066726f6d206e6f6e2d7a65726f60448201527520746f206e6f6e2d7a65726f20616c6c6f77616e636560501b606482015260840161040d565b6040516001600160a01b03831660248201526044810182905261182f90849063095ea7b360e01b906064016116d4565b505050565b6040516001600160a01b03831660248201526044810182905261182f90849063a9059cbb60e01b906064016116d4565b600061169982846125dd565b60408051600481526024810182526020810180516001600160e01b031663182df0f560e01b179052905160009182916060916001600160a01b038816916118b791906124aa565b600060405180830381855afa9150503d80600081146118f2576040519150601f19603f3d011682016040523d82523d6000602084013e6118f7565b606091505b5090925090508161194a5760405162461bcd60e51b815260206004820152601760248201527f45584348414e47455f524154455f43414c4c5f4641494c000000000000000000604482015260640161040d565b805115611c57576000866001600160a01b031663313ce5676040518163ffffffff1660e01b815260040160206040518083038186803b15801561198c57600080fd5b505afa1580156119a0573d6000803e3d6000fd5b505050506040513d601f19601f820116820180604052508101906119c49190612479565b90506000828060200190518101906119dc9190612429565b905060006119ee601260ff8516611fa0565b6119f990600a61265b565b905060128360ff161115611a1857611a118282611fc2565b9150611a25565b611a228282611fce565b91505b6000600460009054906101000a90046001600160a01b03166001600160a01b0316634ab45d336040518163ffffffff1660e01b815260040160206040518083038186803b158015611a7557600080fd5b505afa158015611a89573d6000803e3d6000fd5b505050506040513d601f19601f82011682018060405250810190611aad919061228c565b6001600160a01b03168a6001600160a01b03161415611b4b57600480546040805163539a783760e11b815290516001600160a01b039092169263a734f06e928282019260209290829003018186803b158015611b0857600080fd5b505afa158015611b1c573d6000803e3d6000fd5b505050506040513d601f19601f82011682018060405250810190611b40919061228c565b995060129050611c32565b896001600160a01b0316636f307dc36040518163ffffffff1660e01b815260040160206040518083038186803b158015611b8457600080fd5b505afa158015611b98573d6000803e3d6000fd5b505050506040513d601f19601f82011682018060405250810190611bbc919061228c565b9950896001600160a01b031663313ce5676040518163ffffffff1660e01b815260040160206040518083038186803b158015611bf757600080fd5b505afa158015611c0b573d6000803e3d6000fd5b505050506040513d601f19601f82011682018060405250810190611c2f9190612479565b90505b611c50611c4082600a61266a565b611c4a8a86611fc2565b90611fce565b9750505050505b6004805460408051633078fff560e01b815290516001600160a01b0390921692633078fff5928282019260209290829003018186803b158015611c9957600080fd5b505afa158015611cad573d6000803e3d6000fd5b505050506040513d601f19601f82011682018060405250810190611cd1919061228c565b60405163036ec87560e61b81526001600160a01b038881166004830152878116602483015260448201879052919091169063dbb21d409060640160206040518083038186803b158015611d2357600080fd5b505afa158015611d37573d6000803e3d6000fd5b505050506040513d601f19601f82011682018060405250810190611d5b9190612429565b9695505050505050565b600080611d73601484611e61565b915091506000611d828461160b565b1115611de15781611ddc57611d98601484611455565b50604080516001600160a01b0385168152602081018390527ff4c563a3ea86ff1f4275e8c207df0375a51963f2b831b7bf4da8be938d92876c910160405180910390a15b61182f565b811561182f57611df2601482611fda565b604080516001600160a01b0385168152602081018390527fbe9bb4bdca0a094babd75e3a98b1d2e2390633430d0a2f6e2b9970e2ee03fb2e910160405180910390a1505050565b806001600160a01b03831661182f5760405162461bcd60e51b815260040161040d9190612513565b8154600090819015611ec757506001600160a01b03821660008181526001850160205260409020548454909190859083908110611eae57634e487b7160e01b600052603260045260246000fd5b6000918252602090912001546001600160a01b03161491505b9250929050565b6000611f23826040518060400160405280602081526020017f5361666545524332303a206c6f772d6c6576656c2063616c6c206661696c6564815250856001600160a01b0316611fe89092919063ffffffff16565b80519091501561182f5780806020019051810190611f41919061233a565b61182f5760405162461bcd60e51b815260206004820152602a60248201527f5361666545524332303a204552433230206f7065726174696f6e20646964206e6044820152691bdd081cdd58d8d9595960b21b606482015260840161040d565b6000828211611fb857611fb3838361168d565b611699565b611699828461168d565b60006116998284612737565b600061169982846125f5565b611fe48282611fff565b5050565b6060611ff784846000856120ff565b949350505050565b8154811061200c57611fe4565b815461201a90600190612756565b81146120bb578154829061203090600190612756565b8154811061204e57634e487b7160e01b600052603260045260246000fd5b9060005260206000200160009054906101000a90046001600160a01b031682828154811061208c57634e487b7160e01b600052603260045260246000fd5b9060005260206000200160006101000a8154816001600160a01b0302191690836001600160a01b031602179055505b818054806120d957634e487b7160e01b600052603160045260246000fd5b600082815260209020810160001990810180546001600160a01b03191690550190555050565b6060824710156121605760405162461bcd60e51b815260206004820152602660248201527f416464726573733a20696e73756666696369656e742062616c616e636520666f6044820152651c8818d85b1b60d21b606482015260840161040d565b843b6121ae5760405162461bcd60e51b815260206004820152601d60248201527f416464726573733a2063616c6c20746f206e6f6e2d636f6e7472616374000000604482015260640161040d565b600080866001600160a01b031685876040516121ca91906124aa565b60006040518083038185875af1925050503d8060008114612207576040519150601f19603f3d011682016040523d82523d6000602084013e61220c565b606091505b509150915061221c828286612227565b979650505050505050565b60608315612236575081611699565b8251156122465782518084602001fd5b8160405162461bcd60e51b815260040161040d9190612513565b8051801515811461168857600080fd5b600060208284031215612281578081fd5b8135611699816127ca565b60006020828403121561229d578081fd5b8151611699816127ca565b600080600080600060a086880312156122bf578081fd5b85356122ca816127ca565b945060208601356122da816127ca565b93506040860135925060608601356122f1816127ca565b91506080860135612301816127ca565b809150509295509295909350565b60008060408385031215612321578182fd5b823561232c816127ca565b946020939093013593505050565b60006020828403121561234b578081fd5b61169982612260565b600060208284031215612365578081fd5b815160048110611699578182fd5b600060208284031215612384578081fd5b813567ffffffffffffffff81111561239a578182fd5b820160408185031215611699578182fd5b6000604082840312156123bc578081fd5b6040516040810181811067ffffffffffffffff821117156123eb57634e487b7160e01b83526041600452602483fd5b6040526123f783612260565b815261240560208401612260565b60208201529392505050565b600060208284031215612422578081fd5b5035919050565b60006020828403121561243a578081fd5b5051919050565b600080600060608486031215612455578283fd5b8351925060208401519150604084015161246e816127ca565b809150509250925092565b60006020828403121561248a578081fd5b815160ff81168114611699578182fd5b6000828483379101908152919050565b600082516124bc81846020870161276d565b9190910192915050565b6020808252825182820181905260009190848201906040850190845b818110156125075783516001600160a01b0316835292840192918401916001016124e2565b50909695505050505050565b600060208252825180602084015261253281604085016020870161276d565b601f01601f19169190910160400192915050565b6020808252600c908201526b2727aa2fa127a92927aba2a960a11b604082015260600190565b602080825260129082015271141310551193d49357d254d7d4105554d15160721b604082015260600190565b6000808335601e198436030181126125ae578283fd5b83018035915067ffffffffffffffff8211156125c8578283fd5b602001915036819003821315611ec757600080fd5b600082198211156125f0576125f06127b4565b500190565b60008261261057634e487b7160e01b81526012600452602481fd5b500490565b80825b60018086116126275750612652565b818704821115612639576126396127b4565b8086161561264657918102915b9490941c938002612618565b94509492505050565b60006116996000198484612678565b600061169960001960ff8516845b60008261268757506001611699565b8161269457506000611699565b81600181146126aa57600281146126b4576126e1565b6001915050611699565b60ff8411156126c5576126c56127b4565b6001841b9150848211156126db576126db6127b4565b50611699565b5060208310610133831016604e8410600b841016171561270f575081810a83811115611fb357611fb36127b4565b61271c8484846001612615565b80860482111561272e5761272e6127b4565b02949350505050565b6000816000190483118215151615612751576127516127b4565b500290565b600082821015612768576127686127b4565b500390565b60005b83811015612788578181015183820152602001612770565b838111156113e55750506000910152565b60006000198214156127ad576127ad6127b4565b5060010190565b634e487b7160e01b600052601160045260246000fd5b6001600160a01b03811681146127df57600080fd5b5056fea26469706673582212203020ccf6f5efe2d53470ddfeac443d3c84d8da837364ace535c7b57cfb8ab21064736f6c63430008030033",
  "devdoc": {
    "author": "develop@teller.finance",
    "kind": "dev",
    "methods": {
      "_updateImplementationStored()": {
        "details": "It uses the LogicVersionsRegistry contract to get the logic address or the cached address if valid.It caches the current logic address for the proxy to reduce gas on subsequent calls within the same block."
      },
      "calculateTotalValue()": {
        "returns": {
          "_0": "Escrow total value denoted in the lending token."
        }
      },
      "callDapp((address,bytes))": {
        "params": {
          "dappData": "the current dapp data to be executed."
        }
      },
      "claimTokens()": {
        "details": "The loan must not be active.The recipient must be the loan borrower AND the loan must be already liquidated."
      },
      "claimTokensByCollateralValue(address,uint256)": {
        "details": "The loan must not be activeThe loan must be liquidatedThe recipeient must be the loan manager",
        "params": {
          "recipient": "address to send the tokens to",
          "value": "The value of escrow held tokens, to be claimed based on collateral value"
        }
      },
      "getTokens()": {
        "returns": {
          "_0": "The list of all tokens held by this contract."
        }
      },
      "initialize(address,address,uint256,address,address)": {
        "params": {
          "aLoanID": "the loan ID associated to this escrow instance.",
          "borrowerAddress": "e",
          "lendingPoolAddress": "e",
          "lendingTokenAddress": "The token that the Escrow loan will be for.",
          "settingsAddress": "The address of the settings contract."
        }
      },
      "repay(uint256)": {
        "details": "If the Escrow's balance of the borrowed token is less than the amount to repay, transfer tokens from the sender's wallet.Only the owner of the Escrow can call this. If someone else wants to make a payment, they should call the loan manager directly."
      }
    },
    "version": 1
  },
  "userdoc": {
    "events": {
      "TokenAdded(address,uint256)": {
        "notice": "This event is emitted when a new token is added to this Escrow."
      },
      "TokenRemoved(address,uint256)": {
        "notice": "This event is emitted when a new token is removed from this Escrow."
      },
      "TokensClaimed(address)": {
        "notice": "Notifies when the Escrow's tokens have been claimed."
      }
    },
    "kind": "user",
    "methods": {
      "_updateImplementationStored()": {
        "notice": "Updates the current implementation logic address for the stored logic name."
      },
      "borrower()": {
        "notice": "Holds the borrower's address that owns this Escrow loan."
      },
      "calculateTotalValue()": {
        "notice": "Calculate the value of the loan by getting the value of all tokens the Escrow owns."
      },
      "callDapp((address,bytes))": {
        "notice": "It calls a given dapp using a delegatecall function by a borrower owned the current loan id associated to this escrow contract."
      },
      "claimTokens()": {
        "notice": "Sends the tokens owned by this escrow to the owner."
      },
      "claimTokensByCollateralValue(address,uint256)": {
        "notice": "Send the equivilant of tokens owned by this escrow (in collateral value) to the recipient,"
      },
      "getTokens()": {
        "notice": "Returns an array of token addresses, for which this Escrow contract has a balance."
      },
      "implementationStored()": {
        "notice": "It stores the last known logic address locally to reduce gas costs."
      },
      "initialize(address,address,uint256,address,address)": {
        "notice": "It initializes this escrow instance for a given loan manager address and loan id."
      },
      "lendingPool()": {
        "notice": "Holds the address of the LendingPool used for this Escrow loan."
      },
      "lendingToken()": {
        "notice": "Holds the token that this Escrow loan was taken out with."
      },
      "loanID()": {
        "notice": "Holds the loan ID of the loan for this Escrow in the LoansManager contract."
      },
      "loanManager()": {
        "notice": "Holds the instance of the associated LoanManager contract for this Escrow loan."
      },
      "logicName()": {
        "notice": "It represent the logic name (key) used for this proxy."
      },
      "logicRegistry()": {
        "notice": "It returns the logic registry that is used to determine the implementation logic for this proxy."
      },
      "repay(uint256)": {
        "notice": "Repay this Escrow's loan."
      },
      "settings()": {
        "notice": "It holds the platform Settings instance."
      },
      "strictDynamic()": {
        "notice": "Boolean indicating if the proxy must check the registry for a new implementation."
      },
      "upgradeProxyTo(address)": {
        "notice": "It updates a proxy's cached implementation address.It must only be called by the LogicVersionsRegistry for non strict DynamicProxy"
      }
    },
    "notice": "This contract is used by borrowers to call Dapp functions (using delegate calls).This contract should only be constructed using it's upgradeable Proxy contract.In order to call a Dapp function, the Dapp must be added in the DappRegistry instance.",
    "version": 1
  },
  "storageLayout": {
    "storage": [
      {
        "astId": 13960,
        "contract": "contracts/base/escrow/Escrow.sol:Escrow",
        "label": "logicRegistry",
        "offset": 0,
        "slot": "0",
        "type": "t_contract(LogicVersionsRegistryInterface)14789"
      },
      {
        "astId": 13963,
        "contract": "contracts/base/escrow/Escrow.sol:Escrow",
        "label": "logicName",
        "offset": 0,
        "slot": "1",
        "type": "t_bytes32"
      },
      {
        "astId": 13966,
        "contract": "contracts/base/escrow/Escrow.sol:Escrow",
        "label": "strictDynamic",
        "offset": 0,
        "slot": "2",
        "type": "t_bool"
      },
      {
        "astId": 13969,
        "contract": "contracts/base/escrow/Escrow.sol:Escrow",
        "label": "implementationStored",
        "offset": 1,
        "slot": "2",
        "type": "t_address"
      },
      {
        "astId": 13972,
        "contract": "contracts/base/escrow/Escrow.sol:Escrow",
        "label": "_implementationBlockUpdated",
        "offset": 0,
        "slot": "3",
        "type": "t_uint256"
      },
      {
        "astId": 1898,
        "contract": "contracts/base/escrow/Escrow.sol:Escrow",
        "label": "settings",
        "offset": 0,
        "slot": "4",
        "type": "t_contract(SettingsInterface)15153"
      },
      {
        "astId": 1903,
        "contract": "contracts/base/escrow/Escrow.sol:Escrow",
        "label": "__gap",
        "offset": 0,
        "slot": "5",
        "type": "t_array(t_uint256)10_storage"
      },
      {
        "astId": 4821,
        "contract": "contracts/base/escrow/Escrow.sol:Escrow",
        "label": "loanManager",
        "offset": 0,
        "slot": "15",
        "type": "t_contract(ILoans)15763"
      },
      {
        "astId": 4824,
        "contract": "contracts/base/escrow/Escrow.sol:Escrow",
        "label": "lendingPool",
        "offset": 0,
        "slot": "16",
        "type": "t_address"
      },
      {
        "astId": 4827,
        "contract": "contracts/base/escrow/Escrow.sol:Escrow",
        "label": "loanID",
        "offset": 0,
        "slot": "17",
        "type": "t_uint256"
      },
      {
        "astId": 4830,
        "contract": "contracts/base/escrow/Escrow.sol:Escrow",
        "label": "lendingToken",
        "offset": 0,
        "slot": "18",
        "type": "t_address"
      },
      {
        "astId": 4833,
        "contract": "contracts/base/escrow/Escrow.sol:Escrow",
        "label": "borrower",
        "offset": 0,
        "slot": "19",
        "type": "t_address"
      },
      {
        "astId": 4836,
        "contract": "contracts/base/escrow/Escrow.sol:Escrow",
        "label": "tokens",
        "offset": 0,
        "slot": "20",
        "type": "t_struct(AddressArray)17340_storage"
      }
    ],
    "types": {
      "t_address": {
        "encoding": "inplace",
        "label": "address",
        "numberOfBytes": "20"
      },
      "t_array(t_address)dyn_storage": {
        "base": "t_address",
        "encoding": "dynamic_array",
        "label": "address[]",
        "numberOfBytes": "32"
      },
      "t_array(t_uint256)10_storage": {
        "base": "t_uint256",
        "encoding": "inplace",
        "label": "uint256[10]",
        "numberOfBytes": "320"
      },
      "t_bool": {
        "encoding": "inplace",
        "label": "bool",
        "numberOfBytes": "1"
      },
      "t_bytes32": {
        "encoding": "inplace",
        "label": "bytes32",
        "numberOfBytes": "32"
      },
      "t_contract(ILoans)15763": {
        "encoding": "inplace",
        "label": "contract ILoans",
        "numberOfBytes": "20"
      },
      "t_contract(LogicVersionsRegistryInterface)14789": {
        "encoding": "inplace",
        "label": "contract LogicVersionsRegistryInterface",
        "numberOfBytes": "20"
      },
      "t_contract(SettingsInterface)15153": {
        "encoding": "inplace",
        "label": "contract SettingsInterface",
        "numberOfBytes": "20"
      },
      "t_mapping(t_address,t_uint256)": {
        "encoding": "mapping",
        "key": "t_address",
        "label": "mapping(address => uint256)",
        "numberOfBytes": "32",
        "value": "t_uint256"
      },
      "t_struct(AddressArray)17340_storage": {
        "encoding": "inplace",
        "label": "struct AddressArrayLib.AddressArray",
        "members": [
          {
            "astId": 17335,
            "contract": "contracts/base/escrow/Escrow.sol:Escrow",
            "label": "array",
            "offset": 0,
            "slot": "0",
            "type": "t_array(t_address)dyn_storage"
          },
          {
            "astId": 17339,
            "contract": "contracts/base/escrow/Escrow.sol:Escrow",
            "label": "indices",
            "offset": 0,
            "slot": "1",
            "type": "t_mapping(t_address,t_uint256)"
          }
        ],
        "numberOfBytes": "64"
      },
      "t_uint256": {
        "encoding": "inplace",
        "label": "uint256",
        "numberOfBytes": "32"
      }
    }
  }
}