{
  "address": "0xcA79e8EEAe776AFfC65f539d6cdA998a76b250FE",
  "abi": [
    {
      "anonymous": false,
      "inputs": [
        {
          "indexed": true,
          "internalType": "address",
          "name": "sender",
          "type": "address"
        },
        {
          "indexed": false,
          "internalType": "address",
          "name": "asset",
          "type": "address"
        }
      ],
      "name": "LendingPoolInitialized",
      "type": "event"
    },
    {
      "inputs": [
        {
          "internalType": "address",
          "name": "asset",
          "type": "address"
        }
      ],
      "name": "getTTokenFor",
      "outputs": [
        {
          "internalType": "address",
          "name": "tToken_",
          "type": "address"
        }
      ],
      "stateMutability": "view",
      "type": "function"
    },
    {
      "inputs": [
        {
          "internalType": "address",
          "name": "asset",
          "type": "address"
        }
      ],
      "name": "initLendingPool",
      "outputs": [],
      "stateMutability": "nonpayable",
      "type": "function"
    },
    {
      "inputs": [
        {
          "internalType": "address",
          "name": "asset",
          "type": "address"
        },
        {
          "internalType": "uint256",
          "name": "amount",
          "type": "uint256"
        }
      ],
      "name": "lendingPoolDeposit",
      "outputs": [],
      "stateMutability": "nonpayable",
      "type": "function"
    }
  ],
  "artifactName": "LendingFacet",
  "transactionHash": "0x44bcc74a2822576a995464af095d0a2d46d016182f078b5d2194d4b2a8af60fd",
  "args": [],
  "solcInputHash": "7646e63ef89d3687a032672685314b8f",
  "bytecode": "0x608060405234801561001057600080fd5b50610dcb806100206000396000f3fe608060405234801561001057600080fd5b50600436106100415760003560e01c80635a601668146100465780638a4f4f921461005b5780639912dde81461006e575b600080fd5b610059610054366004610c43565b61009d565b005b610059610069366004610c7b565b610318565b61008161007c366004610c43565b610765565b6040516001600160a01b03909116815260200160405180910390f35b7fdf8b4c520ffe197c5343c6f5aec59570151ef9a492f2c624fd45ddde6135ec42336100c98282610776565b61011a5760405162461bcd60e51b815260206004820152601d60248201527f416363657373436f6e74726f6c3a206e6f7420617574686f72697a656400000060448201526064015b60405180910390fd5b6000610125846107aa565b6001600160a01b03161461018c5760405162461bcd60e51b815260206004820152602860248201527f54656c6c65723a206c656e64696e6720706f6f6c20616c726561647920696e696044820152671d1a585b1a5e995960c21b6064820152608401610111565b600080600a01546040516327662c6960e11b815260206004820152600060248201526001600160a01b0390911690634ecc58d290604401602060405180830381600087803b1580156101dd57600080fd5b505af11580156101f1573d6000803e3d6000fd5b505050506040513d601f19601f820116820180604052508101906102159190610c5f565b9050806102206107da565b6001600160a01b038681166000908152600892909201602052604090912080546001600160a01b0319169290911691909117905561025c6107da565b6001600160a01b03858116600081815260089390930160205260409283902054925163485cc95560e01b8152336004820152602481019190915291169063485cc95590604401600060405180830381600087803b1580156102bc57600080fd5b505af11580156102d0573d6000803e3d6000fd5b50506040516001600160a01b03871681523392507ff9fd6d57b1aaaeab2bfc4c1ab41e1b4973a5c3e7764d5b499168d1bfa0c2c384915060200160405180910390a250505050565b600080805260016020527fa6eef7e35abe7026729641147f7915573c7e97b47efa546f5f6e3230263bcb49547f5bb6a25286bb8715dc575866da01fccb9319d7c050dc4a550830f9fd153b997c919060ff1615801561038b575060008281526001602052604090205460ff161515811515145b61039482610803565b906103b25760405162461bcd60e51b81526004016101119190610cfa565b507f50e75b23f8ec51bbcb044fe377457e835f3b5ccc7ebf69e80906452015dff607336103df8282610776565b61042b5760405162461bcd60e51b815260206004820152601d60248201527f416363657373436f6e74726f6c3a206e6f7420617574686f72697a65640000006044820152606401610111565b7f5bb6a25286bb8715dc575866da01fccb9319d7c050dc4a550830f9fd153b997c60008190527f7b305b6be5f275f648d05716597c483d754c2a242bd605feba3c64fb853605366020527f9acf82f2b98e95a6c5a3755f118cae333907de1a9d00a07da16fd2a5fc17a30b547f7b305b6be5f275f648d05716597c483d754c2a242bd605feba3c64fb853605349060ff16156105095760405162461bcd60e51b815260206004820152601860248201527f416363657373436f6e74726f6c3a207265656e746572656400000000000000006044820152606401610111565b60008281526002820160205260408120805460ff1916600117905561052d896107aa565b90506001600160a01b0381166105915760405162461bcd60e51b8152602060048201526024808201527f54656c6c65723a206c656e64696e6720706f6f6c206e6f7420696e697469616c6044820152631a5e995960e21b6064820152608401610111565b6001600160a01b03891660009081526003602090815260408083207ff0e040bf5f853fdd88c4452f75a882f5b8b99d9b3c0a3bab632c09493fae80cf845260010190915290205488826001600160a01b031663a95411e06040518163ffffffff1660e01b8152600401602060405180830381600087803b15801561061457600080fd5b505af1158015610628573d6000803e3d6000fd5b505050506040513d601f19601f8201168201806040525081019061064c9190610cc6565b6106569190610d2d565b11156106a45760405162461bcd60e51b815260206004820152601c60248201527f54656c6c65723a206465706f7369742054564c206578636565646564000000006044820152606401610111565b6106b08933308b610868565b6106bb89828a6108d9565b6107458133836001600160a01b031663a0712d688c6040518263ffffffff1660e01b81526004016106ee91815260200190565b602060405180830381600087803b15801561070857600080fd5b505af115801561071c573d6000803e3d6000fd5b505050506040513d601f19601f820116820180604052508101906107409190610cc6565b61099a565b50600091825260020160205260409020805460ff19169055505050505050565b6000610770826107aa565b92915050565b60006107806109cf565b6000938452602090815260408085206001600160a01b039490941685529290525090205460ff1690565b60006107b46107da565b6001600160a01b0392831660009081526008919091016020526040902054909116919050565b60007f0553069f1f0518e59f8623c18c83a1f987f2a0544d563e98dd803a7078142a855b905090565b606081610838576040518060400160405280601081526020016f14185d5cd8589b194e881c185d5cd95960821b815250610770565b505060408051808201909152601481527314185d5cd8589b194e881b9bdd081c185d5cd95960621b602082015290565b6040516001600160a01b03808516602483015283166044820152606481018290526108d39085906323b872dd60e01b906084015b60408051601f198184030181529190526020810180516001600160e01b03166001600160e01b0319909316929092179091526109f7565b50505050565b604051636eb1769f60e11b81523060048201526001600160a01b038381166024830152600091839186169063dd62ed3e9060440160206040518083038186803b15801561092557600080fd5b505afa158015610939573d6000803e3d6000fd5b505050506040513d601f19601f8201168201806040525081019061095d9190610cc6565b6109679190610d2d565b6040516001600160a01b0385166024820152604481018290529091506108d390859063095ea7b360e01b9060640161089c565b6040516001600160a01b0383166024820152604481018290526109ca90849063a9059cbb60e01b9060640161089c565b505050565b60007f7b305b6be5f275f648d05716597c483d754c2a242bd605feba3c64fb853605346107fe565b6000610a4c826040518060400160405280602081526020017f5361666545524332303a206c6f772d6c6576656c2063616c6c206661696c6564815250856001600160a01b0316610ac99092919063ffffffff16565b8051909150156109ca5780806020019051810190610a6a9190610ca6565b6109ca5760405162461bcd60e51b815260206004820152602a60248201527f5361666545524332303a204552433230206f7065726174696f6e20646964206e6044820152691bdd081cdd58d8d9595960b21b6064820152608401610111565b6060610ad88484600085610ae2565b90505b9392505050565b606082471015610b435760405162461bcd60e51b815260206004820152602660248201527f416464726573733a20696e73756666696369656e742062616c616e636520666f6044820152651c8818d85b1b60d21b6064820152608401610111565b843b610b915760405162461bcd60e51b815260206004820152601d60248201527f416464726573733a2063616c6c20746f206e6f6e2d636f6e74726163740000006044820152606401610111565b600080866001600160a01b03168587604051610bad9190610cde565b60006040518083038185875af1925050503d8060008114610bea576040519150601f19603f3d011682016040523d82523d6000602084013e610bef565b606091505b5091509150610bff828286610c0a565b979650505050505050565b60608315610c19575081610adb565b825115610c295782518084602001fd5b8160405162461bcd60e51b81526004016101119190610cfa565b600060208284031215610c54578081fd5b8135610adb81610d7d565b600060208284031215610c70578081fd5b8151610adb81610d7d565b60008060408385031215610c8d578081fd5b8235610c9881610d7d565b946020939093013593505050565b600060208284031215610cb7578081fd5b81518015158114610adb578182fd5b600060208284031215610cd7578081fd5b5051919050565b60008251610cf0818460208701610d51565b9190910192915050565b6000602082528251806020840152610d19816040850160208701610d51565b601f01601f19169190910160400192915050565b60008219821115610d4c57634e487b7160e01b81526011600452602481fd5b500190565b60005b83811015610d6c578181015183820152602001610d54565b838111156108d35750506000910152565b6001600160a01b0381168114610d9257600080fd5b5056fea26469706673582212202d6998c7da6a1dc130be32dbf9795e65244cc7d468d3962744249df8ecacd22364736f6c63430008030033",
  "history": [
    {
      "address": "0x2ca57D87F6be51515ACE674F8d520fA3abE8F5bB",
      "abi": [
        {
          "anonymous": false,
          "inputs": [
            {
              "indexed": true,
              "internalType": "address",
              "name": "sender",
              "type": "address"
            },
            {
              "indexed": false,
              "internalType": "address",
              "name": "asset",
              "type": "address"
            }
          ],
          "name": "LendingPoolInitialized",
          "type": "event"
        },
        {
          "inputs": [
            {
              "internalType": "address",
              "name": "asset",
              "type": "address"
            }
          ],
          "name": "getTTokenFor",
          "outputs": [
            {
              "internalType": "address",
              "name": "tToken_",
              "type": "address"
            }
          ],
          "stateMutability": "view",
          "type": "function"
        },
        {
          "inputs": [
            {
              "internalType": "address",
              "name": "asset",
              "type": "address"
            }
          ],
          "name": "initLendingPool",
          "outputs": [],
          "stateMutability": "nonpayable",
          "type": "function"
        },
        {
          "inputs": [
            {
              "internalType": "address",
              "name": "asset",
              "type": "address"
            },
            {
              "internalType": "uint256",
              "name": "amount",
              "type": "uint256"
            }
          ],
          "name": "lendingPoolDeposit",
          "outputs": [],
          "stateMutability": "nonpayable",
          "type": "function"
        }
      ],
      "artifactName": "LendingFacet",
      "transactionHash": "0xf5072a314f5275fcbc1f61beedf72f549b2621ccca996fa0df1d05e453cfa294",
      "receipt": {
        "to": null,
        "from": "0xAFe87013dc96edE1E116a288D80FcaA0eFFE5fe5",
        "contractAddress": "0x2ca57D87F6be51515ACE674F8d520fA3abE8F5bB",
        "transactionIndex": 0,
        "gasUsed": "815713",
        "logsBloom": "0x00000000000000000000000000000000000000000000000000000000000000000000000000000000000000000000000000000000000000000000000000000000000000000000000000000000000000000000000000000000000000000000000000000000000000000000000000000000000000000000000000000000000000000000000000000000000000000000000000000000000000000000000000000000000000000000000000000000000000000000000000000000000000000000000000000000000000000000000000000000000000000000000000000000000000000000000000000000000000000000000000000000000000000000000000000000",
        "blockHash": "0x9e666fadcebabd316d47a715876545dfa29039e42fbf75a37bdc59f6d45d9029",
        "transactionHash": "0xf5072a314f5275fcbc1f61beedf72f549b2621ccca996fa0df1d05e453cfa294",
        "logs": [],
        "blockNumber": 25103785,
        "cumulativeGasUsed": "815713",
        "status": 1,
        "byzantium": true
      },
      "args": [],
      "solcInputHash": "dc3b3c0336b59a4fae33a8cd036a81b5",
      "metadata": "{\"compiler\":{\"version\":\"0.8.3+commit.8d00100c\"},\"language\":\"Solidity\",\"output\":{\"abi\":[{\"anonymous\":false,\"inputs\":[{\"indexed\":true,\"internalType\":\"address\",\"name\":\"sender\",\"type\":\"address\"},{\"indexed\":false,\"internalType\":\"address\",\"name\":\"asset\",\"type\":\"address\"}],\"name\":\"LendingPoolInitialized\",\"type\":\"event\"},{\"inputs\":[{\"internalType\":\"address\",\"name\":\"asset\",\"type\":\"address\"}],\"name\":\"getTTokenFor\",\"outputs\":[{\"internalType\":\"address\",\"name\":\"tToken_\",\"type\":\"address\"}],\"stateMutability\":\"view\",\"type\":\"function\"},{\"inputs\":[{\"internalType\":\"address\",\"name\":\"asset\",\"type\":\"address\"}],\"name\":\"initLendingPool\",\"outputs\":[],\"stateMutability\":\"nonpayable\",\"type\":\"function\"},{\"inputs\":[{\"internalType\":\"address\",\"name\":\"asset\",\"type\":\"address\"},{\"internalType\":\"uint256\",\"name\":\"amount\",\"type\":\"uint256\"}],\"name\":\"lendingPoolDeposit\",\"outputs\":[],\"stateMutability\":\"nonpayable\",\"type\":\"function\"}],\"devdoc\":{\"events\":{\"LendingPoolInitialized(address,address)\":{\"params\":{\"asset\":\"Token address the pool was initialized for.\",\"sender\":\"address.\"}}},\"kind\":\"dev\",\"methods\":{\"getTTokenFor(address)\":{\"params\":{\"asset\":\"Address to get a Teller Token for.\"}},\"initLendingPool(address)\":{\"params\":{\"asset\":\"Token address to initialize the lending pool for.\"}},\"lendingPoolDeposit(address,uint256)\":{\"details\":\"the user must call ERC20.approve function previously.If the cToken is available (not 0x0), it deposits the lending asset amount into Compound directly.\",\"params\":{\"amount\":\"Amount of {asset} to deposit in the pool.\",\"asset\":\"Token address to deposit into the lending pool.\"}}},\"version\":1},\"userdoc\":{\"events\":{\"LendingPoolInitialized(address,address)\":{\"notice\":\"This event is emitted when a new lending pool is initialized.\"}},\"kind\":\"user\",\"methods\":{\"getTTokenFor(address)\":{\"notice\":\"Get the Teller Token address for an underlying asset.\"},\"initLendingPool(address)\":{\"notice\":\"Initialized a new lending pool for {asset}\"},\"lendingPoolDeposit(address,uint256)\":{\"notice\":\"It allows users to deposit tokens into the pool.\"}},\"version\":1}},\"settings\":{\"compilationTarget\":{\"contracts/lending/LendingFacet.sol\":\"LendingFacet\"},\"evmVersion\":\"istanbul\",\"libraries\":{},\"metadata\":{\"bytecodeHash\":\"ipfs\",\"useLiteralContent\":true},\"optimizer\":{\"enabled\":true,\"runs\":200},\"remappings\":[]},\"sources\":{\"@openzeppelin/contracts-upgradeable/access/AccessControlUpgradeable.sol\":{\"content\":\"// SPDX-License-Identifier: MIT\\n\\npragma solidity ^0.8.0;\\n\\nimport \\\"../utils/ContextUpgradeable.sol\\\";\\nimport \\\"../utils/StringsUpgradeable.sol\\\";\\nimport \\\"../utils/introspection/ERC165Upgradeable.sol\\\";\\nimport \\\"../proxy/utils/Initializable.sol\\\";\\n\\n/**\\n * @dev External interface of AccessControl declared to support ERC165 detection.\\n */\\ninterface IAccessControlUpgradeable {\\n    function hasRole(bytes32 role, address account) external view returns (bool);\\n    function getRoleAdmin(bytes32 role) external view returns (bytes32);\\n    function grantRole(bytes32 role, address account) external;\\n    function revokeRole(bytes32 role, address account) external;\\n    function renounceRole(bytes32 role, address account) external;\\n}\\n\\n/**\\n * @dev Contract module that allows children to implement role-based access\\n * control mechanisms. This is a lightweight version that doesn't allow enumerating role\\n * members except through off-chain means by accessing the contract event logs. Some\\n * applications may benefit from on-chain enumerability, for those cases see\\n * {AccessControlEnumerable}.\\n *\\n * Roles are referred to by their `bytes32` identifier. These should be exposed\\n * in the external API and be unique. The best way to achieve this is by\\n * using `public constant` hash digests:\\n *\\n * ```\\n * bytes32 public constant MY_ROLE = keccak256(\\\"MY_ROLE\\\");\\n * ```\\n *\\n * Roles can be used to represent a set of permissions. To restrict access to a\\n * function call, use {hasRole}:\\n *\\n * ```\\n * function foo() public {\\n *     require(hasRole(MY_ROLE, msg.sender));\\n *     ...\\n * }\\n * ```\\n *\\n * Roles can be granted and revoked dynamically via the {grantRole} and\\n * {revokeRole} functions. Each role has an associated admin role, and only\\n * accounts that have a role's admin role can call {grantRole} and {revokeRole}.\\n *\\n * By default, the admin role for all roles is `DEFAULT_ADMIN_ROLE`, which means\\n * that only accounts with this role will be able to grant or revoke other\\n * roles. More complex role relationships can be created by using\\n * {_setRoleAdmin}.\\n *\\n * WARNING: The `DEFAULT_ADMIN_ROLE` is also its own admin: it has permission to\\n * grant and revoke this role. Extra precautions should be taken to secure\\n * accounts that have been granted it.\\n */\\nabstract contract AccessControlUpgradeable is Initializable, ContextUpgradeable, IAccessControlUpgradeable, ERC165Upgradeable {\\n    function __AccessControl_init() internal initializer {\\n        __Context_init_unchained();\\n        __ERC165_init_unchained();\\n        __AccessControl_init_unchained();\\n    }\\n\\n    function __AccessControl_init_unchained() internal initializer {\\n    }\\n    struct RoleData {\\n        mapping (address => bool) members;\\n        bytes32 adminRole;\\n    }\\n\\n    mapping (bytes32 => RoleData) private _roles;\\n\\n    bytes32 public constant DEFAULT_ADMIN_ROLE = 0x00;\\n\\n    /**\\n     * @dev Emitted when `newAdminRole` is set as ``role``'s admin role, replacing `previousAdminRole`\\n     *\\n     * `DEFAULT_ADMIN_ROLE` is the starting admin for all roles, despite\\n     * {RoleAdminChanged} not being emitted signaling this.\\n     *\\n     * _Available since v3.1._\\n     */\\n    event RoleAdminChanged(bytes32 indexed role, bytes32 indexed previousAdminRole, bytes32 indexed newAdminRole);\\n\\n    /**\\n     * @dev Emitted when `account` is granted `role`.\\n     *\\n     * `sender` is the account that originated the contract call, an admin role\\n     * bearer except when using {_setupRole}.\\n     */\\n    event RoleGranted(bytes32 indexed role, address indexed account, address indexed sender);\\n\\n    /**\\n     * @dev Emitted when `account` is revoked `role`.\\n     *\\n     * `sender` is the account that originated the contract call:\\n     *   - if using `revokeRole`, it is the admin role bearer\\n     *   - if using `renounceRole`, it is the role bearer (i.e. `account`)\\n     */\\n    event RoleRevoked(bytes32 indexed role, address indexed account, address indexed sender);\\n\\n    /**\\n     * @dev Modifier that checks that an account has a specific role. Reverts\\n     * with a standardized message including the required role.\\n     *\\n     * The format of the revert reason is given by the following regular expression:\\n     *\\n     *  /^AccessControl: account (0x[0-9a-f]{20}) is missing role (0x[0-9a-f]{32})$/\\n     *\\n     * _Available since v4.1._\\n     */\\n    modifier onlyRole(bytes32 role) {\\n        _checkRole(role, _msgSender());\\n        _;\\n    }\\n\\n    /**\\n     * @dev See {IERC165-supportsInterface}.\\n     */\\n    function supportsInterface(bytes4 interfaceId) public view virtual override returns (bool) {\\n        return interfaceId == type(IAccessControlUpgradeable).interfaceId\\n            || super.supportsInterface(interfaceId);\\n    }\\n\\n    /**\\n     * @dev Returns `true` if `account` has been granted `role`.\\n     */\\n    function hasRole(bytes32 role, address account) public view override returns (bool) {\\n        return _roles[role].members[account];\\n    }\\n\\n    /**\\n     * @dev Revert with a standard message if `account` is missing `role`.\\n     *\\n     * The format of the revert reason is given by the following regular expression:\\n     *\\n     *  /^AccessControl: account (0x[0-9a-f]{20}) is missing role (0x[0-9a-f]{32})$/\\n     */\\n    function _checkRole(bytes32 role, address account) internal view {\\n        if(!hasRole(role, account)) {\\n            revert(string(abi.encodePacked(\\n                \\\"AccessControl: account \\\",\\n                StringsUpgradeable.toHexString(uint160(account), 20),\\n                \\\" is missing role \\\",\\n                StringsUpgradeable.toHexString(uint256(role), 32)\\n            )));\\n        }\\n    }\\n\\n    /**\\n     * @dev Returns the admin role that controls `role`. See {grantRole} and\\n     * {revokeRole}.\\n     *\\n     * To change a role's admin, use {_setRoleAdmin}.\\n     */\\n    function getRoleAdmin(bytes32 role) public view override returns (bytes32) {\\n        return _roles[role].adminRole;\\n    }\\n\\n    /**\\n     * @dev Grants `role` to `account`.\\n     *\\n     * If `account` had not been already granted `role`, emits a {RoleGranted}\\n     * event.\\n     *\\n     * Requirements:\\n     *\\n     * - the caller must have ``role``'s admin role.\\n     */\\n    function grantRole(bytes32 role, address account) public virtual override onlyRole(getRoleAdmin(role)) {\\n        _grantRole(role, account);\\n    }\\n\\n    /**\\n     * @dev Revokes `role` from `account`.\\n     *\\n     * If `account` had been granted `role`, emits a {RoleRevoked} event.\\n     *\\n     * Requirements:\\n     *\\n     * - the caller must have ``role``'s admin role.\\n     */\\n    function revokeRole(bytes32 role, address account) public virtual override onlyRole(getRoleAdmin(role)) {\\n        _revokeRole(role, account);\\n    }\\n\\n    /**\\n     * @dev Revokes `role` from the calling account.\\n     *\\n     * Roles are often managed via {grantRole} and {revokeRole}: this function's\\n     * purpose is to provide a mechanism for accounts to lose their privileges\\n     * if they are compromised (such as when a trusted device is misplaced).\\n     *\\n     * If the calling account had been granted `role`, emits a {RoleRevoked}\\n     * event.\\n     *\\n     * Requirements:\\n     *\\n     * - the caller must be `account`.\\n     */\\n    function renounceRole(bytes32 role, address account) public virtual override {\\n        require(account == _msgSender(), \\\"AccessControl: can only renounce roles for self\\\");\\n\\n        _revokeRole(role, account);\\n    }\\n\\n    /**\\n     * @dev Grants `role` to `account`.\\n     *\\n     * If `account` had not been already granted `role`, emits a {RoleGranted}\\n     * event. Note that unlike {grantRole}, this function doesn't perform any\\n     * checks on the calling account.\\n     *\\n     * [WARNING]\\n     * ====\\n     * This function should only be called from the constructor when setting\\n     * up the initial roles for the system.\\n     *\\n     * Using this function in any other way is effectively circumventing the admin\\n     * system imposed by {AccessControl}.\\n     * ====\\n     */\\n    function _setupRole(bytes32 role, address account) internal virtual {\\n        _grantRole(role, account);\\n    }\\n\\n    /**\\n     * @dev Sets `adminRole` as ``role``'s admin role.\\n     *\\n     * Emits a {RoleAdminChanged} event.\\n     */\\n    function _setRoleAdmin(bytes32 role, bytes32 adminRole) internal virtual {\\n        emit RoleAdminChanged(role, getRoleAdmin(role), adminRole);\\n        _roles[role].adminRole = adminRole;\\n    }\\n\\n    function _grantRole(bytes32 role, address account) private {\\n        if (!hasRole(role, account)) {\\n            _roles[role].members[account] = true;\\n            emit RoleGranted(role, account, _msgSender());\\n        }\\n    }\\n\\n    function _revokeRole(bytes32 role, address account) private {\\n        if (hasRole(role, account)) {\\n            _roles[role].members[account] = false;\\n            emit RoleRevoked(role, account, _msgSender());\\n        }\\n    }\\n    uint256[49] private __gap;\\n}\\n\",\"keccak256\":\"0x719f71989e630280a6902f857ef2b038d761ef2d0d51611f9da463be6c7c4be5\",\"license\":\"MIT\"},\"@openzeppelin/contracts-upgradeable/proxy/utils/Initializable.sol\":{\"content\":\"// SPDX-License-Identifier: MIT\\n\\n// solhint-disable-next-line compiler-version\\npragma solidity ^0.8.0;\\n\\n/**\\n * @dev This is a base contract to aid in writing upgradeable contracts, or any kind of contract that will be deployed\\n * behind a proxy. Since a proxied contract can't have a constructor, it's common to move constructor logic to an\\n * external initializer function, usually called `initialize`. It then becomes necessary to protect this initializer\\n * function so it can only be called once. The {initializer} modifier provided by this contract will have this effect.\\n *\\n * TIP: To avoid leaving the proxy in an uninitialized state, the initializer function should be called as early as\\n * possible by providing the encoded function call as the `_data` argument to {ERC1967Proxy-constructor}.\\n *\\n * CAUTION: When used with inheritance, manual care must be taken to not invoke a parent initializer twice, or to ensure\\n * that all initializers are idempotent. This is not verified automatically as constructors are by Solidity.\\n */\\nabstract contract Initializable {\\n\\n    /**\\n     * @dev Indicates that the contract has been initialized.\\n     */\\n    bool private _initialized;\\n\\n    /**\\n     * @dev Indicates that the contract is in the process of being initialized.\\n     */\\n    bool private _initializing;\\n\\n    /**\\n     * @dev Modifier to protect an initializer function from being invoked twice.\\n     */\\n    modifier initializer() {\\n        require(_initializing || !_initialized, \\\"Initializable: contract is already initialized\\\");\\n\\n        bool isTopLevelCall = !_initializing;\\n        if (isTopLevelCall) {\\n            _initializing = true;\\n            _initialized = true;\\n        }\\n\\n        _;\\n\\n        if (isTopLevelCall) {\\n            _initializing = false;\\n        }\\n    }\\n}\\n\",\"keccak256\":\"0x67d2f282a9678e58e878a0b774041ba7a01e2740a262aea97a3f681339914713\",\"license\":\"MIT\"},\"@openzeppelin/contracts-upgradeable/token/ERC20/ERC20Upgradeable.sol\":{\"content\":\"// SPDX-License-Identifier: MIT\\n\\npragma solidity ^0.8.0;\\n\\nimport \\\"./IERC20Upgradeable.sol\\\";\\nimport \\\"./extensions/IERC20MetadataUpgradeable.sol\\\";\\nimport \\\"../../utils/ContextUpgradeable.sol\\\";\\nimport \\\"../../proxy/utils/Initializable.sol\\\";\\n\\n/**\\n * @dev Implementation of the {IERC20} interface.\\n *\\n * This implementation is agnostic to the way tokens are created. This means\\n * that a supply mechanism has to be added in a derived contract using {_mint}.\\n * For a generic mechanism see {ERC20PresetMinterPauser}.\\n *\\n * TIP: For a detailed writeup see our guide\\n * https://forum.zeppelin.solutions/t/how-to-implement-erc20-supply-mechanisms/226[How\\n * to implement supply mechanisms].\\n *\\n * We have followed general OpenZeppelin guidelines: functions revert instead\\n * of returning `false` on failure. This behavior is nonetheless conventional\\n * and does not conflict with the expectations of ERC20 applications.\\n *\\n * Additionally, an {Approval} event is emitted on calls to {transferFrom}.\\n * This allows applications to reconstruct the allowance for all accounts just\\n * by listening to said events. Other implementations of the EIP may not emit\\n * these events, as it isn't required by the specification.\\n *\\n * Finally, the non-standard {decreaseAllowance} and {increaseAllowance}\\n * functions have been added to mitigate the well-known issues around setting\\n * allowances. See {IERC20-approve}.\\n */\\ncontract ERC20Upgradeable is Initializable, ContextUpgradeable, IERC20Upgradeable, IERC20MetadataUpgradeable {\\n    mapping (address => uint256) private _balances;\\n\\n    mapping (address => mapping (address => uint256)) private _allowances;\\n\\n    uint256 private _totalSupply;\\n\\n    string private _name;\\n    string private _symbol;\\n\\n    /**\\n     * @dev Sets the values for {name} and {symbol}.\\n     *\\n     * The defaut value of {decimals} is 18. To select a different value for\\n     * {decimals} you should overload it.\\n     *\\n     * All two of these values are immutable: they can only be set once during\\n     * construction.\\n     */\\n    function __ERC20_init(string memory name_, string memory symbol_) internal initializer {\\n        __Context_init_unchained();\\n        __ERC20_init_unchained(name_, symbol_);\\n    }\\n\\n    function __ERC20_init_unchained(string memory name_, string memory symbol_) internal initializer {\\n        _name = name_;\\n        _symbol = symbol_;\\n    }\\n\\n    /**\\n     * @dev Returns the name of the token.\\n     */\\n    function name() public view virtual override returns (string memory) {\\n        return _name;\\n    }\\n\\n    /**\\n     * @dev Returns the symbol of the token, usually a shorter version of the\\n     * name.\\n     */\\n    function symbol() public view virtual override returns (string memory) {\\n        return _symbol;\\n    }\\n\\n    /**\\n     * @dev Returns the number of decimals used to get its user representation.\\n     * For example, if `decimals` equals `2`, a balance of `505` tokens should\\n     * be displayed to a user as `5,05` (`505 / 10 ** 2`).\\n     *\\n     * Tokens usually opt for a value of 18, imitating the relationship between\\n     * Ether and Wei. This is the value {ERC20} uses, unless this function is\\n     * overridden;\\n     *\\n     * NOTE: This information is only used for _display_ purposes: it in\\n     * no way affects any of the arithmetic of the contract, including\\n     * {IERC20-balanceOf} and {IERC20-transfer}.\\n     */\\n    function decimals() public view virtual override returns (uint8) {\\n        return 18;\\n    }\\n\\n    /**\\n     * @dev See {IERC20-totalSupply}.\\n     */\\n    function totalSupply() public view virtual override returns (uint256) {\\n        return _totalSupply;\\n    }\\n\\n    /**\\n     * @dev See {IERC20-balanceOf}.\\n     */\\n    function balanceOf(address account) public view virtual override returns (uint256) {\\n        return _balances[account];\\n    }\\n\\n    /**\\n     * @dev See {IERC20-transfer}.\\n     *\\n     * Requirements:\\n     *\\n     * - `recipient` cannot be the zero address.\\n     * - the caller must have a balance of at least `amount`.\\n     */\\n    function transfer(address recipient, uint256 amount) public virtual override returns (bool) {\\n        _transfer(_msgSender(), recipient, amount);\\n        return true;\\n    }\\n\\n    /**\\n     * @dev See {IERC20-allowance}.\\n     */\\n    function allowance(address owner, address spender) public view virtual override returns (uint256) {\\n        return _allowances[owner][spender];\\n    }\\n\\n    /**\\n     * @dev See {IERC20-approve}.\\n     *\\n     * Requirements:\\n     *\\n     * - `spender` cannot be the zero address.\\n     */\\n    function approve(address spender, uint256 amount) public virtual override returns (bool) {\\n        _approve(_msgSender(), spender, amount);\\n        return true;\\n    }\\n\\n    /**\\n     * @dev See {IERC20-transferFrom}.\\n     *\\n     * Emits an {Approval} event indicating the updated allowance. This is not\\n     * required by the EIP. See the note at the beginning of {ERC20}.\\n     *\\n     * Requirements:\\n     *\\n     * - `sender` and `recipient` cannot be the zero address.\\n     * - `sender` must have a balance of at least `amount`.\\n     * - the caller must have allowance for ``sender``'s tokens of at least\\n     * `amount`.\\n     */\\n    function transferFrom(address sender, address recipient, uint256 amount) public virtual override returns (bool) {\\n        _transfer(sender, recipient, amount);\\n\\n        uint256 currentAllowance = _allowances[sender][_msgSender()];\\n        require(currentAllowance >= amount, \\\"ERC20: transfer amount exceeds allowance\\\");\\n        _approve(sender, _msgSender(), currentAllowance - amount);\\n\\n        return true;\\n    }\\n\\n    /**\\n     * @dev Atomically increases the allowance granted to `spender` by the caller.\\n     *\\n     * This is an alternative to {approve} that can be used as a mitigation for\\n     * problems described in {IERC20-approve}.\\n     *\\n     * Emits an {Approval} event indicating the updated allowance.\\n     *\\n     * Requirements:\\n     *\\n     * - `spender` cannot be the zero address.\\n     */\\n    function increaseAllowance(address spender, uint256 addedValue) public virtual returns (bool) {\\n        _approve(_msgSender(), spender, _allowances[_msgSender()][spender] + addedValue);\\n        return true;\\n    }\\n\\n    /**\\n     * @dev Atomically decreases the allowance granted to `spender` by the caller.\\n     *\\n     * This is an alternative to {approve} that can be used as a mitigation for\\n     * problems described in {IERC20-approve}.\\n     *\\n     * Emits an {Approval} event indicating the updated allowance.\\n     *\\n     * Requirements:\\n     *\\n     * - `spender` cannot be the zero address.\\n     * - `spender` must have allowance for the caller of at least\\n     * `subtractedValue`.\\n     */\\n    function decreaseAllowance(address spender, uint256 subtractedValue) public virtual returns (bool) {\\n        uint256 currentAllowance = _allowances[_msgSender()][spender];\\n        require(currentAllowance >= subtractedValue, \\\"ERC20: decreased allowance below zero\\\");\\n        _approve(_msgSender(), spender, currentAllowance - subtractedValue);\\n\\n        return true;\\n    }\\n\\n    /**\\n     * @dev Moves tokens `amount` from `sender` to `recipient`.\\n     *\\n     * This is internal function is equivalent to {transfer}, and can be used to\\n     * e.g. implement automatic token fees, slashing mechanisms, etc.\\n     *\\n     * Emits a {Transfer} event.\\n     *\\n     * Requirements:\\n     *\\n     * - `sender` cannot be the zero address.\\n     * - `recipient` cannot be the zero address.\\n     * - `sender` must have a balance of at least `amount`.\\n     */\\n    function _transfer(address sender, address recipient, uint256 amount) internal virtual {\\n        require(sender != address(0), \\\"ERC20: transfer from the zero address\\\");\\n        require(recipient != address(0), \\\"ERC20: transfer to the zero address\\\");\\n\\n        _beforeTokenTransfer(sender, recipient, amount);\\n\\n        uint256 senderBalance = _balances[sender];\\n        require(senderBalance >= amount, \\\"ERC20: transfer amount exceeds balance\\\");\\n        _balances[sender] = senderBalance - amount;\\n        _balances[recipient] += amount;\\n\\n        emit Transfer(sender, recipient, amount);\\n    }\\n\\n    /** @dev Creates `amount` tokens and assigns them to `account`, increasing\\n     * the total supply.\\n     *\\n     * Emits a {Transfer} event with `from` set to the zero address.\\n     *\\n     * Requirements:\\n     *\\n     * - `to` cannot be the zero address.\\n     */\\n    function _mint(address account, uint256 amount) internal virtual {\\n        require(account != address(0), \\\"ERC20: mint to the zero address\\\");\\n\\n        _beforeTokenTransfer(address(0), account, amount);\\n\\n        _totalSupply += amount;\\n        _balances[account] += amount;\\n        emit Transfer(address(0), account, amount);\\n    }\\n\\n    /**\\n     * @dev Destroys `amount` tokens from `account`, reducing the\\n     * total supply.\\n     *\\n     * Emits a {Transfer} event with `to` set to the zero address.\\n     *\\n     * Requirements:\\n     *\\n     * - `account` cannot be the zero address.\\n     * - `account` must have at least `amount` tokens.\\n     */\\n    function _burn(address account, uint256 amount) internal virtual {\\n        require(account != address(0), \\\"ERC20: burn from the zero address\\\");\\n\\n        _beforeTokenTransfer(account, address(0), amount);\\n\\n        uint256 accountBalance = _balances[account];\\n        require(accountBalance >= amount, \\\"ERC20: burn amount exceeds balance\\\");\\n        _balances[account] = accountBalance - amount;\\n        _totalSupply -= amount;\\n\\n        emit Transfer(account, address(0), amount);\\n    }\\n\\n    /**\\n     * @dev Sets `amount` as the allowance of `spender` over the `owner` s tokens.\\n     *\\n     * This internal function is equivalent to `approve`, and can be used to\\n     * e.g. set automatic allowances for certain subsystems, etc.\\n     *\\n     * Emits an {Approval} event.\\n     *\\n     * Requirements:\\n     *\\n     * - `owner` cannot be the zero address.\\n     * - `spender` cannot be the zero address.\\n     */\\n    function _approve(address owner, address spender, uint256 amount) internal virtual {\\n        require(owner != address(0), \\\"ERC20: approve from the zero address\\\");\\n        require(spender != address(0), \\\"ERC20: approve to the zero address\\\");\\n\\n        _allowances[owner][spender] = amount;\\n        emit Approval(owner, spender, amount);\\n    }\\n\\n    /**\\n     * @dev Hook that is called before any transfer of tokens. This includes\\n     * minting and burning.\\n     *\\n     * Calling conditions:\\n     *\\n     * - when `from` and `to` are both non-zero, `amount` of ``from``'s tokens\\n     * will be to transferred to `to`.\\n     * - when `from` is zero, `amount` tokens will be minted for `to`.\\n     * - when `to` is zero, `amount` of ``from``'s tokens will be burned.\\n     * - `from` and `to` are never both zero.\\n     *\\n     * To learn more about hooks, head to xref:ROOT:extending-contracts.adoc#using-hooks[Using Hooks].\\n     */\\n    function _beforeTokenTransfer(address from, address to, uint256 amount) internal virtual { }\\n    uint256[45] private __gap;\\n}\\n\",\"keccak256\":\"0x9c2d7425f3343ea340d6ea67e9d90109d4d846bb013c2572096ec88c9e74946b\",\"license\":\"MIT\"},\"@openzeppelin/contracts-upgradeable/token/ERC20/IERC20Upgradeable.sol\":{\"content\":\"// SPDX-License-Identifier: MIT\\n\\npragma solidity ^0.8.0;\\n\\n/**\\n * @dev Interface of the ERC20 standard as defined in the EIP.\\n */\\ninterface IERC20Upgradeable {\\n    /**\\n     * @dev Returns the amount of tokens in existence.\\n     */\\n    function totalSupply() external view returns (uint256);\\n\\n    /**\\n     * @dev Returns the amount of tokens owned by `account`.\\n     */\\n    function balanceOf(address account) external view returns (uint256);\\n\\n    /**\\n     * @dev Moves `amount` tokens from the caller's account to `recipient`.\\n     *\\n     * Returns a boolean value indicating whether the operation succeeded.\\n     *\\n     * Emits a {Transfer} event.\\n     */\\n    function transfer(address recipient, uint256 amount) external returns (bool);\\n\\n    /**\\n     * @dev Returns the remaining number of tokens that `spender` will be\\n     * allowed to spend on behalf of `owner` through {transferFrom}. This is\\n     * zero by default.\\n     *\\n     * This value changes when {approve} or {transferFrom} are called.\\n     */\\n    function allowance(address owner, address spender) external view returns (uint256);\\n\\n    /**\\n     * @dev Sets `amount` as the allowance of `spender` over the caller's tokens.\\n     *\\n     * Returns a boolean value indicating whether the operation succeeded.\\n     *\\n     * IMPORTANT: Beware that changing an allowance with this method brings the risk\\n     * that someone may use both the old and the new allowance by unfortunate\\n     * transaction ordering. One possible solution to mitigate this race\\n     * condition is to first reduce the spender's allowance to 0 and set the\\n     * desired value afterwards:\\n     * https://github.com/ethereum/EIPs/issues/20#issuecomment-263524729\\n     *\\n     * Emits an {Approval} event.\\n     */\\n    function approve(address spender, uint256 amount) external returns (bool);\\n\\n    /**\\n     * @dev Moves `amount` tokens from `sender` to `recipient` using the\\n     * allowance mechanism. `amount` is then deducted from the caller's\\n     * allowance.\\n     *\\n     * Returns a boolean value indicating whether the operation succeeded.\\n     *\\n     * Emits a {Transfer} event.\\n     */\\n    function transferFrom(address sender, address recipient, uint256 amount) external returns (bool);\\n\\n    /**\\n     * @dev Emitted when `value` tokens are moved from one account (`from`) to\\n     * another (`to`).\\n     *\\n     * Note that `value` may be zero.\\n     */\\n    event Transfer(address indexed from, address indexed to, uint256 value);\\n\\n    /**\\n     * @dev Emitted when the allowance of a `spender` for an `owner` is set by\\n     * a call to {approve}. `value` is the new allowance.\\n     */\\n    event Approval(address indexed owner, address indexed spender, uint256 value);\\n}\\n\",\"keccak256\":\"0x8d4a0f2b5b760b5e2c19ed3c108d83897a4dfd5bfed97a93867918df19191e5e\",\"license\":\"MIT\"},\"@openzeppelin/contracts-upgradeable/token/ERC20/extensions/IERC20MetadataUpgradeable.sol\":{\"content\":\"// SPDX-License-Identifier: MIT\\n\\npragma solidity ^0.8.0;\\n\\nimport \\\"../IERC20Upgradeable.sol\\\";\\n\\n/**\\n * @dev Interface for the optional metadata functions from the ERC20 standard.\\n *\\n * _Available since v4.1._\\n */\\ninterface IERC20MetadataUpgradeable is IERC20Upgradeable {\\n    /**\\n     * @dev Returns the name of the token.\\n     */\\n    function name() external view returns (string memory);\\n\\n    /**\\n     * @dev Returns the symbol of the token.\\n     */\\n    function symbol() external view returns (string memory);\\n\\n    /**\\n     * @dev Returns the decimals places of the token.\\n     */\\n    function decimals() external view returns (uint8);\\n}\\n\",\"keccak256\":\"0x6795c369a4eefa78468e38966f7851fbc2dda5e5b9ccd3fa2b45970e2e4d3abd\",\"license\":\"MIT\"},\"@openzeppelin/contracts-upgradeable/token/ERC20/utils/SafeERC20Upgradeable.sol\":{\"content\":\"// SPDX-License-Identifier: MIT\\n\\npragma solidity ^0.8.0;\\n\\nimport \\\"../IERC20Upgradeable.sol\\\";\\nimport \\\"../../../utils/AddressUpgradeable.sol\\\";\\n\\n/**\\n * @title SafeERC20\\n * @dev Wrappers around ERC20 operations that throw on failure (when the token\\n * contract returns false). Tokens that return no value (and instead revert or\\n * throw on failure) are also supported, non-reverting calls are assumed to be\\n * successful.\\n * To use this library you can add a `using SafeERC20 for IERC20;` statement to your contract,\\n * which allows you to call the safe operations as `token.safeTransfer(...)`, etc.\\n */\\nlibrary SafeERC20Upgradeable {\\n    using AddressUpgradeable for address;\\n\\n    function safeTransfer(IERC20Upgradeable token, address to, uint256 value) internal {\\n        _callOptionalReturn(token, abi.encodeWithSelector(token.transfer.selector, to, value));\\n    }\\n\\n    function safeTransferFrom(IERC20Upgradeable token, address from, address to, uint256 value) internal {\\n        _callOptionalReturn(token, abi.encodeWithSelector(token.transferFrom.selector, from, to, value));\\n    }\\n\\n    /**\\n     * @dev Deprecated. This function has issues similar to the ones found in\\n     * {IERC20-approve}, and its usage is discouraged.\\n     *\\n     * Whenever possible, use {safeIncreaseAllowance} and\\n     * {safeDecreaseAllowance} instead.\\n     */\\n    function safeApprove(IERC20Upgradeable token, address spender, uint256 value) internal {\\n        // safeApprove should only be called when setting an initial allowance,\\n        // or when resetting it to zero. To increase and decrease it, use\\n        // 'safeIncreaseAllowance' and 'safeDecreaseAllowance'\\n        // solhint-disable-next-line max-line-length\\n        require((value == 0) || (token.allowance(address(this), spender) == 0),\\n            \\\"SafeERC20: approve from non-zero to non-zero allowance\\\"\\n        );\\n        _callOptionalReturn(token, abi.encodeWithSelector(token.approve.selector, spender, value));\\n    }\\n\\n    function safeIncreaseAllowance(IERC20Upgradeable token, address spender, uint256 value) internal {\\n        uint256 newAllowance = token.allowance(address(this), spender) + value;\\n        _callOptionalReturn(token, abi.encodeWithSelector(token.approve.selector, spender, newAllowance));\\n    }\\n\\n    function safeDecreaseAllowance(IERC20Upgradeable token, address spender, uint256 value) internal {\\n        unchecked {\\n            uint256 oldAllowance = token.allowance(address(this), spender);\\n            require(oldAllowance >= value, \\\"SafeERC20: decreased allowance below zero\\\");\\n            uint256 newAllowance = oldAllowance - value;\\n            _callOptionalReturn(token, abi.encodeWithSelector(token.approve.selector, spender, newAllowance));\\n        }\\n    }\\n\\n    /**\\n     * @dev Imitates a Solidity high-level call (i.e. a regular function call to a contract), relaxing the requirement\\n     * on the return value: the return value is optional (but if data is returned, it must not be false).\\n     * @param token The token targeted by the call.\\n     * @param data The call data (encoded using abi.encode or one of its variants).\\n     */\\n    function _callOptionalReturn(IERC20Upgradeable token, bytes memory data) private {\\n        // We need to perform a low level call here, to bypass Solidity's return data size checking mechanism, since\\n        // we're implementing it ourselves. We use {Address.functionCall} to perform this call, which verifies that\\n        // the target address contains contract code and also asserts for success in the low-level call.\\n\\n        bytes memory returndata = address(token).functionCall(data, \\\"SafeERC20: low-level call failed\\\");\\n        if (returndata.length > 0) { // Return data is optional\\n            // solhint-disable-next-line max-line-length\\n            require(abi.decode(returndata, (bool)), \\\"SafeERC20: ERC20 operation did not succeed\\\");\\n        }\\n    }\\n}\\n\",\"keccak256\":\"0xc28d9f2ac7088d478d86ec6c0e1dadd48af1b2d0c1f6d497f9b652339e3002ec\",\"license\":\"MIT\"},\"@openzeppelin/contracts-upgradeable/token/ERC721/ERC721Upgradeable.sol\":{\"content\":\"// SPDX-License-Identifier: MIT\\n\\npragma solidity ^0.8.0;\\n\\nimport \\\"./IERC721Upgradeable.sol\\\";\\nimport \\\"./IERC721ReceiverUpgradeable.sol\\\";\\nimport \\\"./extensions/IERC721MetadataUpgradeable.sol\\\";\\nimport \\\"../../utils/AddressUpgradeable.sol\\\";\\nimport \\\"../../utils/ContextUpgradeable.sol\\\";\\nimport \\\"../../utils/StringsUpgradeable.sol\\\";\\nimport \\\"../../utils/introspection/ERC165Upgradeable.sol\\\";\\nimport \\\"../../proxy/utils/Initializable.sol\\\";\\n\\n/**\\n * @dev Implementation of https://eips.ethereum.org/EIPS/eip-721[ERC721] Non-Fungible Token Standard, including\\n * the Metadata extension, but not including the Enumerable extension, which is available separately as\\n * {ERC721Enumerable}.\\n */\\ncontract ERC721Upgradeable is Initializable, ContextUpgradeable, ERC165Upgradeable, IERC721Upgradeable, IERC721MetadataUpgradeable {\\n    using AddressUpgradeable for address;\\n    using StringsUpgradeable for uint256;\\n\\n    // Token name\\n    string private _name;\\n\\n    // Token symbol\\n    string private _symbol;\\n\\n    // Mapping from token ID to owner address\\n    mapping (uint256 => address) private _owners;\\n\\n    // Mapping owner address to token count\\n    mapping (address => uint256) private _balances;\\n\\n    // Mapping from token ID to approved address\\n    mapping (uint256 => address) private _tokenApprovals;\\n\\n    // Mapping from owner to operator approvals\\n    mapping (address => mapping (address => bool)) private _operatorApprovals;\\n\\n    /**\\n     * @dev Initializes the contract by setting a `name` and a `symbol` to the token collection.\\n     */\\n    function __ERC721_init(string memory name_, string memory symbol_) internal initializer {\\n        __Context_init_unchained();\\n        __ERC165_init_unchained();\\n        __ERC721_init_unchained(name_, symbol_);\\n    }\\n\\n    function __ERC721_init_unchained(string memory name_, string memory symbol_) internal initializer {\\n        _name = name_;\\n        _symbol = symbol_;\\n    }\\n\\n    /**\\n     * @dev See {IERC165-supportsInterface}.\\n     */\\n    function supportsInterface(bytes4 interfaceId) public view virtual override(ERC165Upgradeable, IERC165Upgradeable) returns (bool) {\\n        return interfaceId == type(IERC721Upgradeable).interfaceId\\n            || interfaceId == type(IERC721MetadataUpgradeable).interfaceId\\n            || super.supportsInterface(interfaceId);\\n    }\\n\\n    /**\\n     * @dev See {IERC721-balanceOf}.\\n     */\\n    function balanceOf(address owner) public view virtual override returns (uint256) {\\n        require(owner != address(0), \\\"ERC721: balance query for the zero address\\\");\\n        return _balances[owner];\\n    }\\n\\n    /**\\n     * @dev See {IERC721-ownerOf}.\\n     */\\n    function ownerOf(uint256 tokenId) public view virtual override returns (address) {\\n        address owner = _owners[tokenId];\\n        require(owner != address(0), \\\"ERC721: owner query for nonexistent token\\\");\\n        return owner;\\n    }\\n\\n    /**\\n     * @dev See {IERC721Metadata-name}.\\n     */\\n    function name() public view virtual override returns (string memory) {\\n        return _name;\\n    }\\n\\n    /**\\n     * @dev See {IERC721Metadata-symbol}.\\n     */\\n    function symbol() public view virtual override returns (string memory) {\\n        return _symbol;\\n    }\\n\\n    /**\\n     * @dev See {IERC721Metadata-tokenURI}.\\n     */\\n    function tokenURI(uint256 tokenId) public view virtual override returns (string memory) {\\n        require(_exists(tokenId), \\\"ERC721Metadata: URI query for nonexistent token\\\");\\n\\n        string memory baseURI = _baseURI();\\n        return bytes(baseURI).length > 0\\n            ? string(abi.encodePacked(baseURI, tokenId.toString()))\\n            : '';\\n    }\\n\\n    /**\\n     * @dev Base URI for computing {tokenURI}. Empty by default, can be overriden\\n     * in child contracts.\\n     */\\n    function _baseURI() internal view virtual returns (string memory) {\\n        return \\\"\\\";\\n    }\\n\\n    /**\\n     * @dev See {IERC721-approve}.\\n     */\\n    function approve(address to, uint256 tokenId) public virtual override {\\n        address owner = ERC721Upgradeable.ownerOf(tokenId);\\n        require(to != owner, \\\"ERC721: approval to current owner\\\");\\n\\n        require(_msgSender() == owner || isApprovedForAll(owner, _msgSender()),\\n            \\\"ERC721: approve caller is not owner nor approved for all\\\"\\n        );\\n\\n        _approve(to, tokenId);\\n    }\\n\\n    /**\\n     * @dev See {IERC721-getApproved}.\\n     */\\n    function getApproved(uint256 tokenId) public view virtual override returns (address) {\\n        require(_exists(tokenId), \\\"ERC721: approved query for nonexistent token\\\");\\n\\n        return _tokenApprovals[tokenId];\\n    }\\n\\n    /**\\n     * @dev See {IERC721-setApprovalForAll}.\\n     */\\n    function setApprovalForAll(address operator, bool approved) public virtual override {\\n        require(operator != _msgSender(), \\\"ERC721: approve to caller\\\");\\n\\n        _operatorApprovals[_msgSender()][operator] = approved;\\n        emit ApprovalForAll(_msgSender(), operator, approved);\\n    }\\n\\n    /**\\n     * @dev See {IERC721-isApprovedForAll}.\\n     */\\n    function isApprovedForAll(address owner, address operator) public view virtual override returns (bool) {\\n        return _operatorApprovals[owner][operator];\\n    }\\n\\n    /**\\n     * @dev See {IERC721-transferFrom}.\\n     */\\n    function transferFrom(address from, address to, uint256 tokenId) public virtual override {\\n        //solhint-disable-next-line max-line-length\\n        require(_isApprovedOrOwner(_msgSender(), tokenId), \\\"ERC721: transfer caller is not owner nor approved\\\");\\n\\n        _transfer(from, to, tokenId);\\n    }\\n\\n    /**\\n     * @dev See {IERC721-safeTransferFrom}.\\n     */\\n    function safeTransferFrom(address from, address to, uint256 tokenId) public virtual override {\\n        safeTransferFrom(from, to, tokenId, \\\"\\\");\\n    }\\n\\n    /**\\n     * @dev See {IERC721-safeTransferFrom}.\\n     */\\n    function safeTransferFrom(address from, address to, uint256 tokenId, bytes memory _data) public virtual override {\\n        require(_isApprovedOrOwner(_msgSender(), tokenId), \\\"ERC721: transfer caller is not owner nor approved\\\");\\n        _safeTransfer(from, to, tokenId, _data);\\n    }\\n\\n    /**\\n     * @dev Safely transfers `tokenId` token from `from` to `to`, checking first that contract recipients\\n     * are aware of the ERC721 protocol to prevent tokens from being forever locked.\\n     *\\n     * `_data` is additional data, it has no specified format and it is sent in call to `to`.\\n     *\\n     * This internal function is equivalent to {safeTransferFrom}, and can be used to e.g.\\n     * implement alternative mechanisms to perform token transfer, such as signature-based.\\n     *\\n     * Requirements:\\n     *\\n     * - `from` cannot be the zero address.\\n     * - `to` cannot be the zero address.\\n     * - `tokenId` token must exist and be owned by `from`.\\n     * - If `to` refers to a smart contract, it must implement {IERC721Receiver-onERC721Received}, which is called upon a safe transfer.\\n     *\\n     * Emits a {Transfer} event.\\n     */\\n    function _safeTransfer(address from, address to, uint256 tokenId, bytes memory _data) internal virtual {\\n        _transfer(from, to, tokenId);\\n        require(_checkOnERC721Received(from, to, tokenId, _data), \\\"ERC721: transfer to non ERC721Receiver implementer\\\");\\n    }\\n\\n    /**\\n     * @dev Returns whether `tokenId` exists.\\n     *\\n     * Tokens can be managed by their owner or approved accounts via {approve} or {setApprovalForAll}.\\n     *\\n     * Tokens start existing when they are minted (`_mint`),\\n     * and stop existing when they are burned (`_burn`).\\n     */\\n    function _exists(uint256 tokenId) internal view virtual returns (bool) {\\n        return _owners[tokenId] != address(0);\\n    }\\n\\n    /**\\n     * @dev Returns whether `spender` is allowed to manage `tokenId`.\\n     *\\n     * Requirements:\\n     *\\n     * - `tokenId` must exist.\\n     */\\n    function _isApprovedOrOwner(address spender, uint256 tokenId) internal view virtual returns (bool) {\\n        require(_exists(tokenId), \\\"ERC721: operator query for nonexistent token\\\");\\n        address owner = ERC721Upgradeable.ownerOf(tokenId);\\n        return (spender == owner || getApproved(tokenId) == spender || isApprovedForAll(owner, spender));\\n    }\\n\\n    /**\\n     * @dev Safely mints `tokenId` and transfers it to `to`.\\n     *\\n     * Requirements:\\n     *\\n     * - `tokenId` must not exist.\\n     * - If `to` refers to a smart contract, it must implement {IERC721Receiver-onERC721Received}, which is called upon a safe transfer.\\n     *\\n     * Emits a {Transfer} event.\\n     */\\n    function _safeMint(address to, uint256 tokenId) internal virtual {\\n        _safeMint(to, tokenId, \\\"\\\");\\n    }\\n\\n    /**\\n     * @dev Same as {xref-ERC721-_safeMint-address-uint256-}[`_safeMint`], with an additional `data` parameter which is\\n     * forwarded in {IERC721Receiver-onERC721Received} to contract recipients.\\n     */\\n    function _safeMint(address to, uint256 tokenId, bytes memory _data) internal virtual {\\n        _mint(to, tokenId);\\n        require(_checkOnERC721Received(address(0), to, tokenId, _data), \\\"ERC721: transfer to non ERC721Receiver implementer\\\");\\n    }\\n\\n    /**\\n     * @dev Mints `tokenId` and transfers it to `to`.\\n     *\\n     * WARNING: Usage of this method is discouraged, use {_safeMint} whenever possible\\n     *\\n     * Requirements:\\n     *\\n     * - `tokenId` must not exist.\\n     * - `to` cannot be the zero address.\\n     *\\n     * Emits a {Transfer} event.\\n     */\\n    function _mint(address to, uint256 tokenId) internal virtual {\\n        require(to != address(0), \\\"ERC721: mint to the zero address\\\");\\n        require(!_exists(tokenId), \\\"ERC721: token already minted\\\");\\n\\n        _beforeTokenTransfer(address(0), to, tokenId);\\n\\n        _balances[to] += 1;\\n        _owners[tokenId] = to;\\n\\n        emit Transfer(address(0), to, tokenId);\\n    }\\n\\n    /**\\n     * @dev Destroys `tokenId`.\\n     * The approval is cleared when the token is burned.\\n     *\\n     * Requirements:\\n     *\\n     * - `tokenId` must exist.\\n     *\\n     * Emits a {Transfer} event.\\n     */\\n    function _burn(uint256 tokenId) internal virtual {\\n        address owner = ERC721Upgradeable.ownerOf(tokenId);\\n\\n        _beforeTokenTransfer(owner, address(0), tokenId);\\n\\n        // Clear approvals\\n        _approve(address(0), tokenId);\\n\\n        _balances[owner] -= 1;\\n        delete _owners[tokenId];\\n\\n        emit Transfer(owner, address(0), tokenId);\\n    }\\n\\n    /**\\n     * @dev Transfers `tokenId` from `from` to `to`.\\n     *  As opposed to {transferFrom}, this imposes no restrictions on msg.sender.\\n     *\\n     * Requirements:\\n     *\\n     * - `to` cannot be the zero address.\\n     * - `tokenId` token must be owned by `from`.\\n     *\\n     * Emits a {Transfer} event.\\n     */\\n    function _transfer(address from, address to, uint256 tokenId) internal virtual {\\n        require(ERC721Upgradeable.ownerOf(tokenId) == from, \\\"ERC721: transfer of token that is not own\\\");\\n        require(to != address(0), \\\"ERC721: transfer to the zero address\\\");\\n\\n        _beforeTokenTransfer(from, to, tokenId);\\n\\n        // Clear approvals from the previous owner\\n        _approve(address(0), tokenId);\\n\\n        _balances[from] -= 1;\\n        _balances[to] += 1;\\n        _owners[tokenId] = to;\\n\\n        emit Transfer(from, to, tokenId);\\n    }\\n\\n    /**\\n     * @dev Approve `to` to operate on `tokenId`\\n     *\\n     * Emits a {Approval} event.\\n     */\\n    function _approve(address to, uint256 tokenId) internal virtual {\\n        _tokenApprovals[tokenId] = to;\\n        emit Approval(ERC721Upgradeable.ownerOf(tokenId), to, tokenId);\\n    }\\n\\n    /**\\n     * @dev Internal function to invoke {IERC721Receiver-onERC721Received} on a target address.\\n     * The call is not executed if the target address is not a contract.\\n     *\\n     * @param from address representing the previous owner of the given token ID\\n     * @param to target address that will receive the tokens\\n     * @param tokenId uint256 ID of the token to be transferred\\n     * @param _data bytes optional data to send along with the call\\n     * @return bool whether the call correctly returned the expected magic value\\n     */\\n    function _checkOnERC721Received(address from, address to, uint256 tokenId, bytes memory _data)\\n        private returns (bool)\\n    {\\n        if (to.isContract()) {\\n            try IERC721ReceiverUpgradeable(to).onERC721Received(_msgSender(), from, tokenId, _data) returns (bytes4 retval) {\\n                return retval == IERC721ReceiverUpgradeable(to).onERC721Received.selector;\\n            } catch (bytes memory reason) {\\n                if (reason.length == 0) {\\n                    revert(\\\"ERC721: transfer to non ERC721Receiver implementer\\\");\\n                } else {\\n                    // solhint-disable-next-line no-inline-assembly\\n                    assembly {\\n                        revert(add(32, reason), mload(reason))\\n                    }\\n                }\\n            }\\n        } else {\\n            return true;\\n        }\\n    }\\n\\n    /**\\n     * @dev Hook that is called before any token transfer. This includes minting\\n     * and burning.\\n     *\\n     * Calling conditions:\\n     *\\n     * - When `from` and `to` are both non-zero, ``from``'s `tokenId` will be\\n     * transferred to `to`.\\n     * - When `from` is zero, `tokenId` will be minted for `to`.\\n     * - When `to` is zero, ``from``'s `tokenId` will be burned.\\n     * - `from` cannot be the zero address.\\n     * - `to` cannot be the zero address.\\n     *\\n     * To learn more about hooks, head to xref:ROOT:extending-contracts.adoc#using-hooks[Using Hooks].\\n     */\\n    function _beforeTokenTransfer(address from, address to, uint256 tokenId) internal virtual { }\\n    uint256[44] private __gap;\\n}\\n\",\"keccak256\":\"0x2ab92ebd3f4d4d85f30b39bd678ec3489e00aadd0a432c7a0ffa98adc2799004\",\"license\":\"MIT\"},\"@openzeppelin/contracts-upgradeable/token/ERC721/IERC721ReceiverUpgradeable.sol\":{\"content\":\"// SPDX-License-Identifier: MIT\\n\\npragma solidity ^0.8.0;\\n\\n/**\\n * @title ERC721 token receiver interface\\n * @dev Interface for any contract that wants to support safeTransfers\\n * from ERC721 asset contracts.\\n */\\ninterface IERC721ReceiverUpgradeable {\\n    /**\\n     * @dev Whenever an {IERC721} `tokenId` token is transferred to this contract via {IERC721-safeTransferFrom}\\n     * by `operator` from `from`, this function is called.\\n     *\\n     * It must return its Solidity selector to confirm the token transfer.\\n     * If any other value is returned or the interface is not implemented by the recipient, the transfer will be reverted.\\n     *\\n     * The selector can be obtained in Solidity with `IERC721.onERC721Received.selector`.\\n     */\\n    function onERC721Received(address operator, address from, uint256 tokenId, bytes calldata data) external returns (bytes4);\\n}\\n\",\"keccak256\":\"0x33620beff0655c5e728a72fff76fb6ce2dc32fc6b61eb8e435b12ed1adf31525\",\"license\":\"MIT\"},\"@openzeppelin/contracts-upgradeable/token/ERC721/IERC721Upgradeable.sol\":{\"content\":\"// SPDX-License-Identifier: MIT\\n\\npragma solidity ^0.8.0;\\n\\nimport \\\"../../utils/introspection/IERC165Upgradeable.sol\\\";\\n\\n/**\\n * @dev Required interface of an ERC721 compliant contract.\\n */\\ninterface IERC721Upgradeable is IERC165Upgradeable {\\n    /**\\n     * @dev Emitted when `tokenId` token is transferred from `from` to `to`.\\n     */\\n    event Transfer(address indexed from, address indexed to, uint256 indexed tokenId);\\n\\n    /**\\n     * @dev Emitted when `owner` enables `approved` to manage the `tokenId` token.\\n     */\\n    event Approval(address indexed owner, address indexed approved, uint256 indexed tokenId);\\n\\n    /**\\n     * @dev Emitted when `owner` enables or disables (`approved`) `operator` to manage all of its assets.\\n     */\\n    event ApprovalForAll(address indexed owner, address indexed operator, bool approved);\\n\\n    /**\\n     * @dev Returns the number of tokens in ``owner``'s account.\\n     */\\n    function balanceOf(address owner) external view returns (uint256 balance);\\n\\n    /**\\n     * @dev Returns the owner of the `tokenId` token.\\n     *\\n     * Requirements:\\n     *\\n     * - `tokenId` must exist.\\n     */\\n    function ownerOf(uint256 tokenId) external view returns (address owner);\\n\\n    /**\\n     * @dev Safely transfers `tokenId` token from `from` to `to`, checking first that contract recipients\\n     * are aware of the ERC721 protocol to prevent tokens from being forever locked.\\n     *\\n     * Requirements:\\n     *\\n     * - `from` cannot be the zero address.\\n     * - `to` cannot be the zero address.\\n     * - `tokenId` token must exist and be owned by `from`.\\n     * - If the caller is not `from`, it must be have been allowed to move this token by either {approve} or {setApprovalForAll}.\\n     * - If `to` refers to a smart contract, it must implement {IERC721Receiver-onERC721Received}, which is called upon a safe transfer.\\n     *\\n     * Emits a {Transfer} event.\\n     */\\n    function safeTransferFrom(address from, address to, uint256 tokenId) external;\\n\\n    /**\\n     * @dev Transfers `tokenId` token from `from` to `to`.\\n     *\\n     * WARNING: Usage of this method is discouraged, use {safeTransferFrom} whenever possible.\\n     *\\n     * Requirements:\\n     *\\n     * - `from` cannot be the zero address.\\n     * - `to` cannot be the zero address.\\n     * - `tokenId` token must be owned by `from`.\\n     * - If the caller is not `from`, it must be approved to move this token by either {approve} or {setApprovalForAll}.\\n     *\\n     * Emits a {Transfer} event.\\n     */\\n    function transferFrom(address from, address to, uint256 tokenId) external;\\n\\n    /**\\n     * @dev Gives permission to `to` to transfer `tokenId` token to another account.\\n     * The approval is cleared when the token is transferred.\\n     *\\n     * Only a single account can be approved at a time, so approving the zero address clears previous approvals.\\n     *\\n     * Requirements:\\n     *\\n     * - The caller must own the token or be an approved operator.\\n     * - `tokenId` must exist.\\n     *\\n     * Emits an {Approval} event.\\n     */\\n    function approve(address to, uint256 tokenId) external;\\n\\n    /**\\n     * @dev Returns the account approved for `tokenId` token.\\n     *\\n     * Requirements:\\n     *\\n     * - `tokenId` must exist.\\n     */\\n    function getApproved(uint256 tokenId) external view returns (address operator);\\n\\n    /**\\n     * @dev Approve or remove `operator` as an operator for the caller.\\n     * Operators can call {transferFrom} or {safeTransferFrom} for any token owned by the caller.\\n     *\\n     * Requirements:\\n     *\\n     * - The `operator` cannot be the caller.\\n     *\\n     * Emits an {ApprovalForAll} event.\\n     */\\n    function setApprovalForAll(address operator, bool _approved) external;\\n\\n    /**\\n     * @dev Returns if the `operator` is allowed to manage all of the assets of `owner`.\\n     *\\n     * See {setApprovalForAll}\\n     */\\n    function isApprovedForAll(address owner, address operator) external view returns (bool);\\n\\n    /**\\n      * @dev Safely transfers `tokenId` token from `from` to `to`.\\n      *\\n      * Requirements:\\n      *\\n      * - `from` cannot be the zero address.\\n      * - `to` cannot be the zero address.\\n      * - `tokenId` token must exist and be owned by `from`.\\n      * - If the caller is not `from`, it must be approved to move this token by either {approve} or {setApprovalForAll}.\\n      * - If `to` refers to a smart contract, it must implement {IERC721Receiver-onERC721Received}, which is called upon a safe transfer.\\n      *\\n      * Emits a {Transfer} event.\\n      */\\n    function safeTransferFrom(address from, address to, uint256 tokenId, bytes calldata data) external;\\n}\\n\",\"keccak256\":\"0x9ef7f2874f4a491f253a81eb4c5b9a7b6467a287aa0c32ac3dd684260a3cd7ad\",\"license\":\"MIT\"},\"@openzeppelin/contracts-upgradeable/token/ERC721/extensions/IERC721MetadataUpgradeable.sol\":{\"content\":\"// SPDX-License-Identifier: MIT\\n\\npragma solidity ^0.8.0;\\n\\nimport \\\"../IERC721Upgradeable.sol\\\";\\n\\n/**\\n * @title ERC-721 Non-Fungible Token Standard, optional metadata extension\\n * @dev See https://eips.ethereum.org/EIPS/eip-721\\n */\\ninterface IERC721MetadataUpgradeable is IERC721Upgradeable {\\n\\n    /**\\n     * @dev Returns the token collection name.\\n     */\\n    function name() external view returns (string memory);\\n\\n    /**\\n     * @dev Returns the token collection symbol.\\n     */\\n    function symbol() external view returns (string memory);\\n\\n    /**\\n     * @dev Returns the Uniform Resource Identifier (URI) for `tokenId` token.\\n     */\\n    function tokenURI(uint256 tokenId) external view returns (string memory);\\n}\\n\",\"keccak256\":\"0x64581a092c059ab0cb74f473545e379b8a88f36a6a57f805515ef8c6ae061847\",\"license\":\"MIT\"},\"@openzeppelin/contracts-upgradeable/utils/AddressUpgradeable.sol\":{\"content\":\"// SPDX-License-Identifier: MIT\\n\\npragma solidity ^0.8.0;\\n\\n/**\\n * @dev Collection of functions related to the address type\\n */\\nlibrary AddressUpgradeable {\\n    /**\\n     * @dev Returns true if `account` is a contract.\\n     *\\n     * [IMPORTANT]\\n     * ====\\n     * It is unsafe to assume that an address for which this function returns\\n     * false is an externally-owned account (EOA) and not a contract.\\n     *\\n     * Among others, `isContract` will return false for the following\\n     * types of addresses:\\n     *\\n     *  - an externally-owned account\\n     *  - a contract in construction\\n     *  - an address where a contract will be created\\n     *  - an address where a contract lived, but was destroyed\\n     * ====\\n     */\\n    function isContract(address account) internal view returns (bool) {\\n        // This method relies on extcodesize, which returns 0 for contracts in\\n        // construction, since the code is only stored at the end of the\\n        // constructor execution.\\n\\n        uint256 size;\\n        // solhint-disable-next-line no-inline-assembly\\n        assembly { size := extcodesize(account) }\\n        return size > 0;\\n    }\\n\\n    /**\\n     * @dev Replacement for Solidity's `transfer`: sends `amount` wei to\\n     * `recipient`, forwarding all available gas and reverting on errors.\\n     *\\n     * https://eips.ethereum.org/EIPS/eip-1884[EIP1884] increases the gas cost\\n     * of certain opcodes, possibly making contracts go over the 2300 gas limit\\n     * imposed by `transfer`, making them unable to receive funds via\\n     * `transfer`. {sendValue} removes this limitation.\\n     *\\n     * https://diligence.consensys.net/posts/2019/09/stop-using-soliditys-transfer-now/[Learn more].\\n     *\\n     * IMPORTANT: because control is transferred to `recipient`, care must be\\n     * taken to not create reentrancy vulnerabilities. Consider using\\n     * {ReentrancyGuard} or the\\n     * https://solidity.readthedocs.io/en/v0.5.11/security-considerations.html#use-the-checks-effects-interactions-pattern[checks-effects-interactions pattern].\\n     */\\n    function sendValue(address payable recipient, uint256 amount) internal {\\n        require(address(this).balance >= amount, \\\"Address: insufficient balance\\\");\\n\\n        // solhint-disable-next-line avoid-low-level-calls, avoid-call-value\\n        (bool success, ) = recipient.call{ value: amount }(\\\"\\\");\\n        require(success, \\\"Address: unable to send value, recipient may have reverted\\\");\\n    }\\n\\n    /**\\n     * @dev Performs a Solidity function call using a low level `call`. A\\n     * plain`call` is an unsafe replacement for a function call: use this\\n     * function instead.\\n     *\\n     * If `target` reverts with a revert reason, it is bubbled up by this\\n     * function (like regular Solidity function calls).\\n     *\\n     * Returns the raw returned data. To convert to the expected return value,\\n     * use https://solidity.readthedocs.io/en/latest/units-and-global-variables.html?highlight=abi.decode#abi-encoding-and-decoding-functions[`abi.decode`].\\n     *\\n     * Requirements:\\n     *\\n     * - `target` must be a contract.\\n     * - calling `target` with `data` must not revert.\\n     *\\n     * _Available since v3.1._\\n     */\\n    function functionCall(address target, bytes memory data) internal returns (bytes memory) {\\n      return functionCall(target, data, \\\"Address: low-level call failed\\\");\\n    }\\n\\n    /**\\n     * @dev Same as {xref-Address-functionCall-address-bytes-}[`functionCall`], but with\\n     * `errorMessage` as a fallback revert reason when `target` reverts.\\n     *\\n     * _Available since v3.1._\\n     */\\n    function functionCall(address target, bytes memory data, string memory errorMessage) internal returns (bytes memory) {\\n        return functionCallWithValue(target, data, 0, errorMessage);\\n    }\\n\\n    /**\\n     * @dev Same as {xref-Address-functionCall-address-bytes-}[`functionCall`],\\n     * but also transferring `value` wei to `target`.\\n     *\\n     * Requirements:\\n     *\\n     * - the calling contract must have an ETH balance of at least `value`.\\n     * - the called Solidity function must be `payable`.\\n     *\\n     * _Available since v3.1._\\n     */\\n    function functionCallWithValue(address target, bytes memory data, uint256 value) internal returns (bytes memory) {\\n        return functionCallWithValue(target, data, value, \\\"Address: low-level call with value failed\\\");\\n    }\\n\\n    /**\\n     * @dev Same as {xref-Address-functionCallWithValue-address-bytes-uint256-}[`functionCallWithValue`], but\\n     * with `errorMessage` as a fallback revert reason when `target` reverts.\\n     *\\n     * _Available since v3.1._\\n     */\\n    function functionCallWithValue(address target, bytes memory data, uint256 value, string memory errorMessage) internal returns (bytes memory) {\\n        require(address(this).balance >= value, \\\"Address: insufficient balance for call\\\");\\n        require(isContract(target), \\\"Address: call to non-contract\\\");\\n\\n        // solhint-disable-next-line avoid-low-level-calls\\n        (bool success, bytes memory returndata) = target.call{ value: value }(data);\\n        return _verifyCallResult(success, returndata, errorMessage);\\n    }\\n\\n    /**\\n     * @dev Same as {xref-Address-functionCall-address-bytes-}[`functionCall`],\\n     * but performing a static call.\\n     *\\n     * _Available since v3.3._\\n     */\\n    function functionStaticCall(address target, bytes memory data) internal view returns (bytes memory) {\\n        return functionStaticCall(target, data, \\\"Address: low-level static call failed\\\");\\n    }\\n\\n    /**\\n     * @dev Same as {xref-Address-functionCall-address-bytes-string-}[`functionCall`],\\n     * but performing a static call.\\n     *\\n     * _Available since v3.3._\\n     */\\n    function functionStaticCall(address target, bytes memory data, string memory errorMessage) internal view returns (bytes memory) {\\n        require(isContract(target), \\\"Address: static call to non-contract\\\");\\n\\n        // solhint-disable-next-line avoid-low-level-calls\\n        (bool success, bytes memory returndata) = target.staticcall(data);\\n        return _verifyCallResult(success, returndata, errorMessage);\\n    }\\n\\n    function _verifyCallResult(bool success, bytes memory returndata, string memory errorMessage) private pure returns(bytes memory) {\\n        if (success) {\\n            return returndata;\\n        } else {\\n            // Look for revert reason and bubble it up if present\\n            if (returndata.length > 0) {\\n                // The easiest way to bubble the revert reason is using memory via assembly\\n\\n                // solhint-disable-next-line no-inline-assembly\\n                assembly {\\n                    let returndata_size := mload(returndata)\\n                    revert(add(32, returndata), returndata_size)\\n                }\\n            } else {\\n                revert(errorMessage);\\n            }\\n        }\\n    }\\n}\\n\",\"keccak256\":\"0x5642ae1d6b33c5c0b71a8412c6c64cbcf2468b84a002bee3e33cdb5644d25cdb\",\"license\":\"MIT\"},\"@openzeppelin/contracts-upgradeable/utils/ContextUpgradeable.sol\":{\"content\":\"// SPDX-License-Identifier: MIT\\n\\npragma solidity ^0.8.0;\\nimport \\\"../proxy/utils/Initializable.sol\\\";\\n\\n/*\\n * @dev Provides information about the current execution context, including the\\n * sender of the transaction and its data. While these are generally available\\n * via msg.sender and msg.data, they should not be accessed in such a direct\\n * manner, since when dealing with meta-transactions the account sending and\\n * paying for execution may not be the actual sender (as far as an application\\n * is concerned).\\n *\\n * This contract is only required for intermediate, library-like contracts.\\n */\\nabstract contract ContextUpgradeable is Initializable {\\n    function __Context_init() internal initializer {\\n        __Context_init_unchained();\\n    }\\n\\n    function __Context_init_unchained() internal initializer {\\n    }\\n    function _msgSender() internal view virtual returns (address) {\\n        return msg.sender;\\n    }\\n\\n    function _msgData() internal view virtual returns (bytes calldata) {\\n        this; // silence state mutability warning without generating bytecode - see https://github.com/ethereum/solidity/issues/2691\\n        return msg.data;\\n    }\\n    uint256[50] private __gap;\\n}\\n\",\"keccak256\":\"0x8e9eb503de1189f50c5f16fef327da310b11898d6b9ab3ca937df07c35233b9e\",\"license\":\"MIT\"},\"@openzeppelin/contracts-upgradeable/utils/StringsUpgradeable.sol\":{\"content\":\"// SPDX-License-Identifier: MIT\\n\\npragma solidity ^0.8.0;\\n\\n/**\\n * @dev String operations.\\n */\\nlibrary StringsUpgradeable {\\n    bytes16 private constant alphabet = \\\"0123456789abcdef\\\";\\n\\n    /**\\n     * @dev Converts a `uint256` to its ASCII `string` decimal representation.\\n     */\\n    function toString(uint256 value) internal pure returns (string memory) {\\n        // Inspired by OraclizeAPI's implementation - MIT licence\\n        // https://github.com/oraclize/ethereum-api/blob/b42146b063c7d6ee1358846c198246239e9360e8/oraclizeAPI_0.4.25.sol\\n\\n        if (value == 0) {\\n            return \\\"0\\\";\\n        }\\n        uint256 temp = value;\\n        uint256 digits;\\n        while (temp != 0) {\\n            digits++;\\n            temp /= 10;\\n        }\\n        bytes memory buffer = new bytes(digits);\\n        while (value != 0) {\\n            digits -= 1;\\n            buffer[digits] = bytes1(uint8(48 + uint256(value % 10)));\\n            value /= 10;\\n        }\\n        return string(buffer);\\n    }\\n\\n    /**\\n     * @dev Converts a `uint256` to its ASCII `string` hexadecimal representation.\\n     */\\n    function toHexString(uint256 value) internal pure returns (string memory) {\\n        if (value == 0) {\\n            return \\\"0x00\\\";\\n        }\\n        uint256 temp = value;\\n        uint256 length = 0;\\n        while (temp != 0) {\\n            length++;\\n            temp >>= 8;\\n        }\\n        return toHexString(value, length);\\n    }\\n\\n    /**\\n     * @dev Converts a `uint256` to its ASCII `string` hexadecimal representation with fixed length.\\n     */\\n    function toHexString(uint256 value, uint256 length) internal pure returns (string memory) {\\n        bytes memory buffer = new bytes(2 * length + 2);\\n        buffer[0] = \\\"0\\\";\\n        buffer[1] = \\\"x\\\";\\n        for (uint256 i = 2 * length + 1; i > 1; --i) {\\n            buffer[i] = alphabet[value & 0xf];\\n            value >>= 4;\\n        }\\n        require(value == 0, \\\"Strings: hex length insufficient\\\");\\n        return string(buffer);\\n    }\\n\\n}\\n\",\"keccak256\":\"0x6964377da5c19ade6b3e96bae0c0e82494d518af70cf12d2cdb3276f78fb3d85\",\"license\":\"MIT\"},\"@openzeppelin/contracts-upgradeable/utils/introspection/ERC165Upgradeable.sol\":{\"content\":\"// SPDX-License-Identifier: MIT\\n\\npragma solidity ^0.8.0;\\n\\nimport \\\"./IERC165Upgradeable.sol\\\";\\nimport \\\"../../proxy/utils/Initializable.sol\\\";\\n\\n/**\\n * @dev Implementation of the {IERC165} interface.\\n *\\n * Contracts that want to implement ERC165 should inherit from this contract and override {supportsInterface} to check\\n * for the additional interface id that will be supported. For example:\\n *\\n * ```solidity\\n * function supportsInterface(bytes4 interfaceId) public view virtual override returns (bool) {\\n *     return interfaceId == type(MyInterface).interfaceId || super.supportsInterface(interfaceId);\\n * }\\n * ```\\n *\\n * Alternatively, {ERC165Storage} provides an easier to use but more expensive implementation.\\n */\\nabstract contract ERC165Upgradeable is Initializable, IERC165Upgradeable {\\n    function __ERC165_init() internal initializer {\\n        __ERC165_init_unchained();\\n    }\\n\\n    function __ERC165_init_unchained() internal initializer {\\n    }\\n    /**\\n     * @dev See {IERC165-supportsInterface}.\\n     */\\n    function supportsInterface(bytes4 interfaceId) public view virtual override returns (bool) {\\n        return interfaceId == type(IERC165Upgradeable).interfaceId;\\n    }\\n    uint256[50] private __gap;\\n}\\n\",\"keccak256\":\"0x17c9c5d2d6b56527215ee7b3da6dde66b6f23f1b3d5c66cc436e753ef349a97a\",\"license\":\"MIT\"},\"@openzeppelin/contracts-upgradeable/utils/introspection/IERC165Upgradeable.sol\":{\"content\":\"// SPDX-License-Identifier: MIT\\n\\npragma solidity ^0.8.0;\\n\\n/**\\n * @dev Interface of the ERC165 standard, as defined in the\\n * https://eips.ethereum.org/EIPS/eip-165[EIP].\\n *\\n * Implementers can declare support of contract interfaces, which can then be\\n * queried by others ({ERC165Checker}).\\n *\\n * For an implementation, see {ERC165}.\\n */\\ninterface IERC165Upgradeable {\\n    /**\\n     * @dev Returns true if this contract implements the interface defined by\\n     * `interfaceId`. See the corresponding\\n     * https://eips.ethereum.org/EIPS/eip-165#how-interfaces-are-identified[EIP section]\\n     * to learn more about how these ids are created.\\n     *\\n     * This function call must use less than 30 000 gas.\\n     */\\n    function supportsInterface(bytes4 interfaceId) external view returns (bool);\\n}\\n\",\"keccak256\":\"0x1c4860acd323e34a67b3e97faab9aaa55fe8e92b1dcf08b5f47f3468d58ce75c\",\"license\":\"MIT\"},\"@openzeppelin/contracts/access/Ownable.sol\":{\"content\":\"// SPDX-License-Identifier: MIT\\n\\npragma solidity ^0.8.0;\\n\\nimport \\\"../utils/Context.sol\\\";\\n/**\\n * @dev Contract module which provides a basic access control mechanism, where\\n * there is an account (an owner) that can be granted exclusive access to\\n * specific functions.\\n *\\n * By default, the owner account will be the one that deploys the contract. This\\n * can later be changed with {transferOwnership}.\\n *\\n * This module is used through inheritance. It will make available the modifier\\n * `onlyOwner`, which can be applied to your functions to restrict their use to\\n * the owner.\\n */\\nabstract contract Ownable is Context {\\n    address private _owner;\\n\\n    event OwnershipTransferred(address indexed previousOwner, address indexed newOwner);\\n\\n    /**\\n     * @dev Initializes the contract setting the deployer as the initial owner.\\n     */\\n    constructor () {\\n        address msgSender = _msgSender();\\n        _owner = msgSender;\\n        emit OwnershipTransferred(address(0), msgSender);\\n    }\\n\\n    /**\\n     * @dev Returns the address of the current owner.\\n     */\\n    function owner() public view virtual returns (address) {\\n        return _owner;\\n    }\\n\\n    /**\\n     * @dev Throws if called by any account other than the owner.\\n     */\\n    modifier onlyOwner() {\\n        require(owner() == _msgSender(), \\\"Ownable: caller is not the owner\\\");\\n        _;\\n    }\\n\\n    /**\\n     * @dev Leaves the contract without owner. It will not be possible to call\\n     * `onlyOwner` functions anymore. Can only be called by the current owner.\\n     *\\n     * NOTE: Renouncing ownership will leave the contract without an owner,\\n     * thereby removing any functionality that is only available to the owner.\\n     */\\n    function renounceOwnership() public virtual onlyOwner {\\n        emit OwnershipTransferred(_owner, address(0));\\n        _owner = address(0);\\n    }\\n\\n    /**\\n     * @dev Transfers ownership of the contract to a new account (`newOwner`).\\n     * Can only be called by the current owner.\\n     */\\n    function transferOwnership(address newOwner) public virtual onlyOwner {\\n        require(newOwner != address(0), \\\"Ownable: new owner is the zero address\\\");\\n        emit OwnershipTransferred(_owner, newOwner);\\n        _owner = newOwner;\\n    }\\n}\\n\",\"keccak256\":\"0x1cae4f85f114ff17b90414f5da67365b1d00337abb5bce9bf944eb78a2c0673c\",\"license\":\"MIT\"},\"@openzeppelin/contracts/proxy/Clones.sol\":{\"content\":\"// SPDX-License-Identifier: MIT\\n\\npragma solidity ^0.8.0;\\n\\n/**\\n * @dev https://eips.ethereum.org/EIPS/eip-1167[EIP 1167] is a standard for\\n * deploying minimal proxy contracts, also known as \\\"clones\\\".\\n *\\n * > To simply and cheaply clone contract functionality in an immutable way, this standard specifies\\n * > a minimal bytecode implementation that delegates all calls to a known, fixed address.\\n *\\n * The library includes functions to deploy a proxy using either `create` (traditional deployment) or `create2`\\n * (salted deterministic deployment). It also includes functions to predict the addresses of clones deployed using the\\n * deterministic method.\\n *\\n * _Available since v3.4._\\n */\\nlibrary Clones {\\n    /**\\n     * @dev Deploys and returns the address of a clone that mimics the behaviour of `implementation`.\\n     *\\n     * This function uses the create opcode, which should never revert.\\n     */\\n    function clone(address implementation) internal returns (address instance) {\\n        // solhint-disable-next-line no-inline-assembly\\n        assembly {\\n            let ptr := mload(0x40)\\n            mstore(ptr, 0x3d602d80600a3d3981f3363d3d373d3d3d363d73000000000000000000000000)\\n            mstore(add(ptr, 0x14), shl(0x60, implementation))\\n            mstore(add(ptr, 0x28), 0x5af43d82803e903d91602b57fd5bf30000000000000000000000000000000000)\\n            instance := create(0, ptr, 0x37)\\n        }\\n        require(instance != address(0), \\\"ERC1167: create failed\\\");\\n    }\\n\\n    /**\\n     * @dev Deploys and returns the address of a clone that mimics the behaviour of `implementation`.\\n     *\\n     * This function uses the create2 opcode and a `salt` to deterministically deploy\\n     * the clone. Using the same `implementation` and `salt` multiple time will revert, since\\n     * the clones cannot be deployed twice at the same address.\\n     */\\n    function cloneDeterministic(address implementation, bytes32 salt) internal returns (address instance) {\\n        // solhint-disable-next-line no-inline-assembly\\n        assembly {\\n            let ptr := mload(0x40)\\n            mstore(ptr, 0x3d602d80600a3d3981f3363d3d373d3d3d363d73000000000000000000000000)\\n            mstore(add(ptr, 0x14), shl(0x60, implementation))\\n            mstore(add(ptr, 0x28), 0x5af43d82803e903d91602b57fd5bf30000000000000000000000000000000000)\\n            instance := create2(0, ptr, 0x37, salt)\\n        }\\n        require(instance != address(0), \\\"ERC1167: create2 failed\\\");\\n    }\\n\\n    /**\\n     * @dev Computes the address of a clone deployed using {Clones-cloneDeterministic}.\\n     */\\n    function predictDeterministicAddress(address implementation, bytes32 salt, address deployer) internal pure returns (address predicted) {\\n        // solhint-disable-next-line no-inline-assembly\\n        assembly {\\n            let ptr := mload(0x40)\\n            mstore(ptr, 0x3d602d80600a3d3981f3363d3d373d3d3d363d73000000000000000000000000)\\n            mstore(add(ptr, 0x14), shl(0x60, implementation))\\n            mstore(add(ptr, 0x28), 0x5af43d82803e903d91602b57fd5bf3ff00000000000000000000000000000000)\\n            mstore(add(ptr, 0x38), shl(0x60, deployer))\\n            mstore(add(ptr, 0x4c), salt)\\n            mstore(add(ptr, 0x6c), keccak256(ptr, 0x37))\\n            predicted := keccak256(add(ptr, 0x37), 0x55)\\n        }\\n    }\\n\\n    /**\\n     * @dev Computes the address of a clone deployed using {Clones-cloneDeterministic}.\\n     */\\n    function predictDeterministicAddress(address implementation, bytes32 salt) internal view returns (address predicted) {\\n        return predictDeterministicAddress(implementation, salt, address(this));\\n    }\\n}\\n\",\"keccak256\":\"0x90dec20805396efc780a82c62578626103e03278bc1f48b61bb3aba52a61617c\",\"license\":\"MIT\"},\"@openzeppelin/contracts/proxy/Proxy.sol\":{\"content\":\"// SPDX-License-Identifier: MIT\\n\\npragma solidity ^0.8.0;\\n\\n/**\\n * @dev This abstract contract provides a fallback function that delegates all calls to another contract using the EVM\\n * instruction `delegatecall`. We refer to the second contract as the _implementation_ behind the proxy, and it has to\\n * be specified by overriding the virtual {_implementation} function.\\n *\\n * Additionally, delegation to the implementation can be triggered manually through the {_fallback} function, or to a\\n * different contract through the {_delegate} function.\\n *\\n * The success and return data of the delegated call will be returned back to the caller of the proxy.\\n */\\nabstract contract Proxy {\\n    /**\\n     * @dev Delegates the current call to `implementation`.\\n     *\\n     * This function does not return to its internall call site, it will return directly to the external caller.\\n     */\\n    function _delegate(address implementation) internal virtual {\\n        // solhint-disable-next-line no-inline-assembly\\n        assembly {\\n            // Copy msg.data. We take full control of memory in this inline assembly\\n            // block because it will not return to Solidity code. We overwrite the\\n            // Solidity scratch pad at memory position 0.\\n            calldatacopy(0, 0, calldatasize())\\n\\n            // Call the implementation.\\n            // out and outsize are 0 because we don't know the size yet.\\n            let result := delegatecall(gas(), implementation, 0, calldatasize(), 0, 0)\\n\\n            // Copy the returned data.\\n            returndatacopy(0, 0, returndatasize())\\n\\n            switch result\\n            // delegatecall returns 0 on error.\\n            case 0 { revert(0, returndatasize()) }\\n            default { return(0, returndatasize()) }\\n        }\\n    }\\n\\n    /**\\n     * @dev This is a virtual function that should be overriden so it returns the address to which the fallback function\\n     * and {_fallback} should delegate.\\n     */\\n    function _implementation() internal view virtual returns (address);\\n\\n    /**\\n     * @dev Delegates the current call to the address returned by `_implementation()`.\\n     *\\n     * This function does not return to its internall call site, it will return directly to the external caller.\\n     */\\n    function _fallback() internal virtual {\\n        _beforeFallback();\\n        _delegate(_implementation());\\n    }\\n\\n    /**\\n     * @dev Fallback function that delegates calls to the address returned by `_implementation()`. Will run if no other\\n     * function in the contract matches the call data.\\n     */\\n    fallback () external payable virtual {\\n        _fallback();\\n    }\\n\\n    /**\\n     * @dev Fallback function that delegates calls to the address returned by `_implementation()`. Will run if call data\\n     * is empty.\\n     */\\n    receive () external payable virtual {\\n        _fallback();\\n    }\\n\\n    /**\\n     * @dev Hook that is called before falling back to the implementation. Can happen as part of a manual `_fallback`\\n     * call, or as part of the Solidity `fallback` or `receive` functions.\\n     *\\n     * If overriden should call `super._beforeFallback()`.\\n     */\\n    function _beforeFallback() internal virtual {\\n    }\\n}\\n\",\"keccak256\":\"0xc706395df88dc1d459f21e51c57ab8820af80d1e8c3c14933a651794d78a429f\",\"license\":\"MIT\"},\"@openzeppelin/contracts/proxy/beacon/IBeacon.sol\":{\"content\":\"// SPDX-License-Identifier: MIT\\n\\npragma solidity ^0.8.0;\\n\\n/**\\n * @dev This is the interface that {BeaconProxy} expects of its beacon.\\n */\\ninterface IBeacon {\\n    /**\\n     * @dev Must return an address that can be used as a delegate call target.\\n     *\\n     * {BeaconProxy} will check that this address is a contract.\\n     */\\n    function implementation() external view returns (address);\\n}\\n\",\"keccak256\":\"0x5615339d191e77be7e46319b67856f9355786f705b7b3c4a7237ab70c1864ab1\",\"license\":\"MIT\"},\"@openzeppelin/contracts/token/ERC20/ERC20.sol\":{\"content\":\"// SPDX-License-Identifier: MIT\\n\\npragma solidity ^0.8.0;\\n\\nimport \\\"./IERC20.sol\\\";\\nimport \\\"./extensions/IERC20Metadata.sol\\\";\\nimport \\\"../../utils/Context.sol\\\";\\n\\n/**\\n * @dev Implementation of the {IERC20} interface.\\n *\\n * This implementation is agnostic to the way tokens are created. This means\\n * that a supply mechanism has to be added in a derived contract using {_mint}.\\n * For a generic mechanism see {ERC20PresetMinterPauser}.\\n *\\n * TIP: For a detailed writeup see our guide\\n * https://forum.zeppelin.solutions/t/how-to-implement-erc20-supply-mechanisms/226[How\\n * to implement supply mechanisms].\\n *\\n * We have followed general OpenZeppelin guidelines: functions revert instead\\n * of returning `false` on failure. This behavior is nonetheless conventional\\n * and does not conflict with the expectations of ERC20 applications.\\n *\\n * Additionally, an {Approval} event is emitted on calls to {transferFrom}.\\n * This allows applications to reconstruct the allowance for all accounts just\\n * by listening to said events. Other implementations of the EIP may not emit\\n * these events, as it isn't required by the specification.\\n *\\n * Finally, the non-standard {decreaseAllowance} and {increaseAllowance}\\n * functions have been added to mitigate the well-known issues around setting\\n * allowances. See {IERC20-approve}.\\n */\\ncontract ERC20 is Context, IERC20, IERC20Metadata {\\n    mapping (address => uint256) private _balances;\\n\\n    mapping (address => mapping (address => uint256)) private _allowances;\\n\\n    uint256 private _totalSupply;\\n\\n    string private _name;\\n    string private _symbol;\\n\\n    /**\\n     * @dev Sets the values for {name} and {symbol}.\\n     *\\n     * The defaut value of {decimals} is 18. To select a different value for\\n     * {decimals} you should overload it.\\n     *\\n     * All two of these values are immutable: they can only be set once during\\n     * construction.\\n     */\\n    constructor (string memory name_, string memory symbol_) {\\n        _name = name_;\\n        _symbol = symbol_;\\n    }\\n\\n    /**\\n     * @dev Returns the name of the token.\\n     */\\n    function name() public view virtual override returns (string memory) {\\n        return _name;\\n    }\\n\\n    /**\\n     * @dev Returns the symbol of the token, usually a shorter version of the\\n     * name.\\n     */\\n    function symbol() public view virtual override returns (string memory) {\\n        return _symbol;\\n    }\\n\\n    /**\\n     * @dev Returns the number of decimals used to get its user representation.\\n     * For example, if `decimals` equals `2`, a balance of `505` tokens should\\n     * be displayed to a user as `5,05` (`505 / 10 ** 2`).\\n     *\\n     * Tokens usually opt for a value of 18, imitating the relationship between\\n     * Ether and Wei. This is the value {ERC20} uses, unless this function is\\n     * overridden;\\n     *\\n     * NOTE: This information is only used for _display_ purposes: it in\\n     * no way affects any of the arithmetic of the contract, including\\n     * {IERC20-balanceOf} and {IERC20-transfer}.\\n     */\\n    function decimals() public view virtual override returns (uint8) {\\n        return 18;\\n    }\\n\\n    /**\\n     * @dev See {IERC20-totalSupply}.\\n     */\\n    function totalSupply() public view virtual override returns (uint256) {\\n        return _totalSupply;\\n    }\\n\\n    /**\\n     * @dev See {IERC20-balanceOf}.\\n     */\\n    function balanceOf(address account) public view virtual override returns (uint256) {\\n        return _balances[account];\\n    }\\n\\n    /**\\n     * @dev See {IERC20-transfer}.\\n     *\\n     * Requirements:\\n     *\\n     * - `recipient` cannot be the zero address.\\n     * - the caller must have a balance of at least `amount`.\\n     */\\n    function transfer(address recipient, uint256 amount) public virtual override returns (bool) {\\n        _transfer(_msgSender(), recipient, amount);\\n        return true;\\n    }\\n\\n    /**\\n     * @dev See {IERC20-allowance}.\\n     */\\n    function allowance(address owner, address spender) public view virtual override returns (uint256) {\\n        return _allowances[owner][spender];\\n    }\\n\\n    /**\\n     * @dev See {IERC20-approve}.\\n     *\\n     * Requirements:\\n     *\\n     * - `spender` cannot be the zero address.\\n     */\\n    function approve(address spender, uint256 amount) public virtual override returns (bool) {\\n        _approve(_msgSender(), spender, amount);\\n        return true;\\n    }\\n\\n    /**\\n     * @dev See {IERC20-transferFrom}.\\n     *\\n     * Emits an {Approval} event indicating the updated allowance. This is not\\n     * required by the EIP. See the note at the beginning of {ERC20}.\\n     *\\n     * Requirements:\\n     *\\n     * - `sender` and `recipient` cannot be the zero address.\\n     * - `sender` must have a balance of at least `amount`.\\n     * - the caller must have allowance for ``sender``'s tokens of at least\\n     * `amount`.\\n     */\\n    function transferFrom(address sender, address recipient, uint256 amount) public virtual override returns (bool) {\\n        _transfer(sender, recipient, amount);\\n\\n        uint256 currentAllowance = _allowances[sender][_msgSender()];\\n        require(currentAllowance >= amount, \\\"ERC20: transfer amount exceeds allowance\\\");\\n        _approve(sender, _msgSender(), currentAllowance - amount);\\n\\n        return true;\\n    }\\n\\n    /**\\n     * @dev Atomically increases the allowance granted to `spender` by the caller.\\n     *\\n     * This is an alternative to {approve} that can be used as a mitigation for\\n     * problems described in {IERC20-approve}.\\n     *\\n     * Emits an {Approval} event indicating the updated allowance.\\n     *\\n     * Requirements:\\n     *\\n     * - `spender` cannot be the zero address.\\n     */\\n    function increaseAllowance(address spender, uint256 addedValue) public virtual returns (bool) {\\n        _approve(_msgSender(), spender, _allowances[_msgSender()][spender] + addedValue);\\n        return true;\\n    }\\n\\n    /**\\n     * @dev Atomically decreases the allowance granted to `spender` by the caller.\\n     *\\n     * This is an alternative to {approve} that can be used as a mitigation for\\n     * problems described in {IERC20-approve}.\\n     *\\n     * Emits an {Approval} event indicating the updated allowance.\\n     *\\n     * Requirements:\\n     *\\n     * - `spender` cannot be the zero address.\\n     * - `spender` must have allowance for the caller of at least\\n     * `subtractedValue`.\\n     */\\n    function decreaseAllowance(address spender, uint256 subtractedValue) public virtual returns (bool) {\\n        uint256 currentAllowance = _allowances[_msgSender()][spender];\\n        require(currentAllowance >= subtractedValue, \\\"ERC20: decreased allowance below zero\\\");\\n        _approve(_msgSender(), spender, currentAllowance - subtractedValue);\\n\\n        return true;\\n    }\\n\\n    /**\\n     * @dev Moves tokens `amount` from `sender` to `recipient`.\\n     *\\n     * This is internal function is equivalent to {transfer}, and can be used to\\n     * e.g. implement automatic token fees, slashing mechanisms, etc.\\n     *\\n     * Emits a {Transfer} event.\\n     *\\n     * Requirements:\\n     *\\n     * - `sender` cannot be the zero address.\\n     * - `recipient` cannot be the zero address.\\n     * - `sender` must have a balance of at least `amount`.\\n     */\\n    function _transfer(address sender, address recipient, uint256 amount) internal virtual {\\n        require(sender != address(0), \\\"ERC20: transfer from the zero address\\\");\\n        require(recipient != address(0), \\\"ERC20: transfer to the zero address\\\");\\n\\n        _beforeTokenTransfer(sender, recipient, amount);\\n\\n        uint256 senderBalance = _balances[sender];\\n        require(senderBalance >= amount, \\\"ERC20: transfer amount exceeds balance\\\");\\n        _balances[sender] = senderBalance - amount;\\n        _balances[recipient] += amount;\\n\\n        emit Transfer(sender, recipient, amount);\\n    }\\n\\n    /** @dev Creates `amount` tokens and assigns them to `account`, increasing\\n     * the total supply.\\n     *\\n     * Emits a {Transfer} event with `from` set to the zero address.\\n     *\\n     * Requirements:\\n     *\\n     * - `to` cannot be the zero address.\\n     */\\n    function _mint(address account, uint256 amount) internal virtual {\\n        require(account != address(0), \\\"ERC20: mint to the zero address\\\");\\n\\n        _beforeTokenTransfer(address(0), account, amount);\\n\\n        _totalSupply += amount;\\n        _balances[account] += amount;\\n        emit Transfer(address(0), account, amount);\\n    }\\n\\n    /**\\n     * @dev Destroys `amount` tokens from `account`, reducing the\\n     * total supply.\\n     *\\n     * Emits a {Transfer} event with `to` set to the zero address.\\n     *\\n     * Requirements:\\n     *\\n     * - `account` cannot be the zero address.\\n     * - `account` must have at least `amount` tokens.\\n     */\\n    function _burn(address account, uint256 amount) internal virtual {\\n        require(account != address(0), \\\"ERC20: burn from the zero address\\\");\\n\\n        _beforeTokenTransfer(account, address(0), amount);\\n\\n        uint256 accountBalance = _balances[account];\\n        require(accountBalance >= amount, \\\"ERC20: burn amount exceeds balance\\\");\\n        _balances[account] = accountBalance - amount;\\n        _totalSupply -= amount;\\n\\n        emit Transfer(account, address(0), amount);\\n    }\\n\\n    /**\\n     * @dev Sets `amount` as the allowance of `spender` over the `owner` s tokens.\\n     *\\n     * This internal function is equivalent to `approve`, and can be used to\\n     * e.g. set automatic allowances for certain subsystems, etc.\\n     *\\n     * Emits an {Approval} event.\\n     *\\n     * Requirements:\\n     *\\n     * - `owner` cannot be the zero address.\\n     * - `spender` cannot be the zero address.\\n     */\\n    function _approve(address owner, address spender, uint256 amount) internal virtual {\\n        require(owner != address(0), \\\"ERC20: approve from the zero address\\\");\\n        require(spender != address(0), \\\"ERC20: approve to the zero address\\\");\\n\\n        _allowances[owner][spender] = amount;\\n        emit Approval(owner, spender, amount);\\n    }\\n\\n    /**\\n     * @dev Hook that is called before any transfer of tokens. This includes\\n     * minting and burning.\\n     *\\n     * Calling conditions:\\n     *\\n     * - when `from` and `to` are both non-zero, `amount` of ``from``'s tokens\\n     * will be to transferred to `to`.\\n     * - when `from` is zero, `amount` tokens will be minted for `to`.\\n     * - when `to` is zero, `amount` of ``from``'s tokens will be burned.\\n     * - `from` and `to` are never both zero.\\n     *\\n     * To learn more about hooks, head to xref:ROOT:extending-contracts.adoc#using-hooks[Using Hooks].\\n     */\\n    function _beforeTokenTransfer(address from, address to, uint256 amount) internal virtual { }\\n}\\n\",\"keccak256\":\"0xfeccdcbf67b2006a715e5af1a4c7556004d95b2806552b5cc54e46e8eb7e887b\",\"license\":\"MIT\"},\"@openzeppelin/contracts/token/ERC20/IERC20.sol\":{\"content\":\"// SPDX-License-Identifier: MIT\\n\\npragma solidity ^0.8.0;\\n\\n/**\\n * @dev Interface of the ERC20 standard as defined in the EIP.\\n */\\ninterface IERC20 {\\n    /**\\n     * @dev Returns the amount of tokens in existence.\\n     */\\n    function totalSupply() external view returns (uint256);\\n\\n    /**\\n     * @dev Returns the amount of tokens owned by `account`.\\n     */\\n    function balanceOf(address account) external view returns (uint256);\\n\\n    /**\\n     * @dev Moves `amount` tokens from the caller's account to `recipient`.\\n     *\\n     * Returns a boolean value indicating whether the operation succeeded.\\n     *\\n     * Emits a {Transfer} event.\\n     */\\n    function transfer(address recipient, uint256 amount) external returns (bool);\\n\\n    /**\\n     * @dev Returns the remaining number of tokens that `spender` will be\\n     * allowed to spend on behalf of `owner` through {transferFrom}. This is\\n     * zero by default.\\n     *\\n     * This value changes when {approve} or {transferFrom} are called.\\n     */\\n    function allowance(address owner, address spender) external view returns (uint256);\\n\\n    /**\\n     * @dev Sets `amount` as the allowance of `spender` over the caller's tokens.\\n     *\\n     * Returns a boolean value indicating whether the operation succeeded.\\n     *\\n     * IMPORTANT: Beware that changing an allowance with this method brings the risk\\n     * that someone may use both the old and the new allowance by unfortunate\\n     * transaction ordering. One possible solution to mitigate this race\\n     * condition is to first reduce the spender's allowance to 0 and set the\\n     * desired value afterwards:\\n     * https://github.com/ethereum/EIPs/issues/20#issuecomment-263524729\\n     *\\n     * Emits an {Approval} event.\\n     */\\n    function approve(address spender, uint256 amount) external returns (bool);\\n\\n    /**\\n     * @dev Moves `amount` tokens from `sender` to `recipient` using the\\n     * allowance mechanism. `amount` is then deducted from the caller's\\n     * allowance.\\n     *\\n     * Returns a boolean value indicating whether the operation succeeded.\\n     *\\n     * Emits a {Transfer} event.\\n     */\\n    function transferFrom(address sender, address recipient, uint256 amount) external returns (bool);\\n\\n    /**\\n     * @dev Emitted when `value` tokens are moved from one account (`from`) to\\n     * another (`to`).\\n     *\\n     * Note that `value` may be zero.\\n     */\\n    event Transfer(address indexed from, address indexed to, uint256 value);\\n\\n    /**\\n     * @dev Emitted when the allowance of a `spender` for an `owner` is set by\\n     * a call to {approve}. `value` is the new allowance.\\n     */\\n    event Approval(address indexed owner, address indexed spender, uint256 value);\\n}\\n\",\"keccak256\":\"0xf8e8d118a7a8b2e134181f7da655f6266aa3a0f9134b2605747139fcb0c5d835\",\"license\":\"MIT\"},\"@openzeppelin/contracts/token/ERC20/extensions/IERC20Metadata.sol\":{\"content\":\"// SPDX-License-Identifier: MIT\\n\\npragma solidity ^0.8.0;\\n\\nimport \\\"../IERC20.sol\\\";\\n\\n/**\\n * @dev Interface for the optional metadata functions from the ERC20 standard.\\n *\\n * _Available since v4.1._\\n */\\ninterface IERC20Metadata is IERC20 {\\n    /**\\n     * @dev Returns the name of the token.\\n     */\\n    function name() external view returns (string memory);\\n\\n    /**\\n     * @dev Returns the symbol of the token.\\n     */\\n    function symbol() external view returns (string memory);\\n\\n    /**\\n     * @dev Returns the decimals places of the token.\\n     */\\n    function decimals() external view returns (uint8);\\n}\\n\",\"keccak256\":\"0x83fe24f5c04a56091e50f4a345ff504c8bff658a76d4c43b16878c8f940c53b2\",\"license\":\"MIT\"},\"@openzeppelin/contracts/token/ERC20/utils/SafeERC20.sol\":{\"content\":\"// SPDX-License-Identifier: MIT\\n\\npragma solidity ^0.8.0;\\n\\nimport \\\"../IERC20.sol\\\";\\nimport \\\"../../../utils/Address.sol\\\";\\n\\n/**\\n * @title SafeERC20\\n * @dev Wrappers around ERC20 operations that throw on failure (when the token\\n * contract returns false). Tokens that return no value (and instead revert or\\n * throw on failure) are also supported, non-reverting calls are assumed to be\\n * successful.\\n * To use this library you can add a `using SafeERC20 for IERC20;` statement to your contract,\\n * which allows you to call the safe operations as `token.safeTransfer(...)`, etc.\\n */\\nlibrary SafeERC20 {\\n    using Address for address;\\n\\n    function safeTransfer(IERC20 token, address to, uint256 value) internal {\\n        _callOptionalReturn(token, abi.encodeWithSelector(token.transfer.selector, to, value));\\n    }\\n\\n    function safeTransferFrom(IERC20 token, address from, address to, uint256 value) internal {\\n        _callOptionalReturn(token, abi.encodeWithSelector(token.transferFrom.selector, from, to, value));\\n    }\\n\\n    /**\\n     * @dev Deprecated. This function has issues similar to the ones found in\\n     * {IERC20-approve}, and its usage is discouraged.\\n     *\\n     * Whenever possible, use {safeIncreaseAllowance} and\\n     * {safeDecreaseAllowance} instead.\\n     */\\n    function safeApprove(IERC20 token, address spender, uint256 value) internal {\\n        // safeApprove should only be called when setting an initial allowance,\\n        // or when resetting it to zero. To increase and decrease it, use\\n        // 'safeIncreaseAllowance' and 'safeDecreaseAllowance'\\n        // solhint-disable-next-line max-line-length\\n        require((value == 0) || (token.allowance(address(this), spender) == 0),\\n            \\\"SafeERC20: approve from non-zero to non-zero allowance\\\"\\n        );\\n        _callOptionalReturn(token, abi.encodeWithSelector(token.approve.selector, spender, value));\\n    }\\n\\n    function safeIncreaseAllowance(IERC20 token, address spender, uint256 value) internal {\\n        uint256 newAllowance = token.allowance(address(this), spender) + value;\\n        _callOptionalReturn(token, abi.encodeWithSelector(token.approve.selector, spender, newAllowance));\\n    }\\n\\n    function safeDecreaseAllowance(IERC20 token, address spender, uint256 value) internal {\\n        unchecked {\\n            uint256 oldAllowance = token.allowance(address(this), spender);\\n            require(oldAllowance >= value, \\\"SafeERC20: decreased allowance below zero\\\");\\n            uint256 newAllowance = oldAllowance - value;\\n            _callOptionalReturn(token, abi.encodeWithSelector(token.approve.selector, spender, newAllowance));\\n        }\\n    }\\n\\n    /**\\n     * @dev Imitates a Solidity high-level call (i.e. a regular function call to a contract), relaxing the requirement\\n     * on the return value: the return value is optional (but if data is returned, it must not be false).\\n     * @param token The token targeted by the call.\\n     * @param data The call data (encoded using abi.encode or one of its variants).\\n     */\\n    function _callOptionalReturn(IERC20 token, bytes memory data) private {\\n        // We need to perform a low level call here, to bypass Solidity's return data size checking mechanism, since\\n        // we're implementing it ourselves. We use {Address.functionCall} to perform this call, which verifies that\\n        // the target address contains contract code and also asserts for success in the low-level call.\\n\\n        bytes memory returndata = address(token).functionCall(data, \\\"SafeERC20: low-level call failed\\\");\\n        if (returndata.length > 0) { // Return data is optional\\n            // solhint-disable-next-line max-line-length\\n            require(abi.decode(returndata, (bool)), \\\"SafeERC20: ERC20 operation did not succeed\\\");\\n        }\\n    }\\n}\\n\",\"keccak256\":\"0x99f5c21018d796db7833a2100bb0e7411999e248a3c950fb526eee5d2bf47cb7\",\"license\":\"MIT\"},\"@openzeppelin/contracts/token/ERC721/IERC721.sol\":{\"content\":\"// SPDX-License-Identifier: MIT\\n\\npragma solidity ^0.8.0;\\n\\nimport \\\"../../utils/introspection/IERC165.sol\\\";\\n\\n/**\\n * @dev Required interface of an ERC721 compliant contract.\\n */\\ninterface IERC721 is IERC165 {\\n    /**\\n     * @dev Emitted when `tokenId` token is transferred from `from` to `to`.\\n     */\\n    event Transfer(address indexed from, address indexed to, uint256 indexed tokenId);\\n\\n    /**\\n     * @dev Emitted when `owner` enables `approved` to manage the `tokenId` token.\\n     */\\n    event Approval(address indexed owner, address indexed approved, uint256 indexed tokenId);\\n\\n    /**\\n     * @dev Emitted when `owner` enables or disables (`approved`) `operator` to manage all of its assets.\\n     */\\n    event ApprovalForAll(address indexed owner, address indexed operator, bool approved);\\n\\n    /**\\n     * @dev Returns the number of tokens in ``owner``'s account.\\n     */\\n    function balanceOf(address owner) external view returns (uint256 balance);\\n\\n    /**\\n     * @dev Returns the owner of the `tokenId` token.\\n     *\\n     * Requirements:\\n     *\\n     * - `tokenId` must exist.\\n     */\\n    function ownerOf(uint256 tokenId) external view returns (address owner);\\n\\n    /**\\n     * @dev Safely transfers `tokenId` token from `from` to `to`, checking first that contract recipients\\n     * are aware of the ERC721 protocol to prevent tokens from being forever locked.\\n     *\\n     * Requirements:\\n     *\\n     * - `from` cannot be the zero address.\\n     * - `to` cannot be the zero address.\\n     * - `tokenId` token must exist and be owned by `from`.\\n     * - If the caller is not `from`, it must be have been allowed to move this token by either {approve} or {setApprovalForAll}.\\n     * - If `to` refers to a smart contract, it must implement {IERC721Receiver-onERC721Received}, which is called upon a safe transfer.\\n     *\\n     * Emits a {Transfer} event.\\n     */\\n    function safeTransferFrom(address from, address to, uint256 tokenId) external;\\n\\n    /**\\n     * @dev Transfers `tokenId` token from `from` to `to`.\\n     *\\n     * WARNING: Usage of this method is discouraged, use {safeTransferFrom} whenever possible.\\n     *\\n     * Requirements:\\n     *\\n     * - `from` cannot be the zero address.\\n     * - `to` cannot be the zero address.\\n     * - `tokenId` token must be owned by `from`.\\n     * - If the caller is not `from`, it must be approved to move this token by either {approve} or {setApprovalForAll}.\\n     *\\n     * Emits a {Transfer} event.\\n     */\\n    function transferFrom(address from, address to, uint256 tokenId) external;\\n\\n    /**\\n     * @dev Gives permission to `to` to transfer `tokenId` token to another account.\\n     * The approval is cleared when the token is transferred.\\n     *\\n     * Only a single account can be approved at a time, so approving the zero address clears previous approvals.\\n     *\\n     * Requirements:\\n     *\\n     * - The caller must own the token or be an approved operator.\\n     * - `tokenId` must exist.\\n     *\\n     * Emits an {Approval} event.\\n     */\\n    function approve(address to, uint256 tokenId) external;\\n\\n    /**\\n     * @dev Returns the account approved for `tokenId` token.\\n     *\\n     * Requirements:\\n     *\\n     * - `tokenId` must exist.\\n     */\\n    function getApproved(uint256 tokenId) external view returns (address operator);\\n\\n    /**\\n     * @dev Approve or remove `operator` as an operator for the caller.\\n     * Operators can call {transferFrom} or {safeTransferFrom} for any token owned by the caller.\\n     *\\n     * Requirements:\\n     *\\n     * - The `operator` cannot be the caller.\\n     *\\n     * Emits an {ApprovalForAll} event.\\n     */\\n    function setApprovalForAll(address operator, bool _approved) external;\\n\\n    /**\\n     * @dev Returns if the `operator` is allowed to manage all of the assets of `owner`.\\n     *\\n     * See {setApprovalForAll}\\n     */\\n    function isApprovedForAll(address owner, address operator) external view returns (bool);\\n\\n    /**\\n      * @dev Safely transfers `tokenId` token from `from` to `to`.\\n      *\\n      * Requirements:\\n      *\\n      * - `from` cannot be the zero address.\\n      * - `to` cannot be the zero address.\\n      * - `tokenId` token must exist and be owned by `from`.\\n      * - If the caller is not `from`, it must be approved to move this token by either {approve} or {setApprovalForAll}.\\n      * - If `to` refers to a smart contract, it must implement {IERC721Receiver-onERC721Received}, which is called upon a safe transfer.\\n      *\\n      * Emits a {Transfer} event.\\n      */\\n    function safeTransferFrom(address from, address to, uint256 tokenId, bytes calldata data) external;\\n}\\n\",\"keccak256\":\"0xc1c941ad1e580b4623007305921efe2f26fc7320a4edc226234dd707c658a428\",\"license\":\"MIT\"},\"@openzeppelin/contracts/token/ERC721/extensions/IERC721Metadata.sol\":{\"content\":\"// SPDX-License-Identifier: MIT\\n\\npragma solidity ^0.8.0;\\n\\nimport \\\"../IERC721.sol\\\";\\n\\n/**\\n * @title ERC-721 Non-Fungible Token Standard, optional metadata extension\\n * @dev See https://eips.ethereum.org/EIPS/eip-721\\n */\\ninterface IERC721Metadata is IERC721 {\\n\\n    /**\\n     * @dev Returns the token collection name.\\n     */\\n    function name() external view returns (string memory);\\n\\n    /**\\n     * @dev Returns the token collection symbol.\\n     */\\n    function symbol() external view returns (string memory);\\n\\n    /**\\n     * @dev Returns the Uniform Resource Identifier (URI) for `tokenId` token.\\n     */\\n    function tokenURI(uint256 tokenId) external view returns (string memory);\\n}\\n\",\"keccak256\":\"0xb8d11e77eb1ed34a33720edb551d7d6a6b0eee2bfaa40a7024020e1fdf879b16\",\"license\":\"MIT\"},\"@openzeppelin/contracts/utils/Address.sol\":{\"content\":\"// SPDX-License-Identifier: MIT\\n\\npragma solidity ^0.8.0;\\n\\n/**\\n * @dev Collection of functions related to the address type\\n */\\nlibrary Address {\\n    /**\\n     * @dev Returns true if `account` is a contract.\\n     *\\n     * [IMPORTANT]\\n     * ====\\n     * It is unsafe to assume that an address for which this function returns\\n     * false is an externally-owned account (EOA) and not a contract.\\n     *\\n     * Among others, `isContract` will return false for the following\\n     * types of addresses:\\n     *\\n     *  - an externally-owned account\\n     *  - a contract in construction\\n     *  - an address where a contract will be created\\n     *  - an address where a contract lived, but was destroyed\\n     * ====\\n     */\\n    function isContract(address account) internal view returns (bool) {\\n        // This method relies on extcodesize, which returns 0 for contracts in\\n        // construction, since the code is only stored at the end of the\\n        // constructor execution.\\n\\n        uint256 size;\\n        // solhint-disable-next-line no-inline-assembly\\n        assembly { size := extcodesize(account) }\\n        return size > 0;\\n    }\\n\\n    /**\\n     * @dev Replacement for Solidity's `transfer`: sends `amount` wei to\\n     * `recipient`, forwarding all available gas and reverting on errors.\\n     *\\n     * https://eips.ethereum.org/EIPS/eip-1884[EIP1884] increases the gas cost\\n     * of certain opcodes, possibly making contracts go over the 2300 gas limit\\n     * imposed by `transfer`, making them unable to receive funds via\\n     * `transfer`. {sendValue} removes this limitation.\\n     *\\n     * https://diligence.consensys.net/posts/2019/09/stop-using-soliditys-transfer-now/[Learn more].\\n     *\\n     * IMPORTANT: because control is transferred to `recipient`, care must be\\n     * taken to not create reentrancy vulnerabilities. Consider using\\n     * {ReentrancyGuard} or the\\n     * https://solidity.readthedocs.io/en/v0.5.11/security-considerations.html#use-the-checks-effects-interactions-pattern[checks-effects-interactions pattern].\\n     */\\n    function sendValue(address payable recipient, uint256 amount) internal {\\n        require(address(this).balance >= amount, \\\"Address: insufficient balance\\\");\\n\\n        // solhint-disable-next-line avoid-low-level-calls, avoid-call-value\\n        (bool success, ) = recipient.call{ value: amount }(\\\"\\\");\\n        require(success, \\\"Address: unable to send value, recipient may have reverted\\\");\\n    }\\n\\n    /**\\n     * @dev Performs a Solidity function call using a low level `call`. A\\n     * plain`call` is an unsafe replacement for a function call: use this\\n     * function instead.\\n     *\\n     * If `target` reverts with a revert reason, it is bubbled up by this\\n     * function (like regular Solidity function calls).\\n     *\\n     * Returns the raw returned data. To convert to the expected return value,\\n     * use https://solidity.readthedocs.io/en/latest/units-and-global-variables.html?highlight=abi.decode#abi-encoding-and-decoding-functions[`abi.decode`].\\n     *\\n     * Requirements:\\n     *\\n     * - `target` must be a contract.\\n     * - calling `target` with `data` must not revert.\\n     *\\n     * _Available since v3.1._\\n     */\\n    function functionCall(address target, bytes memory data) internal returns (bytes memory) {\\n      return functionCall(target, data, \\\"Address: low-level call failed\\\");\\n    }\\n\\n    /**\\n     * @dev Same as {xref-Address-functionCall-address-bytes-}[`functionCall`], but with\\n     * `errorMessage` as a fallback revert reason when `target` reverts.\\n     *\\n     * _Available since v3.1._\\n     */\\n    function functionCall(address target, bytes memory data, string memory errorMessage) internal returns (bytes memory) {\\n        return functionCallWithValue(target, data, 0, errorMessage);\\n    }\\n\\n    /**\\n     * @dev Same as {xref-Address-functionCall-address-bytes-}[`functionCall`],\\n     * but also transferring `value` wei to `target`.\\n     *\\n     * Requirements:\\n     *\\n     * - the calling contract must have an ETH balance of at least `value`.\\n     * - the called Solidity function must be `payable`.\\n     *\\n     * _Available since v3.1._\\n     */\\n    function functionCallWithValue(address target, bytes memory data, uint256 value) internal returns (bytes memory) {\\n        return functionCallWithValue(target, data, value, \\\"Address: low-level call with value failed\\\");\\n    }\\n\\n    /**\\n     * @dev Same as {xref-Address-functionCallWithValue-address-bytes-uint256-}[`functionCallWithValue`], but\\n     * with `errorMessage` as a fallback revert reason when `target` reverts.\\n     *\\n     * _Available since v3.1._\\n     */\\n    function functionCallWithValue(address target, bytes memory data, uint256 value, string memory errorMessage) internal returns (bytes memory) {\\n        require(address(this).balance >= value, \\\"Address: insufficient balance for call\\\");\\n        require(isContract(target), \\\"Address: call to non-contract\\\");\\n\\n        // solhint-disable-next-line avoid-low-level-calls\\n        (bool success, bytes memory returndata) = target.call{ value: value }(data);\\n        return _verifyCallResult(success, returndata, errorMessage);\\n    }\\n\\n    /**\\n     * @dev Same as {xref-Address-functionCall-address-bytes-}[`functionCall`],\\n     * but performing a static call.\\n     *\\n     * _Available since v3.3._\\n     */\\n    function functionStaticCall(address target, bytes memory data) internal view returns (bytes memory) {\\n        return functionStaticCall(target, data, \\\"Address: low-level static call failed\\\");\\n    }\\n\\n    /**\\n     * @dev Same as {xref-Address-functionCall-address-bytes-string-}[`functionCall`],\\n     * but performing a static call.\\n     *\\n     * _Available since v3.3._\\n     */\\n    function functionStaticCall(address target, bytes memory data, string memory errorMessage) internal view returns (bytes memory) {\\n        require(isContract(target), \\\"Address: static call to non-contract\\\");\\n\\n        // solhint-disable-next-line avoid-low-level-calls\\n        (bool success, bytes memory returndata) = target.staticcall(data);\\n        return _verifyCallResult(success, returndata, errorMessage);\\n    }\\n\\n    /**\\n     * @dev Same as {xref-Address-functionCall-address-bytes-}[`functionCall`],\\n     * but performing a delegate call.\\n     *\\n     * _Available since v3.4._\\n     */\\n    function functionDelegateCall(address target, bytes memory data) internal returns (bytes memory) {\\n        return functionDelegateCall(target, data, \\\"Address: low-level delegate call failed\\\");\\n    }\\n\\n    /**\\n     * @dev Same as {xref-Address-functionCall-address-bytes-string-}[`functionCall`],\\n     * but performing a delegate call.\\n     *\\n     * _Available since v3.4._\\n     */\\n    function functionDelegateCall(address target, bytes memory data, string memory errorMessage) internal returns (bytes memory) {\\n        require(isContract(target), \\\"Address: delegate call to non-contract\\\");\\n\\n        // solhint-disable-next-line avoid-low-level-calls\\n        (bool success, bytes memory returndata) = target.delegatecall(data);\\n        return _verifyCallResult(success, returndata, errorMessage);\\n    }\\n\\n    function _verifyCallResult(bool success, bytes memory returndata, string memory errorMessage) private pure returns(bytes memory) {\\n        if (success) {\\n            return returndata;\\n        } else {\\n            // Look for revert reason and bubble it up if present\\n            if (returndata.length > 0) {\\n                // The easiest way to bubble the revert reason is using memory via assembly\\n\\n                // solhint-disable-next-line no-inline-assembly\\n                assembly {\\n                    let returndata_size := mload(returndata)\\n                    revert(add(32, returndata), returndata_size)\\n                }\\n            } else {\\n                revert(errorMessage);\\n            }\\n        }\\n    }\\n}\\n\",\"keccak256\":\"0x069b2631bb5b5193a58ccf7a06266c7361bd2c20095667af4402817605627f45\",\"license\":\"MIT\"},\"@openzeppelin/contracts/utils/Context.sol\":{\"content\":\"// SPDX-License-Identifier: MIT\\n\\npragma solidity ^0.8.0;\\n\\n/*\\n * @dev Provides information about the current execution context, including the\\n * sender of the transaction and its data. While these are generally available\\n * via msg.sender and msg.data, they should not be accessed in such a direct\\n * manner, since when dealing with meta-transactions the account sending and\\n * paying for execution may not be the actual sender (as far as an application\\n * is concerned).\\n *\\n * This contract is only required for intermediate, library-like contracts.\\n */\\nabstract contract Context {\\n    function _msgSender() internal view virtual returns (address) {\\n        return msg.sender;\\n    }\\n\\n    function _msgData() internal view virtual returns (bytes calldata) {\\n        this; // silence state mutability warning without generating bytecode - see https://github.com/ethereum/solidity/issues/2691\\n        return msg.data;\\n    }\\n}\\n\",\"keccak256\":\"0xf930d2df426bfcfc1f7415be724f04081c96f4fb9ec8d0e3a521c07692dface0\",\"license\":\"MIT\"},\"@openzeppelin/contracts/utils/Counters.sol\":{\"content\":\"// SPDX-License-Identifier: MIT\\n\\npragma solidity ^0.8.0;\\n\\n/**\\n * @title Counters\\n * @author Matt Condon (@shrugs)\\n * @dev Provides counters that can only be incremented or decremented by one. This can be used e.g. to track the number\\n * of elements in a mapping, issuing ERC721 ids, or counting request ids.\\n *\\n * Include with `using Counters for Counters.Counter;`\\n */\\nlibrary Counters {\\n    struct Counter {\\n        // This variable should never be directly accessed by users of the library: interactions must be restricted to\\n        // the library's function. As of Solidity v0.5.2, this cannot be enforced, though there is a proposal to add\\n        // this feature: see https://github.com/ethereum/solidity/issues/4637\\n        uint256 _value; // default: 0\\n    }\\n\\n    function current(Counter storage counter) internal view returns (uint256) {\\n        return counter._value;\\n    }\\n\\n    function increment(Counter storage counter) internal {\\n        unchecked {\\n            counter._value += 1;\\n        }\\n    }\\n\\n    function decrement(Counter storage counter) internal {\\n        uint256 value = counter._value;\\n        require(value > 0, \\\"Counter: decrement overflow\\\");\\n        unchecked {\\n            counter._value = value - 1;\\n        }\\n    }\\n}\\n\",\"keccak256\":\"0x62d306ff0499a11913bc60b5939eec619509b5c67b30e86ebf8b8bda0b7a7fee\",\"license\":\"MIT\"},\"@openzeppelin/contracts/utils/introspection/IERC165.sol\":{\"content\":\"// SPDX-License-Identifier: MIT\\n\\npragma solidity ^0.8.0;\\n\\n/**\\n * @dev Interface of the ERC165 standard, as defined in the\\n * https://eips.ethereum.org/EIPS/eip-165[EIP].\\n *\\n * Implementers can declare support of contract interfaces, which can then be\\n * queried by others ({ERC165Checker}).\\n *\\n * For an implementation, see {ERC165}.\\n */\\ninterface IERC165 {\\n    /**\\n     * @dev Returns true if this contract implements the interface defined by\\n     * `interfaceId`. See the corresponding\\n     * https://eips.ethereum.org/EIPS/eip-165#how-interfaces-are-identified[EIP section]\\n     * to learn more about how these ids are created.\\n     *\\n     * This function call must use less than 30 000 gas.\\n     */\\n    function supportsInterface(bytes4 interfaceId) external view returns (bool);\\n}\\n\",\"keccak256\":\"0xa28007762d9da9db878dd421960c8cb9a10471f47ab5c1b3309bfe48e9e79ff4\",\"license\":\"MIT\"},\"@openzeppelin/contracts/utils/math/SafeMath.sol\":{\"content\":\"// SPDX-License-Identifier: MIT\\n\\npragma solidity ^0.8.0;\\n\\n// CAUTION\\n// This version of SafeMath should only be used with Solidity 0.8 or later,\\n// because it relies on the compiler's built in overflow checks.\\n\\n/**\\n * @dev Wrappers over Solidity's arithmetic operations.\\n *\\n * NOTE: `SafeMath` is no longer needed starting with Solidity 0.8. The compiler\\n * now has built in overflow checking.\\n */\\nlibrary SafeMath {\\n    /**\\n     * @dev Returns the addition of two unsigned integers, with an overflow flag.\\n     *\\n     * _Available since v3.4._\\n     */\\n    function tryAdd(uint256 a, uint256 b) internal pure returns (bool, uint256) {\\n        unchecked {\\n            uint256 c = a + b;\\n            if (c < a) return (false, 0);\\n            return (true, c);\\n        }\\n    }\\n\\n    /**\\n     * @dev Returns the substraction of two unsigned integers, with an overflow flag.\\n     *\\n     * _Available since v3.4._\\n     */\\n    function trySub(uint256 a, uint256 b) internal pure returns (bool, uint256) {\\n        unchecked {\\n            if (b > a) return (false, 0);\\n            return (true, a - b);\\n        }\\n    }\\n\\n    /**\\n     * @dev Returns the multiplication of two unsigned integers, with an overflow flag.\\n     *\\n     * _Available since v3.4._\\n     */\\n    function tryMul(uint256 a, uint256 b) internal pure returns (bool, uint256) {\\n        unchecked {\\n            // Gas optimization: this is cheaper than requiring 'a' not being zero, but the\\n            // benefit is lost if 'b' is also tested.\\n            // See: https://github.com/OpenZeppelin/openzeppelin-contracts/pull/522\\n            if (a == 0) return (true, 0);\\n            uint256 c = a * b;\\n            if (c / a != b) return (false, 0);\\n            return (true, c);\\n        }\\n    }\\n\\n    /**\\n     * @dev Returns the division of two unsigned integers, with a division by zero flag.\\n     *\\n     * _Available since v3.4._\\n     */\\n    function tryDiv(uint256 a, uint256 b) internal pure returns (bool, uint256) {\\n        unchecked {\\n            if (b == 0) return (false, 0);\\n            return (true, a / b);\\n        }\\n    }\\n\\n    /**\\n     * @dev Returns the remainder of dividing two unsigned integers, with a division by zero flag.\\n     *\\n     * _Available since v3.4._\\n     */\\n    function tryMod(uint256 a, uint256 b) internal pure returns (bool, uint256) {\\n        unchecked {\\n            if (b == 0) return (false, 0);\\n            return (true, a % b);\\n        }\\n    }\\n\\n    /**\\n     * @dev Returns the addition of two unsigned integers, reverting on\\n     * overflow.\\n     *\\n     * Counterpart to Solidity's `+` operator.\\n     *\\n     * Requirements:\\n     *\\n     * - Addition cannot overflow.\\n     */\\n    function add(uint256 a, uint256 b) internal pure returns (uint256) {\\n        return a + b;\\n    }\\n\\n    /**\\n     * @dev Returns the subtraction of two unsigned integers, reverting on\\n     * overflow (when the result is negative).\\n     *\\n     * Counterpart to Solidity's `-` operator.\\n     *\\n     * Requirements:\\n     *\\n     * - Subtraction cannot overflow.\\n     */\\n    function sub(uint256 a, uint256 b) internal pure returns (uint256) {\\n        return a - b;\\n    }\\n\\n    /**\\n     * @dev Returns the multiplication of two unsigned integers, reverting on\\n     * overflow.\\n     *\\n     * Counterpart to Solidity's `*` operator.\\n     *\\n     * Requirements:\\n     *\\n     * - Multiplication cannot overflow.\\n     */\\n    function mul(uint256 a, uint256 b) internal pure returns (uint256) {\\n        return a * b;\\n    }\\n\\n    /**\\n     * @dev Returns the integer division of two unsigned integers, reverting on\\n     * division by zero. The result is rounded towards zero.\\n     *\\n     * Counterpart to Solidity's `/` operator.\\n     *\\n     * Requirements:\\n     *\\n     * - The divisor cannot be zero.\\n     */\\n    function div(uint256 a, uint256 b) internal pure returns (uint256) {\\n        return a / b;\\n    }\\n\\n    /**\\n     * @dev Returns the remainder of dividing two unsigned integers. (unsigned integer modulo),\\n     * reverting when dividing by zero.\\n     *\\n     * Counterpart to Solidity's `%` operator. This function uses a `revert`\\n     * opcode (which leaves remaining gas untouched) while Solidity uses an\\n     * invalid opcode to revert (consuming all remaining gas).\\n     *\\n     * Requirements:\\n     *\\n     * - The divisor cannot be zero.\\n     */\\n    function mod(uint256 a, uint256 b) internal pure returns (uint256) {\\n        return a % b;\\n    }\\n\\n    /**\\n     * @dev Returns the subtraction of two unsigned integers, reverting with custom message on\\n     * overflow (when the result is negative).\\n     *\\n     * CAUTION: This function is deprecated because it requires allocating memory for the error\\n     * message unnecessarily. For custom revert reasons use {trySub}.\\n     *\\n     * Counterpart to Solidity's `-` operator.\\n     *\\n     * Requirements:\\n     *\\n     * - Subtraction cannot overflow.\\n     */\\n    function sub(uint256 a, uint256 b, string memory errorMessage) internal pure returns (uint256) {\\n        unchecked {\\n            require(b <= a, errorMessage);\\n            return a - b;\\n        }\\n    }\\n\\n    /**\\n     * @dev Returns the integer division of two unsigned integers, reverting with custom message on\\n     * division by zero. The result is rounded towards zero.\\n     *\\n     * Counterpart to Solidity's `%` operator. This function uses a `revert`\\n     * opcode (which leaves remaining gas untouched) while Solidity uses an\\n     * invalid opcode to revert (consuming all remaining gas).\\n     *\\n     * Counterpart to Solidity's `/` operator. Note: this function uses a\\n     * `revert` opcode (which leaves remaining gas untouched) while Solidity\\n     * uses an invalid opcode to revert (consuming all remaining gas).\\n     *\\n     * Requirements:\\n     *\\n     * - The divisor cannot be zero.\\n     */\\n    function div(uint256 a, uint256 b, string memory errorMessage) internal pure returns (uint256) {\\n        unchecked {\\n            require(b > 0, errorMessage);\\n            return a / b;\\n        }\\n    }\\n\\n    /**\\n     * @dev Returns the remainder of dividing two unsigned integers. (unsigned integer modulo),\\n     * reverting with custom message when dividing by zero.\\n     *\\n     * CAUTION: This function is deprecated because it requires allocating memory for the error\\n     * message unnecessarily. For custom revert reasons use {tryMod}.\\n     *\\n     * Counterpart to Solidity's `%` operator. This function uses a `revert`\\n     * opcode (which leaves remaining gas untouched) while Solidity uses an\\n     * invalid opcode to revert (consuming all remaining gas).\\n     *\\n     * Requirements:\\n     *\\n     * - The divisor cannot be zero.\\n     */\\n    function mod(uint256 a, uint256 b, string memory errorMessage) internal pure returns (uint256) {\\n        unchecked {\\n            require(b > 0, errorMessage);\\n            return a % b;\\n        }\\n    }\\n}\\n\",\"keccak256\":\"0x2526b7c6a366fc211bbc176078ab02b83833e7682abcc5b3bed9d700b34e2a3e\",\"license\":\"MIT\"},\"@openzeppelin/contracts/utils/structs/EnumerableSet.sol\":{\"content\":\"// SPDX-License-Identifier: MIT\\n\\npragma solidity ^0.8.0;\\n\\n/**\\n * @dev Library for managing\\n * https://en.wikipedia.org/wiki/Set_(abstract_data_type)[sets] of primitive\\n * types.\\n *\\n * Sets have the following properties:\\n *\\n * - Elements are added, removed, and checked for existence in constant time\\n * (O(1)).\\n * - Elements are enumerated in O(n). No guarantees are made on the ordering.\\n *\\n * ```\\n * contract Example {\\n *     // Add the library methods\\n *     using EnumerableSet for EnumerableSet.AddressSet;\\n *\\n *     // Declare a set state variable\\n *     EnumerableSet.AddressSet private mySet;\\n * }\\n * ```\\n *\\n * As of v3.3.0, sets of type `bytes32` (`Bytes32Set`), `address` (`AddressSet`)\\n * and `uint256` (`UintSet`) are supported.\\n */\\nlibrary EnumerableSet {\\n    // To implement this library for multiple types with as little code\\n    // repetition as possible, we write it in terms of a generic Set type with\\n    // bytes32 values.\\n    // The Set implementation uses private functions, and user-facing\\n    // implementations (such as AddressSet) are just wrappers around the\\n    // underlying Set.\\n    // This means that we can only create new EnumerableSets for types that fit\\n    // in bytes32.\\n\\n    struct Set {\\n        // Storage of set values\\n        bytes32[] _values;\\n\\n        // Position of the value in the `values` array, plus 1 because index 0\\n        // means a value is not in the set.\\n        mapping (bytes32 => uint256) _indexes;\\n    }\\n\\n    /**\\n     * @dev Add a value to a set. O(1).\\n     *\\n     * Returns true if the value was added to the set, that is if it was not\\n     * already present.\\n     */\\n    function _add(Set storage set, bytes32 value) private returns (bool) {\\n        if (!_contains(set, value)) {\\n            set._values.push(value);\\n            // The value is stored at length-1, but we add 1 to all indexes\\n            // and use 0 as a sentinel value\\n            set._indexes[value] = set._values.length;\\n            return true;\\n        } else {\\n            return false;\\n        }\\n    }\\n\\n    /**\\n     * @dev Removes a value from a set. O(1).\\n     *\\n     * Returns true if the value was removed from the set, that is if it was\\n     * present.\\n     */\\n    function _remove(Set storage set, bytes32 value) private returns (bool) {\\n        // We read and store the value's index to prevent multiple reads from the same storage slot\\n        uint256 valueIndex = set._indexes[value];\\n\\n        if (valueIndex != 0) { // Equivalent to contains(set, value)\\n            // To delete an element from the _values array in O(1), we swap the element to delete with the last one in\\n            // the array, and then remove the last element (sometimes called as 'swap and pop').\\n            // This modifies the order of the array, as noted in {at}.\\n\\n            uint256 toDeleteIndex = valueIndex - 1;\\n            uint256 lastIndex = set._values.length - 1;\\n\\n            // When the value to delete is the last one, the swap operation is unnecessary. However, since this occurs\\n            // so rarely, we still do the swap anyway to avoid the gas cost of adding an 'if' statement.\\n\\n            bytes32 lastvalue = set._values[lastIndex];\\n\\n            // Move the last value to the index where the value to delete is\\n            set._values[toDeleteIndex] = lastvalue;\\n            // Update the index for the moved value\\n            set._indexes[lastvalue] = valueIndex; // Replace lastvalue's index to valueIndex\\n\\n            // Delete the slot where the moved value was stored\\n            set._values.pop();\\n\\n            // Delete the index for the deleted slot\\n            delete set._indexes[value];\\n\\n            return true;\\n        } else {\\n            return false;\\n        }\\n    }\\n\\n    /**\\n     * @dev Returns true if the value is in the set. O(1).\\n     */\\n    function _contains(Set storage set, bytes32 value) private view returns (bool) {\\n        return set._indexes[value] != 0;\\n    }\\n\\n    /**\\n     * @dev Returns the number of values on the set. O(1).\\n     */\\n    function _length(Set storage set) private view returns (uint256) {\\n        return set._values.length;\\n    }\\n\\n   /**\\n    * @dev Returns the value stored at position `index` in the set. O(1).\\n    *\\n    * Note that there are no guarantees on the ordering of values inside the\\n    * array, and it may change when more values are added or removed.\\n    *\\n    * Requirements:\\n    *\\n    * - `index` must be strictly less than {length}.\\n    */\\n    function _at(Set storage set, uint256 index) private view returns (bytes32) {\\n        require(set._values.length > index, \\\"EnumerableSet: index out of bounds\\\");\\n        return set._values[index];\\n    }\\n\\n    // Bytes32Set\\n\\n    struct Bytes32Set {\\n        Set _inner;\\n    }\\n\\n    /**\\n     * @dev Add a value to a set. O(1).\\n     *\\n     * Returns true if the value was added to the set, that is if it was not\\n     * already present.\\n     */\\n    function add(Bytes32Set storage set, bytes32 value) internal returns (bool) {\\n        return _add(set._inner, value);\\n    }\\n\\n    /**\\n     * @dev Removes a value from a set. O(1).\\n     *\\n     * Returns true if the value was removed from the set, that is if it was\\n     * present.\\n     */\\n    function remove(Bytes32Set storage set, bytes32 value) internal returns (bool) {\\n        return _remove(set._inner, value);\\n    }\\n\\n    /**\\n     * @dev Returns true if the value is in the set. O(1).\\n     */\\n    function contains(Bytes32Set storage set, bytes32 value) internal view returns (bool) {\\n        return _contains(set._inner, value);\\n    }\\n\\n    /**\\n     * @dev Returns the number of values in the set. O(1).\\n     */\\n    function length(Bytes32Set storage set) internal view returns (uint256) {\\n        return _length(set._inner);\\n    }\\n\\n   /**\\n    * @dev Returns the value stored at position `index` in the set. O(1).\\n    *\\n    * Note that there are no guarantees on the ordering of values inside the\\n    * array, and it may change when more values are added or removed.\\n    *\\n    * Requirements:\\n    *\\n    * - `index` must be strictly less than {length}.\\n    */\\n    function at(Bytes32Set storage set, uint256 index) internal view returns (bytes32) {\\n        return _at(set._inner, index);\\n    }\\n\\n    // AddressSet\\n\\n    struct AddressSet {\\n        Set _inner;\\n    }\\n\\n    /**\\n     * @dev Add a value to a set. O(1).\\n     *\\n     * Returns true if the value was added to the set, that is if it was not\\n     * already present.\\n     */\\n    function add(AddressSet storage set, address value) internal returns (bool) {\\n        return _add(set._inner, bytes32(uint256(uint160(value))));\\n    }\\n\\n    /**\\n     * @dev Removes a value from a set. O(1).\\n     *\\n     * Returns true if the value was removed from the set, that is if it was\\n     * present.\\n     */\\n    function remove(AddressSet storage set, address value) internal returns (bool) {\\n        return _remove(set._inner, bytes32(uint256(uint160(value))));\\n    }\\n\\n    /**\\n     * @dev Returns true if the value is in the set. O(1).\\n     */\\n    function contains(AddressSet storage set, address value) internal view returns (bool) {\\n        return _contains(set._inner, bytes32(uint256(uint160(value))));\\n    }\\n\\n    /**\\n     * @dev Returns the number of values in the set. O(1).\\n     */\\n    function length(AddressSet storage set) internal view returns (uint256) {\\n        return _length(set._inner);\\n    }\\n\\n   /**\\n    * @dev Returns the value stored at position `index` in the set. O(1).\\n    *\\n    * Note that there are no guarantees on the ordering of values inside the\\n    * array, and it may change when more values are added or removed.\\n    *\\n    * Requirements:\\n    *\\n    * - `index` must be strictly less than {length}.\\n    */\\n    function at(AddressSet storage set, uint256 index) internal view returns (address) {\\n        return address(uint160(uint256(_at(set._inner, index))));\\n    }\\n\\n\\n    // UintSet\\n\\n    struct UintSet {\\n        Set _inner;\\n    }\\n\\n    /**\\n     * @dev Add a value to a set. O(1).\\n     *\\n     * Returns true if the value was added to the set, that is if it was not\\n     * already present.\\n     */\\n    function add(UintSet storage set, uint256 value) internal returns (bool) {\\n        return _add(set._inner, bytes32(value));\\n    }\\n\\n    /**\\n     * @dev Removes a value from a set. O(1).\\n     *\\n     * Returns true if the value was removed from the set, that is if it was\\n     * present.\\n     */\\n    function remove(UintSet storage set, uint256 value) internal returns (bool) {\\n        return _remove(set._inner, bytes32(value));\\n    }\\n\\n    /**\\n     * @dev Returns true if the value is in the set. O(1).\\n     */\\n    function contains(UintSet storage set, uint256 value) internal view returns (bool) {\\n        return _contains(set._inner, bytes32(value));\\n    }\\n\\n    /**\\n     * @dev Returns the number of values on the set. O(1).\\n     */\\n    function length(UintSet storage set) internal view returns (uint256) {\\n        return _length(set._inner);\\n    }\\n\\n   /**\\n    * @dev Returns the value stored at position `index` in the set. O(1).\\n    *\\n    * Note that there are no guarantees on the ordering of values inside the\\n    * array, and it may change when more values are added or removed.\\n    *\\n    * Requirements:\\n    *\\n    * - `index` must be strictly less than {length}.\\n    */\\n    function at(UintSet storage set, uint256 index) internal view returns (uint256) {\\n        return uint256(_at(set._inner, index));\\n    }\\n}\\n\",\"keccak256\":\"0x4878ef6c288f4cef3c2a288d32cc548c648831cc55503ad3d9a581ed3b93aad9\",\"license\":\"MIT\"},\"contracts/contexts2/access-control/reentry/ReentryMods.sol\":{\"content\":\"// SPDX-License-Identifier: MIT\\npragma solidity ^0.8.0;\\n\\nimport { AccessControlStorageLib, AccessControlStorage } from \\\"../storage.sol\\\";\\n\\nabstract contract ReentryMods {\\n    modifier nonReentry(bytes32 id) {\\n        AccessControlStorage storage s = AccessControlStorageLib.store();\\n        require(!s.entered[id], \\\"AccessControl: reentered\\\");\\n        s.entered[id] = true;\\n        _;\\n        s.entered[id] = false;\\n    }\\n}\\n\",\"keccak256\":\"0x033c1164af25ef7d35a38a60973bf379b1cc603596914ffd85dcbcf0acdb6970\",\"license\":\"MIT\"},\"contracts/contexts2/access-control/roles/RolesFacet.sol\":{\"content\":\"// SPDX-License-Identifier: MIT\\npragma solidity ^0.8.0;\\n\\nimport { RolesMods } from \\\"./RolesMods.sol\\\";\\nimport { RolesLib } from \\\"./RolesLib.sol\\\";\\nimport { ADMIN } from \\\"../../../shared/roles.sol\\\";\\n\\ncontract RolesFacet is RolesMods {\\n    /**\\n     * @notice Checks if an account has a specific role.\\n     * @param role Encoding of the role to check.\\n     * @param account Address to check the {role} for.\\n     */\\n    function hasRole(bytes32 role, address account)\\n        external\\n        view\\n        returns (bool)\\n    {\\n        return RolesLib.hasRole(role, account);\\n    }\\n\\n    /**\\n     * @notice Grants an account a new role.\\n     * @param role Encoding of the role to give.\\n     * @param account Address to give the {role} to.\\n     *\\n     * Requirements:\\n     *  - Sender must be role admin.\\n     */\\n    function grantRole(bytes32 role, address account)\\n        external\\n        authorized(ADMIN, msg.sender)\\n    {\\n        RolesLib.grantRole(role, account);\\n    }\\n\\n    /**\\n     * @notice Removes a role from an account.\\n     * @param role Encoding of the role to remove.\\n     * @param account Address to remove the {role} from.\\n     *\\n     * Requirements:\\n     *  - Sender must be role admin.\\n     */\\n    function revokeRole(bytes32 role, address account)\\n        external\\n        authorized(ADMIN, msg.sender)\\n    {\\n        RolesLib.revokeRole(role, account);\\n    }\\n\\n    /**\\n     * @notice Removes a role from the sender.\\n     * @param role Encoding of the role to remove.\\n     */\\n    function renounceRole(bytes32 role) external {\\n        RolesLib.revokeRole(role, msg.sender);\\n    }\\n}\\n\",\"keccak256\":\"0x3d02fb1286754a6da3419c81632d23e9444b1fe8cd64283e15fcb07a9b201815\",\"license\":\"MIT\"},\"contracts/contexts2/access-control/roles/RolesLib.sol\":{\"content\":\"// SPDX-License-Identifier: MIT\\npragma solidity ^0.8.0;\\n\\nimport { AccessControlStorageLib, AccessControlStorage } from \\\"../storage.sol\\\";\\n\\nlibrary RolesLib {\\n    function s() private pure returns (AccessControlStorage storage) {\\n        return AccessControlStorageLib.store();\\n    }\\n\\n    /**\\n     * @dev Emitted when `account` is granted `role`.\\n     */\\n    event RoleGranted(\\n        bytes32 indexed role,\\n        address indexed account,\\n        address indexed sender\\n    );\\n\\n    /**\\n     * @dev Emitted when `account` is revoked `role`.\\n     */\\n    event RoleRevoked(\\n        bytes32 indexed role,\\n        address indexed account,\\n        address indexed sender\\n    );\\n\\n    /**\\n     * @notice Checks if an account has a specific role.\\n     */\\n    function hasRole(bytes32 role, address account)\\n        internal\\n        view\\n        returns (bool)\\n    {\\n        return s().roles[role][account];\\n    }\\n\\n    /**\\n     * @dev Gives an account a new role.\\n     * @dev Should only use when circumventing admin checking.\\n     * @dev If account already has the role, no event is emitted.\\n     * @param role Encoding of the role to give.\\n     * @param account Address to give the {role} to.\\n     */\\n    function grantRole(bytes32 role, address account) internal {\\n        if (hasRole(role, account)) return;\\n        s().roles[role][account] = true;\\n        emit RoleGranted(role, account, msg.sender);\\n    }\\n\\n    /**\\n     * @dev Removes a role from an account.\\n     * @dev Should only use when circumventing admin checking.\\n     * @dev If account does not already have the role, no event is emitted.\\n     * @param role Encoding of the role to remove.\\n     * @param account Address to remove the {role} from.\\n     */\\n    function revokeRole(bytes32 role, address account) internal {\\n        if (!hasRole(role, account)) return;\\n        s().roles[role][account] = false;\\n        emit RoleRevoked(role, account, msg.sender);\\n    }\\n}\\n\",\"keccak256\":\"0x36d0f5db441d2c3db7ee04d84c88ce9b14251cff4387702e96965c51acd1bc84\",\"license\":\"MIT\"},\"contracts/contexts2/access-control/roles/RolesMods.sol\":{\"content\":\"// SPDX-License-Identifier: MIT\\npragma solidity ^0.8.0;\\n\\nimport { RolesLib } from \\\"./RolesLib.sol\\\";\\n\\nabstract contract RolesMods {\\n    /**\\n     * @notice Requires that the {account} has {role}\\n     * @param role Encoding of the role to check.\\n     * @param account Address to check the {role} for.\\n     */\\n    modifier authorized(bytes32 role, address account) {\\n        require(\\n            RolesLib.hasRole(role, account),\\n            \\\"AccessControl: not authorized\\\"\\n        );\\n        _;\\n    }\\n}\\n\",\"keccak256\":\"0x25eeaba823d4fc9c52d82a77cfdb409550ad985fc49b30a5560c1f313c1ca905\",\"license\":\"MIT\"},\"contracts/contexts2/access-control/storage.sol\":{\"content\":\"// SPDX-License-Identifier: MIT\\npragma solidity ^0.8.0;\\n\\nstruct AccessControlStorage {\\n    mapping(bytes32 => mapping(address => bool)) roles;\\n    mapping(address => address) owners;\\n    mapping(bytes32 => bool) entered;\\n}\\n\\nbytes32 constant ACCESS_CONTROL_POS = keccak256(\\n    \\\"teller.access_control.storage\\\"\\n);\\n\\nlibrary AccessControlStorageLib {\\n    function store() internal pure returns (AccessControlStorage storage s) {\\n        bytes32 pos = ACCESS_CONTROL_POS;\\n        assembly {\\n            s.slot := pos\\n        }\\n    }\\n}\\n\",\"keccak256\":\"0xf667fb8d6beb59fc6f37d60ada6b811b5861512fedc661c483b9eca042e96112\",\"license\":\"MIT\"},\"contracts/escrow/escrow/ILoansEscrow.sol\":{\"content\":\"// SPDX-License-Identifier: MIT\\npragma solidity ^0.8.0;\\n\\ninterface ILoansEscrow {\\n    function init() external;\\n\\n    function callDapp(address dappAddress, bytes calldata dappData)\\n        external\\n        returns (bytes memory);\\n\\n    function setTokenAllowance(address token, address spender) external;\\n\\n    function claimToken(\\n        address token,\\n        address to,\\n        uint256 amount\\n    ) external;\\n}\\n\",\"keccak256\":\"0xdaa338698014e6c00edf7a2aca49026a047e253cbe7fc392a73f5f63a063a7f9\",\"license\":\"MIT\"},\"contracts/lending/LendingFacet.sol\":{\"content\":\"// SPDX-License-Identifier: MIT\\npragma solidity ^0.8.0;\\n\\n// Contracts\\nimport { PausableMods } from \\\"../settings/pausable/PausableMods.sol\\\";\\nimport {\\n    ReentryMods\\n} from \\\"../contexts2/access-control/reentry/ReentryMods.sol\\\";\\nimport { RolesMods } from \\\"../contexts2/access-control/roles/RolesMods.sol\\\";\\nimport { ADMIN, AUTHORIZED } from \\\"../shared/roles.sol\\\";\\n\\n// Interfaces\\nimport { ITToken } from \\\"./ttoken/ITToken.sol\\\";\\n\\n// Libraries\\nimport {\\n    IERC20,\\n    SafeERC20\\n} from \\\"@openzeppelin/contracts/token/ERC20/utils/SafeERC20.sol\\\";\\nimport {\\n    SafeERC20Upgradeable\\n} from \\\"@openzeppelin/contracts-upgradeable/token/ERC20/utils/SafeERC20Upgradeable.sol\\\";\\nimport { MaxTVLLib } from \\\"../settings/asset/libraries/MaxTVLLib.sol\\\";\\nimport { LendingLib } from \\\"./libraries/LendingLib.sol\\\";\\n\\n// Storage\\nimport { AppStorageLib } from \\\"../storage/app.sol\\\";\\n\\ncontract LendingFacet is RolesMods, ReentryMods, PausableMods {\\n    /**\\n     * @notice This event is emitted when a new lending pool is initialized.\\n     * @param sender address.\\n     * @param asset Token address the pool was initialized for.\\n     */\\n    event LendingPoolInitialized(address indexed sender, address asset);\\n\\n    /**\\n     * @notice Get the Teller Token address for an underlying asset.\\n     * @param asset Address to get a Teller Token for.\\n     */\\n    function getTTokenFor(address asset)\\n        external\\n        view\\n        returns (address tToken_)\\n    {\\n        tToken_ = address(LendingLib.tToken(asset));\\n    }\\n\\n    /**\\n     * @notice It allows users to deposit tokens into the pool.\\n     * @dev the user must call ERC20.approve function previously.\\n     * @dev If the cToken is available (not 0x0), it deposits the lending asset amount into Compound directly.\\n     * @param asset Token address to deposit into the lending pool.\\n     * @param amount Amount of {asset} to deposit in the pool.\\n     */\\n    function lendingPoolDeposit(address asset, uint256 amount)\\n        external\\n        paused(LendingLib.ID, false)\\n        authorized(AUTHORIZED, msg.sender)\\n        nonReentry(LendingLib.ID)\\n    {\\n        ITToken tToken = LendingLib.tToken(asset);\\n        require(\\n            address(tToken) != address(0),\\n            \\\"Teller: lending pool not initialized\\\"\\n        );\\n\\n        require(\\n            tToken.currentTVL() + amount <= MaxTVLLib.get(asset),\\n            \\\"Teller: deposit TVL exceeded\\\"\\n        );\\n\\n        // Transfer tokens from lender\\n        SafeERC20.safeTransferFrom(\\n            IERC20(asset),\\n            msg.sender,\\n            address(this),\\n            amount\\n        );\\n        // Set allowance for Teller token to pull funds to mint\\n        SafeERC20.safeIncreaseAllowance(IERC20(asset), address(tToken), amount);\\n        // Mint Teller tokens, then transfer to lender\\n        SafeERC20Upgradeable.safeTransfer(\\n            tToken,\\n            msg.sender,\\n            // Minting returns the amount of Teller tokens minted\\n            tToken.mint(amount)\\n        );\\n    }\\n\\n    /**\\n     * @notice Initialized a new lending pool for {asset}\\n     * @param asset Token address to initialize the lending pool for.\\n     */\\n    function initLendingPool(address asset)\\n        external\\n        authorized(ADMIN, msg.sender)\\n    {\\n        require(\\n            address(LendingLib.tToken(asset)) == address(0),\\n            \\\"Teller: lending pool already initialized\\\"\\n        );\\n\\n        // Create a new Teller Token\\n        address tToken = AppStorageLib.store().tTokenBeacon.cloneProxy(\\\"\\\");\\n        // Set the Teller Token to the asset mapping\\n        LendingLib.s().tTokens[asset] = ITToken(tToken);\\n        // Initialize the Teller Token\\n        LendingLib.s().tTokens[asset].initialize(msg.sender, asset);\\n\\n        // Emit event\\n        emit LendingPoolInitialized(msg.sender, asset);\\n    }\\n}\\n\",\"keccak256\":\"0xa4dc2899669edb9fb59049a2ca83666243e1881da40487b7e955733b9b385aad\",\"license\":\"MIT\"},\"contracts/lending/libraries/LendingLib.sol\":{\"content\":\"// SPDX-License-Identifier: MIT\\npragma solidity ^0.8.0;\\n\\n// Libraries\\nimport { NumbersLib } from \\\"../../shared/libraries/NumbersLib.sol\\\";\\n\\n// Interfaces\\nimport { ITToken } from \\\"../ttoken/ITToken.sol\\\";\\n\\n// Storage\\nimport { MarketStorageLib, MarketStorage } from \\\"../../storage/market.sol\\\";\\n\\nlibrary LendingLib {\\n    bytes32 internal constant ID = keccak256(\\\"LENDING\\\");\\n\\n    function s() internal pure returns (MarketStorage storage) {\\n        return MarketStorageLib.store();\\n    }\\n\\n    function tToken(address asset) internal view returns (ITToken tToken_) {\\n        tToken_ = s().tTokens[asset];\\n    }\\n}\\n\",\"keccak256\":\"0x4d0342163b61741c913e52d248a77d797047f1d1fc4249e3bf268c90ce7742fa\",\"license\":\"MIT\"},\"contracts/lending/ttoken/ITToken.sol\":{\"content\":\"// SPDX-License-Identifier: MIT\\npragma solidity ^0.8.0;\\n\\n// Contracts\\nimport {\\n    ERC20Upgradeable\\n} from \\\"@openzeppelin/contracts-upgradeable/token/ERC20/ERC20Upgradeable.sol\\\";\\nimport { ERC20 } from \\\"@openzeppelin/contracts/token/ERC20/ERC20.sol\\\";\\nimport {\\n    RolesFacet\\n} from \\\"../../contexts2/access-control/roles/RolesFacet.sol\\\";\\n\\n/**\\n * @notice This contract acts as an interface for the Teller token (TToken).\\n *\\n * @author develop@teller.finance\\n */\\nabstract contract ITToken is ERC20Upgradeable, RolesFacet {\\n    /**\\n     * @notice This event is emitted when an user deposits tokens into the pool.\\n     */\\n    event Mint(\\n        address indexed sender,\\n        uint256 tTokenAmount,\\n        uint256 underlyingAmount\\n    );\\n\\n    /**\\n     * @notice This event is emitted when an user withdraws tokens from the pool.\\n     */\\n    event Redeem(\\n        address indexed sender,\\n        uint256 tTokenAmount,\\n        uint256 underlyingAmount\\n    );\\n\\n    /**\\n     * @notice The token that is the underlying assets for this Teller token.\\n     */\\n    function underlying() external view virtual returns (ERC20);\\n\\n    /**\\n     * @notice The balance of an {account} denoted in underlying value.\\n     * @param account Address to calculate the underlying balance.\\n     */\\n    function balanceOfUnderlying(address account)\\n        external\\n        virtual\\n        returns (uint256 balance_);\\n\\n    /**\\n     * @notice It calculates the current exchange rate for a whole Teller Token based of the underlying token balance.\\n     * @return rate_ The current exchange rate.\\n     */\\n    function exchangeRate() external virtual returns (uint256 rate_);\\n\\n    /**\\n     * @notice Redeem supplied Teller token underlying value.\\n     * @return totalSupply_ The total value of the underlying token managed by the LP.\\n     */\\n    function totalUnderlyingSupply()\\n        external\\n        virtual\\n        returns (uint256 totalSupply_);\\n\\n    /**\\n     * @notice It calculates the market state values across a given markets.\\n     * @notice Returns values that represent the global state across the market.\\n     * @return totalSupplied Total amount of the underlying asset supplied.\\n     * @return totalBorrowed Total amount borrowed through loans.\\n     * @return totalRepaid The total amount repaid till the current timestamp.\\n     * @return totalInterestRepaid The total amount interest repaid till the current timestamp.\\n     * @return totalOnLoan Total amount currently deployed in loans.\\n     */\\n    function getMarketState()\\n        external\\n        virtual\\n        returns (\\n            uint256 totalSupplied,\\n            uint256 totalBorrowed,\\n            uint256 totalRepaid,\\n            uint256 totalInterestRepaid,\\n            uint256 totalOnLoan\\n        );\\n\\n    /**\\n     * @notice Calculates the current Total Value Locked, denoted in the underlying asset, in the Teller Token pool.\\n     * @return tvl_ The value locked in the pool.\\n     *\\n     * Note: This value includes the amount that is on loan (including ones that were sent to EOAs).\\n     */\\n    function currentTVL() external virtual returns (uint256 tvl_);\\n\\n    /**\\n     * @notice It validates whether supply to debt (StD) ratio is valid including the loan amount.\\n     * @param newLoanAmount the new loan amount to consider o the StD ratio.\\n     * @return ratio_ Whether debt ratio for lending pool is valid.\\n     */\\n    function debtRatioFor(uint256 newLoanAmount)\\n        external\\n        virtual\\n        returns (uint16 ratio_);\\n\\n    /**\\n     * @notice Called by the Teller Diamond contract when a loan has been taken out and requires funds.\\n     * @param recipient The account to send the funds to.\\n     * @param amount Funds requested to fulfil the loan.\\n     */\\n    function fundLoan(address recipient, uint256 amount) external virtual;\\n\\n    /**\\n     * @notice Called by the Teller Diamond contract when a loan has been repaid.\\n     * @param amount Funds deposited back into the pool to repay the principal amount of a loan.\\n     * @param interestAmount Interest value paid into the pool from a loan.\\n     */\\n    function repayLoan(uint256 amount, uint256 interestAmount) external virtual;\\n\\n    /**\\n     * @notice Increase account supply of specified token amount.\\n     * @param amount The amount of underlying tokens to use to mint.\\n     */\\n    function mint(uint256 amount)\\n        external\\n        virtual\\n        returns (uint256 mintAmount_);\\n\\n    /**\\n     * @notice Redeem supplied Teller token underlying value.\\n     * @param amount The amount of Teller tokens to redeem.\\n     */\\n    function redeem(uint256 amount) external virtual;\\n\\n    /**\\n     * @notice Redeem supplied underlying value.\\n     * @param amount The amount of underlying tokens to redeem.\\n     */\\n    function redeemUnderlying(uint256 amount) external virtual;\\n\\n    /**\\n     * @notice Rebalances the funds controlled by Teller Token according to the current strategy.\\n     *\\n     * See {TTokenStrategy}.\\n     */\\n    function rebalance() external virtual;\\n\\n    /**\\n     * @notice Sets a new strategy to use for balancing funds.\\n     * @param strategy Address to the new strategy contract. Must implement the {ITTokenStrategy} interface.\\n     * @param initData Optional data to initialize the strategy.\\n     *\\n     * Requirements:\\n     *  - Sender must have ADMIN role\\n     */\\n    function setStrategy(address strategy, bytes calldata initData)\\n        external\\n        virtual;\\n\\n    /**\\n     * @notice Gets the strategy used for balancing funds.\\n     */\\n    function getStrategy() external view virtual returns (address);\\n\\n    /**\\n     * @notice Sets the restricted state of the platform.\\n     */\\n    function restrict(bool state) external virtual;\\n\\n    function initialize(address admin, address underlying) external virtual;\\n}\\n\",\"keccak256\":\"0xe6515c78e0277edbed82aa6926df727afd216379dd0bfbbb790222654c858499\",\"license\":\"MIT\"},\"contracts/market/collateral/ICollateralEscrow.sol\":{\"content\":\"// SPDX-License-Identifier: MIT\\npragma solidity ^0.8.0;\\n\\ninterface ICollateralEscrow {\\n    function init(address tokenAddress, bool isWETH) external;\\n\\n    function deposit(uint256 loanID, uint256 amount) external payable;\\n\\n    function withdraw(\\n        uint256 loanID,\\n        uint256 amount,\\n        address payable receiver\\n    ) external;\\n\\n    function loanSupply(uint256 loanID) external view returns (uint256 supply_);\\n\\n    function totalSupply() external view returns (uint256 supply_);\\n}\\n\",\"keccak256\":\"0x3c83593b5521e85c7f62076b41869cd5a762b34523ac39fc23b4ea1b9042aa59\",\"license\":\"MIT\"},\"contracts/nft/ITellerNFT.sol\":{\"content\":\"// SPDX-License-Identifier: MIT\\npragma solidity ^0.8.0;\\npragma experimental ABIEncoderV2;\\n\\n// Interfaces\\nimport \\\"@openzeppelin/contracts/token/ERC721/extensions/IERC721Metadata.sol\\\";\\n\\ninterface ITellerNFT {\\n    struct Tier {\\n        uint256 baseLoanSize;\\n        string[] hashes;\\n        address contributionAsset;\\n        uint256 contributionSize;\\n        uint8 contributionMultiplier;\\n    }\\n\\n    /**\\n     * @notice The contract metadata URI.\\n     */\\n    function contractURI() external view returns (string memory);\\n\\n    /**\\n     * @notice It returns information about a Tier for a token ID.\\n     * @param index Tier index to get info.\\n     */\\n    function getTier(uint256 index) external view returns (Tier memory tier_);\\n\\n    /**\\n     * @notice It returns information about a Tier for a token ID.\\n     * @param tokenId ID of the token to get Tier info.\\n     */\\n    function getTokenTier(uint256 tokenId)\\n        external\\n        view\\n        returns (uint256 index_, Tier memory tier_);\\n\\n    /**\\n     * @notice It returns an array of token IDs owned by an address.\\n     * @dev It uses a EnumerableSet to store values and loops over each element to add to the array.\\n     * @dev Can be costly if calling within a contract for address with many tokens.\\n     */\\n    function getTierHashes(uint256 tierIndex)\\n        external\\n        view\\n        returns (string[] memory hashes_);\\n\\n    /**\\n     * @notice It returns an array of token IDs owned by an address.\\n     * @dev It uses a EnumerableSet to store values and loops over each element to add to the array.\\n     * @dev Can be costly if calling within a contract for address with many tokens.\\n     */\\n    function getOwnedTokens(address owner)\\n        external\\n        view\\n        returns (uint256[] memory owned);\\n\\n    /**\\n     * @notice It mints a new token for a Tier index.\\n     *\\n     * Requirements:\\n     *  - Caller must be an authorized minter\\n     */\\n    function mint(uint256 tierIndex, address owner) external;\\n\\n    /**\\n     * @notice Adds a new Tier to be minted with the given information.\\n     * @dev It auto increments the index of the next tier to add.\\n     * @param newTier Information about the new tier to add.\\n     *\\n     * Requirements:\\n     *  - Caller must have the {MINTER} role\\n     */\\n    function addTier(Tier memory newTier) external;\\n\\n    /**\\n     * @notice Sets the contract level metadata URI hash.\\n     * @param contractURIHash The hash to the initial contract level metadata.\\n     */\\n    function setContractURIHash(string memory contractURIHash) external;\\n\\n    /**\\n     * @notice Initializes the TellerNFT.\\n     * @param minters The addresses that should allowed to mint tokens.\\n     */\\n    function initialize(address[] calldata minters) external;\\n}\\n\",\"keccak256\":\"0x7c788b94c175b70eec6b10bfe0655616fc0beb2ce3ef70a6fa750f291d35106c\",\"license\":\"MIT\"},\"contracts/nft/TellerNFT.sol\":{\"content\":\"// SPDX-License-Identifier: MIT\\npragma solidity ^0.8.0;\\npragma experimental ABIEncoderV2;\\n\\n// Contracts\\nimport \\\"@openzeppelin/contracts-upgradeable/token/ERC721/ERC721Upgradeable.sol\\\";\\nimport \\\"@openzeppelin/contracts-upgradeable/access/AccessControlUpgradeable.sol\\\";\\n\\n// Libraries\\nimport \\\"@openzeppelin/contracts/utils/Counters.sol\\\";\\nimport \\\"@openzeppelin/contracts/utils/structs/EnumerableSet.sol\\\";\\nimport \\\"@openzeppelin/contracts/utils/math/SafeMath.sol\\\";\\n\\n// Interfaces\\nimport \\\"./ITellerNFT.sol\\\";\\n\\n/*****************************************************************************************************/\\n/**                                             WARNING                                             **/\\n/**                                  THIS CONTRACT IS UPGRADEABLE!                                  **/\\n/**  ---------------------------------------------------------------------------------------------  **/\\n/**  Do NOT change the order of or PREPEND any storage variables to this or new versions of this    **/\\n/**  contract as this will cause the the storage slots to be overwritten on the proxy contract!!    **/\\n/**                                                                                                 **/\\n/**  Visit https://docs.openzeppelin.com/upgrades/2.6/proxies#upgrading-via-the-proxy-pattern for   **/\\n/**  more information.                                                                              **/\\n/*****************************************************************************************************/\\n/**\\n * @notice This contract is used by borrowers to call Dapp functions (using delegate calls).\\n * @notice This contract should only be constructed using it's upgradeable Proxy contract.\\n * @notice In order to call a Dapp function, the Dapp must be added in the DappRegistry instance.\\n *\\n * @author develop@teller.finance\\n */\\ncontract TellerNFT is ITellerNFT, ERC721Upgradeable, AccessControlUpgradeable {\\n    using Counters for Counters.Counter;\\n    using EnumerableSet for EnumerableSet.UintSet;\\n    using SafeMath for uint256;\\n\\n    /* Constants */\\n\\n    bytes32 public constant ADMIN = keccak256(\\\"ADMIN\\\");\\n    bytes32 public constant MINTER = keccak256(\\\"MINTER\\\");\\n\\n    /* State Variables */\\n\\n    // It holds the total number of tiers.\\n    Counters.Counter internal _tierCounter;\\n\\n    // It holds the total number of tokens minted.\\n    Counters.Counter internal _tokenCounter;\\n\\n    // It holds the information about a tier.\\n    mapping(uint256 => Tier) internal _tiers;\\n\\n    // It holds which tier a token ID is in.\\n    mapping(uint256 => uint256) internal _tokenTier;\\n\\n    // It holds a set of token IDs for an owner address.\\n    mapping(address => EnumerableSet.UintSet) internal _ownerTokenIDs;\\n\\n    // Link to the contract metadata\\n    string private _metadataBaseURI;\\n\\n    // Hash to the contract metadata located on the {_metadataBaseURI}\\n    string private _contractURIHash;\\n\\n    /* Modifiers */\\n\\n    modifier onlyAdmin() {\\n        require(hasRole(ADMIN, _msgSender()), \\\"TellerNFT: not admin\\\");\\n        _;\\n    }\\n\\n    modifier onlyMinter() {\\n        require(hasRole(MINTER, _msgSender()), \\\"TellerNFT: not minter\\\");\\n        _;\\n    }\\n\\n    /* External Functions */\\n\\n    /**\\n     * @notice It returns information about a Tier for a token ID.\\n     * @param index Tier index to get info.\\n     */\\n    function getTier(uint256 index)\\n        external\\n        view\\n        override\\n        returns (Tier memory tier_)\\n    {\\n        tier_ = _tiers[index];\\n    }\\n\\n    /**\\n     * @notice It returns information about a Tier for a token ID.\\n     * @param tokenId ID of the token to get Tier info.\\n     */\\n    function getTokenTier(uint256 tokenId)\\n        external\\n        view\\n        override\\n        returns (uint256 index_, Tier memory tier_)\\n    {\\n        index_ = _tokenTier[tokenId];\\n        tier_ = _tiers[index_];\\n    }\\n\\n    /**\\n     * @notice It returns an array of token IDs owned by an address.\\n     * @dev It uses a EnumerableSet to store values and loops over each element to add to the array.\\n     * @dev Can be costly if calling within a contract for address with many tokens.\\n     */\\n    function getTierHashes(uint256 tierIndex)\\n        external\\n        view\\n        override\\n        returns (string[] memory hashes_)\\n    {\\n        hashes_ = _tiers[tierIndex].hashes;\\n    }\\n\\n    /**\\n     * @notice It returns an array of token IDs owned by an address.\\n     * @dev It uses a EnumerableSet to store values and loops over each element to add to the array.\\n     * @dev Can be costly if calling within a contract for address with many tokens.\\n     */\\n    function getOwnedTokens(address owner)\\n        external\\n        view\\n        override\\n        returns (uint256[] memory owned_)\\n    {\\n        EnumerableSet.UintSet storage set = _ownerTokenIDs[owner];\\n        owned_ = new uint256[](set.length());\\n        for (uint256 i; i < owned_.length; i++) {\\n            owned_[i] = set.at(i);\\n        }\\n    }\\n\\n    /**\\n     * @notice The contract metadata URI.\\n     */\\n    function contractURI() external view override returns (string memory) {\\n        return _contractURIHash;\\n    }\\n\\n    /**\\n     * @notice The token URI is based on the token ID.\\n     */\\n    function tokenURI(uint256 tokenId)\\n        public\\n        view\\n        override\\n        returns (string memory)\\n    {\\n        require(_exists(tokenId), \\\"TellerNFT: URI query for nonexistent token\\\");\\n\\n        string memory baseURI = _baseURI();\\n        return\\n            bytes(baseURI).length > 0\\n                ? string(abi.encodePacked(baseURI, _tokenURIHash(tokenId)))\\n                : \\\"\\\";\\n    }\\n\\n    /**\\n     * @notice It mints a new token for a Tier index.\\n     * @param tierIndex Tier to mint token on.\\n     * @param owner The owner of the new token.\\n     *\\n     * Requirements:\\n     *  - Caller must be an authorized minter\\n     */\\n    function mint(uint256 tierIndex, address owner)\\n        external\\n        override\\n        onlyMinter\\n    {\\n        // Get the new token ID\\n        uint256 tokenId = _tokenCounter.current();\\n        _tokenCounter.increment();\\n\\n        // Mint and set the token to the tier index\\n        _safeMint(owner, tokenId);\\n        _tokenTier[tokenId] = tierIndex;\\n\\n        // Set owner\\n        _setOwner(owner, tokenId);\\n    }\\n\\n    /**\\n     * @notice Adds a new Tier to be minted with the given information.\\n     * @dev It auto increments the index of the next tier to add.\\n     * @param newTier Information about the new tier to add.\\n     *\\n     * Requirements:\\n     *  - Caller must have the {MINTER} role\\n     */\\n    function addTier(Tier memory newTier) external override onlyMinter {\\n        Tier storage tier = _tiers[_tierCounter.current()];\\n\\n        tier.baseLoanSize = newTier.baseLoanSize;\\n        tier.hashes = newTier.hashes;\\n        tier.contributionAsset = newTier.contributionAsset;\\n        tier.contributionSize = newTier.contributionSize;\\n        tier.contributionMultiplier = newTier.contributionMultiplier;\\n\\n        _tierCounter.increment();\\n    }\\n\\n    function removeMinter(address minter) external onlyMinter {\\n        revokeRole(MINTER, minter);\\n    }\\n\\n    function addMinter(address minter) public onlyMinter {\\n        _setupRole(MINTER, minter);\\n    }\\n\\n    /**\\n     * @notice Sets the contract level metadata URI hash.\\n     * @param contractURIHash The hash to the initial contract level metadata.\\n     */\\n    function setContractURIHash(string memory contractURIHash)\\n        external\\n        override\\n        onlyAdmin\\n    {\\n        _contractURIHash = contractURIHash;\\n    }\\n\\n    /**\\n     * @notice Initializes the TellerNFT.\\n     * @param minters The addresses that should allowed to mint tokens.\\n     */\\n    function initialize(address[] calldata minters)\\n        external\\n        override\\n        initializer\\n    {\\n        __ERC721_init(\\\"Teller NFT\\\", \\\"TNFT\\\");\\n        __AccessControl_init();\\n\\n        for (uint256 i; i < minters.length; i++) {\\n            _setupRole(MINTER, minters[i]);\\n        }\\n\\n        _metadataBaseURI = \\\"https://gateway.pinata.cloud/ipfs/\\\";\\n        _contractURIHash = \\\"QmWAfQFFwptzRUCdF2cBFJhcB2gfHJMd7TQt64dZUysk3R\\\";\\n    }\\n\\n    function supportsInterface(bytes4 interfaceId)\\n        public\\n        view\\n        override(AccessControlUpgradeable, ERC721Upgradeable)\\n        returns (bool)\\n    {\\n        return\\n            interfaceId == type(ITellerNFT).interfaceId ||\\n            ERC721Upgradeable.supportsInterface(interfaceId) ||\\n            AccessControlUpgradeable.supportsInterface(interfaceId);\\n    }\\n\\n    /**\\n     * @notice It returns the hash to use for the token URI.\\n     */\\n    function _tokenURIHash(uint256 tokenId)\\n        internal\\n        view\\n        returns (string memory)\\n    {\\n        string[] storage tierImageHashes = _tiers[_tokenTier[tokenId]].hashes;\\n        return tierImageHashes[tokenId.mod(tierImageHashes.length)];\\n    }\\n\\n    /**\\n     * @notice The base URI path where the token media is hosted.\\n     * @dev Base URI for computing {tokenURI}.\\n     */\\n    function _baseURI() internal view override returns (string memory) {\\n        return _metadataBaseURI;\\n    }\\n\\n    /**\\n     * @notice Moves token to new owner set and then transfers.\\n     */\\n    function _transfer(\\n        address from,\\n        address to,\\n        uint256 tokenId\\n    ) internal override {\\n        _setOwner(to, tokenId);\\n        super._transfer(from, to, tokenId);\\n    }\\n\\n    /**\\n     * @notice It removes the token from the current owner set and adds to new owner.\\n     */\\n    function _setOwner(address newOwner, uint256 tokenId) internal {\\n        address currentOwner = ownerOf(tokenId);\\n        if (currentOwner != address(0)) {\\n            _ownerTokenIDs[currentOwner].remove(tokenId);\\n        }\\n        _ownerTokenIDs[newOwner].add(tokenId);\\n    }\\n\\n    function _msgData() internal pure override returns (bytes calldata) {\\n        return msg.data;\\n    }\\n}\\n\",\"keccak256\":\"0x39fd6d70fd1aa5ae45465d7eeb38f74e2bf90535c2510782fb0bb5f720250ac5\",\"license\":\"MIT\"},\"contracts/settings/asset/libraries/MaxTVLLib.sol\":{\"content\":\"// SPDX-License-Identifier: MIT\\npragma solidity ^0.8.0;\\n\\n// Libraries\\nimport {\\n    CacheLib,\\n    Cache,\\n    CacheType\\n} from \\\"../../../shared/libraries/CacheLib.sol\\\";\\n\\n// Storage\\nimport { AppStorageLib } from \\\"../../../storage/app.sol\\\";\\n\\n/**\\n * @notice Utility library of inline functions for MaxDebtRatio asset setting.\\n *\\n * @author develop@teller.finance\\n */\\nlibrary MaxTVLLib {\\n    bytes32 private constant NAME = keccak256(\\\"MaxTVL\\\");\\n\\n    function s(address asset) private view returns (Cache storage) {\\n        return AppStorageLib.store().assetSettings[asset];\\n    }\\n\\n    function get(address asset) internal view returns (uint256) {\\n        return s(asset).uints[NAME];\\n    }\\n\\n    function set(address asset, uint256 newValue) internal {\\n        s(asset).uints[NAME] = newValue;\\n    }\\n}\\n\",\"keccak256\":\"0x7ee0cef332ce56b76d23da67d1ea7d5a7cf6cd4fe1330516bd8339bbcfaf7006\",\"license\":\"MIT\"},\"contracts/settings/pausable/PausableMods.sol\":{\"content\":\"// SPDX-License-Identifier: MIT\\npragma solidity ^0.8.0;\\n\\nimport { AppStorageLib } from \\\"../../storage/app.sol\\\";\\n\\nabstract contract PausableMods {\\n    /**\\n     * @notice Requires that the state of the protocol AND the given facet id equal {state}.\\n     * @param id id of the facet to check if is paused.\\n     * @param state Boolean that the protocol AND facet should be in.\\n     */\\n    modifier paused(bytes32 id, bool state) {\\n        require(\\n            __isPaused(\\\"\\\") == state && __isPaused(id) == state,\\n            __pausedMessage(state)\\n        );\\n        _;\\n    }\\n\\n    /**\\n     * @dev Checks if the given id is paused.\\n     * @param id Encoded id of the facet to check if is paused.\\n     */\\n    function __isPaused(bytes32 id) private view returns (bool) {\\n        return AppStorageLib.store().paused[id];\\n    }\\n\\n    /**\\n     * @dev Gets the message that should be reverted with given a state it should be in.\\n     * @param state Boolean that an id should be in.\\n     */\\n    function __pausedMessage(bool state) private pure returns (string memory) {\\n        return state ? \\\"Pausable: not paused\\\" : \\\"Pausable: paused\\\";\\n    }\\n}\\n\",\"keccak256\":\"0x772d8b9b63e9b8e78f243a70988f1a1e1100272cf317259ea173829f7b9bdf0e\",\"license\":\"MIT\"},\"contracts/settings/platform/libraries/PlatformSettingsLib.sol\":{\"content\":\"// SPDX-License-Identifier: MIT\\npragma solidity ^0.8.0;\\n\\nimport { AppStorageLib } from \\\"../../../storage/app.sol\\\";\\nimport \\\"../names.sol\\\" as NAMES;\\nimport {\\n    RolesMods\\n} from \\\"../../../contexts2/access-control/roles/RolesMods.sol\\\";\\nimport { ADMIN, AUTHORIZED } from \\\"../../../shared/roles.sol\\\";\\nimport { RolesLib } from \\\"../../../contexts2/access-control/roles/RolesLib.sol\\\";\\n\\n// It defines a platform settings. It includes: value, min, and max values.\\nstruct PlatformSetting {\\n    uint256 value;\\n    uint256 min;\\n    uint256 max;\\n    bool exists;\\n}\\n\\n/**\\n * @notice Utility library of inline functions on the PlatformSetting struct.\\n *\\n * @author develop@teller.finance\\n */\\nlibrary PlatformSettingsLib {\\n    function s(bytes32 name) internal view returns (PlatformSetting storage) {\\n        return AppStorageLib.store().platformSettings[name];\\n    }\\n\\n    /**\\n     * @notice It gets the current \\\"RequiredSubmissionsPercentage\\\" setting's value\\n     * @return value_ the current value.\\n     */\\n    function getRequiredSubmissionsPercentageValue()\\n        internal\\n        view\\n        returns (uint256 value_)\\n    {\\n        value_ = s(NAMES.REQUIRED_SUBMISSIONS_PERCENTAGE).value;\\n    }\\n\\n    /**\\n     * @notice It gets the current \\\"MaximumTolerance\\\" setting's value\\n     * @return value_ the current value.\\n     */\\n    function getMaximumToleranceValue() internal view returns (uint256 value_) {\\n        value_ = s(NAMES.MAXIMUM_TOLERANCE).value;\\n    }\\n\\n    /**\\n     * @notice It gets the current \\\"ResponseExpiryLength\\\" setting's value\\n     * @return value_ the current value.\\n     */\\n    function getResponseExpiryLengthValue()\\n        internal\\n        view\\n        returns (uint256 value_)\\n    {\\n        value_ = s(NAMES.RESPONSE_EXPIRY_LENGTH).value;\\n    }\\n\\n    /**\\n     * @notice It gets the current \\\"SafetyInterval\\\" setting's value\\n     * @return value_ the current value.\\n     */\\n    function getSafetyIntervalValue() internal view returns (uint256 value_) {\\n        value_ = s(NAMES.SAFETY_INTERVAL).value;\\n    }\\n\\n    /**\\n     * @notice It gets the current \\\"TermsExpiryTime\\\" setting's value\\n     * @return value_ the current value.\\n     */\\n    function getTermsExpiryTimeValue() internal view returns (uint256 value_) {\\n        value_ = s(NAMES.TERMS_EXPIRY_TIME).value;\\n    }\\n\\n    /**\\n     * @notice It gets the current \\\"LiquidateRewardPercent\\\" setting's value\\n     * @return value_ the current value.\\n     */\\n    function getLiquidateRewardPercent()\\n        internal\\n        view\\n        returns (uint256 value_)\\n    {\\n        value_ = s(NAMES.LIQUIDATE_REWARD_PERCENT).value;\\n    }\\n\\n    /**\\n     * @notice It gets the current \\\"MaximumLoanDuration\\\" setting's value\\n     * @return value_ the current value.\\n     */\\n    function getMaximumLoanDurationValue()\\n        internal\\n        view\\n        returns (uint256 value_)\\n    {\\n        value_ = s(NAMES.MAXIMUM_LOAN_DURATION).value;\\n    }\\n\\n    /**\\n     * @notice It gets the current \\\"RequestLoanTermsRateLimit\\\" setting's value\\n     * @return value_ the current value.\\n     */\\n    function getRequestLoanTermsRateLimitValue()\\n        internal\\n        view\\n        returns (uint256 value_)\\n    {\\n        value_ = s(NAMES.REQUEST_LOAN_TERMS_RATE_LIMIT).value;\\n    }\\n\\n    /**\\n     * @notice It gets the current \\\"CollateralBuffer\\\" setting's value\\n     * @return value_ the current value.\\n     */\\n    function getCollateralBufferValue() internal view returns (uint256 value_) {\\n        value_ = s(NAMES.COLLATERAL_BUFFER).value;\\n    }\\n\\n    /**\\n     * @notice It gets the current \\\"OverCollateralizedBuffer\\\" setting's value\\n     * @return value_ the current value.\\n     */\\n    function getOverCollateralizedBufferValue()\\n        internal\\n        view\\n        returns (uint256 value_)\\n    {\\n        value_ = s(NAMES.OVER_COLLATERALIZED_BUFFER).value;\\n    }\\n}\\n\",\"keccak256\":\"0xbeef1937dc1ed1f6f78b80f0737f018565ab264184cf05ef54c3c28ecd55a09b\",\"license\":\"MIT\"},\"contracts/settings/platform/names.sol\":{\"content\":\"// SPDX-License-Identifier: MIT\\npragma solidity ^0.8.0;\\n\\n/**\\n        @dev The setting name for the required subsmission settings.\\n        @dev This is the minimum percentage of node responses that will be required by the platform to either take out a loan, and to claim accrued interest. If the number of node responses are less than the ones specified here, the loan or accrued interest claim request will be rejected by the platform\\n     */\\nbytes32 constant REQUIRED_SUBMISSIONS_PERCENTAGE = keccak256(\\n    \\\"RequiredSubmissionsPercentage\\\"\\n);\\n\\n/**\\n        @dev The setting name for the maximum tolerance settings.\\n        @dev This is the maximum tolerance for the values submitted (by nodes) when they are aggregated (average). It is used in the consensus mechanisms.\\n        @dev This is a percentage value with 2 decimal places.\\n            i.e. maximumTolerance of 325 => tolerance of 3.25% => 0.0325 of value\\n            i.e. maximumTolerance of 0 => It means all the values submitted must be equals.\\n        @dev The max value is 100% => 10000\\n     */\\nbytes32 constant MAXIMUM_TOLERANCE = keccak256(\\\"MaximumTolerance\\\");\\n/**\\n        @dev The setting name for the response expiry length settings.\\n        @dev This is the maximum time (in seconds) a node has to submit a response. After that time, the response is considered expired and will not be accepted by the protocol.\\n     */\\n\\nbytes32 constant RESPONSE_EXPIRY_LENGTH = keccak256(\\\"ResponseExpiryLength\\\");\\n\\n/**\\n        @dev The setting name for the safety interval settings.\\n        @dev This is the minimum time you need to wait (in seconds) between the last time you deposit collateral and you take out the loan.\\n        @dev It is used to avoid potential attacks using Flash Loans (AAVE) or Flash Swaps (Uniswap V2).\\n     */\\nbytes32 constant SAFETY_INTERVAL = keccak256(\\\"SafetyInterval\\\");\\n\\n/**\\n        @dev The setting name for the term expiry time settings.\\n        @dev This represents the time (in seconds) that loan terms will be available after requesting them.\\n        @dev After this time, the loan terms will expire and the borrower will need to request it again.\\n     */\\nbytes32 constant TERMS_EXPIRY_TIME = keccak256(\\\"TermsExpiryTime\\\");\\n\\n/**\\n        @dev The setting name for the liquidation reward percent setting.\\n        @dev It represents the percentage value (with 2 decimal places) for the MAX liquidation reward.\\n            i.e. an ETH liquidation price at 5% is stored as 500\\n     */\\nbytes32 constant LIQUIDATE_REWARD_PERCENT = keccak256(\\\"LiquidateRewardPercent\\\");\\n\\n/**\\n        @dev The setting name for the maximum loan duration settings.\\n        @dev The maximum loan duration setting is defined in seconds. Loans will not be given for timespans larger than the one specified here.\\n     */\\nbytes32 constant MAXIMUM_LOAN_DURATION = keccak256(\\\"MaximumLoanDuration\\\");\\n\\n/**\\n        @dev The setting name for the request loan terms rate limit settings.\\n        @dev The request loan terms rate limit setting is defined in seconds.\\n     */\\nbytes32 constant REQUEST_LOAN_TERMS_RATE_LIMIT = keccak256(\\n    \\\"RequestLoanTermsRateLimit\\\"\\n);\\n\\n/**\\n        @dev The setting name for the collateral buffer.\\n        @dev The collateral buffer is a safety buffer above the required collateral amount to liquidate a loan. It is required to ensure the loan does not get liquidated immediately after the loan is taken out if the value of the collateral asset deposited drops drastically.\\n        @dev It represents the percentage value (with 2 decimal places) of a collateral buffer.\\n            e.g.: collateral buffer at 100% is stored as 10000.\\n     */\\nbytes32 constant COLLATERAL_BUFFER = keccak256(\\\"CollateralBuffer\\\");\\n\\n/**\\n        @dev The setting name for the over collateralized buffer.\\n        @dev The over collateralized buffer is the minimum required collateral ratio in order for a loan to be taken out without an Escrow contract and for the funds to go to the borrower's EOA (external overridely owned account).\\n        @dev It represents the percentage value (with 2 decimal places) of a over collateralized buffer.\\n            e.g.: over collateralized buffer at 130% is stored as 13000.\\n     */\\nbytes32 constant OVER_COLLATERALIZED_BUFFER = keccak256(\\n    \\\"OverCollateralizedBuffer\\\"\\n);\\n\",\"keccak256\":\"0xacf6bcb8c4afd2f337a0161e8be64b016c1b350d336cd862245dd922fcd10f33\",\"license\":\"MIT\"},\"contracts/shared/libraries/CacheLib.sol\":{\"content\":\"// SPDX-License-Identifier: MIT\\npragma solidity ^0.8.0;\\n\\nenum CacheType { Address, Uint, Int, Byte, Bool }\\n\\n/**\\n * @notice This struct manages the cache of the library instance.\\n * @param addresses A mapping of address values mapped to cache keys in bytes.\\n * @param uints A mapping of uint values mapped to cache keys names in bytes.\\n * @param ints A mapping of int values mapped to cache keys names in bytes.\\n * @param bites A mapping of bytes values mapped to cache keys names in bytes.\\n * @param bools A mapping of bool values mapped to cache keys names in bytes.\\n */\\nstruct Cache {\\n    // Mapping of cache keys names to address values.\\n    mapping(bytes32 => address) addresses;\\n    // Mapping of cache keys names to uint256 values.\\n    mapping(bytes32 => uint256) uints;\\n    // Mapping of cache keys names to int256 values.\\n    mapping(bytes32 => int256) ints;\\n    // Mapping of cache keys names to bytes32 values.\\n    mapping(bytes32 => bytes32) bites;\\n    // Mapping of cache keys names to bool values.\\n    mapping(bytes32 => bool) bools;\\n}\\n\\nlibrary CacheLib {\\n    // The constant for the initialization check\\n    bytes32 private constant INITIALIZED = keccak256(\\\"Initialized\\\");\\n\\n    /**\\n     * @notice Initializes the cache instance.\\n     * @param cache The current cache\\n     */\\n    function initialize(Cache storage cache) internal {\\n        requireNotExists(cache);\\n        cache.bools[INITIALIZED] = true;\\n    }\\n\\n    /**\\n     * @notice Checks whether the current cache does not, throwing an error if it does.\\n     * @param cache The current cache\\n     */\\n    function requireNotExists(Cache storage cache) internal view {\\n        require(!exists(cache), \\\"CACHE_ALREADY_EXISTS\\\");\\n    }\\n\\n    /**\\n     * @notice Checks whether the current cache exists, throwing an error if the cache does not.\\n     * @param cache The current cache\\n     */\\n    function requireExists(Cache storage cache) internal view {\\n        require(exists(cache), \\\"CACHE_DOES_NOT_EXIST\\\");\\n    }\\n\\n    /**\\n     * @notice Tests whether the current cache exists or not.\\n     * @param cache The current cache.\\n     * @return bool True if the cache exists.\\n     */\\n    function exists(Cache storage cache) internal view returns (bool) {\\n        return cache.bools[INITIALIZED];\\n    }\\n\\n    function update(\\n        Cache storage cache,\\n        bytes32 key,\\n        bytes32 value,\\n        CacheType cacheType\\n    ) internal {\\n        requireExists(cache);\\n\\n        assembly {\\n            mstore(0, value)\\n        }\\n        if (cacheType == CacheType.Address) {\\n            address addr;\\n            assembly {\\n                addr := mload(0)\\n            }\\n            cache.addresses[key] = addr;\\n        } else if (cacheType == CacheType.Uint) {\\n            uint256 ui;\\n            assembly {\\n                ui := mload(0)\\n            }\\n            cache.uints[key] = ui;\\n        } else if (cacheType == CacheType.Int) {\\n            int256 i;\\n            assembly {\\n                i := mload(0)\\n            }\\n            cache.ints[key] = i;\\n        } else if (cacheType == CacheType.Byte) {\\n            cache.bites[key] = value;\\n        } else if (cacheType == CacheType.Bool) {\\n            bool b;\\n            assembly {\\n                b := mload(0)\\n            }\\n            cache.bools[key] = b;\\n        }\\n    }\\n\\n    /**\\n     */\\n    function clearCache(\\n        Cache storage cache,\\n        bytes32[5] memory keysToClear,\\n        CacheType[5] memory keyTypes\\n    ) internal {\\n        requireExists(cache);\\n        require(\\n            keysToClear.length == keyTypes.length,\\n            \\\"ARRAY_LENGTHS_MISMATCH\\\"\\n        );\\n        for (uint256 i; i <= keysToClear.length; i++) {\\n            if (keyTypes[i] == CacheType.Address) {\\n                delete cache.addresses[keysToClear[i]];\\n            } else if (keyTypes[i] == CacheType.Uint) {\\n                delete cache.uints[keysToClear[i]];\\n            } else if (keyTypes[i] == CacheType.Int) {\\n                delete cache.ints[keysToClear[i]];\\n            } else if (keyTypes[i] == CacheType.Byte) {\\n                delete cache.bites[keysToClear[i]];\\n            } else if (keyTypes[i] == CacheType.Bool) {\\n                delete cache.bools[keysToClear[i]];\\n            }\\n        }\\n    }\\n}\\n\",\"keccak256\":\"0x4d9045666e86d675f7bd48202f9a77d0675fa20b2184131ad369710ac5eb3203\",\"license\":\"MIT\"},\"contracts/shared/libraries/NumbersLib.sol\":{\"content\":\"// SPDX-License-Identifier: MIT\\npragma solidity ^0.8.0;\\n\\n/**\\n * @dev Utility library for uint256 numbers\\n *\\n * @author develop@teller.finance\\n */\\nlibrary NumbersLib {\\n    /**\\n     * @dev It represents 100% with 2 decimal places.\\n     */\\n    uint256 internal constant ONE_HUNDRED_PERCENT = 10000;\\n\\n    /**\\n     * @notice Returns a percentage value of a number.\\n     * @param self The number to get a percentage of.\\n     * @param percentage The percentage value to calculate with 2 decimal places (10000 = 100%).\\n     */\\n    function percent(uint256 self, uint16 percentage)\\n        internal\\n        pure\\n        returns (uint256)\\n    {\\n        return (self * uint256(percentage)) / ONE_HUNDRED_PERCENT;\\n    }\\n\\n    function percent(int256 self, uint256 percentage)\\n        internal\\n        pure\\n        returns (int256)\\n    {\\n        return (self * int256(percentage)) / int256(ONE_HUNDRED_PERCENT);\\n    }\\n\\n    function abs(int256 self) internal pure returns (uint256) {\\n        return self >= 0 ? uint256(self) : uint256(-1 * self);\\n    }\\n\\n    /**\\n     * @notice Returns a ratio percentage of {num1} to {num2}.\\n     * @param num1 The number used to get the ratio for.\\n     * @param num2 The number used to get the ratio from.\\n     * @return Ratio percentage with 2 decimal places (10000 = 100%).\\n     */\\n    function ratioOf(uint256 num1, uint256 num2)\\n        internal\\n        pure\\n        returns (uint16)\\n    {\\n        return num2 == 0 ? 0 : uint16((num1 * ONE_HUNDRED_PERCENT) / num2);\\n    }\\n}\\n\",\"keccak256\":\"0x998aefaf4edbe7b0cb41032750b65b3822b4bec0fec3ee5b396f8fb73b5e9e03\",\"license\":\"MIT\"},\"contracts/shared/libraries/NumbersList.sol\":{\"content\":\"// SPDX-License-Identifier: MIT\\npragma solidity ^0.8.0;\\n\\nimport \\\"@openzeppelin/contracts/utils/math/SafeMath.sol\\\";\\nimport \\\"./NumbersLib.sol\\\";\\n\\n/**\\n * @dev Utility library of inline functions on NumbersList.Values\\n *\\n * @author develop@teller.finance\\n */\\nlibrary NumbersList {\\n    using NumbersLib for uint256;\\n\\n    // Holds values to calculate the threshold of a list of numbers\\n    struct Values {\\n        uint256 count; // The total number of numbers added\\n        uint256 max; // The maximum number that was added\\n        uint256 min; // The minimum number that was added\\n        uint256 sum; // The total sum of the numbers that were added\\n    }\\n\\n    /**\\n     * @dev Add to the sum while keeping track of min and max values\\n     * @param self The Value this function was called on\\n     * @param newValue Number to increment sum by\\n     */\\n    function addValue(Values memory self, uint256 newValue) internal pure {\\n        if (self.max < newValue) {\\n            self.max = newValue;\\n        }\\n        if (self.min > newValue || self.count == 0) {\\n            self.min = newValue;\\n        }\\n        self.sum = self.sum + (newValue);\\n        self.count = self.count + 1;\\n    }\\n\\n    /**\\n     * @param self The Value this function was called on\\n     * @return the number of times the sum has updated\\n     */\\n    function valuesCount(Values memory self) internal pure returns (uint256) {\\n        return self.count;\\n    }\\n\\n    /**\\n     * @dev Checks if the sum has been changed\\n     * @param self The Value this function was called on\\n     * @return boolean\\n     */\\n    function isEmpty(Values memory self) internal pure returns (bool) {\\n        return valuesCount(self) == 0;\\n    }\\n\\n    /**\\n     * @param self The Value this function was called on\\n     * @return the average number that was used to calculate the sum\\n     */\\n    function getAverage(Values memory self) internal pure returns (uint256) {\\n        return isEmpty(self) ? 0 : self.sum / (valuesCount(self));\\n    }\\n\\n    /**\\n     * @dev Checks if the min and max numbers are within the acceptable tolerance\\n     * @param self The Value this function was called on\\n     * @param tolerancePercentage Acceptable tolerance percentage as a whole number\\n     * The percentage should be entered with 2 decimal places. e.g. 2.5% should be entered as 250.\\n     * @return boolean\\n     */\\n    function isWithinTolerance(Values memory self, uint16 tolerancePercentage)\\n        internal\\n        pure\\n        returns (bool)\\n    {\\n        if (isEmpty(self)) {\\n            return false;\\n        }\\n        uint256 average = getAverage(self);\\n        uint256 toleranceAmount = average.percent(tolerancePercentage);\\n\\n        uint256 minTolerance = average - toleranceAmount;\\n        if (self.min < minTolerance) {\\n            return false;\\n        }\\n\\n        uint256 maxTolerance = average + toleranceAmount;\\n        if (self.max > maxTolerance) {\\n            return false;\\n        }\\n        return true;\\n    }\\n}\\n\",\"keccak256\":\"0xfd64d3765eb776aaebf1c6eeb8af33ad4a9bd89bad676300542086c1fefd44da\",\"license\":\"MIT\"},\"contracts/shared/proxy/beacon/InitializeableBeaconProxy.sol\":{\"content\":\"// SPDX-License-Identifier: MIT\\npragma solidity ^0.8.0;\\n\\nimport \\\"@openzeppelin/contracts/proxy/beacon/IBeacon.sol\\\";\\nimport \\\"@openzeppelin/contracts/proxy/Proxy.sol\\\";\\nimport \\\"@openzeppelin/contracts/utils/Address.sol\\\";\\n\\n/**\\n * @dev This contract implements a proxy that gets the implementation address for each call from a {UpgradeableBeacon}.\\n *\\n * The beacon address is stored in storage slot `uint256(keccak256('eip1967.proxy.beacon')) - 1`, so that it doesn't\\n * conflict with the storage layout of the implementation behind the proxy.\\n *\\n * _Available since v3.4._\\n */\\ncontract InitializeableBeaconProxy is Proxy {\\n    /**\\n     * @dev The storage slot of the UpgradeableBeacon contract which defines the implementation for this proxy.\\n     * This is bytes32(uint256(keccak256('eip1967.proxy.beacon')) - 1)) and is validated in the constructor.\\n     */\\n    bytes32 private constant _BEACON_SLOT =\\n        0xa3f0ad74e5423aebfd80d3ef4346578335a9a72aeaee59ff6cb3582b35133d50;\\n\\n    /**\\n     * @dev Initializes the proxy with `beacon`.\\n     *\\n     * If `data` is nonempty, it's used as data in a delegate call to the implementation returned by the beacon. This\\n     * will typically be an encoded function call, and allows initializating the storage of the proxy like a Solidity\\n     * constructor.\\n     *\\n     * Requirements:\\n     *\\n     * - `beacon` must be a contract with the interface {IBeacon}.\\n     */\\n    function initialize(address beacon, bytes memory data) external payable {\\n        assert(\\n            _BEACON_SLOT ==\\n                bytes32(uint256(keccak256(\\\"eip1967.proxy.beacon\\\")) - 1)\\n        );\\n        require(_beacon() == address(0), \\\"Beacon: already initialized\\\");\\n\\n        _setBeacon(beacon, data);\\n    }\\n\\n    /**\\n     * @dev Returns the current beacon address.\\n     */\\n    function _beacon() internal view virtual returns (address beacon) {\\n        bytes32 slot = _BEACON_SLOT;\\n        // solhint-disable-next-line no-inline-assembly\\n        assembly {\\n            beacon := sload(slot)\\n        }\\n    }\\n\\n    /**\\n     * @dev Returns the current implementation address of the associated beacon.\\n     */\\n    function _implementation()\\n        internal\\n        view\\n        virtual\\n        override\\n        returns (address)\\n    {\\n        return IBeacon(_beacon()).implementation();\\n    }\\n\\n    /**\\n     * @dev Changes the proxy to use a new beacon.\\n     *\\n     * If `data` is nonempty, it's used as data in a delegate call to the implementation returned by the beacon.\\n     *\\n     * Requirements:\\n     *\\n     * - `beacon` must be a contract.\\n     * - The implementation returned by `beacon` must be a contract.\\n     */\\n    function _setBeacon(address beacon, bytes memory data) internal virtual {\\n        bytes32 slot = _BEACON_SLOT;\\n\\n        // solhint-disable-next-line no-inline-assembly\\n        assembly {\\n            sstore(slot, beacon)\\n        }\\n\\n        if (data.length > 0) {\\n            Address.functionDelegateCall(\\n                _implementation(),\\n                data,\\n                \\\"BeaconProxy: function call failed\\\"\\n            );\\n        }\\n    }\\n\\n    receive() external payable override {\\n        // Needed to receive ETH without data\\n        // OZ Proxy contract calls the _fallback() on receive and tries to delegatecall which fails\\n    }\\n}\\n\",\"keccak256\":\"0x48aefbbc0c51b106f4d69580fa802dc6c5d7573fee24cb7d08f5370d79a2e6f2\",\"license\":\"MIT\"},\"contracts/shared/proxy/beacon/UpgradeableBeaconFactory.sol\":{\"content\":\"// SPDX-License-Identifier: MIT\\npragma solidity ^0.8.0;\\n\\nimport \\\"@openzeppelin/contracts/proxy/Clones.sol\\\";\\nimport \\\"@openzeppelin/contracts/proxy/beacon/IBeacon.sol\\\";\\nimport \\\"@openzeppelin/contracts/access/Ownable.sol\\\";\\nimport \\\"@openzeppelin/contracts/utils/Address.sol\\\";\\nimport \\\"./InitializeableBeaconProxy.sol\\\";\\n\\n/**\\n * @dev This contract is used in conjunction with one or more instances of {BeaconProxy} to determine their\\n * implementation contract, which is where they will delegate all function calls.\\n *\\n * An owner is able to change the implementation the beacon points to, thus upgrading the proxies that use this beacon.\\n */\\ncontract UpgradeableBeaconFactory is IBeacon, Ownable {\\n    address private _implementation;\\n    InitializeableBeaconProxy public proxyAddress;\\n\\n    /**\\n     * @dev Emitted when the implementation returned by the beacon is changed.\\n     */\\n    event Upgraded(address indexed implementation);\\n\\n    /**\\n     * @dev Sets the address of the initial implementation, and the deployer account as the owner who can upgrade the\\n     * beacon.\\n     */\\n    constructor(address payable proxyAddress_, address implementation_) {\\n        proxyAddress = InitializeableBeaconProxy(proxyAddress_);\\n        _setImplementation(implementation_);\\n    }\\n\\n    /**\\n     * @dev Returns the current implementation address.\\n     */\\n    function implementation() public view virtual override returns (address) {\\n        return _implementation;\\n    }\\n\\n    function cloneProxy(bytes memory initData)\\n        external\\n        returns (address payable proxy_)\\n    {\\n        proxy_ = payable(Clones.clone(address(proxyAddress)));\\n        InitializeableBeaconProxy(proxy_).initialize(address(this), initData);\\n    }\\n\\n    /**\\n     * @dev Upgrades the beacon to a new implementation.\\n     *\\n     * Emits an {Upgraded} event.\\n     *\\n     * Requirements:\\n     *\\n     * - msg.sender must be the owner of the contract.\\n     * - `newImplementation` must be a contract.\\n     */\\n    function upgradeTo(address newImplementation) public virtual onlyOwner {\\n        _setImplementation(newImplementation);\\n        emit Upgraded(newImplementation);\\n    }\\n\\n    /**\\n     * @dev Sets the implementation contract address for this beacon\\n     *\\n     * Requirements:\\n     *\\n     * - `newImplementation` must be a contract.\\n     */\\n    function _setImplementation(address newImplementation) private {\\n        require(\\n            Address.isContract(newImplementation),\\n            \\\"UpgradeableBeacon: implementation is not a contract\\\"\\n        );\\n        _implementation = newImplementation;\\n    }\\n}\\n\",\"keccak256\":\"0x8919fcdfb49018474c872c462c11b21a50faa7ab80f0162abd6b657cbbc5d04c\",\"license\":\"MIT\"},\"contracts/shared/roles.sol\":{\"content\":\"// SPDX-License-Identifier: MIT\\npragma solidity ^0.8.0;\\n\\nbytes32 constant ADMIN = keccak256(\\\"ADMIN\\\");\\nbytes32 constant PAUSER = keccak256(\\\"PAUSER\\\");\\nbytes32 constant AUTHORIZED = keccak256(\\\"AUTHORIZED\\\");\\n\",\"keccak256\":\"0x0888cf40ea019be9f0ee94cb8af1e030454c28f8c6512db9d89ed027fe21f18f\",\"license\":\"MIT\"},\"contracts/storage/app.sol\":{\"content\":\"// SPDX-License-Identifier: MIT\\npragma solidity ^0.8.0;\\n\\n// Contracts\\nimport { TellerNFT } from \\\"../nft/TellerNFT.sol\\\";\\n\\n// Interfaces\\n\\n// Libraries\\nimport {\\n    PlatformSetting\\n} from \\\"../settings/platform/libraries/PlatformSettingsLib.sol\\\";\\nimport { Cache } from \\\"../shared/libraries/CacheLib.sol\\\";\\nimport {\\n    UpgradeableBeaconFactory\\n} from \\\"../shared/proxy/beacon/UpgradeableBeaconFactory.sol\\\";\\n\\nstruct AppStorage {\\n    bool initialized;\\n    bool platformRestricted;\\n    mapping(bytes32 => bool) paused;\\n    mapping(bytes32 => PlatformSetting) platformSettings;\\n    mapping(address => Cache) assetSettings;\\n    mapping(string => address) assetAddresses;\\n    mapping(address => bool) cTokenRegistry;\\n    TellerNFT nft;\\n    UpgradeableBeaconFactory loansEscrowBeacon;\\n    UpgradeableBeaconFactory collateralEscrowBeacon;\\n    address nftLiquidationController;\\n    UpgradeableBeaconFactory tTokenBeacon;\\n}\\n\\nlibrary AppStorageLib {\\n    function store() internal pure returns (AppStorage storage s) {\\n        assembly {\\n            s.slot := 0\\n        }\\n    }\\n}\\n\",\"keccak256\":\"0xade1dda8163fc39658e5f6929b662187584b29cce47e9cb0915fc0d1832fb4f7\",\"license\":\"MIT\"},\"contracts/storage/market.sol\":{\"content\":\"// SPDX-License-Identifier: MIT\\npragma solidity ^0.8.0;\\n\\n// Libraries\\nimport { Counters } from \\\"@openzeppelin/contracts/utils/Counters.sol\\\";\\nimport {\\n    EnumerableSet\\n} from \\\"@openzeppelin/contracts/utils/structs/EnumerableSet.sol\\\";\\nimport \\\"../shared/libraries/NumbersList.sol\\\";\\n\\n// Interfaces\\nimport { ILoansEscrow } from \\\"../escrow/escrow/ILoansEscrow.sol\\\";\\nimport { ICollateralEscrow } from \\\"../market/collateral/ICollateralEscrow.sol\\\";\\nimport { ITToken } from \\\"../lending/ttoken/ITToken.sol\\\";\\n\\nstruct LoanTerms {\\n    // Max size the loan max be taken out with\\n    uint256 maxLoanAmount;\\n    // The timestamp at which the loan terms expire, after which if the loan is not yet active, cannot be taken out\\n    uint32 termsExpiry;\\n}\\n\\nenum LoanStatus { NonExistent, TermsSet, Active, Closed, Liquidated }\\n\\nstruct Loan {\\n    // Account that owns the loan\\n    address payable borrower;\\n    // The asset lent out for the loan\\n    address lendingToken;\\n    // The token used as collateral for the loan\\n    address collateralToken;\\n    // The total amount of the loan size taken out\\n    uint256 borrowedAmount;\\n    // The id of the loan for internal tracking\\n    uint128 id;\\n    // How long in seconds until the loan must be repaid\\n    uint32 duration;\\n    // The timestamp at which the loan became active\\n    uint32 loanStartTime;\\n    // The interest rate given for repaying the loan\\n    uint16 interestRate;\\n    // Ratio used to determine amount of collateral required based on the collateral asset price\\n    uint16 collateralRatio;\\n    // The status of the loan\\n    LoanStatus status;\\n}\\n\\nstruct LoanDebt {\\n    // The total amount of the loan taken out by the borrower, reduces on loan repayments\\n    uint256 principalOwed;\\n    // The total interest owed by the borrower for the loan, reduces on loan repayments\\n    uint256 interestOwed;\\n}\\n\\n/**\\n * @notice Borrower request object to take out a loan\\n * @param borrower The wallet address of the borrower\\n * @param assetAddress The address of the asset for the requested loan\\n * @param amount The amount of tokens requested by the borrower for the loan\\n * @param requestNonce The nonce of the borrower wallet address required for authentication\\n * @param duration The length of time in seconds that the loan has been requested for\\n * @param requestTime The timestamp at which the loan was requested\\n */\\nstruct LoanRequest {\\n    address payable borrower;\\n    address assetAddress;\\n    uint256 amount;\\n    uint32 requestNonce;\\n    uint32 duration;\\n    uint32 requestTime;\\n}\\n\\n/**\\n * @notice Borrower response object to take out a loan\\n * @param signer The wallet address of the signer validating the interest request of the lender\\n * @param assetAddress The address of the asset for the requested loan\\n * @param maxLoanAmount The largest amount of tokens that can be taken out in the loan by the borrower\\n * @param responseTime The timestamp at which the response was sent\\n * @param interestRate The signed interest rate generated by the signer's Credit Risk Algorithm (CRA)\\n * @param collateralRatio The ratio of collateral to loan amount that is generated by the signer's Credit Risk Algorithm (CRA)\\n * @param signature The signature generated by the signer in the format of the above Signature struct\\n */\\nstruct LoanResponse {\\n    address signer;\\n    address assetAddress;\\n    uint256 maxLoanAmount;\\n    uint32 responseTime;\\n    uint16 interestRate;\\n    uint16 collateralRatio;\\n    Signature signature;\\n}\\n\\n/**\\n * @notice Represents a user signature\\n * @param v The recovery identifier represented by the last byte of a ECDSA signature as an int\\n * @param r The random point x-coordinate of the signature respresented by the first 32 bytes of the generated ECDSA signature\\n * @param s The signature proof represented by the second 32 bytes of the generated ECDSA signature\\n */\\nstruct Signature {\\n    uint8 v;\\n    bytes32 r;\\n    bytes32 s;\\n}\\n\\nstruct MarketStorage {\\n    // Holds the index for the next loan ID\\n    Counters.Counter loanIDCounter;\\n    // Maps loanIDs to loan data\\n    mapping(uint256 => Loan) loans;\\n    // Maps loanID to loan debt (total owed left)\\n    mapping(uint256 => LoanDebt) loanDebt;\\n    // Maps loanID to loan terms\\n    mapping(uint256 => LoanTerms) loanTerms;\\n    // Maps loanIDs to escrow address to list of held tokens\\n    mapping(uint256 => ILoansEscrow) loanEscrows;\\n    // Maps loanIDs to list of tokens owned by a loan escrow\\n    mapping(uint256 => EnumerableSet.AddressSet) escrowTokens;\\n    // Maps collateral token address to a LoanCollateralEscrow that hold collateral funds\\n    mapping(address => ICollateralEscrow) collateralEscrows;\\n    // Maps accounts to owned loan IDs\\n    mapping(address => uint128[]) borrowerLoans;\\n    // Maps lending token to overall amount of interest collected from loans\\n    mapping(address => ITToken) tTokens;\\n    // Maps lending token to list of signer addresses who are only ones allowed to verify loan requests\\n    mapping(address => EnumerableSet.AddressSet) signers;\\n    // Maps lending token to list of allowed collateral tokens\\n    mapping(address => EnumerableSet.AddressSet) collateralTokens;\\n}\\n\\nbytes32 constant MARKET_STORAGE_POS = keccak256(\\\"teller.market.storage\\\");\\n\\nlibrary MarketStorageLib {\\n    function store() internal pure returns (MarketStorage storage s) {\\n        bytes32 pos = MARKET_STORAGE_POS;\\n        assembly {\\n            s.slot := pos\\n        }\\n    }\\n}\\n\",\"keccak256\":\"0x5f3fdba19ae8040e2007affe422527b7dca58ba424df33ba4dd9cb08d83d00de\",\"license\":\"MIT\"}},\"version\":1}",
      "bytecode": "0x608060405234801561001057600080fd5b50610dcb806100206000396000f3fe608060405234801561001057600080fd5b50600436106100415760003560e01c80635a601668146100465780638a4f4f921461005b5780639912dde81461006e575b600080fd5b610059610054366004610c43565b61009d565b005b610059610069366004610c7b565b610318565b61008161007c366004610c43565b610765565b6040516001600160a01b03909116815260200160405180910390f35b7fdf8b4c520ffe197c5343c6f5aec59570151ef9a492f2c624fd45ddde6135ec42336100c98282610776565b61011a5760405162461bcd60e51b815260206004820152601d60248201527f416363657373436f6e74726f6c3a206e6f7420617574686f72697a656400000060448201526064015b60405180910390fd5b6000610125846107aa565b6001600160a01b03161461018c5760405162461bcd60e51b815260206004820152602860248201527f54656c6c65723a206c656e64696e6720706f6f6c20616c726561647920696e696044820152671d1a585b1a5e995960c21b6064820152608401610111565b600080600a01546040516327662c6960e11b815260206004820152600060248201526001600160a01b0390911690634ecc58d290604401602060405180830381600087803b1580156101dd57600080fd5b505af11580156101f1573d6000803e3d6000fd5b505050506040513d601f19601f820116820180604052508101906102159190610c5f565b9050806102206107da565b6001600160a01b038681166000908152600892909201602052604090912080546001600160a01b0319169290911691909117905561025c6107da565b6001600160a01b03858116600081815260089390930160205260409283902054925163485cc95560e01b8152336004820152602481019190915291169063485cc95590604401600060405180830381600087803b1580156102bc57600080fd5b505af11580156102d0573d6000803e3d6000fd5b50506040516001600160a01b03871681523392507ff9fd6d57b1aaaeab2bfc4c1ab41e1b4973a5c3e7764d5b499168d1bfa0c2c384915060200160405180910390a250505050565b600080805260016020527fa6eef7e35abe7026729641147f7915573c7e97b47efa546f5f6e3230263bcb49547f5bb6a25286bb8715dc575866da01fccb9319d7c050dc4a550830f9fd153b997c919060ff1615801561038b575060008281526001602052604090205460ff161515811515145b61039482610803565b906103b25760405162461bcd60e51b81526004016101119190610cfa565b507f50e75b23f8ec51bbcb044fe377457e835f3b5ccc7ebf69e80906452015dff607336103df8282610776565b61042b5760405162461bcd60e51b815260206004820152601d60248201527f416363657373436f6e74726f6c3a206e6f7420617574686f72697a65640000006044820152606401610111565b7f5bb6a25286bb8715dc575866da01fccb9319d7c050dc4a550830f9fd153b997c60008190527f7b305b6be5f275f648d05716597c483d754c2a242bd605feba3c64fb853605366020527f9acf82f2b98e95a6c5a3755f118cae333907de1a9d00a07da16fd2a5fc17a30b547f7b305b6be5f275f648d05716597c483d754c2a242bd605feba3c64fb853605349060ff16156105095760405162461bcd60e51b815260206004820152601860248201527f416363657373436f6e74726f6c3a207265656e746572656400000000000000006044820152606401610111565b60008281526002820160205260408120805460ff1916600117905561052d896107aa565b90506001600160a01b0381166105915760405162461bcd60e51b8152602060048201526024808201527f54656c6c65723a206c656e64696e6720706f6f6c206e6f7420696e697469616c6044820152631a5e995960e21b6064820152608401610111565b6001600160a01b03891660009081526003602090815260408083207ff0e040bf5f853fdd88c4452f75a882f5b8b99d9b3c0a3bab632c09493fae80cf845260010190915290205488826001600160a01b031663a95411e06040518163ffffffff1660e01b8152600401602060405180830381600087803b15801561061457600080fd5b505af1158015610628573d6000803e3d6000fd5b505050506040513d601f19601f8201168201806040525081019061064c9190610cc6565b6106569190610d2d565b11156106a45760405162461bcd60e51b815260206004820152601c60248201527f54656c6c65723a206465706f7369742054564c206578636565646564000000006044820152606401610111565b6106b08933308b610868565b6106bb89828a6108d9565b6107458133836001600160a01b031663a0712d688c6040518263ffffffff1660e01b81526004016106ee91815260200190565b602060405180830381600087803b15801561070857600080fd5b505af115801561071c573d6000803e3d6000fd5b505050506040513d601f19601f820116820180604052508101906107409190610cc6565b61099a565b50600091825260020160205260409020805460ff19169055505050505050565b6000610770826107aa565b92915050565b60006107806109cf565b6000938452602090815260408085206001600160a01b039490941685529290525090205460ff1690565b60006107b46107da565b6001600160a01b0392831660009081526008919091016020526040902054909116919050565b60007f0553069f1f0518e59f8623c18c83a1f987f2a0544d563e98dd803a7078142a855b905090565b606081610838576040518060400160405280601081526020016f14185d5cd8589b194e881c185d5cd95960821b815250610770565b505060408051808201909152601481527314185d5cd8589b194e881b9bdd081c185d5cd95960621b602082015290565b6040516001600160a01b03808516602483015283166044820152606481018290526108d39085906323b872dd60e01b906084015b60408051601f198184030181529190526020810180516001600160e01b03166001600160e01b0319909316929092179091526109f7565b50505050565b604051636eb1769f60e11b81523060048201526001600160a01b038381166024830152600091839186169063dd62ed3e9060440160206040518083038186803b15801561092557600080fd5b505afa158015610939573d6000803e3d6000fd5b505050506040513d601f19601f8201168201806040525081019061095d9190610cc6565b6109679190610d2d565b6040516001600160a01b0385166024820152604481018290529091506108d390859063095ea7b360e01b9060640161089c565b6040516001600160a01b0383166024820152604481018290526109ca90849063a9059cbb60e01b9060640161089c565b505050565b60007f7b305b6be5f275f648d05716597c483d754c2a242bd605feba3c64fb853605346107fe565b6000610a4c826040518060400160405280602081526020017f5361666545524332303a206c6f772d6c6576656c2063616c6c206661696c6564815250856001600160a01b0316610ac99092919063ffffffff16565b8051909150156109ca5780806020019051810190610a6a9190610ca6565b6109ca5760405162461bcd60e51b815260206004820152602a60248201527f5361666545524332303a204552433230206f7065726174696f6e20646964206e6044820152691bdd081cdd58d8d9595960b21b6064820152608401610111565b6060610ad88484600085610ae2565b90505b9392505050565b606082471015610b435760405162461bcd60e51b815260206004820152602660248201527f416464726573733a20696e73756666696369656e742062616c616e636520666f6044820152651c8818d85b1b60d21b6064820152608401610111565b843b610b915760405162461bcd60e51b815260206004820152601d60248201527f416464726573733a2063616c6c20746f206e6f6e2d636f6e74726163740000006044820152606401610111565b600080866001600160a01b03168587604051610bad9190610cde565b60006040518083038185875af1925050503d8060008114610bea576040519150601f19603f3d011682016040523d82523d6000602084013e610bef565b606091505b5091509150610bff828286610c0a565b979650505050505050565b60608315610c19575081610adb565b825115610c295782518084602001fd5b8160405162461bcd60e51b81526004016101119190610cfa565b600060208284031215610c54578081fd5b8135610adb81610d7d565b600060208284031215610c70578081fd5b8151610adb81610d7d565b60008060408385031215610c8d578081fd5b8235610c9881610d7d565b946020939093013593505050565b600060208284031215610cb7578081fd5b81518015158114610adb578182fd5b600060208284031215610cd7578081fd5b5051919050565b60008251610cf0818460208701610d51565b9190910192915050565b6000602082528251806020840152610d19816040850160208701610d51565b601f01601f19169190910160400192915050565b60008219821115610d4c57634e487b7160e01b81526011600452602481fd5b500190565b60005b83811015610d6c578181015183820152602001610d54565b838111156108d35750506000910152565b6001600160a01b0381168114610d9257600080fd5b5056fea2646970667358221220451d1429a52a47ad7400e3c9af764043c1ccacf078feff9896230dee6e3fd14664736f6c63430008030033",
      "deployedBytecode": "0x608060405234801561001057600080fd5b50600436106100415760003560e01c80635a601668146100465780638a4f4f921461005b5780639912dde81461006e575b600080fd5b610059610054366004610c43565b61009d565b005b610059610069366004610c7b565b610318565b61008161007c366004610c43565b610765565b6040516001600160a01b03909116815260200160405180910390f35b7fdf8b4c520ffe197c5343c6f5aec59570151ef9a492f2c624fd45ddde6135ec42336100c98282610776565b61011a5760405162461bcd60e51b815260206004820152601d60248201527f416363657373436f6e74726f6c3a206e6f7420617574686f72697a656400000060448201526064015b60405180910390fd5b6000610125846107aa565b6001600160a01b03161461018c5760405162461bcd60e51b815260206004820152602860248201527f54656c6c65723a206c656e64696e6720706f6f6c20616c726561647920696e696044820152671d1a585b1a5e995960c21b6064820152608401610111565b600080600a01546040516327662c6960e11b815260206004820152600060248201526001600160a01b0390911690634ecc58d290604401602060405180830381600087803b1580156101dd57600080fd5b505af11580156101f1573d6000803e3d6000fd5b505050506040513d601f19601f820116820180604052508101906102159190610c5f565b9050806102206107da565b6001600160a01b038681166000908152600892909201602052604090912080546001600160a01b0319169290911691909117905561025c6107da565b6001600160a01b03858116600081815260089390930160205260409283902054925163485cc95560e01b8152336004820152602481019190915291169063485cc95590604401600060405180830381600087803b1580156102bc57600080fd5b505af11580156102d0573d6000803e3d6000fd5b50506040516001600160a01b03871681523392507ff9fd6d57b1aaaeab2bfc4c1ab41e1b4973a5c3e7764d5b499168d1bfa0c2c384915060200160405180910390a250505050565b600080805260016020527fa6eef7e35abe7026729641147f7915573c7e97b47efa546f5f6e3230263bcb49547f5bb6a25286bb8715dc575866da01fccb9319d7c050dc4a550830f9fd153b997c919060ff1615801561038b575060008281526001602052604090205460ff161515811515145b61039482610803565b906103b25760405162461bcd60e51b81526004016101119190610cfa565b507f50e75b23f8ec51bbcb044fe377457e835f3b5ccc7ebf69e80906452015dff607336103df8282610776565b61042b5760405162461bcd60e51b815260206004820152601d60248201527f416363657373436f6e74726f6c3a206e6f7420617574686f72697a65640000006044820152606401610111565b7f5bb6a25286bb8715dc575866da01fccb9319d7c050dc4a550830f9fd153b997c60008190527f7b305b6be5f275f648d05716597c483d754c2a242bd605feba3c64fb853605366020527f9acf82f2b98e95a6c5a3755f118cae333907de1a9d00a07da16fd2a5fc17a30b547f7b305b6be5f275f648d05716597c483d754c2a242bd605feba3c64fb853605349060ff16156105095760405162461bcd60e51b815260206004820152601860248201527f416363657373436f6e74726f6c3a207265656e746572656400000000000000006044820152606401610111565b60008281526002820160205260408120805460ff1916600117905561052d896107aa565b90506001600160a01b0381166105915760405162461bcd60e51b8152602060048201526024808201527f54656c6c65723a206c656e64696e6720706f6f6c206e6f7420696e697469616c6044820152631a5e995960e21b6064820152608401610111565b6001600160a01b03891660009081526003602090815260408083207ff0e040bf5f853fdd88c4452f75a882f5b8b99d9b3c0a3bab632c09493fae80cf845260010190915290205488826001600160a01b031663a95411e06040518163ffffffff1660e01b8152600401602060405180830381600087803b15801561061457600080fd5b505af1158015610628573d6000803e3d6000fd5b505050506040513d601f19601f8201168201806040525081019061064c9190610cc6565b6106569190610d2d565b11156106a45760405162461bcd60e51b815260206004820152601c60248201527f54656c6c65723a206465706f7369742054564c206578636565646564000000006044820152606401610111565b6106b08933308b610868565b6106bb89828a6108d9565b6107458133836001600160a01b031663a0712d688c6040518263ffffffff1660e01b81526004016106ee91815260200190565b602060405180830381600087803b15801561070857600080fd5b505af115801561071c573d6000803e3d6000fd5b505050506040513d601f19601f820116820180604052508101906107409190610cc6565b61099a565b50600091825260020160205260409020805460ff19169055505050505050565b6000610770826107aa565b92915050565b60006107806109cf565b6000938452602090815260408085206001600160a01b039490941685529290525090205460ff1690565b60006107b46107da565b6001600160a01b0392831660009081526008919091016020526040902054909116919050565b60007f0553069f1f0518e59f8623c18c83a1f987f2a0544d563e98dd803a7078142a855b905090565b606081610838576040518060400160405280601081526020016f14185d5cd8589b194e881c185d5cd95960821b815250610770565b505060408051808201909152601481527314185d5cd8589b194e881b9bdd081c185d5cd95960621b602082015290565b6040516001600160a01b03808516602483015283166044820152606481018290526108d39085906323b872dd60e01b906084015b60408051601f198184030181529190526020810180516001600160e01b03166001600160e01b0319909316929092179091526109f7565b50505050565b604051636eb1769f60e11b81523060048201526001600160a01b038381166024830152600091839186169063dd62ed3e9060440160206040518083038186803b15801561092557600080fd5b505afa158015610939573d6000803e3d6000fd5b505050506040513d601f19601f8201168201806040525081019061095d9190610cc6565b6109679190610d2d565b6040516001600160a01b0385166024820152604481018290529091506108d390859063095ea7b360e01b9060640161089c565b6040516001600160a01b0383166024820152604481018290526109ca90849063a9059cbb60e01b9060640161089c565b505050565b60007f7b305b6be5f275f648d05716597c483d754c2a242bd605feba3c64fb853605346107fe565b6000610a4c826040518060400160405280602081526020017f5361666545524332303a206c6f772d6c6576656c2063616c6c206661696c6564815250856001600160a01b0316610ac99092919063ffffffff16565b8051909150156109ca5780806020019051810190610a6a9190610ca6565b6109ca5760405162461bcd60e51b815260206004820152602a60248201527f5361666545524332303a204552433230206f7065726174696f6e20646964206e6044820152691bdd081cdd58d8d9595960b21b6064820152608401610111565b6060610ad88484600085610ae2565b90505b9392505050565b606082471015610b435760405162461bcd60e51b815260206004820152602660248201527f416464726573733a20696e73756666696369656e742062616c616e636520666f6044820152651c8818d85b1b60d21b6064820152608401610111565b843b610b915760405162461bcd60e51b815260206004820152601d60248201527f416464726573733a2063616c6c20746f206e6f6e2d636f6e74726163740000006044820152606401610111565b600080866001600160a01b03168587604051610bad9190610cde565b60006040518083038185875af1925050503d8060008114610bea576040519150601f19603f3d011682016040523d82523d6000602084013e610bef565b606091505b5091509150610bff828286610c0a565b979650505050505050565b60608315610c19575081610adb565b825115610c295782518084602001fd5b8160405162461bcd60e51b81526004016101119190610cfa565b600060208284031215610c54578081fd5b8135610adb81610d7d565b600060208284031215610c70578081fd5b8151610adb81610d7d565b60008060408385031215610c8d578081fd5b8235610c9881610d7d565b946020939093013593505050565b600060208284031215610cb7578081fd5b81518015158114610adb578182fd5b600060208284031215610cd7578081fd5b5051919050565b60008251610cf0818460208701610d51565b9190910192915050565b6000602082528251806020840152610d19816040850160208701610d51565b601f01601f19169190910160400192915050565b60008219821115610d4c57634e487b7160e01b81526011600452602481fd5b500190565b60005b83811015610d6c578181015183820152602001610d54565b838111156108d35750506000910152565b6001600160a01b0381168114610d9257600080fd5b5056fea2646970667358221220451d1429a52a47ad7400e3c9af764043c1ccacf078feff9896230dee6e3fd14664736f6c63430008030033",
      "devdoc": {
        "events": {
          "LendingPoolInitialized(address,address)": {
            "params": {
              "asset": "Token address the pool was initialized for.",
              "sender": "address."
            }
          }
        },
        "kind": "dev",
        "methods": {
          "getTTokenFor(address)": {
            "params": {
              "asset": "Address to get a Teller Token for."
            }
          },
          "initLendingPool(address)": {
            "params": {
              "asset": "Token address to initialize the lending pool for."
            }
          },
          "lendingPoolDeposit(address,uint256)": {
            "details": "the user must call ERC20.approve function previously.If the cToken is available (not 0x0), it deposits the lending asset amount into Compound directly.",
            "params": {
              "amount": "Amount of {asset} to deposit in the pool.",
              "asset": "Token address to deposit into the lending pool."
            }
          }
        },
        "version": 1
      },
      "userdoc": {
        "events": {
          "LendingPoolInitialized(address,address)": {
            "notice": "This event is emitted when a new lending pool is initialized."
          }
        },
        "kind": "user",
        "methods": {
          "getTTokenFor(address)": {
            "notice": "Get the Teller Token address for an underlying asset."
          },
          "initLendingPool(address)": {
            "notice": "Initialized a new lending pool for {asset}"
          },
          "lendingPoolDeposit(address,uint256)": {
            "notice": "It allows users to deposit tokens into the pool."
          }
        },
        "version": 1
      },
      "storageLayout": {
        "storage": [],
        "types": null
      }
    }
  ],
  "devdoc": {
    "events": {
      "LendingPoolInitialized(address,address)": {
        "params": {
          "asset": "Token address the pool was initialized for.",
          "sender": "address."
        }
      }
    },
    "kind": "dev",
    "methods": {
      "getTTokenFor(address)": {
        "params": {
          "asset": "Address to get a Teller Token for."
        }
      },
      "initLendingPool(address)": {
        "params": {
          "asset": "Token address to initialize the lending pool for."
        }
      },
      "lendingPoolDeposit(address,uint256)": {
        "details": "the user must call ERC20.approve function previously.If the cToken is available (not 0x0), it deposits the lending asset amount into Compound directly.",
        "params": {
          "amount": "Amount of {asset} to deposit in the pool.",
          "asset": "Token address to deposit into the lending pool."
        }
      }
    },
    "version": 1
  },
  "userdoc": {
    "events": {
      "LendingPoolInitialized(address,address)": {
        "notice": "This event is emitted when a new lending pool is initialized."
      }
    },
    "kind": "user",
    "methods": {
      "getTTokenFor(address)": {
        "notice": "Get the Teller Token address for an underlying asset."
      },
      "initLendingPool(address)": {
        "notice": "It initializes a new lending pool for the respective token"
      },
      "lendingPoolDeposit(address,uint256)": {
        "notice": "It allows users to deposit tokens into the pool."
      }
    },
    "version": 1
  },
  "storageLayout": {
    "storage": [],
    "types": null
  }
}