{
  "address": "0x4b6C2263c94b7E5d16d0548DA328075E177F957A",
  "abi": [
    {
      "inputs": [],
      "name": "LOAN_DATA_LOGIC_NAME",
      "outputs": [
        {
          "internalType": "bytes32",
          "name": "",
          "type": "bytes32"
        }
      ],
      "stateMutability": "view",
      "type": "function"
    },
    {
      "inputs": [],
      "name": "LOAN_TERMS_CONSENSUS_LOGIC_NAME",
      "outputs": [
        {
          "internalType": "bytes32",
          "name": "",
          "type": "bytes32"
        }
      ],
      "stateMutability": "view",
      "type": "function"
    },
    {
      "inputs": [],
      "name": "_updateImplementationStored",
      "outputs": [],
      "stateMutability": "nonpayable",
      "type": "function"
    },
    {
      "inputs": [
        {
          "internalType": "address",
          "name": "account",
          "type": "address"
        }
      ],
      "name": "addSigner",
      "outputs": [],
      "stateMutability": "nonpayable",
      "type": "function"
    },
    {
      "inputs": [
        {
          "internalType": "address[]",
          "name": "accounts",
          "type": "address[]"
        }
      ],
      "name": "addSigners",
      "outputs": [],
      "stateMutability": "nonpayable",
      "type": "function"
    },
    {
      "inputs": [],
      "name": "assetSettings",
      "outputs": [
        {
          "internalType": "contract AssetSettingsInterface",
          "name": "",
          "type": "address"
        }
      ],
      "stateMutability": "view",
      "type": "function"
    },
    {
      "inputs": [
        {
          "internalType": "uint256",
          "name": "loanId",
          "type": "uint256"
        }
      ],
      "name": "borrowedAmount",
      "outputs": [
        {
          "internalType": "uint256",
          "name": "",
          "type": "uint256"
        }
      ],
      "stateMutability": "view",
      "type": "function"
    },
    {
      "inputs": [],
      "name": "cToken",
      "outputs": [
        {
          "internalType": "contract CErc20Interface",
          "name": "",
          "type": "address"
        }
      ],
      "stateMutability": "view",
      "type": "function"
    },
    {
      "inputs": [
        {
          "internalType": "uint256",
          "name": "loanId",
          "type": "uint256"
        }
      ],
      "name": "collateral",
      "outputs": [
        {
          "internalType": "uint256",
          "name": "",
          "type": "uint256"
        }
      ],
      "stateMutability": "view",
      "type": "function"
    },
    {
      "inputs": [],
      "name": "collateralToken",
      "outputs": [
        {
          "internalType": "address",
          "name": "",
          "type": "address"
        }
      ],
      "stateMutability": "view",
      "type": "function"
    },
    {
      "inputs": [
        {
          "internalType": "uint256",
          "name": "loanId",
          "type": "uint256"
        }
      ],
      "name": "escrow",
      "outputs": [
        {
          "internalType": "address",
          "name": "",
          "type": "address"
        }
      ],
      "stateMutability": "view",
      "type": "function"
    },
    {
      "inputs": [],
      "name": "implementationStored",
      "outputs": [
        {
          "internalType": "address",
          "name": "",
          "type": "address"
        }
      ],
      "stateMutability": "view",
      "type": "function"
    },
    {
      "inputs": [
        {
          "internalType": "uint256",
          "name": "loanId",
          "type": "uint256"
        }
      ],
      "name": "interestOwed",
      "outputs": [
        {
          "internalType": "uint256",
          "name": "",
          "type": "uint256"
        }
      ],
      "stateMutability": "view",
      "type": "function"
    },
    {
      "inputs": [
        {
          "internalType": "uint256",
          "name": "loanId",
          "type": "uint256"
        }
      ],
      "name": "lastCollateralIn",
      "outputs": [
        {
          "internalType": "uint256",
          "name": "",
          "type": "uint256"
        }
      ],
      "stateMutability": "view",
      "type": "function"
    },
    {
      "inputs": [],
      "name": "lendingPool",
      "outputs": [
        {
          "internalType": "contract LendingPoolInterface",
          "name": "",
          "type": "address"
        }
      ],
      "stateMutability": "view",
      "type": "function"
    },
    {
      "inputs": [],
      "name": "lendingToken",
      "outputs": [
        {
          "internalType": "address",
          "name": "",
          "type": "address"
        }
      ],
      "stateMutability": "view",
      "type": "function"
    },
    {
      "inputs": [
        {
          "internalType": "uint256",
          "name": "loanId",
          "type": "uint256"
        }
      ],
      "name": "liquidated",
      "outputs": [
        {
          "internalType": "bool",
          "name": "",
          "type": "bool"
        }
      ],
      "stateMutability": "view",
      "type": "function"
    },
    {
      "inputs": [],
      "name": "loanIDCounter",
      "outputs": [
        {
          "internalType": "uint256",
          "name": "",
          "type": "uint256"
        }
      ],
      "stateMutability": "view",
      "type": "function"
    },
    {
      "inputs": [
        {
          "internalType": "uint256",
          "name": "loanId",
          "type": "uint256"
        }
      ],
      "name": "loanStartTime",
      "outputs": [
        {
          "internalType": "uint256",
          "name": "",
          "type": "uint256"
        }
      ],
      "stateMutability": "view",
      "type": "function"
    },
    {
      "inputs": [
        {
          "internalType": "uint256",
          "name": "loanId",
          "type": "uint256"
        }
      ],
      "name": "loanTerms",
      "outputs": [
        {
          "components": [
            {
              "internalType": "address payable",
              "name": "borrower",
              "type": "address"
            },
            {
              "internalType": "address",
              "name": "recipient",
              "type": "address"
            },
            {
              "internalType": "uint256",
              "name": "interestRate",
              "type": "uint256"
            },
            {
              "internalType": "uint256",
              "name": "collateralRatio",
              "type": "uint256"
            },
            {
              "internalType": "uint256",
              "name": "maxLoanAmount",
              "type": "uint256"
            },
            {
              "internalType": "uint256",
              "name": "duration",
              "type": "uint256"
            }
          ],
          "internalType": "struct TellerCommon.LoanTerms",
          "name": "",
          "type": "tuple"
        }
      ],
      "stateMutability": "view",
      "type": "function"
    },
    {
      "inputs": [
        {
          "internalType": "uint256",
          "name": "",
          "type": "uint256"
        }
      ],
      "name": "loans",
      "outputs": [
        {
          "internalType": "uint256",
          "name": "id",
          "type": "uint256"
        },
        {
          "components": [
            {
              "internalType": "address payable",
              "name": "borrower",
              "type": "address"
            },
            {
              "internalType": "address",
              "name": "recipient",
              "type": "address"
            },
            {
              "internalType": "uint256",
              "name": "interestRate",
              "type": "uint256"
            },
            {
              "internalType": "uint256",
              "name": "collateralRatio",
              "type": "uint256"
            },
            {
              "internalType": "uint256",
              "name": "maxLoanAmount",
              "type": "uint256"
            },
            {
              "internalType": "uint256",
              "name": "duration",
              "type": "uint256"
            }
          ],
          "internalType": "struct TellerCommon.LoanTerms",
          "name": "loanTerms",
          "type": "tuple"
        },
        {
          "internalType": "uint256",
          "name": "termsExpiry",
          "type": "uint256"
        },
        {
          "internalType": "uint256",
          "name": "loanStartTime",
          "type": "uint256"
        },
        {
          "internalType": "uint256",
          "name": "collateral",
          "type": "uint256"
        },
        {
          "internalType": "uint256",
          "name": "lastCollateralIn",
          "type": "uint256"
        },
        {
          "internalType": "uint256",
          "name": "principalOwed",
          "type": "uint256"
        },
        {
          "internalType": "uint256",
          "name": "interestOwed",
          "type": "uint256"
        },
        {
          "internalType": "uint256",
          "name": "borrowedAmount",
          "type": "uint256"
        },
        {
          "internalType": "address",
          "name": "escrow",
          "type": "address"
        },
        {
          "internalType": "enum TellerCommon.LoanStatus",
          "name": "status",
          "type": "uint8"
        },
        {
          "internalType": "bool",
          "name": "liquidated",
          "type": "bool"
        }
      ],
      "stateMutability": "view",
      "type": "function"
    },
    {
      "inputs": [],
      "name": "logicName",
      "outputs": [
        {
          "internalType": "bytes32",
          "name": "",
          "type": "bytes32"
        }
      ],
      "stateMutability": "view",
      "type": "function"
    },
    {
      "inputs": [],
      "name": "logicRegistry",
      "outputs": [
        {
          "internalType": "contract LogicVersionsRegistryInterface",
          "name": "",
          "type": "address"
        }
      ],
      "stateMutability": "view",
      "type": "function"
    },
    {
      "inputs": [
        {
          "internalType": "uint256",
          "name": "loanId",
          "type": "uint256"
        }
      ],
      "name": "principalOwed",
      "outputs": [
        {
          "internalType": "uint256",
          "name": "",
          "type": "uint256"
        }
      ],
      "stateMutability": "view",
      "type": "function"
    },
    {
      "inputs": [
        {
          "components": [
            {
              "internalType": "address payable",
              "name": "borrower",
              "type": "address"
            },
            {
              "internalType": "address",
              "name": "recipient",
              "type": "address"
            },
            {
              "internalType": "address",
              "name": "consensusAddress",
              "type": "address"
            },
            {
              "internalType": "uint256",
              "name": "requestNonce",
              "type": "uint256"
            },
            {
              "internalType": "uint256",
              "name": "amount",
              "type": "uint256"
            },
            {
              "internalType": "uint256",
              "name": "duration",
              "type": "uint256"
            },
            {
              "internalType": "uint256",
              "name": "requestTime",
              "type": "uint256"
            }
          ],
          "internalType": "struct TellerCommon.LoanRequest",
          "name": "request",
          "type": "tuple"
        },
        {
          "components": [
            {
              "internalType": "address",
              "name": "signer",
              "type": "address"
            },
            {
              "internalType": "address",
              "name": "consensusAddress",
              "type": "address"
            },
            {
              "internalType": "uint256",
              "name": "responseTime",
              "type": "uint256"
            },
            {
              "internalType": "uint256",
              "name": "interestRate",
              "type": "uint256"
            },
            {
              "internalType": "uint256",
              "name": "collateralRatio",
              "type": "uint256"
            },
            {
              "internalType": "uint256",
              "name": "maxLoanAmount",
              "type": "uint256"
            },
            {
              "components": [
                {
                  "internalType": "uint8",
                  "name": "v",
                  "type": "uint8"
                },
                {
                  "internalType": "bytes32",
                  "name": "r",
                  "type": "bytes32"
                },
                {
                  "internalType": "bytes32",
                  "name": "s",
                  "type": "bytes32"
                }
              ],
              "internalType": "struct TellerCommon.Signature",
              "name": "signature",
              "type": "tuple"
            }
          ],
          "internalType": "struct TellerCommon.LoanResponse[]",
          "name": "responses",
          "type": "tuple[]"
        }
      ],
      "name": "processLoanTerms",
      "outputs": [
        {
          "internalType": "uint256",
          "name": "interestRate",
          "type": "uint256"
        },
        {
          "internalType": "uint256",
          "name": "collateralRatio",
          "type": "uint256"
        },
        {
          "internalType": "uint256",
          "name": "maxLoanAmount",
          "type": "uint256"
        }
      ],
      "stateMutability": "view",
      "type": "function"
    },
    {
      "inputs": [
        {
          "internalType": "address",
          "name": "account",
          "type": "address"
        }
      ],
      "name": "removeSigner",
      "outputs": [],
      "stateMutability": "nonpayable",
      "type": "function"
    },
    {
      "inputs": [],
      "name": "settings",
      "outputs": [
        {
          "internalType": "contract SettingsInterface",
          "name": "",
          "type": "address"
        }
      ],
      "stateMutability": "view",
      "type": "function"
    },
    {
      "inputs": [
        {
          "internalType": "uint256",
          "name": "loanId",
          "type": "uint256"
        }
      ],
      "name": "status",
      "outputs": [
        {
          "internalType": "enum TellerCommon.LoanStatus",
          "name": "",
          "type": "uint8"
        }
      ],
      "stateMutability": "view",
      "type": "function"
    },
    {
      "inputs": [],
      "name": "strictDynamic",
      "outputs": [
        {
          "internalType": "bool",
          "name": "",
          "type": "bool"
        }
      ],
      "stateMutability": "view",
      "type": "function"
    },
    {
      "inputs": [
        {
          "internalType": "uint256",
          "name": "loanId",
          "type": "uint256"
        }
      ],
      "name": "termsExpiry",
      "outputs": [
        {
          "internalType": "uint256",
          "name": "",
          "type": "uint256"
        }
      ],
      "stateMutability": "view",
      "type": "function"
    },
    {
      "inputs": [],
      "name": "totalCollateral",
      "outputs": [
        {
          "internalType": "uint256",
          "name": "",
          "type": "uint256"
        }
      ],
      "stateMutability": "view",
      "type": "function"
    },
    {
      "inputs": [
        {
          "internalType": "address",
          "name": "newImplementation",
          "type": "address"
        }
      ],
      "name": "upgradeProxyTo",
      "outputs": [],
      "stateMutability": "nonpayable",
      "type": "function"
    }
  ],
  "transactionHash": "0x446ba3b04cdb4ec0a291409bcc7f518ff7996b095ba7cab0542551af1b50de31",
  "args": [],
  "solcInputHash": "0c80e7fb8aff27a671cb2892ea4bafd6",
  "bytecode": "0x608060405234801561001057600080fd5b50611f08806100206000396000f3fe608060405234801561001057600080fd5b50600436106101f05760003560e01c806369e527da1161010f578063e06174e4116100a2578063eb12d61e11610071578063eb12d61e146105c6578063eb78303b146105d9578063fdf6e4ea14610607578063fec688941461062a576101f0565b8063e06174e4146104b5578063e154e9a4146104c8578063e1ec3c68146104d5578063e8906a2d146105b3576101f0565b8063b2016bd4116100de578063b2016bd41461043c578063b3076d001461044f578063b678050714610462578063d68ff19114610489576101f0565b806369e527da146103e3578063a59a9973146103f6578063aaaca55814610409578063b10b8a2c1461041c576101f0565b806342d21ef7116101875780635134845411610156578063513484541461036757806352d07b3b1461037057806355dbd8eb146103935780635ea2a2cf146103a6576101f0565b806342d21ef7146102e95780634a26a71b146103235780634ac8eb5f146103465780634f8654bc1461034f576101f0565b80632c26486d116101c35780632c26486d1461026b57806337c3eedc1461027457806338c72f691461029f5780633b1f18dd146102c6576101f0565b806304b0c79b146101f55780630e316ab71461022b57806310780bed146102405780631eb83d5414610263575b600080fd5b610218610203366004611c05565b6000908152600f60205260409020600d015490565b6040519081526020015b60405180910390f35b61023e6102393660046119ac565b61064d565b005b61021861024e366004611c05565b6000908152600f60205260409020600c015490565b61023e6106b5565b61021860015481565b600054610287906001600160a01b031681565b6040516001600160a01b039091168152602001610222565b6102187f698a3c07617049c2f15d3f96333af3d44fbf5976ff9ca8e1df2e46ac61ce155a81565b6102186102d4366004611c05565b6000908152600f602052604090206009015490565b6103166102f7366004611c05565b6000908152600f60205260409020600e0154600160a01b900460ff1690565b6040516102229190611cd4565b610218610331366004611c05565b6000908152600f602052604090206008015490565b61021860105481565b6002546102879061010090046001600160a01b031681565b61021860165481565b61021861037e366004611c05565b6000908152600f60205260409020600b015490565b61023e6103a13660046119ac565b610784565b6103d36103b4366004611c05565b6000908152600f60205260409020600e0154600160a81b900460ff1690565b6040519015158152602001610222565b601454610287906001600160a01b031681565b601154610287906001600160a01b031681565b601254610287906001600160a01b031681565b61042f61042a366004611c05565b610808565b6040516102229190611d35565b601354610287906001600160a01b031681565b601c54610287906001600160a01b031681565b6102187f87ff11116505b975498f87d319b3b9d631d98e48aa48a4655041faecc8d805ac81565b610287610497366004611c05565b6000908152600f60205260409020600e01546001600160a01b031690565b600454610287906001600160a01b031681565b6002546103d39060ff1681565b61059b6104e3366004611c05565b600f602090815260009182526040918290208054835160c08101855260018301546001600160a01b03908116825260028401548116948201949094526003830154948101949094526004820154606085015260058201546080850152600682015460a0850152600782015460088301546009840154600a850154600b860154600c870154600d880154600e9098015496999895979496939592949193909281169060ff600160a01b8204811691600160a81b9004168c565b6040516102229c9b9a99989796959493929190611d43565b61023e6105c13660046119cf565b6108b9565b61023e6105d43660046119ac565b61097a565b6105ec6105e7366004611a3f565b6109df565b60408051938452602084019290925290820152606001610222565b610218610615366004611c05565b6000908152600f60205260409020600a015490565b610218610638366004611c05565b6000908152600f602052604090206007015490565b6004805460405163c095ea2760e01b815233928101929092526001600160a01b03169063c095ea279060240160006040518083038186803b15801561069157600080fd5b505afa1580156106a5573d6000803e3d6000fd5b505050506106b281610fe4565b50565b60008054600154604051638b51f58b60e01b81526001600160a01b0390921691638b51f58b916106eb9160040190815260200190565b60606040518083038186803b15801561070357600080fd5b505afa158015610717573d6000803e3d6000fd5b505050506040513d601f19601f8201168201806040525081019061073b9190611c35565b6002549093506001600160a01b038085166101009092041614915061077d90505760028054610100600160a81b0319166101006001600160a01b038416021790555b5043600355565b6000546001600160a01b031633146107dc5760405162461bcd60e51b81526020600482015260166024820152754d5553545f42455f4c4f4749435f524547495354525960501b60448201526064015b60405180910390fd5b600280546001600160a01b0390921661010002610100600160a81b031990921691909117905543600355565b6108536040518060c0016040528060006001600160a01b0316815260200160006001600160a01b03168152602001600081526020016000815260200160008152602001600081525090565b6000828152600f602052604090206040805160c08101825260018301546001600160a01b0390811682526002840154166020820152600383015491810191909152600482015460608201526005820154608082015260069091015460a082015292915050565b6004805460405163c095ea2760e01b815233928101929092526001600160a01b03169063c095ea279060240160006040518083038186803b1580156108fd57600080fd5b505afa158015610911573d6000803e3d6000fd5b5050505060005b8181101561097557600083838381811061094257634e487b7160e01b600052603260045260246000fd5b905060200201602081019061095791906119ac565b905061096281610fef565b508061096d81611e6c565b915050610918565b505050565b6004805460405163c095ea2760e01b815233928101929092526001600160a01b03169063c095ea279060240160006040518083038186803b1580156109be57600080fd5b505afa1580156109d2573d6000803e3d6000fd5b505050506106b281610fef565b6000806000848490506000600460009054906101000a90046001600160a01b03166001600160a01b031663eb0febe76040518163ffffffff1660e01b815260040160206040518083038186803b158015610a3857600080fd5b505afa158015610a4c573d6000803e3d6000fd5b505050506040513d601f19601f82011682018060405250810190610a709190611c1d565b6017549091508190610a8390849061100b565b1015610ad15760405162461bcd60e51b815260206004820181905260248201527f494e53554646494349454e545f4e554d4245525f4f465f524553504f4e53455360448201526064016107d3565b6000610ae060208a018a6119ac565b9050610af0818a6060013561102c565b30610b0160608b0160408c016119ac565b6001600160a01b031614610b4f5760405162461bcd60e51b81526020600482015260156024820152744241445f434f4e53454e5355535f4144445245535360581b60448201526064016107d3565b466000610b6a610b64368d90038d018d611ac9565b836111b7565b90506000600460009054906101000a90046001600160a01b03166001600160a01b031663f4f0d9736040518163ffffffff1660e01b815260040160206040518083038186803b158015610bbc57600080fd5b505afa158015610bd0573d6000803e3d6000fd5b505050506040513d601f19601f82011682018060405250810190610bf49190611c1d565b9050610bfe611911565b60005b8b811015610f185760008d8d83818110610c2b57634e487b7160e01b600052603260045260246000fd5b90506101200201803603810190610c429190611b4b565b9050610c51816000015161124e565b610c8a5760405162461bcd60e51b815260206004820152600a6024820152692727aa2fa9a4a3a722a960b11b60448201526064016107d3565b8e6040016020810190610c9d91906119ac565b6001600160a01b031681602001516001600160a01b031614610d015760405162461bcd60e51b815260206004820152601a60248201527f434f4e53454e5355535f414444524553535f4d49534d4154434800000000000060448201526064016107d3565b60005b828160ff161015610dc0578e8e8260ff16818110610d3257634e487b7160e01b600052603260045260246000fd5b610d499260206101209092020190810191506119ac565b6001600160a01b031682600001516001600160a01b03161415610dae5760405162461bcd60e51b815260206004820152601860248201527f5349474e45525f414c52454144595f5355424d4954544544000000000000000060448201526064016107d3565b80610db881611e87565b915050610d04565b50610dcb4285611262565b81604001511015610e115760405162461bcd60e51b815260206004820152601060248201526f149154d413d394d157d156141254915160821b60448201526064016107d3565b60208082015160408084015160608086015160808088015160a0808a015187516001600160a01b03909916898b0152888801969096529387019290925285015283015260c0820189905260e08083018990528151808403909101815261010090920190528051910120610e8d8260c0015182846000015161126e565b610ecd5760405162461bcd60e51b815260206004820152601160248201527014d251d3905515549157d2539590531251607a1b60448201526064016107d3565b60608201518451610edd916112ef565b60808201516020850151610ef0916112ef565b60a08201516040850151610f03916112ef565b50508080610f1090611e6c565b915050610c01565b506000600460009054906101000a90046001600160a01b03166001600160a01b031663d8756fea6040518163ffffffff1660e01b815260040160206040518083038186803b158015610f6957600080fd5b505afa158015610f7d573d6000803e3d6000fd5b505050506040513d601f19601f82011682018060405250810190610fa19190611c1d565b9050610fb1826000015182611348565b9a50610fc1826020015182611348565b9950610fd1826040015182611348565b9850505050505050505093509350939050565b6106b26017826113a0565b610ff88161124e565b6106b2576110076017826113c7565b5050565b60006110238261101d856127106114cd565b906114d9565b90505b92915050565b6001600160a01b038216600090815260156020526040902080548281146110815760405162461bcd60e51b81526020600482015260096024820152684241445f4e4f4e434560b81b60448201526064016107d3565b8061108d575050611007565b600480546040805163025b773360e41b815290514293611163936001600160a01b0316926325b773309281830192602092829003018186803b1580156110d257600080fd5b505afa1580156110e6573d6000803e3d6000fd5b505050506040513d601f19601f8201168201806040525081019061110a9190611c1d565b600f60008661111a600188611e55565b8154811061113857634e487b7160e01b600052603260045260246000fd5b90600052602060002001548152602001908152602001600020600801546114e590919063ffffffff16565b11156111b15760405162461bcd60e51b815260206004820152601f60248201527f524551535f4c4f414e5f5445524d535f4c4d545f455843454544535f4d41580060448201526064016107d3565b50505050565b81516020808401516040808601516060870151608088015160a089015160c08a0151945160009861123098909796918b91016001600160a01b03988916815296881660208801529490961660408601526060850192909252608084015260a083015260c082019290925260e08101919091526101000190565b60405160208183030381529060405280519060200120905092915050565b600061125b6017836114f1565b5092915050565b60006110238284611e55565b6040517f19457468657265756d205369676e6564204d6573736167653a0a3332000000006020820152603c81018390526000906112d290605c016040516020818303038152906040528051906020012085600001518660200151876040015161155e565b6001600160a01b0316826001600160a01b03161490509392505050565b808260200151101561130357602082018190525b808260400151118061131457508151155b1561132157604082018190525b606082015161133090826114e5565b606083015281516113429060016114e5565b90915250565b60006113548383611707565b6113975760405162461bcd60e51b8152602060048201526014602482015273149154d413d394d154d7d513d3d7d5905492515160621b60448201526064016107d3565b61102383611794565b6000806113ad84846114f1565b91509150816113bd575050611007565b6111b184826117c6565b600061141a6040518060400160405280601981526020017f454d5054595f414444524553535f4e4f545f414c4c4f57454400000000000000815250836001600160a01b03166118c690919063ffffffff16565b600061142684846114f1565b50905080156114685760405162461bcd60e51b815260206004820152600e60248201526d414444524553535f45584953545360901b60448201526064016107d3565b83546001808201865560008681526020902090910180546001600160a01b0319166001600160a01b03861617905561149e855490565b6114a89190611e55565b6001600160a01b03909316600090815260019094016020525050604090912081905590565b60006110238284611e36565b60006110238284611e16565b60006110238284611dfe565b815460009081901561155757506001600160a01b0382166000818152600185016020526040902054845490919085908390811061153e57634e487b7160e01b600052603260045260246000fd5b6000918252602090912001546001600160a01b03161491505b9250929050565b60007f7fffffffffffffffffffffffffffffff5d576e7357a4501ddfe92f46681b20a08211156115db5760405162461bcd60e51b815260206004820152602260248201527f45434453413a20696e76616c6964207369676e6174757265202773272076616c604482015261756560f01b60648201526084016107d3565b8360ff16601b14806115f057508360ff16601c145b6116475760405162461bcd60e51b815260206004820152602260248201527f45434453413a20696e76616c6964207369676e6174757265202776272076616c604482015261756560f01b60648201526084016107d3565b6040805160008082526020820180845288905260ff871692820192909252606081018590526080810184905260019060a0016020604051602081039080840390855afa15801561169b573d6000803e3d6000fd5b5050604051601f1901519150506001600160a01b0381166116fe5760405162461bcd60e51b815260206004820152601860248201527f45434453413a20696e76616c6964207369676e6174757265000000000000000060448201526064016107d3565b95945050505050565b6000611712836118ee565b1561171f57506000611026565b600061172a84611794565b9050600061173882856118ff565b905060006117468383611262565b905080866040015110156117605760009350505050611026565b600061176c84846114e5565b90508087602001511115611787576000945050505050611026565b5060019695505050505050565b600061179f826118ee565b6117be576117b96117ae835190565b6060840151906114d9565b611026565b600092915050565b815481106117d357611007565b81546117e190600190611e55565b811461188257815482906117f790600190611e55565b8154811061181557634e487b7160e01b600052603260045260246000fd5b9060005260206000200160009054906101000a90046001600160a01b031682828154811061185357634e487b7160e01b600052603260045260246000fd5b9060005260206000200160006101000a8154816001600160a01b0302191690836001600160a01b031602179055505b818054806118a057634e487b7160e01b600052603160045260246000fd5b600082815260209020810160001990810180546001600160a01b03191690550190555050565b806001600160a01b0383166109755760405162461bcd60e51b81526004016107d39190611ce2565b60006118f8825190565b1592915050565b600061102361271061101d85856114cd565b60405180606001604052806119476040518060800160405280600081526020016000815260200160008152602001600081525090565b81526020016119776040518060800160405280600081526020016000815260200160008152602001600081525090565b81526020016119a76040518060800160405280600081526020016000815260200160008152602001600081525090565b905290565b6000602082840312156119bd578081fd5b81356119c881611ebd565b9392505050565b600080602083850312156119e1578081fd5b823567ffffffffffffffff808211156119f8578283fd5b818501915085601f830112611a0b578283fd5b813581811115611a19578384fd5b8660208260051b8501011115611a2d578384fd5b60209290920196919550909350505050565b6000806000838503610100811215611a55578182fd5b60e0811215611a62578182fd5b5083925060e084013567ffffffffffffffff80821115611a80578283fd5b818601915086601f830112611a93578283fd5b813581811115611aa1578384fd5b87602061012083028501011115611ab6578384fd5b6020830194508093505050509250925092565b600060e08284031215611ada578081fd5b611ae460e0611dbf565b8235611aef81611ebd565b81526020830135611aff81611ebd565b60208201526040830135611b1281611ebd565b80604083015250606083013560608201526080830135608082015260a083013560a082015260c083013560c08201528091505092915050565b6000818303610120811215611b5e578182fd5b611b6860e0611dbf565b8335611b7381611ebd565b81526020840135611b8381611ebd565b8060208301525060408401356040820152606084013560608201526080840135608082015260a084013560a0820152606060bf1983011215611bc3578283fd5b611bcd6060611dbf565b915060c084013560ff81168114611be2578384fd5b825260e0840135602083015261010090930135604082015260c083015250919050565b600060208284031215611c16578081fd5b5035919050565b600060208284031215611c2e578081fd5b5051919050565b600080600060608486031215611c49578283fd5b83519250602084015191506040840151611c6281611ebd565b809150509250925092565b60048110611c8b57634e487b7160e01b600052602160045260246000fd5b9052565b80516001600160a01b0390811683526020808301519091169083015260408082015190830152606080820151908301526080808201519083015260a090810151910152565b602081016110268284611c6d565b6000602080835283518082850152825b81811015611d0e57858101830151858201604001528201611cf2565b81811115611d1f5783604083870101525b50601f01601f1916929092016040019392505050565b60c081016110268284611c8f565b8c81526102208101611d58602083018e611c8f565b8b60e08301528a61010083015289610120830152886101408301528761016083015286610180830152856101a083015260018060a01b0385166101c0830152611da56101e0830185611c6d565b8215156102008301529d9c50505050505050505050505050565b604051601f8201601f1916810167ffffffffffffffff81118282101715611df657634e487b7160e01b600052604160045260246000fd5b604052919050565b60008219821115611e1157611e11611ea7565b500190565b600082611e3157634e487b7160e01b81526012600452602481fd5b500490565b6000816000190483118215151615611e5057611e50611ea7565b500290565b600082821015611e6757611e67611ea7565b500390565b6000600019821415611e8057611e80611ea7565b5060010190565b600060ff821660ff811415611e9e57611e9e611ea7565b60010192915050565b634e487b7160e01b600052601160045260246000fd5b6001600160a01b03811681146106b257600080fdfea2646970667358221220cf4d2edfb18b4350e60e7350815340665ab908f8f7e127d95e544a074c86fe1264736f6c63430008030033",
  "devdoc": {
    "author": "develop@teller.finance.",
    "details": "The LoanManager delegatecall's to this, like a Diamond.",
    "kind": "dev",
    "methods": {
      "_updateImplementationStored()": {
        "details": "It uses the LogicVersionsRegistry contract to get the logic address or the cached address if valid.It caches the current logic address for the proxy to reduce gas on subsequent calls within the same block."
      },
      "addSigner(address)": {
        "details": "The sender must be the owner.It throws a require error if the sender is not the owner.",
        "params": {
          "account": "address to add."
        }
      },
      "addSigners(address[])": {
        "details": "The sender must be the owner.It throws a require error if the sender is not the owner.",
        "params": {
          "accounts": "addresses to add."
        }
      },
      "processLoanTerms((address,address,address,uint256,uint256,uint256,uint256),(address,address,uint256,uint256,uint256,uint256,(uint8,bytes32,bytes32))[])": {
        "params": {
          "request": "Struct of the protocol loan request",
          "responses": "List of structs of the protocol loan responses"
        },
        "returns": {
          "collateralRatio": "Collateral ratio",
          "interestRate": "Interest rate",
          "maxLoanAmount": "Maximum loan amount"
        }
      },
      "removeSigner(address)": {
        "details": "The sender must be the owner.",
        "params": {
          "account": "address to remove."
        }
      }
    },
    "version": 1
  },
  "userdoc": {
    "kind": "user",
    "methods": {
      "LOAN_DATA_LOGIC_NAME()": {
        "notice": "Holds the logic name used for the LoanData contract."
      },
      "LOAN_TERMS_CONSENSUS_LOGIC_NAME()": {
        "notice": "Holds the logic name used for the LoanTermsConsensus contract."
      },
      "_updateImplementationStored()": {
        "notice": "Updates the current implementation logic address for the stored logic name."
      },
      "addSigner(address)": {
        "notice": "It adds a new account as a signer."
      },
      "addSigners(address[])": {
        "notice": "It adds a list of account as signers."
      },
      "assetSettings()": {
        "notice": "It holds the platform AssetSettings instance."
      },
      "cToken()": {
        "notice": "Holds the Compound cToken where the underlying token matches the lending token."
      },
      "collateralToken()": {
        "notice": "Holds the collateral token."
      },
      "implementationStored()": {
        "notice": "It stores the last known logic address locally to reduce gas costs."
      },
      "lendingPool()": {
        "notice": "Holds the instance of the LendingPool used by the LoanManager."
      },
      "lendingToken()": {
        "notice": "Holds the lending token used for creating loans by the LoanManager and LendingPool."
      },
      "loanIDCounter()": {
        "notice": "Holds the ID of loans taken out"
      },
      "loans(uint256)": {
        "notice": "Holds the data of all loans for the lending token."
      },
      "logicName()": {
        "notice": "It represent the logic name (key) used for this proxy."
      },
      "logicRegistry()": {
        "notice": "It returns the logic registry that is used to determine the implementation logic for this proxy."
      },
      "processLoanTerms((address,address,address,uint256,uint256,uint256,uint256),(address,address,uint256,uint256,uint256,uint256,(uint8,bytes32,bytes32))[])": {
        "notice": "Processes the loan request"
      },
      "removeSigner(address)": {
        "notice": "It removes an account as a signer."
      },
      "settings()": {
        "notice": "It holds the platform Settings instance."
      },
      "strictDynamic()": {
        "notice": "Boolean indicating if the proxy must check the registry for a new implementation."
      },
      "totalCollateral()": {
        "notice": "Holds the total amount of collateral held by the contract."
      },
      "upgradeProxyTo(address)": {
        "notice": "It updates a proxy's cached implementation address.It must only be called by the LogicVersionsRegistry for non strict DynamicProxy"
      }
    },
    "notice": "This contract stores the logic for validating consensus on loan terms.",
    "version": 1
  },
  "storageLayout": {
    "storage": [
      {
        "astId": 13960,
        "contract": "contracts/base/loans/LoanTermsConsensus.sol:LoanTermsConsensus",
        "label": "logicRegistry",
        "offset": 0,
        "slot": "0",
        "type": "t_contract(LogicVersionsRegistryInterface)14789"
      },
      {
        "astId": 13963,
        "contract": "contracts/base/loans/LoanTermsConsensus.sol:LoanTermsConsensus",
        "label": "logicName",
        "offset": 0,
        "slot": "1",
        "type": "t_bytes32"
      },
      {
        "astId": 13966,
        "contract": "contracts/base/loans/LoanTermsConsensus.sol:LoanTermsConsensus",
        "label": "strictDynamic",
        "offset": 0,
        "slot": "2",
        "type": "t_bool"
      },
      {
        "astId": 13969,
        "contract": "contracts/base/loans/LoanTermsConsensus.sol:LoanTermsConsensus",
        "label": "implementationStored",
        "offset": 1,
        "slot": "2",
        "type": "t_address"
      },
      {
        "astId": 13972,
        "contract": "contracts/base/loans/LoanTermsConsensus.sol:LoanTermsConsensus",
        "label": "_implementationBlockUpdated",
        "offset": 0,
        "slot": "3",
        "type": "t_uint256"
      },
      {
        "astId": 1898,
        "contract": "contracts/base/loans/LoanTermsConsensus.sol:LoanTermsConsensus",
        "label": "settings",
        "offset": 0,
        "slot": "4",
        "type": "t_contract(SettingsInterface)15153"
      },
      {
        "astId": 1903,
        "contract": "contracts/base/loans/LoanTermsConsensus.sol:LoanTermsConsensus",
        "label": "__gap",
        "offset": 0,
        "slot": "5",
        "type": "t_array(t_uint256)10_storage"
      },
      {
        "astId": 15523,
        "contract": "contracts/base/loans/LoanTermsConsensus.sol:LoanTermsConsensus",
        "label": "loans",
        "offset": 0,
        "slot": "15",
        "type": "t_mapping(t_uint256,t_struct(Loan)19171_storage)"
      },
      {
        "astId": 10536,
        "contract": "contracts/base/loans/LoanTermsConsensus.sol:LoanTermsConsensus",
        "label": "totalCollateral",
        "offset": 0,
        "slot": "16",
        "type": "t_uint256"
      },
      {
        "astId": 10541,
        "contract": "contracts/base/loans/LoanTermsConsensus.sol:LoanTermsConsensus",
        "label": "lendingPool",
        "offset": 0,
        "slot": "17",
        "type": "t_contract(LendingPoolInterface)14684"
      },
      {
        "astId": 10545,
        "contract": "contracts/base/loans/LoanTermsConsensus.sol:LoanTermsConsensus",
        "label": "lendingToken",
        "offset": 0,
        "slot": "18",
        "type": "t_address"
      },
      {
        "astId": 10549,
        "contract": "contracts/base/loans/LoanTermsConsensus.sol:LoanTermsConsensus",
        "label": "collateralToken",
        "offset": 0,
        "slot": "19",
        "type": "t_address"
      },
      {
        "astId": 10554,
        "contract": "contracts/base/loans/LoanTermsConsensus.sol:LoanTermsConsensus",
        "label": "cToken",
        "offset": 0,
        "slot": "20",
        "type": "t_contract(CErc20Interface)16245"
      },
      {
        "astId": 10560,
        "contract": "contracts/base/loans/LoanTermsConsensus.sol:LoanTermsConsensus",
        "label": "borrowerLoans",
        "offset": 0,
        "slot": "21",
        "type": "t_mapping(t_address,t_array(t_uint256)dyn_storage)"
      },
      {
        "astId": 10564,
        "contract": "contracts/base/loans/LoanTermsConsensus.sol:LoanTermsConsensus",
        "label": "loanIDCounter",
        "offset": 0,
        "slot": "22",
        "type": "t_uint256"
      },
      {
        "astId": 10568,
        "contract": "contracts/base/loans/LoanTermsConsensus.sol:LoanTermsConsensus",
        "label": "signers",
        "offset": 0,
        "slot": "23",
        "type": "t_struct(AddressArray)17340_storage"
      },
      {
        "astId": 10571,
        "contract": "contracts/base/loans/LoanTermsConsensus.sol:LoanTermsConsensus",
        "label": "initDynamicProxyLogic",
        "offset": 0,
        "slot": "25",
        "type": "t_address"
      },
      {
        "astId": 10574,
        "contract": "contracts/base/loans/LoanTermsConsensus.sol:LoanTermsConsensus",
        "label": "loanData",
        "offset": 0,
        "slot": "26",
        "type": "t_address"
      },
      {
        "astId": 10577,
        "contract": "contracts/base/loans/LoanTermsConsensus.sol:LoanTermsConsensus",
        "label": "loanTermsConsensus",
        "offset": 0,
        "slot": "27",
        "type": "t_address"
      },
      {
        "astId": 10591,
        "contract": "contracts/base/loans/LoanTermsConsensus.sol:LoanTermsConsensus",
        "label": "_notEntered",
        "offset": 20,
        "slot": "27",
        "type": "t_bool"
      },
      {
        "astId": 10595,
        "contract": "contracts/base/loans/LoanTermsConsensus.sol:LoanTermsConsensus",
        "label": "assetSettings",
        "offset": 0,
        "slot": "28",
        "type": "t_contract(AssetSettingsInterface)14175"
      }
    ],
    "types": {
      "t_address": {
        "encoding": "inplace",
        "label": "address",
        "numberOfBytes": "20"
      },
      "t_address_payable": {
        "encoding": "inplace",
        "label": "address payable",
        "numberOfBytes": "20"
      },
      "t_array(t_address)dyn_storage": {
        "base": "t_address",
        "encoding": "dynamic_array",
        "label": "address[]",
        "numberOfBytes": "32"
      },
      "t_array(t_uint256)10_storage": {
        "base": "t_uint256",
        "encoding": "inplace",
        "label": "uint256[10]",
        "numberOfBytes": "320"
      },
      "t_array(t_uint256)dyn_storage": {
        "base": "t_uint256",
        "encoding": "dynamic_array",
        "label": "uint256[]",
        "numberOfBytes": "32"
      },
      "t_bool": {
        "encoding": "inplace",
        "label": "bool",
        "numberOfBytes": "1"
      },
      "t_bytes32": {
        "encoding": "inplace",
        "label": "bytes32",
        "numberOfBytes": "32"
      },
      "t_contract(AssetSettingsInterface)14175": {
        "encoding": "inplace",
        "label": "contract AssetSettingsInterface",
        "numberOfBytes": "20"
      },
      "t_contract(CErc20Interface)16245": {
        "encoding": "inplace",
        "label": "contract CErc20Interface",
        "numberOfBytes": "20"
      },
      "t_contract(LendingPoolInterface)14684": {
        "encoding": "inplace",
        "label": "contract LendingPoolInterface",
        "numberOfBytes": "20"
      },
      "t_contract(LogicVersionsRegistryInterface)14789": {
        "encoding": "inplace",
        "label": "contract LogicVersionsRegistryInterface",
        "numberOfBytes": "20"
      },
      "t_contract(SettingsInterface)15153": {
        "encoding": "inplace",
        "label": "contract SettingsInterface",
        "numberOfBytes": "20"
      },
      "t_enum(LoanStatus)19083": {
        "encoding": "inplace",
        "label": "enum TellerCommon.LoanStatus",
        "numberOfBytes": "1"
      },
      "t_mapping(t_address,t_array(t_uint256)dyn_storage)": {
        "encoding": "mapping",
        "key": "t_address",
        "label": "mapping(address => uint256[])",
        "numberOfBytes": "32",
        "value": "t_array(t_uint256)dyn_storage"
      },
      "t_mapping(t_address,t_uint256)": {
        "encoding": "mapping",
        "key": "t_address",
        "label": "mapping(address => uint256)",
        "numberOfBytes": "32",
        "value": "t_uint256"
      },
      "t_mapping(t_uint256,t_struct(Loan)19171_storage)": {
        "encoding": "mapping",
        "key": "t_uint256",
        "label": "mapping(uint256 => struct TellerCommon.Loan)",
        "numberOfBytes": "32",
        "value": "t_struct(Loan)19171_storage"
      },
      "t_struct(AddressArray)17340_storage": {
        "encoding": "inplace",
        "label": "struct AddressArrayLib.AddressArray",
        "members": [
          {
            "astId": 17335,
            "contract": "contracts/base/loans/LoanTermsConsensus.sol:LoanTermsConsensus",
            "label": "array",
            "offset": 0,
            "slot": "0",
            "type": "t_array(t_address)dyn_storage"
          },
          {
            "astId": 17339,
            "contract": "contracts/base/loans/LoanTermsConsensus.sol:LoanTermsConsensus",
            "label": "indices",
            "offset": 0,
            "slot": "1",
            "type": "t_mapping(t_address,t_uint256)"
          }
        ],
        "numberOfBytes": "64"
      },
      "t_struct(Loan)19171_storage": {
        "encoding": "inplace",
        "label": "struct TellerCommon.Loan",
        "members": [
          {
            "astId": 19146,
            "contract": "contracts/base/loans/LoanTermsConsensus.sol:LoanTermsConsensus",
            "label": "id",
            "offset": 0,
            "slot": "0",
            "type": "t_uint256"
          },
          {
            "astId": 19149,
            "contract": "contracts/base/loans/LoanTermsConsensus.sol:LoanTermsConsensus",
            "label": "loanTerms",
            "offset": 0,
            "slot": "1",
            "type": "t_struct(LoanTerms)19144_storage"
          },
          {
            "astId": 19151,
            "contract": "contracts/base/loans/LoanTermsConsensus.sol:LoanTermsConsensus",
            "label": "termsExpiry",
            "offset": 0,
            "slot": "7",
            "type": "t_uint256"
          },
          {
            "astId": 19153,
            "contract": "contracts/base/loans/LoanTermsConsensus.sol:LoanTermsConsensus",
            "label": "loanStartTime",
            "offset": 0,
            "slot": "8",
            "type": "t_uint256"
          },
          {
            "astId": 19155,
            "contract": "contracts/base/loans/LoanTermsConsensus.sol:LoanTermsConsensus",
            "label": "collateral",
            "offset": 0,
            "slot": "9",
            "type": "t_uint256"
          },
          {
            "astId": 19157,
            "contract": "contracts/base/loans/LoanTermsConsensus.sol:LoanTermsConsensus",
            "label": "lastCollateralIn",
            "offset": 0,
            "slot": "10",
            "type": "t_uint256"
          },
          {
            "astId": 19159,
            "contract": "contracts/base/loans/LoanTermsConsensus.sol:LoanTermsConsensus",
            "label": "principalOwed",
            "offset": 0,
            "slot": "11",
            "type": "t_uint256"
          },
          {
            "astId": 19161,
            "contract": "contracts/base/loans/LoanTermsConsensus.sol:LoanTermsConsensus",
            "label": "interestOwed",
            "offset": 0,
            "slot": "12",
            "type": "t_uint256"
          },
          {
            "astId": 19163,
            "contract": "contracts/base/loans/LoanTermsConsensus.sol:LoanTermsConsensus",
            "label": "borrowedAmount",
            "offset": 0,
            "slot": "13",
            "type": "t_uint256"
          },
          {
            "astId": 19165,
            "contract": "contracts/base/loans/LoanTermsConsensus.sol:LoanTermsConsensus",
            "label": "escrow",
            "offset": 0,
            "slot": "14",
            "type": "t_address"
          },
          {
            "astId": 19168,
            "contract": "contracts/base/loans/LoanTermsConsensus.sol:LoanTermsConsensus",
            "label": "status",
            "offset": 20,
            "slot": "14",
            "type": "t_enum(LoanStatus)19083"
          },
          {
            "astId": 19170,
            "contract": "contracts/base/loans/LoanTermsConsensus.sol:LoanTermsConsensus",
            "label": "liquidated",
            "offset": 21,
            "slot": "14",
            "type": "t_bool"
          }
        ],
        "numberOfBytes": "480"
      },
      "t_struct(LoanTerms)19144_storage": {
        "encoding": "inplace",
        "label": "struct TellerCommon.LoanTerms",
        "members": [
          {
            "astId": 19133,
            "contract": "contracts/base/loans/LoanTermsConsensus.sol:LoanTermsConsensus",
            "label": "borrower",
            "offset": 0,
            "slot": "0",
            "type": "t_address_payable"
          },
          {
            "astId": 19135,
            "contract": "contracts/base/loans/LoanTermsConsensus.sol:LoanTermsConsensus",
            "label": "recipient",
            "offset": 0,
            "slot": "1",
            "type": "t_address"
          },
          {
            "astId": 19137,
            "contract": "contracts/base/loans/LoanTermsConsensus.sol:LoanTermsConsensus",
            "label": "interestRate",
            "offset": 0,
            "slot": "2",
            "type": "t_uint256"
          },
          {
            "astId": 19139,
            "contract": "contracts/base/loans/LoanTermsConsensus.sol:LoanTermsConsensus",
            "label": "collateralRatio",
            "offset": 0,
            "slot": "3",
            "type": "t_uint256"
          },
          {
            "astId": 19141,
            "contract": "contracts/base/loans/LoanTermsConsensus.sol:LoanTermsConsensus",
            "label": "maxLoanAmount",
            "offset": 0,
            "slot": "4",
            "type": "t_uint256"
          },
          {
            "astId": 19143,
            "contract": "contracts/base/loans/LoanTermsConsensus.sol:LoanTermsConsensus",
            "label": "duration",
            "offset": 0,
            "slot": "5",
            "type": "t_uint256"
          }
        ],
        "numberOfBytes": "192"
      },
      "t_uint256": {
        "encoding": "inplace",
        "label": "uint256",
        "numberOfBytes": "32"
      }
    }
  }
}