{
  "address": "0xBa08917fC27CD008eB244D8EAf2c66030eA596a2",
  "abi": [
    {
      "anonymous": false,
      "inputs": [
        {
          "indexed": true,
          "internalType": "uint256",
          "name": "loanID",
          "type": "uint256"
        },
        {
          "indexed": true,
          "internalType": "address",
          "name": "borrower",
          "type": "address"
        },
        {
          "indexed": false,
          "internalType": "uint256",
          "name": "depositAmount",
          "type": "uint256"
        }
      ],
      "name": "CollateralDeposited",
      "type": "event"
    },
    {
      "anonymous": false,
      "inputs": [
        {
          "indexed": true,
          "internalType": "uint256",
          "name": "loanID",
          "type": "uint256"
        },
        {
          "indexed": true,
          "internalType": "address",
          "name": "borrower",
          "type": "address"
        },
        {
          "indexed": true,
          "internalType": "address",
          "name": "recipient",
          "type": "address"
        },
        {
          "indexed": false,
          "internalType": "uint256",
          "name": "amount",
          "type": "uint256"
        }
      ],
      "name": "CollateralWithdrawn",
      "type": "event"
    },
    {
      "anonymous": false,
      "inputs": [
        {
          "indexed": true,
          "internalType": "uint256",
          "name": "loanID",
          "type": "uint256"
        },
        {
          "indexed": true,
          "internalType": "address",
          "name": "borrower",
          "type": "address"
        },
        {
          "indexed": false,
          "internalType": "address",
          "name": "liquidator",
          "type": "address"
        },
        {
          "indexed": false,
          "internalType": "int256",
          "name": "collateralOut",
          "type": "int256"
        },
        {
          "indexed": false,
          "internalType": "uint256",
          "name": "tokensIn",
          "type": "uint256"
        }
      ],
      "name": "LoanLiquidated",
      "type": "event"
    },
    {
      "anonymous": false,
      "inputs": [
        {
          "indexed": true,
          "internalType": "uint256",
          "name": "loanID",
          "type": "uint256"
        },
        {
          "indexed": true,
          "internalType": "address",
          "name": "borrower",
          "type": "address"
        },
        {
          "indexed": false,
          "internalType": "uint256",
          "name": "amountPaid",
          "type": "uint256"
        },
        {
          "indexed": false,
          "internalType": "address",
          "name": "payer",
          "type": "address"
        },
        {
          "indexed": false,
          "internalType": "uint256",
          "name": "totalOwed",
          "type": "uint256"
        }
      ],
      "name": "LoanRepaid",
      "type": "event"
    },
    {
      "anonymous": false,
      "inputs": [
        {
          "indexed": true,
          "internalType": "uint256",
          "name": "loanID",
          "type": "uint256"
        },
        {
          "indexed": true,
          "internalType": "address",
          "name": "borrower",
          "type": "address"
        },
        {
          "indexed": true,
          "internalType": "address",
          "name": "escrow",
          "type": "address"
        },
        {
          "indexed": false,
          "internalType": "uint256",
          "name": "amountBorrowed",
          "type": "uint256"
        }
      ],
      "name": "LoanTakenOut",
      "type": "event"
    },
    {
      "anonymous": false,
      "inputs": [
        {
          "indexed": true,
          "internalType": "uint256",
          "name": "loanID",
          "type": "uint256"
        },
        {
          "indexed": true,
          "internalType": "address",
          "name": "borrower",
          "type": "address"
        },
        {
          "indexed": true,
          "internalType": "address",
          "name": "recipient",
          "type": "address"
        },
        {
          "indexed": false,
          "internalType": "uint256",
          "name": "nonce",
          "type": "uint256"
        }
      ],
      "name": "LoanTermsSet",
      "type": "event"
    },
    {
      "inputs": [],
      "name": "LOAN_DATA_LOGIC_NAME",
      "outputs": [
        {
          "internalType": "bytes32",
          "name": "",
          "type": "bytes32"
        }
      ],
      "stateMutability": "view",
      "type": "function"
    },
    {
      "inputs": [],
      "name": "LOAN_TERMS_CONSENSUS_LOGIC_NAME",
      "outputs": [
        {
          "internalType": "bytes32",
          "name": "",
          "type": "bytes32"
        }
      ],
      "stateMutability": "view",
      "type": "function"
    },
    {
      "inputs": [],
      "name": "_updateImplementationStored",
      "outputs": [],
      "stateMutability": "nonpayable",
      "type": "function"
    },
    {
      "inputs": [
        {
          "internalType": "address",
          "name": "account",
          "type": "address"
        }
      ],
      "name": "addSigner",
      "outputs": [],
      "stateMutability": "nonpayable",
      "type": "function"
    },
    {
      "inputs": [
        {
          "internalType": "address[]",
          "name": "accounts",
          "type": "address[]"
        }
      ],
      "name": "addSigners",
      "outputs": [],
      "stateMutability": "nonpayable",
      "type": "function"
    },
    {
      "inputs": [],
      "name": "assetSettings",
      "outputs": [
        {
          "internalType": "contract AssetSettingsInterface",
          "name": "",
          "type": "address"
        }
      ],
      "stateMutability": "view",
      "type": "function"
    },
    {
      "inputs": [
        {
          "internalType": "uint256",
          "name": "loanId",
          "type": "uint256"
        }
      ],
      "name": "borrowedAmount",
      "outputs": [
        {
          "internalType": "uint256",
          "name": "",
          "type": "uint256"
        }
      ],
      "stateMutability": "view",
      "type": "function"
    },
    {
      "inputs": [],
      "name": "cToken",
      "outputs": [
        {
          "internalType": "contract CErc20Interface",
          "name": "",
          "type": "address"
        }
      ],
      "stateMutability": "view",
      "type": "function"
    },
    {
      "inputs": [
        {
          "internalType": "uint256",
          "name": "loanID",
          "type": "uint256"
        }
      ],
      "name": "canGoToEOA",
      "outputs": [
        {
          "internalType": "bool",
          "name": "",
          "type": "bool"
        }
      ],
      "stateMutability": "view",
      "type": "function"
    },
    {
      "inputs": [
        {
          "internalType": "uint256",
          "name": "loanId",
          "type": "uint256"
        }
      ],
      "name": "collateral",
      "outputs": [
        {
          "internalType": "uint256",
          "name": "",
          "type": "uint256"
        }
      ],
      "stateMutability": "view",
      "type": "function"
    },
    {
      "inputs": [],
      "name": "collateralToken",
      "outputs": [
        {
          "internalType": "address",
          "name": "",
          "type": "address"
        }
      ],
      "stateMutability": "view",
      "type": "function"
    },
    {
      "inputs": [
        {
          "components": [
            {
              "internalType": "address payable",
              "name": "borrower",
              "type": "address"
            },
            {
              "internalType": "address",
              "name": "recipient",
              "type": "address"
            },
            {
              "internalType": "address",
              "name": "consensusAddress",
              "type": "address"
            },
            {
              "internalType": "uint256",
              "name": "requestNonce",
              "type": "uint256"
            },
            {
              "internalType": "uint256",
              "name": "amount",
              "type": "uint256"
            },
            {
              "internalType": "uint256",
              "name": "duration",
              "type": "uint256"
            },
            {
              "internalType": "uint256",
              "name": "requestTime",
              "type": "uint256"
            }
          ],
          "internalType": "struct TellerCommon.LoanRequest",
          "name": "request",
          "type": "tuple"
        },
        {
          "components": [
            {
              "internalType": "address",
              "name": "signer",
              "type": "address"
            },
            {
              "internalType": "address",
              "name": "consensusAddress",
              "type": "address"
            },
            {
              "internalType": "uint256",
              "name": "responseTime",
              "type": "uint256"
            },
            {
              "internalType": "uint256",
              "name": "interestRate",
              "type": "uint256"
            },
            {
              "internalType": "uint256",
              "name": "collateralRatio",
              "type": "uint256"
            },
            {
              "internalType": "uint256",
              "name": "maxLoanAmount",
              "type": "uint256"
            },
            {
              "components": [
                {
                  "internalType": "uint8",
                  "name": "v",
                  "type": "uint8"
                },
                {
                  "internalType": "bytes32",
                  "name": "r",
                  "type": "bytes32"
                },
                {
                  "internalType": "bytes32",
                  "name": "s",
                  "type": "bytes32"
                }
              ],
              "internalType": "struct TellerCommon.Signature",
              "name": "signature",
              "type": "tuple"
            }
          ],
          "internalType": "struct TellerCommon.LoanResponse[]",
          "name": "responses",
          "type": "tuple[]"
        },
        {
          "internalType": "uint256",
          "name": "collateralAmount",
          "type": "uint256"
        }
      ],
      "name": "createLoanWithTerms",
      "outputs": [],
      "stateMutability": "payable",
      "type": "function"
    },
    {
      "inputs": [
        {
          "internalType": "address",
          "name": "imp",
          "type": "address"
        },
        {
          "internalType": "bytes",
          "name": "sigWithData",
          "type": "bytes"
        }
      ],
      "name": "delegateTo",
      "outputs": [
        {
          "internalType": "bytes",
          "name": "returnData",
          "type": "bytes"
        }
      ],
      "stateMutability": "nonpayable",
      "type": "function"
    },
    {
      "inputs": [
        {
          "internalType": "address",
          "name": "borrower",
          "type": "address"
        },
        {
          "internalType": "uint256",
          "name": "loanID",
          "type": "uint256"
        },
        {
          "internalType": "uint256",
          "name": "amount",
          "type": "uint256"
        }
      ],
      "name": "depositCollateral",
      "outputs": [],
      "stateMutability": "payable",
      "type": "function"
    },
    {
      "inputs": [
        {
          "internalType": "uint256",
          "name": "loanId",
          "type": "uint256"
        }
      ],
      "name": "escrow",
      "outputs": [
        {
          "internalType": "address",
          "name": "",
          "type": "address"
        }
      ],
      "stateMutability": "view",
      "type": "function"
    },
    {
      "inputs": [
        {
          "internalType": "address",
          "name": "borrower",
          "type": "address"
        }
      ],
      "name": "getBorrowerLoans",
      "outputs": [
        {
          "internalType": "uint256[]",
          "name": "",
          "type": "uint256[]"
        }
      ],
      "stateMutability": "view",
      "type": "function"
    },
    {
      "inputs": [
        {
          "internalType": "uint256",
          "name": "loanID",
          "type": "uint256"
        }
      ],
      "name": "getCollateralInLendingTokens",
      "outputs": [
        {
          "internalType": "uint256",
          "name": "",
          "type": "uint256"
        }
      ],
      "stateMutability": "view",
      "type": "function"
    },
    {
      "inputs": [
        {
          "internalType": "uint256",
          "name": "loanID",
          "type": "uint256"
        }
      ],
      "name": "getCollateralNeededInTokens",
      "outputs": [
        {
          "internalType": "int256",
          "name": "",
          "type": "int256"
        },
        {
          "internalType": "uint256",
          "name": "",
          "type": "uint256"
        }
      ],
      "stateMutability": "view",
      "type": "function"
    },
    {
      "inputs": [
        {
          "internalType": "uint256",
          "name": "loanID",
          "type": "uint256"
        }
      ],
      "name": "getCollateralNeededInfo",
      "outputs": [
        {
          "internalType": "int256",
          "name": "",
          "type": "int256"
        },
        {
          "internalType": "int256",
          "name": "",
          "type": "int256"
        },
        {
          "internalType": "uint256",
          "name": "",
          "type": "uint256"
        }
      ],
      "stateMutability": "view",
      "type": "function"
    },
    {
      "inputs": [
        {
          "internalType": "uint256",
          "name": "loanID",
          "type": "uint256"
        },
        {
          "internalType": "uint256",
          "name": "amountBorrow",
          "type": "uint256"
        }
      ],
      "name": "getInterestOwedFor",
      "outputs": [
        {
          "internalType": "uint256",
          "name": "",
          "type": "uint256"
        }
      ],
      "stateMutability": "view",
      "type": "function"
    },
    {
      "inputs": [
        {
          "internalType": "uint256",
          "name": "loanID",
          "type": "uint256"
        }
      ],
      "name": "getInterestRatio",
      "outputs": [
        {
          "internalType": "uint256",
          "name": "",
          "type": "uint256"
        }
      ],
      "stateMutability": "view",
      "type": "function"
    },
    {
      "inputs": [
        {
          "internalType": "uint256",
          "name": "loanID",
          "type": "uint256"
        }
      ],
      "name": "getLiquidationReward",
      "outputs": [
        {
          "internalType": "int256",
          "name": "",
          "type": "int256"
        }
      ],
      "stateMutability": "view",
      "type": "function"
    },
    {
      "inputs": [
        {
          "internalType": "uint256",
          "name": "loanID",
          "type": "uint256"
        }
      ],
      "name": "getLoanAmount",
      "outputs": [
        {
          "internalType": "uint256",
          "name": "",
          "type": "uint256"
        }
      ],
      "stateMutability": "view",
      "type": "function"
    },
    {
      "inputs": [
        {
          "internalType": "uint256",
          "name": "loanID",
          "type": "uint256"
        }
      ],
      "name": "getTotalOwed",
      "outputs": [
        {
          "internalType": "uint256",
          "name": "",
          "type": "uint256"
        }
      ],
      "stateMutability": "view",
      "type": "function"
    },
    {
      "inputs": [],
      "name": "implementationStored",
      "outputs": [
        {
          "internalType": "address",
          "name": "",
          "type": "address"
        }
      ],
      "stateMutability": "view",
      "type": "function"
    },
    {
      "inputs": [
        {
          "internalType": "address",
          "name": "lendingPoolAddress",
          "type": "address"
        },
        {
          "internalType": "address",
          "name": "settingsAddress",
          "type": "address"
        },
        {
          "internalType": "address",
          "name": "collateralTokenAddress",
          "type": "address"
        },
        {
          "internalType": "address",
          "name": "initDynamicProxyLogicAddress",
          "type": "address"
        }
      ],
      "name": "initialize",
      "outputs": [],
      "stateMutability": "nonpayable",
      "type": "function"
    },
    {
      "inputs": [
        {
          "internalType": "uint256",
          "name": "loanId",
          "type": "uint256"
        }
      ],
      "name": "interestOwed",
      "outputs": [
        {
          "internalType": "uint256",
          "name": "",
          "type": "uint256"
        }
      ],
      "stateMutability": "view",
      "type": "function"
    },
    {
      "inputs": [
        {
          "internalType": "uint256",
          "name": "loanID",
          "type": "uint256"
        }
      ],
      "name": "isActiveOrSet",
      "outputs": [
        {
          "internalType": "bool",
          "name": "",
          "type": "bool"
        }
      ],
      "stateMutability": "view",
      "type": "function"
    },
    {
      "inputs": [
        {
          "internalType": "uint256",
          "name": "loanID",
          "type": "uint256"
        }
      ],
      "name": "isLiquidable",
      "outputs": [
        {
          "internalType": "bool",
          "name": "",
          "type": "bool"
        }
      ],
      "stateMutability": "view",
      "type": "function"
    },
    {
      "inputs": [
        {
          "internalType": "uint256",
          "name": "loanID",
          "type": "uint256"
        }
      ],
      "name": "isLoanSecured",
      "outputs": [
        {
          "internalType": "bool",
          "name": "",
          "type": "bool"
        }
      ],
      "stateMutability": "view",
      "type": "function"
    },
    {
      "inputs": [
        {
          "internalType": "uint256",
          "name": "loanId",
          "type": "uint256"
        }
      ],
      "name": "lastCollateralIn",
      "outputs": [
        {
          "internalType": "uint256",
          "name": "",
          "type": "uint256"
        }
      ],
      "stateMutability": "view",
      "type": "function"
    },
    {
      "inputs": [],
      "name": "lendingPool",
      "outputs": [
        {
          "internalType": "contract LendingPoolInterface",
          "name": "",
          "type": "address"
        }
      ],
      "stateMutability": "view",
      "type": "function"
    },
    {
      "inputs": [],
      "name": "lendingToken",
      "outputs": [
        {
          "internalType": "address",
          "name": "",
          "type": "address"
        }
      ],
      "stateMutability": "view",
      "type": "function"
    },
    {
      "inputs": [
        {
          "internalType": "uint256",
          "name": "loanID",
          "type": "uint256"
        }
      ],
      "name": "liquidateLoan",
      "outputs": [],
      "stateMutability": "nonpayable",
      "type": "function"
    },
    {
      "inputs": [
        {
          "internalType": "uint256",
          "name": "loanId",
          "type": "uint256"
        }
      ],
      "name": "liquidated",
      "outputs": [
        {
          "internalType": "bool",
          "name": "",
          "type": "bool"
        }
      ],
      "stateMutability": "view",
      "type": "function"
    },
    {
      "inputs": [],
      "name": "loanIDCounter",
      "outputs": [
        {
          "internalType": "uint256",
          "name": "",
          "type": "uint256"
        }
      ],
      "stateMutability": "view",
      "type": "function"
    },
    {
      "inputs": [
        {
          "internalType": "uint256",
          "name": "loanId",
          "type": "uint256"
        }
      ],
      "name": "loanStartTime",
      "outputs": [
        {
          "internalType": "uint256",
          "name": "",
          "type": "uint256"
        }
      ],
      "stateMutability": "view",
      "type": "function"
    },
    {
      "inputs": [
        {
          "internalType": "uint256",
          "name": "loanId",
          "type": "uint256"
        }
      ],
      "name": "loanTerms",
      "outputs": [
        {
          "components": [
            {
              "internalType": "address payable",
              "name": "borrower",
              "type": "address"
            },
            {
              "internalType": "address",
              "name": "recipient",
              "type": "address"
            },
            {
              "internalType": "uint256",
              "name": "interestRate",
              "type": "uint256"
            },
            {
              "internalType": "uint256",
              "name": "collateralRatio",
              "type": "uint256"
            },
            {
              "internalType": "uint256",
              "name": "maxLoanAmount",
              "type": "uint256"
            },
            {
              "internalType": "uint256",
              "name": "duration",
              "type": "uint256"
            }
          ],
          "internalType": "struct TellerCommon.LoanTerms",
          "name": "",
          "type": "tuple"
        }
      ],
      "stateMutability": "view",
      "type": "function"
    },
    {
      "inputs": [
        {
          "internalType": "uint256",
          "name": "",
          "type": "uint256"
        }
      ],
      "name": "loans",
      "outputs": [
        {
          "internalType": "uint256",
          "name": "id",
          "type": "uint256"
        },
        {
          "components": [
            {
              "internalType": "address payable",
              "name": "borrower",
              "type": "address"
            },
            {
              "internalType": "address",
              "name": "recipient",
              "type": "address"
            },
            {
              "internalType": "uint256",
              "name": "interestRate",
              "type": "uint256"
            },
            {
              "internalType": "uint256",
              "name": "collateralRatio",
              "type": "uint256"
            },
            {
              "internalType": "uint256",
              "name": "maxLoanAmount",
              "type": "uint256"
            },
            {
              "internalType": "uint256",
              "name": "duration",
              "type": "uint256"
            }
          ],
          "internalType": "struct TellerCommon.LoanTerms",
          "name": "loanTerms",
          "type": "tuple"
        },
        {
          "internalType": "uint256",
          "name": "termsExpiry",
          "type": "uint256"
        },
        {
          "internalType": "uint256",
          "name": "loanStartTime",
          "type": "uint256"
        },
        {
          "internalType": "uint256",
          "name": "collateral",
          "type": "uint256"
        },
        {
          "internalType": "uint256",
          "name": "lastCollateralIn",
          "type": "uint256"
        },
        {
          "internalType": "uint256",
          "name": "principalOwed",
          "type": "uint256"
        },
        {
          "internalType": "uint256",
          "name": "interestOwed",
          "type": "uint256"
        },
        {
          "internalType": "uint256",
          "name": "borrowedAmount",
          "type": "uint256"
        },
        {
          "internalType": "address",
          "name": "escrow",
          "type": "address"
        },
        {
          "internalType": "enum TellerCommon.LoanStatus",
          "name": "status",
          "type": "uint8"
        },
        {
          "internalType": "bool",
          "name": "liquidated",
          "type": "bool"
        }
      ],
      "stateMutability": "view",
      "type": "function"
    },
    {
      "inputs": [],
      "name": "logicName",
      "outputs": [
        {
          "internalType": "bytes32",
          "name": "",
          "type": "bytes32"
        }
      ],
      "stateMutability": "view",
      "type": "function"
    },
    {
      "inputs": [],
      "name": "logicRegistry",
      "outputs": [
        {
          "internalType": "contract LogicVersionsRegistryInterface",
          "name": "",
          "type": "address"
        }
      ],
      "stateMutability": "view",
      "type": "function"
    },
    {
      "inputs": [
        {
          "internalType": "uint256",
          "name": "loanId",
          "type": "uint256"
        }
      ],
      "name": "principalOwed",
      "outputs": [
        {
          "internalType": "uint256",
          "name": "",
          "type": "uint256"
        }
      ],
      "stateMutability": "view",
      "type": "function"
    },
    {
      "inputs": [
        {
          "components": [
            {
              "internalType": "address payable",
              "name": "borrower",
              "type": "address"
            },
            {
              "internalType": "address",
              "name": "recipient",
              "type": "address"
            },
            {
              "internalType": "address",
              "name": "consensusAddress",
              "type": "address"
            },
            {
              "internalType": "uint256",
              "name": "requestNonce",
              "type": "uint256"
            },
            {
              "internalType": "uint256",
              "name": "amount",
              "type": "uint256"
            },
            {
              "internalType": "uint256",
              "name": "duration",
              "type": "uint256"
            },
            {
              "internalType": "uint256",
              "name": "requestTime",
              "type": "uint256"
            }
          ],
          "internalType": "struct TellerCommon.LoanRequest",
          "name": "request",
          "type": "tuple"
        },
        {
          "components": [
            {
              "internalType": "address",
              "name": "signer",
              "type": "address"
            },
            {
              "internalType": "address",
              "name": "consensusAddress",
              "type": "address"
            },
            {
              "internalType": "uint256",
              "name": "responseTime",
              "type": "uint256"
            },
            {
              "internalType": "uint256",
              "name": "interestRate",
              "type": "uint256"
            },
            {
              "internalType": "uint256",
              "name": "collateralRatio",
              "type": "uint256"
            },
            {
              "internalType": "uint256",
              "name": "maxLoanAmount",
              "type": "uint256"
            },
            {
              "components": [
                {
                  "internalType": "uint8",
                  "name": "v",
                  "type": "uint8"
                },
                {
                  "internalType": "bytes32",
                  "name": "r",
                  "type": "bytes32"
                },
                {
                  "internalType": "bytes32",
                  "name": "s",
                  "type": "bytes32"
                }
              ],
              "internalType": "struct TellerCommon.Signature",
              "name": "signature",
              "type": "tuple"
            }
          ],
          "internalType": "struct TellerCommon.LoanResponse[]",
          "name": "responses",
          "type": "tuple[]"
        }
      ],
      "name": "processLoanTerms",
      "outputs": [
        {
          "internalType": "uint256",
          "name": "",
          "type": "uint256"
        },
        {
          "internalType": "uint256",
          "name": "",
          "type": "uint256"
        },
        {
          "internalType": "uint256",
          "name": "",
          "type": "uint256"
        }
      ],
      "stateMutability": "view",
      "type": "function"
    },
    {
      "inputs": [
        {
          "internalType": "uint256",
          "name": "amount",
          "type": "uint256"
        },
        {
          "internalType": "uint256",
          "name": "loanID",
          "type": "uint256"
        }
      ],
      "name": "repay",
      "outputs": [],
      "stateMutability": "nonpayable",
      "type": "function"
    },
    {
      "inputs": [],
      "name": "settings",
      "outputs": [
        {
          "internalType": "contract SettingsInterface",
          "name": "",
          "type": "address"
        }
      ],
      "stateMutability": "view",
      "type": "function"
    },
    {
      "inputs": [
        {
          "internalType": "uint256",
          "name": "loanId",
          "type": "uint256"
        }
      ],
      "name": "status",
      "outputs": [
        {
          "internalType": "enum TellerCommon.LoanStatus",
          "name": "",
          "type": "uint8"
        }
      ],
      "stateMutability": "view",
      "type": "function"
    },
    {
      "inputs": [],
      "name": "strictDynamic",
      "outputs": [
        {
          "internalType": "bool",
          "name": "",
          "type": "bool"
        }
      ],
      "stateMutability": "view",
      "type": "function"
    },
    {
      "inputs": [
        {
          "internalType": "uint256",
          "name": "loanID",
          "type": "uint256"
        },
        {
          "internalType": "uint256",
          "name": "amountBorrow",
          "type": "uint256"
        }
      ],
      "name": "takeOutLoan",
      "outputs": [],
      "stateMutability": "nonpayable",
      "type": "function"
    },
    {
      "inputs": [
        {
          "internalType": "uint256",
          "name": "loanId",
          "type": "uint256"
        }
      ],
      "name": "termsExpiry",
      "outputs": [
        {
          "internalType": "uint256",
          "name": "",
          "type": "uint256"
        }
      ],
      "stateMutability": "view",
      "type": "function"
    },
    {
      "inputs": [],
      "name": "totalCollateral",
      "outputs": [
        {
          "internalType": "uint256",
          "name": "",
          "type": "uint256"
        }
      ],
      "stateMutability": "view",
      "type": "function"
    },
    {
      "inputs": [],
      "name": "updateLoanDataLogic",
      "outputs": [],
      "stateMutability": "nonpayable",
      "type": "function"
    },
    {
      "inputs": [],
      "name": "updateLoanTermsConsensusLogic",
      "outputs": [],
      "stateMutability": "nonpayable",
      "type": "function"
    },
    {
      "inputs": [
        {
          "internalType": "address",
          "name": "newImplementation",
          "type": "address"
        }
      ],
      "name": "upgradeProxyTo",
      "outputs": [],
      "stateMutability": "nonpayable",
      "type": "function"
    },
    {
      "inputs": [
        {
          "internalType": "uint256",
          "name": "amount",
          "type": "uint256"
        },
        {
          "internalType": "uint256",
          "name": "loanID",
          "type": "uint256"
        }
      ],
      "name": "withdrawCollateral",
      "outputs": [],
      "stateMutability": "nonpayable",
      "type": "function"
    }
  ],
  "transactionHash": "0x3f9dfa542c834a492e3df57b30d39c9b1f388ff81565ff8e35721e671f80211a",
  "args": [],
  "solcInputHash": "0c80e7fb8aff27a671cb2892ea4bafd6",
  "bytecode": "0x608060405234801561001057600080fd5b5061471d806100206000396000f3fe6080604052600436106103355760003560e01c8063854768c0116101ab578063d8aed145116100f7578063e949756111610095578063eee8b7ff1161006f578063eee8b7ff14610b44578063f8c8765e14610b71578063fdf6e4ea14610b91578063fec6889414610bc157610335565b8063e949756114610ae4578063eb12d61e14610b04578063eb78303b14610b2457610335565b8063e154e9a4116100d1578063e154e9a41461099f578063e1ec3c68146109b9578063e6a901c114610aa4578063e8906a2d14610ac457610335565b8063d8aed1451461094a578063db24c6831461096a578063e06174e41461097f57610335565b8063b2016bd411610164578063c49d99fd1161013e578063c49d99fd146108bc578063c9e02bef146108d1578063ccdd9f5d146108f1578063d68ff1911461091157610335565b8063b2016bd414610848578063b3076d0014610868578063b67805071461088857610335565b8063854768c01461076657806386f0a62114610786578063a59a9973146107a6578063aaaca558146107c6578063b06164cf146107e6578063b10b8a2c1461081b57610335565b806342d21ef71161028557806359c697f4116102235780635ebc6334116101fd5780635ebc6334146106cb57806369e527da146106eb57806372e113271461070b578063767a7b051461074657610335565b806359c697f4146106415780635ca879d7146106615780635ea2a2cf1461069157610335565b80634f8654bc1161025f5780634f8654bc146105b657806351348454146105db57806352d07b3b146105f157806355dbd8eb1461062157610335565b806342d21ef7146105295780634a26a71b146105705780634ac8eb5f146105a057610335565b8063226546a4116102f257806338c72f69116102cc57806338c72f69146104785780633ab01c0a146104ac5780633b1f18dd146104d95780633b9293001461050957610335565b8063226546a41461040a5780632c26486d1461042a57806337c3eedc1461044057610335565b806302bc2cdb1461033a57806304b0c79b1461035c57806310780bed1461039f5780631a74856b146103cf5780631de2e883146103e25780631eb83d54146103f5575b600080fd5b34801561034657600080fd5b5061035a610355366004614218565b610bf1565b005b34801561036857600080fd5b5061038c610377366004614200565b6000908152600f60205260409020600d015490565b6040519081526020015b60405180910390f35b3480156103ab57600080fd5b5061038c6103ba366004614200565b6000908152600f60205260409020600c015490565b61035a6103dd366004613eba565b61131e565b61035a6103f036600461406c565b6114ee565b34801561040157600080fd5b5061035a611a0f565b34801561041657600080fd5b5061038c610425366004614200565b611ade565b34801561043657600080fd5b5061038c60015481565b34801561044c57600080fd5b50600054610460906001600160a01b031681565b6040516001600160a01b039091168152602001610396565b34801561048457600080fd5b5061038c7f698a3c07617049c2f15d3f96333af3d44fbf5976ff9ca8e1df2e46ac61ce155a81565b3480156104b857600080fd5b506104cc6104c7366004613e2d565b611b4d565b60405161039691906143d6565b3480156104e557600080fd5b5061038c6104f4366004614200565b6000908152600f602052604090206009015490565b34801561051557600080fd5b5061038c610524366004614200565b611ba2565b34801561053557600080fd5b50610563610544366004614200565b6000908152600f60205260409020600e0154600160a01b900460ff1690565b60405161039691906143e9565b34801561057c57600080fd5b5061038c61058b366004614200565b6000908152600f602052604090206008015490565b3480156105ac57600080fd5b5061038c60105481565b3480156105c257600080fd5b506002546104609061010090046001600160a01b031681565b3480156105e757600080fd5b5061038c60165481565b3480156105fd57600080fd5b5061038c61060c366004614200565b6000908152600f60205260409020600b015490565b34801561062d57600080fd5b5061035a61063c366004613db6565b611bf3565b34801561064d57600080fd5b5061038c61065c366004614200565b611c72565b34801561066d57600080fd5b5061068161067c366004614200565b611cc4565b6040519015158152602001610396565b34801561069d57600080fd5b506106816106ac366004614200565b6000908152600f60205260409020600e0154600160a81b900460ff1690565b3480156106d757600080fd5b5061038c6106e6366004614200565b611d2c565b3480156106f757600080fd5b50601454610460906001600160a01b031681565b34801561071757600080fd5b5061072b610726366004614200565b611d7e565b60408051938452602084019290925290820152606001610396565b34801561075257600080fd5b5061035a610761366004614218565b611df8565b34801561077257600080fd5b50610681610781366004614200565b612145565b34801561079257600080fd5b5061038c6107a1366004614200565b612197565b3480156107b257600080fd5b50601154610460906001600160a01b031681565b3480156107d257600080fd5b50601254610460906001600160a01b031681565b3480156107f257600080fd5b50610806610801366004614200565b6121e9565b60408051928352602083019190915201610396565b34801561082757600080fd5b5061083b610836366004614200565b61225f565b6040516103969190614565565b34801561085457600080fd5b50601354610460906001600160a01b031681565b34801561087457600080fd5b50601c54610460906001600160a01b031681565b34801561089457600080fd5b5061038c7f87ff11116505b975498f87d319b3b9d631d98e48aa48a4655041faecc8d805ac81565b3480156108c857600080fd5b5061035a612310565b3480156108dd57600080fd5b506106816108ec366004614200565b6123cf565b3480156108fd57600080fd5b5061035a61090c366004614200565b612421565b34801561091d57600080fd5b5061046061092c366004614200565b6000908152600f60205260409020600e01546001600160a01b031690565b34801561095657600080fd5b5061035a610965366004614218565b6126fa565b34801561097657600080fd5b5061035a612aec565b34801561098b57600080fd5b50600454610460906001600160a01b031681565b3480156109ab57600080fd5b506002546106819060ff1681565b3480156109c557600080fd5b50610a8c6109d4366004614200565b600f602090815260009182526040918290208054835160c08101855260018301546001600160a01b03908116825260028401548116948201949094526003830154948101949094526004820154606085015260058201546080850152600682015460a0850152600782015460088301546009840154600a850154600b860154600c870154600d880154600e9098015496999895979496939592949193909281169060ff600160a01b8204811691600160a81b9004168c565b6040516103969c9b9a99989796959493929190614573565b348015610ab057600080fd5b50610681610abf366004614200565b612bab565b348015610ad057600080fd5b5061035a610adf366004613eee565b612bfd565b348015610af057600080fd5b5061038c610aff366004614218565b612cc8565b348015610b1057600080fd5b5061035a610b1f366004613db6565b612d3f565b348015610b3057600080fd5b5061072b610b3f36600461411a565b612e04565b348015610b5057600080fd5b50610b64610b5f366004613db6565b612e84565b6040516103969190614392565b348015610b7d57600080fd5b5061035a610b8c366004613dd2565b612ef0565b348015610b9d57600080fd5b5061038c610bac366004614200565b6000908152600f60205260409020600a015490565b348015610bcd57600080fd5b5061038c610bdc366004614200565b6000908152600f602052604090206007015490565b610bf961313d565b15610c0657610c06611a0f565b601b54600160a01b900460ff16610c385760405162461bcd60e51b8152600401610c2f90614453565b60405180910390fd5b601b805460ff60a01b19169055610c4d613165565b15610c6a5760405162461bcd60e51b8152600401610c2f90614427565b6011546001600160a01b0316610c7f816131ed565b15610c9c5760405162461bcd60e51b8152600401610c2f906143f7565b60048054604051636a3a61cd60e01b815233928101929092526001600160a01b031690636a3a61cd9060240160006040518083038186803b158015610ce057600080fd5b505afa158015610cf4573d6000803e3d6000fd5b5050506000848152600f60205260409020600101546001600160a01b031633149050610d515760405162461bcd60e51b815260206004820152600c60248201526b2727aa2fa127a92927aba2a960a11b6044820152606401610c2f565b60016000848152600f60205260409020600e0154600160a01b900460ff166003811115610d8e57634e487b7160e01b600052602160045260246000fd5b14610dca5760405162461bcd60e51b815260206004820152600c60248201526b1313d05397d393d517d4d15560a21b6044820152606401610c2f565b6000838152600f6020526040902060070154421115610e205760405162461bcd60e51b81526020600482015260126024820152711313d05397d511549354d7d156141254915160721b6044820152606401610c2f565b610e2982613270565b610e755760405162461bcd60e51b815260206004820152601a60248201527f535550504c595f544f5f444542545f455843454544535f4d41580000000000006044820152606401610c2f565b6000838152600f6020526040902060050154821115610eca5760405162461bcd60e51b815260206004820152601160248201527013505617d313d05397d15610d151511151607a1b6044820152606401610c2f565b6000610ed584611d7e565b506000868152600f60205260409020600901549092508213159050610f3c5760405162461bcd60e51b815260206004820152601860248201527f4d4f52455f434f4c4c41544552414c5f524551554952454400000000000000006044820152606401610c2f565b610fcc600460009054906101000a90046001600160a01b03166001600160a01b03166393d748246040518163ffffffff1660e01b815260040160206040518083038186803b158015610f8d57600080fd5b505afa158015610fa1573d6000803e3d6000fd5b505050506040513d601f19601f82011682018060405250810190610fc59190614004565b4290613378565b6000858152600f60205260409020600a0154111561102c5760405162461bcd60e51b815260206004820152601d60248201527f434f4c4c41544552414c5f4445504f53495445445f524543454e544c590000006044820152606401610c2f565b6000848152600f60205260409020600d8101849055600b018390556110518484612cc8565b6000858152600f60205260408120600c810192909255600e8201805460ff60a01b1916600160a11b1790554260089092019190915580611090866123cf565b905080156110fb576000868152600f60205260409020600201546001600160a01b0316156110d8576000868152600f60205260409020600201546001600160a01b03166110f4565b6000868152600f60205260409020600101546001600160a01b03165b9150611135565b61110486613384565b6000878152600f60205260409020600e0180546001600160a01b0319166001600160a01b0392909216918217905591505b601154604051631397424760e11b8152600481018790526001600160a01b0384811660248301529091169063272e848e90604401600060405180830381600087803b15801561118357600080fd5b505af1158015611197573d6000803e3d6000fd5b505050508061129d57604080518082018252601b81527f455343524f575f434f4e54524143545f4e4f545f444546494e454400000000006020808301919091526000898152600f90915291909120600e01546111fe916001600160a01b03909116906134f5565b6000868152600f602052604090819020600e8101546004805460115460125460019095015495516333e1a22360e01b81526001600160a01b039283169381019390935281166024830152604482018b90529283166064820152928216608484015216906333e1a2239060a401600060405180830381600087803b15801561128457600080fd5b505af1158015611298573d6000803e3d6000fd5b505050505b6000868152600f602052604090819020600e81015460019091015491516001600160a01b03918216929091169088907f85b5516a17ce775661a4b967b1fb30c852678f6598d86d9f3c99b7b60ff2d0ce906112fb908a815260200190565b60405180910390a45050601b805460ff60a01b1916600160a01b17905550505050565b61132661313d565b1561133357611333611a0f565b8161133d81612bab565b6113825760405162461bcd60e51b81526020600482015260166024820152751313d05397d393d517d050d512559157d3d497d4d15560521b6044820152606401610c2f565b61138a613165565b156113a75760405162461bcd60e51b8152600401610c2f90614427565b6011546001600160a01b03166113bc816131ed565b156113d95760405162461bcd60e51b8152600401610c2f906143f7565b60048054604051636a3a61cd60e01b815233928101929092526001600160a01b031690636a3a61cd9060240160006040518083038186803b15801561141d57600080fd5b505afa158015611431573d6000803e3d6000fd5b5050506000858152600f6020908152604091829020600101548251808401909352601983527f424f52524f5745525f4c4f414e5f49445f4d49534d41544348000000000000009183019190915261149792506001600160a01b038881169291169061351d565b600083116114dd5760405162461bcd60e51b815260206004820152601360248201527243414e4e4f545f4445504f5349545f5a45524f60681b6044820152606401610c2f565b6114e78484613550565b5050505050565b6114f661313d565b1561150357611503611a0f565b601b54600160a01b900460ff1661152c5760405162461bcd60e51b8152600401610c2f90614453565b601b805460ff60a01b19169055611541613165565b1561155e5760405162461bcd60e51b8152600401610c2f90614427565b61156d368590038501856140ff565b6000600460009054906101000a90046001600160a01b03166001600160a01b03166354409f2b6040518163ffffffff1660e01b815260040160206040518083038186803b1580156115bd57600080fd5b505afa1580156115d1573d6000803e3d6000fd5b505050506040513d601f19601f820116820180604052508101906115f59190614004565b90508160a0015181101561164b5760405162461bcd60e51b815260206004820152601d60248201527f4455524154494f4e5f455843454544535f4d41585f4455524154494f4e0000006044820152606401610c2f565b601c546012546080840151604051631a7fddd160e21b81526001600160a01b039283166004820152602481019190915260009291909116906369ff77449060440160206040518083038186803b1580156116a457600080fd5b505afa1580156116b8573d6000803e3d6000fd5b505050506040513d601f19601f820116820180604052508101906116dc9190613f5e565b9050801561172c5760405162461bcd60e51b815260206004820152601960248201527f414d4f554e545f455843454544535f4d41585f414d4f554e54000000000000006044820152606401610c2f565b6117398360800151613270565b6117855760405162461bcd60e51b815260206004820152601a60248201527f535550504c595f544f5f444542545f455843454544535f4d41580000000000006044820152606401610c2f565b60048054604051636a3a61cd60e01b815233928101929092526001600160a01b031690636a3a61cd9060240160006040518083038186803b1580156117c957600080fd5b505afa1580156117dd573d6000803e3d6000fd5b506117ef925050506020880188613db6565b6001600160a01b0316336001600160a01b0316146118445760405162461bcd60e51b81526020600482015260126024820152712727aa2fa627a0a72fa922a8aaa2a9aa22a960711b6044820152606401610c2f565b600080806118b361185a368c90038c018c6140ff565b8a8a808060200260200160405190810160405280939291908181526020016000905b828210156118a95761189a61012083028601368190038101906141e4565b8152602001906001019061187c565b5050505050612e04565b9194509250905060006118d66118ce368d90038d018d6140ff565b85858561361d565b905087156118e8576118e88189613550565b6119096118fb60408d0160208e01613db6565b6001600160a01b0316151590565b1561196357611917816123cf565b6119635760405162461bcd60e51b815260206004820152601960248201527f554e4445525f434f4c4c5f574954485f524543495049454e54000000000000006044820152606401610c2f565b6015600061197460208e018e613db6565b6001600160a01b03908116825260208083019390935260409182016000908120805460018101825590825284822001859055848152600f845282902060020154915160608f01358152911691339184917f40ed10b06bb9055e12a66cea10237c57a55e5830f61c79384d78f338f44d9e5e910160405180910390a45050601b805460ff60a01b1916600160a01b179055505050505050505050565b60008054600154604051638b51f58b60e01b81526001600160a01b0390921691638b51f58b91611a459160040190815260200190565b60606040518083038186803b158015611a5d57600080fd5b505afa158015611a71573d6000803e3d6000fd5b505050506040513d601f19601f82011682018060405250810190611a959190614239565b6002549093506001600160a01b0380851661010090920416149150611ad790505760028054610100600160a81b0319166101006001600160a01b038416021790555b5043600355565b601a54604051602481018390526000918291611b30916001600160a01b03169060440160408051601f198184030181529190526020810180516001600160e01b031663089951a960e21b17905261385e565b905080806020019051810190611b469190614004565b9392505050565b6060333014611b8f5760405162461bcd60e51b815260206004820152600e60248201526d24a72b20a624a22fa1a0a62622a960911b6044820152606401610c2f565b611b998383613927565b90505b92915050565b601a54604051602481018390526000918291611b30916001600160a01b03169060440160408051601f198184030181529190526020810180516001600160e01b0316623b929360e81b17905261385e565b6000546001600160a01b03163314611c465760405162461bcd60e51b81526020600482015260166024820152754d5553545f42455f4c4f4749435f524547495354525960501b6044820152606401610c2f565b600280546001600160a01b0390921661010002610100600160a81b031990921691909117905543600355565b601a54604051602481018390526000918291611b30916001600160a01b03169060440160408051601f198184030181529190526020810180516001600160e01b0316631671a5fd60e21b17905261385e565b601a54604051602481018390526000918291611d16916001600160a01b03169060440160408051601f198184030181529190526020810180516001600160e01b0316635ca879d760e01b17905261385e565b905080806020019051810190611b469190613f5e565b601a54604051602481018390526000918291611b30916001600160a01b03169060440160408051601f198184030181529190526020810180516001600160e01b03166317af18cd60e21b17905261385e565b601a5460405160248101839052600091829182918291611dd4916001600160a01b03169060440160408051601f198184030181529190526020810180516001600160e01b03166372e1132760e01b17905261385e565b905080806020019051810190611dea919061401c565b935093509350509193909250565b611e0061313d565b15611e0d57611e0d611a0f565b601b54600160a01b900460ff16611e365760405162461bcd60e51b8152600401610c2f90614453565b601b805460ff60a01b1916905580611e4d81612bab565b611e925760405162461bcd60e51b81526020600482015260166024820152751313d05397d393d517d050d512559157d3d497d4d15560521b6044820152606401610c2f565b611e9a613165565b15611eb75760405162461bcd60e51b8152600401610c2f90614427565b6011546001600160a01b0316611ecc816131ed565b15611ee95760405162461bcd60e51b8152600401610c2f906143f7565b60048054604051636a3a61cd60e01b815233928101929092526001600160a01b031690636a3a61cd9060240160006040518083038186803b158015611f2d57600080fd5b505afa158015611f41573d6000803e3d6000fd5b5050506000848152600f60205260409020600101546001600160a01b031633149050611fa85760405162461bcd60e51b815260206004820152601660248201527521a0a62622a92fa227a2a9a72a2fa7aba72fa627a0a760511b6044820152606401610c2f565b60008411611fef5760405162461bcd60e51b815260206004820152601460248201527343414e4e4f545f57495448445241575f5a45524f60601b6044820152606401610c2f565b60026000848152600f60205260409020600e0154600160a01b900460ff16600381111561202c57634e487b7160e01b600052602160045260246000fd5b14156120c057600061203d84611d7e565b5091505060008113156120ba576000848152600f60205260408120600901546120669083613378565b9050858110156120b85760405162461bcd60e51b815260206004820152601a60248201527f434f4c4c41544552414c5f414d4f554e545f544f4f5f484947480000000000006044820152606401610c2f565b505b50612121565b6000838152600f60205260409020600901548411156121215760405162461bcd60e51b815260206004820152601b60248201527f434f4c4c41544552414c5f414d4f554e545f4e4f545f4d4154434800000000006044820152606401610c2f565b61212c83853361399b565b5050601b805460ff60a01b1916600160a01b1790555050565b601a54604051602481018390526000918291611d16916001600160a01b03169060440160408051601f198184030181529190526020810180516001600160e01b03166302151da360e61b17905261385e565b601a54604051602481018390526000918291611b30916001600160a01b03169060440160408051601f198184030181529190526020810180516001600160e01b03166386f0a62160e01b17905261385e565b601a54604051602481018390526000918291829161223f916001600160a01b039091169060440160408051601f198184030181529190526020810180516001600160e01b031663b06164cf60e01b17905261385e565b9050808060200190518101906122559190614049565b9250925050915091565b6122aa6040518060c0016040528060006001600160a01b0316815260200160006001600160a01b03168152602001600081526020016000815260200160008152602001600081525090565b6000828152600f602052604090206040805160c08101825260018301546001600160a01b0390811682526002840154166020820152600383015491810191909152600482015460608201526005820154608082015260069091015460a082015292915050565b600054604051638b51f58b60e01b81527f698a3c07617049c2f15d3f96333af3d44fbf5976ff9ca8e1df2e46ac61ce155a60048201526001600160a01b0390911690638b51f58b9060240160606040518083038186803b15801561237357600080fd5b505afa158015612387573d6000803e3d6000fd5b505050506040513d601f19601f820116820180604052508101906123ab9190614239565b601a80546001600160a01b0319166001600160a01b03929092169190911790555050565b601a54604051602481018390526000918291611d16916001600160a01b03169060440160408051601f198184030181529190526020810180516001600160e01b031663c9e02bef60e01b17905261385e565b61242961313d565b1561243657612436611a0f565b601b54600160a01b900460ff1661245f5760405162461bcd60e51b8152600401610c2f90614453565b601b805460ff60a01b191690558060026000828152600f60205260409020600e0154600160a01b900460ff1660038111156124aa57634e487b7160e01b600052602160045260246000fd5b146124e95760405162461bcd60e51b815260206004820152600f60248201526e4c4f414e5f4e4f545f41435449564560881b6044820152606401610c2f565b6124f1613165565b1561250e5760405162461bcd60e51b8152600401610c2f90614427565b6011546001600160a01b0316612523816131ed565b156125405760405162461bcd60e51b8152600401610c2f906143f7565b61254983611cc4565b6125955760405162461bcd60e51b815260206004820152601760248201527f444f45534e545f4e4545445f4c49515549444154494f4e0000000000000000006044820152606401610c2f565b60006125a084611d2c565b6000858152600f60205260408120600c810154600b9091015492935090916125c791613a01565b6011546000878152600f602052604090819020600b810154600c90910154915163b1e8f8ef60e01b8152600481019190915260248101919091523360448201529192506001600160a01b03169063b1e8f8ef90606401600060405180830381600087803b15801561263757600080fd5b505af115801561264b573d6000803e3d6000fd5b5050506000868152600f60205260409020600e01805461ffff60a01b191661010360a01b1790555061267e858333613a0d565b6000858152600f60209081526040918290206001015482513381529182018590529181018390526001600160a01b039091169086907f4ca647aea530b1ffb7616d399ad7e257e470510d1f439f1ea0b155e55b3994f99060600160405180910390a35050601b805460ff60a01b1916600160a01b179055505050565b61270261313d565b1561270f5761270f611a0f565b601b54600160a01b900460ff166127385760405162461bcd60e51b8152600401610c2f90614453565b601b805460ff60a01b191690558060026000828152600f60205260409020600e0154600160a01b900460ff16600381111561278357634e487b7160e01b600052602160045260246000fd5b146127c25760405162461bcd60e51b815260206004820152600f60248201526e4c4f414e5f4e4f545f41435449564560881b6044820152606401610c2f565b6127ca613165565b156127e75760405162461bcd60e51b8152600401610c2f90614427565b6011546001600160a01b03166127fc816131ed565b156128195760405162461bcd60e51b8152600401610c2f906143f7565b60048054604051636a3a61cd60e01b815233928101929092526001600160a01b031690636a3a61cd9060240160006040518083038186803b15801561285d57600080fd5b505afa158015612871573d6000803e3d6000fd5b50505050600084116128bd5760405162461bcd60e51b8152602060048201526015602482015274105353d5539517d59053155157d491545552549151605a1b6044820152606401610c2f565b60006128c884611ba2565b9050848110156128d6578094505b6128e08186613378565b6000858152600f60205260408120600c015491925090819087101561293557506000858152600f60205260409020600c0154869061291e9082613378565b6000878152600f60205260409020600c01556129b6565b6000868152600f60205260409020600c01541561297e57506000858152600f60205260409020600c01546129698782613378565b6000878152600f60205260408120600c015596505b86156129b6576000868152600f60205260409020600b01548792506129a39083613378565b6000878152600f60205260409020600b01555b60115460405163b1e8f8ef60e01b815260048101849052602481018390523360448201526001600160a01b039091169063b1e8f8ef90606401600060405180830381600087803b158015612a0957600080fd5b505af1158015612a1d573d6000803e3d6000fd5b505050508260001415612a6c576000868152600f60205260409020600e8101805460ff60a01b1916600360a01b1790556009810154600190910154612a6c9188916001600160a01b031661399b565b6000868152600f60205260409020600101546001600160a01b0316867f20a1f2ec363af45dc5ee7d9d622f2dd68b52501c382126c7f04b53663c4c69bf612ab38585613a01565b60408051918252336020830152810187905260600160405180910390a35050601b805460ff60a01b1916600160a01b1790555050505050565b600054604051638b51f58b60e01b81527f87ff11116505b975498f87d319b3b9d631d98e48aa48a4655041faecc8d805ac60048201526001600160a01b0390911690638b51f58b9060240160606040518083038186803b158015612b4f57600080fd5b505afa158015612b63573d6000803e3d6000fd5b505050506040513d601f19601f82011682018060405250810190612b879190614239565b601b80546001600160a01b0319166001600160a01b03929092169190911790555050565b601a54604051602481018390526000918291611d16916001600160a01b03169060440160408051601f198184030181529190526020810180516001600160e01b031663e6a901c160e01b17905261385e565b612c0561313d565b15612c1257612c12611a0f565b6004805460405163c095ea2760e01b815233928101929092526001600160a01b03169063c095ea279060240160006040518083038186803b158015612c5657600080fd5b505afa158015612c6a573d6000803e3d6000fd5b5050601b54604051612cc393506001600160a01b039091169150612c949085908590602401614344565b60408051601f198184030181529190526020810180516001600160e01b031663e8906a2d60e01b179052613927565b505050565b601a5460405160248101849052604481018390526000918291612d21916001600160a01b03169060640160408051601f198184030181529190526020810180516001600160e01b031663e949756160e01b17905261385e565b905080806020019051810190612d379190614004565b949350505050565b612d4761313d565b15612d5457612d54611a0f565b6004805460405163c095ea2760e01b815233928101929092526001600160a01b03169063c095ea279060240160006040518083038186803b158015612d9857600080fd5b505afa158015612dac573d6000803e3d6000fd5b5050601b546040516001600160a01b038581166024830152612e009450909116915060440160408051601f198184030181529190526020810180516001600160e01b03166375896b0f60e11b179052613927565b5050565b601b54604051600091829182918291612e60916001600160a01b031690612e319089908990602401614477565b60408051601f198184030181529190526020810180516001600160e01b031663eb78303b60e01b17905261385e565b905080806020019051810190612e76919061401c565b935093509350509250925092565b6001600160a01b038116600090815260156020908152604091829020805483518184028101840190945280845260609392830182828015612ee457602002820191906000526020600020905b815481526020019060010190808311612ed0575b50505050509050919050565b60408051808201909152601c81527f50524f564944455f4c454e44494e475f504f4f4c5f41444452455353000000006020820152612f38906001600160a01b038616906134f5565b612f4183613b46565b601180546001600160a01b0319166001600160a01b0386169081179091556040805163155594ab60e31b8152905163aaaca55891600480820192602092909190829003018186803b158015612f9557600080fd5b505afa158015612fa9573d6000803e3d6000fd5b505050506040513d601f19601f82011682018060405250810190612fcd9190613fe8565b601280546001600160a01b0319166001600160a01b03928316179055601154604080516334f293ed60e11b8152905191909216916369e527da916004808301926020929190829003018186803b15801561302657600080fd5b505afa15801561303a573d6000803e3d6000fd5b505050506040513d601f19601f8201168201806040525081019061305e9190613fe8565b601480546001600160a01b03199081166001600160a01b039384161790915560198054909116838316179055600480546040805162b3076d60e81b81529051919093169263b3076d009281810192602092909190829003018186803b1580156130c657600080fd5b505afa1580156130da573d6000803e3d6000fd5b505050506040513d601f19601f820116820180604052508101906130fe9190613fe8565b601c80546001600160a01b03199081166001600160a01b039384161790915560138054909116918416919091179055613135612310565b61212c612aec565b60025460009060ff168015613160575043600354600161315d9190614648565b11155b905090565b6000600460009054906101000a90046001600160a01b03166001600160a01b031663b187bd266040518163ffffffff1660e01b815260040160206040518083038186803b1580156131b557600080fd5b505afa1580156131c9573d6000803e3d6000fd5b505050506040513d601f19601f820116820180604052508101906131609190613f5e565b60048054604051633b66832160e01b81526001600160a01b038481169382019390935260009290911690633b6683219060240160206040518083038186803b15801561323857600080fd5b505afa15801561324c573d6000803e3d6000fd5b505050506040513d601f19601f82011682018060405250810190611b9c9190613f5e565b601c546012546040516362d128d160e01b81526001600160a01b03918216600482015260009291909116906362d128d19060240160206040518083038186803b1580156132bc57600080fd5b505afa1580156132d0573d6000803e3d6000fd5b505050506040513d601f19601f820116820180604052508101906132f49190614004565b60115460405163126e099960e31b8152600481018590526001600160a01b03909116906393704cc89060240160206040518083038186803b15801561333857600080fd5b505afa15801561334c573d6000803e3d6000fd5b505050506040513d601f19601f820116820180604052508101906133709190614004565b111592915050565b6000611b998284614660565b6000818152600f60205260408120600e01546001600160a01b0316156133ec5760405162461bcd60e51b815260206004820152601a60248201527f4c4f414e5f455343524f575f414c52454144595f4558495354530000000000006044820152606401610c2f565b601954613401906001600160a01b0316613bb0565b6000546040516307397e5b60e51b81526001600160a01b0391821660048201527fb9bc528025c382c0c8143814a1df5b62366b6d562d71f58bf61651b823f9809460248201526001604482015291925082169063e72fcb6090606401600060405180830381600087803b15801561347757600080fd5b505af115801561348b573d6000803e3d6000fd5b505060048054604051630e5a3be960e21b81526001600160a01b038681169382019390935291169250633968efa49150602401600060405180830381600087803b1580156134d857600080fd5b505af11580156134ec573d6000803e3d6000fd5b50505050919050565b806001600160a01b038316612cc35760405162461bcd60e51b8152600401610c2f91906143d6565b806001600160a01b038381169085161461354a5760405162461bcd60e51b8152600401610c2f91906143d6565b50505050565b8034146135965760405162461bcd60e51b8152602060048201526014602482015273125390d3d4949150d517d1551217d05353d5539560621b6044820152606401610c2f565b6010546135a39082613a01565b6010556000828152600f60205260409020600901546135c29082613a01565b6000838152600f6020908152604091829020600981019390935542600a9093019290925551828152339184917feec2f3feb835e2f2fd44281034b04700a1ddda63dd402949d470a25a7c40b36c910160405180910390a35050565b60165460009061362e816001613a01565b601655600080828152600f60205260409020600e0154600160a01b900460ff16600381111561366d57634e487b7160e01b600052602160045260246000fd5b146136b05760405162461bcd60e51b81526020600482015260136024820152724c4f414e5f414c52454144595f45584953545360681b6044820152606401610c2f565b85516001600160a01b03166136f85760405162461bcd60e51b815260206004820152600e60248201526d424f52524f5745525f454d50545960901b6044820152606401610c2f565b6000818152600f60205260409020818155600e0180546001919060ff60a01b1916600160a01b8302179055506040805160c08101825287516001600160a01b0390811682526020808a015182168184019081528385018a8152606085018a8152608086018a815260a0808f015190880190815260008a8152600f8752898120985160018a018054918a166001600160a01b0319928316179055955160028a018054918a1691909716179095559251600388015590516004808801919091559051600587015590516006909501949094558354855163cfa8bb9360e01b81529551919593169363cfa8bb939380820193929190829003018186803b1580156137fe57600080fd5b505afa158015613812573d6000803e3d6000fd5b505050506040513d601f19601f820116820180604052508101906138369190614004565b90506138424282613a01565b6000838152600f60205260409020600701555095945050505050565b6060600080306001600160a01b03168585604051602401613880929190614320565b60408051601f198184030181529181526020820180516001600160e01b0316631d580e0560e11b179052516138b59190614304565b600060405180830381855afa9150503d80600081146138f0576040519150601f19603f3d011682016040523d82523d6000602084013e6138f5565b606091505b5091509150600082141561390a573d60208201fd5b8080602001905181019061391e9190613f7e565b95945050505050565b60606000836001600160a01b0316836040516139439190614304565b600060405180830381855af49150503d806000811461397e576040519150601f19603f3d011682016040523d82523d6000602084013e613983565b606091505b509250905080613994573d60208301fd5b5092915050565b6139a6838383613c02565b6000838152600f60209081526040918290206001015491518481526001600160a01b0384811693169186917f354da53cd88eb0936caa11700c1928b13f3f2803cca6f4f464ceff3b4bd7d38e910160405180910390a4505050565b6000611b998284614648565b60008213613a1a57612cc3565b6000838152600f60205260409020600901548290811015613a4557613a40848284613c02565b61354a565b6000848152600f6020526040902060090154811061354a576000848152600f6020526040812060090154613a7a908390613378565b6000868152600f6020526040902060090154909150613a9b90869085613c02565b600081118015613ac457506000858152600f60205260409020600e01546001600160a01b031615155b156114e7576000858152600f602052604090819020600e015490516352fbd9cb60e11b81526001600160a01b038581166004830152602482018490529091169063a5f7b39690604401600060405180830381600087803b158015613b2757600080fd5b505af1158015613b3b573d6000803e3d6000fd5b505050505050505050565b60408051808201909152601981527f53455454494e47535f4d5553545f42455f50524f5649444544000000000000006020820152613b8e906001600160a01b038316906134f5565b600480546001600160a01b0319166001600160a01b0392909216919091179055565b6000808260601b9050604051733d602d80600a3d3981f3363d3d373d3d3d363d7360601b81528160148201526e5af43d82803e903d91602b57fd5bf360881b60288201526037816000f0949350505050565b601054613c0f9083613378565b6010556000838152600f6020526040902060090154613c2e9083613378565b6000848152600f60205260408082206009019290925590516001600160a01b0383169184156108fc02918591818181858888f1935050505015801561354a573d6000803e3d6000fd5b600060e08284031215613c88578081fd5b613c9260e06145ef565b90508135613c9f816146cf565b81526020820135613caf816146cf565b60208201526040820135613cc2816146cf565b80604083015250606082013560608201526080820135608082015260a082013560a082015260c082013560c082015292915050565b6000818303610120811215613d0a578182fd5b613d1460e06145ef565b91508235613d21816146cf565b82526020830135613d31816146cf565b8060208401525060408301356040830152606083013560608301526080830135608083015260a083013560a0830152606060bf1982011215613d7257600080fd5b50613d7d60606145ef565b60c083013560ff81168114613d9157600080fd5b815260e0830135602082015261010090920135604083015260c0810191909152919050565b600060208284031215613dc7578081fd5b8135611b46816146cf565b60008060008060808587031215613de7578283fd5b8435613df2816146cf565b93506020850135613e02816146cf565b92506040850135613e12816146cf565b91506060850135613e22816146cf565b939692955090935050565b60008060408385031215613e3f578182fd5b8235613e4a816146cf565b9150602083013567ffffffffffffffff811115613e65578182fd5b8301601f81018513613e75578182fd5b8035613e88613e8382614620565b6145ef565b818152866020838501011115613e9c578384fd5b81602084016020830137908101602001929092525090939092509050565b600080600060608486031215613ece578081fd5b8335613ed9816146cf565b95602085013595506040909401359392505050565b60008060208385031215613f00578182fd5b823567ffffffffffffffff80821115613f17578384fd5b818501915085601f830112613f2a578384fd5b813581811115613f38578485fd5b8660208260051b8501011115613f4c578485fd5b60209290920196919550909350505050565b600060208284031215613f6f578081fd5b81518015158114611b46578182fd5b600060208284031215613f8f578081fd5b815167ffffffffffffffff811115613fa5578182fd5b8201601f81018413613fb5578182fd5b8051613fc3613e8382614620565b818152856020838501011115613fd7578384fd5b61391e826020830160208601614677565b600060208284031215613ff9578081fd5b8151611b46816146cf565b600060208284031215614015578081fd5b5051919050565b600080600060608486031215614030578081fd5b8351925060208401519150604084015190509250925092565b6000806040838503121561405b578182fd5b505080516020909101519092909150565b60008060008084860361012080821215614084578384fd5b60e0821215614091578384fd5b86955060e0870135915067ffffffffffffffff808311156140b0578485fd5b828801925088601f8401126140c3578485fd5b8235818111156140d1578586fd5b89602084830286010111156140e4578586fd5b96996020939093019850959661010001359550909350505050565b600060e08284031215614110578081fd5b611b998383613c77565b600080610100838503121561412d578182fd5b6141378484613c77565b915060e083013567ffffffffffffffff80821115614153578283fd5b818501915085601f830112614166578283fd5b813560208282111561417a5761417a6146b9565b614188818360051b016145ef565b8281528181019350848201610120808502870184018b10156141a8578788fd5b8796505b848710156141d4576141be8b83613cf7565b86526001969096019594830194908101906141ac565b5096999098509650505050505050565b600061012082840312156141f6578081fd5b611b998383613cf7565b600060208284031215614211578081fd5b5035919050565b6000806040838503121561422a578182fd5b50508035926020909101359150565b60008060006060848603121561424d578081fd5b83519250602084015191506040840151614266816146cf565b809150509250925092565b60008151808452614289816020860160208601614677565b601f01601f19169290920160200192915050565b600481106142bb57634e487b7160e01b600052602160045260246000fd5b9052565b80516001600160a01b0390811683526020808301519091169083015260408082015190830152606080820151908301526080808201519083015260a090810151910152565b60008251614316818460208701614677565b9190910192915050565b6001600160a01b0383168152604060208201819052600090612d3790830184614271565b60208082528181018390526000908460408401835b8681101561438757823561436c816146cf565b6001600160a01b031682529183019190830190600101614359565b509695505050505050565b6020808252825182820181905260009190848201906040850190845b818110156143ca578351835292840192918401916001016143ae565b50909695505050505050565b600060208252611b996020830184614271565b60208101611b9c828461429d565b60208082526016908201527513115391125391d7d413d3d317d254d7d4105554d15160521b604082015260600190565b602080825260129082015271141310551193d49357d254d7d4105554d15160721b604082015260600190565b6020808252600a90820152691c994b595b9d195c995960b21b604082015260600190565b600061010080830160018060a01b03808751168552602081818901511681870152604082818a015116818801526060808a0151818901526080808b0151818a015260a0808c0151818b015260c0808d0151818c015260e089818d0152888d51808b526101209a508a8e019150888f018d5b8281101561454d57815180518d1685528b8101518d168c8601528a8101518b860152898101518a86015288810151898601528781015188860152860151805160ff1687860152808c0151868601528a01518e850152928c0192908a01906001016144e8565b505050809b5050505050505050505050509392505050565b60c08101611b9c82846142bf565b8c81526102208101614588602083018e6142bf565b8b60e08301528a61010083015289610120830152886101408301528761016083015286610180830152856101a083015260018060a01b0385166101c08301526145d56101e083018561429d565b8215156102008301529d9c50505050505050505050505050565b604051601f8201601f1916810167ffffffffffffffff81118282101715614618576146186146b9565b604052919050565b600067ffffffffffffffff82111561463a5761463a6146b9565b50601f01601f191660200190565b6000821982111561465b5761465b6146a3565b500190565b600082821015614672576146726146a3565b500390565b60005b8381101561469257818101518382015260200161467a565b8381111561354a5750506000910152565b634e487b7160e01b600052601160045260246000fd5b634e487b7160e01b600052604160045260246000fd5b6001600160a01b03811681146146e457600080fd5b5056fea26469706673582212207fcc5587f230ccf514f1984b8d49be377a810b703f966cd6b1b9879ff4695ac764736f6c63430008030033",
  "devdoc": {
    "author": "develop@teller.finance",
    "kind": "dev",
    "methods": {
      "_updateImplementationStored()": {
        "details": "It uses the LogicVersionsRegistry contract to get the logic address or the cached address if valid.It caches the current logic address for the proxy to reduce gas on subsequent calls within the same block."
      },
      "addSigner(address)": {
        "details": "The sender must be the owner.It throws a require error if the sender is not the owner.",
        "params": {
          "account": "address to add."
        }
      },
      "addSigners(address[])": {
        "details": "The sender must be the owner.It throws a require error if the sender is not the owner.",
        "params": {
          "accounts": "addresses to add."
        }
      },
      "createLoanWithTerms((address,address,address,uint256,uint256,uint256,uint256),(address,address,uint256,uint256,uint256,uint256,(uint8,bytes32,bytes32))[],uint256)": {
        "params": {
          "collateralAmount": "Amount of collateral required for the loan",
          "request": "Struct of the protocol loan request",
          "responses": "List of structs of the protocol loan responses"
        }
      },
      "depositCollateral(address,uint256,uint256)": {
        "params": {
          "amount": "The amount to deposit as collateral.",
          "borrower": "The address of the loan borrower.",
          "loanID": "The ID of the loan the collateral is for"
        }
      },
      "initialize(address,address,address,address)": {
        "params": {
          "collateralTokenAddress": "Address of the collateral token for loans in this contract.",
          "initDynamicProxyLogicAddress": "Address of a deployed InitializeableDynamicProxy contract.",
          "lendingPoolAddress": "Address of the LendingPool.",
          "settingsAddress": "Address for the platform Settings contract."
        }
      },
      "liquidateLoan(uint256)": {
        "params": {
          "loanID": "The ID of the loan to be liquidated"
        }
      },
      "processLoanTerms((address,address,address,uint256,uint256,uint256,uint256),(address,address,uint256,uint256,uint256,uint256,(uint8,bytes32,bytes32))[])": {
        "params": {
          "request": "Struct of the protocol loan request",
          "responses": "List of structs of the protocol loan responses"
        },
        "returns": {
          "_0": "uint256 Interest rate",
          "_1": "uint256 Collateral ratio",
          "_2": "uint256 Maximum loan amount"
        }
      },
      "repay(uint256,uint256)": {
        "params": {
          "amount": "The amount of tokens to pay back to the loan",
          "loanID": "The ID of the loan the payment is for"
        }
      },
      "takeOutLoan(uint256,uint256)": {
        "details": "collateral ratio is a percentage of the loan amount that's required in collateralthe percentage will be *(10**2). I.e. collateralRatio of 5244 means 52.44% collateralis required in the loan. Interest rate is also a percentage with 2 decimal points."
      },
      "withdrawCollateral(uint256,uint256)": {
        "params": {
          "amount": "The amount of collateral token or ether the caller is hoping to withdraw.",
          "loanID": "The ID of the loan the collateral is for"
        }
      }
    },
    "version": 1
  },
  "userdoc": {
    "events": {
      "CollateralDeposited(uint256,address,uint256)": {
        "notice": "This event is emitted when collateral has been deposited for the loan"
      },
      "CollateralWithdrawn(uint256,address,address,uint256)": {
        "notice": "This event is emitted when collateral has been withdrawn"
      },
      "LoanLiquidated(uint256,address,address,int256,uint256)": {
        "notice": "This event is emitted when a loan has been successfully liquidated"
      },
      "LoanRepaid(uint256,address,uint256,address,uint256)": {
        "notice": "This event is emitted when a loan has been successfully repaid"
      },
      "LoanTakenOut(uint256,address,address,uint256)": {
        "notice": "This event is emitted when a loan has been successfully taken out"
      },
      "LoanTermsSet(uint256,address,address,uint256)": {
        "notice": "This event is emitted when loan terms have been successfully set"
      }
    },
    "kind": "user",
    "methods": {
      "LOAN_DATA_LOGIC_NAME()": {
        "notice": "Holds the logic name used for the LoanData contract."
      },
      "LOAN_TERMS_CONSENSUS_LOGIC_NAME()": {
        "notice": "Holds the logic name used for the LoanTermsConsensus contract."
      },
      "_updateImplementationStored()": {
        "notice": "Updates the current implementation logic address for the stored logic name."
      },
      "addSigner(address)": {
        "notice": "It adds a new account as a signer."
      },
      "addSigners(address[])": {
        "notice": "It adds a list of account as signers."
      },
      "assetSettings()": {
        "notice": "It holds the platform AssetSettings instance."
      },
      "cToken()": {
        "notice": "Holds the Compound cToken where the underlying token matches the lending token."
      },
      "canGoToEOA(uint256)": {
        "notice": "See LoanData.canGoToEOA"
      },
      "collateralToken()": {
        "notice": "Holds the collateral token."
      },
      "createLoanWithTerms((address,address,address,uint256,uint256,uint256,uint256),(address,address,uint256,uint256,uint256,uint256,(uint8,bytes32,bytes32))[],uint256)": {
        "notice": "Creates a loan with the loan request and terms"
      },
      "depositCollateral(address,uint256,uint256)": {
        "notice": "Deposit collateral tokens into a loan."
      },
      "getBorrowerLoans(address)": {
        "notice": "See LoanData.getBorrowerLoans"
      },
      "getCollateralInLendingTokens(uint256)": {
        "notice": "See LoanData.getCollateralInLendingTokens"
      },
      "getCollateralNeededInTokens(uint256)": {
        "notice": "See LoanData.getCollateralNeededInTokens"
      },
      "getCollateralNeededInfo(uint256)": {
        "notice": "See LoanData.getCollateralNeededInfo"
      },
      "getInterestOwedFor(uint256,uint256)": {
        "notice": "See LoanData.getInterestOwedFor"
      },
      "getInterestRatio(uint256)": {
        "notice": "See LoanData.getInterestRatio"
      },
      "getLiquidationReward(uint256)": {
        "notice": "See LoanData.getLiquidationReward"
      },
      "getLoanAmount(uint256)": {
        "notice": "See LoanData.getLoanAmount"
      },
      "getTotalOwed(uint256)": {
        "notice": "See LoanData.getTotalOwed"
      },
      "implementationStored()": {
        "notice": "It stores the last known logic address locally to reduce gas costs."
      },
      "initialize(address,address,address,address)": {
        "notice": "Initializes the current contract instance setting the required parameters."
      },
      "isActiveOrSet(uint256)": {
        "notice": "See LoanData.isActiveOrSet"
      },
      "isLiquidable(uint256)": {
        "notice": "See LoanData.isLiquidable"
      },
      "isLoanSecured(uint256)": {
        "notice": "See LoanData.isLoanSecured"
      },
      "lendingPool()": {
        "notice": "Holds the instance of the LendingPool used by the LoanManager."
      },
      "lendingToken()": {
        "notice": "Holds the lending token used for creating loans by the LoanManager and LendingPool."
      },
      "liquidateLoan(uint256)": {
        "notice": "Liquidate a loan if it is expired or under collateralized"
      },
      "loanIDCounter()": {
        "notice": "Holds the ID of loans taken out"
      },
      "loans(uint256)": {
        "notice": "Holds the data of all loans for the lending token."
      },
      "logicName()": {
        "notice": "It represent the logic name (key) used for this proxy."
      },
      "logicRegistry()": {
        "notice": "It returns the logic registry that is used to determine the implementation logic for this proxy."
      },
      "processLoanTerms((address,address,address,uint256,uint256,uint256,uint256),(address,address,uint256,uint256,uint256,uint256,(uint8,bytes32,bytes32))[])": {
        "notice": "Processes the loan request"
      },
      "repay(uint256,uint256)": {
        "notice": "Make a payment to a loan"
      },
      "settings()": {
        "notice": "It holds the platform Settings instance."
      },
      "strictDynamic()": {
        "notice": "Boolean indicating if the proxy must check the registry for a new implementation."
      },
      "takeOutLoan(uint256,uint256)": {
        "notice": "Take out a loan"
      },
      "totalCollateral()": {
        "notice": "Holds the total amount of collateral held by the contract."
      },
      "updateLoanDataLogic()": {
        "notice": "It calls the LogicVersionRegistry to update the stored logic address for LoanData."
      },
      "updateLoanTermsConsensusLogic()": {
        "notice": "It calls the LogicVersionRegistry to update the stored logic address for LoanTermsConsensus."
      },
      "upgradeProxyTo(address)": {
        "notice": "It updates a proxy's cached implementation address.It must only be called by the LogicVersionsRegistry for non strict DynamicProxy"
      },
      "withdrawCollateral(uint256,uint256)": {
        "notice": "Withdraw collateral from a loan, unless this isn't allowed"
      }
    },
    "notice": "This contract is used as a basis for the creation of the different types of loans across the platformIt implements the Base contract from Teller and the ILoanManager",
    "version": 1
  },
  "storageLayout": {
    "storage": [
      {
        "astId": 13960,
        "contract": "contracts/base/loans/LoanManager.sol:LoanManager",
        "label": "logicRegistry",
        "offset": 0,
        "slot": "0",
        "type": "t_contract(LogicVersionsRegistryInterface)14789"
      },
      {
        "astId": 13963,
        "contract": "contracts/base/loans/LoanManager.sol:LoanManager",
        "label": "logicName",
        "offset": 0,
        "slot": "1",
        "type": "t_bytes32"
      },
      {
        "astId": 13966,
        "contract": "contracts/base/loans/LoanManager.sol:LoanManager",
        "label": "strictDynamic",
        "offset": 0,
        "slot": "2",
        "type": "t_bool"
      },
      {
        "astId": 13969,
        "contract": "contracts/base/loans/LoanManager.sol:LoanManager",
        "label": "implementationStored",
        "offset": 1,
        "slot": "2",
        "type": "t_address"
      },
      {
        "astId": 13972,
        "contract": "contracts/base/loans/LoanManager.sol:LoanManager",
        "label": "_implementationBlockUpdated",
        "offset": 0,
        "slot": "3",
        "type": "t_uint256"
      },
      {
        "astId": 1898,
        "contract": "contracts/base/loans/LoanManager.sol:LoanManager",
        "label": "settings",
        "offset": 0,
        "slot": "4",
        "type": "t_contract(SettingsInterface)15153"
      },
      {
        "astId": 1903,
        "contract": "contracts/base/loans/LoanManager.sol:LoanManager",
        "label": "__gap",
        "offset": 0,
        "slot": "5",
        "type": "t_array(t_uint256)10_storage"
      },
      {
        "astId": 15523,
        "contract": "contracts/base/loans/LoanManager.sol:LoanManager",
        "label": "loans",
        "offset": 0,
        "slot": "15",
        "type": "t_mapping(t_uint256,t_struct(Loan)19171_storage)"
      },
      {
        "astId": 10536,
        "contract": "contracts/base/loans/LoanManager.sol:LoanManager",
        "label": "totalCollateral",
        "offset": 0,
        "slot": "16",
        "type": "t_uint256"
      },
      {
        "astId": 10541,
        "contract": "contracts/base/loans/LoanManager.sol:LoanManager",
        "label": "lendingPool",
        "offset": 0,
        "slot": "17",
        "type": "t_contract(LendingPoolInterface)14684"
      },
      {
        "astId": 10545,
        "contract": "contracts/base/loans/LoanManager.sol:LoanManager",
        "label": "lendingToken",
        "offset": 0,
        "slot": "18",
        "type": "t_address"
      },
      {
        "astId": 10549,
        "contract": "contracts/base/loans/LoanManager.sol:LoanManager",
        "label": "collateralToken",
        "offset": 0,
        "slot": "19",
        "type": "t_address"
      },
      {
        "astId": 10554,
        "contract": "contracts/base/loans/LoanManager.sol:LoanManager",
        "label": "cToken",
        "offset": 0,
        "slot": "20",
        "type": "t_contract(CErc20Interface)16245"
      },
      {
        "astId": 10560,
        "contract": "contracts/base/loans/LoanManager.sol:LoanManager",
        "label": "borrowerLoans",
        "offset": 0,
        "slot": "21",
        "type": "t_mapping(t_address,t_array(t_uint256)dyn_storage)"
      },
      {
        "astId": 10564,
        "contract": "contracts/base/loans/LoanManager.sol:LoanManager",
        "label": "loanIDCounter",
        "offset": 0,
        "slot": "22",
        "type": "t_uint256"
      },
      {
        "astId": 10568,
        "contract": "contracts/base/loans/LoanManager.sol:LoanManager",
        "label": "signers",
        "offset": 0,
        "slot": "23",
        "type": "t_struct(AddressArray)17340_storage"
      },
      {
        "astId": 10571,
        "contract": "contracts/base/loans/LoanManager.sol:LoanManager",
        "label": "initDynamicProxyLogic",
        "offset": 0,
        "slot": "25",
        "type": "t_address"
      },
      {
        "astId": 10574,
        "contract": "contracts/base/loans/LoanManager.sol:LoanManager",
        "label": "loanData",
        "offset": 0,
        "slot": "26",
        "type": "t_address"
      },
      {
        "astId": 10577,
        "contract": "contracts/base/loans/LoanManager.sol:LoanManager",
        "label": "loanTermsConsensus",
        "offset": 0,
        "slot": "27",
        "type": "t_address"
      },
      {
        "astId": 10591,
        "contract": "contracts/base/loans/LoanManager.sol:LoanManager",
        "label": "_notEntered",
        "offset": 20,
        "slot": "27",
        "type": "t_bool"
      },
      {
        "astId": 10595,
        "contract": "contracts/base/loans/LoanManager.sol:LoanManager",
        "label": "assetSettings",
        "offset": 0,
        "slot": "28",
        "type": "t_contract(AssetSettingsInterface)14175"
      }
    ],
    "types": {
      "t_address": {
        "encoding": "inplace",
        "label": "address",
        "numberOfBytes": "20"
      },
      "t_address_payable": {
        "encoding": "inplace",
        "label": "address payable",
        "numberOfBytes": "20"
      },
      "t_array(t_address)dyn_storage": {
        "base": "t_address",
        "encoding": "dynamic_array",
        "label": "address[]",
        "numberOfBytes": "32"
      },
      "t_array(t_uint256)10_storage": {
        "base": "t_uint256",
        "encoding": "inplace",
        "label": "uint256[10]",
        "numberOfBytes": "320"
      },
      "t_array(t_uint256)dyn_storage": {
        "base": "t_uint256",
        "encoding": "dynamic_array",
        "label": "uint256[]",
        "numberOfBytes": "32"
      },
      "t_bool": {
        "encoding": "inplace",
        "label": "bool",
        "numberOfBytes": "1"
      },
      "t_bytes32": {
        "encoding": "inplace",
        "label": "bytes32",
        "numberOfBytes": "32"
      },
      "t_contract(AssetSettingsInterface)14175": {
        "encoding": "inplace",
        "label": "contract AssetSettingsInterface",
        "numberOfBytes": "20"
      },
      "t_contract(CErc20Interface)16245": {
        "encoding": "inplace",
        "label": "contract CErc20Interface",
        "numberOfBytes": "20"
      },
      "t_contract(LendingPoolInterface)14684": {
        "encoding": "inplace",
        "label": "contract LendingPoolInterface",
        "numberOfBytes": "20"
      },
      "t_contract(LogicVersionsRegistryInterface)14789": {
        "encoding": "inplace",
        "label": "contract LogicVersionsRegistryInterface",
        "numberOfBytes": "20"
      },
      "t_contract(SettingsInterface)15153": {
        "encoding": "inplace",
        "label": "contract SettingsInterface",
        "numberOfBytes": "20"
      },
      "t_enum(LoanStatus)19083": {
        "encoding": "inplace",
        "label": "enum TellerCommon.LoanStatus",
        "numberOfBytes": "1"
      },
      "t_mapping(t_address,t_array(t_uint256)dyn_storage)": {
        "encoding": "mapping",
        "key": "t_address",
        "label": "mapping(address => uint256[])",
        "numberOfBytes": "32",
        "value": "t_array(t_uint256)dyn_storage"
      },
      "t_mapping(t_address,t_uint256)": {
        "encoding": "mapping",
        "key": "t_address",
        "label": "mapping(address => uint256)",
        "numberOfBytes": "32",
        "value": "t_uint256"
      },
      "t_mapping(t_uint256,t_struct(Loan)19171_storage)": {
        "encoding": "mapping",
        "key": "t_uint256",
        "label": "mapping(uint256 => struct TellerCommon.Loan)",
        "numberOfBytes": "32",
        "value": "t_struct(Loan)19171_storage"
      },
      "t_struct(AddressArray)17340_storage": {
        "encoding": "inplace",
        "label": "struct AddressArrayLib.AddressArray",
        "members": [
          {
            "astId": 17335,
            "contract": "contracts/base/loans/LoanManager.sol:LoanManager",
            "label": "array",
            "offset": 0,
            "slot": "0",
            "type": "t_array(t_address)dyn_storage"
          },
          {
            "astId": 17339,
            "contract": "contracts/base/loans/LoanManager.sol:LoanManager",
            "label": "indices",
            "offset": 0,
            "slot": "1",
            "type": "t_mapping(t_address,t_uint256)"
          }
        ],
        "numberOfBytes": "64"
      },
      "t_struct(Loan)19171_storage": {
        "encoding": "inplace",
        "label": "struct TellerCommon.Loan",
        "members": [
          {
            "astId": 19146,
            "contract": "contracts/base/loans/LoanManager.sol:LoanManager",
            "label": "id",
            "offset": 0,
            "slot": "0",
            "type": "t_uint256"
          },
          {
            "astId": 19149,
            "contract": "contracts/base/loans/LoanManager.sol:LoanManager",
            "label": "loanTerms",
            "offset": 0,
            "slot": "1",
            "type": "t_struct(LoanTerms)19144_storage"
          },
          {
            "astId": 19151,
            "contract": "contracts/base/loans/LoanManager.sol:LoanManager",
            "label": "termsExpiry",
            "offset": 0,
            "slot": "7",
            "type": "t_uint256"
          },
          {
            "astId": 19153,
            "contract": "contracts/base/loans/LoanManager.sol:LoanManager",
            "label": "loanStartTime",
            "offset": 0,
            "slot": "8",
            "type": "t_uint256"
          },
          {
            "astId": 19155,
            "contract": "contracts/base/loans/LoanManager.sol:LoanManager",
            "label": "collateral",
            "offset": 0,
            "slot": "9",
            "type": "t_uint256"
          },
          {
            "astId": 19157,
            "contract": "contracts/base/loans/LoanManager.sol:LoanManager",
            "label": "lastCollateralIn",
            "offset": 0,
            "slot": "10",
            "type": "t_uint256"
          },
          {
            "astId": 19159,
            "contract": "contracts/base/loans/LoanManager.sol:LoanManager",
            "label": "principalOwed",
            "offset": 0,
            "slot": "11",
            "type": "t_uint256"
          },
          {
            "astId": 19161,
            "contract": "contracts/base/loans/LoanManager.sol:LoanManager",
            "label": "interestOwed",
            "offset": 0,
            "slot": "12",
            "type": "t_uint256"
          },
          {
            "astId": 19163,
            "contract": "contracts/base/loans/LoanManager.sol:LoanManager",
            "label": "borrowedAmount",
            "offset": 0,
            "slot": "13",
            "type": "t_uint256"
          },
          {
            "astId": 19165,
            "contract": "contracts/base/loans/LoanManager.sol:LoanManager",
            "label": "escrow",
            "offset": 0,
            "slot": "14",
            "type": "t_address"
          },
          {
            "astId": 19168,
            "contract": "contracts/base/loans/LoanManager.sol:LoanManager",
            "label": "status",
            "offset": 20,
            "slot": "14",
            "type": "t_enum(LoanStatus)19083"
          },
          {
            "astId": 19170,
            "contract": "contracts/base/loans/LoanManager.sol:LoanManager",
            "label": "liquidated",
            "offset": 21,
            "slot": "14",
            "type": "t_bool"
          }
        ],
        "numberOfBytes": "480"
      },
      "t_struct(LoanTerms)19144_storage": {
        "encoding": "inplace",
        "label": "struct TellerCommon.LoanTerms",
        "members": [
          {
            "astId": 19133,
            "contract": "contracts/base/loans/LoanManager.sol:LoanManager",
            "label": "borrower",
            "offset": 0,
            "slot": "0",
            "type": "t_address_payable"
          },
          {
            "astId": 19135,
            "contract": "contracts/base/loans/LoanManager.sol:LoanManager",
            "label": "recipient",
            "offset": 0,
            "slot": "1",
            "type": "t_address"
          },
          {
            "astId": 19137,
            "contract": "contracts/base/loans/LoanManager.sol:LoanManager",
            "label": "interestRate",
            "offset": 0,
            "slot": "2",
            "type": "t_uint256"
          },
          {
            "astId": 19139,
            "contract": "contracts/base/loans/LoanManager.sol:LoanManager",
            "label": "collateralRatio",
            "offset": 0,
            "slot": "3",
            "type": "t_uint256"
          },
          {
            "astId": 19141,
            "contract": "contracts/base/loans/LoanManager.sol:LoanManager",
            "label": "maxLoanAmount",
            "offset": 0,
            "slot": "4",
            "type": "t_uint256"
          },
          {
            "astId": 19143,
            "contract": "contracts/base/loans/LoanManager.sol:LoanManager",
            "label": "duration",
            "offset": 0,
            "slot": "5",
            "type": "t_uint256"
          }
        ],
        "numberOfBytes": "192"
      },
      "t_uint256": {
        "encoding": "inplace",
        "label": "uint256",
        "numberOfBytes": "32"
      }
    }
  }
}