{
  "address": "0x77940a6e7C800bf8d909d568A59E47cb7c7b2d95",
  "abi": [
    {
      "inputs": [],
      "name": "LOAN_DATA_LOGIC_NAME",
      "outputs": [
        {
          "internalType": "bytes32",
          "name": "",
          "type": "bytes32"
        }
      ],
      "stateMutability": "view",
      "type": "function"
    },
    {
      "inputs": [],
      "name": "LOAN_TERMS_CONSENSUS_LOGIC_NAME",
      "outputs": [
        {
          "internalType": "bytes32",
          "name": "",
          "type": "bytes32"
        }
      ],
      "stateMutability": "view",
      "type": "function"
    },
    {
      "inputs": [],
      "name": "_updateImplementationStored",
      "outputs": [],
      "stateMutability": "nonpayable",
      "type": "function"
    },
    {
      "inputs": [],
      "name": "assetSettings",
      "outputs": [
        {
          "internalType": "contract AssetSettingsInterface",
          "name": "",
          "type": "address"
        }
      ],
      "stateMutability": "view",
      "type": "function"
    },
    {
      "inputs": [
        {
          "internalType": "uint256",
          "name": "loanId",
          "type": "uint256"
        }
      ],
      "name": "borrowedAmount",
      "outputs": [
        {
          "internalType": "uint256",
          "name": "",
          "type": "uint256"
        }
      ],
      "stateMutability": "view",
      "type": "function"
    },
    {
      "inputs": [],
      "name": "cToken",
      "outputs": [
        {
          "internalType": "contract CErc20Interface",
          "name": "",
          "type": "address"
        }
      ],
      "stateMutability": "view",
      "type": "function"
    },
    {
      "inputs": [
        {
          "internalType": "uint256",
          "name": "loanID",
          "type": "uint256"
        }
      ],
      "name": "canGoToEOA",
      "outputs": [
        {
          "internalType": "bool",
          "name": "",
          "type": "bool"
        }
      ],
      "stateMutability": "view",
      "type": "function"
    },
    {
      "inputs": [
        {
          "internalType": "uint256",
          "name": "loanId",
          "type": "uint256"
        }
      ],
      "name": "collateral",
      "outputs": [
        {
          "internalType": "uint256",
          "name": "",
          "type": "uint256"
        }
      ],
      "stateMutability": "view",
      "type": "function"
    },
    {
      "inputs": [],
      "name": "collateralToken",
      "outputs": [
        {
          "internalType": "address",
          "name": "",
          "type": "address"
        }
      ],
      "stateMutability": "view",
      "type": "function"
    },
    {
      "inputs": [
        {
          "internalType": "uint256",
          "name": "loanId",
          "type": "uint256"
        }
      ],
      "name": "escrow",
      "outputs": [
        {
          "internalType": "address",
          "name": "",
          "type": "address"
        }
      ],
      "stateMutability": "view",
      "type": "function"
    },
    {
      "inputs": [
        {
          "internalType": "uint256",
          "name": "loanID",
          "type": "uint256"
        }
      ],
      "name": "getCollateralInLendingTokens",
      "outputs": [
        {
          "internalType": "uint256",
          "name": "",
          "type": "uint256"
        }
      ],
      "stateMutability": "view",
      "type": "function"
    },
    {
      "inputs": [
        {
          "internalType": "uint256",
          "name": "loanID",
          "type": "uint256"
        }
      ],
      "name": "getCollateralNeededInTokens",
      "outputs": [
        {
          "internalType": "int256",
          "name": "neededInLendingTokens",
          "type": "int256"
        },
        {
          "internalType": "uint256",
          "name": "escrowLoanValue",
          "type": "uint256"
        }
      ],
      "stateMutability": "view",
      "type": "function"
    },
    {
      "inputs": [
        {
          "internalType": "uint256",
          "name": "loanID",
          "type": "uint256"
        }
      ],
      "name": "getCollateralNeededInfo",
      "outputs": [
        {
          "internalType": "int256",
          "name": "neededInLendingTokens",
          "type": "int256"
        },
        {
          "internalType": "int256",
          "name": "neededInCollateralTokens",
          "type": "int256"
        },
        {
          "internalType": "uint256",
          "name": "escrowLoanValue",
          "type": "uint256"
        }
      ],
      "stateMutability": "view",
      "type": "function"
    },
    {
      "inputs": [
        {
          "internalType": "uint256",
          "name": "loanID",
          "type": "uint256"
        },
        {
          "internalType": "uint256",
          "name": "amountBorrow",
          "type": "uint256"
        }
      ],
      "name": "getInterestOwedFor",
      "outputs": [
        {
          "internalType": "uint256",
          "name": "",
          "type": "uint256"
        }
      ],
      "stateMutability": "view",
      "type": "function"
    },
    {
      "inputs": [
        {
          "internalType": "uint256",
          "name": "loanID",
          "type": "uint256"
        }
      ],
      "name": "getInterestRatio",
      "outputs": [
        {
          "internalType": "uint256",
          "name": "",
          "type": "uint256"
        }
      ],
      "stateMutability": "view",
      "type": "function"
    },
    {
      "inputs": [
        {
          "internalType": "uint256",
          "name": "loanID",
          "type": "uint256"
        }
      ],
      "name": "getLiquidationReward",
      "outputs": [
        {
          "internalType": "int256",
          "name": "",
          "type": "int256"
        }
      ],
      "stateMutability": "view",
      "type": "function"
    },
    {
      "inputs": [
        {
          "internalType": "uint256",
          "name": "loanID",
          "type": "uint256"
        }
      ],
      "name": "getLoanAmount",
      "outputs": [
        {
          "internalType": "uint256",
          "name": "",
          "type": "uint256"
        }
      ],
      "stateMutability": "view",
      "type": "function"
    },
    {
      "inputs": [
        {
          "internalType": "uint256",
          "name": "loanID",
          "type": "uint256"
        }
      ],
      "name": "getTotalOwed",
      "outputs": [
        {
          "internalType": "uint256",
          "name": "",
          "type": "uint256"
        }
      ],
      "stateMutability": "view",
      "type": "function"
    },
    {
      "inputs": [],
      "name": "implementationStored",
      "outputs": [
        {
          "internalType": "address",
          "name": "",
          "type": "address"
        }
      ],
      "stateMutability": "view",
      "type": "function"
    },
    {
      "inputs": [
        {
          "internalType": "uint256",
          "name": "loanId",
          "type": "uint256"
        }
      ],
      "name": "interestOwed",
      "outputs": [
        {
          "internalType": "uint256",
          "name": "",
          "type": "uint256"
        }
      ],
      "stateMutability": "view",
      "type": "function"
    },
    {
      "inputs": [
        {
          "internalType": "uint256",
          "name": "loanID",
          "type": "uint256"
        }
      ],
      "name": "isActiveOrSet",
      "outputs": [
        {
          "internalType": "bool",
          "name": "",
          "type": "bool"
        }
      ],
      "stateMutability": "view",
      "type": "function"
    },
    {
      "inputs": [
        {
          "internalType": "uint256",
          "name": "loanID",
          "type": "uint256"
        }
      ],
      "name": "isLiquidable",
      "outputs": [
        {
          "internalType": "bool",
          "name": "",
          "type": "bool"
        }
      ],
      "stateMutability": "view",
      "type": "function"
    },
    {
      "inputs": [
        {
          "internalType": "uint256",
          "name": "loanID",
          "type": "uint256"
        }
      ],
      "name": "isLoanSecured",
      "outputs": [
        {
          "internalType": "bool",
          "name": "",
          "type": "bool"
        }
      ],
      "stateMutability": "view",
      "type": "function"
    },
    {
      "inputs": [
        {
          "internalType": "uint256",
          "name": "loanId",
          "type": "uint256"
        }
      ],
      "name": "lastCollateralIn",
      "outputs": [
        {
          "internalType": "uint256",
          "name": "",
          "type": "uint256"
        }
      ],
      "stateMutability": "view",
      "type": "function"
    },
    {
      "inputs": [],
      "name": "lendingPool",
      "outputs": [
        {
          "internalType": "contract LendingPoolInterface",
          "name": "",
          "type": "address"
        }
      ],
      "stateMutability": "view",
      "type": "function"
    },
    {
      "inputs": [],
      "name": "lendingToken",
      "outputs": [
        {
          "internalType": "address",
          "name": "",
          "type": "address"
        }
      ],
      "stateMutability": "view",
      "type": "function"
    },
    {
      "inputs": [
        {
          "internalType": "uint256",
          "name": "loanId",
          "type": "uint256"
        }
      ],
      "name": "liquidated",
      "outputs": [
        {
          "internalType": "bool",
          "name": "",
          "type": "bool"
        }
      ],
      "stateMutability": "view",
      "type": "function"
    },
    {
      "inputs": [],
      "name": "loanIDCounter",
      "outputs": [
        {
          "internalType": "uint256",
          "name": "",
          "type": "uint256"
        }
      ],
      "stateMutability": "view",
      "type": "function"
    },
    {
      "inputs": [
        {
          "internalType": "uint256",
          "name": "loanId",
          "type": "uint256"
        }
      ],
      "name": "loanStartTime",
      "outputs": [
        {
          "internalType": "uint256",
          "name": "",
          "type": "uint256"
        }
      ],
      "stateMutability": "view",
      "type": "function"
    },
    {
      "inputs": [
        {
          "internalType": "uint256",
          "name": "loanId",
          "type": "uint256"
        }
      ],
      "name": "loanTerms",
      "outputs": [
        {
          "components": [
            {
              "internalType": "address payable",
              "name": "borrower",
              "type": "address"
            },
            {
              "internalType": "address",
              "name": "recipient",
              "type": "address"
            },
            {
              "internalType": "uint256",
              "name": "interestRate",
              "type": "uint256"
            },
            {
              "internalType": "uint256",
              "name": "collateralRatio",
              "type": "uint256"
            },
            {
              "internalType": "uint256",
              "name": "maxLoanAmount",
              "type": "uint256"
            },
            {
              "internalType": "uint256",
              "name": "duration",
              "type": "uint256"
            }
          ],
          "internalType": "struct TellerCommon.LoanTerms",
          "name": "",
          "type": "tuple"
        }
      ],
      "stateMutability": "view",
      "type": "function"
    },
    {
      "inputs": [
        {
          "internalType": "uint256",
          "name": "",
          "type": "uint256"
        }
      ],
      "name": "loans",
      "outputs": [
        {
          "internalType": "uint256",
          "name": "id",
          "type": "uint256"
        },
        {
          "components": [
            {
              "internalType": "address payable",
              "name": "borrower",
              "type": "address"
            },
            {
              "internalType": "address",
              "name": "recipient",
              "type": "address"
            },
            {
              "internalType": "uint256",
              "name": "interestRate",
              "type": "uint256"
            },
            {
              "internalType": "uint256",
              "name": "collateralRatio",
              "type": "uint256"
            },
            {
              "internalType": "uint256",
              "name": "maxLoanAmount",
              "type": "uint256"
            },
            {
              "internalType": "uint256",
              "name": "duration",
              "type": "uint256"
            }
          ],
          "internalType": "struct TellerCommon.LoanTerms",
          "name": "loanTerms",
          "type": "tuple"
        },
        {
          "internalType": "uint256",
          "name": "termsExpiry",
          "type": "uint256"
        },
        {
          "internalType": "uint256",
          "name": "loanStartTime",
          "type": "uint256"
        },
        {
          "internalType": "uint256",
          "name": "collateral",
          "type": "uint256"
        },
        {
          "internalType": "uint256",
          "name": "lastCollateralIn",
          "type": "uint256"
        },
        {
          "internalType": "uint256",
          "name": "principalOwed",
          "type": "uint256"
        },
        {
          "internalType": "uint256",
          "name": "interestOwed",
          "type": "uint256"
        },
        {
          "internalType": "uint256",
          "name": "borrowedAmount",
          "type": "uint256"
        },
        {
          "internalType": "address",
          "name": "escrow",
          "type": "address"
        },
        {
          "internalType": "enum TellerCommon.LoanStatus",
          "name": "status",
          "type": "uint8"
        },
        {
          "internalType": "bool",
          "name": "liquidated",
          "type": "bool"
        }
      ],
      "stateMutability": "view",
      "type": "function"
    },
    {
      "inputs": [],
      "name": "logicName",
      "outputs": [
        {
          "internalType": "bytes32",
          "name": "",
          "type": "bytes32"
        }
      ],
      "stateMutability": "view",
      "type": "function"
    },
    {
      "inputs": [],
      "name": "logicRegistry",
      "outputs": [
        {
          "internalType": "contract LogicVersionsRegistryInterface",
          "name": "",
          "type": "address"
        }
      ],
      "stateMutability": "view",
      "type": "function"
    },
    {
      "inputs": [
        {
          "internalType": "uint256",
          "name": "loanId",
          "type": "uint256"
        }
      ],
      "name": "principalOwed",
      "outputs": [
        {
          "internalType": "uint256",
          "name": "",
          "type": "uint256"
        }
      ],
      "stateMutability": "view",
      "type": "function"
    },
    {
      "inputs": [],
      "name": "settings",
      "outputs": [
        {
          "internalType": "contract SettingsInterface",
          "name": "",
          "type": "address"
        }
      ],
      "stateMutability": "view",
      "type": "function"
    },
    {
      "inputs": [
        {
          "internalType": "uint256",
          "name": "loanId",
          "type": "uint256"
        }
      ],
      "name": "status",
      "outputs": [
        {
          "internalType": "enum TellerCommon.LoanStatus",
          "name": "",
          "type": "uint8"
        }
      ],
      "stateMutability": "view",
      "type": "function"
    },
    {
      "inputs": [],
      "name": "strictDynamic",
      "outputs": [
        {
          "internalType": "bool",
          "name": "",
          "type": "bool"
        }
      ],
      "stateMutability": "view",
      "type": "function"
    },
    {
      "inputs": [
        {
          "internalType": "uint256",
          "name": "loanId",
          "type": "uint256"
        }
      ],
      "name": "termsExpiry",
      "outputs": [
        {
          "internalType": "uint256",
          "name": "",
          "type": "uint256"
        }
      ],
      "stateMutability": "view",
      "type": "function"
    },
    {
      "inputs": [],
      "name": "totalCollateral",
      "outputs": [
        {
          "internalType": "uint256",
          "name": "",
          "type": "uint256"
        }
      ],
      "stateMutability": "view",
      "type": "function"
    },
    {
      "inputs": [
        {
          "internalType": "address",
          "name": "newImplementation",
          "type": "address"
        }
      ],
      "name": "upgradeProxyTo",
      "outputs": [],
      "stateMutability": "nonpayable",
      "type": "function"
    }
  ],
  "transactionHash": "0xdb8e64a0856708b30dcfac063e2dc7638dde1f5952e7b6b9c3d94c8e08deaeb8",
  "args": [],
  "solcInputHash": "0c80e7fb8aff27a671cb2892ea4bafd6",
  "bytecode": "0x608060405234801561001057600080fd5b506118f4806100206000396000f3fe608060405234801561001057600080fd5b50600436106102485760003560e01c806369e527da1161013b578063b6780507116100b8578063e1ec3c681161007c578063e1ec3c68146105f8578063e6a901c1146106d6578063e9497561146106e9578063fdf6e4ea146106fc578063fec688941461071f57610248565b8063b678050714610572578063c9e02bef14610599578063d68ff191146105ac578063e06174e4146105d8578063e154e9a4146105eb57610248565b8063aaaca558116100ff578063aaaca558146104f1578063b06164cf14610504578063b10b8a2c1461052c578063b2016bd41461054c578063b3076d001461055f57610248565b806369e527da1461047757806372e113271461048a578063854768c0146104b857806386f0a621146104cb578063a59a9973146104de57610248565b80634a26a71b116101c957806355dbd8eb1161018d57806355dbd8eb146103ee57806359c697f4146104015780635ca879d7146104145780635ea2a2cf146104375780635ebc63341461046457610248565b80634a26a71b1461037e5780634ac8eb5f146103a15780634f8654bc146103aa57806351348454146103c257806352d07b3b146103cb57610248565b806337c3eedc1161021057806337c3eedc146102bc57806338c72f69146102e75780633b1f18dd1461030e5780633b9293001461033157806342d21ef71461034457610248565b806304b0c79b1461024d57806310780bed146102735780631eb83d5414610296578063226546a4146102a05780632c26486d146102b3575b600080fd5b61026061025b366004611545565b610742565b6040519081526020015b60405180910390f35b610260610281366004611545565b6000908152600f60205260409020600c015490565b61029e61075a565b005b6102606102ae366004611545565b610829565b61026060015481565b6000546102cf906001600160a01b031681565b6040516001600160a01b03909116815260200161026a565b6102607f698a3c07617049c2f15d3f96333af3d44fbf5976ff9ca8e1df2e46ac61ce155a81565b61026061031c366004611545565b6000908152600f602052604090206009015490565b61026061033f366004611545565b6108e9565b610371610352366004611545565b6000908152600f60205260409020600e0154600160a01b900460ff1690565b60405161026a9190611635565b61026061038c366004611545565b6000908152600f602052604090206008015490565b61026060105481565b6002546102cf9061010090046001600160a01b031681565b61026060165481565b6102606103d9366004611545565b6000908152600f60205260409020600b015490565b61029e6103fc36600461150d565b6109de565b61026061040f366004611545565b610a61565b610427610422366004611545565b610b97565b604051901515815260200161026a565b610427610445366004611545565b6000908152600f60205260409020600e0154600160a81b900460ff1690565b610260610472366004611545565b610c4f565b6014546102cf906001600160a01b031681565b61049d610498366004611545565b610dbb565b6040805193845260208401929092529082015260600161026a565b6104276104c6366004611545565b610f42565b6102606104d9366004611545565b610fe5565b6011546102cf906001600160a01b031681565b6012546102cf906001600160a01b031681565b610517610512366004611545565b611017565b6040805192835260208301919091520161026a565b61053f61053a366004611545565b61126f565b60405161026a9190611643565b6013546102cf906001600160a01b031681565b601c546102cf906001600160a01b031681565b6102607f87ff11116505b975498f87d319b3b9d631d98e48aa48a4655041faecc8d805ac81565b6104276105a7366004611545565b611320565b6102cf6105ba366004611545565b6000908152600f60205260409020600e01546001600160a01b031690565b6004546102cf906001600160a01b031681565b6002546104279060ff1681565b6106be610606366004611545565b600f602090815260009182526040918290208054835160c08101855260018301546001600160a01b03908116825260028401548116948201949094526003830154948101949094526004820154606085015260058201546080850152600682015460a0850152600782015460088301546009840154600a850154600b860154600c870154600d880154600e9098015496999895979496939592949193909281169060ff600160a01b8204811691600160a81b9004168c565b60405161026a9c9b9a99989796959493929190611651565b6104276106e4366004611545565b6113b8565b6102606106f7366004611575565b611442565b61026061070a366004611545565b6000908152600f60205260409020600a015490565b61026061072d366004611545565b6000908152600f602052604090206007015490565b6000818152600f60205260409020600d01545b919050565b60008054600154604051638b51f58b60e01b81526001600160a01b0390921691638b51f58b916107909160040190815260200190565b60606040518083038186803b1580156107a857600080fd5b505afa1580156107bc573d6000803e3d6000fd5b505050506040513d601f19601f820116820180604052508101906107e09190611596565b6002549093506001600160a01b038085166101009092041614915061082290505760028054610100600160a81b0319166101006001600160a01b038416021790555b5043600355565b600060016000838152600f60205260409020600e0154600160a01b900460ff16600381111561086857634e487b7160e01b600052602160045260246000fd5b141561088657506000818152600f6020526040902060050154610755565b60026000838152600f60205260409020600e0154600160a01b900460ff1660038111156108c357634e487b7160e01b600052602160045260246000fd5b14156108e157506000818152600f60205260409020600d0154610755565b506000919050565b600060016000838152600f60205260409020600e0154600160a01b900460ff16600381111561092857634e487b7160e01b600052602160045260246000fd5b1415610972576000828152600f602052604081206005015461094b908490611442565b6000848152600f602052604090206005015490915061096a908261145e565b915050610755565b60026000838152600f60205260409020600e0154600160a01b900460ff1660038111156109af57634e487b7160e01b600052602160045260246000fd5b14156108e1576000828152600f60205260409020600c810154600b909101546109d79161145e565b9050610755565b6000546001600160a01b03163314610a355760405162461bcd60e51b81526020600482015260166024820152754d5553545f42455f4c4f4749435f524547495354525960501b604482015260640160405180910390fd5b600280546001600160a01b0390921661010002610100600160a81b031990921691909117905543600355565b6000610a6c826113b8565b610a7857506000610755565b6004805460408051633078fff560e01b815290516001600160a01b0390921692633078fff5928282019260209290829003018186803b158015610aba57600080fd5b505afa158015610ace573d6000803e3d6000fd5b505050506040513d601f19601f82011682018060405250810190610af29190611529565b6013546012546000858152600f60205260409081902060090154905163036ec87560e61b81526001600160a01b0393841660048201529183166024830152604482015291169063dbb21d409060640160206040518083038186803b158015610b5957600080fd5b505afa158015610b6d573d6000803e3d6000fd5b505050506040513d601f19601f82011682018060405250810190610b91919061155d565b92915050565b600060026000838152600f60205260409020600e0154600160a01b900460ff166003811115610bd657634e487b7160e01b600052602160045260246000fd5b14610be357506000610755565b6000828152600f602052604090206004015415610c23576000610c0583610dbb565b506000858152600f6020526040902060090154129250610755915050565b6000828152600f602052604090206006810154600890910154610c459161145e565b4210159050610755565b600080610c5b836108e9565b6000848152600f60209081526040808320600e01548151630a06101d60e41b815291519495509293610cf9936001600160a01b03169263a06101d09260048082019391829003018186803b158015610cb257600080fd5b505afa158015610cc6573d6000803e3d6000fd5b505050506040513d601f19601f82011682018060405250810190610cea919061155d565b610cf386610a61565b9061145e565b600480546040805163375534b960e21b81529051939450600093610d8a93610d83936001600160a01b03169263dd54d2e49281830192602092829003018186803b158015610d4657600080fd5b505afa158015610d5a573d6000803e3d6000fd5b505050506040513d601f19601f82011682018060405250810190610d7e919061155d565b61146a565b8490611478565b9050610d96818461170e565b821015610da7575091506107559050565b610db1818461148a565b9350505050610755565b6000806000610dc984611017565b909350905082610ddc5760009150610f3b565b6000600460009054906101000a90046001600160a01b03166001600160a01b0316633078fff56040518163ffffffff1660e01b815260040160206040518083038186803b158015610e2c57600080fd5b505afa158015610e40573d6000803e3d6000fd5b505050506040513d601f19601f82011682018060405250810190610e649190611529565b6012546013546001600160a01b039283169263dbb21d40928116911660008812610e8e5787610e97565b610e9788611860565b6040516001600160e01b031960e086901b1681526001600160a01b039384166004820152929091166024830152604482015260640160206040518083038186803b158015610ee457600080fd5b505afa158015610ef8573d6000803e3d6000fd5b505050506040513d601f19601f82011682018060405250810190610f1c919061155d565b90508092506000841215610f3957610f3683600019611496565b92505b505b9193909250565b6000600460009054906101000a90046001600160a01b03166001600160a01b0316636c14b1e06040518163ffffffff1660e01b815260040160206040518083038186803b158015610f9257600080fd5b505afa158015610fa6573d6000803e3d6000fd5b505050506040513d601f19601f82011682018060405250810190610fca919061155d565b6000838152600f602052604090206004015410159050919050565b6000818152600f602052604081206006810154600390910154610b91916301e1338091611011916114a2565b906114ae565b600080611023836113b8565b158061103e57506000838152600f6020526040902060040154155b1561104e5750600090508061126a565b60016000848152600f60205260409020600e0154600160a01b900460ff16600381111561108b57634e487b7160e01b600052602160045260246000fd5b14156110bd576000838152600f60205260409020600401546110b6906110b085610829565b906114ba565b915061126a565b6000838152600f60209081526040808320600b0154600480548351630360a58f60e51b815293519297506001600160a01b031693636c14b1e09380830193919290829003018186803b15801561111257600080fd5b505afa158015611126573d6000803e3d6000fd5b505050506040513d601f19601f8201168201806040525081019061114a919061155d565b9050600061117c8261117661115e88610fe5565b6000898152600f6020526040902060040154906114d3565b906114d3565b6000868152600f60205260409020600e01549091506001600160a01b031615611242576000858152600f6020908152604091829020600e01548251630a06101d60e41b815292516001600160a01b039091169263a06101d0926004808301939192829003018186803b1580156111f157600080fd5b505afa158015611205573d6000803e3d6000fd5b505050506040513d601f19601f82011682018060405250810190611229919061155d565b925061123f61123885856114df565b859061148a565b93505b6000858152600f60205260409020600c01546112659082906110b090879061148a565b935050505b915091565b6112ba6040518060c0016040528060006001600160a01b0316815260200160006001600160a01b03168152602001600081526020016000815260200160008152602001600081525090565b6000828152600f602052604090206040805160c08101825260018301546001600160a01b0390811682526002840154166020820152600383015491810191909152600482015460608201526005820154608082015260069091015460a082015292915050565b600480546040805163f09d223b60e01b8152905160009384936001600160a01b03169263f09d223b9281830192602092829003018186803b15801561136457600080fd5b505afa158015611378573d6000803e3d6000fd5b505050506040513d601f19601f8201168201806040525081019061139c919061155d565b6000848152600f60205260409020600401541015915050919050565b600060026000838152600f60205260409020600e0154600160a01b900460ff1660038111156113f757634e487b7160e01b600052602160045260246000fd5b1480610b91575060016000838152600f60205260409020600e0154600160a01b900460ff16600381111561143b57634e487b7160e01b600052602160045260246000fd5b1492915050565b600061145761145084610fe5565b8390611478565b9392505050565b6000611457828461170e565b6000610b91826127106114eb565b600061145761271061101185856114a2565b600061145782846116cd565b60006114578284611768565b600061145782846117eb565b60006114578284611754565b60006127106114c98385611768565b6114579190611726565b60006114578284611849565b6000611457828461180a565b6000828211611503576114fe83836114d3565b611457565b61145782846114d3565b60006020828403121561151e578081fd5b8135611457816118a6565b60006020828403121561153a578081fd5b8151611457816118a6565b600060208284031215611556578081fd5b5035919050565b60006020828403121561156e578081fd5b5051919050565b60008060408385031215611587578081fd5b50508035926020909101359150565b6000806000606084860312156115aa578081fd5b835192506020840151915060408401516115c3816118a6565b809150509250925092565b600481106115ec57634e487b7160e01b600052602160045260246000fd5b9052565b80516001600160a01b0390811683526020808301519091169083015260408082015190830152606080820151908301526080808201519083015260a090810151910152565b60208101610b9182846115ce565b60c08101610b9182846115f0565b8c81526102208101611666602083018e6115f0565b8b60e08301528a61010083015289610120830152886101408301528761016083015286610180830152856101a083015260018060a01b0385166101c08301526116b36101e08301856115ce565b8215156102008301529d9c50505050505050505050505050565b600080821280156001600160ff1b03849003851316156116ef576116ef61187a565b600160ff1b83900384128116156117085761170861187a565b50500190565b600082198211156117215761172161187a565b500190565b60008261173557611735611890565b600160ff1b82146000198414161561174f5761174f61187a565b500590565b60008261176357611763611890565b500490565b60006001600160ff1b038184138284138082168684048611161561178e5761178e61187a565b600160ff1b848712828116878305891216156117ac576117ac61187a565b8587129250878205871284841616156117c7576117c761187a565b878505871281841616156117dd576117dd61187a565b505050929093029392505050565b60008160001904831182151516156118055761180561187a565b500290565b60008083128015600160ff1b8501841216156118285761182861187a565b6001600160ff1b03840183138116156118435761184361187a565b50500390565b60008282101561185b5761185b61187a565b500390565b6000600160ff1b8214156118765761187661187a565b0390565b634e487b7160e01b600052601160045260246000fd5b634e487b7160e01b600052601260045260246000fd5b6001600160a01b03811681146118bb57600080fd5b5056fea2646970667358221220756f29dc5b6b96e910cc61d4406207199aafe79d89aaae38bd796082f17ffed864736f6c63430008030033",
  "devdoc": {
    "author": "develop@teller.finance.",
    "details": "It is used by the LoanManager contract to delegatecall from.",
    "kind": "dev",
    "methods": {
      "_updateImplementationStored()": {
        "details": "It uses the LogicVersionsRegistry contract to get the logic address or the cached address if valid.It caches the current logic address for the proxy to reduce gas on subsequent calls within the same block."
      },
      "canGoToEOA(uint256)": {
        "params": {
          "loanID": "The loan ID to check the collateral ratio for."
        },
        "returns": {
          "_0": "bool indicating whether the loan with specified parameters can be deposited to an EOA."
        }
      },
      "getCollateralInLendingTokens(uint256)": {
        "params": {
          "loanID": "The loan ID for which to get collateral information for"
        },
        "returns": {
          "_0": "uint256 Collateral needed in lending token value"
        }
      },
      "getCollateralNeededInTokens(uint256)": {
        "details": "If the loan status is TermsSet, then the value is whats needed to take out the loan.If the loan status is Active, then the value is the threshold at which the loan can be liquidated at.",
        "params": {
          "loanID": "The loan ID to get needed collateral info for."
        },
        "returns": {
          "escrowLoanValue": "uint256 The value of the loan held in the escrow contract.",
          "neededInLendingTokens": "int256 The minimum collateral value threshold required."
        }
      },
      "getCollateralNeededInfo(uint256)": {
        "params": {
          "loanID": "The loan ID to get collateral info for."
        },
        "returns": {
          "escrowLoanValue": "uint256 The value of the loan held in the escrow contract",
          "neededInCollateralTokens": "int256 Collateral needed in Collateral tokens (wei)",
          "neededInLendingTokens": "int256 Collateral needed in Lending tokens."
        }
      },
      "getInterestOwedFor(uint256,uint256)": {
        "params": {
          "amountBorrow": "The principal of the loan to take out.",
          "loanID": "The loan ID to get the owed interest."
        },
        "returns": {
          "_0": "uint256 The interest owed."
        }
      },
      "getInterestRatio(uint256)": {
        "details": "The interest rate on the loan terms is APY.",
        "params": {
          "loanID": "The loan ID to get the interest rate for."
        }
      },
      "getLiquidationReward(uint256)": {
        "params": {
          "loanID": "The loan ID to get the info."
        },
        "returns": {
          "_0": "The value the liquidator will receive denoted in collateral tokens."
        }
      },
      "getLoanAmount(uint256)": {
        "params": {
          "loanID": "The loan ID to get the total amount owed."
        },
        "returns": {
          "_0": "uint256 The amount owed."
        }
      },
      "getTotalOwed(uint256)": {
        "params": {
          "loanID": "The loan ID to get the total amount owed."
        },
        "returns": {
          "_0": "uint256 The total owed amount."
        }
      },
      "isActiveOrSet(uint256)": {
        "params": {
          "loanID": "The loan ID for which to check the status"
        },
        "returns": {
          "_0": "bool value indicating if the loan is active or has terms set"
        }
      },
      "isLiquidable(uint256)": {
        "params": {
          "loanID": "The loan ID to check."
        },
        "returns": {
          "_0": "true if the loan is liquidable."
        }
      },
      "isLoanSecured(uint256)": {
        "params": {
          "loanID": "The loan ID to check."
        },
        "returns": {
          "_0": "bool value of it being secured or not."
        }
      }
    },
    "version": 1
  },
  "userdoc": {
    "kind": "user",
    "methods": {
      "LOAN_DATA_LOGIC_NAME()": {
        "notice": "Holds the logic name used for the LoanData contract."
      },
      "LOAN_TERMS_CONSENSUS_LOGIC_NAME()": {
        "notice": "Holds the logic name used for the LoanTermsConsensus contract."
      },
      "_updateImplementationStored()": {
        "notice": "Updates the current implementation logic address for the stored logic name."
      },
      "assetSettings()": {
        "notice": "It holds the platform AssetSettings instance."
      },
      "cToken()": {
        "notice": "Holds the Compound cToken where the underlying token matches the lending token."
      },
      "canGoToEOA(uint256)": {
        "notice": "Checks whether a loan is allowed to be deposited to an Externally Owned Account."
      },
      "collateralToken()": {
        "notice": "Holds the collateral token."
      },
      "getCollateralInLendingTokens(uint256)": {
        "notice": "Returns the collateral needed for a loan, in the lending token, needed to take out the loan or for it be liquidated."
      },
      "getCollateralNeededInTokens(uint256)": {
        "notice": "Returns the minimum collateral value threshold, in the lending token, needed to take out the loan or for it be liquidated."
      },
      "getCollateralNeededInfo(uint256)": {
        "notice": "Get information on the collateral needed for the loan."
      },
      "getInterestOwedFor(uint256,uint256)": {
        "notice": "Returns the amount of interest owed for a given loan and loan amount."
      },
      "getInterestRatio(uint256)": {
        "notice": "Returns the interest ratio based on the loan interest rate for the loan duration."
      },
      "getLiquidationReward(uint256)": {
        "notice": "It gets the current liquidation reward for a given loan."
      },
      "getLoanAmount(uint256)": {
        "notice": "Returns the total amount owed for a specified loan."
      },
      "getTotalOwed(uint256)": {
        "notice": "Returns the total amount owed for a specified loan."
      },
      "implementationStored()": {
        "notice": "It stores the last known logic address locally to reduce gas costs."
      },
      "isActiveOrSet(uint256)": {
        "notice": "Checks whether the status of a loan is Active or has Terms Set"
      },
      "isLiquidable(uint256)": {
        "notice": "It checks if a loan can be liquidated."
      },
      "isLoanSecured(uint256)": {
        "notice": "Checks whether the loan's collateral ratio is considered to be secured based on the settings collateral buffer value."
      },
      "lendingPool()": {
        "notice": "Holds the instance of the LendingPool used by the LoanManager."
      },
      "lendingToken()": {
        "notice": "Holds the lending token used for creating loans by the LoanManager and LendingPool."
      },
      "loanIDCounter()": {
        "notice": "Holds the ID of loans taken out"
      },
      "loans(uint256)": {
        "notice": "Holds the data of all loans for the lending token."
      },
      "logicName()": {
        "notice": "It represent the logic name (key) used for this proxy."
      },
      "logicRegistry()": {
        "notice": "It returns the logic registry that is used to determine the implementation logic for this proxy."
      },
      "settings()": {
        "notice": "It holds the platform Settings instance."
      },
      "strictDynamic()": {
        "notice": "Boolean indicating if the proxy must check the registry for a new implementation."
      },
      "totalCollateral()": {
        "notice": "Holds the total amount of collateral held by the contract."
      },
      "upgradeProxyTo(address)": {
        "notice": "It updates a proxy's cached implementation address.It must only be called by the LogicVersionsRegistry for non strict DynamicProxy"
      }
    },
    "notice": "This contract stores the logic for calculating loan information.",
    "version": 1
  },
  "storageLayout": {
    "storage": [
      {
        "astId": 13960,
        "contract": "contracts/base/loans/LoanData.sol:LoanData",
        "label": "logicRegistry",
        "offset": 0,
        "slot": "0",
        "type": "t_contract(LogicVersionsRegistryInterface)14789"
      },
      {
        "astId": 13963,
        "contract": "contracts/base/loans/LoanData.sol:LoanData",
        "label": "logicName",
        "offset": 0,
        "slot": "1",
        "type": "t_bytes32"
      },
      {
        "astId": 13966,
        "contract": "contracts/base/loans/LoanData.sol:LoanData",
        "label": "strictDynamic",
        "offset": 0,
        "slot": "2",
        "type": "t_bool"
      },
      {
        "astId": 13969,
        "contract": "contracts/base/loans/LoanData.sol:LoanData",
        "label": "implementationStored",
        "offset": 1,
        "slot": "2",
        "type": "t_address"
      },
      {
        "astId": 13972,
        "contract": "contracts/base/loans/LoanData.sol:LoanData",
        "label": "_implementationBlockUpdated",
        "offset": 0,
        "slot": "3",
        "type": "t_uint256"
      },
      {
        "astId": 1898,
        "contract": "contracts/base/loans/LoanData.sol:LoanData",
        "label": "settings",
        "offset": 0,
        "slot": "4",
        "type": "t_contract(SettingsInterface)15153"
      },
      {
        "astId": 1903,
        "contract": "contracts/base/loans/LoanData.sol:LoanData",
        "label": "__gap",
        "offset": 0,
        "slot": "5",
        "type": "t_array(t_uint256)10_storage"
      },
      {
        "astId": 15523,
        "contract": "contracts/base/loans/LoanData.sol:LoanData",
        "label": "loans",
        "offset": 0,
        "slot": "15",
        "type": "t_mapping(t_uint256,t_struct(Loan)19171_storage)"
      },
      {
        "astId": 10536,
        "contract": "contracts/base/loans/LoanData.sol:LoanData",
        "label": "totalCollateral",
        "offset": 0,
        "slot": "16",
        "type": "t_uint256"
      },
      {
        "astId": 10541,
        "contract": "contracts/base/loans/LoanData.sol:LoanData",
        "label": "lendingPool",
        "offset": 0,
        "slot": "17",
        "type": "t_contract(LendingPoolInterface)14684"
      },
      {
        "astId": 10545,
        "contract": "contracts/base/loans/LoanData.sol:LoanData",
        "label": "lendingToken",
        "offset": 0,
        "slot": "18",
        "type": "t_address"
      },
      {
        "astId": 10549,
        "contract": "contracts/base/loans/LoanData.sol:LoanData",
        "label": "collateralToken",
        "offset": 0,
        "slot": "19",
        "type": "t_address"
      },
      {
        "astId": 10554,
        "contract": "contracts/base/loans/LoanData.sol:LoanData",
        "label": "cToken",
        "offset": 0,
        "slot": "20",
        "type": "t_contract(CErc20Interface)16245"
      },
      {
        "astId": 10560,
        "contract": "contracts/base/loans/LoanData.sol:LoanData",
        "label": "borrowerLoans",
        "offset": 0,
        "slot": "21",
        "type": "t_mapping(t_address,t_array(t_uint256)dyn_storage)"
      },
      {
        "astId": 10564,
        "contract": "contracts/base/loans/LoanData.sol:LoanData",
        "label": "loanIDCounter",
        "offset": 0,
        "slot": "22",
        "type": "t_uint256"
      },
      {
        "astId": 10568,
        "contract": "contracts/base/loans/LoanData.sol:LoanData",
        "label": "signers",
        "offset": 0,
        "slot": "23",
        "type": "t_struct(AddressArray)17340_storage"
      },
      {
        "astId": 10571,
        "contract": "contracts/base/loans/LoanData.sol:LoanData",
        "label": "initDynamicProxyLogic",
        "offset": 0,
        "slot": "25",
        "type": "t_address"
      },
      {
        "astId": 10574,
        "contract": "contracts/base/loans/LoanData.sol:LoanData",
        "label": "loanData",
        "offset": 0,
        "slot": "26",
        "type": "t_address"
      },
      {
        "astId": 10577,
        "contract": "contracts/base/loans/LoanData.sol:LoanData",
        "label": "loanTermsConsensus",
        "offset": 0,
        "slot": "27",
        "type": "t_address"
      },
      {
        "astId": 10591,
        "contract": "contracts/base/loans/LoanData.sol:LoanData",
        "label": "_notEntered",
        "offset": 20,
        "slot": "27",
        "type": "t_bool"
      },
      {
        "astId": 10595,
        "contract": "contracts/base/loans/LoanData.sol:LoanData",
        "label": "assetSettings",
        "offset": 0,
        "slot": "28",
        "type": "t_contract(AssetSettingsInterface)14175"
      }
    ],
    "types": {
      "t_address": {
        "encoding": "inplace",
        "label": "address",
        "numberOfBytes": "20"
      },
      "t_address_payable": {
        "encoding": "inplace",
        "label": "address payable",
        "numberOfBytes": "20"
      },
      "t_array(t_address)dyn_storage": {
        "base": "t_address",
        "encoding": "dynamic_array",
        "label": "address[]",
        "numberOfBytes": "32"
      },
      "t_array(t_uint256)10_storage": {
        "base": "t_uint256",
        "encoding": "inplace",
        "label": "uint256[10]",
        "numberOfBytes": "320"
      },
      "t_array(t_uint256)dyn_storage": {
        "base": "t_uint256",
        "encoding": "dynamic_array",
        "label": "uint256[]",
        "numberOfBytes": "32"
      },
      "t_bool": {
        "encoding": "inplace",
        "label": "bool",
        "numberOfBytes": "1"
      },
      "t_bytes32": {
        "encoding": "inplace",
        "label": "bytes32",
        "numberOfBytes": "32"
      },
      "t_contract(AssetSettingsInterface)14175": {
        "encoding": "inplace",
        "label": "contract AssetSettingsInterface",
        "numberOfBytes": "20"
      },
      "t_contract(CErc20Interface)16245": {
        "encoding": "inplace",
        "label": "contract CErc20Interface",
        "numberOfBytes": "20"
      },
      "t_contract(LendingPoolInterface)14684": {
        "encoding": "inplace",
        "label": "contract LendingPoolInterface",
        "numberOfBytes": "20"
      },
      "t_contract(LogicVersionsRegistryInterface)14789": {
        "encoding": "inplace",
        "label": "contract LogicVersionsRegistryInterface",
        "numberOfBytes": "20"
      },
      "t_contract(SettingsInterface)15153": {
        "encoding": "inplace",
        "label": "contract SettingsInterface",
        "numberOfBytes": "20"
      },
      "t_enum(LoanStatus)19083": {
        "encoding": "inplace",
        "label": "enum TellerCommon.LoanStatus",
        "numberOfBytes": "1"
      },
      "t_mapping(t_address,t_array(t_uint256)dyn_storage)": {
        "encoding": "mapping",
        "key": "t_address",
        "label": "mapping(address => uint256[])",
        "numberOfBytes": "32",
        "value": "t_array(t_uint256)dyn_storage"
      },
      "t_mapping(t_address,t_uint256)": {
        "encoding": "mapping",
        "key": "t_address",
        "label": "mapping(address => uint256)",
        "numberOfBytes": "32",
        "value": "t_uint256"
      },
      "t_mapping(t_uint256,t_struct(Loan)19171_storage)": {
        "encoding": "mapping",
        "key": "t_uint256",
        "label": "mapping(uint256 => struct TellerCommon.Loan)",
        "numberOfBytes": "32",
        "value": "t_struct(Loan)19171_storage"
      },
      "t_struct(AddressArray)17340_storage": {
        "encoding": "inplace",
        "label": "struct AddressArrayLib.AddressArray",
        "members": [
          {
            "astId": 17335,
            "contract": "contracts/base/loans/LoanData.sol:LoanData",
            "label": "array",
            "offset": 0,
            "slot": "0",
            "type": "t_array(t_address)dyn_storage"
          },
          {
            "astId": 17339,
            "contract": "contracts/base/loans/LoanData.sol:LoanData",
            "label": "indices",
            "offset": 0,
            "slot": "1",
            "type": "t_mapping(t_address,t_uint256)"
          }
        ],
        "numberOfBytes": "64"
      },
      "t_struct(Loan)19171_storage": {
        "encoding": "inplace",
        "label": "struct TellerCommon.Loan",
        "members": [
          {
            "astId": 19146,
            "contract": "contracts/base/loans/LoanData.sol:LoanData",
            "label": "id",
            "offset": 0,
            "slot": "0",
            "type": "t_uint256"
          },
          {
            "astId": 19149,
            "contract": "contracts/base/loans/LoanData.sol:LoanData",
            "label": "loanTerms",
            "offset": 0,
            "slot": "1",
            "type": "t_struct(LoanTerms)19144_storage"
          },
          {
            "astId": 19151,
            "contract": "contracts/base/loans/LoanData.sol:LoanData",
            "label": "termsExpiry",
            "offset": 0,
            "slot": "7",
            "type": "t_uint256"
          },
          {
            "astId": 19153,
            "contract": "contracts/base/loans/LoanData.sol:LoanData",
            "label": "loanStartTime",
            "offset": 0,
            "slot": "8",
            "type": "t_uint256"
          },
          {
            "astId": 19155,
            "contract": "contracts/base/loans/LoanData.sol:LoanData",
            "label": "collateral",
            "offset": 0,
            "slot": "9",
            "type": "t_uint256"
          },
          {
            "astId": 19157,
            "contract": "contracts/base/loans/LoanData.sol:LoanData",
            "label": "lastCollateralIn",
            "offset": 0,
            "slot": "10",
            "type": "t_uint256"
          },
          {
            "astId": 19159,
            "contract": "contracts/base/loans/LoanData.sol:LoanData",
            "label": "principalOwed",
            "offset": 0,
            "slot": "11",
            "type": "t_uint256"
          },
          {
            "astId": 19161,
            "contract": "contracts/base/loans/LoanData.sol:LoanData",
            "label": "interestOwed",
            "offset": 0,
            "slot": "12",
            "type": "t_uint256"
          },
          {
            "astId": 19163,
            "contract": "contracts/base/loans/LoanData.sol:LoanData",
            "label": "borrowedAmount",
            "offset": 0,
            "slot": "13",
            "type": "t_uint256"
          },
          {
            "astId": 19165,
            "contract": "contracts/base/loans/LoanData.sol:LoanData",
            "label": "escrow",
            "offset": 0,
            "slot": "14",
            "type": "t_address"
          },
          {
            "astId": 19168,
            "contract": "contracts/base/loans/LoanData.sol:LoanData",
            "label": "status",
            "offset": 20,
            "slot": "14",
            "type": "t_enum(LoanStatus)19083"
          },
          {
            "astId": 19170,
            "contract": "contracts/base/loans/LoanData.sol:LoanData",
            "label": "liquidated",
            "offset": 21,
            "slot": "14",
            "type": "t_bool"
          }
        ],
        "numberOfBytes": "480"
      },
      "t_struct(LoanTerms)19144_storage": {
        "encoding": "inplace",
        "label": "struct TellerCommon.LoanTerms",
        "members": [
          {
            "astId": 19133,
            "contract": "contracts/base/loans/LoanData.sol:LoanData",
            "label": "borrower",
            "offset": 0,
            "slot": "0",
            "type": "t_address_payable"
          },
          {
            "astId": 19135,
            "contract": "contracts/base/loans/LoanData.sol:LoanData",
            "label": "recipient",
            "offset": 0,
            "slot": "1",
            "type": "t_address"
          },
          {
            "astId": 19137,
            "contract": "contracts/base/loans/LoanData.sol:LoanData",
            "label": "interestRate",
            "offset": 0,
            "slot": "2",
            "type": "t_uint256"
          },
          {
            "astId": 19139,
            "contract": "contracts/base/loans/LoanData.sol:LoanData",
            "label": "collateralRatio",
            "offset": 0,
            "slot": "3",
            "type": "t_uint256"
          },
          {
            "astId": 19141,
            "contract": "contracts/base/loans/LoanData.sol:LoanData",
            "label": "maxLoanAmount",
            "offset": 0,
            "slot": "4",
            "type": "t_uint256"
          },
          {
            "astId": 19143,
            "contract": "contracts/base/loans/LoanData.sol:LoanData",
            "label": "duration",
            "offset": 0,
            "slot": "5",
            "type": "t_uint256"
          }
        ],
        "numberOfBytes": "192"
      },
      "t_uint256": {
        "encoding": "inplace",
        "label": "uint256",
        "numberOfBytes": "32"
      }
    }
  }
}