{
  "address": "0x94636314C49b2885155A8b6aA7CA3410Eb40bca9",
  "abi": [
    {
      "anonymous": false,
      "inputs": [
        {
          "indexed": true,
          "internalType": "address",
          "name": "sender",
          "type": "address"
        },
        {
          "indexed": true,
          "internalType": "address",
          "name": "lendingToken",
          "type": "address"
        },
        {
          "indexed": true,
          "internalType": "address",
          "name": "collateralToken",
          "type": "address"
        },
        {
          "indexed": false,
          "internalType": "address",
          "name": "loans",
          "type": "address"
        },
        {
          "indexed": false,
          "internalType": "address",
          "name": "lendingPool",
          "type": "address"
        }
      ],
      "name": "NewMarketCreated",
      "type": "event"
    },
    {
      "inputs": [],
      "name": "_updateImplementationStored",
      "outputs": [],
      "stateMutability": "nonpayable",
      "type": "function"
    },
    {
      "inputs": [
        {
          "internalType": "address",
          "name": "lendingToken",
          "type": "address"
        },
        {
          "internalType": "address",
          "name": "collateralToken",
          "type": "address"
        }
      ],
      "name": "createMarket",
      "outputs": [],
      "stateMutability": "nonpayable",
      "type": "function"
    },
    {
      "inputs": [],
      "name": "erc20DynamicProxyLogic",
      "outputs": [
        {
          "internalType": "address",
          "name": "",
          "type": "address"
        }
      ],
      "stateMutability": "view",
      "type": "function"
    },
    {
      "inputs": [],
      "name": "implementationStored",
      "outputs": [
        {
          "internalType": "address",
          "name": "",
          "type": "address"
        }
      ],
      "stateMutability": "view",
      "type": "function"
    },
    {
      "inputs": [],
      "name": "initDynamicProxyLogic",
      "outputs": [
        {
          "internalType": "address",
          "name": "",
          "type": "address"
        }
      ],
      "stateMutability": "view",
      "type": "function"
    },
    {
      "inputs": [],
      "name": "initialize",
      "outputs": [],
      "stateMutability": "nonpayable",
      "type": "function"
    },
    {
      "inputs": [],
      "name": "logicName",
      "outputs": [
        {
          "internalType": "bytes32",
          "name": "",
          "type": "bytes32"
        }
      ],
      "stateMutability": "view",
      "type": "function"
    },
    {
      "inputs": [],
      "name": "logicRegistry",
      "outputs": [
        {
          "internalType": "contract LogicVersionsRegistryInterface",
          "name": "",
          "type": "address"
        }
      ],
      "stateMutability": "view",
      "type": "function"
    },
    {
      "inputs": [],
      "name": "marketRegistry",
      "outputs": [
        {
          "internalType": "contract IMarketRegistry",
          "name": "",
          "type": "address"
        }
      ],
      "stateMutability": "view",
      "type": "function"
    },
    {
      "inputs": [],
      "name": "settings",
      "outputs": [
        {
          "internalType": "contract SettingsInterface",
          "name": "",
          "type": "address"
        }
      ],
      "stateMutability": "view",
      "type": "function"
    },
    {
      "inputs": [],
      "name": "strictDynamic",
      "outputs": [
        {
          "internalType": "bool",
          "name": "",
          "type": "bool"
        }
      ],
      "stateMutability": "view",
      "type": "function"
    },
    {
      "inputs": [
        {
          "internalType": "address",
          "name": "newImplementation",
          "type": "address"
        }
      ],
      "name": "upgradeProxyTo",
      "outputs": [],
      "stateMutability": "nonpayable",
      "type": "function"
    }
  ],
  "solcInputHash": "425ab4401c3d9d9d8952479203ab9ac6",
  "bytecode": "0x608060405234801561001057600080fd5b50611e2c806100206000396000f3fe608060405234801561001057600080fd5b50600436106100b45760003560e01c806355dbd8eb1161007157806355dbd8eb146101485780638129fc1c1461015b57806391c3ecde14610163578063e06174e414610176578063e154e9a414610189578063ecb96fe6146101a6576100b4565b80631eb83d54146100b9578063207fd126146100c35780632c26486d146100d657806337c3eedc146100f257806339e32ef51461011d5780634f8654bc14610130575b600080fd5b6100c16101b9565b005b6100c16100d1366004610d53565b610288565b6100df60015481565b6040519081526020015b60405180910390f35b600054610105906001600160a01b031681565b6040516001600160a01b0390911681526020016100e9565b601154610105906001600160a01b031681565b6002546101059061010090046001600160a01b031681565b6100c1610156366004610d14565b610744565b6100c16107c3565b601054610105906001600160a01b031681565b600454610105906001600160a01b031681565b6002546101969060ff1681565b60405190151581526020016100e9565b600f54610105906001600160a01b031681565b60008054600154604051638b51f58b60e01b81526001600160a01b0390921691638b51f58b916101ef9160040190815260200190565b60606040518083038186803b15801561020757600080fd5b505afa15801561021b573d6000803e3d6000fd5b505050506040513d601f19601f8201168201806040525081019061023f9190610dab565b6002549093506001600160a01b038085166101009092041614915061028190505760028054610100600160a81b0319166101006001600160a01b038416021790555b5043600355565b610290610949565b156102d75760405162461bcd60e51b8152602060048201526012602482015271141310551193d49357d254d7d4105554d15160721b60448201526064015b60405180910390fd5b6004805460405163c095ea2760e01b815233928101929092526001600160a01b03169063c095ea279060240160006040518083038186803b15801561031b57600080fd5b505afa15801561032f573d6000803e3d6000fd5b5050600f54604051631922f3cb60e31b81526001600160a01b0386811660048301528581166024830152909116925063c9179e58915060440160206040518083038186803b15801561038057600080fd5b505afa158015610394573d6000803e3d6000fd5b505050506040513d601f19601f820116820180604052508101906103b89190610d8b565b156103fd5760405162461bcd60e51b81526020600482015260156024820152744d41524b45545f414c52454144595f45584953545360581b60448201526064016102ce565b6001600160a01b0382163b6104545760405162461bcd60e51b815260206004820152601f60248201527f424f52524f5745445f544f4b454e5f4d5553545f42455f434f4e54524143540060448201526064016102ce565b600480546040805163539a783760e11b815290516001600160a01b039092169263a734f06e928282019260209290829003018186803b15801561049657600080fd5b505afa1580156104aa573d6000803e3d6000fd5b505050506040513d601f19601f820116820180604052508101906104ce9190610d37565b6001600160a01b0316816001600160a01b031614806104f657506001600160a01b0381163b15155b6105425760405162461bcd60e51b815260206004820152601b60248201527f434f4c4c5f544f4b454e5f4d5553545f42455f434f4e5452414354000000000060448201526064016102ce565b600061056f7f5abf8f18cd2250f0e913a42d02d425f52ecab18635cec6156973ec60716bcdc860016109d6565b600f5460405163a5b6ee7960e01b81526001600160a01b0386811660048301529293506000929091169063a5b6ee799060240160206040518083038186803b1580156105ba57600080fd5b505afa1580156105ce573d6000803e3d6000fd5b505050506040513d601f19601f820116820180604052508101906105f29190610d37565b90506001600160a01b03811661060e5761060b84610a64565b90505b60048054601054604051637c643b2f60e11b81526001600160a01b038581169482019490945291831660248301528583166044830152821660648201529083169063f8c8765e90608401600060405180830381600087803b15801561067257600080fd5b505af1158015610686573d6000803e3d6000fd5b5050600f5460405163b435914360e01b81526001600160a01b0385811660048301528681166024830152909116925063b43591439150604401600060405180830381600087803b1580156106d957600080fd5b505af11580156106ed573d6000803e3d6000fd5b5050604080516001600160a01b038681168252858116602083015280881694508816925033917f87adc751f967d36a45c98702198beadd282abf0ad13cd1398d0c349e6a27ef64910160405180910390a450505050565b6000546001600160a01b031633146107975760405162461bcd60e51b81526020600482015260166024820152754d5553545f42455f4c4f4749435f524547495354525960501b60448201526064016102ce565b600280546001600160a01b0390921661010002610100600160a81b031990921691909117905543600355565b6107cc33610b7c565b60048054604080516348e1f66f60e11b815290516001600160a01b03909216926391c3ecde928282019260209290829003018186803b15801561080e57600080fd5b505afa158015610822573d6000803e3d6000fd5b505050506040513d601f19601f820116820180604052508101906108469190610d37565b601080546001600160a01b0319166001600160a01b039290921691909117905560405161087290610d07565b604051809103906000f08015801561088e573d6000803e3d6000fd5b50601180546001600160a01b0319166001600160a01b03929092169190911790556108d97e56904c0a65f3334119fcaee501fcf2401815b36cf85b134c2d27cfb887af7860006109d6565b600f80546001600160a01b0319166001600160a01b039290921691821790556040805163204a7f0760e21b81529051638129fc1c9160048082019260009290919082900301818387803b15801561092f57600080fd5b505af1158015610943573d6000803e3d6000fd5b50505050565b6000600460009054906101000a90046001600160a01b03166001600160a01b031663b187bd266040518163ffffffff1660e01b815260040160206040518083038186803b15801561099957600080fd5b505afa1580156109ad573d6000803e3d6000fd5b505050506040513d601f19601f820116820180604052508101906109d19190610d8b565b905090565b6010546000906109ee906001600160a01b0316610be6565b6000546040516307397e5b60e51b81526001600160a01b03918216600482015260248101869052841515604482015291925082169063e72fcb6090606401600060405180830381600087803b158015610a4657600080fd5b505af1158015610a5a573d6000803e3d6000fd5b5050505092915050565b6000610a917f2c7abbef8c67109c83a9854286f6a8cac8bb0a5f8078b0fcf7c7307a1dcdf5b860016109d6565b90506000610a9d610c38565b600f5460048054604051637c643b2f60e11b81526001600160a01b0393841692810192909252868316602483015282841660448301528216606482015291925083169063f8c8765e90608401600060405180830381600087803b158015610b0357600080fd5b505af1158015610b17573d6000803e3d6000fd5b505060405163189acdbd60e31b81526001600160a01b0385811660048301528416925063c4d66de89150602401600060405180830381600087803b158015610b5e57600080fd5b505af1158015610b72573d6000803e3d6000fd5b5050505050919050565b60408051808201909152601981527f53455454494e47535f4d5553545f42455f50524f5649444544000000000000006020820152610bc4906001600160a01b03831690610cda565b600480546001600160a01b0319166001600160a01b0392909216919091179055565b6000808260601b9050604051733d602d80600a3d3981f3363d3d373d3d3d363d7360601b81528160148201526e5af43d82803e903d91602b57fd5bf360881b60288201526037816000f0949350505050565b601154600090610c50906001600160a01b0316610be6565b600054604051632f84fd1f60e21b81526001600160a01b0391821660048201527f5a5b13020b37630499f0a1edfebcc493a1caf9c034ea95b0bbead43875fba6ce602482015291925082169063be13f47c90604401600060405180830381600087803b158015610cbf57600080fd5b505af1158015610cd3573d6000803e3d6000fd5b5050505090565b806001600160a01b038316610d025760405162461bcd60e51b81526004016102ce9190610de3565b505050565b610fa880610e4f83390190565b600060208284031215610d25578081fd5b8135610d3081610e36565b9392505050565b600060208284031215610d48578081fd5b8151610d3081610e36565b60008060408385031215610d65578081fd5b8235610d7081610e36565b91506020830135610d8081610e36565b809150509250929050565b600060208284031215610d9c578081fd5b81518015158114610d30578182fd5b600080600060608486031215610dbf578081fd5b83519250602084015191506040840151610dd881610e36565b809150509250925092565b6000602080835283518082850152825b81811015610e0f57858101830151858201604001528201610df3565b81811115610e205783604083870101525b50601f01601f1916929092016040019392505050565b6001600160a01b0381168114610e4b57600080fd5b5056fe608060405234801561001057600080fd5b50610f88806100206000396000f3fe6080604052600436106101235760003560e01c806355dbd8eb116100a0578063a9059cbb11610064578063a9059cbb1461033e578063be13f47c1461035e578063dd62ed3e1461037e578063e154e9a4146103c4578063e72fcb60146103de57610132565b806355dbd8eb1461029e5780635c60da1b146102be57806370a08231146102d357806395d89b4114610309578063a457c2d71461031e57610132565b80632c26486d116100e75780632c26486d146101e9578063313ce567146101ff57806337c3eedc1461022157806339509351146102595780634f8654bc1461027957610132565b806306fdde031461013a578063095ea7b31461016557806318160ddd146101955780631eb83d54146101b457806323b872dd146101c957610132565b36610132576101306103fe565b005b6101306103fe565b34801561014657600080fd5b5061014f610418565b60405161015c9190610e57565b60405180910390f35b34801561017157600080fd5b50610185610180366004610d9e565b6104ab565b604051901515815260200161015c565b3480156101a157600080fd5b506006545b60405190815260200161015c565b3480156101c057600080fd5b506101306104c1565b3480156101d557600080fd5b506101856101e4366004610d5e565b610590565b3480156101f557600080fd5b506101a660015481565b34801561020b57600080fd5b5060095460405160ff909116815260200161015c565b34801561022d57600080fd5b50600054610241906001600160a01b031681565b6040516001600160a01b03909116815260200161015c565b34801561026557600080fd5b50610185610274366004610d9e565b610646565b34801561028557600080fd5b506002546102419061010090046001600160a01b031681565b3480156102aa57600080fd5b506101306102b9366004610d03565b61067d565b3480156102ca57600080fd5b506102416106fc565b3480156102df57600080fd5b506101a66102ee366004610d03565b6001600160a01b031660009081526004602052604090205490565b34801561031557600080fd5b5061014f61070b565b34801561032a57600080fd5b50610185610339366004610d9e565b61071a565b34801561034a57600080fd5b50610185610359366004610d9e565b6107b5565b34801561036a57600080fd5b50610130610379366004610d9e565b6107c2565b34801561038a57600080fd5b506101a6610399366004610d26565b6001600160a01b03918216600090815260056020908152604080832093909416825291909152205490565b3480156103d057600080fd5b506002546101859060ff1681565b3480156103ea57600080fd5b506101306103f9366004610dc9565b6107da565b610406610863565b6104166104116108f8565b610902565b565b60606007805461042790610ee9565b80601f016020809104026020016040519081016040528092919081815260200182805461045390610ee9565b80156104a05780601f10610475576101008083540402835291602001916104a0565b820191906000526020600020905b81548152906001019060200180831161048357829003601f168201915b505050505090505b90565b60006104b8338484610926565b50600192915050565b60008054600154604051638b51f58b60e01b81526001600160a01b0390921691638b51f58b916104f79160040190815260200190565b60606040518083038186803b15801561050f57600080fd5b505afa158015610523573d6000803e3d6000fd5b505050506040513d601f19601f820116820180604052508101906105479190610e0e565b6002549093506001600160a01b038085166101009092041614915061058990505760028054610100600160a81b0319166101006001600160a01b038416021790555b5043600355565b600061059d848484610a4a565b6001600160a01b0384166000908152600560209081526040808320338452909152902054828110156106275760405162461bcd60e51b815260206004820152602860248201527f45524332303a207472616e7366657220616d6f756e74206578636565647320616044820152676c6c6f77616e636560c01b60648201526084015b60405180910390fd5b61063b85336106368685610ea2565b610926565b506001949350505050565b3360008181526005602090815260408083206001600160a01b038716845290915281205490916104b8918590610636908690610e8a565b6000546001600160a01b031633146106d05760405162461bcd60e51b81526020600482015260166024820152754d5553545f42455f4c4f4749435f524547495354525960501b604482015260640161061e565b600280546001600160a01b0390921661010002610100600160a81b031990921691909117905543600355565b60006107066108f8565b905090565b60606008805461042790610ee9565b3360009081526005602090815260408083206001600160a01b03861684529091528120548281101561079c5760405162461bcd60e51b815260206004820152602560248201527f45524332303a2064656372656173656420616c6c6f77616e63652062656c6f77604482015264207a65726f60d81b606482015260840161061e565b6107ab33856106368685610ea2565b5060019392505050565b60006104b8338484610a4a565b6107ce828260016107da565b6107d66104c1565b5050565b6000546001600160a01b0316156108285760405162461bcd60e51b8152602060048201526012602482015271141493d61657d053149150511657d253925560721b604482015260640161061e565b600080546001600160a01b0319166001600160a01b03851617905560018290556002805460ff191682151517905561085e6104c1565b505050565b60025460ff16801561088357504360035460326108809190610e8a565b11155b156104165760408051600481526024810182526020810180516001600160e01b03166307ae0f5560e21b179052905130916108bd91610e3b565b600060405180830381855af49150503d806000811461085e576040519150601f19603f3d011682016040523d82523d6000602084013e61085e565b6000610706610c22565b3660008037600080366000845af43d6000803e808015610921573d6000f35b3d6000fd5b6001600160a01b0383166109885760405162461bcd60e51b8152602060048201526024808201527f45524332303a20617070726f76652066726f6d20746865207a65726f206164646044820152637265737360e01b606482015260840161061e565b6001600160a01b0382166109e95760405162461bcd60e51b815260206004820152602260248201527f45524332303a20617070726f766520746f20746865207a65726f206164647265604482015261737360f01b606482015260840161061e565b6001600160a01b0383811660008181526005602090815260408083209487168084529482529182902085905590518481527f8c5be1e5ebec7d5bd14f71427d1e84f3dd0314c0f7b2291e5b200ac8c7c3b925910160405180910390a3505050565b6001600160a01b038316610aae5760405162461bcd60e51b815260206004820152602560248201527f45524332303a207472616e736665722066726f6d20746865207a65726f206164604482015264647265737360d81b606482015260840161061e565b6001600160a01b038216610b105760405162461bcd60e51b815260206004820152602360248201527f45524332303a207472616e7366657220746f20746865207a65726f206164647260448201526265737360e81b606482015260840161061e565b6001600160a01b03831660009081526004602052604090205481811015610b885760405162461bcd60e51b815260206004820152602660248201527f45524332303a207472616e7366657220616d6f756e7420657863656564732062604482015265616c616e636560d01b606482015260840161061e565b610b928282610ea2565b6001600160a01b038086166000908152600460205260408082209390935590851681529081208054849290610bc8908490610e8a565b92505081905550826001600160a01b0316846001600160a01b03167fddf252ad1be2c89b69c2b068fc378daa952ba7f163c4a11628f55a4df523b3ef84604051610c1491815260200190565b60405180910390a350505050565b60006107066000610c31610cdc565b15610cc75760008054600154604051638b51f58b60e01b81526001600160a01b0390921691638b51f58b91610c6c9160040190815260200190565b60606040518083038186803b158015610c8457600080fd5b505afa158015610c98573d6000803e3d6000fd5b505050506040513d601f19601f82011682018060405250810190610cbc9190610e0e565b93506104a892505050565b5060025461010090046001600160a01b031690565b60025460009060ff1680156107065750436003546001610cfc9190610e8a565b1115905090565b600060208284031215610d14578081fd5b8135610d1f81610f3a565b9392505050565b60008060408385031215610d38578081fd5b8235610d4381610f3a565b91506020830135610d5381610f3a565b809150509250929050565b600080600060608486031215610d72578081fd5b8335610d7d81610f3a565b92506020840135610d8d81610f3a565b929592945050506040919091013590565b60008060408385031215610db0578182fd5b8235610dbb81610f3a565b946020939093013593505050565b600080600060608486031215610ddd578283fd5b8335610de881610f3a565b92506020840135915060408401358015158114610e03578182fd5b809150509250925092565b600080600060608486031215610e22578283fd5b83519250602084015191506040840151610e0381610f3a565b60008251610e4d818460208701610eb9565b9190910192915050565b6000602082528251806020840152610e76816040850160208701610eb9565b601f01601f19169190910160400192915050565b60008219821115610e9d57610e9d610f24565b500190565b600082821015610eb457610eb4610f24565b500390565b60005b83811015610ed4578181015183820152602001610ebc565b83811115610ee3576000848401525b50505050565b600181811c90821680610efd57607f821691505b60208210811415610f1e57634e487b7160e01b600052602260045260246000fd5b50919050565b634e487b7160e01b600052601160045260246000fd5b6001600160a01b0381168114610f4f57600080fd5b5056fea2646970667358221220aaa28ccbfe809e054c92e412b8cd797a082adcf194610ee4d7f8acd7ac10c9ae64736f6c63430008030033a2646970667358221220dafa43346ed4a8ec404c85c2884aa96445d92f02c3226249da52ce0daa5fe4ff64736f6c63430008030033",
  "devdoc": {
    "author": "develop@teller.finance",
    "kind": "dev",
    "methods": {
      "_updateImplementationStored()": {
        "details": "It uses the LogicVersionsRegistry contract to get the logic address or the cached address if valid.It caches the current logic address for the proxy to reduce gas on subsequent calls within the same block."
      },
      "createMarket(address,address)": {
        "details": "It uses the Settings.ETH_ADDRESS to represent the ETHER.",
        "params": {
          "collateralToken": "the collateral token address.",
          "lendingToken": "the token address used to create the lending pool and TToken."
        }
      }
    },
    "stateVariables": {
      "erc20DynamicProxyLogic": {
        "details": "It is used to deploy a new proxy contract with minimal gas cost using the logic in the Factory contract."
      },
      "initDynamicProxyLogic": {
        "details": "It is used to deploy a new proxy contract with minimal gas cost using the logic in the Factory contract."
      }
    },
    "version": 1
  },
  "userdoc": {
    "events": {
      "NewMarketCreated(address,address,address,address,address)": {
        "notice": "Events "
      }
    },
    "kind": "user",
    "methods": {
      "_updateImplementationStored()": {
        "notice": "Updates the current implementation logic address for the stored logic name."
      },
      "createMarket(address,address)": {
        "notice": "It creates a new market for a given lending and collateral tokens."
      },
      "erc20DynamicProxyLogic()": {
        "notice": "It holds the address of a deployed ERC20DynamicProxy contract."
      },
      "implementationStored()": {
        "notice": "It stores the last known logic address locally to reduce gas costs."
      },
      "initDynamicProxyLogic()": {
        "notice": "It holds the address of a deployed InitializeableDynamicProxy contract."
      },
      "initialize()": {
        "notice": "It initializes this market factory instance."
      },
      "logicName()": {
        "notice": "It represent the logic name (key) used for this proxy."
      },
      "logicRegistry()": {
        "notice": "It returns the logic registry that is used to determine the implementation logic for this proxy."
      },
      "marketRegistry()": {
        "notice": "External Functions "
      },
      "settings()": {
        "notice": "It holds the platform Settings instance."
      },
      "strictDynamic()": {
        "notice": "Boolean indicating if the proxy must check the registry for a new implementation."
      },
      "upgradeProxyTo(address)": {
        "notice": "It updates a proxy's cached implementation address.It must only be called by the LogicVersionsRegistry for non strict DynamicProxy"
      }
    },
    "notice": "This contract offers functions to manage markets.",
    "version": 1
  },
  "storageLayout": {
    "storage": [
      {
        "astId": 13980,
        "contract": "contracts/base/MarketFactory.sol:MarketFactory",
        "label": "logicRegistry",
        "offset": 0,
        "slot": "0",
        "type": "t_contract(LogicVersionsRegistryInterface)14809"
      },
      {
        "astId": 13983,
        "contract": "contracts/base/MarketFactory.sol:MarketFactory",
        "label": "logicName",
        "offset": 0,
        "slot": "1",
        "type": "t_bytes32"
      },
      {
        "astId": 13986,
        "contract": "contracts/base/MarketFactory.sol:MarketFactory",
        "label": "strictDynamic",
        "offset": 0,
        "slot": "2",
        "type": "t_bool"
      },
      {
        "astId": 13989,
        "contract": "contracts/base/MarketFactory.sol:MarketFactory",
        "label": "implementationStored",
        "offset": 1,
        "slot": "2",
        "type": "t_address"
      },
      {
        "astId": 13992,
        "contract": "contracts/base/MarketFactory.sol:MarketFactory",
        "label": "_implementationBlockUpdated",
        "offset": 0,
        "slot": "3",
        "type": "t_uint256"
      },
      {
        "astId": 1898,
        "contract": "contracts/base/MarketFactory.sol:MarketFactory",
        "label": "settings",
        "offset": 0,
        "slot": "4",
        "type": "t_contract(SettingsInterface)15173"
      },
      {
        "astId": 1903,
        "contract": "contracts/base/MarketFactory.sol:MarketFactory",
        "label": "__gap",
        "offset": 0,
        "slot": "5",
        "type": "t_array(t_uint256)10_storage"
      },
      {
        "astId": 2596,
        "contract": "contracts/base/MarketFactory.sol:MarketFactory",
        "label": "marketRegistry",
        "offset": 0,
        "slot": "15",
        "type": "t_contract(IMarketRegistry)14413"
      },
      {
        "astId": 2599,
        "contract": "contracts/base/MarketFactory.sol:MarketFactory",
        "label": "initDynamicProxyLogic",
        "offset": 0,
        "slot": "16",
        "type": "t_address"
      },
      {
        "astId": 2602,
        "contract": "contracts/base/MarketFactory.sol:MarketFactory",
        "label": "erc20DynamicProxyLogic",
        "offset": 0,
        "slot": "17",
        "type": "t_address"
      }
    ],
    "types": {
      "t_address": {
        "encoding": "inplace",
        "label": "address",
        "numberOfBytes": "20"
      },
      "t_array(t_uint256)10_storage": {
        "base": "t_uint256",
        "encoding": "inplace",
        "label": "uint256[10]",
        "numberOfBytes": "320"
      },
      "t_bool": {
        "encoding": "inplace",
        "label": "bool",
        "numberOfBytes": "1"
      },
      "t_bytes32": {
        "encoding": "inplace",
        "label": "bytes32",
        "numberOfBytes": "32"
      },
      "t_contract(IMarketRegistry)14413": {
        "encoding": "inplace",
        "label": "contract IMarketRegistry",
        "numberOfBytes": "20"
      },
      "t_contract(LogicVersionsRegistryInterface)14809": {
        "encoding": "inplace",
        "label": "contract LogicVersionsRegistryInterface",
        "numberOfBytes": "20"
      },
      "t_contract(SettingsInterface)15173": {
        "encoding": "inplace",
        "label": "contract SettingsInterface",
        "numberOfBytes": "20"
      },
      "t_uint256": {
        "encoding": "inplace",
        "label": "uint256",
        "numberOfBytes": "32"
      }
    }
  }
}