{
  "address": "0x3b5A764c1220BeFeb193564f5DCfeE8868701429",
  "abi": [
    {
      "inputs": [
        {
          "internalType": "address",
          "name": "logicRegistryAddress",
          "type": "address"
        },
        {
          "internalType": "bytes32",
          "name": "aLogicName",
          "type": "bytes32"
        },
        {
          "internalType": "bool",
          "name": "isStrictDynamic",
          "type": "bool"
        }
      ],
      "stateMutability": "nonpayable",
      "type": "constructor"
    },
    {
      "stateMutability": "payable",
      "type": "fallback"
    },
    {
      "inputs": [],
      "name": "_updateImplementationStored",
      "outputs": [],
      "stateMutability": "nonpayable",
      "type": "function"
    },
    {
      "inputs": [],
      "name": "implementation",
      "outputs": [
        {
          "internalType": "address",
          "name": "",
          "type": "address"
        }
      ],
      "stateMutability": "view",
      "type": "function"
    },
    {
      "inputs": [],
      "name": "implementationStored",
      "outputs": [
        {
          "internalType": "address",
          "name": "",
          "type": "address"
        }
      ],
      "stateMutability": "view",
      "type": "function"
    },
    {
      "inputs": [],
      "name": "logicName",
      "outputs": [
        {
          "internalType": "bytes32",
          "name": "",
          "type": "bytes32"
        }
      ],
      "stateMutability": "view",
      "type": "function"
    },
    {
      "inputs": [],
      "name": "logicRegistry",
      "outputs": [
        {
          "internalType": "contract LogicVersionsRegistryInterface",
          "name": "",
          "type": "address"
        }
      ],
      "stateMutability": "view",
      "type": "function"
    },
    {
      "inputs": [],
      "name": "strictDynamic",
      "outputs": [
        {
          "internalType": "bool",
          "name": "",
          "type": "bool"
        }
      ],
      "stateMutability": "view",
      "type": "function"
    },
    {
      "inputs": [
        {
          "internalType": "address",
          "name": "newImplementation",
          "type": "address"
        }
      ],
      "name": "upgradeProxyTo",
      "outputs": [],
      "stateMutability": "nonpayable",
      "type": "function"
    },
    {
      "stateMutability": "payable",
      "type": "receive"
    }
  ],
  "transactionHash": "0x11dbe7572c7baa9543cef1327a34d6c1696a25173c33ccb5f113a3df3f76170d",
  "args": [
    "0x15FAaA69f9E4cCEDC38EFf6F1358a8208DbbFDa6",
    "0xb9acdc78d83e2ccba862e252a2ff8178ac2791d9cfa1bbb55cbf6a505e48a04c",
    false
  ],
  "solcInputHash": "0c80e7fb8aff27a671cb2892ea4bafd6",
  "bytecode": "0x608060405234801561001057600080fd5b5060405161078e38038061078e83398101604081905261002f91610158565b600080546001600160a01b0319166001600160a01b03851617905560018290556002805460ff191682151517905561006561006d565b5050506101cf565b60008054600154604051638b51f58b60e01b81526001600160a01b0390921691638b51f58b916100a39160040190815260200190565b60606040518083038186803b1580156100bb57600080fd5b505afa1580156100cf573d6000803e3d6000fd5b505050506040513d601f19601f820116820180604052508101906100f3919061019b565b6002549093506001600160a01b038085166101009092041614915061013590505760028054610100600160a81b0319166101006001600160a01b038416021790555b5043600355565b80516001600160a01b038116811461015357600080fd5b919050565b60008060006060848603121561016c578283fd5b6101758461013c565b92506020840151915060408401518015158114610190578182fd5b809150509250925092565b6000806000606084860312156101af578283fd5b83519250602084015191506101c66040850161013c565b90509250925092565b6105b0806101de6000396000f3fe6080604052600436106100745760003560e01c80634f8654bc1161004e5780634f8654bc1461010157806355dbd8eb146101265780635c60da1b14610146578063e154e9a41461015b57610083565b80631eb83d541461008b5780632c26486d146100a057806337c3eedc146100c957610083565b3661008357610081610185565b005b610081610185565b34801561009757600080fd5b5061008161019f565b3480156100ac57600080fd5b506100b660015481565b6040519081526020015b60405180910390f35b3480156100d557600080fd5b506000546100e9906001600160a01b031681565b6040516001600160a01b0390911681526020016100c0565b34801561010d57600080fd5b506002546100e99061010090046001600160a01b031681565b34801561013257600080fd5b506100816101413660046104aa565b61026e565b34801561015257600080fd5b506100e96102f1565b34801561016757600080fd5b506002546101759060ff1681565b60405190151581526020016100c0565b61018d610301565b61019d6101986103a0565b6103aa565b565b60008054600154604051638b51f58b60e01b81526001600160a01b0390921691638b51f58b916101d59160040190815260200190565b60606040518083038186803b1580156101ed57600080fd5b505afa158015610201573d6000803e3d6000fd5b505050506040513d601f19601f8201168201806040525081019061022591906104cd565b6002549093506001600160a01b038085166101009092041614915061026790505760028054610100600160a81b0319166101006001600160a01b038416021790555b5043600355565b6000546001600160a01b031633146102c55760405162461bcd60e51b81526020600482015260166024820152754d5553545f42455f4c4f4749435f524547495354525960501b604482015260640160405180910390fd5b600280546001600160a01b0390921661010002610100600160a81b031990921691909117905543600355565b60006102fb6103a0565b90505b90565b60025460ff168015610321575043600354603261031e919061053e565b11155b1561019d5760408051600481526024810182526020810180516001600160e01b03166307ae0f5560e21b1790529051309161035b91610505565b600060405180830381855af49150503d8060008114610396576040519150601f19603f3d011682016040523d82523d6000602084013e61039b565b606091505b505050565b60006102fb6103ce565b3660008037600080366000845af43d6000803e8080156103c9573d6000f35b3d6000fd5b60006103d8610483565b1561046e5760008054600154604051638b51f58b60e01b81526001600160a01b0390921691638b51f58b916104139160040190815260200190565b60606040518083038186803b15801561042b57600080fd5b505afa15801561043f573d6000803e3d6000fd5b505050506040513d601f19601f8201168201806040525081019061046391906104cd565b93506102fe92505050565b5060025461010090046001600160a01b031690565b60025460009060ff1680156102fb57504360035460016104a3919061053e565b1115905090565b6000602082840312156104bb578081fd5b81356104c681610562565b9392505050565b6000806000606084860312156104e1578182fd5b835192506020840151915060408401516104fa81610562565b809150509250925092565b60008251815b81811015610525576020818601810151858301520161050b565b818111156105335782828501525b509190910192915050565b6000821982111561055d57634e487b7160e01b81526011600452602481fd5b500190565b6001600160a01b038116811461057757600080fd5b5056fea26469706673582212207ff1d0929e57747d245d639f2e6e5e26d9a130b74b7265f006299f8354d13edd64736f6c63430008030033",
  "devdoc": {
    "author": "develop@teller.finance",
    "kind": "dev",
    "methods": {
      "_updateImplementationStored()": {
        "details": "It uses the LogicVersionsRegistry contract to get the logic address or the cached address if valid.It caches the current logic address for the proxy to reduce gas on subsequent calls within the same block."
      },
      "constructor": {
        "params": {
          "aLogicName": "the settings contract address.",
          "isStrictDynamic": "Boolean indicating if the proxy must check the registry for a new implementation.",
          "logicRegistryAddress": "the settings contract address."
        }
      },
      "implementation()": {
        "returns": {
          "_0": "Address of the current implementation"
        }
      }
    },
    "version": 1
  },
  "userdoc": {
    "kind": "user",
    "methods": {
      "_updateImplementationStored()": {
        "notice": "Updates the current implementation logic address for the stored logic name."
      },
      "constructor": {
        "notice": "It creates a new dynamic proxy given a logic registry contract and a logic name."
      },
      "implementation()": {
        "notice": "Returns the current implementation."
      },
      "implementationStored()": {
        "notice": "It stores the last known logic address locally to reduce gas costs."
      },
      "logicName()": {
        "notice": "It represent the logic name (key) used for this proxy."
      },
      "logicRegistry()": {
        "notice": "It returns the logic registry that is used to determine the implementation logic for this proxy."
      },
      "strictDynamic()": {
        "notice": "Boolean indicating if the proxy must check the registry for a new implementation."
      },
      "upgradeProxyTo(address)": {
        "notice": "It updates a proxy's cached implementation address.It must only be called by the LogicVersionsRegistry for non strict DynamicProxy"
      }
    },
    "notice": "It is a dynamic proxy contract for any contract. It uses the logic versions registry to get a logic contract address.It extends BaseUpgradeable to get access to the settings.",
    "version": 1
  },
  "storageLayout": {
    "storage": [
      {
        "astId": 13960,
        "contract": "contracts/base/proxies/DynamicProxy.sol:DynamicProxy",
        "label": "logicRegistry",
        "offset": 0,
        "slot": "0",
        "type": "t_contract(LogicVersionsRegistryInterface)14789"
      },
      {
        "astId": 13963,
        "contract": "contracts/base/proxies/DynamicProxy.sol:DynamicProxy",
        "label": "logicName",
        "offset": 0,
        "slot": "1",
        "type": "t_bytes32"
      },
      {
        "astId": 13966,
        "contract": "contracts/base/proxies/DynamicProxy.sol:DynamicProxy",
        "label": "strictDynamic",
        "offset": 0,
        "slot": "2",
        "type": "t_bool"
      },
      {
        "astId": 13969,
        "contract": "contracts/base/proxies/DynamicProxy.sol:DynamicProxy",
        "label": "implementationStored",
        "offset": 1,
        "slot": "2",
        "type": "t_address"
      },
      {
        "astId": 13972,
        "contract": "contracts/base/proxies/DynamicProxy.sol:DynamicProxy",
        "label": "_implementationBlockUpdated",
        "offset": 0,
        "slot": "3",
        "type": "t_uint256"
      }
    ],
    "types": {
      "t_address": {
        "encoding": "inplace",
        "label": "address",
        "numberOfBytes": "20"
      },
      "t_bool": {
        "encoding": "inplace",
        "label": "bool",
        "numberOfBytes": "1"
      },
      "t_bytes32": {
        "encoding": "inplace",
        "label": "bytes32",
        "numberOfBytes": "32"
      },
      "t_contract(LogicVersionsRegistryInterface)14789": {
        "encoding": "inplace",
        "label": "contract LogicVersionsRegistryInterface",
        "numberOfBytes": "20"
      },
      "t_uint256": {
        "encoding": "inplace",
        "label": "uint256",
        "numberOfBytes": "32"
      }
    }
  }
}