{
  "address": "0xe6fc54F4e4346b03636a0911Efd51ECa21242Bb7",
  "abi": [
    {
      "anonymous": false,
      "inputs": [
        {
          "indexed": true,
          "internalType": "uint256",
          "name": "loanID",
          "type": "uint256"
        },
        {
          "indexed": true,
          "internalType": "address",
          "name": "borrower",
          "type": "address"
        },
        {
          "indexed": false,
          "internalType": "address",
          "name": "liquidator",
          "type": "address"
        },
        {
          "indexed": false,
          "internalType": "uint256",
          "name": "reward",
          "type": "uint256"
        },
        {
          "indexed": false,
          "internalType": "uint256",
          "name": "tokensIn",
          "type": "uint256"
        }
      ],
      "name": "LoanLiquidated",
      "type": "event"
    },
    {
      "anonymous": false,
      "inputs": [
        {
          "indexed": true,
          "internalType": "uint256",
          "name": "loanID",
          "type": "uint256"
        },
        {
          "indexed": true,
          "internalType": "address",
          "name": "borrower",
          "type": "address"
        },
        {
          "indexed": false,
          "internalType": "uint256",
          "name": "amountPaid",
          "type": "uint256"
        },
        {
          "indexed": false,
          "internalType": "address",
          "name": "payer",
          "type": "address"
        },
        {
          "indexed": false,
          "internalType": "uint256",
          "name": "totalOwed",
          "type": "uint256"
        }
      ],
      "name": "LoanRepaid",
      "type": "event"
    },
    {
      "anonymous": false,
      "inputs": [
        {
          "indexed": false,
          "internalType": "address",
          "name": "recipient",
          "type": "address"
        }
      ],
      "name": "TokensClaimed",
      "type": "event"
    },
    {
      "inputs": [
        {
          "internalType": "uint256",
          "name": "loanID",
          "type": "uint256"
        }
      ],
      "name": "claimTokens",
      "outputs": [],
      "stateMutability": "nonpayable",
      "type": "function"
    },
    {
      "inputs": [
        {
          "internalType": "uint256",
          "name": "loanID",
          "type": "uint256"
        },
        {
          "internalType": "uint256",
          "name": "amount",
          "type": "uint256"
        }
      ],
      "name": "escrowRepay",
      "outputs": [],
      "stateMutability": "nonpayable",
      "type": "function"
    },
    {
      "inputs": [
        {
          "internalType": "uint256",
          "name": "loanID",
          "type": "uint256"
        }
      ],
      "name": "getLiquidationReward",
      "outputs": [
        {
          "internalType": "uint256",
          "name": "inLending_",
          "type": "uint256"
        },
        {
          "internalType": "uint256",
          "name": "inCollateral_",
          "type": "uint256"
        }
      ],
      "stateMutability": "view",
      "type": "function"
    },
    {
      "inputs": [
        {
          "internalType": "uint256",
          "name": "loanID",
          "type": "uint256"
        }
      ],
      "name": "liquidateLoan",
      "outputs": [],
      "stateMutability": "nonpayable",
      "type": "function"
    },
    {
      "inputs": [
        {
          "internalType": "uint256",
          "name": "loanID",
          "type": "uint256"
        },
        {
          "internalType": "uint256",
          "name": "amount",
          "type": "uint256"
        }
      ],
      "name": "repayLoan",
      "outputs": [],
      "stateMutability": "nonpayable",
      "type": "function"
    }
  ],
  "artifactName": "RepayFacet",
  "transactionHash": "0xc82ec063e1fb7747b28039b653e7bffdc003edf3d5af1efc52c2c5a301db91f1",
  "args": [],
  "solcInputHash": "1389136e56e3a43cff4f2990a46ef548",
  "bytecode": "0x608060405234801561001057600080fd5b506121ae806100206000396000f3fe608060405234801561001057600080fd5b50600436106100575760003560e01c806346e04a2f1461005c5780635ebc6334146100715780638a700b531461009d578063ccdd9f5d146100b0578063e89ad656146100c3575b600080fd5b61006f61006a366004611f06565b6100d6565b005b61008461007f366004611f06565b610223565b6040805192835260208301919091520160405180910390f35b61006f6100ab366004611f36565b6102f4565b61006f6100be366004611f06565b61044c565b61006f6100d1366004611f36565b61073c565b600080806100e381610930565b15151480156100fd57508015156100f983610930565b1515145b61010682610948565b9061012d5760405162461bcd60e51b81526004016101249190611fc4565b60405180910390fd5b5033610138846109b1565b546001600160a01b03161461018f5760405162461bcd60e51b815260206004820152601a60248201527f54656c6c65723a20636c61696d206e6f7420626f72726f7765720000000000006044820152606401610124565b600361019a846109b1565b600490810154600160e01b900460ff16908111156101c857634e487b7160e01b600052602160045260246000fd5b146102155760405162461bcd60e51b815260206004820152601760248201527f54656c6c65723a206c6f616e206e6f7420636c6f7365640000000000000000006044820152606401610124565b61021e836109ce565b505050565b6000806102b58361023385610a89565b6001600160a01b031663d17b71d7866040518263ffffffff1660e01b815260040161026091815260200190565b60206040518083038186803b15801561027857600080fd5b505afa15801561028c573d6000803e3d6000fd5b505050506040513d601f19601f820116820180604052508101906102b09190611f1e565b610af6565b5091506102ed6102c4846109b1565b600101546001600160a01b03166102da856109b1565b600201546001600160a01b031684610bba565b9050915091565b60008080527f7b305b6be5f275f648d05716597c483d754c2a242bd605feba3c64fb853605366020527f63eec20f0ae1af135811da961c707cd581594291a92cf7bcd78c1cf1aca4e4b0546000805160206121598339815191529060ff161561036f5760405162461bcd60e51b81526004016101249061202e565b60008281526002820160205260408120805460ff19166001179055808061039581610930565b15151480156103af57508015156103ab83610930565b1515145b6103b882610948565b906103d65760405162461bcd60e51b81526004016101249190611fc4565b507f50e75b23f8ec51bbcb044fe377457e835f3b5ccc7ebf69e80906452015dff607336104038282610c3c565b61041f5760405162461bcd60e51b815260040161012490611ff7565b61042c8888336000610c70565b5050506000938452505060020160205260409020805460ff191690555050565b60008080527f7b305b6be5f275f648d05716597c483d754c2a242bd605feba3c64fb853605366020527f63eec20f0ae1af135811da961c707cd581594291a92cf7bcd78c1cf1aca4e4b0546000805160206121598339815191529060ff16156104c75760405162461bcd60e51b81526004016101249061202e565b60008281526002820160205260408120805460ff1916600117905580806104ed81610930565b1515148015610507575080151561050383610930565b1515145b61051082610948565b9061052e5760405162461bcd60e51b81526004016101249190611fc4565b507f50e75b23f8ec51bbcb044fe377457e835f3b5ccc7ebf69e80906452015dff6073361055b8282610c3c565b6105775760405162461bcd60e51b815260040161012490611ff7565b6000610582886109b1565b9050600061058f89610a89565b6001600160a01b031663d17b71d78a6040518263ffffffff1660e01b81526004016105bc91815260200190565b60206040518083038186803b1580156105d457600080fd5b505afa1580156105e8573d6000803e3d6000fd5b505050506040513d601f19601f8201168201806040525081019061060c9190611f1e565b905061061889826110c3565b61066e5760405162461bcd60e51b815260206004820152602160248201527f54656c6c65723a20646f6573206e6f74206e656564206c69717569646174696f6044820152603760f91b6064820152608401610124565b60008061067b8b84610af6565b91509150600061068a8c6111e6565b600101546106978d6111e6565b546106a29190612065565b90506106b18c82336001610c70565b5082156106c5576106c58c84848733611203565b845460408051338152602081018690529081018390526001600160a01b03909116908d907f9950a0562c02382e2e840daa73082d5be7660ce37601f28fa4c84089c11e8a069060600160405180910390a35050506000978852505050600290930160205250506040909120805460ff191690555050565b6000808061074981610930565b1515148015610763575080151561075f83610930565b1515145b61076c82610948565b9061078a5760405162461bcd60e51b81526004016101249190611fc4565b507f50e75b23f8ec51bbcb044fe377457e835f3b5ccc7ebf69e80906452015dff607336107b78282610c3c565b6107d35760405162461bcd60e51b815260040161012490611ff7565b60008080527f7b305b6be5f275f648d05716597c483d754c2a242bd605feba3c64fb853605366020527f63eec20f0ae1af135811da961c707cd581594291a92cf7bcd78c1cf1aca4e4b0546000805160206121598339815191529060ff161561084e5760405162461bcd60e51b81526004016101249061202e565b60008281526002820160205260408120805460ff1916600117905561088889610876816109b1565b600101546001600160a01b0316611300565b905060006108958a611398565b905080821080156108a557508189115b156108f9576000818a116108c2576108bd838b6120e4565b6108cc565b6108cc83836120e4565b90506108f76108da8c6109b1565b600101546001600160a01b0316336108f18e6113fa565b84611421565b505b61090e8a8a6109078d6113fa565b6000610c70565b505050600091825260020160205260409020805460ff19169055505050505050565b60008181526001602052604090205460ff165b919050565b60608161097d576040518060400160405280601081526020016f14185d5cd8589b194e881c185d5cd95960821b8152506109ab565b6040518060400160405280601481526020017314185d5cd8589b194e881b9bdd081c185d5cd95960621b8152505b92915050565b60006109bb61147f565b6000928352600101602052506040902090565b6109ed816109db836109b1565b600101546001600160a01b03166114a8565b60008181527f0553069f1f0518e59f8623c18c83a1f987f2a0544d563e98dd803a7078142a8a60205260408120905b610a2582611542565b811015610a5157610a3f83610a3a848461154c565b6114a8565b80610a4981612127565b915050610a1c565b506040513381527fb638240958296a5b145c2f18c8ec62f72a20911efab2d38fb48c76695373761f9060200160405180910390a15050565b60009081527f0553069f1f0518e59f8623c18c83a1f987f2a0544d563e98dd803a7078142a8660209081526040808320600201546001600160a01b0390811684527f0553069f1f0518e59f8623c18c83a1f987f2a0544d563e98dd803a7078142a8b909252909120541690565b6000806000610b04856111e6565b60010154610b11866111e6565b54610b1c9190612065565b90506000610b3182610b2c611558565b611589565b610b3b9083612065565b90508415610b8757610b78610b4f876109b1565b600201546001600160a01b0316610b65886109b1565b600101546001600160a01b031687610bba565b9250610b848385612065565b93505b80841015610ba557610b98866115a6565b610ba29085612065565b93505b80841115610bb1578093505b50509250929050565b60405163c05b1ec360e01b8152600090309063c05b1ec390610be490879087908790600401611fa0565b60206040518083038186803b158015610bfc57600080fd5b505afa158015610c10573d6000803e3d6000fd5b505050506040513d601f19601f82011682018060405250810190610c349190611f1e565b949350505050565b6000610c4661165c565b6000938452602090815260408085206001600160a01b039490941685529290525090205460ff1690565b6000808411610cb65760405162461bcd60e51b815260206004820152601260248201527154656c6c65723a207a65726f20726570617960701b6044820152606401610124565b610cbf856111e6565b60010154610ccc866111e6565b54610cd79190612065565b905083811015610cea5792506000610cf7565b610cf484826120e4565b90505b60007f0553069f1f0518e59f8623c18c83a1f987f2a0544d563e98dd803a7078142a8d81610d24886109b1565b600101546001600160a01b039081168252602082019290925260400160002054811691508416610d53876113fa565b6001600160a01b03161415610deb57610d6b866113fa565b6001600160a01b031663125bfb66610d82886109b1565b600101546040516001600160e01b031960e084901b168152610db4916001600160a01b03169085908a90600401611fa0565b600060405180830381600087803b158015610dce57600080fd5b505af1158015610de2573d6000803e3d6000fd5b50505050610e0c565b610e0c610df7876109b1565b600101546001600160a01b0316858388611421565b600080610e18886111e6565b60010154871015610e4c57508580610e2f896111e6565b6001016000828254610e4191906120e4565b90915550610eb59050565b6000610e57896111e6565b600101541115610e8c57610e6a886111e6565b600101549050610e7a81886120e4565b96506000610e87896111e6565b600101555b8615610eb55786915086610e9f896111e6565b8054600090610eaf9084906120e4565b90915550505b604051638a700b5360e01b815260048101839052602481018290526001600160a01b03841690638a700b5390604401600060405180830381600087803b158015610efe57600080fd5b505af1158015610f12573d6000803e3d6000fd5b505050508415610fba578315610f6a5760405162461bcd60e51b815260206004820152601f60248201527f54656c6c65723a206c6971756964617465207061727469616c207265706179006044820152606401610124565b6004610f75896109b1565b600401601c6101000a81548160ff02191690836004811115610fa757634e487b7160e01b600052602160045260246000fd5b0217905550610fb588611672565b6110b8565b8361105f576003610fca896109b1565b600401601c6101000a81548160ff02191690836004811115610ffc57634e487b7160e01b600052602160045260246000fd5b0217905550600061100c896109b1565b600201546001600160a01b03161461103a5761103a8861102b8a6109b1565b546001600160a01b0316611738565b611043886109ce565b61105f886110508a6109b1565b546001600160a01b03166117cc565b611068886109b1565b54604080518981523360208201529081018690526001600160a01b039091169089907f20a1f2ec363af45dc5ee7d9d622f2dd68b52501c382126c7f04b53663c4c69bf9060600160405180910390a35b505050949350505050565b6000806110cf846109b1565b90506002600482810154600160e01b900460ff169081111561110157634e487b7160e01b600052602160045260246000fd5b146111105760009150506109ab565b6004810154600160d01b900461ffff16156111b0576040516372e1132760e01b81526004810185905260009030906372e113279060240160606040518083038186803b15801561115f57600080fd5b505afa158015611173573d6000803e3d6000fd5b505050506040513d601f19601f820116820180604052508101906111979190611f57565b50915050838111156111ae576001925050506109ab565b505b60048101546111d59063ffffffff600160801b8204811691600160a01b90041661207d565b63ffffffff16421015949350505050565b60006111f061147f565b6000928352600201602052506040902090565b600461120e866109b1565b600490810154600160e01b900460ff169081111561123c57634e487b7160e01b600052602160045260246000fd5b146112895760405162461bcd60e51b815260206004820152601b60248201527f54656c6c65723a206c6f616e206e6f74206c69717569646174656400000000006044820152606401610124565b8284116112da5760006112c761129e876109b1565b600101546001600160a01b03166112b4886109b1565b600201546001600160a01b031687610bba565b90506112d4868284611841565b506112f9565b6112e5858383611841565b6112f985826112f486886120e4565b6118fe565b5050505050565b6000816001600160a01b03166370a0823161131a856113fa565b6040516001600160e01b031960e084901b1681526001600160a01b03909116600482015260240160206040518083038186803b15801561135957600080fd5b505afa15801561136d573d6000803e3d6000fd5b505050506040513d601f19601f820116820180604052508101906113919190611f1e565b9392505050565b600060026113a5836109b1565b600490810154600160e01b900460ff16908111156113d357634e487b7160e01b600052602160045260246000fd5b1415610943576113e2826111e6565b600101546113ef836111e6565b546109ab9190612065565b600061140461147f565b60009283526004016020525060409020546001600160a01b031690565b611479846323b872dd60e01b85858560405160240161144293929190611fa0565b60408051601f198184030181529190526020810180516001600160e01b03166001600160e01b0319909316929092179091526119a0565b50505050565b60007f0553069f1f0518e59f8623c18c83a1f987f2a0544d563e98dd803a7078142a855b905090565b60006114b48383611300565b9050801561021e576114c5836113fa565b6001600160a01b031663125bfb66836114dd866109b1565b546040516001600160e01b031960e085901b16815261150b92916001600160a01b0316908690600401611fa0565b600060405180830381600087803b15801561152557600080fd5b505af1158015611539573d6000803e3d6000fd5b50505050505050565b60006109ab825490565b60006113918383611a72565b60006115837f5166f2578d96d76687be006158a90b639fcc7501b0381b6b4ed953aca3e0e183611b06565b54919050565b600061271061159c61ffff8416856120c5565b61139191906120a5565b6000806115b2836109b1565b600101546001600160a01b031690506115cb8382611300565b6115d59083612065565b915060006115e284611b0e565b905060006115ef82611542565b11156116555760005b61160182611542565b81101561165357600061161d86611618858561154c565b611300565b905061163361162c848461154c565b8583610bba565b61163d9086612065565b945050808061164b90612127565b9150506115f8565b505b5050919050565b60006000805160206121598339815191526114a3565b600061167c611b2b565b60008381526001919091016020526040812091505b61169a82611542565b81101561021e576006546001600160a01b03166001600160a01b03166323b872dd306000600901546001600160a01b03166116d5868661154c565b6040518463ffffffff1660e01b81526004016116f393929190611fa0565b600060405180830381600087803b15801561170d57600080fd5b505af1158015611721573d6000803e3d6000fd5b50505050808061173090612127565b915050611691565b6117c88261174584610a89565b6001600160a01b031663d17b71d7856040518263ffffffff1660e01b815260040161177291815260200190565b60206040518083038186803b15801561178a57600080fd5b505afa15801561179e573d6000803e3d6000fd5b505050506040513d601f19601f820116820180604052508101906117c29190611f1e565b83611841565b5050565b60006117d6611b2b565b60008481526001919091016020526040812091505b6117f482611542565b8110156114795761182e611806611b2b565b6001600160a01b038516600090815260209190915260409020611829848461154c565b611b53565b508061183981612127565b9150506117eb565b61184a83610a89565b604051630ad58d2f60e01b815260048101859052602481018490526001600160a01b0383811660448301529190911690630ad58d2f90606401600060405180830381600087803b15801561189d57600080fd5b505af11580156118b1573d6000803e3d6000fd5b50505050806001600160a01b0316837f7c5e5cb62e5ed3caf3764e4b0afedfedef533e27809d43367799787ad2abcd41846040516118f191815260200190565b60405180910390a3505050565b60008381527f0553069f1f0518e59f8623c18c83a1f987f2a0544d563e98dd803a7078142a8a602052604090208161194d85611939816109b1565b600101546001600160a01b03168684611b5f565b905060005b61195b83611542565b811015611998578161196f5750505061021e565b6119848661197d858461154c565b8785611b5f565b91508061199081612127565b915050611952565b505050505050565b60006119f5826040518060400160405280602081526020017f5361666545524332303a206c6f772d6c6576656c2063616c6c206661696c6564815250856001600160a01b0316611cfa9092919063ffffffff16565b80519091501561021e5780806020019051810190611a139190611ee6565b61021e5760405162461bcd60e51b815260206004820152602a60248201527f5361666545524332303a204552433230206f7065726174696f6e20646964206e6044820152691bdd081cdd58d8d9595960b21b6064820152608401610124565b81546000908210611ad05760405162461bcd60e51b815260206004820152602260248201527f456e756d657261626c655365743a20696e646578206f7574206f6620626f756e604482015261647360f01b6064820152608401610124565b826000018281548110611af357634e487b7160e01b600052603260045260246000fd5b9060005260206000200154905092915050565b6000806111f0565b6000611b1861147f565b6000928352600501602052506040902090565b60007f36ec560bcbaf142f58499b90035254e32b3f3563174bc96dc2b2724bafa4c2a76114a3565b60006113918383611d09565b600080611b6c8686611300565b90508015611cf0576000611b7f876109b1565b600101546001600160a01b0387811691161415611b9d575080611bc0565b611bbd86611baa896109b1565b600101546001600160a01b031684610bba565b90505b838111611c4457611bd0876113fa565b6001600160a01b031663125bfb668787856040518463ffffffff1660e01b8152600401611bff93929190611fa0565b600060405180830381600087803b158015611c1957600080fd5b505af1158015611c2d573d6000803e3d6000fd5b505050508084611c3d91906120e4565b9350611cee565b6000611c4f886109b1565b600101546001600160a01b0388811691161415611c6d575083611c7e565b611c7b83610b2c8785611d58565b90505b611c87886113fa565b6001600160a01b031663125bfb668888846040518463ffffffff1660e01b8152600401611cb693929190611fa0565b600060405180830381600087803b158015611cd057600080fd5b505af1158015611ce4573d6000803e3d6000fd5b5050505060009450505b505b5090949350505050565b6060610c348484600085611d85565b6000818152600183016020526040812054611d50575081546001818101845560008481526020808220909301849055845484825282860190935260409020919091556109ab565b5060006109ab565b60008115611d7c5781611d6d612710856120c5565b611d7791906120a5565b611391565b50600092915050565b606082471015611de65760405162461bcd60e51b815260206004820152602660248201527f416464726573733a20696e73756666696369656e742062616c616e636520666f6044820152651c8818d85b1b60d21b6064820152608401610124565b843b611e345760405162461bcd60e51b815260206004820152601d60248201527f416464726573733a2063616c6c20746f206e6f6e2d636f6e74726163740000006044820152606401610124565b600080866001600160a01b03168587604051611e509190611f84565b60006040518083038185875af1925050503d8060008114611e8d576040519150601f19603f3d011682016040523d82523d6000602084013e611e92565b606091505b5091509150611ea2828286611ead565b979650505050505050565b60608315611ebc575081611391565b825115611ecc5782518084602001fd5b8160405162461bcd60e51b81526004016101249190611fc4565b600060208284031215611ef7578081fd5b81518015158114611391578182fd5b600060208284031215611f17578081fd5b5035919050565b600060208284031215611f2f578081fd5b5051919050565b60008060408385031215611f48578081fd5b50508035926020909101359150565b600080600060608486031215611f6b578081fd5b8351925060208401519150604084015190509250925092565b60008251611f968184602087016120fb565b9190910192915050565b6001600160a01b039384168152919092166020820152604081019190915260600190565b6000602082528251806020840152611fe38160408501602087016120fb565b601f01601f19169190910160400192915050565b6020808252601d908201527f416363657373436f6e74726f6c3a206e6f7420617574686f72697a6564000000604082015260600190565b60208082526018908201527f416363657373436f6e74726f6c3a207265656e74657265640000000000000000604082015260600190565b6000821982111561207857612078612142565b500190565b600063ffffffff80831681851680830382111561209c5761209c612142565b01949350505050565b6000826120c057634e487b7160e01b81526012600452602481fd5b500490565b60008160001904831182151516156120df576120df612142565b500290565b6000828210156120f6576120f6612142565b500390565b60005b838110156121165781810151838201526020016120fe565b838111156114795750506000910152565b600060001982141561213b5761213b612142565b5060010190565b634e487b7160e01b600052601160045260246000fdfe7b305b6be5f275f648d05716597c483d754c2a242bd605feba3c64fb85360534a2646970667358221220beb1f66454200f755d3063a5a56f0b1f0da1a200a3df4754d17b4b6976bbe3d064736f6c63430008030033",
  "history": [
    {
      "address": "0xD99dFbd7eE2cc714DEbff8390C33f0dBB1502eD2",
      "abi": [
        {
          "anonymous": false,
          "inputs": [
            {
              "indexed": true,
              "internalType": "uint256",
              "name": "loanID",
              "type": "uint256"
            },
            {
              "indexed": true,
              "internalType": "address",
              "name": "borrower",
              "type": "address"
            },
            {
              "indexed": false,
              "internalType": "address",
              "name": "liquidator",
              "type": "address"
            },
            {
              "indexed": false,
              "internalType": "uint256",
              "name": "reward",
              "type": "uint256"
            },
            {
              "indexed": false,
              "internalType": "uint256",
              "name": "tokensIn",
              "type": "uint256"
            }
          ],
          "name": "LoanLiquidated",
          "type": "event"
        },
        {
          "anonymous": false,
          "inputs": [
            {
              "indexed": true,
              "internalType": "uint256",
              "name": "loanID",
              "type": "uint256"
            },
            {
              "indexed": true,
              "internalType": "address",
              "name": "borrower",
              "type": "address"
            },
            {
              "indexed": false,
              "internalType": "uint256",
              "name": "amountPaid",
              "type": "uint256"
            },
            {
              "indexed": false,
              "internalType": "address",
              "name": "payer",
              "type": "address"
            },
            {
              "indexed": false,
              "internalType": "uint256",
              "name": "totalOwed",
              "type": "uint256"
            }
          ],
          "name": "LoanRepaid",
          "type": "event"
        },
        {
          "inputs": [
            {
              "internalType": "uint256",
              "name": "loanID",
              "type": "uint256"
            },
            {
              "internalType": "uint256",
              "name": "amount",
              "type": "uint256"
            }
          ],
          "name": "escrowRepay",
          "outputs": [],
          "stateMutability": "nonpayable",
          "type": "function"
        },
        {
          "inputs": [
            {
              "internalType": "uint256",
              "name": "loanID",
              "type": "uint256"
            }
          ],
          "name": "getLiquidationReward",
          "outputs": [
            {
              "internalType": "uint256",
              "name": "inLending_",
              "type": "uint256"
            },
            {
              "internalType": "uint256",
              "name": "inCollateral_",
              "type": "uint256"
            }
          ],
          "stateMutability": "view",
          "type": "function"
        },
        {
          "inputs": [
            {
              "internalType": "uint256",
              "name": "loanID",
              "type": "uint256"
            }
          ],
          "name": "liquidateLoan",
          "outputs": [],
          "stateMutability": "nonpayable",
          "type": "function"
        },
        {
          "inputs": [
            {
              "internalType": "uint256",
              "name": "loanID",
              "type": "uint256"
            },
            {
              "internalType": "uint256",
              "name": "amount",
              "type": "uint256"
            }
          ],
          "name": "repayLoan",
          "outputs": [],
          "stateMutability": "nonpayable",
          "type": "function"
        }
      ],
      "artifactName": "RepayFacet",
      "transactionHash": "0x44d6b974ec21f1c4420ecb2be53506c60d1abe4b5fac2a2b5352ae4a3fb3bb5d",
      "receipt": {
        "to": null,
        "from": "0xAFe87013dc96edE1E116a288D80FcaA0eFFE5fe5",
        "contractAddress": "0xD99dFbd7eE2cc714DEbff8390C33f0dBB1502eD2",
        "transactionIndex": 0,
        "gasUsed": "1838004",
        "logsBloom": "0x00000000000000000000000000000000000000000000000000000000000000000000000000000000000000000000000000000000000000000000000000000000000000000000000000000000000000000000000000000000000000000000000000000000000000000000000000000000000000000000000000000000000000000000000000000000000000000000000000000000000000000000000000000000000000000000000000000000000000000000000000000000000000000000000000000000000000000000000000000000000000000000000000000000000000000000000000000000000000000000000000000000000000000000000000000000",
        "blockHash": "0xecd0c4fcd32a0e212c29bf1a50f9095c4551299b06f40b8cb32c08eeeb3ab526",
        "transactionHash": "0x44d6b974ec21f1c4420ecb2be53506c60d1abe4b5fac2a2b5352ae4a3fb3bb5d",
        "logs": [],
        "blockNumber": 25103793,
        "cumulativeGasUsed": "1838004",
        "status": 1,
        "byzantium": true
      },
      "args": [],
      "solcInputHash": "dc3b3c0336b59a4fae33a8cd036a81b5",
      "metadata": "{\"compiler\":{\"version\":\"0.8.3+commit.8d00100c\"},\"language\":\"Solidity\",\"output\":{\"abi\":[{\"anonymous\":false,\"inputs\":[{\"indexed\":true,\"internalType\":\"uint256\",\"name\":\"loanID\",\"type\":\"uint256\"},{\"indexed\":true,\"internalType\":\"address\",\"name\":\"borrower\",\"type\":\"address\"},{\"indexed\":false,\"internalType\":\"address\",\"name\":\"liquidator\",\"type\":\"address\"},{\"indexed\":false,\"internalType\":\"uint256\",\"name\":\"reward\",\"type\":\"uint256\"},{\"indexed\":false,\"internalType\":\"uint256\",\"name\":\"tokensIn\",\"type\":\"uint256\"}],\"name\":\"LoanLiquidated\",\"type\":\"event\"},{\"anonymous\":false,\"inputs\":[{\"indexed\":true,\"internalType\":\"uint256\",\"name\":\"loanID\",\"type\":\"uint256\"},{\"indexed\":true,\"internalType\":\"address\",\"name\":\"borrower\",\"type\":\"address\"},{\"indexed\":false,\"internalType\":\"uint256\",\"name\":\"amountPaid\",\"type\":\"uint256\"},{\"indexed\":false,\"internalType\":\"address\",\"name\":\"payer\",\"type\":\"address\"},{\"indexed\":false,\"internalType\":\"uint256\",\"name\":\"totalOwed\",\"type\":\"uint256\"}],\"name\":\"LoanRepaid\",\"type\":\"event\"},{\"inputs\":[{\"internalType\":\"uint256\",\"name\":\"loanID\",\"type\":\"uint256\"},{\"internalType\":\"uint256\",\"name\":\"amount\",\"type\":\"uint256\"}],\"name\":\"escrowRepay\",\"outputs\":[],\"stateMutability\":\"nonpayable\",\"type\":\"function\"},{\"inputs\":[{\"internalType\":\"uint256\",\"name\":\"loanID\",\"type\":\"uint256\"}],\"name\":\"getLiquidationReward\",\"outputs\":[{\"internalType\":\"uint256\",\"name\":\"inLending_\",\"type\":\"uint256\"},{\"internalType\":\"uint256\",\"name\":\"inCollateral_\",\"type\":\"uint256\"}],\"stateMutability\":\"view\",\"type\":\"function\"},{\"inputs\":[{\"internalType\":\"uint256\",\"name\":\"loanID\",\"type\":\"uint256\"}],\"name\":\"liquidateLoan\",\"outputs\":[],\"stateMutability\":\"nonpayable\",\"type\":\"function\"},{\"inputs\":[{\"internalType\":\"uint256\",\"name\":\"loanID\",\"type\":\"uint256\"},{\"internalType\":\"uint256\",\"name\":\"amount\",\"type\":\"uint256\"}],\"name\":\"repayLoan\",\"outputs\":[],\"stateMutability\":\"nonpayable\",\"type\":\"function\"}],\"devdoc\":{\"events\":{\"LoanLiquidated(uint256,address,address,uint256,uint256)\":{\"params\":{\"borrower\":\"Account address of the borrower\",\"liquidator\":\"Account address of the liquidator\",\"loanID\":\"ID of loan from which collateral was withdrawn\",\"reward\":\"Value in lending token paid out to liquidator\",\"tokensIn\":\"Percentage of the collateral price paid by the liquidator to the lending pool\"}},\"LoanRepaid(uint256,address,uint256,address,uint256)\":{\"params\":{\"amountPaid\":\"Amount of the loan paid back\",\"borrower\":\"Account address of the borrower\",\"loanID\":\"ID of loan from which collateral was withdrawn\",\"payer\":\"Account address of the payer\",\"totalOwed\":\"Total amount of the loan to be repaid\"}}},\"kind\":\"dev\",\"methods\":{\"escrowRepay(uint256,uint256)\":{\"details\":\"If the Escrow's balance of the borrowed token is less than the amount to repay, transfer tokens from the sender's wallet.Only the owner of the Escrow can call this. If someone else wants to make a payment, they should call the loan manager directly.\",\"params\":{\"amount\":\"The amount being repaid.\",\"loanID\":\"The id of the loan being used.\"}},\"getLiquidationReward(uint256)\":{\"params\":{\"loanID\":\"The loan ID to get the info.\"},\"returns\":{\"inCollateral_\":\"The value the liquidator will receive denoted in collateral tokens.\",\"inLending_\":\"The value the liquidator will receive denoted in lending tokens.\"}},\"liquidateLoan(uint256)\":{\"params\":{\"loanID\":\"The ID of the loan to be liquidated\"}},\"repayLoan(uint256,uint256)\":{\"params\":{\"amount\":\"The amount of tokens to pay back to the loan\",\"loanID\":\"The ID of the loan the payment is for\"}}},\"version\":1},\"userdoc\":{\"events\":{\"LoanLiquidated(uint256,address,address,uint256,uint256)\":{\"notice\":\"This event is emitted when a loan has been successfully liquidated\"},\"LoanRepaid(uint256,address,uint256,address,uint256)\":{\"notice\":\"This event is emitted when a loan has been successfully repaid\"}},\"kind\":\"user\",\"methods\":{\"escrowRepay(uint256,uint256)\":{\"notice\":\"Repay this Escrow's loan.\"},\"getLiquidationReward(uint256)\":{\"notice\":\"It gets the current liquidation reward for a given loan.\"},\"liquidateLoan(uint256)\":{\"notice\":\"Liquidate a loan if it is expired or under collateralized\"},\"repayLoan(uint256,uint256)\":{\"notice\":\"Make a payment to a loan\"}},\"version\":1}},\"settings\":{\"compilationTarget\":{\"contracts/market/RepayFacet.sol\":\"RepayFacet\"},\"evmVersion\":\"istanbul\",\"libraries\":{},\"metadata\":{\"bytecodeHash\":\"ipfs\",\"useLiteralContent\":true},\"optimizer\":{\"enabled\":true,\"runs\":200},\"remappings\":[]},\"sources\":{\"@chainlink/contracts/src/v0.8/interfaces/AggregatorInterface.sol\":{\"content\":\"// SPDX-License-Identifier: MIT\\npragma solidity ^0.8.0;\\n\\ninterface AggregatorInterface {\\n  function latestAnswer()\\n    external\\n    view\\n    returns (\\n      int256\\n    );\\n  \\n  function latestTimestamp()\\n    external\\n    view\\n    returns (\\n      uint256\\n    );\\n\\n  function latestRound()\\n    external\\n    view\\n    returns (\\n      uint256\\n    );\\n\\n  function getAnswer(\\n    uint256 roundId\\n  )\\n    external\\n    view\\n    returns (\\n      int256\\n    );\\n\\n  function getTimestamp(\\n    uint256 roundId\\n  )\\n    external\\n    view\\n    returns (\\n      uint256\\n    );\\n\\n  event AnswerUpdated(\\n    int256 indexed current,\\n    uint256 indexed roundId,\\n    uint256 updatedAt\\n  );\\n\\n  event NewRound(\\n    uint256 indexed roundId,\\n    address indexed startedBy,\\n    uint256 startedAt\\n  );\\n}\\n\",\"keccak256\":\"0x1a5dc81544a6479f64437a8aca22c869769dd54ee3522c7ef5ebae0d329a28f0\",\"license\":\"MIT\"},\"@chainlink/contracts/src/v0.8/interfaces/AggregatorV2V3Interface.sol\":{\"content\":\"// SPDX-License-Identifier: MIT\\npragma solidity ^0.8.0;\\n\\nimport \\\"./AggregatorInterface.sol\\\";\\nimport \\\"./AggregatorV3Interface.sol\\\";\\n\\ninterface AggregatorV2V3Interface is AggregatorInterface, AggregatorV3Interface\\n{\\n}\\n\",\"keccak256\":\"0xe8f8d98b515366730824d24269c7267eee7f0288cf737db8659acbb0c751eb53\",\"license\":\"MIT\"},\"@chainlink/contracts/src/v0.8/interfaces/AggregatorV3Interface.sol\":{\"content\":\"// SPDX-License-Identifier: MIT\\npragma solidity ^0.8.0;\\n\\ninterface AggregatorV3Interface {\\n\\n  function decimals()\\n    external\\n    view\\n    returns (\\n      uint8\\n    );\\n\\n  function description()\\n    external\\n    view\\n    returns (\\n      string memory\\n    );\\n\\n  function version()\\n    external\\n    view\\n    returns (\\n      uint256\\n    );\\n\\n  // getRoundData and latestRoundData should both raise \\\"No data present\\\"\\n  // if they do not have data to report, instead of returning unset values\\n  // which could be misinterpreted as actual reported values.\\n  function getRoundData(\\n    uint80 _roundId\\n  )\\n    external\\n    view\\n    returns (\\n      uint80 roundId,\\n      int256 answer,\\n      uint256 startedAt,\\n      uint256 updatedAt,\\n      uint80 answeredInRound\\n    );\\n\\n  function latestRoundData()\\n    external\\n    view\\n    returns (\\n      uint80 roundId,\\n      int256 answer,\\n      uint256 startedAt,\\n      uint256 updatedAt,\\n      uint80 answeredInRound\\n    );\\n\\n}\\n\",\"keccak256\":\"0xe6f5ac8c47f3b9b6135051efb9216f9ba5b312a6ecc20209b4f66a780443c328\",\"license\":\"MIT\"},\"@openzeppelin/contracts-upgradeable/access/AccessControlUpgradeable.sol\":{\"content\":\"// SPDX-License-Identifier: MIT\\n\\npragma solidity ^0.8.0;\\n\\nimport \\\"../utils/ContextUpgradeable.sol\\\";\\nimport \\\"../utils/StringsUpgradeable.sol\\\";\\nimport \\\"../utils/introspection/ERC165Upgradeable.sol\\\";\\nimport \\\"../proxy/utils/Initializable.sol\\\";\\n\\n/**\\n * @dev External interface of AccessControl declared to support ERC165 detection.\\n */\\ninterface IAccessControlUpgradeable {\\n    function hasRole(bytes32 role, address account) external view returns (bool);\\n    function getRoleAdmin(bytes32 role) external view returns (bytes32);\\n    function grantRole(bytes32 role, address account) external;\\n    function revokeRole(bytes32 role, address account) external;\\n    function renounceRole(bytes32 role, address account) external;\\n}\\n\\n/**\\n * @dev Contract module that allows children to implement role-based access\\n * control mechanisms. This is a lightweight version that doesn't allow enumerating role\\n * members except through off-chain means by accessing the contract event logs. Some\\n * applications may benefit from on-chain enumerability, for those cases see\\n * {AccessControlEnumerable}.\\n *\\n * Roles are referred to by their `bytes32` identifier. These should be exposed\\n * in the external API and be unique. The best way to achieve this is by\\n * using `public constant` hash digests:\\n *\\n * ```\\n * bytes32 public constant MY_ROLE = keccak256(\\\"MY_ROLE\\\");\\n * ```\\n *\\n * Roles can be used to represent a set of permissions. To restrict access to a\\n * function call, use {hasRole}:\\n *\\n * ```\\n * function foo() public {\\n *     require(hasRole(MY_ROLE, msg.sender));\\n *     ...\\n * }\\n * ```\\n *\\n * Roles can be granted and revoked dynamically via the {grantRole} and\\n * {revokeRole} functions. Each role has an associated admin role, and only\\n * accounts that have a role's admin role can call {grantRole} and {revokeRole}.\\n *\\n * By default, the admin role for all roles is `DEFAULT_ADMIN_ROLE`, which means\\n * that only accounts with this role will be able to grant or revoke other\\n * roles. More complex role relationships can be created by using\\n * {_setRoleAdmin}.\\n *\\n * WARNING: The `DEFAULT_ADMIN_ROLE` is also its own admin: it has permission to\\n * grant and revoke this role. Extra precautions should be taken to secure\\n * accounts that have been granted it.\\n */\\nabstract contract AccessControlUpgradeable is Initializable, ContextUpgradeable, IAccessControlUpgradeable, ERC165Upgradeable {\\n    function __AccessControl_init() internal initializer {\\n        __Context_init_unchained();\\n        __ERC165_init_unchained();\\n        __AccessControl_init_unchained();\\n    }\\n\\n    function __AccessControl_init_unchained() internal initializer {\\n    }\\n    struct RoleData {\\n        mapping (address => bool) members;\\n        bytes32 adminRole;\\n    }\\n\\n    mapping (bytes32 => RoleData) private _roles;\\n\\n    bytes32 public constant DEFAULT_ADMIN_ROLE = 0x00;\\n\\n    /**\\n     * @dev Emitted when `newAdminRole` is set as ``role``'s admin role, replacing `previousAdminRole`\\n     *\\n     * `DEFAULT_ADMIN_ROLE` is the starting admin for all roles, despite\\n     * {RoleAdminChanged} not being emitted signaling this.\\n     *\\n     * _Available since v3.1._\\n     */\\n    event RoleAdminChanged(bytes32 indexed role, bytes32 indexed previousAdminRole, bytes32 indexed newAdminRole);\\n\\n    /**\\n     * @dev Emitted when `account` is granted `role`.\\n     *\\n     * `sender` is the account that originated the contract call, an admin role\\n     * bearer except when using {_setupRole}.\\n     */\\n    event RoleGranted(bytes32 indexed role, address indexed account, address indexed sender);\\n\\n    /**\\n     * @dev Emitted when `account` is revoked `role`.\\n     *\\n     * `sender` is the account that originated the contract call:\\n     *   - if using `revokeRole`, it is the admin role bearer\\n     *   - if using `renounceRole`, it is the role bearer (i.e. `account`)\\n     */\\n    event RoleRevoked(bytes32 indexed role, address indexed account, address indexed sender);\\n\\n    /**\\n     * @dev Modifier that checks that an account has a specific role. Reverts\\n     * with a standardized message including the required role.\\n     *\\n     * The format of the revert reason is given by the following regular expression:\\n     *\\n     *  /^AccessControl: account (0x[0-9a-f]{20}) is missing role (0x[0-9a-f]{32})$/\\n     *\\n     * _Available since v4.1._\\n     */\\n    modifier onlyRole(bytes32 role) {\\n        _checkRole(role, _msgSender());\\n        _;\\n    }\\n\\n    /**\\n     * @dev See {IERC165-supportsInterface}.\\n     */\\n    function supportsInterface(bytes4 interfaceId) public view virtual override returns (bool) {\\n        return interfaceId == type(IAccessControlUpgradeable).interfaceId\\n            || super.supportsInterface(interfaceId);\\n    }\\n\\n    /**\\n     * @dev Returns `true` if `account` has been granted `role`.\\n     */\\n    function hasRole(bytes32 role, address account) public view override returns (bool) {\\n        return _roles[role].members[account];\\n    }\\n\\n    /**\\n     * @dev Revert with a standard message if `account` is missing `role`.\\n     *\\n     * The format of the revert reason is given by the following regular expression:\\n     *\\n     *  /^AccessControl: account (0x[0-9a-f]{20}) is missing role (0x[0-9a-f]{32})$/\\n     */\\n    function _checkRole(bytes32 role, address account) internal view {\\n        if(!hasRole(role, account)) {\\n            revert(string(abi.encodePacked(\\n                \\\"AccessControl: account \\\",\\n                StringsUpgradeable.toHexString(uint160(account), 20),\\n                \\\" is missing role \\\",\\n                StringsUpgradeable.toHexString(uint256(role), 32)\\n            )));\\n        }\\n    }\\n\\n    /**\\n     * @dev Returns the admin role that controls `role`. See {grantRole} and\\n     * {revokeRole}.\\n     *\\n     * To change a role's admin, use {_setRoleAdmin}.\\n     */\\n    function getRoleAdmin(bytes32 role) public view override returns (bytes32) {\\n        return _roles[role].adminRole;\\n    }\\n\\n    /**\\n     * @dev Grants `role` to `account`.\\n     *\\n     * If `account` had not been already granted `role`, emits a {RoleGranted}\\n     * event.\\n     *\\n     * Requirements:\\n     *\\n     * - the caller must have ``role``'s admin role.\\n     */\\n    function grantRole(bytes32 role, address account) public virtual override onlyRole(getRoleAdmin(role)) {\\n        _grantRole(role, account);\\n    }\\n\\n    /**\\n     * @dev Revokes `role` from `account`.\\n     *\\n     * If `account` had been granted `role`, emits a {RoleRevoked} event.\\n     *\\n     * Requirements:\\n     *\\n     * - the caller must have ``role``'s admin role.\\n     */\\n    function revokeRole(bytes32 role, address account) public virtual override onlyRole(getRoleAdmin(role)) {\\n        _revokeRole(role, account);\\n    }\\n\\n    /**\\n     * @dev Revokes `role` from the calling account.\\n     *\\n     * Roles are often managed via {grantRole} and {revokeRole}: this function's\\n     * purpose is to provide a mechanism for accounts to lose their privileges\\n     * if they are compromised (such as when a trusted device is misplaced).\\n     *\\n     * If the calling account had been granted `role`, emits a {RoleRevoked}\\n     * event.\\n     *\\n     * Requirements:\\n     *\\n     * - the caller must be `account`.\\n     */\\n    function renounceRole(bytes32 role, address account) public virtual override {\\n        require(account == _msgSender(), \\\"AccessControl: can only renounce roles for self\\\");\\n\\n        _revokeRole(role, account);\\n    }\\n\\n    /**\\n     * @dev Grants `role` to `account`.\\n     *\\n     * If `account` had not been already granted `role`, emits a {RoleGranted}\\n     * event. Note that unlike {grantRole}, this function doesn't perform any\\n     * checks on the calling account.\\n     *\\n     * [WARNING]\\n     * ====\\n     * This function should only be called from the constructor when setting\\n     * up the initial roles for the system.\\n     *\\n     * Using this function in any other way is effectively circumventing the admin\\n     * system imposed by {AccessControl}.\\n     * ====\\n     */\\n    function _setupRole(bytes32 role, address account) internal virtual {\\n        _grantRole(role, account);\\n    }\\n\\n    /**\\n     * @dev Sets `adminRole` as ``role``'s admin role.\\n     *\\n     * Emits a {RoleAdminChanged} event.\\n     */\\n    function _setRoleAdmin(bytes32 role, bytes32 adminRole) internal virtual {\\n        emit RoleAdminChanged(role, getRoleAdmin(role), adminRole);\\n        _roles[role].adminRole = adminRole;\\n    }\\n\\n    function _grantRole(bytes32 role, address account) private {\\n        if (!hasRole(role, account)) {\\n            _roles[role].members[account] = true;\\n            emit RoleGranted(role, account, _msgSender());\\n        }\\n    }\\n\\n    function _revokeRole(bytes32 role, address account) private {\\n        if (hasRole(role, account)) {\\n            _roles[role].members[account] = false;\\n            emit RoleRevoked(role, account, _msgSender());\\n        }\\n    }\\n    uint256[49] private __gap;\\n}\\n\",\"keccak256\":\"0x719f71989e630280a6902f857ef2b038d761ef2d0d51611f9da463be6c7c4be5\",\"license\":\"MIT\"},\"@openzeppelin/contracts-upgradeable/proxy/utils/Initializable.sol\":{\"content\":\"// SPDX-License-Identifier: MIT\\n\\n// solhint-disable-next-line compiler-version\\npragma solidity ^0.8.0;\\n\\n/**\\n * @dev This is a base contract to aid in writing upgradeable contracts, or any kind of contract that will be deployed\\n * behind a proxy. Since a proxied contract can't have a constructor, it's common to move constructor logic to an\\n * external initializer function, usually called `initialize`. It then becomes necessary to protect this initializer\\n * function so it can only be called once. The {initializer} modifier provided by this contract will have this effect.\\n *\\n * TIP: To avoid leaving the proxy in an uninitialized state, the initializer function should be called as early as\\n * possible by providing the encoded function call as the `_data` argument to {ERC1967Proxy-constructor}.\\n *\\n * CAUTION: When used with inheritance, manual care must be taken to not invoke a parent initializer twice, or to ensure\\n * that all initializers are idempotent. This is not verified automatically as constructors are by Solidity.\\n */\\nabstract contract Initializable {\\n\\n    /**\\n     * @dev Indicates that the contract has been initialized.\\n     */\\n    bool private _initialized;\\n\\n    /**\\n     * @dev Indicates that the contract is in the process of being initialized.\\n     */\\n    bool private _initializing;\\n\\n    /**\\n     * @dev Modifier to protect an initializer function from being invoked twice.\\n     */\\n    modifier initializer() {\\n        require(_initializing || !_initialized, \\\"Initializable: contract is already initialized\\\");\\n\\n        bool isTopLevelCall = !_initializing;\\n        if (isTopLevelCall) {\\n            _initializing = true;\\n            _initialized = true;\\n        }\\n\\n        _;\\n\\n        if (isTopLevelCall) {\\n            _initializing = false;\\n        }\\n    }\\n}\\n\",\"keccak256\":\"0x67d2f282a9678e58e878a0b774041ba7a01e2740a262aea97a3f681339914713\",\"license\":\"MIT\"},\"@openzeppelin/contracts-upgradeable/token/ERC20/ERC20Upgradeable.sol\":{\"content\":\"// SPDX-License-Identifier: MIT\\n\\npragma solidity ^0.8.0;\\n\\nimport \\\"./IERC20Upgradeable.sol\\\";\\nimport \\\"./extensions/IERC20MetadataUpgradeable.sol\\\";\\nimport \\\"../../utils/ContextUpgradeable.sol\\\";\\nimport \\\"../../proxy/utils/Initializable.sol\\\";\\n\\n/**\\n * @dev Implementation of the {IERC20} interface.\\n *\\n * This implementation is agnostic to the way tokens are created. This means\\n * that a supply mechanism has to be added in a derived contract using {_mint}.\\n * For a generic mechanism see {ERC20PresetMinterPauser}.\\n *\\n * TIP: For a detailed writeup see our guide\\n * https://forum.zeppelin.solutions/t/how-to-implement-erc20-supply-mechanisms/226[How\\n * to implement supply mechanisms].\\n *\\n * We have followed general OpenZeppelin guidelines: functions revert instead\\n * of returning `false` on failure. This behavior is nonetheless conventional\\n * and does not conflict with the expectations of ERC20 applications.\\n *\\n * Additionally, an {Approval} event is emitted on calls to {transferFrom}.\\n * This allows applications to reconstruct the allowance for all accounts just\\n * by listening to said events. Other implementations of the EIP may not emit\\n * these events, as it isn't required by the specification.\\n *\\n * Finally, the non-standard {decreaseAllowance} and {increaseAllowance}\\n * functions have been added to mitigate the well-known issues around setting\\n * allowances. See {IERC20-approve}.\\n */\\ncontract ERC20Upgradeable is Initializable, ContextUpgradeable, IERC20Upgradeable, IERC20MetadataUpgradeable {\\n    mapping (address => uint256) private _balances;\\n\\n    mapping (address => mapping (address => uint256)) private _allowances;\\n\\n    uint256 private _totalSupply;\\n\\n    string private _name;\\n    string private _symbol;\\n\\n    /**\\n     * @dev Sets the values for {name} and {symbol}.\\n     *\\n     * The defaut value of {decimals} is 18. To select a different value for\\n     * {decimals} you should overload it.\\n     *\\n     * All two of these values are immutable: they can only be set once during\\n     * construction.\\n     */\\n    function __ERC20_init(string memory name_, string memory symbol_) internal initializer {\\n        __Context_init_unchained();\\n        __ERC20_init_unchained(name_, symbol_);\\n    }\\n\\n    function __ERC20_init_unchained(string memory name_, string memory symbol_) internal initializer {\\n        _name = name_;\\n        _symbol = symbol_;\\n    }\\n\\n    /**\\n     * @dev Returns the name of the token.\\n     */\\n    function name() public view virtual override returns (string memory) {\\n        return _name;\\n    }\\n\\n    /**\\n     * @dev Returns the symbol of the token, usually a shorter version of the\\n     * name.\\n     */\\n    function symbol() public view virtual override returns (string memory) {\\n        return _symbol;\\n    }\\n\\n    /**\\n     * @dev Returns the number of decimals used to get its user representation.\\n     * For example, if `decimals` equals `2`, a balance of `505` tokens should\\n     * be displayed to a user as `5,05` (`505 / 10 ** 2`).\\n     *\\n     * Tokens usually opt for a value of 18, imitating the relationship between\\n     * Ether and Wei. This is the value {ERC20} uses, unless this function is\\n     * overridden;\\n     *\\n     * NOTE: This information is only used for _display_ purposes: it in\\n     * no way affects any of the arithmetic of the contract, including\\n     * {IERC20-balanceOf} and {IERC20-transfer}.\\n     */\\n    function decimals() public view virtual override returns (uint8) {\\n        return 18;\\n    }\\n\\n    /**\\n     * @dev See {IERC20-totalSupply}.\\n     */\\n    function totalSupply() public view virtual override returns (uint256) {\\n        return _totalSupply;\\n    }\\n\\n    /**\\n     * @dev See {IERC20-balanceOf}.\\n     */\\n    function balanceOf(address account) public view virtual override returns (uint256) {\\n        return _balances[account];\\n    }\\n\\n    /**\\n     * @dev See {IERC20-transfer}.\\n     *\\n     * Requirements:\\n     *\\n     * - `recipient` cannot be the zero address.\\n     * - the caller must have a balance of at least `amount`.\\n     */\\n    function transfer(address recipient, uint256 amount) public virtual override returns (bool) {\\n        _transfer(_msgSender(), recipient, amount);\\n        return true;\\n    }\\n\\n    /**\\n     * @dev See {IERC20-allowance}.\\n     */\\n    function allowance(address owner, address spender) public view virtual override returns (uint256) {\\n        return _allowances[owner][spender];\\n    }\\n\\n    /**\\n     * @dev See {IERC20-approve}.\\n     *\\n     * Requirements:\\n     *\\n     * - `spender` cannot be the zero address.\\n     */\\n    function approve(address spender, uint256 amount) public virtual override returns (bool) {\\n        _approve(_msgSender(), spender, amount);\\n        return true;\\n    }\\n\\n    /**\\n     * @dev See {IERC20-transferFrom}.\\n     *\\n     * Emits an {Approval} event indicating the updated allowance. This is not\\n     * required by the EIP. See the note at the beginning of {ERC20}.\\n     *\\n     * Requirements:\\n     *\\n     * - `sender` and `recipient` cannot be the zero address.\\n     * - `sender` must have a balance of at least `amount`.\\n     * - the caller must have allowance for ``sender``'s tokens of at least\\n     * `amount`.\\n     */\\n    function transferFrom(address sender, address recipient, uint256 amount) public virtual override returns (bool) {\\n        _transfer(sender, recipient, amount);\\n\\n        uint256 currentAllowance = _allowances[sender][_msgSender()];\\n        require(currentAllowance >= amount, \\\"ERC20: transfer amount exceeds allowance\\\");\\n        _approve(sender, _msgSender(), currentAllowance - amount);\\n\\n        return true;\\n    }\\n\\n    /**\\n     * @dev Atomically increases the allowance granted to `spender` by the caller.\\n     *\\n     * This is an alternative to {approve} that can be used as a mitigation for\\n     * problems described in {IERC20-approve}.\\n     *\\n     * Emits an {Approval} event indicating the updated allowance.\\n     *\\n     * Requirements:\\n     *\\n     * - `spender` cannot be the zero address.\\n     */\\n    function increaseAllowance(address spender, uint256 addedValue) public virtual returns (bool) {\\n        _approve(_msgSender(), spender, _allowances[_msgSender()][spender] + addedValue);\\n        return true;\\n    }\\n\\n    /**\\n     * @dev Atomically decreases the allowance granted to `spender` by the caller.\\n     *\\n     * This is an alternative to {approve} that can be used as a mitigation for\\n     * problems described in {IERC20-approve}.\\n     *\\n     * Emits an {Approval} event indicating the updated allowance.\\n     *\\n     * Requirements:\\n     *\\n     * - `spender` cannot be the zero address.\\n     * - `spender` must have allowance for the caller of at least\\n     * `subtractedValue`.\\n     */\\n    function decreaseAllowance(address spender, uint256 subtractedValue) public virtual returns (bool) {\\n        uint256 currentAllowance = _allowances[_msgSender()][spender];\\n        require(currentAllowance >= subtractedValue, \\\"ERC20: decreased allowance below zero\\\");\\n        _approve(_msgSender(), spender, currentAllowance - subtractedValue);\\n\\n        return true;\\n    }\\n\\n    /**\\n     * @dev Moves tokens `amount` from `sender` to `recipient`.\\n     *\\n     * This is internal function is equivalent to {transfer}, and can be used to\\n     * e.g. implement automatic token fees, slashing mechanisms, etc.\\n     *\\n     * Emits a {Transfer} event.\\n     *\\n     * Requirements:\\n     *\\n     * - `sender` cannot be the zero address.\\n     * - `recipient` cannot be the zero address.\\n     * - `sender` must have a balance of at least `amount`.\\n     */\\n    function _transfer(address sender, address recipient, uint256 amount) internal virtual {\\n        require(sender != address(0), \\\"ERC20: transfer from the zero address\\\");\\n        require(recipient != address(0), \\\"ERC20: transfer to the zero address\\\");\\n\\n        _beforeTokenTransfer(sender, recipient, amount);\\n\\n        uint256 senderBalance = _balances[sender];\\n        require(senderBalance >= amount, \\\"ERC20: transfer amount exceeds balance\\\");\\n        _balances[sender] = senderBalance - amount;\\n        _balances[recipient] += amount;\\n\\n        emit Transfer(sender, recipient, amount);\\n    }\\n\\n    /** @dev Creates `amount` tokens and assigns them to `account`, increasing\\n     * the total supply.\\n     *\\n     * Emits a {Transfer} event with `from` set to the zero address.\\n     *\\n     * Requirements:\\n     *\\n     * - `to` cannot be the zero address.\\n     */\\n    function _mint(address account, uint256 amount) internal virtual {\\n        require(account != address(0), \\\"ERC20: mint to the zero address\\\");\\n\\n        _beforeTokenTransfer(address(0), account, amount);\\n\\n        _totalSupply += amount;\\n        _balances[account] += amount;\\n        emit Transfer(address(0), account, amount);\\n    }\\n\\n    /**\\n     * @dev Destroys `amount` tokens from `account`, reducing the\\n     * total supply.\\n     *\\n     * Emits a {Transfer} event with `to` set to the zero address.\\n     *\\n     * Requirements:\\n     *\\n     * - `account` cannot be the zero address.\\n     * - `account` must have at least `amount` tokens.\\n     */\\n    function _burn(address account, uint256 amount) internal virtual {\\n        require(account != address(0), \\\"ERC20: burn from the zero address\\\");\\n\\n        _beforeTokenTransfer(account, address(0), amount);\\n\\n        uint256 accountBalance = _balances[account];\\n        require(accountBalance >= amount, \\\"ERC20: burn amount exceeds balance\\\");\\n        _balances[account] = accountBalance - amount;\\n        _totalSupply -= amount;\\n\\n        emit Transfer(account, address(0), amount);\\n    }\\n\\n    /**\\n     * @dev Sets `amount` as the allowance of `spender` over the `owner` s tokens.\\n     *\\n     * This internal function is equivalent to `approve`, and can be used to\\n     * e.g. set automatic allowances for certain subsystems, etc.\\n     *\\n     * Emits an {Approval} event.\\n     *\\n     * Requirements:\\n     *\\n     * - `owner` cannot be the zero address.\\n     * - `spender` cannot be the zero address.\\n     */\\n    function _approve(address owner, address spender, uint256 amount) internal virtual {\\n        require(owner != address(0), \\\"ERC20: approve from the zero address\\\");\\n        require(spender != address(0), \\\"ERC20: approve to the zero address\\\");\\n\\n        _allowances[owner][spender] = amount;\\n        emit Approval(owner, spender, amount);\\n    }\\n\\n    /**\\n     * @dev Hook that is called before any transfer of tokens. This includes\\n     * minting and burning.\\n     *\\n     * Calling conditions:\\n     *\\n     * - when `from` and `to` are both non-zero, `amount` of ``from``'s tokens\\n     * will be to transferred to `to`.\\n     * - when `from` is zero, `amount` tokens will be minted for `to`.\\n     * - when `to` is zero, `amount` of ``from``'s tokens will be burned.\\n     * - `from` and `to` are never both zero.\\n     *\\n     * To learn more about hooks, head to xref:ROOT:extending-contracts.adoc#using-hooks[Using Hooks].\\n     */\\n    function _beforeTokenTransfer(address from, address to, uint256 amount) internal virtual { }\\n    uint256[45] private __gap;\\n}\\n\",\"keccak256\":\"0x9c2d7425f3343ea340d6ea67e9d90109d4d846bb013c2572096ec88c9e74946b\",\"license\":\"MIT\"},\"@openzeppelin/contracts-upgradeable/token/ERC20/IERC20Upgradeable.sol\":{\"content\":\"// SPDX-License-Identifier: MIT\\n\\npragma solidity ^0.8.0;\\n\\n/**\\n * @dev Interface of the ERC20 standard as defined in the EIP.\\n */\\ninterface IERC20Upgradeable {\\n    /**\\n     * @dev Returns the amount of tokens in existence.\\n     */\\n    function totalSupply() external view returns (uint256);\\n\\n    /**\\n     * @dev Returns the amount of tokens owned by `account`.\\n     */\\n    function balanceOf(address account) external view returns (uint256);\\n\\n    /**\\n     * @dev Moves `amount` tokens from the caller's account to `recipient`.\\n     *\\n     * Returns a boolean value indicating whether the operation succeeded.\\n     *\\n     * Emits a {Transfer} event.\\n     */\\n    function transfer(address recipient, uint256 amount) external returns (bool);\\n\\n    /**\\n     * @dev Returns the remaining number of tokens that `spender` will be\\n     * allowed to spend on behalf of `owner` through {transferFrom}. This is\\n     * zero by default.\\n     *\\n     * This value changes when {approve} or {transferFrom} are called.\\n     */\\n    function allowance(address owner, address spender) external view returns (uint256);\\n\\n    /**\\n     * @dev Sets `amount` as the allowance of `spender` over the caller's tokens.\\n     *\\n     * Returns a boolean value indicating whether the operation succeeded.\\n     *\\n     * IMPORTANT: Beware that changing an allowance with this method brings the risk\\n     * that someone may use both the old and the new allowance by unfortunate\\n     * transaction ordering. One possible solution to mitigate this race\\n     * condition is to first reduce the spender's allowance to 0 and set the\\n     * desired value afterwards:\\n     * https://github.com/ethereum/EIPs/issues/20#issuecomment-263524729\\n     *\\n     * Emits an {Approval} event.\\n     */\\n    function approve(address spender, uint256 amount) external returns (bool);\\n\\n    /**\\n     * @dev Moves `amount` tokens from `sender` to `recipient` using the\\n     * allowance mechanism. `amount` is then deducted from the caller's\\n     * allowance.\\n     *\\n     * Returns a boolean value indicating whether the operation succeeded.\\n     *\\n     * Emits a {Transfer} event.\\n     */\\n    function transferFrom(address sender, address recipient, uint256 amount) external returns (bool);\\n\\n    /**\\n     * @dev Emitted when `value` tokens are moved from one account (`from`) to\\n     * another (`to`).\\n     *\\n     * Note that `value` may be zero.\\n     */\\n    event Transfer(address indexed from, address indexed to, uint256 value);\\n\\n    /**\\n     * @dev Emitted when the allowance of a `spender` for an `owner` is set by\\n     * a call to {approve}. `value` is the new allowance.\\n     */\\n    event Approval(address indexed owner, address indexed spender, uint256 value);\\n}\\n\",\"keccak256\":\"0x8d4a0f2b5b760b5e2c19ed3c108d83897a4dfd5bfed97a93867918df19191e5e\",\"license\":\"MIT\"},\"@openzeppelin/contracts-upgradeable/token/ERC20/extensions/IERC20MetadataUpgradeable.sol\":{\"content\":\"// SPDX-License-Identifier: MIT\\n\\npragma solidity ^0.8.0;\\n\\nimport \\\"../IERC20Upgradeable.sol\\\";\\n\\n/**\\n * @dev Interface for the optional metadata functions from the ERC20 standard.\\n *\\n * _Available since v4.1._\\n */\\ninterface IERC20MetadataUpgradeable is IERC20Upgradeable {\\n    /**\\n     * @dev Returns the name of the token.\\n     */\\n    function name() external view returns (string memory);\\n\\n    /**\\n     * @dev Returns the symbol of the token.\\n     */\\n    function symbol() external view returns (string memory);\\n\\n    /**\\n     * @dev Returns the decimals places of the token.\\n     */\\n    function decimals() external view returns (uint8);\\n}\\n\",\"keccak256\":\"0x6795c369a4eefa78468e38966f7851fbc2dda5e5b9ccd3fa2b45970e2e4d3abd\",\"license\":\"MIT\"},\"@openzeppelin/contracts-upgradeable/token/ERC721/ERC721Upgradeable.sol\":{\"content\":\"// SPDX-License-Identifier: MIT\\n\\npragma solidity ^0.8.0;\\n\\nimport \\\"./IERC721Upgradeable.sol\\\";\\nimport \\\"./IERC721ReceiverUpgradeable.sol\\\";\\nimport \\\"./extensions/IERC721MetadataUpgradeable.sol\\\";\\nimport \\\"../../utils/AddressUpgradeable.sol\\\";\\nimport \\\"../../utils/ContextUpgradeable.sol\\\";\\nimport \\\"../../utils/StringsUpgradeable.sol\\\";\\nimport \\\"../../utils/introspection/ERC165Upgradeable.sol\\\";\\nimport \\\"../../proxy/utils/Initializable.sol\\\";\\n\\n/**\\n * @dev Implementation of https://eips.ethereum.org/EIPS/eip-721[ERC721] Non-Fungible Token Standard, including\\n * the Metadata extension, but not including the Enumerable extension, which is available separately as\\n * {ERC721Enumerable}.\\n */\\ncontract ERC721Upgradeable is Initializable, ContextUpgradeable, ERC165Upgradeable, IERC721Upgradeable, IERC721MetadataUpgradeable {\\n    using AddressUpgradeable for address;\\n    using StringsUpgradeable for uint256;\\n\\n    // Token name\\n    string private _name;\\n\\n    // Token symbol\\n    string private _symbol;\\n\\n    // Mapping from token ID to owner address\\n    mapping (uint256 => address) private _owners;\\n\\n    // Mapping owner address to token count\\n    mapping (address => uint256) private _balances;\\n\\n    // Mapping from token ID to approved address\\n    mapping (uint256 => address) private _tokenApprovals;\\n\\n    // Mapping from owner to operator approvals\\n    mapping (address => mapping (address => bool)) private _operatorApprovals;\\n\\n    /**\\n     * @dev Initializes the contract by setting a `name` and a `symbol` to the token collection.\\n     */\\n    function __ERC721_init(string memory name_, string memory symbol_) internal initializer {\\n        __Context_init_unchained();\\n        __ERC165_init_unchained();\\n        __ERC721_init_unchained(name_, symbol_);\\n    }\\n\\n    function __ERC721_init_unchained(string memory name_, string memory symbol_) internal initializer {\\n        _name = name_;\\n        _symbol = symbol_;\\n    }\\n\\n    /**\\n     * @dev See {IERC165-supportsInterface}.\\n     */\\n    function supportsInterface(bytes4 interfaceId) public view virtual override(ERC165Upgradeable, IERC165Upgradeable) returns (bool) {\\n        return interfaceId == type(IERC721Upgradeable).interfaceId\\n            || interfaceId == type(IERC721MetadataUpgradeable).interfaceId\\n            || super.supportsInterface(interfaceId);\\n    }\\n\\n    /**\\n     * @dev See {IERC721-balanceOf}.\\n     */\\n    function balanceOf(address owner) public view virtual override returns (uint256) {\\n        require(owner != address(0), \\\"ERC721: balance query for the zero address\\\");\\n        return _balances[owner];\\n    }\\n\\n    /**\\n     * @dev See {IERC721-ownerOf}.\\n     */\\n    function ownerOf(uint256 tokenId) public view virtual override returns (address) {\\n        address owner = _owners[tokenId];\\n        require(owner != address(0), \\\"ERC721: owner query for nonexistent token\\\");\\n        return owner;\\n    }\\n\\n    /**\\n     * @dev See {IERC721Metadata-name}.\\n     */\\n    function name() public view virtual override returns (string memory) {\\n        return _name;\\n    }\\n\\n    /**\\n     * @dev See {IERC721Metadata-symbol}.\\n     */\\n    function symbol() public view virtual override returns (string memory) {\\n        return _symbol;\\n    }\\n\\n    /**\\n     * @dev See {IERC721Metadata-tokenURI}.\\n     */\\n    function tokenURI(uint256 tokenId) public view virtual override returns (string memory) {\\n        require(_exists(tokenId), \\\"ERC721Metadata: URI query for nonexistent token\\\");\\n\\n        string memory baseURI = _baseURI();\\n        return bytes(baseURI).length > 0\\n            ? string(abi.encodePacked(baseURI, tokenId.toString()))\\n            : '';\\n    }\\n\\n    /**\\n     * @dev Base URI for computing {tokenURI}. Empty by default, can be overriden\\n     * in child contracts.\\n     */\\n    function _baseURI() internal view virtual returns (string memory) {\\n        return \\\"\\\";\\n    }\\n\\n    /**\\n     * @dev See {IERC721-approve}.\\n     */\\n    function approve(address to, uint256 tokenId) public virtual override {\\n        address owner = ERC721Upgradeable.ownerOf(tokenId);\\n        require(to != owner, \\\"ERC721: approval to current owner\\\");\\n\\n        require(_msgSender() == owner || isApprovedForAll(owner, _msgSender()),\\n            \\\"ERC721: approve caller is not owner nor approved for all\\\"\\n        );\\n\\n        _approve(to, tokenId);\\n    }\\n\\n    /**\\n     * @dev See {IERC721-getApproved}.\\n     */\\n    function getApproved(uint256 tokenId) public view virtual override returns (address) {\\n        require(_exists(tokenId), \\\"ERC721: approved query for nonexistent token\\\");\\n\\n        return _tokenApprovals[tokenId];\\n    }\\n\\n    /**\\n     * @dev See {IERC721-setApprovalForAll}.\\n     */\\n    function setApprovalForAll(address operator, bool approved) public virtual override {\\n        require(operator != _msgSender(), \\\"ERC721: approve to caller\\\");\\n\\n        _operatorApprovals[_msgSender()][operator] = approved;\\n        emit ApprovalForAll(_msgSender(), operator, approved);\\n    }\\n\\n    /**\\n     * @dev See {IERC721-isApprovedForAll}.\\n     */\\n    function isApprovedForAll(address owner, address operator) public view virtual override returns (bool) {\\n        return _operatorApprovals[owner][operator];\\n    }\\n\\n    /**\\n     * @dev See {IERC721-transferFrom}.\\n     */\\n    function transferFrom(address from, address to, uint256 tokenId) public virtual override {\\n        //solhint-disable-next-line max-line-length\\n        require(_isApprovedOrOwner(_msgSender(), tokenId), \\\"ERC721: transfer caller is not owner nor approved\\\");\\n\\n        _transfer(from, to, tokenId);\\n    }\\n\\n    /**\\n     * @dev See {IERC721-safeTransferFrom}.\\n     */\\n    function safeTransferFrom(address from, address to, uint256 tokenId) public virtual override {\\n        safeTransferFrom(from, to, tokenId, \\\"\\\");\\n    }\\n\\n    /**\\n     * @dev See {IERC721-safeTransferFrom}.\\n     */\\n    function safeTransferFrom(address from, address to, uint256 tokenId, bytes memory _data) public virtual override {\\n        require(_isApprovedOrOwner(_msgSender(), tokenId), \\\"ERC721: transfer caller is not owner nor approved\\\");\\n        _safeTransfer(from, to, tokenId, _data);\\n    }\\n\\n    /**\\n     * @dev Safely transfers `tokenId` token from `from` to `to`, checking first that contract recipients\\n     * are aware of the ERC721 protocol to prevent tokens from being forever locked.\\n     *\\n     * `_data` is additional data, it has no specified format and it is sent in call to `to`.\\n     *\\n     * This internal function is equivalent to {safeTransferFrom}, and can be used to e.g.\\n     * implement alternative mechanisms to perform token transfer, such as signature-based.\\n     *\\n     * Requirements:\\n     *\\n     * - `from` cannot be the zero address.\\n     * - `to` cannot be the zero address.\\n     * - `tokenId` token must exist and be owned by `from`.\\n     * - If `to` refers to a smart contract, it must implement {IERC721Receiver-onERC721Received}, which is called upon a safe transfer.\\n     *\\n     * Emits a {Transfer} event.\\n     */\\n    function _safeTransfer(address from, address to, uint256 tokenId, bytes memory _data) internal virtual {\\n        _transfer(from, to, tokenId);\\n        require(_checkOnERC721Received(from, to, tokenId, _data), \\\"ERC721: transfer to non ERC721Receiver implementer\\\");\\n    }\\n\\n    /**\\n     * @dev Returns whether `tokenId` exists.\\n     *\\n     * Tokens can be managed by their owner or approved accounts via {approve} or {setApprovalForAll}.\\n     *\\n     * Tokens start existing when they are minted (`_mint`),\\n     * and stop existing when they are burned (`_burn`).\\n     */\\n    function _exists(uint256 tokenId) internal view virtual returns (bool) {\\n        return _owners[tokenId] != address(0);\\n    }\\n\\n    /**\\n     * @dev Returns whether `spender` is allowed to manage `tokenId`.\\n     *\\n     * Requirements:\\n     *\\n     * - `tokenId` must exist.\\n     */\\n    function _isApprovedOrOwner(address spender, uint256 tokenId) internal view virtual returns (bool) {\\n        require(_exists(tokenId), \\\"ERC721: operator query for nonexistent token\\\");\\n        address owner = ERC721Upgradeable.ownerOf(tokenId);\\n        return (spender == owner || getApproved(tokenId) == spender || isApprovedForAll(owner, spender));\\n    }\\n\\n    /**\\n     * @dev Safely mints `tokenId` and transfers it to `to`.\\n     *\\n     * Requirements:\\n     *\\n     * - `tokenId` must not exist.\\n     * - If `to` refers to a smart contract, it must implement {IERC721Receiver-onERC721Received}, which is called upon a safe transfer.\\n     *\\n     * Emits a {Transfer} event.\\n     */\\n    function _safeMint(address to, uint256 tokenId) internal virtual {\\n        _safeMint(to, tokenId, \\\"\\\");\\n    }\\n\\n    /**\\n     * @dev Same as {xref-ERC721-_safeMint-address-uint256-}[`_safeMint`], with an additional `data` parameter which is\\n     * forwarded in {IERC721Receiver-onERC721Received} to contract recipients.\\n     */\\n    function _safeMint(address to, uint256 tokenId, bytes memory _data) internal virtual {\\n        _mint(to, tokenId);\\n        require(_checkOnERC721Received(address(0), to, tokenId, _data), \\\"ERC721: transfer to non ERC721Receiver implementer\\\");\\n    }\\n\\n    /**\\n     * @dev Mints `tokenId` and transfers it to `to`.\\n     *\\n     * WARNING: Usage of this method is discouraged, use {_safeMint} whenever possible\\n     *\\n     * Requirements:\\n     *\\n     * - `tokenId` must not exist.\\n     * - `to` cannot be the zero address.\\n     *\\n     * Emits a {Transfer} event.\\n     */\\n    function _mint(address to, uint256 tokenId) internal virtual {\\n        require(to != address(0), \\\"ERC721: mint to the zero address\\\");\\n        require(!_exists(tokenId), \\\"ERC721: token already minted\\\");\\n\\n        _beforeTokenTransfer(address(0), to, tokenId);\\n\\n        _balances[to] += 1;\\n        _owners[tokenId] = to;\\n\\n        emit Transfer(address(0), to, tokenId);\\n    }\\n\\n    /**\\n     * @dev Destroys `tokenId`.\\n     * The approval is cleared when the token is burned.\\n     *\\n     * Requirements:\\n     *\\n     * - `tokenId` must exist.\\n     *\\n     * Emits a {Transfer} event.\\n     */\\n    function _burn(uint256 tokenId) internal virtual {\\n        address owner = ERC721Upgradeable.ownerOf(tokenId);\\n\\n        _beforeTokenTransfer(owner, address(0), tokenId);\\n\\n        // Clear approvals\\n        _approve(address(0), tokenId);\\n\\n        _balances[owner] -= 1;\\n        delete _owners[tokenId];\\n\\n        emit Transfer(owner, address(0), tokenId);\\n    }\\n\\n    /**\\n     * @dev Transfers `tokenId` from `from` to `to`.\\n     *  As opposed to {transferFrom}, this imposes no restrictions on msg.sender.\\n     *\\n     * Requirements:\\n     *\\n     * - `to` cannot be the zero address.\\n     * - `tokenId` token must be owned by `from`.\\n     *\\n     * Emits a {Transfer} event.\\n     */\\n    function _transfer(address from, address to, uint256 tokenId) internal virtual {\\n        require(ERC721Upgradeable.ownerOf(tokenId) == from, \\\"ERC721: transfer of token that is not own\\\");\\n        require(to != address(0), \\\"ERC721: transfer to the zero address\\\");\\n\\n        _beforeTokenTransfer(from, to, tokenId);\\n\\n        // Clear approvals from the previous owner\\n        _approve(address(0), tokenId);\\n\\n        _balances[from] -= 1;\\n        _balances[to] += 1;\\n        _owners[tokenId] = to;\\n\\n        emit Transfer(from, to, tokenId);\\n    }\\n\\n    /**\\n     * @dev Approve `to` to operate on `tokenId`\\n     *\\n     * Emits a {Approval} event.\\n     */\\n    function _approve(address to, uint256 tokenId) internal virtual {\\n        _tokenApprovals[tokenId] = to;\\n        emit Approval(ERC721Upgradeable.ownerOf(tokenId), to, tokenId);\\n    }\\n\\n    /**\\n     * @dev Internal function to invoke {IERC721Receiver-onERC721Received} on a target address.\\n     * The call is not executed if the target address is not a contract.\\n     *\\n     * @param from address representing the previous owner of the given token ID\\n     * @param to target address that will receive the tokens\\n     * @param tokenId uint256 ID of the token to be transferred\\n     * @param _data bytes optional data to send along with the call\\n     * @return bool whether the call correctly returned the expected magic value\\n     */\\n    function _checkOnERC721Received(address from, address to, uint256 tokenId, bytes memory _data)\\n        private returns (bool)\\n    {\\n        if (to.isContract()) {\\n            try IERC721ReceiverUpgradeable(to).onERC721Received(_msgSender(), from, tokenId, _data) returns (bytes4 retval) {\\n                return retval == IERC721ReceiverUpgradeable(to).onERC721Received.selector;\\n            } catch (bytes memory reason) {\\n                if (reason.length == 0) {\\n                    revert(\\\"ERC721: transfer to non ERC721Receiver implementer\\\");\\n                } else {\\n                    // solhint-disable-next-line no-inline-assembly\\n                    assembly {\\n                        revert(add(32, reason), mload(reason))\\n                    }\\n                }\\n            }\\n        } else {\\n            return true;\\n        }\\n    }\\n\\n    /**\\n     * @dev Hook that is called before any token transfer. This includes minting\\n     * and burning.\\n     *\\n     * Calling conditions:\\n     *\\n     * - When `from` and `to` are both non-zero, ``from``'s `tokenId` will be\\n     * transferred to `to`.\\n     * - When `from` is zero, `tokenId` will be minted for `to`.\\n     * - When `to` is zero, ``from``'s `tokenId` will be burned.\\n     * - `from` cannot be the zero address.\\n     * - `to` cannot be the zero address.\\n     *\\n     * To learn more about hooks, head to xref:ROOT:extending-contracts.adoc#using-hooks[Using Hooks].\\n     */\\n    function _beforeTokenTransfer(address from, address to, uint256 tokenId) internal virtual { }\\n    uint256[44] private __gap;\\n}\\n\",\"keccak256\":\"0x2ab92ebd3f4d4d85f30b39bd678ec3489e00aadd0a432c7a0ffa98adc2799004\",\"license\":\"MIT\"},\"@openzeppelin/contracts-upgradeable/token/ERC721/IERC721ReceiverUpgradeable.sol\":{\"content\":\"// SPDX-License-Identifier: MIT\\n\\npragma solidity ^0.8.0;\\n\\n/**\\n * @title ERC721 token receiver interface\\n * @dev Interface for any contract that wants to support safeTransfers\\n * from ERC721 asset contracts.\\n */\\ninterface IERC721ReceiverUpgradeable {\\n    /**\\n     * @dev Whenever an {IERC721} `tokenId` token is transferred to this contract via {IERC721-safeTransferFrom}\\n     * by `operator` from `from`, this function is called.\\n     *\\n     * It must return its Solidity selector to confirm the token transfer.\\n     * If any other value is returned or the interface is not implemented by the recipient, the transfer will be reverted.\\n     *\\n     * The selector can be obtained in Solidity with `IERC721.onERC721Received.selector`.\\n     */\\n    function onERC721Received(address operator, address from, uint256 tokenId, bytes calldata data) external returns (bytes4);\\n}\\n\",\"keccak256\":\"0x33620beff0655c5e728a72fff76fb6ce2dc32fc6b61eb8e435b12ed1adf31525\",\"license\":\"MIT\"},\"@openzeppelin/contracts-upgradeable/token/ERC721/IERC721Upgradeable.sol\":{\"content\":\"// SPDX-License-Identifier: MIT\\n\\npragma solidity ^0.8.0;\\n\\nimport \\\"../../utils/introspection/IERC165Upgradeable.sol\\\";\\n\\n/**\\n * @dev Required interface of an ERC721 compliant contract.\\n */\\ninterface IERC721Upgradeable is IERC165Upgradeable {\\n    /**\\n     * @dev Emitted when `tokenId` token is transferred from `from` to `to`.\\n     */\\n    event Transfer(address indexed from, address indexed to, uint256 indexed tokenId);\\n\\n    /**\\n     * @dev Emitted when `owner` enables `approved` to manage the `tokenId` token.\\n     */\\n    event Approval(address indexed owner, address indexed approved, uint256 indexed tokenId);\\n\\n    /**\\n     * @dev Emitted when `owner` enables or disables (`approved`) `operator` to manage all of its assets.\\n     */\\n    event ApprovalForAll(address indexed owner, address indexed operator, bool approved);\\n\\n    /**\\n     * @dev Returns the number of tokens in ``owner``'s account.\\n     */\\n    function balanceOf(address owner) external view returns (uint256 balance);\\n\\n    /**\\n     * @dev Returns the owner of the `tokenId` token.\\n     *\\n     * Requirements:\\n     *\\n     * - `tokenId` must exist.\\n     */\\n    function ownerOf(uint256 tokenId) external view returns (address owner);\\n\\n    /**\\n     * @dev Safely transfers `tokenId` token from `from` to `to`, checking first that contract recipients\\n     * are aware of the ERC721 protocol to prevent tokens from being forever locked.\\n     *\\n     * Requirements:\\n     *\\n     * - `from` cannot be the zero address.\\n     * - `to` cannot be the zero address.\\n     * - `tokenId` token must exist and be owned by `from`.\\n     * - If the caller is not `from`, it must be have been allowed to move this token by either {approve} or {setApprovalForAll}.\\n     * - If `to` refers to a smart contract, it must implement {IERC721Receiver-onERC721Received}, which is called upon a safe transfer.\\n     *\\n     * Emits a {Transfer} event.\\n     */\\n    function safeTransferFrom(address from, address to, uint256 tokenId) external;\\n\\n    /**\\n     * @dev Transfers `tokenId` token from `from` to `to`.\\n     *\\n     * WARNING: Usage of this method is discouraged, use {safeTransferFrom} whenever possible.\\n     *\\n     * Requirements:\\n     *\\n     * - `from` cannot be the zero address.\\n     * - `to` cannot be the zero address.\\n     * - `tokenId` token must be owned by `from`.\\n     * - If the caller is not `from`, it must be approved to move this token by either {approve} or {setApprovalForAll}.\\n     *\\n     * Emits a {Transfer} event.\\n     */\\n    function transferFrom(address from, address to, uint256 tokenId) external;\\n\\n    /**\\n     * @dev Gives permission to `to` to transfer `tokenId` token to another account.\\n     * The approval is cleared when the token is transferred.\\n     *\\n     * Only a single account can be approved at a time, so approving the zero address clears previous approvals.\\n     *\\n     * Requirements:\\n     *\\n     * - The caller must own the token or be an approved operator.\\n     * - `tokenId` must exist.\\n     *\\n     * Emits an {Approval} event.\\n     */\\n    function approve(address to, uint256 tokenId) external;\\n\\n    /**\\n     * @dev Returns the account approved for `tokenId` token.\\n     *\\n     * Requirements:\\n     *\\n     * - `tokenId` must exist.\\n     */\\n    function getApproved(uint256 tokenId) external view returns (address operator);\\n\\n    /**\\n     * @dev Approve or remove `operator` as an operator for the caller.\\n     * Operators can call {transferFrom} or {safeTransferFrom} for any token owned by the caller.\\n     *\\n     * Requirements:\\n     *\\n     * - The `operator` cannot be the caller.\\n     *\\n     * Emits an {ApprovalForAll} event.\\n     */\\n    function setApprovalForAll(address operator, bool _approved) external;\\n\\n    /**\\n     * @dev Returns if the `operator` is allowed to manage all of the assets of `owner`.\\n     *\\n     * See {setApprovalForAll}\\n     */\\n    function isApprovedForAll(address owner, address operator) external view returns (bool);\\n\\n    /**\\n      * @dev Safely transfers `tokenId` token from `from` to `to`.\\n      *\\n      * Requirements:\\n      *\\n      * - `from` cannot be the zero address.\\n      * - `to` cannot be the zero address.\\n      * - `tokenId` token must exist and be owned by `from`.\\n      * - If the caller is not `from`, it must be approved to move this token by either {approve} or {setApprovalForAll}.\\n      * - If `to` refers to a smart contract, it must implement {IERC721Receiver-onERC721Received}, which is called upon a safe transfer.\\n      *\\n      * Emits a {Transfer} event.\\n      */\\n    function safeTransferFrom(address from, address to, uint256 tokenId, bytes calldata data) external;\\n}\\n\",\"keccak256\":\"0x9ef7f2874f4a491f253a81eb4c5b9a7b6467a287aa0c32ac3dd684260a3cd7ad\",\"license\":\"MIT\"},\"@openzeppelin/contracts-upgradeable/token/ERC721/extensions/IERC721MetadataUpgradeable.sol\":{\"content\":\"// SPDX-License-Identifier: MIT\\n\\npragma solidity ^0.8.0;\\n\\nimport \\\"../IERC721Upgradeable.sol\\\";\\n\\n/**\\n * @title ERC-721 Non-Fungible Token Standard, optional metadata extension\\n * @dev See https://eips.ethereum.org/EIPS/eip-721\\n */\\ninterface IERC721MetadataUpgradeable is IERC721Upgradeable {\\n\\n    /**\\n     * @dev Returns the token collection name.\\n     */\\n    function name() external view returns (string memory);\\n\\n    /**\\n     * @dev Returns the token collection symbol.\\n     */\\n    function symbol() external view returns (string memory);\\n\\n    /**\\n     * @dev Returns the Uniform Resource Identifier (URI) for `tokenId` token.\\n     */\\n    function tokenURI(uint256 tokenId) external view returns (string memory);\\n}\\n\",\"keccak256\":\"0x64581a092c059ab0cb74f473545e379b8a88f36a6a57f805515ef8c6ae061847\",\"license\":\"MIT\"},\"@openzeppelin/contracts-upgradeable/utils/AddressUpgradeable.sol\":{\"content\":\"// SPDX-License-Identifier: MIT\\n\\npragma solidity ^0.8.0;\\n\\n/**\\n * @dev Collection of functions related to the address type\\n */\\nlibrary AddressUpgradeable {\\n    /**\\n     * @dev Returns true if `account` is a contract.\\n     *\\n     * [IMPORTANT]\\n     * ====\\n     * It is unsafe to assume that an address for which this function returns\\n     * false is an externally-owned account (EOA) and not a contract.\\n     *\\n     * Among others, `isContract` will return false for the following\\n     * types of addresses:\\n     *\\n     *  - an externally-owned account\\n     *  - a contract in construction\\n     *  - an address where a contract will be created\\n     *  - an address where a contract lived, but was destroyed\\n     * ====\\n     */\\n    function isContract(address account) internal view returns (bool) {\\n        // This method relies on extcodesize, which returns 0 for contracts in\\n        // construction, since the code is only stored at the end of the\\n        // constructor execution.\\n\\n        uint256 size;\\n        // solhint-disable-next-line no-inline-assembly\\n        assembly { size := extcodesize(account) }\\n        return size > 0;\\n    }\\n\\n    /**\\n     * @dev Replacement for Solidity's `transfer`: sends `amount` wei to\\n     * `recipient`, forwarding all available gas and reverting on errors.\\n     *\\n     * https://eips.ethereum.org/EIPS/eip-1884[EIP1884] increases the gas cost\\n     * of certain opcodes, possibly making contracts go over the 2300 gas limit\\n     * imposed by `transfer`, making them unable to receive funds via\\n     * `transfer`. {sendValue} removes this limitation.\\n     *\\n     * https://diligence.consensys.net/posts/2019/09/stop-using-soliditys-transfer-now/[Learn more].\\n     *\\n     * IMPORTANT: because control is transferred to `recipient`, care must be\\n     * taken to not create reentrancy vulnerabilities. Consider using\\n     * {ReentrancyGuard} or the\\n     * https://solidity.readthedocs.io/en/v0.5.11/security-considerations.html#use-the-checks-effects-interactions-pattern[checks-effects-interactions pattern].\\n     */\\n    function sendValue(address payable recipient, uint256 amount) internal {\\n        require(address(this).balance >= amount, \\\"Address: insufficient balance\\\");\\n\\n        // solhint-disable-next-line avoid-low-level-calls, avoid-call-value\\n        (bool success, ) = recipient.call{ value: amount }(\\\"\\\");\\n        require(success, \\\"Address: unable to send value, recipient may have reverted\\\");\\n    }\\n\\n    /**\\n     * @dev Performs a Solidity function call using a low level `call`. A\\n     * plain`call` is an unsafe replacement for a function call: use this\\n     * function instead.\\n     *\\n     * If `target` reverts with a revert reason, it is bubbled up by this\\n     * function (like regular Solidity function calls).\\n     *\\n     * Returns the raw returned data. To convert to the expected return value,\\n     * use https://solidity.readthedocs.io/en/latest/units-and-global-variables.html?highlight=abi.decode#abi-encoding-and-decoding-functions[`abi.decode`].\\n     *\\n     * Requirements:\\n     *\\n     * - `target` must be a contract.\\n     * - calling `target` with `data` must not revert.\\n     *\\n     * _Available since v3.1._\\n     */\\n    function functionCall(address target, bytes memory data) internal returns (bytes memory) {\\n      return functionCall(target, data, \\\"Address: low-level call failed\\\");\\n    }\\n\\n    /**\\n     * @dev Same as {xref-Address-functionCall-address-bytes-}[`functionCall`], but with\\n     * `errorMessage` as a fallback revert reason when `target` reverts.\\n     *\\n     * _Available since v3.1._\\n     */\\n    function functionCall(address target, bytes memory data, string memory errorMessage) internal returns (bytes memory) {\\n        return functionCallWithValue(target, data, 0, errorMessage);\\n    }\\n\\n    /**\\n     * @dev Same as {xref-Address-functionCall-address-bytes-}[`functionCall`],\\n     * but also transferring `value` wei to `target`.\\n     *\\n     * Requirements:\\n     *\\n     * - the calling contract must have an ETH balance of at least `value`.\\n     * - the called Solidity function must be `payable`.\\n     *\\n     * _Available since v3.1._\\n     */\\n    function functionCallWithValue(address target, bytes memory data, uint256 value) internal returns (bytes memory) {\\n        return functionCallWithValue(target, data, value, \\\"Address: low-level call with value failed\\\");\\n    }\\n\\n    /**\\n     * @dev Same as {xref-Address-functionCallWithValue-address-bytes-uint256-}[`functionCallWithValue`], but\\n     * with `errorMessage` as a fallback revert reason when `target` reverts.\\n     *\\n     * _Available since v3.1._\\n     */\\n    function functionCallWithValue(address target, bytes memory data, uint256 value, string memory errorMessage) internal returns (bytes memory) {\\n        require(address(this).balance >= value, \\\"Address: insufficient balance for call\\\");\\n        require(isContract(target), \\\"Address: call to non-contract\\\");\\n\\n        // solhint-disable-next-line avoid-low-level-calls\\n        (bool success, bytes memory returndata) = target.call{ value: value }(data);\\n        return _verifyCallResult(success, returndata, errorMessage);\\n    }\\n\\n    /**\\n     * @dev Same as {xref-Address-functionCall-address-bytes-}[`functionCall`],\\n     * but performing a static call.\\n     *\\n     * _Available since v3.3._\\n     */\\n    function functionStaticCall(address target, bytes memory data) internal view returns (bytes memory) {\\n        return functionStaticCall(target, data, \\\"Address: low-level static call failed\\\");\\n    }\\n\\n    /**\\n     * @dev Same as {xref-Address-functionCall-address-bytes-string-}[`functionCall`],\\n     * but performing a static call.\\n     *\\n     * _Available since v3.3._\\n     */\\n    function functionStaticCall(address target, bytes memory data, string memory errorMessage) internal view returns (bytes memory) {\\n        require(isContract(target), \\\"Address: static call to non-contract\\\");\\n\\n        // solhint-disable-next-line avoid-low-level-calls\\n        (bool success, bytes memory returndata) = target.staticcall(data);\\n        return _verifyCallResult(success, returndata, errorMessage);\\n    }\\n\\n    function _verifyCallResult(bool success, bytes memory returndata, string memory errorMessage) private pure returns(bytes memory) {\\n        if (success) {\\n            return returndata;\\n        } else {\\n            // Look for revert reason and bubble it up if present\\n            if (returndata.length > 0) {\\n                // The easiest way to bubble the revert reason is using memory via assembly\\n\\n                // solhint-disable-next-line no-inline-assembly\\n                assembly {\\n                    let returndata_size := mload(returndata)\\n                    revert(add(32, returndata), returndata_size)\\n                }\\n            } else {\\n                revert(errorMessage);\\n            }\\n        }\\n    }\\n}\\n\",\"keccak256\":\"0x5642ae1d6b33c5c0b71a8412c6c64cbcf2468b84a002bee3e33cdb5644d25cdb\",\"license\":\"MIT\"},\"@openzeppelin/contracts-upgradeable/utils/ContextUpgradeable.sol\":{\"content\":\"// SPDX-License-Identifier: MIT\\n\\npragma solidity ^0.8.0;\\nimport \\\"../proxy/utils/Initializable.sol\\\";\\n\\n/*\\n * @dev Provides information about the current execution context, including the\\n * sender of the transaction and its data. While these are generally available\\n * via msg.sender and msg.data, they should not be accessed in such a direct\\n * manner, since when dealing with meta-transactions the account sending and\\n * paying for execution may not be the actual sender (as far as an application\\n * is concerned).\\n *\\n * This contract is only required for intermediate, library-like contracts.\\n */\\nabstract contract ContextUpgradeable is Initializable {\\n    function __Context_init() internal initializer {\\n        __Context_init_unchained();\\n    }\\n\\n    function __Context_init_unchained() internal initializer {\\n    }\\n    function _msgSender() internal view virtual returns (address) {\\n        return msg.sender;\\n    }\\n\\n    function _msgData() internal view virtual returns (bytes calldata) {\\n        this; // silence state mutability warning without generating bytecode - see https://github.com/ethereum/solidity/issues/2691\\n        return msg.data;\\n    }\\n    uint256[50] private __gap;\\n}\\n\",\"keccak256\":\"0x8e9eb503de1189f50c5f16fef327da310b11898d6b9ab3ca937df07c35233b9e\",\"license\":\"MIT\"},\"@openzeppelin/contracts-upgradeable/utils/StringsUpgradeable.sol\":{\"content\":\"// SPDX-License-Identifier: MIT\\n\\npragma solidity ^0.8.0;\\n\\n/**\\n * @dev String operations.\\n */\\nlibrary StringsUpgradeable {\\n    bytes16 private constant alphabet = \\\"0123456789abcdef\\\";\\n\\n    /**\\n     * @dev Converts a `uint256` to its ASCII `string` decimal representation.\\n     */\\n    function toString(uint256 value) internal pure returns (string memory) {\\n        // Inspired by OraclizeAPI's implementation - MIT licence\\n        // https://github.com/oraclize/ethereum-api/blob/b42146b063c7d6ee1358846c198246239e9360e8/oraclizeAPI_0.4.25.sol\\n\\n        if (value == 0) {\\n            return \\\"0\\\";\\n        }\\n        uint256 temp = value;\\n        uint256 digits;\\n        while (temp != 0) {\\n            digits++;\\n            temp /= 10;\\n        }\\n        bytes memory buffer = new bytes(digits);\\n        while (value != 0) {\\n            digits -= 1;\\n            buffer[digits] = bytes1(uint8(48 + uint256(value % 10)));\\n            value /= 10;\\n        }\\n        return string(buffer);\\n    }\\n\\n    /**\\n     * @dev Converts a `uint256` to its ASCII `string` hexadecimal representation.\\n     */\\n    function toHexString(uint256 value) internal pure returns (string memory) {\\n        if (value == 0) {\\n            return \\\"0x00\\\";\\n        }\\n        uint256 temp = value;\\n        uint256 length = 0;\\n        while (temp != 0) {\\n            length++;\\n            temp >>= 8;\\n        }\\n        return toHexString(value, length);\\n    }\\n\\n    /**\\n     * @dev Converts a `uint256` to its ASCII `string` hexadecimal representation with fixed length.\\n     */\\n    function toHexString(uint256 value, uint256 length) internal pure returns (string memory) {\\n        bytes memory buffer = new bytes(2 * length + 2);\\n        buffer[0] = \\\"0\\\";\\n        buffer[1] = \\\"x\\\";\\n        for (uint256 i = 2 * length + 1; i > 1; --i) {\\n            buffer[i] = alphabet[value & 0xf];\\n            value >>= 4;\\n        }\\n        require(value == 0, \\\"Strings: hex length insufficient\\\");\\n        return string(buffer);\\n    }\\n\\n}\\n\",\"keccak256\":\"0x6964377da5c19ade6b3e96bae0c0e82494d518af70cf12d2cdb3276f78fb3d85\",\"license\":\"MIT\"},\"@openzeppelin/contracts-upgradeable/utils/introspection/ERC165Upgradeable.sol\":{\"content\":\"// SPDX-License-Identifier: MIT\\n\\npragma solidity ^0.8.0;\\n\\nimport \\\"./IERC165Upgradeable.sol\\\";\\nimport \\\"../../proxy/utils/Initializable.sol\\\";\\n\\n/**\\n * @dev Implementation of the {IERC165} interface.\\n *\\n * Contracts that want to implement ERC165 should inherit from this contract and override {supportsInterface} to check\\n * for the additional interface id that will be supported. For example:\\n *\\n * ```solidity\\n * function supportsInterface(bytes4 interfaceId) public view virtual override returns (bool) {\\n *     return interfaceId == type(MyInterface).interfaceId || super.supportsInterface(interfaceId);\\n * }\\n * ```\\n *\\n * Alternatively, {ERC165Storage} provides an easier to use but more expensive implementation.\\n */\\nabstract contract ERC165Upgradeable is Initializable, IERC165Upgradeable {\\n    function __ERC165_init() internal initializer {\\n        __ERC165_init_unchained();\\n    }\\n\\n    function __ERC165_init_unchained() internal initializer {\\n    }\\n    /**\\n     * @dev See {IERC165-supportsInterface}.\\n     */\\n    function supportsInterface(bytes4 interfaceId) public view virtual override returns (bool) {\\n        return interfaceId == type(IERC165Upgradeable).interfaceId;\\n    }\\n    uint256[50] private __gap;\\n}\\n\",\"keccak256\":\"0x17c9c5d2d6b56527215ee7b3da6dde66b6f23f1b3d5c66cc436e753ef349a97a\",\"license\":\"MIT\"},\"@openzeppelin/contracts-upgradeable/utils/introspection/IERC165Upgradeable.sol\":{\"content\":\"// SPDX-License-Identifier: MIT\\n\\npragma solidity ^0.8.0;\\n\\n/**\\n * @dev Interface of the ERC165 standard, as defined in the\\n * https://eips.ethereum.org/EIPS/eip-165[EIP].\\n *\\n * Implementers can declare support of contract interfaces, which can then be\\n * queried by others ({ERC165Checker}).\\n *\\n * For an implementation, see {ERC165}.\\n */\\ninterface IERC165Upgradeable {\\n    /**\\n     * @dev Returns true if this contract implements the interface defined by\\n     * `interfaceId`. See the corresponding\\n     * https://eips.ethereum.org/EIPS/eip-165#how-interfaces-are-identified[EIP section]\\n     * to learn more about how these ids are created.\\n     *\\n     * This function call must use less than 30 000 gas.\\n     */\\n    function supportsInterface(bytes4 interfaceId) external view returns (bool);\\n}\\n\",\"keccak256\":\"0x1c4860acd323e34a67b3e97faab9aaa55fe8e92b1dcf08b5f47f3468d58ce75c\",\"license\":\"MIT\"},\"@openzeppelin/contracts/access/Ownable.sol\":{\"content\":\"// SPDX-License-Identifier: MIT\\n\\npragma solidity ^0.8.0;\\n\\nimport \\\"../utils/Context.sol\\\";\\n/**\\n * @dev Contract module which provides a basic access control mechanism, where\\n * there is an account (an owner) that can be granted exclusive access to\\n * specific functions.\\n *\\n * By default, the owner account will be the one that deploys the contract. This\\n * can later be changed with {transferOwnership}.\\n *\\n * This module is used through inheritance. It will make available the modifier\\n * `onlyOwner`, which can be applied to your functions to restrict their use to\\n * the owner.\\n */\\nabstract contract Ownable is Context {\\n    address private _owner;\\n\\n    event OwnershipTransferred(address indexed previousOwner, address indexed newOwner);\\n\\n    /**\\n     * @dev Initializes the contract setting the deployer as the initial owner.\\n     */\\n    constructor () {\\n        address msgSender = _msgSender();\\n        _owner = msgSender;\\n        emit OwnershipTransferred(address(0), msgSender);\\n    }\\n\\n    /**\\n     * @dev Returns the address of the current owner.\\n     */\\n    function owner() public view virtual returns (address) {\\n        return _owner;\\n    }\\n\\n    /**\\n     * @dev Throws if called by any account other than the owner.\\n     */\\n    modifier onlyOwner() {\\n        require(owner() == _msgSender(), \\\"Ownable: caller is not the owner\\\");\\n        _;\\n    }\\n\\n    /**\\n     * @dev Leaves the contract without owner. It will not be possible to call\\n     * `onlyOwner` functions anymore. Can only be called by the current owner.\\n     *\\n     * NOTE: Renouncing ownership will leave the contract without an owner,\\n     * thereby removing any functionality that is only available to the owner.\\n     */\\n    function renounceOwnership() public virtual onlyOwner {\\n        emit OwnershipTransferred(_owner, address(0));\\n        _owner = address(0);\\n    }\\n\\n    /**\\n     * @dev Transfers ownership of the contract to a new account (`newOwner`).\\n     * Can only be called by the current owner.\\n     */\\n    function transferOwnership(address newOwner) public virtual onlyOwner {\\n        require(newOwner != address(0), \\\"Ownable: new owner is the zero address\\\");\\n        emit OwnershipTransferred(_owner, newOwner);\\n        _owner = newOwner;\\n    }\\n}\\n\",\"keccak256\":\"0x1cae4f85f114ff17b90414f5da67365b1d00337abb5bce9bf944eb78a2c0673c\",\"license\":\"MIT\"},\"@openzeppelin/contracts/proxy/Clones.sol\":{\"content\":\"// SPDX-License-Identifier: MIT\\n\\npragma solidity ^0.8.0;\\n\\n/**\\n * @dev https://eips.ethereum.org/EIPS/eip-1167[EIP 1167] is a standard for\\n * deploying minimal proxy contracts, also known as \\\"clones\\\".\\n *\\n * > To simply and cheaply clone contract functionality in an immutable way, this standard specifies\\n * > a minimal bytecode implementation that delegates all calls to a known, fixed address.\\n *\\n * The library includes functions to deploy a proxy using either `create` (traditional deployment) or `create2`\\n * (salted deterministic deployment). It also includes functions to predict the addresses of clones deployed using the\\n * deterministic method.\\n *\\n * _Available since v3.4._\\n */\\nlibrary Clones {\\n    /**\\n     * @dev Deploys and returns the address of a clone that mimics the behaviour of `implementation`.\\n     *\\n     * This function uses the create opcode, which should never revert.\\n     */\\n    function clone(address implementation) internal returns (address instance) {\\n        // solhint-disable-next-line no-inline-assembly\\n        assembly {\\n            let ptr := mload(0x40)\\n            mstore(ptr, 0x3d602d80600a3d3981f3363d3d373d3d3d363d73000000000000000000000000)\\n            mstore(add(ptr, 0x14), shl(0x60, implementation))\\n            mstore(add(ptr, 0x28), 0x5af43d82803e903d91602b57fd5bf30000000000000000000000000000000000)\\n            instance := create(0, ptr, 0x37)\\n        }\\n        require(instance != address(0), \\\"ERC1167: create failed\\\");\\n    }\\n\\n    /**\\n     * @dev Deploys and returns the address of a clone that mimics the behaviour of `implementation`.\\n     *\\n     * This function uses the create2 opcode and a `salt` to deterministically deploy\\n     * the clone. Using the same `implementation` and `salt` multiple time will revert, since\\n     * the clones cannot be deployed twice at the same address.\\n     */\\n    function cloneDeterministic(address implementation, bytes32 salt) internal returns (address instance) {\\n        // solhint-disable-next-line no-inline-assembly\\n        assembly {\\n            let ptr := mload(0x40)\\n            mstore(ptr, 0x3d602d80600a3d3981f3363d3d373d3d3d363d73000000000000000000000000)\\n            mstore(add(ptr, 0x14), shl(0x60, implementation))\\n            mstore(add(ptr, 0x28), 0x5af43d82803e903d91602b57fd5bf30000000000000000000000000000000000)\\n            instance := create2(0, ptr, 0x37, salt)\\n        }\\n        require(instance != address(0), \\\"ERC1167: create2 failed\\\");\\n    }\\n\\n    /**\\n     * @dev Computes the address of a clone deployed using {Clones-cloneDeterministic}.\\n     */\\n    function predictDeterministicAddress(address implementation, bytes32 salt, address deployer) internal pure returns (address predicted) {\\n        // solhint-disable-next-line no-inline-assembly\\n        assembly {\\n            let ptr := mload(0x40)\\n            mstore(ptr, 0x3d602d80600a3d3981f3363d3d373d3d3d363d73000000000000000000000000)\\n            mstore(add(ptr, 0x14), shl(0x60, implementation))\\n            mstore(add(ptr, 0x28), 0x5af43d82803e903d91602b57fd5bf3ff00000000000000000000000000000000)\\n            mstore(add(ptr, 0x38), shl(0x60, deployer))\\n            mstore(add(ptr, 0x4c), salt)\\n            mstore(add(ptr, 0x6c), keccak256(ptr, 0x37))\\n            predicted := keccak256(add(ptr, 0x37), 0x55)\\n        }\\n    }\\n\\n    /**\\n     * @dev Computes the address of a clone deployed using {Clones-cloneDeterministic}.\\n     */\\n    function predictDeterministicAddress(address implementation, bytes32 salt) internal view returns (address predicted) {\\n        return predictDeterministicAddress(implementation, salt, address(this));\\n    }\\n}\\n\",\"keccak256\":\"0x90dec20805396efc780a82c62578626103e03278bc1f48b61bb3aba52a61617c\",\"license\":\"MIT\"},\"@openzeppelin/contracts/proxy/Proxy.sol\":{\"content\":\"// SPDX-License-Identifier: MIT\\n\\npragma solidity ^0.8.0;\\n\\n/**\\n * @dev This abstract contract provides a fallback function that delegates all calls to another contract using the EVM\\n * instruction `delegatecall`. We refer to the second contract as the _implementation_ behind the proxy, and it has to\\n * be specified by overriding the virtual {_implementation} function.\\n *\\n * Additionally, delegation to the implementation can be triggered manually through the {_fallback} function, or to a\\n * different contract through the {_delegate} function.\\n *\\n * The success and return data of the delegated call will be returned back to the caller of the proxy.\\n */\\nabstract contract Proxy {\\n    /**\\n     * @dev Delegates the current call to `implementation`.\\n     *\\n     * This function does not return to its internall call site, it will return directly to the external caller.\\n     */\\n    function _delegate(address implementation) internal virtual {\\n        // solhint-disable-next-line no-inline-assembly\\n        assembly {\\n            // Copy msg.data. We take full control of memory in this inline assembly\\n            // block because it will not return to Solidity code. We overwrite the\\n            // Solidity scratch pad at memory position 0.\\n            calldatacopy(0, 0, calldatasize())\\n\\n            // Call the implementation.\\n            // out and outsize are 0 because we don't know the size yet.\\n            let result := delegatecall(gas(), implementation, 0, calldatasize(), 0, 0)\\n\\n            // Copy the returned data.\\n            returndatacopy(0, 0, returndatasize())\\n\\n            switch result\\n            // delegatecall returns 0 on error.\\n            case 0 { revert(0, returndatasize()) }\\n            default { return(0, returndatasize()) }\\n        }\\n    }\\n\\n    /**\\n     * @dev This is a virtual function that should be overriden so it returns the address to which the fallback function\\n     * and {_fallback} should delegate.\\n     */\\n    function _implementation() internal view virtual returns (address);\\n\\n    /**\\n     * @dev Delegates the current call to the address returned by `_implementation()`.\\n     *\\n     * This function does not return to its internall call site, it will return directly to the external caller.\\n     */\\n    function _fallback() internal virtual {\\n        _beforeFallback();\\n        _delegate(_implementation());\\n    }\\n\\n    /**\\n     * @dev Fallback function that delegates calls to the address returned by `_implementation()`. Will run if no other\\n     * function in the contract matches the call data.\\n     */\\n    fallback () external payable virtual {\\n        _fallback();\\n    }\\n\\n    /**\\n     * @dev Fallback function that delegates calls to the address returned by `_implementation()`. Will run if call data\\n     * is empty.\\n     */\\n    receive () external payable virtual {\\n        _fallback();\\n    }\\n\\n    /**\\n     * @dev Hook that is called before falling back to the implementation. Can happen as part of a manual `_fallback`\\n     * call, or as part of the Solidity `fallback` or `receive` functions.\\n     *\\n     * If overriden should call `super._beforeFallback()`.\\n     */\\n    function _beforeFallback() internal virtual {\\n    }\\n}\\n\",\"keccak256\":\"0xc706395df88dc1d459f21e51c57ab8820af80d1e8c3c14933a651794d78a429f\",\"license\":\"MIT\"},\"@openzeppelin/contracts/proxy/beacon/IBeacon.sol\":{\"content\":\"// SPDX-License-Identifier: MIT\\n\\npragma solidity ^0.8.0;\\n\\n/**\\n * @dev This is the interface that {BeaconProxy} expects of its beacon.\\n */\\ninterface IBeacon {\\n    /**\\n     * @dev Must return an address that can be used as a delegate call target.\\n     *\\n     * {BeaconProxy} will check that this address is a contract.\\n     */\\n    function implementation() external view returns (address);\\n}\\n\",\"keccak256\":\"0x5615339d191e77be7e46319b67856f9355786f705b7b3c4a7237ab70c1864ab1\",\"license\":\"MIT\"},\"@openzeppelin/contracts/token/ERC20/ERC20.sol\":{\"content\":\"// SPDX-License-Identifier: MIT\\n\\npragma solidity ^0.8.0;\\n\\nimport \\\"./IERC20.sol\\\";\\nimport \\\"./extensions/IERC20Metadata.sol\\\";\\nimport \\\"../../utils/Context.sol\\\";\\n\\n/**\\n * @dev Implementation of the {IERC20} interface.\\n *\\n * This implementation is agnostic to the way tokens are created. This means\\n * that a supply mechanism has to be added in a derived contract using {_mint}.\\n * For a generic mechanism see {ERC20PresetMinterPauser}.\\n *\\n * TIP: For a detailed writeup see our guide\\n * https://forum.zeppelin.solutions/t/how-to-implement-erc20-supply-mechanisms/226[How\\n * to implement supply mechanisms].\\n *\\n * We have followed general OpenZeppelin guidelines: functions revert instead\\n * of returning `false` on failure. This behavior is nonetheless conventional\\n * and does not conflict with the expectations of ERC20 applications.\\n *\\n * Additionally, an {Approval} event is emitted on calls to {transferFrom}.\\n * This allows applications to reconstruct the allowance for all accounts just\\n * by listening to said events. Other implementations of the EIP may not emit\\n * these events, as it isn't required by the specification.\\n *\\n * Finally, the non-standard {decreaseAllowance} and {increaseAllowance}\\n * functions have been added to mitigate the well-known issues around setting\\n * allowances. See {IERC20-approve}.\\n */\\ncontract ERC20 is Context, IERC20, IERC20Metadata {\\n    mapping (address => uint256) private _balances;\\n\\n    mapping (address => mapping (address => uint256)) private _allowances;\\n\\n    uint256 private _totalSupply;\\n\\n    string private _name;\\n    string private _symbol;\\n\\n    /**\\n     * @dev Sets the values for {name} and {symbol}.\\n     *\\n     * The defaut value of {decimals} is 18. To select a different value for\\n     * {decimals} you should overload it.\\n     *\\n     * All two of these values are immutable: they can only be set once during\\n     * construction.\\n     */\\n    constructor (string memory name_, string memory symbol_) {\\n        _name = name_;\\n        _symbol = symbol_;\\n    }\\n\\n    /**\\n     * @dev Returns the name of the token.\\n     */\\n    function name() public view virtual override returns (string memory) {\\n        return _name;\\n    }\\n\\n    /**\\n     * @dev Returns the symbol of the token, usually a shorter version of the\\n     * name.\\n     */\\n    function symbol() public view virtual override returns (string memory) {\\n        return _symbol;\\n    }\\n\\n    /**\\n     * @dev Returns the number of decimals used to get its user representation.\\n     * For example, if `decimals` equals `2`, a balance of `505` tokens should\\n     * be displayed to a user as `5,05` (`505 / 10 ** 2`).\\n     *\\n     * Tokens usually opt for a value of 18, imitating the relationship between\\n     * Ether and Wei. This is the value {ERC20} uses, unless this function is\\n     * overridden;\\n     *\\n     * NOTE: This information is only used for _display_ purposes: it in\\n     * no way affects any of the arithmetic of the contract, including\\n     * {IERC20-balanceOf} and {IERC20-transfer}.\\n     */\\n    function decimals() public view virtual override returns (uint8) {\\n        return 18;\\n    }\\n\\n    /**\\n     * @dev See {IERC20-totalSupply}.\\n     */\\n    function totalSupply() public view virtual override returns (uint256) {\\n        return _totalSupply;\\n    }\\n\\n    /**\\n     * @dev See {IERC20-balanceOf}.\\n     */\\n    function balanceOf(address account) public view virtual override returns (uint256) {\\n        return _balances[account];\\n    }\\n\\n    /**\\n     * @dev See {IERC20-transfer}.\\n     *\\n     * Requirements:\\n     *\\n     * - `recipient` cannot be the zero address.\\n     * - the caller must have a balance of at least `amount`.\\n     */\\n    function transfer(address recipient, uint256 amount) public virtual override returns (bool) {\\n        _transfer(_msgSender(), recipient, amount);\\n        return true;\\n    }\\n\\n    /**\\n     * @dev See {IERC20-allowance}.\\n     */\\n    function allowance(address owner, address spender) public view virtual override returns (uint256) {\\n        return _allowances[owner][spender];\\n    }\\n\\n    /**\\n     * @dev See {IERC20-approve}.\\n     *\\n     * Requirements:\\n     *\\n     * - `spender` cannot be the zero address.\\n     */\\n    function approve(address spender, uint256 amount) public virtual override returns (bool) {\\n        _approve(_msgSender(), spender, amount);\\n        return true;\\n    }\\n\\n    /**\\n     * @dev See {IERC20-transferFrom}.\\n     *\\n     * Emits an {Approval} event indicating the updated allowance. This is not\\n     * required by the EIP. See the note at the beginning of {ERC20}.\\n     *\\n     * Requirements:\\n     *\\n     * - `sender` and `recipient` cannot be the zero address.\\n     * - `sender` must have a balance of at least `amount`.\\n     * - the caller must have allowance for ``sender``'s tokens of at least\\n     * `amount`.\\n     */\\n    function transferFrom(address sender, address recipient, uint256 amount) public virtual override returns (bool) {\\n        _transfer(sender, recipient, amount);\\n\\n        uint256 currentAllowance = _allowances[sender][_msgSender()];\\n        require(currentAllowance >= amount, \\\"ERC20: transfer amount exceeds allowance\\\");\\n        _approve(sender, _msgSender(), currentAllowance - amount);\\n\\n        return true;\\n    }\\n\\n    /**\\n     * @dev Atomically increases the allowance granted to `spender` by the caller.\\n     *\\n     * This is an alternative to {approve} that can be used as a mitigation for\\n     * problems described in {IERC20-approve}.\\n     *\\n     * Emits an {Approval} event indicating the updated allowance.\\n     *\\n     * Requirements:\\n     *\\n     * - `spender` cannot be the zero address.\\n     */\\n    function increaseAllowance(address spender, uint256 addedValue) public virtual returns (bool) {\\n        _approve(_msgSender(), spender, _allowances[_msgSender()][spender] + addedValue);\\n        return true;\\n    }\\n\\n    /**\\n     * @dev Atomically decreases the allowance granted to `spender` by the caller.\\n     *\\n     * This is an alternative to {approve} that can be used as a mitigation for\\n     * problems described in {IERC20-approve}.\\n     *\\n     * Emits an {Approval} event indicating the updated allowance.\\n     *\\n     * Requirements:\\n     *\\n     * - `spender` cannot be the zero address.\\n     * - `spender` must have allowance for the caller of at least\\n     * `subtractedValue`.\\n     */\\n    function decreaseAllowance(address spender, uint256 subtractedValue) public virtual returns (bool) {\\n        uint256 currentAllowance = _allowances[_msgSender()][spender];\\n        require(currentAllowance >= subtractedValue, \\\"ERC20: decreased allowance below zero\\\");\\n        _approve(_msgSender(), spender, currentAllowance - subtractedValue);\\n\\n        return true;\\n    }\\n\\n    /**\\n     * @dev Moves tokens `amount` from `sender` to `recipient`.\\n     *\\n     * This is internal function is equivalent to {transfer}, and can be used to\\n     * e.g. implement automatic token fees, slashing mechanisms, etc.\\n     *\\n     * Emits a {Transfer} event.\\n     *\\n     * Requirements:\\n     *\\n     * - `sender` cannot be the zero address.\\n     * - `recipient` cannot be the zero address.\\n     * - `sender` must have a balance of at least `amount`.\\n     */\\n    function _transfer(address sender, address recipient, uint256 amount) internal virtual {\\n        require(sender != address(0), \\\"ERC20: transfer from the zero address\\\");\\n        require(recipient != address(0), \\\"ERC20: transfer to the zero address\\\");\\n\\n        _beforeTokenTransfer(sender, recipient, amount);\\n\\n        uint256 senderBalance = _balances[sender];\\n        require(senderBalance >= amount, \\\"ERC20: transfer amount exceeds balance\\\");\\n        _balances[sender] = senderBalance - amount;\\n        _balances[recipient] += amount;\\n\\n        emit Transfer(sender, recipient, amount);\\n    }\\n\\n    /** @dev Creates `amount` tokens and assigns them to `account`, increasing\\n     * the total supply.\\n     *\\n     * Emits a {Transfer} event with `from` set to the zero address.\\n     *\\n     * Requirements:\\n     *\\n     * - `to` cannot be the zero address.\\n     */\\n    function _mint(address account, uint256 amount) internal virtual {\\n        require(account != address(0), \\\"ERC20: mint to the zero address\\\");\\n\\n        _beforeTokenTransfer(address(0), account, amount);\\n\\n        _totalSupply += amount;\\n        _balances[account] += amount;\\n        emit Transfer(address(0), account, amount);\\n    }\\n\\n    /**\\n     * @dev Destroys `amount` tokens from `account`, reducing the\\n     * total supply.\\n     *\\n     * Emits a {Transfer} event with `to` set to the zero address.\\n     *\\n     * Requirements:\\n     *\\n     * - `account` cannot be the zero address.\\n     * - `account` must have at least `amount` tokens.\\n     */\\n    function _burn(address account, uint256 amount) internal virtual {\\n        require(account != address(0), \\\"ERC20: burn from the zero address\\\");\\n\\n        _beforeTokenTransfer(account, address(0), amount);\\n\\n        uint256 accountBalance = _balances[account];\\n        require(accountBalance >= amount, \\\"ERC20: burn amount exceeds balance\\\");\\n        _balances[account] = accountBalance - amount;\\n        _totalSupply -= amount;\\n\\n        emit Transfer(account, address(0), amount);\\n    }\\n\\n    /**\\n     * @dev Sets `amount` as the allowance of `spender` over the `owner` s tokens.\\n     *\\n     * This internal function is equivalent to `approve`, and can be used to\\n     * e.g. set automatic allowances for certain subsystems, etc.\\n     *\\n     * Emits an {Approval} event.\\n     *\\n     * Requirements:\\n     *\\n     * - `owner` cannot be the zero address.\\n     * - `spender` cannot be the zero address.\\n     */\\n    function _approve(address owner, address spender, uint256 amount) internal virtual {\\n        require(owner != address(0), \\\"ERC20: approve from the zero address\\\");\\n        require(spender != address(0), \\\"ERC20: approve to the zero address\\\");\\n\\n        _allowances[owner][spender] = amount;\\n        emit Approval(owner, spender, amount);\\n    }\\n\\n    /**\\n     * @dev Hook that is called before any transfer of tokens. This includes\\n     * minting and burning.\\n     *\\n     * Calling conditions:\\n     *\\n     * - when `from` and `to` are both non-zero, `amount` of ``from``'s tokens\\n     * will be to transferred to `to`.\\n     * - when `from` is zero, `amount` tokens will be minted for `to`.\\n     * - when `to` is zero, `amount` of ``from``'s tokens will be burned.\\n     * - `from` and `to` are never both zero.\\n     *\\n     * To learn more about hooks, head to xref:ROOT:extending-contracts.adoc#using-hooks[Using Hooks].\\n     */\\n    function _beforeTokenTransfer(address from, address to, uint256 amount) internal virtual { }\\n}\\n\",\"keccak256\":\"0xfeccdcbf67b2006a715e5af1a4c7556004d95b2806552b5cc54e46e8eb7e887b\",\"license\":\"MIT\"},\"@openzeppelin/contracts/token/ERC20/IERC20.sol\":{\"content\":\"// SPDX-License-Identifier: MIT\\n\\npragma solidity ^0.8.0;\\n\\n/**\\n * @dev Interface of the ERC20 standard as defined in the EIP.\\n */\\ninterface IERC20 {\\n    /**\\n     * @dev Returns the amount of tokens in existence.\\n     */\\n    function totalSupply() external view returns (uint256);\\n\\n    /**\\n     * @dev Returns the amount of tokens owned by `account`.\\n     */\\n    function balanceOf(address account) external view returns (uint256);\\n\\n    /**\\n     * @dev Moves `amount` tokens from the caller's account to `recipient`.\\n     *\\n     * Returns a boolean value indicating whether the operation succeeded.\\n     *\\n     * Emits a {Transfer} event.\\n     */\\n    function transfer(address recipient, uint256 amount) external returns (bool);\\n\\n    /**\\n     * @dev Returns the remaining number of tokens that `spender` will be\\n     * allowed to spend on behalf of `owner` through {transferFrom}. This is\\n     * zero by default.\\n     *\\n     * This value changes when {approve} or {transferFrom} are called.\\n     */\\n    function allowance(address owner, address spender) external view returns (uint256);\\n\\n    /**\\n     * @dev Sets `amount` as the allowance of `spender` over the caller's tokens.\\n     *\\n     * Returns a boolean value indicating whether the operation succeeded.\\n     *\\n     * IMPORTANT: Beware that changing an allowance with this method brings the risk\\n     * that someone may use both the old and the new allowance by unfortunate\\n     * transaction ordering. One possible solution to mitigate this race\\n     * condition is to first reduce the spender's allowance to 0 and set the\\n     * desired value afterwards:\\n     * https://github.com/ethereum/EIPs/issues/20#issuecomment-263524729\\n     *\\n     * Emits an {Approval} event.\\n     */\\n    function approve(address spender, uint256 amount) external returns (bool);\\n\\n    /**\\n     * @dev Moves `amount` tokens from `sender` to `recipient` using the\\n     * allowance mechanism. `amount` is then deducted from the caller's\\n     * allowance.\\n     *\\n     * Returns a boolean value indicating whether the operation succeeded.\\n     *\\n     * Emits a {Transfer} event.\\n     */\\n    function transferFrom(address sender, address recipient, uint256 amount) external returns (bool);\\n\\n    /**\\n     * @dev Emitted when `value` tokens are moved from one account (`from`) to\\n     * another (`to`).\\n     *\\n     * Note that `value` may be zero.\\n     */\\n    event Transfer(address indexed from, address indexed to, uint256 value);\\n\\n    /**\\n     * @dev Emitted when the allowance of a `spender` for an `owner` is set by\\n     * a call to {approve}. `value` is the new allowance.\\n     */\\n    event Approval(address indexed owner, address indexed spender, uint256 value);\\n}\\n\",\"keccak256\":\"0xf8e8d118a7a8b2e134181f7da655f6266aa3a0f9134b2605747139fcb0c5d835\",\"license\":\"MIT\"},\"@openzeppelin/contracts/token/ERC20/extensions/IERC20Metadata.sol\":{\"content\":\"// SPDX-License-Identifier: MIT\\n\\npragma solidity ^0.8.0;\\n\\nimport \\\"../IERC20.sol\\\";\\n\\n/**\\n * @dev Interface for the optional metadata functions from the ERC20 standard.\\n *\\n * _Available since v4.1._\\n */\\ninterface IERC20Metadata is IERC20 {\\n    /**\\n     * @dev Returns the name of the token.\\n     */\\n    function name() external view returns (string memory);\\n\\n    /**\\n     * @dev Returns the symbol of the token.\\n     */\\n    function symbol() external view returns (string memory);\\n\\n    /**\\n     * @dev Returns the decimals places of the token.\\n     */\\n    function decimals() external view returns (uint8);\\n}\\n\",\"keccak256\":\"0x83fe24f5c04a56091e50f4a345ff504c8bff658a76d4c43b16878c8f940c53b2\",\"license\":\"MIT\"},\"@openzeppelin/contracts/token/ERC20/utils/SafeERC20.sol\":{\"content\":\"// SPDX-License-Identifier: MIT\\n\\npragma solidity ^0.8.0;\\n\\nimport \\\"../IERC20.sol\\\";\\nimport \\\"../../../utils/Address.sol\\\";\\n\\n/**\\n * @title SafeERC20\\n * @dev Wrappers around ERC20 operations that throw on failure (when the token\\n * contract returns false). Tokens that return no value (and instead revert or\\n * throw on failure) are also supported, non-reverting calls are assumed to be\\n * successful.\\n * To use this library you can add a `using SafeERC20 for IERC20;` statement to your contract,\\n * which allows you to call the safe operations as `token.safeTransfer(...)`, etc.\\n */\\nlibrary SafeERC20 {\\n    using Address for address;\\n\\n    function safeTransfer(IERC20 token, address to, uint256 value) internal {\\n        _callOptionalReturn(token, abi.encodeWithSelector(token.transfer.selector, to, value));\\n    }\\n\\n    function safeTransferFrom(IERC20 token, address from, address to, uint256 value) internal {\\n        _callOptionalReturn(token, abi.encodeWithSelector(token.transferFrom.selector, from, to, value));\\n    }\\n\\n    /**\\n     * @dev Deprecated. This function has issues similar to the ones found in\\n     * {IERC20-approve}, and its usage is discouraged.\\n     *\\n     * Whenever possible, use {safeIncreaseAllowance} and\\n     * {safeDecreaseAllowance} instead.\\n     */\\n    function safeApprove(IERC20 token, address spender, uint256 value) internal {\\n        // safeApprove should only be called when setting an initial allowance,\\n        // or when resetting it to zero. To increase and decrease it, use\\n        // 'safeIncreaseAllowance' and 'safeDecreaseAllowance'\\n        // solhint-disable-next-line max-line-length\\n        require((value == 0) || (token.allowance(address(this), spender) == 0),\\n            \\\"SafeERC20: approve from non-zero to non-zero allowance\\\"\\n        );\\n        _callOptionalReturn(token, abi.encodeWithSelector(token.approve.selector, spender, value));\\n    }\\n\\n    function safeIncreaseAllowance(IERC20 token, address spender, uint256 value) internal {\\n        uint256 newAllowance = token.allowance(address(this), spender) + value;\\n        _callOptionalReturn(token, abi.encodeWithSelector(token.approve.selector, spender, newAllowance));\\n    }\\n\\n    function safeDecreaseAllowance(IERC20 token, address spender, uint256 value) internal {\\n        unchecked {\\n            uint256 oldAllowance = token.allowance(address(this), spender);\\n            require(oldAllowance >= value, \\\"SafeERC20: decreased allowance below zero\\\");\\n            uint256 newAllowance = oldAllowance - value;\\n            _callOptionalReturn(token, abi.encodeWithSelector(token.approve.selector, spender, newAllowance));\\n        }\\n    }\\n\\n    /**\\n     * @dev Imitates a Solidity high-level call (i.e. a regular function call to a contract), relaxing the requirement\\n     * on the return value: the return value is optional (but if data is returned, it must not be false).\\n     * @param token The token targeted by the call.\\n     * @param data The call data (encoded using abi.encode or one of its variants).\\n     */\\n    function _callOptionalReturn(IERC20 token, bytes memory data) private {\\n        // We need to perform a low level call here, to bypass Solidity's return data size checking mechanism, since\\n        // we're implementing it ourselves. We use {Address.functionCall} to perform this call, which verifies that\\n        // the target address contains contract code and also asserts for success in the low-level call.\\n\\n        bytes memory returndata = address(token).functionCall(data, \\\"SafeERC20: low-level call failed\\\");\\n        if (returndata.length > 0) { // Return data is optional\\n            // solhint-disable-next-line max-line-length\\n            require(abi.decode(returndata, (bool)), \\\"SafeERC20: ERC20 operation did not succeed\\\");\\n        }\\n    }\\n}\\n\",\"keccak256\":\"0x99f5c21018d796db7833a2100bb0e7411999e248a3c950fb526eee5d2bf47cb7\",\"license\":\"MIT\"},\"@openzeppelin/contracts/token/ERC721/IERC721.sol\":{\"content\":\"// SPDX-License-Identifier: MIT\\n\\npragma solidity ^0.8.0;\\n\\nimport \\\"../../utils/introspection/IERC165.sol\\\";\\n\\n/**\\n * @dev Required interface of an ERC721 compliant contract.\\n */\\ninterface IERC721 is IERC165 {\\n    /**\\n     * @dev Emitted when `tokenId` token is transferred from `from` to `to`.\\n     */\\n    event Transfer(address indexed from, address indexed to, uint256 indexed tokenId);\\n\\n    /**\\n     * @dev Emitted when `owner` enables `approved` to manage the `tokenId` token.\\n     */\\n    event Approval(address indexed owner, address indexed approved, uint256 indexed tokenId);\\n\\n    /**\\n     * @dev Emitted when `owner` enables or disables (`approved`) `operator` to manage all of its assets.\\n     */\\n    event ApprovalForAll(address indexed owner, address indexed operator, bool approved);\\n\\n    /**\\n     * @dev Returns the number of tokens in ``owner``'s account.\\n     */\\n    function balanceOf(address owner) external view returns (uint256 balance);\\n\\n    /**\\n     * @dev Returns the owner of the `tokenId` token.\\n     *\\n     * Requirements:\\n     *\\n     * - `tokenId` must exist.\\n     */\\n    function ownerOf(uint256 tokenId) external view returns (address owner);\\n\\n    /**\\n     * @dev Safely transfers `tokenId` token from `from` to `to`, checking first that contract recipients\\n     * are aware of the ERC721 protocol to prevent tokens from being forever locked.\\n     *\\n     * Requirements:\\n     *\\n     * - `from` cannot be the zero address.\\n     * - `to` cannot be the zero address.\\n     * - `tokenId` token must exist and be owned by `from`.\\n     * - If the caller is not `from`, it must be have been allowed to move this token by either {approve} or {setApprovalForAll}.\\n     * - If `to` refers to a smart contract, it must implement {IERC721Receiver-onERC721Received}, which is called upon a safe transfer.\\n     *\\n     * Emits a {Transfer} event.\\n     */\\n    function safeTransferFrom(address from, address to, uint256 tokenId) external;\\n\\n    /**\\n     * @dev Transfers `tokenId` token from `from` to `to`.\\n     *\\n     * WARNING: Usage of this method is discouraged, use {safeTransferFrom} whenever possible.\\n     *\\n     * Requirements:\\n     *\\n     * - `from` cannot be the zero address.\\n     * - `to` cannot be the zero address.\\n     * - `tokenId` token must be owned by `from`.\\n     * - If the caller is not `from`, it must be approved to move this token by either {approve} or {setApprovalForAll}.\\n     *\\n     * Emits a {Transfer} event.\\n     */\\n    function transferFrom(address from, address to, uint256 tokenId) external;\\n\\n    /**\\n     * @dev Gives permission to `to` to transfer `tokenId` token to another account.\\n     * The approval is cleared when the token is transferred.\\n     *\\n     * Only a single account can be approved at a time, so approving the zero address clears previous approvals.\\n     *\\n     * Requirements:\\n     *\\n     * - The caller must own the token or be an approved operator.\\n     * - `tokenId` must exist.\\n     *\\n     * Emits an {Approval} event.\\n     */\\n    function approve(address to, uint256 tokenId) external;\\n\\n    /**\\n     * @dev Returns the account approved for `tokenId` token.\\n     *\\n     * Requirements:\\n     *\\n     * - `tokenId` must exist.\\n     */\\n    function getApproved(uint256 tokenId) external view returns (address operator);\\n\\n    /**\\n     * @dev Approve or remove `operator` as an operator for the caller.\\n     * Operators can call {transferFrom} or {safeTransferFrom} for any token owned by the caller.\\n     *\\n     * Requirements:\\n     *\\n     * - The `operator` cannot be the caller.\\n     *\\n     * Emits an {ApprovalForAll} event.\\n     */\\n    function setApprovalForAll(address operator, bool _approved) external;\\n\\n    /**\\n     * @dev Returns if the `operator` is allowed to manage all of the assets of `owner`.\\n     *\\n     * See {setApprovalForAll}\\n     */\\n    function isApprovedForAll(address owner, address operator) external view returns (bool);\\n\\n    /**\\n      * @dev Safely transfers `tokenId` token from `from` to `to`.\\n      *\\n      * Requirements:\\n      *\\n      * - `from` cannot be the zero address.\\n      * - `to` cannot be the zero address.\\n      * - `tokenId` token must exist and be owned by `from`.\\n      * - If the caller is not `from`, it must be approved to move this token by either {approve} or {setApprovalForAll}.\\n      * - If `to` refers to a smart contract, it must implement {IERC721Receiver-onERC721Received}, which is called upon a safe transfer.\\n      *\\n      * Emits a {Transfer} event.\\n      */\\n    function safeTransferFrom(address from, address to, uint256 tokenId, bytes calldata data) external;\\n}\\n\",\"keccak256\":\"0xc1c941ad1e580b4623007305921efe2f26fc7320a4edc226234dd707c658a428\",\"license\":\"MIT\"},\"@openzeppelin/contracts/token/ERC721/extensions/IERC721Metadata.sol\":{\"content\":\"// SPDX-License-Identifier: MIT\\n\\npragma solidity ^0.8.0;\\n\\nimport \\\"../IERC721.sol\\\";\\n\\n/**\\n * @title ERC-721 Non-Fungible Token Standard, optional metadata extension\\n * @dev See https://eips.ethereum.org/EIPS/eip-721\\n */\\ninterface IERC721Metadata is IERC721 {\\n\\n    /**\\n     * @dev Returns the token collection name.\\n     */\\n    function name() external view returns (string memory);\\n\\n    /**\\n     * @dev Returns the token collection symbol.\\n     */\\n    function symbol() external view returns (string memory);\\n\\n    /**\\n     * @dev Returns the Uniform Resource Identifier (URI) for `tokenId` token.\\n     */\\n    function tokenURI(uint256 tokenId) external view returns (string memory);\\n}\\n\",\"keccak256\":\"0xb8d11e77eb1ed34a33720edb551d7d6a6b0eee2bfaa40a7024020e1fdf879b16\",\"license\":\"MIT\"},\"@openzeppelin/contracts/utils/Address.sol\":{\"content\":\"// SPDX-License-Identifier: MIT\\n\\npragma solidity ^0.8.0;\\n\\n/**\\n * @dev Collection of functions related to the address type\\n */\\nlibrary Address {\\n    /**\\n     * @dev Returns true if `account` is a contract.\\n     *\\n     * [IMPORTANT]\\n     * ====\\n     * It is unsafe to assume that an address for which this function returns\\n     * false is an externally-owned account (EOA) and not a contract.\\n     *\\n     * Among others, `isContract` will return false for the following\\n     * types of addresses:\\n     *\\n     *  - an externally-owned account\\n     *  - a contract in construction\\n     *  - an address where a contract will be created\\n     *  - an address where a contract lived, but was destroyed\\n     * ====\\n     */\\n    function isContract(address account) internal view returns (bool) {\\n        // This method relies on extcodesize, which returns 0 for contracts in\\n        // construction, since the code is only stored at the end of the\\n        // constructor execution.\\n\\n        uint256 size;\\n        // solhint-disable-next-line no-inline-assembly\\n        assembly { size := extcodesize(account) }\\n        return size > 0;\\n    }\\n\\n    /**\\n     * @dev Replacement for Solidity's `transfer`: sends `amount` wei to\\n     * `recipient`, forwarding all available gas and reverting on errors.\\n     *\\n     * https://eips.ethereum.org/EIPS/eip-1884[EIP1884] increases the gas cost\\n     * of certain opcodes, possibly making contracts go over the 2300 gas limit\\n     * imposed by `transfer`, making them unable to receive funds via\\n     * `transfer`. {sendValue} removes this limitation.\\n     *\\n     * https://diligence.consensys.net/posts/2019/09/stop-using-soliditys-transfer-now/[Learn more].\\n     *\\n     * IMPORTANT: because control is transferred to `recipient`, care must be\\n     * taken to not create reentrancy vulnerabilities. Consider using\\n     * {ReentrancyGuard} or the\\n     * https://solidity.readthedocs.io/en/v0.5.11/security-considerations.html#use-the-checks-effects-interactions-pattern[checks-effects-interactions pattern].\\n     */\\n    function sendValue(address payable recipient, uint256 amount) internal {\\n        require(address(this).balance >= amount, \\\"Address: insufficient balance\\\");\\n\\n        // solhint-disable-next-line avoid-low-level-calls, avoid-call-value\\n        (bool success, ) = recipient.call{ value: amount }(\\\"\\\");\\n        require(success, \\\"Address: unable to send value, recipient may have reverted\\\");\\n    }\\n\\n    /**\\n     * @dev Performs a Solidity function call using a low level `call`. A\\n     * plain`call` is an unsafe replacement for a function call: use this\\n     * function instead.\\n     *\\n     * If `target` reverts with a revert reason, it is bubbled up by this\\n     * function (like regular Solidity function calls).\\n     *\\n     * Returns the raw returned data. To convert to the expected return value,\\n     * use https://solidity.readthedocs.io/en/latest/units-and-global-variables.html?highlight=abi.decode#abi-encoding-and-decoding-functions[`abi.decode`].\\n     *\\n     * Requirements:\\n     *\\n     * - `target` must be a contract.\\n     * - calling `target` with `data` must not revert.\\n     *\\n     * _Available since v3.1._\\n     */\\n    function functionCall(address target, bytes memory data) internal returns (bytes memory) {\\n      return functionCall(target, data, \\\"Address: low-level call failed\\\");\\n    }\\n\\n    /**\\n     * @dev Same as {xref-Address-functionCall-address-bytes-}[`functionCall`], but with\\n     * `errorMessage` as a fallback revert reason when `target` reverts.\\n     *\\n     * _Available since v3.1._\\n     */\\n    function functionCall(address target, bytes memory data, string memory errorMessage) internal returns (bytes memory) {\\n        return functionCallWithValue(target, data, 0, errorMessage);\\n    }\\n\\n    /**\\n     * @dev Same as {xref-Address-functionCall-address-bytes-}[`functionCall`],\\n     * but also transferring `value` wei to `target`.\\n     *\\n     * Requirements:\\n     *\\n     * - the calling contract must have an ETH balance of at least `value`.\\n     * - the called Solidity function must be `payable`.\\n     *\\n     * _Available since v3.1._\\n     */\\n    function functionCallWithValue(address target, bytes memory data, uint256 value) internal returns (bytes memory) {\\n        return functionCallWithValue(target, data, value, \\\"Address: low-level call with value failed\\\");\\n    }\\n\\n    /**\\n     * @dev Same as {xref-Address-functionCallWithValue-address-bytes-uint256-}[`functionCallWithValue`], but\\n     * with `errorMessage` as a fallback revert reason when `target` reverts.\\n     *\\n     * _Available since v3.1._\\n     */\\n    function functionCallWithValue(address target, bytes memory data, uint256 value, string memory errorMessage) internal returns (bytes memory) {\\n        require(address(this).balance >= value, \\\"Address: insufficient balance for call\\\");\\n        require(isContract(target), \\\"Address: call to non-contract\\\");\\n\\n        // solhint-disable-next-line avoid-low-level-calls\\n        (bool success, bytes memory returndata) = target.call{ value: value }(data);\\n        return _verifyCallResult(success, returndata, errorMessage);\\n    }\\n\\n    /**\\n     * @dev Same as {xref-Address-functionCall-address-bytes-}[`functionCall`],\\n     * but performing a static call.\\n     *\\n     * _Available since v3.3._\\n     */\\n    function functionStaticCall(address target, bytes memory data) internal view returns (bytes memory) {\\n        return functionStaticCall(target, data, \\\"Address: low-level static call failed\\\");\\n    }\\n\\n    /**\\n     * @dev Same as {xref-Address-functionCall-address-bytes-string-}[`functionCall`],\\n     * but performing a static call.\\n     *\\n     * _Available since v3.3._\\n     */\\n    function functionStaticCall(address target, bytes memory data, string memory errorMessage) internal view returns (bytes memory) {\\n        require(isContract(target), \\\"Address: static call to non-contract\\\");\\n\\n        // solhint-disable-next-line avoid-low-level-calls\\n        (bool success, bytes memory returndata) = target.staticcall(data);\\n        return _verifyCallResult(success, returndata, errorMessage);\\n    }\\n\\n    /**\\n     * @dev Same as {xref-Address-functionCall-address-bytes-}[`functionCall`],\\n     * but performing a delegate call.\\n     *\\n     * _Available since v3.4._\\n     */\\n    function functionDelegateCall(address target, bytes memory data) internal returns (bytes memory) {\\n        return functionDelegateCall(target, data, \\\"Address: low-level delegate call failed\\\");\\n    }\\n\\n    /**\\n     * @dev Same as {xref-Address-functionCall-address-bytes-string-}[`functionCall`],\\n     * but performing a delegate call.\\n     *\\n     * _Available since v3.4._\\n     */\\n    function functionDelegateCall(address target, bytes memory data, string memory errorMessage) internal returns (bytes memory) {\\n        require(isContract(target), \\\"Address: delegate call to non-contract\\\");\\n\\n        // solhint-disable-next-line avoid-low-level-calls\\n        (bool success, bytes memory returndata) = target.delegatecall(data);\\n        return _verifyCallResult(success, returndata, errorMessage);\\n    }\\n\\n    function _verifyCallResult(bool success, bytes memory returndata, string memory errorMessage) private pure returns(bytes memory) {\\n        if (success) {\\n            return returndata;\\n        } else {\\n            // Look for revert reason and bubble it up if present\\n            if (returndata.length > 0) {\\n                // The easiest way to bubble the revert reason is using memory via assembly\\n\\n                // solhint-disable-next-line no-inline-assembly\\n                assembly {\\n                    let returndata_size := mload(returndata)\\n                    revert(add(32, returndata), returndata_size)\\n                }\\n            } else {\\n                revert(errorMessage);\\n            }\\n        }\\n    }\\n}\\n\",\"keccak256\":\"0x069b2631bb5b5193a58ccf7a06266c7361bd2c20095667af4402817605627f45\",\"license\":\"MIT\"},\"@openzeppelin/contracts/utils/Context.sol\":{\"content\":\"// SPDX-License-Identifier: MIT\\n\\npragma solidity ^0.8.0;\\n\\n/*\\n * @dev Provides information about the current execution context, including the\\n * sender of the transaction and its data. While these are generally available\\n * via msg.sender and msg.data, they should not be accessed in such a direct\\n * manner, since when dealing with meta-transactions the account sending and\\n * paying for execution may not be the actual sender (as far as an application\\n * is concerned).\\n *\\n * This contract is only required for intermediate, library-like contracts.\\n */\\nabstract contract Context {\\n    function _msgSender() internal view virtual returns (address) {\\n        return msg.sender;\\n    }\\n\\n    function _msgData() internal view virtual returns (bytes calldata) {\\n        this; // silence state mutability warning without generating bytecode - see https://github.com/ethereum/solidity/issues/2691\\n        return msg.data;\\n    }\\n}\\n\",\"keccak256\":\"0xf930d2df426bfcfc1f7415be724f04081c96f4fb9ec8d0e3a521c07692dface0\",\"license\":\"MIT\"},\"@openzeppelin/contracts/utils/Counters.sol\":{\"content\":\"// SPDX-License-Identifier: MIT\\n\\npragma solidity ^0.8.0;\\n\\n/**\\n * @title Counters\\n * @author Matt Condon (@shrugs)\\n * @dev Provides counters that can only be incremented or decremented by one. This can be used e.g. to track the number\\n * of elements in a mapping, issuing ERC721 ids, or counting request ids.\\n *\\n * Include with `using Counters for Counters.Counter;`\\n */\\nlibrary Counters {\\n    struct Counter {\\n        // This variable should never be directly accessed by users of the library: interactions must be restricted to\\n        // the library's function. As of Solidity v0.5.2, this cannot be enforced, though there is a proposal to add\\n        // this feature: see https://github.com/ethereum/solidity/issues/4637\\n        uint256 _value; // default: 0\\n    }\\n\\n    function current(Counter storage counter) internal view returns (uint256) {\\n        return counter._value;\\n    }\\n\\n    function increment(Counter storage counter) internal {\\n        unchecked {\\n            counter._value += 1;\\n        }\\n    }\\n\\n    function decrement(Counter storage counter) internal {\\n        uint256 value = counter._value;\\n        require(value > 0, \\\"Counter: decrement overflow\\\");\\n        unchecked {\\n            counter._value = value - 1;\\n        }\\n    }\\n}\\n\",\"keccak256\":\"0x62d306ff0499a11913bc60b5939eec619509b5c67b30e86ebf8b8bda0b7a7fee\",\"license\":\"MIT\"},\"@openzeppelin/contracts/utils/cryptography/MerkleProof.sol\":{\"content\":\"// SPDX-License-Identifier: MIT\\n\\npragma solidity ^0.8.0;\\n\\n/**\\n * @dev These functions deal with verification of Merkle Trees proofs.\\n *\\n * The proofs can be generated using the JavaScript library\\n * https://github.com/miguelmota/merkletreejs[merkletreejs].\\n * Note: the hashing algorithm should be keccak256 and pair sorting should be enabled.\\n *\\n * See `test/utils/cryptography/MerkleProof.test.js` for some examples.\\n */\\nlibrary MerkleProof {\\n    /**\\n     * @dev Returns true if a `leaf` can be proved to be a part of a Merkle tree\\n     * defined by `root`. For this, a `proof` must be provided, containing\\n     * sibling hashes on the branch from the leaf to the root of the tree. Each\\n     * pair of leaves and each pair of pre-images are assumed to be sorted.\\n     */\\n    function verify(bytes32[] memory proof, bytes32 root, bytes32 leaf) internal pure returns (bool) {\\n        bytes32 computedHash = leaf;\\n\\n        for (uint256 i = 0; i < proof.length; i++) {\\n            bytes32 proofElement = proof[i];\\n\\n            if (computedHash <= proofElement) {\\n                // Hash(current computed hash + current element of the proof)\\n                computedHash = keccak256(abi.encodePacked(computedHash, proofElement));\\n            } else {\\n                // Hash(current element of the proof + current computed hash)\\n                computedHash = keccak256(abi.encodePacked(proofElement, computedHash));\\n            }\\n        }\\n\\n        // Check if the computed hash (root) is equal to the provided root\\n        return computedHash == root;\\n    }\\n}\\n\",\"keccak256\":\"0xeee34bfb413657b6cd6c8e1e15c2080ba5ebaac479578515922804346fb63f7c\",\"license\":\"MIT\"},\"@openzeppelin/contracts/utils/introspection/IERC165.sol\":{\"content\":\"// SPDX-License-Identifier: MIT\\n\\npragma solidity ^0.8.0;\\n\\n/**\\n * @dev Interface of the ERC165 standard, as defined in the\\n * https://eips.ethereum.org/EIPS/eip-165[EIP].\\n *\\n * Implementers can declare support of contract interfaces, which can then be\\n * queried by others ({ERC165Checker}).\\n *\\n * For an implementation, see {ERC165}.\\n */\\ninterface IERC165 {\\n    /**\\n     * @dev Returns true if this contract implements the interface defined by\\n     * `interfaceId`. See the corresponding\\n     * https://eips.ethereum.org/EIPS/eip-165#how-interfaces-are-identified[EIP section]\\n     * to learn more about how these ids are created.\\n     *\\n     * This function call must use less than 30 000 gas.\\n     */\\n    function supportsInterface(bytes4 interfaceId) external view returns (bool);\\n}\\n\",\"keccak256\":\"0xa28007762d9da9db878dd421960c8cb9a10471f47ab5c1b3309bfe48e9e79ff4\",\"license\":\"MIT\"},\"@openzeppelin/contracts/utils/math/SafeCast.sol\":{\"content\":\"// SPDX-License-Identifier: MIT\\n\\npragma solidity ^0.8.0;\\n\\n/**\\n * @dev Wrappers over Solidity's uintXX/intXX casting operators with added overflow\\n * checks.\\n *\\n * Downcasting from uint256/int256 in Solidity does not revert on overflow. This can\\n * easily result in undesired exploitation or bugs, since developers usually\\n * assume that overflows raise errors. `SafeCast` restores this intuition by\\n * reverting the transaction when such an operation overflows.\\n *\\n * Using this library instead of the unchecked operations eliminates an entire\\n * class of bugs, so it's recommended to use it always.\\n *\\n * Can be combined with {SafeMath} and {SignedSafeMath} to extend it to smaller types, by performing\\n * all math on `uint256` and `int256` and then downcasting.\\n */\\nlibrary SafeCast {\\n    /**\\n     * @dev Returns the downcasted uint128 from uint256, reverting on\\n     * overflow (when the input is greater than largest uint128).\\n     *\\n     * Counterpart to Solidity's `uint128` operator.\\n     *\\n     * Requirements:\\n     *\\n     * - input must fit into 128 bits\\n     */\\n    function toUint128(uint256 value) internal pure returns (uint128) {\\n        require(value < 2**128, \\\"SafeCast: value doesn\\\\'t fit in 128 bits\\\");\\n        return uint128(value);\\n    }\\n\\n    /**\\n     * @dev Returns the downcasted uint64 from uint256, reverting on\\n     * overflow (when the input is greater than largest uint64).\\n     *\\n     * Counterpart to Solidity's `uint64` operator.\\n     *\\n     * Requirements:\\n     *\\n     * - input must fit into 64 bits\\n     */\\n    function toUint64(uint256 value) internal pure returns (uint64) {\\n        require(value < 2**64, \\\"SafeCast: value doesn\\\\'t fit in 64 bits\\\");\\n        return uint64(value);\\n    }\\n\\n    /**\\n     * @dev Returns the downcasted uint32 from uint256, reverting on\\n     * overflow (when the input is greater than largest uint32).\\n     *\\n     * Counterpart to Solidity's `uint32` operator.\\n     *\\n     * Requirements:\\n     *\\n     * - input must fit into 32 bits\\n     */\\n    function toUint32(uint256 value) internal pure returns (uint32) {\\n        require(value < 2**32, \\\"SafeCast: value doesn\\\\'t fit in 32 bits\\\");\\n        return uint32(value);\\n    }\\n\\n    /**\\n     * @dev Returns the downcasted uint16 from uint256, reverting on\\n     * overflow (when the input is greater than largest uint16).\\n     *\\n     * Counterpart to Solidity's `uint16` operator.\\n     *\\n     * Requirements:\\n     *\\n     * - input must fit into 16 bits\\n     */\\n    function toUint16(uint256 value) internal pure returns (uint16) {\\n        require(value < 2**16, \\\"SafeCast: value doesn\\\\'t fit in 16 bits\\\");\\n        return uint16(value);\\n    }\\n\\n    /**\\n     * @dev Returns the downcasted uint8 from uint256, reverting on\\n     * overflow (when the input is greater than largest uint8).\\n     *\\n     * Counterpart to Solidity's `uint8` operator.\\n     *\\n     * Requirements:\\n     *\\n     * - input must fit into 8 bits.\\n     */\\n    function toUint8(uint256 value) internal pure returns (uint8) {\\n        require(value < 2**8, \\\"SafeCast: value doesn\\\\'t fit in 8 bits\\\");\\n        return uint8(value);\\n    }\\n\\n    /**\\n     * @dev Converts a signed int256 into an unsigned uint256.\\n     *\\n     * Requirements:\\n     *\\n     * - input must be greater than or equal to 0.\\n     */\\n    function toUint256(int256 value) internal pure returns (uint256) {\\n        require(value >= 0, \\\"SafeCast: value must be positive\\\");\\n        return uint256(value);\\n    }\\n\\n    /**\\n     * @dev Returns the downcasted int128 from int256, reverting on\\n     * overflow (when the input is less than smallest int128 or\\n     * greater than largest int128).\\n     *\\n     * Counterpart to Solidity's `int128` operator.\\n     *\\n     * Requirements:\\n     *\\n     * - input must fit into 128 bits\\n     *\\n     * _Available since v3.1._\\n     */\\n    function toInt128(int256 value) internal pure returns (int128) {\\n        require(value >= -2**127 && value < 2**127, \\\"SafeCast: value doesn\\\\'t fit in 128 bits\\\");\\n        return int128(value);\\n    }\\n\\n    /**\\n     * @dev Returns the downcasted int64 from int256, reverting on\\n     * overflow (when the input is less than smallest int64 or\\n     * greater than largest int64).\\n     *\\n     * Counterpart to Solidity's `int64` operator.\\n     *\\n     * Requirements:\\n     *\\n     * - input must fit into 64 bits\\n     *\\n     * _Available since v3.1._\\n     */\\n    function toInt64(int256 value) internal pure returns (int64) {\\n        require(value >= -2**63 && value < 2**63, \\\"SafeCast: value doesn\\\\'t fit in 64 bits\\\");\\n        return int64(value);\\n    }\\n\\n    /**\\n     * @dev Returns the downcasted int32 from int256, reverting on\\n     * overflow (when the input is less than smallest int32 or\\n     * greater than largest int32).\\n     *\\n     * Counterpart to Solidity's `int32` operator.\\n     *\\n     * Requirements:\\n     *\\n     * - input must fit into 32 bits\\n     *\\n     * _Available since v3.1._\\n     */\\n    function toInt32(int256 value) internal pure returns (int32) {\\n        require(value >= -2**31 && value < 2**31, \\\"SafeCast: value doesn\\\\'t fit in 32 bits\\\");\\n        return int32(value);\\n    }\\n\\n    /**\\n     * @dev Returns the downcasted int16 from int256, reverting on\\n     * overflow (when the input is less than smallest int16 or\\n     * greater than largest int16).\\n     *\\n     * Counterpart to Solidity's `int16` operator.\\n     *\\n     * Requirements:\\n     *\\n     * - input must fit into 16 bits\\n     *\\n     * _Available since v3.1._\\n     */\\n    function toInt16(int256 value) internal pure returns (int16) {\\n        require(value >= -2**15 && value < 2**15, \\\"SafeCast: value doesn\\\\'t fit in 16 bits\\\");\\n        return int16(value);\\n    }\\n\\n    /**\\n     * @dev Returns the downcasted int8 from int256, reverting on\\n     * overflow (when the input is less than smallest int8 or\\n     * greater than largest int8).\\n     *\\n     * Counterpart to Solidity's `int8` operator.\\n     *\\n     * Requirements:\\n     *\\n     * - input must fit into 8 bits.\\n     *\\n     * _Available since v3.1._\\n     */\\n    function toInt8(int256 value) internal pure returns (int8) {\\n        require(value >= -2**7 && value < 2**7, \\\"SafeCast: value doesn\\\\'t fit in 8 bits\\\");\\n        return int8(value);\\n    }\\n\\n    /**\\n     * @dev Converts an unsigned uint256 into a signed int256.\\n     *\\n     * Requirements:\\n     *\\n     * - input must be less than or equal to maxInt256.\\n     */\\n    function toInt256(uint256 value) internal pure returns (int256) {\\n        require(value < 2**255, \\\"SafeCast: value doesn't fit in an int256\\\");\\n        return int256(value);\\n    }\\n}\\n\",\"keccak256\":\"0xc37d85b96c2a8d7bc09f25958e0a81394bf5780286444147ddf875fa628d53ce\",\"license\":\"MIT\"},\"@openzeppelin/contracts/utils/math/SafeMath.sol\":{\"content\":\"// SPDX-License-Identifier: MIT\\n\\npragma solidity ^0.8.0;\\n\\n// CAUTION\\n// This version of SafeMath should only be used with Solidity 0.8 or later,\\n// because it relies on the compiler's built in overflow checks.\\n\\n/**\\n * @dev Wrappers over Solidity's arithmetic operations.\\n *\\n * NOTE: `SafeMath` is no longer needed starting with Solidity 0.8. The compiler\\n * now has built in overflow checking.\\n */\\nlibrary SafeMath {\\n    /**\\n     * @dev Returns the addition of two unsigned integers, with an overflow flag.\\n     *\\n     * _Available since v3.4._\\n     */\\n    function tryAdd(uint256 a, uint256 b) internal pure returns (bool, uint256) {\\n        unchecked {\\n            uint256 c = a + b;\\n            if (c < a) return (false, 0);\\n            return (true, c);\\n        }\\n    }\\n\\n    /**\\n     * @dev Returns the substraction of two unsigned integers, with an overflow flag.\\n     *\\n     * _Available since v3.4._\\n     */\\n    function trySub(uint256 a, uint256 b) internal pure returns (bool, uint256) {\\n        unchecked {\\n            if (b > a) return (false, 0);\\n            return (true, a - b);\\n        }\\n    }\\n\\n    /**\\n     * @dev Returns the multiplication of two unsigned integers, with an overflow flag.\\n     *\\n     * _Available since v3.4._\\n     */\\n    function tryMul(uint256 a, uint256 b) internal pure returns (bool, uint256) {\\n        unchecked {\\n            // Gas optimization: this is cheaper than requiring 'a' not being zero, but the\\n            // benefit is lost if 'b' is also tested.\\n            // See: https://github.com/OpenZeppelin/openzeppelin-contracts/pull/522\\n            if (a == 0) return (true, 0);\\n            uint256 c = a * b;\\n            if (c / a != b) return (false, 0);\\n            return (true, c);\\n        }\\n    }\\n\\n    /**\\n     * @dev Returns the division of two unsigned integers, with a division by zero flag.\\n     *\\n     * _Available since v3.4._\\n     */\\n    function tryDiv(uint256 a, uint256 b) internal pure returns (bool, uint256) {\\n        unchecked {\\n            if (b == 0) return (false, 0);\\n            return (true, a / b);\\n        }\\n    }\\n\\n    /**\\n     * @dev Returns the remainder of dividing two unsigned integers, with a division by zero flag.\\n     *\\n     * _Available since v3.4._\\n     */\\n    function tryMod(uint256 a, uint256 b) internal pure returns (bool, uint256) {\\n        unchecked {\\n            if (b == 0) return (false, 0);\\n            return (true, a % b);\\n        }\\n    }\\n\\n    /**\\n     * @dev Returns the addition of two unsigned integers, reverting on\\n     * overflow.\\n     *\\n     * Counterpart to Solidity's `+` operator.\\n     *\\n     * Requirements:\\n     *\\n     * - Addition cannot overflow.\\n     */\\n    function add(uint256 a, uint256 b) internal pure returns (uint256) {\\n        return a + b;\\n    }\\n\\n    /**\\n     * @dev Returns the subtraction of two unsigned integers, reverting on\\n     * overflow (when the result is negative).\\n     *\\n     * Counterpart to Solidity's `-` operator.\\n     *\\n     * Requirements:\\n     *\\n     * - Subtraction cannot overflow.\\n     */\\n    function sub(uint256 a, uint256 b) internal pure returns (uint256) {\\n        return a - b;\\n    }\\n\\n    /**\\n     * @dev Returns the multiplication of two unsigned integers, reverting on\\n     * overflow.\\n     *\\n     * Counterpart to Solidity's `*` operator.\\n     *\\n     * Requirements:\\n     *\\n     * - Multiplication cannot overflow.\\n     */\\n    function mul(uint256 a, uint256 b) internal pure returns (uint256) {\\n        return a * b;\\n    }\\n\\n    /**\\n     * @dev Returns the integer division of two unsigned integers, reverting on\\n     * division by zero. The result is rounded towards zero.\\n     *\\n     * Counterpart to Solidity's `/` operator.\\n     *\\n     * Requirements:\\n     *\\n     * - The divisor cannot be zero.\\n     */\\n    function div(uint256 a, uint256 b) internal pure returns (uint256) {\\n        return a / b;\\n    }\\n\\n    /**\\n     * @dev Returns the remainder of dividing two unsigned integers. (unsigned integer modulo),\\n     * reverting when dividing by zero.\\n     *\\n     * Counterpart to Solidity's `%` operator. This function uses a `revert`\\n     * opcode (which leaves remaining gas untouched) while Solidity uses an\\n     * invalid opcode to revert (consuming all remaining gas).\\n     *\\n     * Requirements:\\n     *\\n     * - The divisor cannot be zero.\\n     */\\n    function mod(uint256 a, uint256 b) internal pure returns (uint256) {\\n        return a % b;\\n    }\\n\\n    /**\\n     * @dev Returns the subtraction of two unsigned integers, reverting with custom message on\\n     * overflow (when the result is negative).\\n     *\\n     * CAUTION: This function is deprecated because it requires allocating memory for the error\\n     * message unnecessarily. For custom revert reasons use {trySub}.\\n     *\\n     * Counterpart to Solidity's `-` operator.\\n     *\\n     * Requirements:\\n     *\\n     * - Subtraction cannot overflow.\\n     */\\n    function sub(uint256 a, uint256 b, string memory errorMessage) internal pure returns (uint256) {\\n        unchecked {\\n            require(b <= a, errorMessage);\\n            return a - b;\\n        }\\n    }\\n\\n    /**\\n     * @dev Returns the integer division of two unsigned integers, reverting with custom message on\\n     * division by zero. The result is rounded towards zero.\\n     *\\n     * Counterpart to Solidity's `%` operator. This function uses a `revert`\\n     * opcode (which leaves remaining gas untouched) while Solidity uses an\\n     * invalid opcode to revert (consuming all remaining gas).\\n     *\\n     * Counterpart to Solidity's `/` operator. Note: this function uses a\\n     * `revert` opcode (which leaves remaining gas untouched) while Solidity\\n     * uses an invalid opcode to revert (consuming all remaining gas).\\n     *\\n     * Requirements:\\n     *\\n     * - The divisor cannot be zero.\\n     */\\n    function div(uint256 a, uint256 b, string memory errorMessage) internal pure returns (uint256) {\\n        unchecked {\\n            require(b > 0, errorMessage);\\n            return a / b;\\n        }\\n    }\\n\\n    /**\\n     * @dev Returns the remainder of dividing two unsigned integers. (unsigned integer modulo),\\n     * reverting with custom message when dividing by zero.\\n     *\\n     * CAUTION: This function is deprecated because it requires allocating memory for the error\\n     * message unnecessarily. For custom revert reasons use {tryMod}.\\n     *\\n     * Counterpart to Solidity's `%` operator. This function uses a `revert`\\n     * opcode (which leaves remaining gas untouched) while Solidity uses an\\n     * invalid opcode to revert (consuming all remaining gas).\\n     *\\n     * Requirements:\\n     *\\n     * - The divisor cannot be zero.\\n     */\\n    function mod(uint256 a, uint256 b, string memory errorMessage) internal pure returns (uint256) {\\n        unchecked {\\n            require(b > 0, errorMessage);\\n            return a % b;\\n        }\\n    }\\n}\\n\",\"keccak256\":\"0x2526b7c6a366fc211bbc176078ab02b83833e7682abcc5b3bed9d700b34e2a3e\",\"license\":\"MIT\"},\"@openzeppelin/contracts/utils/structs/EnumerableSet.sol\":{\"content\":\"// SPDX-License-Identifier: MIT\\n\\npragma solidity ^0.8.0;\\n\\n/**\\n * @dev Library for managing\\n * https://en.wikipedia.org/wiki/Set_(abstract_data_type)[sets] of primitive\\n * types.\\n *\\n * Sets have the following properties:\\n *\\n * - Elements are added, removed, and checked for existence in constant time\\n * (O(1)).\\n * - Elements are enumerated in O(n). No guarantees are made on the ordering.\\n *\\n * ```\\n * contract Example {\\n *     // Add the library methods\\n *     using EnumerableSet for EnumerableSet.AddressSet;\\n *\\n *     // Declare a set state variable\\n *     EnumerableSet.AddressSet private mySet;\\n * }\\n * ```\\n *\\n * As of v3.3.0, sets of type `bytes32` (`Bytes32Set`), `address` (`AddressSet`)\\n * and `uint256` (`UintSet`) are supported.\\n */\\nlibrary EnumerableSet {\\n    // To implement this library for multiple types with as little code\\n    // repetition as possible, we write it in terms of a generic Set type with\\n    // bytes32 values.\\n    // The Set implementation uses private functions, and user-facing\\n    // implementations (such as AddressSet) are just wrappers around the\\n    // underlying Set.\\n    // This means that we can only create new EnumerableSets for types that fit\\n    // in bytes32.\\n\\n    struct Set {\\n        // Storage of set values\\n        bytes32[] _values;\\n\\n        // Position of the value in the `values` array, plus 1 because index 0\\n        // means a value is not in the set.\\n        mapping (bytes32 => uint256) _indexes;\\n    }\\n\\n    /**\\n     * @dev Add a value to a set. O(1).\\n     *\\n     * Returns true if the value was added to the set, that is if it was not\\n     * already present.\\n     */\\n    function _add(Set storage set, bytes32 value) private returns (bool) {\\n        if (!_contains(set, value)) {\\n            set._values.push(value);\\n            // The value is stored at length-1, but we add 1 to all indexes\\n            // and use 0 as a sentinel value\\n            set._indexes[value] = set._values.length;\\n            return true;\\n        } else {\\n            return false;\\n        }\\n    }\\n\\n    /**\\n     * @dev Removes a value from a set. O(1).\\n     *\\n     * Returns true if the value was removed from the set, that is if it was\\n     * present.\\n     */\\n    function _remove(Set storage set, bytes32 value) private returns (bool) {\\n        // We read and store the value's index to prevent multiple reads from the same storage slot\\n        uint256 valueIndex = set._indexes[value];\\n\\n        if (valueIndex != 0) { // Equivalent to contains(set, value)\\n            // To delete an element from the _values array in O(1), we swap the element to delete with the last one in\\n            // the array, and then remove the last element (sometimes called as 'swap and pop').\\n            // This modifies the order of the array, as noted in {at}.\\n\\n            uint256 toDeleteIndex = valueIndex - 1;\\n            uint256 lastIndex = set._values.length - 1;\\n\\n            // When the value to delete is the last one, the swap operation is unnecessary. However, since this occurs\\n            // so rarely, we still do the swap anyway to avoid the gas cost of adding an 'if' statement.\\n\\n            bytes32 lastvalue = set._values[lastIndex];\\n\\n            // Move the last value to the index where the value to delete is\\n            set._values[toDeleteIndex] = lastvalue;\\n            // Update the index for the moved value\\n            set._indexes[lastvalue] = valueIndex; // Replace lastvalue's index to valueIndex\\n\\n            // Delete the slot where the moved value was stored\\n            set._values.pop();\\n\\n            // Delete the index for the deleted slot\\n            delete set._indexes[value];\\n\\n            return true;\\n        } else {\\n            return false;\\n        }\\n    }\\n\\n    /**\\n     * @dev Returns true if the value is in the set. O(1).\\n     */\\n    function _contains(Set storage set, bytes32 value) private view returns (bool) {\\n        return set._indexes[value] != 0;\\n    }\\n\\n    /**\\n     * @dev Returns the number of values on the set. O(1).\\n     */\\n    function _length(Set storage set) private view returns (uint256) {\\n        return set._values.length;\\n    }\\n\\n   /**\\n    * @dev Returns the value stored at position `index` in the set. O(1).\\n    *\\n    * Note that there are no guarantees on the ordering of values inside the\\n    * array, and it may change when more values are added or removed.\\n    *\\n    * Requirements:\\n    *\\n    * - `index` must be strictly less than {length}.\\n    */\\n    function _at(Set storage set, uint256 index) private view returns (bytes32) {\\n        require(set._values.length > index, \\\"EnumerableSet: index out of bounds\\\");\\n        return set._values[index];\\n    }\\n\\n    // Bytes32Set\\n\\n    struct Bytes32Set {\\n        Set _inner;\\n    }\\n\\n    /**\\n     * @dev Add a value to a set. O(1).\\n     *\\n     * Returns true if the value was added to the set, that is if it was not\\n     * already present.\\n     */\\n    function add(Bytes32Set storage set, bytes32 value) internal returns (bool) {\\n        return _add(set._inner, value);\\n    }\\n\\n    /**\\n     * @dev Removes a value from a set. O(1).\\n     *\\n     * Returns true if the value was removed from the set, that is if it was\\n     * present.\\n     */\\n    function remove(Bytes32Set storage set, bytes32 value) internal returns (bool) {\\n        return _remove(set._inner, value);\\n    }\\n\\n    /**\\n     * @dev Returns true if the value is in the set. O(1).\\n     */\\n    function contains(Bytes32Set storage set, bytes32 value) internal view returns (bool) {\\n        return _contains(set._inner, value);\\n    }\\n\\n    /**\\n     * @dev Returns the number of values in the set. O(1).\\n     */\\n    function length(Bytes32Set storage set) internal view returns (uint256) {\\n        return _length(set._inner);\\n    }\\n\\n   /**\\n    * @dev Returns the value stored at position `index` in the set. O(1).\\n    *\\n    * Note that there are no guarantees on the ordering of values inside the\\n    * array, and it may change when more values are added or removed.\\n    *\\n    * Requirements:\\n    *\\n    * - `index` must be strictly less than {length}.\\n    */\\n    function at(Bytes32Set storage set, uint256 index) internal view returns (bytes32) {\\n        return _at(set._inner, index);\\n    }\\n\\n    // AddressSet\\n\\n    struct AddressSet {\\n        Set _inner;\\n    }\\n\\n    /**\\n     * @dev Add a value to a set. O(1).\\n     *\\n     * Returns true if the value was added to the set, that is if it was not\\n     * already present.\\n     */\\n    function add(AddressSet storage set, address value) internal returns (bool) {\\n        return _add(set._inner, bytes32(uint256(uint160(value))));\\n    }\\n\\n    /**\\n     * @dev Removes a value from a set. O(1).\\n     *\\n     * Returns true if the value was removed from the set, that is if it was\\n     * present.\\n     */\\n    function remove(AddressSet storage set, address value) internal returns (bool) {\\n        return _remove(set._inner, bytes32(uint256(uint160(value))));\\n    }\\n\\n    /**\\n     * @dev Returns true if the value is in the set. O(1).\\n     */\\n    function contains(AddressSet storage set, address value) internal view returns (bool) {\\n        return _contains(set._inner, bytes32(uint256(uint160(value))));\\n    }\\n\\n    /**\\n     * @dev Returns the number of values in the set. O(1).\\n     */\\n    function length(AddressSet storage set) internal view returns (uint256) {\\n        return _length(set._inner);\\n    }\\n\\n   /**\\n    * @dev Returns the value stored at position `index` in the set. O(1).\\n    *\\n    * Note that there are no guarantees on the ordering of values inside the\\n    * array, and it may change when more values are added or removed.\\n    *\\n    * Requirements:\\n    *\\n    * - `index` must be strictly less than {length}.\\n    */\\n    function at(AddressSet storage set, uint256 index) internal view returns (address) {\\n        return address(uint160(uint256(_at(set._inner, index))));\\n    }\\n\\n\\n    // UintSet\\n\\n    struct UintSet {\\n        Set _inner;\\n    }\\n\\n    /**\\n     * @dev Add a value to a set. O(1).\\n     *\\n     * Returns true if the value was added to the set, that is if it was not\\n     * already present.\\n     */\\n    function add(UintSet storage set, uint256 value) internal returns (bool) {\\n        return _add(set._inner, bytes32(value));\\n    }\\n\\n    /**\\n     * @dev Removes a value from a set. O(1).\\n     *\\n     * Returns true if the value was removed from the set, that is if it was\\n     * present.\\n     */\\n    function remove(UintSet storage set, uint256 value) internal returns (bool) {\\n        return _remove(set._inner, bytes32(value));\\n    }\\n\\n    /**\\n     * @dev Returns true if the value is in the set. O(1).\\n     */\\n    function contains(UintSet storage set, uint256 value) internal view returns (bool) {\\n        return _contains(set._inner, bytes32(value));\\n    }\\n\\n    /**\\n     * @dev Returns the number of values on the set. O(1).\\n     */\\n    function length(UintSet storage set) internal view returns (uint256) {\\n        return _length(set._inner);\\n    }\\n\\n   /**\\n    * @dev Returns the value stored at position `index` in the set. O(1).\\n    *\\n    * Note that there are no guarantees on the ordering of values inside the\\n    * array, and it may change when more values are added or removed.\\n    *\\n    * Requirements:\\n    *\\n    * - `index` must be strictly less than {length}.\\n    */\\n    function at(UintSet storage set, uint256 index) internal view returns (uint256) {\\n        return uint256(_at(set._inner, index));\\n    }\\n}\\n\",\"keccak256\":\"0x4878ef6c288f4cef3c2a288d32cc548c648831cc55503ad3d9a581ed3b93aad9\",\"license\":\"MIT\"},\"contracts/contexts2/access-control/reentry/ReentryMods.sol\":{\"content\":\"// SPDX-License-Identifier: MIT\\npragma solidity ^0.8.0;\\n\\nimport { AccessControlStorageLib, AccessControlStorage } from \\\"../storage.sol\\\";\\n\\nabstract contract ReentryMods {\\n    modifier nonReentry(bytes32 id) {\\n        AccessControlStorage storage s = AccessControlStorageLib.store();\\n        require(!s.entered[id], \\\"AccessControl: reentered\\\");\\n        s.entered[id] = true;\\n        _;\\n        s.entered[id] = false;\\n    }\\n}\\n\",\"keccak256\":\"0x033c1164af25ef7d35a38a60973bf379b1cc603596914ffd85dcbcf0acdb6970\",\"license\":\"MIT\"},\"contracts/contexts2/access-control/roles/RolesFacet.sol\":{\"content\":\"// SPDX-License-Identifier: MIT\\npragma solidity ^0.8.0;\\n\\nimport { RolesMods } from \\\"./RolesMods.sol\\\";\\nimport { RolesLib } from \\\"./RolesLib.sol\\\";\\nimport { ADMIN } from \\\"../../../shared/roles.sol\\\";\\n\\ncontract RolesFacet is RolesMods {\\n    /**\\n     * @notice Checks if an account has a specific role.\\n     * @param role Encoding of the role to check.\\n     * @param account Address to check the {role} for.\\n     */\\n    function hasRole(bytes32 role, address account)\\n        external\\n        view\\n        returns (bool)\\n    {\\n        return RolesLib.hasRole(role, account);\\n    }\\n\\n    /**\\n     * @notice Grants an account a new role.\\n     * @param role Encoding of the role to give.\\n     * @param account Address to give the {role} to.\\n     *\\n     * Requirements:\\n     *  - Sender must be role admin.\\n     */\\n    function grantRole(bytes32 role, address account)\\n        external\\n        authorized(ADMIN, msg.sender)\\n    {\\n        RolesLib.grantRole(role, account);\\n    }\\n\\n    /**\\n     * @notice Removes a role from an account.\\n     * @param role Encoding of the role to remove.\\n     * @param account Address to remove the {role} from.\\n     *\\n     * Requirements:\\n     *  - Sender must be role admin.\\n     */\\n    function revokeRole(bytes32 role, address account)\\n        external\\n        authorized(ADMIN, msg.sender)\\n    {\\n        RolesLib.revokeRole(role, account);\\n    }\\n\\n    /**\\n     * @notice Removes a role from the sender.\\n     * @param role Encoding of the role to remove.\\n     */\\n    function renounceRole(bytes32 role) external {\\n        RolesLib.revokeRole(role, msg.sender);\\n    }\\n}\\n\",\"keccak256\":\"0x3d02fb1286754a6da3419c81632d23e9444b1fe8cd64283e15fcb07a9b201815\",\"license\":\"MIT\"},\"contracts/contexts2/access-control/roles/RolesLib.sol\":{\"content\":\"// SPDX-License-Identifier: MIT\\npragma solidity ^0.8.0;\\n\\nimport { AccessControlStorageLib, AccessControlStorage } from \\\"../storage.sol\\\";\\n\\nlibrary RolesLib {\\n    function s() private pure returns (AccessControlStorage storage) {\\n        return AccessControlStorageLib.store();\\n    }\\n\\n    /**\\n     * @dev Emitted when `account` is granted `role`.\\n     */\\n    event RoleGranted(\\n        bytes32 indexed role,\\n        address indexed account,\\n        address indexed sender\\n    );\\n\\n    /**\\n     * @dev Emitted when `account` is revoked `role`.\\n     */\\n    event RoleRevoked(\\n        bytes32 indexed role,\\n        address indexed account,\\n        address indexed sender\\n    );\\n\\n    /**\\n     * @notice Checks if an account has a specific role.\\n     */\\n    function hasRole(bytes32 role, address account)\\n        internal\\n        view\\n        returns (bool)\\n    {\\n        return s().roles[role][account];\\n    }\\n\\n    /**\\n     * @dev Gives an account a new role.\\n     * @dev Should only use when circumventing admin checking.\\n     * @dev If account already has the role, no event is emitted.\\n     * @param role Encoding of the role to give.\\n     * @param account Address to give the {role} to.\\n     */\\n    function grantRole(bytes32 role, address account) internal {\\n        if (hasRole(role, account)) return;\\n        s().roles[role][account] = true;\\n        emit RoleGranted(role, account, msg.sender);\\n    }\\n\\n    /**\\n     * @dev Removes a role from an account.\\n     * @dev Should only use when circumventing admin checking.\\n     * @dev If account does not already have the role, no event is emitted.\\n     * @param role Encoding of the role to remove.\\n     * @param account Address to remove the {role} from.\\n     */\\n    function revokeRole(bytes32 role, address account) internal {\\n        if (!hasRole(role, account)) return;\\n        s().roles[role][account] = false;\\n        emit RoleRevoked(role, account, msg.sender);\\n    }\\n}\\n\",\"keccak256\":\"0x36d0f5db441d2c3db7ee04d84c88ce9b14251cff4387702e96965c51acd1bc84\",\"license\":\"MIT\"},\"contracts/contexts2/access-control/roles/RolesMods.sol\":{\"content\":\"// SPDX-License-Identifier: MIT\\npragma solidity ^0.8.0;\\n\\nimport { RolesLib } from \\\"./RolesLib.sol\\\";\\n\\nabstract contract RolesMods {\\n    /**\\n     * @notice Requires that the {account} has {role}\\n     * @param role Encoding of the role to check.\\n     * @param account Address to check the {role} for.\\n     */\\n    modifier authorized(bytes32 role, address account) {\\n        require(\\n            RolesLib.hasRole(role, account),\\n            \\\"AccessControl: not authorized\\\"\\n        );\\n        _;\\n    }\\n}\\n\",\"keccak256\":\"0x25eeaba823d4fc9c52d82a77cfdb409550ad985fc49b30a5560c1f313c1ca905\",\"license\":\"MIT\"},\"contracts/contexts2/access-control/storage.sol\":{\"content\":\"// SPDX-License-Identifier: MIT\\npragma solidity ^0.8.0;\\n\\nstruct AccessControlStorage {\\n    mapping(bytes32 => mapping(address => bool)) roles;\\n    mapping(address => address) owners;\\n    mapping(bytes32 => bool) entered;\\n}\\n\\nbytes32 constant ACCESS_CONTROL_POS = keccak256(\\n    \\\"teller.access_control.storage\\\"\\n);\\n\\nlibrary AccessControlStorageLib {\\n    function store() internal pure returns (AccessControlStorage storage s) {\\n        bytes32 pos = ACCESS_CONTROL_POS;\\n        assembly {\\n            s.slot := pos\\n        }\\n    }\\n}\\n\",\"keccak256\":\"0xf667fb8d6beb59fc6f37d60ada6b811b5861512fedc661c483b9eca042e96112\",\"license\":\"MIT\"},\"contracts/escrow/dapps/interfaces/DataTypes.sol\":{\"content\":\"// SPDX-License-Identifier: agpl-3.0\\npragma solidity ^0.8.0;\\n\\nlibrary DataTypes {\\n    // refer to the aave whitepaper, section 1.1 basic concepts for a formal description of these properties.\\n    struct ReserveData {\\n        //stores the reserve configuration\\n        ReserveConfigurationMap configuration;\\n        //the liquidity index. Expressed in ray\\n        uint128 liquidityIndex;\\n        //variable borrow index. Expressed in ray\\n        uint128 variableBorrowIndex;\\n        //the current supply rate. Expressed in ray\\n        uint128 currentLiquidityRate;\\n        //the current variable borrow rate. Expressed in ray\\n        uint128 currentVariableBorrowRate;\\n        //the current stable borrow rate. Expressed in ray\\n        uint128 currentStableBorrowRate;\\n        uint40 lastUpdateTimestamp;\\n        //tokens addresses\\n        address aTokenAddress;\\n        address stableDebtTokenAddress;\\n        address variableDebtTokenAddress;\\n        //address of the interest rate strategy\\n        address interestRateStrategyAddress;\\n        //the id of the reserve. Represents the position in the list of the active reserves\\n        uint8 id;\\n    }\\n\\n    struct ReserveConfigurationMap {\\n        //bit 0-15: LTV\\n        //bit 16-31: Liq. threshold\\n        //bit 32-47: Liq. bonus\\n        //bit 48-55: Decimals\\n        //bit 56: Reserve is active\\n        //bit 57: reserve is frozen\\n        //bit 58: borrowing is enabled\\n        //bit 59: stable rate borrowing enabled\\n        //bit 60-63: reserved\\n        //bit 64-79: reserve factor\\n        uint256 data;\\n    }\\n\\n    struct UserConfigurationMap {\\n        uint256 data;\\n    }\\n\\n    enum InterestRateMode { NONE, STABLE, VARIABLE }\\n}\\n\",\"keccak256\":\"0xf4301e0bd269f4662f1c1a0ed4f217cd78d670e43d51a025d55878b972d0a8e7\",\"license\":\"agpl-3.0\"},\"contracts/escrow/dapps/interfaces/IAToken.sol\":{\"content\":\"// SPDX-License-Identifier: agpl-3.0\\npragma solidity ^0.8.0;\\n\\ninterface IAToken {\\n    /**\\n     * @dev Mints `amount` aTokens to `user`\\n     * @param user The address receiving the minted tokens\\n     * @param amount The amount of tokens getting minted\\n     * @param index The new liquidity index of the reserve\\n     * @return `true` if the the previous balance of the user was 0\\n     */\\n    function mint(\\n        address user,\\n        uint256 amount,\\n        uint256 index\\n    ) external returns (bool);\\n\\n    /**\\n     * @dev Burns aTokens from `user` and sends the equivalent amount of underlying to `receiverOfUnderlying`\\n     * @param user The owner of the aTokens, getting them burned\\n     * @param receiverOfUnderlying The address that will receive the underlying\\n     * @param amount The amount being burned\\n     * @param index The new liquidity index of the reserve\\n     **/\\n    function burn(\\n        address user,\\n        address receiverOfUnderlying,\\n        uint256 amount,\\n        uint256 index\\n    ) external;\\n\\n    /**\\n     * @dev Transfers the underlying asset to `target`. Used by the LendingPool to transfer\\n     * assets in borrow(), withdraw() and flashLoan()\\n     * @param user The recipient of the aTokens\\n     * @param amount The amount getting transferred\\n     * @return The amount transferred\\n     **/\\n    function transferUnderlyingTo(address user, uint256 amount)\\n        external\\n        returns (uint256);\\n\\n    /**\\n     * @dev Returns the amount of tokens owned by `account`.\\n     */\\n    function balanceOf(address account) external view returns (uint256);\\n\\n    /**\\n     * @dev Returns the remaining number of tokens that `spender` will be\\n     * allowed to spend on behalf of `owner` through {transferFrom}. This is\\n     * zero by default.\\n     *\\n     * This value changes when {approve} or {transferFrom} are called.\\n     */\\n    function allowance(address owner, address spender)\\n        external\\n        view\\n        returns (uint256);\\n\\n    /**\\n     * @dev Sets `amount` as the allowance of `spender` over the caller's tokens.\\n     *\\n     * Returns a boolean value indicating whether the operation succeeded.\\n     *\\n     * IMPORTANT: Beware that changing an allowance with this method brings the risk\\n     * that someone may use both the old and the new allowance by unfortunate\\n     * transaction ordering. One possible solution to mitigate this race\\n     * condition is to first reduce the spender's allowance to 0 and set the\\n     * desired value afterwards:\\n     * https://github.com/ethereum/EIPs/issues/20#issuecomment-263524729\\n     *\\n     * Emits an {Approval} event.\\n     */\\n    function approve(address spender, uint256 amount) external returns (bool);\\n\\n    /**\\n     * @dev Returns the scaled balance of the user. The scaled balance is the sum of all the\\n     * updated stored balance divided by the reserve's liquidity index at the moment of the update\\n     * @param user The user whose balance is calculated\\n     * @return The scaled balance of the user\\n     **/\\n    function scaledBalanceOf(address user) external view returns (uint256);\\n\\n    /**\\n     * @dev Returns the scaled balance of the user and the scaled total supply.\\n     * @param user The address of the user\\n     * @return The scaled balance of the user\\n     * @return The scaled balance and the scaled total supply\\n     **/\\n    function getScaledUserBalanceAndSupply(address user)\\n        external\\n        view\\n        returns (uint256, uint256);\\n\\n    /**\\n     * @dev Returns the scaled total supply of the variable debt token. Represents sum(debt/index)\\n     * @return The scaled total supply\\n     **/\\n    function scaledTotalSupply() external view returns (uint256);\\n}\\n\",\"keccak256\":\"0xf715e63b83c55fcd3476280a0ab871ed763754b3f5404ec779903652a3e7838e\",\"license\":\"agpl-3.0\"},\"contracts/escrow/dapps/interfaces/IAaveLendingPool.sol\":{\"content\":\"// SPDX-License-Identifier: agpl-3.0\\npragma solidity ^0.8.0;\\n\\nimport \\\"./IAaveLendingPoolAddressesProvider.sol\\\";\\nimport \\\"./DataTypes.sol\\\";\\n\\ninterface IAaveLendingPool {\\n    /**\\n     * @dev Deposits an `amount` of underlying asset into the reserve, receiving in return overlying aTokens.\\n     * - E.g. User deposits 100 USDC and gets in return 100 aUSDC\\n     * @param asset The address of the underlying asset to deposit\\n     * @param amount The amount to be deposited\\n     * @param onBehalfOf The address that will receive the aTokens, same as msg.sender if the user\\n     *   wants to receive them on his own wallet, or a different address if the beneficiary of aTokens\\n     *   is a different wallet\\n     * @param referralCode Code used to register the integrator originating the operation, for potential rewards.\\n     *   0 if the action is executed directly by the user, without any middle-man\\n     **/\\n    function deposit(\\n        address asset,\\n        uint256 amount,\\n        address onBehalfOf,\\n        uint16 referralCode\\n    ) external;\\n\\n    /**\\n     * @dev Withdraws an `amount` of underlying asset from the reserve, burning the equivalent aTokens owned\\n     * E.g. User has 100 aUSDC, calls withdraw() and receives 100 USDC, burning the 100 aUSDC\\n     * @param asset The address of the underlying asset to withdraw\\n     * @param amount The underlying amount to be withdrawn\\n     *   - Send the value type(uint256).max in order to withdraw the whole aToken balance\\n     * @param to Address that will receive the underlying, same as msg.sender if the user\\n     *   wants to receive it on his own wallet, or a different address if the beneficiary is a\\n     *   different wallet\\n     * @return The final amount withdrawn\\n     **/\\n    function withdraw(\\n        address asset,\\n        uint256 amount,\\n        address to\\n    ) external returns (uint256);\\n\\n    /**\\n     * @dev Allows users to borrow a specific `amount` of the reserve underlying asset, provided that the borrower\\n     * already deposited enough collateral, or he was given enough allowance by a credit delegator on the\\n     * corresponding debt token (StableDebtToken or VariableDebtToken)\\n     * - E.g. User borrows 100 USDC passing as `onBehalfOf` his own address, receiving the 100 USDC in his wallet\\n     *   and 100 stable/variable debt tokens, depending on the `interestRateMode`\\n     * @param asset The address of the underlying asset to borrow\\n     * @param amount The amount to be borrowed\\n     * @param interestRateMode The interest rate mode at which the user wants to borrow: 1 for Stable, 2 for Variable\\n     * @param referralCode Code used to register the integrator originating the operation, for potential rewards.\\n     *   0 if the action is executed directly by the user, without any middle-man\\n     * @param onBehalfOf Address of the user who will receive the debt. Should be the address of the borrower itself\\n     * calling the function if he wants to borrow against his own collateral, or the address of the credit delegator\\n     * if he has been given credit delegation allowance\\n     **/\\n    function borrow(\\n        address asset,\\n        uint256 amount,\\n        uint256 interestRateMode,\\n        uint16 referralCode,\\n        address onBehalfOf\\n    ) external;\\n\\n    /**\\n     * @notice Repays a borrowed `amount` on a specific reserve, burning the equivalent debt tokens owned\\n     * - E.g. User repays 100 USDC, burning 100 variable/stable debt tokens of the `onBehalfOf` address\\n     * @param asset The address of the borrowed underlying asset previously borrowed\\n     * @param amount The amount to repay\\n     * - Send the value type(uint256).max in order to repay the whole debt for `asset` on the specific `debtMode`\\n     * @param rateMode The interest rate mode at of the debt the user wants to repay: 1 for Stable, 2 for Variable\\n     * @param onBehalfOf Address of the user who will get his debt reduced/removed. Should be the address of the\\n     * user calling the function if he wants to reduce/remove his own debt, or the address of any other\\n     * other borrower whose debt should be removed\\n     * @return The final amount repaid\\n     **/\\n    function repay(\\n        address asset,\\n        uint256 amount,\\n        uint256 rateMode,\\n        address onBehalfOf\\n    ) external returns (uint256);\\n\\n    /**\\n     * @dev Allows a borrower to swap his debt between stable and variable mode, or viceversa\\n     * @param asset The address of the underlying asset borrowed\\n     * @param rateMode The rate mode that the user wants to swap to\\n     **/\\n    function swapBorrowRateMode(address asset, uint256 rateMode) external;\\n\\n    /**\\n     * @dev Rebalances the stable interest rate of a user to the current stable rate defined on the reserve.\\n     * - Users can be rebalanced if the following conditions are satisfied:\\n     *     1. Usage ratio is above 95%\\n     *     2. the current deposit APY is below REBALANCE_UP_THRESHOLD * maxVariableBorrowRate, which means that too much has been\\n     *        borrowed at a stable rate and depositors are not earning enough\\n     * @param asset The address of the underlying asset borrowed\\n     * @param user The address of the user to be rebalanced\\n     **/\\n    function rebalanceStableBorrowRate(address asset, address user) external;\\n\\n    /**\\n     * @dev Allows depositors to enable/disable a specific deposited asset as collateral\\n     * @param asset The address of the underlying asset deposited\\n     * @param useAsCollateral `true` if the user wants to use the deposit as collateral, `false` otherwise\\n     **/\\n    function setUserUseReserveAsCollateral(address asset, bool useAsCollateral)\\n        external;\\n\\n    /**\\n     * @dev Function to liquidate a non-healthy position collateral-wise, with Health Factor below 1\\n     * - The caller (liquidator) covers `debtToCover` amount of debt of the user getting liquidated, and receives\\n     *   a proportionally amount of the `collateralAsset` plus a bonus to cover market risk\\n     * @param collateralAsset The address of the underlying asset used as collateral, to receive as result of the liquidation\\n     * @param debtAsset The address of the underlying borrowed asset to be repaid with the liquidation\\n     * @param user The address of the borrower getting liquidated\\n     * @param debtToCover The debt amount of borrowed `asset` the liquidator wants to cover\\n     * @param receiveAToken `true` if the liquidators wants to receive the collateral aTokens, `false` if he wants\\n     * to receive the underlying collateral asset directly\\n     **/\\n    function liquidationCall(\\n        address collateralAsset,\\n        address debtAsset,\\n        address user,\\n        uint256 debtToCover,\\n        bool receiveAToken\\n    ) external;\\n\\n    /**\\n     * @dev Allows smartcontracts to access the liquidity of the pool within one transaction,\\n     * as long as the amount taken plus a fee is returned.\\n     * IMPORTANT There are security concerns for developers of flashloan receiver contracts that must be kept into consideration.\\n     * For further details please visit https://developers.aave.com\\n     * @param receiverAddress The address of the contract receiving the funds, implementing the IFlashLoanReceiver interface\\n     * @param assets The addresses of the assets being flash-borrowed\\n     * @param amounts The amounts amounts being flash-borrowed\\n     * @param modes Types of the debt to open if the flash loan is not returned:\\n     *   0 -> Don't open any debt, just revert if funds can't be transferred from the receiver\\n     *   1 -> Open debt at stable rate for the value of the amount flash-borrowed to the `onBehalfOf` address\\n     *   2 -> Open debt at variable rate for the value of the amount flash-borrowed to the `onBehalfOf` address\\n     * @param onBehalfOf The address  that will receive the debt in the case of using on `modes` 1 or 2\\n     * @param params Variadic packed params to pass to the receiver as extra information\\n     * @param referralCode Code used to register the integrator originating the operation, for potential rewards.\\n     *   0 if the action is executed directly by the user, without any middle-man\\n     **/\\n    function flashLoan(\\n        address receiverAddress,\\n        address[] calldata assets,\\n        uint256[] calldata amounts,\\n        uint256[] calldata modes,\\n        address onBehalfOf,\\n        bytes calldata params,\\n        uint16 referralCode\\n    ) external;\\n\\n    /**\\n     * @dev Returns the user account data across all the reserves\\n     * @param user The address of the user\\n     * @return totalCollateralETH the total collateral in ETH of the user\\n     * @return totalDebtETH the total debt in ETH of the user\\n     * @return availableBorrowsETH the borrowing power left of the user\\n     * @return currentLiquidationThreshold the liquidation threshold of the user\\n     * @return ltv the loan to value of the user\\n     * @return healthFactor the current health factor of the user\\n     **/\\n    function getUserAccountData(address user)\\n        external\\n        view\\n        returns (\\n            uint256 totalCollateralETH,\\n            uint256 totalDebtETH,\\n            uint256 availableBorrowsETH,\\n            uint256 currentLiquidationThreshold,\\n            uint256 ltv,\\n            uint256 healthFactor\\n        );\\n\\n    /**\\n     * @dev Returns the configuration of the reserve\\n     * @param asset The address of the underlying asset of the reserve\\n     * @return The configuration of the reserve\\n     **/\\n    function getConfiguration(address asset)\\n        external\\n        view\\n        returns (DataTypes.ReserveConfigurationMap memory);\\n\\n    /**\\n     * @dev Returns the configuration of the user across all the reserves\\n     * @param user The user address\\n     * @return The configuration of the user\\n     **/\\n    function getUserConfiguration(address user)\\n        external\\n        view\\n        returns (DataTypes.UserConfigurationMap memory);\\n\\n    /**\\n     * @dev Returns the normalized income normalized income of the reserve\\n     * @param asset The address of the underlying asset of the reserve\\n     * @return The reserve's normalized income\\n     */\\n    function getReserveNormalizedIncome(address asset)\\n        external\\n        view\\n        returns (uint256);\\n\\n    /**\\n     * @dev Returns the normalized variable debt per unit of asset\\n     * @param asset The address of the underlying asset of the reserve\\n     * @return The reserve normalized variable debt\\n     */\\n    function getReserveNormalizedVariableDebt(address asset)\\n        external\\n        view\\n        returns (uint256);\\n\\n    /**\\n     * @dev Returns the state and configuration of the reserve\\n     * @param asset The address of the underlying asset of the reserve\\n     * @return The state of the reserve\\n     **/\\n    function getReserveData(address asset)\\n        external\\n        view\\n        returns (DataTypes.ReserveData memory);\\n\\n    function finalizeTransfer(\\n        address asset,\\n        address from,\\n        address to,\\n        uint256 amount,\\n        uint256 balanceFromAfter,\\n        uint256 balanceToBefore\\n    ) external;\\n\\n    function getReservesList() external view returns (address[] memory);\\n\\n    function getAddressesProvider()\\n        external\\n        view\\n        returns (IAaveLendingPoolAddressesProvider);\\n\\n    function paused() external view returns (bool);\\n}\\n\",\"keccak256\":\"0x8fb5cf82d1c19d0c61151dfb8cf6f6c2a17a15b63600b75f359fe4e9e3acc23f\",\"license\":\"agpl-3.0\"},\"contracts/escrow/dapps/interfaces/IAaveLendingPoolAddressesProvider.sol\":{\"content\":\"// SPDX-License-Identifier: agpl-3.0\\npragma solidity ^0.8.0;\\n\\n/**\\n * @title LendingPoolAddressesProvider contract\\n * @dev Main registry of addresses part of or connected to the protocol, including permissioned roles\\n * - Acting also as factory of proxies and admin of those, so with right to change its implementations\\n * - Owned by the Aave Governance\\n * @author Aave\\n **/\\ninterface IAaveLendingPoolAddressesProvider {\\n    function getMarketId() external view returns (string memory);\\n\\n    function getAddress(bytes32 id) external view returns (address);\\n\\n    function getLendingPool() external view returns (address);\\n\\n    function getPriceOracle() external view returns (address);\\n\\n    function getLendingRateOracle() external view returns (address);\\n}\\n\",\"keccak256\":\"0x9d21dbefac677da74786c27ad0fe1b148c00df63f7a2616d75c2b97c756007b3\",\"license\":\"agpl-3.0\"},\"contracts/escrow/dapps/interfaces/IVault.sol\":{\"content\":\"// SPDX-License-Identifier: MIT\\npragma solidity ^0.8.0;\\n\\n/**\\n    @notice This interface defines the different functions available for a Yearn Vault\\n    @author develop@teller.finance\\n */\\n\\ninterface IVault {\\n    /**\\n        @notice Returns the unwrapped native token address that the Vault takes as deposit\\n        @return The address of the unwrapped token\\n     */\\n    function token() external view returns (address);\\n\\n    /**\\n        @notice Returns the vault's wrapped token name as a string, example 'yearn Dai Stablecoin'\\n        @return The name of the wrapped token\\n     */\\n    function name() external view returns (string memory);\\n\\n    /**\\n        @notice Returns the vault's wrapped token symbol as a string, example 'yDai'\\n        @return The symbol of the wrapped token\\n     */\\n    function symbol() external view returns (string memory);\\n\\n    /**\\n        @notice Returns the amount of decimals for this vault's wrapped token as a uin8\\n        @return The number of decimals for the token\\n     */\\n    function decimals() external view returns (uint8);\\n\\n    /**\\n     * @dev Returns the amount of tokens owned by `account`.\\n     */\\n    function balanceOf(address account) external view returns (uint256);\\n\\n    /**\\n        @notice Returns the address of the Vault's controller\\n        @return The address of the controller contract\\n     */\\n    function controller() external view returns (address);\\n\\n    /**\\n        @notice Returns the address of the Vault's governance contract\\n        @return The contract address\\n     */\\n    function governance() external view returns (address);\\n\\n    /**\\n        @notice Returns the price of the Vault's wrapped token, denominated in the unwrapped native token\\n        @notice Calculation is: nativeTokenBalance/yTokenTotalSupply,\\n            - nativeTokenBalance is the current balance of the native token (example DAI) in the Vault\\n            - yTokenTotalSupply is the total supply of the Vault's wrapped token (example yDAI)\\n        @return The token price\\n     */\\n    function getPricePerFullShare() external view returns (uint256); // v1 vaults\\n\\n    /**\\n        @notice Returns the price of the Vault's wrapped token, denominated in the unwrapped native token\\n        @notice Calculation is: nativeTokenBalance/yTokenTotalSupply,\\n            - nativeTokenBalance is the current balance of the native token (example DAI) in the Vault\\n            - yTokenTotalSupply is the total supply of the Vault's wrapped token (example yDAI)\\n        @return The token price\\n     */\\n    function getPricePerShare() external view returns (uint256); // v2 vaults\\n\\n    /**\\n        @notice Deposits the specified amount of the native unwrapped token (same as token() returns) into the Vault\\n        @param amountToDeposit The amount of tokens to deposit\\n     */\\n    function deposit(uint256 amountToDeposit) external;\\n\\n    /**\\n        @notice Deposits the maximum available amount of the native wrapped token (same as token()) into the Vault\\n     */\\n    function depositAll() external;\\n\\n    /**\\n        @notice Withdraws the specified amount of the native unwrapped token (same as token() returns) from the Vault\\n        @param amountToWithdraw The amount to withdraw\\n     */\\n    function withdraw(uint256 amountToWithdraw) external;\\n\\n    /**\\n        @notice Withdraws the maximum available amount of native unwrapped token (same as token()) from the Vault\\n     */\\n    function withdrawAll() external;\\n}\\n\",\"keccak256\":\"0x0e2e145747f8745bde77d4741abba1a1edb1dab02e9d467eff60cb881bcffd79\",\"license\":\"MIT\"},\"contracts/escrow/dapps/libraries/LibDapps.sol\":{\"content\":\"// SPDX-License-Identifier: MIT\\npragma solidity ^0.8.0;\\n\\n// Interfaces\\nimport { IERC20 } from \\\"@openzeppelin/contracts/token/ERC20/IERC20.sol\\\";\\nimport { IAToken } from \\\"../interfaces/IAToken.sol\\\";\\nimport { IAaveLendingPool } from \\\"../interfaces/IAaveLendingPool.sol\\\";\\nimport {\\n    IAaveLendingPoolAddressesProvider\\n} from \\\"../interfaces/IAaveLendingPoolAddressesProvider.sol\\\";\\nimport {\\n    IUniswapV2Router\\n} from \\\"../../../shared/interfaces/IUniswapV2Router.sol\\\";\\nimport { IVault } from \\\"../interfaces/IVault.sol\\\";\\n\\n// Libraries\\nimport {\\n    EnumerableSet\\n} from \\\"@openzeppelin/contracts/utils/structs/EnumerableSet.sol\\\";\\n\\n// Storage\\nimport { MarketStorageLib, MarketStorage } from \\\"../../../storage/market.sol\\\";\\nimport { AppStorageLib } from \\\"../../../storage/app.sol\\\";\\n\\nlibrary LibDapps {\\n    function s() internal pure returns (MarketStorage storage) {\\n        return MarketStorageLib.store();\\n    }\\n\\n    /**\\n        @notice Grabs the Aave lending pool instance from the Aave lending pool address provider\\n        @return IAaveLendingPool instance address\\n     */\\n    function getAaveLendingPool() internal view returns (IAaveLendingPool) {\\n        return\\n            IAaveLendingPool(\\n                IAaveLendingPoolAddressesProvider(\\n                    0xB53C1a33016B2DC2fF3653530bfF1848a515c8c5\\n                )\\n                    .getLendingPool()\\n            ); // LP address provider contract is immutable and the address will never change\\n    }\\n\\n    /**\\n        @notice Grabs the aToken instance from the lending pool\\n        @param tokenAddress The underlying asset address to get the aToken for\\n        @return IAToken instance\\n     */\\n    function getAToken(address tokenAddress) internal view returns (IAToken) {\\n        return\\n            IAToken(\\n                getAaveLendingPool().getReserveData(tokenAddress).aTokenAddress\\n            );\\n    }\\n\\n    /**\\n        @notice Grabs the yVault address for a token from the asset settings\\n        @param tokenAddress The underlying token address for the associated yVault\\n        @return yVault instance\\n     */\\n    function getYVault(address tokenAddress) internal view returns (IVault) {\\n        return\\n            IVault(\\n                AppStorageLib.store().assetSettings[tokenAddress].addresses[\\n                    keccak256(\\\"yVaultAddress\\\")\\n                ]\\n            );\\n    }\\n}\\n\",\"keccak256\":\"0x8030b206c87d0073fb7dbebfa2ee8a3e93c479d976d6cdaa0c939f2fedaa1525\",\"license\":\"MIT\"},\"contracts/escrow/escrow/ILoansEscrow.sol\":{\"content\":\"// SPDX-License-Identifier: MIT\\npragma solidity ^0.8.0;\\n\\ninterface ILoansEscrow {\\n    function init() external;\\n\\n    function callDapp(address dappAddress, bytes calldata dappData)\\n        external\\n        returns (bytes memory);\\n\\n    function setTokenAllowance(address token, address spender) external;\\n\\n    function claimToken(\\n        address token,\\n        address to,\\n        uint256 amount\\n    ) external;\\n}\\n\",\"keccak256\":\"0xdaa338698014e6c00edf7a2aca49026a047e253cbe7fc392a73f5f63a063a7f9\",\"license\":\"MIT\"},\"contracts/escrow/libraries/LibEscrow.sol\":{\"content\":\"// SPDX-License-Identifier: MIT\\npragma solidity ^0.8.0;\\n\\n// Libraries\\nimport { LibDapps } from \\\"../dapps/libraries/LibDapps.sol\\\";\\nimport { LibLoans } from \\\"../../market/libraries/LibLoans.sol\\\";\\nimport { PriceAggLib } from \\\"../../price-aggregator/PriceAggLib.sol\\\";\\nimport {\\n    EnumerableSet\\n} from \\\"@openzeppelin/contracts/utils/structs/EnumerableSet.sol\\\";\\n\\n// Interfaces\\nimport { IERC20 } from \\\"@openzeppelin/contracts/token/ERC20/IERC20.sol\\\";\\nimport { ILoansEscrow } from \\\"../escrow/ILoansEscrow.sol\\\";\\n\\n// Storage\\nimport { MarketStorageLib, MarketStorage } from \\\"../../storage/market.sol\\\";\\n\\nlibrary LibEscrow {\\n    function s() internal pure returns (MarketStorage storage) {\\n        return MarketStorageLib.store();\\n    }\\n\\n    function e(uint256 loanID) internal view returns (ILoansEscrow e_) {\\n        e_ = s().loanEscrows[loanID];\\n    }\\n\\n    function getEscrowTokens(uint256 loanID)\\n        internal\\n        view\\n        returns (EnumerableSet.AddressSet storage t_)\\n    {\\n        t_ = s().escrowTokens[loanID];\\n    }\\n\\n    function balanceOf(uint256 loanID, address token)\\n        internal\\n        view\\n        returns (uint256)\\n    {\\n        return IERC20(token).balanceOf(address(e(loanID)));\\n    }\\n\\n    /**\\n     * @notice Adds or removes tokens held by the Escrow contract\\n     * @param loanID The loan ID to update the token list for\\n     * @param tokenAddress The token address to be added or removed\\n     */\\n    function tokenUpdated(uint256 loanID, address tokenAddress) internal {\\n        // Skip if is lending token\\n        if (LibLoans.loan(loanID).lendingToken == tokenAddress) return;\\n\\n        EnumerableSet.AddressSet storage tokens = s().escrowTokens[loanID];\\n        bool contains = EnumerableSet.contains(tokens, tokenAddress);\\n        if (balanceOf(loanID, tokenAddress) > 0) {\\n            if (!contains) {\\n                EnumerableSet.add(tokens, tokenAddress);\\n            }\\n        } else if (contains) {\\n            EnumerableSet.remove(tokens, tokenAddress);\\n        }\\n    }\\n\\n    /**\\n     * @notice Calculate the value of the loan by getting the value of all tokens the Escrow owns.\\n     * @param loanID The loan ID to calculate value for\\n     * @return value_ Escrow total value denoted in the lending token.\\n     */\\n    function calculateTotalValue(uint256 loanID)\\n        internal\\n        view\\n        returns (uint256 value_)\\n    {\\n        address lendingToken = LibLoans.loan(loanID).lendingToken;\\n        value_ += balanceOf(loanID, lendingToken);\\n\\n        EnumerableSet.AddressSet storage tokens = getEscrowTokens(loanID);\\n        if (EnumerableSet.length(tokens) > 0) {\\n            for (uint256 i = 0; i < EnumerableSet.length(tokens); i++) {\\n                uint256 tokenBal =\\n                    balanceOf(loanID, EnumerableSet.at(tokens, i));\\n                value_ += PriceAggLib.valueFor(\\n                    EnumerableSet.at(tokens, i),\\n                    lendingToken,\\n                    tokenBal\\n                );\\n            }\\n        }\\n    }\\n}\\n\",\"keccak256\":\"0xcca97599fff1c1bd608e7f11c4674f325e43781794e91bf5322ac9e0ffd7b3df\",\"license\":\"MIT\"},\"contracts/lending/ttoken/ITToken.sol\":{\"content\":\"// SPDX-License-Identifier: MIT\\npragma solidity ^0.8.0;\\n\\n// Contracts\\nimport {\\n    ERC20Upgradeable\\n} from \\\"@openzeppelin/contracts-upgradeable/token/ERC20/ERC20Upgradeable.sol\\\";\\nimport { ERC20 } from \\\"@openzeppelin/contracts/token/ERC20/ERC20.sol\\\";\\nimport {\\n    RolesFacet\\n} from \\\"../../contexts2/access-control/roles/RolesFacet.sol\\\";\\n\\n/**\\n * @notice This contract acts as an interface for the Teller token (TToken).\\n *\\n * @author develop@teller.finance\\n */\\nabstract contract ITToken is ERC20Upgradeable, RolesFacet {\\n    /**\\n     * @notice This event is emitted when an user deposits tokens into the pool.\\n     */\\n    event Mint(\\n        address indexed sender,\\n        uint256 tTokenAmount,\\n        uint256 underlyingAmount\\n    );\\n\\n    /**\\n     * @notice This event is emitted when an user withdraws tokens from the pool.\\n     */\\n    event Redeem(\\n        address indexed sender,\\n        uint256 tTokenAmount,\\n        uint256 underlyingAmount\\n    );\\n\\n    /**\\n     * @notice The token that is the underlying assets for this Teller token.\\n     */\\n    function underlying() external view virtual returns (ERC20);\\n\\n    /**\\n     * @notice The balance of an {account} denoted in underlying value.\\n     * @param account Address to calculate the underlying balance.\\n     */\\n    function balanceOfUnderlying(address account)\\n        external\\n        virtual\\n        returns (uint256 balance_);\\n\\n    /**\\n     * @notice It calculates the current exchange rate for a whole Teller Token based of the underlying token balance.\\n     * @return rate_ The current exchange rate.\\n     */\\n    function exchangeRate() external virtual returns (uint256 rate_);\\n\\n    /**\\n     * @notice Redeem supplied Teller token underlying value.\\n     * @return totalSupply_ The total value of the underlying token managed by the LP.\\n     */\\n    function totalUnderlyingSupply()\\n        external\\n        virtual\\n        returns (uint256 totalSupply_);\\n\\n    /**\\n     * @notice It calculates the market state values across a given markets.\\n     * @notice Returns values that represent the global state across the market.\\n     * @return totalSupplied Total amount of the underlying asset supplied.\\n     * @return totalBorrowed Total amount borrowed through loans.\\n     * @return totalRepaid The total amount repaid till the current timestamp.\\n     * @return totalInterestRepaid The total amount interest repaid till the current timestamp.\\n     * @return totalOnLoan Total amount currently deployed in loans.\\n     */\\n    function getMarketState()\\n        external\\n        virtual\\n        returns (\\n            uint256 totalSupplied,\\n            uint256 totalBorrowed,\\n            uint256 totalRepaid,\\n            uint256 totalInterestRepaid,\\n            uint256 totalOnLoan\\n        );\\n\\n    /**\\n     * @notice Calculates the current Total Value Locked, denoted in the underlying asset, in the Teller Token pool.\\n     * @return tvl_ The value locked in the pool.\\n     *\\n     * Note: This value includes the amount that is on loan (including ones that were sent to EOAs).\\n     */\\n    function currentTVL() external virtual returns (uint256 tvl_);\\n\\n    /**\\n     * @notice It validates whether supply to debt (StD) ratio is valid including the loan amount.\\n     * @param newLoanAmount the new loan amount to consider o the StD ratio.\\n     * @return ratio_ Whether debt ratio for lending pool is valid.\\n     */\\n    function debtRatioFor(uint256 newLoanAmount)\\n        external\\n        virtual\\n        returns (uint16 ratio_);\\n\\n    /**\\n     * @notice Called by the Teller Diamond contract when a loan has been taken out and requires funds.\\n     * @param recipient The account to send the funds to.\\n     * @param amount Funds requested to fulfil the loan.\\n     */\\n    function fundLoan(address recipient, uint256 amount) external virtual;\\n\\n    /**\\n     * @notice Called by the Teller Diamond contract when a loan has been repaid.\\n     * @param amount Funds deposited back into the pool to repay the principal amount of a loan.\\n     * @param interestAmount Interest value paid into the pool from a loan.\\n     */\\n    function repayLoan(uint256 amount, uint256 interestAmount) external virtual;\\n\\n    /**\\n     * @notice Increase account supply of specified token amount.\\n     * @param amount The amount of underlying tokens to use to mint.\\n     */\\n    function mint(uint256 amount)\\n        external\\n        virtual\\n        returns (uint256 mintAmount_);\\n\\n    /**\\n     * @notice Redeem supplied Teller token underlying value.\\n     * @param amount The amount of Teller tokens to redeem.\\n     */\\n    function redeem(uint256 amount) external virtual;\\n\\n    /**\\n     * @notice Redeem supplied underlying value.\\n     * @param amount The amount of underlying tokens to redeem.\\n     */\\n    function redeemUnderlying(uint256 amount) external virtual;\\n\\n    /**\\n     * @notice Rebalances the funds controlled by Teller Token according to the current strategy.\\n     *\\n     * See {TTokenStrategy}.\\n     */\\n    function rebalance() external virtual;\\n\\n    /**\\n     * @notice Sets a new strategy to use for balancing funds.\\n     * @param strategy Address to the new strategy contract. Must implement the {ITTokenStrategy} interface.\\n     * @param initData Optional data to initialize the strategy.\\n     *\\n     * Requirements:\\n     *  - Sender must have ADMIN role\\n     */\\n    function setStrategy(address strategy, bytes calldata initData)\\n        external\\n        virtual;\\n\\n    /**\\n     * @notice Gets the strategy used for balancing funds.\\n     */\\n    function getStrategy() external view virtual returns (address);\\n\\n    /**\\n     * @notice Sets the restricted state of the platform.\\n     */\\n    function restrict(bool state) external virtual;\\n\\n    function initialize(address admin, address underlying) external virtual;\\n}\\n\",\"keccak256\":\"0xe6515c78e0277edbed82aa6926df727afd216379dd0bfbbb790222654c858499\",\"license\":\"MIT\"},\"contracts/market/LoanDataFacet.sol\":{\"content\":\"// SPDX-License-Identifier: MIT\\npragma solidity ^0.8.0;\\n\\n// Libraries\\nimport { LibLoans } from \\\"./libraries/LibLoans.sol\\\";\\nimport { LibEscrow } from \\\"../escrow/libraries/LibEscrow.sol\\\";\\n\\nimport {\\n    EnumerableSet\\n} from \\\"@openzeppelin/contracts/utils/structs/EnumerableSet.sol\\\";\\n\\n// Storage\\nimport { Loan, LoanDebt, LoanTerms } from \\\"../storage/market.sol\\\";\\n\\ncontract LoanDataFacet {\\n    /**\\n     * @notice Returns the information about the given {loanID}.\\n     * @param loanID The loan ID to get information for.\\n     * @return loan_ The loan data.\\n     */\\n    function getLoan(uint256 loanID) external view returns (Loan memory loan_) {\\n        loan_ = LibLoans.s().loans[loanID];\\n    }\\n\\n    /**\\n     * @notice Returns the terms for a specified loan.\\n     * @param loanID The loan ID to get the total amount owed.\\n     * @return LoanTerms The terms that the loan weer created with.\\n     */\\n    function getLoanTerms(uint256 loanID)\\n        external\\n        view\\n        returns (LoanTerms memory)\\n    {\\n        return LibLoans.terms(loanID);\\n    }\\n\\n    /**\\n     * @notice Returns the loan IDs created by the {borrower} account.\\n     * @param borrower The account to get loan IDs for.\\n     * @return loanIDs The IDs for loans created by the {borrower}\\n     */\\n    function getBorrowerLoans(address borrower)\\n        external\\n        view\\n        returns (uint128[] memory loanIDs)\\n    {\\n        return LibLoans.s().borrowerLoans[borrower];\\n    }\\n\\n    /**\\n     * @notice Returns the debt owed for a specified loan.\\n     * @param loanID The loan ID to get the total amount owed.\\n     * @return LoanDebt The principal and interest owed amount.\\n     */\\n    function getDebtOwed(uint256 loanID)\\n        external\\n        view\\n        returns (LoanDebt memory)\\n    {\\n        return LibLoans.debt(loanID);\\n    }\\n\\n    /**\\n     * @notice Returns the total amount owed for a specified loan.\\n     * @param loanID The loan ID to get the total amount owed.\\n     * @return uint256 The total owed amount.\\n     */\\n    function getTotalOwed(uint256 loanID) external view returns (uint256) {\\n        return LibLoans.getTotalOwed(loanID);\\n    }\\n\\n    /**\\n     * @notice Returns the amount of interest owed for a given loan and loan amount.\\n     * @param loanID The loan ID to get the owed interest.\\n     * @param amountBorrow The principal of the loan to take out.\\n     * @return uint256 The interest owed.\\n     */\\n    function getInterestOwedFor(uint256 loanID, uint256 amountBorrow)\\n        external\\n        view\\n        returns (uint256)\\n    {\\n        return LibLoans.getInterestOwedFor(loanID, amountBorrow);\\n    }\\n\\n    function getCollateralNeededInfo(uint256 loanID)\\n        external\\n        view\\n        returns (\\n            uint256 neededInLendingTokens,\\n            uint256 neededInCollateralTokens,\\n            uint256 escrowLoanValue\\n        )\\n    {\\n        return LibLoans.getCollateralNeededInfo(loanID);\\n    }\\n\\n    function getLoanEscrow(uint256 loanID)\\n        external\\n        view\\n        returns (address escrow_)\\n    {\\n        escrow_ = address(LibLoans.s().loanEscrows[loanID]);\\n    }\\n\\n    function getLoanEscrowValue(uint256 loanID)\\n        external\\n        view\\n        returns (uint256)\\n    {\\n        return LibEscrow.calculateTotalValue(loanID);\\n    }\\n\\n    function getEscrowTokens(uint256 loanID)\\n        external\\n        view\\n        returns (address[] memory tokens_)\\n    {\\n        EnumerableSet.AddressSet storage escrowTokens =\\n            LibEscrow.getEscrowTokens(loanID);\\n        tokens_ = new address[](EnumerableSet.length(escrowTokens));\\n        for (uint256 i; i < tokens_.length; i++) {\\n            tokens_[i] = EnumerableSet.at(escrowTokens, i);\\n        }\\n    }\\n}\\n\",\"keccak256\":\"0xf589a2afff647e5288e15f3f6614135395562b4d12c743402a6504a3fb9b39d6\",\"license\":\"MIT\"},\"contracts/market/RepayFacet.sol\":{\"content\":\"// SPDX-License-Identifier: MIT\\npragma solidity ^0.8.0;\\n\\n// Contracts\\nimport { RolesMods } from \\\"../contexts2/access-control/roles/RolesMods.sol\\\";\\nimport { PausableMods } from \\\"../settings/pausable/PausableMods.sol\\\";\\nimport {\\n    ReentryMods\\n} from \\\"../contexts2/access-control/reentry/ReentryMods.sol\\\";\\nimport { AUTHORIZED } from \\\"../shared/roles.sol\\\";\\nimport { LoanDataFacet } from \\\"./LoanDataFacet.sol\\\";\\n\\n// Libraries\\nimport {\\n    IERC20,\\n    SafeERC20\\n} from \\\"@openzeppelin/contracts/token/ERC20/utils/SafeERC20.sol\\\";\\nimport {\\n    EnumerableSet\\n} from \\\"@openzeppelin/contracts/utils/structs/EnumerableSet.sol\\\";\\nimport { LibLoans } from \\\"./libraries/LibLoans.sol\\\";\\nimport { LibCollateral } from \\\"./libraries/LibCollateral.sol\\\";\\nimport { LibDapps } from \\\"../escrow/dapps/libraries/LibDapps.sol\\\";\\nimport { LibEscrow } from \\\"../escrow/libraries/LibEscrow.sol\\\";\\nimport {\\n    PlatformSettingsLib\\n} from \\\"../settings/platform/libraries/PlatformSettingsLib.sol\\\";\\nimport { NumbersLib } from \\\"../shared/libraries/NumbersLib.sol\\\";\\nimport { PriceAggLib } from \\\"../price-aggregator/PriceAggLib.sol\\\";\\nimport { NFTLib } from \\\"../nft/libraries/NFTLib.sol\\\";\\n\\n// Interfaces\\nimport { ITToken } from \\\"../lending/ttoken/ITToken.sol\\\";\\nimport { ILoansEscrow } from \\\"../escrow/escrow/ILoansEscrow.sol\\\";\\n\\n// Storage\\nimport {\\n    MarketStorageLib,\\n    MarketStorage,\\n    Loan,\\n    LoanStatus\\n} from \\\"../storage/market.sol\\\";\\n\\ncontract RepayFacet is RolesMods, ReentryMods, PausableMods {\\n    /**\\n        @notice This event is emitted when a loan has been successfully repaid\\n        @param loanID ID of loan from which collateral was withdrawn\\n        @param borrower Account address of the borrower\\n        @param amountPaid Amount of the loan paid back\\n        @param payer Account address of the payer\\n        @param totalOwed Total amount of the loan to be repaid\\n     */\\n    event LoanRepaid(\\n        uint256 indexed loanID,\\n        address indexed borrower,\\n        uint256 amountPaid,\\n        address payer,\\n        uint256 totalOwed\\n    );\\n\\n    /**\\n     * @notice This event is emitted when a loan has been successfully liquidated\\n     * @param loanID ID of loan from which collateral was withdrawn\\n     * @param borrower Account address of the borrower\\n     * @param liquidator Account address of the liquidator\\n     * @param reward Value in lending token paid out to liquidator\\n     * @param tokensIn Percentage of the collateral price paid by the liquidator to the lending pool\\n     */\\n    event LoanLiquidated(\\n        uint256 indexed loanID,\\n        address indexed borrower,\\n        address liquidator,\\n        uint256 reward,\\n        uint256 tokensIn\\n    );\\n\\n    /**\\n     * @notice Repay this Escrow's loan.\\n     * @dev If the Escrow's balance of the borrowed token is less than the amount to repay, transfer tokens from the sender's wallet.\\n     * @dev Only the owner of the Escrow can call this. If someone else wants to make a payment, they should call the loan manager directly.\\n     * @param loanID The id of the loan being used.\\n     * @param amount The amount being repaid.\\n     */\\n    function escrowRepay(uint256 loanID, uint256 amount)\\n        external\\n        paused(\\\"\\\", false)\\n        authorized(AUTHORIZED, msg.sender)\\n        nonReentry(\\\"\\\")\\n    {\\n        uint256 balance =\\n            LibEscrow.balanceOf(loanID, LibLoans.loan(loanID).lendingToken);\\n        uint256 totalOwed = LibLoans.getTotalOwed(loanID);\\n        if (balance < totalOwed && amount > balance) {\\n            uint256 amountNeeded =\\n                amount > totalOwed ? totalOwed - (balance) : amount - (balance);\\n\\n            SafeERC20.safeTransferFrom(\\n                IERC20(LibLoans.loan(loanID).lendingToken),\\n                msg.sender,\\n                address(LibEscrow.e(loanID)),\\n                amountNeeded\\n            );\\n        }\\n\\n        __repayLoan(loanID, amount, address(LibEscrow.e(loanID)), false);\\n    }\\n\\n    /**\\n     * @notice Make a payment to a loan\\n     * @param loanID The ID of the loan the payment is for\\n     * @param amount The amount of tokens to pay back to the loan\\n     */\\n    function repayLoan(uint256 loanID, uint256 amount)\\n        external\\n        nonReentry(\\\"\\\")\\n        paused(\\\"\\\", false)\\n        authorized(AUTHORIZED, msg.sender)\\n    {\\n        __repayLoan(loanID, amount, msg.sender, false);\\n    }\\n\\n    function __repayLoan(\\n        uint256 loanID,\\n        uint256 amount,\\n        address sender,\\n        bool isLiquidation\\n    ) private returns (uint256 leftToPay_) {\\n        require(amount > 0, \\\"Teller: zero repay\\\");\\n\\n        // calculate the actual amount to repay\\n        leftToPay_ =\\n            LibLoans.debt(loanID).principalOwed +\\n            LibLoans.debt(loanID).interestOwed;\\n        if (leftToPay_ < amount) {\\n            amount = leftToPay_;\\n            leftToPay_ = 0;\\n        } else {\\n            leftToPay_ -= amount;\\n        }\\n\\n        // Get the Teller token for the loan\\n        ITToken tToken =\\n            MarketStorageLib.store().tTokens[\\n                LibLoans.loan(loanID).lendingToken\\n            ];\\n        // Transfer funds from account\\n        if (address(LibEscrow.e(loanID)) == sender) {\\n            LibEscrow.e(loanID).claimToken(\\n                LibLoans.loan(loanID).lendingToken,\\n                address(tToken),\\n                amount\\n            );\\n        } else {\\n            SafeERC20.safeTransferFrom(\\n                IERC20(LibLoans.loan(loanID).lendingToken),\\n                sender,\\n                address(tToken),\\n                amount\\n            );\\n        }\\n\\n        // Deduct the interest and principal owed\\n        uint256 principalPaid;\\n        uint256 interestPaid;\\n        if (amount < LibLoans.debt(loanID).interestOwed) {\\n            interestPaid = amount;\\n            LibLoans.debt(loanID).interestOwed -= amount;\\n        } else {\\n            if (LibLoans.debt(loanID).interestOwed > 0) {\\n                interestPaid = LibLoans.debt(loanID).interestOwed;\\n                amount -= interestPaid;\\n                LibLoans.debt(loanID).interestOwed = 0;\\n            }\\n\\n            if (amount > 0) {\\n                principalPaid = amount;\\n                LibLoans.debt(loanID).principalOwed -= amount;\\n            }\\n        }\\n\\n        // Tell the Teller Token value has been deposited back into the pool.\\n        tToken.repayLoan(principalPaid, interestPaid);\\n\\n        if (isLiquidation) {\\n            // Make sure there is nothing left to repay on the loan\\n            require(leftToPay_ == 0, \\\"Teller: liquidate partial repay\\\");\\n\\n            // Set loan status\\n            LibLoans.loan(loanID).status = LoanStatus.Liquidated;\\n\\n            // Transfer NFT if linked\\n            NFTLib.liquidateNFT(loanID);\\n        } else {\\n            // if the loan is now fully paid, close it and withdraw borrower collateral\\n            if (leftToPay_ == 0) {\\n                LibLoans.loan(loanID).status = LoanStatus.Closed;\\n                LibCollateral.withdrawAll(\\n                    loanID,\\n                    LibLoans.loan(loanID).borrower\\n                );\\n                // Restake any NFTs linked to loan for borrower\\n                NFTLib.restakeLinked(loanID, LibLoans.loan(loanID).borrower);\\n            }\\n\\n            emit LoanRepaid(\\n                loanID,\\n                LibLoans.loan(loanID).borrower,\\n                amount,\\n                msg.sender,\\n                leftToPay_\\n            );\\n        }\\n    }\\n\\n    /**\\n     * @notice Liquidate a loan if it is expired or under collateralized\\n     * @param loanID The ID of the loan to be liquidated\\n     */\\n    function liquidateLoan(uint256 loanID)\\n        external\\n        nonReentry(\\\"\\\")\\n        paused(\\\"\\\", false)\\n        authorized(AUTHORIZED, msg.sender)\\n    {\\n        Loan storage loan = LibLoans.loan(loanID);\\n        uint256 collateralAmount = LibCollateral.e(loanID).loanSupply(loanID);\\n        require(\\n            RepayLib.isLiquidable(loanID, collateralAmount),\\n            \\\"Teller: does not need liquidation\\\"\\n        );\\n\\n        // Calculate the reward before repaying the loan\\n        (uint256 rewardInLending, uint256 collateralInLending) =\\n            RepayLib.getLiquidationReward(loanID, collateralAmount);\\n\\n        // The liquidator pays the amount still owed on the loan\\n        uint256 amountToLiquidate =\\n            LibLoans.debt(loanID).principalOwed +\\n                LibLoans.debt(loanID).interestOwed;\\n\\n        __repayLoan(loanID, amountToLiquidate, msg.sender, true);\\n\\n        // Payout the liquidator reward owed\\n        if (rewardInLending > 0) {\\n            RepayLib.payOutLiquidator(\\n                loanID,\\n                rewardInLending,\\n                collateralInLending,\\n                collateralAmount,\\n                payable(msg.sender)\\n            );\\n        }\\n\\n        emit LoanLiquidated(\\n            loanID,\\n            loan.borrower,\\n            msg.sender,\\n            rewardInLending,\\n            amountToLiquidate\\n        );\\n    }\\n\\n    /**\\n     * @notice It gets the current liquidation reward for a given loan.\\n     * @param loanID The loan ID to get the info.\\n     * @return inLending_ The value the liquidator will receive denoted in lending tokens.\\n     * @return inCollateral_ The value the liquidator will receive denoted in collateral tokens.\\n     */\\n    function getLiquidationReward(uint256 loanID)\\n        external\\n        view\\n        returns (uint256 inLending_, uint256 inCollateral_)\\n    {\\n        (inLending_, ) = RepayLib.getLiquidationReward(\\n            loanID,\\n            LibCollateral.e(loanID).loanSupply(loanID)\\n        );\\n        inCollateral_ = PriceAggLib.valueFor(\\n            LibLoans.loan(loanID).lendingToken,\\n            LibLoans.loan(loanID).collateralToken,\\n            inLending_\\n        );\\n    }\\n}\\n\\nlibrary RepayLib {\\n    /**\\n     * @notice It checks if a loan can be liquidated.\\n     * @param loanID The loan ID to check.\\n     * @return true if the loan is liquidable.\\n     */\\n    function isLiquidable(uint256 loanID, uint256 collateralAmount)\\n        internal\\n        view\\n        returns (bool)\\n    {\\n        Loan storage loan = LibLoans.loan(loanID);\\n        // Check if loan can be liquidated\\n        if (loan.status != LoanStatus.Active) {\\n            return false;\\n        }\\n\\n        if (loan.collateralRatio > 0) {\\n            // If loan has a collateral ratio, check how much is needed\\n            (, uint256 neededInCollateral, ) =\\n                LoanDataFacet(address(this)).getCollateralNeededInfo(loanID);\\n            if (neededInCollateral > collateralAmount) {\\n                return true;\\n            }\\n        }\\n\\n        // Otherwise, check if the loan has expired\\n        return block.timestamp >= loan.loanStartTime + loan.duration;\\n    }\\n\\n    /**\\n     * @notice It gets the current liquidation reward for a given loan.\\n     * @param loanID The loan ID to get the info.\\n     * @param collateralAmount The amount of collateral for the {loanID}. Passed in to save gas calling the collateral escrow multiple times.\\n     * @return reward_ The value the liquidator will receive denoted in lending tokens.\\n     */\\n    function getLiquidationReward(uint256 loanID, uint256 collateralAmount)\\n        internal\\n        view\\n        returns (uint256 reward_, uint256 collateralValue_)\\n    {\\n        uint256 amountToLiquidate =\\n            LibLoans.debt(loanID).principalOwed +\\n                LibLoans.debt(loanID).interestOwed;\\n\\n        // Max reward is amount repaid on loan plus extra percentage\\n        uint256 maxReward =\\n            amountToLiquidate +\\n                NumbersLib.percent(\\n                    amountToLiquidate,\\n                    uint16(PlatformSettingsLib.getLiquidateRewardPercent())\\n                );\\n\\n        // Calculate available collateral for reward\\n        if (collateralAmount > 0) {\\n            collateralValue_ = PriceAggLib.valueFor(\\n                LibLoans.loan(loanID).collateralToken,\\n                LibLoans.loan(loanID).lendingToken,\\n                collateralAmount\\n            );\\n            reward_ += collateralValue_;\\n        }\\n\\n        // Calculate loan escrow value if collateral not enough to cover reward\\n        if (reward_ < maxReward) {\\n            reward_ += LibEscrow.calculateTotalValue(loanID);\\n        }\\n\\n        // Cap the reward to max\\n        if (reward_ > maxReward) {\\n            reward_ = maxReward;\\n        }\\n    }\\n\\n    /**\\n     * @notice Checks if the loan has an Escrow and claims any tokens then pays out the loan collateral.\\n     * @dev See Escrow.claimTokens for more info.\\n     * @param loanID The loan ID which is being liquidated\\n     * @param rewardInLending The total amount of reward based in the lending token to pay the liquidator\\n     * @param collateralInLending The amount of collateral that is available for the loan denoted in lending tokens\\n     * @param collateralAmount The amount of collateral that is available for the loan\\n     * @param liquidator The address of the liquidator where the liquidation reward will be sent to\\n     */\\n    function payOutLiquidator(\\n        uint256 loanID,\\n        uint256 rewardInLending,\\n        uint256 collateralInLending,\\n        uint256 collateralAmount,\\n        address payable liquidator\\n    ) internal {\\n        require(\\n            LibLoans.loan(loanID).status == LoanStatus.Liquidated,\\n            \\\"Teller: loan not liquidated\\\"\\n        );\\n\\n        if (rewardInLending <= collateralInLending) {\\n            uint256 rewardInCollateral =\\n                PriceAggLib.valueFor(\\n                    LibLoans.loan(loanID).lendingToken,\\n                    LibLoans.loan(loanID).collateralToken,\\n                    rewardInLending\\n                );\\n\\n            LibCollateral.withdraw(loanID, rewardInCollateral, liquidator);\\n        } else {\\n            // Payout whats available in the collateral token\\n            LibCollateral.withdraw(loanID, collateralAmount, liquidator);\\n\\n            // Claim remaining reward value from the loan escrow\\n            claimEscrowTokensByValue(\\n                loanID,\\n                liquidator,\\n                rewardInLending - collateralInLending\\n            );\\n        }\\n    }\\n\\n    /**\\n     * @dev Send the equivalent of tokens owned by the loan escrow (in lending value) to the recipient,\\n     * @param loanID The loan ID to clam tokens from\\n     * @param recipient address to send the tokens to\\n     * @param value The value of escrow held tokens to be claimed based in lending value\\n     */\\n    function claimEscrowTokensByValue(\\n        uint256 loanID,\\n        address recipient,\\n        uint256 value\\n    ) private {\\n        EnumerableSet.AddressSet storage tokens =\\n            MarketStorageLib.store().escrowTokens[loanID];\\n        uint256 valueLeftToTransfer = value;\\n\\n        // Start with the lending token\\n        valueLeftToTransfer = claimEscrowToken(\\n            loanID,\\n            LibLoans.loan(loanID).lendingToken,\\n            recipient,\\n            valueLeftToTransfer\\n        );\\n\\n        // Cycle through remaining tokens\\n        for (uint256 i = 0; i < EnumerableSet.length(tokens); i++) {\\n            if (valueLeftToTransfer == 0) {\\n                return;\\n            }\\n\\n            valueLeftToTransfer = claimEscrowToken(\\n                loanID,\\n                EnumerableSet.at(tokens, i),\\n                recipient,\\n                valueLeftToTransfer\\n            );\\n        }\\n    }\\n\\n    function claimEscrowToken(\\n        uint256 loanID,\\n        address token,\\n        address recipient,\\n        uint256 valueLeftToTransfer\\n    ) private returns (uint256) {\\n        uint256 balance = LibEscrow.balanceOf(loanID, token);\\n        // get value of token balance in lending value\\n        if (balance > 0) {\\n            // If token not the lending token, get value of token\\n            uint256 balanceInLending;\\n            if (token == LibLoans.loan(loanID).lendingToken) {\\n                balanceInLending = balance;\\n            } else {\\n                balanceInLending = PriceAggLib.valueFor(\\n                    token,\\n                    LibLoans.loan(loanID).lendingToken,\\n                    balance\\n                );\\n            }\\n\\n            if (balanceInLending <= valueLeftToTransfer) {\\n                LibEscrow.e(loanID).claimToken(token, recipient, balance);\\n                valueLeftToTransfer -= balanceInLending;\\n            } else {\\n                // Token balance is more than enough so calculate ratio of balance to transfer\\n                uint256 valueToTransfer;\\n                if (token == LibLoans.loan(loanID).lendingToken) {\\n                    valueToTransfer = valueLeftToTransfer;\\n                } else {\\n                    valueToTransfer = NumbersLib.percent(\\n                        balance,\\n                        NumbersLib.ratioOf(\\n                            valueLeftToTransfer,\\n                            balanceInLending\\n                        )\\n                    );\\n                }\\n\\n                LibEscrow.e(loanID).claimToken(\\n                    token,\\n                    recipient,\\n                    valueToTransfer\\n                );\\n                valueLeftToTransfer = 0;\\n            }\\n        }\\n\\n        return valueLeftToTransfer;\\n    }\\n}\\n\",\"keccak256\":\"0xdfcd62dbcda7ba0ce92718d72d6cab3f7c78178d9ac9de6b04640124d43bf4cc\",\"license\":\"MIT\"},\"contracts/market/collateral/ICollateralEscrow.sol\":{\"content\":\"// SPDX-License-Identifier: MIT\\npragma solidity ^0.8.0;\\n\\ninterface ICollateralEscrow {\\n    function init(address tokenAddress, bool isWETH) external;\\n\\n    function deposit(uint256 loanID, uint256 amount) external payable;\\n\\n    function withdraw(\\n        uint256 loanID,\\n        uint256 amount,\\n        address payable receiver\\n    ) external;\\n\\n    function loanSupply(uint256 loanID) external view returns (uint256 supply_);\\n\\n    function totalSupply() external view returns (uint256 supply_);\\n}\\n\",\"keccak256\":\"0x3c83593b5521e85c7f62076b41869cd5a762b34523ac39fc23b4ea1b9042aa59\",\"license\":\"MIT\"},\"contracts/market/libraries/LibCollateral.sol\":{\"content\":\"// SPDX-License-Identifier: MIT\\npragma solidity ^0.8.0;\\n\\n// Interfaces\\nimport { IERC20 } from \\\"@openzeppelin/contracts/token/ERC20/ERC20.sol\\\";\\nimport { ICollateralEscrow } from \\\"../collateral/ICollateralEscrow.sol\\\";\\n\\n// Storage\\nimport { AppStorageLib } from \\\"../../storage/app.sol\\\";\\nimport { MarketStorageLib } from \\\"../../storage/market.sol\\\";\\n\\nlibrary LibCollateral {\\n    /**\\n     * @notice This event is emitted when collateral has been deposited for the loan\\n     * @param loanID ID of the loan for which collateral was deposited\\n     * @param depositor Account that deposited funds\\n     * @param amount Amount of collateral deposited\\n     */\\n    event CollateralDeposited(\\n        uint256 indexed loanID,\\n        address indexed depositor,\\n        uint256 amount\\n    );\\n\\n    /**\\n     * @notice This event is emitted when collateral has been withdrawn\\n     * @param loanID ID of loan from which collateral was withdrawn\\n     * @param receiver Account that received funds\\n     * @param amount Value of collateral withdrawn\\n     */\\n    event CollateralWithdrawn(\\n        uint256 indexed loanID,\\n        address indexed receiver,\\n        uint256 amount\\n    );\\n\\n    function e(uint256 loanID) internal view returns (ICollateralEscrow c_) {\\n        c_ = MarketStorageLib.store().collateralEscrows[\\n            MarketStorageLib.store().loans[loanID].collateralToken\\n        ];\\n    }\\n\\n    function e(address token) internal view returns (ICollateralEscrow c_) {\\n        c_ = MarketStorageLib.store().collateralEscrows[token];\\n    }\\n\\n    function deposit(uint256 loanID, uint256 amount) internal {\\n        e(loanID).deposit{ value: amount }(loanID, amount);\\n\\n        emit CollateralDeposited(loanID, msg.sender, amount);\\n    }\\n\\n    function withdraw(\\n        uint256 loanID,\\n        uint256 amount,\\n        address payable receiver\\n    ) internal {\\n        e(loanID).withdraw(loanID, amount, receiver);\\n\\n        emit CollateralWithdrawn(loanID, receiver, amount);\\n    }\\n\\n    function withdrawAll(uint256 loanID, address payable receiver) internal {\\n        withdraw(loanID, e(loanID).loanSupply(loanID), receiver);\\n    }\\n\\n    function createEscrow(address token) internal {\\n        // Check if collateral escrow exists\\n        if (address(e(token)) == address(0)) {\\n            // Create escrow\\n            address escrow =\\n                AppStorageLib.store().collateralEscrowBeacon.cloneProxy(\\\"\\\");\\n            ICollateralEscrow(escrow).init(\\n                token,\\n                // Check if collateral token is WETH\\n                token == AppStorageLib.store().assetAddresses[\\\"WETH\\\"]\\n            );\\n\\n            // Set max allowance\\n            IERC20(token).approve(escrow, type(uint256).max);\\n            // Save escrow address for loan\\n            MarketStorageLib.store().collateralEscrows[\\n                token\\n            ] = ICollateralEscrow(escrow);\\n        }\\n    }\\n}\\n\",\"keccak256\":\"0xd52b3e577480481b62d6a6c37f4ef596b7ec0120afbd6bc1a08b17923b926445\",\"license\":\"MIT\"},\"contracts/market/libraries/LibLoans.sol\":{\"content\":\"// SPDX-License-Identifier: MIT\\npragma solidity ^0.8.0;\\n\\n// Libraries\\nimport { LibEscrow } from \\\"../../escrow/libraries/LibEscrow.sol\\\";\\nimport { NumbersLib } from \\\"../../shared/libraries/NumbersLib.sol\\\";\\nimport {\\n    PlatformSettingsLib\\n} from \\\"../../settings/platform/libraries/PlatformSettingsLib.sol\\\";\\nimport { PriceAggLib } from \\\"../../price-aggregator/PriceAggLib.sol\\\";\\n\\n// Storage\\nimport {\\n    MarketStorageLib,\\n    MarketStorage,\\n    Loan,\\n    LoanStatus,\\n    LoanDebt,\\n    LoanTerms\\n} from \\\"../../storage/market.sol\\\";\\n\\nlibrary LibLoans {\\n    using NumbersLib for int256;\\n    using NumbersLib for uint256;\\n\\n    bytes32 internal constant ID = keccak256(\\\"LOANS\\\");\\n    uint32 internal constant SECONDS_PER_YEAR = 31536000;\\n\\n    function s() internal pure returns (MarketStorage storage) {\\n        return MarketStorageLib.store();\\n    }\\n\\n    function loan(uint256 loanID) internal view returns (Loan storage l_) {\\n        l_ = s().loans[loanID];\\n    }\\n\\n    function debt(uint256 loanID) internal view returns (LoanDebt storage d_) {\\n        d_ = s().loanDebt[loanID];\\n    }\\n\\n    function terms(uint256 loanID)\\n        internal\\n        view\\n        returns (LoanTerms storage t_)\\n    {\\n        t_ = s().loanTerms[loanID];\\n    }\\n\\n    /**\\n     * @notice Returns the total amount owed for a specified loan.\\n     * @param loanID The loan ID to get the total amount owed.\\n     * @return uint256 The total owed amount.\\n     */\\n    function getTotalOwed(uint256 loanID) internal view returns (uint256) {\\n        if (loan(loanID).status == LoanStatus.TermsSet) {\\n            uint256 interestOwed =\\n                getInterestOwedFor(loanID, terms(loanID).maxLoanAmount);\\n            return terms(loanID).maxLoanAmount + (interestOwed);\\n        } else if (loan(loanID).status == LoanStatus.Active) {\\n            return debt(loanID).principalOwed + (debt(loanID).interestOwed);\\n        }\\n        return 0;\\n    }\\n\\n    /**\\n     * @notice Returns the amount of interest owed for a given loan and loan amount.\\n     * @param loanID The loan ID to get the owed interest.\\n     * @param amountBorrow The principal of the loan to take out.\\n     * @return uint256 The interest owed.\\n     */\\n    function getInterestOwedFor(uint256 loanID, uint256 amountBorrow)\\n        internal\\n        view\\n        returns (uint256)\\n    {\\n        return amountBorrow.percent(uint16(getInterestRatio(loanID)));\\n    }\\n\\n    function getCollateralNeededInfo(uint256 loanID)\\n        internal\\n        view\\n        returns (\\n            uint256 neededInLendingTokens,\\n            uint256 neededInCollateralTokens,\\n            uint256 escrowLoanValue\\n        )\\n    {\\n        (neededInLendingTokens, escrowLoanValue) = getCollateralNeededInTokens(\\n            loanID\\n        );\\n\\n        if (neededInLendingTokens == 0) {\\n            neededInCollateralTokens = 0;\\n        } else {\\n            neededInCollateralTokens = PriceAggLib.valueFor(\\n                loan(loanID).lendingToken,\\n                loan(loanID).collateralToken,\\n                neededInLendingTokens\\n            );\\n        }\\n    }\\n\\n    /**\\n     * @notice Returns the minimum collateral value threshold, in the lending token, needed to take out the loan or for it be liquidated.\\n     * @dev If the loan status is TermsSet, then the value is whats needed to take out the loan.\\n     * @dev If the loan status is Active, then the value is the threshold at which the loan can be liquidated at.\\n     * @param loanID The loan ID to get needed collateral info for.\\n     * @return neededInLendingTokens int256 The minimum collateral value threshold required.\\n     * @return escrowLoanValue uint256 The value of the loan held in the escrow contract.\\n     */\\n    function getCollateralNeededInTokens(uint256 loanID)\\n        internal\\n        view\\n        returns (uint256 neededInLendingTokens, uint256 escrowLoanValue)\\n    {\\n        if (!_isActiveOrSet(loanID) || loan(loanID).collateralRatio == 0) {\\n            return (0, 0);\\n        }\\n\\n        /*\\n            The collateral to principal owed ratio is the sum of:\\n                * collateral buffer percent\\n                * loan interest rate\\n                * liquidation reward percent\\n                * X factor of additional collateral\\n        */\\n        // * To take out a loan (if status == TermsSet), the required collateral is (max loan amount * the collateral ratio).\\n        // * For the loan to not be liquidated (when status == Active), the minimum collateral is (principal owed * (X collateral factor + liquidation reward)).\\n        // * If the loan has an escrow account, the minimum collateral is ((principal owed - escrow value) * (X collateral factor + liquidation reward)).\\n        if (loan(loanID).status == LoanStatus.TermsSet) {\\n            neededInLendingTokens = _getLoanAmount(loanID).percent(\\n                loan(loanID).collateralRatio\\n            );\\n        } else {\\n            uint16 requiredRatio =\\n                loan(loanID).collateralRatio -\\n                    getInterestRatio(loanID) -\\n                    uint16(PlatformSettingsLib.getCollateralBufferValue());\\n\\n            neededInLendingTokens =\\n                debt(loanID).principalOwed +\\n                debt(loanID).interestOwed;\\n            escrowLoanValue = LibEscrow.calculateTotalValue(loanID);\\n            if (\\n                escrowLoanValue > 0 && neededInLendingTokens > escrowLoanValue\\n            ) {\\n                neededInLendingTokens -= escrowLoanValue;\\n            }\\n            neededInLendingTokens = neededInLendingTokens.percent(\\n                requiredRatio\\n            );\\n        }\\n    }\\n\\n    function canGoToEOAWithCollateralRatio(uint256 collateralRatio)\\n        internal\\n        view\\n        returns (bool)\\n    {\\n        return\\n            collateralRatio >=\\n            PlatformSettingsLib.getOverCollateralizedBufferValue();\\n    }\\n\\n    /**\\n     * @notice Returns the interest ratio based on the loan interest rate for the loan duration.\\n     * @notice There is a minimum threshold of 1%.\\n     * @dev The interest rate on the loan terms is APY.\\n     * @param loanID The loan ID to get the interest rate for.\\n     */\\n    function getInterestRatio(uint256 loanID)\\n        internal\\n        view\\n        returns (uint16 ratio_)\\n    {\\n        ratio_ = uint16(\\n            (uint64(loan(loanID).duration) * loan(loanID).interestRate) /\\n                SECONDS_PER_YEAR\\n        );\\n\\n        if (ratio_ == 0) {\\n            ratio_ = 1;\\n        }\\n    }\\n\\n    function _getLoanAmount(uint256 loanID) private view returns (uint256) {\\n        if (loan(loanID).status == LoanStatus.TermsSet) {\\n            return terms(loanID).maxLoanAmount;\\n        } else if (loan(loanID).status == LoanStatus.Active) {\\n            return loan(loanID).borrowedAmount;\\n        }\\n        return 0;\\n    }\\n\\n    function _isActiveOrSet(uint256 loanID) private view returns (bool) {\\n        LoanStatus status = loan(loanID).status;\\n        return status == LoanStatus.Active || status == LoanStatus.TermsSet;\\n    }\\n}\\n\",\"keccak256\":\"0x9bf9fae5b01110da7c5a5d2517fdea6aa880d5c1647ba6125c68cafad278499b\",\"license\":\"MIT\"},\"contracts/nft/ITellerNFT.sol\":{\"content\":\"// SPDX-License-Identifier: MIT\\npragma solidity ^0.8.0;\\npragma experimental ABIEncoderV2;\\n\\n// Interfaces\\nimport \\\"@openzeppelin/contracts/token/ERC721/extensions/IERC721Metadata.sol\\\";\\n\\ninterface ITellerNFT {\\n    struct Tier {\\n        uint256 baseLoanSize;\\n        string[] hashes;\\n        address contributionAsset;\\n        uint256 contributionSize;\\n        uint8 contributionMultiplier;\\n    }\\n\\n    /**\\n     * @notice The contract metadata URI.\\n     */\\n    function contractURI() external view returns (string memory);\\n\\n    /**\\n     * @notice It returns information about a Tier for a token ID.\\n     * @param index Tier index to get info.\\n     */\\n    function getTier(uint256 index) external view returns (Tier memory tier_);\\n\\n    /**\\n     * @notice It returns information about a Tier for a token ID.\\n     * @param tokenId ID of the token to get Tier info.\\n     */\\n    function getTokenTier(uint256 tokenId)\\n        external\\n        view\\n        returns (uint256 index_, Tier memory tier_);\\n\\n    /**\\n     * @notice It returns an array of token IDs owned by an address.\\n     * @dev It uses a EnumerableSet to store values and loops over each element to add to the array.\\n     * @dev Can be costly if calling within a contract for address with many tokens.\\n     */\\n    function getTierHashes(uint256 tierIndex)\\n        external\\n        view\\n        returns (string[] memory hashes_);\\n\\n    /**\\n     * @notice It returns an array of token IDs owned by an address.\\n     * @dev It uses a EnumerableSet to store values and loops over each element to add to the array.\\n     * @dev Can be costly if calling within a contract for address with many tokens.\\n     */\\n    function getOwnedTokens(address owner)\\n        external\\n        view\\n        returns (uint256[] memory owned);\\n\\n    /**\\n     * @notice It mints a new token for a Tier index.\\n     *\\n     * Requirements:\\n     *  - Caller must be an authorized minter\\n     */\\n    function mint(uint256 tierIndex, address owner) external;\\n\\n    /**\\n     * @notice Adds a new Tier to be minted with the given information.\\n     * @dev It auto increments the index of the next tier to add.\\n     * @param newTier Information about the new tier to add.\\n     *\\n     * Requirements:\\n     *  - Caller must have the {MINTER} role\\n     */\\n    function addTier(Tier memory newTier) external;\\n\\n    /**\\n     * @notice Sets the contract level metadata URI hash.\\n     * @param contractURIHash The hash to the initial contract level metadata.\\n     */\\n    function setContractURIHash(string memory contractURIHash) external;\\n\\n    /**\\n     * @notice Initializes the TellerNFT.\\n     * @param minters The addresses that should allowed to mint tokens.\\n     */\\n    function initialize(address[] calldata minters) external;\\n}\\n\",\"keccak256\":\"0x7c788b94c175b70eec6b10bfe0655616fc0beb2ce3ef70a6fa750f291d35106c\",\"license\":\"MIT\"},\"contracts/nft/TellerNFT.sol\":{\"content\":\"// SPDX-License-Identifier: MIT\\npragma solidity ^0.8.0;\\npragma experimental ABIEncoderV2;\\n\\n// Contracts\\nimport \\\"@openzeppelin/contracts-upgradeable/token/ERC721/ERC721Upgradeable.sol\\\";\\nimport \\\"@openzeppelin/contracts-upgradeable/access/AccessControlUpgradeable.sol\\\";\\n\\n// Libraries\\nimport \\\"@openzeppelin/contracts/utils/Counters.sol\\\";\\nimport \\\"@openzeppelin/contracts/utils/structs/EnumerableSet.sol\\\";\\nimport \\\"@openzeppelin/contracts/utils/math/SafeMath.sol\\\";\\n\\n// Interfaces\\nimport \\\"./ITellerNFT.sol\\\";\\n\\n/*****************************************************************************************************/\\n/**                                             WARNING                                             **/\\n/**                                  THIS CONTRACT IS UPGRADEABLE!                                  **/\\n/**  ---------------------------------------------------------------------------------------------  **/\\n/**  Do NOT change the order of or PREPEND any storage variables to this or new versions of this    **/\\n/**  contract as this will cause the the storage slots to be overwritten on the proxy contract!!    **/\\n/**                                                                                                 **/\\n/**  Visit https://docs.openzeppelin.com/upgrades/2.6/proxies#upgrading-via-the-proxy-pattern for   **/\\n/**  more information.                                                                              **/\\n/*****************************************************************************************************/\\n/**\\n * @notice This contract is used by borrowers to call Dapp functions (using delegate calls).\\n * @notice This contract should only be constructed using it's upgradeable Proxy contract.\\n * @notice In order to call a Dapp function, the Dapp must be added in the DappRegistry instance.\\n *\\n * @author develop@teller.finance\\n */\\ncontract TellerNFT is ITellerNFT, ERC721Upgradeable, AccessControlUpgradeable {\\n    using Counters for Counters.Counter;\\n    using EnumerableSet for EnumerableSet.UintSet;\\n    using SafeMath for uint256;\\n\\n    /* Constants */\\n\\n    bytes32 public constant ADMIN = keccak256(\\\"ADMIN\\\");\\n    bytes32 public constant MINTER = keccak256(\\\"MINTER\\\");\\n\\n    /* State Variables */\\n\\n    // It holds the total number of tiers.\\n    Counters.Counter internal _tierCounter;\\n\\n    // It holds the total number of tokens minted.\\n    Counters.Counter internal _tokenCounter;\\n\\n    // It holds the information about a tier.\\n    mapping(uint256 => Tier) internal _tiers;\\n\\n    // It holds which tier a token ID is in.\\n    mapping(uint256 => uint256) internal _tokenTier;\\n\\n    // It holds a set of token IDs for an owner address.\\n    mapping(address => EnumerableSet.UintSet) internal _ownerTokenIDs;\\n\\n    // Link to the contract metadata\\n    string private _metadataBaseURI;\\n\\n    // Hash to the contract metadata located on the {_metadataBaseURI}\\n    string private _contractURIHash;\\n\\n    /* Modifiers */\\n\\n    modifier onlyAdmin() {\\n        require(hasRole(ADMIN, _msgSender()), \\\"TellerNFT: not admin\\\");\\n        _;\\n    }\\n\\n    modifier onlyMinter() {\\n        require(hasRole(MINTER, _msgSender()), \\\"TellerNFT: not minter\\\");\\n        _;\\n    }\\n\\n    /* External Functions */\\n\\n    /**\\n     * @notice It returns information about a Tier for a token ID.\\n     * @param index Tier index to get info.\\n     */\\n    function getTier(uint256 index)\\n        external\\n        view\\n        override\\n        returns (Tier memory tier_)\\n    {\\n        tier_ = _tiers[index];\\n    }\\n\\n    /**\\n     * @notice It returns information about a Tier for a token ID.\\n     * @param tokenId ID of the token to get Tier info.\\n     */\\n    function getTokenTier(uint256 tokenId)\\n        external\\n        view\\n        override\\n        returns (uint256 index_, Tier memory tier_)\\n    {\\n        index_ = _tokenTier[tokenId];\\n        tier_ = _tiers[index_];\\n    }\\n\\n    /**\\n     * @notice It returns an array of token IDs owned by an address.\\n     * @dev It uses a EnumerableSet to store values and loops over each element to add to the array.\\n     * @dev Can be costly if calling within a contract for address with many tokens.\\n     */\\n    function getTierHashes(uint256 tierIndex)\\n        external\\n        view\\n        override\\n        returns (string[] memory hashes_)\\n    {\\n        hashes_ = _tiers[tierIndex].hashes;\\n    }\\n\\n    /**\\n     * @notice It returns an array of token IDs owned by an address.\\n     * @dev It uses a EnumerableSet to store values and loops over each element to add to the array.\\n     * @dev Can be costly if calling within a contract for address with many tokens.\\n     */\\n    function getOwnedTokens(address owner)\\n        external\\n        view\\n        override\\n        returns (uint256[] memory owned_)\\n    {\\n        EnumerableSet.UintSet storage set = _ownerTokenIDs[owner];\\n        owned_ = new uint256[](set.length());\\n        for (uint256 i; i < owned_.length; i++) {\\n            owned_[i] = set.at(i);\\n        }\\n    }\\n\\n    /**\\n     * @notice The contract metadata URI.\\n     */\\n    function contractURI() external view override returns (string memory) {\\n        return _contractURIHash;\\n    }\\n\\n    /**\\n     * @notice The token URI is based on the token ID.\\n     */\\n    function tokenURI(uint256 tokenId)\\n        public\\n        view\\n        override\\n        returns (string memory)\\n    {\\n        require(_exists(tokenId), \\\"TellerNFT: URI query for nonexistent token\\\");\\n\\n        string memory baseURI = _baseURI();\\n        return\\n            bytes(baseURI).length > 0\\n                ? string(abi.encodePacked(baseURI, _tokenURIHash(tokenId)))\\n                : \\\"\\\";\\n    }\\n\\n    /**\\n     * @notice It mints a new token for a Tier index.\\n     * @param tierIndex Tier to mint token on.\\n     * @param owner The owner of the new token.\\n     *\\n     * Requirements:\\n     *  - Caller must be an authorized minter\\n     */\\n    function mint(uint256 tierIndex, address owner)\\n        external\\n        override\\n        onlyMinter\\n    {\\n        // Get the new token ID\\n        uint256 tokenId = _tokenCounter.current();\\n        _tokenCounter.increment();\\n\\n        // Mint and set the token to the tier index\\n        _safeMint(owner, tokenId);\\n        _tokenTier[tokenId] = tierIndex;\\n\\n        // Set owner\\n        _setOwner(owner, tokenId);\\n    }\\n\\n    /**\\n     * @notice Adds a new Tier to be minted with the given information.\\n     * @dev It auto increments the index of the next tier to add.\\n     * @param newTier Information about the new tier to add.\\n     *\\n     * Requirements:\\n     *  - Caller must have the {MINTER} role\\n     */\\n    function addTier(Tier memory newTier) external override onlyMinter {\\n        Tier storage tier = _tiers[_tierCounter.current()];\\n\\n        tier.baseLoanSize = newTier.baseLoanSize;\\n        tier.hashes = newTier.hashes;\\n        tier.contributionAsset = newTier.contributionAsset;\\n        tier.contributionSize = newTier.contributionSize;\\n        tier.contributionMultiplier = newTier.contributionMultiplier;\\n\\n        _tierCounter.increment();\\n    }\\n\\n    function removeMinter(address minter) external onlyMinter {\\n        revokeRole(MINTER, minter);\\n    }\\n\\n    function addMinter(address minter) public onlyMinter {\\n        _setupRole(MINTER, minter);\\n    }\\n\\n    /**\\n     * @notice Sets the contract level metadata URI hash.\\n     * @param contractURIHash The hash to the initial contract level metadata.\\n     */\\n    function setContractURIHash(string memory contractURIHash)\\n        external\\n        override\\n        onlyAdmin\\n    {\\n        _contractURIHash = contractURIHash;\\n    }\\n\\n    /**\\n     * @notice Initializes the TellerNFT.\\n     * @param minters The addresses that should allowed to mint tokens.\\n     */\\n    function initialize(address[] calldata minters)\\n        external\\n        override\\n        initializer\\n    {\\n        __ERC721_init(\\\"Teller NFT\\\", \\\"TNFT\\\");\\n        __AccessControl_init();\\n\\n        for (uint256 i; i < minters.length; i++) {\\n            _setupRole(MINTER, minters[i]);\\n        }\\n\\n        _metadataBaseURI = \\\"https://gateway.pinata.cloud/ipfs/\\\";\\n        _contractURIHash = \\\"QmWAfQFFwptzRUCdF2cBFJhcB2gfHJMd7TQt64dZUysk3R\\\";\\n    }\\n\\n    function supportsInterface(bytes4 interfaceId)\\n        public\\n        view\\n        override(AccessControlUpgradeable, ERC721Upgradeable)\\n        returns (bool)\\n    {\\n        return\\n            interfaceId == type(ITellerNFT).interfaceId ||\\n            ERC721Upgradeable.supportsInterface(interfaceId) ||\\n            AccessControlUpgradeable.supportsInterface(interfaceId);\\n    }\\n\\n    /**\\n     * @notice It returns the hash to use for the token URI.\\n     */\\n    function _tokenURIHash(uint256 tokenId)\\n        internal\\n        view\\n        returns (string memory)\\n    {\\n        string[] storage tierImageHashes = _tiers[_tokenTier[tokenId]].hashes;\\n        return tierImageHashes[tokenId.mod(tierImageHashes.length)];\\n    }\\n\\n    /**\\n     * @notice The base URI path where the token media is hosted.\\n     * @dev Base URI for computing {tokenURI}.\\n     */\\n    function _baseURI() internal view override returns (string memory) {\\n        return _metadataBaseURI;\\n    }\\n\\n    /**\\n     * @notice Moves token to new owner set and then transfers.\\n     */\\n    function _transfer(\\n        address from,\\n        address to,\\n        uint256 tokenId\\n    ) internal override {\\n        _setOwner(to, tokenId);\\n        super._transfer(from, to, tokenId);\\n    }\\n\\n    /**\\n     * @notice It removes the token from the current owner set and adds to new owner.\\n     */\\n    function _setOwner(address newOwner, uint256 tokenId) internal {\\n        address currentOwner = ownerOf(tokenId);\\n        if (currentOwner != address(0)) {\\n            _ownerTokenIDs[currentOwner].remove(tokenId);\\n        }\\n        _ownerTokenIDs[newOwner].add(tokenId);\\n    }\\n\\n    function _msgData() internal pure override returns (bytes calldata) {\\n        return msg.data;\\n    }\\n}\\n\",\"keccak256\":\"0x39fd6d70fd1aa5ae45465d7eeb38f74e2bf90535c2510782fb0bb5f720250ac5\",\"license\":\"MIT\"},\"contracts/nft/libraries/NFTLib.sol\":{\"content\":\"// SPDX-License-Identifier: MIT\\npragma solidity ^0.8.0;\\n\\n// Contracts\\nimport { TellerNFT } from \\\"../TellerNFT.sol\\\";\\n\\n// Libraries\\nimport {\\n    MerkleProof\\n} from \\\"@openzeppelin/contracts/utils/cryptography/MerkleProof.sol\\\";\\nimport {\\n    EnumerableSet\\n} from \\\"@openzeppelin/contracts/utils/structs/EnumerableSet.sol\\\";\\n\\n// Storage\\nimport { AppStorageLib, AppStorage } from \\\"../../storage/app.sol\\\";\\nimport { NFTStorageLib, NFTStorage } from \\\"../../storage/nft.sol\\\";\\n\\nstruct NftLoanSizeProof {\\n    uint256 id;\\n    uint256 baseLoanSize;\\n    bytes32[] proof;\\n}\\n\\nlibrary NFTLib {\\n    function s() internal pure returns (NFTStorage storage s_) {\\n        s_ = NFTStorageLib.store();\\n    }\\n\\n    function nft() internal view returns (TellerNFT nft_) {\\n        nft_ = AppStorageLib.store().nft;\\n    }\\n\\n    function stake(uint256 nftID, address owner) internal {\\n        // Transfer to diamond\\n        NFTLib.nft().transferFrom(msg.sender, address(this), nftID);\\n        // Add NFT ID to user set\\n        EnumerableSet.add(s().stakedNFTs[owner], nftID);\\n    }\\n\\n    function unstake(uint256 nftID) internal returns (bool success_) {\\n        success_ = EnumerableSet.remove(s().stakedNFTs[msg.sender], nftID);\\n    }\\n\\n    function stakedNFTs(address nftOwner)\\n        internal\\n        view\\n        returns (uint256[] memory staked_)\\n    {\\n        EnumerableSet.UintSet storage nfts = s().stakedNFTs[nftOwner];\\n        staked_ = new uint256[](EnumerableSet.length(nfts));\\n        for (uint256 i; i < staked_.length; i++) {\\n            staked_[i] = EnumerableSet.at(nfts, i);\\n        }\\n    }\\n\\n    function liquidateNFT(uint256 loanID) internal {\\n        // Check if NFTs are linked\\n        EnumerableSet.UintSet storage nfts = s().loanNFTs[loanID];\\n        for (uint256 i; i < EnumerableSet.length(nfts); i++) {\\n            NFTLib.nft().transferFrom(\\n                address(this),\\n                AppStorageLib.store().nftLiquidationController,\\n                EnumerableSet.at(nfts, i)\\n            );\\n        }\\n    }\\n\\n    function applyToLoan(uint256 loanID, NftLoanSizeProof calldata proof)\\n        internal\\n    {\\n        // NFT must be currently staked\\n        // Remove NFT from being staked - returns bool\\n        require(unstake(proof.id), \\\"Teller: borrower nft not staked\\\");\\n\\n        require(verifyLoanSize(proof), \\\"Teller invalid nft proof\\\");\\n\\n        // Apply NFT to loan\\n        EnumerableSet.add(s().loanNFTs[loanID], proof.id);\\n    }\\n\\n    function restakeLinked(uint256 loanID, address owner) internal {\\n        // Get linked NFT\\n        EnumerableSet.UintSet storage nfts = s().loanNFTs[loanID];\\n        for (uint256 i; i < EnumerableSet.length(nfts); i++) {\\n            // Restake the NFT\\n            EnumerableSet.add(s().stakedNFTs[owner], EnumerableSet.at(nfts, i));\\n        }\\n    }\\n\\n    function verifyLoanSize(NftLoanSizeProof calldata proof)\\n        internal\\n        view\\n        returns (bool verified_)\\n    {\\n        verified_ = MerkleProof.verify(\\n            proof.proof,\\n            s().nftMerkleRoot,\\n            keccak256(abi.encodePacked(proof.id, proof.baseLoanSize))\\n        );\\n    }\\n}\\n\",\"keccak256\":\"0x99ba27095901d86a4d1e1b9ec3a603fbbf7c67ada2ccd11cd5ed0435e5c3c66d\",\"license\":\"MIT\"},\"contracts/price-aggregator/PriceAggFacet.sol\":{\"content\":\"// SPDX-License-Identifier: MIT\\npragma solidity ^0.8.0;\\n\\n// Libraries\\nimport { SafeCast } from \\\"@openzeppelin/contracts/utils/math/SafeCast.sol\\\";\\nimport { ChainlinkLib } from \\\"./chainlink/ChainlinkLib.sol\\\";\\nimport { CompoundLib } from \\\"../shared/libraries/CompoundLib.sol\\\";\\n\\n// Interfaces\\nimport {\\n    AggregatorV2V3Interface\\n} from \\\"@chainlink/contracts/src/v0.8/interfaces/AggregatorV2V3Interface.sol\\\";\\nimport { ERC20 } from \\\"@openzeppelin/contracts/token/ERC20/ERC20.sol\\\";\\n\\n// Storage\\nimport { AppStorageLib } from \\\"../storage/app.sol\\\";\\n\\ncontract PriceAggFacet {\\n    uint256 internal constant TEN = 10;\\n\\n    /**\\n     * @notice It returns the price of the token pair as given from the Chainlink Aggregator.\\n     * @dev It tries to use ETH as a pass through asset if the direct pair is not supported.\\n     * @param src Source token address.\\n     * @param dst Destination token address.\\n     * @return int256 The latest answer as given from Chainlink.\\n     */\\n    function getPriceFor(address src, address dst)\\n        external\\n        view\\n        returns (int256)\\n    {\\n        return _priceFor(src, dst);\\n    }\\n\\n    /**\\n     * @notice It calculates the value of a token amount into another.\\n     * @param src Source token address.\\n     * @param dst Destination token address.\\n     * @param srcAmount Amount of the source token to convert into the destination token.\\n     * @return uint256 Value of the source token amount in destination tokens.\\n     */\\n    function getValueFor(\\n        address src,\\n        address dst,\\n        uint256 srcAmount\\n    ) external view returns (uint256) {\\n        return _valueFor(src, srcAmount, uint256(_priceFor(src, dst)));\\n    }\\n\\n    function _valueFor(\\n        address src,\\n        uint256 amount,\\n        uint256 exchangeRate\\n    ) internal view returns (uint256) {\\n        return (amount * exchangeRate) / _oneToken(src);\\n    }\\n\\n    function _oneToken(address token) internal view returns (uint256) {\\n        return TEN**_decimalsFor(token);\\n    }\\n\\n    /**\\n     * @dev It gets the number of decimals for a given token.\\n     * @param addr Token address to get decimals for.\\n     * @return uint8 Number of decimals the given token.\\n     */\\n    function _decimalsFor(address addr) internal view returns (uint8) {\\n        return ERC20(addr).decimals();\\n    }\\n\\n    /**\\n     * @dev Tries to calculate a price from Compound and Chainlink.\\n     */\\n    function _priceFor(address src, address dst)\\n        private\\n        view\\n        returns (int256 price_)\\n    {\\n        // If no Compound route, try Chainlink directly.\\n        price_ = int256(_compoundPriceFor(src, dst));\\n        if (price_ == 0) {\\n            price_ = _chainlinkPriceFor(src, dst);\\n            if (price_ == 0) {\\n                revert(\\\"Teller: cannot calc price\\\");\\n            }\\n        }\\n    }\\n\\n    /**\\n     * @dev Tries to get a price from {src} to {dst} by checking if either tokens are from Compound.\\n     */\\n    function _compoundPriceFor(address src, address dst)\\n        private\\n        view\\n        returns (uint256)\\n    {\\n        (bool isSrcCompound, address srcUnderlying) = _isCToken(src);\\n        if (isSrcCompound) {\\n            uint256 cRate = CompoundLib.valueInUnderlying(src, _oneToken(src));\\n            if (srcUnderlying == dst) {\\n                return cRate;\\n            } else {\\n                return _calcPriceFromCompoundRate(srcUnderlying, dst, cRate);\\n            }\\n        } else {\\n            (bool isDstCompound, address dstUnderlying) = _isCToken(dst);\\n            if (isDstCompound) {\\n                uint256 cRate =\\n                    CompoundLib.valueOfUnderlying(dst, _oneToken(src));\\n                if (dstUnderlying == src) {\\n                    return cRate;\\n                } else {\\n                    return\\n                        _calcPriceFromCompoundRate(src, dstUnderlying, cRate);\\n                }\\n            }\\n        }\\n\\n        return 0;\\n    }\\n\\n    /**\\n     * @dev Tries to get a price from {src} to {dst} and then converts using a rate from Compound.\\n     */\\n    function _calcPriceFromCompoundRate(\\n        address src,\\n        address dst,\\n        uint256 cRate\\n    ) private view returns (uint256) {\\n        uint256 rate = uint256(_chainlinkPriceFor(src, dst));\\n        uint256 value = (cRate * _oneToken(dst)) / rate;\\n        return _scale(value, _decimalsFor(src), _decimalsFor(dst));\\n    }\\n\\n    /**\\n     * @dev Scales the {value} by the difference in decimal values.\\n     */\\n    function _scale(\\n        uint256 value,\\n        uint256 srcDecimals,\\n        uint256 dstDecimals\\n    ) internal pure returns (uint256) {\\n        if (dstDecimals > srcDecimals) {\\n            return value * (TEN**(dstDecimals - srcDecimals));\\n        } else {\\n            return value / (TEN**(srcDecimals - dstDecimals));\\n        }\\n    }\\n\\n    /**\\n     * @dev Tries to calculate the price of {src} in {dst}\\n     */\\n    function _chainlinkPriceFor(address src, address dst)\\n        private\\n        view\\n        returns (int256)\\n    {\\n        (address agg, bool foundAgg, bool inverse) =\\n            ChainlinkLib.aggregatorFor(src, dst);\\n        if (foundAgg) {\\n            uint256 price =\\n                SafeCast.toUint256(AggregatorV2V3Interface(agg).latestAnswer());\\n            uint8 resDecimals = AggregatorV2V3Interface(agg).decimals();\\n            if (inverse) {\\n                price = (TEN**(resDecimals + resDecimals)) / price;\\n            }\\n            return\\n                SafeCast.toInt256(\\n                    (_scale(price, resDecimals, _decimalsFor(dst)))\\n                );\\n        } else {\\n            address WETH = AppStorageLib.store().assetAddresses[\\\"WETH\\\"];\\n            if (dst != WETH) {\\n                int256 price1 = _priceFor(src, WETH);\\n                if (price1 > 0) {\\n                    int256 price2 = _priceFor(dst, WETH);\\n                    if (price2 > 0) {\\n                        uint256 dstFactor = TEN**_decimalsFor(dst);\\n                        return (price1 * int256(dstFactor)) / price2;\\n                    }\\n                }\\n            }\\n        }\\n\\n        return 0;\\n    }\\n\\n    function _isCToken(address token)\\n        private\\n        view\\n        returns (bool isCToken, address underlying)\\n    {\\n        isCToken = CompoundLib.isCompoundToken(token);\\n        if (isCToken) {\\n            underlying = CompoundLib.getUnderlying(token);\\n        }\\n    }\\n}\\n\",\"keccak256\":\"0xf84fd8d9a179ca7a70e75677870bdd7a5be7da097cf5f1bccf1c9f93253bda90\",\"license\":\"MIT\"},\"contracts/price-aggregator/PriceAggLib.sol\":{\"content\":\"// SPDX-License-Identifier: MIT\\npragma solidity ^0.8.0;\\n\\nimport { PriceAggFacet } from \\\"./PriceAggFacet.sol\\\";\\n\\n// Storage\\nimport { AppStorageLib } from \\\"../storage/app.sol\\\";\\n\\n/**\\n * @notice Helper functions to staticcall into the PriceAggFacet from other facets. See {PriceAggFacet.getPriceFor}\\n */\\nlibrary PriceAggLib {\\n    /**\\n     * @notice See {PriceAggFacet.getValueFor}\\n     */\\n    function valueFor(\\n        address src,\\n        address dst,\\n        uint256 srcAmount\\n    ) internal view returns (uint256 value_) {\\n        value_ = PriceAggFacet(address(this)).getValueFor(src, dst, srcAmount);\\n    }\\n\\n    /**\\n     * @notice See {PriceAggFacet.getPriceFor}\\n     */\\n    function priceFor(address src, address dst)\\n        internal\\n        view\\n        returns (int256 price_)\\n    {\\n        price_ = PriceAggFacet(address(this)).getPriceFor(src, dst);\\n    }\\n}\\n\",\"keccak256\":\"0x510633e39e7a30533d703eb7ec314c037772721fdb7cea96046cd6837bcb76c3\",\"license\":\"MIT\"},\"contracts/price-aggregator/chainlink/ChainlinkLib.sol\":{\"content\":\"// SPDX-License-Identifier: MIT\\npragma solidity ^0.8.0;\\n\\n// Libraries\\nimport {\\n    EnumerableSet\\n} from \\\"@openzeppelin/contracts/utils/structs/EnumerableSet.sol\\\";\\n\\n// Storage\\nimport {\\n    PriceAggStorageLib,\\n    ChainlinkAggStorage\\n} from \\\"../../storage/price-aggregator.sol\\\";\\n\\nlibrary ChainlinkLib {\\n    function s() internal view returns (ChainlinkAggStorage storage) {\\n        return PriceAggStorageLib.store().chainlink;\\n    }\\n\\n    /**\\n     * @notice It grabs the Chainlink Aggregator contract address for the token pair if it is supported.\\n     * @param src Source token address.\\n     * @param dst Destination token address.\\n     * @return aggregator The Chainlink Aggregator address.\\n     * @return found whether or not the ChainlinkAggregator exists.\\n     * @return inverse whether or not the values from the Aggregator should be considered inverted.\\n     */\\n    function aggregatorFor(address src, address dst)\\n        internal\\n        view\\n        returns (\\n            address aggregator,\\n            bool found,\\n            bool inverse\\n        )\\n    {\\n        aggregator = s().aggregators[src][dst];\\n        if (aggregator != address(0)) {\\n            found = true;\\n        } else {\\n            aggregator = s().aggregators[dst][src];\\n            if (aggregator != address(0)) {\\n                found = true;\\n                inverse = true;\\n            }\\n        }\\n    }\\n\\n    /**\\n     * @dev Checks if a token address is supported by Chainlink (has a pair aggregator).\\n     * @param token Token address to check if is supported.\\n     * @return isSupported_ true if there is at least 1 pair aggregator for {token}\\n     */\\n    function isTokenSupported(address token)\\n        internal\\n        view\\n        returns (bool isSupported_)\\n    {\\n        isSupported_ = EnumerableSet.contains(s().supportedTokens, token);\\n    }\\n}\\n\",\"keccak256\":\"0x84fcff4e22dcf0a954794b08f4a5e66cb0b9522a74cccb7d80c07e7032440f42\",\"license\":\"MIT\"},\"contracts/settings/pausable/PausableMods.sol\":{\"content\":\"// SPDX-License-Identifier: MIT\\npragma solidity ^0.8.0;\\n\\nimport { AppStorageLib } from \\\"../../storage/app.sol\\\";\\n\\nabstract contract PausableMods {\\n    /**\\n     * @notice Requires that the state of the protocol AND the given facet id equal {state}.\\n     * @param id id of the facet to check if is paused.\\n     * @param state Boolean that the protocol AND facet should be in.\\n     */\\n    modifier paused(bytes32 id, bool state) {\\n        require(\\n            __isPaused(\\\"\\\") == state && __isPaused(id) == state,\\n            __pausedMessage(state)\\n        );\\n        _;\\n    }\\n\\n    /**\\n     * @dev Checks if the given id is paused.\\n     * @param id Encoded id of the facet to check if is paused.\\n     */\\n    function __isPaused(bytes32 id) private view returns (bool) {\\n        return AppStorageLib.store().paused[id];\\n    }\\n\\n    /**\\n     * @dev Gets the message that should be reverted with given a state it should be in.\\n     * @param state Boolean that an id should be in.\\n     */\\n    function __pausedMessage(bool state) private pure returns (string memory) {\\n        return state ? \\\"Pausable: not paused\\\" : \\\"Pausable: paused\\\";\\n    }\\n}\\n\",\"keccak256\":\"0x772d8b9b63e9b8e78f243a70988f1a1e1100272cf317259ea173829f7b9bdf0e\",\"license\":\"MIT\"},\"contracts/settings/platform/libraries/PlatformSettingsLib.sol\":{\"content\":\"// SPDX-License-Identifier: MIT\\npragma solidity ^0.8.0;\\n\\nimport { AppStorageLib } from \\\"../../../storage/app.sol\\\";\\nimport \\\"../names.sol\\\" as NAMES;\\nimport {\\n    RolesMods\\n} from \\\"../../../contexts2/access-control/roles/RolesMods.sol\\\";\\nimport { ADMIN, AUTHORIZED } from \\\"../../../shared/roles.sol\\\";\\nimport { RolesLib } from \\\"../../../contexts2/access-control/roles/RolesLib.sol\\\";\\n\\n// It defines a platform settings. It includes: value, min, and max values.\\nstruct PlatformSetting {\\n    uint256 value;\\n    uint256 min;\\n    uint256 max;\\n    bool exists;\\n}\\n\\n/**\\n * @notice Utility library of inline functions on the PlatformSetting struct.\\n *\\n * @author develop@teller.finance\\n */\\nlibrary PlatformSettingsLib {\\n    function s(bytes32 name) internal view returns (PlatformSetting storage) {\\n        return AppStorageLib.store().platformSettings[name];\\n    }\\n\\n    /**\\n     * @notice It gets the current \\\"RequiredSubmissionsPercentage\\\" setting's value\\n     * @return value_ the current value.\\n     */\\n    function getRequiredSubmissionsPercentageValue()\\n        internal\\n        view\\n        returns (uint256 value_)\\n    {\\n        value_ = s(NAMES.REQUIRED_SUBMISSIONS_PERCENTAGE).value;\\n    }\\n\\n    /**\\n     * @notice It gets the current \\\"MaximumTolerance\\\" setting's value\\n     * @return value_ the current value.\\n     */\\n    function getMaximumToleranceValue() internal view returns (uint256 value_) {\\n        value_ = s(NAMES.MAXIMUM_TOLERANCE).value;\\n    }\\n\\n    /**\\n     * @notice It gets the current \\\"ResponseExpiryLength\\\" setting's value\\n     * @return value_ the current value.\\n     */\\n    function getResponseExpiryLengthValue()\\n        internal\\n        view\\n        returns (uint256 value_)\\n    {\\n        value_ = s(NAMES.RESPONSE_EXPIRY_LENGTH).value;\\n    }\\n\\n    /**\\n     * @notice It gets the current \\\"SafetyInterval\\\" setting's value\\n     * @return value_ the current value.\\n     */\\n    function getSafetyIntervalValue() internal view returns (uint256 value_) {\\n        value_ = s(NAMES.SAFETY_INTERVAL).value;\\n    }\\n\\n    /**\\n     * @notice It gets the current \\\"TermsExpiryTime\\\" setting's value\\n     * @return value_ the current value.\\n     */\\n    function getTermsExpiryTimeValue() internal view returns (uint256 value_) {\\n        value_ = s(NAMES.TERMS_EXPIRY_TIME).value;\\n    }\\n\\n    /**\\n     * @notice It gets the current \\\"LiquidateRewardPercent\\\" setting's value\\n     * @return value_ the current value.\\n     */\\n    function getLiquidateRewardPercent()\\n        internal\\n        view\\n        returns (uint256 value_)\\n    {\\n        value_ = s(NAMES.LIQUIDATE_REWARD_PERCENT).value;\\n    }\\n\\n    /**\\n     * @notice It gets the current \\\"MaximumLoanDuration\\\" setting's value\\n     * @return value_ the current value.\\n     */\\n    function getMaximumLoanDurationValue()\\n        internal\\n        view\\n        returns (uint256 value_)\\n    {\\n        value_ = s(NAMES.MAXIMUM_LOAN_DURATION).value;\\n    }\\n\\n    /**\\n     * @notice It gets the current \\\"RequestLoanTermsRateLimit\\\" setting's value\\n     * @return value_ the current value.\\n     */\\n    function getRequestLoanTermsRateLimitValue()\\n        internal\\n        view\\n        returns (uint256 value_)\\n    {\\n        value_ = s(NAMES.REQUEST_LOAN_TERMS_RATE_LIMIT).value;\\n    }\\n\\n    /**\\n     * @notice It gets the current \\\"CollateralBuffer\\\" setting's value\\n     * @return value_ the current value.\\n     */\\n    function getCollateralBufferValue() internal view returns (uint256 value_) {\\n        value_ = s(NAMES.COLLATERAL_BUFFER).value;\\n    }\\n\\n    /**\\n     * @notice It gets the current \\\"OverCollateralizedBuffer\\\" setting's value\\n     * @return value_ the current value.\\n     */\\n    function getOverCollateralizedBufferValue()\\n        internal\\n        view\\n        returns (uint256 value_)\\n    {\\n        value_ = s(NAMES.OVER_COLLATERALIZED_BUFFER).value;\\n    }\\n}\\n\",\"keccak256\":\"0xbeef1937dc1ed1f6f78b80f0737f018565ab264184cf05ef54c3c28ecd55a09b\",\"license\":\"MIT\"},\"contracts/settings/platform/names.sol\":{\"content\":\"// SPDX-License-Identifier: MIT\\npragma solidity ^0.8.0;\\n\\n/**\\n        @dev The setting name for the required subsmission settings.\\n        @dev This is the minimum percentage of node responses that will be required by the platform to either take out a loan, and to claim accrued interest. If the number of node responses are less than the ones specified here, the loan or accrued interest claim request will be rejected by the platform\\n     */\\nbytes32 constant REQUIRED_SUBMISSIONS_PERCENTAGE = keccak256(\\n    \\\"RequiredSubmissionsPercentage\\\"\\n);\\n\\n/**\\n        @dev The setting name for the maximum tolerance settings.\\n        @dev This is the maximum tolerance for the values submitted (by nodes) when they are aggregated (average). It is used in the consensus mechanisms.\\n        @dev This is a percentage value with 2 decimal places.\\n            i.e. maximumTolerance of 325 => tolerance of 3.25% => 0.0325 of value\\n            i.e. maximumTolerance of 0 => It means all the values submitted must be equals.\\n        @dev The max value is 100% => 10000\\n     */\\nbytes32 constant MAXIMUM_TOLERANCE = keccak256(\\\"MaximumTolerance\\\");\\n/**\\n        @dev The setting name for the response expiry length settings.\\n        @dev This is the maximum time (in seconds) a node has to submit a response. After that time, the response is considered expired and will not be accepted by the protocol.\\n     */\\n\\nbytes32 constant RESPONSE_EXPIRY_LENGTH = keccak256(\\\"ResponseExpiryLength\\\");\\n\\n/**\\n        @dev The setting name for the safety interval settings.\\n        @dev This is the minimum time you need to wait (in seconds) between the last time you deposit collateral and you take out the loan.\\n        @dev It is used to avoid potential attacks using Flash Loans (AAVE) or Flash Swaps (Uniswap V2).\\n     */\\nbytes32 constant SAFETY_INTERVAL = keccak256(\\\"SafetyInterval\\\");\\n\\n/**\\n        @dev The setting name for the term expiry time settings.\\n        @dev This represents the time (in seconds) that loan terms will be available after requesting them.\\n        @dev After this time, the loan terms will expire and the borrower will need to request it again.\\n     */\\nbytes32 constant TERMS_EXPIRY_TIME = keccak256(\\\"TermsExpiryTime\\\");\\n\\n/**\\n        @dev The setting name for the liquidation reward percent setting.\\n        @dev It represents the percentage value (with 2 decimal places) for the MAX liquidation reward.\\n            i.e. an ETH liquidation price at 5% is stored as 500\\n     */\\nbytes32 constant LIQUIDATE_REWARD_PERCENT = keccak256(\\\"LiquidateRewardPercent\\\");\\n\\n/**\\n        @dev The setting name for the maximum loan duration settings.\\n        @dev The maximum loan duration setting is defined in seconds. Loans will not be given for timespans larger than the one specified here.\\n     */\\nbytes32 constant MAXIMUM_LOAN_DURATION = keccak256(\\\"MaximumLoanDuration\\\");\\n\\n/**\\n        @dev The setting name for the request loan terms rate limit settings.\\n        @dev The request loan terms rate limit setting is defined in seconds.\\n     */\\nbytes32 constant REQUEST_LOAN_TERMS_RATE_LIMIT = keccak256(\\n    \\\"RequestLoanTermsRateLimit\\\"\\n);\\n\\n/**\\n        @dev The setting name for the collateral buffer.\\n        @dev The collateral buffer is a safety buffer above the required collateral amount to liquidate a loan. It is required to ensure the loan does not get liquidated immediately after the loan is taken out if the value of the collateral asset deposited drops drastically.\\n        @dev It represents the percentage value (with 2 decimal places) of a collateral buffer.\\n            e.g.: collateral buffer at 100% is stored as 10000.\\n     */\\nbytes32 constant COLLATERAL_BUFFER = keccak256(\\\"CollateralBuffer\\\");\\n\\n/**\\n        @dev The setting name for the over collateralized buffer.\\n        @dev The over collateralized buffer is the minimum required collateral ratio in order for a loan to be taken out without an Escrow contract and for the funds to go to the borrower's EOA (external overridely owned account).\\n        @dev It represents the percentage value (with 2 decimal places) of a over collateralized buffer.\\n            e.g.: over collateralized buffer at 130% is stored as 13000.\\n     */\\nbytes32 constant OVER_COLLATERALIZED_BUFFER = keccak256(\\n    \\\"OverCollateralizedBuffer\\\"\\n);\\n\",\"keccak256\":\"0xacf6bcb8c4afd2f337a0161e8be64b016c1b350d336cd862245dd922fcd10f33\",\"license\":\"MIT\"},\"contracts/shared/interfaces/ICErc20.sol\":{\"content\":\"// SPDX-License-Identifier: MIT\\npragma solidity ^0.8.0;\\n\\nimport \\\"./IComptroller.sol\\\";\\n\\ninterface ICErc20 {\\n    /*** User Interface ***/\\n\\n    /**\\n        @notice The mint function transfers an asset into the protocol, which begins accumulating interest based on the current Supply Rate for the asset. The user receives a quantity of cTokens equal to the underlying tokens supplied, divided by the current Exchange Rate.\\n        @param mintAmount The amount of the asset to be supplied, in units of the underlying asset.\\n        @return 0 on success, otherwise an Error code\\n        @dev msg.sender The account which shall supply the asset, and own the minted cTokens.\\n        @dev Before supplying an asset, users must first approve the cToken to access their token balance.\\n     */\\n    function mint(uint256 mintAmount) external returns (uint256);\\n\\n    /**\\n        @notice The redeem function converts a specified quantity of cTokens into the underlying asset, and returns them to the user. The amount of underlying tokens received is equal to the quantity of cTokens redeemed, multiplied by the current Exchange Rate. The amount redeemed must be less than the user's Account Liquidity and the market's available liquidity.\\n        @param redeemTokens The number of cTokens to be redeemed.\\n        @return 0 on success, otherwise an Error code\\n        @dev msg.sender The account to which redeemed funds shall be transferred.\\n     */\\n    function redeem(uint256 redeemTokens) external returns (uint256);\\n\\n    /**\\n        @notice The redeem underlying function converts cTokens into a specified quantity of the underlying asset, and returns them to the user. The amount of cTokens redeemed is equal to the quantity of underlying tokens received, divided by the current Exchange Rate. The amount redeemed must be less than the user's Account Liquidity and the market's available liquidity.\\n        @param redeemAmount The amount of underlying to be redeemed.\\n        @return 0 on success, otherwise an Error code\\n        @dev msg.sender The account to which redeemed funds shall be transferred.\\n     */\\n    function redeemUnderlying(uint256 redeemAmount) external returns (uint256);\\n\\n    /**\\n        @notice The borrow function transfers an asset from the protocol to the user, and creates a borrow balance which begins accumulating interest based on the Borrow Rate for the asset. The amount borrowed must be less than the user's Account Liquidity and the market's available liquidity.\\n        @param borrowAmount The amount of the underlying asset to be borrowed.\\n        @return 0 on success, otherwise an Error code\\n        @dev msg.sender The account to which borrowed funds shall be transferred.\\n     */\\n    function borrow(uint256 borrowAmount) external returns (uint256);\\n\\n    /**\\n        @notice The repay function transfers an asset into the protocol, reducing the user's borrow balance.\\n        @param repayAmount The amount of the underlying borrowed asset to be repaid. A value of -1 (i.e. 2^256 - 1) can be used to repay the full amount.\\n        @return 0 on success, otherwise an Error code\\n        @dev msg.sender The account which borrowed the asset, and shall repay the borrow.\\n        @dev Before repaying an asset, users must first approve the cToken to access their token balance.\\n     */\\n    function repayBorrow(uint256 repayAmount) external returns (uint256);\\n\\n    /**\\n        @notice The repay function transfers an asset into the protocol, reducing the target user's borrow balance.\\n        @param borrower The account which borrowed the asset to be repaid.\\n        @param repayAmount The amount of the underlying borrowed asset to be repaid. A value of -1 (i.e. 2^256 - 1) can be used to repay the full amount.\\n        @return 0 on success, otherwise an Error code\\n        @dev msg.sender The account which shall repay the borrow.\\n        @dev Before repaying an asset, users must first approve the cToken to access their token balance.\\n     */\\n    function repayBorrowBehalf(address borrower, uint256 repayAmount)\\n        external\\n        returns (uint256);\\n\\n    /*** Admin Functions ***/\\n\\n    function _addReserves(uint256 addAmount) external returns (uint256);\\n\\n    /** End Admin Functions */\\n\\n    function underlying() external view returns (address);\\n\\n    /**\\n        @notice Each cToken is convertible into an ever increasing quantity of the underlying asset, as interest accrues in the market. The exchange rate between a cToken and the underlying asset is\\n        equal to: exchangeRate = (getCash() + totalBorrows() - totalReserves()) / totalSupply()\\n        @return The current exchange rate as an unsigned integer, scaled by 1e18.\\n     */\\n    function exchangeRateCurrent() external returns (uint256);\\n\\n    function exchangeRateStored() external view returns (uint256);\\n\\n    /**\\n     * @notice Applies accrued interest to total borrows and reserves\\n     * @dev This calculates interest accrued from the last checkpointed block\\n     *   up to the current block and writes new checkpoint to storage.\\n     */\\n    function accrueInterest() external;\\n\\n    function decimals() external view returns (uint8);\\n\\n    function balanceOf(address account) external view returns (uint256);\\n\\n    /**\\n        @notice The user's underlying balance, representing their assets in the protocol, is equal to the user's cToken balance multiplied by the Exchange Rate.\\n        @param account The account to get the underlying balance of.\\n        @return The amount of underlying currently owned by the account.\\n     */\\n    function balanceOfUnderlying(address account) external returns (uint256);\\n\\n    function comptroller() external view returns (IComptroller);\\n}\\n\",\"keccak256\":\"0xe64ba9069b31f8149d63171b24b9fdef3a587b0461c3d4c8ac5976519bcde332\",\"license\":\"MIT\"},\"contracts/shared/interfaces/IComptroller.sol\":{\"content\":\"// SPDX-License-Identifier: MIT\\npragma solidity ^0.8.0;\\n\\ninterface IComptroller {\\n    /*** Assets You Are In ***/\\n\\n    function enterMarkets(address[] calldata cTokens)\\n        external\\n        returns (uint256[] memory);\\n\\n    function exitMarket(address cToken) external returns (uint256);\\n\\n    /*** Policy Hooks ***/\\n\\n    function mintAllowed(\\n        address cToken,\\n        address minter,\\n        uint256 mintAmount\\n    ) external returns (uint256);\\n\\n    function mintVerify(\\n        address cToken,\\n        address minter,\\n        uint256 mintAmount,\\n        uint256 mintTokens\\n    ) external;\\n\\n    function redeemAllowed(\\n        address cToken,\\n        address redeemer,\\n        uint256 redeemTokens\\n    ) external returns (uint256);\\n\\n    function redeemVerify(\\n        address cToken,\\n        address redeemer,\\n        uint256 redeemAmount,\\n        uint256 redeemTokens\\n    ) external;\\n\\n    function borrowAllowed(\\n        address cToken,\\n        address borrower,\\n        uint256 borrowAmount\\n    ) external returns (uint256);\\n\\n    function borrowVerify(\\n        address cToken,\\n        address borrower,\\n        uint256 borrowAmount\\n    ) external;\\n\\n    function repayBorrowAllowed(\\n        address cToken,\\n        address payer,\\n        address borrower,\\n        uint256 repayAmount\\n    ) external returns (uint256);\\n\\n    function repayBorrowVerify(\\n        address cToken,\\n        address payer,\\n        address borrower,\\n        uint256 repayAmount,\\n        uint256 borrowerIndex\\n    ) external;\\n\\n    function liquidateBorrowAllowed(\\n        address cTokenBorrowed,\\n        address cTokenCollateral,\\n        address liquidator,\\n        address borrower,\\n        uint256 repayAmount\\n    ) external returns (uint256);\\n\\n    function liquidateBorrowVerify(\\n        address cTokenBorrowed,\\n        address cTokenCollateral,\\n        address liquidator,\\n        address borrower,\\n        uint256 repayAmount,\\n        uint256 seizeTokens\\n    ) external;\\n\\n    function seizeAllowed(\\n        address cTokenCollateral,\\n        address cTokenBorrowed,\\n        address liquidator,\\n        address borrower,\\n        uint256 seizeTokens\\n    ) external returns (uint256);\\n\\n    function seizeVerify(\\n        address cTokenCollateral,\\n        address cTokenBorrowed,\\n        address liquidator,\\n        address borrower,\\n        uint256 seizeTokens\\n    ) external;\\n\\n    function transferAllowed(\\n        address cToken,\\n        address src,\\n        address dst,\\n        uint256 transferTokens\\n    ) external returns (uint256);\\n\\n    function transferVerify(\\n        address cToken,\\n        address src,\\n        address dst,\\n        uint256 transferTokens\\n    ) external;\\n\\n    function claimComp(address holder) external;\\n\\n    function claimComp(address holder, address[] calldata cTokens) external;\\n\\n    function claimComp(\\n        address[] calldata holders,\\n        address[] calldata cTokens,\\n        bool borrowers,\\n        bool suppliers\\n    ) external;\\n\\n    /*** Liquidity/Liquidation Calculations ***/\\n\\n    function liquidateCalculateSeizeTokens(\\n        address cTokenBorrowed,\\n        address cTokenCollateral,\\n        uint256 repayAmount\\n    ) external view returns (uint256, uint256);\\n\\n    function getCompAddress() external view returns (address);\\n}\\n\",\"keccak256\":\"0x495d8bb746a524fea6ddc4286c955d7a0160718bf662456330a9d6d14b8a5da9\",\"license\":\"MIT\"},\"contracts/shared/interfaces/IUniswapV2Router.sol\":{\"content\":\"// SPDX-License-Identifier: MIT\\npragma solidity ^0.8.0;\\n\\n/**\\n    @notice This interface defines the different functions available for a UniswapV2Router.\\n    @author develop@teller.finance\\n */\\ninterface IUniswapV2Router {\\n    function factory() external pure returns (address);\\n\\n    function addLiquidity(\\n        address tokenA,\\n        address tokenB,\\n        uint256 amountADesired,\\n        uint256 amountBDesired,\\n        uint256 amountAMin,\\n        uint256 amountBMin,\\n        address to,\\n        uint256 deadline\\n    )\\n        external\\n        returns (\\n            uint256 amountA,\\n            uint256 amountB,\\n            uint256 liquidity\\n        );\\n\\n    function addLiquidityETH(\\n        address token,\\n        uint256 amountTokenDesired,\\n        uint256 amountTokenMin,\\n        uint256 amountETHMin,\\n        address to,\\n        uint256 deadline\\n    )\\n        external\\n        payable\\n        returns (\\n            uint256 amountToken,\\n            uint256 amountETH,\\n            uint256 liquidity\\n        );\\n\\n    function removeLiquidity(\\n        address tokenA,\\n        address tokenB,\\n        uint256 liquidity,\\n        uint256 amountAMin,\\n        uint256 amountBMin,\\n        address to,\\n        uint256 deadline\\n    ) external returns (uint256 amountA, uint256 amountB);\\n\\n    function removeLiquidityETH(\\n        address token,\\n        uint256 liquidity,\\n        uint256 amountTokenMin,\\n        uint256 amountETHMin,\\n        address to,\\n        uint256 deadline\\n    ) external returns (uint256 amountToken, uint256 amountETH);\\n\\n    function removeLiquidityWithPermit(\\n        address tokenA,\\n        address tokenB,\\n        uint256 liquidity,\\n        uint256 amountAMin,\\n        uint256 amountBMin,\\n        address to,\\n        uint256 deadline,\\n        bool approveMax,\\n        uint8 v,\\n        bytes32 r,\\n        bytes32 s\\n    ) external returns (uint256 amountA, uint256 amountB);\\n\\n    function removeLiquidityETHWithPermit(\\n        address token,\\n        uint256 liquidity,\\n        uint256 amountTokenMin,\\n        uint256 amountETHMin,\\n        address to,\\n        uint256 deadline,\\n        bool approveMax,\\n        uint8 v,\\n        bytes32 r,\\n        bytes32 s\\n    ) external returns (uint256 amountToken, uint256 amountETH);\\n\\n    function quote(\\n        uint256 amountA,\\n        uint256 reserveA,\\n        uint256 reserveB\\n    ) external pure returns (uint256 amountB);\\n\\n    function getAmountOut(\\n        uint256 amountIn,\\n        uint256 reserveIn,\\n        uint256 reserveOut\\n    ) external pure returns (uint256 amountOut);\\n\\n    function getAmountIn(\\n        uint256 amountOut,\\n        uint256 reserveIn,\\n        uint256 reserveOut\\n    ) external pure returns (uint256 amountIn);\\n\\n    function getAmountsOut(uint256 amountIn, address[] calldata path)\\n        external\\n        view\\n        returns (uint256[] memory amounts);\\n\\n    function getAmountsIn(uint256 amountOut, address[] calldata path)\\n        external\\n        view\\n        returns (uint256[] memory amounts);\\n\\n    /**\\n        @notice It returns the address of the canonical WETH address;\\n    */\\n    function WETH() external pure returns (address);\\n\\n    /**\\n        @notice Swaps an exact amount of input tokens for as many output tokens as possible, along the route determined by the path. The first element of path is the input token, the last is the output token, and any intermediate elements represent intermediate pairs to trade through (if, for example, a direct pair does not exist).\\n        @param amountIn The amount of input tokens to send.\\n        @param amountOutMin The minimum amount of output tokens that must be received for the transaction not to revert.\\n        @param path An array of token addresses. path.length must be >= 2. Pools for each consecutive pair of addresses must exist and have liquidity.\\n        @param to Recipient of the output tokens.\\n        @param deadline Unix timestamp after which the transaction will revert.\\n        @return amounts The input token amount and all subsequent output token amounts.\\n        @dev msg.sender should have already given the router an allowance of at least amountIn on the input token.\\n     */\\n    function swapExactTokensForTokens(\\n        uint256 amountIn,\\n        uint256 amountOutMin,\\n        address[] calldata path,\\n        address to,\\n        uint256 deadline\\n    ) external returns (uint256[] memory amounts);\\n\\n    /**\\n        @notice Swaps an exact amount of tokens for as much ETH as possible, along the route determined by the path. The first element of path is the input token, the last must be WETH, and any intermediate elements represent intermediate pairs to trade through (if, for example, a direct pair does not exist).\\n        @param amountIn The amount of input tokens to send.\\n        @param amountOutMin The minimum amount of output tokens that must be received for the transaction not to revert.\\n        @param path An array of token addresses. path.length must be >= 2. Pools for each consecutive pair of addresses must exist and have liquidity.\\n        @param to Recipient of the ETH.\\n        @param deadline Unix timestamp after which the transaction will revert.\\n        @return amounts The input token amount and all subsequent output token amounts.\\n        @dev If the to address is a smart contract, it must have the ability to receive ETH.\\n     */\\n    function swapExactTokensForETH(\\n        uint256 amountIn,\\n        uint256 amountOutMin,\\n        address[] calldata path,\\n        address to,\\n        uint256 deadline\\n    ) external returns (uint256[] memory amounts);\\n\\n    /**\\n        @notice Swaps an exact amount of ETH for as many output tokens as possible, along the route determined by the path. The first element of path must be WETH, the last is the output token, and any intermediate elements represent intermediate pairs to trade through (if, for example, a direct pair does not exist).\\n        @param amountOutMin The minimum amount of output tokens that must be received for the transaction not to revert.\\n        @param path An array of token addresses. path.length must be >= 2. Pools for each consecutive pair of addresses must exist and have liquidity.\\n        @param to Recipient of the output tokens.\\n        @param deadline Unix timestamp after which the transaction will revert.\\n        @return amounts The input token amount and all subsequent output token amounts.\\n     */\\n    function swapExactETHForTokens(\\n        uint256 amountOutMin,\\n        address[] calldata path,\\n        address to,\\n        uint256 deadline\\n    ) external payable returns (uint256[] memory amounts);\\n\\n    function swapTokensForExactTokens(\\n        uint256 amountOut,\\n        uint256 amountInMax,\\n        address[] calldata path,\\n        address to,\\n        uint256 deadline\\n    ) external returns (uint256[] memory amounts);\\n\\n    function swapTokensForExactETH(\\n        uint256 amountOut,\\n        uint256 amountInMax,\\n        address[] calldata path,\\n        address to,\\n        uint256 deadline\\n    ) external returns (uint256[] memory amounts);\\n\\n    function swapETHForExactTokens(\\n        uint256 amountOut,\\n        address[] calldata path,\\n        address to,\\n        uint256 deadline\\n    ) external payable returns (uint256[] memory amounts);\\n}\\n\",\"keccak256\":\"0x208769886b3db8f03ef1fa26f1caee189038dfc744b9a499402fc4e4c0090c38\",\"license\":\"MIT\"},\"contracts/shared/libraries/CacheLib.sol\":{\"content\":\"// SPDX-License-Identifier: MIT\\npragma solidity ^0.8.0;\\n\\nenum CacheType { Address, Uint, Int, Byte, Bool }\\n\\n/**\\n * @notice This struct manages the cache of the library instance.\\n * @param addresses A mapping of address values mapped to cache keys in bytes.\\n * @param uints A mapping of uint values mapped to cache keys names in bytes.\\n * @param ints A mapping of int values mapped to cache keys names in bytes.\\n * @param bites A mapping of bytes values mapped to cache keys names in bytes.\\n * @param bools A mapping of bool values mapped to cache keys names in bytes.\\n */\\nstruct Cache {\\n    // Mapping of cache keys names to address values.\\n    mapping(bytes32 => address) addresses;\\n    // Mapping of cache keys names to uint256 values.\\n    mapping(bytes32 => uint256) uints;\\n    // Mapping of cache keys names to int256 values.\\n    mapping(bytes32 => int256) ints;\\n    // Mapping of cache keys names to bytes32 values.\\n    mapping(bytes32 => bytes32) bites;\\n    // Mapping of cache keys names to bool values.\\n    mapping(bytes32 => bool) bools;\\n}\\n\\nlibrary CacheLib {\\n    // The constant for the initialization check\\n    bytes32 private constant INITIALIZED = keccak256(\\\"Initialized\\\");\\n\\n    /**\\n     * @notice Initializes the cache instance.\\n     * @param cache The current cache\\n     */\\n    function initialize(Cache storage cache) internal {\\n        requireNotExists(cache);\\n        cache.bools[INITIALIZED] = true;\\n    }\\n\\n    /**\\n     * @notice Checks whether the current cache does not, throwing an error if it does.\\n     * @param cache The current cache\\n     */\\n    function requireNotExists(Cache storage cache) internal view {\\n        require(!exists(cache), \\\"CACHE_ALREADY_EXISTS\\\");\\n    }\\n\\n    /**\\n     * @notice Checks whether the current cache exists, throwing an error if the cache does not.\\n     * @param cache The current cache\\n     */\\n    function requireExists(Cache storage cache) internal view {\\n        require(exists(cache), \\\"CACHE_DOES_NOT_EXIST\\\");\\n    }\\n\\n    /**\\n     * @notice Tests whether the current cache exists or not.\\n     * @param cache The current cache.\\n     * @return bool True if the cache exists.\\n     */\\n    function exists(Cache storage cache) internal view returns (bool) {\\n        return cache.bools[INITIALIZED];\\n    }\\n\\n    function update(\\n        Cache storage cache,\\n        bytes32 key,\\n        bytes32 value,\\n        CacheType cacheType\\n    ) internal {\\n        requireExists(cache);\\n\\n        assembly {\\n            mstore(0, value)\\n        }\\n        if (cacheType == CacheType.Address) {\\n            address addr;\\n            assembly {\\n                addr := mload(0)\\n            }\\n            cache.addresses[key] = addr;\\n        } else if (cacheType == CacheType.Uint) {\\n            uint256 ui;\\n            assembly {\\n                ui := mload(0)\\n            }\\n            cache.uints[key] = ui;\\n        } else if (cacheType == CacheType.Int) {\\n            int256 i;\\n            assembly {\\n                i := mload(0)\\n            }\\n            cache.ints[key] = i;\\n        } else if (cacheType == CacheType.Byte) {\\n            cache.bites[key] = value;\\n        } else if (cacheType == CacheType.Bool) {\\n            bool b;\\n            assembly {\\n                b := mload(0)\\n            }\\n            cache.bools[key] = b;\\n        }\\n    }\\n\\n    /**\\n     */\\n    function clearCache(\\n        Cache storage cache,\\n        bytes32[5] memory keysToClear,\\n        CacheType[5] memory keyTypes\\n    ) internal {\\n        requireExists(cache);\\n        require(\\n            keysToClear.length == keyTypes.length,\\n            \\\"ARRAY_LENGTHS_MISMATCH\\\"\\n        );\\n        for (uint256 i; i <= keysToClear.length; i++) {\\n            if (keyTypes[i] == CacheType.Address) {\\n                delete cache.addresses[keysToClear[i]];\\n            } else if (keyTypes[i] == CacheType.Uint) {\\n                delete cache.uints[keysToClear[i]];\\n            } else if (keyTypes[i] == CacheType.Int) {\\n                delete cache.ints[keysToClear[i]];\\n            } else if (keyTypes[i] == CacheType.Byte) {\\n                delete cache.bites[keysToClear[i]];\\n            } else if (keyTypes[i] == CacheType.Bool) {\\n                delete cache.bools[keysToClear[i]];\\n            }\\n        }\\n    }\\n}\\n\",\"keccak256\":\"0x4d9045666e86d675f7bd48202f9a77d0675fa20b2184131ad369710ac5eb3203\",\"license\":\"MIT\"},\"contracts/shared/libraries/CompoundLib.sol\":{\"content\":\"// SPDX-License-Identifier: MIT\\npragma solidity ^0.8.0;\\n\\n// Interfaces\\nimport { ICErc20 } from \\\"../interfaces/ICErc20.sol\\\";\\n\\n// Storage\\nimport { AppStorageLib } from \\\"../../storage/app.sol\\\";\\n\\n/**\\n * @notice Utility library to calculate the value of a Compound cToken and its underlying asset.\\n *\\n * @author develop@teller.finance\\n */\\nlibrary CompoundLib {\\n    /**\\n     * @dev Compounds exchange rate is scaled by 18 decimals (10^18)\\n     */\\n    uint256 internal constant EXCHANGE_RATE_SCALE = 1e18;\\n\\n    function exchangeRate(address cToken) internal view returns (uint256) {\\n        return ICErc20(cToken).exchangeRateStored();\\n    }\\n\\n    /**\\n     * @notice Takes an amount of the Compound asset and calculates the underlying amount using the stored exchange rate.\\n     * @param cToken Address of the Compound token.\\n     * @param cTokenAmount Amount of the Compound asset.\\n     * @return value of the Compound token amount in underlying tokens.\\n     */\\n    function valueInUnderlying(address cToken, uint256 cTokenAmount)\\n        internal\\n        view\\n        returns (uint256)\\n    {\\n        return\\n            (cTokenAmount * ICErc20(cToken).exchangeRateStored()) /\\n            EXCHANGE_RATE_SCALE;\\n    }\\n\\n    /**\\n     * @notice Takes an amount of the underlying Compound asset and calculates the cToken amount using the stored exchange rate.\\n     * @param cToken Address of the Compound token.\\n     * @param underlyingAmount Amount of the underlying asset for the Compound token.\\n     * @return value of the underlying amount in Compound tokens.\\n     */\\n    function valueOfUnderlying(address cToken, uint256 underlyingAmount)\\n        internal\\n        view\\n        returns (uint256)\\n    {\\n        return\\n            (underlyingAmount * EXCHANGE_RATE_SCALE) /\\n            ICErc20(cToken).exchangeRateStored();\\n    }\\n\\n    function isCompoundToken(address token) internal view returns (bool) {\\n        return AppStorageLib.store().cTokenRegistry[token];\\n    }\\n\\n    /**\\n     * @notice Tests the {underlying} function on the cToken and assumes its WETH otherwise.\\n     * @notice CETH is the only Compound token that does not support the {underlying} function.\\n     */\\n    function getUnderlying(address cToken) internal view returns (address) {\\n        (bool success, bytes memory data) =\\n            cToken.staticcall(abi.encode(ICErc20.underlying.selector));\\n        if (success) {\\n            return abi.decode(data, (address));\\n        }\\n\\n        return AppStorageLib.store().assetAddresses[\\\"WETH\\\"];\\n    }\\n}\\n\",\"keccak256\":\"0x14e96659912e9d03ae30732faca8e3d617f3e756a215d948cabedab6642c1465\",\"license\":\"MIT\"},\"contracts/shared/libraries/NumbersLib.sol\":{\"content\":\"// SPDX-License-Identifier: MIT\\npragma solidity ^0.8.0;\\n\\n/**\\n * @dev Utility library for uint256 numbers\\n *\\n * @author develop@teller.finance\\n */\\nlibrary NumbersLib {\\n    /**\\n     * @dev It represents 100% with 2 decimal places.\\n     */\\n    uint256 internal constant ONE_HUNDRED_PERCENT = 10000;\\n\\n    /**\\n     * @notice Returns a percentage value of a number.\\n     * @param self The number to get a percentage of.\\n     * @param percentage The percentage value to calculate with 2 decimal places (10000 = 100%).\\n     */\\n    function percent(uint256 self, uint16 percentage)\\n        internal\\n        pure\\n        returns (uint256)\\n    {\\n        return (self * uint256(percentage)) / ONE_HUNDRED_PERCENT;\\n    }\\n\\n    function percent(int256 self, uint256 percentage)\\n        internal\\n        pure\\n        returns (int256)\\n    {\\n        return (self * int256(percentage)) / int256(ONE_HUNDRED_PERCENT);\\n    }\\n\\n    function abs(int256 self) internal pure returns (uint256) {\\n        return self >= 0 ? uint256(self) : uint256(-1 * self);\\n    }\\n\\n    /**\\n     * @notice Returns a ratio percentage of {num1} to {num2}.\\n     * @param num1 The number used to get the ratio for.\\n     * @param num2 The number used to get the ratio from.\\n     * @return Ratio percentage with 2 decimal places (10000 = 100%).\\n     */\\n    function ratioOf(uint256 num1, uint256 num2)\\n        internal\\n        pure\\n        returns (uint16)\\n    {\\n        return num2 == 0 ? 0 : uint16((num1 * ONE_HUNDRED_PERCENT) / num2);\\n    }\\n}\\n\",\"keccak256\":\"0x998aefaf4edbe7b0cb41032750b65b3822b4bec0fec3ee5b396f8fb73b5e9e03\",\"license\":\"MIT\"},\"contracts/shared/libraries/NumbersList.sol\":{\"content\":\"// SPDX-License-Identifier: MIT\\npragma solidity ^0.8.0;\\n\\nimport \\\"@openzeppelin/contracts/utils/math/SafeMath.sol\\\";\\nimport \\\"./NumbersLib.sol\\\";\\n\\n/**\\n * @dev Utility library of inline functions on NumbersList.Values\\n *\\n * @author develop@teller.finance\\n */\\nlibrary NumbersList {\\n    using NumbersLib for uint256;\\n\\n    // Holds values to calculate the threshold of a list of numbers\\n    struct Values {\\n        uint256 count; // The total number of numbers added\\n        uint256 max; // The maximum number that was added\\n        uint256 min; // The minimum number that was added\\n        uint256 sum; // The total sum of the numbers that were added\\n    }\\n\\n    /**\\n     * @dev Add to the sum while keeping track of min and max values\\n     * @param self The Value this function was called on\\n     * @param newValue Number to increment sum by\\n     */\\n    function addValue(Values memory self, uint256 newValue) internal pure {\\n        if (self.max < newValue) {\\n            self.max = newValue;\\n        }\\n        if (self.min > newValue || self.count == 0) {\\n            self.min = newValue;\\n        }\\n        self.sum = self.sum + (newValue);\\n        self.count = self.count + 1;\\n    }\\n\\n    /**\\n     * @param self The Value this function was called on\\n     * @return the number of times the sum has updated\\n     */\\n    function valuesCount(Values memory self) internal pure returns (uint256) {\\n        return self.count;\\n    }\\n\\n    /**\\n     * @dev Checks if the sum has been changed\\n     * @param self The Value this function was called on\\n     * @return boolean\\n     */\\n    function isEmpty(Values memory self) internal pure returns (bool) {\\n        return valuesCount(self) == 0;\\n    }\\n\\n    /**\\n     * @param self The Value this function was called on\\n     * @return the average number that was used to calculate the sum\\n     */\\n    function getAverage(Values memory self) internal pure returns (uint256) {\\n        return isEmpty(self) ? 0 : self.sum / (valuesCount(self));\\n    }\\n\\n    /**\\n     * @dev Checks if the min and max numbers are within the acceptable tolerance\\n     * @param self The Value this function was called on\\n     * @param tolerancePercentage Acceptable tolerance percentage as a whole number\\n     * The percentage should be entered with 2 decimal places. e.g. 2.5% should be entered as 250.\\n     * @return boolean\\n     */\\n    function isWithinTolerance(Values memory self, uint16 tolerancePercentage)\\n        internal\\n        pure\\n        returns (bool)\\n    {\\n        if (isEmpty(self)) {\\n            return false;\\n        }\\n        uint256 average = getAverage(self);\\n        uint256 toleranceAmount = average.percent(tolerancePercentage);\\n\\n        uint256 minTolerance = average - toleranceAmount;\\n        if (self.min < minTolerance) {\\n            return false;\\n        }\\n\\n        uint256 maxTolerance = average + toleranceAmount;\\n        if (self.max > maxTolerance) {\\n            return false;\\n        }\\n        return true;\\n    }\\n}\\n\",\"keccak256\":\"0xfd64d3765eb776aaebf1c6eeb8af33ad4a9bd89bad676300542086c1fefd44da\",\"license\":\"MIT\"},\"contracts/shared/proxy/beacon/InitializeableBeaconProxy.sol\":{\"content\":\"// SPDX-License-Identifier: MIT\\npragma solidity ^0.8.0;\\n\\nimport \\\"@openzeppelin/contracts/proxy/beacon/IBeacon.sol\\\";\\nimport \\\"@openzeppelin/contracts/proxy/Proxy.sol\\\";\\nimport \\\"@openzeppelin/contracts/utils/Address.sol\\\";\\n\\n/**\\n * @dev This contract implements a proxy that gets the implementation address for each call from a {UpgradeableBeacon}.\\n *\\n * The beacon address is stored in storage slot `uint256(keccak256('eip1967.proxy.beacon')) - 1`, so that it doesn't\\n * conflict with the storage layout of the implementation behind the proxy.\\n *\\n * _Available since v3.4._\\n */\\ncontract InitializeableBeaconProxy is Proxy {\\n    /**\\n     * @dev The storage slot of the UpgradeableBeacon contract which defines the implementation for this proxy.\\n     * This is bytes32(uint256(keccak256('eip1967.proxy.beacon')) - 1)) and is validated in the constructor.\\n     */\\n    bytes32 private constant _BEACON_SLOT =\\n        0xa3f0ad74e5423aebfd80d3ef4346578335a9a72aeaee59ff6cb3582b35133d50;\\n\\n    /**\\n     * @dev Initializes the proxy with `beacon`.\\n     *\\n     * If `data` is nonempty, it's used as data in a delegate call to the implementation returned by the beacon. This\\n     * will typically be an encoded function call, and allows initializating the storage of the proxy like a Solidity\\n     * constructor.\\n     *\\n     * Requirements:\\n     *\\n     * - `beacon` must be a contract with the interface {IBeacon}.\\n     */\\n    function initialize(address beacon, bytes memory data) external payable {\\n        assert(\\n            _BEACON_SLOT ==\\n                bytes32(uint256(keccak256(\\\"eip1967.proxy.beacon\\\")) - 1)\\n        );\\n        require(_beacon() == address(0), \\\"Beacon: already initialized\\\");\\n\\n        _setBeacon(beacon, data);\\n    }\\n\\n    /**\\n     * @dev Returns the current beacon address.\\n     */\\n    function _beacon() internal view virtual returns (address beacon) {\\n        bytes32 slot = _BEACON_SLOT;\\n        // solhint-disable-next-line no-inline-assembly\\n        assembly {\\n            beacon := sload(slot)\\n        }\\n    }\\n\\n    /**\\n     * @dev Returns the current implementation address of the associated beacon.\\n     */\\n    function _implementation()\\n        internal\\n        view\\n        virtual\\n        override\\n        returns (address)\\n    {\\n        return IBeacon(_beacon()).implementation();\\n    }\\n\\n    /**\\n     * @dev Changes the proxy to use a new beacon.\\n     *\\n     * If `data` is nonempty, it's used as data in a delegate call to the implementation returned by the beacon.\\n     *\\n     * Requirements:\\n     *\\n     * - `beacon` must be a contract.\\n     * - The implementation returned by `beacon` must be a contract.\\n     */\\n    function _setBeacon(address beacon, bytes memory data) internal virtual {\\n        bytes32 slot = _BEACON_SLOT;\\n\\n        // solhint-disable-next-line no-inline-assembly\\n        assembly {\\n            sstore(slot, beacon)\\n        }\\n\\n        if (data.length > 0) {\\n            Address.functionDelegateCall(\\n                _implementation(),\\n                data,\\n                \\\"BeaconProxy: function call failed\\\"\\n            );\\n        }\\n    }\\n\\n    receive() external payable override {\\n        // Needed to receive ETH without data\\n        // OZ Proxy contract calls the _fallback() on receive and tries to delegatecall which fails\\n    }\\n}\\n\",\"keccak256\":\"0x48aefbbc0c51b106f4d69580fa802dc6c5d7573fee24cb7d08f5370d79a2e6f2\",\"license\":\"MIT\"},\"contracts/shared/proxy/beacon/UpgradeableBeaconFactory.sol\":{\"content\":\"// SPDX-License-Identifier: MIT\\npragma solidity ^0.8.0;\\n\\nimport \\\"@openzeppelin/contracts/proxy/Clones.sol\\\";\\nimport \\\"@openzeppelin/contracts/proxy/beacon/IBeacon.sol\\\";\\nimport \\\"@openzeppelin/contracts/access/Ownable.sol\\\";\\nimport \\\"@openzeppelin/contracts/utils/Address.sol\\\";\\nimport \\\"./InitializeableBeaconProxy.sol\\\";\\n\\n/**\\n * @dev This contract is used in conjunction with one or more instances of {BeaconProxy} to determine their\\n * implementation contract, which is where they will delegate all function calls.\\n *\\n * An owner is able to change the implementation the beacon points to, thus upgrading the proxies that use this beacon.\\n */\\ncontract UpgradeableBeaconFactory is IBeacon, Ownable {\\n    address private _implementation;\\n    InitializeableBeaconProxy public proxyAddress;\\n\\n    /**\\n     * @dev Emitted when the implementation returned by the beacon is changed.\\n     */\\n    event Upgraded(address indexed implementation);\\n\\n    /**\\n     * @dev Sets the address of the initial implementation, and the deployer account as the owner who can upgrade the\\n     * beacon.\\n     */\\n    constructor(address payable proxyAddress_, address implementation_) {\\n        proxyAddress = InitializeableBeaconProxy(proxyAddress_);\\n        _setImplementation(implementation_);\\n    }\\n\\n    /**\\n     * @dev Returns the current implementation address.\\n     */\\n    function implementation() public view virtual override returns (address) {\\n        return _implementation;\\n    }\\n\\n    function cloneProxy(bytes memory initData)\\n        external\\n        returns (address payable proxy_)\\n    {\\n        proxy_ = payable(Clones.clone(address(proxyAddress)));\\n        InitializeableBeaconProxy(proxy_).initialize(address(this), initData);\\n    }\\n\\n    /**\\n     * @dev Upgrades the beacon to a new implementation.\\n     *\\n     * Emits an {Upgraded} event.\\n     *\\n     * Requirements:\\n     *\\n     * - msg.sender must be the owner of the contract.\\n     * - `newImplementation` must be a contract.\\n     */\\n    function upgradeTo(address newImplementation) public virtual onlyOwner {\\n        _setImplementation(newImplementation);\\n        emit Upgraded(newImplementation);\\n    }\\n\\n    /**\\n     * @dev Sets the implementation contract address for this beacon\\n     *\\n     * Requirements:\\n     *\\n     * - `newImplementation` must be a contract.\\n     */\\n    function _setImplementation(address newImplementation) private {\\n        require(\\n            Address.isContract(newImplementation),\\n            \\\"UpgradeableBeacon: implementation is not a contract\\\"\\n        );\\n        _implementation = newImplementation;\\n    }\\n}\\n\",\"keccak256\":\"0x8919fcdfb49018474c872c462c11b21a50faa7ab80f0162abd6b657cbbc5d04c\",\"license\":\"MIT\"},\"contracts/shared/roles.sol\":{\"content\":\"// SPDX-License-Identifier: MIT\\npragma solidity ^0.8.0;\\n\\nbytes32 constant ADMIN = keccak256(\\\"ADMIN\\\");\\nbytes32 constant PAUSER = keccak256(\\\"PAUSER\\\");\\nbytes32 constant AUTHORIZED = keccak256(\\\"AUTHORIZED\\\");\\n\",\"keccak256\":\"0x0888cf40ea019be9f0ee94cb8af1e030454c28f8c6512db9d89ed027fe21f18f\",\"license\":\"MIT\"},\"contracts/storage/app.sol\":{\"content\":\"// SPDX-License-Identifier: MIT\\npragma solidity ^0.8.0;\\n\\n// Contracts\\nimport { TellerNFT } from \\\"../nft/TellerNFT.sol\\\";\\n\\n// Interfaces\\n\\n// Libraries\\nimport {\\n    PlatformSetting\\n} from \\\"../settings/platform/libraries/PlatformSettingsLib.sol\\\";\\nimport { Cache } from \\\"../shared/libraries/CacheLib.sol\\\";\\nimport {\\n    UpgradeableBeaconFactory\\n} from \\\"../shared/proxy/beacon/UpgradeableBeaconFactory.sol\\\";\\n\\nstruct AppStorage {\\n    bool initialized;\\n    bool platformRestricted;\\n    mapping(bytes32 => bool) paused;\\n    mapping(bytes32 => PlatformSetting) platformSettings;\\n    mapping(address => Cache) assetSettings;\\n    mapping(string => address) assetAddresses;\\n    mapping(address => bool) cTokenRegistry;\\n    TellerNFT nft;\\n    UpgradeableBeaconFactory loansEscrowBeacon;\\n    UpgradeableBeaconFactory collateralEscrowBeacon;\\n    address nftLiquidationController;\\n    UpgradeableBeaconFactory tTokenBeacon;\\n}\\n\\nlibrary AppStorageLib {\\n    function store() internal pure returns (AppStorage storage s) {\\n        assembly {\\n            s.slot := 0\\n        }\\n    }\\n}\\n\",\"keccak256\":\"0xade1dda8163fc39658e5f6929b662187584b29cce47e9cb0915fc0d1832fb4f7\",\"license\":\"MIT\"},\"contracts/storage/market.sol\":{\"content\":\"// SPDX-License-Identifier: MIT\\npragma solidity ^0.8.0;\\n\\n// Libraries\\nimport { Counters } from \\\"@openzeppelin/contracts/utils/Counters.sol\\\";\\nimport {\\n    EnumerableSet\\n} from \\\"@openzeppelin/contracts/utils/structs/EnumerableSet.sol\\\";\\nimport \\\"../shared/libraries/NumbersList.sol\\\";\\n\\n// Interfaces\\nimport { ILoansEscrow } from \\\"../escrow/escrow/ILoansEscrow.sol\\\";\\nimport { ICollateralEscrow } from \\\"../market/collateral/ICollateralEscrow.sol\\\";\\nimport { ITToken } from \\\"../lending/ttoken/ITToken.sol\\\";\\n\\nstruct LoanTerms {\\n    // Max size the loan max be taken out with\\n    uint256 maxLoanAmount;\\n    // The timestamp at which the loan terms expire, after which if the loan is not yet active, cannot be taken out\\n    uint32 termsExpiry;\\n}\\n\\nenum LoanStatus { NonExistent, TermsSet, Active, Closed, Liquidated }\\n\\nstruct Loan {\\n    // Account that owns the loan\\n    address payable borrower;\\n    // The asset lent out for the loan\\n    address lendingToken;\\n    // The token used as collateral for the loan\\n    address collateralToken;\\n    // The total amount of the loan size taken out\\n    uint256 borrowedAmount;\\n    // The id of the loan for internal tracking\\n    uint128 id;\\n    // How long in seconds until the loan must be repaid\\n    uint32 duration;\\n    // The timestamp at which the loan became active\\n    uint32 loanStartTime;\\n    // The interest rate given for repaying the loan\\n    uint16 interestRate;\\n    // Ratio used to determine amount of collateral required based on the collateral asset price\\n    uint16 collateralRatio;\\n    // The status of the loan\\n    LoanStatus status;\\n}\\n\\nstruct LoanDebt {\\n    // The total amount of the loan taken out by the borrower, reduces on loan repayments\\n    uint256 principalOwed;\\n    // The total interest owed by the borrower for the loan, reduces on loan repayments\\n    uint256 interestOwed;\\n}\\n\\n/**\\n * @notice Borrower request object to take out a loan\\n * @param borrower The wallet address of the borrower\\n * @param assetAddress The address of the asset for the requested loan\\n * @param amount The amount of tokens requested by the borrower for the loan\\n * @param requestNonce The nonce of the borrower wallet address required for authentication\\n * @param duration The length of time in seconds that the loan has been requested for\\n * @param requestTime The timestamp at which the loan was requested\\n */\\nstruct LoanRequest {\\n    address payable borrower;\\n    address assetAddress;\\n    uint256 amount;\\n    uint32 requestNonce;\\n    uint32 duration;\\n    uint32 requestTime;\\n}\\n\\n/**\\n * @notice Borrower response object to take out a loan\\n * @param signer The wallet address of the signer validating the interest request of the lender\\n * @param assetAddress The address of the asset for the requested loan\\n * @param maxLoanAmount The largest amount of tokens that can be taken out in the loan by the borrower\\n * @param responseTime The timestamp at which the response was sent\\n * @param interestRate The signed interest rate generated by the signer's Credit Risk Algorithm (CRA)\\n * @param collateralRatio The ratio of collateral to loan amount that is generated by the signer's Credit Risk Algorithm (CRA)\\n * @param signature The signature generated by the signer in the format of the above Signature struct\\n */\\nstruct LoanResponse {\\n    address signer;\\n    address assetAddress;\\n    uint256 maxLoanAmount;\\n    uint32 responseTime;\\n    uint16 interestRate;\\n    uint16 collateralRatio;\\n    Signature signature;\\n}\\n\\n/**\\n * @notice Represents a user signature\\n * @param v The recovery identifier represented by the last byte of a ECDSA signature as an int\\n * @param r The random point x-coordinate of the signature respresented by the first 32 bytes of the generated ECDSA signature\\n * @param s The signature proof represented by the second 32 bytes of the generated ECDSA signature\\n */\\nstruct Signature {\\n    uint8 v;\\n    bytes32 r;\\n    bytes32 s;\\n}\\n\\nstruct MarketStorage {\\n    // Holds the index for the next loan ID\\n    Counters.Counter loanIDCounter;\\n    // Maps loanIDs to loan data\\n    mapping(uint256 => Loan) loans;\\n    // Maps loanID to loan debt (total owed left)\\n    mapping(uint256 => LoanDebt) loanDebt;\\n    // Maps loanID to loan terms\\n    mapping(uint256 => LoanTerms) loanTerms;\\n    // Maps loanIDs to escrow address to list of held tokens\\n    mapping(uint256 => ILoansEscrow) loanEscrows;\\n    // Maps loanIDs to list of tokens owned by a loan escrow\\n    mapping(uint256 => EnumerableSet.AddressSet) escrowTokens;\\n    // Maps collateral token address to a LoanCollateralEscrow that hold collateral funds\\n    mapping(address => ICollateralEscrow) collateralEscrows;\\n    // Maps accounts to owned loan IDs\\n    mapping(address => uint128[]) borrowerLoans;\\n    // Maps lending token to overall amount of interest collected from loans\\n    mapping(address => ITToken) tTokens;\\n    // Maps lending token to list of signer addresses who are only ones allowed to verify loan requests\\n    mapping(address => EnumerableSet.AddressSet) signers;\\n    // Maps lending token to list of allowed collateral tokens\\n    mapping(address => EnumerableSet.AddressSet) collateralTokens;\\n}\\n\\nbytes32 constant MARKET_STORAGE_POS = keccak256(\\\"teller.market.storage\\\");\\n\\nlibrary MarketStorageLib {\\n    function store() internal pure returns (MarketStorage storage s) {\\n        bytes32 pos = MARKET_STORAGE_POS;\\n        assembly {\\n            s.slot := pos\\n        }\\n    }\\n}\\n\",\"keccak256\":\"0x5f3fdba19ae8040e2007affe422527b7dca58ba424df33ba4dd9cb08d83d00de\",\"license\":\"MIT\"},\"contracts/storage/nft.sol\":{\"content\":\"// SPDX-License-Identifier: MIT\\npragma solidity ^0.8.0;\\n\\n// Utils\\nimport \\\"@openzeppelin/contracts/utils/structs/EnumerableSet.sol\\\";\\n\\nstruct NFTStorage {\\n    // Maps NFT owner to set of token IDs owned\\n    mapping(address => EnumerableSet.UintSet) stakedNFTs;\\n    // Maps loanID to NFT IDs indicating NFT being used for the loan\\n    mapping(uint256 => EnumerableSet.UintSet) loanNFTs;\\n    // Merkle root used for verifying nft IDs to base loan size\\n    bytes32 nftMerkleRoot;\\n}\\n\\nbytes32 constant NFT_STORAGE_POS = keccak256(\\\"teller.staking.storage\\\");\\n\\nlibrary NFTStorageLib {\\n    function store() internal pure returns (NFTStorage storage s) {\\n        bytes32 pos = NFT_STORAGE_POS;\\n        assembly {\\n            s.slot := pos\\n        }\\n    }\\n}\\n\",\"keccak256\":\"0x8d58bb6ba00310d8c3d89b95c62e5c997430a1124d73224897f7d9b2a43ab50a\",\"license\":\"MIT\"},\"contracts/storage/price-aggregator.sol\":{\"content\":\"// SPDX-License-Identifier: MIT\\npragma solidity ^0.8.0;\\n\\nimport {\\n    EnumerableSet\\n} from \\\"@openzeppelin/contracts/utils/structs/EnumerableSet.sol\\\";\\n\\nstruct ChainlinkAggStorage {\\n    // Maps source token => destination token => Chainlink Aggregator\\n    mapping(address => mapping(address => address)) aggregators;\\n    // Maps token address to number of supported Chainlink pairs\\n    mapping(address => uint256) pairCount;\\n    // Stores set of token addresses supported by Chainlink\\n    EnumerableSet.AddressSet supportedTokens;\\n}\\n\\nstruct PriceAggStorage {\\n    ChainlinkAggStorage chainlink;\\n}\\n\\nbytes32 constant PRICE_AGG_STORAGE_POS = keccak256(\\n    \\\"teller.price.aggregator.storage\\\"\\n);\\n\\nlibrary PriceAggStorageLib {\\n    function store() internal pure returns (PriceAggStorage storage s) {\\n        bytes32 pos = PRICE_AGG_STORAGE_POS;\\n        assembly {\\n            s.slot := pos\\n        }\\n    }\\n}\\n\",\"keccak256\":\"0x39a2c6e514cbc48d03f8de560a855527ddf9cd08e2042a75e5c1820a6298d4a1\",\"license\":\"MIT\"}},\"version\":1}",
      "bytecode": "0x608060405234801561001057600080fd5b5061204b806100206000396000f3fe608060405234801561001057600080fd5b506004361061004c5760003560e01c80635ebc6334146100515780638a700b531461007d578063ccdd9f5d14610092578063e89ad656146100a5575b600080fd5b61006461005f366004611d42565b6100b8565b6040805192835260208301919091520160405180910390f35b61009061008b366004611d72565b610189565b005b6100906100a0366004611d42565b6102ea565b6100906100b3366004611d72565b6105da565b60008061014a836100c8856107ce565b6001600160a01b031663d17b71d7866040518263ffffffff1660e01b81526004016100f591815260200190565b60206040518083038186803b15801561010d57600080fd5b505afa158015610121573d6000803e3d6000fd5b505050506040513d601f19601f820116820180604052508101906101459190611d5a565b61083b565b509150610182610159846108ff565b600101546001600160a01b031661016f856108ff565b600201546001600160a01b03168461091c565b9050915091565b60008080527f7b305b6be5f275f648d05716597c483d754c2a242bd605feba3c64fb853605366020527f63eec20f0ae1af135811da961c707cd581594291a92cf7bcd78c1cf1aca4e4b054600080516020611ff68339815191529060ff161561020d5760405162461bcd60e51b815260040161020490611e6a565b60405180910390fd5b60008281526002820160205260408120805460ff1916600117905580806102338161099e565b151514801561024d57508015156102498361099e565b1515145b610256826109b6565b906102745760405162461bcd60e51b81526004016102049190611e00565b507f50e75b23f8ec51bbcb044fe377457e835f3b5ccc7ebf69e80906452015dff607336102a18282610a1f565b6102bd5760405162461bcd60e51b815260040161020490611e33565b6102ca8888336000610a53565b5050506000938452505060020160205260409020805460ff191690555050565b60008080527f7b305b6be5f275f648d05716597c483d754c2a242bd605feba3c64fb853605366020527f63eec20f0ae1af135811da961c707cd581594291a92cf7bcd78c1cf1aca4e4b054600080516020611ff68339815191529060ff16156103655760405162461bcd60e51b815260040161020490611e6a565b60008281526002820160205260408120805460ff19166001179055808061038b8161099e565b15151480156103a557508015156103a18361099e565b1515145b6103ae826109b6565b906103cc5760405162461bcd60e51b81526004016102049190611e00565b507f50e75b23f8ec51bbcb044fe377457e835f3b5ccc7ebf69e80906452015dff607336103f98282610a1f565b6104155760405162461bcd60e51b815260040161020490611e33565b6000610420886108ff565b9050600061042d896107ce565b6001600160a01b031663d17b71d78a6040518263ffffffff1660e01b815260040161045a91815260200190565b60206040518083038186803b15801561047257600080fd5b505afa158015610486573d6000803e3d6000fd5b505050506040513d601f19601f820116820180604052508101906104aa9190611d5a565b90506104b68982610e80565b61050c5760405162461bcd60e51b815260206004820152602160248201527f54656c6c65723a20646f6573206e6f74206e656564206c69717569646174696f6044820152603760f91b6064820152608401610204565b6000806105198b8461083b565b9150915060006105288c610fa3565b600101546105358d610fa3565b546105409190611ea1565b905061054f8c82336001610a53565b508215610563576105638c84848733610fc0565b845460408051338152602081018690529081018390526001600160a01b03909116908d907f9950a0562c02382e2e840daa73082d5be7660ce37601f28fa4c84089c11e8a069060600160405180910390a35050506000978852505050600290930160205250506040909120805460ff191690555050565b600080806105e78161099e565b151514801561060157508015156105fd8361099e565b1515145b61060a826109b6565b906106285760405162461bcd60e51b81526004016102049190611e00565b507f50e75b23f8ec51bbcb044fe377457e835f3b5ccc7ebf69e80906452015dff607336106558282610a1f565b6106715760405162461bcd60e51b815260040161020490611e33565b60008080527f7b305b6be5f275f648d05716597c483d754c2a242bd605feba3c64fb853605366020527f63eec20f0ae1af135811da961c707cd581594291a92cf7bcd78c1cf1aca4e4b054600080516020611ff68339815191529060ff16156106ec5760405162461bcd60e51b815260040161020490611e6a565b60008281526002820160205260408120805460ff1916600117905561072689610714816108ff565b600101546001600160a01b03166110bd565b905060006107338a611155565b9050808210801561074357508189115b15610797576000818a116107605761075b838b611f6b565b61076a565b61076a8383611f6b565b90506107956107788c6108ff565b600101546001600160a01b03163361078f8e611239565b84611260565b505b6107ac8a8a6107a58d611239565b6000610a53565b505050600091825260020160205260409020805460ff19169055505050505050565b60009081527f0553069f1f0518e59f8623c18c83a1f987f2a0544d563e98dd803a7078142a8660209081526040808320600201546001600160a01b0390811684527f0553069f1f0518e59f8623c18c83a1f987f2a0544d563e98dd803a7078142a8b909252909120541690565b600080600061084985610fa3565b6001015461085686610fa3565b546108619190611ea1565b90506000610876826108716112be565b6112ef565b6108809083611ea1565b905084156108cc576108bd610894876108ff565b600201546001600160a01b03166108aa886108ff565b600101546001600160a01b03168761091c565b92506108c98385611ea1565b93505b808410156108ea576108dd8661130c565b6108e79085611ea1565b93505b808411156108f6578093505b50509250929050565b60006109096113c2565b6000928352600101602052506040902090565b60405163c05b1ec360e01b8152600090309063c05b1ec39061094690879087908790600401611ddc565b60206040518083038186803b15801561095e57600080fd5b505afa158015610972573d6000803e3d6000fd5b505050506040513d601f19601f820116820180604052508101906109969190611d5a565b949350505050565b60008181526001602052604090205460ff165b919050565b6060816109eb576040518060400160405280601081526020016f14185d5cd8589b194e881c185d5cd95960821b815250610a19565b6040518060400160405280601481526020017314185d5cd8589b194e881b9bdd081c185d5cd95960621b8152505b92915050565b6000610a296113eb565b6000938452602090815260408085206001600160a01b039490941685529290525090205460ff1690565b6000808411610a995760405162461bcd60e51b815260206004820152601260248201527154656c6c65723a207a65726f20726570617960701b6044820152606401610204565b610aa285610fa3565b60010154610aaf86610fa3565b54610aba9190611ea1565b905083811015610acd5792506000610ada565b610ad78482611f6b565b90505b60007f0553069f1f0518e59f8623c18c83a1f987f2a0544d563e98dd803a7078142a8d81610b07886108ff565b600101546001600160a01b039081168252602082019290925260400160002054811691508416610b3687611239565b6001600160a01b03161415610bce57610b4e86611239565b6001600160a01b031663125bfb66610b65886108ff565b600101546040516001600160e01b031960e084901b168152610b97916001600160a01b03169085908a90600401611ddc565b600060405180830381600087803b158015610bb157600080fd5b505af1158015610bc5573d6000803e3d6000fd5b50505050610bef565b610bef610bda876108ff565b600101546001600160a01b0316858388611260565b600080610bfb88610fa3565b60010154871015610c2f57508580610c1289610fa3565b6001016000828254610c249190611f6b565b90915550610c989050565b6000610c3a89610fa3565b600101541115610c6f57610c4d88610fa3565b600101549050610c5d8188611f6b565b96506000610c6a89610fa3565b600101555b8615610c985786915086610c8289610fa3565b8054600090610c92908490611f6b565b90915550505b604051638a700b5360e01b815260048101839052602481018290526001600160a01b03841690638a700b5390604401600060405180830381600087803b158015610ce157600080fd5b505af1158015610cf5573d6000803e3d6000fd5b505050508415610d9d578315610d4d5760405162461bcd60e51b815260206004820152601f60248201527f54656c6c65723a206c6971756964617465207061727469616c207265706179006044820152606401610204565b6004610d58896108ff565b600401601c6101000a81548160ff02191690836004811115610d8a57634e487b7160e01b600052602160045260246000fd5b0217905550610d9888611401565b610e75565b83610e1c576003610dad896108ff565b600401601c6101000a81548160ff02191690836004811115610ddf57634e487b7160e01b600052602160045260246000fd5b0217905550610e0088610df18a6108ff565b546001600160a01b03166114cc565b610e1c88610e0d8a6108ff565b546001600160a01b0316611560565b610e25886108ff565b54604080518981523360208201529081018690526001600160a01b039091169089907f20a1f2ec363af45dc5ee7d9d622f2dd68b52501c382126c7f04b53663c4c69bf9060600160405180910390a35b505050949350505050565b600080610e8c846108ff565b90506002600482810154600160e01b900460ff1690811115610ebe57634e487b7160e01b600052602160045260246000fd5b14610ecd576000915050610a19565b6004810154600160d01b900461ffff1615610f6d576040516372e1132760e01b81526004810185905260009030906372e113279060240160606040518083038186803b158015610f1c57600080fd5b505afa158015610f30573d6000803e3d6000fd5b505050506040513d601f19601f82011682018060405250810190610f549190611d93565b5091505083811115610f6b57600192505050610a19565b505b6004810154610f929063ffffffff600160801b8204811691600160a01b900416611eb9565b63ffffffff16421015949350505050565b6000610fad6113c2565b6000928352600201602052506040902090565b6004610fcb866108ff565b600490810154600160e01b900460ff1690811115610ff957634e487b7160e01b600052602160045260246000fd5b146110465760405162461bcd60e51b815260206004820152601b60248201527f54656c6c65723a206c6f616e206e6f74206c69717569646174656400000000006044820152606401610204565b82841161109757600061108461105b876108ff565b600101546001600160a01b0316611071886108ff565b600201546001600160a01b03168761091c565b90506110918682846115d5565b506110b6565b6110a28583836115d5565b6110b685826110b18688611f6b565b611692565b5050505050565b6000816001600160a01b03166370a082316110d785611239565b6040516001600160e01b031960e084901b1681526001600160a01b03909116600482015260240160206040518083038186803b15801561111657600080fd5b505afa15801561112a573d6000803e3d6000fd5b505050506040513d601f19601f8201168201806040525081019061114e9190611d5a565b9392505050565b60006001611162836108ff565b600490810154600160e01b900460ff169081111561119057634e487b7160e01b600052602160045260246000fd5b14156111ca5760006111ab836111a585611734565b54611751565b9050806111b784611734565b546111c29190611ea1565b9150506109b1565b60026111d5836108ff565b600490810154600160e01b900460ff169081111561120357634e487b7160e01b600052602160045260246000fd5b14156112315761121282610fa3565b6001015461121f83610fa3565b5461122a9190611ea1565b90506109b1565b506000919050565b60006112436113c2565b60009283526004016020525060409020546001600160a01b031690565b6112b8846323b872dd60e01b85858560405160240161128193929190611ddc565b60408051601f198184030181529190526020810180516001600160e01b03166001600160e01b031990931692909217909152611766565b50505050565b60006112e97f5166f2578d96d76687be006158a90b639fcc7501b0381b6b4ed953aca3e0e183611838565b54919050565b600061271061130261ffff841685611f1c565b61114e9190611ee1565b600080611318836108ff565b600101546001600160a01b0316905061133183826110bd565b61133b9083611ea1565b9150600061134884611840565b905060006113558261185d565b11156113bb5760005b6113678261185d565b8110156113b95760006113838661137e8585611867565b6110bd565b90506113996113928484611867565b858361091c565b6113a39086611ea1565b94505080806113b190611fae565b91505061135e565b505b5050919050565b60007f0553069f1f0518e59f8623c18c83a1f987f2a0544d563e98dd803a7078142a855b905090565b6000600080516020611ff68339815191526113e6565b600061140b611873565b60008381526001919091016020526040812091505b6114298261185d565b8110156114c7576006546001600160a01b03166001600160a01b03166323b872dd306000600901546001600160a01b03166114648686611867565b6040518463ffffffff1660e01b815260040161148293929190611ddc565b600060405180830381600087803b15801561149c57600080fd5b505af11580156114b0573d6000803e3d6000fd5b5050505080806114bf90611fae565b915050611420565b505050565b61155c826114d9846107ce565b6001600160a01b031663d17b71d7856040518263ffffffff1660e01b815260040161150691815260200190565b60206040518083038186803b15801561151e57600080fd5b505afa158015611532573d6000803e3d6000fd5b505050506040513d601f19601f820116820180604052508101906115569190611d5a565b836115d5565b5050565b600061156a611873565b60008481526001919091016020526040812091505b6115888261185d565b8110156112b8576115c261159a611873565b6001600160a01b0385166000908152602091909152604090206115bd8484611867565b61189b565b50806115cd81611fae565b91505061157f565b6115de836107ce565b604051630ad58d2f60e01b815260048101859052602481018490526001600160a01b0383811660448301529190911690630ad58d2f90606401600060405180830381600087803b15801561163157600080fd5b505af1158015611645573d6000803e3d6000fd5b50505050806001600160a01b0316837f7c5e5cb62e5ed3caf3764e4b0afedfedef533e27809d43367799787ad2abcd418460405161168591815260200190565b60405180910390a3505050565b60008381527f0553069f1f0518e59f8623c18c83a1f987f2a0544d563e98dd803a7078142a8a60205260409020816116e1856116cd816108ff565b600101546001600160a01b031686846118a7565b905060005b6116ef8361185d565b81101561172c5781611703575050506114c7565b611718866117118584611867565b87856118a7565b91508061172481611fae565b9150506116e6565b505050505050565b600061173e6113c2565b6000928352600301602052506040902090565b600061114e61175f84611a42565b83906112ef565b60006117bb826040518060400160405280602081526020017f5361666545524332303a206c6f772d6c6576656c2063616c6c206661696c6564815250856001600160a01b0316611aa29092919063ffffffff16565b8051909150156114c757808060200190518101906117d99190611d22565b6114c75760405162461bcd60e51b815260206004820152602a60248201527f5361666545524332303a204552433230206f7065726174696f6e20646964206e6044820152691bdd081cdd58d8d9595960b21b6064820152608401610204565b600080610fad565b600061184a6113c2565b6000928352600501602052506040902090565b6000610a19825490565b600061114e8383611ab1565b60007f36ec560bcbaf142f58499b90035254e32b3f3563174bc96dc2b2724bafa4c2a76113e6565b600061114e8383611b45565b6000806118b486866110bd565b90508015611a385760006118c7876108ff565b600101546001600160a01b03878116911614156118e5575080611908565b611905866118f2896108ff565b600101546001600160a01b03168461091c565b90505b83811161198c5761191887611239565b6001600160a01b031663125bfb668787856040518463ffffffff1660e01b815260040161194793929190611ddc565b600060405180830381600087803b15801561196157600080fd5b505af1158015611975573d6000803e3d6000fd5b5050505080846119859190611f6b565b9350611a36565b6000611997886108ff565b600101546001600160a01b03888116911614156119b55750836119c6565b6119c3836108718785611b94565b90505b6119cf88611239565b6001600160a01b031663125bfb668888846040518463ffffffff1660e01b81526004016119fe93929190611ddc565b600060405180830381600087803b158015611a1857600080fd5b505af1158015611a2c573d6000803e3d6000fd5b5050505060009450505b505b5090949350505050565b60006301e13380611a52836108ff565b60040154600160c01b900461ffff16611a6a846108ff565b60040154611a859190600160801b900463ffffffff16611f3b565b611a8f9190611ef5565b905061ffff81166109b157506001919050565b60606109968484600085611bc1565b81546000908210611b0f5760405162461bcd60e51b815260206004820152602260248201527f456e756d657261626c655365743a20696e646578206f7574206f6620626f756e604482015261647360f01b6064820152608401610204565b826000018281548110611b3257634e487b7160e01b600052603260045260246000fd5b9060005260206000200154905092915050565b6000818152600183016020526040812054611b8c57508154600181810184556000848152602080822090930184905584548482528286019093526040902091909155610a19565b506000610a19565b60008115611bb85781611ba961271085611f1c565b611bb39190611ee1565b61114e565b50600092915050565b606082471015611c225760405162461bcd60e51b815260206004820152602660248201527f416464726573733a20696e73756666696369656e742062616c616e636520666f6044820152651c8818d85b1b60d21b6064820152608401610204565b843b611c705760405162461bcd60e51b815260206004820152601d60248201527f416464726573733a2063616c6c20746f206e6f6e2d636f6e74726163740000006044820152606401610204565b600080866001600160a01b03168587604051611c8c9190611dc0565b60006040518083038185875af1925050503d8060008114611cc9576040519150601f19603f3d011682016040523d82523d6000602084013e611cce565b606091505b5091509150611cde828286611ce9565b979650505050505050565b60608315611cf857508161114e565b825115611d085782518084602001fd5b8160405162461bcd60e51b81526004016102049190611e00565b600060208284031215611d33578081fd5b8151801515811461114e578182fd5b600060208284031215611d53578081fd5b5035919050565b600060208284031215611d6b578081fd5b5051919050565b60008060408385031215611d84578081fd5b50508035926020909101359150565b600080600060608486031215611da7578081fd5b8351925060208401519150604084015190509250925092565b60008251611dd2818460208701611f82565b9190910192915050565b6001600160a01b039384168152919092166020820152604081019190915260600190565b6000602082528251806020840152611e1f816040850160208701611f82565b601f01601f19169190910160400192915050565b6020808252601d908201527f416363657373436f6e74726f6c3a206e6f7420617574686f72697a6564000000604082015260600190565b60208082526018908201527f416363657373436f6e74726f6c3a207265656e74657265640000000000000000604082015260600190565b60008219821115611eb457611eb4611fc9565b500190565b600063ffffffff808316818516808303821115611ed857611ed8611fc9565b01949350505050565b600082611ef057611ef0611fdf565b500490565b600067ffffffffffffffff80841680611f1057611f10611fdf565b92169190910492915050565b6000816000190483118215151615611f3657611f36611fc9565b500290565b600067ffffffffffffffff80831681851681830481118215151615611f6257611f62611fc9565b02949350505050565b600082821015611f7d57611f7d611fc9565b500390565b60005b83811015611f9d578181015183820152602001611f85565b838111156112b85750506000910152565b6000600019821415611fc257611fc2611fc9565b5060010190565b634e487b7160e01b600052601160045260246000fd5b634e487b7160e01b600052601260045260246000fdfe7b305b6be5f275f648d05716597c483d754c2a242bd605feba3c64fb85360534a2646970667358221220d4ca4187d3b34cbce12ece919f27a378dae5d6e5f4f54878a3a4a44a1ba2a6f664736f6c63430008030033",
      "deployedBytecode": "0x608060405234801561001057600080fd5b506004361061004c5760003560e01c80635ebc6334146100515780638a700b531461007d578063ccdd9f5d14610092578063e89ad656146100a5575b600080fd5b61006461005f366004611d42565b6100b8565b6040805192835260208301919091520160405180910390f35b61009061008b366004611d72565b610189565b005b6100906100a0366004611d42565b6102ea565b6100906100b3366004611d72565b6105da565b60008061014a836100c8856107ce565b6001600160a01b031663d17b71d7866040518263ffffffff1660e01b81526004016100f591815260200190565b60206040518083038186803b15801561010d57600080fd5b505afa158015610121573d6000803e3d6000fd5b505050506040513d601f19601f820116820180604052508101906101459190611d5a565b61083b565b509150610182610159846108ff565b600101546001600160a01b031661016f856108ff565b600201546001600160a01b03168461091c565b9050915091565b60008080527f7b305b6be5f275f648d05716597c483d754c2a242bd605feba3c64fb853605366020527f63eec20f0ae1af135811da961c707cd581594291a92cf7bcd78c1cf1aca4e4b054600080516020611ff68339815191529060ff161561020d5760405162461bcd60e51b815260040161020490611e6a565b60405180910390fd5b60008281526002820160205260408120805460ff1916600117905580806102338161099e565b151514801561024d57508015156102498361099e565b1515145b610256826109b6565b906102745760405162461bcd60e51b81526004016102049190611e00565b507f50e75b23f8ec51bbcb044fe377457e835f3b5ccc7ebf69e80906452015dff607336102a18282610a1f565b6102bd5760405162461bcd60e51b815260040161020490611e33565b6102ca8888336000610a53565b5050506000938452505060020160205260409020805460ff191690555050565b60008080527f7b305b6be5f275f648d05716597c483d754c2a242bd605feba3c64fb853605366020527f63eec20f0ae1af135811da961c707cd581594291a92cf7bcd78c1cf1aca4e4b054600080516020611ff68339815191529060ff16156103655760405162461bcd60e51b815260040161020490611e6a565b60008281526002820160205260408120805460ff19166001179055808061038b8161099e565b15151480156103a557508015156103a18361099e565b1515145b6103ae826109b6565b906103cc5760405162461bcd60e51b81526004016102049190611e00565b507f50e75b23f8ec51bbcb044fe377457e835f3b5ccc7ebf69e80906452015dff607336103f98282610a1f565b6104155760405162461bcd60e51b815260040161020490611e33565b6000610420886108ff565b9050600061042d896107ce565b6001600160a01b031663d17b71d78a6040518263ffffffff1660e01b815260040161045a91815260200190565b60206040518083038186803b15801561047257600080fd5b505afa158015610486573d6000803e3d6000fd5b505050506040513d601f19601f820116820180604052508101906104aa9190611d5a565b90506104b68982610e80565b61050c5760405162461bcd60e51b815260206004820152602160248201527f54656c6c65723a20646f6573206e6f74206e656564206c69717569646174696f6044820152603760f91b6064820152608401610204565b6000806105198b8461083b565b9150915060006105288c610fa3565b600101546105358d610fa3565b546105409190611ea1565b905061054f8c82336001610a53565b508215610563576105638c84848733610fc0565b845460408051338152602081018690529081018390526001600160a01b03909116908d907f9950a0562c02382e2e840daa73082d5be7660ce37601f28fa4c84089c11e8a069060600160405180910390a35050506000978852505050600290930160205250506040909120805460ff191690555050565b600080806105e78161099e565b151514801561060157508015156105fd8361099e565b1515145b61060a826109b6565b906106285760405162461bcd60e51b81526004016102049190611e00565b507f50e75b23f8ec51bbcb044fe377457e835f3b5ccc7ebf69e80906452015dff607336106558282610a1f565b6106715760405162461bcd60e51b815260040161020490611e33565b60008080527f7b305b6be5f275f648d05716597c483d754c2a242bd605feba3c64fb853605366020527f63eec20f0ae1af135811da961c707cd581594291a92cf7bcd78c1cf1aca4e4b054600080516020611ff68339815191529060ff16156106ec5760405162461bcd60e51b815260040161020490611e6a565b60008281526002820160205260408120805460ff1916600117905561072689610714816108ff565b600101546001600160a01b03166110bd565b905060006107338a611155565b9050808210801561074357508189115b15610797576000818a116107605761075b838b611f6b565b61076a565b61076a8383611f6b565b90506107956107788c6108ff565b600101546001600160a01b03163361078f8e611239565b84611260565b505b6107ac8a8a6107a58d611239565b6000610a53565b505050600091825260020160205260409020805460ff19169055505050505050565b60009081527f0553069f1f0518e59f8623c18c83a1f987f2a0544d563e98dd803a7078142a8660209081526040808320600201546001600160a01b0390811684527f0553069f1f0518e59f8623c18c83a1f987f2a0544d563e98dd803a7078142a8b909252909120541690565b600080600061084985610fa3565b6001015461085686610fa3565b546108619190611ea1565b90506000610876826108716112be565b6112ef565b6108809083611ea1565b905084156108cc576108bd610894876108ff565b600201546001600160a01b03166108aa886108ff565b600101546001600160a01b03168761091c565b92506108c98385611ea1565b93505b808410156108ea576108dd8661130c565b6108e79085611ea1565b93505b808411156108f6578093505b50509250929050565b60006109096113c2565b6000928352600101602052506040902090565b60405163c05b1ec360e01b8152600090309063c05b1ec39061094690879087908790600401611ddc565b60206040518083038186803b15801561095e57600080fd5b505afa158015610972573d6000803e3d6000fd5b505050506040513d601f19601f820116820180604052508101906109969190611d5a565b949350505050565b60008181526001602052604090205460ff165b919050565b6060816109eb576040518060400160405280601081526020016f14185d5cd8589b194e881c185d5cd95960821b815250610a19565b6040518060400160405280601481526020017314185d5cd8589b194e881b9bdd081c185d5cd95960621b8152505b92915050565b6000610a296113eb565b6000938452602090815260408085206001600160a01b039490941685529290525090205460ff1690565b6000808411610a995760405162461bcd60e51b815260206004820152601260248201527154656c6c65723a207a65726f20726570617960701b6044820152606401610204565b610aa285610fa3565b60010154610aaf86610fa3565b54610aba9190611ea1565b905083811015610acd5792506000610ada565b610ad78482611f6b565b90505b60007f0553069f1f0518e59f8623c18c83a1f987f2a0544d563e98dd803a7078142a8d81610b07886108ff565b600101546001600160a01b039081168252602082019290925260400160002054811691508416610b3687611239565b6001600160a01b03161415610bce57610b4e86611239565b6001600160a01b031663125bfb66610b65886108ff565b600101546040516001600160e01b031960e084901b168152610b97916001600160a01b03169085908a90600401611ddc565b600060405180830381600087803b158015610bb157600080fd5b505af1158015610bc5573d6000803e3d6000fd5b50505050610bef565b610bef610bda876108ff565b600101546001600160a01b0316858388611260565b600080610bfb88610fa3565b60010154871015610c2f57508580610c1289610fa3565b6001016000828254610c249190611f6b565b90915550610c989050565b6000610c3a89610fa3565b600101541115610c6f57610c4d88610fa3565b600101549050610c5d8188611f6b565b96506000610c6a89610fa3565b600101555b8615610c985786915086610c8289610fa3565b8054600090610c92908490611f6b565b90915550505b604051638a700b5360e01b815260048101839052602481018290526001600160a01b03841690638a700b5390604401600060405180830381600087803b158015610ce157600080fd5b505af1158015610cf5573d6000803e3d6000fd5b505050508415610d9d578315610d4d5760405162461bcd60e51b815260206004820152601f60248201527f54656c6c65723a206c6971756964617465207061727469616c207265706179006044820152606401610204565b6004610d58896108ff565b600401601c6101000a81548160ff02191690836004811115610d8a57634e487b7160e01b600052602160045260246000fd5b0217905550610d9888611401565b610e75565b83610e1c576003610dad896108ff565b600401601c6101000a81548160ff02191690836004811115610ddf57634e487b7160e01b600052602160045260246000fd5b0217905550610e0088610df18a6108ff565b546001600160a01b03166114cc565b610e1c88610e0d8a6108ff565b546001600160a01b0316611560565b610e25886108ff565b54604080518981523360208201529081018690526001600160a01b039091169089907f20a1f2ec363af45dc5ee7d9d622f2dd68b52501c382126c7f04b53663c4c69bf9060600160405180910390a35b505050949350505050565b600080610e8c846108ff565b90506002600482810154600160e01b900460ff1690811115610ebe57634e487b7160e01b600052602160045260246000fd5b14610ecd576000915050610a19565b6004810154600160d01b900461ffff1615610f6d576040516372e1132760e01b81526004810185905260009030906372e113279060240160606040518083038186803b158015610f1c57600080fd5b505afa158015610f30573d6000803e3d6000fd5b505050506040513d601f19601f82011682018060405250810190610f549190611d93565b5091505083811115610f6b57600192505050610a19565b505b6004810154610f929063ffffffff600160801b8204811691600160a01b900416611eb9565b63ffffffff16421015949350505050565b6000610fad6113c2565b6000928352600201602052506040902090565b6004610fcb866108ff565b600490810154600160e01b900460ff1690811115610ff957634e487b7160e01b600052602160045260246000fd5b146110465760405162461bcd60e51b815260206004820152601b60248201527f54656c6c65723a206c6f616e206e6f74206c69717569646174656400000000006044820152606401610204565b82841161109757600061108461105b876108ff565b600101546001600160a01b0316611071886108ff565b600201546001600160a01b03168761091c565b90506110918682846115d5565b506110b6565b6110a28583836115d5565b6110b685826110b18688611f6b565b611692565b5050505050565b6000816001600160a01b03166370a082316110d785611239565b6040516001600160e01b031960e084901b1681526001600160a01b03909116600482015260240160206040518083038186803b15801561111657600080fd5b505afa15801561112a573d6000803e3d6000fd5b505050506040513d601f19601f8201168201806040525081019061114e9190611d5a565b9392505050565b60006001611162836108ff565b600490810154600160e01b900460ff169081111561119057634e487b7160e01b600052602160045260246000fd5b14156111ca5760006111ab836111a585611734565b54611751565b9050806111b784611734565b546111c29190611ea1565b9150506109b1565b60026111d5836108ff565b600490810154600160e01b900460ff169081111561120357634e487b7160e01b600052602160045260246000fd5b14156112315761121282610fa3565b6001015461121f83610fa3565b5461122a9190611ea1565b90506109b1565b506000919050565b60006112436113c2565b60009283526004016020525060409020546001600160a01b031690565b6112b8846323b872dd60e01b85858560405160240161128193929190611ddc565b60408051601f198184030181529190526020810180516001600160e01b03166001600160e01b031990931692909217909152611766565b50505050565b60006112e97f5166f2578d96d76687be006158a90b639fcc7501b0381b6b4ed953aca3e0e183611838565b54919050565b600061271061130261ffff841685611f1c565b61114e9190611ee1565b600080611318836108ff565b600101546001600160a01b0316905061133183826110bd565b61133b9083611ea1565b9150600061134884611840565b905060006113558261185d565b11156113bb5760005b6113678261185d565b8110156113b95760006113838661137e8585611867565b6110bd565b90506113996113928484611867565b858361091c565b6113a39086611ea1565b94505080806113b190611fae565b91505061135e565b505b5050919050565b60007f0553069f1f0518e59f8623c18c83a1f987f2a0544d563e98dd803a7078142a855b905090565b6000600080516020611ff68339815191526113e6565b600061140b611873565b60008381526001919091016020526040812091505b6114298261185d565b8110156114c7576006546001600160a01b03166001600160a01b03166323b872dd306000600901546001600160a01b03166114648686611867565b6040518463ffffffff1660e01b815260040161148293929190611ddc565b600060405180830381600087803b15801561149c57600080fd5b505af11580156114b0573d6000803e3d6000fd5b5050505080806114bf90611fae565b915050611420565b505050565b61155c826114d9846107ce565b6001600160a01b031663d17b71d7856040518263ffffffff1660e01b815260040161150691815260200190565b60206040518083038186803b15801561151e57600080fd5b505afa158015611532573d6000803e3d6000fd5b505050506040513d601f19601f820116820180604052508101906115569190611d5a565b836115d5565b5050565b600061156a611873565b60008481526001919091016020526040812091505b6115888261185d565b8110156112b8576115c261159a611873565b6001600160a01b0385166000908152602091909152604090206115bd8484611867565b61189b565b50806115cd81611fae565b91505061157f565b6115de836107ce565b604051630ad58d2f60e01b815260048101859052602481018490526001600160a01b0383811660448301529190911690630ad58d2f90606401600060405180830381600087803b15801561163157600080fd5b505af1158015611645573d6000803e3d6000fd5b50505050806001600160a01b0316837f7c5e5cb62e5ed3caf3764e4b0afedfedef533e27809d43367799787ad2abcd418460405161168591815260200190565b60405180910390a3505050565b60008381527f0553069f1f0518e59f8623c18c83a1f987f2a0544d563e98dd803a7078142a8a60205260409020816116e1856116cd816108ff565b600101546001600160a01b031686846118a7565b905060005b6116ef8361185d565b81101561172c5781611703575050506114c7565b611718866117118584611867565b87856118a7565b91508061172481611fae565b9150506116e6565b505050505050565b600061173e6113c2565b6000928352600301602052506040902090565b600061114e61175f84611a42565b83906112ef565b60006117bb826040518060400160405280602081526020017f5361666545524332303a206c6f772d6c6576656c2063616c6c206661696c6564815250856001600160a01b0316611aa29092919063ffffffff16565b8051909150156114c757808060200190518101906117d99190611d22565b6114c75760405162461bcd60e51b815260206004820152602a60248201527f5361666545524332303a204552433230206f7065726174696f6e20646964206e6044820152691bdd081cdd58d8d9595960b21b6064820152608401610204565b600080610fad565b600061184a6113c2565b6000928352600501602052506040902090565b6000610a19825490565b600061114e8383611ab1565b60007f36ec560bcbaf142f58499b90035254e32b3f3563174bc96dc2b2724bafa4c2a76113e6565b600061114e8383611b45565b6000806118b486866110bd565b90508015611a385760006118c7876108ff565b600101546001600160a01b03878116911614156118e5575080611908565b611905866118f2896108ff565b600101546001600160a01b03168461091c565b90505b83811161198c5761191887611239565b6001600160a01b031663125bfb668787856040518463ffffffff1660e01b815260040161194793929190611ddc565b600060405180830381600087803b15801561196157600080fd5b505af1158015611975573d6000803e3d6000fd5b5050505080846119859190611f6b565b9350611a36565b6000611997886108ff565b600101546001600160a01b03888116911614156119b55750836119c6565b6119c3836108718785611b94565b90505b6119cf88611239565b6001600160a01b031663125bfb668888846040518463ffffffff1660e01b81526004016119fe93929190611ddc565b600060405180830381600087803b158015611a1857600080fd5b505af1158015611a2c573d6000803e3d6000fd5b5050505060009450505b505b5090949350505050565b60006301e13380611a52836108ff565b60040154600160c01b900461ffff16611a6a846108ff565b60040154611a859190600160801b900463ffffffff16611f3b565b611a8f9190611ef5565b905061ffff81166109b157506001919050565b60606109968484600085611bc1565b81546000908210611b0f5760405162461bcd60e51b815260206004820152602260248201527f456e756d657261626c655365743a20696e646578206f7574206f6620626f756e604482015261647360f01b6064820152608401610204565b826000018281548110611b3257634e487b7160e01b600052603260045260246000fd5b9060005260206000200154905092915050565b6000818152600183016020526040812054611b8c57508154600181810184556000848152602080822090930184905584548482528286019093526040902091909155610a19565b506000610a19565b60008115611bb85781611ba961271085611f1c565b611bb39190611ee1565b61114e565b50600092915050565b606082471015611c225760405162461bcd60e51b815260206004820152602660248201527f416464726573733a20696e73756666696369656e742062616c616e636520666f6044820152651c8818d85b1b60d21b6064820152608401610204565b843b611c705760405162461bcd60e51b815260206004820152601d60248201527f416464726573733a2063616c6c20746f206e6f6e2d636f6e74726163740000006044820152606401610204565b600080866001600160a01b03168587604051611c8c9190611dc0565b60006040518083038185875af1925050503d8060008114611cc9576040519150601f19603f3d011682016040523d82523d6000602084013e611cce565b606091505b5091509150611cde828286611ce9565b979650505050505050565b60608315611cf857508161114e565b825115611d085782518084602001fd5b8160405162461bcd60e51b81526004016102049190611e00565b600060208284031215611d33578081fd5b8151801515811461114e578182fd5b600060208284031215611d53578081fd5b5035919050565b600060208284031215611d6b578081fd5b5051919050565b60008060408385031215611d84578081fd5b50508035926020909101359150565b600080600060608486031215611da7578081fd5b8351925060208401519150604084015190509250925092565b60008251611dd2818460208701611f82565b9190910192915050565b6001600160a01b039384168152919092166020820152604081019190915260600190565b6000602082528251806020840152611e1f816040850160208701611f82565b601f01601f19169190910160400192915050565b6020808252601d908201527f416363657373436f6e74726f6c3a206e6f7420617574686f72697a6564000000604082015260600190565b60208082526018908201527f416363657373436f6e74726f6c3a207265656e74657265640000000000000000604082015260600190565b60008219821115611eb457611eb4611fc9565b500190565b600063ffffffff808316818516808303821115611ed857611ed8611fc9565b01949350505050565b600082611ef057611ef0611fdf565b500490565b600067ffffffffffffffff80841680611f1057611f10611fdf565b92169190910492915050565b6000816000190483118215151615611f3657611f36611fc9565b500290565b600067ffffffffffffffff80831681851681830481118215151615611f6257611f62611fc9565b02949350505050565b600082821015611f7d57611f7d611fc9565b500390565b60005b83811015611f9d578181015183820152602001611f85565b838111156112b85750506000910152565b6000600019821415611fc257611fc2611fc9565b5060010190565b634e487b7160e01b600052601160045260246000fd5b634e487b7160e01b600052601260045260246000fdfe7b305b6be5f275f648d05716597c483d754c2a242bd605feba3c64fb85360534a2646970667358221220d4ca4187d3b34cbce12ece919f27a378dae5d6e5f4f54878a3a4a44a1ba2a6f664736f6c63430008030033",
      "devdoc": {
        "events": {
          "LoanLiquidated(uint256,address,address,uint256,uint256)": {
            "params": {
              "borrower": "Account address of the borrower",
              "liquidator": "Account address of the liquidator",
              "loanID": "ID of loan from which collateral was withdrawn",
              "reward": "Value in lending token paid out to liquidator",
              "tokensIn": "Percentage of the collateral price paid by the liquidator to the lending pool"
            }
          },
          "LoanRepaid(uint256,address,uint256,address,uint256)": {
            "params": {
              "amountPaid": "Amount of the loan paid back",
              "borrower": "Account address of the borrower",
              "loanID": "ID of loan from which collateral was withdrawn",
              "payer": "Account address of the payer",
              "totalOwed": "Total amount of the loan to be repaid"
            }
          }
        },
        "kind": "dev",
        "methods": {
          "escrowRepay(uint256,uint256)": {
            "details": "If the Escrow's balance of the borrowed token is less than the amount to repay, transfer tokens from the sender's wallet.Only the owner of the Escrow can call this. If someone else wants to make a payment, they should call the loan manager directly.",
            "params": {
              "amount": "The amount being repaid.",
              "loanID": "The id of the loan being used."
            }
          },
          "getLiquidationReward(uint256)": {
            "params": {
              "loanID": "The loan ID to get the info."
            },
            "returns": {
              "inCollateral_": "The value the liquidator will receive denoted in collateral tokens.",
              "inLending_": "The value the liquidator will receive denoted in lending tokens."
            }
          },
          "liquidateLoan(uint256)": {
            "params": {
              "loanID": "The ID of the loan to be liquidated"
            }
          },
          "repayLoan(uint256,uint256)": {
            "params": {
              "amount": "The amount of tokens to pay back to the loan",
              "loanID": "The ID of the loan the payment is for"
            }
          }
        },
        "version": 1
      },
      "userdoc": {
        "events": {
          "LoanLiquidated(uint256,address,address,uint256,uint256)": {
            "notice": "This event is emitted when a loan has been successfully liquidated"
          },
          "LoanRepaid(uint256,address,uint256,address,uint256)": {
            "notice": "This event is emitted when a loan has been successfully repaid"
          }
        },
        "kind": "user",
        "methods": {
          "escrowRepay(uint256,uint256)": {
            "notice": "Repay this Escrow's loan."
          },
          "getLiquidationReward(uint256)": {
            "notice": "It gets the current liquidation reward for a given loan."
          },
          "liquidateLoan(uint256)": {
            "notice": "Liquidate a loan if it is expired or under collateralized"
          },
          "repayLoan(uint256,uint256)": {
            "notice": "Make a payment to a loan"
          }
        },
        "version": 1
      },
      "storageLayout": {
        "storage": [],
        "types": null
      }
    },
    {
      "address": "0x28E2Ce61Ec8dEd7f7bC9CBa02a33573f7dd9f5F5",
      "abi": [
        {
          "anonymous": false,
          "inputs": [
            {
              "indexed": true,
              "internalType": "uint256",
              "name": "loanID",
              "type": "uint256"
            },
            {
              "indexed": true,
              "internalType": "address",
              "name": "borrower",
              "type": "address"
            },
            {
              "indexed": false,
              "internalType": "address",
              "name": "liquidator",
              "type": "address"
            },
            {
              "indexed": false,
              "internalType": "uint256",
              "name": "reward",
              "type": "uint256"
            },
            {
              "indexed": false,
              "internalType": "uint256",
              "name": "tokensIn",
              "type": "uint256"
            }
          ],
          "name": "LoanLiquidated",
          "type": "event"
        },
        {
          "anonymous": false,
          "inputs": [
            {
              "indexed": true,
              "internalType": "uint256",
              "name": "loanID",
              "type": "uint256"
            },
            {
              "indexed": true,
              "internalType": "address",
              "name": "borrower",
              "type": "address"
            },
            {
              "indexed": false,
              "internalType": "uint256",
              "name": "amountPaid",
              "type": "uint256"
            },
            {
              "indexed": false,
              "internalType": "address",
              "name": "payer",
              "type": "address"
            },
            {
              "indexed": false,
              "internalType": "uint256",
              "name": "totalOwed",
              "type": "uint256"
            }
          ],
          "name": "LoanRepaid",
          "type": "event"
        },
        {
          "inputs": [
            {
              "internalType": "uint256",
              "name": "loanID",
              "type": "uint256"
            },
            {
              "internalType": "uint256",
              "name": "amount",
              "type": "uint256"
            }
          ],
          "name": "escrowRepay",
          "outputs": [],
          "stateMutability": "nonpayable",
          "type": "function"
        },
        {
          "inputs": [
            {
              "internalType": "uint256",
              "name": "loanID",
              "type": "uint256"
            }
          ],
          "name": "getLiquidationReward",
          "outputs": [
            {
              "internalType": "uint256",
              "name": "inLending_",
              "type": "uint256"
            },
            {
              "internalType": "uint256",
              "name": "inCollateral_",
              "type": "uint256"
            }
          ],
          "stateMutability": "view",
          "type": "function"
        },
        {
          "inputs": [
            {
              "internalType": "uint256",
              "name": "loanID",
              "type": "uint256"
            }
          ],
          "name": "liquidateLoan",
          "outputs": [],
          "stateMutability": "nonpayable",
          "type": "function"
        },
        {
          "inputs": [
            {
              "internalType": "uint256",
              "name": "loanID",
              "type": "uint256"
            },
            {
              "internalType": "uint256",
              "name": "amount",
              "type": "uint256"
            }
          ],
          "name": "repayLoan",
          "outputs": [],
          "stateMutability": "nonpayable",
          "type": "function"
        }
      ],
      "artifactName": "RepayFacet",
      "transactionHash": "0x9bb6ed95cafb2cabe8e6ba16a7a301d849e43215e14b90241632191de6f23df4",
      "receipt": {
        "to": null,
        "from": "0xAFe87013dc96edE1E116a288D80FcaA0eFFE5fe5",
        "contractAddress": "0x28E2Ce61Ec8dEd7f7bC9CBa02a33573f7dd9f5F5",
        "transactionIndex": 0,
        "gasUsed": "1757520",
        "logsBloom": "0x00000000000000000000000000000000000000000000000000000000000000000000000000000000000000000000000000000000000000000000000000000000000000000000000000000000000000000000000000000000000000000000000000000000000000000000000000000000000000000000000000000000000000000000000000000000000000000000000000000000000000000000000000000000000000000000000000000000000000000000000000000000000000000000000000000000000000000000000000000000000000000000000000000000000000000000000000000000000000000000000000000000000000000000000000000000",
        "blockHash": "0xf56922a6944840f350477d7431a8f2148417641af4a62f6bc382ec1cdf4130d1",
        "transactionHash": "0x9bb6ed95cafb2cabe8e6ba16a7a301d849e43215e14b90241632191de6f23df4",
        "logs": [],
        "blockNumber": 25347871,
        "cumulativeGasUsed": "1757520",
        "status": 1,
        "byzantium": true
      },
      "args": [],
      "solcInputHash": "7646e63ef89d3687a032672685314b8f",
      "metadata": "{\"compiler\":{\"version\":\"0.8.3+commit.8d00100c\"},\"language\":\"Solidity\",\"output\":{\"abi\":[{\"anonymous\":false,\"inputs\":[{\"indexed\":true,\"internalType\":\"uint256\",\"name\":\"loanID\",\"type\":\"uint256\"},{\"indexed\":true,\"internalType\":\"address\",\"name\":\"borrower\",\"type\":\"address\"},{\"indexed\":false,\"internalType\":\"address\",\"name\":\"liquidator\",\"type\":\"address\"},{\"indexed\":false,\"internalType\":\"uint256\",\"name\":\"reward\",\"type\":\"uint256\"},{\"indexed\":false,\"internalType\":\"uint256\",\"name\":\"tokensIn\",\"type\":\"uint256\"}],\"name\":\"LoanLiquidated\",\"type\":\"event\"},{\"anonymous\":false,\"inputs\":[{\"indexed\":true,\"internalType\":\"uint256\",\"name\":\"loanID\",\"type\":\"uint256\"},{\"indexed\":true,\"internalType\":\"address\",\"name\":\"borrower\",\"type\":\"address\"},{\"indexed\":false,\"internalType\":\"uint256\",\"name\":\"amountPaid\",\"type\":\"uint256\"},{\"indexed\":false,\"internalType\":\"address\",\"name\":\"payer\",\"type\":\"address\"},{\"indexed\":false,\"internalType\":\"uint256\",\"name\":\"totalOwed\",\"type\":\"uint256\"}],\"name\":\"LoanRepaid\",\"type\":\"event\"},{\"inputs\":[{\"internalType\":\"uint256\",\"name\":\"loanID\",\"type\":\"uint256\"},{\"internalType\":\"uint256\",\"name\":\"amount\",\"type\":\"uint256\"}],\"name\":\"escrowRepay\",\"outputs\":[],\"stateMutability\":\"nonpayable\",\"type\":\"function\"},{\"inputs\":[{\"internalType\":\"uint256\",\"name\":\"loanID\",\"type\":\"uint256\"}],\"name\":\"getLiquidationReward\",\"outputs\":[{\"internalType\":\"uint256\",\"name\":\"inLending_\",\"type\":\"uint256\"},{\"internalType\":\"uint256\",\"name\":\"inCollateral_\",\"type\":\"uint256\"}],\"stateMutability\":\"view\",\"type\":\"function\"},{\"inputs\":[{\"internalType\":\"uint256\",\"name\":\"loanID\",\"type\":\"uint256\"}],\"name\":\"liquidateLoan\",\"outputs\":[],\"stateMutability\":\"nonpayable\",\"type\":\"function\"},{\"inputs\":[{\"internalType\":\"uint256\",\"name\":\"loanID\",\"type\":\"uint256\"},{\"internalType\":\"uint256\",\"name\":\"amount\",\"type\":\"uint256\"}],\"name\":\"repayLoan\",\"outputs\":[],\"stateMutability\":\"nonpayable\",\"type\":\"function\"}],\"devdoc\":{\"events\":{\"LoanLiquidated(uint256,address,address,uint256,uint256)\":{\"params\":{\"borrower\":\"Account address of the borrower\",\"liquidator\":\"Account address of the liquidator\",\"loanID\":\"ID of loan from which collateral was withdrawn\",\"reward\":\"Value in lending token paid out to liquidator\",\"tokensIn\":\"Percentage of the collateral price paid by the liquidator to the lending pool\"}},\"LoanRepaid(uint256,address,uint256,address,uint256)\":{\"params\":{\"amountPaid\":\"Amount of the loan paid back\",\"borrower\":\"Account address of the borrower\",\"loanID\":\"ID of loan from which collateral was withdrawn\",\"payer\":\"Account address of the payer\",\"totalOwed\":\"Total amount of the loan to be repaid\"}}},\"kind\":\"dev\",\"methods\":{\"escrowRepay(uint256,uint256)\":{\"details\":\"If the Escrow's balance of the borrowed token is less than the amount to repay, transfer tokens from the sender's wallet.Only the owner of the Escrow can call this. If someone else wants to make a payment, they should call the loan manager directly.\",\"params\":{\"amount\":\"The amount being repaid.\",\"loanID\":\"The id of the loan being used.\"}},\"getLiquidationReward(uint256)\":{\"params\":{\"loanID\":\"The loan ID to get the info.\"},\"returns\":{\"inCollateral_\":\"The value the liquidator will receive denoted in collateral tokens.\",\"inLending_\":\"The value the liquidator will receive denoted in lending tokens.\"}},\"liquidateLoan(uint256)\":{\"params\":{\"loanID\":\"The ID of the loan to be liquidated\"}},\"repayLoan(uint256,uint256)\":{\"params\":{\"amount\":\"The amount of tokens to pay back to the loan\",\"loanID\":\"The ID of the loan the payment is for\"}}},\"version\":1},\"userdoc\":{\"events\":{\"LoanLiquidated(uint256,address,address,uint256,uint256)\":{\"notice\":\"This event is emitted when a loan has been successfully liquidated\"},\"LoanRepaid(uint256,address,uint256,address,uint256)\":{\"notice\":\"This event is emitted when a loan has been successfully repaid\"}},\"kind\":\"user\",\"methods\":{\"escrowRepay(uint256,uint256)\":{\"notice\":\"Repay this Escrow's loan.\"},\"getLiquidationReward(uint256)\":{\"notice\":\"It gets the current liquidation reward for a given loan.\"},\"liquidateLoan(uint256)\":{\"notice\":\"Liquidate a loan if it is expired or under collateralized\"},\"repayLoan(uint256,uint256)\":{\"notice\":\"Make a payment to a loan\"}},\"version\":1}},\"settings\":{\"compilationTarget\":{\"contracts/market/RepayFacet.sol\":\"RepayFacet\"},\"evmVersion\":\"istanbul\",\"libraries\":{},\"metadata\":{\"bytecodeHash\":\"ipfs\",\"useLiteralContent\":true},\"optimizer\":{\"enabled\":true,\"runs\":200},\"remappings\":[]},\"sources\":{\"@chainlink/contracts/src/v0.8/interfaces/AggregatorInterface.sol\":{\"content\":\"// SPDX-License-Identifier: MIT\\npragma solidity ^0.8.0;\\n\\ninterface AggregatorInterface {\\n  function latestAnswer()\\n    external\\n    view\\n    returns (\\n      int256\\n    );\\n  \\n  function latestTimestamp()\\n    external\\n    view\\n    returns (\\n      uint256\\n    );\\n\\n  function latestRound()\\n    external\\n    view\\n    returns (\\n      uint256\\n    );\\n\\n  function getAnswer(\\n    uint256 roundId\\n  )\\n    external\\n    view\\n    returns (\\n      int256\\n    );\\n\\n  function getTimestamp(\\n    uint256 roundId\\n  )\\n    external\\n    view\\n    returns (\\n      uint256\\n    );\\n\\n  event AnswerUpdated(\\n    int256 indexed current,\\n    uint256 indexed roundId,\\n    uint256 updatedAt\\n  );\\n\\n  event NewRound(\\n    uint256 indexed roundId,\\n    address indexed startedBy,\\n    uint256 startedAt\\n  );\\n}\\n\",\"keccak256\":\"0x1a5dc81544a6479f64437a8aca22c869769dd54ee3522c7ef5ebae0d329a28f0\",\"license\":\"MIT\"},\"@chainlink/contracts/src/v0.8/interfaces/AggregatorV2V3Interface.sol\":{\"content\":\"// SPDX-License-Identifier: MIT\\npragma solidity ^0.8.0;\\n\\nimport \\\"./AggregatorInterface.sol\\\";\\nimport \\\"./AggregatorV3Interface.sol\\\";\\n\\ninterface AggregatorV2V3Interface is AggregatorInterface, AggregatorV3Interface\\n{\\n}\\n\",\"keccak256\":\"0xe8f8d98b515366730824d24269c7267eee7f0288cf737db8659acbb0c751eb53\",\"license\":\"MIT\"},\"@chainlink/contracts/src/v0.8/interfaces/AggregatorV3Interface.sol\":{\"content\":\"// SPDX-License-Identifier: MIT\\npragma solidity ^0.8.0;\\n\\ninterface AggregatorV3Interface {\\n\\n  function decimals()\\n    external\\n    view\\n    returns (\\n      uint8\\n    );\\n\\n  function description()\\n    external\\n    view\\n    returns (\\n      string memory\\n    );\\n\\n  function version()\\n    external\\n    view\\n    returns (\\n      uint256\\n    );\\n\\n  // getRoundData and latestRoundData should both raise \\\"No data present\\\"\\n  // if they do not have data to report, instead of returning unset values\\n  // which could be misinterpreted as actual reported values.\\n  function getRoundData(\\n    uint80 _roundId\\n  )\\n    external\\n    view\\n    returns (\\n      uint80 roundId,\\n      int256 answer,\\n      uint256 startedAt,\\n      uint256 updatedAt,\\n      uint80 answeredInRound\\n    );\\n\\n  function latestRoundData()\\n    external\\n    view\\n    returns (\\n      uint80 roundId,\\n      int256 answer,\\n      uint256 startedAt,\\n      uint256 updatedAt,\\n      uint80 answeredInRound\\n    );\\n\\n}\\n\",\"keccak256\":\"0xe6f5ac8c47f3b9b6135051efb9216f9ba5b312a6ecc20209b4f66a780443c328\",\"license\":\"MIT\"},\"@openzeppelin/contracts-upgradeable/access/AccessControlUpgradeable.sol\":{\"content\":\"// SPDX-License-Identifier: MIT\\n\\npragma solidity ^0.8.0;\\n\\nimport \\\"../utils/ContextUpgradeable.sol\\\";\\nimport \\\"../utils/StringsUpgradeable.sol\\\";\\nimport \\\"../utils/introspection/ERC165Upgradeable.sol\\\";\\nimport \\\"../proxy/utils/Initializable.sol\\\";\\n\\n/**\\n * @dev External interface of AccessControl declared to support ERC165 detection.\\n */\\ninterface IAccessControlUpgradeable {\\n    function hasRole(bytes32 role, address account) external view returns (bool);\\n    function getRoleAdmin(bytes32 role) external view returns (bytes32);\\n    function grantRole(bytes32 role, address account) external;\\n    function revokeRole(bytes32 role, address account) external;\\n    function renounceRole(bytes32 role, address account) external;\\n}\\n\\n/**\\n * @dev Contract module that allows children to implement role-based access\\n * control mechanisms. This is a lightweight version that doesn't allow enumerating role\\n * members except through off-chain means by accessing the contract event logs. Some\\n * applications may benefit from on-chain enumerability, for those cases see\\n * {AccessControlEnumerable}.\\n *\\n * Roles are referred to by their `bytes32` identifier. These should be exposed\\n * in the external API and be unique. The best way to achieve this is by\\n * using `public constant` hash digests:\\n *\\n * ```\\n * bytes32 public constant MY_ROLE = keccak256(\\\"MY_ROLE\\\");\\n * ```\\n *\\n * Roles can be used to represent a set of permissions. To restrict access to a\\n * function call, use {hasRole}:\\n *\\n * ```\\n * function foo() public {\\n *     require(hasRole(MY_ROLE, msg.sender));\\n *     ...\\n * }\\n * ```\\n *\\n * Roles can be granted and revoked dynamically via the {grantRole} and\\n * {revokeRole} functions. Each role has an associated admin role, and only\\n * accounts that have a role's admin role can call {grantRole} and {revokeRole}.\\n *\\n * By default, the admin role for all roles is `DEFAULT_ADMIN_ROLE`, which means\\n * that only accounts with this role will be able to grant or revoke other\\n * roles. More complex role relationships can be created by using\\n * {_setRoleAdmin}.\\n *\\n * WARNING: The `DEFAULT_ADMIN_ROLE` is also its own admin: it has permission to\\n * grant and revoke this role. Extra precautions should be taken to secure\\n * accounts that have been granted it.\\n */\\nabstract contract AccessControlUpgradeable is Initializable, ContextUpgradeable, IAccessControlUpgradeable, ERC165Upgradeable {\\n    function __AccessControl_init() internal initializer {\\n        __Context_init_unchained();\\n        __ERC165_init_unchained();\\n        __AccessControl_init_unchained();\\n    }\\n\\n    function __AccessControl_init_unchained() internal initializer {\\n    }\\n    struct RoleData {\\n        mapping (address => bool) members;\\n        bytes32 adminRole;\\n    }\\n\\n    mapping (bytes32 => RoleData) private _roles;\\n\\n    bytes32 public constant DEFAULT_ADMIN_ROLE = 0x00;\\n\\n    /**\\n     * @dev Emitted when `newAdminRole` is set as ``role``'s admin role, replacing `previousAdminRole`\\n     *\\n     * `DEFAULT_ADMIN_ROLE` is the starting admin for all roles, despite\\n     * {RoleAdminChanged} not being emitted signaling this.\\n     *\\n     * _Available since v3.1._\\n     */\\n    event RoleAdminChanged(bytes32 indexed role, bytes32 indexed previousAdminRole, bytes32 indexed newAdminRole);\\n\\n    /**\\n     * @dev Emitted when `account` is granted `role`.\\n     *\\n     * `sender` is the account that originated the contract call, an admin role\\n     * bearer except when using {_setupRole}.\\n     */\\n    event RoleGranted(bytes32 indexed role, address indexed account, address indexed sender);\\n\\n    /**\\n     * @dev Emitted when `account` is revoked `role`.\\n     *\\n     * `sender` is the account that originated the contract call:\\n     *   - if using `revokeRole`, it is the admin role bearer\\n     *   - if using `renounceRole`, it is the role bearer (i.e. `account`)\\n     */\\n    event RoleRevoked(bytes32 indexed role, address indexed account, address indexed sender);\\n\\n    /**\\n     * @dev Modifier that checks that an account has a specific role. Reverts\\n     * with a standardized message including the required role.\\n     *\\n     * The format of the revert reason is given by the following regular expression:\\n     *\\n     *  /^AccessControl: account (0x[0-9a-f]{20}) is missing role (0x[0-9a-f]{32})$/\\n     *\\n     * _Available since v4.1._\\n     */\\n    modifier onlyRole(bytes32 role) {\\n        _checkRole(role, _msgSender());\\n        _;\\n    }\\n\\n    /**\\n     * @dev See {IERC165-supportsInterface}.\\n     */\\n    function supportsInterface(bytes4 interfaceId) public view virtual override returns (bool) {\\n        return interfaceId == type(IAccessControlUpgradeable).interfaceId\\n            || super.supportsInterface(interfaceId);\\n    }\\n\\n    /**\\n     * @dev Returns `true` if `account` has been granted `role`.\\n     */\\n    function hasRole(bytes32 role, address account) public view override returns (bool) {\\n        return _roles[role].members[account];\\n    }\\n\\n    /**\\n     * @dev Revert with a standard message if `account` is missing `role`.\\n     *\\n     * The format of the revert reason is given by the following regular expression:\\n     *\\n     *  /^AccessControl: account (0x[0-9a-f]{20}) is missing role (0x[0-9a-f]{32})$/\\n     */\\n    function _checkRole(bytes32 role, address account) internal view {\\n        if(!hasRole(role, account)) {\\n            revert(string(abi.encodePacked(\\n                \\\"AccessControl: account \\\",\\n                StringsUpgradeable.toHexString(uint160(account), 20),\\n                \\\" is missing role \\\",\\n                StringsUpgradeable.toHexString(uint256(role), 32)\\n            )));\\n        }\\n    }\\n\\n    /**\\n     * @dev Returns the admin role that controls `role`. See {grantRole} and\\n     * {revokeRole}.\\n     *\\n     * To change a role's admin, use {_setRoleAdmin}.\\n     */\\n    function getRoleAdmin(bytes32 role) public view override returns (bytes32) {\\n        return _roles[role].adminRole;\\n    }\\n\\n    /**\\n     * @dev Grants `role` to `account`.\\n     *\\n     * If `account` had not been already granted `role`, emits a {RoleGranted}\\n     * event.\\n     *\\n     * Requirements:\\n     *\\n     * - the caller must have ``role``'s admin role.\\n     */\\n    function grantRole(bytes32 role, address account) public virtual override onlyRole(getRoleAdmin(role)) {\\n        _grantRole(role, account);\\n    }\\n\\n    /**\\n     * @dev Revokes `role` from `account`.\\n     *\\n     * If `account` had been granted `role`, emits a {RoleRevoked} event.\\n     *\\n     * Requirements:\\n     *\\n     * - the caller must have ``role``'s admin role.\\n     */\\n    function revokeRole(bytes32 role, address account) public virtual override onlyRole(getRoleAdmin(role)) {\\n        _revokeRole(role, account);\\n    }\\n\\n    /**\\n     * @dev Revokes `role` from the calling account.\\n     *\\n     * Roles are often managed via {grantRole} and {revokeRole}: this function's\\n     * purpose is to provide a mechanism for accounts to lose their privileges\\n     * if they are compromised (such as when a trusted device is misplaced).\\n     *\\n     * If the calling account had been granted `role`, emits a {RoleRevoked}\\n     * event.\\n     *\\n     * Requirements:\\n     *\\n     * - the caller must be `account`.\\n     */\\n    function renounceRole(bytes32 role, address account) public virtual override {\\n        require(account == _msgSender(), \\\"AccessControl: can only renounce roles for self\\\");\\n\\n        _revokeRole(role, account);\\n    }\\n\\n    /**\\n     * @dev Grants `role` to `account`.\\n     *\\n     * If `account` had not been already granted `role`, emits a {RoleGranted}\\n     * event. Note that unlike {grantRole}, this function doesn't perform any\\n     * checks on the calling account.\\n     *\\n     * [WARNING]\\n     * ====\\n     * This function should only be called from the constructor when setting\\n     * up the initial roles for the system.\\n     *\\n     * Using this function in any other way is effectively circumventing the admin\\n     * system imposed by {AccessControl}.\\n     * ====\\n     */\\n    function _setupRole(bytes32 role, address account) internal virtual {\\n        _grantRole(role, account);\\n    }\\n\\n    /**\\n     * @dev Sets `adminRole` as ``role``'s admin role.\\n     *\\n     * Emits a {RoleAdminChanged} event.\\n     */\\n    function _setRoleAdmin(bytes32 role, bytes32 adminRole) internal virtual {\\n        emit RoleAdminChanged(role, getRoleAdmin(role), adminRole);\\n        _roles[role].adminRole = adminRole;\\n    }\\n\\n    function _grantRole(bytes32 role, address account) private {\\n        if (!hasRole(role, account)) {\\n            _roles[role].members[account] = true;\\n            emit RoleGranted(role, account, _msgSender());\\n        }\\n    }\\n\\n    function _revokeRole(bytes32 role, address account) private {\\n        if (hasRole(role, account)) {\\n            _roles[role].members[account] = false;\\n            emit RoleRevoked(role, account, _msgSender());\\n        }\\n    }\\n    uint256[49] private __gap;\\n}\\n\",\"keccak256\":\"0x719f71989e630280a6902f857ef2b038d761ef2d0d51611f9da463be6c7c4be5\",\"license\":\"MIT\"},\"@openzeppelin/contracts-upgradeable/proxy/utils/Initializable.sol\":{\"content\":\"// SPDX-License-Identifier: MIT\\n\\n// solhint-disable-next-line compiler-version\\npragma solidity ^0.8.0;\\n\\n/**\\n * @dev This is a base contract to aid in writing upgradeable contracts, or any kind of contract that will be deployed\\n * behind a proxy. Since a proxied contract can't have a constructor, it's common to move constructor logic to an\\n * external initializer function, usually called `initialize`. It then becomes necessary to protect this initializer\\n * function so it can only be called once. The {initializer} modifier provided by this contract will have this effect.\\n *\\n * TIP: To avoid leaving the proxy in an uninitialized state, the initializer function should be called as early as\\n * possible by providing the encoded function call as the `_data` argument to {ERC1967Proxy-constructor}.\\n *\\n * CAUTION: When used with inheritance, manual care must be taken to not invoke a parent initializer twice, or to ensure\\n * that all initializers are idempotent. This is not verified automatically as constructors are by Solidity.\\n */\\nabstract contract Initializable {\\n\\n    /**\\n     * @dev Indicates that the contract has been initialized.\\n     */\\n    bool private _initialized;\\n\\n    /**\\n     * @dev Indicates that the contract is in the process of being initialized.\\n     */\\n    bool private _initializing;\\n\\n    /**\\n     * @dev Modifier to protect an initializer function from being invoked twice.\\n     */\\n    modifier initializer() {\\n        require(_initializing || !_initialized, \\\"Initializable: contract is already initialized\\\");\\n\\n        bool isTopLevelCall = !_initializing;\\n        if (isTopLevelCall) {\\n            _initializing = true;\\n            _initialized = true;\\n        }\\n\\n        _;\\n\\n        if (isTopLevelCall) {\\n            _initializing = false;\\n        }\\n    }\\n}\\n\",\"keccak256\":\"0x67d2f282a9678e58e878a0b774041ba7a01e2740a262aea97a3f681339914713\",\"license\":\"MIT\"},\"@openzeppelin/contracts-upgradeable/token/ERC20/ERC20Upgradeable.sol\":{\"content\":\"// SPDX-License-Identifier: MIT\\n\\npragma solidity ^0.8.0;\\n\\nimport \\\"./IERC20Upgradeable.sol\\\";\\nimport \\\"./extensions/IERC20MetadataUpgradeable.sol\\\";\\nimport \\\"../../utils/ContextUpgradeable.sol\\\";\\nimport \\\"../../proxy/utils/Initializable.sol\\\";\\n\\n/**\\n * @dev Implementation of the {IERC20} interface.\\n *\\n * This implementation is agnostic to the way tokens are created. This means\\n * that a supply mechanism has to be added in a derived contract using {_mint}.\\n * For a generic mechanism see {ERC20PresetMinterPauser}.\\n *\\n * TIP: For a detailed writeup see our guide\\n * https://forum.zeppelin.solutions/t/how-to-implement-erc20-supply-mechanisms/226[How\\n * to implement supply mechanisms].\\n *\\n * We have followed general OpenZeppelin guidelines: functions revert instead\\n * of returning `false` on failure. This behavior is nonetheless conventional\\n * and does not conflict with the expectations of ERC20 applications.\\n *\\n * Additionally, an {Approval} event is emitted on calls to {transferFrom}.\\n * This allows applications to reconstruct the allowance for all accounts just\\n * by listening to said events. Other implementations of the EIP may not emit\\n * these events, as it isn't required by the specification.\\n *\\n * Finally, the non-standard {decreaseAllowance} and {increaseAllowance}\\n * functions have been added to mitigate the well-known issues around setting\\n * allowances. See {IERC20-approve}.\\n */\\ncontract ERC20Upgradeable is Initializable, ContextUpgradeable, IERC20Upgradeable, IERC20MetadataUpgradeable {\\n    mapping (address => uint256) private _balances;\\n\\n    mapping (address => mapping (address => uint256)) private _allowances;\\n\\n    uint256 private _totalSupply;\\n\\n    string private _name;\\n    string private _symbol;\\n\\n    /**\\n     * @dev Sets the values for {name} and {symbol}.\\n     *\\n     * The defaut value of {decimals} is 18. To select a different value for\\n     * {decimals} you should overload it.\\n     *\\n     * All two of these values are immutable: they can only be set once during\\n     * construction.\\n     */\\n    function __ERC20_init(string memory name_, string memory symbol_) internal initializer {\\n        __Context_init_unchained();\\n        __ERC20_init_unchained(name_, symbol_);\\n    }\\n\\n    function __ERC20_init_unchained(string memory name_, string memory symbol_) internal initializer {\\n        _name = name_;\\n        _symbol = symbol_;\\n    }\\n\\n    /**\\n     * @dev Returns the name of the token.\\n     */\\n    function name() public view virtual override returns (string memory) {\\n        return _name;\\n    }\\n\\n    /**\\n     * @dev Returns the symbol of the token, usually a shorter version of the\\n     * name.\\n     */\\n    function symbol() public view virtual override returns (string memory) {\\n        return _symbol;\\n    }\\n\\n    /**\\n     * @dev Returns the number of decimals used to get its user representation.\\n     * For example, if `decimals` equals `2`, a balance of `505` tokens should\\n     * be displayed to a user as `5,05` (`505 / 10 ** 2`).\\n     *\\n     * Tokens usually opt for a value of 18, imitating the relationship between\\n     * Ether and Wei. This is the value {ERC20} uses, unless this function is\\n     * overridden;\\n     *\\n     * NOTE: This information is only used for _display_ purposes: it in\\n     * no way affects any of the arithmetic of the contract, including\\n     * {IERC20-balanceOf} and {IERC20-transfer}.\\n     */\\n    function decimals() public view virtual override returns (uint8) {\\n        return 18;\\n    }\\n\\n    /**\\n     * @dev See {IERC20-totalSupply}.\\n     */\\n    function totalSupply() public view virtual override returns (uint256) {\\n        return _totalSupply;\\n    }\\n\\n    /**\\n     * @dev See {IERC20-balanceOf}.\\n     */\\n    function balanceOf(address account) public view virtual override returns (uint256) {\\n        return _balances[account];\\n    }\\n\\n    /**\\n     * @dev See {IERC20-transfer}.\\n     *\\n     * Requirements:\\n     *\\n     * - `recipient` cannot be the zero address.\\n     * - the caller must have a balance of at least `amount`.\\n     */\\n    function transfer(address recipient, uint256 amount) public virtual override returns (bool) {\\n        _transfer(_msgSender(), recipient, amount);\\n        return true;\\n    }\\n\\n    /**\\n     * @dev See {IERC20-allowance}.\\n     */\\n    function allowance(address owner, address spender) public view virtual override returns (uint256) {\\n        return _allowances[owner][spender];\\n    }\\n\\n    /**\\n     * @dev See {IERC20-approve}.\\n     *\\n     * Requirements:\\n     *\\n     * - `spender` cannot be the zero address.\\n     */\\n    function approve(address spender, uint256 amount) public virtual override returns (bool) {\\n        _approve(_msgSender(), spender, amount);\\n        return true;\\n    }\\n\\n    /**\\n     * @dev See {IERC20-transferFrom}.\\n     *\\n     * Emits an {Approval} event indicating the updated allowance. This is not\\n     * required by the EIP. See the note at the beginning of {ERC20}.\\n     *\\n     * Requirements:\\n     *\\n     * - `sender` and `recipient` cannot be the zero address.\\n     * - `sender` must have a balance of at least `amount`.\\n     * - the caller must have allowance for ``sender``'s tokens of at least\\n     * `amount`.\\n     */\\n    function transferFrom(address sender, address recipient, uint256 amount) public virtual override returns (bool) {\\n        _transfer(sender, recipient, amount);\\n\\n        uint256 currentAllowance = _allowances[sender][_msgSender()];\\n        require(currentAllowance >= amount, \\\"ERC20: transfer amount exceeds allowance\\\");\\n        _approve(sender, _msgSender(), currentAllowance - amount);\\n\\n        return true;\\n    }\\n\\n    /**\\n     * @dev Atomically increases the allowance granted to `spender` by the caller.\\n     *\\n     * This is an alternative to {approve} that can be used as a mitigation for\\n     * problems described in {IERC20-approve}.\\n     *\\n     * Emits an {Approval} event indicating the updated allowance.\\n     *\\n     * Requirements:\\n     *\\n     * - `spender` cannot be the zero address.\\n     */\\n    function increaseAllowance(address spender, uint256 addedValue) public virtual returns (bool) {\\n        _approve(_msgSender(), spender, _allowances[_msgSender()][spender] + addedValue);\\n        return true;\\n    }\\n\\n    /**\\n     * @dev Atomically decreases the allowance granted to `spender` by the caller.\\n     *\\n     * This is an alternative to {approve} that can be used as a mitigation for\\n     * problems described in {IERC20-approve}.\\n     *\\n     * Emits an {Approval} event indicating the updated allowance.\\n     *\\n     * Requirements:\\n     *\\n     * - `spender` cannot be the zero address.\\n     * - `spender` must have allowance for the caller of at least\\n     * `subtractedValue`.\\n     */\\n    function decreaseAllowance(address spender, uint256 subtractedValue) public virtual returns (bool) {\\n        uint256 currentAllowance = _allowances[_msgSender()][spender];\\n        require(currentAllowance >= subtractedValue, \\\"ERC20: decreased allowance below zero\\\");\\n        _approve(_msgSender(), spender, currentAllowance - subtractedValue);\\n\\n        return true;\\n    }\\n\\n    /**\\n     * @dev Moves tokens `amount` from `sender` to `recipient`.\\n     *\\n     * This is internal function is equivalent to {transfer}, and can be used to\\n     * e.g. implement automatic token fees, slashing mechanisms, etc.\\n     *\\n     * Emits a {Transfer} event.\\n     *\\n     * Requirements:\\n     *\\n     * - `sender` cannot be the zero address.\\n     * - `recipient` cannot be the zero address.\\n     * - `sender` must have a balance of at least `amount`.\\n     */\\n    function _transfer(address sender, address recipient, uint256 amount) internal virtual {\\n        require(sender != address(0), \\\"ERC20: transfer from the zero address\\\");\\n        require(recipient != address(0), \\\"ERC20: transfer to the zero address\\\");\\n\\n        _beforeTokenTransfer(sender, recipient, amount);\\n\\n        uint256 senderBalance = _balances[sender];\\n        require(senderBalance >= amount, \\\"ERC20: transfer amount exceeds balance\\\");\\n        _balances[sender] = senderBalance - amount;\\n        _balances[recipient] += amount;\\n\\n        emit Transfer(sender, recipient, amount);\\n    }\\n\\n    /** @dev Creates `amount` tokens and assigns them to `account`, increasing\\n     * the total supply.\\n     *\\n     * Emits a {Transfer} event with `from` set to the zero address.\\n     *\\n     * Requirements:\\n     *\\n     * - `to` cannot be the zero address.\\n     */\\n    function _mint(address account, uint256 amount) internal virtual {\\n        require(account != address(0), \\\"ERC20: mint to the zero address\\\");\\n\\n        _beforeTokenTransfer(address(0), account, amount);\\n\\n        _totalSupply += amount;\\n        _balances[account] += amount;\\n        emit Transfer(address(0), account, amount);\\n    }\\n\\n    /**\\n     * @dev Destroys `amount` tokens from `account`, reducing the\\n     * total supply.\\n     *\\n     * Emits a {Transfer} event with `to` set to the zero address.\\n     *\\n     * Requirements:\\n     *\\n     * - `account` cannot be the zero address.\\n     * - `account` must have at least `amount` tokens.\\n     */\\n    function _burn(address account, uint256 amount) internal virtual {\\n        require(account != address(0), \\\"ERC20: burn from the zero address\\\");\\n\\n        _beforeTokenTransfer(account, address(0), amount);\\n\\n        uint256 accountBalance = _balances[account];\\n        require(accountBalance >= amount, \\\"ERC20: burn amount exceeds balance\\\");\\n        _balances[account] = accountBalance - amount;\\n        _totalSupply -= amount;\\n\\n        emit Transfer(account, address(0), amount);\\n    }\\n\\n    /**\\n     * @dev Sets `amount` as the allowance of `spender` over the `owner` s tokens.\\n     *\\n     * This internal function is equivalent to `approve`, and can be used to\\n     * e.g. set automatic allowances for certain subsystems, etc.\\n     *\\n     * Emits an {Approval} event.\\n     *\\n     * Requirements:\\n     *\\n     * - `owner` cannot be the zero address.\\n     * - `spender` cannot be the zero address.\\n     */\\n    function _approve(address owner, address spender, uint256 amount) internal virtual {\\n        require(owner != address(0), \\\"ERC20: approve from the zero address\\\");\\n        require(spender != address(0), \\\"ERC20: approve to the zero address\\\");\\n\\n        _allowances[owner][spender] = amount;\\n        emit Approval(owner, spender, amount);\\n    }\\n\\n    /**\\n     * @dev Hook that is called before any transfer of tokens. This includes\\n     * minting and burning.\\n     *\\n     * Calling conditions:\\n     *\\n     * - when `from` and `to` are both non-zero, `amount` of ``from``'s tokens\\n     * will be to transferred to `to`.\\n     * - when `from` is zero, `amount` tokens will be minted for `to`.\\n     * - when `to` is zero, `amount` of ``from``'s tokens will be burned.\\n     * - `from` and `to` are never both zero.\\n     *\\n     * To learn more about hooks, head to xref:ROOT:extending-contracts.adoc#using-hooks[Using Hooks].\\n     */\\n    function _beforeTokenTransfer(address from, address to, uint256 amount) internal virtual { }\\n    uint256[45] private __gap;\\n}\\n\",\"keccak256\":\"0x9c2d7425f3343ea340d6ea67e9d90109d4d846bb013c2572096ec88c9e74946b\",\"license\":\"MIT\"},\"@openzeppelin/contracts-upgradeable/token/ERC20/IERC20Upgradeable.sol\":{\"content\":\"// SPDX-License-Identifier: MIT\\n\\npragma solidity ^0.8.0;\\n\\n/**\\n * @dev Interface of the ERC20 standard as defined in the EIP.\\n */\\ninterface IERC20Upgradeable {\\n    /**\\n     * @dev Returns the amount of tokens in existence.\\n     */\\n    function totalSupply() external view returns (uint256);\\n\\n    /**\\n     * @dev Returns the amount of tokens owned by `account`.\\n     */\\n    function balanceOf(address account) external view returns (uint256);\\n\\n    /**\\n     * @dev Moves `amount` tokens from the caller's account to `recipient`.\\n     *\\n     * Returns a boolean value indicating whether the operation succeeded.\\n     *\\n     * Emits a {Transfer} event.\\n     */\\n    function transfer(address recipient, uint256 amount) external returns (bool);\\n\\n    /**\\n     * @dev Returns the remaining number of tokens that `spender` will be\\n     * allowed to spend on behalf of `owner` through {transferFrom}. This is\\n     * zero by default.\\n     *\\n     * This value changes when {approve} or {transferFrom} are called.\\n     */\\n    function allowance(address owner, address spender) external view returns (uint256);\\n\\n    /**\\n     * @dev Sets `amount` as the allowance of `spender` over the caller's tokens.\\n     *\\n     * Returns a boolean value indicating whether the operation succeeded.\\n     *\\n     * IMPORTANT: Beware that changing an allowance with this method brings the risk\\n     * that someone may use both the old and the new allowance by unfortunate\\n     * transaction ordering. One possible solution to mitigate this race\\n     * condition is to first reduce the spender's allowance to 0 and set the\\n     * desired value afterwards:\\n     * https://github.com/ethereum/EIPs/issues/20#issuecomment-263524729\\n     *\\n     * Emits an {Approval} event.\\n     */\\n    function approve(address spender, uint256 amount) external returns (bool);\\n\\n    /**\\n     * @dev Moves `amount` tokens from `sender` to `recipient` using the\\n     * allowance mechanism. `amount` is then deducted from the caller's\\n     * allowance.\\n     *\\n     * Returns a boolean value indicating whether the operation succeeded.\\n     *\\n     * Emits a {Transfer} event.\\n     */\\n    function transferFrom(address sender, address recipient, uint256 amount) external returns (bool);\\n\\n    /**\\n     * @dev Emitted when `value` tokens are moved from one account (`from`) to\\n     * another (`to`).\\n     *\\n     * Note that `value` may be zero.\\n     */\\n    event Transfer(address indexed from, address indexed to, uint256 value);\\n\\n    /**\\n     * @dev Emitted when the allowance of a `spender` for an `owner` is set by\\n     * a call to {approve}. `value` is the new allowance.\\n     */\\n    event Approval(address indexed owner, address indexed spender, uint256 value);\\n}\\n\",\"keccak256\":\"0x8d4a0f2b5b760b5e2c19ed3c108d83897a4dfd5bfed97a93867918df19191e5e\",\"license\":\"MIT\"},\"@openzeppelin/contracts-upgradeable/token/ERC20/extensions/IERC20MetadataUpgradeable.sol\":{\"content\":\"// SPDX-License-Identifier: MIT\\n\\npragma solidity ^0.8.0;\\n\\nimport \\\"../IERC20Upgradeable.sol\\\";\\n\\n/**\\n * @dev Interface for the optional metadata functions from the ERC20 standard.\\n *\\n * _Available since v4.1._\\n */\\ninterface IERC20MetadataUpgradeable is IERC20Upgradeable {\\n    /**\\n     * @dev Returns the name of the token.\\n     */\\n    function name() external view returns (string memory);\\n\\n    /**\\n     * @dev Returns the symbol of the token.\\n     */\\n    function symbol() external view returns (string memory);\\n\\n    /**\\n     * @dev Returns the decimals places of the token.\\n     */\\n    function decimals() external view returns (uint8);\\n}\\n\",\"keccak256\":\"0x6795c369a4eefa78468e38966f7851fbc2dda5e5b9ccd3fa2b45970e2e4d3abd\",\"license\":\"MIT\"},\"@openzeppelin/contracts-upgradeable/token/ERC721/ERC721Upgradeable.sol\":{\"content\":\"// SPDX-License-Identifier: MIT\\n\\npragma solidity ^0.8.0;\\n\\nimport \\\"./IERC721Upgradeable.sol\\\";\\nimport \\\"./IERC721ReceiverUpgradeable.sol\\\";\\nimport \\\"./extensions/IERC721MetadataUpgradeable.sol\\\";\\nimport \\\"../../utils/AddressUpgradeable.sol\\\";\\nimport \\\"../../utils/ContextUpgradeable.sol\\\";\\nimport \\\"../../utils/StringsUpgradeable.sol\\\";\\nimport \\\"../../utils/introspection/ERC165Upgradeable.sol\\\";\\nimport \\\"../../proxy/utils/Initializable.sol\\\";\\n\\n/**\\n * @dev Implementation of https://eips.ethereum.org/EIPS/eip-721[ERC721] Non-Fungible Token Standard, including\\n * the Metadata extension, but not including the Enumerable extension, which is available separately as\\n * {ERC721Enumerable}.\\n */\\ncontract ERC721Upgradeable is Initializable, ContextUpgradeable, ERC165Upgradeable, IERC721Upgradeable, IERC721MetadataUpgradeable {\\n    using AddressUpgradeable for address;\\n    using StringsUpgradeable for uint256;\\n\\n    // Token name\\n    string private _name;\\n\\n    // Token symbol\\n    string private _symbol;\\n\\n    // Mapping from token ID to owner address\\n    mapping (uint256 => address) private _owners;\\n\\n    // Mapping owner address to token count\\n    mapping (address => uint256) private _balances;\\n\\n    // Mapping from token ID to approved address\\n    mapping (uint256 => address) private _tokenApprovals;\\n\\n    // Mapping from owner to operator approvals\\n    mapping (address => mapping (address => bool)) private _operatorApprovals;\\n\\n    /**\\n     * @dev Initializes the contract by setting a `name` and a `symbol` to the token collection.\\n     */\\n    function __ERC721_init(string memory name_, string memory symbol_) internal initializer {\\n        __Context_init_unchained();\\n        __ERC165_init_unchained();\\n        __ERC721_init_unchained(name_, symbol_);\\n    }\\n\\n    function __ERC721_init_unchained(string memory name_, string memory symbol_) internal initializer {\\n        _name = name_;\\n        _symbol = symbol_;\\n    }\\n\\n    /**\\n     * @dev See {IERC165-supportsInterface}.\\n     */\\n    function supportsInterface(bytes4 interfaceId) public view virtual override(ERC165Upgradeable, IERC165Upgradeable) returns (bool) {\\n        return interfaceId == type(IERC721Upgradeable).interfaceId\\n            || interfaceId == type(IERC721MetadataUpgradeable).interfaceId\\n            || super.supportsInterface(interfaceId);\\n    }\\n\\n    /**\\n     * @dev See {IERC721-balanceOf}.\\n     */\\n    function balanceOf(address owner) public view virtual override returns (uint256) {\\n        require(owner != address(0), \\\"ERC721: balance query for the zero address\\\");\\n        return _balances[owner];\\n    }\\n\\n    /**\\n     * @dev See {IERC721-ownerOf}.\\n     */\\n    function ownerOf(uint256 tokenId) public view virtual override returns (address) {\\n        address owner = _owners[tokenId];\\n        require(owner != address(0), \\\"ERC721: owner query for nonexistent token\\\");\\n        return owner;\\n    }\\n\\n    /**\\n     * @dev See {IERC721Metadata-name}.\\n     */\\n    function name() public view virtual override returns (string memory) {\\n        return _name;\\n    }\\n\\n    /**\\n     * @dev See {IERC721Metadata-symbol}.\\n     */\\n    function symbol() public view virtual override returns (string memory) {\\n        return _symbol;\\n    }\\n\\n    /**\\n     * @dev See {IERC721Metadata-tokenURI}.\\n     */\\n    function tokenURI(uint256 tokenId) public view virtual override returns (string memory) {\\n        require(_exists(tokenId), \\\"ERC721Metadata: URI query for nonexistent token\\\");\\n\\n        string memory baseURI = _baseURI();\\n        return bytes(baseURI).length > 0\\n            ? string(abi.encodePacked(baseURI, tokenId.toString()))\\n            : '';\\n    }\\n\\n    /**\\n     * @dev Base URI for computing {tokenURI}. Empty by default, can be overriden\\n     * in child contracts.\\n     */\\n    function _baseURI() internal view virtual returns (string memory) {\\n        return \\\"\\\";\\n    }\\n\\n    /**\\n     * @dev See {IERC721-approve}.\\n     */\\n    function approve(address to, uint256 tokenId) public virtual override {\\n        address owner = ERC721Upgradeable.ownerOf(tokenId);\\n        require(to != owner, \\\"ERC721: approval to current owner\\\");\\n\\n        require(_msgSender() == owner || isApprovedForAll(owner, _msgSender()),\\n            \\\"ERC721: approve caller is not owner nor approved for all\\\"\\n        );\\n\\n        _approve(to, tokenId);\\n    }\\n\\n    /**\\n     * @dev See {IERC721-getApproved}.\\n     */\\n    function getApproved(uint256 tokenId) public view virtual override returns (address) {\\n        require(_exists(tokenId), \\\"ERC721: approved query for nonexistent token\\\");\\n\\n        return _tokenApprovals[tokenId];\\n    }\\n\\n    /**\\n     * @dev See {IERC721-setApprovalForAll}.\\n     */\\n    function setApprovalForAll(address operator, bool approved) public virtual override {\\n        require(operator != _msgSender(), \\\"ERC721: approve to caller\\\");\\n\\n        _operatorApprovals[_msgSender()][operator] = approved;\\n        emit ApprovalForAll(_msgSender(), operator, approved);\\n    }\\n\\n    /**\\n     * @dev See {IERC721-isApprovedForAll}.\\n     */\\n    function isApprovedForAll(address owner, address operator) public view virtual override returns (bool) {\\n        return _operatorApprovals[owner][operator];\\n    }\\n\\n    /**\\n     * @dev See {IERC721-transferFrom}.\\n     */\\n    function transferFrom(address from, address to, uint256 tokenId) public virtual override {\\n        //solhint-disable-next-line max-line-length\\n        require(_isApprovedOrOwner(_msgSender(), tokenId), \\\"ERC721: transfer caller is not owner nor approved\\\");\\n\\n        _transfer(from, to, tokenId);\\n    }\\n\\n    /**\\n     * @dev See {IERC721-safeTransferFrom}.\\n     */\\n    function safeTransferFrom(address from, address to, uint256 tokenId) public virtual override {\\n        safeTransferFrom(from, to, tokenId, \\\"\\\");\\n    }\\n\\n    /**\\n     * @dev See {IERC721-safeTransferFrom}.\\n     */\\n    function safeTransferFrom(address from, address to, uint256 tokenId, bytes memory _data) public virtual override {\\n        require(_isApprovedOrOwner(_msgSender(), tokenId), \\\"ERC721: transfer caller is not owner nor approved\\\");\\n        _safeTransfer(from, to, tokenId, _data);\\n    }\\n\\n    /**\\n     * @dev Safely transfers `tokenId` token from `from` to `to`, checking first that contract recipients\\n     * are aware of the ERC721 protocol to prevent tokens from being forever locked.\\n     *\\n     * `_data` is additional data, it has no specified format and it is sent in call to `to`.\\n     *\\n     * This internal function is equivalent to {safeTransferFrom}, and can be used to e.g.\\n     * implement alternative mechanisms to perform token transfer, such as signature-based.\\n     *\\n     * Requirements:\\n     *\\n     * - `from` cannot be the zero address.\\n     * - `to` cannot be the zero address.\\n     * - `tokenId` token must exist and be owned by `from`.\\n     * - If `to` refers to a smart contract, it must implement {IERC721Receiver-onERC721Received}, which is called upon a safe transfer.\\n     *\\n     * Emits a {Transfer} event.\\n     */\\n    function _safeTransfer(address from, address to, uint256 tokenId, bytes memory _data) internal virtual {\\n        _transfer(from, to, tokenId);\\n        require(_checkOnERC721Received(from, to, tokenId, _data), \\\"ERC721: transfer to non ERC721Receiver implementer\\\");\\n    }\\n\\n    /**\\n     * @dev Returns whether `tokenId` exists.\\n     *\\n     * Tokens can be managed by their owner or approved accounts via {approve} or {setApprovalForAll}.\\n     *\\n     * Tokens start existing when they are minted (`_mint`),\\n     * and stop existing when they are burned (`_burn`).\\n     */\\n    function _exists(uint256 tokenId) internal view virtual returns (bool) {\\n        return _owners[tokenId] != address(0);\\n    }\\n\\n    /**\\n     * @dev Returns whether `spender` is allowed to manage `tokenId`.\\n     *\\n     * Requirements:\\n     *\\n     * - `tokenId` must exist.\\n     */\\n    function _isApprovedOrOwner(address spender, uint256 tokenId) internal view virtual returns (bool) {\\n        require(_exists(tokenId), \\\"ERC721: operator query for nonexistent token\\\");\\n        address owner = ERC721Upgradeable.ownerOf(tokenId);\\n        return (spender == owner || getApproved(tokenId) == spender || isApprovedForAll(owner, spender));\\n    }\\n\\n    /**\\n     * @dev Safely mints `tokenId` and transfers it to `to`.\\n     *\\n     * Requirements:\\n     *\\n     * - `tokenId` must not exist.\\n     * - If `to` refers to a smart contract, it must implement {IERC721Receiver-onERC721Received}, which is called upon a safe transfer.\\n     *\\n     * Emits a {Transfer} event.\\n     */\\n    function _safeMint(address to, uint256 tokenId) internal virtual {\\n        _safeMint(to, tokenId, \\\"\\\");\\n    }\\n\\n    /**\\n     * @dev Same as {xref-ERC721-_safeMint-address-uint256-}[`_safeMint`], with an additional `data` parameter which is\\n     * forwarded in {IERC721Receiver-onERC721Received} to contract recipients.\\n     */\\n    function _safeMint(address to, uint256 tokenId, bytes memory _data) internal virtual {\\n        _mint(to, tokenId);\\n        require(_checkOnERC721Received(address(0), to, tokenId, _data), \\\"ERC721: transfer to non ERC721Receiver implementer\\\");\\n    }\\n\\n    /**\\n     * @dev Mints `tokenId` and transfers it to `to`.\\n     *\\n     * WARNING: Usage of this method is discouraged, use {_safeMint} whenever possible\\n     *\\n     * Requirements:\\n     *\\n     * - `tokenId` must not exist.\\n     * - `to` cannot be the zero address.\\n     *\\n     * Emits a {Transfer} event.\\n     */\\n    function _mint(address to, uint256 tokenId) internal virtual {\\n        require(to != address(0), \\\"ERC721: mint to the zero address\\\");\\n        require(!_exists(tokenId), \\\"ERC721: token already minted\\\");\\n\\n        _beforeTokenTransfer(address(0), to, tokenId);\\n\\n        _balances[to] += 1;\\n        _owners[tokenId] = to;\\n\\n        emit Transfer(address(0), to, tokenId);\\n    }\\n\\n    /**\\n     * @dev Destroys `tokenId`.\\n     * The approval is cleared when the token is burned.\\n     *\\n     * Requirements:\\n     *\\n     * - `tokenId` must exist.\\n     *\\n     * Emits a {Transfer} event.\\n     */\\n    function _burn(uint256 tokenId) internal virtual {\\n        address owner = ERC721Upgradeable.ownerOf(tokenId);\\n\\n        _beforeTokenTransfer(owner, address(0), tokenId);\\n\\n        // Clear approvals\\n        _approve(address(0), tokenId);\\n\\n        _balances[owner] -= 1;\\n        delete _owners[tokenId];\\n\\n        emit Transfer(owner, address(0), tokenId);\\n    }\\n\\n    /**\\n     * @dev Transfers `tokenId` from `from` to `to`.\\n     *  As opposed to {transferFrom}, this imposes no restrictions on msg.sender.\\n     *\\n     * Requirements:\\n     *\\n     * - `to` cannot be the zero address.\\n     * - `tokenId` token must be owned by `from`.\\n     *\\n     * Emits a {Transfer} event.\\n     */\\n    function _transfer(address from, address to, uint256 tokenId) internal virtual {\\n        require(ERC721Upgradeable.ownerOf(tokenId) == from, \\\"ERC721: transfer of token that is not own\\\");\\n        require(to != address(0), \\\"ERC721: transfer to the zero address\\\");\\n\\n        _beforeTokenTransfer(from, to, tokenId);\\n\\n        // Clear approvals from the previous owner\\n        _approve(address(0), tokenId);\\n\\n        _balances[from] -= 1;\\n        _balances[to] += 1;\\n        _owners[tokenId] = to;\\n\\n        emit Transfer(from, to, tokenId);\\n    }\\n\\n    /**\\n     * @dev Approve `to` to operate on `tokenId`\\n     *\\n     * Emits a {Approval} event.\\n     */\\n    function _approve(address to, uint256 tokenId) internal virtual {\\n        _tokenApprovals[tokenId] = to;\\n        emit Approval(ERC721Upgradeable.ownerOf(tokenId), to, tokenId);\\n    }\\n\\n    /**\\n     * @dev Internal function to invoke {IERC721Receiver-onERC721Received} on a target address.\\n     * The call is not executed if the target address is not a contract.\\n     *\\n     * @param from address representing the previous owner of the given token ID\\n     * @param to target address that will receive the tokens\\n     * @param tokenId uint256 ID of the token to be transferred\\n     * @param _data bytes optional data to send along with the call\\n     * @return bool whether the call correctly returned the expected magic value\\n     */\\n    function _checkOnERC721Received(address from, address to, uint256 tokenId, bytes memory _data)\\n        private returns (bool)\\n    {\\n        if (to.isContract()) {\\n            try IERC721ReceiverUpgradeable(to).onERC721Received(_msgSender(), from, tokenId, _data) returns (bytes4 retval) {\\n                return retval == IERC721ReceiverUpgradeable(to).onERC721Received.selector;\\n            } catch (bytes memory reason) {\\n                if (reason.length == 0) {\\n                    revert(\\\"ERC721: transfer to non ERC721Receiver implementer\\\");\\n                } else {\\n                    // solhint-disable-next-line no-inline-assembly\\n                    assembly {\\n                        revert(add(32, reason), mload(reason))\\n                    }\\n                }\\n            }\\n        } else {\\n            return true;\\n        }\\n    }\\n\\n    /**\\n     * @dev Hook that is called before any token transfer. This includes minting\\n     * and burning.\\n     *\\n     * Calling conditions:\\n     *\\n     * - When `from` and `to` are both non-zero, ``from``'s `tokenId` will be\\n     * transferred to `to`.\\n     * - When `from` is zero, `tokenId` will be minted for `to`.\\n     * - When `to` is zero, ``from``'s `tokenId` will be burned.\\n     * - `from` cannot be the zero address.\\n     * - `to` cannot be the zero address.\\n     *\\n     * To learn more about hooks, head to xref:ROOT:extending-contracts.adoc#using-hooks[Using Hooks].\\n     */\\n    function _beforeTokenTransfer(address from, address to, uint256 tokenId) internal virtual { }\\n    uint256[44] private __gap;\\n}\\n\",\"keccak256\":\"0x2ab92ebd3f4d4d85f30b39bd678ec3489e00aadd0a432c7a0ffa98adc2799004\",\"license\":\"MIT\"},\"@openzeppelin/contracts-upgradeable/token/ERC721/IERC721ReceiverUpgradeable.sol\":{\"content\":\"// SPDX-License-Identifier: MIT\\n\\npragma solidity ^0.8.0;\\n\\n/**\\n * @title ERC721 token receiver interface\\n * @dev Interface for any contract that wants to support safeTransfers\\n * from ERC721 asset contracts.\\n */\\ninterface IERC721ReceiverUpgradeable {\\n    /**\\n     * @dev Whenever an {IERC721} `tokenId` token is transferred to this contract via {IERC721-safeTransferFrom}\\n     * by `operator` from `from`, this function is called.\\n     *\\n     * It must return its Solidity selector to confirm the token transfer.\\n     * If any other value is returned or the interface is not implemented by the recipient, the transfer will be reverted.\\n     *\\n     * The selector can be obtained in Solidity with `IERC721.onERC721Received.selector`.\\n     */\\n    function onERC721Received(address operator, address from, uint256 tokenId, bytes calldata data) external returns (bytes4);\\n}\\n\",\"keccak256\":\"0x33620beff0655c5e728a72fff76fb6ce2dc32fc6b61eb8e435b12ed1adf31525\",\"license\":\"MIT\"},\"@openzeppelin/contracts-upgradeable/token/ERC721/IERC721Upgradeable.sol\":{\"content\":\"// SPDX-License-Identifier: MIT\\n\\npragma solidity ^0.8.0;\\n\\nimport \\\"../../utils/introspection/IERC165Upgradeable.sol\\\";\\n\\n/**\\n * @dev Required interface of an ERC721 compliant contract.\\n */\\ninterface IERC721Upgradeable is IERC165Upgradeable {\\n    /**\\n     * @dev Emitted when `tokenId` token is transferred from `from` to `to`.\\n     */\\n    event Transfer(address indexed from, address indexed to, uint256 indexed tokenId);\\n\\n    /**\\n     * @dev Emitted when `owner` enables `approved` to manage the `tokenId` token.\\n     */\\n    event Approval(address indexed owner, address indexed approved, uint256 indexed tokenId);\\n\\n    /**\\n     * @dev Emitted when `owner` enables or disables (`approved`) `operator` to manage all of its assets.\\n     */\\n    event ApprovalForAll(address indexed owner, address indexed operator, bool approved);\\n\\n    /**\\n     * @dev Returns the number of tokens in ``owner``'s account.\\n     */\\n    function balanceOf(address owner) external view returns (uint256 balance);\\n\\n    /**\\n     * @dev Returns the owner of the `tokenId` token.\\n     *\\n     * Requirements:\\n     *\\n     * - `tokenId` must exist.\\n     */\\n    function ownerOf(uint256 tokenId) external view returns (address owner);\\n\\n    /**\\n     * @dev Safely transfers `tokenId` token from `from` to `to`, checking first that contract recipients\\n     * are aware of the ERC721 protocol to prevent tokens from being forever locked.\\n     *\\n     * Requirements:\\n     *\\n     * - `from` cannot be the zero address.\\n     * - `to` cannot be the zero address.\\n     * - `tokenId` token must exist and be owned by `from`.\\n     * - If the caller is not `from`, it must be have been allowed to move this token by either {approve} or {setApprovalForAll}.\\n     * - If `to` refers to a smart contract, it must implement {IERC721Receiver-onERC721Received}, which is called upon a safe transfer.\\n     *\\n     * Emits a {Transfer} event.\\n     */\\n    function safeTransferFrom(address from, address to, uint256 tokenId) external;\\n\\n    /**\\n     * @dev Transfers `tokenId` token from `from` to `to`.\\n     *\\n     * WARNING: Usage of this method is discouraged, use {safeTransferFrom} whenever possible.\\n     *\\n     * Requirements:\\n     *\\n     * - `from` cannot be the zero address.\\n     * - `to` cannot be the zero address.\\n     * - `tokenId` token must be owned by `from`.\\n     * - If the caller is not `from`, it must be approved to move this token by either {approve} or {setApprovalForAll}.\\n     *\\n     * Emits a {Transfer} event.\\n     */\\n    function transferFrom(address from, address to, uint256 tokenId) external;\\n\\n    /**\\n     * @dev Gives permission to `to` to transfer `tokenId` token to another account.\\n     * The approval is cleared when the token is transferred.\\n     *\\n     * Only a single account can be approved at a time, so approving the zero address clears previous approvals.\\n     *\\n     * Requirements:\\n     *\\n     * - The caller must own the token or be an approved operator.\\n     * - `tokenId` must exist.\\n     *\\n     * Emits an {Approval} event.\\n     */\\n    function approve(address to, uint256 tokenId) external;\\n\\n    /**\\n     * @dev Returns the account approved for `tokenId` token.\\n     *\\n     * Requirements:\\n     *\\n     * - `tokenId` must exist.\\n     */\\n    function getApproved(uint256 tokenId) external view returns (address operator);\\n\\n    /**\\n     * @dev Approve or remove `operator` as an operator for the caller.\\n     * Operators can call {transferFrom} or {safeTransferFrom} for any token owned by the caller.\\n     *\\n     * Requirements:\\n     *\\n     * - The `operator` cannot be the caller.\\n     *\\n     * Emits an {ApprovalForAll} event.\\n     */\\n    function setApprovalForAll(address operator, bool _approved) external;\\n\\n    /**\\n     * @dev Returns if the `operator` is allowed to manage all of the assets of `owner`.\\n     *\\n     * See {setApprovalForAll}\\n     */\\n    function isApprovedForAll(address owner, address operator) external view returns (bool);\\n\\n    /**\\n      * @dev Safely transfers `tokenId` token from `from` to `to`.\\n      *\\n      * Requirements:\\n      *\\n      * - `from` cannot be the zero address.\\n      * - `to` cannot be the zero address.\\n      * - `tokenId` token must exist and be owned by `from`.\\n      * - If the caller is not `from`, it must be approved to move this token by either {approve} or {setApprovalForAll}.\\n      * - If `to` refers to a smart contract, it must implement {IERC721Receiver-onERC721Received}, which is called upon a safe transfer.\\n      *\\n      * Emits a {Transfer} event.\\n      */\\n    function safeTransferFrom(address from, address to, uint256 tokenId, bytes calldata data) external;\\n}\\n\",\"keccak256\":\"0x9ef7f2874f4a491f253a81eb4c5b9a7b6467a287aa0c32ac3dd684260a3cd7ad\",\"license\":\"MIT\"},\"@openzeppelin/contracts-upgradeable/token/ERC721/extensions/IERC721MetadataUpgradeable.sol\":{\"content\":\"// SPDX-License-Identifier: MIT\\n\\npragma solidity ^0.8.0;\\n\\nimport \\\"../IERC721Upgradeable.sol\\\";\\n\\n/**\\n * @title ERC-721 Non-Fungible Token Standard, optional metadata extension\\n * @dev See https://eips.ethereum.org/EIPS/eip-721\\n */\\ninterface IERC721MetadataUpgradeable is IERC721Upgradeable {\\n\\n    /**\\n     * @dev Returns the token collection name.\\n     */\\n    function name() external view returns (string memory);\\n\\n    /**\\n     * @dev Returns the token collection symbol.\\n     */\\n    function symbol() external view returns (string memory);\\n\\n    /**\\n     * @dev Returns the Uniform Resource Identifier (URI) for `tokenId` token.\\n     */\\n    function tokenURI(uint256 tokenId) external view returns (string memory);\\n}\\n\",\"keccak256\":\"0x64581a092c059ab0cb74f473545e379b8a88f36a6a57f805515ef8c6ae061847\",\"license\":\"MIT\"},\"@openzeppelin/contracts-upgradeable/utils/AddressUpgradeable.sol\":{\"content\":\"// SPDX-License-Identifier: MIT\\n\\npragma solidity ^0.8.0;\\n\\n/**\\n * @dev Collection of functions related to the address type\\n */\\nlibrary AddressUpgradeable {\\n    /**\\n     * @dev Returns true if `account` is a contract.\\n     *\\n     * [IMPORTANT]\\n     * ====\\n     * It is unsafe to assume that an address for which this function returns\\n     * false is an externally-owned account (EOA) and not a contract.\\n     *\\n     * Among others, `isContract` will return false for the following\\n     * types of addresses:\\n     *\\n     *  - an externally-owned account\\n     *  - a contract in construction\\n     *  - an address where a contract will be created\\n     *  - an address where a contract lived, but was destroyed\\n     * ====\\n     */\\n    function isContract(address account) internal view returns (bool) {\\n        // This method relies on extcodesize, which returns 0 for contracts in\\n        // construction, since the code is only stored at the end of the\\n        // constructor execution.\\n\\n        uint256 size;\\n        // solhint-disable-next-line no-inline-assembly\\n        assembly { size := extcodesize(account) }\\n        return size > 0;\\n    }\\n\\n    /**\\n     * @dev Replacement for Solidity's `transfer`: sends `amount` wei to\\n     * `recipient`, forwarding all available gas and reverting on errors.\\n     *\\n     * https://eips.ethereum.org/EIPS/eip-1884[EIP1884] increases the gas cost\\n     * of certain opcodes, possibly making contracts go over the 2300 gas limit\\n     * imposed by `transfer`, making them unable to receive funds via\\n     * `transfer`. {sendValue} removes this limitation.\\n     *\\n     * https://diligence.consensys.net/posts/2019/09/stop-using-soliditys-transfer-now/[Learn more].\\n     *\\n     * IMPORTANT: because control is transferred to `recipient`, care must be\\n     * taken to not create reentrancy vulnerabilities. Consider using\\n     * {ReentrancyGuard} or the\\n     * https://solidity.readthedocs.io/en/v0.5.11/security-considerations.html#use-the-checks-effects-interactions-pattern[checks-effects-interactions pattern].\\n     */\\n    function sendValue(address payable recipient, uint256 amount) internal {\\n        require(address(this).balance >= amount, \\\"Address: insufficient balance\\\");\\n\\n        // solhint-disable-next-line avoid-low-level-calls, avoid-call-value\\n        (bool success, ) = recipient.call{ value: amount }(\\\"\\\");\\n        require(success, \\\"Address: unable to send value, recipient may have reverted\\\");\\n    }\\n\\n    /**\\n     * @dev Performs a Solidity function call using a low level `call`. A\\n     * plain`call` is an unsafe replacement for a function call: use this\\n     * function instead.\\n     *\\n     * If `target` reverts with a revert reason, it is bubbled up by this\\n     * function (like regular Solidity function calls).\\n     *\\n     * Returns the raw returned data. To convert to the expected return value,\\n     * use https://solidity.readthedocs.io/en/latest/units-and-global-variables.html?highlight=abi.decode#abi-encoding-and-decoding-functions[`abi.decode`].\\n     *\\n     * Requirements:\\n     *\\n     * - `target` must be a contract.\\n     * - calling `target` with `data` must not revert.\\n     *\\n     * _Available since v3.1._\\n     */\\n    function functionCall(address target, bytes memory data) internal returns (bytes memory) {\\n      return functionCall(target, data, \\\"Address: low-level call failed\\\");\\n    }\\n\\n    /**\\n     * @dev Same as {xref-Address-functionCall-address-bytes-}[`functionCall`], but with\\n     * `errorMessage` as a fallback revert reason when `target` reverts.\\n     *\\n     * _Available since v3.1._\\n     */\\n    function functionCall(address target, bytes memory data, string memory errorMessage) internal returns (bytes memory) {\\n        return functionCallWithValue(target, data, 0, errorMessage);\\n    }\\n\\n    /**\\n     * @dev Same as {xref-Address-functionCall-address-bytes-}[`functionCall`],\\n     * but also transferring `value` wei to `target`.\\n     *\\n     * Requirements:\\n     *\\n     * - the calling contract must have an ETH balance of at least `value`.\\n     * - the called Solidity function must be `payable`.\\n     *\\n     * _Available since v3.1._\\n     */\\n    function functionCallWithValue(address target, bytes memory data, uint256 value) internal returns (bytes memory) {\\n        return functionCallWithValue(target, data, value, \\\"Address: low-level call with value failed\\\");\\n    }\\n\\n    /**\\n     * @dev Same as {xref-Address-functionCallWithValue-address-bytes-uint256-}[`functionCallWithValue`], but\\n     * with `errorMessage` as a fallback revert reason when `target` reverts.\\n     *\\n     * _Available since v3.1._\\n     */\\n    function functionCallWithValue(address target, bytes memory data, uint256 value, string memory errorMessage) internal returns (bytes memory) {\\n        require(address(this).balance >= value, \\\"Address: insufficient balance for call\\\");\\n        require(isContract(target), \\\"Address: call to non-contract\\\");\\n\\n        // solhint-disable-next-line avoid-low-level-calls\\n        (bool success, bytes memory returndata) = target.call{ value: value }(data);\\n        return _verifyCallResult(success, returndata, errorMessage);\\n    }\\n\\n    /**\\n     * @dev Same as {xref-Address-functionCall-address-bytes-}[`functionCall`],\\n     * but performing a static call.\\n     *\\n     * _Available since v3.3._\\n     */\\n    function functionStaticCall(address target, bytes memory data) internal view returns (bytes memory) {\\n        return functionStaticCall(target, data, \\\"Address: low-level static call failed\\\");\\n    }\\n\\n    /**\\n     * @dev Same as {xref-Address-functionCall-address-bytes-string-}[`functionCall`],\\n     * but performing a static call.\\n     *\\n     * _Available since v3.3._\\n     */\\n    function functionStaticCall(address target, bytes memory data, string memory errorMessage) internal view returns (bytes memory) {\\n        require(isContract(target), \\\"Address: static call to non-contract\\\");\\n\\n        // solhint-disable-next-line avoid-low-level-calls\\n        (bool success, bytes memory returndata) = target.staticcall(data);\\n        return _verifyCallResult(success, returndata, errorMessage);\\n    }\\n\\n    function _verifyCallResult(bool success, bytes memory returndata, string memory errorMessage) private pure returns(bytes memory) {\\n        if (success) {\\n            return returndata;\\n        } else {\\n            // Look for revert reason and bubble it up if present\\n            if (returndata.length > 0) {\\n                // The easiest way to bubble the revert reason is using memory via assembly\\n\\n                // solhint-disable-next-line no-inline-assembly\\n                assembly {\\n                    let returndata_size := mload(returndata)\\n                    revert(add(32, returndata), returndata_size)\\n                }\\n            } else {\\n                revert(errorMessage);\\n            }\\n        }\\n    }\\n}\\n\",\"keccak256\":\"0x5642ae1d6b33c5c0b71a8412c6c64cbcf2468b84a002bee3e33cdb5644d25cdb\",\"license\":\"MIT\"},\"@openzeppelin/contracts-upgradeable/utils/ContextUpgradeable.sol\":{\"content\":\"// SPDX-License-Identifier: MIT\\n\\npragma solidity ^0.8.0;\\nimport \\\"../proxy/utils/Initializable.sol\\\";\\n\\n/*\\n * @dev Provides information about the current execution context, including the\\n * sender of the transaction and its data. While these are generally available\\n * via msg.sender and msg.data, they should not be accessed in such a direct\\n * manner, since when dealing with meta-transactions the account sending and\\n * paying for execution may not be the actual sender (as far as an application\\n * is concerned).\\n *\\n * This contract is only required for intermediate, library-like contracts.\\n */\\nabstract contract ContextUpgradeable is Initializable {\\n    function __Context_init() internal initializer {\\n        __Context_init_unchained();\\n    }\\n\\n    function __Context_init_unchained() internal initializer {\\n    }\\n    function _msgSender() internal view virtual returns (address) {\\n        return msg.sender;\\n    }\\n\\n    function _msgData() internal view virtual returns (bytes calldata) {\\n        this; // silence state mutability warning without generating bytecode - see https://github.com/ethereum/solidity/issues/2691\\n        return msg.data;\\n    }\\n    uint256[50] private __gap;\\n}\\n\",\"keccak256\":\"0x8e9eb503de1189f50c5f16fef327da310b11898d6b9ab3ca937df07c35233b9e\",\"license\":\"MIT\"},\"@openzeppelin/contracts-upgradeable/utils/StringsUpgradeable.sol\":{\"content\":\"// SPDX-License-Identifier: MIT\\n\\npragma solidity ^0.8.0;\\n\\n/**\\n * @dev String operations.\\n */\\nlibrary StringsUpgradeable {\\n    bytes16 private constant alphabet = \\\"0123456789abcdef\\\";\\n\\n    /**\\n     * @dev Converts a `uint256` to its ASCII `string` decimal representation.\\n     */\\n    function toString(uint256 value) internal pure returns (string memory) {\\n        // Inspired by OraclizeAPI's implementation - MIT licence\\n        // https://github.com/oraclize/ethereum-api/blob/b42146b063c7d6ee1358846c198246239e9360e8/oraclizeAPI_0.4.25.sol\\n\\n        if (value == 0) {\\n            return \\\"0\\\";\\n        }\\n        uint256 temp = value;\\n        uint256 digits;\\n        while (temp != 0) {\\n            digits++;\\n            temp /= 10;\\n        }\\n        bytes memory buffer = new bytes(digits);\\n        while (value != 0) {\\n            digits -= 1;\\n            buffer[digits] = bytes1(uint8(48 + uint256(value % 10)));\\n            value /= 10;\\n        }\\n        return string(buffer);\\n    }\\n\\n    /**\\n     * @dev Converts a `uint256` to its ASCII `string` hexadecimal representation.\\n     */\\n    function toHexString(uint256 value) internal pure returns (string memory) {\\n        if (value == 0) {\\n            return \\\"0x00\\\";\\n        }\\n        uint256 temp = value;\\n        uint256 length = 0;\\n        while (temp != 0) {\\n            length++;\\n            temp >>= 8;\\n        }\\n        return toHexString(value, length);\\n    }\\n\\n    /**\\n     * @dev Converts a `uint256` to its ASCII `string` hexadecimal representation with fixed length.\\n     */\\n    function toHexString(uint256 value, uint256 length) internal pure returns (string memory) {\\n        bytes memory buffer = new bytes(2 * length + 2);\\n        buffer[0] = \\\"0\\\";\\n        buffer[1] = \\\"x\\\";\\n        for (uint256 i = 2 * length + 1; i > 1; --i) {\\n            buffer[i] = alphabet[value & 0xf];\\n            value >>= 4;\\n        }\\n        require(value == 0, \\\"Strings: hex length insufficient\\\");\\n        return string(buffer);\\n    }\\n\\n}\\n\",\"keccak256\":\"0x6964377da5c19ade6b3e96bae0c0e82494d518af70cf12d2cdb3276f78fb3d85\",\"license\":\"MIT\"},\"@openzeppelin/contracts-upgradeable/utils/introspection/ERC165Upgradeable.sol\":{\"content\":\"// SPDX-License-Identifier: MIT\\n\\npragma solidity ^0.8.0;\\n\\nimport \\\"./IERC165Upgradeable.sol\\\";\\nimport \\\"../../proxy/utils/Initializable.sol\\\";\\n\\n/**\\n * @dev Implementation of the {IERC165} interface.\\n *\\n * Contracts that want to implement ERC165 should inherit from this contract and override {supportsInterface} to check\\n * for the additional interface id that will be supported. For example:\\n *\\n * ```solidity\\n * function supportsInterface(bytes4 interfaceId) public view virtual override returns (bool) {\\n *     return interfaceId == type(MyInterface).interfaceId || super.supportsInterface(interfaceId);\\n * }\\n * ```\\n *\\n * Alternatively, {ERC165Storage} provides an easier to use but more expensive implementation.\\n */\\nabstract contract ERC165Upgradeable is Initializable, IERC165Upgradeable {\\n    function __ERC165_init() internal initializer {\\n        __ERC165_init_unchained();\\n    }\\n\\n    function __ERC165_init_unchained() internal initializer {\\n    }\\n    /**\\n     * @dev See {IERC165-supportsInterface}.\\n     */\\n    function supportsInterface(bytes4 interfaceId) public view virtual override returns (bool) {\\n        return interfaceId == type(IERC165Upgradeable).interfaceId;\\n    }\\n    uint256[50] private __gap;\\n}\\n\",\"keccak256\":\"0x17c9c5d2d6b56527215ee7b3da6dde66b6f23f1b3d5c66cc436e753ef349a97a\",\"license\":\"MIT\"},\"@openzeppelin/contracts-upgradeable/utils/introspection/IERC165Upgradeable.sol\":{\"content\":\"// SPDX-License-Identifier: MIT\\n\\npragma solidity ^0.8.0;\\n\\n/**\\n * @dev Interface of the ERC165 standard, as defined in the\\n * https://eips.ethereum.org/EIPS/eip-165[EIP].\\n *\\n * Implementers can declare support of contract interfaces, which can then be\\n * queried by others ({ERC165Checker}).\\n *\\n * For an implementation, see {ERC165}.\\n */\\ninterface IERC165Upgradeable {\\n    /**\\n     * @dev Returns true if this contract implements the interface defined by\\n     * `interfaceId`. See the corresponding\\n     * https://eips.ethereum.org/EIPS/eip-165#how-interfaces-are-identified[EIP section]\\n     * to learn more about how these ids are created.\\n     *\\n     * This function call must use less than 30 000 gas.\\n     */\\n    function supportsInterface(bytes4 interfaceId) external view returns (bool);\\n}\\n\",\"keccak256\":\"0x1c4860acd323e34a67b3e97faab9aaa55fe8e92b1dcf08b5f47f3468d58ce75c\",\"license\":\"MIT\"},\"@openzeppelin/contracts/access/Ownable.sol\":{\"content\":\"// SPDX-License-Identifier: MIT\\n\\npragma solidity ^0.8.0;\\n\\nimport \\\"../utils/Context.sol\\\";\\n/**\\n * @dev Contract module which provides a basic access control mechanism, where\\n * there is an account (an owner) that can be granted exclusive access to\\n * specific functions.\\n *\\n * By default, the owner account will be the one that deploys the contract. This\\n * can later be changed with {transferOwnership}.\\n *\\n * This module is used through inheritance. It will make available the modifier\\n * `onlyOwner`, which can be applied to your functions to restrict their use to\\n * the owner.\\n */\\nabstract contract Ownable is Context {\\n    address private _owner;\\n\\n    event OwnershipTransferred(address indexed previousOwner, address indexed newOwner);\\n\\n    /**\\n     * @dev Initializes the contract setting the deployer as the initial owner.\\n     */\\n    constructor () {\\n        address msgSender = _msgSender();\\n        _owner = msgSender;\\n        emit OwnershipTransferred(address(0), msgSender);\\n    }\\n\\n    /**\\n     * @dev Returns the address of the current owner.\\n     */\\n    function owner() public view virtual returns (address) {\\n        return _owner;\\n    }\\n\\n    /**\\n     * @dev Throws if called by any account other than the owner.\\n     */\\n    modifier onlyOwner() {\\n        require(owner() == _msgSender(), \\\"Ownable: caller is not the owner\\\");\\n        _;\\n    }\\n\\n    /**\\n     * @dev Leaves the contract without owner. It will not be possible to call\\n     * `onlyOwner` functions anymore. Can only be called by the current owner.\\n     *\\n     * NOTE: Renouncing ownership will leave the contract without an owner,\\n     * thereby removing any functionality that is only available to the owner.\\n     */\\n    function renounceOwnership() public virtual onlyOwner {\\n        emit OwnershipTransferred(_owner, address(0));\\n        _owner = address(0);\\n    }\\n\\n    /**\\n     * @dev Transfers ownership of the contract to a new account (`newOwner`).\\n     * Can only be called by the current owner.\\n     */\\n    function transferOwnership(address newOwner) public virtual onlyOwner {\\n        require(newOwner != address(0), \\\"Ownable: new owner is the zero address\\\");\\n        emit OwnershipTransferred(_owner, newOwner);\\n        _owner = newOwner;\\n    }\\n}\\n\",\"keccak256\":\"0x1cae4f85f114ff17b90414f5da67365b1d00337abb5bce9bf944eb78a2c0673c\",\"license\":\"MIT\"},\"@openzeppelin/contracts/proxy/Clones.sol\":{\"content\":\"// SPDX-License-Identifier: MIT\\n\\npragma solidity ^0.8.0;\\n\\n/**\\n * @dev https://eips.ethereum.org/EIPS/eip-1167[EIP 1167] is a standard for\\n * deploying minimal proxy contracts, also known as \\\"clones\\\".\\n *\\n * > To simply and cheaply clone contract functionality in an immutable way, this standard specifies\\n * > a minimal bytecode implementation that delegates all calls to a known, fixed address.\\n *\\n * The library includes functions to deploy a proxy using either `create` (traditional deployment) or `create2`\\n * (salted deterministic deployment). It also includes functions to predict the addresses of clones deployed using the\\n * deterministic method.\\n *\\n * _Available since v3.4._\\n */\\nlibrary Clones {\\n    /**\\n     * @dev Deploys and returns the address of a clone that mimics the behaviour of `implementation`.\\n     *\\n     * This function uses the create opcode, which should never revert.\\n     */\\n    function clone(address implementation) internal returns (address instance) {\\n        // solhint-disable-next-line no-inline-assembly\\n        assembly {\\n            let ptr := mload(0x40)\\n            mstore(ptr, 0x3d602d80600a3d3981f3363d3d373d3d3d363d73000000000000000000000000)\\n            mstore(add(ptr, 0x14), shl(0x60, implementation))\\n            mstore(add(ptr, 0x28), 0x5af43d82803e903d91602b57fd5bf30000000000000000000000000000000000)\\n            instance := create(0, ptr, 0x37)\\n        }\\n        require(instance != address(0), \\\"ERC1167: create failed\\\");\\n    }\\n\\n    /**\\n     * @dev Deploys and returns the address of a clone that mimics the behaviour of `implementation`.\\n     *\\n     * This function uses the create2 opcode and a `salt` to deterministically deploy\\n     * the clone. Using the same `implementation` and `salt` multiple time will revert, since\\n     * the clones cannot be deployed twice at the same address.\\n     */\\n    function cloneDeterministic(address implementation, bytes32 salt) internal returns (address instance) {\\n        // solhint-disable-next-line no-inline-assembly\\n        assembly {\\n            let ptr := mload(0x40)\\n            mstore(ptr, 0x3d602d80600a3d3981f3363d3d373d3d3d363d73000000000000000000000000)\\n            mstore(add(ptr, 0x14), shl(0x60, implementation))\\n            mstore(add(ptr, 0x28), 0x5af43d82803e903d91602b57fd5bf30000000000000000000000000000000000)\\n            instance := create2(0, ptr, 0x37, salt)\\n        }\\n        require(instance != address(0), \\\"ERC1167: create2 failed\\\");\\n    }\\n\\n    /**\\n     * @dev Computes the address of a clone deployed using {Clones-cloneDeterministic}.\\n     */\\n    function predictDeterministicAddress(address implementation, bytes32 salt, address deployer) internal pure returns (address predicted) {\\n        // solhint-disable-next-line no-inline-assembly\\n        assembly {\\n            let ptr := mload(0x40)\\n            mstore(ptr, 0x3d602d80600a3d3981f3363d3d373d3d3d363d73000000000000000000000000)\\n            mstore(add(ptr, 0x14), shl(0x60, implementation))\\n            mstore(add(ptr, 0x28), 0x5af43d82803e903d91602b57fd5bf3ff00000000000000000000000000000000)\\n            mstore(add(ptr, 0x38), shl(0x60, deployer))\\n            mstore(add(ptr, 0x4c), salt)\\n            mstore(add(ptr, 0x6c), keccak256(ptr, 0x37))\\n            predicted := keccak256(add(ptr, 0x37), 0x55)\\n        }\\n    }\\n\\n    /**\\n     * @dev Computes the address of a clone deployed using {Clones-cloneDeterministic}.\\n     */\\n    function predictDeterministicAddress(address implementation, bytes32 salt) internal view returns (address predicted) {\\n        return predictDeterministicAddress(implementation, salt, address(this));\\n    }\\n}\\n\",\"keccak256\":\"0x90dec20805396efc780a82c62578626103e03278bc1f48b61bb3aba52a61617c\",\"license\":\"MIT\"},\"@openzeppelin/contracts/proxy/Proxy.sol\":{\"content\":\"// SPDX-License-Identifier: MIT\\n\\npragma solidity ^0.8.0;\\n\\n/**\\n * @dev This abstract contract provides a fallback function that delegates all calls to another contract using the EVM\\n * instruction `delegatecall`. We refer to the second contract as the _implementation_ behind the proxy, and it has to\\n * be specified by overriding the virtual {_implementation} function.\\n *\\n * Additionally, delegation to the implementation can be triggered manually through the {_fallback} function, or to a\\n * different contract through the {_delegate} function.\\n *\\n * The success and return data of the delegated call will be returned back to the caller of the proxy.\\n */\\nabstract contract Proxy {\\n    /**\\n     * @dev Delegates the current call to `implementation`.\\n     *\\n     * This function does not return to its internall call site, it will return directly to the external caller.\\n     */\\n    function _delegate(address implementation) internal virtual {\\n        // solhint-disable-next-line no-inline-assembly\\n        assembly {\\n            // Copy msg.data. We take full control of memory in this inline assembly\\n            // block because it will not return to Solidity code. We overwrite the\\n            // Solidity scratch pad at memory position 0.\\n            calldatacopy(0, 0, calldatasize())\\n\\n            // Call the implementation.\\n            // out and outsize are 0 because we don't know the size yet.\\n            let result := delegatecall(gas(), implementation, 0, calldatasize(), 0, 0)\\n\\n            // Copy the returned data.\\n            returndatacopy(0, 0, returndatasize())\\n\\n            switch result\\n            // delegatecall returns 0 on error.\\n            case 0 { revert(0, returndatasize()) }\\n            default { return(0, returndatasize()) }\\n        }\\n    }\\n\\n    /**\\n     * @dev This is a virtual function that should be overriden so it returns the address to which the fallback function\\n     * and {_fallback} should delegate.\\n     */\\n    function _implementation() internal view virtual returns (address);\\n\\n    /**\\n     * @dev Delegates the current call to the address returned by `_implementation()`.\\n     *\\n     * This function does not return to its internall call site, it will return directly to the external caller.\\n     */\\n    function _fallback() internal virtual {\\n        _beforeFallback();\\n        _delegate(_implementation());\\n    }\\n\\n    /**\\n     * @dev Fallback function that delegates calls to the address returned by `_implementation()`. Will run if no other\\n     * function in the contract matches the call data.\\n     */\\n    fallback () external payable virtual {\\n        _fallback();\\n    }\\n\\n    /**\\n     * @dev Fallback function that delegates calls to the address returned by `_implementation()`. Will run if call data\\n     * is empty.\\n     */\\n    receive () external payable virtual {\\n        _fallback();\\n    }\\n\\n    /**\\n     * @dev Hook that is called before falling back to the implementation. Can happen as part of a manual `_fallback`\\n     * call, or as part of the Solidity `fallback` or `receive` functions.\\n     *\\n     * If overriden should call `super._beforeFallback()`.\\n     */\\n    function _beforeFallback() internal virtual {\\n    }\\n}\\n\",\"keccak256\":\"0xc706395df88dc1d459f21e51c57ab8820af80d1e8c3c14933a651794d78a429f\",\"license\":\"MIT\"},\"@openzeppelin/contracts/proxy/beacon/IBeacon.sol\":{\"content\":\"// SPDX-License-Identifier: MIT\\n\\npragma solidity ^0.8.0;\\n\\n/**\\n * @dev This is the interface that {BeaconProxy} expects of its beacon.\\n */\\ninterface IBeacon {\\n    /**\\n     * @dev Must return an address that can be used as a delegate call target.\\n     *\\n     * {BeaconProxy} will check that this address is a contract.\\n     */\\n    function implementation() external view returns (address);\\n}\\n\",\"keccak256\":\"0x5615339d191e77be7e46319b67856f9355786f705b7b3c4a7237ab70c1864ab1\",\"license\":\"MIT\"},\"@openzeppelin/contracts/token/ERC20/ERC20.sol\":{\"content\":\"// SPDX-License-Identifier: MIT\\n\\npragma solidity ^0.8.0;\\n\\nimport \\\"./IERC20.sol\\\";\\nimport \\\"./extensions/IERC20Metadata.sol\\\";\\nimport \\\"../../utils/Context.sol\\\";\\n\\n/**\\n * @dev Implementation of the {IERC20} interface.\\n *\\n * This implementation is agnostic to the way tokens are created. This means\\n * that a supply mechanism has to be added in a derived contract using {_mint}.\\n * For a generic mechanism see {ERC20PresetMinterPauser}.\\n *\\n * TIP: For a detailed writeup see our guide\\n * https://forum.zeppelin.solutions/t/how-to-implement-erc20-supply-mechanisms/226[How\\n * to implement supply mechanisms].\\n *\\n * We have followed general OpenZeppelin guidelines: functions revert instead\\n * of returning `false` on failure. This behavior is nonetheless conventional\\n * and does not conflict with the expectations of ERC20 applications.\\n *\\n * Additionally, an {Approval} event is emitted on calls to {transferFrom}.\\n * This allows applications to reconstruct the allowance for all accounts just\\n * by listening to said events. Other implementations of the EIP may not emit\\n * these events, as it isn't required by the specification.\\n *\\n * Finally, the non-standard {decreaseAllowance} and {increaseAllowance}\\n * functions have been added to mitigate the well-known issues around setting\\n * allowances. See {IERC20-approve}.\\n */\\ncontract ERC20 is Context, IERC20, IERC20Metadata {\\n    mapping (address => uint256) private _balances;\\n\\n    mapping (address => mapping (address => uint256)) private _allowances;\\n\\n    uint256 private _totalSupply;\\n\\n    string private _name;\\n    string private _symbol;\\n\\n    /**\\n     * @dev Sets the values for {name} and {symbol}.\\n     *\\n     * The defaut value of {decimals} is 18. To select a different value for\\n     * {decimals} you should overload it.\\n     *\\n     * All two of these values are immutable: they can only be set once during\\n     * construction.\\n     */\\n    constructor (string memory name_, string memory symbol_) {\\n        _name = name_;\\n        _symbol = symbol_;\\n    }\\n\\n    /**\\n     * @dev Returns the name of the token.\\n     */\\n    function name() public view virtual override returns (string memory) {\\n        return _name;\\n    }\\n\\n    /**\\n     * @dev Returns the symbol of the token, usually a shorter version of the\\n     * name.\\n     */\\n    function symbol() public view virtual override returns (string memory) {\\n        return _symbol;\\n    }\\n\\n    /**\\n     * @dev Returns the number of decimals used to get its user representation.\\n     * For example, if `decimals` equals `2`, a balance of `505` tokens should\\n     * be displayed to a user as `5,05` (`505 / 10 ** 2`).\\n     *\\n     * Tokens usually opt for a value of 18, imitating the relationship between\\n     * Ether and Wei. This is the value {ERC20} uses, unless this function is\\n     * overridden;\\n     *\\n     * NOTE: This information is only used for _display_ purposes: it in\\n     * no way affects any of the arithmetic of the contract, including\\n     * {IERC20-balanceOf} and {IERC20-transfer}.\\n     */\\n    function decimals() public view virtual override returns (uint8) {\\n        return 18;\\n    }\\n\\n    /**\\n     * @dev See {IERC20-totalSupply}.\\n     */\\n    function totalSupply() public view virtual override returns (uint256) {\\n        return _totalSupply;\\n    }\\n\\n    /**\\n     * @dev See {IERC20-balanceOf}.\\n     */\\n    function balanceOf(address account) public view virtual override returns (uint256) {\\n        return _balances[account];\\n    }\\n\\n    /**\\n     * @dev See {IERC20-transfer}.\\n     *\\n     * Requirements:\\n     *\\n     * - `recipient` cannot be the zero address.\\n     * - the caller must have a balance of at least `amount`.\\n     */\\n    function transfer(address recipient, uint256 amount) public virtual override returns (bool) {\\n        _transfer(_msgSender(), recipient, amount);\\n        return true;\\n    }\\n\\n    /**\\n     * @dev See {IERC20-allowance}.\\n     */\\n    function allowance(address owner, address spender) public view virtual override returns (uint256) {\\n        return _allowances[owner][spender];\\n    }\\n\\n    /**\\n     * @dev See {IERC20-approve}.\\n     *\\n     * Requirements:\\n     *\\n     * - `spender` cannot be the zero address.\\n     */\\n    function approve(address spender, uint256 amount) public virtual override returns (bool) {\\n        _approve(_msgSender(), spender, amount);\\n        return true;\\n    }\\n\\n    /**\\n     * @dev See {IERC20-transferFrom}.\\n     *\\n     * Emits an {Approval} event indicating the updated allowance. This is not\\n     * required by the EIP. See the note at the beginning of {ERC20}.\\n     *\\n     * Requirements:\\n     *\\n     * - `sender` and `recipient` cannot be the zero address.\\n     * - `sender` must have a balance of at least `amount`.\\n     * - the caller must have allowance for ``sender``'s tokens of at least\\n     * `amount`.\\n     */\\n    function transferFrom(address sender, address recipient, uint256 amount) public virtual override returns (bool) {\\n        _transfer(sender, recipient, amount);\\n\\n        uint256 currentAllowance = _allowances[sender][_msgSender()];\\n        require(currentAllowance >= amount, \\\"ERC20: transfer amount exceeds allowance\\\");\\n        _approve(sender, _msgSender(), currentAllowance - amount);\\n\\n        return true;\\n    }\\n\\n    /**\\n     * @dev Atomically increases the allowance granted to `spender` by the caller.\\n     *\\n     * This is an alternative to {approve} that can be used as a mitigation for\\n     * problems described in {IERC20-approve}.\\n     *\\n     * Emits an {Approval} event indicating the updated allowance.\\n     *\\n     * Requirements:\\n     *\\n     * - `spender` cannot be the zero address.\\n     */\\n    function increaseAllowance(address spender, uint256 addedValue) public virtual returns (bool) {\\n        _approve(_msgSender(), spender, _allowances[_msgSender()][spender] + addedValue);\\n        return true;\\n    }\\n\\n    /**\\n     * @dev Atomically decreases the allowance granted to `spender` by the caller.\\n     *\\n     * This is an alternative to {approve} that can be used as a mitigation for\\n     * problems described in {IERC20-approve}.\\n     *\\n     * Emits an {Approval} event indicating the updated allowance.\\n     *\\n     * Requirements:\\n     *\\n     * - `spender` cannot be the zero address.\\n     * - `spender` must have allowance for the caller of at least\\n     * `subtractedValue`.\\n     */\\n    function decreaseAllowance(address spender, uint256 subtractedValue) public virtual returns (bool) {\\n        uint256 currentAllowance = _allowances[_msgSender()][spender];\\n        require(currentAllowance >= subtractedValue, \\\"ERC20: decreased allowance below zero\\\");\\n        _approve(_msgSender(), spender, currentAllowance - subtractedValue);\\n\\n        return true;\\n    }\\n\\n    /**\\n     * @dev Moves tokens `amount` from `sender` to `recipient`.\\n     *\\n     * This is internal function is equivalent to {transfer}, and can be used to\\n     * e.g. implement automatic token fees, slashing mechanisms, etc.\\n     *\\n     * Emits a {Transfer} event.\\n     *\\n     * Requirements:\\n     *\\n     * - `sender` cannot be the zero address.\\n     * - `recipient` cannot be the zero address.\\n     * - `sender` must have a balance of at least `amount`.\\n     */\\n    function _transfer(address sender, address recipient, uint256 amount) internal virtual {\\n        require(sender != address(0), \\\"ERC20: transfer from the zero address\\\");\\n        require(recipient != address(0), \\\"ERC20: transfer to the zero address\\\");\\n\\n        _beforeTokenTransfer(sender, recipient, amount);\\n\\n        uint256 senderBalance = _balances[sender];\\n        require(senderBalance >= amount, \\\"ERC20: transfer amount exceeds balance\\\");\\n        _balances[sender] = senderBalance - amount;\\n        _balances[recipient] += amount;\\n\\n        emit Transfer(sender, recipient, amount);\\n    }\\n\\n    /** @dev Creates `amount` tokens and assigns them to `account`, increasing\\n     * the total supply.\\n     *\\n     * Emits a {Transfer} event with `from` set to the zero address.\\n     *\\n     * Requirements:\\n     *\\n     * - `to` cannot be the zero address.\\n     */\\n    function _mint(address account, uint256 amount) internal virtual {\\n        require(account != address(0), \\\"ERC20: mint to the zero address\\\");\\n\\n        _beforeTokenTransfer(address(0), account, amount);\\n\\n        _totalSupply += amount;\\n        _balances[account] += amount;\\n        emit Transfer(address(0), account, amount);\\n    }\\n\\n    /**\\n     * @dev Destroys `amount` tokens from `account`, reducing the\\n     * total supply.\\n     *\\n     * Emits a {Transfer} event with `to` set to the zero address.\\n     *\\n     * Requirements:\\n     *\\n     * - `account` cannot be the zero address.\\n     * - `account` must have at least `amount` tokens.\\n     */\\n    function _burn(address account, uint256 amount) internal virtual {\\n        require(account != address(0), \\\"ERC20: burn from the zero address\\\");\\n\\n        _beforeTokenTransfer(account, address(0), amount);\\n\\n        uint256 accountBalance = _balances[account];\\n        require(accountBalance >= amount, \\\"ERC20: burn amount exceeds balance\\\");\\n        _balances[account] = accountBalance - amount;\\n        _totalSupply -= amount;\\n\\n        emit Transfer(account, address(0), amount);\\n    }\\n\\n    /**\\n     * @dev Sets `amount` as the allowance of `spender` over the `owner` s tokens.\\n     *\\n     * This internal function is equivalent to `approve`, and can be used to\\n     * e.g. set automatic allowances for certain subsystems, etc.\\n     *\\n     * Emits an {Approval} event.\\n     *\\n     * Requirements:\\n     *\\n     * - `owner` cannot be the zero address.\\n     * - `spender` cannot be the zero address.\\n     */\\n    function _approve(address owner, address spender, uint256 amount) internal virtual {\\n        require(owner != address(0), \\\"ERC20: approve from the zero address\\\");\\n        require(spender != address(0), \\\"ERC20: approve to the zero address\\\");\\n\\n        _allowances[owner][spender] = amount;\\n        emit Approval(owner, spender, amount);\\n    }\\n\\n    /**\\n     * @dev Hook that is called before any transfer of tokens. This includes\\n     * minting and burning.\\n     *\\n     * Calling conditions:\\n     *\\n     * - when `from` and `to` are both non-zero, `amount` of ``from``'s tokens\\n     * will be to transferred to `to`.\\n     * - when `from` is zero, `amount` tokens will be minted for `to`.\\n     * - when `to` is zero, `amount` of ``from``'s tokens will be burned.\\n     * - `from` and `to` are never both zero.\\n     *\\n     * To learn more about hooks, head to xref:ROOT:extending-contracts.adoc#using-hooks[Using Hooks].\\n     */\\n    function _beforeTokenTransfer(address from, address to, uint256 amount) internal virtual { }\\n}\\n\",\"keccak256\":\"0xfeccdcbf67b2006a715e5af1a4c7556004d95b2806552b5cc54e46e8eb7e887b\",\"license\":\"MIT\"},\"@openzeppelin/contracts/token/ERC20/IERC20.sol\":{\"content\":\"// SPDX-License-Identifier: MIT\\n\\npragma solidity ^0.8.0;\\n\\n/**\\n * @dev Interface of the ERC20 standard as defined in the EIP.\\n */\\ninterface IERC20 {\\n    /**\\n     * @dev Returns the amount of tokens in existence.\\n     */\\n    function totalSupply() external view returns (uint256);\\n\\n    /**\\n     * @dev Returns the amount of tokens owned by `account`.\\n     */\\n    function balanceOf(address account) external view returns (uint256);\\n\\n    /**\\n     * @dev Moves `amount` tokens from the caller's account to `recipient`.\\n     *\\n     * Returns a boolean value indicating whether the operation succeeded.\\n     *\\n     * Emits a {Transfer} event.\\n     */\\n    function transfer(address recipient, uint256 amount) external returns (bool);\\n\\n    /**\\n     * @dev Returns the remaining number of tokens that `spender` will be\\n     * allowed to spend on behalf of `owner` through {transferFrom}. This is\\n     * zero by default.\\n     *\\n     * This value changes when {approve} or {transferFrom} are called.\\n     */\\n    function allowance(address owner, address spender) external view returns (uint256);\\n\\n    /**\\n     * @dev Sets `amount` as the allowance of `spender` over the caller's tokens.\\n     *\\n     * Returns a boolean value indicating whether the operation succeeded.\\n     *\\n     * IMPORTANT: Beware that changing an allowance with this method brings the risk\\n     * that someone may use both the old and the new allowance by unfortunate\\n     * transaction ordering. One possible solution to mitigate this race\\n     * condition is to first reduce the spender's allowance to 0 and set the\\n     * desired value afterwards:\\n     * https://github.com/ethereum/EIPs/issues/20#issuecomment-263524729\\n     *\\n     * Emits an {Approval} event.\\n     */\\n    function approve(address spender, uint256 amount) external returns (bool);\\n\\n    /**\\n     * @dev Moves `amount` tokens from `sender` to `recipient` using the\\n     * allowance mechanism. `amount` is then deducted from the caller's\\n     * allowance.\\n     *\\n     * Returns a boolean value indicating whether the operation succeeded.\\n     *\\n     * Emits a {Transfer} event.\\n     */\\n    function transferFrom(address sender, address recipient, uint256 amount) external returns (bool);\\n\\n    /**\\n     * @dev Emitted when `value` tokens are moved from one account (`from`) to\\n     * another (`to`).\\n     *\\n     * Note that `value` may be zero.\\n     */\\n    event Transfer(address indexed from, address indexed to, uint256 value);\\n\\n    /**\\n     * @dev Emitted when the allowance of a `spender` for an `owner` is set by\\n     * a call to {approve}. `value` is the new allowance.\\n     */\\n    event Approval(address indexed owner, address indexed spender, uint256 value);\\n}\\n\",\"keccak256\":\"0xf8e8d118a7a8b2e134181f7da655f6266aa3a0f9134b2605747139fcb0c5d835\",\"license\":\"MIT\"},\"@openzeppelin/contracts/token/ERC20/extensions/IERC20Metadata.sol\":{\"content\":\"// SPDX-License-Identifier: MIT\\n\\npragma solidity ^0.8.0;\\n\\nimport \\\"../IERC20.sol\\\";\\n\\n/**\\n * @dev Interface for the optional metadata functions from the ERC20 standard.\\n *\\n * _Available since v4.1._\\n */\\ninterface IERC20Metadata is IERC20 {\\n    /**\\n     * @dev Returns the name of the token.\\n     */\\n    function name() external view returns (string memory);\\n\\n    /**\\n     * @dev Returns the symbol of the token.\\n     */\\n    function symbol() external view returns (string memory);\\n\\n    /**\\n     * @dev Returns the decimals places of the token.\\n     */\\n    function decimals() external view returns (uint8);\\n}\\n\",\"keccak256\":\"0x83fe24f5c04a56091e50f4a345ff504c8bff658a76d4c43b16878c8f940c53b2\",\"license\":\"MIT\"},\"@openzeppelin/contracts/token/ERC20/utils/SafeERC20.sol\":{\"content\":\"// SPDX-License-Identifier: MIT\\n\\npragma solidity ^0.8.0;\\n\\nimport \\\"../IERC20.sol\\\";\\nimport \\\"../../../utils/Address.sol\\\";\\n\\n/**\\n * @title SafeERC20\\n * @dev Wrappers around ERC20 operations that throw on failure (when the token\\n * contract returns false). Tokens that return no value (and instead revert or\\n * throw on failure) are also supported, non-reverting calls are assumed to be\\n * successful.\\n * To use this library you can add a `using SafeERC20 for IERC20;` statement to your contract,\\n * which allows you to call the safe operations as `token.safeTransfer(...)`, etc.\\n */\\nlibrary SafeERC20 {\\n    using Address for address;\\n\\n    function safeTransfer(IERC20 token, address to, uint256 value) internal {\\n        _callOptionalReturn(token, abi.encodeWithSelector(token.transfer.selector, to, value));\\n    }\\n\\n    function safeTransferFrom(IERC20 token, address from, address to, uint256 value) internal {\\n        _callOptionalReturn(token, abi.encodeWithSelector(token.transferFrom.selector, from, to, value));\\n    }\\n\\n    /**\\n     * @dev Deprecated. This function has issues similar to the ones found in\\n     * {IERC20-approve}, and its usage is discouraged.\\n     *\\n     * Whenever possible, use {safeIncreaseAllowance} and\\n     * {safeDecreaseAllowance} instead.\\n     */\\n    function safeApprove(IERC20 token, address spender, uint256 value) internal {\\n        // safeApprove should only be called when setting an initial allowance,\\n        // or when resetting it to zero. To increase and decrease it, use\\n        // 'safeIncreaseAllowance' and 'safeDecreaseAllowance'\\n        // solhint-disable-next-line max-line-length\\n        require((value == 0) || (token.allowance(address(this), spender) == 0),\\n            \\\"SafeERC20: approve from non-zero to non-zero allowance\\\"\\n        );\\n        _callOptionalReturn(token, abi.encodeWithSelector(token.approve.selector, spender, value));\\n    }\\n\\n    function safeIncreaseAllowance(IERC20 token, address spender, uint256 value) internal {\\n        uint256 newAllowance = token.allowance(address(this), spender) + value;\\n        _callOptionalReturn(token, abi.encodeWithSelector(token.approve.selector, spender, newAllowance));\\n    }\\n\\n    function safeDecreaseAllowance(IERC20 token, address spender, uint256 value) internal {\\n        unchecked {\\n            uint256 oldAllowance = token.allowance(address(this), spender);\\n            require(oldAllowance >= value, \\\"SafeERC20: decreased allowance below zero\\\");\\n            uint256 newAllowance = oldAllowance - value;\\n            _callOptionalReturn(token, abi.encodeWithSelector(token.approve.selector, spender, newAllowance));\\n        }\\n    }\\n\\n    /**\\n     * @dev Imitates a Solidity high-level call (i.e. a regular function call to a contract), relaxing the requirement\\n     * on the return value: the return value is optional (but if data is returned, it must not be false).\\n     * @param token The token targeted by the call.\\n     * @param data The call data (encoded using abi.encode or one of its variants).\\n     */\\n    function _callOptionalReturn(IERC20 token, bytes memory data) private {\\n        // We need to perform a low level call here, to bypass Solidity's return data size checking mechanism, since\\n        // we're implementing it ourselves. We use {Address.functionCall} to perform this call, which verifies that\\n        // the target address contains contract code and also asserts for success in the low-level call.\\n\\n        bytes memory returndata = address(token).functionCall(data, \\\"SafeERC20: low-level call failed\\\");\\n        if (returndata.length > 0) { // Return data is optional\\n            // solhint-disable-next-line max-line-length\\n            require(abi.decode(returndata, (bool)), \\\"SafeERC20: ERC20 operation did not succeed\\\");\\n        }\\n    }\\n}\\n\",\"keccak256\":\"0x99f5c21018d796db7833a2100bb0e7411999e248a3c950fb526eee5d2bf47cb7\",\"license\":\"MIT\"},\"@openzeppelin/contracts/token/ERC721/IERC721.sol\":{\"content\":\"// SPDX-License-Identifier: MIT\\n\\npragma solidity ^0.8.0;\\n\\nimport \\\"../../utils/introspection/IERC165.sol\\\";\\n\\n/**\\n * @dev Required interface of an ERC721 compliant contract.\\n */\\ninterface IERC721 is IERC165 {\\n    /**\\n     * @dev Emitted when `tokenId` token is transferred from `from` to `to`.\\n     */\\n    event Transfer(address indexed from, address indexed to, uint256 indexed tokenId);\\n\\n    /**\\n     * @dev Emitted when `owner` enables `approved` to manage the `tokenId` token.\\n     */\\n    event Approval(address indexed owner, address indexed approved, uint256 indexed tokenId);\\n\\n    /**\\n     * @dev Emitted when `owner` enables or disables (`approved`) `operator` to manage all of its assets.\\n     */\\n    event ApprovalForAll(address indexed owner, address indexed operator, bool approved);\\n\\n    /**\\n     * @dev Returns the number of tokens in ``owner``'s account.\\n     */\\n    function balanceOf(address owner) external view returns (uint256 balance);\\n\\n    /**\\n     * @dev Returns the owner of the `tokenId` token.\\n     *\\n     * Requirements:\\n     *\\n     * - `tokenId` must exist.\\n     */\\n    function ownerOf(uint256 tokenId) external view returns (address owner);\\n\\n    /**\\n     * @dev Safely transfers `tokenId` token from `from` to `to`, checking first that contract recipients\\n     * are aware of the ERC721 protocol to prevent tokens from being forever locked.\\n     *\\n     * Requirements:\\n     *\\n     * - `from` cannot be the zero address.\\n     * - `to` cannot be the zero address.\\n     * - `tokenId` token must exist and be owned by `from`.\\n     * - If the caller is not `from`, it must be have been allowed to move this token by either {approve} or {setApprovalForAll}.\\n     * - If `to` refers to a smart contract, it must implement {IERC721Receiver-onERC721Received}, which is called upon a safe transfer.\\n     *\\n     * Emits a {Transfer} event.\\n     */\\n    function safeTransferFrom(address from, address to, uint256 tokenId) external;\\n\\n    /**\\n     * @dev Transfers `tokenId` token from `from` to `to`.\\n     *\\n     * WARNING: Usage of this method is discouraged, use {safeTransferFrom} whenever possible.\\n     *\\n     * Requirements:\\n     *\\n     * - `from` cannot be the zero address.\\n     * - `to` cannot be the zero address.\\n     * - `tokenId` token must be owned by `from`.\\n     * - If the caller is not `from`, it must be approved to move this token by either {approve} or {setApprovalForAll}.\\n     *\\n     * Emits a {Transfer} event.\\n     */\\n    function transferFrom(address from, address to, uint256 tokenId) external;\\n\\n    /**\\n     * @dev Gives permission to `to` to transfer `tokenId` token to another account.\\n     * The approval is cleared when the token is transferred.\\n     *\\n     * Only a single account can be approved at a time, so approving the zero address clears previous approvals.\\n     *\\n     * Requirements:\\n     *\\n     * - The caller must own the token or be an approved operator.\\n     * - `tokenId` must exist.\\n     *\\n     * Emits an {Approval} event.\\n     */\\n    function approve(address to, uint256 tokenId) external;\\n\\n    /**\\n     * @dev Returns the account approved for `tokenId` token.\\n     *\\n     * Requirements:\\n     *\\n     * - `tokenId` must exist.\\n     */\\n    function getApproved(uint256 tokenId) external view returns (address operator);\\n\\n    /**\\n     * @dev Approve or remove `operator` as an operator for the caller.\\n     * Operators can call {transferFrom} or {safeTransferFrom} for any token owned by the caller.\\n     *\\n     * Requirements:\\n     *\\n     * - The `operator` cannot be the caller.\\n     *\\n     * Emits an {ApprovalForAll} event.\\n     */\\n    function setApprovalForAll(address operator, bool _approved) external;\\n\\n    /**\\n     * @dev Returns if the `operator` is allowed to manage all of the assets of `owner`.\\n     *\\n     * See {setApprovalForAll}\\n     */\\n    function isApprovedForAll(address owner, address operator) external view returns (bool);\\n\\n    /**\\n      * @dev Safely transfers `tokenId` token from `from` to `to`.\\n      *\\n      * Requirements:\\n      *\\n      * - `from` cannot be the zero address.\\n      * - `to` cannot be the zero address.\\n      * - `tokenId` token must exist and be owned by `from`.\\n      * - If the caller is not `from`, it must be approved to move this token by either {approve} or {setApprovalForAll}.\\n      * - If `to` refers to a smart contract, it must implement {IERC721Receiver-onERC721Received}, which is called upon a safe transfer.\\n      *\\n      * Emits a {Transfer} event.\\n      */\\n    function safeTransferFrom(address from, address to, uint256 tokenId, bytes calldata data) external;\\n}\\n\",\"keccak256\":\"0xc1c941ad1e580b4623007305921efe2f26fc7320a4edc226234dd707c658a428\",\"license\":\"MIT\"},\"@openzeppelin/contracts/token/ERC721/extensions/IERC721Metadata.sol\":{\"content\":\"// SPDX-License-Identifier: MIT\\n\\npragma solidity ^0.8.0;\\n\\nimport \\\"../IERC721.sol\\\";\\n\\n/**\\n * @title ERC-721 Non-Fungible Token Standard, optional metadata extension\\n * @dev See https://eips.ethereum.org/EIPS/eip-721\\n */\\ninterface IERC721Metadata is IERC721 {\\n\\n    /**\\n     * @dev Returns the token collection name.\\n     */\\n    function name() external view returns (string memory);\\n\\n    /**\\n     * @dev Returns the token collection symbol.\\n     */\\n    function symbol() external view returns (string memory);\\n\\n    /**\\n     * @dev Returns the Uniform Resource Identifier (URI) for `tokenId` token.\\n     */\\n    function tokenURI(uint256 tokenId) external view returns (string memory);\\n}\\n\",\"keccak256\":\"0xb8d11e77eb1ed34a33720edb551d7d6a6b0eee2bfaa40a7024020e1fdf879b16\",\"license\":\"MIT\"},\"@openzeppelin/contracts/utils/Address.sol\":{\"content\":\"// SPDX-License-Identifier: MIT\\n\\npragma solidity ^0.8.0;\\n\\n/**\\n * @dev Collection of functions related to the address type\\n */\\nlibrary Address {\\n    /**\\n     * @dev Returns true if `account` is a contract.\\n     *\\n     * [IMPORTANT]\\n     * ====\\n     * It is unsafe to assume that an address for which this function returns\\n     * false is an externally-owned account (EOA) and not a contract.\\n     *\\n     * Among others, `isContract` will return false for the following\\n     * types of addresses:\\n     *\\n     *  - an externally-owned account\\n     *  - a contract in construction\\n     *  - an address where a contract will be created\\n     *  - an address where a contract lived, but was destroyed\\n     * ====\\n     */\\n    function isContract(address account) internal view returns (bool) {\\n        // This method relies on extcodesize, which returns 0 for contracts in\\n        // construction, since the code is only stored at the end of the\\n        // constructor execution.\\n\\n        uint256 size;\\n        // solhint-disable-next-line no-inline-assembly\\n        assembly { size := extcodesize(account) }\\n        return size > 0;\\n    }\\n\\n    /**\\n     * @dev Replacement for Solidity's `transfer`: sends `amount` wei to\\n     * `recipient`, forwarding all available gas and reverting on errors.\\n     *\\n     * https://eips.ethereum.org/EIPS/eip-1884[EIP1884] increases the gas cost\\n     * of certain opcodes, possibly making contracts go over the 2300 gas limit\\n     * imposed by `transfer`, making them unable to receive funds via\\n     * `transfer`. {sendValue} removes this limitation.\\n     *\\n     * https://diligence.consensys.net/posts/2019/09/stop-using-soliditys-transfer-now/[Learn more].\\n     *\\n     * IMPORTANT: because control is transferred to `recipient`, care must be\\n     * taken to not create reentrancy vulnerabilities. Consider using\\n     * {ReentrancyGuard} or the\\n     * https://solidity.readthedocs.io/en/v0.5.11/security-considerations.html#use-the-checks-effects-interactions-pattern[checks-effects-interactions pattern].\\n     */\\n    function sendValue(address payable recipient, uint256 amount) internal {\\n        require(address(this).balance >= amount, \\\"Address: insufficient balance\\\");\\n\\n        // solhint-disable-next-line avoid-low-level-calls, avoid-call-value\\n        (bool success, ) = recipient.call{ value: amount }(\\\"\\\");\\n        require(success, \\\"Address: unable to send value, recipient may have reverted\\\");\\n    }\\n\\n    /**\\n     * @dev Performs a Solidity function call using a low level `call`. A\\n     * plain`call` is an unsafe replacement for a function call: use this\\n     * function instead.\\n     *\\n     * If `target` reverts with a revert reason, it is bubbled up by this\\n     * function (like regular Solidity function calls).\\n     *\\n     * Returns the raw returned data. To convert to the expected return value,\\n     * use https://solidity.readthedocs.io/en/latest/units-and-global-variables.html?highlight=abi.decode#abi-encoding-and-decoding-functions[`abi.decode`].\\n     *\\n     * Requirements:\\n     *\\n     * - `target` must be a contract.\\n     * - calling `target` with `data` must not revert.\\n     *\\n     * _Available since v3.1._\\n     */\\n    function functionCall(address target, bytes memory data) internal returns (bytes memory) {\\n      return functionCall(target, data, \\\"Address: low-level call failed\\\");\\n    }\\n\\n    /**\\n     * @dev Same as {xref-Address-functionCall-address-bytes-}[`functionCall`], but with\\n     * `errorMessage` as a fallback revert reason when `target` reverts.\\n     *\\n     * _Available since v3.1._\\n     */\\n    function functionCall(address target, bytes memory data, string memory errorMessage) internal returns (bytes memory) {\\n        return functionCallWithValue(target, data, 0, errorMessage);\\n    }\\n\\n    /**\\n     * @dev Same as {xref-Address-functionCall-address-bytes-}[`functionCall`],\\n     * but also transferring `value` wei to `target`.\\n     *\\n     * Requirements:\\n     *\\n     * - the calling contract must have an ETH balance of at least `value`.\\n     * - the called Solidity function must be `payable`.\\n     *\\n     * _Available since v3.1._\\n     */\\n    function functionCallWithValue(address target, bytes memory data, uint256 value) internal returns (bytes memory) {\\n        return functionCallWithValue(target, data, value, \\\"Address: low-level call with value failed\\\");\\n    }\\n\\n    /**\\n     * @dev Same as {xref-Address-functionCallWithValue-address-bytes-uint256-}[`functionCallWithValue`], but\\n     * with `errorMessage` as a fallback revert reason when `target` reverts.\\n     *\\n     * _Available since v3.1._\\n     */\\n    function functionCallWithValue(address target, bytes memory data, uint256 value, string memory errorMessage) internal returns (bytes memory) {\\n        require(address(this).balance >= value, \\\"Address: insufficient balance for call\\\");\\n        require(isContract(target), \\\"Address: call to non-contract\\\");\\n\\n        // solhint-disable-next-line avoid-low-level-calls\\n        (bool success, bytes memory returndata) = target.call{ value: value }(data);\\n        return _verifyCallResult(success, returndata, errorMessage);\\n    }\\n\\n    /**\\n     * @dev Same as {xref-Address-functionCall-address-bytes-}[`functionCall`],\\n     * but performing a static call.\\n     *\\n     * _Available since v3.3._\\n     */\\n    function functionStaticCall(address target, bytes memory data) internal view returns (bytes memory) {\\n        return functionStaticCall(target, data, \\\"Address: low-level static call failed\\\");\\n    }\\n\\n    /**\\n     * @dev Same as {xref-Address-functionCall-address-bytes-string-}[`functionCall`],\\n     * but performing a static call.\\n     *\\n     * _Available since v3.3._\\n     */\\n    function functionStaticCall(address target, bytes memory data, string memory errorMessage) internal view returns (bytes memory) {\\n        require(isContract(target), \\\"Address: static call to non-contract\\\");\\n\\n        // solhint-disable-next-line avoid-low-level-calls\\n        (bool success, bytes memory returndata) = target.staticcall(data);\\n        return _verifyCallResult(success, returndata, errorMessage);\\n    }\\n\\n    /**\\n     * @dev Same as {xref-Address-functionCall-address-bytes-}[`functionCall`],\\n     * but performing a delegate call.\\n     *\\n     * _Available since v3.4._\\n     */\\n    function functionDelegateCall(address target, bytes memory data) internal returns (bytes memory) {\\n        return functionDelegateCall(target, data, \\\"Address: low-level delegate call failed\\\");\\n    }\\n\\n    /**\\n     * @dev Same as {xref-Address-functionCall-address-bytes-string-}[`functionCall`],\\n     * but performing a delegate call.\\n     *\\n     * _Available since v3.4._\\n     */\\n    function functionDelegateCall(address target, bytes memory data, string memory errorMessage) internal returns (bytes memory) {\\n        require(isContract(target), \\\"Address: delegate call to non-contract\\\");\\n\\n        // solhint-disable-next-line avoid-low-level-calls\\n        (bool success, bytes memory returndata) = target.delegatecall(data);\\n        return _verifyCallResult(success, returndata, errorMessage);\\n    }\\n\\n    function _verifyCallResult(bool success, bytes memory returndata, string memory errorMessage) private pure returns(bytes memory) {\\n        if (success) {\\n            return returndata;\\n        } else {\\n            // Look for revert reason and bubble it up if present\\n            if (returndata.length > 0) {\\n                // The easiest way to bubble the revert reason is using memory via assembly\\n\\n                // solhint-disable-next-line no-inline-assembly\\n                assembly {\\n                    let returndata_size := mload(returndata)\\n                    revert(add(32, returndata), returndata_size)\\n                }\\n            } else {\\n                revert(errorMessage);\\n            }\\n        }\\n    }\\n}\\n\",\"keccak256\":\"0x069b2631bb5b5193a58ccf7a06266c7361bd2c20095667af4402817605627f45\",\"license\":\"MIT\"},\"@openzeppelin/contracts/utils/Context.sol\":{\"content\":\"// SPDX-License-Identifier: MIT\\n\\npragma solidity ^0.8.0;\\n\\n/*\\n * @dev Provides information about the current execution context, including the\\n * sender of the transaction and its data. While these are generally available\\n * via msg.sender and msg.data, they should not be accessed in such a direct\\n * manner, since when dealing with meta-transactions the account sending and\\n * paying for execution may not be the actual sender (as far as an application\\n * is concerned).\\n *\\n * This contract is only required for intermediate, library-like contracts.\\n */\\nabstract contract Context {\\n    function _msgSender() internal view virtual returns (address) {\\n        return msg.sender;\\n    }\\n\\n    function _msgData() internal view virtual returns (bytes calldata) {\\n        this; // silence state mutability warning without generating bytecode - see https://github.com/ethereum/solidity/issues/2691\\n        return msg.data;\\n    }\\n}\\n\",\"keccak256\":\"0xf930d2df426bfcfc1f7415be724f04081c96f4fb9ec8d0e3a521c07692dface0\",\"license\":\"MIT\"},\"@openzeppelin/contracts/utils/Counters.sol\":{\"content\":\"// SPDX-License-Identifier: MIT\\n\\npragma solidity ^0.8.0;\\n\\n/**\\n * @title Counters\\n * @author Matt Condon (@shrugs)\\n * @dev Provides counters that can only be incremented or decremented by one. This can be used e.g. to track the number\\n * of elements in a mapping, issuing ERC721 ids, or counting request ids.\\n *\\n * Include with `using Counters for Counters.Counter;`\\n */\\nlibrary Counters {\\n    struct Counter {\\n        // This variable should never be directly accessed by users of the library: interactions must be restricted to\\n        // the library's function. As of Solidity v0.5.2, this cannot be enforced, though there is a proposal to add\\n        // this feature: see https://github.com/ethereum/solidity/issues/4637\\n        uint256 _value; // default: 0\\n    }\\n\\n    function current(Counter storage counter) internal view returns (uint256) {\\n        return counter._value;\\n    }\\n\\n    function increment(Counter storage counter) internal {\\n        unchecked {\\n            counter._value += 1;\\n        }\\n    }\\n\\n    function decrement(Counter storage counter) internal {\\n        uint256 value = counter._value;\\n        require(value > 0, \\\"Counter: decrement overflow\\\");\\n        unchecked {\\n            counter._value = value - 1;\\n        }\\n    }\\n}\\n\",\"keccak256\":\"0x62d306ff0499a11913bc60b5939eec619509b5c67b30e86ebf8b8bda0b7a7fee\",\"license\":\"MIT\"},\"@openzeppelin/contracts/utils/cryptography/MerkleProof.sol\":{\"content\":\"// SPDX-License-Identifier: MIT\\n\\npragma solidity ^0.8.0;\\n\\n/**\\n * @dev These functions deal with verification of Merkle Trees proofs.\\n *\\n * The proofs can be generated using the JavaScript library\\n * https://github.com/miguelmota/merkletreejs[merkletreejs].\\n * Note: the hashing algorithm should be keccak256 and pair sorting should be enabled.\\n *\\n * See `test/utils/cryptography/MerkleProof.test.js` for some examples.\\n */\\nlibrary MerkleProof {\\n    /**\\n     * @dev Returns true if a `leaf` can be proved to be a part of a Merkle tree\\n     * defined by `root`. For this, a `proof` must be provided, containing\\n     * sibling hashes on the branch from the leaf to the root of the tree. Each\\n     * pair of leaves and each pair of pre-images are assumed to be sorted.\\n     */\\n    function verify(bytes32[] memory proof, bytes32 root, bytes32 leaf) internal pure returns (bool) {\\n        bytes32 computedHash = leaf;\\n\\n        for (uint256 i = 0; i < proof.length; i++) {\\n            bytes32 proofElement = proof[i];\\n\\n            if (computedHash <= proofElement) {\\n                // Hash(current computed hash + current element of the proof)\\n                computedHash = keccak256(abi.encodePacked(computedHash, proofElement));\\n            } else {\\n                // Hash(current element of the proof + current computed hash)\\n                computedHash = keccak256(abi.encodePacked(proofElement, computedHash));\\n            }\\n        }\\n\\n        // Check if the computed hash (root) is equal to the provided root\\n        return computedHash == root;\\n    }\\n}\\n\",\"keccak256\":\"0xeee34bfb413657b6cd6c8e1e15c2080ba5ebaac479578515922804346fb63f7c\",\"license\":\"MIT\"},\"@openzeppelin/contracts/utils/introspection/IERC165.sol\":{\"content\":\"// SPDX-License-Identifier: MIT\\n\\npragma solidity ^0.8.0;\\n\\n/**\\n * @dev Interface of the ERC165 standard, as defined in the\\n * https://eips.ethereum.org/EIPS/eip-165[EIP].\\n *\\n * Implementers can declare support of contract interfaces, which can then be\\n * queried by others ({ERC165Checker}).\\n *\\n * For an implementation, see {ERC165}.\\n */\\ninterface IERC165 {\\n    /**\\n     * @dev Returns true if this contract implements the interface defined by\\n     * `interfaceId`. See the corresponding\\n     * https://eips.ethereum.org/EIPS/eip-165#how-interfaces-are-identified[EIP section]\\n     * to learn more about how these ids are created.\\n     *\\n     * This function call must use less than 30 000 gas.\\n     */\\n    function supportsInterface(bytes4 interfaceId) external view returns (bool);\\n}\\n\",\"keccak256\":\"0xa28007762d9da9db878dd421960c8cb9a10471f47ab5c1b3309bfe48e9e79ff4\",\"license\":\"MIT\"},\"@openzeppelin/contracts/utils/math/SafeCast.sol\":{\"content\":\"// SPDX-License-Identifier: MIT\\n\\npragma solidity ^0.8.0;\\n\\n/**\\n * @dev Wrappers over Solidity's uintXX/intXX casting operators with added overflow\\n * checks.\\n *\\n * Downcasting from uint256/int256 in Solidity does not revert on overflow. This can\\n * easily result in undesired exploitation or bugs, since developers usually\\n * assume that overflows raise errors. `SafeCast` restores this intuition by\\n * reverting the transaction when such an operation overflows.\\n *\\n * Using this library instead of the unchecked operations eliminates an entire\\n * class of bugs, so it's recommended to use it always.\\n *\\n * Can be combined with {SafeMath} and {SignedSafeMath} to extend it to smaller types, by performing\\n * all math on `uint256` and `int256` and then downcasting.\\n */\\nlibrary SafeCast {\\n    /**\\n     * @dev Returns the downcasted uint128 from uint256, reverting on\\n     * overflow (when the input is greater than largest uint128).\\n     *\\n     * Counterpart to Solidity's `uint128` operator.\\n     *\\n     * Requirements:\\n     *\\n     * - input must fit into 128 bits\\n     */\\n    function toUint128(uint256 value) internal pure returns (uint128) {\\n        require(value < 2**128, \\\"SafeCast: value doesn\\\\'t fit in 128 bits\\\");\\n        return uint128(value);\\n    }\\n\\n    /**\\n     * @dev Returns the downcasted uint64 from uint256, reverting on\\n     * overflow (when the input is greater than largest uint64).\\n     *\\n     * Counterpart to Solidity's `uint64` operator.\\n     *\\n     * Requirements:\\n     *\\n     * - input must fit into 64 bits\\n     */\\n    function toUint64(uint256 value) internal pure returns (uint64) {\\n        require(value < 2**64, \\\"SafeCast: value doesn\\\\'t fit in 64 bits\\\");\\n        return uint64(value);\\n    }\\n\\n    /**\\n     * @dev Returns the downcasted uint32 from uint256, reverting on\\n     * overflow (when the input is greater than largest uint32).\\n     *\\n     * Counterpart to Solidity's `uint32` operator.\\n     *\\n     * Requirements:\\n     *\\n     * - input must fit into 32 bits\\n     */\\n    function toUint32(uint256 value) internal pure returns (uint32) {\\n        require(value < 2**32, \\\"SafeCast: value doesn\\\\'t fit in 32 bits\\\");\\n        return uint32(value);\\n    }\\n\\n    /**\\n     * @dev Returns the downcasted uint16 from uint256, reverting on\\n     * overflow (when the input is greater than largest uint16).\\n     *\\n     * Counterpart to Solidity's `uint16` operator.\\n     *\\n     * Requirements:\\n     *\\n     * - input must fit into 16 bits\\n     */\\n    function toUint16(uint256 value) internal pure returns (uint16) {\\n        require(value < 2**16, \\\"SafeCast: value doesn\\\\'t fit in 16 bits\\\");\\n        return uint16(value);\\n    }\\n\\n    /**\\n     * @dev Returns the downcasted uint8 from uint256, reverting on\\n     * overflow (when the input is greater than largest uint8).\\n     *\\n     * Counterpart to Solidity's `uint8` operator.\\n     *\\n     * Requirements:\\n     *\\n     * - input must fit into 8 bits.\\n     */\\n    function toUint8(uint256 value) internal pure returns (uint8) {\\n        require(value < 2**8, \\\"SafeCast: value doesn\\\\'t fit in 8 bits\\\");\\n        return uint8(value);\\n    }\\n\\n    /**\\n     * @dev Converts a signed int256 into an unsigned uint256.\\n     *\\n     * Requirements:\\n     *\\n     * - input must be greater than or equal to 0.\\n     */\\n    function toUint256(int256 value) internal pure returns (uint256) {\\n        require(value >= 0, \\\"SafeCast: value must be positive\\\");\\n        return uint256(value);\\n    }\\n\\n    /**\\n     * @dev Returns the downcasted int128 from int256, reverting on\\n     * overflow (when the input is less than smallest int128 or\\n     * greater than largest int128).\\n     *\\n     * Counterpart to Solidity's `int128` operator.\\n     *\\n     * Requirements:\\n     *\\n     * - input must fit into 128 bits\\n     *\\n     * _Available since v3.1._\\n     */\\n    function toInt128(int256 value) internal pure returns (int128) {\\n        require(value >= -2**127 && value < 2**127, \\\"SafeCast: value doesn\\\\'t fit in 128 bits\\\");\\n        return int128(value);\\n    }\\n\\n    /**\\n     * @dev Returns the downcasted int64 from int256, reverting on\\n     * overflow (when the input is less than smallest int64 or\\n     * greater than largest int64).\\n     *\\n     * Counterpart to Solidity's `int64` operator.\\n     *\\n     * Requirements:\\n     *\\n     * - input must fit into 64 bits\\n     *\\n     * _Available since v3.1._\\n     */\\n    function toInt64(int256 value) internal pure returns (int64) {\\n        require(value >= -2**63 && value < 2**63, \\\"SafeCast: value doesn\\\\'t fit in 64 bits\\\");\\n        return int64(value);\\n    }\\n\\n    /**\\n     * @dev Returns the downcasted int32 from int256, reverting on\\n     * overflow (when the input is less than smallest int32 or\\n     * greater than largest int32).\\n     *\\n     * Counterpart to Solidity's `int32` operator.\\n     *\\n     * Requirements:\\n     *\\n     * - input must fit into 32 bits\\n     *\\n     * _Available since v3.1._\\n     */\\n    function toInt32(int256 value) internal pure returns (int32) {\\n        require(value >= -2**31 && value < 2**31, \\\"SafeCast: value doesn\\\\'t fit in 32 bits\\\");\\n        return int32(value);\\n    }\\n\\n    /**\\n     * @dev Returns the downcasted int16 from int256, reverting on\\n     * overflow (when the input is less than smallest int16 or\\n     * greater than largest int16).\\n     *\\n     * Counterpart to Solidity's `int16` operator.\\n     *\\n     * Requirements:\\n     *\\n     * - input must fit into 16 bits\\n     *\\n     * _Available since v3.1._\\n     */\\n    function toInt16(int256 value) internal pure returns (int16) {\\n        require(value >= -2**15 && value < 2**15, \\\"SafeCast: value doesn\\\\'t fit in 16 bits\\\");\\n        return int16(value);\\n    }\\n\\n    /**\\n     * @dev Returns the downcasted int8 from int256, reverting on\\n     * overflow (when the input is less than smallest int8 or\\n     * greater than largest int8).\\n     *\\n     * Counterpart to Solidity's `int8` operator.\\n     *\\n     * Requirements:\\n     *\\n     * - input must fit into 8 bits.\\n     *\\n     * _Available since v3.1._\\n     */\\n    function toInt8(int256 value) internal pure returns (int8) {\\n        require(value >= -2**7 && value < 2**7, \\\"SafeCast: value doesn\\\\'t fit in 8 bits\\\");\\n        return int8(value);\\n    }\\n\\n    /**\\n     * @dev Converts an unsigned uint256 into a signed int256.\\n     *\\n     * Requirements:\\n     *\\n     * - input must be less than or equal to maxInt256.\\n     */\\n    function toInt256(uint256 value) internal pure returns (int256) {\\n        require(value < 2**255, \\\"SafeCast: value doesn't fit in an int256\\\");\\n        return int256(value);\\n    }\\n}\\n\",\"keccak256\":\"0xc37d85b96c2a8d7bc09f25958e0a81394bf5780286444147ddf875fa628d53ce\",\"license\":\"MIT\"},\"@openzeppelin/contracts/utils/math/SafeMath.sol\":{\"content\":\"// SPDX-License-Identifier: MIT\\n\\npragma solidity ^0.8.0;\\n\\n// CAUTION\\n// This version of SafeMath should only be used with Solidity 0.8 or later,\\n// because it relies on the compiler's built in overflow checks.\\n\\n/**\\n * @dev Wrappers over Solidity's arithmetic operations.\\n *\\n * NOTE: `SafeMath` is no longer needed starting with Solidity 0.8. The compiler\\n * now has built in overflow checking.\\n */\\nlibrary SafeMath {\\n    /**\\n     * @dev Returns the addition of two unsigned integers, with an overflow flag.\\n     *\\n     * _Available since v3.4._\\n     */\\n    function tryAdd(uint256 a, uint256 b) internal pure returns (bool, uint256) {\\n        unchecked {\\n            uint256 c = a + b;\\n            if (c < a) return (false, 0);\\n            return (true, c);\\n        }\\n    }\\n\\n    /**\\n     * @dev Returns the substraction of two unsigned integers, with an overflow flag.\\n     *\\n     * _Available since v3.4._\\n     */\\n    function trySub(uint256 a, uint256 b) internal pure returns (bool, uint256) {\\n        unchecked {\\n            if (b > a) return (false, 0);\\n            return (true, a - b);\\n        }\\n    }\\n\\n    /**\\n     * @dev Returns the multiplication of two unsigned integers, with an overflow flag.\\n     *\\n     * _Available since v3.4._\\n     */\\n    function tryMul(uint256 a, uint256 b) internal pure returns (bool, uint256) {\\n        unchecked {\\n            // Gas optimization: this is cheaper than requiring 'a' not being zero, but the\\n            // benefit is lost if 'b' is also tested.\\n            // See: https://github.com/OpenZeppelin/openzeppelin-contracts/pull/522\\n            if (a == 0) return (true, 0);\\n            uint256 c = a * b;\\n            if (c / a != b) return (false, 0);\\n            return (true, c);\\n        }\\n    }\\n\\n    /**\\n     * @dev Returns the division of two unsigned integers, with a division by zero flag.\\n     *\\n     * _Available since v3.4._\\n     */\\n    function tryDiv(uint256 a, uint256 b) internal pure returns (bool, uint256) {\\n        unchecked {\\n            if (b == 0) return (false, 0);\\n            return (true, a / b);\\n        }\\n    }\\n\\n    /**\\n     * @dev Returns the remainder of dividing two unsigned integers, with a division by zero flag.\\n     *\\n     * _Available since v3.4._\\n     */\\n    function tryMod(uint256 a, uint256 b) internal pure returns (bool, uint256) {\\n        unchecked {\\n            if (b == 0) return (false, 0);\\n            return (true, a % b);\\n        }\\n    }\\n\\n    /**\\n     * @dev Returns the addition of two unsigned integers, reverting on\\n     * overflow.\\n     *\\n     * Counterpart to Solidity's `+` operator.\\n     *\\n     * Requirements:\\n     *\\n     * - Addition cannot overflow.\\n     */\\n    function add(uint256 a, uint256 b) internal pure returns (uint256) {\\n        return a + b;\\n    }\\n\\n    /**\\n     * @dev Returns the subtraction of two unsigned integers, reverting on\\n     * overflow (when the result is negative).\\n     *\\n     * Counterpart to Solidity's `-` operator.\\n     *\\n     * Requirements:\\n     *\\n     * - Subtraction cannot overflow.\\n     */\\n    function sub(uint256 a, uint256 b) internal pure returns (uint256) {\\n        return a - b;\\n    }\\n\\n    /**\\n     * @dev Returns the multiplication of two unsigned integers, reverting on\\n     * overflow.\\n     *\\n     * Counterpart to Solidity's `*` operator.\\n     *\\n     * Requirements:\\n     *\\n     * - Multiplication cannot overflow.\\n     */\\n    function mul(uint256 a, uint256 b) internal pure returns (uint256) {\\n        return a * b;\\n    }\\n\\n    /**\\n     * @dev Returns the integer division of two unsigned integers, reverting on\\n     * division by zero. The result is rounded towards zero.\\n     *\\n     * Counterpart to Solidity's `/` operator.\\n     *\\n     * Requirements:\\n     *\\n     * - The divisor cannot be zero.\\n     */\\n    function div(uint256 a, uint256 b) internal pure returns (uint256) {\\n        return a / b;\\n    }\\n\\n    /**\\n     * @dev Returns the remainder of dividing two unsigned integers. (unsigned integer modulo),\\n     * reverting when dividing by zero.\\n     *\\n     * Counterpart to Solidity's `%` operator. This function uses a `revert`\\n     * opcode (which leaves remaining gas untouched) while Solidity uses an\\n     * invalid opcode to revert (consuming all remaining gas).\\n     *\\n     * Requirements:\\n     *\\n     * - The divisor cannot be zero.\\n     */\\n    function mod(uint256 a, uint256 b) internal pure returns (uint256) {\\n        return a % b;\\n    }\\n\\n    /**\\n     * @dev Returns the subtraction of two unsigned integers, reverting with custom message on\\n     * overflow (when the result is negative).\\n     *\\n     * CAUTION: This function is deprecated because it requires allocating memory for the error\\n     * message unnecessarily. For custom revert reasons use {trySub}.\\n     *\\n     * Counterpart to Solidity's `-` operator.\\n     *\\n     * Requirements:\\n     *\\n     * - Subtraction cannot overflow.\\n     */\\n    function sub(uint256 a, uint256 b, string memory errorMessage) internal pure returns (uint256) {\\n        unchecked {\\n            require(b <= a, errorMessage);\\n            return a - b;\\n        }\\n    }\\n\\n    /**\\n     * @dev Returns the integer division of two unsigned integers, reverting with custom message on\\n     * division by zero. The result is rounded towards zero.\\n     *\\n     * Counterpart to Solidity's `%` operator. This function uses a `revert`\\n     * opcode (which leaves remaining gas untouched) while Solidity uses an\\n     * invalid opcode to revert (consuming all remaining gas).\\n     *\\n     * Counterpart to Solidity's `/` operator. Note: this function uses a\\n     * `revert` opcode (which leaves remaining gas untouched) while Solidity\\n     * uses an invalid opcode to revert (consuming all remaining gas).\\n     *\\n     * Requirements:\\n     *\\n     * - The divisor cannot be zero.\\n     */\\n    function div(uint256 a, uint256 b, string memory errorMessage) internal pure returns (uint256) {\\n        unchecked {\\n            require(b > 0, errorMessage);\\n            return a / b;\\n        }\\n    }\\n\\n    /**\\n     * @dev Returns the remainder of dividing two unsigned integers. (unsigned integer modulo),\\n     * reverting with custom message when dividing by zero.\\n     *\\n     * CAUTION: This function is deprecated because it requires allocating memory for the error\\n     * message unnecessarily. For custom revert reasons use {tryMod}.\\n     *\\n     * Counterpart to Solidity's `%` operator. This function uses a `revert`\\n     * opcode (which leaves remaining gas untouched) while Solidity uses an\\n     * invalid opcode to revert (consuming all remaining gas).\\n     *\\n     * Requirements:\\n     *\\n     * - The divisor cannot be zero.\\n     */\\n    function mod(uint256 a, uint256 b, string memory errorMessage) internal pure returns (uint256) {\\n        unchecked {\\n            require(b > 0, errorMessage);\\n            return a % b;\\n        }\\n    }\\n}\\n\",\"keccak256\":\"0x2526b7c6a366fc211bbc176078ab02b83833e7682abcc5b3bed9d700b34e2a3e\",\"license\":\"MIT\"},\"@openzeppelin/contracts/utils/structs/EnumerableSet.sol\":{\"content\":\"// SPDX-License-Identifier: MIT\\n\\npragma solidity ^0.8.0;\\n\\n/**\\n * @dev Library for managing\\n * https://en.wikipedia.org/wiki/Set_(abstract_data_type)[sets] of primitive\\n * types.\\n *\\n * Sets have the following properties:\\n *\\n * - Elements are added, removed, and checked for existence in constant time\\n * (O(1)).\\n * - Elements are enumerated in O(n). No guarantees are made on the ordering.\\n *\\n * ```\\n * contract Example {\\n *     // Add the library methods\\n *     using EnumerableSet for EnumerableSet.AddressSet;\\n *\\n *     // Declare a set state variable\\n *     EnumerableSet.AddressSet private mySet;\\n * }\\n * ```\\n *\\n * As of v3.3.0, sets of type `bytes32` (`Bytes32Set`), `address` (`AddressSet`)\\n * and `uint256` (`UintSet`) are supported.\\n */\\nlibrary EnumerableSet {\\n    // To implement this library for multiple types with as little code\\n    // repetition as possible, we write it in terms of a generic Set type with\\n    // bytes32 values.\\n    // The Set implementation uses private functions, and user-facing\\n    // implementations (such as AddressSet) are just wrappers around the\\n    // underlying Set.\\n    // This means that we can only create new EnumerableSets for types that fit\\n    // in bytes32.\\n\\n    struct Set {\\n        // Storage of set values\\n        bytes32[] _values;\\n\\n        // Position of the value in the `values` array, plus 1 because index 0\\n        // means a value is not in the set.\\n        mapping (bytes32 => uint256) _indexes;\\n    }\\n\\n    /**\\n     * @dev Add a value to a set. O(1).\\n     *\\n     * Returns true if the value was added to the set, that is if it was not\\n     * already present.\\n     */\\n    function _add(Set storage set, bytes32 value) private returns (bool) {\\n        if (!_contains(set, value)) {\\n            set._values.push(value);\\n            // The value is stored at length-1, but we add 1 to all indexes\\n            // and use 0 as a sentinel value\\n            set._indexes[value] = set._values.length;\\n            return true;\\n        } else {\\n            return false;\\n        }\\n    }\\n\\n    /**\\n     * @dev Removes a value from a set. O(1).\\n     *\\n     * Returns true if the value was removed from the set, that is if it was\\n     * present.\\n     */\\n    function _remove(Set storage set, bytes32 value) private returns (bool) {\\n        // We read and store the value's index to prevent multiple reads from the same storage slot\\n        uint256 valueIndex = set._indexes[value];\\n\\n        if (valueIndex != 0) { // Equivalent to contains(set, value)\\n            // To delete an element from the _values array in O(1), we swap the element to delete with the last one in\\n            // the array, and then remove the last element (sometimes called as 'swap and pop').\\n            // This modifies the order of the array, as noted in {at}.\\n\\n            uint256 toDeleteIndex = valueIndex - 1;\\n            uint256 lastIndex = set._values.length - 1;\\n\\n            // When the value to delete is the last one, the swap operation is unnecessary. However, since this occurs\\n            // so rarely, we still do the swap anyway to avoid the gas cost of adding an 'if' statement.\\n\\n            bytes32 lastvalue = set._values[lastIndex];\\n\\n            // Move the last value to the index where the value to delete is\\n            set._values[toDeleteIndex] = lastvalue;\\n            // Update the index for the moved value\\n            set._indexes[lastvalue] = valueIndex; // Replace lastvalue's index to valueIndex\\n\\n            // Delete the slot where the moved value was stored\\n            set._values.pop();\\n\\n            // Delete the index for the deleted slot\\n            delete set._indexes[value];\\n\\n            return true;\\n        } else {\\n            return false;\\n        }\\n    }\\n\\n    /**\\n     * @dev Returns true if the value is in the set. O(1).\\n     */\\n    function _contains(Set storage set, bytes32 value) private view returns (bool) {\\n        return set._indexes[value] != 0;\\n    }\\n\\n    /**\\n     * @dev Returns the number of values on the set. O(1).\\n     */\\n    function _length(Set storage set) private view returns (uint256) {\\n        return set._values.length;\\n    }\\n\\n   /**\\n    * @dev Returns the value stored at position `index` in the set. O(1).\\n    *\\n    * Note that there are no guarantees on the ordering of values inside the\\n    * array, and it may change when more values are added or removed.\\n    *\\n    * Requirements:\\n    *\\n    * - `index` must be strictly less than {length}.\\n    */\\n    function _at(Set storage set, uint256 index) private view returns (bytes32) {\\n        require(set._values.length > index, \\\"EnumerableSet: index out of bounds\\\");\\n        return set._values[index];\\n    }\\n\\n    // Bytes32Set\\n\\n    struct Bytes32Set {\\n        Set _inner;\\n    }\\n\\n    /**\\n     * @dev Add a value to a set. O(1).\\n     *\\n     * Returns true if the value was added to the set, that is if it was not\\n     * already present.\\n     */\\n    function add(Bytes32Set storage set, bytes32 value) internal returns (bool) {\\n        return _add(set._inner, value);\\n    }\\n\\n    /**\\n     * @dev Removes a value from a set. O(1).\\n     *\\n     * Returns true if the value was removed from the set, that is if it was\\n     * present.\\n     */\\n    function remove(Bytes32Set storage set, bytes32 value) internal returns (bool) {\\n        return _remove(set._inner, value);\\n    }\\n\\n    /**\\n     * @dev Returns true if the value is in the set. O(1).\\n     */\\n    function contains(Bytes32Set storage set, bytes32 value) internal view returns (bool) {\\n        return _contains(set._inner, value);\\n    }\\n\\n    /**\\n     * @dev Returns the number of values in the set. O(1).\\n     */\\n    function length(Bytes32Set storage set) internal view returns (uint256) {\\n        return _length(set._inner);\\n    }\\n\\n   /**\\n    * @dev Returns the value stored at position `index` in the set. O(1).\\n    *\\n    * Note that there are no guarantees on the ordering of values inside the\\n    * array, and it may change when more values are added or removed.\\n    *\\n    * Requirements:\\n    *\\n    * - `index` must be strictly less than {length}.\\n    */\\n    function at(Bytes32Set storage set, uint256 index) internal view returns (bytes32) {\\n        return _at(set._inner, index);\\n    }\\n\\n    // AddressSet\\n\\n    struct AddressSet {\\n        Set _inner;\\n    }\\n\\n    /**\\n     * @dev Add a value to a set. O(1).\\n     *\\n     * Returns true if the value was added to the set, that is if it was not\\n     * already present.\\n     */\\n    function add(AddressSet storage set, address value) internal returns (bool) {\\n        return _add(set._inner, bytes32(uint256(uint160(value))));\\n    }\\n\\n    /**\\n     * @dev Removes a value from a set. O(1).\\n     *\\n     * Returns true if the value was removed from the set, that is if it was\\n     * present.\\n     */\\n    function remove(AddressSet storage set, address value) internal returns (bool) {\\n        return _remove(set._inner, bytes32(uint256(uint160(value))));\\n    }\\n\\n    /**\\n     * @dev Returns true if the value is in the set. O(1).\\n     */\\n    function contains(AddressSet storage set, address value) internal view returns (bool) {\\n        return _contains(set._inner, bytes32(uint256(uint160(value))));\\n    }\\n\\n    /**\\n     * @dev Returns the number of values in the set. O(1).\\n     */\\n    function length(AddressSet storage set) internal view returns (uint256) {\\n        return _length(set._inner);\\n    }\\n\\n   /**\\n    * @dev Returns the value stored at position `index` in the set. O(1).\\n    *\\n    * Note that there are no guarantees on the ordering of values inside the\\n    * array, and it may change when more values are added or removed.\\n    *\\n    * Requirements:\\n    *\\n    * - `index` must be strictly less than {length}.\\n    */\\n    function at(AddressSet storage set, uint256 index) internal view returns (address) {\\n        return address(uint160(uint256(_at(set._inner, index))));\\n    }\\n\\n\\n    // UintSet\\n\\n    struct UintSet {\\n        Set _inner;\\n    }\\n\\n    /**\\n     * @dev Add a value to a set. O(1).\\n     *\\n     * Returns true if the value was added to the set, that is if it was not\\n     * already present.\\n     */\\n    function add(UintSet storage set, uint256 value) internal returns (bool) {\\n        return _add(set._inner, bytes32(value));\\n    }\\n\\n    /**\\n     * @dev Removes a value from a set. O(1).\\n     *\\n     * Returns true if the value was removed from the set, that is if it was\\n     * present.\\n     */\\n    function remove(UintSet storage set, uint256 value) internal returns (bool) {\\n        return _remove(set._inner, bytes32(value));\\n    }\\n\\n    /**\\n     * @dev Returns true if the value is in the set. O(1).\\n     */\\n    function contains(UintSet storage set, uint256 value) internal view returns (bool) {\\n        return _contains(set._inner, bytes32(value));\\n    }\\n\\n    /**\\n     * @dev Returns the number of values on the set. O(1).\\n     */\\n    function length(UintSet storage set) internal view returns (uint256) {\\n        return _length(set._inner);\\n    }\\n\\n   /**\\n    * @dev Returns the value stored at position `index` in the set. O(1).\\n    *\\n    * Note that there are no guarantees on the ordering of values inside the\\n    * array, and it may change when more values are added or removed.\\n    *\\n    * Requirements:\\n    *\\n    * - `index` must be strictly less than {length}.\\n    */\\n    function at(UintSet storage set, uint256 index) internal view returns (uint256) {\\n        return uint256(_at(set._inner, index));\\n    }\\n}\\n\",\"keccak256\":\"0x4878ef6c288f4cef3c2a288d32cc548c648831cc55503ad3d9a581ed3b93aad9\",\"license\":\"MIT\"},\"contracts/contexts2/access-control/reentry/ReentryMods.sol\":{\"content\":\"// SPDX-License-Identifier: MIT\\npragma solidity ^0.8.0;\\n\\nimport { AccessControlStorageLib, AccessControlStorage } from \\\"../storage.sol\\\";\\n\\nabstract contract ReentryMods {\\n    modifier nonReentry(bytes32 id) {\\n        AccessControlStorage storage s = AccessControlStorageLib.store();\\n        require(!s.entered[id], \\\"AccessControl: reentered\\\");\\n        s.entered[id] = true;\\n        _;\\n        s.entered[id] = false;\\n    }\\n}\\n\",\"keccak256\":\"0x033c1164af25ef7d35a38a60973bf379b1cc603596914ffd85dcbcf0acdb6970\",\"license\":\"MIT\"},\"contracts/contexts2/access-control/roles/RolesFacet.sol\":{\"content\":\"// SPDX-License-Identifier: MIT\\npragma solidity ^0.8.0;\\n\\nimport { RolesMods } from \\\"./RolesMods.sol\\\";\\nimport { RolesLib } from \\\"./RolesLib.sol\\\";\\nimport { ADMIN } from \\\"../../../shared/roles.sol\\\";\\n\\ncontract RolesFacet is RolesMods {\\n    /**\\n     * @notice Checks if an account has a specific role.\\n     * @param role Encoding of the role to check.\\n     * @param account Address to check the {role} for.\\n     */\\n    function hasRole(bytes32 role, address account)\\n        external\\n        view\\n        returns (bool)\\n    {\\n        return RolesLib.hasRole(role, account);\\n    }\\n\\n    /**\\n     * @notice Grants an account a new role.\\n     * @param role Encoding of the role to give.\\n     * @param account Address to give the {role} to.\\n     *\\n     * Requirements:\\n     *  - Sender must be role admin.\\n     */\\n    function grantRole(bytes32 role, address account)\\n        external\\n        authorized(ADMIN, msg.sender)\\n    {\\n        RolesLib.grantRole(role, account);\\n    }\\n\\n    /**\\n     * @notice Removes a role from an account.\\n     * @param role Encoding of the role to remove.\\n     * @param account Address to remove the {role} from.\\n     *\\n     * Requirements:\\n     *  - Sender must be role admin.\\n     */\\n    function revokeRole(bytes32 role, address account)\\n        external\\n        authorized(ADMIN, msg.sender)\\n    {\\n        RolesLib.revokeRole(role, account);\\n    }\\n\\n    /**\\n     * @notice Removes a role from the sender.\\n     * @param role Encoding of the role to remove.\\n     */\\n    function renounceRole(bytes32 role) external {\\n        RolesLib.revokeRole(role, msg.sender);\\n    }\\n}\\n\",\"keccak256\":\"0x3d02fb1286754a6da3419c81632d23e9444b1fe8cd64283e15fcb07a9b201815\",\"license\":\"MIT\"},\"contracts/contexts2/access-control/roles/RolesLib.sol\":{\"content\":\"// SPDX-License-Identifier: MIT\\npragma solidity ^0.8.0;\\n\\nimport { AccessControlStorageLib, AccessControlStorage } from \\\"../storage.sol\\\";\\n\\nlibrary RolesLib {\\n    function s() private pure returns (AccessControlStorage storage) {\\n        return AccessControlStorageLib.store();\\n    }\\n\\n    /**\\n     * @dev Emitted when `account` is granted `role`.\\n     */\\n    event RoleGranted(\\n        bytes32 indexed role,\\n        address indexed account,\\n        address indexed sender\\n    );\\n\\n    /**\\n     * @dev Emitted when `account` is revoked `role`.\\n     */\\n    event RoleRevoked(\\n        bytes32 indexed role,\\n        address indexed account,\\n        address indexed sender\\n    );\\n\\n    /**\\n     * @notice Checks if an account has a specific role.\\n     */\\n    function hasRole(bytes32 role, address account)\\n        internal\\n        view\\n        returns (bool)\\n    {\\n        return s().roles[role][account];\\n    }\\n\\n    /**\\n     * @dev Gives an account a new role.\\n     * @dev Should only use when circumventing admin checking.\\n     * @dev If account already has the role, no event is emitted.\\n     * @param role Encoding of the role to give.\\n     * @param account Address to give the {role} to.\\n     */\\n    function grantRole(bytes32 role, address account) internal {\\n        if (hasRole(role, account)) return;\\n        s().roles[role][account] = true;\\n        emit RoleGranted(role, account, msg.sender);\\n    }\\n\\n    /**\\n     * @dev Removes a role from an account.\\n     * @dev Should only use when circumventing admin checking.\\n     * @dev If account does not already have the role, no event is emitted.\\n     * @param role Encoding of the role to remove.\\n     * @param account Address to remove the {role} from.\\n     */\\n    function revokeRole(bytes32 role, address account) internal {\\n        if (!hasRole(role, account)) return;\\n        s().roles[role][account] = false;\\n        emit RoleRevoked(role, account, msg.sender);\\n    }\\n}\\n\",\"keccak256\":\"0x36d0f5db441d2c3db7ee04d84c88ce9b14251cff4387702e96965c51acd1bc84\",\"license\":\"MIT\"},\"contracts/contexts2/access-control/roles/RolesMods.sol\":{\"content\":\"// SPDX-License-Identifier: MIT\\npragma solidity ^0.8.0;\\n\\nimport { RolesLib } from \\\"./RolesLib.sol\\\";\\n\\nabstract contract RolesMods {\\n    /**\\n     * @notice Requires that the {account} has {role}\\n     * @param role Encoding of the role to check.\\n     * @param account Address to check the {role} for.\\n     */\\n    modifier authorized(bytes32 role, address account) {\\n        require(\\n            RolesLib.hasRole(role, account),\\n            \\\"AccessControl: not authorized\\\"\\n        );\\n        _;\\n    }\\n}\\n\",\"keccak256\":\"0x25eeaba823d4fc9c52d82a77cfdb409550ad985fc49b30a5560c1f313c1ca905\",\"license\":\"MIT\"},\"contracts/contexts2/access-control/storage.sol\":{\"content\":\"// SPDX-License-Identifier: MIT\\npragma solidity ^0.8.0;\\n\\nstruct AccessControlStorage {\\n    mapping(bytes32 => mapping(address => bool)) roles;\\n    mapping(address => address) owners;\\n    mapping(bytes32 => bool) entered;\\n}\\n\\nbytes32 constant ACCESS_CONTROL_POS = keccak256(\\n    \\\"teller.access_control.storage\\\"\\n);\\n\\nlibrary AccessControlStorageLib {\\n    function store() internal pure returns (AccessControlStorage storage s) {\\n        bytes32 pos = ACCESS_CONTROL_POS;\\n        assembly {\\n            s.slot := pos\\n        }\\n    }\\n}\\n\",\"keccak256\":\"0xf667fb8d6beb59fc6f37d60ada6b811b5861512fedc661c483b9eca042e96112\",\"license\":\"MIT\"},\"contracts/escrow/dapps/interfaces/DataTypes.sol\":{\"content\":\"// SPDX-License-Identifier: agpl-3.0\\npragma solidity ^0.8.0;\\n\\nlibrary DataTypes {\\n    // refer to the aave whitepaper, section 1.1 basic concepts for a formal description of these properties.\\n    struct ReserveData {\\n        //stores the reserve configuration\\n        ReserveConfigurationMap configuration;\\n        //the liquidity index. Expressed in ray\\n        uint128 liquidityIndex;\\n        //variable borrow index. Expressed in ray\\n        uint128 variableBorrowIndex;\\n        //the current supply rate. Expressed in ray\\n        uint128 currentLiquidityRate;\\n        //the current variable borrow rate. Expressed in ray\\n        uint128 currentVariableBorrowRate;\\n        //the current stable borrow rate. Expressed in ray\\n        uint128 currentStableBorrowRate;\\n        uint40 lastUpdateTimestamp;\\n        //tokens addresses\\n        address aTokenAddress;\\n        address stableDebtTokenAddress;\\n        address variableDebtTokenAddress;\\n        //address of the interest rate strategy\\n        address interestRateStrategyAddress;\\n        //the id of the reserve. Represents the position in the list of the active reserves\\n        uint8 id;\\n    }\\n\\n    struct ReserveConfigurationMap {\\n        //bit 0-15: LTV\\n        //bit 16-31: Liq. threshold\\n        //bit 32-47: Liq. bonus\\n        //bit 48-55: Decimals\\n        //bit 56: Reserve is active\\n        //bit 57: reserve is frozen\\n        //bit 58: borrowing is enabled\\n        //bit 59: stable rate borrowing enabled\\n        //bit 60-63: reserved\\n        //bit 64-79: reserve factor\\n        uint256 data;\\n    }\\n\\n    struct UserConfigurationMap {\\n        uint256 data;\\n    }\\n\\n    enum InterestRateMode { NONE, STABLE, VARIABLE }\\n}\\n\",\"keccak256\":\"0xf4301e0bd269f4662f1c1a0ed4f217cd78d670e43d51a025d55878b972d0a8e7\",\"license\":\"agpl-3.0\"},\"contracts/escrow/dapps/interfaces/IAToken.sol\":{\"content\":\"// SPDX-License-Identifier: agpl-3.0\\npragma solidity ^0.8.0;\\n\\ninterface IAToken {\\n    /**\\n     * @dev Mints `amount` aTokens to `user`\\n     * @param user The address receiving the minted tokens\\n     * @param amount The amount of tokens getting minted\\n     * @param index The new liquidity index of the reserve\\n     * @return `true` if the the previous balance of the user was 0\\n     */\\n    function mint(\\n        address user,\\n        uint256 amount,\\n        uint256 index\\n    ) external returns (bool);\\n\\n    /**\\n     * @dev Burns aTokens from `user` and sends the equivalent amount of underlying to `receiverOfUnderlying`\\n     * @param user The owner of the aTokens, getting them burned\\n     * @param receiverOfUnderlying The address that will receive the underlying\\n     * @param amount The amount being burned\\n     * @param index The new liquidity index of the reserve\\n     **/\\n    function burn(\\n        address user,\\n        address receiverOfUnderlying,\\n        uint256 amount,\\n        uint256 index\\n    ) external;\\n\\n    /**\\n     * @dev Transfers the underlying asset to `target`. Used by the LendingPool to transfer\\n     * assets in borrow(), withdraw() and flashLoan()\\n     * @param user The recipient of the aTokens\\n     * @param amount The amount getting transferred\\n     * @return The amount transferred\\n     **/\\n    function transferUnderlyingTo(address user, uint256 amount)\\n        external\\n        returns (uint256);\\n\\n    /**\\n     * @dev Returns the amount of tokens owned by `account`.\\n     */\\n    function balanceOf(address account) external view returns (uint256);\\n\\n    /**\\n     * @dev Returns the remaining number of tokens that `spender` will be\\n     * allowed to spend on behalf of `owner` through {transferFrom}. This is\\n     * zero by default.\\n     *\\n     * This value changes when {approve} or {transferFrom} are called.\\n     */\\n    function allowance(address owner, address spender)\\n        external\\n        view\\n        returns (uint256);\\n\\n    /**\\n     * @dev Sets `amount` as the allowance of `spender` over the caller's tokens.\\n     *\\n     * Returns a boolean value indicating whether the operation succeeded.\\n     *\\n     * IMPORTANT: Beware that changing an allowance with this method brings the risk\\n     * that someone may use both the old and the new allowance by unfortunate\\n     * transaction ordering. One possible solution to mitigate this race\\n     * condition is to first reduce the spender's allowance to 0 and set the\\n     * desired value afterwards:\\n     * https://github.com/ethereum/EIPs/issues/20#issuecomment-263524729\\n     *\\n     * Emits an {Approval} event.\\n     */\\n    function approve(address spender, uint256 amount) external returns (bool);\\n\\n    /**\\n     * @dev Returns the scaled balance of the user. The scaled balance is the sum of all the\\n     * updated stored balance divided by the reserve's liquidity index at the moment of the update\\n     * @param user The user whose balance is calculated\\n     * @return The scaled balance of the user\\n     **/\\n    function scaledBalanceOf(address user) external view returns (uint256);\\n\\n    /**\\n     * @dev Returns the scaled balance of the user and the scaled total supply.\\n     * @param user The address of the user\\n     * @return The scaled balance of the user\\n     * @return The scaled balance and the scaled total supply\\n     **/\\n    function getScaledUserBalanceAndSupply(address user)\\n        external\\n        view\\n        returns (uint256, uint256);\\n\\n    /**\\n     * @dev Returns the scaled total supply of the variable debt token. Represents sum(debt/index)\\n     * @return The scaled total supply\\n     **/\\n    function scaledTotalSupply() external view returns (uint256);\\n}\\n\",\"keccak256\":\"0xf715e63b83c55fcd3476280a0ab871ed763754b3f5404ec779903652a3e7838e\",\"license\":\"agpl-3.0\"},\"contracts/escrow/dapps/interfaces/IAaveLendingPool.sol\":{\"content\":\"// SPDX-License-Identifier: agpl-3.0\\npragma solidity ^0.8.0;\\n\\nimport \\\"./IAaveLendingPoolAddressesProvider.sol\\\";\\nimport \\\"./DataTypes.sol\\\";\\n\\ninterface IAaveLendingPool {\\n    /**\\n     * @dev Deposits an `amount` of underlying asset into the reserve, receiving in return overlying aTokens.\\n     * - E.g. User deposits 100 USDC and gets in return 100 aUSDC\\n     * @param asset The address of the underlying asset to deposit\\n     * @param amount The amount to be deposited\\n     * @param onBehalfOf The address that will receive the aTokens, same as msg.sender if the user\\n     *   wants to receive them on his own wallet, or a different address if the beneficiary of aTokens\\n     *   is a different wallet\\n     * @param referralCode Code used to register the integrator originating the operation, for potential rewards.\\n     *   0 if the action is executed directly by the user, without any middle-man\\n     **/\\n    function deposit(\\n        address asset,\\n        uint256 amount,\\n        address onBehalfOf,\\n        uint16 referralCode\\n    ) external;\\n\\n    /**\\n     * @dev Withdraws an `amount` of underlying asset from the reserve, burning the equivalent aTokens owned\\n     * E.g. User has 100 aUSDC, calls withdraw() and receives 100 USDC, burning the 100 aUSDC\\n     * @param asset The address of the underlying asset to withdraw\\n     * @param amount The underlying amount to be withdrawn\\n     *   - Send the value type(uint256).max in order to withdraw the whole aToken balance\\n     * @param to Address that will receive the underlying, same as msg.sender if the user\\n     *   wants to receive it on his own wallet, or a different address if the beneficiary is a\\n     *   different wallet\\n     * @return The final amount withdrawn\\n     **/\\n    function withdraw(\\n        address asset,\\n        uint256 amount,\\n        address to\\n    ) external returns (uint256);\\n\\n    /**\\n     * @dev Allows users to borrow a specific `amount` of the reserve underlying asset, provided that the borrower\\n     * already deposited enough collateral, or he was given enough allowance by a credit delegator on the\\n     * corresponding debt token (StableDebtToken or VariableDebtToken)\\n     * - E.g. User borrows 100 USDC passing as `onBehalfOf` his own address, receiving the 100 USDC in his wallet\\n     *   and 100 stable/variable debt tokens, depending on the `interestRateMode`\\n     * @param asset The address of the underlying asset to borrow\\n     * @param amount The amount to be borrowed\\n     * @param interestRateMode The interest rate mode at which the user wants to borrow: 1 for Stable, 2 for Variable\\n     * @param referralCode Code used to register the integrator originating the operation, for potential rewards.\\n     *   0 if the action is executed directly by the user, without any middle-man\\n     * @param onBehalfOf Address of the user who will receive the debt. Should be the address of the borrower itself\\n     * calling the function if he wants to borrow against his own collateral, or the address of the credit delegator\\n     * if he has been given credit delegation allowance\\n     **/\\n    function borrow(\\n        address asset,\\n        uint256 amount,\\n        uint256 interestRateMode,\\n        uint16 referralCode,\\n        address onBehalfOf\\n    ) external;\\n\\n    /**\\n     * @notice Repays a borrowed `amount` on a specific reserve, burning the equivalent debt tokens owned\\n     * - E.g. User repays 100 USDC, burning 100 variable/stable debt tokens of the `onBehalfOf` address\\n     * @param asset The address of the borrowed underlying asset previously borrowed\\n     * @param amount The amount to repay\\n     * - Send the value type(uint256).max in order to repay the whole debt for `asset` on the specific `debtMode`\\n     * @param rateMode The interest rate mode at of the debt the user wants to repay: 1 for Stable, 2 for Variable\\n     * @param onBehalfOf Address of the user who will get his debt reduced/removed. Should be the address of the\\n     * user calling the function if he wants to reduce/remove his own debt, or the address of any other\\n     * other borrower whose debt should be removed\\n     * @return The final amount repaid\\n     **/\\n    function repay(\\n        address asset,\\n        uint256 amount,\\n        uint256 rateMode,\\n        address onBehalfOf\\n    ) external returns (uint256);\\n\\n    /**\\n     * @dev Allows a borrower to swap his debt between stable and variable mode, or viceversa\\n     * @param asset The address of the underlying asset borrowed\\n     * @param rateMode The rate mode that the user wants to swap to\\n     **/\\n    function swapBorrowRateMode(address asset, uint256 rateMode) external;\\n\\n    /**\\n     * @dev Rebalances the stable interest rate of a user to the current stable rate defined on the reserve.\\n     * - Users can be rebalanced if the following conditions are satisfied:\\n     *     1. Usage ratio is above 95%\\n     *     2. the current deposit APY is below REBALANCE_UP_THRESHOLD * maxVariableBorrowRate, which means that too much has been\\n     *        borrowed at a stable rate and depositors are not earning enough\\n     * @param asset The address of the underlying asset borrowed\\n     * @param user The address of the user to be rebalanced\\n     **/\\n    function rebalanceStableBorrowRate(address asset, address user) external;\\n\\n    /**\\n     * @dev Allows depositors to enable/disable a specific deposited asset as collateral\\n     * @param asset The address of the underlying asset deposited\\n     * @param useAsCollateral `true` if the user wants to use the deposit as collateral, `false` otherwise\\n     **/\\n    function setUserUseReserveAsCollateral(address asset, bool useAsCollateral)\\n        external;\\n\\n    /**\\n     * @dev Function to liquidate a non-healthy position collateral-wise, with Health Factor below 1\\n     * - The caller (liquidator) covers `debtToCover` amount of debt of the user getting liquidated, and receives\\n     *   a proportionally amount of the `collateralAsset` plus a bonus to cover market risk\\n     * @param collateralAsset The address of the underlying asset used as collateral, to receive as result of the liquidation\\n     * @param debtAsset The address of the underlying borrowed asset to be repaid with the liquidation\\n     * @param user The address of the borrower getting liquidated\\n     * @param debtToCover The debt amount of borrowed `asset` the liquidator wants to cover\\n     * @param receiveAToken `true` if the liquidators wants to receive the collateral aTokens, `false` if he wants\\n     * to receive the underlying collateral asset directly\\n     **/\\n    function liquidationCall(\\n        address collateralAsset,\\n        address debtAsset,\\n        address user,\\n        uint256 debtToCover,\\n        bool receiveAToken\\n    ) external;\\n\\n    /**\\n     * @dev Allows smartcontracts to access the liquidity of the pool within one transaction,\\n     * as long as the amount taken plus a fee is returned.\\n     * IMPORTANT There are security concerns for developers of flashloan receiver contracts that must be kept into consideration.\\n     * For further details please visit https://developers.aave.com\\n     * @param receiverAddress The address of the contract receiving the funds, implementing the IFlashLoanReceiver interface\\n     * @param assets The addresses of the assets being flash-borrowed\\n     * @param amounts The amounts amounts being flash-borrowed\\n     * @param modes Types of the debt to open if the flash loan is not returned:\\n     *   0 -> Don't open any debt, just revert if funds can't be transferred from the receiver\\n     *   1 -> Open debt at stable rate for the value of the amount flash-borrowed to the `onBehalfOf` address\\n     *   2 -> Open debt at variable rate for the value of the amount flash-borrowed to the `onBehalfOf` address\\n     * @param onBehalfOf The address  that will receive the debt in the case of using on `modes` 1 or 2\\n     * @param params Variadic packed params to pass to the receiver as extra information\\n     * @param referralCode Code used to register the integrator originating the operation, for potential rewards.\\n     *   0 if the action is executed directly by the user, without any middle-man\\n     **/\\n    function flashLoan(\\n        address receiverAddress,\\n        address[] calldata assets,\\n        uint256[] calldata amounts,\\n        uint256[] calldata modes,\\n        address onBehalfOf,\\n        bytes calldata params,\\n        uint16 referralCode\\n    ) external;\\n\\n    /**\\n     * @dev Returns the user account data across all the reserves\\n     * @param user The address of the user\\n     * @return totalCollateralETH the total collateral in ETH of the user\\n     * @return totalDebtETH the total debt in ETH of the user\\n     * @return availableBorrowsETH the borrowing power left of the user\\n     * @return currentLiquidationThreshold the liquidation threshold of the user\\n     * @return ltv the loan to value of the user\\n     * @return healthFactor the current health factor of the user\\n     **/\\n    function getUserAccountData(address user)\\n        external\\n        view\\n        returns (\\n            uint256 totalCollateralETH,\\n            uint256 totalDebtETH,\\n            uint256 availableBorrowsETH,\\n            uint256 currentLiquidationThreshold,\\n            uint256 ltv,\\n            uint256 healthFactor\\n        );\\n\\n    /**\\n     * @dev Returns the configuration of the reserve\\n     * @param asset The address of the underlying asset of the reserve\\n     * @return The configuration of the reserve\\n     **/\\n    function getConfiguration(address asset)\\n        external\\n        view\\n        returns (DataTypes.ReserveConfigurationMap memory);\\n\\n    /**\\n     * @dev Returns the configuration of the user across all the reserves\\n     * @param user The user address\\n     * @return The configuration of the user\\n     **/\\n    function getUserConfiguration(address user)\\n        external\\n        view\\n        returns (DataTypes.UserConfigurationMap memory);\\n\\n    /**\\n     * @dev Returns the normalized income normalized income of the reserve\\n     * @param asset The address of the underlying asset of the reserve\\n     * @return The reserve's normalized income\\n     */\\n    function getReserveNormalizedIncome(address asset)\\n        external\\n        view\\n        returns (uint256);\\n\\n    /**\\n     * @dev Returns the normalized variable debt per unit of asset\\n     * @param asset The address of the underlying asset of the reserve\\n     * @return The reserve normalized variable debt\\n     */\\n    function getReserveNormalizedVariableDebt(address asset)\\n        external\\n        view\\n        returns (uint256);\\n\\n    /**\\n     * @dev Returns the state and configuration of the reserve\\n     * @param asset The address of the underlying asset of the reserve\\n     * @return The state of the reserve\\n     **/\\n    function getReserveData(address asset)\\n        external\\n        view\\n        returns (DataTypes.ReserveData memory);\\n\\n    function finalizeTransfer(\\n        address asset,\\n        address from,\\n        address to,\\n        uint256 amount,\\n        uint256 balanceFromAfter,\\n        uint256 balanceToBefore\\n    ) external;\\n\\n    function getReservesList() external view returns (address[] memory);\\n\\n    function getAddressesProvider()\\n        external\\n        view\\n        returns (IAaveLendingPoolAddressesProvider);\\n\\n    function paused() external view returns (bool);\\n}\\n\",\"keccak256\":\"0x8fb5cf82d1c19d0c61151dfb8cf6f6c2a17a15b63600b75f359fe4e9e3acc23f\",\"license\":\"agpl-3.0\"},\"contracts/escrow/dapps/interfaces/IAaveLendingPoolAddressesProvider.sol\":{\"content\":\"// SPDX-License-Identifier: agpl-3.0\\npragma solidity ^0.8.0;\\n\\n/**\\n * @title LendingPoolAddressesProvider contract\\n * @dev Main registry of addresses part of or connected to the protocol, including permissioned roles\\n * - Acting also as factory of proxies and admin of those, so with right to change its implementations\\n * - Owned by the Aave Governance\\n * @author Aave\\n **/\\ninterface IAaveLendingPoolAddressesProvider {\\n    function getMarketId() external view returns (string memory);\\n\\n    function getAddress(bytes32 id) external view returns (address);\\n\\n    function getLendingPool() external view returns (address);\\n\\n    function getPriceOracle() external view returns (address);\\n\\n    function getLendingRateOracle() external view returns (address);\\n}\\n\",\"keccak256\":\"0x9d21dbefac677da74786c27ad0fe1b148c00df63f7a2616d75c2b97c756007b3\",\"license\":\"agpl-3.0\"},\"contracts/escrow/dapps/interfaces/IVault.sol\":{\"content\":\"// SPDX-License-Identifier: MIT\\npragma solidity ^0.8.0;\\n\\n/**\\n    @notice This interface defines the different functions available for a Yearn Vault\\n    @author develop@teller.finance\\n */\\n\\ninterface IVault {\\n    /**\\n        @notice Returns the unwrapped native token address that the Vault takes as deposit\\n        @return The address of the unwrapped token\\n     */\\n    function token() external view returns (address);\\n\\n    /**\\n        @notice Returns the vault's wrapped token name as a string, example 'yearn Dai Stablecoin'\\n        @return The name of the wrapped token\\n     */\\n    function name() external view returns (string memory);\\n\\n    /**\\n        @notice Returns the vault's wrapped token symbol as a string, example 'yDai'\\n        @return The symbol of the wrapped token\\n     */\\n    function symbol() external view returns (string memory);\\n\\n    /**\\n        @notice Returns the amount of decimals for this vault's wrapped token as a uin8\\n        @return The number of decimals for the token\\n     */\\n    function decimals() external view returns (uint8);\\n\\n    /**\\n     * @dev Returns the amount of tokens owned by `account`.\\n     */\\n    function balanceOf(address account) external view returns (uint256);\\n\\n    /**\\n        @notice Returns the address of the Vault's controller\\n        @return The address of the controller contract\\n     */\\n    function controller() external view returns (address);\\n\\n    /**\\n        @notice Returns the address of the Vault's governance contract\\n        @return The contract address\\n     */\\n    function governance() external view returns (address);\\n\\n    /**\\n        @notice Returns the price of the Vault's wrapped token, denominated in the unwrapped native token\\n        @notice Calculation is: nativeTokenBalance/yTokenTotalSupply,\\n            - nativeTokenBalance is the current balance of the native token (example DAI) in the Vault\\n            - yTokenTotalSupply is the total supply of the Vault's wrapped token (example yDAI)\\n        @return The token price\\n     */\\n    function getPricePerFullShare() external view returns (uint256); // v1 vaults\\n\\n    /**\\n        @notice Returns the price of the Vault's wrapped token, denominated in the unwrapped native token\\n        @notice Calculation is: nativeTokenBalance/yTokenTotalSupply,\\n            - nativeTokenBalance is the current balance of the native token (example DAI) in the Vault\\n            - yTokenTotalSupply is the total supply of the Vault's wrapped token (example yDAI)\\n        @return The token price\\n     */\\n    function getPricePerShare() external view returns (uint256); // v2 vaults\\n\\n    /**\\n        @notice Deposits the specified amount of the native unwrapped token (same as token() returns) into the Vault\\n        @param amountToDeposit The amount of tokens to deposit\\n     */\\n    function deposit(uint256 amountToDeposit) external;\\n\\n    /**\\n        @notice Deposits the maximum available amount of the native wrapped token (same as token()) into the Vault\\n     */\\n    function depositAll() external;\\n\\n    /**\\n        @notice Withdraws the specified amount of the native unwrapped token (same as token() returns) from the Vault\\n        @param amountToWithdraw The amount to withdraw\\n     */\\n    function withdraw(uint256 amountToWithdraw) external;\\n\\n    /**\\n        @notice Withdraws the maximum available amount of native unwrapped token (same as token()) from the Vault\\n     */\\n    function withdrawAll() external;\\n}\\n\",\"keccak256\":\"0x0e2e145747f8745bde77d4741abba1a1edb1dab02e9d467eff60cb881bcffd79\",\"license\":\"MIT\"},\"contracts/escrow/dapps/libraries/LibDapps.sol\":{\"content\":\"// SPDX-License-Identifier: MIT\\npragma solidity ^0.8.0;\\n\\n// Interfaces\\nimport { IERC20 } from \\\"@openzeppelin/contracts/token/ERC20/IERC20.sol\\\";\\nimport { IAToken } from \\\"../interfaces/IAToken.sol\\\";\\nimport { IAaveLendingPool } from \\\"../interfaces/IAaveLendingPool.sol\\\";\\nimport {\\n    IAaveLendingPoolAddressesProvider\\n} from \\\"../interfaces/IAaveLendingPoolAddressesProvider.sol\\\";\\nimport {\\n    IUniswapV2Router\\n} from \\\"../../../shared/interfaces/IUniswapV2Router.sol\\\";\\nimport { IVault } from \\\"../interfaces/IVault.sol\\\";\\n\\n// Libraries\\nimport {\\n    EnumerableSet\\n} from \\\"@openzeppelin/contracts/utils/structs/EnumerableSet.sol\\\";\\n\\n// Storage\\nimport { MarketStorageLib, MarketStorage } from \\\"../../../storage/market.sol\\\";\\nimport { AppStorageLib } from \\\"../../../storage/app.sol\\\";\\n\\nlibrary LibDapps {\\n    function s() internal pure returns (MarketStorage storage) {\\n        return MarketStorageLib.store();\\n    }\\n\\n    /**\\n        @notice Grabs the Aave lending pool instance from the Aave lending pool address provider\\n        @return IAaveLendingPool instance address\\n     */\\n    function getAaveLendingPool() internal view returns (IAaveLendingPool) {\\n        return\\n            IAaveLendingPool(\\n                IAaveLendingPoolAddressesProvider(\\n                    0xB53C1a33016B2DC2fF3653530bfF1848a515c8c5\\n                )\\n                    .getLendingPool()\\n            ); // LP address provider contract is immutable and the address will never change\\n    }\\n\\n    /**\\n        @notice Grabs the aToken instance from the lending pool\\n        @param tokenAddress The underlying asset address to get the aToken for\\n        @return IAToken instance\\n     */\\n    function getAToken(address tokenAddress) internal view returns (IAToken) {\\n        return\\n            IAToken(\\n                getAaveLendingPool().getReserveData(tokenAddress).aTokenAddress\\n            );\\n    }\\n\\n    /**\\n        @notice Grabs the yVault address for a token from the asset settings\\n        @param tokenAddress The underlying token address for the associated yVault\\n        @return yVault instance\\n     */\\n    function getYVault(address tokenAddress) internal view returns (IVault) {\\n        return\\n            IVault(\\n                AppStorageLib.store().assetSettings[tokenAddress].addresses[\\n                    keccak256(\\\"yVaultAddress\\\")\\n                ]\\n            );\\n    }\\n}\\n\",\"keccak256\":\"0x8030b206c87d0073fb7dbebfa2ee8a3e93c479d976d6cdaa0c939f2fedaa1525\",\"license\":\"MIT\"},\"contracts/escrow/escrow/ILoansEscrow.sol\":{\"content\":\"// SPDX-License-Identifier: MIT\\npragma solidity ^0.8.0;\\n\\ninterface ILoansEscrow {\\n    function init() external;\\n\\n    /**\\n     * @notice it calls a dapp like YearnFinance at a target contract address with specified calldata\\n     * @param dappAddress address of the target contract address\\n     * @param dappData encoded abi of the function in our contract we want to call\\n     * @return the called data in bytes\\n     */\\n    function callDapp(address dappAddress, bytes calldata dappData)\\n        external\\n        returns (bytes memory);\\n\\n    /**\\n     * @notice it approves the spender to spend a maximum amount of a respective token from a token address\\n     * @param token address of the respective ERC20 token to approve for the spender\\n     * @param spender address of the respective spender who is approved by the token contract\\n     */\\n    function setTokenAllowance(address token, address spender) external;\\n\\n    /**\\n     * @notice it allows user to claim their escrow tokens\\n     * @dev only the owner (TellerDiamond) can make this call on behalf of the users\\n     * @param token address of the respective token contract to claim tokens from\\n     * @param to address where the tokens should be transferred to\\n     * @param amount uint256 amount of tokens to be claimed\\n     */\\n    function claimToken(\\n        address token,\\n        address to,\\n        uint256 amount\\n    ) external;\\n}\\n\",\"keccak256\":\"0xaf67fc4454ffaa4d2f7e46fe7101876e8ebdb1a5426c30f87b8e18cc573ac019\",\"license\":\"MIT\"},\"contracts/escrow/libraries/LibEscrow.sol\":{\"content\":\"// SPDX-License-Identifier: MIT\\npragma solidity ^0.8.0;\\n\\n// Libraries\\nimport { LibDapps } from \\\"../dapps/libraries/LibDapps.sol\\\";\\nimport { LibLoans } from \\\"../../market/libraries/LibLoans.sol\\\";\\nimport { PriceAggLib } from \\\"../../price-aggregator/PriceAggLib.sol\\\";\\nimport {\\n    EnumerableSet\\n} from \\\"@openzeppelin/contracts/utils/structs/EnumerableSet.sol\\\";\\n\\n// Interfaces\\nimport { IERC20 } from \\\"@openzeppelin/contracts/token/ERC20/IERC20.sol\\\";\\nimport { ILoansEscrow } from \\\"../escrow/ILoansEscrow.sol\\\";\\n\\n// Storage\\nimport { MarketStorageLib, MarketStorage } from \\\"../../storage/market.sol\\\";\\n\\nlibrary LibEscrow {\\n    function s() internal pure returns (MarketStorage storage) {\\n        return MarketStorageLib.store();\\n    }\\n\\n    function e(uint256 loanID) internal view returns (ILoansEscrow e_) {\\n        e_ = s().loanEscrows[loanID];\\n    }\\n\\n    /**\\n     * @notice It returns a list of tokens owned by a loan escrow\\n     * @param loanID uint256 index used to return our token list\\n     * @return t_ which is a list of tokens \\n     */\\n    function getEscrowTokens(uint256 loanID)\\n        internal\\n        view\\n        returns (EnumerableSet.AddressSet storage t_)\\n    {\\n        t_ = s().escrowTokens[loanID];\\n    }\\n\\n    /**\\n     * @notice It returns the balance of a respective token in a loan escrow\\n     * @param loanID uint256 index used to point to our loan escrow\\n     * @param token address of respective token to give us the balance of in our loan escrow\\n     * @return uint256 balance of respective token returned in an escrow loan\\n     */\\n    function balanceOf(uint256 loanID, address token)\\n        internal\\n        view\\n        returns (uint256)\\n    {\\n        return IERC20(token).balanceOf(address(e(loanID)));\\n    }\\n\\n    /**\\n     * @notice Adds or removes tokens held by the Escrow contract\\n     * @param loanID The loan ID to update the token list for\\n     * @param tokenAddress The token address to be added or removed\\n     */\\n    function tokenUpdated(uint256 loanID, address tokenAddress) internal {\\n        // Skip if is lending token\\n        if (LibLoans.loan(loanID).lendingToken == tokenAddress) return;\\n\\n        EnumerableSet.AddressSet storage tokens = s().escrowTokens[loanID];\\n        bool contains = EnumerableSet.contains(tokens, tokenAddress);\\n        if (balanceOf(loanID, tokenAddress) > 0) {\\n            if (!contains) {\\n                EnumerableSet.add(tokens, tokenAddress);\\n            }\\n        } else if (contains) {\\n            EnumerableSet.remove(tokens, tokenAddress);\\n        }\\n    }\\n\\n    /**\\n     * @notice Calculate the value of the loan by getting the value of all tokens the Escrow owns.\\n     * @param loanID The loan ID to calculate value for\\n     * @return value_ Escrow total value denoted in the lending token.\\n     */\\n    function calculateTotalValue(uint256 loanID)\\n        internal\\n        view\\n        returns (uint256 value_)\\n    {\\n        address lendingToken = LibLoans.loan(loanID).lendingToken;\\n        value_ += balanceOf(loanID, lendingToken);\\n\\n        EnumerableSet.AddressSet storage tokens = getEscrowTokens(loanID);\\n        if (EnumerableSet.length(tokens) > 0) {\\n            for (uint256 i = 0; i < EnumerableSet.length(tokens); i++) {\\n                uint256 tokenBal =\\n                    balanceOf(loanID, EnumerableSet.at(tokens, i));\\n                value_ += PriceAggLib.valueFor(\\n                    EnumerableSet.at(tokens, i),\\n                    lendingToken,\\n                    tokenBal\\n                );\\n            }\\n        }\\n    }\\n}\\n\",\"keccak256\":\"0x17a7c6b11d6f280948e320525d1e131b89c23f80216918aa070df437a851d915\",\"license\":\"MIT\"},\"contracts/lending/ttoken/ITToken.sol\":{\"content\":\"// SPDX-License-Identifier: MIT\\npragma solidity ^0.8.0;\\n\\n// Contracts\\nimport {\\n    ERC20Upgradeable\\n} from \\\"@openzeppelin/contracts-upgradeable/token/ERC20/ERC20Upgradeable.sol\\\";\\nimport { ERC20 } from \\\"@openzeppelin/contracts/token/ERC20/ERC20.sol\\\";\\nimport {\\n    RolesFacet\\n} from \\\"../../contexts2/access-control/roles/RolesFacet.sol\\\";\\n\\n/**\\n * @notice This contract acts as an interface for the Teller token (TToken).\\n *\\n * @author develop@teller.finance\\n */\\nabstract contract ITToken is ERC20Upgradeable, RolesFacet {\\n    /**\\n     * @notice This event is emitted when a user deposits tokens into the pool.\\n     */\\n    event Mint(\\n        address indexed sender,\\n        uint256 tTokenAmount,\\n        uint256 underlyingAmount\\n    );\\n\\n    /**\\n     * @notice This event is emitted when a user withdraws tokens from the pool.\\n     */\\n    event Redeem(\\n        address indexed sender,\\n        uint256 tTokenAmount,\\n        uint256 underlyingAmount\\n    );\\n\\n    /**\\n     * @notice The token that is the underlying assets for this Teller token.\\n     * @return ERC20 token\\n     */\\n    function underlying() external view virtual returns (ERC20);\\n\\n    /**\\n     * @notice The balance of an {account} denoted in underlying value.\\n     * @param account Address to calculate the underlying balance.\\n     * @return balance_ the balance of the account\\n     */\\n    function balanceOfUnderlying(address account)\\n        external\\n        virtual\\n        returns (uint256 balance_);\\n\\n    /**\\n     * @notice It calculates the current exchange rate for a whole Teller Token based of the underlying token balance.\\n     * @return rate_ The current exchange rate.\\n     */\\n    function exchangeRate() external virtual returns (uint256 rate_);\\n\\n    /**\\n     * @notice It calculates the total supply of the underlying asset.\\n     * @return totalSupply_ the total supply denoted in the underlying asset.\\n     */\\n    function totalUnderlyingSupply()\\n        external\\n        virtual\\n        returns (uint256 totalSupply_);\\n\\n    /**\\n     * @notice It calculates the market state values across a given market.\\n     * @notice Returns values that represent the global state across the market.\\n     * @return totalSupplied Total amount of the underlying asset supplied.\\n     * @return totalBorrowed Total amount borrowed through loans.\\n     * @return totalRepaid The total amount repaid till the current timestamp.\\n     * @return totalInterestRepaid The total amount interest repaid till the current timestamp.\\n     * @return totalOnLoan Total amount currently deployed in loans.\\n     */\\n    function getMarketState()\\n        external\\n        virtual\\n        returns (\\n            uint256 totalSupplied,\\n            uint256 totalBorrowed,\\n            uint256 totalRepaid,\\n            uint256 totalInterestRepaid,\\n            uint256 totalOnLoan\\n        );\\n\\n    /**\\n     * @notice Calculates the current Total Value Locked, denoted in the underlying asset, in the Teller Token pool.\\n     * @return tvl_ The value locked in the pool.\\n     *\\n     * Note: This value includes the amount that is on loan (including ones that were sent to EOAs).\\n     */\\n    function currentTVL() external virtual returns (uint256 tvl_);\\n\\n    /**\\n     * @notice It validates whether supply to debt (StD) ratio is valid including the loan amount.\\n     * @param newLoanAmount the new loan amount to consider the StD ratio.\\n     * @return ratio_ Whether debt ratio for lending pool is valid.\\n     */\\n    function debtRatioFor(uint256 newLoanAmount)\\n        external\\n        virtual\\n        returns (uint16 ratio_);\\n        \\n\\n    /**\\n     * @notice Called by the Teller Diamond contract when a loan has been taken out and requires funds.\\n     * @param recipient The account to send the funds to.\\n     * @param amount Funds requested to fulfill the loan.\\n     */\\n    function fundLoan(address recipient, uint256 amount) external virtual;\\n\\n    /**\\n     * @notice Called by the Teller Diamond contract when a loan has been repaid.\\n     * @param amount Funds deposited back into the pool to repay the principal amount of a loan.\\n     * @param interestAmount Interest value paid into the pool from a loan.\\n     */\\n    function repayLoan(uint256 amount, uint256 interestAmount) external virtual;\\n\\n    /**\\n     * @notice Increase account supply of specified token amount.\\n     * @param amount The amount of underlying tokens to use to mint.\\n     * @return mintAmount_ the amount minted of the specified token\\n     */\\n    function mint(uint256 amount)\\n        external\\n        virtual\\n        returns (uint256 mintAmount_);\\n\\n    /**\\n     * @notice Redeem supplied Teller token underlying value.\\n     * @param amount The amount of Teller tokens to redeem.\\n     */\\n    function redeem(uint256 amount) external virtual;\\n\\n    /**\\n     * @notice Redeem supplied underlying value.\\n     * @param amount The amount of underlying tokens to redeem.\\n     */\\n    function redeemUnderlying(uint256 amount) external virtual;\\n\\n    /**\\n     * @notice Rebalances the funds controlled by Teller Token according to the current strategy.\\n     *\\n     * See {TTokenStrategy}.\\n     */\\n    function rebalance() external virtual;\\n\\n    /**\\n     * @notice Sets a new strategy to use for balancing funds.\\n     * @param strategy Address to the new strategy contract. Must implement the {ITTokenStrategy} interface.\\n     * @param initData Optional data to initialize the strategy.\\n     *\\n     * Requirements:\\n     *  - Sender must have ADMIN role\\n     */\\n    function setStrategy(address strategy, bytes calldata initData)\\n        external\\n        virtual;\\n\\n    /**\\n     * @notice Gets the strategy used for balancing funds.\\n     * @return address of the strategy contract\\n     */\\n    function getStrategy() external view virtual returns (address);\\n\\n    /**\\n     * @notice Sets the restricted state of the platform.\\n     * @param state boolean value that resembles the platform's state\\n     */\\n    function restrict(bool state) external virtual;\\n\\n    /**\\n     * @notice it initializes the Teller Token\\n     * @param admin address of the admin to the respective Teller Token\\n     * @param underlying address of the ERC20 token\\n     */\\n    function initialize(address admin, address underlying) external virtual;\\n}\\n\",\"keccak256\":\"0xf30ac4ef491851477ff9a3dd04974ebe74b529c37a3ef4e05798c3f734ceeb3d\",\"license\":\"MIT\"},\"contracts/market/LoanDataFacet.sol\":{\"content\":\"// SPDX-License-Identifier: MIT\\npragma solidity ^0.8.0;\\n\\n// Libraries\\nimport { LibLoans } from \\\"./libraries/LibLoans.sol\\\";\\nimport { LibEscrow } from \\\"../escrow/libraries/LibEscrow.sol\\\";\\n\\nimport {\\n    EnumerableSet\\n} from \\\"@openzeppelin/contracts/utils/structs/EnumerableSet.sol\\\";\\n\\n// Storage\\nimport { Loan, LoanDebt, LoanTerms } from \\\"../storage/market.sol\\\";\\n\\ncontract LoanDataFacet {\\n    /**\\n     * @notice Returns the information about the given {loanID}.\\n     * @param loanID The loan ID to get information for.\\n     * @return loan_ The loan data.\\n     */\\n    function getLoan(uint256 loanID) external view returns (Loan memory loan_) {\\n        loan_ = LibLoans.s().loans[loanID];\\n    }\\n\\n    /**\\n     * @notice DEPRECATED\\n     * @notice Returns the terms for a specified loan.\\n     * @param loanID The loan ID to get the total amount owed.\\n     * @return LoanTerms The terms that the loan weer created with.\\n     */\\n    function getLoanTerms(uint256 loanID)\\n        external\\n        view\\n        returns (LoanTerms memory)\\n    {\\n        return LibLoans.terms(loanID);\\n    }\\n\\n    /**\\n     * @notice Returns the loan IDs created by the {borrower} account.\\n     * @param borrower The account to get loan IDs for.\\n     * @return loanIDs The IDs for loans created by the {borrower}\\n     */\\n    function getBorrowerLoans(address borrower)\\n        external\\n        view\\n        returns (uint128[] memory loanIDs)\\n    {\\n        return LibLoans.s().borrowerLoans[borrower];\\n    }\\n\\n    /**\\n     * @notice Returns the debt owed for a specified loan.\\n     * @param loanID The loan ID to get the total amount owed.\\n     * @return LoanDebt The principal and interest owed amount.\\n     */\\n    function getDebtOwed(uint256 loanID)\\n        external\\n        view\\n        returns (LoanDebt memory)\\n    {\\n        return LibLoans.debt(loanID);\\n    }\\n\\n    /**\\n     * @notice Returns the total amount owed for a specified loan.\\n     * @param loanID The loan ID to get the total amount owed.\\n     * @return uint256 The total owed amount.\\n     */\\n    function getTotalOwed(uint256 loanID) external view returns (uint256) {\\n        return LibLoans.getTotalOwed(loanID);\\n    }\\n\\n    /**\\n     * @notice Returns the amount of interest owed for a given loan and loan amount.\\n     * @param loanID The loan ID to get the owed interest.\\n     * @param amountBorrow The principal of the loan to take out.\\n     * @return uint256 The interest owed.\\n     */\\n    function getInterestOwedFor(uint256 loanID, uint256 amountBorrow)\\n        external\\n        view\\n        returns (uint256)\\n    {\\n        return LibLoans.getInterestOwedFor(loanID, amountBorrow);\\n    }\\n\\n    /**\\n     * @notice it returns the collateral needed for a loan\\n     * @param loanID the identifier of the loan ID to retrieve collateral from\\n     * @return neededInLendingTokens total collateral needed in lending tokens\\n     * @return neededInCollateralTokens total collateral needed in collateral tokens\\n     * @return escrowLoanValue total collateral needed in loan value\\n     */\\n    function getCollateralNeededInfo(uint256 loanID)\\n        external\\n        view\\n        returns (\\n            uint256 neededInLendingTokens,\\n            uint256 neededInCollateralTokens,\\n            uint256 escrowLoanValue\\n        )\\n    {\\n        return LibLoans.getCollateralNeededInfo(loanID);\\n    }\\n\\n    /**\\n     * @notice it returns the typed address of a loan escrow\\n     * @param loanID the identifier of the respective escrow's loan\\n     * @return escrow_ the typed address of the returned ILoanEscrow\\n     */\\n    function getLoanEscrow(uint256 loanID)\\n        external\\n        view\\n        returns (address escrow_)\\n    {\\n        escrow_ = address(LibLoans.s().loanEscrows[loanID]);\\n    }\\n\\n    /**\\n     * @notice it returns the escrow's total value by calculating the value all the escrow tokens\\n     * @param loanID the identifier of the respective escrow's loan\\n     * @return the total value of the loan escrow\\n     */\\n    function getLoanEscrowValue(uint256 loanID)\\n        external\\n        view\\n        returns (uint256)\\n    {\\n        return LibEscrow.calculateTotalValue(loanID);\\n    }\\n\\n    /**\\n     * @notice it returns the total escrow tokens held by an escrow\\n     * @param loanID the identifier of the respective escrow's loan\\n     * @return tokens_ the tokens held at the escrow loan \\n     */\\n    function getEscrowTokens(uint256 loanID)\\n        external\\n        view\\n        returns (address[] memory tokens_)\\n    {\\n        EnumerableSet.AddressSet storage escrowTokens =\\n            LibEscrow.getEscrowTokens(loanID);\\n        tokens_ = new address[](EnumerableSet.length(escrowTokens));\\n        for (uint256 i; i < tokens_.length; i++) {\\n            tokens_[i] = EnumerableSet.at(escrowTokens, i);\\n        }\\n    }\\n}\\n\",\"keccak256\":\"0x9a57f5de00ce073af4ffb2f74e7d8a15e56bc017826f2c5a393ef5b64554145f\",\"license\":\"MIT\"},\"contracts/market/RepayFacet.sol\":{\"content\":\"// SPDX-License-Identifier: MIT\\npragma solidity ^0.8.0;\\n\\n// Contracts\\nimport { RolesMods } from \\\"../contexts2/access-control/roles/RolesMods.sol\\\";\\nimport { PausableMods } from \\\"../settings/pausable/PausableMods.sol\\\";\\nimport {\\n    ReentryMods\\n} from \\\"../contexts2/access-control/reentry/ReentryMods.sol\\\";\\nimport { AUTHORIZED } from \\\"../shared/roles.sol\\\";\\nimport { LoanDataFacet } from \\\"./LoanDataFacet.sol\\\";\\n\\n// Libraries\\nimport {\\n    IERC20,\\n    SafeERC20\\n} from \\\"@openzeppelin/contracts/token/ERC20/utils/SafeERC20.sol\\\";\\nimport {\\n    EnumerableSet\\n} from \\\"@openzeppelin/contracts/utils/structs/EnumerableSet.sol\\\";\\nimport { LibLoans } from \\\"./libraries/LibLoans.sol\\\";\\nimport { LibCollateral } from \\\"./libraries/LibCollateral.sol\\\";\\nimport { LibDapps } from \\\"../escrow/dapps/libraries/LibDapps.sol\\\";\\nimport { LibEscrow } from \\\"../escrow/libraries/LibEscrow.sol\\\";\\nimport {\\n    PlatformSettingsLib\\n} from \\\"../settings/platform/libraries/PlatformSettingsLib.sol\\\";\\nimport { NumbersLib } from \\\"../shared/libraries/NumbersLib.sol\\\";\\nimport { PriceAggLib } from \\\"../price-aggregator/PriceAggLib.sol\\\";\\nimport { NFTLib } from \\\"../nft/libraries/NFTLib.sol\\\";\\n\\n// Interfaces\\nimport { ITToken } from \\\"../lending/ttoken/ITToken.sol\\\";\\nimport { ILoansEscrow } from \\\"../escrow/escrow/ILoansEscrow.sol\\\";\\n\\n// Storage\\nimport {\\n    MarketStorageLib,\\n    MarketStorage,\\n    Loan,\\n    LoanStatus\\n} from \\\"../storage/market.sol\\\";\\n\\ncontract RepayFacet is RolesMods, ReentryMods, PausableMods {\\n    /**\\n        @notice This event is emitted when a loan has been successfully repaid\\n        @param loanID ID of loan from which collateral was withdrawn\\n        @param borrower Account address of the borrower\\n        @param amountPaid Amount of the loan paid back\\n        @param payer Account address of the payer\\n        @param totalOwed Total amount of the loan to be repaid\\n     */\\n    event LoanRepaid(\\n        uint256 indexed loanID,\\n        address indexed borrower,\\n        uint256 amountPaid,\\n        address payer,\\n        uint256 totalOwed\\n    );\\n\\n    /**\\n     * @notice This event is emitted when a loan has been successfully liquidated\\n     * @param loanID ID of loan from which collateral was withdrawn\\n     * @param borrower Account address of the borrower\\n     * @param liquidator Account address of the liquidator\\n     * @param reward Value in lending token paid out to liquidator\\n     * @param tokensIn Percentage of the collateral price paid by the liquidator to the lending pool\\n     */\\n    event LoanLiquidated(\\n        uint256 indexed loanID,\\n        address indexed borrower,\\n        address liquidator,\\n        uint256 reward,\\n        uint256 tokensIn\\n    );\\n\\n    /**\\n     * @notice Repay this Escrow's loan.\\n     * @dev If the Escrow's balance of the borrowed token is less than the amount to repay, transfer tokens from the sender's wallet.\\n     * @dev Only the owner of the Escrow can call this. If someone else wants to make a payment, they should call the loan manager directly.\\n     * @param loanID The id of the loan being used.\\n     * @param amount The amount being repaid.\\n     */\\n    function escrowRepay(uint256 loanID, uint256 amount)\\n        external\\n        paused(\\\"\\\", false)\\n        authorized(AUTHORIZED, msg.sender)\\n        nonReentry(\\\"\\\")\\n    {\\n        uint256 balance =\\n            LibEscrow.balanceOf(loanID, LibLoans.loan(loanID).lendingToken);\\n        uint256 totalOwed = LibLoans.getTotalOwed(loanID);\\n        // if there isn't enough balance in the escrow, then transfer amount needed to the escrow\\n        if (balance < totalOwed && amount > balance) {\\n            uint256 amountNeeded =\\n                amount > totalOwed ? totalOwed - (balance) : amount - (balance);\\n\\n            SafeERC20.safeTransferFrom(\\n                IERC20(LibLoans.loan(loanID).lendingToken),\\n                msg.sender,\\n                address(LibEscrow.e(loanID)),\\n                amountNeeded\\n            );\\n        }\\n\\n        __repayLoan(loanID, amount, address(LibEscrow.e(loanID)), false);\\n    }\\n\\n    /**\\n     * @notice Make a payment to a loan\\n     * @param loanID The ID of the loan the payment is for\\n     * @param amount The amount of tokens to pay back to the loan\\n     */\\n    function repayLoan(uint256 loanID, uint256 amount)\\n        external\\n        nonReentry(\\\"\\\")\\n        paused(\\\"\\\", false)\\n        authorized(AUTHORIZED, msg.sender)\\n    {\\n        __repayLoan(loanID, amount, msg.sender, false);\\n    }\\n\\n    /**\\n     * @notice it repays the loan, either from an escrow or from a regular address\\n     * @param loanID the identifier of the loan to repay\\n     * @param amount the amount to repay the loan\\n     * @param sender the address of the sender that wants to pay, can also be a loan escrow\\n     * @param isLiquidation is this loan being liquidated?\\n     * @return leftToPay_ the amount left to pay for the loan\\n     */\\n    function __repayLoan(\\n        uint256 loanID,\\n        uint256 amount,\\n        address sender,\\n        bool isLiquidation\\n    ) private returns (uint256 leftToPay_) {\\n        require(amount > 0, \\\"Teller: zero repay\\\");\\n\\n        // calculate the actual amount to repay\\n        leftToPay_ =\\n            LibLoans.debt(loanID).principalOwed +\\n            LibLoans.debt(loanID).interestOwed;\\n        if (leftToPay_ < amount) {\\n            amount = leftToPay_;\\n            leftToPay_ = 0;\\n        } else {\\n            leftToPay_ -= amount;\\n        }\\n\\n        // Get the Teller token for the loan\\n        ITToken tToken =\\n            MarketStorageLib.store().tTokens[\\n                LibLoans.loan(loanID).lendingToken\\n            ];\\n        // Transfer funds from an escrow if an escrow is calling it\\n        // Otherwise, transfer funds from an account\\n        if (address(LibEscrow.e(loanID)) == sender) {\\n            LibEscrow.e(loanID).claimToken(\\n                LibLoans.loan(loanID).lendingToken,\\n                address(tToken),\\n                amount\\n            );\\n        } else {\\n            SafeERC20.safeTransferFrom(\\n                IERC20(LibLoans.loan(loanID).lendingToken),\\n                sender,\\n                address(tToken),\\n                amount\\n            );\\n        }\\n\\n        // Deduct the interest and principal owed\\n        uint256 principalPaid;\\n        uint256 interestPaid;\\n        if (amount < LibLoans.debt(loanID).interestOwed) {\\n            interestPaid = amount;\\n            LibLoans.debt(loanID).interestOwed -= amount;\\n        } else {\\n            if (LibLoans.debt(loanID).interestOwed > 0) {\\n                interestPaid = LibLoans.debt(loanID).interestOwed;\\n                amount -= interestPaid;\\n                LibLoans.debt(loanID).interestOwed = 0;\\n            }\\n\\n            if (amount > 0) {\\n                principalPaid = amount;\\n                LibLoans.debt(loanID).principalOwed -= amount;\\n            }\\n        }\\n\\n        // Tell the Teller Token value has been deposited back into the pool.\\n        tToken.repayLoan(principalPaid, interestPaid);\\n\\n        if (isLiquidation) {\\n            // Make sure there is nothing left to repay on the loan\\n            require(leftToPay_ == 0, \\\"Teller: liquidate partial repay\\\");\\n\\n            // Set loan status\\n            LibLoans.loan(loanID).status = LoanStatus.Liquidated;\\n\\n            // Transfer NFT if linked\\n            NFTLib.liquidateNFT(loanID);\\n        } else {\\n            // if the loan is now fully paid, close it and withdraw borrower collateral\\n            if (leftToPay_ == 0) {\\n                LibLoans.loan(loanID).status = LoanStatus.Closed;\\n                LibCollateral.withdrawAll(\\n                    loanID,\\n                    LibLoans.loan(loanID).borrower\\n                );\\n                // Restake any NFTs linked to loan for borrower\\n                NFTLib.restakeLinked(loanID, LibLoans.loan(loanID).borrower);\\n            }\\n\\n            emit LoanRepaid(\\n                loanID,\\n                LibLoans.loan(loanID).borrower,\\n                amount,\\n                msg.sender,\\n                leftToPay_\\n            );\\n        }\\n    }\\n\\n    /**\\n     * @notice Liquidate a loan if it is expired or under collateralized\\n     * @param loanID The ID of the loan to be liquidated\\n     */\\n    function liquidateLoan(uint256 loanID)\\n        external\\n        nonReentry(\\\"\\\")\\n        paused(\\\"\\\", false)\\n        authorized(AUTHORIZED, msg.sender)\\n    {\\n        Loan storage loan = LibLoans.loan(loanID);\\n        uint256 collateralAmount = LibCollateral.e(loanID).loanSupply(loanID);\\n        require(\\n            RepayLib.isLiquidable(loanID, collateralAmount),\\n            \\\"Teller: does not need liquidation\\\"\\n        );\\n\\n        // Calculate the reward before repaying the loan\\n        (uint256 rewardInLending, uint256 collateralInLending) =\\n            RepayLib.getLiquidationReward(loanID, collateralAmount);\\n\\n        // The liquidator pays the amount still owed on the loan\\n        uint256 amountToLiquidate =\\n            LibLoans.debt(loanID).principalOwed +\\n                LibLoans.debt(loanID).interestOwed;\\n\\n        __repayLoan(loanID, amountToLiquidate, msg.sender, true);\\n\\n        // Payout the liquidator reward owed\\n        if (rewardInLending > 0) {\\n            RepayLib.payOutLiquidator(\\n                loanID,\\n                rewardInLending,\\n                collateralInLending,\\n                collateralAmount,\\n                payable(msg.sender)\\n            );\\n        }\\n\\n        emit LoanLiquidated(\\n            loanID,\\n            loan.borrower,\\n            msg.sender,\\n            rewardInLending,\\n            amountToLiquidate\\n        );\\n    }\\n\\n    /**\\n     * @notice It gets the current liquidation reward for a given loan.\\n     * @param loanID The loan ID to get the info.\\n     * @return inLending_ The value the liquidator will receive denoted in lending tokens.\\n     * @return inCollateral_ The value the liquidator will receive denoted in collateral tokens.\\n     */\\n    function getLiquidationReward(uint256 loanID)\\n        external\\n        view\\n        returns (uint256 inLending_, uint256 inCollateral_)\\n    {\\n        (inLending_, ) = RepayLib.getLiquidationReward(\\n            loanID,\\n            LibCollateral.e(loanID).loanSupply(loanID)\\n        );\\n        inCollateral_ = PriceAggLib.valueFor(\\n            LibLoans.loan(loanID).lendingToken,\\n            LibLoans.loan(loanID).collateralToken,\\n            inLending_\\n        );\\n    }\\n}\\n\\nlibrary RepayLib {\\n    /**\\n     * @notice It checks if a loan can be liquidated.\\n     * @param loanID The loan ID to check.\\n     * @return true if the loan is liquidable.\\n     */\\n    function isLiquidable(uint256 loanID, uint256 collateralAmount)\\n        internal\\n        view\\n        returns (bool)\\n    {\\n        Loan storage loan = LibLoans.loan(loanID);\\n        // Check if loan can be liquidated\\n        if (loan.status != LoanStatus.Active) {\\n            return false;\\n        }\\n\\n        if (loan.collateralRatio > 0) {\\n            // If loan has a collateral ratio, check how much is needed\\n            (, uint256 neededInCollateral, ) =\\n                LoanDataFacet(address(this)).getCollateralNeededInfo(loanID);\\n            if (neededInCollateral > collateralAmount) {\\n                return true;\\n            }\\n        }\\n\\n        // Otherwise, check if the loan has expired\\n        return block.timestamp >= loan.loanStartTime + loan.duration;\\n    }\\n\\n    /**\\n     * @notice It gets the current liquidation reward for a given loan.\\n     * @param loanID The loan ID to get the info.\\n     * @param collateralAmount The amount of collateral for the {loanID}. Passed in to save gas calling the collateral escrow multiple times.\\n     * @return reward_ The value the liquidator will receive denoted in lending tokens.\\n     */\\n    function getLiquidationReward(uint256 loanID, uint256 collateralAmount)\\n        internal\\n        view\\n        returns (uint256 reward_, uint256 collateralValue_)\\n    {\\n        uint256 amountToLiquidate =\\n            LibLoans.debt(loanID).principalOwed +\\n                LibLoans.debt(loanID).interestOwed;\\n\\n        // Max reward is amount repaid on loan plus extra percentage\\n        uint256 maxReward =\\n            amountToLiquidate +\\n                NumbersLib.percent(\\n                    amountToLiquidate,\\n                    uint16(PlatformSettingsLib.getLiquidateRewardPercent())\\n                );\\n\\n        // Calculate available collateral for reward\\n        if (collateralAmount > 0) {\\n            collateralValue_ = PriceAggLib.valueFor(\\n                LibLoans.loan(loanID).collateralToken,\\n                LibLoans.loan(loanID).lendingToken,\\n                collateralAmount\\n            );\\n            reward_ += collateralValue_;\\n        }\\n\\n        // Calculate loan escrow value if collateral not enough to cover reward\\n        if (reward_ < maxReward) {\\n            reward_ += LibEscrow.calculateTotalValue(loanID);\\n        }\\n\\n        // Cap the reward to max\\n        if (reward_ > maxReward) {\\n            reward_ = maxReward;\\n        }\\n    }\\n\\n    /**\\n     * @notice Checks if the loan has an Escrow and claims any tokens then pays out the loan collateral.\\n     * @dev See Escrow.claimTokens for more info.\\n     * @param loanID The loan ID which is being liquidated\\n     * @param rewardInLending The total amount of reward based in the lending token to pay the liquidator\\n     * @param collateralInLending The amount of collateral that is available for the loan denoted in lending tokens\\n     * @param collateralAmount The amount of collateral that is available for the loan\\n     * @param liquidator The address of the liquidator where the liquidation reward will be sent to\\n     */\\n    function payOutLiquidator(\\n        uint256 loanID,\\n        uint256 rewardInLending,\\n        uint256 collateralInLending,\\n        uint256 collateralAmount,\\n        address payable liquidator\\n    ) internal {\\n        // check if loan is liquidated\\n        require(\\n            LibLoans.loan(loanID).status == LoanStatus.Liquidated,\\n            \\\"Teller: loan not liquidated\\\"\\n        );\\n\\n        // if the lending reward is less than the collateral lending tokens, then aggregate\\n        // the value for the lending token with the collateral token and send it to the liquidator\\n        if (rewardInLending <= collateralInLending) {\\n            uint256 rewardInCollateral =\\n                PriceAggLib.valueFor(\\n                    LibLoans.loan(loanID).lendingToken,\\n                    LibLoans.loan(loanID).collateralToken,\\n                    rewardInLending\\n                );\\n\\n            LibCollateral.withdraw(loanID, rewardInCollateral, liquidator);\\n        } else {\\n            // Payout whats available in the collateral token\\n            LibCollateral.withdraw(loanID, collateralAmount, liquidator);\\n\\n            // Claim remaining reward value from the loan escrow\\n            claimEscrowTokensByValue(\\n                loanID,\\n                liquidator,\\n                rewardInLending - collateralInLending\\n            );\\n        }\\n    }\\n\\n    /**\\n     * @dev Send the equivalent of tokens owned by the loan escrow (in lending value) to the recipient,\\n     * @param loanID The loan ID to clam tokens from\\n     * @param recipient address to send the tokens to\\n     * @param value The value of escrow held tokens to be claimed based in lending value\\n     */\\n    function claimEscrowTokensByValue(\\n        uint256 loanID,\\n        address recipient,\\n        uint256 value\\n    ) private {\\n        EnumerableSet.AddressSet storage tokens =\\n            MarketStorageLib.store().escrowTokens[loanID];\\n        uint256 valueLeftToTransfer = value;\\n\\n        // Start with the lending token\\n        valueLeftToTransfer = claimEscrowToken(\\n            loanID,\\n            LibLoans.loan(loanID).lendingToken,\\n            recipient,\\n            valueLeftToTransfer\\n        );\\n\\n        // Cycle through remaining tokens\\n        for (uint256 i = 0; i < EnumerableSet.length(tokens); i++) {\\n            if (valueLeftToTransfer == 0) {\\n                return;\\n            }\\n\\n            valueLeftToTransfer = claimEscrowToken(\\n                loanID,\\n                EnumerableSet.at(tokens, i),\\n                recipient,\\n                valueLeftToTransfer\\n            );\\n        }\\n    }\\n\\n    /**\\n     * @notice it claims the escrow tokens for the liquidator\\n     * @notice it keeps claiming escrow tokens until there aren't anymore tokens or the valueLeftToTransfer is zero\\n     * @param loanID the identifier of the escrow loan to claim tokens from\\n     * @param token the address of the token asset to claim\\n     * @param recipient the address of the recipient to transfer the tokens to\\n     * @param valueLeftToTransfer the value left to transfer to the liquidator that is returned back\\n     * @return the value left to transfer\\n     */\\n    function claimEscrowToken(\\n        uint256 loanID,\\n        address token,\\n        address recipient,\\n        uint256 valueLeftToTransfer\\n    ) private returns (uint256) {\\n        uint256 balance = LibEscrow.balanceOf(loanID, token);\\n        // get value of token balance in lending value\\n        if (balance > 0) {\\n            // If token not the lending token, get value of token\\n            uint256 balanceInLending;\\n            if (token == LibLoans.loan(loanID).lendingToken) {\\n                balanceInLending = balance;\\n            } else {\\n                balanceInLending = PriceAggLib.valueFor(\\n                    token,\\n                    LibLoans.loan(loanID).lendingToken,\\n                    balance\\n                );\\n            }\\n\\n            if (balanceInLending <= valueLeftToTransfer) {\\n                LibEscrow.e(loanID).claimToken(token, recipient, balance);\\n                valueLeftToTransfer -= balanceInLending;\\n            } else {\\n                // Token balance is more than enough so calculate ratio of balance to transfer\\n                uint256 valueToTransfer;\\n                if (token == LibLoans.loan(loanID).lendingToken) {\\n                    valueToTransfer = valueLeftToTransfer;\\n                } else {\\n                    valueToTransfer = NumbersLib.percent(\\n                        balance,\\n                        NumbersLib.ratioOf(\\n                            valueLeftToTransfer,\\n                            balanceInLending\\n                        )\\n                    );\\n                }\\n\\n                LibEscrow.e(loanID).claimToken(\\n                    token,\\n                    recipient,\\n                    valueToTransfer\\n                );\\n                valueLeftToTransfer = 0;\\n            }\\n        }\\n        return valueLeftToTransfer;\\n    }\\n}\\n\",\"keccak256\":\"0x4cc90a273ddbcfc983b98bd42c18990526a79488c972926952d38f26ff69cabb\",\"license\":\"MIT\"},\"contracts/market/collateral/ICollateralEscrow.sol\":{\"content\":\"// SPDX-License-Identifier: MIT\\npragma solidity ^0.8.0;\\n\\ninterface ICollateralEscrow {\\n    /**\\n     * @notice it initializes an escrow\\n     * @param tokenAddress the address of the collateral token to be stored\\n     * @param isWETH check if it's wrapped Ethereum\\n     */\\n    function init(address tokenAddress, bool isWETH) external;\\n\\n    /**\\n     * @notice it deposits an amount of the respective collateral token into the escrow\\n     * @param loanID the ID of the loan\\n     * @param amount the amount of collateral tokens to be deposited\\n     */\\n    function deposit(uint256 loanID, uint256 amount) external payable;\\n\\n    /**\\n     * @notice it withdraws an amount of tokens in a respective loanID on behalf of the borrower\\n     * @dev only the TellerDiamond can make this call on behalf of the borrower\\n     * @param loanID identifier of the loan\\n     * @param amount number of collateral tokens to send\\n     * @param receiver payable address to transfer money to\\n     */\\n    function withdraw(\\n        uint256 loanID,\\n        uint256 amount,\\n        address payable receiver\\n    ) external;\\n\\n    /**\\n     * @notice it returns the supply of the respective loan\\n     * @param loanID the respective loan ID\\n     * @return supply_ the amount in collateral of the respective loan\\n     */\\n    function loanSupply(uint256 loanID) external view returns (uint256 supply_);\\n\\n    /**\\n     * @notice it returns the total supply of the collateral token held by the contract\\n     * @return supply_ the total amount of collateral\\n     */\\n    function totalSupply() external view returns (uint256 supply_);\\n}\\n\",\"keccak256\":\"0x900fed2311f919ba1451a6583ddbf9f3bc8afa8f5189500fff51f0c049258ed3\",\"license\":\"MIT\"},\"contracts/market/libraries/LibCollateral.sol\":{\"content\":\"// SPDX-License-Identifier: MIT\\npragma solidity ^0.8.0;\\n\\n// Interfaces\\nimport { IERC20 } from \\\"@openzeppelin/contracts/token/ERC20/ERC20.sol\\\";\\nimport { ICollateralEscrow } from \\\"../collateral/ICollateralEscrow.sol\\\";\\n\\n// Storage\\nimport { AppStorageLib } from \\\"../../storage/app.sol\\\";\\nimport { MarketStorageLib } from \\\"../../storage/market.sol\\\";\\n\\nlibrary LibCollateral {\\n    /**\\n     * @notice This event is emitted when collateral has been deposited for the loan\\n     * @param loanID ID of the loan for which collateral was deposited\\n     * @param depositor Account that deposited funds\\n     * @param amount Amount of collateral deposited\\n     */\\n    event CollateralDeposited(\\n        uint256 indexed loanID,\\n        address indexed depositor,\\n        uint256 amount\\n    );\\n\\n    /**\\n     * @notice This event is emitted when collateral has been withdrawn\\n     * @param loanID ID of loan from which collateral was withdrawn\\n     * @param receiver Account that received funds\\n     * @param amount Value of collateral withdrawn\\n     */\\n    event CollateralWithdrawn(\\n        uint256 indexed loanID,\\n        address indexed receiver,\\n        uint256 amount\\n    );\\n\\n    /**\\n     * @notice it gets MarketStorage's collateral escrow using the loanID\\n     * @param loanID the loanID to be used\\n     * @return c_ which is the collateral escrow\\n     */\\n    function e(uint256 loanID) internal view returns (ICollateralEscrow c_) {\\n        c_ = MarketStorageLib.store().collateralEscrows[\\n            MarketStorageLib.store().loans[loanID].collateralToken\\n        ];\\n    }\\n\\n    function e(address token) internal view returns (ICollateralEscrow c_) {\\n        c_ = MarketStorageLib.store().collateralEscrows[token];\\n    }\\n\\n    /**\\n     * @notice it deposits an amount of collateral into a collateral escrow's address of a respective loan\\n     * @param loanID the respective loan ID\\n     * @param amount the amount of collateral to deposit\\n     */\\n    function deposit(uint256 loanID, uint256 amount) internal {\\n        e(loanID).deposit{ value: amount }(loanID, amount);\\n\\n        emit CollateralDeposited(loanID, msg.sender, amount);\\n    }\\n\\n    /**\\n     * @notice it withdraws an amount from the collateral escrow\\n     * @param loanID the respective loanID to withdraw from\\n     * @param amount the number of collateral tokens to withdraw\\n     * @param receiver the address who receives the withdrawal\\n     */\\n    function withdraw(\\n        uint256 loanID,\\n        uint256 amount,\\n        address payable receiver\\n    ) internal {\\n        e(loanID).withdraw(loanID, amount, receiver);\\n\\n        emit CollateralWithdrawn(loanID, receiver, amount);\\n    }\\n\\n    /**\\n     * @notice it withdraws the entire supply in collateral of a respective loan to an address\\n     * @param loanID the respective loan's ID\\n     * @param receiver the address of the receiver to withdraw tokens from\\n     */\\n    function withdrawAll(uint256 loanID, address payable receiver) internal {\\n        withdraw(loanID, e(loanID).loanSupply(loanID), receiver);\\n    }\\n\\n    /**\\n     * @notice it initializes a new escrow collateral to hold collateral tokens\\n     * @param token address of the collateral token it holds\\n     */\\n    function createEscrow(address token) internal {\\n        // Check if collateral escrow exists\\n        if (address(e(token)) == address(0)) {\\n            // Create escrow\\n            address escrow =\\n                AppStorageLib.store().collateralEscrowBeacon.cloneProxy(\\\"\\\");\\n            ICollateralEscrow(escrow).init(\\n                token,\\n                // Check if collateral token is WETH\\n                token == AppStorageLib.store().assetAddresses[\\\"WETH\\\"]\\n            );\\n\\n            // Set max allowance\\n            IERC20(token).approve(escrow, type(uint256).max);\\n            // Save escrow address for loan\\n            MarketStorageLib.store().collateralEscrows[\\n                token\\n            ] = ICollateralEscrow(escrow);\\n        }\\n    }\\n}\\n\",\"keccak256\":\"0x84dbab8283357a1cc4210e34642fc8247841a58973778f4f6570398cc3046947\",\"license\":\"MIT\"},\"contracts/market/libraries/LibLoans.sol\":{\"content\":\"// SPDX-License-Identifier: MIT\\npragma solidity ^0.8.0;\\n\\n// Libraries\\nimport { LibEscrow } from \\\"../../escrow/libraries/LibEscrow.sol\\\";\\nimport { NumbersLib } from \\\"../../shared/libraries/NumbersLib.sol\\\";\\nimport {\\n    PlatformSettingsLib\\n} from \\\"../../settings/platform/libraries/PlatformSettingsLib.sol\\\";\\nimport { PriceAggLib } from \\\"../../price-aggregator/PriceAggLib.sol\\\";\\n\\n// Storage\\nimport {\\n    MarketStorageLib,\\n    MarketStorage,\\n    Loan,\\n    LoanStatus,\\n    LoanDebt,\\n    LoanTerms\\n} from \\\"../../storage/market.sol\\\";\\n\\nlibrary LibLoans {\\n    using NumbersLib for int256;\\n    using NumbersLib for uint256;\\n\\n    bytes32 internal constant ID = keccak256(\\\"LOANS\\\");\\n    uint32 internal constant SECONDS_PER_YEAR = 31536000;\\n\\n    function s() internal pure returns (MarketStorage storage) {\\n        return MarketStorageLib.store();\\n    }\\n\\n    /**\\n     * @notice it returns the loan\\n     * @param loanID the ID of the respective loan\\n     * @return l_ the loan \\n     */\\n    function loan(uint256 loanID) internal view returns (Loan storage l_) {\\n        l_ = s().loans[loanID];\\n    }\\n\\n    /**\\n     * @notice it returns the loan debt from a respective loan\\n     * @param loanID the ID of the respective loan\\n     * @return d_ the loan debt from a respective loan\\n     */\\n    function debt(uint256 loanID) internal view returns (LoanDebt storage d_) {\\n        d_ = s().loanDebt[loanID];\\n    }\\n\\n    // DEPRECATED\\n    function terms(uint256 loanID)\\n        internal\\n        view\\n        returns (LoanTerms storage t_)\\n    {\\n        t_ = s()._loanTerms[loanID];\\n    }\\n\\n    /**\\n     * @notice Returns the total amount owed for a specified loan.\\n     * @param loanID The loan ID to get the total amount owed.\\n     * @return owed_ uint256 The total owed amount.\\n     */\\n    function getTotalOwed(uint256 loanID)\\n        internal\\n        view\\n        returns (uint256 owed_)\\n    {\\n        if (loan(loanID).status == LoanStatus.Active) {\\n            owed_ = debt(loanID).principalOwed + (debt(loanID).interestOwed);\\n        }\\n    }\\n\\n    /**\\n     * @notice Returns the amount of interest owed for a given loan and loan amount.\\n     * @param loanID The loan ID to get the owed interest.\\n     * @param amountBorrow The principal of the loan to take out.\\n     * @return uint256 The interest owed.\\n     */\\n    function getInterestOwedFor(uint256 loanID, uint256 amountBorrow)\\n        internal\\n        view\\n        returns (uint256)\\n    {\\n        return amountBorrow.percent(uint16(getInterestRatio(loanID)));\\n    }\\n    \\n    function getCollateralNeeded(uint256 loanID)\\n        internal\\n        view\\n        returns (uint256 _needed)\\n    {\\n        (, _needed, ) = getCollateralNeededInfo(loanID);\\n    }\\n\\n    /**\\n     * @notice it returns the total collateral needed in lending tokens, in collateral tokens and in escrowed loan values\\n     * @param loanID the loanID to get the total collateral needed\\n     * @return neededInLendingTokens total collateral needed in lending tokens\\n     * @return neededInCollateralTokens total collateral needed in collateral tokens\\n     * @return escrowLoanValue total collateral needed in loan value\\n     */\\n    function getCollateralNeededInfo(uint256 loanID)\\n        internal\\n        view\\n        returns (\\n            uint256 neededInLendingTokens,\\n            uint256 neededInCollateralTokens,\\n            uint256 escrowLoanValue\\n        )\\n    {\\n        (neededInLendingTokens, escrowLoanValue) = getCollateralNeededInTokens(\\n            loanID\\n        );\\n\\n        // check if needed lending tokens is zero. if true, then needed collateral tokens is zero. else,\\n        if (neededInLendingTokens == 0) {\\n            neededInCollateralTokens = 0;\\n        } else {\\n            neededInCollateralTokens = PriceAggLib.valueFor(\\n                loan(loanID).lendingToken,\\n                loan(loanID).collateralToken,\\n                neededInLendingTokens\\n            );\\n        }\\n    }\\n\\n    /**\\n     * @notice Returns the minimum collateral value threshold, in the lending token, needed to take out the loan or for it be liquidated.\\n     * @dev If the loan status is TermsSet, then the value is whats needed to take out the loan.\\n     * @dev If the loan status is Active, then the value is the threshold at which the loan can be liquidated at.\\n     * @param loanID The loan ID to get needed collateral info for.\\n     * @return neededInLendingTokens int256 The minimum collateral value threshold required.\\n     * @return escrowLoanValue uint256 The value of the loan held in the escrow contract.\\n     */\\n    function getCollateralNeededInTokens(uint256 loanID)\\n        internal\\n        view\\n        returns (uint256 neededInLendingTokens, uint256 escrowLoanValue)\\n    {\\n        if (loan(loanID).collateralRatio == 0) {\\n            return (0, 0);\\n        }\\n\\n        /*\\n            The collateral to principal owed ratio is the sum of:\\n                * collateral buffer percent\\n                * loan interest rate\\n                * liquidation reward percent\\n                * X factor of additional collateral\\n        */\\n        // * To take out a loan (if status == TermsSet), the required collateral is (max loan amount * the collateral ratio).\\n        // * For the loan to not be liquidated (when status == Active), the minimum collateral is (principal owed * (X collateral factor + liquidation reward)).\\n        // * If the loan has an escrow account, the minimum collateral is ((principal owed - escrow value) * (X collateral factor + liquidation reward)).\\n        if (loan(loanID).status == LoanStatus.TermsSet) {\\n            neededInLendingTokens = loan(loanID).borrowedAmount.percent(\\n                loan(loanID).collateralRatio\\n            );\\n        } else if (loan(loanID).status == LoanStatus.Active) {\\n            uint16 requiredRatio =\\n                loan(loanID).collateralRatio -\\n                    getInterestRatio(loanID) -\\n                    uint16(PlatformSettingsLib.getCollateralBufferValue());\\n\\n            neededInLendingTokens =\\n                debt(loanID).principalOwed +\\n                debt(loanID).interestOwed;\\n            escrowLoanValue = LibEscrow.calculateTotalValue(loanID);\\n            if (\\n                escrowLoanValue > 0 && neededInLendingTokens > escrowLoanValue\\n            ) {\\n                neededInLendingTokens -= escrowLoanValue;\\n            }\\n            neededInLendingTokens = neededInLendingTokens.percent(\\n                requiredRatio\\n            );\\n        }\\n    }\\n\\n    /**\\n     * @notice check if a loan can go to end of auction with a collateral ratio\\n     * @return bool checking if collateralRatio is >= the over collateralized buffer value\\n     */\\n    function canGoToEOAWithCollateralRatio(uint256 collateralRatio)\\n        internal\\n        view\\n        returns (bool)\\n    {\\n        return\\n            collateralRatio >=\\n            PlatformSettingsLib.getOverCollateralizedBufferValue();\\n    }\\n\\n    /**\\n     * @notice Returns the interest ratio based on the loan interest rate for the loan duration.\\n     * @notice There is a minimum threshold of 1%.\\n     * @dev The interest rate is APY (annual percentage yield).\\n     * @param loanID The loan ID to get the interest rate for.\\n     */\\n    function getInterestRatio(uint256 loanID)\\n        internal\\n        view\\n        returns (uint16 ratio_)\\n    {\\n        ratio_ = uint16(\\n            (uint64(loan(loanID).duration) * loan(loanID).interestRate) /\\n                SECONDS_PER_YEAR\\n        );\\n\\n        if (ratio_ == 0) {\\n            ratio_ = 1;\\n        }\\n    }\\n}\\n\",\"keccak256\":\"0xe48b287a583b40e534654e4023422f59a9e6d7dd265d68ae4af43f8da58c09d9\",\"license\":\"MIT\"},\"contracts/nft/ITellerNFT.sol\":{\"content\":\"// SPDX-License-Identifier: MIT\\npragma solidity ^0.8.0;\\npragma experimental ABIEncoderV2;\\n\\n// Interfaces\\nimport \\\"@openzeppelin/contracts/token/ERC721/extensions/IERC721Metadata.sol\\\";\\n\\ninterface ITellerNFT {\\n    struct Tier {\\n        uint256 baseLoanSize;\\n        string[] hashes;\\n        address contributionAsset;\\n        uint256 contributionSize;\\n        uint8 contributionMultiplier;\\n    }\\n\\n    /**\\n     * @notice The contract metadata URI.\\n     * @return the contractURI in string\\n     */\\n    function contractURI() external view returns (string memory);\\n\\n    /**\\n     * @notice It returns information about a Tier with from a tier index\\n     * @param index Tier index to get info.\\n     * @return tier_ the tier which belongs to the respective index\\n     */\\n    function getTier(uint256 index) external view returns (Tier memory tier_);\\n\\n    /**\\n     * @notice it returns the current token index to use as a counter\\n     * @return counter_ the current token index\\n     */\\n    function getCurrentTokenIndex() external view returns (uint256 counter_);\\n\\n    /**\\n     * @notice It returns information about a Tier for a token ID.\\n     * @param tokenId ID of the token to get Tier info.\\n     * @return index_ the index of the tier the tokenID belongs in\\n     * @return tier_ the tier where the tokenID belongs in\\n     */\\n    function getTokenTier(uint256 tokenId)\\n        external\\n        view\\n        returns (uint256 index_, Tier memory tier_);\\n\\n    /**\\n     * @notice It returns an array of hashes in a tier\\n     * @param tierIndex the tier index to get the tier hashes\\n     * @return hashes_ all the tokenID hashes\\n     */\\n    function getTierHashes(uint256 tierIndex)\\n        external\\n        view\\n        returns (string[] memory hashes_);\\n\\n    /**\\n     * @notice It returns an array of token IDs owned by an address.\\n     * @dev It uses a EnumerableSet to store values and loops over each element to add to the array.\\n     * @dev Can be costly if calling within a contract for address with many tokens.\\n     * @return owned the array of tokenIDs owned by the address\\n     */\\n    function getOwnedTokens(address owner)\\n        external\\n        view\\n        returns (uint256[] memory owned);\\n\\n    /**\\n     * @notice It mints a new token for a Tier index.\\n     * @param tierIndex the tier index to mint the token in\\n     * @param owner the owner of the new token\\n     * Requirements:\\n     *  - Caller must be an authorized minter\\n     */\\n    function mint(uint256 tierIndex, address owner) external;\\n\\n    /**\\n     * @notice Adds a new Tier to be minted with the given information.\\n     * @dev It auto increments the index of the next tier to add.\\n     * @param newTier Information about the new tier to add.\\n     *\\n     * Requirements:\\n     *  - Caller must have the {MINTER} role\\n     */\\n    function addTier(Tier memory newTier) external;\\n\\n    /**\\n     * @notice Sets the contract level metadata URI hash.\\n     * @param contractURIHash The hash to the initial contract level metadata.\\n     */\\n    function setContractURIHash(string memory contractURIHash) external;\\n\\n    /**\\n     * @notice Initializes the TellerNFT.\\n     * @param minters The addresses that should allowed to mint tokens.\\n     */\\n    function initialize(address[] calldata minters) external;\\n}\\n\",\"keccak256\":\"0x8a6979965f9d275eff9e034f207d605d7eb3506245de3604d2e02acc8196c2a6\",\"license\":\"MIT\"},\"contracts/nft/TellerNFT.sol\":{\"content\":\"// SPDX-License-Identifier: MIT\\npragma solidity ^0.8.0;\\npragma experimental ABIEncoderV2;\\n\\n// Contracts\\nimport \\\"@openzeppelin/contracts-upgradeable/token/ERC721/ERC721Upgradeable.sol\\\";\\nimport \\\"@openzeppelin/contracts-upgradeable/access/AccessControlUpgradeable.sol\\\";\\n\\n// Libraries\\nimport \\\"@openzeppelin/contracts/utils/Counters.sol\\\";\\nimport \\\"@openzeppelin/contracts/utils/structs/EnumerableSet.sol\\\";\\nimport \\\"@openzeppelin/contracts/utils/math/SafeMath.sol\\\";\\n\\n// Interfaces\\nimport \\\"./ITellerNFT.sol\\\";\\n\\n/*****************************************************************************************************/\\n/**                                             WARNING                                             **/\\n/**                                  THIS CONTRACT IS UPGRADEABLE!                                  **/\\n/**  ---------------------------------------------------------------------------------------------  **/\\n/**  Do NOT change the order of or PREPEND any storage variables to this or new versions of this    **/\\n/**  contract as this will cause the the storage slots to be overwritten on the proxy contract!!    **/\\n/**                                                                                                 **/\\n/**  Visit https://docs.openzeppelin.com/upgrades/2.6/proxies#upgrading-via-the-proxy-pattern for   **/\\n/**  more information.                                                                              **/\\n/*****************************************************************************************************/\\n/**\\n * @notice This contract is used by borrowers to call Dapp functions (using delegate calls).\\n * @notice This contract should only be constructed using it's upgradeable Proxy contract.\\n * @notice In order to call a Dapp function, the Dapp must be added in the DappRegistry instance.\\n *\\n * @author develop@teller.finance\\n */\\ncontract TellerNFT is ITellerNFT, ERC721Upgradeable, AccessControlUpgradeable {\\n    using Counters for Counters.Counter;\\n    using EnumerableSet for EnumerableSet.UintSet;\\n    using SafeMath for uint256;\\n\\n    /* Constants */\\n\\n    bytes32 public constant ADMIN = keccak256(\\\"ADMIN\\\");\\n    bytes32 public constant MINTER = keccak256(\\\"MINTER\\\");\\n\\n    /* State Variables */\\n\\n    // It holds the total number of tiers.\\n    Counters.Counter internal _tierCounter;\\n\\n    // It holds the total number of tokens minted.\\n    Counters.Counter internal _tokenCounter;\\n\\n    // It holds the information about a tier.\\n    mapping(uint256 => Tier) internal _tiers;\\n\\n    // It holds which tier a token ID is in.\\n    mapping(uint256 => uint256) internal _tokenTier;\\n\\n    // It holds a set of token IDs for an owner address.\\n    mapping(address => EnumerableSet.UintSet) internal _ownerTokenIDs;\\n\\n    // Link to the contract metadata\\n    string private _metadataBaseURI;\\n\\n    // Hash to the contract metadata located on the {_metadataBaseURI}\\n    string private _contractURIHash;\\n\\n    /* Modifiers */\\n\\n    modifier onlyAdmin() {\\n        require(hasRole(ADMIN, _msgSender()), \\\"TellerNFT: not admin\\\");\\n        _;\\n    }\\n\\n    modifier onlyMinter() {\\n        require(hasRole(MINTER, _msgSender()), \\\"TellerNFT: not minter\\\");\\n        _;\\n    }\\n\\n    /* External Functions */\\n\\n    /**\\n     * @notice It returns information about a Tier for a token ID.\\n     * @param index Tier index to get info.\\n     * @return tier_ the tier which belongs to the respective index\\n     */\\n    function getTier(uint256 index)\\n        external\\n        view\\n        override\\n        returns (Tier memory tier_)\\n    {\\n        tier_ = _tiers[index];\\n    }\\n\\n    /**\\n     * @notice it returns the current token index to use as a counter\\n     * @return counter_ the current token index\\n     */\\n    function getCurrentTokenIndex()\\n        external\\n        view\\n        override\\n        returns (uint256 counter_)\\n    {\\n        counter_ = _tokenCounter.current();\\n    }\\n\\n    /**\\n     * @notice It returns information about a Tier for a token ID.\\n     * @param tokenId ID of the token to get Tier info.\\n     * @return index_ the index of the tier the tokenID belongs in\\n     * @return tier_ the tier where the tokenID belongs in\\n     */\\n    function getTokenTier(uint256 tokenId)\\n        external\\n        view\\n        override\\n        returns (uint256 index_, Tier memory tier_)\\n    {\\n        index_ = _tokenTier[tokenId];\\n        tier_ = _tiers[index_];\\n    }\\n\\n    /**\\n     * @notice It returns an array of hashes in a tier\\n     * @param tierIndex the tier index to get the tier hashes\\n     * @return hashes_ all the tokenID hashes\\n     */\\n    function getTierHashes(uint256 tierIndex)\\n        external\\n        view\\n        override\\n        returns (string[] memory hashes_)\\n    {\\n        hashes_ = _tiers[tierIndex].hashes;\\n    }\\n\\n    /**\\n     * @notice It returns an array of token IDs owned by an address.\\n     * @dev It uses a EnumerableSet to store values and loops over each element to add to the array.\\n     * @dev Can be costly if calling within a contract for address with many tokens.\\n     * @return owned_ the array of tokenIDs owned by the address\\n     */\\n    function getOwnedTokens(address owner)\\n        external\\n        view\\n        override\\n        returns (uint256[] memory owned_)\\n    {\\n        EnumerableSet.UintSet storage set = _ownerTokenIDs[owner];\\n        owned_ = new uint256[](set.length());\\n        for (uint256 i; i < owned_.length; i++) {\\n            owned_[i] = set.at(i);\\n        }\\n    }\\n\\n    /**\\n     * @notice The contract metadata URI.\\n     * @return the contract URI hash\\n     */\\n    function contractURI() external view override returns (string memory) {\\n        return _contractURIHash;\\n    }\\n\\n    /**\\n     * @notice The token URI is based on the token ID.\\n     * @param tokenId the token identifier that returns the hash of the baseURI and the tokenURI hash\\n     * @return the tokenURI\\n     */\\n    function tokenURI(uint256 tokenId)\\n        public\\n        view\\n        override\\n        returns (string memory)\\n    {\\n        require(_exists(tokenId), \\\"TellerNFT: URI query for nonexistent token\\\");\\n\\n        string memory baseURI = _baseURI();\\n        return\\n            bytes(baseURI).length > 0\\n                ? string(abi.encodePacked(baseURI, _tokenURIHash(tokenId)))\\n                : \\\"\\\";\\n    }\\n\\n    /**\\n     * @notice It mints a new token for a Tier index.\\n     * @param tierIndex Tier to mint token on.\\n     * @param owner The owner of the new token.\\n     *\\n     * Requirements:\\n     *  - Caller must be an authorized minter\\n     */\\n    function mint(uint256 tierIndex, address owner)\\n        external\\n        override\\n        onlyMinter\\n    {\\n        // Get the new token ID\\n        uint256 tokenId = _tokenCounter.current();\\n        _tokenCounter.increment();\\n\\n        // Mint and set the token to the tier index\\n        _safeMint(owner, tokenId);\\n        _tokenTier[tokenId] = tierIndex;\\n\\n        // Set owner\\n        _setOwner(owner, tokenId);\\n    }\\n\\n    /**\\n     * @notice Adds a new Tier to be minted with the given information.\\n     * @dev It auto increments the index of the next tier to add.\\n     * @param newTier Information about the new tier to add.\\n     *\\n     * Requirements:\\n     *  - Caller must have the {MINTER} role\\n     */\\n    function addTier(Tier memory newTier) external override onlyMinter {\\n        Tier storage tier = _tiers[_tierCounter.current()];\\n\\n        tier.baseLoanSize = newTier.baseLoanSize;\\n        tier.hashes = newTier.hashes;\\n        tier.contributionAsset = newTier.contributionAsset;\\n        tier.contributionSize = newTier.contributionSize;\\n        tier.contributionMultiplier = newTier.contributionMultiplier;\\n\\n        _tierCounter.increment();\\n    }\\n\\n    /**\\n     * @notice it removes the minter by revoking the role of the address assigned to MINTER\\n     * @param minter the address of the minter\\n     */\\n    function removeMinter(address minter) external onlyMinter {\\n        revokeRole(MINTER, minter);\\n    }\\n\\n    /**\\n     * @notice it adds the minter to the rule\\n     * @param minter the address of the minter to add to the role of MINTER\\n     */\\n    function addMinter(address minter) public onlyMinter {\\n        _setupRole(MINTER, minter);\\n    }\\n\\n    /**\\n     * @notice Sets the contract level metadata URI hash.\\n     * @param contractURIHash The hash to the initial contract level metadata.\\n     */\\n    function setContractURIHash(string memory contractURIHash)\\n        external\\n        override\\n        onlyAdmin\\n    {\\n        _contractURIHash = contractURIHash;\\n    }\\n\\n    /**\\n     * @notice Initializes the TellerNFT.\\n     * @param minters The addresses that should allowed to mint tokens.\\n     */\\n    function initialize(address[] calldata minters)\\n        external\\n        override\\n        initializer\\n    {\\n        __ERC721_init(\\\"Teller NFT\\\", \\\"TNFT\\\");\\n        __AccessControl_init();\\n\\n        for (uint256 i; i < minters.length; i++) {\\n            _setupRole(MINTER, minters[i]);\\n        }\\n\\n        _metadataBaseURI = \\\"https://gateway.pinata.cloud/ipfs/\\\";\\n        _contractURIHash = \\\"QmWAfQFFwptzRUCdF2cBFJhcB2gfHJMd7TQt64dZUysk3R\\\";\\n    }\\n\\n    /**\\n     * @notice checks if an interface is supported by ITellerNFT, ERC721Upgradeable or AccessControlUpgradeable\\n     * @param interfaceId the identifier of the interface\\n     * @return bool stating whether or not our interface is supported\\n     */\\n    function supportsInterface(bytes4 interfaceId)\\n        public\\n        view\\n        override(AccessControlUpgradeable, ERC721Upgradeable)\\n        returns (bool)\\n    {\\n        return\\n            interfaceId == type(ITellerNFT).interfaceId ||\\n            ERC721Upgradeable.supportsInterface(interfaceId) ||\\n            AccessControlUpgradeable.supportsInterface(interfaceId);\\n    }\\n\\n    /**\\n     * @notice It returns the hash to use for the token URI.\\n     * @param tokenId the tokenId to get the tokenURI hash\\n     * @return the tokenURIHash of our NFT\\n     */\\n    function _tokenURIHash(uint256 tokenId)\\n        internal\\n        view\\n        returns (string memory)\\n    {\\n        string[] storage tierImageHashes = _tiers[_tokenTier[tokenId]].hashes;\\n        return tierImageHashes[tokenId.mod(tierImageHashes.length)];\\n    }\\n\\n    /**\\n     * @notice The base URI path where the token media is hosted.\\n     * @dev Base URI for computing {tokenURI}\\n     * @return our metadata URI\\n     */\\n    function _baseURI() internal view override returns (string memory) {\\n        return _metadataBaseURI;\\n    }\\n\\n    /**\\n     * @notice Moves token to new owner set and then transfers.\\n     * @param from address to transfer from\\n     * @param to address to transfer to\\n     * @param tokenId tokenID to transfer\\n     */\\n    function _transfer(\\n        address from,\\n        address to,\\n        uint256 tokenId\\n    ) internal override {\\n        _setOwner(to, tokenId);\\n        super._transfer(from, to, tokenId);\\n    }\\n\\n    /**\\n     * @notice It removes the token from the current owner set and adds to new owner.\\n     * @param newOwner the new owner of the tokenID\\n     * @param tokenId the ID of the NFT\\n     */\\n    function _setOwner(address newOwner, uint256 tokenId) internal {\\n        address currentOwner = ownerOf(tokenId);\\n        if (currentOwner != address(0)) {\\n            _ownerTokenIDs[currentOwner].remove(tokenId);\\n        }\\n        _ownerTokenIDs[newOwner].add(tokenId);\\n    }\\n\\n    function _msgData() internal pure override returns (bytes calldata) {\\n        return msg.data;\\n    }\\n}\\n\",\"keccak256\":\"0xf42808068c07aa015fcf4a2922fb91cfb456a2f6c8fcfa6daa08b2dfbedf8817\",\"license\":\"MIT\"},\"contracts/nft/libraries/NFTLib.sol\":{\"content\":\"// SPDX-License-Identifier: MIT\\npragma solidity ^0.8.0;\\n\\n// Contracts\\nimport { TellerNFT } from \\\"../TellerNFT.sol\\\";\\n\\n// Libraries\\nimport {\\n    MerkleProof\\n} from \\\"@openzeppelin/contracts/utils/cryptography/MerkleProof.sol\\\";\\nimport {\\n    EnumerableSet\\n} from \\\"@openzeppelin/contracts/utils/structs/EnumerableSet.sol\\\";\\n\\n// Storage\\nimport { AppStorageLib, AppStorage } from \\\"../../storage/app.sol\\\";\\nimport { NFTStorageLib, NFTStorage } from \\\"../../storage/nft.sol\\\";\\n\\nstruct NftLoanSizeProof {\\n    uint256 id;\\n    uint256 baseLoanSize;\\n    bytes32[] proof;\\n}\\n\\nlibrary NFTLib {\\n    function s() internal pure returns (NFTStorage storage s_) {\\n        s_ = NFTStorageLib.store();\\n    }\\n\\n    function nft() internal view returns (TellerNFT nft_) {\\n        nft_ = AppStorageLib.store().nft;\\n    }\\n\\n    /**s\\n     * @notice it transfers the NFT from the sender to the diamond to stake then adds the NFTID to the list of the owner's stakedNFTs\\n     * @param nftID the ID of the NFT to stake\\n     * @param owner the owner of the NFT who will stake the NFT\\n     */\\n    function stake(uint256 nftID, address owner) internal {\\n        // Transfer to diamond\\n        NFTLib.nft().transferFrom(msg.sender, address(this), nftID);\\n        // Add NFT ID to user set\\n        EnumerableSet.add(s().stakedNFTs[owner], nftID);\\n    }\\n\\n    /**\\n     * @notice it unstakes the NFT by removing the NFT ID from the list of the user's staked NFTs\\n     * @param nftID the ID of the NFT to remove from the list of the user's staked NFTs\\n     * @return success_ the boolean value telling us if the user has unsuccessfully unstaked the NFT\\n     */\\n    function unstake(uint256 nftID) internal returns (bool success_) {\\n        success_ = EnumerableSet.remove(s().stakedNFTs[msg.sender], nftID);\\n    }\\n\\n    /**\\n     * @notice it gets the list of staked NFTs from the owner\\n     * @param nftOwner the owner of the staked NFTs to pull from\\n     * @return staked_ the array of the staked NFTs owned by the user\\n     */\\n    function stakedNFTs(address nftOwner)\\n        internal\\n        view\\n        returns (uint256[] memory staked_)\\n    {\\n        EnumerableSet.UintSet storage nfts = s().stakedNFTs[nftOwner];\\n        staked_ = new uint256[](EnumerableSet.length(nfts));\\n        for (uint256 i; i < staked_.length; i++) {\\n            staked_[i] = EnumerableSet.at(nfts, i);\\n        }\\n    }\\n\\n    /**\\n     * @notice if the user fails to pay his loan, then we liquidate the all the NFTs associated with the loan\\n     * @param loanID the identifier of the loan to liquidate the NFTs from\\n     */\\n    function liquidateNFT(uint256 loanID) internal {\\n        // Check if NFTs are linked\\n        EnumerableSet.UintSet storage nfts = s().loanNFTs[loanID];\\n        for (uint256 i; i < EnumerableSet.length(nfts); i++) {\\n            NFTLib.nft().transferFrom(\\n                address(this),\\n                AppStorageLib.store().nftLiquidationController,\\n                EnumerableSet.at(nfts, i)\\n            );\\n        }\\n    }\\n\\n    /**\\n     * @notice it unstakes an NFT and verifies the proof in order to apply the proof to a loan\\n     * @param loanID the identifier of the loan\\n     * @param proof the proof to be attached to a loan after verifying the loan size\\n     */\\n    function applyToLoan(uint256 loanID, NftLoanSizeProof calldata proof)\\n        internal\\n    {\\n        // NFT must be currently staked\\n        // Remove NFT from being staked - returns bool\\n        require(unstake(proof.id), \\\"Teller: borrower nft not staked\\\");\\n\\n        require(verifyLoanSize(proof), \\\"Teller invalid nft proof\\\");\\n\\n        // Apply NFT to loan\\n        EnumerableSet.add(s().loanNFTs[loanID], proof.id);\\n    }\\n\\n    /**\\n     * @notice it finds the loan's NFTs and adds them back to the owner's list of staked NFTs\\n     * @param loanID the identifier of the respective loan to add the NFTs back to the user's staked NFTs\\n     * @param owner the owner to add the unstaked NFTs back to the staked pile\\n     */\\n    function restakeLinked(uint256 loanID, address owner) internal {\\n        // Get linked NFT\\n        EnumerableSet.UintSet storage nfts = s().loanNFTs[loanID];\\n        for (uint256 i; i < EnumerableSet.length(nfts); i++) {\\n            // Restake the NFT\\n            EnumerableSet.add(s().stakedNFTs[owner], EnumerableSet.at(nfts, i));\\n        }\\n    }\\n\\n    /**\\n     * @notice it verifies the NFT id to base loan size using the merkle proof\\n     * @param proof the NFTLoanSizeProof to verify with the nft;s merkle root\\n     * @return verified_ tells us if the loan is verified or not\\n     */\\n    function verifyLoanSize(NftLoanSizeProof calldata proof)\\n        internal\\n        view\\n        returns (bool verified_)\\n    {\\n        verified_ = MerkleProof.verify(\\n            proof.proof,\\n            s().nftMerkleRoot,\\n            keccak256(abi.encodePacked(proof.id, proof.baseLoanSize))\\n        );\\n    }\\n}\\n\",\"keccak256\":\"0x05effea10b3d191192b3b8f5515c2b083d2a8a80c1fae19c6a1abce53d8635fa\",\"license\":\"MIT\"},\"contracts/price-aggregator/PriceAggFacet.sol\":{\"content\":\"// SPDX-License-Identifier: MIT\\npragma solidity ^0.8.0;\\n\\n// Libraries\\nimport { SafeCast } from \\\"@openzeppelin/contracts/utils/math/SafeCast.sol\\\";\\nimport { ChainlinkLib } from \\\"./chainlink/ChainlinkLib.sol\\\";\\nimport { CompoundLib } from \\\"../shared/libraries/CompoundLib.sol\\\";\\n\\n// Interfaces\\nimport {\\n    AggregatorV2V3Interface\\n} from \\\"@chainlink/contracts/src/v0.8/interfaces/AggregatorV2V3Interface.sol\\\";\\nimport { ERC20 } from \\\"@openzeppelin/contracts/token/ERC20/ERC20.sol\\\";\\n\\n// Storage\\nimport { AppStorageLib } from \\\"../storage/app.sol\\\";\\n\\ncontract PriceAggFacet {\\n    uint256 internal constant TEN = 10;\\n\\n    /**\\n     * @notice It returns the price of the token pair as given from the Chainlink Aggregator.\\n     * @dev It tries to use ETH as a pass through asset if the direct pair is not supported.\\n     * @param src Source token address.\\n     * @param dst Destination token address.\\n     * @return int256 The latest answer as given from Chainlink.\\n     */\\n    function getPriceFor(address src, address dst)\\n        external\\n        view\\n        returns (int256)\\n    {\\n        return _priceFor(src, dst);\\n    }\\n\\n    /**\\n     * @notice It calculates the value of a token amount into another.\\n     * @param src Source token address.\\n     * @param dst Destination token address.\\n     * @param srcAmount Amount of the source token to convert into the destination token.\\n     * @return uint256 Value of the source token amount in destination tokens.\\n     */\\n    function getValueFor(\\n        address src,\\n        address dst,\\n        uint256 srcAmount\\n    ) external view returns (uint256) {\\n        return _valueFor(src, srcAmount, uint256(_priceFor(src, dst)));\\n    }\\n\\n    function _valueFor(\\n        address src,\\n        uint256 amount,\\n        uint256 exchangeRate\\n    ) internal view returns (uint256) {\\n        return (amount * exchangeRate) / _oneToken(src);\\n    }\\n\\n    /**\\n     * @notice it returns 10^{numberOfDecimals} for a token\\n     * @param token the address to calculate the decimals for\\n     * @return 10^number of decimals used to calculate the price and value of different token pairs\\n     */\\n    function _oneToken(address token) internal view returns (uint256) {\\n        return TEN**_decimalsFor(token);\\n    }\\n\\n    /**\\n     * @notice It gets the number of decimals for a given token.\\n     * @param addr Token address to get decimals for.\\n     * @return uint8 Number of decimals the given token.\\n     */\\n    function _decimalsFor(address addr) internal view returns (uint8) {\\n        return ERC20(addr).decimals();\\n    }\\n\\n    /**\\n     * @notice it tries to calculate a price from Compound and Chainlink.\\n     * @dev if no price is found on compound, then calculate it on chainlink\\n     * @param src the token address to calculate the price for in dst\\n     * @param dst the token address to retrieve the price of src\\n     * @return price_ the price of src in dst\\n     */\\n    function _priceFor(address src, address dst)\\n        private\\n        view\\n        returns (int256 price_)\\n    {\\n        // If no Compound route, try Chainlink directly.\\n        price_ = int256(_compoundPriceFor(src, dst));\\n        if (price_ == 0) {\\n            price_ = _chainlinkPriceFor(src, dst);\\n            if (price_ == 0) {\\n                revert(\\\"Teller: cannot calc price\\\");\\n            }\\n        }\\n    }\\n\\n    /**\\n     * @notice Tries to get a price from {src} to {dst} by checking if either tokens are from Compound.\\n     * @param src the address of the src token\\n     * @param dst the address of the dst token\\n     * @return the price of the src token in dst token\\n\\n     */\\n    function _compoundPriceFor(address src, address dst)\\n        private\\n        view\\n        returns (uint256)\\n    {\\n        (bool isSrcCompound, address srcUnderlying) = _isCToken(src);\\n        if (isSrcCompound) {\\n            uint256 cRate = CompoundLib.valueInUnderlying(src, _oneToken(src));\\n            if (srcUnderlying == dst) {\\n                return cRate;\\n            } else {\\n                return _calcPriceFromCompoundRate(srcUnderlying, dst, cRate);\\n            }\\n        } else {\\n            (bool isDstCompound, address dstUnderlying) = _isCToken(dst);\\n            if (isDstCompound) {\\n                uint256 cRate =\\n                    CompoundLib.valueOfUnderlying(dst, _oneToken(src));\\n                if (dstUnderlying == src) {\\n                    return cRate;\\n                } else {\\n                    return\\n                        _calcPriceFromCompoundRate(src, dstUnderlying, cRate);\\n                }\\n            }\\n        }\\n\\n        return 0;\\n    }\\n\\n    /**\\n     * @notice Tries to get a price from {src} to {dst} and then converts using a rate from Compound.\\n     * @param src the source token to calculate price for with chainlink\\n     * @param dst the destination token to calculate price for with chainlink\\n     * @param cRate the compound rate to multiply with the price of the dst token\\n     * @return the price of src in dst after scaling the difference in decimal values\\n     */\\n    function _calcPriceFromCompoundRate(\\n        address src,\\n        address dst,\\n        uint256 cRate\\n    ) private view returns (uint256) {\\n        uint256 rate = uint256(_chainlinkPriceFor(src, dst));\\n        uint256 value = (cRate * _oneToken(dst)) / rate;\\n        return _scale(value, _decimalsFor(src), _decimalsFor(dst));\\n    }\\n\\n    /**\\n     * @notice Scales the {value} by the difference in decimal values.\\n     * @param value the the value of the src in dst\\n     * @param srcDecimals src token decimals\\n     * @param dstDecimals dst token decimals\\n     * @return the price of src in dst after scaling the difference in decimal values\\n     */\\n    function _scale(\\n        uint256 value,\\n        uint256 srcDecimals,\\n        uint256 dstDecimals\\n    ) internal pure returns (uint256) {\\n        if (dstDecimals > srcDecimals) {\\n            return value * (TEN**(dstDecimals - srcDecimals));\\n        } else {\\n            return value / (TEN**(srcDecimals - dstDecimals));\\n        }\\n    }\\n\\n    /**\\n     * @notice it tries to calculate the price of {src} in {dst}\\n     * @param src address of source token\\n     * @param dst address of destination token\\n     * @return the price of src token in dst\\n     */\\n    function _chainlinkPriceFor(address src, address dst)\\n        private\\n        view\\n        returns (int256)\\n    {\\n        (address agg, bool foundAgg, bool inverse) =\\n            ChainlinkLib.aggregatorFor(src, dst);\\n        if (foundAgg) {\\n            uint256 price =\\n                SafeCast.toUint256(AggregatorV2V3Interface(agg).latestAnswer());\\n            uint8 resDecimals = AggregatorV2V3Interface(agg).decimals();\\n            if (inverse) {\\n                price = (TEN**(resDecimals + resDecimals)) / price;\\n            }\\n            return\\n                SafeCast.toInt256(\\n                    (_scale(price, resDecimals, _decimalsFor(dst)))\\n                );\\n        } else {\\n            address WETH = AppStorageLib.store().assetAddresses[\\\"WETH\\\"];\\n            if (dst != WETH) {\\n                int256 price1 = _priceFor(src, WETH);\\n                if (price1 > 0) {\\n                    int256 price2 = _priceFor(dst, WETH);\\n                    if (price2 > 0) {\\n                        uint256 dstFactor = TEN**_decimalsFor(dst);\\n                        return (price1 * int256(dstFactor)) / price2;\\n                    }\\n                }\\n            }\\n        }\\n\\n        return 0;\\n    }\\n\\n    /**\\n     * @notice it checks if a token is a cToken. If it is, then get the underlying address\\n     * @param token address of the token\\n     * @return isCToken boolean whether it's a cToken\\n     * @return underlying the address of the cToken\\n     */\\n    function _isCToken(address token)\\n        private\\n        view\\n        returns (bool isCToken, address underlying)\\n    {\\n        isCToken = CompoundLib.isCompoundToken(token);\\n        if (isCToken) {\\n            underlying = CompoundLib.getUnderlying(token);\\n        }\\n    }\\n}\\n\",\"keccak256\":\"0x2efb3d71a1c0fb49f8c455c4fa30d04c69a1617d619035fc400dabdeb2ab0c9e\",\"license\":\"MIT\"},\"contracts/price-aggregator/PriceAggLib.sol\":{\"content\":\"// SPDX-License-Identifier: MIT\\npragma solidity ^0.8.0;\\n\\nimport { PriceAggFacet } from \\\"./PriceAggFacet.sol\\\";\\n\\n// Storage\\nimport { AppStorageLib } from \\\"../storage/app.sol\\\";\\n\\n/**\\n * @notice Helper functions to staticcall into the PriceAggFacet from other facets. See {PriceAggFacet.getPriceFor}\\n */\\nlibrary PriceAggLib {\\n    /**\\n     * @notice It calculates the value of one token amount into another\\n     * @param src the source token\\n     * @param dst the destination token\\n     * @param srcAmount the amount of source token\\n     * @return value_ the returned value of src in dst\\n     */\\n    function valueFor(\\n        address src,\\n        address dst,\\n        uint256 srcAmount\\n    ) internal view returns (uint256 value_) {\\n        value_ = PriceAggFacet(address(this)).getValueFor(src, dst, srcAmount);\\n    }\\n\\n    /**\\n     * @notice It returns the price of the token pair as given from Compound.\\n     * @dev if no compound price is calculated, then it checks Chainlink price Aggregator\\n     * @param src the address of the source token\\n     * @param dst the address of the desitnation token\\n     * @return price_ gets the price of src in dst\\n     */\\n    function priceFor(address src, address dst)\\n        internal\\n        view\\n        returns (int256 price_)\\n    {\\n        price_ = PriceAggFacet(address(this)).getPriceFor(src, dst);\\n    }\\n}\\n\",\"keccak256\":\"0xff59eee567fa4a7f5cac432e31d918be92834f04614f49572d3984a5b030ac79\",\"license\":\"MIT\"},\"contracts/price-aggregator/chainlink/ChainlinkLib.sol\":{\"content\":\"// SPDX-License-Identifier: MIT\\npragma solidity ^0.8.0;\\n\\n// Libraries\\nimport {\\n    EnumerableSet\\n} from \\\"@openzeppelin/contracts/utils/structs/EnumerableSet.sol\\\";\\n\\n// Storage\\nimport {\\n    PriceAggStorageLib,\\n    ChainlinkAggStorage\\n} from \\\"../../storage/price-aggregator.sol\\\";\\n\\nlibrary ChainlinkLib {\\n    function s() internal view returns (ChainlinkAggStorage storage) {\\n        return PriceAggStorageLib.store().chainlink;\\n    }\\n\\n    /**\\n     * @notice It grabs the Chainlink Aggregator contract address for the token pair if it is supported.\\n     * @param src Source token address.\\n     * @param dst Destination token address.\\n     * @return aggregator The Chainlink Aggregator address.\\n     * @return found whether or not the ChainlinkAggregator exists.\\n     * @return inverse whether or not the values from the Aggregator should be considered inverted.\\n     */\\n    function aggregatorFor(address src, address dst)\\n        internal\\n        view\\n        returns (\\n            address aggregator,\\n            bool found,\\n            bool inverse\\n        )\\n    {\\n        aggregator = s().aggregators[src][dst];\\n        if (aggregator != address(0)) {\\n            found = true;\\n        } else {\\n            aggregator = s().aggregators[dst][src];\\n            if (aggregator != address(0)) {\\n                found = true;\\n                inverse = true;\\n            }\\n        }\\n    }\\n\\n    /**\\n     * @dev Checks if a token address is supported by Chainlink (has a pair aggregator).\\n     * @param token Token address to check if is supported.\\n     * @return isSupported_ true if there is at least 1 pair aggregator for {token}\\n     */\\n    function isTokenSupported(address token)\\n        internal\\n        view\\n        returns (bool isSupported_)\\n    {\\n        isSupported_ = EnumerableSet.contains(s().supportedTokens, token);\\n    }\\n}\\n\",\"keccak256\":\"0x84fcff4e22dcf0a954794b08f4a5e66cb0b9522a74cccb7d80c07e7032440f42\",\"license\":\"MIT\"},\"contracts/settings/pausable/PausableMods.sol\":{\"content\":\"// SPDX-License-Identifier: MIT\\npragma solidity ^0.8.0;\\n\\nimport { AppStorageLib } from \\\"../../storage/app.sol\\\";\\n\\nabstract contract PausableMods {\\n    /**\\n     * @notice Requires that the state of the protocol AND the given facet id equal {state}.\\n     * @param id id of the facet to check if is paused.\\n     * @param state Boolean that the protocol AND facet should be in.\\n     */\\n    modifier paused(bytes32 id, bool state) {\\n        require(\\n            __isPaused(\\\"\\\") == state && __isPaused(id) == state,\\n            __pausedMessage(state)\\n        );\\n        _;\\n    }\\n\\n    /**\\n     * @dev Checks if the given id is paused.\\n     * @param id Encoded id of the facet to check if is paused.\\n     * @return the bool to tell us if the facet is paused (true) or not (false)\\n     */\\n    function __isPaused(bytes32 id) private view returns (bool) {\\n        return AppStorageLib.store().paused[id];\\n    }\\n\\n    /**\\n     * @dev Gets the message that should be reverted with given a state it should be in.\\n     * @param state Boolean that an id should be in.\\n     * @return a message stating whether the facet is paused or not\\n     */\\n    function __pausedMessage(bool state) private pure returns (string memory) {\\n        return state ? \\\"Pausable: not paused\\\" : \\\"Pausable: paused\\\";\\n    }\\n}\\n\",\"keccak256\":\"0x2d3f848ee56ae5fa365539c2509c03c167affc89c89f98bb98cb9b83fbe8ae4c\",\"license\":\"MIT\"},\"contracts/settings/platform/libraries/PlatformSettingsLib.sol\":{\"content\":\"// SPDX-License-Identifier: MIT\\npragma solidity ^0.8.0;\\n\\nimport { AppStorageLib } from \\\"../../../storage/app.sol\\\";\\nimport \\\"../names.sol\\\" as NAMES;\\nimport {\\n    RolesMods\\n} from \\\"../../../contexts2/access-control/roles/RolesMods.sol\\\";\\nimport { ADMIN, AUTHORIZED } from \\\"../../../shared/roles.sol\\\";\\nimport { RolesLib } from \\\"../../../contexts2/access-control/roles/RolesLib.sol\\\";\\n\\n// It defines a platform settings. It includes: value, min, and max values.\\nstruct PlatformSetting {\\n    uint256 value;\\n    uint256 min;\\n    uint256 max;\\n    bool exists;\\n}\\n\\n/**\\n * @notice Utility library of inline functions on the PlatformSetting struct.\\n *\\n * @author develop@teller.finance\\n */\\nlibrary PlatformSettingsLib {\\n    function s(bytes32 name) internal view returns (PlatformSetting storage) {\\n        return AppStorageLib.store().platformSettings[name];\\n    }\\n\\n    /**\\n     * @notice It gets the current \\\"RequiredSubmissionsPercentage\\\" setting's value\\n     * @return value_ the current value.\\n     */\\n    function getRequiredSubmissionsPercentageValue()\\n        internal\\n        view\\n        returns (uint256 value_)\\n    {\\n        value_ = s(NAMES.REQUIRED_SUBMISSIONS_PERCENTAGE).value;\\n    }\\n\\n    /**\\n     * @notice It gets the current \\\"MaximumTolerance\\\" setting's value\\n     * @return value_ the current value.\\n     */\\n    function getMaximumToleranceValue() internal view returns (uint256 value_) {\\n        value_ = s(NAMES.MAXIMUM_TOLERANCE).value;\\n    }\\n\\n    /**\\n     * @notice It gets the current \\\"ResponseExpiryLength\\\" setting's value\\n     * @return value_ the current value.\\n     */\\n    function getResponseExpiryLengthValue()\\n        internal\\n        view\\n        returns (uint256 value_)\\n    {\\n        value_ = s(NAMES.RESPONSE_EXPIRY_LENGTH).value;\\n    }\\n\\n    /**\\n     * @notice It gets the current \\\"SafetyInterval\\\" setting's value\\n     * @return value_ the current value.\\n     */\\n    function getSafetyIntervalValue() internal view returns (uint256 value_) {\\n        value_ = s(NAMES.SAFETY_INTERVAL).value;\\n    }\\n\\n    /**\\n     * @notice It gets the current \\\"TermsExpiryTime\\\" setting's value\\n     * @return value_ the current value.\\n     */\\n    function getTermsExpiryTimeValue() internal view returns (uint256 value_) {\\n        value_ = s(NAMES.TERMS_EXPIRY_TIME).value;\\n    }\\n\\n    /**\\n     * @notice It gets the current \\\"LiquidateRewardPercent\\\" setting's value\\n     * @return value_ the current value.\\n     */\\n    function getLiquidateRewardPercent()\\n        internal\\n        view\\n        returns (uint256 value_)\\n    {\\n        value_ = s(NAMES.LIQUIDATE_REWARD_PERCENT).value;\\n    }\\n\\n    /**\\n     * @notice It gets the current \\\"MaximumLoanDuration\\\" setting's value\\n     * @return value_ the current value.\\n     */\\n    function getMaximumLoanDurationValue()\\n        internal\\n        view\\n        returns (uint256 value_)\\n    {\\n        value_ = s(NAMES.MAXIMUM_LOAN_DURATION).value;\\n    }\\n\\n    /**\\n     * @notice It gets the current \\\"RequestLoanTermsRateLimit\\\" setting's value\\n     * @return value_ the current value.\\n     */\\n    function getRequestLoanTermsRateLimitValue()\\n        internal\\n        view\\n        returns (uint256 value_)\\n    {\\n        value_ = s(NAMES.REQUEST_LOAN_TERMS_RATE_LIMIT).value;\\n    }\\n\\n    /**\\n     * @notice It gets the current \\\"CollateralBuffer\\\" setting's value\\n     * @return value_ the current value.\\n     */\\n    function getCollateralBufferValue() internal view returns (uint256 value_) {\\n        value_ = s(NAMES.COLLATERAL_BUFFER).value;\\n    }\\n\\n    /**\\n     * @notice It gets the current \\\"OverCollateralizedBuffer\\\" setting's value\\n     * @return value_ the current value.\\n     */\\n    function getOverCollateralizedBufferValue()\\n        internal\\n        view\\n        returns (uint256 value_)\\n    {\\n        value_ = s(NAMES.OVER_COLLATERALIZED_BUFFER).value;\\n    }\\n}\\n\",\"keccak256\":\"0xbeef1937dc1ed1f6f78b80f0737f018565ab264184cf05ef54c3c28ecd55a09b\",\"license\":\"MIT\"},\"contracts/settings/platform/names.sol\":{\"content\":\"// SPDX-License-Identifier: MIT\\npragma solidity ^0.8.0;\\n\\n/**\\n        @dev The setting name for the required subsmission settings.\\n        @dev This is the minimum percentage of node responses that will be required by the platform to either take out a loan, and to claim accrued interest. If the number of node responses are less than the ones specified here, the loan or accrued interest claim request will be rejected by the platform\\n     */\\nbytes32 constant REQUIRED_SUBMISSIONS_PERCENTAGE = keccak256(\\n    \\\"RequiredSubmissionsPercentage\\\"\\n);\\n\\n/**\\n        @dev The setting name for the maximum tolerance settings.\\n        @dev This is the maximum tolerance for the values submitted (by nodes) when they are aggregated (average). It is used in the consensus mechanisms.\\n        @dev This is a percentage value with 2 decimal places.\\n            i.e. maximumTolerance of 325 => tolerance of 3.25% => 0.0325 of value\\n            i.e. maximumTolerance of 0 => It means all the values submitted must be equals.\\n        @dev The max value is 100% => 10000\\n     */\\nbytes32 constant MAXIMUM_TOLERANCE = keccak256(\\\"MaximumTolerance\\\");\\n/**\\n        @dev The setting name for the response expiry length settings.\\n        @dev This is the maximum time (in seconds) a node has to submit a response. After that time, the response is considered expired and will not be accepted by the protocol.\\n     */\\n\\nbytes32 constant RESPONSE_EXPIRY_LENGTH = keccak256(\\\"ResponseExpiryLength\\\");\\n\\n/**\\n        @dev The setting name for the safety interval settings.\\n        @dev This is the minimum time you need to wait (in seconds) between the last time you deposit collateral and you take out the loan.\\n        @dev It is used to avoid potential attacks using Flash Loans (AAVE) or Flash Swaps (Uniswap V2).\\n     */\\nbytes32 constant SAFETY_INTERVAL = keccak256(\\\"SafetyInterval\\\");\\n\\n/**\\n        @dev The setting name for the term expiry time settings.\\n        @dev This represents the time (in seconds) that loan terms will be available after requesting them.\\n        @dev After this time, the loan terms will expire and the borrower will need to request it again.\\n     */\\nbytes32 constant TERMS_EXPIRY_TIME = keccak256(\\\"TermsExpiryTime\\\");\\n\\n/**\\n        @dev The setting name for the liquidation reward percent setting.\\n        @dev It represents the percentage value (with 2 decimal places) for the MAX liquidation reward.\\n            i.e. an ETH liquidation price at 5% is stored as 500\\n     */\\nbytes32 constant LIQUIDATE_REWARD_PERCENT = keccak256(\\\"LiquidateRewardPercent\\\");\\n\\n/**\\n        @dev The setting name for the maximum loan duration settings.\\n        @dev The maximum loan duration setting is defined in seconds. Loans will not be given for timespans larger than the one specified here.\\n     */\\nbytes32 constant MAXIMUM_LOAN_DURATION = keccak256(\\\"MaximumLoanDuration\\\");\\n\\n/**\\n        @dev The setting name for the request loan terms rate limit settings.\\n        @dev The request loan terms rate limit setting is defined in seconds.\\n     */\\nbytes32 constant REQUEST_LOAN_TERMS_RATE_LIMIT = keccak256(\\n    \\\"RequestLoanTermsRateLimit\\\"\\n);\\n\\n/**\\n        @dev The setting name for the collateral buffer.\\n        @dev The collateral buffer is a safety buffer above the required collateral amount to liquidate a loan. It is required to ensure the loan does not get liquidated immediately after the loan is taken out if the value of the collateral asset deposited drops drastically.\\n        @dev It represents the percentage value (with 2 decimal places) of a collateral buffer.\\n            e.g.: collateral buffer at 100% is stored as 10000.\\n     */\\nbytes32 constant COLLATERAL_BUFFER = keccak256(\\\"CollateralBuffer\\\");\\n\\n/**\\n        @dev The setting name for the over collateralized buffer.\\n        @dev The over collateralized buffer is the minimum required collateral ratio in order for a loan to be taken out without an Escrow contract and for the funds to go to the borrower's EOA (external overridely owned account).\\n        @dev It represents the percentage value (with 2 decimal places) of a over collateralized buffer.\\n            e.g.: over collateralized buffer at 130% is stored as 13000.\\n     */\\nbytes32 constant OVER_COLLATERALIZED_BUFFER = keccak256(\\n    \\\"OverCollateralizedBuffer\\\"\\n);\\n\",\"keccak256\":\"0xacf6bcb8c4afd2f337a0161e8be64b016c1b350d336cd862245dd922fcd10f33\",\"license\":\"MIT\"},\"contracts/shared/interfaces/ICErc20.sol\":{\"content\":\"// SPDX-License-Identifier: MIT\\npragma solidity ^0.8.0;\\n\\nimport \\\"./IComptroller.sol\\\";\\n\\ninterface ICErc20 {\\n    /*** User Interface ***/\\n\\n    /**\\n        @notice The mint function transfers an asset into the protocol, which begins accumulating interest based on the current Supply Rate for the asset. The user receives a quantity of cTokens equal to the underlying tokens supplied, divided by the current Exchange Rate.\\n        @param mintAmount The amount of the asset to be supplied, in units of the underlying asset.\\n        @return 0 on success, otherwise an Error code\\n        @dev msg.sender The account which shall supply the asset, and own the minted cTokens.\\n        @dev Before supplying an asset, users must first approve the cToken to access their token balance.\\n     */\\n    function mint(uint256 mintAmount) external returns (uint256);\\n\\n    /**\\n        @notice The redeem function converts a specified quantity of cTokens into the underlying asset, and returns them to the user. The amount of underlying tokens received is equal to the quantity of cTokens redeemed, multiplied by the current Exchange Rate. The amount redeemed must be less than the user's Account Liquidity and the market's available liquidity.\\n        @param redeemTokens The number of cTokens to be redeemed.\\n        @return 0 on success, otherwise an Error code\\n        @dev msg.sender The account to which redeemed funds shall be transferred.\\n     */\\n    function redeem(uint256 redeemTokens) external returns (uint256);\\n\\n    /**\\n        @notice The redeem underlying function converts cTokens into a specified quantity of the underlying asset, and returns them to the user. The amount of cTokens redeemed is equal to the quantity of underlying tokens received, divided by the current Exchange Rate. The amount redeemed must be less than the user's Account Liquidity and the market's available liquidity.\\n        @param redeemAmount The amount of underlying to be redeemed.\\n        @return 0 on success, otherwise an Error code\\n        @dev msg.sender The account to which redeemed funds shall be transferred.\\n     */\\n    function redeemUnderlying(uint256 redeemAmount) external returns (uint256);\\n\\n    /**\\n        @notice The borrow function transfers an asset from the protocol to the user, and creates a borrow balance which begins accumulating interest based on the Borrow Rate for the asset. The amount borrowed must be less than the user's Account Liquidity and the market's available liquidity.\\n        @param borrowAmount The amount of the underlying asset to be borrowed.\\n        @return 0 on success, otherwise an Error code\\n        @dev msg.sender The account to which borrowed funds shall be transferred.\\n     */\\n    function borrow(uint256 borrowAmount) external returns (uint256);\\n\\n    /**\\n        @notice The repay function transfers an asset into the protocol, reducing the user's borrow balance.\\n        @param repayAmount The amount of the underlying borrowed asset to be repaid. A value of -1 (i.e. 2^256 - 1) can be used to repay the full amount.\\n        @return 0 on success, otherwise an Error code\\n        @dev msg.sender The account which borrowed the asset, and shall repay the borrow.\\n        @dev Before repaying an asset, users must first approve the cToken to access their token balance.\\n     */\\n    function repayBorrow(uint256 repayAmount) external returns (uint256);\\n\\n    /**\\n        @notice The repay function transfers an asset into the protocol, reducing the target user's borrow balance.\\n        @param borrower The account which borrowed the asset to be repaid.\\n        @param repayAmount The amount of the underlying borrowed asset to be repaid. A value of -1 (i.e. 2^256 - 1) can be used to repay the full amount.\\n        @return 0 on success, otherwise an Error code\\n        @dev msg.sender The account which shall repay the borrow.\\n        @dev Before repaying an asset, users must first approve the cToken to access their token balance.\\n     */\\n    function repayBorrowBehalf(address borrower, uint256 repayAmount)\\n        external\\n        returns (uint256);\\n\\n    /*** Admin Functions ***/\\n\\n    function _addReserves(uint256 addAmount) external returns (uint256);\\n\\n    /** End Admin Functions */\\n\\n    function underlying() external view returns (address);\\n\\n    /**\\n        @notice Each cToken is convertible into an ever increasing quantity of the underlying asset, as interest accrues in the market. The exchange rate between a cToken and the underlying asset is\\n        equal to: exchangeRate = (getCash() + totalBorrows() - totalReserves()) / totalSupply()\\n        @return The current exchange rate as an unsigned integer, scaled by 1e18.\\n     */\\n    function exchangeRateCurrent() external returns (uint256);\\n\\n    function exchangeRateStored() external view returns (uint256);\\n\\n    /**\\n     * @notice Applies accrued interest to total borrows and reserves\\n     * @dev This calculates interest accrued from the last checkpointed block\\n     *   up to the current block and writes new checkpoint to storage.\\n     */\\n    function accrueInterest() external;\\n\\n    function decimals() external view returns (uint8);\\n\\n    function balanceOf(address account) external view returns (uint256);\\n\\n    /**\\n        @notice The user's underlying balance, representing their assets in the protocol, is equal to the user's cToken balance multiplied by the Exchange Rate.\\n        @param account The account to get the underlying balance of.\\n        @return The amount of underlying currently owned by the account.\\n     */\\n    function balanceOfUnderlying(address account) external returns (uint256);\\n\\n    function comptroller() external view returns (IComptroller);\\n}\\n\",\"keccak256\":\"0xe64ba9069b31f8149d63171b24b9fdef3a587b0461c3d4c8ac5976519bcde332\",\"license\":\"MIT\"},\"contracts/shared/interfaces/IComptroller.sol\":{\"content\":\"// SPDX-License-Identifier: MIT\\npragma solidity ^0.8.0;\\n\\ninterface IComptroller {\\n    /*** Assets You Are In ***/\\n\\n    function enterMarkets(address[] calldata cTokens)\\n        external\\n        returns (uint256[] memory);\\n\\n    function exitMarket(address cToken) external returns (uint256);\\n\\n    /*** Policy Hooks ***/\\n\\n    /**\\n     * @notice Checks if the account should be allowed to mint tokens in the given market\\n     * @param cToken The market to verify the mint against\\n     * @param minter The account which would get the minted tokens\\n     * @param mintAmount The amount of underlying being supplied to the market in exchange for tokens\\n     * @return 0 if the mint is allowed, otherwise a semi-opaque error code (See ErrorReporter.sol)\\n     */\\n    function mintAllowed(\\n        address cToken,\\n        address minter,\\n        uint256 mintAmount\\n    ) external returns (uint256);\\n\\n    /**\\n     * @notice Validates mint and reverts on rejection. May emit logs.\\n     * @param cToken Asset being minted\\n     * @param minter The address minting the tokens\\n     * @param mintAmount The amount of the underlying asset being minted\\n     * @param mintTokens The number of tokens being minted\\n     */\\n    function mintVerify(\\n        address cToken,\\n        address minter,\\n        uint256 mintAmount,\\n        uint256 mintTokens\\n    ) external;\\n\\n    /**\\n     * @notice Checks if the account should be allowed to redeem tokens in the given market\\n     * @param cToken The market to verify the redeem against\\n     * @param redeemer The account which would redeem the tokens\\n     * @param redeemTokens The number of cTokens to exchange for the underlying asset in the market\\n     * @return 0 if the redeem is allowed, otherwise a semi-opaque error code (See ErrorReporter.sol)\\n     */\\n    function redeemAllowed(\\n        address cToken,\\n        address redeemer,\\n        uint256 redeemTokens\\n    ) external returns (uint256);\\n\\n    /**\\n     * @notice Validates redeem and reverts on rejection. May emit logs.\\n     * @param cToken Asset being redeemed\\n     * @param redeemer The address redeeming the tokens\\n     * @param redeemAmount The amount of the underlying asset being redeemed\\n     * @param redeemTokens The number of tokens being redeemed\\n     */\\n    function redeemVerify(\\n        address cToken,\\n        address redeemer,\\n        uint256 redeemAmount,\\n        uint256 redeemTokens\\n    ) external;\\n\\n    /**\\n     * @notice Checks if the account should be allowed to borrow the underlying asset of the given market\\n     * @param cToken The market to verify the borrow against\\n     * @param borrower The account which would borrow the asset\\n     * @param borrowAmount The amount of underlying the account would borrow\\n     * @return 0 if the borrow is allowed, otherwise a semi-opaque error code (See ErrorReporter.sol)\\n     */\\n    function borrowAllowed(\\n        address cToken,\\n        address borrower,\\n        uint256 borrowAmount\\n    ) external returns (uint256);\\n\\n    /**\\n     * @notice Validates borrow and reverts on rejection. May emit logs.\\n     * @param cToken Asset whose underlying is being borrowed\\n     * @param borrower The address borrowing the underlying\\n     * @param borrowAmount The amount of the underlying asset requested to borrow\\n     */\\n    function borrowVerify(\\n        address cToken,\\n        address borrower,\\n        uint256 borrowAmount\\n    ) external;\\n\\n    /**\\n     * @notice Checks if the account should be allowed to repay a borrow in the given market\\n     * @param cToken The market to verify the repay against\\n     * @param payer The account which would repay the asset\\n     * @param borrower The account which would borrowed the asset\\n     * @param repayAmount The amount of the underlying asset the account would repay\\n     * @return 0 if the repay is allowed, otherwise a semi-opaque error code (See ErrorReporter.sol)\\n     */\\n    function repayBorrowAllowed(\\n        address cToken,\\n        address payer,\\n        address borrower,\\n        uint256 repayAmount\\n    ) external returns (uint256);\\n\\n    /**\\n     * @notice Validates repayBorrow and reverts on rejection. May emit logs.\\n     * @param cToken Asset being repaid\\n     * @param payer The address repaying the borrow\\n     * @param borrower The address of the borrower\\n     * @param repayAmount The amount of underlying being repaid\\n     * @param borrowerIndex the index of the borrower\\n     */\\n    function repayBorrowVerify(\\n        address cToken,\\n        address payer,\\n        address borrower,\\n        uint256 repayAmount,\\n        uint256 borrowerIndex\\n    ) external;\\n\\n    /**\\n     * @notice Checks if the liquidation should be allowed to occur\\n     * @param cTokenBorrowed Asset which was borrowed by the borrower\\n     * @param cTokenCollateral Asset which was used as collateral and will be seized\\n     * @param liquidator The address repaying the borrow and seizing the collateral\\n     * @param borrower The address of the borrower\\n     * @param repayAmount The amount of underlying being repaid\\n     */\\n    function liquidateBorrowAllowed(\\n        address cTokenBorrowed,\\n        address cTokenCollateral,\\n        address liquidator,\\n        address borrower,\\n        uint256 repayAmount\\n    ) external returns (uint256);\\n\\n    /**\\n     * @notice Validates liquidateBorrow and reverts on rejection. May emit logs.\\n     * @param cTokenBorrowed Asset which was borrowed by the borrower\\n     * @param cTokenCollateral Asset which was used as collateral and will be seized\\n     * @param liquidator The address repaying the borrow and seizing the collateral\\n     * @param borrower The address of the borrower\\n     * @param repayAmount The amount of underlying being repaid\\n     * @param seizeTokens The number of collateral tokens to seize\\n     */\\n    function liquidateBorrowVerify(\\n        address cTokenBorrowed,\\n        address cTokenCollateral,\\n        address liquidator,\\n        address borrower,\\n        uint256 repayAmount,\\n        uint256 seizeTokens\\n    ) external;\\n\\n    /**\\n     * @notice Checks if the seizing of assets should be allowed to occur\\n     * @param cTokenCollateral Asset which was used as collateral and will be seized\\n     * @param cTokenBorrowed Asset which was borrowed by the borrower\\n     * @param liquidator The address repaying the borrow and seizing the collateral\\n     * @param borrower The address of the borrower\\n     * @param seizeTokens The number of collateral tokens to seize\\n     */\\n    function seizeAllowed(\\n        address cTokenCollateral,\\n        address cTokenBorrowed,\\n        address liquidator,\\n        address borrower,\\n        uint256 seizeTokens\\n    ) external returns (uint256);\\n\\n    /**\\n     * @notice Validates seize and reverts on rejection. May emit logs.\\n     * @param cTokenCollateral Asset which was used as collateral and will be seized\\n     * @param cTokenBorrowed Asset which was borrowed by the borrower\\n     * @param liquidator The address repaying the borrow and seizing the collateral\\n     * @param borrower The address of the borrower\\n     * @param seizeTokens The number of collateral tokens to seize\\n     */\\n    function seizeVerify(\\n        address cTokenCollateral,\\n        address cTokenBorrowed,\\n        address liquidator,\\n        address borrower,\\n        uint256 seizeTokens\\n    ) external;\\n\\n    /**\\n     * @notice Checks if the account should be allowed to transfer tokens in the given market\\n     * @param cToken The market to verify the transfer against\\n     * @param src The account which sources the tokens\\n     * @param dst The account which receives the tokens\\n     * @param transferTokens The number of cTokens to transfer\\n     * @return 0 if the transfer is allowed, otherwise a semi-opaque error code (See ErrorReporter.sol)\\n     */\\n    function transferAllowed(\\n        address cToken,\\n        address src,\\n        address dst,\\n        uint256 transferTokens\\n    ) external returns (uint256);\\n\\n    /**\\n     * @notice Validates transfer and reverts on rejection. May emit logs.\\n     * @param cToken Asset being transferred\\n     * @param src The account which sources the tokens\\n     * @param dst The account which receives the tokens\\n     * @param transferTokens The number of cTokens to transfer\\n     */\\n    function transferVerify(\\n        address cToken,\\n        address src,\\n        address dst,\\n        uint256 transferTokens\\n    ) external;\\n\\n    /**\\n     * @notice Claim all the comp accrued by holder in all markets\\n     * @param holder The address to claim COMP for\\n     */\\n    function claimComp(address holder) external;\\n\\n    /**\\n     * @notice Claim all the comp accrued by holder in the specified markets\\n     * @param holder The address to claim COMP for\\n     * @param cTokens The list of markets to claim COMP in\\n     */\\n    function claimComp(address holder, address[] calldata cTokens) external;\\n\\n    /**\\n     * @notice Claim all comp accrued by the holders\\n     * @param holders The addresses to claim COMP for\\n     * @param cTokens The list of markets to claim COMP in\\n     * @param borrowers Whether or not to claim COMP earned by borrowing\\n     * @param suppliers Whether or not to claim COMP earned by supplying\\n     */\\n    function claimComp(\\n        address[] calldata holders,\\n        address[] calldata cTokens,\\n        bool borrowers,\\n        bool suppliers\\n    ) external;\\n\\n    /*** Liquidity/Liquidation Calculations ***/\\n    /**\\n     * @notice Calculate number of tokens of collateral asset to seize given an underlying amount\\n     * @dev Used in liquidation (called in cToken.liquidateBorrowFresh)\\n     * @param cTokenBorrowed The address of the borrowed cToken\\n     * @param cTokenCollateral The address of the collateral cToken\\n     * @param repayAmount The amount of cTokenBorrowed underlying to convert into cTokenCollateral tokens\\n     * @return (errorCode, number of cTokenCollateral tokens to be seized in a liquidation)\\n     */\\n    function liquidateCalculateSeizeTokens(\\n        address cTokenBorrowed,\\n        address cTokenCollateral,\\n        uint256 repayAmount\\n    ) external view returns (uint256, uint256);\\n\\n    /**\\n     * @notice Return the address of the COMP token\\n     * @return The address of COMP\\n     */\\n    function getCompAddress() external view returns (address);\\n}\\n\",\"keccak256\":\"0x38a824a4a21ce9370fa581a616d1bb9d311f27d8982a6b96ebeba90bd5fd0adb\",\"license\":\"MIT\"},\"contracts/shared/interfaces/IUniswapV2Router.sol\":{\"content\":\"// SPDX-License-Identifier: MIT\\npragma solidity ^0.8.0;\\n\\n/**\\n    @notice This interface defines the different functions available for a UniswapV2Router.\\n    @author develop@teller.finance\\n */\\ninterface IUniswapV2Router {\\n    function factory() external pure returns (address);\\n    \\n    function addLiquidity(\\n        address tokenA,\\n        address tokenB,\\n        uint256 amountADesired,\\n        uint256 amountBDesired,\\n        uint256 amountAMin,\\n        uint256 amountBMin,\\n        address to,\\n        uint256 deadline\\n    )\\n        external\\n        returns (\\n            uint256 amountA,\\n            uint256 amountB,\\n            uint256 liquidity\\n        );\\n\\n    function addLiquidityETH(\\n        address token,\\n        uint256 amountTokenDesired,\\n        uint256 amountTokenMin,\\n        uint256 amountETHMin,\\n        address to,\\n        uint256 deadline\\n    )\\n        external\\n        payable\\n        returns (\\n            uint256 amountToken,\\n            uint256 amountETH,\\n            uint256 liquidity\\n        );\\n\\n    function removeLiquidity(\\n        address tokenA,\\n        address tokenB,\\n        uint256 liquidity,\\n        uint256 amountAMin,\\n        uint256 amountBMin,\\n        address to,\\n        uint256 deadline\\n    ) external returns (uint256 amountA, uint256 amountB);\\n\\n    function removeLiquidityETH(\\n        address token,\\n        uint256 liquidity,\\n        uint256 amountTokenMin,\\n        uint256 amountETHMin,\\n        address to,\\n        uint256 deadline\\n    ) external returns (uint256 amountToken, uint256 amountETH);\\n\\n    function removeLiquidityWithPermit(\\n        address tokenA,\\n        address tokenB,\\n        uint256 liquidity,\\n        uint256 amountAMin,\\n        uint256 amountBMin,\\n        address to,\\n        uint256 deadline,\\n        bool approveMax,\\n        uint8 v,\\n        bytes32 r,\\n        bytes32 s\\n    ) external returns (uint256 amountA, uint256 amountB);\\n\\n    function removeLiquidityETHWithPermit(\\n        address token,\\n        uint256 liquidity,\\n        uint256 amountTokenMin,\\n        uint256 amountETHMin,\\n        address to,\\n        uint256 deadline,\\n        bool approveMax,\\n        uint8 v,\\n        bytes32 r,\\n        bytes32 s\\n    ) external returns (uint256 amountToken, uint256 amountETH);\\n\\n    function quote(\\n        uint256 amountA,\\n        uint256 reserveA,\\n        uint256 reserveB\\n    ) external pure returns (uint256 amountB);\\n\\n    function getAmountOut(\\n        uint256 amountIn,\\n        uint256 reserveIn,\\n        uint256 reserveOut\\n    ) external pure returns (uint256 amountOut);\\n\\n    function getAmountIn(\\n        uint256 amountOut,\\n        uint256 reserveIn,\\n        uint256 reserveOut\\n    ) external pure returns (uint256 amountIn);\\n\\n    function getAmountsOut(uint256 amountIn, address[] calldata path)\\n        external\\n        view\\n        returns (uint256[] memory amounts);\\n\\n    function getAmountsIn(uint256 amountOut, address[] calldata path)\\n        external\\n        view\\n        returns (uint256[] memory amounts);\\n\\n    /**\\n        @notice It returns the address of the canonical WETH address;\\n    */\\n    function WETH() external pure returns (address);\\n\\n    /**\\n        @notice Swaps an exact amount of input tokens for as many output tokens as possible, along the route determined by the path. The first element of path is the input token, the last is the output token, and any intermediate elements represent intermediate pairs to trade through (if, for example, a direct pair does not exist).\\n        @param amountIn The amount of input tokens to send.\\n        @param amountOutMin The minimum amount of output tokens that must be received for the transaction not to revert.\\n        @param path An array of token addresses. path.length must be >= 2. Pools for each consecutive pair of addresses must exist and have liquidity.\\n        @param to Recipient of the output tokens.\\n        @param deadline Unix timestamp after which the transaction will revert.\\n        @return amounts The input token amount and all subsequent output token amounts.\\n        @dev msg.sender should have already given the router an allowance of at least amountIn on the input token.\\n     */\\n    function swapExactTokensForTokens(\\n        uint256 amountIn,\\n        uint256 amountOutMin,\\n        address[] calldata path,\\n        address to,\\n        uint256 deadline\\n    ) external returns (uint256[] memory amounts);\\n\\n    /**\\n        @notice Swaps an exact amount of tokens for as much ETH as possible, along the route determined by the path. The first element of path is the input token, the last must be WETH, and any intermediate elements represent intermediate pairs to trade through (if, for example, a direct pair does not exist).\\n        @param amountIn The amount of input tokens to send.\\n        @param amountOutMin The minimum amount of output tokens that must be received for the transaction not to revert.\\n        @param path An array of token addresses. path.length must be >= 2. Pools for each consecutive pair of addresses must exist and have liquidity.\\n        @param to Recipient of the ETH.\\n        @param deadline Unix timestamp after which the transaction will revert.\\n        @return amounts The input token amount and all subsequent output token amounts.\\n        @dev If the to address is a smart contract, it must have the ability to receive ETH.\\n     */\\n    function swapExactTokensForETH(\\n        uint256 amountIn,\\n        uint256 amountOutMin,\\n        address[] calldata path,\\n        address to,\\n        uint256 deadline\\n    ) external returns (uint256[] memory amounts);\\n\\n    /**\\n        @notice Swaps an exact amount of ETH for as many output tokens as possible, along the route determined by the path. The first element of path must be WETH, the last is the output token, and any intermediate elements represent intermediate pairs to trade through (if, for example, a direct pair does not exist).\\n        @param amountOutMin The minimum amount of output tokens that must be received for the transaction not to revert.\\n        @param path An array of token addresses. path.length must be >= 2. Pools for each consecutive pair of addresses must exist and have liquidity.\\n        @param to Recipient of the output tokens.\\n        @param deadline Unix timestamp after which the transaction will revert.\\n        @return amounts The input token amount and all subsequent output token amounts.\\n     */\\n    function swapExactETHForTokens(\\n        uint256 amountOutMin,\\n        address[] calldata path,\\n        address to,\\n        uint256 deadline\\n    ) external payable returns (uint256[] memory amounts);\\n\\n    function swapTokensForExactTokens(\\n        uint256 amountOut,\\n        uint256 amountInMax,\\n        address[] calldata path,\\n        address to,\\n        uint256 deadline\\n    ) external returns (uint256[] memory amounts);\\n\\n    function swapTokensForExactETH(\\n        uint256 amountOut,\\n        uint256 amountInMax,\\n        address[] calldata path,\\n        address to,\\n        uint256 deadline\\n    ) external returns (uint256[] memory amounts);\\n\\n    function swapETHForExactTokens(\\n        uint256 amountOut,\\n        address[] calldata path,\\n        address to,\\n        uint256 deadline\\n    ) external payable returns (uint256[] memory amounts);\\n}\\n\",\"keccak256\":\"0x37849041e4bee2dfa825677f69078521fcc94804aa5120f67dd12cc4133efcec\",\"license\":\"MIT\"},\"contracts/shared/libraries/CacheLib.sol\":{\"content\":\"// SPDX-License-Identifier: MIT\\npragma solidity ^0.8.0;\\n\\nenum CacheType { Address, Uint, Int, Byte, Bool }\\n\\n/**\\n * @notice This struct manages the cache of the library instance.\\n * @param addresses A mapping of address values mapped to cache keys in bytes.\\n * @param uints A mapping of uint values mapped to cache keys names in bytes.\\n * @param ints A mapping of int values mapped to cache keys names in bytes.\\n * @param bites A mapping of bytes values mapped to cache keys names in bytes.\\n * @param bools A mapping of bool values mapped to cache keys names in bytes.\\n */\\nstruct Cache {\\n    // Mapping of cache keys names to address values.\\n    mapping(bytes32 => address) addresses;\\n    // Mapping of cache keys names to uint256 values.\\n    mapping(bytes32 => uint256) uints;\\n    // Mapping of cache keys names to int256 values.\\n    mapping(bytes32 => int256) ints;\\n    // Mapping of cache keys names to bytes32 values.\\n    mapping(bytes32 => bytes32) bites;\\n    // Mapping of cache keys names to bool values.\\n    mapping(bytes32 => bool) bools;\\n}\\n\\nlibrary CacheLib {\\n    // The constant for the initialization check\\n    bytes32 private constant INITIALIZED = keccak256(\\\"Initialized\\\");\\n\\n    /**\\n     * @notice Initializes the cache instance.\\n     * @param cache The current cache\\n     */\\n    function initialize(Cache storage cache) internal {\\n        requireNotExists(cache);\\n        cache.bools[INITIALIZED] = true;\\n    }\\n\\n    /**\\n     * @notice Checks whether the current cache does not, throwing an error if it does.\\n     * @param cache The current cache\\n     */\\n    function requireNotExists(Cache storage cache) internal view {\\n        require(!exists(cache), \\\"CACHE_ALREADY_EXISTS\\\");\\n    }\\n\\n    /**\\n     * @notice Checks whether the current cache exists, throwing an error if the cache does not.\\n     * @param cache The current cache\\n     */\\n    function requireExists(Cache storage cache) internal view {\\n        require(exists(cache), \\\"CACHE_DOES_NOT_EXIST\\\");\\n    }\\n\\n    /**\\n     * @notice Tests whether the current cache exists or not.\\n     * @param cache The current cache.\\n     * @return bool True if the cache exists.\\n     */\\n    function exists(Cache storage cache) internal view returns (bool) {\\n        return cache.bools[INITIALIZED];\\n    }\\n\\n    /**\\n     * @notice it updates the cache with a key, value and cache type\\n     * @param cache cache to update\\n     * @param key the memory reference to the value in bytes32\\n     * @param value the value to update at the key\\n     * @param cacheType the enum type of cache to update\\n     */\\n    function update(\\n        Cache storage cache,\\n        bytes32 key,\\n        bytes32 value,\\n        CacheType cacheType\\n    ) internal {\\n        requireExists(cache);\\n\\n        assembly {\\n            mstore(0, value)\\n        }\\n        if (cacheType == CacheType.Address) {\\n            address addr;\\n            assembly {\\n                addr := mload(0)\\n            }\\n            cache.addresses[key] = addr;\\n        } else if (cacheType == CacheType.Uint) {\\n            uint256 ui;\\n            assembly {\\n                ui := mload(0)\\n            }\\n            cache.uints[key] = ui;\\n        } else if (cacheType == CacheType.Int) {\\n            int256 i;\\n            assembly {\\n                i := mload(0)\\n            }\\n            cache.ints[key] = i;\\n        } else if (cacheType == CacheType.Byte) {\\n            cache.bites[key] = value;\\n        } else if (cacheType == CacheType.Bool) {\\n            bool b;\\n            assembly {\\n                b := mload(0)\\n            }\\n            cache.bools[key] = b;\\n        }\\n    }\\n\\n    /**\\n     * @notice it deletes the cache values at the specified key\\n     * @param cache the cache to delete keys from\\n     * @param keysToClear the keys to delete\\n     * @param keyTypes the types of keys to target different parts of the cache\\n     */\\n    function clearCache(\\n        Cache storage cache,\\n        bytes32[5] memory keysToClear,\\n        CacheType[5] memory keyTypes\\n    ) internal {\\n        requireExists(cache);\\n        require(\\n            keysToClear.length == keyTypes.length,\\n            \\\"ARRAY_LENGTHS_MISMATCH\\\"\\n        );\\n        for (uint256 i; i <= keysToClear.length; i++) {\\n            if (keyTypes[i] == CacheType.Address) {\\n                delete cache.addresses[keysToClear[i]];\\n            } else if (keyTypes[i] == CacheType.Uint) {\\n                delete cache.uints[keysToClear[i]];\\n            } else if (keyTypes[i] == CacheType.Int) {\\n                delete cache.ints[keysToClear[i]];\\n            } else if (keyTypes[i] == CacheType.Byte) {\\n                delete cache.bites[keysToClear[i]];\\n            } else if (keyTypes[i] == CacheType.Bool) {\\n                delete cache.bools[keysToClear[i]];\\n            }\\n        }\\n    }\\n}\\n\",\"keccak256\":\"0xb896b539792b98bda4fb9f25b44550c74fa663914683d69824d7415436f2601f\",\"license\":\"MIT\"},\"contracts/shared/libraries/CompoundLib.sol\":{\"content\":\"// SPDX-License-Identifier: MIT\\npragma solidity ^0.8.0;\\n\\n// Interfaces\\nimport { ICErc20 } from \\\"../interfaces/ICErc20.sol\\\";\\n\\n// Storage\\nimport { AppStorageLib } from \\\"../../storage/app.sol\\\";\\n\\n/**\\n * @notice Utility library to calculate the value of a Compound cToken and its underlying asset.\\n *\\n * @author develop@teller.finance\\n */\\nlibrary CompoundLib {\\n    /**\\n     * @dev Compounds exchange rate is scaled by 18 decimals (10^18)\\n     */\\n    uint256 internal constant EXCHANGE_RATE_SCALE = 1e18;\\n\\n    function exchangeRate(address cToken) internal view returns (uint256) {\\n        return ICErc20(cToken).exchangeRateStored();\\n    }\\n\\n    /**\\n     * @notice Takes an amount of the Compound asset and calculates the underlying amount using the stored exchange rate.\\n     * @param cToken Address of the Compound token.\\n     * @param cTokenAmount Amount of the Compound asset.\\n     * @return value of the Compound token amount in underlying tokens.\\n     */\\n    function valueInUnderlying(address cToken, uint256 cTokenAmount)\\n        internal\\n        view\\n        returns (uint256)\\n    {\\n        return\\n            (cTokenAmount * ICErc20(cToken).exchangeRateStored()) /\\n            EXCHANGE_RATE_SCALE;\\n    }\\n\\n    /**\\n     * @notice Takes an amount of the underlying Compound asset and calculates the cToken amount using the stored exchange rate.\\n     * @param cToken Address of the Compound token.\\n     * @param underlyingAmount Amount of the underlying asset for the Compound token.\\n     * @return value of the underlying amount in Compound tokens.\\n     */\\n    function valueOfUnderlying(address cToken, uint256 underlyingAmount)\\n        internal\\n        view\\n        returns (uint256)\\n    {\\n        return\\n            (underlyingAmount * EXCHANGE_RATE_SCALE) /\\n            ICErc20(cToken).exchangeRateStored();\\n    }\\n\\n    function isCompoundToken(address token) internal view returns (bool) {\\n        return AppStorageLib.store().cTokenRegistry[token];\\n    }\\n\\n    /**\\n     * @notice Tests the {underlying} function on the cToken and assumes its WETH otherwise.\\n     * @dev CETH is the only Compound token that does not support the {underlying} function.\\n     * @param cToken address of the compound token\\n     * @return address of the underlying cToken\\n     */\\n    function getUnderlying(address cToken) internal view returns (address) {\\n        (bool success, bytes memory data) =\\n            cToken.staticcall(abi.encode(ICErc20.underlying.selector));\\n        if (success) {\\n            return abi.decode(data, (address));\\n        }\\n\\n        return AppStorageLib.store().assetAddresses[\\\"WETH\\\"];\\n    }\\n}\\n\",\"keccak256\":\"0x99206384c27b0e68b1ec7b82260f6a47965f611875c018bc076ff8a688a6c6d7\",\"license\":\"MIT\"},\"contracts/shared/libraries/NumbersLib.sol\":{\"content\":\"// SPDX-License-Identifier: MIT\\npragma solidity ^0.8.0;\\n\\n/**\\n * @dev Utility library for uint256 numbers\\n *\\n * @author develop@teller.finance\\n */\\nlibrary NumbersLib {\\n    /**\\n     * @dev It represents 100% with 2 decimal places.\\n     */\\n    uint256 internal constant ONE_HUNDRED_PERCENT = 10000;\\n\\n    /**\\n     * @notice Returns a percentage value of a number.\\n     * @param self The number to get a percentage of.\\n     * @param percentage The percentage value to calculate with 2 decimal places (10000 = 100%).\\n     */\\n    function percent(uint256 self, uint16 percentage)\\n        internal\\n        pure\\n        returns (uint256)\\n    {\\n        return (self * uint256(percentage)) / ONE_HUNDRED_PERCENT;\\n    }\\n\\n    function percent(int256 self, uint256 percentage)\\n        internal\\n        pure\\n        returns (int256)\\n    {\\n        return (self * int256(percentage)) / int256(ONE_HUNDRED_PERCENT);\\n    }\\n\\n    /**\\n     * @notice it returns the absolute number of a specified parameter\\n     * @param self the number to be returned in it's absolute \\n     * @return the absolute number\\n     */\\n    function abs(int256 self) internal pure returns (uint256) {\\n        return self >= 0 ? uint256(self) : uint256(-1 * self);\\n    }\\n\\n    /**\\n     * @notice Returns a ratio percentage of {num1} to {num2}.\\n     * @param num1 The number used to get the ratio for.\\n     * @param num2 The number used to get the ratio from.\\n     * @return Ratio percentage with 2 decimal places (10000 = 100%).\\n     */\\n    function ratioOf(uint256 num1, uint256 num2)\\n        internal\\n        pure\\n        returns (uint16)\\n    {\\n        return num2 == 0 ? 0 : uint16((num1 * ONE_HUNDRED_PERCENT) / num2);\\n    }\\n}\\n\",\"keccak256\":\"0xa852b8866a3d6d928c6575bf2bcf2ae784eed73717c78c0cadbdedf8b0ba3274\",\"license\":\"MIT\"},\"contracts/shared/libraries/NumbersList.sol\":{\"content\":\"// SPDX-License-Identifier: MIT\\npragma solidity ^0.8.0;\\n\\nimport \\\"@openzeppelin/contracts/utils/math/SafeMath.sol\\\";\\nimport \\\"./NumbersLib.sol\\\";\\n\\n/**\\n * @dev Utility library of inline functions on NumbersList.Values\\n *\\n * @author develop@teller.finance\\n */\\nlibrary NumbersList {\\n    using NumbersLib for uint256;\\n\\n    // Holds values to calculate the threshold of a list of numbers\\n    struct Values {\\n        uint256 count; // The total number of numbers added\\n        uint256 max; // The maximum number that was added\\n        uint256 min; // The minimum number that was added\\n        uint256 sum; // The total sum of the numbers that were added\\n    }\\n\\n    /**\\n     * @dev Add to the sum while keeping track of min and max values\\n     * @param self The Value this function was called on\\n     * @param newValue Number to increment sum by\\n     */\\n    function addValue(Values memory self, uint256 newValue) internal pure {\\n        if (self.max < newValue) {\\n            self.max = newValue;\\n        }\\n        if (self.min > newValue || self.count == 0) {\\n            self.min = newValue;\\n        }\\n        self.sum = self.sum + (newValue);\\n        self.count = self.count + 1;\\n    }\\n\\n    /**\\n     * @param self The Value this function was called on\\n     * @return the number of times the sum has updated\\n     */\\n    function valuesCount(Values memory self) internal pure returns (uint256) {\\n        return self.count;\\n    }\\n\\n    /**\\n     * @dev Checks if the sum has been changed\\n     * @param self The Value this function was called on\\n     * @return boolean\\n     */\\n    function isEmpty(Values memory self) internal pure returns (bool) {\\n        return valuesCount(self) == 0;\\n    }\\n\\n    /**\\n     * @param self The Value this function was called on\\n     * @return the average number that was used to calculate the sum\\n     */\\n    function getAverage(Values memory self) internal pure returns (uint256) {\\n        return isEmpty(self) ? 0 : self.sum / (valuesCount(self));\\n    }\\n\\n    /**\\n     * @dev Checks if the min and max numbers are within the acceptable tolerance\\n     * @param self The Value this function was called on\\n     * @param tolerancePercentage Acceptable tolerance percentage as a whole number\\n     * The percentage should be entered with 2 decimal places. e.g. 2.5% should be entered as 250.\\n     * @return boolean\\n     */\\n    function isWithinTolerance(Values memory self, uint16 tolerancePercentage)\\n        internal\\n        pure\\n        returns (bool)\\n    {\\n        if (isEmpty(self)) {\\n            return false;\\n        }\\n        uint256 average = getAverage(self);\\n        uint256 toleranceAmount = average.percent(tolerancePercentage);\\n\\n        uint256 minTolerance = average - toleranceAmount;\\n        if (self.min < minTolerance) {\\n            return false;\\n        }\\n\\n        uint256 maxTolerance = average + toleranceAmount;\\n        if (self.max > maxTolerance) {\\n            return false;\\n        }\\n        return true;\\n    }\\n}\\n\",\"keccak256\":\"0xfd64d3765eb776aaebf1c6eeb8af33ad4a9bd89bad676300542086c1fefd44da\",\"license\":\"MIT\"},\"contracts/shared/proxy/beacon/InitializeableBeaconProxy.sol\":{\"content\":\"// SPDX-License-Identifier: MIT\\npragma solidity ^0.8.0;\\n\\nimport \\\"@openzeppelin/contracts/proxy/beacon/IBeacon.sol\\\";\\nimport \\\"@openzeppelin/contracts/proxy/Proxy.sol\\\";\\nimport \\\"@openzeppelin/contracts/utils/Address.sol\\\";\\n\\n/**\\n * @dev This contract implements a proxy that gets the implementation address for each call from a {UpgradeableBeacon}.\\n *\\n * The beacon address is stored in storage slot `uint256(keccak256('eip1967.proxy.beacon')) - 1`, so that it doesn't\\n * conflict with the storage layout of the implementation behind the proxy.\\n *\\n * _Available since v3.4._\\n */\\ncontract InitializeableBeaconProxy is Proxy {\\n    /**\\n     * @dev The storage slot of the UpgradeableBeacon contract which defines the implementation for this proxy.\\n     * This is bytes32(uint256(keccak256('eip1967.proxy.beacon')) - 1)) and is validated in the constructor.\\n     */\\n    bytes32 private constant _BEACON_SLOT =\\n        0xa3f0ad74e5423aebfd80d3ef4346578335a9a72aeaee59ff6cb3582b35133d50;\\n\\n    /**\\n     * @dev Initializes the proxy with `beacon`.\\n     *\\n     * If `data` is nonempty, it's used as data in a delegate call to the implementation returned by the beacon. This\\n     * will typically be an encoded function call, and allows initializating the storage of the proxy like a Solidity\\n     * constructor.\\n     *\\n     * Requirements:\\n     *\\n     * - `beacon` must be a contract with the interface {IBeacon}.\\n     */\\n    function initialize(address beacon, bytes memory data) external payable {\\n        assert(\\n            _BEACON_SLOT ==\\n                bytes32(uint256(keccak256(\\\"eip1967.proxy.beacon\\\")) - 1)\\n        );\\n        require(_beacon() == address(0), \\\"Beacon: already initialized\\\");\\n\\n        _setBeacon(beacon, data);\\n    }\\n\\n    /**\\n     * @dev Returns the current beacon address.\\n     */\\n    function _beacon() internal view virtual returns (address beacon) {\\n        bytes32 slot = _BEACON_SLOT;\\n        // solhint-disable-next-line no-inline-assembly\\n        assembly {\\n            beacon := sload(slot)\\n        }\\n    }\\n\\n    /**\\n     * @dev Returns the current implementation address of the associated beacon.\\n     */\\n    function _implementation()\\n        internal\\n        view\\n        virtual\\n        override\\n        returns (address)\\n    {\\n        return IBeacon(_beacon()).implementation();\\n    }\\n\\n    /**\\n     * @dev Changes the proxy to use a new beacon.\\n     *\\n     * If `data` is nonempty, it's used as data in a delegate call to the implementation returned by the beacon.\\n     *\\n     * Requirements:\\n     *\\n     * - `beacon` must be a contract.\\n     * - The implementation returned by `beacon` must be a contract.\\n     */\\n    function _setBeacon(address beacon, bytes memory data) internal virtual {\\n        bytes32 slot = _BEACON_SLOT;\\n\\n        // solhint-disable-next-line no-inline-assembly\\n        assembly {\\n            sstore(slot, beacon)\\n        }\\n\\n        if (data.length > 0) {\\n            Address.functionDelegateCall(\\n                _implementation(),\\n                data,\\n                \\\"BeaconProxy: function call failed\\\"\\n            );\\n        }\\n    }\\n\\n    receive() external payable override {\\n        // Needed to receive ETH without data\\n        // OZ Proxy contract calls the _fallback() on receive and tries to delegatecall which fails\\n    }\\n}\\n\",\"keccak256\":\"0x48aefbbc0c51b106f4d69580fa802dc6c5d7573fee24cb7d08f5370d79a2e6f2\",\"license\":\"MIT\"},\"contracts/shared/proxy/beacon/UpgradeableBeaconFactory.sol\":{\"content\":\"// SPDX-License-Identifier: MIT\\npragma solidity ^0.8.0;\\n\\nimport \\\"@openzeppelin/contracts/proxy/Clones.sol\\\";\\nimport \\\"@openzeppelin/contracts/proxy/beacon/IBeacon.sol\\\";\\nimport \\\"@openzeppelin/contracts/access/Ownable.sol\\\";\\nimport \\\"@openzeppelin/contracts/utils/Address.sol\\\";\\nimport \\\"./InitializeableBeaconProxy.sol\\\";\\n\\n/**\\n * @dev This contract is used in conjunction with one or more instances of {BeaconProxy} to determine their\\n * implementation contract, which is where they will delegate all function calls.\\n *\\n * An owner is able to change the implementation the beacon points to, thus upgrading the proxies that use this beacon.\\n */\\ncontract UpgradeableBeaconFactory is IBeacon, Ownable {\\n    address private _implementation;\\n    InitializeableBeaconProxy public proxyAddress;\\n\\n    /**\\n     * @dev Emitted when the implementation returned by the beacon is changed.\\n     */\\n    event Upgraded(address indexed implementation);\\n\\n    /**\\n     * @dev Sets the address of the initial implementation, and the deployer account as the owner who can upgrade the\\n     * beacon.\\n     */\\n    constructor(address payable proxyAddress_, address implementation_) {\\n        proxyAddress = InitializeableBeaconProxy(proxyAddress_);\\n        _setImplementation(implementation_);\\n    }\\n\\n    /**\\n     * @dev Returns the current implementation address.\\n     */\\n    function implementation() public view virtual override returns (address) {\\n        return _implementation;\\n    }\\n\\n    /**\\n     * @notice it clones the proxy contract at an address\\n     * @param initData the data to initialize after the proxy is cloned\\n     * @return proxy_ the cloned proxy\\n     */\\n    function cloneProxy(bytes memory initData)\\n        external\\n        returns (address payable proxy_)\\n    {\\n        proxy_ = payable(Clones.clone(address(proxyAddress)));\\n        InitializeableBeaconProxy(proxy_).initialize(address(this), initData);\\n    }\\n\\n    /**\\n     * @dev Upgrades the beacon to a new implementation.\\n     *\\n     * Emits an {Upgraded} event.\\n     *\\n     * Requirements:\\n     *\\n     * - msg.sender must be the owner of the contract.\\n     * - `newImplementation` must be a contract.\\n     */\\n    function upgradeTo(address newImplementation) public virtual onlyOwner {\\n        _setImplementation(newImplementation);\\n        emit Upgraded(newImplementation);\\n    }\\n\\n    /**\\n     * @dev Sets the implementation contract address for this beacon\\n     *\\n     * Requirements:\\n     *\\n     * - `newImplementation` must be a contract.\\n     */\\n    function _setImplementation(address newImplementation) private {\\n        require(\\n            Address.isContract(newImplementation),\\n            \\\"UpgradeableBeacon: implementation is not a contract\\\"\\n        );\\n        _implementation = newImplementation;\\n    }\\n}\\n\",\"keccak256\":\"0xd25191f91a4d8e64085aa73ecc7c18939d87aea17241ebb2aa9035021898d9d9\",\"license\":\"MIT\"},\"contracts/shared/roles.sol\":{\"content\":\"// SPDX-License-Identifier: MIT\\npragma solidity ^0.8.0;\\n\\n/**\\n * @dev the roles for the user to assign, revoke and check in functions\\n */\\nbytes32 constant ADMIN = keccak256(\\\"ADMIN\\\");\\nbytes32 constant PAUSER = keccak256(\\\"PAUSER\\\");\\nbytes32 constant AUTHORIZED = keccak256(\\\"AUTHORIZED\\\");\\n\",\"keccak256\":\"0x711c08f4fb19dd5c1c76acf9bd08ac1dcd9df9ce143f5195c043d56d4650c8da\",\"license\":\"MIT\"},\"contracts/storage/app.sol\":{\"content\":\"// SPDX-License-Identifier: MIT\\npragma solidity ^0.8.0;\\n\\n// Contracts\\nimport { TellerNFT } from \\\"../nft/TellerNFT.sol\\\";\\n\\n// Interfaces\\n\\n// Libraries\\nimport {\\n    PlatformSetting\\n} from \\\"../settings/platform/libraries/PlatformSettingsLib.sol\\\";\\nimport { Cache } from \\\"../shared/libraries/CacheLib.sol\\\";\\nimport {\\n    UpgradeableBeaconFactory\\n} from \\\"../shared/proxy/beacon/UpgradeableBeaconFactory.sol\\\";\\n\\nstruct AppStorage {\\n    // is it initialized\\n    bool initialized;\\n    // is it platform restricted\\n    bool platformRestricted;\\n    // mapping between contract IDs and if they're paused\\n    mapping(bytes32 => bool) paused;\\n    //p\\n    mapping(bytes32 => PlatformSetting) platformSettings;\\n    mapping(address => Cache) assetSettings;\\n    mapping(string => address) assetAddresses;\\n    mapping(address => bool) cTokenRegistry;\\n    TellerNFT nft;\\n    UpgradeableBeaconFactory loansEscrowBeacon;\\n    UpgradeableBeaconFactory collateralEscrowBeacon;\\n    address nftLiquidationController;\\n    UpgradeableBeaconFactory tTokenBeacon;\\n}\\n\\nlibrary AppStorageLib {\\n    function store() internal pure returns (AppStorage storage s) {\\n        assembly {\\n            s.slot := 0\\n        }\\n    }\\n}\\n\",\"keccak256\":\"0x0c52fdd76b33f74e233c3a27dd3b73b134e9643aab347b3aa649c504809c6559\",\"license\":\"MIT\"},\"contracts/storage/market.sol\":{\"content\":\"// SPDX-License-Identifier: MIT\\npragma solidity ^0.8.0;\\n\\n// Libraries\\nimport { Counters } from \\\"@openzeppelin/contracts/utils/Counters.sol\\\";\\nimport {\\n    EnumerableSet\\n} from \\\"@openzeppelin/contracts/utils/structs/EnumerableSet.sol\\\";\\nimport \\\"../shared/libraries/NumbersList.sol\\\";\\n\\n// Interfaces\\nimport { ILoansEscrow } from \\\"../escrow/escrow/ILoansEscrow.sol\\\";\\nimport { ICollateralEscrow } from \\\"../market/collateral/ICollateralEscrow.sol\\\";\\nimport { ITToken } from \\\"../lending/ttoken/ITToken.sol\\\";\\n\\n// DEPRECATED\\nstruct LoanTerms {\\n    // Max size the loan max be taken out with\\n    uint256 maxLoanAmount;\\n    // The timestamp at which the loan terms expire, after which if the loan is not yet active, cannot be taken out\\n    uint32 termsExpiry;\\n}\\n\\nenum LoanStatus { NonExistent, TermsSet, Active, Closed, Liquidated }\\n\\nstruct Loan {\\n    // Account that owns the loan\\n    address payable borrower;\\n    // The asset lent out for the loan\\n    address lendingToken;\\n    // The token used as collateral for the loan\\n    address collateralToken;\\n    // The total amount of the loan size taken out\\n    uint256 borrowedAmount;\\n    // The id of the loan for internal tracking\\n    uint128 id;\\n    // How long in seconds until the loan must be repaid\\n    uint32 duration;\\n    // The timestamp at which the loan became active\\n    uint32 loanStartTime;\\n    // The interest rate given for repaying the loan\\n    uint16 interestRate;\\n    // Ratio used to determine amount of collateral required based on the collateral asset price\\n    uint16 collateralRatio;\\n    // The status of the loan\\n    LoanStatus status;\\n}\\n\\nstruct LoanDebt {\\n    // The total amount of the loan taken out by the borrower, reduces on loan repayments\\n    uint256 principalOwed;\\n    // The total interest owed by the borrower for the loan, reduces on loan repayments\\n    uint256 interestOwed;\\n}\\n\\nstruct LoanRequest {\\n    LoanUserRequest request;\\n    LoanConsensusResponse[] responses;\\n}\\n\\n/**\\n * @notice Borrower request object to take out a loan\\n * @param borrower The wallet address of the borrower\\n * @param assetAddress The address of the asset for the requested loan\\n * @param amount The amount of tokens requested by the borrower for the loan\\n * @param requestNonce The nonce of the borrower wallet address required for authentication\\n * @param duration The length of time in seconds that the loan has been requested for\\n * @param requestTime The timestamp at which the loan was requested\\n */\\nstruct LoanUserRequest {\\n    address payable borrower;\\n    address assetAddress;\\n    uint256 amount;\\n    uint32 requestNonce;\\n    uint32 duration;\\n    uint32 requestTime;\\n}\\n\\n/**\\n * @notice Borrower response object to take out a loan\\n * @param signer The wallet address of the signer validating the interest request of the lender\\n * @param assetAddress The address of the asset for the requested loan\\n * @param maxLoanAmount The largest amount of tokens that can be taken out in the loan by the borrower\\n * @param responseTime The timestamp at which the response was sent\\n * @param interestRate The signed interest rate generated by the signer's Credit Risk Algorithm (CRA)\\n * @param collateralRatio The ratio of collateral to loan amount that is generated by the signer's Credit Risk Algorithm (CRA)\\n * @param signature The signature generated by the signer in the format of the above Signature struct\\n */\\nstruct LoanConsensusResponse {\\n    address signer;\\n    address assetAddress;\\n    uint256 maxLoanAmount;\\n    uint32 responseTime;\\n    uint16 interestRate;\\n    uint16 collateralRatio;\\n    Signature signature;\\n}\\n\\n/**\\n * @notice Represents a user signature\\n * @param v The recovery identifier represented by the last byte of a ECDSA signature as an int\\n * @param r The random point x-coordinate of the signature respresented by the first 32 bytes of the generated ECDSA signature\\n * @param s The signature proof represented by the second 32 bytes of the generated ECDSA signature\\n */\\nstruct Signature {\\n    uint8 v;\\n    bytes32 r;\\n    bytes32 s;\\n}\\n\\nstruct MarketStorage {\\n    // Holds the index for the next loan ID\\n    Counters.Counter loanIDCounter;\\n    // Maps loanIDs to loan data\\n    mapping(uint256 => Loan) loans;\\n    // Maps loanID to loan debt (total owed left)\\n    mapping(uint256 => LoanDebt) loanDebt;\\n    // Maps loanID to loan terms\\n    mapping(uint256 => LoanTerms) _loanTerms; // DEPRECATED: DO NOT REMOVE\\n    // Maps loanIDs to escrow address to list of held tokens\\n    mapping(uint256 => ILoansEscrow) loanEscrows;\\n    // Maps loanIDs to list of tokens owned by a loan escrow\\n    mapping(uint256 => EnumerableSet.AddressSet) escrowTokens;\\n    // Maps collateral token address to a LoanCollateralEscrow that hold collateral funds\\n    mapping(address => ICollateralEscrow) collateralEscrows;\\n    // Maps accounts to owned loan IDs\\n    mapping(address => uint128[]) borrowerLoans;\\n    // Maps lending token to overall amount of interest collected from loans\\n    mapping(address => ITToken) tTokens;\\n    // Maps lending token to list of signer addresses who are only ones allowed to verify loan requests\\n    mapping(address => EnumerableSet.AddressSet) signers;\\n    // Maps lending token to list of allowed collateral tokens\\n    mapping(address => EnumerableSet.AddressSet) collateralTokens;\\n}\\n\\nbytes32 constant MARKET_STORAGE_POS = keccak256(\\\"teller.market.storage\\\");\\n\\nlibrary MarketStorageLib {\\n    function store() internal pure returns (MarketStorage storage s) {\\n        bytes32 pos = MARKET_STORAGE_POS;\\n        assembly {\\n            s.slot := pos\\n        }\\n    }\\n}\\n\",\"keccak256\":\"0xb7e05aeec806b5621512def93f4a389b4ef88c50ef9fe7115a33f57db2f2304b\",\"license\":\"MIT\"},\"contracts/storage/nft.sol\":{\"content\":\"// SPDX-License-Identifier: MIT\\npragma solidity ^0.8.0;\\n\\n// Utils\\nimport \\\"@openzeppelin/contracts/utils/structs/EnumerableSet.sol\\\";\\n\\nstruct NFTStorage {\\n    // Maps NFT owner to set of token IDs owned\\n    mapping(address => EnumerableSet.UintSet) stakedNFTs;\\n    // Maps loanID to NFT IDs indicating NFT being used for the loan\\n    mapping(uint256 => EnumerableSet.UintSet) loanNFTs;\\n    // Merkle root used for verifying nft IDs to base loan size\\n    bytes32 nftMerkleRoot;\\n}\\n\\nbytes32 constant NFT_STORAGE_POS = keccak256(\\\"teller.staking.storage\\\");\\n\\nlibrary NFTStorageLib {\\n    function store() internal pure returns (NFTStorage storage s) {\\n        bytes32 pos = NFT_STORAGE_POS;\\n        assembly {\\n            s.slot := pos\\n        }\\n    }\\n}\",\"keccak256\":\"0x09f8baabf2668e42e0554da99fda42f661e959f94645c2875e15585826a3a6e4\",\"license\":\"MIT\"},\"contracts/storage/price-aggregator.sol\":{\"content\":\"// SPDX-License-Identifier: MIT\\npragma solidity ^0.8.0;\\n\\nimport {\\n    EnumerableSet\\n} from \\\"@openzeppelin/contracts/utils/structs/EnumerableSet.sol\\\";\\n\\nstruct ChainlinkAggStorage {\\n    // Maps source token => destination token => Chainlink Aggregator\\n    mapping(address => mapping(address => address)) aggregators;\\n    // Maps token address to number of supported Chainlink pairs\\n    mapping(address => uint256) pairCount;\\n    // Stores set of token addresses supported by Chainlink\\n    EnumerableSet.AddressSet supportedTokens;\\n}\\n\\nstruct PriceAggStorage {\\n    ChainlinkAggStorage chainlink;\\n}\\n\\nbytes32 constant PRICE_AGG_STORAGE_POS = keccak256(\\n    \\\"teller.price.aggregator.storage\\\"\\n);\\n\\nlibrary PriceAggStorageLib {\\n    function store() internal pure returns (PriceAggStorage storage s) {\\n        bytes32 pos = PRICE_AGG_STORAGE_POS;\\n        assembly {\\n            s.slot := pos\\n        }\\n    }\\n}\\n\",\"keccak256\":\"0x39a2c6e514cbc48d03f8de560a855527ddf9cd08e2042a75e5c1820a6298d4a1\",\"license\":\"MIT\"}},\"version\":1}",
      "bytecode": "0x608060405234801561001057600080fd5b50611ed6806100206000396000f3fe608060405234801561001057600080fd5b506004361061004c5760003560e01c80635ebc6334146100515780638a700b531461007d578063ccdd9f5d14610092578063e89ad656146100a5575b600080fd5b61006461005f366004611c2e565b6100b8565b6040805192835260208301919091520160405180910390f35b61009061008b366004611c5e565b610189565b005b6100906100a0366004611c2e565b6102ea565b6100906100b3366004611c5e565b6105da565b60008061014a836100c8856107ce565b6001600160a01b031663d17b71d7866040518263ffffffff1660e01b81526004016100f591815260200190565b60206040518083038186803b15801561010d57600080fd5b505afa158015610121573d6000803e3d6000fd5b505050506040513d601f19601f820116820180604052508101906101459190611c46565b61083b565b509150610182610159846108ff565b600101546001600160a01b031661016f856108ff565b600201546001600160a01b03168461091c565b9050915091565b60008080527f7b305b6be5f275f648d05716597c483d754c2a242bd605feba3c64fb853605366020527f63eec20f0ae1af135811da961c707cd581594291a92cf7bcd78c1cf1aca4e4b054600080516020611e818339815191529060ff161561020d5760405162461bcd60e51b815260040161020490611d56565b60405180910390fd5b60008281526002820160205260408120805460ff1916600117905580806102338161099e565b151514801561024d57508015156102498361099e565b1515145b610256826109b6565b906102745760405162461bcd60e51b81526004016102049190611cec565b507f50e75b23f8ec51bbcb044fe377457e835f3b5ccc7ebf69e80906452015dff607336102a18282610a1f565b6102bd5760405162461bcd60e51b815260040161020490611d1f565b6102ca8888336000610a53565b5050506000938452505060020160205260409020805460ff191690555050565b60008080527f7b305b6be5f275f648d05716597c483d754c2a242bd605feba3c64fb853605366020527f63eec20f0ae1af135811da961c707cd581594291a92cf7bcd78c1cf1aca4e4b054600080516020611e818339815191529060ff16156103655760405162461bcd60e51b815260040161020490611d56565b60008281526002820160205260408120805460ff19166001179055808061038b8161099e565b15151480156103a557508015156103a18361099e565b1515145b6103ae826109b6565b906103cc5760405162461bcd60e51b81526004016102049190611cec565b507f50e75b23f8ec51bbcb044fe377457e835f3b5ccc7ebf69e80906452015dff607336103f98282610a1f565b6104155760405162461bcd60e51b815260040161020490611d1f565b6000610420886108ff565b9050600061042d896107ce565b6001600160a01b031663d17b71d78a6040518263ffffffff1660e01b815260040161045a91815260200190565b60206040518083038186803b15801561047257600080fd5b505afa158015610486573d6000803e3d6000fd5b505050506040513d601f19601f820116820180604052508101906104aa9190611c46565b90506104b68982610e80565b61050c5760405162461bcd60e51b815260206004820152602160248201527f54656c6c65723a20646f6573206e6f74206e656564206c69717569646174696f6044820152603760f91b6064820152608401610204565b6000806105198b8461083b565b9150915060006105288c610fa3565b600101546105358d610fa3565b546105409190611d8d565b905061054f8c82336001610a53565b508215610563576105638c84848733610fc0565b845460408051338152602081018690529081018390526001600160a01b03909116908d907f9950a0562c02382e2e840daa73082d5be7660ce37601f28fa4c84089c11e8a069060600160405180910390a35050506000978852505050600290930160205250506040909120805460ff191690555050565b600080806105e78161099e565b151514801561060157508015156105fd8361099e565b1515145b61060a826109b6565b906106285760405162461bcd60e51b81526004016102049190611cec565b507f50e75b23f8ec51bbcb044fe377457e835f3b5ccc7ebf69e80906452015dff607336106558282610a1f565b6106715760405162461bcd60e51b815260040161020490611d1f565b60008080527f7b305b6be5f275f648d05716597c483d754c2a242bd605feba3c64fb853605366020527f63eec20f0ae1af135811da961c707cd581594291a92cf7bcd78c1cf1aca4e4b054600080516020611e818339815191529060ff16156106ec5760405162461bcd60e51b815260040161020490611d56565b60008281526002820160205260408120805460ff1916600117905561072689610714816108ff565b600101546001600160a01b03166110bd565b905060006107338a611155565b9050808210801561074357508189115b15610797576000818a116107605761075b838b611e0c565b61076a565b61076a8383611e0c565b90506107956107788c6108ff565b600101546001600160a01b03163361078f8e6111b7565b846111de565b505b6107ac8a8a6107a58d6111b7565b6000610a53565b505050600091825260020160205260409020805460ff19169055505050505050565b60009081527f0553069f1f0518e59f8623c18c83a1f987f2a0544d563e98dd803a7078142a8660209081526040808320600201546001600160a01b0390811684527f0553069f1f0518e59f8623c18c83a1f987f2a0544d563e98dd803a7078142a8b909252909120541690565b600080600061084985610fa3565b6001015461085686610fa3565b546108619190611d8d565b905060006108768261087161123c565b61126d565b6108809083611d8d565b905084156108cc576108bd610894876108ff565b600201546001600160a01b03166108aa886108ff565b600101546001600160a01b03168761091c565b92506108c98385611d8d565b93505b808410156108ea576108dd8661128a565b6108e79085611d8d565b93505b808411156108f6578093505b50509250929050565b6000610909611340565b6000928352600101602052506040902090565b60405163c05b1ec360e01b8152600090309063c05b1ec39061094690879087908790600401611cc8565b60206040518083038186803b15801561095e57600080fd5b505afa158015610972573d6000803e3d6000fd5b505050506040513d601f19601f820116820180604052508101906109969190611c46565b949350505050565b60008181526001602052604090205460ff165b919050565b6060816109eb576040518060400160405280601081526020016f14185d5cd8589b194e881c185d5cd95960821b815250610a19565b6040518060400160405280601481526020017314185d5cd8589b194e881b9bdd081c185d5cd95960621b8152505b92915050565b6000610a29611369565b6000938452602090815260408085206001600160a01b039490941685529290525090205460ff1690565b6000808411610a995760405162461bcd60e51b815260206004820152601260248201527154656c6c65723a207a65726f20726570617960701b6044820152606401610204565b610aa285610fa3565b60010154610aaf86610fa3565b54610aba9190611d8d565b905083811015610acd5792506000610ada565b610ad78482611e0c565b90505b60007f0553069f1f0518e59f8623c18c83a1f987f2a0544d563e98dd803a7078142a8d81610b07886108ff565b600101546001600160a01b039081168252602082019290925260400160002054811691508416610b36876111b7565b6001600160a01b03161415610bce57610b4e866111b7565b6001600160a01b031663125bfb66610b65886108ff565b600101546040516001600160e01b031960e084901b168152610b97916001600160a01b03169085908a90600401611cc8565b600060405180830381600087803b158015610bb157600080fd5b505af1158015610bc5573d6000803e3d6000fd5b50505050610bef565b610bef610bda876108ff565b600101546001600160a01b03168583886111de565b600080610bfb88610fa3565b60010154871015610c2f57508580610c1289610fa3565b6001016000828254610c249190611e0c565b90915550610c989050565b6000610c3a89610fa3565b600101541115610c6f57610c4d88610fa3565b600101549050610c5d8188611e0c565b96506000610c6a89610fa3565b600101555b8615610c985786915086610c8289610fa3565b8054600090610c92908490611e0c565b90915550505b604051638a700b5360e01b815260048101839052602481018290526001600160a01b03841690638a700b5390604401600060405180830381600087803b158015610ce157600080fd5b505af1158015610cf5573d6000803e3d6000fd5b505050508415610d9d578315610d4d5760405162461bcd60e51b815260206004820152601f60248201527f54656c6c65723a206c6971756964617465207061727469616c207265706179006044820152606401610204565b6004610d58896108ff565b600401601c6101000a81548160ff02191690836004811115610d8a57634e487b7160e01b600052602160045260246000fd5b0217905550610d988861137f565b610e75565b83610e1c576003610dad896108ff565b600401601c6101000a81548160ff02191690836004811115610ddf57634e487b7160e01b600052602160045260246000fd5b0217905550610e0088610df18a6108ff565b546001600160a01b031661144a565b610e1c88610e0d8a6108ff565b546001600160a01b03166114de565b610e25886108ff565b54604080518981523360208201529081018690526001600160a01b039091169089907f20a1f2ec363af45dc5ee7d9d622f2dd68b52501c382126c7f04b53663c4c69bf9060600160405180910390a35b505050949350505050565b600080610e8c846108ff565b90506002600482810154600160e01b900460ff1690811115610ebe57634e487b7160e01b600052602160045260246000fd5b14610ecd576000915050610a19565b6004810154600160d01b900461ffff1615610f6d576040516372e1132760e01b81526004810185905260009030906372e113279060240160606040518083038186803b158015610f1c57600080fd5b505afa158015610f30573d6000803e3d6000fd5b505050506040513d601f19601f82011682018060405250810190610f549190611c7f565b5091505083811115610f6b57600192505050610a19565b505b6004810154610f929063ffffffff600160801b8204811691600160a01b900416611da5565b63ffffffff16421015949350505050565b6000610fad611340565b6000928352600201602052506040902090565b6004610fcb866108ff565b600490810154600160e01b900460ff1690811115610ff957634e487b7160e01b600052602160045260246000fd5b146110465760405162461bcd60e51b815260206004820152601b60248201527f54656c6c65723a206c6f616e206e6f74206c69717569646174656400000000006044820152606401610204565b82841161109757600061108461105b876108ff565b600101546001600160a01b0316611071886108ff565b600201546001600160a01b03168761091c565b9050611091868284611553565b506110b6565b6110a2858383611553565b6110b685826110b18688611e0c565b611610565b5050505050565b6000816001600160a01b03166370a082316110d7856111b7565b6040516001600160e01b031960e084901b1681526001600160a01b03909116600482015260240160206040518083038186803b15801561111657600080fd5b505afa15801561112a573d6000803e3d6000fd5b505050506040513d601f19601f8201168201806040525081019061114e9190611c46565b9392505050565b60006002611162836108ff565b600490810154600160e01b900460ff169081111561119057634e487b7160e01b600052602160045260246000fd5b14156109b15761119f82610fa3565b600101546111ac83610fa3565b54610a199190611d8d565b60006111c1611340565b60009283526004016020525060409020546001600160a01b031690565b611236846323b872dd60e01b8585856040516024016111ff93929190611cc8565b60408051601f198184030181529190526020810180516001600160e01b03166001600160e01b0319909316929092179091526116b2565b50505050565b60006112677f5166f2578d96d76687be006158a90b639fcc7501b0381b6b4ed953aca3e0e183611784565b54919050565b600061271061128061ffff841685611ded565b61114e9190611dcd565b600080611296836108ff565b600101546001600160a01b031690506112af83826110bd565b6112b99083611d8d565b915060006112c68461178c565b905060006112d3826117a9565b11156113395760005b6112e5826117a9565b811015611337576000611301866112fc85856117b3565b6110bd565b905061131761131084846117b3565b858361091c565b6113219086611d8d565b945050808061132f90611e4f565b9150506112dc565b505b5050919050565b60007f0553069f1f0518e59f8623c18c83a1f987f2a0544d563e98dd803a7078142a855b905090565b6000600080516020611e81833981519152611364565b60006113896117bf565b60008381526001919091016020526040812091505b6113a7826117a9565b811015611445576006546001600160a01b03166001600160a01b03166323b872dd306000600901546001600160a01b03166113e286866117b3565b6040518463ffffffff1660e01b815260040161140093929190611cc8565b600060405180830381600087803b15801561141a57600080fd5b505af115801561142e573d6000803e3d6000fd5b50505050808061143d90611e4f565b91505061139e565b505050565b6114da82611457846107ce565b6001600160a01b031663d17b71d7856040518263ffffffff1660e01b815260040161148491815260200190565b60206040518083038186803b15801561149c57600080fd5b505afa1580156114b0573d6000803e3d6000fd5b505050506040513d601f19601f820116820180604052508101906114d49190611c46565b83611553565b5050565b60006114e86117bf565b60008481526001919091016020526040812091505b611506826117a9565b811015611236576115406115186117bf565b6001600160a01b03851660009081526020919091526040902061153b84846117b3565b6117e7565b508061154b81611e4f565b9150506114fd565b61155c836107ce565b604051630ad58d2f60e01b815260048101859052602481018490526001600160a01b0383811660448301529190911690630ad58d2f90606401600060405180830381600087803b1580156115af57600080fd5b505af11580156115c3573d6000803e3d6000fd5b50505050806001600160a01b0316837f7c5e5cb62e5ed3caf3764e4b0afedfedef533e27809d43367799787ad2abcd418460405161160391815260200190565b60405180910390a3505050565b60008381527f0553069f1f0518e59f8623c18c83a1f987f2a0544d563e98dd803a7078142a8a602052604090208161165f8561164b816108ff565b600101546001600160a01b031686846117f3565b905060005b61166d836117a9565b8110156116aa578161168157505050611445565b6116968661168f85846117b3565b87856117f3565b9150806116a281611e4f565b915050611664565b505050505050565b6000611707826040518060400160405280602081526020017f5361666545524332303a206c6f772d6c6576656c2063616c6c206661696c6564815250856001600160a01b031661198e9092919063ffffffff16565b80519091501561144557808060200190518101906117259190611c0e565b6114455760405162461bcd60e51b815260206004820152602a60248201527f5361666545524332303a204552433230206f7065726174696f6e20646964206e6044820152691bdd081cdd58d8d9595960b21b6064820152608401610204565b600080610fad565b6000611796611340565b6000928352600501602052506040902090565b6000610a19825490565b600061114e838361199d565b60007f36ec560bcbaf142f58499b90035254e32b3f3563174bc96dc2b2724bafa4c2a7611364565b600061114e8383611a31565b60008061180086866110bd565b90508015611984576000611813876108ff565b600101546001600160a01b0387811691161415611831575080611854565b6118518661183e896108ff565b600101546001600160a01b03168461091c565b90505b8381116118d857611864876111b7565b6001600160a01b031663125bfb668787856040518463ffffffff1660e01b815260040161189393929190611cc8565b600060405180830381600087803b1580156118ad57600080fd5b505af11580156118c1573d6000803e3d6000fd5b5050505080846118d19190611e0c565b9350611982565b60006118e3886108ff565b600101546001600160a01b0388811691161415611901575083611912565b61190f836108718785611a80565b90505b61191b886111b7565b6001600160a01b031663125bfb668888846040518463ffffffff1660e01b815260040161194a93929190611cc8565b600060405180830381600087803b15801561196457600080fd5b505af1158015611978573d6000803e3d6000fd5b5050505060009450505b505b5090949350505050565b60606109968484600085611aad565b815460009082106119fb5760405162461bcd60e51b815260206004820152602260248201527f456e756d657261626c655365743a20696e646578206f7574206f6620626f756e604482015261647360f01b6064820152608401610204565b826000018281548110611a1e57634e487b7160e01b600052603260045260246000fd5b9060005260206000200154905092915050565b6000818152600183016020526040812054611a7857508154600181810184556000848152602080822090930184905584548482528286019093526040902091909155610a19565b506000610a19565b60008115611aa45781611a9561271085611ded565b611a9f9190611dcd565b61114e565b50600092915050565b606082471015611b0e5760405162461bcd60e51b815260206004820152602660248201527f416464726573733a20696e73756666696369656e742062616c616e636520666f6044820152651c8818d85b1b60d21b6064820152608401610204565b843b611b5c5760405162461bcd60e51b815260206004820152601d60248201527f416464726573733a2063616c6c20746f206e6f6e2d636f6e74726163740000006044820152606401610204565b600080866001600160a01b03168587604051611b789190611cac565b60006040518083038185875af1925050503d8060008114611bb5576040519150601f19603f3d011682016040523d82523d6000602084013e611bba565b606091505b5091509150611bca828286611bd5565b979650505050505050565b60608315611be457508161114e565b825115611bf45782518084602001fd5b8160405162461bcd60e51b81526004016102049190611cec565b600060208284031215611c1f578081fd5b8151801515811461114e578182fd5b600060208284031215611c3f578081fd5b5035919050565b600060208284031215611c57578081fd5b5051919050565b60008060408385031215611c70578081fd5b50508035926020909101359150565b600080600060608486031215611c93578081fd5b8351925060208401519150604084015190509250925092565b60008251611cbe818460208701611e23565b9190910192915050565b6001600160a01b039384168152919092166020820152604081019190915260600190565b6000602082528251806020840152611d0b816040850160208701611e23565b601f01601f19169190910160400192915050565b6020808252601d908201527f416363657373436f6e74726f6c3a206e6f7420617574686f72697a6564000000604082015260600190565b60208082526018908201527f416363657373436f6e74726f6c3a207265656e74657265640000000000000000604082015260600190565b60008219821115611da057611da0611e6a565b500190565b600063ffffffff808316818516808303821115611dc457611dc4611e6a565b01949350505050565b600082611de857634e487b7160e01b81526012600452602481fd5b500490565b6000816000190483118215151615611e0757611e07611e6a565b500290565b600082821015611e1e57611e1e611e6a565b500390565b60005b83811015611e3e578181015183820152602001611e26565b838111156112365750506000910152565b6000600019821415611e6357611e63611e6a565b5060010190565b634e487b7160e01b600052601160045260246000fdfe7b305b6be5f275f648d05716597c483d754c2a242bd605feba3c64fb85360534a2646970667358221220d5fa76795c3bc3b50f0ecb4b820f387bf0b0584a2e37ed8d3dfd54c4ee4a997364736f6c63430008030033",
      "deployedBytecode": "0x608060405234801561001057600080fd5b506004361061004c5760003560e01c80635ebc6334146100515780638a700b531461007d578063ccdd9f5d14610092578063e89ad656146100a5575b600080fd5b61006461005f366004611c2e565b6100b8565b6040805192835260208301919091520160405180910390f35b61009061008b366004611c5e565b610189565b005b6100906100a0366004611c2e565b6102ea565b6100906100b3366004611c5e565b6105da565b60008061014a836100c8856107ce565b6001600160a01b031663d17b71d7866040518263ffffffff1660e01b81526004016100f591815260200190565b60206040518083038186803b15801561010d57600080fd5b505afa158015610121573d6000803e3d6000fd5b505050506040513d601f19601f820116820180604052508101906101459190611c46565b61083b565b509150610182610159846108ff565b600101546001600160a01b031661016f856108ff565b600201546001600160a01b03168461091c565b9050915091565b60008080527f7b305b6be5f275f648d05716597c483d754c2a242bd605feba3c64fb853605366020527f63eec20f0ae1af135811da961c707cd581594291a92cf7bcd78c1cf1aca4e4b054600080516020611e818339815191529060ff161561020d5760405162461bcd60e51b815260040161020490611d56565b60405180910390fd5b60008281526002820160205260408120805460ff1916600117905580806102338161099e565b151514801561024d57508015156102498361099e565b1515145b610256826109b6565b906102745760405162461bcd60e51b81526004016102049190611cec565b507f50e75b23f8ec51bbcb044fe377457e835f3b5ccc7ebf69e80906452015dff607336102a18282610a1f565b6102bd5760405162461bcd60e51b815260040161020490611d1f565b6102ca8888336000610a53565b5050506000938452505060020160205260409020805460ff191690555050565b60008080527f7b305b6be5f275f648d05716597c483d754c2a242bd605feba3c64fb853605366020527f63eec20f0ae1af135811da961c707cd581594291a92cf7bcd78c1cf1aca4e4b054600080516020611e818339815191529060ff16156103655760405162461bcd60e51b815260040161020490611d56565b60008281526002820160205260408120805460ff19166001179055808061038b8161099e565b15151480156103a557508015156103a18361099e565b1515145b6103ae826109b6565b906103cc5760405162461bcd60e51b81526004016102049190611cec565b507f50e75b23f8ec51bbcb044fe377457e835f3b5ccc7ebf69e80906452015dff607336103f98282610a1f565b6104155760405162461bcd60e51b815260040161020490611d1f565b6000610420886108ff565b9050600061042d896107ce565b6001600160a01b031663d17b71d78a6040518263ffffffff1660e01b815260040161045a91815260200190565b60206040518083038186803b15801561047257600080fd5b505afa158015610486573d6000803e3d6000fd5b505050506040513d601f19601f820116820180604052508101906104aa9190611c46565b90506104b68982610e80565b61050c5760405162461bcd60e51b815260206004820152602160248201527f54656c6c65723a20646f6573206e6f74206e656564206c69717569646174696f6044820152603760f91b6064820152608401610204565b6000806105198b8461083b565b9150915060006105288c610fa3565b600101546105358d610fa3565b546105409190611d8d565b905061054f8c82336001610a53565b508215610563576105638c84848733610fc0565b845460408051338152602081018690529081018390526001600160a01b03909116908d907f9950a0562c02382e2e840daa73082d5be7660ce37601f28fa4c84089c11e8a069060600160405180910390a35050506000978852505050600290930160205250506040909120805460ff191690555050565b600080806105e78161099e565b151514801561060157508015156105fd8361099e565b1515145b61060a826109b6565b906106285760405162461bcd60e51b81526004016102049190611cec565b507f50e75b23f8ec51bbcb044fe377457e835f3b5ccc7ebf69e80906452015dff607336106558282610a1f565b6106715760405162461bcd60e51b815260040161020490611d1f565b60008080527f7b305b6be5f275f648d05716597c483d754c2a242bd605feba3c64fb853605366020527f63eec20f0ae1af135811da961c707cd581594291a92cf7bcd78c1cf1aca4e4b054600080516020611e818339815191529060ff16156106ec5760405162461bcd60e51b815260040161020490611d56565b60008281526002820160205260408120805460ff1916600117905561072689610714816108ff565b600101546001600160a01b03166110bd565b905060006107338a611155565b9050808210801561074357508189115b15610797576000818a116107605761075b838b611e0c565b61076a565b61076a8383611e0c565b90506107956107788c6108ff565b600101546001600160a01b03163361078f8e6111b7565b846111de565b505b6107ac8a8a6107a58d6111b7565b6000610a53565b505050600091825260020160205260409020805460ff19169055505050505050565b60009081527f0553069f1f0518e59f8623c18c83a1f987f2a0544d563e98dd803a7078142a8660209081526040808320600201546001600160a01b0390811684527f0553069f1f0518e59f8623c18c83a1f987f2a0544d563e98dd803a7078142a8b909252909120541690565b600080600061084985610fa3565b6001015461085686610fa3565b546108619190611d8d565b905060006108768261087161123c565b61126d565b6108809083611d8d565b905084156108cc576108bd610894876108ff565b600201546001600160a01b03166108aa886108ff565b600101546001600160a01b03168761091c565b92506108c98385611d8d565b93505b808410156108ea576108dd8661128a565b6108e79085611d8d565b93505b808411156108f6578093505b50509250929050565b6000610909611340565b6000928352600101602052506040902090565b60405163c05b1ec360e01b8152600090309063c05b1ec39061094690879087908790600401611cc8565b60206040518083038186803b15801561095e57600080fd5b505afa158015610972573d6000803e3d6000fd5b505050506040513d601f19601f820116820180604052508101906109969190611c46565b949350505050565b60008181526001602052604090205460ff165b919050565b6060816109eb576040518060400160405280601081526020016f14185d5cd8589b194e881c185d5cd95960821b815250610a19565b6040518060400160405280601481526020017314185d5cd8589b194e881b9bdd081c185d5cd95960621b8152505b92915050565b6000610a29611369565b6000938452602090815260408085206001600160a01b039490941685529290525090205460ff1690565b6000808411610a995760405162461bcd60e51b815260206004820152601260248201527154656c6c65723a207a65726f20726570617960701b6044820152606401610204565b610aa285610fa3565b60010154610aaf86610fa3565b54610aba9190611d8d565b905083811015610acd5792506000610ada565b610ad78482611e0c565b90505b60007f0553069f1f0518e59f8623c18c83a1f987f2a0544d563e98dd803a7078142a8d81610b07886108ff565b600101546001600160a01b039081168252602082019290925260400160002054811691508416610b36876111b7565b6001600160a01b03161415610bce57610b4e866111b7565b6001600160a01b031663125bfb66610b65886108ff565b600101546040516001600160e01b031960e084901b168152610b97916001600160a01b03169085908a90600401611cc8565b600060405180830381600087803b158015610bb157600080fd5b505af1158015610bc5573d6000803e3d6000fd5b50505050610bef565b610bef610bda876108ff565b600101546001600160a01b03168583886111de565b600080610bfb88610fa3565b60010154871015610c2f57508580610c1289610fa3565b6001016000828254610c249190611e0c565b90915550610c989050565b6000610c3a89610fa3565b600101541115610c6f57610c4d88610fa3565b600101549050610c5d8188611e0c565b96506000610c6a89610fa3565b600101555b8615610c985786915086610c8289610fa3565b8054600090610c92908490611e0c565b90915550505b604051638a700b5360e01b815260048101839052602481018290526001600160a01b03841690638a700b5390604401600060405180830381600087803b158015610ce157600080fd5b505af1158015610cf5573d6000803e3d6000fd5b505050508415610d9d578315610d4d5760405162461bcd60e51b815260206004820152601f60248201527f54656c6c65723a206c6971756964617465207061727469616c207265706179006044820152606401610204565b6004610d58896108ff565b600401601c6101000a81548160ff02191690836004811115610d8a57634e487b7160e01b600052602160045260246000fd5b0217905550610d988861137f565b610e75565b83610e1c576003610dad896108ff565b600401601c6101000a81548160ff02191690836004811115610ddf57634e487b7160e01b600052602160045260246000fd5b0217905550610e0088610df18a6108ff565b546001600160a01b031661144a565b610e1c88610e0d8a6108ff565b546001600160a01b03166114de565b610e25886108ff565b54604080518981523360208201529081018690526001600160a01b039091169089907f20a1f2ec363af45dc5ee7d9d622f2dd68b52501c382126c7f04b53663c4c69bf9060600160405180910390a35b505050949350505050565b600080610e8c846108ff565b90506002600482810154600160e01b900460ff1690811115610ebe57634e487b7160e01b600052602160045260246000fd5b14610ecd576000915050610a19565b6004810154600160d01b900461ffff1615610f6d576040516372e1132760e01b81526004810185905260009030906372e113279060240160606040518083038186803b158015610f1c57600080fd5b505afa158015610f30573d6000803e3d6000fd5b505050506040513d601f19601f82011682018060405250810190610f549190611c7f565b5091505083811115610f6b57600192505050610a19565b505b6004810154610f929063ffffffff600160801b8204811691600160a01b900416611da5565b63ffffffff16421015949350505050565b6000610fad611340565b6000928352600201602052506040902090565b6004610fcb866108ff565b600490810154600160e01b900460ff1690811115610ff957634e487b7160e01b600052602160045260246000fd5b146110465760405162461bcd60e51b815260206004820152601b60248201527f54656c6c65723a206c6f616e206e6f74206c69717569646174656400000000006044820152606401610204565b82841161109757600061108461105b876108ff565b600101546001600160a01b0316611071886108ff565b600201546001600160a01b03168761091c565b9050611091868284611553565b506110b6565b6110a2858383611553565b6110b685826110b18688611e0c565b611610565b5050505050565b6000816001600160a01b03166370a082316110d7856111b7565b6040516001600160e01b031960e084901b1681526001600160a01b03909116600482015260240160206040518083038186803b15801561111657600080fd5b505afa15801561112a573d6000803e3d6000fd5b505050506040513d601f19601f8201168201806040525081019061114e9190611c46565b9392505050565b60006002611162836108ff565b600490810154600160e01b900460ff169081111561119057634e487b7160e01b600052602160045260246000fd5b14156109b15761119f82610fa3565b600101546111ac83610fa3565b54610a199190611d8d565b60006111c1611340565b60009283526004016020525060409020546001600160a01b031690565b611236846323b872dd60e01b8585856040516024016111ff93929190611cc8565b60408051601f198184030181529190526020810180516001600160e01b03166001600160e01b0319909316929092179091526116b2565b50505050565b60006112677f5166f2578d96d76687be006158a90b639fcc7501b0381b6b4ed953aca3e0e183611784565b54919050565b600061271061128061ffff841685611ded565b61114e9190611dcd565b600080611296836108ff565b600101546001600160a01b031690506112af83826110bd565b6112b99083611d8d565b915060006112c68461178c565b905060006112d3826117a9565b11156113395760005b6112e5826117a9565b811015611337576000611301866112fc85856117b3565b6110bd565b905061131761131084846117b3565b858361091c565b6113219086611d8d565b945050808061132f90611e4f565b9150506112dc565b505b5050919050565b60007f0553069f1f0518e59f8623c18c83a1f987f2a0544d563e98dd803a7078142a855b905090565b6000600080516020611e81833981519152611364565b60006113896117bf565b60008381526001919091016020526040812091505b6113a7826117a9565b811015611445576006546001600160a01b03166001600160a01b03166323b872dd306000600901546001600160a01b03166113e286866117b3565b6040518463ffffffff1660e01b815260040161140093929190611cc8565b600060405180830381600087803b15801561141a57600080fd5b505af115801561142e573d6000803e3d6000fd5b50505050808061143d90611e4f565b91505061139e565b505050565b6114da82611457846107ce565b6001600160a01b031663d17b71d7856040518263ffffffff1660e01b815260040161148491815260200190565b60206040518083038186803b15801561149c57600080fd5b505afa1580156114b0573d6000803e3d6000fd5b505050506040513d601f19601f820116820180604052508101906114d49190611c46565b83611553565b5050565b60006114e86117bf565b60008481526001919091016020526040812091505b611506826117a9565b811015611236576115406115186117bf565b6001600160a01b03851660009081526020919091526040902061153b84846117b3565b6117e7565b508061154b81611e4f565b9150506114fd565b61155c836107ce565b604051630ad58d2f60e01b815260048101859052602481018490526001600160a01b0383811660448301529190911690630ad58d2f90606401600060405180830381600087803b1580156115af57600080fd5b505af11580156115c3573d6000803e3d6000fd5b50505050806001600160a01b0316837f7c5e5cb62e5ed3caf3764e4b0afedfedef533e27809d43367799787ad2abcd418460405161160391815260200190565b60405180910390a3505050565b60008381527f0553069f1f0518e59f8623c18c83a1f987f2a0544d563e98dd803a7078142a8a602052604090208161165f8561164b816108ff565b600101546001600160a01b031686846117f3565b905060005b61166d836117a9565b8110156116aa578161168157505050611445565b6116968661168f85846117b3565b87856117f3565b9150806116a281611e4f565b915050611664565b505050505050565b6000611707826040518060400160405280602081526020017f5361666545524332303a206c6f772d6c6576656c2063616c6c206661696c6564815250856001600160a01b031661198e9092919063ffffffff16565b80519091501561144557808060200190518101906117259190611c0e565b6114455760405162461bcd60e51b815260206004820152602a60248201527f5361666545524332303a204552433230206f7065726174696f6e20646964206e6044820152691bdd081cdd58d8d9595960b21b6064820152608401610204565b600080610fad565b6000611796611340565b6000928352600501602052506040902090565b6000610a19825490565b600061114e838361199d565b60007f36ec560bcbaf142f58499b90035254e32b3f3563174bc96dc2b2724bafa4c2a7611364565b600061114e8383611a31565b60008061180086866110bd565b90508015611984576000611813876108ff565b600101546001600160a01b0387811691161415611831575080611854565b6118518661183e896108ff565b600101546001600160a01b03168461091c565b90505b8381116118d857611864876111b7565b6001600160a01b031663125bfb668787856040518463ffffffff1660e01b815260040161189393929190611cc8565b600060405180830381600087803b1580156118ad57600080fd5b505af11580156118c1573d6000803e3d6000fd5b5050505080846118d19190611e0c565b9350611982565b60006118e3886108ff565b600101546001600160a01b0388811691161415611901575083611912565b61190f836108718785611a80565b90505b61191b886111b7565b6001600160a01b031663125bfb668888846040518463ffffffff1660e01b815260040161194a93929190611cc8565b600060405180830381600087803b15801561196457600080fd5b505af1158015611978573d6000803e3d6000fd5b5050505060009450505b505b5090949350505050565b60606109968484600085611aad565b815460009082106119fb5760405162461bcd60e51b815260206004820152602260248201527f456e756d657261626c655365743a20696e646578206f7574206f6620626f756e604482015261647360f01b6064820152608401610204565b826000018281548110611a1e57634e487b7160e01b600052603260045260246000fd5b9060005260206000200154905092915050565b6000818152600183016020526040812054611a7857508154600181810184556000848152602080822090930184905584548482528286019093526040902091909155610a19565b506000610a19565b60008115611aa45781611a9561271085611ded565b611a9f9190611dcd565b61114e565b50600092915050565b606082471015611b0e5760405162461bcd60e51b815260206004820152602660248201527f416464726573733a20696e73756666696369656e742062616c616e636520666f6044820152651c8818d85b1b60d21b6064820152608401610204565b843b611b5c5760405162461bcd60e51b815260206004820152601d60248201527f416464726573733a2063616c6c20746f206e6f6e2d636f6e74726163740000006044820152606401610204565b600080866001600160a01b03168587604051611b789190611cac565b60006040518083038185875af1925050503d8060008114611bb5576040519150601f19603f3d011682016040523d82523d6000602084013e611bba565b606091505b5091509150611bca828286611bd5565b979650505050505050565b60608315611be457508161114e565b825115611bf45782518084602001fd5b8160405162461bcd60e51b81526004016102049190611cec565b600060208284031215611c1f578081fd5b8151801515811461114e578182fd5b600060208284031215611c3f578081fd5b5035919050565b600060208284031215611c57578081fd5b5051919050565b60008060408385031215611c70578081fd5b50508035926020909101359150565b600080600060608486031215611c93578081fd5b8351925060208401519150604084015190509250925092565b60008251611cbe818460208701611e23565b9190910192915050565b6001600160a01b039384168152919092166020820152604081019190915260600190565b6000602082528251806020840152611d0b816040850160208701611e23565b601f01601f19169190910160400192915050565b6020808252601d908201527f416363657373436f6e74726f6c3a206e6f7420617574686f72697a6564000000604082015260600190565b60208082526018908201527f416363657373436f6e74726f6c3a207265656e74657265640000000000000000604082015260600190565b60008219821115611da057611da0611e6a565b500190565b600063ffffffff808316818516808303821115611dc457611dc4611e6a565b01949350505050565b600082611de857634e487b7160e01b81526012600452602481fd5b500490565b6000816000190483118215151615611e0757611e07611e6a565b500290565b600082821015611e1e57611e1e611e6a565b500390565b60005b83811015611e3e578181015183820152602001611e26565b838111156112365750506000910152565b6000600019821415611e6357611e63611e6a565b5060010190565b634e487b7160e01b600052601160045260246000fdfe7b305b6be5f275f648d05716597c483d754c2a242bd605feba3c64fb85360534a2646970667358221220d5fa76795c3bc3b50f0ecb4b820f387bf0b0584a2e37ed8d3dfd54c4ee4a997364736f6c63430008030033",
      "history": [
        {
          "address": "0xD99dFbd7eE2cc714DEbff8390C33f0dBB1502eD2",
          "abi": [
            {
              "anonymous": false,
              "inputs": [
                {
                  "indexed": true,
                  "internalType": "uint256",
                  "name": "loanID",
                  "type": "uint256"
                },
                {
                  "indexed": true,
                  "internalType": "address",
                  "name": "borrower",
                  "type": "address"
                },
                {
                  "indexed": false,
                  "internalType": "address",
                  "name": "liquidator",
                  "type": "address"
                },
                {
                  "indexed": false,
                  "internalType": "uint256",
                  "name": "reward",
                  "type": "uint256"
                },
                {
                  "indexed": false,
                  "internalType": "uint256",
                  "name": "tokensIn",
                  "type": "uint256"
                }
              ],
              "name": "LoanLiquidated",
              "type": "event"
            },
            {
              "anonymous": false,
              "inputs": [
                {
                  "indexed": true,
                  "internalType": "uint256",
                  "name": "loanID",
                  "type": "uint256"
                },
                {
                  "indexed": true,
                  "internalType": "address",
                  "name": "borrower",
                  "type": "address"
                },
                {
                  "indexed": false,
                  "internalType": "uint256",
                  "name": "amountPaid",
                  "type": "uint256"
                },
                {
                  "indexed": false,
                  "internalType": "address",
                  "name": "payer",
                  "type": "address"
                },
                {
                  "indexed": false,
                  "internalType": "uint256",
                  "name": "totalOwed",
                  "type": "uint256"
                }
              ],
              "name": "LoanRepaid",
              "type": "event"
            },
            {
              "inputs": [
                {
                  "internalType": "uint256",
                  "name": "loanID",
                  "type": "uint256"
                },
                {
                  "internalType": "uint256",
                  "name": "amount",
                  "type": "uint256"
                }
              ],
              "name": "escrowRepay",
              "outputs": [],
              "stateMutability": "nonpayable",
              "type": "function"
            },
            {
              "inputs": [
                {
                  "internalType": "uint256",
                  "name": "loanID",
                  "type": "uint256"
                }
              ],
              "name": "getLiquidationReward",
              "outputs": [
                {
                  "internalType": "uint256",
                  "name": "inLending_",
                  "type": "uint256"
                },
                {
                  "internalType": "uint256",
                  "name": "inCollateral_",
                  "type": "uint256"
                }
              ],
              "stateMutability": "view",
              "type": "function"
            },
            {
              "inputs": [
                {
                  "internalType": "uint256",
                  "name": "loanID",
                  "type": "uint256"
                }
              ],
              "name": "liquidateLoan",
              "outputs": [],
              "stateMutability": "nonpayable",
              "type": "function"
            },
            {
              "inputs": [
                {
                  "internalType": "uint256",
                  "name": "loanID",
                  "type": "uint256"
                },
                {
                  "internalType": "uint256",
                  "name": "amount",
                  "type": "uint256"
                }
              ],
              "name": "repayLoan",
              "outputs": [],
              "stateMutability": "nonpayable",
              "type": "function"
            }
          ],
          "artifactName": "RepayFacet",
          "transactionHash": "0x44d6b974ec21f1c4420ecb2be53506c60d1abe4b5fac2a2b5352ae4a3fb3bb5d",
          "receipt": {
            "to": null,
            "from": "0xAFe87013dc96edE1E116a288D80FcaA0eFFE5fe5",
            "contractAddress": "0xD99dFbd7eE2cc714DEbff8390C33f0dBB1502eD2",
            "transactionIndex": 0,
            "gasUsed": "1838004",
            "logsBloom": "0x00000000000000000000000000000000000000000000000000000000000000000000000000000000000000000000000000000000000000000000000000000000000000000000000000000000000000000000000000000000000000000000000000000000000000000000000000000000000000000000000000000000000000000000000000000000000000000000000000000000000000000000000000000000000000000000000000000000000000000000000000000000000000000000000000000000000000000000000000000000000000000000000000000000000000000000000000000000000000000000000000000000000000000000000000000000",
            "blockHash": "0xecd0c4fcd32a0e212c29bf1a50f9095c4551299b06f40b8cb32c08eeeb3ab526",
            "transactionHash": "0x44d6b974ec21f1c4420ecb2be53506c60d1abe4b5fac2a2b5352ae4a3fb3bb5d",
            "logs": [],
            "blockNumber": 25103793,
            "cumulativeGasUsed": "1838004",
            "status": 1,
            "byzantium": true
          },
          "args": [],
          "solcInputHash": "dc3b3c0336b59a4fae33a8cd036a81b5",
          "metadata": "{\"compiler\":{\"version\":\"0.8.3+commit.8d00100c\"},\"language\":\"Solidity\",\"output\":{\"abi\":[{\"anonymous\":false,\"inputs\":[{\"indexed\":true,\"internalType\":\"uint256\",\"name\":\"loanID\",\"type\":\"uint256\"},{\"indexed\":true,\"internalType\":\"address\",\"name\":\"borrower\",\"type\":\"address\"},{\"indexed\":false,\"internalType\":\"address\",\"name\":\"liquidator\",\"type\":\"address\"},{\"indexed\":false,\"internalType\":\"uint256\",\"name\":\"reward\",\"type\":\"uint256\"},{\"indexed\":false,\"internalType\":\"uint256\",\"name\":\"tokensIn\",\"type\":\"uint256\"}],\"name\":\"LoanLiquidated\",\"type\":\"event\"},{\"anonymous\":false,\"inputs\":[{\"indexed\":true,\"internalType\":\"uint256\",\"name\":\"loanID\",\"type\":\"uint256\"},{\"indexed\":true,\"internalType\":\"address\",\"name\":\"borrower\",\"type\":\"address\"},{\"indexed\":false,\"internalType\":\"uint256\",\"name\":\"amountPaid\",\"type\":\"uint256\"},{\"indexed\":false,\"internalType\":\"address\",\"name\":\"payer\",\"type\":\"address\"},{\"indexed\":false,\"internalType\":\"uint256\",\"name\":\"totalOwed\",\"type\":\"uint256\"}],\"name\":\"LoanRepaid\",\"type\":\"event\"},{\"inputs\":[{\"internalType\":\"uint256\",\"name\":\"loanID\",\"type\":\"uint256\"},{\"internalType\":\"uint256\",\"name\":\"amount\",\"type\":\"uint256\"}],\"name\":\"escrowRepay\",\"outputs\":[],\"stateMutability\":\"nonpayable\",\"type\":\"function\"},{\"inputs\":[{\"internalType\":\"uint256\",\"name\":\"loanID\",\"type\":\"uint256\"}],\"name\":\"getLiquidationReward\",\"outputs\":[{\"internalType\":\"uint256\",\"name\":\"inLending_\",\"type\":\"uint256\"},{\"internalType\":\"uint256\",\"name\":\"inCollateral_\",\"type\":\"uint256\"}],\"stateMutability\":\"view\",\"type\":\"function\"},{\"inputs\":[{\"internalType\":\"uint256\",\"name\":\"loanID\",\"type\":\"uint256\"}],\"name\":\"liquidateLoan\",\"outputs\":[],\"stateMutability\":\"nonpayable\",\"type\":\"function\"},{\"inputs\":[{\"internalType\":\"uint256\",\"name\":\"loanID\",\"type\":\"uint256\"},{\"internalType\":\"uint256\",\"name\":\"amount\",\"type\":\"uint256\"}],\"name\":\"repayLoan\",\"outputs\":[],\"stateMutability\":\"nonpayable\",\"type\":\"function\"}],\"devdoc\":{\"events\":{\"LoanLiquidated(uint256,address,address,uint256,uint256)\":{\"params\":{\"borrower\":\"Account address of the borrower\",\"liquidator\":\"Account address of the liquidator\",\"loanID\":\"ID of loan from which collateral was withdrawn\",\"reward\":\"Value in lending token paid out to liquidator\",\"tokensIn\":\"Percentage of the collateral price paid by the liquidator to the lending pool\"}},\"LoanRepaid(uint256,address,uint256,address,uint256)\":{\"params\":{\"amountPaid\":\"Amount of the loan paid back\",\"borrower\":\"Account address of the borrower\",\"loanID\":\"ID of loan from which collateral was withdrawn\",\"payer\":\"Account address of the payer\",\"totalOwed\":\"Total amount of the loan to be repaid\"}}},\"kind\":\"dev\",\"methods\":{\"escrowRepay(uint256,uint256)\":{\"details\":\"If the Escrow's balance of the borrowed token is less than the amount to repay, transfer tokens from the sender's wallet.Only the owner of the Escrow can call this. If someone else wants to make a payment, they should call the loan manager directly.\",\"params\":{\"amount\":\"The amount being repaid.\",\"loanID\":\"The id of the loan being used.\"}},\"getLiquidationReward(uint256)\":{\"params\":{\"loanID\":\"The loan ID to get the info.\"},\"returns\":{\"inCollateral_\":\"The value the liquidator will receive denoted in collateral tokens.\",\"inLending_\":\"The value the liquidator will receive denoted in lending tokens.\"}},\"liquidateLoan(uint256)\":{\"params\":{\"loanID\":\"The ID of the loan to be liquidated\"}},\"repayLoan(uint256,uint256)\":{\"params\":{\"amount\":\"The amount of tokens to pay back to the loan\",\"loanID\":\"The ID of the loan the payment is for\"}}},\"version\":1},\"userdoc\":{\"events\":{\"LoanLiquidated(uint256,address,address,uint256,uint256)\":{\"notice\":\"This event is emitted when a loan has been successfully liquidated\"},\"LoanRepaid(uint256,address,uint256,address,uint256)\":{\"notice\":\"This event is emitted when a loan has been successfully repaid\"}},\"kind\":\"user\",\"methods\":{\"escrowRepay(uint256,uint256)\":{\"notice\":\"Repay this Escrow's loan.\"},\"getLiquidationReward(uint256)\":{\"notice\":\"It gets the current liquidation reward for a given loan.\"},\"liquidateLoan(uint256)\":{\"notice\":\"Liquidate a loan if it is expired or under collateralized\"},\"repayLoan(uint256,uint256)\":{\"notice\":\"Make a payment to a loan\"}},\"version\":1}},\"settings\":{\"compilationTarget\":{\"contracts/market/RepayFacet.sol\":\"RepayFacet\"},\"evmVersion\":\"istanbul\",\"libraries\":{},\"metadata\":{\"bytecodeHash\":\"ipfs\",\"useLiteralContent\":true},\"optimizer\":{\"enabled\":true,\"runs\":200},\"remappings\":[]},\"sources\":{\"@chainlink/contracts/src/v0.8/interfaces/AggregatorInterface.sol\":{\"content\":\"// SPDX-License-Identifier: MIT\\npragma solidity ^0.8.0;\\n\\ninterface AggregatorInterface {\\n  function latestAnswer()\\n    external\\n    view\\n    returns (\\n      int256\\n    );\\n  \\n  function latestTimestamp()\\n    external\\n    view\\n    returns (\\n      uint256\\n    );\\n\\n  function latestRound()\\n    external\\n    view\\n    returns (\\n      uint256\\n    );\\n\\n  function getAnswer(\\n    uint256 roundId\\n  )\\n    external\\n    view\\n    returns (\\n      int256\\n    );\\n\\n  function getTimestamp(\\n    uint256 roundId\\n  )\\n    external\\n    view\\n    returns (\\n      uint256\\n    );\\n\\n  event AnswerUpdated(\\n    int256 indexed current,\\n    uint256 indexed roundId,\\n    uint256 updatedAt\\n  );\\n\\n  event NewRound(\\n    uint256 indexed roundId,\\n    address indexed startedBy,\\n    uint256 startedAt\\n  );\\n}\\n\",\"keccak256\":\"0x1a5dc81544a6479f64437a8aca22c869769dd54ee3522c7ef5ebae0d329a28f0\",\"license\":\"MIT\"},\"@chainlink/contracts/src/v0.8/interfaces/AggregatorV2V3Interface.sol\":{\"content\":\"// SPDX-License-Identifier: MIT\\npragma solidity ^0.8.0;\\n\\nimport \\\"./AggregatorInterface.sol\\\";\\nimport \\\"./AggregatorV3Interface.sol\\\";\\n\\ninterface AggregatorV2V3Interface is AggregatorInterface, AggregatorV3Interface\\n{\\n}\\n\",\"keccak256\":\"0xe8f8d98b515366730824d24269c7267eee7f0288cf737db8659acbb0c751eb53\",\"license\":\"MIT\"},\"@chainlink/contracts/src/v0.8/interfaces/AggregatorV3Interface.sol\":{\"content\":\"// SPDX-License-Identifier: MIT\\npragma solidity ^0.8.0;\\n\\ninterface AggregatorV3Interface {\\n\\n  function decimals()\\n    external\\n    view\\n    returns (\\n      uint8\\n    );\\n\\n  function description()\\n    external\\n    view\\n    returns (\\n      string memory\\n    );\\n\\n  function version()\\n    external\\n    view\\n    returns (\\n      uint256\\n    );\\n\\n  // getRoundData and latestRoundData should both raise \\\"No data present\\\"\\n  // if they do not have data to report, instead of returning unset values\\n  // which could be misinterpreted as actual reported values.\\n  function getRoundData(\\n    uint80 _roundId\\n  )\\n    external\\n    view\\n    returns (\\n      uint80 roundId,\\n      int256 answer,\\n      uint256 startedAt,\\n      uint256 updatedAt,\\n      uint80 answeredInRound\\n    );\\n\\n  function latestRoundData()\\n    external\\n    view\\n    returns (\\n      uint80 roundId,\\n      int256 answer,\\n      uint256 startedAt,\\n      uint256 updatedAt,\\n      uint80 answeredInRound\\n    );\\n\\n}\\n\",\"keccak256\":\"0xe6f5ac8c47f3b9b6135051efb9216f9ba5b312a6ecc20209b4f66a780443c328\",\"license\":\"MIT\"},\"@openzeppelin/contracts-upgradeable/access/AccessControlUpgradeable.sol\":{\"content\":\"// SPDX-License-Identifier: MIT\\n\\npragma solidity ^0.8.0;\\n\\nimport \\\"../utils/ContextUpgradeable.sol\\\";\\nimport \\\"../utils/StringsUpgradeable.sol\\\";\\nimport \\\"../utils/introspection/ERC165Upgradeable.sol\\\";\\nimport \\\"../proxy/utils/Initializable.sol\\\";\\n\\n/**\\n * @dev External interface of AccessControl declared to support ERC165 detection.\\n */\\ninterface IAccessControlUpgradeable {\\n    function hasRole(bytes32 role, address account) external view returns (bool);\\n    function getRoleAdmin(bytes32 role) external view returns (bytes32);\\n    function grantRole(bytes32 role, address account) external;\\n    function revokeRole(bytes32 role, address account) external;\\n    function renounceRole(bytes32 role, address account) external;\\n}\\n\\n/**\\n * @dev Contract module that allows children to implement role-based access\\n * control mechanisms. This is a lightweight version that doesn't allow enumerating role\\n * members except through off-chain means by accessing the contract event logs. Some\\n * applications may benefit from on-chain enumerability, for those cases see\\n * {AccessControlEnumerable}.\\n *\\n * Roles are referred to by their `bytes32` identifier. These should be exposed\\n * in the external API and be unique. The best way to achieve this is by\\n * using `public constant` hash digests:\\n *\\n * ```\\n * bytes32 public constant MY_ROLE = keccak256(\\\"MY_ROLE\\\");\\n * ```\\n *\\n * Roles can be used to represent a set of permissions. To restrict access to a\\n * function call, use {hasRole}:\\n *\\n * ```\\n * function foo() public {\\n *     require(hasRole(MY_ROLE, msg.sender));\\n *     ...\\n * }\\n * ```\\n *\\n * Roles can be granted and revoked dynamically via the {grantRole} and\\n * {revokeRole} functions. Each role has an associated admin role, and only\\n * accounts that have a role's admin role can call {grantRole} and {revokeRole}.\\n *\\n * By default, the admin role for all roles is `DEFAULT_ADMIN_ROLE`, which means\\n * that only accounts with this role will be able to grant or revoke other\\n * roles. More complex role relationships can be created by using\\n * {_setRoleAdmin}.\\n *\\n * WARNING: The `DEFAULT_ADMIN_ROLE` is also its own admin: it has permission to\\n * grant and revoke this role. Extra precautions should be taken to secure\\n * accounts that have been granted it.\\n */\\nabstract contract AccessControlUpgradeable is Initializable, ContextUpgradeable, IAccessControlUpgradeable, ERC165Upgradeable {\\n    function __AccessControl_init() internal initializer {\\n        __Context_init_unchained();\\n        __ERC165_init_unchained();\\n        __AccessControl_init_unchained();\\n    }\\n\\n    function __AccessControl_init_unchained() internal initializer {\\n    }\\n    struct RoleData {\\n        mapping (address => bool) members;\\n        bytes32 adminRole;\\n    }\\n\\n    mapping (bytes32 => RoleData) private _roles;\\n\\n    bytes32 public constant DEFAULT_ADMIN_ROLE = 0x00;\\n\\n    /**\\n     * @dev Emitted when `newAdminRole` is set as ``role``'s admin role, replacing `previousAdminRole`\\n     *\\n     * `DEFAULT_ADMIN_ROLE` is the starting admin for all roles, despite\\n     * {RoleAdminChanged} not being emitted signaling this.\\n     *\\n     * _Available since v3.1._\\n     */\\n    event RoleAdminChanged(bytes32 indexed role, bytes32 indexed previousAdminRole, bytes32 indexed newAdminRole);\\n\\n    /**\\n     * @dev Emitted when `account` is granted `role`.\\n     *\\n     * `sender` is the account that originated the contract call, an admin role\\n     * bearer except when using {_setupRole}.\\n     */\\n    event RoleGranted(bytes32 indexed role, address indexed account, address indexed sender);\\n\\n    /**\\n     * @dev Emitted when `account` is revoked `role`.\\n     *\\n     * `sender` is the account that originated the contract call:\\n     *   - if using `revokeRole`, it is the admin role bearer\\n     *   - if using `renounceRole`, it is the role bearer (i.e. `account`)\\n     */\\n    event RoleRevoked(bytes32 indexed role, address indexed account, address indexed sender);\\n\\n    /**\\n     * @dev Modifier that checks that an account has a specific role. Reverts\\n     * with a standardized message including the required role.\\n     *\\n     * The format of the revert reason is given by the following regular expression:\\n     *\\n     *  /^AccessControl: account (0x[0-9a-f]{20}) is missing role (0x[0-9a-f]{32})$/\\n     *\\n     * _Available since v4.1._\\n     */\\n    modifier onlyRole(bytes32 role) {\\n        _checkRole(role, _msgSender());\\n        _;\\n    }\\n\\n    /**\\n     * @dev See {IERC165-supportsInterface}.\\n     */\\n    function supportsInterface(bytes4 interfaceId) public view virtual override returns (bool) {\\n        return interfaceId == type(IAccessControlUpgradeable).interfaceId\\n            || super.supportsInterface(interfaceId);\\n    }\\n\\n    /**\\n     * @dev Returns `true` if `account` has been granted `role`.\\n     */\\n    function hasRole(bytes32 role, address account) public view override returns (bool) {\\n        return _roles[role].members[account];\\n    }\\n\\n    /**\\n     * @dev Revert with a standard message if `account` is missing `role`.\\n     *\\n     * The format of the revert reason is given by the following regular expression:\\n     *\\n     *  /^AccessControl: account (0x[0-9a-f]{20}) is missing role (0x[0-9a-f]{32})$/\\n     */\\n    function _checkRole(bytes32 role, address account) internal view {\\n        if(!hasRole(role, account)) {\\n            revert(string(abi.encodePacked(\\n                \\\"AccessControl: account \\\",\\n                StringsUpgradeable.toHexString(uint160(account), 20),\\n                \\\" is missing role \\\",\\n                StringsUpgradeable.toHexString(uint256(role), 32)\\n            )));\\n        }\\n    }\\n\\n    /**\\n     * @dev Returns the admin role that controls `role`. See {grantRole} and\\n     * {revokeRole}.\\n     *\\n     * To change a role's admin, use {_setRoleAdmin}.\\n     */\\n    function getRoleAdmin(bytes32 role) public view override returns (bytes32) {\\n        return _roles[role].adminRole;\\n    }\\n\\n    /**\\n     * @dev Grants `role` to `account`.\\n     *\\n     * If `account` had not been already granted `role`, emits a {RoleGranted}\\n     * event.\\n     *\\n     * Requirements:\\n     *\\n     * - the caller must have ``role``'s admin role.\\n     */\\n    function grantRole(bytes32 role, address account) public virtual override onlyRole(getRoleAdmin(role)) {\\n        _grantRole(role, account);\\n    }\\n\\n    /**\\n     * @dev Revokes `role` from `account`.\\n     *\\n     * If `account` had been granted `role`, emits a {RoleRevoked} event.\\n     *\\n     * Requirements:\\n     *\\n     * - the caller must have ``role``'s admin role.\\n     */\\n    function revokeRole(bytes32 role, address account) public virtual override onlyRole(getRoleAdmin(role)) {\\n        _revokeRole(role, account);\\n    }\\n\\n    /**\\n     * @dev Revokes `role` from the calling account.\\n     *\\n     * Roles are often managed via {grantRole} and {revokeRole}: this function's\\n     * purpose is to provide a mechanism for accounts to lose their privileges\\n     * if they are compromised (such as when a trusted device is misplaced).\\n     *\\n     * If the calling account had been granted `role`, emits a {RoleRevoked}\\n     * event.\\n     *\\n     * Requirements:\\n     *\\n     * - the caller must be `account`.\\n     */\\n    function renounceRole(bytes32 role, address account) public virtual override {\\n        require(account == _msgSender(), \\\"AccessControl: can only renounce roles for self\\\");\\n\\n        _revokeRole(role, account);\\n    }\\n\\n    /**\\n     * @dev Grants `role` to `account`.\\n     *\\n     * If `account` had not been already granted `role`, emits a {RoleGranted}\\n     * event. Note that unlike {grantRole}, this function doesn't perform any\\n     * checks on the calling account.\\n     *\\n     * [WARNING]\\n     * ====\\n     * This function should only be called from the constructor when setting\\n     * up the initial roles for the system.\\n     *\\n     * Using this function in any other way is effectively circumventing the admin\\n     * system imposed by {AccessControl}.\\n     * ====\\n     */\\n    function _setupRole(bytes32 role, address account) internal virtual {\\n        _grantRole(role, account);\\n    }\\n\\n    /**\\n     * @dev Sets `adminRole` as ``role``'s admin role.\\n     *\\n     * Emits a {RoleAdminChanged} event.\\n     */\\n    function _setRoleAdmin(bytes32 role, bytes32 adminRole) internal virtual {\\n        emit RoleAdminChanged(role, getRoleAdmin(role), adminRole);\\n        _roles[role].adminRole = adminRole;\\n    }\\n\\n    function _grantRole(bytes32 role, address account) private {\\n        if (!hasRole(role, account)) {\\n            _roles[role].members[account] = true;\\n            emit RoleGranted(role, account, _msgSender());\\n        }\\n    }\\n\\n    function _revokeRole(bytes32 role, address account) private {\\n        if (hasRole(role, account)) {\\n            _roles[role].members[account] = false;\\n            emit RoleRevoked(role, account, _msgSender());\\n        }\\n    }\\n    uint256[49] private __gap;\\n}\\n\",\"keccak256\":\"0x719f71989e630280a6902f857ef2b038d761ef2d0d51611f9da463be6c7c4be5\",\"license\":\"MIT\"},\"@openzeppelin/contracts-upgradeable/proxy/utils/Initializable.sol\":{\"content\":\"// SPDX-License-Identifier: MIT\\n\\n// solhint-disable-next-line compiler-version\\npragma solidity ^0.8.0;\\n\\n/**\\n * @dev This is a base contract to aid in writing upgradeable contracts, or any kind of contract that will be deployed\\n * behind a proxy. Since a proxied contract can't have a constructor, it's common to move constructor logic to an\\n * external initializer function, usually called `initialize`. It then becomes necessary to protect this initializer\\n * function so it can only be called once. The {initializer} modifier provided by this contract will have this effect.\\n *\\n * TIP: To avoid leaving the proxy in an uninitialized state, the initializer function should be called as early as\\n * possible by providing the encoded function call as the `_data` argument to {ERC1967Proxy-constructor}.\\n *\\n * CAUTION: When used with inheritance, manual care must be taken to not invoke a parent initializer twice, or to ensure\\n * that all initializers are idempotent. This is not verified automatically as constructors are by Solidity.\\n */\\nabstract contract Initializable {\\n\\n    /**\\n     * @dev Indicates that the contract has been initialized.\\n     */\\n    bool private _initialized;\\n\\n    /**\\n     * @dev Indicates that the contract is in the process of being initialized.\\n     */\\n    bool private _initializing;\\n\\n    /**\\n     * @dev Modifier to protect an initializer function from being invoked twice.\\n     */\\n    modifier initializer() {\\n        require(_initializing || !_initialized, \\\"Initializable: contract is already initialized\\\");\\n\\n        bool isTopLevelCall = !_initializing;\\n        if (isTopLevelCall) {\\n            _initializing = true;\\n            _initialized = true;\\n        }\\n\\n        _;\\n\\n        if (isTopLevelCall) {\\n            _initializing = false;\\n        }\\n    }\\n}\\n\",\"keccak256\":\"0x67d2f282a9678e58e878a0b774041ba7a01e2740a262aea97a3f681339914713\",\"license\":\"MIT\"},\"@openzeppelin/contracts-upgradeable/token/ERC20/ERC20Upgradeable.sol\":{\"content\":\"// SPDX-License-Identifier: MIT\\n\\npragma solidity ^0.8.0;\\n\\nimport \\\"./IERC20Upgradeable.sol\\\";\\nimport \\\"./extensions/IERC20MetadataUpgradeable.sol\\\";\\nimport \\\"../../utils/ContextUpgradeable.sol\\\";\\nimport \\\"../../proxy/utils/Initializable.sol\\\";\\n\\n/**\\n * @dev Implementation of the {IERC20} interface.\\n *\\n * This implementation is agnostic to the way tokens are created. This means\\n * that a supply mechanism has to be added in a derived contract using {_mint}.\\n * For a generic mechanism see {ERC20PresetMinterPauser}.\\n *\\n * TIP: For a detailed writeup see our guide\\n * https://forum.zeppelin.solutions/t/how-to-implement-erc20-supply-mechanisms/226[How\\n * to implement supply mechanisms].\\n *\\n * We have followed general OpenZeppelin guidelines: functions revert instead\\n * of returning `false` on failure. This behavior is nonetheless conventional\\n * and does not conflict with the expectations of ERC20 applications.\\n *\\n * Additionally, an {Approval} event is emitted on calls to {transferFrom}.\\n * This allows applications to reconstruct the allowance for all accounts just\\n * by listening to said events. Other implementations of the EIP may not emit\\n * these events, as it isn't required by the specification.\\n *\\n * Finally, the non-standard {decreaseAllowance} and {increaseAllowance}\\n * functions have been added to mitigate the well-known issues around setting\\n * allowances. See {IERC20-approve}.\\n */\\ncontract ERC20Upgradeable is Initializable, ContextUpgradeable, IERC20Upgradeable, IERC20MetadataUpgradeable {\\n    mapping (address => uint256) private _balances;\\n\\n    mapping (address => mapping (address => uint256)) private _allowances;\\n\\n    uint256 private _totalSupply;\\n\\n    string private _name;\\n    string private _symbol;\\n\\n    /**\\n     * @dev Sets the values for {name} and {symbol}.\\n     *\\n     * The defaut value of {decimals} is 18. To select a different value for\\n     * {decimals} you should overload it.\\n     *\\n     * All two of these values are immutable: they can only be set once during\\n     * construction.\\n     */\\n    function __ERC20_init(string memory name_, string memory symbol_) internal initializer {\\n        __Context_init_unchained();\\n        __ERC20_init_unchained(name_, symbol_);\\n    }\\n\\n    function __ERC20_init_unchained(string memory name_, string memory symbol_) internal initializer {\\n        _name = name_;\\n        _symbol = symbol_;\\n    }\\n\\n    /**\\n     * @dev Returns the name of the token.\\n     */\\n    function name() public view virtual override returns (string memory) {\\n        return _name;\\n    }\\n\\n    /**\\n     * @dev Returns the symbol of the token, usually a shorter version of the\\n     * name.\\n     */\\n    function symbol() public view virtual override returns (string memory) {\\n        return _symbol;\\n    }\\n\\n    /**\\n     * @dev Returns the number of decimals used to get its user representation.\\n     * For example, if `decimals` equals `2`, a balance of `505` tokens should\\n     * be displayed to a user as `5,05` (`505 / 10 ** 2`).\\n     *\\n     * Tokens usually opt for a value of 18, imitating the relationship between\\n     * Ether and Wei. This is the value {ERC20} uses, unless this function is\\n     * overridden;\\n     *\\n     * NOTE: This information is only used for _display_ purposes: it in\\n     * no way affects any of the arithmetic of the contract, including\\n     * {IERC20-balanceOf} and {IERC20-transfer}.\\n     */\\n    function decimals() public view virtual override returns (uint8) {\\n        return 18;\\n    }\\n\\n    /**\\n     * @dev See {IERC20-totalSupply}.\\n     */\\n    function totalSupply() public view virtual override returns (uint256) {\\n        return _totalSupply;\\n    }\\n\\n    /**\\n     * @dev See {IERC20-balanceOf}.\\n     */\\n    function balanceOf(address account) public view virtual override returns (uint256) {\\n        return _balances[account];\\n    }\\n\\n    /**\\n     * @dev See {IERC20-transfer}.\\n     *\\n     * Requirements:\\n     *\\n     * - `recipient` cannot be the zero address.\\n     * - the caller must have a balance of at least `amount`.\\n     */\\n    function transfer(address recipient, uint256 amount) public virtual override returns (bool) {\\n        _transfer(_msgSender(), recipient, amount);\\n        return true;\\n    }\\n\\n    /**\\n     * @dev See {IERC20-allowance}.\\n     */\\n    function allowance(address owner, address spender) public view virtual override returns (uint256) {\\n        return _allowances[owner][spender];\\n    }\\n\\n    /**\\n     * @dev See {IERC20-approve}.\\n     *\\n     * Requirements:\\n     *\\n     * - `spender` cannot be the zero address.\\n     */\\n    function approve(address spender, uint256 amount) public virtual override returns (bool) {\\n        _approve(_msgSender(), spender, amount);\\n        return true;\\n    }\\n\\n    /**\\n     * @dev See {IERC20-transferFrom}.\\n     *\\n     * Emits an {Approval} event indicating the updated allowance. This is not\\n     * required by the EIP. See the note at the beginning of {ERC20}.\\n     *\\n     * Requirements:\\n     *\\n     * - `sender` and `recipient` cannot be the zero address.\\n     * - `sender` must have a balance of at least `amount`.\\n     * - the caller must have allowance for ``sender``'s tokens of at least\\n     * `amount`.\\n     */\\n    function transferFrom(address sender, address recipient, uint256 amount) public virtual override returns (bool) {\\n        _transfer(sender, recipient, amount);\\n\\n        uint256 currentAllowance = _allowances[sender][_msgSender()];\\n        require(currentAllowance >= amount, \\\"ERC20: transfer amount exceeds allowance\\\");\\n        _approve(sender, _msgSender(), currentAllowance - amount);\\n\\n        return true;\\n    }\\n\\n    /**\\n     * @dev Atomically increases the allowance granted to `spender` by the caller.\\n     *\\n     * This is an alternative to {approve} that can be used as a mitigation for\\n     * problems described in {IERC20-approve}.\\n     *\\n     * Emits an {Approval} event indicating the updated allowance.\\n     *\\n     * Requirements:\\n     *\\n     * - `spender` cannot be the zero address.\\n     */\\n    function increaseAllowance(address spender, uint256 addedValue) public virtual returns (bool) {\\n        _approve(_msgSender(), spender, _allowances[_msgSender()][spender] + addedValue);\\n        return true;\\n    }\\n\\n    /**\\n     * @dev Atomically decreases the allowance granted to `spender` by the caller.\\n     *\\n     * This is an alternative to {approve} that can be used as a mitigation for\\n     * problems described in {IERC20-approve}.\\n     *\\n     * Emits an {Approval} event indicating the updated allowance.\\n     *\\n     * Requirements:\\n     *\\n     * - `spender` cannot be the zero address.\\n     * - `spender` must have allowance for the caller of at least\\n     * `subtractedValue`.\\n     */\\n    function decreaseAllowance(address spender, uint256 subtractedValue) public virtual returns (bool) {\\n        uint256 currentAllowance = _allowances[_msgSender()][spender];\\n        require(currentAllowance >= subtractedValue, \\\"ERC20: decreased allowance below zero\\\");\\n        _approve(_msgSender(), spender, currentAllowance - subtractedValue);\\n\\n        return true;\\n    }\\n\\n    /**\\n     * @dev Moves tokens `amount` from `sender` to `recipient`.\\n     *\\n     * This is internal function is equivalent to {transfer}, and can be used to\\n     * e.g. implement automatic token fees, slashing mechanisms, etc.\\n     *\\n     * Emits a {Transfer} event.\\n     *\\n     * Requirements:\\n     *\\n     * - `sender` cannot be the zero address.\\n     * - `recipient` cannot be the zero address.\\n     * - `sender` must have a balance of at least `amount`.\\n     */\\n    function _transfer(address sender, address recipient, uint256 amount) internal virtual {\\n        require(sender != address(0), \\\"ERC20: transfer from the zero address\\\");\\n        require(recipient != address(0), \\\"ERC20: transfer to the zero address\\\");\\n\\n        _beforeTokenTransfer(sender, recipient, amount);\\n\\n        uint256 senderBalance = _balances[sender];\\n        require(senderBalance >= amount, \\\"ERC20: transfer amount exceeds balance\\\");\\n        _balances[sender] = senderBalance - amount;\\n        _balances[recipient] += amount;\\n\\n        emit Transfer(sender, recipient, amount);\\n    }\\n\\n    /** @dev Creates `amount` tokens and assigns them to `account`, increasing\\n     * the total supply.\\n     *\\n     * Emits a {Transfer} event with `from` set to the zero address.\\n     *\\n     * Requirements:\\n     *\\n     * - `to` cannot be the zero address.\\n     */\\n    function _mint(address account, uint256 amount) internal virtual {\\n        require(account != address(0), \\\"ERC20: mint to the zero address\\\");\\n\\n        _beforeTokenTransfer(address(0), account, amount);\\n\\n        _totalSupply += amount;\\n        _balances[account] += amount;\\n        emit Transfer(address(0), account, amount);\\n    }\\n\\n    /**\\n     * @dev Destroys `amount` tokens from `account`, reducing the\\n     * total supply.\\n     *\\n     * Emits a {Transfer} event with `to` set to the zero address.\\n     *\\n     * Requirements:\\n     *\\n     * - `account` cannot be the zero address.\\n     * - `account` must have at least `amount` tokens.\\n     */\\n    function _burn(address account, uint256 amount) internal virtual {\\n        require(account != address(0), \\\"ERC20: burn from the zero address\\\");\\n\\n        _beforeTokenTransfer(account, address(0), amount);\\n\\n        uint256 accountBalance = _balances[account];\\n        require(accountBalance >= amount, \\\"ERC20: burn amount exceeds balance\\\");\\n        _balances[account] = accountBalance - amount;\\n        _totalSupply -= amount;\\n\\n        emit Transfer(account, address(0), amount);\\n    }\\n\\n    /**\\n     * @dev Sets `amount` as the allowance of `spender` over the `owner` s tokens.\\n     *\\n     * This internal function is equivalent to `approve`, and can be used to\\n     * e.g. set automatic allowances for certain subsystems, etc.\\n     *\\n     * Emits an {Approval} event.\\n     *\\n     * Requirements:\\n     *\\n     * - `owner` cannot be the zero address.\\n     * - `spender` cannot be the zero address.\\n     */\\n    function _approve(address owner, address spender, uint256 amount) internal virtual {\\n        require(owner != address(0), \\\"ERC20: approve from the zero address\\\");\\n        require(spender != address(0), \\\"ERC20: approve to the zero address\\\");\\n\\n        _allowances[owner][spender] = amount;\\n        emit Approval(owner, spender, amount);\\n    }\\n\\n    /**\\n     * @dev Hook that is called before any transfer of tokens. This includes\\n     * minting and burning.\\n     *\\n     * Calling conditions:\\n     *\\n     * - when `from` and `to` are both non-zero, `amount` of ``from``'s tokens\\n     * will be to transferred to `to`.\\n     * - when `from` is zero, `amount` tokens will be minted for `to`.\\n     * - when `to` is zero, `amount` of ``from``'s tokens will be burned.\\n     * - `from` and `to` are never both zero.\\n     *\\n     * To learn more about hooks, head to xref:ROOT:extending-contracts.adoc#using-hooks[Using Hooks].\\n     */\\n    function _beforeTokenTransfer(address from, address to, uint256 amount) internal virtual { }\\n    uint256[45] private __gap;\\n}\\n\",\"keccak256\":\"0x9c2d7425f3343ea340d6ea67e9d90109d4d846bb013c2572096ec88c9e74946b\",\"license\":\"MIT\"},\"@openzeppelin/contracts-upgradeable/token/ERC20/IERC20Upgradeable.sol\":{\"content\":\"// SPDX-License-Identifier: MIT\\n\\npragma solidity ^0.8.0;\\n\\n/**\\n * @dev Interface of the ERC20 standard as defined in the EIP.\\n */\\ninterface IERC20Upgradeable {\\n    /**\\n     * @dev Returns the amount of tokens in existence.\\n     */\\n    function totalSupply() external view returns (uint256);\\n\\n    /**\\n     * @dev Returns the amount of tokens owned by `account`.\\n     */\\n    function balanceOf(address account) external view returns (uint256);\\n\\n    /**\\n     * @dev Moves `amount` tokens from the caller's account to `recipient`.\\n     *\\n     * Returns a boolean value indicating whether the operation succeeded.\\n     *\\n     * Emits a {Transfer} event.\\n     */\\n    function transfer(address recipient, uint256 amount) external returns (bool);\\n\\n    /**\\n     * @dev Returns the remaining number of tokens that `spender` will be\\n     * allowed to spend on behalf of `owner` through {transferFrom}. This is\\n     * zero by default.\\n     *\\n     * This value changes when {approve} or {transferFrom} are called.\\n     */\\n    function allowance(address owner, address spender) external view returns (uint256);\\n\\n    /**\\n     * @dev Sets `amount` as the allowance of `spender` over the caller's tokens.\\n     *\\n     * Returns a boolean value indicating whether the operation succeeded.\\n     *\\n     * IMPORTANT: Beware that changing an allowance with this method brings the risk\\n     * that someone may use both the old and the new allowance by unfortunate\\n     * transaction ordering. One possible solution to mitigate this race\\n     * condition is to first reduce the spender's allowance to 0 and set the\\n     * desired value afterwards:\\n     * https://github.com/ethereum/EIPs/issues/20#issuecomment-263524729\\n     *\\n     * Emits an {Approval} event.\\n     */\\n    function approve(address spender, uint256 amount) external returns (bool);\\n\\n    /**\\n     * @dev Moves `amount` tokens from `sender` to `recipient` using the\\n     * allowance mechanism. `amount` is then deducted from the caller's\\n     * allowance.\\n     *\\n     * Returns a boolean value indicating whether the operation succeeded.\\n     *\\n     * Emits a {Transfer} event.\\n     */\\n    function transferFrom(address sender, address recipient, uint256 amount) external returns (bool);\\n\\n    /**\\n     * @dev Emitted when `value` tokens are moved from one account (`from`) to\\n     * another (`to`).\\n     *\\n     * Note that `value` may be zero.\\n     */\\n    event Transfer(address indexed from, address indexed to, uint256 value);\\n\\n    /**\\n     * @dev Emitted when the allowance of a `spender` for an `owner` is set by\\n     * a call to {approve}. `value` is the new allowance.\\n     */\\n    event Approval(address indexed owner, address indexed spender, uint256 value);\\n}\\n\",\"keccak256\":\"0x8d4a0f2b5b760b5e2c19ed3c108d83897a4dfd5bfed97a93867918df19191e5e\",\"license\":\"MIT\"},\"@openzeppelin/contracts-upgradeable/token/ERC20/extensions/IERC20MetadataUpgradeable.sol\":{\"content\":\"// SPDX-License-Identifier: MIT\\n\\npragma solidity ^0.8.0;\\n\\nimport \\\"../IERC20Upgradeable.sol\\\";\\n\\n/**\\n * @dev Interface for the optional metadata functions from the ERC20 standard.\\n *\\n * _Available since v4.1._\\n */\\ninterface IERC20MetadataUpgradeable is IERC20Upgradeable {\\n    /**\\n     * @dev Returns the name of the token.\\n     */\\n    function name() external view returns (string memory);\\n\\n    /**\\n     * @dev Returns the symbol of the token.\\n     */\\n    function symbol() external view returns (string memory);\\n\\n    /**\\n     * @dev Returns the decimals places of the token.\\n     */\\n    function decimals() external view returns (uint8);\\n}\\n\",\"keccak256\":\"0x6795c369a4eefa78468e38966f7851fbc2dda5e5b9ccd3fa2b45970e2e4d3abd\",\"license\":\"MIT\"},\"@openzeppelin/contracts-upgradeable/token/ERC721/ERC721Upgradeable.sol\":{\"content\":\"// SPDX-License-Identifier: MIT\\n\\npragma solidity ^0.8.0;\\n\\nimport \\\"./IERC721Upgradeable.sol\\\";\\nimport \\\"./IERC721ReceiverUpgradeable.sol\\\";\\nimport \\\"./extensions/IERC721MetadataUpgradeable.sol\\\";\\nimport \\\"../../utils/AddressUpgradeable.sol\\\";\\nimport \\\"../../utils/ContextUpgradeable.sol\\\";\\nimport \\\"../../utils/StringsUpgradeable.sol\\\";\\nimport \\\"../../utils/introspection/ERC165Upgradeable.sol\\\";\\nimport \\\"../../proxy/utils/Initializable.sol\\\";\\n\\n/**\\n * @dev Implementation of https://eips.ethereum.org/EIPS/eip-721[ERC721] Non-Fungible Token Standard, including\\n * the Metadata extension, but not including the Enumerable extension, which is available separately as\\n * {ERC721Enumerable}.\\n */\\ncontract ERC721Upgradeable is Initializable, ContextUpgradeable, ERC165Upgradeable, IERC721Upgradeable, IERC721MetadataUpgradeable {\\n    using AddressUpgradeable for address;\\n    using StringsUpgradeable for uint256;\\n\\n    // Token name\\n    string private _name;\\n\\n    // Token symbol\\n    string private _symbol;\\n\\n    // Mapping from token ID to owner address\\n    mapping (uint256 => address) private _owners;\\n\\n    // Mapping owner address to token count\\n    mapping (address => uint256) private _balances;\\n\\n    // Mapping from token ID to approved address\\n    mapping (uint256 => address) private _tokenApprovals;\\n\\n    // Mapping from owner to operator approvals\\n    mapping (address => mapping (address => bool)) private _operatorApprovals;\\n\\n    /**\\n     * @dev Initializes the contract by setting a `name` and a `symbol` to the token collection.\\n     */\\n    function __ERC721_init(string memory name_, string memory symbol_) internal initializer {\\n        __Context_init_unchained();\\n        __ERC165_init_unchained();\\n        __ERC721_init_unchained(name_, symbol_);\\n    }\\n\\n    function __ERC721_init_unchained(string memory name_, string memory symbol_) internal initializer {\\n        _name = name_;\\n        _symbol = symbol_;\\n    }\\n\\n    /**\\n     * @dev See {IERC165-supportsInterface}.\\n     */\\n    function supportsInterface(bytes4 interfaceId) public view virtual override(ERC165Upgradeable, IERC165Upgradeable) returns (bool) {\\n        return interfaceId == type(IERC721Upgradeable).interfaceId\\n            || interfaceId == type(IERC721MetadataUpgradeable).interfaceId\\n            || super.supportsInterface(interfaceId);\\n    }\\n\\n    /**\\n     * @dev See {IERC721-balanceOf}.\\n     */\\n    function balanceOf(address owner) public view virtual override returns (uint256) {\\n        require(owner != address(0), \\\"ERC721: balance query for the zero address\\\");\\n        return _balances[owner];\\n    }\\n\\n    /**\\n     * @dev See {IERC721-ownerOf}.\\n     */\\n    function ownerOf(uint256 tokenId) public view virtual override returns (address) {\\n        address owner = _owners[tokenId];\\n        require(owner != address(0), \\\"ERC721: owner query for nonexistent token\\\");\\n        return owner;\\n    }\\n\\n    /**\\n     * @dev See {IERC721Metadata-name}.\\n     */\\n    function name() public view virtual override returns (string memory) {\\n        return _name;\\n    }\\n\\n    /**\\n     * @dev See {IERC721Metadata-symbol}.\\n     */\\n    function symbol() public view virtual override returns (string memory) {\\n        return _symbol;\\n    }\\n\\n    /**\\n     * @dev See {IERC721Metadata-tokenURI}.\\n     */\\n    function tokenURI(uint256 tokenId) public view virtual override returns (string memory) {\\n        require(_exists(tokenId), \\\"ERC721Metadata: URI query for nonexistent token\\\");\\n\\n        string memory baseURI = _baseURI();\\n        return bytes(baseURI).length > 0\\n            ? string(abi.encodePacked(baseURI, tokenId.toString()))\\n            : '';\\n    }\\n\\n    /**\\n     * @dev Base URI for computing {tokenURI}. Empty by default, can be overriden\\n     * in child contracts.\\n     */\\n    function _baseURI() internal view virtual returns (string memory) {\\n        return \\\"\\\";\\n    }\\n\\n    /**\\n     * @dev See {IERC721-approve}.\\n     */\\n    function approve(address to, uint256 tokenId) public virtual override {\\n        address owner = ERC721Upgradeable.ownerOf(tokenId);\\n        require(to != owner, \\\"ERC721: approval to current owner\\\");\\n\\n        require(_msgSender() == owner || isApprovedForAll(owner, _msgSender()),\\n            \\\"ERC721: approve caller is not owner nor approved for all\\\"\\n        );\\n\\n        _approve(to, tokenId);\\n    }\\n\\n    /**\\n     * @dev See {IERC721-getApproved}.\\n     */\\n    function getApproved(uint256 tokenId) public view virtual override returns (address) {\\n        require(_exists(tokenId), \\\"ERC721: approved query for nonexistent token\\\");\\n\\n        return _tokenApprovals[tokenId];\\n    }\\n\\n    /**\\n     * @dev See {IERC721-setApprovalForAll}.\\n     */\\n    function setApprovalForAll(address operator, bool approved) public virtual override {\\n        require(operator != _msgSender(), \\\"ERC721: approve to caller\\\");\\n\\n        _operatorApprovals[_msgSender()][operator] = approved;\\n        emit ApprovalForAll(_msgSender(), operator, approved);\\n    }\\n\\n    /**\\n     * @dev See {IERC721-isApprovedForAll}.\\n     */\\n    function isApprovedForAll(address owner, address operator) public view virtual override returns (bool) {\\n        return _operatorApprovals[owner][operator];\\n    }\\n\\n    /**\\n     * @dev See {IERC721-transferFrom}.\\n     */\\n    function transferFrom(address from, address to, uint256 tokenId) public virtual override {\\n        //solhint-disable-next-line max-line-length\\n        require(_isApprovedOrOwner(_msgSender(), tokenId), \\\"ERC721: transfer caller is not owner nor approved\\\");\\n\\n        _transfer(from, to, tokenId);\\n    }\\n\\n    /**\\n     * @dev See {IERC721-safeTransferFrom}.\\n     */\\n    function safeTransferFrom(address from, address to, uint256 tokenId) public virtual override {\\n        safeTransferFrom(from, to, tokenId, \\\"\\\");\\n    }\\n\\n    /**\\n     * @dev See {IERC721-safeTransferFrom}.\\n     */\\n    function safeTransferFrom(address from, address to, uint256 tokenId, bytes memory _data) public virtual override {\\n        require(_isApprovedOrOwner(_msgSender(), tokenId), \\\"ERC721: transfer caller is not owner nor approved\\\");\\n        _safeTransfer(from, to, tokenId, _data);\\n    }\\n\\n    /**\\n     * @dev Safely transfers `tokenId` token from `from` to `to`, checking first that contract recipients\\n     * are aware of the ERC721 protocol to prevent tokens from being forever locked.\\n     *\\n     * `_data` is additional data, it has no specified format and it is sent in call to `to`.\\n     *\\n     * This internal function is equivalent to {safeTransferFrom}, and can be used to e.g.\\n     * implement alternative mechanisms to perform token transfer, such as signature-based.\\n     *\\n     * Requirements:\\n     *\\n     * - `from` cannot be the zero address.\\n     * - `to` cannot be the zero address.\\n     * - `tokenId` token must exist and be owned by `from`.\\n     * - If `to` refers to a smart contract, it must implement {IERC721Receiver-onERC721Received}, which is called upon a safe transfer.\\n     *\\n     * Emits a {Transfer} event.\\n     */\\n    function _safeTransfer(address from, address to, uint256 tokenId, bytes memory _data) internal virtual {\\n        _transfer(from, to, tokenId);\\n        require(_checkOnERC721Received(from, to, tokenId, _data), \\\"ERC721: transfer to non ERC721Receiver implementer\\\");\\n    }\\n\\n    /**\\n     * @dev Returns whether `tokenId` exists.\\n     *\\n     * Tokens can be managed by their owner or approved accounts via {approve} or {setApprovalForAll}.\\n     *\\n     * Tokens start existing when they are minted (`_mint`),\\n     * and stop existing when they are burned (`_burn`).\\n     */\\n    function _exists(uint256 tokenId) internal view virtual returns (bool) {\\n        return _owners[tokenId] != address(0);\\n    }\\n\\n    /**\\n     * @dev Returns whether `spender` is allowed to manage `tokenId`.\\n     *\\n     * Requirements:\\n     *\\n     * - `tokenId` must exist.\\n     */\\n    function _isApprovedOrOwner(address spender, uint256 tokenId) internal view virtual returns (bool) {\\n        require(_exists(tokenId), \\\"ERC721: operator query for nonexistent token\\\");\\n        address owner = ERC721Upgradeable.ownerOf(tokenId);\\n        return (spender == owner || getApproved(tokenId) == spender || isApprovedForAll(owner, spender));\\n    }\\n\\n    /**\\n     * @dev Safely mints `tokenId` and transfers it to `to`.\\n     *\\n     * Requirements:\\n     *\\n     * - `tokenId` must not exist.\\n     * - If `to` refers to a smart contract, it must implement {IERC721Receiver-onERC721Received}, which is called upon a safe transfer.\\n     *\\n     * Emits a {Transfer} event.\\n     */\\n    function _safeMint(address to, uint256 tokenId) internal virtual {\\n        _safeMint(to, tokenId, \\\"\\\");\\n    }\\n\\n    /**\\n     * @dev Same as {xref-ERC721-_safeMint-address-uint256-}[`_safeMint`], with an additional `data` parameter which is\\n     * forwarded in {IERC721Receiver-onERC721Received} to contract recipients.\\n     */\\n    function _safeMint(address to, uint256 tokenId, bytes memory _data) internal virtual {\\n        _mint(to, tokenId);\\n        require(_checkOnERC721Received(address(0), to, tokenId, _data), \\\"ERC721: transfer to non ERC721Receiver implementer\\\");\\n    }\\n\\n    /**\\n     * @dev Mints `tokenId` and transfers it to `to`.\\n     *\\n     * WARNING: Usage of this method is discouraged, use {_safeMint} whenever possible\\n     *\\n     * Requirements:\\n     *\\n     * - `tokenId` must not exist.\\n     * - `to` cannot be the zero address.\\n     *\\n     * Emits a {Transfer} event.\\n     */\\n    function _mint(address to, uint256 tokenId) internal virtual {\\n        require(to != address(0), \\\"ERC721: mint to the zero address\\\");\\n        require(!_exists(tokenId), \\\"ERC721: token already minted\\\");\\n\\n        _beforeTokenTransfer(address(0), to, tokenId);\\n\\n        _balances[to] += 1;\\n        _owners[tokenId] = to;\\n\\n        emit Transfer(address(0), to, tokenId);\\n    }\\n\\n    /**\\n     * @dev Destroys `tokenId`.\\n     * The approval is cleared when the token is burned.\\n     *\\n     * Requirements:\\n     *\\n     * - `tokenId` must exist.\\n     *\\n     * Emits a {Transfer} event.\\n     */\\n    function _burn(uint256 tokenId) internal virtual {\\n        address owner = ERC721Upgradeable.ownerOf(tokenId);\\n\\n        _beforeTokenTransfer(owner, address(0), tokenId);\\n\\n        // Clear approvals\\n        _approve(address(0), tokenId);\\n\\n        _balances[owner] -= 1;\\n        delete _owners[tokenId];\\n\\n        emit Transfer(owner, address(0), tokenId);\\n    }\\n\\n    /**\\n     * @dev Transfers `tokenId` from `from` to `to`.\\n     *  As opposed to {transferFrom}, this imposes no restrictions on msg.sender.\\n     *\\n     * Requirements:\\n     *\\n     * - `to` cannot be the zero address.\\n     * - `tokenId` token must be owned by `from`.\\n     *\\n     * Emits a {Transfer} event.\\n     */\\n    function _transfer(address from, address to, uint256 tokenId) internal virtual {\\n        require(ERC721Upgradeable.ownerOf(tokenId) == from, \\\"ERC721: transfer of token that is not own\\\");\\n        require(to != address(0), \\\"ERC721: transfer to the zero address\\\");\\n\\n        _beforeTokenTransfer(from, to, tokenId);\\n\\n        // Clear approvals from the previous owner\\n        _approve(address(0), tokenId);\\n\\n        _balances[from] -= 1;\\n        _balances[to] += 1;\\n        _owners[tokenId] = to;\\n\\n        emit Transfer(from, to, tokenId);\\n    }\\n\\n    /**\\n     * @dev Approve `to` to operate on `tokenId`\\n     *\\n     * Emits a {Approval} event.\\n     */\\n    function _approve(address to, uint256 tokenId) internal virtual {\\n        _tokenApprovals[tokenId] = to;\\n        emit Approval(ERC721Upgradeable.ownerOf(tokenId), to, tokenId);\\n    }\\n\\n    /**\\n     * @dev Internal function to invoke {IERC721Receiver-onERC721Received} on a target address.\\n     * The call is not executed if the target address is not a contract.\\n     *\\n     * @param from address representing the previous owner of the given token ID\\n     * @param to target address that will receive the tokens\\n     * @param tokenId uint256 ID of the token to be transferred\\n     * @param _data bytes optional data to send along with the call\\n     * @return bool whether the call correctly returned the expected magic value\\n     */\\n    function _checkOnERC721Received(address from, address to, uint256 tokenId, bytes memory _data)\\n        private returns (bool)\\n    {\\n        if (to.isContract()) {\\n            try IERC721ReceiverUpgradeable(to).onERC721Received(_msgSender(), from, tokenId, _data) returns (bytes4 retval) {\\n                return retval == IERC721ReceiverUpgradeable(to).onERC721Received.selector;\\n            } catch (bytes memory reason) {\\n                if (reason.length == 0) {\\n                    revert(\\\"ERC721: transfer to non ERC721Receiver implementer\\\");\\n                } else {\\n                    // solhint-disable-next-line no-inline-assembly\\n                    assembly {\\n                        revert(add(32, reason), mload(reason))\\n                    }\\n                }\\n            }\\n        } else {\\n            return true;\\n        }\\n    }\\n\\n    /**\\n     * @dev Hook that is called before any token transfer. This includes minting\\n     * and burning.\\n     *\\n     * Calling conditions:\\n     *\\n     * - When `from` and `to` are both non-zero, ``from``'s `tokenId` will be\\n     * transferred to `to`.\\n     * - When `from` is zero, `tokenId` will be minted for `to`.\\n     * - When `to` is zero, ``from``'s `tokenId` will be burned.\\n     * - `from` cannot be the zero address.\\n     * - `to` cannot be the zero address.\\n     *\\n     * To learn more about hooks, head to xref:ROOT:extending-contracts.adoc#using-hooks[Using Hooks].\\n     */\\n    function _beforeTokenTransfer(address from, address to, uint256 tokenId) internal virtual { }\\n    uint256[44] private __gap;\\n}\\n\",\"keccak256\":\"0x2ab92ebd3f4d4d85f30b39bd678ec3489e00aadd0a432c7a0ffa98adc2799004\",\"license\":\"MIT\"},\"@openzeppelin/contracts-upgradeable/token/ERC721/IERC721ReceiverUpgradeable.sol\":{\"content\":\"// SPDX-License-Identifier: MIT\\n\\npragma solidity ^0.8.0;\\n\\n/**\\n * @title ERC721 token receiver interface\\n * @dev Interface for any contract that wants to support safeTransfers\\n * from ERC721 asset contracts.\\n */\\ninterface IERC721ReceiverUpgradeable {\\n    /**\\n     * @dev Whenever an {IERC721} `tokenId` token is transferred to this contract via {IERC721-safeTransferFrom}\\n     * by `operator` from `from`, this function is called.\\n     *\\n     * It must return its Solidity selector to confirm the token transfer.\\n     * If any other value is returned or the interface is not implemented by the recipient, the transfer will be reverted.\\n     *\\n     * The selector can be obtained in Solidity with `IERC721.onERC721Received.selector`.\\n     */\\n    function onERC721Received(address operator, address from, uint256 tokenId, bytes calldata data) external returns (bytes4);\\n}\\n\",\"keccak256\":\"0x33620beff0655c5e728a72fff76fb6ce2dc32fc6b61eb8e435b12ed1adf31525\",\"license\":\"MIT\"},\"@openzeppelin/contracts-upgradeable/token/ERC721/IERC721Upgradeable.sol\":{\"content\":\"// SPDX-License-Identifier: MIT\\n\\npragma solidity ^0.8.0;\\n\\nimport \\\"../../utils/introspection/IERC165Upgradeable.sol\\\";\\n\\n/**\\n * @dev Required interface of an ERC721 compliant contract.\\n */\\ninterface IERC721Upgradeable is IERC165Upgradeable {\\n    /**\\n     * @dev Emitted when `tokenId` token is transferred from `from` to `to`.\\n     */\\n    event Transfer(address indexed from, address indexed to, uint256 indexed tokenId);\\n\\n    /**\\n     * @dev Emitted when `owner` enables `approved` to manage the `tokenId` token.\\n     */\\n    event Approval(address indexed owner, address indexed approved, uint256 indexed tokenId);\\n\\n    /**\\n     * @dev Emitted when `owner` enables or disables (`approved`) `operator` to manage all of its assets.\\n     */\\n    event ApprovalForAll(address indexed owner, address indexed operator, bool approved);\\n\\n    /**\\n     * @dev Returns the number of tokens in ``owner``'s account.\\n     */\\n    function balanceOf(address owner) external view returns (uint256 balance);\\n\\n    /**\\n     * @dev Returns the owner of the `tokenId` token.\\n     *\\n     * Requirements:\\n     *\\n     * - `tokenId` must exist.\\n     */\\n    function ownerOf(uint256 tokenId) external view returns (address owner);\\n\\n    /**\\n     * @dev Safely transfers `tokenId` token from `from` to `to`, checking first that contract recipients\\n     * are aware of the ERC721 protocol to prevent tokens from being forever locked.\\n     *\\n     * Requirements:\\n     *\\n     * - `from` cannot be the zero address.\\n     * - `to` cannot be the zero address.\\n     * - `tokenId` token must exist and be owned by `from`.\\n     * - If the caller is not `from`, it must be have been allowed to move this token by either {approve} or {setApprovalForAll}.\\n     * - If `to` refers to a smart contract, it must implement {IERC721Receiver-onERC721Received}, which is called upon a safe transfer.\\n     *\\n     * Emits a {Transfer} event.\\n     */\\n    function safeTransferFrom(address from, address to, uint256 tokenId) external;\\n\\n    /**\\n     * @dev Transfers `tokenId` token from `from` to `to`.\\n     *\\n     * WARNING: Usage of this method is discouraged, use {safeTransferFrom} whenever possible.\\n     *\\n     * Requirements:\\n     *\\n     * - `from` cannot be the zero address.\\n     * - `to` cannot be the zero address.\\n     * - `tokenId` token must be owned by `from`.\\n     * - If the caller is not `from`, it must be approved to move this token by either {approve} or {setApprovalForAll}.\\n     *\\n     * Emits a {Transfer} event.\\n     */\\n    function transferFrom(address from, address to, uint256 tokenId) external;\\n\\n    /**\\n     * @dev Gives permission to `to` to transfer `tokenId` token to another account.\\n     * The approval is cleared when the token is transferred.\\n     *\\n     * Only a single account can be approved at a time, so approving the zero address clears previous approvals.\\n     *\\n     * Requirements:\\n     *\\n     * - The caller must own the token or be an approved operator.\\n     * - `tokenId` must exist.\\n     *\\n     * Emits an {Approval} event.\\n     */\\n    function approve(address to, uint256 tokenId) external;\\n\\n    /**\\n     * @dev Returns the account approved for `tokenId` token.\\n     *\\n     * Requirements:\\n     *\\n     * - `tokenId` must exist.\\n     */\\n    function getApproved(uint256 tokenId) external view returns (address operator);\\n\\n    /**\\n     * @dev Approve or remove `operator` as an operator for the caller.\\n     * Operators can call {transferFrom} or {safeTransferFrom} for any token owned by the caller.\\n     *\\n     * Requirements:\\n     *\\n     * - The `operator` cannot be the caller.\\n     *\\n     * Emits an {ApprovalForAll} event.\\n     */\\n    function setApprovalForAll(address operator, bool _approved) external;\\n\\n    /**\\n     * @dev Returns if the `operator` is allowed to manage all of the assets of `owner`.\\n     *\\n     * See {setApprovalForAll}\\n     */\\n    function isApprovedForAll(address owner, address operator) external view returns (bool);\\n\\n    /**\\n      * @dev Safely transfers `tokenId` token from `from` to `to`.\\n      *\\n      * Requirements:\\n      *\\n      * - `from` cannot be the zero address.\\n      * - `to` cannot be the zero address.\\n      * - `tokenId` token must exist and be owned by `from`.\\n      * - If the caller is not `from`, it must be approved to move this token by either {approve} or {setApprovalForAll}.\\n      * - If `to` refers to a smart contract, it must implement {IERC721Receiver-onERC721Received}, which is called upon a safe transfer.\\n      *\\n      * Emits a {Transfer} event.\\n      */\\n    function safeTransferFrom(address from, address to, uint256 tokenId, bytes calldata data) external;\\n}\\n\",\"keccak256\":\"0x9ef7f2874f4a491f253a81eb4c5b9a7b6467a287aa0c32ac3dd684260a3cd7ad\",\"license\":\"MIT\"},\"@openzeppelin/contracts-upgradeable/token/ERC721/extensions/IERC721MetadataUpgradeable.sol\":{\"content\":\"// SPDX-License-Identifier: MIT\\n\\npragma solidity ^0.8.0;\\n\\nimport \\\"../IERC721Upgradeable.sol\\\";\\n\\n/**\\n * @title ERC-721 Non-Fungible Token Standard, optional metadata extension\\n * @dev See https://eips.ethereum.org/EIPS/eip-721\\n */\\ninterface IERC721MetadataUpgradeable is IERC721Upgradeable {\\n\\n    /**\\n     * @dev Returns the token collection name.\\n     */\\n    function name() external view returns (string memory);\\n\\n    /**\\n     * @dev Returns the token collection symbol.\\n     */\\n    function symbol() external view returns (string memory);\\n\\n    /**\\n     * @dev Returns the Uniform Resource Identifier (URI) for `tokenId` token.\\n     */\\n    function tokenURI(uint256 tokenId) external view returns (string memory);\\n}\\n\",\"keccak256\":\"0x64581a092c059ab0cb74f473545e379b8a88f36a6a57f805515ef8c6ae061847\",\"license\":\"MIT\"},\"@openzeppelin/contracts-upgradeable/utils/AddressUpgradeable.sol\":{\"content\":\"// SPDX-License-Identifier: MIT\\n\\npragma solidity ^0.8.0;\\n\\n/**\\n * @dev Collection of functions related to the address type\\n */\\nlibrary AddressUpgradeable {\\n    /**\\n     * @dev Returns true if `account` is a contract.\\n     *\\n     * [IMPORTANT]\\n     * ====\\n     * It is unsafe to assume that an address for which this function returns\\n     * false is an externally-owned account (EOA) and not a contract.\\n     *\\n     * Among others, `isContract` will return false for the following\\n     * types of addresses:\\n     *\\n     *  - an externally-owned account\\n     *  - a contract in construction\\n     *  - an address where a contract will be created\\n     *  - an address where a contract lived, but was destroyed\\n     * ====\\n     */\\n    function isContract(address account) internal view returns (bool) {\\n        // This method relies on extcodesize, which returns 0 for contracts in\\n        // construction, since the code is only stored at the end of the\\n        // constructor execution.\\n\\n        uint256 size;\\n        // solhint-disable-next-line no-inline-assembly\\n        assembly { size := extcodesize(account) }\\n        return size > 0;\\n    }\\n\\n    /**\\n     * @dev Replacement for Solidity's `transfer`: sends `amount` wei to\\n     * `recipient`, forwarding all available gas and reverting on errors.\\n     *\\n     * https://eips.ethereum.org/EIPS/eip-1884[EIP1884] increases the gas cost\\n     * of certain opcodes, possibly making contracts go over the 2300 gas limit\\n     * imposed by `transfer`, making them unable to receive funds via\\n     * `transfer`. {sendValue} removes this limitation.\\n     *\\n     * https://diligence.consensys.net/posts/2019/09/stop-using-soliditys-transfer-now/[Learn more].\\n     *\\n     * IMPORTANT: because control is transferred to `recipient`, care must be\\n     * taken to not create reentrancy vulnerabilities. Consider using\\n     * {ReentrancyGuard} or the\\n     * https://solidity.readthedocs.io/en/v0.5.11/security-considerations.html#use-the-checks-effects-interactions-pattern[checks-effects-interactions pattern].\\n     */\\n    function sendValue(address payable recipient, uint256 amount) internal {\\n        require(address(this).balance >= amount, \\\"Address: insufficient balance\\\");\\n\\n        // solhint-disable-next-line avoid-low-level-calls, avoid-call-value\\n        (bool success, ) = recipient.call{ value: amount }(\\\"\\\");\\n        require(success, \\\"Address: unable to send value, recipient may have reverted\\\");\\n    }\\n\\n    /**\\n     * @dev Performs a Solidity function call using a low level `call`. A\\n     * plain`call` is an unsafe replacement for a function call: use this\\n     * function instead.\\n     *\\n     * If `target` reverts with a revert reason, it is bubbled up by this\\n     * function (like regular Solidity function calls).\\n     *\\n     * Returns the raw returned data. To convert to the expected return value,\\n     * use https://solidity.readthedocs.io/en/latest/units-and-global-variables.html?highlight=abi.decode#abi-encoding-and-decoding-functions[`abi.decode`].\\n     *\\n     * Requirements:\\n     *\\n     * - `target` must be a contract.\\n     * - calling `target` with `data` must not revert.\\n     *\\n     * _Available since v3.1._\\n     */\\n    function functionCall(address target, bytes memory data) internal returns (bytes memory) {\\n      return functionCall(target, data, \\\"Address: low-level call failed\\\");\\n    }\\n\\n    /**\\n     * @dev Same as {xref-Address-functionCall-address-bytes-}[`functionCall`], but with\\n     * `errorMessage` as a fallback revert reason when `target` reverts.\\n     *\\n     * _Available since v3.1._\\n     */\\n    function functionCall(address target, bytes memory data, string memory errorMessage) internal returns (bytes memory) {\\n        return functionCallWithValue(target, data, 0, errorMessage);\\n    }\\n\\n    /**\\n     * @dev Same as {xref-Address-functionCall-address-bytes-}[`functionCall`],\\n     * but also transferring `value` wei to `target`.\\n     *\\n     * Requirements:\\n     *\\n     * - the calling contract must have an ETH balance of at least `value`.\\n     * - the called Solidity function must be `payable`.\\n     *\\n     * _Available since v3.1._\\n     */\\n    function functionCallWithValue(address target, bytes memory data, uint256 value) internal returns (bytes memory) {\\n        return functionCallWithValue(target, data, value, \\\"Address: low-level call with value failed\\\");\\n    }\\n\\n    /**\\n     * @dev Same as {xref-Address-functionCallWithValue-address-bytes-uint256-}[`functionCallWithValue`], but\\n     * with `errorMessage` as a fallback revert reason when `target` reverts.\\n     *\\n     * _Available since v3.1._\\n     */\\n    function functionCallWithValue(address target, bytes memory data, uint256 value, string memory errorMessage) internal returns (bytes memory) {\\n        require(address(this).balance >= value, \\\"Address: insufficient balance for call\\\");\\n        require(isContract(target), \\\"Address: call to non-contract\\\");\\n\\n        // solhint-disable-next-line avoid-low-level-calls\\n        (bool success, bytes memory returndata) = target.call{ value: value }(data);\\n        return _verifyCallResult(success, returndata, errorMessage);\\n    }\\n\\n    /**\\n     * @dev Same as {xref-Address-functionCall-address-bytes-}[`functionCall`],\\n     * but performing a static call.\\n     *\\n     * _Available since v3.3._\\n     */\\n    function functionStaticCall(address target, bytes memory data) internal view returns (bytes memory) {\\n        return functionStaticCall(target, data, \\\"Address: low-level static call failed\\\");\\n    }\\n\\n    /**\\n     * @dev Same as {xref-Address-functionCall-address-bytes-string-}[`functionCall`],\\n     * but performing a static call.\\n     *\\n     * _Available since v3.3._\\n     */\\n    function functionStaticCall(address target, bytes memory data, string memory errorMessage) internal view returns (bytes memory) {\\n        require(isContract(target), \\\"Address: static call to non-contract\\\");\\n\\n        // solhint-disable-next-line avoid-low-level-calls\\n        (bool success, bytes memory returndata) = target.staticcall(data);\\n        return _verifyCallResult(success, returndata, errorMessage);\\n    }\\n\\n    function _verifyCallResult(bool success, bytes memory returndata, string memory errorMessage) private pure returns(bytes memory) {\\n        if (success) {\\n            return returndata;\\n        } else {\\n            // Look for revert reason and bubble it up if present\\n            if (returndata.length > 0) {\\n                // The easiest way to bubble the revert reason is using memory via assembly\\n\\n                // solhint-disable-next-line no-inline-assembly\\n                assembly {\\n                    let returndata_size := mload(returndata)\\n                    revert(add(32, returndata), returndata_size)\\n                }\\n            } else {\\n                revert(errorMessage);\\n            }\\n        }\\n    }\\n}\\n\",\"keccak256\":\"0x5642ae1d6b33c5c0b71a8412c6c64cbcf2468b84a002bee3e33cdb5644d25cdb\",\"license\":\"MIT\"},\"@openzeppelin/contracts-upgradeable/utils/ContextUpgradeable.sol\":{\"content\":\"// SPDX-License-Identifier: MIT\\n\\npragma solidity ^0.8.0;\\nimport \\\"../proxy/utils/Initializable.sol\\\";\\n\\n/*\\n * @dev Provides information about the current execution context, including the\\n * sender of the transaction and its data. While these are generally available\\n * via msg.sender and msg.data, they should not be accessed in such a direct\\n * manner, since when dealing with meta-transactions the account sending and\\n * paying for execution may not be the actual sender (as far as an application\\n * is concerned).\\n *\\n * This contract is only required for intermediate, library-like contracts.\\n */\\nabstract contract ContextUpgradeable is Initializable {\\n    function __Context_init() internal initializer {\\n        __Context_init_unchained();\\n    }\\n\\n    function __Context_init_unchained() internal initializer {\\n    }\\n    function _msgSender() internal view virtual returns (address) {\\n        return msg.sender;\\n    }\\n\\n    function _msgData() internal view virtual returns (bytes calldata) {\\n        this; // silence state mutability warning without generating bytecode - see https://github.com/ethereum/solidity/issues/2691\\n        return msg.data;\\n    }\\n    uint256[50] private __gap;\\n}\\n\",\"keccak256\":\"0x8e9eb503de1189f50c5f16fef327da310b11898d6b9ab3ca937df07c35233b9e\",\"license\":\"MIT\"},\"@openzeppelin/contracts-upgradeable/utils/StringsUpgradeable.sol\":{\"content\":\"// SPDX-License-Identifier: MIT\\n\\npragma solidity ^0.8.0;\\n\\n/**\\n * @dev String operations.\\n */\\nlibrary StringsUpgradeable {\\n    bytes16 private constant alphabet = \\\"0123456789abcdef\\\";\\n\\n    /**\\n     * @dev Converts a `uint256` to its ASCII `string` decimal representation.\\n     */\\n    function toString(uint256 value) internal pure returns (string memory) {\\n        // Inspired by OraclizeAPI's implementation - MIT licence\\n        // https://github.com/oraclize/ethereum-api/blob/b42146b063c7d6ee1358846c198246239e9360e8/oraclizeAPI_0.4.25.sol\\n\\n        if (value == 0) {\\n            return \\\"0\\\";\\n        }\\n        uint256 temp = value;\\n        uint256 digits;\\n        while (temp != 0) {\\n            digits++;\\n            temp /= 10;\\n        }\\n        bytes memory buffer = new bytes(digits);\\n        while (value != 0) {\\n            digits -= 1;\\n            buffer[digits] = bytes1(uint8(48 + uint256(value % 10)));\\n            value /= 10;\\n        }\\n        return string(buffer);\\n    }\\n\\n    /**\\n     * @dev Converts a `uint256` to its ASCII `string` hexadecimal representation.\\n     */\\n    function toHexString(uint256 value) internal pure returns (string memory) {\\n        if (value == 0) {\\n            return \\\"0x00\\\";\\n        }\\n        uint256 temp = value;\\n        uint256 length = 0;\\n        while (temp != 0) {\\n            length++;\\n            temp >>= 8;\\n        }\\n        return toHexString(value, length);\\n    }\\n\\n    /**\\n     * @dev Converts a `uint256` to its ASCII `string` hexadecimal representation with fixed length.\\n     */\\n    function toHexString(uint256 value, uint256 length) internal pure returns (string memory) {\\n        bytes memory buffer = new bytes(2 * length + 2);\\n        buffer[0] = \\\"0\\\";\\n        buffer[1] = \\\"x\\\";\\n        for (uint256 i = 2 * length + 1; i > 1; --i) {\\n            buffer[i] = alphabet[value & 0xf];\\n            value >>= 4;\\n        }\\n        require(value == 0, \\\"Strings: hex length insufficient\\\");\\n        return string(buffer);\\n    }\\n\\n}\\n\",\"keccak256\":\"0x6964377da5c19ade6b3e96bae0c0e82494d518af70cf12d2cdb3276f78fb3d85\",\"license\":\"MIT\"},\"@openzeppelin/contracts-upgradeable/utils/introspection/ERC165Upgradeable.sol\":{\"content\":\"// SPDX-License-Identifier: MIT\\n\\npragma solidity ^0.8.0;\\n\\nimport \\\"./IERC165Upgradeable.sol\\\";\\nimport \\\"../../proxy/utils/Initializable.sol\\\";\\n\\n/**\\n * @dev Implementation of the {IERC165} interface.\\n *\\n * Contracts that want to implement ERC165 should inherit from this contract and override {supportsInterface} to check\\n * for the additional interface id that will be supported. For example:\\n *\\n * ```solidity\\n * function supportsInterface(bytes4 interfaceId) public view virtual override returns (bool) {\\n *     return interfaceId == type(MyInterface).interfaceId || super.supportsInterface(interfaceId);\\n * }\\n * ```\\n *\\n * Alternatively, {ERC165Storage} provides an easier to use but more expensive implementation.\\n */\\nabstract contract ERC165Upgradeable is Initializable, IERC165Upgradeable {\\n    function __ERC165_init() internal initializer {\\n        __ERC165_init_unchained();\\n    }\\n\\n    function __ERC165_init_unchained() internal initializer {\\n    }\\n    /**\\n     * @dev See {IERC165-supportsInterface}.\\n     */\\n    function supportsInterface(bytes4 interfaceId) public view virtual override returns (bool) {\\n        return interfaceId == type(IERC165Upgradeable).interfaceId;\\n    }\\n    uint256[50] private __gap;\\n}\\n\",\"keccak256\":\"0x17c9c5d2d6b56527215ee7b3da6dde66b6f23f1b3d5c66cc436e753ef349a97a\",\"license\":\"MIT\"},\"@openzeppelin/contracts-upgradeable/utils/introspection/IERC165Upgradeable.sol\":{\"content\":\"// SPDX-License-Identifier: MIT\\n\\npragma solidity ^0.8.0;\\n\\n/**\\n * @dev Interface of the ERC165 standard, as defined in the\\n * https://eips.ethereum.org/EIPS/eip-165[EIP].\\n *\\n * Implementers can declare support of contract interfaces, which can then be\\n * queried by others ({ERC165Checker}).\\n *\\n * For an implementation, see {ERC165}.\\n */\\ninterface IERC165Upgradeable {\\n    /**\\n     * @dev Returns true if this contract implements the interface defined by\\n     * `interfaceId`. See the corresponding\\n     * https://eips.ethereum.org/EIPS/eip-165#how-interfaces-are-identified[EIP section]\\n     * to learn more about how these ids are created.\\n     *\\n     * This function call must use less than 30 000 gas.\\n     */\\n    function supportsInterface(bytes4 interfaceId) external view returns (bool);\\n}\\n\",\"keccak256\":\"0x1c4860acd323e34a67b3e97faab9aaa55fe8e92b1dcf08b5f47f3468d58ce75c\",\"license\":\"MIT\"},\"@openzeppelin/contracts/access/Ownable.sol\":{\"content\":\"// SPDX-License-Identifier: MIT\\n\\npragma solidity ^0.8.0;\\n\\nimport \\\"../utils/Context.sol\\\";\\n/**\\n * @dev Contract module which provides a basic access control mechanism, where\\n * there is an account (an owner) that can be granted exclusive access to\\n * specific functions.\\n *\\n * By default, the owner account will be the one that deploys the contract. This\\n * can later be changed with {transferOwnership}.\\n *\\n * This module is used through inheritance. It will make available the modifier\\n * `onlyOwner`, which can be applied to your functions to restrict their use to\\n * the owner.\\n */\\nabstract contract Ownable is Context {\\n    address private _owner;\\n\\n    event OwnershipTransferred(address indexed previousOwner, address indexed newOwner);\\n\\n    /**\\n     * @dev Initializes the contract setting the deployer as the initial owner.\\n     */\\n    constructor () {\\n        address msgSender = _msgSender();\\n        _owner = msgSender;\\n        emit OwnershipTransferred(address(0), msgSender);\\n    }\\n\\n    /**\\n     * @dev Returns the address of the current owner.\\n     */\\n    function owner() public view virtual returns (address) {\\n        return _owner;\\n    }\\n\\n    /**\\n     * @dev Throws if called by any account other than the owner.\\n     */\\n    modifier onlyOwner() {\\n        require(owner() == _msgSender(), \\\"Ownable: caller is not the owner\\\");\\n        _;\\n    }\\n\\n    /**\\n     * @dev Leaves the contract without owner. It will not be possible to call\\n     * `onlyOwner` functions anymore. Can only be called by the current owner.\\n     *\\n     * NOTE: Renouncing ownership will leave the contract without an owner,\\n     * thereby removing any functionality that is only available to the owner.\\n     */\\n    function renounceOwnership() public virtual onlyOwner {\\n        emit OwnershipTransferred(_owner, address(0));\\n        _owner = address(0);\\n    }\\n\\n    /**\\n     * @dev Transfers ownership of the contract to a new account (`newOwner`).\\n     * Can only be called by the current owner.\\n     */\\n    function transferOwnership(address newOwner) public virtual onlyOwner {\\n        require(newOwner != address(0), \\\"Ownable: new owner is the zero address\\\");\\n        emit OwnershipTransferred(_owner, newOwner);\\n        _owner = newOwner;\\n    }\\n}\\n\",\"keccak256\":\"0x1cae4f85f114ff17b90414f5da67365b1d00337abb5bce9bf944eb78a2c0673c\",\"license\":\"MIT\"},\"@openzeppelin/contracts/proxy/Clones.sol\":{\"content\":\"// SPDX-License-Identifier: MIT\\n\\npragma solidity ^0.8.0;\\n\\n/**\\n * @dev https://eips.ethereum.org/EIPS/eip-1167[EIP 1167] is a standard for\\n * deploying minimal proxy contracts, also known as \\\"clones\\\".\\n *\\n * > To simply and cheaply clone contract functionality in an immutable way, this standard specifies\\n * > a minimal bytecode implementation that delegates all calls to a known, fixed address.\\n *\\n * The library includes functions to deploy a proxy using either `create` (traditional deployment) or `create2`\\n * (salted deterministic deployment). It also includes functions to predict the addresses of clones deployed using the\\n * deterministic method.\\n *\\n * _Available since v3.4._\\n */\\nlibrary Clones {\\n    /**\\n     * @dev Deploys and returns the address of a clone that mimics the behaviour of `implementation`.\\n     *\\n     * This function uses the create opcode, which should never revert.\\n     */\\n    function clone(address implementation) internal returns (address instance) {\\n        // solhint-disable-next-line no-inline-assembly\\n        assembly {\\n            let ptr := mload(0x40)\\n            mstore(ptr, 0x3d602d80600a3d3981f3363d3d373d3d3d363d73000000000000000000000000)\\n            mstore(add(ptr, 0x14), shl(0x60, implementation))\\n            mstore(add(ptr, 0x28), 0x5af43d82803e903d91602b57fd5bf30000000000000000000000000000000000)\\n            instance := create(0, ptr, 0x37)\\n        }\\n        require(instance != address(0), \\\"ERC1167: create failed\\\");\\n    }\\n\\n    /**\\n     * @dev Deploys and returns the address of a clone that mimics the behaviour of `implementation`.\\n     *\\n     * This function uses the create2 opcode and a `salt` to deterministically deploy\\n     * the clone. Using the same `implementation` and `salt` multiple time will revert, since\\n     * the clones cannot be deployed twice at the same address.\\n     */\\n    function cloneDeterministic(address implementation, bytes32 salt) internal returns (address instance) {\\n        // solhint-disable-next-line no-inline-assembly\\n        assembly {\\n            let ptr := mload(0x40)\\n            mstore(ptr, 0x3d602d80600a3d3981f3363d3d373d3d3d363d73000000000000000000000000)\\n            mstore(add(ptr, 0x14), shl(0x60, implementation))\\n            mstore(add(ptr, 0x28), 0x5af43d82803e903d91602b57fd5bf30000000000000000000000000000000000)\\n            instance := create2(0, ptr, 0x37, salt)\\n        }\\n        require(instance != address(0), \\\"ERC1167: create2 failed\\\");\\n    }\\n\\n    /**\\n     * @dev Computes the address of a clone deployed using {Clones-cloneDeterministic}.\\n     */\\n    function predictDeterministicAddress(address implementation, bytes32 salt, address deployer) internal pure returns (address predicted) {\\n        // solhint-disable-next-line no-inline-assembly\\n        assembly {\\n            let ptr := mload(0x40)\\n            mstore(ptr, 0x3d602d80600a3d3981f3363d3d373d3d3d363d73000000000000000000000000)\\n            mstore(add(ptr, 0x14), shl(0x60, implementation))\\n            mstore(add(ptr, 0x28), 0x5af43d82803e903d91602b57fd5bf3ff00000000000000000000000000000000)\\n            mstore(add(ptr, 0x38), shl(0x60, deployer))\\n            mstore(add(ptr, 0x4c), salt)\\n            mstore(add(ptr, 0x6c), keccak256(ptr, 0x37))\\n            predicted := keccak256(add(ptr, 0x37), 0x55)\\n        }\\n    }\\n\\n    /**\\n     * @dev Computes the address of a clone deployed using {Clones-cloneDeterministic}.\\n     */\\n    function predictDeterministicAddress(address implementation, bytes32 salt) internal view returns (address predicted) {\\n        return predictDeterministicAddress(implementation, salt, address(this));\\n    }\\n}\\n\",\"keccak256\":\"0x90dec20805396efc780a82c62578626103e03278bc1f48b61bb3aba52a61617c\",\"license\":\"MIT\"},\"@openzeppelin/contracts/proxy/Proxy.sol\":{\"content\":\"// SPDX-License-Identifier: MIT\\n\\npragma solidity ^0.8.0;\\n\\n/**\\n * @dev This abstract contract provides a fallback function that delegates all calls to another contract using the EVM\\n * instruction `delegatecall`. We refer to the second contract as the _implementation_ behind the proxy, and it has to\\n * be specified by overriding the virtual {_implementation} function.\\n *\\n * Additionally, delegation to the implementation can be triggered manually through the {_fallback} function, or to a\\n * different contract through the {_delegate} function.\\n *\\n * The success and return data of the delegated call will be returned back to the caller of the proxy.\\n */\\nabstract contract Proxy {\\n    /**\\n     * @dev Delegates the current call to `implementation`.\\n     *\\n     * This function does not return to its internall call site, it will return directly to the external caller.\\n     */\\n    function _delegate(address implementation) internal virtual {\\n        // solhint-disable-next-line no-inline-assembly\\n        assembly {\\n            // Copy msg.data. We take full control of memory in this inline assembly\\n            // block because it will not return to Solidity code. We overwrite the\\n            // Solidity scratch pad at memory position 0.\\n            calldatacopy(0, 0, calldatasize())\\n\\n            // Call the implementation.\\n            // out and outsize are 0 because we don't know the size yet.\\n            let result := delegatecall(gas(), implementation, 0, calldatasize(), 0, 0)\\n\\n            // Copy the returned data.\\n            returndatacopy(0, 0, returndatasize())\\n\\n            switch result\\n            // delegatecall returns 0 on error.\\n            case 0 { revert(0, returndatasize()) }\\n            default { return(0, returndatasize()) }\\n        }\\n    }\\n\\n    /**\\n     * @dev This is a virtual function that should be overriden so it returns the address to which the fallback function\\n     * and {_fallback} should delegate.\\n     */\\n    function _implementation() internal view virtual returns (address);\\n\\n    /**\\n     * @dev Delegates the current call to the address returned by `_implementation()`.\\n     *\\n     * This function does not return to its internall call site, it will return directly to the external caller.\\n     */\\n    function _fallback() internal virtual {\\n        _beforeFallback();\\n        _delegate(_implementation());\\n    }\\n\\n    /**\\n     * @dev Fallback function that delegates calls to the address returned by `_implementation()`. Will run if no other\\n     * function in the contract matches the call data.\\n     */\\n    fallback () external payable virtual {\\n        _fallback();\\n    }\\n\\n    /**\\n     * @dev Fallback function that delegates calls to the address returned by `_implementation()`. Will run if call data\\n     * is empty.\\n     */\\n    receive () external payable virtual {\\n        _fallback();\\n    }\\n\\n    /**\\n     * @dev Hook that is called before falling back to the implementation. Can happen as part of a manual `_fallback`\\n     * call, or as part of the Solidity `fallback` or `receive` functions.\\n     *\\n     * If overriden should call `super._beforeFallback()`.\\n     */\\n    function _beforeFallback() internal virtual {\\n    }\\n}\\n\",\"keccak256\":\"0xc706395df88dc1d459f21e51c57ab8820af80d1e8c3c14933a651794d78a429f\",\"license\":\"MIT\"},\"@openzeppelin/contracts/proxy/beacon/IBeacon.sol\":{\"content\":\"// SPDX-License-Identifier: MIT\\n\\npragma solidity ^0.8.0;\\n\\n/**\\n * @dev This is the interface that {BeaconProxy} expects of its beacon.\\n */\\ninterface IBeacon {\\n    /**\\n     * @dev Must return an address that can be used as a delegate call target.\\n     *\\n     * {BeaconProxy} will check that this address is a contract.\\n     */\\n    function implementation() external view returns (address);\\n}\\n\",\"keccak256\":\"0x5615339d191e77be7e46319b67856f9355786f705b7b3c4a7237ab70c1864ab1\",\"license\":\"MIT\"},\"@openzeppelin/contracts/token/ERC20/ERC20.sol\":{\"content\":\"// SPDX-License-Identifier: MIT\\n\\npragma solidity ^0.8.0;\\n\\nimport \\\"./IERC20.sol\\\";\\nimport \\\"./extensions/IERC20Metadata.sol\\\";\\nimport \\\"../../utils/Context.sol\\\";\\n\\n/**\\n * @dev Implementation of the {IERC20} interface.\\n *\\n * This implementation is agnostic to the way tokens are created. This means\\n * that a supply mechanism has to be added in a derived contract using {_mint}.\\n * For a generic mechanism see {ERC20PresetMinterPauser}.\\n *\\n * TIP: For a detailed writeup see our guide\\n * https://forum.zeppelin.solutions/t/how-to-implement-erc20-supply-mechanisms/226[How\\n * to implement supply mechanisms].\\n *\\n * We have followed general OpenZeppelin guidelines: functions revert instead\\n * of returning `false` on failure. This behavior is nonetheless conventional\\n * and does not conflict with the expectations of ERC20 applications.\\n *\\n * Additionally, an {Approval} event is emitted on calls to {transferFrom}.\\n * This allows applications to reconstruct the allowance for all accounts just\\n * by listening to said events. Other implementations of the EIP may not emit\\n * these events, as it isn't required by the specification.\\n *\\n * Finally, the non-standard {decreaseAllowance} and {increaseAllowance}\\n * functions have been added to mitigate the well-known issues around setting\\n * allowances. See {IERC20-approve}.\\n */\\ncontract ERC20 is Context, IERC20, IERC20Metadata {\\n    mapping (address => uint256) private _balances;\\n\\n    mapping (address => mapping (address => uint256)) private _allowances;\\n\\n    uint256 private _totalSupply;\\n\\n    string private _name;\\n    string private _symbol;\\n\\n    /**\\n     * @dev Sets the values for {name} and {symbol}.\\n     *\\n     * The defaut value of {decimals} is 18. To select a different value for\\n     * {decimals} you should overload it.\\n     *\\n     * All two of these values are immutable: they can only be set once during\\n     * construction.\\n     */\\n    constructor (string memory name_, string memory symbol_) {\\n        _name = name_;\\n        _symbol = symbol_;\\n    }\\n\\n    /**\\n     * @dev Returns the name of the token.\\n     */\\n    function name() public view virtual override returns (string memory) {\\n        return _name;\\n    }\\n\\n    /**\\n     * @dev Returns the symbol of the token, usually a shorter version of the\\n     * name.\\n     */\\n    function symbol() public view virtual override returns (string memory) {\\n        return _symbol;\\n    }\\n\\n    /**\\n     * @dev Returns the number of decimals used to get its user representation.\\n     * For example, if `decimals` equals `2`, a balance of `505` tokens should\\n     * be displayed to a user as `5,05` (`505 / 10 ** 2`).\\n     *\\n     * Tokens usually opt for a value of 18, imitating the relationship between\\n     * Ether and Wei. This is the value {ERC20} uses, unless this function is\\n     * overridden;\\n     *\\n     * NOTE: This information is only used for _display_ purposes: it in\\n     * no way affects any of the arithmetic of the contract, including\\n     * {IERC20-balanceOf} and {IERC20-transfer}.\\n     */\\n    function decimals() public view virtual override returns (uint8) {\\n        return 18;\\n    }\\n\\n    /**\\n     * @dev See {IERC20-totalSupply}.\\n     */\\n    function totalSupply() public view virtual override returns (uint256) {\\n        return _totalSupply;\\n    }\\n\\n    /**\\n     * @dev See {IERC20-balanceOf}.\\n     */\\n    function balanceOf(address account) public view virtual override returns (uint256) {\\n        return _balances[account];\\n    }\\n\\n    /**\\n     * @dev See {IERC20-transfer}.\\n     *\\n     * Requirements:\\n     *\\n     * - `recipient` cannot be the zero address.\\n     * - the caller must have a balance of at least `amount`.\\n     */\\n    function transfer(address recipient, uint256 amount) public virtual override returns (bool) {\\n        _transfer(_msgSender(), recipient, amount);\\n        return true;\\n    }\\n\\n    /**\\n     * @dev See {IERC20-allowance}.\\n     */\\n    function allowance(address owner, address spender) public view virtual override returns (uint256) {\\n        return _allowances[owner][spender];\\n    }\\n\\n    /**\\n     * @dev See {IERC20-approve}.\\n     *\\n     * Requirements:\\n     *\\n     * - `spender` cannot be the zero address.\\n     */\\n    function approve(address spender, uint256 amount) public virtual override returns (bool) {\\n        _approve(_msgSender(), spender, amount);\\n        return true;\\n    }\\n\\n    /**\\n     * @dev See {IERC20-transferFrom}.\\n     *\\n     * Emits an {Approval} event indicating the updated allowance. This is not\\n     * required by the EIP. See the note at the beginning of {ERC20}.\\n     *\\n     * Requirements:\\n     *\\n     * - `sender` and `recipient` cannot be the zero address.\\n     * - `sender` must have a balance of at least `amount`.\\n     * - the caller must have allowance for ``sender``'s tokens of at least\\n     * `amount`.\\n     */\\n    function transferFrom(address sender, address recipient, uint256 amount) public virtual override returns (bool) {\\n        _transfer(sender, recipient, amount);\\n\\n        uint256 currentAllowance = _allowances[sender][_msgSender()];\\n        require(currentAllowance >= amount, \\\"ERC20: transfer amount exceeds allowance\\\");\\n        _approve(sender, _msgSender(), currentAllowance - amount);\\n\\n        return true;\\n    }\\n\\n    /**\\n     * @dev Atomically increases the allowance granted to `spender` by the caller.\\n     *\\n     * This is an alternative to {approve} that can be used as a mitigation for\\n     * problems described in {IERC20-approve}.\\n     *\\n     * Emits an {Approval} event indicating the updated allowance.\\n     *\\n     * Requirements:\\n     *\\n     * - `spender` cannot be the zero address.\\n     */\\n    function increaseAllowance(address spender, uint256 addedValue) public virtual returns (bool) {\\n        _approve(_msgSender(), spender, _allowances[_msgSender()][spender] + addedValue);\\n        return true;\\n    }\\n\\n    /**\\n     * @dev Atomically decreases the allowance granted to `spender` by the caller.\\n     *\\n     * This is an alternative to {approve} that can be used as a mitigation for\\n     * problems described in {IERC20-approve}.\\n     *\\n     * Emits an {Approval} event indicating the updated allowance.\\n     *\\n     * Requirements:\\n     *\\n     * - `spender` cannot be the zero address.\\n     * - `spender` must have allowance for the caller of at least\\n     * `subtractedValue`.\\n     */\\n    function decreaseAllowance(address spender, uint256 subtractedValue) public virtual returns (bool) {\\n        uint256 currentAllowance = _allowances[_msgSender()][spender];\\n        require(currentAllowance >= subtractedValue, \\\"ERC20: decreased allowance below zero\\\");\\n        _approve(_msgSender(), spender, currentAllowance - subtractedValue);\\n\\n        return true;\\n    }\\n\\n    /**\\n     * @dev Moves tokens `amount` from `sender` to `recipient`.\\n     *\\n     * This is internal function is equivalent to {transfer}, and can be used to\\n     * e.g. implement automatic token fees, slashing mechanisms, etc.\\n     *\\n     * Emits a {Transfer} event.\\n     *\\n     * Requirements:\\n     *\\n     * - `sender` cannot be the zero address.\\n     * - `recipient` cannot be the zero address.\\n     * - `sender` must have a balance of at least `amount`.\\n     */\\n    function _transfer(address sender, address recipient, uint256 amount) internal virtual {\\n        require(sender != address(0), \\\"ERC20: transfer from the zero address\\\");\\n        require(recipient != address(0), \\\"ERC20: transfer to the zero address\\\");\\n\\n        _beforeTokenTransfer(sender, recipient, amount);\\n\\n        uint256 senderBalance = _balances[sender];\\n        require(senderBalance >= amount, \\\"ERC20: transfer amount exceeds balance\\\");\\n        _balances[sender] = senderBalance - amount;\\n        _balances[recipient] += amount;\\n\\n        emit Transfer(sender, recipient, amount);\\n    }\\n\\n    /** @dev Creates `amount` tokens and assigns them to `account`, increasing\\n     * the total supply.\\n     *\\n     * Emits a {Transfer} event with `from` set to the zero address.\\n     *\\n     * Requirements:\\n     *\\n     * - `to` cannot be the zero address.\\n     */\\n    function _mint(address account, uint256 amount) internal virtual {\\n        require(account != address(0), \\\"ERC20: mint to the zero address\\\");\\n\\n        _beforeTokenTransfer(address(0), account, amount);\\n\\n        _totalSupply += amount;\\n        _balances[account] += amount;\\n        emit Transfer(address(0), account, amount);\\n    }\\n\\n    /**\\n     * @dev Destroys `amount` tokens from `account`, reducing the\\n     * total supply.\\n     *\\n     * Emits a {Transfer} event with `to` set to the zero address.\\n     *\\n     * Requirements:\\n     *\\n     * - `account` cannot be the zero address.\\n     * - `account` must have at least `amount` tokens.\\n     */\\n    function _burn(address account, uint256 amount) internal virtual {\\n        require(account != address(0), \\\"ERC20: burn from the zero address\\\");\\n\\n        _beforeTokenTransfer(account, address(0), amount);\\n\\n        uint256 accountBalance = _balances[account];\\n        require(accountBalance >= amount, \\\"ERC20: burn amount exceeds balance\\\");\\n        _balances[account] = accountBalance - amount;\\n        _totalSupply -= amount;\\n\\n        emit Transfer(account, address(0), amount);\\n    }\\n\\n    /**\\n     * @dev Sets `amount` as the allowance of `spender` over the `owner` s tokens.\\n     *\\n     * This internal function is equivalent to `approve`, and can be used to\\n     * e.g. set automatic allowances for certain subsystems, etc.\\n     *\\n     * Emits an {Approval} event.\\n     *\\n     * Requirements:\\n     *\\n     * - `owner` cannot be the zero address.\\n     * - `spender` cannot be the zero address.\\n     */\\n    function _approve(address owner, address spender, uint256 amount) internal virtual {\\n        require(owner != address(0), \\\"ERC20: approve from the zero address\\\");\\n        require(spender != address(0), \\\"ERC20: approve to the zero address\\\");\\n\\n        _allowances[owner][spender] = amount;\\n        emit Approval(owner, spender, amount);\\n    }\\n\\n    /**\\n     * @dev Hook that is called before any transfer of tokens. This includes\\n     * minting and burning.\\n     *\\n     * Calling conditions:\\n     *\\n     * - when `from` and `to` are both non-zero, `amount` of ``from``'s tokens\\n     * will be to transferred to `to`.\\n     * - when `from` is zero, `amount` tokens will be minted for `to`.\\n     * - when `to` is zero, `amount` of ``from``'s tokens will be burned.\\n     * - `from` and `to` are never both zero.\\n     *\\n     * To learn more about hooks, head to xref:ROOT:extending-contracts.adoc#using-hooks[Using Hooks].\\n     */\\n    function _beforeTokenTransfer(address from, address to, uint256 amount) internal virtual { }\\n}\\n\",\"keccak256\":\"0xfeccdcbf67b2006a715e5af1a4c7556004d95b2806552b5cc54e46e8eb7e887b\",\"license\":\"MIT\"},\"@openzeppelin/contracts/token/ERC20/IERC20.sol\":{\"content\":\"// SPDX-License-Identifier: MIT\\n\\npragma solidity ^0.8.0;\\n\\n/**\\n * @dev Interface of the ERC20 standard as defined in the EIP.\\n */\\ninterface IERC20 {\\n    /**\\n     * @dev Returns the amount of tokens in existence.\\n     */\\n    function totalSupply() external view returns (uint256);\\n\\n    /**\\n     * @dev Returns the amount of tokens owned by `account`.\\n     */\\n    function balanceOf(address account) external view returns (uint256);\\n\\n    /**\\n     * @dev Moves `amount` tokens from the caller's account to `recipient`.\\n     *\\n     * Returns a boolean value indicating whether the operation succeeded.\\n     *\\n     * Emits a {Transfer} event.\\n     */\\n    function transfer(address recipient, uint256 amount) external returns (bool);\\n\\n    /**\\n     * @dev Returns the remaining number of tokens that `spender` will be\\n     * allowed to spend on behalf of `owner` through {transferFrom}. This is\\n     * zero by default.\\n     *\\n     * This value changes when {approve} or {transferFrom} are called.\\n     */\\n    function allowance(address owner, address spender) external view returns (uint256);\\n\\n    /**\\n     * @dev Sets `amount` as the allowance of `spender` over the caller's tokens.\\n     *\\n     * Returns a boolean value indicating whether the operation succeeded.\\n     *\\n     * IMPORTANT: Beware that changing an allowance with this method brings the risk\\n     * that someone may use both the old and the new allowance by unfortunate\\n     * transaction ordering. One possible solution to mitigate this race\\n     * condition is to first reduce the spender's allowance to 0 and set the\\n     * desired value afterwards:\\n     * https://github.com/ethereum/EIPs/issues/20#issuecomment-263524729\\n     *\\n     * Emits an {Approval} event.\\n     */\\n    function approve(address spender, uint256 amount) external returns (bool);\\n\\n    /**\\n     * @dev Moves `amount` tokens from `sender` to `recipient` using the\\n     * allowance mechanism. `amount` is then deducted from the caller's\\n     * allowance.\\n     *\\n     * Returns a boolean value indicating whether the operation succeeded.\\n     *\\n     * Emits a {Transfer} event.\\n     */\\n    function transferFrom(address sender, address recipient, uint256 amount) external returns (bool);\\n\\n    /**\\n     * @dev Emitted when `value` tokens are moved from one account (`from`) to\\n     * another (`to`).\\n     *\\n     * Note that `value` may be zero.\\n     */\\n    event Transfer(address indexed from, address indexed to, uint256 value);\\n\\n    /**\\n     * @dev Emitted when the allowance of a `spender` for an `owner` is set by\\n     * a call to {approve}. `value` is the new allowance.\\n     */\\n    event Approval(address indexed owner, address indexed spender, uint256 value);\\n}\\n\",\"keccak256\":\"0xf8e8d118a7a8b2e134181f7da655f6266aa3a0f9134b2605747139fcb0c5d835\",\"license\":\"MIT\"},\"@openzeppelin/contracts/token/ERC20/extensions/IERC20Metadata.sol\":{\"content\":\"// SPDX-License-Identifier: MIT\\n\\npragma solidity ^0.8.0;\\n\\nimport \\\"../IERC20.sol\\\";\\n\\n/**\\n * @dev Interface for the optional metadata functions from the ERC20 standard.\\n *\\n * _Available since v4.1._\\n */\\ninterface IERC20Metadata is IERC20 {\\n    /**\\n     * @dev Returns the name of the token.\\n     */\\n    function name() external view returns (string memory);\\n\\n    /**\\n     * @dev Returns the symbol of the token.\\n     */\\n    function symbol() external view returns (string memory);\\n\\n    /**\\n     * @dev Returns the decimals places of the token.\\n     */\\n    function decimals() external view returns (uint8);\\n}\\n\",\"keccak256\":\"0x83fe24f5c04a56091e50f4a345ff504c8bff658a76d4c43b16878c8f940c53b2\",\"license\":\"MIT\"},\"@openzeppelin/contracts/token/ERC20/utils/SafeERC20.sol\":{\"content\":\"// SPDX-License-Identifier: MIT\\n\\npragma solidity ^0.8.0;\\n\\nimport \\\"../IERC20.sol\\\";\\nimport \\\"../../../utils/Address.sol\\\";\\n\\n/**\\n * @title SafeERC20\\n * @dev Wrappers around ERC20 operations that throw on failure (when the token\\n * contract returns false). Tokens that return no value (and instead revert or\\n * throw on failure) are also supported, non-reverting calls are assumed to be\\n * successful.\\n * To use this library you can add a `using SafeERC20 for IERC20;` statement to your contract,\\n * which allows you to call the safe operations as `token.safeTransfer(...)`, etc.\\n */\\nlibrary SafeERC20 {\\n    using Address for address;\\n\\n    function safeTransfer(IERC20 token, address to, uint256 value) internal {\\n        _callOptionalReturn(token, abi.encodeWithSelector(token.transfer.selector, to, value));\\n    }\\n\\n    function safeTransferFrom(IERC20 token, address from, address to, uint256 value) internal {\\n        _callOptionalReturn(token, abi.encodeWithSelector(token.transferFrom.selector, from, to, value));\\n    }\\n\\n    /**\\n     * @dev Deprecated. This function has issues similar to the ones found in\\n     * {IERC20-approve}, and its usage is discouraged.\\n     *\\n     * Whenever possible, use {safeIncreaseAllowance} and\\n     * {safeDecreaseAllowance} instead.\\n     */\\n    function safeApprove(IERC20 token, address spender, uint256 value) internal {\\n        // safeApprove should only be called when setting an initial allowance,\\n        // or when resetting it to zero. To increase and decrease it, use\\n        // 'safeIncreaseAllowance' and 'safeDecreaseAllowance'\\n        // solhint-disable-next-line max-line-length\\n        require((value == 0) || (token.allowance(address(this), spender) == 0),\\n            \\\"SafeERC20: approve from non-zero to non-zero allowance\\\"\\n        );\\n        _callOptionalReturn(token, abi.encodeWithSelector(token.approve.selector, spender, value));\\n    }\\n\\n    function safeIncreaseAllowance(IERC20 token, address spender, uint256 value) internal {\\n        uint256 newAllowance = token.allowance(address(this), spender) + value;\\n        _callOptionalReturn(token, abi.encodeWithSelector(token.approve.selector, spender, newAllowance));\\n    }\\n\\n    function safeDecreaseAllowance(IERC20 token, address spender, uint256 value) internal {\\n        unchecked {\\n            uint256 oldAllowance = token.allowance(address(this), spender);\\n            require(oldAllowance >= value, \\\"SafeERC20: decreased allowance below zero\\\");\\n            uint256 newAllowance = oldAllowance - value;\\n            _callOptionalReturn(token, abi.encodeWithSelector(token.approve.selector, spender, newAllowance));\\n        }\\n    }\\n\\n    /**\\n     * @dev Imitates a Solidity high-level call (i.e. a regular function call to a contract), relaxing the requirement\\n     * on the return value: the return value is optional (but if data is returned, it must not be false).\\n     * @param token The token targeted by the call.\\n     * @param data The call data (encoded using abi.encode or one of its variants).\\n     */\\n    function _callOptionalReturn(IERC20 token, bytes memory data) private {\\n        // We need to perform a low level call here, to bypass Solidity's return data size checking mechanism, since\\n        // we're implementing it ourselves. We use {Address.functionCall} to perform this call, which verifies that\\n        // the target address contains contract code and also asserts for success in the low-level call.\\n\\n        bytes memory returndata = address(token).functionCall(data, \\\"SafeERC20: low-level call failed\\\");\\n        if (returndata.length > 0) { // Return data is optional\\n            // solhint-disable-next-line max-line-length\\n            require(abi.decode(returndata, (bool)), \\\"SafeERC20: ERC20 operation did not succeed\\\");\\n        }\\n    }\\n}\\n\",\"keccak256\":\"0x99f5c21018d796db7833a2100bb0e7411999e248a3c950fb526eee5d2bf47cb7\",\"license\":\"MIT\"},\"@openzeppelin/contracts/token/ERC721/IERC721.sol\":{\"content\":\"// SPDX-License-Identifier: MIT\\n\\npragma solidity ^0.8.0;\\n\\nimport \\\"../../utils/introspection/IERC165.sol\\\";\\n\\n/**\\n * @dev Required interface of an ERC721 compliant contract.\\n */\\ninterface IERC721 is IERC165 {\\n    /**\\n     * @dev Emitted when `tokenId` token is transferred from `from` to `to`.\\n     */\\n    event Transfer(address indexed from, address indexed to, uint256 indexed tokenId);\\n\\n    /**\\n     * @dev Emitted when `owner` enables `approved` to manage the `tokenId` token.\\n     */\\n    event Approval(address indexed owner, address indexed approved, uint256 indexed tokenId);\\n\\n    /**\\n     * @dev Emitted when `owner` enables or disables (`approved`) `operator` to manage all of its assets.\\n     */\\n    event ApprovalForAll(address indexed owner, address indexed operator, bool approved);\\n\\n    /**\\n     * @dev Returns the number of tokens in ``owner``'s account.\\n     */\\n    function balanceOf(address owner) external view returns (uint256 balance);\\n\\n    /**\\n     * @dev Returns the owner of the `tokenId` token.\\n     *\\n     * Requirements:\\n     *\\n     * - `tokenId` must exist.\\n     */\\n    function ownerOf(uint256 tokenId) external view returns (address owner);\\n\\n    /**\\n     * @dev Safely transfers `tokenId` token from `from` to `to`, checking first that contract recipients\\n     * are aware of the ERC721 protocol to prevent tokens from being forever locked.\\n     *\\n     * Requirements:\\n     *\\n     * - `from` cannot be the zero address.\\n     * - `to` cannot be the zero address.\\n     * - `tokenId` token must exist and be owned by `from`.\\n     * - If the caller is not `from`, it must be have been allowed to move this token by either {approve} or {setApprovalForAll}.\\n     * - If `to` refers to a smart contract, it must implement {IERC721Receiver-onERC721Received}, which is called upon a safe transfer.\\n     *\\n     * Emits a {Transfer} event.\\n     */\\n    function safeTransferFrom(address from, address to, uint256 tokenId) external;\\n\\n    /**\\n     * @dev Transfers `tokenId` token from `from` to `to`.\\n     *\\n     * WARNING: Usage of this method is discouraged, use {safeTransferFrom} whenever possible.\\n     *\\n     * Requirements:\\n     *\\n     * - `from` cannot be the zero address.\\n     * - `to` cannot be the zero address.\\n     * - `tokenId` token must be owned by `from`.\\n     * - If the caller is not `from`, it must be approved to move this token by either {approve} or {setApprovalForAll}.\\n     *\\n     * Emits a {Transfer} event.\\n     */\\n    function transferFrom(address from, address to, uint256 tokenId) external;\\n\\n    /**\\n     * @dev Gives permission to `to` to transfer `tokenId` token to another account.\\n     * The approval is cleared when the token is transferred.\\n     *\\n     * Only a single account can be approved at a time, so approving the zero address clears previous approvals.\\n     *\\n     * Requirements:\\n     *\\n     * - The caller must own the token or be an approved operator.\\n     * - `tokenId` must exist.\\n     *\\n     * Emits an {Approval} event.\\n     */\\n    function approve(address to, uint256 tokenId) external;\\n\\n    /**\\n     * @dev Returns the account approved for `tokenId` token.\\n     *\\n     * Requirements:\\n     *\\n     * - `tokenId` must exist.\\n     */\\n    function getApproved(uint256 tokenId) external view returns (address operator);\\n\\n    /**\\n     * @dev Approve or remove `operator` as an operator for the caller.\\n     * Operators can call {transferFrom} or {safeTransferFrom} for any token owned by the caller.\\n     *\\n     * Requirements:\\n     *\\n     * - The `operator` cannot be the caller.\\n     *\\n     * Emits an {ApprovalForAll} event.\\n     */\\n    function setApprovalForAll(address operator, bool _approved) external;\\n\\n    /**\\n     * @dev Returns if the `operator` is allowed to manage all of the assets of `owner`.\\n     *\\n     * See {setApprovalForAll}\\n     */\\n    function isApprovedForAll(address owner, address operator) external view returns (bool);\\n\\n    /**\\n      * @dev Safely transfers `tokenId` token from `from` to `to`.\\n      *\\n      * Requirements:\\n      *\\n      * - `from` cannot be the zero address.\\n      * - `to` cannot be the zero address.\\n      * - `tokenId` token must exist and be owned by `from`.\\n      * - If the caller is not `from`, it must be approved to move this token by either {approve} or {setApprovalForAll}.\\n      * - If `to` refers to a smart contract, it must implement {IERC721Receiver-onERC721Received}, which is called upon a safe transfer.\\n      *\\n      * Emits a {Transfer} event.\\n      */\\n    function safeTransferFrom(address from, address to, uint256 tokenId, bytes calldata data) external;\\n}\\n\",\"keccak256\":\"0xc1c941ad1e580b4623007305921efe2f26fc7320a4edc226234dd707c658a428\",\"license\":\"MIT\"},\"@openzeppelin/contracts/token/ERC721/extensions/IERC721Metadata.sol\":{\"content\":\"// SPDX-License-Identifier: MIT\\n\\npragma solidity ^0.8.0;\\n\\nimport \\\"../IERC721.sol\\\";\\n\\n/**\\n * @title ERC-721 Non-Fungible Token Standard, optional metadata extension\\n * @dev See https://eips.ethereum.org/EIPS/eip-721\\n */\\ninterface IERC721Metadata is IERC721 {\\n\\n    /**\\n     * @dev Returns the token collection name.\\n     */\\n    function name() external view returns (string memory);\\n\\n    /**\\n     * @dev Returns the token collection symbol.\\n     */\\n    function symbol() external view returns (string memory);\\n\\n    /**\\n     * @dev Returns the Uniform Resource Identifier (URI) for `tokenId` token.\\n     */\\n    function tokenURI(uint256 tokenId) external view returns (string memory);\\n}\\n\",\"keccak256\":\"0xb8d11e77eb1ed34a33720edb551d7d6a6b0eee2bfaa40a7024020e1fdf879b16\",\"license\":\"MIT\"},\"@openzeppelin/contracts/utils/Address.sol\":{\"content\":\"// SPDX-License-Identifier: MIT\\n\\npragma solidity ^0.8.0;\\n\\n/**\\n * @dev Collection of functions related to the address type\\n */\\nlibrary Address {\\n    /**\\n     * @dev Returns true if `account` is a contract.\\n     *\\n     * [IMPORTANT]\\n     * ====\\n     * It is unsafe to assume that an address for which this function returns\\n     * false is an externally-owned account (EOA) and not a contract.\\n     *\\n     * Among others, `isContract` will return false for the following\\n     * types of addresses:\\n     *\\n     *  - an externally-owned account\\n     *  - a contract in construction\\n     *  - an address where a contract will be created\\n     *  - an address where a contract lived, but was destroyed\\n     * ====\\n     */\\n    function isContract(address account) internal view returns (bool) {\\n        // This method relies on extcodesize, which returns 0 for contracts in\\n        // construction, since the code is only stored at the end of the\\n        // constructor execution.\\n\\n        uint256 size;\\n        // solhint-disable-next-line no-inline-assembly\\n        assembly { size := extcodesize(account) }\\n        return size > 0;\\n    }\\n\\n    /**\\n     * @dev Replacement for Solidity's `transfer`: sends `amount` wei to\\n     * `recipient`, forwarding all available gas and reverting on errors.\\n     *\\n     * https://eips.ethereum.org/EIPS/eip-1884[EIP1884] increases the gas cost\\n     * of certain opcodes, possibly making contracts go over the 2300 gas limit\\n     * imposed by `transfer`, making them unable to receive funds via\\n     * `transfer`. {sendValue} removes this limitation.\\n     *\\n     * https://diligence.consensys.net/posts/2019/09/stop-using-soliditys-transfer-now/[Learn more].\\n     *\\n     * IMPORTANT: because control is transferred to `recipient`, care must be\\n     * taken to not create reentrancy vulnerabilities. Consider using\\n     * {ReentrancyGuard} or the\\n     * https://solidity.readthedocs.io/en/v0.5.11/security-considerations.html#use-the-checks-effects-interactions-pattern[checks-effects-interactions pattern].\\n     */\\n    function sendValue(address payable recipient, uint256 amount) internal {\\n        require(address(this).balance >= amount, \\\"Address: insufficient balance\\\");\\n\\n        // solhint-disable-next-line avoid-low-level-calls, avoid-call-value\\n        (bool success, ) = recipient.call{ value: amount }(\\\"\\\");\\n        require(success, \\\"Address: unable to send value, recipient may have reverted\\\");\\n    }\\n\\n    /**\\n     * @dev Performs a Solidity function call using a low level `call`. A\\n     * plain`call` is an unsafe replacement for a function call: use this\\n     * function instead.\\n     *\\n     * If `target` reverts with a revert reason, it is bubbled up by this\\n     * function (like regular Solidity function calls).\\n     *\\n     * Returns the raw returned data. To convert to the expected return value,\\n     * use https://solidity.readthedocs.io/en/latest/units-and-global-variables.html?highlight=abi.decode#abi-encoding-and-decoding-functions[`abi.decode`].\\n     *\\n     * Requirements:\\n     *\\n     * - `target` must be a contract.\\n     * - calling `target` with `data` must not revert.\\n     *\\n     * _Available since v3.1._\\n     */\\n    function functionCall(address target, bytes memory data) internal returns (bytes memory) {\\n      return functionCall(target, data, \\\"Address: low-level call failed\\\");\\n    }\\n\\n    /**\\n     * @dev Same as {xref-Address-functionCall-address-bytes-}[`functionCall`], but with\\n     * `errorMessage` as a fallback revert reason when `target` reverts.\\n     *\\n     * _Available since v3.1._\\n     */\\n    function functionCall(address target, bytes memory data, string memory errorMessage) internal returns (bytes memory) {\\n        return functionCallWithValue(target, data, 0, errorMessage);\\n    }\\n\\n    /**\\n     * @dev Same as {xref-Address-functionCall-address-bytes-}[`functionCall`],\\n     * but also transferring `value` wei to `target`.\\n     *\\n     * Requirements:\\n     *\\n     * - the calling contract must have an ETH balance of at least `value`.\\n     * - the called Solidity function must be `payable`.\\n     *\\n     * _Available since v3.1._\\n     */\\n    function functionCallWithValue(address target, bytes memory data, uint256 value) internal returns (bytes memory) {\\n        return functionCallWithValue(target, data, value, \\\"Address: low-level call with value failed\\\");\\n    }\\n\\n    /**\\n     * @dev Same as {xref-Address-functionCallWithValue-address-bytes-uint256-}[`functionCallWithValue`], but\\n     * with `errorMessage` as a fallback revert reason when `target` reverts.\\n     *\\n     * _Available since v3.1._\\n     */\\n    function functionCallWithValue(address target, bytes memory data, uint256 value, string memory errorMessage) internal returns (bytes memory) {\\n        require(address(this).balance >= value, \\\"Address: insufficient balance for call\\\");\\n        require(isContract(target), \\\"Address: call to non-contract\\\");\\n\\n        // solhint-disable-next-line avoid-low-level-calls\\n        (bool success, bytes memory returndata) = target.call{ value: value }(data);\\n        return _verifyCallResult(success, returndata, errorMessage);\\n    }\\n\\n    /**\\n     * @dev Same as {xref-Address-functionCall-address-bytes-}[`functionCall`],\\n     * but performing a static call.\\n     *\\n     * _Available since v3.3._\\n     */\\n    function functionStaticCall(address target, bytes memory data) internal view returns (bytes memory) {\\n        return functionStaticCall(target, data, \\\"Address: low-level static call failed\\\");\\n    }\\n\\n    /**\\n     * @dev Same as {xref-Address-functionCall-address-bytes-string-}[`functionCall`],\\n     * but performing a static call.\\n     *\\n     * _Available since v3.3._\\n     */\\n    function functionStaticCall(address target, bytes memory data, string memory errorMessage) internal view returns (bytes memory) {\\n        require(isContract(target), \\\"Address: static call to non-contract\\\");\\n\\n        // solhint-disable-next-line avoid-low-level-calls\\n        (bool success, bytes memory returndata) = target.staticcall(data);\\n        return _verifyCallResult(success, returndata, errorMessage);\\n    }\\n\\n    /**\\n     * @dev Same as {xref-Address-functionCall-address-bytes-}[`functionCall`],\\n     * but performing a delegate call.\\n     *\\n     * _Available since v3.4._\\n     */\\n    function functionDelegateCall(address target, bytes memory data) internal returns (bytes memory) {\\n        return functionDelegateCall(target, data, \\\"Address: low-level delegate call failed\\\");\\n    }\\n\\n    /**\\n     * @dev Same as {xref-Address-functionCall-address-bytes-string-}[`functionCall`],\\n     * but performing a delegate call.\\n     *\\n     * _Available since v3.4._\\n     */\\n    function functionDelegateCall(address target, bytes memory data, string memory errorMessage) internal returns (bytes memory) {\\n        require(isContract(target), \\\"Address: delegate call to non-contract\\\");\\n\\n        // solhint-disable-next-line avoid-low-level-calls\\n        (bool success, bytes memory returndata) = target.delegatecall(data);\\n        return _verifyCallResult(success, returndata, errorMessage);\\n    }\\n\\n    function _verifyCallResult(bool success, bytes memory returndata, string memory errorMessage) private pure returns(bytes memory) {\\n        if (success) {\\n            return returndata;\\n        } else {\\n            // Look for revert reason and bubble it up if present\\n            if (returndata.length > 0) {\\n                // The easiest way to bubble the revert reason is using memory via assembly\\n\\n                // solhint-disable-next-line no-inline-assembly\\n                assembly {\\n                    let returndata_size := mload(returndata)\\n                    revert(add(32, returndata), returndata_size)\\n                }\\n            } else {\\n                revert(errorMessage);\\n            }\\n        }\\n    }\\n}\\n\",\"keccak256\":\"0x069b2631bb5b5193a58ccf7a06266c7361bd2c20095667af4402817605627f45\",\"license\":\"MIT\"},\"@openzeppelin/contracts/utils/Context.sol\":{\"content\":\"// SPDX-License-Identifier: MIT\\n\\npragma solidity ^0.8.0;\\n\\n/*\\n * @dev Provides information about the current execution context, including the\\n * sender of the transaction and its data. While these are generally available\\n * via msg.sender and msg.data, they should not be accessed in such a direct\\n * manner, since when dealing with meta-transactions the account sending and\\n * paying for execution may not be the actual sender (as far as an application\\n * is concerned).\\n *\\n * This contract is only required for intermediate, library-like contracts.\\n */\\nabstract contract Context {\\n    function _msgSender() internal view virtual returns (address) {\\n        return msg.sender;\\n    }\\n\\n    function _msgData() internal view virtual returns (bytes calldata) {\\n        this; // silence state mutability warning without generating bytecode - see https://github.com/ethereum/solidity/issues/2691\\n        return msg.data;\\n    }\\n}\\n\",\"keccak256\":\"0xf930d2df426bfcfc1f7415be724f04081c96f4fb9ec8d0e3a521c07692dface0\",\"license\":\"MIT\"},\"@openzeppelin/contracts/utils/Counters.sol\":{\"content\":\"// SPDX-License-Identifier: MIT\\n\\npragma solidity ^0.8.0;\\n\\n/**\\n * @title Counters\\n * @author Matt Condon (@shrugs)\\n * @dev Provides counters that can only be incremented or decremented by one. This can be used e.g. to track the number\\n * of elements in a mapping, issuing ERC721 ids, or counting request ids.\\n *\\n * Include with `using Counters for Counters.Counter;`\\n */\\nlibrary Counters {\\n    struct Counter {\\n        // This variable should never be directly accessed by users of the library: interactions must be restricted to\\n        // the library's function. As of Solidity v0.5.2, this cannot be enforced, though there is a proposal to add\\n        // this feature: see https://github.com/ethereum/solidity/issues/4637\\n        uint256 _value; // default: 0\\n    }\\n\\n    function current(Counter storage counter) internal view returns (uint256) {\\n        return counter._value;\\n    }\\n\\n    function increment(Counter storage counter) internal {\\n        unchecked {\\n            counter._value += 1;\\n        }\\n    }\\n\\n    function decrement(Counter storage counter) internal {\\n        uint256 value = counter._value;\\n        require(value > 0, \\\"Counter: decrement overflow\\\");\\n        unchecked {\\n            counter._value = value - 1;\\n        }\\n    }\\n}\\n\",\"keccak256\":\"0x62d306ff0499a11913bc60b5939eec619509b5c67b30e86ebf8b8bda0b7a7fee\",\"license\":\"MIT\"},\"@openzeppelin/contracts/utils/cryptography/MerkleProof.sol\":{\"content\":\"// SPDX-License-Identifier: MIT\\n\\npragma solidity ^0.8.0;\\n\\n/**\\n * @dev These functions deal with verification of Merkle Trees proofs.\\n *\\n * The proofs can be generated using the JavaScript library\\n * https://github.com/miguelmota/merkletreejs[merkletreejs].\\n * Note: the hashing algorithm should be keccak256 and pair sorting should be enabled.\\n *\\n * See `test/utils/cryptography/MerkleProof.test.js` for some examples.\\n */\\nlibrary MerkleProof {\\n    /**\\n     * @dev Returns true if a `leaf` can be proved to be a part of a Merkle tree\\n     * defined by `root`. For this, a `proof` must be provided, containing\\n     * sibling hashes on the branch from the leaf to the root of the tree. Each\\n     * pair of leaves and each pair of pre-images are assumed to be sorted.\\n     */\\n    function verify(bytes32[] memory proof, bytes32 root, bytes32 leaf) internal pure returns (bool) {\\n        bytes32 computedHash = leaf;\\n\\n        for (uint256 i = 0; i < proof.length; i++) {\\n            bytes32 proofElement = proof[i];\\n\\n            if (computedHash <= proofElement) {\\n                // Hash(current computed hash + current element of the proof)\\n                computedHash = keccak256(abi.encodePacked(computedHash, proofElement));\\n            } else {\\n                // Hash(current element of the proof + current computed hash)\\n                computedHash = keccak256(abi.encodePacked(proofElement, computedHash));\\n            }\\n        }\\n\\n        // Check if the computed hash (root) is equal to the provided root\\n        return computedHash == root;\\n    }\\n}\\n\",\"keccak256\":\"0xeee34bfb413657b6cd6c8e1e15c2080ba5ebaac479578515922804346fb63f7c\",\"license\":\"MIT\"},\"@openzeppelin/contracts/utils/introspection/IERC165.sol\":{\"content\":\"// SPDX-License-Identifier: MIT\\n\\npragma solidity ^0.8.0;\\n\\n/**\\n * @dev Interface of the ERC165 standard, as defined in the\\n * https://eips.ethereum.org/EIPS/eip-165[EIP].\\n *\\n * Implementers can declare support of contract interfaces, which can then be\\n * queried by others ({ERC165Checker}).\\n *\\n * For an implementation, see {ERC165}.\\n */\\ninterface IERC165 {\\n    /**\\n     * @dev Returns true if this contract implements the interface defined by\\n     * `interfaceId`. See the corresponding\\n     * https://eips.ethereum.org/EIPS/eip-165#how-interfaces-are-identified[EIP section]\\n     * to learn more about how these ids are created.\\n     *\\n     * This function call must use less than 30 000 gas.\\n     */\\n    function supportsInterface(bytes4 interfaceId) external view returns (bool);\\n}\\n\",\"keccak256\":\"0xa28007762d9da9db878dd421960c8cb9a10471f47ab5c1b3309bfe48e9e79ff4\",\"license\":\"MIT\"},\"@openzeppelin/contracts/utils/math/SafeCast.sol\":{\"content\":\"// SPDX-License-Identifier: MIT\\n\\npragma solidity ^0.8.0;\\n\\n/**\\n * @dev Wrappers over Solidity's uintXX/intXX casting operators with added overflow\\n * checks.\\n *\\n * Downcasting from uint256/int256 in Solidity does not revert on overflow. This can\\n * easily result in undesired exploitation or bugs, since developers usually\\n * assume that overflows raise errors. `SafeCast` restores this intuition by\\n * reverting the transaction when such an operation overflows.\\n *\\n * Using this library instead of the unchecked operations eliminates an entire\\n * class of bugs, so it's recommended to use it always.\\n *\\n * Can be combined with {SafeMath} and {SignedSafeMath} to extend it to smaller types, by performing\\n * all math on `uint256` and `int256` and then downcasting.\\n */\\nlibrary SafeCast {\\n    /**\\n     * @dev Returns the downcasted uint128 from uint256, reverting on\\n     * overflow (when the input is greater than largest uint128).\\n     *\\n     * Counterpart to Solidity's `uint128` operator.\\n     *\\n     * Requirements:\\n     *\\n     * - input must fit into 128 bits\\n     */\\n    function toUint128(uint256 value) internal pure returns (uint128) {\\n        require(value < 2**128, \\\"SafeCast: value doesn\\\\'t fit in 128 bits\\\");\\n        return uint128(value);\\n    }\\n\\n    /**\\n     * @dev Returns the downcasted uint64 from uint256, reverting on\\n     * overflow (when the input is greater than largest uint64).\\n     *\\n     * Counterpart to Solidity's `uint64` operator.\\n     *\\n     * Requirements:\\n     *\\n     * - input must fit into 64 bits\\n     */\\n    function toUint64(uint256 value) internal pure returns (uint64) {\\n        require(value < 2**64, \\\"SafeCast: value doesn\\\\'t fit in 64 bits\\\");\\n        return uint64(value);\\n    }\\n\\n    /**\\n     * @dev Returns the downcasted uint32 from uint256, reverting on\\n     * overflow (when the input is greater than largest uint32).\\n     *\\n     * Counterpart to Solidity's `uint32` operator.\\n     *\\n     * Requirements:\\n     *\\n     * - input must fit into 32 bits\\n     */\\n    function toUint32(uint256 value) internal pure returns (uint32) {\\n        require(value < 2**32, \\\"SafeCast: value doesn\\\\'t fit in 32 bits\\\");\\n        return uint32(value);\\n    }\\n\\n    /**\\n     * @dev Returns the downcasted uint16 from uint256, reverting on\\n     * overflow (when the input is greater than largest uint16).\\n     *\\n     * Counterpart to Solidity's `uint16` operator.\\n     *\\n     * Requirements:\\n     *\\n     * - input must fit into 16 bits\\n     */\\n    function toUint16(uint256 value) internal pure returns (uint16) {\\n        require(value < 2**16, \\\"SafeCast: value doesn\\\\'t fit in 16 bits\\\");\\n        return uint16(value);\\n    }\\n\\n    /**\\n     * @dev Returns the downcasted uint8 from uint256, reverting on\\n     * overflow (when the input is greater than largest uint8).\\n     *\\n     * Counterpart to Solidity's `uint8` operator.\\n     *\\n     * Requirements:\\n     *\\n     * - input must fit into 8 bits.\\n     */\\n    function toUint8(uint256 value) internal pure returns (uint8) {\\n        require(value < 2**8, \\\"SafeCast: value doesn\\\\'t fit in 8 bits\\\");\\n        return uint8(value);\\n    }\\n\\n    /**\\n     * @dev Converts a signed int256 into an unsigned uint256.\\n     *\\n     * Requirements:\\n     *\\n     * - input must be greater than or equal to 0.\\n     */\\n    function toUint256(int256 value) internal pure returns (uint256) {\\n        require(value >= 0, \\\"SafeCast: value must be positive\\\");\\n        return uint256(value);\\n    }\\n\\n    /**\\n     * @dev Returns the downcasted int128 from int256, reverting on\\n     * overflow (when the input is less than smallest int128 or\\n     * greater than largest int128).\\n     *\\n     * Counterpart to Solidity's `int128` operator.\\n     *\\n     * Requirements:\\n     *\\n     * - input must fit into 128 bits\\n     *\\n     * _Available since v3.1._\\n     */\\n    function toInt128(int256 value) internal pure returns (int128) {\\n        require(value >= -2**127 && value < 2**127, \\\"SafeCast: value doesn\\\\'t fit in 128 bits\\\");\\n        return int128(value);\\n    }\\n\\n    /**\\n     * @dev Returns the downcasted int64 from int256, reverting on\\n     * overflow (when the input is less than smallest int64 or\\n     * greater than largest int64).\\n     *\\n     * Counterpart to Solidity's `int64` operator.\\n     *\\n     * Requirements:\\n     *\\n     * - input must fit into 64 bits\\n     *\\n     * _Available since v3.1._\\n     */\\n    function toInt64(int256 value) internal pure returns (int64) {\\n        require(value >= -2**63 && value < 2**63, \\\"SafeCast: value doesn\\\\'t fit in 64 bits\\\");\\n        return int64(value);\\n    }\\n\\n    /**\\n     * @dev Returns the downcasted int32 from int256, reverting on\\n     * overflow (when the input is less than smallest int32 or\\n     * greater than largest int32).\\n     *\\n     * Counterpart to Solidity's `int32` operator.\\n     *\\n     * Requirements:\\n     *\\n     * - input must fit into 32 bits\\n     *\\n     * _Available since v3.1._\\n     */\\n    function toInt32(int256 value) internal pure returns (int32) {\\n        require(value >= -2**31 && value < 2**31, \\\"SafeCast: value doesn\\\\'t fit in 32 bits\\\");\\n        return int32(value);\\n    }\\n\\n    /**\\n     * @dev Returns the downcasted int16 from int256, reverting on\\n     * overflow (when the input is less than smallest int16 or\\n     * greater than largest int16).\\n     *\\n     * Counterpart to Solidity's `int16` operator.\\n     *\\n     * Requirements:\\n     *\\n     * - input must fit into 16 bits\\n     *\\n     * _Available since v3.1._\\n     */\\n    function toInt16(int256 value) internal pure returns (int16) {\\n        require(value >= -2**15 && value < 2**15, \\\"SafeCast: value doesn\\\\'t fit in 16 bits\\\");\\n        return int16(value);\\n    }\\n\\n    /**\\n     * @dev Returns the downcasted int8 from int256, reverting on\\n     * overflow (when the input is less than smallest int8 or\\n     * greater than largest int8).\\n     *\\n     * Counterpart to Solidity's `int8` operator.\\n     *\\n     * Requirements:\\n     *\\n     * - input must fit into 8 bits.\\n     *\\n     * _Available since v3.1._\\n     */\\n    function toInt8(int256 value) internal pure returns (int8) {\\n        require(value >= -2**7 && value < 2**7, \\\"SafeCast: value doesn\\\\'t fit in 8 bits\\\");\\n        return int8(value);\\n    }\\n\\n    /**\\n     * @dev Converts an unsigned uint256 into a signed int256.\\n     *\\n     * Requirements:\\n     *\\n     * - input must be less than or equal to maxInt256.\\n     */\\n    function toInt256(uint256 value) internal pure returns (int256) {\\n        require(value < 2**255, \\\"SafeCast: value doesn't fit in an int256\\\");\\n        return int256(value);\\n    }\\n}\\n\",\"keccak256\":\"0xc37d85b96c2a8d7bc09f25958e0a81394bf5780286444147ddf875fa628d53ce\",\"license\":\"MIT\"},\"@openzeppelin/contracts/utils/math/SafeMath.sol\":{\"content\":\"// SPDX-License-Identifier: MIT\\n\\npragma solidity ^0.8.0;\\n\\n// CAUTION\\n// This version of SafeMath should only be used with Solidity 0.8 or later,\\n// because it relies on the compiler's built in overflow checks.\\n\\n/**\\n * @dev Wrappers over Solidity's arithmetic operations.\\n *\\n * NOTE: `SafeMath` is no longer needed starting with Solidity 0.8. The compiler\\n * now has built in overflow checking.\\n */\\nlibrary SafeMath {\\n    /**\\n     * @dev Returns the addition of two unsigned integers, with an overflow flag.\\n     *\\n     * _Available since v3.4._\\n     */\\n    function tryAdd(uint256 a, uint256 b) internal pure returns (bool, uint256) {\\n        unchecked {\\n            uint256 c = a + b;\\n            if (c < a) return (false, 0);\\n            return (true, c);\\n        }\\n    }\\n\\n    /**\\n     * @dev Returns the substraction of two unsigned integers, with an overflow flag.\\n     *\\n     * _Available since v3.4._\\n     */\\n    function trySub(uint256 a, uint256 b) internal pure returns (bool, uint256) {\\n        unchecked {\\n            if (b > a) return (false, 0);\\n            return (true, a - b);\\n        }\\n    }\\n\\n    /**\\n     * @dev Returns the multiplication of two unsigned integers, with an overflow flag.\\n     *\\n     * _Available since v3.4._\\n     */\\n    function tryMul(uint256 a, uint256 b) internal pure returns (bool, uint256) {\\n        unchecked {\\n            // Gas optimization: this is cheaper than requiring 'a' not being zero, but the\\n            // benefit is lost if 'b' is also tested.\\n            // See: https://github.com/OpenZeppelin/openzeppelin-contracts/pull/522\\n            if (a == 0) return (true, 0);\\n            uint256 c = a * b;\\n            if (c / a != b) return (false, 0);\\n            return (true, c);\\n        }\\n    }\\n\\n    /**\\n     * @dev Returns the division of two unsigned integers, with a division by zero flag.\\n     *\\n     * _Available since v3.4._\\n     */\\n    function tryDiv(uint256 a, uint256 b) internal pure returns (bool, uint256) {\\n        unchecked {\\n            if (b == 0) return (false, 0);\\n            return (true, a / b);\\n        }\\n    }\\n\\n    /**\\n     * @dev Returns the remainder of dividing two unsigned integers, with a division by zero flag.\\n     *\\n     * _Available since v3.4._\\n     */\\n    function tryMod(uint256 a, uint256 b) internal pure returns (bool, uint256) {\\n        unchecked {\\n            if (b == 0) return (false, 0);\\n            return (true, a % b);\\n        }\\n    }\\n\\n    /**\\n     * @dev Returns the addition of two unsigned integers, reverting on\\n     * overflow.\\n     *\\n     * Counterpart to Solidity's `+` operator.\\n     *\\n     * Requirements:\\n     *\\n     * - Addition cannot overflow.\\n     */\\n    function add(uint256 a, uint256 b) internal pure returns (uint256) {\\n        return a + b;\\n    }\\n\\n    /**\\n     * @dev Returns the subtraction of two unsigned integers, reverting on\\n     * overflow (when the result is negative).\\n     *\\n     * Counterpart to Solidity's `-` operator.\\n     *\\n     * Requirements:\\n     *\\n     * - Subtraction cannot overflow.\\n     */\\n    function sub(uint256 a, uint256 b) internal pure returns (uint256) {\\n        return a - b;\\n    }\\n\\n    /**\\n     * @dev Returns the multiplication of two unsigned integers, reverting on\\n     * overflow.\\n     *\\n     * Counterpart to Solidity's `*` operator.\\n     *\\n     * Requirements:\\n     *\\n     * - Multiplication cannot overflow.\\n     */\\n    function mul(uint256 a, uint256 b) internal pure returns (uint256) {\\n        return a * b;\\n    }\\n\\n    /**\\n     * @dev Returns the integer division of two unsigned integers, reverting on\\n     * division by zero. The result is rounded towards zero.\\n     *\\n     * Counterpart to Solidity's `/` operator.\\n     *\\n     * Requirements:\\n     *\\n     * - The divisor cannot be zero.\\n     */\\n    function div(uint256 a, uint256 b) internal pure returns (uint256) {\\n        return a / b;\\n    }\\n\\n    /**\\n     * @dev Returns the remainder of dividing two unsigned integers. (unsigned integer modulo),\\n     * reverting when dividing by zero.\\n     *\\n     * Counterpart to Solidity's `%` operator. This function uses a `revert`\\n     * opcode (which leaves remaining gas untouched) while Solidity uses an\\n     * invalid opcode to revert (consuming all remaining gas).\\n     *\\n     * Requirements:\\n     *\\n     * - The divisor cannot be zero.\\n     */\\n    function mod(uint256 a, uint256 b) internal pure returns (uint256) {\\n        return a % b;\\n    }\\n\\n    /**\\n     * @dev Returns the subtraction of two unsigned integers, reverting with custom message on\\n     * overflow (when the result is negative).\\n     *\\n     * CAUTION: This function is deprecated because it requires allocating memory for the error\\n     * message unnecessarily. For custom revert reasons use {trySub}.\\n     *\\n     * Counterpart to Solidity's `-` operator.\\n     *\\n     * Requirements:\\n     *\\n     * - Subtraction cannot overflow.\\n     */\\n    function sub(uint256 a, uint256 b, string memory errorMessage) internal pure returns (uint256) {\\n        unchecked {\\n            require(b <= a, errorMessage);\\n            return a - b;\\n        }\\n    }\\n\\n    /**\\n     * @dev Returns the integer division of two unsigned integers, reverting with custom message on\\n     * division by zero. The result is rounded towards zero.\\n     *\\n     * Counterpart to Solidity's `%` operator. This function uses a `revert`\\n     * opcode (which leaves remaining gas untouched) while Solidity uses an\\n     * invalid opcode to revert (consuming all remaining gas).\\n     *\\n     * Counterpart to Solidity's `/` operator. Note: this function uses a\\n     * `revert` opcode (which leaves remaining gas untouched) while Solidity\\n     * uses an invalid opcode to revert (consuming all remaining gas).\\n     *\\n     * Requirements:\\n     *\\n     * - The divisor cannot be zero.\\n     */\\n    function div(uint256 a, uint256 b, string memory errorMessage) internal pure returns (uint256) {\\n        unchecked {\\n            require(b > 0, errorMessage);\\n            return a / b;\\n        }\\n    }\\n\\n    /**\\n     * @dev Returns the remainder of dividing two unsigned integers. (unsigned integer modulo),\\n     * reverting with custom message when dividing by zero.\\n     *\\n     * CAUTION: This function is deprecated because it requires allocating memory for the error\\n     * message unnecessarily. For custom revert reasons use {tryMod}.\\n     *\\n     * Counterpart to Solidity's `%` operator. This function uses a `revert`\\n     * opcode (which leaves remaining gas untouched) while Solidity uses an\\n     * invalid opcode to revert (consuming all remaining gas).\\n     *\\n     * Requirements:\\n     *\\n     * - The divisor cannot be zero.\\n     */\\n    function mod(uint256 a, uint256 b, string memory errorMessage) internal pure returns (uint256) {\\n        unchecked {\\n            require(b > 0, errorMessage);\\n            return a % b;\\n        }\\n    }\\n}\\n\",\"keccak256\":\"0x2526b7c6a366fc211bbc176078ab02b83833e7682abcc5b3bed9d700b34e2a3e\",\"license\":\"MIT\"},\"@openzeppelin/contracts/utils/structs/EnumerableSet.sol\":{\"content\":\"// SPDX-License-Identifier: MIT\\n\\npragma solidity ^0.8.0;\\n\\n/**\\n * @dev Library for managing\\n * https://en.wikipedia.org/wiki/Set_(abstract_data_type)[sets] of primitive\\n * types.\\n *\\n * Sets have the following properties:\\n *\\n * - Elements are added, removed, and checked for existence in constant time\\n * (O(1)).\\n * - Elements are enumerated in O(n). No guarantees are made on the ordering.\\n *\\n * ```\\n * contract Example {\\n *     // Add the library methods\\n *     using EnumerableSet for EnumerableSet.AddressSet;\\n *\\n *     // Declare a set state variable\\n *     EnumerableSet.AddressSet private mySet;\\n * }\\n * ```\\n *\\n * As of v3.3.0, sets of type `bytes32` (`Bytes32Set`), `address` (`AddressSet`)\\n * and `uint256` (`UintSet`) are supported.\\n */\\nlibrary EnumerableSet {\\n    // To implement this library for multiple types with as little code\\n    // repetition as possible, we write it in terms of a generic Set type with\\n    // bytes32 values.\\n    // The Set implementation uses private functions, and user-facing\\n    // implementations (such as AddressSet) are just wrappers around the\\n    // underlying Set.\\n    // This means that we can only create new EnumerableSets for types that fit\\n    // in bytes32.\\n\\n    struct Set {\\n        // Storage of set values\\n        bytes32[] _values;\\n\\n        // Position of the value in the `values` array, plus 1 because index 0\\n        // means a value is not in the set.\\n        mapping (bytes32 => uint256) _indexes;\\n    }\\n\\n    /**\\n     * @dev Add a value to a set. O(1).\\n     *\\n     * Returns true if the value was added to the set, that is if it was not\\n     * already present.\\n     */\\n    function _add(Set storage set, bytes32 value) private returns (bool) {\\n        if (!_contains(set, value)) {\\n            set._values.push(value);\\n            // The value is stored at length-1, but we add 1 to all indexes\\n            // and use 0 as a sentinel value\\n            set._indexes[value] = set._values.length;\\n            return true;\\n        } else {\\n            return false;\\n        }\\n    }\\n\\n    /**\\n     * @dev Removes a value from a set. O(1).\\n     *\\n     * Returns true if the value was removed from the set, that is if it was\\n     * present.\\n     */\\n    function _remove(Set storage set, bytes32 value) private returns (bool) {\\n        // We read and store the value's index to prevent multiple reads from the same storage slot\\n        uint256 valueIndex = set._indexes[value];\\n\\n        if (valueIndex != 0) { // Equivalent to contains(set, value)\\n            // To delete an element from the _values array in O(1), we swap the element to delete with the last one in\\n            // the array, and then remove the last element (sometimes called as 'swap and pop').\\n            // This modifies the order of the array, as noted in {at}.\\n\\n            uint256 toDeleteIndex = valueIndex - 1;\\n            uint256 lastIndex = set._values.length - 1;\\n\\n            // When the value to delete is the last one, the swap operation is unnecessary. However, since this occurs\\n            // so rarely, we still do the swap anyway to avoid the gas cost of adding an 'if' statement.\\n\\n            bytes32 lastvalue = set._values[lastIndex];\\n\\n            // Move the last value to the index where the value to delete is\\n            set._values[toDeleteIndex] = lastvalue;\\n            // Update the index for the moved value\\n            set._indexes[lastvalue] = valueIndex; // Replace lastvalue's index to valueIndex\\n\\n            // Delete the slot where the moved value was stored\\n            set._values.pop();\\n\\n            // Delete the index for the deleted slot\\n            delete set._indexes[value];\\n\\n            return true;\\n        } else {\\n            return false;\\n        }\\n    }\\n\\n    /**\\n     * @dev Returns true if the value is in the set. O(1).\\n     */\\n    function _contains(Set storage set, bytes32 value) private view returns (bool) {\\n        return set._indexes[value] != 0;\\n    }\\n\\n    /**\\n     * @dev Returns the number of values on the set. O(1).\\n     */\\n    function _length(Set storage set) private view returns (uint256) {\\n        return set._values.length;\\n    }\\n\\n   /**\\n    * @dev Returns the value stored at position `index` in the set. O(1).\\n    *\\n    * Note that there are no guarantees on the ordering of values inside the\\n    * array, and it may change when more values are added or removed.\\n    *\\n    * Requirements:\\n    *\\n    * - `index` must be strictly less than {length}.\\n    */\\n    function _at(Set storage set, uint256 index) private view returns (bytes32) {\\n        require(set._values.length > index, \\\"EnumerableSet: index out of bounds\\\");\\n        return set._values[index];\\n    }\\n\\n    // Bytes32Set\\n\\n    struct Bytes32Set {\\n        Set _inner;\\n    }\\n\\n    /**\\n     * @dev Add a value to a set. O(1).\\n     *\\n     * Returns true if the value was added to the set, that is if it was not\\n     * already present.\\n     */\\n    function add(Bytes32Set storage set, bytes32 value) internal returns (bool) {\\n        return _add(set._inner, value);\\n    }\\n\\n    /**\\n     * @dev Removes a value from a set. O(1).\\n     *\\n     * Returns true if the value was removed from the set, that is if it was\\n     * present.\\n     */\\n    function remove(Bytes32Set storage set, bytes32 value) internal returns (bool) {\\n        return _remove(set._inner, value);\\n    }\\n\\n    /**\\n     * @dev Returns true if the value is in the set. O(1).\\n     */\\n    function contains(Bytes32Set storage set, bytes32 value) internal view returns (bool) {\\n        return _contains(set._inner, value);\\n    }\\n\\n    /**\\n     * @dev Returns the number of values in the set. O(1).\\n     */\\n    function length(Bytes32Set storage set) internal view returns (uint256) {\\n        return _length(set._inner);\\n    }\\n\\n   /**\\n    * @dev Returns the value stored at position `index` in the set. O(1).\\n    *\\n    * Note that there are no guarantees on the ordering of values inside the\\n    * array, and it may change when more values are added or removed.\\n    *\\n    * Requirements:\\n    *\\n    * - `index` must be strictly less than {length}.\\n    */\\n    function at(Bytes32Set storage set, uint256 index) internal view returns (bytes32) {\\n        return _at(set._inner, index);\\n    }\\n\\n    // AddressSet\\n\\n    struct AddressSet {\\n        Set _inner;\\n    }\\n\\n    /**\\n     * @dev Add a value to a set. O(1).\\n     *\\n     * Returns true if the value was added to the set, that is if it was not\\n     * already present.\\n     */\\n    function add(AddressSet storage set, address value) internal returns (bool) {\\n        return _add(set._inner, bytes32(uint256(uint160(value))));\\n    }\\n\\n    /**\\n     * @dev Removes a value from a set. O(1).\\n     *\\n     * Returns true if the value was removed from the set, that is if it was\\n     * present.\\n     */\\n    function remove(AddressSet storage set, address value) internal returns (bool) {\\n        return _remove(set._inner, bytes32(uint256(uint160(value))));\\n    }\\n\\n    /**\\n     * @dev Returns true if the value is in the set. O(1).\\n     */\\n    function contains(AddressSet storage set, address value) internal view returns (bool) {\\n        return _contains(set._inner, bytes32(uint256(uint160(value))));\\n    }\\n\\n    /**\\n     * @dev Returns the number of values in the set. O(1).\\n     */\\n    function length(AddressSet storage set) internal view returns (uint256) {\\n        return _length(set._inner);\\n    }\\n\\n   /**\\n    * @dev Returns the value stored at position `index` in the set. O(1).\\n    *\\n    * Note that there are no guarantees on the ordering of values inside the\\n    * array, and it may change when more values are added or removed.\\n    *\\n    * Requirements:\\n    *\\n    * - `index` must be strictly less than {length}.\\n    */\\n    function at(AddressSet storage set, uint256 index) internal view returns (address) {\\n        return address(uint160(uint256(_at(set._inner, index))));\\n    }\\n\\n\\n    // UintSet\\n\\n    struct UintSet {\\n        Set _inner;\\n    }\\n\\n    /**\\n     * @dev Add a value to a set. O(1).\\n     *\\n     * Returns true if the value was added to the set, that is if it was not\\n     * already present.\\n     */\\n    function add(UintSet storage set, uint256 value) internal returns (bool) {\\n        return _add(set._inner, bytes32(value));\\n    }\\n\\n    /**\\n     * @dev Removes a value from a set. O(1).\\n     *\\n     * Returns true if the value was removed from the set, that is if it was\\n     * present.\\n     */\\n    function remove(UintSet storage set, uint256 value) internal returns (bool) {\\n        return _remove(set._inner, bytes32(value));\\n    }\\n\\n    /**\\n     * @dev Returns true if the value is in the set. O(1).\\n     */\\n    function contains(UintSet storage set, uint256 value) internal view returns (bool) {\\n        return _contains(set._inner, bytes32(value));\\n    }\\n\\n    /**\\n     * @dev Returns the number of values on the set. O(1).\\n     */\\n    function length(UintSet storage set) internal view returns (uint256) {\\n        return _length(set._inner);\\n    }\\n\\n   /**\\n    * @dev Returns the value stored at position `index` in the set. O(1).\\n    *\\n    * Note that there are no guarantees on the ordering of values inside the\\n    * array, and it may change when more values are added or removed.\\n    *\\n    * Requirements:\\n    *\\n    * - `index` must be strictly less than {length}.\\n    */\\n    function at(UintSet storage set, uint256 index) internal view returns (uint256) {\\n        return uint256(_at(set._inner, index));\\n    }\\n}\\n\",\"keccak256\":\"0x4878ef6c288f4cef3c2a288d32cc548c648831cc55503ad3d9a581ed3b93aad9\",\"license\":\"MIT\"},\"contracts/contexts2/access-control/reentry/ReentryMods.sol\":{\"content\":\"// SPDX-License-Identifier: MIT\\npragma solidity ^0.8.0;\\n\\nimport { AccessControlStorageLib, AccessControlStorage } from \\\"../storage.sol\\\";\\n\\nabstract contract ReentryMods {\\n    modifier nonReentry(bytes32 id) {\\n        AccessControlStorage storage s = AccessControlStorageLib.store();\\n        require(!s.entered[id], \\\"AccessControl: reentered\\\");\\n        s.entered[id] = true;\\n        _;\\n        s.entered[id] = false;\\n    }\\n}\\n\",\"keccak256\":\"0x033c1164af25ef7d35a38a60973bf379b1cc603596914ffd85dcbcf0acdb6970\",\"license\":\"MIT\"},\"contracts/contexts2/access-control/roles/RolesFacet.sol\":{\"content\":\"// SPDX-License-Identifier: MIT\\npragma solidity ^0.8.0;\\n\\nimport { RolesMods } from \\\"./RolesMods.sol\\\";\\nimport { RolesLib } from \\\"./RolesLib.sol\\\";\\nimport { ADMIN } from \\\"../../../shared/roles.sol\\\";\\n\\ncontract RolesFacet is RolesMods {\\n    /**\\n     * @notice Checks if an account has a specific role.\\n     * @param role Encoding of the role to check.\\n     * @param account Address to check the {role} for.\\n     */\\n    function hasRole(bytes32 role, address account)\\n        external\\n        view\\n        returns (bool)\\n    {\\n        return RolesLib.hasRole(role, account);\\n    }\\n\\n    /**\\n     * @notice Grants an account a new role.\\n     * @param role Encoding of the role to give.\\n     * @param account Address to give the {role} to.\\n     *\\n     * Requirements:\\n     *  - Sender must be role admin.\\n     */\\n    function grantRole(bytes32 role, address account)\\n        external\\n        authorized(ADMIN, msg.sender)\\n    {\\n        RolesLib.grantRole(role, account);\\n    }\\n\\n    /**\\n     * @notice Removes a role from an account.\\n     * @param role Encoding of the role to remove.\\n     * @param account Address to remove the {role} from.\\n     *\\n     * Requirements:\\n     *  - Sender must be role admin.\\n     */\\n    function revokeRole(bytes32 role, address account)\\n        external\\n        authorized(ADMIN, msg.sender)\\n    {\\n        RolesLib.revokeRole(role, account);\\n    }\\n\\n    /**\\n     * @notice Removes a role from the sender.\\n     * @param role Encoding of the role to remove.\\n     */\\n    function renounceRole(bytes32 role) external {\\n        RolesLib.revokeRole(role, msg.sender);\\n    }\\n}\\n\",\"keccak256\":\"0x3d02fb1286754a6da3419c81632d23e9444b1fe8cd64283e15fcb07a9b201815\",\"license\":\"MIT\"},\"contracts/contexts2/access-control/roles/RolesLib.sol\":{\"content\":\"// SPDX-License-Identifier: MIT\\npragma solidity ^0.8.0;\\n\\nimport { AccessControlStorageLib, AccessControlStorage } from \\\"../storage.sol\\\";\\n\\nlibrary RolesLib {\\n    function s() private pure returns (AccessControlStorage storage) {\\n        return AccessControlStorageLib.store();\\n    }\\n\\n    /**\\n     * @dev Emitted when `account` is granted `role`.\\n     */\\n    event RoleGranted(\\n        bytes32 indexed role,\\n        address indexed account,\\n        address indexed sender\\n    );\\n\\n    /**\\n     * @dev Emitted when `account` is revoked `role`.\\n     */\\n    event RoleRevoked(\\n        bytes32 indexed role,\\n        address indexed account,\\n        address indexed sender\\n    );\\n\\n    /**\\n     * @notice Checks if an account has a specific role.\\n     */\\n    function hasRole(bytes32 role, address account)\\n        internal\\n        view\\n        returns (bool)\\n    {\\n        return s().roles[role][account];\\n    }\\n\\n    /**\\n     * @dev Gives an account a new role.\\n     * @dev Should only use when circumventing admin checking.\\n     * @dev If account already has the role, no event is emitted.\\n     * @param role Encoding of the role to give.\\n     * @param account Address to give the {role} to.\\n     */\\n    function grantRole(bytes32 role, address account) internal {\\n        if (hasRole(role, account)) return;\\n        s().roles[role][account] = true;\\n        emit RoleGranted(role, account, msg.sender);\\n    }\\n\\n    /**\\n     * @dev Removes a role from an account.\\n     * @dev Should only use when circumventing admin checking.\\n     * @dev If account does not already have the role, no event is emitted.\\n     * @param role Encoding of the role to remove.\\n     * @param account Address to remove the {role} from.\\n     */\\n    function revokeRole(bytes32 role, address account) internal {\\n        if (!hasRole(role, account)) return;\\n        s().roles[role][account] = false;\\n        emit RoleRevoked(role, account, msg.sender);\\n    }\\n}\\n\",\"keccak256\":\"0x36d0f5db441d2c3db7ee04d84c88ce9b14251cff4387702e96965c51acd1bc84\",\"license\":\"MIT\"},\"contracts/contexts2/access-control/roles/RolesMods.sol\":{\"content\":\"// SPDX-License-Identifier: MIT\\npragma solidity ^0.8.0;\\n\\nimport { RolesLib } from \\\"./RolesLib.sol\\\";\\n\\nabstract contract RolesMods {\\n    /**\\n     * @notice Requires that the {account} has {role}\\n     * @param role Encoding of the role to check.\\n     * @param account Address to check the {role} for.\\n     */\\n    modifier authorized(bytes32 role, address account) {\\n        require(\\n            RolesLib.hasRole(role, account),\\n            \\\"AccessControl: not authorized\\\"\\n        );\\n        _;\\n    }\\n}\\n\",\"keccak256\":\"0x25eeaba823d4fc9c52d82a77cfdb409550ad985fc49b30a5560c1f313c1ca905\",\"license\":\"MIT\"},\"contracts/contexts2/access-control/storage.sol\":{\"content\":\"// SPDX-License-Identifier: MIT\\npragma solidity ^0.8.0;\\n\\nstruct AccessControlStorage {\\n    mapping(bytes32 => mapping(address => bool)) roles;\\n    mapping(address => address) owners;\\n    mapping(bytes32 => bool) entered;\\n}\\n\\nbytes32 constant ACCESS_CONTROL_POS = keccak256(\\n    \\\"teller.access_control.storage\\\"\\n);\\n\\nlibrary AccessControlStorageLib {\\n    function store() internal pure returns (AccessControlStorage storage s) {\\n        bytes32 pos = ACCESS_CONTROL_POS;\\n        assembly {\\n            s.slot := pos\\n        }\\n    }\\n}\\n\",\"keccak256\":\"0xf667fb8d6beb59fc6f37d60ada6b811b5861512fedc661c483b9eca042e96112\",\"license\":\"MIT\"},\"contracts/escrow/dapps/interfaces/DataTypes.sol\":{\"content\":\"// SPDX-License-Identifier: agpl-3.0\\npragma solidity ^0.8.0;\\n\\nlibrary DataTypes {\\n    // refer to the aave whitepaper, section 1.1 basic concepts for a formal description of these properties.\\n    struct ReserveData {\\n        //stores the reserve configuration\\n        ReserveConfigurationMap configuration;\\n        //the liquidity index. Expressed in ray\\n        uint128 liquidityIndex;\\n        //variable borrow index. Expressed in ray\\n        uint128 variableBorrowIndex;\\n        //the current supply rate. Expressed in ray\\n        uint128 currentLiquidityRate;\\n        //the current variable borrow rate. Expressed in ray\\n        uint128 currentVariableBorrowRate;\\n        //the current stable borrow rate. Expressed in ray\\n        uint128 currentStableBorrowRate;\\n        uint40 lastUpdateTimestamp;\\n        //tokens addresses\\n        address aTokenAddress;\\n        address stableDebtTokenAddress;\\n        address variableDebtTokenAddress;\\n        //address of the interest rate strategy\\n        address interestRateStrategyAddress;\\n        //the id of the reserve. Represents the position in the list of the active reserves\\n        uint8 id;\\n    }\\n\\n    struct ReserveConfigurationMap {\\n        //bit 0-15: LTV\\n        //bit 16-31: Liq. threshold\\n        //bit 32-47: Liq. bonus\\n        //bit 48-55: Decimals\\n        //bit 56: Reserve is active\\n        //bit 57: reserve is frozen\\n        //bit 58: borrowing is enabled\\n        //bit 59: stable rate borrowing enabled\\n        //bit 60-63: reserved\\n        //bit 64-79: reserve factor\\n        uint256 data;\\n    }\\n\\n    struct UserConfigurationMap {\\n        uint256 data;\\n    }\\n\\n    enum InterestRateMode { NONE, STABLE, VARIABLE }\\n}\\n\",\"keccak256\":\"0xf4301e0bd269f4662f1c1a0ed4f217cd78d670e43d51a025d55878b972d0a8e7\",\"license\":\"agpl-3.0\"},\"contracts/escrow/dapps/interfaces/IAToken.sol\":{\"content\":\"// SPDX-License-Identifier: agpl-3.0\\npragma solidity ^0.8.0;\\n\\ninterface IAToken {\\n    /**\\n     * @dev Mints `amount` aTokens to `user`\\n     * @param user The address receiving the minted tokens\\n     * @param amount The amount of tokens getting minted\\n     * @param index The new liquidity index of the reserve\\n     * @return `true` if the the previous balance of the user was 0\\n     */\\n    function mint(\\n        address user,\\n        uint256 amount,\\n        uint256 index\\n    ) external returns (bool);\\n\\n    /**\\n     * @dev Burns aTokens from `user` and sends the equivalent amount of underlying to `receiverOfUnderlying`\\n     * @param user The owner of the aTokens, getting them burned\\n     * @param receiverOfUnderlying The address that will receive the underlying\\n     * @param amount The amount being burned\\n     * @param index The new liquidity index of the reserve\\n     **/\\n    function burn(\\n        address user,\\n        address receiverOfUnderlying,\\n        uint256 amount,\\n        uint256 index\\n    ) external;\\n\\n    /**\\n     * @dev Transfers the underlying asset to `target`. Used by the LendingPool to transfer\\n     * assets in borrow(), withdraw() and flashLoan()\\n     * @param user The recipient of the aTokens\\n     * @param amount The amount getting transferred\\n     * @return The amount transferred\\n     **/\\n    function transferUnderlyingTo(address user, uint256 amount)\\n        external\\n        returns (uint256);\\n\\n    /**\\n     * @dev Returns the amount of tokens owned by `account`.\\n     */\\n    function balanceOf(address account) external view returns (uint256);\\n\\n    /**\\n     * @dev Returns the remaining number of tokens that `spender` will be\\n     * allowed to spend on behalf of `owner` through {transferFrom}. This is\\n     * zero by default.\\n     *\\n     * This value changes when {approve} or {transferFrom} are called.\\n     */\\n    function allowance(address owner, address spender)\\n        external\\n        view\\n        returns (uint256);\\n\\n    /**\\n     * @dev Sets `amount` as the allowance of `spender` over the caller's tokens.\\n     *\\n     * Returns a boolean value indicating whether the operation succeeded.\\n     *\\n     * IMPORTANT: Beware that changing an allowance with this method brings the risk\\n     * that someone may use both the old and the new allowance by unfortunate\\n     * transaction ordering. One possible solution to mitigate this race\\n     * condition is to first reduce the spender's allowance to 0 and set the\\n     * desired value afterwards:\\n     * https://github.com/ethereum/EIPs/issues/20#issuecomment-263524729\\n     *\\n     * Emits an {Approval} event.\\n     */\\n    function approve(address spender, uint256 amount) external returns (bool);\\n\\n    /**\\n     * @dev Returns the scaled balance of the user. The scaled balance is the sum of all the\\n     * updated stored balance divided by the reserve's liquidity index at the moment of the update\\n     * @param user The user whose balance is calculated\\n     * @return The scaled balance of the user\\n     **/\\n    function scaledBalanceOf(address user) external view returns (uint256);\\n\\n    /**\\n     * @dev Returns the scaled balance of the user and the scaled total supply.\\n     * @param user The address of the user\\n     * @return The scaled balance of the user\\n     * @return The scaled balance and the scaled total supply\\n     **/\\n    function getScaledUserBalanceAndSupply(address user)\\n        external\\n        view\\n        returns (uint256, uint256);\\n\\n    /**\\n     * @dev Returns the scaled total supply of the variable debt token. Represents sum(debt/index)\\n     * @return The scaled total supply\\n     **/\\n    function scaledTotalSupply() external view returns (uint256);\\n}\\n\",\"keccak256\":\"0xf715e63b83c55fcd3476280a0ab871ed763754b3f5404ec779903652a3e7838e\",\"license\":\"agpl-3.0\"},\"contracts/escrow/dapps/interfaces/IAaveLendingPool.sol\":{\"content\":\"// SPDX-License-Identifier: agpl-3.0\\npragma solidity ^0.8.0;\\n\\nimport \\\"./IAaveLendingPoolAddressesProvider.sol\\\";\\nimport \\\"./DataTypes.sol\\\";\\n\\ninterface IAaveLendingPool {\\n    /**\\n     * @dev Deposits an `amount` of underlying asset into the reserve, receiving in return overlying aTokens.\\n     * - E.g. User deposits 100 USDC and gets in return 100 aUSDC\\n     * @param asset The address of the underlying asset to deposit\\n     * @param amount The amount to be deposited\\n     * @param onBehalfOf The address that will receive the aTokens, same as msg.sender if the user\\n     *   wants to receive them on his own wallet, or a different address if the beneficiary of aTokens\\n     *   is a different wallet\\n     * @param referralCode Code used to register the integrator originating the operation, for potential rewards.\\n     *   0 if the action is executed directly by the user, without any middle-man\\n     **/\\n    function deposit(\\n        address asset,\\n        uint256 amount,\\n        address onBehalfOf,\\n        uint16 referralCode\\n    ) external;\\n\\n    /**\\n     * @dev Withdraws an `amount` of underlying asset from the reserve, burning the equivalent aTokens owned\\n     * E.g. User has 100 aUSDC, calls withdraw() and receives 100 USDC, burning the 100 aUSDC\\n     * @param asset The address of the underlying asset to withdraw\\n     * @param amount The underlying amount to be withdrawn\\n     *   - Send the value type(uint256).max in order to withdraw the whole aToken balance\\n     * @param to Address that will receive the underlying, same as msg.sender if the user\\n     *   wants to receive it on his own wallet, or a different address if the beneficiary is a\\n     *   different wallet\\n     * @return The final amount withdrawn\\n     **/\\n    function withdraw(\\n        address asset,\\n        uint256 amount,\\n        address to\\n    ) external returns (uint256);\\n\\n    /**\\n     * @dev Allows users to borrow a specific `amount` of the reserve underlying asset, provided that the borrower\\n     * already deposited enough collateral, or he was given enough allowance by a credit delegator on the\\n     * corresponding debt token (StableDebtToken or VariableDebtToken)\\n     * - E.g. User borrows 100 USDC passing as `onBehalfOf` his own address, receiving the 100 USDC in his wallet\\n     *   and 100 stable/variable debt tokens, depending on the `interestRateMode`\\n     * @param asset The address of the underlying asset to borrow\\n     * @param amount The amount to be borrowed\\n     * @param interestRateMode The interest rate mode at which the user wants to borrow: 1 for Stable, 2 for Variable\\n     * @param referralCode Code used to register the integrator originating the operation, for potential rewards.\\n     *   0 if the action is executed directly by the user, without any middle-man\\n     * @param onBehalfOf Address of the user who will receive the debt. Should be the address of the borrower itself\\n     * calling the function if he wants to borrow against his own collateral, or the address of the credit delegator\\n     * if he has been given credit delegation allowance\\n     **/\\n    function borrow(\\n        address asset,\\n        uint256 amount,\\n        uint256 interestRateMode,\\n        uint16 referralCode,\\n        address onBehalfOf\\n    ) external;\\n\\n    /**\\n     * @notice Repays a borrowed `amount` on a specific reserve, burning the equivalent debt tokens owned\\n     * - E.g. User repays 100 USDC, burning 100 variable/stable debt tokens of the `onBehalfOf` address\\n     * @param asset The address of the borrowed underlying asset previously borrowed\\n     * @param amount The amount to repay\\n     * - Send the value type(uint256).max in order to repay the whole debt for `asset` on the specific `debtMode`\\n     * @param rateMode The interest rate mode at of the debt the user wants to repay: 1 for Stable, 2 for Variable\\n     * @param onBehalfOf Address of the user who will get his debt reduced/removed. Should be the address of the\\n     * user calling the function if he wants to reduce/remove his own debt, or the address of any other\\n     * other borrower whose debt should be removed\\n     * @return The final amount repaid\\n     **/\\n    function repay(\\n        address asset,\\n        uint256 amount,\\n        uint256 rateMode,\\n        address onBehalfOf\\n    ) external returns (uint256);\\n\\n    /**\\n     * @dev Allows a borrower to swap his debt between stable and variable mode, or viceversa\\n     * @param asset The address of the underlying asset borrowed\\n     * @param rateMode The rate mode that the user wants to swap to\\n     **/\\n    function swapBorrowRateMode(address asset, uint256 rateMode) external;\\n\\n    /**\\n     * @dev Rebalances the stable interest rate of a user to the current stable rate defined on the reserve.\\n     * - Users can be rebalanced if the following conditions are satisfied:\\n     *     1. Usage ratio is above 95%\\n     *     2. the current deposit APY is below REBALANCE_UP_THRESHOLD * maxVariableBorrowRate, which means that too much has been\\n     *        borrowed at a stable rate and depositors are not earning enough\\n     * @param asset The address of the underlying asset borrowed\\n     * @param user The address of the user to be rebalanced\\n     **/\\n    function rebalanceStableBorrowRate(address asset, address user) external;\\n\\n    /**\\n     * @dev Allows depositors to enable/disable a specific deposited asset as collateral\\n     * @param asset The address of the underlying asset deposited\\n     * @param useAsCollateral `true` if the user wants to use the deposit as collateral, `false` otherwise\\n     **/\\n    function setUserUseReserveAsCollateral(address asset, bool useAsCollateral)\\n        external;\\n\\n    /**\\n     * @dev Function to liquidate a non-healthy position collateral-wise, with Health Factor below 1\\n     * - The caller (liquidator) covers `debtToCover` amount of debt of the user getting liquidated, and receives\\n     *   a proportionally amount of the `collateralAsset` plus a bonus to cover market risk\\n     * @param collateralAsset The address of the underlying asset used as collateral, to receive as result of the liquidation\\n     * @param debtAsset The address of the underlying borrowed asset to be repaid with the liquidation\\n     * @param user The address of the borrower getting liquidated\\n     * @param debtToCover The debt amount of borrowed `asset` the liquidator wants to cover\\n     * @param receiveAToken `true` if the liquidators wants to receive the collateral aTokens, `false` if he wants\\n     * to receive the underlying collateral asset directly\\n     **/\\n    function liquidationCall(\\n        address collateralAsset,\\n        address debtAsset,\\n        address user,\\n        uint256 debtToCover,\\n        bool receiveAToken\\n    ) external;\\n\\n    /**\\n     * @dev Allows smartcontracts to access the liquidity of the pool within one transaction,\\n     * as long as the amount taken plus a fee is returned.\\n     * IMPORTANT There are security concerns for developers of flashloan receiver contracts that must be kept into consideration.\\n     * For further details please visit https://developers.aave.com\\n     * @param receiverAddress The address of the contract receiving the funds, implementing the IFlashLoanReceiver interface\\n     * @param assets The addresses of the assets being flash-borrowed\\n     * @param amounts The amounts amounts being flash-borrowed\\n     * @param modes Types of the debt to open if the flash loan is not returned:\\n     *   0 -> Don't open any debt, just revert if funds can't be transferred from the receiver\\n     *   1 -> Open debt at stable rate for the value of the amount flash-borrowed to the `onBehalfOf` address\\n     *   2 -> Open debt at variable rate for the value of the amount flash-borrowed to the `onBehalfOf` address\\n     * @param onBehalfOf The address  that will receive the debt in the case of using on `modes` 1 or 2\\n     * @param params Variadic packed params to pass to the receiver as extra information\\n     * @param referralCode Code used to register the integrator originating the operation, for potential rewards.\\n     *   0 if the action is executed directly by the user, without any middle-man\\n     **/\\n    function flashLoan(\\n        address receiverAddress,\\n        address[] calldata assets,\\n        uint256[] calldata amounts,\\n        uint256[] calldata modes,\\n        address onBehalfOf,\\n        bytes calldata params,\\n        uint16 referralCode\\n    ) external;\\n\\n    /**\\n     * @dev Returns the user account data across all the reserves\\n     * @param user The address of the user\\n     * @return totalCollateralETH the total collateral in ETH of the user\\n     * @return totalDebtETH the total debt in ETH of the user\\n     * @return availableBorrowsETH the borrowing power left of the user\\n     * @return currentLiquidationThreshold the liquidation threshold of the user\\n     * @return ltv the loan to value of the user\\n     * @return healthFactor the current health factor of the user\\n     **/\\n    function getUserAccountData(address user)\\n        external\\n        view\\n        returns (\\n            uint256 totalCollateralETH,\\n            uint256 totalDebtETH,\\n            uint256 availableBorrowsETH,\\n            uint256 currentLiquidationThreshold,\\n            uint256 ltv,\\n            uint256 healthFactor\\n        );\\n\\n    /**\\n     * @dev Returns the configuration of the reserve\\n     * @param asset The address of the underlying asset of the reserve\\n     * @return The configuration of the reserve\\n     **/\\n    function getConfiguration(address asset)\\n        external\\n        view\\n        returns (DataTypes.ReserveConfigurationMap memory);\\n\\n    /**\\n     * @dev Returns the configuration of the user across all the reserves\\n     * @param user The user address\\n     * @return The configuration of the user\\n     **/\\n    function getUserConfiguration(address user)\\n        external\\n        view\\n        returns (DataTypes.UserConfigurationMap memory);\\n\\n    /**\\n     * @dev Returns the normalized income normalized income of the reserve\\n     * @param asset The address of the underlying asset of the reserve\\n     * @return The reserve's normalized income\\n     */\\n    function getReserveNormalizedIncome(address asset)\\n        external\\n        view\\n        returns (uint256);\\n\\n    /**\\n     * @dev Returns the normalized variable debt per unit of asset\\n     * @param asset The address of the underlying asset of the reserve\\n     * @return The reserve normalized variable debt\\n     */\\n    function getReserveNormalizedVariableDebt(address asset)\\n        external\\n        view\\n        returns (uint256);\\n\\n    /**\\n     * @dev Returns the state and configuration of the reserve\\n     * @param asset The address of the underlying asset of the reserve\\n     * @return The state of the reserve\\n     **/\\n    function getReserveData(address asset)\\n        external\\n        view\\n        returns (DataTypes.ReserveData memory);\\n\\n    function finalizeTransfer(\\n        address asset,\\n        address from,\\n        address to,\\n        uint256 amount,\\n        uint256 balanceFromAfter,\\n        uint256 balanceToBefore\\n    ) external;\\n\\n    function getReservesList() external view returns (address[] memory);\\n\\n    function getAddressesProvider()\\n        external\\n        view\\n        returns (IAaveLendingPoolAddressesProvider);\\n\\n    function paused() external view returns (bool);\\n}\\n\",\"keccak256\":\"0x8fb5cf82d1c19d0c61151dfb8cf6f6c2a17a15b63600b75f359fe4e9e3acc23f\",\"license\":\"agpl-3.0\"},\"contracts/escrow/dapps/interfaces/IAaveLendingPoolAddressesProvider.sol\":{\"content\":\"// SPDX-License-Identifier: agpl-3.0\\npragma solidity ^0.8.0;\\n\\n/**\\n * @title LendingPoolAddressesProvider contract\\n * @dev Main registry of addresses part of or connected to the protocol, including permissioned roles\\n * - Acting also as factory of proxies and admin of those, so with right to change its implementations\\n * - Owned by the Aave Governance\\n * @author Aave\\n **/\\ninterface IAaveLendingPoolAddressesProvider {\\n    function getMarketId() external view returns (string memory);\\n\\n    function getAddress(bytes32 id) external view returns (address);\\n\\n    function getLendingPool() external view returns (address);\\n\\n    function getPriceOracle() external view returns (address);\\n\\n    function getLendingRateOracle() external view returns (address);\\n}\\n\",\"keccak256\":\"0x9d21dbefac677da74786c27ad0fe1b148c00df63f7a2616d75c2b97c756007b3\",\"license\":\"agpl-3.0\"},\"contracts/escrow/dapps/interfaces/IVault.sol\":{\"content\":\"// SPDX-License-Identifier: MIT\\npragma solidity ^0.8.0;\\n\\n/**\\n    @notice This interface defines the different functions available for a Yearn Vault\\n    @author develop@teller.finance\\n */\\n\\ninterface IVault {\\n    /**\\n        @notice Returns the unwrapped native token address that the Vault takes as deposit\\n        @return The address of the unwrapped token\\n     */\\n    function token() external view returns (address);\\n\\n    /**\\n        @notice Returns the vault's wrapped token name as a string, example 'yearn Dai Stablecoin'\\n        @return The name of the wrapped token\\n     */\\n    function name() external view returns (string memory);\\n\\n    /**\\n        @notice Returns the vault's wrapped token symbol as a string, example 'yDai'\\n        @return The symbol of the wrapped token\\n     */\\n    function symbol() external view returns (string memory);\\n\\n    /**\\n        @notice Returns the amount of decimals for this vault's wrapped token as a uin8\\n        @return The number of decimals for the token\\n     */\\n    function decimals() external view returns (uint8);\\n\\n    /**\\n     * @dev Returns the amount of tokens owned by `account`.\\n     */\\n    function balanceOf(address account) external view returns (uint256);\\n\\n    /**\\n        @notice Returns the address of the Vault's controller\\n        @return The address of the controller contract\\n     */\\n    function controller() external view returns (address);\\n\\n    /**\\n        @notice Returns the address of the Vault's governance contract\\n        @return The contract address\\n     */\\n    function governance() external view returns (address);\\n\\n    /**\\n        @notice Returns the price of the Vault's wrapped token, denominated in the unwrapped native token\\n        @notice Calculation is: nativeTokenBalance/yTokenTotalSupply,\\n            - nativeTokenBalance is the current balance of the native token (example DAI) in the Vault\\n            - yTokenTotalSupply is the total supply of the Vault's wrapped token (example yDAI)\\n        @return The token price\\n     */\\n    function getPricePerFullShare() external view returns (uint256); // v1 vaults\\n\\n    /**\\n        @notice Returns the price of the Vault's wrapped token, denominated in the unwrapped native token\\n        @notice Calculation is: nativeTokenBalance/yTokenTotalSupply,\\n            - nativeTokenBalance is the current balance of the native token (example DAI) in the Vault\\n            - yTokenTotalSupply is the total supply of the Vault's wrapped token (example yDAI)\\n        @return The token price\\n     */\\n    function getPricePerShare() external view returns (uint256); // v2 vaults\\n\\n    /**\\n        @notice Deposits the specified amount of the native unwrapped token (same as token() returns) into the Vault\\n        @param amountToDeposit The amount of tokens to deposit\\n     */\\n    function deposit(uint256 amountToDeposit) external;\\n\\n    /**\\n        @notice Deposits the maximum available amount of the native wrapped token (same as token()) into the Vault\\n     */\\n    function depositAll() external;\\n\\n    /**\\n        @notice Withdraws the specified amount of the native unwrapped token (same as token() returns) from the Vault\\n        @param amountToWithdraw The amount to withdraw\\n     */\\n    function withdraw(uint256 amountToWithdraw) external;\\n\\n    /**\\n        @notice Withdraws the maximum available amount of native unwrapped token (same as token()) from the Vault\\n     */\\n    function withdrawAll() external;\\n}\\n\",\"keccak256\":\"0x0e2e145747f8745bde77d4741abba1a1edb1dab02e9d467eff60cb881bcffd79\",\"license\":\"MIT\"},\"contracts/escrow/dapps/libraries/LibDapps.sol\":{\"content\":\"// SPDX-License-Identifier: MIT\\npragma solidity ^0.8.0;\\n\\n// Interfaces\\nimport { IERC20 } from \\\"@openzeppelin/contracts/token/ERC20/IERC20.sol\\\";\\nimport { IAToken } from \\\"../interfaces/IAToken.sol\\\";\\nimport { IAaveLendingPool } from \\\"../interfaces/IAaveLendingPool.sol\\\";\\nimport {\\n    IAaveLendingPoolAddressesProvider\\n} from \\\"../interfaces/IAaveLendingPoolAddressesProvider.sol\\\";\\nimport {\\n    IUniswapV2Router\\n} from \\\"../../../shared/interfaces/IUniswapV2Router.sol\\\";\\nimport { IVault } from \\\"../interfaces/IVault.sol\\\";\\n\\n// Libraries\\nimport {\\n    EnumerableSet\\n} from \\\"@openzeppelin/contracts/utils/structs/EnumerableSet.sol\\\";\\n\\n// Storage\\nimport { MarketStorageLib, MarketStorage } from \\\"../../../storage/market.sol\\\";\\nimport { AppStorageLib } from \\\"../../../storage/app.sol\\\";\\n\\nlibrary LibDapps {\\n    function s() internal pure returns (MarketStorage storage) {\\n        return MarketStorageLib.store();\\n    }\\n\\n    /**\\n        @notice Grabs the Aave lending pool instance from the Aave lending pool address provider\\n        @return IAaveLendingPool instance address\\n     */\\n    function getAaveLendingPool() internal view returns (IAaveLendingPool) {\\n        return\\n            IAaveLendingPool(\\n                IAaveLendingPoolAddressesProvider(\\n                    0xB53C1a33016B2DC2fF3653530bfF1848a515c8c5\\n                )\\n                    .getLendingPool()\\n            ); // LP address provider contract is immutable and the address will never change\\n    }\\n\\n    /**\\n        @notice Grabs the aToken instance from the lending pool\\n        @param tokenAddress The underlying asset address to get the aToken for\\n        @return IAToken instance\\n     */\\n    function getAToken(address tokenAddress) internal view returns (IAToken) {\\n        return\\n            IAToken(\\n                getAaveLendingPool().getReserveData(tokenAddress).aTokenAddress\\n            );\\n    }\\n\\n    /**\\n        @notice Grabs the yVault address for a token from the asset settings\\n        @param tokenAddress The underlying token address for the associated yVault\\n        @return yVault instance\\n     */\\n    function getYVault(address tokenAddress) internal view returns (IVault) {\\n        return\\n            IVault(\\n                AppStorageLib.store().assetSettings[tokenAddress].addresses[\\n                    keccak256(\\\"yVaultAddress\\\")\\n                ]\\n            );\\n    }\\n}\\n\",\"keccak256\":\"0x8030b206c87d0073fb7dbebfa2ee8a3e93c479d976d6cdaa0c939f2fedaa1525\",\"license\":\"MIT\"},\"contracts/escrow/escrow/ILoansEscrow.sol\":{\"content\":\"// SPDX-License-Identifier: MIT\\npragma solidity ^0.8.0;\\n\\ninterface ILoansEscrow {\\n    function init() external;\\n\\n    function callDapp(address dappAddress, bytes calldata dappData)\\n        external\\n        returns (bytes memory);\\n\\n    function setTokenAllowance(address token, address spender) external;\\n\\n    function claimToken(\\n        address token,\\n        address to,\\n        uint256 amount\\n    ) external;\\n}\\n\",\"keccak256\":\"0xdaa338698014e6c00edf7a2aca49026a047e253cbe7fc392a73f5f63a063a7f9\",\"license\":\"MIT\"},\"contracts/escrow/libraries/LibEscrow.sol\":{\"content\":\"// SPDX-License-Identifier: MIT\\npragma solidity ^0.8.0;\\n\\n// Libraries\\nimport { LibDapps } from \\\"../dapps/libraries/LibDapps.sol\\\";\\nimport { LibLoans } from \\\"../../market/libraries/LibLoans.sol\\\";\\nimport { PriceAggLib } from \\\"../../price-aggregator/PriceAggLib.sol\\\";\\nimport {\\n    EnumerableSet\\n} from \\\"@openzeppelin/contracts/utils/structs/EnumerableSet.sol\\\";\\n\\n// Interfaces\\nimport { IERC20 } from \\\"@openzeppelin/contracts/token/ERC20/IERC20.sol\\\";\\nimport { ILoansEscrow } from \\\"../escrow/ILoansEscrow.sol\\\";\\n\\n// Storage\\nimport { MarketStorageLib, MarketStorage } from \\\"../../storage/market.sol\\\";\\n\\nlibrary LibEscrow {\\n    function s() internal pure returns (MarketStorage storage) {\\n        return MarketStorageLib.store();\\n    }\\n\\n    function e(uint256 loanID) internal view returns (ILoansEscrow e_) {\\n        e_ = s().loanEscrows[loanID];\\n    }\\n\\n    function getEscrowTokens(uint256 loanID)\\n        internal\\n        view\\n        returns (EnumerableSet.AddressSet storage t_)\\n    {\\n        t_ = s().escrowTokens[loanID];\\n    }\\n\\n    function balanceOf(uint256 loanID, address token)\\n        internal\\n        view\\n        returns (uint256)\\n    {\\n        return IERC20(token).balanceOf(address(e(loanID)));\\n    }\\n\\n    /**\\n     * @notice Adds or removes tokens held by the Escrow contract\\n     * @param loanID The loan ID to update the token list for\\n     * @param tokenAddress The token address to be added or removed\\n     */\\n    function tokenUpdated(uint256 loanID, address tokenAddress) internal {\\n        // Skip if is lending token\\n        if (LibLoans.loan(loanID).lendingToken == tokenAddress) return;\\n\\n        EnumerableSet.AddressSet storage tokens = s().escrowTokens[loanID];\\n        bool contains = EnumerableSet.contains(tokens, tokenAddress);\\n        if (balanceOf(loanID, tokenAddress) > 0) {\\n            if (!contains) {\\n                EnumerableSet.add(tokens, tokenAddress);\\n            }\\n        } else if (contains) {\\n            EnumerableSet.remove(tokens, tokenAddress);\\n        }\\n    }\\n\\n    /**\\n     * @notice Calculate the value of the loan by getting the value of all tokens the Escrow owns.\\n     * @param loanID The loan ID to calculate value for\\n     * @return value_ Escrow total value denoted in the lending token.\\n     */\\n    function calculateTotalValue(uint256 loanID)\\n        internal\\n        view\\n        returns (uint256 value_)\\n    {\\n        address lendingToken = LibLoans.loan(loanID).lendingToken;\\n        value_ += balanceOf(loanID, lendingToken);\\n\\n        EnumerableSet.AddressSet storage tokens = getEscrowTokens(loanID);\\n        if (EnumerableSet.length(tokens) > 0) {\\n            for (uint256 i = 0; i < EnumerableSet.length(tokens); i++) {\\n                uint256 tokenBal =\\n                    balanceOf(loanID, EnumerableSet.at(tokens, i));\\n                value_ += PriceAggLib.valueFor(\\n                    EnumerableSet.at(tokens, i),\\n                    lendingToken,\\n                    tokenBal\\n                );\\n            }\\n        }\\n    }\\n}\\n\",\"keccak256\":\"0xcca97599fff1c1bd608e7f11c4674f325e43781794e91bf5322ac9e0ffd7b3df\",\"license\":\"MIT\"},\"contracts/lending/ttoken/ITToken.sol\":{\"content\":\"// SPDX-License-Identifier: MIT\\npragma solidity ^0.8.0;\\n\\n// Contracts\\nimport {\\n    ERC20Upgradeable\\n} from \\\"@openzeppelin/contracts-upgradeable/token/ERC20/ERC20Upgradeable.sol\\\";\\nimport { ERC20 } from \\\"@openzeppelin/contracts/token/ERC20/ERC20.sol\\\";\\nimport {\\n    RolesFacet\\n} from \\\"../../contexts2/access-control/roles/RolesFacet.sol\\\";\\n\\n/**\\n * @notice This contract acts as an interface for the Teller token (TToken).\\n *\\n * @author develop@teller.finance\\n */\\nabstract contract ITToken is ERC20Upgradeable, RolesFacet {\\n    /**\\n     * @notice This event is emitted when an user deposits tokens into the pool.\\n     */\\n    event Mint(\\n        address indexed sender,\\n        uint256 tTokenAmount,\\n        uint256 underlyingAmount\\n    );\\n\\n    /**\\n     * @notice This event is emitted when an user withdraws tokens from the pool.\\n     */\\n    event Redeem(\\n        address indexed sender,\\n        uint256 tTokenAmount,\\n        uint256 underlyingAmount\\n    );\\n\\n    /**\\n     * @notice The token that is the underlying assets for this Teller token.\\n     */\\n    function underlying() external view virtual returns (ERC20);\\n\\n    /**\\n     * @notice The balance of an {account} denoted in underlying value.\\n     * @param account Address to calculate the underlying balance.\\n     */\\n    function balanceOfUnderlying(address account)\\n        external\\n        virtual\\n        returns (uint256 balance_);\\n\\n    /**\\n     * @notice It calculates the current exchange rate for a whole Teller Token based of the underlying token balance.\\n     * @return rate_ The current exchange rate.\\n     */\\n    function exchangeRate() external virtual returns (uint256 rate_);\\n\\n    /**\\n     * @notice Redeem supplied Teller token underlying value.\\n     * @return totalSupply_ The total value of the underlying token managed by the LP.\\n     */\\n    function totalUnderlyingSupply()\\n        external\\n        virtual\\n        returns (uint256 totalSupply_);\\n\\n    /**\\n     * @notice It calculates the market state values across a given markets.\\n     * @notice Returns values that represent the global state across the market.\\n     * @return totalSupplied Total amount of the underlying asset supplied.\\n     * @return totalBorrowed Total amount borrowed through loans.\\n     * @return totalRepaid The total amount repaid till the current timestamp.\\n     * @return totalInterestRepaid The total amount interest repaid till the current timestamp.\\n     * @return totalOnLoan Total amount currently deployed in loans.\\n     */\\n    function getMarketState()\\n        external\\n        virtual\\n        returns (\\n            uint256 totalSupplied,\\n            uint256 totalBorrowed,\\n            uint256 totalRepaid,\\n            uint256 totalInterestRepaid,\\n            uint256 totalOnLoan\\n        );\\n\\n    /**\\n     * @notice Calculates the current Total Value Locked, denoted in the underlying asset, in the Teller Token pool.\\n     * @return tvl_ The value locked in the pool.\\n     *\\n     * Note: This value includes the amount that is on loan (including ones that were sent to EOAs).\\n     */\\n    function currentTVL() external virtual returns (uint256 tvl_);\\n\\n    /**\\n     * @notice It validates whether supply to debt (StD) ratio is valid including the loan amount.\\n     * @param newLoanAmount the new loan amount to consider o the StD ratio.\\n     * @return ratio_ Whether debt ratio for lending pool is valid.\\n     */\\n    function debtRatioFor(uint256 newLoanAmount)\\n        external\\n        virtual\\n        returns (uint16 ratio_);\\n\\n    /**\\n     * @notice Called by the Teller Diamond contract when a loan has been taken out and requires funds.\\n     * @param recipient The account to send the funds to.\\n     * @param amount Funds requested to fulfil the loan.\\n     */\\n    function fundLoan(address recipient, uint256 amount) external virtual;\\n\\n    /**\\n     * @notice Called by the Teller Diamond contract when a loan has been repaid.\\n     * @param amount Funds deposited back into the pool to repay the principal amount of a loan.\\n     * @param interestAmount Interest value paid into the pool from a loan.\\n     */\\n    function repayLoan(uint256 amount, uint256 interestAmount) external virtual;\\n\\n    /**\\n     * @notice Increase account supply of specified token amount.\\n     * @param amount The amount of underlying tokens to use to mint.\\n     */\\n    function mint(uint256 amount)\\n        external\\n        virtual\\n        returns (uint256 mintAmount_);\\n\\n    /**\\n     * @notice Redeem supplied Teller token underlying value.\\n     * @param amount The amount of Teller tokens to redeem.\\n     */\\n    function redeem(uint256 amount) external virtual;\\n\\n    /**\\n     * @notice Redeem supplied underlying value.\\n     * @param amount The amount of underlying tokens to redeem.\\n     */\\n    function redeemUnderlying(uint256 amount) external virtual;\\n\\n    /**\\n     * @notice Rebalances the funds controlled by Teller Token according to the current strategy.\\n     *\\n     * See {TTokenStrategy}.\\n     */\\n    function rebalance() external virtual;\\n\\n    /**\\n     * @notice Sets a new strategy to use for balancing funds.\\n     * @param strategy Address to the new strategy contract. Must implement the {ITTokenStrategy} interface.\\n     * @param initData Optional data to initialize the strategy.\\n     *\\n     * Requirements:\\n     *  - Sender must have ADMIN role\\n     */\\n    function setStrategy(address strategy, bytes calldata initData)\\n        external\\n        virtual;\\n\\n    /**\\n     * @notice Gets the strategy used for balancing funds.\\n     */\\n    function getStrategy() external view virtual returns (address);\\n\\n    /**\\n     * @notice Sets the restricted state of the platform.\\n     */\\n    function restrict(bool state) external virtual;\\n\\n    function initialize(address admin, address underlying) external virtual;\\n}\\n\",\"keccak256\":\"0xe6515c78e0277edbed82aa6926df727afd216379dd0bfbbb790222654c858499\",\"license\":\"MIT\"},\"contracts/market/LoanDataFacet.sol\":{\"content\":\"// SPDX-License-Identifier: MIT\\npragma solidity ^0.8.0;\\n\\n// Libraries\\nimport { LibLoans } from \\\"./libraries/LibLoans.sol\\\";\\nimport { LibEscrow } from \\\"../escrow/libraries/LibEscrow.sol\\\";\\n\\nimport {\\n    EnumerableSet\\n} from \\\"@openzeppelin/contracts/utils/structs/EnumerableSet.sol\\\";\\n\\n// Storage\\nimport { Loan, LoanDebt, LoanTerms } from \\\"../storage/market.sol\\\";\\n\\ncontract LoanDataFacet {\\n    /**\\n     * @notice Returns the information about the given {loanID}.\\n     * @param loanID The loan ID to get information for.\\n     * @return loan_ The loan data.\\n     */\\n    function getLoan(uint256 loanID) external view returns (Loan memory loan_) {\\n        loan_ = LibLoans.s().loans[loanID];\\n    }\\n\\n    /**\\n     * @notice Returns the terms for a specified loan.\\n     * @param loanID The loan ID to get the total amount owed.\\n     * @return LoanTerms The terms that the loan weer created with.\\n     */\\n    function getLoanTerms(uint256 loanID)\\n        external\\n        view\\n        returns (LoanTerms memory)\\n    {\\n        return LibLoans.terms(loanID);\\n    }\\n\\n    /**\\n     * @notice Returns the loan IDs created by the {borrower} account.\\n     * @param borrower The account to get loan IDs for.\\n     * @return loanIDs The IDs for loans created by the {borrower}\\n     */\\n    function getBorrowerLoans(address borrower)\\n        external\\n        view\\n        returns (uint128[] memory loanIDs)\\n    {\\n        return LibLoans.s().borrowerLoans[borrower];\\n    }\\n\\n    /**\\n     * @notice Returns the debt owed for a specified loan.\\n     * @param loanID The loan ID to get the total amount owed.\\n     * @return LoanDebt The principal and interest owed amount.\\n     */\\n    function getDebtOwed(uint256 loanID)\\n        external\\n        view\\n        returns (LoanDebt memory)\\n    {\\n        return LibLoans.debt(loanID);\\n    }\\n\\n    /**\\n     * @notice Returns the total amount owed for a specified loan.\\n     * @param loanID The loan ID to get the total amount owed.\\n     * @return uint256 The total owed amount.\\n     */\\n    function getTotalOwed(uint256 loanID) external view returns (uint256) {\\n        return LibLoans.getTotalOwed(loanID);\\n    }\\n\\n    /**\\n     * @notice Returns the amount of interest owed for a given loan and loan amount.\\n     * @param loanID The loan ID to get the owed interest.\\n     * @param amountBorrow The principal of the loan to take out.\\n     * @return uint256 The interest owed.\\n     */\\n    function getInterestOwedFor(uint256 loanID, uint256 amountBorrow)\\n        external\\n        view\\n        returns (uint256)\\n    {\\n        return LibLoans.getInterestOwedFor(loanID, amountBorrow);\\n    }\\n\\n    function getCollateralNeededInfo(uint256 loanID)\\n        external\\n        view\\n        returns (\\n            uint256 neededInLendingTokens,\\n            uint256 neededInCollateralTokens,\\n            uint256 escrowLoanValue\\n        )\\n    {\\n        return LibLoans.getCollateralNeededInfo(loanID);\\n    }\\n\\n    function getLoanEscrow(uint256 loanID)\\n        external\\n        view\\n        returns (address escrow_)\\n    {\\n        escrow_ = address(LibLoans.s().loanEscrows[loanID]);\\n    }\\n\\n    function getLoanEscrowValue(uint256 loanID)\\n        external\\n        view\\n        returns (uint256)\\n    {\\n        return LibEscrow.calculateTotalValue(loanID);\\n    }\\n\\n    function getEscrowTokens(uint256 loanID)\\n        external\\n        view\\n        returns (address[] memory tokens_)\\n    {\\n        EnumerableSet.AddressSet storage escrowTokens =\\n            LibEscrow.getEscrowTokens(loanID);\\n        tokens_ = new address[](EnumerableSet.length(escrowTokens));\\n        for (uint256 i; i < tokens_.length; i++) {\\n            tokens_[i] = EnumerableSet.at(escrowTokens, i);\\n        }\\n    }\\n}\\n\",\"keccak256\":\"0xf589a2afff647e5288e15f3f6614135395562b4d12c743402a6504a3fb9b39d6\",\"license\":\"MIT\"},\"contracts/market/RepayFacet.sol\":{\"content\":\"// SPDX-License-Identifier: MIT\\npragma solidity ^0.8.0;\\n\\n// Contracts\\nimport { RolesMods } from \\\"../contexts2/access-control/roles/RolesMods.sol\\\";\\nimport { PausableMods } from \\\"../settings/pausable/PausableMods.sol\\\";\\nimport {\\n    ReentryMods\\n} from \\\"../contexts2/access-control/reentry/ReentryMods.sol\\\";\\nimport { AUTHORIZED } from \\\"../shared/roles.sol\\\";\\nimport { LoanDataFacet } from \\\"./LoanDataFacet.sol\\\";\\n\\n// Libraries\\nimport {\\n    IERC20,\\n    SafeERC20\\n} from \\\"@openzeppelin/contracts/token/ERC20/utils/SafeERC20.sol\\\";\\nimport {\\n    EnumerableSet\\n} from \\\"@openzeppelin/contracts/utils/structs/EnumerableSet.sol\\\";\\nimport { LibLoans } from \\\"./libraries/LibLoans.sol\\\";\\nimport { LibCollateral } from \\\"./libraries/LibCollateral.sol\\\";\\nimport { LibDapps } from \\\"../escrow/dapps/libraries/LibDapps.sol\\\";\\nimport { LibEscrow } from \\\"../escrow/libraries/LibEscrow.sol\\\";\\nimport {\\n    PlatformSettingsLib\\n} from \\\"../settings/platform/libraries/PlatformSettingsLib.sol\\\";\\nimport { NumbersLib } from \\\"../shared/libraries/NumbersLib.sol\\\";\\nimport { PriceAggLib } from \\\"../price-aggregator/PriceAggLib.sol\\\";\\nimport { NFTLib } from \\\"../nft/libraries/NFTLib.sol\\\";\\n\\n// Interfaces\\nimport { ITToken } from \\\"../lending/ttoken/ITToken.sol\\\";\\nimport { ILoansEscrow } from \\\"../escrow/escrow/ILoansEscrow.sol\\\";\\n\\n// Storage\\nimport {\\n    MarketStorageLib,\\n    MarketStorage,\\n    Loan,\\n    LoanStatus\\n} from \\\"../storage/market.sol\\\";\\n\\ncontract RepayFacet is RolesMods, ReentryMods, PausableMods {\\n    /**\\n        @notice This event is emitted when a loan has been successfully repaid\\n        @param loanID ID of loan from which collateral was withdrawn\\n        @param borrower Account address of the borrower\\n        @param amountPaid Amount of the loan paid back\\n        @param payer Account address of the payer\\n        @param totalOwed Total amount of the loan to be repaid\\n     */\\n    event LoanRepaid(\\n        uint256 indexed loanID,\\n        address indexed borrower,\\n        uint256 amountPaid,\\n        address payer,\\n        uint256 totalOwed\\n    );\\n\\n    /**\\n     * @notice This event is emitted when a loan has been successfully liquidated\\n     * @param loanID ID of loan from which collateral was withdrawn\\n     * @param borrower Account address of the borrower\\n     * @param liquidator Account address of the liquidator\\n     * @param reward Value in lending token paid out to liquidator\\n     * @param tokensIn Percentage of the collateral price paid by the liquidator to the lending pool\\n     */\\n    event LoanLiquidated(\\n        uint256 indexed loanID,\\n        address indexed borrower,\\n        address liquidator,\\n        uint256 reward,\\n        uint256 tokensIn\\n    );\\n\\n    /**\\n     * @notice Repay this Escrow's loan.\\n     * @dev If the Escrow's balance of the borrowed token is less than the amount to repay, transfer tokens from the sender's wallet.\\n     * @dev Only the owner of the Escrow can call this. If someone else wants to make a payment, they should call the loan manager directly.\\n     * @param loanID The id of the loan being used.\\n     * @param amount The amount being repaid.\\n     */\\n    function escrowRepay(uint256 loanID, uint256 amount)\\n        external\\n        paused(\\\"\\\", false)\\n        authorized(AUTHORIZED, msg.sender)\\n        nonReentry(\\\"\\\")\\n    {\\n        uint256 balance =\\n            LibEscrow.balanceOf(loanID, LibLoans.loan(loanID).lendingToken);\\n        uint256 totalOwed = LibLoans.getTotalOwed(loanID);\\n        if (balance < totalOwed && amount > balance) {\\n            uint256 amountNeeded =\\n                amount > totalOwed ? totalOwed - (balance) : amount - (balance);\\n\\n            SafeERC20.safeTransferFrom(\\n                IERC20(LibLoans.loan(loanID).lendingToken),\\n                msg.sender,\\n                address(LibEscrow.e(loanID)),\\n                amountNeeded\\n            );\\n        }\\n\\n        __repayLoan(loanID, amount, address(LibEscrow.e(loanID)), false);\\n    }\\n\\n    /**\\n     * @notice Make a payment to a loan\\n     * @param loanID The ID of the loan the payment is for\\n     * @param amount The amount of tokens to pay back to the loan\\n     */\\n    function repayLoan(uint256 loanID, uint256 amount)\\n        external\\n        nonReentry(\\\"\\\")\\n        paused(\\\"\\\", false)\\n        authorized(AUTHORIZED, msg.sender)\\n    {\\n        __repayLoan(loanID, amount, msg.sender, false);\\n    }\\n\\n    function __repayLoan(\\n        uint256 loanID,\\n        uint256 amount,\\n        address sender,\\n        bool isLiquidation\\n    ) private returns (uint256 leftToPay_) {\\n        require(amount > 0, \\\"Teller: zero repay\\\");\\n\\n        // calculate the actual amount to repay\\n        leftToPay_ =\\n            LibLoans.debt(loanID).principalOwed +\\n            LibLoans.debt(loanID).interestOwed;\\n        if (leftToPay_ < amount) {\\n            amount = leftToPay_;\\n            leftToPay_ = 0;\\n        } else {\\n            leftToPay_ -= amount;\\n        }\\n\\n        // Get the Teller token for the loan\\n        ITToken tToken =\\n            MarketStorageLib.store().tTokens[\\n                LibLoans.loan(loanID).lendingToken\\n            ];\\n        // Transfer funds from account\\n        if (address(LibEscrow.e(loanID)) == sender) {\\n            LibEscrow.e(loanID).claimToken(\\n                LibLoans.loan(loanID).lendingToken,\\n                address(tToken),\\n                amount\\n            );\\n        } else {\\n            SafeERC20.safeTransferFrom(\\n                IERC20(LibLoans.loan(loanID).lendingToken),\\n                sender,\\n                address(tToken),\\n                amount\\n            );\\n        }\\n\\n        // Deduct the interest and principal owed\\n        uint256 principalPaid;\\n        uint256 interestPaid;\\n        if (amount < LibLoans.debt(loanID).interestOwed) {\\n            interestPaid = amount;\\n            LibLoans.debt(loanID).interestOwed -= amount;\\n        } else {\\n            if (LibLoans.debt(loanID).interestOwed > 0) {\\n                interestPaid = LibLoans.debt(loanID).interestOwed;\\n                amount -= interestPaid;\\n                LibLoans.debt(loanID).interestOwed = 0;\\n            }\\n\\n            if (amount > 0) {\\n                principalPaid = amount;\\n                LibLoans.debt(loanID).principalOwed -= amount;\\n            }\\n        }\\n\\n        // Tell the Teller Token value has been deposited back into the pool.\\n        tToken.repayLoan(principalPaid, interestPaid);\\n\\n        if (isLiquidation) {\\n            // Make sure there is nothing left to repay on the loan\\n            require(leftToPay_ == 0, \\\"Teller: liquidate partial repay\\\");\\n\\n            // Set loan status\\n            LibLoans.loan(loanID).status = LoanStatus.Liquidated;\\n\\n            // Transfer NFT if linked\\n            NFTLib.liquidateNFT(loanID);\\n        } else {\\n            // if the loan is now fully paid, close it and withdraw borrower collateral\\n            if (leftToPay_ == 0) {\\n                LibLoans.loan(loanID).status = LoanStatus.Closed;\\n                LibCollateral.withdrawAll(\\n                    loanID,\\n                    LibLoans.loan(loanID).borrower\\n                );\\n                // Restake any NFTs linked to loan for borrower\\n                NFTLib.restakeLinked(loanID, LibLoans.loan(loanID).borrower);\\n            }\\n\\n            emit LoanRepaid(\\n                loanID,\\n                LibLoans.loan(loanID).borrower,\\n                amount,\\n                msg.sender,\\n                leftToPay_\\n            );\\n        }\\n    }\\n\\n    /**\\n     * @notice Liquidate a loan if it is expired or under collateralized\\n     * @param loanID The ID of the loan to be liquidated\\n     */\\n    function liquidateLoan(uint256 loanID)\\n        external\\n        nonReentry(\\\"\\\")\\n        paused(\\\"\\\", false)\\n        authorized(AUTHORIZED, msg.sender)\\n    {\\n        Loan storage loan = LibLoans.loan(loanID);\\n        uint256 collateralAmount = LibCollateral.e(loanID).loanSupply(loanID);\\n        require(\\n            RepayLib.isLiquidable(loanID, collateralAmount),\\n            \\\"Teller: does not need liquidation\\\"\\n        );\\n\\n        // Calculate the reward before repaying the loan\\n        (uint256 rewardInLending, uint256 collateralInLending) =\\n            RepayLib.getLiquidationReward(loanID, collateralAmount);\\n\\n        // The liquidator pays the amount still owed on the loan\\n        uint256 amountToLiquidate =\\n            LibLoans.debt(loanID).principalOwed +\\n                LibLoans.debt(loanID).interestOwed;\\n\\n        __repayLoan(loanID, amountToLiquidate, msg.sender, true);\\n\\n        // Payout the liquidator reward owed\\n        if (rewardInLending > 0) {\\n            RepayLib.payOutLiquidator(\\n                loanID,\\n                rewardInLending,\\n                collateralInLending,\\n                collateralAmount,\\n                payable(msg.sender)\\n            );\\n        }\\n\\n        emit LoanLiquidated(\\n            loanID,\\n            loan.borrower,\\n            msg.sender,\\n            rewardInLending,\\n            amountToLiquidate\\n        );\\n    }\\n\\n    /**\\n     * @notice It gets the current liquidation reward for a given loan.\\n     * @param loanID The loan ID to get the info.\\n     * @return inLending_ The value the liquidator will receive denoted in lending tokens.\\n     * @return inCollateral_ The value the liquidator will receive denoted in collateral tokens.\\n     */\\n    function getLiquidationReward(uint256 loanID)\\n        external\\n        view\\n        returns (uint256 inLending_, uint256 inCollateral_)\\n    {\\n        (inLending_, ) = RepayLib.getLiquidationReward(\\n            loanID,\\n            LibCollateral.e(loanID).loanSupply(loanID)\\n        );\\n        inCollateral_ = PriceAggLib.valueFor(\\n            LibLoans.loan(loanID).lendingToken,\\n            LibLoans.loan(loanID).collateralToken,\\n            inLending_\\n        );\\n    }\\n}\\n\\nlibrary RepayLib {\\n    /**\\n     * @notice It checks if a loan can be liquidated.\\n     * @param loanID The loan ID to check.\\n     * @return true if the loan is liquidable.\\n     */\\n    function isLiquidable(uint256 loanID, uint256 collateralAmount)\\n        internal\\n        view\\n        returns (bool)\\n    {\\n        Loan storage loan = LibLoans.loan(loanID);\\n        // Check if loan can be liquidated\\n        if (loan.status != LoanStatus.Active) {\\n            return false;\\n        }\\n\\n        if (loan.collateralRatio > 0) {\\n            // If loan has a collateral ratio, check how much is needed\\n            (, uint256 neededInCollateral, ) =\\n                LoanDataFacet(address(this)).getCollateralNeededInfo(loanID);\\n            if (neededInCollateral > collateralAmount) {\\n                return true;\\n            }\\n        }\\n\\n        // Otherwise, check if the loan has expired\\n        return block.timestamp >= loan.loanStartTime + loan.duration;\\n    }\\n\\n    /**\\n     * @notice It gets the current liquidation reward for a given loan.\\n     * @param loanID The loan ID to get the info.\\n     * @param collateralAmount The amount of collateral for the {loanID}. Passed in to save gas calling the collateral escrow multiple times.\\n     * @return reward_ The value the liquidator will receive denoted in lending tokens.\\n     */\\n    function getLiquidationReward(uint256 loanID, uint256 collateralAmount)\\n        internal\\n        view\\n        returns (uint256 reward_, uint256 collateralValue_)\\n    {\\n        uint256 amountToLiquidate =\\n            LibLoans.debt(loanID).principalOwed +\\n                LibLoans.debt(loanID).interestOwed;\\n\\n        // Max reward is amount repaid on loan plus extra percentage\\n        uint256 maxReward =\\n            amountToLiquidate +\\n                NumbersLib.percent(\\n                    amountToLiquidate,\\n                    uint16(PlatformSettingsLib.getLiquidateRewardPercent())\\n                );\\n\\n        // Calculate available collateral for reward\\n        if (collateralAmount > 0) {\\n            collateralValue_ = PriceAggLib.valueFor(\\n                LibLoans.loan(loanID).collateralToken,\\n                LibLoans.loan(loanID).lendingToken,\\n                collateralAmount\\n            );\\n            reward_ += collateralValue_;\\n        }\\n\\n        // Calculate loan escrow value if collateral not enough to cover reward\\n        if (reward_ < maxReward) {\\n            reward_ += LibEscrow.calculateTotalValue(loanID);\\n        }\\n\\n        // Cap the reward to max\\n        if (reward_ > maxReward) {\\n            reward_ = maxReward;\\n        }\\n    }\\n\\n    /**\\n     * @notice Checks if the loan has an Escrow and claims any tokens then pays out the loan collateral.\\n     * @dev See Escrow.claimTokens for more info.\\n     * @param loanID The loan ID which is being liquidated\\n     * @param rewardInLending The total amount of reward based in the lending token to pay the liquidator\\n     * @param collateralInLending The amount of collateral that is available for the loan denoted in lending tokens\\n     * @param collateralAmount The amount of collateral that is available for the loan\\n     * @param liquidator The address of the liquidator where the liquidation reward will be sent to\\n     */\\n    function payOutLiquidator(\\n        uint256 loanID,\\n        uint256 rewardInLending,\\n        uint256 collateralInLending,\\n        uint256 collateralAmount,\\n        address payable liquidator\\n    ) internal {\\n        require(\\n            LibLoans.loan(loanID).status == LoanStatus.Liquidated,\\n            \\\"Teller: loan not liquidated\\\"\\n        );\\n\\n        if (rewardInLending <= collateralInLending) {\\n            uint256 rewardInCollateral =\\n                PriceAggLib.valueFor(\\n                    LibLoans.loan(loanID).lendingToken,\\n                    LibLoans.loan(loanID).collateralToken,\\n                    rewardInLending\\n                );\\n\\n            LibCollateral.withdraw(loanID, rewardInCollateral, liquidator);\\n        } else {\\n            // Payout whats available in the collateral token\\n            LibCollateral.withdraw(loanID, collateralAmount, liquidator);\\n\\n            // Claim remaining reward value from the loan escrow\\n            claimEscrowTokensByValue(\\n                loanID,\\n                liquidator,\\n                rewardInLending - collateralInLending\\n            );\\n        }\\n    }\\n\\n    /**\\n     * @dev Send the equivalent of tokens owned by the loan escrow (in lending value) to the recipient,\\n     * @param loanID The loan ID to clam tokens from\\n     * @param recipient address to send the tokens to\\n     * @param value The value of escrow held tokens to be claimed based in lending value\\n     */\\n    function claimEscrowTokensByValue(\\n        uint256 loanID,\\n        address recipient,\\n        uint256 value\\n    ) private {\\n        EnumerableSet.AddressSet storage tokens =\\n            MarketStorageLib.store().escrowTokens[loanID];\\n        uint256 valueLeftToTransfer = value;\\n\\n        // Start with the lending token\\n        valueLeftToTransfer = claimEscrowToken(\\n            loanID,\\n            LibLoans.loan(loanID).lendingToken,\\n            recipient,\\n            valueLeftToTransfer\\n        );\\n\\n        // Cycle through remaining tokens\\n        for (uint256 i = 0; i < EnumerableSet.length(tokens); i++) {\\n            if (valueLeftToTransfer == 0) {\\n                return;\\n            }\\n\\n            valueLeftToTransfer = claimEscrowToken(\\n                loanID,\\n                EnumerableSet.at(tokens, i),\\n                recipient,\\n                valueLeftToTransfer\\n            );\\n        }\\n    }\\n\\n    function claimEscrowToken(\\n        uint256 loanID,\\n        address token,\\n        address recipient,\\n        uint256 valueLeftToTransfer\\n    ) private returns (uint256) {\\n        uint256 balance = LibEscrow.balanceOf(loanID, token);\\n        // get value of token balance in lending value\\n        if (balance > 0) {\\n            // If token not the lending token, get value of token\\n            uint256 balanceInLending;\\n            if (token == LibLoans.loan(loanID).lendingToken) {\\n                balanceInLending = balance;\\n            } else {\\n                balanceInLending = PriceAggLib.valueFor(\\n                    token,\\n                    LibLoans.loan(loanID).lendingToken,\\n                    balance\\n                );\\n            }\\n\\n            if (balanceInLending <= valueLeftToTransfer) {\\n                LibEscrow.e(loanID).claimToken(token, recipient, balance);\\n                valueLeftToTransfer -= balanceInLending;\\n            } else {\\n                // Token balance is more than enough so calculate ratio of balance to transfer\\n                uint256 valueToTransfer;\\n                if (token == LibLoans.loan(loanID).lendingToken) {\\n                    valueToTransfer = valueLeftToTransfer;\\n                } else {\\n                    valueToTransfer = NumbersLib.percent(\\n                        balance,\\n                        NumbersLib.ratioOf(\\n                            valueLeftToTransfer,\\n                            balanceInLending\\n                        )\\n                    );\\n                }\\n\\n                LibEscrow.e(loanID).claimToken(\\n                    token,\\n                    recipient,\\n                    valueToTransfer\\n                );\\n                valueLeftToTransfer = 0;\\n            }\\n        }\\n\\n        return valueLeftToTransfer;\\n    }\\n}\\n\",\"keccak256\":\"0xdfcd62dbcda7ba0ce92718d72d6cab3f7c78178d9ac9de6b04640124d43bf4cc\",\"license\":\"MIT\"},\"contracts/market/collateral/ICollateralEscrow.sol\":{\"content\":\"// SPDX-License-Identifier: MIT\\npragma solidity ^0.8.0;\\n\\ninterface ICollateralEscrow {\\n    function init(address tokenAddress, bool isWETH) external;\\n\\n    function deposit(uint256 loanID, uint256 amount) external payable;\\n\\n    function withdraw(\\n        uint256 loanID,\\n        uint256 amount,\\n        address payable receiver\\n    ) external;\\n\\n    function loanSupply(uint256 loanID) external view returns (uint256 supply_);\\n\\n    function totalSupply() external view returns (uint256 supply_);\\n}\\n\",\"keccak256\":\"0x3c83593b5521e85c7f62076b41869cd5a762b34523ac39fc23b4ea1b9042aa59\",\"license\":\"MIT\"},\"contracts/market/libraries/LibCollateral.sol\":{\"content\":\"// SPDX-License-Identifier: MIT\\npragma solidity ^0.8.0;\\n\\n// Interfaces\\nimport { IERC20 } from \\\"@openzeppelin/contracts/token/ERC20/ERC20.sol\\\";\\nimport { ICollateralEscrow } from \\\"../collateral/ICollateralEscrow.sol\\\";\\n\\n// Storage\\nimport { AppStorageLib } from \\\"../../storage/app.sol\\\";\\nimport { MarketStorageLib } from \\\"../../storage/market.sol\\\";\\n\\nlibrary LibCollateral {\\n    /**\\n     * @notice This event is emitted when collateral has been deposited for the loan\\n     * @param loanID ID of the loan for which collateral was deposited\\n     * @param depositor Account that deposited funds\\n     * @param amount Amount of collateral deposited\\n     */\\n    event CollateralDeposited(\\n        uint256 indexed loanID,\\n        address indexed depositor,\\n        uint256 amount\\n    );\\n\\n    /**\\n     * @notice This event is emitted when collateral has been withdrawn\\n     * @param loanID ID of loan from which collateral was withdrawn\\n     * @param receiver Account that received funds\\n     * @param amount Value of collateral withdrawn\\n     */\\n    event CollateralWithdrawn(\\n        uint256 indexed loanID,\\n        address indexed receiver,\\n        uint256 amount\\n    );\\n\\n    function e(uint256 loanID) internal view returns (ICollateralEscrow c_) {\\n        c_ = MarketStorageLib.store().collateralEscrows[\\n            MarketStorageLib.store().loans[loanID].collateralToken\\n        ];\\n    }\\n\\n    function e(address token) internal view returns (ICollateralEscrow c_) {\\n        c_ = MarketStorageLib.store().collateralEscrows[token];\\n    }\\n\\n    function deposit(uint256 loanID, uint256 amount) internal {\\n        e(loanID).deposit{ value: amount }(loanID, amount);\\n\\n        emit CollateralDeposited(loanID, msg.sender, amount);\\n    }\\n\\n    function withdraw(\\n        uint256 loanID,\\n        uint256 amount,\\n        address payable receiver\\n    ) internal {\\n        e(loanID).withdraw(loanID, amount, receiver);\\n\\n        emit CollateralWithdrawn(loanID, receiver, amount);\\n    }\\n\\n    function withdrawAll(uint256 loanID, address payable receiver) internal {\\n        withdraw(loanID, e(loanID).loanSupply(loanID), receiver);\\n    }\\n\\n    function createEscrow(address token) internal {\\n        // Check if collateral escrow exists\\n        if (address(e(token)) == address(0)) {\\n            // Create escrow\\n            address escrow =\\n                AppStorageLib.store().collateralEscrowBeacon.cloneProxy(\\\"\\\");\\n            ICollateralEscrow(escrow).init(\\n                token,\\n                // Check if collateral token is WETH\\n                token == AppStorageLib.store().assetAddresses[\\\"WETH\\\"]\\n            );\\n\\n            // Set max allowance\\n            IERC20(token).approve(escrow, type(uint256).max);\\n            // Save escrow address for loan\\n            MarketStorageLib.store().collateralEscrows[\\n                token\\n            ] = ICollateralEscrow(escrow);\\n        }\\n    }\\n}\\n\",\"keccak256\":\"0xd52b3e577480481b62d6a6c37f4ef596b7ec0120afbd6bc1a08b17923b926445\",\"license\":\"MIT\"},\"contracts/market/libraries/LibLoans.sol\":{\"content\":\"// SPDX-License-Identifier: MIT\\npragma solidity ^0.8.0;\\n\\n// Libraries\\nimport { LibEscrow } from \\\"../../escrow/libraries/LibEscrow.sol\\\";\\nimport { NumbersLib } from \\\"../../shared/libraries/NumbersLib.sol\\\";\\nimport {\\n    PlatformSettingsLib\\n} from \\\"../../settings/platform/libraries/PlatformSettingsLib.sol\\\";\\nimport { PriceAggLib } from \\\"../../price-aggregator/PriceAggLib.sol\\\";\\n\\n// Storage\\nimport {\\n    MarketStorageLib,\\n    MarketStorage,\\n    Loan,\\n    LoanStatus,\\n    LoanDebt,\\n    LoanTerms\\n} from \\\"../../storage/market.sol\\\";\\n\\nlibrary LibLoans {\\n    using NumbersLib for int256;\\n    using NumbersLib for uint256;\\n\\n    bytes32 internal constant ID = keccak256(\\\"LOANS\\\");\\n    uint32 internal constant SECONDS_PER_YEAR = 31536000;\\n\\n    function s() internal pure returns (MarketStorage storage) {\\n        return MarketStorageLib.store();\\n    }\\n\\n    function loan(uint256 loanID) internal view returns (Loan storage l_) {\\n        l_ = s().loans[loanID];\\n    }\\n\\n    function debt(uint256 loanID) internal view returns (LoanDebt storage d_) {\\n        d_ = s().loanDebt[loanID];\\n    }\\n\\n    function terms(uint256 loanID)\\n        internal\\n        view\\n        returns (LoanTerms storage t_)\\n    {\\n        t_ = s().loanTerms[loanID];\\n    }\\n\\n    /**\\n     * @notice Returns the total amount owed for a specified loan.\\n     * @param loanID The loan ID to get the total amount owed.\\n     * @return uint256 The total owed amount.\\n     */\\n    function getTotalOwed(uint256 loanID) internal view returns (uint256) {\\n        if (loan(loanID).status == LoanStatus.TermsSet) {\\n            uint256 interestOwed =\\n                getInterestOwedFor(loanID, terms(loanID).maxLoanAmount);\\n            return terms(loanID).maxLoanAmount + (interestOwed);\\n        } else if (loan(loanID).status == LoanStatus.Active) {\\n            return debt(loanID).principalOwed + (debt(loanID).interestOwed);\\n        }\\n        return 0;\\n    }\\n\\n    /**\\n     * @notice Returns the amount of interest owed for a given loan and loan amount.\\n     * @param loanID The loan ID to get the owed interest.\\n     * @param amountBorrow The principal of the loan to take out.\\n     * @return uint256 The interest owed.\\n     */\\n    function getInterestOwedFor(uint256 loanID, uint256 amountBorrow)\\n        internal\\n        view\\n        returns (uint256)\\n    {\\n        return amountBorrow.percent(uint16(getInterestRatio(loanID)));\\n    }\\n\\n    function getCollateralNeededInfo(uint256 loanID)\\n        internal\\n        view\\n        returns (\\n            uint256 neededInLendingTokens,\\n            uint256 neededInCollateralTokens,\\n            uint256 escrowLoanValue\\n        )\\n    {\\n        (neededInLendingTokens, escrowLoanValue) = getCollateralNeededInTokens(\\n            loanID\\n        );\\n\\n        if (neededInLendingTokens == 0) {\\n            neededInCollateralTokens = 0;\\n        } else {\\n            neededInCollateralTokens = PriceAggLib.valueFor(\\n                loan(loanID).lendingToken,\\n                loan(loanID).collateralToken,\\n                neededInLendingTokens\\n            );\\n        }\\n    }\\n\\n    /**\\n     * @notice Returns the minimum collateral value threshold, in the lending token, needed to take out the loan or for it be liquidated.\\n     * @dev If the loan status is TermsSet, then the value is whats needed to take out the loan.\\n     * @dev If the loan status is Active, then the value is the threshold at which the loan can be liquidated at.\\n     * @param loanID The loan ID to get needed collateral info for.\\n     * @return neededInLendingTokens int256 The minimum collateral value threshold required.\\n     * @return escrowLoanValue uint256 The value of the loan held in the escrow contract.\\n     */\\n    function getCollateralNeededInTokens(uint256 loanID)\\n        internal\\n        view\\n        returns (uint256 neededInLendingTokens, uint256 escrowLoanValue)\\n    {\\n        if (!_isActiveOrSet(loanID) || loan(loanID).collateralRatio == 0) {\\n            return (0, 0);\\n        }\\n\\n        /*\\n            The collateral to principal owed ratio is the sum of:\\n                * collateral buffer percent\\n                * loan interest rate\\n                * liquidation reward percent\\n                * X factor of additional collateral\\n        */\\n        // * To take out a loan (if status == TermsSet), the required collateral is (max loan amount * the collateral ratio).\\n        // * For the loan to not be liquidated (when status == Active), the minimum collateral is (principal owed * (X collateral factor + liquidation reward)).\\n        // * If the loan has an escrow account, the minimum collateral is ((principal owed - escrow value) * (X collateral factor + liquidation reward)).\\n        if (loan(loanID).status == LoanStatus.TermsSet) {\\n            neededInLendingTokens = _getLoanAmount(loanID).percent(\\n                loan(loanID).collateralRatio\\n            );\\n        } else {\\n            uint16 requiredRatio =\\n                loan(loanID).collateralRatio -\\n                    getInterestRatio(loanID) -\\n                    uint16(PlatformSettingsLib.getCollateralBufferValue());\\n\\n            neededInLendingTokens =\\n                debt(loanID).principalOwed +\\n                debt(loanID).interestOwed;\\n            escrowLoanValue = LibEscrow.calculateTotalValue(loanID);\\n            if (\\n                escrowLoanValue > 0 && neededInLendingTokens > escrowLoanValue\\n            ) {\\n                neededInLendingTokens -= escrowLoanValue;\\n            }\\n            neededInLendingTokens = neededInLendingTokens.percent(\\n                requiredRatio\\n            );\\n        }\\n    }\\n\\n    function canGoToEOAWithCollateralRatio(uint256 collateralRatio)\\n        internal\\n        view\\n        returns (bool)\\n    {\\n        return\\n            collateralRatio >=\\n            PlatformSettingsLib.getOverCollateralizedBufferValue();\\n    }\\n\\n    /**\\n     * @notice Returns the interest ratio based on the loan interest rate for the loan duration.\\n     * @notice There is a minimum threshold of 1%.\\n     * @dev The interest rate on the loan terms is APY.\\n     * @param loanID The loan ID to get the interest rate for.\\n     */\\n    function getInterestRatio(uint256 loanID)\\n        internal\\n        view\\n        returns (uint16 ratio_)\\n    {\\n        ratio_ = uint16(\\n            (uint64(loan(loanID).duration) * loan(loanID).interestRate) /\\n                SECONDS_PER_YEAR\\n        );\\n\\n        if (ratio_ == 0) {\\n            ratio_ = 1;\\n        }\\n    }\\n\\n    function _getLoanAmount(uint256 loanID) private view returns (uint256) {\\n        if (loan(loanID).status == LoanStatus.TermsSet) {\\n            return terms(loanID).maxLoanAmount;\\n        } else if (loan(loanID).status == LoanStatus.Active) {\\n            return loan(loanID).borrowedAmount;\\n        }\\n        return 0;\\n    }\\n\\n    function _isActiveOrSet(uint256 loanID) private view returns (bool) {\\n        LoanStatus status = loan(loanID).status;\\n        return status == LoanStatus.Active || status == LoanStatus.TermsSet;\\n    }\\n}\\n\",\"keccak256\":\"0x9bf9fae5b01110da7c5a5d2517fdea6aa880d5c1647ba6125c68cafad278499b\",\"license\":\"MIT\"},\"contracts/nft/ITellerNFT.sol\":{\"content\":\"// SPDX-License-Identifier: MIT\\npragma solidity ^0.8.0;\\npragma experimental ABIEncoderV2;\\n\\n// Interfaces\\nimport \\\"@openzeppelin/contracts/token/ERC721/extensions/IERC721Metadata.sol\\\";\\n\\ninterface ITellerNFT {\\n    struct Tier {\\n        uint256 baseLoanSize;\\n        string[] hashes;\\n        address contributionAsset;\\n        uint256 contributionSize;\\n        uint8 contributionMultiplier;\\n    }\\n\\n    /**\\n     * @notice The contract metadata URI.\\n     */\\n    function contractURI() external view returns (string memory);\\n\\n    /**\\n     * @notice It returns information about a Tier for a token ID.\\n     * @param index Tier index to get info.\\n     */\\n    function getTier(uint256 index) external view returns (Tier memory tier_);\\n\\n    /**\\n     * @notice It returns information about a Tier for a token ID.\\n     * @param tokenId ID of the token to get Tier info.\\n     */\\n    function getTokenTier(uint256 tokenId)\\n        external\\n        view\\n        returns (uint256 index_, Tier memory tier_);\\n\\n    /**\\n     * @notice It returns an array of token IDs owned by an address.\\n     * @dev It uses a EnumerableSet to store values and loops over each element to add to the array.\\n     * @dev Can be costly if calling within a contract for address with many tokens.\\n     */\\n    function getTierHashes(uint256 tierIndex)\\n        external\\n        view\\n        returns (string[] memory hashes_);\\n\\n    /**\\n     * @notice It returns an array of token IDs owned by an address.\\n     * @dev It uses a EnumerableSet to store values and loops over each element to add to the array.\\n     * @dev Can be costly if calling within a contract for address with many tokens.\\n     */\\n    function getOwnedTokens(address owner)\\n        external\\n        view\\n        returns (uint256[] memory owned);\\n\\n    /**\\n     * @notice It mints a new token for a Tier index.\\n     *\\n     * Requirements:\\n     *  - Caller must be an authorized minter\\n     */\\n    function mint(uint256 tierIndex, address owner) external;\\n\\n    /**\\n     * @notice Adds a new Tier to be minted with the given information.\\n     * @dev It auto increments the index of the next tier to add.\\n     * @param newTier Information about the new tier to add.\\n     *\\n     * Requirements:\\n     *  - Caller must have the {MINTER} role\\n     */\\n    function addTier(Tier memory newTier) external;\\n\\n    /**\\n     * @notice Sets the contract level metadata URI hash.\\n     * @param contractURIHash The hash to the initial contract level metadata.\\n     */\\n    function setContractURIHash(string memory contractURIHash) external;\\n\\n    /**\\n     * @notice Initializes the TellerNFT.\\n     * @param minters The addresses that should allowed to mint tokens.\\n     */\\n    function initialize(address[] calldata minters) external;\\n}\\n\",\"keccak256\":\"0x7c788b94c175b70eec6b10bfe0655616fc0beb2ce3ef70a6fa750f291d35106c\",\"license\":\"MIT\"},\"contracts/nft/TellerNFT.sol\":{\"content\":\"// SPDX-License-Identifier: MIT\\npragma solidity ^0.8.0;\\npragma experimental ABIEncoderV2;\\n\\n// Contracts\\nimport \\\"@openzeppelin/contracts-upgradeable/token/ERC721/ERC721Upgradeable.sol\\\";\\nimport \\\"@openzeppelin/contracts-upgradeable/access/AccessControlUpgradeable.sol\\\";\\n\\n// Libraries\\nimport \\\"@openzeppelin/contracts/utils/Counters.sol\\\";\\nimport \\\"@openzeppelin/contracts/utils/structs/EnumerableSet.sol\\\";\\nimport \\\"@openzeppelin/contracts/utils/math/SafeMath.sol\\\";\\n\\n// Interfaces\\nimport \\\"./ITellerNFT.sol\\\";\\n\\n/*****************************************************************************************************/\\n/**                                             WARNING                                             **/\\n/**                                  THIS CONTRACT IS UPGRADEABLE!                                  **/\\n/**  ---------------------------------------------------------------------------------------------  **/\\n/**  Do NOT change the order of or PREPEND any storage variables to this or new versions of this    **/\\n/**  contract as this will cause the the storage slots to be overwritten on the proxy contract!!    **/\\n/**                                                                                                 **/\\n/**  Visit https://docs.openzeppelin.com/upgrades/2.6/proxies#upgrading-via-the-proxy-pattern for   **/\\n/**  more information.                                                                              **/\\n/*****************************************************************************************************/\\n/**\\n * @notice This contract is used by borrowers to call Dapp functions (using delegate calls).\\n * @notice This contract should only be constructed using it's upgradeable Proxy contract.\\n * @notice In order to call a Dapp function, the Dapp must be added in the DappRegistry instance.\\n *\\n * @author develop@teller.finance\\n */\\ncontract TellerNFT is ITellerNFT, ERC721Upgradeable, AccessControlUpgradeable {\\n    using Counters for Counters.Counter;\\n    using EnumerableSet for EnumerableSet.UintSet;\\n    using SafeMath for uint256;\\n\\n    /* Constants */\\n\\n    bytes32 public constant ADMIN = keccak256(\\\"ADMIN\\\");\\n    bytes32 public constant MINTER = keccak256(\\\"MINTER\\\");\\n\\n    /* State Variables */\\n\\n    // It holds the total number of tiers.\\n    Counters.Counter internal _tierCounter;\\n\\n    // It holds the total number of tokens minted.\\n    Counters.Counter internal _tokenCounter;\\n\\n    // It holds the information about a tier.\\n    mapping(uint256 => Tier) internal _tiers;\\n\\n    // It holds which tier a token ID is in.\\n    mapping(uint256 => uint256) internal _tokenTier;\\n\\n    // It holds a set of token IDs for an owner address.\\n    mapping(address => EnumerableSet.UintSet) internal _ownerTokenIDs;\\n\\n    // Link to the contract metadata\\n    string private _metadataBaseURI;\\n\\n    // Hash to the contract metadata located on the {_metadataBaseURI}\\n    string private _contractURIHash;\\n\\n    /* Modifiers */\\n\\n    modifier onlyAdmin() {\\n        require(hasRole(ADMIN, _msgSender()), \\\"TellerNFT: not admin\\\");\\n        _;\\n    }\\n\\n    modifier onlyMinter() {\\n        require(hasRole(MINTER, _msgSender()), \\\"TellerNFT: not minter\\\");\\n        _;\\n    }\\n\\n    /* External Functions */\\n\\n    /**\\n     * @notice It returns information about a Tier for a token ID.\\n     * @param index Tier index to get info.\\n     */\\n    function getTier(uint256 index)\\n        external\\n        view\\n        override\\n        returns (Tier memory tier_)\\n    {\\n        tier_ = _tiers[index];\\n    }\\n\\n    /**\\n     * @notice It returns information about a Tier for a token ID.\\n     * @param tokenId ID of the token to get Tier info.\\n     */\\n    function getTokenTier(uint256 tokenId)\\n        external\\n        view\\n        override\\n        returns (uint256 index_, Tier memory tier_)\\n    {\\n        index_ = _tokenTier[tokenId];\\n        tier_ = _tiers[index_];\\n    }\\n\\n    /**\\n     * @notice It returns an array of token IDs owned by an address.\\n     * @dev It uses a EnumerableSet to store values and loops over each element to add to the array.\\n     * @dev Can be costly if calling within a contract for address with many tokens.\\n     */\\n    function getTierHashes(uint256 tierIndex)\\n        external\\n        view\\n        override\\n        returns (string[] memory hashes_)\\n    {\\n        hashes_ = _tiers[tierIndex].hashes;\\n    }\\n\\n    /**\\n     * @notice It returns an array of token IDs owned by an address.\\n     * @dev It uses a EnumerableSet to store values and loops over each element to add to the array.\\n     * @dev Can be costly if calling within a contract for address with many tokens.\\n     */\\n    function getOwnedTokens(address owner)\\n        external\\n        view\\n        override\\n        returns (uint256[] memory owned_)\\n    {\\n        EnumerableSet.UintSet storage set = _ownerTokenIDs[owner];\\n        owned_ = new uint256[](set.length());\\n        for (uint256 i; i < owned_.length; i++) {\\n            owned_[i] = set.at(i);\\n        }\\n    }\\n\\n    /**\\n     * @notice The contract metadata URI.\\n     */\\n    function contractURI() external view override returns (string memory) {\\n        return _contractURIHash;\\n    }\\n\\n    /**\\n     * @notice The token URI is based on the token ID.\\n     */\\n    function tokenURI(uint256 tokenId)\\n        public\\n        view\\n        override\\n        returns (string memory)\\n    {\\n        require(_exists(tokenId), \\\"TellerNFT: URI query for nonexistent token\\\");\\n\\n        string memory baseURI = _baseURI();\\n        return\\n            bytes(baseURI).length > 0\\n                ? string(abi.encodePacked(baseURI, _tokenURIHash(tokenId)))\\n                : \\\"\\\";\\n    }\\n\\n    /**\\n     * @notice It mints a new token for a Tier index.\\n     * @param tierIndex Tier to mint token on.\\n     * @param owner The owner of the new token.\\n     *\\n     * Requirements:\\n     *  - Caller must be an authorized minter\\n     */\\n    function mint(uint256 tierIndex, address owner)\\n        external\\n        override\\n        onlyMinter\\n    {\\n        // Get the new token ID\\n        uint256 tokenId = _tokenCounter.current();\\n        _tokenCounter.increment();\\n\\n        // Mint and set the token to the tier index\\n        _safeMint(owner, tokenId);\\n        _tokenTier[tokenId] = tierIndex;\\n\\n        // Set owner\\n        _setOwner(owner, tokenId);\\n    }\\n\\n    /**\\n     * @notice Adds a new Tier to be minted with the given information.\\n     * @dev It auto increments the index of the next tier to add.\\n     * @param newTier Information about the new tier to add.\\n     *\\n     * Requirements:\\n     *  - Caller must have the {MINTER} role\\n     */\\n    function addTier(Tier memory newTier) external override onlyMinter {\\n        Tier storage tier = _tiers[_tierCounter.current()];\\n\\n        tier.baseLoanSize = newTier.baseLoanSize;\\n        tier.hashes = newTier.hashes;\\n        tier.contributionAsset = newTier.contributionAsset;\\n        tier.contributionSize = newTier.contributionSize;\\n        tier.contributionMultiplier = newTier.contributionMultiplier;\\n\\n        _tierCounter.increment();\\n    }\\n\\n    function removeMinter(address minter) external onlyMinter {\\n        revokeRole(MINTER, minter);\\n    }\\n\\n    function addMinter(address minter) public onlyMinter {\\n        _setupRole(MINTER, minter);\\n    }\\n\\n    /**\\n     * @notice Sets the contract level metadata URI hash.\\n     * @param contractURIHash The hash to the initial contract level metadata.\\n     */\\n    function setContractURIHash(string memory contractURIHash)\\n        external\\n        override\\n        onlyAdmin\\n    {\\n        _contractURIHash = contractURIHash;\\n    }\\n\\n    /**\\n     * @notice Initializes the TellerNFT.\\n     * @param minters The addresses that should allowed to mint tokens.\\n     */\\n    function initialize(address[] calldata minters)\\n        external\\n        override\\n        initializer\\n    {\\n        __ERC721_init(\\\"Teller NFT\\\", \\\"TNFT\\\");\\n        __AccessControl_init();\\n\\n        for (uint256 i; i < minters.length; i++) {\\n            _setupRole(MINTER, minters[i]);\\n        }\\n\\n        _metadataBaseURI = \\\"https://gateway.pinata.cloud/ipfs/\\\";\\n        _contractURIHash = \\\"QmWAfQFFwptzRUCdF2cBFJhcB2gfHJMd7TQt64dZUysk3R\\\";\\n    }\\n\\n    function supportsInterface(bytes4 interfaceId)\\n        public\\n        view\\n        override(AccessControlUpgradeable, ERC721Upgradeable)\\n        returns (bool)\\n    {\\n        return\\n            interfaceId == type(ITellerNFT).interfaceId ||\\n            ERC721Upgradeable.supportsInterface(interfaceId) ||\\n            AccessControlUpgradeable.supportsInterface(interfaceId);\\n    }\\n\\n    /**\\n     * @notice It returns the hash to use for the token URI.\\n     */\\n    function _tokenURIHash(uint256 tokenId)\\n        internal\\n        view\\n        returns (string memory)\\n    {\\n        string[] storage tierImageHashes = _tiers[_tokenTier[tokenId]].hashes;\\n        return tierImageHashes[tokenId.mod(tierImageHashes.length)];\\n    }\\n\\n    /**\\n     * @notice The base URI path where the token media is hosted.\\n     * @dev Base URI for computing {tokenURI}.\\n     */\\n    function _baseURI() internal view override returns (string memory) {\\n        return _metadataBaseURI;\\n    }\\n\\n    /**\\n     * @notice Moves token to new owner set and then transfers.\\n     */\\n    function _transfer(\\n        address from,\\n        address to,\\n        uint256 tokenId\\n    ) internal override {\\n        _setOwner(to, tokenId);\\n        super._transfer(from, to, tokenId);\\n    }\\n\\n    /**\\n     * @notice It removes the token from the current owner set and adds to new owner.\\n     */\\n    function _setOwner(address newOwner, uint256 tokenId) internal {\\n        address currentOwner = ownerOf(tokenId);\\n        if (currentOwner != address(0)) {\\n            _ownerTokenIDs[currentOwner].remove(tokenId);\\n        }\\n        _ownerTokenIDs[newOwner].add(tokenId);\\n    }\\n\\n    function _msgData() internal pure override returns (bytes calldata) {\\n        return msg.data;\\n    }\\n}\\n\",\"keccak256\":\"0x39fd6d70fd1aa5ae45465d7eeb38f74e2bf90535c2510782fb0bb5f720250ac5\",\"license\":\"MIT\"},\"contracts/nft/libraries/NFTLib.sol\":{\"content\":\"// SPDX-License-Identifier: MIT\\npragma solidity ^0.8.0;\\n\\n// Contracts\\nimport { TellerNFT } from \\\"../TellerNFT.sol\\\";\\n\\n// Libraries\\nimport {\\n    MerkleProof\\n} from \\\"@openzeppelin/contracts/utils/cryptography/MerkleProof.sol\\\";\\nimport {\\n    EnumerableSet\\n} from \\\"@openzeppelin/contracts/utils/structs/EnumerableSet.sol\\\";\\n\\n// Storage\\nimport { AppStorageLib, AppStorage } from \\\"../../storage/app.sol\\\";\\nimport { NFTStorageLib, NFTStorage } from \\\"../../storage/nft.sol\\\";\\n\\nstruct NftLoanSizeProof {\\n    uint256 id;\\n    uint256 baseLoanSize;\\n    bytes32[] proof;\\n}\\n\\nlibrary NFTLib {\\n    function s() internal pure returns (NFTStorage storage s_) {\\n        s_ = NFTStorageLib.store();\\n    }\\n\\n    function nft() internal view returns (TellerNFT nft_) {\\n        nft_ = AppStorageLib.store().nft;\\n    }\\n\\n    function stake(uint256 nftID, address owner) internal {\\n        // Transfer to diamond\\n        NFTLib.nft().transferFrom(msg.sender, address(this), nftID);\\n        // Add NFT ID to user set\\n        EnumerableSet.add(s().stakedNFTs[owner], nftID);\\n    }\\n\\n    function unstake(uint256 nftID) internal returns (bool success_) {\\n        success_ = EnumerableSet.remove(s().stakedNFTs[msg.sender], nftID);\\n    }\\n\\n    function stakedNFTs(address nftOwner)\\n        internal\\n        view\\n        returns (uint256[] memory staked_)\\n    {\\n        EnumerableSet.UintSet storage nfts = s().stakedNFTs[nftOwner];\\n        staked_ = new uint256[](EnumerableSet.length(nfts));\\n        for (uint256 i; i < staked_.length; i++) {\\n            staked_[i] = EnumerableSet.at(nfts, i);\\n        }\\n    }\\n\\n    function liquidateNFT(uint256 loanID) internal {\\n        // Check if NFTs are linked\\n        EnumerableSet.UintSet storage nfts = s().loanNFTs[loanID];\\n        for (uint256 i; i < EnumerableSet.length(nfts); i++) {\\n            NFTLib.nft().transferFrom(\\n                address(this),\\n                AppStorageLib.store().nftLiquidationController,\\n                EnumerableSet.at(nfts, i)\\n            );\\n        }\\n    }\\n\\n    function applyToLoan(uint256 loanID, NftLoanSizeProof calldata proof)\\n        internal\\n    {\\n        // NFT must be currently staked\\n        // Remove NFT from being staked - returns bool\\n        require(unstake(proof.id), \\\"Teller: borrower nft not staked\\\");\\n\\n        require(verifyLoanSize(proof), \\\"Teller invalid nft proof\\\");\\n\\n        // Apply NFT to loan\\n        EnumerableSet.add(s().loanNFTs[loanID], proof.id);\\n    }\\n\\n    function restakeLinked(uint256 loanID, address owner) internal {\\n        // Get linked NFT\\n        EnumerableSet.UintSet storage nfts = s().loanNFTs[loanID];\\n        for (uint256 i; i < EnumerableSet.length(nfts); i++) {\\n            // Restake the NFT\\n            EnumerableSet.add(s().stakedNFTs[owner], EnumerableSet.at(nfts, i));\\n        }\\n    }\\n\\n    function verifyLoanSize(NftLoanSizeProof calldata proof)\\n        internal\\n        view\\n        returns (bool verified_)\\n    {\\n        verified_ = MerkleProof.verify(\\n            proof.proof,\\n            s().nftMerkleRoot,\\n            keccak256(abi.encodePacked(proof.id, proof.baseLoanSize))\\n        );\\n    }\\n}\\n\",\"keccak256\":\"0x99ba27095901d86a4d1e1b9ec3a603fbbf7c67ada2ccd11cd5ed0435e5c3c66d\",\"license\":\"MIT\"},\"contracts/price-aggregator/PriceAggFacet.sol\":{\"content\":\"// SPDX-License-Identifier: MIT\\npragma solidity ^0.8.0;\\n\\n// Libraries\\nimport { SafeCast } from \\\"@openzeppelin/contracts/utils/math/SafeCast.sol\\\";\\nimport { ChainlinkLib } from \\\"./chainlink/ChainlinkLib.sol\\\";\\nimport { CompoundLib } from \\\"../shared/libraries/CompoundLib.sol\\\";\\n\\n// Interfaces\\nimport {\\n    AggregatorV2V3Interface\\n} from \\\"@chainlink/contracts/src/v0.8/interfaces/AggregatorV2V3Interface.sol\\\";\\nimport { ERC20 } from \\\"@openzeppelin/contracts/token/ERC20/ERC20.sol\\\";\\n\\n// Storage\\nimport { AppStorageLib } from \\\"../storage/app.sol\\\";\\n\\ncontract PriceAggFacet {\\n    uint256 internal constant TEN = 10;\\n\\n    /**\\n     * @notice It returns the price of the token pair as given from the Chainlink Aggregator.\\n     * @dev It tries to use ETH as a pass through asset if the direct pair is not supported.\\n     * @param src Source token address.\\n     * @param dst Destination token address.\\n     * @return int256 The latest answer as given from Chainlink.\\n     */\\n    function getPriceFor(address src, address dst)\\n        external\\n        view\\n        returns (int256)\\n    {\\n        return _priceFor(src, dst);\\n    }\\n\\n    /**\\n     * @notice It calculates the value of a token amount into another.\\n     * @param src Source token address.\\n     * @param dst Destination token address.\\n     * @param srcAmount Amount of the source token to convert into the destination token.\\n     * @return uint256 Value of the source token amount in destination tokens.\\n     */\\n    function getValueFor(\\n        address src,\\n        address dst,\\n        uint256 srcAmount\\n    ) external view returns (uint256) {\\n        return _valueFor(src, srcAmount, uint256(_priceFor(src, dst)));\\n    }\\n\\n    function _valueFor(\\n        address src,\\n        uint256 amount,\\n        uint256 exchangeRate\\n    ) internal view returns (uint256) {\\n        return (amount * exchangeRate) / _oneToken(src);\\n    }\\n\\n    function _oneToken(address token) internal view returns (uint256) {\\n        return TEN**_decimalsFor(token);\\n    }\\n\\n    /**\\n     * @dev It gets the number of decimals for a given token.\\n     * @param addr Token address to get decimals for.\\n     * @return uint8 Number of decimals the given token.\\n     */\\n    function _decimalsFor(address addr) internal view returns (uint8) {\\n        return ERC20(addr).decimals();\\n    }\\n\\n    /**\\n     * @dev Tries to calculate a price from Compound and Chainlink.\\n     */\\n    function _priceFor(address src, address dst)\\n        private\\n        view\\n        returns (int256 price_)\\n    {\\n        // If no Compound route, try Chainlink directly.\\n        price_ = int256(_compoundPriceFor(src, dst));\\n        if (price_ == 0) {\\n            price_ = _chainlinkPriceFor(src, dst);\\n            if (price_ == 0) {\\n                revert(\\\"Teller: cannot calc price\\\");\\n            }\\n        }\\n    }\\n\\n    /**\\n     * @dev Tries to get a price from {src} to {dst} by checking if either tokens are from Compound.\\n     */\\n    function _compoundPriceFor(address src, address dst)\\n        private\\n        view\\n        returns (uint256)\\n    {\\n        (bool isSrcCompound, address srcUnderlying) = _isCToken(src);\\n        if (isSrcCompound) {\\n            uint256 cRate = CompoundLib.valueInUnderlying(src, _oneToken(src));\\n            if (srcUnderlying == dst) {\\n                return cRate;\\n            } else {\\n                return _calcPriceFromCompoundRate(srcUnderlying, dst, cRate);\\n            }\\n        } else {\\n            (bool isDstCompound, address dstUnderlying) = _isCToken(dst);\\n            if (isDstCompound) {\\n                uint256 cRate =\\n                    CompoundLib.valueOfUnderlying(dst, _oneToken(src));\\n                if (dstUnderlying == src) {\\n                    return cRate;\\n                } else {\\n                    return\\n                        _calcPriceFromCompoundRate(src, dstUnderlying, cRate);\\n                }\\n            }\\n        }\\n\\n        return 0;\\n    }\\n\\n    /**\\n     * @dev Tries to get a price from {src} to {dst} and then converts using a rate from Compound.\\n     */\\n    function _calcPriceFromCompoundRate(\\n        address src,\\n        address dst,\\n        uint256 cRate\\n    ) private view returns (uint256) {\\n        uint256 rate = uint256(_chainlinkPriceFor(src, dst));\\n        uint256 value = (cRate * _oneToken(dst)) / rate;\\n        return _scale(value, _decimalsFor(src), _decimalsFor(dst));\\n    }\\n\\n    /**\\n     * @dev Scales the {value} by the difference in decimal values.\\n     */\\n    function _scale(\\n        uint256 value,\\n        uint256 srcDecimals,\\n        uint256 dstDecimals\\n    ) internal pure returns (uint256) {\\n        if (dstDecimals > srcDecimals) {\\n            return value * (TEN**(dstDecimals - srcDecimals));\\n        } else {\\n            return value / (TEN**(srcDecimals - dstDecimals));\\n        }\\n    }\\n\\n    /**\\n     * @dev Tries to calculate the price of {src} in {dst}\\n     */\\n    function _chainlinkPriceFor(address src, address dst)\\n        private\\n        view\\n        returns (int256)\\n    {\\n        (address agg, bool foundAgg, bool inverse) =\\n            ChainlinkLib.aggregatorFor(src, dst);\\n        if (foundAgg) {\\n            uint256 price =\\n                SafeCast.toUint256(AggregatorV2V3Interface(agg).latestAnswer());\\n            uint8 resDecimals = AggregatorV2V3Interface(agg).decimals();\\n            if (inverse) {\\n                price = (TEN**(resDecimals + resDecimals)) / price;\\n            }\\n            return\\n                SafeCast.toInt256(\\n                    (_scale(price, resDecimals, _decimalsFor(dst)))\\n                );\\n        } else {\\n            address WETH = AppStorageLib.store().assetAddresses[\\\"WETH\\\"];\\n            if (dst != WETH) {\\n                int256 price1 = _priceFor(src, WETH);\\n                if (price1 > 0) {\\n                    int256 price2 = _priceFor(dst, WETH);\\n                    if (price2 > 0) {\\n                        uint256 dstFactor = TEN**_decimalsFor(dst);\\n                        return (price1 * int256(dstFactor)) / price2;\\n                    }\\n                }\\n            }\\n        }\\n\\n        return 0;\\n    }\\n\\n    function _isCToken(address token)\\n        private\\n        view\\n        returns (bool isCToken, address underlying)\\n    {\\n        isCToken = CompoundLib.isCompoundToken(token);\\n        if (isCToken) {\\n            underlying = CompoundLib.getUnderlying(token);\\n        }\\n    }\\n}\\n\",\"keccak256\":\"0xf84fd8d9a179ca7a70e75677870bdd7a5be7da097cf5f1bccf1c9f93253bda90\",\"license\":\"MIT\"},\"contracts/price-aggregator/PriceAggLib.sol\":{\"content\":\"// SPDX-License-Identifier: MIT\\npragma solidity ^0.8.0;\\n\\nimport { PriceAggFacet } from \\\"./PriceAggFacet.sol\\\";\\n\\n// Storage\\nimport { AppStorageLib } from \\\"../storage/app.sol\\\";\\n\\n/**\\n * @notice Helper functions to staticcall into the PriceAggFacet from other facets. See {PriceAggFacet.getPriceFor}\\n */\\nlibrary PriceAggLib {\\n    /**\\n     * @notice See {PriceAggFacet.getValueFor}\\n     */\\n    function valueFor(\\n        address src,\\n        address dst,\\n        uint256 srcAmount\\n    ) internal view returns (uint256 value_) {\\n        value_ = PriceAggFacet(address(this)).getValueFor(src, dst, srcAmount);\\n    }\\n\\n    /**\\n     * @notice See {PriceAggFacet.getPriceFor}\\n     */\\n    function priceFor(address src, address dst)\\n        internal\\n        view\\n        returns (int256 price_)\\n    {\\n        price_ = PriceAggFacet(address(this)).getPriceFor(src, dst);\\n    }\\n}\\n\",\"keccak256\":\"0x510633e39e7a30533d703eb7ec314c037772721fdb7cea96046cd6837bcb76c3\",\"license\":\"MIT\"},\"contracts/price-aggregator/chainlink/ChainlinkLib.sol\":{\"content\":\"// SPDX-License-Identifier: MIT\\npragma solidity ^0.8.0;\\n\\n// Libraries\\nimport {\\n    EnumerableSet\\n} from \\\"@openzeppelin/contracts/utils/structs/EnumerableSet.sol\\\";\\n\\n// Storage\\nimport {\\n    PriceAggStorageLib,\\n    ChainlinkAggStorage\\n} from \\\"../../storage/price-aggregator.sol\\\";\\n\\nlibrary ChainlinkLib {\\n    function s() internal view returns (ChainlinkAggStorage storage) {\\n        return PriceAggStorageLib.store().chainlink;\\n    }\\n\\n    /**\\n     * @notice It grabs the Chainlink Aggregator contract address for the token pair if it is supported.\\n     * @param src Source token address.\\n     * @param dst Destination token address.\\n     * @return aggregator The Chainlink Aggregator address.\\n     * @return found whether or not the ChainlinkAggregator exists.\\n     * @return inverse whether or not the values from the Aggregator should be considered inverted.\\n     */\\n    function aggregatorFor(address src, address dst)\\n        internal\\n        view\\n        returns (\\n            address aggregator,\\n            bool found,\\n            bool inverse\\n        )\\n    {\\n        aggregator = s().aggregators[src][dst];\\n        if (aggregator != address(0)) {\\n            found = true;\\n        } else {\\n            aggregator = s().aggregators[dst][src];\\n            if (aggregator != address(0)) {\\n                found = true;\\n                inverse = true;\\n            }\\n        }\\n    }\\n\\n    /**\\n     * @dev Checks if a token address is supported by Chainlink (has a pair aggregator).\\n     * @param token Token address to check if is supported.\\n     * @return isSupported_ true if there is at least 1 pair aggregator for {token}\\n     */\\n    function isTokenSupported(address token)\\n        internal\\n        view\\n        returns (bool isSupported_)\\n    {\\n        isSupported_ = EnumerableSet.contains(s().supportedTokens, token);\\n    }\\n}\\n\",\"keccak256\":\"0x84fcff4e22dcf0a954794b08f4a5e66cb0b9522a74cccb7d80c07e7032440f42\",\"license\":\"MIT\"},\"contracts/settings/pausable/PausableMods.sol\":{\"content\":\"// SPDX-License-Identifier: MIT\\npragma solidity ^0.8.0;\\n\\nimport { AppStorageLib } from \\\"../../storage/app.sol\\\";\\n\\nabstract contract PausableMods {\\n    /**\\n     * @notice Requires that the state of the protocol AND the given facet id equal {state}.\\n     * @param id id of the facet to check if is paused.\\n     * @param state Boolean that the protocol AND facet should be in.\\n     */\\n    modifier paused(bytes32 id, bool state) {\\n        require(\\n            __isPaused(\\\"\\\") == state && __isPaused(id) == state,\\n            __pausedMessage(state)\\n        );\\n        _;\\n    }\\n\\n    /**\\n     * @dev Checks if the given id is paused.\\n     * @param id Encoded id of the facet to check if is paused.\\n     */\\n    function __isPaused(bytes32 id) private view returns (bool) {\\n        return AppStorageLib.store().paused[id];\\n    }\\n\\n    /**\\n     * @dev Gets the message that should be reverted with given a state it should be in.\\n     * @param state Boolean that an id should be in.\\n     */\\n    function __pausedMessage(bool state) private pure returns (string memory) {\\n        return state ? \\\"Pausable: not paused\\\" : \\\"Pausable: paused\\\";\\n    }\\n}\\n\",\"keccak256\":\"0x772d8b9b63e9b8e78f243a70988f1a1e1100272cf317259ea173829f7b9bdf0e\",\"license\":\"MIT\"},\"contracts/settings/platform/libraries/PlatformSettingsLib.sol\":{\"content\":\"// SPDX-License-Identifier: MIT\\npragma solidity ^0.8.0;\\n\\nimport { AppStorageLib } from \\\"../../../storage/app.sol\\\";\\nimport \\\"../names.sol\\\" as NAMES;\\nimport {\\n    RolesMods\\n} from \\\"../../../contexts2/access-control/roles/RolesMods.sol\\\";\\nimport { ADMIN, AUTHORIZED } from \\\"../../../shared/roles.sol\\\";\\nimport { RolesLib } from \\\"../../../contexts2/access-control/roles/RolesLib.sol\\\";\\n\\n// It defines a platform settings. It includes: value, min, and max values.\\nstruct PlatformSetting {\\n    uint256 value;\\n    uint256 min;\\n    uint256 max;\\n    bool exists;\\n}\\n\\n/**\\n * @notice Utility library of inline functions on the PlatformSetting struct.\\n *\\n * @author develop@teller.finance\\n */\\nlibrary PlatformSettingsLib {\\n    function s(bytes32 name) internal view returns (PlatformSetting storage) {\\n        return AppStorageLib.store().platformSettings[name];\\n    }\\n\\n    /**\\n     * @notice It gets the current \\\"RequiredSubmissionsPercentage\\\" setting's value\\n     * @return value_ the current value.\\n     */\\n    function getRequiredSubmissionsPercentageValue()\\n        internal\\n        view\\n        returns (uint256 value_)\\n    {\\n        value_ = s(NAMES.REQUIRED_SUBMISSIONS_PERCENTAGE).value;\\n    }\\n\\n    /**\\n     * @notice It gets the current \\\"MaximumTolerance\\\" setting's value\\n     * @return value_ the current value.\\n     */\\n    function getMaximumToleranceValue() internal view returns (uint256 value_) {\\n        value_ = s(NAMES.MAXIMUM_TOLERANCE).value;\\n    }\\n\\n    /**\\n     * @notice It gets the current \\\"ResponseExpiryLength\\\" setting's value\\n     * @return value_ the current value.\\n     */\\n    function getResponseExpiryLengthValue()\\n        internal\\n        view\\n        returns (uint256 value_)\\n    {\\n        value_ = s(NAMES.RESPONSE_EXPIRY_LENGTH).value;\\n    }\\n\\n    /**\\n     * @notice It gets the current \\\"SafetyInterval\\\" setting's value\\n     * @return value_ the current value.\\n     */\\n    function getSafetyIntervalValue() internal view returns (uint256 value_) {\\n        value_ = s(NAMES.SAFETY_INTERVAL).value;\\n    }\\n\\n    /**\\n     * @notice It gets the current \\\"TermsExpiryTime\\\" setting's value\\n     * @return value_ the current value.\\n     */\\n    function getTermsExpiryTimeValue() internal view returns (uint256 value_) {\\n        value_ = s(NAMES.TERMS_EXPIRY_TIME).value;\\n    }\\n\\n    /**\\n     * @notice It gets the current \\\"LiquidateRewardPercent\\\" setting's value\\n     * @return value_ the current value.\\n     */\\n    function getLiquidateRewardPercent()\\n        internal\\n        view\\n        returns (uint256 value_)\\n    {\\n        value_ = s(NAMES.LIQUIDATE_REWARD_PERCENT).value;\\n    }\\n\\n    /**\\n     * @notice It gets the current \\\"MaximumLoanDuration\\\" setting's value\\n     * @return value_ the current value.\\n     */\\n    function getMaximumLoanDurationValue()\\n        internal\\n        view\\n        returns (uint256 value_)\\n    {\\n        value_ = s(NAMES.MAXIMUM_LOAN_DURATION).value;\\n    }\\n\\n    /**\\n     * @notice It gets the current \\\"RequestLoanTermsRateLimit\\\" setting's value\\n     * @return value_ the current value.\\n     */\\n    function getRequestLoanTermsRateLimitValue()\\n        internal\\n        view\\n        returns (uint256 value_)\\n    {\\n        value_ = s(NAMES.REQUEST_LOAN_TERMS_RATE_LIMIT).value;\\n    }\\n\\n    /**\\n     * @notice It gets the current \\\"CollateralBuffer\\\" setting's value\\n     * @return value_ the current value.\\n     */\\n    function getCollateralBufferValue() internal view returns (uint256 value_) {\\n        value_ = s(NAMES.COLLATERAL_BUFFER).value;\\n    }\\n\\n    /**\\n     * @notice It gets the current \\\"OverCollateralizedBuffer\\\" setting's value\\n     * @return value_ the current value.\\n     */\\n    function getOverCollateralizedBufferValue()\\n        internal\\n        view\\n        returns (uint256 value_)\\n    {\\n        value_ = s(NAMES.OVER_COLLATERALIZED_BUFFER).value;\\n    }\\n}\\n\",\"keccak256\":\"0xbeef1937dc1ed1f6f78b80f0737f018565ab264184cf05ef54c3c28ecd55a09b\",\"license\":\"MIT\"},\"contracts/settings/platform/names.sol\":{\"content\":\"// SPDX-License-Identifier: MIT\\npragma solidity ^0.8.0;\\n\\n/**\\n        @dev The setting name for the required subsmission settings.\\n        @dev This is the minimum percentage of node responses that will be required by the platform to either take out a loan, and to claim accrued interest. If the number of node responses are less than the ones specified here, the loan or accrued interest claim request will be rejected by the platform\\n     */\\nbytes32 constant REQUIRED_SUBMISSIONS_PERCENTAGE = keccak256(\\n    \\\"RequiredSubmissionsPercentage\\\"\\n);\\n\\n/**\\n        @dev The setting name for the maximum tolerance settings.\\n        @dev This is the maximum tolerance for the values submitted (by nodes) when they are aggregated (average). It is used in the consensus mechanisms.\\n        @dev This is a percentage value with 2 decimal places.\\n            i.e. maximumTolerance of 325 => tolerance of 3.25% => 0.0325 of value\\n            i.e. maximumTolerance of 0 => It means all the values submitted must be equals.\\n        @dev The max value is 100% => 10000\\n     */\\nbytes32 constant MAXIMUM_TOLERANCE = keccak256(\\\"MaximumTolerance\\\");\\n/**\\n        @dev The setting name for the response expiry length settings.\\n        @dev This is the maximum time (in seconds) a node has to submit a response. After that time, the response is considered expired and will not be accepted by the protocol.\\n     */\\n\\nbytes32 constant RESPONSE_EXPIRY_LENGTH = keccak256(\\\"ResponseExpiryLength\\\");\\n\\n/**\\n        @dev The setting name for the safety interval settings.\\n        @dev This is the minimum time you need to wait (in seconds) between the last time you deposit collateral and you take out the loan.\\n        @dev It is used to avoid potential attacks using Flash Loans (AAVE) or Flash Swaps (Uniswap V2).\\n     */\\nbytes32 constant SAFETY_INTERVAL = keccak256(\\\"SafetyInterval\\\");\\n\\n/**\\n        @dev The setting name for the term expiry time settings.\\n        @dev This represents the time (in seconds) that loan terms will be available after requesting them.\\n        @dev After this time, the loan terms will expire and the borrower will need to request it again.\\n     */\\nbytes32 constant TERMS_EXPIRY_TIME = keccak256(\\\"TermsExpiryTime\\\");\\n\\n/**\\n        @dev The setting name for the liquidation reward percent setting.\\n        @dev It represents the percentage value (with 2 decimal places) for the MAX liquidation reward.\\n            i.e. an ETH liquidation price at 5% is stored as 500\\n     */\\nbytes32 constant LIQUIDATE_REWARD_PERCENT = keccak256(\\\"LiquidateRewardPercent\\\");\\n\\n/**\\n        @dev The setting name for the maximum loan duration settings.\\n        @dev The maximum loan duration setting is defined in seconds. Loans will not be given for timespans larger than the one specified here.\\n     */\\nbytes32 constant MAXIMUM_LOAN_DURATION = keccak256(\\\"MaximumLoanDuration\\\");\\n\\n/**\\n        @dev The setting name for the request loan terms rate limit settings.\\n        @dev The request loan terms rate limit setting is defined in seconds.\\n     */\\nbytes32 constant REQUEST_LOAN_TERMS_RATE_LIMIT = keccak256(\\n    \\\"RequestLoanTermsRateLimit\\\"\\n);\\n\\n/**\\n        @dev The setting name for the collateral buffer.\\n        @dev The collateral buffer is a safety buffer above the required collateral amount to liquidate a loan. It is required to ensure the loan does not get liquidated immediately after the loan is taken out if the value of the collateral asset deposited drops drastically.\\n        @dev It represents the percentage value (with 2 decimal places) of a collateral buffer.\\n            e.g.: collateral buffer at 100% is stored as 10000.\\n     */\\nbytes32 constant COLLATERAL_BUFFER = keccak256(\\\"CollateralBuffer\\\");\\n\\n/**\\n        @dev The setting name for the over collateralized buffer.\\n        @dev The over collateralized buffer is the minimum required collateral ratio in order for a loan to be taken out without an Escrow contract and for the funds to go to the borrower's EOA (external overridely owned account).\\n        @dev It represents the percentage value (with 2 decimal places) of a over collateralized buffer.\\n            e.g.: over collateralized buffer at 130% is stored as 13000.\\n     */\\nbytes32 constant OVER_COLLATERALIZED_BUFFER = keccak256(\\n    \\\"OverCollateralizedBuffer\\\"\\n);\\n\",\"keccak256\":\"0xacf6bcb8c4afd2f337a0161e8be64b016c1b350d336cd862245dd922fcd10f33\",\"license\":\"MIT\"},\"contracts/shared/interfaces/ICErc20.sol\":{\"content\":\"// SPDX-License-Identifier: MIT\\npragma solidity ^0.8.0;\\n\\nimport \\\"./IComptroller.sol\\\";\\n\\ninterface ICErc20 {\\n    /*** User Interface ***/\\n\\n    /**\\n        @notice The mint function transfers an asset into the protocol, which begins accumulating interest based on the current Supply Rate for the asset. The user receives a quantity of cTokens equal to the underlying tokens supplied, divided by the current Exchange Rate.\\n        @param mintAmount The amount of the asset to be supplied, in units of the underlying asset.\\n        @return 0 on success, otherwise an Error code\\n        @dev msg.sender The account which shall supply the asset, and own the minted cTokens.\\n        @dev Before supplying an asset, users must first approve the cToken to access their token balance.\\n     */\\n    function mint(uint256 mintAmount) external returns (uint256);\\n\\n    /**\\n        @notice The redeem function converts a specified quantity of cTokens into the underlying asset, and returns them to the user. The amount of underlying tokens received is equal to the quantity of cTokens redeemed, multiplied by the current Exchange Rate. The amount redeemed must be less than the user's Account Liquidity and the market's available liquidity.\\n        @param redeemTokens The number of cTokens to be redeemed.\\n        @return 0 on success, otherwise an Error code\\n        @dev msg.sender The account to which redeemed funds shall be transferred.\\n     */\\n    function redeem(uint256 redeemTokens) external returns (uint256);\\n\\n    /**\\n        @notice The redeem underlying function converts cTokens into a specified quantity of the underlying asset, and returns them to the user. The amount of cTokens redeemed is equal to the quantity of underlying tokens received, divided by the current Exchange Rate. The amount redeemed must be less than the user's Account Liquidity and the market's available liquidity.\\n        @param redeemAmount The amount of underlying to be redeemed.\\n        @return 0 on success, otherwise an Error code\\n        @dev msg.sender The account to which redeemed funds shall be transferred.\\n     */\\n    function redeemUnderlying(uint256 redeemAmount) external returns (uint256);\\n\\n    /**\\n        @notice The borrow function transfers an asset from the protocol to the user, and creates a borrow balance which begins accumulating interest based on the Borrow Rate for the asset. The amount borrowed must be less than the user's Account Liquidity and the market's available liquidity.\\n        @param borrowAmount The amount of the underlying asset to be borrowed.\\n        @return 0 on success, otherwise an Error code\\n        @dev msg.sender The account to which borrowed funds shall be transferred.\\n     */\\n    function borrow(uint256 borrowAmount) external returns (uint256);\\n\\n    /**\\n        @notice The repay function transfers an asset into the protocol, reducing the user's borrow balance.\\n        @param repayAmount The amount of the underlying borrowed asset to be repaid. A value of -1 (i.e. 2^256 - 1) can be used to repay the full amount.\\n        @return 0 on success, otherwise an Error code\\n        @dev msg.sender The account which borrowed the asset, and shall repay the borrow.\\n        @dev Before repaying an asset, users must first approve the cToken to access their token balance.\\n     */\\n    function repayBorrow(uint256 repayAmount) external returns (uint256);\\n\\n    /**\\n        @notice The repay function transfers an asset into the protocol, reducing the target user's borrow balance.\\n        @param borrower The account which borrowed the asset to be repaid.\\n        @param repayAmount The amount of the underlying borrowed asset to be repaid. A value of -1 (i.e. 2^256 - 1) can be used to repay the full amount.\\n        @return 0 on success, otherwise an Error code\\n        @dev msg.sender The account which shall repay the borrow.\\n        @dev Before repaying an asset, users must first approve the cToken to access their token balance.\\n     */\\n    function repayBorrowBehalf(address borrower, uint256 repayAmount)\\n        external\\n        returns (uint256);\\n\\n    /*** Admin Functions ***/\\n\\n    function _addReserves(uint256 addAmount) external returns (uint256);\\n\\n    /** End Admin Functions */\\n\\n    function underlying() external view returns (address);\\n\\n    /**\\n        @notice Each cToken is convertible into an ever increasing quantity of the underlying asset, as interest accrues in the market. The exchange rate between a cToken and the underlying asset is\\n        equal to: exchangeRate = (getCash() + totalBorrows() - totalReserves()) / totalSupply()\\n        @return The current exchange rate as an unsigned integer, scaled by 1e18.\\n     */\\n    function exchangeRateCurrent() external returns (uint256);\\n\\n    function exchangeRateStored() external view returns (uint256);\\n\\n    /**\\n     * @notice Applies accrued interest to total borrows and reserves\\n     * @dev This calculates interest accrued from the last checkpointed block\\n     *   up to the current block and writes new checkpoint to storage.\\n     */\\n    function accrueInterest() external;\\n\\n    function decimals() external view returns (uint8);\\n\\n    function balanceOf(address account) external view returns (uint256);\\n\\n    /**\\n        @notice The user's underlying balance, representing their assets in the protocol, is equal to the user's cToken balance multiplied by the Exchange Rate.\\n        @param account The account to get the underlying balance of.\\n        @return The amount of underlying currently owned by the account.\\n     */\\n    function balanceOfUnderlying(address account) external returns (uint256);\\n\\n    function comptroller() external view returns (IComptroller);\\n}\\n\",\"keccak256\":\"0xe64ba9069b31f8149d63171b24b9fdef3a587b0461c3d4c8ac5976519bcde332\",\"license\":\"MIT\"},\"contracts/shared/interfaces/IComptroller.sol\":{\"content\":\"// SPDX-License-Identifier: MIT\\npragma solidity ^0.8.0;\\n\\ninterface IComptroller {\\n    /*** Assets You Are In ***/\\n\\n    function enterMarkets(address[] calldata cTokens)\\n        external\\n        returns (uint256[] memory);\\n\\n    function exitMarket(address cToken) external returns (uint256);\\n\\n    /*** Policy Hooks ***/\\n\\n    function mintAllowed(\\n        address cToken,\\n        address minter,\\n        uint256 mintAmount\\n    ) external returns (uint256);\\n\\n    function mintVerify(\\n        address cToken,\\n        address minter,\\n        uint256 mintAmount,\\n        uint256 mintTokens\\n    ) external;\\n\\n    function redeemAllowed(\\n        address cToken,\\n        address redeemer,\\n        uint256 redeemTokens\\n    ) external returns (uint256);\\n\\n    function redeemVerify(\\n        address cToken,\\n        address redeemer,\\n        uint256 redeemAmount,\\n        uint256 redeemTokens\\n    ) external;\\n\\n    function borrowAllowed(\\n        address cToken,\\n        address borrower,\\n        uint256 borrowAmount\\n    ) external returns (uint256);\\n\\n    function borrowVerify(\\n        address cToken,\\n        address borrower,\\n        uint256 borrowAmount\\n    ) external;\\n\\n    function repayBorrowAllowed(\\n        address cToken,\\n        address payer,\\n        address borrower,\\n        uint256 repayAmount\\n    ) external returns (uint256);\\n\\n    function repayBorrowVerify(\\n        address cToken,\\n        address payer,\\n        address borrower,\\n        uint256 repayAmount,\\n        uint256 borrowerIndex\\n    ) external;\\n\\n    function liquidateBorrowAllowed(\\n        address cTokenBorrowed,\\n        address cTokenCollateral,\\n        address liquidator,\\n        address borrower,\\n        uint256 repayAmount\\n    ) external returns (uint256);\\n\\n    function liquidateBorrowVerify(\\n        address cTokenBorrowed,\\n        address cTokenCollateral,\\n        address liquidator,\\n        address borrower,\\n        uint256 repayAmount,\\n        uint256 seizeTokens\\n    ) external;\\n\\n    function seizeAllowed(\\n        address cTokenCollateral,\\n        address cTokenBorrowed,\\n        address liquidator,\\n        address borrower,\\n        uint256 seizeTokens\\n    ) external returns (uint256);\\n\\n    function seizeVerify(\\n        address cTokenCollateral,\\n        address cTokenBorrowed,\\n        address liquidator,\\n        address borrower,\\n        uint256 seizeTokens\\n    ) external;\\n\\n    function transferAllowed(\\n        address cToken,\\n        address src,\\n        address dst,\\n        uint256 transferTokens\\n    ) external returns (uint256);\\n\\n    function transferVerify(\\n        address cToken,\\n        address src,\\n        address dst,\\n        uint256 transferTokens\\n    ) external;\\n\\n    function claimComp(address holder) external;\\n\\n    function claimComp(address holder, address[] calldata cTokens) external;\\n\\n    function claimComp(\\n        address[] calldata holders,\\n        address[] calldata cTokens,\\n        bool borrowers,\\n        bool suppliers\\n    ) external;\\n\\n    /*** Liquidity/Liquidation Calculations ***/\\n\\n    function liquidateCalculateSeizeTokens(\\n        address cTokenBorrowed,\\n        address cTokenCollateral,\\n        uint256 repayAmount\\n    ) external view returns (uint256, uint256);\\n\\n    function getCompAddress() external view returns (address);\\n}\\n\",\"keccak256\":\"0x495d8bb746a524fea6ddc4286c955d7a0160718bf662456330a9d6d14b8a5da9\",\"license\":\"MIT\"},\"contracts/shared/interfaces/IUniswapV2Router.sol\":{\"content\":\"// SPDX-License-Identifier: MIT\\npragma solidity ^0.8.0;\\n\\n/**\\n    @notice This interface defines the different functions available for a UniswapV2Router.\\n    @author develop@teller.finance\\n */\\ninterface IUniswapV2Router {\\n    function factory() external pure returns (address);\\n\\n    function addLiquidity(\\n        address tokenA,\\n        address tokenB,\\n        uint256 amountADesired,\\n        uint256 amountBDesired,\\n        uint256 amountAMin,\\n        uint256 amountBMin,\\n        address to,\\n        uint256 deadline\\n    )\\n        external\\n        returns (\\n            uint256 amountA,\\n            uint256 amountB,\\n            uint256 liquidity\\n        );\\n\\n    function addLiquidityETH(\\n        address token,\\n        uint256 amountTokenDesired,\\n        uint256 amountTokenMin,\\n        uint256 amountETHMin,\\n        address to,\\n        uint256 deadline\\n    )\\n        external\\n        payable\\n        returns (\\n            uint256 amountToken,\\n            uint256 amountETH,\\n            uint256 liquidity\\n        );\\n\\n    function removeLiquidity(\\n        address tokenA,\\n        address tokenB,\\n        uint256 liquidity,\\n        uint256 amountAMin,\\n        uint256 amountBMin,\\n        address to,\\n        uint256 deadline\\n    ) external returns (uint256 amountA, uint256 amountB);\\n\\n    function removeLiquidityETH(\\n        address token,\\n        uint256 liquidity,\\n        uint256 amountTokenMin,\\n        uint256 amountETHMin,\\n        address to,\\n        uint256 deadline\\n    ) external returns (uint256 amountToken, uint256 amountETH);\\n\\n    function removeLiquidityWithPermit(\\n        address tokenA,\\n        address tokenB,\\n        uint256 liquidity,\\n        uint256 amountAMin,\\n        uint256 amountBMin,\\n        address to,\\n        uint256 deadline,\\n        bool approveMax,\\n        uint8 v,\\n        bytes32 r,\\n        bytes32 s\\n    ) external returns (uint256 amountA, uint256 amountB);\\n\\n    function removeLiquidityETHWithPermit(\\n        address token,\\n        uint256 liquidity,\\n        uint256 amountTokenMin,\\n        uint256 amountETHMin,\\n        address to,\\n        uint256 deadline,\\n        bool approveMax,\\n        uint8 v,\\n        bytes32 r,\\n        bytes32 s\\n    ) external returns (uint256 amountToken, uint256 amountETH);\\n\\n    function quote(\\n        uint256 amountA,\\n        uint256 reserveA,\\n        uint256 reserveB\\n    ) external pure returns (uint256 amountB);\\n\\n    function getAmountOut(\\n        uint256 amountIn,\\n        uint256 reserveIn,\\n        uint256 reserveOut\\n    ) external pure returns (uint256 amountOut);\\n\\n    function getAmountIn(\\n        uint256 amountOut,\\n        uint256 reserveIn,\\n        uint256 reserveOut\\n    ) external pure returns (uint256 amountIn);\\n\\n    function getAmountsOut(uint256 amountIn, address[] calldata path)\\n        external\\n        view\\n        returns (uint256[] memory amounts);\\n\\n    function getAmountsIn(uint256 amountOut, address[] calldata path)\\n        external\\n        view\\n        returns (uint256[] memory amounts);\\n\\n    /**\\n        @notice It returns the address of the canonical WETH address;\\n    */\\n    function WETH() external pure returns (address);\\n\\n    /**\\n        @notice Swaps an exact amount of input tokens for as many output tokens as possible, along the route determined by the path. The first element of path is the input token, the last is the output token, and any intermediate elements represent intermediate pairs to trade through (if, for example, a direct pair does not exist).\\n        @param amountIn The amount of input tokens to send.\\n        @param amountOutMin The minimum amount of output tokens that must be received for the transaction not to revert.\\n        @param path An array of token addresses. path.length must be >= 2. Pools for each consecutive pair of addresses must exist and have liquidity.\\n        @param to Recipient of the output tokens.\\n        @param deadline Unix timestamp after which the transaction will revert.\\n        @return amounts The input token amount and all subsequent output token amounts.\\n        @dev msg.sender should have already given the router an allowance of at least amountIn on the input token.\\n     */\\n    function swapExactTokensForTokens(\\n        uint256 amountIn,\\n        uint256 amountOutMin,\\n        address[] calldata path,\\n        address to,\\n        uint256 deadline\\n    ) external returns (uint256[] memory amounts);\\n\\n    /**\\n        @notice Swaps an exact amount of tokens for as much ETH as possible, along the route determined by the path. The first element of path is the input token, the last must be WETH, and any intermediate elements represent intermediate pairs to trade through (if, for example, a direct pair does not exist).\\n        @param amountIn The amount of input tokens to send.\\n        @param amountOutMin The minimum amount of output tokens that must be received for the transaction not to revert.\\n        @param path An array of token addresses. path.length must be >= 2. Pools for each consecutive pair of addresses must exist and have liquidity.\\n        @param to Recipient of the ETH.\\n        @param deadline Unix timestamp after which the transaction will revert.\\n        @return amounts The input token amount and all subsequent output token amounts.\\n        @dev If the to address is a smart contract, it must have the ability to receive ETH.\\n     */\\n    function swapExactTokensForETH(\\n        uint256 amountIn,\\n        uint256 amountOutMin,\\n        address[] calldata path,\\n        address to,\\n        uint256 deadline\\n    ) external returns (uint256[] memory amounts);\\n\\n    /**\\n        @notice Swaps an exact amount of ETH for as many output tokens as possible, along the route determined by the path. The first element of path must be WETH, the last is the output token, and any intermediate elements represent intermediate pairs to trade through (if, for example, a direct pair does not exist).\\n        @param amountOutMin The minimum amount of output tokens that must be received for the transaction not to revert.\\n        @param path An array of token addresses. path.length must be >= 2. Pools for each consecutive pair of addresses must exist and have liquidity.\\n        @param to Recipient of the output tokens.\\n        @param deadline Unix timestamp after which the transaction will revert.\\n        @return amounts The input token amount and all subsequent output token amounts.\\n     */\\n    function swapExactETHForTokens(\\n        uint256 amountOutMin,\\n        address[] calldata path,\\n        address to,\\n        uint256 deadline\\n    ) external payable returns (uint256[] memory amounts);\\n\\n    function swapTokensForExactTokens(\\n        uint256 amountOut,\\n        uint256 amountInMax,\\n        address[] calldata path,\\n        address to,\\n        uint256 deadline\\n    ) external returns (uint256[] memory amounts);\\n\\n    function swapTokensForExactETH(\\n        uint256 amountOut,\\n        uint256 amountInMax,\\n        address[] calldata path,\\n        address to,\\n        uint256 deadline\\n    ) external returns (uint256[] memory amounts);\\n\\n    function swapETHForExactTokens(\\n        uint256 amountOut,\\n        address[] calldata path,\\n        address to,\\n        uint256 deadline\\n    ) external payable returns (uint256[] memory amounts);\\n}\\n\",\"keccak256\":\"0x208769886b3db8f03ef1fa26f1caee189038dfc744b9a499402fc4e4c0090c38\",\"license\":\"MIT\"},\"contracts/shared/libraries/CacheLib.sol\":{\"content\":\"// SPDX-License-Identifier: MIT\\npragma solidity ^0.8.0;\\n\\nenum CacheType { Address, Uint, Int, Byte, Bool }\\n\\n/**\\n * @notice This struct manages the cache of the library instance.\\n * @param addresses A mapping of address values mapped to cache keys in bytes.\\n * @param uints A mapping of uint values mapped to cache keys names in bytes.\\n * @param ints A mapping of int values mapped to cache keys names in bytes.\\n * @param bites A mapping of bytes values mapped to cache keys names in bytes.\\n * @param bools A mapping of bool values mapped to cache keys names in bytes.\\n */\\nstruct Cache {\\n    // Mapping of cache keys names to address values.\\n    mapping(bytes32 => address) addresses;\\n    // Mapping of cache keys names to uint256 values.\\n    mapping(bytes32 => uint256) uints;\\n    // Mapping of cache keys names to int256 values.\\n    mapping(bytes32 => int256) ints;\\n    // Mapping of cache keys names to bytes32 values.\\n    mapping(bytes32 => bytes32) bites;\\n    // Mapping of cache keys names to bool values.\\n    mapping(bytes32 => bool) bools;\\n}\\n\\nlibrary CacheLib {\\n    // The constant for the initialization check\\n    bytes32 private constant INITIALIZED = keccak256(\\\"Initialized\\\");\\n\\n    /**\\n     * @notice Initializes the cache instance.\\n     * @param cache The current cache\\n     */\\n    function initialize(Cache storage cache) internal {\\n        requireNotExists(cache);\\n        cache.bools[INITIALIZED] = true;\\n    }\\n\\n    /**\\n     * @notice Checks whether the current cache does not, throwing an error if it does.\\n     * @param cache The current cache\\n     */\\n    function requireNotExists(Cache storage cache) internal view {\\n        require(!exists(cache), \\\"CACHE_ALREADY_EXISTS\\\");\\n    }\\n\\n    /**\\n     * @notice Checks whether the current cache exists, throwing an error if the cache does not.\\n     * @param cache The current cache\\n     */\\n    function requireExists(Cache storage cache) internal view {\\n        require(exists(cache), \\\"CACHE_DOES_NOT_EXIST\\\");\\n    }\\n\\n    /**\\n     * @notice Tests whether the current cache exists or not.\\n     * @param cache The current cache.\\n     * @return bool True if the cache exists.\\n     */\\n    function exists(Cache storage cache) internal view returns (bool) {\\n        return cache.bools[INITIALIZED];\\n    }\\n\\n    function update(\\n        Cache storage cache,\\n        bytes32 key,\\n        bytes32 value,\\n        CacheType cacheType\\n    ) internal {\\n        requireExists(cache);\\n\\n        assembly {\\n            mstore(0, value)\\n        }\\n        if (cacheType == CacheType.Address) {\\n            address addr;\\n            assembly {\\n                addr := mload(0)\\n            }\\n            cache.addresses[key] = addr;\\n        } else if (cacheType == CacheType.Uint) {\\n            uint256 ui;\\n            assembly {\\n                ui := mload(0)\\n            }\\n            cache.uints[key] = ui;\\n        } else if (cacheType == CacheType.Int) {\\n            int256 i;\\n            assembly {\\n                i := mload(0)\\n            }\\n            cache.ints[key] = i;\\n        } else if (cacheType == CacheType.Byte) {\\n            cache.bites[key] = value;\\n        } else if (cacheType == CacheType.Bool) {\\n            bool b;\\n            assembly {\\n                b := mload(0)\\n            }\\n            cache.bools[key] = b;\\n        }\\n    }\\n\\n    /**\\n     */\\n    function clearCache(\\n        Cache storage cache,\\n        bytes32[5] memory keysToClear,\\n        CacheType[5] memory keyTypes\\n    ) internal {\\n        requireExists(cache);\\n        require(\\n            keysToClear.length == keyTypes.length,\\n            \\\"ARRAY_LENGTHS_MISMATCH\\\"\\n        );\\n        for (uint256 i; i <= keysToClear.length; i++) {\\n            if (keyTypes[i] == CacheType.Address) {\\n                delete cache.addresses[keysToClear[i]];\\n            } else if (keyTypes[i] == CacheType.Uint) {\\n                delete cache.uints[keysToClear[i]];\\n            } else if (keyTypes[i] == CacheType.Int) {\\n                delete cache.ints[keysToClear[i]];\\n            } else if (keyTypes[i] == CacheType.Byte) {\\n                delete cache.bites[keysToClear[i]];\\n            } else if (keyTypes[i] == CacheType.Bool) {\\n                delete cache.bools[keysToClear[i]];\\n            }\\n        }\\n    }\\n}\\n\",\"keccak256\":\"0x4d9045666e86d675f7bd48202f9a77d0675fa20b2184131ad369710ac5eb3203\",\"license\":\"MIT\"},\"contracts/shared/libraries/CompoundLib.sol\":{\"content\":\"// SPDX-License-Identifier: MIT\\npragma solidity ^0.8.0;\\n\\n// Interfaces\\nimport { ICErc20 } from \\\"../interfaces/ICErc20.sol\\\";\\n\\n// Storage\\nimport { AppStorageLib } from \\\"../../storage/app.sol\\\";\\n\\n/**\\n * @notice Utility library to calculate the value of a Compound cToken and its underlying asset.\\n *\\n * @author develop@teller.finance\\n */\\nlibrary CompoundLib {\\n    /**\\n     * @dev Compounds exchange rate is scaled by 18 decimals (10^18)\\n     */\\n    uint256 internal constant EXCHANGE_RATE_SCALE = 1e18;\\n\\n    function exchangeRate(address cToken) internal view returns (uint256) {\\n        return ICErc20(cToken).exchangeRateStored();\\n    }\\n\\n    /**\\n     * @notice Takes an amount of the Compound asset and calculates the underlying amount using the stored exchange rate.\\n     * @param cToken Address of the Compound token.\\n     * @param cTokenAmount Amount of the Compound asset.\\n     * @return value of the Compound token amount in underlying tokens.\\n     */\\n    function valueInUnderlying(address cToken, uint256 cTokenAmount)\\n        internal\\n        view\\n        returns (uint256)\\n    {\\n        return\\n            (cTokenAmount * ICErc20(cToken).exchangeRateStored()) /\\n            EXCHANGE_RATE_SCALE;\\n    }\\n\\n    /**\\n     * @notice Takes an amount of the underlying Compound asset and calculates the cToken amount using the stored exchange rate.\\n     * @param cToken Address of the Compound token.\\n     * @param underlyingAmount Amount of the underlying asset for the Compound token.\\n     * @return value of the underlying amount in Compound tokens.\\n     */\\n    function valueOfUnderlying(address cToken, uint256 underlyingAmount)\\n        internal\\n        view\\n        returns (uint256)\\n    {\\n        return\\n            (underlyingAmount * EXCHANGE_RATE_SCALE) /\\n            ICErc20(cToken).exchangeRateStored();\\n    }\\n\\n    function isCompoundToken(address token) internal view returns (bool) {\\n        return AppStorageLib.store().cTokenRegistry[token];\\n    }\\n\\n    /**\\n     * @notice Tests the {underlying} function on the cToken and assumes its WETH otherwise.\\n     * @notice CETH is the only Compound token that does not support the {underlying} function.\\n     */\\n    function getUnderlying(address cToken) internal view returns (address) {\\n        (bool success, bytes memory data) =\\n            cToken.staticcall(abi.encode(ICErc20.underlying.selector));\\n        if (success) {\\n            return abi.decode(data, (address));\\n        }\\n\\n        return AppStorageLib.store().assetAddresses[\\\"WETH\\\"];\\n    }\\n}\\n\",\"keccak256\":\"0x14e96659912e9d03ae30732faca8e3d617f3e756a215d948cabedab6642c1465\",\"license\":\"MIT\"},\"contracts/shared/libraries/NumbersLib.sol\":{\"content\":\"// SPDX-License-Identifier: MIT\\npragma solidity ^0.8.0;\\n\\n/**\\n * @dev Utility library for uint256 numbers\\n *\\n * @author develop@teller.finance\\n */\\nlibrary NumbersLib {\\n    /**\\n     * @dev It represents 100% with 2 decimal places.\\n     */\\n    uint256 internal constant ONE_HUNDRED_PERCENT = 10000;\\n\\n    /**\\n     * @notice Returns a percentage value of a number.\\n     * @param self The number to get a percentage of.\\n     * @param percentage The percentage value to calculate with 2 decimal places (10000 = 100%).\\n     */\\n    function percent(uint256 self, uint16 percentage)\\n        internal\\n        pure\\n        returns (uint256)\\n    {\\n        return (self * uint256(percentage)) / ONE_HUNDRED_PERCENT;\\n    }\\n\\n    function percent(int256 self, uint256 percentage)\\n        internal\\n        pure\\n        returns (int256)\\n    {\\n        return (self * int256(percentage)) / int256(ONE_HUNDRED_PERCENT);\\n    }\\n\\n    function abs(int256 self) internal pure returns (uint256) {\\n        return self >= 0 ? uint256(self) : uint256(-1 * self);\\n    }\\n\\n    /**\\n     * @notice Returns a ratio percentage of {num1} to {num2}.\\n     * @param num1 The number used to get the ratio for.\\n     * @param num2 The number used to get the ratio from.\\n     * @return Ratio percentage with 2 decimal places (10000 = 100%).\\n     */\\n    function ratioOf(uint256 num1, uint256 num2)\\n        internal\\n        pure\\n        returns (uint16)\\n    {\\n        return num2 == 0 ? 0 : uint16((num1 * ONE_HUNDRED_PERCENT) / num2);\\n    }\\n}\\n\",\"keccak256\":\"0x998aefaf4edbe7b0cb41032750b65b3822b4bec0fec3ee5b396f8fb73b5e9e03\",\"license\":\"MIT\"},\"contracts/shared/libraries/NumbersList.sol\":{\"content\":\"// SPDX-License-Identifier: MIT\\npragma solidity ^0.8.0;\\n\\nimport \\\"@openzeppelin/contracts/utils/math/SafeMath.sol\\\";\\nimport \\\"./NumbersLib.sol\\\";\\n\\n/**\\n * @dev Utility library of inline functions on NumbersList.Values\\n *\\n * @author develop@teller.finance\\n */\\nlibrary NumbersList {\\n    using NumbersLib for uint256;\\n\\n    // Holds values to calculate the threshold of a list of numbers\\n    struct Values {\\n        uint256 count; // The total number of numbers added\\n        uint256 max; // The maximum number that was added\\n        uint256 min; // The minimum number that was added\\n        uint256 sum; // The total sum of the numbers that were added\\n    }\\n\\n    /**\\n     * @dev Add to the sum while keeping track of min and max values\\n     * @param self The Value this function was called on\\n     * @param newValue Number to increment sum by\\n     */\\n    function addValue(Values memory self, uint256 newValue) internal pure {\\n        if (self.max < newValue) {\\n            self.max = newValue;\\n        }\\n        if (self.min > newValue || self.count == 0) {\\n            self.min = newValue;\\n        }\\n        self.sum = self.sum + (newValue);\\n        self.count = self.count + 1;\\n    }\\n\\n    /**\\n     * @param self The Value this function was called on\\n     * @return the number of times the sum has updated\\n     */\\n    function valuesCount(Values memory self) internal pure returns (uint256) {\\n        return self.count;\\n    }\\n\\n    /**\\n     * @dev Checks if the sum has been changed\\n     * @param self The Value this function was called on\\n     * @return boolean\\n     */\\n    function isEmpty(Values memory self) internal pure returns (bool) {\\n        return valuesCount(self) == 0;\\n    }\\n\\n    /**\\n     * @param self The Value this function was called on\\n     * @return the average number that was used to calculate the sum\\n     */\\n    function getAverage(Values memory self) internal pure returns (uint256) {\\n        return isEmpty(self) ? 0 : self.sum / (valuesCount(self));\\n    }\\n\\n    /**\\n     * @dev Checks if the min and max numbers are within the acceptable tolerance\\n     * @param self The Value this function was called on\\n     * @param tolerancePercentage Acceptable tolerance percentage as a whole number\\n     * The percentage should be entered with 2 decimal places. e.g. 2.5% should be entered as 250.\\n     * @return boolean\\n     */\\n    function isWithinTolerance(Values memory self, uint16 tolerancePercentage)\\n        internal\\n        pure\\n        returns (bool)\\n    {\\n        if (isEmpty(self)) {\\n            return false;\\n        }\\n        uint256 average = getAverage(self);\\n        uint256 toleranceAmount = average.percent(tolerancePercentage);\\n\\n        uint256 minTolerance = average - toleranceAmount;\\n        if (self.min < minTolerance) {\\n            return false;\\n        }\\n\\n        uint256 maxTolerance = average + toleranceAmount;\\n        if (self.max > maxTolerance) {\\n            return false;\\n        }\\n        return true;\\n    }\\n}\\n\",\"keccak256\":\"0xfd64d3765eb776aaebf1c6eeb8af33ad4a9bd89bad676300542086c1fefd44da\",\"license\":\"MIT\"},\"contracts/shared/proxy/beacon/InitializeableBeaconProxy.sol\":{\"content\":\"// SPDX-License-Identifier: MIT\\npragma solidity ^0.8.0;\\n\\nimport \\\"@openzeppelin/contracts/proxy/beacon/IBeacon.sol\\\";\\nimport \\\"@openzeppelin/contracts/proxy/Proxy.sol\\\";\\nimport \\\"@openzeppelin/contracts/utils/Address.sol\\\";\\n\\n/**\\n * @dev This contract implements a proxy that gets the implementation address for each call from a {UpgradeableBeacon}.\\n *\\n * The beacon address is stored in storage slot `uint256(keccak256('eip1967.proxy.beacon')) - 1`, so that it doesn't\\n * conflict with the storage layout of the implementation behind the proxy.\\n *\\n * _Available since v3.4._\\n */\\ncontract InitializeableBeaconProxy is Proxy {\\n    /**\\n     * @dev The storage slot of the UpgradeableBeacon contract which defines the implementation for this proxy.\\n     * This is bytes32(uint256(keccak256('eip1967.proxy.beacon')) - 1)) and is validated in the constructor.\\n     */\\n    bytes32 private constant _BEACON_SLOT =\\n        0xa3f0ad74e5423aebfd80d3ef4346578335a9a72aeaee59ff6cb3582b35133d50;\\n\\n    /**\\n     * @dev Initializes the proxy with `beacon`.\\n     *\\n     * If `data` is nonempty, it's used as data in a delegate call to the implementation returned by the beacon. This\\n     * will typically be an encoded function call, and allows initializating the storage of the proxy like a Solidity\\n     * constructor.\\n     *\\n     * Requirements:\\n     *\\n     * - `beacon` must be a contract with the interface {IBeacon}.\\n     */\\n    function initialize(address beacon, bytes memory data) external payable {\\n        assert(\\n            _BEACON_SLOT ==\\n                bytes32(uint256(keccak256(\\\"eip1967.proxy.beacon\\\")) - 1)\\n        );\\n        require(_beacon() == address(0), \\\"Beacon: already initialized\\\");\\n\\n        _setBeacon(beacon, data);\\n    }\\n\\n    /**\\n     * @dev Returns the current beacon address.\\n     */\\n    function _beacon() internal view virtual returns (address beacon) {\\n        bytes32 slot = _BEACON_SLOT;\\n        // solhint-disable-next-line no-inline-assembly\\n        assembly {\\n            beacon := sload(slot)\\n        }\\n    }\\n\\n    /**\\n     * @dev Returns the current implementation address of the associated beacon.\\n     */\\n    function _implementation()\\n        internal\\n        view\\n        virtual\\n        override\\n        returns (address)\\n    {\\n        return IBeacon(_beacon()).implementation();\\n    }\\n\\n    /**\\n     * @dev Changes the proxy to use a new beacon.\\n     *\\n     * If `data` is nonempty, it's used as data in a delegate call to the implementation returned by the beacon.\\n     *\\n     * Requirements:\\n     *\\n     * - `beacon` must be a contract.\\n     * - The implementation returned by `beacon` must be a contract.\\n     */\\n    function _setBeacon(address beacon, bytes memory data) internal virtual {\\n        bytes32 slot = _BEACON_SLOT;\\n\\n        // solhint-disable-next-line no-inline-assembly\\n        assembly {\\n            sstore(slot, beacon)\\n        }\\n\\n        if (data.length > 0) {\\n            Address.functionDelegateCall(\\n                _implementation(),\\n                data,\\n                \\\"BeaconProxy: function call failed\\\"\\n            );\\n        }\\n    }\\n\\n    receive() external payable override {\\n        // Needed to receive ETH without data\\n        // OZ Proxy contract calls the _fallback() on receive and tries to delegatecall which fails\\n    }\\n}\\n\",\"keccak256\":\"0x48aefbbc0c51b106f4d69580fa802dc6c5d7573fee24cb7d08f5370d79a2e6f2\",\"license\":\"MIT\"},\"contracts/shared/proxy/beacon/UpgradeableBeaconFactory.sol\":{\"content\":\"// SPDX-License-Identifier: MIT\\npragma solidity ^0.8.0;\\n\\nimport \\\"@openzeppelin/contracts/proxy/Clones.sol\\\";\\nimport \\\"@openzeppelin/contracts/proxy/beacon/IBeacon.sol\\\";\\nimport \\\"@openzeppelin/contracts/access/Ownable.sol\\\";\\nimport \\\"@openzeppelin/contracts/utils/Address.sol\\\";\\nimport \\\"./InitializeableBeaconProxy.sol\\\";\\n\\n/**\\n * @dev This contract is used in conjunction with one or more instances of {BeaconProxy} to determine their\\n * implementation contract, which is where they will delegate all function calls.\\n *\\n * An owner is able to change the implementation the beacon points to, thus upgrading the proxies that use this beacon.\\n */\\ncontract UpgradeableBeaconFactory is IBeacon, Ownable {\\n    address private _implementation;\\n    InitializeableBeaconProxy public proxyAddress;\\n\\n    /**\\n     * @dev Emitted when the implementation returned by the beacon is changed.\\n     */\\n    event Upgraded(address indexed implementation);\\n\\n    /**\\n     * @dev Sets the address of the initial implementation, and the deployer account as the owner who can upgrade the\\n     * beacon.\\n     */\\n    constructor(address payable proxyAddress_, address implementation_) {\\n        proxyAddress = InitializeableBeaconProxy(proxyAddress_);\\n        _setImplementation(implementation_);\\n    }\\n\\n    /**\\n     * @dev Returns the current implementation address.\\n     */\\n    function implementation() public view virtual override returns (address) {\\n        return _implementation;\\n    }\\n\\n    function cloneProxy(bytes memory initData)\\n        external\\n        returns (address payable proxy_)\\n    {\\n        proxy_ = payable(Clones.clone(address(proxyAddress)));\\n        InitializeableBeaconProxy(proxy_).initialize(address(this), initData);\\n    }\\n\\n    /**\\n     * @dev Upgrades the beacon to a new implementation.\\n     *\\n     * Emits an {Upgraded} event.\\n     *\\n     * Requirements:\\n     *\\n     * - msg.sender must be the owner of the contract.\\n     * - `newImplementation` must be a contract.\\n     */\\n    function upgradeTo(address newImplementation) public virtual onlyOwner {\\n        _setImplementation(newImplementation);\\n        emit Upgraded(newImplementation);\\n    }\\n\\n    /**\\n     * @dev Sets the implementation contract address for this beacon\\n     *\\n     * Requirements:\\n     *\\n     * - `newImplementation` must be a contract.\\n     */\\n    function _setImplementation(address newImplementation) private {\\n        require(\\n            Address.isContract(newImplementation),\\n            \\\"UpgradeableBeacon: implementation is not a contract\\\"\\n        );\\n        _implementation = newImplementation;\\n    }\\n}\\n\",\"keccak256\":\"0x8919fcdfb49018474c872c462c11b21a50faa7ab80f0162abd6b657cbbc5d04c\",\"license\":\"MIT\"},\"contracts/shared/roles.sol\":{\"content\":\"// SPDX-License-Identifier: MIT\\npragma solidity ^0.8.0;\\n\\nbytes32 constant ADMIN = keccak256(\\\"ADMIN\\\");\\nbytes32 constant PAUSER = keccak256(\\\"PAUSER\\\");\\nbytes32 constant AUTHORIZED = keccak256(\\\"AUTHORIZED\\\");\\n\",\"keccak256\":\"0x0888cf40ea019be9f0ee94cb8af1e030454c28f8c6512db9d89ed027fe21f18f\",\"license\":\"MIT\"},\"contracts/storage/app.sol\":{\"content\":\"// SPDX-License-Identifier: MIT\\npragma solidity ^0.8.0;\\n\\n// Contracts\\nimport { TellerNFT } from \\\"../nft/TellerNFT.sol\\\";\\n\\n// Interfaces\\n\\n// Libraries\\nimport {\\n    PlatformSetting\\n} from \\\"../settings/platform/libraries/PlatformSettingsLib.sol\\\";\\nimport { Cache } from \\\"../shared/libraries/CacheLib.sol\\\";\\nimport {\\n    UpgradeableBeaconFactory\\n} from \\\"../shared/proxy/beacon/UpgradeableBeaconFactory.sol\\\";\\n\\nstruct AppStorage {\\n    bool initialized;\\n    bool platformRestricted;\\n    mapping(bytes32 => bool) paused;\\n    mapping(bytes32 => PlatformSetting) platformSettings;\\n    mapping(address => Cache) assetSettings;\\n    mapping(string => address) assetAddresses;\\n    mapping(address => bool) cTokenRegistry;\\n    TellerNFT nft;\\n    UpgradeableBeaconFactory loansEscrowBeacon;\\n    UpgradeableBeaconFactory collateralEscrowBeacon;\\n    address nftLiquidationController;\\n    UpgradeableBeaconFactory tTokenBeacon;\\n}\\n\\nlibrary AppStorageLib {\\n    function store() internal pure returns (AppStorage storage s) {\\n        assembly {\\n            s.slot := 0\\n        }\\n    }\\n}\\n\",\"keccak256\":\"0xade1dda8163fc39658e5f6929b662187584b29cce47e9cb0915fc0d1832fb4f7\",\"license\":\"MIT\"},\"contracts/storage/market.sol\":{\"content\":\"// SPDX-License-Identifier: MIT\\npragma solidity ^0.8.0;\\n\\n// Libraries\\nimport { Counters } from \\\"@openzeppelin/contracts/utils/Counters.sol\\\";\\nimport {\\n    EnumerableSet\\n} from \\\"@openzeppelin/contracts/utils/structs/EnumerableSet.sol\\\";\\nimport \\\"../shared/libraries/NumbersList.sol\\\";\\n\\n// Interfaces\\nimport { ILoansEscrow } from \\\"../escrow/escrow/ILoansEscrow.sol\\\";\\nimport { ICollateralEscrow } from \\\"../market/collateral/ICollateralEscrow.sol\\\";\\nimport { ITToken } from \\\"../lending/ttoken/ITToken.sol\\\";\\n\\nstruct LoanTerms {\\n    // Max size the loan max be taken out with\\n    uint256 maxLoanAmount;\\n    // The timestamp at which the loan terms expire, after which if the loan is not yet active, cannot be taken out\\n    uint32 termsExpiry;\\n}\\n\\nenum LoanStatus { NonExistent, TermsSet, Active, Closed, Liquidated }\\n\\nstruct Loan {\\n    // Account that owns the loan\\n    address payable borrower;\\n    // The asset lent out for the loan\\n    address lendingToken;\\n    // The token used as collateral for the loan\\n    address collateralToken;\\n    // The total amount of the loan size taken out\\n    uint256 borrowedAmount;\\n    // The id of the loan for internal tracking\\n    uint128 id;\\n    // How long in seconds until the loan must be repaid\\n    uint32 duration;\\n    // The timestamp at which the loan became active\\n    uint32 loanStartTime;\\n    // The interest rate given for repaying the loan\\n    uint16 interestRate;\\n    // Ratio used to determine amount of collateral required based on the collateral asset price\\n    uint16 collateralRatio;\\n    // The status of the loan\\n    LoanStatus status;\\n}\\n\\nstruct LoanDebt {\\n    // The total amount of the loan taken out by the borrower, reduces on loan repayments\\n    uint256 principalOwed;\\n    // The total interest owed by the borrower for the loan, reduces on loan repayments\\n    uint256 interestOwed;\\n}\\n\\n/**\\n * @notice Borrower request object to take out a loan\\n * @param borrower The wallet address of the borrower\\n * @param assetAddress The address of the asset for the requested loan\\n * @param amount The amount of tokens requested by the borrower for the loan\\n * @param requestNonce The nonce of the borrower wallet address required for authentication\\n * @param duration The length of time in seconds that the loan has been requested for\\n * @param requestTime The timestamp at which the loan was requested\\n */\\nstruct LoanRequest {\\n    address payable borrower;\\n    address assetAddress;\\n    uint256 amount;\\n    uint32 requestNonce;\\n    uint32 duration;\\n    uint32 requestTime;\\n}\\n\\n/**\\n * @notice Borrower response object to take out a loan\\n * @param signer The wallet address of the signer validating the interest request of the lender\\n * @param assetAddress The address of the asset for the requested loan\\n * @param maxLoanAmount The largest amount of tokens that can be taken out in the loan by the borrower\\n * @param responseTime The timestamp at which the response was sent\\n * @param interestRate The signed interest rate generated by the signer's Credit Risk Algorithm (CRA)\\n * @param collateralRatio The ratio of collateral to loan amount that is generated by the signer's Credit Risk Algorithm (CRA)\\n * @param signature The signature generated by the signer in the format of the above Signature struct\\n */\\nstruct LoanResponse {\\n    address signer;\\n    address assetAddress;\\n    uint256 maxLoanAmount;\\n    uint32 responseTime;\\n    uint16 interestRate;\\n    uint16 collateralRatio;\\n    Signature signature;\\n}\\n\\n/**\\n * @notice Represents a user signature\\n * @param v The recovery identifier represented by the last byte of a ECDSA signature as an int\\n * @param r The random point x-coordinate of the signature respresented by the first 32 bytes of the generated ECDSA signature\\n * @param s The signature proof represented by the second 32 bytes of the generated ECDSA signature\\n */\\nstruct Signature {\\n    uint8 v;\\n    bytes32 r;\\n    bytes32 s;\\n}\\n\\nstruct MarketStorage {\\n    // Holds the index for the next loan ID\\n    Counters.Counter loanIDCounter;\\n    // Maps loanIDs to loan data\\n    mapping(uint256 => Loan) loans;\\n    // Maps loanID to loan debt (total owed left)\\n    mapping(uint256 => LoanDebt) loanDebt;\\n    // Maps loanID to loan terms\\n    mapping(uint256 => LoanTerms) loanTerms;\\n    // Maps loanIDs to escrow address to list of held tokens\\n    mapping(uint256 => ILoansEscrow) loanEscrows;\\n    // Maps loanIDs to list of tokens owned by a loan escrow\\n    mapping(uint256 => EnumerableSet.AddressSet) escrowTokens;\\n    // Maps collateral token address to a LoanCollateralEscrow that hold collateral funds\\n    mapping(address => ICollateralEscrow) collateralEscrows;\\n    // Maps accounts to owned loan IDs\\n    mapping(address => uint128[]) borrowerLoans;\\n    // Maps lending token to overall amount of interest collected from loans\\n    mapping(address => ITToken) tTokens;\\n    // Maps lending token to list of signer addresses who are only ones allowed to verify loan requests\\n    mapping(address => EnumerableSet.AddressSet) signers;\\n    // Maps lending token to list of allowed collateral tokens\\n    mapping(address => EnumerableSet.AddressSet) collateralTokens;\\n}\\n\\nbytes32 constant MARKET_STORAGE_POS = keccak256(\\\"teller.market.storage\\\");\\n\\nlibrary MarketStorageLib {\\n    function store() internal pure returns (MarketStorage storage s) {\\n        bytes32 pos = MARKET_STORAGE_POS;\\n        assembly {\\n            s.slot := pos\\n        }\\n    }\\n}\\n\",\"keccak256\":\"0x5f3fdba19ae8040e2007affe422527b7dca58ba424df33ba4dd9cb08d83d00de\",\"license\":\"MIT\"},\"contracts/storage/nft.sol\":{\"content\":\"// SPDX-License-Identifier: MIT\\npragma solidity ^0.8.0;\\n\\n// Utils\\nimport \\\"@openzeppelin/contracts/utils/structs/EnumerableSet.sol\\\";\\n\\nstruct NFTStorage {\\n    // Maps NFT owner to set of token IDs owned\\n    mapping(address => EnumerableSet.UintSet) stakedNFTs;\\n    // Maps loanID to NFT IDs indicating NFT being used for the loan\\n    mapping(uint256 => EnumerableSet.UintSet) loanNFTs;\\n    // Merkle root used for verifying nft IDs to base loan size\\n    bytes32 nftMerkleRoot;\\n}\\n\\nbytes32 constant NFT_STORAGE_POS = keccak256(\\\"teller.staking.storage\\\");\\n\\nlibrary NFTStorageLib {\\n    function store() internal pure returns (NFTStorage storage s) {\\n        bytes32 pos = NFT_STORAGE_POS;\\n        assembly {\\n            s.slot := pos\\n        }\\n    }\\n}\\n\",\"keccak256\":\"0x8d58bb6ba00310d8c3d89b95c62e5c997430a1124d73224897f7d9b2a43ab50a\",\"license\":\"MIT\"},\"contracts/storage/price-aggregator.sol\":{\"content\":\"// SPDX-License-Identifier: MIT\\npragma solidity ^0.8.0;\\n\\nimport {\\n    EnumerableSet\\n} from \\\"@openzeppelin/contracts/utils/structs/EnumerableSet.sol\\\";\\n\\nstruct ChainlinkAggStorage {\\n    // Maps source token => destination token => Chainlink Aggregator\\n    mapping(address => mapping(address => address)) aggregators;\\n    // Maps token address to number of supported Chainlink pairs\\n    mapping(address => uint256) pairCount;\\n    // Stores set of token addresses supported by Chainlink\\n    EnumerableSet.AddressSet supportedTokens;\\n}\\n\\nstruct PriceAggStorage {\\n    ChainlinkAggStorage chainlink;\\n}\\n\\nbytes32 constant PRICE_AGG_STORAGE_POS = keccak256(\\n    \\\"teller.price.aggregator.storage\\\"\\n);\\n\\nlibrary PriceAggStorageLib {\\n    function store() internal pure returns (PriceAggStorage storage s) {\\n        bytes32 pos = PRICE_AGG_STORAGE_POS;\\n        assembly {\\n            s.slot := pos\\n        }\\n    }\\n}\\n\",\"keccak256\":\"0x39a2c6e514cbc48d03f8de560a855527ddf9cd08e2042a75e5c1820a6298d4a1\",\"license\":\"MIT\"}},\"version\":1}",
          "bytecode": "0x608060405234801561001057600080fd5b5061204b806100206000396000f3fe608060405234801561001057600080fd5b506004361061004c5760003560e01c80635ebc6334146100515780638a700b531461007d578063ccdd9f5d14610092578063e89ad656146100a5575b600080fd5b61006461005f366004611d42565b6100b8565b6040805192835260208301919091520160405180910390f35b61009061008b366004611d72565b610189565b005b6100906100a0366004611d42565b6102ea565b6100906100b3366004611d72565b6105da565b60008061014a836100c8856107ce565b6001600160a01b031663d17b71d7866040518263ffffffff1660e01b81526004016100f591815260200190565b60206040518083038186803b15801561010d57600080fd5b505afa158015610121573d6000803e3d6000fd5b505050506040513d601f19601f820116820180604052508101906101459190611d5a565b61083b565b509150610182610159846108ff565b600101546001600160a01b031661016f856108ff565b600201546001600160a01b03168461091c565b9050915091565b60008080527f7b305b6be5f275f648d05716597c483d754c2a242bd605feba3c64fb853605366020527f63eec20f0ae1af135811da961c707cd581594291a92cf7bcd78c1cf1aca4e4b054600080516020611ff68339815191529060ff161561020d5760405162461bcd60e51b815260040161020490611e6a565b60405180910390fd5b60008281526002820160205260408120805460ff1916600117905580806102338161099e565b151514801561024d57508015156102498361099e565b1515145b610256826109b6565b906102745760405162461bcd60e51b81526004016102049190611e00565b507f50e75b23f8ec51bbcb044fe377457e835f3b5ccc7ebf69e80906452015dff607336102a18282610a1f565b6102bd5760405162461bcd60e51b815260040161020490611e33565b6102ca8888336000610a53565b5050506000938452505060020160205260409020805460ff191690555050565b60008080527f7b305b6be5f275f648d05716597c483d754c2a242bd605feba3c64fb853605366020527f63eec20f0ae1af135811da961c707cd581594291a92cf7bcd78c1cf1aca4e4b054600080516020611ff68339815191529060ff16156103655760405162461bcd60e51b815260040161020490611e6a565b60008281526002820160205260408120805460ff19166001179055808061038b8161099e565b15151480156103a557508015156103a18361099e565b1515145b6103ae826109b6565b906103cc5760405162461bcd60e51b81526004016102049190611e00565b507f50e75b23f8ec51bbcb044fe377457e835f3b5ccc7ebf69e80906452015dff607336103f98282610a1f565b6104155760405162461bcd60e51b815260040161020490611e33565b6000610420886108ff565b9050600061042d896107ce565b6001600160a01b031663d17b71d78a6040518263ffffffff1660e01b815260040161045a91815260200190565b60206040518083038186803b15801561047257600080fd5b505afa158015610486573d6000803e3d6000fd5b505050506040513d601f19601f820116820180604052508101906104aa9190611d5a565b90506104b68982610e80565b61050c5760405162461bcd60e51b815260206004820152602160248201527f54656c6c65723a20646f6573206e6f74206e656564206c69717569646174696f6044820152603760f91b6064820152608401610204565b6000806105198b8461083b565b9150915060006105288c610fa3565b600101546105358d610fa3565b546105409190611ea1565b905061054f8c82336001610a53565b508215610563576105638c84848733610fc0565b845460408051338152602081018690529081018390526001600160a01b03909116908d907f9950a0562c02382e2e840daa73082d5be7660ce37601f28fa4c84089c11e8a069060600160405180910390a35050506000978852505050600290930160205250506040909120805460ff191690555050565b600080806105e78161099e565b151514801561060157508015156105fd8361099e565b1515145b61060a826109b6565b906106285760405162461bcd60e51b81526004016102049190611e00565b507f50e75b23f8ec51bbcb044fe377457e835f3b5ccc7ebf69e80906452015dff607336106558282610a1f565b6106715760405162461bcd60e51b815260040161020490611e33565b60008080527f7b305b6be5f275f648d05716597c483d754c2a242bd605feba3c64fb853605366020527f63eec20f0ae1af135811da961c707cd581594291a92cf7bcd78c1cf1aca4e4b054600080516020611ff68339815191529060ff16156106ec5760405162461bcd60e51b815260040161020490611e6a565b60008281526002820160205260408120805460ff1916600117905561072689610714816108ff565b600101546001600160a01b03166110bd565b905060006107338a611155565b9050808210801561074357508189115b15610797576000818a116107605761075b838b611f6b565b61076a565b61076a8383611f6b565b90506107956107788c6108ff565b600101546001600160a01b03163361078f8e611239565b84611260565b505b6107ac8a8a6107a58d611239565b6000610a53565b505050600091825260020160205260409020805460ff19169055505050505050565b60009081527f0553069f1f0518e59f8623c18c83a1f987f2a0544d563e98dd803a7078142a8660209081526040808320600201546001600160a01b0390811684527f0553069f1f0518e59f8623c18c83a1f987f2a0544d563e98dd803a7078142a8b909252909120541690565b600080600061084985610fa3565b6001015461085686610fa3565b546108619190611ea1565b90506000610876826108716112be565b6112ef565b6108809083611ea1565b905084156108cc576108bd610894876108ff565b600201546001600160a01b03166108aa886108ff565b600101546001600160a01b03168761091c565b92506108c98385611ea1565b93505b808410156108ea576108dd8661130c565b6108e79085611ea1565b93505b808411156108f6578093505b50509250929050565b60006109096113c2565b6000928352600101602052506040902090565b60405163c05b1ec360e01b8152600090309063c05b1ec39061094690879087908790600401611ddc565b60206040518083038186803b15801561095e57600080fd5b505afa158015610972573d6000803e3d6000fd5b505050506040513d601f19601f820116820180604052508101906109969190611d5a565b949350505050565b60008181526001602052604090205460ff165b919050565b6060816109eb576040518060400160405280601081526020016f14185d5cd8589b194e881c185d5cd95960821b815250610a19565b6040518060400160405280601481526020017314185d5cd8589b194e881b9bdd081c185d5cd95960621b8152505b92915050565b6000610a296113eb565b6000938452602090815260408085206001600160a01b039490941685529290525090205460ff1690565b6000808411610a995760405162461bcd60e51b815260206004820152601260248201527154656c6c65723a207a65726f20726570617960701b6044820152606401610204565b610aa285610fa3565b60010154610aaf86610fa3565b54610aba9190611ea1565b905083811015610acd5792506000610ada565b610ad78482611f6b565b90505b60007f0553069f1f0518e59f8623c18c83a1f987f2a0544d563e98dd803a7078142a8d81610b07886108ff565b600101546001600160a01b039081168252602082019290925260400160002054811691508416610b3687611239565b6001600160a01b03161415610bce57610b4e86611239565b6001600160a01b031663125bfb66610b65886108ff565b600101546040516001600160e01b031960e084901b168152610b97916001600160a01b03169085908a90600401611ddc565b600060405180830381600087803b158015610bb157600080fd5b505af1158015610bc5573d6000803e3d6000fd5b50505050610bef565b610bef610bda876108ff565b600101546001600160a01b0316858388611260565b600080610bfb88610fa3565b60010154871015610c2f57508580610c1289610fa3565b6001016000828254610c249190611f6b565b90915550610c989050565b6000610c3a89610fa3565b600101541115610c6f57610c4d88610fa3565b600101549050610c5d8188611f6b565b96506000610c6a89610fa3565b600101555b8615610c985786915086610c8289610fa3565b8054600090610c92908490611f6b565b90915550505b604051638a700b5360e01b815260048101839052602481018290526001600160a01b03841690638a700b5390604401600060405180830381600087803b158015610ce157600080fd5b505af1158015610cf5573d6000803e3d6000fd5b505050508415610d9d578315610d4d5760405162461bcd60e51b815260206004820152601f60248201527f54656c6c65723a206c6971756964617465207061727469616c207265706179006044820152606401610204565b6004610d58896108ff565b600401601c6101000a81548160ff02191690836004811115610d8a57634e487b7160e01b600052602160045260246000fd5b0217905550610d9888611401565b610e75565b83610e1c576003610dad896108ff565b600401601c6101000a81548160ff02191690836004811115610ddf57634e487b7160e01b600052602160045260246000fd5b0217905550610e0088610df18a6108ff565b546001600160a01b03166114cc565b610e1c88610e0d8a6108ff565b546001600160a01b0316611560565b610e25886108ff565b54604080518981523360208201529081018690526001600160a01b039091169089907f20a1f2ec363af45dc5ee7d9d622f2dd68b52501c382126c7f04b53663c4c69bf9060600160405180910390a35b505050949350505050565b600080610e8c846108ff565b90506002600482810154600160e01b900460ff1690811115610ebe57634e487b7160e01b600052602160045260246000fd5b14610ecd576000915050610a19565b6004810154600160d01b900461ffff1615610f6d576040516372e1132760e01b81526004810185905260009030906372e113279060240160606040518083038186803b158015610f1c57600080fd5b505afa158015610f30573d6000803e3d6000fd5b505050506040513d601f19601f82011682018060405250810190610f549190611d93565b5091505083811115610f6b57600192505050610a19565b505b6004810154610f929063ffffffff600160801b8204811691600160a01b900416611eb9565b63ffffffff16421015949350505050565b6000610fad6113c2565b6000928352600201602052506040902090565b6004610fcb866108ff565b600490810154600160e01b900460ff1690811115610ff957634e487b7160e01b600052602160045260246000fd5b146110465760405162461bcd60e51b815260206004820152601b60248201527f54656c6c65723a206c6f616e206e6f74206c69717569646174656400000000006044820152606401610204565b82841161109757600061108461105b876108ff565b600101546001600160a01b0316611071886108ff565b600201546001600160a01b03168761091c565b90506110918682846115d5565b506110b6565b6110a28583836115d5565b6110b685826110b18688611f6b565b611692565b5050505050565b6000816001600160a01b03166370a082316110d785611239565b6040516001600160e01b031960e084901b1681526001600160a01b03909116600482015260240160206040518083038186803b15801561111657600080fd5b505afa15801561112a573d6000803e3d6000fd5b505050506040513d601f19601f8201168201806040525081019061114e9190611d5a565b9392505050565b60006001611162836108ff565b600490810154600160e01b900460ff169081111561119057634e487b7160e01b600052602160045260246000fd5b14156111ca5760006111ab836111a585611734565b54611751565b9050806111b784611734565b546111c29190611ea1565b9150506109b1565b60026111d5836108ff565b600490810154600160e01b900460ff169081111561120357634e487b7160e01b600052602160045260246000fd5b14156112315761121282610fa3565b6001015461121f83610fa3565b5461122a9190611ea1565b90506109b1565b506000919050565b60006112436113c2565b60009283526004016020525060409020546001600160a01b031690565b6112b8846323b872dd60e01b85858560405160240161128193929190611ddc565b60408051601f198184030181529190526020810180516001600160e01b03166001600160e01b031990931692909217909152611766565b50505050565b60006112e97f5166f2578d96d76687be006158a90b639fcc7501b0381b6b4ed953aca3e0e183611838565b54919050565b600061271061130261ffff841685611f1c565b61114e9190611ee1565b600080611318836108ff565b600101546001600160a01b0316905061133183826110bd565b61133b9083611ea1565b9150600061134884611840565b905060006113558261185d565b11156113bb5760005b6113678261185d565b8110156113b95760006113838661137e8585611867565b6110bd565b90506113996113928484611867565b858361091c565b6113a39086611ea1565b94505080806113b190611fae565b91505061135e565b505b5050919050565b60007f0553069f1f0518e59f8623c18c83a1f987f2a0544d563e98dd803a7078142a855b905090565b6000600080516020611ff68339815191526113e6565b600061140b611873565b60008381526001919091016020526040812091505b6114298261185d565b8110156114c7576006546001600160a01b03166001600160a01b03166323b872dd306000600901546001600160a01b03166114648686611867565b6040518463ffffffff1660e01b815260040161148293929190611ddc565b600060405180830381600087803b15801561149c57600080fd5b505af11580156114b0573d6000803e3d6000fd5b5050505080806114bf90611fae565b915050611420565b505050565b61155c826114d9846107ce565b6001600160a01b031663d17b71d7856040518263ffffffff1660e01b815260040161150691815260200190565b60206040518083038186803b15801561151e57600080fd5b505afa158015611532573d6000803e3d6000fd5b505050506040513d601f19601f820116820180604052508101906115569190611d5a565b836115d5565b5050565b600061156a611873565b60008481526001919091016020526040812091505b6115888261185d565b8110156112b8576115c261159a611873565b6001600160a01b0385166000908152602091909152604090206115bd8484611867565b61189b565b50806115cd81611fae565b91505061157f565b6115de836107ce565b604051630ad58d2f60e01b815260048101859052602481018490526001600160a01b0383811660448301529190911690630ad58d2f90606401600060405180830381600087803b15801561163157600080fd5b505af1158015611645573d6000803e3d6000fd5b50505050806001600160a01b0316837f7c5e5cb62e5ed3caf3764e4b0afedfedef533e27809d43367799787ad2abcd418460405161168591815260200190565b60405180910390a3505050565b60008381527f0553069f1f0518e59f8623c18c83a1f987f2a0544d563e98dd803a7078142a8a60205260409020816116e1856116cd816108ff565b600101546001600160a01b031686846118a7565b905060005b6116ef8361185d565b81101561172c5781611703575050506114c7565b611718866117118584611867565b87856118a7565b91508061172481611fae565b9150506116e6565b505050505050565b600061173e6113c2565b6000928352600301602052506040902090565b600061114e61175f84611a42565b83906112ef565b60006117bb826040518060400160405280602081526020017f5361666545524332303a206c6f772d6c6576656c2063616c6c206661696c6564815250856001600160a01b0316611aa29092919063ffffffff16565b8051909150156114c757808060200190518101906117d99190611d22565b6114c75760405162461bcd60e51b815260206004820152602a60248201527f5361666545524332303a204552433230206f7065726174696f6e20646964206e6044820152691bdd081cdd58d8d9595960b21b6064820152608401610204565b600080610fad565b600061184a6113c2565b6000928352600501602052506040902090565b6000610a19825490565b600061114e8383611ab1565b60007f36ec560bcbaf142f58499b90035254e32b3f3563174bc96dc2b2724bafa4c2a76113e6565b600061114e8383611b45565b6000806118b486866110bd565b90508015611a385760006118c7876108ff565b600101546001600160a01b03878116911614156118e5575080611908565b611905866118f2896108ff565b600101546001600160a01b03168461091c565b90505b83811161198c5761191887611239565b6001600160a01b031663125bfb668787856040518463ffffffff1660e01b815260040161194793929190611ddc565b600060405180830381600087803b15801561196157600080fd5b505af1158015611975573d6000803e3d6000fd5b5050505080846119859190611f6b565b9350611a36565b6000611997886108ff565b600101546001600160a01b03888116911614156119b55750836119c6565b6119c3836108718785611b94565b90505b6119cf88611239565b6001600160a01b031663125bfb668888846040518463ffffffff1660e01b81526004016119fe93929190611ddc565b600060405180830381600087803b158015611a1857600080fd5b505af1158015611a2c573d6000803e3d6000fd5b5050505060009450505b505b5090949350505050565b60006301e13380611a52836108ff565b60040154600160c01b900461ffff16611a6a846108ff565b60040154611a859190600160801b900463ffffffff16611f3b565b611a8f9190611ef5565b905061ffff81166109b157506001919050565b60606109968484600085611bc1565b81546000908210611b0f5760405162461bcd60e51b815260206004820152602260248201527f456e756d657261626c655365743a20696e646578206f7574206f6620626f756e604482015261647360f01b6064820152608401610204565b826000018281548110611b3257634e487b7160e01b600052603260045260246000fd5b9060005260206000200154905092915050565b6000818152600183016020526040812054611b8c57508154600181810184556000848152602080822090930184905584548482528286019093526040902091909155610a19565b506000610a19565b60008115611bb85781611ba961271085611f1c565b611bb39190611ee1565b61114e565b50600092915050565b606082471015611c225760405162461bcd60e51b815260206004820152602660248201527f416464726573733a20696e73756666696369656e742062616c616e636520666f6044820152651c8818d85b1b60d21b6064820152608401610204565b843b611c705760405162461bcd60e51b815260206004820152601d60248201527f416464726573733a2063616c6c20746f206e6f6e2d636f6e74726163740000006044820152606401610204565b600080866001600160a01b03168587604051611c8c9190611dc0565b60006040518083038185875af1925050503d8060008114611cc9576040519150601f19603f3d011682016040523d82523d6000602084013e611cce565b606091505b5091509150611cde828286611ce9565b979650505050505050565b60608315611cf857508161114e565b825115611d085782518084602001fd5b8160405162461bcd60e51b81526004016102049190611e00565b600060208284031215611d33578081fd5b8151801515811461114e578182fd5b600060208284031215611d53578081fd5b5035919050565b600060208284031215611d6b578081fd5b5051919050565b60008060408385031215611d84578081fd5b50508035926020909101359150565b600080600060608486031215611da7578081fd5b8351925060208401519150604084015190509250925092565b60008251611dd2818460208701611f82565b9190910192915050565b6001600160a01b039384168152919092166020820152604081019190915260600190565b6000602082528251806020840152611e1f816040850160208701611f82565b601f01601f19169190910160400192915050565b6020808252601d908201527f416363657373436f6e74726f6c3a206e6f7420617574686f72697a6564000000604082015260600190565b60208082526018908201527f416363657373436f6e74726f6c3a207265656e74657265640000000000000000604082015260600190565b60008219821115611eb457611eb4611fc9565b500190565b600063ffffffff808316818516808303821115611ed857611ed8611fc9565b01949350505050565b600082611ef057611ef0611fdf565b500490565b600067ffffffffffffffff80841680611f1057611f10611fdf565b92169190910492915050565b6000816000190483118215151615611f3657611f36611fc9565b500290565b600067ffffffffffffffff80831681851681830481118215151615611f6257611f62611fc9565b02949350505050565b600082821015611f7d57611f7d611fc9565b500390565b60005b83811015611f9d578181015183820152602001611f85565b838111156112b85750506000910152565b6000600019821415611fc257611fc2611fc9565b5060010190565b634e487b7160e01b600052601160045260246000fd5b634e487b7160e01b600052601260045260246000fdfe7b305b6be5f275f648d05716597c483d754c2a242bd605feba3c64fb85360534a2646970667358221220d4ca4187d3b34cbce12ece919f27a378dae5d6e5f4f54878a3a4a44a1ba2a6f664736f6c63430008030033",
          "deployedBytecode": "0x608060405234801561001057600080fd5b506004361061004c5760003560e01c80635ebc6334146100515780638a700b531461007d578063ccdd9f5d14610092578063e89ad656146100a5575b600080fd5b61006461005f366004611d42565b6100b8565b6040805192835260208301919091520160405180910390f35b61009061008b366004611d72565b610189565b005b6100906100a0366004611d42565b6102ea565b6100906100b3366004611d72565b6105da565b60008061014a836100c8856107ce565b6001600160a01b031663d17b71d7866040518263ffffffff1660e01b81526004016100f591815260200190565b60206040518083038186803b15801561010d57600080fd5b505afa158015610121573d6000803e3d6000fd5b505050506040513d601f19601f820116820180604052508101906101459190611d5a565b61083b565b509150610182610159846108ff565b600101546001600160a01b031661016f856108ff565b600201546001600160a01b03168461091c565b9050915091565b60008080527f7b305b6be5f275f648d05716597c483d754c2a242bd605feba3c64fb853605366020527f63eec20f0ae1af135811da961c707cd581594291a92cf7bcd78c1cf1aca4e4b054600080516020611ff68339815191529060ff161561020d5760405162461bcd60e51b815260040161020490611e6a565b60405180910390fd5b60008281526002820160205260408120805460ff1916600117905580806102338161099e565b151514801561024d57508015156102498361099e565b1515145b610256826109b6565b906102745760405162461bcd60e51b81526004016102049190611e00565b507f50e75b23f8ec51bbcb044fe377457e835f3b5ccc7ebf69e80906452015dff607336102a18282610a1f565b6102bd5760405162461bcd60e51b815260040161020490611e33565b6102ca8888336000610a53565b5050506000938452505060020160205260409020805460ff191690555050565b60008080527f7b305b6be5f275f648d05716597c483d754c2a242bd605feba3c64fb853605366020527f63eec20f0ae1af135811da961c707cd581594291a92cf7bcd78c1cf1aca4e4b054600080516020611ff68339815191529060ff16156103655760405162461bcd60e51b815260040161020490611e6a565b60008281526002820160205260408120805460ff19166001179055808061038b8161099e565b15151480156103a557508015156103a18361099e565b1515145b6103ae826109b6565b906103cc5760405162461bcd60e51b81526004016102049190611e00565b507f50e75b23f8ec51bbcb044fe377457e835f3b5ccc7ebf69e80906452015dff607336103f98282610a1f565b6104155760405162461bcd60e51b815260040161020490611e33565b6000610420886108ff565b9050600061042d896107ce565b6001600160a01b031663d17b71d78a6040518263ffffffff1660e01b815260040161045a91815260200190565b60206040518083038186803b15801561047257600080fd5b505afa158015610486573d6000803e3d6000fd5b505050506040513d601f19601f820116820180604052508101906104aa9190611d5a565b90506104b68982610e80565b61050c5760405162461bcd60e51b815260206004820152602160248201527f54656c6c65723a20646f6573206e6f74206e656564206c69717569646174696f6044820152603760f91b6064820152608401610204565b6000806105198b8461083b565b9150915060006105288c610fa3565b600101546105358d610fa3565b546105409190611ea1565b905061054f8c82336001610a53565b508215610563576105638c84848733610fc0565b845460408051338152602081018690529081018390526001600160a01b03909116908d907f9950a0562c02382e2e840daa73082d5be7660ce37601f28fa4c84089c11e8a069060600160405180910390a35050506000978852505050600290930160205250506040909120805460ff191690555050565b600080806105e78161099e565b151514801561060157508015156105fd8361099e565b1515145b61060a826109b6565b906106285760405162461bcd60e51b81526004016102049190611e00565b507f50e75b23f8ec51bbcb044fe377457e835f3b5ccc7ebf69e80906452015dff607336106558282610a1f565b6106715760405162461bcd60e51b815260040161020490611e33565b60008080527f7b305b6be5f275f648d05716597c483d754c2a242bd605feba3c64fb853605366020527f63eec20f0ae1af135811da961c707cd581594291a92cf7bcd78c1cf1aca4e4b054600080516020611ff68339815191529060ff16156106ec5760405162461bcd60e51b815260040161020490611e6a565b60008281526002820160205260408120805460ff1916600117905561072689610714816108ff565b600101546001600160a01b03166110bd565b905060006107338a611155565b9050808210801561074357508189115b15610797576000818a116107605761075b838b611f6b565b61076a565b61076a8383611f6b565b90506107956107788c6108ff565b600101546001600160a01b03163361078f8e611239565b84611260565b505b6107ac8a8a6107a58d611239565b6000610a53565b505050600091825260020160205260409020805460ff19169055505050505050565b60009081527f0553069f1f0518e59f8623c18c83a1f987f2a0544d563e98dd803a7078142a8660209081526040808320600201546001600160a01b0390811684527f0553069f1f0518e59f8623c18c83a1f987f2a0544d563e98dd803a7078142a8b909252909120541690565b600080600061084985610fa3565b6001015461085686610fa3565b546108619190611ea1565b90506000610876826108716112be565b6112ef565b6108809083611ea1565b905084156108cc576108bd610894876108ff565b600201546001600160a01b03166108aa886108ff565b600101546001600160a01b03168761091c565b92506108c98385611ea1565b93505b808410156108ea576108dd8661130c565b6108e79085611ea1565b93505b808411156108f6578093505b50509250929050565b60006109096113c2565b6000928352600101602052506040902090565b60405163c05b1ec360e01b8152600090309063c05b1ec39061094690879087908790600401611ddc565b60206040518083038186803b15801561095e57600080fd5b505afa158015610972573d6000803e3d6000fd5b505050506040513d601f19601f820116820180604052508101906109969190611d5a565b949350505050565b60008181526001602052604090205460ff165b919050565b6060816109eb576040518060400160405280601081526020016f14185d5cd8589b194e881c185d5cd95960821b815250610a19565b6040518060400160405280601481526020017314185d5cd8589b194e881b9bdd081c185d5cd95960621b8152505b92915050565b6000610a296113eb565b6000938452602090815260408085206001600160a01b039490941685529290525090205460ff1690565b6000808411610a995760405162461bcd60e51b815260206004820152601260248201527154656c6c65723a207a65726f20726570617960701b6044820152606401610204565b610aa285610fa3565b60010154610aaf86610fa3565b54610aba9190611ea1565b905083811015610acd5792506000610ada565b610ad78482611f6b565b90505b60007f0553069f1f0518e59f8623c18c83a1f987f2a0544d563e98dd803a7078142a8d81610b07886108ff565b600101546001600160a01b039081168252602082019290925260400160002054811691508416610b3687611239565b6001600160a01b03161415610bce57610b4e86611239565b6001600160a01b031663125bfb66610b65886108ff565b600101546040516001600160e01b031960e084901b168152610b97916001600160a01b03169085908a90600401611ddc565b600060405180830381600087803b158015610bb157600080fd5b505af1158015610bc5573d6000803e3d6000fd5b50505050610bef565b610bef610bda876108ff565b600101546001600160a01b0316858388611260565b600080610bfb88610fa3565b60010154871015610c2f57508580610c1289610fa3565b6001016000828254610c249190611f6b565b90915550610c989050565b6000610c3a89610fa3565b600101541115610c6f57610c4d88610fa3565b600101549050610c5d8188611f6b565b96506000610c6a89610fa3565b600101555b8615610c985786915086610c8289610fa3565b8054600090610c92908490611f6b565b90915550505b604051638a700b5360e01b815260048101839052602481018290526001600160a01b03841690638a700b5390604401600060405180830381600087803b158015610ce157600080fd5b505af1158015610cf5573d6000803e3d6000fd5b505050508415610d9d578315610d4d5760405162461bcd60e51b815260206004820152601f60248201527f54656c6c65723a206c6971756964617465207061727469616c207265706179006044820152606401610204565b6004610d58896108ff565b600401601c6101000a81548160ff02191690836004811115610d8a57634e487b7160e01b600052602160045260246000fd5b0217905550610d9888611401565b610e75565b83610e1c576003610dad896108ff565b600401601c6101000a81548160ff02191690836004811115610ddf57634e487b7160e01b600052602160045260246000fd5b0217905550610e0088610df18a6108ff565b546001600160a01b03166114cc565b610e1c88610e0d8a6108ff565b546001600160a01b0316611560565b610e25886108ff565b54604080518981523360208201529081018690526001600160a01b039091169089907f20a1f2ec363af45dc5ee7d9d622f2dd68b52501c382126c7f04b53663c4c69bf9060600160405180910390a35b505050949350505050565b600080610e8c846108ff565b90506002600482810154600160e01b900460ff1690811115610ebe57634e487b7160e01b600052602160045260246000fd5b14610ecd576000915050610a19565b6004810154600160d01b900461ffff1615610f6d576040516372e1132760e01b81526004810185905260009030906372e113279060240160606040518083038186803b158015610f1c57600080fd5b505afa158015610f30573d6000803e3d6000fd5b505050506040513d601f19601f82011682018060405250810190610f549190611d93565b5091505083811115610f6b57600192505050610a19565b505b6004810154610f929063ffffffff600160801b8204811691600160a01b900416611eb9565b63ffffffff16421015949350505050565b6000610fad6113c2565b6000928352600201602052506040902090565b6004610fcb866108ff565b600490810154600160e01b900460ff1690811115610ff957634e487b7160e01b600052602160045260246000fd5b146110465760405162461bcd60e51b815260206004820152601b60248201527f54656c6c65723a206c6f616e206e6f74206c69717569646174656400000000006044820152606401610204565b82841161109757600061108461105b876108ff565b600101546001600160a01b0316611071886108ff565b600201546001600160a01b03168761091c565b90506110918682846115d5565b506110b6565b6110a28583836115d5565b6110b685826110b18688611f6b565b611692565b5050505050565b6000816001600160a01b03166370a082316110d785611239565b6040516001600160e01b031960e084901b1681526001600160a01b03909116600482015260240160206040518083038186803b15801561111657600080fd5b505afa15801561112a573d6000803e3d6000fd5b505050506040513d601f19601f8201168201806040525081019061114e9190611d5a565b9392505050565b60006001611162836108ff565b600490810154600160e01b900460ff169081111561119057634e487b7160e01b600052602160045260246000fd5b14156111ca5760006111ab836111a585611734565b54611751565b9050806111b784611734565b546111c29190611ea1565b9150506109b1565b60026111d5836108ff565b600490810154600160e01b900460ff169081111561120357634e487b7160e01b600052602160045260246000fd5b14156112315761121282610fa3565b6001015461121f83610fa3565b5461122a9190611ea1565b90506109b1565b506000919050565b60006112436113c2565b60009283526004016020525060409020546001600160a01b031690565b6112b8846323b872dd60e01b85858560405160240161128193929190611ddc565b60408051601f198184030181529190526020810180516001600160e01b03166001600160e01b031990931692909217909152611766565b50505050565b60006112e97f5166f2578d96d76687be006158a90b639fcc7501b0381b6b4ed953aca3e0e183611838565b54919050565b600061271061130261ffff841685611f1c565b61114e9190611ee1565b600080611318836108ff565b600101546001600160a01b0316905061133183826110bd565b61133b9083611ea1565b9150600061134884611840565b905060006113558261185d565b11156113bb5760005b6113678261185d565b8110156113b95760006113838661137e8585611867565b6110bd565b90506113996113928484611867565b858361091c565b6113a39086611ea1565b94505080806113b190611fae565b91505061135e565b505b5050919050565b60007f0553069f1f0518e59f8623c18c83a1f987f2a0544d563e98dd803a7078142a855b905090565b6000600080516020611ff68339815191526113e6565b600061140b611873565b60008381526001919091016020526040812091505b6114298261185d565b8110156114c7576006546001600160a01b03166001600160a01b03166323b872dd306000600901546001600160a01b03166114648686611867565b6040518463ffffffff1660e01b815260040161148293929190611ddc565b600060405180830381600087803b15801561149c57600080fd5b505af11580156114b0573d6000803e3d6000fd5b5050505080806114bf90611fae565b915050611420565b505050565b61155c826114d9846107ce565b6001600160a01b031663d17b71d7856040518263ffffffff1660e01b815260040161150691815260200190565b60206040518083038186803b15801561151e57600080fd5b505afa158015611532573d6000803e3d6000fd5b505050506040513d601f19601f820116820180604052508101906115569190611d5a565b836115d5565b5050565b600061156a611873565b60008481526001919091016020526040812091505b6115888261185d565b8110156112b8576115c261159a611873565b6001600160a01b0385166000908152602091909152604090206115bd8484611867565b61189b565b50806115cd81611fae565b91505061157f565b6115de836107ce565b604051630ad58d2f60e01b815260048101859052602481018490526001600160a01b0383811660448301529190911690630ad58d2f90606401600060405180830381600087803b15801561163157600080fd5b505af1158015611645573d6000803e3d6000fd5b50505050806001600160a01b0316837f7c5e5cb62e5ed3caf3764e4b0afedfedef533e27809d43367799787ad2abcd418460405161168591815260200190565b60405180910390a3505050565b60008381527f0553069f1f0518e59f8623c18c83a1f987f2a0544d563e98dd803a7078142a8a60205260409020816116e1856116cd816108ff565b600101546001600160a01b031686846118a7565b905060005b6116ef8361185d565b81101561172c5781611703575050506114c7565b611718866117118584611867565b87856118a7565b91508061172481611fae565b9150506116e6565b505050505050565b600061173e6113c2565b6000928352600301602052506040902090565b600061114e61175f84611a42565b83906112ef565b60006117bb826040518060400160405280602081526020017f5361666545524332303a206c6f772d6c6576656c2063616c6c206661696c6564815250856001600160a01b0316611aa29092919063ffffffff16565b8051909150156114c757808060200190518101906117d99190611d22565b6114c75760405162461bcd60e51b815260206004820152602a60248201527f5361666545524332303a204552433230206f7065726174696f6e20646964206e6044820152691bdd081cdd58d8d9595960b21b6064820152608401610204565b600080610fad565b600061184a6113c2565b6000928352600501602052506040902090565b6000610a19825490565b600061114e8383611ab1565b60007f36ec560bcbaf142f58499b90035254e32b3f3563174bc96dc2b2724bafa4c2a76113e6565b600061114e8383611b45565b6000806118b486866110bd565b90508015611a385760006118c7876108ff565b600101546001600160a01b03878116911614156118e5575080611908565b611905866118f2896108ff565b600101546001600160a01b03168461091c565b90505b83811161198c5761191887611239565b6001600160a01b031663125bfb668787856040518463ffffffff1660e01b815260040161194793929190611ddc565b600060405180830381600087803b15801561196157600080fd5b505af1158015611975573d6000803e3d6000fd5b5050505080846119859190611f6b565b9350611a36565b6000611997886108ff565b600101546001600160a01b03888116911614156119b55750836119c6565b6119c3836108718785611b94565b90505b6119cf88611239565b6001600160a01b031663125bfb668888846040518463ffffffff1660e01b81526004016119fe93929190611ddc565b600060405180830381600087803b158015611a1857600080fd5b505af1158015611a2c573d6000803e3d6000fd5b5050505060009450505b505b5090949350505050565b60006301e13380611a52836108ff565b60040154600160c01b900461ffff16611a6a846108ff565b60040154611a859190600160801b900463ffffffff16611f3b565b611a8f9190611ef5565b905061ffff81166109b157506001919050565b60606109968484600085611bc1565b81546000908210611b0f5760405162461bcd60e51b815260206004820152602260248201527f456e756d657261626c655365743a20696e646578206f7574206f6620626f756e604482015261647360f01b6064820152608401610204565b826000018281548110611b3257634e487b7160e01b600052603260045260246000fd5b9060005260206000200154905092915050565b6000818152600183016020526040812054611b8c57508154600181810184556000848152602080822090930184905584548482528286019093526040902091909155610a19565b506000610a19565b60008115611bb85781611ba961271085611f1c565b611bb39190611ee1565b61114e565b50600092915050565b606082471015611c225760405162461bcd60e51b815260206004820152602660248201527f416464726573733a20696e73756666696369656e742062616c616e636520666f6044820152651c8818d85b1b60d21b6064820152608401610204565b843b611c705760405162461bcd60e51b815260206004820152601d60248201527f416464726573733a2063616c6c20746f206e6f6e2d636f6e74726163740000006044820152606401610204565b600080866001600160a01b03168587604051611c8c9190611dc0565b60006040518083038185875af1925050503d8060008114611cc9576040519150601f19603f3d011682016040523d82523d6000602084013e611cce565b606091505b5091509150611cde828286611ce9565b979650505050505050565b60608315611cf857508161114e565b825115611d085782518084602001fd5b8160405162461bcd60e51b81526004016102049190611e00565b600060208284031215611d33578081fd5b8151801515811461114e578182fd5b600060208284031215611d53578081fd5b5035919050565b600060208284031215611d6b578081fd5b5051919050565b60008060408385031215611d84578081fd5b50508035926020909101359150565b600080600060608486031215611da7578081fd5b8351925060208401519150604084015190509250925092565b60008251611dd2818460208701611f82565b9190910192915050565b6001600160a01b039384168152919092166020820152604081019190915260600190565b6000602082528251806020840152611e1f816040850160208701611f82565b601f01601f19169190910160400192915050565b6020808252601d908201527f416363657373436f6e74726f6c3a206e6f7420617574686f72697a6564000000604082015260600190565b60208082526018908201527f416363657373436f6e74726f6c3a207265656e74657265640000000000000000604082015260600190565b60008219821115611eb457611eb4611fc9565b500190565b600063ffffffff808316818516808303821115611ed857611ed8611fc9565b01949350505050565b600082611ef057611ef0611fdf565b500490565b600067ffffffffffffffff80841680611f1057611f10611fdf565b92169190910492915050565b6000816000190483118215151615611f3657611f36611fc9565b500290565b600067ffffffffffffffff80831681851681830481118215151615611f6257611f62611fc9565b02949350505050565b600082821015611f7d57611f7d611fc9565b500390565b60005b83811015611f9d578181015183820152602001611f85565b838111156112b85750506000910152565b6000600019821415611fc257611fc2611fc9565b5060010190565b634e487b7160e01b600052601160045260246000fd5b634e487b7160e01b600052601260045260246000fdfe7b305b6be5f275f648d05716597c483d754c2a242bd605feba3c64fb85360534a2646970667358221220d4ca4187d3b34cbce12ece919f27a378dae5d6e5f4f54878a3a4a44a1ba2a6f664736f6c63430008030033",
          "devdoc": {
            "events": {
              "LoanLiquidated(uint256,address,address,uint256,uint256)": {
                "params": {
                  "borrower": "Account address of the borrower",
                  "liquidator": "Account address of the liquidator",
                  "loanID": "ID of loan from which collateral was withdrawn",
                  "reward": "Value in lending token paid out to liquidator",
                  "tokensIn": "Percentage of the collateral price paid by the liquidator to the lending pool"
                }
              },
              "LoanRepaid(uint256,address,uint256,address,uint256)": {
                "params": {
                  "amountPaid": "Amount of the loan paid back",
                  "borrower": "Account address of the borrower",
                  "loanID": "ID of loan from which collateral was withdrawn",
                  "payer": "Account address of the payer",
                  "totalOwed": "Total amount of the loan to be repaid"
                }
              }
            },
            "kind": "dev",
            "methods": {
              "escrowRepay(uint256,uint256)": {
                "details": "If the Escrow's balance of the borrowed token is less than the amount to repay, transfer tokens from the sender's wallet.Only the owner of the Escrow can call this. If someone else wants to make a payment, they should call the loan manager directly.",
                "params": {
                  "amount": "The amount being repaid.",
                  "loanID": "The id of the loan being used."
                }
              },
              "getLiquidationReward(uint256)": {
                "params": {
                  "loanID": "The loan ID to get the info."
                },
                "returns": {
                  "inCollateral_": "The value the liquidator will receive denoted in collateral tokens.",
                  "inLending_": "The value the liquidator will receive denoted in lending tokens."
                }
              },
              "liquidateLoan(uint256)": {
                "params": {
                  "loanID": "The ID of the loan to be liquidated"
                }
              },
              "repayLoan(uint256,uint256)": {
                "params": {
                  "amount": "The amount of tokens to pay back to the loan",
                  "loanID": "The ID of the loan the payment is for"
                }
              }
            },
            "version": 1
          },
          "userdoc": {
            "events": {
              "LoanLiquidated(uint256,address,address,uint256,uint256)": {
                "notice": "This event is emitted when a loan has been successfully liquidated"
              },
              "LoanRepaid(uint256,address,uint256,address,uint256)": {
                "notice": "This event is emitted when a loan has been successfully repaid"
              }
            },
            "kind": "user",
            "methods": {
              "escrowRepay(uint256,uint256)": {
                "notice": "Repay this Escrow's loan."
              },
              "getLiquidationReward(uint256)": {
                "notice": "It gets the current liquidation reward for a given loan."
              },
              "liquidateLoan(uint256)": {
                "notice": "Liquidate a loan if it is expired or under collateralized"
              },
              "repayLoan(uint256,uint256)": {
                "notice": "Make a payment to a loan"
              }
            },
            "version": 1
          },
          "storageLayout": {
            "storage": [],
            "types": null
          }
        }
      ],
      "devdoc": {
        "events": {
          "LoanLiquidated(uint256,address,address,uint256,uint256)": {
            "params": {
              "borrower": "Account address of the borrower",
              "liquidator": "Account address of the liquidator",
              "loanID": "ID of loan from which collateral was withdrawn",
              "reward": "Value in lending token paid out to liquidator",
              "tokensIn": "Percentage of the collateral price paid by the liquidator to the lending pool"
            }
          },
          "LoanRepaid(uint256,address,uint256,address,uint256)": {
            "params": {
              "amountPaid": "Amount of the loan paid back",
              "borrower": "Account address of the borrower",
              "loanID": "ID of loan from which collateral was withdrawn",
              "payer": "Account address of the payer",
              "totalOwed": "Total amount of the loan to be repaid"
            }
          }
        },
        "kind": "dev",
        "methods": {
          "escrowRepay(uint256,uint256)": {
            "details": "If the Escrow's balance of the borrowed token is less than the amount to repay, transfer tokens from the sender's wallet.Only the owner of the Escrow can call this. If someone else wants to make a payment, they should call the loan manager directly.",
            "params": {
              "amount": "The amount being repaid.",
              "loanID": "The id of the loan being used."
            }
          },
          "getLiquidationReward(uint256)": {
            "params": {
              "loanID": "The loan ID to get the info."
            },
            "returns": {
              "inCollateral_": "The value the liquidator will receive denoted in collateral tokens.",
              "inLending_": "The value the liquidator will receive denoted in lending tokens."
            }
          },
          "liquidateLoan(uint256)": {
            "params": {
              "loanID": "The ID of the loan to be liquidated"
            }
          },
          "repayLoan(uint256,uint256)": {
            "params": {
              "amount": "The amount of tokens to pay back to the loan",
              "loanID": "The ID of the loan the payment is for"
            }
          }
        },
        "version": 1
      },
      "userdoc": {
        "events": {
          "LoanLiquidated(uint256,address,address,uint256,uint256)": {
            "notice": "This event is emitted when a loan has been successfully liquidated"
          },
          "LoanRepaid(uint256,address,uint256,address,uint256)": {
            "notice": "This event is emitted when a loan has been successfully repaid"
          }
        },
        "kind": "user",
        "methods": {
          "escrowRepay(uint256,uint256)": {
            "notice": "Repay this Escrow's loan."
          },
          "getLiquidationReward(uint256)": {
            "notice": "It gets the current liquidation reward for a given loan."
          },
          "liquidateLoan(uint256)": {
            "notice": "Liquidate a loan if it is expired or under collateralized"
          },
          "repayLoan(uint256,uint256)": {
            "notice": "Make a payment to a loan"
          }
        },
        "version": 1
      },
      "storageLayout": {
        "storage": [],
        "types": null
      }
    },
    {
      "address": "0xE1C9D9f11fc759b4c60e13b5D11502c0B27AF2b7",
      "abi": [
        {
          "anonymous": false,
          "inputs": [
            {
              "indexed": true,
              "internalType": "uint256",
              "name": "loanID",
              "type": "uint256"
            },
            {
              "indexed": true,
              "internalType": "address",
              "name": "borrower",
              "type": "address"
            },
            {
              "indexed": false,
              "internalType": "address",
              "name": "liquidator",
              "type": "address"
            },
            {
              "indexed": false,
              "internalType": "uint256",
              "name": "reward",
              "type": "uint256"
            },
            {
              "indexed": false,
              "internalType": "uint256",
              "name": "tokensIn",
              "type": "uint256"
            }
          ],
          "name": "LoanLiquidated",
          "type": "event"
        },
        {
          "anonymous": false,
          "inputs": [
            {
              "indexed": true,
              "internalType": "uint256",
              "name": "loanID",
              "type": "uint256"
            },
            {
              "indexed": true,
              "internalType": "address",
              "name": "borrower",
              "type": "address"
            },
            {
              "indexed": false,
              "internalType": "uint256",
              "name": "amountPaid",
              "type": "uint256"
            },
            {
              "indexed": false,
              "internalType": "address",
              "name": "payer",
              "type": "address"
            },
            {
              "indexed": false,
              "internalType": "uint256",
              "name": "totalOwed",
              "type": "uint256"
            }
          ],
          "name": "LoanRepaid",
          "type": "event"
        },
        {
          "inputs": [
            {
              "internalType": "uint256",
              "name": "loanID",
              "type": "uint256"
            },
            {
              "internalType": "uint256",
              "name": "amount",
              "type": "uint256"
            }
          ],
          "name": "escrowRepay",
          "outputs": [],
          "stateMutability": "nonpayable",
          "type": "function"
        },
        {
          "inputs": [
            {
              "internalType": "uint256",
              "name": "loanID",
              "type": "uint256"
            }
          ],
          "name": "getLiquidationReward",
          "outputs": [
            {
              "internalType": "uint256",
              "name": "inLending_",
              "type": "uint256"
            },
            {
              "internalType": "uint256",
              "name": "inCollateral_",
              "type": "uint256"
            }
          ],
          "stateMutability": "view",
          "type": "function"
        },
        {
          "inputs": [
            {
              "internalType": "uint256",
              "name": "loanID",
              "type": "uint256"
            }
          ],
          "name": "liquidateLoan",
          "outputs": [],
          "stateMutability": "nonpayable",
          "type": "function"
        },
        {
          "inputs": [
            {
              "internalType": "uint256",
              "name": "loanID",
              "type": "uint256"
            },
            {
              "internalType": "uint256",
              "name": "amount",
              "type": "uint256"
            }
          ],
          "name": "repayLoan",
          "outputs": [],
          "stateMutability": "nonpayable",
          "type": "function"
        }
      ],
      "artifactName": "RepayFacet",
      "transactionHash": "0x1935806b4b4c40659e42bf0df36f2a1f4a7372e1a5c9af48978bae9a995a869f",
      "receipt": {
        "to": null,
        "from": "0xAFe87013dc96edE1E116a288D80FcaA0eFFE5fe5",
        "contractAddress": "0xE1C9D9f11fc759b4c60e13b5D11502c0B27AF2b7",
        "transactionIndex": 0,
        "gasUsed": "1757520",
        "logsBloom": "0x00000000000000000000000000000000000000000000000000000000000000000000000000000000000000000000000000000000000000000000000000000000000000000000000000000000000000000000000000000000000000000000000000000000000000000000000000000000000000000000000000000000000000000000000000000000000000000000000000000000000000000000000000000000000000000000000000000000000000000000000000000000000000000000000000000000000000000000000000000000000000000000000000000000000000000000000000000000000000000000000000000000000000000000000000000000",
        "blockHash": "0x1504224d4aaec4de1e099a878f24e951d6e7e695e8fcb62e10cce5f4739607f4",
        "transactionHash": "0x1935806b4b4c40659e42bf0df36f2a1f4a7372e1a5c9af48978bae9a995a869f",
        "logs": [],
        "blockNumber": 25370072,
        "cumulativeGasUsed": "1757520",
        "status": 1,
        "byzantium": true
      },
      "args": [],
      "solcInputHash": "30b10b47777600ec7ec3ced16ef7024b",
      "metadata": "{\"compiler\":{\"version\":\"0.8.3+commit.8d00100c\"},\"language\":\"Solidity\",\"output\":{\"abi\":[{\"anonymous\":false,\"inputs\":[{\"indexed\":true,\"internalType\":\"uint256\",\"name\":\"loanID\",\"type\":\"uint256\"},{\"indexed\":true,\"internalType\":\"address\",\"name\":\"borrower\",\"type\":\"address\"},{\"indexed\":false,\"internalType\":\"address\",\"name\":\"liquidator\",\"type\":\"address\"},{\"indexed\":false,\"internalType\":\"uint256\",\"name\":\"reward\",\"type\":\"uint256\"},{\"indexed\":false,\"internalType\":\"uint256\",\"name\":\"tokensIn\",\"type\":\"uint256\"}],\"name\":\"LoanLiquidated\",\"type\":\"event\"},{\"anonymous\":false,\"inputs\":[{\"indexed\":true,\"internalType\":\"uint256\",\"name\":\"loanID\",\"type\":\"uint256\"},{\"indexed\":true,\"internalType\":\"address\",\"name\":\"borrower\",\"type\":\"address\"},{\"indexed\":false,\"internalType\":\"uint256\",\"name\":\"amountPaid\",\"type\":\"uint256\"},{\"indexed\":false,\"internalType\":\"address\",\"name\":\"payer\",\"type\":\"address\"},{\"indexed\":false,\"internalType\":\"uint256\",\"name\":\"totalOwed\",\"type\":\"uint256\"}],\"name\":\"LoanRepaid\",\"type\":\"event\"},{\"inputs\":[{\"internalType\":\"uint256\",\"name\":\"loanID\",\"type\":\"uint256\"},{\"internalType\":\"uint256\",\"name\":\"amount\",\"type\":\"uint256\"}],\"name\":\"escrowRepay\",\"outputs\":[],\"stateMutability\":\"nonpayable\",\"type\":\"function\"},{\"inputs\":[{\"internalType\":\"uint256\",\"name\":\"loanID\",\"type\":\"uint256\"}],\"name\":\"getLiquidationReward\",\"outputs\":[{\"internalType\":\"uint256\",\"name\":\"inLending_\",\"type\":\"uint256\"},{\"internalType\":\"uint256\",\"name\":\"inCollateral_\",\"type\":\"uint256\"}],\"stateMutability\":\"view\",\"type\":\"function\"},{\"inputs\":[{\"internalType\":\"uint256\",\"name\":\"loanID\",\"type\":\"uint256\"}],\"name\":\"liquidateLoan\",\"outputs\":[],\"stateMutability\":\"nonpayable\",\"type\":\"function\"},{\"inputs\":[{\"internalType\":\"uint256\",\"name\":\"loanID\",\"type\":\"uint256\"},{\"internalType\":\"uint256\",\"name\":\"amount\",\"type\":\"uint256\"}],\"name\":\"repayLoan\",\"outputs\":[],\"stateMutability\":\"nonpayable\",\"type\":\"function\"}],\"devdoc\":{\"events\":{\"LoanLiquidated(uint256,address,address,uint256,uint256)\":{\"params\":{\"borrower\":\"Account address of the borrower\",\"liquidator\":\"Account address of the liquidator\",\"loanID\":\"ID of loan from which collateral was withdrawn\",\"reward\":\"Value in lending token paid out to liquidator\",\"tokensIn\":\"Percentage of the collateral price paid by the liquidator to the lending pool\"}},\"LoanRepaid(uint256,address,uint256,address,uint256)\":{\"params\":{\"amountPaid\":\"Amount of the loan paid back\",\"borrower\":\"Account address of the borrower\",\"loanID\":\"ID of loan from which collateral was withdrawn\",\"payer\":\"Account address of the payer\",\"totalOwed\":\"Total amount of the loan to be repaid\"}}},\"kind\":\"dev\",\"methods\":{\"escrowRepay(uint256,uint256)\":{\"details\":\"If the Escrow's balance of the borrowed token is less than the amount to repay, transfer tokens from the sender's wallet.Only the owner of the Escrow can call this. If someone else wants to make a payment, they should call the loan manager directly.\",\"params\":{\"amount\":\"The amount being repaid.\",\"loanID\":\"The id of the loan being used.\"}},\"getLiquidationReward(uint256)\":{\"params\":{\"loanID\":\"The loan ID to get the info.\"},\"returns\":{\"inCollateral_\":\"The value the liquidator will receive denoted in collateral tokens.\",\"inLending_\":\"The value the liquidator will receive denoted in lending tokens.\"}},\"liquidateLoan(uint256)\":{\"params\":{\"loanID\":\"The ID of the loan to be liquidated\"}},\"repayLoan(uint256,uint256)\":{\"params\":{\"amount\":\"The amount of tokens to pay back to the loan\",\"loanID\":\"The ID of the loan the payment is for\"}}},\"version\":1},\"userdoc\":{\"events\":{\"LoanLiquidated(uint256,address,address,uint256,uint256)\":{\"notice\":\"This event is emitted when a loan has been successfully liquidated\"},\"LoanRepaid(uint256,address,uint256,address,uint256)\":{\"notice\":\"This event is emitted when a loan has been successfully repaid\"}},\"kind\":\"user\",\"methods\":{\"escrowRepay(uint256,uint256)\":{\"notice\":\"Repay this Escrow's loan.\"},\"getLiquidationReward(uint256)\":{\"notice\":\"It gets the current liquidation reward for a given loan.\"},\"liquidateLoan(uint256)\":{\"notice\":\"Liquidate a loan if it is expired or under collateralized\"},\"repayLoan(uint256,uint256)\":{\"notice\":\"Make a payment to a loan\"}},\"version\":1}},\"settings\":{\"compilationTarget\":{\"contracts/market/RepayFacet.sol\":\"RepayFacet\"},\"evmVersion\":\"istanbul\",\"libraries\":{},\"metadata\":{\"bytecodeHash\":\"ipfs\",\"useLiteralContent\":true},\"optimizer\":{\"enabled\":true,\"runs\":200},\"remappings\":[]},\"sources\":{\"@chainlink/contracts/src/v0.8/interfaces/AggregatorInterface.sol\":{\"content\":\"// SPDX-License-Identifier: MIT\\npragma solidity ^0.8.0;\\n\\ninterface AggregatorInterface {\\n  function latestAnswer()\\n    external\\n    view\\n    returns (\\n      int256\\n    );\\n  \\n  function latestTimestamp()\\n    external\\n    view\\n    returns (\\n      uint256\\n    );\\n\\n  function latestRound()\\n    external\\n    view\\n    returns (\\n      uint256\\n    );\\n\\n  function getAnswer(\\n    uint256 roundId\\n  )\\n    external\\n    view\\n    returns (\\n      int256\\n    );\\n\\n  function getTimestamp(\\n    uint256 roundId\\n  )\\n    external\\n    view\\n    returns (\\n      uint256\\n    );\\n\\n  event AnswerUpdated(\\n    int256 indexed current,\\n    uint256 indexed roundId,\\n    uint256 updatedAt\\n  );\\n\\n  event NewRound(\\n    uint256 indexed roundId,\\n    address indexed startedBy,\\n    uint256 startedAt\\n  );\\n}\\n\",\"keccak256\":\"0x1a5dc81544a6479f64437a8aca22c869769dd54ee3522c7ef5ebae0d329a28f0\",\"license\":\"MIT\"},\"@chainlink/contracts/src/v0.8/interfaces/AggregatorV2V3Interface.sol\":{\"content\":\"// SPDX-License-Identifier: MIT\\npragma solidity ^0.8.0;\\n\\nimport \\\"./AggregatorInterface.sol\\\";\\nimport \\\"./AggregatorV3Interface.sol\\\";\\n\\ninterface AggregatorV2V3Interface is AggregatorInterface, AggregatorV3Interface\\n{\\n}\\n\",\"keccak256\":\"0xe8f8d98b515366730824d24269c7267eee7f0288cf737db8659acbb0c751eb53\",\"license\":\"MIT\"},\"@chainlink/contracts/src/v0.8/interfaces/AggregatorV3Interface.sol\":{\"content\":\"// SPDX-License-Identifier: MIT\\npragma solidity ^0.8.0;\\n\\ninterface AggregatorV3Interface {\\n\\n  function decimals()\\n    external\\n    view\\n    returns (\\n      uint8\\n    );\\n\\n  function description()\\n    external\\n    view\\n    returns (\\n      string memory\\n    );\\n\\n  function version()\\n    external\\n    view\\n    returns (\\n      uint256\\n    );\\n\\n  // getRoundData and latestRoundData should both raise \\\"No data present\\\"\\n  // if they do not have data to report, instead of returning unset values\\n  // which could be misinterpreted as actual reported values.\\n  function getRoundData(\\n    uint80 _roundId\\n  )\\n    external\\n    view\\n    returns (\\n      uint80 roundId,\\n      int256 answer,\\n      uint256 startedAt,\\n      uint256 updatedAt,\\n      uint80 answeredInRound\\n    );\\n\\n  function latestRoundData()\\n    external\\n    view\\n    returns (\\n      uint80 roundId,\\n      int256 answer,\\n      uint256 startedAt,\\n      uint256 updatedAt,\\n      uint80 answeredInRound\\n    );\\n\\n}\\n\",\"keccak256\":\"0xe6f5ac8c47f3b9b6135051efb9216f9ba5b312a6ecc20209b4f66a780443c328\",\"license\":\"MIT\"},\"@openzeppelin/contracts-upgradeable/access/AccessControlUpgradeable.sol\":{\"content\":\"// SPDX-License-Identifier: MIT\\n\\npragma solidity ^0.8.0;\\n\\nimport \\\"../utils/ContextUpgradeable.sol\\\";\\nimport \\\"../utils/StringsUpgradeable.sol\\\";\\nimport \\\"../utils/introspection/ERC165Upgradeable.sol\\\";\\nimport \\\"../proxy/utils/Initializable.sol\\\";\\n\\n/**\\n * @dev External interface of AccessControl declared to support ERC165 detection.\\n */\\ninterface IAccessControlUpgradeable {\\n    function hasRole(bytes32 role, address account) external view returns (bool);\\n    function getRoleAdmin(bytes32 role) external view returns (bytes32);\\n    function grantRole(bytes32 role, address account) external;\\n    function revokeRole(bytes32 role, address account) external;\\n    function renounceRole(bytes32 role, address account) external;\\n}\\n\\n/**\\n * @dev Contract module that allows children to implement role-based access\\n * control mechanisms. This is a lightweight version that doesn't allow enumerating role\\n * members except through off-chain means by accessing the contract event logs. Some\\n * applications may benefit from on-chain enumerability, for those cases see\\n * {AccessControlEnumerable}.\\n *\\n * Roles are referred to by their `bytes32` identifier. These should be exposed\\n * in the external API and be unique. The best way to achieve this is by\\n * using `public constant` hash digests:\\n *\\n * ```\\n * bytes32 public constant MY_ROLE = keccak256(\\\"MY_ROLE\\\");\\n * ```\\n *\\n * Roles can be used to represent a set of permissions. To restrict access to a\\n * function call, use {hasRole}:\\n *\\n * ```\\n * function foo() public {\\n *     require(hasRole(MY_ROLE, msg.sender));\\n *     ...\\n * }\\n * ```\\n *\\n * Roles can be granted and revoked dynamically via the {grantRole} and\\n * {revokeRole} functions. Each role has an associated admin role, and only\\n * accounts that have a role's admin role can call {grantRole} and {revokeRole}.\\n *\\n * By default, the admin role for all roles is `DEFAULT_ADMIN_ROLE`, which means\\n * that only accounts with this role will be able to grant or revoke other\\n * roles. More complex role relationships can be created by using\\n * {_setRoleAdmin}.\\n *\\n * WARNING: The `DEFAULT_ADMIN_ROLE` is also its own admin: it has permission to\\n * grant and revoke this role. Extra precautions should be taken to secure\\n * accounts that have been granted it.\\n */\\nabstract contract AccessControlUpgradeable is Initializable, ContextUpgradeable, IAccessControlUpgradeable, ERC165Upgradeable {\\n    function __AccessControl_init() internal initializer {\\n        __Context_init_unchained();\\n        __ERC165_init_unchained();\\n        __AccessControl_init_unchained();\\n    }\\n\\n    function __AccessControl_init_unchained() internal initializer {\\n    }\\n    struct RoleData {\\n        mapping (address => bool) members;\\n        bytes32 adminRole;\\n    }\\n\\n    mapping (bytes32 => RoleData) private _roles;\\n\\n    bytes32 public constant DEFAULT_ADMIN_ROLE = 0x00;\\n\\n    /**\\n     * @dev Emitted when `newAdminRole` is set as ``role``'s admin role, replacing `previousAdminRole`\\n     *\\n     * `DEFAULT_ADMIN_ROLE` is the starting admin for all roles, despite\\n     * {RoleAdminChanged} not being emitted signaling this.\\n     *\\n     * _Available since v3.1._\\n     */\\n    event RoleAdminChanged(bytes32 indexed role, bytes32 indexed previousAdminRole, bytes32 indexed newAdminRole);\\n\\n    /**\\n     * @dev Emitted when `account` is granted `role`.\\n     *\\n     * `sender` is the account that originated the contract call, an admin role\\n     * bearer except when using {_setupRole}.\\n     */\\n    event RoleGranted(bytes32 indexed role, address indexed account, address indexed sender);\\n\\n    /**\\n     * @dev Emitted when `account` is revoked `role`.\\n     *\\n     * `sender` is the account that originated the contract call:\\n     *   - if using `revokeRole`, it is the admin role bearer\\n     *   - if using `renounceRole`, it is the role bearer (i.e. `account`)\\n     */\\n    event RoleRevoked(bytes32 indexed role, address indexed account, address indexed sender);\\n\\n    /**\\n     * @dev Modifier that checks that an account has a specific role. Reverts\\n     * with a standardized message including the required role.\\n     *\\n     * The format of the revert reason is given by the following regular expression:\\n     *\\n     *  /^AccessControl: account (0x[0-9a-f]{20}) is missing role (0x[0-9a-f]{32})$/\\n     *\\n     * _Available since v4.1._\\n     */\\n    modifier onlyRole(bytes32 role) {\\n        _checkRole(role, _msgSender());\\n        _;\\n    }\\n\\n    /**\\n     * @dev See {IERC165-supportsInterface}.\\n     */\\n    function supportsInterface(bytes4 interfaceId) public view virtual override returns (bool) {\\n        return interfaceId == type(IAccessControlUpgradeable).interfaceId\\n            || super.supportsInterface(interfaceId);\\n    }\\n\\n    /**\\n     * @dev Returns `true` if `account` has been granted `role`.\\n     */\\n    function hasRole(bytes32 role, address account) public view override returns (bool) {\\n        return _roles[role].members[account];\\n    }\\n\\n    /**\\n     * @dev Revert with a standard message if `account` is missing `role`.\\n     *\\n     * The format of the revert reason is given by the following regular expression:\\n     *\\n     *  /^AccessControl: account (0x[0-9a-f]{20}) is missing role (0x[0-9a-f]{32})$/\\n     */\\n    function _checkRole(bytes32 role, address account) internal view {\\n        if(!hasRole(role, account)) {\\n            revert(string(abi.encodePacked(\\n                \\\"AccessControl: account \\\",\\n                StringsUpgradeable.toHexString(uint160(account), 20),\\n                \\\" is missing role \\\",\\n                StringsUpgradeable.toHexString(uint256(role), 32)\\n            )));\\n        }\\n    }\\n\\n    /**\\n     * @dev Returns the admin role that controls `role`. See {grantRole} and\\n     * {revokeRole}.\\n     *\\n     * To change a role's admin, use {_setRoleAdmin}.\\n     */\\n    function getRoleAdmin(bytes32 role) public view override returns (bytes32) {\\n        return _roles[role].adminRole;\\n    }\\n\\n    /**\\n     * @dev Grants `role` to `account`.\\n     *\\n     * If `account` had not been already granted `role`, emits a {RoleGranted}\\n     * event.\\n     *\\n     * Requirements:\\n     *\\n     * - the caller must have ``role``'s admin role.\\n     */\\n    function grantRole(bytes32 role, address account) public virtual override onlyRole(getRoleAdmin(role)) {\\n        _grantRole(role, account);\\n    }\\n\\n    /**\\n     * @dev Revokes `role` from `account`.\\n     *\\n     * If `account` had been granted `role`, emits a {RoleRevoked} event.\\n     *\\n     * Requirements:\\n     *\\n     * - the caller must have ``role``'s admin role.\\n     */\\n    function revokeRole(bytes32 role, address account) public virtual override onlyRole(getRoleAdmin(role)) {\\n        _revokeRole(role, account);\\n    }\\n\\n    /**\\n     * @dev Revokes `role` from the calling account.\\n     *\\n     * Roles are often managed via {grantRole} and {revokeRole}: this function's\\n     * purpose is to provide a mechanism for accounts to lose their privileges\\n     * if they are compromised (such as when a trusted device is misplaced).\\n     *\\n     * If the calling account had been granted `role`, emits a {RoleRevoked}\\n     * event.\\n     *\\n     * Requirements:\\n     *\\n     * - the caller must be `account`.\\n     */\\n    function renounceRole(bytes32 role, address account) public virtual override {\\n        require(account == _msgSender(), \\\"AccessControl: can only renounce roles for self\\\");\\n\\n        _revokeRole(role, account);\\n    }\\n\\n    /**\\n     * @dev Grants `role` to `account`.\\n     *\\n     * If `account` had not been already granted `role`, emits a {RoleGranted}\\n     * event. Note that unlike {grantRole}, this function doesn't perform any\\n     * checks on the calling account.\\n     *\\n     * [WARNING]\\n     * ====\\n     * This function should only be called from the constructor when setting\\n     * up the initial roles for the system.\\n     *\\n     * Using this function in any other way is effectively circumventing the admin\\n     * system imposed by {AccessControl}.\\n     * ====\\n     */\\n    function _setupRole(bytes32 role, address account) internal virtual {\\n        _grantRole(role, account);\\n    }\\n\\n    /**\\n     * @dev Sets `adminRole` as ``role``'s admin role.\\n     *\\n     * Emits a {RoleAdminChanged} event.\\n     */\\n    function _setRoleAdmin(bytes32 role, bytes32 adminRole) internal virtual {\\n        emit RoleAdminChanged(role, getRoleAdmin(role), adminRole);\\n        _roles[role].adminRole = adminRole;\\n    }\\n\\n    function _grantRole(bytes32 role, address account) private {\\n        if (!hasRole(role, account)) {\\n            _roles[role].members[account] = true;\\n            emit RoleGranted(role, account, _msgSender());\\n        }\\n    }\\n\\n    function _revokeRole(bytes32 role, address account) private {\\n        if (hasRole(role, account)) {\\n            _roles[role].members[account] = false;\\n            emit RoleRevoked(role, account, _msgSender());\\n        }\\n    }\\n    uint256[49] private __gap;\\n}\\n\",\"keccak256\":\"0x719f71989e630280a6902f857ef2b038d761ef2d0d51611f9da463be6c7c4be5\",\"license\":\"MIT\"},\"@openzeppelin/contracts-upgradeable/proxy/utils/Initializable.sol\":{\"content\":\"// SPDX-License-Identifier: MIT\\n\\n// solhint-disable-next-line compiler-version\\npragma solidity ^0.8.0;\\n\\n/**\\n * @dev This is a base contract to aid in writing upgradeable contracts, or any kind of contract that will be deployed\\n * behind a proxy. Since a proxied contract can't have a constructor, it's common to move constructor logic to an\\n * external initializer function, usually called `initialize`. It then becomes necessary to protect this initializer\\n * function so it can only be called once. The {initializer} modifier provided by this contract will have this effect.\\n *\\n * TIP: To avoid leaving the proxy in an uninitialized state, the initializer function should be called as early as\\n * possible by providing the encoded function call as the `_data` argument to {ERC1967Proxy-constructor}.\\n *\\n * CAUTION: When used with inheritance, manual care must be taken to not invoke a parent initializer twice, or to ensure\\n * that all initializers are idempotent. This is not verified automatically as constructors are by Solidity.\\n */\\nabstract contract Initializable {\\n\\n    /**\\n     * @dev Indicates that the contract has been initialized.\\n     */\\n    bool private _initialized;\\n\\n    /**\\n     * @dev Indicates that the contract is in the process of being initialized.\\n     */\\n    bool private _initializing;\\n\\n    /**\\n     * @dev Modifier to protect an initializer function from being invoked twice.\\n     */\\n    modifier initializer() {\\n        require(_initializing || !_initialized, \\\"Initializable: contract is already initialized\\\");\\n\\n        bool isTopLevelCall = !_initializing;\\n        if (isTopLevelCall) {\\n            _initializing = true;\\n            _initialized = true;\\n        }\\n\\n        _;\\n\\n        if (isTopLevelCall) {\\n            _initializing = false;\\n        }\\n    }\\n}\\n\",\"keccak256\":\"0x67d2f282a9678e58e878a0b774041ba7a01e2740a262aea97a3f681339914713\",\"license\":\"MIT\"},\"@openzeppelin/contracts-upgradeable/token/ERC20/ERC20Upgradeable.sol\":{\"content\":\"// SPDX-License-Identifier: MIT\\n\\npragma solidity ^0.8.0;\\n\\nimport \\\"./IERC20Upgradeable.sol\\\";\\nimport \\\"./extensions/IERC20MetadataUpgradeable.sol\\\";\\nimport \\\"../../utils/ContextUpgradeable.sol\\\";\\nimport \\\"../../proxy/utils/Initializable.sol\\\";\\n\\n/**\\n * @dev Implementation of the {IERC20} interface.\\n *\\n * This implementation is agnostic to the way tokens are created. This means\\n * that a supply mechanism has to be added in a derived contract using {_mint}.\\n * For a generic mechanism see {ERC20PresetMinterPauser}.\\n *\\n * TIP: For a detailed writeup see our guide\\n * https://forum.zeppelin.solutions/t/how-to-implement-erc20-supply-mechanisms/226[How\\n * to implement supply mechanisms].\\n *\\n * We have followed general OpenZeppelin guidelines: functions revert instead\\n * of returning `false` on failure. This behavior is nonetheless conventional\\n * and does not conflict with the expectations of ERC20 applications.\\n *\\n * Additionally, an {Approval} event is emitted on calls to {transferFrom}.\\n * This allows applications to reconstruct the allowance for all accounts just\\n * by listening to said events. Other implementations of the EIP may not emit\\n * these events, as it isn't required by the specification.\\n *\\n * Finally, the non-standard {decreaseAllowance} and {increaseAllowance}\\n * functions have been added to mitigate the well-known issues around setting\\n * allowances. See {IERC20-approve}.\\n */\\ncontract ERC20Upgradeable is Initializable, ContextUpgradeable, IERC20Upgradeable, IERC20MetadataUpgradeable {\\n    mapping (address => uint256) private _balances;\\n\\n    mapping (address => mapping (address => uint256)) private _allowances;\\n\\n    uint256 private _totalSupply;\\n\\n    string private _name;\\n    string private _symbol;\\n\\n    /**\\n     * @dev Sets the values for {name} and {symbol}.\\n     *\\n     * The defaut value of {decimals} is 18. To select a different value for\\n     * {decimals} you should overload it.\\n     *\\n     * All two of these values are immutable: they can only be set once during\\n     * construction.\\n     */\\n    function __ERC20_init(string memory name_, string memory symbol_) internal initializer {\\n        __Context_init_unchained();\\n        __ERC20_init_unchained(name_, symbol_);\\n    }\\n\\n    function __ERC20_init_unchained(string memory name_, string memory symbol_) internal initializer {\\n        _name = name_;\\n        _symbol = symbol_;\\n    }\\n\\n    /**\\n     * @dev Returns the name of the token.\\n     */\\n    function name() public view virtual override returns (string memory) {\\n        return _name;\\n    }\\n\\n    /**\\n     * @dev Returns the symbol of the token, usually a shorter version of the\\n     * name.\\n     */\\n    function symbol() public view virtual override returns (string memory) {\\n        return _symbol;\\n    }\\n\\n    /**\\n     * @dev Returns the number of decimals used to get its user representation.\\n     * For example, if `decimals` equals `2`, a balance of `505` tokens should\\n     * be displayed to a user as `5,05` (`505 / 10 ** 2`).\\n     *\\n     * Tokens usually opt for a value of 18, imitating the relationship between\\n     * Ether and Wei. This is the value {ERC20} uses, unless this function is\\n     * overridden;\\n     *\\n     * NOTE: This information is only used for _display_ purposes: it in\\n     * no way affects any of the arithmetic of the contract, including\\n     * {IERC20-balanceOf} and {IERC20-transfer}.\\n     */\\n    function decimals() public view virtual override returns (uint8) {\\n        return 18;\\n    }\\n\\n    /**\\n     * @dev See {IERC20-totalSupply}.\\n     */\\n    function totalSupply() public view virtual override returns (uint256) {\\n        return _totalSupply;\\n    }\\n\\n    /**\\n     * @dev See {IERC20-balanceOf}.\\n     */\\n    function balanceOf(address account) public view virtual override returns (uint256) {\\n        return _balances[account];\\n    }\\n\\n    /**\\n     * @dev See {IERC20-transfer}.\\n     *\\n     * Requirements:\\n     *\\n     * - `recipient` cannot be the zero address.\\n     * - the caller must have a balance of at least `amount`.\\n     */\\n    function transfer(address recipient, uint256 amount) public virtual override returns (bool) {\\n        _transfer(_msgSender(), recipient, amount);\\n        return true;\\n    }\\n\\n    /**\\n     * @dev See {IERC20-allowance}.\\n     */\\n    function allowance(address owner, address spender) public view virtual override returns (uint256) {\\n        return _allowances[owner][spender];\\n    }\\n\\n    /**\\n     * @dev See {IERC20-approve}.\\n     *\\n     * Requirements:\\n     *\\n     * - `spender` cannot be the zero address.\\n     */\\n    function approve(address spender, uint256 amount) public virtual override returns (bool) {\\n        _approve(_msgSender(), spender, amount);\\n        return true;\\n    }\\n\\n    /**\\n     * @dev See {IERC20-transferFrom}.\\n     *\\n     * Emits an {Approval} event indicating the updated allowance. This is not\\n     * required by the EIP. See the note at the beginning of {ERC20}.\\n     *\\n     * Requirements:\\n     *\\n     * - `sender` and `recipient` cannot be the zero address.\\n     * - `sender` must have a balance of at least `amount`.\\n     * - the caller must have allowance for ``sender``'s tokens of at least\\n     * `amount`.\\n     */\\n    function transferFrom(address sender, address recipient, uint256 amount) public virtual override returns (bool) {\\n        _transfer(sender, recipient, amount);\\n\\n        uint256 currentAllowance = _allowances[sender][_msgSender()];\\n        require(currentAllowance >= amount, \\\"ERC20: transfer amount exceeds allowance\\\");\\n        _approve(sender, _msgSender(), currentAllowance - amount);\\n\\n        return true;\\n    }\\n\\n    /**\\n     * @dev Atomically increases the allowance granted to `spender` by the caller.\\n     *\\n     * This is an alternative to {approve} that can be used as a mitigation for\\n     * problems described in {IERC20-approve}.\\n     *\\n     * Emits an {Approval} event indicating the updated allowance.\\n     *\\n     * Requirements:\\n     *\\n     * - `spender` cannot be the zero address.\\n     */\\n    function increaseAllowance(address spender, uint256 addedValue) public virtual returns (bool) {\\n        _approve(_msgSender(), spender, _allowances[_msgSender()][spender] + addedValue);\\n        return true;\\n    }\\n\\n    /**\\n     * @dev Atomically decreases the allowance granted to `spender` by the caller.\\n     *\\n     * This is an alternative to {approve} that can be used as a mitigation for\\n     * problems described in {IERC20-approve}.\\n     *\\n     * Emits an {Approval} event indicating the updated allowance.\\n     *\\n     * Requirements:\\n     *\\n     * - `spender` cannot be the zero address.\\n     * - `spender` must have allowance for the caller of at least\\n     * `subtractedValue`.\\n     */\\n    function decreaseAllowance(address spender, uint256 subtractedValue) public virtual returns (bool) {\\n        uint256 currentAllowance = _allowances[_msgSender()][spender];\\n        require(currentAllowance >= subtractedValue, \\\"ERC20: decreased allowance below zero\\\");\\n        _approve(_msgSender(), spender, currentAllowance - subtractedValue);\\n\\n        return true;\\n    }\\n\\n    /**\\n     * @dev Moves tokens `amount` from `sender` to `recipient`.\\n     *\\n     * This is internal function is equivalent to {transfer}, and can be used to\\n     * e.g. implement automatic token fees, slashing mechanisms, etc.\\n     *\\n     * Emits a {Transfer} event.\\n     *\\n     * Requirements:\\n     *\\n     * - `sender` cannot be the zero address.\\n     * - `recipient` cannot be the zero address.\\n     * - `sender` must have a balance of at least `amount`.\\n     */\\n    function _transfer(address sender, address recipient, uint256 amount) internal virtual {\\n        require(sender != address(0), \\\"ERC20: transfer from the zero address\\\");\\n        require(recipient != address(0), \\\"ERC20: transfer to the zero address\\\");\\n\\n        _beforeTokenTransfer(sender, recipient, amount);\\n\\n        uint256 senderBalance = _balances[sender];\\n        require(senderBalance >= amount, \\\"ERC20: transfer amount exceeds balance\\\");\\n        _balances[sender] = senderBalance - amount;\\n        _balances[recipient] += amount;\\n\\n        emit Transfer(sender, recipient, amount);\\n    }\\n\\n    /** @dev Creates `amount` tokens and assigns them to `account`, increasing\\n     * the total supply.\\n     *\\n     * Emits a {Transfer} event with `from` set to the zero address.\\n     *\\n     * Requirements:\\n     *\\n     * - `to` cannot be the zero address.\\n     */\\n    function _mint(address account, uint256 amount) internal virtual {\\n        require(account != address(0), \\\"ERC20: mint to the zero address\\\");\\n\\n        _beforeTokenTransfer(address(0), account, amount);\\n\\n        _totalSupply += amount;\\n        _balances[account] += amount;\\n        emit Transfer(address(0), account, amount);\\n    }\\n\\n    /**\\n     * @dev Destroys `amount` tokens from `account`, reducing the\\n     * total supply.\\n     *\\n     * Emits a {Transfer} event with `to` set to the zero address.\\n     *\\n     * Requirements:\\n     *\\n     * - `account` cannot be the zero address.\\n     * - `account` must have at least `amount` tokens.\\n     */\\n    function _burn(address account, uint256 amount) internal virtual {\\n        require(account != address(0), \\\"ERC20: burn from the zero address\\\");\\n\\n        _beforeTokenTransfer(account, address(0), amount);\\n\\n        uint256 accountBalance = _balances[account];\\n        require(accountBalance >= amount, \\\"ERC20: burn amount exceeds balance\\\");\\n        _balances[account] = accountBalance - amount;\\n        _totalSupply -= amount;\\n\\n        emit Transfer(account, address(0), amount);\\n    }\\n\\n    /**\\n     * @dev Sets `amount` as the allowance of `spender` over the `owner` s tokens.\\n     *\\n     * This internal function is equivalent to `approve`, and can be used to\\n     * e.g. set automatic allowances for certain subsystems, etc.\\n     *\\n     * Emits an {Approval} event.\\n     *\\n     * Requirements:\\n     *\\n     * - `owner` cannot be the zero address.\\n     * - `spender` cannot be the zero address.\\n     */\\n    function _approve(address owner, address spender, uint256 amount) internal virtual {\\n        require(owner != address(0), \\\"ERC20: approve from the zero address\\\");\\n        require(spender != address(0), \\\"ERC20: approve to the zero address\\\");\\n\\n        _allowances[owner][spender] = amount;\\n        emit Approval(owner, spender, amount);\\n    }\\n\\n    /**\\n     * @dev Hook that is called before any transfer of tokens. This includes\\n     * minting and burning.\\n     *\\n     * Calling conditions:\\n     *\\n     * - when `from` and `to` are both non-zero, `amount` of ``from``'s tokens\\n     * will be to transferred to `to`.\\n     * - when `from` is zero, `amount` tokens will be minted for `to`.\\n     * - when `to` is zero, `amount` of ``from``'s tokens will be burned.\\n     * - `from` and `to` are never both zero.\\n     *\\n     * To learn more about hooks, head to xref:ROOT:extending-contracts.adoc#using-hooks[Using Hooks].\\n     */\\n    function _beforeTokenTransfer(address from, address to, uint256 amount) internal virtual { }\\n    uint256[45] private __gap;\\n}\\n\",\"keccak256\":\"0x9c2d7425f3343ea340d6ea67e9d90109d4d846bb013c2572096ec88c9e74946b\",\"license\":\"MIT\"},\"@openzeppelin/contracts-upgradeable/token/ERC20/IERC20Upgradeable.sol\":{\"content\":\"// SPDX-License-Identifier: MIT\\n\\npragma solidity ^0.8.0;\\n\\n/**\\n * @dev Interface of the ERC20 standard as defined in the EIP.\\n */\\ninterface IERC20Upgradeable {\\n    /**\\n     * @dev Returns the amount of tokens in existence.\\n     */\\n    function totalSupply() external view returns (uint256);\\n\\n    /**\\n     * @dev Returns the amount of tokens owned by `account`.\\n     */\\n    function balanceOf(address account) external view returns (uint256);\\n\\n    /**\\n     * @dev Moves `amount` tokens from the caller's account to `recipient`.\\n     *\\n     * Returns a boolean value indicating whether the operation succeeded.\\n     *\\n     * Emits a {Transfer} event.\\n     */\\n    function transfer(address recipient, uint256 amount) external returns (bool);\\n\\n    /**\\n     * @dev Returns the remaining number of tokens that `spender` will be\\n     * allowed to spend on behalf of `owner` through {transferFrom}. This is\\n     * zero by default.\\n     *\\n     * This value changes when {approve} or {transferFrom} are called.\\n     */\\n    function allowance(address owner, address spender) external view returns (uint256);\\n\\n    /**\\n     * @dev Sets `amount` as the allowance of `spender` over the caller's tokens.\\n     *\\n     * Returns a boolean value indicating whether the operation succeeded.\\n     *\\n     * IMPORTANT: Beware that changing an allowance with this method brings the risk\\n     * that someone may use both the old and the new allowance by unfortunate\\n     * transaction ordering. One possible solution to mitigate this race\\n     * condition is to first reduce the spender's allowance to 0 and set the\\n     * desired value afterwards:\\n     * https://github.com/ethereum/EIPs/issues/20#issuecomment-263524729\\n     *\\n     * Emits an {Approval} event.\\n     */\\n    function approve(address spender, uint256 amount) external returns (bool);\\n\\n    /**\\n     * @dev Moves `amount` tokens from `sender` to `recipient` using the\\n     * allowance mechanism. `amount` is then deducted from the caller's\\n     * allowance.\\n     *\\n     * Returns a boolean value indicating whether the operation succeeded.\\n     *\\n     * Emits a {Transfer} event.\\n     */\\n    function transferFrom(address sender, address recipient, uint256 amount) external returns (bool);\\n\\n    /**\\n     * @dev Emitted when `value` tokens are moved from one account (`from`) to\\n     * another (`to`).\\n     *\\n     * Note that `value` may be zero.\\n     */\\n    event Transfer(address indexed from, address indexed to, uint256 value);\\n\\n    /**\\n     * @dev Emitted when the allowance of a `spender` for an `owner` is set by\\n     * a call to {approve}. `value` is the new allowance.\\n     */\\n    event Approval(address indexed owner, address indexed spender, uint256 value);\\n}\\n\",\"keccak256\":\"0x8d4a0f2b5b760b5e2c19ed3c108d83897a4dfd5bfed97a93867918df19191e5e\",\"license\":\"MIT\"},\"@openzeppelin/contracts-upgradeable/token/ERC20/extensions/IERC20MetadataUpgradeable.sol\":{\"content\":\"// SPDX-License-Identifier: MIT\\n\\npragma solidity ^0.8.0;\\n\\nimport \\\"../IERC20Upgradeable.sol\\\";\\n\\n/**\\n * @dev Interface for the optional metadata functions from the ERC20 standard.\\n *\\n * _Available since v4.1._\\n */\\ninterface IERC20MetadataUpgradeable is IERC20Upgradeable {\\n    /**\\n     * @dev Returns the name of the token.\\n     */\\n    function name() external view returns (string memory);\\n\\n    /**\\n     * @dev Returns the symbol of the token.\\n     */\\n    function symbol() external view returns (string memory);\\n\\n    /**\\n     * @dev Returns the decimals places of the token.\\n     */\\n    function decimals() external view returns (uint8);\\n}\\n\",\"keccak256\":\"0x6795c369a4eefa78468e38966f7851fbc2dda5e5b9ccd3fa2b45970e2e4d3abd\",\"license\":\"MIT\"},\"@openzeppelin/contracts-upgradeable/token/ERC721/ERC721Upgradeable.sol\":{\"content\":\"// SPDX-License-Identifier: MIT\\n\\npragma solidity ^0.8.0;\\n\\nimport \\\"./IERC721Upgradeable.sol\\\";\\nimport \\\"./IERC721ReceiverUpgradeable.sol\\\";\\nimport \\\"./extensions/IERC721MetadataUpgradeable.sol\\\";\\nimport \\\"../../utils/AddressUpgradeable.sol\\\";\\nimport \\\"../../utils/ContextUpgradeable.sol\\\";\\nimport \\\"../../utils/StringsUpgradeable.sol\\\";\\nimport \\\"../../utils/introspection/ERC165Upgradeable.sol\\\";\\nimport \\\"../../proxy/utils/Initializable.sol\\\";\\n\\n/**\\n * @dev Implementation of https://eips.ethereum.org/EIPS/eip-721[ERC721] Non-Fungible Token Standard, including\\n * the Metadata extension, but not including the Enumerable extension, which is available separately as\\n * {ERC721Enumerable}.\\n */\\ncontract ERC721Upgradeable is Initializable, ContextUpgradeable, ERC165Upgradeable, IERC721Upgradeable, IERC721MetadataUpgradeable {\\n    using AddressUpgradeable for address;\\n    using StringsUpgradeable for uint256;\\n\\n    // Token name\\n    string private _name;\\n\\n    // Token symbol\\n    string private _symbol;\\n\\n    // Mapping from token ID to owner address\\n    mapping (uint256 => address) private _owners;\\n\\n    // Mapping owner address to token count\\n    mapping (address => uint256) private _balances;\\n\\n    // Mapping from token ID to approved address\\n    mapping (uint256 => address) private _tokenApprovals;\\n\\n    // Mapping from owner to operator approvals\\n    mapping (address => mapping (address => bool)) private _operatorApprovals;\\n\\n    /**\\n     * @dev Initializes the contract by setting a `name` and a `symbol` to the token collection.\\n     */\\n    function __ERC721_init(string memory name_, string memory symbol_) internal initializer {\\n        __Context_init_unchained();\\n        __ERC165_init_unchained();\\n        __ERC721_init_unchained(name_, symbol_);\\n    }\\n\\n    function __ERC721_init_unchained(string memory name_, string memory symbol_) internal initializer {\\n        _name = name_;\\n        _symbol = symbol_;\\n    }\\n\\n    /**\\n     * @dev See {IERC165-supportsInterface}.\\n     */\\n    function supportsInterface(bytes4 interfaceId) public view virtual override(ERC165Upgradeable, IERC165Upgradeable) returns (bool) {\\n        return interfaceId == type(IERC721Upgradeable).interfaceId\\n            || interfaceId == type(IERC721MetadataUpgradeable).interfaceId\\n            || super.supportsInterface(interfaceId);\\n    }\\n\\n    /**\\n     * @dev See {IERC721-balanceOf}.\\n     */\\n    function balanceOf(address owner) public view virtual override returns (uint256) {\\n        require(owner != address(0), \\\"ERC721: balance query for the zero address\\\");\\n        return _balances[owner];\\n    }\\n\\n    /**\\n     * @dev See {IERC721-ownerOf}.\\n     */\\n    function ownerOf(uint256 tokenId) public view virtual override returns (address) {\\n        address owner = _owners[tokenId];\\n        require(owner != address(0), \\\"ERC721: owner query for nonexistent token\\\");\\n        return owner;\\n    }\\n\\n    /**\\n     * @dev See {IERC721Metadata-name}.\\n     */\\n    function name() public view virtual override returns (string memory) {\\n        return _name;\\n    }\\n\\n    /**\\n     * @dev See {IERC721Metadata-symbol}.\\n     */\\n    function symbol() public view virtual override returns (string memory) {\\n        return _symbol;\\n    }\\n\\n    /**\\n     * @dev See {IERC721Metadata-tokenURI}.\\n     */\\n    function tokenURI(uint256 tokenId) public view virtual override returns (string memory) {\\n        require(_exists(tokenId), \\\"ERC721Metadata: URI query for nonexistent token\\\");\\n\\n        string memory baseURI = _baseURI();\\n        return bytes(baseURI).length > 0\\n            ? string(abi.encodePacked(baseURI, tokenId.toString()))\\n            : '';\\n    }\\n\\n    /**\\n     * @dev Base URI for computing {tokenURI}. Empty by default, can be overriden\\n     * in child contracts.\\n     */\\n    function _baseURI() internal view virtual returns (string memory) {\\n        return \\\"\\\";\\n    }\\n\\n    /**\\n     * @dev See {IERC721-approve}.\\n     */\\n    function approve(address to, uint256 tokenId) public virtual override {\\n        address owner = ERC721Upgradeable.ownerOf(tokenId);\\n        require(to != owner, \\\"ERC721: approval to current owner\\\");\\n\\n        require(_msgSender() == owner || isApprovedForAll(owner, _msgSender()),\\n            \\\"ERC721: approve caller is not owner nor approved for all\\\"\\n        );\\n\\n        _approve(to, tokenId);\\n    }\\n\\n    /**\\n     * @dev See {IERC721-getApproved}.\\n     */\\n    function getApproved(uint256 tokenId) public view virtual override returns (address) {\\n        require(_exists(tokenId), \\\"ERC721: approved query for nonexistent token\\\");\\n\\n        return _tokenApprovals[tokenId];\\n    }\\n\\n    /**\\n     * @dev See {IERC721-setApprovalForAll}.\\n     */\\n    function setApprovalForAll(address operator, bool approved) public virtual override {\\n        require(operator != _msgSender(), \\\"ERC721: approve to caller\\\");\\n\\n        _operatorApprovals[_msgSender()][operator] = approved;\\n        emit ApprovalForAll(_msgSender(), operator, approved);\\n    }\\n\\n    /**\\n     * @dev See {IERC721-isApprovedForAll}.\\n     */\\n    function isApprovedForAll(address owner, address operator) public view virtual override returns (bool) {\\n        return _operatorApprovals[owner][operator];\\n    }\\n\\n    /**\\n     * @dev See {IERC721-transferFrom}.\\n     */\\n    function transferFrom(address from, address to, uint256 tokenId) public virtual override {\\n        //solhint-disable-next-line max-line-length\\n        require(_isApprovedOrOwner(_msgSender(), tokenId), \\\"ERC721: transfer caller is not owner nor approved\\\");\\n\\n        _transfer(from, to, tokenId);\\n    }\\n\\n    /**\\n     * @dev See {IERC721-safeTransferFrom}.\\n     */\\n    function safeTransferFrom(address from, address to, uint256 tokenId) public virtual override {\\n        safeTransferFrom(from, to, tokenId, \\\"\\\");\\n    }\\n\\n    /**\\n     * @dev See {IERC721-safeTransferFrom}.\\n     */\\n    function safeTransferFrom(address from, address to, uint256 tokenId, bytes memory _data) public virtual override {\\n        require(_isApprovedOrOwner(_msgSender(), tokenId), \\\"ERC721: transfer caller is not owner nor approved\\\");\\n        _safeTransfer(from, to, tokenId, _data);\\n    }\\n\\n    /**\\n     * @dev Safely transfers `tokenId` token from `from` to `to`, checking first that contract recipients\\n     * are aware of the ERC721 protocol to prevent tokens from being forever locked.\\n     *\\n     * `_data` is additional data, it has no specified format and it is sent in call to `to`.\\n     *\\n     * This internal function is equivalent to {safeTransferFrom}, and can be used to e.g.\\n     * implement alternative mechanisms to perform token transfer, such as signature-based.\\n     *\\n     * Requirements:\\n     *\\n     * - `from` cannot be the zero address.\\n     * - `to` cannot be the zero address.\\n     * - `tokenId` token must exist and be owned by `from`.\\n     * - If `to` refers to a smart contract, it must implement {IERC721Receiver-onERC721Received}, which is called upon a safe transfer.\\n     *\\n     * Emits a {Transfer} event.\\n     */\\n    function _safeTransfer(address from, address to, uint256 tokenId, bytes memory _data) internal virtual {\\n        _transfer(from, to, tokenId);\\n        require(_checkOnERC721Received(from, to, tokenId, _data), \\\"ERC721: transfer to non ERC721Receiver implementer\\\");\\n    }\\n\\n    /**\\n     * @dev Returns whether `tokenId` exists.\\n     *\\n     * Tokens can be managed by their owner or approved accounts via {approve} or {setApprovalForAll}.\\n     *\\n     * Tokens start existing when they are minted (`_mint`),\\n     * and stop existing when they are burned (`_burn`).\\n     */\\n    function _exists(uint256 tokenId) internal view virtual returns (bool) {\\n        return _owners[tokenId] != address(0);\\n    }\\n\\n    /**\\n     * @dev Returns whether `spender` is allowed to manage `tokenId`.\\n     *\\n     * Requirements:\\n     *\\n     * - `tokenId` must exist.\\n     */\\n    function _isApprovedOrOwner(address spender, uint256 tokenId) internal view virtual returns (bool) {\\n        require(_exists(tokenId), \\\"ERC721: operator query for nonexistent token\\\");\\n        address owner = ERC721Upgradeable.ownerOf(tokenId);\\n        return (spender == owner || getApproved(tokenId) == spender || isApprovedForAll(owner, spender));\\n    }\\n\\n    /**\\n     * @dev Safely mints `tokenId` and transfers it to `to`.\\n     *\\n     * Requirements:\\n     *\\n     * - `tokenId` must not exist.\\n     * - If `to` refers to a smart contract, it must implement {IERC721Receiver-onERC721Received}, which is called upon a safe transfer.\\n     *\\n     * Emits a {Transfer} event.\\n     */\\n    function _safeMint(address to, uint256 tokenId) internal virtual {\\n        _safeMint(to, tokenId, \\\"\\\");\\n    }\\n\\n    /**\\n     * @dev Same as {xref-ERC721-_safeMint-address-uint256-}[`_safeMint`], with an additional `data` parameter which is\\n     * forwarded in {IERC721Receiver-onERC721Received} to contract recipients.\\n     */\\n    function _safeMint(address to, uint256 tokenId, bytes memory _data) internal virtual {\\n        _mint(to, tokenId);\\n        require(_checkOnERC721Received(address(0), to, tokenId, _data), \\\"ERC721: transfer to non ERC721Receiver implementer\\\");\\n    }\\n\\n    /**\\n     * @dev Mints `tokenId` and transfers it to `to`.\\n     *\\n     * WARNING: Usage of this method is discouraged, use {_safeMint} whenever possible\\n     *\\n     * Requirements:\\n     *\\n     * - `tokenId` must not exist.\\n     * - `to` cannot be the zero address.\\n     *\\n     * Emits a {Transfer} event.\\n     */\\n    function _mint(address to, uint256 tokenId) internal virtual {\\n        require(to != address(0), \\\"ERC721: mint to the zero address\\\");\\n        require(!_exists(tokenId), \\\"ERC721: token already minted\\\");\\n\\n        _beforeTokenTransfer(address(0), to, tokenId);\\n\\n        _balances[to] += 1;\\n        _owners[tokenId] = to;\\n\\n        emit Transfer(address(0), to, tokenId);\\n    }\\n\\n    /**\\n     * @dev Destroys `tokenId`.\\n     * The approval is cleared when the token is burned.\\n     *\\n     * Requirements:\\n     *\\n     * - `tokenId` must exist.\\n     *\\n     * Emits a {Transfer} event.\\n     */\\n    function _burn(uint256 tokenId) internal virtual {\\n        address owner = ERC721Upgradeable.ownerOf(tokenId);\\n\\n        _beforeTokenTransfer(owner, address(0), tokenId);\\n\\n        // Clear approvals\\n        _approve(address(0), tokenId);\\n\\n        _balances[owner] -= 1;\\n        delete _owners[tokenId];\\n\\n        emit Transfer(owner, address(0), tokenId);\\n    }\\n\\n    /**\\n     * @dev Transfers `tokenId` from `from` to `to`.\\n     *  As opposed to {transferFrom}, this imposes no restrictions on msg.sender.\\n     *\\n     * Requirements:\\n     *\\n     * - `to` cannot be the zero address.\\n     * - `tokenId` token must be owned by `from`.\\n     *\\n     * Emits a {Transfer} event.\\n     */\\n    function _transfer(address from, address to, uint256 tokenId) internal virtual {\\n        require(ERC721Upgradeable.ownerOf(tokenId) == from, \\\"ERC721: transfer of token that is not own\\\");\\n        require(to != address(0), \\\"ERC721: transfer to the zero address\\\");\\n\\n        _beforeTokenTransfer(from, to, tokenId);\\n\\n        // Clear approvals from the previous owner\\n        _approve(address(0), tokenId);\\n\\n        _balances[from] -= 1;\\n        _balances[to] += 1;\\n        _owners[tokenId] = to;\\n\\n        emit Transfer(from, to, tokenId);\\n    }\\n\\n    /**\\n     * @dev Approve `to` to operate on `tokenId`\\n     *\\n     * Emits a {Approval} event.\\n     */\\n    function _approve(address to, uint256 tokenId) internal virtual {\\n        _tokenApprovals[tokenId] = to;\\n        emit Approval(ERC721Upgradeable.ownerOf(tokenId), to, tokenId);\\n    }\\n\\n    /**\\n     * @dev Internal function to invoke {IERC721Receiver-onERC721Received} on a target address.\\n     * The call is not executed if the target address is not a contract.\\n     *\\n     * @param from address representing the previous owner of the given token ID\\n     * @param to target address that will receive the tokens\\n     * @param tokenId uint256 ID of the token to be transferred\\n     * @param _data bytes optional data to send along with the call\\n     * @return bool whether the call correctly returned the expected magic value\\n     */\\n    function _checkOnERC721Received(address from, address to, uint256 tokenId, bytes memory _data)\\n        private returns (bool)\\n    {\\n        if (to.isContract()) {\\n            try IERC721ReceiverUpgradeable(to).onERC721Received(_msgSender(), from, tokenId, _data) returns (bytes4 retval) {\\n                return retval == IERC721ReceiverUpgradeable(to).onERC721Received.selector;\\n            } catch (bytes memory reason) {\\n                if (reason.length == 0) {\\n                    revert(\\\"ERC721: transfer to non ERC721Receiver implementer\\\");\\n                } else {\\n                    // solhint-disable-next-line no-inline-assembly\\n                    assembly {\\n                        revert(add(32, reason), mload(reason))\\n                    }\\n                }\\n            }\\n        } else {\\n            return true;\\n        }\\n    }\\n\\n    /**\\n     * @dev Hook that is called before any token transfer. This includes minting\\n     * and burning.\\n     *\\n     * Calling conditions:\\n     *\\n     * - When `from` and `to` are both non-zero, ``from``'s `tokenId` will be\\n     * transferred to `to`.\\n     * - When `from` is zero, `tokenId` will be minted for `to`.\\n     * - When `to` is zero, ``from``'s `tokenId` will be burned.\\n     * - `from` cannot be the zero address.\\n     * - `to` cannot be the zero address.\\n     *\\n     * To learn more about hooks, head to xref:ROOT:extending-contracts.adoc#using-hooks[Using Hooks].\\n     */\\n    function _beforeTokenTransfer(address from, address to, uint256 tokenId) internal virtual { }\\n    uint256[44] private __gap;\\n}\\n\",\"keccak256\":\"0x2ab92ebd3f4d4d85f30b39bd678ec3489e00aadd0a432c7a0ffa98adc2799004\",\"license\":\"MIT\"},\"@openzeppelin/contracts-upgradeable/token/ERC721/IERC721ReceiverUpgradeable.sol\":{\"content\":\"// SPDX-License-Identifier: MIT\\n\\npragma solidity ^0.8.0;\\n\\n/**\\n * @title ERC721 token receiver interface\\n * @dev Interface for any contract that wants to support safeTransfers\\n * from ERC721 asset contracts.\\n */\\ninterface IERC721ReceiverUpgradeable {\\n    /**\\n     * @dev Whenever an {IERC721} `tokenId` token is transferred to this contract via {IERC721-safeTransferFrom}\\n     * by `operator` from `from`, this function is called.\\n     *\\n     * It must return its Solidity selector to confirm the token transfer.\\n     * If any other value is returned or the interface is not implemented by the recipient, the transfer will be reverted.\\n     *\\n     * The selector can be obtained in Solidity with `IERC721.onERC721Received.selector`.\\n     */\\n    function onERC721Received(address operator, address from, uint256 tokenId, bytes calldata data) external returns (bytes4);\\n}\\n\",\"keccak256\":\"0x33620beff0655c5e728a72fff76fb6ce2dc32fc6b61eb8e435b12ed1adf31525\",\"license\":\"MIT\"},\"@openzeppelin/contracts-upgradeable/token/ERC721/IERC721Upgradeable.sol\":{\"content\":\"// SPDX-License-Identifier: MIT\\n\\npragma solidity ^0.8.0;\\n\\nimport \\\"../../utils/introspection/IERC165Upgradeable.sol\\\";\\n\\n/**\\n * @dev Required interface of an ERC721 compliant contract.\\n */\\ninterface IERC721Upgradeable is IERC165Upgradeable {\\n    /**\\n     * @dev Emitted when `tokenId` token is transferred from `from` to `to`.\\n     */\\n    event Transfer(address indexed from, address indexed to, uint256 indexed tokenId);\\n\\n    /**\\n     * @dev Emitted when `owner` enables `approved` to manage the `tokenId` token.\\n     */\\n    event Approval(address indexed owner, address indexed approved, uint256 indexed tokenId);\\n\\n    /**\\n     * @dev Emitted when `owner` enables or disables (`approved`) `operator` to manage all of its assets.\\n     */\\n    event ApprovalForAll(address indexed owner, address indexed operator, bool approved);\\n\\n    /**\\n     * @dev Returns the number of tokens in ``owner``'s account.\\n     */\\n    function balanceOf(address owner) external view returns (uint256 balance);\\n\\n    /**\\n     * @dev Returns the owner of the `tokenId` token.\\n     *\\n     * Requirements:\\n     *\\n     * - `tokenId` must exist.\\n     */\\n    function ownerOf(uint256 tokenId) external view returns (address owner);\\n\\n    /**\\n     * @dev Safely transfers `tokenId` token from `from` to `to`, checking first that contract recipients\\n     * are aware of the ERC721 protocol to prevent tokens from being forever locked.\\n     *\\n     * Requirements:\\n     *\\n     * - `from` cannot be the zero address.\\n     * - `to` cannot be the zero address.\\n     * - `tokenId` token must exist and be owned by `from`.\\n     * - If the caller is not `from`, it must be have been allowed to move this token by either {approve} or {setApprovalForAll}.\\n     * - If `to` refers to a smart contract, it must implement {IERC721Receiver-onERC721Received}, which is called upon a safe transfer.\\n     *\\n     * Emits a {Transfer} event.\\n     */\\n    function safeTransferFrom(address from, address to, uint256 tokenId) external;\\n\\n    /**\\n     * @dev Transfers `tokenId` token from `from` to `to`.\\n     *\\n     * WARNING: Usage of this method is discouraged, use {safeTransferFrom} whenever possible.\\n     *\\n     * Requirements:\\n     *\\n     * - `from` cannot be the zero address.\\n     * - `to` cannot be the zero address.\\n     * - `tokenId` token must be owned by `from`.\\n     * - If the caller is not `from`, it must be approved to move this token by either {approve} or {setApprovalForAll}.\\n     *\\n     * Emits a {Transfer} event.\\n     */\\n    function transferFrom(address from, address to, uint256 tokenId) external;\\n\\n    /**\\n     * @dev Gives permission to `to` to transfer `tokenId` token to another account.\\n     * The approval is cleared when the token is transferred.\\n     *\\n     * Only a single account can be approved at a time, so approving the zero address clears previous approvals.\\n     *\\n     * Requirements:\\n     *\\n     * - The caller must own the token or be an approved operator.\\n     * - `tokenId` must exist.\\n     *\\n     * Emits an {Approval} event.\\n     */\\n    function approve(address to, uint256 tokenId) external;\\n\\n    /**\\n     * @dev Returns the account approved for `tokenId` token.\\n     *\\n     * Requirements:\\n     *\\n     * - `tokenId` must exist.\\n     */\\n    function getApproved(uint256 tokenId) external view returns (address operator);\\n\\n    /**\\n     * @dev Approve or remove `operator` as an operator for the caller.\\n     * Operators can call {transferFrom} or {safeTransferFrom} for any token owned by the caller.\\n     *\\n     * Requirements:\\n     *\\n     * - The `operator` cannot be the caller.\\n     *\\n     * Emits an {ApprovalForAll} event.\\n     */\\n    function setApprovalForAll(address operator, bool _approved) external;\\n\\n    /**\\n     * @dev Returns if the `operator` is allowed to manage all of the assets of `owner`.\\n     *\\n     * See {setApprovalForAll}\\n     */\\n    function isApprovedForAll(address owner, address operator) external view returns (bool);\\n\\n    /**\\n      * @dev Safely transfers `tokenId` token from `from` to `to`.\\n      *\\n      * Requirements:\\n      *\\n      * - `from` cannot be the zero address.\\n      * - `to` cannot be the zero address.\\n      * - `tokenId` token must exist and be owned by `from`.\\n      * - If the caller is not `from`, it must be approved to move this token by either {approve} or {setApprovalForAll}.\\n      * - If `to` refers to a smart contract, it must implement {IERC721Receiver-onERC721Received}, which is called upon a safe transfer.\\n      *\\n      * Emits a {Transfer} event.\\n      */\\n    function safeTransferFrom(address from, address to, uint256 tokenId, bytes calldata data) external;\\n}\\n\",\"keccak256\":\"0x9ef7f2874f4a491f253a81eb4c5b9a7b6467a287aa0c32ac3dd684260a3cd7ad\",\"license\":\"MIT\"},\"@openzeppelin/contracts-upgradeable/token/ERC721/extensions/IERC721MetadataUpgradeable.sol\":{\"content\":\"// SPDX-License-Identifier: MIT\\n\\npragma solidity ^0.8.0;\\n\\nimport \\\"../IERC721Upgradeable.sol\\\";\\n\\n/**\\n * @title ERC-721 Non-Fungible Token Standard, optional metadata extension\\n * @dev See https://eips.ethereum.org/EIPS/eip-721\\n */\\ninterface IERC721MetadataUpgradeable is IERC721Upgradeable {\\n\\n    /**\\n     * @dev Returns the token collection name.\\n     */\\n    function name() external view returns (string memory);\\n\\n    /**\\n     * @dev Returns the token collection symbol.\\n     */\\n    function symbol() external view returns (string memory);\\n\\n    /**\\n     * @dev Returns the Uniform Resource Identifier (URI) for `tokenId` token.\\n     */\\n    function tokenURI(uint256 tokenId) external view returns (string memory);\\n}\\n\",\"keccak256\":\"0x64581a092c059ab0cb74f473545e379b8a88f36a6a57f805515ef8c6ae061847\",\"license\":\"MIT\"},\"@openzeppelin/contracts-upgradeable/utils/AddressUpgradeable.sol\":{\"content\":\"// SPDX-License-Identifier: MIT\\n\\npragma solidity ^0.8.0;\\n\\n/**\\n * @dev Collection of functions related to the address type\\n */\\nlibrary AddressUpgradeable {\\n    /**\\n     * @dev Returns true if `account` is a contract.\\n     *\\n     * [IMPORTANT]\\n     * ====\\n     * It is unsafe to assume that an address for which this function returns\\n     * false is an externally-owned account (EOA) and not a contract.\\n     *\\n     * Among others, `isContract` will return false for the following\\n     * types of addresses:\\n     *\\n     *  - an externally-owned account\\n     *  - a contract in construction\\n     *  - an address where a contract will be created\\n     *  - an address where a contract lived, but was destroyed\\n     * ====\\n     */\\n    function isContract(address account) internal view returns (bool) {\\n        // This method relies on extcodesize, which returns 0 for contracts in\\n        // construction, since the code is only stored at the end of the\\n        // constructor execution.\\n\\n        uint256 size;\\n        // solhint-disable-next-line no-inline-assembly\\n        assembly { size := extcodesize(account) }\\n        return size > 0;\\n    }\\n\\n    /**\\n     * @dev Replacement for Solidity's `transfer`: sends `amount` wei to\\n     * `recipient`, forwarding all available gas and reverting on errors.\\n     *\\n     * https://eips.ethereum.org/EIPS/eip-1884[EIP1884] increases the gas cost\\n     * of certain opcodes, possibly making contracts go over the 2300 gas limit\\n     * imposed by `transfer`, making them unable to receive funds via\\n     * `transfer`. {sendValue} removes this limitation.\\n     *\\n     * https://diligence.consensys.net/posts/2019/09/stop-using-soliditys-transfer-now/[Learn more].\\n     *\\n     * IMPORTANT: because control is transferred to `recipient`, care must be\\n     * taken to not create reentrancy vulnerabilities. Consider using\\n     * {ReentrancyGuard} or the\\n     * https://solidity.readthedocs.io/en/v0.5.11/security-considerations.html#use-the-checks-effects-interactions-pattern[checks-effects-interactions pattern].\\n     */\\n    function sendValue(address payable recipient, uint256 amount) internal {\\n        require(address(this).balance >= amount, \\\"Address: insufficient balance\\\");\\n\\n        // solhint-disable-next-line avoid-low-level-calls, avoid-call-value\\n        (bool success, ) = recipient.call{ value: amount }(\\\"\\\");\\n        require(success, \\\"Address: unable to send value, recipient may have reverted\\\");\\n    }\\n\\n    /**\\n     * @dev Performs a Solidity function call using a low level `call`. A\\n     * plain`call` is an unsafe replacement for a function call: use this\\n     * function instead.\\n     *\\n     * If `target` reverts with a revert reason, it is bubbled up by this\\n     * function (like regular Solidity function calls).\\n     *\\n     * Returns the raw returned data. To convert to the expected return value,\\n     * use https://solidity.readthedocs.io/en/latest/units-and-global-variables.html?highlight=abi.decode#abi-encoding-and-decoding-functions[`abi.decode`].\\n     *\\n     * Requirements:\\n     *\\n     * - `target` must be a contract.\\n     * - calling `target` with `data` must not revert.\\n     *\\n     * _Available since v3.1._\\n     */\\n    function functionCall(address target, bytes memory data) internal returns (bytes memory) {\\n      return functionCall(target, data, \\\"Address: low-level call failed\\\");\\n    }\\n\\n    /**\\n     * @dev Same as {xref-Address-functionCall-address-bytes-}[`functionCall`], but with\\n     * `errorMessage` as a fallback revert reason when `target` reverts.\\n     *\\n     * _Available since v3.1._\\n     */\\n    function functionCall(address target, bytes memory data, string memory errorMessage) internal returns (bytes memory) {\\n        return functionCallWithValue(target, data, 0, errorMessage);\\n    }\\n\\n    /**\\n     * @dev Same as {xref-Address-functionCall-address-bytes-}[`functionCall`],\\n     * but also transferring `value` wei to `target`.\\n     *\\n     * Requirements:\\n     *\\n     * - the calling contract must have an ETH balance of at least `value`.\\n     * - the called Solidity function must be `payable`.\\n     *\\n     * _Available since v3.1._\\n     */\\n    function functionCallWithValue(address target, bytes memory data, uint256 value) internal returns (bytes memory) {\\n        return functionCallWithValue(target, data, value, \\\"Address: low-level call with value failed\\\");\\n    }\\n\\n    /**\\n     * @dev Same as {xref-Address-functionCallWithValue-address-bytes-uint256-}[`functionCallWithValue`], but\\n     * with `errorMessage` as a fallback revert reason when `target` reverts.\\n     *\\n     * _Available since v3.1._\\n     */\\n    function functionCallWithValue(address target, bytes memory data, uint256 value, string memory errorMessage) internal returns (bytes memory) {\\n        require(address(this).balance >= value, \\\"Address: insufficient balance for call\\\");\\n        require(isContract(target), \\\"Address: call to non-contract\\\");\\n\\n        // solhint-disable-next-line avoid-low-level-calls\\n        (bool success, bytes memory returndata) = target.call{ value: value }(data);\\n        return _verifyCallResult(success, returndata, errorMessage);\\n    }\\n\\n    /**\\n     * @dev Same as {xref-Address-functionCall-address-bytes-}[`functionCall`],\\n     * but performing a static call.\\n     *\\n     * _Available since v3.3._\\n     */\\n    function functionStaticCall(address target, bytes memory data) internal view returns (bytes memory) {\\n        return functionStaticCall(target, data, \\\"Address: low-level static call failed\\\");\\n    }\\n\\n    /**\\n     * @dev Same as {xref-Address-functionCall-address-bytes-string-}[`functionCall`],\\n     * but performing a static call.\\n     *\\n     * _Available since v3.3._\\n     */\\n    function functionStaticCall(address target, bytes memory data, string memory errorMessage) internal view returns (bytes memory) {\\n        require(isContract(target), \\\"Address: static call to non-contract\\\");\\n\\n        // solhint-disable-next-line avoid-low-level-calls\\n        (bool success, bytes memory returndata) = target.staticcall(data);\\n        return _verifyCallResult(success, returndata, errorMessage);\\n    }\\n\\n    function _verifyCallResult(bool success, bytes memory returndata, string memory errorMessage) private pure returns(bytes memory) {\\n        if (success) {\\n            return returndata;\\n        } else {\\n            // Look for revert reason and bubble it up if present\\n            if (returndata.length > 0) {\\n                // The easiest way to bubble the revert reason is using memory via assembly\\n\\n                // solhint-disable-next-line no-inline-assembly\\n                assembly {\\n                    let returndata_size := mload(returndata)\\n                    revert(add(32, returndata), returndata_size)\\n                }\\n            } else {\\n                revert(errorMessage);\\n            }\\n        }\\n    }\\n}\\n\",\"keccak256\":\"0x5642ae1d6b33c5c0b71a8412c6c64cbcf2468b84a002bee3e33cdb5644d25cdb\",\"license\":\"MIT\"},\"@openzeppelin/contracts-upgradeable/utils/ContextUpgradeable.sol\":{\"content\":\"// SPDX-License-Identifier: MIT\\n\\npragma solidity ^0.8.0;\\nimport \\\"../proxy/utils/Initializable.sol\\\";\\n\\n/*\\n * @dev Provides information about the current execution context, including the\\n * sender of the transaction and its data. While these are generally available\\n * via msg.sender and msg.data, they should not be accessed in such a direct\\n * manner, since when dealing with meta-transactions the account sending and\\n * paying for execution may not be the actual sender (as far as an application\\n * is concerned).\\n *\\n * This contract is only required for intermediate, library-like contracts.\\n */\\nabstract contract ContextUpgradeable is Initializable {\\n    function __Context_init() internal initializer {\\n        __Context_init_unchained();\\n    }\\n\\n    function __Context_init_unchained() internal initializer {\\n    }\\n    function _msgSender() internal view virtual returns (address) {\\n        return msg.sender;\\n    }\\n\\n    function _msgData() internal view virtual returns (bytes calldata) {\\n        this; // silence state mutability warning without generating bytecode - see https://github.com/ethereum/solidity/issues/2691\\n        return msg.data;\\n    }\\n    uint256[50] private __gap;\\n}\\n\",\"keccak256\":\"0x8e9eb503de1189f50c5f16fef327da310b11898d6b9ab3ca937df07c35233b9e\",\"license\":\"MIT\"},\"@openzeppelin/contracts-upgradeable/utils/StringsUpgradeable.sol\":{\"content\":\"// SPDX-License-Identifier: MIT\\n\\npragma solidity ^0.8.0;\\n\\n/**\\n * @dev String operations.\\n */\\nlibrary StringsUpgradeable {\\n    bytes16 private constant alphabet = \\\"0123456789abcdef\\\";\\n\\n    /**\\n     * @dev Converts a `uint256` to its ASCII `string` decimal representation.\\n     */\\n    function toString(uint256 value) internal pure returns (string memory) {\\n        // Inspired by OraclizeAPI's implementation - MIT licence\\n        // https://github.com/oraclize/ethereum-api/blob/b42146b063c7d6ee1358846c198246239e9360e8/oraclizeAPI_0.4.25.sol\\n\\n        if (value == 0) {\\n            return \\\"0\\\";\\n        }\\n        uint256 temp = value;\\n        uint256 digits;\\n        while (temp != 0) {\\n            digits++;\\n            temp /= 10;\\n        }\\n        bytes memory buffer = new bytes(digits);\\n        while (value != 0) {\\n            digits -= 1;\\n            buffer[digits] = bytes1(uint8(48 + uint256(value % 10)));\\n            value /= 10;\\n        }\\n        return string(buffer);\\n    }\\n\\n    /**\\n     * @dev Converts a `uint256` to its ASCII `string` hexadecimal representation.\\n     */\\n    function toHexString(uint256 value) internal pure returns (string memory) {\\n        if (value == 0) {\\n            return \\\"0x00\\\";\\n        }\\n        uint256 temp = value;\\n        uint256 length = 0;\\n        while (temp != 0) {\\n            length++;\\n            temp >>= 8;\\n        }\\n        return toHexString(value, length);\\n    }\\n\\n    /**\\n     * @dev Converts a `uint256` to its ASCII `string` hexadecimal representation with fixed length.\\n     */\\n    function toHexString(uint256 value, uint256 length) internal pure returns (string memory) {\\n        bytes memory buffer = new bytes(2 * length + 2);\\n        buffer[0] = \\\"0\\\";\\n        buffer[1] = \\\"x\\\";\\n        for (uint256 i = 2 * length + 1; i > 1; --i) {\\n            buffer[i] = alphabet[value & 0xf];\\n            value >>= 4;\\n        }\\n        require(value == 0, \\\"Strings: hex length insufficient\\\");\\n        return string(buffer);\\n    }\\n\\n}\\n\",\"keccak256\":\"0x6964377da5c19ade6b3e96bae0c0e82494d518af70cf12d2cdb3276f78fb3d85\",\"license\":\"MIT\"},\"@openzeppelin/contracts-upgradeable/utils/introspection/ERC165Upgradeable.sol\":{\"content\":\"// SPDX-License-Identifier: MIT\\n\\npragma solidity ^0.8.0;\\n\\nimport \\\"./IERC165Upgradeable.sol\\\";\\nimport \\\"../../proxy/utils/Initializable.sol\\\";\\n\\n/**\\n * @dev Implementation of the {IERC165} interface.\\n *\\n * Contracts that want to implement ERC165 should inherit from this contract and override {supportsInterface} to check\\n * for the additional interface id that will be supported. For example:\\n *\\n * ```solidity\\n * function supportsInterface(bytes4 interfaceId) public view virtual override returns (bool) {\\n *     return interfaceId == type(MyInterface).interfaceId || super.supportsInterface(interfaceId);\\n * }\\n * ```\\n *\\n * Alternatively, {ERC165Storage} provides an easier to use but more expensive implementation.\\n */\\nabstract contract ERC165Upgradeable is Initializable, IERC165Upgradeable {\\n    function __ERC165_init() internal initializer {\\n        __ERC165_init_unchained();\\n    }\\n\\n    function __ERC165_init_unchained() internal initializer {\\n    }\\n    /**\\n     * @dev See {IERC165-supportsInterface}.\\n     */\\n    function supportsInterface(bytes4 interfaceId) public view virtual override returns (bool) {\\n        return interfaceId == type(IERC165Upgradeable).interfaceId;\\n    }\\n    uint256[50] private __gap;\\n}\\n\",\"keccak256\":\"0x17c9c5d2d6b56527215ee7b3da6dde66b6f23f1b3d5c66cc436e753ef349a97a\",\"license\":\"MIT\"},\"@openzeppelin/contracts-upgradeable/utils/introspection/IERC165Upgradeable.sol\":{\"content\":\"// SPDX-License-Identifier: MIT\\n\\npragma solidity ^0.8.0;\\n\\n/**\\n * @dev Interface of the ERC165 standard, as defined in the\\n * https://eips.ethereum.org/EIPS/eip-165[EIP].\\n *\\n * Implementers can declare support of contract interfaces, which can then be\\n * queried by others ({ERC165Checker}).\\n *\\n * For an implementation, see {ERC165}.\\n */\\ninterface IERC165Upgradeable {\\n    /**\\n     * @dev Returns true if this contract implements the interface defined by\\n     * `interfaceId`. See the corresponding\\n     * https://eips.ethereum.org/EIPS/eip-165#how-interfaces-are-identified[EIP section]\\n     * to learn more about how these ids are created.\\n     *\\n     * This function call must use less than 30 000 gas.\\n     */\\n    function supportsInterface(bytes4 interfaceId) external view returns (bool);\\n}\\n\",\"keccak256\":\"0x1c4860acd323e34a67b3e97faab9aaa55fe8e92b1dcf08b5f47f3468d58ce75c\",\"license\":\"MIT\"},\"@openzeppelin/contracts/access/Ownable.sol\":{\"content\":\"// SPDX-License-Identifier: MIT\\n\\npragma solidity ^0.8.0;\\n\\nimport \\\"../utils/Context.sol\\\";\\n/**\\n * @dev Contract module which provides a basic access control mechanism, where\\n * there is an account (an owner) that can be granted exclusive access to\\n * specific functions.\\n *\\n * By default, the owner account will be the one that deploys the contract. This\\n * can later be changed with {transferOwnership}.\\n *\\n * This module is used through inheritance. It will make available the modifier\\n * `onlyOwner`, which can be applied to your functions to restrict their use to\\n * the owner.\\n */\\nabstract contract Ownable is Context {\\n    address private _owner;\\n\\n    event OwnershipTransferred(address indexed previousOwner, address indexed newOwner);\\n\\n    /**\\n     * @dev Initializes the contract setting the deployer as the initial owner.\\n     */\\n    constructor () {\\n        address msgSender = _msgSender();\\n        _owner = msgSender;\\n        emit OwnershipTransferred(address(0), msgSender);\\n    }\\n\\n    /**\\n     * @dev Returns the address of the current owner.\\n     */\\n    function owner() public view virtual returns (address) {\\n        return _owner;\\n    }\\n\\n    /**\\n     * @dev Throws if called by any account other than the owner.\\n     */\\n    modifier onlyOwner() {\\n        require(owner() == _msgSender(), \\\"Ownable: caller is not the owner\\\");\\n        _;\\n    }\\n\\n    /**\\n     * @dev Leaves the contract without owner. It will not be possible to call\\n     * `onlyOwner` functions anymore. Can only be called by the current owner.\\n     *\\n     * NOTE: Renouncing ownership will leave the contract without an owner,\\n     * thereby removing any functionality that is only available to the owner.\\n     */\\n    function renounceOwnership() public virtual onlyOwner {\\n        emit OwnershipTransferred(_owner, address(0));\\n        _owner = address(0);\\n    }\\n\\n    /**\\n     * @dev Transfers ownership of the contract to a new account (`newOwner`).\\n     * Can only be called by the current owner.\\n     */\\n    function transferOwnership(address newOwner) public virtual onlyOwner {\\n        require(newOwner != address(0), \\\"Ownable: new owner is the zero address\\\");\\n        emit OwnershipTransferred(_owner, newOwner);\\n        _owner = newOwner;\\n    }\\n}\\n\",\"keccak256\":\"0x1cae4f85f114ff17b90414f5da67365b1d00337abb5bce9bf944eb78a2c0673c\",\"license\":\"MIT\"},\"@openzeppelin/contracts/proxy/Clones.sol\":{\"content\":\"// SPDX-License-Identifier: MIT\\n\\npragma solidity ^0.8.0;\\n\\n/**\\n * @dev https://eips.ethereum.org/EIPS/eip-1167[EIP 1167] is a standard for\\n * deploying minimal proxy contracts, also known as \\\"clones\\\".\\n *\\n * > To simply and cheaply clone contract functionality in an immutable way, this standard specifies\\n * > a minimal bytecode implementation that delegates all calls to a known, fixed address.\\n *\\n * The library includes functions to deploy a proxy using either `create` (traditional deployment) or `create2`\\n * (salted deterministic deployment). It also includes functions to predict the addresses of clones deployed using the\\n * deterministic method.\\n *\\n * _Available since v3.4._\\n */\\nlibrary Clones {\\n    /**\\n     * @dev Deploys and returns the address of a clone that mimics the behaviour of `implementation`.\\n     *\\n     * This function uses the create opcode, which should never revert.\\n     */\\n    function clone(address implementation) internal returns (address instance) {\\n        // solhint-disable-next-line no-inline-assembly\\n        assembly {\\n            let ptr := mload(0x40)\\n            mstore(ptr, 0x3d602d80600a3d3981f3363d3d373d3d3d363d73000000000000000000000000)\\n            mstore(add(ptr, 0x14), shl(0x60, implementation))\\n            mstore(add(ptr, 0x28), 0x5af43d82803e903d91602b57fd5bf30000000000000000000000000000000000)\\n            instance := create(0, ptr, 0x37)\\n        }\\n        require(instance != address(0), \\\"ERC1167: create failed\\\");\\n    }\\n\\n    /**\\n     * @dev Deploys and returns the address of a clone that mimics the behaviour of `implementation`.\\n     *\\n     * This function uses the create2 opcode and a `salt` to deterministically deploy\\n     * the clone. Using the same `implementation` and `salt` multiple time will revert, since\\n     * the clones cannot be deployed twice at the same address.\\n     */\\n    function cloneDeterministic(address implementation, bytes32 salt) internal returns (address instance) {\\n        // solhint-disable-next-line no-inline-assembly\\n        assembly {\\n            let ptr := mload(0x40)\\n            mstore(ptr, 0x3d602d80600a3d3981f3363d3d373d3d3d363d73000000000000000000000000)\\n            mstore(add(ptr, 0x14), shl(0x60, implementation))\\n            mstore(add(ptr, 0x28), 0x5af43d82803e903d91602b57fd5bf30000000000000000000000000000000000)\\n            instance := create2(0, ptr, 0x37, salt)\\n        }\\n        require(instance != address(0), \\\"ERC1167: create2 failed\\\");\\n    }\\n\\n    /**\\n     * @dev Computes the address of a clone deployed using {Clones-cloneDeterministic}.\\n     */\\n    function predictDeterministicAddress(address implementation, bytes32 salt, address deployer) internal pure returns (address predicted) {\\n        // solhint-disable-next-line no-inline-assembly\\n        assembly {\\n            let ptr := mload(0x40)\\n            mstore(ptr, 0x3d602d80600a3d3981f3363d3d373d3d3d363d73000000000000000000000000)\\n            mstore(add(ptr, 0x14), shl(0x60, implementation))\\n            mstore(add(ptr, 0x28), 0x5af43d82803e903d91602b57fd5bf3ff00000000000000000000000000000000)\\n            mstore(add(ptr, 0x38), shl(0x60, deployer))\\n            mstore(add(ptr, 0x4c), salt)\\n            mstore(add(ptr, 0x6c), keccak256(ptr, 0x37))\\n            predicted := keccak256(add(ptr, 0x37), 0x55)\\n        }\\n    }\\n\\n    /**\\n     * @dev Computes the address of a clone deployed using {Clones-cloneDeterministic}.\\n     */\\n    function predictDeterministicAddress(address implementation, bytes32 salt) internal view returns (address predicted) {\\n        return predictDeterministicAddress(implementation, salt, address(this));\\n    }\\n}\\n\",\"keccak256\":\"0x90dec20805396efc780a82c62578626103e03278bc1f48b61bb3aba52a61617c\",\"license\":\"MIT\"},\"@openzeppelin/contracts/proxy/Proxy.sol\":{\"content\":\"// SPDX-License-Identifier: MIT\\n\\npragma solidity ^0.8.0;\\n\\n/**\\n * @dev This abstract contract provides a fallback function that delegates all calls to another contract using the EVM\\n * instruction `delegatecall`. We refer to the second contract as the _implementation_ behind the proxy, and it has to\\n * be specified by overriding the virtual {_implementation} function.\\n *\\n * Additionally, delegation to the implementation can be triggered manually through the {_fallback} function, or to a\\n * different contract through the {_delegate} function.\\n *\\n * The success and return data of the delegated call will be returned back to the caller of the proxy.\\n */\\nabstract contract Proxy {\\n    /**\\n     * @dev Delegates the current call to `implementation`.\\n     *\\n     * This function does not return to its internall call site, it will return directly to the external caller.\\n     */\\n    function _delegate(address implementation) internal virtual {\\n        // solhint-disable-next-line no-inline-assembly\\n        assembly {\\n            // Copy msg.data. We take full control of memory in this inline assembly\\n            // block because it will not return to Solidity code. We overwrite the\\n            // Solidity scratch pad at memory position 0.\\n            calldatacopy(0, 0, calldatasize())\\n\\n            // Call the implementation.\\n            // out and outsize are 0 because we don't know the size yet.\\n            let result := delegatecall(gas(), implementation, 0, calldatasize(), 0, 0)\\n\\n            // Copy the returned data.\\n            returndatacopy(0, 0, returndatasize())\\n\\n            switch result\\n            // delegatecall returns 0 on error.\\n            case 0 { revert(0, returndatasize()) }\\n            default { return(0, returndatasize()) }\\n        }\\n    }\\n\\n    /**\\n     * @dev This is a virtual function that should be overriden so it returns the address to which the fallback function\\n     * and {_fallback} should delegate.\\n     */\\n    function _implementation() internal view virtual returns (address);\\n\\n    /**\\n     * @dev Delegates the current call to the address returned by `_implementation()`.\\n     *\\n     * This function does not return to its internall call site, it will return directly to the external caller.\\n     */\\n    function _fallback() internal virtual {\\n        _beforeFallback();\\n        _delegate(_implementation());\\n    }\\n\\n    /**\\n     * @dev Fallback function that delegates calls to the address returned by `_implementation()`. Will run if no other\\n     * function in the contract matches the call data.\\n     */\\n    fallback () external payable virtual {\\n        _fallback();\\n    }\\n\\n    /**\\n     * @dev Fallback function that delegates calls to the address returned by `_implementation()`. Will run if call data\\n     * is empty.\\n     */\\n    receive () external payable virtual {\\n        _fallback();\\n    }\\n\\n    /**\\n     * @dev Hook that is called before falling back to the implementation. Can happen as part of a manual `_fallback`\\n     * call, or as part of the Solidity `fallback` or `receive` functions.\\n     *\\n     * If overriden should call `super._beforeFallback()`.\\n     */\\n    function _beforeFallback() internal virtual {\\n    }\\n}\\n\",\"keccak256\":\"0xc706395df88dc1d459f21e51c57ab8820af80d1e8c3c14933a651794d78a429f\",\"license\":\"MIT\"},\"@openzeppelin/contracts/proxy/beacon/IBeacon.sol\":{\"content\":\"// SPDX-License-Identifier: MIT\\n\\npragma solidity ^0.8.0;\\n\\n/**\\n * @dev This is the interface that {BeaconProxy} expects of its beacon.\\n */\\ninterface IBeacon {\\n    /**\\n     * @dev Must return an address that can be used as a delegate call target.\\n     *\\n     * {BeaconProxy} will check that this address is a contract.\\n     */\\n    function implementation() external view returns (address);\\n}\\n\",\"keccak256\":\"0x5615339d191e77be7e46319b67856f9355786f705b7b3c4a7237ab70c1864ab1\",\"license\":\"MIT\"},\"@openzeppelin/contracts/token/ERC20/ERC20.sol\":{\"content\":\"// SPDX-License-Identifier: MIT\\n\\npragma solidity ^0.8.0;\\n\\nimport \\\"./IERC20.sol\\\";\\nimport \\\"./extensions/IERC20Metadata.sol\\\";\\nimport \\\"../../utils/Context.sol\\\";\\n\\n/**\\n * @dev Implementation of the {IERC20} interface.\\n *\\n * This implementation is agnostic to the way tokens are created. This means\\n * that a supply mechanism has to be added in a derived contract using {_mint}.\\n * For a generic mechanism see {ERC20PresetMinterPauser}.\\n *\\n * TIP: For a detailed writeup see our guide\\n * https://forum.zeppelin.solutions/t/how-to-implement-erc20-supply-mechanisms/226[How\\n * to implement supply mechanisms].\\n *\\n * We have followed general OpenZeppelin guidelines: functions revert instead\\n * of returning `false` on failure. This behavior is nonetheless conventional\\n * and does not conflict with the expectations of ERC20 applications.\\n *\\n * Additionally, an {Approval} event is emitted on calls to {transferFrom}.\\n * This allows applications to reconstruct the allowance for all accounts just\\n * by listening to said events. Other implementations of the EIP may not emit\\n * these events, as it isn't required by the specification.\\n *\\n * Finally, the non-standard {decreaseAllowance} and {increaseAllowance}\\n * functions have been added to mitigate the well-known issues around setting\\n * allowances. See {IERC20-approve}.\\n */\\ncontract ERC20 is Context, IERC20, IERC20Metadata {\\n    mapping (address => uint256) private _balances;\\n\\n    mapping (address => mapping (address => uint256)) private _allowances;\\n\\n    uint256 private _totalSupply;\\n\\n    string private _name;\\n    string private _symbol;\\n\\n    /**\\n     * @dev Sets the values for {name} and {symbol}.\\n     *\\n     * The defaut value of {decimals} is 18. To select a different value for\\n     * {decimals} you should overload it.\\n     *\\n     * All two of these values are immutable: they can only be set once during\\n     * construction.\\n     */\\n    constructor (string memory name_, string memory symbol_) {\\n        _name = name_;\\n        _symbol = symbol_;\\n    }\\n\\n    /**\\n     * @dev Returns the name of the token.\\n     */\\n    function name() public view virtual override returns (string memory) {\\n        return _name;\\n    }\\n\\n    /**\\n     * @dev Returns the symbol of the token, usually a shorter version of the\\n     * name.\\n     */\\n    function symbol() public view virtual override returns (string memory) {\\n        return _symbol;\\n    }\\n\\n    /**\\n     * @dev Returns the number of decimals used to get its user representation.\\n     * For example, if `decimals` equals `2`, a balance of `505` tokens should\\n     * be displayed to a user as `5,05` (`505 / 10 ** 2`).\\n     *\\n     * Tokens usually opt for a value of 18, imitating the relationship between\\n     * Ether and Wei. This is the value {ERC20} uses, unless this function is\\n     * overridden;\\n     *\\n     * NOTE: This information is only used for _display_ purposes: it in\\n     * no way affects any of the arithmetic of the contract, including\\n     * {IERC20-balanceOf} and {IERC20-transfer}.\\n     */\\n    function decimals() public view virtual override returns (uint8) {\\n        return 18;\\n    }\\n\\n    /**\\n     * @dev See {IERC20-totalSupply}.\\n     */\\n    function totalSupply() public view virtual override returns (uint256) {\\n        return _totalSupply;\\n    }\\n\\n    /**\\n     * @dev See {IERC20-balanceOf}.\\n     */\\n    function balanceOf(address account) public view virtual override returns (uint256) {\\n        return _balances[account];\\n    }\\n\\n    /**\\n     * @dev See {IERC20-transfer}.\\n     *\\n     * Requirements:\\n     *\\n     * - `recipient` cannot be the zero address.\\n     * - the caller must have a balance of at least `amount`.\\n     */\\n    function transfer(address recipient, uint256 amount) public virtual override returns (bool) {\\n        _transfer(_msgSender(), recipient, amount);\\n        return true;\\n    }\\n\\n    /**\\n     * @dev See {IERC20-allowance}.\\n     */\\n    function allowance(address owner, address spender) public view virtual override returns (uint256) {\\n        return _allowances[owner][spender];\\n    }\\n\\n    /**\\n     * @dev See {IERC20-approve}.\\n     *\\n     * Requirements:\\n     *\\n     * - `spender` cannot be the zero address.\\n     */\\n    function approve(address spender, uint256 amount) public virtual override returns (bool) {\\n        _approve(_msgSender(), spender, amount);\\n        return true;\\n    }\\n\\n    /**\\n     * @dev See {IERC20-transferFrom}.\\n     *\\n     * Emits an {Approval} event indicating the updated allowance. This is not\\n     * required by the EIP. See the note at the beginning of {ERC20}.\\n     *\\n     * Requirements:\\n     *\\n     * - `sender` and `recipient` cannot be the zero address.\\n     * - `sender` must have a balance of at least `amount`.\\n     * - the caller must have allowance for ``sender``'s tokens of at least\\n     * `amount`.\\n     */\\n    function transferFrom(address sender, address recipient, uint256 amount) public virtual override returns (bool) {\\n        _transfer(sender, recipient, amount);\\n\\n        uint256 currentAllowance = _allowances[sender][_msgSender()];\\n        require(currentAllowance >= amount, \\\"ERC20: transfer amount exceeds allowance\\\");\\n        _approve(sender, _msgSender(), currentAllowance - amount);\\n\\n        return true;\\n    }\\n\\n    /**\\n     * @dev Atomically increases the allowance granted to `spender` by the caller.\\n     *\\n     * This is an alternative to {approve} that can be used as a mitigation for\\n     * problems described in {IERC20-approve}.\\n     *\\n     * Emits an {Approval} event indicating the updated allowance.\\n     *\\n     * Requirements:\\n     *\\n     * - `spender` cannot be the zero address.\\n     */\\n    function increaseAllowance(address spender, uint256 addedValue) public virtual returns (bool) {\\n        _approve(_msgSender(), spender, _allowances[_msgSender()][spender] + addedValue);\\n        return true;\\n    }\\n\\n    /**\\n     * @dev Atomically decreases the allowance granted to `spender` by the caller.\\n     *\\n     * This is an alternative to {approve} that can be used as a mitigation for\\n     * problems described in {IERC20-approve}.\\n     *\\n     * Emits an {Approval} event indicating the updated allowance.\\n     *\\n     * Requirements:\\n     *\\n     * - `spender` cannot be the zero address.\\n     * - `spender` must have allowance for the caller of at least\\n     * `subtractedValue`.\\n     */\\n    function decreaseAllowance(address spender, uint256 subtractedValue) public virtual returns (bool) {\\n        uint256 currentAllowance = _allowances[_msgSender()][spender];\\n        require(currentAllowance >= subtractedValue, \\\"ERC20: decreased allowance below zero\\\");\\n        _approve(_msgSender(), spender, currentAllowance - subtractedValue);\\n\\n        return true;\\n    }\\n\\n    /**\\n     * @dev Moves tokens `amount` from `sender` to `recipient`.\\n     *\\n     * This is internal function is equivalent to {transfer}, and can be used to\\n     * e.g. implement automatic token fees, slashing mechanisms, etc.\\n     *\\n     * Emits a {Transfer} event.\\n     *\\n     * Requirements:\\n     *\\n     * - `sender` cannot be the zero address.\\n     * - `recipient` cannot be the zero address.\\n     * - `sender` must have a balance of at least `amount`.\\n     */\\n    function _transfer(address sender, address recipient, uint256 amount) internal virtual {\\n        require(sender != address(0), \\\"ERC20: transfer from the zero address\\\");\\n        require(recipient != address(0), \\\"ERC20: transfer to the zero address\\\");\\n\\n        _beforeTokenTransfer(sender, recipient, amount);\\n\\n        uint256 senderBalance = _balances[sender];\\n        require(senderBalance >= amount, \\\"ERC20: transfer amount exceeds balance\\\");\\n        _balances[sender] = senderBalance - amount;\\n        _balances[recipient] += amount;\\n\\n        emit Transfer(sender, recipient, amount);\\n    }\\n\\n    /** @dev Creates `amount` tokens and assigns them to `account`, increasing\\n     * the total supply.\\n     *\\n     * Emits a {Transfer} event with `from` set to the zero address.\\n     *\\n     * Requirements:\\n     *\\n     * - `to` cannot be the zero address.\\n     */\\n    function _mint(address account, uint256 amount) internal virtual {\\n        require(account != address(0), \\\"ERC20: mint to the zero address\\\");\\n\\n        _beforeTokenTransfer(address(0), account, amount);\\n\\n        _totalSupply += amount;\\n        _balances[account] += amount;\\n        emit Transfer(address(0), account, amount);\\n    }\\n\\n    /**\\n     * @dev Destroys `amount` tokens from `account`, reducing the\\n     * total supply.\\n     *\\n     * Emits a {Transfer} event with `to` set to the zero address.\\n     *\\n     * Requirements:\\n     *\\n     * - `account` cannot be the zero address.\\n     * - `account` must have at least `amount` tokens.\\n     */\\n    function _burn(address account, uint256 amount) internal virtual {\\n        require(account != address(0), \\\"ERC20: burn from the zero address\\\");\\n\\n        _beforeTokenTransfer(account, address(0), amount);\\n\\n        uint256 accountBalance = _balances[account];\\n        require(accountBalance >= amount, \\\"ERC20: burn amount exceeds balance\\\");\\n        _balances[account] = accountBalance - amount;\\n        _totalSupply -= amount;\\n\\n        emit Transfer(account, address(0), amount);\\n    }\\n\\n    /**\\n     * @dev Sets `amount` as the allowance of `spender` over the `owner` s tokens.\\n     *\\n     * This internal function is equivalent to `approve`, and can be used to\\n     * e.g. set automatic allowances for certain subsystems, etc.\\n     *\\n     * Emits an {Approval} event.\\n     *\\n     * Requirements:\\n     *\\n     * - `owner` cannot be the zero address.\\n     * - `spender` cannot be the zero address.\\n     */\\n    function _approve(address owner, address spender, uint256 amount) internal virtual {\\n        require(owner != address(0), \\\"ERC20: approve from the zero address\\\");\\n        require(spender != address(0), \\\"ERC20: approve to the zero address\\\");\\n\\n        _allowances[owner][spender] = amount;\\n        emit Approval(owner, spender, amount);\\n    }\\n\\n    /**\\n     * @dev Hook that is called before any transfer of tokens. This includes\\n     * minting and burning.\\n     *\\n     * Calling conditions:\\n     *\\n     * - when `from` and `to` are both non-zero, `amount` of ``from``'s tokens\\n     * will be to transferred to `to`.\\n     * - when `from` is zero, `amount` tokens will be minted for `to`.\\n     * - when `to` is zero, `amount` of ``from``'s tokens will be burned.\\n     * - `from` and `to` are never both zero.\\n     *\\n     * To learn more about hooks, head to xref:ROOT:extending-contracts.adoc#using-hooks[Using Hooks].\\n     */\\n    function _beforeTokenTransfer(address from, address to, uint256 amount) internal virtual { }\\n}\\n\",\"keccak256\":\"0xfeccdcbf67b2006a715e5af1a4c7556004d95b2806552b5cc54e46e8eb7e887b\",\"license\":\"MIT\"},\"@openzeppelin/contracts/token/ERC20/IERC20.sol\":{\"content\":\"// SPDX-License-Identifier: MIT\\n\\npragma solidity ^0.8.0;\\n\\n/**\\n * @dev Interface of the ERC20 standard as defined in the EIP.\\n */\\ninterface IERC20 {\\n    /**\\n     * @dev Returns the amount of tokens in existence.\\n     */\\n    function totalSupply() external view returns (uint256);\\n\\n    /**\\n     * @dev Returns the amount of tokens owned by `account`.\\n     */\\n    function balanceOf(address account) external view returns (uint256);\\n\\n    /**\\n     * @dev Moves `amount` tokens from the caller's account to `recipient`.\\n     *\\n     * Returns a boolean value indicating whether the operation succeeded.\\n     *\\n     * Emits a {Transfer} event.\\n     */\\n    function transfer(address recipient, uint256 amount) external returns (bool);\\n\\n    /**\\n     * @dev Returns the remaining number of tokens that `spender` will be\\n     * allowed to spend on behalf of `owner` through {transferFrom}. This is\\n     * zero by default.\\n     *\\n     * This value changes when {approve} or {transferFrom} are called.\\n     */\\n    function allowance(address owner, address spender) external view returns (uint256);\\n\\n    /**\\n     * @dev Sets `amount` as the allowance of `spender` over the caller's tokens.\\n     *\\n     * Returns a boolean value indicating whether the operation succeeded.\\n     *\\n     * IMPORTANT: Beware that changing an allowance with this method brings the risk\\n     * that someone may use both the old and the new allowance by unfortunate\\n     * transaction ordering. One possible solution to mitigate this race\\n     * condition is to first reduce the spender's allowance to 0 and set the\\n     * desired value afterwards:\\n     * https://github.com/ethereum/EIPs/issues/20#issuecomment-263524729\\n     *\\n     * Emits an {Approval} event.\\n     */\\n    function approve(address spender, uint256 amount) external returns (bool);\\n\\n    /**\\n     * @dev Moves `amount` tokens from `sender` to `recipient` using the\\n     * allowance mechanism. `amount` is then deducted from the caller's\\n     * allowance.\\n     *\\n     * Returns a boolean value indicating whether the operation succeeded.\\n     *\\n     * Emits a {Transfer} event.\\n     */\\n    function transferFrom(address sender, address recipient, uint256 amount) external returns (bool);\\n\\n    /**\\n     * @dev Emitted when `value` tokens are moved from one account (`from`) to\\n     * another (`to`).\\n     *\\n     * Note that `value` may be zero.\\n     */\\n    event Transfer(address indexed from, address indexed to, uint256 value);\\n\\n    /**\\n     * @dev Emitted when the allowance of a `spender` for an `owner` is set by\\n     * a call to {approve}. `value` is the new allowance.\\n     */\\n    event Approval(address indexed owner, address indexed spender, uint256 value);\\n}\\n\",\"keccak256\":\"0xf8e8d118a7a8b2e134181f7da655f6266aa3a0f9134b2605747139fcb0c5d835\",\"license\":\"MIT\"},\"@openzeppelin/contracts/token/ERC20/extensions/IERC20Metadata.sol\":{\"content\":\"// SPDX-License-Identifier: MIT\\n\\npragma solidity ^0.8.0;\\n\\nimport \\\"../IERC20.sol\\\";\\n\\n/**\\n * @dev Interface for the optional metadata functions from the ERC20 standard.\\n *\\n * _Available since v4.1._\\n */\\ninterface IERC20Metadata is IERC20 {\\n    /**\\n     * @dev Returns the name of the token.\\n     */\\n    function name() external view returns (string memory);\\n\\n    /**\\n     * @dev Returns the symbol of the token.\\n     */\\n    function symbol() external view returns (string memory);\\n\\n    /**\\n     * @dev Returns the decimals places of the token.\\n     */\\n    function decimals() external view returns (uint8);\\n}\\n\",\"keccak256\":\"0x83fe24f5c04a56091e50f4a345ff504c8bff658a76d4c43b16878c8f940c53b2\",\"license\":\"MIT\"},\"@openzeppelin/contracts/token/ERC20/utils/SafeERC20.sol\":{\"content\":\"// SPDX-License-Identifier: MIT\\n\\npragma solidity ^0.8.0;\\n\\nimport \\\"../IERC20.sol\\\";\\nimport \\\"../../../utils/Address.sol\\\";\\n\\n/**\\n * @title SafeERC20\\n * @dev Wrappers around ERC20 operations that throw on failure (when the token\\n * contract returns false). Tokens that return no value (and instead revert or\\n * throw on failure) are also supported, non-reverting calls are assumed to be\\n * successful.\\n * To use this library you can add a `using SafeERC20 for IERC20;` statement to your contract,\\n * which allows you to call the safe operations as `token.safeTransfer(...)`, etc.\\n */\\nlibrary SafeERC20 {\\n    using Address for address;\\n\\n    function safeTransfer(IERC20 token, address to, uint256 value) internal {\\n        _callOptionalReturn(token, abi.encodeWithSelector(token.transfer.selector, to, value));\\n    }\\n\\n    function safeTransferFrom(IERC20 token, address from, address to, uint256 value) internal {\\n        _callOptionalReturn(token, abi.encodeWithSelector(token.transferFrom.selector, from, to, value));\\n    }\\n\\n    /**\\n     * @dev Deprecated. This function has issues similar to the ones found in\\n     * {IERC20-approve}, and its usage is discouraged.\\n     *\\n     * Whenever possible, use {safeIncreaseAllowance} and\\n     * {safeDecreaseAllowance} instead.\\n     */\\n    function safeApprove(IERC20 token, address spender, uint256 value) internal {\\n        // safeApprove should only be called when setting an initial allowance,\\n        // or when resetting it to zero. To increase and decrease it, use\\n        // 'safeIncreaseAllowance' and 'safeDecreaseAllowance'\\n        // solhint-disable-next-line max-line-length\\n        require((value == 0) || (token.allowance(address(this), spender) == 0),\\n            \\\"SafeERC20: approve from non-zero to non-zero allowance\\\"\\n        );\\n        _callOptionalReturn(token, abi.encodeWithSelector(token.approve.selector, spender, value));\\n    }\\n\\n    function safeIncreaseAllowance(IERC20 token, address spender, uint256 value) internal {\\n        uint256 newAllowance = token.allowance(address(this), spender) + value;\\n        _callOptionalReturn(token, abi.encodeWithSelector(token.approve.selector, spender, newAllowance));\\n    }\\n\\n    function safeDecreaseAllowance(IERC20 token, address spender, uint256 value) internal {\\n        unchecked {\\n            uint256 oldAllowance = token.allowance(address(this), spender);\\n            require(oldAllowance >= value, \\\"SafeERC20: decreased allowance below zero\\\");\\n            uint256 newAllowance = oldAllowance - value;\\n            _callOptionalReturn(token, abi.encodeWithSelector(token.approve.selector, spender, newAllowance));\\n        }\\n    }\\n\\n    /**\\n     * @dev Imitates a Solidity high-level call (i.e. a regular function call to a contract), relaxing the requirement\\n     * on the return value: the return value is optional (but if data is returned, it must not be false).\\n     * @param token The token targeted by the call.\\n     * @param data The call data (encoded using abi.encode or one of its variants).\\n     */\\n    function _callOptionalReturn(IERC20 token, bytes memory data) private {\\n        // We need to perform a low level call here, to bypass Solidity's return data size checking mechanism, since\\n        // we're implementing it ourselves. We use {Address.functionCall} to perform this call, which verifies that\\n        // the target address contains contract code and also asserts for success in the low-level call.\\n\\n        bytes memory returndata = address(token).functionCall(data, \\\"SafeERC20: low-level call failed\\\");\\n        if (returndata.length > 0) { // Return data is optional\\n            // solhint-disable-next-line max-line-length\\n            require(abi.decode(returndata, (bool)), \\\"SafeERC20: ERC20 operation did not succeed\\\");\\n        }\\n    }\\n}\\n\",\"keccak256\":\"0x99f5c21018d796db7833a2100bb0e7411999e248a3c950fb526eee5d2bf47cb7\",\"license\":\"MIT\"},\"@openzeppelin/contracts/token/ERC721/IERC721.sol\":{\"content\":\"// SPDX-License-Identifier: MIT\\n\\npragma solidity ^0.8.0;\\n\\nimport \\\"../../utils/introspection/IERC165.sol\\\";\\n\\n/**\\n * @dev Required interface of an ERC721 compliant contract.\\n */\\ninterface IERC721 is IERC165 {\\n    /**\\n     * @dev Emitted when `tokenId` token is transferred from `from` to `to`.\\n     */\\n    event Transfer(address indexed from, address indexed to, uint256 indexed tokenId);\\n\\n    /**\\n     * @dev Emitted when `owner` enables `approved` to manage the `tokenId` token.\\n     */\\n    event Approval(address indexed owner, address indexed approved, uint256 indexed tokenId);\\n\\n    /**\\n     * @dev Emitted when `owner` enables or disables (`approved`) `operator` to manage all of its assets.\\n     */\\n    event ApprovalForAll(address indexed owner, address indexed operator, bool approved);\\n\\n    /**\\n     * @dev Returns the number of tokens in ``owner``'s account.\\n     */\\n    function balanceOf(address owner) external view returns (uint256 balance);\\n\\n    /**\\n     * @dev Returns the owner of the `tokenId` token.\\n     *\\n     * Requirements:\\n     *\\n     * - `tokenId` must exist.\\n     */\\n    function ownerOf(uint256 tokenId) external view returns (address owner);\\n\\n    /**\\n     * @dev Safely transfers `tokenId` token from `from` to `to`, checking first that contract recipients\\n     * are aware of the ERC721 protocol to prevent tokens from being forever locked.\\n     *\\n     * Requirements:\\n     *\\n     * - `from` cannot be the zero address.\\n     * - `to` cannot be the zero address.\\n     * - `tokenId` token must exist and be owned by `from`.\\n     * - If the caller is not `from`, it must be have been allowed to move this token by either {approve} or {setApprovalForAll}.\\n     * - If `to` refers to a smart contract, it must implement {IERC721Receiver-onERC721Received}, which is called upon a safe transfer.\\n     *\\n     * Emits a {Transfer} event.\\n     */\\n    function safeTransferFrom(address from, address to, uint256 tokenId) external;\\n\\n    /**\\n     * @dev Transfers `tokenId` token from `from` to `to`.\\n     *\\n     * WARNING: Usage of this method is discouraged, use {safeTransferFrom} whenever possible.\\n     *\\n     * Requirements:\\n     *\\n     * - `from` cannot be the zero address.\\n     * - `to` cannot be the zero address.\\n     * - `tokenId` token must be owned by `from`.\\n     * - If the caller is not `from`, it must be approved to move this token by either {approve} or {setApprovalForAll}.\\n     *\\n     * Emits a {Transfer} event.\\n     */\\n    function transferFrom(address from, address to, uint256 tokenId) external;\\n\\n    /**\\n     * @dev Gives permission to `to` to transfer `tokenId` token to another account.\\n     * The approval is cleared when the token is transferred.\\n     *\\n     * Only a single account can be approved at a time, so approving the zero address clears previous approvals.\\n     *\\n     * Requirements:\\n     *\\n     * - The caller must own the token or be an approved operator.\\n     * - `tokenId` must exist.\\n     *\\n     * Emits an {Approval} event.\\n     */\\n    function approve(address to, uint256 tokenId) external;\\n\\n    /**\\n     * @dev Returns the account approved for `tokenId` token.\\n     *\\n     * Requirements:\\n     *\\n     * - `tokenId` must exist.\\n     */\\n    function getApproved(uint256 tokenId) external view returns (address operator);\\n\\n    /**\\n     * @dev Approve or remove `operator` as an operator for the caller.\\n     * Operators can call {transferFrom} or {safeTransferFrom} for any token owned by the caller.\\n     *\\n     * Requirements:\\n     *\\n     * - The `operator` cannot be the caller.\\n     *\\n     * Emits an {ApprovalForAll} event.\\n     */\\n    function setApprovalForAll(address operator, bool _approved) external;\\n\\n    /**\\n     * @dev Returns if the `operator` is allowed to manage all of the assets of `owner`.\\n     *\\n     * See {setApprovalForAll}\\n     */\\n    function isApprovedForAll(address owner, address operator) external view returns (bool);\\n\\n    /**\\n      * @dev Safely transfers `tokenId` token from `from` to `to`.\\n      *\\n      * Requirements:\\n      *\\n      * - `from` cannot be the zero address.\\n      * - `to` cannot be the zero address.\\n      * - `tokenId` token must exist and be owned by `from`.\\n      * - If the caller is not `from`, it must be approved to move this token by either {approve} or {setApprovalForAll}.\\n      * - If `to` refers to a smart contract, it must implement {IERC721Receiver-onERC721Received}, which is called upon a safe transfer.\\n      *\\n      * Emits a {Transfer} event.\\n      */\\n    function safeTransferFrom(address from, address to, uint256 tokenId, bytes calldata data) external;\\n}\\n\",\"keccak256\":\"0xc1c941ad1e580b4623007305921efe2f26fc7320a4edc226234dd707c658a428\",\"license\":\"MIT\"},\"@openzeppelin/contracts/token/ERC721/extensions/IERC721Metadata.sol\":{\"content\":\"// SPDX-License-Identifier: MIT\\n\\npragma solidity ^0.8.0;\\n\\nimport \\\"../IERC721.sol\\\";\\n\\n/**\\n * @title ERC-721 Non-Fungible Token Standard, optional metadata extension\\n * @dev See https://eips.ethereum.org/EIPS/eip-721\\n */\\ninterface IERC721Metadata is IERC721 {\\n\\n    /**\\n     * @dev Returns the token collection name.\\n     */\\n    function name() external view returns (string memory);\\n\\n    /**\\n     * @dev Returns the token collection symbol.\\n     */\\n    function symbol() external view returns (string memory);\\n\\n    /**\\n     * @dev Returns the Uniform Resource Identifier (URI) for `tokenId` token.\\n     */\\n    function tokenURI(uint256 tokenId) external view returns (string memory);\\n}\\n\",\"keccak256\":\"0xb8d11e77eb1ed34a33720edb551d7d6a6b0eee2bfaa40a7024020e1fdf879b16\",\"license\":\"MIT\"},\"@openzeppelin/contracts/utils/Address.sol\":{\"content\":\"// SPDX-License-Identifier: MIT\\n\\npragma solidity ^0.8.0;\\n\\n/**\\n * @dev Collection of functions related to the address type\\n */\\nlibrary Address {\\n    /**\\n     * @dev Returns true if `account` is a contract.\\n     *\\n     * [IMPORTANT]\\n     * ====\\n     * It is unsafe to assume that an address for which this function returns\\n     * false is an externally-owned account (EOA) and not a contract.\\n     *\\n     * Among others, `isContract` will return false for the following\\n     * types of addresses:\\n     *\\n     *  - an externally-owned account\\n     *  - a contract in construction\\n     *  - an address where a contract will be created\\n     *  - an address where a contract lived, but was destroyed\\n     * ====\\n     */\\n    function isContract(address account) internal view returns (bool) {\\n        // This method relies on extcodesize, which returns 0 for contracts in\\n        // construction, since the code is only stored at the end of the\\n        // constructor execution.\\n\\n        uint256 size;\\n        // solhint-disable-next-line no-inline-assembly\\n        assembly { size := extcodesize(account) }\\n        return size > 0;\\n    }\\n\\n    /**\\n     * @dev Replacement for Solidity's `transfer`: sends `amount` wei to\\n     * `recipient`, forwarding all available gas and reverting on errors.\\n     *\\n     * https://eips.ethereum.org/EIPS/eip-1884[EIP1884] increases the gas cost\\n     * of certain opcodes, possibly making contracts go over the 2300 gas limit\\n     * imposed by `transfer`, making them unable to receive funds via\\n     * `transfer`. {sendValue} removes this limitation.\\n     *\\n     * https://diligence.consensys.net/posts/2019/09/stop-using-soliditys-transfer-now/[Learn more].\\n     *\\n     * IMPORTANT: because control is transferred to `recipient`, care must be\\n     * taken to not create reentrancy vulnerabilities. Consider using\\n     * {ReentrancyGuard} or the\\n     * https://solidity.readthedocs.io/en/v0.5.11/security-considerations.html#use-the-checks-effects-interactions-pattern[checks-effects-interactions pattern].\\n     */\\n    function sendValue(address payable recipient, uint256 amount) internal {\\n        require(address(this).balance >= amount, \\\"Address: insufficient balance\\\");\\n\\n        // solhint-disable-next-line avoid-low-level-calls, avoid-call-value\\n        (bool success, ) = recipient.call{ value: amount }(\\\"\\\");\\n        require(success, \\\"Address: unable to send value, recipient may have reverted\\\");\\n    }\\n\\n    /**\\n     * @dev Performs a Solidity function call using a low level `call`. A\\n     * plain`call` is an unsafe replacement for a function call: use this\\n     * function instead.\\n     *\\n     * If `target` reverts with a revert reason, it is bubbled up by this\\n     * function (like regular Solidity function calls).\\n     *\\n     * Returns the raw returned data. To convert to the expected return value,\\n     * use https://solidity.readthedocs.io/en/latest/units-and-global-variables.html?highlight=abi.decode#abi-encoding-and-decoding-functions[`abi.decode`].\\n     *\\n     * Requirements:\\n     *\\n     * - `target` must be a contract.\\n     * - calling `target` with `data` must not revert.\\n     *\\n     * _Available since v3.1._\\n     */\\n    function functionCall(address target, bytes memory data) internal returns (bytes memory) {\\n      return functionCall(target, data, \\\"Address: low-level call failed\\\");\\n    }\\n\\n    /**\\n     * @dev Same as {xref-Address-functionCall-address-bytes-}[`functionCall`], but with\\n     * `errorMessage` as a fallback revert reason when `target` reverts.\\n     *\\n     * _Available since v3.1._\\n     */\\n    function functionCall(address target, bytes memory data, string memory errorMessage) internal returns (bytes memory) {\\n        return functionCallWithValue(target, data, 0, errorMessage);\\n    }\\n\\n    /**\\n     * @dev Same as {xref-Address-functionCall-address-bytes-}[`functionCall`],\\n     * but also transferring `value` wei to `target`.\\n     *\\n     * Requirements:\\n     *\\n     * - the calling contract must have an ETH balance of at least `value`.\\n     * - the called Solidity function must be `payable`.\\n     *\\n     * _Available since v3.1._\\n     */\\n    function functionCallWithValue(address target, bytes memory data, uint256 value) internal returns (bytes memory) {\\n        return functionCallWithValue(target, data, value, \\\"Address: low-level call with value failed\\\");\\n    }\\n\\n    /**\\n     * @dev Same as {xref-Address-functionCallWithValue-address-bytes-uint256-}[`functionCallWithValue`], but\\n     * with `errorMessage` as a fallback revert reason when `target` reverts.\\n     *\\n     * _Available since v3.1._\\n     */\\n    function functionCallWithValue(address target, bytes memory data, uint256 value, string memory errorMessage) internal returns (bytes memory) {\\n        require(address(this).balance >= value, \\\"Address: insufficient balance for call\\\");\\n        require(isContract(target), \\\"Address: call to non-contract\\\");\\n\\n        // solhint-disable-next-line avoid-low-level-calls\\n        (bool success, bytes memory returndata) = target.call{ value: value }(data);\\n        return _verifyCallResult(success, returndata, errorMessage);\\n    }\\n\\n    /**\\n     * @dev Same as {xref-Address-functionCall-address-bytes-}[`functionCall`],\\n     * but performing a static call.\\n     *\\n     * _Available since v3.3._\\n     */\\n    function functionStaticCall(address target, bytes memory data) internal view returns (bytes memory) {\\n        return functionStaticCall(target, data, \\\"Address: low-level static call failed\\\");\\n    }\\n\\n    /**\\n     * @dev Same as {xref-Address-functionCall-address-bytes-string-}[`functionCall`],\\n     * but performing a static call.\\n     *\\n     * _Available since v3.3._\\n     */\\n    function functionStaticCall(address target, bytes memory data, string memory errorMessage) internal view returns (bytes memory) {\\n        require(isContract(target), \\\"Address: static call to non-contract\\\");\\n\\n        // solhint-disable-next-line avoid-low-level-calls\\n        (bool success, bytes memory returndata) = target.staticcall(data);\\n        return _verifyCallResult(success, returndata, errorMessage);\\n    }\\n\\n    /**\\n     * @dev Same as {xref-Address-functionCall-address-bytes-}[`functionCall`],\\n     * but performing a delegate call.\\n     *\\n     * _Available since v3.4._\\n     */\\n    function functionDelegateCall(address target, bytes memory data) internal returns (bytes memory) {\\n        return functionDelegateCall(target, data, \\\"Address: low-level delegate call failed\\\");\\n    }\\n\\n    /**\\n     * @dev Same as {xref-Address-functionCall-address-bytes-string-}[`functionCall`],\\n     * but performing a delegate call.\\n     *\\n     * _Available since v3.4._\\n     */\\n    function functionDelegateCall(address target, bytes memory data, string memory errorMessage) internal returns (bytes memory) {\\n        require(isContract(target), \\\"Address: delegate call to non-contract\\\");\\n\\n        // solhint-disable-next-line avoid-low-level-calls\\n        (bool success, bytes memory returndata) = target.delegatecall(data);\\n        return _verifyCallResult(success, returndata, errorMessage);\\n    }\\n\\n    function _verifyCallResult(bool success, bytes memory returndata, string memory errorMessage) private pure returns(bytes memory) {\\n        if (success) {\\n            return returndata;\\n        } else {\\n            // Look for revert reason and bubble it up if present\\n            if (returndata.length > 0) {\\n                // The easiest way to bubble the revert reason is using memory via assembly\\n\\n                // solhint-disable-next-line no-inline-assembly\\n                assembly {\\n                    let returndata_size := mload(returndata)\\n                    revert(add(32, returndata), returndata_size)\\n                }\\n            } else {\\n                revert(errorMessage);\\n            }\\n        }\\n    }\\n}\\n\",\"keccak256\":\"0x069b2631bb5b5193a58ccf7a06266c7361bd2c20095667af4402817605627f45\",\"license\":\"MIT\"},\"@openzeppelin/contracts/utils/Context.sol\":{\"content\":\"// SPDX-License-Identifier: MIT\\n\\npragma solidity ^0.8.0;\\n\\n/*\\n * @dev Provides information about the current execution context, including the\\n * sender of the transaction and its data. While these are generally available\\n * via msg.sender and msg.data, they should not be accessed in such a direct\\n * manner, since when dealing with meta-transactions the account sending and\\n * paying for execution may not be the actual sender (as far as an application\\n * is concerned).\\n *\\n * This contract is only required for intermediate, library-like contracts.\\n */\\nabstract contract Context {\\n    function _msgSender() internal view virtual returns (address) {\\n        return msg.sender;\\n    }\\n\\n    function _msgData() internal view virtual returns (bytes calldata) {\\n        this; // silence state mutability warning without generating bytecode - see https://github.com/ethereum/solidity/issues/2691\\n        return msg.data;\\n    }\\n}\\n\",\"keccak256\":\"0xf930d2df426bfcfc1f7415be724f04081c96f4fb9ec8d0e3a521c07692dface0\",\"license\":\"MIT\"},\"@openzeppelin/contracts/utils/Counters.sol\":{\"content\":\"// SPDX-License-Identifier: MIT\\n\\npragma solidity ^0.8.0;\\n\\n/**\\n * @title Counters\\n * @author Matt Condon (@shrugs)\\n * @dev Provides counters that can only be incremented or decremented by one. This can be used e.g. to track the number\\n * of elements in a mapping, issuing ERC721 ids, or counting request ids.\\n *\\n * Include with `using Counters for Counters.Counter;`\\n */\\nlibrary Counters {\\n    struct Counter {\\n        // This variable should never be directly accessed by users of the library: interactions must be restricted to\\n        // the library's function. As of Solidity v0.5.2, this cannot be enforced, though there is a proposal to add\\n        // this feature: see https://github.com/ethereum/solidity/issues/4637\\n        uint256 _value; // default: 0\\n    }\\n\\n    function current(Counter storage counter) internal view returns (uint256) {\\n        return counter._value;\\n    }\\n\\n    function increment(Counter storage counter) internal {\\n        unchecked {\\n            counter._value += 1;\\n        }\\n    }\\n\\n    function decrement(Counter storage counter) internal {\\n        uint256 value = counter._value;\\n        require(value > 0, \\\"Counter: decrement overflow\\\");\\n        unchecked {\\n            counter._value = value - 1;\\n        }\\n    }\\n}\\n\",\"keccak256\":\"0x62d306ff0499a11913bc60b5939eec619509b5c67b30e86ebf8b8bda0b7a7fee\",\"license\":\"MIT\"},\"@openzeppelin/contracts/utils/cryptography/MerkleProof.sol\":{\"content\":\"// SPDX-License-Identifier: MIT\\n\\npragma solidity ^0.8.0;\\n\\n/**\\n * @dev These functions deal with verification of Merkle Trees proofs.\\n *\\n * The proofs can be generated using the JavaScript library\\n * https://github.com/miguelmota/merkletreejs[merkletreejs].\\n * Note: the hashing algorithm should be keccak256 and pair sorting should be enabled.\\n *\\n * See `test/utils/cryptography/MerkleProof.test.js` for some examples.\\n */\\nlibrary MerkleProof {\\n    /**\\n     * @dev Returns true if a `leaf` can be proved to be a part of a Merkle tree\\n     * defined by `root`. For this, a `proof` must be provided, containing\\n     * sibling hashes on the branch from the leaf to the root of the tree. Each\\n     * pair of leaves and each pair of pre-images are assumed to be sorted.\\n     */\\n    function verify(bytes32[] memory proof, bytes32 root, bytes32 leaf) internal pure returns (bool) {\\n        bytes32 computedHash = leaf;\\n\\n        for (uint256 i = 0; i < proof.length; i++) {\\n            bytes32 proofElement = proof[i];\\n\\n            if (computedHash <= proofElement) {\\n                // Hash(current computed hash + current element of the proof)\\n                computedHash = keccak256(abi.encodePacked(computedHash, proofElement));\\n            } else {\\n                // Hash(current element of the proof + current computed hash)\\n                computedHash = keccak256(abi.encodePacked(proofElement, computedHash));\\n            }\\n        }\\n\\n        // Check if the computed hash (root) is equal to the provided root\\n        return computedHash == root;\\n    }\\n}\\n\",\"keccak256\":\"0xeee34bfb413657b6cd6c8e1e15c2080ba5ebaac479578515922804346fb63f7c\",\"license\":\"MIT\"},\"@openzeppelin/contracts/utils/introspection/IERC165.sol\":{\"content\":\"// SPDX-License-Identifier: MIT\\n\\npragma solidity ^0.8.0;\\n\\n/**\\n * @dev Interface of the ERC165 standard, as defined in the\\n * https://eips.ethereum.org/EIPS/eip-165[EIP].\\n *\\n * Implementers can declare support of contract interfaces, which can then be\\n * queried by others ({ERC165Checker}).\\n *\\n * For an implementation, see {ERC165}.\\n */\\ninterface IERC165 {\\n    /**\\n     * @dev Returns true if this contract implements the interface defined by\\n     * `interfaceId`. See the corresponding\\n     * https://eips.ethereum.org/EIPS/eip-165#how-interfaces-are-identified[EIP section]\\n     * to learn more about how these ids are created.\\n     *\\n     * This function call must use less than 30 000 gas.\\n     */\\n    function supportsInterface(bytes4 interfaceId) external view returns (bool);\\n}\\n\",\"keccak256\":\"0xa28007762d9da9db878dd421960c8cb9a10471f47ab5c1b3309bfe48e9e79ff4\",\"license\":\"MIT\"},\"@openzeppelin/contracts/utils/math/SafeCast.sol\":{\"content\":\"// SPDX-License-Identifier: MIT\\n\\npragma solidity ^0.8.0;\\n\\n/**\\n * @dev Wrappers over Solidity's uintXX/intXX casting operators with added overflow\\n * checks.\\n *\\n * Downcasting from uint256/int256 in Solidity does not revert on overflow. This can\\n * easily result in undesired exploitation or bugs, since developers usually\\n * assume that overflows raise errors. `SafeCast` restores this intuition by\\n * reverting the transaction when such an operation overflows.\\n *\\n * Using this library instead of the unchecked operations eliminates an entire\\n * class of bugs, so it's recommended to use it always.\\n *\\n * Can be combined with {SafeMath} and {SignedSafeMath} to extend it to smaller types, by performing\\n * all math on `uint256` and `int256` and then downcasting.\\n */\\nlibrary SafeCast {\\n    /**\\n     * @dev Returns the downcasted uint128 from uint256, reverting on\\n     * overflow (when the input is greater than largest uint128).\\n     *\\n     * Counterpart to Solidity's `uint128` operator.\\n     *\\n     * Requirements:\\n     *\\n     * - input must fit into 128 bits\\n     */\\n    function toUint128(uint256 value) internal pure returns (uint128) {\\n        require(value < 2**128, \\\"SafeCast: value doesn\\\\'t fit in 128 bits\\\");\\n        return uint128(value);\\n    }\\n\\n    /**\\n     * @dev Returns the downcasted uint64 from uint256, reverting on\\n     * overflow (when the input is greater than largest uint64).\\n     *\\n     * Counterpart to Solidity's `uint64` operator.\\n     *\\n     * Requirements:\\n     *\\n     * - input must fit into 64 bits\\n     */\\n    function toUint64(uint256 value) internal pure returns (uint64) {\\n        require(value < 2**64, \\\"SafeCast: value doesn\\\\'t fit in 64 bits\\\");\\n        return uint64(value);\\n    }\\n\\n    /**\\n     * @dev Returns the downcasted uint32 from uint256, reverting on\\n     * overflow (when the input is greater than largest uint32).\\n     *\\n     * Counterpart to Solidity's `uint32` operator.\\n     *\\n     * Requirements:\\n     *\\n     * - input must fit into 32 bits\\n     */\\n    function toUint32(uint256 value) internal pure returns (uint32) {\\n        require(value < 2**32, \\\"SafeCast: value doesn\\\\'t fit in 32 bits\\\");\\n        return uint32(value);\\n    }\\n\\n    /**\\n     * @dev Returns the downcasted uint16 from uint256, reverting on\\n     * overflow (when the input is greater than largest uint16).\\n     *\\n     * Counterpart to Solidity's `uint16` operator.\\n     *\\n     * Requirements:\\n     *\\n     * - input must fit into 16 bits\\n     */\\n    function toUint16(uint256 value) internal pure returns (uint16) {\\n        require(value < 2**16, \\\"SafeCast: value doesn\\\\'t fit in 16 bits\\\");\\n        return uint16(value);\\n    }\\n\\n    /**\\n     * @dev Returns the downcasted uint8 from uint256, reverting on\\n     * overflow (when the input is greater than largest uint8).\\n     *\\n     * Counterpart to Solidity's `uint8` operator.\\n     *\\n     * Requirements:\\n     *\\n     * - input must fit into 8 bits.\\n     */\\n    function toUint8(uint256 value) internal pure returns (uint8) {\\n        require(value < 2**8, \\\"SafeCast: value doesn\\\\'t fit in 8 bits\\\");\\n        return uint8(value);\\n    }\\n\\n    /**\\n     * @dev Converts a signed int256 into an unsigned uint256.\\n     *\\n     * Requirements:\\n     *\\n     * - input must be greater than or equal to 0.\\n     */\\n    function toUint256(int256 value) internal pure returns (uint256) {\\n        require(value >= 0, \\\"SafeCast: value must be positive\\\");\\n        return uint256(value);\\n    }\\n\\n    /**\\n     * @dev Returns the downcasted int128 from int256, reverting on\\n     * overflow (when the input is less than smallest int128 or\\n     * greater than largest int128).\\n     *\\n     * Counterpart to Solidity's `int128` operator.\\n     *\\n     * Requirements:\\n     *\\n     * - input must fit into 128 bits\\n     *\\n     * _Available since v3.1._\\n     */\\n    function toInt128(int256 value) internal pure returns (int128) {\\n        require(value >= -2**127 && value < 2**127, \\\"SafeCast: value doesn\\\\'t fit in 128 bits\\\");\\n        return int128(value);\\n    }\\n\\n    /**\\n     * @dev Returns the downcasted int64 from int256, reverting on\\n     * overflow (when the input is less than smallest int64 or\\n     * greater than largest int64).\\n     *\\n     * Counterpart to Solidity's `int64` operator.\\n     *\\n     * Requirements:\\n     *\\n     * - input must fit into 64 bits\\n     *\\n     * _Available since v3.1._\\n     */\\n    function toInt64(int256 value) internal pure returns (int64) {\\n        require(value >= -2**63 && value < 2**63, \\\"SafeCast: value doesn\\\\'t fit in 64 bits\\\");\\n        return int64(value);\\n    }\\n\\n    /**\\n     * @dev Returns the downcasted int32 from int256, reverting on\\n     * overflow (when the input is less than smallest int32 or\\n     * greater than largest int32).\\n     *\\n     * Counterpart to Solidity's `int32` operator.\\n     *\\n     * Requirements:\\n     *\\n     * - input must fit into 32 bits\\n     *\\n     * _Available since v3.1._\\n     */\\n    function toInt32(int256 value) internal pure returns (int32) {\\n        require(value >= -2**31 && value < 2**31, \\\"SafeCast: value doesn\\\\'t fit in 32 bits\\\");\\n        return int32(value);\\n    }\\n\\n    /**\\n     * @dev Returns the downcasted int16 from int256, reverting on\\n     * overflow (when the input is less than smallest int16 or\\n     * greater than largest int16).\\n     *\\n     * Counterpart to Solidity's `int16` operator.\\n     *\\n     * Requirements:\\n     *\\n     * - input must fit into 16 bits\\n     *\\n     * _Available since v3.1._\\n     */\\n    function toInt16(int256 value) internal pure returns (int16) {\\n        require(value >= -2**15 && value < 2**15, \\\"SafeCast: value doesn\\\\'t fit in 16 bits\\\");\\n        return int16(value);\\n    }\\n\\n    /**\\n     * @dev Returns the downcasted int8 from int256, reverting on\\n     * overflow (when the input is less than smallest int8 or\\n     * greater than largest int8).\\n     *\\n     * Counterpart to Solidity's `int8` operator.\\n     *\\n     * Requirements:\\n     *\\n     * - input must fit into 8 bits.\\n     *\\n     * _Available since v3.1._\\n     */\\n    function toInt8(int256 value) internal pure returns (int8) {\\n        require(value >= -2**7 && value < 2**7, \\\"SafeCast: value doesn\\\\'t fit in 8 bits\\\");\\n        return int8(value);\\n    }\\n\\n    /**\\n     * @dev Converts an unsigned uint256 into a signed int256.\\n     *\\n     * Requirements:\\n     *\\n     * - input must be less than or equal to maxInt256.\\n     */\\n    function toInt256(uint256 value) internal pure returns (int256) {\\n        require(value < 2**255, \\\"SafeCast: value doesn't fit in an int256\\\");\\n        return int256(value);\\n    }\\n}\\n\",\"keccak256\":\"0xc37d85b96c2a8d7bc09f25958e0a81394bf5780286444147ddf875fa628d53ce\",\"license\":\"MIT\"},\"@openzeppelin/contracts/utils/math/SafeMath.sol\":{\"content\":\"// SPDX-License-Identifier: MIT\\n\\npragma solidity ^0.8.0;\\n\\n// CAUTION\\n// This version of SafeMath should only be used with Solidity 0.8 or later,\\n// because it relies on the compiler's built in overflow checks.\\n\\n/**\\n * @dev Wrappers over Solidity's arithmetic operations.\\n *\\n * NOTE: `SafeMath` is no longer needed starting with Solidity 0.8. The compiler\\n * now has built in overflow checking.\\n */\\nlibrary SafeMath {\\n    /**\\n     * @dev Returns the addition of two unsigned integers, with an overflow flag.\\n     *\\n     * _Available since v3.4._\\n     */\\n    function tryAdd(uint256 a, uint256 b) internal pure returns (bool, uint256) {\\n        unchecked {\\n            uint256 c = a + b;\\n            if (c < a) return (false, 0);\\n            return (true, c);\\n        }\\n    }\\n\\n    /**\\n     * @dev Returns the substraction of two unsigned integers, with an overflow flag.\\n     *\\n     * _Available since v3.4._\\n     */\\n    function trySub(uint256 a, uint256 b) internal pure returns (bool, uint256) {\\n        unchecked {\\n            if (b > a) return (false, 0);\\n            return (true, a - b);\\n        }\\n    }\\n\\n    /**\\n     * @dev Returns the multiplication of two unsigned integers, with an overflow flag.\\n     *\\n     * _Available since v3.4._\\n     */\\n    function tryMul(uint256 a, uint256 b) internal pure returns (bool, uint256) {\\n        unchecked {\\n            // Gas optimization: this is cheaper than requiring 'a' not being zero, but the\\n            // benefit is lost if 'b' is also tested.\\n            // See: https://github.com/OpenZeppelin/openzeppelin-contracts/pull/522\\n            if (a == 0) return (true, 0);\\n            uint256 c = a * b;\\n            if (c / a != b) return (false, 0);\\n            return (true, c);\\n        }\\n    }\\n\\n    /**\\n     * @dev Returns the division of two unsigned integers, with a division by zero flag.\\n     *\\n     * _Available since v3.4._\\n     */\\n    function tryDiv(uint256 a, uint256 b) internal pure returns (bool, uint256) {\\n        unchecked {\\n            if (b == 0) return (false, 0);\\n            return (true, a / b);\\n        }\\n    }\\n\\n    /**\\n     * @dev Returns the remainder of dividing two unsigned integers, with a division by zero flag.\\n     *\\n     * _Available since v3.4._\\n     */\\n    function tryMod(uint256 a, uint256 b) internal pure returns (bool, uint256) {\\n        unchecked {\\n            if (b == 0) return (false, 0);\\n            return (true, a % b);\\n        }\\n    }\\n\\n    /**\\n     * @dev Returns the addition of two unsigned integers, reverting on\\n     * overflow.\\n     *\\n     * Counterpart to Solidity's `+` operator.\\n     *\\n     * Requirements:\\n     *\\n     * - Addition cannot overflow.\\n     */\\n    function add(uint256 a, uint256 b) internal pure returns (uint256) {\\n        return a + b;\\n    }\\n\\n    /**\\n     * @dev Returns the subtraction of two unsigned integers, reverting on\\n     * overflow (when the result is negative).\\n     *\\n     * Counterpart to Solidity's `-` operator.\\n     *\\n     * Requirements:\\n     *\\n     * - Subtraction cannot overflow.\\n     */\\n    function sub(uint256 a, uint256 b) internal pure returns (uint256) {\\n        return a - b;\\n    }\\n\\n    /**\\n     * @dev Returns the multiplication of two unsigned integers, reverting on\\n     * overflow.\\n     *\\n     * Counterpart to Solidity's `*` operator.\\n     *\\n     * Requirements:\\n     *\\n     * - Multiplication cannot overflow.\\n     */\\n    function mul(uint256 a, uint256 b) internal pure returns (uint256) {\\n        return a * b;\\n    }\\n\\n    /**\\n     * @dev Returns the integer division of two unsigned integers, reverting on\\n     * division by zero. The result is rounded towards zero.\\n     *\\n     * Counterpart to Solidity's `/` operator.\\n     *\\n     * Requirements:\\n     *\\n     * - The divisor cannot be zero.\\n     */\\n    function div(uint256 a, uint256 b) internal pure returns (uint256) {\\n        return a / b;\\n    }\\n\\n    /**\\n     * @dev Returns the remainder of dividing two unsigned integers. (unsigned integer modulo),\\n     * reverting when dividing by zero.\\n     *\\n     * Counterpart to Solidity's `%` operator. This function uses a `revert`\\n     * opcode (which leaves remaining gas untouched) while Solidity uses an\\n     * invalid opcode to revert (consuming all remaining gas).\\n     *\\n     * Requirements:\\n     *\\n     * - The divisor cannot be zero.\\n     */\\n    function mod(uint256 a, uint256 b) internal pure returns (uint256) {\\n        return a % b;\\n    }\\n\\n    /**\\n     * @dev Returns the subtraction of two unsigned integers, reverting with custom message on\\n     * overflow (when the result is negative).\\n     *\\n     * CAUTION: This function is deprecated because it requires allocating memory for the error\\n     * message unnecessarily. For custom revert reasons use {trySub}.\\n     *\\n     * Counterpart to Solidity's `-` operator.\\n     *\\n     * Requirements:\\n     *\\n     * - Subtraction cannot overflow.\\n     */\\n    function sub(uint256 a, uint256 b, string memory errorMessage) internal pure returns (uint256) {\\n        unchecked {\\n            require(b <= a, errorMessage);\\n            return a - b;\\n        }\\n    }\\n\\n    /**\\n     * @dev Returns the integer division of two unsigned integers, reverting with custom message on\\n     * division by zero. The result is rounded towards zero.\\n     *\\n     * Counterpart to Solidity's `%` operator. This function uses a `revert`\\n     * opcode (which leaves remaining gas untouched) while Solidity uses an\\n     * invalid opcode to revert (consuming all remaining gas).\\n     *\\n     * Counterpart to Solidity's `/` operator. Note: this function uses a\\n     * `revert` opcode (which leaves remaining gas untouched) while Solidity\\n     * uses an invalid opcode to revert (consuming all remaining gas).\\n     *\\n     * Requirements:\\n     *\\n     * - The divisor cannot be zero.\\n     */\\n    function div(uint256 a, uint256 b, string memory errorMessage) internal pure returns (uint256) {\\n        unchecked {\\n            require(b > 0, errorMessage);\\n            return a / b;\\n        }\\n    }\\n\\n    /**\\n     * @dev Returns the remainder of dividing two unsigned integers. (unsigned integer modulo),\\n     * reverting with custom message when dividing by zero.\\n     *\\n     * CAUTION: This function is deprecated because it requires allocating memory for the error\\n     * message unnecessarily. For custom revert reasons use {tryMod}.\\n     *\\n     * Counterpart to Solidity's `%` operator. This function uses a `revert`\\n     * opcode (which leaves remaining gas untouched) while Solidity uses an\\n     * invalid opcode to revert (consuming all remaining gas).\\n     *\\n     * Requirements:\\n     *\\n     * - The divisor cannot be zero.\\n     */\\n    function mod(uint256 a, uint256 b, string memory errorMessage) internal pure returns (uint256) {\\n        unchecked {\\n            require(b > 0, errorMessage);\\n            return a % b;\\n        }\\n    }\\n}\\n\",\"keccak256\":\"0x2526b7c6a366fc211bbc176078ab02b83833e7682abcc5b3bed9d700b34e2a3e\",\"license\":\"MIT\"},\"@openzeppelin/contracts/utils/structs/EnumerableSet.sol\":{\"content\":\"// SPDX-License-Identifier: MIT\\n\\npragma solidity ^0.8.0;\\n\\n/**\\n * @dev Library for managing\\n * https://en.wikipedia.org/wiki/Set_(abstract_data_type)[sets] of primitive\\n * types.\\n *\\n * Sets have the following properties:\\n *\\n * - Elements are added, removed, and checked for existence in constant time\\n * (O(1)).\\n * - Elements are enumerated in O(n). No guarantees are made on the ordering.\\n *\\n * ```\\n * contract Example {\\n *     // Add the library methods\\n *     using EnumerableSet for EnumerableSet.AddressSet;\\n *\\n *     // Declare a set state variable\\n *     EnumerableSet.AddressSet private mySet;\\n * }\\n * ```\\n *\\n * As of v3.3.0, sets of type `bytes32` (`Bytes32Set`), `address` (`AddressSet`)\\n * and `uint256` (`UintSet`) are supported.\\n */\\nlibrary EnumerableSet {\\n    // To implement this library for multiple types with as little code\\n    // repetition as possible, we write it in terms of a generic Set type with\\n    // bytes32 values.\\n    // The Set implementation uses private functions, and user-facing\\n    // implementations (such as AddressSet) are just wrappers around the\\n    // underlying Set.\\n    // This means that we can only create new EnumerableSets for types that fit\\n    // in bytes32.\\n\\n    struct Set {\\n        // Storage of set values\\n        bytes32[] _values;\\n\\n        // Position of the value in the `values` array, plus 1 because index 0\\n        // means a value is not in the set.\\n        mapping (bytes32 => uint256) _indexes;\\n    }\\n\\n    /**\\n     * @dev Add a value to a set. O(1).\\n     *\\n     * Returns true if the value was added to the set, that is if it was not\\n     * already present.\\n     */\\n    function _add(Set storage set, bytes32 value) private returns (bool) {\\n        if (!_contains(set, value)) {\\n            set._values.push(value);\\n            // The value is stored at length-1, but we add 1 to all indexes\\n            // and use 0 as a sentinel value\\n            set._indexes[value] = set._values.length;\\n            return true;\\n        } else {\\n            return false;\\n        }\\n    }\\n\\n    /**\\n     * @dev Removes a value from a set. O(1).\\n     *\\n     * Returns true if the value was removed from the set, that is if it was\\n     * present.\\n     */\\n    function _remove(Set storage set, bytes32 value) private returns (bool) {\\n        // We read and store the value's index to prevent multiple reads from the same storage slot\\n        uint256 valueIndex = set._indexes[value];\\n\\n        if (valueIndex != 0) { // Equivalent to contains(set, value)\\n            // To delete an element from the _values array in O(1), we swap the element to delete with the last one in\\n            // the array, and then remove the last element (sometimes called as 'swap and pop').\\n            // This modifies the order of the array, as noted in {at}.\\n\\n            uint256 toDeleteIndex = valueIndex - 1;\\n            uint256 lastIndex = set._values.length - 1;\\n\\n            // When the value to delete is the last one, the swap operation is unnecessary. However, since this occurs\\n            // so rarely, we still do the swap anyway to avoid the gas cost of adding an 'if' statement.\\n\\n            bytes32 lastvalue = set._values[lastIndex];\\n\\n            // Move the last value to the index where the value to delete is\\n            set._values[toDeleteIndex] = lastvalue;\\n            // Update the index for the moved value\\n            set._indexes[lastvalue] = valueIndex; // Replace lastvalue's index to valueIndex\\n\\n            // Delete the slot where the moved value was stored\\n            set._values.pop();\\n\\n            // Delete the index for the deleted slot\\n            delete set._indexes[value];\\n\\n            return true;\\n        } else {\\n            return false;\\n        }\\n    }\\n\\n    /**\\n     * @dev Returns true if the value is in the set. O(1).\\n     */\\n    function _contains(Set storage set, bytes32 value) private view returns (bool) {\\n        return set._indexes[value] != 0;\\n    }\\n\\n    /**\\n     * @dev Returns the number of values on the set. O(1).\\n     */\\n    function _length(Set storage set) private view returns (uint256) {\\n        return set._values.length;\\n    }\\n\\n   /**\\n    * @dev Returns the value stored at position `index` in the set. O(1).\\n    *\\n    * Note that there are no guarantees on the ordering of values inside the\\n    * array, and it may change when more values are added or removed.\\n    *\\n    * Requirements:\\n    *\\n    * - `index` must be strictly less than {length}.\\n    */\\n    function _at(Set storage set, uint256 index) private view returns (bytes32) {\\n        require(set._values.length > index, \\\"EnumerableSet: index out of bounds\\\");\\n        return set._values[index];\\n    }\\n\\n    // Bytes32Set\\n\\n    struct Bytes32Set {\\n        Set _inner;\\n    }\\n\\n    /**\\n     * @dev Add a value to a set. O(1).\\n     *\\n     * Returns true if the value was added to the set, that is if it was not\\n     * already present.\\n     */\\n    function add(Bytes32Set storage set, bytes32 value) internal returns (bool) {\\n        return _add(set._inner, value);\\n    }\\n\\n    /**\\n     * @dev Removes a value from a set. O(1).\\n     *\\n     * Returns true if the value was removed from the set, that is if it was\\n     * present.\\n     */\\n    function remove(Bytes32Set storage set, bytes32 value) internal returns (bool) {\\n        return _remove(set._inner, value);\\n    }\\n\\n    /**\\n     * @dev Returns true if the value is in the set. O(1).\\n     */\\n    function contains(Bytes32Set storage set, bytes32 value) internal view returns (bool) {\\n        return _contains(set._inner, value);\\n    }\\n\\n    /**\\n     * @dev Returns the number of values in the set. O(1).\\n     */\\n    function length(Bytes32Set storage set) internal view returns (uint256) {\\n        return _length(set._inner);\\n    }\\n\\n   /**\\n    * @dev Returns the value stored at position `index` in the set. O(1).\\n    *\\n    * Note that there are no guarantees on the ordering of values inside the\\n    * array, and it may change when more values are added or removed.\\n    *\\n    * Requirements:\\n    *\\n    * - `index` must be strictly less than {length}.\\n    */\\n    function at(Bytes32Set storage set, uint256 index) internal view returns (bytes32) {\\n        return _at(set._inner, index);\\n    }\\n\\n    // AddressSet\\n\\n    struct AddressSet {\\n        Set _inner;\\n    }\\n\\n    /**\\n     * @dev Add a value to a set. O(1).\\n     *\\n     * Returns true if the value was added to the set, that is if it was not\\n     * already present.\\n     */\\n    function add(AddressSet storage set, address value) internal returns (bool) {\\n        return _add(set._inner, bytes32(uint256(uint160(value))));\\n    }\\n\\n    /**\\n     * @dev Removes a value from a set. O(1).\\n     *\\n     * Returns true if the value was removed from the set, that is if it was\\n     * present.\\n     */\\n    function remove(AddressSet storage set, address value) internal returns (bool) {\\n        return _remove(set._inner, bytes32(uint256(uint160(value))));\\n    }\\n\\n    /**\\n     * @dev Returns true if the value is in the set. O(1).\\n     */\\n    function contains(AddressSet storage set, address value) internal view returns (bool) {\\n        return _contains(set._inner, bytes32(uint256(uint160(value))));\\n    }\\n\\n    /**\\n     * @dev Returns the number of values in the set. O(1).\\n     */\\n    function length(AddressSet storage set) internal view returns (uint256) {\\n        return _length(set._inner);\\n    }\\n\\n   /**\\n    * @dev Returns the value stored at position `index` in the set. O(1).\\n    *\\n    * Note that there are no guarantees on the ordering of values inside the\\n    * array, and it may change when more values are added or removed.\\n    *\\n    * Requirements:\\n    *\\n    * - `index` must be strictly less than {length}.\\n    */\\n    function at(AddressSet storage set, uint256 index) internal view returns (address) {\\n        return address(uint160(uint256(_at(set._inner, index))));\\n    }\\n\\n\\n    // UintSet\\n\\n    struct UintSet {\\n        Set _inner;\\n    }\\n\\n    /**\\n     * @dev Add a value to a set. O(1).\\n     *\\n     * Returns true if the value was added to the set, that is if it was not\\n     * already present.\\n     */\\n    function add(UintSet storage set, uint256 value) internal returns (bool) {\\n        return _add(set._inner, bytes32(value));\\n    }\\n\\n    /**\\n     * @dev Removes a value from a set. O(1).\\n     *\\n     * Returns true if the value was removed from the set, that is if it was\\n     * present.\\n     */\\n    function remove(UintSet storage set, uint256 value) internal returns (bool) {\\n        return _remove(set._inner, bytes32(value));\\n    }\\n\\n    /**\\n     * @dev Returns true if the value is in the set. O(1).\\n     */\\n    function contains(UintSet storage set, uint256 value) internal view returns (bool) {\\n        return _contains(set._inner, bytes32(value));\\n    }\\n\\n    /**\\n     * @dev Returns the number of values on the set. O(1).\\n     */\\n    function length(UintSet storage set) internal view returns (uint256) {\\n        return _length(set._inner);\\n    }\\n\\n   /**\\n    * @dev Returns the value stored at position `index` in the set. O(1).\\n    *\\n    * Note that there are no guarantees on the ordering of values inside the\\n    * array, and it may change when more values are added or removed.\\n    *\\n    * Requirements:\\n    *\\n    * - `index` must be strictly less than {length}.\\n    */\\n    function at(UintSet storage set, uint256 index) internal view returns (uint256) {\\n        return uint256(_at(set._inner, index));\\n    }\\n}\\n\",\"keccak256\":\"0x4878ef6c288f4cef3c2a288d32cc548c648831cc55503ad3d9a581ed3b93aad9\",\"license\":\"MIT\"},\"contracts/contexts2/access-control/reentry/ReentryMods.sol\":{\"content\":\"// SPDX-License-Identifier: MIT\\npragma solidity ^0.8.0;\\n\\nimport { AccessControlStorageLib, AccessControlStorage } from \\\"../storage.sol\\\";\\n\\nabstract contract ReentryMods {\\n    modifier nonReentry(bytes32 id) {\\n        AccessControlStorage storage s = AccessControlStorageLib.store();\\n        require(!s.entered[id], \\\"AccessControl: reentered\\\");\\n        s.entered[id] = true;\\n        _;\\n        s.entered[id] = false;\\n    }\\n}\\n\",\"keccak256\":\"0x033c1164af25ef7d35a38a60973bf379b1cc603596914ffd85dcbcf0acdb6970\",\"license\":\"MIT\"},\"contracts/contexts2/access-control/roles/RolesFacet.sol\":{\"content\":\"// SPDX-License-Identifier: MIT\\npragma solidity ^0.8.0;\\n\\nimport { RolesMods } from \\\"./RolesMods.sol\\\";\\nimport { RolesLib } from \\\"./RolesLib.sol\\\";\\nimport { ADMIN } from \\\"../../../shared/roles.sol\\\";\\n\\ncontract RolesFacet is RolesMods {\\n    /**\\n     * @notice Checks if an account has a specific role.\\n     * @param role Encoding of the role to check.\\n     * @param account Address to check the {role} for.\\n     */\\n    function hasRole(bytes32 role, address account)\\n        external\\n        view\\n        returns (bool)\\n    {\\n        return RolesLib.hasRole(role, account);\\n    }\\n\\n    /**\\n     * @notice Grants an account a new role.\\n     * @param role Encoding of the role to give.\\n     * @param account Address to give the {role} to.\\n     *\\n     * Requirements:\\n     *  - Sender must be role admin.\\n     */\\n    function grantRole(bytes32 role, address account)\\n        external\\n        authorized(ADMIN, msg.sender)\\n    {\\n        RolesLib.grantRole(role, account);\\n    }\\n\\n    /**\\n     * @notice Removes a role from an account.\\n     * @param role Encoding of the role to remove.\\n     * @param account Address to remove the {role} from.\\n     *\\n     * Requirements:\\n     *  - Sender must be role admin.\\n     */\\n    function revokeRole(bytes32 role, address account)\\n        external\\n        authorized(ADMIN, msg.sender)\\n    {\\n        RolesLib.revokeRole(role, account);\\n    }\\n\\n    /**\\n     * @notice Removes a role from the sender.\\n     * @param role Encoding of the role to remove.\\n     */\\n    function renounceRole(bytes32 role) external {\\n        RolesLib.revokeRole(role, msg.sender);\\n    }\\n}\\n\",\"keccak256\":\"0x3d02fb1286754a6da3419c81632d23e9444b1fe8cd64283e15fcb07a9b201815\",\"license\":\"MIT\"},\"contracts/contexts2/access-control/roles/RolesLib.sol\":{\"content\":\"// SPDX-License-Identifier: MIT\\npragma solidity ^0.8.0;\\n\\nimport { AccessControlStorageLib, AccessControlStorage } from \\\"../storage.sol\\\";\\n\\nlibrary RolesLib {\\n    function s() private pure returns (AccessControlStorage storage) {\\n        return AccessControlStorageLib.store();\\n    }\\n\\n    /**\\n     * @dev Emitted when `account` is granted `role`.\\n     */\\n    event RoleGranted(\\n        bytes32 indexed role,\\n        address indexed account,\\n        address indexed sender\\n    );\\n\\n    /**\\n     * @dev Emitted when `account` is revoked `role`.\\n     */\\n    event RoleRevoked(\\n        bytes32 indexed role,\\n        address indexed account,\\n        address indexed sender\\n    );\\n\\n    /**\\n     * @notice Checks if an account has a specific role.\\n     */\\n    function hasRole(bytes32 role, address account)\\n        internal\\n        view\\n        returns (bool)\\n    {\\n        return s().roles[role][account];\\n    }\\n\\n    /**\\n     * @dev Gives an account a new role.\\n     * @dev Should only use when circumventing admin checking.\\n     * @dev If account already has the role, no event is emitted.\\n     * @param role Encoding of the role to give.\\n     * @param account Address to give the {role} to.\\n     */\\n    function grantRole(bytes32 role, address account) internal {\\n        if (hasRole(role, account)) return;\\n        s().roles[role][account] = true;\\n        emit RoleGranted(role, account, msg.sender);\\n    }\\n\\n    /**\\n     * @dev Removes a role from an account.\\n     * @dev Should only use when circumventing admin checking.\\n     * @dev If account does not already have the role, no event is emitted.\\n     * @param role Encoding of the role to remove.\\n     * @param account Address to remove the {role} from.\\n     */\\n    function revokeRole(bytes32 role, address account) internal {\\n        if (!hasRole(role, account)) return;\\n        s().roles[role][account] = false;\\n        emit RoleRevoked(role, account, msg.sender);\\n    }\\n}\\n\",\"keccak256\":\"0x36d0f5db441d2c3db7ee04d84c88ce9b14251cff4387702e96965c51acd1bc84\",\"license\":\"MIT\"},\"contracts/contexts2/access-control/roles/RolesMods.sol\":{\"content\":\"// SPDX-License-Identifier: MIT\\npragma solidity ^0.8.0;\\n\\nimport { RolesLib } from \\\"./RolesLib.sol\\\";\\n\\nabstract contract RolesMods {\\n    /**\\n     * @notice Requires that the {account} has {role}\\n     * @param role Encoding of the role to check.\\n     * @param account Address to check the {role} for.\\n     */\\n    modifier authorized(bytes32 role, address account) {\\n        require(\\n            RolesLib.hasRole(role, account),\\n            \\\"AccessControl: not authorized\\\"\\n        );\\n        _;\\n    }\\n}\\n\",\"keccak256\":\"0x25eeaba823d4fc9c52d82a77cfdb409550ad985fc49b30a5560c1f313c1ca905\",\"license\":\"MIT\"},\"contracts/contexts2/access-control/storage.sol\":{\"content\":\"// SPDX-License-Identifier: MIT\\npragma solidity ^0.8.0;\\n\\nstruct AccessControlStorage {\\n    mapping(bytes32 => mapping(address => bool)) roles;\\n    mapping(address => address) owners;\\n    mapping(bytes32 => bool) entered;\\n}\\n\\nbytes32 constant ACCESS_CONTROL_POS = keccak256(\\n    \\\"teller.access_control.storage\\\"\\n);\\n\\nlibrary AccessControlStorageLib {\\n    function store() internal pure returns (AccessControlStorage storage s) {\\n        bytes32 pos = ACCESS_CONTROL_POS;\\n        assembly {\\n            s.slot := pos\\n        }\\n    }\\n}\\n\",\"keccak256\":\"0xf667fb8d6beb59fc6f37d60ada6b811b5861512fedc661c483b9eca042e96112\",\"license\":\"MIT\"},\"contracts/escrow/dapps/interfaces/DataTypes.sol\":{\"content\":\"// SPDX-License-Identifier: agpl-3.0\\npragma solidity ^0.8.0;\\n\\nlibrary DataTypes {\\n    // refer to the aave whitepaper, section 1.1 basic concepts for a formal description of these properties.\\n    struct ReserveData {\\n        //stores the reserve configuration\\n        ReserveConfigurationMap configuration;\\n        //the liquidity index. Expressed in ray\\n        uint128 liquidityIndex;\\n        //variable borrow index. Expressed in ray\\n        uint128 variableBorrowIndex;\\n        //the current supply rate. Expressed in ray\\n        uint128 currentLiquidityRate;\\n        //the current variable borrow rate. Expressed in ray\\n        uint128 currentVariableBorrowRate;\\n        //the current stable borrow rate. Expressed in ray\\n        uint128 currentStableBorrowRate;\\n        uint40 lastUpdateTimestamp;\\n        //tokens addresses\\n        address aTokenAddress;\\n        address stableDebtTokenAddress;\\n        address variableDebtTokenAddress;\\n        //address of the interest rate strategy\\n        address interestRateStrategyAddress;\\n        //the id of the reserve. Represents the position in the list of the active reserves\\n        uint8 id;\\n    }\\n\\n    struct ReserveConfigurationMap {\\n        //bit 0-15: LTV\\n        //bit 16-31: Liq. threshold\\n        //bit 32-47: Liq. bonus\\n        //bit 48-55: Decimals\\n        //bit 56: Reserve is active\\n        //bit 57: reserve is frozen\\n        //bit 58: borrowing is enabled\\n        //bit 59: stable rate borrowing enabled\\n        //bit 60-63: reserved\\n        //bit 64-79: reserve factor\\n        uint256 data;\\n    }\\n\\n    struct UserConfigurationMap {\\n        uint256 data;\\n    }\\n\\n    enum InterestRateMode { NONE, STABLE, VARIABLE }\\n}\\n\",\"keccak256\":\"0xf4301e0bd269f4662f1c1a0ed4f217cd78d670e43d51a025d55878b972d0a8e7\",\"license\":\"agpl-3.0\"},\"contracts/escrow/dapps/interfaces/IAToken.sol\":{\"content\":\"// SPDX-License-Identifier: agpl-3.0\\npragma solidity ^0.8.0;\\n\\ninterface IAToken {\\n    /**\\n     * @dev Mints `amount` aTokens to `user`\\n     * @param user The address receiving the minted tokens\\n     * @param amount The amount of tokens getting minted\\n     * @param index The new liquidity index of the reserve\\n     * @return `true` if the the previous balance of the user was 0\\n     */\\n    function mint(\\n        address user,\\n        uint256 amount,\\n        uint256 index\\n    ) external returns (bool);\\n\\n    /**\\n     * @dev Burns aTokens from `user` and sends the equivalent amount of underlying to `receiverOfUnderlying`\\n     * @param user The owner of the aTokens, getting them burned\\n     * @param receiverOfUnderlying The address that will receive the underlying\\n     * @param amount The amount being burned\\n     * @param index The new liquidity index of the reserve\\n     **/\\n    function burn(\\n        address user,\\n        address receiverOfUnderlying,\\n        uint256 amount,\\n        uint256 index\\n    ) external;\\n\\n    /**\\n     * @dev Transfers the underlying asset to `target`. Used by the LendingPool to transfer\\n     * assets in borrow(), withdraw() and flashLoan()\\n     * @param user The recipient of the aTokens\\n     * @param amount The amount getting transferred\\n     * @return The amount transferred\\n     **/\\n    function transferUnderlyingTo(address user, uint256 amount)\\n        external\\n        returns (uint256);\\n\\n    /**\\n     * @dev Returns the amount of tokens owned by `account`.\\n     */\\n    function balanceOf(address account) external view returns (uint256);\\n\\n    /**\\n     * @dev Returns the remaining number of tokens that `spender` will be\\n     * allowed to spend on behalf of `owner` through {transferFrom}. This is\\n     * zero by default.\\n     *\\n     * This value changes when {approve} or {transferFrom} are called.\\n     */\\n    function allowance(address owner, address spender)\\n        external\\n        view\\n        returns (uint256);\\n\\n    /**\\n     * @dev Sets `amount` as the allowance of `spender` over the caller's tokens.\\n     *\\n     * Returns a boolean value indicating whether the operation succeeded.\\n     *\\n     * IMPORTANT: Beware that changing an allowance with this method brings the risk\\n     * that someone may use both the old and the new allowance by unfortunate\\n     * transaction ordering. One possible solution to mitigate this race\\n     * condition is to first reduce the spender's allowance to 0 and set the\\n     * desired value afterwards:\\n     * https://github.com/ethereum/EIPs/issues/20#issuecomment-263524729\\n     *\\n     * Emits an {Approval} event.\\n     */\\n    function approve(address spender, uint256 amount) external returns (bool);\\n\\n    /**\\n     * @dev Returns the scaled balance of the user. The scaled balance is the sum of all the\\n     * updated stored balance divided by the reserve's liquidity index at the moment of the update\\n     * @param user The user whose balance is calculated\\n     * @return The scaled balance of the user\\n     **/\\n    function scaledBalanceOf(address user) external view returns (uint256);\\n\\n    /**\\n     * @dev Returns the scaled balance of the user and the scaled total supply.\\n     * @param user The address of the user\\n     * @return The scaled balance of the user\\n     * @return The scaled balance and the scaled total supply\\n     **/\\n    function getScaledUserBalanceAndSupply(address user)\\n        external\\n        view\\n        returns (uint256, uint256);\\n\\n    /**\\n     * @dev Returns the scaled total supply of the variable debt token. Represents sum(debt/index)\\n     * @return The scaled total supply\\n     **/\\n    function scaledTotalSupply() external view returns (uint256);\\n}\\n\",\"keccak256\":\"0xf715e63b83c55fcd3476280a0ab871ed763754b3f5404ec779903652a3e7838e\",\"license\":\"agpl-3.0\"},\"contracts/escrow/dapps/interfaces/IAaveLendingPool.sol\":{\"content\":\"// SPDX-License-Identifier: agpl-3.0\\npragma solidity ^0.8.0;\\n\\nimport \\\"./IAaveLendingPoolAddressesProvider.sol\\\";\\nimport \\\"./DataTypes.sol\\\";\\n\\ninterface IAaveLendingPool {\\n    /**\\n     * @dev Deposits an `amount` of underlying asset into the reserve, receiving in return overlying aTokens.\\n     * - E.g. User deposits 100 USDC and gets in return 100 aUSDC\\n     * @param asset The address of the underlying asset to deposit\\n     * @param amount The amount to be deposited\\n     * @param onBehalfOf The address that will receive the aTokens, same as msg.sender if the user\\n     *   wants to receive them on his own wallet, or a different address if the beneficiary of aTokens\\n     *   is a different wallet\\n     * @param referralCode Code used to register the integrator originating the operation, for potential rewards.\\n     *   0 if the action is executed directly by the user, without any middle-man\\n     **/\\n    function deposit(\\n        address asset,\\n        uint256 amount,\\n        address onBehalfOf,\\n        uint16 referralCode\\n    ) external;\\n\\n    /**\\n     * @dev Withdraws an `amount` of underlying asset from the reserve, burning the equivalent aTokens owned\\n     * E.g. User has 100 aUSDC, calls withdraw() and receives 100 USDC, burning the 100 aUSDC\\n     * @param asset The address of the underlying asset to withdraw\\n     * @param amount The underlying amount to be withdrawn\\n     *   - Send the value type(uint256).max in order to withdraw the whole aToken balance\\n     * @param to Address that will receive the underlying, same as msg.sender if the user\\n     *   wants to receive it on his own wallet, or a different address if the beneficiary is a\\n     *   different wallet\\n     * @return The final amount withdrawn\\n     **/\\n    function withdraw(\\n        address asset,\\n        uint256 amount,\\n        address to\\n    ) external returns (uint256);\\n\\n    /**\\n     * @dev Allows users to borrow a specific `amount` of the reserve underlying asset, provided that the borrower\\n     * already deposited enough collateral, or he was given enough allowance by a credit delegator on the\\n     * corresponding debt token (StableDebtToken or VariableDebtToken)\\n     * - E.g. User borrows 100 USDC passing as `onBehalfOf` his own address, receiving the 100 USDC in his wallet\\n     *   and 100 stable/variable debt tokens, depending on the `interestRateMode`\\n     * @param asset The address of the underlying asset to borrow\\n     * @param amount The amount to be borrowed\\n     * @param interestRateMode The interest rate mode at which the user wants to borrow: 1 for Stable, 2 for Variable\\n     * @param referralCode Code used to register the integrator originating the operation, for potential rewards.\\n     *   0 if the action is executed directly by the user, without any middle-man\\n     * @param onBehalfOf Address of the user who will receive the debt. Should be the address of the borrower itself\\n     * calling the function if he wants to borrow against his own collateral, or the address of the credit delegator\\n     * if he has been given credit delegation allowance\\n     **/\\n    function borrow(\\n        address asset,\\n        uint256 amount,\\n        uint256 interestRateMode,\\n        uint16 referralCode,\\n        address onBehalfOf\\n    ) external;\\n\\n    /**\\n     * @notice Repays a borrowed `amount` on a specific reserve, burning the equivalent debt tokens owned\\n     * - E.g. User repays 100 USDC, burning 100 variable/stable debt tokens of the `onBehalfOf` address\\n     * @param asset The address of the borrowed underlying asset previously borrowed\\n     * @param amount The amount to repay\\n     * - Send the value type(uint256).max in order to repay the whole debt for `asset` on the specific `debtMode`\\n     * @param rateMode The interest rate mode at of the debt the user wants to repay: 1 for Stable, 2 for Variable\\n     * @param onBehalfOf Address of the user who will get his debt reduced/removed. Should be the address of the\\n     * user calling the function if he wants to reduce/remove his own debt, or the address of any other\\n     * other borrower whose debt should be removed\\n     * @return The final amount repaid\\n     **/\\n    function repay(\\n        address asset,\\n        uint256 amount,\\n        uint256 rateMode,\\n        address onBehalfOf\\n    ) external returns (uint256);\\n\\n    /**\\n     * @dev Allows a borrower to swap his debt between stable and variable mode, or viceversa\\n     * @param asset The address of the underlying asset borrowed\\n     * @param rateMode The rate mode that the user wants to swap to\\n     **/\\n    function swapBorrowRateMode(address asset, uint256 rateMode) external;\\n\\n    /**\\n     * @dev Rebalances the stable interest rate of a user to the current stable rate defined on the reserve.\\n     * - Users can be rebalanced if the following conditions are satisfied:\\n     *     1. Usage ratio is above 95%\\n     *     2. the current deposit APY is below REBALANCE_UP_THRESHOLD * maxVariableBorrowRate, which means that too much has been\\n     *        borrowed at a stable rate and depositors are not earning enough\\n     * @param asset The address of the underlying asset borrowed\\n     * @param user The address of the user to be rebalanced\\n     **/\\n    function rebalanceStableBorrowRate(address asset, address user) external;\\n\\n    /**\\n     * @dev Allows depositors to enable/disable a specific deposited asset as collateral\\n     * @param asset The address of the underlying asset deposited\\n     * @param useAsCollateral `true` if the user wants to use the deposit as collateral, `false` otherwise\\n     **/\\n    function setUserUseReserveAsCollateral(address asset, bool useAsCollateral)\\n        external;\\n\\n    /**\\n     * @dev Function to liquidate a non-healthy position collateral-wise, with Health Factor below 1\\n     * - The caller (liquidator) covers `debtToCover` amount of debt of the user getting liquidated, and receives\\n     *   a proportionally amount of the `collateralAsset` plus a bonus to cover market risk\\n     * @param collateralAsset The address of the underlying asset used as collateral, to receive as result of the liquidation\\n     * @param debtAsset The address of the underlying borrowed asset to be repaid with the liquidation\\n     * @param user The address of the borrower getting liquidated\\n     * @param debtToCover The debt amount of borrowed `asset` the liquidator wants to cover\\n     * @param receiveAToken `true` if the liquidators wants to receive the collateral aTokens, `false` if he wants\\n     * to receive the underlying collateral asset directly\\n     **/\\n    function liquidationCall(\\n        address collateralAsset,\\n        address debtAsset,\\n        address user,\\n        uint256 debtToCover,\\n        bool receiveAToken\\n    ) external;\\n\\n    /**\\n     * @dev Allows smartcontracts to access the liquidity of the pool within one transaction,\\n     * as long as the amount taken plus a fee is returned.\\n     * IMPORTANT There are security concerns for developers of flashloan receiver contracts that must be kept into consideration.\\n     * For further details please visit https://developers.aave.com\\n     * @param receiverAddress The address of the contract receiving the funds, implementing the IFlashLoanReceiver interface\\n     * @param assets The addresses of the assets being flash-borrowed\\n     * @param amounts The amounts amounts being flash-borrowed\\n     * @param modes Types of the debt to open if the flash loan is not returned:\\n     *   0 -> Don't open any debt, just revert if funds can't be transferred from the receiver\\n     *   1 -> Open debt at stable rate for the value of the amount flash-borrowed to the `onBehalfOf` address\\n     *   2 -> Open debt at variable rate for the value of the amount flash-borrowed to the `onBehalfOf` address\\n     * @param onBehalfOf The address  that will receive the debt in the case of using on `modes` 1 or 2\\n     * @param params Variadic packed params to pass to the receiver as extra information\\n     * @param referralCode Code used to register the integrator originating the operation, for potential rewards.\\n     *   0 if the action is executed directly by the user, without any middle-man\\n     **/\\n    function flashLoan(\\n        address receiverAddress,\\n        address[] calldata assets,\\n        uint256[] calldata amounts,\\n        uint256[] calldata modes,\\n        address onBehalfOf,\\n        bytes calldata params,\\n        uint16 referralCode\\n    ) external;\\n\\n    /**\\n     * @dev Returns the user account data across all the reserves\\n     * @param user The address of the user\\n     * @return totalCollateralETH the total collateral in ETH of the user\\n     * @return totalDebtETH the total debt in ETH of the user\\n     * @return availableBorrowsETH the borrowing power left of the user\\n     * @return currentLiquidationThreshold the liquidation threshold of the user\\n     * @return ltv the loan to value of the user\\n     * @return healthFactor the current health factor of the user\\n     **/\\n    function getUserAccountData(address user)\\n        external\\n        view\\n        returns (\\n            uint256 totalCollateralETH,\\n            uint256 totalDebtETH,\\n            uint256 availableBorrowsETH,\\n            uint256 currentLiquidationThreshold,\\n            uint256 ltv,\\n            uint256 healthFactor\\n        );\\n\\n    /**\\n     * @dev Returns the configuration of the reserve\\n     * @param asset The address of the underlying asset of the reserve\\n     * @return The configuration of the reserve\\n     **/\\n    function getConfiguration(address asset)\\n        external\\n        view\\n        returns (DataTypes.ReserveConfigurationMap memory);\\n\\n    /**\\n     * @dev Returns the configuration of the user across all the reserves\\n     * @param user The user address\\n     * @return The configuration of the user\\n     **/\\n    function getUserConfiguration(address user)\\n        external\\n        view\\n        returns (DataTypes.UserConfigurationMap memory);\\n\\n    /**\\n     * @dev Returns the normalized income normalized income of the reserve\\n     * @param asset The address of the underlying asset of the reserve\\n     * @return The reserve's normalized income\\n     */\\n    function getReserveNormalizedIncome(address asset)\\n        external\\n        view\\n        returns (uint256);\\n\\n    /**\\n     * @dev Returns the normalized variable debt per unit of asset\\n     * @param asset The address of the underlying asset of the reserve\\n     * @return The reserve normalized variable debt\\n     */\\n    function getReserveNormalizedVariableDebt(address asset)\\n        external\\n        view\\n        returns (uint256);\\n\\n    /**\\n     * @dev Returns the state and configuration of the reserve\\n     * @param asset The address of the underlying asset of the reserve\\n     * @return The state of the reserve\\n     **/\\n    function getReserveData(address asset)\\n        external\\n        view\\n        returns (DataTypes.ReserveData memory);\\n\\n    function finalizeTransfer(\\n        address asset,\\n        address from,\\n        address to,\\n        uint256 amount,\\n        uint256 balanceFromAfter,\\n        uint256 balanceToBefore\\n    ) external;\\n\\n    function getReservesList() external view returns (address[] memory);\\n\\n    function getAddressesProvider()\\n        external\\n        view\\n        returns (IAaveLendingPoolAddressesProvider);\\n\\n    function paused() external view returns (bool);\\n}\\n\",\"keccak256\":\"0x8fb5cf82d1c19d0c61151dfb8cf6f6c2a17a15b63600b75f359fe4e9e3acc23f\",\"license\":\"agpl-3.0\"},\"contracts/escrow/dapps/interfaces/IAaveLendingPoolAddressesProvider.sol\":{\"content\":\"// SPDX-License-Identifier: agpl-3.0\\npragma solidity ^0.8.0;\\n\\n/**\\n * @title LendingPoolAddressesProvider contract\\n * @dev Main registry of addresses part of or connected to the protocol, including permissioned roles\\n * - Acting also as factory of proxies and admin of those, so with right to change its implementations\\n * - Owned by the Aave Governance\\n * @author Aave\\n **/\\ninterface IAaveLendingPoolAddressesProvider {\\n    function getMarketId() external view returns (string memory);\\n\\n    function getAddress(bytes32 id) external view returns (address);\\n\\n    function getLendingPool() external view returns (address);\\n\\n    function getPriceOracle() external view returns (address);\\n\\n    function getLendingRateOracle() external view returns (address);\\n}\\n\",\"keccak256\":\"0x9d21dbefac677da74786c27ad0fe1b148c00df63f7a2616d75c2b97c756007b3\",\"license\":\"agpl-3.0\"},\"contracts/escrow/dapps/interfaces/IVault.sol\":{\"content\":\"// SPDX-License-Identifier: MIT\\npragma solidity ^0.8.0;\\n\\n/**\\n    @notice This interface defines the different functions available for a Yearn Vault\\n    @author develop@teller.finance\\n */\\n\\ninterface IVault {\\n    /**\\n        @notice Returns the unwrapped native token address that the Vault takes as deposit\\n        @return The address of the unwrapped token\\n     */\\n    function token() external view returns (address);\\n\\n    /**\\n        @notice Returns the vault's wrapped token name as a string, example 'yearn Dai Stablecoin'\\n        @return The name of the wrapped token\\n     */\\n    function name() external view returns (string memory);\\n\\n    /**\\n        @notice Returns the vault's wrapped token symbol as a string, example 'yDai'\\n        @return The symbol of the wrapped token\\n     */\\n    function symbol() external view returns (string memory);\\n\\n    /**\\n        @notice Returns the amount of decimals for this vault's wrapped token as a uin8\\n        @return The number of decimals for the token\\n     */\\n    function decimals() external view returns (uint8);\\n\\n    /**\\n     * @dev Returns the amount of tokens owned by `account`.\\n     */\\n    function balanceOf(address account) external view returns (uint256);\\n\\n    /**\\n        @notice Returns the address of the Vault's controller\\n        @return The address of the controller contract\\n     */\\n    function controller() external view returns (address);\\n\\n    /**\\n        @notice Returns the address of the Vault's governance contract\\n        @return The contract address\\n     */\\n    function governance() external view returns (address);\\n\\n    /**\\n        @notice Returns the price of the Vault's wrapped token, denominated in the unwrapped native token\\n        @notice Calculation is: nativeTokenBalance/yTokenTotalSupply,\\n            - nativeTokenBalance is the current balance of the native token (example DAI) in the Vault\\n            - yTokenTotalSupply is the total supply of the Vault's wrapped token (example yDAI)\\n        @return The token price\\n     */\\n    function getPricePerFullShare() external view returns (uint256); // v1 vaults\\n\\n    /**\\n        @notice Returns the price of the Vault's wrapped token, denominated in the unwrapped native token\\n        @notice Calculation is: nativeTokenBalance/yTokenTotalSupply,\\n            - nativeTokenBalance is the current balance of the native token (example DAI) in the Vault\\n            - yTokenTotalSupply is the total supply of the Vault's wrapped token (example yDAI)\\n        @return The token price\\n     */\\n    function getPricePerShare() external view returns (uint256); // v2 vaults\\n\\n    /**\\n        @notice Deposits the specified amount of the native unwrapped token (same as token() returns) into the Vault\\n        @param amountToDeposit The amount of tokens to deposit\\n     */\\n    function deposit(uint256 amountToDeposit) external;\\n\\n    /**\\n        @notice Deposits the maximum available amount of the native wrapped token (same as token()) into the Vault\\n     */\\n    function depositAll() external;\\n\\n    /**\\n        @notice Withdraws the specified amount of the native unwrapped token (same as token() returns) from the Vault\\n        @param amountToWithdraw The amount to withdraw\\n     */\\n    function withdraw(uint256 amountToWithdraw) external;\\n\\n    /**\\n        @notice Withdraws the maximum available amount of native unwrapped token (same as token()) from the Vault\\n     */\\n    function withdrawAll() external;\\n}\\n\",\"keccak256\":\"0x0e2e145747f8745bde77d4741abba1a1edb1dab02e9d467eff60cb881bcffd79\",\"license\":\"MIT\"},\"contracts/escrow/dapps/libraries/LibDapps.sol\":{\"content\":\"// SPDX-License-Identifier: MIT\\npragma solidity ^0.8.0;\\n\\n// Interfaces\\nimport { IERC20 } from \\\"@openzeppelin/contracts/token/ERC20/IERC20.sol\\\";\\nimport { IAToken } from \\\"../interfaces/IAToken.sol\\\";\\nimport { IAaveLendingPool } from \\\"../interfaces/IAaveLendingPool.sol\\\";\\nimport {\\n    IAaveLendingPoolAddressesProvider\\n} from \\\"../interfaces/IAaveLendingPoolAddressesProvider.sol\\\";\\nimport {\\n    IUniswapV2Router\\n} from \\\"../../../shared/interfaces/IUniswapV2Router.sol\\\";\\nimport { IVault } from \\\"../interfaces/IVault.sol\\\";\\n\\n// Libraries\\nimport {\\n    EnumerableSet\\n} from \\\"@openzeppelin/contracts/utils/structs/EnumerableSet.sol\\\";\\n\\n// Storage\\nimport { MarketStorageLib, MarketStorage } from \\\"../../../storage/market.sol\\\";\\nimport { AppStorageLib } from \\\"../../../storage/app.sol\\\";\\n\\nlibrary LibDapps {\\n    function s() internal pure returns (MarketStorage storage) {\\n        return MarketStorageLib.store();\\n    }\\n\\n    /**\\n        @notice Grabs the Aave lending pool instance from the Aave lending pool address provider\\n        @return IAaveLendingPool instance address\\n     */\\n    function getAaveLendingPool() internal view returns (IAaveLendingPool) {\\n        return\\n            IAaveLendingPool(\\n                IAaveLendingPoolAddressesProvider(\\n                    0xB53C1a33016B2DC2fF3653530bfF1848a515c8c5\\n                )\\n                    .getLendingPool()\\n            ); // LP address provider contract is immutable and the address will never change\\n    }\\n\\n    /**\\n        @notice Grabs the aToken instance from the lending pool\\n        @param tokenAddress The underlying asset address to get the aToken for\\n        @return IAToken instance\\n     */\\n    function getAToken(address tokenAddress) internal view returns (IAToken) {\\n        return\\n            IAToken(\\n                getAaveLendingPool().getReserveData(tokenAddress).aTokenAddress\\n            );\\n    }\\n\\n    /**\\n        @notice Grabs the yVault address for a token from the asset settings\\n        @param tokenAddress The underlying token address for the associated yVault\\n        @return yVault instance\\n     */\\n    function getYVault(address tokenAddress) internal view returns (IVault) {\\n        return\\n            IVault(\\n                AppStorageLib.store().assetSettings[tokenAddress].addresses[\\n                    keccak256(\\\"yVaultAddress\\\")\\n                ]\\n            );\\n    }\\n}\\n\",\"keccak256\":\"0x8030b206c87d0073fb7dbebfa2ee8a3e93c479d976d6cdaa0c939f2fedaa1525\",\"license\":\"MIT\"},\"contracts/escrow/escrow/ILoansEscrow.sol\":{\"content\":\"// SPDX-License-Identifier: MIT\\npragma solidity ^0.8.0;\\n\\ninterface ILoansEscrow {\\n    function init() external;\\n\\n    /**\\n     * @notice it calls a dapp like YearnFinance at a target contract address with specified calldata\\n     * @param dappAddress address of the target contract address\\n     * @param dappData encoded abi of the function in our contract we want to call\\n     * @return the called data in bytes\\n     */\\n    function callDapp(address dappAddress, bytes calldata dappData)\\n        external\\n        returns (bytes memory);\\n\\n    /**\\n     * @notice it approves the spender to spend a maximum amount of a respective token from a token address\\n     * @param token address of the respective ERC20 token to approve for the spender\\n     * @param spender address of the respective spender who is approved by the token contract\\n     */\\n    function setTokenAllowance(address token, address spender) external;\\n\\n    /**\\n     * @notice it allows user to claim their escrow tokens\\n     * @dev only the owner (TellerDiamond) can make this call on behalf of the users\\n     * @param token address of the respective token contract to claim tokens from\\n     * @param to address where the tokens should be transferred to\\n     * @param amount uint256 amount of tokens to be claimed\\n     */\\n    function claimToken(\\n        address token,\\n        address to,\\n        uint256 amount\\n    ) external;\\n}\\n\",\"keccak256\":\"0xaf67fc4454ffaa4d2f7e46fe7101876e8ebdb1a5426c30f87b8e18cc573ac019\",\"license\":\"MIT\"},\"contracts/escrow/libraries/LibEscrow.sol\":{\"content\":\"// SPDX-License-Identifier: MIT\\npragma solidity ^0.8.0;\\n\\n// Libraries\\nimport { LibDapps } from \\\"../dapps/libraries/LibDapps.sol\\\";\\nimport { LibLoans } from \\\"../../market/libraries/LibLoans.sol\\\";\\nimport { PriceAggLib } from \\\"../../price-aggregator/PriceAggLib.sol\\\";\\nimport {\\n    EnumerableSet\\n} from \\\"@openzeppelin/contracts/utils/structs/EnumerableSet.sol\\\";\\n\\n// Interfaces\\nimport { IERC20 } from \\\"@openzeppelin/contracts/token/ERC20/IERC20.sol\\\";\\nimport { ILoansEscrow } from \\\"../escrow/ILoansEscrow.sol\\\";\\n\\n// Storage\\nimport { MarketStorageLib, MarketStorage } from \\\"../../storage/market.sol\\\";\\n\\nlibrary LibEscrow {\\n    function s() internal pure returns (MarketStorage storage) {\\n        return MarketStorageLib.store();\\n    }\\n\\n    function e(uint256 loanID) internal view returns (ILoansEscrow e_) {\\n        e_ = s().loanEscrows[loanID];\\n    }\\n\\n    /**\\n     * @notice It returns a list of tokens owned by a loan escrow\\n     * @param loanID uint256 index used to return our token list\\n     * @return t_ which is a list of tokens \\n     */\\n    function getEscrowTokens(uint256 loanID)\\n        internal\\n        view\\n        returns (EnumerableSet.AddressSet storage t_)\\n    {\\n        t_ = s().escrowTokens[loanID];\\n    }\\n\\n    /**\\n     * @notice It returns the balance of a respective token in a loan escrow\\n     * @param loanID uint256 index used to point to our loan escrow\\n     * @param token address of respective token to give us the balance of in our loan escrow\\n     * @return uint256 balance of respective token returned in an escrow loan\\n     */\\n    function balanceOf(uint256 loanID, address token)\\n        internal\\n        view\\n        returns (uint256)\\n    {\\n        return IERC20(token).balanceOf(address(e(loanID)));\\n    }\\n\\n    /**\\n     * @notice Adds or removes tokens held by the Escrow contract\\n     * @param loanID The loan ID to update the token list for\\n     * @param tokenAddress The token address to be added or removed\\n     */\\n    function tokenUpdated(uint256 loanID, address tokenAddress) internal {\\n        // Skip if is lending token\\n        if (LibLoans.loan(loanID).lendingToken == tokenAddress) return;\\n\\n        EnumerableSet.AddressSet storage tokens = s().escrowTokens[loanID];\\n        bool contains = EnumerableSet.contains(tokens, tokenAddress);\\n        if (balanceOf(loanID, tokenAddress) > 0) {\\n            if (!contains) {\\n                EnumerableSet.add(tokens, tokenAddress);\\n            }\\n        } else if (contains) {\\n            EnumerableSet.remove(tokens, tokenAddress);\\n        }\\n    }\\n\\n    /**\\n     * @notice Calculate the value of the loan by getting the value of all tokens the Escrow owns.\\n     * @param loanID The loan ID to calculate value for\\n     * @return value_ Escrow total value denoted in the lending token.\\n     */\\n    function calculateTotalValue(uint256 loanID)\\n        internal\\n        view\\n        returns (uint256 value_)\\n    {\\n        address lendingToken = LibLoans.loan(loanID).lendingToken;\\n        value_ += balanceOf(loanID, lendingToken);\\n\\n        EnumerableSet.AddressSet storage tokens = getEscrowTokens(loanID);\\n        if (EnumerableSet.length(tokens) > 0) {\\n            for (uint256 i = 0; i < EnumerableSet.length(tokens); i++) {\\n                uint256 tokenBal =\\n                    balanceOf(loanID, EnumerableSet.at(tokens, i));\\n                value_ += PriceAggLib.valueFor(\\n                    EnumerableSet.at(tokens, i),\\n                    lendingToken,\\n                    tokenBal\\n                );\\n            }\\n        }\\n    }\\n}\\n\",\"keccak256\":\"0x17a7c6b11d6f280948e320525d1e131b89c23f80216918aa070df437a851d915\",\"license\":\"MIT\"},\"contracts/lending/ttoken/ITToken.sol\":{\"content\":\"// SPDX-License-Identifier: MIT\\npragma solidity ^0.8.0;\\n\\n// Contracts\\nimport {\\n    ERC20Upgradeable\\n} from \\\"@openzeppelin/contracts-upgradeable/token/ERC20/ERC20Upgradeable.sol\\\";\\nimport { ERC20 } from \\\"@openzeppelin/contracts/token/ERC20/ERC20.sol\\\";\\nimport {\\n    RolesFacet\\n} from \\\"../../contexts2/access-control/roles/RolesFacet.sol\\\";\\n\\n/**\\n * @notice This contract acts as an interface for the Teller token (TToken).\\n *\\n * @author develop@teller.finance\\n */\\nabstract contract ITToken is ERC20Upgradeable, RolesFacet {\\n    /**\\n     * @notice This event is emitted when a user deposits tokens into the pool.\\n     */\\n    event Mint(\\n        address indexed sender,\\n        uint256 tTokenAmount,\\n        uint256 underlyingAmount\\n    );\\n\\n    /**\\n     * @notice This event is emitted when a user withdraws tokens from the pool.\\n     */\\n    event Redeem(\\n        address indexed sender,\\n        uint256 tTokenAmount,\\n        uint256 underlyingAmount\\n    );\\n\\n    /**\\n     * @notice The token that is the underlying assets for this Teller token.\\n     * @return ERC20 token\\n     */\\n    function underlying() external view virtual returns (ERC20);\\n\\n    /**\\n     * @notice The balance of an {account} denoted in underlying value.\\n     * @param account Address to calculate the underlying balance.\\n     * @return balance_ the balance of the account\\n     */\\n    function balanceOfUnderlying(address account)\\n        external\\n        virtual\\n        returns (uint256 balance_);\\n\\n    /**\\n     * @notice It calculates the current exchange rate for a whole Teller Token based of the underlying token balance.\\n     * @return rate_ The current exchange rate.\\n     */\\n    function exchangeRate() external virtual returns (uint256 rate_);\\n\\n    /**\\n     * @notice It calculates the total supply of the underlying asset.\\n     * @return totalSupply_ the total supply denoted in the underlying asset.\\n     */\\n    function totalUnderlyingSupply()\\n        external\\n        virtual\\n        returns (uint256 totalSupply_);\\n\\n    /**\\n     * @notice It calculates the market state values across a given market.\\n     * @notice Returns values that represent the global state across the market.\\n     * @return totalSupplied Total amount of the underlying asset supplied.\\n     * @return totalBorrowed Total amount borrowed through loans.\\n     * @return totalRepaid The total amount repaid till the current timestamp.\\n     * @return totalInterestRepaid The total amount interest repaid till the current timestamp.\\n     * @return totalOnLoan Total amount currently deployed in loans.\\n     */\\n    function getMarketState()\\n        external\\n        virtual\\n        returns (\\n            uint256 totalSupplied,\\n            uint256 totalBorrowed,\\n            uint256 totalRepaid,\\n            uint256 totalInterestRepaid,\\n            uint256 totalOnLoan\\n        );\\n\\n    /**\\n     * @notice Calculates the current Total Value Locked, denoted in the underlying asset, in the Teller Token pool.\\n     * @return tvl_ The value locked in the pool.\\n     *\\n     * Note: This value includes the amount that is on loan (including ones that were sent to EOAs).\\n     */\\n    function currentTVL() external virtual returns (uint256 tvl_);\\n\\n    /**\\n     * @notice It validates whether supply to debt (StD) ratio is valid including the loan amount.\\n     * @param newLoanAmount the new loan amount to consider the StD ratio.\\n     * @return ratio_ Whether debt ratio for lending pool is valid.\\n     */\\n    function debtRatioFor(uint256 newLoanAmount)\\n        external\\n        virtual\\n        returns (uint16 ratio_);\\n        \\n\\n    /**\\n     * @notice Called by the Teller Diamond contract when a loan has been taken out and requires funds.\\n     * @param recipient The account to send the funds to.\\n     * @param amount Funds requested to fulfill the loan.\\n     */\\n    function fundLoan(address recipient, uint256 amount) external virtual;\\n\\n    /**\\n     * @notice Called by the Teller Diamond contract when a loan has been repaid.\\n     * @param amount Funds deposited back into the pool to repay the principal amount of a loan.\\n     * @param interestAmount Interest value paid into the pool from a loan.\\n     */\\n    function repayLoan(uint256 amount, uint256 interestAmount) external virtual;\\n\\n    /**\\n     * @notice Increase account supply of specified token amount.\\n     * @param amount The amount of underlying tokens to use to mint.\\n     * @return mintAmount_ the amount minted of the specified token\\n     */\\n    function mint(uint256 amount)\\n        external\\n        virtual\\n        returns (uint256 mintAmount_);\\n\\n    /**\\n     * @notice Redeem supplied Teller token underlying value.\\n     * @param amount The amount of Teller tokens to redeem.\\n     */\\n    function redeem(uint256 amount) external virtual;\\n\\n    /**\\n     * @notice Redeem supplied underlying value.\\n     * @param amount The amount of underlying tokens to redeem.\\n     */\\n    function redeemUnderlying(uint256 amount) external virtual;\\n\\n    /**\\n     * @notice Rebalances the funds controlled by Teller Token according to the current strategy.\\n     *\\n     * See {TTokenStrategy}.\\n     */\\n    function rebalance() external virtual;\\n\\n    /**\\n     * @notice Sets a new strategy to use for balancing funds.\\n     * @param strategy Address to the new strategy contract. Must implement the {ITTokenStrategy} interface.\\n     * @param initData Optional data to initialize the strategy.\\n     *\\n     * Requirements:\\n     *  - Sender must have ADMIN role\\n     */\\n    function setStrategy(address strategy, bytes calldata initData)\\n        external\\n        virtual;\\n\\n    /**\\n     * @notice Gets the strategy used for balancing funds.\\n     * @return address of the strategy contract\\n     */\\n    function getStrategy() external view virtual returns (address);\\n\\n    /**\\n     * @notice Sets the restricted state of the platform.\\n     * @param state boolean value that resembles the platform's state\\n     */\\n    function restrict(bool state) external virtual;\\n\\n    /**\\n     * @notice it initializes the Teller Token\\n     * @param admin address of the admin to the respective Teller Token\\n     * @param underlying address of the ERC20 token\\n     */\\n    function initialize(address admin, address underlying) external virtual;\\n}\\n\",\"keccak256\":\"0xf30ac4ef491851477ff9a3dd04974ebe74b529c37a3ef4e05798c3f734ceeb3d\",\"license\":\"MIT\"},\"contracts/market/LoanDataFacet.sol\":{\"content\":\"// SPDX-License-Identifier: MIT\\npragma solidity ^0.8.0;\\n\\n// Libraries\\nimport { LibLoans } from \\\"./libraries/LibLoans.sol\\\";\\nimport { LibEscrow } from \\\"../escrow/libraries/LibEscrow.sol\\\";\\n\\nimport {\\n    EnumerableSet\\n} from \\\"@openzeppelin/contracts/utils/structs/EnumerableSet.sol\\\";\\n\\n// Storage\\nimport { Loan, LoanDebt, LoanTerms } from \\\"../storage/market.sol\\\";\\n\\ncontract LoanDataFacet {\\n    /**\\n     * @notice Returns the information about the given {loanID}.\\n     * @param loanID The loan ID to get information for.\\n     * @return loan_ The loan data.\\n     */\\n    function getLoan(uint256 loanID) external view returns (Loan memory loan_) {\\n        loan_ = LibLoans.s().loans[loanID];\\n    }\\n\\n    /**\\n     * @notice DEPRECATED\\n     * @notice Returns the terms for a specified loan.\\n     * @param loanID The loan ID to get the total amount owed.\\n     * @return LoanTerms The terms that the loan weer created with.\\n     */\\n    function getLoanTerms(uint256 loanID)\\n        external\\n        view\\n        returns (LoanTerms memory)\\n    {\\n        return LibLoans.terms(loanID);\\n    }\\n\\n    /**\\n     * @notice Returns the loan IDs created by the {borrower} account.\\n     * @param borrower The account to get loan IDs for.\\n     * @return loanIDs The IDs for loans created by the {borrower}\\n     */\\n    function getBorrowerLoans(address borrower)\\n        external\\n        view\\n        returns (uint128[] memory loanIDs)\\n    {\\n        return LibLoans.s().borrowerLoans[borrower];\\n    }\\n\\n    /**\\n     * @notice Returns the debt owed for a specified loan.\\n     * @param loanID The loan ID to get the total amount owed.\\n     * @return LoanDebt The principal and interest owed amount.\\n     */\\n    function getDebtOwed(uint256 loanID)\\n        external\\n        view\\n        returns (LoanDebt memory)\\n    {\\n        return LibLoans.debt(loanID);\\n    }\\n\\n    /**\\n     * @notice Returns the total amount owed for a specified loan.\\n     * @param loanID The loan ID to get the total amount owed.\\n     * @return uint256 The total owed amount.\\n     */\\n    function getTotalOwed(uint256 loanID) external view returns (uint256) {\\n        return LibLoans.getTotalOwed(loanID);\\n    }\\n\\n    /**\\n     * @notice Returns the amount of interest owed for a given loan and loan amount.\\n     * @param loanID The loan ID to get the owed interest.\\n     * @param amountBorrow The principal of the loan to take out.\\n     * @return uint256 The interest owed.\\n     */\\n    function getInterestOwedFor(uint256 loanID, uint256 amountBorrow)\\n        external\\n        view\\n        returns (uint256)\\n    {\\n        return LibLoans.getInterestOwedFor(loanID, amountBorrow);\\n    }\\n\\n    /**\\n     * @notice it returns the collateral needed for a loan\\n     * @param loanID the identifier of the loan ID to retrieve collateral from\\n     * @return neededInLendingTokens total collateral needed in lending tokens\\n     * @return neededInCollateralTokens total collateral needed in collateral tokens\\n     * @return escrowLoanValue total collateral needed in loan value\\n     */\\n    function getCollateralNeededInfo(uint256 loanID)\\n        external\\n        view\\n        returns (\\n            uint256 neededInLendingTokens,\\n            uint256 neededInCollateralTokens,\\n            uint256 escrowLoanValue\\n        )\\n    {\\n        return LibLoans.getCollateralNeededInfo(loanID);\\n    }\\n\\n    /**\\n     * @notice it returns the typed address of a loan escrow\\n     * @param loanID the identifier of the respective escrow's loan\\n     * @return escrow_ the typed address of the returned ILoanEscrow\\n     */\\n    function getLoanEscrow(uint256 loanID)\\n        external\\n        view\\n        returns (address escrow_)\\n    {\\n        escrow_ = address(LibLoans.s().loanEscrows[loanID]);\\n    }\\n\\n    /**\\n     * @notice it returns the escrow's total value by calculating the value all the escrow tokens\\n     * @param loanID the identifier of the respective escrow's loan\\n     * @return the total value of the loan escrow\\n     */\\n    function getLoanEscrowValue(uint256 loanID)\\n        external\\n        view\\n        returns (uint256)\\n    {\\n        return LibEscrow.calculateTotalValue(loanID);\\n    }\\n\\n    /**\\n     * @notice it returns the total escrow tokens held by an escrow\\n     * @param loanID the identifier of the respective escrow's loan\\n     * @return tokens_ the tokens held at the escrow loan \\n     */\\n    function getEscrowTokens(uint256 loanID)\\n        external\\n        view\\n        returns (address[] memory tokens_)\\n    {\\n        EnumerableSet.AddressSet storage escrowTokens =\\n            LibEscrow.getEscrowTokens(loanID);\\n        tokens_ = new address[](EnumerableSet.length(escrowTokens));\\n        for (uint256 i; i < tokens_.length; i++) {\\n            tokens_[i] = EnumerableSet.at(escrowTokens, i);\\n        }\\n    }\\n}\\n\",\"keccak256\":\"0x9a57f5de00ce073af4ffb2f74e7d8a15e56bc017826f2c5a393ef5b64554145f\",\"license\":\"MIT\"},\"contracts/market/RepayFacet.sol\":{\"content\":\"// SPDX-License-Identifier: MIT\\npragma solidity ^0.8.0;\\n\\n// Contracts\\nimport { RolesMods } from \\\"../contexts2/access-control/roles/RolesMods.sol\\\";\\nimport { PausableMods } from \\\"../settings/pausable/PausableMods.sol\\\";\\nimport {\\n    ReentryMods\\n} from \\\"../contexts2/access-control/reentry/ReentryMods.sol\\\";\\nimport { AUTHORIZED } from \\\"../shared/roles.sol\\\";\\nimport { LoanDataFacet } from \\\"./LoanDataFacet.sol\\\";\\n\\n// Libraries\\nimport {\\n    IERC20,\\n    SafeERC20\\n} from \\\"@openzeppelin/contracts/token/ERC20/utils/SafeERC20.sol\\\";\\nimport {\\n    EnumerableSet\\n} from \\\"@openzeppelin/contracts/utils/structs/EnumerableSet.sol\\\";\\nimport { LibLoans } from \\\"./libraries/LibLoans.sol\\\";\\nimport { LibCollateral } from \\\"./libraries/LibCollateral.sol\\\";\\nimport { LibDapps } from \\\"../escrow/dapps/libraries/LibDapps.sol\\\";\\nimport { LibEscrow } from \\\"../escrow/libraries/LibEscrow.sol\\\";\\nimport {\\n    PlatformSettingsLib\\n} from \\\"../settings/platform/libraries/PlatformSettingsLib.sol\\\";\\nimport { NumbersLib } from \\\"../shared/libraries/NumbersLib.sol\\\";\\nimport { PriceAggLib } from \\\"../price-aggregator/PriceAggLib.sol\\\";\\nimport { NFTLib } from \\\"../nft/libraries/NFTLib.sol\\\";\\n\\n// Interfaces\\nimport { ITToken } from \\\"../lending/ttoken/ITToken.sol\\\";\\nimport { ILoansEscrow } from \\\"../escrow/escrow/ILoansEscrow.sol\\\";\\n\\n// Storage\\nimport {\\n    MarketStorageLib,\\n    MarketStorage,\\n    Loan,\\n    LoanStatus\\n} from \\\"../storage/market.sol\\\";\\n\\ncontract RepayFacet is RolesMods, ReentryMods, PausableMods {\\n    /**\\n        @notice This event is emitted when a loan has been successfully repaid\\n        @param loanID ID of loan from which collateral was withdrawn\\n        @param borrower Account address of the borrower\\n        @param amountPaid Amount of the loan paid back\\n        @param payer Account address of the payer\\n        @param totalOwed Total amount of the loan to be repaid\\n     */\\n    event LoanRepaid(\\n        uint256 indexed loanID,\\n        address indexed borrower,\\n        uint256 amountPaid,\\n        address payer,\\n        uint256 totalOwed\\n    );\\n\\n    /**\\n     * @notice This event is emitted when a loan has been successfully liquidated\\n     * @param loanID ID of loan from which collateral was withdrawn\\n     * @param borrower Account address of the borrower\\n     * @param liquidator Account address of the liquidator\\n     * @param reward Value in lending token paid out to liquidator\\n     * @param tokensIn Percentage of the collateral price paid by the liquidator to the lending pool\\n     */\\n    event LoanLiquidated(\\n        uint256 indexed loanID,\\n        address indexed borrower,\\n        address liquidator,\\n        uint256 reward,\\n        uint256 tokensIn\\n    );\\n\\n    /**\\n     * @notice Repay this Escrow's loan.\\n     * @dev If the Escrow's balance of the borrowed token is less than the amount to repay, transfer tokens from the sender's wallet.\\n     * @dev Only the owner of the Escrow can call this. If someone else wants to make a payment, they should call the loan manager directly.\\n     * @param loanID The id of the loan being used.\\n     * @param amount The amount being repaid.\\n     */\\n    function escrowRepay(uint256 loanID, uint256 amount)\\n        external\\n        paused(\\\"\\\", false)\\n        authorized(AUTHORIZED, msg.sender)\\n        nonReentry(\\\"\\\")\\n    {\\n        uint256 balance =\\n            LibEscrow.balanceOf(loanID, LibLoans.loan(loanID).lendingToken);\\n        uint256 totalOwed = LibLoans.getTotalOwed(loanID);\\n        // if there isn't enough balance in the escrow, then transfer amount needed to the escrow\\n        if (balance < totalOwed && amount > balance) {\\n            uint256 amountNeeded =\\n                amount > totalOwed ? totalOwed - (balance) : amount - (balance);\\n\\n            SafeERC20.safeTransferFrom(\\n                IERC20(LibLoans.loan(loanID).lendingToken),\\n                msg.sender,\\n                address(LibEscrow.e(loanID)),\\n                amountNeeded\\n            );\\n        }\\n\\n        __repayLoan(loanID, amount, address(LibEscrow.e(loanID)), false);\\n    }\\n\\n    /**\\n     * @notice Make a payment to a loan\\n     * @param loanID The ID of the loan the payment is for\\n     * @param amount The amount of tokens to pay back to the loan\\n     */\\n    function repayLoan(uint256 loanID, uint256 amount)\\n        external\\n        nonReentry(\\\"\\\")\\n        paused(\\\"\\\", false)\\n        authorized(AUTHORIZED, msg.sender)\\n    {\\n        __repayLoan(loanID, amount, msg.sender, false);\\n    }\\n\\n    /**\\n     * @notice it repays the loan, either from an escrow or from a regular address\\n     * @param loanID the identifier of the loan to repay\\n     * @param amount the amount to repay the loan\\n     * @param sender the address of the sender that wants to pay, can also be a loan escrow\\n     * @param isLiquidation is this loan being liquidated?\\n     * @return leftToPay_ the amount left to pay for the loan\\n     */\\n    function __repayLoan(\\n        uint256 loanID,\\n        uint256 amount,\\n        address sender,\\n        bool isLiquidation\\n    ) private returns (uint256 leftToPay_) {\\n        require(amount > 0, \\\"Teller: zero repay\\\");\\n\\n        // calculate the actual amount to repay\\n        leftToPay_ =\\n            LibLoans.debt(loanID).principalOwed +\\n            LibLoans.debt(loanID).interestOwed;\\n        if (leftToPay_ < amount) {\\n            amount = leftToPay_;\\n            leftToPay_ = 0;\\n        } else {\\n            leftToPay_ -= amount;\\n        }\\n\\n        // Get the Teller token for the loan\\n        ITToken tToken =\\n            MarketStorageLib.store().tTokens[\\n                LibLoans.loan(loanID).lendingToken\\n            ];\\n        // Transfer funds from an escrow if an escrow is calling it\\n        // Otherwise, transfer funds from an account\\n        if (address(LibEscrow.e(loanID)) == sender) {\\n            LibEscrow.e(loanID).claimToken(\\n                LibLoans.loan(loanID).lendingToken,\\n                address(tToken),\\n                amount\\n            );\\n        } else {\\n            SafeERC20.safeTransferFrom(\\n                IERC20(LibLoans.loan(loanID).lendingToken),\\n                sender,\\n                address(tToken),\\n                amount\\n            );\\n        }\\n\\n        // Deduct the interest and principal owed\\n        uint256 principalPaid;\\n        uint256 interestPaid;\\n        if (amount < LibLoans.debt(loanID).interestOwed) {\\n            interestPaid = amount;\\n            LibLoans.debt(loanID).interestOwed -= amount;\\n        } else {\\n            if (LibLoans.debt(loanID).interestOwed > 0) {\\n                interestPaid = LibLoans.debt(loanID).interestOwed;\\n                amount -= interestPaid;\\n                LibLoans.debt(loanID).interestOwed = 0;\\n            }\\n\\n            if (amount > 0) {\\n                principalPaid = amount;\\n                LibLoans.debt(loanID).principalOwed -= amount;\\n            }\\n        }\\n\\n        // Tell the Teller Token value has been deposited back into the pool.\\n        tToken.repayLoan(principalPaid, interestPaid);\\n\\n        if (isLiquidation) {\\n            // Make sure there is nothing left to repay on the loan\\n            require(leftToPay_ == 0, \\\"Teller: liquidate partial repay\\\");\\n\\n            // Set loan status\\n            LibLoans.loan(loanID).status = LoanStatus.Liquidated;\\n\\n            // Transfer NFT if linked\\n            NFTLib.liquidateNFT(loanID);\\n        } else {\\n            // if the loan is now fully paid, close it and withdraw borrower collateral\\n            if (leftToPay_ == 0) {\\n                LibLoans.loan(loanID).status = LoanStatus.Closed;\\n                LibCollateral.withdrawAll(\\n                    loanID,\\n                    LibLoans.loan(loanID).borrower\\n                );\\n                // Restake any NFTs linked to loan for borrower\\n                NFTLib.restakeLinked(loanID, LibLoans.loan(loanID).borrower);\\n            }\\n\\n            emit LoanRepaid(\\n                loanID,\\n                LibLoans.loan(loanID).borrower,\\n                amount,\\n                msg.sender,\\n                leftToPay_\\n            );\\n        }\\n    }\\n\\n    /**\\n     * @notice Liquidate a loan if it is expired or under collateralized\\n     * @param loanID The ID of the loan to be liquidated\\n     */\\n    function liquidateLoan(uint256 loanID)\\n        external\\n        nonReentry(\\\"\\\")\\n        paused(\\\"\\\", false)\\n        authorized(AUTHORIZED, msg.sender)\\n    {\\n        Loan storage loan = LibLoans.loan(loanID);\\n        uint256 collateralAmount = LibCollateral.e(loanID).loanSupply(loanID);\\n        require(\\n            RepayLib.isLiquidable(loanID, collateralAmount),\\n            \\\"Teller: does not need liquidation\\\"\\n        );\\n\\n        // Calculate the reward before repaying the loan\\n        (uint256 rewardInLending, uint256 collateralInLending) =\\n            RepayLib.getLiquidationReward(loanID, collateralAmount);\\n\\n        // The liquidator pays the amount still owed on the loan\\n        uint256 amountToLiquidate =\\n            LibLoans.debt(loanID).principalOwed +\\n                LibLoans.debt(loanID).interestOwed;\\n\\n        __repayLoan(loanID, amountToLiquidate, msg.sender, true);\\n\\n        // Payout the liquidator reward owed\\n        if (rewardInLending > 0) {\\n            RepayLib.payOutLiquidator(\\n                loanID,\\n                rewardInLending,\\n                collateralInLending,\\n                collateralAmount,\\n                payable(msg.sender)\\n            );\\n        }\\n\\n        emit LoanLiquidated(\\n            loanID,\\n            loan.borrower,\\n            msg.sender,\\n            rewardInLending,\\n            amountToLiquidate\\n        );\\n    }\\n\\n    /**\\n     * @notice It gets the current liquidation reward for a given loan.\\n     * @param loanID The loan ID to get the info.\\n     * @return inLending_ The value the liquidator will receive denoted in lending tokens.\\n     * @return inCollateral_ The value the liquidator will receive denoted in collateral tokens.\\n     */\\n    function getLiquidationReward(uint256 loanID)\\n        external\\n        view\\n        returns (uint256 inLending_, uint256 inCollateral_)\\n    {\\n        (inLending_, ) = RepayLib.getLiquidationReward(\\n            loanID,\\n            LibCollateral.e(loanID).loanSupply(loanID)\\n        );\\n        inCollateral_ = PriceAggLib.valueFor(\\n            LibLoans.loan(loanID).lendingToken,\\n            LibLoans.loan(loanID).collateralToken,\\n            inLending_\\n        );\\n    }\\n}\\n\\nlibrary RepayLib {\\n    /**\\n     * @notice It checks if a loan can be liquidated.\\n     * @param loanID The loan ID to check.\\n     * @return true if the loan is liquidable.\\n     */\\n    function isLiquidable(uint256 loanID, uint256 collateralAmount)\\n        internal\\n        view\\n        returns (bool)\\n    {\\n        Loan storage loan = LibLoans.loan(loanID);\\n        // Check if loan can be liquidated\\n        if (loan.status != LoanStatus.Active) {\\n            return false;\\n        }\\n\\n        if (loan.collateralRatio > 0) {\\n            // If loan has a collateral ratio, check how much is needed\\n            (, uint256 neededInCollateral, ) =\\n                LoanDataFacet(address(this)).getCollateralNeededInfo(loanID);\\n            if (neededInCollateral > collateralAmount) {\\n                return true;\\n            }\\n        }\\n\\n        // Otherwise, check if the loan has expired\\n        return block.timestamp >= loan.loanStartTime + loan.duration;\\n    }\\n\\n    /**\\n     * @notice It gets the current liquidation reward for a given loan.\\n     * @param loanID The loan ID to get the info.\\n     * @param collateralAmount The amount of collateral for the {loanID}. Passed in to save gas calling the collateral escrow multiple times.\\n     * @return reward_ The value the liquidator will receive denoted in lending tokens.\\n     */\\n    function getLiquidationReward(uint256 loanID, uint256 collateralAmount)\\n        internal\\n        view\\n        returns (uint256 reward_, uint256 collateralValue_)\\n    {\\n        uint256 amountToLiquidate =\\n            LibLoans.debt(loanID).principalOwed +\\n                LibLoans.debt(loanID).interestOwed;\\n\\n        // Max reward is amount repaid on loan plus extra percentage\\n        uint256 maxReward =\\n            amountToLiquidate +\\n                NumbersLib.percent(\\n                    amountToLiquidate,\\n                    uint16(PlatformSettingsLib.getLiquidateRewardPercent())\\n                );\\n\\n        // Calculate available collateral for reward\\n        if (collateralAmount > 0) {\\n            collateralValue_ = PriceAggLib.valueFor(\\n                LibLoans.loan(loanID).collateralToken,\\n                LibLoans.loan(loanID).lendingToken,\\n                collateralAmount\\n            );\\n            reward_ += collateralValue_;\\n        }\\n\\n        // Calculate loan escrow value if collateral not enough to cover reward\\n        if (reward_ < maxReward) {\\n            reward_ += LibEscrow.calculateTotalValue(loanID);\\n        }\\n\\n        // Cap the reward to max\\n        if (reward_ > maxReward) {\\n            reward_ = maxReward;\\n        }\\n    }\\n\\n    /**\\n     * @notice Checks if the loan has an Escrow and claims any tokens then pays out the loan collateral.\\n     * @dev See Escrow.claimTokens for more info.\\n     * @param loanID The loan ID which is being liquidated\\n     * @param rewardInLending The total amount of reward based in the lending token to pay the liquidator\\n     * @param collateralInLending The amount of collateral that is available for the loan denoted in lending tokens\\n     * @param collateralAmount The amount of collateral that is available for the loan\\n     * @param liquidator The address of the liquidator where the liquidation reward will be sent to\\n     */\\n    function payOutLiquidator(\\n        uint256 loanID,\\n        uint256 rewardInLending,\\n        uint256 collateralInLending,\\n        uint256 collateralAmount,\\n        address payable liquidator\\n    ) internal {\\n        // check if loan is liquidated\\n        require(\\n            LibLoans.loan(loanID).status == LoanStatus.Liquidated,\\n            \\\"Teller: loan not liquidated\\\"\\n        );\\n\\n        // if the lending reward is less than the collateral lending tokens, then aggregate\\n        // the value for the lending token with the collateral token and send it to the liquidator\\n        if (rewardInLending <= collateralInLending) {\\n            uint256 rewardInCollateral =\\n                PriceAggLib.valueFor(\\n                    LibLoans.loan(loanID).lendingToken,\\n                    LibLoans.loan(loanID).collateralToken,\\n                    rewardInLending\\n                );\\n\\n            LibCollateral.withdraw(loanID, rewardInCollateral, liquidator);\\n        } else {\\n            // Payout whats available in the collateral token\\n            LibCollateral.withdraw(loanID, collateralAmount, liquidator);\\n\\n            // Claim remaining reward value from the loan escrow\\n            claimEscrowTokensByValue(\\n                loanID,\\n                liquidator,\\n                rewardInLending - collateralInLending\\n            );\\n        }\\n    }\\n\\n    /**\\n     * @dev Send the equivalent of tokens owned by the loan escrow (in lending value) to the recipient,\\n     * @param loanID The loan ID to clam tokens from\\n     * @param recipient address to send the tokens to\\n     * @param value The value of escrow held tokens to be claimed based in lending value\\n     */\\n    function claimEscrowTokensByValue(\\n        uint256 loanID,\\n        address recipient,\\n        uint256 value\\n    ) private {\\n        EnumerableSet.AddressSet storage tokens =\\n            MarketStorageLib.store().escrowTokens[loanID];\\n        uint256 valueLeftToTransfer = value;\\n\\n        // Start with the lending token\\n        valueLeftToTransfer = claimEscrowToken(\\n            loanID,\\n            LibLoans.loan(loanID).lendingToken,\\n            recipient,\\n            valueLeftToTransfer\\n        );\\n\\n        // Cycle through remaining tokens\\n        for (uint256 i = 0; i < EnumerableSet.length(tokens); i++) {\\n            if (valueLeftToTransfer == 0) {\\n                return;\\n            }\\n\\n            valueLeftToTransfer = claimEscrowToken(\\n                loanID,\\n                EnumerableSet.at(tokens, i),\\n                recipient,\\n                valueLeftToTransfer\\n            );\\n        }\\n    }\\n\\n    /**\\n     * @notice it claims the escrow tokens for the liquidator\\n     * @notice it keeps claiming escrow tokens until there aren't anymore tokens or the valueLeftToTransfer is zero\\n     * @param loanID the identifier of the escrow loan to claim tokens from\\n     * @param token the address of the token asset to claim\\n     * @param recipient the address of the recipient to transfer the tokens to\\n     * @param valueLeftToTransfer the value left to transfer to the liquidator that is returned back\\n     * @return the value left to transfer\\n     */\\n    function claimEscrowToken(\\n        uint256 loanID,\\n        address token,\\n        address recipient,\\n        uint256 valueLeftToTransfer\\n    ) private returns (uint256) {\\n        uint256 balance = LibEscrow.balanceOf(loanID, token);\\n        // get value of token balance in lending value\\n        if (balance > 0) {\\n            // If token not the lending token, get value of token\\n            uint256 balanceInLending;\\n            if (token == LibLoans.loan(loanID).lendingToken) {\\n                balanceInLending = balance;\\n            } else {\\n                balanceInLending = PriceAggLib.valueFor(\\n                    token,\\n                    LibLoans.loan(loanID).lendingToken,\\n                    balance\\n                );\\n            }\\n\\n            if (balanceInLending <= valueLeftToTransfer) {\\n                LibEscrow.e(loanID).claimToken(token, recipient, balance);\\n                valueLeftToTransfer -= balanceInLending;\\n            } else {\\n                // Token balance is more than enough so calculate ratio of balance to transfer\\n                uint256 valueToTransfer;\\n                if (token == LibLoans.loan(loanID).lendingToken) {\\n                    valueToTransfer = valueLeftToTransfer;\\n                } else {\\n                    valueToTransfer = NumbersLib.percent(\\n                        balance,\\n                        NumbersLib.ratioOf(\\n                            valueLeftToTransfer,\\n                            balanceInLending\\n                        )\\n                    );\\n                }\\n\\n                LibEscrow.e(loanID).claimToken(\\n                    token,\\n                    recipient,\\n                    valueToTransfer\\n                );\\n                valueLeftToTransfer = 0;\\n            }\\n        }\\n        return valueLeftToTransfer;\\n    }\\n}\\n\",\"keccak256\":\"0x4cc90a273ddbcfc983b98bd42c18990526a79488c972926952d38f26ff69cabb\",\"license\":\"MIT\"},\"contracts/market/collateral/ICollateralEscrow.sol\":{\"content\":\"// SPDX-License-Identifier: MIT\\npragma solidity ^0.8.0;\\n\\ninterface ICollateralEscrow {\\n    /**\\n     * @notice it initializes an escrow\\n     * @param tokenAddress the address of the collateral token to be stored\\n     * @param isWETH check if it's wrapped Ethereum\\n     */\\n    function init(address tokenAddress, bool isWETH) external;\\n\\n    /**\\n     * @notice it deposits an amount of the respective collateral token into the escrow\\n     * @param loanID the ID of the loan\\n     * @param amount the amount of collateral tokens to be deposited\\n     */\\n    function deposit(uint256 loanID, uint256 amount) external payable;\\n\\n    /**\\n     * @notice it withdraws an amount of tokens in a respective loanID on behalf of the borrower\\n     * @dev only the TellerDiamond can make this call on behalf of the borrower\\n     * @param loanID identifier of the loan\\n     * @param amount number of collateral tokens to send\\n     * @param receiver payable address to transfer money to\\n     */\\n    function withdraw(\\n        uint256 loanID,\\n        uint256 amount,\\n        address payable receiver\\n    ) external;\\n\\n    /**\\n     * @notice it returns the supply of the respective loan\\n     * @param loanID the respective loan ID\\n     * @return supply_ the amount in collateral of the respective loan\\n     */\\n    function loanSupply(uint256 loanID) external view returns (uint256 supply_);\\n\\n    /**\\n     * @notice it returns the total supply of the collateral token held by the contract\\n     * @return supply_ the total amount of collateral\\n     */\\n    function totalSupply() external view returns (uint256 supply_);\\n}\\n\",\"keccak256\":\"0x900fed2311f919ba1451a6583ddbf9f3bc8afa8f5189500fff51f0c049258ed3\",\"license\":\"MIT\"},\"contracts/market/libraries/LibCollateral.sol\":{\"content\":\"// SPDX-License-Identifier: MIT\\npragma solidity ^0.8.0;\\n\\n// Interfaces\\nimport { IERC20 } from \\\"@openzeppelin/contracts/token/ERC20/ERC20.sol\\\";\\nimport { ICollateralEscrow } from \\\"../collateral/ICollateralEscrow.sol\\\";\\n\\n// Storage\\nimport { AppStorageLib } from \\\"../../storage/app.sol\\\";\\nimport { MarketStorageLib } from \\\"../../storage/market.sol\\\";\\n\\nlibrary LibCollateral {\\n    /**\\n     * @notice This event is emitted when collateral has been deposited for the loan\\n     * @param loanID ID of the loan for which collateral was deposited\\n     * @param depositor Account that deposited funds\\n     * @param amount Amount of collateral deposited\\n     */\\n    event CollateralDeposited(\\n        uint256 indexed loanID,\\n        address indexed depositor,\\n        uint256 amount\\n    );\\n\\n    /**\\n     * @notice This event is emitted when collateral has been withdrawn\\n     * @param loanID ID of loan from which collateral was withdrawn\\n     * @param receiver Account that received funds\\n     * @param amount Value of collateral withdrawn\\n     */\\n    event CollateralWithdrawn(\\n        uint256 indexed loanID,\\n        address indexed receiver,\\n        uint256 amount\\n    );\\n\\n    /**\\n     * @notice it gets MarketStorage's collateral escrow using the loanID\\n     * @param loanID the loanID to be used\\n     * @return c_ which is the collateral escrow\\n     */\\n    function e(uint256 loanID) internal view returns (ICollateralEscrow c_) {\\n        c_ = MarketStorageLib.store().collateralEscrows[\\n            MarketStorageLib.store().loans[loanID].collateralToken\\n        ];\\n    }\\n\\n    function e(address token) internal view returns (ICollateralEscrow c_) {\\n        c_ = MarketStorageLib.store().collateralEscrows[token];\\n    }\\n\\n    /**\\n     * @notice it deposits an amount of collateral into a collateral escrow's address of a respective loan\\n     * @param loanID the respective loan ID\\n     * @param amount the amount of collateral to deposit\\n     */\\n    function deposit(uint256 loanID, uint256 amount) internal {\\n        e(loanID).deposit{ value: amount }(loanID, amount);\\n\\n        emit CollateralDeposited(loanID, msg.sender, amount);\\n    }\\n\\n    /**\\n     * @notice it withdraws an amount from the collateral escrow\\n     * @param loanID the respective loanID to withdraw from\\n     * @param amount the number of collateral tokens to withdraw\\n     * @param receiver the address who receives the withdrawal\\n     */\\n    function withdraw(\\n        uint256 loanID,\\n        uint256 amount,\\n        address payable receiver\\n    ) internal {\\n        e(loanID).withdraw(loanID, amount, receiver);\\n\\n        emit CollateralWithdrawn(loanID, receiver, amount);\\n    }\\n\\n    /**\\n     * @notice it withdraws the entire supply in collateral of a respective loan to an address\\n     * @param loanID the respective loan's ID\\n     * @param receiver the address of the receiver to withdraw tokens from\\n     */\\n    function withdrawAll(uint256 loanID, address payable receiver) internal {\\n        withdraw(loanID, e(loanID).loanSupply(loanID), receiver);\\n    }\\n\\n    /**\\n     * @notice it initializes a new escrow collateral to hold collateral tokens\\n     * @param token address of the collateral token it holds\\n     */\\n    function createEscrow(address token) internal {\\n        // Check if collateral escrow exists\\n        if (address(e(token)) == address(0)) {\\n            // Create escrow\\n            address escrow =\\n                AppStorageLib.store().collateralEscrowBeacon.cloneProxy(\\\"\\\");\\n            ICollateralEscrow(escrow).init(\\n                token,\\n                // Check if collateral token is WETH\\n                token == AppStorageLib.store().assetAddresses[\\\"WETH\\\"]\\n            );\\n\\n            // Set max allowance\\n            IERC20(token).approve(escrow, type(uint256).max);\\n            // Save escrow address for loan\\n            MarketStorageLib.store().collateralEscrows[\\n                token\\n            ] = ICollateralEscrow(escrow);\\n        }\\n    }\\n}\\n\",\"keccak256\":\"0x84dbab8283357a1cc4210e34642fc8247841a58973778f4f6570398cc3046947\",\"license\":\"MIT\"},\"contracts/market/libraries/LibLoans.sol\":{\"content\":\"// SPDX-License-Identifier: MIT\\npragma solidity ^0.8.0;\\n\\n// Libraries\\nimport { LibEscrow } from \\\"../../escrow/libraries/LibEscrow.sol\\\";\\nimport { NumbersLib } from \\\"../../shared/libraries/NumbersLib.sol\\\";\\nimport {\\n    PlatformSettingsLib\\n} from \\\"../../settings/platform/libraries/PlatformSettingsLib.sol\\\";\\nimport { PriceAggLib } from \\\"../../price-aggregator/PriceAggLib.sol\\\";\\n\\n// Storage\\nimport {\\n    MarketStorageLib,\\n    MarketStorage,\\n    Loan,\\n    LoanStatus,\\n    LoanDebt,\\n    LoanTerms\\n} from \\\"../../storage/market.sol\\\";\\n\\nlibrary LibLoans {\\n    using NumbersLib for int256;\\n    using NumbersLib for uint256;\\n\\n    bytes32 internal constant ID = keccak256(\\\"LOANS\\\");\\n    uint32 internal constant SECONDS_PER_YEAR = 31536000;\\n\\n    function s() internal pure returns (MarketStorage storage) {\\n        return MarketStorageLib.store();\\n    }\\n\\n    /**\\n     * @notice it returns the loan\\n     * @param loanID the ID of the respective loan\\n     * @return l_ the loan \\n     */\\n    function loan(uint256 loanID) internal view returns (Loan storage l_) {\\n        l_ = s().loans[loanID];\\n    }\\n\\n    /**\\n     * @notice it returns the loan debt from a respective loan\\n     * @param loanID the ID of the respective loan\\n     * @return d_ the loan debt from a respective loan\\n     */\\n    function debt(uint256 loanID) internal view returns (LoanDebt storage d_) {\\n        d_ = s().loanDebt[loanID];\\n    }\\n\\n    // DEPRECATED\\n    function terms(uint256 loanID)\\n        internal\\n        view\\n        returns (LoanTerms storage t_)\\n    {\\n        t_ = s()._loanTerms[loanID];\\n    }\\n\\n    /**\\n     * @notice Returns the total amount owed for a specified loan.\\n     * @param loanID The loan ID to get the total amount owed.\\n     * @return owed_ uint256 The total owed amount.\\n     */\\n    function getTotalOwed(uint256 loanID)\\n        internal\\n        view\\n        returns (uint256 owed_)\\n    {\\n        if (loan(loanID).status == LoanStatus.Active) {\\n            owed_ = debt(loanID).principalOwed + (debt(loanID).interestOwed);\\n        }\\n    }\\n\\n    /**\\n     * @notice Returns the amount of interest owed for a given loan and loan amount.\\n     * @param loanID The loan ID to get the owed interest.\\n     * @param amountBorrow The principal of the loan to take out.\\n     * @return uint256 The interest owed.\\n     */\\n    function getInterestOwedFor(uint256 loanID, uint256 amountBorrow)\\n        internal\\n        view\\n        returns (uint256)\\n    {\\n        return amountBorrow.percent(uint16(getInterestRatio(loanID)));\\n    }\\n    \\n    function getCollateralNeeded(uint256 loanID)\\n        internal\\n        view\\n        returns (uint256 _needed)\\n    {\\n        (, _needed, ) = getCollateralNeededInfo(loanID);\\n    }\\n\\n    /**\\n     * @notice it returns the total collateral needed in lending tokens, in collateral tokens and in escrowed loan values\\n     * @param loanID the loanID to get the total collateral needed\\n     * @return neededInLendingTokens total collateral needed in lending tokens\\n     * @return neededInCollateralTokens total collateral needed in collateral tokens\\n     * @return escrowLoanValue total collateral needed in loan value\\n     */\\n    function getCollateralNeededInfo(uint256 loanID)\\n        internal\\n        view\\n        returns (\\n            uint256 neededInLendingTokens,\\n            uint256 neededInCollateralTokens,\\n            uint256 escrowLoanValue\\n        )\\n    {\\n        (neededInLendingTokens, escrowLoanValue) = getCollateralNeededInTokens(\\n            loanID\\n        );\\n\\n        // check if needed lending tokens is zero. if true, then needed collateral tokens is zero. else,\\n        if (neededInLendingTokens == 0) {\\n            neededInCollateralTokens = 0;\\n        } else {\\n            neededInCollateralTokens = PriceAggLib.valueFor(\\n                loan(loanID).lendingToken,\\n                loan(loanID).collateralToken,\\n                neededInLendingTokens\\n            );\\n        }\\n    }\\n\\n    /**\\n     * @notice Returns the minimum collateral value threshold, in the lending token, needed to take out the loan or for it be liquidated.\\n     * @dev If the loan status is TermsSet, then the value is whats needed to take out the loan.\\n     * @dev If the loan status is Active, then the value is the threshold at which the loan can be liquidated at.\\n     * @param loanID The loan ID to get needed collateral info for.\\n     * @return neededInLendingTokens int256 The minimum collateral value threshold required.\\n     * @return escrowLoanValue uint256 The value of the loan held in the escrow contract.\\n     */\\n    function getCollateralNeededInTokens(uint256 loanID)\\n        internal\\n        view\\n        returns (uint256 neededInLendingTokens, uint256 escrowLoanValue)\\n    {\\n        if (loan(loanID).collateralRatio == 0) {\\n            return (0, 0);\\n        }\\n\\n        /*\\n            The collateral to principal owed ratio is the sum of:\\n                * collateral buffer percent\\n                * loan interest rate\\n                * liquidation reward percent\\n                * X factor of additional collateral\\n        */\\n        // * To take out a loan (if status == TermsSet), the required collateral is (max loan amount * the collateral ratio).\\n        // * For the loan to not be liquidated (when status == Active), the minimum collateral is (principal owed * (X collateral factor + liquidation reward)).\\n        // * If the loan has an escrow account, the minimum collateral is ((principal owed - escrow value) * (X collateral factor + liquidation reward)).\\n        if (loan(loanID).status == LoanStatus.TermsSet) {\\n            neededInLendingTokens = loan(loanID).borrowedAmount.percent(\\n                loan(loanID).collateralRatio\\n            );\\n        } else if (loan(loanID).status == LoanStatus.Active) {\\n            uint16 requiredRatio =\\n                loan(loanID).collateralRatio -\\n                    getInterestRatio(loanID) -\\n                    uint16(PlatformSettingsLib.getCollateralBufferValue());\\n\\n            neededInLendingTokens =\\n                debt(loanID).principalOwed +\\n                debt(loanID).interestOwed;\\n            escrowLoanValue = LibEscrow.calculateTotalValue(loanID);\\n            if (\\n                escrowLoanValue > 0 && neededInLendingTokens > escrowLoanValue\\n            ) {\\n                neededInLendingTokens -= escrowLoanValue;\\n            }\\n            neededInLendingTokens = neededInLendingTokens.percent(\\n                requiredRatio\\n            );\\n        }\\n    }\\n\\n    /**\\n     * @notice check if a loan can go to end of auction with a collateral ratio\\n     * @return bool checking if collateralRatio is >= the over collateralized buffer value\\n     */\\n    function canGoToEOAWithCollateralRatio(uint256 collateralRatio)\\n        internal\\n        view\\n        returns (bool)\\n    {\\n        return\\n            collateralRatio >=\\n            PlatformSettingsLib.getOverCollateralizedBufferValue();\\n    }\\n\\n    /**\\n     * @notice Returns the interest ratio based on the loan interest rate for the loan duration.\\n     * @notice There is a minimum threshold of 1%.\\n     * @dev The interest rate is APY (annual percentage yield).\\n     * @param loanID The loan ID to get the interest rate for.\\n     */\\n    function getInterestRatio(uint256 loanID)\\n        internal\\n        view\\n        returns (uint16 ratio_)\\n    {\\n        ratio_ = uint16(\\n            (uint64(loan(loanID).duration) * loan(loanID).interestRate) /\\n                SECONDS_PER_YEAR\\n        );\\n\\n        if (ratio_ == 0) {\\n            ratio_ = 1;\\n        }\\n    }\\n}\\n\",\"keccak256\":\"0xe48b287a583b40e534654e4023422f59a9e6d7dd265d68ae4af43f8da58c09d9\",\"license\":\"MIT\"},\"contracts/nft/IStakeableNFT.sol\":{\"content\":\"// SPDX-License-Identifier: MIT\\npragma solidity ^0.8.0;\\n\\ninterface IStakeableNFT {\\n    function tokenBaseLoanSize(uint256 tokenId) external view returns (uint256);\\n\\n    function tokenURIHash(uint256 tokenId)\\n        external\\n        view\\n        returns (string memory);\\n\\n    function tokenContributionAsset(uint256 tokenId)\\n        external\\n        view\\n        returns (address);\\n\\n    function tokenContributionSize(uint256 tokenId)\\n        external\\n        view\\n        returns (uint256);\\n\\n    function tokenContributionMultiplier(uint256 tokenId)\\n        external\\n        view\\n        returns (uint8);\\n}\\n\",\"keccak256\":\"0xfbf44350ad91a54de26f39195d714580d7dade556ea4c7991a51eef5aa839105\",\"license\":\"MIT\"},\"contracts/nft/ITellerNFT.sol\":{\"content\":\"// SPDX-License-Identifier: MIT\\npragma solidity ^0.8.0;\\npragma experimental ABIEncoderV2;\\n\\n// Interfaces\\nimport \\\"@openzeppelin/contracts/token/ERC721/extensions/IERC721Metadata.sol\\\";\\n\\ninterface ITellerNFT {\\n    struct Tier {\\n        uint256 baseLoanSize;\\n        string[] hashes;\\n        address contributionAsset;\\n        uint256 contributionSize;\\n        uint8 contributionMultiplier;\\n    }\\n\\n    /**\\n     * @notice The contract metadata URI.\\n     * @return the contractURI in string\\n     */\\n    function contractURI() external view returns (string memory);\\n\\n    /**\\n     * @notice It returns information about a Tier with from a tier index\\n     * @param index Tier index to get info.\\n     * @return tier_ the tier which belongs to the respective index\\n     */\\n    function getTier(uint256 index) external view returns (Tier memory tier_);\\n\\n    /**\\n     * @notice it returns the current token index to use as a counter\\n     * @return counter_ the current token index\\n     */\\n    function getCurrentTokenIndex() external view returns (uint256 counter_);\\n\\n    /**\\n     * @notice It returns information about a Tier for a token ID.\\n     * @param tokenId ID of the token to get Tier info.\\n     * @return index_ the index of the tier the tokenID belongs in\\n     * @return tier_ the tier where the tokenID belongs in\\n     */\\n    function getTokenTier(uint256 tokenId)\\n        external\\n        view\\n        returns (uint256 index_, Tier memory tier_);\\n\\n    /**\\n     * @notice It returns an array of hashes in a tier\\n     * @param tierIndex the tier index to get the tier hashes\\n     * @return hashes_ all the tokenID hashes\\n     */\\n    function getTierHashes(uint256 tierIndex)\\n        external\\n        view\\n        returns (string[] memory hashes_);\\n\\n    /**\\n     * @notice It returns an array of token IDs owned by an address.\\n     * @dev It uses a EnumerableSet to store values and loops over each element to add to the array.\\n     * @dev Can be costly if calling within a contract for address with many tokens.\\n     * @return owned the array of tokenIDs owned by the address\\n     */\\n    function getOwnedTokens(address owner)\\n        external\\n        view\\n        returns (uint256[] memory owned);\\n\\n    /**\\n     * @notice It mints a new token for a Tier index.\\n     * @param tierIndex the tier index to mint the token in\\n     * @param owner the owner of the new token\\n     * Requirements:\\n     *  - Caller must be an authorized minter\\n     */\\n    function mint(uint256 tierIndex, address owner) external;\\n\\n    /**\\n     * @notice Adds a new Tier to be minted with the given information.\\n     * @dev It auto increments the index of the next tier to add.\\n     * @param newTier Information about the new tier to add.\\n     *\\n     * Requirements:\\n     *  - Caller must have the {MINTER} role\\n     */\\n    function addTier(Tier memory newTier) external;\\n\\n    /**\\n     * @notice Sets the contract level metadata URI hash.\\n     * @param contractURIHash The hash to the initial contract level metadata.\\n     */\\n    function setContractURIHash(string memory contractURIHash) external;\\n\\n    /**\\n     * @notice Initializes the TellerNFT.\\n     * @param minters The addresses that should allowed to mint tokens.\\n     */\\n    function initialize(address[] calldata minters) external;\\n}\\n\",\"keccak256\":\"0x8a6979965f9d275eff9e034f207d605d7eb3506245de3604d2e02acc8196c2a6\",\"license\":\"MIT\"},\"contracts/nft/TellerNFT.sol\":{\"content\":\"// SPDX-License-Identifier: MIT\\npragma solidity ^0.8.0;\\npragma experimental ABIEncoderV2;\\n\\n// Contracts\\nimport \\\"@openzeppelin/contracts-upgradeable/token/ERC721/ERC721Upgradeable.sol\\\";\\nimport \\\"@openzeppelin/contracts-upgradeable/access/AccessControlUpgradeable.sol\\\";\\n\\n// Libraries\\nimport \\\"@openzeppelin/contracts/utils/Counters.sol\\\";\\nimport \\\"@openzeppelin/contracts/utils/structs/EnumerableSet.sol\\\";\\nimport \\\"@openzeppelin/contracts/utils/math/SafeMath.sol\\\";\\n\\n// Interfaces\\nimport \\\"./ITellerNFT.sol\\\";\\n\\n/*****************************************************************************************************/\\n/**                                             WARNING                                             **/\\n/**                                  THIS CONTRACT IS UPGRADEABLE!                                  **/\\n/**  ---------------------------------------------------------------------------------------------  **/\\n/**  Do NOT change the order of or PREPEND any storage variables to this or new versions of this    **/\\n/**  contract as this will cause the the storage slots to be overwritten on the proxy contract!!    **/\\n/**                                                                                                 **/\\n/**  Visit https://docs.openzeppelin.com/upgrades/2.6/proxies#upgrading-via-the-proxy-pattern for   **/\\n/**  more information.                                                                              **/\\n/*****************************************************************************************************/\\n/**\\n * @notice This contract is used by borrowers to call Dapp functions (using delegate calls).\\n * @notice This contract should only be constructed using it's upgradeable Proxy contract.\\n * @notice In order to call a Dapp function, the Dapp must be added in the DappRegistry instance.\\n *\\n * @author develop@teller.finance\\n */\\ncontract TellerNFT is ITellerNFT, ERC721Upgradeable, AccessControlUpgradeable {\\n    using Counters for Counters.Counter;\\n    using EnumerableSet for EnumerableSet.UintSet;\\n    using SafeMath for uint256;\\n\\n    /* Constants */\\n\\n    bytes32 public constant ADMIN = keccak256(\\\"ADMIN\\\");\\n    bytes32 public constant MINTER = keccak256(\\\"MINTER\\\");\\n\\n    /* State Variables */\\n\\n    // It holds the total number of tiers.\\n    Counters.Counter internal _tierCounter;\\n\\n    // It holds the total number of tokens minted.\\n    Counters.Counter internal _tokenCounter;\\n\\n    // It holds the information about a tier.\\n    mapping(uint256 => Tier) internal _tiers;\\n\\n    // It holds which tier a token ID is in.\\n    mapping(uint256 => uint256) internal _tokenTier;\\n\\n    // It holds a set of token IDs for an owner address.\\n    mapping(address => EnumerableSet.UintSet) internal _ownerTokenIDs;\\n\\n    // Link to the contract metadata\\n    string private _metadataBaseURI;\\n\\n    // Hash to the contract metadata located on the {_metadataBaseURI}\\n    string private _contractURIHash;\\n\\n    /* Modifiers */\\n\\n    modifier onlyAdmin() {\\n        require(hasRole(ADMIN, _msgSender()), \\\"TellerNFT: not admin\\\");\\n        _;\\n    }\\n\\n    modifier onlyMinter() {\\n        require(hasRole(MINTER, _msgSender()), \\\"TellerNFT: not minter\\\");\\n        _;\\n    }\\n\\n    /* External Functions */\\n\\n    /**\\n     * @notice It returns information about a Tier for a token ID.\\n     * @param index Tier index to get info.\\n     * @return tier_ the tier which belongs to the respective index\\n     */\\n    function getTier(uint256 index)\\n        external\\n        view\\n        override\\n        returns (Tier memory tier_)\\n    {\\n        tier_ = _tiers[index];\\n    }\\n\\n    /**\\n     * @notice it returns the current token index to use as a counter\\n     * @return counter_ the current token index\\n     */\\n    function getCurrentTokenIndex()\\n        external\\n        view\\n        override\\n        returns (uint256 counter_)\\n    {\\n        counter_ = _tokenCounter.current();\\n    }\\n\\n    /**\\n     * @notice It returns information about a Tier for a token ID.\\n     * @param tokenId ID of the token to get Tier info.\\n     * @return index_ the index of the tier the tokenID belongs in\\n     * @return tier_ the tier where the tokenID belongs in\\n     */\\n    function getTokenTier(uint256 tokenId)\\n        external\\n        view\\n        override\\n        returns (uint256 index_, Tier memory tier_)\\n    {\\n        index_ = _tokenTier[tokenId];\\n        tier_ = _tiers[index_];\\n    }\\n\\n    /**\\n     * @notice It returns an array of hashes in a tier\\n     * @param tierIndex the tier index to get the tier hashes\\n     * @return hashes_ all the tokenID hashes\\n     */\\n    function getTierHashes(uint256 tierIndex)\\n        external\\n        view\\n        override\\n        returns (string[] memory hashes_)\\n    {\\n        hashes_ = _tiers[tierIndex].hashes;\\n    }\\n\\n    /**\\n     * @notice It returns an array of token IDs owned by an address.\\n     * @dev It uses a EnumerableSet to store values and loops over each element to add to the array.\\n     * @dev Can be costly if calling within a contract for address with many tokens.\\n     * @return owned_ the array of tokenIDs owned by the address\\n     */\\n    function getOwnedTokens(address owner)\\n        external\\n        view\\n        override\\n        returns (uint256[] memory owned_)\\n    {\\n        EnumerableSet.UintSet storage set = _ownerTokenIDs[owner];\\n        owned_ = new uint256[](set.length());\\n        for (uint256 i; i < owned_.length; i++) {\\n            owned_[i] = set.at(i);\\n        }\\n    }\\n\\n    /**\\n     * @notice The contract metadata URI.\\n     * @return the contract URI hash\\n     */\\n    function contractURI() external view override returns (string memory) {\\n        return _contractURIHash;\\n    }\\n\\n    /**\\n     * @notice The token URI is based on the token ID.\\n     * @param tokenId the token identifier that returns the hash of the baseURI and the tokenURI hash\\n     * @return the tokenURI\\n     */\\n    function tokenURI(uint256 tokenId)\\n        public\\n        view\\n        override\\n        returns (string memory)\\n    {\\n        require(_exists(tokenId), \\\"TellerNFT: URI query for nonexistent token\\\");\\n\\n        string memory baseURI = _baseURI();\\n        return\\n            bytes(baseURI).length > 0\\n                ? string(abi.encodePacked(baseURI, _tokenURIHash(tokenId)))\\n                : \\\"\\\";\\n    }\\n\\n    /**\\n     * @notice It mints a new token for a Tier index.\\n     * @param tierIndex Tier to mint token on.\\n     * @param owner The owner of the new token.\\n     *\\n     * Requirements:\\n     *  - Caller must be an authorized minter\\n     */\\n    function mint(uint256 tierIndex, address owner)\\n        external\\n        override\\n        onlyMinter\\n    {\\n        // Get the new token ID\\n        uint256 tokenId = _tokenCounter.current();\\n        _tokenCounter.increment();\\n\\n        // Mint and set the token to the tier index\\n        _safeMint(owner, tokenId);\\n        _tokenTier[tokenId] = tierIndex;\\n\\n        // Set owner\\n        _setOwner(owner, tokenId);\\n    }\\n\\n    /**\\n     * @notice Adds a new Tier to be minted with the given information.\\n     * @dev It auto increments the index of the next tier to add.\\n     * @param newTier Information about the new tier to add.\\n     *\\n     * Requirements:\\n     *  - Caller must have the {MINTER} role\\n     */\\n    function addTier(Tier memory newTier) external override onlyMinter {\\n        Tier storage tier = _tiers[_tierCounter.current()];\\n\\n        tier.baseLoanSize = newTier.baseLoanSize;\\n        tier.hashes = newTier.hashes;\\n        tier.contributionAsset = newTier.contributionAsset;\\n        tier.contributionSize = newTier.contributionSize;\\n        tier.contributionMultiplier = newTier.contributionMultiplier;\\n\\n        _tierCounter.increment();\\n    }\\n\\n    /**\\n     * @notice it removes the minter by revoking the role of the address assigned to MINTER\\n     * @param minter the address of the minter\\n     */\\n    function removeMinter(address minter) external onlyMinter {\\n        revokeRole(MINTER, minter);\\n    }\\n\\n    /**\\n     * @notice it adds the minter to the rule\\n     * @param minter the address of the minter to add to the role of MINTER\\n     */\\n    function addMinter(address minter) public onlyMinter {\\n        _setupRole(MINTER, minter);\\n    }\\n\\n    /**\\n     * @notice Sets the contract level metadata URI hash.\\n     * @param contractURIHash The hash to the initial contract level metadata.\\n     */\\n    function setContractURIHash(string memory contractURIHash)\\n        external\\n        override\\n        onlyAdmin\\n    {\\n        _contractURIHash = contractURIHash;\\n    }\\n\\n    /**\\n     * @notice Initializes the TellerNFT.\\n     * @param minters The addresses that should allowed to mint tokens.\\n     */\\n    function initialize(address[] calldata minters)\\n        external\\n        override\\n        initializer\\n    {\\n        __ERC721_init(\\\"Teller NFT\\\", \\\"TNFT\\\");\\n        __AccessControl_init();\\n\\n        for (uint256 i; i < minters.length; i++) {\\n            _setupRole(MINTER, minters[i]);\\n        }\\n\\n        _metadataBaseURI = \\\"https://gateway.pinata.cloud/ipfs/\\\";\\n        _contractURIHash = \\\"QmWAfQFFwptzRUCdF2cBFJhcB2gfHJMd7TQt64dZUysk3R\\\";\\n    }\\n\\n    /**\\n     * @notice checks if an interface is supported by ITellerNFT, ERC721Upgradeable or AccessControlUpgradeable\\n     * @param interfaceId the identifier of the interface\\n     * @return bool stating whether or not our interface is supported\\n     */\\n    function supportsInterface(bytes4 interfaceId)\\n        public\\n        view\\n        override(AccessControlUpgradeable, ERC721Upgradeable)\\n        returns (bool)\\n    {\\n        return\\n            interfaceId == type(ITellerNFT).interfaceId ||\\n            ERC721Upgradeable.supportsInterface(interfaceId) ||\\n            AccessControlUpgradeable.supportsInterface(interfaceId);\\n    }\\n\\n    /**\\n     * @notice It returns the hash to use for the token URI.\\n     * @param tokenId the tokenId to get the tokenURI hash\\n     * @return the tokenURIHash of our NFT\\n     */\\n    function _tokenURIHash(uint256 tokenId)\\n        internal\\n        view\\n        returns (string memory)\\n    {\\n        string[] storage tierImageHashes = _tiers[_tokenTier[tokenId]].hashes;\\n        return tierImageHashes[tokenId.mod(tierImageHashes.length)];\\n    }\\n\\n    /**\\n     * @notice The base URI path where the token media is hosted.\\n     * @dev Base URI for computing {tokenURI}\\n     * @return our metadata URI\\n     */\\n    function _baseURI() internal view override returns (string memory) {\\n        return _metadataBaseURI;\\n    }\\n\\n    /**\\n     * @notice Moves token to new owner set and then transfers.\\n     * @param from address to transfer from\\n     * @param to address to transfer to\\n     * @param tokenId tokenID to transfer\\n     */\\n    function _transfer(\\n        address from,\\n        address to,\\n        uint256 tokenId\\n    ) internal override {\\n        _setOwner(to, tokenId);\\n        super._transfer(from, to, tokenId);\\n    }\\n\\n    /**\\n     * @notice It removes the token from the current owner set and adds to new owner.\\n     * @param newOwner the new owner of the tokenID\\n     * @param tokenId the ID of the NFT\\n     */\\n    function _setOwner(address newOwner, uint256 tokenId) internal {\\n        address currentOwner = ownerOf(tokenId);\\n        if (currentOwner != address(0)) {\\n            _ownerTokenIDs[currentOwner].remove(tokenId);\\n        }\\n        _ownerTokenIDs[newOwner].add(tokenId);\\n    }\\n\\n    function _msgData() internal pure override returns (bytes calldata) {\\n        return msg.data;\\n    }\\n}\\n\",\"keccak256\":\"0xf42808068c07aa015fcf4a2922fb91cfb456a2f6c8fcfa6daa08b2dfbedf8817\",\"license\":\"MIT\"},\"contracts/nft/TellerNFTDictionary.sol\":{\"content\":\"/**\\n * @notice TellerNFTDictionary Version 1.02\\n *\\n * @notice This contract is used to gather data for TellerV1 NFTs more efficiently.\\n * @notice This contract has data which must be continuously synchronized with the TellerV1 NFT data\\n *\\n * @author develop@teller.finance\\n */\\n\\npragma solidity ^0.8.0;\\n\\n// Contracts\\nimport \\\"@openzeppelin/contracts-upgradeable/access/AccessControlUpgradeable.sol\\\";\\n\\n// Interfaces\\nimport \\\"./IStakeableNFT.sol\\\";\\n\\n/**\\n * @notice This contract is used by borrowers to call Dapp functions (using delegate calls).\\n * @notice This contract should only be constructed using it's upgradeable Proxy contract.\\n * @notice In order to call a Dapp function, the Dapp must be added in the DappRegistry instance.\\n *\\n * @author develop@teller.finance\\n */\\ncontract TellerNFTDictionary is IStakeableNFT, AccessControlUpgradeable {\\n    struct Tier {\\n        uint256 baseLoanSize;\\n        string[] hashes;\\n        address contributionAsset;\\n        uint256 contributionSize;\\n        uint8 contributionMultiplier;\\n    }\\n\\n    mapping(uint256 => uint256) public baseLoanSizes;\\n    mapping(uint256 => string[]) public hashes;\\n    mapping(uint256 => address) public contributionAssets;\\n    mapping(uint256 => uint256) public contributionSizes;\\n    mapping(uint256 => uint8) public contributionMultipliers;\\n\\n    /* Constants */\\n\\n    bytes32 public constant ADMIN = keccak256(\\\"ADMIN\\\");\\n\\n    /* State Variables */\\n\\n    mapping(uint256 => uint256) public _tokenTierMappingCompressed;\\n    bool public _tokenTierMappingCompressedSet;\\n\\n    /* Modifiers */\\n\\n    modifier onlyAdmin() {\\n        require(hasRole(ADMIN, _msgSender()), \\\"TellerNFTDictionary: not admin\\\");\\n        _;\\n    }\\n\\n    function initialize(address initialAdmin) public {\\n        _setupRole(ADMIN, initialAdmin);\\n        _setRoleAdmin(ADMIN, ADMIN);\\n\\n        __AccessControl_init();\\n    }\\n\\n    /* External Functions */\\n\\n    /**\\n     * @notice It returns information about a Tier for a token ID.\\n     * @param tokenId ID of the token to get Tier info.\\n     */\\n    function getTokenTierIndex(uint256 tokenId)\\n        public\\n        view\\n        returns (uint8 index_)\\n    {\\n        //32 * 8 = 256 - each uint256 holds the data of 32 tokens . 8 bits each.\\n\\n        uint256 mappingIndex = tokenId / 32;\\n\\n        uint256 compressedRegister = _tokenTierMappingCompressed[mappingIndex];\\n\\n        //use 31 instead of 32 to account for the '0x' in the start.\\n        //the '31 -' reverses our bytes order which is necessary\\n\\n        uint256 offset = ((31 - (tokenId % 32)) * 8);\\n\\n        uint8 tierIndex = uint8((compressedRegister >> offset));\\n\\n        return tierIndex;\\n    }\\n\\n    function getTierHashes(uint256 tierIndex)\\n        external\\n        view\\n        returns (string[] memory)\\n    {\\n        return hashes[tierIndex];\\n    }\\n\\n    /**\\n     * @notice Adds a new Tier to be minted with the given information.\\n     * @dev It auto increments the index of the next tier to add.\\n     * @param newTier Information about the new tier to add.\\n     *\\n     * Requirements:\\n     *  - Caller must have the {Admin} role\\n     */\\n    function setTier(uint256 index, Tier memory newTier)\\n        external\\n        onlyAdmin\\n        returns (bool)\\n    {\\n        baseLoanSizes[index] = newTier.baseLoanSize;\\n        hashes[index] = newTier.hashes;\\n        contributionAssets[index] = newTier.contributionAsset;\\n        contributionSizes[index] = newTier.contributionSize;\\n        contributionMultipliers[index] = newTier.contributionMultiplier;\\n\\n        return true;\\n    }\\n\\n    /**\\n     * @notice Sets the tiers for each tokenId using compressed data.\\n     * @param tiersMapping Information about the new tiers to add.\\n     *\\n     * Requirements:\\n     *  - Caller must have the {Admin} role\\n     */\\n    function setAllTokenTierMappings(uint256[] memory tiersMapping)\\n        public\\n        onlyAdmin\\n        returns (bool)\\n    {\\n        require(\\n            !_tokenTierMappingCompressedSet,\\n            \\\"TellerNFTDictionary: token tier mapping already set\\\"\\n        );\\n        for (uint256 i = 0; i < tiersMapping.length; i++) {\\n            _tokenTierMappingCompressed[i] = tiersMapping[i];\\n        }\\n\\n        _tokenTierMappingCompressedSet = true;\\n        return true;\\n    }\\n\\n    /**\\n     * @notice Sets the tiers for each tokenId using compressed data.\\n     * @param index the mapping row, each holds data for 32 tokens\\n     * @param tierMapping Information about the new tier to add.\\n     *\\n     * Requirements:\\n     *  - Caller must have the {Admin} role\\n     */\\n    function setTokenTierMapping(uint256 index, uint256 tierMapping)\\n        public\\n        onlyAdmin\\n        returns (bool)\\n    {\\n        _tokenTierMappingCompressed[index] = tierMapping;\\n\\n        return true;\\n    }\\n\\n    /**\\n     * @notice Sets a specific tier for a specific tokenId using compressed data.\\n     * @param tokenIds the NFT token Ids for which to add data\\n     * @param tokenTier the index of the tier that these tokenIds should have\\n     *\\n     * Requirements:\\n     *  - Caller must have the {Admin} role\\n     */\\n    function setTokenTierForTokenIds(\\n        uint256[] calldata tokenIds,\\n        uint256 tokenTier\\n    ) public onlyAdmin returns (bool) {\\n        for (uint256 i; i < tokenIds.length; i++) {\\n            setTokenTierForTokenId(tokenIds[i], tokenTier);\\n        }\\n\\n        return true;\\n    }\\n\\n    /**\\n     * @notice Sets a specific tier for a specific tokenId using compressed data.\\n     * @param tokenId the NFT token Id for which to add data\\n     * @param tokenTier the index of the tier that these tokenIds should have\\n     *\\n     * Requirements:\\n     *  - Caller must have the {Admin} role\\n     */\\n    function setTokenTierForTokenId(uint256 tokenId, uint256 tokenTier)\\n        public\\n        onlyAdmin\\n        returns (bool)\\n    {\\n        uint256 mappingIndex = tokenId / 32;\\n\\n        uint256 existingRegister = _tokenTierMappingCompressed[mappingIndex];\\n\\n        uint256 offset = ((31 - (tokenId % 32)) * 8);\\n\\n        uint256 updateMaskShifted =\\n            0x00000000000000000000000000000000000000000000000000000000000000FF <<\\n                offset;\\n\\n        uint256 updateMaskShiftedNegated = ~updateMaskShifted;\\n\\n        uint256 tokenTierShifted =\\n            ((0x0000000000000000000000000000000000000000000000000000000000000000 |\\n                tokenTier) << offset);\\n\\n        uint256 existingRegisterClearedWithMask =\\n            existingRegister & updateMaskShiftedNegated;\\n\\n        uint256 updatedRegister =\\n            existingRegisterClearedWithMask | tokenTierShifted;\\n\\n        _tokenTierMappingCompressed[mappingIndex] = updatedRegister;\\n\\n        return true;\\n    }\\n\\n    function supportsInterface(bytes4 interfaceId)\\n        public\\n        view\\n        override(AccessControlUpgradeable)\\n        returns (bool)\\n    {\\n        return\\n            interfaceId == type(IStakeableNFT).interfaceId ||\\n            AccessControlUpgradeable.supportsInterface(interfaceId);\\n    }\\n\\n    /**\\n        New methods for the dictionary\\n    */\\n\\n    /**\\n     * @notice It returns Base Loan Size for a token ID.\\n     * @param tokenId ID of the token to get info.\\n     */\\n    function tokenBaseLoanSize(uint256 tokenId)\\n        public\\n        view\\n        override\\n        returns (uint256)\\n    {\\n        uint8 tokenTier = getTokenTierIndex(tokenId);\\n\\n        return baseLoanSizes[tokenTier];\\n    }\\n\\n    /**\\n     * @notice It returns Token URI Hash for a token ID.\\n     * @param tokenId ID of the token to get info.\\n     */\\n    function tokenURIHash(uint256 tokenId)\\n        public\\n        view\\n        override\\n        returns (string memory)\\n    {\\n        uint8 tokenTier = getTokenTierIndex(tokenId);\\n\\n        string[] memory tierImageHashes = hashes[tokenTier];\\n        return tierImageHashes[tokenId % (tierImageHashes.length)];\\n    }\\n\\n    /**\\n     * @notice It returns Contribution Asset for a token ID.\\n     * @param tokenId ID of the token to get info.\\n     */\\n    function tokenContributionAsset(uint256 tokenId)\\n        public\\n        view\\n        override\\n        returns (address)\\n    {\\n        uint8 tokenTier = getTokenTierIndex(tokenId);\\n\\n        return contributionAssets[tokenTier];\\n    }\\n\\n    /**\\n     * @notice It returns Contribution Size for a token ID.\\n     * @param tokenId ID of the token to get info.\\n     */\\n    function tokenContributionSize(uint256 tokenId)\\n        public\\n        view\\n        override\\n        returns (uint256)\\n    {\\n        uint8 tokenTier = getTokenTierIndex(tokenId);\\n\\n        return contributionSizes[tokenTier];\\n    }\\n\\n    /**\\n     * @notice It returns Contribution Multiplier for a token ID.\\n     * @param tokenId ID of the token to get info.\\n     */\\n    function tokenContributionMultiplier(uint256 tokenId)\\n        public\\n        view\\n        override\\n        returns (uint8)\\n    {\\n        uint8 tokenTier = getTokenTierIndex(tokenId);\\n\\n        return contributionMultipliers[tokenTier];\\n    }\\n}\\n\",\"keccak256\":\"0xf33e3fa1f609fdd2abb3b5fb9c232269d13363a3e4fa5697ea96269e361e74fa\"},\"contracts/nft/libraries/NFTLib.sol\":{\"content\":\"// SPDX-License-Identifier: MIT\\npragma solidity ^0.8.0;\\n\\n// Contracts\\nimport { TellerNFT } from \\\"../TellerNFT.sol\\\";\\n\\n// Libraries\\nimport {\\n    MerkleProof\\n} from \\\"@openzeppelin/contracts/utils/cryptography/MerkleProof.sol\\\";\\nimport {\\n    EnumerableSet\\n} from \\\"@openzeppelin/contracts/utils/structs/EnumerableSet.sol\\\";\\n\\n// Storage\\nimport { AppStorageLib, AppStorage } from \\\"../../storage/app.sol\\\";\\nimport { NFTStorageLib, NFTStorage } from \\\"../../storage/nft.sol\\\";\\n\\nlibrary NFTLib {\\n    function s() internal pure returns (NFTStorage storage s_) {\\n        s_ = NFTStorageLib.store();\\n    }\\n\\n    function nft() internal view returns (TellerNFT nft_) {\\n        nft_ = AppStorageLib.store().nft;\\n    }\\n\\n    /**s\\n     * @notice it transfers the NFT from the sender to the diamond to stake then adds the NFTID to the list of the owner's stakedNFTs\\n     * @param nftID the ID of the NFT to stake\\n     * @param owner the owner of the NFT who will stake the NFT\\n     */\\n    function stake(uint256 nftID, address owner) internal {\\n        // Transfer to diamond\\n        NFTLib.nft().transferFrom(msg.sender, address(this), nftID);\\n        // Add NFT ID to user set\\n        EnumerableSet.add(s().stakedNFTs[owner], nftID);\\n    }\\n\\n    /**\\n     * @notice it unstakes the NFT by removing the NFT ID from the list of the user's staked NFTs\\n     * @param nftID the ID of the NFT to remove from the list of the user's staked NFTs\\n     * @return success_ the boolean value telling us if the user has unsuccessfully unstaked the NFT\\n     */\\n    function unstake(uint256 nftID) internal returns (bool success_) {\\n        success_ = EnumerableSet.remove(s().stakedNFTs[msg.sender], nftID);\\n    }\\n\\n    /**\\n     * @notice it gets the list of staked NFTs from the owner\\n     * @param nftOwner the owner of the staked NFTs to pull from\\n     * @return staked_ the array of the staked NFTs owned by the user\\n     */\\n    function stakedNFTs(address nftOwner)\\n        internal\\n        view\\n        returns (uint256[] memory staked_)\\n    {\\n        EnumerableSet.UintSet storage nfts = s().stakedNFTs[nftOwner];\\n        staked_ = new uint256[](EnumerableSet.length(nfts));\\n        for (uint256 i; i < staked_.length; i++) {\\n            staked_[i] = EnumerableSet.at(nfts, i);\\n        }\\n    }\\n\\n    /**\\n     * @notice if the user fails to pay his loan, then we liquidate the all the NFTs associated with the loan\\n     * @param loanID the identifier of the loan to liquidate the NFTs from\\n     */\\n    function liquidateNFT(uint256 loanID) internal {\\n        // Check if NFTs are linked\\n        EnumerableSet.UintSet storage nfts = s().loanNFTs[loanID];\\n        for (uint256 i; i < EnumerableSet.length(nfts); i++) {\\n            NFTLib.nft().transferFrom(\\n                address(this),\\n                AppStorageLib.store().nftLiquidationController,\\n                EnumerableSet.at(nfts, i)\\n            );\\n        }\\n    }\\n\\n    /**\\n     * @notice it unstakes an NFT and verifies the proof in order to apply the proof to a loan\\n     * @param loanID the identifier of the loan\\n     * @param nftID the NFT ID to apply to the loan\\n     */\\n    function applyToLoan(uint256 loanID, uint256 nftID) internal {\\n        // NFT must be currently staked\\n        // Remove NFT from being staked - returns bool\\n        require(unstake(nftID), \\\"Teller: borrower nft not staked\\\");\\n\\n        // Apply NFT to loan\\n        EnumerableSet.add(s().loanNFTs[loanID], nftID);\\n    }\\n\\n    /**\\n     * @notice it finds the loan's NFTs and adds them back to the owner's list of staked NFTs\\n     * @param loanID the identifier of the respective loan to add the NFTs back to the user's staked NFTs\\n     * @param owner the owner to add the unstaked NFTs back to the staked pile\\n     */\\n    function restakeLinked(uint256 loanID, address owner) internal {\\n        // Get linked NFT\\n        EnumerableSet.UintSet storage nfts = s().loanNFTs[loanID];\\n        for (uint256 i; i < EnumerableSet.length(nfts); i++) {\\n            // Restake the NFT\\n            EnumerableSet.add(s().stakedNFTs[owner], EnumerableSet.at(nfts, i));\\n        }\\n    }\\n}\\n\",\"keccak256\":\"0xccbd35c6e8d0130b38f5025ee81c47d55e4fa48c8fcb8bec6f70c21061e0ce61\",\"license\":\"MIT\"},\"contracts/price-aggregator/PriceAggFacet.sol\":{\"content\":\"// SPDX-License-Identifier: MIT\\npragma solidity ^0.8.0;\\n\\n// Libraries\\nimport { SafeCast } from \\\"@openzeppelin/contracts/utils/math/SafeCast.sol\\\";\\nimport { ChainlinkLib } from \\\"./chainlink/ChainlinkLib.sol\\\";\\nimport { CompoundLib } from \\\"../shared/libraries/CompoundLib.sol\\\";\\n\\n// Interfaces\\nimport {\\n    AggregatorV2V3Interface\\n} from \\\"@chainlink/contracts/src/v0.8/interfaces/AggregatorV2V3Interface.sol\\\";\\nimport { ERC20 } from \\\"@openzeppelin/contracts/token/ERC20/ERC20.sol\\\";\\n\\n// Storage\\nimport { AppStorageLib } from \\\"../storage/app.sol\\\";\\n\\ncontract PriceAggFacet {\\n    uint256 internal constant TEN = 10;\\n\\n    /**\\n     * @notice It returns the price of the token pair as given from the Chainlink Aggregator.\\n     * @dev It tries to use ETH as a pass through asset if the direct pair is not supported.\\n     * @param src Source token address.\\n     * @param dst Destination token address.\\n     * @return int256 The latest answer as given from Chainlink.\\n     */\\n    function getPriceFor(address src, address dst)\\n        external\\n        view\\n        returns (int256)\\n    {\\n        return _priceFor(src, dst);\\n    }\\n\\n    /**\\n     * @notice It calculates the value of a token amount into another.\\n     * @param src Source token address.\\n     * @param dst Destination token address.\\n     * @param srcAmount Amount of the source token to convert into the destination token.\\n     * @return uint256 Value of the source token amount in destination tokens.\\n     */\\n    function getValueFor(\\n        address src,\\n        address dst,\\n        uint256 srcAmount\\n    ) external view returns (uint256) {\\n        return _valueFor(src, srcAmount, uint256(_priceFor(src, dst)));\\n    }\\n\\n    function _valueFor(\\n        address src,\\n        uint256 amount,\\n        uint256 exchangeRate\\n    ) internal view returns (uint256) {\\n        return (amount * exchangeRate) / _oneToken(src);\\n    }\\n\\n    /**\\n     * @notice it returns 10^{numberOfDecimals} for a token\\n     * @param token the address to calculate the decimals for\\n     * @return 10^number of decimals used to calculate the price and value of different token pairs\\n     */\\n    function _oneToken(address token) internal view returns (uint256) {\\n        return TEN**_decimalsFor(token);\\n    }\\n\\n    /**\\n     * @notice It gets the number of decimals for a given token.\\n     * @param addr Token address to get decimals for.\\n     * @return uint8 Number of decimals the given token.\\n     */\\n    function _decimalsFor(address addr) internal view returns (uint8) {\\n        return ERC20(addr).decimals();\\n    }\\n\\n    /**\\n     * @notice it tries to calculate a price from Compound and Chainlink.\\n     * @dev if no price is found on compound, then calculate it on chainlink\\n     * @param src the token address to calculate the price for in dst\\n     * @param dst the token address to retrieve the price of src\\n     * @return price_ the price of src in dst\\n     */\\n    function _priceFor(address src, address dst)\\n        private\\n        view\\n        returns (int256 price_)\\n    {\\n        // If no Compound route, try Chainlink directly.\\n        price_ = int256(_compoundPriceFor(src, dst));\\n        if (price_ == 0) {\\n            price_ = _chainlinkPriceFor(src, dst);\\n            if (price_ == 0) {\\n                revert(\\\"Teller: cannot calc price\\\");\\n            }\\n        }\\n    }\\n\\n    /**\\n     * @notice Tries to get a price from {src} to {dst} by checking if either tokens are from Compound.\\n     * @param src the address of the src token\\n     * @param dst the address of the dst token\\n     * @return the price of the src token in dst token\\n\\n     */\\n    function _compoundPriceFor(address src, address dst)\\n        private\\n        view\\n        returns (uint256)\\n    {\\n        (bool isSrcCompound, address srcUnderlying) = _isCToken(src);\\n        if (isSrcCompound) {\\n            uint256 cRate = CompoundLib.valueInUnderlying(src, _oneToken(src));\\n            if (srcUnderlying == dst) {\\n                return cRate;\\n            } else {\\n                return _calcPriceFromCompoundRate(srcUnderlying, dst, cRate);\\n            }\\n        } else {\\n            (bool isDstCompound, address dstUnderlying) = _isCToken(dst);\\n            if (isDstCompound) {\\n                uint256 cRate =\\n                    CompoundLib.valueOfUnderlying(dst, _oneToken(src));\\n                if (dstUnderlying == src) {\\n                    return cRate;\\n                } else {\\n                    return\\n                        _calcPriceFromCompoundRate(src, dstUnderlying, cRate);\\n                }\\n            }\\n        }\\n\\n        return 0;\\n    }\\n\\n    /**\\n     * @notice Tries to get a price from {src} to {dst} and then converts using a rate from Compound.\\n     * @param src the source token to calculate price for with chainlink\\n     * @param dst the destination token to calculate price for with chainlink\\n     * @param cRate the compound rate to multiply with the price of the dst token\\n     * @return the price of src in dst after scaling the difference in decimal values\\n     */\\n    function _calcPriceFromCompoundRate(\\n        address src,\\n        address dst,\\n        uint256 cRate\\n    ) private view returns (uint256) {\\n        uint256 rate = uint256(_chainlinkPriceFor(src, dst));\\n        uint256 value = (cRate * _oneToken(dst)) / rate;\\n        return _scale(value, _decimalsFor(src), _decimalsFor(dst));\\n    }\\n\\n    /**\\n     * @notice Scales the {value} by the difference in decimal values.\\n     * @param value the the value of the src in dst\\n     * @param srcDecimals src token decimals\\n     * @param dstDecimals dst token decimals\\n     * @return the price of src in dst after scaling the difference in decimal values\\n     */\\n    function _scale(\\n        uint256 value,\\n        uint256 srcDecimals,\\n        uint256 dstDecimals\\n    ) internal pure returns (uint256) {\\n        if (dstDecimals > srcDecimals) {\\n            return value * (TEN**(dstDecimals - srcDecimals));\\n        } else {\\n            return value / (TEN**(srcDecimals - dstDecimals));\\n        }\\n    }\\n\\n    /**\\n     * @notice it tries to calculate the price of {src} in {dst}\\n     * @param src address of source token\\n     * @param dst address of destination token\\n     * @return the price of src token in dst\\n     */\\n    function _chainlinkPriceFor(address src, address dst)\\n        private\\n        view\\n        returns (int256)\\n    {\\n        (address agg, bool foundAgg, bool inverse) =\\n            ChainlinkLib.aggregatorFor(src, dst);\\n        if (foundAgg) {\\n            uint256 price =\\n                SafeCast.toUint256(AggregatorV2V3Interface(agg).latestAnswer());\\n            uint8 resDecimals = AggregatorV2V3Interface(agg).decimals();\\n            if (inverse) {\\n                price = (TEN**(resDecimals + resDecimals)) / price;\\n            }\\n            return\\n                SafeCast.toInt256(\\n                    (_scale(price, resDecimals, _decimalsFor(dst)))\\n                );\\n        } else {\\n            address WETH = AppStorageLib.store().assetAddresses[\\\"WETH\\\"];\\n            if (dst != WETH) {\\n                int256 price1 = _priceFor(src, WETH);\\n                if (price1 > 0) {\\n                    int256 price2 = _priceFor(dst, WETH);\\n                    if (price2 > 0) {\\n                        uint256 dstFactor = TEN**_decimalsFor(dst);\\n                        return (price1 * int256(dstFactor)) / price2;\\n                    }\\n                }\\n            }\\n        }\\n\\n        return 0;\\n    }\\n\\n    /**\\n     * @notice it checks if a token is a cToken. If it is, then get the underlying address\\n     * @param token address of the token\\n     * @return isCToken boolean whether it's a cToken\\n     * @return underlying the address of the cToken\\n     */\\n    function _isCToken(address token)\\n        private\\n        view\\n        returns (bool isCToken, address underlying)\\n    {\\n        isCToken = CompoundLib.isCompoundToken(token);\\n        if (isCToken) {\\n            underlying = CompoundLib.getUnderlying(token);\\n        }\\n    }\\n}\\n\",\"keccak256\":\"0x2efb3d71a1c0fb49f8c455c4fa30d04c69a1617d619035fc400dabdeb2ab0c9e\",\"license\":\"MIT\"},\"contracts/price-aggregator/PriceAggLib.sol\":{\"content\":\"// SPDX-License-Identifier: MIT\\npragma solidity ^0.8.0;\\n\\nimport { PriceAggFacet } from \\\"./PriceAggFacet.sol\\\";\\n\\n// Storage\\nimport { AppStorageLib } from \\\"../storage/app.sol\\\";\\n\\n/**\\n * @notice Helper functions to staticcall into the PriceAggFacet from other facets. See {PriceAggFacet.getPriceFor}\\n */\\nlibrary PriceAggLib {\\n    /**\\n     * @notice It calculates the value of one token amount into another\\n     * @param src the source token\\n     * @param dst the destination token\\n     * @param srcAmount the amount of source token\\n     * @return value_ the returned value of src in dst\\n     */\\n    function valueFor(\\n        address src,\\n        address dst,\\n        uint256 srcAmount\\n    ) internal view returns (uint256 value_) {\\n        value_ = PriceAggFacet(address(this)).getValueFor(src, dst, srcAmount);\\n    }\\n\\n    /**\\n     * @notice It returns the price of the token pair as given from Compound.\\n     * @dev if no compound price is calculated, then it checks Chainlink price Aggregator\\n     * @param src the address of the source token\\n     * @param dst the address of the desitnation token\\n     * @return price_ gets the price of src in dst\\n     */\\n    function priceFor(address src, address dst)\\n        internal\\n        view\\n        returns (int256 price_)\\n    {\\n        price_ = PriceAggFacet(address(this)).getPriceFor(src, dst);\\n    }\\n}\\n\",\"keccak256\":\"0xff59eee567fa4a7f5cac432e31d918be92834f04614f49572d3984a5b030ac79\",\"license\":\"MIT\"},\"contracts/price-aggregator/chainlink/ChainlinkLib.sol\":{\"content\":\"// SPDX-License-Identifier: MIT\\npragma solidity ^0.8.0;\\n\\n// Libraries\\nimport {\\n    EnumerableSet\\n} from \\\"@openzeppelin/contracts/utils/structs/EnumerableSet.sol\\\";\\n\\n// Storage\\nimport {\\n    PriceAggStorageLib,\\n    ChainlinkAggStorage\\n} from \\\"../../storage/price-aggregator.sol\\\";\\n\\nlibrary ChainlinkLib {\\n    function s() internal view returns (ChainlinkAggStorage storage) {\\n        return PriceAggStorageLib.store().chainlink;\\n    }\\n\\n    /**\\n     * @notice It grabs the Chainlink Aggregator contract address for the token pair if it is supported.\\n     * @param src Source token address.\\n     * @param dst Destination token address.\\n     * @return aggregator The Chainlink Aggregator address.\\n     * @return found whether or not the ChainlinkAggregator exists.\\n     * @return inverse whether or not the values from the Aggregator should be considered inverted.\\n     */\\n    function aggregatorFor(address src, address dst)\\n        internal\\n        view\\n        returns (\\n            address aggregator,\\n            bool found,\\n            bool inverse\\n        )\\n    {\\n        aggregator = s().aggregators[src][dst];\\n        if (aggregator != address(0)) {\\n            found = true;\\n        } else {\\n            aggregator = s().aggregators[dst][src];\\n            if (aggregator != address(0)) {\\n                found = true;\\n                inverse = true;\\n            }\\n        }\\n    }\\n\\n    /**\\n     * @dev Checks if a token address is supported by Chainlink (has a pair aggregator).\\n     * @param token Token address to check if is supported.\\n     * @return isSupported_ true if there is at least 1 pair aggregator for {token}\\n     */\\n    function isTokenSupported(address token)\\n        internal\\n        view\\n        returns (bool isSupported_)\\n    {\\n        isSupported_ = EnumerableSet.contains(s().supportedTokens, token);\\n    }\\n}\\n\",\"keccak256\":\"0x84fcff4e22dcf0a954794b08f4a5e66cb0b9522a74cccb7d80c07e7032440f42\",\"license\":\"MIT\"},\"contracts/settings/pausable/PausableMods.sol\":{\"content\":\"// SPDX-License-Identifier: MIT\\npragma solidity ^0.8.0;\\n\\nimport { AppStorageLib } from \\\"../../storage/app.sol\\\";\\n\\nabstract contract PausableMods {\\n    /**\\n     * @notice Requires that the state of the protocol AND the given facet id equal {state}.\\n     * @param id id of the facet to check if is paused.\\n     * @param state Boolean that the protocol AND facet should be in.\\n     */\\n    modifier paused(bytes32 id, bool state) {\\n        require(\\n            __isPaused(\\\"\\\") == state && __isPaused(id) == state,\\n            __pausedMessage(state)\\n        );\\n        _;\\n    }\\n\\n    /**\\n     * @dev Checks if the given id is paused.\\n     * @param id Encoded id of the facet to check if is paused.\\n     * @return the bool to tell us if the facet is paused (true) or not (false)\\n     */\\n    function __isPaused(bytes32 id) private view returns (bool) {\\n        return AppStorageLib.store().paused[id];\\n    }\\n\\n    /**\\n     * @dev Gets the message that should be reverted with given a state it should be in.\\n     * @param state Boolean that an id should be in.\\n     * @return a message stating whether the facet is paused or not\\n     */\\n    function __pausedMessage(bool state) private pure returns (string memory) {\\n        return state ? \\\"Pausable: not paused\\\" : \\\"Pausable: paused\\\";\\n    }\\n}\\n\",\"keccak256\":\"0x2d3f848ee56ae5fa365539c2509c03c167affc89c89f98bb98cb9b83fbe8ae4c\",\"license\":\"MIT\"},\"contracts/settings/platform/libraries/PlatformSettingsLib.sol\":{\"content\":\"// SPDX-License-Identifier: MIT\\npragma solidity ^0.8.0;\\n\\nimport { AppStorageLib } from \\\"../../../storage/app.sol\\\";\\nimport \\\"../names.sol\\\" as NAMES;\\nimport {\\n    RolesMods\\n} from \\\"../../../contexts2/access-control/roles/RolesMods.sol\\\";\\nimport { ADMIN, AUTHORIZED } from \\\"../../../shared/roles.sol\\\";\\nimport { RolesLib } from \\\"../../../contexts2/access-control/roles/RolesLib.sol\\\";\\n\\n// It defines a platform settings. It includes: value, min, and max values.\\nstruct PlatformSetting {\\n    uint256 value;\\n    uint256 min;\\n    uint256 max;\\n    bool exists;\\n}\\n\\n/**\\n * @notice Utility library of inline functions on the PlatformSetting struct.\\n *\\n * @author develop@teller.finance\\n */\\nlibrary PlatformSettingsLib {\\n    function s(bytes32 name) internal view returns (PlatformSetting storage) {\\n        return AppStorageLib.store().platformSettings[name];\\n    }\\n\\n    /**\\n     * @notice It gets the current \\\"RequiredSubmissionsPercentage\\\" setting's value\\n     * @return value_ the current value.\\n     */\\n    function getRequiredSubmissionsPercentageValue()\\n        internal\\n        view\\n        returns (uint256 value_)\\n    {\\n        value_ = s(NAMES.REQUIRED_SUBMISSIONS_PERCENTAGE).value;\\n    }\\n\\n    /**\\n     * @notice It gets the current \\\"MaximumTolerance\\\" setting's value\\n     * @return value_ the current value.\\n     */\\n    function getMaximumToleranceValue() internal view returns (uint256 value_) {\\n        value_ = s(NAMES.MAXIMUM_TOLERANCE).value;\\n    }\\n\\n    /**\\n     * @notice It gets the current \\\"ResponseExpiryLength\\\" setting's value\\n     * @return value_ the current value.\\n     */\\n    function getResponseExpiryLengthValue()\\n        internal\\n        view\\n        returns (uint256 value_)\\n    {\\n        value_ = s(NAMES.RESPONSE_EXPIRY_LENGTH).value;\\n    }\\n\\n    /**\\n     * @notice It gets the current \\\"SafetyInterval\\\" setting's value\\n     * @return value_ the current value.\\n     */\\n    function getSafetyIntervalValue() internal view returns (uint256 value_) {\\n        value_ = s(NAMES.SAFETY_INTERVAL).value;\\n    }\\n\\n    /**\\n     * @notice It gets the current \\\"TermsExpiryTime\\\" setting's value\\n     * @return value_ the current value.\\n     */\\n    function getTermsExpiryTimeValue() internal view returns (uint256 value_) {\\n        value_ = s(NAMES.TERMS_EXPIRY_TIME).value;\\n    }\\n\\n    /**\\n     * @notice It gets the current \\\"LiquidateRewardPercent\\\" setting's value\\n     * @return value_ the current value.\\n     */\\n    function getLiquidateRewardPercent()\\n        internal\\n        view\\n        returns (uint256 value_)\\n    {\\n        value_ = s(NAMES.LIQUIDATE_REWARD_PERCENT).value;\\n    }\\n\\n    /**\\n     * @notice It gets the current \\\"MaximumLoanDuration\\\" setting's value\\n     * @return value_ the current value.\\n     */\\n    function getMaximumLoanDurationValue()\\n        internal\\n        view\\n        returns (uint256 value_)\\n    {\\n        value_ = s(NAMES.MAXIMUM_LOAN_DURATION).value;\\n    }\\n\\n    /**\\n     * @notice It gets the current \\\"RequestLoanTermsRateLimit\\\" setting's value\\n     * @return value_ the current value.\\n     */\\n    function getRequestLoanTermsRateLimitValue()\\n        internal\\n        view\\n        returns (uint256 value_)\\n    {\\n        value_ = s(NAMES.REQUEST_LOAN_TERMS_RATE_LIMIT).value;\\n    }\\n\\n    /**\\n     * @notice It gets the current \\\"CollateralBuffer\\\" setting's value\\n     * @return value_ the current value.\\n     */\\n    function getCollateralBufferValue() internal view returns (uint256 value_) {\\n        value_ = s(NAMES.COLLATERAL_BUFFER).value;\\n    }\\n\\n    /**\\n     * @notice It gets the current \\\"OverCollateralizedBuffer\\\" setting's value\\n     * @return value_ the current value.\\n     */\\n    function getOverCollateralizedBufferValue()\\n        internal\\n        view\\n        returns (uint256 value_)\\n    {\\n        value_ = s(NAMES.OVER_COLLATERALIZED_BUFFER).value;\\n    }\\n}\\n\",\"keccak256\":\"0xbeef1937dc1ed1f6f78b80f0737f018565ab264184cf05ef54c3c28ecd55a09b\",\"license\":\"MIT\"},\"contracts/settings/platform/names.sol\":{\"content\":\"// SPDX-License-Identifier: MIT\\npragma solidity ^0.8.0;\\n\\n/**\\n        @dev The setting name for the required subsmission settings.\\n        @dev This is the minimum percentage of node responses that will be required by the platform to either take out a loan, and to claim accrued interest. If the number of node responses are less than the ones specified here, the loan or accrued interest claim request will be rejected by the platform\\n     */\\nbytes32 constant REQUIRED_SUBMISSIONS_PERCENTAGE = keccak256(\\n    \\\"RequiredSubmissionsPercentage\\\"\\n);\\n\\n/**\\n        @dev The setting name for the maximum tolerance settings.\\n        @dev This is the maximum tolerance for the values submitted (by nodes) when they are aggregated (average). It is used in the consensus mechanisms.\\n        @dev This is a percentage value with 2 decimal places.\\n            i.e. maximumTolerance of 325 => tolerance of 3.25% => 0.0325 of value\\n            i.e. maximumTolerance of 0 => It means all the values submitted must be equals.\\n        @dev The max value is 100% => 10000\\n     */\\nbytes32 constant MAXIMUM_TOLERANCE = keccak256(\\\"MaximumTolerance\\\");\\n/**\\n        @dev The setting name for the response expiry length settings.\\n        @dev This is the maximum time (in seconds) a node has to submit a response. After that time, the response is considered expired and will not be accepted by the protocol.\\n     */\\n\\nbytes32 constant RESPONSE_EXPIRY_LENGTH = keccak256(\\\"ResponseExpiryLength\\\");\\n\\n/**\\n        @dev The setting name for the safety interval settings.\\n        @dev This is the minimum time you need to wait (in seconds) between the last time you deposit collateral and you take out the loan.\\n        @dev It is used to avoid potential attacks using Flash Loans (AAVE) or Flash Swaps (Uniswap V2).\\n     */\\nbytes32 constant SAFETY_INTERVAL = keccak256(\\\"SafetyInterval\\\");\\n\\n/**\\n        @dev The setting name for the term expiry time settings.\\n        @dev This represents the time (in seconds) that loan terms will be available after requesting them.\\n        @dev After this time, the loan terms will expire and the borrower will need to request it again.\\n     */\\nbytes32 constant TERMS_EXPIRY_TIME = keccak256(\\\"TermsExpiryTime\\\");\\n\\n/**\\n        @dev The setting name for the liquidation reward percent setting.\\n        @dev It represents the percentage value (with 2 decimal places) for the MAX liquidation reward.\\n            i.e. an ETH liquidation price at 5% is stored as 500\\n     */\\nbytes32 constant LIQUIDATE_REWARD_PERCENT = keccak256(\\\"LiquidateRewardPercent\\\");\\n\\n/**\\n        @dev The setting name for the maximum loan duration settings.\\n        @dev The maximum loan duration setting is defined in seconds. Loans will not be given for timespans larger than the one specified here.\\n     */\\nbytes32 constant MAXIMUM_LOAN_DURATION = keccak256(\\\"MaximumLoanDuration\\\");\\n\\n/**\\n        @dev The setting name for the request loan terms rate limit settings.\\n        @dev The request loan terms rate limit setting is defined in seconds.\\n     */\\nbytes32 constant REQUEST_LOAN_TERMS_RATE_LIMIT = keccak256(\\n    \\\"RequestLoanTermsRateLimit\\\"\\n);\\n\\n/**\\n        @dev The setting name for the collateral buffer.\\n        @dev The collateral buffer is a safety buffer above the required collateral amount to liquidate a loan. It is required to ensure the loan does not get liquidated immediately after the loan is taken out if the value of the collateral asset deposited drops drastically.\\n        @dev It represents the percentage value (with 2 decimal places) of a collateral buffer.\\n            e.g.: collateral buffer at 100% is stored as 10000.\\n     */\\nbytes32 constant COLLATERAL_BUFFER = keccak256(\\\"CollateralBuffer\\\");\\n\\n/**\\n        @dev The setting name for the over collateralized buffer.\\n        @dev The over collateralized buffer is the minimum required collateral ratio in order for a loan to be taken out without an Escrow contract and for the funds to go to the borrower's EOA (external overridely owned account).\\n        @dev It represents the percentage value (with 2 decimal places) of a over collateralized buffer.\\n            e.g.: over collateralized buffer at 130% is stored as 13000.\\n     */\\nbytes32 constant OVER_COLLATERALIZED_BUFFER = keccak256(\\n    \\\"OverCollateralizedBuffer\\\"\\n);\\n\",\"keccak256\":\"0xacf6bcb8c4afd2f337a0161e8be64b016c1b350d336cd862245dd922fcd10f33\",\"license\":\"MIT\"},\"contracts/shared/interfaces/ICErc20.sol\":{\"content\":\"// SPDX-License-Identifier: MIT\\npragma solidity ^0.8.0;\\n\\nimport \\\"./IComptroller.sol\\\";\\n\\ninterface ICErc20 {\\n    /*** User Interface ***/\\n\\n    /**\\n        @notice The mint function transfers an asset into the protocol, which begins accumulating interest based on the current Supply Rate for the asset. The user receives a quantity of cTokens equal to the underlying tokens supplied, divided by the current Exchange Rate.\\n        @param mintAmount The amount of the asset to be supplied, in units of the underlying asset.\\n        @return 0 on success, otherwise an Error code\\n        @dev msg.sender The account which shall supply the asset, and own the minted cTokens.\\n        @dev Before supplying an asset, users must first approve the cToken to access their token balance.\\n     */\\n    function mint(uint256 mintAmount) external returns (uint256);\\n\\n    /**\\n        @notice The redeem function converts a specified quantity of cTokens into the underlying asset, and returns them to the user. The amount of underlying tokens received is equal to the quantity of cTokens redeemed, multiplied by the current Exchange Rate. The amount redeemed must be less than the user's Account Liquidity and the market's available liquidity.\\n        @param redeemTokens The number of cTokens to be redeemed.\\n        @return 0 on success, otherwise an Error code\\n        @dev msg.sender The account to which redeemed funds shall be transferred.\\n     */\\n    function redeem(uint256 redeemTokens) external returns (uint256);\\n\\n    /**\\n        @notice The redeem underlying function converts cTokens into a specified quantity of the underlying asset, and returns them to the user. The amount of cTokens redeemed is equal to the quantity of underlying tokens received, divided by the current Exchange Rate. The amount redeemed must be less than the user's Account Liquidity and the market's available liquidity.\\n        @param redeemAmount The amount of underlying to be redeemed.\\n        @return 0 on success, otherwise an Error code\\n        @dev msg.sender The account to which redeemed funds shall be transferred.\\n     */\\n    function redeemUnderlying(uint256 redeemAmount) external returns (uint256);\\n\\n    /**\\n        @notice The borrow function transfers an asset from the protocol to the user, and creates a borrow balance which begins accumulating interest based on the Borrow Rate for the asset. The amount borrowed must be less than the user's Account Liquidity and the market's available liquidity.\\n        @param borrowAmount The amount of the underlying asset to be borrowed.\\n        @return 0 on success, otherwise an Error code\\n        @dev msg.sender The account to which borrowed funds shall be transferred.\\n     */\\n    function borrow(uint256 borrowAmount) external returns (uint256);\\n\\n    /**\\n        @notice The repay function transfers an asset into the protocol, reducing the user's borrow balance.\\n        @param repayAmount The amount of the underlying borrowed asset to be repaid. A value of -1 (i.e. 2^256 - 1) can be used to repay the full amount.\\n        @return 0 on success, otherwise an Error code\\n        @dev msg.sender The account which borrowed the asset, and shall repay the borrow.\\n        @dev Before repaying an asset, users must first approve the cToken to access their token balance.\\n     */\\n    function repayBorrow(uint256 repayAmount) external returns (uint256);\\n\\n    /**\\n        @notice The repay function transfers an asset into the protocol, reducing the target user's borrow balance.\\n        @param borrower The account which borrowed the asset to be repaid.\\n        @param repayAmount The amount of the underlying borrowed asset to be repaid. A value of -1 (i.e. 2^256 - 1) can be used to repay the full amount.\\n        @return 0 on success, otherwise an Error code\\n        @dev msg.sender The account which shall repay the borrow.\\n        @dev Before repaying an asset, users must first approve the cToken to access their token balance.\\n     */\\n    function repayBorrowBehalf(address borrower, uint256 repayAmount)\\n        external\\n        returns (uint256);\\n\\n    /*** Admin Functions ***/\\n\\n    function _addReserves(uint256 addAmount) external returns (uint256);\\n\\n    /** End Admin Functions */\\n\\n    function underlying() external view returns (address);\\n\\n    /**\\n        @notice Each cToken is convertible into an ever increasing quantity of the underlying asset, as interest accrues in the market. The exchange rate between a cToken and the underlying asset is\\n        equal to: exchangeRate = (getCash() + totalBorrows() - totalReserves()) / totalSupply()\\n        @return The current exchange rate as an unsigned integer, scaled by 1e18.\\n     */\\n    function exchangeRateCurrent() external returns (uint256);\\n\\n    function exchangeRateStored() external view returns (uint256);\\n\\n    /**\\n     * @notice Applies accrued interest to total borrows and reserves\\n     * @dev This calculates interest accrued from the last checkpointed block\\n     *   up to the current block and writes new checkpoint to storage.\\n     */\\n    function accrueInterest() external;\\n\\n    function decimals() external view returns (uint8);\\n\\n    function balanceOf(address account) external view returns (uint256);\\n\\n    /**\\n        @notice The user's underlying balance, representing their assets in the protocol, is equal to the user's cToken balance multiplied by the Exchange Rate.\\n        @param account The account to get the underlying balance of.\\n        @return The amount of underlying currently owned by the account.\\n     */\\n    function balanceOfUnderlying(address account) external returns (uint256);\\n\\n    function comptroller() external view returns (IComptroller);\\n}\\n\",\"keccak256\":\"0xe64ba9069b31f8149d63171b24b9fdef3a587b0461c3d4c8ac5976519bcde332\",\"license\":\"MIT\"},\"contracts/shared/interfaces/IComptroller.sol\":{\"content\":\"// SPDX-License-Identifier: MIT\\npragma solidity ^0.8.0;\\n\\ninterface IComptroller {\\n    /*** Assets You Are In ***/\\n\\n    function enterMarkets(address[] calldata cTokens)\\n        external\\n        returns (uint256[] memory);\\n\\n    function exitMarket(address cToken) external returns (uint256);\\n\\n    /*** Policy Hooks ***/\\n\\n    /**\\n     * @notice Checks if the account should be allowed to mint tokens in the given market\\n     * @param cToken The market to verify the mint against\\n     * @param minter The account which would get the minted tokens\\n     * @param mintAmount The amount of underlying being supplied to the market in exchange for tokens\\n     * @return 0 if the mint is allowed, otherwise a semi-opaque error code (See ErrorReporter.sol)\\n     */\\n    function mintAllowed(\\n        address cToken,\\n        address minter,\\n        uint256 mintAmount\\n    ) external returns (uint256);\\n\\n    /**\\n     * @notice Validates mint and reverts on rejection. May emit logs.\\n     * @param cToken Asset being minted\\n     * @param minter The address minting the tokens\\n     * @param mintAmount The amount of the underlying asset being minted\\n     * @param mintTokens The number of tokens being minted\\n     */\\n    function mintVerify(\\n        address cToken,\\n        address minter,\\n        uint256 mintAmount,\\n        uint256 mintTokens\\n    ) external;\\n\\n    /**\\n     * @notice Checks if the account should be allowed to redeem tokens in the given market\\n     * @param cToken The market to verify the redeem against\\n     * @param redeemer The account which would redeem the tokens\\n     * @param redeemTokens The number of cTokens to exchange for the underlying asset in the market\\n     * @return 0 if the redeem is allowed, otherwise a semi-opaque error code (See ErrorReporter.sol)\\n     */\\n    function redeemAllowed(\\n        address cToken,\\n        address redeemer,\\n        uint256 redeemTokens\\n    ) external returns (uint256);\\n\\n    /**\\n     * @notice Validates redeem and reverts on rejection. May emit logs.\\n     * @param cToken Asset being redeemed\\n     * @param redeemer The address redeeming the tokens\\n     * @param redeemAmount The amount of the underlying asset being redeemed\\n     * @param redeemTokens The number of tokens being redeemed\\n     */\\n    function redeemVerify(\\n        address cToken,\\n        address redeemer,\\n        uint256 redeemAmount,\\n        uint256 redeemTokens\\n    ) external;\\n\\n    /**\\n     * @notice Checks if the account should be allowed to borrow the underlying asset of the given market\\n     * @param cToken The market to verify the borrow against\\n     * @param borrower The account which would borrow the asset\\n     * @param borrowAmount The amount of underlying the account would borrow\\n     * @return 0 if the borrow is allowed, otherwise a semi-opaque error code (See ErrorReporter.sol)\\n     */\\n    function borrowAllowed(\\n        address cToken,\\n        address borrower,\\n        uint256 borrowAmount\\n    ) external returns (uint256);\\n\\n    /**\\n     * @notice Validates borrow and reverts on rejection. May emit logs.\\n     * @param cToken Asset whose underlying is being borrowed\\n     * @param borrower The address borrowing the underlying\\n     * @param borrowAmount The amount of the underlying asset requested to borrow\\n     */\\n    function borrowVerify(\\n        address cToken,\\n        address borrower,\\n        uint256 borrowAmount\\n    ) external;\\n\\n    /**\\n     * @notice Checks if the account should be allowed to repay a borrow in the given market\\n     * @param cToken The market to verify the repay against\\n     * @param payer The account which would repay the asset\\n     * @param borrower The account which would borrowed the asset\\n     * @param repayAmount The amount of the underlying asset the account would repay\\n     * @return 0 if the repay is allowed, otherwise a semi-opaque error code (See ErrorReporter.sol)\\n     */\\n    function repayBorrowAllowed(\\n        address cToken,\\n        address payer,\\n        address borrower,\\n        uint256 repayAmount\\n    ) external returns (uint256);\\n\\n    /**\\n     * @notice Validates repayBorrow and reverts on rejection. May emit logs.\\n     * @param cToken Asset being repaid\\n     * @param payer The address repaying the borrow\\n     * @param borrower The address of the borrower\\n     * @param repayAmount The amount of underlying being repaid\\n     * @param borrowerIndex the index of the borrower\\n     */\\n    function repayBorrowVerify(\\n        address cToken,\\n        address payer,\\n        address borrower,\\n        uint256 repayAmount,\\n        uint256 borrowerIndex\\n    ) external;\\n\\n    /**\\n     * @notice Checks if the liquidation should be allowed to occur\\n     * @param cTokenBorrowed Asset which was borrowed by the borrower\\n     * @param cTokenCollateral Asset which was used as collateral and will be seized\\n     * @param liquidator The address repaying the borrow and seizing the collateral\\n     * @param borrower The address of the borrower\\n     * @param repayAmount The amount of underlying being repaid\\n     */\\n    function liquidateBorrowAllowed(\\n        address cTokenBorrowed,\\n        address cTokenCollateral,\\n        address liquidator,\\n        address borrower,\\n        uint256 repayAmount\\n    ) external returns (uint256);\\n\\n    /**\\n     * @notice Validates liquidateBorrow and reverts on rejection. May emit logs.\\n     * @param cTokenBorrowed Asset which was borrowed by the borrower\\n     * @param cTokenCollateral Asset which was used as collateral and will be seized\\n     * @param liquidator The address repaying the borrow and seizing the collateral\\n     * @param borrower The address of the borrower\\n     * @param repayAmount The amount of underlying being repaid\\n     * @param seizeTokens The number of collateral tokens to seize\\n     */\\n    function liquidateBorrowVerify(\\n        address cTokenBorrowed,\\n        address cTokenCollateral,\\n        address liquidator,\\n        address borrower,\\n        uint256 repayAmount,\\n        uint256 seizeTokens\\n    ) external;\\n\\n    /**\\n     * @notice Checks if the seizing of assets should be allowed to occur\\n     * @param cTokenCollateral Asset which was used as collateral and will be seized\\n     * @param cTokenBorrowed Asset which was borrowed by the borrower\\n     * @param liquidator The address repaying the borrow and seizing the collateral\\n     * @param borrower The address of the borrower\\n     * @param seizeTokens The number of collateral tokens to seize\\n     */\\n    function seizeAllowed(\\n        address cTokenCollateral,\\n        address cTokenBorrowed,\\n        address liquidator,\\n        address borrower,\\n        uint256 seizeTokens\\n    ) external returns (uint256);\\n\\n    /**\\n     * @notice Validates seize and reverts on rejection. May emit logs.\\n     * @param cTokenCollateral Asset which was used as collateral and will be seized\\n     * @param cTokenBorrowed Asset which was borrowed by the borrower\\n     * @param liquidator The address repaying the borrow and seizing the collateral\\n     * @param borrower The address of the borrower\\n     * @param seizeTokens The number of collateral tokens to seize\\n     */\\n    function seizeVerify(\\n        address cTokenCollateral,\\n        address cTokenBorrowed,\\n        address liquidator,\\n        address borrower,\\n        uint256 seizeTokens\\n    ) external;\\n\\n    /**\\n     * @notice Checks if the account should be allowed to transfer tokens in the given market\\n     * @param cToken The market to verify the transfer against\\n     * @param src The account which sources the tokens\\n     * @param dst The account which receives the tokens\\n     * @param transferTokens The number of cTokens to transfer\\n     * @return 0 if the transfer is allowed, otherwise a semi-opaque error code (See ErrorReporter.sol)\\n     */\\n    function transferAllowed(\\n        address cToken,\\n        address src,\\n        address dst,\\n        uint256 transferTokens\\n    ) external returns (uint256);\\n\\n    /**\\n     * @notice Validates transfer and reverts on rejection. May emit logs.\\n     * @param cToken Asset being transferred\\n     * @param src The account which sources the tokens\\n     * @param dst The account which receives the tokens\\n     * @param transferTokens The number of cTokens to transfer\\n     */\\n    function transferVerify(\\n        address cToken,\\n        address src,\\n        address dst,\\n        uint256 transferTokens\\n    ) external;\\n\\n    /**\\n     * @notice Claim all the comp accrued by holder in all markets\\n     * @param holder The address to claim COMP for\\n     */\\n    function claimComp(address holder) external;\\n\\n    /**\\n     * @notice Claim all the comp accrued by holder in the specified markets\\n     * @param holder The address to claim COMP for\\n     * @param cTokens The list of markets to claim COMP in\\n     */\\n    function claimComp(address holder, address[] calldata cTokens) external;\\n\\n    /**\\n     * @notice Claim all comp accrued by the holders\\n     * @param holders The addresses to claim COMP for\\n     * @param cTokens The list of markets to claim COMP in\\n     * @param borrowers Whether or not to claim COMP earned by borrowing\\n     * @param suppliers Whether or not to claim COMP earned by supplying\\n     */\\n    function claimComp(\\n        address[] calldata holders,\\n        address[] calldata cTokens,\\n        bool borrowers,\\n        bool suppliers\\n    ) external;\\n\\n    /*** Liquidity/Liquidation Calculations ***/\\n    /**\\n     * @notice Calculate number of tokens of collateral asset to seize given an underlying amount\\n     * @dev Used in liquidation (called in cToken.liquidateBorrowFresh)\\n     * @param cTokenBorrowed The address of the borrowed cToken\\n     * @param cTokenCollateral The address of the collateral cToken\\n     * @param repayAmount The amount of cTokenBorrowed underlying to convert into cTokenCollateral tokens\\n     * @return (errorCode, number of cTokenCollateral tokens to be seized in a liquidation)\\n     */\\n    function liquidateCalculateSeizeTokens(\\n        address cTokenBorrowed,\\n        address cTokenCollateral,\\n        uint256 repayAmount\\n    ) external view returns (uint256, uint256);\\n\\n    /**\\n     * @notice Return the address of the COMP token\\n     * @return The address of COMP\\n     */\\n    function getCompAddress() external view returns (address);\\n}\\n\",\"keccak256\":\"0x38a824a4a21ce9370fa581a616d1bb9d311f27d8982a6b96ebeba90bd5fd0adb\",\"license\":\"MIT\"},\"contracts/shared/interfaces/IUniswapV2Router.sol\":{\"content\":\"// SPDX-License-Identifier: MIT\\npragma solidity ^0.8.0;\\n\\n/**\\n    @notice This interface defines the different functions available for a UniswapV2Router.\\n    @author develop@teller.finance\\n */\\ninterface IUniswapV2Router {\\n    function factory() external pure returns (address);\\n    \\n    function addLiquidity(\\n        address tokenA,\\n        address tokenB,\\n        uint256 amountADesired,\\n        uint256 amountBDesired,\\n        uint256 amountAMin,\\n        uint256 amountBMin,\\n        address to,\\n        uint256 deadline\\n    )\\n        external\\n        returns (\\n            uint256 amountA,\\n            uint256 amountB,\\n            uint256 liquidity\\n        );\\n\\n    function addLiquidityETH(\\n        address token,\\n        uint256 amountTokenDesired,\\n        uint256 amountTokenMin,\\n        uint256 amountETHMin,\\n        address to,\\n        uint256 deadline\\n    )\\n        external\\n        payable\\n        returns (\\n            uint256 amountToken,\\n            uint256 amountETH,\\n            uint256 liquidity\\n        );\\n\\n    function removeLiquidity(\\n        address tokenA,\\n        address tokenB,\\n        uint256 liquidity,\\n        uint256 amountAMin,\\n        uint256 amountBMin,\\n        address to,\\n        uint256 deadline\\n    ) external returns (uint256 amountA, uint256 amountB);\\n\\n    function removeLiquidityETH(\\n        address token,\\n        uint256 liquidity,\\n        uint256 amountTokenMin,\\n        uint256 amountETHMin,\\n        address to,\\n        uint256 deadline\\n    ) external returns (uint256 amountToken, uint256 amountETH);\\n\\n    function removeLiquidityWithPermit(\\n        address tokenA,\\n        address tokenB,\\n        uint256 liquidity,\\n        uint256 amountAMin,\\n        uint256 amountBMin,\\n        address to,\\n        uint256 deadline,\\n        bool approveMax,\\n        uint8 v,\\n        bytes32 r,\\n        bytes32 s\\n    ) external returns (uint256 amountA, uint256 amountB);\\n\\n    function removeLiquidityETHWithPermit(\\n        address token,\\n        uint256 liquidity,\\n        uint256 amountTokenMin,\\n        uint256 amountETHMin,\\n        address to,\\n        uint256 deadline,\\n        bool approveMax,\\n        uint8 v,\\n        bytes32 r,\\n        bytes32 s\\n    ) external returns (uint256 amountToken, uint256 amountETH);\\n\\n    function quote(\\n        uint256 amountA,\\n        uint256 reserveA,\\n        uint256 reserveB\\n    ) external pure returns (uint256 amountB);\\n\\n    function getAmountOut(\\n        uint256 amountIn,\\n        uint256 reserveIn,\\n        uint256 reserveOut\\n    ) external pure returns (uint256 amountOut);\\n\\n    function getAmountIn(\\n        uint256 amountOut,\\n        uint256 reserveIn,\\n        uint256 reserveOut\\n    ) external pure returns (uint256 amountIn);\\n\\n    function getAmountsOut(uint256 amountIn, address[] calldata path)\\n        external\\n        view\\n        returns (uint256[] memory amounts);\\n\\n    function getAmountsIn(uint256 amountOut, address[] calldata path)\\n        external\\n        view\\n        returns (uint256[] memory amounts);\\n\\n    /**\\n        @notice It returns the address of the canonical WETH address;\\n    */\\n    function WETH() external pure returns (address);\\n\\n    /**\\n        @notice Swaps an exact amount of input tokens for as many output tokens as possible, along the route determined by the path. The first element of path is the input token, the last is the output token, and any intermediate elements represent intermediate pairs to trade through (if, for example, a direct pair does not exist).\\n        @param amountIn The amount of input tokens to send.\\n        @param amountOutMin The minimum amount of output tokens that must be received for the transaction not to revert.\\n        @param path An array of token addresses. path.length must be >= 2. Pools for each consecutive pair of addresses must exist and have liquidity.\\n        @param to Recipient of the output tokens.\\n        @param deadline Unix timestamp after which the transaction will revert.\\n        @return amounts The input token amount and all subsequent output token amounts.\\n        @dev msg.sender should have already given the router an allowance of at least amountIn on the input token.\\n     */\\n    function swapExactTokensForTokens(\\n        uint256 amountIn,\\n        uint256 amountOutMin,\\n        address[] calldata path,\\n        address to,\\n        uint256 deadline\\n    ) external returns (uint256[] memory amounts);\\n\\n    /**\\n        @notice Swaps an exact amount of tokens for as much ETH as possible, along the route determined by the path. The first element of path is the input token, the last must be WETH, and any intermediate elements represent intermediate pairs to trade through (if, for example, a direct pair does not exist).\\n        @param amountIn The amount of input tokens to send.\\n        @param amountOutMin The minimum amount of output tokens that must be received for the transaction not to revert.\\n        @param path An array of token addresses. path.length must be >= 2. Pools for each consecutive pair of addresses must exist and have liquidity.\\n        @param to Recipient of the ETH.\\n        @param deadline Unix timestamp after which the transaction will revert.\\n        @return amounts The input token amount and all subsequent output token amounts.\\n        @dev If the to address is a smart contract, it must have the ability to receive ETH.\\n     */\\n    function swapExactTokensForETH(\\n        uint256 amountIn,\\n        uint256 amountOutMin,\\n        address[] calldata path,\\n        address to,\\n        uint256 deadline\\n    ) external returns (uint256[] memory amounts);\\n\\n    /**\\n        @notice Swaps an exact amount of ETH for as many output tokens as possible, along the route determined by the path. The first element of path must be WETH, the last is the output token, and any intermediate elements represent intermediate pairs to trade through (if, for example, a direct pair does not exist).\\n        @param amountOutMin The minimum amount of output tokens that must be received for the transaction not to revert.\\n        @param path An array of token addresses. path.length must be >= 2. Pools for each consecutive pair of addresses must exist and have liquidity.\\n        @param to Recipient of the output tokens.\\n        @param deadline Unix timestamp after which the transaction will revert.\\n        @return amounts The input token amount and all subsequent output token amounts.\\n     */\\n    function swapExactETHForTokens(\\n        uint256 amountOutMin,\\n        address[] calldata path,\\n        address to,\\n        uint256 deadline\\n    ) external payable returns (uint256[] memory amounts);\\n\\n    function swapTokensForExactTokens(\\n        uint256 amountOut,\\n        uint256 amountInMax,\\n        address[] calldata path,\\n        address to,\\n        uint256 deadline\\n    ) external returns (uint256[] memory amounts);\\n\\n    function swapTokensForExactETH(\\n        uint256 amountOut,\\n        uint256 amountInMax,\\n        address[] calldata path,\\n        address to,\\n        uint256 deadline\\n    ) external returns (uint256[] memory amounts);\\n\\n    function swapETHForExactTokens(\\n        uint256 amountOut,\\n        address[] calldata path,\\n        address to,\\n        uint256 deadline\\n    ) external payable returns (uint256[] memory amounts);\\n}\\n\",\"keccak256\":\"0x37849041e4bee2dfa825677f69078521fcc94804aa5120f67dd12cc4133efcec\",\"license\":\"MIT\"},\"contracts/shared/libraries/CacheLib.sol\":{\"content\":\"// SPDX-License-Identifier: MIT\\npragma solidity ^0.8.0;\\n\\nenum CacheType { Address, Uint, Int, Byte, Bool }\\n\\n/**\\n * @notice This struct manages the cache of the library instance.\\n * @param addresses A mapping of address values mapped to cache keys in bytes.\\n * @param uints A mapping of uint values mapped to cache keys names in bytes.\\n * @param ints A mapping of int values mapped to cache keys names in bytes.\\n * @param bites A mapping of bytes values mapped to cache keys names in bytes.\\n * @param bools A mapping of bool values mapped to cache keys names in bytes.\\n */\\nstruct Cache {\\n    // Mapping of cache keys names to address values.\\n    mapping(bytes32 => address) addresses;\\n    // Mapping of cache keys names to uint256 values.\\n    mapping(bytes32 => uint256) uints;\\n    // Mapping of cache keys names to int256 values.\\n    mapping(bytes32 => int256) ints;\\n    // Mapping of cache keys names to bytes32 values.\\n    mapping(bytes32 => bytes32) bites;\\n    // Mapping of cache keys names to bool values.\\n    mapping(bytes32 => bool) bools;\\n}\\n\\nlibrary CacheLib {\\n    // The constant for the initialization check\\n    bytes32 private constant INITIALIZED = keccak256(\\\"Initialized\\\");\\n\\n    /**\\n     * @notice Initializes the cache instance.\\n     * @param cache The current cache\\n     */\\n    function initialize(Cache storage cache) internal {\\n        requireNotExists(cache);\\n        cache.bools[INITIALIZED] = true;\\n    }\\n\\n    /**\\n     * @notice Checks whether the current cache does not, throwing an error if it does.\\n     * @param cache The current cache\\n     */\\n    function requireNotExists(Cache storage cache) internal view {\\n        require(!exists(cache), \\\"CACHE_ALREADY_EXISTS\\\");\\n    }\\n\\n    /**\\n     * @notice Checks whether the current cache exists, throwing an error if the cache does not.\\n     * @param cache The current cache\\n     */\\n    function requireExists(Cache storage cache) internal view {\\n        require(exists(cache), \\\"CACHE_DOES_NOT_EXIST\\\");\\n    }\\n\\n    /**\\n     * @notice Tests whether the current cache exists or not.\\n     * @param cache The current cache.\\n     * @return bool True if the cache exists.\\n     */\\n    function exists(Cache storage cache) internal view returns (bool) {\\n        return cache.bools[INITIALIZED];\\n    }\\n\\n    /**\\n     * @notice it updates the cache with a key, value and cache type\\n     * @param cache cache to update\\n     * @param key the memory reference to the value in bytes32\\n     * @param value the value to update at the key\\n     * @param cacheType the enum type of cache to update\\n     */\\n    function update(\\n        Cache storage cache,\\n        bytes32 key,\\n        bytes32 value,\\n        CacheType cacheType\\n    ) internal {\\n        requireExists(cache);\\n\\n        assembly {\\n            mstore(0, value)\\n        }\\n        if (cacheType == CacheType.Address) {\\n            address addr;\\n            assembly {\\n                addr := mload(0)\\n            }\\n            cache.addresses[key] = addr;\\n        } else if (cacheType == CacheType.Uint) {\\n            uint256 ui;\\n            assembly {\\n                ui := mload(0)\\n            }\\n            cache.uints[key] = ui;\\n        } else if (cacheType == CacheType.Int) {\\n            int256 i;\\n            assembly {\\n                i := mload(0)\\n            }\\n            cache.ints[key] = i;\\n        } else if (cacheType == CacheType.Byte) {\\n            cache.bites[key] = value;\\n        } else if (cacheType == CacheType.Bool) {\\n            bool b;\\n            assembly {\\n                b := mload(0)\\n            }\\n            cache.bools[key] = b;\\n        }\\n    }\\n\\n    /**\\n     * @notice it deletes the cache values at the specified key\\n     * @param cache the cache to delete keys from\\n     * @param keysToClear the keys to delete\\n     * @param keyTypes the types of keys to target different parts of the cache\\n     */\\n    function clearCache(\\n        Cache storage cache,\\n        bytes32[5] memory keysToClear,\\n        CacheType[5] memory keyTypes\\n    ) internal {\\n        requireExists(cache);\\n        require(\\n            keysToClear.length == keyTypes.length,\\n            \\\"ARRAY_LENGTHS_MISMATCH\\\"\\n        );\\n        for (uint256 i; i <= keysToClear.length; i++) {\\n            if (keyTypes[i] == CacheType.Address) {\\n                delete cache.addresses[keysToClear[i]];\\n            } else if (keyTypes[i] == CacheType.Uint) {\\n                delete cache.uints[keysToClear[i]];\\n            } else if (keyTypes[i] == CacheType.Int) {\\n                delete cache.ints[keysToClear[i]];\\n            } else if (keyTypes[i] == CacheType.Byte) {\\n                delete cache.bites[keysToClear[i]];\\n            } else if (keyTypes[i] == CacheType.Bool) {\\n                delete cache.bools[keysToClear[i]];\\n            }\\n        }\\n    }\\n}\\n\",\"keccak256\":\"0xb896b539792b98bda4fb9f25b44550c74fa663914683d69824d7415436f2601f\",\"license\":\"MIT\"},\"contracts/shared/libraries/CompoundLib.sol\":{\"content\":\"// SPDX-License-Identifier: MIT\\npragma solidity ^0.8.0;\\n\\n// Interfaces\\nimport { ICErc20 } from \\\"../interfaces/ICErc20.sol\\\";\\n\\n// Storage\\nimport { AppStorageLib } from \\\"../../storage/app.sol\\\";\\n\\n/**\\n * @notice Utility library to calculate the value of a Compound cToken and its underlying asset.\\n *\\n * @author develop@teller.finance\\n */\\nlibrary CompoundLib {\\n    /**\\n     * @dev Compounds exchange rate is scaled by 18 decimals (10^18)\\n     */\\n    uint256 internal constant EXCHANGE_RATE_SCALE = 1e18;\\n\\n    function exchangeRate(address cToken) internal view returns (uint256) {\\n        return ICErc20(cToken).exchangeRateStored();\\n    }\\n\\n    /**\\n     * @notice Takes an amount of the Compound asset and calculates the underlying amount using the stored exchange rate.\\n     * @param cToken Address of the Compound token.\\n     * @param cTokenAmount Amount of the Compound asset.\\n     * @return value of the Compound token amount in underlying tokens.\\n     */\\n    function valueInUnderlying(address cToken, uint256 cTokenAmount)\\n        internal\\n        view\\n        returns (uint256)\\n    {\\n        return\\n            (cTokenAmount * ICErc20(cToken).exchangeRateStored()) /\\n            EXCHANGE_RATE_SCALE;\\n    }\\n\\n    /**\\n     * @notice Takes an amount of the underlying Compound asset and calculates the cToken amount using the stored exchange rate.\\n     * @param cToken Address of the Compound token.\\n     * @param underlyingAmount Amount of the underlying asset for the Compound token.\\n     * @return value of the underlying amount in Compound tokens.\\n     */\\n    function valueOfUnderlying(address cToken, uint256 underlyingAmount)\\n        internal\\n        view\\n        returns (uint256)\\n    {\\n        return\\n            (underlyingAmount * EXCHANGE_RATE_SCALE) /\\n            ICErc20(cToken).exchangeRateStored();\\n    }\\n\\n    function isCompoundToken(address token) internal view returns (bool) {\\n        return AppStorageLib.store().cTokenRegistry[token];\\n    }\\n\\n    /**\\n     * @notice Tests the {underlying} function on the cToken and assumes its WETH otherwise.\\n     * @dev CETH is the only Compound token that does not support the {underlying} function.\\n     * @param cToken address of the compound token\\n     * @return address of the underlying cToken\\n     */\\n    function getUnderlying(address cToken) internal view returns (address) {\\n        (bool success, bytes memory data) =\\n            cToken.staticcall(abi.encode(ICErc20.underlying.selector));\\n        if (success) {\\n            return abi.decode(data, (address));\\n        }\\n\\n        return AppStorageLib.store().assetAddresses[\\\"WETH\\\"];\\n    }\\n}\\n\",\"keccak256\":\"0x99206384c27b0e68b1ec7b82260f6a47965f611875c018bc076ff8a688a6c6d7\",\"license\":\"MIT\"},\"contracts/shared/libraries/NumbersLib.sol\":{\"content\":\"// SPDX-License-Identifier: MIT\\npragma solidity ^0.8.0;\\n\\n/**\\n * @dev Utility library for uint256 numbers\\n *\\n * @author develop@teller.finance\\n */\\nlibrary NumbersLib {\\n    /**\\n     * @dev It represents 100% with 2 decimal places.\\n     */\\n    uint256 internal constant ONE_HUNDRED_PERCENT = 10000;\\n\\n    /**\\n     * @notice Returns a percentage value of a number.\\n     * @param self The number to get a percentage of.\\n     * @param percentage The percentage value to calculate with 2 decimal places (10000 = 100%).\\n     */\\n    function percent(uint256 self, uint16 percentage)\\n        internal\\n        pure\\n        returns (uint256)\\n    {\\n        return (self * uint256(percentage)) / ONE_HUNDRED_PERCENT;\\n    }\\n\\n    function percent(int256 self, uint256 percentage)\\n        internal\\n        pure\\n        returns (int256)\\n    {\\n        return (self * int256(percentage)) / int256(ONE_HUNDRED_PERCENT);\\n    }\\n\\n    /**\\n     * @notice it returns the absolute number of a specified parameter\\n     * @param self the number to be returned in it's absolute \\n     * @return the absolute number\\n     */\\n    function abs(int256 self) internal pure returns (uint256) {\\n        return self >= 0 ? uint256(self) : uint256(-1 * self);\\n    }\\n\\n    /**\\n     * @notice Returns a ratio percentage of {num1} to {num2}.\\n     * @param num1 The number used to get the ratio for.\\n     * @param num2 The number used to get the ratio from.\\n     * @return Ratio percentage with 2 decimal places (10000 = 100%).\\n     */\\n    function ratioOf(uint256 num1, uint256 num2)\\n        internal\\n        pure\\n        returns (uint16)\\n    {\\n        return num2 == 0 ? 0 : uint16((num1 * ONE_HUNDRED_PERCENT) / num2);\\n    }\\n}\\n\",\"keccak256\":\"0xa852b8866a3d6d928c6575bf2bcf2ae784eed73717c78c0cadbdedf8b0ba3274\",\"license\":\"MIT\"},\"contracts/shared/libraries/NumbersList.sol\":{\"content\":\"// SPDX-License-Identifier: MIT\\npragma solidity ^0.8.0;\\n\\nimport \\\"@openzeppelin/contracts/utils/math/SafeMath.sol\\\";\\nimport \\\"./NumbersLib.sol\\\";\\n\\n/**\\n * @dev Utility library of inline functions on NumbersList.Values\\n *\\n * @author develop@teller.finance\\n */\\nlibrary NumbersList {\\n    using NumbersLib for uint256;\\n\\n    // Holds values to calculate the threshold of a list of numbers\\n    struct Values {\\n        uint256 count; // The total number of numbers added\\n        uint256 max; // The maximum number that was added\\n        uint256 min; // The minimum number that was added\\n        uint256 sum; // The total sum of the numbers that were added\\n    }\\n\\n    /**\\n     * @dev Add to the sum while keeping track of min and max values\\n     * @param self The Value this function was called on\\n     * @param newValue Number to increment sum by\\n     */\\n    function addValue(Values memory self, uint256 newValue) internal pure {\\n        if (self.max < newValue) {\\n            self.max = newValue;\\n        }\\n        if (self.min > newValue || self.count == 0) {\\n            self.min = newValue;\\n        }\\n        self.sum = self.sum + (newValue);\\n        self.count = self.count + 1;\\n    }\\n\\n    /**\\n     * @param self The Value this function was called on\\n     * @return the number of times the sum has updated\\n     */\\n    function valuesCount(Values memory self) internal pure returns (uint256) {\\n        return self.count;\\n    }\\n\\n    /**\\n     * @dev Checks if the sum has been changed\\n     * @param self The Value this function was called on\\n     * @return boolean\\n     */\\n    function isEmpty(Values memory self) internal pure returns (bool) {\\n        return valuesCount(self) == 0;\\n    }\\n\\n    /**\\n     * @param self The Value this function was called on\\n     * @return the average number that was used to calculate the sum\\n     */\\n    function getAverage(Values memory self) internal pure returns (uint256) {\\n        return isEmpty(self) ? 0 : self.sum / (valuesCount(self));\\n    }\\n\\n    /**\\n     * @dev Checks if the min and max numbers are within the acceptable tolerance\\n     * @param self The Value this function was called on\\n     * @param tolerancePercentage Acceptable tolerance percentage as a whole number\\n     * The percentage should be entered with 2 decimal places. e.g. 2.5% should be entered as 250.\\n     * @return boolean\\n     */\\n    function isWithinTolerance(Values memory self, uint16 tolerancePercentage)\\n        internal\\n        pure\\n        returns (bool)\\n    {\\n        if (isEmpty(self)) {\\n            return false;\\n        }\\n        uint256 average = getAverage(self);\\n        uint256 toleranceAmount = average.percent(tolerancePercentage);\\n\\n        uint256 minTolerance = average - toleranceAmount;\\n        if (self.min < minTolerance) {\\n            return false;\\n        }\\n\\n        uint256 maxTolerance = average + toleranceAmount;\\n        if (self.max > maxTolerance) {\\n            return false;\\n        }\\n        return true;\\n    }\\n}\\n\",\"keccak256\":\"0xfd64d3765eb776aaebf1c6eeb8af33ad4a9bd89bad676300542086c1fefd44da\",\"license\":\"MIT\"},\"contracts/shared/proxy/beacon/InitializeableBeaconProxy.sol\":{\"content\":\"// SPDX-License-Identifier: MIT\\npragma solidity ^0.8.0;\\n\\nimport \\\"@openzeppelin/contracts/proxy/beacon/IBeacon.sol\\\";\\nimport \\\"@openzeppelin/contracts/proxy/Proxy.sol\\\";\\nimport \\\"@openzeppelin/contracts/utils/Address.sol\\\";\\n\\n/**\\n * @dev This contract implements a proxy that gets the implementation address for each call from a {UpgradeableBeacon}.\\n *\\n * The beacon address is stored in storage slot `uint256(keccak256('eip1967.proxy.beacon')) - 1`, so that it doesn't\\n * conflict with the storage layout of the implementation behind the proxy.\\n *\\n * _Available since v3.4._\\n */\\ncontract InitializeableBeaconProxy is Proxy {\\n    /**\\n     * @dev The storage slot of the UpgradeableBeacon contract which defines the implementation for this proxy.\\n     * This is bytes32(uint256(keccak256('eip1967.proxy.beacon')) - 1)) and is validated in the constructor.\\n     */\\n    bytes32 private constant _BEACON_SLOT =\\n        0xa3f0ad74e5423aebfd80d3ef4346578335a9a72aeaee59ff6cb3582b35133d50;\\n\\n    /**\\n     * @dev Initializes the proxy with `beacon`.\\n     *\\n     * If `data` is nonempty, it's used as data in a delegate call to the implementation returned by the beacon. This\\n     * will typically be an encoded function call, and allows initializating the storage of the proxy like a Solidity\\n     * constructor.\\n     *\\n     * Requirements:\\n     *\\n     * - `beacon` must be a contract with the interface {IBeacon}.\\n     */\\n    function initialize(address beacon, bytes memory data) external payable {\\n        assert(\\n            _BEACON_SLOT ==\\n                bytes32(uint256(keccak256(\\\"eip1967.proxy.beacon\\\")) - 1)\\n        );\\n        require(_beacon() == address(0), \\\"Beacon: already initialized\\\");\\n\\n        _setBeacon(beacon, data);\\n    }\\n\\n    /**\\n     * @dev Returns the current beacon address.\\n     */\\n    function _beacon() internal view virtual returns (address beacon) {\\n        bytes32 slot = _BEACON_SLOT;\\n        // solhint-disable-next-line no-inline-assembly\\n        assembly {\\n            beacon := sload(slot)\\n        }\\n    }\\n\\n    /**\\n     * @dev Returns the current implementation address of the associated beacon.\\n     */\\n    function _implementation()\\n        internal\\n        view\\n        virtual\\n        override\\n        returns (address)\\n    {\\n        return IBeacon(_beacon()).implementation();\\n    }\\n\\n    /**\\n     * @dev Changes the proxy to use a new beacon.\\n     *\\n     * If `data` is nonempty, it's used as data in a delegate call to the implementation returned by the beacon.\\n     *\\n     * Requirements:\\n     *\\n     * - `beacon` must be a contract.\\n     * - The implementation returned by `beacon` must be a contract.\\n     */\\n    function _setBeacon(address beacon, bytes memory data) internal virtual {\\n        bytes32 slot = _BEACON_SLOT;\\n\\n        // solhint-disable-next-line no-inline-assembly\\n        assembly {\\n            sstore(slot, beacon)\\n        }\\n\\n        if (data.length > 0) {\\n            Address.functionDelegateCall(\\n                _implementation(),\\n                data,\\n                \\\"BeaconProxy: function call failed\\\"\\n            );\\n        }\\n    }\\n\\n    receive() external payable override {\\n        // Needed to receive ETH without data\\n        // OZ Proxy contract calls the _fallback() on receive and tries to delegatecall which fails\\n    }\\n}\\n\",\"keccak256\":\"0x48aefbbc0c51b106f4d69580fa802dc6c5d7573fee24cb7d08f5370d79a2e6f2\",\"license\":\"MIT\"},\"contracts/shared/proxy/beacon/UpgradeableBeaconFactory.sol\":{\"content\":\"// SPDX-License-Identifier: MIT\\npragma solidity ^0.8.0;\\n\\nimport \\\"@openzeppelin/contracts/proxy/Clones.sol\\\";\\nimport \\\"@openzeppelin/contracts/proxy/beacon/IBeacon.sol\\\";\\nimport \\\"@openzeppelin/contracts/access/Ownable.sol\\\";\\nimport \\\"@openzeppelin/contracts/utils/Address.sol\\\";\\nimport \\\"./InitializeableBeaconProxy.sol\\\";\\n\\n/**\\n * @dev This contract is used in conjunction with one or more instances of {BeaconProxy} to determine their\\n * implementation contract, which is where they will delegate all function calls.\\n *\\n * An owner is able to change the implementation the beacon points to, thus upgrading the proxies that use this beacon.\\n */\\ncontract UpgradeableBeaconFactory is IBeacon, Ownable {\\n    address private _implementation;\\n    InitializeableBeaconProxy public proxyAddress;\\n\\n    /**\\n     * @dev Emitted when the implementation returned by the beacon is changed.\\n     */\\n    event Upgraded(address indexed implementation);\\n\\n    /**\\n     * @dev Sets the address of the initial implementation, and the deployer account as the owner who can upgrade the\\n     * beacon.\\n     */\\n    constructor(address payable proxyAddress_, address implementation_) {\\n        proxyAddress = InitializeableBeaconProxy(proxyAddress_);\\n        _setImplementation(implementation_);\\n    }\\n\\n    /**\\n     * @dev Returns the current implementation address.\\n     */\\n    function implementation() public view virtual override returns (address) {\\n        return _implementation;\\n    }\\n\\n    /**\\n     * @notice it clones the proxy contract at an address\\n     * @param initData the data to initialize after the proxy is cloned\\n     * @return proxy_ the cloned proxy\\n     */\\n    function cloneProxy(bytes memory initData)\\n        external\\n        returns (address payable proxy_)\\n    {\\n        proxy_ = payable(Clones.clone(address(proxyAddress)));\\n        InitializeableBeaconProxy(proxy_).initialize(address(this), initData);\\n    }\\n\\n    /**\\n     * @dev Upgrades the beacon to a new implementation.\\n     *\\n     * Emits an {Upgraded} event.\\n     *\\n     * Requirements:\\n     *\\n     * - msg.sender must be the owner of the contract.\\n     * - `newImplementation` must be a contract.\\n     */\\n    function upgradeTo(address newImplementation) public virtual onlyOwner {\\n        _setImplementation(newImplementation);\\n        emit Upgraded(newImplementation);\\n    }\\n\\n    /**\\n     * @dev Sets the implementation contract address for this beacon\\n     *\\n     * Requirements:\\n     *\\n     * - `newImplementation` must be a contract.\\n     */\\n    function _setImplementation(address newImplementation) private {\\n        require(\\n            Address.isContract(newImplementation),\\n            \\\"UpgradeableBeacon: implementation is not a contract\\\"\\n        );\\n        _implementation = newImplementation;\\n    }\\n}\\n\",\"keccak256\":\"0xd25191f91a4d8e64085aa73ecc7c18939d87aea17241ebb2aa9035021898d9d9\",\"license\":\"MIT\"},\"contracts/shared/roles.sol\":{\"content\":\"// SPDX-License-Identifier: MIT\\npragma solidity ^0.8.0;\\n\\n/**\\n * @dev the roles for the user to assign, revoke and check in functions\\n */\\nbytes32 constant ADMIN = keccak256(\\\"ADMIN\\\");\\nbytes32 constant PAUSER = keccak256(\\\"PAUSER\\\");\\nbytes32 constant AUTHORIZED = keccak256(\\\"AUTHORIZED\\\");\\n\",\"keccak256\":\"0x711c08f4fb19dd5c1c76acf9bd08ac1dcd9df9ce143f5195c043d56d4650c8da\",\"license\":\"MIT\"},\"contracts/storage/app.sol\":{\"content\":\"// SPDX-License-Identifier: MIT\\npragma solidity ^0.8.0;\\n\\n// Contracts\\nimport { TellerNFT } from \\\"../nft/TellerNFT.sol\\\";\\n\\n// Interfaces\\n\\n// Libraries\\nimport {\\n    PlatformSetting\\n} from \\\"../settings/platform/libraries/PlatformSettingsLib.sol\\\";\\nimport { Cache } from \\\"../shared/libraries/CacheLib.sol\\\";\\nimport {\\n    UpgradeableBeaconFactory\\n} from \\\"../shared/proxy/beacon/UpgradeableBeaconFactory.sol\\\";\\n\\nstruct AppStorage {\\n    // is it initialized\\n    bool initialized;\\n    // is it platform restricted\\n    bool platformRestricted;\\n    // mapping between contract IDs and if they're paused\\n    mapping(bytes32 => bool) paused;\\n    //p\\n    mapping(bytes32 => PlatformSetting) platformSettings;\\n    mapping(address => Cache) assetSettings;\\n    mapping(string => address) assetAddresses;\\n    mapping(address => bool) cTokenRegistry;\\n    TellerNFT nft;\\n    UpgradeableBeaconFactory loansEscrowBeacon;\\n    UpgradeableBeaconFactory collateralEscrowBeacon;\\n    address nftLiquidationController;\\n    UpgradeableBeaconFactory tTokenBeacon;\\n}\\n\\nlibrary AppStorageLib {\\n    function store() internal pure returns (AppStorage storage s) {\\n        assembly {\\n            s.slot := 0\\n        }\\n    }\\n}\\n\",\"keccak256\":\"0x0c52fdd76b33f74e233c3a27dd3b73b134e9643aab347b3aa649c504809c6559\",\"license\":\"MIT\"},\"contracts/storage/market.sol\":{\"content\":\"// SPDX-License-Identifier: MIT\\npragma solidity ^0.8.0;\\n\\n// Libraries\\nimport { Counters } from \\\"@openzeppelin/contracts/utils/Counters.sol\\\";\\nimport {\\n    EnumerableSet\\n} from \\\"@openzeppelin/contracts/utils/structs/EnumerableSet.sol\\\";\\nimport \\\"../shared/libraries/NumbersList.sol\\\";\\n\\n// Interfaces\\nimport { ILoansEscrow } from \\\"../escrow/escrow/ILoansEscrow.sol\\\";\\nimport { ICollateralEscrow } from \\\"../market/collateral/ICollateralEscrow.sol\\\";\\nimport { ITToken } from \\\"../lending/ttoken/ITToken.sol\\\";\\n\\n// DEPRECATED\\nstruct LoanTerms {\\n    // Max size the loan max be taken out with\\n    uint256 maxLoanAmount;\\n    // The timestamp at which the loan terms expire, after which if the loan is not yet active, cannot be taken out\\n    uint32 termsExpiry;\\n}\\n\\nenum LoanStatus { NonExistent, TermsSet, Active, Closed, Liquidated }\\n\\nstruct Loan {\\n    // Account that owns the loan\\n    address payable borrower;\\n    // The asset lent out for the loan\\n    address lendingToken;\\n    // The token used as collateral for the loan\\n    address collateralToken;\\n    // The total amount of the loan size taken out\\n    uint256 borrowedAmount;\\n    // The id of the loan for internal tracking\\n    uint128 id;\\n    // How long in seconds until the loan must be repaid\\n    uint32 duration;\\n    // The timestamp at which the loan became active\\n    uint32 loanStartTime;\\n    // The interest rate given for repaying the loan\\n    uint16 interestRate;\\n    // Ratio used to determine amount of collateral required based on the collateral asset price\\n    uint16 collateralRatio;\\n    // The status of the loan\\n    LoanStatus status;\\n}\\n\\nstruct LoanDebt {\\n    // The total amount of the loan taken out by the borrower, reduces on loan repayments\\n    uint256 principalOwed;\\n    // The total interest owed by the borrower for the loan, reduces on loan repayments\\n    uint256 interestOwed;\\n}\\n\\nstruct LoanRequest {\\n    LoanUserRequest request;\\n    LoanConsensusResponse[] responses;\\n}\\n\\n/**\\n * @notice Borrower request object to take out a loan\\n * @param borrower The wallet address of the borrower\\n * @param assetAddress The address of the asset for the requested loan\\n * @param amount The amount of tokens requested by the borrower for the loan\\n * @param requestNonce The nonce of the borrower wallet address required for authentication\\n * @param duration The length of time in seconds that the loan has been requested for\\n * @param requestTime The timestamp at which the loan was requested\\n */\\nstruct LoanUserRequest {\\n    address payable borrower;\\n    address assetAddress;\\n    uint256 amount;\\n    uint32 requestNonce;\\n    uint32 duration;\\n    uint32 requestTime;\\n}\\n\\n/**\\n * @notice Borrower response object to take out a loan\\n * @param signer The wallet address of the signer validating the interest request of the lender\\n * @param assetAddress The address of the asset for the requested loan\\n * @param maxLoanAmount The largest amount of tokens that can be taken out in the loan by the borrower\\n * @param responseTime The timestamp at which the response was sent\\n * @param interestRate The signed interest rate generated by the signer's Credit Risk Algorithm (CRA)\\n * @param collateralRatio The ratio of collateral to loan amount that is generated by the signer's Credit Risk Algorithm (CRA)\\n * @param signature The signature generated by the signer in the format of the above Signature struct\\n */\\nstruct LoanConsensusResponse {\\n    address signer;\\n    address assetAddress;\\n    uint256 maxLoanAmount;\\n    uint32 responseTime;\\n    uint16 interestRate;\\n    uint16 collateralRatio;\\n    Signature signature;\\n}\\n\\n/**\\n * @notice Represents a user signature\\n * @param v The recovery identifier represented by the last byte of a ECDSA signature as an int\\n * @param r The random point x-coordinate of the signature respresented by the first 32 bytes of the generated ECDSA signature\\n * @param s The signature proof represented by the second 32 bytes of the generated ECDSA signature\\n */\\nstruct Signature {\\n    uint8 v;\\n    bytes32 r;\\n    bytes32 s;\\n}\\n\\nstruct MarketStorage {\\n    // Holds the index for the next loan ID\\n    Counters.Counter loanIDCounter;\\n    // Maps loanIDs to loan data\\n    mapping(uint256 => Loan) loans;\\n    // Maps loanID to loan debt (total owed left)\\n    mapping(uint256 => LoanDebt) loanDebt;\\n    // Maps loanID to loan terms\\n    mapping(uint256 => LoanTerms) _loanTerms; // DEPRECATED: DO NOT REMOVE\\n    // Maps loanIDs to escrow address to list of held tokens\\n    mapping(uint256 => ILoansEscrow) loanEscrows;\\n    // Maps loanIDs to list of tokens owned by a loan escrow\\n    mapping(uint256 => EnumerableSet.AddressSet) escrowTokens;\\n    // Maps collateral token address to a LoanCollateralEscrow that hold collateral funds\\n    mapping(address => ICollateralEscrow) collateralEscrows;\\n    // Maps accounts to owned loan IDs\\n    mapping(address => uint128[]) borrowerLoans;\\n    // Maps lending token to overall amount of interest collected from loans\\n    mapping(address => ITToken) tTokens;\\n    // Maps lending token to list of signer addresses who are only ones allowed to verify loan requests\\n    mapping(address => EnumerableSet.AddressSet) signers;\\n    // Maps lending token to list of allowed collateral tokens\\n    mapping(address => EnumerableSet.AddressSet) collateralTokens;\\n}\\n\\nbytes32 constant MARKET_STORAGE_POS = keccak256(\\\"teller.market.storage\\\");\\n\\nlibrary MarketStorageLib {\\n    function store() internal pure returns (MarketStorage storage s) {\\n        bytes32 pos = MARKET_STORAGE_POS;\\n        assembly {\\n            s.slot := pos\\n        }\\n    }\\n}\\n\",\"keccak256\":\"0xb7e05aeec806b5621512def93f4a389b4ef88c50ef9fe7115a33f57db2f2304b\",\"license\":\"MIT\"},\"contracts/storage/nft.sol\":{\"content\":\"// SPDX-License-Identifier: MIT\\npragma solidity ^0.8.0;\\n\\n// Contracts\\nimport \\\"../nft/TellerNFTDictionary.sol\\\";\\n\\n// Utils\\nimport \\\"@openzeppelin/contracts/utils/structs/EnumerableSet.sol\\\";\\n\\nstruct NFTStorage {\\n    // Maps NFT owner to set of token IDs owned\\n    mapping(address => EnumerableSet.UintSet) stakedNFTs;\\n    // Maps loanID to NFT IDs indicating NFT being used for the loan\\n    mapping(uint256 => EnumerableSet.UintSet) loanNFTs;\\n    // Merkle root used for verifying nft IDs to base loan size\\n    TellerNFTDictionary nftDictionary;\\n}\\n\\nbytes32 constant NFT_STORAGE_POS = keccak256(\\\"teller.staking.storage\\\");\\n\\nlibrary NFTStorageLib {\\n    function store() internal pure returns (NFTStorage storage s) {\\n        bytes32 pos = NFT_STORAGE_POS;\\n        assembly {\\n            s.slot := pos\\n        }\\n    }\\n}\\n\",\"keccak256\":\"0xd44f213be3125ea2e2de120c241832f1861be18b3ff2fd4c3baa52ea20b94812\",\"license\":\"MIT\"},\"contracts/storage/price-aggregator.sol\":{\"content\":\"// SPDX-License-Identifier: MIT\\npragma solidity ^0.8.0;\\n\\nimport {\\n    EnumerableSet\\n} from \\\"@openzeppelin/contracts/utils/structs/EnumerableSet.sol\\\";\\n\\nstruct ChainlinkAggStorage {\\n    // Maps source token => destination token => Chainlink Aggregator\\n    mapping(address => mapping(address => address)) aggregators;\\n    // Maps token address to number of supported Chainlink pairs\\n    mapping(address => uint256) pairCount;\\n    // Stores set of token addresses supported by Chainlink\\n    EnumerableSet.AddressSet supportedTokens;\\n}\\n\\nstruct PriceAggStorage {\\n    ChainlinkAggStorage chainlink;\\n}\\n\\nbytes32 constant PRICE_AGG_STORAGE_POS = keccak256(\\n    \\\"teller.price.aggregator.storage\\\"\\n);\\n\\nlibrary PriceAggStorageLib {\\n    function store() internal pure returns (PriceAggStorage storage s) {\\n        bytes32 pos = PRICE_AGG_STORAGE_POS;\\n        assembly {\\n            s.slot := pos\\n        }\\n    }\\n}\\n\",\"keccak256\":\"0x39a2c6e514cbc48d03f8de560a855527ddf9cd08e2042a75e5c1820a6298d4a1\",\"license\":\"MIT\"}},\"version\":1}",
      "bytecode": "0x608060405234801561001057600080fd5b50611ed6806100206000396000f3fe608060405234801561001057600080fd5b506004361061004c5760003560e01c80635ebc6334146100515780638a700b531461007d578063ccdd9f5d14610092578063e89ad656146100a5575b600080fd5b61006461005f366004611c2e565b6100b8565b6040805192835260208301919091520160405180910390f35b61009061008b366004611c5e565b610189565b005b6100906100a0366004611c2e565b6102ea565b6100906100b3366004611c5e565b6105da565b60008061014a836100c8856107ce565b6001600160a01b031663d17b71d7866040518263ffffffff1660e01b81526004016100f591815260200190565b60206040518083038186803b15801561010d57600080fd5b505afa158015610121573d6000803e3d6000fd5b505050506040513d601f19601f820116820180604052508101906101459190611c46565b61083b565b509150610182610159846108ff565b600101546001600160a01b031661016f856108ff565b600201546001600160a01b03168461091c565b9050915091565b60008080527f7b305b6be5f275f648d05716597c483d754c2a242bd605feba3c64fb853605366020527f63eec20f0ae1af135811da961c707cd581594291a92cf7bcd78c1cf1aca4e4b054600080516020611e818339815191529060ff161561020d5760405162461bcd60e51b815260040161020490611d56565b60405180910390fd5b60008281526002820160205260408120805460ff1916600117905580806102338161099e565b151514801561024d57508015156102498361099e565b1515145b610256826109b6565b906102745760405162461bcd60e51b81526004016102049190611cec565b507f50e75b23f8ec51bbcb044fe377457e835f3b5ccc7ebf69e80906452015dff607336102a18282610a1f565b6102bd5760405162461bcd60e51b815260040161020490611d1f565b6102ca8888336000610a53565b5050506000938452505060020160205260409020805460ff191690555050565b60008080527f7b305b6be5f275f648d05716597c483d754c2a242bd605feba3c64fb853605366020527f63eec20f0ae1af135811da961c707cd581594291a92cf7bcd78c1cf1aca4e4b054600080516020611e818339815191529060ff16156103655760405162461bcd60e51b815260040161020490611d56565b60008281526002820160205260408120805460ff19166001179055808061038b8161099e565b15151480156103a557508015156103a18361099e565b1515145b6103ae826109b6565b906103cc5760405162461bcd60e51b81526004016102049190611cec565b507f50e75b23f8ec51bbcb044fe377457e835f3b5ccc7ebf69e80906452015dff607336103f98282610a1f565b6104155760405162461bcd60e51b815260040161020490611d1f565b6000610420886108ff565b9050600061042d896107ce565b6001600160a01b031663d17b71d78a6040518263ffffffff1660e01b815260040161045a91815260200190565b60206040518083038186803b15801561047257600080fd5b505afa158015610486573d6000803e3d6000fd5b505050506040513d601f19601f820116820180604052508101906104aa9190611c46565b90506104b68982610e80565b61050c5760405162461bcd60e51b815260206004820152602160248201527f54656c6c65723a20646f6573206e6f74206e656564206c69717569646174696f6044820152603760f91b6064820152608401610204565b6000806105198b8461083b565b9150915060006105288c610fa3565b600101546105358d610fa3565b546105409190611d8d565b905061054f8c82336001610a53565b508215610563576105638c84848733610fc0565b845460408051338152602081018690529081018390526001600160a01b03909116908d907f9950a0562c02382e2e840daa73082d5be7660ce37601f28fa4c84089c11e8a069060600160405180910390a35050506000978852505050600290930160205250506040909120805460ff191690555050565b600080806105e78161099e565b151514801561060157508015156105fd8361099e565b1515145b61060a826109b6565b906106285760405162461bcd60e51b81526004016102049190611cec565b507f50e75b23f8ec51bbcb044fe377457e835f3b5ccc7ebf69e80906452015dff607336106558282610a1f565b6106715760405162461bcd60e51b815260040161020490611d1f565b60008080527f7b305b6be5f275f648d05716597c483d754c2a242bd605feba3c64fb853605366020527f63eec20f0ae1af135811da961c707cd581594291a92cf7bcd78c1cf1aca4e4b054600080516020611e818339815191529060ff16156106ec5760405162461bcd60e51b815260040161020490611d56565b60008281526002820160205260408120805460ff1916600117905561072689610714816108ff565b600101546001600160a01b03166110bd565b905060006107338a611155565b9050808210801561074357508189115b15610797576000818a116107605761075b838b611e0c565b61076a565b61076a8383611e0c565b90506107956107788c6108ff565b600101546001600160a01b03163361078f8e6111b7565b846111de565b505b6107ac8a8a6107a58d6111b7565b6000610a53565b505050600091825260020160205260409020805460ff19169055505050505050565b60009081527f0553069f1f0518e59f8623c18c83a1f987f2a0544d563e98dd803a7078142a8660209081526040808320600201546001600160a01b0390811684527f0553069f1f0518e59f8623c18c83a1f987f2a0544d563e98dd803a7078142a8b909252909120541690565b600080600061084985610fa3565b6001015461085686610fa3565b546108619190611d8d565b905060006108768261087161123c565b61126d565b6108809083611d8d565b905084156108cc576108bd610894876108ff565b600201546001600160a01b03166108aa886108ff565b600101546001600160a01b03168761091c565b92506108c98385611d8d565b93505b808410156108ea576108dd8661128a565b6108e79085611d8d565b93505b808411156108f6578093505b50509250929050565b6000610909611340565b6000928352600101602052506040902090565b60405163c05b1ec360e01b8152600090309063c05b1ec39061094690879087908790600401611cc8565b60206040518083038186803b15801561095e57600080fd5b505afa158015610972573d6000803e3d6000fd5b505050506040513d601f19601f820116820180604052508101906109969190611c46565b949350505050565b60008181526001602052604090205460ff165b919050565b6060816109eb576040518060400160405280601081526020016f14185d5cd8589b194e881c185d5cd95960821b815250610a19565b6040518060400160405280601481526020017314185d5cd8589b194e881b9bdd081c185d5cd95960621b8152505b92915050565b6000610a29611369565b6000938452602090815260408085206001600160a01b039490941685529290525090205460ff1690565b6000808411610a995760405162461bcd60e51b815260206004820152601260248201527154656c6c65723a207a65726f20726570617960701b6044820152606401610204565b610aa285610fa3565b60010154610aaf86610fa3565b54610aba9190611d8d565b905083811015610acd5792506000610ada565b610ad78482611e0c565b90505b60007f0553069f1f0518e59f8623c18c83a1f987f2a0544d563e98dd803a7078142a8d81610b07886108ff565b600101546001600160a01b039081168252602082019290925260400160002054811691508416610b36876111b7565b6001600160a01b03161415610bce57610b4e866111b7565b6001600160a01b031663125bfb66610b65886108ff565b600101546040516001600160e01b031960e084901b168152610b97916001600160a01b03169085908a90600401611cc8565b600060405180830381600087803b158015610bb157600080fd5b505af1158015610bc5573d6000803e3d6000fd5b50505050610bef565b610bef610bda876108ff565b600101546001600160a01b03168583886111de565b600080610bfb88610fa3565b60010154871015610c2f57508580610c1289610fa3565b6001016000828254610c249190611e0c565b90915550610c989050565b6000610c3a89610fa3565b600101541115610c6f57610c4d88610fa3565b600101549050610c5d8188611e0c565b96506000610c6a89610fa3565b600101555b8615610c985786915086610c8289610fa3565b8054600090610c92908490611e0c565b90915550505b604051638a700b5360e01b815260048101839052602481018290526001600160a01b03841690638a700b5390604401600060405180830381600087803b158015610ce157600080fd5b505af1158015610cf5573d6000803e3d6000fd5b505050508415610d9d578315610d4d5760405162461bcd60e51b815260206004820152601f60248201527f54656c6c65723a206c6971756964617465207061727469616c207265706179006044820152606401610204565b6004610d58896108ff565b600401601c6101000a81548160ff02191690836004811115610d8a57634e487b7160e01b600052602160045260246000fd5b0217905550610d988861137f565b610e75565b83610e1c576003610dad896108ff565b600401601c6101000a81548160ff02191690836004811115610ddf57634e487b7160e01b600052602160045260246000fd5b0217905550610e0088610df18a6108ff565b546001600160a01b031661144a565b610e1c88610e0d8a6108ff565b546001600160a01b03166114de565b610e25886108ff565b54604080518981523360208201529081018690526001600160a01b039091169089907f20a1f2ec363af45dc5ee7d9d622f2dd68b52501c382126c7f04b53663c4c69bf9060600160405180910390a35b505050949350505050565b600080610e8c846108ff565b90506002600482810154600160e01b900460ff1690811115610ebe57634e487b7160e01b600052602160045260246000fd5b14610ecd576000915050610a19565b6004810154600160d01b900461ffff1615610f6d576040516372e1132760e01b81526004810185905260009030906372e113279060240160606040518083038186803b158015610f1c57600080fd5b505afa158015610f30573d6000803e3d6000fd5b505050506040513d601f19601f82011682018060405250810190610f549190611c7f565b5091505083811115610f6b57600192505050610a19565b505b6004810154610f929063ffffffff600160801b8204811691600160a01b900416611da5565b63ffffffff16421015949350505050565b6000610fad611340565b6000928352600201602052506040902090565b6004610fcb866108ff565b600490810154600160e01b900460ff1690811115610ff957634e487b7160e01b600052602160045260246000fd5b146110465760405162461bcd60e51b815260206004820152601b60248201527f54656c6c65723a206c6f616e206e6f74206c69717569646174656400000000006044820152606401610204565b82841161109757600061108461105b876108ff565b600101546001600160a01b0316611071886108ff565b600201546001600160a01b03168761091c565b9050611091868284611553565b506110b6565b6110a2858383611553565b6110b685826110b18688611e0c565b611610565b5050505050565b6000816001600160a01b03166370a082316110d7856111b7565b6040516001600160e01b031960e084901b1681526001600160a01b03909116600482015260240160206040518083038186803b15801561111657600080fd5b505afa15801561112a573d6000803e3d6000fd5b505050506040513d601f19601f8201168201806040525081019061114e9190611c46565b9392505050565b60006002611162836108ff565b600490810154600160e01b900460ff169081111561119057634e487b7160e01b600052602160045260246000fd5b14156109b15761119f82610fa3565b600101546111ac83610fa3565b54610a199190611d8d565b60006111c1611340565b60009283526004016020525060409020546001600160a01b031690565b611236846323b872dd60e01b8585856040516024016111ff93929190611cc8565b60408051601f198184030181529190526020810180516001600160e01b03166001600160e01b0319909316929092179091526116b2565b50505050565b60006112677f5166f2578d96d76687be006158a90b639fcc7501b0381b6b4ed953aca3e0e183611784565b54919050565b600061271061128061ffff841685611ded565b61114e9190611dcd565b600080611296836108ff565b600101546001600160a01b031690506112af83826110bd565b6112b99083611d8d565b915060006112c68461178c565b905060006112d3826117a9565b11156113395760005b6112e5826117a9565b811015611337576000611301866112fc85856117b3565b6110bd565b905061131761131084846117b3565b858361091c565b6113219086611d8d565b945050808061132f90611e4f565b9150506112dc565b505b5050919050565b60007f0553069f1f0518e59f8623c18c83a1f987f2a0544d563e98dd803a7078142a855b905090565b6000600080516020611e81833981519152611364565b60006113896117bf565b60008381526001919091016020526040812091505b6113a7826117a9565b811015611445576006546001600160a01b03166001600160a01b03166323b872dd306000600901546001600160a01b03166113e286866117b3565b6040518463ffffffff1660e01b815260040161140093929190611cc8565b600060405180830381600087803b15801561141a57600080fd5b505af115801561142e573d6000803e3d6000fd5b50505050808061143d90611e4f565b91505061139e565b505050565b6114da82611457846107ce565b6001600160a01b031663d17b71d7856040518263ffffffff1660e01b815260040161148491815260200190565b60206040518083038186803b15801561149c57600080fd5b505afa1580156114b0573d6000803e3d6000fd5b505050506040513d601f19601f820116820180604052508101906114d49190611c46565b83611553565b5050565b60006114e86117bf565b60008481526001919091016020526040812091505b611506826117a9565b811015611236576115406115186117bf565b6001600160a01b03851660009081526020919091526040902061153b84846117b3565b6117e7565b508061154b81611e4f565b9150506114fd565b61155c836107ce565b604051630ad58d2f60e01b815260048101859052602481018490526001600160a01b0383811660448301529190911690630ad58d2f90606401600060405180830381600087803b1580156115af57600080fd5b505af11580156115c3573d6000803e3d6000fd5b50505050806001600160a01b0316837f7c5e5cb62e5ed3caf3764e4b0afedfedef533e27809d43367799787ad2abcd418460405161160391815260200190565b60405180910390a3505050565b60008381527f0553069f1f0518e59f8623c18c83a1f987f2a0544d563e98dd803a7078142a8a602052604090208161165f8561164b816108ff565b600101546001600160a01b031686846117f3565b905060005b61166d836117a9565b8110156116aa578161168157505050611445565b6116968661168f85846117b3565b87856117f3565b9150806116a281611e4f565b915050611664565b505050505050565b6000611707826040518060400160405280602081526020017f5361666545524332303a206c6f772d6c6576656c2063616c6c206661696c6564815250856001600160a01b031661198e9092919063ffffffff16565b80519091501561144557808060200190518101906117259190611c0e565b6114455760405162461bcd60e51b815260206004820152602a60248201527f5361666545524332303a204552433230206f7065726174696f6e20646964206e6044820152691bdd081cdd58d8d9595960b21b6064820152608401610204565b600080610fad565b6000611796611340565b6000928352600501602052506040902090565b6000610a19825490565b600061114e838361199d565b60007f36ec560bcbaf142f58499b90035254e32b3f3563174bc96dc2b2724bafa4c2a7611364565b600061114e8383611a31565b60008061180086866110bd565b90508015611984576000611813876108ff565b600101546001600160a01b0387811691161415611831575080611854565b6118518661183e896108ff565b600101546001600160a01b03168461091c565b90505b8381116118d857611864876111b7565b6001600160a01b031663125bfb668787856040518463ffffffff1660e01b815260040161189393929190611cc8565b600060405180830381600087803b1580156118ad57600080fd5b505af11580156118c1573d6000803e3d6000fd5b5050505080846118d19190611e0c565b9350611982565b60006118e3886108ff565b600101546001600160a01b0388811691161415611901575083611912565b61190f836108718785611a80565b90505b61191b886111b7565b6001600160a01b031663125bfb668888846040518463ffffffff1660e01b815260040161194a93929190611cc8565b600060405180830381600087803b15801561196457600080fd5b505af1158015611978573d6000803e3d6000fd5b5050505060009450505b505b5090949350505050565b60606109968484600085611aad565b815460009082106119fb5760405162461bcd60e51b815260206004820152602260248201527f456e756d657261626c655365743a20696e646578206f7574206f6620626f756e604482015261647360f01b6064820152608401610204565b826000018281548110611a1e57634e487b7160e01b600052603260045260246000fd5b9060005260206000200154905092915050565b6000818152600183016020526040812054611a7857508154600181810184556000848152602080822090930184905584548482528286019093526040902091909155610a19565b506000610a19565b60008115611aa45781611a9561271085611ded565b611a9f9190611dcd565b61114e565b50600092915050565b606082471015611b0e5760405162461bcd60e51b815260206004820152602660248201527f416464726573733a20696e73756666696369656e742062616c616e636520666f6044820152651c8818d85b1b60d21b6064820152608401610204565b843b611b5c5760405162461bcd60e51b815260206004820152601d60248201527f416464726573733a2063616c6c20746f206e6f6e2d636f6e74726163740000006044820152606401610204565b600080866001600160a01b03168587604051611b789190611cac565b60006040518083038185875af1925050503d8060008114611bb5576040519150601f19603f3d011682016040523d82523d6000602084013e611bba565b606091505b5091509150611bca828286611bd5565b979650505050505050565b60608315611be457508161114e565b825115611bf45782518084602001fd5b8160405162461bcd60e51b81526004016102049190611cec565b600060208284031215611c1f578081fd5b8151801515811461114e578182fd5b600060208284031215611c3f578081fd5b5035919050565b600060208284031215611c57578081fd5b5051919050565b60008060408385031215611c70578081fd5b50508035926020909101359150565b600080600060608486031215611c93578081fd5b8351925060208401519150604084015190509250925092565b60008251611cbe818460208701611e23565b9190910192915050565b6001600160a01b039384168152919092166020820152604081019190915260600190565b6000602082528251806020840152611d0b816040850160208701611e23565b601f01601f19169190910160400192915050565b6020808252601d908201527f416363657373436f6e74726f6c3a206e6f7420617574686f72697a6564000000604082015260600190565b60208082526018908201527f416363657373436f6e74726f6c3a207265656e74657265640000000000000000604082015260600190565b60008219821115611da057611da0611e6a565b500190565b600063ffffffff808316818516808303821115611dc457611dc4611e6a565b01949350505050565b600082611de857634e487b7160e01b81526012600452602481fd5b500490565b6000816000190483118215151615611e0757611e07611e6a565b500290565b600082821015611e1e57611e1e611e6a565b500390565b60005b83811015611e3e578181015183820152602001611e26565b838111156112365750506000910152565b6000600019821415611e6357611e63611e6a565b5060010190565b634e487b7160e01b600052601160045260246000fdfe7b305b6be5f275f648d05716597c483d754c2a242bd605feba3c64fb85360534a264697066735822122043827d127eb624bd9e1a1b300edfcfb91d35198a0518b81c6e5bc1b5acf7733764736f6c63430008030033",
      "deployedBytecode": "0x608060405234801561001057600080fd5b506004361061004c5760003560e01c80635ebc6334146100515780638a700b531461007d578063ccdd9f5d14610092578063e89ad656146100a5575b600080fd5b61006461005f366004611c2e565b6100b8565b6040805192835260208301919091520160405180910390f35b61009061008b366004611c5e565b610189565b005b6100906100a0366004611c2e565b6102ea565b6100906100b3366004611c5e565b6105da565b60008061014a836100c8856107ce565b6001600160a01b031663d17b71d7866040518263ffffffff1660e01b81526004016100f591815260200190565b60206040518083038186803b15801561010d57600080fd5b505afa158015610121573d6000803e3d6000fd5b505050506040513d601f19601f820116820180604052508101906101459190611c46565b61083b565b509150610182610159846108ff565b600101546001600160a01b031661016f856108ff565b600201546001600160a01b03168461091c565b9050915091565b60008080527f7b305b6be5f275f648d05716597c483d754c2a242bd605feba3c64fb853605366020527f63eec20f0ae1af135811da961c707cd581594291a92cf7bcd78c1cf1aca4e4b054600080516020611e818339815191529060ff161561020d5760405162461bcd60e51b815260040161020490611d56565b60405180910390fd5b60008281526002820160205260408120805460ff1916600117905580806102338161099e565b151514801561024d57508015156102498361099e565b1515145b610256826109b6565b906102745760405162461bcd60e51b81526004016102049190611cec565b507f50e75b23f8ec51bbcb044fe377457e835f3b5ccc7ebf69e80906452015dff607336102a18282610a1f565b6102bd5760405162461bcd60e51b815260040161020490611d1f565b6102ca8888336000610a53565b5050506000938452505060020160205260409020805460ff191690555050565b60008080527f7b305b6be5f275f648d05716597c483d754c2a242bd605feba3c64fb853605366020527f63eec20f0ae1af135811da961c707cd581594291a92cf7bcd78c1cf1aca4e4b054600080516020611e818339815191529060ff16156103655760405162461bcd60e51b815260040161020490611d56565b60008281526002820160205260408120805460ff19166001179055808061038b8161099e565b15151480156103a557508015156103a18361099e565b1515145b6103ae826109b6565b906103cc5760405162461bcd60e51b81526004016102049190611cec565b507f50e75b23f8ec51bbcb044fe377457e835f3b5ccc7ebf69e80906452015dff607336103f98282610a1f565b6104155760405162461bcd60e51b815260040161020490611d1f565b6000610420886108ff565b9050600061042d896107ce565b6001600160a01b031663d17b71d78a6040518263ffffffff1660e01b815260040161045a91815260200190565b60206040518083038186803b15801561047257600080fd5b505afa158015610486573d6000803e3d6000fd5b505050506040513d601f19601f820116820180604052508101906104aa9190611c46565b90506104b68982610e80565b61050c5760405162461bcd60e51b815260206004820152602160248201527f54656c6c65723a20646f6573206e6f74206e656564206c69717569646174696f6044820152603760f91b6064820152608401610204565b6000806105198b8461083b565b9150915060006105288c610fa3565b600101546105358d610fa3565b546105409190611d8d565b905061054f8c82336001610a53565b508215610563576105638c84848733610fc0565b845460408051338152602081018690529081018390526001600160a01b03909116908d907f9950a0562c02382e2e840daa73082d5be7660ce37601f28fa4c84089c11e8a069060600160405180910390a35050506000978852505050600290930160205250506040909120805460ff191690555050565b600080806105e78161099e565b151514801561060157508015156105fd8361099e565b1515145b61060a826109b6565b906106285760405162461bcd60e51b81526004016102049190611cec565b507f50e75b23f8ec51bbcb044fe377457e835f3b5ccc7ebf69e80906452015dff607336106558282610a1f565b6106715760405162461bcd60e51b815260040161020490611d1f565b60008080527f7b305b6be5f275f648d05716597c483d754c2a242bd605feba3c64fb853605366020527f63eec20f0ae1af135811da961c707cd581594291a92cf7bcd78c1cf1aca4e4b054600080516020611e818339815191529060ff16156106ec5760405162461bcd60e51b815260040161020490611d56565b60008281526002820160205260408120805460ff1916600117905561072689610714816108ff565b600101546001600160a01b03166110bd565b905060006107338a611155565b9050808210801561074357508189115b15610797576000818a116107605761075b838b611e0c565b61076a565b61076a8383611e0c565b90506107956107788c6108ff565b600101546001600160a01b03163361078f8e6111b7565b846111de565b505b6107ac8a8a6107a58d6111b7565b6000610a53565b505050600091825260020160205260409020805460ff19169055505050505050565b60009081527f0553069f1f0518e59f8623c18c83a1f987f2a0544d563e98dd803a7078142a8660209081526040808320600201546001600160a01b0390811684527f0553069f1f0518e59f8623c18c83a1f987f2a0544d563e98dd803a7078142a8b909252909120541690565b600080600061084985610fa3565b6001015461085686610fa3565b546108619190611d8d565b905060006108768261087161123c565b61126d565b6108809083611d8d565b905084156108cc576108bd610894876108ff565b600201546001600160a01b03166108aa886108ff565b600101546001600160a01b03168761091c565b92506108c98385611d8d565b93505b808410156108ea576108dd8661128a565b6108e79085611d8d565b93505b808411156108f6578093505b50509250929050565b6000610909611340565b6000928352600101602052506040902090565b60405163c05b1ec360e01b8152600090309063c05b1ec39061094690879087908790600401611cc8565b60206040518083038186803b15801561095e57600080fd5b505afa158015610972573d6000803e3d6000fd5b505050506040513d601f19601f820116820180604052508101906109969190611c46565b949350505050565b60008181526001602052604090205460ff165b919050565b6060816109eb576040518060400160405280601081526020016f14185d5cd8589b194e881c185d5cd95960821b815250610a19565b6040518060400160405280601481526020017314185d5cd8589b194e881b9bdd081c185d5cd95960621b8152505b92915050565b6000610a29611369565b6000938452602090815260408085206001600160a01b039490941685529290525090205460ff1690565b6000808411610a995760405162461bcd60e51b815260206004820152601260248201527154656c6c65723a207a65726f20726570617960701b6044820152606401610204565b610aa285610fa3565b60010154610aaf86610fa3565b54610aba9190611d8d565b905083811015610acd5792506000610ada565b610ad78482611e0c565b90505b60007f0553069f1f0518e59f8623c18c83a1f987f2a0544d563e98dd803a7078142a8d81610b07886108ff565b600101546001600160a01b039081168252602082019290925260400160002054811691508416610b36876111b7565b6001600160a01b03161415610bce57610b4e866111b7565b6001600160a01b031663125bfb66610b65886108ff565b600101546040516001600160e01b031960e084901b168152610b97916001600160a01b03169085908a90600401611cc8565b600060405180830381600087803b158015610bb157600080fd5b505af1158015610bc5573d6000803e3d6000fd5b50505050610bef565b610bef610bda876108ff565b600101546001600160a01b03168583886111de565b600080610bfb88610fa3565b60010154871015610c2f57508580610c1289610fa3565b6001016000828254610c249190611e0c565b90915550610c989050565b6000610c3a89610fa3565b600101541115610c6f57610c4d88610fa3565b600101549050610c5d8188611e0c565b96506000610c6a89610fa3565b600101555b8615610c985786915086610c8289610fa3565b8054600090610c92908490611e0c565b90915550505b604051638a700b5360e01b815260048101839052602481018290526001600160a01b03841690638a700b5390604401600060405180830381600087803b158015610ce157600080fd5b505af1158015610cf5573d6000803e3d6000fd5b505050508415610d9d578315610d4d5760405162461bcd60e51b815260206004820152601f60248201527f54656c6c65723a206c6971756964617465207061727469616c207265706179006044820152606401610204565b6004610d58896108ff565b600401601c6101000a81548160ff02191690836004811115610d8a57634e487b7160e01b600052602160045260246000fd5b0217905550610d988861137f565b610e75565b83610e1c576003610dad896108ff565b600401601c6101000a81548160ff02191690836004811115610ddf57634e487b7160e01b600052602160045260246000fd5b0217905550610e0088610df18a6108ff565b546001600160a01b031661144a565b610e1c88610e0d8a6108ff565b546001600160a01b03166114de565b610e25886108ff565b54604080518981523360208201529081018690526001600160a01b039091169089907f20a1f2ec363af45dc5ee7d9d622f2dd68b52501c382126c7f04b53663c4c69bf9060600160405180910390a35b505050949350505050565b600080610e8c846108ff565b90506002600482810154600160e01b900460ff1690811115610ebe57634e487b7160e01b600052602160045260246000fd5b14610ecd576000915050610a19565b6004810154600160d01b900461ffff1615610f6d576040516372e1132760e01b81526004810185905260009030906372e113279060240160606040518083038186803b158015610f1c57600080fd5b505afa158015610f30573d6000803e3d6000fd5b505050506040513d601f19601f82011682018060405250810190610f549190611c7f565b5091505083811115610f6b57600192505050610a19565b505b6004810154610f929063ffffffff600160801b8204811691600160a01b900416611da5565b63ffffffff16421015949350505050565b6000610fad611340565b6000928352600201602052506040902090565b6004610fcb866108ff565b600490810154600160e01b900460ff1690811115610ff957634e487b7160e01b600052602160045260246000fd5b146110465760405162461bcd60e51b815260206004820152601b60248201527f54656c6c65723a206c6f616e206e6f74206c69717569646174656400000000006044820152606401610204565b82841161109757600061108461105b876108ff565b600101546001600160a01b0316611071886108ff565b600201546001600160a01b03168761091c565b9050611091868284611553565b506110b6565b6110a2858383611553565b6110b685826110b18688611e0c565b611610565b5050505050565b6000816001600160a01b03166370a082316110d7856111b7565b6040516001600160e01b031960e084901b1681526001600160a01b03909116600482015260240160206040518083038186803b15801561111657600080fd5b505afa15801561112a573d6000803e3d6000fd5b505050506040513d601f19601f8201168201806040525081019061114e9190611c46565b9392505050565b60006002611162836108ff565b600490810154600160e01b900460ff169081111561119057634e487b7160e01b600052602160045260246000fd5b14156109b15761119f82610fa3565b600101546111ac83610fa3565b54610a199190611d8d565b60006111c1611340565b60009283526004016020525060409020546001600160a01b031690565b611236846323b872dd60e01b8585856040516024016111ff93929190611cc8565b60408051601f198184030181529190526020810180516001600160e01b03166001600160e01b0319909316929092179091526116b2565b50505050565b60006112677f5166f2578d96d76687be006158a90b639fcc7501b0381b6b4ed953aca3e0e183611784565b54919050565b600061271061128061ffff841685611ded565b61114e9190611dcd565b600080611296836108ff565b600101546001600160a01b031690506112af83826110bd565b6112b99083611d8d565b915060006112c68461178c565b905060006112d3826117a9565b11156113395760005b6112e5826117a9565b811015611337576000611301866112fc85856117b3565b6110bd565b905061131761131084846117b3565b858361091c565b6113219086611d8d565b945050808061132f90611e4f565b9150506112dc565b505b5050919050565b60007f0553069f1f0518e59f8623c18c83a1f987f2a0544d563e98dd803a7078142a855b905090565b6000600080516020611e81833981519152611364565b60006113896117bf565b60008381526001919091016020526040812091505b6113a7826117a9565b811015611445576006546001600160a01b03166001600160a01b03166323b872dd306000600901546001600160a01b03166113e286866117b3565b6040518463ffffffff1660e01b815260040161140093929190611cc8565b600060405180830381600087803b15801561141a57600080fd5b505af115801561142e573d6000803e3d6000fd5b50505050808061143d90611e4f565b91505061139e565b505050565b6114da82611457846107ce565b6001600160a01b031663d17b71d7856040518263ffffffff1660e01b815260040161148491815260200190565b60206040518083038186803b15801561149c57600080fd5b505afa1580156114b0573d6000803e3d6000fd5b505050506040513d601f19601f820116820180604052508101906114d49190611c46565b83611553565b5050565b60006114e86117bf565b60008481526001919091016020526040812091505b611506826117a9565b811015611236576115406115186117bf565b6001600160a01b03851660009081526020919091526040902061153b84846117b3565b6117e7565b508061154b81611e4f565b9150506114fd565b61155c836107ce565b604051630ad58d2f60e01b815260048101859052602481018490526001600160a01b0383811660448301529190911690630ad58d2f90606401600060405180830381600087803b1580156115af57600080fd5b505af11580156115c3573d6000803e3d6000fd5b50505050806001600160a01b0316837f7c5e5cb62e5ed3caf3764e4b0afedfedef533e27809d43367799787ad2abcd418460405161160391815260200190565b60405180910390a3505050565b60008381527f0553069f1f0518e59f8623c18c83a1f987f2a0544d563e98dd803a7078142a8a602052604090208161165f8561164b816108ff565b600101546001600160a01b031686846117f3565b905060005b61166d836117a9565b8110156116aa578161168157505050611445565b6116968661168f85846117b3565b87856117f3565b9150806116a281611e4f565b915050611664565b505050505050565b6000611707826040518060400160405280602081526020017f5361666545524332303a206c6f772d6c6576656c2063616c6c206661696c6564815250856001600160a01b031661198e9092919063ffffffff16565b80519091501561144557808060200190518101906117259190611c0e565b6114455760405162461bcd60e51b815260206004820152602a60248201527f5361666545524332303a204552433230206f7065726174696f6e20646964206e6044820152691bdd081cdd58d8d9595960b21b6064820152608401610204565b600080610fad565b6000611796611340565b6000928352600501602052506040902090565b6000610a19825490565b600061114e838361199d565b60007f36ec560bcbaf142f58499b90035254e32b3f3563174bc96dc2b2724bafa4c2a7611364565b600061114e8383611a31565b60008061180086866110bd565b90508015611984576000611813876108ff565b600101546001600160a01b0387811691161415611831575080611854565b6118518661183e896108ff565b600101546001600160a01b03168461091c565b90505b8381116118d857611864876111b7565b6001600160a01b031663125bfb668787856040518463ffffffff1660e01b815260040161189393929190611cc8565b600060405180830381600087803b1580156118ad57600080fd5b505af11580156118c1573d6000803e3d6000fd5b5050505080846118d19190611e0c565b9350611982565b60006118e3886108ff565b600101546001600160a01b0388811691161415611901575083611912565b61190f836108718785611a80565b90505b61191b886111b7565b6001600160a01b031663125bfb668888846040518463ffffffff1660e01b815260040161194a93929190611cc8565b600060405180830381600087803b15801561196457600080fd5b505af1158015611978573d6000803e3d6000fd5b5050505060009450505b505b5090949350505050565b60606109968484600085611aad565b815460009082106119fb5760405162461bcd60e51b815260206004820152602260248201527f456e756d657261626c655365743a20696e646578206f7574206f6620626f756e604482015261647360f01b6064820152608401610204565b826000018281548110611a1e57634e487b7160e01b600052603260045260246000fd5b9060005260206000200154905092915050565b6000818152600183016020526040812054611a7857508154600181810184556000848152602080822090930184905584548482528286019093526040902091909155610a19565b506000610a19565b60008115611aa45781611a9561271085611ded565b611a9f9190611dcd565b61114e565b50600092915050565b606082471015611b0e5760405162461bcd60e51b815260206004820152602660248201527f416464726573733a20696e73756666696369656e742062616c616e636520666f6044820152651c8818d85b1b60d21b6064820152608401610204565b843b611b5c5760405162461bcd60e51b815260206004820152601d60248201527f416464726573733a2063616c6c20746f206e6f6e2d636f6e74726163740000006044820152606401610204565b600080866001600160a01b03168587604051611b789190611cac565b60006040518083038185875af1925050503d8060008114611bb5576040519150601f19603f3d011682016040523d82523d6000602084013e611bba565b606091505b5091509150611bca828286611bd5565b979650505050505050565b60608315611be457508161114e565b825115611bf45782518084602001fd5b8160405162461bcd60e51b81526004016102049190611cec565b600060208284031215611c1f578081fd5b8151801515811461114e578182fd5b600060208284031215611c3f578081fd5b5035919050565b600060208284031215611c57578081fd5b5051919050565b60008060408385031215611c70578081fd5b50508035926020909101359150565b600080600060608486031215611c93578081fd5b8351925060208401519150604084015190509250925092565b60008251611cbe818460208701611e23565b9190910192915050565b6001600160a01b039384168152919092166020820152604081019190915260600190565b6000602082528251806020840152611d0b816040850160208701611e23565b601f01601f19169190910160400192915050565b6020808252601d908201527f416363657373436f6e74726f6c3a206e6f7420617574686f72697a6564000000604082015260600190565b60208082526018908201527f416363657373436f6e74726f6c3a207265656e74657265640000000000000000604082015260600190565b60008219821115611da057611da0611e6a565b500190565b600063ffffffff808316818516808303821115611dc457611dc4611e6a565b01949350505050565b600082611de857634e487b7160e01b81526012600452602481fd5b500490565b6000816000190483118215151615611e0757611e07611e6a565b500290565b600082821015611e1e57611e1e611e6a565b500390565b60005b83811015611e3e578181015183820152602001611e26565b838111156112365750506000910152565b6000600019821415611e6357611e63611e6a565b5060010190565b634e487b7160e01b600052601160045260246000fdfe7b305b6be5f275f648d05716597c483d754c2a242bd605feba3c64fb85360534a264697066735822122043827d127eb624bd9e1a1b300edfcfb91d35198a0518b81c6e5bc1b5acf7733764736f6c63430008030033",
      "history": [
        {
          "address": "0xD99dFbd7eE2cc714DEbff8390C33f0dBB1502eD2",
          "abi": [
            {
              "anonymous": false,
              "inputs": [
                {
                  "indexed": true,
                  "internalType": "uint256",
                  "name": "loanID",
                  "type": "uint256"
                },
                {
                  "indexed": true,
                  "internalType": "address",
                  "name": "borrower",
                  "type": "address"
                },
                {
                  "indexed": false,
                  "internalType": "address",
                  "name": "liquidator",
                  "type": "address"
                },
                {
                  "indexed": false,
                  "internalType": "uint256",
                  "name": "reward",
                  "type": "uint256"
                },
                {
                  "indexed": false,
                  "internalType": "uint256",
                  "name": "tokensIn",
                  "type": "uint256"
                }
              ],
              "name": "LoanLiquidated",
              "type": "event"
            },
            {
              "anonymous": false,
              "inputs": [
                {
                  "indexed": true,
                  "internalType": "uint256",
                  "name": "loanID",
                  "type": "uint256"
                },
                {
                  "indexed": true,
                  "internalType": "address",
                  "name": "borrower",
                  "type": "address"
                },
                {
                  "indexed": false,
                  "internalType": "uint256",
                  "name": "amountPaid",
                  "type": "uint256"
                },
                {
                  "indexed": false,
                  "internalType": "address",
                  "name": "payer",
                  "type": "address"
                },
                {
                  "indexed": false,
                  "internalType": "uint256",
                  "name": "totalOwed",
                  "type": "uint256"
                }
              ],
              "name": "LoanRepaid",
              "type": "event"
            },
            {
              "inputs": [
                {
                  "internalType": "uint256",
                  "name": "loanID",
                  "type": "uint256"
                },
                {
                  "internalType": "uint256",
                  "name": "amount",
                  "type": "uint256"
                }
              ],
              "name": "escrowRepay",
              "outputs": [],
              "stateMutability": "nonpayable",
              "type": "function"
            },
            {
              "inputs": [
                {
                  "internalType": "uint256",
                  "name": "loanID",
                  "type": "uint256"
                }
              ],
              "name": "getLiquidationReward",
              "outputs": [
                {
                  "internalType": "uint256",
                  "name": "inLending_",
                  "type": "uint256"
                },
                {
                  "internalType": "uint256",
                  "name": "inCollateral_",
                  "type": "uint256"
                }
              ],
              "stateMutability": "view",
              "type": "function"
            },
            {
              "inputs": [
                {
                  "internalType": "uint256",
                  "name": "loanID",
                  "type": "uint256"
                }
              ],
              "name": "liquidateLoan",
              "outputs": [],
              "stateMutability": "nonpayable",
              "type": "function"
            },
            {
              "inputs": [
                {
                  "internalType": "uint256",
                  "name": "loanID",
                  "type": "uint256"
                },
                {
                  "internalType": "uint256",
                  "name": "amount",
                  "type": "uint256"
                }
              ],
              "name": "repayLoan",
              "outputs": [],
              "stateMutability": "nonpayable",
              "type": "function"
            }
          ],
          "artifactName": "RepayFacet",
          "transactionHash": "0x44d6b974ec21f1c4420ecb2be53506c60d1abe4b5fac2a2b5352ae4a3fb3bb5d",
          "receipt": {
            "to": null,
            "from": "0xAFe87013dc96edE1E116a288D80FcaA0eFFE5fe5",
            "contractAddress": "0xD99dFbd7eE2cc714DEbff8390C33f0dBB1502eD2",
            "transactionIndex": 0,
            "gasUsed": "1838004",
            "logsBloom": "0x00000000000000000000000000000000000000000000000000000000000000000000000000000000000000000000000000000000000000000000000000000000000000000000000000000000000000000000000000000000000000000000000000000000000000000000000000000000000000000000000000000000000000000000000000000000000000000000000000000000000000000000000000000000000000000000000000000000000000000000000000000000000000000000000000000000000000000000000000000000000000000000000000000000000000000000000000000000000000000000000000000000000000000000000000000000",
            "blockHash": "0xecd0c4fcd32a0e212c29bf1a50f9095c4551299b06f40b8cb32c08eeeb3ab526",
            "transactionHash": "0x44d6b974ec21f1c4420ecb2be53506c60d1abe4b5fac2a2b5352ae4a3fb3bb5d",
            "logs": [],
            "blockNumber": 25103793,
            "cumulativeGasUsed": "1838004",
            "status": 1,
            "byzantium": true
          },
          "args": [],
          "solcInputHash": "dc3b3c0336b59a4fae33a8cd036a81b5",
          "metadata": "{\"compiler\":{\"version\":\"0.8.3+commit.8d00100c\"},\"language\":\"Solidity\",\"output\":{\"abi\":[{\"anonymous\":false,\"inputs\":[{\"indexed\":true,\"internalType\":\"uint256\",\"name\":\"loanID\",\"type\":\"uint256\"},{\"indexed\":true,\"internalType\":\"address\",\"name\":\"borrower\",\"type\":\"address\"},{\"indexed\":false,\"internalType\":\"address\",\"name\":\"liquidator\",\"type\":\"address\"},{\"indexed\":false,\"internalType\":\"uint256\",\"name\":\"reward\",\"type\":\"uint256\"},{\"indexed\":false,\"internalType\":\"uint256\",\"name\":\"tokensIn\",\"type\":\"uint256\"}],\"name\":\"LoanLiquidated\",\"type\":\"event\"},{\"anonymous\":false,\"inputs\":[{\"indexed\":true,\"internalType\":\"uint256\",\"name\":\"loanID\",\"type\":\"uint256\"},{\"indexed\":true,\"internalType\":\"address\",\"name\":\"borrower\",\"type\":\"address\"},{\"indexed\":false,\"internalType\":\"uint256\",\"name\":\"amountPaid\",\"type\":\"uint256\"},{\"indexed\":false,\"internalType\":\"address\",\"name\":\"payer\",\"type\":\"address\"},{\"indexed\":false,\"internalType\":\"uint256\",\"name\":\"totalOwed\",\"type\":\"uint256\"}],\"name\":\"LoanRepaid\",\"type\":\"event\"},{\"inputs\":[{\"internalType\":\"uint256\",\"name\":\"loanID\",\"type\":\"uint256\"},{\"internalType\":\"uint256\",\"name\":\"amount\",\"type\":\"uint256\"}],\"name\":\"escrowRepay\",\"outputs\":[],\"stateMutability\":\"nonpayable\",\"type\":\"function\"},{\"inputs\":[{\"internalType\":\"uint256\",\"name\":\"loanID\",\"type\":\"uint256\"}],\"name\":\"getLiquidationReward\",\"outputs\":[{\"internalType\":\"uint256\",\"name\":\"inLending_\",\"type\":\"uint256\"},{\"internalType\":\"uint256\",\"name\":\"inCollateral_\",\"type\":\"uint256\"}],\"stateMutability\":\"view\",\"type\":\"function\"},{\"inputs\":[{\"internalType\":\"uint256\",\"name\":\"loanID\",\"type\":\"uint256\"}],\"name\":\"liquidateLoan\",\"outputs\":[],\"stateMutability\":\"nonpayable\",\"type\":\"function\"},{\"inputs\":[{\"internalType\":\"uint256\",\"name\":\"loanID\",\"type\":\"uint256\"},{\"internalType\":\"uint256\",\"name\":\"amount\",\"type\":\"uint256\"}],\"name\":\"repayLoan\",\"outputs\":[],\"stateMutability\":\"nonpayable\",\"type\":\"function\"}],\"devdoc\":{\"events\":{\"LoanLiquidated(uint256,address,address,uint256,uint256)\":{\"params\":{\"borrower\":\"Account address of the borrower\",\"liquidator\":\"Account address of the liquidator\",\"loanID\":\"ID of loan from which collateral was withdrawn\",\"reward\":\"Value in lending token paid out to liquidator\",\"tokensIn\":\"Percentage of the collateral price paid by the liquidator to the lending pool\"}},\"LoanRepaid(uint256,address,uint256,address,uint256)\":{\"params\":{\"amountPaid\":\"Amount of the loan paid back\",\"borrower\":\"Account address of the borrower\",\"loanID\":\"ID of loan from which collateral was withdrawn\",\"payer\":\"Account address of the payer\",\"totalOwed\":\"Total amount of the loan to be repaid\"}}},\"kind\":\"dev\",\"methods\":{\"escrowRepay(uint256,uint256)\":{\"details\":\"If the Escrow's balance of the borrowed token is less than the amount to repay, transfer tokens from the sender's wallet.Only the owner of the Escrow can call this. If someone else wants to make a payment, they should call the loan manager directly.\",\"params\":{\"amount\":\"The amount being repaid.\",\"loanID\":\"The id of the loan being used.\"}},\"getLiquidationReward(uint256)\":{\"params\":{\"loanID\":\"The loan ID to get the info.\"},\"returns\":{\"inCollateral_\":\"The value the liquidator will receive denoted in collateral tokens.\",\"inLending_\":\"The value the liquidator will receive denoted in lending tokens.\"}},\"liquidateLoan(uint256)\":{\"params\":{\"loanID\":\"The ID of the loan to be liquidated\"}},\"repayLoan(uint256,uint256)\":{\"params\":{\"amount\":\"The amount of tokens to pay back to the loan\",\"loanID\":\"The ID of the loan the payment is for\"}}},\"version\":1},\"userdoc\":{\"events\":{\"LoanLiquidated(uint256,address,address,uint256,uint256)\":{\"notice\":\"This event is emitted when a loan has been successfully liquidated\"},\"LoanRepaid(uint256,address,uint256,address,uint256)\":{\"notice\":\"This event is emitted when a loan has been successfully repaid\"}},\"kind\":\"user\",\"methods\":{\"escrowRepay(uint256,uint256)\":{\"notice\":\"Repay this Escrow's loan.\"},\"getLiquidationReward(uint256)\":{\"notice\":\"It gets the current liquidation reward for a given loan.\"},\"liquidateLoan(uint256)\":{\"notice\":\"Liquidate a loan if it is expired or under collateralized\"},\"repayLoan(uint256,uint256)\":{\"notice\":\"Make a payment to a loan\"}},\"version\":1}},\"settings\":{\"compilationTarget\":{\"contracts/market/RepayFacet.sol\":\"RepayFacet\"},\"evmVersion\":\"istanbul\",\"libraries\":{},\"metadata\":{\"bytecodeHash\":\"ipfs\",\"useLiteralContent\":true},\"optimizer\":{\"enabled\":true,\"runs\":200},\"remappings\":[]},\"sources\":{\"@chainlink/contracts/src/v0.8/interfaces/AggregatorInterface.sol\":{\"content\":\"// SPDX-License-Identifier: MIT\\npragma solidity ^0.8.0;\\n\\ninterface AggregatorInterface {\\n  function latestAnswer()\\n    external\\n    view\\n    returns (\\n      int256\\n    );\\n  \\n  function latestTimestamp()\\n    external\\n    view\\n    returns (\\n      uint256\\n    );\\n\\n  function latestRound()\\n    external\\n    view\\n    returns (\\n      uint256\\n    );\\n\\n  function getAnswer(\\n    uint256 roundId\\n  )\\n    external\\n    view\\n    returns (\\n      int256\\n    );\\n\\n  function getTimestamp(\\n    uint256 roundId\\n  )\\n    external\\n    view\\n    returns (\\n      uint256\\n    );\\n\\n  event AnswerUpdated(\\n    int256 indexed current,\\n    uint256 indexed roundId,\\n    uint256 updatedAt\\n  );\\n\\n  event NewRound(\\n    uint256 indexed roundId,\\n    address indexed startedBy,\\n    uint256 startedAt\\n  );\\n}\\n\",\"keccak256\":\"0x1a5dc81544a6479f64437a8aca22c869769dd54ee3522c7ef5ebae0d329a28f0\",\"license\":\"MIT\"},\"@chainlink/contracts/src/v0.8/interfaces/AggregatorV2V3Interface.sol\":{\"content\":\"// SPDX-License-Identifier: MIT\\npragma solidity ^0.8.0;\\n\\nimport \\\"./AggregatorInterface.sol\\\";\\nimport \\\"./AggregatorV3Interface.sol\\\";\\n\\ninterface AggregatorV2V3Interface is AggregatorInterface, AggregatorV3Interface\\n{\\n}\\n\",\"keccak256\":\"0xe8f8d98b515366730824d24269c7267eee7f0288cf737db8659acbb0c751eb53\",\"license\":\"MIT\"},\"@chainlink/contracts/src/v0.8/interfaces/AggregatorV3Interface.sol\":{\"content\":\"// SPDX-License-Identifier: MIT\\npragma solidity ^0.8.0;\\n\\ninterface AggregatorV3Interface {\\n\\n  function decimals()\\n    external\\n    view\\n    returns (\\n      uint8\\n    );\\n\\n  function description()\\n    external\\n    view\\n    returns (\\n      string memory\\n    );\\n\\n  function version()\\n    external\\n    view\\n    returns (\\n      uint256\\n    );\\n\\n  // getRoundData and latestRoundData should both raise \\\"No data present\\\"\\n  // if they do not have data to report, instead of returning unset values\\n  // which could be misinterpreted as actual reported values.\\n  function getRoundData(\\n    uint80 _roundId\\n  )\\n    external\\n    view\\n    returns (\\n      uint80 roundId,\\n      int256 answer,\\n      uint256 startedAt,\\n      uint256 updatedAt,\\n      uint80 answeredInRound\\n    );\\n\\n  function latestRoundData()\\n    external\\n    view\\n    returns (\\n      uint80 roundId,\\n      int256 answer,\\n      uint256 startedAt,\\n      uint256 updatedAt,\\n      uint80 answeredInRound\\n    );\\n\\n}\\n\",\"keccak256\":\"0xe6f5ac8c47f3b9b6135051efb9216f9ba5b312a6ecc20209b4f66a780443c328\",\"license\":\"MIT\"},\"@openzeppelin/contracts-upgradeable/access/AccessControlUpgradeable.sol\":{\"content\":\"// SPDX-License-Identifier: MIT\\n\\npragma solidity ^0.8.0;\\n\\nimport \\\"../utils/ContextUpgradeable.sol\\\";\\nimport \\\"../utils/StringsUpgradeable.sol\\\";\\nimport \\\"../utils/introspection/ERC165Upgradeable.sol\\\";\\nimport \\\"../proxy/utils/Initializable.sol\\\";\\n\\n/**\\n * @dev External interface of AccessControl declared to support ERC165 detection.\\n */\\ninterface IAccessControlUpgradeable {\\n    function hasRole(bytes32 role, address account) external view returns (bool);\\n    function getRoleAdmin(bytes32 role) external view returns (bytes32);\\n    function grantRole(bytes32 role, address account) external;\\n    function revokeRole(bytes32 role, address account) external;\\n    function renounceRole(bytes32 role, address account) external;\\n}\\n\\n/**\\n * @dev Contract module that allows children to implement role-based access\\n * control mechanisms. This is a lightweight version that doesn't allow enumerating role\\n * members except through off-chain means by accessing the contract event logs. Some\\n * applications may benefit from on-chain enumerability, for those cases see\\n * {AccessControlEnumerable}.\\n *\\n * Roles are referred to by their `bytes32` identifier. These should be exposed\\n * in the external API and be unique. The best way to achieve this is by\\n * using `public constant` hash digests:\\n *\\n * ```\\n * bytes32 public constant MY_ROLE = keccak256(\\\"MY_ROLE\\\");\\n * ```\\n *\\n * Roles can be used to represent a set of permissions. To restrict access to a\\n * function call, use {hasRole}:\\n *\\n * ```\\n * function foo() public {\\n *     require(hasRole(MY_ROLE, msg.sender));\\n *     ...\\n * }\\n * ```\\n *\\n * Roles can be granted and revoked dynamically via the {grantRole} and\\n * {revokeRole} functions. Each role has an associated admin role, and only\\n * accounts that have a role's admin role can call {grantRole} and {revokeRole}.\\n *\\n * By default, the admin role for all roles is `DEFAULT_ADMIN_ROLE`, which means\\n * that only accounts with this role will be able to grant or revoke other\\n * roles. More complex role relationships can be created by using\\n * {_setRoleAdmin}.\\n *\\n * WARNING: The `DEFAULT_ADMIN_ROLE` is also its own admin: it has permission to\\n * grant and revoke this role. Extra precautions should be taken to secure\\n * accounts that have been granted it.\\n */\\nabstract contract AccessControlUpgradeable is Initializable, ContextUpgradeable, IAccessControlUpgradeable, ERC165Upgradeable {\\n    function __AccessControl_init() internal initializer {\\n        __Context_init_unchained();\\n        __ERC165_init_unchained();\\n        __AccessControl_init_unchained();\\n    }\\n\\n    function __AccessControl_init_unchained() internal initializer {\\n    }\\n    struct RoleData {\\n        mapping (address => bool) members;\\n        bytes32 adminRole;\\n    }\\n\\n    mapping (bytes32 => RoleData) private _roles;\\n\\n    bytes32 public constant DEFAULT_ADMIN_ROLE = 0x00;\\n\\n    /**\\n     * @dev Emitted when `newAdminRole` is set as ``role``'s admin role, replacing `previousAdminRole`\\n     *\\n     * `DEFAULT_ADMIN_ROLE` is the starting admin for all roles, despite\\n     * {RoleAdminChanged} not being emitted signaling this.\\n     *\\n     * _Available since v3.1._\\n     */\\n    event RoleAdminChanged(bytes32 indexed role, bytes32 indexed previousAdminRole, bytes32 indexed newAdminRole);\\n\\n    /**\\n     * @dev Emitted when `account` is granted `role`.\\n     *\\n     * `sender` is the account that originated the contract call, an admin role\\n     * bearer except when using {_setupRole}.\\n     */\\n    event RoleGranted(bytes32 indexed role, address indexed account, address indexed sender);\\n\\n    /**\\n     * @dev Emitted when `account` is revoked `role`.\\n     *\\n     * `sender` is the account that originated the contract call:\\n     *   - if using `revokeRole`, it is the admin role bearer\\n     *   - if using `renounceRole`, it is the role bearer (i.e. `account`)\\n     */\\n    event RoleRevoked(bytes32 indexed role, address indexed account, address indexed sender);\\n\\n    /**\\n     * @dev Modifier that checks that an account has a specific role. Reverts\\n     * with a standardized message including the required role.\\n     *\\n     * The format of the revert reason is given by the following regular expression:\\n     *\\n     *  /^AccessControl: account (0x[0-9a-f]{20}) is missing role (0x[0-9a-f]{32})$/\\n     *\\n     * _Available since v4.1._\\n     */\\n    modifier onlyRole(bytes32 role) {\\n        _checkRole(role, _msgSender());\\n        _;\\n    }\\n\\n    /**\\n     * @dev See {IERC165-supportsInterface}.\\n     */\\n    function supportsInterface(bytes4 interfaceId) public view virtual override returns (bool) {\\n        return interfaceId == type(IAccessControlUpgradeable).interfaceId\\n            || super.supportsInterface(interfaceId);\\n    }\\n\\n    /**\\n     * @dev Returns `true` if `account` has been granted `role`.\\n     */\\n    function hasRole(bytes32 role, address account) public view override returns (bool) {\\n        return _roles[role].members[account];\\n    }\\n\\n    /**\\n     * @dev Revert with a standard message if `account` is missing `role`.\\n     *\\n     * The format of the revert reason is given by the following regular expression:\\n     *\\n     *  /^AccessControl: account (0x[0-9a-f]{20}) is missing role (0x[0-9a-f]{32})$/\\n     */\\n    function _checkRole(bytes32 role, address account) internal view {\\n        if(!hasRole(role, account)) {\\n            revert(string(abi.encodePacked(\\n                \\\"AccessControl: account \\\",\\n                StringsUpgradeable.toHexString(uint160(account), 20),\\n                \\\" is missing role \\\",\\n                StringsUpgradeable.toHexString(uint256(role), 32)\\n            )));\\n        }\\n    }\\n\\n    /**\\n     * @dev Returns the admin role that controls `role`. See {grantRole} and\\n     * {revokeRole}.\\n     *\\n     * To change a role's admin, use {_setRoleAdmin}.\\n     */\\n    function getRoleAdmin(bytes32 role) public view override returns (bytes32) {\\n        return _roles[role].adminRole;\\n    }\\n\\n    /**\\n     * @dev Grants `role` to `account`.\\n     *\\n     * If `account` had not been already granted `role`, emits a {RoleGranted}\\n     * event.\\n     *\\n     * Requirements:\\n     *\\n     * - the caller must have ``role``'s admin role.\\n     */\\n    function grantRole(bytes32 role, address account) public virtual override onlyRole(getRoleAdmin(role)) {\\n        _grantRole(role, account);\\n    }\\n\\n    /**\\n     * @dev Revokes `role` from `account`.\\n     *\\n     * If `account` had been granted `role`, emits a {RoleRevoked} event.\\n     *\\n     * Requirements:\\n     *\\n     * - the caller must have ``role``'s admin role.\\n     */\\n    function revokeRole(bytes32 role, address account) public virtual override onlyRole(getRoleAdmin(role)) {\\n        _revokeRole(role, account);\\n    }\\n\\n    /**\\n     * @dev Revokes `role` from the calling account.\\n     *\\n     * Roles are often managed via {grantRole} and {revokeRole}: this function's\\n     * purpose is to provide a mechanism for accounts to lose their privileges\\n     * if they are compromised (such as when a trusted device is misplaced).\\n     *\\n     * If the calling account had been granted `role`, emits a {RoleRevoked}\\n     * event.\\n     *\\n     * Requirements:\\n     *\\n     * - the caller must be `account`.\\n     */\\n    function renounceRole(bytes32 role, address account) public virtual override {\\n        require(account == _msgSender(), \\\"AccessControl: can only renounce roles for self\\\");\\n\\n        _revokeRole(role, account);\\n    }\\n\\n    /**\\n     * @dev Grants `role` to `account`.\\n     *\\n     * If `account` had not been already granted `role`, emits a {RoleGranted}\\n     * event. Note that unlike {grantRole}, this function doesn't perform any\\n     * checks on the calling account.\\n     *\\n     * [WARNING]\\n     * ====\\n     * This function should only be called from the constructor when setting\\n     * up the initial roles for the system.\\n     *\\n     * Using this function in any other way is effectively circumventing the admin\\n     * system imposed by {AccessControl}.\\n     * ====\\n     */\\n    function _setupRole(bytes32 role, address account) internal virtual {\\n        _grantRole(role, account);\\n    }\\n\\n    /**\\n     * @dev Sets `adminRole` as ``role``'s admin role.\\n     *\\n     * Emits a {RoleAdminChanged} event.\\n     */\\n    function _setRoleAdmin(bytes32 role, bytes32 adminRole) internal virtual {\\n        emit RoleAdminChanged(role, getRoleAdmin(role), adminRole);\\n        _roles[role].adminRole = adminRole;\\n    }\\n\\n    function _grantRole(bytes32 role, address account) private {\\n        if (!hasRole(role, account)) {\\n            _roles[role].members[account] = true;\\n            emit RoleGranted(role, account, _msgSender());\\n        }\\n    }\\n\\n    function _revokeRole(bytes32 role, address account) private {\\n        if (hasRole(role, account)) {\\n            _roles[role].members[account] = false;\\n            emit RoleRevoked(role, account, _msgSender());\\n        }\\n    }\\n    uint256[49] private __gap;\\n}\\n\",\"keccak256\":\"0x719f71989e630280a6902f857ef2b038d761ef2d0d51611f9da463be6c7c4be5\",\"license\":\"MIT\"},\"@openzeppelin/contracts-upgradeable/proxy/utils/Initializable.sol\":{\"content\":\"// SPDX-License-Identifier: MIT\\n\\n// solhint-disable-next-line compiler-version\\npragma solidity ^0.8.0;\\n\\n/**\\n * @dev This is a base contract to aid in writing upgradeable contracts, or any kind of contract that will be deployed\\n * behind a proxy. Since a proxied contract can't have a constructor, it's common to move constructor logic to an\\n * external initializer function, usually called `initialize`. It then becomes necessary to protect this initializer\\n * function so it can only be called once. The {initializer} modifier provided by this contract will have this effect.\\n *\\n * TIP: To avoid leaving the proxy in an uninitialized state, the initializer function should be called as early as\\n * possible by providing the encoded function call as the `_data` argument to {ERC1967Proxy-constructor}.\\n *\\n * CAUTION: When used with inheritance, manual care must be taken to not invoke a parent initializer twice, or to ensure\\n * that all initializers are idempotent. This is not verified automatically as constructors are by Solidity.\\n */\\nabstract contract Initializable {\\n\\n    /**\\n     * @dev Indicates that the contract has been initialized.\\n     */\\n    bool private _initialized;\\n\\n    /**\\n     * @dev Indicates that the contract is in the process of being initialized.\\n     */\\n    bool private _initializing;\\n\\n    /**\\n     * @dev Modifier to protect an initializer function from being invoked twice.\\n     */\\n    modifier initializer() {\\n        require(_initializing || !_initialized, \\\"Initializable: contract is already initialized\\\");\\n\\n        bool isTopLevelCall = !_initializing;\\n        if (isTopLevelCall) {\\n            _initializing = true;\\n            _initialized = true;\\n        }\\n\\n        _;\\n\\n        if (isTopLevelCall) {\\n            _initializing = false;\\n        }\\n    }\\n}\\n\",\"keccak256\":\"0x67d2f282a9678e58e878a0b774041ba7a01e2740a262aea97a3f681339914713\",\"license\":\"MIT\"},\"@openzeppelin/contracts-upgradeable/token/ERC20/ERC20Upgradeable.sol\":{\"content\":\"// SPDX-License-Identifier: MIT\\n\\npragma solidity ^0.8.0;\\n\\nimport \\\"./IERC20Upgradeable.sol\\\";\\nimport \\\"./extensions/IERC20MetadataUpgradeable.sol\\\";\\nimport \\\"../../utils/ContextUpgradeable.sol\\\";\\nimport \\\"../../proxy/utils/Initializable.sol\\\";\\n\\n/**\\n * @dev Implementation of the {IERC20} interface.\\n *\\n * This implementation is agnostic to the way tokens are created. This means\\n * that a supply mechanism has to be added in a derived contract using {_mint}.\\n * For a generic mechanism see {ERC20PresetMinterPauser}.\\n *\\n * TIP: For a detailed writeup see our guide\\n * https://forum.zeppelin.solutions/t/how-to-implement-erc20-supply-mechanisms/226[How\\n * to implement supply mechanisms].\\n *\\n * We have followed general OpenZeppelin guidelines: functions revert instead\\n * of returning `false` on failure. This behavior is nonetheless conventional\\n * and does not conflict with the expectations of ERC20 applications.\\n *\\n * Additionally, an {Approval} event is emitted on calls to {transferFrom}.\\n * This allows applications to reconstruct the allowance for all accounts just\\n * by listening to said events. Other implementations of the EIP may not emit\\n * these events, as it isn't required by the specification.\\n *\\n * Finally, the non-standard {decreaseAllowance} and {increaseAllowance}\\n * functions have been added to mitigate the well-known issues around setting\\n * allowances. See {IERC20-approve}.\\n */\\ncontract ERC20Upgradeable is Initializable, ContextUpgradeable, IERC20Upgradeable, IERC20MetadataUpgradeable {\\n    mapping (address => uint256) private _balances;\\n\\n    mapping (address => mapping (address => uint256)) private _allowances;\\n\\n    uint256 private _totalSupply;\\n\\n    string private _name;\\n    string private _symbol;\\n\\n    /**\\n     * @dev Sets the values for {name} and {symbol}.\\n     *\\n     * The defaut value of {decimals} is 18. To select a different value for\\n     * {decimals} you should overload it.\\n     *\\n     * All two of these values are immutable: they can only be set once during\\n     * construction.\\n     */\\n    function __ERC20_init(string memory name_, string memory symbol_) internal initializer {\\n        __Context_init_unchained();\\n        __ERC20_init_unchained(name_, symbol_);\\n    }\\n\\n    function __ERC20_init_unchained(string memory name_, string memory symbol_) internal initializer {\\n        _name = name_;\\n        _symbol = symbol_;\\n    }\\n\\n    /**\\n     * @dev Returns the name of the token.\\n     */\\n    function name() public view virtual override returns (string memory) {\\n        return _name;\\n    }\\n\\n    /**\\n     * @dev Returns the symbol of the token, usually a shorter version of the\\n     * name.\\n     */\\n    function symbol() public view virtual override returns (string memory) {\\n        return _symbol;\\n    }\\n\\n    /**\\n     * @dev Returns the number of decimals used to get its user representation.\\n     * For example, if `decimals` equals `2`, a balance of `505` tokens should\\n     * be displayed to a user as `5,05` (`505 / 10 ** 2`).\\n     *\\n     * Tokens usually opt for a value of 18, imitating the relationship between\\n     * Ether and Wei. This is the value {ERC20} uses, unless this function is\\n     * overridden;\\n     *\\n     * NOTE: This information is only used for _display_ purposes: it in\\n     * no way affects any of the arithmetic of the contract, including\\n     * {IERC20-balanceOf} and {IERC20-transfer}.\\n     */\\n    function decimals() public view virtual override returns (uint8) {\\n        return 18;\\n    }\\n\\n    /**\\n     * @dev See {IERC20-totalSupply}.\\n     */\\n    function totalSupply() public view virtual override returns (uint256) {\\n        return _totalSupply;\\n    }\\n\\n    /**\\n     * @dev See {IERC20-balanceOf}.\\n     */\\n    function balanceOf(address account) public view virtual override returns (uint256) {\\n        return _balances[account];\\n    }\\n\\n    /**\\n     * @dev See {IERC20-transfer}.\\n     *\\n     * Requirements:\\n     *\\n     * - `recipient` cannot be the zero address.\\n     * - the caller must have a balance of at least `amount`.\\n     */\\n    function transfer(address recipient, uint256 amount) public virtual override returns (bool) {\\n        _transfer(_msgSender(), recipient, amount);\\n        return true;\\n    }\\n\\n    /**\\n     * @dev See {IERC20-allowance}.\\n     */\\n    function allowance(address owner, address spender) public view virtual override returns (uint256) {\\n        return _allowances[owner][spender];\\n    }\\n\\n    /**\\n     * @dev See {IERC20-approve}.\\n     *\\n     * Requirements:\\n     *\\n     * - `spender` cannot be the zero address.\\n     */\\n    function approve(address spender, uint256 amount) public virtual override returns (bool) {\\n        _approve(_msgSender(), spender, amount);\\n        return true;\\n    }\\n\\n    /**\\n     * @dev See {IERC20-transferFrom}.\\n     *\\n     * Emits an {Approval} event indicating the updated allowance. This is not\\n     * required by the EIP. See the note at the beginning of {ERC20}.\\n     *\\n     * Requirements:\\n     *\\n     * - `sender` and `recipient` cannot be the zero address.\\n     * - `sender` must have a balance of at least `amount`.\\n     * - the caller must have allowance for ``sender``'s tokens of at least\\n     * `amount`.\\n     */\\n    function transferFrom(address sender, address recipient, uint256 amount) public virtual override returns (bool) {\\n        _transfer(sender, recipient, amount);\\n\\n        uint256 currentAllowance = _allowances[sender][_msgSender()];\\n        require(currentAllowance >= amount, \\\"ERC20: transfer amount exceeds allowance\\\");\\n        _approve(sender, _msgSender(), currentAllowance - amount);\\n\\n        return true;\\n    }\\n\\n    /**\\n     * @dev Atomically increases the allowance granted to `spender` by the caller.\\n     *\\n     * This is an alternative to {approve} that can be used as a mitigation for\\n     * problems described in {IERC20-approve}.\\n     *\\n     * Emits an {Approval} event indicating the updated allowance.\\n     *\\n     * Requirements:\\n     *\\n     * - `spender` cannot be the zero address.\\n     */\\n    function increaseAllowance(address spender, uint256 addedValue) public virtual returns (bool) {\\n        _approve(_msgSender(), spender, _allowances[_msgSender()][spender] + addedValue);\\n        return true;\\n    }\\n\\n    /**\\n     * @dev Atomically decreases the allowance granted to `spender` by the caller.\\n     *\\n     * This is an alternative to {approve} that can be used as a mitigation for\\n     * problems described in {IERC20-approve}.\\n     *\\n     * Emits an {Approval} event indicating the updated allowance.\\n     *\\n     * Requirements:\\n     *\\n     * - `spender` cannot be the zero address.\\n     * - `spender` must have allowance for the caller of at least\\n     * `subtractedValue`.\\n     */\\n    function decreaseAllowance(address spender, uint256 subtractedValue) public virtual returns (bool) {\\n        uint256 currentAllowance = _allowances[_msgSender()][spender];\\n        require(currentAllowance >= subtractedValue, \\\"ERC20: decreased allowance below zero\\\");\\n        _approve(_msgSender(), spender, currentAllowance - subtractedValue);\\n\\n        return true;\\n    }\\n\\n    /**\\n     * @dev Moves tokens `amount` from `sender` to `recipient`.\\n     *\\n     * This is internal function is equivalent to {transfer}, and can be used to\\n     * e.g. implement automatic token fees, slashing mechanisms, etc.\\n     *\\n     * Emits a {Transfer} event.\\n     *\\n     * Requirements:\\n     *\\n     * - `sender` cannot be the zero address.\\n     * - `recipient` cannot be the zero address.\\n     * - `sender` must have a balance of at least `amount`.\\n     */\\n    function _transfer(address sender, address recipient, uint256 amount) internal virtual {\\n        require(sender != address(0), \\\"ERC20: transfer from the zero address\\\");\\n        require(recipient != address(0), \\\"ERC20: transfer to the zero address\\\");\\n\\n        _beforeTokenTransfer(sender, recipient, amount);\\n\\n        uint256 senderBalance = _balances[sender];\\n        require(senderBalance >= amount, \\\"ERC20: transfer amount exceeds balance\\\");\\n        _balances[sender] = senderBalance - amount;\\n        _balances[recipient] += amount;\\n\\n        emit Transfer(sender, recipient, amount);\\n    }\\n\\n    /** @dev Creates `amount` tokens and assigns them to `account`, increasing\\n     * the total supply.\\n     *\\n     * Emits a {Transfer} event with `from` set to the zero address.\\n     *\\n     * Requirements:\\n     *\\n     * - `to` cannot be the zero address.\\n     */\\n    function _mint(address account, uint256 amount) internal virtual {\\n        require(account != address(0), \\\"ERC20: mint to the zero address\\\");\\n\\n        _beforeTokenTransfer(address(0), account, amount);\\n\\n        _totalSupply += amount;\\n        _balances[account] += amount;\\n        emit Transfer(address(0), account, amount);\\n    }\\n\\n    /**\\n     * @dev Destroys `amount` tokens from `account`, reducing the\\n     * total supply.\\n     *\\n     * Emits a {Transfer} event with `to` set to the zero address.\\n     *\\n     * Requirements:\\n     *\\n     * - `account` cannot be the zero address.\\n     * - `account` must have at least `amount` tokens.\\n     */\\n    function _burn(address account, uint256 amount) internal virtual {\\n        require(account != address(0), \\\"ERC20: burn from the zero address\\\");\\n\\n        _beforeTokenTransfer(account, address(0), amount);\\n\\n        uint256 accountBalance = _balances[account];\\n        require(accountBalance >= amount, \\\"ERC20: burn amount exceeds balance\\\");\\n        _balances[account] = accountBalance - amount;\\n        _totalSupply -= amount;\\n\\n        emit Transfer(account, address(0), amount);\\n    }\\n\\n    /**\\n     * @dev Sets `amount` as the allowance of `spender` over the `owner` s tokens.\\n     *\\n     * This internal function is equivalent to `approve`, and can be used to\\n     * e.g. set automatic allowances for certain subsystems, etc.\\n     *\\n     * Emits an {Approval} event.\\n     *\\n     * Requirements:\\n     *\\n     * - `owner` cannot be the zero address.\\n     * - `spender` cannot be the zero address.\\n     */\\n    function _approve(address owner, address spender, uint256 amount) internal virtual {\\n        require(owner != address(0), \\\"ERC20: approve from the zero address\\\");\\n        require(spender != address(0), \\\"ERC20: approve to the zero address\\\");\\n\\n        _allowances[owner][spender] = amount;\\n        emit Approval(owner, spender, amount);\\n    }\\n\\n    /**\\n     * @dev Hook that is called before any transfer of tokens. This includes\\n     * minting and burning.\\n     *\\n     * Calling conditions:\\n     *\\n     * - when `from` and `to` are both non-zero, `amount` of ``from``'s tokens\\n     * will be to transferred to `to`.\\n     * - when `from` is zero, `amount` tokens will be minted for `to`.\\n     * - when `to` is zero, `amount` of ``from``'s tokens will be burned.\\n     * - `from` and `to` are never both zero.\\n     *\\n     * To learn more about hooks, head to xref:ROOT:extending-contracts.adoc#using-hooks[Using Hooks].\\n     */\\n    function _beforeTokenTransfer(address from, address to, uint256 amount) internal virtual { }\\n    uint256[45] private __gap;\\n}\\n\",\"keccak256\":\"0x9c2d7425f3343ea340d6ea67e9d90109d4d846bb013c2572096ec88c9e74946b\",\"license\":\"MIT\"},\"@openzeppelin/contracts-upgradeable/token/ERC20/IERC20Upgradeable.sol\":{\"content\":\"// SPDX-License-Identifier: MIT\\n\\npragma solidity ^0.8.0;\\n\\n/**\\n * @dev Interface of the ERC20 standard as defined in the EIP.\\n */\\ninterface IERC20Upgradeable {\\n    /**\\n     * @dev Returns the amount of tokens in existence.\\n     */\\n    function totalSupply() external view returns (uint256);\\n\\n    /**\\n     * @dev Returns the amount of tokens owned by `account`.\\n     */\\n    function balanceOf(address account) external view returns (uint256);\\n\\n    /**\\n     * @dev Moves `amount` tokens from the caller's account to `recipient`.\\n     *\\n     * Returns a boolean value indicating whether the operation succeeded.\\n     *\\n     * Emits a {Transfer} event.\\n     */\\n    function transfer(address recipient, uint256 amount) external returns (bool);\\n\\n    /**\\n     * @dev Returns the remaining number of tokens that `spender` will be\\n     * allowed to spend on behalf of `owner` through {transferFrom}. This is\\n     * zero by default.\\n     *\\n     * This value changes when {approve} or {transferFrom} are called.\\n     */\\n    function allowance(address owner, address spender) external view returns (uint256);\\n\\n    /**\\n     * @dev Sets `amount` as the allowance of `spender` over the caller's tokens.\\n     *\\n     * Returns a boolean value indicating whether the operation succeeded.\\n     *\\n     * IMPORTANT: Beware that changing an allowance with this method brings the risk\\n     * that someone may use both the old and the new allowance by unfortunate\\n     * transaction ordering. One possible solution to mitigate this race\\n     * condition is to first reduce the spender's allowance to 0 and set the\\n     * desired value afterwards:\\n     * https://github.com/ethereum/EIPs/issues/20#issuecomment-263524729\\n     *\\n     * Emits an {Approval} event.\\n     */\\n    function approve(address spender, uint256 amount) external returns (bool);\\n\\n    /**\\n     * @dev Moves `amount` tokens from `sender` to `recipient` using the\\n     * allowance mechanism. `amount` is then deducted from the caller's\\n     * allowance.\\n     *\\n     * Returns a boolean value indicating whether the operation succeeded.\\n     *\\n     * Emits a {Transfer} event.\\n     */\\n    function transferFrom(address sender, address recipient, uint256 amount) external returns (bool);\\n\\n    /**\\n     * @dev Emitted when `value` tokens are moved from one account (`from`) to\\n     * another (`to`).\\n     *\\n     * Note that `value` may be zero.\\n     */\\n    event Transfer(address indexed from, address indexed to, uint256 value);\\n\\n    /**\\n     * @dev Emitted when the allowance of a `spender` for an `owner` is set by\\n     * a call to {approve}. `value` is the new allowance.\\n     */\\n    event Approval(address indexed owner, address indexed spender, uint256 value);\\n}\\n\",\"keccak256\":\"0x8d4a0f2b5b760b5e2c19ed3c108d83897a4dfd5bfed97a93867918df19191e5e\",\"license\":\"MIT\"},\"@openzeppelin/contracts-upgradeable/token/ERC20/extensions/IERC20MetadataUpgradeable.sol\":{\"content\":\"// SPDX-License-Identifier: MIT\\n\\npragma solidity ^0.8.0;\\n\\nimport \\\"../IERC20Upgradeable.sol\\\";\\n\\n/**\\n * @dev Interface for the optional metadata functions from the ERC20 standard.\\n *\\n * _Available since v4.1._\\n */\\ninterface IERC20MetadataUpgradeable is IERC20Upgradeable {\\n    /**\\n     * @dev Returns the name of the token.\\n     */\\n    function name() external view returns (string memory);\\n\\n    /**\\n     * @dev Returns the symbol of the token.\\n     */\\n    function symbol() external view returns (string memory);\\n\\n    /**\\n     * @dev Returns the decimals places of the token.\\n     */\\n    function decimals() external view returns (uint8);\\n}\\n\",\"keccak256\":\"0x6795c369a4eefa78468e38966f7851fbc2dda5e5b9ccd3fa2b45970e2e4d3abd\",\"license\":\"MIT\"},\"@openzeppelin/contracts-upgradeable/token/ERC721/ERC721Upgradeable.sol\":{\"content\":\"// SPDX-License-Identifier: MIT\\n\\npragma solidity ^0.8.0;\\n\\nimport \\\"./IERC721Upgradeable.sol\\\";\\nimport \\\"./IERC721ReceiverUpgradeable.sol\\\";\\nimport \\\"./extensions/IERC721MetadataUpgradeable.sol\\\";\\nimport \\\"../../utils/AddressUpgradeable.sol\\\";\\nimport \\\"../../utils/ContextUpgradeable.sol\\\";\\nimport \\\"../../utils/StringsUpgradeable.sol\\\";\\nimport \\\"../../utils/introspection/ERC165Upgradeable.sol\\\";\\nimport \\\"../../proxy/utils/Initializable.sol\\\";\\n\\n/**\\n * @dev Implementation of https://eips.ethereum.org/EIPS/eip-721[ERC721] Non-Fungible Token Standard, including\\n * the Metadata extension, but not including the Enumerable extension, which is available separately as\\n * {ERC721Enumerable}.\\n */\\ncontract ERC721Upgradeable is Initializable, ContextUpgradeable, ERC165Upgradeable, IERC721Upgradeable, IERC721MetadataUpgradeable {\\n    using AddressUpgradeable for address;\\n    using StringsUpgradeable for uint256;\\n\\n    // Token name\\n    string private _name;\\n\\n    // Token symbol\\n    string private _symbol;\\n\\n    // Mapping from token ID to owner address\\n    mapping (uint256 => address) private _owners;\\n\\n    // Mapping owner address to token count\\n    mapping (address => uint256) private _balances;\\n\\n    // Mapping from token ID to approved address\\n    mapping (uint256 => address) private _tokenApprovals;\\n\\n    // Mapping from owner to operator approvals\\n    mapping (address => mapping (address => bool)) private _operatorApprovals;\\n\\n    /**\\n     * @dev Initializes the contract by setting a `name` and a `symbol` to the token collection.\\n     */\\n    function __ERC721_init(string memory name_, string memory symbol_) internal initializer {\\n        __Context_init_unchained();\\n        __ERC165_init_unchained();\\n        __ERC721_init_unchained(name_, symbol_);\\n    }\\n\\n    function __ERC721_init_unchained(string memory name_, string memory symbol_) internal initializer {\\n        _name = name_;\\n        _symbol = symbol_;\\n    }\\n\\n    /**\\n     * @dev See {IERC165-supportsInterface}.\\n     */\\n    function supportsInterface(bytes4 interfaceId) public view virtual override(ERC165Upgradeable, IERC165Upgradeable) returns (bool) {\\n        return interfaceId == type(IERC721Upgradeable).interfaceId\\n            || interfaceId == type(IERC721MetadataUpgradeable).interfaceId\\n            || super.supportsInterface(interfaceId);\\n    }\\n\\n    /**\\n     * @dev See {IERC721-balanceOf}.\\n     */\\n    function balanceOf(address owner) public view virtual override returns (uint256) {\\n        require(owner != address(0), \\\"ERC721: balance query for the zero address\\\");\\n        return _balances[owner];\\n    }\\n\\n    /**\\n     * @dev See {IERC721-ownerOf}.\\n     */\\n    function ownerOf(uint256 tokenId) public view virtual override returns (address) {\\n        address owner = _owners[tokenId];\\n        require(owner != address(0), \\\"ERC721: owner query for nonexistent token\\\");\\n        return owner;\\n    }\\n\\n    /**\\n     * @dev See {IERC721Metadata-name}.\\n     */\\n    function name() public view virtual override returns (string memory) {\\n        return _name;\\n    }\\n\\n    /**\\n     * @dev See {IERC721Metadata-symbol}.\\n     */\\n    function symbol() public view virtual override returns (string memory) {\\n        return _symbol;\\n    }\\n\\n    /**\\n     * @dev See {IERC721Metadata-tokenURI}.\\n     */\\n    function tokenURI(uint256 tokenId) public view virtual override returns (string memory) {\\n        require(_exists(tokenId), \\\"ERC721Metadata: URI query for nonexistent token\\\");\\n\\n        string memory baseURI = _baseURI();\\n        return bytes(baseURI).length > 0\\n            ? string(abi.encodePacked(baseURI, tokenId.toString()))\\n            : '';\\n    }\\n\\n    /**\\n     * @dev Base URI for computing {tokenURI}. Empty by default, can be overriden\\n     * in child contracts.\\n     */\\n    function _baseURI() internal view virtual returns (string memory) {\\n        return \\\"\\\";\\n    }\\n\\n    /**\\n     * @dev See {IERC721-approve}.\\n     */\\n    function approve(address to, uint256 tokenId) public virtual override {\\n        address owner = ERC721Upgradeable.ownerOf(tokenId);\\n        require(to != owner, \\\"ERC721: approval to current owner\\\");\\n\\n        require(_msgSender() == owner || isApprovedForAll(owner, _msgSender()),\\n            \\\"ERC721: approve caller is not owner nor approved for all\\\"\\n        );\\n\\n        _approve(to, tokenId);\\n    }\\n\\n    /**\\n     * @dev See {IERC721-getApproved}.\\n     */\\n    function getApproved(uint256 tokenId) public view virtual override returns (address) {\\n        require(_exists(tokenId), \\\"ERC721: approved query for nonexistent token\\\");\\n\\n        return _tokenApprovals[tokenId];\\n    }\\n\\n    /**\\n     * @dev See {IERC721-setApprovalForAll}.\\n     */\\n    function setApprovalForAll(address operator, bool approved) public virtual override {\\n        require(operator != _msgSender(), \\\"ERC721: approve to caller\\\");\\n\\n        _operatorApprovals[_msgSender()][operator] = approved;\\n        emit ApprovalForAll(_msgSender(), operator, approved);\\n    }\\n\\n    /**\\n     * @dev See {IERC721-isApprovedForAll}.\\n     */\\n    function isApprovedForAll(address owner, address operator) public view virtual override returns (bool) {\\n        return _operatorApprovals[owner][operator];\\n    }\\n\\n    /**\\n     * @dev See {IERC721-transferFrom}.\\n     */\\n    function transferFrom(address from, address to, uint256 tokenId) public virtual override {\\n        //solhint-disable-next-line max-line-length\\n        require(_isApprovedOrOwner(_msgSender(), tokenId), \\\"ERC721: transfer caller is not owner nor approved\\\");\\n\\n        _transfer(from, to, tokenId);\\n    }\\n\\n    /**\\n     * @dev See {IERC721-safeTransferFrom}.\\n     */\\n    function safeTransferFrom(address from, address to, uint256 tokenId) public virtual override {\\n        safeTransferFrom(from, to, tokenId, \\\"\\\");\\n    }\\n\\n    /**\\n     * @dev See {IERC721-safeTransferFrom}.\\n     */\\n    function safeTransferFrom(address from, address to, uint256 tokenId, bytes memory _data) public virtual override {\\n        require(_isApprovedOrOwner(_msgSender(), tokenId), \\\"ERC721: transfer caller is not owner nor approved\\\");\\n        _safeTransfer(from, to, tokenId, _data);\\n    }\\n\\n    /**\\n     * @dev Safely transfers `tokenId` token from `from` to `to`, checking first that contract recipients\\n     * are aware of the ERC721 protocol to prevent tokens from being forever locked.\\n     *\\n     * `_data` is additional data, it has no specified format and it is sent in call to `to`.\\n     *\\n     * This internal function is equivalent to {safeTransferFrom}, and can be used to e.g.\\n     * implement alternative mechanisms to perform token transfer, such as signature-based.\\n     *\\n     * Requirements:\\n     *\\n     * - `from` cannot be the zero address.\\n     * - `to` cannot be the zero address.\\n     * - `tokenId` token must exist and be owned by `from`.\\n     * - If `to` refers to a smart contract, it must implement {IERC721Receiver-onERC721Received}, which is called upon a safe transfer.\\n     *\\n     * Emits a {Transfer} event.\\n     */\\n    function _safeTransfer(address from, address to, uint256 tokenId, bytes memory _data) internal virtual {\\n        _transfer(from, to, tokenId);\\n        require(_checkOnERC721Received(from, to, tokenId, _data), \\\"ERC721: transfer to non ERC721Receiver implementer\\\");\\n    }\\n\\n    /**\\n     * @dev Returns whether `tokenId` exists.\\n     *\\n     * Tokens can be managed by their owner or approved accounts via {approve} or {setApprovalForAll}.\\n     *\\n     * Tokens start existing when they are minted (`_mint`),\\n     * and stop existing when they are burned (`_burn`).\\n     */\\n    function _exists(uint256 tokenId) internal view virtual returns (bool) {\\n        return _owners[tokenId] != address(0);\\n    }\\n\\n    /**\\n     * @dev Returns whether `spender` is allowed to manage `tokenId`.\\n     *\\n     * Requirements:\\n     *\\n     * - `tokenId` must exist.\\n     */\\n    function _isApprovedOrOwner(address spender, uint256 tokenId) internal view virtual returns (bool) {\\n        require(_exists(tokenId), \\\"ERC721: operator query for nonexistent token\\\");\\n        address owner = ERC721Upgradeable.ownerOf(tokenId);\\n        return (spender == owner || getApproved(tokenId) == spender || isApprovedForAll(owner, spender));\\n    }\\n\\n    /**\\n     * @dev Safely mints `tokenId` and transfers it to `to`.\\n     *\\n     * Requirements:\\n     *\\n     * - `tokenId` must not exist.\\n     * - If `to` refers to a smart contract, it must implement {IERC721Receiver-onERC721Received}, which is called upon a safe transfer.\\n     *\\n     * Emits a {Transfer} event.\\n     */\\n    function _safeMint(address to, uint256 tokenId) internal virtual {\\n        _safeMint(to, tokenId, \\\"\\\");\\n    }\\n\\n    /**\\n     * @dev Same as {xref-ERC721-_safeMint-address-uint256-}[`_safeMint`], with an additional `data` parameter which is\\n     * forwarded in {IERC721Receiver-onERC721Received} to contract recipients.\\n     */\\n    function _safeMint(address to, uint256 tokenId, bytes memory _data) internal virtual {\\n        _mint(to, tokenId);\\n        require(_checkOnERC721Received(address(0), to, tokenId, _data), \\\"ERC721: transfer to non ERC721Receiver implementer\\\");\\n    }\\n\\n    /**\\n     * @dev Mints `tokenId` and transfers it to `to`.\\n     *\\n     * WARNING: Usage of this method is discouraged, use {_safeMint} whenever possible\\n     *\\n     * Requirements:\\n     *\\n     * - `tokenId` must not exist.\\n     * - `to` cannot be the zero address.\\n     *\\n     * Emits a {Transfer} event.\\n     */\\n    function _mint(address to, uint256 tokenId) internal virtual {\\n        require(to != address(0), \\\"ERC721: mint to the zero address\\\");\\n        require(!_exists(tokenId), \\\"ERC721: token already minted\\\");\\n\\n        _beforeTokenTransfer(address(0), to, tokenId);\\n\\n        _balances[to] += 1;\\n        _owners[tokenId] = to;\\n\\n        emit Transfer(address(0), to, tokenId);\\n    }\\n\\n    /**\\n     * @dev Destroys `tokenId`.\\n     * The approval is cleared when the token is burned.\\n     *\\n     * Requirements:\\n     *\\n     * - `tokenId` must exist.\\n     *\\n     * Emits a {Transfer} event.\\n     */\\n    function _burn(uint256 tokenId) internal virtual {\\n        address owner = ERC721Upgradeable.ownerOf(tokenId);\\n\\n        _beforeTokenTransfer(owner, address(0), tokenId);\\n\\n        // Clear approvals\\n        _approve(address(0), tokenId);\\n\\n        _balances[owner] -= 1;\\n        delete _owners[tokenId];\\n\\n        emit Transfer(owner, address(0), tokenId);\\n    }\\n\\n    /**\\n     * @dev Transfers `tokenId` from `from` to `to`.\\n     *  As opposed to {transferFrom}, this imposes no restrictions on msg.sender.\\n     *\\n     * Requirements:\\n     *\\n     * - `to` cannot be the zero address.\\n     * - `tokenId` token must be owned by `from`.\\n     *\\n     * Emits a {Transfer} event.\\n     */\\n    function _transfer(address from, address to, uint256 tokenId) internal virtual {\\n        require(ERC721Upgradeable.ownerOf(tokenId) == from, \\\"ERC721: transfer of token that is not own\\\");\\n        require(to != address(0), \\\"ERC721: transfer to the zero address\\\");\\n\\n        _beforeTokenTransfer(from, to, tokenId);\\n\\n        // Clear approvals from the previous owner\\n        _approve(address(0), tokenId);\\n\\n        _balances[from] -= 1;\\n        _balances[to] += 1;\\n        _owners[tokenId] = to;\\n\\n        emit Transfer(from, to, tokenId);\\n    }\\n\\n    /**\\n     * @dev Approve `to` to operate on `tokenId`\\n     *\\n     * Emits a {Approval} event.\\n     */\\n    function _approve(address to, uint256 tokenId) internal virtual {\\n        _tokenApprovals[tokenId] = to;\\n        emit Approval(ERC721Upgradeable.ownerOf(tokenId), to, tokenId);\\n    }\\n\\n    /**\\n     * @dev Internal function to invoke {IERC721Receiver-onERC721Received} on a target address.\\n     * The call is not executed if the target address is not a contract.\\n     *\\n     * @param from address representing the previous owner of the given token ID\\n     * @param to target address that will receive the tokens\\n     * @param tokenId uint256 ID of the token to be transferred\\n     * @param _data bytes optional data to send along with the call\\n     * @return bool whether the call correctly returned the expected magic value\\n     */\\n    function _checkOnERC721Received(address from, address to, uint256 tokenId, bytes memory _data)\\n        private returns (bool)\\n    {\\n        if (to.isContract()) {\\n            try IERC721ReceiverUpgradeable(to).onERC721Received(_msgSender(), from, tokenId, _data) returns (bytes4 retval) {\\n                return retval == IERC721ReceiverUpgradeable(to).onERC721Received.selector;\\n            } catch (bytes memory reason) {\\n                if (reason.length == 0) {\\n                    revert(\\\"ERC721: transfer to non ERC721Receiver implementer\\\");\\n                } else {\\n                    // solhint-disable-next-line no-inline-assembly\\n                    assembly {\\n                        revert(add(32, reason), mload(reason))\\n                    }\\n                }\\n            }\\n        } else {\\n            return true;\\n        }\\n    }\\n\\n    /**\\n     * @dev Hook that is called before any token transfer. This includes minting\\n     * and burning.\\n     *\\n     * Calling conditions:\\n     *\\n     * - When `from` and `to` are both non-zero, ``from``'s `tokenId` will be\\n     * transferred to `to`.\\n     * - When `from` is zero, `tokenId` will be minted for `to`.\\n     * - When `to` is zero, ``from``'s `tokenId` will be burned.\\n     * - `from` cannot be the zero address.\\n     * - `to` cannot be the zero address.\\n     *\\n     * To learn more about hooks, head to xref:ROOT:extending-contracts.adoc#using-hooks[Using Hooks].\\n     */\\n    function _beforeTokenTransfer(address from, address to, uint256 tokenId) internal virtual { }\\n    uint256[44] private __gap;\\n}\\n\",\"keccak256\":\"0x2ab92ebd3f4d4d85f30b39bd678ec3489e00aadd0a432c7a0ffa98adc2799004\",\"license\":\"MIT\"},\"@openzeppelin/contracts-upgradeable/token/ERC721/IERC721ReceiverUpgradeable.sol\":{\"content\":\"// SPDX-License-Identifier: MIT\\n\\npragma solidity ^0.8.0;\\n\\n/**\\n * @title ERC721 token receiver interface\\n * @dev Interface for any contract that wants to support safeTransfers\\n * from ERC721 asset contracts.\\n */\\ninterface IERC721ReceiverUpgradeable {\\n    /**\\n     * @dev Whenever an {IERC721} `tokenId` token is transferred to this contract via {IERC721-safeTransferFrom}\\n     * by `operator` from `from`, this function is called.\\n     *\\n     * It must return its Solidity selector to confirm the token transfer.\\n     * If any other value is returned or the interface is not implemented by the recipient, the transfer will be reverted.\\n     *\\n     * The selector can be obtained in Solidity with `IERC721.onERC721Received.selector`.\\n     */\\n    function onERC721Received(address operator, address from, uint256 tokenId, bytes calldata data) external returns (bytes4);\\n}\\n\",\"keccak256\":\"0x33620beff0655c5e728a72fff76fb6ce2dc32fc6b61eb8e435b12ed1adf31525\",\"license\":\"MIT\"},\"@openzeppelin/contracts-upgradeable/token/ERC721/IERC721Upgradeable.sol\":{\"content\":\"// SPDX-License-Identifier: MIT\\n\\npragma solidity ^0.8.0;\\n\\nimport \\\"../../utils/introspection/IERC165Upgradeable.sol\\\";\\n\\n/**\\n * @dev Required interface of an ERC721 compliant contract.\\n */\\ninterface IERC721Upgradeable is IERC165Upgradeable {\\n    /**\\n     * @dev Emitted when `tokenId` token is transferred from `from` to `to`.\\n     */\\n    event Transfer(address indexed from, address indexed to, uint256 indexed tokenId);\\n\\n    /**\\n     * @dev Emitted when `owner` enables `approved` to manage the `tokenId` token.\\n     */\\n    event Approval(address indexed owner, address indexed approved, uint256 indexed tokenId);\\n\\n    /**\\n     * @dev Emitted when `owner` enables or disables (`approved`) `operator` to manage all of its assets.\\n     */\\n    event ApprovalForAll(address indexed owner, address indexed operator, bool approved);\\n\\n    /**\\n     * @dev Returns the number of tokens in ``owner``'s account.\\n     */\\n    function balanceOf(address owner) external view returns (uint256 balance);\\n\\n    /**\\n     * @dev Returns the owner of the `tokenId` token.\\n     *\\n     * Requirements:\\n     *\\n     * - `tokenId` must exist.\\n     */\\n    function ownerOf(uint256 tokenId) external view returns (address owner);\\n\\n    /**\\n     * @dev Safely transfers `tokenId` token from `from` to `to`, checking first that contract recipients\\n     * are aware of the ERC721 protocol to prevent tokens from being forever locked.\\n     *\\n     * Requirements:\\n     *\\n     * - `from` cannot be the zero address.\\n     * - `to` cannot be the zero address.\\n     * - `tokenId` token must exist and be owned by `from`.\\n     * - If the caller is not `from`, it must be have been allowed to move this token by either {approve} or {setApprovalForAll}.\\n     * - If `to` refers to a smart contract, it must implement {IERC721Receiver-onERC721Received}, which is called upon a safe transfer.\\n     *\\n     * Emits a {Transfer} event.\\n     */\\n    function safeTransferFrom(address from, address to, uint256 tokenId) external;\\n\\n    /**\\n     * @dev Transfers `tokenId` token from `from` to `to`.\\n     *\\n     * WARNING: Usage of this method is discouraged, use {safeTransferFrom} whenever possible.\\n     *\\n     * Requirements:\\n     *\\n     * - `from` cannot be the zero address.\\n     * - `to` cannot be the zero address.\\n     * - `tokenId` token must be owned by `from`.\\n     * - If the caller is not `from`, it must be approved to move this token by either {approve} or {setApprovalForAll}.\\n     *\\n     * Emits a {Transfer} event.\\n     */\\n    function transferFrom(address from, address to, uint256 tokenId) external;\\n\\n    /**\\n     * @dev Gives permission to `to` to transfer `tokenId` token to another account.\\n     * The approval is cleared when the token is transferred.\\n     *\\n     * Only a single account can be approved at a time, so approving the zero address clears previous approvals.\\n     *\\n     * Requirements:\\n     *\\n     * - The caller must own the token or be an approved operator.\\n     * - `tokenId` must exist.\\n     *\\n     * Emits an {Approval} event.\\n     */\\n    function approve(address to, uint256 tokenId) external;\\n\\n    /**\\n     * @dev Returns the account approved for `tokenId` token.\\n     *\\n     * Requirements:\\n     *\\n     * - `tokenId` must exist.\\n     */\\n    function getApproved(uint256 tokenId) external view returns (address operator);\\n\\n    /**\\n     * @dev Approve or remove `operator` as an operator for the caller.\\n     * Operators can call {transferFrom} or {safeTransferFrom} for any token owned by the caller.\\n     *\\n     * Requirements:\\n     *\\n     * - The `operator` cannot be the caller.\\n     *\\n     * Emits an {ApprovalForAll} event.\\n     */\\n    function setApprovalForAll(address operator, bool _approved) external;\\n\\n    /**\\n     * @dev Returns if the `operator` is allowed to manage all of the assets of `owner`.\\n     *\\n     * See {setApprovalForAll}\\n     */\\n    function isApprovedForAll(address owner, address operator) external view returns (bool);\\n\\n    /**\\n      * @dev Safely transfers `tokenId` token from `from` to `to`.\\n      *\\n      * Requirements:\\n      *\\n      * - `from` cannot be the zero address.\\n      * - `to` cannot be the zero address.\\n      * - `tokenId` token must exist and be owned by `from`.\\n      * - If the caller is not `from`, it must be approved to move this token by either {approve} or {setApprovalForAll}.\\n      * - If `to` refers to a smart contract, it must implement {IERC721Receiver-onERC721Received}, which is called upon a safe transfer.\\n      *\\n      * Emits a {Transfer} event.\\n      */\\n    function safeTransferFrom(address from, address to, uint256 tokenId, bytes calldata data) external;\\n}\\n\",\"keccak256\":\"0x9ef7f2874f4a491f253a81eb4c5b9a7b6467a287aa0c32ac3dd684260a3cd7ad\",\"license\":\"MIT\"},\"@openzeppelin/contracts-upgradeable/token/ERC721/extensions/IERC721MetadataUpgradeable.sol\":{\"content\":\"// SPDX-License-Identifier: MIT\\n\\npragma solidity ^0.8.0;\\n\\nimport \\\"../IERC721Upgradeable.sol\\\";\\n\\n/**\\n * @title ERC-721 Non-Fungible Token Standard, optional metadata extension\\n * @dev See https://eips.ethereum.org/EIPS/eip-721\\n */\\ninterface IERC721MetadataUpgradeable is IERC721Upgradeable {\\n\\n    /**\\n     * @dev Returns the token collection name.\\n     */\\n    function name() external view returns (string memory);\\n\\n    /**\\n     * @dev Returns the token collection symbol.\\n     */\\n    function symbol() external view returns (string memory);\\n\\n    /**\\n     * @dev Returns the Uniform Resource Identifier (URI) for `tokenId` token.\\n     */\\n    function tokenURI(uint256 tokenId) external view returns (string memory);\\n}\\n\",\"keccak256\":\"0x64581a092c059ab0cb74f473545e379b8a88f36a6a57f805515ef8c6ae061847\",\"license\":\"MIT\"},\"@openzeppelin/contracts-upgradeable/utils/AddressUpgradeable.sol\":{\"content\":\"// SPDX-License-Identifier: MIT\\n\\npragma solidity ^0.8.0;\\n\\n/**\\n * @dev Collection of functions related to the address type\\n */\\nlibrary AddressUpgradeable {\\n    /**\\n     * @dev Returns true if `account` is a contract.\\n     *\\n     * [IMPORTANT]\\n     * ====\\n     * It is unsafe to assume that an address for which this function returns\\n     * false is an externally-owned account (EOA) and not a contract.\\n     *\\n     * Among others, `isContract` will return false for the following\\n     * types of addresses:\\n     *\\n     *  - an externally-owned account\\n     *  - a contract in construction\\n     *  - an address where a contract will be created\\n     *  - an address where a contract lived, but was destroyed\\n     * ====\\n     */\\n    function isContract(address account) internal view returns (bool) {\\n        // This method relies on extcodesize, which returns 0 for contracts in\\n        // construction, since the code is only stored at the end of the\\n        // constructor execution.\\n\\n        uint256 size;\\n        // solhint-disable-next-line no-inline-assembly\\n        assembly { size := extcodesize(account) }\\n        return size > 0;\\n    }\\n\\n    /**\\n     * @dev Replacement for Solidity's `transfer`: sends `amount` wei to\\n     * `recipient`, forwarding all available gas and reverting on errors.\\n     *\\n     * https://eips.ethereum.org/EIPS/eip-1884[EIP1884] increases the gas cost\\n     * of certain opcodes, possibly making contracts go over the 2300 gas limit\\n     * imposed by `transfer`, making them unable to receive funds via\\n     * `transfer`. {sendValue} removes this limitation.\\n     *\\n     * https://diligence.consensys.net/posts/2019/09/stop-using-soliditys-transfer-now/[Learn more].\\n     *\\n     * IMPORTANT: because control is transferred to `recipient`, care must be\\n     * taken to not create reentrancy vulnerabilities. Consider using\\n     * {ReentrancyGuard} or the\\n     * https://solidity.readthedocs.io/en/v0.5.11/security-considerations.html#use-the-checks-effects-interactions-pattern[checks-effects-interactions pattern].\\n     */\\n    function sendValue(address payable recipient, uint256 amount) internal {\\n        require(address(this).balance >= amount, \\\"Address: insufficient balance\\\");\\n\\n        // solhint-disable-next-line avoid-low-level-calls, avoid-call-value\\n        (bool success, ) = recipient.call{ value: amount }(\\\"\\\");\\n        require(success, \\\"Address: unable to send value, recipient may have reverted\\\");\\n    }\\n\\n    /**\\n     * @dev Performs a Solidity function call using a low level `call`. A\\n     * plain`call` is an unsafe replacement for a function call: use this\\n     * function instead.\\n     *\\n     * If `target` reverts with a revert reason, it is bubbled up by this\\n     * function (like regular Solidity function calls).\\n     *\\n     * Returns the raw returned data. To convert to the expected return value,\\n     * use https://solidity.readthedocs.io/en/latest/units-and-global-variables.html?highlight=abi.decode#abi-encoding-and-decoding-functions[`abi.decode`].\\n     *\\n     * Requirements:\\n     *\\n     * - `target` must be a contract.\\n     * - calling `target` with `data` must not revert.\\n     *\\n     * _Available since v3.1._\\n     */\\n    function functionCall(address target, bytes memory data) internal returns (bytes memory) {\\n      return functionCall(target, data, \\\"Address: low-level call failed\\\");\\n    }\\n\\n    /**\\n     * @dev Same as {xref-Address-functionCall-address-bytes-}[`functionCall`], but with\\n     * `errorMessage` as a fallback revert reason when `target` reverts.\\n     *\\n     * _Available since v3.1._\\n     */\\n    function functionCall(address target, bytes memory data, string memory errorMessage) internal returns (bytes memory) {\\n        return functionCallWithValue(target, data, 0, errorMessage);\\n    }\\n\\n    /**\\n     * @dev Same as {xref-Address-functionCall-address-bytes-}[`functionCall`],\\n     * but also transferring `value` wei to `target`.\\n     *\\n     * Requirements:\\n     *\\n     * - the calling contract must have an ETH balance of at least `value`.\\n     * - the called Solidity function must be `payable`.\\n     *\\n     * _Available since v3.1._\\n     */\\n    function functionCallWithValue(address target, bytes memory data, uint256 value) internal returns (bytes memory) {\\n        return functionCallWithValue(target, data, value, \\\"Address: low-level call with value failed\\\");\\n    }\\n\\n    /**\\n     * @dev Same as {xref-Address-functionCallWithValue-address-bytes-uint256-}[`functionCallWithValue`], but\\n     * with `errorMessage` as a fallback revert reason when `target` reverts.\\n     *\\n     * _Available since v3.1._\\n     */\\n    function functionCallWithValue(address target, bytes memory data, uint256 value, string memory errorMessage) internal returns (bytes memory) {\\n        require(address(this).balance >= value, \\\"Address: insufficient balance for call\\\");\\n        require(isContract(target), \\\"Address: call to non-contract\\\");\\n\\n        // solhint-disable-next-line avoid-low-level-calls\\n        (bool success, bytes memory returndata) = target.call{ value: value }(data);\\n        return _verifyCallResult(success, returndata, errorMessage);\\n    }\\n\\n    /**\\n     * @dev Same as {xref-Address-functionCall-address-bytes-}[`functionCall`],\\n     * but performing a static call.\\n     *\\n     * _Available since v3.3._\\n     */\\n    function functionStaticCall(address target, bytes memory data) internal view returns (bytes memory) {\\n        return functionStaticCall(target, data, \\\"Address: low-level static call failed\\\");\\n    }\\n\\n    /**\\n     * @dev Same as {xref-Address-functionCall-address-bytes-string-}[`functionCall`],\\n     * but performing a static call.\\n     *\\n     * _Available since v3.3._\\n     */\\n    function functionStaticCall(address target, bytes memory data, string memory errorMessage) internal view returns (bytes memory) {\\n        require(isContract(target), \\\"Address: static call to non-contract\\\");\\n\\n        // solhint-disable-next-line avoid-low-level-calls\\n        (bool success, bytes memory returndata) = target.staticcall(data);\\n        return _verifyCallResult(success, returndata, errorMessage);\\n    }\\n\\n    function _verifyCallResult(bool success, bytes memory returndata, string memory errorMessage) private pure returns(bytes memory) {\\n        if (success) {\\n            return returndata;\\n        } else {\\n            // Look for revert reason and bubble it up if present\\n            if (returndata.length > 0) {\\n                // The easiest way to bubble the revert reason is using memory via assembly\\n\\n                // solhint-disable-next-line no-inline-assembly\\n                assembly {\\n                    let returndata_size := mload(returndata)\\n                    revert(add(32, returndata), returndata_size)\\n                }\\n            } else {\\n                revert(errorMessage);\\n            }\\n        }\\n    }\\n}\\n\",\"keccak256\":\"0x5642ae1d6b33c5c0b71a8412c6c64cbcf2468b84a002bee3e33cdb5644d25cdb\",\"license\":\"MIT\"},\"@openzeppelin/contracts-upgradeable/utils/ContextUpgradeable.sol\":{\"content\":\"// SPDX-License-Identifier: MIT\\n\\npragma solidity ^0.8.0;\\nimport \\\"../proxy/utils/Initializable.sol\\\";\\n\\n/*\\n * @dev Provides information about the current execution context, including the\\n * sender of the transaction and its data. While these are generally available\\n * via msg.sender and msg.data, they should not be accessed in such a direct\\n * manner, since when dealing with meta-transactions the account sending and\\n * paying for execution may not be the actual sender (as far as an application\\n * is concerned).\\n *\\n * This contract is only required for intermediate, library-like contracts.\\n */\\nabstract contract ContextUpgradeable is Initializable {\\n    function __Context_init() internal initializer {\\n        __Context_init_unchained();\\n    }\\n\\n    function __Context_init_unchained() internal initializer {\\n    }\\n    function _msgSender() internal view virtual returns (address) {\\n        return msg.sender;\\n    }\\n\\n    function _msgData() internal view virtual returns (bytes calldata) {\\n        this; // silence state mutability warning without generating bytecode - see https://github.com/ethereum/solidity/issues/2691\\n        return msg.data;\\n    }\\n    uint256[50] private __gap;\\n}\\n\",\"keccak256\":\"0x8e9eb503de1189f50c5f16fef327da310b11898d6b9ab3ca937df07c35233b9e\",\"license\":\"MIT\"},\"@openzeppelin/contracts-upgradeable/utils/StringsUpgradeable.sol\":{\"content\":\"// SPDX-License-Identifier: MIT\\n\\npragma solidity ^0.8.0;\\n\\n/**\\n * @dev String operations.\\n */\\nlibrary StringsUpgradeable {\\n    bytes16 private constant alphabet = \\\"0123456789abcdef\\\";\\n\\n    /**\\n     * @dev Converts a `uint256` to its ASCII `string` decimal representation.\\n     */\\n    function toString(uint256 value) internal pure returns (string memory) {\\n        // Inspired by OraclizeAPI's implementation - MIT licence\\n        // https://github.com/oraclize/ethereum-api/blob/b42146b063c7d6ee1358846c198246239e9360e8/oraclizeAPI_0.4.25.sol\\n\\n        if (value == 0) {\\n            return \\\"0\\\";\\n        }\\n        uint256 temp = value;\\n        uint256 digits;\\n        while (temp != 0) {\\n            digits++;\\n            temp /= 10;\\n        }\\n        bytes memory buffer = new bytes(digits);\\n        while (value != 0) {\\n            digits -= 1;\\n            buffer[digits] = bytes1(uint8(48 + uint256(value % 10)));\\n            value /= 10;\\n        }\\n        return string(buffer);\\n    }\\n\\n    /**\\n     * @dev Converts a `uint256` to its ASCII `string` hexadecimal representation.\\n     */\\n    function toHexString(uint256 value) internal pure returns (string memory) {\\n        if (value == 0) {\\n            return \\\"0x00\\\";\\n        }\\n        uint256 temp = value;\\n        uint256 length = 0;\\n        while (temp != 0) {\\n            length++;\\n            temp >>= 8;\\n        }\\n        return toHexString(value, length);\\n    }\\n\\n    /**\\n     * @dev Converts a `uint256` to its ASCII `string` hexadecimal representation with fixed length.\\n     */\\n    function toHexString(uint256 value, uint256 length) internal pure returns (string memory) {\\n        bytes memory buffer = new bytes(2 * length + 2);\\n        buffer[0] = \\\"0\\\";\\n        buffer[1] = \\\"x\\\";\\n        for (uint256 i = 2 * length + 1; i > 1; --i) {\\n            buffer[i] = alphabet[value & 0xf];\\n            value >>= 4;\\n        }\\n        require(value == 0, \\\"Strings: hex length insufficient\\\");\\n        return string(buffer);\\n    }\\n\\n}\\n\",\"keccak256\":\"0x6964377da5c19ade6b3e96bae0c0e82494d518af70cf12d2cdb3276f78fb3d85\",\"license\":\"MIT\"},\"@openzeppelin/contracts-upgradeable/utils/introspection/ERC165Upgradeable.sol\":{\"content\":\"// SPDX-License-Identifier: MIT\\n\\npragma solidity ^0.8.0;\\n\\nimport \\\"./IERC165Upgradeable.sol\\\";\\nimport \\\"../../proxy/utils/Initializable.sol\\\";\\n\\n/**\\n * @dev Implementation of the {IERC165} interface.\\n *\\n * Contracts that want to implement ERC165 should inherit from this contract and override {supportsInterface} to check\\n * for the additional interface id that will be supported. For example:\\n *\\n * ```solidity\\n * function supportsInterface(bytes4 interfaceId) public view virtual override returns (bool) {\\n *     return interfaceId == type(MyInterface).interfaceId || super.supportsInterface(interfaceId);\\n * }\\n * ```\\n *\\n * Alternatively, {ERC165Storage} provides an easier to use but more expensive implementation.\\n */\\nabstract contract ERC165Upgradeable is Initializable, IERC165Upgradeable {\\n    function __ERC165_init() internal initializer {\\n        __ERC165_init_unchained();\\n    }\\n\\n    function __ERC165_init_unchained() internal initializer {\\n    }\\n    /**\\n     * @dev See {IERC165-supportsInterface}.\\n     */\\n    function supportsInterface(bytes4 interfaceId) public view virtual override returns (bool) {\\n        return interfaceId == type(IERC165Upgradeable).interfaceId;\\n    }\\n    uint256[50] private __gap;\\n}\\n\",\"keccak256\":\"0x17c9c5d2d6b56527215ee7b3da6dde66b6f23f1b3d5c66cc436e753ef349a97a\",\"license\":\"MIT\"},\"@openzeppelin/contracts-upgradeable/utils/introspection/IERC165Upgradeable.sol\":{\"content\":\"// SPDX-License-Identifier: MIT\\n\\npragma solidity ^0.8.0;\\n\\n/**\\n * @dev Interface of the ERC165 standard, as defined in the\\n * https://eips.ethereum.org/EIPS/eip-165[EIP].\\n *\\n * Implementers can declare support of contract interfaces, which can then be\\n * queried by others ({ERC165Checker}).\\n *\\n * For an implementation, see {ERC165}.\\n */\\ninterface IERC165Upgradeable {\\n    /**\\n     * @dev Returns true if this contract implements the interface defined by\\n     * `interfaceId`. See the corresponding\\n     * https://eips.ethereum.org/EIPS/eip-165#how-interfaces-are-identified[EIP section]\\n     * to learn more about how these ids are created.\\n     *\\n     * This function call must use less than 30 000 gas.\\n     */\\n    function supportsInterface(bytes4 interfaceId) external view returns (bool);\\n}\\n\",\"keccak256\":\"0x1c4860acd323e34a67b3e97faab9aaa55fe8e92b1dcf08b5f47f3468d58ce75c\",\"license\":\"MIT\"},\"@openzeppelin/contracts/access/Ownable.sol\":{\"content\":\"// SPDX-License-Identifier: MIT\\n\\npragma solidity ^0.8.0;\\n\\nimport \\\"../utils/Context.sol\\\";\\n/**\\n * @dev Contract module which provides a basic access control mechanism, where\\n * there is an account (an owner) that can be granted exclusive access to\\n * specific functions.\\n *\\n * By default, the owner account will be the one that deploys the contract. This\\n * can later be changed with {transferOwnership}.\\n *\\n * This module is used through inheritance. It will make available the modifier\\n * `onlyOwner`, which can be applied to your functions to restrict their use to\\n * the owner.\\n */\\nabstract contract Ownable is Context {\\n    address private _owner;\\n\\n    event OwnershipTransferred(address indexed previousOwner, address indexed newOwner);\\n\\n    /**\\n     * @dev Initializes the contract setting the deployer as the initial owner.\\n     */\\n    constructor () {\\n        address msgSender = _msgSender();\\n        _owner = msgSender;\\n        emit OwnershipTransferred(address(0), msgSender);\\n    }\\n\\n    /**\\n     * @dev Returns the address of the current owner.\\n     */\\n    function owner() public view virtual returns (address) {\\n        return _owner;\\n    }\\n\\n    /**\\n     * @dev Throws if called by any account other than the owner.\\n     */\\n    modifier onlyOwner() {\\n        require(owner() == _msgSender(), \\\"Ownable: caller is not the owner\\\");\\n        _;\\n    }\\n\\n    /**\\n     * @dev Leaves the contract without owner. It will not be possible to call\\n     * `onlyOwner` functions anymore. Can only be called by the current owner.\\n     *\\n     * NOTE: Renouncing ownership will leave the contract without an owner,\\n     * thereby removing any functionality that is only available to the owner.\\n     */\\n    function renounceOwnership() public virtual onlyOwner {\\n        emit OwnershipTransferred(_owner, address(0));\\n        _owner = address(0);\\n    }\\n\\n    /**\\n     * @dev Transfers ownership of the contract to a new account (`newOwner`).\\n     * Can only be called by the current owner.\\n     */\\n    function transferOwnership(address newOwner) public virtual onlyOwner {\\n        require(newOwner != address(0), \\\"Ownable: new owner is the zero address\\\");\\n        emit OwnershipTransferred(_owner, newOwner);\\n        _owner = newOwner;\\n    }\\n}\\n\",\"keccak256\":\"0x1cae4f85f114ff17b90414f5da67365b1d00337abb5bce9bf944eb78a2c0673c\",\"license\":\"MIT\"},\"@openzeppelin/contracts/proxy/Clones.sol\":{\"content\":\"// SPDX-License-Identifier: MIT\\n\\npragma solidity ^0.8.0;\\n\\n/**\\n * @dev https://eips.ethereum.org/EIPS/eip-1167[EIP 1167] is a standard for\\n * deploying minimal proxy contracts, also known as \\\"clones\\\".\\n *\\n * > To simply and cheaply clone contract functionality in an immutable way, this standard specifies\\n * > a minimal bytecode implementation that delegates all calls to a known, fixed address.\\n *\\n * The library includes functions to deploy a proxy using either `create` (traditional deployment) or `create2`\\n * (salted deterministic deployment). It also includes functions to predict the addresses of clones deployed using the\\n * deterministic method.\\n *\\n * _Available since v3.4._\\n */\\nlibrary Clones {\\n    /**\\n     * @dev Deploys and returns the address of a clone that mimics the behaviour of `implementation`.\\n     *\\n     * This function uses the create opcode, which should never revert.\\n     */\\n    function clone(address implementation) internal returns (address instance) {\\n        // solhint-disable-next-line no-inline-assembly\\n        assembly {\\n            let ptr := mload(0x40)\\n            mstore(ptr, 0x3d602d80600a3d3981f3363d3d373d3d3d363d73000000000000000000000000)\\n            mstore(add(ptr, 0x14), shl(0x60, implementation))\\n            mstore(add(ptr, 0x28), 0x5af43d82803e903d91602b57fd5bf30000000000000000000000000000000000)\\n            instance := create(0, ptr, 0x37)\\n        }\\n        require(instance != address(0), \\\"ERC1167: create failed\\\");\\n    }\\n\\n    /**\\n     * @dev Deploys and returns the address of a clone that mimics the behaviour of `implementation`.\\n     *\\n     * This function uses the create2 opcode and a `salt` to deterministically deploy\\n     * the clone. Using the same `implementation` and `salt` multiple time will revert, since\\n     * the clones cannot be deployed twice at the same address.\\n     */\\n    function cloneDeterministic(address implementation, bytes32 salt) internal returns (address instance) {\\n        // solhint-disable-next-line no-inline-assembly\\n        assembly {\\n            let ptr := mload(0x40)\\n            mstore(ptr, 0x3d602d80600a3d3981f3363d3d373d3d3d363d73000000000000000000000000)\\n            mstore(add(ptr, 0x14), shl(0x60, implementation))\\n            mstore(add(ptr, 0x28), 0x5af43d82803e903d91602b57fd5bf30000000000000000000000000000000000)\\n            instance := create2(0, ptr, 0x37, salt)\\n        }\\n        require(instance != address(0), \\\"ERC1167: create2 failed\\\");\\n    }\\n\\n    /**\\n     * @dev Computes the address of a clone deployed using {Clones-cloneDeterministic}.\\n     */\\n    function predictDeterministicAddress(address implementation, bytes32 salt, address deployer) internal pure returns (address predicted) {\\n        // solhint-disable-next-line no-inline-assembly\\n        assembly {\\n            let ptr := mload(0x40)\\n            mstore(ptr, 0x3d602d80600a3d3981f3363d3d373d3d3d363d73000000000000000000000000)\\n            mstore(add(ptr, 0x14), shl(0x60, implementation))\\n            mstore(add(ptr, 0x28), 0x5af43d82803e903d91602b57fd5bf3ff00000000000000000000000000000000)\\n            mstore(add(ptr, 0x38), shl(0x60, deployer))\\n            mstore(add(ptr, 0x4c), salt)\\n            mstore(add(ptr, 0x6c), keccak256(ptr, 0x37))\\n            predicted := keccak256(add(ptr, 0x37), 0x55)\\n        }\\n    }\\n\\n    /**\\n     * @dev Computes the address of a clone deployed using {Clones-cloneDeterministic}.\\n     */\\n    function predictDeterministicAddress(address implementation, bytes32 salt) internal view returns (address predicted) {\\n        return predictDeterministicAddress(implementation, salt, address(this));\\n    }\\n}\\n\",\"keccak256\":\"0x90dec20805396efc780a82c62578626103e03278bc1f48b61bb3aba52a61617c\",\"license\":\"MIT\"},\"@openzeppelin/contracts/proxy/Proxy.sol\":{\"content\":\"// SPDX-License-Identifier: MIT\\n\\npragma solidity ^0.8.0;\\n\\n/**\\n * @dev This abstract contract provides a fallback function that delegates all calls to another contract using the EVM\\n * instruction `delegatecall`. We refer to the second contract as the _implementation_ behind the proxy, and it has to\\n * be specified by overriding the virtual {_implementation} function.\\n *\\n * Additionally, delegation to the implementation can be triggered manually through the {_fallback} function, or to a\\n * different contract through the {_delegate} function.\\n *\\n * The success and return data of the delegated call will be returned back to the caller of the proxy.\\n */\\nabstract contract Proxy {\\n    /**\\n     * @dev Delegates the current call to `implementation`.\\n     *\\n     * This function does not return to its internall call site, it will return directly to the external caller.\\n     */\\n    function _delegate(address implementation) internal virtual {\\n        // solhint-disable-next-line no-inline-assembly\\n        assembly {\\n            // Copy msg.data. We take full control of memory in this inline assembly\\n            // block because it will not return to Solidity code. We overwrite the\\n            // Solidity scratch pad at memory position 0.\\n            calldatacopy(0, 0, calldatasize())\\n\\n            // Call the implementation.\\n            // out and outsize are 0 because we don't know the size yet.\\n            let result := delegatecall(gas(), implementation, 0, calldatasize(), 0, 0)\\n\\n            // Copy the returned data.\\n            returndatacopy(0, 0, returndatasize())\\n\\n            switch result\\n            // delegatecall returns 0 on error.\\n            case 0 { revert(0, returndatasize()) }\\n            default { return(0, returndatasize()) }\\n        }\\n    }\\n\\n    /**\\n     * @dev This is a virtual function that should be overriden so it returns the address to which the fallback function\\n     * and {_fallback} should delegate.\\n     */\\n    function _implementation() internal view virtual returns (address);\\n\\n    /**\\n     * @dev Delegates the current call to the address returned by `_implementation()`.\\n     *\\n     * This function does not return to its internall call site, it will return directly to the external caller.\\n     */\\n    function _fallback() internal virtual {\\n        _beforeFallback();\\n        _delegate(_implementation());\\n    }\\n\\n    /**\\n     * @dev Fallback function that delegates calls to the address returned by `_implementation()`. Will run if no other\\n     * function in the contract matches the call data.\\n     */\\n    fallback () external payable virtual {\\n        _fallback();\\n    }\\n\\n    /**\\n     * @dev Fallback function that delegates calls to the address returned by `_implementation()`. Will run if call data\\n     * is empty.\\n     */\\n    receive () external payable virtual {\\n        _fallback();\\n    }\\n\\n    /**\\n     * @dev Hook that is called before falling back to the implementation. Can happen as part of a manual `_fallback`\\n     * call, or as part of the Solidity `fallback` or `receive` functions.\\n     *\\n     * If overriden should call `super._beforeFallback()`.\\n     */\\n    function _beforeFallback() internal virtual {\\n    }\\n}\\n\",\"keccak256\":\"0xc706395df88dc1d459f21e51c57ab8820af80d1e8c3c14933a651794d78a429f\",\"license\":\"MIT\"},\"@openzeppelin/contracts/proxy/beacon/IBeacon.sol\":{\"content\":\"// SPDX-License-Identifier: MIT\\n\\npragma solidity ^0.8.0;\\n\\n/**\\n * @dev This is the interface that {BeaconProxy} expects of its beacon.\\n */\\ninterface IBeacon {\\n    /**\\n     * @dev Must return an address that can be used as a delegate call target.\\n     *\\n     * {BeaconProxy} will check that this address is a contract.\\n     */\\n    function implementation() external view returns (address);\\n}\\n\",\"keccak256\":\"0x5615339d191e77be7e46319b67856f9355786f705b7b3c4a7237ab70c1864ab1\",\"license\":\"MIT\"},\"@openzeppelin/contracts/token/ERC20/ERC20.sol\":{\"content\":\"// SPDX-License-Identifier: MIT\\n\\npragma solidity ^0.8.0;\\n\\nimport \\\"./IERC20.sol\\\";\\nimport \\\"./extensions/IERC20Metadata.sol\\\";\\nimport \\\"../../utils/Context.sol\\\";\\n\\n/**\\n * @dev Implementation of the {IERC20} interface.\\n *\\n * This implementation is agnostic to the way tokens are created. This means\\n * that a supply mechanism has to be added in a derived contract using {_mint}.\\n * For a generic mechanism see {ERC20PresetMinterPauser}.\\n *\\n * TIP: For a detailed writeup see our guide\\n * https://forum.zeppelin.solutions/t/how-to-implement-erc20-supply-mechanisms/226[How\\n * to implement supply mechanisms].\\n *\\n * We have followed general OpenZeppelin guidelines: functions revert instead\\n * of returning `false` on failure. This behavior is nonetheless conventional\\n * and does not conflict with the expectations of ERC20 applications.\\n *\\n * Additionally, an {Approval} event is emitted on calls to {transferFrom}.\\n * This allows applications to reconstruct the allowance for all accounts just\\n * by listening to said events. Other implementations of the EIP may not emit\\n * these events, as it isn't required by the specification.\\n *\\n * Finally, the non-standard {decreaseAllowance} and {increaseAllowance}\\n * functions have been added to mitigate the well-known issues around setting\\n * allowances. See {IERC20-approve}.\\n */\\ncontract ERC20 is Context, IERC20, IERC20Metadata {\\n    mapping (address => uint256) private _balances;\\n\\n    mapping (address => mapping (address => uint256)) private _allowances;\\n\\n    uint256 private _totalSupply;\\n\\n    string private _name;\\n    string private _symbol;\\n\\n    /**\\n     * @dev Sets the values for {name} and {symbol}.\\n     *\\n     * The defaut value of {decimals} is 18. To select a different value for\\n     * {decimals} you should overload it.\\n     *\\n     * All two of these values are immutable: they can only be set once during\\n     * construction.\\n     */\\n    constructor (string memory name_, string memory symbol_) {\\n        _name = name_;\\n        _symbol = symbol_;\\n    }\\n\\n    /**\\n     * @dev Returns the name of the token.\\n     */\\n    function name() public view virtual override returns (string memory) {\\n        return _name;\\n    }\\n\\n    /**\\n     * @dev Returns the symbol of the token, usually a shorter version of the\\n     * name.\\n     */\\n    function symbol() public view virtual override returns (string memory) {\\n        return _symbol;\\n    }\\n\\n    /**\\n     * @dev Returns the number of decimals used to get its user representation.\\n     * For example, if `decimals` equals `2`, a balance of `505` tokens should\\n     * be displayed to a user as `5,05` (`505 / 10 ** 2`).\\n     *\\n     * Tokens usually opt for a value of 18, imitating the relationship between\\n     * Ether and Wei. This is the value {ERC20} uses, unless this function is\\n     * overridden;\\n     *\\n     * NOTE: This information is only used for _display_ purposes: it in\\n     * no way affects any of the arithmetic of the contract, including\\n     * {IERC20-balanceOf} and {IERC20-transfer}.\\n     */\\n    function decimals() public view virtual override returns (uint8) {\\n        return 18;\\n    }\\n\\n    /**\\n     * @dev See {IERC20-totalSupply}.\\n     */\\n    function totalSupply() public view virtual override returns (uint256) {\\n        return _totalSupply;\\n    }\\n\\n    /**\\n     * @dev See {IERC20-balanceOf}.\\n     */\\n    function balanceOf(address account) public view virtual override returns (uint256) {\\n        return _balances[account];\\n    }\\n\\n    /**\\n     * @dev See {IERC20-transfer}.\\n     *\\n     * Requirements:\\n     *\\n     * - `recipient` cannot be the zero address.\\n     * - the caller must have a balance of at least `amount`.\\n     */\\n    function transfer(address recipient, uint256 amount) public virtual override returns (bool) {\\n        _transfer(_msgSender(), recipient, amount);\\n        return true;\\n    }\\n\\n    /**\\n     * @dev See {IERC20-allowance}.\\n     */\\n    function allowance(address owner, address spender) public view virtual override returns (uint256) {\\n        return _allowances[owner][spender];\\n    }\\n\\n    /**\\n     * @dev See {IERC20-approve}.\\n     *\\n     * Requirements:\\n     *\\n     * - `spender` cannot be the zero address.\\n     */\\n    function approve(address spender, uint256 amount) public virtual override returns (bool) {\\n        _approve(_msgSender(), spender, amount);\\n        return true;\\n    }\\n\\n    /**\\n     * @dev See {IERC20-transferFrom}.\\n     *\\n     * Emits an {Approval} event indicating the updated allowance. This is not\\n     * required by the EIP. See the note at the beginning of {ERC20}.\\n     *\\n     * Requirements:\\n     *\\n     * - `sender` and `recipient` cannot be the zero address.\\n     * - `sender` must have a balance of at least `amount`.\\n     * - the caller must have allowance for ``sender``'s tokens of at least\\n     * `amount`.\\n     */\\n    function transferFrom(address sender, address recipient, uint256 amount) public virtual override returns (bool) {\\n        _transfer(sender, recipient, amount);\\n\\n        uint256 currentAllowance = _allowances[sender][_msgSender()];\\n        require(currentAllowance >= amount, \\\"ERC20: transfer amount exceeds allowance\\\");\\n        _approve(sender, _msgSender(), currentAllowance - amount);\\n\\n        return true;\\n    }\\n\\n    /**\\n     * @dev Atomically increases the allowance granted to `spender` by the caller.\\n     *\\n     * This is an alternative to {approve} that can be used as a mitigation for\\n     * problems described in {IERC20-approve}.\\n     *\\n     * Emits an {Approval} event indicating the updated allowance.\\n     *\\n     * Requirements:\\n     *\\n     * - `spender` cannot be the zero address.\\n     */\\n    function increaseAllowance(address spender, uint256 addedValue) public virtual returns (bool) {\\n        _approve(_msgSender(), spender, _allowances[_msgSender()][spender] + addedValue);\\n        return true;\\n    }\\n\\n    /**\\n     * @dev Atomically decreases the allowance granted to `spender` by the caller.\\n     *\\n     * This is an alternative to {approve} that can be used as a mitigation for\\n     * problems described in {IERC20-approve}.\\n     *\\n     * Emits an {Approval} event indicating the updated allowance.\\n     *\\n     * Requirements:\\n     *\\n     * - `spender` cannot be the zero address.\\n     * - `spender` must have allowance for the caller of at least\\n     * `subtractedValue`.\\n     */\\n    function decreaseAllowance(address spender, uint256 subtractedValue) public virtual returns (bool) {\\n        uint256 currentAllowance = _allowances[_msgSender()][spender];\\n        require(currentAllowance >= subtractedValue, \\\"ERC20: decreased allowance below zero\\\");\\n        _approve(_msgSender(), spender, currentAllowance - subtractedValue);\\n\\n        return true;\\n    }\\n\\n    /**\\n     * @dev Moves tokens `amount` from `sender` to `recipient`.\\n     *\\n     * This is internal function is equivalent to {transfer}, and can be used to\\n     * e.g. implement automatic token fees, slashing mechanisms, etc.\\n     *\\n     * Emits a {Transfer} event.\\n     *\\n     * Requirements:\\n     *\\n     * - `sender` cannot be the zero address.\\n     * - `recipient` cannot be the zero address.\\n     * - `sender` must have a balance of at least `amount`.\\n     */\\n    function _transfer(address sender, address recipient, uint256 amount) internal virtual {\\n        require(sender != address(0), \\\"ERC20: transfer from the zero address\\\");\\n        require(recipient != address(0), \\\"ERC20: transfer to the zero address\\\");\\n\\n        _beforeTokenTransfer(sender, recipient, amount);\\n\\n        uint256 senderBalance = _balances[sender];\\n        require(senderBalance >= amount, \\\"ERC20: transfer amount exceeds balance\\\");\\n        _balances[sender] = senderBalance - amount;\\n        _balances[recipient] += amount;\\n\\n        emit Transfer(sender, recipient, amount);\\n    }\\n\\n    /** @dev Creates `amount` tokens and assigns them to `account`, increasing\\n     * the total supply.\\n     *\\n     * Emits a {Transfer} event with `from` set to the zero address.\\n     *\\n     * Requirements:\\n     *\\n     * - `to` cannot be the zero address.\\n     */\\n    function _mint(address account, uint256 amount) internal virtual {\\n        require(account != address(0), \\\"ERC20: mint to the zero address\\\");\\n\\n        _beforeTokenTransfer(address(0), account, amount);\\n\\n        _totalSupply += amount;\\n        _balances[account] += amount;\\n        emit Transfer(address(0), account, amount);\\n    }\\n\\n    /**\\n     * @dev Destroys `amount` tokens from `account`, reducing the\\n     * total supply.\\n     *\\n     * Emits a {Transfer} event with `to` set to the zero address.\\n     *\\n     * Requirements:\\n     *\\n     * - `account` cannot be the zero address.\\n     * - `account` must have at least `amount` tokens.\\n     */\\n    function _burn(address account, uint256 amount) internal virtual {\\n        require(account != address(0), \\\"ERC20: burn from the zero address\\\");\\n\\n        _beforeTokenTransfer(account, address(0), amount);\\n\\n        uint256 accountBalance = _balances[account];\\n        require(accountBalance >= amount, \\\"ERC20: burn amount exceeds balance\\\");\\n        _balances[account] = accountBalance - amount;\\n        _totalSupply -= amount;\\n\\n        emit Transfer(account, address(0), amount);\\n    }\\n\\n    /**\\n     * @dev Sets `amount` as the allowance of `spender` over the `owner` s tokens.\\n     *\\n     * This internal function is equivalent to `approve`, and can be used to\\n     * e.g. set automatic allowances for certain subsystems, etc.\\n     *\\n     * Emits an {Approval} event.\\n     *\\n     * Requirements:\\n     *\\n     * - `owner` cannot be the zero address.\\n     * - `spender` cannot be the zero address.\\n     */\\n    function _approve(address owner, address spender, uint256 amount) internal virtual {\\n        require(owner != address(0), \\\"ERC20: approve from the zero address\\\");\\n        require(spender != address(0), \\\"ERC20: approve to the zero address\\\");\\n\\n        _allowances[owner][spender] = amount;\\n        emit Approval(owner, spender, amount);\\n    }\\n\\n    /**\\n     * @dev Hook that is called before any transfer of tokens. This includes\\n     * minting and burning.\\n     *\\n     * Calling conditions:\\n     *\\n     * - when `from` and `to` are both non-zero, `amount` of ``from``'s tokens\\n     * will be to transferred to `to`.\\n     * - when `from` is zero, `amount` tokens will be minted for `to`.\\n     * - when `to` is zero, `amount` of ``from``'s tokens will be burned.\\n     * - `from` and `to` are never both zero.\\n     *\\n     * To learn more about hooks, head to xref:ROOT:extending-contracts.adoc#using-hooks[Using Hooks].\\n     */\\n    function _beforeTokenTransfer(address from, address to, uint256 amount) internal virtual { }\\n}\\n\",\"keccak256\":\"0xfeccdcbf67b2006a715e5af1a4c7556004d95b2806552b5cc54e46e8eb7e887b\",\"license\":\"MIT\"},\"@openzeppelin/contracts/token/ERC20/IERC20.sol\":{\"content\":\"// SPDX-License-Identifier: MIT\\n\\npragma solidity ^0.8.0;\\n\\n/**\\n * @dev Interface of the ERC20 standard as defined in the EIP.\\n */\\ninterface IERC20 {\\n    /**\\n     * @dev Returns the amount of tokens in existence.\\n     */\\n    function totalSupply() external view returns (uint256);\\n\\n    /**\\n     * @dev Returns the amount of tokens owned by `account`.\\n     */\\n    function balanceOf(address account) external view returns (uint256);\\n\\n    /**\\n     * @dev Moves `amount` tokens from the caller's account to `recipient`.\\n     *\\n     * Returns a boolean value indicating whether the operation succeeded.\\n     *\\n     * Emits a {Transfer} event.\\n     */\\n    function transfer(address recipient, uint256 amount) external returns (bool);\\n\\n    /**\\n     * @dev Returns the remaining number of tokens that `spender` will be\\n     * allowed to spend on behalf of `owner` through {transferFrom}. This is\\n     * zero by default.\\n     *\\n     * This value changes when {approve} or {transferFrom} are called.\\n     */\\n    function allowance(address owner, address spender) external view returns (uint256);\\n\\n    /**\\n     * @dev Sets `amount` as the allowance of `spender` over the caller's tokens.\\n     *\\n     * Returns a boolean value indicating whether the operation succeeded.\\n     *\\n     * IMPORTANT: Beware that changing an allowance with this method brings the risk\\n     * that someone may use both the old and the new allowance by unfortunate\\n     * transaction ordering. One possible solution to mitigate this race\\n     * condition is to first reduce the spender's allowance to 0 and set the\\n     * desired value afterwards:\\n     * https://github.com/ethereum/EIPs/issues/20#issuecomment-263524729\\n     *\\n     * Emits an {Approval} event.\\n     */\\n    function approve(address spender, uint256 amount) external returns (bool);\\n\\n    /**\\n     * @dev Moves `amount` tokens from `sender` to `recipient` using the\\n     * allowance mechanism. `amount` is then deducted from the caller's\\n     * allowance.\\n     *\\n     * Returns a boolean value indicating whether the operation succeeded.\\n     *\\n     * Emits a {Transfer} event.\\n     */\\n    function transferFrom(address sender, address recipient, uint256 amount) external returns (bool);\\n\\n    /**\\n     * @dev Emitted when `value` tokens are moved from one account (`from`) to\\n     * another (`to`).\\n     *\\n     * Note that `value` may be zero.\\n     */\\n    event Transfer(address indexed from, address indexed to, uint256 value);\\n\\n    /**\\n     * @dev Emitted when the allowance of a `spender` for an `owner` is set by\\n     * a call to {approve}. `value` is the new allowance.\\n     */\\n    event Approval(address indexed owner, address indexed spender, uint256 value);\\n}\\n\",\"keccak256\":\"0xf8e8d118a7a8b2e134181f7da655f6266aa3a0f9134b2605747139fcb0c5d835\",\"license\":\"MIT\"},\"@openzeppelin/contracts/token/ERC20/extensions/IERC20Metadata.sol\":{\"content\":\"// SPDX-License-Identifier: MIT\\n\\npragma solidity ^0.8.0;\\n\\nimport \\\"../IERC20.sol\\\";\\n\\n/**\\n * @dev Interface for the optional metadata functions from the ERC20 standard.\\n *\\n * _Available since v4.1._\\n */\\ninterface IERC20Metadata is IERC20 {\\n    /**\\n     * @dev Returns the name of the token.\\n     */\\n    function name() external view returns (string memory);\\n\\n    /**\\n     * @dev Returns the symbol of the token.\\n     */\\n    function symbol() external view returns (string memory);\\n\\n    /**\\n     * @dev Returns the decimals places of the token.\\n     */\\n    function decimals() external view returns (uint8);\\n}\\n\",\"keccak256\":\"0x83fe24f5c04a56091e50f4a345ff504c8bff658a76d4c43b16878c8f940c53b2\",\"license\":\"MIT\"},\"@openzeppelin/contracts/token/ERC20/utils/SafeERC20.sol\":{\"content\":\"// SPDX-License-Identifier: MIT\\n\\npragma solidity ^0.8.0;\\n\\nimport \\\"../IERC20.sol\\\";\\nimport \\\"../../../utils/Address.sol\\\";\\n\\n/**\\n * @title SafeERC20\\n * @dev Wrappers around ERC20 operations that throw on failure (when the token\\n * contract returns false). Tokens that return no value (and instead revert or\\n * throw on failure) are also supported, non-reverting calls are assumed to be\\n * successful.\\n * To use this library you can add a `using SafeERC20 for IERC20;` statement to your contract,\\n * which allows you to call the safe operations as `token.safeTransfer(...)`, etc.\\n */\\nlibrary SafeERC20 {\\n    using Address for address;\\n\\n    function safeTransfer(IERC20 token, address to, uint256 value) internal {\\n        _callOptionalReturn(token, abi.encodeWithSelector(token.transfer.selector, to, value));\\n    }\\n\\n    function safeTransferFrom(IERC20 token, address from, address to, uint256 value) internal {\\n        _callOptionalReturn(token, abi.encodeWithSelector(token.transferFrom.selector, from, to, value));\\n    }\\n\\n    /**\\n     * @dev Deprecated. This function has issues similar to the ones found in\\n     * {IERC20-approve}, and its usage is discouraged.\\n     *\\n     * Whenever possible, use {safeIncreaseAllowance} and\\n     * {safeDecreaseAllowance} instead.\\n     */\\n    function safeApprove(IERC20 token, address spender, uint256 value) internal {\\n        // safeApprove should only be called when setting an initial allowance,\\n        // or when resetting it to zero. To increase and decrease it, use\\n        // 'safeIncreaseAllowance' and 'safeDecreaseAllowance'\\n        // solhint-disable-next-line max-line-length\\n        require((value == 0) || (token.allowance(address(this), spender) == 0),\\n            \\\"SafeERC20: approve from non-zero to non-zero allowance\\\"\\n        );\\n        _callOptionalReturn(token, abi.encodeWithSelector(token.approve.selector, spender, value));\\n    }\\n\\n    function safeIncreaseAllowance(IERC20 token, address spender, uint256 value) internal {\\n        uint256 newAllowance = token.allowance(address(this), spender) + value;\\n        _callOptionalReturn(token, abi.encodeWithSelector(token.approve.selector, spender, newAllowance));\\n    }\\n\\n    function safeDecreaseAllowance(IERC20 token, address spender, uint256 value) internal {\\n        unchecked {\\n            uint256 oldAllowance = token.allowance(address(this), spender);\\n            require(oldAllowance >= value, \\\"SafeERC20: decreased allowance below zero\\\");\\n            uint256 newAllowance = oldAllowance - value;\\n            _callOptionalReturn(token, abi.encodeWithSelector(token.approve.selector, spender, newAllowance));\\n        }\\n    }\\n\\n    /**\\n     * @dev Imitates a Solidity high-level call (i.e. a regular function call to a contract), relaxing the requirement\\n     * on the return value: the return value is optional (but if data is returned, it must not be false).\\n     * @param token The token targeted by the call.\\n     * @param data The call data (encoded using abi.encode or one of its variants).\\n     */\\n    function _callOptionalReturn(IERC20 token, bytes memory data) private {\\n        // We need to perform a low level call here, to bypass Solidity's return data size checking mechanism, since\\n        // we're implementing it ourselves. We use {Address.functionCall} to perform this call, which verifies that\\n        // the target address contains contract code and also asserts for success in the low-level call.\\n\\n        bytes memory returndata = address(token).functionCall(data, \\\"SafeERC20: low-level call failed\\\");\\n        if (returndata.length > 0) { // Return data is optional\\n            // solhint-disable-next-line max-line-length\\n            require(abi.decode(returndata, (bool)), \\\"SafeERC20: ERC20 operation did not succeed\\\");\\n        }\\n    }\\n}\\n\",\"keccak256\":\"0x99f5c21018d796db7833a2100bb0e7411999e248a3c950fb526eee5d2bf47cb7\",\"license\":\"MIT\"},\"@openzeppelin/contracts/token/ERC721/IERC721.sol\":{\"content\":\"// SPDX-License-Identifier: MIT\\n\\npragma solidity ^0.8.0;\\n\\nimport \\\"../../utils/introspection/IERC165.sol\\\";\\n\\n/**\\n * @dev Required interface of an ERC721 compliant contract.\\n */\\ninterface IERC721 is IERC165 {\\n    /**\\n     * @dev Emitted when `tokenId` token is transferred from `from` to `to`.\\n     */\\n    event Transfer(address indexed from, address indexed to, uint256 indexed tokenId);\\n\\n    /**\\n     * @dev Emitted when `owner` enables `approved` to manage the `tokenId` token.\\n     */\\n    event Approval(address indexed owner, address indexed approved, uint256 indexed tokenId);\\n\\n    /**\\n     * @dev Emitted when `owner` enables or disables (`approved`) `operator` to manage all of its assets.\\n     */\\n    event ApprovalForAll(address indexed owner, address indexed operator, bool approved);\\n\\n    /**\\n     * @dev Returns the number of tokens in ``owner``'s account.\\n     */\\n    function balanceOf(address owner) external view returns (uint256 balance);\\n\\n    /**\\n     * @dev Returns the owner of the `tokenId` token.\\n     *\\n     * Requirements:\\n     *\\n     * - `tokenId` must exist.\\n     */\\n    function ownerOf(uint256 tokenId) external view returns (address owner);\\n\\n    /**\\n     * @dev Safely transfers `tokenId` token from `from` to `to`, checking first that contract recipients\\n     * are aware of the ERC721 protocol to prevent tokens from being forever locked.\\n     *\\n     * Requirements:\\n     *\\n     * - `from` cannot be the zero address.\\n     * - `to` cannot be the zero address.\\n     * - `tokenId` token must exist and be owned by `from`.\\n     * - If the caller is not `from`, it must be have been allowed to move this token by either {approve} or {setApprovalForAll}.\\n     * - If `to` refers to a smart contract, it must implement {IERC721Receiver-onERC721Received}, which is called upon a safe transfer.\\n     *\\n     * Emits a {Transfer} event.\\n     */\\n    function safeTransferFrom(address from, address to, uint256 tokenId) external;\\n\\n    /**\\n     * @dev Transfers `tokenId` token from `from` to `to`.\\n     *\\n     * WARNING: Usage of this method is discouraged, use {safeTransferFrom} whenever possible.\\n     *\\n     * Requirements:\\n     *\\n     * - `from` cannot be the zero address.\\n     * - `to` cannot be the zero address.\\n     * - `tokenId` token must be owned by `from`.\\n     * - If the caller is not `from`, it must be approved to move this token by either {approve} or {setApprovalForAll}.\\n     *\\n     * Emits a {Transfer} event.\\n     */\\n    function transferFrom(address from, address to, uint256 tokenId) external;\\n\\n    /**\\n     * @dev Gives permission to `to` to transfer `tokenId` token to another account.\\n     * The approval is cleared when the token is transferred.\\n     *\\n     * Only a single account can be approved at a time, so approving the zero address clears previous approvals.\\n     *\\n     * Requirements:\\n     *\\n     * - The caller must own the token or be an approved operator.\\n     * - `tokenId` must exist.\\n     *\\n     * Emits an {Approval} event.\\n     */\\n    function approve(address to, uint256 tokenId) external;\\n\\n    /**\\n     * @dev Returns the account approved for `tokenId` token.\\n     *\\n     * Requirements:\\n     *\\n     * - `tokenId` must exist.\\n     */\\n    function getApproved(uint256 tokenId) external view returns (address operator);\\n\\n    /**\\n     * @dev Approve or remove `operator` as an operator for the caller.\\n     * Operators can call {transferFrom} or {safeTransferFrom} for any token owned by the caller.\\n     *\\n     * Requirements:\\n     *\\n     * - The `operator` cannot be the caller.\\n     *\\n     * Emits an {ApprovalForAll} event.\\n     */\\n    function setApprovalForAll(address operator, bool _approved) external;\\n\\n    /**\\n     * @dev Returns if the `operator` is allowed to manage all of the assets of `owner`.\\n     *\\n     * See {setApprovalForAll}\\n     */\\n    function isApprovedForAll(address owner, address operator) external view returns (bool);\\n\\n    /**\\n      * @dev Safely transfers `tokenId` token from `from` to `to`.\\n      *\\n      * Requirements:\\n      *\\n      * - `from` cannot be the zero address.\\n      * - `to` cannot be the zero address.\\n      * - `tokenId` token must exist and be owned by `from`.\\n      * - If the caller is not `from`, it must be approved to move this token by either {approve} or {setApprovalForAll}.\\n      * - If `to` refers to a smart contract, it must implement {IERC721Receiver-onERC721Received}, which is called upon a safe transfer.\\n      *\\n      * Emits a {Transfer} event.\\n      */\\n    function safeTransferFrom(address from, address to, uint256 tokenId, bytes calldata data) external;\\n}\\n\",\"keccak256\":\"0xc1c941ad1e580b4623007305921efe2f26fc7320a4edc226234dd707c658a428\",\"license\":\"MIT\"},\"@openzeppelin/contracts/token/ERC721/extensions/IERC721Metadata.sol\":{\"content\":\"// SPDX-License-Identifier: MIT\\n\\npragma solidity ^0.8.0;\\n\\nimport \\\"../IERC721.sol\\\";\\n\\n/**\\n * @title ERC-721 Non-Fungible Token Standard, optional metadata extension\\n * @dev See https://eips.ethereum.org/EIPS/eip-721\\n */\\ninterface IERC721Metadata is IERC721 {\\n\\n    /**\\n     * @dev Returns the token collection name.\\n     */\\n    function name() external view returns (string memory);\\n\\n    /**\\n     * @dev Returns the token collection symbol.\\n     */\\n    function symbol() external view returns (string memory);\\n\\n    /**\\n     * @dev Returns the Uniform Resource Identifier (URI) for `tokenId` token.\\n     */\\n    function tokenURI(uint256 tokenId) external view returns (string memory);\\n}\\n\",\"keccak256\":\"0xb8d11e77eb1ed34a33720edb551d7d6a6b0eee2bfaa40a7024020e1fdf879b16\",\"license\":\"MIT\"},\"@openzeppelin/contracts/utils/Address.sol\":{\"content\":\"// SPDX-License-Identifier: MIT\\n\\npragma solidity ^0.8.0;\\n\\n/**\\n * @dev Collection of functions related to the address type\\n */\\nlibrary Address {\\n    /**\\n     * @dev Returns true if `account` is a contract.\\n     *\\n     * [IMPORTANT]\\n     * ====\\n     * It is unsafe to assume that an address for which this function returns\\n     * false is an externally-owned account (EOA) and not a contract.\\n     *\\n     * Among others, `isContract` will return false for the following\\n     * types of addresses:\\n     *\\n     *  - an externally-owned account\\n     *  - a contract in construction\\n     *  - an address where a contract will be created\\n     *  - an address where a contract lived, but was destroyed\\n     * ====\\n     */\\n    function isContract(address account) internal view returns (bool) {\\n        // This method relies on extcodesize, which returns 0 for contracts in\\n        // construction, since the code is only stored at the end of the\\n        // constructor execution.\\n\\n        uint256 size;\\n        // solhint-disable-next-line no-inline-assembly\\n        assembly { size := extcodesize(account) }\\n        return size > 0;\\n    }\\n\\n    /**\\n     * @dev Replacement for Solidity's `transfer`: sends `amount` wei to\\n     * `recipient`, forwarding all available gas and reverting on errors.\\n     *\\n     * https://eips.ethereum.org/EIPS/eip-1884[EIP1884] increases the gas cost\\n     * of certain opcodes, possibly making contracts go over the 2300 gas limit\\n     * imposed by `transfer`, making them unable to receive funds via\\n     * `transfer`. {sendValue} removes this limitation.\\n     *\\n     * https://diligence.consensys.net/posts/2019/09/stop-using-soliditys-transfer-now/[Learn more].\\n     *\\n     * IMPORTANT: because control is transferred to `recipient`, care must be\\n     * taken to not create reentrancy vulnerabilities. Consider using\\n     * {ReentrancyGuard} or the\\n     * https://solidity.readthedocs.io/en/v0.5.11/security-considerations.html#use-the-checks-effects-interactions-pattern[checks-effects-interactions pattern].\\n     */\\n    function sendValue(address payable recipient, uint256 amount) internal {\\n        require(address(this).balance >= amount, \\\"Address: insufficient balance\\\");\\n\\n        // solhint-disable-next-line avoid-low-level-calls, avoid-call-value\\n        (bool success, ) = recipient.call{ value: amount }(\\\"\\\");\\n        require(success, \\\"Address: unable to send value, recipient may have reverted\\\");\\n    }\\n\\n    /**\\n     * @dev Performs a Solidity function call using a low level `call`. A\\n     * plain`call` is an unsafe replacement for a function call: use this\\n     * function instead.\\n     *\\n     * If `target` reverts with a revert reason, it is bubbled up by this\\n     * function (like regular Solidity function calls).\\n     *\\n     * Returns the raw returned data. To convert to the expected return value,\\n     * use https://solidity.readthedocs.io/en/latest/units-and-global-variables.html?highlight=abi.decode#abi-encoding-and-decoding-functions[`abi.decode`].\\n     *\\n     * Requirements:\\n     *\\n     * - `target` must be a contract.\\n     * - calling `target` with `data` must not revert.\\n     *\\n     * _Available since v3.1._\\n     */\\n    function functionCall(address target, bytes memory data) internal returns (bytes memory) {\\n      return functionCall(target, data, \\\"Address: low-level call failed\\\");\\n    }\\n\\n    /**\\n     * @dev Same as {xref-Address-functionCall-address-bytes-}[`functionCall`], but with\\n     * `errorMessage` as a fallback revert reason when `target` reverts.\\n     *\\n     * _Available since v3.1._\\n     */\\n    function functionCall(address target, bytes memory data, string memory errorMessage) internal returns (bytes memory) {\\n        return functionCallWithValue(target, data, 0, errorMessage);\\n    }\\n\\n    /**\\n     * @dev Same as {xref-Address-functionCall-address-bytes-}[`functionCall`],\\n     * but also transferring `value` wei to `target`.\\n     *\\n     * Requirements:\\n     *\\n     * - the calling contract must have an ETH balance of at least `value`.\\n     * - the called Solidity function must be `payable`.\\n     *\\n     * _Available since v3.1._\\n     */\\n    function functionCallWithValue(address target, bytes memory data, uint256 value) internal returns (bytes memory) {\\n        return functionCallWithValue(target, data, value, \\\"Address: low-level call with value failed\\\");\\n    }\\n\\n    /**\\n     * @dev Same as {xref-Address-functionCallWithValue-address-bytes-uint256-}[`functionCallWithValue`], but\\n     * with `errorMessage` as a fallback revert reason when `target` reverts.\\n     *\\n     * _Available since v3.1._\\n     */\\n    function functionCallWithValue(address target, bytes memory data, uint256 value, string memory errorMessage) internal returns (bytes memory) {\\n        require(address(this).balance >= value, \\\"Address: insufficient balance for call\\\");\\n        require(isContract(target), \\\"Address: call to non-contract\\\");\\n\\n        // solhint-disable-next-line avoid-low-level-calls\\n        (bool success, bytes memory returndata) = target.call{ value: value }(data);\\n        return _verifyCallResult(success, returndata, errorMessage);\\n    }\\n\\n    /**\\n     * @dev Same as {xref-Address-functionCall-address-bytes-}[`functionCall`],\\n     * but performing a static call.\\n     *\\n     * _Available since v3.3._\\n     */\\n    function functionStaticCall(address target, bytes memory data) internal view returns (bytes memory) {\\n        return functionStaticCall(target, data, \\\"Address: low-level static call failed\\\");\\n    }\\n\\n    /**\\n     * @dev Same as {xref-Address-functionCall-address-bytes-string-}[`functionCall`],\\n     * but performing a static call.\\n     *\\n     * _Available since v3.3._\\n     */\\n    function functionStaticCall(address target, bytes memory data, string memory errorMessage) internal view returns (bytes memory) {\\n        require(isContract(target), \\\"Address: static call to non-contract\\\");\\n\\n        // solhint-disable-next-line avoid-low-level-calls\\n        (bool success, bytes memory returndata) = target.staticcall(data);\\n        return _verifyCallResult(success, returndata, errorMessage);\\n    }\\n\\n    /**\\n     * @dev Same as {xref-Address-functionCall-address-bytes-}[`functionCall`],\\n     * but performing a delegate call.\\n     *\\n     * _Available since v3.4._\\n     */\\n    function functionDelegateCall(address target, bytes memory data) internal returns (bytes memory) {\\n        return functionDelegateCall(target, data, \\\"Address: low-level delegate call failed\\\");\\n    }\\n\\n    /**\\n     * @dev Same as {xref-Address-functionCall-address-bytes-string-}[`functionCall`],\\n     * but performing a delegate call.\\n     *\\n     * _Available since v3.4._\\n     */\\n    function functionDelegateCall(address target, bytes memory data, string memory errorMessage) internal returns (bytes memory) {\\n        require(isContract(target), \\\"Address: delegate call to non-contract\\\");\\n\\n        // solhint-disable-next-line avoid-low-level-calls\\n        (bool success, bytes memory returndata) = target.delegatecall(data);\\n        return _verifyCallResult(success, returndata, errorMessage);\\n    }\\n\\n    function _verifyCallResult(bool success, bytes memory returndata, string memory errorMessage) private pure returns(bytes memory) {\\n        if (success) {\\n            return returndata;\\n        } else {\\n            // Look for revert reason and bubble it up if present\\n            if (returndata.length > 0) {\\n                // The easiest way to bubble the revert reason is using memory via assembly\\n\\n                // solhint-disable-next-line no-inline-assembly\\n                assembly {\\n                    let returndata_size := mload(returndata)\\n                    revert(add(32, returndata), returndata_size)\\n                }\\n            } else {\\n                revert(errorMessage);\\n            }\\n        }\\n    }\\n}\\n\",\"keccak256\":\"0x069b2631bb5b5193a58ccf7a06266c7361bd2c20095667af4402817605627f45\",\"license\":\"MIT\"},\"@openzeppelin/contracts/utils/Context.sol\":{\"content\":\"// SPDX-License-Identifier: MIT\\n\\npragma solidity ^0.8.0;\\n\\n/*\\n * @dev Provides information about the current execution context, including the\\n * sender of the transaction and its data. While these are generally available\\n * via msg.sender and msg.data, they should not be accessed in such a direct\\n * manner, since when dealing with meta-transactions the account sending and\\n * paying for execution may not be the actual sender (as far as an application\\n * is concerned).\\n *\\n * This contract is only required for intermediate, library-like contracts.\\n */\\nabstract contract Context {\\n    function _msgSender() internal view virtual returns (address) {\\n        return msg.sender;\\n    }\\n\\n    function _msgData() internal view virtual returns (bytes calldata) {\\n        this; // silence state mutability warning without generating bytecode - see https://github.com/ethereum/solidity/issues/2691\\n        return msg.data;\\n    }\\n}\\n\",\"keccak256\":\"0xf930d2df426bfcfc1f7415be724f04081c96f4fb9ec8d0e3a521c07692dface0\",\"license\":\"MIT\"},\"@openzeppelin/contracts/utils/Counters.sol\":{\"content\":\"// SPDX-License-Identifier: MIT\\n\\npragma solidity ^0.8.0;\\n\\n/**\\n * @title Counters\\n * @author Matt Condon (@shrugs)\\n * @dev Provides counters that can only be incremented or decremented by one. This can be used e.g. to track the number\\n * of elements in a mapping, issuing ERC721 ids, or counting request ids.\\n *\\n * Include with `using Counters for Counters.Counter;`\\n */\\nlibrary Counters {\\n    struct Counter {\\n        // This variable should never be directly accessed by users of the library: interactions must be restricted to\\n        // the library's function. As of Solidity v0.5.2, this cannot be enforced, though there is a proposal to add\\n        // this feature: see https://github.com/ethereum/solidity/issues/4637\\n        uint256 _value; // default: 0\\n    }\\n\\n    function current(Counter storage counter) internal view returns (uint256) {\\n        return counter._value;\\n    }\\n\\n    function increment(Counter storage counter) internal {\\n        unchecked {\\n            counter._value += 1;\\n        }\\n    }\\n\\n    function decrement(Counter storage counter) internal {\\n        uint256 value = counter._value;\\n        require(value > 0, \\\"Counter: decrement overflow\\\");\\n        unchecked {\\n            counter._value = value - 1;\\n        }\\n    }\\n}\\n\",\"keccak256\":\"0x62d306ff0499a11913bc60b5939eec619509b5c67b30e86ebf8b8bda0b7a7fee\",\"license\":\"MIT\"},\"@openzeppelin/contracts/utils/cryptography/MerkleProof.sol\":{\"content\":\"// SPDX-License-Identifier: MIT\\n\\npragma solidity ^0.8.0;\\n\\n/**\\n * @dev These functions deal with verification of Merkle Trees proofs.\\n *\\n * The proofs can be generated using the JavaScript library\\n * https://github.com/miguelmota/merkletreejs[merkletreejs].\\n * Note: the hashing algorithm should be keccak256 and pair sorting should be enabled.\\n *\\n * See `test/utils/cryptography/MerkleProof.test.js` for some examples.\\n */\\nlibrary MerkleProof {\\n    /**\\n     * @dev Returns true if a `leaf` can be proved to be a part of a Merkle tree\\n     * defined by `root`. For this, a `proof` must be provided, containing\\n     * sibling hashes on the branch from the leaf to the root of the tree. Each\\n     * pair of leaves and each pair of pre-images are assumed to be sorted.\\n     */\\n    function verify(bytes32[] memory proof, bytes32 root, bytes32 leaf) internal pure returns (bool) {\\n        bytes32 computedHash = leaf;\\n\\n        for (uint256 i = 0; i < proof.length; i++) {\\n            bytes32 proofElement = proof[i];\\n\\n            if (computedHash <= proofElement) {\\n                // Hash(current computed hash + current element of the proof)\\n                computedHash = keccak256(abi.encodePacked(computedHash, proofElement));\\n            } else {\\n                // Hash(current element of the proof + current computed hash)\\n                computedHash = keccak256(abi.encodePacked(proofElement, computedHash));\\n            }\\n        }\\n\\n        // Check if the computed hash (root) is equal to the provided root\\n        return computedHash == root;\\n    }\\n}\\n\",\"keccak256\":\"0xeee34bfb413657b6cd6c8e1e15c2080ba5ebaac479578515922804346fb63f7c\",\"license\":\"MIT\"},\"@openzeppelin/contracts/utils/introspection/IERC165.sol\":{\"content\":\"// SPDX-License-Identifier: MIT\\n\\npragma solidity ^0.8.0;\\n\\n/**\\n * @dev Interface of the ERC165 standard, as defined in the\\n * https://eips.ethereum.org/EIPS/eip-165[EIP].\\n *\\n * Implementers can declare support of contract interfaces, which can then be\\n * queried by others ({ERC165Checker}).\\n *\\n * For an implementation, see {ERC165}.\\n */\\ninterface IERC165 {\\n    /**\\n     * @dev Returns true if this contract implements the interface defined by\\n     * `interfaceId`. See the corresponding\\n     * https://eips.ethereum.org/EIPS/eip-165#how-interfaces-are-identified[EIP section]\\n     * to learn more about how these ids are created.\\n     *\\n     * This function call must use less than 30 000 gas.\\n     */\\n    function supportsInterface(bytes4 interfaceId) external view returns (bool);\\n}\\n\",\"keccak256\":\"0xa28007762d9da9db878dd421960c8cb9a10471f47ab5c1b3309bfe48e9e79ff4\",\"license\":\"MIT\"},\"@openzeppelin/contracts/utils/math/SafeCast.sol\":{\"content\":\"// SPDX-License-Identifier: MIT\\n\\npragma solidity ^0.8.0;\\n\\n/**\\n * @dev Wrappers over Solidity's uintXX/intXX casting operators with added overflow\\n * checks.\\n *\\n * Downcasting from uint256/int256 in Solidity does not revert on overflow. This can\\n * easily result in undesired exploitation or bugs, since developers usually\\n * assume that overflows raise errors. `SafeCast` restores this intuition by\\n * reverting the transaction when such an operation overflows.\\n *\\n * Using this library instead of the unchecked operations eliminates an entire\\n * class of bugs, so it's recommended to use it always.\\n *\\n * Can be combined with {SafeMath} and {SignedSafeMath} to extend it to smaller types, by performing\\n * all math on `uint256` and `int256` and then downcasting.\\n */\\nlibrary SafeCast {\\n    /**\\n     * @dev Returns the downcasted uint128 from uint256, reverting on\\n     * overflow (when the input is greater than largest uint128).\\n     *\\n     * Counterpart to Solidity's `uint128` operator.\\n     *\\n     * Requirements:\\n     *\\n     * - input must fit into 128 bits\\n     */\\n    function toUint128(uint256 value) internal pure returns (uint128) {\\n        require(value < 2**128, \\\"SafeCast: value doesn\\\\'t fit in 128 bits\\\");\\n        return uint128(value);\\n    }\\n\\n    /**\\n     * @dev Returns the downcasted uint64 from uint256, reverting on\\n     * overflow (when the input is greater than largest uint64).\\n     *\\n     * Counterpart to Solidity's `uint64` operator.\\n     *\\n     * Requirements:\\n     *\\n     * - input must fit into 64 bits\\n     */\\n    function toUint64(uint256 value) internal pure returns (uint64) {\\n        require(value < 2**64, \\\"SafeCast: value doesn\\\\'t fit in 64 bits\\\");\\n        return uint64(value);\\n    }\\n\\n    /**\\n     * @dev Returns the downcasted uint32 from uint256, reverting on\\n     * overflow (when the input is greater than largest uint32).\\n     *\\n     * Counterpart to Solidity's `uint32` operator.\\n     *\\n     * Requirements:\\n     *\\n     * - input must fit into 32 bits\\n     */\\n    function toUint32(uint256 value) internal pure returns (uint32) {\\n        require(value < 2**32, \\\"SafeCast: value doesn\\\\'t fit in 32 bits\\\");\\n        return uint32(value);\\n    }\\n\\n    /**\\n     * @dev Returns the downcasted uint16 from uint256, reverting on\\n     * overflow (when the input is greater than largest uint16).\\n     *\\n     * Counterpart to Solidity's `uint16` operator.\\n     *\\n     * Requirements:\\n     *\\n     * - input must fit into 16 bits\\n     */\\n    function toUint16(uint256 value) internal pure returns (uint16) {\\n        require(value < 2**16, \\\"SafeCast: value doesn\\\\'t fit in 16 bits\\\");\\n        return uint16(value);\\n    }\\n\\n    /**\\n     * @dev Returns the downcasted uint8 from uint256, reverting on\\n     * overflow (when the input is greater than largest uint8).\\n     *\\n     * Counterpart to Solidity's `uint8` operator.\\n     *\\n     * Requirements:\\n     *\\n     * - input must fit into 8 bits.\\n     */\\n    function toUint8(uint256 value) internal pure returns (uint8) {\\n        require(value < 2**8, \\\"SafeCast: value doesn\\\\'t fit in 8 bits\\\");\\n        return uint8(value);\\n    }\\n\\n    /**\\n     * @dev Converts a signed int256 into an unsigned uint256.\\n     *\\n     * Requirements:\\n     *\\n     * - input must be greater than or equal to 0.\\n     */\\n    function toUint256(int256 value) internal pure returns (uint256) {\\n        require(value >= 0, \\\"SafeCast: value must be positive\\\");\\n        return uint256(value);\\n    }\\n\\n    /**\\n     * @dev Returns the downcasted int128 from int256, reverting on\\n     * overflow (when the input is less than smallest int128 or\\n     * greater than largest int128).\\n     *\\n     * Counterpart to Solidity's `int128` operator.\\n     *\\n     * Requirements:\\n     *\\n     * - input must fit into 128 bits\\n     *\\n     * _Available since v3.1._\\n     */\\n    function toInt128(int256 value) internal pure returns (int128) {\\n        require(value >= -2**127 && value < 2**127, \\\"SafeCast: value doesn\\\\'t fit in 128 bits\\\");\\n        return int128(value);\\n    }\\n\\n    /**\\n     * @dev Returns the downcasted int64 from int256, reverting on\\n     * overflow (when the input is less than smallest int64 or\\n     * greater than largest int64).\\n     *\\n     * Counterpart to Solidity's `int64` operator.\\n     *\\n     * Requirements:\\n     *\\n     * - input must fit into 64 bits\\n     *\\n     * _Available since v3.1._\\n     */\\n    function toInt64(int256 value) internal pure returns (int64) {\\n        require(value >= -2**63 && value < 2**63, \\\"SafeCast: value doesn\\\\'t fit in 64 bits\\\");\\n        return int64(value);\\n    }\\n\\n    /**\\n     * @dev Returns the downcasted int32 from int256, reverting on\\n     * overflow (when the input is less than smallest int32 or\\n     * greater than largest int32).\\n     *\\n     * Counterpart to Solidity's `int32` operator.\\n     *\\n     * Requirements:\\n     *\\n     * - input must fit into 32 bits\\n     *\\n     * _Available since v3.1._\\n     */\\n    function toInt32(int256 value) internal pure returns (int32) {\\n        require(value >= -2**31 && value < 2**31, \\\"SafeCast: value doesn\\\\'t fit in 32 bits\\\");\\n        return int32(value);\\n    }\\n\\n    /**\\n     * @dev Returns the downcasted int16 from int256, reverting on\\n     * overflow (when the input is less than smallest int16 or\\n     * greater than largest int16).\\n     *\\n     * Counterpart to Solidity's `int16` operator.\\n     *\\n     * Requirements:\\n     *\\n     * - input must fit into 16 bits\\n     *\\n     * _Available since v3.1._\\n     */\\n    function toInt16(int256 value) internal pure returns (int16) {\\n        require(value >= -2**15 && value < 2**15, \\\"SafeCast: value doesn\\\\'t fit in 16 bits\\\");\\n        return int16(value);\\n    }\\n\\n    /**\\n     * @dev Returns the downcasted int8 from int256, reverting on\\n     * overflow (when the input is less than smallest int8 or\\n     * greater than largest int8).\\n     *\\n     * Counterpart to Solidity's `int8` operator.\\n     *\\n     * Requirements:\\n     *\\n     * - input must fit into 8 bits.\\n     *\\n     * _Available since v3.1._\\n     */\\n    function toInt8(int256 value) internal pure returns (int8) {\\n        require(value >= -2**7 && value < 2**7, \\\"SafeCast: value doesn\\\\'t fit in 8 bits\\\");\\n        return int8(value);\\n    }\\n\\n    /**\\n     * @dev Converts an unsigned uint256 into a signed int256.\\n     *\\n     * Requirements:\\n     *\\n     * - input must be less than or equal to maxInt256.\\n     */\\n    function toInt256(uint256 value) internal pure returns (int256) {\\n        require(value < 2**255, \\\"SafeCast: value doesn't fit in an int256\\\");\\n        return int256(value);\\n    }\\n}\\n\",\"keccak256\":\"0xc37d85b96c2a8d7bc09f25958e0a81394bf5780286444147ddf875fa628d53ce\",\"license\":\"MIT\"},\"@openzeppelin/contracts/utils/math/SafeMath.sol\":{\"content\":\"// SPDX-License-Identifier: MIT\\n\\npragma solidity ^0.8.0;\\n\\n// CAUTION\\n// This version of SafeMath should only be used with Solidity 0.8 or later,\\n// because it relies on the compiler's built in overflow checks.\\n\\n/**\\n * @dev Wrappers over Solidity's arithmetic operations.\\n *\\n * NOTE: `SafeMath` is no longer needed starting with Solidity 0.8. The compiler\\n * now has built in overflow checking.\\n */\\nlibrary SafeMath {\\n    /**\\n     * @dev Returns the addition of two unsigned integers, with an overflow flag.\\n     *\\n     * _Available since v3.4._\\n     */\\n    function tryAdd(uint256 a, uint256 b) internal pure returns (bool, uint256) {\\n        unchecked {\\n            uint256 c = a + b;\\n            if (c < a) return (false, 0);\\n            return (true, c);\\n        }\\n    }\\n\\n    /**\\n     * @dev Returns the substraction of two unsigned integers, with an overflow flag.\\n     *\\n     * _Available since v3.4._\\n     */\\n    function trySub(uint256 a, uint256 b) internal pure returns (bool, uint256) {\\n        unchecked {\\n            if (b > a) return (false, 0);\\n            return (true, a - b);\\n        }\\n    }\\n\\n    /**\\n     * @dev Returns the multiplication of two unsigned integers, with an overflow flag.\\n     *\\n     * _Available since v3.4._\\n     */\\n    function tryMul(uint256 a, uint256 b) internal pure returns (bool, uint256) {\\n        unchecked {\\n            // Gas optimization: this is cheaper than requiring 'a' not being zero, but the\\n            // benefit is lost if 'b' is also tested.\\n            // See: https://github.com/OpenZeppelin/openzeppelin-contracts/pull/522\\n            if (a == 0) return (true, 0);\\n            uint256 c = a * b;\\n            if (c / a != b) return (false, 0);\\n            return (true, c);\\n        }\\n    }\\n\\n    /**\\n     * @dev Returns the division of two unsigned integers, with a division by zero flag.\\n     *\\n     * _Available since v3.4._\\n     */\\n    function tryDiv(uint256 a, uint256 b) internal pure returns (bool, uint256) {\\n        unchecked {\\n            if (b == 0) return (false, 0);\\n            return (true, a / b);\\n        }\\n    }\\n\\n    /**\\n     * @dev Returns the remainder of dividing two unsigned integers, with a division by zero flag.\\n     *\\n     * _Available since v3.4._\\n     */\\n    function tryMod(uint256 a, uint256 b) internal pure returns (bool, uint256) {\\n        unchecked {\\n            if (b == 0) return (false, 0);\\n            return (true, a % b);\\n        }\\n    }\\n\\n    /**\\n     * @dev Returns the addition of two unsigned integers, reverting on\\n     * overflow.\\n     *\\n     * Counterpart to Solidity's `+` operator.\\n     *\\n     * Requirements:\\n     *\\n     * - Addition cannot overflow.\\n     */\\n    function add(uint256 a, uint256 b) internal pure returns (uint256) {\\n        return a + b;\\n    }\\n\\n    /**\\n     * @dev Returns the subtraction of two unsigned integers, reverting on\\n     * overflow (when the result is negative).\\n     *\\n     * Counterpart to Solidity's `-` operator.\\n     *\\n     * Requirements:\\n     *\\n     * - Subtraction cannot overflow.\\n     */\\n    function sub(uint256 a, uint256 b) internal pure returns (uint256) {\\n        return a - b;\\n    }\\n\\n    /**\\n     * @dev Returns the multiplication of two unsigned integers, reverting on\\n     * overflow.\\n     *\\n     * Counterpart to Solidity's `*` operator.\\n     *\\n     * Requirements:\\n     *\\n     * - Multiplication cannot overflow.\\n     */\\n    function mul(uint256 a, uint256 b) internal pure returns (uint256) {\\n        return a * b;\\n    }\\n\\n    /**\\n     * @dev Returns the integer division of two unsigned integers, reverting on\\n     * division by zero. The result is rounded towards zero.\\n     *\\n     * Counterpart to Solidity's `/` operator.\\n     *\\n     * Requirements:\\n     *\\n     * - The divisor cannot be zero.\\n     */\\n    function div(uint256 a, uint256 b) internal pure returns (uint256) {\\n        return a / b;\\n    }\\n\\n    /**\\n     * @dev Returns the remainder of dividing two unsigned integers. (unsigned integer modulo),\\n     * reverting when dividing by zero.\\n     *\\n     * Counterpart to Solidity's `%` operator. This function uses a `revert`\\n     * opcode (which leaves remaining gas untouched) while Solidity uses an\\n     * invalid opcode to revert (consuming all remaining gas).\\n     *\\n     * Requirements:\\n     *\\n     * - The divisor cannot be zero.\\n     */\\n    function mod(uint256 a, uint256 b) internal pure returns (uint256) {\\n        return a % b;\\n    }\\n\\n    /**\\n     * @dev Returns the subtraction of two unsigned integers, reverting with custom message on\\n     * overflow (when the result is negative).\\n     *\\n     * CAUTION: This function is deprecated because it requires allocating memory for the error\\n     * message unnecessarily. For custom revert reasons use {trySub}.\\n     *\\n     * Counterpart to Solidity's `-` operator.\\n     *\\n     * Requirements:\\n     *\\n     * - Subtraction cannot overflow.\\n     */\\n    function sub(uint256 a, uint256 b, string memory errorMessage) internal pure returns (uint256) {\\n        unchecked {\\n            require(b <= a, errorMessage);\\n            return a - b;\\n        }\\n    }\\n\\n    /**\\n     * @dev Returns the integer division of two unsigned integers, reverting with custom message on\\n     * division by zero. The result is rounded towards zero.\\n     *\\n     * Counterpart to Solidity's `%` operator. This function uses a `revert`\\n     * opcode (which leaves remaining gas untouched) while Solidity uses an\\n     * invalid opcode to revert (consuming all remaining gas).\\n     *\\n     * Counterpart to Solidity's `/` operator. Note: this function uses a\\n     * `revert` opcode (which leaves remaining gas untouched) while Solidity\\n     * uses an invalid opcode to revert (consuming all remaining gas).\\n     *\\n     * Requirements:\\n     *\\n     * - The divisor cannot be zero.\\n     */\\n    function div(uint256 a, uint256 b, string memory errorMessage) internal pure returns (uint256) {\\n        unchecked {\\n            require(b > 0, errorMessage);\\n            return a / b;\\n        }\\n    }\\n\\n    /**\\n     * @dev Returns the remainder of dividing two unsigned integers. (unsigned integer modulo),\\n     * reverting with custom message when dividing by zero.\\n     *\\n     * CAUTION: This function is deprecated because it requires allocating memory for the error\\n     * message unnecessarily. For custom revert reasons use {tryMod}.\\n     *\\n     * Counterpart to Solidity's `%` operator. This function uses a `revert`\\n     * opcode (which leaves remaining gas untouched) while Solidity uses an\\n     * invalid opcode to revert (consuming all remaining gas).\\n     *\\n     * Requirements:\\n     *\\n     * - The divisor cannot be zero.\\n     */\\n    function mod(uint256 a, uint256 b, string memory errorMessage) internal pure returns (uint256) {\\n        unchecked {\\n            require(b > 0, errorMessage);\\n            return a % b;\\n        }\\n    }\\n}\\n\",\"keccak256\":\"0x2526b7c6a366fc211bbc176078ab02b83833e7682abcc5b3bed9d700b34e2a3e\",\"license\":\"MIT\"},\"@openzeppelin/contracts/utils/structs/EnumerableSet.sol\":{\"content\":\"// SPDX-License-Identifier: MIT\\n\\npragma solidity ^0.8.0;\\n\\n/**\\n * @dev Library for managing\\n * https://en.wikipedia.org/wiki/Set_(abstract_data_type)[sets] of primitive\\n * types.\\n *\\n * Sets have the following properties:\\n *\\n * - Elements are added, removed, and checked for existence in constant time\\n * (O(1)).\\n * - Elements are enumerated in O(n). No guarantees are made on the ordering.\\n *\\n * ```\\n * contract Example {\\n *     // Add the library methods\\n *     using EnumerableSet for EnumerableSet.AddressSet;\\n *\\n *     // Declare a set state variable\\n *     EnumerableSet.AddressSet private mySet;\\n * }\\n * ```\\n *\\n * As of v3.3.0, sets of type `bytes32` (`Bytes32Set`), `address` (`AddressSet`)\\n * and `uint256` (`UintSet`) are supported.\\n */\\nlibrary EnumerableSet {\\n    // To implement this library for multiple types with as little code\\n    // repetition as possible, we write it in terms of a generic Set type with\\n    // bytes32 values.\\n    // The Set implementation uses private functions, and user-facing\\n    // implementations (such as AddressSet) are just wrappers around the\\n    // underlying Set.\\n    // This means that we can only create new EnumerableSets for types that fit\\n    // in bytes32.\\n\\n    struct Set {\\n        // Storage of set values\\n        bytes32[] _values;\\n\\n        // Position of the value in the `values` array, plus 1 because index 0\\n        // means a value is not in the set.\\n        mapping (bytes32 => uint256) _indexes;\\n    }\\n\\n    /**\\n     * @dev Add a value to a set. O(1).\\n     *\\n     * Returns true if the value was added to the set, that is if it was not\\n     * already present.\\n     */\\n    function _add(Set storage set, bytes32 value) private returns (bool) {\\n        if (!_contains(set, value)) {\\n            set._values.push(value);\\n            // The value is stored at length-1, but we add 1 to all indexes\\n            // and use 0 as a sentinel value\\n            set._indexes[value] = set._values.length;\\n            return true;\\n        } else {\\n            return false;\\n        }\\n    }\\n\\n    /**\\n     * @dev Removes a value from a set. O(1).\\n     *\\n     * Returns true if the value was removed from the set, that is if it was\\n     * present.\\n     */\\n    function _remove(Set storage set, bytes32 value) private returns (bool) {\\n        // We read and store the value's index to prevent multiple reads from the same storage slot\\n        uint256 valueIndex = set._indexes[value];\\n\\n        if (valueIndex != 0) { // Equivalent to contains(set, value)\\n            // To delete an element from the _values array in O(1), we swap the element to delete with the last one in\\n            // the array, and then remove the last element (sometimes called as 'swap and pop').\\n            // This modifies the order of the array, as noted in {at}.\\n\\n            uint256 toDeleteIndex = valueIndex - 1;\\n            uint256 lastIndex = set._values.length - 1;\\n\\n            // When the value to delete is the last one, the swap operation is unnecessary. However, since this occurs\\n            // so rarely, we still do the swap anyway to avoid the gas cost of adding an 'if' statement.\\n\\n            bytes32 lastvalue = set._values[lastIndex];\\n\\n            // Move the last value to the index where the value to delete is\\n            set._values[toDeleteIndex] = lastvalue;\\n            // Update the index for the moved value\\n            set._indexes[lastvalue] = valueIndex; // Replace lastvalue's index to valueIndex\\n\\n            // Delete the slot where the moved value was stored\\n            set._values.pop();\\n\\n            // Delete the index for the deleted slot\\n            delete set._indexes[value];\\n\\n            return true;\\n        } else {\\n            return false;\\n        }\\n    }\\n\\n    /**\\n     * @dev Returns true if the value is in the set. O(1).\\n     */\\n    function _contains(Set storage set, bytes32 value) private view returns (bool) {\\n        return set._indexes[value] != 0;\\n    }\\n\\n    /**\\n     * @dev Returns the number of values on the set. O(1).\\n     */\\n    function _length(Set storage set) private view returns (uint256) {\\n        return set._values.length;\\n    }\\n\\n   /**\\n    * @dev Returns the value stored at position `index` in the set. O(1).\\n    *\\n    * Note that there are no guarantees on the ordering of values inside the\\n    * array, and it may change when more values are added or removed.\\n    *\\n    * Requirements:\\n    *\\n    * - `index` must be strictly less than {length}.\\n    */\\n    function _at(Set storage set, uint256 index) private view returns (bytes32) {\\n        require(set._values.length > index, \\\"EnumerableSet: index out of bounds\\\");\\n        return set._values[index];\\n    }\\n\\n    // Bytes32Set\\n\\n    struct Bytes32Set {\\n        Set _inner;\\n    }\\n\\n    /**\\n     * @dev Add a value to a set. O(1).\\n     *\\n     * Returns true if the value was added to the set, that is if it was not\\n     * already present.\\n     */\\n    function add(Bytes32Set storage set, bytes32 value) internal returns (bool) {\\n        return _add(set._inner, value);\\n    }\\n\\n    /**\\n     * @dev Removes a value from a set. O(1).\\n     *\\n     * Returns true if the value was removed from the set, that is if it was\\n     * present.\\n     */\\n    function remove(Bytes32Set storage set, bytes32 value) internal returns (bool) {\\n        return _remove(set._inner, value);\\n    }\\n\\n    /**\\n     * @dev Returns true if the value is in the set. O(1).\\n     */\\n    function contains(Bytes32Set storage set, bytes32 value) internal view returns (bool) {\\n        return _contains(set._inner, value);\\n    }\\n\\n    /**\\n     * @dev Returns the number of values in the set. O(1).\\n     */\\n    function length(Bytes32Set storage set) internal view returns (uint256) {\\n        return _length(set._inner);\\n    }\\n\\n   /**\\n    * @dev Returns the value stored at position `index` in the set. O(1).\\n    *\\n    * Note that there are no guarantees on the ordering of values inside the\\n    * array, and it may change when more values are added or removed.\\n    *\\n    * Requirements:\\n    *\\n    * - `index` must be strictly less than {length}.\\n    */\\n    function at(Bytes32Set storage set, uint256 index) internal view returns (bytes32) {\\n        return _at(set._inner, index);\\n    }\\n\\n    // AddressSet\\n\\n    struct AddressSet {\\n        Set _inner;\\n    }\\n\\n    /**\\n     * @dev Add a value to a set. O(1).\\n     *\\n     * Returns true if the value was added to the set, that is if it was not\\n     * already present.\\n     */\\n    function add(AddressSet storage set, address value) internal returns (bool) {\\n        return _add(set._inner, bytes32(uint256(uint160(value))));\\n    }\\n\\n    /**\\n     * @dev Removes a value from a set. O(1).\\n     *\\n     * Returns true if the value was removed from the set, that is if it was\\n     * present.\\n     */\\n    function remove(AddressSet storage set, address value) internal returns (bool) {\\n        return _remove(set._inner, bytes32(uint256(uint160(value))));\\n    }\\n\\n    /**\\n     * @dev Returns true if the value is in the set. O(1).\\n     */\\n    function contains(AddressSet storage set, address value) internal view returns (bool) {\\n        return _contains(set._inner, bytes32(uint256(uint160(value))));\\n    }\\n\\n    /**\\n     * @dev Returns the number of values in the set. O(1).\\n     */\\n    function length(AddressSet storage set) internal view returns (uint256) {\\n        return _length(set._inner);\\n    }\\n\\n   /**\\n    * @dev Returns the value stored at position `index` in the set. O(1).\\n    *\\n    * Note that there are no guarantees on the ordering of values inside the\\n    * array, and it may change when more values are added or removed.\\n    *\\n    * Requirements:\\n    *\\n    * - `index` must be strictly less than {length}.\\n    */\\n    function at(AddressSet storage set, uint256 index) internal view returns (address) {\\n        return address(uint160(uint256(_at(set._inner, index))));\\n    }\\n\\n\\n    // UintSet\\n\\n    struct UintSet {\\n        Set _inner;\\n    }\\n\\n    /**\\n     * @dev Add a value to a set. O(1).\\n     *\\n     * Returns true if the value was added to the set, that is if it was not\\n     * already present.\\n     */\\n    function add(UintSet storage set, uint256 value) internal returns (bool) {\\n        return _add(set._inner, bytes32(value));\\n    }\\n\\n    /**\\n     * @dev Removes a value from a set. O(1).\\n     *\\n     * Returns true if the value was removed from the set, that is if it was\\n     * present.\\n     */\\n    function remove(UintSet storage set, uint256 value) internal returns (bool) {\\n        return _remove(set._inner, bytes32(value));\\n    }\\n\\n    /**\\n     * @dev Returns true if the value is in the set. O(1).\\n     */\\n    function contains(UintSet storage set, uint256 value) internal view returns (bool) {\\n        return _contains(set._inner, bytes32(value));\\n    }\\n\\n    /**\\n     * @dev Returns the number of values on the set. O(1).\\n     */\\n    function length(UintSet storage set) internal view returns (uint256) {\\n        return _length(set._inner);\\n    }\\n\\n   /**\\n    * @dev Returns the value stored at position `index` in the set. O(1).\\n    *\\n    * Note that there are no guarantees on the ordering of values inside the\\n    * array, and it may change when more values are added or removed.\\n    *\\n    * Requirements:\\n    *\\n    * - `index` must be strictly less than {length}.\\n    */\\n    function at(UintSet storage set, uint256 index) internal view returns (uint256) {\\n        return uint256(_at(set._inner, index));\\n    }\\n}\\n\",\"keccak256\":\"0x4878ef6c288f4cef3c2a288d32cc548c648831cc55503ad3d9a581ed3b93aad9\",\"license\":\"MIT\"},\"contracts/contexts2/access-control/reentry/ReentryMods.sol\":{\"content\":\"// SPDX-License-Identifier: MIT\\npragma solidity ^0.8.0;\\n\\nimport { AccessControlStorageLib, AccessControlStorage } from \\\"../storage.sol\\\";\\n\\nabstract contract ReentryMods {\\n    modifier nonReentry(bytes32 id) {\\n        AccessControlStorage storage s = AccessControlStorageLib.store();\\n        require(!s.entered[id], \\\"AccessControl: reentered\\\");\\n        s.entered[id] = true;\\n        _;\\n        s.entered[id] = false;\\n    }\\n}\\n\",\"keccak256\":\"0x033c1164af25ef7d35a38a60973bf379b1cc603596914ffd85dcbcf0acdb6970\",\"license\":\"MIT\"},\"contracts/contexts2/access-control/roles/RolesFacet.sol\":{\"content\":\"// SPDX-License-Identifier: MIT\\npragma solidity ^0.8.0;\\n\\nimport { RolesMods } from \\\"./RolesMods.sol\\\";\\nimport { RolesLib } from \\\"./RolesLib.sol\\\";\\nimport { ADMIN } from \\\"../../../shared/roles.sol\\\";\\n\\ncontract RolesFacet is RolesMods {\\n    /**\\n     * @notice Checks if an account has a specific role.\\n     * @param role Encoding of the role to check.\\n     * @param account Address to check the {role} for.\\n     */\\n    function hasRole(bytes32 role, address account)\\n        external\\n        view\\n        returns (bool)\\n    {\\n        return RolesLib.hasRole(role, account);\\n    }\\n\\n    /**\\n     * @notice Grants an account a new role.\\n     * @param role Encoding of the role to give.\\n     * @param account Address to give the {role} to.\\n     *\\n     * Requirements:\\n     *  - Sender must be role admin.\\n     */\\n    function grantRole(bytes32 role, address account)\\n        external\\n        authorized(ADMIN, msg.sender)\\n    {\\n        RolesLib.grantRole(role, account);\\n    }\\n\\n    /**\\n     * @notice Removes a role from an account.\\n     * @param role Encoding of the role to remove.\\n     * @param account Address to remove the {role} from.\\n     *\\n     * Requirements:\\n     *  - Sender must be role admin.\\n     */\\n    function revokeRole(bytes32 role, address account)\\n        external\\n        authorized(ADMIN, msg.sender)\\n    {\\n        RolesLib.revokeRole(role, account);\\n    }\\n\\n    /**\\n     * @notice Removes a role from the sender.\\n     * @param role Encoding of the role to remove.\\n     */\\n    function renounceRole(bytes32 role) external {\\n        RolesLib.revokeRole(role, msg.sender);\\n    }\\n}\\n\",\"keccak256\":\"0x3d02fb1286754a6da3419c81632d23e9444b1fe8cd64283e15fcb07a9b201815\",\"license\":\"MIT\"},\"contracts/contexts2/access-control/roles/RolesLib.sol\":{\"content\":\"// SPDX-License-Identifier: MIT\\npragma solidity ^0.8.0;\\n\\nimport { AccessControlStorageLib, AccessControlStorage } from \\\"../storage.sol\\\";\\n\\nlibrary RolesLib {\\n    function s() private pure returns (AccessControlStorage storage) {\\n        return AccessControlStorageLib.store();\\n    }\\n\\n    /**\\n     * @dev Emitted when `account` is granted `role`.\\n     */\\n    event RoleGranted(\\n        bytes32 indexed role,\\n        address indexed account,\\n        address indexed sender\\n    );\\n\\n    /**\\n     * @dev Emitted when `account` is revoked `role`.\\n     */\\n    event RoleRevoked(\\n        bytes32 indexed role,\\n        address indexed account,\\n        address indexed sender\\n    );\\n\\n    /**\\n     * @notice Checks if an account has a specific role.\\n     */\\n    function hasRole(bytes32 role, address account)\\n        internal\\n        view\\n        returns (bool)\\n    {\\n        return s().roles[role][account];\\n    }\\n\\n    /**\\n     * @dev Gives an account a new role.\\n     * @dev Should only use when circumventing admin checking.\\n     * @dev If account already has the role, no event is emitted.\\n     * @param role Encoding of the role to give.\\n     * @param account Address to give the {role} to.\\n     */\\n    function grantRole(bytes32 role, address account) internal {\\n        if (hasRole(role, account)) return;\\n        s().roles[role][account] = true;\\n        emit RoleGranted(role, account, msg.sender);\\n    }\\n\\n    /**\\n     * @dev Removes a role from an account.\\n     * @dev Should only use when circumventing admin checking.\\n     * @dev If account does not already have the role, no event is emitted.\\n     * @param role Encoding of the role to remove.\\n     * @param account Address to remove the {role} from.\\n     */\\n    function revokeRole(bytes32 role, address account) internal {\\n        if (!hasRole(role, account)) return;\\n        s().roles[role][account] = false;\\n        emit RoleRevoked(role, account, msg.sender);\\n    }\\n}\\n\",\"keccak256\":\"0x36d0f5db441d2c3db7ee04d84c88ce9b14251cff4387702e96965c51acd1bc84\",\"license\":\"MIT\"},\"contracts/contexts2/access-control/roles/RolesMods.sol\":{\"content\":\"// SPDX-License-Identifier: MIT\\npragma solidity ^0.8.0;\\n\\nimport { RolesLib } from \\\"./RolesLib.sol\\\";\\n\\nabstract contract RolesMods {\\n    /**\\n     * @notice Requires that the {account} has {role}\\n     * @param role Encoding of the role to check.\\n     * @param account Address to check the {role} for.\\n     */\\n    modifier authorized(bytes32 role, address account) {\\n        require(\\n            RolesLib.hasRole(role, account),\\n            \\\"AccessControl: not authorized\\\"\\n        );\\n        _;\\n    }\\n}\\n\",\"keccak256\":\"0x25eeaba823d4fc9c52d82a77cfdb409550ad985fc49b30a5560c1f313c1ca905\",\"license\":\"MIT\"},\"contracts/contexts2/access-control/storage.sol\":{\"content\":\"// SPDX-License-Identifier: MIT\\npragma solidity ^0.8.0;\\n\\nstruct AccessControlStorage {\\n    mapping(bytes32 => mapping(address => bool)) roles;\\n    mapping(address => address) owners;\\n    mapping(bytes32 => bool) entered;\\n}\\n\\nbytes32 constant ACCESS_CONTROL_POS = keccak256(\\n    \\\"teller.access_control.storage\\\"\\n);\\n\\nlibrary AccessControlStorageLib {\\n    function store() internal pure returns (AccessControlStorage storage s) {\\n        bytes32 pos = ACCESS_CONTROL_POS;\\n        assembly {\\n            s.slot := pos\\n        }\\n    }\\n}\\n\",\"keccak256\":\"0xf667fb8d6beb59fc6f37d60ada6b811b5861512fedc661c483b9eca042e96112\",\"license\":\"MIT\"},\"contracts/escrow/dapps/interfaces/DataTypes.sol\":{\"content\":\"// SPDX-License-Identifier: agpl-3.0\\npragma solidity ^0.8.0;\\n\\nlibrary DataTypes {\\n    // refer to the aave whitepaper, section 1.1 basic concepts for a formal description of these properties.\\n    struct ReserveData {\\n        //stores the reserve configuration\\n        ReserveConfigurationMap configuration;\\n        //the liquidity index. Expressed in ray\\n        uint128 liquidityIndex;\\n        //variable borrow index. Expressed in ray\\n        uint128 variableBorrowIndex;\\n        //the current supply rate. Expressed in ray\\n        uint128 currentLiquidityRate;\\n        //the current variable borrow rate. Expressed in ray\\n        uint128 currentVariableBorrowRate;\\n        //the current stable borrow rate. Expressed in ray\\n        uint128 currentStableBorrowRate;\\n        uint40 lastUpdateTimestamp;\\n        //tokens addresses\\n        address aTokenAddress;\\n        address stableDebtTokenAddress;\\n        address variableDebtTokenAddress;\\n        //address of the interest rate strategy\\n        address interestRateStrategyAddress;\\n        //the id of the reserve. Represents the position in the list of the active reserves\\n        uint8 id;\\n    }\\n\\n    struct ReserveConfigurationMap {\\n        //bit 0-15: LTV\\n        //bit 16-31: Liq. threshold\\n        //bit 32-47: Liq. bonus\\n        //bit 48-55: Decimals\\n        //bit 56: Reserve is active\\n        //bit 57: reserve is frozen\\n        //bit 58: borrowing is enabled\\n        //bit 59: stable rate borrowing enabled\\n        //bit 60-63: reserved\\n        //bit 64-79: reserve factor\\n        uint256 data;\\n    }\\n\\n    struct UserConfigurationMap {\\n        uint256 data;\\n    }\\n\\n    enum InterestRateMode { NONE, STABLE, VARIABLE }\\n}\\n\",\"keccak256\":\"0xf4301e0bd269f4662f1c1a0ed4f217cd78d670e43d51a025d55878b972d0a8e7\",\"license\":\"agpl-3.0\"},\"contracts/escrow/dapps/interfaces/IAToken.sol\":{\"content\":\"// SPDX-License-Identifier: agpl-3.0\\npragma solidity ^0.8.0;\\n\\ninterface IAToken {\\n    /**\\n     * @dev Mints `amount` aTokens to `user`\\n     * @param user The address receiving the minted tokens\\n     * @param amount The amount of tokens getting minted\\n     * @param index The new liquidity index of the reserve\\n     * @return `true` if the the previous balance of the user was 0\\n     */\\n    function mint(\\n        address user,\\n        uint256 amount,\\n        uint256 index\\n    ) external returns (bool);\\n\\n    /**\\n     * @dev Burns aTokens from `user` and sends the equivalent amount of underlying to `receiverOfUnderlying`\\n     * @param user The owner of the aTokens, getting them burned\\n     * @param receiverOfUnderlying The address that will receive the underlying\\n     * @param amount The amount being burned\\n     * @param index The new liquidity index of the reserve\\n     **/\\n    function burn(\\n        address user,\\n        address receiverOfUnderlying,\\n        uint256 amount,\\n        uint256 index\\n    ) external;\\n\\n    /**\\n     * @dev Transfers the underlying asset to `target`. Used by the LendingPool to transfer\\n     * assets in borrow(), withdraw() and flashLoan()\\n     * @param user The recipient of the aTokens\\n     * @param amount The amount getting transferred\\n     * @return The amount transferred\\n     **/\\n    function transferUnderlyingTo(address user, uint256 amount)\\n        external\\n        returns (uint256);\\n\\n    /**\\n     * @dev Returns the amount of tokens owned by `account`.\\n     */\\n    function balanceOf(address account) external view returns (uint256);\\n\\n    /**\\n     * @dev Returns the remaining number of tokens that `spender` will be\\n     * allowed to spend on behalf of `owner` through {transferFrom}. This is\\n     * zero by default.\\n     *\\n     * This value changes when {approve} or {transferFrom} are called.\\n     */\\n    function allowance(address owner, address spender)\\n        external\\n        view\\n        returns (uint256);\\n\\n    /**\\n     * @dev Sets `amount` as the allowance of `spender` over the caller's tokens.\\n     *\\n     * Returns a boolean value indicating whether the operation succeeded.\\n     *\\n     * IMPORTANT: Beware that changing an allowance with this method brings the risk\\n     * that someone may use both the old and the new allowance by unfortunate\\n     * transaction ordering. One possible solution to mitigate this race\\n     * condition is to first reduce the spender's allowance to 0 and set the\\n     * desired value afterwards:\\n     * https://github.com/ethereum/EIPs/issues/20#issuecomment-263524729\\n     *\\n     * Emits an {Approval} event.\\n     */\\n    function approve(address spender, uint256 amount) external returns (bool);\\n\\n    /**\\n     * @dev Returns the scaled balance of the user. The scaled balance is the sum of all the\\n     * updated stored balance divided by the reserve's liquidity index at the moment of the update\\n     * @param user The user whose balance is calculated\\n     * @return The scaled balance of the user\\n     **/\\n    function scaledBalanceOf(address user) external view returns (uint256);\\n\\n    /**\\n     * @dev Returns the scaled balance of the user and the scaled total supply.\\n     * @param user The address of the user\\n     * @return The scaled balance of the user\\n     * @return The scaled balance and the scaled total supply\\n     **/\\n    function getScaledUserBalanceAndSupply(address user)\\n        external\\n        view\\n        returns (uint256, uint256);\\n\\n    /**\\n     * @dev Returns the scaled total supply of the variable debt token. Represents sum(debt/index)\\n     * @return The scaled total supply\\n     **/\\n    function scaledTotalSupply() external view returns (uint256);\\n}\\n\",\"keccak256\":\"0xf715e63b83c55fcd3476280a0ab871ed763754b3f5404ec779903652a3e7838e\",\"license\":\"agpl-3.0\"},\"contracts/escrow/dapps/interfaces/IAaveLendingPool.sol\":{\"content\":\"// SPDX-License-Identifier: agpl-3.0\\npragma solidity ^0.8.0;\\n\\nimport \\\"./IAaveLendingPoolAddressesProvider.sol\\\";\\nimport \\\"./DataTypes.sol\\\";\\n\\ninterface IAaveLendingPool {\\n    /**\\n     * @dev Deposits an `amount` of underlying asset into the reserve, receiving in return overlying aTokens.\\n     * - E.g. User deposits 100 USDC and gets in return 100 aUSDC\\n     * @param asset The address of the underlying asset to deposit\\n     * @param amount The amount to be deposited\\n     * @param onBehalfOf The address that will receive the aTokens, same as msg.sender if the user\\n     *   wants to receive them on his own wallet, or a different address if the beneficiary of aTokens\\n     *   is a different wallet\\n     * @param referralCode Code used to register the integrator originating the operation, for potential rewards.\\n     *   0 if the action is executed directly by the user, without any middle-man\\n     **/\\n    function deposit(\\n        address asset,\\n        uint256 amount,\\n        address onBehalfOf,\\n        uint16 referralCode\\n    ) external;\\n\\n    /**\\n     * @dev Withdraws an `amount` of underlying asset from the reserve, burning the equivalent aTokens owned\\n     * E.g. User has 100 aUSDC, calls withdraw() and receives 100 USDC, burning the 100 aUSDC\\n     * @param asset The address of the underlying asset to withdraw\\n     * @param amount The underlying amount to be withdrawn\\n     *   - Send the value type(uint256).max in order to withdraw the whole aToken balance\\n     * @param to Address that will receive the underlying, same as msg.sender if the user\\n     *   wants to receive it on his own wallet, or a different address if the beneficiary is a\\n     *   different wallet\\n     * @return The final amount withdrawn\\n     **/\\n    function withdraw(\\n        address asset,\\n        uint256 amount,\\n        address to\\n    ) external returns (uint256);\\n\\n    /**\\n     * @dev Allows users to borrow a specific `amount` of the reserve underlying asset, provided that the borrower\\n     * already deposited enough collateral, or he was given enough allowance by a credit delegator on the\\n     * corresponding debt token (StableDebtToken or VariableDebtToken)\\n     * - E.g. User borrows 100 USDC passing as `onBehalfOf` his own address, receiving the 100 USDC in his wallet\\n     *   and 100 stable/variable debt tokens, depending on the `interestRateMode`\\n     * @param asset The address of the underlying asset to borrow\\n     * @param amount The amount to be borrowed\\n     * @param interestRateMode The interest rate mode at which the user wants to borrow: 1 for Stable, 2 for Variable\\n     * @param referralCode Code used to register the integrator originating the operation, for potential rewards.\\n     *   0 if the action is executed directly by the user, without any middle-man\\n     * @param onBehalfOf Address of the user who will receive the debt. Should be the address of the borrower itself\\n     * calling the function if he wants to borrow against his own collateral, or the address of the credit delegator\\n     * if he has been given credit delegation allowance\\n     **/\\n    function borrow(\\n        address asset,\\n        uint256 amount,\\n        uint256 interestRateMode,\\n        uint16 referralCode,\\n        address onBehalfOf\\n    ) external;\\n\\n    /**\\n     * @notice Repays a borrowed `amount` on a specific reserve, burning the equivalent debt tokens owned\\n     * - E.g. User repays 100 USDC, burning 100 variable/stable debt tokens of the `onBehalfOf` address\\n     * @param asset The address of the borrowed underlying asset previously borrowed\\n     * @param amount The amount to repay\\n     * - Send the value type(uint256).max in order to repay the whole debt for `asset` on the specific `debtMode`\\n     * @param rateMode The interest rate mode at of the debt the user wants to repay: 1 for Stable, 2 for Variable\\n     * @param onBehalfOf Address of the user who will get his debt reduced/removed. Should be the address of the\\n     * user calling the function if he wants to reduce/remove his own debt, or the address of any other\\n     * other borrower whose debt should be removed\\n     * @return The final amount repaid\\n     **/\\n    function repay(\\n        address asset,\\n        uint256 amount,\\n        uint256 rateMode,\\n        address onBehalfOf\\n    ) external returns (uint256);\\n\\n    /**\\n     * @dev Allows a borrower to swap his debt between stable and variable mode, or viceversa\\n     * @param asset The address of the underlying asset borrowed\\n     * @param rateMode The rate mode that the user wants to swap to\\n     **/\\n    function swapBorrowRateMode(address asset, uint256 rateMode) external;\\n\\n    /**\\n     * @dev Rebalances the stable interest rate of a user to the current stable rate defined on the reserve.\\n     * - Users can be rebalanced if the following conditions are satisfied:\\n     *     1. Usage ratio is above 95%\\n     *     2. the current deposit APY is below REBALANCE_UP_THRESHOLD * maxVariableBorrowRate, which means that too much has been\\n     *        borrowed at a stable rate and depositors are not earning enough\\n     * @param asset The address of the underlying asset borrowed\\n     * @param user The address of the user to be rebalanced\\n     **/\\n    function rebalanceStableBorrowRate(address asset, address user) external;\\n\\n    /**\\n     * @dev Allows depositors to enable/disable a specific deposited asset as collateral\\n     * @param asset The address of the underlying asset deposited\\n     * @param useAsCollateral `true` if the user wants to use the deposit as collateral, `false` otherwise\\n     **/\\n    function setUserUseReserveAsCollateral(address asset, bool useAsCollateral)\\n        external;\\n\\n    /**\\n     * @dev Function to liquidate a non-healthy position collateral-wise, with Health Factor below 1\\n     * - The caller (liquidator) covers `debtToCover` amount of debt of the user getting liquidated, and receives\\n     *   a proportionally amount of the `collateralAsset` plus a bonus to cover market risk\\n     * @param collateralAsset The address of the underlying asset used as collateral, to receive as result of the liquidation\\n     * @param debtAsset The address of the underlying borrowed asset to be repaid with the liquidation\\n     * @param user The address of the borrower getting liquidated\\n     * @param debtToCover The debt amount of borrowed `asset` the liquidator wants to cover\\n     * @param receiveAToken `true` if the liquidators wants to receive the collateral aTokens, `false` if he wants\\n     * to receive the underlying collateral asset directly\\n     **/\\n    function liquidationCall(\\n        address collateralAsset,\\n        address debtAsset,\\n        address user,\\n        uint256 debtToCover,\\n        bool receiveAToken\\n    ) external;\\n\\n    /**\\n     * @dev Allows smartcontracts to access the liquidity of the pool within one transaction,\\n     * as long as the amount taken plus a fee is returned.\\n     * IMPORTANT There are security concerns for developers of flashloan receiver contracts that must be kept into consideration.\\n     * For further details please visit https://developers.aave.com\\n     * @param receiverAddress The address of the contract receiving the funds, implementing the IFlashLoanReceiver interface\\n     * @param assets The addresses of the assets being flash-borrowed\\n     * @param amounts The amounts amounts being flash-borrowed\\n     * @param modes Types of the debt to open if the flash loan is not returned:\\n     *   0 -> Don't open any debt, just revert if funds can't be transferred from the receiver\\n     *   1 -> Open debt at stable rate for the value of the amount flash-borrowed to the `onBehalfOf` address\\n     *   2 -> Open debt at variable rate for the value of the amount flash-borrowed to the `onBehalfOf` address\\n     * @param onBehalfOf The address  that will receive the debt in the case of using on `modes` 1 or 2\\n     * @param params Variadic packed params to pass to the receiver as extra information\\n     * @param referralCode Code used to register the integrator originating the operation, for potential rewards.\\n     *   0 if the action is executed directly by the user, without any middle-man\\n     **/\\n    function flashLoan(\\n        address receiverAddress,\\n        address[] calldata assets,\\n        uint256[] calldata amounts,\\n        uint256[] calldata modes,\\n        address onBehalfOf,\\n        bytes calldata params,\\n        uint16 referralCode\\n    ) external;\\n\\n    /**\\n     * @dev Returns the user account data across all the reserves\\n     * @param user The address of the user\\n     * @return totalCollateralETH the total collateral in ETH of the user\\n     * @return totalDebtETH the total debt in ETH of the user\\n     * @return availableBorrowsETH the borrowing power left of the user\\n     * @return currentLiquidationThreshold the liquidation threshold of the user\\n     * @return ltv the loan to value of the user\\n     * @return healthFactor the current health factor of the user\\n     **/\\n    function getUserAccountData(address user)\\n        external\\n        view\\n        returns (\\n            uint256 totalCollateralETH,\\n            uint256 totalDebtETH,\\n            uint256 availableBorrowsETH,\\n            uint256 currentLiquidationThreshold,\\n            uint256 ltv,\\n            uint256 healthFactor\\n        );\\n\\n    /**\\n     * @dev Returns the configuration of the reserve\\n     * @param asset The address of the underlying asset of the reserve\\n     * @return The configuration of the reserve\\n     **/\\n    function getConfiguration(address asset)\\n        external\\n        view\\n        returns (DataTypes.ReserveConfigurationMap memory);\\n\\n    /**\\n     * @dev Returns the configuration of the user across all the reserves\\n     * @param user The user address\\n     * @return The configuration of the user\\n     **/\\n    function getUserConfiguration(address user)\\n        external\\n        view\\n        returns (DataTypes.UserConfigurationMap memory);\\n\\n    /**\\n     * @dev Returns the normalized income normalized income of the reserve\\n     * @param asset The address of the underlying asset of the reserve\\n     * @return The reserve's normalized income\\n     */\\n    function getReserveNormalizedIncome(address asset)\\n        external\\n        view\\n        returns (uint256);\\n\\n    /**\\n     * @dev Returns the normalized variable debt per unit of asset\\n     * @param asset The address of the underlying asset of the reserve\\n     * @return The reserve normalized variable debt\\n     */\\n    function getReserveNormalizedVariableDebt(address asset)\\n        external\\n        view\\n        returns (uint256);\\n\\n    /**\\n     * @dev Returns the state and configuration of the reserve\\n     * @param asset The address of the underlying asset of the reserve\\n     * @return The state of the reserve\\n     **/\\n    function getReserveData(address asset)\\n        external\\n        view\\n        returns (DataTypes.ReserveData memory);\\n\\n    function finalizeTransfer(\\n        address asset,\\n        address from,\\n        address to,\\n        uint256 amount,\\n        uint256 balanceFromAfter,\\n        uint256 balanceToBefore\\n    ) external;\\n\\n    function getReservesList() external view returns (address[] memory);\\n\\n    function getAddressesProvider()\\n        external\\n        view\\n        returns (IAaveLendingPoolAddressesProvider);\\n\\n    function paused() external view returns (bool);\\n}\\n\",\"keccak256\":\"0x8fb5cf82d1c19d0c61151dfb8cf6f6c2a17a15b63600b75f359fe4e9e3acc23f\",\"license\":\"agpl-3.0\"},\"contracts/escrow/dapps/interfaces/IAaveLendingPoolAddressesProvider.sol\":{\"content\":\"// SPDX-License-Identifier: agpl-3.0\\npragma solidity ^0.8.0;\\n\\n/**\\n * @title LendingPoolAddressesProvider contract\\n * @dev Main registry of addresses part of or connected to the protocol, including permissioned roles\\n * - Acting also as factory of proxies and admin of those, so with right to change its implementations\\n * - Owned by the Aave Governance\\n * @author Aave\\n **/\\ninterface IAaveLendingPoolAddressesProvider {\\n    function getMarketId() external view returns (string memory);\\n\\n    function getAddress(bytes32 id) external view returns (address);\\n\\n    function getLendingPool() external view returns (address);\\n\\n    function getPriceOracle() external view returns (address);\\n\\n    function getLendingRateOracle() external view returns (address);\\n}\\n\",\"keccak256\":\"0x9d21dbefac677da74786c27ad0fe1b148c00df63f7a2616d75c2b97c756007b3\",\"license\":\"agpl-3.0\"},\"contracts/escrow/dapps/interfaces/IVault.sol\":{\"content\":\"// SPDX-License-Identifier: MIT\\npragma solidity ^0.8.0;\\n\\n/**\\n    @notice This interface defines the different functions available for a Yearn Vault\\n    @author develop@teller.finance\\n */\\n\\ninterface IVault {\\n    /**\\n        @notice Returns the unwrapped native token address that the Vault takes as deposit\\n        @return The address of the unwrapped token\\n     */\\n    function token() external view returns (address);\\n\\n    /**\\n        @notice Returns the vault's wrapped token name as a string, example 'yearn Dai Stablecoin'\\n        @return The name of the wrapped token\\n     */\\n    function name() external view returns (string memory);\\n\\n    /**\\n        @notice Returns the vault's wrapped token symbol as a string, example 'yDai'\\n        @return The symbol of the wrapped token\\n     */\\n    function symbol() external view returns (string memory);\\n\\n    /**\\n        @notice Returns the amount of decimals for this vault's wrapped token as a uin8\\n        @return The number of decimals for the token\\n     */\\n    function decimals() external view returns (uint8);\\n\\n    /**\\n     * @dev Returns the amount of tokens owned by `account`.\\n     */\\n    function balanceOf(address account) external view returns (uint256);\\n\\n    /**\\n        @notice Returns the address of the Vault's controller\\n        @return The address of the controller contract\\n     */\\n    function controller() external view returns (address);\\n\\n    /**\\n        @notice Returns the address of the Vault's governance contract\\n        @return The contract address\\n     */\\n    function governance() external view returns (address);\\n\\n    /**\\n        @notice Returns the price of the Vault's wrapped token, denominated in the unwrapped native token\\n        @notice Calculation is: nativeTokenBalance/yTokenTotalSupply,\\n            - nativeTokenBalance is the current balance of the native token (example DAI) in the Vault\\n            - yTokenTotalSupply is the total supply of the Vault's wrapped token (example yDAI)\\n        @return The token price\\n     */\\n    function getPricePerFullShare() external view returns (uint256); // v1 vaults\\n\\n    /**\\n        @notice Returns the price of the Vault's wrapped token, denominated in the unwrapped native token\\n        @notice Calculation is: nativeTokenBalance/yTokenTotalSupply,\\n            - nativeTokenBalance is the current balance of the native token (example DAI) in the Vault\\n            - yTokenTotalSupply is the total supply of the Vault's wrapped token (example yDAI)\\n        @return The token price\\n     */\\n    function getPricePerShare() external view returns (uint256); // v2 vaults\\n\\n    /**\\n        @notice Deposits the specified amount of the native unwrapped token (same as token() returns) into the Vault\\n        @param amountToDeposit The amount of tokens to deposit\\n     */\\n    function deposit(uint256 amountToDeposit) external;\\n\\n    /**\\n        @notice Deposits the maximum available amount of the native wrapped token (same as token()) into the Vault\\n     */\\n    function depositAll() external;\\n\\n    /**\\n        @notice Withdraws the specified amount of the native unwrapped token (same as token() returns) from the Vault\\n        @param amountToWithdraw The amount to withdraw\\n     */\\n    function withdraw(uint256 amountToWithdraw) external;\\n\\n    /**\\n        @notice Withdraws the maximum available amount of native unwrapped token (same as token()) from the Vault\\n     */\\n    function withdrawAll() external;\\n}\\n\",\"keccak256\":\"0x0e2e145747f8745bde77d4741abba1a1edb1dab02e9d467eff60cb881bcffd79\",\"license\":\"MIT\"},\"contracts/escrow/dapps/libraries/LibDapps.sol\":{\"content\":\"// SPDX-License-Identifier: MIT\\npragma solidity ^0.8.0;\\n\\n// Interfaces\\nimport { IERC20 } from \\\"@openzeppelin/contracts/token/ERC20/IERC20.sol\\\";\\nimport { IAToken } from \\\"../interfaces/IAToken.sol\\\";\\nimport { IAaveLendingPool } from \\\"../interfaces/IAaveLendingPool.sol\\\";\\nimport {\\n    IAaveLendingPoolAddressesProvider\\n} from \\\"../interfaces/IAaveLendingPoolAddressesProvider.sol\\\";\\nimport {\\n    IUniswapV2Router\\n} from \\\"../../../shared/interfaces/IUniswapV2Router.sol\\\";\\nimport { IVault } from \\\"../interfaces/IVault.sol\\\";\\n\\n// Libraries\\nimport {\\n    EnumerableSet\\n} from \\\"@openzeppelin/contracts/utils/structs/EnumerableSet.sol\\\";\\n\\n// Storage\\nimport { MarketStorageLib, MarketStorage } from \\\"../../../storage/market.sol\\\";\\nimport { AppStorageLib } from \\\"../../../storage/app.sol\\\";\\n\\nlibrary LibDapps {\\n    function s() internal pure returns (MarketStorage storage) {\\n        return MarketStorageLib.store();\\n    }\\n\\n    /**\\n        @notice Grabs the Aave lending pool instance from the Aave lending pool address provider\\n        @return IAaveLendingPool instance address\\n     */\\n    function getAaveLendingPool() internal view returns (IAaveLendingPool) {\\n        return\\n            IAaveLendingPool(\\n                IAaveLendingPoolAddressesProvider(\\n                    0xB53C1a33016B2DC2fF3653530bfF1848a515c8c5\\n                )\\n                    .getLendingPool()\\n            ); // LP address provider contract is immutable and the address will never change\\n    }\\n\\n    /**\\n        @notice Grabs the aToken instance from the lending pool\\n        @param tokenAddress The underlying asset address to get the aToken for\\n        @return IAToken instance\\n     */\\n    function getAToken(address tokenAddress) internal view returns (IAToken) {\\n        return\\n            IAToken(\\n                getAaveLendingPool().getReserveData(tokenAddress).aTokenAddress\\n            );\\n    }\\n\\n    /**\\n        @notice Grabs the yVault address for a token from the asset settings\\n        @param tokenAddress The underlying token address for the associated yVault\\n        @return yVault instance\\n     */\\n    function getYVault(address tokenAddress) internal view returns (IVault) {\\n        return\\n            IVault(\\n                AppStorageLib.store().assetSettings[tokenAddress].addresses[\\n                    keccak256(\\\"yVaultAddress\\\")\\n                ]\\n            );\\n    }\\n}\\n\",\"keccak256\":\"0x8030b206c87d0073fb7dbebfa2ee8a3e93c479d976d6cdaa0c939f2fedaa1525\",\"license\":\"MIT\"},\"contracts/escrow/escrow/ILoansEscrow.sol\":{\"content\":\"// SPDX-License-Identifier: MIT\\npragma solidity ^0.8.0;\\n\\ninterface ILoansEscrow {\\n    function init() external;\\n\\n    function callDapp(address dappAddress, bytes calldata dappData)\\n        external\\n        returns (bytes memory);\\n\\n    function setTokenAllowance(address token, address spender) external;\\n\\n    function claimToken(\\n        address token,\\n        address to,\\n        uint256 amount\\n    ) external;\\n}\\n\",\"keccak256\":\"0xdaa338698014e6c00edf7a2aca49026a047e253cbe7fc392a73f5f63a063a7f9\",\"license\":\"MIT\"},\"contracts/escrow/libraries/LibEscrow.sol\":{\"content\":\"// SPDX-License-Identifier: MIT\\npragma solidity ^0.8.0;\\n\\n// Libraries\\nimport { LibDapps } from \\\"../dapps/libraries/LibDapps.sol\\\";\\nimport { LibLoans } from \\\"../../market/libraries/LibLoans.sol\\\";\\nimport { PriceAggLib } from \\\"../../price-aggregator/PriceAggLib.sol\\\";\\nimport {\\n    EnumerableSet\\n} from \\\"@openzeppelin/contracts/utils/structs/EnumerableSet.sol\\\";\\n\\n// Interfaces\\nimport { IERC20 } from \\\"@openzeppelin/contracts/token/ERC20/IERC20.sol\\\";\\nimport { ILoansEscrow } from \\\"../escrow/ILoansEscrow.sol\\\";\\n\\n// Storage\\nimport { MarketStorageLib, MarketStorage } from \\\"../../storage/market.sol\\\";\\n\\nlibrary LibEscrow {\\n    function s() internal pure returns (MarketStorage storage) {\\n        return MarketStorageLib.store();\\n    }\\n\\n    function e(uint256 loanID) internal view returns (ILoansEscrow e_) {\\n        e_ = s().loanEscrows[loanID];\\n    }\\n\\n    function getEscrowTokens(uint256 loanID)\\n        internal\\n        view\\n        returns (EnumerableSet.AddressSet storage t_)\\n    {\\n        t_ = s().escrowTokens[loanID];\\n    }\\n\\n    function balanceOf(uint256 loanID, address token)\\n        internal\\n        view\\n        returns (uint256)\\n    {\\n        return IERC20(token).balanceOf(address(e(loanID)));\\n    }\\n\\n    /**\\n     * @notice Adds or removes tokens held by the Escrow contract\\n     * @param loanID The loan ID to update the token list for\\n     * @param tokenAddress The token address to be added or removed\\n     */\\n    function tokenUpdated(uint256 loanID, address tokenAddress) internal {\\n        // Skip if is lending token\\n        if (LibLoans.loan(loanID).lendingToken == tokenAddress) return;\\n\\n        EnumerableSet.AddressSet storage tokens = s().escrowTokens[loanID];\\n        bool contains = EnumerableSet.contains(tokens, tokenAddress);\\n        if (balanceOf(loanID, tokenAddress) > 0) {\\n            if (!contains) {\\n                EnumerableSet.add(tokens, tokenAddress);\\n            }\\n        } else if (contains) {\\n            EnumerableSet.remove(tokens, tokenAddress);\\n        }\\n    }\\n\\n    /**\\n     * @notice Calculate the value of the loan by getting the value of all tokens the Escrow owns.\\n     * @param loanID The loan ID to calculate value for\\n     * @return value_ Escrow total value denoted in the lending token.\\n     */\\n    function calculateTotalValue(uint256 loanID)\\n        internal\\n        view\\n        returns (uint256 value_)\\n    {\\n        address lendingToken = LibLoans.loan(loanID).lendingToken;\\n        value_ += balanceOf(loanID, lendingToken);\\n\\n        EnumerableSet.AddressSet storage tokens = getEscrowTokens(loanID);\\n        if (EnumerableSet.length(tokens) > 0) {\\n            for (uint256 i = 0; i < EnumerableSet.length(tokens); i++) {\\n                uint256 tokenBal =\\n                    balanceOf(loanID, EnumerableSet.at(tokens, i));\\n                value_ += PriceAggLib.valueFor(\\n                    EnumerableSet.at(tokens, i),\\n                    lendingToken,\\n                    tokenBal\\n                );\\n            }\\n        }\\n    }\\n}\\n\",\"keccak256\":\"0xcca97599fff1c1bd608e7f11c4674f325e43781794e91bf5322ac9e0ffd7b3df\",\"license\":\"MIT\"},\"contracts/lending/ttoken/ITToken.sol\":{\"content\":\"// SPDX-License-Identifier: MIT\\npragma solidity ^0.8.0;\\n\\n// Contracts\\nimport {\\n    ERC20Upgradeable\\n} from \\\"@openzeppelin/contracts-upgradeable/token/ERC20/ERC20Upgradeable.sol\\\";\\nimport { ERC20 } from \\\"@openzeppelin/contracts/token/ERC20/ERC20.sol\\\";\\nimport {\\n    RolesFacet\\n} from \\\"../../contexts2/access-control/roles/RolesFacet.sol\\\";\\n\\n/**\\n * @notice This contract acts as an interface for the Teller token (TToken).\\n *\\n * @author develop@teller.finance\\n */\\nabstract contract ITToken is ERC20Upgradeable, RolesFacet {\\n    /**\\n     * @notice This event is emitted when an user deposits tokens into the pool.\\n     */\\n    event Mint(\\n        address indexed sender,\\n        uint256 tTokenAmount,\\n        uint256 underlyingAmount\\n    );\\n\\n    /**\\n     * @notice This event is emitted when an user withdraws tokens from the pool.\\n     */\\n    event Redeem(\\n        address indexed sender,\\n        uint256 tTokenAmount,\\n        uint256 underlyingAmount\\n    );\\n\\n    /**\\n     * @notice The token that is the underlying assets for this Teller token.\\n     */\\n    function underlying() external view virtual returns (ERC20);\\n\\n    /**\\n     * @notice The balance of an {account} denoted in underlying value.\\n     * @param account Address to calculate the underlying balance.\\n     */\\n    function balanceOfUnderlying(address account)\\n        external\\n        virtual\\n        returns (uint256 balance_);\\n\\n    /**\\n     * @notice It calculates the current exchange rate for a whole Teller Token based of the underlying token balance.\\n     * @return rate_ The current exchange rate.\\n     */\\n    function exchangeRate() external virtual returns (uint256 rate_);\\n\\n    /**\\n     * @notice Redeem supplied Teller token underlying value.\\n     * @return totalSupply_ The total value of the underlying token managed by the LP.\\n     */\\n    function totalUnderlyingSupply()\\n        external\\n        virtual\\n        returns (uint256 totalSupply_);\\n\\n    /**\\n     * @notice It calculates the market state values across a given markets.\\n     * @notice Returns values that represent the global state across the market.\\n     * @return totalSupplied Total amount of the underlying asset supplied.\\n     * @return totalBorrowed Total amount borrowed through loans.\\n     * @return totalRepaid The total amount repaid till the current timestamp.\\n     * @return totalInterestRepaid The total amount interest repaid till the current timestamp.\\n     * @return totalOnLoan Total amount currently deployed in loans.\\n     */\\n    function getMarketState()\\n        external\\n        virtual\\n        returns (\\n            uint256 totalSupplied,\\n            uint256 totalBorrowed,\\n            uint256 totalRepaid,\\n            uint256 totalInterestRepaid,\\n            uint256 totalOnLoan\\n        );\\n\\n    /**\\n     * @notice Calculates the current Total Value Locked, denoted in the underlying asset, in the Teller Token pool.\\n     * @return tvl_ The value locked in the pool.\\n     *\\n     * Note: This value includes the amount that is on loan (including ones that were sent to EOAs).\\n     */\\n    function currentTVL() external virtual returns (uint256 tvl_);\\n\\n    /**\\n     * @notice It validates whether supply to debt (StD) ratio is valid including the loan amount.\\n     * @param newLoanAmount the new loan amount to consider o the StD ratio.\\n     * @return ratio_ Whether debt ratio for lending pool is valid.\\n     */\\n    function debtRatioFor(uint256 newLoanAmount)\\n        external\\n        virtual\\n        returns (uint16 ratio_);\\n\\n    /**\\n     * @notice Called by the Teller Diamond contract when a loan has been taken out and requires funds.\\n     * @param recipient The account to send the funds to.\\n     * @param amount Funds requested to fulfil the loan.\\n     */\\n    function fundLoan(address recipient, uint256 amount) external virtual;\\n\\n    /**\\n     * @notice Called by the Teller Diamond contract when a loan has been repaid.\\n     * @param amount Funds deposited back into the pool to repay the principal amount of a loan.\\n     * @param interestAmount Interest value paid into the pool from a loan.\\n     */\\n    function repayLoan(uint256 amount, uint256 interestAmount) external virtual;\\n\\n    /**\\n     * @notice Increase account supply of specified token amount.\\n     * @param amount The amount of underlying tokens to use to mint.\\n     */\\n    function mint(uint256 amount)\\n        external\\n        virtual\\n        returns (uint256 mintAmount_);\\n\\n    /**\\n     * @notice Redeem supplied Teller token underlying value.\\n     * @param amount The amount of Teller tokens to redeem.\\n     */\\n    function redeem(uint256 amount) external virtual;\\n\\n    /**\\n     * @notice Redeem supplied underlying value.\\n     * @param amount The amount of underlying tokens to redeem.\\n     */\\n    function redeemUnderlying(uint256 amount) external virtual;\\n\\n    /**\\n     * @notice Rebalances the funds controlled by Teller Token according to the current strategy.\\n     *\\n     * See {TTokenStrategy}.\\n     */\\n    function rebalance() external virtual;\\n\\n    /**\\n     * @notice Sets a new strategy to use for balancing funds.\\n     * @param strategy Address to the new strategy contract. Must implement the {ITTokenStrategy} interface.\\n     * @param initData Optional data to initialize the strategy.\\n     *\\n     * Requirements:\\n     *  - Sender must have ADMIN role\\n     */\\n    function setStrategy(address strategy, bytes calldata initData)\\n        external\\n        virtual;\\n\\n    /**\\n     * @notice Gets the strategy used for balancing funds.\\n     */\\n    function getStrategy() external view virtual returns (address);\\n\\n    /**\\n     * @notice Sets the restricted state of the platform.\\n     */\\n    function restrict(bool state) external virtual;\\n\\n    function initialize(address admin, address underlying) external virtual;\\n}\\n\",\"keccak256\":\"0xe6515c78e0277edbed82aa6926df727afd216379dd0bfbbb790222654c858499\",\"license\":\"MIT\"},\"contracts/market/LoanDataFacet.sol\":{\"content\":\"// SPDX-License-Identifier: MIT\\npragma solidity ^0.8.0;\\n\\n// Libraries\\nimport { LibLoans } from \\\"./libraries/LibLoans.sol\\\";\\nimport { LibEscrow } from \\\"../escrow/libraries/LibEscrow.sol\\\";\\n\\nimport {\\n    EnumerableSet\\n} from \\\"@openzeppelin/contracts/utils/structs/EnumerableSet.sol\\\";\\n\\n// Storage\\nimport { Loan, LoanDebt, LoanTerms } from \\\"../storage/market.sol\\\";\\n\\ncontract LoanDataFacet {\\n    /**\\n     * @notice Returns the information about the given {loanID}.\\n     * @param loanID The loan ID to get information for.\\n     * @return loan_ The loan data.\\n     */\\n    function getLoan(uint256 loanID) external view returns (Loan memory loan_) {\\n        loan_ = LibLoans.s().loans[loanID];\\n    }\\n\\n    /**\\n     * @notice Returns the terms for a specified loan.\\n     * @param loanID The loan ID to get the total amount owed.\\n     * @return LoanTerms The terms that the loan weer created with.\\n     */\\n    function getLoanTerms(uint256 loanID)\\n        external\\n        view\\n        returns (LoanTerms memory)\\n    {\\n        return LibLoans.terms(loanID);\\n    }\\n\\n    /**\\n     * @notice Returns the loan IDs created by the {borrower} account.\\n     * @param borrower The account to get loan IDs for.\\n     * @return loanIDs The IDs for loans created by the {borrower}\\n     */\\n    function getBorrowerLoans(address borrower)\\n        external\\n        view\\n        returns (uint128[] memory loanIDs)\\n    {\\n        return LibLoans.s().borrowerLoans[borrower];\\n    }\\n\\n    /**\\n     * @notice Returns the debt owed for a specified loan.\\n     * @param loanID The loan ID to get the total amount owed.\\n     * @return LoanDebt The principal and interest owed amount.\\n     */\\n    function getDebtOwed(uint256 loanID)\\n        external\\n        view\\n        returns (LoanDebt memory)\\n    {\\n        return LibLoans.debt(loanID);\\n    }\\n\\n    /**\\n     * @notice Returns the total amount owed for a specified loan.\\n     * @param loanID The loan ID to get the total amount owed.\\n     * @return uint256 The total owed amount.\\n     */\\n    function getTotalOwed(uint256 loanID) external view returns (uint256) {\\n        return LibLoans.getTotalOwed(loanID);\\n    }\\n\\n    /**\\n     * @notice Returns the amount of interest owed for a given loan and loan amount.\\n     * @param loanID The loan ID to get the owed interest.\\n     * @param amountBorrow The principal of the loan to take out.\\n     * @return uint256 The interest owed.\\n     */\\n    function getInterestOwedFor(uint256 loanID, uint256 amountBorrow)\\n        external\\n        view\\n        returns (uint256)\\n    {\\n        return LibLoans.getInterestOwedFor(loanID, amountBorrow);\\n    }\\n\\n    function getCollateralNeededInfo(uint256 loanID)\\n        external\\n        view\\n        returns (\\n            uint256 neededInLendingTokens,\\n            uint256 neededInCollateralTokens,\\n            uint256 escrowLoanValue\\n        )\\n    {\\n        return LibLoans.getCollateralNeededInfo(loanID);\\n    }\\n\\n    function getLoanEscrow(uint256 loanID)\\n        external\\n        view\\n        returns (address escrow_)\\n    {\\n        escrow_ = address(LibLoans.s().loanEscrows[loanID]);\\n    }\\n\\n    function getLoanEscrowValue(uint256 loanID)\\n        external\\n        view\\n        returns (uint256)\\n    {\\n        return LibEscrow.calculateTotalValue(loanID);\\n    }\\n\\n    function getEscrowTokens(uint256 loanID)\\n        external\\n        view\\n        returns (address[] memory tokens_)\\n    {\\n        EnumerableSet.AddressSet storage escrowTokens =\\n            LibEscrow.getEscrowTokens(loanID);\\n        tokens_ = new address[](EnumerableSet.length(escrowTokens));\\n        for (uint256 i; i < tokens_.length; i++) {\\n            tokens_[i] = EnumerableSet.at(escrowTokens, i);\\n        }\\n    }\\n}\\n\",\"keccak256\":\"0xf589a2afff647e5288e15f3f6614135395562b4d12c743402a6504a3fb9b39d6\",\"license\":\"MIT\"},\"contracts/market/RepayFacet.sol\":{\"content\":\"// SPDX-License-Identifier: MIT\\npragma solidity ^0.8.0;\\n\\n// Contracts\\nimport { RolesMods } from \\\"../contexts2/access-control/roles/RolesMods.sol\\\";\\nimport { PausableMods } from \\\"../settings/pausable/PausableMods.sol\\\";\\nimport {\\n    ReentryMods\\n} from \\\"../contexts2/access-control/reentry/ReentryMods.sol\\\";\\nimport { AUTHORIZED } from \\\"../shared/roles.sol\\\";\\nimport { LoanDataFacet } from \\\"./LoanDataFacet.sol\\\";\\n\\n// Libraries\\nimport {\\n    IERC20,\\n    SafeERC20\\n} from \\\"@openzeppelin/contracts/token/ERC20/utils/SafeERC20.sol\\\";\\nimport {\\n    EnumerableSet\\n} from \\\"@openzeppelin/contracts/utils/structs/EnumerableSet.sol\\\";\\nimport { LibLoans } from \\\"./libraries/LibLoans.sol\\\";\\nimport { LibCollateral } from \\\"./libraries/LibCollateral.sol\\\";\\nimport { LibDapps } from \\\"../escrow/dapps/libraries/LibDapps.sol\\\";\\nimport { LibEscrow } from \\\"../escrow/libraries/LibEscrow.sol\\\";\\nimport {\\n    PlatformSettingsLib\\n} from \\\"../settings/platform/libraries/PlatformSettingsLib.sol\\\";\\nimport { NumbersLib } from \\\"../shared/libraries/NumbersLib.sol\\\";\\nimport { PriceAggLib } from \\\"../price-aggregator/PriceAggLib.sol\\\";\\nimport { NFTLib } from \\\"../nft/libraries/NFTLib.sol\\\";\\n\\n// Interfaces\\nimport { ITToken } from \\\"../lending/ttoken/ITToken.sol\\\";\\nimport { ILoansEscrow } from \\\"../escrow/escrow/ILoansEscrow.sol\\\";\\n\\n// Storage\\nimport {\\n    MarketStorageLib,\\n    MarketStorage,\\n    Loan,\\n    LoanStatus\\n} from \\\"../storage/market.sol\\\";\\n\\ncontract RepayFacet is RolesMods, ReentryMods, PausableMods {\\n    /**\\n        @notice This event is emitted when a loan has been successfully repaid\\n        @param loanID ID of loan from which collateral was withdrawn\\n        @param borrower Account address of the borrower\\n        @param amountPaid Amount of the loan paid back\\n        @param payer Account address of the payer\\n        @param totalOwed Total amount of the loan to be repaid\\n     */\\n    event LoanRepaid(\\n        uint256 indexed loanID,\\n        address indexed borrower,\\n        uint256 amountPaid,\\n        address payer,\\n        uint256 totalOwed\\n    );\\n\\n    /**\\n     * @notice This event is emitted when a loan has been successfully liquidated\\n     * @param loanID ID of loan from which collateral was withdrawn\\n     * @param borrower Account address of the borrower\\n     * @param liquidator Account address of the liquidator\\n     * @param reward Value in lending token paid out to liquidator\\n     * @param tokensIn Percentage of the collateral price paid by the liquidator to the lending pool\\n     */\\n    event LoanLiquidated(\\n        uint256 indexed loanID,\\n        address indexed borrower,\\n        address liquidator,\\n        uint256 reward,\\n        uint256 tokensIn\\n    );\\n\\n    /**\\n     * @notice Repay this Escrow's loan.\\n     * @dev If the Escrow's balance of the borrowed token is less than the amount to repay, transfer tokens from the sender's wallet.\\n     * @dev Only the owner of the Escrow can call this. If someone else wants to make a payment, they should call the loan manager directly.\\n     * @param loanID The id of the loan being used.\\n     * @param amount The amount being repaid.\\n     */\\n    function escrowRepay(uint256 loanID, uint256 amount)\\n        external\\n        paused(\\\"\\\", false)\\n        authorized(AUTHORIZED, msg.sender)\\n        nonReentry(\\\"\\\")\\n    {\\n        uint256 balance =\\n            LibEscrow.balanceOf(loanID, LibLoans.loan(loanID).lendingToken);\\n        uint256 totalOwed = LibLoans.getTotalOwed(loanID);\\n        if (balance < totalOwed && amount > balance) {\\n            uint256 amountNeeded =\\n                amount > totalOwed ? totalOwed - (balance) : amount - (balance);\\n\\n            SafeERC20.safeTransferFrom(\\n                IERC20(LibLoans.loan(loanID).lendingToken),\\n                msg.sender,\\n                address(LibEscrow.e(loanID)),\\n                amountNeeded\\n            );\\n        }\\n\\n        __repayLoan(loanID, amount, address(LibEscrow.e(loanID)), false);\\n    }\\n\\n    /**\\n     * @notice Make a payment to a loan\\n     * @param loanID The ID of the loan the payment is for\\n     * @param amount The amount of tokens to pay back to the loan\\n     */\\n    function repayLoan(uint256 loanID, uint256 amount)\\n        external\\n        nonReentry(\\\"\\\")\\n        paused(\\\"\\\", false)\\n        authorized(AUTHORIZED, msg.sender)\\n    {\\n        __repayLoan(loanID, amount, msg.sender, false);\\n    }\\n\\n    function __repayLoan(\\n        uint256 loanID,\\n        uint256 amount,\\n        address sender,\\n        bool isLiquidation\\n    ) private returns (uint256 leftToPay_) {\\n        require(amount > 0, \\\"Teller: zero repay\\\");\\n\\n        // calculate the actual amount to repay\\n        leftToPay_ =\\n            LibLoans.debt(loanID).principalOwed +\\n            LibLoans.debt(loanID).interestOwed;\\n        if (leftToPay_ < amount) {\\n            amount = leftToPay_;\\n            leftToPay_ = 0;\\n        } else {\\n            leftToPay_ -= amount;\\n        }\\n\\n        // Get the Teller token for the loan\\n        ITToken tToken =\\n            MarketStorageLib.store().tTokens[\\n                LibLoans.loan(loanID).lendingToken\\n            ];\\n        // Transfer funds from account\\n        if (address(LibEscrow.e(loanID)) == sender) {\\n            LibEscrow.e(loanID).claimToken(\\n                LibLoans.loan(loanID).lendingToken,\\n                address(tToken),\\n                amount\\n            );\\n        } else {\\n            SafeERC20.safeTransferFrom(\\n                IERC20(LibLoans.loan(loanID).lendingToken),\\n                sender,\\n                address(tToken),\\n                amount\\n            );\\n        }\\n\\n        // Deduct the interest and principal owed\\n        uint256 principalPaid;\\n        uint256 interestPaid;\\n        if (amount < LibLoans.debt(loanID).interestOwed) {\\n            interestPaid = amount;\\n            LibLoans.debt(loanID).interestOwed -= amount;\\n        } else {\\n            if (LibLoans.debt(loanID).interestOwed > 0) {\\n                interestPaid = LibLoans.debt(loanID).interestOwed;\\n                amount -= interestPaid;\\n                LibLoans.debt(loanID).interestOwed = 0;\\n            }\\n\\n            if (amount > 0) {\\n                principalPaid = amount;\\n                LibLoans.debt(loanID).principalOwed -= amount;\\n            }\\n        }\\n\\n        // Tell the Teller Token value has been deposited back into the pool.\\n        tToken.repayLoan(principalPaid, interestPaid);\\n\\n        if (isLiquidation) {\\n            // Make sure there is nothing left to repay on the loan\\n            require(leftToPay_ == 0, \\\"Teller: liquidate partial repay\\\");\\n\\n            // Set loan status\\n            LibLoans.loan(loanID).status = LoanStatus.Liquidated;\\n\\n            // Transfer NFT if linked\\n            NFTLib.liquidateNFT(loanID);\\n        } else {\\n            // if the loan is now fully paid, close it and withdraw borrower collateral\\n            if (leftToPay_ == 0) {\\n                LibLoans.loan(loanID).status = LoanStatus.Closed;\\n                LibCollateral.withdrawAll(\\n                    loanID,\\n                    LibLoans.loan(loanID).borrower\\n                );\\n                // Restake any NFTs linked to loan for borrower\\n                NFTLib.restakeLinked(loanID, LibLoans.loan(loanID).borrower);\\n            }\\n\\n            emit LoanRepaid(\\n                loanID,\\n                LibLoans.loan(loanID).borrower,\\n                amount,\\n                msg.sender,\\n                leftToPay_\\n            );\\n        }\\n    }\\n\\n    /**\\n     * @notice Liquidate a loan if it is expired or under collateralized\\n     * @param loanID The ID of the loan to be liquidated\\n     */\\n    function liquidateLoan(uint256 loanID)\\n        external\\n        nonReentry(\\\"\\\")\\n        paused(\\\"\\\", false)\\n        authorized(AUTHORIZED, msg.sender)\\n    {\\n        Loan storage loan = LibLoans.loan(loanID);\\n        uint256 collateralAmount = LibCollateral.e(loanID).loanSupply(loanID);\\n        require(\\n            RepayLib.isLiquidable(loanID, collateralAmount),\\n            \\\"Teller: does not need liquidation\\\"\\n        );\\n\\n        // Calculate the reward before repaying the loan\\n        (uint256 rewardInLending, uint256 collateralInLending) =\\n            RepayLib.getLiquidationReward(loanID, collateralAmount);\\n\\n        // The liquidator pays the amount still owed on the loan\\n        uint256 amountToLiquidate =\\n            LibLoans.debt(loanID).principalOwed +\\n                LibLoans.debt(loanID).interestOwed;\\n\\n        __repayLoan(loanID, amountToLiquidate, msg.sender, true);\\n\\n        // Payout the liquidator reward owed\\n        if (rewardInLending > 0) {\\n            RepayLib.payOutLiquidator(\\n                loanID,\\n                rewardInLending,\\n                collateralInLending,\\n                collateralAmount,\\n                payable(msg.sender)\\n            );\\n        }\\n\\n        emit LoanLiquidated(\\n            loanID,\\n            loan.borrower,\\n            msg.sender,\\n            rewardInLending,\\n            amountToLiquidate\\n        );\\n    }\\n\\n    /**\\n     * @notice It gets the current liquidation reward for a given loan.\\n     * @param loanID The loan ID to get the info.\\n     * @return inLending_ The value the liquidator will receive denoted in lending tokens.\\n     * @return inCollateral_ The value the liquidator will receive denoted in collateral tokens.\\n     */\\n    function getLiquidationReward(uint256 loanID)\\n        external\\n        view\\n        returns (uint256 inLending_, uint256 inCollateral_)\\n    {\\n        (inLending_, ) = RepayLib.getLiquidationReward(\\n            loanID,\\n            LibCollateral.e(loanID).loanSupply(loanID)\\n        );\\n        inCollateral_ = PriceAggLib.valueFor(\\n            LibLoans.loan(loanID).lendingToken,\\n            LibLoans.loan(loanID).collateralToken,\\n            inLending_\\n        );\\n    }\\n}\\n\\nlibrary RepayLib {\\n    /**\\n     * @notice It checks if a loan can be liquidated.\\n     * @param loanID The loan ID to check.\\n     * @return true if the loan is liquidable.\\n     */\\n    function isLiquidable(uint256 loanID, uint256 collateralAmount)\\n        internal\\n        view\\n        returns (bool)\\n    {\\n        Loan storage loan = LibLoans.loan(loanID);\\n        // Check if loan can be liquidated\\n        if (loan.status != LoanStatus.Active) {\\n            return false;\\n        }\\n\\n        if (loan.collateralRatio > 0) {\\n            // If loan has a collateral ratio, check how much is needed\\n            (, uint256 neededInCollateral, ) =\\n                LoanDataFacet(address(this)).getCollateralNeededInfo(loanID);\\n            if (neededInCollateral > collateralAmount) {\\n                return true;\\n            }\\n        }\\n\\n        // Otherwise, check if the loan has expired\\n        return block.timestamp >= loan.loanStartTime + loan.duration;\\n    }\\n\\n    /**\\n     * @notice It gets the current liquidation reward for a given loan.\\n     * @param loanID The loan ID to get the info.\\n     * @param collateralAmount The amount of collateral for the {loanID}. Passed in to save gas calling the collateral escrow multiple times.\\n     * @return reward_ The value the liquidator will receive denoted in lending tokens.\\n     */\\n    function getLiquidationReward(uint256 loanID, uint256 collateralAmount)\\n        internal\\n        view\\n        returns (uint256 reward_, uint256 collateralValue_)\\n    {\\n        uint256 amountToLiquidate =\\n            LibLoans.debt(loanID).principalOwed +\\n                LibLoans.debt(loanID).interestOwed;\\n\\n        // Max reward is amount repaid on loan plus extra percentage\\n        uint256 maxReward =\\n            amountToLiquidate +\\n                NumbersLib.percent(\\n                    amountToLiquidate,\\n                    uint16(PlatformSettingsLib.getLiquidateRewardPercent())\\n                );\\n\\n        // Calculate available collateral for reward\\n        if (collateralAmount > 0) {\\n            collateralValue_ = PriceAggLib.valueFor(\\n                LibLoans.loan(loanID).collateralToken,\\n                LibLoans.loan(loanID).lendingToken,\\n                collateralAmount\\n            );\\n            reward_ += collateralValue_;\\n        }\\n\\n        // Calculate loan escrow value if collateral not enough to cover reward\\n        if (reward_ < maxReward) {\\n            reward_ += LibEscrow.calculateTotalValue(loanID);\\n        }\\n\\n        // Cap the reward to max\\n        if (reward_ > maxReward) {\\n            reward_ = maxReward;\\n        }\\n    }\\n\\n    /**\\n     * @notice Checks if the loan has an Escrow and claims any tokens then pays out the loan collateral.\\n     * @dev See Escrow.claimTokens for more info.\\n     * @param loanID The loan ID which is being liquidated\\n     * @param rewardInLending The total amount of reward based in the lending token to pay the liquidator\\n     * @param collateralInLending The amount of collateral that is available for the loan denoted in lending tokens\\n     * @param collateralAmount The amount of collateral that is available for the loan\\n     * @param liquidator The address of the liquidator where the liquidation reward will be sent to\\n     */\\n    function payOutLiquidator(\\n        uint256 loanID,\\n        uint256 rewardInLending,\\n        uint256 collateralInLending,\\n        uint256 collateralAmount,\\n        address payable liquidator\\n    ) internal {\\n        require(\\n            LibLoans.loan(loanID).status == LoanStatus.Liquidated,\\n            \\\"Teller: loan not liquidated\\\"\\n        );\\n\\n        if (rewardInLending <= collateralInLending) {\\n            uint256 rewardInCollateral =\\n                PriceAggLib.valueFor(\\n                    LibLoans.loan(loanID).lendingToken,\\n                    LibLoans.loan(loanID).collateralToken,\\n                    rewardInLending\\n                );\\n\\n            LibCollateral.withdraw(loanID, rewardInCollateral, liquidator);\\n        } else {\\n            // Payout whats available in the collateral token\\n            LibCollateral.withdraw(loanID, collateralAmount, liquidator);\\n\\n            // Claim remaining reward value from the loan escrow\\n            claimEscrowTokensByValue(\\n                loanID,\\n                liquidator,\\n                rewardInLending - collateralInLending\\n            );\\n        }\\n    }\\n\\n    /**\\n     * @dev Send the equivalent of tokens owned by the loan escrow (in lending value) to the recipient,\\n     * @param loanID The loan ID to clam tokens from\\n     * @param recipient address to send the tokens to\\n     * @param value The value of escrow held tokens to be claimed based in lending value\\n     */\\n    function claimEscrowTokensByValue(\\n        uint256 loanID,\\n        address recipient,\\n        uint256 value\\n    ) private {\\n        EnumerableSet.AddressSet storage tokens =\\n            MarketStorageLib.store().escrowTokens[loanID];\\n        uint256 valueLeftToTransfer = value;\\n\\n        // Start with the lending token\\n        valueLeftToTransfer = claimEscrowToken(\\n            loanID,\\n            LibLoans.loan(loanID).lendingToken,\\n            recipient,\\n            valueLeftToTransfer\\n        );\\n\\n        // Cycle through remaining tokens\\n        for (uint256 i = 0; i < EnumerableSet.length(tokens); i++) {\\n            if (valueLeftToTransfer == 0) {\\n                return;\\n            }\\n\\n            valueLeftToTransfer = claimEscrowToken(\\n                loanID,\\n                EnumerableSet.at(tokens, i),\\n                recipient,\\n                valueLeftToTransfer\\n            );\\n        }\\n    }\\n\\n    function claimEscrowToken(\\n        uint256 loanID,\\n        address token,\\n        address recipient,\\n        uint256 valueLeftToTransfer\\n    ) private returns (uint256) {\\n        uint256 balance = LibEscrow.balanceOf(loanID, token);\\n        // get value of token balance in lending value\\n        if (balance > 0) {\\n            // If token not the lending token, get value of token\\n            uint256 balanceInLending;\\n            if (token == LibLoans.loan(loanID).lendingToken) {\\n                balanceInLending = balance;\\n            } else {\\n                balanceInLending = PriceAggLib.valueFor(\\n                    token,\\n                    LibLoans.loan(loanID).lendingToken,\\n                    balance\\n                );\\n            }\\n\\n            if (balanceInLending <= valueLeftToTransfer) {\\n                LibEscrow.e(loanID).claimToken(token, recipient, balance);\\n                valueLeftToTransfer -= balanceInLending;\\n            } else {\\n                // Token balance is more than enough so calculate ratio of balance to transfer\\n                uint256 valueToTransfer;\\n                if (token == LibLoans.loan(loanID).lendingToken) {\\n                    valueToTransfer = valueLeftToTransfer;\\n                } else {\\n                    valueToTransfer = NumbersLib.percent(\\n                        balance,\\n                        NumbersLib.ratioOf(\\n                            valueLeftToTransfer,\\n                            balanceInLending\\n                        )\\n                    );\\n                }\\n\\n                LibEscrow.e(loanID).claimToken(\\n                    token,\\n                    recipient,\\n                    valueToTransfer\\n                );\\n                valueLeftToTransfer = 0;\\n            }\\n        }\\n\\n        return valueLeftToTransfer;\\n    }\\n}\\n\",\"keccak256\":\"0xdfcd62dbcda7ba0ce92718d72d6cab3f7c78178d9ac9de6b04640124d43bf4cc\",\"license\":\"MIT\"},\"contracts/market/collateral/ICollateralEscrow.sol\":{\"content\":\"// SPDX-License-Identifier: MIT\\npragma solidity ^0.8.0;\\n\\ninterface ICollateralEscrow {\\n    function init(address tokenAddress, bool isWETH) external;\\n\\n    function deposit(uint256 loanID, uint256 amount) external payable;\\n\\n    function withdraw(\\n        uint256 loanID,\\n        uint256 amount,\\n        address payable receiver\\n    ) external;\\n\\n    function loanSupply(uint256 loanID) external view returns (uint256 supply_);\\n\\n    function totalSupply() external view returns (uint256 supply_);\\n}\\n\",\"keccak256\":\"0x3c83593b5521e85c7f62076b41869cd5a762b34523ac39fc23b4ea1b9042aa59\",\"license\":\"MIT\"},\"contracts/market/libraries/LibCollateral.sol\":{\"content\":\"// SPDX-License-Identifier: MIT\\npragma solidity ^0.8.0;\\n\\n// Interfaces\\nimport { IERC20 } from \\\"@openzeppelin/contracts/token/ERC20/ERC20.sol\\\";\\nimport { ICollateralEscrow } from \\\"../collateral/ICollateralEscrow.sol\\\";\\n\\n// Storage\\nimport { AppStorageLib } from \\\"../../storage/app.sol\\\";\\nimport { MarketStorageLib } from \\\"../../storage/market.sol\\\";\\n\\nlibrary LibCollateral {\\n    /**\\n     * @notice This event is emitted when collateral has been deposited for the loan\\n     * @param loanID ID of the loan for which collateral was deposited\\n     * @param depositor Account that deposited funds\\n     * @param amount Amount of collateral deposited\\n     */\\n    event CollateralDeposited(\\n        uint256 indexed loanID,\\n        address indexed depositor,\\n        uint256 amount\\n    );\\n\\n    /**\\n     * @notice This event is emitted when collateral has been withdrawn\\n     * @param loanID ID of loan from which collateral was withdrawn\\n     * @param receiver Account that received funds\\n     * @param amount Value of collateral withdrawn\\n     */\\n    event CollateralWithdrawn(\\n        uint256 indexed loanID,\\n        address indexed receiver,\\n        uint256 amount\\n    );\\n\\n    function e(uint256 loanID) internal view returns (ICollateralEscrow c_) {\\n        c_ = MarketStorageLib.store().collateralEscrows[\\n            MarketStorageLib.store().loans[loanID].collateralToken\\n        ];\\n    }\\n\\n    function e(address token) internal view returns (ICollateralEscrow c_) {\\n        c_ = MarketStorageLib.store().collateralEscrows[token];\\n    }\\n\\n    function deposit(uint256 loanID, uint256 amount) internal {\\n        e(loanID).deposit{ value: amount }(loanID, amount);\\n\\n        emit CollateralDeposited(loanID, msg.sender, amount);\\n    }\\n\\n    function withdraw(\\n        uint256 loanID,\\n        uint256 amount,\\n        address payable receiver\\n    ) internal {\\n        e(loanID).withdraw(loanID, amount, receiver);\\n\\n        emit CollateralWithdrawn(loanID, receiver, amount);\\n    }\\n\\n    function withdrawAll(uint256 loanID, address payable receiver) internal {\\n        withdraw(loanID, e(loanID).loanSupply(loanID), receiver);\\n    }\\n\\n    function createEscrow(address token) internal {\\n        // Check if collateral escrow exists\\n        if (address(e(token)) == address(0)) {\\n            // Create escrow\\n            address escrow =\\n                AppStorageLib.store().collateralEscrowBeacon.cloneProxy(\\\"\\\");\\n            ICollateralEscrow(escrow).init(\\n                token,\\n                // Check if collateral token is WETH\\n                token == AppStorageLib.store().assetAddresses[\\\"WETH\\\"]\\n            );\\n\\n            // Set max allowance\\n            IERC20(token).approve(escrow, type(uint256).max);\\n            // Save escrow address for loan\\n            MarketStorageLib.store().collateralEscrows[\\n                token\\n            ] = ICollateralEscrow(escrow);\\n        }\\n    }\\n}\\n\",\"keccak256\":\"0xd52b3e577480481b62d6a6c37f4ef596b7ec0120afbd6bc1a08b17923b926445\",\"license\":\"MIT\"},\"contracts/market/libraries/LibLoans.sol\":{\"content\":\"// SPDX-License-Identifier: MIT\\npragma solidity ^0.8.0;\\n\\n// Libraries\\nimport { LibEscrow } from \\\"../../escrow/libraries/LibEscrow.sol\\\";\\nimport { NumbersLib } from \\\"../../shared/libraries/NumbersLib.sol\\\";\\nimport {\\n    PlatformSettingsLib\\n} from \\\"../../settings/platform/libraries/PlatformSettingsLib.sol\\\";\\nimport { PriceAggLib } from \\\"../../price-aggregator/PriceAggLib.sol\\\";\\n\\n// Storage\\nimport {\\n    MarketStorageLib,\\n    MarketStorage,\\n    Loan,\\n    LoanStatus,\\n    LoanDebt,\\n    LoanTerms\\n} from \\\"../../storage/market.sol\\\";\\n\\nlibrary LibLoans {\\n    using NumbersLib for int256;\\n    using NumbersLib for uint256;\\n\\n    bytes32 internal constant ID = keccak256(\\\"LOANS\\\");\\n    uint32 internal constant SECONDS_PER_YEAR = 31536000;\\n\\n    function s() internal pure returns (MarketStorage storage) {\\n        return MarketStorageLib.store();\\n    }\\n\\n    function loan(uint256 loanID) internal view returns (Loan storage l_) {\\n        l_ = s().loans[loanID];\\n    }\\n\\n    function debt(uint256 loanID) internal view returns (LoanDebt storage d_) {\\n        d_ = s().loanDebt[loanID];\\n    }\\n\\n    function terms(uint256 loanID)\\n        internal\\n        view\\n        returns (LoanTerms storage t_)\\n    {\\n        t_ = s().loanTerms[loanID];\\n    }\\n\\n    /**\\n     * @notice Returns the total amount owed for a specified loan.\\n     * @param loanID The loan ID to get the total amount owed.\\n     * @return uint256 The total owed amount.\\n     */\\n    function getTotalOwed(uint256 loanID) internal view returns (uint256) {\\n        if (loan(loanID).status == LoanStatus.TermsSet) {\\n            uint256 interestOwed =\\n                getInterestOwedFor(loanID, terms(loanID).maxLoanAmount);\\n            return terms(loanID).maxLoanAmount + (interestOwed);\\n        } else if (loan(loanID).status == LoanStatus.Active) {\\n            return debt(loanID).principalOwed + (debt(loanID).interestOwed);\\n        }\\n        return 0;\\n    }\\n\\n    /**\\n     * @notice Returns the amount of interest owed for a given loan and loan amount.\\n     * @param loanID The loan ID to get the owed interest.\\n     * @param amountBorrow The principal of the loan to take out.\\n     * @return uint256 The interest owed.\\n     */\\n    function getInterestOwedFor(uint256 loanID, uint256 amountBorrow)\\n        internal\\n        view\\n        returns (uint256)\\n    {\\n        return amountBorrow.percent(uint16(getInterestRatio(loanID)));\\n    }\\n\\n    function getCollateralNeededInfo(uint256 loanID)\\n        internal\\n        view\\n        returns (\\n            uint256 neededInLendingTokens,\\n            uint256 neededInCollateralTokens,\\n            uint256 escrowLoanValue\\n        )\\n    {\\n        (neededInLendingTokens, escrowLoanValue) = getCollateralNeededInTokens(\\n            loanID\\n        );\\n\\n        if (neededInLendingTokens == 0) {\\n            neededInCollateralTokens = 0;\\n        } else {\\n            neededInCollateralTokens = PriceAggLib.valueFor(\\n                loan(loanID).lendingToken,\\n                loan(loanID).collateralToken,\\n                neededInLendingTokens\\n            );\\n        }\\n    }\\n\\n    /**\\n     * @notice Returns the minimum collateral value threshold, in the lending token, needed to take out the loan or for it be liquidated.\\n     * @dev If the loan status is TermsSet, then the value is whats needed to take out the loan.\\n     * @dev If the loan status is Active, then the value is the threshold at which the loan can be liquidated at.\\n     * @param loanID The loan ID to get needed collateral info for.\\n     * @return neededInLendingTokens int256 The minimum collateral value threshold required.\\n     * @return escrowLoanValue uint256 The value of the loan held in the escrow contract.\\n     */\\n    function getCollateralNeededInTokens(uint256 loanID)\\n        internal\\n        view\\n        returns (uint256 neededInLendingTokens, uint256 escrowLoanValue)\\n    {\\n        if (!_isActiveOrSet(loanID) || loan(loanID).collateralRatio == 0) {\\n            return (0, 0);\\n        }\\n\\n        /*\\n            The collateral to principal owed ratio is the sum of:\\n                * collateral buffer percent\\n                * loan interest rate\\n                * liquidation reward percent\\n                * X factor of additional collateral\\n        */\\n        // * To take out a loan (if status == TermsSet), the required collateral is (max loan amount * the collateral ratio).\\n        // * For the loan to not be liquidated (when status == Active), the minimum collateral is (principal owed * (X collateral factor + liquidation reward)).\\n        // * If the loan has an escrow account, the minimum collateral is ((principal owed - escrow value) * (X collateral factor + liquidation reward)).\\n        if (loan(loanID).status == LoanStatus.TermsSet) {\\n            neededInLendingTokens = _getLoanAmount(loanID).percent(\\n                loan(loanID).collateralRatio\\n            );\\n        } else {\\n            uint16 requiredRatio =\\n                loan(loanID).collateralRatio -\\n                    getInterestRatio(loanID) -\\n                    uint16(PlatformSettingsLib.getCollateralBufferValue());\\n\\n            neededInLendingTokens =\\n                debt(loanID).principalOwed +\\n                debt(loanID).interestOwed;\\n            escrowLoanValue = LibEscrow.calculateTotalValue(loanID);\\n            if (\\n                escrowLoanValue > 0 && neededInLendingTokens > escrowLoanValue\\n            ) {\\n                neededInLendingTokens -= escrowLoanValue;\\n            }\\n            neededInLendingTokens = neededInLendingTokens.percent(\\n                requiredRatio\\n            );\\n        }\\n    }\\n\\n    function canGoToEOAWithCollateralRatio(uint256 collateralRatio)\\n        internal\\n        view\\n        returns (bool)\\n    {\\n        return\\n            collateralRatio >=\\n            PlatformSettingsLib.getOverCollateralizedBufferValue();\\n    }\\n\\n    /**\\n     * @notice Returns the interest ratio based on the loan interest rate for the loan duration.\\n     * @notice There is a minimum threshold of 1%.\\n     * @dev The interest rate on the loan terms is APY.\\n     * @param loanID The loan ID to get the interest rate for.\\n     */\\n    function getInterestRatio(uint256 loanID)\\n        internal\\n        view\\n        returns (uint16 ratio_)\\n    {\\n        ratio_ = uint16(\\n            (uint64(loan(loanID).duration) * loan(loanID).interestRate) /\\n                SECONDS_PER_YEAR\\n        );\\n\\n        if (ratio_ == 0) {\\n            ratio_ = 1;\\n        }\\n    }\\n\\n    function _getLoanAmount(uint256 loanID) private view returns (uint256) {\\n        if (loan(loanID).status == LoanStatus.TermsSet) {\\n            return terms(loanID).maxLoanAmount;\\n        } else if (loan(loanID).status == LoanStatus.Active) {\\n            return loan(loanID).borrowedAmount;\\n        }\\n        return 0;\\n    }\\n\\n    function _isActiveOrSet(uint256 loanID) private view returns (bool) {\\n        LoanStatus status = loan(loanID).status;\\n        return status == LoanStatus.Active || status == LoanStatus.TermsSet;\\n    }\\n}\\n\",\"keccak256\":\"0x9bf9fae5b01110da7c5a5d2517fdea6aa880d5c1647ba6125c68cafad278499b\",\"license\":\"MIT\"},\"contracts/nft/ITellerNFT.sol\":{\"content\":\"// SPDX-License-Identifier: MIT\\npragma solidity ^0.8.0;\\npragma experimental ABIEncoderV2;\\n\\n// Interfaces\\nimport \\\"@openzeppelin/contracts/token/ERC721/extensions/IERC721Metadata.sol\\\";\\n\\ninterface ITellerNFT {\\n    struct Tier {\\n        uint256 baseLoanSize;\\n        string[] hashes;\\n        address contributionAsset;\\n        uint256 contributionSize;\\n        uint8 contributionMultiplier;\\n    }\\n\\n    /**\\n     * @notice The contract metadata URI.\\n     */\\n    function contractURI() external view returns (string memory);\\n\\n    /**\\n     * @notice It returns information about a Tier for a token ID.\\n     * @param index Tier index to get info.\\n     */\\n    function getTier(uint256 index) external view returns (Tier memory tier_);\\n\\n    /**\\n     * @notice It returns information about a Tier for a token ID.\\n     * @param tokenId ID of the token to get Tier info.\\n     */\\n    function getTokenTier(uint256 tokenId)\\n        external\\n        view\\n        returns (uint256 index_, Tier memory tier_);\\n\\n    /**\\n     * @notice It returns an array of token IDs owned by an address.\\n     * @dev It uses a EnumerableSet to store values and loops over each element to add to the array.\\n     * @dev Can be costly if calling within a contract for address with many tokens.\\n     */\\n    function getTierHashes(uint256 tierIndex)\\n        external\\n        view\\n        returns (string[] memory hashes_);\\n\\n    /**\\n     * @notice It returns an array of token IDs owned by an address.\\n     * @dev It uses a EnumerableSet to store values and loops over each element to add to the array.\\n     * @dev Can be costly if calling within a contract for address with many tokens.\\n     */\\n    function getOwnedTokens(address owner)\\n        external\\n        view\\n        returns (uint256[] memory owned);\\n\\n    /**\\n     * @notice It mints a new token for a Tier index.\\n     *\\n     * Requirements:\\n     *  - Caller must be an authorized minter\\n     */\\n    function mint(uint256 tierIndex, address owner) external;\\n\\n    /**\\n     * @notice Adds a new Tier to be minted with the given information.\\n     * @dev It auto increments the index of the next tier to add.\\n     * @param newTier Information about the new tier to add.\\n     *\\n     * Requirements:\\n     *  - Caller must have the {MINTER} role\\n     */\\n    function addTier(Tier memory newTier) external;\\n\\n    /**\\n     * @notice Sets the contract level metadata URI hash.\\n     * @param contractURIHash The hash to the initial contract level metadata.\\n     */\\n    function setContractURIHash(string memory contractURIHash) external;\\n\\n    /**\\n     * @notice Initializes the TellerNFT.\\n     * @param minters The addresses that should allowed to mint tokens.\\n     */\\n    function initialize(address[] calldata minters) external;\\n}\\n\",\"keccak256\":\"0x7c788b94c175b70eec6b10bfe0655616fc0beb2ce3ef70a6fa750f291d35106c\",\"license\":\"MIT\"},\"contracts/nft/TellerNFT.sol\":{\"content\":\"// SPDX-License-Identifier: MIT\\npragma solidity ^0.8.0;\\npragma experimental ABIEncoderV2;\\n\\n// Contracts\\nimport \\\"@openzeppelin/contracts-upgradeable/token/ERC721/ERC721Upgradeable.sol\\\";\\nimport \\\"@openzeppelin/contracts-upgradeable/access/AccessControlUpgradeable.sol\\\";\\n\\n// Libraries\\nimport \\\"@openzeppelin/contracts/utils/Counters.sol\\\";\\nimport \\\"@openzeppelin/contracts/utils/structs/EnumerableSet.sol\\\";\\nimport \\\"@openzeppelin/contracts/utils/math/SafeMath.sol\\\";\\n\\n// Interfaces\\nimport \\\"./ITellerNFT.sol\\\";\\n\\n/*****************************************************************************************************/\\n/**                                             WARNING                                             **/\\n/**                                  THIS CONTRACT IS UPGRADEABLE!                                  **/\\n/**  ---------------------------------------------------------------------------------------------  **/\\n/**  Do NOT change the order of or PREPEND any storage variables to this or new versions of this    **/\\n/**  contract as this will cause the the storage slots to be overwritten on the proxy contract!!    **/\\n/**                                                                                                 **/\\n/**  Visit https://docs.openzeppelin.com/upgrades/2.6/proxies#upgrading-via-the-proxy-pattern for   **/\\n/**  more information.                                                                              **/\\n/*****************************************************************************************************/\\n/**\\n * @notice This contract is used by borrowers to call Dapp functions (using delegate calls).\\n * @notice This contract should only be constructed using it's upgradeable Proxy contract.\\n * @notice In order to call a Dapp function, the Dapp must be added in the DappRegistry instance.\\n *\\n * @author develop@teller.finance\\n */\\ncontract TellerNFT is ITellerNFT, ERC721Upgradeable, AccessControlUpgradeable {\\n    using Counters for Counters.Counter;\\n    using EnumerableSet for EnumerableSet.UintSet;\\n    using SafeMath for uint256;\\n\\n    /* Constants */\\n\\n    bytes32 public constant ADMIN = keccak256(\\\"ADMIN\\\");\\n    bytes32 public constant MINTER = keccak256(\\\"MINTER\\\");\\n\\n    /* State Variables */\\n\\n    // It holds the total number of tiers.\\n    Counters.Counter internal _tierCounter;\\n\\n    // It holds the total number of tokens minted.\\n    Counters.Counter internal _tokenCounter;\\n\\n    // It holds the information about a tier.\\n    mapping(uint256 => Tier) internal _tiers;\\n\\n    // It holds which tier a token ID is in.\\n    mapping(uint256 => uint256) internal _tokenTier;\\n\\n    // It holds a set of token IDs for an owner address.\\n    mapping(address => EnumerableSet.UintSet) internal _ownerTokenIDs;\\n\\n    // Link to the contract metadata\\n    string private _metadataBaseURI;\\n\\n    // Hash to the contract metadata located on the {_metadataBaseURI}\\n    string private _contractURIHash;\\n\\n    /* Modifiers */\\n\\n    modifier onlyAdmin() {\\n        require(hasRole(ADMIN, _msgSender()), \\\"TellerNFT: not admin\\\");\\n        _;\\n    }\\n\\n    modifier onlyMinter() {\\n        require(hasRole(MINTER, _msgSender()), \\\"TellerNFT: not minter\\\");\\n        _;\\n    }\\n\\n    /* External Functions */\\n\\n    /**\\n     * @notice It returns information about a Tier for a token ID.\\n     * @param index Tier index to get info.\\n     */\\n    function getTier(uint256 index)\\n        external\\n        view\\n        override\\n        returns (Tier memory tier_)\\n    {\\n        tier_ = _tiers[index];\\n    }\\n\\n    /**\\n     * @notice It returns information about a Tier for a token ID.\\n     * @param tokenId ID of the token to get Tier info.\\n     */\\n    function getTokenTier(uint256 tokenId)\\n        external\\n        view\\n        override\\n        returns (uint256 index_, Tier memory tier_)\\n    {\\n        index_ = _tokenTier[tokenId];\\n        tier_ = _tiers[index_];\\n    }\\n\\n    /**\\n     * @notice It returns an array of token IDs owned by an address.\\n     * @dev It uses a EnumerableSet to store values and loops over each element to add to the array.\\n     * @dev Can be costly if calling within a contract for address with many tokens.\\n     */\\n    function getTierHashes(uint256 tierIndex)\\n        external\\n        view\\n        override\\n        returns (string[] memory hashes_)\\n    {\\n        hashes_ = _tiers[tierIndex].hashes;\\n    }\\n\\n    /**\\n     * @notice It returns an array of token IDs owned by an address.\\n     * @dev It uses a EnumerableSet to store values and loops over each element to add to the array.\\n     * @dev Can be costly if calling within a contract for address with many tokens.\\n     */\\n    function getOwnedTokens(address owner)\\n        external\\n        view\\n        override\\n        returns (uint256[] memory owned_)\\n    {\\n        EnumerableSet.UintSet storage set = _ownerTokenIDs[owner];\\n        owned_ = new uint256[](set.length());\\n        for (uint256 i; i < owned_.length; i++) {\\n            owned_[i] = set.at(i);\\n        }\\n    }\\n\\n    /**\\n     * @notice The contract metadata URI.\\n     */\\n    function contractURI() external view override returns (string memory) {\\n        return _contractURIHash;\\n    }\\n\\n    /**\\n     * @notice The token URI is based on the token ID.\\n     */\\n    function tokenURI(uint256 tokenId)\\n        public\\n        view\\n        override\\n        returns (string memory)\\n    {\\n        require(_exists(tokenId), \\\"TellerNFT: URI query for nonexistent token\\\");\\n\\n        string memory baseURI = _baseURI();\\n        return\\n            bytes(baseURI).length > 0\\n                ? string(abi.encodePacked(baseURI, _tokenURIHash(tokenId)))\\n                : \\\"\\\";\\n    }\\n\\n    /**\\n     * @notice It mints a new token for a Tier index.\\n     * @param tierIndex Tier to mint token on.\\n     * @param owner The owner of the new token.\\n     *\\n     * Requirements:\\n     *  - Caller must be an authorized minter\\n     */\\n    function mint(uint256 tierIndex, address owner)\\n        external\\n        override\\n        onlyMinter\\n    {\\n        // Get the new token ID\\n        uint256 tokenId = _tokenCounter.current();\\n        _tokenCounter.increment();\\n\\n        // Mint and set the token to the tier index\\n        _safeMint(owner, tokenId);\\n        _tokenTier[tokenId] = tierIndex;\\n\\n        // Set owner\\n        _setOwner(owner, tokenId);\\n    }\\n\\n    /**\\n     * @notice Adds a new Tier to be minted with the given information.\\n     * @dev It auto increments the index of the next tier to add.\\n     * @param newTier Information about the new tier to add.\\n     *\\n     * Requirements:\\n     *  - Caller must have the {MINTER} role\\n     */\\n    function addTier(Tier memory newTier) external override onlyMinter {\\n        Tier storage tier = _tiers[_tierCounter.current()];\\n\\n        tier.baseLoanSize = newTier.baseLoanSize;\\n        tier.hashes = newTier.hashes;\\n        tier.contributionAsset = newTier.contributionAsset;\\n        tier.contributionSize = newTier.contributionSize;\\n        tier.contributionMultiplier = newTier.contributionMultiplier;\\n\\n        _tierCounter.increment();\\n    }\\n\\n    function removeMinter(address minter) external onlyMinter {\\n        revokeRole(MINTER, minter);\\n    }\\n\\n    function addMinter(address minter) public onlyMinter {\\n        _setupRole(MINTER, minter);\\n    }\\n\\n    /**\\n     * @notice Sets the contract level metadata URI hash.\\n     * @param contractURIHash The hash to the initial contract level metadata.\\n     */\\n    function setContractURIHash(string memory contractURIHash)\\n        external\\n        override\\n        onlyAdmin\\n    {\\n        _contractURIHash = contractURIHash;\\n    }\\n\\n    /**\\n     * @notice Initializes the TellerNFT.\\n     * @param minters The addresses that should allowed to mint tokens.\\n     */\\n    function initialize(address[] calldata minters)\\n        external\\n        override\\n        initializer\\n    {\\n        __ERC721_init(\\\"Teller NFT\\\", \\\"TNFT\\\");\\n        __AccessControl_init();\\n\\n        for (uint256 i; i < minters.length; i++) {\\n            _setupRole(MINTER, minters[i]);\\n        }\\n\\n        _metadataBaseURI = \\\"https://gateway.pinata.cloud/ipfs/\\\";\\n        _contractURIHash = \\\"QmWAfQFFwptzRUCdF2cBFJhcB2gfHJMd7TQt64dZUysk3R\\\";\\n    }\\n\\n    function supportsInterface(bytes4 interfaceId)\\n        public\\n        view\\n        override(AccessControlUpgradeable, ERC721Upgradeable)\\n        returns (bool)\\n    {\\n        return\\n            interfaceId == type(ITellerNFT).interfaceId ||\\n            ERC721Upgradeable.supportsInterface(interfaceId) ||\\n            AccessControlUpgradeable.supportsInterface(interfaceId);\\n    }\\n\\n    /**\\n     * @notice It returns the hash to use for the token URI.\\n     */\\n    function _tokenURIHash(uint256 tokenId)\\n        internal\\n        view\\n        returns (string memory)\\n    {\\n        string[] storage tierImageHashes = _tiers[_tokenTier[tokenId]].hashes;\\n        return tierImageHashes[tokenId.mod(tierImageHashes.length)];\\n    }\\n\\n    /**\\n     * @notice The base URI path where the token media is hosted.\\n     * @dev Base URI for computing {tokenURI}.\\n     */\\n    function _baseURI() internal view override returns (string memory) {\\n        return _metadataBaseURI;\\n    }\\n\\n    /**\\n     * @notice Moves token to new owner set and then transfers.\\n     */\\n    function _transfer(\\n        address from,\\n        address to,\\n        uint256 tokenId\\n    ) internal override {\\n        _setOwner(to, tokenId);\\n        super._transfer(from, to, tokenId);\\n    }\\n\\n    /**\\n     * @notice It removes the token from the current owner set and adds to new owner.\\n     */\\n    function _setOwner(address newOwner, uint256 tokenId) internal {\\n        address currentOwner = ownerOf(tokenId);\\n        if (currentOwner != address(0)) {\\n            _ownerTokenIDs[currentOwner].remove(tokenId);\\n        }\\n        _ownerTokenIDs[newOwner].add(tokenId);\\n    }\\n\\n    function _msgData() internal pure override returns (bytes calldata) {\\n        return msg.data;\\n    }\\n}\\n\",\"keccak256\":\"0x39fd6d70fd1aa5ae45465d7eeb38f74e2bf90535c2510782fb0bb5f720250ac5\",\"license\":\"MIT\"},\"contracts/nft/libraries/NFTLib.sol\":{\"content\":\"// SPDX-License-Identifier: MIT\\npragma solidity ^0.8.0;\\n\\n// Contracts\\nimport { TellerNFT } from \\\"../TellerNFT.sol\\\";\\n\\n// Libraries\\nimport {\\n    MerkleProof\\n} from \\\"@openzeppelin/contracts/utils/cryptography/MerkleProof.sol\\\";\\nimport {\\n    EnumerableSet\\n} from \\\"@openzeppelin/contracts/utils/structs/EnumerableSet.sol\\\";\\n\\n// Storage\\nimport { AppStorageLib, AppStorage } from \\\"../../storage/app.sol\\\";\\nimport { NFTStorageLib, NFTStorage } from \\\"../../storage/nft.sol\\\";\\n\\nstruct NftLoanSizeProof {\\n    uint256 id;\\n    uint256 baseLoanSize;\\n    bytes32[] proof;\\n}\\n\\nlibrary NFTLib {\\n    function s() internal pure returns (NFTStorage storage s_) {\\n        s_ = NFTStorageLib.store();\\n    }\\n\\n    function nft() internal view returns (TellerNFT nft_) {\\n        nft_ = AppStorageLib.store().nft;\\n    }\\n\\n    function stake(uint256 nftID, address owner) internal {\\n        // Transfer to diamond\\n        NFTLib.nft().transferFrom(msg.sender, address(this), nftID);\\n        // Add NFT ID to user set\\n        EnumerableSet.add(s().stakedNFTs[owner], nftID);\\n    }\\n\\n    function unstake(uint256 nftID) internal returns (bool success_) {\\n        success_ = EnumerableSet.remove(s().stakedNFTs[msg.sender], nftID);\\n    }\\n\\n    function stakedNFTs(address nftOwner)\\n        internal\\n        view\\n        returns (uint256[] memory staked_)\\n    {\\n        EnumerableSet.UintSet storage nfts = s().stakedNFTs[nftOwner];\\n        staked_ = new uint256[](EnumerableSet.length(nfts));\\n        for (uint256 i; i < staked_.length; i++) {\\n            staked_[i] = EnumerableSet.at(nfts, i);\\n        }\\n    }\\n\\n    function liquidateNFT(uint256 loanID) internal {\\n        // Check if NFTs are linked\\n        EnumerableSet.UintSet storage nfts = s().loanNFTs[loanID];\\n        for (uint256 i; i < EnumerableSet.length(nfts); i++) {\\n            NFTLib.nft().transferFrom(\\n                address(this),\\n                AppStorageLib.store().nftLiquidationController,\\n                EnumerableSet.at(nfts, i)\\n            );\\n        }\\n    }\\n\\n    function applyToLoan(uint256 loanID, NftLoanSizeProof calldata proof)\\n        internal\\n    {\\n        // NFT must be currently staked\\n        // Remove NFT from being staked - returns bool\\n        require(unstake(proof.id), \\\"Teller: borrower nft not staked\\\");\\n\\n        require(verifyLoanSize(proof), \\\"Teller invalid nft proof\\\");\\n\\n        // Apply NFT to loan\\n        EnumerableSet.add(s().loanNFTs[loanID], proof.id);\\n    }\\n\\n    function restakeLinked(uint256 loanID, address owner) internal {\\n        // Get linked NFT\\n        EnumerableSet.UintSet storage nfts = s().loanNFTs[loanID];\\n        for (uint256 i; i < EnumerableSet.length(nfts); i++) {\\n            // Restake the NFT\\n            EnumerableSet.add(s().stakedNFTs[owner], EnumerableSet.at(nfts, i));\\n        }\\n    }\\n\\n    function verifyLoanSize(NftLoanSizeProof calldata proof)\\n        internal\\n        view\\n        returns (bool verified_)\\n    {\\n        verified_ = MerkleProof.verify(\\n            proof.proof,\\n            s().nftMerkleRoot,\\n            keccak256(abi.encodePacked(proof.id, proof.baseLoanSize))\\n        );\\n    }\\n}\\n\",\"keccak256\":\"0x99ba27095901d86a4d1e1b9ec3a603fbbf7c67ada2ccd11cd5ed0435e5c3c66d\",\"license\":\"MIT\"},\"contracts/price-aggregator/PriceAggFacet.sol\":{\"content\":\"// SPDX-License-Identifier: MIT\\npragma solidity ^0.8.0;\\n\\n// Libraries\\nimport { SafeCast } from \\\"@openzeppelin/contracts/utils/math/SafeCast.sol\\\";\\nimport { ChainlinkLib } from \\\"./chainlink/ChainlinkLib.sol\\\";\\nimport { CompoundLib } from \\\"../shared/libraries/CompoundLib.sol\\\";\\n\\n// Interfaces\\nimport {\\n    AggregatorV2V3Interface\\n} from \\\"@chainlink/contracts/src/v0.8/interfaces/AggregatorV2V3Interface.sol\\\";\\nimport { ERC20 } from \\\"@openzeppelin/contracts/token/ERC20/ERC20.sol\\\";\\n\\n// Storage\\nimport { AppStorageLib } from \\\"../storage/app.sol\\\";\\n\\ncontract PriceAggFacet {\\n    uint256 internal constant TEN = 10;\\n\\n    /**\\n     * @notice It returns the price of the token pair as given from the Chainlink Aggregator.\\n     * @dev It tries to use ETH as a pass through asset if the direct pair is not supported.\\n     * @param src Source token address.\\n     * @param dst Destination token address.\\n     * @return int256 The latest answer as given from Chainlink.\\n     */\\n    function getPriceFor(address src, address dst)\\n        external\\n        view\\n        returns (int256)\\n    {\\n        return _priceFor(src, dst);\\n    }\\n\\n    /**\\n     * @notice It calculates the value of a token amount into another.\\n     * @param src Source token address.\\n     * @param dst Destination token address.\\n     * @param srcAmount Amount of the source token to convert into the destination token.\\n     * @return uint256 Value of the source token amount in destination tokens.\\n     */\\n    function getValueFor(\\n        address src,\\n        address dst,\\n        uint256 srcAmount\\n    ) external view returns (uint256) {\\n        return _valueFor(src, srcAmount, uint256(_priceFor(src, dst)));\\n    }\\n\\n    function _valueFor(\\n        address src,\\n        uint256 amount,\\n        uint256 exchangeRate\\n    ) internal view returns (uint256) {\\n        return (amount * exchangeRate) / _oneToken(src);\\n    }\\n\\n    function _oneToken(address token) internal view returns (uint256) {\\n        return TEN**_decimalsFor(token);\\n    }\\n\\n    /**\\n     * @dev It gets the number of decimals for a given token.\\n     * @param addr Token address to get decimals for.\\n     * @return uint8 Number of decimals the given token.\\n     */\\n    function _decimalsFor(address addr) internal view returns (uint8) {\\n        return ERC20(addr).decimals();\\n    }\\n\\n    /**\\n     * @dev Tries to calculate a price from Compound and Chainlink.\\n     */\\n    function _priceFor(address src, address dst)\\n        private\\n        view\\n        returns (int256 price_)\\n    {\\n        // If no Compound route, try Chainlink directly.\\n        price_ = int256(_compoundPriceFor(src, dst));\\n        if (price_ == 0) {\\n            price_ = _chainlinkPriceFor(src, dst);\\n            if (price_ == 0) {\\n                revert(\\\"Teller: cannot calc price\\\");\\n            }\\n        }\\n    }\\n\\n    /**\\n     * @dev Tries to get a price from {src} to {dst} by checking if either tokens are from Compound.\\n     */\\n    function _compoundPriceFor(address src, address dst)\\n        private\\n        view\\n        returns (uint256)\\n    {\\n        (bool isSrcCompound, address srcUnderlying) = _isCToken(src);\\n        if (isSrcCompound) {\\n            uint256 cRate = CompoundLib.valueInUnderlying(src, _oneToken(src));\\n            if (srcUnderlying == dst) {\\n                return cRate;\\n            } else {\\n                return _calcPriceFromCompoundRate(srcUnderlying, dst, cRate);\\n            }\\n        } else {\\n            (bool isDstCompound, address dstUnderlying) = _isCToken(dst);\\n            if (isDstCompound) {\\n                uint256 cRate =\\n                    CompoundLib.valueOfUnderlying(dst, _oneToken(src));\\n                if (dstUnderlying == src) {\\n                    return cRate;\\n                } else {\\n                    return\\n                        _calcPriceFromCompoundRate(src, dstUnderlying, cRate);\\n                }\\n            }\\n        }\\n\\n        return 0;\\n    }\\n\\n    /**\\n     * @dev Tries to get a price from {src} to {dst} and then converts using a rate from Compound.\\n     */\\n    function _calcPriceFromCompoundRate(\\n        address src,\\n        address dst,\\n        uint256 cRate\\n    ) private view returns (uint256) {\\n        uint256 rate = uint256(_chainlinkPriceFor(src, dst));\\n        uint256 value = (cRate * _oneToken(dst)) / rate;\\n        return _scale(value, _decimalsFor(src), _decimalsFor(dst));\\n    }\\n\\n    /**\\n     * @dev Scales the {value} by the difference in decimal values.\\n     */\\n    function _scale(\\n        uint256 value,\\n        uint256 srcDecimals,\\n        uint256 dstDecimals\\n    ) internal pure returns (uint256) {\\n        if (dstDecimals > srcDecimals) {\\n            return value * (TEN**(dstDecimals - srcDecimals));\\n        } else {\\n            return value / (TEN**(srcDecimals - dstDecimals));\\n        }\\n    }\\n\\n    /**\\n     * @dev Tries to calculate the price of {src} in {dst}\\n     */\\n    function _chainlinkPriceFor(address src, address dst)\\n        private\\n        view\\n        returns (int256)\\n    {\\n        (address agg, bool foundAgg, bool inverse) =\\n            ChainlinkLib.aggregatorFor(src, dst);\\n        if (foundAgg) {\\n            uint256 price =\\n                SafeCast.toUint256(AggregatorV2V3Interface(agg).latestAnswer());\\n            uint8 resDecimals = AggregatorV2V3Interface(agg).decimals();\\n            if (inverse) {\\n                price = (TEN**(resDecimals + resDecimals)) / price;\\n            }\\n            return\\n                SafeCast.toInt256(\\n                    (_scale(price, resDecimals, _decimalsFor(dst)))\\n                );\\n        } else {\\n            address WETH = AppStorageLib.store().assetAddresses[\\\"WETH\\\"];\\n            if (dst != WETH) {\\n                int256 price1 = _priceFor(src, WETH);\\n                if (price1 > 0) {\\n                    int256 price2 = _priceFor(dst, WETH);\\n                    if (price2 > 0) {\\n                        uint256 dstFactor = TEN**_decimalsFor(dst);\\n                        return (price1 * int256(dstFactor)) / price2;\\n                    }\\n                }\\n            }\\n        }\\n\\n        return 0;\\n    }\\n\\n    function _isCToken(address token)\\n        private\\n        view\\n        returns (bool isCToken, address underlying)\\n    {\\n        isCToken = CompoundLib.isCompoundToken(token);\\n        if (isCToken) {\\n            underlying = CompoundLib.getUnderlying(token);\\n        }\\n    }\\n}\\n\",\"keccak256\":\"0xf84fd8d9a179ca7a70e75677870bdd7a5be7da097cf5f1bccf1c9f93253bda90\",\"license\":\"MIT\"},\"contracts/price-aggregator/PriceAggLib.sol\":{\"content\":\"// SPDX-License-Identifier: MIT\\npragma solidity ^0.8.0;\\n\\nimport { PriceAggFacet } from \\\"./PriceAggFacet.sol\\\";\\n\\n// Storage\\nimport { AppStorageLib } from \\\"../storage/app.sol\\\";\\n\\n/**\\n * @notice Helper functions to staticcall into the PriceAggFacet from other facets. See {PriceAggFacet.getPriceFor}\\n */\\nlibrary PriceAggLib {\\n    /**\\n     * @notice See {PriceAggFacet.getValueFor}\\n     */\\n    function valueFor(\\n        address src,\\n        address dst,\\n        uint256 srcAmount\\n    ) internal view returns (uint256 value_) {\\n        value_ = PriceAggFacet(address(this)).getValueFor(src, dst, srcAmount);\\n    }\\n\\n    /**\\n     * @notice See {PriceAggFacet.getPriceFor}\\n     */\\n    function priceFor(address src, address dst)\\n        internal\\n        view\\n        returns (int256 price_)\\n    {\\n        price_ = PriceAggFacet(address(this)).getPriceFor(src, dst);\\n    }\\n}\\n\",\"keccak256\":\"0x510633e39e7a30533d703eb7ec314c037772721fdb7cea96046cd6837bcb76c3\",\"license\":\"MIT\"},\"contracts/price-aggregator/chainlink/ChainlinkLib.sol\":{\"content\":\"// SPDX-License-Identifier: MIT\\npragma solidity ^0.8.0;\\n\\n// Libraries\\nimport {\\n    EnumerableSet\\n} from \\\"@openzeppelin/contracts/utils/structs/EnumerableSet.sol\\\";\\n\\n// Storage\\nimport {\\n    PriceAggStorageLib,\\n    ChainlinkAggStorage\\n} from \\\"../../storage/price-aggregator.sol\\\";\\n\\nlibrary ChainlinkLib {\\n    function s() internal view returns (ChainlinkAggStorage storage) {\\n        return PriceAggStorageLib.store().chainlink;\\n    }\\n\\n    /**\\n     * @notice It grabs the Chainlink Aggregator contract address for the token pair if it is supported.\\n     * @param src Source token address.\\n     * @param dst Destination token address.\\n     * @return aggregator The Chainlink Aggregator address.\\n     * @return found whether or not the ChainlinkAggregator exists.\\n     * @return inverse whether or not the values from the Aggregator should be considered inverted.\\n     */\\n    function aggregatorFor(address src, address dst)\\n        internal\\n        view\\n        returns (\\n            address aggregator,\\n            bool found,\\n            bool inverse\\n        )\\n    {\\n        aggregator = s().aggregators[src][dst];\\n        if (aggregator != address(0)) {\\n            found = true;\\n        } else {\\n            aggregator = s().aggregators[dst][src];\\n            if (aggregator != address(0)) {\\n                found = true;\\n                inverse = true;\\n            }\\n        }\\n    }\\n\\n    /**\\n     * @dev Checks if a token address is supported by Chainlink (has a pair aggregator).\\n     * @param token Token address to check if is supported.\\n     * @return isSupported_ true if there is at least 1 pair aggregator for {token}\\n     */\\n    function isTokenSupported(address token)\\n        internal\\n        view\\n        returns (bool isSupported_)\\n    {\\n        isSupported_ = EnumerableSet.contains(s().supportedTokens, token);\\n    }\\n}\\n\",\"keccak256\":\"0x84fcff4e22dcf0a954794b08f4a5e66cb0b9522a74cccb7d80c07e7032440f42\",\"license\":\"MIT\"},\"contracts/settings/pausable/PausableMods.sol\":{\"content\":\"// SPDX-License-Identifier: MIT\\npragma solidity ^0.8.0;\\n\\nimport { AppStorageLib } from \\\"../../storage/app.sol\\\";\\n\\nabstract contract PausableMods {\\n    /**\\n     * @notice Requires that the state of the protocol AND the given facet id equal {state}.\\n     * @param id id of the facet to check if is paused.\\n     * @param state Boolean that the protocol AND facet should be in.\\n     */\\n    modifier paused(bytes32 id, bool state) {\\n        require(\\n            __isPaused(\\\"\\\") == state && __isPaused(id) == state,\\n            __pausedMessage(state)\\n        );\\n        _;\\n    }\\n\\n    /**\\n     * @dev Checks if the given id is paused.\\n     * @param id Encoded id of the facet to check if is paused.\\n     */\\n    function __isPaused(bytes32 id) private view returns (bool) {\\n        return AppStorageLib.store().paused[id];\\n    }\\n\\n    /**\\n     * @dev Gets the message that should be reverted with given a state it should be in.\\n     * @param state Boolean that an id should be in.\\n     */\\n    function __pausedMessage(bool state) private pure returns (string memory) {\\n        return state ? \\\"Pausable: not paused\\\" : \\\"Pausable: paused\\\";\\n    }\\n}\\n\",\"keccak256\":\"0x772d8b9b63e9b8e78f243a70988f1a1e1100272cf317259ea173829f7b9bdf0e\",\"license\":\"MIT\"},\"contracts/settings/platform/libraries/PlatformSettingsLib.sol\":{\"content\":\"// SPDX-License-Identifier: MIT\\npragma solidity ^0.8.0;\\n\\nimport { AppStorageLib } from \\\"../../../storage/app.sol\\\";\\nimport \\\"../names.sol\\\" as NAMES;\\nimport {\\n    RolesMods\\n} from \\\"../../../contexts2/access-control/roles/RolesMods.sol\\\";\\nimport { ADMIN, AUTHORIZED } from \\\"../../../shared/roles.sol\\\";\\nimport { RolesLib } from \\\"../../../contexts2/access-control/roles/RolesLib.sol\\\";\\n\\n// It defines a platform settings. It includes: value, min, and max values.\\nstruct PlatformSetting {\\n    uint256 value;\\n    uint256 min;\\n    uint256 max;\\n    bool exists;\\n}\\n\\n/**\\n * @notice Utility library of inline functions on the PlatformSetting struct.\\n *\\n * @author develop@teller.finance\\n */\\nlibrary PlatformSettingsLib {\\n    function s(bytes32 name) internal view returns (PlatformSetting storage) {\\n        return AppStorageLib.store().platformSettings[name];\\n    }\\n\\n    /**\\n     * @notice It gets the current \\\"RequiredSubmissionsPercentage\\\" setting's value\\n     * @return value_ the current value.\\n     */\\n    function getRequiredSubmissionsPercentageValue()\\n        internal\\n        view\\n        returns (uint256 value_)\\n    {\\n        value_ = s(NAMES.REQUIRED_SUBMISSIONS_PERCENTAGE).value;\\n    }\\n\\n    /**\\n     * @notice It gets the current \\\"MaximumTolerance\\\" setting's value\\n     * @return value_ the current value.\\n     */\\n    function getMaximumToleranceValue() internal view returns (uint256 value_) {\\n        value_ = s(NAMES.MAXIMUM_TOLERANCE).value;\\n    }\\n\\n    /**\\n     * @notice It gets the current \\\"ResponseExpiryLength\\\" setting's value\\n     * @return value_ the current value.\\n     */\\n    function getResponseExpiryLengthValue()\\n        internal\\n        view\\n        returns (uint256 value_)\\n    {\\n        value_ = s(NAMES.RESPONSE_EXPIRY_LENGTH).value;\\n    }\\n\\n    /**\\n     * @notice It gets the current \\\"SafetyInterval\\\" setting's value\\n     * @return value_ the current value.\\n     */\\n    function getSafetyIntervalValue() internal view returns (uint256 value_) {\\n        value_ = s(NAMES.SAFETY_INTERVAL).value;\\n    }\\n\\n    /**\\n     * @notice It gets the current \\\"TermsExpiryTime\\\" setting's value\\n     * @return value_ the current value.\\n     */\\n    function getTermsExpiryTimeValue() internal view returns (uint256 value_) {\\n        value_ = s(NAMES.TERMS_EXPIRY_TIME).value;\\n    }\\n\\n    /**\\n     * @notice It gets the current \\\"LiquidateRewardPercent\\\" setting's value\\n     * @return value_ the current value.\\n     */\\n    function getLiquidateRewardPercent()\\n        internal\\n        view\\n        returns (uint256 value_)\\n    {\\n        value_ = s(NAMES.LIQUIDATE_REWARD_PERCENT).value;\\n    }\\n\\n    /**\\n     * @notice It gets the current \\\"MaximumLoanDuration\\\" setting's value\\n     * @return value_ the current value.\\n     */\\n    function getMaximumLoanDurationValue()\\n        internal\\n        view\\n        returns (uint256 value_)\\n    {\\n        value_ = s(NAMES.MAXIMUM_LOAN_DURATION).value;\\n    }\\n\\n    /**\\n     * @notice It gets the current \\\"RequestLoanTermsRateLimit\\\" setting's value\\n     * @return value_ the current value.\\n     */\\n    function getRequestLoanTermsRateLimitValue()\\n        internal\\n        view\\n        returns (uint256 value_)\\n    {\\n        value_ = s(NAMES.REQUEST_LOAN_TERMS_RATE_LIMIT).value;\\n    }\\n\\n    /**\\n     * @notice It gets the current \\\"CollateralBuffer\\\" setting's value\\n     * @return value_ the current value.\\n     */\\n    function getCollateralBufferValue() internal view returns (uint256 value_) {\\n        value_ = s(NAMES.COLLATERAL_BUFFER).value;\\n    }\\n\\n    /**\\n     * @notice It gets the current \\\"OverCollateralizedBuffer\\\" setting's value\\n     * @return value_ the current value.\\n     */\\n    function getOverCollateralizedBufferValue()\\n        internal\\n        view\\n        returns (uint256 value_)\\n    {\\n        value_ = s(NAMES.OVER_COLLATERALIZED_BUFFER).value;\\n    }\\n}\\n\",\"keccak256\":\"0xbeef1937dc1ed1f6f78b80f0737f018565ab264184cf05ef54c3c28ecd55a09b\",\"license\":\"MIT\"},\"contracts/settings/platform/names.sol\":{\"content\":\"// SPDX-License-Identifier: MIT\\npragma solidity ^0.8.0;\\n\\n/**\\n        @dev The setting name for the required subsmission settings.\\n        @dev This is the minimum percentage of node responses that will be required by the platform to either take out a loan, and to claim accrued interest. If the number of node responses are less than the ones specified here, the loan or accrued interest claim request will be rejected by the platform\\n     */\\nbytes32 constant REQUIRED_SUBMISSIONS_PERCENTAGE = keccak256(\\n    \\\"RequiredSubmissionsPercentage\\\"\\n);\\n\\n/**\\n        @dev The setting name for the maximum tolerance settings.\\n        @dev This is the maximum tolerance for the values submitted (by nodes) when they are aggregated (average). It is used in the consensus mechanisms.\\n        @dev This is a percentage value with 2 decimal places.\\n            i.e. maximumTolerance of 325 => tolerance of 3.25% => 0.0325 of value\\n            i.e. maximumTolerance of 0 => It means all the values submitted must be equals.\\n        @dev The max value is 100% => 10000\\n     */\\nbytes32 constant MAXIMUM_TOLERANCE = keccak256(\\\"MaximumTolerance\\\");\\n/**\\n        @dev The setting name for the response expiry length settings.\\n        @dev This is the maximum time (in seconds) a node has to submit a response. After that time, the response is considered expired and will not be accepted by the protocol.\\n     */\\n\\nbytes32 constant RESPONSE_EXPIRY_LENGTH = keccak256(\\\"ResponseExpiryLength\\\");\\n\\n/**\\n        @dev The setting name for the safety interval settings.\\n        @dev This is the minimum time you need to wait (in seconds) between the last time you deposit collateral and you take out the loan.\\n        @dev It is used to avoid potential attacks using Flash Loans (AAVE) or Flash Swaps (Uniswap V2).\\n     */\\nbytes32 constant SAFETY_INTERVAL = keccak256(\\\"SafetyInterval\\\");\\n\\n/**\\n        @dev The setting name for the term expiry time settings.\\n        @dev This represents the time (in seconds) that loan terms will be available after requesting them.\\n        @dev After this time, the loan terms will expire and the borrower will need to request it again.\\n     */\\nbytes32 constant TERMS_EXPIRY_TIME = keccak256(\\\"TermsExpiryTime\\\");\\n\\n/**\\n        @dev The setting name for the liquidation reward percent setting.\\n        @dev It represents the percentage value (with 2 decimal places) for the MAX liquidation reward.\\n            i.e. an ETH liquidation price at 5% is stored as 500\\n     */\\nbytes32 constant LIQUIDATE_REWARD_PERCENT = keccak256(\\\"LiquidateRewardPercent\\\");\\n\\n/**\\n        @dev The setting name for the maximum loan duration settings.\\n        @dev The maximum loan duration setting is defined in seconds. Loans will not be given for timespans larger than the one specified here.\\n     */\\nbytes32 constant MAXIMUM_LOAN_DURATION = keccak256(\\\"MaximumLoanDuration\\\");\\n\\n/**\\n        @dev The setting name for the request loan terms rate limit settings.\\n        @dev The request loan terms rate limit setting is defined in seconds.\\n     */\\nbytes32 constant REQUEST_LOAN_TERMS_RATE_LIMIT = keccak256(\\n    \\\"RequestLoanTermsRateLimit\\\"\\n);\\n\\n/**\\n        @dev The setting name for the collateral buffer.\\n        @dev The collateral buffer is a safety buffer above the required collateral amount to liquidate a loan. It is required to ensure the loan does not get liquidated immediately after the loan is taken out if the value of the collateral asset deposited drops drastically.\\n        @dev It represents the percentage value (with 2 decimal places) of a collateral buffer.\\n            e.g.: collateral buffer at 100% is stored as 10000.\\n     */\\nbytes32 constant COLLATERAL_BUFFER = keccak256(\\\"CollateralBuffer\\\");\\n\\n/**\\n        @dev The setting name for the over collateralized buffer.\\n        @dev The over collateralized buffer is the minimum required collateral ratio in order for a loan to be taken out without an Escrow contract and for the funds to go to the borrower's EOA (external overridely owned account).\\n        @dev It represents the percentage value (with 2 decimal places) of a over collateralized buffer.\\n            e.g.: over collateralized buffer at 130% is stored as 13000.\\n     */\\nbytes32 constant OVER_COLLATERALIZED_BUFFER = keccak256(\\n    \\\"OverCollateralizedBuffer\\\"\\n);\\n\",\"keccak256\":\"0xacf6bcb8c4afd2f337a0161e8be64b016c1b350d336cd862245dd922fcd10f33\",\"license\":\"MIT\"},\"contracts/shared/interfaces/ICErc20.sol\":{\"content\":\"// SPDX-License-Identifier: MIT\\npragma solidity ^0.8.0;\\n\\nimport \\\"./IComptroller.sol\\\";\\n\\ninterface ICErc20 {\\n    /*** User Interface ***/\\n\\n    /**\\n        @notice The mint function transfers an asset into the protocol, which begins accumulating interest based on the current Supply Rate for the asset. The user receives a quantity of cTokens equal to the underlying tokens supplied, divided by the current Exchange Rate.\\n        @param mintAmount The amount of the asset to be supplied, in units of the underlying asset.\\n        @return 0 on success, otherwise an Error code\\n        @dev msg.sender The account which shall supply the asset, and own the minted cTokens.\\n        @dev Before supplying an asset, users must first approve the cToken to access their token balance.\\n     */\\n    function mint(uint256 mintAmount) external returns (uint256);\\n\\n    /**\\n        @notice The redeem function converts a specified quantity of cTokens into the underlying asset, and returns them to the user. The amount of underlying tokens received is equal to the quantity of cTokens redeemed, multiplied by the current Exchange Rate. The amount redeemed must be less than the user's Account Liquidity and the market's available liquidity.\\n        @param redeemTokens The number of cTokens to be redeemed.\\n        @return 0 on success, otherwise an Error code\\n        @dev msg.sender The account to which redeemed funds shall be transferred.\\n     */\\n    function redeem(uint256 redeemTokens) external returns (uint256);\\n\\n    /**\\n        @notice The redeem underlying function converts cTokens into a specified quantity of the underlying asset, and returns them to the user. The amount of cTokens redeemed is equal to the quantity of underlying tokens received, divided by the current Exchange Rate. The amount redeemed must be less than the user's Account Liquidity and the market's available liquidity.\\n        @param redeemAmount The amount of underlying to be redeemed.\\n        @return 0 on success, otherwise an Error code\\n        @dev msg.sender The account to which redeemed funds shall be transferred.\\n     */\\n    function redeemUnderlying(uint256 redeemAmount) external returns (uint256);\\n\\n    /**\\n        @notice The borrow function transfers an asset from the protocol to the user, and creates a borrow balance which begins accumulating interest based on the Borrow Rate for the asset. The amount borrowed must be less than the user's Account Liquidity and the market's available liquidity.\\n        @param borrowAmount The amount of the underlying asset to be borrowed.\\n        @return 0 on success, otherwise an Error code\\n        @dev msg.sender The account to which borrowed funds shall be transferred.\\n     */\\n    function borrow(uint256 borrowAmount) external returns (uint256);\\n\\n    /**\\n        @notice The repay function transfers an asset into the protocol, reducing the user's borrow balance.\\n        @param repayAmount The amount of the underlying borrowed asset to be repaid. A value of -1 (i.e. 2^256 - 1) can be used to repay the full amount.\\n        @return 0 on success, otherwise an Error code\\n        @dev msg.sender The account which borrowed the asset, and shall repay the borrow.\\n        @dev Before repaying an asset, users must first approve the cToken to access their token balance.\\n     */\\n    function repayBorrow(uint256 repayAmount) external returns (uint256);\\n\\n    /**\\n        @notice The repay function transfers an asset into the protocol, reducing the target user's borrow balance.\\n        @param borrower The account which borrowed the asset to be repaid.\\n        @param repayAmount The amount of the underlying borrowed asset to be repaid. A value of -1 (i.e. 2^256 - 1) can be used to repay the full amount.\\n        @return 0 on success, otherwise an Error code\\n        @dev msg.sender The account which shall repay the borrow.\\n        @dev Before repaying an asset, users must first approve the cToken to access their token balance.\\n     */\\n    function repayBorrowBehalf(address borrower, uint256 repayAmount)\\n        external\\n        returns (uint256);\\n\\n    /*** Admin Functions ***/\\n\\n    function _addReserves(uint256 addAmount) external returns (uint256);\\n\\n    /** End Admin Functions */\\n\\n    function underlying() external view returns (address);\\n\\n    /**\\n        @notice Each cToken is convertible into an ever increasing quantity of the underlying asset, as interest accrues in the market. The exchange rate between a cToken and the underlying asset is\\n        equal to: exchangeRate = (getCash() + totalBorrows() - totalReserves()) / totalSupply()\\n        @return The current exchange rate as an unsigned integer, scaled by 1e18.\\n     */\\n    function exchangeRateCurrent() external returns (uint256);\\n\\n    function exchangeRateStored() external view returns (uint256);\\n\\n    /**\\n     * @notice Applies accrued interest to total borrows and reserves\\n     * @dev This calculates interest accrued from the last checkpointed block\\n     *   up to the current block and writes new checkpoint to storage.\\n     */\\n    function accrueInterest() external;\\n\\n    function decimals() external view returns (uint8);\\n\\n    function balanceOf(address account) external view returns (uint256);\\n\\n    /**\\n        @notice The user's underlying balance, representing their assets in the protocol, is equal to the user's cToken balance multiplied by the Exchange Rate.\\n        @param account The account to get the underlying balance of.\\n        @return The amount of underlying currently owned by the account.\\n     */\\n    function balanceOfUnderlying(address account) external returns (uint256);\\n\\n    function comptroller() external view returns (IComptroller);\\n}\\n\",\"keccak256\":\"0xe64ba9069b31f8149d63171b24b9fdef3a587b0461c3d4c8ac5976519bcde332\",\"license\":\"MIT\"},\"contracts/shared/interfaces/IComptroller.sol\":{\"content\":\"// SPDX-License-Identifier: MIT\\npragma solidity ^0.8.0;\\n\\ninterface IComptroller {\\n    /*** Assets You Are In ***/\\n\\n    function enterMarkets(address[] calldata cTokens)\\n        external\\n        returns (uint256[] memory);\\n\\n    function exitMarket(address cToken) external returns (uint256);\\n\\n    /*** Policy Hooks ***/\\n\\n    function mintAllowed(\\n        address cToken,\\n        address minter,\\n        uint256 mintAmount\\n    ) external returns (uint256);\\n\\n    function mintVerify(\\n        address cToken,\\n        address minter,\\n        uint256 mintAmount,\\n        uint256 mintTokens\\n    ) external;\\n\\n    function redeemAllowed(\\n        address cToken,\\n        address redeemer,\\n        uint256 redeemTokens\\n    ) external returns (uint256);\\n\\n    function redeemVerify(\\n        address cToken,\\n        address redeemer,\\n        uint256 redeemAmount,\\n        uint256 redeemTokens\\n    ) external;\\n\\n    function borrowAllowed(\\n        address cToken,\\n        address borrower,\\n        uint256 borrowAmount\\n    ) external returns (uint256);\\n\\n    function borrowVerify(\\n        address cToken,\\n        address borrower,\\n        uint256 borrowAmount\\n    ) external;\\n\\n    function repayBorrowAllowed(\\n        address cToken,\\n        address payer,\\n        address borrower,\\n        uint256 repayAmount\\n    ) external returns (uint256);\\n\\n    function repayBorrowVerify(\\n        address cToken,\\n        address payer,\\n        address borrower,\\n        uint256 repayAmount,\\n        uint256 borrowerIndex\\n    ) external;\\n\\n    function liquidateBorrowAllowed(\\n        address cTokenBorrowed,\\n        address cTokenCollateral,\\n        address liquidator,\\n        address borrower,\\n        uint256 repayAmount\\n    ) external returns (uint256);\\n\\n    function liquidateBorrowVerify(\\n        address cTokenBorrowed,\\n        address cTokenCollateral,\\n        address liquidator,\\n        address borrower,\\n        uint256 repayAmount,\\n        uint256 seizeTokens\\n    ) external;\\n\\n    function seizeAllowed(\\n        address cTokenCollateral,\\n        address cTokenBorrowed,\\n        address liquidator,\\n        address borrower,\\n        uint256 seizeTokens\\n    ) external returns (uint256);\\n\\n    function seizeVerify(\\n        address cTokenCollateral,\\n        address cTokenBorrowed,\\n        address liquidator,\\n        address borrower,\\n        uint256 seizeTokens\\n    ) external;\\n\\n    function transferAllowed(\\n        address cToken,\\n        address src,\\n        address dst,\\n        uint256 transferTokens\\n    ) external returns (uint256);\\n\\n    function transferVerify(\\n        address cToken,\\n        address src,\\n        address dst,\\n        uint256 transferTokens\\n    ) external;\\n\\n    function claimComp(address holder) external;\\n\\n    function claimComp(address holder, address[] calldata cTokens) external;\\n\\n    function claimComp(\\n        address[] calldata holders,\\n        address[] calldata cTokens,\\n        bool borrowers,\\n        bool suppliers\\n    ) external;\\n\\n    /*** Liquidity/Liquidation Calculations ***/\\n\\n    function liquidateCalculateSeizeTokens(\\n        address cTokenBorrowed,\\n        address cTokenCollateral,\\n        uint256 repayAmount\\n    ) external view returns (uint256, uint256);\\n\\n    function getCompAddress() external view returns (address);\\n}\\n\",\"keccak256\":\"0x495d8bb746a524fea6ddc4286c955d7a0160718bf662456330a9d6d14b8a5da9\",\"license\":\"MIT\"},\"contracts/shared/interfaces/IUniswapV2Router.sol\":{\"content\":\"// SPDX-License-Identifier: MIT\\npragma solidity ^0.8.0;\\n\\n/**\\n    @notice This interface defines the different functions available for a UniswapV2Router.\\n    @author develop@teller.finance\\n */\\ninterface IUniswapV2Router {\\n    function factory() external pure returns (address);\\n\\n    function addLiquidity(\\n        address tokenA,\\n        address tokenB,\\n        uint256 amountADesired,\\n        uint256 amountBDesired,\\n        uint256 amountAMin,\\n        uint256 amountBMin,\\n        address to,\\n        uint256 deadline\\n    )\\n        external\\n        returns (\\n            uint256 amountA,\\n            uint256 amountB,\\n            uint256 liquidity\\n        );\\n\\n    function addLiquidityETH(\\n        address token,\\n        uint256 amountTokenDesired,\\n        uint256 amountTokenMin,\\n        uint256 amountETHMin,\\n        address to,\\n        uint256 deadline\\n    )\\n        external\\n        payable\\n        returns (\\n            uint256 amountToken,\\n            uint256 amountETH,\\n            uint256 liquidity\\n        );\\n\\n    function removeLiquidity(\\n        address tokenA,\\n        address tokenB,\\n        uint256 liquidity,\\n        uint256 amountAMin,\\n        uint256 amountBMin,\\n        address to,\\n        uint256 deadline\\n    ) external returns (uint256 amountA, uint256 amountB);\\n\\n    function removeLiquidityETH(\\n        address token,\\n        uint256 liquidity,\\n        uint256 amountTokenMin,\\n        uint256 amountETHMin,\\n        address to,\\n        uint256 deadline\\n    ) external returns (uint256 amountToken, uint256 amountETH);\\n\\n    function removeLiquidityWithPermit(\\n        address tokenA,\\n        address tokenB,\\n        uint256 liquidity,\\n        uint256 amountAMin,\\n        uint256 amountBMin,\\n        address to,\\n        uint256 deadline,\\n        bool approveMax,\\n        uint8 v,\\n        bytes32 r,\\n        bytes32 s\\n    ) external returns (uint256 amountA, uint256 amountB);\\n\\n    function removeLiquidityETHWithPermit(\\n        address token,\\n        uint256 liquidity,\\n        uint256 amountTokenMin,\\n        uint256 amountETHMin,\\n        address to,\\n        uint256 deadline,\\n        bool approveMax,\\n        uint8 v,\\n        bytes32 r,\\n        bytes32 s\\n    ) external returns (uint256 amountToken, uint256 amountETH);\\n\\n    function quote(\\n        uint256 amountA,\\n        uint256 reserveA,\\n        uint256 reserveB\\n    ) external pure returns (uint256 amountB);\\n\\n    function getAmountOut(\\n        uint256 amountIn,\\n        uint256 reserveIn,\\n        uint256 reserveOut\\n    ) external pure returns (uint256 amountOut);\\n\\n    function getAmountIn(\\n        uint256 amountOut,\\n        uint256 reserveIn,\\n        uint256 reserveOut\\n    ) external pure returns (uint256 amountIn);\\n\\n    function getAmountsOut(uint256 amountIn, address[] calldata path)\\n        external\\n        view\\n        returns (uint256[] memory amounts);\\n\\n    function getAmountsIn(uint256 amountOut, address[] calldata path)\\n        external\\n        view\\n        returns (uint256[] memory amounts);\\n\\n    /**\\n        @notice It returns the address of the canonical WETH address;\\n    */\\n    function WETH() external pure returns (address);\\n\\n    /**\\n        @notice Swaps an exact amount of input tokens for as many output tokens as possible, along the route determined by the path. The first element of path is the input token, the last is the output token, and any intermediate elements represent intermediate pairs to trade through (if, for example, a direct pair does not exist).\\n        @param amountIn The amount of input tokens to send.\\n        @param amountOutMin The minimum amount of output tokens that must be received for the transaction not to revert.\\n        @param path An array of token addresses. path.length must be >= 2. Pools for each consecutive pair of addresses must exist and have liquidity.\\n        @param to Recipient of the output tokens.\\n        @param deadline Unix timestamp after which the transaction will revert.\\n        @return amounts The input token amount and all subsequent output token amounts.\\n        @dev msg.sender should have already given the router an allowance of at least amountIn on the input token.\\n     */\\n    function swapExactTokensForTokens(\\n        uint256 amountIn,\\n        uint256 amountOutMin,\\n        address[] calldata path,\\n        address to,\\n        uint256 deadline\\n    ) external returns (uint256[] memory amounts);\\n\\n    /**\\n        @notice Swaps an exact amount of tokens for as much ETH as possible, along the route determined by the path. The first element of path is the input token, the last must be WETH, and any intermediate elements represent intermediate pairs to trade through (if, for example, a direct pair does not exist).\\n        @param amountIn The amount of input tokens to send.\\n        @param amountOutMin The minimum amount of output tokens that must be received for the transaction not to revert.\\n        @param path An array of token addresses. path.length must be >= 2. Pools for each consecutive pair of addresses must exist and have liquidity.\\n        @param to Recipient of the ETH.\\n        @param deadline Unix timestamp after which the transaction will revert.\\n        @return amounts The input token amount and all subsequent output token amounts.\\n        @dev If the to address is a smart contract, it must have the ability to receive ETH.\\n     */\\n    function swapExactTokensForETH(\\n        uint256 amountIn,\\n        uint256 amountOutMin,\\n        address[] calldata path,\\n        address to,\\n        uint256 deadline\\n    ) external returns (uint256[] memory amounts);\\n\\n    /**\\n        @notice Swaps an exact amount of ETH for as many output tokens as possible, along the route determined by the path. The first element of path must be WETH, the last is the output token, and any intermediate elements represent intermediate pairs to trade through (if, for example, a direct pair does not exist).\\n        @param amountOutMin The minimum amount of output tokens that must be received for the transaction not to revert.\\n        @param path An array of token addresses. path.length must be >= 2. Pools for each consecutive pair of addresses must exist and have liquidity.\\n        @param to Recipient of the output tokens.\\n        @param deadline Unix timestamp after which the transaction will revert.\\n        @return amounts The input token amount and all subsequent output token amounts.\\n     */\\n    function swapExactETHForTokens(\\n        uint256 amountOutMin,\\n        address[] calldata path,\\n        address to,\\n        uint256 deadline\\n    ) external payable returns (uint256[] memory amounts);\\n\\n    function swapTokensForExactTokens(\\n        uint256 amountOut,\\n        uint256 amountInMax,\\n        address[] calldata path,\\n        address to,\\n        uint256 deadline\\n    ) external returns (uint256[] memory amounts);\\n\\n    function swapTokensForExactETH(\\n        uint256 amountOut,\\n        uint256 amountInMax,\\n        address[] calldata path,\\n        address to,\\n        uint256 deadline\\n    ) external returns (uint256[] memory amounts);\\n\\n    function swapETHForExactTokens(\\n        uint256 amountOut,\\n        address[] calldata path,\\n        address to,\\n        uint256 deadline\\n    ) external payable returns (uint256[] memory amounts);\\n}\\n\",\"keccak256\":\"0x208769886b3db8f03ef1fa26f1caee189038dfc744b9a499402fc4e4c0090c38\",\"license\":\"MIT\"},\"contracts/shared/libraries/CacheLib.sol\":{\"content\":\"// SPDX-License-Identifier: MIT\\npragma solidity ^0.8.0;\\n\\nenum CacheType { Address, Uint, Int, Byte, Bool }\\n\\n/**\\n * @notice This struct manages the cache of the library instance.\\n * @param addresses A mapping of address values mapped to cache keys in bytes.\\n * @param uints A mapping of uint values mapped to cache keys names in bytes.\\n * @param ints A mapping of int values mapped to cache keys names in bytes.\\n * @param bites A mapping of bytes values mapped to cache keys names in bytes.\\n * @param bools A mapping of bool values mapped to cache keys names in bytes.\\n */\\nstruct Cache {\\n    // Mapping of cache keys names to address values.\\n    mapping(bytes32 => address) addresses;\\n    // Mapping of cache keys names to uint256 values.\\n    mapping(bytes32 => uint256) uints;\\n    // Mapping of cache keys names to int256 values.\\n    mapping(bytes32 => int256) ints;\\n    // Mapping of cache keys names to bytes32 values.\\n    mapping(bytes32 => bytes32) bites;\\n    // Mapping of cache keys names to bool values.\\n    mapping(bytes32 => bool) bools;\\n}\\n\\nlibrary CacheLib {\\n    // The constant for the initialization check\\n    bytes32 private constant INITIALIZED = keccak256(\\\"Initialized\\\");\\n\\n    /**\\n     * @notice Initializes the cache instance.\\n     * @param cache The current cache\\n     */\\n    function initialize(Cache storage cache) internal {\\n        requireNotExists(cache);\\n        cache.bools[INITIALIZED] = true;\\n    }\\n\\n    /**\\n     * @notice Checks whether the current cache does not, throwing an error if it does.\\n     * @param cache The current cache\\n     */\\n    function requireNotExists(Cache storage cache) internal view {\\n        require(!exists(cache), \\\"CACHE_ALREADY_EXISTS\\\");\\n    }\\n\\n    /**\\n     * @notice Checks whether the current cache exists, throwing an error if the cache does not.\\n     * @param cache The current cache\\n     */\\n    function requireExists(Cache storage cache) internal view {\\n        require(exists(cache), \\\"CACHE_DOES_NOT_EXIST\\\");\\n    }\\n\\n    /**\\n     * @notice Tests whether the current cache exists or not.\\n     * @param cache The current cache.\\n     * @return bool True if the cache exists.\\n     */\\n    function exists(Cache storage cache) internal view returns (bool) {\\n        return cache.bools[INITIALIZED];\\n    }\\n\\n    function update(\\n        Cache storage cache,\\n        bytes32 key,\\n        bytes32 value,\\n        CacheType cacheType\\n    ) internal {\\n        requireExists(cache);\\n\\n        assembly {\\n            mstore(0, value)\\n        }\\n        if (cacheType == CacheType.Address) {\\n            address addr;\\n            assembly {\\n                addr := mload(0)\\n            }\\n            cache.addresses[key] = addr;\\n        } else if (cacheType == CacheType.Uint) {\\n            uint256 ui;\\n            assembly {\\n                ui := mload(0)\\n            }\\n            cache.uints[key] = ui;\\n        } else if (cacheType == CacheType.Int) {\\n            int256 i;\\n            assembly {\\n                i := mload(0)\\n            }\\n            cache.ints[key] = i;\\n        } else if (cacheType == CacheType.Byte) {\\n            cache.bites[key] = value;\\n        } else if (cacheType == CacheType.Bool) {\\n            bool b;\\n            assembly {\\n                b := mload(0)\\n            }\\n            cache.bools[key] = b;\\n        }\\n    }\\n\\n    /**\\n     */\\n    function clearCache(\\n        Cache storage cache,\\n        bytes32[5] memory keysToClear,\\n        CacheType[5] memory keyTypes\\n    ) internal {\\n        requireExists(cache);\\n        require(\\n            keysToClear.length == keyTypes.length,\\n            \\\"ARRAY_LENGTHS_MISMATCH\\\"\\n        );\\n        for (uint256 i; i <= keysToClear.length; i++) {\\n            if (keyTypes[i] == CacheType.Address) {\\n                delete cache.addresses[keysToClear[i]];\\n            } else if (keyTypes[i] == CacheType.Uint) {\\n                delete cache.uints[keysToClear[i]];\\n            } else if (keyTypes[i] == CacheType.Int) {\\n                delete cache.ints[keysToClear[i]];\\n            } else if (keyTypes[i] == CacheType.Byte) {\\n                delete cache.bites[keysToClear[i]];\\n            } else if (keyTypes[i] == CacheType.Bool) {\\n                delete cache.bools[keysToClear[i]];\\n            }\\n        }\\n    }\\n}\\n\",\"keccak256\":\"0x4d9045666e86d675f7bd48202f9a77d0675fa20b2184131ad369710ac5eb3203\",\"license\":\"MIT\"},\"contracts/shared/libraries/CompoundLib.sol\":{\"content\":\"// SPDX-License-Identifier: MIT\\npragma solidity ^0.8.0;\\n\\n// Interfaces\\nimport { ICErc20 } from \\\"../interfaces/ICErc20.sol\\\";\\n\\n// Storage\\nimport { AppStorageLib } from \\\"../../storage/app.sol\\\";\\n\\n/**\\n * @notice Utility library to calculate the value of a Compound cToken and its underlying asset.\\n *\\n * @author develop@teller.finance\\n */\\nlibrary CompoundLib {\\n    /**\\n     * @dev Compounds exchange rate is scaled by 18 decimals (10^18)\\n     */\\n    uint256 internal constant EXCHANGE_RATE_SCALE = 1e18;\\n\\n    function exchangeRate(address cToken) internal view returns (uint256) {\\n        return ICErc20(cToken).exchangeRateStored();\\n    }\\n\\n    /**\\n     * @notice Takes an amount of the Compound asset and calculates the underlying amount using the stored exchange rate.\\n     * @param cToken Address of the Compound token.\\n     * @param cTokenAmount Amount of the Compound asset.\\n     * @return value of the Compound token amount in underlying tokens.\\n     */\\n    function valueInUnderlying(address cToken, uint256 cTokenAmount)\\n        internal\\n        view\\n        returns (uint256)\\n    {\\n        return\\n            (cTokenAmount * ICErc20(cToken).exchangeRateStored()) /\\n            EXCHANGE_RATE_SCALE;\\n    }\\n\\n    /**\\n     * @notice Takes an amount of the underlying Compound asset and calculates the cToken amount using the stored exchange rate.\\n     * @param cToken Address of the Compound token.\\n     * @param underlyingAmount Amount of the underlying asset for the Compound token.\\n     * @return value of the underlying amount in Compound tokens.\\n     */\\n    function valueOfUnderlying(address cToken, uint256 underlyingAmount)\\n        internal\\n        view\\n        returns (uint256)\\n    {\\n        return\\n            (underlyingAmount * EXCHANGE_RATE_SCALE) /\\n            ICErc20(cToken).exchangeRateStored();\\n    }\\n\\n    function isCompoundToken(address token) internal view returns (bool) {\\n        return AppStorageLib.store().cTokenRegistry[token];\\n    }\\n\\n    /**\\n     * @notice Tests the {underlying} function on the cToken and assumes its WETH otherwise.\\n     * @notice CETH is the only Compound token that does not support the {underlying} function.\\n     */\\n    function getUnderlying(address cToken) internal view returns (address) {\\n        (bool success, bytes memory data) =\\n            cToken.staticcall(abi.encode(ICErc20.underlying.selector));\\n        if (success) {\\n            return abi.decode(data, (address));\\n        }\\n\\n        return AppStorageLib.store().assetAddresses[\\\"WETH\\\"];\\n    }\\n}\\n\",\"keccak256\":\"0x14e96659912e9d03ae30732faca8e3d617f3e756a215d948cabedab6642c1465\",\"license\":\"MIT\"},\"contracts/shared/libraries/NumbersLib.sol\":{\"content\":\"// SPDX-License-Identifier: MIT\\npragma solidity ^0.8.0;\\n\\n/**\\n * @dev Utility library for uint256 numbers\\n *\\n * @author develop@teller.finance\\n */\\nlibrary NumbersLib {\\n    /**\\n     * @dev It represents 100% with 2 decimal places.\\n     */\\n    uint256 internal constant ONE_HUNDRED_PERCENT = 10000;\\n\\n    /**\\n     * @notice Returns a percentage value of a number.\\n     * @param self The number to get a percentage of.\\n     * @param percentage The percentage value to calculate with 2 decimal places (10000 = 100%).\\n     */\\n    function percent(uint256 self, uint16 percentage)\\n        internal\\n        pure\\n        returns (uint256)\\n    {\\n        return (self * uint256(percentage)) / ONE_HUNDRED_PERCENT;\\n    }\\n\\n    function percent(int256 self, uint256 percentage)\\n        internal\\n        pure\\n        returns (int256)\\n    {\\n        return (self * int256(percentage)) / int256(ONE_HUNDRED_PERCENT);\\n    }\\n\\n    function abs(int256 self) internal pure returns (uint256) {\\n        return self >= 0 ? uint256(self) : uint256(-1 * self);\\n    }\\n\\n    /**\\n     * @notice Returns a ratio percentage of {num1} to {num2}.\\n     * @param num1 The number used to get the ratio for.\\n     * @param num2 The number used to get the ratio from.\\n     * @return Ratio percentage with 2 decimal places (10000 = 100%).\\n     */\\n    function ratioOf(uint256 num1, uint256 num2)\\n        internal\\n        pure\\n        returns (uint16)\\n    {\\n        return num2 == 0 ? 0 : uint16((num1 * ONE_HUNDRED_PERCENT) / num2);\\n    }\\n}\\n\",\"keccak256\":\"0x998aefaf4edbe7b0cb41032750b65b3822b4bec0fec3ee5b396f8fb73b5e9e03\",\"license\":\"MIT\"},\"contracts/shared/libraries/NumbersList.sol\":{\"content\":\"// SPDX-License-Identifier: MIT\\npragma solidity ^0.8.0;\\n\\nimport \\\"@openzeppelin/contracts/utils/math/SafeMath.sol\\\";\\nimport \\\"./NumbersLib.sol\\\";\\n\\n/**\\n * @dev Utility library of inline functions on NumbersList.Values\\n *\\n * @author develop@teller.finance\\n */\\nlibrary NumbersList {\\n    using NumbersLib for uint256;\\n\\n    // Holds values to calculate the threshold of a list of numbers\\n    struct Values {\\n        uint256 count; // The total number of numbers added\\n        uint256 max; // The maximum number that was added\\n        uint256 min; // The minimum number that was added\\n        uint256 sum; // The total sum of the numbers that were added\\n    }\\n\\n    /**\\n     * @dev Add to the sum while keeping track of min and max values\\n     * @param self The Value this function was called on\\n     * @param newValue Number to increment sum by\\n     */\\n    function addValue(Values memory self, uint256 newValue) internal pure {\\n        if (self.max < newValue) {\\n            self.max = newValue;\\n        }\\n        if (self.min > newValue || self.count == 0) {\\n            self.min = newValue;\\n        }\\n        self.sum = self.sum + (newValue);\\n        self.count = self.count + 1;\\n    }\\n\\n    /**\\n     * @param self The Value this function was called on\\n     * @return the number of times the sum has updated\\n     */\\n    function valuesCount(Values memory self) internal pure returns (uint256) {\\n        return self.count;\\n    }\\n\\n    /**\\n     * @dev Checks if the sum has been changed\\n     * @param self The Value this function was called on\\n     * @return boolean\\n     */\\n    function isEmpty(Values memory self) internal pure returns (bool) {\\n        return valuesCount(self) == 0;\\n    }\\n\\n    /**\\n     * @param self The Value this function was called on\\n     * @return the average number that was used to calculate the sum\\n     */\\n    function getAverage(Values memory self) internal pure returns (uint256) {\\n        return isEmpty(self) ? 0 : self.sum / (valuesCount(self));\\n    }\\n\\n    /**\\n     * @dev Checks if the min and max numbers are within the acceptable tolerance\\n     * @param self The Value this function was called on\\n     * @param tolerancePercentage Acceptable tolerance percentage as a whole number\\n     * The percentage should be entered with 2 decimal places. e.g. 2.5% should be entered as 250.\\n     * @return boolean\\n     */\\n    function isWithinTolerance(Values memory self, uint16 tolerancePercentage)\\n        internal\\n        pure\\n        returns (bool)\\n    {\\n        if (isEmpty(self)) {\\n            return false;\\n        }\\n        uint256 average = getAverage(self);\\n        uint256 toleranceAmount = average.percent(tolerancePercentage);\\n\\n        uint256 minTolerance = average - toleranceAmount;\\n        if (self.min < minTolerance) {\\n            return false;\\n        }\\n\\n        uint256 maxTolerance = average + toleranceAmount;\\n        if (self.max > maxTolerance) {\\n            return false;\\n        }\\n        return true;\\n    }\\n}\\n\",\"keccak256\":\"0xfd64d3765eb776aaebf1c6eeb8af33ad4a9bd89bad676300542086c1fefd44da\",\"license\":\"MIT\"},\"contracts/shared/proxy/beacon/InitializeableBeaconProxy.sol\":{\"content\":\"// SPDX-License-Identifier: MIT\\npragma solidity ^0.8.0;\\n\\nimport \\\"@openzeppelin/contracts/proxy/beacon/IBeacon.sol\\\";\\nimport \\\"@openzeppelin/contracts/proxy/Proxy.sol\\\";\\nimport \\\"@openzeppelin/contracts/utils/Address.sol\\\";\\n\\n/**\\n * @dev This contract implements a proxy that gets the implementation address for each call from a {UpgradeableBeacon}.\\n *\\n * The beacon address is stored in storage slot `uint256(keccak256('eip1967.proxy.beacon')) - 1`, so that it doesn't\\n * conflict with the storage layout of the implementation behind the proxy.\\n *\\n * _Available since v3.4._\\n */\\ncontract InitializeableBeaconProxy is Proxy {\\n    /**\\n     * @dev The storage slot of the UpgradeableBeacon contract which defines the implementation for this proxy.\\n     * This is bytes32(uint256(keccak256('eip1967.proxy.beacon')) - 1)) and is validated in the constructor.\\n     */\\n    bytes32 private constant _BEACON_SLOT =\\n        0xa3f0ad74e5423aebfd80d3ef4346578335a9a72aeaee59ff6cb3582b35133d50;\\n\\n    /**\\n     * @dev Initializes the proxy with `beacon`.\\n     *\\n     * If `data` is nonempty, it's used as data in a delegate call to the implementation returned by the beacon. This\\n     * will typically be an encoded function call, and allows initializating the storage of the proxy like a Solidity\\n     * constructor.\\n     *\\n     * Requirements:\\n     *\\n     * - `beacon` must be a contract with the interface {IBeacon}.\\n     */\\n    function initialize(address beacon, bytes memory data) external payable {\\n        assert(\\n            _BEACON_SLOT ==\\n                bytes32(uint256(keccak256(\\\"eip1967.proxy.beacon\\\")) - 1)\\n        );\\n        require(_beacon() == address(0), \\\"Beacon: already initialized\\\");\\n\\n        _setBeacon(beacon, data);\\n    }\\n\\n    /**\\n     * @dev Returns the current beacon address.\\n     */\\n    function _beacon() internal view virtual returns (address beacon) {\\n        bytes32 slot = _BEACON_SLOT;\\n        // solhint-disable-next-line no-inline-assembly\\n        assembly {\\n            beacon := sload(slot)\\n        }\\n    }\\n\\n    /**\\n     * @dev Returns the current implementation address of the associated beacon.\\n     */\\n    function _implementation()\\n        internal\\n        view\\n        virtual\\n        override\\n        returns (address)\\n    {\\n        return IBeacon(_beacon()).implementation();\\n    }\\n\\n    /**\\n     * @dev Changes the proxy to use a new beacon.\\n     *\\n     * If `data` is nonempty, it's used as data in a delegate call to the implementation returned by the beacon.\\n     *\\n     * Requirements:\\n     *\\n     * - `beacon` must be a contract.\\n     * - The implementation returned by `beacon` must be a contract.\\n     */\\n    function _setBeacon(address beacon, bytes memory data) internal virtual {\\n        bytes32 slot = _BEACON_SLOT;\\n\\n        // solhint-disable-next-line no-inline-assembly\\n        assembly {\\n            sstore(slot, beacon)\\n        }\\n\\n        if (data.length > 0) {\\n            Address.functionDelegateCall(\\n                _implementation(),\\n                data,\\n                \\\"BeaconProxy: function call failed\\\"\\n            );\\n        }\\n    }\\n\\n    receive() external payable override {\\n        // Needed to receive ETH without data\\n        // OZ Proxy contract calls the _fallback() on receive and tries to delegatecall which fails\\n    }\\n}\\n\",\"keccak256\":\"0x48aefbbc0c51b106f4d69580fa802dc6c5d7573fee24cb7d08f5370d79a2e6f2\",\"license\":\"MIT\"},\"contracts/shared/proxy/beacon/UpgradeableBeaconFactory.sol\":{\"content\":\"// SPDX-License-Identifier: MIT\\npragma solidity ^0.8.0;\\n\\nimport \\\"@openzeppelin/contracts/proxy/Clones.sol\\\";\\nimport \\\"@openzeppelin/contracts/proxy/beacon/IBeacon.sol\\\";\\nimport \\\"@openzeppelin/contracts/access/Ownable.sol\\\";\\nimport \\\"@openzeppelin/contracts/utils/Address.sol\\\";\\nimport \\\"./InitializeableBeaconProxy.sol\\\";\\n\\n/**\\n * @dev This contract is used in conjunction with one or more instances of {BeaconProxy} to determine their\\n * implementation contract, which is where they will delegate all function calls.\\n *\\n * An owner is able to change the implementation the beacon points to, thus upgrading the proxies that use this beacon.\\n */\\ncontract UpgradeableBeaconFactory is IBeacon, Ownable {\\n    address private _implementation;\\n    InitializeableBeaconProxy public proxyAddress;\\n\\n    /**\\n     * @dev Emitted when the implementation returned by the beacon is changed.\\n     */\\n    event Upgraded(address indexed implementation);\\n\\n    /**\\n     * @dev Sets the address of the initial implementation, and the deployer account as the owner who can upgrade the\\n     * beacon.\\n     */\\n    constructor(address payable proxyAddress_, address implementation_) {\\n        proxyAddress = InitializeableBeaconProxy(proxyAddress_);\\n        _setImplementation(implementation_);\\n    }\\n\\n    /**\\n     * @dev Returns the current implementation address.\\n     */\\n    function implementation() public view virtual override returns (address) {\\n        return _implementation;\\n    }\\n\\n    function cloneProxy(bytes memory initData)\\n        external\\n        returns (address payable proxy_)\\n    {\\n        proxy_ = payable(Clones.clone(address(proxyAddress)));\\n        InitializeableBeaconProxy(proxy_).initialize(address(this), initData);\\n    }\\n\\n    /**\\n     * @dev Upgrades the beacon to a new implementation.\\n     *\\n     * Emits an {Upgraded} event.\\n     *\\n     * Requirements:\\n     *\\n     * - msg.sender must be the owner of the contract.\\n     * - `newImplementation` must be a contract.\\n     */\\n    function upgradeTo(address newImplementation) public virtual onlyOwner {\\n        _setImplementation(newImplementation);\\n        emit Upgraded(newImplementation);\\n    }\\n\\n    /**\\n     * @dev Sets the implementation contract address for this beacon\\n     *\\n     * Requirements:\\n     *\\n     * - `newImplementation` must be a contract.\\n     */\\n    function _setImplementation(address newImplementation) private {\\n        require(\\n            Address.isContract(newImplementation),\\n            \\\"UpgradeableBeacon: implementation is not a contract\\\"\\n        );\\n        _implementation = newImplementation;\\n    }\\n}\\n\",\"keccak256\":\"0x8919fcdfb49018474c872c462c11b21a50faa7ab80f0162abd6b657cbbc5d04c\",\"license\":\"MIT\"},\"contracts/shared/roles.sol\":{\"content\":\"// SPDX-License-Identifier: MIT\\npragma solidity ^0.8.0;\\n\\nbytes32 constant ADMIN = keccak256(\\\"ADMIN\\\");\\nbytes32 constant PAUSER = keccak256(\\\"PAUSER\\\");\\nbytes32 constant AUTHORIZED = keccak256(\\\"AUTHORIZED\\\");\\n\",\"keccak256\":\"0x0888cf40ea019be9f0ee94cb8af1e030454c28f8c6512db9d89ed027fe21f18f\",\"license\":\"MIT\"},\"contracts/storage/app.sol\":{\"content\":\"// SPDX-License-Identifier: MIT\\npragma solidity ^0.8.0;\\n\\n// Contracts\\nimport { TellerNFT } from \\\"../nft/TellerNFT.sol\\\";\\n\\n// Interfaces\\n\\n// Libraries\\nimport {\\n    PlatformSetting\\n} from \\\"../settings/platform/libraries/PlatformSettingsLib.sol\\\";\\nimport { Cache } from \\\"../shared/libraries/CacheLib.sol\\\";\\nimport {\\n    UpgradeableBeaconFactory\\n} from \\\"../shared/proxy/beacon/UpgradeableBeaconFactory.sol\\\";\\n\\nstruct AppStorage {\\n    bool initialized;\\n    bool platformRestricted;\\n    mapping(bytes32 => bool) paused;\\n    mapping(bytes32 => PlatformSetting) platformSettings;\\n    mapping(address => Cache) assetSettings;\\n    mapping(string => address) assetAddresses;\\n    mapping(address => bool) cTokenRegistry;\\n    TellerNFT nft;\\n    UpgradeableBeaconFactory loansEscrowBeacon;\\n    UpgradeableBeaconFactory collateralEscrowBeacon;\\n    address nftLiquidationController;\\n    UpgradeableBeaconFactory tTokenBeacon;\\n}\\n\\nlibrary AppStorageLib {\\n    function store() internal pure returns (AppStorage storage s) {\\n        assembly {\\n            s.slot := 0\\n        }\\n    }\\n}\\n\",\"keccak256\":\"0xade1dda8163fc39658e5f6929b662187584b29cce47e9cb0915fc0d1832fb4f7\",\"license\":\"MIT\"},\"contracts/storage/market.sol\":{\"content\":\"// SPDX-License-Identifier: MIT\\npragma solidity ^0.8.0;\\n\\n// Libraries\\nimport { Counters } from \\\"@openzeppelin/contracts/utils/Counters.sol\\\";\\nimport {\\n    EnumerableSet\\n} from \\\"@openzeppelin/contracts/utils/structs/EnumerableSet.sol\\\";\\nimport \\\"../shared/libraries/NumbersList.sol\\\";\\n\\n// Interfaces\\nimport { ILoansEscrow } from \\\"../escrow/escrow/ILoansEscrow.sol\\\";\\nimport { ICollateralEscrow } from \\\"../market/collateral/ICollateralEscrow.sol\\\";\\nimport { ITToken } from \\\"../lending/ttoken/ITToken.sol\\\";\\n\\nstruct LoanTerms {\\n    // Max size the loan max be taken out with\\n    uint256 maxLoanAmount;\\n    // The timestamp at which the loan terms expire, after which if the loan is not yet active, cannot be taken out\\n    uint32 termsExpiry;\\n}\\n\\nenum LoanStatus { NonExistent, TermsSet, Active, Closed, Liquidated }\\n\\nstruct Loan {\\n    // Account that owns the loan\\n    address payable borrower;\\n    // The asset lent out for the loan\\n    address lendingToken;\\n    // The token used as collateral for the loan\\n    address collateralToken;\\n    // The total amount of the loan size taken out\\n    uint256 borrowedAmount;\\n    // The id of the loan for internal tracking\\n    uint128 id;\\n    // How long in seconds until the loan must be repaid\\n    uint32 duration;\\n    // The timestamp at which the loan became active\\n    uint32 loanStartTime;\\n    // The interest rate given for repaying the loan\\n    uint16 interestRate;\\n    // Ratio used to determine amount of collateral required based on the collateral asset price\\n    uint16 collateralRatio;\\n    // The status of the loan\\n    LoanStatus status;\\n}\\n\\nstruct LoanDebt {\\n    // The total amount of the loan taken out by the borrower, reduces on loan repayments\\n    uint256 principalOwed;\\n    // The total interest owed by the borrower for the loan, reduces on loan repayments\\n    uint256 interestOwed;\\n}\\n\\n/**\\n * @notice Borrower request object to take out a loan\\n * @param borrower The wallet address of the borrower\\n * @param assetAddress The address of the asset for the requested loan\\n * @param amount The amount of tokens requested by the borrower for the loan\\n * @param requestNonce The nonce of the borrower wallet address required for authentication\\n * @param duration The length of time in seconds that the loan has been requested for\\n * @param requestTime The timestamp at which the loan was requested\\n */\\nstruct LoanRequest {\\n    address payable borrower;\\n    address assetAddress;\\n    uint256 amount;\\n    uint32 requestNonce;\\n    uint32 duration;\\n    uint32 requestTime;\\n}\\n\\n/**\\n * @notice Borrower response object to take out a loan\\n * @param signer The wallet address of the signer validating the interest request of the lender\\n * @param assetAddress The address of the asset for the requested loan\\n * @param maxLoanAmount The largest amount of tokens that can be taken out in the loan by the borrower\\n * @param responseTime The timestamp at which the response was sent\\n * @param interestRate The signed interest rate generated by the signer's Credit Risk Algorithm (CRA)\\n * @param collateralRatio The ratio of collateral to loan amount that is generated by the signer's Credit Risk Algorithm (CRA)\\n * @param signature The signature generated by the signer in the format of the above Signature struct\\n */\\nstruct LoanResponse {\\n    address signer;\\n    address assetAddress;\\n    uint256 maxLoanAmount;\\n    uint32 responseTime;\\n    uint16 interestRate;\\n    uint16 collateralRatio;\\n    Signature signature;\\n}\\n\\n/**\\n * @notice Represents a user signature\\n * @param v The recovery identifier represented by the last byte of a ECDSA signature as an int\\n * @param r The random point x-coordinate of the signature respresented by the first 32 bytes of the generated ECDSA signature\\n * @param s The signature proof represented by the second 32 bytes of the generated ECDSA signature\\n */\\nstruct Signature {\\n    uint8 v;\\n    bytes32 r;\\n    bytes32 s;\\n}\\n\\nstruct MarketStorage {\\n    // Holds the index for the next loan ID\\n    Counters.Counter loanIDCounter;\\n    // Maps loanIDs to loan data\\n    mapping(uint256 => Loan) loans;\\n    // Maps loanID to loan debt (total owed left)\\n    mapping(uint256 => LoanDebt) loanDebt;\\n    // Maps loanID to loan terms\\n    mapping(uint256 => LoanTerms) loanTerms;\\n    // Maps loanIDs to escrow address to list of held tokens\\n    mapping(uint256 => ILoansEscrow) loanEscrows;\\n    // Maps loanIDs to list of tokens owned by a loan escrow\\n    mapping(uint256 => EnumerableSet.AddressSet) escrowTokens;\\n    // Maps collateral token address to a LoanCollateralEscrow that hold collateral funds\\n    mapping(address => ICollateralEscrow) collateralEscrows;\\n    // Maps accounts to owned loan IDs\\n    mapping(address => uint128[]) borrowerLoans;\\n    // Maps lending token to overall amount of interest collected from loans\\n    mapping(address => ITToken) tTokens;\\n    // Maps lending token to list of signer addresses who are only ones allowed to verify loan requests\\n    mapping(address => EnumerableSet.AddressSet) signers;\\n    // Maps lending token to list of allowed collateral tokens\\n    mapping(address => EnumerableSet.AddressSet) collateralTokens;\\n}\\n\\nbytes32 constant MARKET_STORAGE_POS = keccak256(\\\"teller.market.storage\\\");\\n\\nlibrary MarketStorageLib {\\n    function store() internal pure returns (MarketStorage storage s) {\\n        bytes32 pos = MARKET_STORAGE_POS;\\n        assembly {\\n            s.slot := pos\\n        }\\n    }\\n}\\n\",\"keccak256\":\"0x5f3fdba19ae8040e2007affe422527b7dca58ba424df33ba4dd9cb08d83d00de\",\"license\":\"MIT\"},\"contracts/storage/nft.sol\":{\"content\":\"// SPDX-License-Identifier: MIT\\npragma solidity ^0.8.0;\\n\\n// Utils\\nimport \\\"@openzeppelin/contracts/utils/structs/EnumerableSet.sol\\\";\\n\\nstruct NFTStorage {\\n    // Maps NFT owner to set of token IDs owned\\n    mapping(address => EnumerableSet.UintSet) stakedNFTs;\\n    // Maps loanID to NFT IDs indicating NFT being used for the loan\\n    mapping(uint256 => EnumerableSet.UintSet) loanNFTs;\\n    // Merkle root used for verifying nft IDs to base loan size\\n    bytes32 nftMerkleRoot;\\n}\\n\\nbytes32 constant NFT_STORAGE_POS = keccak256(\\\"teller.staking.storage\\\");\\n\\nlibrary NFTStorageLib {\\n    function store() internal pure returns (NFTStorage storage s) {\\n        bytes32 pos = NFT_STORAGE_POS;\\n        assembly {\\n            s.slot := pos\\n        }\\n    }\\n}\\n\",\"keccak256\":\"0x8d58bb6ba00310d8c3d89b95c62e5c997430a1124d73224897f7d9b2a43ab50a\",\"license\":\"MIT\"},\"contracts/storage/price-aggregator.sol\":{\"content\":\"// SPDX-License-Identifier: MIT\\npragma solidity ^0.8.0;\\n\\nimport {\\n    EnumerableSet\\n} from \\\"@openzeppelin/contracts/utils/structs/EnumerableSet.sol\\\";\\n\\nstruct ChainlinkAggStorage {\\n    // Maps source token => destination token => Chainlink Aggregator\\n    mapping(address => mapping(address => address)) aggregators;\\n    // Maps token address to number of supported Chainlink pairs\\n    mapping(address => uint256) pairCount;\\n    // Stores set of token addresses supported by Chainlink\\n    EnumerableSet.AddressSet supportedTokens;\\n}\\n\\nstruct PriceAggStorage {\\n    ChainlinkAggStorage chainlink;\\n}\\n\\nbytes32 constant PRICE_AGG_STORAGE_POS = keccak256(\\n    \\\"teller.price.aggregator.storage\\\"\\n);\\n\\nlibrary PriceAggStorageLib {\\n    function store() internal pure returns (PriceAggStorage storage s) {\\n        bytes32 pos = PRICE_AGG_STORAGE_POS;\\n        assembly {\\n            s.slot := pos\\n        }\\n    }\\n}\\n\",\"keccak256\":\"0x39a2c6e514cbc48d03f8de560a855527ddf9cd08e2042a75e5c1820a6298d4a1\",\"license\":\"MIT\"}},\"version\":1}",
          "bytecode": "0x608060405234801561001057600080fd5b5061204b806100206000396000f3fe608060405234801561001057600080fd5b506004361061004c5760003560e01c80635ebc6334146100515780638a700b531461007d578063ccdd9f5d14610092578063e89ad656146100a5575b600080fd5b61006461005f366004611d42565b6100b8565b6040805192835260208301919091520160405180910390f35b61009061008b366004611d72565b610189565b005b6100906100a0366004611d42565b6102ea565b6100906100b3366004611d72565b6105da565b60008061014a836100c8856107ce565b6001600160a01b031663d17b71d7866040518263ffffffff1660e01b81526004016100f591815260200190565b60206040518083038186803b15801561010d57600080fd5b505afa158015610121573d6000803e3d6000fd5b505050506040513d601f19601f820116820180604052508101906101459190611d5a565b61083b565b509150610182610159846108ff565b600101546001600160a01b031661016f856108ff565b600201546001600160a01b03168461091c565b9050915091565b60008080527f7b305b6be5f275f648d05716597c483d754c2a242bd605feba3c64fb853605366020527f63eec20f0ae1af135811da961c707cd581594291a92cf7bcd78c1cf1aca4e4b054600080516020611ff68339815191529060ff161561020d5760405162461bcd60e51b815260040161020490611e6a565b60405180910390fd5b60008281526002820160205260408120805460ff1916600117905580806102338161099e565b151514801561024d57508015156102498361099e565b1515145b610256826109b6565b906102745760405162461bcd60e51b81526004016102049190611e00565b507f50e75b23f8ec51bbcb044fe377457e835f3b5ccc7ebf69e80906452015dff607336102a18282610a1f565b6102bd5760405162461bcd60e51b815260040161020490611e33565b6102ca8888336000610a53565b5050506000938452505060020160205260409020805460ff191690555050565b60008080527f7b305b6be5f275f648d05716597c483d754c2a242bd605feba3c64fb853605366020527f63eec20f0ae1af135811da961c707cd581594291a92cf7bcd78c1cf1aca4e4b054600080516020611ff68339815191529060ff16156103655760405162461bcd60e51b815260040161020490611e6a565b60008281526002820160205260408120805460ff19166001179055808061038b8161099e565b15151480156103a557508015156103a18361099e565b1515145b6103ae826109b6565b906103cc5760405162461bcd60e51b81526004016102049190611e00565b507f50e75b23f8ec51bbcb044fe377457e835f3b5ccc7ebf69e80906452015dff607336103f98282610a1f565b6104155760405162461bcd60e51b815260040161020490611e33565b6000610420886108ff565b9050600061042d896107ce565b6001600160a01b031663d17b71d78a6040518263ffffffff1660e01b815260040161045a91815260200190565b60206040518083038186803b15801561047257600080fd5b505afa158015610486573d6000803e3d6000fd5b505050506040513d601f19601f820116820180604052508101906104aa9190611d5a565b90506104b68982610e80565b61050c5760405162461bcd60e51b815260206004820152602160248201527f54656c6c65723a20646f6573206e6f74206e656564206c69717569646174696f6044820152603760f91b6064820152608401610204565b6000806105198b8461083b565b9150915060006105288c610fa3565b600101546105358d610fa3565b546105409190611ea1565b905061054f8c82336001610a53565b508215610563576105638c84848733610fc0565b845460408051338152602081018690529081018390526001600160a01b03909116908d907f9950a0562c02382e2e840daa73082d5be7660ce37601f28fa4c84089c11e8a069060600160405180910390a35050506000978852505050600290930160205250506040909120805460ff191690555050565b600080806105e78161099e565b151514801561060157508015156105fd8361099e565b1515145b61060a826109b6565b906106285760405162461bcd60e51b81526004016102049190611e00565b507f50e75b23f8ec51bbcb044fe377457e835f3b5ccc7ebf69e80906452015dff607336106558282610a1f565b6106715760405162461bcd60e51b815260040161020490611e33565b60008080527f7b305b6be5f275f648d05716597c483d754c2a242bd605feba3c64fb853605366020527f63eec20f0ae1af135811da961c707cd581594291a92cf7bcd78c1cf1aca4e4b054600080516020611ff68339815191529060ff16156106ec5760405162461bcd60e51b815260040161020490611e6a565b60008281526002820160205260408120805460ff1916600117905561072689610714816108ff565b600101546001600160a01b03166110bd565b905060006107338a611155565b9050808210801561074357508189115b15610797576000818a116107605761075b838b611f6b565b61076a565b61076a8383611f6b565b90506107956107788c6108ff565b600101546001600160a01b03163361078f8e611239565b84611260565b505b6107ac8a8a6107a58d611239565b6000610a53565b505050600091825260020160205260409020805460ff19169055505050505050565b60009081527f0553069f1f0518e59f8623c18c83a1f987f2a0544d563e98dd803a7078142a8660209081526040808320600201546001600160a01b0390811684527f0553069f1f0518e59f8623c18c83a1f987f2a0544d563e98dd803a7078142a8b909252909120541690565b600080600061084985610fa3565b6001015461085686610fa3565b546108619190611ea1565b90506000610876826108716112be565b6112ef565b6108809083611ea1565b905084156108cc576108bd610894876108ff565b600201546001600160a01b03166108aa886108ff565b600101546001600160a01b03168761091c565b92506108c98385611ea1565b93505b808410156108ea576108dd8661130c565b6108e79085611ea1565b93505b808411156108f6578093505b50509250929050565b60006109096113c2565b6000928352600101602052506040902090565b60405163c05b1ec360e01b8152600090309063c05b1ec39061094690879087908790600401611ddc565b60206040518083038186803b15801561095e57600080fd5b505afa158015610972573d6000803e3d6000fd5b505050506040513d601f19601f820116820180604052508101906109969190611d5a565b949350505050565b60008181526001602052604090205460ff165b919050565b6060816109eb576040518060400160405280601081526020016f14185d5cd8589b194e881c185d5cd95960821b815250610a19565b6040518060400160405280601481526020017314185d5cd8589b194e881b9bdd081c185d5cd95960621b8152505b92915050565b6000610a296113eb565b6000938452602090815260408085206001600160a01b039490941685529290525090205460ff1690565b6000808411610a995760405162461bcd60e51b815260206004820152601260248201527154656c6c65723a207a65726f20726570617960701b6044820152606401610204565b610aa285610fa3565b60010154610aaf86610fa3565b54610aba9190611ea1565b905083811015610acd5792506000610ada565b610ad78482611f6b565b90505b60007f0553069f1f0518e59f8623c18c83a1f987f2a0544d563e98dd803a7078142a8d81610b07886108ff565b600101546001600160a01b039081168252602082019290925260400160002054811691508416610b3687611239565b6001600160a01b03161415610bce57610b4e86611239565b6001600160a01b031663125bfb66610b65886108ff565b600101546040516001600160e01b031960e084901b168152610b97916001600160a01b03169085908a90600401611ddc565b600060405180830381600087803b158015610bb157600080fd5b505af1158015610bc5573d6000803e3d6000fd5b50505050610bef565b610bef610bda876108ff565b600101546001600160a01b0316858388611260565b600080610bfb88610fa3565b60010154871015610c2f57508580610c1289610fa3565b6001016000828254610c249190611f6b565b90915550610c989050565b6000610c3a89610fa3565b600101541115610c6f57610c4d88610fa3565b600101549050610c5d8188611f6b565b96506000610c6a89610fa3565b600101555b8615610c985786915086610c8289610fa3565b8054600090610c92908490611f6b565b90915550505b604051638a700b5360e01b815260048101839052602481018290526001600160a01b03841690638a700b5390604401600060405180830381600087803b158015610ce157600080fd5b505af1158015610cf5573d6000803e3d6000fd5b505050508415610d9d578315610d4d5760405162461bcd60e51b815260206004820152601f60248201527f54656c6c65723a206c6971756964617465207061727469616c207265706179006044820152606401610204565b6004610d58896108ff565b600401601c6101000a81548160ff02191690836004811115610d8a57634e487b7160e01b600052602160045260246000fd5b0217905550610d9888611401565b610e75565b83610e1c576003610dad896108ff565b600401601c6101000a81548160ff02191690836004811115610ddf57634e487b7160e01b600052602160045260246000fd5b0217905550610e0088610df18a6108ff565b546001600160a01b03166114cc565b610e1c88610e0d8a6108ff565b546001600160a01b0316611560565b610e25886108ff565b54604080518981523360208201529081018690526001600160a01b039091169089907f20a1f2ec363af45dc5ee7d9d622f2dd68b52501c382126c7f04b53663c4c69bf9060600160405180910390a35b505050949350505050565b600080610e8c846108ff565b90506002600482810154600160e01b900460ff1690811115610ebe57634e487b7160e01b600052602160045260246000fd5b14610ecd576000915050610a19565b6004810154600160d01b900461ffff1615610f6d576040516372e1132760e01b81526004810185905260009030906372e113279060240160606040518083038186803b158015610f1c57600080fd5b505afa158015610f30573d6000803e3d6000fd5b505050506040513d601f19601f82011682018060405250810190610f549190611d93565b5091505083811115610f6b57600192505050610a19565b505b6004810154610f929063ffffffff600160801b8204811691600160a01b900416611eb9565b63ffffffff16421015949350505050565b6000610fad6113c2565b6000928352600201602052506040902090565b6004610fcb866108ff565b600490810154600160e01b900460ff1690811115610ff957634e487b7160e01b600052602160045260246000fd5b146110465760405162461bcd60e51b815260206004820152601b60248201527f54656c6c65723a206c6f616e206e6f74206c69717569646174656400000000006044820152606401610204565b82841161109757600061108461105b876108ff565b600101546001600160a01b0316611071886108ff565b600201546001600160a01b03168761091c565b90506110918682846115d5565b506110b6565b6110a28583836115d5565b6110b685826110b18688611f6b565b611692565b5050505050565b6000816001600160a01b03166370a082316110d785611239565b6040516001600160e01b031960e084901b1681526001600160a01b03909116600482015260240160206040518083038186803b15801561111657600080fd5b505afa15801561112a573d6000803e3d6000fd5b505050506040513d601f19601f8201168201806040525081019061114e9190611d5a565b9392505050565b60006001611162836108ff565b600490810154600160e01b900460ff169081111561119057634e487b7160e01b600052602160045260246000fd5b14156111ca5760006111ab836111a585611734565b54611751565b9050806111b784611734565b546111c29190611ea1565b9150506109b1565b60026111d5836108ff565b600490810154600160e01b900460ff169081111561120357634e487b7160e01b600052602160045260246000fd5b14156112315761121282610fa3565b6001015461121f83610fa3565b5461122a9190611ea1565b90506109b1565b506000919050565b60006112436113c2565b60009283526004016020525060409020546001600160a01b031690565b6112b8846323b872dd60e01b85858560405160240161128193929190611ddc565b60408051601f198184030181529190526020810180516001600160e01b03166001600160e01b031990931692909217909152611766565b50505050565b60006112e97f5166f2578d96d76687be006158a90b639fcc7501b0381b6b4ed953aca3e0e183611838565b54919050565b600061271061130261ffff841685611f1c565b61114e9190611ee1565b600080611318836108ff565b600101546001600160a01b0316905061133183826110bd565b61133b9083611ea1565b9150600061134884611840565b905060006113558261185d565b11156113bb5760005b6113678261185d565b8110156113b95760006113838661137e8585611867565b6110bd565b90506113996113928484611867565b858361091c565b6113a39086611ea1565b94505080806113b190611fae565b91505061135e565b505b5050919050565b60007f0553069f1f0518e59f8623c18c83a1f987f2a0544d563e98dd803a7078142a855b905090565b6000600080516020611ff68339815191526113e6565b600061140b611873565b60008381526001919091016020526040812091505b6114298261185d565b8110156114c7576006546001600160a01b03166001600160a01b03166323b872dd306000600901546001600160a01b03166114648686611867565b6040518463ffffffff1660e01b815260040161148293929190611ddc565b600060405180830381600087803b15801561149c57600080fd5b505af11580156114b0573d6000803e3d6000fd5b5050505080806114bf90611fae565b915050611420565b505050565b61155c826114d9846107ce565b6001600160a01b031663d17b71d7856040518263ffffffff1660e01b815260040161150691815260200190565b60206040518083038186803b15801561151e57600080fd5b505afa158015611532573d6000803e3d6000fd5b505050506040513d601f19601f820116820180604052508101906115569190611d5a565b836115d5565b5050565b600061156a611873565b60008481526001919091016020526040812091505b6115888261185d565b8110156112b8576115c261159a611873565b6001600160a01b0385166000908152602091909152604090206115bd8484611867565b61189b565b50806115cd81611fae565b91505061157f565b6115de836107ce565b604051630ad58d2f60e01b815260048101859052602481018490526001600160a01b0383811660448301529190911690630ad58d2f90606401600060405180830381600087803b15801561163157600080fd5b505af1158015611645573d6000803e3d6000fd5b50505050806001600160a01b0316837f7c5e5cb62e5ed3caf3764e4b0afedfedef533e27809d43367799787ad2abcd418460405161168591815260200190565b60405180910390a3505050565b60008381527f0553069f1f0518e59f8623c18c83a1f987f2a0544d563e98dd803a7078142a8a60205260409020816116e1856116cd816108ff565b600101546001600160a01b031686846118a7565b905060005b6116ef8361185d565b81101561172c5781611703575050506114c7565b611718866117118584611867565b87856118a7565b91508061172481611fae565b9150506116e6565b505050505050565b600061173e6113c2565b6000928352600301602052506040902090565b600061114e61175f84611a42565b83906112ef565b60006117bb826040518060400160405280602081526020017f5361666545524332303a206c6f772d6c6576656c2063616c6c206661696c6564815250856001600160a01b0316611aa29092919063ffffffff16565b8051909150156114c757808060200190518101906117d99190611d22565b6114c75760405162461bcd60e51b815260206004820152602a60248201527f5361666545524332303a204552433230206f7065726174696f6e20646964206e6044820152691bdd081cdd58d8d9595960b21b6064820152608401610204565b600080610fad565b600061184a6113c2565b6000928352600501602052506040902090565b6000610a19825490565b600061114e8383611ab1565b60007f36ec560bcbaf142f58499b90035254e32b3f3563174bc96dc2b2724bafa4c2a76113e6565b600061114e8383611b45565b6000806118b486866110bd565b90508015611a385760006118c7876108ff565b600101546001600160a01b03878116911614156118e5575080611908565b611905866118f2896108ff565b600101546001600160a01b03168461091c565b90505b83811161198c5761191887611239565b6001600160a01b031663125bfb668787856040518463ffffffff1660e01b815260040161194793929190611ddc565b600060405180830381600087803b15801561196157600080fd5b505af1158015611975573d6000803e3d6000fd5b5050505080846119859190611f6b565b9350611a36565b6000611997886108ff565b600101546001600160a01b03888116911614156119b55750836119c6565b6119c3836108718785611b94565b90505b6119cf88611239565b6001600160a01b031663125bfb668888846040518463ffffffff1660e01b81526004016119fe93929190611ddc565b600060405180830381600087803b158015611a1857600080fd5b505af1158015611a2c573d6000803e3d6000fd5b5050505060009450505b505b5090949350505050565b60006301e13380611a52836108ff565b60040154600160c01b900461ffff16611a6a846108ff565b60040154611a859190600160801b900463ffffffff16611f3b565b611a8f9190611ef5565b905061ffff81166109b157506001919050565b60606109968484600085611bc1565b81546000908210611b0f5760405162461bcd60e51b815260206004820152602260248201527f456e756d657261626c655365743a20696e646578206f7574206f6620626f756e604482015261647360f01b6064820152608401610204565b826000018281548110611b3257634e487b7160e01b600052603260045260246000fd5b9060005260206000200154905092915050565b6000818152600183016020526040812054611b8c57508154600181810184556000848152602080822090930184905584548482528286019093526040902091909155610a19565b506000610a19565b60008115611bb85781611ba961271085611f1c565b611bb39190611ee1565b61114e565b50600092915050565b606082471015611c225760405162461bcd60e51b815260206004820152602660248201527f416464726573733a20696e73756666696369656e742062616c616e636520666f6044820152651c8818d85b1b60d21b6064820152608401610204565b843b611c705760405162461bcd60e51b815260206004820152601d60248201527f416464726573733a2063616c6c20746f206e6f6e2d636f6e74726163740000006044820152606401610204565b600080866001600160a01b03168587604051611c8c9190611dc0565b60006040518083038185875af1925050503d8060008114611cc9576040519150601f19603f3d011682016040523d82523d6000602084013e611cce565b606091505b5091509150611cde828286611ce9565b979650505050505050565b60608315611cf857508161114e565b825115611d085782518084602001fd5b8160405162461bcd60e51b81526004016102049190611e00565b600060208284031215611d33578081fd5b8151801515811461114e578182fd5b600060208284031215611d53578081fd5b5035919050565b600060208284031215611d6b578081fd5b5051919050565b60008060408385031215611d84578081fd5b50508035926020909101359150565b600080600060608486031215611da7578081fd5b8351925060208401519150604084015190509250925092565b60008251611dd2818460208701611f82565b9190910192915050565b6001600160a01b039384168152919092166020820152604081019190915260600190565b6000602082528251806020840152611e1f816040850160208701611f82565b601f01601f19169190910160400192915050565b6020808252601d908201527f416363657373436f6e74726f6c3a206e6f7420617574686f72697a6564000000604082015260600190565b60208082526018908201527f416363657373436f6e74726f6c3a207265656e74657265640000000000000000604082015260600190565b60008219821115611eb457611eb4611fc9565b500190565b600063ffffffff808316818516808303821115611ed857611ed8611fc9565b01949350505050565b600082611ef057611ef0611fdf565b500490565b600067ffffffffffffffff80841680611f1057611f10611fdf565b92169190910492915050565b6000816000190483118215151615611f3657611f36611fc9565b500290565b600067ffffffffffffffff80831681851681830481118215151615611f6257611f62611fc9565b02949350505050565b600082821015611f7d57611f7d611fc9565b500390565b60005b83811015611f9d578181015183820152602001611f85565b838111156112b85750506000910152565b6000600019821415611fc257611fc2611fc9565b5060010190565b634e487b7160e01b600052601160045260246000fd5b634e487b7160e01b600052601260045260246000fdfe7b305b6be5f275f648d05716597c483d754c2a242bd605feba3c64fb85360534a2646970667358221220d4ca4187d3b34cbce12ece919f27a378dae5d6e5f4f54878a3a4a44a1ba2a6f664736f6c63430008030033",
          "deployedBytecode": "0x608060405234801561001057600080fd5b506004361061004c5760003560e01c80635ebc6334146100515780638a700b531461007d578063ccdd9f5d14610092578063e89ad656146100a5575b600080fd5b61006461005f366004611d42565b6100b8565b6040805192835260208301919091520160405180910390f35b61009061008b366004611d72565b610189565b005b6100906100a0366004611d42565b6102ea565b6100906100b3366004611d72565b6105da565b60008061014a836100c8856107ce565b6001600160a01b031663d17b71d7866040518263ffffffff1660e01b81526004016100f591815260200190565b60206040518083038186803b15801561010d57600080fd5b505afa158015610121573d6000803e3d6000fd5b505050506040513d601f19601f820116820180604052508101906101459190611d5a565b61083b565b509150610182610159846108ff565b600101546001600160a01b031661016f856108ff565b600201546001600160a01b03168461091c565b9050915091565b60008080527f7b305b6be5f275f648d05716597c483d754c2a242bd605feba3c64fb853605366020527f63eec20f0ae1af135811da961c707cd581594291a92cf7bcd78c1cf1aca4e4b054600080516020611ff68339815191529060ff161561020d5760405162461bcd60e51b815260040161020490611e6a565b60405180910390fd5b60008281526002820160205260408120805460ff1916600117905580806102338161099e565b151514801561024d57508015156102498361099e565b1515145b610256826109b6565b906102745760405162461bcd60e51b81526004016102049190611e00565b507f50e75b23f8ec51bbcb044fe377457e835f3b5ccc7ebf69e80906452015dff607336102a18282610a1f565b6102bd5760405162461bcd60e51b815260040161020490611e33565b6102ca8888336000610a53565b5050506000938452505060020160205260409020805460ff191690555050565b60008080527f7b305b6be5f275f648d05716597c483d754c2a242bd605feba3c64fb853605366020527f63eec20f0ae1af135811da961c707cd581594291a92cf7bcd78c1cf1aca4e4b054600080516020611ff68339815191529060ff16156103655760405162461bcd60e51b815260040161020490611e6a565b60008281526002820160205260408120805460ff19166001179055808061038b8161099e565b15151480156103a557508015156103a18361099e565b1515145b6103ae826109b6565b906103cc5760405162461bcd60e51b81526004016102049190611e00565b507f50e75b23f8ec51bbcb044fe377457e835f3b5ccc7ebf69e80906452015dff607336103f98282610a1f565b6104155760405162461bcd60e51b815260040161020490611e33565b6000610420886108ff565b9050600061042d896107ce565b6001600160a01b031663d17b71d78a6040518263ffffffff1660e01b815260040161045a91815260200190565b60206040518083038186803b15801561047257600080fd5b505afa158015610486573d6000803e3d6000fd5b505050506040513d601f19601f820116820180604052508101906104aa9190611d5a565b90506104b68982610e80565b61050c5760405162461bcd60e51b815260206004820152602160248201527f54656c6c65723a20646f6573206e6f74206e656564206c69717569646174696f6044820152603760f91b6064820152608401610204565b6000806105198b8461083b565b9150915060006105288c610fa3565b600101546105358d610fa3565b546105409190611ea1565b905061054f8c82336001610a53565b508215610563576105638c84848733610fc0565b845460408051338152602081018690529081018390526001600160a01b03909116908d907f9950a0562c02382e2e840daa73082d5be7660ce37601f28fa4c84089c11e8a069060600160405180910390a35050506000978852505050600290930160205250506040909120805460ff191690555050565b600080806105e78161099e565b151514801561060157508015156105fd8361099e565b1515145b61060a826109b6565b906106285760405162461bcd60e51b81526004016102049190611e00565b507f50e75b23f8ec51bbcb044fe377457e835f3b5ccc7ebf69e80906452015dff607336106558282610a1f565b6106715760405162461bcd60e51b815260040161020490611e33565b60008080527f7b305b6be5f275f648d05716597c483d754c2a242bd605feba3c64fb853605366020527f63eec20f0ae1af135811da961c707cd581594291a92cf7bcd78c1cf1aca4e4b054600080516020611ff68339815191529060ff16156106ec5760405162461bcd60e51b815260040161020490611e6a565b60008281526002820160205260408120805460ff1916600117905561072689610714816108ff565b600101546001600160a01b03166110bd565b905060006107338a611155565b9050808210801561074357508189115b15610797576000818a116107605761075b838b611f6b565b61076a565b61076a8383611f6b565b90506107956107788c6108ff565b600101546001600160a01b03163361078f8e611239565b84611260565b505b6107ac8a8a6107a58d611239565b6000610a53565b505050600091825260020160205260409020805460ff19169055505050505050565b60009081527f0553069f1f0518e59f8623c18c83a1f987f2a0544d563e98dd803a7078142a8660209081526040808320600201546001600160a01b0390811684527f0553069f1f0518e59f8623c18c83a1f987f2a0544d563e98dd803a7078142a8b909252909120541690565b600080600061084985610fa3565b6001015461085686610fa3565b546108619190611ea1565b90506000610876826108716112be565b6112ef565b6108809083611ea1565b905084156108cc576108bd610894876108ff565b600201546001600160a01b03166108aa886108ff565b600101546001600160a01b03168761091c565b92506108c98385611ea1565b93505b808410156108ea576108dd8661130c565b6108e79085611ea1565b93505b808411156108f6578093505b50509250929050565b60006109096113c2565b6000928352600101602052506040902090565b60405163c05b1ec360e01b8152600090309063c05b1ec39061094690879087908790600401611ddc565b60206040518083038186803b15801561095e57600080fd5b505afa158015610972573d6000803e3d6000fd5b505050506040513d601f19601f820116820180604052508101906109969190611d5a565b949350505050565b60008181526001602052604090205460ff165b919050565b6060816109eb576040518060400160405280601081526020016f14185d5cd8589b194e881c185d5cd95960821b815250610a19565b6040518060400160405280601481526020017314185d5cd8589b194e881b9bdd081c185d5cd95960621b8152505b92915050565b6000610a296113eb565b6000938452602090815260408085206001600160a01b039490941685529290525090205460ff1690565b6000808411610a995760405162461bcd60e51b815260206004820152601260248201527154656c6c65723a207a65726f20726570617960701b6044820152606401610204565b610aa285610fa3565b60010154610aaf86610fa3565b54610aba9190611ea1565b905083811015610acd5792506000610ada565b610ad78482611f6b565b90505b60007f0553069f1f0518e59f8623c18c83a1f987f2a0544d563e98dd803a7078142a8d81610b07886108ff565b600101546001600160a01b039081168252602082019290925260400160002054811691508416610b3687611239565b6001600160a01b03161415610bce57610b4e86611239565b6001600160a01b031663125bfb66610b65886108ff565b600101546040516001600160e01b031960e084901b168152610b97916001600160a01b03169085908a90600401611ddc565b600060405180830381600087803b158015610bb157600080fd5b505af1158015610bc5573d6000803e3d6000fd5b50505050610bef565b610bef610bda876108ff565b600101546001600160a01b0316858388611260565b600080610bfb88610fa3565b60010154871015610c2f57508580610c1289610fa3565b6001016000828254610c249190611f6b565b90915550610c989050565b6000610c3a89610fa3565b600101541115610c6f57610c4d88610fa3565b600101549050610c5d8188611f6b565b96506000610c6a89610fa3565b600101555b8615610c985786915086610c8289610fa3565b8054600090610c92908490611f6b565b90915550505b604051638a700b5360e01b815260048101839052602481018290526001600160a01b03841690638a700b5390604401600060405180830381600087803b158015610ce157600080fd5b505af1158015610cf5573d6000803e3d6000fd5b505050508415610d9d578315610d4d5760405162461bcd60e51b815260206004820152601f60248201527f54656c6c65723a206c6971756964617465207061727469616c207265706179006044820152606401610204565b6004610d58896108ff565b600401601c6101000a81548160ff02191690836004811115610d8a57634e487b7160e01b600052602160045260246000fd5b0217905550610d9888611401565b610e75565b83610e1c576003610dad896108ff565b600401601c6101000a81548160ff02191690836004811115610ddf57634e487b7160e01b600052602160045260246000fd5b0217905550610e0088610df18a6108ff565b546001600160a01b03166114cc565b610e1c88610e0d8a6108ff565b546001600160a01b0316611560565b610e25886108ff565b54604080518981523360208201529081018690526001600160a01b039091169089907f20a1f2ec363af45dc5ee7d9d622f2dd68b52501c382126c7f04b53663c4c69bf9060600160405180910390a35b505050949350505050565b600080610e8c846108ff565b90506002600482810154600160e01b900460ff1690811115610ebe57634e487b7160e01b600052602160045260246000fd5b14610ecd576000915050610a19565b6004810154600160d01b900461ffff1615610f6d576040516372e1132760e01b81526004810185905260009030906372e113279060240160606040518083038186803b158015610f1c57600080fd5b505afa158015610f30573d6000803e3d6000fd5b505050506040513d601f19601f82011682018060405250810190610f549190611d93565b5091505083811115610f6b57600192505050610a19565b505b6004810154610f929063ffffffff600160801b8204811691600160a01b900416611eb9565b63ffffffff16421015949350505050565b6000610fad6113c2565b6000928352600201602052506040902090565b6004610fcb866108ff565b600490810154600160e01b900460ff1690811115610ff957634e487b7160e01b600052602160045260246000fd5b146110465760405162461bcd60e51b815260206004820152601b60248201527f54656c6c65723a206c6f616e206e6f74206c69717569646174656400000000006044820152606401610204565b82841161109757600061108461105b876108ff565b600101546001600160a01b0316611071886108ff565b600201546001600160a01b03168761091c565b90506110918682846115d5565b506110b6565b6110a28583836115d5565b6110b685826110b18688611f6b565b611692565b5050505050565b6000816001600160a01b03166370a082316110d785611239565b6040516001600160e01b031960e084901b1681526001600160a01b03909116600482015260240160206040518083038186803b15801561111657600080fd5b505afa15801561112a573d6000803e3d6000fd5b505050506040513d601f19601f8201168201806040525081019061114e9190611d5a565b9392505050565b60006001611162836108ff565b600490810154600160e01b900460ff169081111561119057634e487b7160e01b600052602160045260246000fd5b14156111ca5760006111ab836111a585611734565b54611751565b9050806111b784611734565b546111c29190611ea1565b9150506109b1565b60026111d5836108ff565b600490810154600160e01b900460ff169081111561120357634e487b7160e01b600052602160045260246000fd5b14156112315761121282610fa3565b6001015461121f83610fa3565b5461122a9190611ea1565b90506109b1565b506000919050565b60006112436113c2565b60009283526004016020525060409020546001600160a01b031690565b6112b8846323b872dd60e01b85858560405160240161128193929190611ddc565b60408051601f198184030181529190526020810180516001600160e01b03166001600160e01b031990931692909217909152611766565b50505050565b60006112e97f5166f2578d96d76687be006158a90b639fcc7501b0381b6b4ed953aca3e0e183611838565b54919050565b600061271061130261ffff841685611f1c565b61114e9190611ee1565b600080611318836108ff565b600101546001600160a01b0316905061133183826110bd565b61133b9083611ea1565b9150600061134884611840565b905060006113558261185d565b11156113bb5760005b6113678261185d565b8110156113b95760006113838661137e8585611867565b6110bd565b90506113996113928484611867565b858361091c565b6113a39086611ea1565b94505080806113b190611fae565b91505061135e565b505b5050919050565b60007f0553069f1f0518e59f8623c18c83a1f987f2a0544d563e98dd803a7078142a855b905090565b6000600080516020611ff68339815191526113e6565b600061140b611873565b60008381526001919091016020526040812091505b6114298261185d565b8110156114c7576006546001600160a01b03166001600160a01b03166323b872dd306000600901546001600160a01b03166114648686611867565b6040518463ffffffff1660e01b815260040161148293929190611ddc565b600060405180830381600087803b15801561149c57600080fd5b505af11580156114b0573d6000803e3d6000fd5b5050505080806114bf90611fae565b915050611420565b505050565b61155c826114d9846107ce565b6001600160a01b031663d17b71d7856040518263ffffffff1660e01b815260040161150691815260200190565b60206040518083038186803b15801561151e57600080fd5b505afa158015611532573d6000803e3d6000fd5b505050506040513d601f19601f820116820180604052508101906115569190611d5a565b836115d5565b5050565b600061156a611873565b60008481526001919091016020526040812091505b6115888261185d565b8110156112b8576115c261159a611873565b6001600160a01b0385166000908152602091909152604090206115bd8484611867565b61189b565b50806115cd81611fae565b91505061157f565b6115de836107ce565b604051630ad58d2f60e01b815260048101859052602481018490526001600160a01b0383811660448301529190911690630ad58d2f90606401600060405180830381600087803b15801561163157600080fd5b505af1158015611645573d6000803e3d6000fd5b50505050806001600160a01b0316837f7c5e5cb62e5ed3caf3764e4b0afedfedef533e27809d43367799787ad2abcd418460405161168591815260200190565b60405180910390a3505050565b60008381527f0553069f1f0518e59f8623c18c83a1f987f2a0544d563e98dd803a7078142a8a60205260409020816116e1856116cd816108ff565b600101546001600160a01b031686846118a7565b905060005b6116ef8361185d565b81101561172c5781611703575050506114c7565b611718866117118584611867565b87856118a7565b91508061172481611fae565b9150506116e6565b505050505050565b600061173e6113c2565b6000928352600301602052506040902090565b600061114e61175f84611a42565b83906112ef565b60006117bb826040518060400160405280602081526020017f5361666545524332303a206c6f772d6c6576656c2063616c6c206661696c6564815250856001600160a01b0316611aa29092919063ffffffff16565b8051909150156114c757808060200190518101906117d99190611d22565b6114c75760405162461bcd60e51b815260206004820152602a60248201527f5361666545524332303a204552433230206f7065726174696f6e20646964206e6044820152691bdd081cdd58d8d9595960b21b6064820152608401610204565b600080610fad565b600061184a6113c2565b6000928352600501602052506040902090565b6000610a19825490565b600061114e8383611ab1565b60007f36ec560bcbaf142f58499b90035254e32b3f3563174bc96dc2b2724bafa4c2a76113e6565b600061114e8383611b45565b6000806118b486866110bd565b90508015611a385760006118c7876108ff565b600101546001600160a01b03878116911614156118e5575080611908565b611905866118f2896108ff565b600101546001600160a01b03168461091c565b90505b83811161198c5761191887611239565b6001600160a01b031663125bfb668787856040518463ffffffff1660e01b815260040161194793929190611ddc565b600060405180830381600087803b15801561196157600080fd5b505af1158015611975573d6000803e3d6000fd5b5050505080846119859190611f6b565b9350611a36565b6000611997886108ff565b600101546001600160a01b03888116911614156119b55750836119c6565b6119c3836108718785611b94565b90505b6119cf88611239565b6001600160a01b031663125bfb668888846040518463ffffffff1660e01b81526004016119fe93929190611ddc565b600060405180830381600087803b158015611a1857600080fd5b505af1158015611a2c573d6000803e3d6000fd5b5050505060009450505b505b5090949350505050565b60006301e13380611a52836108ff565b60040154600160c01b900461ffff16611a6a846108ff565b60040154611a859190600160801b900463ffffffff16611f3b565b611a8f9190611ef5565b905061ffff81166109b157506001919050565b60606109968484600085611bc1565b81546000908210611b0f5760405162461bcd60e51b815260206004820152602260248201527f456e756d657261626c655365743a20696e646578206f7574206f6620626f756e604482015261647360f01b6064820152608401610204565b826000018281548110611b3257634e487b7160e01b600052603260045260246000fd5b9060005260206000200154905092915050565b6000818152600183016020526040812054611b8c57508154600181810184556000848152602080822090930184905584548482528286019093526040902091909155610a19565b506000610a19565b60008115611bb85781611ba961271085611f1c565b611bb39190611ee1565b61114e565b50600092915050565b606082471015611c225760405162461bcd60e51b815260206004820152602660248201527f416464726573733a20696e73756666696369656e742062616c616e636520666f6044820152651c8818d85b1b60d21b6064820152608401610204565b843b611c705760405162461bcd60e51b815260206004820152601d60248201527f416464726573733a2063616c6c20746f206e6f6e2d636f6e74726163740000006044820152606401610204565b600080866001600160a01b03168587604051611c8c9190611dc0565b60006040518083038185875af1925050503d8060008114611cc9576040519150601f19603f3d011682016040523d82523d6000602084013e611cce565b606091505b5091509150611cde828286611ce9565b979650505050505050565b60608315611cf857508161114e565b825115611d085782518084602001fd5b8160405162461bcd60e51b81526004016102049190611e00565b600060208284031215611d33578081fd5b8151801515811461114e578182fd5b600060208284031215611d53578081fd5b5035919050565b600060208284031215611d6b578081fd5b5051919050565b60008060408385031215611d84578081fd5b50508035926020909101359150565b600080600060608486031215611da7578081fd5b8351925060208401519150604084015190509250925092565b60008251611dd2818460208701611f82565b9190910192915050565b6001600160a01b039384168152919092166020820152604081019190915260600190565b6000602082528251806020840152611e1f816040850160208701611f82565b601f01601f19169190910160400192915050565b6020808252601d908201527f416363657373436f6e74726f6c3a206e6f7420617574686f72697a6564000000604082015260600190565b60208082526018908201527f416363657373436f6e74726f6c3a207265656e74657265640000000000000000604082015260600190565b60008219821115611eb457611eb4611fc9565b500190565b600063ffffffff808316818516808303821115611ed857611ed8611fc9565b01949350505050565b600082611ef057611ef0611fdf565b500490565b600067ffffffffffffffff80841680611f1057611f10611fdf565b92169190910492915050565b6000816000190483118215151615611f3657611f36611fc9565b500290565b600067ffffffffffffffff80831681851681830481118215151615611f6257611f62611fc9565b02949350505050565b600082821015611f7d57611f7d611fc9565b500390565b60005b83811015611f9d578181015183820152602001611f85565b838111156112b85750506000910152565b6000600019821415611fc257611fc2611fc9565b5060010190565b634e487b7160e01b600052601160045260246000fd5b634e487b7160e01b600052601260045260246000fdfe7b305b6be5f275f648d05716597c483d754c2a242bd605feba3c64fb85360534a2646970667358221220d4ca4187d3b34cbce12ece919f27a378dae5d6e5f4f54878a3a4a44a1ba2a6f664736f6c63430008030033",
          "devdoc": {
            "events": {
              "LoanLiquidated(uint256,address,address,uint256,uint256)": {
                "params": {
                  "borrower": "Account address of the borrower",
                  "liquidator": "Account address of the liquidator",
                  "loanID": "ID of loan from which collateral was withdrawn",
                  "reward": "Value in lending token paid out to liquidator",
                  "tokensIn": "Percentage of the collateral price paid by the liquidator to the lending pool"
                }
              },
              "LoanRepaid(uint256,address,uint256,address,uint256)": {
                "params": {
                  "amountPaid": "Amount of the loan paid back",
                  "borrower": "Account address of the borrower",
                  "loanID": "ID of loan from which collateral was withdrawn",
                  "payer": "Account address of the payer",
                  "totalOwed": "Total amount of the loan to be repaid"
                }
              }
            },
            "kind": "dev",
            "methods": {
              "escrowRepay(uint256,uint256)": {
                "details": "If the Escrow's balance of the borrowed token is less than the amount to repay, transfer tokens from the sender's wallet.Only the owner of the Escrow can call this. If someone else wants to make a payment, they should call the loan manager directly.",
                "params": {
                  "amount": "The amount being repaid.",
                  "loanID": "The id of the loan being used."
                }
              },
              "getLiquidationReward(uint256)": {
                "params": {
                  "loanID": "The loan ID to get the info."
                },
                "returns": {
                  "inCollateral_": "The value the liquidator will receive denoted in collateral tokens.",
                  "inLending_": "The value the liquidator will receive denoted in lending tokens."
                }
              },
              "liquidateLoan(uint256)": {
                "params": {
                  "loanID": "The ID of the loan to be liquidated"
                }
              },
              "repayLoan(uint256,uint256)": {
                "params": {
                  "amount": "The amount of tokens to pay back to the loan",
                  "loanID": "The ID of the loan the payment is for"
                }
              }
            },
            "version": 1
          },
          "userdoc": {
            "events": {
              "LoanLiquidated(uint256,address,address,uint256,uint256)": {
                "notice": "This event is emitted when a loan has been successfully liquidated"
              },
              "LoanRepaid(uint256,address,uint256,address,uint256)": {
                "notice": "This event is emitted when a loan has been successfully repaid"
              }
            },
            "kind": "user",
            "methods": {
              "escrowRepay(uint256,uint256)": {
                "notice": "Repay this Escrow's loan."
              },
              "getLiquidationReward(uint256)": {
                "notice": "It gets the current liquidation reward for a given loan."
              },
              "liquidateLoan(uint256)": {
                "notice": "Liquidate a loan if it is expired or under collateralized"
              },
              "repayLoan(uint256,uint256)": {
                "notice": "Make a payment to a loan"
              }
            },
            "version": 1
          },
          "storageLayout": {
            "storage": [],
            "types": null
          }
        },
        {
          "address": "0x28E2Ce61Ec8dEd7f7bC9CBa02a33573f7dd9f5F5",
          "abi": [
            {
              "anonymous": false,
              "inputs": [
                {
                  "indexed": true,
                  "internalType": "uint256",
                  "name": "loanID",
                  "type": "uint256"
                },
                {
                  "indexed": true,
                  "internalType": "address",
                  "name": "borrower",
                  "type": "address"
                },
                {
                  "indexed": false,
                  "internalType": "address",
                  "name": "liquidator",
                  "type": "address"
                },
                {
                  "indexed": false,
                  "internalType": "uint256",
                  "name": "reward",
                  "type": "uint256"
                },
                {
                  "indexed": false,
                  "internalType": "uint256",
                  "name": "tokensIn",
                  "type": "uint256"
                }
              ],
              "name": "LoanLiquidated",
              "type": "event"
            },
            {
              "anonymous": false,
              "inputs": [
                {
                  "indexed": true,
                  "internalType": "uint256",
                  "name": "loanID",
                  "type": "uint256"
                },
                {
                  "indexed": true,
                  "internalType": "address",
                  "name": "borrower",
                  "type": "address"
                },
                {
                  "indexed": false,
                  "internalType": "uint256",
                  "name": "amountPaid",
                  "type": "uint256"
                },
                {
                  "indexed": false,
                  "internalType": "address",
                  "name": "payer",
                  "type": "address"
                },
                {
                  "indexed": false,
                  "internalType": "uint256",
                  "name": "totalOwed",
                  "type": "uint256"
                }
              ],
              "name": "LoanRepaid",
              "type": "event"
            },
            {
              "inputs": [
                {
                  "internalType": "uint256",
                  "name": "loanID",
                  "type": "uint256"
                },
                {
                  "internalType": "uint256",
                  "name": "amount",
                  "type": "uint256"
                }
              ],
              "name": "escrowRepay",
              "outputs": [],
              "stateMutability": "nonpayable",
              "type": "function"
            },
            {
              "inputs": [
                {
                  "internalType": "uint256",
                  "name": "loanID",
                  "type": "uint256"
                }
              ],
              "name": "getLiquidationReward",
              "outputs": [
                {
                  "internalType": "uint256",
                  "name": "inLending_",
                  "type": "uint256"
                },
                {
                  "internalType": "uint256",
                  "name": "inCollateral_",
                  "type": "uint256"
                }
              ],
              "stateMutability": "view",
              "type": "function"
            },
            {
              "inputs": [
                {
                  "internalType": "uint256",
                  "name": "loanID",
                  "type": "uint256"
                }
              ],
              "name": "liquidateLoan",
              "outputs": [],
              "stateMutability": "nonpayable",
              "type": "function"
            },
            {
              "inputs": [
                {
                  "internalType": "uint256",
                  "name": "loanID",
                  "type": "uint256"
                },
                {
                  "internalType": "uint256",
                  "name": "amount",
                  "type": "uint256"
                }
              ],
              "name": "repayLoan",
              "outputs": [],
              "stateMutability": "nonpayable",
              "type": "function"
            }
          ],
          "artifactName": "RepayFacet",
          "transactionHash": "0x9bb6ed95cafb2cabe8e6ba16a7a301d849e43215e14b90241632191de6f23df4",
          "receipt": {
            "to": null,
            "from": "0xAFe87013dc96edE1E116a288D80FcaA0eFFE5fe5",
            "contractAddress": "0x28E2Ce61Ec8dEd7f7bC9CBa02a33573f7dd9f5F5",
            "transactionIndex": 0,
            "gasUsed": "1757520",
            "logsBloom": "0x00000000000000000000000000000000000000000000000000000000000000000000000000000000000000000000000000000000000000000000000000000000000000000000000000000000000000000000000000000000000000000000000000000000000000000000000000000000000000000000000000000000000000000000000000000000000000000000000000000000000000000000000000000000000000000000000000000000000000000000000000000000000000000000000000000000000000000000000000000000000000000000000000000000000000000000000000000000000000000000000000000000000000000000000000000000",
            "blockHash": "0xf56922a6944840f350477d7431a8f2148417641af4a62f6bc382ec1cdf4130d1",
            "transactionHash": "0x9bb6ed95cafb2cabe8e6ba16a7a301d849e43215e14b90241632191de6f23df4",
            "logs": [],
            "blockNumber": 25347871,
            "cumulativeGasUsed": "1757520",
            "status": 1,
            "byzantium": true
          },
          "args": [],
          "solcInputHash": "7646e63ef89d3687a032672685314b8f",
          "metadata": "{\"compiler\":{\"version\":\"0.8.3+commit.8d00100c\"},\"language\":\"Solidity\",\"output\":{\"abi\":[{\"anonymous\":false,\"inputs\":[{\"indexed\":true,\"internalType\":\"uint256\",\"name\":\"loanID\",\"type\":\"uint256\"},{\"indexed\":true,\"internalType\":\"address\",\"name\":\"borrower\",\"type\":\"address\"},{\"indexed\":false,\"internalType\":\"address\",\"name\":\"liquidator\",\"type\":\"address\"},{\"indexed\":false,\"internalType\":\"uint256\",\"name\":\"reward\",\"type\":\"uint256\"},{\"indexed\":false,\"internalType\":\"uint256\",\"name\":\"tokensIn\",\"type\":\"uint256\"}],\"name\":\"LoanLiquidated\",\"type\":\"event\"},{\"anonymous\":false,\"inputs\":[{\"indexed\":true,\"internalType\":\"uint256\",\"name\":\"loanID\",\"type\":\"uint256\"},{\"indexed\":true,\"internalType\":\"address\",\"name\":\"borrower\",\"type\":\"address\"},{\"indexed\":false,\"internalType\":\"uint256\",\"name\":\"amountPaid\",\"type\":\"uint256\"},{\"indexed\":false,\"internalType\":\"address\",\"name\":\"payer\",\"type\":\"address\"},{\"indexed\":false,\"internalType\":\"uint256\",\"name\":\"totalOwed\",\"type\":\"uint256\"}],\"name\":\"LoanRepaid\",\"type\":\"event\"},{\"inputs\":[{\"internalType\":\"uint256\",\"name\":\"loanID\",\"type\":\"uint256\"},{\"internalType\":\"uint256\",\"name\":\"amount\",\"type\":\"uint256\"}],\"name\":\"escrowRepay\",\"outputs\":[],\"stateMutability\":\"nonpayable\",\"type\":\"function\"},{\"inputs\":[{\"internalType\":\"uint256\",\"name\":\"loanID\",\"type\":\"uint256\"}],\"name\":\"getLiquidationReward\",\"outputs\":[{\"internalType\":\"uint256\",\"name\":\"inLending_\",\"type\":\"uint256\"},{\"internalType\":\"uint256\",\"name\":\"inCollateral_\",\"type\":\"uint256\"}],\"stateMutability\":\"view\",\"type\":\"function\"},{\"inputs\":[{\"internalType\":\"uint256\",\"name\":\"loanID\",\"type\":\"uint256\"}],\"name\":\"liquidateLoan\",\"outputs\":[],\"stateMutability\":\"nonpayable\",\"type\":\"function\"},{\"inputs\":[{\"internalType\":\"uint256\",\"name\":\"loanID\",\"type\":\"uint256\"},{\"internalType\":\"uint256\",\"name\":\"amount\",\"type\":\"uint256\"}],\"name\":\"repayLoan\",\"outputs\":[],\"stateMutability\":\"nonpayable\",\"type\":\"function\"}],\"devdoc\":{\"events\":{\"LoanLiquidated(uint256,address,address,uint256,uint256)\":{\"params\":{\"borrower\":\"Account address of the borrower\",\"liquidator\":\"Account address of the liquidator\",\"loanID\":\"ID of loan from which collateral was withdrawn\",\"reward\":\"Value in lending token paid out to liquidator\",\"tokensIn\":\"Percentage of the collateral price paid by the liquidator to the lending pool\"}},\"LoanRepaid(uint256,address,uint256,address,uint256)\":{\"params\":{\"amountPaid\":\"Amount of the loan paid back\",\"borrower\":\"Account address of the borrower\",\"loanID\":\"ID of loan from which collateral was withdrawn\",\"payer\":\"Account address of the payer\",\"totalOwed\":\"Total amount of the loan to be repaid\"}}},\"kind\":\"dev\",\"methods\":{\"escrowRepay(uint256,uint256)\":{\"details\":\"If the Escrow's balance of the borrowed token is less than the amount to repay, transfer tokens from the sender's wallet.Only the owner of the Escrow can call this. If someone else wants to make a payment, they should call the loan manager directly.\",\"params\":{\"amount\":\"The amount being repaid.\",\"loanID\":\"The id of the loan being used.\"}},\"getLiquidationReward(uint256)\":{\"params\":{\"loanID\":\"The loan ID to get the info.\"},\"returns\":{\"inCollateral_\":\"The value the liquidator will receive denoted in collateral tokens.\",\"inLending_\":\"The value the liquidator will receive denoted in lending tokens.\"}},\"liquidateLoan(uint256)\":{\"params\":{\"loanID\":\"The ID of the loan to be liquidated\"}},\"repayLoan(uint256,uint256)\":{\"params\":{\"amount\":\"The amount of tokens to pay back to the loan\",\"loanID\":\"The ID of the loan the payment is for\"}}},\"version\":1},\"userdoc\":{\"events\":{\"LoanLiquidated(uint256,address,address,uint256,uint256)\":{\"notice\":\"This event is emitted when a loan has been successfully liquidated\"},\"LoanRepaid(uint256,address,uint256,address,uint256)\":{\"notice\":\"This event is emitted when a loan has been successfully repaid\"}},\"kind\":\"user\",\"methods\":{\"escrowRepay(uint256,uint256)\":{\"notice\":\"Repay this Escrow's loan.\"},\"getLiquidationReward(uint256)\":{\"notice\":\"It gets the current liquidation reward for a given loan.\"},\"liquidateLoan(uint256)\":{\"notice\":\"Liquidate a loan if it is expired or under collateralized\"},\"repayLoan(uint256,uint256)\":{\"notice\":\"Make a payment to a loan\"}},\"version\":1}},\"settings\":{\"compilationTarget\":{\"contracts/market/RepayFacet.sol\":\"RepayFacet\"},\"evmVersion\":\"istanbul\",\"libraries\":{},\"metadata\":{\"bytecodeHash\":\"ipfs\",\"useLiteralContent\":true},\"optimizer\":{\"enabled\":true,\"runs\":200},\"remappings\":[]},\"sources\":{\"@chainlink/contracts/src/v0.8/interfaces/AggregatorInterface.sol\":{\"content\":\"// SPDX-License-Identifier: MIT\\npragma solidity ^0.8.0;\\n\\ninterface AggregatorInterface {\\n  function latestAnswer()\\n    external\\n    view\\n    returns (\\n      int256\\n    );\\n  \\n  function latestTimestamp()\\n    external\\n    view\\n    returns (\\n      uint256\\n    );\\n\\n  function latestRound()\\n    external\\n    view\\n    returns (\\n      uint256\\n    );\\n\\n  function getAnswer(\\n    uint256 roundId\\n  )\\n    external\\n    view\\n    returns (\\n      int256\\n    );\\n\\n  function getTimestamp(\\n    uint256 roundId\\n  )\\n    external\\n    view\\n    returns (\\n      uint256\\n    );\\n\\n  event AnswerUpdated(\\n    int256 indexed current,\\n    uint256 indexed roundId,\\n    uint256 updatedAt\\n  );\\n\\n  event NewRound(\\n    uint256 indexed roundId,\\n    address indexed startedBy,\\n    uint256 startedAt\\n  );\\n}\\n\",\"keccak256\":\"0x1a5dc81544a6479f64437a8aca22c869769dd54ee3522c7ef5ebae0d329a28f0\",\"license\":\"MIT\"},\"@chainlink/contracts/src/v0.8/interfaces/AggregatorV2V3Interface.sol\":{\"content\":\"// SPDX-License-Identifier: MIT\\npragma solidity ^0.8.0;\\n\\nimport \\\"./AggregatorInterface.sol\\\";\\nimport \\\"./AggregatorV3Interface.sol\\\";\\n\\ninterface AggregatorV2V3Interface is AggregatorInterface, AggregatorV3Interface\\n{\\n}\\n\",\"keccak256\":\"0xe8f8d98b515366730824d24269c7267eee7f0288cf737db8659acbb0c751eb53\",\"license\":\"MIT\"},\"@chainlink/contracts/src/v0.8/interfaces/AggregatorV3Interface.sol\":{\"content\":\"// SPDX-License-Identifier: MIT\\npragma solidity ^0.8.0;\\n\\ninterface AggregatorV3Interface {\\n\\n  function decimals()\\n    external\\n    view\\n    returns (\\n      uint8\\n    );\\n\\n  function description()\\n    external\\n    view\\n    returns (\\n      string memory\\n    );\\n\\n  function version()\\n    external\\n    view\\n    returns (\\n      uint256\\n    );\\n\\n  // getRoundData and latestRoundData should both raise \\\"No data present\\\"\\n  // if they do not have data to report, instead of returning unset values\\n  // which could be misinterpreted as actual reported values.\\n  function getRoundData(\\n    uint80 _roundId\\n  )\\n    external\\n    view\\n    returns (\\n      uint80 roundId,\\n      int256 answer,\\n      uint256 startedAt,\\n      uint256 updatedAt,\\n      uint80 answeredInRound\\n    );\\n\\n  function latestRoundData()\\n    external\\n    view\\n    returns (\\n      uint80 roundId,\\n      int256 answer,\\n      uint256 startedAt,\\n      uint256 updatedAt,\\n      uint80 answeredInRound\\n    );\\n\\n}\\n\",\"keccak256\":\"0xe6f5ac8c47f3b9b6135051efb9216f9ba5b312a6ecc20209b4f66a780443c328\",\"license\":\"MIT\"},\"@openzeppelin/contracts-upgradeable/access/AccessControlUpgradeable.sol\":{\"content\":\"// SPDX-License-Identifier: MIT\\n\\npragma solidity ^0.8.0;\\n\\nimport \\\"../utils/ContextUpgradeable.sol\\\";\\nimport \\\"../utils/StringsUpgradeable.sol\\\";\\nimport \\\"../utils/introspection/ERC165Upgradeable.sol\\\";\\nimport \\\"../proxy/utils/Initializable.sol\\\";\\n\\n/**\\n * @dev External interface of AccessControl declared to support ERC165 detection.\\n */\\ninterface IAccessControlUpgradeable {\\n    function hasRole(bytes32 role, address account) external view returns (bool);\\n    function getRoleAdmin(bytes32 role) external view returns (bytes32);\\n    function grantRole(bytes32 role, address account) external;\\n    function revokeRole(bytes32 role, address account) external;\\n    function renounceRole(bytes32 role, address account) external;\\n}\\n\\n/**\\n * @dev Contract module that allows children to implement role-based access\\n * control mechanisms. This is a lightweight version that doesn't allow enumerating role\\n * members except through off-chain means by accessing the contract event logs. Some\\n * applications may benefit from on-chain enumerability, for those cases see\\n * {AccessControlEnumerable}.\\n *\\n * Roles are referred to by their `bytes32` identifier. These should be exposed\\n * in the external API and be unique. The best way to achieve this is by\\n * using `public constant` hash digests:\\n *\\n * ```\\n * bytes32 public constant MY_ROLE = keccak256(\\\"MY_ROLE\\\");\\n * ```\\n *\\n * Roles can be used to represent a set of permissions. To restrict access to a\\n * function call, use {hasRole}:\\n *\\n * ```\\n * function foo() public {\\n *     require(hasRole(MY_ROLE, msg.sender));\\n *     ...\\n * }\\n * ```\\n *\\n * Roles can be granted and revoked dynamically via the {grantRole} and\\n * {revokeRole} functions. Each role has an associated admin role, and only\\n * accounts that have a role's admin role can call {grantRole} and {revokeRole}.\\n *\\n * By default, the admin role for all roles is `DEFAULT_ADMIN_ROLE`, which means\\n * that only accounts with this role will be able to grant or revoke other\\n * roles. More complex role relationships can be created by using\\n * {_setRoleAdmin}.\\n *\\n * WARNING: The `DEFAULT_ADMIN_ROLE` is also its own admin: it has permission to\\n * grant and revoke this role. Extra precautions should be taken to secure\\n * accounts that have been granted it.\\n */\\nabstract contract AccessControlUpgradeable is Initializable, ContextUpgradeable, IAccessControlUpgradeable, ERC165Upgradeable {\\n    function __AccessControl_init() internal initializer {\\n        __Context_init_unchained();\\n        __ERC165_init_unchained();\\n        __AccessControl_init_unchained();\\n    }\\n\\n    function __AccessControl_init_unchained() internal initializer {\\n    }\\n    struct RoleData {\\n        mapping (address => bool) members;\\n        bytes32 adminRole;\\n    }\\n\\n    mapping (bytes32 => RoleData) private _roles;\\n\\n    bytes32 public constant DEFAULT_ADMIN_ROLE = 0x00;\\n\\n    /**\\n     * @dev Emitted when `newAdminRole` is set as ``role``'s admin role, replacing `previousAdminRole`\\n     *\\n     * `DEFAULT_ADMIN_ROLE` is the starting admin for all roles, despite\\n     * {RoleAdminChanged} not being emitted signaling this.\\n     *\\n     * _Available since v3.1._\\n     */\\n    event RoleAdminChanged(bytes32 indexed role, bytes32 indexed previousAdminRole, bytes32 indexed newAdminRole);\\n\\n    /**\\n     * @dev Emitted when `account` is granted `role`.\\n     *\\n     * `sender` is the account that originated the contract call, an admin role\\n     * bearer except when using {_setupRole}.\\n     */\\n    event RoleGranted(bytes32 indexed role, address indexed account, address indexed sender);\\n\\n    /**\\n     * @dev Emitted when `account` is revoked `role`.\\n     *\\n     * `sender` is the account that originated the contract call:\\n     *   - if using `revokeRole`, it is the admin role bearer\\n     *   - if using `renounceRole`, it is the role bearer (i.e. `account`)\\n     */\\n    event RoleRevoked(bytes32 indexed role, address indexed account, address indexed sender);\\n\\n    /**\\n     * @dev Modifier that checks that an account has a specific role. Reverts\\n     * with a standardized message including the required role.\\n     *\\n     * The format of the revert reason is given by the following regular expression:\\n     *\\n     *  /^AccessControl: account (0x[0-9a-f]{20}) is missing role (0x[0-9a-f]{32})$/\\n     *\\n     * _Available since v4.1._\\n     */\\n    modifier onlyRole(bytes32 role) {\\n        _checkRole(role, _msgSender());\\n        _;\\n    }\\n\\n    /**\\n     * @dev See {IERC165-supportsInterface}.\\n     */\\n    function supportsInterface(bytes4 interfaceId) public view virtual override returns (bool) {\\n        return interfaceId == type(IAccessControlUpgradeable).interfaceId\\n            || super.supportsInterface(interfaceId);\\n    }\\n\\n    /**\\n     * @dev Returns `true` if `account` has been granted `role`.\\n     */\\n    function hasRole(bytes32 role, address account) public view override returns (bool) {\\n        return _roles[role].members[account];\\n    }\\n\\n    /**\\n     * @dev Revert with a standard message if `account` is missing `role`.\\n     *\\n     * The format of the revert reason is given by the following regular expression:\\n     *\\n     *  /^AccessControl: account (0x[0-9a-f]{20}) is missing role (0x[0-9a-f]{32})$/\\n     */\\n    function _checkRole(bytes32 role, address account) internal view {\\n        if(!hasRole(role, account)) {\\n            revert(string(abi.encodePacked(\\n                \\\"AccessControl: account \\\",\\n                StringsUpgradeable.toHexString(uint160(account), 20),\\n                \\\" is missing role \\\",\\n                StringsUpgradeable.toHexString(uint256(role), 32)\\n            )));\\n        }\\n    }\\n\\n    /**\\n     * @dev Returns the admin role that controls `role`. See {grantRole} and\\n     * {revokeRole}.\\n     *\\n     * To change a role's admin, use {_setRoleAdmin}.\\n     */\\n    function getRoleAdmin(bytes32 role) public view override returns (bytes32) {\\n        return _roles[role].adminRole;\\n    }\\n\\n    /**\\n     * @dev Grants `role` to `account`.\\n     *\\n     * If `account` had not been already granted `role`, emits a {RoleGranted}\\n     * event.\\n     *\\n     * Requirements:\\n     *\\n     * - the caller must have ``role``'s admin role.\\n     */\\n    function grantRole(bytes32 role, address account) public virtual override onlyRole(getRoleAdmin(role)) {\\n        _grantRole(role, account);\\n    }\\n\\n    /**\\n     * @dev Revokes `role` from `account`.\\n     *\\n     * If `account` had been granted `role`, emits a {RoleRevoked} event.\\n     *\\n     * Requirements:\\n     *\\n     * - the caller must have ``role``'s admin role.\\n     */\\n    function revokeRole(bytes32 role, address account) public virtual override onlyRole(getRoleAdmin(role)) {\\n        _revokeRole(role, account);\\n    }\\n\\n    /**\\n     * @dev Revokes `role` from the calling account.\\n     *\\n     * Roles are often managed via {grantRole} and {revokeRole}: this function's\\n     * purpose is to provide a mechanism for accounts to lose their privileges\\n     * if they are compromised (such as when a trusted device is misplaced).\\n     *\\n     * If the calling account had been granted `role`, emits a {RoleRevoked}\\n     * event.\\n     *\\n     * Requirements:\\n     *\\n     * - the caller must be `account`.\\n     */\\n    function renounceRole(bytes32 role, address account) public virtual override {\\n        require(account == _msgSender(), \\\"AccessControl: can only renounce roles for self\\\");\\n\\n        _revokeRole(role, account);\\n    }\\n\\n    /**\\n     * @dev Grants `role` to `account`.\\n     *\\n     * If `account` had not been already granted `role`, emits a {RoleGranted}\\n     * event. Note that unlike {grantRole}, this function doesn't perform any\\n     * checks on the calling account.\\n     *\\n     * [WARNING]\\n     * ====\\n     * This function should only be called from the constructor when setting\\n     * up the initial roles for the system.\\n     *\\n     * Using this function in any other way is effectively circumventing the admin\\n     * system imposed by {AccessControl}.\\n     * ====\\n     */\\n    function _setupRole(bytes32 role, address account) internal virtual {\\n        _grantRole(role, account);\\n    }\\n\\n    /**\\n     * @dev Sets `adminRole` as ``role``'s admin role.\\n     *\\n     * Emits a {RoleAdminChanged} event.\\n     */\\n    function _setRoleAdmin(bytes32 role, bytes32 adminRole) internal virtual {\\n        emit RoleAdminChanged(role, getRoleAdmin(role), adminRole);\\n        _roles[role].adminRole = adminRole;\\n    }\\n\\n    function _grantRole(bytes32 role, address account) private {\\n        if (!hasRole(role, account)) {\\n            _roles[role].members[account] = true;\\n            emit RoleGranted(role, account, _msgSender());\\n        }\\n    }\\n\\n    function _revokeRole(bytes32 role, address account) private {\\n        if (hasRole(role, account)) {\\n            _roles[role].members[account] = false;\\n            emit RoleRevoked(role, account, _msgSender());\\n        }\\n    }\\n    uint256[49] private __gap;\\n}\\n\",\"keccak256\":\"0x719f71989e630280a6902f857ef2b038d761ef2d0d51611f9da463be6c7c4be5\",\"license\":\"MIT\"},\"@openzeppelin/contracts-upgradeable/proxy/utils/Initializable.sol\":{\"content\":\"// SPDX-License-Identifier: MIT\\n\\n// solhint-disable-next-line compiler-version\\npragma solidity ^0.8.0;\\n\\n/**\\n * @dev This is a base contract to aid in writing upgradeable contracts, or any kind of contract that will be deployed\\n * behind a proxy. Since a proxied contract can't have a constructor, it's common to move constructor logic to an\\n * external initializer function, usually called `initialize`. It then becomes necessary to protect this initializer\\n * function so it can only be called once. The {initializer} modifier provided by this contract will have this effect.\\n *\\n * TIP: To avoid leaving the proxy in an uninitialized state, the initializer function should be called as early as\\n * possible by providing the encoded function call as the `_data` argument to {ERC1967Proxy-constructor}.\\n *\\n * CAUTION: When used with inheritance, manual care must be taken to not invoke a parent initializer twice, or to ensure\\n * that all initializers are idempotent. This is not verified automatically as constructors are by Solidity.\\n */\\nabstract contract Initializable {\\n\\n    /**\\n     * @dev Indicates that the contract has been initialized.\\n     */\\n    bool private _initialized;\\n\\n    /**\\n     * @dev Indicates that the contract is in the process of being initialized.\\n     */\\n    bool private _initializing;\\n\\n    /**\\n     * @dev Modifier to protect an initializer function from being invoked twice.\\n     */\\n    modifier initializer() {\\n        require(_initializing || !_initialized, \\\"Initializable: contract is already initialized\\\");\\n\\n        bool isTopLevelCall = !_initializing;\\n        if (isTopLevelCall) {\\n            _initializing = true;\\n            _initialized = true;\\n        }\\n\\n        _;\\n\\n        if (isTopLevelCall) {\\n            _initializing = false;\\n        }\\n    }\\n}\\n\",\"keccak256\":\"0x67d2f282a9678e58e878a0b774041ba7a01e2740a262aea97a3f681339914713\",\"license\":\"MIT\"},\"@openzeppelin/contracts-upgradeable/token/ERC20/ERC20Upgradeable.sol\":{\"content\":\"// SPDX-License-Identifier: MIT\\n\\npragma solidity ^0.8.0;\\n\\nimport \\\"./IERC20Upgradeable.sol\\\";\\nimport \\\"./extensions/IERC20MetadataUpgradeable.sol\\\";\\nimport \\\"../../utils/ContextUpgradeable.sol\\\";\\nimport \\\"../../proxy/utils/Initializable.sol\\\";\\n\\n/**\\n * @dev Implementation of the {IERC20} interface.\\n *\\n * This implementation is agnostic to the way tokens are created. This means\\n * that a supply mechanism has to be added in a derived contract using {_mint}.\\n * For a generic mechanism see {ERC20PresetMinterPauser}.\\n *\\n * TIP: For a detailed writeup see our guide\\n * https://forum.zeppelin.solutions/t/how-to-implement-erc20-supply-mechanisms/226[How\\n * to implement supply mechanisms].\\n *\\n * We have followed general OpenZeppelin guidelines: functions revert instead\\n * of returning `false` on failure. This behavior is nonetheless conventional\\n * and does not conflict with the expectations of ERC20 applications.\\n *\\n * Additionally, an {Approval} event is emitted on calls to {transferFrom}.\\n * This allows applications to reconstruct the allowance for all accounts just\\n * by listening to said events. Other implementations of the EIP may not emit\\n * these events, as it isn't required by the specification.\\n *\\n * Finally, the non-standard {decreaseAllowance} and {increaseAllowance}\\n * functions have been added to mitigate the well-known issues around setting\\n * allowances. See {IERC20-approve}.\\n */\\ncontract ERC20Upgradeable is Initializable, ContextUpgradeable, IERC20Upgradeable, IERC20MetadataUpgradeable {\\n    mapping (address => uint256) private _balances;\\n\\n    mapping (address => mapping (address => uint256)) private _allowances;\\n\\n    uint256 private _totalSupply;\\n\\n    string private _name;\\n    string private _symbol;\\n\\n    /**\\n     * @dev Sets the values for {name} and {symbol}.\\n     *\\n     * The defaut value of {decimals} is 18. To select a different value for\\n     * {decimals} you should overload it.\\n     *\\n     * All two of these values are immutable: they can only be set once during\\n     * construction.\\n     */\\n    function __ERC20_init(string memory name_, string memory symbol_) internal initializer {\\n        __Context_init_unchained();\\n        __ERC20_init_unchained(name_, symbol_);\\n    }\\n\\n    function __ERC20_init_unchained(string memory name_, string memory symbol_) internal initializer {\\n        _name = name_;\\n        _symbol = symbol_;\\n    }\\n\\n    /**\\n     * @dev Returns the name of the token.\\n     */\\n    function name() public view virtual override returns (string memory) {\\n        return _name;\\n    }\\n\\n    /**\\n     * @dev Returns the symbol of the token, usually a shorter version of the\\n     * name.\\n     */\\n    function symbol() public view virtual override returns (string memory) {\\n        return _symbol;\\n    }\\n\\n    /**\\n     * @dev Returns the number of decimals used to get its user representation.\\n     * For example, if `decimals` equals `2`, a balance of `505` tokens should\\n     * be displayed to a user as `5,05` (`505 / 10 ** 2`).\\n     *\\n     * Tokens usually opt for a value of 18, imitating the relationship between\\n     * Ether and Wei. This is the value {ERC20} uses, unless this function is\\n     * overridden;\\n     *\\n     * NOTE: This information is only used for _display_ purposes: it in\\n     * no way affects any of the arithmetic of the contract, including\\n     * {IERC20-balanceOf} and {IERC20-transfer}.\\n     */\\n    function decimals() public view virtual override returns (uint8) {\\n        return 18;\\n    }\\n\\n    /**\\n     * @dev See {IERC20-totalSupply}.\\n     */\\n    function totalSupply() public view virtual override returns (uint256) {\\n        return _totalSupply;\\n    }\\n\\n    /**\\n     * @dev See {IERC20-balanceOf}.\\n     */\\n    function balanceOf(address account) public view virtual override returns (uint256) {\\n        return _balances[account];\\n    }\\n\\n    /**\\n     * @dev See {IERC20-transfer}.\\n     *\\n     * Requirements:\\n     *\\n     * - `recipient` cannot be the zero address.\\n     * - the caller must have a balance of at least `amount`.\\n     */\\n    function transfer(address recipient, uint256 amount) public virtual override returns (bool) {\\n        _transfer(_msgSender(), recipient, amount);\\n        return true;\\n    }\\n\\n    /**\\n     * @dev See {IERC20-allowance}.\\n     */\\n    function allowance(address owner, address spender) public view virtual override returns (uint256) {\\n        return _allowances[owner][spender];\\n    }\\n\\n    /**\\n     * @dev See {IERC20-approve}.\\n     *\\n     * Requirements:\\n     *\\n     * - `spender` cannot be the zero address.\\n     */\\n    function approve(address spender, uint256 amount) public virtual override returns (bool) {\\n        _approve(_msgSender(), spender, amount);\\n        return true;\\n    }\\n\\n    /**\\n     * @dev See {IERC20-transferFrom}.\\n     *\\n     * Emits an {Approval} event indicating the updated allowance. This is not\\n     * required by the EIP. See the note at the beginning of {ERC20}.\\n     *\\n     * Requirements:\\n     *\\n     * - `sender` and `recipient` cannot be the zero address.\\n     * - `sender` must have a balance of at least `amount`.\\n     * - the caller must have allowance for ``sender``'s tokens of at least\\n     * `amount`.\\n     */\\n    function transferFrom(address sender, address recipient, uint256 amount) public virtual override returns (bool) {\\n        _transfer(sender, recipient, amount);\\n\\n        uint256 currentAllowance = _allowances[sender][_msgSender()];\\n        require(currentAllowance >= amount, \\\"ERC20: transfer amount exceeds allowance\\\");\\n        _approve(sender, _msgSender(), currentAllowance - amount);\\n\\n        return true;\\n    }\\n\\n    /**\\n     * @dev Atomically increases the allowance granted to `spender` by the caller.\\n     *\\n     * This is an alternative to {approve} that can be used as a mitigation for\\n     * problems described in {IERC20-approve}.\\n     *\\n     * Emits an {Approval} event indicating the updated allowance.\\n     *\\n     * Requirements:\\n     *\\n     * - `spender` cannot be the zero address.\\n     */\\n    function increaseAllowance(address spender, uint256 addedValue) public virtual returns (bool) {\\n        _approve(_msgSender(), spender, _allowances[_msgSender()][spender] + addedValue);\\n        return true;\\n    }\\n\\n    /**\\n     * @dev Atomically decreases the allowance granted to `spender` by the caller.\\n     *\\n     * This is an alternative to {approve} that can be used as a mitigation for\\n     * problems described in {IERC20-approve}.\\n     *\\n     * Emits an {Approval} event indicating the updated allowance.\\n     *\\n     * Requirements:\\n     *\\n     * - `spender` cannot be the zero address.\\n     * - `spender` must have allowance for the caller of at least\\n     * `subtractedValue`.\\n     */\\n    function decreaseAllowance(address spender, uint256 subtractedValue) public virtual returns (bool) {\\n        uint256 currentAllowance = _allowances[_msgSender()][spender];\\n        require(currentAllowance >= subtractedValue, \\\"ERC20: decreased allowance below zero\\\");\\n        _approve(_msgSender(), spender, currentAllowance - subtractedValue);\\n\\n        return true;\\n    }\\n\\n    /**\\n     * @dev Moves tokens `amount` from `sender` to `recipient`.\\n     *\\n     * This is internal function is equivalent to {transfer}, and can be used to\\n     * e.g. implement automatic token fees, slashing mechanisms, etc.\\n     *\\n     * Emits a {Transfer} event.\\n     *\\n     * Requirements:\\n     *\\n     * - `sender` cannot be the zero address.\\n     * - `recipient` cannot be the zero address.\\n     * - `sender` must have a balance of at least `amount`.\\n     */\\n    function _transfer(address sender, address recipient, uint256 amount) internal virtual {\\n        require(sender != address(0), \\\"ERC20: transfer from the zero address\\\");\\n        require(recipient != address(0), \\\"ERC20: transfer to the zero address\\\");\\n\\n        _beforeTokenTransfer(sender, recipient, amount);\\n\\n        uint256 senderBalance = _balances[sender];\\n        require(senderBalance >= amount, \\\"ERC20: transfer amount exceeds balance\\\");\\n        _balances[sender] = senderBalance - amount;\\n        _balances[recipient] += amount;\\n\\n        emit Transfer(sender, recipient, amount);\\n    }\\n\\n    /** @dev Creates `amount` tokens and assigns them to `account`, increasing\\n     * the total supply.\\n     *\\n     * Emits a {Transfer} event with `from` set to the zero address.\\n     *\\n     * Requirements:\\n     *\\n     * - `to` cannot be the zero address.\\n     */\\n    function _mint(address account, uint256 amount) internal virtual {\\n        require(account != address(0), \\\"ERC20: mint to the zero address\\\");\\n\\n        _beforeTokenTransfer(address(0), account, amount);\\n\\n        _totalSupply += amount;\\n        _balances[account] += amount;\\n        emit Transfer(address(0), account, amount);\\n    }\\n\\n    /**\\n     * @dev Destroys `amount` tokens from `account`, reducing the\\n     * total supply.\\n     *\\n     * Emits a {Transfer} event with `to` set to the zero address.\\n     *\\n     * Requirements:\\n     *\\n     * - `account` cannot be the zero address.\\n     * - `account` must have at least `amount` tokens.\\n     */\\n    function _burn(address account, uint256 amount) internal virtual {\\n        require(account != address(0), \\\"ERC20: burn from the zero address\\\");\\n\\n        _beforeTokenTransfer(account, address(0), amount);\\n\\n        uint256 accountBalance = _balances[account];\\n        require(accountBalance >= amount, \\\"ERC20: burn amount exceeds balance\\\");\\n        _balances[account] = accountBalance - amount;\\n        _totalSupply -= amount;\\n\\n        emit Transfer(account, address(0), amount);\\n    }\\n\\n    /**\\n     * @dev Sets `amount` as the allowance of `spender` over the `owner` s tokens.\\n     *\\n     * This internal function is equivalent to `approve`, and can be used to\\n     * e.g. set automatic allowances for certain subsystems, etc.\\n     *\\n     * Emits an {Approval} event.\\n     *\\n     * Requirements:\\n     *\\n     * - `owner` cannot be the zero address.\\n     * - `spender` cannot be the zero address.\\n     */\\n    function _approve(address owner, address spender, uint256 amount) internal virtual {\\n        require(owner != address(0), \\\"ERC20: approve from the zero address\\\");\\n        require(spender != address(0), \\\"ERC20: approve to the zero address\\\");\\n\\n        _allowances[owner][spender] = amount;\\n        emit Approval(owner, spender, amount);\\n    }\\n\\n    /**\\n     * @dev Hook that is called before any transfer of tokens. This includes\\n     * minting and burning.\\n     *\\n     * Calling conditions:\\n     *\\n     * - when `from` and `to` are both non-zero, `amount` of ``from``'s tokens\\n     * will be to transferred to `to`.\\n     * - when `from` is zero, `amount` tokens will be minted for `to`.\\n     * - when `to` is zero, `amount` of ``from``'s tokens will be burned.\\n     * - `from` and `to` are never both zero.\\n     *\\n     * To learn more about hooks, head to xref:ROOT:extending-contracts.adoc#using-hooks[Using Hooks].\\n     */\\n    function _beforeTokenTransfer(address from, address to, uint256 amount) internal virtual { }\\n    uint256[45] private __gap;\\n}\\n\",\"keccak256\":\"0x9c2d7425f3343ea340d6ea67e9d90109d4d846bb013c2572096ec88c9e74946b\",\"license\":\"MIT\"},\"@openzeppelin/contracts-upgradeable/token/ERC20/IERC20Upgradeable.sol\":{\"content\":\"// SPDX-License-Identifier: MIT\\n\\npragma solidity ^0.8.0;\\n\\n/**\\n * @dev Interface of the ERC20 standard as defined in the EIP.\\n */\\ninterface IERC20Upgradeable {\\n    /**\\n     * @dev Returns the amount of tokens in existence.\\n     */\\n    function totalSupply() external view returns (uint256);\\n\\n    /**\\n     * @dev Returns the amount of tokens owned by `account`.\\n     */\\n    function balanceOf(address account) external view returns (uint256);\\n\\n    /**\\n     * @dev Moves `amount` tokens from the caller's account to `recipient`.\\n     *\\n     * Returns a boolean value indicating whether the operation succeeded.\\n     *\\n     * Emits a {Transfer} event.\\n     */\\n    function transfer(address recipient, uint256 amount) external returns (bool);\\n\\n    /**\\n     * @dev Returns the remaining number of tokens that `spender` will be\\n     * allowed to spend on behalf of `owner` through {transferFrom}. This is\\n     * zero by default.\\n     *\\n     * This value changes when {approve} or {transferFrom} are called.\\n     */\\n    function allowance(address owner, address spender) external view returns (uint256);\\n\\n    /**\\n     * @dev Sets `amount` as the allowance of `spender` over the caller's tokens.\\n     *\\n     * Returns a boolean value indicating whether the operation succeeded.\\n     *\\n     * IMPORTANT: Beware that changing an allowance with this method brings the risk\\n     * that someone may use both the old and the new allowance by unfortunate\\n     * transaction ordering. One possible solution to mitigate this race\\n     * condition is to first reduce the spender's allowance to 0 and set the\\n     * desired value afterwards:\\n     * https://github.com/ethereum/EIPs/issues/20#issuecomment-263524729\\n     *\\n     * Emits an {Approval} event.\\n     */\\n    function approve(address spender, uint256 amount) external returns (bool);\\n\\n    /**\\n     * @dev Moves `amount` tokens from `sender` to `recipient` using the\\n     * allowance mechanism. `amount` is then deducted from the caller's\\n     * allowance.\\n     *\\n     * Returns a boolean value indicating whether the operation succeeded.\\n     *\\n     * Emits a {Transfer} event.\\n     */\\n    function transferFrom(address sender, address recipient, uint256 amount) external returns (bool);\\n\\n    /**\\n     * @dev Emitted when `value` tokens are moved from one account (`from`) to\\n     * another (`to`).\\n     *\\n     * Note that `value` may be zero.\\n     */\\n    event Transfer(address indexed from, address indexed to, uint256 value);\\n\\n    /**\\n     * @dev Emitted when the allowance of a `spender` for an `owner` is set by\\n     * a call to {approve}. `value` is the new allowance.\\n     */\\n    event Approval(address indexed owner, address indexed spender, uint256 value);\\n}\\n\",\"keccak256\":\"0x8d4a0f2b5b760b5e2c19ed3c108d83897a4dfd5bfed97a93867918df19191e5e\",\"license\":\"MIT\"},\"@openzeppelin/contracts-upgradeable/token/ERC20/extensions/IERC20MetadataUpgradeable.sol\":{\"content\":\"// SPDX-License-Identifier: MIT\\n\\npragma solidity ^0.8.0;\\n\\nimport \\\"../IERC20Upgradeable.sol\\\";\\n\\n/**\\n * @dev Interface for the optional metadata functions from the ERC20 standard.\\n *\\n * _Available since v4.1._\\n */\\ninterface IERC20MetadataUpgradeable is IERC20Upgradeable {\\n    /**\\n     * @dev Returns the name of the token.\\n     */\\n    function name() external view returns (string memory);\\n\\n    /**\\n     * @dev Returns the symbol of the token.\\n     */\\n    function symbol() external view returns (string memory);\\n\\n    /**\\n     * @dev Returns the decimals places of the token.\\n     */\\n    function decimals() external view returns (uint8);\\n}\\n\",\"keccak256\":\"0x6795c369a4eefa78468e38966f7851fbc2dda5e5b9ccd3fa2b45970e2e4d3abd\",\"license\":\"MIT\"},\"@openzeppelin/contracts-upgradeable/token/ERC721/ERC721Upgradeable.sol\":{\"content\":\"// SPDX-License-Identifier: MIT\\n\\npragma solidity ^0.8.0;\\n\\nimport \\\"./IERC721Upgradeable.sol\\\";\\nimport \\\"./IERC721ReceiverUpgradeable.sol\\\";\\nimport \\\"./extensions/IERC721MetadataUpgradeable.sol\\\";\\nimport \\\"../../utils/AddressUpgradeable.sol\\\";\\nimport \\\"../../utils/ContextUpgradeable.sol\\\";\\nimport \\\"../../utils/StringsUpgradeable.sol\\\";\\nimport \\\"../../utils/introspection/ERC165Upgradeable.sol\\\";\\nimport \\\"../../proxy/utils/Initializable.sol\\\";\\n\\n/**\\n * @dev Implementation of https://eips.ethereum.org/EIPS/eip-721[ERC721] Non-Fungible Token Standard, including\\n * the Metadata extension, but not including the Enumerable extension, which is available separately as\\n * {ERC721Enumerable}.\\n */\\ncontract ERC721Upgradeable is Initializable, ContextUpgradeable, ERC165Upgradeable, IERC721Upgradeable, IERC721MetadataUpgradeable {\\n    using AddressUpgradeable for address;\\n    using StringsUpgradeable for uint256;\\n\\n    // Token name\\n    string private _name;\\n\\n    // Token symbol\\n    string private _symbol;\\n\\n    // Mapping from token ID to owner address\\n    mapping (uint256 => address) private _owners;\\n\\n    // Mapping owner address to token count\\n    mapping (address => uint256) private _balances;\\n\\n    // Mapping from token ID to approved address\\n    mapping (uint256 => address) private _tokenApprovals;\\n\\n    // Mapping from owner to operator approvals\\n    mapping (address => mapping (address => bool)) private _operatorApprovals;\\n\\n    /**\\n     * @dev Initializes the contract by setting a `name` and a `symbol` to the token collection.\\n     */\\n    function __ERC721_init(string memory name_, string memory symbol_) internal initializer {\\n        __Context_init_unchained();\\n        __ERC165_init_unchained();\\n        __ERC721_init_unchained(name_, symbol_);\\n    }\\n\\n    function __ERC721_init_unchained(string memory name_, string memory symbol_) internal initializer {\\n        _name = name_;\\n        _symbol = symbol_;\\n    }\\n\\n    /**\\n     * @dev See {IERC165-supportsInterface}.\\n     */\\n    function supportsInterface(bytes4 interfaceId) public view virtual override(ERC165Upgradeable, IERC165Upgradeable) returns (bool) {\\n        return interfaceId == type(IERC721Upgradeable).interfaceId\\n            || interfaceId == type(IERC721MetadataUpgradeable).interfaceId\\n            || super.supportsInterface(interfaceId);\\n    }\\n\\n    /**\\n     * @dev See {IERC721-balanceOf}.\\n     */\\n    function balanceOf(address owner) public view virtual override returns (uint256) {\\n        require(owner != address(0), \\\"ERC721: balance query for the zero address\\\");\\n        return _balances[owner];\\n    }\\n\\n    /**\\n     * @dev See {IERC721-ownerOf}.\\n     */\\n    function ownerOf(uint256 tokenId) public view virtual override returns (address) {\\n        address owner = _owners[tokenId];\\n        require(owner != address(0), \\\"ERC721: owner query for nonexistent token\\\");\\n        return owner;\\n    }\\n\\n    /**\\n     * @dev See {IERC721Metadata-name}.\\n     */\\n    function name() public view virtual override returns (string memory) {\\n        return _name;\\n    }\\n\\n    /**\\n     * @dev See {IERC721Metadata-symbol}.\\n     */\\n    function symbol() public view virtual override returns (string memory) {\\n        return _symbol;\\n    }\\n\\n    /**\\n     * @dev See {IERC721Metadata-tokenURI}.\\n     */\\n    function tokenURI(uint256 tokenId) public view virtual override returns (string memory) {\\n        require(_exists(tokenId), \\\"ERC721Metadata: URI query for nonexistent token\\\");\\n\\n        string memory baseURI = _baseURI();\\n        return bytes(baseURI).length > 0\\n            ? string(abi.encodePacked(baseURI, tokenId.toString()))\\n            : '';\\n    }\\n\\n    /**\\n     * @dev Base URI for computing {tokenURI}. Empty by default, can be overriden\\n     * in child contracts.\\n     */\\n    function _baseURI() internal view virtual returns (string memory) {\\n        return \\\"\\\";\\n    }\\n\\n    /**\\n     * @dev See {IERC721-approve}.\\n     */\\n    function approve(address to, uint256 tokenId) public virtual override {\\n        address owner = ERC721Upgradeable.ownerOf(tokenId);\\n        require(to != owner, \\\"ERC721: approval to current owner\\\");\\n\\n        require(_msgSender() == owner || isApprovedForAll(owner, _msgSender()),\\n            \\\"ERC721: approve caller is not owner nor approved for all\\\"\\n        );\\n\\n        _approve(to, tokenId);\\n    }\\n\\n    /**\\n     * @dev See {IERC721-getApproved}.\\n     */\\n    function getApproved(uint256 tokenId) public view virtual override returns (address) {\\n        require(_exists(tokenId), \\\"ERC721: approved query for nonexistent token\\\");\\n\\n        return _tokenApprovals[tokenId];\\n    }\\n\\n    /**\\n     * @dev See {IERC721-setApprovalForAll}.\\n     */\\n    function setApprovalForAll(address operator, bool approved) public virtual override {\\n        require(operator != _msgSender(), \\\"ERC721: approve to caller\\\");\\n\\n        _operatorApprovals[_msgSender()][operator] = approved;\\n        emit ApprovalForAll(_msgSender(), operator, approved);\\n    }\\n\\n    /**\\n     * @dev See {IERC721-isApprovedForAll}.\\n     */\\n    function isApprovedForAll(address owner, address operator) public view virtual override returns (bool) {\\n        return _operatorApprovals[owner][operator];\\n    }\\n\\n    /**\\n     * @dev See {IERC721-transferFrom}.\\n     */\\n    function transferFrom(address from, address to, uint256 tokenId) public virtual override {\\n        //solhint-disable-next-line max-line-length\\n        require(_isApprovedOrOwner(_msgSender(), tokenId), \\\"ERC721: transfer caller is not owner nor approved\\\");\\n\\n        _transfer(from, to, tokenId);\\n    }\\n\\n    /**\\n     * @dev See {IERC721-safeTransferFrom}.\\n     */\\n    function safeTransferFrom(address from, address to, uint256 tokenId) public virtual override {\\n        safeTransferFrom(from, to, tokenId, \\\"\\\");\\n    }\\n\\n    /**\\n     * @dev See {IERC721-safeTransferFrom}.\\n     */\\n    function safeTransferFrom(address from, address to, uint256 tokenId, bytes memory _data) public virtual override {\\n        require(_isApprovedOrOwner(_msgSender(), tokenId), \\\"ERC721: transfer caller is not owner nor approved\\\");\\n        _safeTransfer(from, to, tokenId, _data);\\n    }\\n\\n    /**\\n     * @dev Safely transfers `tokenId` token from `from` to `to`, checking first that contract recipients\\n     * are aware of the ERC721 protocol to prevent tokens from being forever locked.\\n     *\\n     * `_data` is additional data, it has no specified format and it is sent in call to `to`.\\n     *\\n     * This internal function is equivalent to {safeTransferFrom}, and can be used to e.g.\\n     * implement alternative mechanisms to perform token transfer, such as signature-based.\\n     *\\n     * Requirements:\\n     *\\n     * - `from` cannot be the zero address.\\n     * - `to` cannot be the zero address.\\n     * - `tokenId` token must exist and be owned by `from`.\\n     * - If `to` refers to a smart contract, it must implement {IERC721Receiver-onERC721Received}, which is called upon a safe transfer.\\n     *\\n     * Emits a {Transfer} event.\\n     */\\n    function _safeTransfer(address from, address to, uint256 tokenId, bytes memory _data) internal virtual {\\n        _transfer(from, to, tokenId);\\n        require(_checkOnERC721Received(from, to, tokenId, _data), \\\"ERC721: transfer to non ERC721Receiver implementer\\\");\\n    }\\n\\n    /**\\n     * @dev Returns whether `tokenId` exists.\\n     *\\n     * Tokens can be managed by their owner or approved accounts via {approve} or {setApprovalForAll}.\\n     *\\n     * Tokens start existing when they are minted (`_mint`),\\n     * and stop existing when they are burned (`_burn`).\\n     */\\n    function _exists(uint256 tokenId) internal view virtual returns (bool) {\\n        return _owners[tokenId] != address(0);\\n    }\\n\\n    /**\\n     * @dev Returns whether `spender` is allowed to manage `tokenId`.\\n     *\\n     * Requirements:\\n     *\\n     * - `tokenId` must exist.\\n     */\\n    function _isApprovedOrOwner(address spender, uint256 tokenId) internal view virtual returns (bool) {\\n        require(_exists(tokenId), \\\"ERC721: operator query for nonexistent token\\\");\\n        address owner = ERC721Upgradeable.ownerOf(tokenId);\\n        return (spender == owner || getApproved(tokenId) == spender || isApprovedForAll(owner, spender));\\n    }\\n\\n    /**\\n     * @dev Safely mints `tokenId` and transfers it to `to`.\\n     *\\n     * Requirements:\\n     *\\n     * - `tokenId` must not exist.\\n     * - If `to` refers to a smart contract, it must implement {IERC721Receiver-onERC721Received}, which is called upon a safe transfer.\\n     *\\n     * Emits a {Transfer} event.\\n     */\\n    function _safeMint(address to, uint256 tokenId) internal virtual {\\n        _safeMint(to, tokenId, \\\"\\\");\\n    }\\n\\n    /**\\n     * @dev Same as {xref-ERC721-_safeMint-address-uint256-}[`_safeMint`], with an additional `data` parameter which is\\n     * forwarded in {IERC721Receiver-onERC721Received} to contract recipients.\\n     */\\n    function _safeMint(address to, uint256 tokenId, bytes memory _data) internal virtual {\\n        _mint(to, tokenId);\\n        require(_checkOnERC721Received(address(0), to, tokenId, _data), \\\"ERC721: transfer to non ERC721Receiver implementer\\\");\\n    }\\n\\n    /**\\n     * @dev Mints `tokenId` and transfers it to `to`.\\n     *\\n     * WARNING: Usage of this method is discouraged, use {_safeMint} whenever possible\\n     *\\n     * Requirements:\\n     *\\n     * - `tokenId` must not exist.\\n     * - `to` cannot be the zero address.\\n     *\\n     * Emits a {Transfer} event.\\n     */\\n    function _mint(address to, uint256 tokenId) internal virtual {\\n        require(to != address(0), \\\"ERC721: mint to the zero address\\\");\\n        require(!_exists(tokenId), \\\"ERC721: token already minted\\\");\\n\\n        _beforeTokenTransfer(address(0), to, tokenId);\\n\\n        _balances[to] += 1;\\n        _owners[tokenId] = to;\\n\\n        emit Transfer(address(0), to, tokenId);\\n    }\\n\\n    /**\\n     * @dev Destroys `tokenId`.\\n     * The approval is cleared when the token is burned.\\n     *\\n     * Requirements:\\n     *\\n     * - `tokenId` must exist.\\n     *\\n     * Emits a {Transfer} event.\\n     */\\n    function _burn(uint256 tokenId) internal virtual {\\n        address owner = ERC721Upgradeable.ownerOf(tokenId);\\n\\n        _beforeTokenTransfer(owner, address(0), tokenId);\\n\\n        // Clear approvals\\n        _approve(address(0), tokenId);\\n\\n        _balances[owner] -= 1;\\n        delete _owners[tokenId];\\n\\n        emit Transfer(owner, address(0), tokenId);\\n    }\\n\\n    /**\\n     * @dev Transfers `tokenId` from `from` to `to`.\\n     *  As opposed to {transferFrom}, this imposes no restrictions on msg.sender.\\n     *\\n     * Requirements:\\n     *\\n     * - `to` cannot be the zero address.\\n     * - `tokenId` token must be owned by `from`.\\n     *\\n     * Emits a {Transfer} event.\\n     */\\n    function _transfer(address from, address to, uint256 tokenId) internal virtual {\\n        require(ERC721Upgradeable.ownerOf(tokenId) == from, \\\"ERC721: transfer of token that is not own\\\");\\n        require(to != address(0), \\\"ERC721: transfer to the zero address\\\");\\n\\n        _beforeTokenTransfer(from, to, tokenId);\\n\\n        // Clear approvals from the previous owner\\n        _approve(address(0), tokenId);\\n\\n        _balances[from] -= 1;\\n        _balances[to] += 1;\\n        _owners[tokenId] = to;\\n\\n        emit Transfer(from, to, tokenId);\\n    }\\n\\n    /**\\n     * @dev Approve `to` to operate on `tokenId`\\n     *\\n     * Emits a {Approval} event.\\n     */\\n    function _approve(address to, uint256 tokenId) internal virtual {\\n        _tokenApprovals[tokenId] = to;\\n        emit Approval(ERC721Upgradeable.ownerOf(tokenId), to, tokenId);\\n    }\\n\\n    /**\\n     * @dev Internal function to invoke {IERC721Receiver-onERC721Received} on a target address.\\n     * The call is not executed if the target address is not a contract.\\n     *\\n     * @param from address representing the previous owner of the given token ID\\n     * @param to target address that will receive the tokens\\n     * @param tokenId uint256 ID of the token to be transferred\\n     * @param _data bytes optional data to send along with the call\\n     * @return bool whether the call correctly returned the expected magic value\\n     */\\n    function _checkOnERC721Received(address from, address to, uint256 tokenId, bytes memory _data)\\n        private returns (bool)\\n    {\\n        if (to.isContract()) {\\n            try IERC721ReceiverUpgradeable(to).onERC721Received(_msgSender(), from, tokenId, _data) returns (bytes4 retval) {\\n                return retval == IERC721ReceiverUpgradeable(to).onERC721Received.selector;\\n            } catch (bytes memory reason) {\\n                if (reason.length == 0) {\\n                    revert(\\\"ERC721: transfer to non ERC721Receiver implementer\\\");\\n                } else {\\n                    // solhint-disable-next-line no-inline-assembly\\n                    assembly {\\n                        revert(add(32, reason), mload(reason))\\n                    }\\n                }\\n            }\\n        } else {\\n            return true;\\n        }\\n    }\\n\\n    /**\\n     * @dev Hook that is called before any token transfer. This includes minting\\n     * and burning.\\n     *\\n     * Calling conditions:\\n     *\\n     * - When `from` and `to` are both non-zero, ``from``'s `tokenId` will be\\n     * transferred to `to`.\\n     * - When `from` is zero, `tokenId` will be minted for `to`.\\n     * - When `to` is zero, ``from``'s `tokenId` will be burned.\\n     * - `from` cannot be the zero address.\\n     * - `to` cannot be the zero address.\\n     *\\n     * To learn more about hooks, head to xref:ROOT:extending-contracts.adoc#using-hooks[Using Hooks].\\n     */\\n    function _beforeTokenTransfer(address from, address to, uint256 tokenId) internal virtual { }\\n    uint256[44] private __gap;\\n}\\n\",\"keccak256\":\"0x2ab92ebd3f4d4d85f30b39bd678ec3489e00aadd0a432c7a0ffa98adc2799004\",\"license\":\"MIT\"},\"@openzeppelin/contracts-upgradeable/token/ERC721/IERC721ReceiverUpgradeable.sol\":{\"content\":\"// SPDX-License-Identifier: MIT\\n\\npragma solidity ^0.8.0;\\n\\n/**\\n * @title ERC721 token receiver interface\\n * @dev Interface for any contract that wants to support safeTransfers\\n * from ERC721 asset contracts.\\n */\\ninterface IERC721ReceiverUpgradeable {\\n    /**\\n     * @dev Whenever an {IERC721} `tokenId` token is transferred to this contract via {IERC721-safeTransferFrom}\\n     * by `operator` from `from`, this function is called.\\n     *\\n     * It must return its Solidity selector to confirm the token transfer.\\n     * If any other value is returned or the interface is not implemented by the recipient, the transfer will be reverted.\\n     *\\n     * The selector can be obtained in Solidity with `IERC721.onERC721Received.selector`.\\n     */\\n    function onERC721Received(address operator, address from, uint256 tokenId, bytes calldata data) external returns (bytes4);\\n}\\n\",\"keccak256\":\"0x33620beff0655c5e728a72fff76fb6ce2dc32fc6b61eb8e435b12ed1adf31525\",\"license\":\"MIT\"},\"@openzeppelin/contracts-upgradeable/token/ERC721/IERC721Upgradeable.sol\":{\"content\":\"// SPDX-License-Identifier: MIT\\n\\npragma solidity ^0.8.0;\\n\\nimport \\\"../../utils/introspection/IERC165Upgradeable.sol\\\";\\n\\n/**\\n * @dev Required interface of an ERC721 compliant contract.\\n */\\ninterface IERC721Upgradeable is IERC165Upgradeable {\\n    /**\\n     * @dev Emitted when `tokenId` token is transferred from `from` to `to`.\\n     */\\n    event Transfer(address indexed from, address indexed to, uint256 indexed tokenId);\\n\\n    /**\\n     * @dev Emitted when `owner` enables `approved` to manage the `tokenId` token.\\n     */\\n    event Approval(address indexed owner, address indexed approved, uint256 indexed tokenId);\\n\\n    /**\\n     * @dev Emitted when `owner` enables or disables (`approved`) `operator` to manage all of its assets.\\n     */\\n    event ApprovalForAll(address indexed owner, address indexed operator, bool approved);\\n\\n    /**\\n     * @dev Returns the number of tokens in ``owner``'s account.\\n     */\\n    function balanceOf(address owner) external view returns (uint256 balance);\\n\\n    /**\\n     * @dev Returns the owner of the `tokenId` token.\\n     *\\n     * Requirements:\\n     *\\n     * - `tokenId` must exist.\\n     */\\n    function ownerOf(uint256 tokenId) external view returns (address owner);\\n\\n    /**\\n     * @dev Safely transfers `tokenId` token from `from` to `to`, checking first that contract recipients\\n     * are aware of the ERC721 protocol to prevent tokens from being forever locked.\\n     *\\n     * Requirements:\\n     *\\n     * - `from` cannot be the zero address.\\n     * - `to` cannot be the zero address.\\n     * - `tokenId` token must exist and be owned by `from`.\\n     * - If the caller is not `from`, it must be have been allowed to move this token by either {approve} or {setApprovalForAll}.\\n     * - If `to` refers to a smart contract, it must implement {IERC721Receiver-onERC721Received}, which is called upon a safe transfer.\\n     *\\n     * Emits a {Transfer} event.\\n     */\\n    function safeTransferFrom(address from, address to, uint256 tokenId) external;\\n\\n    /**\\n     * @dev Transfers `tokenId` token from `from` to `to`.\\n     *\\n     * WARNING: Usage of this method is discouraged, use {safeTransferFrom} whenever possible.\\n     *\\n     * Requirements:\\n     *\\n     * - `from` cannot be the zero address.\\n     * - `to` cannot be the zero address.\\n     * - `tokenId` token must be owned by `from`.\\n     * - If the caller is not `from`, it must be approved to move this token by either {approve} or {setApprovalForAll}.\\n     *\\n     * Emits a {Transfer} event.\\n     */\\n    function transferFrom(address from, address to, uint256 tokenId) external;\\n\\n    /**\\n     * @dev Gives permission to `to` to transfer `tokenId` token to another account.\\n     * The approval is cleared when the token is transferred.\\n     *\\n     * Only a single account can be approved at a time, so approving the zero address clears previous approvals.\\n     *\\n     * Requirements:\\n     *\\n     * - The caller must own the token or be an approved operator.\\n     * - `tokenId` must exist.\\n     *\\n     * Emits an {Approval} event.\\n     */\\n    function approve(address to, uint256 tokenId) external;\\n\\n    /**\\n     * @dev Returns the account approved for `tokenId` token.\\n     *\\n     * Requirements:\\n     *\\n     * - `tokenId` must exist.\\n     */\\n    function getApproved(uint256 tokenId) external view returns (address operator);\\n\\n    /**\\n     * @dev Approve or remove `operator` as an operator for the caller.\\n     * Operators can call {transferFrom} or {safeTransferFrom} for any token owned by the caller.\\n     *\\n     * Requirements:\\n     *\\n     * - The `operator` cannot be the caller.\\n     *\\n     * Emits an {ApprovalForAll} event.\\n     */\\n    function setApprovalForAll(address operator, bool _approved) external;\\n\\n    /**\\n     * @dev Returns if the `operator` is allowed to manage all of the assets of `owner`.\\n     *\\n     * See {setApprovalForAll}\\n     */\\n    function isApprovedForAll(address owner, address operator) external view returns (bool);\\n\\n    /**\\n      * @dev Safely transfers `tokenId` token from `from` to `to`.\\n      *\\n      * Requirements:\\n      *\\n      * - `from` cannot be the zero address.\\n      * - `to` cannot be the zero address.\\n      * - `tokenId` token must exist and be owned by `from`.\\n      * - If the caller is not `from`, it must be approved to move this token by either {approve} or {setApprovalForAll}.\\n      * - If `to` refers to a smart contract, it must implement {IERC721Receiver-onERC721Received}, which is called upon a safe transfer.\\n      *\\n      * Emits a {Transfer} event.\\n      */\\n    function safeTransferFrom(address from, address to, uint256 tokenId, bytes calldata data) external;\\n}\\n\",\"keccak256\":\"0x9ef7f2874f4a491f253a81eb4c5b9a7b6467a287aa0c32ac3dd684260a3cd7ad\",\"license\":\"MIT\"},\"@openzeppelin/contracts-upgradeable/token/ERC721/extensions/IERC721MetadataUpgradeable.sol\":{\"content\":\"// SPDX-License-Identifier: MIT\\n\\npragma solidity ^0.8.0;\\n\\nimport \\\"../IERC721Upgradeable.sol\\\";\\n\\n/**\\n * @title ERC-721 Non-Fungible Token Standard, optional metadata extension\\n * @dev See https://eips.ethereum.org/EIPS/eip-721\\n */\\ninterface IERC721MetadataUpgradeable is IERC721Upgradeable {\\n\\n    /**\\n     * @dev Returns the token collection name.\\n     */\\n    function name() external view returns (string memory);\\n\\n    /**\\n     * @dev Returns the token collection symbol.\\n     */\\n    function symbol() external view returns (string memory);\\n\\n    /**\\n     * @dev Returns the Uniform Resource Identifier (URI) for `tokenId` token.\\n     */\\n    function tokenURI(uint256 tokenId) external view returns (string memory);\\n}\\n\",\"keccak256\":\"0x64581a092c059ab0cb74f473545e379b8a88f36a6a57f805515ef8c6ae061847\",\"license\":\"MIT\"},\"@openzeppelin/contracts-upgradeable/utils/AddressUpgradeable.sol\":{\"content\":\"// SPDX-License-Identifier: MIT\\n\\npragma solidity ^0.8.0;\\n\\n/**\\n * @dev Collection of functions related to the address type\\n */\\nlibrary AddressUpgradeable {\\n    /**\\n     * @dev Returns true if `account` is a contract.\\n     *\\n     * [IMPORTANT]\\n     * ====\\n     * It is unsafe to assume that an address for which this function returns\\n     * false is an externally-owned account (EOA) and not a contract.\\n     *\\n     * Among others, `isContract` will return false for the following\\n     * types of addresses:\\n     *\\n     *  - an externally-owned account\\n     *  - a contract in construction\\n     *  - an address where a contract will be created\\n     *  - an address where a contract lived, but was destroyed\\n     * ====\\n     */\\n    function isContract(address account) internal view returns (bool) {\\n        // This method relies on extcodesize, which returns 0 for contracts in\\n        // construction, since the code is only stored at the end of the\\n        // constructor execution.\\n\\n        uint256 size;\\n        // solhint-disable-next-line no-inline-assembly\\n        assembly { size := extcodesize(account) }\\n        return size > 0;\\n    }\\n\\n    /**\\n     * @dev Replacement for Solidity's `transfer`: sends `amount` wei to\\n     * `recipient`, forwarding all available gas and reverting on errors.\\n     *\\n     * https://eips.ethereum.org/EIPS/eip-1884[EIP1884] increases the gas cost\\n     * of certain opcodes, possibly making contracts go over the 2300 gas limit\\n     * imposed by `transfer`, making them unable to receive funds via\\n     * `transfer`. {sendValue} removes this limitation.\\n     *\\n     * https://diligence.consensys.net/posts/2019/09/stop-using-soliditys-transfer-now/[Learn more].\\n     *\\n     * IMPORTANT: because control is transferred to `recipient`, care must be\\n     * taken to not create reentrancy vulnerabilities. Consider using\\n     * {ReentrancyGuard} or the\\n     * https://solidity.readthedocs.io/en/v0.5.11/security-considerations.html#use-the-checks-effects-interactions-pattern[checks-effects-interactions pattern].\\n     */\\n    function sendValue(address payable recipient, uint256 amount) internal {\\n        require(address(this).balance >= amount, \\\"Address: insufficient balance\\\");\\n\\n        // solhint-disable-next-line avoid-low-level-calls, avoid-call-value\\n        (bool success, ) = recipient.call{ value: amount }(\\\"\\\");\\n        require(success, \\\"Address: unable to send value, recipient may have reverted\\\");\\n    }\\n\\n    /**\\n     * @dev Performs a Solidity function call using a low level `call`. A\\n     * plain`call` is an unsafe replacement for a function call: use this\\n     * function instead.\\n     *\\n     * If `target` reverts with a revert reason, it is bubbled up by this\\n     * function (like regular Solidity function calls).\\n     *\\n     * Returns the raw returned data. To convert to the expected return value,\\n     * use https://solidity.readthedocs.io/en/latest/units-and-global-variables.html?highlight=abi.decode#abi-encoding-and-decoding-functions[`abi.decode`].\\n     *\\n     * Requirements:\\n     *\\n     * - `target` must be a contract.\\n     * - calling `target` with `data` must not revert.\\n     *\\n     * _Available since v3.1._\\n     */\\n    function functionCall(address target, bytes memory data) internal returns (bytes memory) {\\n      return functionCall(target, data, \\\"Address: low-level call failed\\\");\\n    }\\n\\n    /**\\n     * @dev Same as {xref-Address-functionCall-address-bytes-}[`functionCall`], but with\\n     * `errorMessage` as a fallback revert reason when `target` reverts.\\n     *\\n     * _Available since v3.1._\\n     */\\n    function functionCall(address target, bytes memory data, string memory errorMessage) internal returns (bytes memory) {\\n        return functionCallWithValue(target, data, 0, errorMessage);\\n    }\\n\\n    /**\\n     * @dev Same as {xref-Address-functionCall-address-bytes-}[`functionCall`],\\n     * but also transferring `value` wei to `target`.\\n     *\\n     * Requirements:\\n     *\\n     * - the calling contract must have an ETH balance of at least `value`.\\n     * - the called Solidity function must be `payable`.\\n     *\\n     * _Available since v3.1._\\n     */\\n    function functionCallWithValue(address target, bytes memory data, uint256 value) internal returns (bytes memory) {\\n        return functionCallWithValue(target, data, value, \\\"Address: low-level call with value failed\\\");\\n    }\\n\\n    /**\\n     * @dev Same as {xref-Address-functionCallWithValue-address-bytes-uint256-}[`functionCallWithValue`], but\\n     * with `errorMessage` as a fallback revert reason when `target` reverts.\\n     *\\n     * _Available since v3.1._\\n     */\\n    function functionCallWithValue(address target, bytes memory data, uint256 value, string memory errorMessage) internal returns (bytes memory) {\\n        require(address(this).balance >= value, \\\"Address: insufficient balance for call\\\");\\n        require(isContract(target), \\\"Address: call to non-contract\\\");\\n\\n        // solhint-disable-next-line avoid-low-level-calls\\n        (bool success, bytes memory returndata) = target.call{ value: value }(data);\\n        return _verifyCallResult(success, returndata, errorMessage);\\n    }\\n\\n    /**\\n     * @dev Same as {xref-Address-functionCall-address-bytes-}[`functionCall`],\\n     * but performing a static call.\\n     *\\n     * _Available since v3.3._\\n     */\\n    function functionStaticCall(address target, bytes memory data) internal view returns (bytes memory) {\\n        return functionStaticCall(target, data, \\\"Address: low-level static call failed\\\");\\n    }\\n\\n    /**\\n     * @dev Same as {xref-Address-functionCall-address-bytes-string-}[`functionCall`],\\n     * but performing a static call.\\n     *\\n     * _Available since v3.3._\\n     */\\n    function functionStaticCall(address target, bytes memory data, string memory errorMessage) internal view returns (bytes memory) {\\n        require(isContract(target), \\\"Address: static call to non-contract\\\");\\n\\n        // solhint-disable-next-line avoid-low-level-calls\\n        (bool success, bytes memory returndata) = target.staticcall(data);\\n        return _verifyCallResult(success, returndata, errorMessage);\\n    }\\n\\n    function _verifyCallResult(bool success, bytes memory returndata, string memory errorMessage) private pure returns(bytes memory) {\\n        if (success) {\\n            return returndata;\\n        } else {\\n            // Look for revert reason and bubble it up if present\\n            if (returndata.length > 0) {\\n                // The easiest way to bubble the revert reason is using memory via assembly\\n\\n                // solhint-disable-next-line no-inline-assembly\\n                assembly {\\n                    let returndata_size := mload(returndata)\\n                    revert(add(32, returndata), returndata_size)\\n                }\\n            } else {\\n                revert(errorMessage);\\n            }\\n        }\\n    }\\n}\\n\",\"keccak256\":\"0x5642ae1d6b33c5c0b71a8412c6c64cbcf2468b84a002bee3e33cdb5644d25cdb\",\"license\":\"MIT\"},\"@openzeppelin/contracts-upgradeable/utils/ContextUpgradeable.sol\":{\"content\":\"// SPDX-License-Identifier: MIT\\n\\npragma solidity ^0.8.0;\\nimport \\\"../proxy/utils/Initializable.sol\\\";\\n\\n/*\\n * @dev Provides information about the current execution context, including the\\n * sender of the transaction and its data. While these are generally available\\n * via msg.sender and msg.data, they should not be accessed in such a direct\\n * manner, since when dealing with meta-transactions the account sending and\\n * paying for execution may not be the actual sender (as far as an application\\n * is concerned).\\n *\\n * This contract is only required for intermediate, library-like contracts.\\n */\\nabstract contract ContextUpgradeable is Initializable {\\n    function __Context_init() internal initializer {\\n        __Context_init_unchained();\\n    }\\n\\n    function __Context_init_unchained() internal initializer {\\n    }\\n    function _msgSender() internal view virtual returns (address) {\\n        return msg.sender;\\n    }\\n\\n    function _msgData() internal view virtual returns (bytes calldata) {\\n        this; // silence state mutability warning without generating bytecode - see https://github.com/ethereum/solidity/issues/2691\\n        return msg.data;\\n    }\\n    uint256[50] private __gap;\\n}\\n\",\"keccak256\":\"0x8e9eb503de1189f50c5f16fef327da310b11898d6b9ab3ca937df07c35233b9e\",\"license\":\"MIT\"},\"@openzeppelin/contracts-upgradeable/utils/StringsUpgradeable.sol\":{\"content\":\"// SPDX-License-Identifier: MIT\\n\\npragma solidity ^0.8.0;\\n\\n/**\\n * @dev String operations.\\n */\\nlibrary StringsUpgradeable {\\n    bytes16 private constant alphabet = \\\"0123456789abcdef\\\";\\n\\n    /**\\n     * @dev Converts a `uint256` to its ASCII `string` decimal representation.\\n     */\\n    function toString(uint256 value) internal pure returns (string memory) {\\n        // Inspired by OraclizeAPI's implementation - MIT licence\\n        // https://github.com/oraclize/ethereum-api/blob/b42146b063c7d6ee1358846c198246239e9360e8/oraclizeAPI_0.4.25.sol\\n\\n        if (value == 0) {\\n            return \\\"0\\\";\\n        }\\n        uint256 temp = value;\\n        uint256 digits;\\n        while (temp != 0) {\\n            digits++;\\n            temp /= 10;\\n        }\\n        bytes memory buffer = new bytes(digits);\\n        while (value != 0) {\\n            digits -= 1;\\n            buffer[digits] = bytes1(uint8(48 + uint256(value % 10)));\\n            value /= 10;\\n        }\\n        return string(buffer);\\n    }\\n\\n    /**\\n     * @dev Converts a `uint256` to its ASCII `string` hexadecimal representation.\\n     */\\n    function toHexString(uint256 value) internal pure returns (string memory) {\\n        if (value == 0) {\\n            return \\\"0x00\\\";\\n        }\\n        uint256 temp = value;\\n        uint256 length = 0;\\n        while (temp != 0) {\\n            length++;\\n            temp >>= 8;\\n        }\\n        return toHexString(value, length);\\n    }\\n\\n    /**\\n     * @dev Converts a `uint256` to its ASCII `string` hexadecimal representation with fixed length.\\n     */\\n    function toHexString(uint256 value, uint256 length) internal pure returns (string memory) {\\n        bytes memory buffer = new bytes(2 * length + 2);\\n        buffer[0] = \\\"0\\\";\\n        buffer[1] = \\\"x\\\";\\n        for (uint256 i = 2 * length + 1; i > 1; --i) {\\n            buffer[i] = alphabet[value & 0xf];\\n            value >>= 4;\\n        }\\n        require(value == 0, \\\"Strings: hex length insufficient\\\");\\n        return string(buffer);\\n    }\\n\\n}\\n\",\"keccak256\":\"0x6964377da5c19ade6b3e96bae0c0e82494d518af70cf12d2cdb3276f78fb3d85\",\"license\":\"MIT\"},\"@openzeppelin/contracts-upgradeable/utils/introspection/ERC165Upgradeable.sol\":{\"content\":\"// SPDX-License-Identifier: MIT\\n\\npragma solidity ^0.8.0;\\n\\nimport \\\"./IERC165Upgradeable.sol\\\";\\nimport \\\"../../proxy/utils/Initializable.sol\\\";\\n\\n/**\\n * @dev Implementation of the {IERC165} interface.\\n *\\n * Contracts that want to implement ERC165 should inherit from this contract and override {supportsInterface} to check\\n * for the additional interface id that will be supported. For example:\\n *\\n * ```solidity\\n * function supportsInterface(bytes4 interfaceId) public view virtual override returns (bool) {\\n *     return interfaceId == type(MyInterface).interfaceId || super.supportsInterface(interfaceId);\\n * }\\n * ```\\n *\\n * Alternatively, {ERC165Storage} provides an easier to use but more expensive implementation.\\n */\\nabstract contract ERC165Upgradeable is Initializable, IERC165Upgradeable {\\n    function __ERC165_init() internal initializer {\\n        __ERC165_init_unchained();\\n    }\\n\\n    function __ERC165_init_unchained() internal initializer {\\n    }\\n    /**\\n     * @dev See {IERC165-supportsInterface}.\\n     */\\n    function supportsInterface(bytes4 interfaceId) public view virtual override returns (bool) {\\n        return interfaceId == type(IERC165Upgradeable).interfaceId;\\n    }\\n    uint256[50] private __gap;\\n}\\n\",\"keccak256\":\"0x17c9c5d2d6b56527215ee7b3da6dde66b6f23f1b3d5c66cc436e753ef349a97a\",\"license\":\"MIT\"},\"@openzeppelin/contracts-upgradeable/utils/introspection/IERC165Upgradeable.sol\":{\"content\":\"// SPDX-License-Identifier: MIT\\n\\npragma solidity ^0.8.0;\\n\\n/**\\n * @dev Interface of the ERC165 standard, as defined in the\\n * https://eips.ethereum.org/EIPS/eip-165[EIP].\\n *\\n * Implementers can declare support of contract interfaces, which can then be\\n * queried by others ({ERC165Checker}).\\n *\\n * For an implementation, see {ERC165}.\\n */\\ninterface IERC165Upgradeable {\\n    /**\\n     * @dev Returns true if this contract implements the interface defined by\\n     * `interfaceId`. See the corresponding\\n     * https://eips.ethereum.org/EIPS/eip-165#how-interfaces-are-identified[EIP section]\\n     * to learn more about how these ids are created.\\n     *\\n     * This function call must use less than 30 000 gas.\\n     */\\n    function supportsInterface(bytes4 interfaceId) external view returns (bool);\\n}\\n\",\"keccak256\":\"0x1c4860acd323e34a67b3e97faab9aaa55fe8e92b1dcf08b5f47f3468d58ce75c\",\"license\":\"MIT\"},\"@openzeppelin/contracts/access/Ownable.sol\":{\"content\":\"// SPDX-License-Identifier: MIT\\n\\npragma solidity ^0.8.0;\\n\\nimport \\\"../utils/Context.sol\\\";\\n/**\\n * @dev Contract module which provides a basic access control mechanism, where\\n * there is an account (an owner) that can be granted exclusive access to\\n * specific functions.\\n *\\n * By default, the owner account will be the one that deploys the contract. This\\n * can later be changed with {transferOwnership}.\\n *\\n * This module is used through inheritance. It will make available the modifier\\n * `onlyOwner`, which can be applied to your functions to restrict their use to\\n * the owner.\\n */\\nabstract contract Ownable is Context {\\n    address private _owner;\\n\\n    event OwnershipTransferred(address indexed previousOwner, address indexed newOwner);\\n\\n    /**\\n     * @dev Initializes the contract setting the deployer as the initial owner.\\n     */\\n    constructor () {\\n        address msgSender = _msgSender();\\n        _owner = msgSender;\\n        emit OwnershipTransferred(address(0), msgSender);\\n    }\\n\\n    /**\\n     * @dev Returns the address of the current owner.\\n     */\\n    function owner() public view virtual returns (address) {\\n        return _owner;\\n    }\\n\\n    /**\\n     * @dev Throws if called by any account other than the owner.\\n     */\\n    modifier onlyOwner() {\\n        require(owner() == _msgSender(), \\\"Ownable: caller is not the owner\\\");\\n        _;\\n    }\\n\\n    /**\\n     * @dev Leaves the contract without owner. It will not be possible to call\\n     * `onlyOwner` functions anymore. Can only be called by the current owner.\\n     *\\n     * NOTE: Renouncing ownership will leave the contract without an owner,\\n     * thereby removing any functionality that is only available to the owner.\\n     */\\n    function renounceOwnership() public virtual onlyOwner {\\n        emit OwnershipTransferred(_owner, address(0));\\n        _owner = address(0);\\n    }\\n\\n    /**\\n     * @dev Transfers ownership of the contract to a new account (`newOwner`).\\n     * Can only be called by the current owner.\\n     */\\n    function transferOwnership(address newOwner) public virtual onlyOwner {\\n        require(newOwner != address(0), \\\"Ownable: new owner is the zero address\\\");\\n        emit OwnershipTransferred(_owner, newOwner);\\n        _owner = newOwner;\\n    }\\n}\\n\",\"keccak256\":\"0x1cae4f85f114ff17b90414f5da67365b1d00337abb5bce9bf944eb78a2c0673c\",\"license\":\"MIT\"},\"@openzeppelin/contracts/proxy/Clones.sol\":{\"content\":\"// SPDX-License-Identifier: MIT\\n\\npragma solidity ^0.8.0;\\n\\n/**\\n * @dev https://eips.ethereum.org/EIPS/eip-1167[EIP 1167] is a standard for\\n * deploying minimal proxy contracts, also known as \\\"clones\\\".\\n *\\n * > To simply and cheaply clone contract functionality in an immutable way, this standard specifies\\n * > a minimal bytecode implementation that delegates all calls to a known, fixed address.\\n *\\n * The library includes functions to deploy a proxy using either `create` (traditional deployment) or `create2`\\n * (salted deterministic deployment). It also includes functions to predict the addresses of clones deployed using the\\n * deterministic method.\\n *\\n * _Available since v3.4._\\n */\\nlibrary Clones {\\n    /**\\n     * @dev Deploys and returns the address of a clone that mimics the behaviour of `implementation`.\\n     *\\n     * This function uses the create opcode, which should never revert.\\n     */\\n    function clone(address implementation) internal returns (address instance) {\\n        // solhint-disable-next-line no-inline-assembly\\n        assembly {\\n            let ptr := mload(0x40)\\n            mstore(ptr, 0x3d602d80600a3d3981f3363d3d373d3d3d363d73000000000000000000000000)\\n            mstore(add(ptr, 0x14), shl(0x60, implementation))\\n            mstore(add(ptr, 0x28), 0x5af43d82803e903d91602b57fd5bf30000000000000000000000000000000000)\\n            instance := create(0, ptr, 0x37)\\n        }\\n        require(instance != address(0), \\\"ERC1167: create failed\\\");\\n    }\\n\\n    /**\\n     * @dev Deploys and returns the address of a clone that mimics the behaviour of `implementation`.\\n     *\\n     * This function uses the create2 opcode and a `salt` to deterministically deploy\\n     * the clone. Using the same `implementation` and `salt` multiple time will revert, since\\n     * the clones cannot be deployed twice at the same address.\\n     */\\n    function cloneDeterministic(address implementation, bytes32 salt) internal returns (address instance) {\\n        // solhint-disable-next-line no-inline-assembly\\n        assembly {\\n            let ptr := mload(0x40)\\n            mstore(ptr, 0x3d602d80600a3d3981f3363d3d373d3d3d363d73000000000000000000000000)\\n            mstore(add(ptr, 0x14), shl(0x60, implementation))\\n            mstore(add(ptr, 0x28), 0x5af43d82803e903d91602b57fd5bf30000000000000000000000000000000000)\\n            instance := create2(0, ptr, 0x37, salt)\\n        }\\n        require(instance != address(0), \\\"ERC1167: create2 failed\\\");\\n    }\\n\\n    /**\\n     * @dev Computes the address of a clone deployed using {Clones-cloneDeterministic}.\\n     */\\n    function predictDeterministicAddress(address implementation, bytes32 salt, address deployer) internal pure returns (address predicted) {\\n        // solhint-disable-next-line no-inline-assembly\\n        assembly {\\n            let ptr := mload(0x40)\\n            mstore(ptr, 0x3d602d80600a3d3981f3363d3d373d3d3d363d73000000000000000000000000)\\n            mstore(add(ptr, 0x14), shl(0x60, implementation))\\n            mstore(add(ptr, 0x28), 0x5af43d82803e903d91602b57fd5bf3ff00000000000000000000000000000000)\\n            mstore(add(ptr, 0x38), shl(0x60, deployer))\\n            mstore(add(ptr, 0x4c), salt)\\n            mstore(add(ptr, 0x6c), keccak256(ptr, 0x37))\\n            predicted := keccak256(add(ptr, 0x37), 0x55)\\n        }\\n    }\\n\\n    /**\\n     * @dev Computes the address of a clone deployed using {Clones-cloneDeterministic}.\\n     */\\n    function predictDeterministicAddress(address implementation, bytes32 salt) internal view returns (address predicted) {\\n        return predictDeterministicAddress(implementation, salt, address(this));\\n    }\\n}\\n\",\"keccak256\":\"0x90dec20805396efc780a82c62578626103e03278bc1f48b61bb3aba52a61617c\",\"license\":\"MIT\"},\"@openzeppelin/contracts/proxy/Proxy.sol\":{\"content\":\"// SPDX-License-Identifier: MIT\\n\\npragma solidity ^0.8.0;\\n\\n/**\\n * @dev This abstract contract provides a fallback function that delegates all calls to another contract using the EVM\\n * instruction `delegatecall`. We refer to the second contract as the _implementation_ behind the proxy, and it has to\\n * be specified by overriding the virtual {_implementation} function.\\n *\\n * Additionally, delegation to the implementation can be triggered manually through the {_fallback} function, or to a\\n * different contract through the {_delegate} function.\\n *\\n * The success and return data of the delegated call will be returned back to the caller of the proxy.\\n */\\nabstract contract Proxy {\\n    /**\\n     * @dev Delegates the current call to `implementation`.\\n     *\\n     * This function does not return to its internall call site, it will return directly to the external caller.\\n     */\\n    function _delegate(address implementation) internal virtual {\\n        // solhint-disable-next-line no-inline-assembly\\n        assembly {\\n            // Copy msg.data. We take full control of memory in this inline assembly\\n            // block because it will not return to Solidity code. We overwrite the\\n            // Solidity scratch pad at memory position 0.\\n            calldatacopy(0, 0, calldatasize())\\n\\n            // Call the implementation.\\n            // out and outsize are 0 because we don't know the size yet.\\n            let result := delegatecall(gas(), implementation, 0, calldatasize(), 0, 0)\\n\\n            // Copy the returned data.\\n            returndatacopy(0, 0, returndatasize())\\n\\n            switch result\\n            // delegatecall returns 0 on error.\\n            case 0 { revert(0, returndatasize()) }\\n            default { return(0, returndatasize()) }\\n        }\\n    }\\n\\n    /**\\n     * @dev This is a virtual function that should be overriden so it returns the address to which the fallback function\\n     * and {_fallback} should delegate.\\n     */\\n    function _implementation() internal view virtual returns (address);\\n\\n    /**\\n     * @dev Delegates the current call to the address returned by `_implementation()`.\\n     *\\n     * This function does not return to its internall call site, it will return directly to the external caller.\\n     */\\n    function _fallback() internal virtual {\\n        _beforeFallback();\\n        _delegate(_implementation());\\n    }\\n\\n    /**\\n     * @dev Fallback function that delegates calls to the address returned by `_implementation()`. Will run if no other\\n     * function in the contract matches the call data.\\n     */\\n    fallback () external payable virtual {\\n        _fallback();\\n    }\\n\\n    /**\\n     * @dev Fallback function that delegates calls to the address returned by `_implementation()`. Will run if call data\\n     * is empty.\\n     */\\n    receive () external payable virtual {\\n        _fallback();\\n    }\\n\\n    /**\\n     * @dev Hook that is called before falling back to the implementation. Can happen as part of a manual `_fallback`\\n     * call, or as part of the Solidity `fallback` or `receive` functions.\\n     *\\n     * If overriden should call `super._beforeFallback()`.\\n     */\\n    function _beforeFallback() internal virtual {\\n    }\\n}\\n\",\"keccak256\":\"0xc706395df88dc1d459f21e51c57ab8820af80d1e8c3c14933a651794d78a429f\",\"license\":\"MIT\"},\"@openzeppelin/contracts/proxy/beacon/IBeacon.sol\":{\"content\":\"// SPDX-License-Identifier: MIT\\n\\npragma solidity ^0.8.0;\\n\\n/**\\n * @dev This is the interface that {BeaconProxy} expects of its beacon.\\n */\\ninterface IBeacon {\\n    /**\\n     * @dev Must return an address that can be used as a delegate call target.\\n     *\\n     * {BeaconProxy} will check that this address is a contract.\\n     */\\n    function implementation() external view returns (address);\\n}\\n\",\"keccak256\":\"0x5615339d191e77be7e46319b67856f9355786f705b7b3c4a7237ab70c1864ab1\",\"license\":\"MIT\"},\"@openzeppelin/contracts/token/ERC20/ERC20.sol\":{\"content\":\"// SPDX-License-Identifier: MIT\\n\\npragma solidity ^0.8.0;\\n\\nimport \\\"./IERC20.sol\\\";\\nimport \\\"./extensions/IERC20Metadata.sol\\\";\\nimport \\\"../../utils/Context.sol\\\";\\n\\n/**\\n * @dev Implementation of the {IERC20} interface.\\n *\\n * This implementation is agnostic to the way tokens are created. This means\\n * that a supply mechanism has to be added in a derived contract using {_mint}.\\n * For a generic mechanism see {ERC20PresetMinterPauser}.\\n *\\n * TIP: For a detailed writeup see our guide\\n * https://forum.zeppelin.solutions/t/how-to-implement-erc20-supply-mechanisms/226[How\\n * to implement supply mechanisms].\\n *\\n * We have followed general OpenZeppelin guidelines: functions revert instead\\n * of returning `false` on failure. This behavior is nonetheless conventional\\n * and does not conflict with the expectations of ERC20 applications.\\n *\\n * Additionally, an {Approval} event is emitted on calls to {transferFrom}.\\n * This allows applications to reconstruct the allowance for all accounts just\\n * by listening to said events. Other implementations of the EIP may not emit\\n * these events, as it isn't required by the specification.\\n *\\n * Finally, the non-standard {decreaseAllowance} and {increaseAllowance}\\n * functions have been added to mitigate the well-known issues around setting\\n * allowances. See {IERC20-approve}.\\n */\\ncontract ERC20 is Context, IERC20, IERC20Metadata {\\n    mapping (address => uint256) private _balances;\\n\\n    mapping (address => mapping (address => uint256)) private _allowances;\\n\\n    uint256 private _totalSupply;\\n\\n    string private _name;\\n    string private _symbol;\\n\\n    /**\\n     * @dev Sets the values for {name} and {symbol}.\\n     *\\n     * The defaut value of {decimals} is 18. To select a different value for\\n     * {decimals} you should overload it.\\n     *\\n     * All two of these values are immutable: they can only be set once during\\n     * construction.\\n     */\\n    constructor (string memory name_, string memory symbol_) {\\n        _name = name_;\\n        _symbol = symbol_;\\n    }\\n\\n    /**\\n     * @dev Returns the name of the token.\\n     */\\n    function name() public view virtual override returns (string memory) {\\n        return _name;\\n    }\\n\\n    /**\\n     * @dev Returns the symbol of the token, usually a shorter version of the\\n     * name.\\n     */\\n    function symbol() public view virtual override returns (string memory) {\\n        return _symbol;\\n    }\\n\\n    /**\\n     * @dev Returns the number of decimals used to get its user representation.\\n     * For example, if `decimals` equals `2`, a balance of `505` tokens should\\n     * be displayed to a user as `5,05` (`505 / 10 ** 2`).\\n     *\\n     * Tokens usually opt for a value of 18, imitating the relationship between\\n     * Ether and Wei. This is the value {ERC20} uses, unless this function is\\n     * overridden;\\n     *\\n     * NOTE: This information is only used for _display_ purposes: it in\\n     * no way affects any of the arithmetic of the contract, including\\n     * {IERC20-balanceOf} and {IERC20-transfer}.\\n     */\\n    function decimals() public view virtual override returns (uint8) {\\n        return 18;\\n    }\\n\\n    /**\\n     * @dev See {IERC20-totalSupply}.\\n     */\\n    function totalSupply() public view virtual override returns (uint256) {\\n        return _totalSupply;\\n    }\\n\\n    /**\\n     * @dev See {IERC20-balanceOf}.\\n     */\\n    function balanceOf(address account) public view virtual override returns (uint256) {\\n        return _balances[account];\\n    }\\n\\n    /**\\n     * @dev See {IERC20-transfer}.\\n     *\\n     * Requirements:\\n     *\\n     * - `recipient` cannot be the zero address.\\n     * - the caller must have a balance of at least `amount`.\\n     */\\n    function transfer(address recipient, uint256 amount) public virtual override returns (bool) {\\n        _transfer(_msgSender(), recipient, amount);\\n        return true;\\n    }\\n\\n    /**\\n     * @dev See {IERC20-allowance}.\\n     */\\n    function allowance(address owner, address spender) public view virtual override returns (uint256) {\\n        return _allowances[owner][spender];\\n    }\\n\\n    /**\\n     * @dev See {IERC20-approve}.\\n     *\\n     * Requirements:\\n     *\\n     * - `spender` cannot be the zero address.\\n     */\\n    function approve(address spender, uint256 amount) public virtual override returns (bool) {\\n        _approve(_msgSender(), spender, amount);\\n        return true;\\n    }\\n\\n    /**\\n     * @dev See {IERC20-transferFrom}.\\n     *\\n     * Emits an {Approval} event indicating the updated allowance. This is not\\n     * required by the EIP. See the note at the beginning of {ERC20}.\\n     *\\n     * Requirements:\\n     *\\n     * - `sender` and `recipient` cannot be the zero address.\\n     * - `sender` must have a balance of at least `amount`.\\n     * - the caller must have allowance for ``sender``'s tokens of at least\\n     * `amount`.\\n     */\\n    function transferFrom(address sender, address recipient, uint256 amount) public virtual override returns (bool) {\\n        _transfer(sender, recipient, amount);\\n\\n        uint256 currentAllowance = _allowances[sender][_msgSender()];\\n        require(currentAllowance >= amount, \\\"ERC20: transfer amount exceeds allowance\\\");\\n        _approve(sender, _msgSender(), currentAllowance - amount);\\n\\n        return true;\\n    }\\n\\n    /**\\n     * @dev Atomically increases the allowance granted to `spender` by the caller.\\n     *\\n     * This is an alternative to {approve} that can be used as a mitigation for\\n     * problems described in {IERC20-approve}.\\n     *\\n     * Emits an {Approval} event indicating the updated allowance.\\n     *\\n     * Requirements:\\n     *\\n     * - `spender` cannot be the zero address.\\n     */\\n    function increaseAllowance(address spender, uint256 addedValue) public virtual returns (bool) {\\n        _approve(_msgSender(), spender, _allowances[_msgSender()][spender] + addedValue);\\n        return true;\\n    }\\n\\n    /**\\n     * @dev Atomically decreases the allowance granted to `spender` by the caller.\\n     *\\n     * This is an alternative to {approve} that can be used as a mitigation for\\n     * problems described in {IERC20-approve}.\\n     *\\n     * Emits an {Approval} event indicating the updated allowance.\\n     *\\n     * Requirements:\\n     *\\n     * - `spender` cannot be the zero address.\\n     * - `spender` must have allowance for the caller of at least\\n     * `subtractedValue`.\\n     */\\n    function decreaseAllowance(address spender, uint256 subtractedValue) public virtual returns (bool) {\\n        uint256 currentAllowance = _allowances[_msgSender()][spender];\\n        require(currentAllowance >= subtractedValue, \\\"ERC20: decreased allowance below zero\\\");\\n        _approve(_msgSender(), spender, currentAllowance - subtractedValue);\\n\\n        return true;\\n    }\\n\\n    /**\\n     * @dev Moves tokens `amount` from `sender` to `recipient`.\\n     *\\n     * This is internal function is equivalent to {transfer}, and can be used to\\n     * e.g. implement automatic token fees, slashing mechanisms, etc.\\n     *\\n     * Emits a {Transfer} event.\\n     *\\n     * Requirements:\\n     *\\n     * - `sender` cannot be the zero address.\\n     * - `recipient` cannot be the zero address.\\n     * - `sender` must have a balance of at least `amount`.\\n     */\\n    function _transfer(address sender, address recipient, uint256 amount) internal virtual {\\n        require(sender != address(0), \\\"ERC20: transfer from the zero address\\\");\\n        require(recipient != address(0), \\\"ERC20: transfer to the zero address\\\");\\n\\n        _beforeTokenTransfer(sender, recipient, amount);\\n\\n        uint256 senderBalance = _balances[sender];\\n        require(senderBalance >= amount, \\\"ERC20: transfer amount exceeds balance\\\");\\n        _balances[sender] = senderBalance - amount;\\n        _balances[recipient] += amount;\\n\\n        emit Transfer(sender, recipient, amount);\\n    }\\n\\n    /** @dev Creates `amount` tokens and assigns them to `account`, increasing\\n     * the total supply.\\n     *\\n     * Emits a {Transfer} event with `from` set to the zero address.\\n     *\\n     * Requirements:\\n     *\\n     * - `to` cannot be the zero address.\\n     */\\n    function _mint(address account, uint256 amount) internal virtual {\\n        require(account != address(0), \\\"ERC20: mint to the zero address\\\");\\n\\n        _beforeTokenTransfer(address(0), account, amount);\\n\\n        _totalSupply += amount;\\n        _balances[account] += amount;\\n        emit Transfer(address(0), account, amount);\\n    }\\n\\n    /**\\n     * @dev Destroys `amount` tokens from `account`, reducing the\\n     * total supply.\\n     *\\n     * Emits a {Transfer} event with `to` set to the zero address.\\n     *\\n     * Requirements:\\n     *\\n     * - `account` cannot be the zero address.\\n     * - `account` must have at least `amount` tokens.\\n     */\\n    function _burn(address account, uint256 amount) internal virtual {\\n        require(account != address(0), \\\"ERC20: burn from the zero address\\\");\\n\\n        _beforeTokenTransfer(account, address(0), amount);\\n\\n        uint256 accountBalance = _balances[account];\\n        require(accountBalance >= amount, \\\"ERC20: burn amount exceeds balance\\\");\\n        _balances[account] = accountBalance - amount;\\n        _totalSupply -= amount;\\n\\n        emit Transfer(account, address(0), amount);\\n    }\\n\\n    /**\\n     * @dev Sets `amount` as the allowance of `spender` over the `owner` s tokens.\\n     *\\n     * This internal function is equivalent to `approve`, and can be used to\\n     * e.g. set automatic allowances for certain subsystems, etc.\\n     *\\n     * Emits an {Approval} event.\\n     *\\n     * Requirements:\\n     *\\n     * - `owner` cannot be the zero address.\\n     * - `spender` cannot be the zero address.\\n     */\\n    function _approve(address owner, address spender, uint256 amount) internal virtual {\\n        require(owner != address(0), \\\"ERC20: approve from the zero address\\\");\\n        require(spender != address(0), \\\"ERC20: approve to the zero address\\\");\\n\\n        _allowances[owner][spender] = amount;\\n        emit Approval(owner, spender, amount);\\n    }\\n\\n    /**\\n     * @dev Hook that is called before any transfer of tokens. This includes\\n     * minting and burning.\\n     *\\n     * Calling conditions:\\n     *\\n     * - when `from` and `to` are both non-zero, `amount` of ``from``'s tokens\\n     * will be to transferred to `to`.\\n     * - when `from` is zero, `amount` tokens will be minted for `to`.\\n     * - when `to` is zero, `amount` of ``from``'s tokens will be burned.\\n     * - `from` and `to` are never both zero.\\n     *\\n     * To learn more about hooks, head to xref:ROOT:extending-contracts.adoc#using-hooks[Using Hooks].\\n     */\\n    function _beforeTokenTransfer(address from, address to, uint256 amount) internal virtual { }\\n}\\n\",\"keccak256\":\"0xfeccdcbf67b2006a715e5af1a4c7556004d95b2806552b5cc54e46e8eb7e887b\",\"license\":\"MIT\"},\"@openzeppelin/contracts/token/ERC20/IERC20.sol\":{\"content\":\"// SPDX-License-Identifier: MIT\\n\\npragma solidity ^0.8.0;\\n\\n/**\\n * @dev Interface of the ERC20 standard as defined in the EIP.\\n */\\ninterface IERC20 {\\n    /**\\n     * @dev Returns the amount of tokens in existence.\\n     */\\n    function totalSupply() external view returns (uint256);\\n\\n    /**\\n     * @dev Returns the amount of tokens owned by `account`.\\n     */\\n    function balanceOf(address account) external view returns (uint256);\\n\\n    /**\\n     * @dev Moves `amount` tokens from the caller's account to `recipient`.\\n     *\\n     * Returns a boolean value indicating whether the operation succeeded.\\n     *\\n     * Emits a {Transfer} event.\\n     */\\n    function transfer(address recipient, uint256 amount) external returns (bool);\\n\\n    /**\\n     * @dev Returns the remaining number of tokens that `spender` will be\\n     * allowed to spend on behalf of `owner` through {transferFrom}. This is\\n     * zero by default.\\n     *\\n     * This value changes when {approve} or {transferFrom} are called.\\n     */\\n    function allowance(address owner, address spender) external view returns (uint256);\\n\\n    /**\\n     * @dev Sets `amount` as the allowance of `spender` over the caller's tokens.\\n     *\\n     * Returns a boolean value indicating whether the operation succeeded.\\n     *\\n     * IMPORTANT: Beware that changing an allowance with this method brings the risk\\n     * that someone may use both the old and the new allowance by unfortunate\\n     * transaction ordering. One possible solution to mitigate this race\\n     * condition is to first reduce the spender's allowance to 0 and set the\\n     * desired value afterwards:\\n     * https://github.com/ethereum/EIPs/issues/20#issuecomment-263524729\\n     *\\n     * Emits an {Approval} event.\\n     */\\n    function approve(address spender, uint256 amount) external returns (bool);\\n\\n    /**\\n     * @dev Moves `amount` tokens from `sender` to `recipient` using the\\n     * allowance mechanism. `amount` is then deducted from the caller's\\n     * allowance.\\n     *\\n     * Returns a boolean value indicating whether the operation succeeded.\\n     *\\n     * Emits a {Transfer} event.\\n     */\\n    function transferFrom(address sender, address recipient, uint256 amount) external returns (bool);\\n\\n    /**\\n     * @dev Emitted when `value` tokens are moved from one account (`from`) to\\n     * another (`to`).\\n     *\\n     * Note that `value` may be zero.\\n     */\\n    event Transfer(address indexed from, address indexed to, uint256 value);\\n\\n    /**\\n     * @dev Emitted when the allowance of a `spender` for an `owner` is set by\\n     * a call to {approve}. `value` is the new allowance.\\n     */\\n    event Approval(address indexed owner, address indexed spender, uint256 value);\\n}\\n\",\"keccak256\":\"0xf8e8d118a7a8b2e134181f7da655f6266aa3a0f9134b2605747139fcb0c5d835\",\"license\":\"MIT\"},\"@openzeppelin/contracts/token/ERC20/extensions/IERC20Metadata.sol\":{\"content\":\"// SPDX-License-Identifier: MIT\\n\\npragma solidity ^0.8.0;\\n\\nimport \\\"../IERC20.sol\\\";\\n\\n/**\\n * @dev Interface for the optional metadata functions from the ERC20 standard.\\n *\\n * _Available since v4.1._\\n */\\ninterface IERC20Metadata is IERC20 {\\n    /**\\n     * @dev Returns the name of the token.\\n     */\\n    function name() external view returns (string memory);\\n\\n    /**\\n     * @dev Returns the symbol of the token.\\n     */\\n    function symbol() external view returns (string memory);\\n\\n    /**\\n     * @dev Returns the decimals places of the token.\\n     */\\n    function decimals() external view returns (uint8);\\n}\\n\",\"keccak256\":\"0x83fe24f5c04a56091e50f4a345ff504c8bff658a76d4c43b16878c8f940c53b2\",\"license\":\"MIT\"},\"@openzeppelin/contracts/token/ERC20/utils/SafeERC20.sol\":{\"content\":\"// SPDX-License-Identifier: MIT\\n\\npragma solidity ^0.8.0;\\n\\nimport \\\"../IERC20.sol\\\";\\nimport \\\"../../../utils/Address.sol\\\";\\n\\n/**\\n * @title SafeERC20\\n * @dev Wrappers around ERC20 operations that throw on failure (when the token\\n * contract returns false). Tokens that return no value (and instead revert or\\n * throw on failure) are also supported, non-reverting calls are assumed to be\\n * successful.\\n * To use this library you can add a `using SafeERC20 for IERC20;` statement to your contract,\\n * which allows you to call the safe operations as `token.safeTransfer(...)`, etc.\\n */\\nlibrary SafeERC20 {\\n    using Address for address;\\n\\n    function safeTransfer(IERC20 token, address to, uint256 value) internal {\\n        _callOptionalReturn(token, abi.encodeWithSelector(token.transfer.selector, to, value));\\n    }\\n\\n    function safeTransferFrom(IERC20 token, address from, address to, uint256 value) internal {\\n        _callOptionalReturn(token, abi.encodeWithSelector(token.transferFrom.selector, from, to, value));\\n    }\\n\\n    /**\\n     * @dev Deprecated. This function has issues similar to the ones found in\\n     * {IERC20-approve}, and its usage is discouraged.\\n     *\\n     * Whenever possible, use {safeIncreaseAllowance} and\\n     * {safeDecreaseAllowance} instead.\\n     */\\n    function safeApprove(IERC20 token, address spender, uint256 value) internal {\\n        // safeApprove should only be called when setting an initial allowance,\\n        // or when resetting it to zero. To increase and decrease it, use\\n        // 'safeIncreaseAllowance' and 'safeDecreaseAllowance'\\n        // solhint-disable-next-line max-line-length\\n        require((value == 0) || (token.allowance(address(this), spender) == 0),\\n            \\\"SafeERC20: approve from non-zero to non-zero allowance\\\"\\n        );\\n        _callOptionalReturn(token, abi.encodeWithSelector(token.approve.selector, spender, value));\\n    }\\n\\n    function safeIncreaseAllowance(IERC20 token, address spender, uint256 value) internal {\\n        uint256 newAllowance = token.allowance(address(this), spender) + value;\\n        _callOptionalReturn(token, abi.encodeWithSelector(token.approve.selector, spender, newAllowance));\\n    }\\n\\n    function safeDecreaseAllowance(IERC20 token, address spender, uint256 value) internal {\\n        unchecked {\\n            uint256 oldAllowance = token.allowance(address(this), spender);\\n            require(oldAllowance >= value, \\\"SafeERC20: decreased allowance below zero\\\");\\n            uint256 newAllowance = oldAllowance - value;\\n            _callOptionalReturn(token, abi.encodeWithSelector(token.approve.selector, spender, newAllowance));\\n        }\\n    }\\n\\n    /**\\n     * @dev Imitates a Solidity high-level call (i.e. a regular function call to a contract), relaxing the requirement\\n     * on the return value: the return value is optional (but if data is returned, it must not be false).\\n     * @param token The token targeted by the call.\\n     * @param data The call data (encoded using abi.encode or one of its variants).\\n     */\\n    function _callOptionalReturn(IERC20 token, bytes memory data) private {\\n        // We need to perform a low level call here, to bypass Solidity's return data size checking mechanism, since\\n        // we're implementing it ourselves. We use {Address.functionCall} to perform this call, which verifies that\\n        // the target address contains contract code and also asserts for success in the low-level call.\\n\\n        bytes memory returndata = address(token).functionCall(data, \\\"SafeERC20: low-level call failed\\\");\\n        if (returndata.length > 0) { // Return data is optional\\n            // solhint-disable-next-line max-line-length\\n            require(abi.decode(returndata, (bool)), \\\"SafeERC20: ERC20 operation did not succeed\\\");\\n        }\\n    }\\n}\\n\",\"keccak256\":\"0x99f5c21018d796db7833a2100bb0e7411999e248a3c950fb526eee5d2bf47cb7\",\"license\":\"MIT\"},\"@openzeppelin/contracts/token/ERC721/IERC721.sol\":{\"content\":\"// SPDX-License-Identifier: MIT\\n\\npragma solidity ^0.8.0;\\n\\nimport \\\"../../utils/introspection/IERC165.sol\\\";\\n\\n/**\\n * @dev Required interface of an ERC721 compliant contract.\\n */\\ninterface IERC721 is IERC165 {\\n    /**\\n     * @dev Emitted when `tokenId` token is transferred from `from` to `to`.\\n     */\\n    event Transfer(address indexed from, address indexed to, uint256 indexed tokenId);\\n\\n    /**\\n     * @dev Emitted when `owner` enables `approved` to manage the `tokenId` token.\\n     */\\n    event Approval(address indexed owner, address indexed approved, uint256 indexed tokenId);\\n\\n    /**\\n     * @dev Emitted when `owner` enables or disables (`approved`) `operator` to manage all of its assets.\\n     */\\n    event ApprovalForAll(address indexed owner, address indexed operator, bool approved);\\n\\n    /**\\n     * @dev Returns the number of tokens in ``owner``'s account.\\n     */\\n    function balanceOf(address owner) external view returns (uint256 balance);\\n\\n    /**\\n     * @dev Returns the owner of the `tokenId` token.\\n     *\\n     * Requirements:\\n     *\\n     * - `tokenId` must exist.\\n     */\\n    function ownerOf(uint256 tokenId) external view returns (address owner);\\n\\n    /**\\n     * @dev Safely transfers `tokenId` token from `from` to `to`, checking first that contract recipients\\n     * are aware of the ERC721 protocol to prevent tokens from being forever locked.\\n     *\\n     * Requirements:\\n     *\\n     * - `from` cannot be the zero address.\\n     * - `to` cannot be the zero address.\\n     * - `tokenId` token must exist and be owned by `from`.\\n     * - If the caller is not `from`, it must be have been allowed to move this token by either {approve} or {setApprovalForAll}.\\n     * - If `to` refers to a smart contract, it must implement {IERC721Receiver-onERC721Received}, which is called upon a safe transfer.\\n     *\\n     * Emits a {Transfer} event.\\n     */\\n    function safeTransferFrom(address from, address to, uint256 tokenId) external;\\n\\n    /**\\n     * @dev Transfers `tokenId` token from `from` to `to`.\\n     *\\n     * WARNING: Usage of this method is discouraged, use {safeTransferFrom} whenever possible.\\n     *\\n     * Requirements:\\n     *\\n     * - `from` cannot be the zero address.\\n     * - `to` cannot be the zero address.\\n     * - `tokenId` token must be owned by `from`.\\n     * - If the caller is not `from`, it must be approved to move this token by either {approve} or {setApprovalForAll}.\\n     *\\n     * Emits a {Transfer} event.\\n     */\\n    function transferFrom(address from, address to, uint256 tokenId) external;\\n\\n    /**\\n     * @dev Gives permission to `to` to transfer `tokenId` token to another account.\\n     * The approval is cleared when the token is transferred.\\n     *\\n     * Only a single account can be approved at a time, so approving the zero address clears previous approvals.\\n     *\\n     * Requirements:\\n     *\\n     * - The caller must own the token or be an approved operator.\\n     * - `tokenId` must exist.\\n     *\\n     * Emits an {Approval} event.\\n     */\\n    function approve(address to, uint256 tokenId) external;\\n\\n    /**\\n     * @dev Returns the account approved for `tokenId` token.\\n     *\\n     * Requirements:\\n     *\\n     * - `tokenId` must exist.\\n     */\\n    function getApproved(uint256 tokenId) external view returns (address operator);\\n\\n    /**\\n     * @dev Approve or remove `operator` as an operator for the caller.\\n     * Operators can call {transferFrom} or {safeTransferFrom} for any token owned by the caller.\\n     *\\n     * Requirements:\\n     *\\n     * - The `operator` cannot be the caller.\\n     *\\n     * Emits an {ApprovalForAll} event.\\n     */\\n    function setApprovalForAll(address operator, bool _approved) external;\\n\\n    /**\\n     * @dev Returns if the `operator` is allowed to manage all of the assets of `owner`.\\n     *\\n     * See {setApprovalForAll}\\n     */\\n    function isApprovedForAll(address owner, address operator) external view returns (bool);\\n\\n    /**\\n      * @dev Safely transfers `tokenId` token from `from` to `to`.\\n      *\\n      * Requirements:\\n      *\\n      * - `from` cannot be the zero address.\\n      * - `to` cannot be the zero address.\\n      * - `tokenId` token must exist and be owned by `from`.\\n      * - If the caller is not `from`, it must be approved to move this token by either {approve} or {setApprovalForAll}.\\n      * - If `to` refers to a smart contract, it must implement {IERC721Receiver-onERC721Received}, which is called upon a safe transfer.\\n      *\\n      * Emits a {Transfer} event.\\n      */\\n    function safeTransferFrom(address from, address to, uint256 tokenId, bytes calldata data) external;\\n}\\n\",\"keccak256\":\"0xc1c941ad1e580b4623007305921efe2f26fc7320a4edc226234dd707c658a428\",\"license\":\"MIT\"},\"@openzeppelin/contracts/token/ERC721/extensions/IERC721Metadata.sol\":{\"content\":\"// SPDX-License-Identifier: MIT\\n\\npragma solidity ^0.8.0;\\n\\nimport \\\"../IERC721.sol\\\";\\n\\n/**\\n * @title ERC-721 Non-Fungible Token Standard, optional metadata extension\\n * @dev See https://eips.ethereum.org/EIPS/eip-721\\n */\\ninterface IERC721Metadata is IERC721 {\\n\\n    /**\\n     * @dev Returns the token collection name.\\n     */\\n    function name() external view returns (string memory);\\n\\n    /**\\n     * @dev Returns the token collection symbol.\\n     */\\n    function symbol() external view returns (string memory);\\n\\n    /**\\n     * @dev Returns the Uniform Resource Identifier (URI) for `tokenId` token.\\n     */\\n    function tokenURI(uint256 tokenId) external view returns (string memory);\\n}\\n\",\"keccak256\":\"0xb8d11e77eb1ed34a33720edb551d7d6a6b0eee2bfaa40a7024020e1fdf879b16\",\"license\":\"MIT\"},\"@openzeppelin/contracts/utils/Address.sol\":{\"content\":\"// SPDX-License-Identifier: MIT\\n\\npragma solidity ^0.8.0;\\n\\n/**\\n * @dev Collection of functions related to the address type\\n */\\nlibrary Address {\\n    /**\\n     * @dev Returns true if `account` is a contract.\\n     *\\n     * [IMPORTANT]\\n     * ====\\n     * It is unsafe to assume that an address for which this function returns\\n     * false is an externally-owned account (EOA) and not a contract.\\n     *\\n     * Among others, `isContract` will return false for the following\\n     * types of addresses:\\n     *\\n     *  - an externally-owned account\\n     *  - a contract in construction\\n     *  - an address where a contract will be created\\n     *  - an address where a contract lived, but was destroyed\\n     * ====\\n     */\\n    function isContract(address account) internal view returns (bool) {\\n        // This method relies on extcodesize, which returns 0 for contracts in\\n        // construction, since the code is only stored at the end of the\\n        // constructor execution.\\n\\n        uint256 size;\\n        // solhint-disable-next-line no-inline-assembly\\n        assembly { size := extcodesize(account) }\\n        return size > 0;\\n    }\\n\\n    /**\\n     * @dev Replacement for Solidity's `transfer`: sends `amount` wei to\\n     * `recipient`, forwarding all available gas and reverting on errors.\\n     *\\n     * https://eips.ethereum.org/EIPS/eip-1884[EIP1884] increases the gas cost\\n     * of certain opcodes, possibly making contracts go over the 2300 gas limit\\n     * imposed by `transfer`, making them unable to receive funds via\\n     * `transfer`. {sendValue} removes this limitation.\\n     *\\n     * https://diligence.consensys.net/posts/2019/09/stop-using-soliditys-transfer-now/[Learn more].\\n     *\\n     * IMPORTANT: because control is transferred to `recipient`, care must be\\n     * taken to not create reentrancy vulnerabilities. Consider using\\n     * {ReentrancyGuard} or the\\n     * https://solidity.readthedocs.io/en/v0.5.11/security-considerations.html#use-the-checks-effects-interactions-pattern[checks-effects-interactions pattern].\\n     */\\n    function sendValue(address payable recipient, uint256 amount) internal {\\n        require(address(this).balance >= amount, \\\"Address: insufficient balance\\\");\\n\\n        // solhint-disable-next-line avoid-low-level-calls, avoid-call-value\\n        (bool success, ) = recipient.call{ value: amount }(\\\"\\\");\\n        require(success, \\\"Address: unable to send value, recipient may have reverted\\\");\\n    }\\n\\n    /**\\n     * @dev Performs a Solidity function call using a low level `call`. A\\n     * plain`call` is an unsafe replacement for a function call: use this\\n     * function instead.\\n     *\\n     * If `target` reverts with a revert reason, it is bubbled up by this\\n     * function (like regular Solidity function calls).\\n     *\\n     * Returns the raw returned data. To convert to the expected return value,\\n     * use https://solidity.readthedocs.io/en/latest/units-and-global-variables.html?highlight=abi.decode#abi-encoding-and-decoding-functions[`abi.decode`].\\n     *\\n     * Requirements:\\n     *\\n     * - `target` must be a contract.\\n     * - calling `target` with `data` must not revert.\\n     *\\n     * _Available since v3.1._\\n     */\\n    function functionCall(address target, bytes memory data) internal returns (bytes memory) {\\n      return functionCall(target, data, \\\"Address: low-level call failed\\\");\\n    }\\n\\n    /**\\n     * @dev Same as {xref-Address-functionCall-address-bytes-}[`functionCall`], but with\\n     * `errorMessage` as a fallback revert reason when `target` reverts.\\n     *\\n     * _Available since v3.1._\\n     */\\n    function functionCall(address target, bytes memory data, string memory errorMessage) internal returns (bytes memory) {\\n        return functionCallWithValue(target, data, 0, errorMessage);\\n    }\\n\\n    /**\\n     * @dev Same as {xref-Address-functionCall-address-bytes-}[`functionCall`],\\n     * but also transferring `value` wei to `target`.\\n     *\\n     * Requirements:\\n     *\\n     * - the calling contract must have an ETH balance of at least `value`.\\n     * - the called Solidity function must be `payable`.\\n     *\\n     * _Available since v3.1._\\n     */\\n    function functionCallWithValue(address target, bytes memory data, uint256 value) internal returns (bytes memory) {\\n        return functionCallWithValue(target, data, value, \\\"Address: low-level call with value failed\\\");\\n    }\\n\\n    /**\\n     * @dev Same as {xref-Address-functionCallWithValue-address-bytes-uint256-}[`functionCallWithValue`], but\\n     * with `errorMessage` as a fallback revert reason when `target` reverts.\\n     *\\n     * _Available since v3.1._\\n     */\\n    function functionCallWithValue(address target, bytes memory data, uint256 value, string memory errorMessage) internal returns (bytes memory) {\\n        require(address(this).balance >= value, \\\"Address: insufficient balance for call\\\");\\n        require(isContract(target), \\\"Address: call to non-contract\\\");\\n\\n        // solhint-disable-next-line avoid-low-level-calls\\n        (bool success, bytes memory returndata) = target.call{ value: value }(data);\\n        return _verifyCallResult(success, returndata, errorMessage);\\n    }\\n\\n    /**\\n     * @dev Same as {xref-Address-functionCall-address-bytes-}[`functionCall`],\\n     * but performing a static call.\\n     *\\n     * _Available since v3.3._\\n     */\\n    function functionStaticCall(address target, bytes memory data) internal view returns (bytes memory) {\\n        return functionStaticCall(target, data, \\\"Address: low-level static call failed\\\");\\n    }\\n\\n    /**\\n     * @dev Same as {xref-Address-functionCall-address-bytes-string-}[`functionCall`],\\n     * but performing a static call.\\n     *\\n     * _Available since v3.3._\\n     */\\n    function functionStaticCall(address target, bytes memory data, string memory errorMessage) internal view returns (bytes memory) {\\n        require(isContract(target), \\\"Address: static call to non-contract\\\");\\n\\n        // solhint-disable-next-line avoid-low-level-calls\\n        (bool success, bytes memory returndata) = target.staticcall(data);\\n        return _verifyCallResult(success, returndata, errorMessage);\\n    }\\n\\n    /**\\n     * @dev Same as {xref-Address-functionCall-address-bytes-}[`functionCall`],\\n     * but performing a delegate call.\\n     *\\n     * _Available since v3.4._\\n     */\\n    function functionDelegateCall(address target, bytes memory data) internal returns (bytes memory) {\\n        return functionDelegateCall(target, data, \\\"Address: low-level delegate call failed\\\");\\n    }\\n\\n    /**\\n     * @dev Same as {xref-Address-functionCall-address-bytes-string-}[`functionCall`],\\n     * but performing a delegate call.\\n     *\\n     * _Available since v3.4._\\n     */\\n    function functionDelegateCall(address target, bytes memory data, string memory errorMessage) internal returns (bytes memory) {\\n        require(isContract(target), \\\"Address: delegate call to non-contract\\\");\\n\\n        // solhint-disable-next-line avoid-low-level-calls\\n        (bool success, bytes memory returndata) = target.delegatecall(data);\\n        return _verifyCallResult(success, returndata, errorMessage);\\n    }\\n\\n    function _verifyCallResult(bool success, bytes memory returndata, string memory errorMessage) private pure returns(bytes memory) {\\n        if (success) {\\n            return returndata;\\n        } else {\\n            // Look for revert reason and bubble it up if present\\n            if (returndata.length > 0) {\\n                // The easiest way to bubble the revert reason is using memory via assembly\\n\\n                // solhint-disable-next-line no-inline-assembly\\n                assembly {\\n                    let returndata_size := mload(returndata)\\n                    revert(add(32, returndata), returndata_size)\\n                }\\n            } else {\\n                revert(errorMessage);\\n            }\\n        }\\n    }\\n}\\n\",\"keccak256\":\"0x069b2631bb5b5193a58ccf7a06266c7361bd2c20095667af4402817605627f45\",\"license\":\"MIT\"},\"@openzeppelin/contracts/utils/Context.sol\":{\"content\":\"// SPDX-License-Identifier: MIT\\n\\npragma solidity ^0.8.0;\\n\\n/*\\n * @dev Provides information about the current execution context, including the\\n * sender of the transaction and its data. While these are generally available\\n * via msg.sender and msg.data, they should not be accessed in such a direct\\n * manner, since when dealing with meta-transactions the account sending and\\n * paying for execution may not be the actual sender (as far as an application\\n * is concerned).\\n *\\n * This contract is only required for intermediate, library-like contracts.\\n */\\nabstract contract Context {\\n    function _msgSender() internal view virtual returns (address) {\\n        return msg.sender;\\n    }\\n\\n    function _msgData() internal view virtual returns (bytes calldata) {\\n        this; // silence state mutability warning without generating bytecode - see https://github.com/ethereum/solidity/issues/2691\\n        return msg.data;\\n    }\\n}\\n\",\"keccak256\":\"0xf930d2df426bfcfc1f7415be724f04081c96f4fb9ec8d0e3a521c07692dface0\",\"license\":\"MIT\"},\"@openzeppelin/contracts/utils/Counters.sol\":{\"content\":\"// SPDX-License-Identifier: MIT\\n\\npragma solidity ^0.8.0;\\n\\n/**\\n * @title Counters\\n * @author Matt Condon (@shrugs)\\n * @dev Provides counters that can only be incremented or decremented by one. This can be used e.g. to track the number\\n * of elements in a mapping, issuing ERC721 ids, or counting request ids.\\n *\\n * Include with `using Counters for Counters.Counter;`\\n */\\nlibrary Counters {\\n    struct Counter {\\n        // This variable should never be directly accessed by users of the library: interactions must be restricted to\\n        // the library's function. As of Solidity v0.5.2, this cannot be enforced, though there is a proposal to add\\n        // this feature: see https://github.com/ethereum/solidity/issues/4637\\n        uint256 _value; // default: 0\\n    }\\n\\n    function current(Counter storage counter) internal view returns (uint256) {\\n        return counter._value;\\n    }\\n\\n    function increment(Counter storage counter) internal {\\n        unchecked {\\n            counter._value += 1;\\n        }\\n    }\\n\\n    function decrement(Counter storage counter) internal {\\n        uint256 value = counter._value;\\n        require(value > 0, \\\"Counter: decrement overflow\\\");\\n        unchecked {\\n            counter._value = value - 1;\\n        }\\n    }\\n}\\n\",\"keccak256\":\"0x62d306ff0499a11913bc60b5939eec619509b5c67b30e86ebf8b8bda0b7a7fee\",\"license\":\"MIT\"},\"@openzeppelin/contracts/utils/cryptography/MerkleProof.sol\":{\"content\":\"// SPDX-License-Identifier: MIT\\n\\npragma solidity ^0.8.0;\\n\\n/**\\n * @dev These functions deal with verification of Merkle Trees proofs.\\n *\\n * The proofs can be generated using the JavaScript library\\n * https://github.com/miguelmota/merkletreejs[merkletreejs].\\n * Note: the hashing algorithm should be keccak256 and pair sorting should be enabled.\\n *\\n * See `test/utils/cryptography/MerkleProof.test.js` for some examples.\\n */\\nlibrary MerkleProof {\\n    /**\\n     * @dev Returns true if a `leaf` can be proved to be a part of a Merkle tree\\n     * defined by `root`. For this, a `proof` must be provided, containing\\n     * sibling hashes on the branch from the leaf to the root of the tree. Each\\n     * pair of leaves and each pair of pre-images are assumed to be sorted.\\n     */\\n    function verify(bytes32[] memory proof, bytes32 root, bytes32 leaf) internal pure returns (bool) {\\n        bytes32 computedHash = leaf;\\n\\n        for (uint256 i = 0; i < proof.length; i++) {\\n            bytes32 proofElement = proof[i];\\n\\n            if (computedHash <= proofElement) {\\n                // Hash(current computed hash + current element of the proof)\\n                computedHash = keccak256(abi.encodePacked(computedHash, proofElement));\\n            } else {\\n                // Hash(current element of the proof + current computed hash)\\n                computedHash = keccak256(abi.encodePacked(proofElement, computedHash));\\n            }\\n        }\\n\\n        // Check if the computed hash (root) is equal to the provided root\\n        return computedHash == root;\\n    }\\n}\\n\",\"keccak256\":\"0xeee34bfb413657b6cd6c8e1e15c2080ba5ebaac479578515922804346fb63f7c\",\"license\":\"MIT\"},\"@openzeppelin/contracts/utils/introspection/IERC165.sol\":{\"content\":\"// SPDX-License-Identifier: MIT\\n\\npragma solidity ^0.8.0;\\n\\n/**\\n * @dev Interface of the ERC165 standard, as defined in the\\n * https://eips.ethereum.org/EIPS/eip-165[EIP].\\n *\\n * Implementers can declare support of contract interfaces, which can then be\\n * queried by others ({ERC165Checker}).\\n *\\n * For an implementation, see {ERC165}.\\n */\\ninterface IERC165 {\\n    /**\\n     * @dev Returns true if this contract implements the interface defined by\\n     * `interfaceId`. See the corresponding\\n     * https://eips.ethereum.org/EIPS/eip-165#how-interfaces-are-identified[EIP section]\\n     * to learn more about how these ids are created.\\n     *\\n     * This function call must use less than 30 000 gas.\\n     */\\n    function supportsInterface(bytes4 interfaceId) external view returns (bool);\\n}\\n\",\"keccak256\":\"0xa28007762d9da9db878dd421960c8cb9a10471f47ab5c1b3309bfe48e9e79ff4\",\"license\":\"MIT\"},\"@openzeppelin/contracts/utils/math/SafeCast.sol\":{\"content\":\"// SPDX-License-Identifier: MIT\\n\\npragma solidity ^0.8.0;\\n\\n/**\\n * @dev Wrappers over Solidity's uintXX/intXX casting operators with added overflow\\n * checks.\\n *\\n * Downcasting from uint256/int256 in Solidity does not revert on overflow. This can\\n * easily result in undesired exploitation or bugs, since developers usually\\n * assume that overflows raise errors. `SafeCast` restores this intuition by\\n * reverting the transaction when such an operation overflows.\\n *\\n * Using this library instead of the unchecked operations eliminates an entire\\n * class of bugs, so it's recommended to use it always.\\n *\\n * Can be combined with {SafeMath} and {SignedSafeMath} to extend it to smaller types, by performing\\n * all math on `uint256` and `int256` and then downcasting.\\n */\\nlibrary SafeCast {\\n    /**\\n     * @dev Returns the downcasted uint128 from uint256, reverting on\\n     * overflow (when the input is greater than largest uint128).\\n     *\\n     * Counterpart to Solidity's `uint128` operator.\\n     *\\n     * Requirements:\\n     *\\n     * - input must fit into 128 bits\\n     */\\n    function toUint128(uint256 value) internal pure returns (uint128) {\\n        require(value < 2**128, \\\"SafeCast: value doesn\\\\'t fit in 128 bits\\\");\\n        return uint128(value);\\n    }\\n\\n    /**\\n     * @dev Returns the downcasted uint64 from uint256, reverting on\\n     * overflow (when the input is greater than largest uint64).\\n     *\\n     * Counterpart to Solidity's `uint64` operator.\\n     *\\n     * Requirements:\\n     *\\n     * - input must fit into 64 bits\\n     */\\n    function toUint64(uint256 value) internal pure returns (uint64) {\\n        require(value < 2**64, \\\"SafeCast: value doesn\\\\'t fit in 64 bits\\\");\\n        return uint64(value);\\n    }\\n\\n    /**\\n     * @dev Returns the downcasted uint32 from uint256, reverting on\\n     * overflow (when the input is greater than largest uint32).\\n     *\\n     * Counterpart to Solidity's `uint32` operator.\\n     *\\n     * Requirements:\\n     *\\n     * - input must fit into 32 bits\\n     */\\n    function toUint32(uint256 value) internal pure returns (uint32) {\\n        require(value < 2**32, \\\"SafeCast: value doesn\\\\'t fit in 32 bits\\\");\\n        return uint32(value);\\n    }\\n\\n    /**\\n     * @dev Returns the downcasted uint16 from uint256, reverting on\\n     * overflow (when the input is greater than largest uint16).\\n     *\\n     * Counterpart to Solidity's `uint16` operator.\\n     *\\n     * Requirements:\\n     *\\n     * - input must fit into 16 bits\\n     */\\n    function toUint16(uint256 value) internal pure returns (uint16) {\\n        require(value < 2**16, \\\"SafeCast: value doesn\\\\'t fit in 16 bits\\\");\\n        return uint16(value);\\n    }\\n\\n    /**\\n     * @dev Returns the downcasted uint8 from uint256, reverting on\\n     * overflow (when the input is greater than largest uint8).\\n     *\\n     * Counterpart to Solidity's `uint8` operator.\\n     *\\n     * Requirements:\\n     *\\n     * - input must fit into 8 bits.\\n     */\\n    function toUint8(uint256 value) internal pure returns (uint8) {\\n        require(value < 2**8, \\\"SafeCast: value doesn\\\\'t fit in 8 bits\\\");\\n        return uint8(value);\\n    }\\n\\n    /**\\n     * @dev Converts a signed int256 into an unsigned uint256.\\n     *\\n     * Requirements:\\n     *\\n     * - input must be greater than or equal to 0.\\n     */\\n    function toUint256(int256 value) internal pure returns (uint256) {\\n        require(value >= 0, \\\"SafeCast: value must be positive\\\");\\n        return uint256(value);\\n    }\\n\\n    /**\\n     * @dev Returns the downcasted int128 from int256, reverting on\\n     * overflow (when the input is less than smallest int128 or\\n     * greater than largest int128).\\n     *\\n     * Counterpart to Solidity's `int128` operator.\\n     *\\n     * Requirements:\\n     *\\n     * - input must fit into 128 bits\\n     *\\n     * _Available since v3.1._\\n     */\\n    function toInt128(int256 value) internal pure returns (int128) {\\n        require(value >= -2**127 && value < 2**127, \\\"SafeCast: value doesn\\\\'t fit in 128 bits\\\");\\n        return int128(value);\\n    }\\n\\n    /**\\n     * @dev Returns the downcasted int64 from int256, reverting on\\n     * overflow (when the input is less than smallest int64 or\\n     * greater than largest int64).\\n     *\\n     * Counterpart to Solidity's `int64` operator.\\n     *\\n     * Requirements:\\n     *\\n     * - input must fit into 64 bits\\n     *\\n     * _Available since v3.1._\\n     */\\n    function toInt64(int256 value) internal pure returns (int64) {\\n        require(value >= -2**63 && value < 2**63, \\\"SafeCast: value doesn\\\\'t fit in 64 bits\\\");\\n        return int64(value);\\n    }\\n\\n    /**\\n     * @dev Returns the downcasted int32 from int256, reverting on\\n     * overflow (when the input is less than smallest int32 or\\n     * greater than largest int32).\\n     *\\n     * Counterpart to Solidity's `int32` operator.\\n     *\\n     * Requirements:\\n     *\\n     * - input must fit into 32 bits\\n     *\\n     * _Available since v3.1._\\n     */\\n    function toInt32(int256 value) internal pure returns (int32) {\\n        require(value >= -2**31 && value < 2**31, \\\"SafeCast: value doesn\\\\'t fit in 32 bits\\\");\\n        return int32(value);\\n    }\\n\\n    /**\\n     * @dev Returns the downcasted int16 from int256, reverting on\\n     * overflow (when the input is less than smallest int16 or\\n     * greater than largest int16).\\n     *\\n     * Counterpart to Solidity's `int16` operator.\\n     *\\n     * Requirements:\\n     *\\n     * - input must fit into 16 bits\\n     *\\n     * _Available since v3.1._\\n     */\\n    function toInt16(int256 value) internal pure returns (int16) {\\n        require(value >= -2**15 && value < 2**15, \\\"SafeCast: value doesn\\\\'t fit in 16 bits\\\");\\n        return int16(value);\\n    }\\n\\n    /**\\n     * @dev Returns the downcasted int8 from int256, reverting on\\n     * overflow (when the input is less than smallest int8 or\\n     * greater than largest int8).\\n     *\\n     * Counterpart to Solidity's `int8` operator.\\n     *\\n     * Requirements:\\n     *\\n     * - input must fit into 8 bits.\\n     *\\n     * _Available since v3.1._\\n     */\\n    function toInt8(int256 value) internal pure returns (int8) {\\n        require(value >= -2**7 && value < 2**7, \\\"SafeCast: value doesn\\\\'t fit in 8 bits\\\");\\n        return int8(value);\\n    }\\n\\n    /**\\n     * @dev Converts an unsigned uint256 into a signed int256.\\n     *\\n     * Requirements:\\n     *\\n     * - input must be less than or equal to maxInt256.\\n     */\\n    function toInt256(uint256 value) internal pure returns (int256) {\\n        require(value < 2**255, \\\"SafeCast: value doesn't fit in an int256\\\");\\n        return int256(value);\\n    }\\n}\\n\",\"keccak256\":\"0xc37d85b96c2a8d7bc09f25958e0a81394bf5780286444147ddf875fa628d53ce\",\"license\":\"MIT\"},\"@openzeppelin/contracts/utils/math/SafeMath.sol\":{\"content\":\"// SPDX-License-Identifier: MIT\\n\\npragma solidity ^0.8.0;\\n\\n// CAUTION\\n// This version of SafeMath should only be used with Solidity 0.8 or later,\\n// because it relies on the compiler's built in overflow checks.\\n\\n/**\\n * @dev Wrappers over Solidity's arithmetic operations.\\n *\\n * NOTE: `SafeMath` is no longer needed starting with Solidity 0.8. The compiler\\n * now has built in overflow checking.\\n */\\nlibrary SafeMath {\\n    /**\\n     * @dev Returns the addition of two unsigned integers, with an overflow flag.\\n     *\\n     * _Available since v3.4._\\n     */\\n    function tryAdd(uint256 a, uint256 b) internal pure returns (bool, uint256) {\\n        unchecked {\\n            uint256 c = a + b;\\n            if (c < a) return (false, 0);\\n            return (true, c);\\n        }\\n    }\\n\\n    /**\\n     * @dev Returns the substraction of two unsigned integers, with an overflow flag.\\n     *\\n     * _Available since v3.4._\\n     */\\n    function trySub(uint256 a, uint256 b) internal pure returns (bool, uint256) {\\n        unchecked {\\n            if (b > a) return (false, 0);\\n            return (true, a - b);\\n        }\\n    }\\n\\n    /**\\n     * @dev Returns the multiplication of two unsigned integers, with an overflow flag.\\n     *\\n     * _Available since v3.4._\\n     */\\n    function tryMul(uint256 a, uint256 b) internal pure returns (bool, uint256) {\\n        unchecked {\\n            // Gas optimization: this is cheaper than requiring 'a' not being zero, but the\\n            // benefit is lost if 'b' is also tested.\\n            // See: https://github.com/OpenZeppelin/openzeppelin-contracts/pull/522\\n            if (a == 0) return (true, 0);\\n            uint256 c = a * b;\\n            if (c / a != b) return (false, 0);\\n            return (true, c);\\n        }\\n    }\\n\\n    /**\\n     * @dev Returns the division of two unsigned integers, with a division by zero flag.\\n     *\\n     * _Available since v3.4._\\n     */\\n    function tryDiv(uint256 a, uint256 b) internal pure returns (bool, uint256) {\\n        unchecked {\\n            if (b == 0) return (false, 0);\\n            return (true, a / b);\\n        }\\n    }\\n\\n    /**\\n     * @dev Returns the remainder of dividing two unsigned integers, with a division by zero flag.\\n     *\\n     * _Available since v3.4._\\n     */\\n    function tryMod(uint256 a, uint256 b) internal pure returns (bool, uint256) {\\n        unchecked {\\n            if (b == 0) return (false, 0);\\n            return (true, a % b);\\n        }\\n    }\\n\\n    /**\\n     * @dev Returns the addition of two unsigned integers, reverting on\\n     * overflow.\\n     *\\n     * Counterpart to Solidity's `+` operator.\\n     *\\n     * Requirements:\\n     *\\n     * - Addition cannot overflow.\\n     */\\n    function add(uint256 a, uint256 b) internal pure returns (uint256) {\\n        return a + b;\\n    }\\n\\n    /**\\n     * @dev Returns the subtraction of two unsigned integers, reverting on\\n     * overflow (when the result is negative).\\n     *\\n     * Counterpart to Solidity's `-` operator.\\n     *\\n     * Requirements:\\n     *\\n     * - Subtraction cannot overflow.\\n     */\\n    function sub(uint256 a, uint256 b) internal pure returns (uint256) {\\n        return a - b;\\n    }\\n\\n    /**\\n     * @dev Returns the multiplication of two unsigned integers, reverting on\\n     * overflow.\\n     *\\n     * Counterpart to Solidity's `*` operator.\\n     *\\n     * Requirements:\\n     *\\n     * - Multiplication cannot overflow.\\n     */\\n    function mul(uint256 a, uint256 b) internal pure returns (uint256) {\\n        return a * b;\\n    }\\n\\n    /**\\n     * @dev Returns the integer division of two unsigned integers, reverting on\\n     * division by zero. The result is rounded towards zero.\\n     *\\n     * Counterpart to Solidity's `/` operator.\\n     *\\n     * Requirements:\\n     *\\n     * - The divisor cannot be zero.\\n     */\\n    function div(uint256 a, uint256 b) internal pure returns (uint256) {\\n        return a / b;\\n    }\\n\\n    /**\\n     * @dev Returns the remainder of dividing two unsigned integers. (unsigned integer modulo),\\n     * reverting when dividing by zero.\\n     *\\n     * Counterpart to Solidity's `%` operator. This function uses a `revert`\\n     * opcode (which leaves remaining gas untouched) while Solidity uses an\\n     * invalid opcode to revert (consuming all remaining gas).\\n     *\\n     * Requirements:\\n     *\\n     * - The divisor cannot be zero.\\n     */\\n    function mod(uint256 a, uint256 b) internal pure returns (uint256) {\\n        return a % b;\\n    }\\n\\n    /**\\n     * @dev Returns the subtraction of two unsigned integers, reverting with custom message on\\n     * overflow (when the result is negative).\\n     *\\n     * CAUTION: This function is deprecated because it requires allocating memory for the error\\n     * message unnecessarily. For custom revert reasons use {trySub}.\\n     *\\n     * Counterpart to Solidity's `-` operator.\\n     *\\n     * Requirements:\\n     *\\n     * - Subtraction cannot overflow.\\n     */\\n    function sub(uint256 a, uint256 b, string memory errorMessage) internal pure returns (uint256) {\\n        unchecked {\\n            require(b <= a, errorMessage);\\n            return a - b;\\n        }\\n    }\\n\\n    /**\\n     * @dev Returns the integer division of two unsigned integers, reverting with custom message on\\n     * division by zero. The result is rounded towards zero.\\n     *\\n     * Counterpart to Solidity's `%` operator. This function uses a `revert`\\n     * opcode (which leaves remaining gas untouched) while Solidity uses an\\n     * invalid opcode to revert (consuming all remaining gas).\\n     *\\n     * Counterpart to Solidity's `/` operator. Note: this function uses a\\n     * `revert` opcode (which leaves remaining gas untouched) while Solidity\\n     * uses an invalid opcode to revert (consuming all remaining gas).\\n     *\\n     * Requirements:\\n     *\\n     * - The divisor cannot be zero.\\n     */\\n    function div(uint256 a, uint256 b, string memory errorMessage) internal pure returns (uint256) {\\n        unchecked {\\n            require(b > 0, errorMessage);\\n            return a / b;\\n        }\\n    }\\n\\n    /**\\n     * @dev Returns the remainder of dividing two unsigned integers. (unsigned integer modulo),\\n     * reverting with custom message when dividing by zero.\\n     *\\n     * CAUTION: This function is deprecated because it requires allocating memory for the error\\n     * message unnecessarily. For custom revert reasons use {tryMod}.\\n     *\\n     * Counterpart to Solidity's `%` operator. This function uses a `revert`\\n     * opcode (which leaves remaining gas untouched) while Solidity uses an\\n     * invalid opcode to revert (consuming all remaining gas).\\n     *\\n     * Requirements:\\n     *\\n     * - The divisor cannot be zero.\\n     */\\n    function mod(uint256 a, uint256 b, string memory errorMessage) internal pure returns (uint256) {\\n        unchecked {\\n            require(b > 0, errorMessage);\\n            return a % b;\\n        }\\n    }\\n}\\n\",\"keccak256\":\"0x2526b7c6a366fc211bbc176078ab02b83833e7682abcc5b3bed9d700b34e2a3e\",\"license\":\"MIT\"},\"@openzeppelin/contracts/utils/structs/EnumerableSet.sol\":{\"content\":\"// SPDX-License-Identifier: MIT\\n\\npragma solidity ^0.8.0;\\n\\n/**\\n * @dev Library for managing\\n * https://en.wikipedia.org/wiki/Set_(abstract_data_type)[sets] of primitive\\n * types.\\n *\\n * Sets have the following properties:\\n *\\n * - Elements are added, removed, and checked for existence in constant time\\n * (O(1)).\\n * - Elements are enumerated in O(n). No guarantees are made on the ordering.\\n *\\n * ```\\n * contract Example {\\n *     // Add the library methods\\n *     using EnumerableSet for EnumerableSet.AddressSet;\\n *\\n *     // Declare a set state variable\\n *     EnumerableSet.AddressSet private mySet;\\n * }\\n * ```\\n *\\n * As of v3.3.0, sets of type `bytes32` (`Bytes32Set`), `address` (`AddressSet`)\\n * and `uint256` (`UintSet`) are supported.\\n */\\nlibrary EnumerableSet {\\n    // To implement this library for multiple types with as little code\\n    // repetition as possible, we write it in terms of a generic Set type with\\n    // bytes32 values.\\n    // The Set implementation uses private functions, and user-facing\\n    // implementations (such as AddressSet) are just wrappers around the\\n    // underlying Set.\\n    // This means that we can only create new EnumerableSets for types that fit\\n    // in bytes32.\\n\\n    struct Set {\\n        // Storage of set values\\n        bytes32[] _values;\\n\\n        // Position of the value in the `values` array, plus 1 because index 0\\n        // means a value is not in the set.\\n        mapping (bytes32 => uint256) _indexes;\\n    }\\n\\n    /**\\n     * @dev Add a value to a set. O(1).\\n     *\\n     * Returns true if the value was added to the set, that is if it was not\\n     * already present.\\n     */\\n    function _add(Set storage set, bytes32 value) private returns (bool) {\\n        if (!_contains(set, value)) {\\n            set._values.push(value);\\n            // The value is stored at length-1, but we add 1 to all indexes\\n            // and use 0 as a sentinel value\\n            set._indexes[value] = set._values.length;\\n            return true;\\n        } else {\\n            return false;\\n        }\\n    }\\n\\n    /**\\n     * @dev Removes a value from a set. O(1).\\n     *\\n     * Returns true if the value was removed from the set, that is if it was\\n     * present.\\n     */\\n    function _remove(Set storage set, bytes32 value) private returns (bool) {\\n        // We read and store the value's index to prevent multiple reads from the same storage slot\\n        uint256 valueIndex = set._indexes[value];\\n\\n        if (valueIndex != 0) { // Equivalent to contains(set, value)\\n            // To delete an element from the _values array in O(1), we swap the element to delete with the last one in\\n            // the array, and then remove the last element (sometimes called as 'swap and pop').\\n            // This modifies the order of the array, as noted in {at}.\\n\\n            uint256 toDeleteIndex = valueIndex - 1;\\n            uint256 lastIndex = set._values.length - 1;\\n\\n            // When the value to delete is the last one, the swap operation is unnecessary. However, since this occurs\\n            // so rarely, we still do the swap anyway to avoid the gas cost of adding an 'if' statement.\\n\\n            bytes32 lastvalue = set._values[lastIndex];\\n\\n            // Move the last value to the index where the value to delete is\\n            set._values[toDeleteIndex] = lastvalue;\\n            // Update the index for the moved value\\n            set._indexes[lastvalue] = valueIndex; // Replace lastvalue's index to valueIndex\\n\\n            // Delete the slot where the moved value was stored\\n            set._values.pop();\\n\\n            // Delete the index for the deleted slot\\n            delete set._indexes[value];\\n\\n            return true;\\n        } else {\\n            return false;\\n        }\\n    }\\n\\n    /**\\n     * @dev Returns true if the value is in the set. O(1).\\n     */\\n    function _contains(Set storage set, bytes32 value) private view returns (bool) {\\n        return set._indexes[value] != 0;\\n    }\\n\\n    /**\\n     * @dev Returns the number of values on the set. O(1).\\n     */\\n    function _length(Set storage set) private view returns (uint256) {\\n        return set._values.length;\\n    }\\n\\n   /**\\n    * @dev Returns the value stored at position `index` in the set. O(1).\\n    *\\n    * Note that there are no guarantees on the ordering of values inside the\\n    * array, and it may change when more values are added or removed.\\n    *\\n    * Requirements:\\n    *\\n    * - `index` must be strictly less than {length}.\\n    */\\n    function _at(Set storage set, uint256 index) private view returns (bytes32) {\\n        require(set._values.length > index, \\\"EnumerableSet: index out of bounds\\\");\\n        return set._values[index];\\n    }\\n\\n    // Bytes32Set\\n\\n    struct Bytes32Set {\\n        Set _inner;\\n    }\\n\\n    /**\\n     * @dev Add a value to a set. O(1).\\n     *\\n     * Returns true if the value was added to the set, that is if it was not\\n     * already present.\\n     */\\n    function add(Bytes32Set storage set, bytes32 value) internal returns (bool) {\\n        return _add(set._inner, value);\\n    }\\n\\n    /**\\n     * @dev Removes a value from a set. O(1).\\n     *\\n     * Returns true if the value was removed from the set, that is if it was\\n     * present.\\n     */\\n    function remove(Bytes32Set storage set, bytes32 value) internal returns (bool) {\\n        return _remove(set._inner, value);\\n    }\\n\\n    /**\\n     * @dev Returns true if the value is in the set. O(1).\\n     */\\n    function contains(Bytes32Set storage set, bytes32 value) internal view returns (bool) {\\n        return _contains(set._inner, value);\\n    }\\n\\n    /**\\n     * @dev Returns the number of values in the set. O(1).\\n     */\\n    function length(Bytes32Set storage set) internal view returns (uint256) {\\n        return _length(set._inner);\\n    }\\n\\n   /**\\n    * @dev Returns the value stored at position `index` in the set. O(1).\\n    *\\n    * Note that there are no guarantees on the ordering of values inside the\\n    * array, and it may change when more values are added or removed.\\n    *\\n    * Requirements:\\n    *\\n    * - `index` must be strictly less than {length}.\\n    */\\n    function at(Bytes32Set storage set, uint256 index) internal view returns (bytes32) {\\n        return _at(set._inner, index);\\n    }\\n\\n    // AddressSet\\n\\n    struct AddressSet {\\n        Set _inner;\\n    }\\n\\n    /**\\n     * @dev Add a value to a set. O(1).\\n     *\\n     * Returns true if the value was added to the set, that is if it was not\\n     * already present.\\n     */\\n    function add(AddressSet storage set, address value) internal returns (bool) {\\n        return _add(set._inner, bytes32(uint256(uint160(value))));\\n    }\\n\\n    /**\\n     * @dev Removes a value from a set. O(1).\\n     *\\n     * Returns true if the value was removed from the set, that is if it was\\n     * present.\\n     */\\n    function remove(AddressSet storage set, address value) internal returns (bool) {\\n        return _remove(set._inner, bytes32(uint256(uint160(value))));\\n    }\\n\\n    /**\\n     * @dev Returns true if the value is in the set. O(1).\\n     */\\n    function contains(AddressSet storage set, address value) internal view returns (bool) {\\n        return _contains(set._inner, bytes32(uint256(uint160(value))));\\n    }\\n\\n    /**\\n     * @dev Returns the number of values in the set. O(1).\\n     */\\n    function length(AddressSet storage set) internal view returns (uint256) {\\n        return _length(set._inner);\\n    }\\n\\n   /**\\n    * @dev Returns the value stored at position `index` in the set. O(1).\\n    *\\n    * Note that there are no guarantees on the ordering of values inside the\\n    * array, and it may change when more values are added or removed.\\n    *\\n    * Requirements:\\n    *\\n    * - `index` must be strictly less than {length}.\\n    */\\n    function at(AddressSet storage set, uint256 index) internal view returns (address) {\\n        return address(uint160(uint256(_at(set._inner, index))));\\n    }\\n\\n\\n    // UintSet\\n\\n    struct UintSet {\\n        Set _inner;\\n    }\\n\\n    /**\\n     * @dev Add a value to a set. O(1).\\n     *\\n     * Returns true if the value was added to the set, that is if it was not\\n     * already present.\\n     */\\n    function add(UintSet storage set, uint256 value) internal returns (bool) {\\n        return _add(set._inner, bytes32(value));\\n    }\\n\\n    /**\\n     * @dev Removes a value from a set. O(1).\\n     *\\n     * Returns true if the value was removed from the set, that is if it was\\n     * present.\\n     */\\n    function remove(UintSet storage set, uint256 value) internal returns (bool) {\\n        return _remove(set._inner, bytes32(value));\\n    }\\n\\n    /**\\n     * @dev Returns true if the value is in the set. O(1).\\n     */\\n    function contains(UintSet storage set, uint256 value) internal view returns (bool) {\\n        return _contains(set._inner, bytes32(value));\\n    }\\n\\n    /**\\n     * @dev Returns the number of values on the set. O(1).\\n     */\\n    function length(UintSet storage set) internal view returns (uint256) {\\n        return _length(set._inner);\\n    }\\n\\n   /**\\n    * @dev Returns the value stored at position `index` in the set. O(1).\\n    *\\n    * Note that there are no guarantees on the ordering of values inside the\\n    * array, and it may change when more values are added or removed.\\n    *\\n    * Requirements:\\n    *\\n    * - `index` must be strictly less than {length}.\\n    */\\n    function at(UintSet storage set, uint256 index) internal view returns (uint256) {\\n        return uint256(_at(set._inner, index));\\n    }\\n}\\n\",\"keccak256\":\"0x4878ef6c288f4cef3c2a288d32cc548c648831cc55503ad3d9a581ed3b93aad9\",\"license\":\"MIT\"},\"contracts/contexts2/access-control/reentry/ReentryMods.sol\":{\"content\":\"// SPDX-License-Identifier: MIT\\npragma solidity ^0.8.0;\\n\\nimport { AccessControlStorageLib, AccessControlStorage } from \\\"../storage.sol\\\";\\n\\nabstract contract ReentryMods {\\n    modifier nonReentry(bytes32 id) {\\n        AccessControlStorage storage s = AccessControlStorageLib.store();\\n        require(!s.entered[id], \\\"AccessControl: reentered\\\");\\n        s.entered[id] = true;\\n        _;\\n        s.entered[id] = false;\\n    }\\n}\\n\",\"keccak256\":\"0x033c1164af25ef7d35a38a60973bf379b1cc603596914ffd85dcbcf0acdb6970\",\"license\":\"MIT\"},\"contracts/contexts2/access-control/roles/RolesFacet.sol\":{\"content\":\"// SPDX-License-Identifier: MIT\\npragma solidity ^0.8.0;\\n\\nimport { RolesMods } from \\\"./RolesMods.sol\\\";\\nimport { RolesLib } from \\\"./RolesLib.sol\\\";\\nimport { ADMIN } from \\\"../../../shared/roles.sol\\\";\\n\\ncontract RolesFacet is RolesMods {\\n    /**\\n     * @notice Checks if an account has a specific role.\\n     * @param role Encoding of the role to check.\\n     * @param account Address to check the {role} for.\\n     */\\n    function hasRole(bytes32 role, address account)\\n        external\\n        view\\n        returns (bool)\\n    {\\n        return RolesLib.hasRole(role, account);\\n    }\\n\\n    /**\\n     * @notice Grants an account a new role.\\n     * @param role Encoding of the role to give.\\n     * @param account Address to give the {role} to.\\n     *\\n     * Requirements:\\n     *  - Sender must be role admin.\\n     */\\n    function grantRole(bytes32 role, address account)\\n        external\\n        authorized(ADMIN, msg.sender)\\n    {\\n        RolesLib.grantRole(role, account);\\n    }\\n\\n    /**\\n     * @notice Removes a role from an account.\\n     * @param role Encoding of the role to remove.\\n     * @param account Address to remove the {role} from.\\n     *\\n     * Requirements:\\n     *  - Sender must be role admin.\\n     */\\n    function revokeRole(bytes32 role, address account)\\n        external\\n        authorized(ADMIN, msg.sender)\\n    {\\n        RolesLib.revokeRole(role, account);\\n    }\\n\\n    /**\\n     * @notice Removes a role from the sender.\\n     * @param role Encoding of the role to remove.\\n     */\\n    function renounceRole(bytes32 role) external {\\n        RolesLib.revokeRole(role, msg.sender);\\n    }\\n}\\n\",\"keccak256\":\"0x3d02fb1286754a6da3419c81632d23e9444b1fe8cd64283e15fcb07a9b201815\",\"license\":\"MIT\"},\"contracts/contexts2/access-control/roles/RolesLib.sol\":{\"content\":\"// SPDX-License-Identifier: MIT\\npragma solidity ^0.8.0;\\n\\nimport { AccessControlStorageLib, AccessControlStorage } from \\\"../storage.sol\\\";\\n\\nlibrary RolesLib {\\n    function s() private pure returns (AccessControlStorage storage) {\\n        return AccessControlStorageLib.store();\\n    }\\n\\n    /**\\n     * @dev Emitted when `account` is granted `role`.\\n     */\\n    event RoleGranted(\\n        bytes32 indexed role,\\n        address indexed account,\\n        address indexed sender\\n    );\\n\\n    /**\\n     * @dev Emitted when `account` is revoked `role`.\\n     */\\n    event RoleRevoked(\\n        bytes32 indexed role,\\n        address indexed account,\\n        address indexed sender\\n    );\\n\\n    /**\\n     * @notice Checks if an account has a specific role.\\n     */\\n    function hasRole(bytes32 role, address account)\\n        internal\\n        view\\n        returns (bool)\\n    {\\n        return s().roles[role][account];\\n    }\\n\\n    /**\\n     * @dev Gives an account a new role.\\n     * @dev Should only use when circumventing admin checking.\\n     * @dev If account already has the role, no event is emitted.\\n     * @param role Encoding of the role to give.\\n     * @param account Address to give the {role} to.\\n     */\\n    function grantRole(bytes32 role, address account) internal {\\n        if (hasRole(role, account)) return;\\n        s().roles[role][account] = true;\\n        emit RoleGranted(role, account, msg.sender);\\n    }\\n\\n    /**\\n     * @dev Removes a role from an account.\\n     * @dev Should only use when circumventing admin checking.\\n     * @dev If account does not already have the role, no event is emitted.\\n     * @param role Encoding of the role to remove.\\n     * @param account Address to remove the {role} from.\\n     */\\n    function revokeRole(bytes32 role, address account) internal {\\n        if (!hasRole(role, account)) return;\\n        s().roles[role][account] = false;\\n        emit RoleRevoked(role, account, msg.sender);\\n    }\\n}\\n\",\"keccak256\":\"0x36d0f5db441d2c3db7ee04d84c88ce9b14251cff4387702e96965c51acd1bc84\",\"license\":\"MIT\"},\"contracts/contexts2/access-control/roles/RolesMods.sol\":{\"content\":\"// SPDX-License-Identifier: MIT\\npragma solidity ^0.8.0;\\n\\nimport { RolesLib } from \\\"./RolesLib.sol\\\";\\n\\nabstract contract RolesMods {\\n    /**\\n     * @notice Requires that the {account} has {role}\\n     * @param role Encoding of the role to check.\\n     * @param account Address to check the {role} for.\\n     */\\n    modifier authorized(bytes32 role, address account) {\\n        require(\\n            RolesLib.hasRole(role, account),\\n            \\\"AccessControl: not authorized\\\"\\n        );\\n        _;\\n    }\\n}\\n\",\"keccak256\":\"0x25eeaba823d4fc9c52d82a77cfdb409550ad985fc49b30a5560c1f313c1ca905\",\"license\":\"MIT\"},\"contracts/contexts2/access-control/storage.sol\":{\"content\":\"// SPDX-License-Identifier: MIT\\npragma solidity ^0.8.0;\\n\\nstruct AccessControlStorage {\\n    mapping(bytes32 => mapping(address => bool)) roles;\\n    mapping(address => address) owners;\\n    mapping(bytes32 => bool) entered;\\n}\\n\\nbytes32 constant ACCESS_CONTROL_POS = keccak256(\\n    \\\"teller.access_control.storage\\\"\\n);\\n\\nlibrary AccessControlStorageLib {\\n    function store() internal pure returns (AccessControlStorage storage s) {\\n        bytes32 pos = ACCESS_CONTROL_POS;\\n        assembly {\\n            s.slot := pos\\n        }\\n    }\\n}\\n\",\"keccak256\":\"0xf667fb8d6beb59fc6f37d60ada6b811b5861512fedc661c483b9eca042e96112\",\"license\":\"MIT\"},\"contracts/escrow/dapps/interfaces/DataTypes.sol\":{\"content\":\"// SPDX-License-Identifier: agpl-3.0\\npragma solidity ^0.8.0;\\n\\nlibrary DataTypes {\\n    // refer to the aave whitepaper, section 1.1 basic concepts for a formal description of these properties.\\n    struct ReserveData {\\n        //stores the reserve configuration\\n        ReserveConfigurationMap configuration;\\n        //the liquidity index. Expressed in ray\\n        uint128 liquidityIndex;\\n        //variable borrow index. Expressed in ray\\n        uint128 variableBorrowIndex;\\n        //the current supply rate. Expressed in ray\\n        uint128 currentLiquidityRate;\\n        //the current variable borrow rate. Expressed in ray\\n        uint128 currentVariableBorrowRate;\\n        //the current stable borrow rate. Expressed in ray\\n        uint128 currentStableBorrowRate;\\n        uint40 lastUpdateTimestamp;\\n        //tokens addresses\\n        address aTokenAddress;\\n        address stableDebtTokenAddress;\\n        address variableDebtTokenAddress;\\n        //address of the interest rate strategy\\n        address interestRateStrategyAddress;\\n        //the id of the reserve. Represents the position in the list of the active reserves\\n        uint8 id;\\n    }\\n\\n    struct ReserveConfigurationMap {\\n        //bit 0-15: LTV\\n        //bit 16-31: Liq. threshold\\n        //bit 32-47: Liq. bonus\\n        //bit 48-55: Decimals\\n        //bit 56: Reserve is active\\n        //bit 57: reserve is frozen\\n        //bit 58: borrowing is enabled\\n        //bit 59: stable rate borrowing enabled\\n        //bit 60-63: reserved\\n        //bit 64-79: reserve factor\\n        uint256 data;\\n    }\\n\\n    struct UserConfigurationMap {\\n        uint256 data;\\n    }\\n\\n    enum InterestRateMode { NONE, STABLE, VARIABLE }\\n}\\n\",\"keccak256\":\"0xf4301e0bd269f4662f1c1a0ed4f217cd78d670e43d51a025d55878b972d0a8e7\",\"license\":\"agpl-3.0\"},\"contracts/escrow/dapps/interfaces/IAToken.sol\":{\"content\":\"// SPDX-License-Identifier: agpl-3.0\\npragma solidity ^0.8.0;\\n\\ninterface IAToken {\\n    /**\\n     * @dev Mints `amount` aTokens to `user`\\n     * @param user The address receiving the minted tokens\\n     * @param amount The amount of tokens getting minted\\n     * @param index The new liquidity index of the reserve\\n     * @return `true` if the the previous balance of the user was 0\\n     */\\n    function mint(\\n        address user,\\n        uint256 amount,\\n        uint256 index\\n    ) external returns (bool);\\n\\n    /**\\n     * @dev Burns aTokens from `user` and sends the equivalent amount of underlying to `receiverOfUnderlying`\\n     * @param user The owner of the aTokens, getting them burned\\n     * @param receiverOfUnderlying The address that will receive the underlying\\n     * @param amount The amount being burned\\n     * @param index The new liquidity index of the reserve\\n     **/\\n    function burn(\\n        address user,\\n        address receiverOfUnderlying,\\n        uint256 amount,\\n        uint256 index\\n    ) external;\\n\\n    /**\\n     * @dev Transfers the underlying asset to `target`. Used by the LendingPool to transfer\\n     * assets in borrow(), withdraw() and flashLoan()\\n     * @param user The recipient of the aTokens\\n     * @param amount The amount getting transferred\\n     * @return The amount transferred\\n     **/\\n    function transferUnderlyingTo(address user, uint256 amount)\\n        external\\n        returns (uint256);\\n\\n    /**\\n     * @dev Returns the amount of tokens owned by `account`.\\n     */\\n    function balanceOf(address account) external view returns (uint256);\\n\\n    /**\\n     * @dev Returns the remaining number of tokens that `spender` will be\\n     * allowed to spend on behalf of `owner` through {transferFrom}. This is\\n     * zero by default.\\n     *\\n     * This value changes when {approve} or {transferFrom} are called.\\n     */\\n    function allowance(address owner, address spender)\\n        external\\n        view\\n        returns (uint256);\\n\\n    /**\\n     * @dev Sets `amount` as the allowance of `spender` over the caller's tokens.\\n     *\\n     * Returns a boolean value indicating whether the operation succeeded.\\n     *\\n     * IMPORTANT: Beware that changing an allowance with this method brings the risk\\n     * that someone may use both the old and the new allowance by unfortunate\\n     * transaction ordering. One possible solution to mitigate this race\\n     * condition is to first reduce the spender's allowance to 0 and set the\\n     * desired value afterwards:\\n     * https://github.com/ethereum/EIPs/issues/20#issuecomment-263524729\\n     *\\n     * Emits an {Approval} event.\\n     */\\n    function approve(address spender, uint256 amount) external returns (bool);\\n\\n    /**\\n     * @dev Returns the scaled balance of the user. The scaled balance is the sum of all the\\n     * updated stored balance divided by the reserve's liquidity index at the moment of the update\\n     * @param user The user whose balance is calculated\\n     * @return The scaled balance of the user\\n     **/\\n    function scaledBalanceOf(address user) external view returns (uint256);\\n\\n    /**\\n     * @dev Returns the scaled balance of the user and the scaled total supply.\\n     * @param user The address of the user\\n     * @return The scaled balance of the user\\n     * @return The scaled balance and the scaled total supply\\n     **/\\n    function getScaledUserBalanceAndSupply(address user)\\n        external\\n        view\\n        returns (uint256, uint256);\\n\\n    /**\\n     * @dev Returns the scaled total supply of the variable debt token. Represents sum(debt/index)\\n     * @return The scaled total supply\\n     **/\\n    function scaledTotalSupply() external view returns (uint256);\\n}\\n\",\"keccak256\":\"0xf715e63b83c55fcd3476280a0ab871ed763754b3f5404ec779903652a3e7838e\",\"license\":\"agpl-3.0\"},\"contracts/escrow/dapps/interfaces/IAaveLendingPool.sol\":{\"content\":\"// SPDX-License-Identifier: agpl-3.0\\npragma solidity ^0.8.0;\\n\\nimport \\\"./IAaveLendingPoolAddressesProvider.sol\\\";\\nimport \\\"./DataTypes.sol\\\";\\n\\ninterface IAaveLendingPool {\\n    /**\\n     * @dev Deposits an `amount` of underlying asset into the reserve, receiving in return overlying aTokens.\\n     * - E.g. User deposits 100 USDC and gets in return 100 aUSDC\\n     * @param asset The address of the underlying asset to deposit\\n     * @param amount The amount to be deposited\\n     * @param onBehalfOf The address that will receive the aTokens, same as msg.sender if the user\\n     *   wants to receive them on his own wallet, or a different address if the beneficiary of aTokens\\n     *   is a different wallet\\n     * @param referralCode Code used to register the integrator originating the operation, for potential rewards.\\n     *   0 if the action is executed directly by the user, without any middle-man\\n     **/\\n    function deposit(\\n        address asset,\\n        uint256 amount,\\n        address onBehalfOf,\\n        uint16 referralCode\\n    ) external;\\n\\n    /**\\n     * @dev Withdraws an `amount` of underlying asset from the reserve, burning the equivalent aTokens owned\\n     * E.g. User has 100 aUSDC, calls withdraw() and receives 100 USDC, burning the 100 aUSDC\\n     * @param asset The address of the underlying asset to withdraw\\n     * @param amount The underlying amount to be withdrawn\\n     *   - Send the value type(uint256).max in order to withdraw the whole aToken balance\\n     * @param to Address that will receive the underlying, same as msg.sender if the user\\n     *   wants to receive it on his own wallet, or a different address if the beneficiary is a\\n     *   different wallet\\n     * @return The final amount withdrawn\\n     **/\\n    function withdraw(\\n        address asset,\\n        uint256 amount,\\n        address to\\n    ) external returns (uint256);\\n\\n    /**\\n     * @dev Allows users to borrow a specific `amount` of the reserve underlying asset, provided that the borrower\\n     * already deposited enough collateral, or he was given enough allowance by a credit delegator on the\\n     * corresponding debt token (StableDebtToken or VariableDebtToken)\\n     * - E.g. User borrows 100 USDC passing as `onBehalfOf` his own address, receiving the 100 USDC in his wallet\\n     *   and 100 stable/variable debt tokens, depending on the `interestRateMode`\\n     * @param asset The address of the underlying asset to borrow\\n     * @param amount The amount to be borrowed\\n     * @param interestRateMode The interest rate mode at which the user wants to borrow: 1 for Stable, 2 for Variable\\n     * @param referralCode Code used to register the integrator originating the operation, for potential rewards.\\n     *   0 if the action is executed directly by the user, without any middle-man\\n     * @param onBehalfOf Address of the user who will receive the debt. Should be the address of the borrower itself\\n     * calling the function if he wants to borrow against his own collateral, or the address of the credit delegator\\n     * if he has been given credit delegation allowance\\n     **/\\n    function borrow(\\n        address asset,\\n        uint256 amount,\\n        uint256 interestRateMode,\\n        uint16 referralCode,\\n        address onBehalfOf\\n    ) external;\\n\\n    /**\\n     * @notice Repays a borrowed `amount` on a specific reserve, burning the equivalent debt tokens owned\\n     * - E.g. User repays 100 USDC, burning 100 variable/stable debt tokens of the `onBehalfOf` address\\n     * @param asset The address of the borrowed underlying asset previously borrowed\\n     * @param amount The amount to repay\\n     * - Send the value type(uint256).max in order to repay the whole debt for `asset` on the specific `debtMode`\\n     * @param rateMode The interest rate mode at of the debt the user wants to repay: 1 for Stable, 2 for Variable\\n     * @param onBehalfOf Address of the user who will get his debt reduced/removed. Should be the address of the\\n     * user calling the function if he wants to reduce/remove his own debt, or the address of any other\\n     * other borrower whose debt should be removed\\n     * @return The final amount repaid\\n     **/\\n    function repay(\\n        address asset,\\n        uint256 amount,\\n        uint256 rateMode,\\n        address onBehalfOf\\n    ) external returns (uint256);\\n\\n    /**\\n     * @dev Allows a borrower to swap his debt between stable and variable mode, or viceversa\\n     * @param asset The address of the underlying asset borrowed\\n     * @param rateMode The rate mode that the user wants to swap to\\n     **/\\n    function swapBorrowRateMode(address asset, uint256 rateMode) external;\\n\\n    /**\\n     * @dev Rebalances the stable interest rate of a user to the current stable rate defined on the reserve.\\n     * - Users can be rebalanced if the following conditions are satisfied:\\n     *     1. Usage ratio is above 95%\\n     *     2. the current deposit APY is below REBALANCE_UP_THRESHOLD * maxVariableBorrowRate, which means that too much has been\\n     *        borrowed at a stable rate and depositors are not earning enough\\n     * @param asset The address of the underlying asset borrowed\\n     * @param user The address of the user to be rebalanced\\n     **/\\n    function rebalanceStableBorrowRate(address asset, address user) external;\\n\\n    /**\\n     * @dev Allows depositors to enable/disable a specific deposited asset as collateral\\n     * @param asset The address of the underlying asset deposited\\n     * @param useAsCollateral `true` if the user wants to use the deposit as collateral, `false` otherwise\\n     **/\\n    function setUserUseReserveAsCollateral(address asset, bool useAsCollateral)\\n        external;\\n\\n    /**\\n     * @dev Function to liquidate a non-healthy position collateral-wise, with Health Factor below 1\\n     * - The caller (liquidator) covers `debtToCover` amount of debt of the user getting liquidated, and receives\\n     *   a proportionally amount of the `collateralAsset` plus a bonus to cover market risk\\n     * @param collateralAsset The address of the underlying asset used as collateral, to receive as result of the liquidation\\n     * @param debtAsset The address of the underlying borrowed asset to be repaid with the liquidation\\n     * @param user The address of the borrower getting liquidated\\n     * @param debtToCover The debt amount of borrowed `asset` the liquidator wants to cover\\n     * @param receiveAToken `true` if the liquidators wants to receive the collateral aTokens, `false` if he wants\\n     * to receive the underlying collateral asset directly\\n     **/\\n    function liquidationCall(\\n        address collateralAsset,\\n        address debtAsset,\\n        address user,\\n        uint256 debtToCover,\\n        bool receiveAToken\\n    ) external;\\n\\n    /**\\n     * @dev Allows smartcontracts to access the liquidity of the pool within one transaction,\\n     * as long as the amount taken plus a fee is returned.\\n     * IMPORTANT There are security concerns for developers of flashloan receiver contracts that must be kept into consideration.\\n     * For further details please visit https://developers.aave.com\\n     * @param receiverAddress The address of the contract receiving the funds, implementing the IFlashLoanReceiver interface\\n     * @param assets The addresses of the assets being flash-borrowed\\n     * @param amounts The amounts amounts being flash-borrowed\\n     * @param modes Types of the debt to open if the flash loan is not returned:\\n     *   0 -> Don't open any debt, just revert if funds can't be transferred from the receiver\\n     *   1 -> Open debt at stable rate for the value of the amount flash-borrowed to the `onBehalfOf` address\\n     *   2 -> Open debt at variable rate for the value of the amount flash-borrowed to the `onBehalfOf` address\\n     * @param onBehalfOf The address  that will receive the debt in the case of using on `modes` 1 or 2\\n     * @param params Variadic packed params to pass to the receiver as extra information\\n     * @param referralCode Code used to register the integrator originating the operation, for potential rewards.\\n     *   0 if the action is executed directly by the user, without any middle-man\\n     **/\\n    function flashLoan(\\n        address receiverAddress,\\n        address[] calldata assets,\\n        uint256[] calldata amounts,\\n        uint256[] calldata modes,\\n        address onBehalfOf,\\n        bytes calldata params,\\n        uint16 referralCode\\n    ) external;\\n\\n    /**\\n     * @dev Returns the user account data across all the reserves\\n     * @param user The address of the user\\n     * @return totalCollateralETH the total collateral in ETH of the user\\n     * @return totalDebtETH the total debt in ETH of the user\\n     * @return availableBorrowsETH the borrowing power left of the user\\n     * @return currentLiquidationThreshold the liquidation threshold of the user\\n     * @return ltv the loan to value of the user\\n     * @return healthFactor the current health factor of the user\\n     **/\\n    function getUserAccountData(address user)\\n        external\\n        view\\n        returns (\\n            uint256 totalCollateralETH,\\n            uint256 totalDebtETH,\\n            uint256 availableBorrowsETH,\\n            uint256 currentLiquidationThreshold,\\n            uint256 ltv,\\n            uint256 healthFactor\\n        );\\n\\n    /**\\n     * @dev Returns the configuration of the reserve\\n     * @param asset The address of the underlying asset of the reserve\\n     * @return The configuration of the reserve\\n     **/\\n    function getConfiguration(address asset)\\n        external\\n        view\\n        returns (DataTypes.ReserveConfigurationMap memory);\\n\\n    /**\\n     * @dev Returns the configuration of the user across all the reserves\\n     * @param user The user address\\n     * @return The configuration of the user\\n     **/\\n    function getUserConfiguration(address user)\\n        external\\n        view\\n        returns (DataTypes.UserConfigurationMap memory);\\n\\n    /**\\n     * @dev Returns the normalized income normalized income of the reserve\\n     * @param asset The address of the underlying asset of the reserve\\n     * @return The reserve's normalized income\\n     */\\n    function getReserveNormalizedIncome(address asset)\\n        external\\n        view\\n        returns (uint256);\\n\\n    /**\\n     * @dev Returns the normalized variable debt per unit of asset\\n     * @param asset The address of the underlying asset of the reserve\\n     * @return The reserve normalized variable debt\\n     */\\n    function getReserveNormalizedVariableDebt(address asset)\\n        external\\n        view\\n        returns (uint256);\\n\\n    /**\\n     * @dev Returns the state and configuration of the reserve\\n     * @param asset The address of the underlying asset of the reserve\\n     * @return The state of the reserve\\n     **/\\n    function getReserveData(address asset)\\n        external\\n        view\\n        returns (DataTypes.ReserveData memory);\\n\\n    function finalizeTransfer(\\n        address asset,\\n        address from,\\n        address to,\\n        uint256 amount,\\n        uint256 balanceFromAfter,\\n        uint256 balanceToBefore\\n    ) external;\\n\\n    function getReservesList() external view returns (address[] memory);\\n\\n    function getAddressesProvider()\\n        external\\n        view\\n        returns (IAaveLendingPoolAddressesProvider);\\n\\n    function paused() external view returns (bool);\\n}\\n\",\"keccak256\":\"0x8fb5cf82d1c19d0c61151dfb8cf6f6c2a17a15b63600b75f359fe4e9e3acc23f\",\"license\":\"agpl-3.0\"},\"contracts/escrow/dapps/interfaces/IAaveLendingPoolAddressesProvider.sol\":{\"content\":\"// SPDX-License-Identifier: agpl-3.0\\npragma solidity ^0.8.0;\\n\\n/**\\n * @title LendingPoolAddressesProvider contract\\n * @dev Main registry of addresses part of or connected to the protocol, including permissioned roles\\n * - Acting also as factory of proxies and admin of those, so with right to change its implementations\\n * - Owned by the Aave Governance\\n * @author Aave\\n **/\\ninterface IAaveLendingPoolAddressesProvider {\\n    function getMarketId() external view returns (string memory);\\n\\n    function getAddress(bytes32 id) external view returns (address);\\n\\n    function getLendingPool() external view returns (address);\\n\\n    function getPriceOracle() external view returns (address);\\n\\n    function getLendingRateOracle() external view returns (address);\\n}\\n\",\"keccak256\":\"0x9d21dbefac677da74786c27ad0fe1b148c00df63f7a2616d75c2b97c756007b3\",\"license\":\"agpl-3.0\"},\"contracts/escrow/dapps/interfaces/IVault.sol\":{\"content\":\"// SPDX-License-Identifier: MIT\\npragma solidity ^0.8.0;\\n\\n/**\\n    @notice This interface defines the different functions available for a Yearn Vault\\n    @author develop@teller.finance\\n */\\n\\ninterface IVault {\\n    /**\\n        @notice Returns the unwrapped native token address that the Vault takes as deposit\\n        @return The address of the unwrapped token\\n     */\\n    function token() external view returns (address);\\n\\n    /**\\n        @notice Returns the vault's wrapped token name as a string, example 'yearn Dai Stablecoin'\\n        @return The name of the wrapped token\\n     */\\n    function name() external view returns (string memory);\\n\\n    /**\\n        @notice Returns the vault's wrapped token symbol as a string, example 'yDai'\\n        @return The symbol of the wrapped token\\n     */\\n    function symbol() external view returns (string memory);\\n\\n    /**\\n        @notice Returns the amount of decimals for this vault's wrapped token as a uin8\\n        @return The number of decimals for the token\\n     */\\n    function decimals() external view returns (uint8);\\n\\n    /**\\n     * @dev Returns the amount of tokens owned by `account`.\\n     */\\n    function balanceOf(address account) external view returns (uint256);\\n\\n    /**\\n        @notice Returns the address of the Vault's controller\\n        @return The address of the controller contract\\n     */\\n    function controller() external view returns (address);\\n\\n    /**\\n        @notice Returns the address of the Vault's governance contract\\n        @return The contract address\\n     */\\n    function governance() external view returns (address);\\n\\n    /**\\n        @notice Returns the price of the Vault's wrapped token, denominated in the unwrapped native token\\n        @notice Calculation is: nativeTokenBalance/yTokenTotalSupply,\\n            - nativeTokenBalance is the current balance of the native token (example DAI) in the Vault\\n            - yTokenTotalSupply is the total supply of the Vault's wrapped token (example yDAI)\\n        @return The token price\\n     */\\n    function getPricePerFullShare() external view returns (uint256); // v1 vaults\\n\\n    /**\\n        @notice Returns the price of the Vault's wrapped token, denominated in the unwrapped native token\\n        @notice Calculation is: nativeTokenBalance/yTokenTotalSupply,\\n            - nativeTokenBalance is the current balance of the native token (example DAI) in the Vault\\n            - yTokenTotalSupply is the total supply of the Vault's wrapped token (example yDAI)\\n        @return The token price\\n     */\\n    function getPricePerShare() external view returns (uint256); // v2 vaults\\n\\n    /**\\n        @notice Deposits the specified amount of the native unwrapped token (same as token() returns) into the Vault\\n        @param amountToDeposit The amount of tokens to deposit\\n     */\\n    function deposit(uint256 amountToDeposit) external;\\n\\n    /**\\n        @notice Deposits the maximum available amount of the native wrapped token (same as token()) into the Vault\\n     */\\n    function depositAll() external;\\n\\n    /**\\n        @notice Withdraws the specified amount of the native unwrapped token (same as token() returns) from the Vault\\n        @param amountToWithdraw The amount to withdraw\\n     */\\n    function withdraw(uint256 amountToWithdraw) external;\\n\\n    /**\\n        @notice Withdraws the maximum available amount of native unwrapped token (same as token()) from the Vault\\n     */\\n    function withdrawAll() external;\\n}\\n\",\"keccak256\":\"0x0e2e145747f8745bde77d4741abba1a1edb1dab02e9d467eff60cb881bcffd79\",\"license\":\"MIT\"},\"contracts/escrow/dapps/libraries/LibDapps.sol\":{\"content\":\"// SPDX-License-Identifier: MIT\\npragma solidity ^0.8.0;\\n\\n// Interfaces\\nimport { IERC20 } from \\\"@openzeppelin/contracts/token/ERC20/IERC20.sol\\\";\\nimport { IAToken } from \\\"../interfaces/IAToken.sol\\\";\\nimport { IAaveLendingPool } from \\\"../interfaces/IAaveLendingPool.sol\\\";\\nimport {\\n    IAaveLendingPoolAddressesProvider\\n} from \\\"../interfaces/IAaveLendingPoolAddressesProvider.sol\\\";\\nimport {\\n    IUniswapV2Router\\n} from \\\"../../../shared/interfaces/IUniswapV2Router.sol\\\";\\nimport { IVault } from \\\"../interfaces/IVault.sol\\\";\\n\\n// Libraries\\nimport {\\n    EnumerableSet\\n} from \\\"@openzeppelin/contracts/utils/structs/EnumerableSet.sol\\\";\\n\\n// Storage\\nimport { MarketStorageLib, MarketStorage } from \\\"../../../storage/market.sol\\\";\\nimport { AppStorageLib } from \\\"../../../storage/app.sol\\\";\\n\\nlibrary LibDapps {\\n    function s() internal pure returns (MarketStorage storage) {\\n        return MarketStorageLib.store();\\n    }\\n\\n    /**\\n        @notice Grabs the Aave lending pool instance from the Aave lending pool address provider\\n        @return IAaveLendingPool instance address\\n     */\\n    function getAaveLendingPool() internal view returns (IAaveLendingPool) {\\n        return\\n            IAaveLendingPool(\\n                IAaveLendingPoolAddressesProvider(\\n                    0xB53C1a33016B2DC2fF3653530bfF1848a515c8c5\\n                )\\n                    .getLendingPool()\\n            ); // LP address provider contract is immutable and the address will never change\\n    }\\n\\n    /**\\n        @notice Grabs the aToken instance from the lending pool\\n        @param tokenAddress The underlying asset address to get the aToken for\\n        @return IAToken instance\\n     */\\n    function getAToken(address tokenAddress) internal view returns (IAToken) {\\n        return\\n            IAToken(\\n                getAaveLendingPool().getReserveData(tokenAddress).aTokenAddress\\n            );\\n    }\\n\\n    /**\\n        @notice Grabs the yVault address for a token from the asset settings\\n        @param tokenAddress The underlying token address for the associated yVault\\n        @return yVault instance\\n     */\\n    function getYVault(address tokenAddress) internal view returns (IVault) {\\n        return\\n            IVault(\\n                AppStorageLib.store().assetSettings[tokenAddress].addresses[\\n                    keccak256(\\\"yVaultAddress\\\")\\n                ]\\n            );\\n    }\\n}\\n\",\"keccak256\":\"0x8030b206c87d0073fb7dbebfa2ee8a3e93c479d976d6cdaa0c939f2fedaa1525\",\"license\":\"MIT\"},\"contracts/escrow/escrow/ILoansEscrow.sol\":{\"content\":\"// SPDX-License-Identifier: MIT\\npragma solidity ^0.8.0;\\n\\ninterface ILoansEscrow {\\n    function init() external;\\n\\n    /**\\n     * @notice it calls a dapp like YearnFinance at a target contract address with specified calldata\\n     * @param dappAddress address of the target contract address\\n     * @param dappData encoded abi of the function in our contract we want to call\\n     * @return the called data in bytes\\n     */\\n    function callDapp(address dappAddress, bytes calldata dappData)\\n        external\\n        returns (bytes memory);\\n\\n    /**\\n     * @notice it approves the spender to spend a maximum amount of a respective token from a token address\\n     * @param token address of the respective ERC20 token to approve for the spender\\n     * @param spender address of the respective spender who is approved by the token contract\\n     */\\n    function setTokenAllowance(address token, address spender) external;\\n\\n    /**\\n     * @notice it allows user to claim their escrow tokens\\n     * @dev only the owner (TellerDiamond) can make this call on behalf of the users\\n     * @param token address of the respective token contract to claim tokens from\\n     * @param to address where the tokens should be transferred to\\n     * @param amount uint256 amount of tokens to be claimed\\n     */\\n    function claimToken(\\n        address token,\\n        address to,\\n        uint256 amount\\n    ) external;\\n}\\n\",\"keccak256\":\"0xaf67fc4454ffaa4d2f7e46fe7101876e8ebdb1a5426c30f87b8e18cc573ac019\",\"license\":\"MIT\"},\"contracts/escrow/libraries/LibEscrow.sol\":{\"content\":\"// SPDX-License-Identifier: MIT\\npragma solidity ^0.8.0;\\n\\n// Libraries\\nimport { LibDapps } from \\\"../dapps/libraries/LibDapps.sol\\\";\\nimport { LibLoans } from \\\"../../market/libraries/LibLoans.sol\\\";\\nimport { PriceAggLib } from \\\"../../price-aggregator/PriceAggLib.sol\\\";\\nimport {\\n    EnumerableSet\\n} from \\\"@openzeppelin/contracts/utils/structs/EnumerableSet.sol\\\";\\n\\n// Interfaces\\nimport { IERC20 } from \\\"@openzeppelin/contracts/token/ERC20/IERC20.sol\\\";\\nimport { ILoansEscrow } from \\\"../escrow/ILoansEscrow.sol\\\";\\n\\n// Storage\\nimport { MarketStorageLib, MarketStorage } from \\\"../../storage/market.sol\\\";\\n\\nlibrary LibEscrow {\\n    function s() internal pure returns (MarketStorage storage) {\\n        return MarketStorageLib.store();\\n    }\\n\\n    function e(uint256 loanID) internal view returns (ILoansEscrow e_) {\\n        e_ = s().loanEscrows[loanID];\\n    }\\n\\n    /**\\n     * @notice It returns a list of tokens owned by a loan escrow\\n     * @param loanID uint256 index used to return our token list\\n     * @return t_ which is a list of tokens \\n     */\\n    function getEscrowTokens(uint256 loanID)\\n        internal\\n        view\\n        returns (EnumerableSet.AddressSet storage t_)\\n    {\\n        t_ = s().escrowTokens[loanID];\\n    }\\n\\n    /**\\n     * @notice It returns the balance of a respective token in a loan escrow\\n     * @param loanID uint256 index used to point to our loan escrow\\n     * @param token address of respective token to give us the balance of in our loan escrow\\n     * @return uint256 balance of respective token returned in an escrow loan\\n     */\\n    function balanceOf(uint256 loanID, address token)\\n        internal\\n        view\\n        returns (uint256)\\n    {\\n        return IERC20(token).balanceOf(address(e(loanID)));\\n    }\\n\\n    /**\\n     * @notice Adds or removes tokens held by the Escrow contract\\n     * @param loanID The loan ID to update the token list for\\n     * @param tokenAddress The token address to be added or removed\\n     */\\n    function tokenUpdated(uint256 loanID, address tokenAddress) internal {\\n        // Skip if is lending token\\n        if (LibLoans.loan(loanID).lendingToken == tokenAddress) return;\\n\\n        EnumerableSet.AddressSet storage tokens = s().escrowTokens[loanID];\\n        bool contains = EnumerableSet.contains(tokens, tokenAddress);\\n        if (balanceOf(loanID, tokenAddress) > 0) {\\n            if (!contains) {\\n                EnumerableSet.add(tokens, tokenAddress);\\n            }\\n        } else if (contains) {\\n            EnumerableSet.remove(tokens, tokenAddress);\\n        }\\n    }\\n\\n    /**\\n     * @notice Calculate the value of the loan by getting the value of all tokens the Escrow owns.\\n     * @param loanID The loan ID to calculate value for\\n     * @return value_ Escrow total value denoted in the lending token.\\n     */\\n    function calculateTotalValue(uint256 loanID)\\n        internal\\n        view\\n        returns (uint256 value_)\\n    {\\n        address lendingToken = LibLoans.loan(loanID).lendingToken;\\n        value_ += balanceOf(loanID, lendingToken);\\n\\n        EnumerableSet.AddressSet storage tokens = getEscrowTokens(loanID);\\n        if (EnumerableSet.length(tokens) > 0) {\\n            for (uint256 i = 0; i < EnumerableSet.length(tokens); i++) {\\n                uint256 tokenBal =\\n                    balanceOf(loanID, EnumerableSet.at(tokens, i));\\n                value_ += PriceAggLib.valueFor(\\n                    EnumerableSet.at(tokens, i),\\n                    lendingToken,\\n                    tokenBal\\n                );\\n            }\\n        }\\n    }\\n}\\n\",\"keccak256\":\"0x17a7c6b11d6f280948e320525d1e131b89c23f80216918aa070df437a851d915\",\"license\":\"MIT\"},\"contracts/lending/ttoken/ITToken.sol\":{\"content\":\"// SPDX-License-Identifier: MIT\\npragma solidity ^0.8.0;\\n\\n// Contracts\\nimport {\\n    ERC20Upgradeable\\n} from \\\"@openzeppelin/contracts-upgradeable/token/ERC20/ERC20Upgradeable.sol\\\";\\nimport { ERC20 } from \\\"@openzeppelin/contracts/token/ERC20/ERC20.sol\\\";\\nimport {\\n    RolesFacet\\n} from \\\"../../contexts2/access-control/roles/RolesFacet.sol\\\";\\n\\n/**\\n * @notice This contract acts as an interface for the Teller token (TToken).\\n *\\n * @author develop@teller.finance\\n */\\nabstract contract ITToken is ERC20Upgradeable, RolesFacet {\\n    /**\\n     * @notice This event is emitted when a user deposits tokens into the pool.\\n     */\\n    event Mint(\\n        address indexed sender,\\n        uint256 tTokenAmount,\\n        uint256 underlyingAmount\\n    );\\n\\n    /**\\n     * @notice This event is emitted when a user withdraws tokens from the pool.\\n     */\\n    event Redeem(\\n        address indexed sender,\\n        uint256 tTokenAmount,\\n        uint256 underlyingAmount\\n    );\\n\\n    /**\\n     * @notice The token that is the underlying assets for this Teller token.\\n     * @return ERC20 token\\n     */\\n    function underlying() external view virtual returns (ERC20);\\n\\n    /**\\n     * @notice The balance of an {account} denoted in underlying value.\\n     * @param account Address to calculate the underlying balance.\\n     * @return balance_ the balance of the account\\n     */\\n    function balanceOfUnderlying(address account)\\n        external\\n        virtual\\n        returns (uint256 balance_);\\n\\n    /**\\n     * @notice It calculates the current exchange rate for a whole Teller Token based of the underlying token balance.\\n     * @return rate_ The current exchange rate.\\n     */\\n    function exchangeRate() external virtual returns (uint256 rate_);\\n\\n    /**\\n     * @notice It calculates the total supply of the underlying asset.\\n     * @return totalSupply_ the total supply denoted in the underlying asset.\\n     */\\n    function totalUnderlyingSupply()\\n        external\\n        virtual\\n        returns (uint256 totalSupply_);\\n\\n    /**\\n     * @notice It calculates the market state values across a given market.\\n     * @notice Returns values that represent the global state across the market.\\n     * @return totalSupplied Total amount of the underlying asset supplied.\\n     * @return totalBorrowed Total amount borrowed through loans.\\n     * @return totalRepaid The total amount repaid till the current timestamp.\\n     * @return totalInterestRepaid The total amount interest repaid till the current timestamp.\\n     * @return totalOnLoan Total amount currently deployed in loans.\\n     */\\n    function getMarketState()\\n        external\\n        virtual\\n        returns (\\n            uint256 totalSupplied,\\n            uint256 totalBorrowed,\\n            uint256 totalRepaid,\\n            uint256 totalInterestRepaid,\\n            uint256 totalOnLoan\\n        );\\n\\n    /**\\n     * @notice Calculates the current Total Value Locked, denoted in the underlying asset, in the Teller Token pool.\\n     * @return tvl_ The value locked in the pool.\\n     *\\n     * Note: This value includes the amount that is on loan (including ones that were sent to EOAs).\\n     */\\n    function currentTVL() external virtual returns (uint256 tvl_);\\n\\n    /**\\n     * @notice It validates whether supply to debt (StD) ratio is valid including the loan amount.\\n     * @param newLoanAmount the new loan amount to consider the StD ratio.\\n     * @return ratio_ Whether debt ratio for lending pool is valid.\\n     */\\n    function debtRatioFor(uint256 newLoanAmount)\\n        external\\n        virtual\\n        returns (uint16 ratio_);\\n        \\n\\n    /**\\n     * @notice Called by the Teller Diamond contract when a loan has been taken out and requires funds.\\n     * @param recipient The account to send the funds to.\\n     * @param amount Funds requested to fulfill the loan.\\n     */\\n    function fundLoan(address recipient, uint256 amount) external virtual;\\n\\n    /**\\n     * @notice Called by the Teller Diamond contract when a loan has been repaid.\\n     * @param amount Funds deposited back into the pool to repay the principal amount of a loan.\\n     * @param interestAmount Interest value paid into the pool from a loan.\\n     */\\n    function repayLoan(uint256 amount, uint256 interestAmount) external virtual;\\n\\n    /**\\n     * @notice Increase account supply of specified token amount.\\n     * @param amount The amount of underlying tokens to use to mint.\\n     * @return mintAmount_ the amount minted of the specified token\\n     */\\n    function mint(uint256 amount)\\n        external\\n        virtual\\n        returns (uint256 mintAmount_);\\n\\n    /**\\n     * @notice Redeem supplied Teller token underlying value.\\n     * @param amount The amount of Teller tokens to redeem.\\n     */\\n    function redeem(uint256 amount) external virtual;\\n\\n    /**\\n     * @notice Redeem supplied underlying value.\\n     * @param amount The amount of underlying tokens to redeem.\\n     */\\n    function redeemUnderlying(uint256 amount) external virtual;\\n\\n    /**\\n     * @notice Rebalances the funds controlled by Teller Token according to the current strategy.\\n     *\\n     * See {TTokenStrategy}.\\n     */\\n    function rebalance() external virtual;\\n\\n    /**\\n     * @notice Sets a new strategy to use for balancing funds.\\n     * @param strategy Address to the new strategy contract. Must implement the {ITTokenStrategy} interface.\\n     * @param initData Optional data to initialize the strategy.\\n     *\\n     * Requirements:\\n     *  - Sender must have ADMIN role\\n     */\\n    function setStrategy(address strategy, bytes calldata initData)\\n        external\\n        virtual;\\n\\n    /**\\n     * @notice Gets the strategy used for balancing funds.\\n     * @return address of the strategy contract\\n     */\\n    function getStrategy() external view virtual returns (address);\\n\\n    /**\\n     * @notice Sets the restricted state of the platform.\\n     * @param state boolean value that resembles the platform's state\\n     */\\n    function restrict(bool state) external virtual;\\n\\n    /**\\n     * @notice it initializes the Teller Token\\n     * @param admin address of the admin to the respective Teller Token\\n     * @param underlying address of the ERC20 token\\n     */\\n    function initialize(address admin, address underlying) external virtual;\\n}\\n\",\"keccak256\":\"0xf30ac4ef491851477ff9a3dd04974ebe74b529c37a3ef4e05798c3f734ceeb3d\",\"license\":\"MIT\"},\"contracts/market/LoanDataFacet.sol\":{\"content\":\"// SPDX-License-Identifier: MIT\\npragma solidity ^0.8.0;\\n\\n// Libraries\\nimport { LibLoans } from \\\"./libraries/LibLoans.sol\\\";\\nimport { LibEscrow } from \\\"../escrow/libraries/LibEscrow.sol\\\";\\n\\nimport {\\n    EnumerableSet\\n} from \\\"@openzeppelin/contracts/utils/structs/EnumerableSet.sol\\\";\\n\\n// Storage\\nimport { Loan, LoanDebt, LoanTerms } from \\\"../storage/market.sol\\\";\\n\\ncontract LoanDataFacet {\\n    /**\\n     * @notice Returns the information about the given {loanID}.\\n     * @param loanID The loan ID to get information for.\\n     * @return loan_ The loan data.\\n     */\\n    function getLoan(uint256 loanID) external view returns (Loan memory loan_) {\\n        loan_ = LibLoans.s().loans[loanID];\\n    }\\n\\n    /**\\n     * @notice DEPRECATED\\n     * @notice Returns the terms for a specified loan.\\n     * @param loanID The loan ID to get the total amount owed.\\n     * @return LoanTerms The terms that the loan weer created with.\\n     */\\n    function getLoanTerms(uint256 loanID)\\n        external\\n        view\\n        returns (LoanTerms memory)\\n    {\\n        return LibLoans.terms(loanID);\\n    }\\n\\n    /**\\n     * @notice Returns the loan IDs created by the {borrower} account.\\n     * @param borrower The account to get loan IDs for.\\n     * @return loanIDs The IDs for loans created by the {borrower}\\n     */\\n    function getBorrowerLoans(address borrower)\\n        external\\n        view\\n        returns (uint128[] memory loanIDs)\\n    {\\n        return LibLoans.s().borrowerLoans[borrower];\\n    }\\n\\n    /**\\n     * @notice Returns the debt owed for a specified loan.\\n     * @param loanID The loan ID to get the total amount owed.\\n     * @return LoanDebt The principal and interest owed amount.\\n     */\\n    function getDebtOwed(uint256 loanID)\\n        external\\n        view\\n        returns (LoanDebt memory)\\n    {\\n        return LibLoans.debt(loanID);\\n    }\\n\\n    /**\\n     * @notice Returns the total amount owed for a specified loan.\\n     * @param loanID The loan ID to get the total amount owed.\\n     * @return uint256 The total owed amount.\\n     */\\n    function getTotalOwed(uint256 loanID) external view returns (uint256) {\\n        return LibLoans.getTotalOwed(loanID);\\n    }\\n\\n    /**\\n     * @notice Returns the amount of interest owed for a given loan and loan amount.\\n     * @param loanID The loan ID to get the owed interest.\\n     * @param amountBorrow The principal of the loan to take out.\\n     * @return uint256 The interest owed.\\n     */\\n    function getInterestOwedFor(uint256 loanID, uint256 amountBorrow)\\n        external\\n        view\\n        returns (uint256)\\n    {\\n        return LibLoans.getInterestOwedFor(loanID, amountBorrow);\\n    }\\n\\n    /**\\n     * @notice it returns the collateral needed for a loan\\n     * @param loanID the identifier of the loan ID to retrieve collateral from\\n     * @return neededInLendingTokens total collateral needed in lending tokens\\n     * @return neededInCollateralTokens total collateral needed in collateral tokens\\n     * @return escrowLoanValue total collateral needed in loan value\\n     */\\n    function getCollateralNeededInfo(uint256 loanID)\\n        external\\n        view\\n        returns (\\n            uint256 neededInLendingTokens,\\n            uint256 neededInCollateralTokens,\\n            uint256 escrowLoanValue\\n        )\\n    {\\n        return LibLoans.getCollateralNeededInfo(loanID);\\n    }\\n\\n    /**\\n     * @notice it returns the typed address of a loan escrow\\n     * @param loanID the identifier of the respective escrow's loan\\n     * @return escrow_ the typed address of the returned ILoanEscrow\\n     */\\n    function getLoanEscrow(uint256 loanID)\\n        external\\n        view\\n        returns (address escrow_)\\n    {\\n        escrow_ = address(LibLoans.s().loanEscrows[loanID]);\\n    }\\n\\n    /**\\n     * @notice it returns the escrow's total value by calculating the value all the escrow tokens\\n     * @param loanID the identifier of the respective escrow's loan\\n     * @return the total value of the loan escrow\\n     */\\n    function getLoanEscrowValue(uint256 loanID)\\n        external\\n        view\\n        returns (uint256)\\n    {\\n        return LibEscrow.calculateTotalValue(loanID);\\n    }\\n\\n    /**\\n     * @notice it returns the total escrow tokens held by an escrow\\n     * @param loanID the identifier of the respective escrow's loan\\n     * @return tokens_ the tokens held at the escrow loan \\n     */\\n    function getEscrowTokens(uint256 loanID)\\n        external\\n        view\\n        returns (address[] memory tokens_)\\n    {\\n        EnumerableSet.AddressSet storage escrowTokens =\\n            LibEscrow.getEscrowTokens(loanID);\\n        tokens_ = new address[](EnumerableSet.length(escrowTokens));\\n        for (uint256 i; i < tokens_.length; i++) {\\n            tokens_[i] = EnumerableSet.at(escrowTokens, i);\\n        }\\n    }\\n}\\n\",\"keccak256\":\"0x9a57f5de00ce073af4ffb2f74e7d8a15e56bc017826f2c5a393ef5b64554145f\",\"license\":\"MIT\"},\"contracts/market/RepayFacet.sol\":{\"content\":\"// SPDX-License-Identifier: MIT\\npragma solidity ^0.8.0;\\n\\n// Contracts\\nimport { RolesMods } from \\\"../contexts2/access-control/roles/RolesMods.sol\\\";\\nimport { PausableMods } from \\\"../settings/pausable/PausableMods.sol\\\";\\nimport {\\n    ReentryMods\\n} from \\\"../contexts2/access-control/reentry/ReentryMods.sol\\\";\\nimport { AUTHORIZED } from \\\"../shared/roles.sol\\\";\\nimport { LoanDataFacet } from \\\"./LoanDataFacet.sol\\\";\\n\\n// Libraries\\nimport {\\n    IERC20,\\n    SafeERC20\\n} from \\\"@openzeppelin/contracts/token/ERC20/utils/SafeERC20.sol\\\";\\nimport {\\n    EnumerableSet\\n} from \\\"@openzeppelin/contracts/utils/structs/EnumerableSet.sol\\\";\\nimport { LibLoans } from \\\"./libraries/LibLoans.sol\\\";\\nimport { LibCollateral } from \\\"./libraries/LibCollateral.sol\\\";\\nimport { LibDapps } from \\\"../escrow/dapps/libraries/LibDapps.sol\\\";\\nimport { LibEscrow } from \\\"../escrow/libraries/LibEscrow.sol\\\";\\nimport {\\n    PlatformSettingsLib\\n} from \\\"../settings/platform/libraries/PlatformSettingsLib.sol\\\";\\nimport { NumbersLib } from \\\"../shared/libraries/NumbersLib.sol\\\";\\nimport { PriceAggLib } from \\\"../price-aggregator/PriceAggLib.sol\\\";\\nimport { NFTLib } from \\\"../nft/libraries/NFTLib.sol\\\";\\n\\n// Interfaces\\nimport { ITToken } from \\\"../lending/ttoken/ITToken.sol\\\";\\nimport { ILoansEscrow } from \\\"../escrow/escrow/ILoansEscrow.sol\\\";\\n\\n// Storage\\nimport {\\n    MarketStorageLib,\\n    MarketStorage,\\n    Loan,\\n    LoanStatus\\n} from \\\"../storage/market.sol\\\";\\n\\ncontract RepayFacet is RolesMods, ReentryMods, PausableMods {\\n    /**\\n        @notice This event is emitted when a loan has been successfully repaid\\n        @param loanID ID of loan from which collateral was withdrawn\\n        @param borrower Account address of the borrower\\n        @param amountPaid Amount of the loan paid back\\n        @param payer Account address of the payer\\n        @param totalOwed Total amount of the loan to be repaid\\n     */\\n    event LoanRepaid(\\n        uint256 indexed loanID,\\n        address indexed borrower,\\n        uint256 amountPaid,\\n        address payer,\\n        uint256 totalOwed\\n    );\\n\\n    /**\\n     * @notice This event is emitted when a loan has been successfully liquidated\\n     * @param loanID ID of loan from which collateral was withdrawn\\n     * @param borrower Account address of the borrower\\n     * @param liquidator Account address of the liquidator\\n     * @param reward Value in lending token paid out to liquidator\\n     * @param tokensIn Percentage of the collateral price paid by the liquidator to the lending pool\\n     */\\n    event LoanLiquidated(\\n        uint256 indexed loanID,\\n        address indexed borrower,\\n        address liquidator,\\n        uint256 reward,\\n        uint256 tokensIn\\n    );\\n\\n    /**\\n     * @notice Repay this Escrow's loan.\\n     * @dev If the Escrow's balance of the borrowed token is less than the amount to repay, transfer tokens from the sender's wallet.\\n     * @dev Only the owner of the Escrow can call this. If someone else wants to make a payment, they should call the loan manager directly.\\n     * @param loanID The id of the loan being used.\\n     * @param amount The amount being repaid.\\n     */\\n    function escrowRepay(uint256 loanID, uint256 amount)\\n        external\\n        paused(\\\"\\\", false)\\n        authorized(AUTHORIZED, msg.sender)\\n        nonReentry(\\\"\\\")\\n    {\\n        uint256 balance =\\n            LibEscrow.balanceOf(loanID, LibLoans.loan(loanID).lendingToken);\\n        uint256 totalOwed = LibLoans.getTotalOwed(loanID);\\n        // if there isn't enough balance in the escrow, then transfer amount needed to the escrow\\n        if (balance < totalOwed && amount > balance) {\\n            uint256 amountNeeded =\\n                amount > totalOwed ? totalOwed - (balance) : amount - (balance);\\n\\n            SafeERC20.safeTransferFrom(\\n                IERC20(LibLoans.loan(loanID).lendingToken),\\n                msg.sender,\\n                address(LibEscrow.e(loanID)),\\n                amountNeeded\\n            );\\n        }\\n\\n        __repayLoan(loanID, amount, address(LibEscrow.e(loanID)), false);\\n    }\\n\\n    /**\\n     * @notice Make a payment to a loan\\n     * @param loanID The ID of the loan the payment is for\\n     * @param amount The amount of tokens to pay back to the loan\\n     */\\n    function repayLoan(uint256 loanID, uint256 amount)\\n        external\\n        nonReentry(\\\"\\\")\\n        paused(\\\"\\\", false)\\n        authorized(AUTHORIZED, msg.sender)\\n    {\\n        __repayLoan(loanID, amount, msg.sender, false);\\n    }\\n\\n    /**\\n     * @notice it repays the loan, either from an escrow or from a regular address\\n     * @param loanID the identifier of the loan to repay\\n     * @param amount the amount to repay the loan\\n     * @param sender the address of the sender that wants to pay, can also be a loan escrow\\n     * @param isLiquidation is this loan being liquidated?\\n     * @return leftToPay_ the amount left to pay for the loan\\n     */\\n    function __repayLoan(\\n        uint256 loanID,\\n        uint256 amount,\\n        address sender,\\n        bool isLiquidation\\n    ) private returns (uint256 leftToPay_) {\\n        require(amount > 0, \\\"Teller: zero repay\\\");\\n\\n        // calculate the actual amount to repay\\n        leftToPay_ =\\n            LibLoans.debt(loanID).principalOwed +\\n            LibLoans.debt(loanID).interestOwed;\\n        if (leftToPay_ < amount) {\\n            amount = leftToPay_;\\n            leftToPay_ = 0;\\n        } else {\\n            leftToPay_ -= amount;\\n        }\\n\\n        // Get the Teller token for the loan\\n        ITToken tToken =\\n            MarketStorageLib.store().tTokens[\\n                LibLoans.loan(loanID).lendingToken\\n            ];\\n        // Transfer funds from an escrow if an escrow is calling it\\n        // Otherwise, transfer funds from an account\\n        if (address(LibEscrow.e(loanID)) == sender) {\\n            LibEscrow.e(loanID).claimToken(\\n                LibLoans.loan(loanID).lendingToken,\\n                address(tToken),\\n                amount\\n            );\\n        } else {\\n            SafeERC20.safeTransferFrom(\\n                IERC20(LibLoans.loan(loanID).lendingToken),\\n                sender,\\n                address(tToken),\\n                amount\\n            );\\n        }\\n\\n        // Deduct the interest and principal owed\\n        uint256 principalPaid;\\n        uint256 interestPaid;\\n        if (amount < LibLoans.debt(loanID).interestOwed) {\\n            interestPaid = amount;\\n            LibLoans.debt(loanID).interestOwed -= amount;\\n        } else {\\n            if (LibLoans.debt(loanID).interestOwed > 0) {\\n                interestPaid = LibLoans.debt(loanID).interestOwed;\\n                amount -= interestPaid;\\n                LibLoans.debt(loanID).interestOwed = 0;\\n            }\\n\\n            if (amount > 0) {\\n                principalPaid = amount;\\n                LibLoans.debt(loanID).principalOwed -= amount;\\n            }\\n        }\\n\\n        // Tell the Teller Token value has been deposited back into the pool.\\n        tToken.repayLoan(principalPaid, interestPaid);\\n\\n        if (isLiquidation) {\\n            // Make sure there is nothing left to repay on the loan\\n            require(leftToPay_ == 0, \\\"Teller: liquidate partial repay\\\");\\n\\n            // Set loan status\\n            LibLoans.loan(loanID).status = LoanStatus.Liquidated;\\n\\n            // Transfer NFT if linked\\n            NFTLib.liquidateNFT(loanID);\\n        } else {\\n            // if the loan is now fully paid, close it and withdraw borrower collateral\\n            if (leftToPay_ == 0) {\\n                LibLoans.loan(loanID).status = LoanStatus.Closed;\\n                LibCollateral.withdrawAll(\\n                    loanID,\\n                    LibLoans.loan(loanID).borrower\\n                );\\n                // Restake any NFTs linked to loan for borrower\\n                NFTLib.restakeLinked(loanID, LibLoans.loan(loanID).borrower);\\n            }\\n\\n            emit LoanRepaid(\\n                loanID,\\n                LibLoans.loan(loanID).borrower,\\n                amount,\\n                msg.sender,\\n                leftToPay_\\n            );\\n        }\\n    }\\n\\n    /**\\n     * @notice Liquidate a loan if it is expired or under collateralized\\n     * @param loanID The ID of the loan to be liquidated\\n     */\\n    function liquidateLoan(uint256 loanID)\\n        external\\n        nonReentry(\\\"\\\")\\n        paused(\\\"\\\", false)\\n        authorized(AUTHORIZED, msg.sender)\\n    {\\n        Loan storage loan = LibLoans.loan(loanID);\\n        uint256 collateralAmount = LibCollateral.e(loanID).loanSupply(loanID);\\n        require(\\n            RepayLib.isLiquidable(loanID, collateralAmount),\\n            \\\"Teller: does not need liquidation\\\"\\n        );\\n\\n        // Calculate the reward before repaying the loan\\n        (uint256 rewardInLending, uint256 collateralInLending) =\\n            RepayLib.getLiquidationReward(loanID, collateralAmount);\\n\\n        // The liquidator pays the amount still owed on the loan\\n        uint256 amountToLiquidate =\\n            LibLoans.debt(loanID).principalOwed +\\n                LibLoans.debt(loanID).interestOwed;\\n\\n        __repayLoan(loanID, amountToLiquidate, msg.sender, true);\\n\\n        // Payout the liquidator reward owed\\n        if (rewardInLending > 0) {\\n            RepayLib.payOutLiquidator(\\n                loanID,\\n                rewardInLending,\\n                collateralInLending,\\n                collateralAmount,\\n                payable(msg.sender)\\n            );\\n        }\\n\\n        emit LoanLiquidated(\\n            loanID,\\n            loan.borrower,\\n            msg.sender,\\n            rewardInLending,\\n            amountToLiquidate\\n        );\\n    }\\n\\n    /**\\n     * @notice It gets the current liquidation reward for a given loan.\\n     * @param loanID The loan ID to get the info.\\n     * @return inLending_ The value the liquidator will receive denoted in lending tokens.\\n     * @return inCollateral_ The value the liquidator will receive denoted in collateral tokens.\\n     */\\n    function getLiquidationReward(uint256 loanID)\\n        external\\n        view\\n        returns (uint256 inLending_, uint256 inCollateral_)\\n    {\\n        (inLending_, ) = RepayLib.getLiquidationReward(\\n            loanID,\\n            LibCollateral.e(loanID).loanSupply(loanID)\\n        );\\n        inCollateral_ = PriceAggLib.valueFor(\\n            LibLoans.loan(loanID).lendingToken,\\n            LibLoans.loan(loanID).collateralToken,\\n            inLending_\\n        );\\n    }\\n}\\n\\nlibrary RepayLib {\\n    /**\\n     * @notice It checks if a loan can be liquidated.\\n     * @param loanID The loan ID to check.\\n     * @return true if the loan is liquidable.\\n     */\\n    function isLiquidable(uint256 loanID, uint256 collateralAmount)\\n        internal\\n        view\\n        returns (bool)\\n    {\\n        Loan storage loan = LibLoans.loan(loanID);\\n        // Check if loan can be liquidated\\n        if (loan.status != LoanStatus.Active) {\\n            return false;\\n        }\\n\\n        if (loan.collateralRatio > 0) {\\n            // If loan has a collateral ratio, check how much is needed\\n            (, uint256 neededInCollateral, ) =\\n                LoanDataFacet(address(this)).getCollateralNeededInfo(loanID);\\n            if (neededInCollateral > collateralAmount) {\\n                return true;\\n            }\\n        }\\n\\n        // Otherwise, check if the loan has expired\\n        return block.timestamp >= loan.loanStartTime + loan.duration;\\n    }\\n\\n    /**\\n     * @notice It gets the current liquidation reward for a given loan.\\n     * @param loanID The loan ID to get the info.\\n     * @param collateralAmount The amount of collateral for the {loanID}. Passed in to save gas calling the collateral escrow multiple times.\\n     * @return reward_ The value the liquidator will receive denoted in lending tokens.\\n     */\\n    function getLiquidationReward(uint256 loanID, uint256 collateralAmount)\\n        internal\\n        view\\n        returns (uint256 reward_, uint256 collateralValue_)\\n    {\\n        uint256 amountToLiquidate =\\n            LibLoans.debt(loanID).principalOwed +\\n                LibLoans.debt(loanID).interestOwed;\\n\\n        // Max reward is amount repaid on loan plus extra percentage\\n        uint256 maxReward =\\n            amountToLiquidate +\\n                NumbersLib.percent(\\n                    amountToLiquidate,\\n                    uint16(PlatformSettingsLib.getLiquidateRewardPercent())\\n                );\\n\\n        // Calculate available collateral for reward\\n        if (collateralAmount > 0) {\\n            collateralValue_ = PriceAggLib.valueFor(\\n                LibLoans.loan(loanID).collateralToken,\\n                LibLoans.loan(loanID).lendingToken,\\n                collateralAmount\\n            );\\n            reward_ += collateralValue_;\\n        }\\n\\n        // Calculate loan escrow value if collateral not enough to cover reward\\n        if (reward_ < maxReward) {\\n            reward_ += LibEscrow.calculateTotalValue(loanID);\\n        }\\n\\n        // Cap the reward to max\\n        if (reward_ > maxReward) {\\n            reward_ = maxReward;\\n        }\\n    }\\n\\n    /**\\n     * @notice Checks if the loan has an Escrow and claims any tokens then pays out the loan collateral.\\n     * @dev See Escrow.claimTokens for more info.\\n     * @param loanID The loan ID which is being liquidated\\n     * @param rewardInLending The total amount of reward based in the lending token to pay the liquidator\\n     * @param collateralInLending The amount of collateral that is available for the loan denoted in lending tokens\\n     * @param collateralAmount The amount of collateral that is available for the loan\\n     * @param liquidator The address of the liquidator where the liquidation reward will be sent to\\n     */\\n    function payOutLiquidator(\\n        uint256 loanID,\\n        uint256 rewardInLending,\\n        uint256 collateralInLending,\\n        uint256 collateralAmount,\\n        address payable liquidator\\n    ) internal {\\n        // check if loan is liquidated\\n        require(\\n            LibLoans.loan(loanID).status == LoanStatus.Liquidated,\\n            \\\"Teller: loan not liquidated\\\"\\n        );\\n\\n        // if the lending reward is less than the collateral lending tokens, then aggregate\\n        // the value for the lending token with the collateral token and send it to the liquidator\\n        if (rewardInLending <= collateralInLending) {\\n            uint256 rewardInCollateral =\\n                PriceAggLib.valueFor(\\n                    LibLoans.loan(loanID).lendingToken,\\n                    LibLoans.loan(loanID).collateralToken,\\n                    rewardInLending\\n                );\\n\\n            LibCollateral.withdraw(loanID, rewardInCollateral, liquidator);\\n        } else {\\n            // Payout whats available in the collateral token\\n            LibCollateral.withdraw(loanID, collateralAmount, liquidator);\\n\\n            // Claim remaining reward value from the loan escrow\\n            claimEscrowTokensByValue(\\n                loanID,\\n                liquidator,\\n                rewardInLending - collateralInLending\\n            );\\n        }\\n    }\\n\\n    /**\\n     * @dev Send the equivalent of tokens owned by the loan escrow (in lending value) to the recipient,\\n     * @param loanID The loan ID to clam tokens from\\n     * @param recipient address to send the tokens to\\n     * @param value The value of escrow held tokens to be claimed based in lending value\\n     */\\n    function claimEscrowTokensByValue(\\n        uint256 loanID,\\n        address recipient,\\n        uint256 value\\n    ) private {\\n        EnumerableSet.AddressSet storage tokens =\\n            MarketStorageLib.store().escrowTokens[loanID];\\n        uint256 valueLeftToTransfer = value;\\n\\n        // Start with the lending token\\n        valueLeftToTransfer = claimEscrowToken(\\n            loanID,\\n            LibLoans.loan(loanID).lendingToken,\\n            recipient,\\n            valueLeftToTransfer\\n        );\\n\\n        // Cycle through remaining tokens\\n        for (uint256 i = 0; i < EnumerableSet.length(tokens); i++) {\\n            if (valueLeftToTransfer == 0) {\\n                return;\\n            }\\n\\n            valueLeftToTransfer = claimEscrowToken(\\n                loanID,\\n                EnumerableSet.at(tokens, i),\\n                recipient,\\n                valueLeftToTransfer\\n            );\\n        }\\n    }\\n\\n    /**\\n     * @notice it claims the escrow tokens for the liquidator\\n     * @notice it keeps claiming escrow tokens until there aren't anymore tokens or the valueLeftToTransfer is zero\\n     * @param loanID the identifier of the escrow loan to claim tokens from\\n     * @param token the address of the token asset to claim\\n     * @param recipient the address of the recipient to transfer the tokens to\\n     * @param valueLeftToTransfer the value left to transfer to the liquidator that is returned back\\n     * @return the value left to transfer\\n     */\\n    function claimEscrowToken(\\n        uint256 loanID,\\n        address token,\\n        address recipient,\\n        uint256 valueLeftToTransfer\\n    ) private returns (uint256) {\\n        uint256 balance = LibEscrow.balanceOf(loanID, token);\\n        // get value of token balance in lending value\\n        if (balance > 0) {\\n            // If token not the lending token, get value of token\\n            uint256 balanceInLending;\\n            if (token == LibLoans.loan(loanID).lendingToken) {\\n                balanceInLending = balance;\\n            } else {\\n                balanceInLending = PriceAggLib.valueFor(\\n                    token,\\n                    LibLoans.loan(loanID).lendingToken,\\n                    balance\\n                );\\n            }\\n\\n            if (balanceInLending <= valueLeftToTransfer) {\\n                LibEscrow.e(loanID).claimToken(token, recipient, balance);\\n                valueLeftToTransfer -= balanceInLending;\\n            } else {\\n                // Token balance is more than enough so calculate ratio of balance to transfer\\n                uint256 valueToTransfer;\\n                if (token == LibLoans.loan(loanID).lendingToken) {\\n                    valueToTransfer = valueLeftToTransfer;\\n                } else {\\n                    valueToTransfer = NumbersLib.percent(\\n                        balance,\\n                        NumbersLib.ratioOf(\\n                            valueLeftToTransfer,\\n                            balanceInLending\\n                        )\\n                    );\\n                }\\n\\n                LibEscrow.e(loanID).claimToken(\\n                    token,\\n                    recipient,\\n                    valueToTransfer\\n                );\\n                valueLeftToTransfer = 0;\\n            }\\n        }\\n        return valueLeftToTransfer;\\n    }\\n}\\n\",\"keccak256\":\"0x4cc90a273ddbcfc983b98bd42c18990526a79488c972926952d38f26ff69cabb\",\"license\":\"MIT\"},\"contracts/market/collateral/ICollateralEscrow.sol\":{\"content\":\"// SPDX-License-Identifier: MIT\\npragma solidity ^0.8.0;\\n\\ninterface ICollateralEscrow {\\n    /**\\n     * @notice it initializes an escrow\\n     * @param tokenAddress the address of the collateral token to be stored\\n     * @param isWETH check if it's wrapped Ethereum\\n     */\\n    function init(address tokenAddress, bool isWETH) external;\\n\\n    /**\\n     * @notice it deposits an amount of the respective collateral token into the escrow\\n     * @param loanID the ID of the loan\\n     * @param amount the amount of collateral tokens to be deposited\\n     */\\n    function deposit(uint256 loanID, uint256 amount) external payable;\\n\\n    /**\\n     * @notice it withdraws an amount of tokens in a respective loanID on behalf of the borrower\\n     * @dev only the TellerDiamond can make this call on behalf of the borrower\\n     * @param loanID identifier of the loan\\n     * @param amount number of collateral tokens to send\\n     * @param receiver payable address to transfer money to\\n     */\\n    function withdraw(\\n        uint256 loanID,\\n        uint256 amount,\\n        address payable receiver\\n    ) external;\\n\\n    /**\\n     * @notice it returns the supply of the respective loan\\n     * @param loanID the respective loan ID\\n     * @return supply_ the amount in collateral of the respective loan\\n     */\\n    function loanSupply(uint256 loanID) external view returns (uint256 supply_);\\n\\n    /**\\n     * @notice it returns the total supply of the collateral token held by the contract\\n     * @return supply_ the total amount of collateral\\n     */\\n    function totalSupply() external view returns (uint256 supply_);\\n}\\n\",\"keccak256\":\"0x900fed2311f919ba1451a6583ddbf9f3bc8afa8f5189500fff51f0c049258ed3\",\"license\":\"MIT\"},\"contracts/market/libraries/LibCollateral.sol\":{\"content\":\"// SPDX-License-Identifier: MIT\\npragma solidity ^0.8.0;\\n\\n// Interfaces\\nimport { IERC20 } from \\\"@openzeppelin/contracts/token/ERC20/ERC20.sol\\\";\\nimport { ICollateralEscrow } from \\\"../collateral/ICollateralEscrow.sol\\\";\\n\\n// Storage\\nimport { AppStorageLib } from \\\"../../storage/app.sol\\\";\\nimport { MarketStorageLib } from \\\"../../storage/market.sol\\\";\\n\\nlibrary LibCollateral {\\n    /**\\n     * @notice This event is emitted when collateral has been deposited for the loan\\n     * @param loanID ID of the loan for which collateral was deposited\\n     * @param depositor Account that deposited funds\\n     * @param amount Amount of collateral deposited\\n     */\\n    event CollateralDeposited(\\n        uint256 indexed loanID,\\n        address indexed depositor,\\n        uint256 amount\\n    );\\n\\n    /**\\n     * @notice This event is emitted when collateral has been withdrawn\\n     * @param loanID ID of loan from which collateral was withdrawn\\n     * @param receiver Account that received funds\\n     * @param amount Value of collateral withdrawn\\n     */\\n    event CollateralWithdrawn(\\n        uint256 indexed loanID,\\n        address indexed receiver,\\n        uint256 amount\\n    );\\n\\n    /**\\n     * @notice it gets MarketStorage's collateral escrow using the loanID\\n     * @param loanID the loanID to be used\\n     * @return c_ which is the collateral escrow\\n     */\\n    function e(uint256 loanID) internal view returns (ICollateralEscrow c_) {\\n        c_ = MarketStorageLib.store().collateralEscrows[\\n            MarketStorageLib.store().loans[loanID].collateralToken\\n        ];\\n    }\\n\\n    function e(address token) internal view returns (ICollateralEscrow c_) {\\n        c_ = MarketStorageLib.store().collateralEscrows[token];\\n    }\\n\\n    /**\\n     * @notice it deposits an amount of collateral into a collateral escrow's address of a respective loan\\n     * @param loanID the respective loan ID\\n     * @param amount the amount of collateral to deposit\\n     */\\n    function deposit(uint256 loanID, uint256 amount) internal {\\n        e(loanID).deposit{ value: amount }(loanID, amount);\\n\\n        emit CollateralDeposited(loanID, msg.sender, amount);\\n    }\\n\\n    /**\\n     * @notice it withdraws an amount from the collateral escrow\\n     * @param loanID the respective loanID to withdraw from\\n     * @param amount the number of collateral tokens to withdraw\\n     * @param receiver the address who receives the withdrawal\\n     */\\n    function withdraw(\\n        uint256 loanID,\\n        uint256 amount,\\n        address payable receiver\\n    ) internal {\\n        e(loanID).withdraw(loanID, amount, receiver);\\n\\n        emit CollateralWithdrawn(loanID, receiver, amount);\\n    }\\n\\n    /**\\n     * @notice it withdraws the entire supply in collateral of a respective loan to an address\\n     * @param loanID the respective loan's ID\\n     * @param receiver the address of the receiver to withdraw tokens from\\n     */\\n    function withdrawAll(uint256 loanID, address payable receiver) internal {\\n        withdraw(loanID, e(loanID).loanSupply(loanID), receiver);\\n    }\\n\\n    /**\\n     * @notice it initializes a new escrow collateral to hold collateral tokens\\n     * @param token address of the collateral token it holds\\n     */\\n    function createEscrow(address token) internal {\\n        // Check if collateral escrow exists\\n        if (address(e(token)) == address(0)) {\\n            // Create escrow\\n            address escrow =\\n                AppStorageLib.store().collateralEscrowBeacon.cloneProxy(\\\"\\\");\\n            ICollateralEscrow(escrow).init(\\n                token,\\n                // Check if collateral token is WETH\\n                token == AppStorageLib.store().assetAddresses[\\\"WETH\\\"]\\n            );\\n\\n            // Set max allowance\\n            IERC20(token).approve(escrow, type(uint256).max);\\n            // Save escrow address for loan\\n            MarketStorageLib.store().collateralEscrows[\\n                token\\n            ] = ICollateralEscrow(escrow);\\n        }\\n    }\\n}\\n\",\"keccak256\":\"0x84dbab8283357a1cc4210e34642fc8247841a58973778f4f6570398cc3046947\",\"license\":\"MIT\"},\"contracts/market/libraries/LibLoans.sol\":{\"content\":\"// SPDX-License-Identifier: MIT\\npragma solidity ^0.8.0;\\n\\n// Libraries\\nimport { LibEscrow } from \\\"../../escrow/libraries/LibEscrow.sol\\\";\\nimport { NumbersLib } from \\\"../../shared/libraries/NumbersLib.sol\\\";\\nimport {\\n    PlatformSettingsLib\\n} from \\\"../../settings/platform/libraries/PlatformSettingsLib.sol\\\";\\nimport { PriceAggLib } from \\\"../../price-aggregator/PriceAggLib.sol\\\";\\n\\n// Storage\\nimport {\\n    MarketStorageLib,\\n    MarketStorage,\\n    Loan,\\n    LoanStatus,\\n    LoanDebt,\\n    LoanTerms\\n} from \\\"../../storage/market.sol\\\";\\n\\nlibrary LibLoans {\\n    using NumbersLib for int256;\\n    using NumbersLib for uint256;\\n\\n    bytes32 internal constant ID = keccak256(\\\"LOANS\\\");\\n    uint32 internal constant SECONDS_PER_YEAR = 31536000;\\n\\n    function s() internal pure returns (MarketStorage storage) {\\n        return MarketStorageLib.store();\\n    }\\n\\n    /**\\n     * @notice it returns the loan\\n     * @param loanID the ID of the respective loan\\n     * @return l_ the loan \\n     */\\n    function loan(uint256 loanID) internal view returns (Loan storage l_) {\\n        l_ = s().loans[loanID];\\n    }\\n\\n    /**\\n     * @notice it returns the loan debt from a respective loan\\n     * @param loanID the ID of the respective loan\\n     * @return d_ the loan debt from a respective loan\\n     */\\n    function debt(uint256 loanID) internal view returns (LoanDebt storage d_) {\\n        d_ = s().loanDebt[loanID];\\n    }\\n\\n    // DEPRECATED\\n    function terms(uint256 loanID)\\n        internal\\n        view\\n        returns (LoanTerms storage t_)\\n    {\\n        t_ = s()._loanTerms[loanID];\\n    }\\n\\n    /**\\n     * @notice Returns the total amount owed for a specified loan.\\n     * @param loanID The loan ID to get the total amount owed.\\n     * @return owed_ uint256 The total owed amount.\\n     */\\n    function getTotalOwed(uint256 loanID)\\n        internal\\n        view\\n        returns (uint256 owed_)\\n    {\\n        if (loan(loanID).status == LoanStatus.Active) {\\n            owed_ = debt(loanID).principalOwed + (debt(loanID).interestOwed);\\n        }\\n    }\\n\\n    /**\\n     * @notice Returns the amount of interest owed for a given loan and loan amount.\\n     * @param loanID The loan ID to get the owed interest.\\n     * @param amountBorrow The principal of the loan to take out.\\n     * @return uint256 The interest owed.\\n     */\\n    function getInterestOwedFor(uint256 loanID, uint256 amountBorrow)\\n        internal\\n        view\\n        returns (uint256)\\n    {\\n        return amountBorrow.percent(uint16(getInterestRatio(loanID)));\\n    }\\n    \\n    function getCollateralNeeded(uint256 loanID)\\n        internal\\n        view\\n        returns (uint256 _needed)\\n    {\\n        (, _needed, ) = getCollateralNeededInfo(loanID);\\n    }\\n\\n    /**\\n     * @notice it returns the total collateral needed in lending tokens, in collateral tokens and in escrowed loan values\\n     * @param loanID the loanID to get the total collateral needed\\n     * @return neededInLendingTokens total collateral needed in lending tokens\\n     * @return neededInCollateralTokens total collateral needed in collateral tokens\\n     * @return escrowLoanValue total collateral needed in loan value\\n     */\\n    function getCollateralNeededInfo(uint256 loanID)\\n        internal\\n        view\\n        returns (\\n            uint256 neededInLendingTokens,\\n            uint256 neededInCollateralTokens,\\n            uint256 escrowLoanValue\\n        )\\n    {\\n        (neededInLendingTokens, escrowLoanValue) = getCollateralNeededInTokens(\\n            loanID\\n        );\\n\\n        // check if needed lending tokens is zero. if true, then needed collateral tokens is zero. else,\\n        if (neededInLendingTokens == 0) {\\n            neededInCollateralTokens = 0;\\n        } else {\\n            neededInCollateralTokens = PriceAggLib.valueFor(\\n                loan(loanID).lendingToken,\\n                loan(loanID).collateralToken,\\n                neededInLendingTokens\\n            );\\n        }\\n    }\\n\\n    /**\\n     * @notice Returns the minimum collateral value threshold, in the lending token, needed to take out the loan or for it be liquidated.\\n     * @dev If the loan status is TermsSet, then the value is whats needed to take out the loan.\\n     * @dev If the loan status is Active, then the value is the threshold at which the loan can be liquidated at.\\n     * @param loanID The loan ID to get needed collateral info for.\\n     * @return neededInLendingTokens int256 The minimum collateral value threshold required.\\n     * @return escrowLoanValue uint256 The value of the loan held in the escrow contract.\\n     */\\n    function getCollateralNeededInTokens(uint256 loanID)\\n        internal\\n        view\\n        returns (uint256 neededInLendingTokens, uint256 escrowLoanValue)\\n    {\\n        if (loan(loanID).collateralRatio == 0) {\\n            return (0, 0);\\n        }\\n\\n        /*\\n            The collateral to principal owed ratio is the sum of:\\n                * collateral buffer percent\\n                * loan interest rate\\n                * liquidation reward percent\\n                * X factor of additional collateral\\n        */\\n        // * To take out a loan (if status == TermsSet), the required collateral is (max loan amount * the collateral ratio).\\n        // * For the loan to not be liquidated (when status == Active), the minimum collateral is (principal owed * (X collateral factor + liquidation reward)).\\n        // * If the loan has an escrow account, the minimum collateral is ((principal owed - escrow value) * (X collateral factor + liquidation reward)).\\n        if (loan(loanID).status == LoanStatus.TermsSet) {\\n            neededInLendingTokens = loan(loanID).borrowedAmount.percent(\\n                loan(loanID).collateralRatio\\n            );\\n        } else if (loan(loanID).status == LoanStatus.Active) {\\n            uint16 requiredRatio =\\n                loan(loanID).collateralRatio -\\n                    getInterestRatio(loanID) -\\n                    uint16(PlatformSettingsLib.getCollateralBufferValue());\\n\\n            neededInLendingTokens =\\n                debt(loanID).principalOwed +\\n                debt(loanID).interestOwed;\\n            escrowLoanValue = LibEscrow.calculateTotalValue(loanID);\\n            if (\\n                escrowLoanValue > 0 && neededInLendingTokens > escrowLoanValue\\n            ) {\\n                neededInLendingTokens -= escrowLoanValue;\\n            }\\n            neededInLendingTokens = neededInLendingTokens.percent(\\n                requiredRatio\\n            );\\n        }\\n    }\\n\\n    /**\\n     * @notice check if a loan can go to end of auction with a collateral ratio\\n     * @return bool checking if collateralRatio is >= the over collateralized buffer value\\n     */\\n    function canGoToEOAWithCollateralRatio(uint256 collateralRatio)\\n        internal\\n        view\\n        returns (bool)\\n    {\\n        return\\n            collateralRatio >=\\n            PlatformSettingsLib.getOverCollateralizedBufferValue();\\n    }\\n\\n    /**\\n     * @notice Returns the interest ratio based on the loan interest rate for the loan duration.\\n     * @notice There is a minimum threshold of 1%.\\n     * @dev The interest rate is APY (annual percentage yield).\\n     * @param loanID The loan ID to get the interest rate for.\\n     */\\n    function getInterestRatio(uint256 loanID)\\n        internal\\n        view\\n        returns (uint16 ratio_)\\n    {\\n        ratio_ = uint16(\\n            (uint64(loan(loanID).duration) * loan(loanID).interestRate) /\\n                SECONDS_PER_YEAR\\n        );\\n\\n        if (ratio_ == 0) {\\n            ratio_ = 1;\\n        }\\n    }\\n}\\n\",\"keccak256\":\"0xe48b287a583b40e534654e4023422f59a9e6d7dd265d68ae4af43f8da58c09d9\",\"license\":\"MIT\"},\"contracts/nft/ITellerNFT.sol\":{\"content\":\"// SPDX-License-Identifier: MIT\\npragma solidity ^0.8.0;\\npragma experimental ABIEncoderV2;\\n\\n// Interfaces\\nimport \\\"@openzeppelin/contracts/token/ERC721/extensions/IERC721Metadata.sol\\\";\\n\\ninterface ITellerNFT {\\n    struct Tier {\\n        uint256 baseLoanSize;\\n        string[] hashes;\\n        address contributionAsset;\\n        uint256 contributionSize;\\n        uint8 contributionMultiplier;\\n    }\\n\\n    /**\\n     * @notice The contract metadata URI.\\n     * @return the contractURI in string\\n     */\\n    function contractURI() external view returns (string memory);\\n\\n    /**\\n     * @notice It returns information about a Tier with from a tier index\\n     * @param index Tier index to get info.\\n     * @return tier_ the tier which belongs to the respective index\\n     */\\n    function getTier(uint256 index) external view returns (Tier memory tier_);\\n\\n    /**\\n     * @notice it returns the current token index to use as a counter\\n     * @return counter_ the current token index\\n     */\\n    function getCurrentTokenIndex() external view returns (uint256 counter_);\\n\\n    /**\\n     * @notice It returns information about a Tier for a token ID.\\n     * @param tokenId ID of the token to get Tier info.\\n     * @return index_ the index of the tier the tokenID belongs in\\n     * @return tier_ the tier where the tokenID belongs in\\n     */\\n    function getTokenTier(uint256 tokenId)\\n        external\\n        view\\n        returns (uint256 index_, Tier memory tier_);\\n\\n    /**\\n     * @notice It returns an array of hashes in a tier\\n     * @param tierIndex the tier index to get the tier hashes\\n     * @return hashes_ all the tokenID hashes\\n     */\\n    function getTierHashes(uint256 tierIndex)\\n        external\\n        view\\n        returns (string[] memory hashes_);\\n\\n    /**\\n     * @notice It returns an array of token IDs owned by an address.\\n     * @dev It uses a EnumerableSet to store values and loops over each element to add to the array.\\n     * @dev Can be costly if calling within a contract for address with many tokens.\\n     * @return owned the array of tokenIDs owned by the address\\n     */\\n    function getOwnedTokens(address owner)\\n        external\\n        view\\n        returns (uint256[] memory owned);\\n\\n    /**\\n     * @notice It mints a new token for a Tier index.\\n     * @param tierIndex the tier index to mint the token in\\n     * @param owner the owner of the new token\\n     * Requirements:\\n     *  - Caller must be an authorized minter\\n     */\\n    function mint(uint256 tierIndex, address owner) external;\\n\\n    /**\\n     * @notice Adds a new Tier to be minted with the given information.\\n     * @dev It auto increments the index of the next tier to add.\\n     * @param newTier Information about the new tier to add.\\n     *\\n     * Requirements:\\n     *  - Caller must have the {MINTER} role\\n     */\\n    function addTier(Tier memory newTier) external;\\n\\n    /**\\n     * @notice Sets the contract level metadata URI hash.\\n     * @param contractURIHash The hash to the initial contract level metadata.\\n     */\\n    function setContractURIHash(string memory contractURIHash) external;\\n\\n    /**\\n     * @notice Initializes the TellerNFT.\\n     * @param minters The addresses that should allowed to mint tokens.\\n     */\\n    function initialize(address[] calldata minters) external;\\n}\\n\",\"keccak256\":\"0x8a6979965f9d275eff9e034f207d605d7eb3506245de3604d2e02acc8196c2a6\",\"license\":\"MIT\"},\"contracts/nft/TellerNFT.sol\":{\"content\":\"// SPDX-License-Identifier: MIT\\npragma solidity ^0.8.0;\\npragma experimental ABIEncoderV2;\\n\\n// Contracts\\nimport \\\"@openzeppelin/contracts-upgradeable/token/ERC721/ERC721Upgradeable.sol\\\";\\nimport \\\"@openzeppelin/contracts-upgradeable/access/AccessControlUpgradeable.sol\\\";\\n\\n// Libraries\\nimport \\\"@openzeppelin/contracts/utils/Counters.sol\\\";\\nimport \\\"@openzeppelin/contracts/utils/structs/EnumerableSet.sol\\\";\\nimport \\\"@openzeppelin/contracts/utils/math/SafeMath.sol\\\";\\n\\n// Interfaces\\nimport \\\"./ITellerNFT.sol\\\";\\n\\n/*****************************************************************************************************/\\n/**                                             WARNING                                             **/\\n/**                                  THIS CONTRACT IS UPGRADEABLE!                                  **/\\n/**  ---------------------------------------------------------------------------------------------  **/\\n/**  Do NOT change the order of or PREPEND any storage variables to this or new versions of this    **/\\n/**  contract as this will cause the the storage slots to be overwritten on the proxy contract!!    **/\\n/**                                                                                                 **/\\n/**  Visit https://docs.openzeppelin.com/upgrades/2.6/proxies#upgrading-via-the-proxy-pattern for   **/\\n/**  more information.                                                                              **/\\n/*****************************************************************************************************/\\n/**\\n * @notice This contract is used by borrowers to call Dapp functions (using delegate calls).\\n * @notice This contract should only be constructed using it's upgradeable Proxy contract.\\n * @notice In order to call a Dapp function, the Dapp must be added in the DappRegistry instance.\\n *\\n * @author develop@teller.finance\\n */\\ncontract TellerNFT is ITellerNFT, ERC721Upgradeable, AccessControlUpgradeable {\\n    using Counters for Counters.Counter;\\n    using EnumerableSet for EnumerableSet.UintSet;\\n    using SafeMath for uint256;\\n\\n    /* Constants */\\n\\n    bytes32 public constant ADMIN = keccak256(\\\"ADMIN\\\");\\n    bytes32 public constant MINTER = keccak256(\\\"MINTER\\\");\\n\\n    /* State Variables */\\n\\n    // It holds the total number of tiers.\\n    Counters.Counter internal _tierCounter;\\n\\n    // It holds the total number of tokens minted.\\n    Counters.Counter internal _tokenCounter;\\n\\n    // It holds the information about a tier.\\n    mapping(uint256 => Tier) internal _tiers;\\n\\n    // It holds which tier a token ID is in.\\n    mapping(uint256 => uint256) internal _tokenTier;\\n\\n    // It holds a set of token IDs for an owner address.\\n    mapping(address => EnumerableSet.UintSet) internal _ownerTokenIDs;\\n\\n    // Link to the contract metadata\\n    string private _metadataBaseURI;\\n\\n    // Hash to the contract metadata located on the {_metadataBaseURI}\\n    string private _contractURIHash;\\n\\n    /* Modifiers */\\n\\n    modifier onlyAdmin() {\\n        require(hasRole(ADMIN, _msgSender()), \\\"TellerNFT: not admin\\\");\\n        _;\\n    }\\n\\n    modifier onlyMinter() {\\n        require(hasRole(MINTER, _msgSender()), \\\"TellerNFT: not minter\\\");\\n        _;\\n    }\\n\\n    /* External Functions */\\n\\n    /**\\n     * @notice It returns information about a Tier for a token ID.\\n     * @param index Tier index to get info.\\n     * @return tier_ the tier which belongs to the respective index\\n     */\\n    function getTier(uint256 index)\\n        external\\n        view\\n        override\\n        returns (Tier memory tier_)\\n    {\\n        tier_ = _tiers[index];\\n    }\\n\\n    /**\\n     * @notice it returns the current token index to use as a counter\\n     * @return counter_ the current token index\\n     */\\n    function getCurrentTokenIndex()\\n        external\\n        view\\n        override\\n        returns (uint256 counter_)\\n    {\\n        counter_ = _tokenCounter.current();\\n    }\\n\\n    /**\\n     * @notice It returns information about a Tier for a token ID.\\n     * @param tokenId ID of the token to get Tier info.\\n     * @return index_ the index of the tier the tokenID belongs in\\n     * @return tier_ the tier where the tokenID belongs in\\n     */\\n    function getTokenTier(uint256 tokenId)\\n        external\\n        view\\n        override\\n        returns (uint256 index_, Tier memory tier_)\\n    {\\n        index_ = _tokenTier[tokenId];\\n        tier_ = _tiers[index_];\\n    }\\n\\n    /**\\n     * @notice It returns an array of hashes in a tier\\n     * @param tierIndex the tier index to get the tier hashes\\n     * @return hashes_ all the tokenID hashes\\n     */\\n    function getTierHashes(uint256 tierIndex)\\n        external\\n        view\\n        override\\n        returns (string[] memory hashes_)\\n    {\\n        hashes_ = _tiers[tierIndex].hashes;\\n    }\\n\\n    /**\\n     * @notice It returns an array of token IDs owned by an address.\\n     * @dev It uses a EnumerableSet to store values and loops over each element to add to the array.\\n     * @dev Can be costly if calling within a contract for address with many tokens.\\n     * @return owned_ the array of tokenIDs owned by the address\\n     */\\n    function getOwnedTokens(address owner)\\n        external\\n        view\\n        override\\n        returns (uint256[] memory owned_)\\n    {\\n        EnumerableSet.UintSet storage set = _ownerTokenIDs[owner];\\n        owned_ = new uint256[](set.length());\\n        for (uint256 i; i < owned_.length; i++) {\\n            owned_[i] = set.at(i);\\n        }\\n    }\\n\\n    /**\\n     * @notice The contract metadata URI.\\n     * @return the contract URI hash\\n     */\\n    function contractURI() external view override returns (string memory) {\\n        return _contractURIHash;\\n    }\\n\\n    /**\\n     * @notice The token URI is based on the token ID.\\n     * @param tokenId the token identifier that returns the hash of the baseURI and the tokenURI hash\\n     * @return the tokenURI\\n     */\\n    function tokenURI(uint256 tokenId)\\n        public\\n        view\\n        override\\n        returns (string memory)\\n    {\\n        require(_exists(tokenId), \\\"TellerNFT: URI query for nonexistent token\\\");\\n\\n        string memory baseURI = _baseURI();\\n        return\\n            bytes(baseURI).length > 0\\n                ? string(abi.encodePacked(baseURI, _tokenURIHash(tokenId)))\\n                : \\\"\\\";\\n    }\\n\\n    /**\\n     * @notice It mints a new token for a Tier index.\\n     * @param tierIndex Tier to mint token on.\\n     * @param owner The owner of the new token.\\n     *\\n     * Requirements:\\n     *  - Caller must be an authorized minter\\n     */\\n    function mint(uint256 tierIndex, address owner)\\n        external\\n        override\\n        onlyMinter\\n    {\\n        // Get the new token ID\\n        uint256 tokenId = _tokenCounter.current();\\n        _tokenCounter.increment();\\n\\n        // Mint and set the token to the tier index\\n        _safeMint(owner, tokenId);\\n        _tokenTier[tokenId] = tierIndex;\\n\\n        // Set owner\\n        _setOwner(owner, tokenId);\\n    }\\n\\n    /**\\n     * @notice Adds a new Tier to be minted with the given information.\\n     * @dev It auto increments the index of the next tier to add.\\n     * @param newTier Information about the new tier to add.\\n     *\\n     * Requirements:\\n     *  - Caller must have the {MINTER} role\\n     */\\n    function addTier(Tier memory newTier) external override onlyMinter {\\n        Tier storage tier = _tiers[_tierCounter.current()];\\n\\n        tier.baseLoanSize = newTier.baseLoanSize;\\n        tier.hashes = newTier.hashes;\\n        tier.contributionAsset = newTier.contributionAsset;\\n        tier.contributionSize = newTier.contributionSize;\\n        tier.contributionMultiplier = newTier.contributionMultiplier;\\n\\n        _tierCounter.increment();\\n    }\\n\\n    /**\\n     * @notice it removes the minter by revoking the role of the address assigned to MINTER\\n     * @param minter the address of the minter\\n     */\\n    function removeMinter(address minter) external onlyMinter {\\n        revokeRole(MINTER, minter);\\n    }\\n\\n    /**\\n     * @notice it adds the minter to the rule\\n     * @param minter the address of the minter to add to the role of MINTER\\n     */\\n    function addMinter(address minter) public onlyMinter {\\n        _setupRole(MINTER, minter);\\n    }\\n\\n    /**\\n     * @notice Sets the contract level metadata URI hash.\\n     * @param contractURIHash The hash to the initial contract level metadata.\\n     */\\n    function setContractURIHash(string memory contractURIHash)\\n        external\\n        override\\n        onlyAdmin\\n    {\\n        _contractURIHash = contractURIHash;\\n    }\\n\\n    /**\\n     * @notice Initializes the TellerNFT.\\n     * @param minters The addresses that should allowed to mint tokens.\\n     */\\n    function initialize(address[] calldata minters)\\n        external\\n        override\\n        initializer\\n    {\\n        __ERC721_init(\\\"Teller NFT\\\", \\\"TNFT\\\");\\n        __AccessControl_init();\\n\\n        for (uint256 i; i < minters.length; i++) {\\n            _setupRole(MINTER, minters[i]);\\n        }\\n\\n        _metadataBaseURI = \\\"https://gateway.pinata.cloud/ipfs/\\\";\\n        _contractURIHash = \\\"QmWAfQFFwptzRUCdF2cBFJhcB2gfHJMd7TQt64dZUysk3R\\\";\\n    }\\n\\n    /**\\n     * @notice checks if an interface is supported by ITellerNFT, ERC721Upgradeable or AccessControlUpgradeable\\n     * @param interfaceId the identifier of the interface\\n     * @return bool stating whether or not our interface is supported\\n     */\\n    function supportsInterface(bytes4 interfaceId)\\n        public\\n        view\\n        override(AccessControlUpgradeable, ERC721Upgradeable)\\n        returns (bool)\\n    {\\n        return\\n            interfaceId == type(ITellerNFT).interfaceId ||\\n            ERC721Upgradeable.supportsInterface(interfaceId) ||\\n            AccessControlUpgradeable.supportsInterface(interfaceId);\\n    }\\n\\n    /**\\n     * @notice It returns the hash to use for the token URI.\\n     * @param tokenId the tokenId to get the tokenURI hash\\n     * @return the tokenURIHash of our NFT\\n     */\\n    function _tokenURIHash(uint256 tokenId)\\n        internal\\n        view\\n        returns (string memory)\\n    {\\n        string[] storage tierImageHashes = _tiers[_tokenTier[tokenId]].hashes;\\n        return tierImageHashes[tokenId.mod(tierImageHashes.length)];\\n    }\\n\\n    /**\\n     * @notice The base URI path where the token media is hosted.\\n     * @dev Base URI for computing {tokenURI}\\n     * @return our metadata URI\\n     */\\n    function _baseURI() internal view override returns (string memory) {\\n        return _metadataBaseURI;\\n    }\\n\\n    /**\\n     * @notice Moves token to new owner set and then transfers.\\n     * @param from address to transfer from\\n     * @param to address to transfer to\\n     * @param tokenId tokenID to transfer\\n     */\\n    function _transfer(\\n        address from,\\n        address to,\\n        uint256 tokenId\\n    ) internal override {\\n        _setOwner(to, tokenId);\\n        super._transfer(from, to, tokenId);\\n    }\\n\\n    /**\\n     * @notice It removes the token from the current owner set and adds to new owner.\\n     * @param newOwner the new owner of the tokenID\\n     * @param tokenId the ID of the NFT\\n     */\\n    function _setOwner(address newOwner, uint256 tokenId) internal {\\n        address currentOwner = ownerOf(tokenId);\\n        if (currentOwner != address(0)) {\\n            _ownerTokenIDs[currentOwner].remove(tokenId);\\n        }\\n        _ownerTokenIDs[newOwner].add(tokenId);\\n    }\\n\\n    function _msgData() internal pure override returns (bytes calldata) {\\n        return msg.data;\\n    }\\n}\\n\",\"keccak256\":\"0xf42808068c07aa015fcf4a2922fb91cfb456a2f6c8fcfa6daa08b2dfbedf8817\",\"license\":\"MIT\"},\"contracts/nft/libraries/NFTLib.sol\":{\"content\":\"// SPDX-License-Identifier: MIT\\npragma solidity ^0.8.0;\\n\\n// Contracts\\nimport { TellerNFT } from \\\"../TellerNFT.sol\\\";\\n\\n// Libraries\\nimport {\\n    MerkleProof\\n} from \\\"@openzeppelin/contracts/utils/cryptography/MerkleProof.sol\\\";\\nimport {\\n    EnumerableSet\\n} from \\\"@openzeppelin/contracts/utils/structs/EnumerableSet.sol\\\";\\n\\n// Storage\\nimport { AppStorageLib, AppStorage } from \\\"../../storage/app.sol\\\";\\nimport { NFTStorageLib, NFTStorage } from \\\"../../storage/nft.sol\\\";\\n\\nstruct NftLoanSizeProof {\\n    uint256 id;\\n    uint256 baseLoanSize;\\n    bytes32[] proof;\\n}\\n\\nlibrary NFTLib {\\n    function s() internal pure returns (NFTStorage storage s_) {\\n        s_ = NFTStorageLib.store();\\n    }\\n\\n    function nft() internal view returns (TellerNFT nft_) {\\n        nft_ = AppStorageLib.store().nft;\\n    }\\n\\n    /**s\\n     * @notice it transfers the NFT from the sender to the diamond to stake then adds the NFTID to the list of the owner's stakedNFTs\\n     * @param nftID the ID of the NFT to stake\\n     * @param owner the owner of the NFT who will stake the NFT\\n     */\\n    function stake(uint256 nftID, address owner) internal {\\n        // Transfer to diamond\\n        NFTLib.nft().transferFrom(msg.sender, address(this), nftID);\\n        // Add NFT ID to user set\\n        EnumerableSet.add(s().stakedNFTs[owner], nftID);\\n    }\\n\\n    /**\\n     * @notice it unstakes the NFT by removing the NFT ID from the list of the user's staked NFTs\\n     * @param nftID the ID of the NFT to remove from the list of the user's staked NFTs\\n     * @return success_ the boolean value telling us if the user has unsuccessfully unstaked the NFT\\n     */\\n    function unstake(uint256 nftID) internal returns (bool success_) {\\n        success_ = EnumerableSet.remove(s().stakedNFTs[msg.sender], nftID);\\n    }\\n\\n    /**\\n     * @notice it gets the list of staked NFTs from the owner\\n     * @param nftOwner the owner of the staked NFTs to pull from\\n     * @return staked_ the array of the staked NFTs owned by the user\\n     */\\n    function stakedNFTs(address nftOwner)\\n        internal\\n        view\\n        returns (uint256[] memory staked_)\\n    {\\n        EnumerableSet.UintSet storage nfts = s().stakedNFTs[nftOwner];\\n        staked_ = new uint256[](EnumerableSet.length(nfts));\\n        for (uint256 i; i < staked_.length; i++) {\\n            staked_[i] = EnumerableSet.at(nfts, i);\\n        }\\n    }\\n\\n    /**\\n     * @notice if the user fails to pay his loan, then we liquidate the all the NFTs associated with the loan\\n     * @param loanID the identifier of the loan to liquidate the NFTs from\\n     */\\n    function liquidateNFT(uint256 loanID) internal {\\n        // Check if NFTs are linked\\n        EnumerableSet.UintSet storage nfts = s().loanNFTs[loanID];\\n        for (uint256 i; i < EnumerableSet.length(nfts); i++) {\\n            NFTLib.nft().transferFrom(\\n                address(this),\\n                AppStorageLib.store().nftLiquidationController,\\n                EnumerableSet.at(nfts, i)\\n            );\\n        }\\n    }\\n\\n    /**\\n     * @notice it unstakes an NFT and verifies the proof in order to apply the proof to a loan\\n     * @param loanID the identifier of the loan\\n     * @param proof the proof to be attached to a loan after verifying the loan size\\n     */\\n    function applyToLoan(uint256 loanID, NftLoanSizeProof calldata proof)\\n        internal\\n    {\\n        // NFT must be currently staked\\n        // Remove NFT from being staked - returns bool\\n        require(unstake(proof.id), \\\"Teller: borrower nft not staked\\\");\\n\\n        require(verifyLoanSize(proof), \\\"Teller invalid nft proof\\\");\\n\\n        // Apply NFT to loan\\n        EnumerableSet.add(s().loanNFTs[loanID], proof.id);\\n    }\\n\\n    /**\\n     * @notice it finds the loan's NFTs and adds them back to the owner's list of staked NFTs\\n     * @param loanID the identifier of the respective loan to add the NFTs back to the user's staked NFTs\\n     * @param owner the owner to add the unstaked NFTs back to the staked pile\\n     */\\n    function restakeLinked(uint256 loanID, address owner) internal {\\n        // Get linked NFT\\n        EnumerableSet.UintSet storage nfts = s().loanNFTs[loanID];\\n        for (uint256 i; i < EnumerableSet.length(nfts); i++) {\\n            // Restake the NFT\\n            EnumerableSet.add(s().stakedNFTs[owner], EnumerableSet.at(nfts, i));\\n        }\\n    }\\n\\n    /**\\n     * @notice it verifies the NFT id to base loan size using the merkle proof\\n     * @param proof the NFTLoanSizeProof to verify with the nft;s merkle root\\n     * @return verified_ tells us if the loan is verified or not\\n     */\\n    function verifyLoanSize(NftLoanSizeProof calldata proof)\\n        internal\\n        view\\n        returns (bool verified_)\\n    {\\n        verified_ = MerkleProof.verify(\\n            proof.proof,\\n            s().nftMerkleRoot,\\n            keccak256(abi.encodePacked(proof.id, proof.baseLoanSize))\\n        );\\n    }\\n}\\n\",\"keccak256\":\"0x05effea10b3d191192b3b8f5515c2b083d2a8a80c1fae19c6a1abce53d8635fa\",\"license\":\"MIT\"},\"contracts/price-aggregator/PriceAggFacet.sol\":{\"content\":\"// SPDX-License-Identifier: MIT\\npragma solidity ^0.8.0;\\n\\n// Libraries\\nimport { SafeCast } from \\\"@openzeppelin/contracts/utils/math/SafeCast.sol\\\";\\nimport { ChainlinkLib } from \\\"./chainlink/ChainlinkLib.sol\\\";\\nimport { CompoundLib } from \\\"../shared/libraries/CompoundLib.sol\\\";\\n\\n// Interfaces\\nimport {\\n    AggregatorV2V3Interface\\n} from \\\"@chainlink/contracts/src/v0.8/interfaces/AggregatorV2V3Interface.sol\\\";\\nimport { ERC20 } from \\\"@openzeppelin/contracts/token/ERC20/ERC20.sol\\\";\\n\\n// Storage\\nimport { AppStorageLib } from \\\"../storage/app.sol\\\";\\n\\ncontract PriceAggFacet {\\n    uint256 internal constant TEN = 10;\\n\\n    /**\\n     * @notice It returns the price of the token pair as given from the Chainlink Aggregator.\\n     * @dev It tries to use ETH as a pass through asset if the direct pair is not supported.\\n     * @param src Source token address.\\n     * @param dst Destination token address.\\n     * @return int256 The latest answer as given from Chainlink.\\n     */\\n    function getPriceFor(address src, address dst)\\n        external\\n        view\\n        returns (int256)\\n    {\\n        return _priceFor(src, dst);\\n    }\\n\\n    /**\\n     * @notice It calculates the value of a token amount into another.\\n     * @param src Source token address.\\n     * @param dst Destination token address.\\n     * @param srcAmount Amount of the source token to convert into the destination token.\\n     * @return uint256 Value of the source token amount in destination tokens.\\n     */\\n    function getValueFor(\\n        address src,\\n        address dst,\\n        uint256 srcAmount\\n    ) external view returns (uint256) {\\n        return _valueFor(src, srcAmount, uint256(_priceFor(src, dst)));\\n    }\\n\\n    function _valueFor(\\n        address src,\\n        uint256 amount,\\n        uint256 exchangeRate\\n    ) internal view returns (uint256) {\\n        return (amount * exchangeRate) / _oneToken(src);\\n    }\\n\\n    /**\\n     * @notice it returns 10^{numberOfDecimals} for a token\\n     * @param token the address to calculate the decimals for\\n     * @return 10^number of decimals used to calculate the price and value of different token pairs\\n     */\\n    function _oneToken(address token) internal view returns (uint256) {\\n        return TEN**_decimalsFor(token);\\n    }\\n\\n    /**\\n     * @notice It gets the number of decimals for a given token.\\n     * @param addr Token address to get decimals for.\\n     * @return uint8 Number of decimals the given token.\\n     */\\n    function _decimalsFor(address addr) internal view returns (uint8) {\\n        return ERC20(addr).decimals();\\n    }\\n\\n    /**\\n     * @notice it tries to calculate a price from Compound and Chainlink.\\n     * @dev if no price is found on compound, then calculate it on chainlink\\n     * @param src the token address to calculate the price for in dst\\n     * @param dst the token address to retrieve the price of src\\n     * @return price_ the price of src in dst\\n     */\\n    function _priceFor(address src, address dst)\\n        private\\n        view\\n        returns (int256 price_)\\n    {\\n        // If no Compound route, try Chainlink directly.\\n        price_ = int256(_compoundPriceFor(src, dst));\\n        if (price_ == 0) {\\n            price_ = _chainlinkPriceFor(src, dst);\\n            if (price_ == 0) {\\n                revert(\\\"Teller: cannot calc price\\\");\\n            }\\n        }\\n    }\\n\\n    /**\\n     * @notice Tries to get a price from {src} to {dst} by checking if either tokens are from Compound.\\n     * @param src the address of the src token\\n     * @param dst the address of the dst token\\n     * @return the price of the src token in dst token\\n\\n     */\\n    function _compoundPriceFor(address src, address dst)\\n        private\\n        view\\n        returns (uint256)\\n    {\\n        (bool isSrcCompound, address srcUnderlying) = _isCToken(src);\\n        if (isSrcCompound) {\\n            uint256 cRate = CompoundLib.valueInUnderlying(src, _oneToken(src));\\n            if (srcUnderlying == dst) {\\n                return cRate;\\n            } else {\\n                return _calcPriceFromCompoundRate(srcUnderlying, dst, cRate);\\n            }\\n        } else {\\n            (bool isDstCompound, address dstUnderlying) = _isCToken(dst);\\n            if (isDstCompound) {\\n                uint256 cRate =\\n                    CompoundLib.valueOfUnderlying(dst, _oneToken(src));\\n                if (dstUnderlying == src) {\\n                    return cRate;\\n                } else {\\n                    return\\n                        _calcPriceFromCompoundRate(src, dstUnderlying, cRate);\\n                }\\n            }\\n        }\\n\\n        return 0;\\n    }\\n\\n    /**\\n     * @notice Tries to get a price from {src} to {dst} and then converts using a rate from Compound.\\n     * @param src the source token to calculate price for with chainlink\\n     * @param dst the destination token to calculate price for with chainlink\\n     * @param cRate the compound rate to multiply with the price of the dst token\\n     * @return the price of src in dst after scaling the difference in decimal values\\n     */\\n    function _calcPriceFromCompoundRate(\\n        address src,\\n        address dst,\\n        uint256 cRate\\n    ) private view returns (uint256) {\\n        uint256 rate = uint256(_chainlinkPriceFor(src, dst));\\n        uint256 value = (cRate * _oneToken(dst)) / rate;\\n        return _scale(value, _decimalsFor(src), _decimalsFor(dst));\\n    }\\n\\n    /**\\n     * @notice Scales the {value} by the difference in decimal values.\\n     * @param value the the value of the src in dst\\n     * @param srcDecimals src token decimals\\n     * @param dstDecimals dst token decimals\\n     * @return the price of src in dst after scaling the difference in decimal values\\n     */\\n    function _scale(\\n        uint256 value,\\n        uint256 srcDecimals,\\n        uint256 dstDecimals\\n    ) internal pure returns (uint256) {\\n        if (dstDecimals > srcDecimals) {\\n            return value * (TEN**(dstDecimals - srcDecimals));\\n        } else {\\n            return value / (TEN**(srcDecimals - dstDecimals));\\n        }\\n    }\\n\\n    /**\\n     * @notice it tries to calculate the price of {src} in {dst}\\n     * @param src address of source token\\n     * @param dst address of destination token\\n     * @return the price of src token in dst\\n     */\\n    function _chainlinkPriceFor(address src, address dst)\\n        private\\n        view\\n        returns (int256)\\n    {\\n        (address agg, bool foundAgg, bool inverse) =\\n            ChainlinkLib.aggregatorFor(src, dst);\\n        if (foundAgg) {\\n            uint256 price =\\n                SafeCast.toUint256(AggregatorV2V3Interface(agg).latestAnswer());\\n            uint8 resDecimals = AggregatorV2V3Interface(agg).decimals();\\n            if (inverse) {\\n                price = (TEN**(resDecimals + resDecimals)) / price;\\n            }\\n            return\\n                SafeCast.toInt256(\\n                    (_scale(price, resDecimals, _decimalsFor(dst)))\\n                );\\n        } else {\\n            address WETH = AppStorageLib.store().assetAddresses[\\\"WETH\\\"];\\n            if (dst != WETH) {\\n                int256 price1 = _priceFor(src, WETH);\\n                if (price1 > 0) {\\n                    int256 price2 = _priceFor(dst, WETH);\\n                    if (price2 > 0) {\\n                        uint256 dstFactor = TEN**_decimalsFor(dst);\\n                        return (price1 * int256(dstFactor)) / price2;\\n                    }\\n                }\\n            }\\n        }\\n\\n        return 0;\\n    }\\n\\n    /**\\n     * @notice it checks if a token is a cToken. If it is, then get the underlying address\\n     * @param token address of the token\\n     * @return isCToken boolean whether it's a cToken\\n     * @return underlying the address of the cToken\\n     */\\n    function _isCToken(address token)\\n        private\\n        view\\n        returns (bool isCToken, address underlying)\\n    {\\n        isCToken = CompoundLib.isCompoundToken(token);\\n        if (isCToken) {\\n            underlying = CompoundLib.getUnderlying(token);\\n        }\\n    }\\n}\\n\",\"keccak256\":\"0x2efb3d71a1c0fb49f8c455c4fa30d04c69a1617d619035fc400dabdeb2ab0c9e\",\"license\":\"MIT\"},\"contracts/price-aggregator/PriceAggLib.sol\":{\"content\":\"// SPDX-License-Identifier: MIT\\npragma solidity ^0.8.0;\\n\\nimport { PriceAggFacet } from \\\"./PriceAggFacet.sol\\\";\\n\\n// Storage\\nimport { AppStorageLib } from \\\"../storage/app.sol\\\";\\n\\n/**\\n * @notice Helper functions to staticcall into the PriceAggFacet from other facets. See {PriceAggFacet.getPriceFor}\\n */\\nlibrary PriceAggLib {\\n    /**\\n     * @notice It calculates the value of one token amount into another\\n     * @param src the source token\\n     * @param dst the destination token\\n     * @param srcAmount the amount of source token\\n     * @return value_ the returned value of src in dst\\n     */\\n    function valueFor(\\n        address src,\\n        address dst,\\n        uint256 srcAmount\\n    ) internal view returns (uint256 value_) {\\n        value_ = PriceAggFacet(address(this)).getValueFor(src, dst, srcAmount);\\n    }\\n\\n    /**\\n     * @notice It returns the price of the token pair as given from Compound.\\n     * @dev if no compound price is calculated, then it checks Chainlink price Aggregator\\n     * @param src the address of the source token\\n     * @param dst the address of the desitnation token\\n     * @return price_ gets the price of src in dst\\n     */\\n    function priceFor(address src, address dst)\\n        internal\\n        view\\n        returns (int256 price_)\\n    {\\n        price_ = PriceAggFacet(address(this)).getPriceFor(src, dst);\\n    }\\n}\\n\",\"keccak256\":\"0xff59eee567fa4a7f5cac432e31d918be92834f04614f49572d3984a5b030ac79\",\"license\":\"MIT\"},\"contracts/price-aggregator/chainlink/ChainlinkLib.sol\":{\"content\":\"// SPDX-License-Identifier: MIT\\npragma solidity ^0.8.0;\\n\\n// Libraries\\nimport {\\n    EnumerableSet\\n} from \\\"@openzeppelin/contracts/utils/structs/EnumerableSet.sol\\\";\\n\\n// Storage\\nimport {\\n    PriceAggStorageLib,\\n    ChainlinkAggStorage\\n} from \\\"../../storage/price-aggregator.sol\\\";\\n\\nlibrary ChainlinkLib {\\n    function s() internal view returns (ChainlinkAggStorage storage) {\\n        return PriceAggStorageLib.store().chainlink;\\n    }\\n\\n    /**\\n     * @notice It grabs the Chainlink Aggregator contract address for the token pair if it is supported.\\n     * @param src Source token address.\\n     * @param dst Destination token address.\\n     * @return aggregator The Chainlink Aggregator address.\\n     * @return found whether or not the ChainlinkAggregator exists.\\n     * @return inverse whether or not the values from the Aggregator should be considered inverted.\\n     */\\n    function aggregatorFor(address src, address dst)\\n        internal\\n        view\\n        returns (\\n            address aggregator,\\n            bool found,\\n            bool inverse\\n        )\\n    {\\n        aggregator = s().aggregators[src][dst];\\n        if (aggregator != address(0)) {\\n            found = true;\\n        } else {\\n            aggregator = s().aggregators[dst][src];\\n            if (aggregator != address(0)) {\\n                found = true;\\n                inverse = true;\\n            }\\n        }\\n    }\\n\\n    /**\\n     * @dev Checks if a token address is supported by Chainlink (has a pair aggregator).\\n     * @param token Token address to check if is supported.\\n     * @return isSupported_ true if there is at least 1 pair aggregator for {token}\\n     */\\n    function isTokenSupported(address token)\\n        internal\\n        view\\n        returns (bool isSupported_)\\n    {\\n        isSupported_ = EnumerableSet.contains(s().supportedTokens, token);\\n    }\\n}\\n\",\"keccak256\":\"0x84fcff4e22dcf0a954794b08f4a5e66cb0b9522a74cccb7d80c07e7032440f42\",\"license\":\"MIT\"},\"contracts/settings/pausable/PausableMods.sol\":{\"content\":\"// SPDX-License-Identifier: MIT\\npragma solidity ^0.8.0;\\n\\nimport { AppStorageLib } from \\\"../../storage/app.sol\\\";\\n\\nabstract contract PausableMods {\\n    /**\\n     * @notice Requires that the state of the protocol AND the given facet id equal {state}.\\n     * @param id id of the facet to check if is paused.\\n     * @param state Boolean that the protocol AND facet should be in.\\n     */\\n    modifier paused(bytes32 id, bool state) {\\n        require(\\n            __isPaused(\\\"\\\") == state && __isPaused(id) == state,\\n            __pausedMessage(state)\\n        );\\n        _;\\n    }\\n\\n    /**\\n     * @dev Checks if the given id is paused.\\n     * @param id Encoded id of the facet to check if is paused.\\n     * @return the bool to tell us if the facet is paused (true) or not (false)\\n     */\\n    function __isPaused(bytes32 id) private view returns (bool) {\\n        return AppStorageLib.store().paused[id];\\n    }\\n\\n    /**\\n     * @dev Gets the message that should be reverted with given a state it should be in.\\n     * @param state Boolean that an id should be in.\\n     * @return a message stating whether the facet is paused or not\\n     */\\n    function __pausedMessage(bool state) private pure returns (string memory) {\\n        return state ? \\\"Pausable: not paused\\\" : \\\"Pausable: paused\\\";\\n    }\\n}\\n\",\"keccak256\":\"0x2d3f848ee56ae5fa365539c2509c03c167affc89c89f98bb98cb9b83fbe8ae4c\",\"license\":\"MIT\"},\"contracts/settings/platform/libraries/PlatformSettingsLib.sol\":{\"content\":\"// SPDX-License-Identifier: MIT\\npragma solidity ^0.8.0;\\n\\nimport { AppStorageLib } from \\\"../../../storage/app.sol\\\";\\nimport \\\"../names.sol\\\" as NAMES;\\nimport {\\n    RolesMods\\n} from \\\"../../../contexts2/access-control/roles/RolesMods.sol\\\";\\nimport { ADMIN, AUTHORIZED } from \\\"../../../shared/roles.sol\\\";\\nimport { RolesLib } from \\\"../../../contexts2/access-control/roles/RolesLib.sol\\\";\\n\\n// It defines a platform settings. It includes: value, min, and max values.\\nstruct PlatformSetting {\\n    uint256 value;\\n    uint256 min;\\n    uint256 max;\\n    bool exists;\\n}\\n\\n/**\\n * @notice Utility library of inline functions on the PlatformSetting struct.\\n *\\n * @author develop@teller.finance\\n */\\nlibrary PlatformSettingsLib {\\n    function s(bytes32 name) internal view returns (PlatformSetting storage) {\\n        return AppStorageLib.store().platformSettings[name];\\n    }\\n\\n    /**\\n     * @notice It gets the current \\\"RequiredSubmissionsPercentage\\\" setting's value\\n     * @return value_ the current value.\\n     */\\n    function getRequiredSubmissionsPercentageValue()\\n        internal\\n        view\\n        returns (uint256 value_)\\n    {\\n        value_ = s(NAMES.REQUIRED_SUBMISSIONS_PERCENTAGE).value;\\n    }\\n\\n    /**\\n     * @notice It gets the current \\\"MaximumTolerance\\\" setting's value\\n     * @return value_ the current value.\\n     */\\n    function getMaximumToleranceValue() internal view returns (uint256 value_) {\\n        value_ = s(NAMES.MAXIMUM_TOLERANCE).value;\\n    }\\n\\n    /**\\n     * @notice It gets the current \\\"ResponseExpiryLength\\\" setting's value\\n     * @return value_ the current value.\\n     */\\n    function getResponseExpiryLengthValue()\\n        internal\\n        view\\n        returns (uint256 value_)\\n    {\\n        value_ = s(NAMES.RESPONSE_EXPIRY_LENGTH).value;\\n    }\\n\\n    /**\\n     * @notice It gets the current \\\"SafetyInterval\\\" setting's value\\n     * @return value_ the current value.\\n     */\\n    function getSafetyIntervalValue() internal view returns (uint256 value_) {\\n        value_ = s(NAMES.SAFETY_INTERVAL).value;\\n    }\\n\\n    /**\\n     * @notice It gets the current \\\"TermsExpiryTime\\\" setting's value\\n     * @return value_ the current value.\\n     */\\n    function getTermsExpiryTimeValue() internal view returns (uint256 value_) {\\n        value_ = s(NAMES.TERMS_EXPIRY_TIME).value;\\n    }\\n\\n    /**\\n     * @notice It gets the current \\\"LiquidateRewardPercent\\\" setting's value\\n     * @return value_ the current value.\\n     */\\n    function getLiquidateRewardPercent()\\n        internal\\n        view\\n        returns (uint256 value_)\\n    {\\n        value_ = s(NAMES.LIQUIDATE_REWARD_PERCENT).value;\\n    }\\n\\n    /**\\n     * @notice It gets the current \\\"MaximumLoanDuration\\\" setting's value\\n     * @return value_ the current value.\\n     */\\n    function getMaximumLoanDurationValue()\\n        internal\\n        view\\n        returns (uint256 value_)\\n    {\\n        value_ = s(NAMES.MAXIMUM_LOAN_DURATION).value;\\n    }\\n\\n    /**\\n     * @notice It gets the current \\\"RequestLoanTermsRateLimit\\\" setting's value\\n     * @return value_ the current value.\\n     */\\n    function getRequestLoanTermsRateLimitValue()\\n        internal\\n        view\\n        returns (uint256 value_)\\n    {\\n        value_ = s(NAMES.REQUEST_LOAN_TERMS_RATE_LIMIT).value;\\n    }\\n\\n    /**\\n     * @notice It gets the current \\\"CollateralBuffer\\\" setting's value\\n     * @return value_ the current value.\\n     */\\n    function getCollateralBufferValue() internal view returns (uint256 value_) {\\n        value_ = s(NAMES.COLLATERAL_BUFFER).value;\\n    }\\n\\n    /**\\n     * @notice It gets the current \\\"OverCollateralizedBuffer\\\" setting's value\\n     * @return value_ the current value.\\n     */\\n    function getOverCollateralizedBufferValue()\\n        internal\\n        view\\n        returns (uint256 value_)\\n    {\\n        value_ = s(NAMES.OVER_COLLATERALIZED_BUFFER).value;\\n    }\\n}\\n\",\"keccak256\":\"0xbeef1937dc1ed1f6f78b80f0737f018565ab264184cf05ef54c3c28ecd55a09b\",\"license\":\"MIT\"},\"contracts/settings/platform/names.sol\":{\"content\":\"// SPDX-License-Identifier: MIT\\npragma solidity ^0.8.0;\\n\\n/**\\n        @dev The setting name for the required subsmission settings.\\n        @dev This is the minimum percentage of node responses that will be required by the platform to either take out a loan, and to claim accrued interest. If the number of node responses are less than the ones specified here, the loan or accrued interest claim request will be rejected by the platform\\n     */\\nbytes32 constant REQUIRED_SUBMISSIONS_PERCENTAGE = keccak256(\\n    \\\"RequiredSubmissionsPercentage\\\"\\n);\\n\\n/**\\n        @dev The setting name for the maximum tolerance settings.\\n        @dev This is the maximum tolerance for the values submitted (by nodes) when they are aggregated (average). It is used in the consensus mechanisms.\\n        @dev This is a percentage value with 2 decimal places.\\n            i.e. maximumTolerance of 325 => tolerance of 3.25% => 0.0325 of value\\n            i.e. maximumTolerance of 0 => It means all the values submitted must be equals.\\n        @dev The max value is 100% => 10000\\n     */\\nbytes32 constant MAXIMUM_TOLERANCE = keccak256(\\\"MaximumTolerance\\\");\\n/**\\n        @dev The setting name for the response expiry length settings.\\n        @dev This is the maximum time (in seconds) a node has to submit a response. After that time, the response is considered expired and will not be accepted by the protocol.\\n     */\\n\\nbytes32 constant RESPONSE_EXPIRY_LENGTH = keccak256(\\\"ResponseExpiryLength\\\");\\n\\n/**\\n        @dev The setting name for the safety interval settings.\\n        @dev This is the minimum time you need to wait (in seconds) between the last time you deposit collateral and you take out the loan.\\n        @dev It is used to avoid potential attacks using Flash Loans (AAVE) or Flash Swaps (Uniswap V2).\\n     */\\nbytes32 constant SAFETY_INTERVAL = keccak256(\\\"SafetyInterval\\\");\\n\\n/**\\n        @dev The setting name for the term expiry time settings.\\n        @dev This represents the time (in seconds) that loan terms will be available after requesting them.\\n        @dev After this time, the loan terms will expire and the borrower will need to request it again.\\n     */\\nbytes32 constant TERMS_EXPIRY_TIME = keccak256(\\\"TermsExpiryTime\\\");\\n\\n/**\\n        @dev The setting name for the liquidation reward percent setting.\\n        @dev It represents the percentage value (with 2 decimal places) for the MAX liquidation reward.\\n            i.e. an ETH liquidation price at 5% is stored as 500\\n     */\\nbytes32 constant LIQUIDATE_REWARD_PERCENT = keccak256(\\\"LiquidateRewardPercent\\\");\\n\\n/**\\n        @dev The setting name for the maximum loan duration settings.\\n        @dev The maximum loan duration setting is defined in seconds. Loans will not be given for timespans larger than the one specified here.\\n     */\\nbytes32 constant MAXIMUM_LOAN_DURATION = keccak256(\\\"MaximumLoanDuration\\\");\\n\\n/**\\n        @dev The setting name for the request loan terms rate limit settings.\\n        @dev The request loan terms rate limit setting is defined in seconds.\\n     */\\nbytes32 constant REQUEST_LOAN_TERMS_RATE_LIMIT = keccak256(\\n    \\\"RequestLoanTermsRateLimit\\\"\\n);\\n\\n/**\\n        @dev The setting name for the collateral buffer.\\n        @dev The collateral buffer is a safety buffer above the required collateral amount to liquidate a loan. It is required to ensure the loan does not get liquidated immediately after the loan is taken out if the value of the collateral asset deposited drops drastically.\\n        @dev It represents the percentage value (with 2 decimal places) of a collateral buffer.\\n            e.g.: collateral buffer at 100% is stored as 10000.\\n     */\\nbytes32 constant COLLATERAL_BUFFER = keccak256(\\\"CollateralBuffer\\\");\\n\\n/**\\n        @dev The setting name for the over collateralized buffer.\\n        @dev The over collateralized buffer is the minimum required collateral ratio in order for a loan to be taken out without an Escrow contract and for the funds to go to the borrower's EOA (external overridely owned account).\\n        @dev It represents the percentage value (with 2 decimal places) of a over collateralized buffer.\\n            e.g.: over collateralized buffer at 130% is stored as 13000.\\n     */\\nbytes32 constant OVER_COLLATERALIZED_BUFFER = keccak256(\\n    \\\"OverCollateralizedBuffer\\\"\\n);\\n\",\"keccak256\":\"0xacf6bcb8c4afd2f337a0161e8be64b016c1b350d336cd862245dd922fcd10f33\",\"license\":\"MIT\"},\"contracts/shared/interfaces/ICErc20.sol\":{\"content\":\"// SPDX-License-Identifier: MIT\\npragma solidity ^0.8.0;\\n\\nimport \\\"./IComptroller.sol\\\";\\n\\ninterface ICErc20 {\\n    /*** User Interface ***/\\n\\n    /**\\n        @notice The mint function transfers an asset into the protocol, which begins accumulating interest based on the current Supply Rate for the asset. The user receives a quantity of cTokens equal to the underlying tokens supplied, divided by the current Exchange Rate.\\n        @param mintAmount The amount of the asset to be supplied, in units of the underlying asset.\\n        @return 0 on success, otherwise an Error code\\n        @dev msg.sender The account which shall supply the asset, and own the minted cTokens.\\n        @dev Before supplying an asset, users must first approve the cToken to access their token balance.\\n     */\\n    function mint(uint256 mintAmount) external returns (uint256);\\n\\n    /**\\n        @notice The redeem function converts a specified quantity of cTokens into the underlying asset, and returns them to the user. The amount of underlying tokens received is equal to the quantity of cTokens redeemed, multiplied by the current Exchange Rate. The amount redeemed must be less than the user's Account Liquidity and the market's available liquidity.\\n        @param redeemTokens The number of cTokens to be redeemed.\\n        @return 0 on success, otherwise an Error code\\n        @dev msg.sender The account to which redeemed funds shall be transferred.\\n     */\\n    function redeem(uint256 redeemTokens) external returns (uint256);\\n\\n    /**\\n        @notice The redeem underlying function converts cTokens into a specified quantity of the underlying asset, and returns them to the user. The amount of cTokens redeemed is equal to the quantity of underlying tokens received, divided by the current Exchange Rate. The amount redeemed must be less than the user's Account Liquidity and the market's available liquidity.\\n        @param redeemAmount The amount of underlying to be redeemed.\\n        @return 0 on success, otherwise an Error code\\n        @dev msg.sender The account to which redeemed funds shall be transferred.\\n     */\\n    function redeemUnderlying(uint256 redeemAmount) external returns (uint256);\\n\\n    /**\\n        @notice The borrow function transfers an asset from the protocol to the user, and creates a borrow balance which begins accumulating interest based on the Borrow Rate for the asset. The amount borrowed must be less than the user's Account Liquidity and the market's available liquidity.\\n        @param borrowAmount The amount of the underlying asset to be borrowed.\\n        @return 0 on success, otherwise an Error code\\n        @dev msg.sender The account to which borrowed funds shall be transferred.\\n     */\\n    function borrow(uint256 borrowAmount) external returns (uint256);\\n\\n    /**\\n        @notice The repay function transfers an asset into the protocol, reducing the user's borrow balance.\\n        @param repayAmount The amount of the underlying borrowed asset to be repaid. A value of -1 (i.e. 2^256 - 1) can be used to repay the full amount.\\n        @return 0 on success, otherwise an Error code\\n        @dev msg.sender The account which borrowed the asset, and shall repay the borrow.\\n        @dev Before repaying an asset, users must first approve the cToken to access their token balance.\\n     */\\n    function repayBorrow(uint256 repayAmount) external returns (uint256);\\n\\n    /**\\n        @notice The repay function transfers an asset into the protocol, reducing the target user's borrow balance.\\n        @param borrower The account which borrowed the asset to be repaid.\\n        @param repayAmount The amount of the underlying borrowed asset to be repaid. A value of -1 (i.e. 2^256 - 1) can be used to repay the full amount.\\n        @return 0 on success, otherwise an Error code\\n        @dev msg.sender The account which shall repay the borrow.\\n        @dev Before repaying an asset, users must first approve the cToken to access their token balance.\\n     */\\n    function repayBorrowBehalf(address borrower, uint256 repayAmount)\\n        external\\n        returns (uint256);\\n\\n    /*** Admin Functions ***/\\n\\n    function _addReserves(uint256 addAmount) external returns (uint256);\\n\\n    /** End Admin Functions */\\n\\n    function underlying() external view returns (address);\\n\\n    /**\\n        @notice Each cToken is convertible into an ever increasing quantity of the underlying asset, as interest accrues in the market. The exchange rate between a cToken and the underlying asset is\\n        equal to: exchangeRate = (getCash() + totalBorrows() - totalReserves()) / totalSupply()\\n        @return The current exchange rate as an unsigned integer, scaled by 1e18.\\n     */\\n    function exchangeRateCurrent() external returns (uint256);\\n\\n    function exchangeRateStored() external view returns (uint256);\\n\\n    /**\\n     * @notice Applies accrued interest to total borrows and reserves\\n     * @dev This calculates interest accrued from the last checkpointed block\\n     *   up to the current block and writes new checkpoint to storage.\\n     */\\n    function accrueInterest() external;\\n\\n    function decimals() external view returns (uint8);\\n\\n    function balanceOf(address account) external view returns (uint256);\\n\\n    /**\\n        @notice The user's underlying balance, representing their assets in the protocol, is equal to the user's cToken balance multiplied by the Exchange Rate.\\n        @param account The account to get the underlying balance of.\\n        @return The amount of underlying currently owned by the account.\\n     */\\n    function balanceOfUnderlying(address account) external returns (uint256);\\n\\n    function comptroller() external view returns (IComptroller);\\n}\\n\",\"keccak256\":\"0xe64ba9069b31f8149d63171b24b9fdef3a587b0461c3d4c8ac5976519bcde332\",\"license\":\"MIT\"},\"contracts/shared/interfaces/IComptroller.sol\":{\"content\":\"// SPDX-License-Identifier: MIT\\npragma solidity ^0.8.0;\\n\\ninterface IComptroller {\\n    /*** Assets You Are In ***/\\n\\n    function enterMarkets(address[] calldata cTokens)\\n        external\\n        returns (uint256[] memory);\\n\\n    function exitMarket(address cToken) external returns (uint256);\\n\\n    /*** Policy Hooks ***/\\n\\n    /**\\n     * @notice Checks if the account should be allowed to mint tokens in the given market\\n     * @param cToken The market to verify the mint against\\n     * @param minter The account which would get the minted tokens\\n     * @param mintAmount The amount of underlying being supplied to the market in exchange for tokens\\n     * @return 0 if the mint is allowed, otherwise a semi-opaque error code (See ErrorReporter.sol)\\n     */\\n    function mintAllowed(\\n        address cToken,\\n        address minter,\\n        uint256 mintAmount\\n    ) external returns (uint256);\\n\\n    /**\\n     * @notice Validates mint and reverts on rejection. May emit logs.\\n     * @param cToken Asset being minted\\n     * @param minter The address minting the tokens\\n     * @param mintAmount The amount of the underlying asset being minted\\n     * @param mintTokens The number of tokens being minted\\n     */\\n    function mintVerify(\\n        address cToken,\\n        address minter,\\n        uint256 mintAmount,\\n        uint256 mintTokens\\n    ) external;\\n\\n    /**\\n     * @notice Checks if the account should be allowed to redeem tokens in the given market\\n     * @param cToken The market to verify the redeem against\\n     * @param redeemer The account which would redeem the tokens\\n     * @param redeemTokens The number of cTokens to exchange for the underlying asset in the market\\n     * @return 0 if the redeem is allowed, otherwise a semi-opaque error code (See ErrorReporter.sol)\\n     */\\n    function redeemAllowed(\\n        address cToken,\\n        address redeemer,\\n        uint256 redeemTokens\\n    ) external returns (uint256);\\n\\n    /**\\n     * @notice Validates redeem and reverts on rejection. May emit logs.\\n     * @param cToken Asset being redeemed\\n     * @param redeemer The address redeeming the tokens\\n     * @param redeemAmount The amount of the underlying asset being redeemed\\n     * @param redeemTokens The number of tokens being redeemed\\n     */\\n    function redeemVerify(\\n        address cToken,\\n        address redeemer,\\n        uint256 redeemAmount,\\n        uint256 redeemTokens\\n    ) external;\\n\\n    /**\\n     * @notice Checks if the account should be allowed to borrow the underlying asset of the given market\\n     * @param cToken The market to verify the borrow against\\n     * @param borrower The account which would borrow the asset\\n     * @param borrowAmount The amount of underlying the account would borrow\\n     * @return 0 if the borrow is allowed, otherwise a semi-opaque error code (See ErrorReporter.sol)\\n     */\\n    function borrowAllowed(\\n        address cToken,\\n        address borrower,\\n        uint256 borrowAmount\\n    ) external returns (uint256);\\n\\n    /**\\n     * @notice Validates borrow and reverts on rejection. May emit logs.\\n     * @param cToken Asset whose underlying is being borrowed\\n     * @param borrower The address borrowing the underlying\\n     * @param borrowAmount The amount of the underlying asset requested to borrow\\n     */\\n    function borrowVerify(\\n        address cToken,\\n        address borrower,\\n        uint256 borrowAmount\\n    ) external;\\n\\n    /**\\n     * @notice Checks if the account should be allowed to repay a borrow in the given market\\n     * @param cToken The market to verify the repay against\\n     * @param payer The account which would repay the asset\\n     * @param borrower The account which would borrowed the asset\\n     * @param repayAmount The amount of the underlying asset the account would repay\\n     * @return 0 if the repay is allowed, otherwise a semi-opaque error code (See ErrorReporter.sol)\\n     */\\n    function repayBorrowAllowed(\\n        address cToken,\\n        address payer,\\n        address borrower,\\n        uint256 repayAmount\\n    ) external returns (uint256);\\n\\n    /**\\n     * @notice Validates repayBorrow and reverts on rejection. May emit logs.\\n     * @param cToken Asset being repaid\\n     * @param payer The address repaying the borrow\\n     * @param borrower The address of the borrower\\n     * @param repayAmount The amount of underlying being repaid\\n     * @param borrowerIndex the index of the borrower\\n     */\\n    function repayBorrowVerify(\\n        address cToken,\\n        address payer,\\n        address borrower,\\n        uint256 repayAmount,\\n        uint256 borrowerIndex\\n    ) external;\\n\\n    /**\\n     * @notice Checks if the liquidation should be allowed to occur\\n     * @param cTokenBorrowed Asset which was borrowed by the borrower\\n     * @param cTokenCollateral Asset which was used as collateral and will be seized\\n     * @param liquidator The address repaying the borrow and seizing the collateral\\n     * @param borrower The address of the borrower\\n     * @param repayAmount The amount of underlying being repaid\\n     */\\n    function liquidateBorrowAllowed(\\n        address cTokenBorrowed,\\n        address cTokenCollateral,\\n        address liquidator,\\n        address borrower,\\n        uint256 repayAmount\\n    ) external returns (uint256);\\n\\n    /**\\n     * @notice Validates liquidateBorrow and reverts on rejection. May emit logs.\\n     * @param cTokenBorrowed Asset which was borrowed by the borrower\\n     * @param cTokenCollateral Asset which was used as collateral and will be seized\\n     * @param liquidator The address repaying the borrow and seizing the collateral\\n     * @param borrower The address of the borrower\\n     * @param repayAmount The amount of underlying being repaid\\n     * @param seizeTokens The number of collateral tokens to seize\\n     */\\n    function liquidateBorrowVerify(\\n        address cTokenBorrowed,\\n        address cTokenCollateral,\\n        address liquidator,\\n        address borrower,\\n        uint256 repayAmount,\\n        uint256 seizeTokens\\n    ) external;\\n\\n    /**\\n     * @notice Checks if the seizing of assets should be allowed to occur\\n     * @param cTokenCollateral Asset which was used as collateral and will be seized\\n     * @param cTokenBorrowed Asset which was borrowed by the borrower\\n     * @param liquidator The address repaying the borrow and seizing the collateral\\n     * @param borrower The address of the borrower\\n     * @param seizeTokens The number of collateral tokens to seize\\n     */\\n    function seizeAllowed(\\n        address cTokenCollateral,\\n        address cTokenBorrowed,\\n        address liquidator,\\n        address borrower,\\n        uint256 seizeTokens\\n    ) external returns (uint256);\\n\\n    /**\\n     * @notice Validates seize and reverts on rejection. May emit logs.\\n     * @param cTokenCollateral Asset which was used as collateral and will be seized\\n     * @param cTokenBorrowed Asset which was borrowed by the borrower\\n     * @param liquidator The address repaying the borrow and seizing the collateral\\n     * @param borrower The address of the borrower\\n     * @param seizeTokens The number of collateral tokens to seize\\n     */\\n    function seizeVerify(\\n        address cTokenCollateral,\\n        address cTokenBorrowed,\\n        address liquidator,\\n        address borrower,\\n        uint256 seizeTokens\\n    ) external;\\n\\n    /**\\n     * @notice Checks if the account should be allowed to transfer tokens in the given market\\n     * @param cToken The market to verify the transfer against\\n     * @param src The account which sources the tokens\\n     * @param dst The account which receives the tokens\\n     * @param transferTokens The number of cTokens to transfer\\n     * @return 0 if the transfer is allowed, otherwise a semi-opaque error code (See ErrorReporter.sol)\\n     */\\n    function transferAllowed(\\n        address cToken,\\n        address src,\\n        address dst,\\n        uint256 transferTokens\\n    ) external returns (uint256);\\n\\n    /**\\n     * @notice Validates transfer and reverts on rejection. May emit logs.\\n     * @param cToken Asset being transferred\\n     * @param src The account which sources the tokens\\n     * @param dst The account which receives the tokens\\n     * @param transferTokens The number of cTokens to transfer\\n     */\\n    function transferVerify(\\n        address cToken,\\n        address src,\\n        address dst,\\n        uint256 transferTokens\\n    ) external;\\n\\n    /**\\n     * @notice Claim all the comp accrued by holder in all markets\\n     * @param holder The address to claim COMP for\\n     */\\n    function claimComp(address holder) external;\\n\\n    /**\\n     * @notice Claim all the comp accrued by holder in the specified markets\\n     * @param holder The address to claim COMP for\\n     * @param cTokens The list of markets to claim COMP in\\n     */\\n    function claimComp(address holder, address[] calldata cTokens) external;\\n\\n    /**\\n     * @notice Claim all comp accrued by the holders\\n     * @param holders The addresses to claim COMP for\\n     * @param cTokens The list of markets to claim COMP in\\n     * @param borrowers Whether or not to claim COMP earned by borrowing\\n     * @param suppliers Whether or not to claim COMP earned by supplying\\n     */\\n    function claimComp(\\n        address[] calldata holders,\\n        address[] calldata cTokens,\\n        bool borrowers,\\n        bool suppliers\\n    ) external;\\n\\n    /*** Liquidity/Liquidation Calculations ***/\\n    /**\\n     * @notice Calculate number of tokens of collateral asset to seize given an underlying amount\\n     * @dev Used in liquidation (called in cToken.liquidateBorrowFresh)\\n     * @param cTokenBorrowed The address of the borrowed cToken\\n     * @param cTokenCollateral The address of the collateral cToken\\n     * @param repayAmount The amount of cTokenBorrowed underlying to convert into cTokenCollateral tokens\\n     * @return (errorCode, number of cTokenCollateral tokens to be seized in a liquidation)\\n     */\\n    function liquidateCalculateSeizeTokens(\\n        address cTokenBorrowed,\\n        address cTokenCollateral,\\n        uint256 repayAmount\\n    ) external view returns (uint256, uint256);\\n\\n    /**\\n     * @notice Return the address of the COMP token\\n     * @return The address of COMP\\n     */\\n    function getCompAddress() external view returns (address);\\n}\\n\",\"keccak256\":\"0x38a824a4a21ce9370fa581a616d1bb9d311f27d8982a6b96ebeba90bd5fd0adb\",\"license\":\"MIT\"},\"contracts/shared/interfaces/IUniswapV2Router.sol\":{\"content\":\"// SPDX-License-Identifier: MIT\\npragma solidity ^0.8.0;\\n\\n/**\\n    @notice This interface defines the different functions available for a UniswapV2Router.\\n    @author develop@teller.finance\\n */\\ninterface IUniswapV2Router {\\n    function factory() external pure returns (address);\\n    \\n    function addLiquidity(\\n        address tokenA,\\n        address tokenB,\\n        uint256 amountADesired,\\n        uint256 amountBDesired,\\n        uint256 amountAMin,\\n        uint256 amountBMin,\\n        address to,\\n        uint256 deadline\\n    )\\n        external\\n        returns (\\n            uint256 amountA,\\n            uint256 amountB,\\n            uint256 liquidity\\n        );\\n\\n    function addLiquidityETH(\\n        address token,\\n        uint256 amountTokenDesired,\\n        uint256 amountTokenMin,\\n        uint256 amountETHMin,\\n        address to,\\n        uint256 deadline\\n    )\\n        external\\n        payable\\n        returns (\\n            uint256 amountToken,\\n            uint256 amountETH,\\n            uint256 liquidity\\n        );\\n\\n    function removeLiquidity(\\n        address tokenA,\\n        address tokenB,\\n        uint256 liquidity,\\n        uint256 amountAMin,\\n        uint256 amountBMin,\\n        address to,\\n        uint256 deadline\\n    ) external returns (uint256 amountA, uint256 amountB);\\n\\n    function removeLiquidityETH(\\n        address token,\\n        uint256 liquidity,\\n        uint256 amountTokenMin,\\n        uint256 amountETHMin,\\n        address to,\\n        uint256 deadline\\n    ) external returns (uint256 amountToken, uint256 amountETH);\\n\\n    function removeLiquidityWithPermit(\\n        address tokenA,\\n        address tokenB,\\n        uint256 liquidity,\\n        uint256 amountAMin,\\n        uint256 amountBMin,\\n        address to,\\n        uint256 deadline,\\n        bool approveMax,\\n        uint8 v,\\n        bytes32 r,\\n        bytes32 s\\n    ) external returns (uint256 amountA, uint256 amountB);\\n\\n    function removeLiquidityETHWithPermit(\\n        address token,\\n        uint256 liquidity,\\n        uint256 amountTokenMin,\\n        uint256 amountETHMin,\\n        address to,\\n        uint256 deadline,\\n        bool approveMax,\\n        uint8 v,\\n        bytes32 r,\\n        bytes32 s\\n    ) external returns (uint256 amountToken, uint256 amountETH);\\n\\n    function quote(\\n        uint256 amountA,\\n        uint256 reserveA,\\n        uint256 reserveB\\n    ) external pure returns (uint256 amountB);\\n\\n    function getAmountOut(\\n        uint256 amountIn,\\n        uint256 reserveIn,\\n        uint256 reserveOut\\n    ) external pure returns (uint256 amountOut);\\n\\n    function getAmountIn(\\n        uint256 amountOut,\\n        uint256 reserveIn,\\n        uint256 reserveOut\\n    ) external pure returns (uint256 amountIn);\\n\\n    function getAmountsOut(uint256 amountIn, address[] calldata path)\\n        external\\n        view\\n        returns (uint256[] memory amounts);\\n\\n    function getAmountsIn(uint256 amountOut, address[] calldata path)\\n        external\\n        view\\n        returns (uint256[] memory amounts);\\n\\n    /**\\n        @notice It returns the address of the canonical WETH address;\\n    */\\n    function WETH() external pure returns (address);\\n\\n    /**\\n        @notice Swaps an exact amount of input tokens for as many output tokens as possible, along the route determined by the path. The first element of path is the input token, the last is the output token, and any intermediate elements represent intermediate pairs to trade through (if, for example, a direct pair does not exist).\\n        @param amountIn The amount of input tokens to send.\\n        @param amountOutMin The minimum amount of output tokens that must be received for the transaction not to revert.\\n        @param path An array of token addresses. path.length must be >= 2. Pools for each consecutive pair of addresses must exist and have liquidity.\\n        @param to Recipient of the output tokens.\\n        @param deadline Unix timestamp after which the transaction will revert.\\n        @return amounts The input token amount and all subsequent output token amounts.\\n        @dev msg.sender should have already given the router an allowance of at least amountIn on the input token.\\n     */\\n    function swapExactTokensForTokens(\\n        uint256 amountIn,\\n        uint256 amountOutMin,\\n        address[] calldata path,\\n        address to,\\n        uint256 deadline\\n    ) external returns (uint256[] memory amounts);\\n\\n    /**\\n        @notice Swaps an exact amount of tokens for as much ETH as possible, along the route determined by the path. The first element of path is the input token, the last must be WETH, and any intermediate elements represent intermediate pairs to trade through (if, for example, a direct pair does not exist).\\n        @param amountIn The amount of input tokens to send.\\n        @param amountOutMin The minimum amount of output tokens that must be received for the transaction not to revert.\\n        @param path An array of token addresses. path.length must be >= 2. Pools for each consecutive pair of addresses must exist and have liquidity.\\n        @param to Recipient of the ETH.\\n        @param deadline Unix timestamp after which the transaction will revert.\\n        @return amounts The input token amount and all subsequent output token amounts.\\n        @dev If the to address is a smart contract, it must have the ability to receive ETH.\\n     */\\n    function swapExactTokensForETH(\\n        uint256 amountIn,\\n        uint256 amountOutMin,\\n        address[] calldata path,\\n        address to,\\n        uint256 deadline\\n    ) external returns (uint256[] memory amounts);\\n\\n    /**\\n        @notice Swaps an exact amount of ETH for as many output tokens as possible, along the route determined by the path. The first element of path must be WETH, the last is the output token, and any intermediate elements represent intermediate pairs to trade through (if, for example, a direct pair does not exist).\\n        @param amountOutMin The minimum amount of output tokens that must be received for the transaction not to revert.\\n        @param path An array of token addresses. path.length must be >= 2. Pools for each consecutive pair of addresses must exist and have liquidity.\\n        @param to Recipient of the output tokens.\\n        @param deadline Unix timestamp after which the transaction will revert.\\n        @return amounts The input token amount and all subsequent output token amounts.\\n     */\\n    function swapExactETHForTokens(\\n        uint256 amountOutMin,\\n        address[] calldata path,\\n        address to,\\n        uint256 deadline\\n    ) external payable returns (uint256[] memory amounts);\\n\\n    function swapTokensForExactTokens(\\n        uint256 amountOut,\\n        uint256 amountInMax,\\n        address[] calldata path,\\n        address to,\\n        uint256 deadline\\n    ) external returns (uint256[] memory amounts);\\n\\n    function swapTokensForExactETH(\\n        uint256 amountOut,\\n        uint256 amountInMax,\\n        address[] calldata path,\\n        address to,\\n        uint256 deadline\\n    ) external returns (uint256[] memory amounts);\\n\\n    function swapETHForExactTokens(\\n        uint256 amountOut,\\n        address[] calldata path,\\n        address to,\\n        uint256 deadline\\n    ) external payable returns (uint256[] memory amounts);\\n}\\n\",\"keccak256\":\"0x37849041e4bee2dfa825677f69078521fcc94804aa5120f67dd12cc4133efcec\",\"license\":\"MIT\"},\"contracts/shared/libraries/CacheLib.sol\":{\"content\":\"// SPDX-License-Identifier: MIT\\npragma solidity ^0.8.0;\\n\\nenum CacheType { Address, Uint, Int, Byte, Bool }\\n\\n/**\\n * @notice This struct manages the cache of the library instance.\\n * @param addresses A mapping of address values mapped to cache keys in bytes.\\n * @param uints A mapping of uint values mapped to cache keys names in bytes.\\n * @param ints A mapping of int values mapped to cache keys names in bytes.\\n * @param bites A mapping of bytes values mapped to cache keys names in bytes.\\n * @param bools A mapping of bool values mapped to cache keys names in bytes.\\n */\\nstruct Cache {\\n    // Mapping of cache keys names to address values.\\n    mapping(bytes32 => address) addresses;\\n    // Mapping of cache keys names to uint256 values.\\n    mapping(bytes32 => uint256) uints;\\n    // Mapping of cache keys names to int256 values.\\n    mapping(bytes32 => int256) ints;\\n    // Mapping of cache keys names to bytes32 values.\\n    mapping(bytes32 => bytes32) bites;\\n    // Mapping of cache keys names to bool values.\\n    mapping(bytes32 => bool) bools;\\n}\\n\\nlibrary CacheLib {\\n    // The constant for the initialization check\\n    bytes32 private constant INITIALIZED = keccak256(\\\"Initialized\\\");\\n\\n    /**\\n     * @notice Initializes the cache instance.\\n     * @param cache The current cache\\n     */\\n    function initialize(Cache storage cache) internal {\\n        requireNotExists(cache);\\n        cache.bools[INITIALIZED] = true;\\n    }\\n\\n    /**\\n     * @notice Checks whether the current cache does not, throwing an error if it does.\\n     * @param cache The current cache\\n     */\\n    function requireNotExists(Cache storage cache) internal view {\\n        require(!exists(cache), \\\"CACHE_ALREADY_EXISTS\\\");\\n    }\\n\\n    /**\\n     * @notice Checks whether the current cache exists, throwing an error if the cache does not.\\n     * @param cache The current cache\\n     */\\n    function requireExists(Cache storage cache) internal view {\\n        require(exists(cache), \\\"CACHE_DOES_NOT_EXIST\\\");\\n    }\\n\\n    /**\\n     * @notice Tests whether the current cache exists or not.\\n     * @param cache The current cache.\\n     * @return bool True if the cache exists.\\n     */\\n    function exists(Cache storage cache) internal view returns (bool) {\\n        return cache.bools[INITIALIZED];\\n    }\\n\\n    /**\\n     * @notice it updates the cache with a key, value and cache type\\n     * @param cache cache to update\\n     * @param key the memory reference to the value in bytes32\\n     * @param value the value to update at the key\\n     * @param cacheType the enum type of cache to update\\n     */\\n    function update(\\n        Cache storage cache,\\n        bytes32 key,\\n        bytes32 value,\\n        CacheType cacheType\\n    ) internal {\\n        requireExists(cache);\\n\\n        assembly {\\n            mstore(0, value)\\n        }\\n        if (cacheType == CacheType.Address) {\\n            address addr;\\n            assembly {\\n                addr := mload(0)\\n            }\\n            cache.addresses[key] = addr;\\n        } else if (cacheType == CacheType.Uint) {\\n            uint256 ui;\\n            assembly {\\n                ui := mload(0)\\n            }\\n            cache.uints[key] = ui;\\n        } else if (cacheType == CacheType.Int) {\\n            int256 i;\\n            assembly {\\n                i := mload(0)\\n            }\\n            cache.ints[key] = i;\\n        } else if (cacheType == CacheType.Byte) {\\n            cache.bites[key] = value;\\n        } else if (cacheType == CacheType.Bool) {\\n            bool b;\\n            assembly {\\n                b := mload(0)\\n            }\\n            cache.bools[key] = b;\\n        }\\n    }\\n\\n    /**\\n     * @notice it deletes the cache values at the specified key\\n     * @param cache the cache to delete keys from\\n     * @param keysToClear the keys to delete\\n     * @param keyTypes the types of keys to target different parts of the cache\\n     */\\n    function clearCache(\\n        Cache storage cache,\\n        bytes32[5] memory keysToClear,\\n        CacheType[5] memory keyTypes\\n    ) internal {\\n        requireExists(cache);\\n        require(\\n            keysToClear.length == keyTypes.length,\\n            \\\"ARRAY_LENGTHS_MISMATCH\\\"\\n        );\\n        for (uint256 i; i <= keysToClear.length; i++) {\\n            if (keyTypes[i] == CacheType.Address) {\\n                delete cache.addresses[keysToClear[i]];\\n            } else if (keyTypes[i] == CacheType.Uint) {\\n                delete cache.uints[keysToClear[i]];\\n            } else if (keyTypes[i] == CacheType.Int) {\\n                delete cache.ints[keysToClear[i]];\\n            } else if (keyTypes[i] == CacheType.Byte) {\\n                delete cache.bites[keysToClear[i]];\\n            } else if (keyTypes[i] == CacheType.Bool) {\\n                delete cache.bools[keysToClear[i]];\\n            }\\n        }\\n    }\\n}\\n\",\"keccak256\":\"0xb896b539792b98bda4fb9f25b44550c74fa663914683d69824d7415436f2601f\",\"license\":\"MIT\"},\"contracts/shared/libraries/CompoundLib.sol\":{\"content\":\"// SPDX-License-Identifier: MIT\\npragma solidity ^0.8.0;\\n\\n// Interfaces\\nimport { ICErc20 } from \\\"../interfaces/ICErc20.sol\\\";\\n\\n// Storage\\nimport { AppStorageLib } from \\\"../../storage/app.sol\\\";\\n\\n/**\\n * @notice Utility library to calculate the value of a Compound cToken and its underlying asset.\\n *\\n * @author develop@teller.finance\\n */\\nlibrary CompoundLib {\\n    /**\\n     * @dev Compounds exchange rate is scaled by 18 decimals (10^18)\\n     */\\n    uint256 internal constant EXCHANGE_RATE_SCALE = 1e18;\\n\\n    function exchangeRate(address cToken) internal view returns (uint256) {\\n        return ICErc20(cToken).exchangeRateStored();\\n    }\\n\\n    /**\\n     * @notice Takes an amount of the Compound asset and calculates the underlying amount using the stored exchange rate.\\n     * @param cToken Address of the Compound token.\\n     * @param cTokenAmount Amount of the Compound asset.\\n     * @return value of the Compound token amount in underlying tokens.\\n     */\\n    function valueInUnderlying(address cToken, uint256 cTokenAmount)\\n        internal\\n        view\\n        returns (uint256)\\n    {\\n        return\\n            (cTokenAmount * ICErc20(cToken).exchangeRateStored()) /\\n            EXCHANGE_RATE_SCALE;\\n    }\\n\\n    /**\\n     * @notice Takes an amount of the underlying Compound asset and calculates the cToken amount using the stored exchange rate.\\n     * @param cToken Address of the Compound token.\\n     * @param underlyingAmount Amount of the underlying asset for the Compound token.\\n     * @return value of the underlying amount in Compound tokens.\\n     */\\n    function valueOfUnderlying(address cToken, uint256 underlyingAmount)\\n        internal\\n        view\\n        returns (uint256)\\n    {\\n        return\\n            (underlyingAmount * EXCHANGE_RATE_SCALE) /\\n            ICErc20(cToken).exchangeRateStored();\\n    }\\n\\n    function isCompoundToken(address token) internal view returns (bool) {\\n        return AppStorageLib.store().cTokenRegistry[token];\\n    }\\n\\n    /**\\n     * @notice Tests the {underlying} function on the cToken and assumes its WETH otherwise.\\n     * @dev CETH is the only Compound token that does not support the {underlying} function.\\n     * @param cToken address of the compound token\\n     * @return address of the underlying cToken\\n     */\\n    function getUnderlying(address cToken) internal view returns (address) {\\n        (bool success, bytes memory data) =\\n            cToken.staticcall(abi.encode(ICErc20.underlying.selector));\\n        if (success) {\\n            return abi.decode(data, (address));\\n        }\\n\\n        return AppStorageLib.store().assetAddresses[\\\"WETH\\\"];\\n    }\\n}\\n\",\"keccak256\":\"0x99206384c27b0e68b1ec7b82260f6a47965f611875c018bc076ff8a688a6c6d7\",\"license\":\"MIT\"},\"contracts/shared/libraries/NumbersLib.sol\":{\"content\":\"// SPDX-License-Identifier: MIT\\npragma solidity ^0.8.0;\\n\\n/**\\n * @dev Utility library for uint256 numbers\\n *\\n * @author develop@teller.finance\\n */\\nlibrary NumbersLib {\\n    /**\\n     * @dev It represents 100% with 2 decimal places.\\n     */\\n    uint256 internal constant ONE_HUNDRED_PERCENT = 10000;\\n\\n    /**\\n     * @notice Returns a percentage value of a number.\\n     * @param self The number to get a percentage of.\\n     * @param percentage The percentage value to calculate with 2 decimal places (10000 = 100%).\\n     */\\n    function percent(uint256 self, uint16 percentage)\\n        internal\\n        pure\\n        returns (uint256)\\n    {\\n        return (self * uint256(percentage)) / ONE_HUNDRED_PERCENT;\\n    }\\n\\n    function percent(int256 self, uint256 percentage)\\n        internal\\n        pure\\n        returns (int256)\\n    {\\n        return (self * int256(percentage)) / int256(ONE_HUNDRED_PERCENT);\\n    }\\n\\n    /**\\n     * @notice it returns the absolute number of a specified parameter\\n     * @param self the number to be returned in it's absolute \\n     * @return the absolute number\\n     */\\n    function abs(int256 self) internal pure returns (uint256) {\\n        return self >= 0 ? uint256(self) : uint256(-1 * self);\\n    }\\n\\n    /**\\n     * @notice Returns a ratio percentage of {num1} to {num2}.\\n     * @param num1 The number used to get the ratio for.\\n     * @param num2 The number used to get the ratio from.\\n     * @return Ratio percentage with 2 decimal places (10000 = 100%).\\n     */\\n    function ratioOf(uint256 num1, uint256 num2)\\n        internal\\n        pure\\n        returns (uint16)\\n    {\\n        return num2 == 0 ? 0 : uint16((num1 * ONE_HUNDRED_PERCENT) / num2);\\n    }\\n}\\n\",\"keccak256\":\"0xa852b8866a3d6d928c6575bf2bcf2ae784eed73717c78c0cadbdedf8b0ba3274\",\"license\":\"MIT\"},\"contracts/shared/libraries/NumbersList.sol\":{\"content\":\"// SPDX-License-Identifier: MIT\\npragma solidity ^0.8.0;\\n\\nimport \\\"@openzeppelin/contracts/utils/math/SafeMath.sol\\\";\\nimport \\\"./NumbersLib.sol\\\";\\n\\n/**\\n * @dev Utility library of inline functions on NumbersList.Values\\n *\\n * @author develop@teller.finance\\n */\\nlibrary NumbersList {\\n    using NumbersLib for uint256;\\n\\n    // Holds values to calculate the threshold of a list of numbers\\n    struct Values {\\n        uint256 count; // The total number of numbers added\\n        uint256 max; // The maximum number that was added\\n        uint256 min; // The minimum number that was added\\n        uint256 sum; // The total sum of the numbers that were added\\n    }\\n\\n    /**\\n     * @dev Add to the sum while keeping track of min and max values\\n     * @param self The Value this function was called on\\n     * @param newValue Number to increment sum by\\n     */\\n    function addValue(Values memory self, uint256 newValue) internal pure {\\n        if (self.max < newValue) {\\n            self.max = newValue;\\n        }\\n        if (self.min > newValue || self.count == 0) {\\n            self.min = newValue;\\n        }\\n        self.sum = self.sum + (newValue);\\n        self.count = self.count + 1;\\n    }\\n\\n    /**\\n     * @param self The Value this function was called on\\n     * @return the number of times the sum has updated\\n     */\\n    function valuesCount(Values memory self) internal pure returns (uint256) {\\n        return self.count;\\n    }\\n\\n    /**\\n     * @dev Checks if the sum has been changed\\n     * @param self The Value this function was called on\\n     * @return boolean\\n     */\\n    function isEmpty(Values memory self) internal pure returns (bool) {\\n        return valuesCount(self) == 0;\\n    }\\n\\n    /**\\n     * @param self The Value this function was called on\\n     * @return the average number that was used to calculate the sum\\n     */\\n    function getAverage(Values memory self) internal pure returns (uint256) {\\n        return isEmpty(self) ? 0 : self.sum / (valuesCount(self));\\n    }\\n\\n    /**\\n     * @dev Checks if the min and max numbers are within the acceptable tolerance\\n     * @param self The Value this function was called on\\n     * @param tolerancePercentage Acceptable tolerance percentage as a whole number\\n     * The percentage should be entered with 2 decimal places. e.g. 2.5% should be entered as 250.\\n     * @return boolean\\n     */\\n    function isWithinTolerance(Values memory self, uint16 tolerancePercentage)\\n        internal\\n        pure\\n        returns (bool)\\n    {\\n        if (isEmpty(self)) {\\n            return false;\\n        }\\n        uint256 average = getAverage(self);\\n        uint256 toleranceAmount = average.percent(tolerancePercentage);\\n\\n        uint256 minTolerance = average - toleranceAmount;\\n        if (self.min < minTolerance) {\\n            return false;\\n        }\\n\\n        uint256 maxTolerance = average + toleranceAmount;\\n        if (self.max > maxTolerance) {\\n            return false;\\n        }\\n        return true;\\n    }\\n}\\n\",\"keccak256\":\"0xfd64d3765eb776aaebf1c6eeb8af33ad4a9bd89bad676300542086c1fefd44da\",\"license\":\"MIT\"},\"contracts/shared/proxy/beacon/InitializeableBeaconProxy.sol\":{\"content\":\"// SPDX-License-Identifier: MIT\\npragma solidity ^0.8.0;\\n\\nimport \\\"@openzeppelin/contracts/proxy/beacon/IBeacon.sol\\\";\\nimport \\\"@openzeppelin/contracts/proxy/Proxy.sol\\\";\\nimport \\\"@openzeppelin/contracts/utils/Address.sol\\\";\\n\\n/**\\n * @dev This contract implements a proxy that gets the implementation address for each call from a {UpgradeableBeacon}.\\n *\\n * The beacon address is stored in storage slot `uint256(keccak256('eip1967.proxy.beacon')) - 1`, so that it doesn't\\n * conflict with the storage layout of the implementation behind the proxy.\\n *\\n * _Available since v3.4._\\n */\\ncontract InitializeableBeaconProxy is Proxy {\\n    /**\\n     * @dev The storage slot of the UpgradeableBeacon contract which defines the implementation for this proxy.\\n     * This is bytes32(uint256(keccak256('eip1967.proxy.beacon')) - 1)) and is validated in the constructor.\\n     */\\n    bytes32 private constant _BEACON_SLOT =\\n        0xa3f0ad74e5423aebfd80d3ef4346578335a9a72aeaee59ff6cb3582b35133d50;\\n\\n    /**\\n     * @dev Initializes the proxy with `beacon`.\\n     *\\n     * If `data` is nonempty, it's used as data in a delegate call to the implementation returned by the beacon. This\\n     * will typically be an encoded function call, and allows initializating the storage of the proxy like a Solidity\\n     * constructor.\\n     *\\n     * Requirements:\\n     *\\n     * - `beacon` must be a contract with the interface {IBeacon}.\\n     */\\n    function initialize(address beacon, bytes memory data) external payable {\\n        assert(\\n            _BEACON_SLOT ==\\n                bytes32(uint256(keccak256(\\\"eip1967.proxy.beacon\\\")) - 1)\\n        );\\n        require(_beacon() == address(0), \\\"Beacon: already initialized\\\");\\n\\n        _setBeacon(beacon, data);\\n    }\\n\\n    /**\\n     * @dev Returns the current beacon address.\\n     */\\n    function _beacon() internal view virtual returns (address beacon) {\\n        bytes32 slot = _BEACON_SLOT;\\n        // solhint-disable-next-line no-inline-assembly\\n        assembly {\\n            beacon := sload(slot)\\n        }\\n    }\\n\\n    /**\\n     * @dev Returns the current implementation address of the associated beacon.\\n     */\\n    function _implementation()\\n        internal\\n        view\\n        virtual\\n        override\\n        returns (address)\\n    {\\n        return IBeacon(_beacon()).implementation();\\n    }\\n\\n    /**\\n     * @dev Changes the proxy to use a new beacon.\\n     *\\n     * If `data` is nonempty, it's used as data in a delegate call to the implementation returned by the beacon.\\n     *\\n     * Requirements:\\n     *\\n     * - `beacon` must be a contract.\\n     * - The implementation returned by `beacon` must be a contract.\\n     */\\n    function _setBeacon(address beacon, bytes memory data) internal virtual {\\n        bytes32 slot = _BEACON_SLOT;\\n\\n        // solhint-disable-next-line no-inline-assembly\\n        assembly {\\n            sstore(slot, beacon)\\n        }\\n\\n        if (data.length > 0) {\\n            Address.functionDelegateCall(\\n                _implementation(),\\n                data,\\n                \\\"BeaconProxy: function call failed\\\"\\n            );\\n        }\\n    }\\n\\n    receive() external payable override {\\n        // Needed to receive ETH without data\\n        // OZ Proxy contract calls the _fallback() on receive and tries to delegatecall which fails\\n    }\\n}\\n\",\"keccak256\":\"0x48aefbbc0c51b106f4d69580fa802dc6c5d7573fee24cb7d08f5370d79a2e6f2\",\"license\":\"MIT\"},\"contracts/shared/proxy/beacon/UpgradeableBeaconFactory.sol\":{\"content\":\"// SPDX-License-Identifier: MIT\\npragma solidity ^0.8.0;\\n\\nimport \\\"@openzeppelin/contracts/proxy/Clones.sol\\\";\\nimport \\\"@openzeppelin/contracts/proxy/beacon/IBeacon.sol\\\";\\nimport \\\"@openzeppelin/contracts/access/Ownable.sol\\\";\\nimport \\\"@openzeppelin/contracts/utils/Address.sol\\\";\\nimport \\\"./InitializeableBeaconProxy.sol\\\";\\n\\n/**\\n * @dev This contract is used in conjunction with one or more instances of {BeaconProxy} to determine their\\n * implementation contract, which is where they will delegate all function calls.\\n *\\n * An owner is able to change the implementation the beacon points to, thus upgrading the proxies that use this beacon.\\n */\\ncontract UpgradeableBeaconFactory is IBeacon, Ownable {\\n    address private _implementation;\\n    InitializeableBeaconProxy public proxyAddress;\\n\\n    /**\\n     * @dev Emitted when the implementation returned by the beacon is changed.\\n     */\\n    event Upgraded(address indexed implementation);\\n\\n    /**\\n     * @dev Sets the address of the initial implementation, and the deployer account as the owner who can upgrade the\\n     * beacon.\\n     */\\n    constructor(address payable proxyAddress_, address implementation_) {\\n        proxyAddress = InitializeableBeaconProxy(proxyAddress_);\\n        _setImplementation(implementation_);\\n    }\\n\\n    /**\\n     * @dev Returns the current implementation address.\\n     */\\n    function implementation() public view virtual override returns (address) {\\n        return _implementation;\\n    }\\n\\n    /**\\n     * @notice it clones the proxy contract at an address\\n     * @param initData the data to initialize after the proxy is cloned\\n     * @return proxy_ the cloned proxy\\n     */\\n    function cloneProxy(bytes memory initData)\\n        external\\n        returns (address payable proxy_)\\n    {\\n        proxy_ = payable(Clones.clone(address(proxyAddress)));\\n        InitializeableBeaconProxy(proxy_).initialize(address(this), initData);\\n    }\\n\\n    /**\\n     * @dev Upgrades the beacon to a new implementation.\\n     *\\n     * Emits an {Upgraded} event.\\n     *\\n     * Requirements:\\n     *\\n     * - msg.sender must be the owner of the contract.\\n     * - `newImplementation` must be a contract.\\n     */\\n    function upgradeTo(address newImplementation) public virtual onlyOwner {\\n        _setImplementation(newImplementation);\\n        emit Upgraded(newImplementation);\\n    }\\n\\n    /**\\n     * @dev Sets the implementation contract address for this beacon\\n     *\\n     * Requirements:\\n     *\\n     * - `newImplementation` must be a contract.\\n     */\\n    function _setImplementation(address newImplementation) private {\\n        require(\\n            Address.isContract(newImplementation),\\n            \\\"UpgradeableBeacon: implementation is not a contract\\\"\\n        );\\n        _implementation = newImplementation;\\n    }\\n}\\n\",\"keccak256\":\"0xd25191f91a4d8e64085aa73ecc7c18939d87aea17241ebb2aa9035021898d9d9\",\"license\":\"MIT\"},\"contracts/shared/roles.sol\":{\"content\":\"// SPDX-License-Identifier: MIT\\npragma solidity ^0.8.0;\\n\\n/**\\n * @dev the roles for the user to assign, revoke and check in functions\\n */\\nbytes32 constant ADMIN = keccak256(\\\"ADMIN\\\");\\nbytes32 constant PAUSER = keccak256(\\\"PAUSER\\\");\\nbytes32 constant AUTHORIZED = keccak256(\\\"AUTHORIZED\\\");\\n\",\"keccak256\":\"0x711c08f4fb19dd5c1c76acf9bd08ac1dcd9df9ce143f5195c043d56d4650c8da\",\"license\":\"MIT\"},\"contracts/storage/app.sol\":{\"content\":\"// SPDX-License-Identifier: MIT\\npragma solidity ^0.8.0;\\n\\n// Contracts\\nimport { TellerNFT } from \\\"../nft/TellerNFT.sol\\\";\\n\\n// Interfaces\\n\\n// Libraries\\nimport {\\n    PlatformSetting\\n} from \\\"../settings/platform/libraries/PlatformSettingsLib.sol\\\";\\nimport { Cache } from \\\"../shared/libraries/CacheLib.sol\\\";\\nimport {\\n    UpgradeableBeaconFactory\\n} from \\\"../shared/proxy/beacon/UpgradeableBeaconFactory.sol\\\";\\n\\nstruct AppStorage {\\n    // is it initialized\\n    bool initialized;\\n    // is it platform restricted\\n    bool platformRestricted;\\n    // mapping between contract IDs and if they're paused\\n    mapping(bytes32 => bool) paused;\\n    //p\\n    mapping(bytes32 => PlatformSetting) platformSettings;\\n    mapping(address => Cache) assetSettings;\\n    mapping(string => address) assetAddresses;\\n    mapping(address => bool) cTokenRegistry;\\n    TellerNFT nft;\\n    UpgradeableBeaconFactory loansEscrowBeacon;\\n    UpgradeableBeaconFactory collateralEscrowBeacon;\\n    address nftLiquidationController;\\n    UpgradeableBeaconFactory tTokenBeacon;\\n}\\n\\nlibrary AppStorageLib {\\n    function store() internal pure returns (AppStorage storage s) {\\n        assembly {\\n            s.slot := 0\\n        }\\n    }\\n}\\n\",\"keccak256\":\"0x0c52fdd76b33f74e233c3a27dd3b73b134e9643aab347b3aa649c504809c6559\",\"license\":\"MIT\"},\"contracts/storage/market.sol\":{\"content\":\"// SPDX-License-Identifier: MIT\\npragma solidity ^0.8.0;\\n\\n// Libraries\\nimport { Counters } from \\\"@openzeppelin/contracts/utils/Counters.sol\\\";\\nimport {\\n    EnumerableSet\\n} from \\\"@openzeppelin/contracts/utils/structs/EnumerableSet.sol\\\";\\nimport \\\"../shared/libraries/NumbersList.sol\\\";\\n\\n// Interfaces\\nimport { ILoansEscrow } from \\\"../escrow/escrow/ILoansEscrow.sol\\\";\\nimport { ICollateralEscrow } from \\\"../market/collateral/ICollateralEscrow.sol\\\";\\nimport { ITToken } from \\\"../lending/ttoken/ITToken.sol\\\";\\n\\n// DEPRECATED\\nstruct LoanTerms {\\n    // Max size the loan max be taken out with\\n    uint256 maxLoanAmount;\\n    // The timestamp at which the loan terms expire, after which if the loan is not yet active, cannot be taken out\\n    uint32 termsExpiry;\\n}\\n\\nenum LoanStatus { NonExistent, TermsSet, Active, Closed, Liquidated }\\n\\nstruct Loan {\\n    // Account that owns the loan\\n    address payable borrower;\\n    // The asset lent out for the loan\\n    address lendingToken;\\n    // The token used as collateral for the loan\\n    address collateralToken;\\n    // The total amount of the loan size taken out\\n    uint256 borrowedAmount;\\n    // The id of the loan for internal tracking\\n    uint128 id;\\n    // How long in seconds until the loan must be repaid\\n    uint32 duration;\\n    // The timestamp at which the loan became active\\n    uint32 loanStartTime;\\n    // The interest rate given for repaying the loan\\n    uint16 interestRate;\\n    // Ratio used to determine amount of collateral required based on the collateral asset price\\n    uint16 collateralRatio;\\n    // The status of the loan\\n    LoanStatus status;\\n}\\n\\nstruct LoanDebt {\\n    // The total amount of the loan taken out by the borrower, reduces on loan repayments\\n    uint256 principalOwed;\\n    // The total interest owed by the borrower for the loan, reduces on loan repayments\\n    uint256 interestOwed;\\n}\\n\\nstruct LoanRequest {\\n    LoanUserRequest request;\\n    LoanConsensusResponse[] responses;\\n}\\n\\n/**\\n * @notice Borrower request object to take out a loan\\n * @param borrower The wallet address of the borrower\\n * @param assetAddress The address of the asset for the requested loan\\n * @param amount The amount of tokens requested by the borrower for the loan\\n * @param requestNonce The nonce of the borrower wallet address required for authentication\\n * @param duration The length of time in seconds that the loan has been requested for\\n * @param requestTime The timestamp at which the loan was requested\\n */\\nstruct LoanUserRequest {\\n    address payable borrower;\\n    address assetAddress;\\n    uint256 amount;\\n    uint32 requestNonce;\\n    uint32 duration;\\n    uint32 requestTime;\\n}\\n\\n/**\\n * @notice Borrower response object to take out a loan\\n * @param signer The wallet address of the signer validating the interest request of the lender\\n * @param assetAddress The address of the asset for the requested loan\\n * @param maxLoanAmount The largest amount of tokens that can be taken out in the loan by the borrower\\n * @param responseTime The timestamp at which the response was sent\\n * @param interestRate The signed interest rate generated by the signer's Credit Risk Algorithm (CRA)\\n * @param collateralRatio The ratio of collateral to loan amount that is generated by the signer's Credit Risk Algorithm (CRA)\\n * @param signature The signature generated by the signer in the format of the above Signature struct\\n */\\nstruct LoanConsensusResponse {\\n    address signer;\\n    address assetAddress;\\n    uint256 maxLoanAmount;\\n    uint32 responseTime;\\n    uint16 interestRate;\\n    uint16 collateralRatio;\\n    Signature signature;\\n}\\n\\n/**\\n * @notice Represents a user signature\\n * @param v The recovery identifier represented by the last byte of a ECDSA signature as an int\\n * @param r The random point x-coordinate of the signature respresented by the first 32 bytes of the generated ECDSA signature\\n * @param s The signature proof represented by the second 32 bytes of the generated ECDSA signature\\n */\\nstruct Signature {\\n    uint8 v;\\n    bytes32 r;\\n    bytes32 s;\\n}\\n\\nstruct MarketStorage {\\n    // Holds the index for the next loan ID\\n    Counters.Counter loanIDCounter;\\n    // Maps loanIDs to loan data\\n    mapping(uint256 => Loan) loans;\\n    // Maps loanID to loan debt (total owed left)\\n    mapping(uint256 => LoanDebt) loanDebt;\\n    // Maps loanID to loan terms\\n    mapping(uint256 => LoanTerms) _loanTerms; // DEPRECATED: DO NOT REMOVE\\n    // Maps loanIDs to escrow address to list of held tokens\\n    mapping(uint256 => ILoansEscrow) loanEscrows;\\n    // Maps loanIDs to list of tokens owned by a loan escrow\\n    mapping(uint256 => EnumerableSet.AddressSet) escrowTokens;\\n    // Maps collateral token address to a LoanCollateralEscrow that hold collateral funds\\n    mapping(address => ICollateralEscrow) collateralEscrows;\\n    // Maps accounts to owned loan IDs\\n    mapping(address => uint128[]) borrowerLoans;\\n    // Maps lending token to overall amount of interest collected from loans\\n    mapping(address => ITToken) tTokens;\\n    // Maps lending token to list of signer addresses who are only ones allowed to verify loan requests\\n    mapping(address => EnumerableSet.AddressSet) signers;\\n    // Maps lending token to list of allowed collateral tokens\\n    mapping(address => EnumerableSet.AddressSet) collateralTokens;\\n}\\n\\nbytes32 constant MARKET_STORAGE_POS = keccak256(\\\"teller.market.storage\\\");\\n\\nlibrary MarketStorageLib {\\n    function store() internal pure returns (MarketStorage storage s) {\\n        bytes32 pos = MARKET_STORAGE_POS;\\n        assembly {\\n            s.slot := pos\\n        }\\n    }\\n}\\n\",\"keccak256\":\"0xb7e05aeec806b5621512def93f4a389b4ef88c50ef9fe7115a33f57db2f2304b\",\"license\":\"MIT\"},\"contracts/storage/nft.sol\":{\"content\":\"// SPDX-License-Identifier: MIT\\npragma solidity ^0.8.0;\\n\\n// Utils\\nimport \\\"@openzeppelin/contracts/utils/structs/EnumerableSet.sol\\\";\\n\\nstruct NFTStorage {\\n    // Maps NFT owner to set of token IDs owned\\n    mapping(address => EnumerableSet.UintSet) stakedNFTs;\\n    // Maps loanID to NFT IDs indicating NFT being used for the loan\\n    mapping(uint256 => EnumerableSet.UintSet) loanNFTs;\\n    // Merkle root used for verifying nft IDs to base loan size\\n    bytes32 nftMerkleRoot;\\n}\\n\\nbytes32 constant NFT_STORAGE_POS = keccak256(\\\"teller.staking.storage\\\");\\n\\nlibrary NFTStorageLib {\\n    function store() internal pure returns (NFTStorage storage s) {\\n        bytes32 pos = NFT_STORAGE_POS;\\n        assembly {\\n            s.slot := pos\\n        }\\n    }\\n}\",\"keccak256\":\"0x09f8baabf2668e42e0554da99fda42f661e959f94645c2875e15585826a3a6e4\",\"license\":\"MIT\"},\"contracts/storage/price-aggregator.sol\":{\"content\":\"// SPDX-License-Identifier: MIT\\npragma solidity ^0.8.0;\\n\\nimport {\\n    EnumerableSet\\n} from \\\"@openzeppelin/contracts/utils/structs/EnumerableSet.sol\\\";\\n\\nstruct ChainlinkAggStorage {\\n    // Maps source token => destination token => Chainlink Aggregator\\n    mapping(address => mapping(address => address)) aggregators;\\n    // Maps token address to number of supported Chainlink pairs\\n    mapping(address => uint256) pairCount;\\n    // Stores set of token addresses supported by Chainlink\\n    EnumerableSet.AddressSet supportedTokens;\\n}\\n\\nstruct PriceAggStorage {\\n    ChainlinkAggStorage chainlink;\\n}\\n\\nbytes32 constant PRICE_AGG_STORAGE_POS = keccak256(\\n    \\\"teller.price.aggregator.storage\\\"\\n);\\n\\nlibrary PriceAggStorageLib {\\n    function store() internal pure returns (PriceAggStorage storage s) {\\n        bytes32 pos = PRICE_AGG_STORAGE_POS;\\n        assembly {\\n            s.slot := pos\\n        }\\n    }\\n}\\n\",\"keccak256\":\"0x39a2c6e514cbc48d03f8de560a855527ddf9cd08e2042a75e5c1820a6298d4a1\",\"license\":\"MIT\"}},\"version\":1}",
          "bytecode": "0x608060405234801561001057600080fd5b50611ed6806100206000396000f3fe608060405234801561001057600080fd5b506004361061004c5760003560e01c80635ebc6334146100515780638a700b531461007d578063ccdd9f5d14610092578063e89ad656146100a5575b600080fd5b61006461005f366004611c2e565b6100b8565b6040805192835260208301919091520160405180910390f35b61009061008b366004611c5e565b610189565b005b6100906100a0366004611c2e565b6102ea565b6100906100b3366004611c5e565b6105da565b60008061014a836100c8856107ce565b6001600160a01b031663d17b71d7866040518263ffffffff1660e01b81526004016100f591815260200190565b60206040518083038186803b15801561010d57600080fd5b505afa158015610121573d6000803e3d6000fd5b505050506040513d601f19601f820116820180604052508101906101459190611c46565b61083b565b509150610182610159846108ff565b600101546001600160a01b031661016f856108ff565b600201546001600160a01b03168461091c565b9050915091565b60008080527f7b305b6be5f275f648d05716597c483d754c2a242bd605feba3c64fb853605366020527f63eec20f0ae1af135811da961c707cd581594291a92cf7bcd78c1cf1aca4e4b054600080516020611e818339815191529060ff161561020d5760405162461bcd60e51b815260040161020490611d56565b60405180910390fd5b60008281526002820160205260408120805460ff1916600117905580806102338161099e565b151514801561024d57508015156102498361099e565b1515145b610256826109b6565b906102745760405162461bcd60e51b81526004016102049190611cec565b507f50e75b23f8ec51bbcb044fe377457e835f3b5ccc7ebf69e80906452015dff607336102a18282610a1f565b6102bd5760405162461bcd60e51b815260040161020490611d1f565b6102ca8888336000610a53565b5050506000938452505060020160205260409020805460ff191690555050565b60008080527f7b305b6be5f275f648d05716597c483d754c2a242bd605feba3c64fb853605366020527f63eec20f0ae1af135811da961c707cd581594291a92cf7bcd78c1cf1aca4e4b054600080516020611e818339815191529060ff16156103655760405162461bcd60e51b815260040161020490611d56565b60008281526002820160205260408120805460ff19166001179055808061038b8161099e565b15151480156103a557508015156103a18361099e565b1515145b6103ae826109b6565b906103cc5760405162461bcd60e51b81526004016102049190611cec565b507f50e75b23f8ec51bbcb044fe377457e835f3b5ccc7ebf69e80906452015dff607336103f98282610a1f565b6104155760405162461bcd60e51b815260040161020490611d1f565b6000610420886108ff565b9050600061042d896107ce565b6001600160a01b031663d17b71d78a6040518263ffffffff1660e01b815260040161045a91815260200190565b60206040518083038186803b15801561047257600080fd5b505afa158015610486573d6000803e3d6000fd5b505050506040513d601f19601f820116820180604052508101906104aa9190611c46565b90506104b68982610e80565b61050c5760405162461bcd60e51b815260206004820152602160248201527f54656c6c65723a20646f6573206e6f74206e656564206c69717569646174696f6044820152603760f91b6064820152608401610204565b6000806105198b8461083b565b9150915060006105288c610fa3565b600101546105358d610fa3565b546105409190611d8d565b905061054f8c82336001610a53565b508215610563576105638c84848733610fc0565b845460408051338152602081018690529081018390526001600160a01b03909116908d907f9950a0562c02382e2e840daa73082d5be7660ce37601f28fa4c84089c11e8a069060600160405180910390a35050506000978852505050600290930160205250506040909120805460ff191690555050565b600080806105e78161099e565b151514801561060157508015156105fd8361099e565b1515145b61060a826109b6565b906106285760405162461bcd60e51b81526004016102049190611cec565b507f50e75b23f8ec51bbcb044fe377457e835f3b5ccc7ebf69e80906452015dff607336106558282610a1f565b6106715760405162461bcd60e51b815260040161020490611d1f565b60008080527f7b305b6be5f275f648d05716597c483d754c2a242bd605feba3c64fb853605366020527f63eec20f0ae1af135811da961c707cd581594291a92cf7bcd78c1cf1aca4e4b054600080516020611e818339815191529060ff16156106ec5760405162461bcd60e51b815260040161020490611d56565b60008281526002820160205260408120805460ff1916600117905561072689610714816108ff565b600101546001600160a01b03166110bd565b905060006107338a611155565b9050808210801561074357508189115b15610797576000818a116107605761075b838b611e0c565b61076a565b61076a8383611e0c565b90506107956107788c6108ff565b600101546001600160a01b03163361078f8e6111b7565b846111de565b505b6107ac8a8a6107a58d6111b7565b6000610a53565b505050600091825260020160205260409020805460ff19169055505050505050565b60009081527f0553069f1f0518e59f8623c18c83a1f987f2a0544d563e98dd803a7078142a8660209081526040808320600201546001600160a01b0390811684527f0553069f1f0518e59f8623c18c83a1f987f2a0544d563e98dd803a7078142a8b909252909120541690565b600080600061084985610fa3565b6001015461085686610fa3565b546108619190611d8d565b905060006108768261087161123c565b61126d565b6108809083611d8d565b905084156108cc576108bd610894876108ff565b600201546001600160a01b03166108aa886108ff565b600101546001600160a01b03168761091c565b92506108c98385611d8d565b93505b808410156108ea576108dd8661128a565b6108e79085611d8d565b93505b808411156108f6578093505b50509250929050565b6000610909611340565b6000928352600101602052506040902090565b60405163c05b1ec360e01b8152600090309063c05b1ec39061094690879087908790600401611cc8565b60206040518083038186803b15801561095e57600080fd5b505afa158015610972573d6000803e3d6000fd5b505050506040513d601f19601f820116820180604052508101906109969190611c46565b949350505050565b60008181526001602052604090205460ff165b919050565b6060816109eb576040518060400160405280601081526020016f14185d5cd8589b194e881c185d5cd95960821b815250610a19565b6040518060400160405280601481526020017314185d5cd8589b194e881b9bdd081c185d5cd95960621b8152505b92915050565b6000610a29611369565b6000938452602090815260408085206001600160a01b039490941685529290525090205460ff1690565b6000808411610a995760405162461bcd60e51b815260206004820152601260248201527154656c6c65723a207a65726f20726570617960701b6044820152606401610204565b610aa285610fa3565b60010154610aaf86610fa3565b54610aba9190611d8d565b905083811015610acd5792506000610ada565b610ad78482611e0c565b90505b60007f0553069f1f0518e59f8623c18c83a1f987f2a0544d563e98dd803a7078142a8d81610b07886108ff565b600101546001600160a01b039081168252602082019290925260400160002054811691508416610b36876111b7565b6001600160a01b03161415610bce57610b4e866111b7565b6001600160a01b031663125bfb66610b65886108ff565b600101546040516001600160e01b031960e084901b168152610b97916001600160a01b03169085908a90600401611cc8565b600060405180830381600087803b158015610bb157600080fd5b505af1158015610bc5573d6000803e3d6000fd5b50505050610bef565b610bef610bda876108ff565b600101546001600160a01b03168583886111de565b600080610bfb88610fa3565b60010154871015610c2f57508580610c1289610fa3565b6001016000828254610c249190611e0c565b90915550610c989050565b6000610c3a89610fa3565b600101541115610c6f57610c4d88610fa3565b600101549050610c5d8188611e0c565b96506000610c6a89610fa3565b600101555b8615610c985786915086610c8289610fa3565b8054600090610c92908490611e0c565b90915550505b604051638a700b5360e01b815260048101839052602481018290526001600160a01b03841690638a700b5390604401600060405180830381600087803b158015610ce157600080fd5b505af1158015610cf5573d6000803e3d6000fd5b505050508415610d9d578315610d4d5760405162461bcd60e51b815260206004820152601f60248201527f54656c6c65723a206c6971756964617465207061727469616c207265706179006044820152606401610204565b6004610d58896108ff565b600401601c6101000a81548160ff02191690836004811115610d8a57634e487b7160e01b600052602160045260246000fd5b0217905550610d988861137f565b610e75565b83610e1c576003610dad896108ff565b600401601c6101000a81548160ff02191690836004811115610ddf57634e487b7160e01b600052602160045260246000fd5b0217905550610e0088610df18a6108ff565b546001600160a01b031661144a565b610e1c88610e0d8a6108ff565b546001600160a01b03166114de565b610e25886108ff565b54604080518981523360208201529081018690526001600160a01b039091169089907f20a1f2ec363af45dc5ee7d9d622f2dd68b52501c382126c7f04b53663c4c69bf9060600160405180910390a35b505050949350505050565b600080610e8c846108ff565b90506002600482810154600160e01b900460ff1690811115610ebe57634e487b7160e01b600052602160045260246000fd5b14610ecd576000915050610a19565b6004810154600160d01b900461ffff1615610f6d576040516372e1132760e01b81526004810185905260009030906372e113279060240160606040518083038186803b158015610f1c57600080fd5b505afa158015610f30573d6000803e3d6000fd5b505050506040513d601f19601f82011682018060405250810190610f549190611c7f565b5091505083811115610f6b57600192505050610a19565b505b6004810154610f929063ffffffff600160801b8204811691600160a01b900416611da5565b63ffffffff16421015949350505050565b6000610fad611340565b6000928352600201602052506040902090565b6004610fcb866108ff565b600490810154600160e01b900460ff1690811115610ff957634e487b7160e01b600052602160045260246000fd5b146110465760405162461bcd60e51b815260206004820152601b60248201527f54656c6c65723a206c6f616e206e6f74206c69717569646174656400000000006044820152606401610204565b82841161109757600061108461105b876108ff565b600101546001600160a01b0316611071886108ff565b600201546001600160a01b03168761091c565b9050611091868284611553565b506110b6565b6110a2858383611553565b6110b685826110b18688611e0c565b611610565b5050505050565b6000816001600160a01b03166370a082316110d7856111b7565b6040516001600160e01b031960e084901b1681526001600160a01b03909116600482015260240160206040518083038186803b15801561111657600080fd5b505afa15801561112a573d6000803e3d6000fd5b505050506040513d601f19601f8201168201806040525081019061114e9190611c46565b9392505050565b60006002611162836108ff565b600490810154600160e01b900460ff169081111561119057634e487b7160e01b600052602160045260246000fd5b14156109b15761119f82610fa3565b600101546111ac83610fa3565b54610a199190611d8d565b60006111c1611340565b60009283526004016020525060409020546001600160a01b031690565b611236846323b872dd60e01b8585856040516024016111ff93929190611cc8565b60408051601f198184030181529190526020810180516001600160e01b03166001600160e01b0319909316929092179091526116b2565b50505050565b60006112677f5166f2578d96d76687be006158a90b639fcc7501b0381b6b4ed953aca3e0e183611784565b54919050565b600061271061128061ffff841685611ded565b61114e9190611dcd565b600080611296836108ff565b600101546001600160a01b031690506112af83826110bd565b6112b99083611d8d565b915060006112c68461178c565b905060006112d3826117a9565b11156113395760005b6112e5826117a9565b811015611337576000611301866112fc85856117b3565b6110bd565b905061131761131084846117b3565b858361091c565b6113219086611d8d565b945050808061132f90611e4f565b9150506112dc565b505b5050919050565b60007f0553069f1f0518e59f8623c18c83a1f987f2a0544d563e98dd803a7078142a855b905090565b6000600080516020611e81833981519152611364565b60006113896117bf565b60008381526001919091016020526040812091505b6113a7826117a9565b811015611445576006546001600160a01b03166001600160a01b03166323b872dd306000600901546001600160a01b03166113e286866117b3565b6040518463ffffffff1660e01b815260040161140093929190611cc8565b600060405180830381600087803b15801561141a57600080fd5b505af115801561142e573d6000803e3d6000fd5b50505050808061143d90611e4f565b91505061139e565b505050565b6114da82611457846107ce565b6001600160a01b031663d17b71d7856040518263ffffffff1660e01b815260040161148491815260200190565b60206040518083038186803b15801561149c57600080fd5b505afa1580156114b0573d6000803e3d6000fd5b505050506040513d601f19601f820116820180604052508101906114d49190611c46565b83611553565b5050565b60006114e86117bf565b60008481526001919091016020526040812091505b611506826117a9565b811015611236576115406115186117bf565b6001600160a01b03851660009081526020919091526040902061153b84846117b3565b6117e7565b508061154b81611e4f565b9150506114fd565b61155c836107ce565b604051630ad58d2f60e01b815260048101859052602481018490526001600160a01b0383811660448301529190911690630ad58d2f90606401600060405180830381600087803b1580156115af57600080fd5b505af11580156115c3573d6000803e3d6000fd5b50505050806001600160a01b0316837f7c5e5cb62e5ed3caf3764e4b0afedfedef533e27809d43367799787ad2abcd418460405161160391815260200190565b60405180910390a3505050565b60008381527f0553069f1f0518e59f8623c18c83a1f987f2a0544d563e98dd803a7078142a8a602052604090208161165f8561164b816108ff565b600101546001600160a01b031686846117f3565b905060005b61166d836117a9565b8110156116aa578161168157505050611445565b6116968661168f85846117b3565b87856117f3565b9150806116a281611e4f565b915050611664565b505050505050565b6000611707826040518060400160405280602081526020017f5361666545524332303a206c6f772d6c6576656c2063616c6c206661696c6564815250856001600160a01b031661198e9092919063ffffffff16565b80519091501561144557808060200190518101906117259190611c0e565b6114455760405162461bcd60e51b815260206004820152602a60248201527f5361666545524332303a204552433230206f7065726174696f6e20646964206e6044820152691bdd081cdd58d8d9595960b21b6064820152608401610204565b600080610fad565b6000611796611340565b6000928352600501602052506040902090565b6000610a19825490565b600061114e838361199d565b60007f36ec560bcbaf142f58499b90035254e32b3f3563174bc96dc2b2724bafa4c2a7611364565b600061114e8383611a31565b60008061180086866110bd565b90508015611984576000611813876108ff565b600101546001600160a01b0387811691161415611831575080611854565b6118518661183e896108ff565b600101546001600160a01b03168461091c565b90505b8381116118d857611864876111b7565b6001600160a01b031663125bfb668787856040518463ffffffff1660e01b815260040161189393929190611cc8565b600060405180830381600087803b1580156118ad57600080fd5b505af11580156118c1573d6000803e3d6000fd5b5050505080846118d19190611e0c565b9350611982565b60006118e3886108ff565b600101546001600160a01b0388811691161415611901575083611912565b61190f836108718785611a80565b90505b61191b886111b7565b6001600160a01b031663125bfb668888846040518463ffffffff1660e01b815260040161194a93929190611cc8565b600060405180830381600087803b15801561196457600080fd5b505af1158015611978573d6000803e3d6000fd5b5050505060009450505b505b5090949350505050565b60606109968484600085611aad565b815460009082106119fb5760405162461bcd60e51b815260206004820152602260248201527f456e756d657261626c655365743a20696e646578206f7574206f6620626f756e604482015261647360f01b6064820152608401610204565b826000018281548110611a1e57634e487b7160e01b600052603260045260246000fd5b9060005260206000200154905092915050565b6000818152600183016020526040812054611a7857508154600181810184556000848152602080822090930184905584548482528286019093526040902091909155610a19565b506000610a19565b60008115611aa45781611a9561271085611ded565b611a9f9190611dcd565b61114e565b50600092915050565b606082471015611b0e5760405162461bcd60e51b815260206004820152602660248201527f416464726573733a20696e73756666696369656e742062616c616e636520666f6044820152651c8818d85b1b60d21b6064820152608401610204565b843b611b5c5760405162461bcd60e51b815260206004820152601d60248201527f416464726573733a2063616c6c20746f206e6f6e2d636f6e74726163740000006044820152606401610204565b600080866001600160a01b03168587604051611b789190611cac565b60006040518083038185875af1925050503d8060008114611bb5576040519150601f19603f3d011682016040523d82523d6000602084013e611bba565b606091505b5091509150611bca828286611bd5565b979650505050505050565b60608315611be457508161114e565b825115611bf45782518084602001fd5b8160405162461bcd60e51b81526004016102049190611cec565b600060208284031215611c1f578081fd5b8151801515811461114e578182fd5b600060208284031215611c3f578081fd5b5035919050565b600060208284031215611c57578081fd5b5051919050565b60008060408385031215611c70578081fd5b50508035926020909101359150565b600080600060608486031215611c93578081fd5b8351925060208401519150604084015190509250925092565b60008251611cbe818460208701611e23565b9190910192915050565b6001600160a01b039384168152919092166020820152604081019190915260600190565b6000602082528251806020840152611d0b816040850160208701611e23565b601f01601f19169190910160400192915050565b6020808252601d908201527f416363657373436f6e74726f6c3a206e6f7420617574686f72697a6564000000604082015260600190565b60208082526018908201527f416363657373436f6e74726f6c3a207265656e74657265640000000000000000604082015260600190565b60008219821115611da057611da0611e6a565b500190565b600063ffffffff808316818516808303821115611dc457611dc4611e6a565b01949350505050565b600082611de857634e487b7160e01b81526012600452602481fd5b500490565b6000816000190483118215151615611e0757611e07611e6a565b500290565b600082821015611e1e57611e1e611e6a565b500390565b60005b83811015611e3e578181015183820152602001611e26565b838111156112365750506000910152565b6000600019821415611e6357611e63611e6a565b5060010190565b634e487b7160e01b600052601160045260246000fdfe7b305b6be5f275f648d05716597c483d754c2a242bd605feba3c64fb85360534a2646970667358221220d5fa76795c3bc3b50f0ecb4b820f387bf0b0584a2e37ed8d3dfd54c4ee4a997364736f6c63430008030033",
          "deployedBytecode": "0x608060405234801561001057600080fd5b506004361061004c5760003560e01c80635ebc6334146100515780638a700b531461007d578063ccdd9f5d14610092578063e89ad656146100a5575b600080fd5b61006461005f366004611c2e565b6100b8565b6040805192835260208301919091520160405180910390f35b61009061008b366004611c5e565b610189565b005b6100906100a0366004611c2e565b6102ea565b6100906100b3366004611c5e565b6105da565b60008061014a836100c8856107ce565b6001600160a01b031663d17b71d7866040518263ffffffff1660e01b81526004016100f591815260200190565b60206040518083038186803b15801561010d57600080fd5b505afa158015610121573d6000803e3d6000fd5b505050506040513d601f19601f820116820180604052508101906101459190611c46565b61083b565b509150610182610159846108ff565b600101546001600160a01b031661016f856108ff565b600201546001600160a01b03168461091c565b9050915091565b60008080527f7b305b6be5f275f648d05716597c483d754c2a242bd605feba3c64fb853605366020527f63eec20f0ae1af135811da961c707cd581594291a92cf7bcd78c1cf1aca4e4b054600080516020611e818339815191529060ff161561020d5760405162461bcd60e51b815260040161020490611d56565b60405180910390fd5b60008281526002820160205260408120805460ff1916600117905580806102338161099e565b151514801561024d57508015156102498361099e565b1515145b610256826109b6565b906102745760405162461bcd60e51b81526004016102049190611cec565b507f50e75b23f8ec51bbcb044fe377457e835f3b5ccc7ebf69e80906452015dff607336102a18282610a1f565b6102bd5760405162461bcd60e51b815260040161020490611d1f565b6102ca8888336000610a53565b5050506000938452505060020160205260409020805460ff191690555050565b60008080527f7b305b6be5f275f648d05716597c483d754c2a242bd605feba3c64fb853605366020527f63eec20f0ae1af135811da961c707cd581594291a92cf7bcd78c1cf1aca4e4b054600080516020611e818339815191529060ff16156103655760405162461bcd60e51b815260040161020490611d56565b60008281526002820160205260408120805460ff19166001179055808061038b8161099e565b15151480156103a557508015156103a18361099e565b1515145b6103ae826109b6565b906103cc5760405162461bcd60e51b81526004016102049190611cec565b507f50e75b23f8ec51bbcb044fe377457e835f3b5ccc7ebf69e80906452015dff607336103f98282610a1f565b6104155760405162461bcd60e51b815260040161020490611d1f565b6000610420886108ff565b9050600061042d896107ce565b6001600160a01b031663d17b71d78a6040518263ffffffff1660e01b815260040161045a91815260200190565b60206040518083038186803b15801561047257600080fd5b505afa158015610486573d6000803e3d6000fd5b505050506040513d601f19601f820116820180604052508101906104aa9190611c46565b90506104b68982610e80565b61050c5760405162461bcd60e51b815260206004820152602160248201527f54656c6c65723a20646f6573206e6f74206e656564206c69717569646174696f6044820152603760f91b6064820152608401610204565b6000806105198b8461083b565b9150915060006105288c610fa3565b600101546105358d610fa3565b546105409190611d8d565b905061054f8c82336001610a53565b508215610563576105638c84848733610fc0565b845460408051338152602081018690529081018390526001600160a01b03909116908d907f9950a0562c02382e2e840daa73082d5be7660ce37601f28fa4c84089c11e8a069060600160405180910390a35050506000978852505050600290930160205250506040909120805460ff191690555050565b600080806105e78161099e565b151514801561060157508015156105fd8361099e565b1515145b61060a826109b6565b906106285760405162461bcd60e51b81526004016102049190611cec565b507f50e75b23f8ec51bbcb044fe377457e835f3b5ccc7ebf69e80906452015dff607336106558282610a1f565b6106715760405162461bcd60e51b815260040161020490611d1f565b60008080527f7b305b6be5f275f648d05716597c483d754c2a242bd605feba3c64fb853605366020527f63eec20f0ae1af135811da961c707cd581594291a92cf7bcd78c1cf1aca4e4b054600080516020611e818339815191529060ff16156106ec5760405162461bcd60e51b815260040161020490611d56565b60008281526002820160205260408120805460ff1916600117905561072689610714816108ff565b600101546001600160a01b03166110bd565b905060006107338a611155565b9050808210801561074357508189115b15610797576000818a116107605761075b838b611e0c565b61076a565b61076a8383611e0c565b90506107956107788c6108ff565b600101546001600160a01b03163361078f8e6111b7565b846111de565b505b6107ac8a8a6107a58d6111b7565b6000610a53565b505050600091825260020160205260409020805460ff19169055505050505050565b60009081527f0553069f1f0518e59f8623c18c83a1f987f2a0544d563e98dd803a7078142a8660209081526040808320600201546001600160a01b0390811684527f0553069f1f0518e59f8623c18c83a1f987f2a0544d563e98dd803a7078142a8b909252909120541690565b600080600061084985610fa3565b6001015461085686610fa3565b546108619190611d8d565b905060006108768261087161123c565b61126d565b6108809083611d8d565b905084156108cc576108bd610894876108ff565b600201546001600160a01b03166108aa886108ff565b600101546001600160a01b03168761091c565b92506108c98385611d8d565b93505b808410156108ea576108dd8661128a565b6108e79085611d8d565b93505b808411156108f6578093505b50509250929050565b6000610909611340565b6000928352600101602052506040902090565b60405163c05b1ec360e01b8152600090309063c05b1ec39061094690879087908790600401611cc8565b60206040518083038186803b15801561095e57600080fd5b505afa158015610972573d6000803e3d6000fd5b505050506040513d601f19601f820116820180604052508101906109969190611c46565b949350505050565b60008181526001602052604090205460ff165b919050565b6060816109eb576040518060400160405280601081526020016f14185d5cd8589b194e881c185d5cd95960821b815250610a19565b6040518060400160405280601481526020017314185d5cd8589b194e881b9bdd081c185d5cd95960621b8152505b92915050565b6000610a29611369565b6000938452602090815260408085206001600160a01b039490941685529290525090205460ff1690565b6000808411610a995760405162461bcd60e51b815260206004820152601260248201527154656c6c65723a207a65726f20726570617960701b6044820152606401610204565b610aa285610fa3565b60010154610aaf86610fa3565b54610aba9190611d8d565b905083811015610acd5792506000610ada565b610ad78482611e0c565b90505b60007f0553069f1f0518e59f8623c18c83a1f987f2a0544d563e98dd803a7078142a8d81610b07886108ff565b600101546001600160a01b039081168252602082019290925260400160002054811691508416610b36876111b7565b6001600160a01b03161415610bce57610b4e866111b7565b6001600160a01b031663125bfb66610b65886108ff565b600101546040516001600160e01b031960e084901b168152610b97916001600160a01b03169085908a90600401611cc8565b600060405180830381600087803b158015610bb157600080fd5b505af1158015610bc5573d6000803e3d6000fd5b50505050610bef565b610bef610bda876108ff565b600101546001600160a01b03168583886111de565b600080610bfb88610fa3565b60010154871015610c2f57508580610c1289610fa3565b6001016000828254610c249190611e0c565b90915550610c989050565b6000610c3a89610fa3565b600101541115610c6f57610c4d88610fa3565b600101549050610c5d8188611e0c565b96506000610c6a89610fa3565b600101555b8615610c985786915086610c8289610fa3565b8054600090610c92908490611e0c565b90915550505b604051638a700b5360e01b815260048101839052602481018290526001600160a01b03841690638a700b5390604401600060405180830381600087803b158015610ce157600080fd5b505af1158015610cf5573d6000803e3d6000fd5b505050508415610d9d578315610d4d5760405162461bcd60e51b815260206004820152601f60248201527f54656c6c65723a206c6971756964617465207061727469616c207265706179006044820152606401610204565b6004610d58896108ff565b600401601c6101000a81548160ff02191690836004811115610d8a57634e487b7160e01b600052602160045260246000fd5b0217905550610d988861137f565b610e75565b83610e1c576003610dad896108ff565b600401601c6101000a81548160ff02191690836004811115610ddf57634e487b7160e01b600052602160045260246000fd5b0217905550610e0088610df18a6108ff565b546001600160a01b031661144a565b610e1c88610e0d8a6108ff565b546001600160a01b03166114de565b610e25886108ff565b54604080518981523360208201529081018690526001600160a01b039091169089907f20a1f2ec363af45dc5ee7d9d622f2dd68b52501c382126c7f04b53663c4c69bf9060600160405180910390a35b505050949350505050565b600080610e8c846108ff565b90506002600482810154600160e01b900460ff1690811115610ebe57634e487b7160e01b600052602160045260246000fd5b14610ecd576000915050610a19565b6004810154600160d01b900461ffff1615610f6d576040516372e1132760e01b81526004810185905260009030906372e113279060240160606040518083038186803b158015610f1c57600080fd5b505afa158015610f30573d6000803e3d6000fd5b505050506040513d601f19601f82011682018060405250810190610f549190611c7f565b5091505083811115610f6b57600192505050610a19565b505b6004810154610f929063ffffffff600160801b8204811691600160a01b900416611da5565b63ffffffff16421015949350505050565b6000610fad611340565b6000928352600201602052506040902090565b6004610fcb866108ff565b600490810154600160e01b900460ff1690811115610ff957634e487b7160e01b600052602160045260246000fd5b146110465760405162461bcd60e51b815260206004820152601b60248201527f54656c6c65723a206c6f616e206e6f74206c69717569646174656400000000006044820152606401610204565b82841161109757600061108461105b876108ff565b600101546001600160a01b0316611071886108ff565b600201546001600160a01b03168761091c565b9050611091868284611553565b506110b6565b6110a2858383611553565b6110b685826110b18688611e0c565b611610565b5050505050565b6000816001600160a01b03166370a082316110d7856111b7565b6040516001600160e01b031960e084901b1681526001600160a01b03909116600482015260240160206040518083038186803b15801561111657600080fd5b505afa15801561112a573d6000803e3d6000fd5b505050506040513d601f19601f8201168201806040525081019061114e9190611c46565b9392505050565b60006002611162836108ff565b600490810154600160e01b900460ff169081111561119057634e487b7160e01b600052602160045260246000fd5b14156109b15761119f82610fa3565b600101546111ac83610fa3565b54610a199190611d8d565b60006111c1611340565b60009283526004016020525060409020546001600160a01b031690565b611236846323b872dd60e01b8585856040516024016111ff93929190611cc8565b60408051601f198184030181529190526020810180516001600160e01b03166001600160e01b0319909316929092179091526116b2565b50505050565b60006112677f5166f2578d96d76687be006158a90b639fcc7501b0381b6b4ed953aca3e0e183611784565b54919050565b600061271061128061ffff841685611ded565b61114e9190611dcd565b600080611296836108ff565b600101546001600160a01b031690506112af83826110bd565b6112b99083611d8d565b915060006112c68461178c565b905060006112d3826117a9565b11156113395760005b6112e5826117a9565b811015611337576000611301866112fc85856117b3565b6110bd565b905061131761131084846117b3565b858361091c565b6113219086611d8d565b945050808061132f90611e4f565b9150506112dc565b505b5050919050565b60007f0553069f1f0518e59f8623c18c83a1f987f2a0544d563e98dd803a7078142a855b905090565b6000600080516020611e81833981519152611364565b60006113896117bf565b60008381526001919091016020526040812091505b6113a7826117a9565b811015611445576006546001600160a01b03166001600160a01b03166323b872dd306000600901546001600160a01b03166113e286866117b3565b6040518463ffffffff1660e01b815260040161140093929190611cc8565b600060405180830381600087803b15801561141a57600080fd5b505af115801561142e573d6000803e3d6000fd5b50505050808061143d90611e4f565b91505061139e565b505050565b6114da82611457846107ce565b6001600160a01b031663d17b71d7856040518263ffffffff1660e01b815260040161148491815260200190565b60206040518083038186803b15801561149c57600080fd5b505afa1580156114b0573d6000803e3d6000fd5b505050506040513d601f19601f820116820180604052508101906114d49190611c46565b83611553565b5050565b60006114e86117bf565b60008481526001919091016020526040812091505b611506826117a9565b811015611236576115406115186117bf565b6001600160a01b03851660009081526020919091526040902061153b84846117b3565b6117e7565b508061154b81611e4f565b9150506114fd565b61155c836107ce565b604051630ad58d2f60e01b815260048101859052602481018490526001600160a01b0383811660448301529190911690630ad58d2f90606401600060405180830381600087803b1580156115af57600080fd5b505af11580156115c3573d6000803e3d6000fd5b50505050806001600160a01b0316837f7c5e5cb62e5ed3caf3764e4b0afedfedef533e27809d43367799787ad2abcd418460405161160391815260200190565b60405180910390a3505050565b60008381527f0553069f1f0518e59f8623c18c83a1f987f2a0544d563e98dd803a7078142a8a602052604090208161165f8561164b816108ff565b600101546001600160a01b031686846117f3565b905060005b61166d836117a9565b8110156116aa578161168157505050611445565b6116968661168f85846117b3565b87856117f3565b9150806116a281611e4f565b915050611664565b505050505050565b6000611707826040518060400160405280602081526020017f5361666545524332303a206c6f772d6c6576656c2063616c6c206661696c6564815250856001600160a01b031661198e9092919063ffffffff16565b80519091501561144557808060200190518101906117259190611c0e565b6114455760405162461bcd60e51b815260206004820152602a60248201527f5361666545524332303a204552433230206f7065726174696f6e20646964206e6044820152691bdd081cdd58d8d9595960b21b6064820152608401610204565b600080610fad565b6000611796611340565b6000928352600501602052506040902090565b6000610a19825490565b600061114e838361199d565b60007f36ec560bcbaf142f58499b90035254e32b3f3563174bc96dc2b2724bafa4c2a7611364565b600061114e8383611a31565b60008061180086866110bd565b90508015611984576000611813876108ff565b600101546001600160a01b0387811691161415611831575080611854565b6118518661183e896108ff565b600101546001600160a01b03168461091c565b90505b8381116118d857611864876111b7565b6001600160a01b031663125bfb668787856040518463ffffffff1660e01b815260040161189393929190611cc8565b600060405180830381600087803b1580156118ad57600080fd5b505af11580156118c1573d6000803e3d6000fd5b5050505080846118d19190611e0c565b9350611982565b60006118e3886108ff565b600101546001600160a01b0388811691161415611901575083611912565b61190f836108718785611a80565b90505b61191b886111b7565b6001600160a01b031663125bfb668888846040518463ffffffff1660e01b815260040161194a93929190611cc8565b600060405180830381600087803b15801561196457600080fd5b505af1158015611978573d6000803e3d6000fd5b5050505060009450505b505b5090949350505050565b60606109968484600085611aad565b815460009082106119fb5760405162461bcd60e51b815260206004820152602260248201527f456e756d657261626c655365743a20696e646578206f7574206f6620626f756e604482015261647360f01b6064820152608401610204565b826000018281548110611a1e57634e487b7160e01b600052603260045260246000fd5b9060005260206000200154905092915050565b6000818152600183016020526040812054611a7857508154600181810184556000848152602080822090930184905584548482528286019093526040902091909155610a19565b506000610a19565b60008115611aa45781611a9561271085611ded565b611a9f9190611dcd565b61114e565b50600092915050565b606082471015611b0e5760405162461bcd60e51b815260206004820152602660248201527f416464726573733a20696e73756666696369656e742062616c616e636520666f6044820152651c8818d85b1b60d21b6064820152608401610204565b843b611b5c5760405162461bcd60e51b815260206004820152601d60248201527f416464726573733a2063616c6c20746f206e6f6e2d636f6e74726163740000006044820152606401610204565b600080866001600160a01b03168587604051611b789190611cac565b60006040518083038185875af1925050503d8060008114611bb5576040519150601f19603f3d011682016040523d82523d6000602084013e611bba565b606091505b5091509150611bca828286611bd5565b979650505050505050565b60608315611be457508161114e565b825115611bf45782518084602001fd5b8160405162461bcd60e51b81526004016102049190611cec565b600060208284031215611c1f578081fd5b8151801515811461114e578182fd5b600060208284031215611c3f578081fd5b5035919050565b600060208284031215611c57578081fd5b5051919050565b60008060408385031215611c70578081fd5b50508035926020909101359150565b600080600060608486031215611c93578081fd5b8351925060208401519150604084015190509250925092565b60008251611cbe818460208701611e23565b9190910192915050565b6001600160a01b039384168152919092166020820152604081019190915260600190565b6000602082528251806020840152611d0b816040850160208701611e23565b601f01601f19169190910160400192915050565b6020808252601d908201527f416363657373436f6e74726f6c3a206e6f7420617574686f72697a6564000000604082015260600190565b60208082526018908201527f416363657373436f6e74726f6c3a207265656e74657265640000000000000000604082015260600190565b60008219821115611da057611da0611e6a565b500190565b600063ffffffff808316818516808303821115611dc457611dc4611e6a565b01949350505050565b600082611de857634e487b7160e01b81526012600452602481fd5b500490565b6000816000190483118215151615611e0757611e07611e6a565b500290565b600082821015611e1e57611e1e611e6a565b500390565b60005b83811015611e3e578181015183820152602001611e26565b838111156112365750506000910152565b6000600019821415611e6357611e63611e6a565b5060010190565b634e487b7160e01b600052601160045260246000fdfe7b305b6be5f275f648d05716597c483d754c2a242bd605feba3c64fb85360534a2646970667358221220d5fa76795c3bc3b50f0ecb4b820f387bf0b0584a2e37ed8d3dfd54c4ee4a997364736f6c63430008030033",
          "history": [
            {
              "address": "0xD99dFbd7eE2cc714DEbff8390C33f0dBB1502eD2",
              "abi": [
                {
                  "anonymous": false,
                  "inputs": [
                    {
                      "indexed": true,
                      "internalType": "uint256",
                      "name": "loanID",
                      "type": "uint256"
                    },
                    {
                      "indexed": true,
                      "internalType": "address",
                      "name": "borrower",
                      "type": "address"
                    },
                    {
                      "indexed": false,
                      "internalType": "address",
                      "name": "liquidator",
                      "type": "address"
                    },
                    {
                      "indexed": false,
                      "internalType": "uint256",
                      "name": "reward",
                      "type": "uint256"
                    },
                    {
                      "indexed": false,
                      "internalType": "uint256",
                      "name": "tokensIn",
                      "type": "uint256"
                    }
                  ],
                  "name": "LoanLiquidated",
                  "type": "event"
                },
                {
                  "anonymous": false,
                  "inputs": [
                    {
                      "indexed": true,
                      "internalType": "uint256",
                      "name": "loanID",
                      "type": "uint256"
                    },
                    {
                      "indexed": true,
                      "internalType": "address",
                      "name": "borrower",
                      "type": "address"
                    },
                    {
                      "indexed": false,
                      "internalType": "uint256",
                      "name": "amountPaid",
                      "type": "uint256"
                    },
                    {
                      "indexed": false,
                      "internalType": "address",
                      "name": "payer",
                      "type": "address"
                    },
                    {
                      "indexed": false,
                      "internalType": "uint256",
                      "name": "totalOwed",
                      "type": "uint256"
                    }
                  ],
                  "name": "LoanRepaid",
                  "type": "event"
                },
                {
                  "inputs": [
                    {
                      "internalType": "uint256",
                      "name": "loanID",
                      "type": "uint256"
                    },
                    {
                      "internalType": "uint256",
                      "name": "amount",
                      "type": "uint256"
                    }
                  ],
                  "name": "escrowRepay",
                  "outputs": [],
                  "stateMutability": "nonpayable",
                  "type": "function"
                },
                {
                  "inputs": [
                    {
                      "internalType": "uint256",
                      "name": "loanID",
                      "type": "uint256"
                    }
                  ],
                  "name": "getLiquidationReward",
                  "outputs": [
                    {
                      "internalType": "uint256",
                      "name": "inLending_",
                      "type": "uint256"
                    },
                    {
                      "internalType": "uint256",
                      "name": "inCollateral_",
                      "type": "uint256"
                    }
                  ],
                  "stateMutability": "view",
                  "type": "function"
                },
                {
                  "inputs": [
                    {
                      "internalType": "uint256",
                      "name": "loanID",
                      "type": "uint256"
                    }
                  ],
                  "name": "liquidateLoan",
                  "outputs": [],
                  "stateMutability": "nonpayable",
                  "type": "function"
                },
                {
                  "inputs": [
                    {
                      "internalType": "uint256",
                      "name": "loanID",
                      "type": "uint256"
                    },
                    {
                      "internalType": "uint256",
                      "name": "amount",
                      "type": "uint256"
                    }
                  ],
                  "name": "repayLoan",
                  "outputs": [],
                  "stateMutability": "nonpayable",
                  "type": "function"
                }
              ],
              "artifactName": "RepayFacet",
              "transactionHash": "0x44d6b974ec21f1c4420ecb2be53506c60d1abe4b5fac2a2b5352ae4a3fb3bb5d",
              "receipt": {
                "to": null,
                "from": "0xAFe87013dc96edE1E116a288D80FcaA0eFFE5fe5",
                "contractAddress": "0xD99dFbd7eE2cc714DEbff8390C33f0dBB1502eD2",
                "transactionIndex": 0,
                "gasUsed": "1838004",
                "logsBloom": "0x00000000000000000000000000000000000000000000000000000000000000000000000000000000000000000000000000000000000000000000000000000000000000000000000000000000000000000000000000000000000000000000000000000000000000000000000000000000000000000000000000000000000000000000000000000000000000000000000000000000000000000000000000000000000000000000000000000000000000000000000000000000000000000000000000000000000000000000000000000000000000000000000000000000000000000000000000000000000000000000000000000000000000000000000000000000",
                "blockHash": "0xecd0c4fcd32a0e212c29bf1a50f9095c4551299b06f40b8cb32c08eeeb3ab526",
                "transactionHash": "0x44d6b974ec21f1c4420ecb2be53506c60d1abe4b5fac2a2b5352ae4a3fb3bb5d",
                "logs": [],
                "blockNumber": 25103793,
                "cumulativeGasUsed": "1838004",
                "status": 1,
                "byzantium": true
              },
              "args": [],
              "solcInputHash": "dc3b3c0336b59a4fae33a8cd036a81b5",
              "metadata": "{\"compiler\":{\"version\":\"0.8.3+commit.8d00100c\"},\"language\":\"Solidity\",\"output\":{\"abi\":[{\"anonymous\":false,\"inputs\":[{\"indexed\":true,\"internalType\":\"uint256\",\"name\":\"loanID\",\"type\":\"uint256\"},{\"indexed\":true,\"internalType\":\"address\",\"name\":\"borrower\",\"type\":\"address\"},{\"indexed\":false,\"internalType\":\"address\",\"name\":\"liquidator\",\"type\":\"address\"},{\"indexed\":false,\"internalType\":\"uint256\",\"name\":\"reward\",\"type\":\"uint256\"},{\"indexed\":false,\"internalType\":\"uint256\",\"name\":\"tokensIn\",\"type\":\"uint256\"}],\"name\":\"LoanLiquidated\",\"type\":\"event\"},{\"anonymous\":false,\"inputs\":[{\"indexed\":true,\"internalType\":\"uint256\",\"name\":\"loanID\",\"type\":\"uint256\"},{\"indexed\":true,\"internalType\":\"address\",\"name\":\"borrower\",\"type\":\"address\"},{\"indexed\":false,\"internalType\":\"uint256\",\"name\":\"amountPaid\",\"type\":\"uint256\"},{\"indexed\":false,\"internalType\":\"address\",\"name\":\"payer\",\"type\":\"address\"},{\"indexed\":false,\"internalType\":\"uint256\",\"name\":\"totalOwed\",\"type\":\"uint256\"}],\"name\":\"LoanRepaid\",\"type\":\"event\"},{\"inputs\":[{\"internalType\":\"uint256\",\"name\":\"loanID\",\"type\":\"uint256\"},{\"internalType\":\"uint256\",\"name\":\"amount\",\"type\":\"uint256\"}],\"name\":\"escrowRepay\",\"outputs\":[],\"stateMutability\":\"nonpayable\",\"type\":\"function\"},{\"inputs\":[{\"internalType\":\"uint256\",\"name\":\"loanID\",\"type\":\"uint256\"}],\"name\":\"getLiquidationReward\",\"outputs\":[{\"internalType\":\"uint256\",\"name\":\"inLending_\",\"type\":\"uint256\"},{\"internalType\":\"uint256\",\"name\":\"inCollateral_\",\"type\":\"uint256\"}],\"stateMutability\":\"view\",\"type\":\"function\"},{\"inputs\":[{\"internalType\":\"uint256\",\"name\":\"loanID\",\"type\":\"uint256\"}],\"name\":\"liquidateLoan\",\"outputs\":[],\"stateMutability\":\"nonpayable\",\"type\":\"function\"},{\"inputs\":[{\"internalType\":\"uint256\",\"name\":\"loanID\",\"type\":\"uint256\"},{\"internalType\":\"uint256\",\"name\":\"amount\",\"type\":\"uint256\"}],\"name\":\"repayLoan\",\"outputs\":[],\"stateMutability\":\"nonpayable\",\"type\":\"function\"}],\"devdoc\":{\"events\":{\"LoanLiquidated(uint256,address,address,uint256,uint256)\":{\"params\":{\"borrower\":\"Account address of the borrower\",\"liquidator\":\"Account address of the liquidator\",\"loanID\":\"ID of loan from which collateral was withdrawn\",\"reward\":\"Value in lending token paid out to liquidator\",\"tokensIn\":\"Percentage of the collateral price paid by the liquidator to the lending pool\"}},\"LoanRepaid(uint256,address,uint256,address,uint256)\":{\"params\":{\"amountPaid\":\"Amount of the loan paid back\",\"borrower\":\"Account address of the borrower\",\"loanID\":\"ID of loan from which collateral was withdrawn\",\"payer\":\"Account address of the payer\",\"totalOwed\":\"Total amount of the loan to be repaid\"}}},\"kind\":\"dev\",\"methods\":{\"escrowRepay(uint256,uint256)\":{\"details\":\"If the Escrow's balance of the borrowed token is less than the amount to repay, transfer tokens from the sender's wallet.Only the owner of the Escrow can call this. If someone else wants to make a payment, they should call the loan manager directly.\",\"params\":{\"amount\":\"The amount being repaid.\",\"loanID\":\"The id of the loan being used.\"}},\"getLiquidationReward(uint256)\":{\"params\":{\"loanID\":\"The loan ID to get the info.\"},\"returns\":{\"inCollateral_\":\"The value the liquidator will receive denoted in collateral tokens.\",\"inLending_\":\"The value the liquidator will receive denoted in lending tokens.\"}},\"liquidateLoan(uint256)\":{\"params\":{\"loanID\":\"The ID of the loan to be liquidated\"}},\"repayLoan(uint256,uint256)\":{\"params\":{\"amount\":\"The amount of tokens to pay back to the loan\",\"loanID\":\"The ID of the loan the payment is for\"}}},\"version\":1},\"userdoc\":{\"events\":{\"LoanLiquidated(uint256,address,address,uint256,uint256)\":{\"notice\":\"This event is emitted when a loan has been successfully liquidated\"},\"LoanRepaid(uint256,address,uint256,address,uint256)\":{\"notice\":\"This event is emitted when a loan has been successfully repaid\"}},\"kind\":\"user\",\"methods\":{\"escrowRepay(uint256,uint256)\":{\"notice\":\"Repay this Escrow's loan.\"},\"getLiquidationReward(uint256)\":{\"notice\":\"It gets the current liquidation reward for a given loan.\"},\"liquidateLoan(uint256)\":{\"notice\":\"Liquidate a loan if it is expired or under collateralized\"},\"repayLoan(uint256,uint256)\":{\"notice\":\"Make a payment to a loan\"}},\"version\":1}},\"settings\":{\"compilationTarget\":{\"contracts/market/RepayFacet.sol\":\"RepayFacet\"},\"evmVersion\":\"istanbul\",\"libraries\":{},\"metadata\":{\"bytecodeHash\":\"ipfs\",\"useLiteralContent\":true},\"optimizer\":{\"enabled\":true,\"runs\":200},\"remappings\":[]},\"sources\":{\"@chainlink/contracts/src/v0.8/interfaces/AggregatorInterface.sol\":{\"content\":\"// SPDX-License-Identifier: MIT\\npragma solidity ^0.8.0;\\n\\ninterface AggregatorInterface {\\n  function latestAnswer()\\n    external\\n    view\\n    returns (\\n      int256\\n    );\\n  \\n  function latestTimestamp()\\n    external\\n    view\\n    returns (\\n      uint256\\n    );\\n\\n  function latestRound()\\n    external\\n    view\\n    returns (\\n      uint256\\n    );\\n\\n  function getAnswer(\\n    uint256 roundId\\n  )\\n    external\\n    view\\n    returns (\\n      int256\\n    );\\n\\n  function getTimestamp(\\n    uint256 roundId\\n  )\\n    external\\n    view\\n    returns (\\n      uint256\\n    );\\n\\n  event AnswerUpdated(\\n    int256 indexed current,\\n    uint256 indexed roundId,\\n    uint256 updatedAt\\n  );\\n\\n  event NewRound(\\n    uint256 indexed roundId,\\n    address indexed startedBy,\\n    uint256 startedAt\\n  );\\n}\\n\",\"keccak256\":\"0x1a5dc81544a6479f64437a8aca22c869769dd54ee3522c7ef5ebae0d329a28f0\",\"license\":\"MIT\"},\"@chainlink/contracts/src/v0.8/interfaces/AggregatorV2V3Interface.sol\":{\"content\":\"// SPDX-License-Identifier: MIT\\npragma solidity ^0.8.0;\\n\\nimport \\\"./AggregatorInterface.sol\\\";\\nimport \\\"./AggregatorV3Interface.sol\\\";\\n\\ninterface AggregatorV2V3Interface is AggregatorInterface, AggregatorV3Interface\\n{\\n}\\n\",\"keccak256\":\"0xe8f8d98b515366730824d24269c7267eee7f0288cf737db8659acbb0c751eb53\",\"license\":\"MIT\"},\"@chainlink/contracts/src/v0.8/interfaces/AggregatorV3Interface.sol\":{\"content\":\"// SPDX-License-Identifier: MIT\\npragma solidity ^0.8.0;\\n\\ninterface AggregatorV3Interface {\\n\\n  function decimals()\\n    external\\n    view\\n    returns (\\n      uint8\\n    );\\n\\n  function description()\\n    external\\n    view\\n    returns (\\n      string memory\\n    );\\n\\n  function version()\\n    external\\n    view\\n    returns (\\n      uint256\\n    );\\n\\n  // getRoundData and latestRoundData should both raise \\\"No data present\\\"\\n  // if they do not have data to report, instead of returning unset values\\n  // which could be misinterpreted as actual reported values.\\n  function getRoundData(\\n    uint80 _roundId\\n  )\\n    external\\n    view\\n    returns (\\n      uint80 roundId,\\n      int256 answer,\\n      uint256 startedAt,\\n      uint256 updatedAt,\\n      uint80 answeredInRound\\n    );\\n\\n  function latestRoundData()\\n    external\\n    view\\n    returns (\\n      uint80 roundId,\\n      int256 answer,\\n      uint256 startedAt,\\n      uint256 updatedAt,\\n      uint80 answeredInRound\\n    );\\n\\n}\\n\",\"keccak256\":\"0xe6f5ac8c47f3b9b6135051efb9216f9ba5b312a6ecc20209b4f66a780443c328\",\"license\":\"MIT\"},\"@openzeppelin/contracts-upgradeable/access/AccessControlUpgradeable.sol\":{\"content\":\"// SPDX-License-Identifier: MIT\\n\\npragma solidity ^0.8.0;\\n\\nimport \\\"../utils/ContextUpgradeable.sol\\\";\\nimport \\\"../utils/StringsUpgradeable.sol\\\";\\nimport \\\"../utils/introspection/ERC165Upgradeable.sol\\\";\\nimport \\\"../proxy/utils/Initializable.sol\\\";\\n\\n/**\\n * @dev External interface of AccessControl declared to support ERC165 detection.\\n */\\ninterface IAccessControlUpgradeable {\\n    function hasRole(bytes32 role, address account) external view returns (bool);\\n    function getRoleAdmin(bytes32 role) external view returns (bytes32);\\n    function grantRole(bytes32 role, address account) external;\\n    function revokeRole(bytes32 role, address account) external;\\n    function renounceRole(bytes32 role, address account) external;\\n}\\n\\n/**\\n * @dev Contract module that allows children to implement role-based access\\n * control mechanisms. This is a lightweight version that doesn't allow enumerating role\\n * members except through off-chain means by accessing the contract event logs. Some\\n * applications may benefit from on-chain enumerability, for those cases see\\n * {AccessControlEnumerable}.\\n *\\n * Roles are referred to by their `bytes32` identifier. These should be exposed\\n * in the external API and be unique. The best way to achieve this is by\\n * using `public constant` hash digests:\\n *\\n * ```\\n * bytes32 public constant MY_ROLE = keccak256(\\\"MY_ROLE\\\");\\n * ```\\n *\\n * Roles can be used to represent a set of permissions. To restrict access to a\\n * function call, use {hasRole}:\\n *\\n * ```\\n * function foo() public {\\n *     require(hasRole(MY_ROLE, msg.sender));\\n *     ...\\n * }\\n * ```\\n *\\n * Roles can be granted and revoked dynamically via the {grantRole} and\\n * {revokeRole} functions. Each role has an associated admin role, and only\\n * accounts that have a role's admin role can call {grantRole} and {revokeRole}.\\n *\\n * By default, the admin role for all roles is `DEFAULT_ADMIN_ROLE`, which means\\n * that only accounts with this role will be able to grant or revoke other\\n * roles. More complex role relationships can be created by using\\n * {_setRoleAdmin}.\\n *\\n * WARNING: The `DEFAULT_ADMIN_ROLE` is also its own admin: it has permission to\\n * grant and revoke this role. Extra precautions should be taken to secure\\n * accounts that have been granted it.\\n */\\nabstract contract AccessControlUpgradeable is Initializable, ContextUpgradeable, IAccessControlUpgradeable, ERC165Upgradeable {\\n    function __AccessControl_init() internal initializer {\\n        __Context_init_unchained();\\n        __ERC165_init_unchained();\\n        __AccessControl_init_unchained();\\n    }\\n\\n    function __AccessControl_init_unchained() internal initializer {\\n    }\\n    struct RoleData {\\n        mapping (address => bool) members;\\n        bytes32 adminRole;\\n    }\\n\\n    mapping (bytes32 => RoleData) private _roles;\\n\\n    bytes32 public constant DEFAULT_ADMIN_ROLE = 0x00;\\n\\n    /**\\n     * @dev Emitted when `newAdminRole` is set as ``role``'s admin role, replacing `previousAdminRole`\\n     *\\n     * `DEFAULT_ADMIN_ROLE` is the starting admin for all roles, despite\\n     * {RoleAdminChanged} not being emitted signaling this.\\n     *\\n     * _Available since v3.1._\\n     */\\n    event RoleAdminChanged(bytes32 indexed role, bytes32 indexed previousAdminRole, bytes32 indexed newAdminRole);\\n\\n    /**\\n     * @dev Emitted when `account` is granted `role`.\\n     *\\n     * `sender` is the account that originated the contract call, an admin role\\n     * bearer except when using {_setupRole}.\\n     */\\n    event RoleGranted(bytes32 indexed role, address indexed account, address indexed sender);\\n\\n    /**\\n     * @dev Emitted when `account` is revoked `role`.\\n     *\\n     * `sender` is the account that originated the contract call:\\n     *   - if using `revokeRole`, it is the admin role bearer\\n     *   - if using `renounceRole`, it is the role bearer (i.e. `account`)\\n     */\\n    event RoleRevoked(bytes32 indexed role, address indexed account, address indexed sender);\\n\\n    /**\\n     * @dev Modifier that checks that an account has a specific role. Reverts\\n     * with a standardized message including the required role.\\n     *\\n     * The format of the revert reason is given by the following regular expression:\\n     *\\n     *  /^AccessControl: account (0x[0-9a-f]{20}) is missing role (0x[0-9a-f]{32})$/\\n     *\\n     * _Available since v4.1._\\n     */\\n    modifier onlyRole(bytes32 role) {\\n        _checkRole(role, _msgSender());\\n        _;\\n    }\\n\\n    /**\\n     * @dev See {IERC165-supportsInterface}.\\n     */\\n    function supportsInterface(bytes4 interfaceId) public view virtual override returns (bool) {\\n        return interfaceId == type(IAccessControlUpgradeable).interfaceId\\n            || super.supportsInterface(interfaceId);\\n    }\\n\\n    /**\\n     * @dev Returns `true` if `account` has been granted `role`.\\n     */\\n    function hasRole(bytes32 role, address account) public view override returns (bool) {\\n        return _roles[role].members[account];\\n    }\\n\\n    /**\\n     * @dev Revert with a standard message if `account` is missing `role`.\\n     *\\n     * The format of the revert reason is given by the following regular expression:\\n     *\\n     *  /^AccessControl: account (0x[0-9a-f]{20}) is missing role (0x[0-9a-f]{32})$/\\n     */\\n    function _checkRole(bytes32 role, address account) internal view {\\n        if(!hasRole(role, account)) {\\n            revert(string(abi.encodePacked(\\n                \\\"AccessControl: account \\\",\\n                StringsUpgradeable.toHexString(uint160(account), 20),\\n                \\\" is missing role \\\",\\n                StringsUpgradeable.toHexString(uint256(role), 32)\\n            )));\\n        }\\n    }\\n\\n    /**\\n     * @dev Returns the admin role that controls `role`. See {grantRole} and\\n     * {revokeRole}.\\n     *\\n     * To change a role's admin, use {_setRoleAdmin}.\\n     */\\n    function getRoleAdmin(bytes32 role) public view override returns (bytes32) {\\n        return _roles[role].adminRole;\\n    }\\n\\n    /**\\n     * @dev Grants `role` to `account`.\\n     *\\n     * If `account` had not been already granted `role`, emits a {RoleGranted}\\n     * event.\\n     *\\n     * Requirements:\\n     *\\n     * - the caller must have ``role``'s admin role.\\n     */\\n    function grantRole(bytes32 role, address account) public virtual override onlyRole(getRoleAdmin(role)) {\\n        _grantRole(role, account);\\n    }\\n\\n    /**\\n     * @dev Revokes `role` from `account`.\\n     *\\n     * If `account` had been granted `role`, emits a {RoleRevoked} event.\\n     *\\n     * Requirements:\\n     *\\n     * - the caller must have ``role``'s admin role.\\n     */\\n    function revokeRole(bytes32 role, address account) public virtual override onlyRole(getRoleAdmin(role)) {\\n        _revokeRole(role, account);\\n    }\\n\\n    /**\\n     * @dev Revokes `role` from the calling account.\\n     *\\n     * Roles are often managed via {grantRole} and {revokeRole}: this function's\\n     * purpose is to provide a mechanism for accounts to lose their privileges\\n     * if they are compromised (such as when a trusted device is misplaced).\\n     *\\n     * If the calling account had been granted `role`, emits a {RoleRevoked}\\n     * event.\\n     *\\n     * Requirements:\\n     *\\n     * - the caller must be `account`.\\n     */\\n    function renounceRole(bytes32 role, address account) public virtual override {\\n        require(account == _msgSender(), \\\"AccessControl: can only renounce roles for self\\\");\\n\\n        _revokeRole(role, account);\\n    }\\n\\n    /**\\n     * @dev Grants `role` to `account`.\\n     *\\n     * If `account` had not been already granted `role`, emits a {RoleGranted}\\n     * event. Note that unlike {grantRole}, this function doesn't perform any\\n     * checks on the calling account.\\n     *\\n     * [WARNING]\\n     * ====\\n     * This function should only be called from the constructor when setting\\n     * up the initial roles for the system.\\n     *\\n     * Using this function in any other way is effectively circumventing the admin\\n     * system imposed by {AccessControl}.\\n     * ====\\n     */\\n    function _setupRole(bytes32 role, address account) internal virtual {\\n        _grantRole(role, account);\\n    }\\n\\n    /**\\n     * @dev Sets `adminRole` as ``role``'s admin role.\\n     *\\n     * Emits a {RoleAdminChanged} event.\\n     */\\n    function _setRoleAdmin(bytes32 role, bytes32 adminRole) internal virtual {\\n        emit RoleAdminChanged(role, getRoleAdmin(role), adminRole);\\n        _roles[role].adminRole = adminRole;\\n    }\\n\\n    function _grantRole(bytes32 role, address account) private {\\n        if (!hasRole(role, account)) {\\n            _roles[role].members[account] = true;\\n            emit RoleGranted(role, account, _msgSender());\\n        }\\n    }\\n\\n    function _revokeRole(bytes32 role, address account) private {\\n        if (hasRole(role, account)) {\\n            _roles[role].members[account] = false;\\n            emit RoleRevoked(role, account, _msgSender());\\n        }\\n    }\\n    uint256[49] private __gap;\\n}\\n\",\"keccak256\":\"0x719f71989e630280a6902f857ef2b038d761ef2d0d51611f9da463be6c7c4be5\",\"license\":\"MIT\"},\"@openzeppelin/contracts-upgradeable/proxy/utils/Initializable.sol\":{\"content\":\"// SPDX-License-Identifier: MIT\\n\\n// solhint-disable-next-line compiler-version\\npragma solidity ^0.8.0;\\n\\n/**\\n * @dev This is a base contract to aid in writing upgradeable contracts, or any kind of contract that will be deployed\\n * behind a proxy. Since a proxied contract can't have a constructor, it's common to move constructor logic to an\\n * external initializer function, usually called `initialize`. It then becomes necessary to protect this initializer\\n * function so it can only be called once. The {initializer} modifier provided by this contract will have this effect.\\n *\\n * TIP: To avoid leaving the proxy in an uninitialized state, the initializer function should be called as early as\\n * possible by providing the encoded function call as the `_data` argument to {ERC1967Proxy-constructor}.\\n *\\n * CAUTION: When used with inheritance, manual care must be taken to not invoke a parent initializer twice, or to ensure\\n * that all initializers are idempotent. This is not verified automatically as constructors are by Solidity.\\n */\\nabstract contract Initializable {\\n\\n    /**\\n     * @dev Indicates that the contract has been initialized.\\n     */\\n    bool private _initialized;\\n\\n    /**\\n     * @dev Indicates that the contract is in the process of being initialized.\\n     */\\n    bool private _initializing;\\n\\n    /**\\n     * @dev Modifier to protect an initializer function from being invoked twice.\\n     */\\n    modifier initializer() {\\n        require(_initializing || !_initialized, \\\"Initializable: contract is already initialized\\\");\\n\\n        bool isTopLevelCall = !_initializing;\\n        if (isTopLevelCall) {\\n            _initializing = true;\\n            _initialized = true;\\n        }\\n\\n        _;\\n\\n        if (isTopLevelCall) {\\n            _initializing = false;\\n        }\\n    }\\n}\\n\",\"keccak256\":\"0x67d2f282a9678e58e878a0b774041ba7a01e2740a262aea97a3f681339914713\",\"license\":\"MIT\"},\"@openzeppelin/contracts-upgradeable/token/ERC20/ERC20Upgradeable.sol\":{\"content\":\"// SPDX-License-Identifier: MIT\\n\\npragma solidity ^0.8.0;\\n\\nimport \\\"./IERC20Upgradeable.sol\\\";\\nimport \\\"./extensions/IERC20MetadataUpgradeable.sol\\\";\\nimport \\\"../../utils/ContextUpgradeable.sol\\\";\\nimport \\\"../../proxy/utils/Initializable.sol\\\";\\n\\n/**\\n * @dev Implementation of the {IERC20} interface.\\n *\\n * This implementation is agnostic to the way tokens are created. This means\\n * that a supply mechanism has to be added in a derived contract using {_mint}.\\n * For a generic mechanism see {ERC20PresetMinterPauser}.\\n *\\n * TIP: For a detailed writeup see our guide\\n * https://forum.zeppelin.solutions/t/how-to-implement-erc20-supply-mechanisms/226[How\\n * to implement supply mechanisms].\\n *\\n * We have followed general OpenZeppelin guidelines: functions revert instead\\n * of returning `false` on failure. This behavior is nonetheless conventional\\n * and does not conflict with the expectations of ERC20 applications.\\n *\\n * Additionally, an {Approval} event is emitted on calls to {transferFrom}.\\n * This allows applications to reconstruct the allowance for all accounts just\\n * by listening to said events. Other implementations of the EIP may not emit\\n * these events, as it isn't required by the specification.\\n *\\n * Finally, the non-standard {decreaseAllowance} and {increaseAllowance}\\n * functions have been added to mitigate the well-known issues around setting\\n * allowances. See {IERC20-approve}.\\n */\\ncontract ERC20Upgradeable is Initializable, ContextUpgradeable, IERC20Upgradeable, IERC20MetadataUpgradeable {\\n    mapping (address => uint256) private _balances;\\n\\n    mapping (address => mapping (address => uint256)) private _allowances;\\n\\n    uint256 private _totalSupply;\\n\\n    string private _name;\\n    string private _symbol;\\n\\n    /**\\n     * @dev Sets the values for {name} and {symbol}.\\n     *\\n     * The defaut value of {decimals} is 18. To select a different value for\\n     * {decimals} you should overload it.\\n     *\\n     * All two of these values are immutable: they can only be set once during\\n     * construction.\\n     */\\n    function __ERC20_init(string memory name_, string memory symbol_) internal initializer {\\n        __Context_init_unchained();\\n        __ERC20_init_unchained(name_, symbol_);\\n    }\\n\\n    function __ERC20_init_unchained(string memory name_, string memory symbol_) internal initializer {\\n        _name = name_;\\n        _symbol = symbol_;\\n    }\\n\\n    /**\\n     * @dev Returns the name of the token.\\n     */\\n    function name() public view virtual override returns (string memory) {\\n        return _name;\\n    }\\n\\n    /**\\n     * @dev Returns the symbol of the token, usually a shorter version of the\\n     * name.\\n     */\\n    function symbol() public view virtual override returns (string memory) {\\n        return _symbol;\\n    }\\n\\n    /**\\n     * @dev Returns the number of decimals used to get its user representation.\\n     * For example, if `decimals` equals `2`, a balance of `505` tokens should\\n     * be displayed to a user as `5,05` (`505 / 10 ** 2`).\\n     *\\n     * Tokens usually opt for a value of 18, imitating the relationship between\\n     * Ether and Wei. This is the value {ERC20} uses, unless this function is\\n     * overridden;\\n     *\\n     * NOTE: This information is only used for _display_ purposes: it in\\n     * no way affects any of the arithmetic of the contract, including\\n     * {IERC20-balanceOf} and {IERC20-transfer}.\\n     */\\n    function decimals() public view virtual override returns (uint8) {\\n        return 18;\\n    }\\n\\n    /**\\n     * @dev See {IERC20-totalSupply}.\\n     */\\n    function totalSupply() public view virtual override returns (uint256) {\\n        return _totalSupply;\\n    }\\n\\n    /**\\n     * @dev See {IERC20-balanceOf}.\\n     */\\n    function balanceOf(address account) public view virtual override returns (uint256) {\\n        return _balances[account];\\n    }\\n\\n    /**\\n     * @dev See {IERC20-transfer}.\\n     *\\n     * Requirements:\\n     *\\n     * - `recipient` cannot be the zero address.\\n     * - the caller must have a balance of at least `amount`.\\n     */\\n    function transfer(address recipient, uint256 amount) public virtual override returns (bool) {\\n        _transfer(_msgSender(), recipient, amount);\\n        return true;\\n    }\\n\\n    /**\\n     * @dev See {IERC20-allowance}.\\n     */\\n    function allowance(address owner, address spender) public view virtual override returns (uint256) {\\n        return _allowances[owner][spender];\\n    }\\n\\n    /**\\n     * @dev See {IERC20-approve}.\\n     *\\n     * Requirements:\\n     *\\n     * - `spender` cannot be the zero address.\\n     */\\n    function approve(address spender, uint256 amount) public virtual override returns (bool) {\\n        _approve(_msgSender(), spender, amount);\\n        return true;\\n    }\\n\\n    /**\\n     * @dev See {IERC20-transferFrom}.\\n     *\\n     * Emits an {Approval} event indicating the updated allowance. This is not\\n     * required by the EIP. See the note at the beginning of {ERC20}.\\n     *\\n     * Requirements:\\n     *\\n     * - `sender` and `recipient` cannot be the zero address.\\n     * - `sender` must have a balance of at least `amount`.\\n     * - the caller must have allowance for ``sender``'s tokens of at least\\n     * `amount`.\\n     */\\n    function transferFrom(address sender, address recipient, uint256 amount) public virtual override returns (bool) {\\n        _transfer(sender, recipient, amount);\\n\\n        uint256 currentAllowance = _allowances[sender][_msgSender()];\\n        require(currentAllowance >= amount, \\\"ERC20: transfer amount exceeds allowance\\\");\\n        _approve(sender, _msgSender(), currentAllowance - amount);\\n\\n        return true;\\n    }\\n\\n    /**\\n     * @dev Atomically increases the allowance granted to `spender` by the caller.\\n     *\\n     * This is an alternative to {approve} that can be used as a mitigation for\\n     * problems described in {IERC20-approve}.\\n     *\\n     * Emits an {Approval} event indicating the updated allowance.\\n     *\\n     * Requirements:\\n     *\\n     * - `spender` cannot be the zero address.\\n     */\\n    function increaseAllowance(address spender, uint256 addedValue) public virtual returns (bool) {\\n        _approve(_msgSender(), spender, _allowances[_msgSender()][spender] + addedValue);\\n        return true;\\n    }\\n\\n    /**\\n     * @dev Atomically decreases the allowance granted to `spender` by the caller.\\n     *\\n     * This is an alternative to {approve} that can be used as a mitigation for\\n     * problems described in {IERC20-approve}.\\n     *\\n     * Emits an {Approval} event indicating the updated allowance.\\n     *\\n     * Requirements:\\n     *\\n     * - `spender` cannot be the zero address.\\n     * - `spender` must have allowance for the caller of at least\\n     * `subtractedValue`.\\n     */\\n    function decreaseAllowance(address spender, uint256 subtractedValue) public virtual returns (bool) {\\n        uint256 currentAllowance = _allowances[_msgSender()][spender];\\n        require(currentAllowance >= subtractedValue, \\\"ERC20: decreased allowance below zero\\\");\\n        _approve(_msgSender(), spender, currentAllowance - subtractedValue);\\n\\n        return true;\\n    }\\n\\n    /**\\n     * @dev Moves tokens `amount` from `sender` to `recipient`.\\n     *\\n     * This is internal function is equivalent to {transfer}, and can be used to\\n     * e.g. implement automatic token fees, slashing mechanisms, etc.\\n     *\\n     * Emits a {Transfer} event.\\n     *\\n     * Requirements:\\n     *\\n     * - `sender` cannot be the zero address.\\n     * - `recipient` cannot be the zero address.\\n     * - `sender` must have a balance of at least `amount`.\\n     */\\n    function _transfer(address sender, address recipient, uint256 amount) internal virtual {\\n        require(sender != address(0), \\\"ERC20: transfer from the zero address\\\");\\n        require(recipient != address(0), \\\"ERC20: transfer to the zero address\\\");\\n\\n        _beforeTokenTransfer(sender, recipient, amount);\\n\\n        uint256 senderBalance = _balances[sender];\\n        require(senderBalance >= amount, \\\"ERC20: transfer amount exceeds balance\\\");\\n        _balances[sender] = senderBalance - amount;\\n        _balances[recipient] += amount;\\n\\n        emit Transfer(sender, recipient, amount);\\n    }\\n\\n    /** @dev Creates `amount` tokens and assigns them to `account`, increasing\\n     * the total supply.\\n     *\\n     * Emits a {Transfer} event with `from` set to the zero address.\\n     *\\n     * Requirements:\\n     *\\n     * - `to` cannot be the zero address.\\n     */\\n    function _mint(address account, uint256 amount) internal virtual {\\n        require(account != address(0), \\\"ERC20: mint to the zero address\\\");\\n\\n        _beforeTokenTransfer(address(0), account, amount);\\n\\n        _totalSupply += amount;\\n        _balances[account] += amount;\\n        emit Transfer(address(0), account, amount);\\n    }\\n\\n    /**\\n     * @dev Destroys `amount` tokens from `account`, reducing the\\n     * total supply.\\n     *\\n     * Emits a {Transfer} event with `to` set to the zero address.\\n     *\\n     * Requirements:\\n     *\\n     * - `account` cannot be the zero address.\\n     * - `account` must have at least `amount` tokens.\\n     */\\n    function _burn(address account, uint256 amount) internal virtual {\\n        require(account != address(0), \\\"ERC20: burn from the zero address\\\");\\n\\n        _beforeTokenTransfer(account, address(0), amount);\\n\\n        uint256 accountBalance = _balances[account];\\n        require(accountBalance >= amount, \\\"ERC20: burn amount exceeds balance\\\");\\n        _balances[account] = accountBalance - amount;\\n        _totalSupply -= amount;\\n\\n        emit Transfer(account, address(0), amount);\\n    }\\n\\n    /**\\n     * @dev Sets `amount` as the allowance of `spender` over the `owner` s tokens.\\n     *\\n     * This internal function is equivalent to `approve`, and can be used to\\n     * e.g. set automatic allowances for certain subsystems, etc.\\n     *\\n     * Emits an {Approval} event.\\n     *\\n     * Requirements:\\n     *\\n     * - `owner` cannot be the zero address.\\n     * - `spender` cannot be the zero address.\\n     */\\n    function _approve(address owner, address spender, uint256 amount) internal virtual {\\n        require(owner != address(0), \\\"ERC20: approve from the zero address\\\");\\n        require(spender != address(0), \\\"ERC20: approve to the zero address\\\");\\n\\n        _allowances[owner][spender] = amount;\\n        emit Approval(owner, spender, amount);\\n    }\\n\\n    /**\\n     * @dev Hook that is called before any transfer of tokens. This includes\\n     * minting and burning.\\n     *\\n     * Calling conditions:\\n     *\\n     * - when `from` and `to` are both non-zero, `amount` of ``from``'s tokens\\n     * will be to transferred to `to`.\\n     * - when `from` is zero, `amount` tokens will be minted for `to`.\\n     * - when `to` is zero, `amount` of ``from``'s tokens will be burned.\\n     * - `from` and `to` are never both zero.\\n     *\\n     * To learn more about hooks, head to xref:ROOT:extending-contracts.adoc#using-hooks[Using Hooks].\\n     */\\n    function _beforeTokenTransfer(address from, address to, uint256 amount) internal virtual { }\\n    uint256[45] private __gap;\\n}\\n\",\"keccak256\":\"0x9c2d7425f3343ea340d6ea67e9d90109d4d846bb013c2572096ec88c9e74946b\",\"license\":\"MIT\"},\"@openzeppelin/contracts-upgradeable/token/ERC20/IERC20Upgradeable.sol\":{\"content\":\"// SPDX-License-Identifier: MIT\\n\\npragma solidity ^0.8.0;\\n\\n/**\\n * @dev Interface of the ERC20 standard as defined in the EIP.\\n */\\ninterface IERC20Upgradeable {\\n    /**\\n     * @dev Returns the amount of tokens in existence.\\n     */\\n    function totalSupply() external view returns (uint256);\\n\\n    /**\\n     * @dev Returns the amount of tokens owned by `account`.\\n     */\\n    function balanceOf(address account) external view returns (uint256);\\n\\n    /**\\n     * @dev Moves `amount` tokens from the caller's account to `recipient`.\\n     *\\n     * Returns a boolean value indicating whether the operation succeeded.\\n     *\\n     * Emits a {Transfer} event.\\n     */\\n    function transfer(address recipient, uint256 amount) external returns (bool);\\n\\n    /**\\n     * @dev Returns the remaining number of tokens that `spender` will be\\n     * allowed to spend on behalf of `owner` through {transferFrom}. This is\\n     * zero by default.\\n     *\\n     * This value changes when {approve} or {transferFrom} are called.\\n     */\\n    function allowance(address owner, address spender) external view returns (uint256);\\n\\n    /**\\n     * @dev Sets `amount` as the allowance of `spender` over the caller's tokens.\\n     *\\n     * Returns a boolean value indicating whether the operation succeeded.\\n     *\\n     * IMPORTANT: Beware that changing an allowance with this method brings the risk\\n     * that someone may use both the old and the new allowance by unfortunate\\n     * transaction ordering. One possible solution to mitigate this race\\n     * condition is to first reduce the spender's allowance to 0 and set the\\n     * desired value afterwards:\\n     * https://github.com/ethereum/EIPs/issues/20#issuecomment-263524729\\n     *\\n     * Emits an {Approval} event.\\n     */\\n    function approve(address spender, uint256 amount) external returns (bool);\\n\\n    /**\\n     * @dev Moves `amount` tokens from `sender` to `recipient` using the\\n     * allowance mechanism. `amount` is then deducted from the caller's\\n     * allowance.\\n     *\\n     * Returns a boolean value indicating whether the operation succeeded.\\n     *\\n     * Emits a {Transfer} event.\\n     */\\n    function transferFrom(address sender, address recipient, uint256 amount) external returns (bool);\\n\\n    /**\\n     * @dev Emitted when `value` tokens are moved from one account (`from`) to\\n     * another (`to`).\\n     *\\n     * Note that `value` may be zero.\\n     */\\n    event Transfer(address indexed from, address indexed to, uint256 value);\\n\\n    /**\\n     * @dev Emitted when the allowance of a `spender` for an `owner` is set by\\n     * a call to {approve}. `value` is the new allowance.\\n     */\\n    event Approval(address indexed owner, address indexed spender, uint256 value);\\n}\\n\",\"keccak256\":\"0x8d4a0f2b5b760b5e2c19ed3c108d83897a4dfd5bfed97a93867918df19191e5e\",\"license\":\"MIT\"},\"@openzeppelin/contracts-upgradeable/token/ERC20/extensions/IERC20MetadataUpgradeable.sol\":{\"content\":\"// SPDX-License-Identifier: MIT\\n\\npragma solidity ^0.8.0;\\n\\nimport \\\"../IERC20Upgradeable.sol\\\";\\n\\n/**\\n * @dev Interface for the optional metadata functions from the ERC20 standard.\\n *\\n * _Available since v4.1._\\n */\\ninterface IERC20MetadataUpgradeable is IERC20Upgradeable {\\n    /**\\n     * @dev Returns the name of the token.\\n     */\\n    function name() external view returns (string memory);\\n\\n    /**\\n     * @dev Returns the symbol of the token.\\n     */\\n    function symbol() external view returns (string memory);\\n\\n    /**\\n     * @dev Returns the decimals places of the token.\\n     */\\n    function decimals() external view returns (uint8);\\n}\\n\",\"keccak256\":\"0x6795c369a4eefa78468e38966f7851fbc2dda5e5b9ccd3fa2b45970e2e4d3abd\",\"license\":\"MIT\"},\"@openzeppelin/contracts-upgradeable/token/ERC721/ERC721Upgradeable.sol\":{\"content\":\"// SPDX-License-Identifier: MIT\\n\\npragma solidity ^0.8.0;\\n\\nimport \\\"./IERC721Upgradeable.sol\\\";\\nimport \\\"./IERC721ReceiverUpgradeable.sol\\\";\\nimport \\\"./extensions/IERC721MetadataUpgradeable.sol\\\";\\nimport \\\"../../utils/AddressUpgradeable.sol\\\";\\nimport \\\"../../utils/ContextUpgradeable.sol\\\";\\nimport \\\"../../utils/StringsUpgradeable.sol\\\";\\nimport \\\"../../utils/introspection/ERC165Upgradeable.sol\\\";\\nimport \\\"../../proxy/utils/Initializable.sol\\\";\\n\\n/**\\n * @dev Implementation of https://eips.ethereum.org/EIPS/eip-721[ERC721] Non-Fungible Token Standard, including\\n * the Metadata extension, but not including the Enumerable extension, which is available separately as\\n * {ERC721Enumerable}.\\n */\\ncontract ERC721Upgradeable is Initializable, ContextUpgradeable, ERC165Upgradeable, IERC721Upgradeable, IERC721MetadataUpgradeable {\\n    using AddressUpgradeable for address;\\n    using StringsUpgradeable for uint256;\\n\\n    // Token name\\n    string private _name;\\n\\n    // Token symbol\\n    string private _symbol;\\n\\n    // Mapping from token ID to owner address\\n    mapping (uint256 => address) private _owners;\\n\\n    // Mapping owner address to token count\\n    mapping (address => uint256) private _balances;\\n\\n    // Mapping from token ID to approved address\\n    mapping (uint256 => address) private _tokenApprovals;\\n\\n    // Mapping from owner to operator approvals\\n    mapping (address => mapping (address => bool)) private _operatorApprovals;\\n\\n    /**\\n     * @dev Initializes the contract by setting a `name` and a `symbol` to the token collection.\\n     */\\n    function __ERC721_init(string memory name_, string memory symbol_) internal initializer {\\n        __Context_init_unchained();\\n        __ERC165_init_unchained();\\n        __ERC721_init_unchained(name_, symbol_);\\n    }\\n\\n    function __ERC721_init_unchained(string memory name_, string memory symbol_) internal initializer {\\n        _name = name_;\\n        _symbol = symbol_;\\n    }\\n\\n    /**\\n     * @dev See {IERC165-supportsInterface}.\\n     */\\n    function supportsInterface(bytes4 interfaceId) public view virtual override(ERC165Upgradeable, IERC165Upgradeable) returns (bool) {\\n        return interfaceId == type(IERC721Upgradeable).interfaceId\\n            || interfaceId == type(IERC721MetadataUpgradeable).interfaceId\\n            || super.supportsInterface(interfaceId);\\n    }\\n\\n    /**\\n     * @dev See {IERC721-balanceOf}.\\n     */\\n    function balanceOf(address owner) public view virtual override returns (uint256) {\\n        require(owner != address(0), \\\"ERC721: balance query for the zero address\\\");\\n        return _balances[owner];\\n    }\\n\\n    /**\\n     * @dev See {IERC721-ownerOf}.\\n     */\\n    function ownerOf(uint256 tokenId) public view virtual override returns (address) {\\n        address owner = _owners[tokenId];\\n        require(owner != address(0), \\\"ERC721: owner query for nonexistent token\\\");\\n        return owner;\\n    }\\n\\n    /**\\n     * @dev See {IERC721Metadata-name}.\\n     */\\n    function name() public view virtual override returns (string memory) {\\n        return _name;\\n    }\\n\\n    /**\\n     * @dev See {IERC721Metadata-symbol}.\\n     */\\n    function symbol() public view virtual override returns (string memory) {\\n        return _symbol;\\n    }\\n\\n    /**\\n     * @dev See {IERC721Metadata-tokenURI}.\\n     */\\n    function tokenURI(uint256 tokenId) public view virtual override returns (string memory) {\\n        require(_exists(tokenId), \\\"ERC721Metadata: URI query for nonexistent token\\\");\\n\\n        string memory baseURI = _baseURI();\\n        return bytes(baseURI).length > 0\\n            ? string(abi.encodePacked(baseURI, tokenId.toString()))\\n            : '';\\n    }\\n\\n    /**\\n     * @dev Base URI for computing {tokenURI}. Empty by default, can be overriden\\n     * in child contracts.\\n     */\\n    function _baseURI() internal view virtual returns (string memory) {\\n        return \\\"\\\";\\n    }\\n\\n    /**\\n     * @dev See {IERC721-approve}.\\n     */\\n    function approve(address to, uint256 tokenId) public virtual override {\\n        address owner = ERC721Upgradeable.ownerOf(tokenId);\\n        require(to != owner, \\\"ERC721: approval to current owner\\\");\\n\\n        require(_msgSender() == owner || isApprovedForAll(owner, _msgSender()),\\n            \\\"ERC721: approve caller is not owner nor approved for all\\\"\\n        );\\n\\n        _approve(to, tokenId);\\n    }\\n\\n    /**\\n     * @dev See {IERC721-getApproved}.\\n     */\\n    function getApproved(uint256 tokenId) public view virtual override returns (address) {\\n        require(_exists(tokenId), \\\"ERC721: approved query for nonexistent token\\\");\\n\\n        return _tokenApprovals[tokenId];\\n    }\\n\\n    /**\\n     * @dev See {IERC721-setApprovalForAll}.\\n     */\\n    function setApprovalForAll(address operator, bool approved) public virtual override {\\n        require(operator != _msgSender(), \\\"ERC721: approve to caller\\\");\\n\\n        _operatorApprovals[_msgSender()][operator] = approved;\\n        emit ApprovalForAll(_msgSender(), operator, approved);\\n    }\\n\\n    /**\\n     * @dev See {IERC721-isApprovedForAll}.\\n     */\\n    function isApprovedForAll(address owner, address operator) public view virtual override returns (bool) {\\n        return _operatorApprovals[owner][operator];\\n    }\\n\\n    /**\\n     * @dev See {IERC721-transferFrom}.\\n     */\\n    function transferFrom(address from, address to, uint256 tokenId) public virtual override {\\n        //solhint-disable-next-line max-line-length\\n        require(_isApprovedOrOwner(_msgSender(), tokenId), \\\"ERC721: transfer caller is not owner nor approved\\\");\\n\\n        _transfer(from, to, tokenId);\\n    }\\n\\n    /**\\n     * @dev See {IERC721-safeTransferFrom}.\\n     */\\n    function safeTransferFrom(address from, address to, uint256 tokenId) public virtual override {\\n        safeTransferFrom(from, to, tokenId, \\\"\\\");\\n    }\\n\\n    /**\\n     * @dev See {IERC721-safeTransferFrom}.\\n     */\\n    function safeTransferFrom(address from, address to, uint256 tokenId, bytes memory _data) public virtual override {\\n        require(_isApprovedOrOwner(_msgSender(), tokenId), \\\"ERC721: transfer caller is not owner nor approved\\\");\\n        _safeTransfer(from, to, tokenId, _data);\\n    }\\n\\n    /**\\n     * @dev Safely transfers `tokenId` token from `from` to `to`, checking first that contract recipients\\n     * are aware of the ERC721 protocol to prevent tokens from being forever locked.\\n     *\\n     * `_data` is additional data, it has no specified format and it is sent in call to `to`.\\n     *\\n     * This internal function is equivalent to {safeTransferFrom}, and can be used to e.g.\\n     * implement alternative mechanisms to perform token transfer, such as signature-based.\\n     *\\n     * Requirements:\\n     *\\n     * - `from` cannot be the zero address.\\n     * - `to` cannot be the zero address.\\n     * - `tokenId` token must exist and be owned by `from`.\\n     * - If `to` refers to a smart contract, it must implement {IERC721Receiver-onERC721Received}, which is called upon a safe transfer.\\n     *\\n     * Emits a {Transfer} event.\\n     */\\n    function _safeTransfer(address from, address to, uint256 tokenId, bytes memory _data) internal virtual {\\n        _transfer(from, to, tokenId);\\n        require(_checkOnERC721Received(from, to, tokenId, _data), \\\"ERC721: transfer to non ERC721Receiver implementer\\\");\\n    }\\n\\n    /**\\n     * @dev Returns whether `tokenId` exists.\\n     *\\n     * Tokens can be managed by their owner or approved accounts via {approve} or {setApprovalForAll}.\\n     *\\n     * Tokens start existing when they are minted (`_mint`),\\n     * and stop existing when they are burned (`_burn`).\\n     */\\n    function _exists(uint256 tokenId) internal view virtual returns (bool) {\\n        return _owners[tokenId] != address(0);\\n    }\\n\\n    /**\\n     * @dev Returns whether `spender` is allowed to manage `tokenId`.\\n     *\\n     * Requirements:\\n     *\\n     * - `tokenId` must exist.\\n     */\\n    function _isApprovedOrOwner(address spender, uint256 tokenId) internal view virtual returns (bool) {\\n        require(_exists(tokenId), \\\"ERC721: operator query for nonexistent token\\\");\\n        address owner = ERC721Upgradeable.ownerOf(tokenId);\\n        return (spender == owner || getApproved(tokenId) == spender || isApprovedForAll(owner, spender));\\n    }\\n\\n    /**\\n     * @dev Safely mints `tokenId` and transfers it to `to`.\\n     *\\n     * Requirements:\\n     *\\n     * - `tokenId` must not exist.\\n     * - If `to` refers to a smart contract, it must implement {IERC721Receiver-onERC721Received}, which is called upon a safe transfer.\\n     *\\n     * Emits a {Transfer} event.\\n     */\\n    function _safeMint(address to, uint256 tokenId) internal virtual {\\n        _safeMint(to, tokenId, \\\"\\\");\\n    }\\n\\n    /**\\n     * @dev Same as {xref-ERC721-_safeMint-address-uint256-}[`_safeMint`], with an additional `data` parameter which is\\n     * forwarded in {IERC721Receiver-onERC721Received} to contract recipients.\\n     */\\n    function _safeMint(address to, uint256 tokenId, bytes memory _data) internal virtual {\\n        _mint(to, tokenId);\\n        require(_checkOnERC721Received(address(0), to, tokenId, _data), \\\"ERC721: transfer to non ERC721Receiver implementer\\\");\\n    }\\n\\n    /**\\n     * @dev Mints `tokenId` and transfers it to `to`.\\n     *\\n     * WARNING: Usage of this method is discouraged, use {_safeMint} whenever possible\\n     *\\n     * Requirements:\\n     *\\n     * - `tokenId` must not exist.\\n     * - `to` cannot be the zero address.\\n     *\\n     * Emits a {Transfer} event.\\n     */\\n    function _mint(address to, uint256 tokenId) internal virtual {\\n        require(to != address(0), \\\"ERC721: mint to the zero address\\\");\\n        require(!_exists(tokenId), \\\"ERC721: token already minted\\\");\\n\\n        _beforeTokenTransfer(address(0), to, tokenId);\\n\\n        _balances[to] += 1;\\n        _owners[tokenId] = to;\\n\\n        emit Transfer(address(0), to, tokenId);\\n    }\\n\\n    /**\\n     * @dev Destroys `tokenId`.\\n     * The approval is cleared when the token is burned.\\n     *\\n     * Requirements:\\n     *\\n     * - `tokenId` must exist.\\n     *\\n     * Emits a {Transfer} event.\\n     */\\n    function _burn(uint256 tokenId) internal virtual {\\n        address owner = ERC721Upgradeable.ownerOf(tokenId);\\n\\n        _beforeTokenTransfer(owner, address(0), tokenId);\\n\\n        // Clear approvals\\n        _approve(address(0), tokenId);\\n\\n        _balances[owner] -= 1;\\n        delete _owners[tokenId];\\n\\n        emit Transfer(owner, address(0), tokenId);\\n    }\\n\\n    /**\\n     * @dev Transfers `tokenId` from `from` to `to`.\\n     *  As opposed to {transferFrom}, this imposes no restrictions on msg.sender.\\n     *\\n     * Requirements:\\n     *\\n     * - `to` cannot be the zero address.\\n     * - `tokenId` token must be owned by `from`.\\n     *\\n     * Emits a {Transfer} event.\\n     */\\n    function _transfer(address from, address to, uint256 tokenId) internal virtual {\\n        require(ERC721Upgradeable.ownerOf(tokenId) == from, \\\"ERC721: transfer of token that is not own\\\");\\n        require(to != address(0), \\\"ERC721: transfer to the zero address\\\");\\n\\n        _beforeTokenTransfer(from, to, tokenId);\\n\\n        // Clear approvals from the previous owner\\n        _approve(address(0), tokenId);\\n\\n        _balances[from] -= 1;\\n        _balances[to] += 1;\\n        _owners[tokenId] = to;\\n\\n        emit Transfer(from, to, tokenId);\\n    }\\n\\n    /**\\n     * @dev Approve `to` to operate on `tokenId`\\n     *\\n     * Emits a {Approval} event.\\n     */\\n    function _approve(address to, uint256 tokenId) internal virtual {\\n        _tokenApprovals[tokenId] = to;\\n        emit Approval(ERC721Upgradeable.ownerOf(tokenId), to, tokenId);\\n    }\\n\\n    /**\\n     * @dev Internal function to invoke {IERC721Receiver-onERC721Received} on a target address.\\n     * The call is not executed if the target address is not a contract.\\n     *\\n     * @param from address representing the previous owner of the given token ID\\n     * @param to target address that will receive the tokens\\n     * @param tokenId uint256 ID of the token to be transferred\\n     * @param _data bytes optional data to send along with the call\\n     * @return bool whether the call correctly returned the expected magic value\\n     */\\n    function _checkOnERC721Received(address from, address to, uint256 tokenId, bytes memory _data)\\n        private returns (bool)\\n    {\\n        if (to.isContract()) {\\n            try IERC721ReceiverUpgradeable(to).onERC721Received(_msgSender(), from, tokenId, _data) returns (bytes4 retval) {\\n                return retval == IERC721ReceiverUpgradeable(to).onERC721Received.selector;\\n            } catch (bytes memory reason) {\\n                if (reason.length == 0) {\\n                    revert(\\\"ERC721: transfer to non ERC721Receiver implementer\\\");\\n                } else {\\n                    // solhint-disable-next-line no-inline-assembly\\n                    assembly {\\n                        revert(add(32, reason), mload(reason))\\n                    }\\n                }\\n            }\\n        } else {\\n            return true;\\n        }\\n    }\\n\\n    /**\\n     * @dev Hook that is called before any token transfer. This includes minting\\n     * and burning.\\n     *\\n     * Calling conditions:\\n     *\\n     * - When `from` and `to` are both non-zero, ``from``'s `tokenId` will be\\n     * transferred to `to`.\\n     * - When `from` is zero, `tokenId` will be minted for `to`.\\n     * - When `to` is zero, ``from``'s `tokenId` will be burned.\\n     * - `from` cannot be the zero address.\\n     * - `to` cannot be the zero address.\\n     *\\n     * To learn more about hooks, head to xref:ROOT:extending-contracts.adoc#using-hooks[Using Hooks].\\n     */\\n    function _beforeTokenTransfer(address from, address to, uint256 tokenId) internal virtual { }\\n    uint256[44] private __gap;\\n}\\n\",\"keccak256\":\"0x2ab92ebd3f4d4d85f30b39bd678ec3489e00aadd0a432c7a0ffa98adc2799004\",\"license\":\"MIT\"},\"@openzeppelin/contracts-upgradeable/token/ERC721/IERC721ReceiverUpgradeable.sol\":{\"content\":\"// SPDX-License-Identifier: MIT\\n\\npragma solidity ^0.8.0;\\n\\n/**\\n * @title ERC721 token receiver interface\\n * @dev Interface for any contract that wants to support safeTransfers\\n * from ERC721 asset contracts.\\n */\\ninterface IERC721ReceiverUpgradeable {\\n    /**\\n     * @dev Whenever an {IERC721} `tokenId` token is transferred to this contract via {IERC721-safeTransferFrom}\\n     * by `operator` from `from`, this function is called.\\n     *\\n     * It must return its Solidity selector to confirm the token transfer.\\n     * If any other value is returned or the interface is not implemented by the recipient, the transfer will be reverted.\\n     *\\n     * The selector can be obtained in Solidity with `IERC721.onERC721Received.selector`.\\n     */\\n    function onERC721Received(address operator, address from, uint256 tokenId, bytes calldata data) external returns (bytes4);\\n}\\n\",\"keccak256\":\"0x33620beff0655c5e728a72fff76fb6ce2dc32fc6b61eb8e435b12ed1adf31525\",\"license\":\"MIT\"},\"@openzeppelin/contracts-upgradeable/token/ERC721/IERC721Upgradeable.sol\":{\"content\":\"// SPDX-License-Identifier: MIT\\n\\npragma solidity ^0.8.0;\\n\\nimport \\\"../../utils/introspection/IERC165Upgradeable.sol\\\";\\n\\n/**\\n * @dev Required interface of an ERC721 compliant contract.\\n */\\ninterface IERC721Upgradeable is IERC165Upgradeable {\\n    /**\\n     * @dev Emitted when `tokenId` token is transferred from `from` to `to`.\\n     */\\n    event Transfer(address indexed from, address indexed to, uint256 indexed tokenId);\\n\\n    /**\\n     * @dev Emitted when `owner` enables `approved` to manage the `tokenId` token.\\n     */\\n    event Approval(address indexed owner, address indexed approved, uint256 indexed tokenId);\\n\\n    /**\\n     * @dev Emitted when `owner` enables or disables (`approved`) `operator` to manage all of its assets.\\n     */\\n    event ApprovalForAll(address indexed owner, address indexed operator, bool approved);\\n\\n    /**\\n     * @dev Returns the number of tokens in ``owner``'s account.\\n     */\\n    function balanceOf(address owner) external view returns (uint256 balance);\\n\\n    /**\\n     * @dev Returns the owner of the `tokenId` token.\\n     *\\n     * Requirements:\\n     *\\n     * - `tokenId` must exist.\\n     */\\n    function ownerOf(uint256 tokenId) external view returns (address owner);\\n\\n    /**\\n     * @dev Safely transfers `tokenId` token from `from` to `to`, checking first that contract recipients\\n     * are aware of the ERC721 protocol to prevent tokens from being forever locked.\\n     *\\n     * Requirements:\\n     *\\n     * - `from` cannot be the zero address.\\n     * - `to` cannot be the zero address.\\n     * - `tokenId` token must exist and be owned by `from`.\\n     * - If the caller is not `from`, it must be have been allowed to move this token by either {approve} or {setApprovalForAll}.\\n     * - If `to` refers to a smart contract, it must implement {IERC721Receiver-onERC721Received}, which is called upon a safe transfer.\\n     *\\n     * Emits a {Transfer} event.\\n     */\\n    function safeTransferFrom(address from, address to, uint256 tokenId) external;\\n\\n    /**\\n     * @dev Transfers `tokenId` token from `from` to `to`.\\n     *\\n     * WARNING: Usage of this method is discouraged, use {safeTransferFrom} whenever possible.\\n     *\\n     * Requirements:\\n     *\\n     * - `from` cannot be the zero address.\\n     * - `to` cannot be the zero address.\\n     * - `tokenId` token must be owned by `from`.\\n     * - If the caller is not `from`, it must be approved to move this token by either {approve} or {setApprovalForAll}.\\n     *\\n     * Emits a {Transfer} event.\\n     */\\n    function transferFrom(address from, address to, uint256 tokenId) external;\\n\\n    /**\\n     * @dev Gives permission to `to` to transfer `tokenId` token to another account.\\n     * The approval is cleared when the token is transferred.\\n     *\\n     * Only a single account can be approved at a time, so approving the zero address clears previous approvals.\\n     *\\n     * Requirements:\\n     *\\n     * - The caller must own the token or be an approved operator.\\n     * - `tokenId` must exist.\\n     *\\n     * Emits an {Approval} event.\\n     */\\n    function approve(address to, uint256 tokenId) external;\\n\\n    /**\\n     * @dev Returns the account approved for `tokenId` token.\\n     *\\n     * Requirements:\\n     *\\n     * - `tokenId` must exist.\\n     */\\n    function getApproved(uint256 tokenId) external view returns (address operator);\\n\\n    /**\\n     * @dev Approve or remove `operator` as an operator for the caller.\\n     * Operators can call {transferFrom} or {safeTransferFrom} for any token owned by the caller.\\n     *\\n     * Requirements:\\n     *\\n     * - The `operator` cannot be the caller.\\n     *\\n     * Emits an {ApprovalForAll} event.\\n     */\\n    function setApprovalForAll(address operator, bool _approved) external;\\n\\n    /**\\n     * @dev Returns if the `operator` is allowed to manage all of the assets of `owner`.\\n     *\\n     * See {setApprovalForAll}\\n     */\\n    function isApprovedForAll(address owner, address operator) external view returns (bool);\\n\\n    /**\\n      * @dev Safely transfers `tokenId` token from `from` to `to`.\\n      *\\n      * Requirements:\\n      *\\n      * - `from` cannot be the zero address.\\n      * - `to` cannot be the zero address.\\n      * - `tokenId` token must exist and be owned by `from`.\\n      * - If the caller is not `from`, it must be approved to move this token by either {approve} or {setApprovalForAll}.\\n      * - If `to` refers to a smart contract, it must implement {IERC721Receiver-onERC721Received}, which is called upon a safe transfer.\\n      *\\n      * Emits a {Transfer} event.\\n      */\\n    function safeTransferFrom(address from, address to, uint256 tokenId, bytes calldata data) external;\\n}\\n\",\"keccak256\":\"0x9ef7f2874f4a491f253a81eb4c5b9a7b6467a287aa0c32ac3dd684260a3cd7ad\",\"license\":\"MIT\"},\"@openzeppelin/contracts-upgradeable/token/ERC721/extensions/IERC721MetadataUpgradeable.sol\":{\"content\":\"// SPDX-License-Identifier: MIT\\n\\npragma solidity ^0.8.0;\\n\\nimport \\\"../IERC721Upgradeable.sol\\\";\\n\\n/**\\n * @title ERC-721 Non-Fungible Token Standard, optional metadata extension\\n * @dev See https://eips.ethereum.org/EIPS/eip-721\\n */\\ninterface IERC721MetadataUpgradeable is IERC721Upgradeable {\\n\\n    /**\\n     * @dev Returns the token collection name.\\n     */\\n    function name() external view returns (string memory);\\n\\n    /**\\n     * @dev Returns the token collection symbol.\\n     */\\n    function symbol() external view returns (string memory);\\n\\n    /**\\n     * @dev Returns the Uniform Resource Identifier (URI) for `tokenId` token.\\n     */\\n    function tokenURI(uint256 tokenId) external view returns (string memory);\\n}\\n\",\"keccak256\":\"0x64581a092c059ab0cb74f473545e379b8a88f36a6a57f805515ef8c6ae061847\",\"license\":\"MIT\"},\"@openzeppelin/contracts-upgradeable/utils/AddressUpgradeable.sol\":{\"content\":\"// SPDX-License-Identifier: MIT\\n\\npragma solidity ^0.8.0;\\n\\n/**\\n * @dev Collection of functions related to the address type\\n */\\nlibrary AddressUpgradeable {\\n    /**\\n     * @dev Returns true if `account` is a contract.\\n     *\\n     * [IMPORTANT]\\n     * ====\\n     * It is unsafe to assume that an address for which this function returns\\n     * false is an externally-owned account (EOA) and not a contract.\\n     *\\n     * Among others, `isContract` will return false for the following\\n     * types of addresses:\\n     *\\n     *  - an externally-owned account\\n     *  - a contract in construction\\n     *  - an address where a contract will be created\\n     *  - an address where a contract lived, but was destroyed\\n     * ====\\n     */\\n    function isContract(address account) internal view returns (bool) {\\n        // This method relies on extcodesize, which returns 0 for contracts in\\n        // construction, since the code is only stored at the end of the\\n        // constructor execution.\\n\\n        uint256 size;\\n        // solhint-disable-next-line no-inline-assembly\\n        assembly { size := extcodesize(account) }\\n        return size > 0;\\n    }\\n\\n    /**\\n     * @dev Replacement for Solidity's `transfer`: sends `amount` wei to\\n     * `recipient`, forwarding all available gas and reverting on errors.\\n     *\\n     * https://eips.ethereum.org/EIPS/eip-1884[EIP1884] increases the gas cost\\n     * of certain opcodes, possibly making contracts go over the 2300 gas limit\\n     * imposed by `transfer`, making them unable to receive funds via\\n     * `transfer`. {sendValue} removes this limitation.\\n     *\\n     * https://diligence.consensys.net/posts/2019/09/stop-using-soliditys-transfer-now/[Learn more].\\n     *\\n     * IMPORTANT: because control is transferred to `recipient`, care must be\\n     * taken to not create reentrancy vulnerabilities. Consider using\\n     * {ReentrancyGuard} or the\\n     * https://solidity.readthedocs.io/en/v0.5.11/security-considerations.html#use-the-checks-effects-interactions-pattern[checks-effects-interactions pattern].\\n     */\\n    function sendValue(address payable recipient, uint256 amount) internal {\\n        require(address(this).balance >= amount, \\\"Address: insufficient balance\\\");\\n\\n        // solhint-disable-next-line avoid-low-level-calls, avoid-call-value\\n        (bool success, ) = recipient.call{ value: amount }(\\\"\\\");\\n        require(success, \\\"Address: unable to send value, recipient may have reverted\\\");\\n    }\\n\\n    /**\\n     * @dev Performs a Solidity function call using a low level `call`. A\\n     * plain`call` is an unsafe replacement for a function call: use this\\n     * function instead.\\n     *\\n     * If `target` reverts with a revert reason, it is bubbled up by this\\n     * function (like regular Solidity function calls).\\n     *\\n     * Returns the raw returned data. To convert to the expected return value,\\n     * use https://solidity.readthedocs.io/en/latest/units-and-global-variables.html?highlight=abi.decode#abi-encoding-and-decoding-functions[`abi.decode`].\\n     *\\n     * Requirements:\\n     *\\n     * - `target` must be a contract.\\n     * - calling `target` with `data` must not revert.\\n     *\\n     * _Available since v3.1._\\n     */\\n    function functionCall(address target, bytes memory data) internal returns (bytes memory) {\\n      return functionCall(target, data, \\\"Address: low-level call failed\\\");\\n    }\\n\\n    /**\\n     * @dev Same as {xref-Address-functionCall-address-bytes-}[`functionCall`], but with\\n     * `errorMessage` as a fallback revert reason when `target` reverts.\\n     *\\n     * _Available since v3.1._\\n     */\\n    function functionCall(address target, bytes memory data, string memory errorMessage) internal returns (bytes memory) {\\n        return functionCallWithValue(target, data, 0, errorMessage);\\n    }\\n\\n    /**\\n     * @dev Same as {xref-Address-functionCall-address-bytes-}[`functionCall`],\\n     * but also transferring `value` wei to `target`.\\n     *\\n     * Requirements:\\n     *\\n     * - the calling contract must have an ETH balance of at least `value`.\\n     * - the called Solidity function must be `payable`.\\n     *\\n     * _Available since v3.1._\\n     */\\n    function functionCallWithValue(address target, bytes memory data, uint256 value) internal returns (bytes memory) {\\n        return functionCallWithValue(target, data, value, \\\"Address: low-level call with value failed\\\");\\n    }\\n\\n    /**\\n     * @dev Same as {xref-Address-functionCallWithValue-address-bytes-uint256-}[`functionCallWithValue`], but\\n     * with `errorMessage` as a fallback revert reason when `target` reverts.\\n     *\\n     * _Available since v3.1._\\n     */\\n    function functionCallWithValue(address target, bytes memory data, uint256 value, string memory errorMessage) internal returns (bytes memory) {\\n        require(address(this).balance >= value, \\\"Address: insufficient balance for call\\\");\\n        require(isContract(target), \\\"Address: call to non-contract\\\");\\n\\n        // solhint-disable-next-line avoid-low-level-calls\\n        (bool success, bytes memory returndata) = target.call{ value: value }(data);\\n        return _verifyCallResult(success, returndata, errorMessage);\\n    }\\n\\n    /**\\n     * @dev Same as {xref-Address-functionCall-address-bytes-}[`functionCall`],\\n     * but performing a static call.\\n     *\\n     * _Available since v3.3._\\n     */\\n    function functionStaticCall(address target, bytes memory data) internal view returns (bytes memory) {\\n        return functionStaticCall(target, data, \\\"Address: low-level static call failed\\\");\\n    }\\n\\n    /**\\n     * @dev Same as {xref-Address-functionCall-address-bytes-string-}[`functionCall`],\\n     * but performing a static call.\\n     *\\n     * _Available since v3.3._\\n     */\\n    function functionStaticCall(address target, bytes memory data, string memory errorMessage) internal view returns (bytes memory) {\\n        require(isContract(target), \\\"Address: static call to non-contract\\\");\\n\\n        // solhint-disable-next-line avoid-low-level-calls\\n        (bool success, bytes memory returndata) = target.staticcall(data);\\n        return _verifyCallResult(success, returndata, errorMessage);\\n    }\\n\\n    function _verifyCallResult(bool success, bytes memory returndata, string memory errorMessage) private pure returns(bytes memory) {\\n        if (success) {\\n            return returndata;\\n        } else {\\n            // Look for revert reason and bubble it up if present\\n            if (returndata.length > 0) {\\n                // The easiest way to bubble the revert reason is using memory via assembly\\n\\n                // solhint-disable-next-line no-inline-assembly\\n                assembly {\\n                    let returndata_size := mload(returndata)\\n                    revert(add(32, returndata), returndata_size)\\n                }\\n            } else {\\n                revert(errorMessage);\\n            }\\n        }\\n    }\\n}\\n\",\"keccak256\":\"0x5642ae1d6b33c5c0b71a8412c6c64cbcf2468b84a002bee3e33cdb5644d25cdb\",\"license\":\"MIT\"},\"@openzeppelin/contracts-upgradeable/utils/ContextUpgradeable.sol\":{\"content\":\"// SPDX-License-Identifier: MIT\\n\\npragma solidity ^0.8.0;\\nimport \\\"../proxy/utils/Initializable.sol\\\";\\n\\n/*\\n * @dev Provides information about the current execution context, including the\\n * sender of the transaction and its data. While these are generally available\\n * via msg.sender and msg.data, they should not be accessed in such a direct\\n * manner, since when dealing with meta-transactions the account sending and\\n * paying for execution may not be the actual sender (as far as an application\\n * is concerned).\\n *\\n * This contract is only required for intermediate, library-like contracts.\\n */\\nabstract contract ContextUpgradeable is Initializable {\\n    function __Context_init() internal initializer {\\n        __Context_init_unchained();\\n    }\\n\\n    function __Context_init_unchained() internal initializer {\\n    }\\n    function _msgSender() internal view virtual returns (address) {\\n        return msg.sender;\\n    }\\n\\n    function _msgData() internal view virtual returns (bytes calldata) {\\n        this; // silence state mutability warning without generating bytecode - see https://github.com/ethereum/solidity/issues/2691\\n        return msg.data;\\n    }\\n    uint256[50] private __gap;\\n}\\n\",\"keccak256\":\"0x8e9eb503de1189f50c5f16fef327da310b11898d6b9ab3ca937df07c35233b9e\",\"license\":\"MIT\"},\"@openzeppelin/contracts-upgradeable/utils/StringsUpgradeable.sol\":{\"content\":\"// SPDX-License-Identifier: MIT\\n\\npragma solidity ^0.8.0;\\n\\n/**\\n * @dev String operations.\\n */\\nlibrary StringsUpgradeable {\\n    bytes16 private constant alphabet = \\\"0123456789abcdef\\\";\\n\\n    /**\\n     * @dev Converts a `uint256` to its ASCII `string` decimal representation.\\n     */\\n    function toString(uint256 value) internal pure returns (string memory) {\\n        // Inspired by OraclizeAPI's implementation - MIT licence\\n        // https://github.com/oraclize/ethereum-api/blob/b42146b063c7d6ee1358846c198246239e9360e8/oraclizeAPI_0.4.25.sol\\n\\n        if (value == 0) {\\n            return \\\"0\\\";\\n        }\\n        uint256 temp = value;\\n        uint256 digits;\\n        while (temp != 0) {\\n            digits++;\\n            temp /= 10;\\n        }\\n        bytes memory buffer = new bytes(digits);\\n        while (value != 0) {\\n            digits -= 1;\\n            buffer[digits] = bytes1(uint8(48 + uint256(value % 10)));\\n            value /= 10;\\n        }\\n        return string(buffer);\\n    }\\n\\n    /**\\n     * @dev Converts a `uint256` to its ASCII `string` hexadecimal representation.\\n     */\\n    function toHexString(uint256 value) internal pure returns (string memory) {\\n        if (value == 0) {\\n            return \\\"0x00\\\";\\n        }\\n        uint256 temp = value;\\n        uint256 length = 0;\\n        while (temp != 0) {\\n            length++;\\n            temp >>= 8;\\n        }\\n        return toHexString(value, length);\\n    }\\n\\n    /**\\n     * @dev Converts a `uint256` to its ASCII `string` hexadecimal representation with fixed length.\\n     */\\n    function toHexString(uint256 value, uint256 length) internal pure returns (string memory) {\\n        bytes memory buffer = new bytes(2 * length + 2);\\n        buffer[0] = \\\"0\\\";\\n        buffer[1] = \\\"x\\\";\\n        for (uint256 i = 2 * length + 1; i > 1; --i) {\\n            buffer[i] = alphabet[value & 0xf];\\n            value >>= 4;\\n        }\\n        require(value == 0, \\\"Strings: hex length insufficient\\\");\\n        return string(buffer);\\n    }\\n\\n}\\n\",\"keccak256\":\"0x6964377da5c19ade6b3e96bae0c0e82494d518af70cf12d2cdb3276f78fb3d85\",\"license\":\"MIT\"},\"@openzeppelin/contracts-upgradeable/utils/introspection/ERC165Upgradeable.sol\":{\"content\":\"// SPDX-License-Identifier: MIT\\n\\npragma solidity ^0.8.0;\\n\\nimport \\\"./IERC165Upgradeable.sol\\\";\\nimport \\\"../../proxy/utils/Initializable.sol\\\";\\n\\n/**\\n * @dev Implementation of the {IERC165} interface.\\n *\\n * Contracts that want to implement ERC165 should inherit from this contract and override {supportsInterface} to check\\n * for the additional interface id that will be supported. For example:\\n *\\n * ```solidity\\n * function supportsInterface(bytes4 interfaceId) public view virtual override returns (bool) {\\n *     return interfaceId == type(MyInterface).interfaceId || super.supportsInterface(interfaceId);\\n * }\\n * ```\\n *\\n * Alternatively, {ERC165Storage} provides an easier to use but more expensive implementation.\\n */\\nabstract contract ERC165Upgradeable is Initializable, IERC165Upgradeable {\\n    function __ERC165_init() internal initializer {\\n        __ERC165_init_unchained();\\n    }\\n\\n    function __ERC165_init_unchained() internal initializer {\\n    }\\n    /**\\n     * @dev See {IERC165-supportsInterface}.\\n     */\\n    function supportsInterface(bytes4 interfaceId) public view virtual override returns (bool) {\\n        return interfaceId == type(IERC165Upgradeable).interfaceId;\\n    }\\n    uint256[50] private __gap;\\n}\\n\",\"keccak256\":\"0x17c9c5d2d6b56527215ee7b3da6dde66b6f23f1b3d5c66cc436e753ef349a97a\",\"license\":\"MIT\"},\"@openzeppelin/contracts-upgradeable/utils/introspection/IERC165Upgradeable.sol\":{\"content\":\"// SPDX-License-Identifier: MIT\\n\\npragma solidity ^0.8.0;\\n\\n/**\\n * @dev Interface of the ERC165 standard, as defined in the\\n * https://eips.ethereum.org/EIPS/eip-165[EIP].\\n *\\n * Implementers can declare support of contract interfaces, which can then be\\n * queried by others ({ERC165Checker}).\\n *\\n * For an implementation, see {ERC165}.\\n */\\ninterface IERC165Upgradeable {\\n    /**\\n     * @dev Returns true if this contract implements the interface defined by\\n     * `interfaceId`. See the corresponding\\n     * https://eips.ethereum.org/EIPS/eip-165#how-interfaces-are-identified[EIP section]\\n     * to learn more about how these ids are created.\\n     *\\n     * This function call must use less than 30 000 gas.\\n     */\\n    function supportsInterface(bytes4 interfaceId) external view returns (bool);\\n}\\n\",\"keccak256\":\"0x1c4860acd323e34a67b3e97faab9aaa55fe8e92b1dcf08b5f47f3468d58ce75c\",\"license\":\"MIT\"},\"@openzeppelin/contracts/access/Ownable.sol\":{\"content\":\"// SPDX-License-Identifier: MIT\\n\\npragma solidity ^0.8.0;\\n\\nimport \\\"../utils/Context.sol\\\";\\n/**\\n * @dev Contract module which provides a basic access control mechanism, where\\n * there is an account (an owner) that can be granted exclusive access to\\n * specific functions.\\n *\\n * By default, the owner account will be the one that deploys the contract. This\\n * can later be changed with {transferOwnership}.\\n *\\n * This module is used through inheritance. It will make available the modifier\\n * `onlyOwner`, which can be applied to your functions to restrict their use to\\n * the owner.\\n */\\nabstract contract Ownable is Context {\\n    address private _owner;\\n\\n    event OwnershipTransferred(address indexed previousOwner, address indexed newOwner);\\n\\n    /**\\n     * @dev Initializes the contract setting the deployer as the initial owner.\\n     */\\n    constructor () {\\n        address msgSender = _msgSender();\\n        _owner = msgSender;\\n        emit OwnershipTransferred(address(0), msgSender);\\n    }\\n\\n    /**\\n     * @dev Returns the address of the current owner.\\n     */\\n    function owner() public view virtual returns (address) {\\n        return _owner;\\n    }\\n\\n    /**\\n     * @dev Throws if called by any account other than the owner.\\n     */\\n    modifier onlyOwner() {\\n        require(owner() == _msgSender(), \\\"Ownable: caller is not the owner\\\");\\n        _;\\n    }\\n\\n    /**\\n     * @dev Leaves the contract without owner. It will not be possible to call\\n     * `onlyOwner` functions anymore. Can only be called by the current owner.\\n     *\\n     * NOTE: Renouncing ownership will leave the contract without an owner,\\n     * thereby removing any functionality that is only available to the owner.\\n     */\\n    function renounceOwnership() public virtual onlyOwner {\\n        emit OwnershipTransferred(_owner, address(0));\\n        _owner = address(0);\\n    }\\n\\n    /**\\n     * @dev Transfers ownership of the contract to a new account (`newOwner`).\\n     * Can only be called by the current owner.\\n     */\\n    function transferOwnership(address newOwner) public virtual onlyOwner {\\n        require(newOwner != address(0), \\\"Ownable: new owner is the zero address\\\");\\n        emit OwnershipTransferred(_owner, newOwner);\\n        _owner = newOwner;\\n    }\\n}\\n\",\"keccak256\":\"0x1cae4f85f114ff17b90414f5da67365b1d00337abb5bce9bf944eb78a2c0673c\",\"license\":\"MIT\"},\"@openzeppelin/contracts/proxy/Clones.sol\":{\"content\":\"// SPDX-License-Identifier: MIT\\n\\npragma solidity ^0.8.0;\\n\\n/**\\n * @dev https://eips.ethereum.org/EIPS/eip-1167[EIP 1167] is a standard for\\n * deploying minimal proxy contracts, also known as \\\"clones\\\".\\n *\\n * > To simply and cheaply clone contract functionality in an immutable way, this standard specifies\\n * > a minimal bytecode implementation that delegates all calls to a known, fixed address.\\n *\\n * The library includes functions to deploy a proxy using either `create` (traditional deployment) or `create2`\\n * (salted deterministic deployment). It also includes functions to predict the addresses of clones deployed using the\\n * deterministic method.\\n *\\n * _Available since v3.4._\\n */\\nlibrary Clones {\\n    /**\\n     * @dev Deploys and returns the address of a clone that mimics the behaviour of `implementation`.\\n     *\\n     * This function uses the create opcode, which should never revert.\\n     */\\n    function clone(address implementation) internal returns (address instance) {\\n        // solhint-disable-next-line no-inline-assembly\\n        assembly {\\n            let ptr := mload(0x40)\\n            mstore(ptr, 0x3d602d80600a3d3981f3363d3d373d3d3d363d73000000000000000000000000)\\n            mstore(add(ptr, 0x14), shl(0x60, implementation))\\n            mstore(add(ptr, 0x28), 0x5af43d82803e903d91602b57fd5bf30000000000000000000000000000000000)\\n            instance := create(0, ptr, 0x37)\\n        }\\n        require(instance != address(0), \\\"ERC1167: create failed\\\");\\n    }\\n\\n    /**\\n     * @dev Deploys and returns the address of a clone that mimics the behaviour of `implementation`.\\n     *\\n     * This function uses the create2 opcode and a `salt` to deterministically deploy\\n     * the clone. Using the same `implementation` and `salt` multiple time will revert, since\\n     * the clones cannot be deployed twice at the same address.\\n     */\\n    function cloneDeterministic(address implementation, bytes32 salt) internal returns (address instance) {\\n        // solhint-disable-next-line no-inline-assembly\\n        assembly {\\n            let ptr := mload(0x40)\\n            mstore(ptr, 0x3d602d80600a3d3981f3363d3d373d3d3d363d73000000000000000000000000)\\n            mstore(add(ptr, 0x14), shl(0x60, implementation))\\n            mstore(add(ptr, 0x28), 0x5af43d82803e903d91602b57fd5bf30000000000000000000000000000000000)\\n            instance := create2(0, ptr, 0x37, salt)\\n        }\\n        require(instance != address(0), \\\"ERC1167: create2 failed\\\");\\n    }\\n\\n    /**\\n     * @dev Computes the address of a clone deployed using {Clones-cloneDeterministic}.\\n     */\\n    function predictDeterministicAddress(address implementation, bytes32 salt, address deployer) internal pure returns (address predicted) {\\n        // solhint-disable-next-line no-inline-assembly\\n        assembly {\\n            let ptr := mload(0x40)\\n            mstore(ptr, 0x3d602d80600a3d3981f3363d3d373d3d3d363d73000000000000000000000000)\\n            mstore(add(ptr, 0x14), shl(0x60, implementation))\\n            mstore(add(ptr, 0x28), 0x5af43d82803e903d91602b57fd5bf3ff00000000000000000000000000000000)\\n            mstore(add(ptr, 0x38), shl(0x60, deployer))\\n            mstore(add(ptr, 0x4c), salt)\\n            mstore(add(ptr, 0x6c), keccak256(ptr, 0x37))\\n            predicted := keccak256(add(ptr, 0x37), 0x55)\\n        }\\n    }\\n\\n    /**\\n     * @dev Computes the address of a clone deployed using {Clones-cloneDeterministic}.\\n     */\\n    function predictDeterministicAddress(address implementation, bytes32 salt) internal view returns (address predicted) {\\n        return predictDeterministicAddress(implementation, salt, address(this));\\n    }\\n}\\n\",\"keccak256\":\"0x90dec20805396efc780a82c62578626103e03278bc1f48b61bb3aba52a61617c\",\"license\":\"MIT\"},\"@openzeppelin/contracts/proxy/Proxy.sol\":{\"content\":\"// SPDX-License-Identifier: MIT\\n\\npragma solidity ^0.8.0;\\n\\n/**\\n * @dev This abstract contract provides a fallback function that delegates all calls to another contract using the EVM\\n * instruction `delegatecall`. We refer to the second contract as the _implementation_ behind the proxy, and it has to\\n * be specified by overriding the virtual {_implementation} function.\\n *\\n * Additionally, delegation to the implementation can be triggered manually through the {_fallback} function, or to a\\n * different contract through the {_delegate} function.\\n *\\n * The success and return data of the delegated call will be returned back to the caller of the proxy.\\n */\\nabstract contract Proxy {\\n    /**\\n     * @dev Delegates the current call to `implementation`.\\n     *\\n     * This function does not return to its internall call site, it will return directly to the external caller.\\n     */\\n    function _delegate(address implementation) internal virtual {\\n        // solhint-disable-next-line no-inline-assembly\\n        assembly {\\n            // Copy msg.data. We take full control of memory in this inline assembly\\n            // block because it will not return to Solidity code. We overwrite the\\n            // Solidity scratch pad at memory position 0.\\n            calldatacopy(0, 0, calldatasize())\\n\\n            // Call the implementation.\\n            // out and outsize are 0 because we don't know the size yet.\\n            let result := delegatecall(gas(), implementation, 0, calldatasize(), 0, 0)\\n\\n            // Copy the returned data.\\n            returndatacopy(0, 0, returndatasize())\\n\\n            switch result\\n            // delegatecall returns 0 on error.\\n            case 0 { revert(0, returndatasize()) }\\n            default { return(0, returndatasize()) }\\n        }\\n    }\\n\\n    /**\\n     * @dev This is a virtual function that should be overriden so it returns the address to which the fallback function\\n     * and {_fallback} should delegate.\\n     */\\n    function _implementation() internal view virtual returns (address);\\n\\n    /**\\n     * @dev Delegates the current call to the address returned by `_implementation()`.\\n     *\\n     * This function does not return to its internall call site, it will return directly to the external caller.\\n     */\\n    function _fallback() internal virtual {\\n        _beforeFallback();\\n        _delegate(_implementation());\\n    }\\n\\n    /**\\n     * @dev Fallback function that delegates calls to the address returned by `_implementation()`. Will run if no other\\n     * function in the contract matches the call data.\\n     */\\n    fallback () external payable virtual {\\n        _fallback();\\n    }\\n\\n    /**\\n     * @dev Fallback function that delegates calls to the address returned by `_implementation()`. Will run if call data\\n     * is empty.\\n     */\\n    receive () external payable virtual {\\n        _fallback();\\n    }\\n\\n    /**\\n     * @dev Hook that is called before falling back to the implementation. Can happen as part of a manual `_fallback`\\n     * call, or as part of the Solidity `fallback` or `receive` functions.\\n     *\\n     * If overriden should call `super._beforeFallback()`.\\n     */\\n    function _beforeFallback() internal virtual {\\n    }\\n}\\n\",\"keccak256\":\"0xc706395df88dc1d459f21e51c57ab8820af80d1e8c3c14933a651794d78a429f\",\"license\":\"MIT\"},\"@openzeppelin/contracts/proxy/beacon/IBeacon.sol\":{\"content\":\"// SPDX-License-Identifier: MIT\\n\\npragma solidity ^0.8.0;\\n\\n/**\\n * @dev This is the interface that {BeaconProxy} expects of its beacon.\\n */\\ninterface IBeacon {\\n    /**\\n     * @dev Must return an address that can be used as a delegate call target.\\n     *\\n     * {BeaconProxy} will check that this address is a contract.\\n     */\\n    function implementation() external view returns (address);\\n}\\n\",\"keccak256\":\"0x5615339d191e77be7e46319b67856f9355786f705b7b3c4a7237ab70c1864ab1\",\"license\":\"MIT\"},\"@openzeppelin/contracts/token/ERC20/ERC20.sol\":{\"content\":\"// SPDX-License-Identifier: MIT\\n\\npragma solidity ^0.8.0;\\n\\nimport \\\"./IERC20.sol\\\";\\nimport \\\"./extensions/IERC20Metadata.sol\\\";\\nimport \\\"../../utils/Context.sol\\\";\\n\\n/**\\n * @dev Implementation of the {IERC20} interface.\\n *\\n * This implementation is agnostic to the way tokens are created. This means\\n * that a supply mechanism has to be added in a derived contract using {_mint}.\\n * For a generic mechanism see {ERC20PresetMinterPauser}.\\n *\\n * TIP: For a detailed writeup see our guide\\n * https://forum.zeppelin.solutions/t/how-to-implement-erc20-supply-mechanisms/226[How\\n * to implement supply mechanisms].\\n *\\n * We have followed general OpenZeppelin guidelines: functions revert instead\\n * of returning `false` on failure. This behavior is nonetheless conventional\\n * and does not conflict with the expectations of ERC20 applications.\\n *\\n * Additionally, an {Approval} event is emitted on calls to {transferFrom}.\\n * This allows applications to reconstruct the allowance for all accounts just\\n * by listening to said events. Other implementations of the EIP may not emit\\n * these events, as it isn't required by the specification.\\n *\\n * Finally, the non-standard {decreaseAllowance} and {increaseAllowance}\\n * functions have been added to mitigate the well-known issues around setting\\n * allowances. See {IERC20-approve}.\\n */\\ncontract ERC20 is Context, IERC20, IERC20Metadata {\\n    mapping (address => uint256) private _balances;\\n\\n    mapping (address => mapping (address => uint256)) private _allowances;\\n\\n    uint256 private _totalSupply;\\n\\n    string private _name;\\n    string private _symbol;\\n\\n    /**\\n     * @dev Sets the values for {name} and {symbol}.\\n     *\\n     * The defaut value of {decimals} is 18. To select a different value for\\n     * {decimals} you should overload it.\\n     *\\n     * All two of these values are immutable: they can only be set once during\\n     * construction.\\n     */\\n    constructor (string memory name_, string memory symbol_) {\\n        _name = name_;\\n        _symbol = symbol_;\\n    }\\n\\n    /**\\n     * @dev Returns the name of the token.\\n     */\\n    function name() public view virtual override returns (string memory) {\\n        return _name;\\n    }\\n\\n    /**\\n     * @dev Returns the symbol of the token, usually a shorter version of the\\n     * name.\\n     */\\n    function symbol() public view virtual override returns (string memory) {\\n        return _symbol;\\n    }\\n\\n    /**\\n     * @dev Returns the number of decimals used to get its user representation.\\n     * For example, if `decimals` equals `2`, a balance of `505` tokens should\\n     * be displayed to a user as `5,05` (`505 / 10 ** 2`).\\n     *\\n     * Tokens usually opt for a value of 18, imitating the relationship between\\n     * Ether and Wei. This is the value {ERC20} uses, unless this function is\\n     * overridden;\\n     *\\n     * NOTE: This information is only used for _display_ purposes: it in\\n     * no way affects any of the arithmetic of the contract, including\\n     * {IERC20-balanceOf} and {IERC20-transfer}.\\n     */\\n    function decimals() public view virtual override returns (uint8) {\\n        return 18;\\n    }\\n\\n    /**\\n     * @dev See {IERC20-totalSupply}.\\n     */\\n    function totalSupply() public view virtual override returns (uint256) {\\n        return _totalSupply;\\n    }\\n\\n    /**\\n     * @dev See {IERC20-balanceOf}.\\n     */\\n    function balanceOf(address account) public view virtual override returns (uint256) {\\n        return _balances[account];\\n    }\\n\\n    /**\\n     * @dev See {IERC20-transfer}.\\n     *\\n     * Requirements:\\n     *\\n     * - `recipient` cannot be the zero address.\\n     * - the caller must have a balance of at least `amount`.\\n     */\\n    function transfer(address recipient, uint256 amount) public virtual override returns (bool) {\\n        _transfer(_msgSender(), recipient, amount);\\n        return true;\\n    }\\n\\n    /**\\n     * @dev See {IERC20-allowance}.\\n     */\\n    function allowance(address owner, address spender) public view virtual override returns (uint256) {\\n        return _allowances[owner][spender];\\n    }\\n\\n    /**\\n     * @dev See {IERC20-approve}.\\n     *\\n     * Requirements:\\n     *\\n     * - `spender` cannot be the zero address.\\n     */\\n    function approve(address spender, uint256 amount) public virtual override returns (bool) {\\n        _approve(_msgSender(), spender, amount);\\n        return true;\\n    }\\n\\n    /**\\n     * @dev See {IERC20-transferFrom}.\\n     *\\n     * Emits an {Approval} event indicating the updated allowance. This is not\\n     * required by the EIP. See the note at the beginning of {ERC20}.\\n     *\\n     * Requirements:\\n     *\\n     * - `sender` and `recipient` cannot be the zero address.\\n     * - `sender` must have a balance of at least `amount`.\\n     * - the caller must have allowance for ``sender``'s tokens of at least\\n     * `amount`.\\n     */\\n    function transferFrom(address sender, address recipient, uint256 amount) public virtual override returns (bool) {\\n        _transfer(sender, recipient, amount);\\n\\n        uint256 currentAllowance = _allowances[sender][_msgSender()];\\n        require(currentAllowance >= amount, \\\"ERC20: transfer amount exceeds allowance\\\");\\n        _approve(sender, _msgSender(), currentAllowance - amount);\\n\\n        return true;\\n    }\\n\\n    /**\\n     * @dev Atomically increases the allowance granted to `spender` by the caller.\\n     *\\n     * This is an alternative to {approve} that can be used as a mitigation for\\n     * problems described in {IERC20-approve}.\\n     *\\n     * Emits an {Approval} event indicating the updated allowance.\\n     *\\n     * Requirements:\\n     *\\n     * - `spender` cannot be the zero address.\\n     */\\n    function increaseAllowance(address spender, uint256 addedValue) public virtual returns (bool) {\\n        _approve(_msgSender(), spender, _allowances[_msgSender()][spender] + addedValue);\\n        return true;\\n    }\\n\\n    /**\\n     * @dev Atomically decreases the allowance granted to `spender` by the caller.\\n     *\\n     * This is an alternative to {approve} that can be used as a mitigation for\\n     * problems described in {IERC20-approve}.\\n     *\\n     * Emits an {Approval} event indicating the updated allowance.\\n     *\\n     * Requirements:\\n     *\\n     * - `spender` cannot be the zero address.\\n     * - `spender` must have allowance for the caller of at least\\n     * `subtractedValue`.\\n     */\\n    function decreaseAllowance(address spender, uint256 subtractedValue) public virtual returns (bool) {\\n        uint256 currentAllowance = _allowances[_msgSender()][spender];\\n        require(currentAllowance >= subtractedValue, \\\"ERC20: decreased allowance below zero\\\");\\n        _approve(_msgSender(), spender, currentAllowance - subtractedValue);\\n\\n        return true;\\n    }\\n\\n    /**\\n     * @dev Moves tokens `amount` from `sender` to `recipient`.\\n     *\\n     * This is internal function is equivalent to {transfer}, and can be used to\\n     * e.g. implement automatic token fees, slashing mechanisms, etc.\\n     *\\n     * Emits a {Transfer} event.\\n     *\\n     * Requirements:\\n     *\\n     * - `sender` cannot be the zero address.\\n     * - `recipient` cannot be the zero address.\\n     * - `sender` must have a balance of at least `amount`.\\n     */\\n    function _transfer(address sender, address recipient, uint256 amount) internal virtual {\\n        require(sender != address(0), \\\"ERC20: transfer from the zero address\\\");\\n        require(recipient != address(0), \\\"ERC20: transfer to the zero address\\\");\\n\\n        _beforeTokenTransfer(sender, recipient, amount);\\n\\n        uint256 senderBalance = _balances[sender];\\n        require(senderBalance >= amount, \\\"ERC20: transfer amount exceeds balance\\\");\\n        _balances[sender] = senderBalance - amount;\\n        _balances[recipient] += amount;\\n\\n        emit Transfer(sender, recipient, amount);\\n    }\\n\\n    /** @dev Creates `amount` tokens and assigns them to `account`, increasing\\n     * the total supply.\\n     *\\n     * Emits a {Transfer} event with `from` set to the zero address.\\n     *\\n     * Requirements:\\n     *\\n     * - `to` cannot be the zero address.\\n     */\\n    function _mint(address account, uint256 amount) internal virtual {\\n        require(account != address(0), \\\"ERC20: mint to the zero address\\\");\\n\\n        _beforeTokenTransfer(address(0), account, amount);\\n\\n        _totalSupply += amount;\\n        _balances[account] += amount;\\n        emit Transfer(address(0), account, amount);\\n    }\\n\\n    /**\\n     * @dev Destroys `amount` tokens from `account`, reducing the\\n     * total supply.\\n     *\\n     * Emits a {Transfer} event with `to` set to the zero address.\\n     *\\n     * Requirements:\\n     *\\n     * - `account` cannot be the zero address.\\n     * - `account` must have at least `amount` tokens.\\n     */\\n    function _burn(address account, uint256 amount) internal virtual {\\n        require(account != address(0), \\\"ERC20: burn from the zero address\\\");\\n\\n        _beforeTokenTransfer(account, address(0), amount);\\n\\n        uint256 accountBalance = _balances[account];\\n        require(accountBalance >= amount, \\\"ERC20: burn amount exceeds balance\\\");\\n        _balances[account] = accountBalance - amount;\\n        _totalSupply -= amount;\\n\\n        emit Transfer(account, address(0), amount);\\n    }\\n\\n    /**\\n     * @dev Sets `amount` as the allowance of `spender` over the `owner` s tokens.\\n     *\\n     * This internal function is equivalent to `approve`, and can be used to\\n     * e.g. set automatic allowances for certain subsystems, etc.\\n     *\\n     * Emits an {Approval} event.\\n     *\\n     * Requirements:\\n     *\\n     * - `owner` cannot be the zero address.\\n     * - `spender` cannot be the zero address.\\n     */\\n    function _approve(address owner, address spender, uint256 amount) internal virtual {\\n        require(owner != address(0), \\\"ERC20: approve from the zero address\\\");\\n        require(spender != address(0), \\\"ERC20: approve to the zero address\\\");\\n\\n        _allowances[owner][spender] = amount;\\n        emit Approval(owner, spender, amount);\\n    }\\n\\n    /**\\n     * @dev Hook that is called before any transfer of tokens. This includes\\n     * minting and burning.\\n     *\\n     * Calling conditions:\\n     *\\n     * - when `from` and `to` are both non-zero, `amount` of ``from``'s tokens\\n     * will be to transferred to `to`.\\n     * - when `from` is zero, `amount` tokens will be minted for `to`.\\n     * - when `to` is zero, `amount` of ``from``'s tokens will be burned.\\n     * - `from` and `to` are never both zero.\\n     *\\n     * To learn more about hooks, head to xref:ROOT:extending-contracts.adoc#using-hooks[Using Hooks].\\n     */\\n    function _beforeTokenTransfer(address from, address to, uint256 amount) internal virtual { }\\n}\\n\",\"keccak256\":\"0xfeccdcbf67b2006a715e5af1a4c7556004d95b2806552b5cc54e46e8eb7e887b\",\"license\":\"MIT\"},\"@openzeppelin/contracts/token/ERC20/IERC20.sol\":{\"content\":\"// SPDX-License-Identifier: MIT\\n\\npragma solidity ^0.8.0;\\n\\n/**\\n * @dev Interface of the ERC20 standard as defined in the EIP.\\n */\\ninterface IERC20 {\\n    /**\\n     * @dev Returns the amount of tokens in existence.\\n     */\\n    function totalSupply() external view returns (uint256);\\n\\n    /**\\n     * @dev Returns the amount of tokens owned by `account`.\\n     */\\n    function balanceOf(address account) external view returns (uint256);\\n\\n    /**\\n     * @dev Moves `amount` tokens from the caller's account to `recipient`.\\n     *\\n     * Returns a boolean value indicating whether the operation succeeded.\\n     *\\n     * Emits a {Transfer} event.\\n     */\\n    function transfer(address recipient, uint256 amount) external returns (bool);\\n\\n    /**\\n     * @dev Returns the remaining number of tokens that `spender` will be\\n     * allowed to spend on behalf of `owner` through {transferFrom}. This is\\n     * zero by default.\\n     *\\n     * This value changes when {approve} or {transferFrom} are called.\\n     */\\n    function allowance(address owner, address spender) external view returns (uint256);\\n\\n    /**\\n     * @dev Sets `amount` as the allowance of `spender` over the caller's tokens.\\n     *\\n     * Returns a boolean value indicating whether the operation succeeded.\\n     *\\n     * IMPORTANT: Beware that changing an allowance with this method brings the risk\\n     * that someone may use both the old and the new allowance by unfortunate\\n     * transaction ordering. One possible solution to mitigate this race\\n     * condition is to first reduce the spender's allowance to 0 and set the\\n     * desired value afterwards:\\n     * https://github.com/ethereum/EIPs/issues/20#issuecomment-263524729\\n     *\\n     * Emits an {Approval} event.\\n     */\\n    function approve(address spender, uint256 amount) external returns (bool);\\n\\n    /**\\n     * @dev Moves `amount` tokens from `sender` to `recipient` using the\\n     * allowance mechanism. `amount` is then deducted from the caller's\\n     * allowance.\\n     *\\n     * Returns a boolean value indicating whether the operation succeeded.\\n     *\\n     * Emits a {Transfer} event.\\n     */\\n    function transferFrom(address sender, address recipient, uint256 amount) external returns (bool);\\n\\n    /**\\n     * @dev Emitted when `value` tokens are moved from one account (`from`) to\\n     * another (`to`).\\n     *\\n     * Note that `value` may be zero.\\n     */\\n    event Transfer(address indexed from, address indexed to, uint256 value);\\n\\n    /**\\n     * @dev Emitted when the allowance of a `spender` for an `owner` is set by\\n     * a call to {approve}. `value` is the new allowance.\\n     */\\n    event Approval(address indexed owner, address indexed spender, uint256 value);\\n}\\n\",\"keccak256\":\"0xf8e8d118a7a8b2e134181f7da655f6266aa3a0f9134b2605747139fcb0c5d835\",\"license\":\"MIT\"},\"@openzeppelin/contracts/token/ERC20/extensions/IERC20Metadata.sol\":{\"content\":\"// SPDX-License-Identifier: MIT\\n\\npragma solidity ^0.8.0;\\n\\nimport \\\"../IERC20.sol\\\";\\n\\n/**\\n * @dev Interface for the optional metadata functions from the ERC20 standard.\\n *\\n * _Available since v4.1._\\n */\\ninterface IERC20Metadata is IERC20 {\\n    /**\\n     * @dev Returns the name of the token.\\n     */\\n    function name() external view returns (string memory);\\n\\n    /**\\n     * @dev Returns the symbol of the token.\\n     */\\n    function symbol() external view returns (string memory);\\n\\n    /**\\n     * @dev Returns the decimals places of the token.\\n     */\\n    function decimals() external view returns (uint8);\\n}\\n\",\"keccak256\":\"0x83fe24f5c04a56091e50f4a345ff504c8bff658a76d4c43b16878c8f940c53b2\",\"license\":\"MIT\"},\"@openzeppelin/contracts/token/ERC20/utils/SafeERC20.sol\":{\"content\":\"// SPDX-License-Identifier: MIT\\n\\npragma solidity ^0.8.0;\\n\\nimport \\\"../IERC20.sol\\\";\\nimport \\\"../../../utils/Address.sol\\\";\\n\\n/**\\n * @title SafeERC20\\n * @dev Wrappers around ERC20 operations that throw on failure (when the token\\n * contract returns false). Tokens that return no value (and instead revert or\\n * throw on failure) are also supported, non-reverting calls are assumed to be\\n * successful.\\n * To use this library you can add a `using SafeERC20 for IERC20;` statement to your contract,\\n * which allows you to call the safe operations as `token.safeTransfer(...)`, etc.\\n */\\nlibrary SafeERC20 {\\n    using Address for address;\\n\\n    function safeTransfer(IERC20 token, address to, uint256 value) internal {\\n        _callOptionalReturn(token, abi.encodeWithSelector(token.transfer.selector, to, value));\\n    }\\n\\n    function safeTransferFrom(IERC20 token, address from, address to, uint256 value) internal {\\n        _callOptionalReturn(token, abi.encodeWithSelector(token.transferFrom.selector, from, to, value));\\n    }\\n\\n    /**\\n     * @dev Deprecated. This function has issues similar to the ones found in\\n     * {IERC20-approve}, and its usage is discouraged.\\n     *\\n     * Whenever possible, use {safeIncreaseAllowance} and\\n     * {safeDecreaseAllowance} instead.\\n     */\\n    function safeApprove(IERC20 token, address spender, uint256 value) internal {\\n        // safeApprove should only be called when setting an initial allowance,\\n        // or when resetting it to zero. To increase and decrease it, use\\n        // 'safeIncreaseAllowance' and 'safeDecreaseAllowance'\\n        // solhint-disable-next-line max-line-length\\n        require((value == 0) || (token.allowance(address(this), spender) == 0),\\n            \\\"SafeERC20: approve from non-zero to non-zero allowance\\\"\\n        );\\n        _callOptionalReturn(token, abi.encodeWithSelector(token.approve.selector, spender, value));\\n    }\\n\\n    function safeIncreaseAllowance(IERC20 token, address spender, uint256 value) internal {\\n        uint256 newAllowance = token.allowance(address(this), spender) + value;\\n        _callOptionalReturn(token, abi.encodeWithSelector(token.approve.selector, spender, newAllowance));\\n    }\\n\\n    function safeDecreaseAllowance(IERC20 token, address spender, uint256 value) internal {\\n        unchecked {\\n            uint256 oldAllowance = token.allowance(address(this), spender);\\n            require(oldAllowance >= value, \\\"SafeERC20: decreased allowance below zero\\\");\\n            uint256 newAllowance = oldAllowance - value;\\n            _callOptionalReturn(token, abi.encodeWithSelector(token.approve.selector, spender, newAllowance));\\n        }\\n    }\\n\\n    /**\\n     * @dev Imitates a Solidity high-level call (i.e. a regular function call to a contract), relaxing the requirement\\n     * on the return value: the return value is optional (but if data is returned, it must not be false).\\n     * @param token The token targeted by the call.\\n     * @param data The call data (encoded using abi.encode or one of its variants).\\n     */\\n    function _callOptionalReturn(IERC20 token, bytes memory data) private {\\n        // We need to perform a low level call here, to bypass Solidity's return data size checking mechanism, since\\n        // we're implementing it ourselves. We use {Address.functionCall} to perform this call, which verifies that\\n        // the target address contains contract code and also asserts for success in the low-level call.\\n\\n        bytes memory returndata = address(token).functionCall(data, \\\"SafeERC20: low-level call failed\\\");\\n        if (returndata.length > 0) { // Return data is optional\\n            // solhint-disable-next-line max-line-length\\n            require(abi.decode(returndata, (bool)), \\\"SafeERC20: ERC20 operation did not succeed\\\");\\n        }\\n    }\\n}\\n\",\"keccak256\":\"0x99f5c21018d796db7833a2100bb0e7411999e248a3c950fb526eee5d2bf47cb7\",\"license\":\"MIT\"},\"@openzeppelin/contracts/token/ERC721/IERC721.sol\":{\"content\":\"// SPDX-License-Identifier: MIT\\n\\npragma solidity ^0.8.0;\\n\\nimport \\\"../../utils/introspection/IERC165.sol\\\";\\n\\n/**\\n * @dev Required interface of an ERC721 compliant contract.\\n */\\ninterface IERC721 is IERC165 {\\n    /**\\n     * @dev Emitted when `tokenId` token is transferred from `from` to `to`.\\n     */\\n    event Transfer(address indexed from, address indexed to, uint256 indexed tokenId);\\n\\n    /**\\n     * @dev Emitted when `owner` enables `approved` to manage the `tokenId` token.\\n     */\\n    event Approval(address indexed owner, address indexed approved, uint256 indexed tokenId);\\n\\n    /**\\n     * @dev Emitted when `owner` enables or disables (`approved`) `operator` to manage all of its assets.\\n     */\\n    event ApprovalForAll(address indexed owner, address indexed operator, bool approved);\\n\\n    /**\\n     * @dev Returns the number of tokens in ``owner``'s account.\\n     */\\n    function balanceOf(address owner) external view returns (uint256 balance);\\n\\n    /**\\n     * @dev Returns the owner of the `tokenId` token.\\n     *\\n     * Requirements:\\n     *\\n     * - `tokenId` must exist.\\n     */\\n    function ownerOf(uint256 tokenId) external view returns (address owner);\\n\\n    /**\\n     * @dev Safely transfers `tokenId` token from `from` to `to`, checking first that contract recipients\\n     * are aware of the ERC721 protocol to prevent tokens from being forever locked.\\n     *\\n     * Requirements:\\n     *\\n     * - `from` cannot be the zero address.\\n     * - `to` cannot be the zero address.\\n     * - `tokenId` token must exist and be owned by `from`.\\n     * - If the caller is not `from`, it must be have been allowed to move this token by either {approve} or {setApprovalForAll}.\\n     * - If `to` refers to a smart contract, it must implement {IERC721Receiver-onERC721Received}, which is called upon a safe transfer.\\n     *\\n     * Emits a {Transfer} event.\\n     */\\n    function safeTransferFrom(address from, address to, uint256 tokenId) external;\\n\\n    /**\\n     * @dev Transfers `tokenId` token from `from` to `to`.\\n     *\\n     * WARNING: Usage of this method is discouraged, use {safeTransferFrom} whenever possible.\\n     *\\n     * Requirements:\\n     *\\n     * - `from` cannot be the zero address.\\n     * - `to` cannot be the zero address.\\n     * - `tokenId` token must be owned by `from`.\\n     * - If the caller is not `from`, it must be approved to move this token by either {approve} or {setApprovalForAll}.\\n     *\\n     * Emits a {Transfer} event.\\n     */\\n    function transferFrom(address from, address to, uint256 tokenId) external;\\n\\n    /**\\n     * @dev Gives permission to `to` to transfer `tokenId` token to another account.\\n     * The approval is cleared when the token is transferred.\\n     *\\n     * Only a single account can be approved at a time, so approving the zero address clears previous approvals.\\n     *\\n     * Requirements:\\n     *\\n     * - The caller must own the token or be an approved operator.\\n     * - `tokenId` must exist.\\n     *\\n     * Emits an {Approval} event.\\n     */\\n    function approve(address to, uint256 tokenId) external;\\n\\n    /**\\n     * @dev Returns the account approved for `tokenId` token.\\n     *\\n     * Requirements:\\n     *\\n     * - `tokenId` must exist.\\n     */\\n    function getApproved(uint256 tokenId) external view returns (address operator);\\n\\n    /**\\n     * @dev Approve or remove `operator` as an operator for the caller.\\n     * Operators can call {transferFrom} or {safeTransferFrom} for any token owned by the caller.\\n     *\\n     * Requirements:\\n     *\\n     * - The `operator` cannot be the caller.\\n     *\\n     * Emits an {ApprovalForAll} event.\\n     */\\n    function setApprovalForAll(address operator, bool _approved) external;\\n\\n    /**\\n     * @dev Returns if the `operator` is allowed to manage all of the assets of `owner`.\\n     *\\n     * See {setApprovalForAll}\\n     */\\n    function isApprovedForAll(address owner, address operator) external view returns (bool);\\n\\n    /**\\n      * @dev Safely transfers `tokenId` token from `from` to `to`.\\n      *\\n      * Requirements:\\n      *\\n      * - `from` cannot be the zero address.\\n      * - `to` cannot be the zero address.\\n      * - `tokenId` token must exist and be owned by `from`.\\n      * - If the caller is not `from`, it must be approved to move this token by either {approve} or {setApprovalForAll}.\\n      * - If `to` refers to a smart contract, it must implement {IERC721Receiver-onERC721Received}, which is called upon a safe transfer.\\n      *\\n      * Emits a {Transfer} event.\\n      */\\n    function safeTransferFrom(address from, address to, uint256 tokenId, bytes calldata data) external;\\n}\\n\",\"keccak256\":\"0xc1c941ad1e580b4623007305921efe2f26fc7320a4edc226234dd707c658a428\",\"license\":\"MIT\"},\"@openzeppelin/contracts/token/ERC721/extensions/IERC721Metadata.sol\":{\"content\":\"// SPDX-License-Identifier: MIT\\n\\npragma solidity ^0.8.0;\\n\\nimport \\\"../IERC721.sol\\\";\\n\\n/**\\n * @title ERC-721 Non-Fungible Token Standard, optional metadata extension\\n * @dev See https://eips.ethereum.org/EIPS/eip-721\\n */\\ninterface IERC721Metadata is IERC721 {\\n\\n    /**\\n     * @dev Returns the token collection name.\\n     */\\n    function name() external view returns (string memory);\\n\\n    /**\\n     * @dev Returns the token collection symbol.\\n     */\\n    function symbol() external view returns (string memory);\\n\\n    /**\\n     * @dev Returns the Uniform Resource Identifier (URI) for `tokenId` token.\\n     */\\n    function tokenURI(uint256 tokenId) external view returns (string memory);\\n}\\n\",\"keccak256\":\"0xb8d11e77eb1ed34a33720edb551d7d6a6b0eee2bfaa40a7024020e1fdf879b16\",\"license\":\"MIT\"},\"@openzeppelin/contracts/utils/Address.sol\":{\"content\":\"// SPDX-License-Identifier: MIT\\n\\npragma solidity ^0.8.0;\\n\\n/**\\n * @dev Collection of functions related to the address type\\n */\\nlibrary Address {\\n    /**\\n     * @dev Returns true if `account` is a contract.\\n     *\\n     * [IMPORTANT]\\n     * ====\\n     * It is unsafe to assume that an address for which this function returns\\n     * false is an externally-owned account (EOA) and not a contract.\\n     *\\n     * Among others, `isContract` will return false for the following\\n     * types of addresses:\\n     *\\n     *  - an externally-owned account\\n     *  - a contract in construction\\n     *  - an address where a contract will be created\\n     *  - an address where a contract lived, but was destroyed\\n     * ====\\n     */\\n    function isContract(address account) internal view returns (bool) {\\n        // This method relies on extcodesize, which returns 0 for contracts in\\n        // construction, since the code is only stored at the end of the\\n        // constructor execution.\\n\\n        uint256 size;\\n        // solhint-disable-next-line no-inline-assembly\\n        assembly { size := extcodesize(account) }\\n        return size > 0;\\n    }\\n\\n    /**\\n     * @dev Replacement for Solidity's `transfer`: sends `amount` wei to\\n     * `recipient`, forwarding all available gas and reverting on errors.\\n     *\\n     * https://eips.ethereum.org/EIPS/eip-1884[EIP1884] increases the gas cost\\n     * of certain opcodes, possibly making contracts go over the 2300 gas limit\\n     * imposed by `transfer`, making them unable to receive funds via\\n     * `transfer`. {sendValue} removes this limitation.\\n     *\\n     * https://diligence.consensys.net/posts/2019/09/stop-using-soliditys-transfer-now/[Learn more].\\n     *\\n     * IMPORTANT: because control is transferred to `recipient`, care must be\\n     * taken to not create reentrancy vulnerabilities. Consider using\\n     * {ReentrancyGuard} or the\\n     * https://solidity.readthedocs.io/en/v0.5.11/security-considerations.html#use-the-checks-effects-interactions-pattern[checks-effects-interactions pattern].\\n     */\\n    function sendValue(address payable recipient, uint256 amount) internal {\\n        require(address(this).balance >= amount, \\\"Address: insufficient balance\\\");\\n\\n        // solhint-disable-next-line avoid-low-level-calls, avoid-call-value\\n        (bool success, ) = recipient.call{ value: amount }(\\\"\\\");\\n        require(success, \\\"Address: unable to send value, recipient may have reverted\\\");\\n    }\\n\\n    /**\\n     * @dev Performs a Solidity function call using a low level `call`. A\\n     * plain`call` is an unsafe replacement for a function call: use this\\n     * function instead.\\n     *\\n     * If `target` reverts with a revert reason, it is bubbled up by this\\n     * function (like regular Solidity function calls).\\n     *\\n     * Returns the raw returned data. To convert to the expected return value,\\n     * use https://solidity.readthedocs.io/en/latest/units-and-global-variables.html?highlight=abi.decode#abi-encoding-and-decoding-functions[`abi.decode`].\\n     *\\n     * Requirements:\\n     *\\n     * - `target` must be a contract.\\n     * - calling `target` with `data` must not revert.\\n     *\\n     * _Available since v3.1._\\n     */\\n    function functionCall(address target, bytes memory data) internal returns (bytes memory) {\\n      return functionCall(target, data, \\\"Address: low-level call failed\\\");\\n    }\\n\\n    /**\\n     * @dev Same as {xref-Address-functionCall-address-bytes-}[`functionCall`], but with\\n     * `errorMessage` as a fallback revert reason when `target` reverts.\\n     *\\n     * _Available since v3.1._\\n     */\\n    function functionCall(address target, bytes memory data, string memory errorMessage) internal returns (bytes memory) {\\n        return functionCallWithValue(target, data, 0, errorMessage);\\n    }\\n\\n    /**\\n     * @dev Same as {xref-Address-functionCall-address-bytes-}[`functionCall`],\\n     * but also transferring `value` wei to `target`.\\n     *\\n     * Requirements:\\n     *\\n     * - the calling contract must have an ETH balance of at least `value`.\\n     * - the called Solidity function must be `payable`.\\n     *\\n     * _Available since v3.1._\\n     */\\n    function functionCallWithValue(address target, bytes memory data, uint256 value) internal returns (bytes memory) {\\n        return functionCallWithValue(target, data, value, \\\"Address: low-level call with value failed\\\");\\n    }\\n\\n    /**\\n     * @dev Same as {xref-Address-functionCallWithValue-address-bytes-uint256-}[`functionCallWithValue`], but\\n     * with `errorMessage` as a fallback revert reason when `target` reverts.\\n     *\\n     * _Available since v3.1._\\n     */\\n    function functionCallWithValue(address target, bytes memory data, uint256 value, string memory errorMessage) internal returns (bytes memory) {\\n        require(address(this).balance >= value, \\\"Address: insufficient balance for call\\\");\\n        require(isContract(target), \\\"Address: call to non-contract\\\");\\n\\n        // solhint-disable-next-line avoid-low-level-calls\\n        (bool success, bytes memory returndata) = target.call{ value: value }(data);\\n        return _verifyCallResult(success, returndata, errorMessage);\\n    }\\n\\n    /**\\n     * @dev Same as {xref-Address-functionCall-address-bytes-}[`functionCall`],\\n     * but performing a static call.\\n     *\\n     * _Available since v3.3._\\n     */\\n    function functionStaticCall(address target, bytes memory data) internal view returns (bytes memory) {\\n        return functionStaticCall(target, data, \\\"Address: low-level static call failed\\\");\\n    }\\n\\n    /**\\n     * @dev Same as {xref-Address-functionCall-address-bytes-string-}[`functionCall`],\\n     * but performing a static call.\\n     *\\n     * _Available since v3.3._\\n     */\\n    function functionStaticCall(address target, bytes memory data, string memory errorMessage) internal view returns (bytes memory) {\\n        require(isContract(target), \\\"Address: static call to non-contract\\\");\\n\\n        // solhint-disable-next-line avoid-low-level-calls\\n        (bool success, bytes memory returndata) = target.staticcall(data);\\n        return _verifyCallResult(success, returndata, errorMessage);\\n    }\\n\\n    /**\\n     * @dev Same as {xref-Address-functionCall-address-bytes-}[`functionCall`],\\n     * but performing a delegate call.\\n     *\\n     * _Available since v3.4._\\n     */\\n    function functionDelegateCall(address target, bytes memory data) internal returns (bytes memory) {\\n        return functionDelegateCall(target, data, \\\"Address: low-level delegate call failed\\\");\\n    }\\n\\n    /**\\n     * @dev Same as {xref-Address-functionCall-address-bytes-string-}[`functionCall`],\\n     * but performing a delegate call.\\n     *\\n     * _Available since v3.4._\\n     */\\n    function functionDelegateCall(address target, bytes memory data, string memory errorMessage) internal returns (bytes memory) {\\n        require(isContract(target), \\\"Address: delegate call to non-contract\\\");\\n\\n        // solhint-disable-next-line avoid-low-level-calls\\n        (bool success, bytes memory returndata) = target.delegatecall(data);\\n        return _verifyCallResult(success, returndata, errorMessage);\\n    }\\n\\n    function _verifyCallResult(bool success, bytes memory returndata, string memory errorMessage) private pure returns(bytes memory) {\\n        if (success) {\\n            return returndata;\\n        } else {\\n            // Look for revert reason and bubble it up if present\\n            if (returndata.length > 0) {\\n                // The easiest way to bubble the revert reason is using memory via assembly\\n\\n                // solhint-disable-next-line no-inline-assembly\\n                assembly {\\n                    let returndata_size := mload(returndata)\\n                    revert(add(32, returndata), returndata_size)\\n                }\\n            } else {\\n                revert(errorMessage);\\n            }\\n        }\\n    }\\n}\\n\",\"keccak256\":\"0x069b2631bb5b5193a58ccf7a06266c7361bd2c20095667af4402817605627f45\",\"license\":\"MIT\"},\"@openzeppelin/contracts/utils/Context.sol\":{\"content\":\"// SPDX-License-Identifier: MIT\\n\\npragma solidity ^0.8.0;\\n\\n/*\\n * @dev Provides information about the current execution context, including the\\n * sender of the transaction and its data. While these are generally available\\n * via msg.sender and msg.data, they should not be accessed in such a direct\\n * manner, since when dealing with meta-transactions the account sending and\\n * paying for execution may not be the actual sender (as far as an application\\n * is concerned).\\n *\\n * This contract is only required for intermediate, library-like contracts.\\n */\\nabstract contract Context {\\n    function _msgSender() internal view virtual returns (address) {\\n        return msg.sender;\\n    }\\n\\n    function _msgData() internal view virtual returns (bytes calldata) {\\n        this; // silence state mutability warning without generating bytecode - see https://github.com/ethereum/solidity/issues/2691\\n        return msg.data;\\n    }\\n}\\n\",\"keccak256\":\"0xf930d2df426bfcfc1f7415be724f04081c96f4fb9ec8d0e3a521c07692dface0\",\"license\":\"MIT\"},\"@openzeppelin/contracts/utils/Counters.sol\":{\"content\":\"// SPDX-License-Identifier: MIT\\n\\npragma solidity ^0.8.0;\\n\\n/**\\n * @title Counters\\n * @author Matt Condon (@shrugs)\\n * @dev Provides counters that can only be incremented or decremented by one. This can be used e.g. to track the number\\n * of elements in a mapping, issuing ERC721 ids, or counting request ids.\\n *\\n * Include with `using Counters for Counters.Counter;`\\n */\\nlibrary Counters {\\n    struct Counter {\\n        // This variable should never be directly accessed by users of the library: interactions must be restricted to\\n        // the library's function. As of Solidity v0.5.2, this cannot be enforced, though there is a proposal to add\\n        // this feature: see https://github.com/ethereum/solidity/issues/4637\\n        uint256 _value; // default: 0\\n    }\\n\\n    function current(Counter storage counter) internal view returns (uint256) {\\n        return counter._value;\\n    }\\n\\n    function increment(Counter storage counter) internal {\\n        unchecked {\\n            counter._value += 1;\\n        }\\n    }\\n\\n    function decrement(Counter storage counter) internal {\\n        uint256 value = counter._value;\\n        require(value > 0, \\\"Counter: decrement overflow\\\");\\n        unchecked {\\n            counter._value = value - 1;\\n        }\\n    }\\n}\\n\",\"keccak256\":\"0x62d306ff0499a11913bc60b5939eec619509b5c67b30e86ebf8b8bda0b7a7fee\",\"license\":\"MIT\"},\"@openzeppelin/contracts/utils/cryptography/MerkleProof.sol\":{\"content\":\"// SPDX-License-Identifier: MIT\\n\\npragma solidity ^0.8.0;\\n\\n/**\\n * @dev These functions deal with verification of Merkle Trees proofs.\\n *\\n * The proofs can be generated using the JavaScript library\\n * https://github.com/miguelmota/merkletreejs[merkletreejs].\\n * Note: the hashing algorithm should be keccak256 and pair sorting should be enabled.\\n *\\n * See `test/utils/cryptography/MerkleProof.test.js` for some examples.\\n */\\nlibrary MerkleProof {\\n    /**\\n     * @dev Returns true if a `leaf` can be proved to be a part of a Merkle tree\\n     * defined by `root`. For this, a `proof` must be provided, containing\\n     * sibling hashes on the branch from the leaf to the root of the tree. Each\\n     * pair of leaves and each pair of pre-images are assumed to be sorted.\\n     */\\n    function verify(bytes32[] memory proof, bytes32 root, bytes32 leaf) internal pure returns (bool) {\\n        bytes32 computedHash = leaf;\\n\\n        for (uint256 i = 0; i < proof.length; i++) {\\n            bytes32 proofElement = proof[i];\\n\\n            if (computedHash <= proofElement) {\\n                // Hash(current computed hash + current element of the proof)\\n                computedHash = keccak256(abi.encodePacked(computedHash, proofElement));\\n            } else {\\n                // Hash(current element of the proof + current computed hash)\\n                computedHash = keccak256(abi.encodePacked(proofElement, computedHash));\\n            }\\n        }\\n\\n        // Check if the computed hash (root) is equal to the provided root\\n        return computedHash == root;\\n    }\\n}\\n\",\"keccak256\":\"0xeee34bfb413657b6cd6c8e1e15c2080ba5ebaac479578515922804346fb63f7c\",\"license\":\"MIT\"},\"@openzeppelin/contracts/utils/introspection/IERC165.sol\":{\"content\":\"// SPDX-License-Identifier: MIT\\n\\npragma solidity ^0.8.0;\\n\\n/**\\n * @dev Interface of the ERC165 standard, as defined in the\\n * https://eips.ethereum.org/EIPS/eip-165[EIP].\\n *\\n * Implementers can declare support of contract interfaces, which can then be\\n * queried by others ({ERC165Checker}).\\n *\\n * For an implementation, see {ERC165}.\\n */\\ninterface IERC165 {\\n    /**\\n     * @dev Returns true if this contract implements the interface defined by\\n     * `interfaceId`. See the corresponding\\n     * https://eips.ethereum.org/EIPS/eip-165#how-interfaces-are-identified[EIP section]\\n     * to learn more about how these ids are created.\\n     *\\n     * This function call must use less than 30 000 gas.\\n     */\\n    function supportsInterface(bytes4 interfaceId) external view returns (bool);\\n}\\n\",\"keccak256\":\"0xa28007762d9da9db878dd421960c8cb9a10471f47ab5c1b3309bfe48e9e79ff4\",\"license\":\"MIT\"},\"@openzeppelin/contracts/utils/math/SafeCast.sol\":{\"content\":\"// SPDX-License-Identifier: MIT\\n\\npragma solidity ^0.8.0;\\n\\n/**\\n * @dev Wrappers over Solidity's uintXX/intXX casting operators with added overflow\\n * checks.\\n *\\n * Downcasting from uint256/int256 in Solidity does not revert on overflow. This can\\n * easily result in undesired exploitation or bugs, since developers usually\\n * assume that overflows raise errors. `SafeCast` restores this intuition by\\n * reverting the transaction when such an operation overflows.\\n *\\n * Using this library instead of the unchecked operations eliminates an entire\\n * class of bugs, so it's recommended to use it always.\\n *\\n * Can be combined with {SafeMath} and {SignedSafeMath} to extend it to smaller types, by performing\\n * all math on `uint256` and `int256` and then downcasting.\\n */\\nlibrary SafeCast {\\n    /**\\n     * @dev Returns the downcasted uint128 from uint256, reverting on\\n     * overflow (when the input is greater than largest uint128).\\n     *\\n     * Counterpart to Solidity's `uint128` operator.\\n     *\\n     * Requirements:\\n     *\\n     * - input must fit into 128 bits\\n     */\\n    function toUint128(uint256 value) internal pure returns (uint128) {\\n        require(value < 2**128, \\\"SafeCast: value doesn\\\\'t fit in 128 bits\\\");\\n        return uint128(value);\\n    }\\n\\n    /**\\n     * @dev Returns the downcasted uint64 from uint256, reverting on\\n     * overflow (when the input is greater than largest uint64).\\n     *\\n     * Counterpart to Solidity's `uint64` operator.\\n     *\\n     * Requirements:\\n     *\\n     * - input must fit into 64 bits\\n     */\\n    function toUint64(uint256 value) internal pure returns (uint64) {\\n        require(value < 2**64, \\\"SafeCast: value doesn\\\\'t fit in 64 bits\\\");\\n        return uint64(value);\\n    }\\n\\n    /**\\n     * @dev Returns the downcasted uint32 from uint256, reverting on\\n     * overflow (when the input is greater than largest uint32).\\n     *\\n     * Counterpart to Solidity's `uint32` operator.\\n     *\\n     * Requirements:\\n     *\\n     * - input must fit into 32 bits\\n     */\\n    function toUint32(uint256 value) internal pure returns (uint32) {\\n        require(value < 2**32, \\\"SafeCast: value doesn\\\\'t fit in 32 bits\\\");\\n        return uint32(value);\\n    }\\n\\n    /**\\n     * @dev Returns the downcasted uint16 from uint256, reverting on\\n     * overflow (when the input is greater than largest uint16).\\n     *\\n     * Counterpart to Solidity's `uint16` operator.\\n     *\\n     * Requirements:\\n     *\\n     * - input must fit into 16 bits\\n     */\\n    function toUint16(uint256 value) internal pure returns (uint16) {\\n        require(value < 2**16, \\\"SafeCast: value doesn\\\\'t fit in 16 bits\\\");\\n        return uint16(value);\\n    }\\n\\n    /**\\n     * @dev Returns the downcasted uint8 from uint256, reverting on\\n     * overflow (when the input is greater than largest uint8).\\n     *\\n     * Counterpart to Solidity's `uint8` operator.\\n     *\\n     * Requirements:\\n     *\\n     * - input must fit into 8 bits.\\n     */\\n    function toUint8(uint256 value) internal pure returns (uint8) {\\n        require(value < 2**8, \\\"SafeCast: value doesn\\\\'t fit in 8 bits\\\");\\n        return uint8(value);\\n    }\\n\\n    /**\\n     * @dev Converts a signed int256 into an unsigned uint256.\\n     *\\n     * Requirements:\\n     *\\n     * - input must be greater than or equal to 0.\\n     */\\n    function toUint256(int256 value) internal pure returns (uint256) {\\n        require(value >= 0, \\\"SafeCast: value must be positive\\\");\\n        return uint256(value);\\n    }\\n\\n    /**\\n     * @dev Returns the downcasted int128 from int256, reverting on\\n     * overflow (when the input is less than smallest int128 or\\n     * greater than largest int128).\\n     *\\n     * Counterpart to Solidity's `int128` operator.\\n     *\\n     * Requirements:\\n     *\\n     * - input must fit into 128 bits\\n     *\\n     * _Available since v3.1._\\n     */\\n    function toInt128(int256 value) internal pure returns (int128) {\\n        require(value >= -2**127 && value < 2**127, \\\"SafeCast: value doesn\\\\'t fit in 128 bits\\\");\\n        return int128(value);\\n    }\\n\\n    /**\\n     * @dev Returns the downcasted int64 from int256, reverting on\\n     * overflow (when the input is less than smallest int64 or\\n     * greater than largest int64).\\n     *\\n     * Counterpart to Solidity's `int64` operator.\\n     *\\n     * Requirements:\\n     *\\n     * - input must fit into 64 bits\\n     *\\n     * _Available since v3.1._\\n     */\\n    function toInt64(int256 value) internal pure returns (int64) {\\n        require(value >= -2**63 && value < 2**63, \\\"SafeCast: value doesn\\\\'t fit in 64 bits\\\");\\n        return int64(value);\\n    }\\n\\n    /**\\n     * @dev Returns the downcasted int32 from int256, reverting on\\n     * overflow (when the input is less than smallest int32 or\\n     * greater than largest int32).\\n     *\\n     * Counterpart to Solidity's `int32` operator.\\n     *\\n     * Requirements:\\n     *\\n     * - input must fit into 32 bits\\n     *\\n     * _Available since v3.1._\\n     */\\n    function toInt32(int256 value) internal pure returns (int32) {\\n        require(value >= -2**31 && value < 2**31, \\\"SafeCast: value doesn\\\\'t fit in 32 bits\\\");\\n        return int32(value);\\n    }\\n\\n    /**\\n     * @dev Returns the downcasted int16 from int256, reverting on\\n     * overflow (when the input is less than smallest int16 or\\n     * greater than largest int16).\\n     *\\n     * Counterpart to Solidity's `int16` operator.\\n     *\\n     * Requirements:\\n     *\\n     * - input must fit into 16 bits\\n     *\\n     * _Available since v3.1._\\n     */\\n    function toInt16(int256 value) internal pure returns (int16) {\\n        require(value >= -2**15 && value < 2**15, \\\"SafeCast: value doesn\\\\'t fit in 16 bits\\\");\\n        return int16(value);\\n    }\\n\\n    /**\\n     * @dev Returns the downcasted int8 from int256, reverting on\\n     * overflow (when the input is less than smallest int8 or\\n     * greater than largest int8).\\n     *\\n     * Counterpart to Solidity's `int8` operator.\\n     *\\n     * Requirements:\\n     *\\n     * - input must fit into 8 bits.\\n     *\\n     * _Available since v3.1._\\n     */\\n    function toInt8(int256 value) internal pure returns (int8) {\\n        require(value >= -2**7 && value < 2**7, \\\"SafeCast: value doesn\\\\'t fit in 8 bits\\\");\\n        return int8(value);\\n    }\\n\\n    /**\\n     * @dev Converts an unsigned uint256 into a signed int256.\\n     *\\n     * Requirements:\\n     *\\n     * - input must be less than or equal to maxInt256.\\n     */\\n    function toInt256(uint256 value) internal pure returns (int256) {\\n        require(value < 2**255, \\\"SafeCast: value doesn't fit in an int256\\\");\\n        return int256(value);\\n    }\\n}\\n\",\"keccak256\":\"0xc37d85b96c2a8d7bc09f25958e0a81394bf5780286444147ddf875fa628d53ce\",\"license\":\"MIT\"},\"@openzeppelin/contracts/utils/math/SafeMath.sol\":{\"content\":\"// SPDX-License-Identifier: MIT\\n\\npragma solidity ^0.8.0;\\n\\n// CAUTION\\n// This version of SafeMath should only be used with Solidity 0.8 or later,\\n// because it relies on the compiler's built in overflow checks.\\n\\n/**\\n * @dev Wrappers over Solidity's arithmetic operations.\\n *\\n * NOTE: `SafeMath` is no longer needed starting with Solidity 0.8. The compiler\\n * now has built in overflow checking.\\n */\\nlibrary SafeMath {\\n    /**\\n     * @dev Returns the addition of two unsigned integers, with an overflow flag.\\n     *\\n     * _Available since v3.4._\\n     */\\n    function tryAdd(uint256 a, uint256 b) internal pure returns (bool, uint256) {\\n        unchecked {\\n            uint256 c = a + b;\\n            if (c < a) return (false, 0);\\n            return (true, c);\\n        }\\n    }\\n\\n    /**\\n     * @dev Returns the substraction of two unsigned integers, with an overflow flag.\\n     *\\n     * _Available since v3.4._\\n     */\\n    function trySub(uint256 a, uint256 b) internal pure returns (bool, uint256) {\\n        unchecked {\\n            if (b > a) return (false, 0);\\n            return (true, a - b);\\n        }\\n    }\\n\\n    /**\\n     * @dev Returns the multiplication of two unsigned integers, with an overflow flag.\\n     *\\n     * _Available since v3.4._\\n     */\\n    function tryMul(uint256 a, uint256 b) internal pure returns (bool, uint256) {\\n        unchecked {\\n            // Gas optimization: this is cheaper than requiring 'a' not being zero, but the\\n            // benefit is lost if 'b' is also tested.\\n            // See: https://github.com/OpenZeppelin/openzeppelin-contracts/pull/522\\n            if (a == 0) return (true, 0);\\n            uint256 c = a * b;\\n            if (c / a != b) return (false, 0);\\n            return (true, c);\\n        }\\n    }\\n\\n    /**\\n     * @dev Returns the division of two unsigned integers, with a division by zero flag.\\n     *\\n     * _Available since v3.4._\\n     */\\n    function tryDiv(uint256 a, uint256 b) internal pure returns (bool, uint256) {\\n        unchecked {\\n            if (b == 0) return (false, 0);\\n            return (true, a / b);\\n        }\\n    }\\n\\n    /**\\n     * @dev Returns the remainder of dividing two unsigned integers, with a division by zero flag.\\n     *\\n     * _Available since v3.4._\\n     */\\n    function tryMod(uint256 a, uint256 b) internal pure returns (bool, uint256) {\\n        unchecked {\\n            if (b == 0) return (false, 0);\\n            return (true, a % b);\\n        }\\n    }\\n\\n    /**\\n     * @dev Returns the addition of two unsigned integers, reverting on\\n     * overflow.\\n     *\\n     * Counterpart to Solidity's `+` operator.\\n     *\\n     * Requirements:\\n     *\\n     * - Addition cannot overflow.\\n     */\\n    function add(uint256 a, uint256 b) internal pure returns (uint256) {\\n        return a + b;\\n    }\\n\\n    /**\\n     * @dev Returns the subtraction of two unsigned integers, reverting on\\n     * overflow (when the result is negative).\\n     *\\n     * Counterpart to Solidity's `-` operator.\\n     *\\n     * Requirements:\\n     *\\n     * - Subtraction cannot overflow.\\n     */\\n    function sub(uint256 a, uint256 b) internal pure returns (uint256) {\\n        return a - b;\\n    }\\n\\n    /**\\n     * @dev Returns the multiplication of two unsigned integers, reverting on\\n     * overflow.\\n     *\\n     * Counterpart to Solidity's `*` operator.\\n     *\\n     * Requirements:\\n     *\\n     * - Multiplication cannot overflow.\\n     */\\n    function mul(uint256 a, uint256 b) internal pure returns (uint256) {\\n        return a * b;\\n    }\\n\\n    /**\\n     * @dev Returns the integer division of two unsigned integers, reverting on\\n     * division by zero. The result is rounded towards zero.\\n     *\\n     * Counterpart to Solidity's `/` operator.\\n     *\\n     * Requirements:\\n     *\\n     * - The divisor cannot be zero.\\n     */\\n    function div(uint256 a, uint256 b) internal pure returns (uint256) {\\n        return a / b;\\n    }\\n\\n    /**\\n     * @dev Returns the remainder of dividing two unsigned integers. (unsigned integer modulo),\\n     * reverting when dividing by zero.\\n     *\\n     * Counterpart to Solidity's `%` operator. This function uses a `revert`\\n     * opcode (which leaves remaining gas untouched) while Solidity uses an\\n     * invalid opcode to revert (consuming all remaining gas).\\n     *\\n     * Requirements:\\n     *\\n     * - The divisor cannot be zero.\\n     */\\n    function mod(uint256 a, uint256 b) internal pure returns (uint256) {\\n        return a % b;\\n    }\\n\\n    /**\\n     * @dev Returns the subtraction of two unsigned integers, reverting with custom message on\\n     * overflow (when the result is negative).\\n     *\\n     * CAUTION: This function is deprecated because it requires allocating memory for the error\\n     * message unnecessarily. For custom revert reasons use {trySub}.\\n     *\\n     * Counterpart to Solidity's `-` operator.\\n     *\\n     * Requirements:\\n     *\\n     * - Subtraction cannot overflow.\\n     */\\n    function sub(uint256 a, uint256 b, string memory errorMessage) internal pure returns (uint256) {\\n        unchecked {\\n            require(b <= a, errorMessage);\\n            return a - b;\\n        }\\n    }\\n\\n    /**\\n     * @dev Returns the integer division of two unsigned integers, reverting with custom message on\\n     * division by zero. The result is rounded towards zero.\\n     *\\n     * Counterpart to Solidity's `%` operator. This function uses a `revert`\\n     * opcode (which leaves remaining gas untouched) while Solidity uses an\\n     * invalid opcode to revert (consuming all remaining gas).\\n     *\\n     * Counterpart to Solidity's `/` operator. Note: this function uses a\\n     * `revert` opcode (which leaves remaining gas untouched) while Solidity\\n     * uses an invalid opcode to revert (consuming all remaining gas).\\n     *\\n     * Requirements:\\n     *\\n     * - The divisor cannot be zero.\\n     */\\n    function div(uint256 a, uint256 b, string memory errorMessage) internal pure returns (uint256) {\\n        unchecked {\\n            require(b > 0, errorMessage);\\n            return a / b;\\n        }\\n    }\\n\\n    /**\\n     * @dev Returns the remainder of dividing two unsigned integers. (unsigned integer modulo),\\n     * reverting with custom message when dividing by zero.\\n     *\\n     * CAUTION: This function is deprecated because it requires allocating memory for the error\\n     * message unnecessarily. For custom revert reasons use {tryMod}.\\n     *\\n     * Counterpart to Solidity's `%` operator. This function uses a `revert`\\n     * opcode (which leaves remaining gas untouched) while Solidity uses an\\n     * invalid opcode to revert (consuming all remaining gas).\\n     *\\n     * Requirements:\\n     *\\n     * - The divisor cannot be zero.\\n     */\\n    function mod(uint256 a, uint256 b, string memory errorMessage) internal pure returns (uint256) {\\n        unchecked {\\n            require(b > 0, errorMessage);\\n            return a % b;\\n        }\\n    }\\n}\\n\",\"keccak256\":\"0x2526b7c6a366fc211bbc176078ab02b83833e7682abcc5b3bed9d700b34e2a3e\",\"license\":\"MIT\"},\"@openzeppelin/contracts/utils/structs/EnumerableSet.sol\":{\"content\":\"// SPDX-License-Identifier: MIT\\n\\npragma solidity ^0.8.0;\\n\\n/**\\n * @dev Library for managing\\n * https://en.wikipedia.org/wiki/Set_(abstract_data_type)[sets] of primitive\\n * types.\\n *\\n * Sets have the following properties:\\n *\\n * - Elements are added, removed, and checked for existence in constant time\\n * (O(1)).\\n * - Elements are enumerated in O(n). No guarantees are made on the ordering.\\n *\\n * ```\\n * contract Example {\\n *     // Add the library methods\\n *     using EnumerableSet for EnumerableSet.AddressSet;\\n *\\n *     // Declare a set state variable\\n *     EnumerableSet.AddressSet private mySet;\\n * }\\n * ```\\n *\\n * As of v3.3.0, sets of type `bytes32` (`Bytes32Set`), `address` (`AddressSet`)\\n * and `uint256` (`UintSet`) are supported.\\n */\\nlibrary EnumerableSet {\\n    // To implement this library for multiple types with as little code\\n    // repetition as possible, we write it in terms of a generic Set type with\\n    // bytes32 values.\\n    // The Set implementation uses private functions, and user-facing\\n    // implementations (such as AddressSet) are just wrappers around the\\n    // underlying Set.\\n    // This means that we can only create new EnumerableSets for types that fit\\n    // in bytes32.\\n\\n    struct Set {\\n        // Storage of set values\\n        bytes32[] _values;\\n\\n        // Position of the value in the `values` array, plus 1 because index 0\\n        // means a value is not in the set.\\n        mapping (bytes32 => uint256) _indexes;\\n    }\\n\\n    /**\\n     * @dev Add a value to a set. O(1).\\n     *\\n     * Returns true if the value was added to the set, that is if it was not\\n     * already present.\\n     */\\n    function _add(Set storage set, bytes32 value) private returns (bool) {\\n        if (!_contains(set, value)) {\\n            set._values.push(value);\\n            // The value is stored at length-1, but we add 1 to all indexes\\n            // and use 0 as a sentinel value\\n            set._indexes[value] = set._values.length;\\n            return true;\\n        } else {\\n            return false;\\n        }\\n    }\\n\\n    /**\\n     * @dev Removes a value from a set. O(1).\\n     *\\n     * Returns true if the value was removed from the set, that is if it was\\n     * present.\\n     */\\n    function _remove(Set storage set, bytes32 value) private returns (bool) {\\n        // We read and store the value's index to prevent multiple reads from the same storage slot\\n        uint256 valueIndex = set._indexes[value];\\n\\n        if (valueIndex != 0) { // Equivalent to contains(set, value)\\n            // To delete an element from the _values array in O(1), we swap the element to delete with the last one in\\n            // the array, and then remove the last element (sometimes called as 'swap and pop').\\n            // This modifies the order of the array, as noted in {at}.\\n\\n            uint256 toDeleteIndex = valueIndex - 1;\\n            uint256 lastIndex = set._values.length - 1;\\n\\n            // When the value to delete is the last one, the swap operation is unnecessary. However, since this occurs\\n            // so rarely, we still do the swap anyway to avoid the gas cost of adding an 'if' statement.\\n\\n            bytes32 lastvalue = set._values[lastIndex];\\n\\n            // Move the last value to the index where the value to delete is\\n            set._values[toDeleteIndex] = lastvalue;\\n            // Update the index for the moved value\\n            set._indexes[lastvalue] = valueIndex; // Replace lastvalue's index to valueIndex\\n\\n            // Delete the slot where the moved value was stored\\n            set._values.pop();\\n\\n            // Delete the index for the deleted slot\\n            delete set._indexes[value];\\n\\n            return true;\\n        } else {\\n            return false;\\n        }\\n    }\\n\\n    /**\\n     * @dev Returns true if the value is in the set. O(1).\\n     */\\n    function _contains(Set storage set, bytes32 value) private view returns (bool) {\\n        return set._indexes[value] != 0;\\n    }\\n\\n    /**\\n     * @dev Returns the number of values on the set. O(1).\\n     */\\n    function _length(Set storage set) private view returns (uint256) {\\n        return set._values.length;\\n    }\\n\\n   /**\\n    * @dev Returns the value stored at position `index` in the set. O(1).\\n    *\\n    * Note that there are no guarantees on the ordering of values inside the\\n    * array, and it may change when more values are added or removed.\\n    *\\n    * Requirements:\\n    *\\n    * - `index` must be strictly less than {length}.\\n    */\\n    function _at(Set storage set, uint256 index) private view returns (bytes32) {\\n        require(set._values.length > index, \\\"EnumerableSet: index out of bounds\\\");\\n        return set._values[index];\\n    }\\n\\n    // Bytes32Set\\n\\n    struct Bytes32Set {\\n        Set _inner;\\n    }\\n\\n    /**\\n     * @dev Add a value to a set. O(1).\\n     *\\n     * Returns true if the value was added to the set, that is if it was not\\n     * already present.\\n     */\\n    function add(Bytes32Set storage set, bytes32 value) internal returns (bool) {\\n        return _add(set._inner, value);\\n    }\\n\\n    /**\\n     * @dev Removes a value from a set. O(1).\\n     *\\n     * Returns true if the value was removed from the set, that is if it was\\n     * present.\\n     */\\n    function remove(Bytes32Set storage set, bytes32 value) internal returns (bool) {\\n        return _remove(set._inner, value);\\n    }\\n\\n    /**\\n     * @dev Returns true if the value is in the set. O(1).\\n     */\\n    function contains(Bytes32Set storage set, bytes32 value) internal view returns (bool) {\\n        return _contains(set._inner, value);\\n    }\\n\\n    /**\\n     * @dev Returns the number of values in the set. O(1).\\n     */\\n    function length(Bytes32Set storage set) internal view returns (uint256) {\\n        return _length(set._inner);\\n    }\\n\\n   /**\\n    * @dev Returns the value stored at position `index` in the set. O(1).\\n    *\\n    * Note that there are no guarantees on the ordering of values inside the\\n    * array, and it may change when more values are added or removed.\\n    *\\n    * Requirements:\\n    *\\n    * - `index` must be strictly less than {length}.\\n    */\\n    function at(Bytes32Set storage set, uint256 index) internal view returns (bytes32) {\\n        return _at(set._inner, index);\\n    }\\n\\n    // AddressSet\\n\\n    struct AddressSet {\\n        Set _inner;\\n    }\\n\\n    /**\\n     * @dev Add a value to a set. O(1).\\n     *\\n     * Returns true if the value was added to the set, that is if it was not\\n     * already present.\\n     */\\n    function add(AddressSet storage set, address value) internal returns (bool) {\\n        return _add(set._inner, bytes32(uint256(uint160(value))));\\n    }\\n\\n    /**\\n     * @dev Removes a value from a set. O(1).\\n     *\\n     * Returns true if the value was removed from the set, that is if it was\\n     * present.\\n     */\\n    function remove(AddressSet storage set, address value) internal returns (bool) {\\n        return _remove(set._inner, bytes32(uint256(uint160(value))));\\n    }\\n\\n    /**\\n     * @dev Returns true if the value is in the set. O(1).\\n     */\\n    function contains(AddressSet storage set, address value) internal view returns (bool) {\\n        return _contains(set._inner, bytes32(uint256(uint160(value))));\\n    }\\n\\n    /**\\n     * @dev Returns the number of values in the set. O(1).\\n     */\\n    function length(AddressSet storage set) internal view returns (uint256) {\\n        return _length(set._inner);\\n    }\\n\\n   /**\\n    * @dev Returns the value stored at position `index` in the set. O(1).\\n    *\\n    * Note that there are no guarantees on the ordering of values inside the\\n    * array, and it may change when more values are added or removed.\\n    *\\n    * Requirements:\\n    *\\n    * - `index` must be strictly less than {length}.\\n    */\\n    function at(AddressSet storage set, uint256 index) internal view returns (address) {\\n        return address(uint160(uint256(_at(set._inner, index))));\\n    }\\n\\n\\n    // UintSet\\n\\n    struct UintSet {\\n        Set _inner;\\n    }\\n\\n    /**\\n     * @dev Add a value to a set. O(1).\\n     *\\n     * Returns true if the value was added to the set, that is if it was not\\n     * already present.\\n     */\\n    function add(UintSet storage set, uint256 value) internal returns (bool) {\\n        return _add(set._inner, bytes32(value));\\n    }\\n\\n    /**\\n     * @dev Removes a value from a set. O(1).\\n     *\\n     * Returns true if the value was removed from the set, that is if it was\\n     * present.\\n     */\\n    function remove(UintSet storage set, uint256 value) internal returns (bool) {\\n        return _remove(set._inner, bytes32(value));\\n    }\\n\\n    /**\\n     * @dev Returns true if the value is in the set. O(1).\\n     */\\n    function contains(UintSet storage set, uint256 value) internal view returns (bool) {\\n        return _contains(set._inner, bytes32(value));\\n    }\\n\\n    /**\\n     * @dev Returns the number of values on the set. O(1).\\n     */\\n    function length(UintSet storage set) internal view returns (uint256) {\\n        return _length(set._inner);\\n    }\\n\\n   /**\\n    * @dev Returns the value stored at position `index` in the set. O(1).\\n    *\\n    * Note that there are no guarantees on the ordering of values inside the\\n    * array, and it may change when more values are added or removed.\\n    *\\n    * Requirements:\\n    *\\n    * - `index` must be strictly less than {length}.\\n    */\\n    function at(UintSet storage set, uint256 index) internal view returns (uint256) {\\n        return uint256(_at(set._inner, index));\\n    }\\n}\\n\",\"keccak256\":\"0x4878ef6c288f4cef3c2a288d32cc548c648831cc55503ad3d9a581ed3b93aad9\",\"license\":\"MIT\"},\"contracts/contexts2/access-control/reentry/ReentryMods.sol\":{\"content\":\"// SPDX-License-Identifier: MIT\\npragma solidity ^0.8.0;\\n\\nimport { AccessControlStorageLib, AccessControlStorage } from \\\"../storage.sol\\\";\\n\\nabstract contract ReentryMods {\\n    modifier nonReentry(bytes32 id) {\\n        AccessControlStorage storage s = AccessControlStorageLib.store();\\n        require(!s.entered[id], \\\"AccessControl: reentered\\\");\\n        s.entered[id] = true;\\n        _;\\n        s.entered[id] = false;\\n    }\\n}\\n\",\"keccak256\":\"0x033c1164af25ef7d35a38a60973bf379b1cc603596914ffd85dcbcf0acdb6970\",\"license\":\"MIT\"},\"contracts/contexts2/access-control/roles/RolesFacet.sol\":{\"content\":\"// SPDX-License-Identifier: MIT\\npragma solidity ^0.8.0;\\n\\nimport { RolesMods } from \\\"./RolesMods.sol\\\";\\nimport { RolesLib } from \\\"./RolesLib.sol\\\";\\nimport { ADMIN } from \\\"../../../shared/roles.sol\\\";\\n\\ncontract RolesFacet is RolesMods {\\n    /**\\n     * @notice Checks if an account has a specific role.\\n     * @param role Encoding of the role to check.\\n     * @param account Address to check the {role} for.\\n     */\\n    function hasRole(bytes32 role, address account)\\n        external\\n        view\\n        returns (bool)\\n    {\\n        return RolesLib.hasRole(role, account);\\n    }\\n\\n    /**\\n     * @notice Grants an account a new role.\\n     * @param role Encoding of the role to give.\\n     * @param account Address to give the {role} to.\\n     *\\n     * Requirements:\\n     *  - Sender must be role admin.\\n     */\\n    function grantRole(bytes32 role, address account)\\n        external\\n        authorized(ADMIN, msg.sender)\\n    {\\n        RolesLib.grantRole(role, account);\\n    }\\n\\n    /**\\n     * @notice Removes a role from an account.\\n     * @param role Encoding of the role to remove.\\n     * @param account Address to remove the {role} from.\\n     *\\n     * Requirements:\\n     *  - Sender must be role admin.\\n     */\\n    function revokeRole(bytes32 role, address account)\\n        external\\n        authorized(ADMIN, msg.sender)\\n    {\\n        RolesLib.revokeRole(role, account);\\n    }\\n\\n    /**\\n     * @notice Removes a role from the sender.\\n     * @param role Encoding of the role to remove.\\n     */\\n    function renounceRole(bytes32 role) external {\\n        RolesLib.revokeRole(role, msg.sender);\\n    }\\n}\\n\",\"keccak256\":\"0x3d02fb1286754a6da3419c81632d23e9444b1fe8cd64283e15fcb07a9b201815\",\"license\":\"MIT\"},\"contracts/contexts2/access-control/roles/RolesLib.sol\":{\"content\":\"// SPDX-License-Identifier: MIT\\npragma solidity ^0.8.0;\\n\\nimport { AccessControlStorageLib, AccessControlStorage } from \\\"../storage.sol\\\";\\n\\nlibrary RolesLib {\\n    function s() private pure returns (AccessControlStorage storage) {\\n        return AccessControlStorageLib.store();\\n    }\\n\\n    /**\\n     * @dev Emitted when `account` is granted `role`.\\n     */\\n    event RoleGranted(\\n        bytes32 indexed role,\\n        address indexed account,\\n        address indexed sender\\n    );\\n\\n    /**\\n     * @dev Emitted when `account` is revoked `role`.\\n     */\\n    event RoleRevoked(\\n        bytes32 indexed role,\\n        address indexed account,\\n        address indexed sender\\n    );\\n\\n    /**\\n     * @notice Checks if an account has a specific role.\\n     */\\n    function hasRole(bytes32 role, address account)\\n        internal\\n        view\\n        returns (bool)\\n    {\\n        return s().roles[role][account];\\n    }\\n\\n    /**\\n     * @dev Gives an account a new role.\\n     * @dev Should only use when circumventing admin checking.\\n     * @dev If account already has the role, no event is emitted.\\n     * @param role Encoding of the role to give.\\n     * @param account Address to give the {role} to.\\n     */\\n    function grantRole(bytes32 role, address account) internal {\\n        if (hasRole(role, account)) return;\\n        s().roles[role][account] = true;\\n        emit RoleGranted(role, account, msg.sender);\\n    }\\n\\n    /**\\n     * @dev Removes a role from an account.\\n     * @dev Should only use when circumventing admin checking.\\n     * @dev If account does not already have the role, no event is emitted.\\n     * @param role Encoding of the role to remove.\\n     * @param account Address to remove the {role} from.\\n     */\\n    function revokeRole(bytes32 role, address account) internal {\\n        if (!hasRole(role, account)) return;\\n        s().roles[role][account] = false;\\n        emit RoleRevoked(role, account, msg.sender);\\n    }\\n}\\n\",\"keccak256\":\"0x36d0f5db441d2c3db7ee04d84c88ce9b14251cff4387702e96965c51acd1bc84\",\"license\":\"MIT\"},\"contracts/contexts2/access-control/roles/RolesMods.sol\":{\"content\":\"// SPDX-License-Identifier: MIT\\npragma solidity ^0.8.0;\\n\\nimport { RolesLib } from \\\"./RolesLib.sol\\\";\\n\\nabstract contract RolesMods {\\n    /**\\n     * @notice Requires that the {account} has {role}\\n     * @param role Encoding of the role to check.\\n     * @param account Address to check the {role} for.\\n     */\\n    modifier authorized(bytes32 role, address account) {\\n        require(\\n            RolesLib.hasRole(role, account),\\n            \\\"AccessControl: not authorized\\\"\\n        );\\n        _;\\n    }\\n}\\n\",\"keccak256\":\"0x25eeaba823d4fc9c52d82a77cfdb409550ad985fc49b30a5560c1f313c1ca905\",\"license\":\"MIT\"},\"contracts/contexts2/access-control/storage.sol\":{\"content\":\"// SPDX-License-Identifier: MIT\\npragma solidity ^0.8.0;\\n\\nstruct AccessControlStorage {\\n    mapping(bytes32 => mapping(address => bool)) roles;\\n    mapping(address => address) owners;\\n    mapping(bytes32 => bool) entered;\\n}\\n\\nbytes32 constant ACCESS_CONTROL_POS = keccak256(\\n    \\\"teller.access_control.storage\\\"\\n);\\n\\nlibrary AccessControlStorageLib {\\n    function store() internal pure returns (AccessControlStorage storage s) {\\n        bytes32 pos = ACCESS_CONTROL_POS;\\n        assembly {\\n            s.slot := pos\\n        }\\n    }\\n}\\n\",\"keccak256\":\"0xf667fb8d6beb59fc6f37d60ada6b811b5861512fedc661c483b9eca042e96112\",\"license\":\"MIT\"},\"contracts/escrow/dapps/interfaces/DataTypes.sol\":{\"content\":\"// SPDX-License-Identifier: agpl-3.0\\npragma solidity ^0.8.0;\\n\\nlibrary DataTypes {\\n    // refer to the aave whitepaper, section 1.1 basic concepts for a formal description of these properties.\\n    struct ReserveData {\\n        //stores the reserve configuration\\n        ReserveConfigurationMap configuration;\\n        //the liquidity index. Expressed in ray\\n        uint128 liquidityIndex;\\n        //variable borrow index. Expressed in ray\\n        uint128 variableBorrowIndex;\\n        //the current supply rate. Expressed in ray\\n        uint128 currentLiquidityRate;\\n        //the current variable borrow rate. Expressed in ray\\n        uint128 currentVariableBorrowRate;\\n        //the current stable borrow rate. Expressed in ray\\n        uint128 currentStableBorrowRate;\\n        uint40 lastUpdateTimestamp;\\n        //tokens addresses\\n        address aTokenAddress;\\n        address stableDebtTokenAddress;\\n        address variableDebtTokenAddress;\\n        //address of the interest rate strategy\\n        address interestRateStrategyAddress;\\n        //the id of the reserve. Represents the position in the list of the active reserves\\n        uint8 id;\\n    }\\n\\n    struct ReserveConfigurationMap {\\n        //bit 0-15: LTV\\n        //bit 16-31: Liq. threshold\\n        //bit 32-47: Liq. bonus\\n        //bit 48-55: Decimals\\n        //bit 56: Reserve is active\\n        //bit 57: reserve is frozen\\n        //bit 58: borrowing is enabled\\n        //bit 59: stable rate borrowing enabled\\n        //bit 60-63: reserved\\n        //bit 64-79: reserve factor\\n        uint256 data;\\n    }\\n\\n    struct UserConfigurationMap {\\n        uint256 data;\\n    }\\n\\n    enum InterestRateMode { NONE, STABLE, VARIABLE }\\n}\\n\",\"keccak256\":\"0xf4301e0bd269f4662f1c1a0ed4f217cd78d670e43d51a025d55878b972d0a8e7\",\"license\":\"agpl-3.0\"},\"contracts/escrow/dapps/interfaces/IAToken.sol\":{\"content\":\"// SPDX-License-Identifier: agpl-3.0\\npragma solidity ^0.8.0;\\n\\ninterface IAToken {\\n    /**\\n     * @dev Mints `amount` aTokens to `user`\\n     * @param user The address receiving the minted tokens\\n     * @param amount The amount of tokens getting minted\\n     * @param index The new liquidity index of the reserve\\n     * @return `true` if the the previous balance of the user was 0\\n     */\\n    function mint(\\n        address user,\\n        uint256 amount,\\n        uint256 index\\n    ) external returns (bool);\\n\\n    /**\\n     * @dev Burns aTokens from `user` and sends the equivalent amount of underlying to `receiverOfUnderlying`\\n     * @param user The owner of the aTokens, getting them burned\\n     * @param receiverOfUnderlying The address that will receive the underlying\\n     * @param amount The amount being burned\\n     * @param index The new liquidity index of the reserve\\n     **/\\n    function burn(\\n        address user,\\n        address receiverOfUnderlying,\\n        uint256 amount,\\n        uint256 index\\n    ) external;\\n\\n    /**\\n     * @dev Transfers the underlying asset to `target`. Used by the LendingPool to transfer\\n     * assets in borrow(), withdraw() and flashLoan()\\n     * @param user The recipient of the aTokens\\n     * @param amount The amount getting transferred\\n     * @return The amount transferred\\n     **/\\n    function transferUnderlyingTo(address user, uint256 amount)\\n        external\\n        returns (uint256);\\n\\n    /**\\n     * @dev Returns the amount of tokens owned by `account`.\\n     */\\n    function balanceOf(address account) external view returns (uint256);\\n\\n    /**\\n     * @dev Returns the remaining number of tokens that `spender` will be\\n     * allowed to spend on behalf of `owner` through {transferFrom}. This is\\n     * zero by default.\\n     *\\n     * This value changes when {approve} or {transferFrom} are called.\\n     */\\n    function allowance(address owner, address spender)\\n        external\\n        view\\n        returns (uint256);\\n\\n    /**\\n     * @dev Sets `amount` as the allowance of `spender` over the caller's tokens.\\n     *\\n     * Returns a boolean value indicating whether the operation succeeded.\\n     *\\n     * IMPORTANT: Beware that changing an allowance with this method brings the risk\\n     * that someone may use both the old and the new allowance by unfortunate\\n     * transaction ordering. One possible solution to mitigate this race\\n     * condition is to first reduce the spender's allowance to 0 and set the\\n     * desired value afterwards:\\n     * https://github.com/ethereum/EIPs/issues/20#issuecomment-263524729\\n     *\\n     * Emits an {Approval} event.\\n     */\\n    function approve(address spender, uint256 amount) external returns (bool);\\n\\n    /**\\n     * @dev Returns the scaled balance of the user. The scaled balance is the sum of all the\\n     * updated stored balance divided by the reserve's liquidity index at the moment of the update\\n     * @param user The user whose balance is calculated\\n     * @return The scaled balance of the user\\n     **/\\n    function scaledBalanceOf(address user) external view returns (uint256);\\n\\n    /**\\n     * @dev Returns the scaled balance of the user and the scaled total supply.\\n     * @param user The address of the user\\n     * @return The scaled balance of the user\\n     * @return The scaled balance and the scaled total supply\\n     **/\\n    function getScaledUserBalanceAndSupply(address user)\\n        external\\n        view\\n        returns (uint256, uint256);\\n\\n    /**\\n     * @dev Returns the scaled total supply of the variable debt token. Represents sum(debt/index)\\n     * @return The scaled total supply\\n     **/\\n    function scaledTotalSupply() external view returns (uint256);\\n}\\n\",\"keccak256\":\"0xf715e63b83c55fcd3476280a0ab871ed763754b3f5404ec779903652a3e7838e\",\"license\":\"agpl-3.0\"},\"contracts/escrow/dapps/interfaces/IAaveLendingPool.sol\":{\"content\":\"// SPDX-License-Identifier: agpl-3.0\\npragma solidity ^0.8.0;\\n\\nimport \\\"./IAaveLendingPoolAddressesProvider.sol\\\";\\nimport \\\"./DataTypes.sol\\\";\\n\\ninterface IAaveLendingPool {\\n    /**\\n     * @dev Deposits an `amount` of underlying asset into the reserve, receiving in return overlying aTokens.\\n     * - E.g. User deposits 100 USDC and gets in return 100 aUSDC\\n     * @param asset The address of the underlying asset to deposit\\n     * @param amount The amount to be deposited\\n     * @param onBehalfOf The address that will receive the aTokens, same as msg.sender if the user\\n     *   wants to receive them on his own wallet, or a different address if the beneficiary of aTokens\\n     *   is a different wallet\\n     * @param referralCode Code used to register the integrator originating the operation, for potential rewards.\\n     *   0 if the action is executed directly by the user, without any middle-man\\n     **/\\n    function deposit(\\n        address asset,\\n        uint256 amount,\\n        address onBehalfOf,\\n        uint16 referralCode\\n    ) external;\\n\\n    /**\\n     * @dev Withdraws an `amount` of underlying asset from the reserve, burning the equivalent aTokens owned\\n     * E.g. User has 100 aUSDC, calls withdraw() and receives 100 USDC, burning the 100 aUSDC\\n     * @param asset The address of the underlying asset to withdraw\\n     * @param amount The underlying amount to be withdrawn\\n     *   - Send the value type(uint256).max in order to withdraw the whole aToken balance\\n     * @param to Address that will receive the underlying, same as msg.sender if the user\\n     *   wants to receive it on his own wallet, or a different address if the beneficiary is a\\n     *   different wallet\\n     * @return The final amount withdrawn\\n     **/\\n    function withdraw(\\n        address asset,\\n        uint256 amount,\\n        address to\\n    ) external returns (uint256);\\n\\n    /**\\n     * @dev Allows users to borrow a specific `amount` of the reserve underlying asset, provided that the borrower\\n     * already deposited enough collateral, or he was given enough allowance by a credit delegator on the\\n     * corresponding debt token (StableDebtToken or VariableDebtToken)\\n     * - E.g. User borrows 100 USDC passing as `onBehalfOf` his own address, receiving the 100 USDC in his wallet\\n     *   and 100 stable/variable debt tokens, depending on the `interestRateMode`\\n     * @param asset The address of the underlying asset to borrow\\n     * @param amount The amount to be borrowed\\n     * @param interestRateMode The interest rate mode at which the user wants to borrow: 1 for Stable, 2 for Variable\\n     * @param referralCode Code used to register the integrator originating the operation, for potential rewards.\\n     *   0 if the action is executed directly by the user, without any middle-man\\n     * @param onBehalfOf Address of the user who will receive the debt. Should be the address of the borrower itself\\n     * calling the function if he wants to borrow against his own collateral, or the address of the credit delegator\\n     * if he has been given credit delegation allowance\\n     **/\\n    function borrow(\\n        address asset,\\n        uint256 amount,\\n        uint256 interestRateMode,\\n        uint16 referralCode,\\n        address onBehalfOf\\n    ) external;\\n\\n    /**\\n     * @notice Repays a borrowed `amount` on a specific reserve, burning the equivalent debt tokens owned\\n     * - E.g. User repays 100 USDC, burning 100 variable/stable debt tokens of the `onBehalfOf` address\\n     * @param asset The address of the borrowed underlying asset previously borrowed\\n     * @param amount The amount to repay\\n     * - Send the value type(uint256).max in order to repay the whole debt for `asset` on the specific `debtMode`\\n     * @param rateMode The interest rate mode at of the debt the user wants to repay: 1 for Stable, 2 for Variable\\n     * @param onBehalfOf Address of the user who will get his debt reduced/removed. Should be the address of the\\n     * user calling the function if he wants to reduce/remove his own debt, or the address of any other\\n     * other borrower whose debt should be removed\\n     * @return The final amount repaid\\n     **/\\n    function repay(\\n        address asset,\\n        uint256 amount,\\n        uint256 rateMode,\\n        address onBehalfOf\\n    ) external returns (uint256);\\n\\n    /**\\n     * @dev Allows a borrower to swap his debt between stable and variable mode, or viceversa\\n     * @param asset The address of the underlying asset borrowed\\n     * @param rateMode The rate mode that the user wants to swap to\\n     **/\\n    function swapBorrowRateMode(address asset, uint256 rateMode) external;\\n\\n    /**\\n     * @dev Rebalances the stable interest rate of a user to the current stable rate defined on the reserve.\\n     * - Users can be rebalanced if the following conditions are satisfied:\\n     *     1. Usage ratio is above 95%\\n     *     2. the current deposit APY is below REBALANCE_UP_THRESHOLD * maxVariableBorrowRate, which means that too much has been\\n     *        borrowed at a stable rate and depositors are not earning enough\\n     * @param asset The address of the underlying asset borrowed\\n     * @param user The address of the user to be rebalanced\\n     **/\\n    function rebalanceStableBorrowRate(address asset, address user) external;\\n\\n    /**\\n     * @dev Allows depositors to enable/disable a specific deposited asset as collateral\\n     * @param asset The address of the underlying asset deposited\\n     * @param useAsCollateral `true` if the user wants to use the deposit as collateral, `false` otherwise\\n     **/\\n    function setUserUseReserveAsCollateral(address asset, bool useAsCollateral)\\n        external;\\n\\n    /**\\n     * @dev Function to liquidate a non-healthy position collateral-wise, with Health Factor below 1\\n     * - The caller (liquidator) covers `debtToCover` amount of debt of the user getting liquidated, and receives\\n     *   a proportionally amount of the `collateralAsset` plus a bonus to cover market risk\\n     * @param collateralAsset The address of the underlying asset used as collateral, to receive as result of the liquidation\\n     * @param debtAsset The address of the underlying borrowed asset to be repaid with the liquidation\\n     * @param user The address of the borrower getting liquidated\\n     * @param debtToCover The debt amount of borrowed `asset` the liquidator wants to cover\\n     * @param receiveAToken `true` if the liquidators wants to receive the collateral aTokens, `false` if he wants\\n     * to receive the underlying collateral asset directly\\n     **/\\n    function liquidationCall(\\n        address collateralAsset,\\n        address debtAsset,\\n        address user,\\n        uint256 debtToCover,\\n        bool receiveAToken\\n    ) external;\\n\\n    /**\\n     * @dev Allows smartcontracts to access the liquidity of the pool within one transaction,\\n     * as long as the amount taken plus a fee is returned.\\n     * IMPORTANT There are security concerns for developers of flashloan receiver contracts that must be kept into consideration.\\n     * For further details please visit https://developers.aave.com\\n     * @param receiverAddress The address of the contract receiving the funds, implementing the IFlashLoanReceiver interface\\n     * @param assets The addresses of the assets being flash-borrowed\\n     * @param amounts The amounts amounts being flash-borrowed\\n     * @param modes Types of the debt to open if the flash loan is not returned:\\n     *   0 -> Don't open any debt, just revert if funds can't be transferred from the receiver\\n     *   1 -> Open debt at stable rate for the value of the amount flash-borrowed to the `onBehalfOf` address\\n     *   2 -> Open debt at variable rate for the value of the amount flash-borrowed to the `onBehalfOf` address\\n     * @param onBehalfOf The address  that will receive the debt in the case of using on `modes` 1 or 2\\n     * @param params Variadic packed params to pass to the receiver as extra information\\n     * @param referralCode Code used to register the integrator originating the operation, for potential rewards.\\n     *   0 if the action is executed directly by the user, without any middle-man\\n     **/\\n    function flashLoan(\\n        address receiverAddress,\\n        address[] calldata assets,\\n        uint256[] calldata amounts,\\n        uint256[] calldata modes,\\n        address onBehalfOf,\\n        bytes calldata params,\\n        uint16 referralCode\\n    ) external;\\n\\n    /**\\n     * @dev Returns the user account data across all the reserves\\n     * @param user The address of the user\\n     * @return totalCollateralETH the total collateral in ETH of the user\\n     * @return totalDebtETH the total debt in ETH of the user\\n     * @return availableBorrowsETH the borrowing power left of the user\\n     * @return currentLiquidationThreshold the liquidation threshold of the user\\n     * @return ltv the loan to value of the user\\n     * @return healthFactor the current health factor of the user\\n     **/\\n    function getUserAccountData(address user)\\n        external\\n        view\\n        returns (\\n            uint256 totalCollateralETH,\\n            uint256 totalDebtETH,\\n            uint256 availableBorrowsETH,\\n            uint256 currentLiquidationThreshold,\\n            uint256 ltv,\\n            uint256 healthFactor\\n        );\\n\\n    /**\\n     * @dev Returns the configuration of the reserve\\n     * @param asset The address of the underlying asset of the reserve\\n     * @return The configuration of the reserve\\n     **/\\n    function getConfiguration(address asset)\\n        external\\n        view\\n        returns (DataTypes.ReserveConfigurationMap memory);\\n\\n    /**\\n     * @dev Returns the configuration of the user across all the reserves\\n     * @param user The user address\\n     * @return The configuration of the user\\n     **/\\n    function getUserConfiguration(address user)\\n        external\\n        view\\n        returns (DataTypes.UserConfigurationMap memory);\\n\\n    /**\\n     * @dev Returns the normalized income normalized income of the reserve\\n     * @param asset The address of the underlying asset of the reserve\\n     * @return The reserve's normalized income\\n     */\\n    function getReserveNormalizedIncome(address asset)\\n        external\\n        view\\n        returns (uint256);\\n\\n    /**\\n     * @dev Returns the normalized variable debt per unit of asset\\n     * @param asset The address of the underlying asset of the reserve\\n     * @return The reserve normalized variable debt\\n     */\\n    function getReserveNormalizedVariableDebt(address asset)\\n        external\\n        view\\n        returns (uint256);\\n\\n    /**\\n     * @dev Returns the state and configuration of the reserve\\n     * @param asset The address of the underlying asset of the reserve\\n     * @return The state of the reserve\\n     **/\\n    function getReserveData(address asset)\\n        external\\n        view\\n        returns (DataTypes.ReserveData memory);\\n\\n    function finalizeTransfer(\\n        address asset,\\n        address from,\\n        address to,\\n        uint256 amount,\\n        uint256 balanceFromAfter,\\n        uint256 balanceToBefore\\n    ) external;\\n\\n    function getReservesList() external view returns (address[] memory);\\n\\n    function getAddressesProvider()\\n        external\\n        view\\n        returns (IAaveLendingPoolAddressesProvider);\\n\\n    function paused() external view returns (bool);\\n}\\n\",\"keccak256\":\"0x8fb5cf82d1c19d0c61151dfb8cf6f6c2a17a15b63600b75f359fe4e9e3acc23f\",\"license\":\"agpl-3.0\"},\"contracts/escrow/dapps/interfaces/IAaveLendingPoolAddressesProvider.sol\":{\"content\":\"// SPDX-License-Identifier: agpl-3.0\\npragma solidity ^0.8.0;\\n\\n/**\\n * @title LendingPoolAddressesProvider contract\\n * @dev Main registry of addresses part of or connected to the protocol, including permissioned roles\\n * - Acting also as factory of proxies and admin of those, so with right to change its implementations\\n * - Owned by the Aave Governance\\n * @author Aave\\n **/\\ninterface IAaveLendingPoolAddressesProvider {\\n    function getMarketId() external view returns (string memory);\\n\\n    function getAddress(bytes32 id) external view returns (address);\\n\\n    function getLendingPool() external view returns (address);\\n\\n    function getPriceOracle() external view returns (address);\\n\\n    function getLendingRateOracle() external view returns (address);\\n}\\n\",\"keccak256\":\"0x9d21dbefac677da74786c27ad0fe1b148c00df63f7a2616d75c2b97c756007b3\",\"license\":\"agpl-3.0\"},\"contracts/escrow/dapps/interfaces/IVault.sol\":{\"content\":\"// SPDX-License-Identifier: MIT\\npragma solidity ^0.8.0;\\n\\n/**\\n    @notice This interface defines the different functions available for a Yearn Vault\\n    @author develop@teller.finance\\n */\\n\\ninterface IVault {\\n    /**\\n        @notice Returns the unwrapped native token address that the Vault takes as deposit\\n        @return The address of the unwrapped token\\n     */\\n    function token() external view returns (address);\\n\\n    /**\\n        @notice Returns the vault's wrapped token name as a string, example 'yearn Dai Stablecoin'\\n        @return The name of the wrapped token\\n     */\\n    function name() external view returns (string memory);\\n\\n    /**\\n        @notice Returns the vault's wrapped token symbol as a string, example 'yDai'\\n        @return The symbol of the wrapped token\\n     */\\n    function symbol() external view returns (string memory);\\n\\n    /**\\n        @notice Returns the amount of decimals for this vault's wrapped token as a uin8\\n        @return The number of decimals for the token\\n     */\\n    function decimals() external view returns (uint8);\\n\\n    /**\\n     * @dev Returns the amount of tokens owned by `account`.\\n     */\\n    function balanceOf(address account) external view returns (uint256);\\n\\n    /**\\n        @notice Returns the address of the Vault's controller\\n        @return The address of the controller contract\\n     */\\n    function controller() external view returns (address);\\n\\n    /**\\n        @notice Returns the address of the Vault's governance contract\\n        @return The contract address\\n     */\\n    function governance() external view returns (address);\\n\\n    /**\\n        @notice Returns the price of the Vault's wrapped token, denominated in the unwrapped native token\\n        @notice Calculation is: nativeTokenBalance/yTokenTotalSupply,\\n            - nativeTokenBalance is the current balance of the native token (example DAI) in the Vault\\n            - yTokenTotalSupply is the total supply of the Vault's wrapped token (example yDAI)\\n        @return The token price\\n     */\\n    function getPricePerFullShare() external view returns (uint256); // v1 vaults\\n\\n    /**\\n        @notice Returns the price of the Vault's wrapped token, denominated in the unwrapped native token\\n        @notice Calculation is: nativeTokenBalance/yTokenTotalSupply,\\n            - nativeTokenBalance is the current balance of the native token (example DAI) in the Vault\\n            - yTokenTotalSupply is the total supply of the Vault's wrapped token (example yDAI)\\n        @return The token price\\n     */\\n    function getPricePerShare() external view returns (uint256); // v2 vaults\\n\\n    /**\\n        @notice Deposits the specified amount of the native unwrapped token (same as token() returns) into the Vault\\n        @param amountToDeposit The amount of tokens to deposit\\n     */\\n    function deposit(uint256 amountToDeposit) external;\\n\\n    /**\\n        @notice Deposits the maximum available amount of the native wrapped token (same as token()) into the Vault\\n     */\\n    function depositAll() external;\\n\\n    /**\\n        @notice Withdraws the specified amount of the native unwrapped token (same as token() returns) from the Vault\\n        @param amountToWithdraw The amount to withdraw\\n     */\\n    function withdraw(uint256 amountToWithdraw) external;\\n\\n    /**\\n        @notice Withdraws the maximum available amount of native unwrapped token (same as token()) from the Vault\\n     */\\n    function withdrawAll() external;\\n}\\n\",\"keccak256\":\"0x0e2e145747f8745bde77d4741abba1a1edb1dab02e9d467eff60cb881bcffd79\",\"license\":\"MIT\"},\"contracts/escrow/dapps/libraries/LibDapps.sol\":{\"content\":\"// SPDX-License-Identifier: MIT\\npragma solidity ^0.8.0;\\n\\n// Interfaces\\nimport { IERC20 } from \\\"@openzeppelin/contracts/token/ERC20/IERC20.sol\\\";\\nimport { IAToken } from \\\"../interfaces/IAToken.sol\\\";\\nimport { IAaveLendingPool } from \\\"../interfaces/IAaveLendingPool.sol\\\";\\nimport {\\n    IAaveLendingPoolAddressesProvider\\n} from \\\"../interfaces/IAaveLendingPoolAddressesProvider.sol\\\";\\nimport {\\n    IUniswapV2Router\\n} from \\\"../../../shared/interfaces/IUniswapV2Router.sol\\\";\\nimport { IVault } from \\\"../interfaces/IVault.sol\\\";\\n\\n// Libraries\\nimport {\\n    EnumerableSet\\n} from \\\"@openzeppelin/contracts/utils/structs/EnumerableSet.sol\\\";\\n\\n// Storage\\nimport { MarketStorageLib, MarketStorage } from \\\"../../../storage/market.sol\\\";\\nimport { AppStorageLib } from \\\"../../../storage/app.sol\\\";\\n\\nlibrary LibDapps {\\n    function s() internal pure returns (MarketStorage storage) {\\n        return MarketStorageLib.store();\\n    }\\n\\n    /**\\n        @notice Grabs the Aave lending pool instance from the Aave lending pool address provider\\n        @return IAaveLendingPool instance address\\n     */\\n    function getAaveLendingPool() internal view returns (IAaveLendingPool) {\\n        return\\n            IAaveLendingPool(\\n                IAaveLendingPoolAddressesProvider(\\n                    0xB53C1a33016B2DC2fF3653530bfF1848a515c8c5\\n                )\\n                    .getLendingPool()\\n            ); // LP address provider contract is immutable and the address will never change\\n    }\\n\\n    /**\\n        @notice Grabs the aToken instance from the lending pool\\n        @param tokenAddress The underlying asset address to get the aToken for\\n        @return IAToken instance\\n     */\\n    function getAToken(address tokenAddress) internal view returns (IAToken) {\\n        return\\n            IAToken(\\n                getAaveLendingPool().getReserveData(tokenAddress).aTokenAddress\\n            );\\n    }\\n\\n    /**\\n        @notice Grabs the yVault address for a token from the asset settings\\n        @param tokenAddress The underlying token address for the associated yVault\\n        @return yVault instance\\n     */\\n    function getYVault(address tokenAddress) internal view returns (IVault) {\\n        return\\n            IVault(\\n                AppStorageLib.store().assetSettings[tokenAddress].addresses[\\n                    keccak256(\\\"yVaultAddress\\\")\\n                ]\\n            );\\n    }\\n}\\n\",\"keccak256\":\"0x8030b206c87d0073fb7dbebfa2ee8a3e93c479d976d6cdaa0c939f2fedaa1525\",\"license\":\"MIT\"},\"contracts/escrow/escrow/ILoansEscrow.sol\":{\"content\":\"// SPDX-License-Identifier: MIT\\npragma solidity ^0.8.0;\\n\\ninterface ILoansEscrow {\\n    function init() external;\\n\\n    function callDapp(address dappAddress, bytes calldata dappData)\\n        external\\n        returns (bytes memory);\\n\\n    function setTokenAllowance(address token, address spender) external;\\n\\n    function claimToken(\\n        address token,\\n        address to,\\n        uint256 amount\\n    ) external;\\n}\\n\",\"keccak256\":\"0xdaa338698014e6c00edf7a2aca49026a047e253cbe7fc392a73f5f63a063a7f9\",\"license\":\"MIT\"},\"contracts/escrow/libraries/LibEscrow.sol\":{\"content\":\"// SPDX-License-Identifier: MIT\\npragma solidity ^0.8.0;\\n\\n// Libraries\\nimport { LibDapps } from \\\"../dapps/libraries/LibDapps.sol\\\";\\nimport { LibLoans } from \\\"../../market/libraries/LibLoans.sol\\\";\\nimport { PriceAggLib } from \\\"../../price-aggregator/PriceAggLib.sol\\\";\\nimport {\\n    EnumerableSet\\n} from \\\"@openzeppelin/contracts/utils/structs/EnumerableSet.sol\\\";\\n\\n// Interfaces\\nimport { IERC20 } from \\\"@openzeppelin/contracts/token/ERC20/IERC20.sol\\\";\\nimport { ILoansEscrow } from \\\"../escrow/ILoansEscrow.sol\\\";\\n\\n// Storage\\nimport { MarketStorageLib, MarketStorage } from \\\"../../storage/market.sol\\\";\\n\\nlibrary LibEscrow {\\n    function s() internal pure returns (MarketStorage storage) {\\n        return MarketStorageLib.store();\\n    }\\n\\n    function e(uint256 loanID) internal view returns (ILoansEscrow e_) {\\n        e_ = s().loanEscrows[loanID];\\n    }\\n\\n    function getEscrowTokens(uint256 loanID)\\n        internal\\n        view\\n        returns (EnumerableSet.AddressSet storage t_)\\n    {\\n        t_ = s().escrowTokens[loanID];\\n    }\\n\\n    function balanceOf(uint256 loanID, address token)\\n        internal\\n        view\\n        returns (uint256)\\n    {\\n        return IERC20(token).balanceOf(address(e(loanID)));\\n    }\\n\\n    /**\\n     * @notice Adds or removes tokens held by the Escrow contract\\n     * @param loanID The loan ID to update the token list for\\n     * @param tokenAddress The token address to be added or removed\\n     */\\n    function tokenUpdated(uint256 loanID, address tokenAddress) internal {\\n        // Skip if is lending token\\n        if (LibLoans.loan(loanID).lendingToken == tokenAddress) return;\\n\\n        EnumerableSet.AddressSet storage tokens = s().escrowTokens[loanID];\\n        bool contains = EnumerableSet.contains(tokens, tokenAddress);\\n        if (balanceOf(loanID, tokenAddress) > 0) {\\n            if (!contains) {\\n                EnumerableSet.add(tokens, tokenAddress);\\n            }\\n        } else if (contains) {\\n            EnumerableSet.remove(tokens, tokenAddress);\\n        }\\n    }\\n\\n    /**\\n     * @notice Calculate the value of the loan by getting the value of all tokens the Escrow owns.\\n     * @param loanID The loan ID to calculate value for\\n     * @return value_ Escrow total value denoted in the lending token.\\n     */\\n    function calculateTotalValue(uint256 loanID)\\n        internal\\n        view\\n        returns (uint256 value_)\\n    {\\n        address lendingToken = LibLoans.loan(loanID).lendingToken;\\n        value_ += balanceOf(loanID, lendingToken);\\n\\n        EnumerableSet.AddressSet storage tokens = getEscrowTokens(loanID);\\n        if (EnumerableSet.length(tokens) > 0) {\\n            for (uint256 i = 0; i < EnumerableSet.length(tokens); i++) {\\n                uint256 tokenBal =\\n                    balanceOf(loanID, EnumerableSet.at(tokens, i));\\n                value_ += PriceAggLib.valueFor(\\n                    EnumerableSet.at(tokens, i),\\n                    lendingToken,\\n                    tokenBal\\n                );\\n            }\\n        }\\n    }\\n}\\n\",\"keccak256\":\"0xcca97599fff1c1bd608e7f11c4674f325e43781794e91bf5322ac9e0ffd7b3df\",\"license\":\"MIT\"},\"contracts/lending/ttoken/ITToken.sol\":{\"content\":\"// SPDX-License-Identifier: MIT\\npragma solidity ^0.8.0;\\n\\n// Contracts\\nimport {\\n    ERC20Upgradeable\\n} from \\\"@openzeppelin/contracts-upgradeable/token/ERC20/ERC20Upgradeable.sol\\\";\\nimport { ERC20 } from \\\"@openzeppelin/contracts/token/ERC20/ERC20.sol\\\";\\nimport {\\n    RolesFacet\\n} from \\\"../../contexts2/access-control/roles/RolesFacet.sol\\\";\\n\\n/**\\n * @notice This contract acts as an interface for the Teller token (TToken).\\n *\\n * @author develop@teller.finance\\n */\\nabstract contract ITToken is ERC20Upgradeable, RolesFacet {\\n    /**\\n     * @notice This event is emitted when an user deposits tokens into the pool.\\n     */\\n    event Mint(\\n        address indexed sender,\\n        uint256 tTokenAmount,\\n        uint256 underlyingAmount\\n    );\\n\\n    /**\\n     * @notice This event is emitted when an user withdraws tokens from the pool.\\n     */\\n    event Redeem(\\n        address indexed sender,\\n        uint256 tTokenAmount,\\n        uint256 underlyingAmount\\n    );\\n\\n    /**\\n     * @notice The token that is the underlying assets for this Teller token.\\n     */\\n    function underlying() external view virtual returns (ERC20);\\n\\n    /**\\n     * @notice The balance of an {account} denoted in underlying value.\\n     * @param account Address to calculate the underlying balance.\\n     */\\n    function balanceOfUnderlying(address account)\\n        external\\n        virtual\\n        returns (uint256 balance_);\\n\\n    /**\\n     * @notice It calculates the current exchange rate for a whole Teller Token based of the underlying token balance.\\n     * @return rate_ The current exchange rate.\\n     */\\n    function exchangeRate() external virtual returns (uint256 rate_);\\n\\n    /**\\n     * @notice Redeem supplied Teller token underlying value.\\n     * @return totalSupply_ The total value of the underlying token managed by the LP.\\n     */\\n    function totalUnderlyingSupply()\\n        external\\n        virtual\\n        returns (uint256 totalSupply_);\\n\\n    /**\\n     * @notice It calculates the market state values across a given markets.\\n     * @notice Returns values that represent the global state across the market.\\n     * @return totalSupplied Total amount of the underlying asset supplied.\\n     * @return totalBorrowed Total amount borrowed through loans.\\n     * @return totalRepaid The total amount repaid till the current timestamp.\\n     * @return totalInterestRepaid The total amount interest repaid till the current timestamp.\\n     * @return totalOnLoan Total amount currently deployed in loans.\\n     */\\n    function getMarketState()\\n        external\\n        virtual\\n        returns (\\n            uint256 totalSupplied,\\n            uint256 totalBorrowed,\\n            uint256 totalRepaid,\\n            uint256 totalInterestRepaid,\\n            uint256 totalOnLoan\\n        );\\n\\n    /**\\n     * @notice Calculates the current Total Value Locked, denoted in the underlying asset, in the Teller Token pool.\\n     * @return tvl_ The value locked in the pool.\\n     *\\n     * Note: This value includes the amount that is on loan (including ones that were sent to EOAs).\\n     */\\n    function currentTVL() external virtual returns (uint256 tvl_);\\n\\n    /**\\n     * @notice It validates whether supply to debt (StD) ratio is valid including the loan amount.\\n     * @param newLoanAmount the new loan amount to consider o the StD ratio.\\n     * @return ratio_ Whether debt ratio for lending pool is valid.\\n     */\\n    function debtRatioFor(uint256 newLoanAmount)\\n        external\\n        virtual\\n        returns (uint16 ratio_);\\n\\n    /**\\n     * @notice Called by the Teller Diamond contract when a loan has been taken out and requires funds.\\n     * @param recipient The account to send the funds to.\\n     * @param amount Funds requested to fulfil the loan.\\n     */\\n    function fundLoan(address recipient, uint256 amount) external virtual;\\n\\n    /**\\n     * @notice Called by the Teller Diamond contract when a loan has been repaid.\\n     * @param amount Funds deposited back into the pool to repay the principal amount of a loan.\\n     * @param interestAmount Interest value paid into the pool from a loan.\\n     */\\n    function repayLoan(uint256 amount, uint256 interestAmount) external virtual;\\n\\n    /**\\n     * @notice Increase account supply of specified token amount.\\n     * @param amount The amount of underlying tokens to use to mint.\\n     */\\n    function mint(uint256 amount)\\n        external\\n        virtual\\n        returns (uint256 mintAmount_);\\n\\n    /**\\n     * @notice Redeem supplied Teller token underlying value.\\n     * @param amount The amount of Teller tokens to redeem.\\n     */\\n    function redeem(uint256 amount) external virtual;\\n\\n    /**\\n     * @notice Redeem supplied underlying value.\\n     * @param amount The amount of underlying tokens to redeem.\\n     */\\n    function redeemUnderlying(uint256 amount) external virtual;\\n\\n    /**\\n     * @notice Rebalances the funds controlled by Teller Token according to the current strategy.\\n     *\\n     * See {TTokenStrategy}.\\n     */\\n    function rebalance() external virtual;\\n\\n    /**\\n     * @notice Sets a new strategy to use for balancing funds.\\n     * @param strategy Address to the new strategy contract. Must implement the {ITTokenStrategy} interface.\\n     * @param initData Optional data to initialize the strategy.\\n     *\\n     * Requirements:\\n     *  - Sender must have ADMIN role\\n     */\\n    function setStrategy(address strategy, bytes calldata initData)\\n        external\\n        virtual;\\n\\n    /**\\n     * @notice Gets the strategy used for balancing funds.\\n     */\\n    function getStrategy() external view virtual returns (address);\\n\\n    /**\\n     * @notice Sets the restricted state of the platform.\\n     */\\n    function restrict(bool state) external virtual;\\n\\n    function initialize(address admin, address underlying) external virtual;\\n}\\n\",\"keccak256\":\"0xe6515c78e0277edbed82aa6926df727afd216379dd0bfbbb790222654c858499\",\"license\":\"MIT\"},\"contracts/market/LoanDataFacet.sol\":{\"content\":\"// SPDX-License-Identifier: MIT\\npragma solidity ^0.8.0;\\n\\n// Libraries\\nimport { LibLoans } from \\\"./libraries/LibLoans.sol\\\";\\nimport { LibEscrow } from \\\"../escrow/libraries/LibEscrow.sol\\\";\\n\\nimport {\\n    EnumerableSet\\n} from \\\"@openzeppelin/contracts/utils/structs/EnumerableSet.sol\\\";\\n\\n// Storage\\nimport { Loan, LoanDebt, LoanTerms } from \\\"../storage/market.sol\\\";\\n\\ncontract LoanDataFacet {\\n    /**\\n     * @notice Returns the information about the given {loanID}.\\n     * @param loanID The loan ID to get information for.\\n     * @return loan_ The loan data.\\n     */\\n    function getLoan(uint256 loanID) external view returns (Loan memory loan_) {\\n        loan_ = LibLoans.s().loans[loanID];\\n    }\\n\\n    /**\\n     * @notice Returns the terms for a specified loan.\\n     * @param loanID The loan ID to get the total amount owed.\\n     * @return LoanTerms The terms that the loan weer created with.\\n     */\\n    function getLoanTerms(uint256 loanID)\\n        external\\n        view\\n        returns (LoanTerms memory)\\n    {\\n        return LibLoans.terms(loanID);\\n    }\\n\\n    /**\\n     * @notice Returns the loan IDs created by the {borrower} account.\\n     * @param borrower The account to get loan IDs for.\\n     * @return loanIDs The IDs for loans created by the {borrower}\\n     */\\n    function getBorrowerLoans(address borrower)\\n        external\\n        view\\n        returns (uint128[] memory loanIDs)\\n    {\\n        return LibLoans.s().borrowerLoans[borrower];\\n    }\\n\\n    /**\\n     * @notice Returns the debt owed for a specified loan.\\n     * @param loanID The loan ID to get the total amount owed.\\n     * @return LoanDebt The principal and interest owed amount.\\n     */\\n    function getDebtOwed(uint256 loanID)\\n        external\\n        view\\n        returns (LoanDebt memory)\\n    {\\n        return LibLoans.debt(loanID);\\n    }\\n\\n    /**\\n     * @notice Returns the total amount owed for a specified loan.\\n     * @param loanID The loan ID to get the total amount owed.\\n     * @return uint256 The total owed amount.\\n     */\\n    function getTotalOwed(uint256 loanID) external view returns (uint256) {\\n        return LibLoans.getTotalOwed(loanID);\\n    }\\n\\n    /**\\n     * @notice Returns the amount of interest owed for a given loan and loan amount.\\n     * @param loanID The loan ID to get the owed interest.\\n     * @param amountBorrow The principal of the loan to take out.\\n     * @return uint256 The interest owed.\\n     */\\n    function getInterestOwedFor(uint256 loanID, uint256 amountBorrow)\\n        external\\n        view\\n        returns (uint256)\\n    {\\n        return LibLoans.getInterestOwedFor(loanID, amountBorrow);\\n    }\\n\\n    function getCollateralNeededInfo(uint256 loanID)\\n        external\\n        view\\n        returns (\\n            uint256 neededInLendingTokens,\\n            uint256 neededInCollateralTokens,\\n            uint256 escrowLoanValue\\n        )\\n    {\\n        return LibLoans.getCollateralNeededInfo(loanID);\\n    }\\n\\n    function getLoanEscrow(uint256 loanID)\\n        external\\n        view\\n        returns (address escrow_)\\n    {\\n        escrow_ = address(LibLoans.s().loanEscrows[loanID]);\\n    }\\n\\n    function getLoanEscrowValue(uint256 loanID)\\n        external\\n        view\\n        returns (uint256)\\n    {\\n        return LibEscrow.calculateTotalValue(loanID);\\n    }\\n\\n    function getEscrowTokens(uint256 loanID)\\n        external\\n        view\\n        returns (address[] memory tokens_)\\n    {\\n        EnumerableSet.AddressSet storage escrowTokens =\\n            LibEscrow.getEscrowTokens(loanID);\\n        tokens_ = new address[](EnumerableSet.length(escrowTokens));\\n        for (uint256 i; i < tokens_.length; i++) {\\n            tokens_[i] = EnumerableSet.at(escrowTokens, i);\\n        }\\n    }\\n}\\n\",\"keccak256\":\"0xf589a2afff647e5288e15f3f6614135395562b4d12c743402a6504a3fb9b39d6\",\"license\":\"MIT\"},\"contracts/market/RepayFacet.sol\":{\"content\":\"// SPDX-License-Identifier: MIT\\npragma solidity ^0.8.0;\\n\\n// Contracts\\nimport { RolesMods } from \\\"../contexts2/access-control/roles/RolesMods.sol\\\";\\nimport { PausableMods } from \\\"../settings/pausable/PausableMods.sol\\\";\\nimport {\\n    ReentryMods\\n} from \\\"../contexts2/access-control/reentry/ReentryMods.sol\\\";\\nimport { AUTHORIZED } from \\\"../shared/roles.sol\\\";\\nimport { LoanDataFacet } from \\\"./LoanDataFacet.sol\\\";\\n\\n// Libraries\\nimport {\\n    IERC20,\\n    SafeERC20\\n} from \\\"@openzeppelin/contracts/token/ERC20/utils/SafeERC20.sol\\\";\\nimport {\\n    EnumerableSet\\n} from \\\"@openzeppelin/contracts/utils/structs/EnumerableSet.sol\\\";\\nimport { LibLoans } from \\\"./libraries/LibLoans.sol\\\";\\nimport { LibCollateral } from \\\"./libraries/LibCollateral.sol\\\";\\nimport { LibDapps } from \\\"../escrow/dapps/libraries/LibDapps.sol\\\";\\nimport { LibEscrow } from \\\"../escrow/libraries/LibEscrow.sol\\\";\\nimport {\\n    PlatformSettingsLib\\n} from \\\"../settings/platform/libraries/PlatformSettingsLib.sol\\\";\\nimport { NumbersLib } from \\\"../shared/libraries/NumbersLib.sol\\\";\\nimport { PriceAggLib } from \\\"../price-aggregator/PriceAggLib.sol\\\";\\nimport { NFTLib } from \\\"../nft/libraries/NFTLib.sol\\\";\\n\\n// Interfaces\\nimport { ITToken } from \\\"../lending/ttoken/ITToken.sol\\\";\\nimport { ILoansEscrow } from \\\"../escrow/escrow/ILoansEscrow.sol\\\";\\n\\n// Storage\\nimport {\\n    MarketStorageLib,\\n    MarketStorage,\\n    Loan,\\n    LoanStatus\\n} from \\\"../storage/market.sol\\\";\\n\\ncontract RepayFacet is RolesMods, ReentryMods, PausableMods {\\n    /**\\n        @notice This event is emitted when a loan has been successfully repaid\\n        @param loanID ID of loan from which collateral was withdrawn\\n        @param borrower Account address of the borrower\\n        @param amountPaid Amount of the loan paid back\\n        @param payer Account address of the payer\\n        @param totalOwed Total amount of the loan to be repaid\\n     */\\n    event LoanRepaid(\\n        uint256 indexed loanID,\\n        address indexed borrower,\\n        uint256 amountPaid,\\n        address payer,\\n        uint256 totalOwed\\n    );\\n\\n    /**\\n     * @notice This event is emitted when a loan has been successfully liquidated\\n     * @param loanID ID of loan from which collateral was withdrawn\\n     * @param borrower Account address of the borrower\\n     * @param liquidator Account address of the liquidator\\n     * @param reward Value in lending token paid out to liquidator\\n     * @param tokensIn Percentage of the collateral price paid by the liquidator to the lending pool\\n     */\\n    event LoanLiquidated(\\n        uint256 indexed loanID,\\n        address indexed borrower,\\n        address liquidator,\\n        uint256 reward,\\n        uint256 tokensIn\\n    );\\n\\n    /**\\n     * @notice Repay this Escrow's loan.\\n     * @dev If the Escrow's balance of the borrowed token is less than the amount to repay, transfer tokens from the sender's wallet.\\n     * @dev Only the owner of the Escrow can call this. If someone else wants to make a payment, they should call the loan manager directly.\\n     * @param loanID The id of the loan being used.\\n     * @param amount The amount being repaid.\\n     */\\n    function escrowRepay(uint256 loanID, uint256 amount)\\n        external\\n        paused(\\\"\\\", false)\\n        authorized(AUTHORIZED, msg.sender)\\n        nonReentry(\\\"\\\")\\n    {\\n        uint256 balance =\\n            LibEscrow.balanceOf(loanID, LibLoans.loan(loanID).lendingToken);\\n        uint256 totalOwed = LibLoans.getTotalOwed(loanID);\\n        if (balance < totalOwed && amount > balance) {\\n            uint256 amountNeeded =\\n                amount > totalOwed ? totalOwed - (balance) : amount - (balance);\\n\\n            SafeERC20.safeTransferFrom(\\n                IERC20(LibLoans.loan(loanID).lendingToken),\\n                msg.sender,\\n                address(LibEscrow.e(loanID)),\\n                amountNeeded\\n            );\\n        }\\n\\n        __repayLoan(loanID, amount, address(LibEscrow.e(loanID)), false);\\n    }\\n\\n    /**\\n     * @notice Make a payment to a loan\\n     * @param loanID The ID of the loan the payment is for\\n     * @param amount The amount of tokens to pay back to the loan\\n     */\\n    function repayLoan(uint256 loanID, uint256 amount)\\n        external\\n        nonReentry(\\\"\\\")\\n        paused(\\\"\\\", false)\\n        authorized(AUTHORIZED, msg.sender)\\n    {\\n        __repayLoan(loanID, amount, msg.sender, false);\\n    }\\n\\n    function __repayLoan(\\n        uint256 loanID,\\n        uint256 amount,\\n        address sender,\\n        bool isLiquidation\\n    ) private returns (uint256 leftToPay_) {\\n        require(amount > 0, \\\"Teller: zero repay\\\");\\n\\n        // calculate the actual amount to repay\\n        leftToPay_ =\\n            LibLoans.debt(loanID).principalOwed +\\n            LibLoans.debt(loanID).interestOwed;\\n        if (leftToPay_ < amount) {\\n            amount = leftToPay_;\\n            leftToPay_ = 0;\\n        } else {\\n            leftToPay_ -= amount;\\n        }\\n\\n        // Get the Teller token for the loan\\n        ITToken tToken =\\n            MarketStorageLib.store().tTokens[\\n                LibLoans.loan(loanID).lendingToken\\n            ];\\n        // Transfer funds from account\\n        if (address(LibEscrow.e(loanID)) == sender) {\\n            LibEscrow.e(loanID).claimToken(\\n                LibLoans.loan(loanID).lendingToken,\\n                address(tToken),\\n                amount\\n            );\\n        } else {\\n            SafeERC20.safeTransferFrom(\\n                IERC20(LibLoans.loan(loanID).lendingToken),\\n                sender,\\n                address(tToken),\\n                amount\\n            );\\n        }\\n\\n        // Deduct the interest and principal owed\\n        uint256 principalPaid;\\n        uint256 interestPaid;\\n        if (amount < LibLoans.debt(loanID).interestOwed) {\\n            interestPaid = amount;\\n            LibLoans.debt(loanID).interestOwed -= amount;\\n        } else {\\n            if (LibLoans.debt(loanID).interestOwed > 0) {\\n                interestPaid = LibLoans.debt(loanID).interestOwed;\\n                amount -= interestPaid;\\n                LibLoans.debt(loanID).interestOwed = 0;\\n            }\\n\\n            if (amount > 0) {\\n                principalPaid = amount;\\n                LibLoans.debt(loanID).principalOwed -= amount;\\n            }\\n        }\\n\\n        // Tell the Teller Token value has been deposited back into the pool.\\n        tToken.repayLoan(principalPaid, interestPaid);\\n\\n        if (isLiquidation) {\\n            // Make sure there is nothing left to repay on the loan\\n            require(leftToPay_ == 0, \\\"Teller: liquidate partial repay\\\");\\n\\n            // Set loan status\\n            LibLoans.loan(loanID).status = LoanStatus.Liquidated;\\n\\n            // Transfer NFT if linked\\n            NFTLib.liquidateNFT(loanID);\\n        } else {\\n            // if the loan is now fully paid, close it and withdraw borrower collateral\\n            if (leftToPay_ == 0) {\\n                LibLoans.loan(loanID).status = LoanStatus.Closed;\\n                LibCollateral.withdrawAll(\\n                    loanID,\\n                    LibLoans.loan(loanID).borrower\\n                );\\n                // Restake any NFTs linked to loan for borrower\\n                NFTLib.restakeLinked(loanID, LibLoans.loan(loanID).borrower);\\n            }\\n\\n            emit LoanRepaid(\\n                loanID,\\n                LibLoans.loan(loanID).borrower,\\n                amount,\\n                msg.sender,\\n                leftToPay_\\n            );\\n        }\\n    }\\n\\n    /**\\n     * @notice Liquidate a loan if it is expired or under collateralized\\n     * @param loanID The ID of the loan to be liquidated\\n     */\\n    function liquidateLoan(uint256 loanID)\\n        external\\n        nonReentry(\\\"\\\")\\n        paused(\\\"\\\", false)\\n        authorized(AUTHORIZED, msg.sender)\\n    {\\n        Loan storage loan = LibLoans.loan(loanID);\\n        uint256 collateralAmount = LibCollateral.e(loanID).loanSupply(loanID);\\n        require(\\n            RepayLib.isLiquidable(loanID, collateralAmount),\\n            \\\"Teller: does not need liquidation\\\"\\n        );\\n\\n        // Calculate the reward before repaying the loan\\n        (uint256 rewardInLending, uint256 collateralInLending) =\\n            RepayLib.getLiquidationReward(loanID, collateralAmount);\\n\\n        // The liquidator pays the amount still owed on the loan\\n        uint256 amountToLiquidate =\\n            LibLoans.debt(loanID).principalOwed +\\n                LibLoans.debt(loanID).interestOwed;\\n\\n        __repayLoan(loanID, amountToLiquidate, msg.sender, true);\\n\\n        // Payout the liquidator reward owed\\n        if (rewardInLending > 0) {\\n            RepayLib.payOutLiquidator(\\n                loanID,\\n                rewardInLending,\\n                collateralInLending,\\n                collateralAmount,\\n                payable(msg.sender)\\n            );\\n        }\\n\\n        emit LoanLiquidated(\\n            loanID,\\n            loan.borrower,\\n            msg.sender,\\n            rewardInLending,\\n            amountToLiquidate\\n        );\\n    }\\n\\n    /**\\n     * @notice It gets the current liquidation reward for a given loan.\\n     * @param loanID The loan ID to get the info.\\n     * @return inLending_ The value the liquidator will receive denoted in lending tokens.\\n     * @return inCollateral_ The value the liquidator will receive denoted in collateral tokens.\\n     */\\n    function getLiquidationReward(uint256 loanID)\\n        external\\n        view\\n        returns (uint256 inLending_, uint256 inCollateral_)\\n    {\\n        (inLending_, ) = RepayLib.getLiquidationReward(\\n            loanID,\\n            LibCollateral.e(loanID).loanSupply(loanID)\\n        );\\n        inCollateral_ = PriceAggLib.valueFor(\\n            LibLoans.loan(loanID).lendingToken,\\n            LibLoans.loan(loanID).collateralToken,\\n            inLending_\\n        );\\n    }\\n}\\n\\nlibrary RepayLib {\\n    /**\\n     * @notice It checks if a loan can be liquidated.\\n     * @param loanID The loan ID to check.\\n     * @return true if the loan is liquidable.\\n     */\\n    function isLiquidable(uint256 loanID, uint256 collateralAmount)\\n        internal\\n        view\\n        returns (bool)\\n    {\\n        Loan storage loan = LibLoans.loan(loanID);\\n        // Check if loan can be liquidated\\n        if (loan.status != LoanStatus.Active) {\\n            return false;\\n        }\\n\\n        if (loan.collateralRatio > 0) {\\n            // If loan has a collateral ratio, check how much is needed\\n            (, uint256 neededInCollateral, ) =\\n                LoanDataFacet(address(this)).getCollateralNeededInfo(loanID);\\n            if (neededInCollateral > collateralAmount) {\\n                return true;\\n            }\\n        }\\n\\n        // Otherwise, check if the loan has expired\\n        return block.timestamp >= loan.loanStartTime + loan.duration;\\n    }\\n\\n    /**\\n     * @notice It gets the current liquidation reward for a given loan.\\n     * @param loanID The loan ID to get the info.\\n     * @param collateralAmount The amount of collateral for the {loanID}. Passed in to save gas calling the collateral escrow multiple times.\\n     * @return reward_ The value the liquidator will receive denoted in lending tokens.\\n     */\\n    function getLiquidationReward(uint256 loanID, uint256 collateralAmount)\\n        internal\\n        view\\n        returns (uint256 reward_, uint256 collateralValue_)\\n    {\\n        uint256 amountToLiquidate =\\n            LibLoans.debt(loanID).principalOwed +\\n                LibLoans.debt(loanID).interestOwed;\\n\\n        // Max reward is amount repaid on loan plus extra percentage\\n        uint256 maxReward =\\n            amountToLiquidate +\\n                NumbersLib.percent(\\n                    amountToLiquidate,\\n                    uint16(PlatformSettingsLib.getLiquidateRewardPercent())\\n                );\\n\\n        // Calculate available collateral for reward\\n        if (collateralAmount > 0) {\\n            collateralValue_ = PriceAggLib.valueFor(\\n                LibLoans.loan(loanID).collateralToken,\\n                LibLoans.loan(loanID).lendingToken,\\n                collateralAmount\\n            );\\n            reward_ += collateralValue_;\\n        }\\n\\n        // Calculate loan escrow value if collateral not enough to cover reward\\n        if (reward_ < maxReward) {\\n            reward_ += LibEscrow.calculateTotalValue(loanID);\\n        }\\n\\n        // Cap the reward to max\\n        if (reward_ > maxReward) {\\n            reward_ = maxReward;\\n        }\\n    }\\n\\n    /**\\n     * @notice Checks if the loan has an Escrow and claims any tokens then pays out the loan collateral.\\n     * @dev See Escrow.claimTokens for more info.\\n     * @param loanID The loan ID which is being liquidated\\n     * @param rewardInLending The total amount of reward based in the lending token to pay the liquidator\\n     * @param collateralInLending The amount of collateral that is available for the loan denoted in lending tokens\\n     * @param collateralAmount The amount of collateral that is available for the loan\\n     * @param liquidator The address of the liquidator where the liquidation reward will be sent to\\n     */\\n    function payOutLiquidator(\\n        uint256 loanID,\\n        uint256 rewardInLending,\\n        uint256 collateralInLending,\\n        uint256 collateralAmount,\\n        address payable liquidator\\n    ) internal {\\n        require(\\n            LibLoans.loan(loanID).status == LoanStatus.Liquidated,\\n            \\\"Teller: loan not liquidated\\\"\\n        );\\n\\n        if (rewardInLending <= collateralInLending) {\\n            uint256 rewardInCollateral =\\n                PriceAggLib.valueFor(\\n                    LibLoans.loan(loanID).lendingToken,\\n                    LibLoans.loan(loanID).collateralToken,\\n                    rewardInLending\\n                );\\n\\n            LibCollateral.withdraw(loanID, rewardInCollateral, liquidator);\\n        } else {\\n            // Payout whats available in the collateral token\\n            LibCollateral.withdraw(loanID, collateralAmount, liquidator);\\n\\n            // Claim remaining reward value from the loan escrow\\n            claimEscrowTokensByValue(\\n                loanID,\\n                liquidator,\\n                rewardInLending - collateralInLending\\n            );\\n        }\\n    }\\n\\n    /**\\n     * @dev Send the equivalent of tokens owned by the loan escrow (in lending value) to the recipient,\\n     * @param loanID The loan ID to clam tokens from\\n     * @param recipient address to send the tokens to\\n     * @param value The value of escrow held tokens to be claimed based in lending value\\n     */\\n    function claimEscrowTokensByValue(\\n        uint256 loanID,\\n        address recipient,\\n        uint256 value\\n    ) private {\\n        EnumerableSet.AddressSet storage tokens =\\n            MarketStorageLib.store().escrowTokens[loanID];\\n        uint256 valueLeftToTransfer = value;\\n\\n        // Start with the lending token\\n        valueLeftToTransfer = claimEscrowToken(\\n            loanID,\\n            LibLoans.loan(loanID).lendingToken,\\n            recipient,\\n            valueLeftToTransfer\\n        );\\n\\n        // Cycle through remaining tokens\\n        for (uint256 i = 0; i < EnumerableSet.length(tokens); i++) {\\n            if (valueLeftToTransfer == 0) {\\n                return;\\n            }\\n\\n            valueLeftToTransfer = claimEscrowToken(\\n                loanID,\\n                EnumerableSet.at(tokens, i),\\n                recipient,\\n                valueLeftToTransfer\\n            );\\n        }\\n    }\\n\\n    function claimEscrowToken(\\n        uint256 loanID,\\n        address token,\\n        address recipient,\\n        uint256 valueLeftToTransfer\\n    ) private returns (uint256) {\\n        uint256 balance = LibEscrow.balanceOf(loanID, token);\\n        // get value of token balance in lending value\\n        if (balance > 0) {\\n            // If token not the lending token, get value of token\\n            uint256 balanceInLending;\\n            if (token == LibLoans.loan(loanID).lendingToken) {\\n                balanceInLending = balance;\\n            } else {\\n                balanceInLending = PriceAggLib.valueFor(\\n                    token,\\n                    LibLoans.loan(loanID).lendingToken,\\n                    balance\\n                );\\n            }\\n\\n            if (balanceInLending <= valueLeftToTransfer) {\\n                LibEscrow.e(loanID).claimToken(token, recipient, balance);\\n                valueLeftToTransfer -= balanceInLending;\\n            } else {\\n                // Token balance is more than enough so calculate ratio of balance to transfer\\n                uint256 valueToTransfer;\\n                if (token == LibLoans.loan(loanID).lendingToken) {\\n                    valueToTransfer = valueLeftToTransfer;\\n                } else {\\n                    valueToTransfer = NumbersLib.percent(\\n                        balance,\\n                        NumbersLib.ratioOf(\\n                            valueLeftToTransfer,\\n                            balanceInLending\\n                        )\\n                    );\\n                }\\n\\n                LibEscrow.e(loanID).claimToken(\\n                    token,\\n                    recipient,\\n                    valueToTransfer\\n                );\\n                valueLeftToTransfer = 0;\\n            }\\n        }\\n\\n        return valueLeftToTransfer;\\n    }\\n}\\n\",\"keccak256\":\"0xdfcd62dbcda7ba0ce92718d72d6cab3f7c78178d9ac9de6b04640124d43bf4cc\",\"license\":\"MIT\"},\"contracts/market/collateral/ICollateralEscrow.sol\":{\"content\":\"// SPDX-License-Identifier: MIT\\npragma solidity ^0.8.0;\\n\\ninterface ICollateralEscrow {\\n    function init(address tokenAddress, bool isWETH) external;\\n\\n    function deposit(uint256 loanID, uint256 amount) external payable;\\n\\n    function withdraw(\\n        uint256 loanID,\\n        uint256 amount,\\n        address payable receiver\\n    ) external;\\n\\n    function loanSupply(uint256 loanID) external view returns (uint256 supply_);\\n\\n    function totalSupply() external view returns (uint256 supply_);\\n}\\n\",\"keccak256\":\"0x3c83593b5521e85c7f62076b41869cd5a762b34523ac39fc23b4ea1b9042aa59\",\"license\":\"MIT\"},\"contracts/market/libraries/LibCollateral.sol\":{\"content\":\"// SPDX-License-Identifier: MIT\\npragma solidity ^0.8.0;\\n\\n// Interfaces\\nimport { IERC20 } from \\\"@openzeppelin/contracts/token/ERC20/ERC20.sol\\\";\\nimport { ICollateralEscrow } from \\\"../collateral/ICollateralEscrow.sol\\\";\\n\\n// Storage\\nimport { AppStorageLib } from \\\"../../storage/app.sol\\\";\\nimport { MarketStorageLib } from \\\"../../storage/market.sol\\\";\\n\\nlibrary LibCollateral {\\n    /**\\n     * @notice This event is emitted when collateral has been deposited for the loan\\n     * @param loanID ID of the loan for which collateral was deposited\\n     * @param depositor Account that deposited funds\\n     * @param amount Amount of collateral deposited\\n     */\\n    event CollateralDeposited(\\n        uint256 indexed loanID,\\n        address indexed depositor,\\n        uint256 amount\\n    );\\n\\n    /**\\n     * @notice This event is emitted when collateral has been withdrawn\\n     * @param loanID ID of loan from which collateral was withdrawn\\n     * @param receiver Account that received funds\\n     * @param amount Value of collateral withdrawn\\n     */\\n    event CollateralWithdrawn(\\n        uint256 indexed loanID,\\n        address indexed receiver,\\n        uint256 amount\\n    );\\n\\n    function e(uint256 loanID) internal view returns (ICollateralEscrow c_) {\\n        c_ = MarketStorageLib.store().collateralEscrows[\\n            MarketStorageLib.store().loans[loanID].collateralToken\\n        ];\\n    }\\n\\n    function e(address token) internal view returns (ICollateralEscrow c_) {\\n        c_ = MarketStorageLib.store().collateralEscrows[token];\\n    }\\n\\n    function deposit(uint256 loanID, uint256 amount) internal {\\n        e(loanID).deposit{ value: amount }(loanID, amount);\\n\\n        emit CollateralDeposited(loanID, msg.sender, amount);\\n    }\\n\\n    function withdraw(\\n        uint256 loanID,\\n        uint256 amount,\\n        address payable receiver\\n    ) internal {\\n        e(loanID).withdraw(loanID, amount, receiver);\\n\\n        emit CollateralWithdrawn(loanID, receiver, amount);\\n    }\\n\\n    function withdrawAll(uint256 loanID, address payable receiver) internal {\\n        withdraw(loanID, e(loanID).loanSupply(loanID), receiver);\\n    }\\n\\n    function createEscrow(address token) internal {\\n        // Check if collateral escrow exists\\n        if (address(e(token)) == address(0)) {\\n            // Create escrow\\n            address escrow =\\n                AppStorageLib.store().collateralEscrowBeacon.cloneProxy(\\\"\\\");\\n            ICollateralEscrow(escrow).init(\\n                token,\\n                // Check if collateral token is WETH\\n                token == AppStorageLib.store().assetAddresses[\\\"WETH\\\"]\\n            );\\n\\n            // Set max allowance\\n            IERC20(token).approve(escrow, type(uint256).max);\\n            // Save escrow address for loan\\n            MarketStorageLib.store().collateralEscrows[\\n                token\\n            ] = ICollateralEscrow(escrow);\\n        }\\n    }\\n}\\n\",\"keccak256\":\"0xd52b3e577480481b62d6a6c37f4ef596b7ec0120afbd6bc1a08b17923b926445\",\"license\":\"MIT\"},\"contracts/market/libraries/LibLoans.sol\":{\"content\":\"// SPDX-License-Identifier: MIT\\npragma solidity ^0.8.0;\\n\\n// Libraries\\nimport { LibEscrow } from \\\"../../escrow/libraries/LibEscrow.sol\\\";\\nimport { NumbersLib } from \\\"../../shared/libraries/NumbersLib.sol\\\";\\nimport {\\n    PlatformSettingsLib\\n} from \\\"../../settings/platform/libraries/PlatformSettingsLib.sol\\\";\\nimport { PriceAggLib } from \\\"../../price-aggregator/PriceAggLib.sol\\\";\\n\\n// Storage\\nimport {\\n    MarketStorageLib,\\n    MarketStorage,\\n    Loan,\\n    LoanStatus,\\n    LoanDebt,\\n    LoanTerms\\n} from \\\"../../storage/market.sol\\\";\\n\\nlibrary LibLoans {\\n    using NumbersLib for int256;\\n    using NumbersLib for uint256;\\n\\n    bytes32 internal constant ID = keccak256(\\\"LOANS\\\");\\n    uint32 internal constant SECONDS_PER_YEAR = 31536000;\\n\\n    function s() internal pure returns (MarketStorage storage) {\\n        return MarketStorageLib.store();\\n    }\\n\\n    function loan(uint256 loanID) internal view returns (Loan storage l_) {\\n        l_ = s().loans[loanID];\\n    }\\n\\n    function debt(uint256 loanID) internal view returns (LoanDebt storage d_) {\\n        d_ = s().loanDebt[loanID];\\n    }\\n\\n    function terms(uint256 loanID)\\n        internal\\n        view\\n        returns (LoanTerms storage t_)\\n    {\\n        t_ = s().loanTerms[loanID];\\n    }\\n\\n    /**\\n     * @notice Returns the total amount owed for a specified loan.\\n     * @param loanID The loan ID to get the total amount owed.\\n     * @return uint256 The total owed amount.\\n     */\\n    function getTotalOwed(uint256 loanID) internal view returns (uint256) {\\n        if (loan(loanID).status == LoanStatus.TermsSet) {\\n            uint256 interestOwed =\\n                getInterestOwedFor(loanID, terms(loanID).maxLoanAmount);\\n            return terms(loanID).maxLoanAmount + (interestOwed);\\n        } else if (loan(loanID).status == LoanStatus.Active) {\\n            return debt(loanID).principalOwed + (debt(loanID).interestOwed);\\n        }\\n        return 0;\\n    }\\n\\n    /**\\n     * @notice Returns the amount of interest owed for a given loan and loan amount.\\n     * @param loanID The loan ID to get the owed interest.\\n     * @param amountBorrow The principal of the loan to take out.\\n     * @return uint256 The interest owed.\\n     */\\n    function getInterestOwedFor(uint256 loanID, uint256 amountBorrow)\\n        internal\\n        view\\n        returns (uint256)\\n    {\\n        return amountBorrow.percent(uint16(getInterestRatio(loanID)));\\n    }\\n\\n    function getCollateralNeededInfo(uint256 loanID)\\n        internal\\n        view\\n        returns (\\n            uint256 neededInLendingTokens,\\n            uint256 neededInCollateralTokens,\\n            uint256 escrowLoanValue\\n        )\\n    {\\n        (neededInLendingTokens, escrowLoanValue) = getCollateralNeededInTokens(\\n            loanID\\n        );\\n\\n        if (neededInLendingTokens == 0) {\\n            neededInCollateralTokens = 0;\\n        } else {\\n            neededInCollateralTokens = PriceAggLib.valueFor(\\n                loan(loanID).lendingToken,\\n                loan(loanID).collateralToken,\\n                neededInLendingTokens\\n            );\\n        }\\n    }\\n\\n    /**\\n     * @notice Returns the minimum collateral value threshold, in the lending token, needed to take out the loan or for it be liquidated.\\n     * @dev If the loan status is TermsSet, then the value is whats needed to take out the loan.\\n     * @dev If the loan status is Active, then the value is the threshold at which the loan can be liquidated at.\\n     * @param loanID The loan ID to get needed collateral info for.\\n     * @return neededInLendingTokens int256 The minimum collateral value threshold required.\\n     * @return escrowLoanValue uint256 The value of the loan held in the escrow contract.\\n     */\\n    function getCollateralNeededInTokens(uint256 loanID)\\n        internal\\n        view\\n        returns (uint256 neededInLendingTokens, uint256 escrowLoanValue)\\n    {\\n        if (!_isActiveOrSet(loanID) || loan(loanID).collateralRatio == 0) {\\n            return (0, 0);\\n        }\\n\\n        /*\\n            The collateral to principal owed ratio is the sum of:\\n                * collateral buffer percent\\n                * loan interest rate\\n                * liquidation reward percent\\n                * X factor of additional collateral\\n        */\\n        // * To take out a loan (if status == TermsSet), the required collateral is (max loan amount * the collateral ratio).\\n        // * For the loan to not be liquidated (when status == Active), the minimum collateral is (principal owed * (X collateral factor + liquidation reward)).\\n        // * If the loan has an escrow account, the minimum collateral is ((principal owed - escrow value) * (X collateral factor + liquidation reward)).\\n        if (loan(loanID).status == LoanStatus.TermsSet) {\\n            neededInLendingTokens = _getLoanAmount(loanID).percent(\\n                loan(loanID).collateralRatio\\n            );\\n        } else {\\n            uint16 requiredRatio =\\n                loan(loanID).collateralRatio -\\n                    getInterestRatio(loanID) -\\n                    uint16(PlatformSettingsLib.getCollateralBufferValue());\\n\\n            neededInLendingTokens =\\n                debt(loanID).principalOwed +\\n                debt(loanID).interestOwed;\\n            escrowLoanValue = LibEscrow.calculateTotalValue(loanID);\\n            if (\\n                escrowLoanValue > 0 && neededInLendingTokens > escrowLoanValue\\n            ) {\\n                neededInLendingTokens -= escrowLoanValue;\\n            }\\n            neededInLendingTokens = neededInLendingTokens.percent(\\n                requiredRatio\\n            );\\n        }\\n    }\\n\\n    function canGoToEOAWithCollateralRatio(uint256 collateralRatio)\\n        internal\\n        view\\n        returns (bool)\\n    {\\n        return\\n            collateralRatio >=\\n            PlatformSettingsLib.getOverCollateralizedBufferValue();\\n    }\\n\\n    /**\\n     * @notice Returns the interest ratio based on the loan interest rate for the loan duration.\\n     * @notice There is a minimum threshold of 1%.\\n     * @dev The interest rate on the loan terms is APY.\\n     * @param loanID The loan ID to get the interest rate for.\\n     */\\n    function getInterestRatio(uint256 loanID)\\n        internal\\n        view\\n        returns (uint16 ratio_)\\n    {\\n        ratio_ = uint16(\\n            (uint64(loan(loanID).duration) * loan(loanID).interestRate) /\\n                SECONDS_PER_YEAR\\n        );\\n\\n        if (ratio_ == 0) {\\n            ratio_ = 1;\\n        }\\n    }\\n\\n    function _getLoanAmount(uint256 loanID) private view returns (uint256) {\\n        if (loan(loanID).status == LoanStatus.TermsSet) {\\n            return terms(loanID).maxLoanAmount;\\n        } else if (loan(loanID).status == LoanStatus.Active) {\\n            return loan(loanID).borrowedAmount;\\n        }\\n        return 0;\\n    }\\n\\n    function _isActiveOrSet(uint256 loanID) private view returns (bool) {\\n        LoanStatus status = loan(loanID).status;\\n        return status == LoanStatus.Active || status == LoanStatus.TermsSet;\\n    }\\n}\\n\",\"keccak256\":\"0x9bf9fae5b01110da7c5a5d2517fdea6aa880d5c1647ba6125c68cafad278499b\",\"license\":\"MIT\"},\"contracts/nft/ITellerNFT.sol\":{\"content\":\"// SPDX-License-Identifier: MIT\\npragma solidity ^0.8.0;\\npragma experimental ABIEncoderV2;\\n\\n// Interfaces\\nimport \\\"@openzeppelin/contracts/token/ERC721/extensions/IERC721Metadata.sol\\\";\\n\\ninterface ITellerNFT {\\n    struct Tier {\\n        uint256 baseLoanSize;\\n        string[] hashes;\\n        address contributionAsset;\\n        uint256 contributionSize;\\n        uint8 contributionMultiplier;\\n    }\\n\\n    /**\\n     * @notice The contract metadata URI.\\n     */\\n    function contractURI() external view returns (string memory);\\n\\n    /**\\n     * @notice It returns information about a Tier for a token ID.\\n     * @param index Tier index to get info.\\n     */\\n    function getTier(uint256 index) external view returns (Tier memory tier_);\\n\\n    /**\\n     * @notice It returns information about a Tier for a token ID.\\n     * @param tokenId ID of the token to get Tier info.\\n     */\\n    function getTokenTier(uint256 tokenId)\\n        external\\n        view\\n        returns (uint256 index_, Tier memory tier_);\\n\\n    /**\\n     * @notice It returns an array of token IDs owned by an address.\\n     * @dev It uses a EnumerableSet to store values and loops over each element to add to the array.\\n     * @dev Can be costly if calling within a contract for address with many tokens.\\n     */\\n    function getTierHashes(uint256 tierIndex)\\n        external\\n        view\\n        returns (string[] memory hashes_);\\n\\n    /**\\n     * @notice It returns an array of token IDs owned by an address.\\n     * @dev It uses a EnumerableSet to store values and loops over each element to add to the array.\\n     * @dev Can be costly if calling within a contract for address with many tokens.\\n     */\\n    function getOwnedTokens(address owner)\\n        external\\n        view\\n        returns (uint256[] memory owned);\\n\\n    /**\\n     * @notice It mints a new token for a Tier index.\\n     *\\n     * Requirements:\\n     *  - Caller must be an authorized minter\\n     */\\n    function mint(uint256 tierIndex, address owner) external;\\n\\n    /**\\n     * @notice Adds a new Tier to be minted with the given information.\\n     * @dev It auto increments the index of the next tier to add.\\n     * @param newTier Information about the new tier to add.\\n     *\\n     * Requirements:\\n     *  - Caller must have the {MINTER} role\\n     */\\n    function addTier(Tier memory newTier) external;\\n\\n    /**\\n     * @notice Sets the contract level metadata URI hash.\\n     * @param contractURIHash The hash to the initial contract level metadata.\\n     */\\n    function setContractURIHash(string memory contractURIHash) external;\\n\\n    /**\\n     * @notice Initializes the TellerNFT.\\n     * @param minters The addresses that should allowed to mint tokens.\\n     */\\n    function initialize(address[] calldata minters) external;\\n}\\n\",\"keccak256\":\"0x7c788b94c175b70eec6b10bfe0655616fc0beb2ce3ef70a6fa750f291d35106c\",\"license\":\"MIT\"},\"contracts/nft/TellerNFT.sol\":{\"content\":\"// SPDX-License-Identifier: MIT\\npragma solidity ^0.8.0;\\npragma experimental ABIEncoderV2;\\n\\n// Contracts\\nimport \\\"@openzeppelin/contracts-upgradeable/token/ERC721/ERC721Upgradeable.sol\\\";\\nimport \\\"@openzeppelin/contracts-upgradeable/access/AccessControlUpgradeable.sol\\\";\\n\\n// Libraries\\nimport \\\"@openzeppelin/contracts/utils/Counters.sol\\\";\\nimport \\\"@openzeppelin/contracts/utils/structs/EnumerableSet.sol\\\";\\nimport \\\"@openzeppelin/contracts/utils/math/SafeMath.sol\\\";\\n\\n// Interfaces\\nimport \\\"./ITellerNFT.sol\\\";\\n\\n/*****************************************************************************************************/\\n/**                                             WARNING                                             **/\\n/**                                  THIS CONTRACT IS UPGRADEABLE!                                  **/\\n/**  ---------------------------------------------------------------------------------------------  **/\\n/**  Do NOT change the order of or PREPEND any storage variables to this or new versions of this    **/\\n/**  contract as this will cause the the storage slots to be overwritten on the proxy contract!!    **/\\n/**                                                                                                 **/\\n/**  Visit https://docs.openzeppelin.com/upgrades/2.6/proxies#upgrading-via-the-proxy-pattern for   **/\\n/**  more information.                                                                              **/\\n/*****************************************************************************************************/\\n/**\\n * @notice This contract is used by borrowers to call Dapp functions (using delegate calls).\\n * @notice This contract should only be constructed using it's upgradeable Proxy contract.\\n * @notice In order to call a Dapp function, the Dapp must be added in the DappRegistry instance.\\n *\\n * @author develop@teller.finance\\n */\\ncontract TellerNFT is ITellerNFT, ERC721Upgradeable, AccessControlUpgradeable {\\n    using Counters for Counters.Counter;\\n    using EnumerableSet for EnumerableSet.UintSet;\\n    using SafeMath for uint256;\\n\\n    /* Constants */\\n\\n    bytes32 public constant ADMIN = keccak256(\\\"ADMIN\\\");\\n    bytes32 public constant MINTER = keccak256(\\\"MINTER\\\");\\n\\n    /* State Variables */\\n\\n    // It holds the total number of tiers.\\n    Counters.Counter internal _tierCounter;\\n\\n    // It holds the total number of tokens minted.\\n    Counters.Counter internal _tokenCounter;\\n\\n    // It holds the information about a tier.\\n    mapping(uint256 => Tier) internal _tiers;\\n\\n    // It holds which tier a token ID is in.\\n    mapping(uint256 => uint256) internal _tokenTier;\\n\\n    // It holds a set of token IDs for an owner address.\\n    mapping(address => EnumerableSet.UintSet) internal _ownerTokenIDs;\\n\\n    // Link to the contract metadata\\n    string private _metadataBaseURI;\\n\\n    // Hash to the contract metadata located on the {_metadataBaseURI}\\n    string private _contractURIHash;\\n\\n    /* Modifiers */\\n\\n    modifier onlyAdmin() {\\n        require(hasRole(ADMIN, _msgSender()), \\\"TellerNFT: not admin\\\");\\n        _;\\n    }\\n\\n    modifier onlyMinter() {\\n        require(hasRole(MINTER, _msgSender()), \\\"TellerNFT: not minter\\\");\\n        _;\\n    }\\n\\n    /* External Functions */\\n\\n    /**\\n     * @notice It returns information about a Tier for a token ID.\\n     * @param index Tier index to get info.\\n     */\\n    function getTier(uint256 index)\\n        external\\n        view\\n        override\\n        returns (Tier memory tier_)\\n    {\\n        tier_ = _tiers[index];\\n    }\\n\\n    /**\\n     * @notice It returns information about a Tier for a token ID.\\n     * @param tokenId ID of the token to get Tier info.\\n     */\\n    function getTokenTier(uint256 tokenId)\\n        external\\n        view\\n        override\\n        returns (uint256 index_, Tier memory tier_)\\n    {\\n        index_ = _tokenTier[tokenId];\\n        tier_ = _tiers[index_];\\n    }\\n\\n    /**\\n     * @notice It returns an array of token IDs owned by an address.\\n     * @dev It uses a EnumerableSet to store values and loops over each element to add to the array.\\n     * @dev Can be costly if calling within a contract for address with many tokens.\\n     */\\n    function getTierHashes(uint256 tierIndex)\\n        external\\n        view\\n        override\\n        returns (string[] memory hashes_)\\n    {\\n        hashes_ = _tiers[tierIndex].hashes;\\n    }\\n\\n    /**\\n     * @notice It returns an array of token IDs owned by an address.\\n     * @dev It uses a EnumerableSet to store values and loops over each element to add to the array.\\n     * @dev Can be costly if calling within a contract for address with many tokens.\\n     */\\n    function getOwnedTokens(address owner)\\n        external\\n        view\\n        override\\n        returns (uint256[] memory owned_)\\n    {\\n        EnumerableSet.UintSet storage set = _ownerTokenIDs[owner];\\n        owned_ = new uint256[](set.length());\\n        for (uint256 i; i < owned_.length; i++) {\\n            owned_[i] = set.at(i);\\n        }\\n    }\\n\\n    /**\\n     * @notice The contract metadata URI.\\n     */\\n    function contractURI() external view override returns (string memory) {\\n        return _contractURIHash;\\n    }\\n\\n    /**\\n     * @notice The token URI is based on the token ID.\\n     */\\n    function tokenURI(uint256 tokenId)\\n        public\\n        view\\n        override\\n        returns (string memory)\\n    {\\n        require(_exists(tokenId), \\\"TellerNFT: URI query for nonexistent token\\\");\\n\\n        string memory baseURI = _baseURI();\\n        return\\n            bytes(baseURI).length > 0\\n                ? string(abi.encodePacked(baseURI, _tokenURIHash(tokenId)))\\n                : \\\"\\\";\\n    }\\n\\n    /**\\n     * @notice It mints a new token for a Tier index.\\n     * @param tierIndex Tier to mint token on.\\n     * @param owner The owner of the new token.\\n     *\\n     * Requirements:\\n     *  - Caller must be an authorized minter\\n     */\\n    function mint(uint256 tierIndex, address owner)\\n        external\\n        override\\n        onlyMinter\\n    {\\n        // Get the new token ID\\n        uint256 tokenId = _tokenCounter.current();\\n        _tokenCounter.increment();\\n\\n        // Mint and set the token to the tier index\\n        _safeMint(owner, tokenId);\\n        _tokenTier[tokenId] = tierIndex;\\n\\n        // Set owner\\n        _setOwner(owner, tokenId);\\n    }\\n\\n    /**\\n     * @notice Adds a new Tier to be minted with the given information.\\n     * @dev It auto increments the index of the next tier to add.\\n     * @param newTier Information about the new tier to add.\\n     *\\n     * Requirements:\\n     *  - Caller must have the {MINTER} role\\n     */\\n    function addTier(Tier memory newTier) external override onlyMinter {\\n        Tier storage tier = _tiers[_tierCounter.current()];\\n\\n        tier.baseLoanSize = newTier.baseLoanSize;\\n        tier.hashes = newTier.hashes;\\n        tier.contributionAsset = newTier.contributionAsset;\\n        tier.contributionSize = newTier.contributionSize;\\n        tier.contributionMultiplier = newTier.contributionMultiplier;\\n\\n        _tierCounter.increment();\\n    }\\n\\n    function removeMinter(address minter) external onlyMinter {\\n        revokeRole(MINTER, minter);\\n    }\\n\\n    function addMinter(address minter) public onlyMinter {\\n        _setupRole(MINTER, minter);\\n    }\\n\\n    /**\\n     * @notice Sets the contract level metadata URI hash.\\n     * @param contractURIHash The hash to the initial contract level metadata.\\n     */\\n    function setContractURIHash(string memory contractURIHash)\\n        external\\n        override\\n        onlyAdmin\\n    {\\n        _contractURIHash = contractURIHash;\\n    }\\n\\n    /**\\n     * @notice Initializes the TellerNFT.\\n     * @param minters The addresses that should allowed to mint tokens.\\n     */\\n    function initialize(address[] calldata minters)\\n        external\\n        override\\n        initializer\\n    {\\n        __ERC721_init(\\\"Teller NFT\\\", \\\"TNFT\\\");\\n        __AccessControl_init();\\n\\n        for (uint256 i; i < minters.length; i++) {\\n            _setupRole(MINTER, minters[i]);\\n        }\\n\\n        _metadataBaseURI = \\\"https://gateway.pinata.cloud/ipfs/\\\";\\n        _contractURIHash = \\\"QmWAfQFFwptzRUCdF2cBFJhcB2gfHJMd7TQt64dZUysk3R\\\";\\n    }\\n\\n    function supportsInterface(bytes4 interfaceId)\\n        public\\n        view\\n        override(AccessControlUpgradeable, ERC721Upgradeable)\\n        returns (bool)\\n    {\\n        return\\n            interfaceId == type(ITellerNFT).interfaceId ||\\n            ERC721Upgradeable.supportsInterface(interfaceId) ||\\n            AccessControlUpgradeable.supportsInterface(interfaceId);\\n    }\\n\\n    /**\\n     * @notice It returns the hash to use for the token URI.\\n     */\\n    function _tokenURIHash(uint256 tokenId)\\n        internal\\n        view\\n        returns (string memory)\\n    {\\n        string[] storage tierImageHashes = _tiers[_tokenTier[tokenId]].hashes;\\n        return tierImageHashes[tokenId.mod(tierImageHashes.length)];\\n    }\\n\\n    /**\\n     * @notice The base URI path where the token media is hosted.\\n     * @dev Base URI for computing {tokenURI}.\\n     */\\n    function _baseURI() internal view override returns (string memory) {\\n        return _metadataBaseURI;\\n    }\\n\\n    /**\\n     * @notice Moves token to new owner set and then transfers.\\n     */\\n    function _transfer(\\n        address from,\\n        address to,\\n        uint256 tokenId\\n    ) internal override {\\n        _setOwner(to, tokenId);\\n        super._transfer(from, to, tokenId);\\n    }\\n\\n    /**\\n     * @notice It removes the token from the current owner set and adds to new owner.\\n     */\\n    function _setOwner(address newOwner, uint256 tokenId) internal {\\n        address currentOwner = ownerOf(tokenId);\\n        if (currentOwner != address(0)) {\\n            _ownerTokenIDs[currentOwner].remove(tokenId);\\n        }\\n        _ownerTokenIDs[newOwner].add(tokenId);\\n    }\\n\\n    function _msgData() internal pure override returns (bytes calldata) {\\n        return msg.data;\\n    }\\n}\\n\",\"keccak256\":\"0x39fd6d70fd1aa5ae45465d7eeb38f74e2bf90535c2510782fb0bb5f720250ac5\",\"license\":\"MIT\"},\"contracts/nft/libraries/NFTLib.sol\":{\"content\":\"// SPDX-License-Identifier: MIT\\npragma solidity ^0.8.0;\\n\\n// Contracts\\nimport { TellerNFT } from \\\"../TellerNFT.sol\\\";\\n\\n// Libraries\\nimport {\\n    MerkleProof\\n} from \\\"@openzeppelin/contracts/utils/cryptography/MerkleProof.sol\\\";\\nimport {\\n    EnumerableSet\\n} from \\\"@openzeppelin/contracts/utils/structs/EnumerableSet.sol\\\";\\n\\n// Storage\\nimport { AppStorageLib, AppStorage } from \\\"../../storage/app.sol\\\";\\nimport { NFTStorageLib, NFTStorage } from \\\"../../storage/nft.sol\\\";\\n\\nstruct NftLoanSizeProof {\\n    uint256 id;\\n    uint256 baseLoanSize;\\n    bytes32[] proof;\\n}\\n\\nlibrary NFTLib {\\n    function s() internal pure returns (NFTStorage storage s_) {\\n        s_ = NFTStorageLib.store();\\n    }\\n\\n    function nft() internal view returns (TellerNFT nft_) {\\n        nft_ = AppStorageLib.store().nft;\\n    }\\n\\n    function stake(uint256 nftID, address owner) internal {\\n        // Transfer to diamond\\n        NFTLib.nft().transferFrom(msg.sender, address(this), nftID);\\n        // Add NFT ID to user set\\n        EnumerableSet.add(s().stakedNFTs[owner], nftID);\\n    }\\n\\n    function unstake(uint256 nftID) internal returns (bool success_) {\\n        success_ = EnumerableSet.remove(s().stakedNFTs[msg.sender], nftID);\\n    }\\n\\n    function stakedNFTs(address nftOwner)\\n        internal\\n        view\\n        returns (uint256[] memory staked_)\\n    {\\n        EnumerableSet.UintSet storage nfts = s().stakedNFTs[nftOwner];\\n        staked_ = new uint256[](EnumerableSet.length(nfts));\\n        for (uint256 i; i < staked_.length; i++) {\\n            staked_[i] = EnumerableSet.at(nfts, i);\\n        }\\n    }\\n\\n    function liquidateNFT(uint256 loanID) internal {\\n        // Check if NFTs are linked\\n        EnumerableSet.UintSet storage nfts = s().loanNFTs[loanID];\\n        for (uint256 i; i < EnumerableSet.length(nfts); i++) {\\n            NFTLib.nft().transferFrom(\\n                address(this),\\n                AppStorageLib.store().nftLiquidationController,\\n                EnumerableSet.at(nfts, i)\\n            );\\n        }\\n    }\\n\\n    function applyToLoan(uint256 loanID, NftLoanSizeProof calldata proof)\\n        internal\\n    {\\n        // NFT must be currently staked\\n        // Remove NFT from being staked - returns bool\\n        require(unstake(proof.id), \\\"Teller: borrower nft not staked\\\");\\n\\n        require(verifyLoanSize(proof), \\\"Teller invalid nft proof\\\");\\n\\n        // Apply NFT to loan\\n        EnumerableSet.add(s().loanNFTs[loanID], proof.id);\\n    }\\n\\n    function restakeLinked(uint256 loanID, address owner) internal {\\n        // Get linked NFT\\n        EnumerableSet.UintSet storage nfts = s().loanNFTs[loanID];\\n        for (uint256 i; i < EnumerableSet.length(nfts); i++) {\\n            // Restake the NFT\\n            EnumerableSet.add(s().stakedNFTs[owner], EnumerableSet.at(nfts, i));\\n        }\\n    }\\n\\n    function verifyLoanSize(NftLoanSizeProof calldata proof)\\n        internal\\n        view\\n        returns (bool verified_)\\n    {\\n        verified_ = MerkleProof.verify(\\n            proof.proof,\\n            s().nftMerkleRoot,\\n            keccak256(abi.encodePacked(proof.id, proof.baseLoanSize))\\n        );\\n    }\\n}\\n\",\"keccak256\":\"0x99ba27095901d86a4d1e1b9ec3a603fbbf7c67ada2ccd11cd5ed0435e5c3c66d\",\"license\":\"MIT\"},\"contracts/price-aggregator/PriceAggFacet.sol\":{\"content\":\"// SPDX-License-Identifier: MIT\\npragma solidity ^0.8.0;\\n\\n// Libraries\\nimport { SafeCast } from \\\"@openzeppelin/contracts/utils/math/SafeCast.sol\\\";\\nimport { ChainlinkLib } from \\\"./chainlink/ChainlinkLib.sol\\\";\\nimport { CompoundLib } from \\\"../shared/libraries/CompoundLib.sol\\\";\\n\\n// Interfaces\\nimport {\\n    AggregatorV2V3Interface\\n} from \\\"@chainlink/contracts/src/v0.8/interfaces/AggregatorV2V3Interface.sol\\\";\\nimport { ERC20 } from \\\"@openzeppelin/contracts/token/ERC20/ERC20.sol\\\";\\n\\n// Storage\\nimport { AppStorageLib } from \\\"../storage/app.sol\\\";\\n\\ncontract PriceAggFacet {\\n    uint256 internal constant TEN = 10;\\n\\n    /**\\n     * @notice It returns the price of the token pair as given from the Chainlink Aggregator.\\n     * @dev It tries to use ETH as a pass through asset if the direct pair is not supported.\\n     * @param src Source token address.\\n     * @param dst Destination token address.\\n     * @return int256 The latest answer as given from Chainlink.\\n     */\\n    function getPriceFor(address src, address dst)\\n        external\\n        view\\n        returns (int256)\\n    {\\n        return _priceFor(src, dst);\\n    }\\n\\n    /**\\n     * @notice It calculates the value of a token amount into another.\\n     * @param src Source token address.\\n     * @param dst Destination token address.\\n     * @param srcAmount Amount of the source token to convert into the destination token.\\n     * @return uint256 Value of the source token amount in destination tokens.\\n     */\\n    function getValueFor(\\n        address src,\\n        address dst,\\n        uint256 srcAmount\\n    ) external view returns (uint256) {\\n        return _valueFor(src, srcAmount, uint256(_priceFor(src, dst)));\\n    }\\n\\n    function _valueFor(\\n        address src,\\n        uint256 amount,\\n        uint256 exchangeRate\\n    ) internal view returns (uint256) {\\n        return (amount * exchangeRate) / _oneToken(src);\\n    }\\n\\n    function _oneToken(address token) internal view returns (uint256) {\\n        return TEN**_decimalsFor(token);\\n    }\\n\\n    /**\\n     * @dev It gets the number of decimals for a given token.\\n     * @param addr Token address to get decimals for.\\n     * @return uint8 Number of decimals the given token.\\n     */\\n    function _decimalsFor(address addr) internal view returns (uint8) {\\n        return ERC20(addr).decimals();\\n    }\\n\\n    /**\\n     * @dev Tries to calculate a price from Compound and Chainlink.\\n     */\\n    function _priceFor(address src, address dst)\\n        private\\n        view\\n        returns (int256 price_)\\n    {\\n        // If no Compound route, try Chainlink directly.\\n        price_ = int256(_compoundPriceFor(src, dst));\\n        if (price_ == 0) {\\n            price_ = _chainlinkPriceFor(src, dst);\\n            if (price_ == 0) {\\n                revert(\\\"Teller: cannot calc price\\\");\\n            }\\n        }\\n    }\\n\\n    /**\\n     * @dev Tries to get a price from {src} to {dst} by checking if either tokens are from Compound.\\n     */\\n    function _compoundPriceFor(address src, address dst)\\n        private\\n        view\\n        returns (uint256)\\n    {\\n        (bool isSrcCompound, address srcUnderlying) = _isCToken(src);\\n        if (isSrcCompound) {\\n            uint256 cRate = CompoundLib.valueInUnderlying(src, _oneToken(src));\\n            if (srcUnderlying == dst) {\\n                return cRate;\\n            } else {\\n                return _calcPriceFromCompoundRate(srcUnderlying, dst, cRate);\\n            }\\n        } else {\\n            (bool isDstCompound, address dstUnderlying) = _isCToken(dst);\\n            if (isDstCompound) {\\n                uint256 cRate =\\n                    CompoundLib.valueOfUnderlying(dst, _oneToken(src));\\n                if (dstUnderlying == src) {\\n                    return cRate;\\n                } else {\\n                    return\\n                        _calcPriceFromCompoundRate(src, dstUnderlying, cRate);\\n                }\\n            }\\n        }\\n\\n        return 0;\\n    }\\n\\n    /**\\n     * @dev Tries to get a price from {src} to {dst} and then converts using a rate from Compound.\\n     */\\n    function _calcPriceFromCompoundRate(\\n        address src,\\n        address dst,\\n        uint256 cRate\\n    ) private view returns (uint256) {\\n        uint256 rate = uint256(_chainlinkPriceFor(src, dst));\\n        uint256 value = (cRate * _oneToken(dst)) / rate;\\n        return _scale(value, _decimalsFor(src), _decimalsFor(dst));\\n    }\\n\\n    /**\\n     * @dev Scales the {value} by the difference in decimal values.\\n     */\\n    function _scale(\\n        uint256 value,\\n        uint256 srcDecimals,\\n        uint256 dstDecimals\\n    ) internal pure returns (uint256) {\\n        if (dstDecimals > srcDecimals) {\\n            return value * (TEN**(dstDecimals - srcDecimals));\\n        } else {\\n            return value / (TEN**(srcDecimals - dstDecimals));\\n        }\\n    }\\n\\n    /**\\n     * @dev Tries to calculate the price of {src} in {dst}\\n     */\\n    function _chainlinkPriceFor(address src, address dst)\\n        private\\n        view\\n        returns (int256)\\n    {\\n        (address agg, bool foundAgg, bool inverse) =\\n            ChainlinkLib.aggregatorFor(src, dst);\\n        if (foundAgg) {\\n            uint256 price =\\n                SafeCast.toUint256(AggregatorV2V3Interface(agg).latestAnswer());\\n            uint8 resDecimals = AggregatorV2V3Interface(agg).decimals();\\n            if (inverse) {\\n                price = (TEN**(resDecimals + resDecimals)) / price;\\n            }\\n            return\\n                SafeCast.toInt256(\\n                    (_scale(price, resDecimals, _decimalsFor(dst)))\\n                );\\n        } else {\\n            address WETH = AppStorageLib.store().assetAddresses[\\\"WETH\\\"];\\n            if (dst != WETH) {\\n                int256 price1 = _priceFor(src, WETH);\\n                if (price1 > 0) {\\n                    int256 price2 = _priceFor(dst, WETH);\\n                    if (price2 > 0) {\\n                        uint256 dstFactor = TEN**_decimalsFor(dst);\\n                        return (price1 * int256(dstFactor)) / price2;\\n                    }\\n                }\\n            }\\n        }\\n\\n        return 0;\\n    }\\n\\n    function _isCToken(address token)\\n        private\\n        view\\n        returns (bool isCToken, address underlying)\\n    {\\n        isCToken = CompoundLib.isCompoundToken(token);\\n        if (isCToken) {\\n            underlying = CompoundLib.getUnderlying(token);\\n        }\\n    }\\n}\\n\",\"keccak256\":\"0xf84fd8d9a179ca7a70e75677870bdd7a5be7da097cf5f1bccf1c9f93253bda90\",\"license\":\"MIT\"},\"contracts/price-aggregator/PriceAggLib.sol\":{\"content\":\"// SPDX-License-Identifier: MIT\\npragma solidity ^0.8.0;\\n\\nimport { PriceAggFacet } from \\\"./PriceAggFacet.sol\\\";\\n\\n// Storage\\nimport { AppStorageLib } from \\\"../storage/app.sol\\\";\\n\\n/**\\n * @notice Helper functions to staticcall into the PriceAggFacet from other facets. See {PriceAggFacet.getPriceFor}\\n */\\nlibrary PriceAggLib {\\n    /**\\n     * @notice See {PriceAggFacet.getValueFor}\\n     */\\n    function valueFor(\\n        address src,\\n        address dst,\\n        uint256 srcAmount\\n    ) internal view returns (uint256 value_) {\\n        value_ = PriceAggFacet(address(this)).getValueFor(src, dst, srcAmount);\\n    }\\n\\n    /**\\n     * @notice See {PriceAggFacet.getPriceFor}\\n     */\\n    function priceFor(address src, address dst)\\n        internal\\n        view\\n        returns (int256 price_)\\n    {\\n        price_ = PriceAggFacet(address(this)).getPriceFor(src, dst);\\n    }\\n}\\n\",\"keccak256\":\"0x510633e39e7a30533d703eb7ec314c037772721fdb7cea96046cd6837bcb76c3\",\"license\":\"MIT\"},\"contracts/price-aggregator/chainlink/ChainlinkLib.sol\":{\"content\":\"// SPDX-License-Identifier: MIT\\npragma solidity ^0.8.0;\\n\\n// Libraries\\nimport {\\n    EnumerableSet\\n} from \\\"@openzeppelin/contracts/utils/structs/EnumerableSet.sol\\\";\\n\\n// Storage\\nimport {\\n    PriceAggStorageLib,\\n    ChainlinkAggStorage\\n} from \\\"../../storage/price-aggregator.sol\\\";\\n\\nlibrary ChainlinkLib {\\n    function s() internal view returns (ChainlinkAggStorage storage) {\\n        return PriceAggStorageLib.store().chainlink;\\n    }\\n\\n    /**\\n     * @notice It grabs the Chainlink Aggregator contract address for the token pair if it is supported.\\n     * @param src Source token address.\\n     * @param dst Destination token address.\\n     * @return aggregator The Chainlink Aggregator address.\\n     * @return found whether or not the ChainlinkAggregator exists.\\n     * @return inverse whether or not the values from the Aggregator should be considered inverted.\\n     */\\n    function aggregatorFor(address src, address dst)\\n        internal\\n        view\\n        returns (\\n            address aggregator,\\n            bool found,\\n            bool inverse\\n        )\\n    {\\n        aggregator = s().aggregators[src][dst];\\n        if (aggregator != address(0)) {\\n            found = true;\\n        } else {\\n            aggregator = s().aggregators[dst][src];\\n            if (aggregator != address(0)) {\\n                found = true;\\n                inverse = true;\\n            }\\n        }\\n    }\\n\\n    /**\\n     * @dev Checks if a token address is supported by Chainlink (has a pair aggregator).\\n     * @param token Token address to check if is supported.\\n     * @return isSupported_ true if there is at least 1 pair aggregator for {token}\\n     */\\n    function isTokenSupported(address token)\\n        internal\\n        view\\n        returns (bool isSupported_)\\n    {\\n        isSupported_ = EnumerableSet.contains(s().supportedTokens, token);\\n    }\\n}\\n\",\"keccak256\":\"0x84fcff4e22dcf0a954794b08f4a5e66cb0b9522a74cccb7d80c07e7032440f42\",\"license\":\"MIT\"},\"contracts/settings/pausable/PausableMods.sol\":{\"content\":\"// SPDX-License-Identifier: MIT\\npragma solidity ^0.8.0;\\n\\nimport { AppStorageLib } from \\\"../../storage/app.sol\\\";\\n\\nabstract contract PausableMods {\\n    /**\\n     * @notice Requires that the state of the protocol AND the given facet id equal {state}.\\n     * @param id id of the facet to check if is paused.\\n     * @param state Boolean that the protocol AND facet should be in.\\n     */\\n    modifier paused(bytes32 id, bool state) {\\n        require(\\n            __isPaused(\\\"\\\") == state && __isPaused(id) == state,\\n            __pausedMessage(state)\\n        );\\n        _;\\n    }\\n\\n    /**\\n     * @dev Checks if the given id is paused.\\n     * @param id Encoded id of the facet to check if is paused.\\n     */\\n    function __isPaused(bytes32 id) private view returns (bool) {\\n        return AppStorageLib.store().paused[id];\\n    }\\n\\n    /**\\n     * @dev Gets the message that should be reverted with given a state it should be in.\\n     * @param state Boolean that an id should be in.\\n     */\\n    function __pausedMessage(bool state) private pure returns (string memory) {\\n        return state ? \\\"Pausable: not paused\\\" : \\\"Pausable: paused\\\";\\n    }\\n}\\n\",\"keccak256\":\"0x772d8b9b63e9b8e78f243a70988f1a1e1100272cf317259ea173829f7b9bdf0e\",\"license\":\"MIT\"},\"contracts/settings/platform/libraries/PlatformSettingsLib.sol\":{\"content\":\"// SPDX-License-Identifier: MIT\\npragma solidity ^0.8.0;\\n\\nimport { AppStorageLib } from \\\"../../../storage/app.sol\\\";\\nimport \\\"../names.sol\\\" as NAMES;\\nimport {\\n    RolesMods\\n} from \\\"../../../contexts2/access-control/roles/RolesMods.sol\\\";\\nimport { ADMIN, AUTHORIZED } from \\\"../../../shared/roles.sol\\\";\\nimport { RolesLib } from \\\"../../../contexts2/access-control/roles/RolesLib.sol\\\";\\n\\n// It defines a platform settings. It includes: value, min, and max values.\\nstruct PlatformSetting {\\n    uint256 value;\\n    uint256 min;\\n    uint256 max;\\n    bool exists;\\n}\\n\\n/**\\n * @notice Utility library of inline functions on the PlatformSetting struct.\\n *\\n * @author develop@teller.finance\\n */\\nlibrary PlatformSettingsLib {\\n    function s(bytes32 name) internal view returns (PlatformSetting storage) {\\n        return AppStorageLib.store().platformSettings[name];\\n    }\\n\\n    /**\\n     * @notice It gets the current \\\"RequiredSubmissionsPercentage\\\" setting's value\\n     * @return value_ the current value.\\n     */\\n    function getRequiredSubmissionsPercentageValue()\\n        internal\\n        view\\n        returns (uint256 value_)\\n    {\\n        value_ = s(NAMES.REQUIRED_SUBMISSIONS_PERCENTAGE).value;\\n    }\\n\\n    /**\\n     * @notice It gets the current \\\"MaximumTolerance\\\" setting's value\\n     * @return value_ the current value.\\n     */\\n    function getMaximumToleranceValue() internal view returns (uint256 value_) {\\n        value_ = s(NAMES.MAXIMUM_TOLERANCE).value;\\n    }\\n\\n    /**\\n     * @notice It gets the current \\\"ResponseExpiryLength\\\" setting's value\\n     * @return value_ the current value.\\n     */\\n    function getResponseExpiryLengthValue()\\n        internal\\n        view\\n        returns (uint256 value_)\\n    {\\n        value_ = s(NAMES.RESPONSE_EXPIRY_LENGTH).value;\\n    }\\n\\n    /**\\n     * @notice It gets the current \\\"SafetyInterval\\\" setting's value\\n     * @return value_ the current value.\\n     */\\n    function getSafetyIntervalValue() internal view returns (uint256 value_) {\\n        value_ = s(NAMES.SAFETY_INTERVAL).value;\\n    }\\n\\n    /**\\n     * @notice It gets the current \\\"TermsExpiryTime\\\" setting's value\\n     * @return value_ the current value.\\n     */\\n    function getTermsExpiryTimeValue() internal view returns (uint256 value_) {\\n        value_ = s(NAMES.TERMS_EXPIRY_TIME).value;\\n    }\\n\\n    /**\\n     * @notice It gets the current \\\"LiquidateRewardPercent\\\" setting's value\\n     * @return value_ the current value.\\n     */\\n    function getLiquidateRewardPercent()\\n        internal\\n        view\\n        returns (uint256 value_)\\n    {\\n        value_ = s(NAMES.LIQUIDATE_REWARD_PERCENT).value;\\n    }\\n\\n    /**\\n     * @notice It gets the current \\\"MaximumLoanDuration\\\" setting's value\\n     * @return value_ the current value.\\n     */\\n    function getMaximumLoanDurationValue()\\n        internal\\n        view\\n        returns (uint256 value_)\\n    {\\n        value_ = s(NAMES.MAXIMUM_LOAN_DURATION).value;\\n    }\\n\\n    /**\\n     * @notice It gets the current \\\"RequestLoanTermsRateLimit\\\" setting's value\\n     * @return value_ the current value.\\n     */\\n    function getRequestLoanTermsRateLimitValue()\\n        internal\\n        view\\n        returns (uint256 value_)\\n    {\\n        value_ = s(NAMES.REQUEST_LOAN_TERMS_RATE_LIMIT).value;\\n    }\\n\\n    /**\\n     * @notice It gets the current \\\"CollateralBuffer\\\" setting's value\\n     * @return value_ the current value.\\n     */\\n    function getCollateralBufferValue() internal view returns (uint256 value_) {\\n        value_ = s(NAMES.COLLATERAL_BUFFER).value;\\n    }\\n\\n    /**\\n     * @notice It gets the current \\\"OverCollateralizedBuffer\\\" setting's value\\n     * @return value_ the current value.\\n     */\\n    function getOverCollateralizedBufferValue()\\n        internal\\n        view\\n        returns (uint256 value_)\\n    {\\n        value_ = s(NAMES.OVER_COLLATERALIZED_BUFFER).value;\\n    }\\n}\\n\",\"keccak256\":\"0xbeef1937dc1ed1f6f78b80f0737f018565ab264184cf05ef54c3c28ecd55a09b\",\"license\":\"MIT\"},\"contracts/settings/platform/names.sol\":{\"content\":\"// SPDX-License-Identifier: MIT\\npragma solidity ^0.8.0;\\n\\n/**\\n        @dev The setting name for the required subsmission settings.\\n        @dev This is the minimum percentage of node responses that will be required by the platform to either take out a loan, and to claim accrued interest. If the number of node responses are less than the ones specified here, the loan or accrued interest claim request will be rejected by the platform\\n     */\\nbytes32 constant REQUIRED_SUBMISSIONS_PERCENTAGE = keccak256(\\n    \\\"RequiredSubmissionsPercentage\\\"\\n);\\n\\n/**\\n        @dev The setting name for the maximum tolerance settings.\\n        @dev This is the maximum tolerance for the values submitted (by nodes) when they are aggregated (average). It is used in the consensus mechanisms.\\n        @dev This is a percentage value with 2 decimal places.\\n            i.e. maximumTolerance of 325 => tolerance of 3.25% => 0.0325 of value\\n            i.e. maximumTolerance of 0 => It means all the values submitted must be equals.\\n        @dev The max value is 100% => 10000\\n     */\\nbytes32 constant MAXIMUM_TOLERANCE = keccak256(\\\"MaximumTolerance\\\");\\n/**\\n        @dev The setting name for the response expiry length settings.\\n        @dev This is the maximum time (in seconds) a node has to submit a response. After that time, the response is considered expired and will not be accepted by the protocol.\\n     */\\n\\nbytes32 constant RESPONSE_EXPIRY_LENGTH = keccak256(\\\"ResponseExpiryLength\\\");\\n\\n/**\\n        @dev The setting name for the safety interval settings.\\n        @dev This is the minimum time you need to wait (in seconds) between the last time you deposit collateral and you take out the loan.\\n        @dev It is used to avoid potential attacks using Flash Loans (AAVE) or Flash Swaps (Uniswap V2).\\n     */\\nbytes32 constant SAFETY_INTERVAL = keccak256(\\\"SafetyInterval\\\");\\n\\n/**\\n        @dev The setting name for the term expiry time settings.\\n        @dev This represents the time (in seconds) that loan terms will be available after requesting them.\\n        @dev After this time, the loan terms will expire and the borrower will need to request it again.\\n     */\\nbytes32 constant TERMS_EXPIRY_TIME = keccak256(\\\"TermsExpiryTime\\\");\\n\\n/**\\n        @dev The setting name for the liquidation reward percent setting.\\n        @dev It represents the percentage value (with 2 decimal places) for the MAX liquidation reward.\\n            i.e. an ETH liquidation price at 5% is stored as 500\\n     */\\nbytes32 constant LIQUIDATE_REWARD_PERCENT = keccak256(\\\"LiquidateRewardPercent\\\");\\n\\n/**\\n        @dev The setting name for the maximum loan duration settings.\\n        @dev The maximum loan duration setting is defined in seconds. Loans will not be given for timespans larger than the one specified here.\\n     */\\nbytes32 constant MAXIMUM_LOAN_DURATION = keccak256(\\\"MaximumLoanDuration\\\");\\n\\n/**\\n        @dev The setting name for the request loan terms rate limit settings.\\n        @dev The request loan terms rate limit setting is defined in seconds.\\n     */\\nbytes32 constant REQUEST_LOAN_TERMS_RATE_LIMIT = keccak256(\\n    \\\"RequestLoanTermsRateLimit\\\"\\n);\\n\\n/**\\n        @dev The setting name for the collateral buffer.\\n        @dev The collateral buffer is a safety buffer above the required collateral amount to liquidate a loan. It is required to ensure the loan does not get liquidated immediately after the loan is taken out if the value of the collateral asset deposited drops drastically.\\n        @dev It represents the percentage value (with 2 decimal places) of a collateral buffer.\\n            e.g.: collateral buffer at 100% is stored as 10000.\\n     */\\nbytes32 constant COLLATERAL_BUFFER = keccak256(\\\"CollateralBuffer\\\");\\n\\n/**\\n        @dev The setting name for the over collateralized buffer.\\n        @dev The over collateralized buffer is the minimum required collateral ratio in order for a loan to be taken out without an Escrow contract and for the funds to go to the borrower's EOA (external overridely owned account).\\n        @dev It represents the percentage value (with 2 decimal places) of a over collateralized buffer.\\n            e.g.: over collateralized buffer at 130% is stored as 13000.\\n     */\\nbytes32 constant OVER_COLLATERALIZED_BUFFER = keccak256(\\n    \\\"OverCollateralizedBuffer\\\"\\n);\\n\",\"keccak256\":\"0xacf6bcb8c4afd2f337a0161e8be64b016c1b350d336cd862245dd922fcd10f33\",\"license\":\"MIT\"},\"contracts/shared/interfaces/ICErc20.sol\":{\"content\":\"// SPDX-License-Identifier: MIT\\npragma solidity ^0.8.0;\\n\\nimport \\\"./IComptroller.sol\\\";\\n\\ninterface ICErc20 {\\n    /*** User Interface ***/\\n\\n    /**\\n        @notice The mint function transfers an asset into the protocol, which begins accumulating interest based on the current Supply Rate for the asset. The user receives a quantity of cTokens equal to the underlying tokens supplied, divided by the current Exchange Rate.\\n        @param mintAmount The amount of the asset to be supplied, in units of the underlying asset.\\n        @return 0 on success, otherwise an Error code\\n        @dev msg.sender The account which shall supply the asset, and own the minted cTokens.\\n        @dev Before supplying an asset, users must first approve the cToken to access their token balance.\\n     */\\n    function mint(uint256 mintAmount) external returns (uint256);\\n\\n    /**\\n        @notice The redeem function converts a specified quantity of cTokens into the underlying asset, and returns them to the user. The amount of underlying tokens received is equal to the quantity of cTokens redeemed, multiplied by the current Exchange Rate. The amount redeemed must be less than the user's Account Liquidity and the market's available liquidity.\\n        @param redeemTokens The number of cTokens to be redeemed.\\n        @return 0 on success, otherwise an Error code\\n        @dev msg.sender The account to which redeemed funds shall be transferred.\\n     */\\n    function redeem(uint256 redeemTokens) external returns (uint256);\\n\\n    /**\\n        @notice The redeem underlying function converts cTokens into a specified quantity of the underlying asset, and returns them to the user. The amount of cTokens redeemed is equal to the quantity of underlying tokens received, divided by the current Exchange Rate. The amount redeemed must be less than the user's Account Liquidity and the market's available liquidity.\\n        @param redeemAmount The amount of underlying to be redeemed.\\n        @return 0 on success, otherwise an Error code\\n        @dev msg.sender The account to which redeemed funds shall be transferred.\\n     */\\n    function redeemUnderlying(uint256 redeemAmount) external returns (uint256);\\n\\n    /**\\n        @notice The borrow function transfers an asset from the protocol to the user, and creates a borrow balance which begins accumulating interest based on the Borrow Rate for the asset. The amount borrowed must be less than the user's Account Liquidity and the market's available liquidity.\\n        @param borrowAmount The amount of the underlying asset to be borrowed.\\n        @return 0 on success, otherwise an Error code\\n        @dev msg.sender The account to which borrowed funds shall be transferred.\\n     */\\n    function borrow(uint256 borrowAmount) external returns (uint256);\\n\\n    /**\\n        @notice The repay function transfers an asset into the protocol, reducing the user's borrow balance.\\n        @param repayAmount The amount of the underlying borrowed asset to be repaid. A value of -1 (i.e. 2^256 - 1) can be used to repay the full amount.\\n        @return 0 on success, otherwise an Error code\\n        @dev msg.sender The account which borrowed the asset, and shall repay the borrow.\\n        @dev Before repaying an asset, users must first approve the cToken to access their token balance.\\n     */\\n    function repayBorrow(uint256 repayAmount) external returns (uint256);\\n\\n    /**\\n        @notice The repay function transfers an asset into the protocol, reducing the target user's borrow balance.\\n        @param borrower The account which borrowed the asset to be repaid.\\n        @param repayAmount The amount of the underlying borrowed asset to be repaid. A value of -1 (i.e. 2^256 - 1) can be used to repay the full amount.\\n        @return 0 on success, otherwise an Error code\\n        @dev msg.sender The account which shall repay the borrow.\\n        @dev Before repaying an asset, users must first approve the cToken to access their token balance.\\n     */\\n    function repayBorrowBehalf(address borrower, uint256 repayAmount)\\n        external\\n        returns (uint256);\\n\\n    /*** Admin Functions ***/\\n\\n    function _addReserves(uint256 addAmount) external returns (uint256);\\n\\n    /** End Admin Functions */\\n\\n    function underlying() external view returns (address);\\n\\n    /**\\n        @notice Each cToken is convertible into an ever increasing quantity of the underlying asset, as interest accrues in the market. The exchange rate between a cToken and the underlying asset is\\n        equal to: exchangeRate = (getCash() + totalBorrows() - totalReserves()) / totalSupply()\\n        @return The current exchange rate as an unsigned integer, scaled by 1e18.\\n     */\\n    function exchangeRateCurrent() external returns (uint256);\\n\\n    function exchangeRateStored() external view returns (uint256);\\n\\n    /**\\n     * @notice Applies accrued interest to total borrows and reserves\\n     * @dev This calculates interest accrued from the last checkpointed block\\n     *   up to the current block and writes new checkpoint to storage.\\n     */\\n    function accrueInterest() external;\\n\\n    function decimals() external view returns (uint8);\\n\\n    function balanceOf(address account) external view returns (uint256);\\n\\n    /**\\n        @notice The user's underlying balance, representing their assets in the protocol, is equal to the user's cToken balance multiplied by the Exchange Rate.\\n        @param account The account to get the underlying balance of.\\n        @return The amount of underlying currently owned by the account.\\n     */\\n    function balanceOfUnderlying(address account) external returns (uint256);\\n\\n    function comptroller() external view returns (IComptroller);\\n}\\n\",\"keccak256\":\"0xe64ba9069b31f8149d63171b24b9fdef3a587b0461c3d4c8ac5976519bcde332\",\"license\":\"MIT\"},\"contracts/shared/interfaces/IComptroller.sol\":{\"content\":\"// SPDX-License-Identifier: MIT\\npragma solidity ^0.8.0;\\n\\ninterface IComptroller {\\n    /*** Assets You Are In ***/\\n\\n    function enterMarkets(address[] calldata cTokens)\\n        external\\n        returns (uint256[] memory);\\n\\n    function exitMarket(address cToken) external returns (uint256);\\n\\n    /*** Policy Hooks ***/\\n\\n    function mintAllowed(\\n        address cToken,\\n        address minter,\\n        uint256 mintAmount\\n    ) external returns (uint256);\\n\\n    function mintVerify(\\n        address cToken,\\n        address minter,\\n        uint256 mintAmount,\\n        uint256 mintTokens\\n    ) external;\\n\\n    function redeemAllowed(\\n        address cToken,\\n        address redeemer,\\n        uint256 redeemTokens\\n    ) external returns (uint256);\\n\\n    function redeemVerify(\\n        address cToken,\\n        address redeemer,\\n        uint256 redeemAmount,\\n        uint256 redeemTokens\\n    ) external;\\n\\n    function borrowAllowed(\\n        address cToken,\\n        address borrower,\\n        uint256 borrowAmount\\n    ) external returns (uint256);\\n\\n    function borrowVerify(\\n        address cToken,\\n        address borrower,\\n        uint256 borrowAmount\\n    ) external;\\n\\n    function repayBorrowAllowed(\\n        address cToken,\\n        address payer,\\n        address borrower,\\n        uint256 repayAmount\\n    ) external returns (uint256);\\n\\n    function repayBorrowVerify(\\n        address cToken,\\n        address payer,\\n        address borrower,\\n        uint256 repayAmount,\\n        uint256 borrowerIndex\\n    ) external;\\n\\n    function liquidateBorrowAllowed(\\n        address cTokenBorrowed,\\n        address cTokenCollateral,\\n        address liquidator,\\n        address borrower,\\n        uint256 repayAmount\\n    ) external returns (uint256);\\n\\n    function liquidateBorrowVerify(\\n        address cTokenBorrowed,\\n        address cTokenCollateral,\\n        address liquidator,\\n        address borrower,\\n        uint256 repayAmount,\\n        uint256 seizeTokens\\n    ) external;\\n\\n    function seizeAllowed(\\n        address cTokenCollateral,\\n        address cTokenBorrowed,\\n        address liquidator,\\n        address borrower,\\n        uint256 seizeTokens\\n    ) external returns (uint256);\\n\\n    function seizeVerify(\\n        address cTokenCollateral,\\n        address cTokenBorrowed,\\n        address liquidator,\\n        address borrower,\\n        uint256 seizeTokens\\n    ) external;\\n\\n    function transferAllowed(\\n        address cToken,\\n        address src,\\n        address dst,\\n        uint256 transferTokens\\n    ) external returns (uint256);\\n\\n    function transferVerify(\\n        address cToken,\\n        address src,\\n        address dst,\\n        uint256 transferTokens\\n    ) external;\\n\\n    function claimComp(address holder) external;\\n\\n    function claimComp(address holder, address[] calldata cTokens) external;\\n\\n    function claimComp(\\n        address[] calldata holders,\\n        address[] calldata cTokens,\\n        bool borrowers,\\n        bool suppliers\\n    ) external;\\n\\n    /*** Liquidity/Liquidation Calculations ***/\\n\\n    function liquidateCalculateSeizeTokens(\\n        address cTokenBorrowed,\\n        address cTokenCollateral,\\n        uint256 repayAmount\\n    ) external view returns (uint256, uint256);\\n\\n    function getCompAddress() external view returns (address);\\n}\\n\",\"keccak256\":\"0x495d8bb746a524fea6ddc4286c955d7a0160718bf662456330a9d6d14b8a5da9\",\"license\":\"MIT\"},\"contracts/shared/interfaces/IUniswapV2Router.sol\":{\"content\":\"// SPDX-License-Identifier: MIT\\npragma solidity ^0.8.0;\\n\\n/**\\n    @notice This interface defines the different functions available for a UniswapV2Router.\\n    @author develop@teller.finance\\n */\\ninterface IUniswapV2Router {\\n    function factory() external pure returns (address);\\n\\n    function addLiquidity(\\n        address tokenA,\\n        address tokenB,\\n        uint256 amountADesired,\\n        uint256 amountBDesired,\\n        uint256 amountAMin,\\n        uint256 amountBMin,\\n        address to,\\n        uint256 deadline\\n    )\\n        external\\n        returns (\\n            uint256 amountA,\\n            uint256 amountB,\\n            uint256 liquidity\\n        );\\n\\n    function addLiquidityETH(\\n        address token,\\n        uint256 amountTokenDesired,\\n        uint256 amountTokenMin,\\n        uint256 amountETHMin,\\n        address to,\\n        uint256 deadline\\n    )\\n        external\\n        payable\\n        returns (\\n            uint256 amountToken,\\n            uint256 amountETH,\\n            uint256 liquidity\\n        );\\n\\n    function removeLiquidity(\\n        address tokenA,\\n        address tokenB,\\n        uint256 liquidity,\\n        uint256 amountAMin,\\n        uint256 amountBMin,\\n        address to,\\n        uint256 deadline\\n    ) external returns (uint256 amountA, uint256 amountB);\\n\\n    function removeLiquidityETH(\\n        address token,\\n        uint256 liquidity,\\n        uint256 amountTokenMin,\\n        uint256 amountETHMin,\\n        address to,\\n        uint256 deadline\\n    ) external returns (uint256 amountToken, uint256 amountETH);\\n\\n    function removeLiquidityWithPermit(\\n        address tokenA,\\n        address tokenB,\\n        uint256 liquidity,\\n        uint256 amountAMin,\\n        uint256 amountBMin,\\n        address to,\\n        uint256 deadline,\\n        bool approveMax,\\n        uint8 v,\\n        bytes32 r,\\n        bytes32 s\\n    ) external returns (uint256 amountA, uint256 amountB);\\n\\n    function removeLiquidityETHWithPermit(\\n        address token,\\n        uint256 liquidity,\\n        uint256 amountTokenMin,\\n        uint256 amountETHMin,\\n        address to,\\n        uint256 deadline,\\n        bool approveMax,\\n        uint8 v,\\n        bytes32 r,\\n        bytes32 s\\n    ) external returns (uint256 amountToken, uint256 amountETH);\\n\\n    function quote(\\n        uint256 amountA,\\n        uint256 reserveA,\\n        uint256 reserveB\\n    ) external pure returns (uint256 amountB);\\n\\n    function getAmountOut(\\n        uint256 amountIn,\\n        uint256 reserveIn,\\n        uint256 reserveOut\\n    ) external pure returns (uint256 amountOut);\\n\\n    function getAmountIn(\\n        uint256 amountOut,\\n        uint256 reserveIn,\\n        uint256 reserveOut\\n    ) external pure returns (uint256 amountIn);\\n\\n    function getAmountsOut(uint256 amountIn, address[] calldata path)\\n        external\\n        view\\n        returns (uint256[] memory amounts);\\n\\n    function getAmountsIn(uint256 amountOut, address[] calldata path)\\n        external\\n        view\\n        returns (uint256[] memory amounts);\\n\\n    /**\\n        @notice It returns the address of the canonical WETH address;\\n    */\\n    function WETH() external pure returns (address);\\n\\n    /**\\n        @notice Swaps an exact amount of input tokens for as many output tokens as possible, along the route determined by the path. The first element of path is the input token, the last is the output token, and any intermediate elements represent intermediate pairs to trade through (if, for example, a direct pair does not exist).\\n        @param amountIn The amount of input tokens to send.\\n        @param amountOutMin The minimum amount of output tokens that must be received for the transaction not to revert.\\n        @param path An array of token addresses. path.length must be >= 2. Pools for each consecutive pair of addresses must exist and have liquidity.\\n        @param to Recipient of the output tokens.\\n        @param deadline Unix timestamp after which the transaction will revert.\\n        @return amounts The input token amount and all subsequent output token amounts.\\n        @dev msg.sender should have already given the router an allowance of at least amountIn on the input token.\\n     */\\n    function swapExactTokensForTokens(\\n        uint256 amountIn,\\n        uint256 amountOutMin,\\n        address[] calldata path,\\n        address to,\\n        uint256 deadline\\n    ) external returns (uint256[] memory amounts);\\n\\n    /**\\n        @notice Swaps an exact amount of tokens for as much ETH as possible, along the route determined by the path. The first element of path is the input token, the last must be WETH, and any intermediate elements represent intermediate pairs to trade through (if, for example, a direct pair does not exist).\\n        @param amountIn The amount of input tokens to send.\\n        @param amountOutMin The minimum amount of output tokens that must be received for the transaction not to revert.\\n        @param path An array of token addresses. path.length must be >= 2. Pools for each consecutive pair of addresses must exist and have liquidity.\\n        @param to Recipient of the ETH.\\n        @param deadline Unix timestamp after which the transaction will revert.\\n        @return amounts The input token amount and all subsequent output token amounts.\\n        @dev If the to address is a smart contract, it must have the ability to receive ETH.\\n     */\\n    function swapExactTokensForETH(\\n        uint256 amountIn,\\n        uint256 amountOutMin,\\n        address[] calldata path,\\n        address to,\\n        uint256 deadline\\n    ) external returns (uint256[] memory amounts);\\n\\n    /**\\n        @notice Swaps an exact amount of ETH for as many output tokens as possible, along the route determined by the path. The first element of path must be WETH, the last is the output token, and any intermediate elements represent intermediate pairs to trade through (if, for example, a direct pair does not exist).\\n        @param amountOutMin The minimum amount of output tokens that must be received for the transaction not to revert.\\n        @param path An array of token addresses. path.length must be >= 2. Pools for each consecutive pair of addresses must exist and have liquidity.\\n        @param to Recipient of the output tokens.\\n        @param deadline Unix timestamp after which the transaction will revert.\\n        @return amounts The input token amount and all subsequent output token amounts.\\n     */\\n    function swapExactETHForTokens(\\n        uint256 amountOutMin,\\n        address[] calldata path,\\n        address to,\\n        uint256 deadline\\n    ) external payable returns (uint256[] memory amounts);\\n\\n    function swapTokensForExactTokens(\\n        uint256 amountOut,\\n        uint256 amountInMax,\\n        address[] calldata path,\\n        address to,\\n        uint256 deadline\\n    ) external returns (uint256[] memory amounts);\\n\\n    function swapTokensForExactETH(\\n        uint256 amountOut,\\n        uint256 amountInMax,\\n        address[] calldata path,\\n        address to,\\n        uint256 deadline\\n    ) external returns (uint256[] memory amounts);\\n\\n    function swapETHForExactTokens(\\n        uint256 amountOut,\\n        address[] calldata path,\\n        address to,\\n        uint256 deadline\\n    ) external payable returns (uint256[] memory amounts);\\n}\\n\",\"keccak256\":\"0x208769886b3db8f03ef1fa26f1caee189038dfc744b9a499402fc4e4c0090c38\",\"license\":\"MIT\"},\"contracts/shared/libraries/CacheLib.sol\":{\"content\":\"// SPDX-License-Identifier: MIT\\npragma solidity ^0.8.0;\\n\\nenum CacheType { Address, Uint, Int, Byte, Bool }\\n\\n/**\\n * @notice This struct manages the cache of the library instance.\\n * @param addresses A mapping of address values mapped to cache keys in bytes.\\n * @param uints A mapping of uint values mapped to cache keys names in bytes.\\n * @param ints A mapping of int values mapped to cache keys names in bytes.\\n * @param bites A mapping of bytes values mapped to cache keys names in bytes.\\n * @param bools A mapping of bool values mapped to cache keys names in bytes.\\n */\\nstruct Cache {\\n    // Mapping of cache keys names to address values.\\n    mapping(bytes32 => address) addresses;\\n    // Mapping of cache keys names to uint256 values.\\n    mapping(bytes32 => uint256) uints;\\n    // Mapping of cache keys names to int256 values.\\n    mapping(bytes32 => int256) ints;\\n    // Mapping of cache keys names to bytes32 values.\\n    mapping(bytes32 => bytes32) bites;\\n    // Mapping of cache keys names to bool values.\\n    mapping(bytes32 => bool) bools;\\n}\\n\\nlibrary CacheLib {\\n    // The constant for the initialization check\\n    bytes32 private constant INITIALIZED = keccak256(\\\"Initialized\\\");\\n\\n    /**\\n     * @notice Initializes the cache instance.\\n     * @param cache The current cache\\n     */\\n    function initialize(Cache storage cache) internal {\\n        requireNotExists(cache);\\n        cache.bools[INITIALIZED] = true;\\n    }\\n\\n    /**\\n     * @notice Checks whether the current cache does not, throwing an error if it does.\\n     * @param cache The current cache\\n     */\\n    function requireNotExists(Cache storage cache) internal view {\\n        require(!exists(cache), \\\"CACHE_ALREADY_EXISTS\\\");\\n    }\\n\\n    /**\\n     * @notice Checks whether the current cache exists, throwing an error if the cache does not.\\n     * @param cache The current cache\\n     */\\n    function requireExists(Cache storage cache) internal view {\\n        require(exists(cache), \\\"CACHE_DOES_NOT_EXIST\\\");\\n    }\\n\\n    /**\\n     * @notice Tests whether the current cache exists or not.\\n     * @param cache The current cache.\\n     * @return bool True if the cache exists.\\n     */\\n    function exists(Cache storage cache) internal view returns (bool) {\\n        return cache.bools[INITIALIZED];\\n    }\\n\\n    function update(\\n        Cache storage cache,\\n        bytes32 key,\\n        bytes32 value,\\n        CacheType cacheType\\n    ) internal {\\n        requireExists(cache);\\n\\n        assembly {\\n            mstore(0, value)\\n        }\\n        if (cacheType == CacheType.Address) {\\n            address addr;\\n            assembly {\\n                addr := mload(0)\\n            }\\n            cache.addresses[key] = addr;\\n        } else if (cacheType == CacheType.Uint) {\\n            uint256 ui;\\n            assembly {\\n                ui := mload(0)\\n            }\\n            cache.uints[key] = ui;\\n        } else if (cacheType == CacheType.Int) {\\n            int256 i;\\n            assembly {\\n                i := mload(0)\\n            }\\n            cache.ints[key] = i;\\n        } else if (cacheType == CacheType.Byte) {\\n            cache.bites[key] = value;\\n        } else if (cacheType == CacheType.Bool) {\\n            bool b;\\n            assembly {\\n                b := mload(0)\\n            }\\n            cache.bools[key] = b;\\n        }\\n    }\\n\\n    /**\\n     */\\n    function clearCache(\\n        Cache storage cache,\\n        bytes32[5] memory keysToClear,\\n        CacheType[5] memory keyTypes\\n    ) internal {\\n        requireExists(cache);\\n        require(\\n            keysToClear.length == keyTypes.length,\\n            \\\"ARRAY_LENGTHS_MISMATCH\\\"\\n        );\\n        for (uint256 i; i <= keysToClear.length; i++) {\\n            if (keyTypes[i] == CacheType.Address) {\\n                delete cache.addresses[keysToClear[i]];\\n            } else if (keyTypes[i] == CacheType.Uint) {\\n                delete cache.uints[keysToClear[i]];\\n            } else if (keyTypes[i] == CacheType.Int) {\\n                delete cache.ints[keysToClear[i]];\\n            } else if (keyTypes[i] == CacheType.Byte) {\\n                delete cache.bites[keysToClear[i]];\\n            } else if (keyTypes[i] == CacheType.Bool) {\\n                delete cache.bools[keysToClear[i]];\\n            }\\n        }\\n    }\\n}\\n\",\"keccak256\":\"0x4d9045666e86d675f7bd48202f9a77d0675fa20b2184131ad369710ac5eb3203\",\"license\":\"MIT\"},\"contracts/shared/libraries/CompoundLib.sol\":{\"content\":\"// SPDX-License-Identifier: MIT\\npragma solidity ^0.8.0;\\n\\n// Interfaces\\nimport { ICErc20 } from \\\"../interfaces/ICErc20.sol\\\";\\n\\n// Storage\\nimport { AppStorageLib } from \\\"../../storage/app.sol\\\";\\n\\n/**\\n * @notice Utility library to calculate the value of a Compound cToken and its underlying asset.\\n *\\n * @author develop@teller.finance\\n */\\nlibrary CompoundLib {\\n    /**\\n     * @dev Compounds exchange rate is scaled by 18 decimals (10^18)\\n     */\\n    uint256 internal constant EXCHANGE_RATE_SCALE = 1e18;\\n\\n    function exchangeRate(address cToken) internal view returns (uint256) {\\n        return ICErc20(cToken).exchangeRateStored();\\n    }\\n\\n    /**\\n     * @notice Takes an amount of the Compound asset and calculates the underlying amount using the stored exchange rate.\\n     * @param cToken Address of the Compound token.\\n     * @param cTokenAmount Amount of the Compound asset.\\n     * @return value of the Compound token amount in underlying tokens.\\n     */\\n    function valueInUnderlying(address cToken, uint256 cTokenAmount)\\n        internal\\n        view\\n        returns (uint256)\\n    {\\n        return\\n            (cTokenAmount * ICErc20(cToken).exchangeRateStored()) /\\n            EXCHANGE_RATE_SCALE;\\n    }\\n\\n    /**\\n     * @notice Takes an amount of the underlying Compound asset and calculates the cToken amount using the stored exchange rate.\\n     * @param cToken Address of the Compound token.\\n     * @param underlyingAmount Amount of the underlying asset for the Compound token.\\n     * @return value of the underlying amount in Compound tokens.\\n     */\\n    function valueOfUnderlying(address cToken, uint256 underlyingAmount)\\n        internal\\n        view\\n        returns (uint256)\\n    {\\n        return\\n            (underlyingAmount * EXCHANGE_RATE_SCALE) /\\n            ICErc20(cToken).exchangeRateStored();\\n    }\\n\\n    function isCompoundToken(address token) internal view returns (bool) {\\n        return AppStorageLib.store().cTokenRegistry[token];\\n    }\\n\\n    /**\\n     * @notice Tests the {underlying} function on the cToken and assumes its WETH otherwise.\\n     * @notice CETH is the only Compound token that does not support the {underlying} function.\\n     */\\n    function getUnderlying(address cToken) internal view returns (address) {\\n        (bool success, bytes memory data) =\\n            cToken.staticcall(abi.encode(ICErc20.underlying.selector));\\n        if (success) {\\n            return abi.decode(data, (address));\\n        }\\n\\n        return AppStorageLib.store().assetAddresses[\\\"WETH\\\"];\\n    }\\n}\\n\",\"keccak256\":\"0x14e96659912e9d03ae30732faca8e3d617f3e756a215d948cabedab6642c1465\",\"license\":\"MIT\"},\"contracts/shared/libraries/NumbersLib.sol\":{\"content\":\"// SPDX-License-Identifier: MIT\\npragma solidity ^0.8.0;\\n\\n/**\\n * @dev Utility library for uint256 numbers\\n *\\n * @author develop@teller.finance\\n */\\nlibrary NumbersLib {\\n    /**\\n     * @dev It represents 100% with 2 decimal places.\\n     */\\n    uint256 internal constant ONE_HUNDRED_PERCENT = 10000;\\n\\n    /**\\n     * @notice Returns a percentage value of a number.\\n     * @param self The number to get a percentage of.\\n     * @param percentage The percentage value to calculate with 2 decimal places (10000 = 100%).\\n     */\\n    function percent(uint256 self, uint16 percentage)\\n        internal\\n        pure\\n        returns (uint256)\\n    {\\n        return (self * uint256(percentage)) / ONE_HUNDRED_PERCENT;\\n    }\\n\\n    function percent(int256 self, uint256 percentage)\\n        internal\\n        pure\\n        returns (int256)\\n    {\\n        return (self * int256(percentage)) / int256(ONE_HUNDRED_PERCENT);\\n    }\\n\\n    function abs(int256 self) internal pure returns (uint256) {\\n        return self >= 0 ? uint256(self) : uint256(-1 * self);\\n    }\\n\\n    /**\\n     * @notice Returns a ratio percentage of {num1} to {num2}.\\n     * @param num1 The number used to get the ratio for.\\n     * @param num2 The number used to get the ratio from.\\n     * @return Ratio percentage with 2 decimal places (10000 = 100%).\\n     */\\n    function ratioOf(uint256 num1, uint256 num2)\\n        internal\\n        pure\\n        returns (uint16)\\n    {\\n        return num2 == 0 ? 0 : uint16((num1 * ONE_HUNDRED_PERCENT) / num2);\\n    }\\n}\\n\",\"keccak256\":\"0x998aefaf4edbe7b0cb41032750b65b3822b4bec0fec3ee5b396f8fb73b5e9e03\",\"license\":\"MIT\"},\"contracts/shared/libraries/NumbersList.sol\":{\"content\":\"// SPDX-License-Identifier: MIT\\npragma solidity ^0.8.0;\\n\\nimport \\\"@openzeppelin/contracts/utils/math/SafeMath.sol\\\";\\nimport \\\"./NumbersLib.sol\\\";\\n\\n/**\\n * @dev Utility library of inline functions on NumbersList.Values\\n *\\n * @author develop@teller.finance\\n */\\nlibrary NumbersList {\\n    using NumbersLib for uint256;\\n\\n    // Holds values to calculate the threshold of a list of numbers\\n    struct Values {\\n        uint256 count; // The total number of numbers added\\n        uint256 max; // The maximum number that was added\\n        uint256 min; // The minimum number that was added\\n        uint256 sum; // The total sum of the numbers that were added\\n    }\\n\\n    /**\\n     * @dev Add to the sum while keeping track of min and max values\\n     * @param self The Value this function was called on\\n     * @param newValue Number to increment sum by\\n     */\\n    function addValue(Values memory self, uint256 newValue) internal pure {\\n        if (self.max < newValue) {\\n            self.max = newValue;\\n        }\\n        if (self.min > newValue || self.count == 0) {\\n            self.min = newValue;\\n        }\\n        self.sum = self.sum + (newValue);\\n        self.count = self.count + 1;\\n    }\\n\\n    /**\\n     * @param self The Value this function was called on\\n     * @return the number of times the sum has updated\\n     */\\n    function valuesCount(Values memory self) internal pure returns (uint256) {\\n        return self.count;\\n    }\\n\\n    /**\\n     * @dev Checks if the sum has been changed\\n     * @param self The Value this function was called on\\n     * @return boolean\\n     */\\n    function isEmpty(Values memory self) internal pure returns (bool) {\\n        return valuesCount(self) == 0;\\n    }\\n\\n    /**\\n     * @param self The Value this function was called on\\n     * @return the average number that was used to calculate the sum\\n     */\\n    function getAverage(Values memory self) internal pure returns (uint256) {\\n        return isEmpty(self) ? 0 : self.sum / (valuesCount(self));\\n    }\\n\\n    /**\\n     * @dev Checks if the min and max numbers are within the acceptable tolerance\\n     * @param self The Value this function was called on\\n     * @param tolerancePercentage Acceptable tolerance percentage as a whole number\\n     * The percentage should be entered with 2 decimal places. e.g. 2.5% should be entered as 250.\\n     * @return boolean\\n     */\\n    function isWithinTolerance(Values memory self, uint16 tolerancePercentage)\\n        internal\\n        pure\\n        returns (bool)\\n    {\\n        if (isEmpty(self)) {\\n            return false;\\n        }\\n        uint256 average = getAverage(self);\\n        uint256 toleranceAmount = average.percent(tolerancePercentage);\\n\\n        uint256 minTolerance = average - toleranceAmount;\\n        if (self.min < minTolerance) {\\n            return false;\\n        }\\n\\n        uint256 maxTolerance = average + toleranceAmount;\\n        if (self.max > maxTolerance) {\\n            return false;\\n        }\\n        return true;\\n    }\\n}\\n\",\"keccak256\":\"0xfd64d3765eb776aaebf1c6eeb8af33ad4a9bd89bad676300542086c1fefd44da\",\"license\":\"MIT\"},\"contracts/shared/proxy/beacon/InitializeableBeaconProxy.sol\":{\"content\":\"// SPDX-License-Identifier: MIT\\npragma solidity ^0.8.0;\\n\\nimport \\\"@openzeppelin/contracts/proxy/beacon/IBeacon.sol\\\";\\nimport \\\"@openzeppelin/contracts/proxy/Proxy.sol\\\";\\nimport \\\"@openzeppelin/contracts/utils/Address.sol\\\";\\n\\n/**\\n * @dev This contract implements a proxy that gets the implementation address for each call from a {UpgradeableBeacon}.\\n *\\n * The beacon address is stored in storage slot `uint256(keccak256('eip1967.proxy.beacon')) - 1`, so that it doesn't\\n * conflict with the storage layout of the implementation behind the proxy.\\n *\\n * _Available since v3.4._\\n */\\ncontract InitializeableBeaconProxy is Proxy {\\n    /**\\n     * @dev The storage slot of the UpgradeableBeacon contract which defines the implementation for this proxy.\\n     * This is bytes32(uint256(keccak256('eip1967.proxy.beacon')) - 1)) and is validated in the constructor.\\n     */\\n    bytes32 private constant _BEACON_SLOT =\\n        0xa3f0ad74e5423aebfd80d3ef4346578335a9a72aeaee59ff6cb3582b35133d50;\\n\\n    /**\\n     * @dev Initializes the proxy with `beacon`.\\n     *\\n     * If `data` is nonempty, it's used as data in a delegate call to the implementation returned by the beacon. This\\n     * will typically be an encoded function call, and allows initializating the storage of the proxy like a Solidity\\n     * constructor.\\n     *\\n     * Requirements:\\n     *\\n     * - `beacon` must be a contract with the interface {IBeacon}.\\n     */\\n    function initialize(address beacon, bytes memory data) external payable {\\n        assert(\\n            _BEACON_SLOT ==\\n                bytes32(uint256(keccak256(\\\"eip1967.proxy.beacon\\\")) - 1)\\n        );\\n        require(_beacon() == address(0), \\\"Beacon: already initialized\\\");\\n\\n        _setBeacon(beacon, data);\\n    }\\n\\n    /**\\n     * @dev Returns the current beacon address.\\n     */\\n    function _beacon() internal view virtual returns (address beacon) {\\n        bytes32 slot = _BEACON_SLOT;\\n        // solhint-disable-next-line no-inline-assembly\\n        assembly {\\n            beacon := sload(slot)\\n        }\\n    }\\n\\n    /**\\n     * @dev Returns the current implementation address of the associated beacon.\\n     */\\n    function _implementation()\\n        internal\\n        view\\n        virtual\\n        override\\n        returns (address)\\n    {\\n        return IBeacon(_beacon()).implementation();\\n    }\\n\\n    /**\\n     * @dev Changes the proxy to use a new beacon.\\n     *\\n     * If `data` is nonempty, it's used as data in a delegate call to the implementation returned by the beacon.\\n     *\\n     * Requirements:\\n     *\\n     * - `beacon` must be a contract.\\n     * - The implementation returned by `beacon` must be a contract.\\n     */\\n    function _setBeacon(address beacon, bytes memory data) internal virtual {\\n        bytes32 slot = _BEACON_SLOT;\\n\\n        // solhint-disable-next-line no-inline-assembly\\n        assembly {\\n            sstore(slot, beacon)\\n        }\\n\\n        if (data.length > 0) {\\n            Address.functionDelegateCall(\\n                _implementation(),\\n                data,\\n                \\\"BeaconProxy: function call failed\\\"\\n            );\\n        }\\n    }\\n\\n    receive() external payable override {\\n        // Needed to receive ETH without data\\n        // OZ Proxy contract calls the _fallback() on receive and tries to delegatecall which fails\\n    }\\n}\\n\",\"keccak256\":\"0x48aefbbc0c51b106f4d69580fa802dc6c5d7573fee24cb7d08f5370d79a2e6f2\",\"license\":\"MIT\"},\"contracts/shared/proxy/beacon/UpgradeableBeaconFactory.sol\":{\"content\":\"// SPDX-License-Identifier: MIT\\npragma solidity ^0.8.0;\\n\\nimport \\\"@openzeppelin/contracts/proxy/Clones.sol\\\";\\nimport \\\"@openzeppelin/contracts/proxy/beacon/IBeacon.sol\\\";\\nimport \\\"@openzeppelin/contracts/access/Ownable.sol\\\";\\nimport \\\"@openzeppelin/contracts/utils/Address.sol\\\";\\nimport \\\"./InitializeableBeaconProxy.sol\\\";\\n\\n/**\\n * @dev This contract is used in conjunction with one or more instances of {BeaconProxy} to determine their\\n * implementation contract, which is where they will delegate all function calls.\\n *\\n * An owner is able to change the implementation the beacon points to, thus upgrading the proxies that use this beacon.\\n */\\ncontract UpgradeableBeaconFactory is IBeacon, Ownable {\\n    address private _implementation;\\n    InitializeableBeaconProxy public proxyAddress;\\n\\n    /**\\n     * @dev Emitted when the implementation returned by the beacon is changed.\\n     */\\n    event Upgraded(address indexed implementation);\\n\\n    /**\\n     * @dev Sets the address of the initial implementation, and the deployer account as the owner who can upgrade the\\n     * beacon.\\n     */\\n    constructor(address payable proxyAddress_, address implementation_) {\\n        proxyAddress = InitializeableBeaconProxy(proxyAddress_);\\n        _setImplementation(implementation_);\\n    }\\n\\n    /**\\n     * @dev Returns the current implementation address.\\n     */\\n    function implementation() public view virtual override returns (address) {\\n        return _implementation;\\n    }\\n\\n    function cloneProxy(bytes memory initData)\\n        external\\n        returns (address payable proxy_)\\n    {\\n        proxy_ = payable(Clones.clone(address(proxyAddress)));\\n        InitializeableBeaconProxy(proxy_).initialize(address(this), initData);\\n    }\\n\\n    /**\\n     * @dev Upgrades the beacon to a new implementation.\\n     *\\n     * Emits an {Upgraded} event.\\n     *\\n     * Requirements:\\n     *\\n     * - msg.sender must be the owner of the contract.\\n     * - `newImplementation` must be a contract.\\n     */\\n    function upgradeTo(address newImplementation) public virtual onlyOwner {\\n        _setImplementation(newImplementation);\\n        emit Upgraded(newImplementation);\\n    }\\n\\n    /**\\n     * @dev Sets the implementation contract address for this beacon\\n     *\\n     * Requirements:\\n     *\\n     * - `newImplementation` must be a contract.\\n     */\\n    function _setImplementation(address newImplementation) private {\\n        require(\\n            Address.isContract(newImplementation),\\n            \\\"UpgradeableBeacon: implementation is not a contract\\\"\\n        );\\n        _implementation = newImplementation;\\n    }\\n}\\n\",\"keccak256\":\"0x8919fcdfb49018474c872c462c11b21a50faa7ab80f0162abd6b657cbbc5d04c\",\"license\":\"MIT\"},\"contracts/shared/roles.sol\":{\"content\":\"// SPDX-License-Identifier: MIT\\npragma solidity ^0.8.0;\\n\\nbytes32 constant ADMIN = keccak256(\\\"ADMIN\\\");\\nbytes32 constant PAUSER = keccak256(\\\"PAUSER\\\");\\nbytes32 constant AUTHORIZED = keccak256(\\\"AUTHORIZED\\\");\\n\",\"keccak256\":\"0x0888cf40ea019be9f0ee94cb8af1e030454c28f8c6512db9d89ed027fe21f18f\",\"license\":\"MIT\"},\"contracts/storage/app.sol\":{\"content\":\"// SPDX-License-Identifier: MIT\\npragma solidity ^0.8.0;\\n\\n// Contracts\\nimport { TellerNFT } from \\\"../nft/TellerNFT.sol\\\";\\n\\n// Interfaces\\n\\n// Libraries\\nimport {\\n    PlatformSetting\\n} from \\\"../settings/platform/libraries/PlatformSettingsLib.sol\\\";\\nimport { Cache } from \\\"../shared/libraries/CacheLib.sol\\\";\\nimport {\\n    UpgradeableBeaconFactory\\n} from \\\"../shared/proxy/beacon/UpgradeableBeaconFactory.sol\\\";\\n\\nstruct AppStorage {\\n    bool initialized;\\n    bool platformRestricted;\\n    mapping(bytes32 => bool) paused;\\n    mapping(bytes32 => PlatformSetting) platformSettings;\\n    mapping(address => Cache) assetSettings;\\n    mapping(string => address) assetAddresses;\\n    mapping(address => bool) cTokenRegistry;\\n    TellerNFT nft;\\n    UpgradeableBeaconFactory loansEscrowBeacon;\\n    UpgradeableBeaconFactory collateralEscrowBeacon;\\n    address nftLiquidationController;\\n    UpgradeableBeaconFactory tTokenBeacon;\\n}\\n\\nlibrary AppStorageLib {\\n    function store() internal pure returns (AppStorage storage s) {\\n        assembly {\\n            s.slot := 0\\n        }\\n    }\\n}\\n\",\"keccak256\":\"0xade1dda8163fc39658e5f6929b662187584b29cce47e9cb0915fc0d1832fb4f7\",\"license\":\"MIT\"},\"contracts/storage/market.sol\":{\"content\":\"// SPDX-License-Identifier: MIT\\npragma solidity ^0.8.0;\\n\\n// Libraries\\nimport { Counters } from \\\"@openzeppelin/contracts/utils/Counters.sol\\\";\\nimport {\\n    EnumerableSet\\n} from \\\"@openzeppelin/contracts/utils/structs/EnumerableSet.sol\\\";\\nimport \\\"../shared/libraries/NumbersList.sol\\\";\\n\\n// Interfaces\\nimport { ILoansEscrow } from \\\"../escrow/escrow/ILoansEscrow.sol\\\";\\nimport { ICollateralEscrow } from \\\"../market/collateral/ICollateralEscrow.sol\\\";\\nimport { ITToken } from \\\"../lending/ttoken/ITToken.sol\\\";\\n\\nstruct LoanTerms {\\n    // Max size the loan max be taken out with\\n    uint256 maxLoanAmount;\\n    // The timestamp at which the loan terms expire, after which if the loan is not yet active, cannot be taken out\\n    uint32 termsExpiry;\\n}\\n\\nenum LoanStatus { NonExistent, TermsSet, Active, Closed, Liquidated }\\n\\nstruct Loan {\\n    // Account that owns the loan\\n    address payable borrower;\\n    // The asset lent out for the loan\\n    address lendingToken;\\n    // The token used as collateral for the loan\\n    address collateralToken;\\n    // The total amount of the loan size taken out\\n    uint256 borrowedAmount;\\n    // The id of the loan for internal tracking\\n    uint128 id;\\n    // How long in seconds until the loan must be repaid\\n    uint32 duration;\\n    // The timestamp at which the loan became active\\n    uint32 loanStartTime;\\n    // The interest rate given for repaying the loan\\n    uint16 interestRate;\\n    // Ratio used to determine amount of collateral required based on the collateral asset price\\n    uint16 collateralRatio;\\n    // The status of the loan\\n    LoanStatus status;\\n}\\n\\nstruct LoanDebt {\\n    // The total amount of the loan taken out by the borrower, reduces on loan repayments\\n    uint256 principalOwed;\\n    // The total interest owed by the borrower for the loan, reduces on loan repayments\\n    uint256 interestOwed;\\n}\\n\\n/**\\n * @notice Borrower request object to take out a loan\\n * @param borrower The wallet address of the borrower\\n * @param assetAddress The address of the asset for the requested loan\\n * @param amount The amount of tokens requested by the borrower for the loan\\n * @param requestNonce The nonce of the borrower wallet address required for authentication\\n * @param duration The length of time in seconds that the loan has been requested for\\n * @param requestTime The timestamp at which the loan was requested\\n */\\nstruct LoanRequest {\\n    address payable borrower;\\n    address assetAddress;\\n    uint256 amount;\\n    uint32 requestNonce;\\n    uint32 duration;\\n    uint32 requestTime;\\n}\\n\\n/**\\n * @notice Borrower response object to take out a loan\\n * @param signer The wallet address of the signer validating the interest request of the lender\\n * @param assetAddress The address of the asset for the requested loan\\n * @param maxLoanAmount The largest amount of tokens that can be taken out in the loan by the borrower\\n * @param responseTime The timestamp at which the response was sent\\n * @param interestRate The signed interest rate generated by the signer's Credit Risk Algorithm (CRA)\\n * @param collateralRatio The ratio of collateral to loan amount that is generated by the signer's Credit Risk Algorithm (CRA)\\n * @param signature The signature generated by the signer in the format of the above Signature struct\\n */\\nstruct LoanResponse {\\n    address signer;\\n    address assetAddress;\\n    uint256 maxLoanAmount;\\n    uint32 responseTime;\\n    uint16 interestRate;\\n    uint16 collateralRatio;\\n    Signature signature;\\n}\\n\\n/**\\n * @notice Represents a user signature\\n * @param v The recovery identifier represented by the last byte of a ECDSA signature as an int\\n * @param r The random point x-coordinate of the signature respresented by the first 32 bytes of the generated ECDSA signature\\n * @param s The signature proof represented by the second 32 bytes of the generated ECDSA signature\\n */\\nstruct Signature {\\n    uint8 v;\\n    bytes32 r;\\n    bytes32 s;\\n}\\n\\nstruct MarketStorage {\\n    // Holds the index for the next loan ID\\n    Counters.Counter loanIDCounter;\\n    // Maps loanIDs to loan data\\n    mapping(uint256 => Loan) loans;\\n    // Maps loanID to loan debt (total owed left)\\n    mapping(uint256 => LoanDebt) loanDebt;\\n    // Maps loanID to loan terms\\n    mapping(uint256 => LoanTerms) loanTerms;\\n    // Maps loanIDs to escrow address to list of held tokens\\n    mapping(uint256 => ILoansEscrow) loanEscrows;\\n    // Maps loanIDs to list of tokens owned by a loan escrow\\n    mapping(uint256 => EnumerableSet.AddressSet) escrowTokens;\\n    // Maps collateral token address to a LoanCollateralEscrow that hold collateral funds\\n    mapping(address => ICollateralEscrow) collateralEscrows;\\n    // Maps accounts to owned loan IDs\\n    mapping(address => uint128[]) borrowerLoans;\\n    // Maps lending token to overall amount of interest collected from loans\\n    mapping(address => ITToken) tTokens;\\n    // Maps lending token to list of signer addresses who are only ones allowed to verify loan requests\\n    mapping(address => EnumerableSet.AddressSet) signers;\\n    // Maps lending token to list of allowed collateral tokens\\n    mapping(address => EnumerableSet.AddressSet) collateralTokens;\\n}\\n\\nbytes32 constant MARKET_STORAGE_POS = keccak256(\\\"teller.market.storage\\\");\\n\\nlibrary MarketStorageLib {\\n    function store() internal pure returns (MarketStorage storage s) {\\n        bytes32 pos = MARKET_STORAGE_POS;\\n        assembly {\\n            s.slot := pos\\n        }\\n    }\\n}\\n\",\"keccak256\":\"0x5f3fdba19ae8040e2007affe422527b7dca58ba424df33ba4dd9cb08d83d00de\",\"license\":\"MIT\"},\"contracts/storage/nft.sol\":{\"content\":\"// SPDX-License-Identifier: MIT\\npragma solidity ^0.8.0;\\n\\n// Utils\\nimport \\\"@openzeppelin/contracts/utils/structs/EnumerableSet.sol\\\";\\n\\nstruct NFTStorage {\\n    // Maps NFT owner to set of token IDs owned\\n    mapping(address => EnumerableSet.UintSet) stakedNFTs;\\n    // Maps loanID to NFT IDs indicating NFT being used for the loan\\n    mapping(uint256 => EnumerableSet.UintSet) loanNFTs;\\n    // Merkle root used for verifying nft IDs to base loan size\\n    bytes32 nftMerkleRoot;\\n}\\n\\nbytes32 constant NFT_STORAGE_POS = keccak256(\\\"teller.staking.storage\\\");\\n\\nlibrary NFTStorageLib {\\n    function store() internal pure returns (NFTStorage storage s) {\\n        bytes32 pos = NFT_STORAGE_POS;\\n        assembly {\\n            s.slot := pos\\n        }\\n    }\\n}\\n\",\"keccak256\":\"0x8d58bb6ba00310d8c3d89b95c62e5c997430a1124d73224897f7d9b2a43ab50a\",\"license\":\"MIT\"},\"contracts/storage/price-aggregator.sol\":{\"content\":\"// SPDX-License-Identifier: MIT\\npragma solidity ^0.8.0;\\n\\nimport {\\n    EnumerableSet\\n} from \\\"@openzeppelin/contracts/utils/structs/EnumerableSet.sol\\\";\\n\\nstruct ChainlinkAggStorage {\\n    // Maps source token => destination token => Chainlink Aggregator\\n    mapping(address => mapping(address => address)) aggregators;\\n    // Maps token address to number of supported Chainlink pairs\\n    mapping(address => uint256) pairCount;\\n    // Stores set of token addresses supported by Chainlink\\n    EnumerableSet.AddressSet supportedTokens;\\n}\\n\\nstruct PriceAggStorage {\\n    ChainlinkAggStorage chainlink;\\n}\\n\\nbytes32 constant PRICE_AGG_STORAGE_POS = keccak256(\\n    \\\"teller.price.aggregator.storage\\\"\\n);\\n\\nlibrary PriceAggStorageLib {\\n    function store() internal pure returns (PriceAggStorage storage s) {\\n        bytes32 pos = PRICE_AGG_STORAGE_POS;\\n        assembly {\\n            s.slot := pos\\n        }\\n    }\\n}\\n\",\"keccak256\":\"0x39a2c6e514cbc48d03f8de560a855527ddf9cd08e2042a75e5c1820a6298d4a1\",\"license\":\"MIT\"}},\"version\":1}",
              "bytecode": "0x608060405234801561001057600080fd5b5061204b806100206000396000f3fe608060405234801561001057600080fd5b506004361061004c5760003560e01c80635ebc6334146100515780638a700b531461007d578063ccdd9f5d14610092578063e89ad656146100a5575b600080fd5b61006461005f366004611d42565b6100b8565b6040805192835260208301919091520160405180910390f35b61009061008b366004611d72565b610189565b005b6100906100a0366004611d42565b6102ea565b6100906100b3366004611d72565b6105da565b60008061014a836100c8856107ce565b6001600160a01b031663d17b71d7866040518263ffffffff1660e01b81526004016100f591815260200190565b60206040518083038186803b15801561010d57600080fd5b505afa158015610121573d6000803e3d6000fd5b505050506040513d601f19601f820116820180604052508101906101459190611d5a565b61083b565b509150610182610159846108ff565b600101546001600160a01b031661016f856108ff565b600201546001600160a01b03168461091c565b9050915091565b60008080527f7b305b6be5f275f648d05716597c483d754c2a242bd605feba3c64fb853605366020527f63eec20f0ae1af135811da961c707cd581594291a92cf7bcd78c1cf1aca4e4b054600080516020611ff68339815191529060ff161561020d5760405162461bcd60e51b815260040161020490611e6a565b60405180910390fd5b60008281526002820160205260408120805460ff1916600117905580806102338161099e565b151514801561024d57508015156102498361099e565b1515145b610256826109b6565b906102745760405162461bcd60e51b81526004016102049190611e00565b507f50e75b23f8ec51bbcb044fe377457e835f3b5ccc7ebf69e80906452015dff607336102a18282610a1f565b6102bd5760405162461bcd60e51b815260040161020490611e33565b6102ca8888336000610a53565b5050506000938452505060020160205260409020805460ff191690555050565b60008080527f7b305b6be5f275f648d05716597c483d754c2a242bd605feba3c64fb853605366020527f63eec20f0ae1af135811da961c707cd581594291a92cf7bcd78c1cf1aca4e4b054600080516020611ff68339815191529060ff16156103655760405162461bcd60e51b815260040161020490611e6a565b60008281526002820160205260408120805460ff19166001179055808061038b8161099e565b15151480156103a557508015156103a18361099e565b1515145b6103ae826109b6565b906103cc5760405162461bcd60e51b81526004016102049190611e00565b507f50e75b23f8ec51bbcb044fe377457e835f3b5ccc7ebf69e80906452015dff607336103f98282610a1f565b6104155760405162461bcd60e51b815260040161020490611e33565b6000610420886108ff565b9050600061042d896107ce565b6001600160a01b031663d17b71d78a6040518263ffffffff1660e01b815260040161045a91815260200190565b60206040518083038186803b15801561047257600080fd5b505afa158015610486573d6000803e3d6000fd5b505050506040513d601f19601f820116820180604052508101906104aa9190611d5a565b90506104b68982610e80565b61050c5760405162461bcd60e51b815260206004820152602160248201527f54656c6c65723a20646f6573206e6f74206e656564206c69717569646174696f6044820152603760f91b6064820152608401610204565b6000806105198b8461083b565b9150915060006105288c610fa3565b600101546105358d610fa3565b546105409190611ea1565b905061054f8c82336001610a53565b508215610563576105638c84848733610fc0565b845460408051338152602081018690529081018390526001600160a01b03909116908d907f9950a0562c02382e2e840daa73082d5be7660ce37601f28fa4c84089c11e8a069060600160405180910390a35050506000978852505050600290930160205250506040909120805460ff191690555050565b600080806105e78161099e565b151514801561060157508015156105fd8361099e565b1515145b61060a826109b6565b906106285760405162461bcd60e51b81526004016102049190611e00565b507f50e75b23f8ec51bbcb044fe377457e835f3b5ccc7ebf69e80906452015dff607336106558282610a1f565b6106715760405162461bcd60e51b815260040161020490611e33565b60008080527f7b305b6be5f275f648d05716597c483d754c2a242bd605feba3c64fb853605366020527f63eec20f0ae1af135811da961c707cd581594291a92cf7bcd78c1cf1aca4e4b054600080516020611ff68339815191529060ff16156106ec5760405162461bcd60e51b815260040161020490611e6a565b60008281526002820160205260408120805460ff1916600117905561072689610714816108ff565b600101546001600160a01b03166110bd565b905060006107338a611155565b9050808210801561074357508189115b15610797576000818a116107605761075b838b611f6b565b61076a565b61076a8383611f6b565b90506107956107788c6108ff565b600101546001600160a01b03163361078f8e611239565b84611260565b505b6107ac8a8a6107a58d611239565b6000610a53565b505050600091825260020160205260409020805460ff19169055505050505050565b60009081527f0553069f1f0518e59f8623c18c83a1f987f2a0544d563e98dd803a7078142a8660209081526040808320600201546001600160a01b0390811684527f0553069f1f0518e59f8623c18c83a1f987f2a0544d563e98dd803a7078142a8b909252909120541690565b600080600061084985610fa3565b6001015461085686610fa3565b546108619190611ea1565b90506000610876826108716112be565b6112ef565b6108809083611ea1565b905084156108cc576108bd610894876108ff565b600201546001600160a01b03166108aa886108ff565b600101546001600160a01b03168761091c565b92506108c98385611ea1565b93505b808410156108ea576108dd8661130c565b6108e79085611ea1565b93505b808411156108f6578093505b50509250929050565b60006109096113c2565b6000928352600101602052506040902090565b60405163c05b1ec360e01b8152600090309063c05b1ec39061094690879087908790600401611ddc565b60206040518083038186803b15801561095e57600080fd5b505afa158015610972573d6000803e3d6000fd5b505050506040513d601f19601f820116820180604052508101906109969190611d5a565b949350505050565b60008181526001602052604090205460ff165b919050565b6060816109eb576040518060400160405280601081526020016f14185d5cd8589b194e881c185d5cd95960821b815250610a19565b6040518060400160405280601481526020017314185d5cd8589b194e881b9bdd081c185d5cd95960621b8152505b92915050565b6000610a296113eb565b6000938452602090815260408085206001600160a01b039490941685529290525090205460ff1690565b6000808411610a995760405162461bcd60e51b815260206004820152601260248201527154656c6c65723a207a65726f20726570617960701b6044820152606401610204565b610aa285610fa3565b60010154610aaf86610fa3565b54610aba9190611ea1565b905083811015610acd5792506000610ada565b610ad78482611f6b565b90505b60007f0553069f1f0518e59f8623c18c83a1f987f2a0544d563e98dd803a7078142a8d81610b07886108ff565b600101546001600160a01b039081168252602082019290925260400160002054811691508416610b3687611239565b6001600160a01b03161415610bce57610b4e86611239565b6001600160a01b031663125bfb66610b65886108ff565b600101546040516001600160e01b031960e084901b168152610b97916001600160a01b03169085908a90600401611ddc565b600060405180830381600087803b158015610bb157600080fd5b505af1158015610bc5573d6000803e3d6000fd5b50505050610bef565b610bef610bda876108ff565b600101546001600160a01b0316858388611260565b600080610bfb88610fa3565b60010154871015610c2f57508580610c1289610fa3565b6001016000828254610c249190611f6b565b90915550610c989050565b6000610c3a89610fa3565b600101541115610c6f57610c4d88610fa3565b600101549050610c5d8188611f6b565b96506000610c6a89610fa3565b600101555b8615610c985786915086610c8289610fa3565b8054600090610c92908490611f6b565b90915550505b604051638a700b5360e01b815260048101839052602481018290526001600160a01b03841690638a700b5390604401600060405180830381600087803b158015610ce157600080fd5b505af1158015610cf5573d6000803e3d6000fd5b505050508415610d9d578315610d4d5760405162461bcd60e51b815260206004820152601f60248201527f54656c6c65723a206c6971756964617465207061727469616c207265706179006044820152606401610204565b6004610d58896108ff565b600401601c6101000a81548160ff02191690836004811115610d8a57634e487b7160e01b600052602160045260246000fd5b0217905550610d9888611401565b610e75565b83610e1c576003610dad896108ff565b600401601c6101000a81548160ff02191690836004811115610ddf57634e487b7160e01b600052602160045260246000fd5b0217905550610e0088610df18a6108ff565b546001600160a01b03166114cc565b610e1c88610e0d8a6108ff565b546001600160a01b0316611560565b610e25886108ff565b54604080518981523360208201529081018690526001600160a01b039091169089907f20a1f2ec363af45dc5ee7d9d622f2dd68b52501c382126c7f04b53663c4c69bf9060600160405180910390a35b505050949350505050565b600080610e8c846108ff565b90506002600482810154600160e01b900460ff1690811115610ebe57634e487b7160e01b600052602160045260246000fd5b14610ecd576000915050610a19565b6004810154600160d01b900461ffff1615610f6d576040516372e1132760e01b81526004810185905260009030906372e113279060240160606040518083038186803b158015610f1c57600080fd5b505afa158015610f30573d6000803e3d6000fd5b505050506040513d601f19601f82011682018060405250810190610f549190611d93565b5091505083811115610f6b57600192505050610a19565b505b6004810154610f929063ffffffff600160801b8204811691600160a01b900416611eb9565b63ffffffff16421015949350505050565b6000610fad6113c2565b6000928352600201602052506040902090565b6004610fcb866108ff565b600490810154600160e01b900460ff1690811115610ff957634e487b7160e01b600052602160045260246000fd5b146110465760405162461bcd60e51b815260206004820152601b60248201527f54656c6c65723a206c6f616e206e6f74206c69717569646174656400000000006044820152606401610204565b82841161109757600061108461105b876108ff565b600101546001600160a01b0316611071886108ff565b600201546001600160a01b03168761091c565b90506110918682846115d5565b506110b6565b6110a28583836115d5565b6110b685826110b18688611f6b565b611692565b5050505050565b6000816001600160a01b03166370a082316110d785611239565b6040516001600160e01b031960e084901b1681526001600160a01b03909116600482015260240160206040518083038186803b15801561111657600080fd5b505afa15801561112a573d6000803e3d6000fd5b505050506040513d601f19601f8201168201806040525081019061114e9190611d5a565b9392505050565b60006001611162836108ff565b600490810154600160e01b900460ff169081111561119057634e487b7160e01b600052602160045260246000fd5b14156111ca5760006111ab836111a585611734565b54611751565b9050806111b784611734565b546111c29190611ea1565b9150506109b1565b60026111d5836108ff565b600490810154600160e01b900460ff169081111561120357634e487b7160e01b600052602160045260246000fd5b14156112315761121282610fa3565b6001015461121f83610fa3565b5461122a9190611ea1565b90506109b1565b506000919050565b60006112436113c2565b60009283526004016020525060409020546001600160a01b031690565b6112b8846323b872dd60e01b85858560405160240161128193929190611ddc565b60408051601f198184030181529190526020810180516001600160e01b03166001600160e01b031990931692909217909152611766565b50505050565b60006112e97f5166f2578d96d76687be006158a90b639fcc7501b0381b6b4ed953aca3e0e183611838565b54919050565b600061271061130261ffff841685611f1c565b61114e9190611ee1565b600080611318836108ff565b600101546001600160a01b0316905061133183826110bd565b61133b9083611ea1565b9150600061134884611840565b905060006113558261185d565b11156113bb5760005b6113678261185d565b8110156113b95760006113838661137e8585611867565b6110bd565b90506113996113928484611867565b858361091c565b6113a39086611ea1565b94505080806113b190611fae565b91505061135e565b505b5050919050565b60007f0553069f1f0518e59f8623c18c83a1f987f2a0544d563e98dd803a7078142a855b905090565b6000600080516020611ff68339815191526113e6565b600061140b611873565b60008381526001919091016020526040812091505b6114298261185d565b8110156114c7576006546001600160a01b03166001600160a01b03166323b872dd306000600901546001600160a01b03166114648686611867565b6040518463ffffffff1660e01b815260040161148293929190611ddc565b600060405180830381600087803b15801561149c57600080fd5b505af11580156114b0573d6000803e3d6000fd5b5050505080806114bf90611fae565b915050611420565b505050565b61155c826114d9846107ce565b6001600160a01b031663d17b71d7856040518263ffffffff1660e01b815260040161150691815260200190565b60206040518083038186803b15801561151e57600080fd5b505afa158015611532573d6000803e3d6000fd5b505050506040513d601f19601f820116820180604052508101906115569190611d5a565b836115d5565b5050565b600061156a611873565b60008481526001919091016020526040812091505b6115888261185d565b8110156112b8576115c261159a611873565b6001600160a01b0385166000908152602091909152604090206115bd8484611867565b61189b565b50806115cd81611fae565b91505061157f565b6115de836107ce565b604051630ad58d2f60e01b815260048101859052602481018490526001600160a01b0383811660448301529190911690630ad58d2f90606401600060405180830381600087803b15801561163157600080fd5b505af1158015611645573d6000803e3d6000fd5b50505050806001600160a01b0316837f7c5e5cb62e5ed3caf3764e4b0afedfedef533e27809d43367799787ad2abcd418460405161168591815260200190565b60405180910390a3505050565b60008381527f0553069f1f0518e59f8623c18c83a1f987f2a0544d563e98dd803a7078142a8a60205260409020816116e1856116cd816108ff565b600101546001600160a01b031686846118a7565b905060005b6116ef8361185d565b81101561172c5781611703575050506114c7565b611718866117118584611867565b87856118a7565b91508061172481611fae565b9150506116e6565b505050505050565b600061173e6113c2565b6000928352600301602052506040902090565b600061114e61175f84611a42565b83906112ef565b60006117bb826040518060400160405280602081526020017f5361666545524332303a206c6f772d6c6576656c2063616c6c206661696c6564815250856001600160a01b0316611aa29092919063ffffffff16565b8051909150156114c757808060200190518101906117d99190611d22565b6114c75760405162461bcd60e51b815260206004820152602a60248201527f5361666545524332303a204552433230206f7065726174696f6e20646964206e6044820152691bdd081cdd58d8d9595960b21b6064820152608401610204565b600080610fad565b600061184a6113c2565b6000928352600501602052506040902090565b6000610a19825490565b600061114e8383611ab1565b60007f36ec560bcbaf142f58499b90035254e32b3f3563174bc96dc2b2724bafa4c2a76113e6565b600061114e8383611b45565b6000806118b486866110bd565b90508015611a385760006118c7876108ff565b600101546001600160a01b03878116911614156118e5575080611908565b611905866118f2896108ff565b600101546001600160a01b03168461091c565b90505b83811161198c5761191887611239565b6001600160a01b031663125bfb668787856040518463ffffffff1660e01b815260040161194793929190611ddc565b600060405180830381600087803b15801561196157600080fd5b505af1158015611975573d6000803e3d6000fd5b5050505080846119859190611f6b565b9350611a36565b6000611997886108ff565b600101546001600160a01b03888116911614156119b55750836119c6565b6119c3836108718785611b94565b90505b6119cf88611239565b6001600160a01b031663125bfb668888846040518463ffffffff1660e01b81526004016119fe93929190611ddc565b600060405180830381600087803b158015611a1857600080fd5b505af1158015611a2c573d6000803e3d6000fd5b5050505060009450505b505b5090949350505050565b60006301e13380611a52836108ff565b60040154600160c01b900461ffff16611a6a846108ff565b60040154611a859190600160801b900463ffffffff16611f3b565b611a8f9190611ef5565b905061ffff81166109b157506001919050565b60606109968484600085611bc1565b81546000908210611b0f5760405162461bcd60e51b815260206004820152602260248201527f456e756d657261626c655365743a20696e646578206f7574206f6620626f756e604482015261647360f01b6064820152608401610204565b826000018281548110611b3257634e487b7160e01b600052603260045260246000fd5b9060005260206000200154905092915050565b6000818152600183016020526040812054611b8c57508154600181810184556000848152602080822090930184905584548482528286019093526040902091909155610a19565b506000610a19565b60008115611bb85781611ba961271085611f1c565b611bb39190611ee1565b61114e565b50600092915050565b606082471015611c225760405162461bcd60e51b815260206004820152602660248201527f416464726573733a20696e73756666696369656e742062616c616e636520666f6044820152651c8818d85b1b60d21b6064820152608401610204565b843b611c705760405162461bcd60e51b815260206004820152601d60248201527f416464726573733a2063616c6c20746f206e6f6e2d636f6e74726163740000006044820152606401610204565b600080866001600160a01b03168587604051611c8c9190611dc0565b60006040518083038185875af1925050503d8060008114611cc9576040519150601f19603f3d011682016040523d82523d6000602084013e611cce565b606091505b5091509150611cde828286611ce9565b979650505050505050565b60608315611cf857508161114e565b825115611d085782518084602001fd5b8160405162461bcd60e51b81526004016102049190611e00565b600060208284031215611d33578081fd5b8151801515811461114e578182fd5b600060208284031215611d53578081fd5b5035919050565b600060208284031215611d6b578081fd5b5051919050565b60008060408385031215611d84578081fd5b50508035926020909101359150565b600080600060608486031215611da7578081fd5b8351925060208401519150604084015190509250925092565b60008251611dd2818460208701611f82565b9190910192915050565b6001600160a01b039384168152919092166020820152604081019190915260600190565b6000602082528251806020840152611e1f816040850160208701611f82565b601f01601f19169190910160400192915050565b6020808252601d908201527f416363657373436f6e74726f6c3a206e6f7420617574686f72697a6564000000604082015260600190565b60208082526018908201527f416363657373436f6e74726f6c3a207265656e74657265640000000000000000604082015260600190565b60008219821115611eb457611eb4611fc9565b500190565b600063ffffffff808316818516808303821115611ed857611ed8611fc9565b01949350505050565b600082611ef057611ef0611fdf565b500490565b600067ffffffffffffffff80841680611f1057611f10611fdf565b92169190910492915050565b6000816000190483118215151615611f3657611f36611fc9565b500290565b600067ffffffffffffffff80831681851681830481118215151615611f6257611f62611fc9565b02949350505050565b600082821015611f7d57611f7d611fc9565b500390565b60005b83811015611f9d578181015183820152602001611f85565b838111156112b85750506000910152565b6000600019821415611fc257611fc2611fc9565b5060010190565b634e487b7160e01b600052601160045260246000fd5b634e487b7160e01b600052601260045260246000fdfe7b305b6be5f275f648d05716597c483d754c2a242bd605feba3c64fb85360534a2646970667358221220d4ca4187d3b34cbce12ece919f27a378dae5d6e5f4f54878a3a4a44a1ba2a6f664736f6c63430008030033",
              "deployedBytecode": "0x608060405234801561001057600080fd5b506004361061004c5760003560e01c80635ebc6334146100515780638a700b531461007d578063ccdd9f5d14610092578063e89ad656146100a5575b600080fd5b61006461005f366004611d42565b6100b8565b6040805192835260208301919091520160405180910390f35b61009061008b366004611d72565b610189565b005b6100906100a0366004611d42565b6102ea565b6100906100b3366004611d72565b6105da565b60008061014a836100c8856107ce565b6001600160a01b031663d17b71d7866040518263ffffffff1660e01b81526004016100f591815260200190565b60206040518083038186803b15801561010d57600080fd5b505afa158015610121573d6000803e3d6000fd5b505050506040513d601f19601f820116820180604052508101906101459190611d5a565b61083b565b509150610182610159846108ff565b600101546001600160a01b031661016f856108ff565b600201546001600160a01b03168461091c565b9050915091565b60008080527f7b305b6be5f275f648d05716597c483d754c2a242bd605feba3c64fb853605366020527f63eec20f0ae1af135811da961c707cd581594291a92cf7bcd78c1cf1aca4e4b054600080516020611ff68339815191529060ff161561020d5760405162461bcd60e51b815260040161020490611e6a565b60405180910390fd5b60008281526002820160205260408120805460ff1916600117905580806102338161099e565b151514801561024d57508015156102498361099e565b1515145b610256826109b6565b906102745760405162461bcd60e51b81526004016102049190611e00565b507f50e75b23f8ec51bbcb044fe377457e835f3b5ccc7ebf69e80906452015dff607336102a18282610a1f565b6102bd5760405162461bcd60e51b815260040161020490611e33565b6102ca8888336000610a53565b5050506000938452505060020160205260409020805460ff191690555050565b60008080527f7b305b6be5f275f648d05716597c483d754c2a242bd605feba3c64fb853605366020527f63eec20f0ae1af135811da961c707cd581594291a92cf7bcd78c1cf1aca4e4b054600080516020611ff68339815191529060ff16156103655760405162461bcd60e51b815260040161020490611e6a565b60008281526002820160205260408120805460ff19166001179055808061038b8161099e565b15151480156103a557508015156103a18361099e565b1515145b6103ae826109b6565b906103cc5760405162461bcd60e51b81526004016102049190611e00565b507f50e75b23f8ec51bbcb044fe377457e835f3b5ccc7ebf69e80906452015dff607336103f98282610a1f565b6104155760405162461bcd60e51b815260040161020490611e33565b6000610420886108ff565b9050600061042d896107ce565b6001600160a01b031663d17b71d78a6040518263ffffffff1660e01b815260040161045a91815260200190565b60206040518083038186803b15801561047257600080fd5b505afa158015610486573d6000803e3d6000fd5b505050506040513d601f19601f820116820180604052508101906104aa9190611d5a565b90506104b68982610e80565b61050c5760405162461bcd60e51b815260206004820152602160248201527f54656c6c65723a20646f6573206e6f74206e656564206c69717569646174696f6044820152603760f91b6064820152608401610204565b6000806105198b8461083b565b9150915060006105288c610fa3565b600101546105358d610fa3565b546105409190611ea1565b905061054f8c82336001610a53565b508215610563576105638c84848733610fc0565b845460408051338152602081018690529081018390526001600160a01b03909116908d907f9950a0562c02382e2e840daa73082d5be7660ce37601f28fa4c84089c11e8a069060600160405180910390a35050506000978852505050600290930160205250506040909120805460ff191690555050565b600080806105e78161099e565b151514801561060157508015156105fd8361099e565b1515145b61060a826109b6565b906106285760405162461bcd60e51b81526004016102049190611e00565b507f50e75b23f8ec51bbcb044fe377457e835f3b5ccc7ebf69e80906452015dff607336106558282610a1f565b6106715760405162461bcd60e51b815260040161020490611e33565b60008080527f7b305b6be5f275f648d05716597c483d754c2a242bd605feba3c64fb853605366020527f63eec20f0ae1af135811da961c707cd581594291a92cf7bcd78c1cf1aca4e4b054600080516020611ff68339815191529060ff16156106ec5760405162461bcd60e51b815260040161020490611e6a565b60008281526002820160205260408120805460ff1916600117905561072689610714816108ff565b600101546001600160a01b03166110bd565b905060006107338a611155565b9050808210801561074357508189115b15610797576000818a116107605761075b838b611f6b565b61076a565b61076a8383611f6b565b90506107956107788c6108ff565b600101546001600160a01b03163361078f8e611239565b84611260565b505b6107ac8a8a6107a58d611239565b6000610a53565b505050600091825260020160205260409020805460ff19169055505050505050565b60009081527f0553069f1f0518e59f8623c18c83a1f987f2a0544d563e98dd803a7078142a8660209081526040808320600201546001600160a01b0390811684527f0553069f1f0518e59f8623c18c83a1f987f2a0544d563e98dd803a7078142a8b909252909120541690565b600080600061084985610fa3565b6001015461085686610fa3565b546108619190611ea1565b90506000610876826108716112be565b6112ef565b6108809083611ea1565b905084156108cc576108bd610894876108ff565b600201546001600160a01b03166108aa886108ff565b600101546001600160a01b03168761091c565b92506108c98385611ea1565b93505b808410156108ea576108dd8661130c565b6108e79085611ea1565b93505b808411156108f6578093505b50509250929050565b60006109096113c2565b6000928352600101602052506040902090565b60405163c05b1ec360e01b8152600090309063c05b1ec39061094690879087908790600401611ddc565b60206040518083038186803b15801561095e57600080fd5b505afa158015610972573d6000803e3d6000fd5b505050506040513d601f19601f820116820180604052508101906109969190611d5a565b949350505050565b60008181526001602052604090205460ff165b919050565b6060816109eb576040518060400160405280601081526020016f14185d5cd8589b194e881c185d5cd95960821b815250610a19565b6040518060400160405280601481526020017314185d5cd8589b194e881b9bdd081c185d5cd95960621b8152505b92915050565b6000610a296113eb565b6000938452602090815260408085206001600160a01b039490941685529290525090205460ff1690565b6000808411610a995760405162461bcd60e51b815260206004820152601260248201527154656c6c65723a207a65726f20726570617960701b6044820152606401610204565b610aa285610fa3565b60010154610aaf86610fa3565b54610aba9190611ea1565b905083811015610acd5792506000610ada565b610ad78482611f6b565b90505b60007f0553069f1f0518e59f8623c18c83a1f987f2a0544d563e98dd803a7078142a8d81610b07886108ff565b600101546001600160a01b039081168252602082019290925260400160002054811691508416610b3687611239565b6001600160a01b03161415610bce57610b4e86611239565b6001600160a01b031663125bfb66610b65886108ff565b600101546040516001600160e01b031960e084901b168152610b97916001600160a01b03169085908a90600401611ddc565b600060405180830381600087803b158015610bb157600080fd5b505af1158015610bc5573d6000803e3d6000fd5b50505050610bef565b610bef610bda876108ff565b600101546001600160a01b0316858388611260565b600080610bfb88610fa3565b60010154871015610c2f57508580610c1289610fa3565b6001016000828254610c249190611f6b565b90915550610c989050565b6000610c3a89610fa3565b600101541115610c6f57610c4d88610fa3565b600101549050610c5d8188611f6b565b96506000610c6a89610fa3565b600101555b8615610c985786915086610c8289610fa3565b8054600090610c92908490611f6b565b90915550505b604051638a700b5360e01b815260048101839052602481018290526001600160a01b03841690638a700b5390604401600060405180830381600087803b158015610ce157600080fd5b505af1158015610cf5573d6000803e3d6000fd5b505050508415610d9d578315610d4d5760405162461bcd60e51b815260206004820152601f60248201527f54656c6c65723a206c6971756964617465207061727469616c207265706179006044820152606401610204565b6004610d58896108ff565b600401601c6101000a81548160ff02191690836004811115610d8a57634e487b7160e01b600052602160045260246000fd5b0217905550610d9888611401565b610e75565b83610e1c576003610dad896108ff565b600401601c6101000a81548160ff02191690836004811115610ddf57634e487b7160e01b600052602160045260246000fd5b0217905550610e0088610df18a6108ff565b546001600160a01b03166114cc565b610e1c88610e0d8a6108ff565b546001600160a01b0316611560565b610e25886108ff565b54604080518981523360208201529081018690526001600160a01b039091169089907f20a1f2ec363af45dc5ee7d9d622f2dd68b52501c382126c7f04b53663c4c69bf9060600160405180910390a35b505050949350505050565b600080610e8c846108ff565b90506002600482810154600160e01b900460ff1690811115610ebe57634e487b7160e01b600052602160045260246000fd5b14610ecd576000915050610a19565b6004810154600160d01b900461ffff1615610f6d576040516372e1132760e01b81526004810185905260009030906372e113279060240160606040518083038186803b158015610f1c57600080fd5b505afa158015610f30573d6000803e3d6000fd5b505050506040513d601f19601f82011682018060405250810190610f549190611d93565b5091505083811115610f6b57600192505050610a19565b505b6004810154610f929063ffffffff600160801b8204811691600160a01b900416611eb9565b63ffffffff16421015949350505050565b6000610fad6113c2565b6000928352600201602052506040902090565b6004610fcb866108ff565b600490810154600160e01b900460ff1690811115610ff957634e487b7160e01b600052602160045260246000fd5b146110465760405162461bcd60e51b815260206004820152601b60248201527f54656c6c65723a206c6f616e206e6f74206c69717569646174656400000000006044820152606401610204565b82841161109757600061108461105b876108ff565b600101546001600160a01b0316611071886108ff565b600201546001600160a01b03168761091c565b90506110918682846115d5565b506110b6565b6110a28583836115d5565b6110b685826110b18688611f6b565b611692565b5050505050565b6000816001600160a01b03166370a082316110d785611239565b6040516001600160e01b031960e084901b1681526001600160a01b03909116600482015260240160206040518083038186803b15801561111657600080fd5b505afa15801561112a573d6000803e3d6000fd5b505050506040513d601f19601f8201168201806040525081019061114e9190611d5a565b9392505050565b60006001611162836108ff565b600490810154600160e01b900460ff169081111561119057634e487b7160e01b600052602160045260246000fd5b14156111ca5760006111ab836111a585611734565b54611751565b9050806111b784611734565b546111c29190611ea1565b9150506109b1565b60026111d5836108ff565b600490810154600160e01b900460ff169081111561120357634e487b7160e01b600052602160045260246000fd5b14156112315761121282610fa3565b6001015461121f83610fa3565b5461122a9190611ea1565b90506109b1565b506000919050565b60006112436113c2565b60009283526004016020525060409020546001600160a01b031690565b6112b8846323b872dd60e01b85858560405160240161128193929190611ddc565b60408051601f198184030181529190526020810180516001600160e01b03166001600160e01b031990931692909217909152611766565b50505050565b60006112e97f5166f2578d96d76687be006158a90b639fcc7501b0381b6b4ed953aca3e0e183611838565b54919050565b600061271061130261ffff841685611f1c565b61114e9190611ee1565b600080611318836108ff565b600101546001600160a01b0316905061133183826110bd565b61133b9083611ea1565b9150600061134884611840565b905060006113558261185d565b11156113bb5760005b6113678261185d565b8110156113b95760006113838661137e8585611867565b6110bd565b90506113996113928484611867565b858361091c565b6113a39086611ea1565b94505080806113b190611fae565b91505061135e565b505b5050919050565b60007f0553069f1f0518e59f8623c18c83a1f987f2a0544d563e98dd803a7078142a855b905090565b6000600080516020611ff68339815191526113e6565b600061140b611873565b60008381526001919091016020526040812091505b6114298261185d565b8110156114c7576006546001600160a01b03166001600160a01b03166323b872dd306000600901546001600160a01b03166114648686611867565b6040518463ffffffff1660e01b815260040161148293929190611ddc565b600060405180830381600087803b15801561149c57600080fd5b505af11580156114b0573d6000803e3d6000fd5b5050505080806114bf90611fae565b915050611420565b505050565b61155c826114d9846107ce565b6001600160a01b031663d17b71d7856040518263ffffffff1660e01b815260040161150691815260200190565b60206040518083038186803b15801561151e57600080fd5b505afa158015611532573d6000803e3d6000fd5b505050506040513d601f19601f820116820180604052508101906115569190611d5a565b836115d5565b5050565b600061156a611873565b60008481526001919091016020526040812091505b6115888261185d565b8110156112b8576115c261159a611873565b6001600160a01b0385166000908152602091909152604090206115bd8484611867565b61189b565b50806115cd81611fae565b91505061157f565b6115de836107ce565b604051630ad58d2f60e01b815260048101859052602481018490526001600160a01b0383811660448301529190911690630ad58d2f90606401600060405180830381600087803b15801561163157600080fd5b505af1158015611645573d6000803e3d6000fd5b50505050806001600160a01b0316837f7c5e5cb62e5ed3caf3764e4b0afedfedef533e27809d43367799787ad2abcd418460405161168591815260200190565b60405180910390a3505050565b60008381527f0553069f1f0518e59f8623c18c83a1f987f2a0544d563e98dd803a7078142a8a60205260409020816116e1856116cd816108ff565b600101546001600160a01b031686846118a7565b905060005b6116ef8361185d565b81101561172c5781611703575050506114c7565b611718866117118584611867565b87856118a7565b91508061172481611fae565b9150506116e6565b505050505050565b600061173e6113c2565b6000928352600301602052506040902090565b600061114e61175f84611a42565b83906112ef565b60006117bb826040518060400160405280602081526020017f5361666545524332303a206c6f772d6c6576656c2063616c6c206661696c6564815250856001600160a01b0316611aa29092919063ffffffff16565b8051909150156114c757808060200190518101906117d99190611d22565b6114c75760405162461bcd60e51b815260206004820152602a60248201527f5361666545524332303a204552433230206f7065726174696f6e20646964206e6044820152691bdd081cdd58d8d9595960b21b6064820152608401610204565b600080610fad565b600061184a6113c2565b6000928352600501602052506040902090565b6000610a19825490565b600061114e8383611ab1565b60007f36ec560bcbaf142f58499b90035254e32b3f3563174bc96dc2b2724bafa4c2a76113e6565b600061114e8383611b45565b6000806118b486866110bd565b90508015611a385760006118c7876108ff565b600101546001600160a01b03878116911614156118e5575080611908565b611905866118f2896108ff565b600101546001600160a01b03168461091c565b90505b83811161198c5761191887611239565b6001600160a01b031663125bfb668787856040518463ffffffff1660e01b815260040161194793929190611ddc565b600060405180830381600087803b15801561196157600080fd5b505af1158015611975573d6000803e3d6000fd5b5050505080846119859190611f6b565b9350611a36565b6000611997886108ff565b600101546001600160a01b03888116911614156119b55750836119c6565b6119c3836108718785611b94565b90505b6119cf88611239565b6001600160a01b031663125bfb668888846040518463ffffffff1660e01b81526004016119fe93929190611ddc565b600060405180830381600087803b158015611a1857600080fd5b505af1158015611a2c573d6000803e3d6000fd5b5050505060009450505b505b5090949350505050565b60006301e13380611a52836108ff565b60040154600160c01b900461ffff16611a6a846108ff565b60040154611a859190600160801b900463ffffffff16611f3b565b611a8f9190611ef5565b905061ffff81166109b157506001919050565b60606109968484600085611bc1565b81546000908210611b0f5760405162461bcd60e51b815260206004820152602260248201527f456e756d657261626c655365743a20696e646578206f7574206f6620626f756e604482015261647360f01b6064820152608401610204565b826000018281548110611b3257634e487b7160e01b600052603260045260246000fd5b9060005260206000200154905092915050565b6000818152600183016020526040812054611b8c57508154600181810184556000848152602080822090930184905584548482528286019093526040902091909155610a19565b506000610a19565b60008115611bb85781611ba961271085611f1c565b611bb39190611ee1565b61114e565b50600092915050565b606082471015611c225760405162461bcd60e51b815260206004820152602660248201527f416464726573733a20696e73756666696369656e742062616c616e636520666f6044820152651c8818d85b1b60d21b6064820152608401610204565b843b611c705760405162461bcd60e51b815260206004820152601d60248201527f416464726573733a2063616c6c20746f206e6f6e2d636f6e74726163740000006044820152606401610204565b600080866001600160a01b03168587604051611c8c9190611dc0565b60006040518083038185875af1925050503d8060008114611cc9576040519150601f19603f3d011682016040523d82523d6000602084013e611cce565b606091505b5091509150611cde828286611ce9565b979650505050505050565b60608315611cf857508161114e565b825115611d085782518084602001fd5b8160405162461bcd60e51b81526004016102049190611e00565b600060208284031215611d33578081fd5b8151801515811461114e578182fd5b600060208284031215611d53578081fd5b5035919050565b600060208284031215611d6b578081fd5b5051919050565b60008060408385031215611d84578081fd5b50508035926020909101359150565b600080600060608486031215611da7578081fd5b8351925060208401519150604084015190509250925092565b60008251611dd2818460208701611f82565b9190910192915050565b6001600160a01b039384168152919092166020820152604081019190915260600190565b6000602082528251806020840152611e1f816040850160208701611f82565b601f01601f19169190910160400192915050565b6020808252601d908201527f416363657373436f6e74726f6c3a206e6f7420617574686f72697a6564000000604082015260600190565b60208082526018908201527f416363657373436f6e74726f6c3a207265656e74657265640000000000000000604082015260600190565b60008219821115611eb457611eb4611fc9565b500190565b600063ffffffff808316818516808303821115611ed857611ed8611fc9565b01949350505050565b600082611ef057611ef0611fdf565b500490565b600067ffffffffffffffff80841680611f1057611f10611fdf565b92169190910492915050565b6000816000190483118215151615611f3657611f36611fc9565b500290565b600067ffffffffffffffff80831681851681830481118215151615611f6257611f62611fc9565b02949350505050565b600082821015611f7d57611f7d611fc9565b500390565b60005b83811015611f9d578181015183820152602001611f85565b838111156112b85750506000910152565b6000600019821415611fc257611fc2611fc9565b5060010190565b634e487b7160e01b600052601160045260246000fd5b634e487b7160e01b600052601260045260246000fdfe7b305b6be5f275f648d05716597c483d754c2a242bd605feba3c64fb85360534a2646970667358221220d4ca4187d3b34cbce12ece919f27a378dae5d6e5f4f54878a3a4a44a1ba2a6f664736f6c63430008030033",
              "devdoc": {
                "events": {
                  "LoanLiquidated(uint256,address,address,uint256,uint256)": {
                    "params": {
                      "borrower": "Account address of the borrower",
                      "liquidator": "Account address of the liquidator",
                      "loanID": "ID of loan from which collateral was withdrawn",
                      "reward": "Value in lending token paid out to liquidator",
                      "tokensIn": "Percentage of the collateral price paid by the liquidator to the lending pool"
                    }
                  },
                  "LoanRepaid(uint256,address,uint256,address,uint256)": {
                    "params": {
                      "amountPaid": "Amount of the loan paid back",
                      "borrower": "Account address of the borrower",
                      "loanID": "ID of loan from which collateral was withdrawn",
                      "payer": "Account address of the payer",
                      "totalOwed": "Total amount of the loan to be repaid"
                    }
                  }
                },
                "kind": "dev",
                "methods": {
                  "escrowRepay(uint256,uint256)": {
                    "details": "If the Escrow's balance of the borrowed token is less than the amount to repay, transfer tokens from the sender's wallet.Only the owner of the Escrow can call this. If someone else wants to make a payment, they should call the loan manager directly.",
                    "params": {
                      "amount": "The amount being repaid.",
                      "loanID": "The id of the loan being used."
                    }
                  },
                  "getLiquidationReward(uint256)": {
                    "params": {
                      "loanID": "The loan ID to get the info."
                    },
                    "returns": {
                      "inCollateral_": "The value the liquidator will receive denoted in collateral tokens.",
                      "inLending_": "The value the liquidator will receive denoted in lending tokens."
                    }
                  },
                  "liquidateLoan(uint256)": {
                    "params": {
                      "loanID": "The ID of the loan to be liquidated"
                    }
                  },
                  "repayLoan(uint256,uint256)": {
                    "params": {
                      "amount": "The amount of tokens to pay back to the loan",
                      "loanID": "The ID of the loan the payment is for"
                    }
                  }
                },
                "version": 1
              },
              "userdoc": {
                "events": {
                  "LoanLiquidated(uint256,address,address,uint256,uint256)": {
                    "notice": "This event is emitted when a loan has been successfully liquidated"
                  },
                  "LoanRepaid(uint256,address,uint256,address,uint256)": {
                    "notice": "This event is emitted when a loan has been successfully repaid"
                  }
                },
                "kind": "user",
                "methods": {
                  "escrowRepay(uint256,uint256)": {
                    "notice": "Repay this Escrow's loan."
                  },
                  "getLiquidationReward(uint256)": {
                    "notice": "It gets the current liquidation reward for a given loan."
                  },
                  "liquidateLoan(uint256)": {
                    "notice": "Liquidate a loan if it is expired or under collateralized"
                  },
                  "repayLoan(uint256,uint256)": {
                    "notice": "Make a payment to a loan"
                  }
                },
                "version": 1
              },
              "storageLayout": {
                "storage": [],
                "types": null
              }
            }
          ],
          "devdoc": {
            "events": {
              "LoanLiquidated(uint256,address,address,uint256,uint256)": {
                "params": {
                  "borrower": "Account address of the borrower",
                  "liquidator": "Account address of the liquidator",
                  "loanID": "ID of loan from which collateral was withdrawn",
                  "reward": "Value in lending token paid out to liquidator",
                  "tokensIn": "Percentage of the collateral price paid by the liquidator to the lending pool"
                }
              },
              "LoanRepaid(uint256,address,uint256,address,uint256)": {
                "params": {
                  "amountPaid": "Amount of the loan paid back",
                  "borrower": "Account address of the borrower",
                  "loanID": "ID of loan from which collateral was withdrawn",
                  "payer": "Account address of the payer",
                  "totalOwed": "Total amount of the loan to be repaid"
                }
              }
            },
            "kind": "dev",
            "methods": {
              "escrowRepay(uint256,uint256)": {
                "details": "If the Escrow's balance of the borrowed token is less than the amount to repay, transfer tokens from the sender's wallet.Only the owner of the Escrow can call this. If someone else wants to make a payment, they should call the loan manager directly.",
                "params": {
                  "amount": "The amount being repaid.",
                  "loanID": "The id of the loan being used."
                }
              },
              "getLiquidationReward(uint256)": {
                "params": {
                  "loanID": "The loan ID to get the info."
                },
                "returns": {
                  "inCollateral_": "The value the liquidator will receive denoted in collateral tokens.",
                  "inLending_": "The value the liquidator will receive denoted in lending tokens."
                }
              },
              "liquidateLoan(uint256)": {
                "params": {
                  "loanID": "The ID of the loan to be liquidated"
                }
              },
              "repayLoan(uint256,uint256)": {
                "params": {
                  "amount": "The amount of tokens to pay back to the loan",
                  "loanID": "The ID of the loan the payment is for"
                }
              }
            },
            "version": 1
          },
          "userdoc": {
            "events": {
              "LoanLiquidated(uint256,address,address,uint256,uint256)": {
                "notice": "This event is emitted when a loan has been successfully liquidated"
              },
              "LoanRepaid(uint256,address,uint256,address,uint256)": {
                "notice": "This event is emitted when a loan has been successfully repaid"
              }
            },
            "kind": "user",
            "methods": {
              "escrowRepay(uint256,uint256)": {
                "notice": "Repay this Escrow's loan."
              },
              "getLiquidationReward(uint256)": {
                "notice": "It gets the current liquidation reward for a given loan."
              },
              "liquidateLoan(uint256)": {
                "notice": "Liquidate a loan if it is expired or under collateralized"
              },
              "repayLoan(uint256,uint256)": {
                "notice": "Make a payment to a loan"
              }
            },
            "version": 1
          },
          "storageLayout": {
            "storage": [],
            "types": null
          }
        }
      ],
      "devdoc": {
        "events": {
          "LoanLiquidated(uint256,address,address,uint256,uint256)": {
            "params": {
              "borrower": "Account address of the borrower",
              "liquidator": "Account address of the liquidator",
              "loanID": "ID of loan from which collateral was withdrawn",
              "reward": "Value in lending token paid out to liquidator",
              "tokensIn": "Percentage of the collateral price paid by the liquidator to the lending pool"
            }
          },
          "LoanRepaid(uint256,address,uint256,address,uint256)": {
            "params": {
              "amountPaid": "Amount of the loan paid back",
              "borrower": "Account address of the borrower",
              "loanID": "ID of loan from which collateral was withdrawn",
              "payer": "Account address of the payer",
              "totalOwed": "Total amount of the loan to be repaid"
            }
          }
        },
        "kind": "dev",
        "methods": {
          "escrowRepay(uint256,uint256)": {
            "details": "If the Escrow's balance of the borrowed token is less than the amount to repay, transfer tokens from the sender's wallet.Only the owner of the Escrow can call this. If someone else wants to make a payment, they should call the loan manager directly.",
            "params": {
              "amount": "The amount being repaid.",
              "loanID": "The id of the loan being used."
            }
          },
          "getLiquidationReward(uint256)": {
            "params": {
              "loanID": "The loan ID to get the info."
            },
            "returns": {
              "inCollateral_": "The value the liquidator will receive denoted in collateral tokens.",
              "inLending_": "The value the liquidator will receive denoted in lending tokens."
            }
          },
          "liquidateLoan(uint256)": {
            "params": {
              "loanID": "The ID of the loan to be liquidated"
            }
          },
          "repayLoan(uint256,uint256)": {
            "params": {
              "amount": "The amount of tokens to pay back to the loan",
              "loanID": "The ID of the loan the payment is for"
            }
          }
        },
        "version": 1
      },
      "userdoc": {
        "events": {
          "LoanLiquidated(uint256,address,address,uint256,uint256)": {
            "notice": "This event is emitted when a loan has been successfully liquidated"
          },
          "LoanRepaid(uint256,address,uint256,address,uint256)": {
            "notice": "This event is emitted when a loan has been successfully repaid"
          }
        },
        "kind": "user",
        "methods": {
          "escrowRepay(uint256,uint256)": {
            "notice": "Repay this Escrow's loan."
          },
          "getLiquidationReward(uint256)": {
            "notice": "It gets the current liquidation reward for a given loan."
          },
          "liquidateLoan(uint256)": {
            "notice": "Liquidate a loan if it is expired or under collateralized"
          },
          "repayLoan(uint256,uint256)": {
            "notice": "Make a payment to a loan"
          }
        },
        "version": 1
      },
      "storageLayout": {
        "storage": [],
        "types": null
      }
    }
  ],
  "devdoc": {
    "events": {
      "LoanLiquidated(uint256,address,address,uint256,uint256)": {
        "params": {
          "borrower": "Account address of the borrower",
          "liquidator": "Account address of the liquidator",
          "loanID": "ID of loan from which collateral was withdrawn",
          "reward": "Value in lending token paid out to liquidator",
          "tokensIn": "Percentage of the collateral price paid by the liquidator to the lending pool"
        }
      },
      "LoanRepaid(uint256,address,uint256,address,uint256)": {
        "params": {
          "amountPaid": "Amount of the loan paid back",
          "borrower": "Account address of the borrower",
          "loanID": "ID of loan from which collateral was withdrawn",
          "payer": "Account address of the payer",
          "totalOwed": "Total amount of the loan to be repaid"
        }
      }
    },
    "kind": "dev",
    "methods": {
      "claimTokens(uint256)": {
        "params": {
          "loanID": "The id of the loan being used."
        }
      },
      "escrowRepay(uint256,uint256)": {
        "details": "If the Escrow's balance of the borrowed token is less than the amount to repay, transfer tokens from the sender's wallet.Only the owner of the Escrow can call this. If someone else wants to make a payment, they should call the loan manager directly.",
        "params": {
          "amount": "The amount being repaid.",
          "loanID": "The id of the loan being used."
        }
      },
      "getLiquidationReward(uint256)": {
        "params": {
          "loanID": "The loan ID to get the info."
        },
        "returns": {
          "inCollateral_": "The value the liquidator will receive denoted in collateral tokens.",
          "inLending_": "The value the liquidator will receive denoted in lending tokens."
        }
      },
      "liquidateLoan(uint256)": {
        "params": {
          "loanID": "The ID of the loan to be liquidated"
        }
      },
      "repayLoan(uint256,uint256)": {
        "params": {
          "amount": "The amount of tokens to pay back to the loan",
          "loanID": "The ID of the loan the payment is for"
        }
      }
    },
    "version": 1
  },
  "userdoc": {
    "events": {
      "LoanLiquidated(uint256,address,address,uint256,uint256)": {
        "notice": "This event is emitted when a loan has been successfully liquidated"
      },
      "LoanRepaid(uint256,address,uint256,address,uint256)": {
        "notice": "This event is emitted when a loan has been successfully repaid"
      },
      "TokensClaimed(address)": {
        "notice": "Notifies when the Escrow's tokens have been claimed."
      }
    },
    "kind": "user",
    "methods": {
      "claimTokens(uint256)": {
        "notice": "Sends the tokens owned by this escrow to the owner."
      },
      "escrowRepay(uint256,uint256)": {
        "notice": "Repay this Escrow's loan."
      },
      "getLiquidationReward(uint256)": {
        "notice": "It gets the current liquidation reward for a given loan."
      },
      "liquidateLoan(uint256)": {
        "notice": "Liquidate a loan if it is expired or under collateralized"
      },
      "repayLoan(uint256,uint256)": {
        "notice": "Make a payment to a loan"
      }
    },
    "version": 1
  },
  "storageLayout": {
    "storage": [],
    "types": null
  }
}