{
  "address": "0x9950dfE1ECD267FFD3559C2abA93Ef7787c45E53",
  "abi": [
    {
      "anonymous": false,
      "inputs": [
        {
          "indexed": true,
          "internalType": "address",
          "name": "user",
          "type": "address"
        },
        {
          "indexed": true,
          "internalType": "address",
          "name": "pauser",
          "type": "address"
        }
      ],
      "name": "AuthorizationGranted",
      "type": "event"
    },
    {
      "anonymous": false,
      "inputs": [
        {
          "indexed": true,
          "internalType": "address",
          "name": "user",
          "type": "address"
        },
        {
          "indexed": true,
          "internalType": "address",
          "name": "pauser",
          "type": "address"
        }
      ],
      "name": "AuthorizationRevoked",
      "type": "event"
    },
    {
      "anonymous": false,
      "inputs": [
        {
          "indexed": true,
          "internalType": "address",
          "name": "account",
          "type": "address"
        },
        {
          "indexed": true,
          "internalType": "address",
          "name": "lendingPoolAddress",
          "type": "address"
        }
      ],
      "name": "LendingPoolPaused",
      "type": "event"
    },
    {
      "anonymous": false,
      "inputs": [
        {
          "indexed": true,
          "internalType": "address",
          "name": "account",
          "type": "address"
        },
        {
          "indexed": true,
          "internalType": "address",
          "name": "lendingPoolAddress",
          "type": "address"
        }
      ],
      "name": "LendingPoolUnpaused",
      "type": "event"
    },
    {
      "anonymous": false,
      "inputs": [
        {
          "indexed": false,
          "internalType": "address",
          "name": "account",
          "type": "address"
        }
      ],
      "name": "Paused",
      "type": "event"
    },
    {
      "anonymous": false,
      "inputs": [
        {
          "indexed": true,
          "internalType": "address",
          "name": "account",
          "type": "address"
        }
      ],
      "name": "PauserAdded",
      "type": "event"
    },
    {
      "anonymous": false,
      "inputs": [
        {
          "indexed": true,
          "internalType": "address",
          "name": "account",
          "type": "address"
        }
      ],
      "name": "PauserRemoved",
      "type": "event"
    },
    {
      "anonymous": false,
      "inputs": [
        {
          "indexed": false,
          "internalType": "bool",
          "name": "restriction",
          "type": "bool"
        },
        {
          "indexed": true,
          "internalType": "address",
          "name": "pauser",
          "type": "address"
        }
      ],
      "name": "PlatformRestricted",
      "type": "event"
    },
    {
      "anonymous": false,
      "inputs": [
        {
          "indexed": true,
          "internalType": "bytes32",
          "name": "settingName",
          "type": "bytes32"
        },
        {
          "indexed": true,
          "internalType": "address",
          "name": "sender",
          "type": "address"
        },
        {
          "indexed": false,
          "internalType": "uint256",
          "name": "value",
          "type": "uint256"
        },
        {
          "indexed": false,
          "internalType": "uint256",
          "name": "minValue",
          "type": "uint256"
        },
        {
          "indexed": false,
          "internalType": "uint256",
          "name": "maxValue",
          "type": "uint256"
        }
      ],
      "name": "PlatformSettingCreated",
      "type": "event"
    },
    {
      "anonymous": false,
      "inputs": [
        {
          "indexed": true,
          "internalType": "bytes32",
          "name": "settingName",
          "type": "bytes32"
        },
        {
          "indexed": false,
          "internalType": "uint256",
          "name": "lastValue",
          "type": "uint256"
        },
        {
          "indexed": true,
          "internalType": "address",
          "name": "sender",
          "type": "address"
        }
      ],
      "name": "PlatformSettingRemoved",
      "type": "event"
    },
    {
      "anonymous": false,
      "inputs": [
        {
          "indexed": true,
          "internalType": "bytes32",
          "name": "settingName",
          "type": "bytes32"
        },
        {
          "indexed": true,
          "internalType": "address",
          "name": "sender",
          "type": "address"
        },
        {
          "indexed": false,
          "internalType": "uint256",
          "name": "oldValue",
          "type": "uint256"
        },
        {
          "indexed": false,
          "internalType": "uint256",
          "name": "newValue",
          "type": "uint256"
        }
      ],
      "name": "PlatformSettingUpdated",
      "type": "event"
    },
    {
      "anonymous": false,
      "inputs": [
        {
          "indexed": false,
          "internalType": "address",
          "name": "account",
          "type": "address"
        }
      ],
      "name": "Unpaused",
      "type": "event"
    },
    {
      "inputs": [],
      "name": "CETH_ADDRESS",
      "outputs": [
        {
          "internalType": "address",
          "name": "",
          "type": "address"
        }
      ],
      "stateMutability": "view",
      "type": "function"
    },
    {
      "inputs": [],
      "name": "ETH_ADDRESS",
      "outputs": [
        {
          "internalType": "address",
          "name": "",
          "type": "address"
        }
      ],
      "stateMutability": "view",
      "type": "function"
    },
    {
      "inputs": [],
      "name": "WETH_ADDRESS",
      "outputs": [
        {
          "internalType": "address",
          "name": "",
          "type": "address"
        }
      ],
      "stateMutability": "view",
      "type": "function"
    },
    {
      "inputs": [],
      "name": "_updateImplementationStored",
      "outputs": [],
      "stateMutability": "nonpayable",
      "type": "function"
    },
    {
      "inputs": [
        {
          "internalType": "address",
          "name": "addressToAdd",
          "type": "address"
        }
      ],
      "name": "addAuthorizedAddress",
      "outputs": [],
      "stateMutability": "nonpayable",
      "type": "function"
    },
    {
      "inputs": [
        {
          "internalType": "address[]",
          "name": "addressesToAdd",
          "type": "address[]"
        }
      ],
      "name": "addAuthorizedAddressList",
      "outputs": [],
      "stateMutability": "nonpayable",
      "type": "function"
    },
    {
      "inputs": [
        {
          "internalType": "address",
          "name": "escrowAddress",
          "type": "address"
        }
      ],
      "name": "addEscrowAuthorized",
      "outputs": [],
      "stateMutability": "nonpayable",
      "type": "function"
    },
    {
      "inputs": [
        {
          "internalType": "address",
          "name": "account",
          "type": "address"
        }
      ],
      "name": "addPauser",
      "outputs": [],
      "stateMutability": "nonpayable",
      "type": "function"
    },
    {
      "inputs": [],
      "name": "assetSettings",
      "outputs": [
        {
          "internalType": "contract AssetSettingsInterface",
          "name": "",
          "type": "address"
        }
      ],
      "stateMutability": "view",
      "type": "function"
    },
    {
      "inputs": [
        {
          "internalType": "address",
          "name": "",
          "type": "address"
        }
      ],
      "name": "authorizedAddresses",
      "outputs": [
        {
          "internalType": "bool",
          "name": "",
          "type": "bool"
        }
      ],
      "stateMutability": "view",
      "type": "function"
    },
    {
      "inputs": [
        {
          "internalType": "bytes32",
          "name": "settingName",
          "type": "bytes32"
        },
        {
          "internalType": "uint256",
          "name": "value",
          "type": "uint256"
        },
        {
          "internalType": "uint256",
          "name": "minValue",
          "type": "uint256"
        },
        {
          "internalType": "uint256",
          "name": "maxValue",
          "type": "uint256"
        }
      ],
      "name": "createPlatformSetting",
      "outputs": [],
      "stateMutability": "nonpayable",
      "type": "function"
    },
    {
      "inputs": [],
      "name": "dappRegistry",
      "outputs": [
        {
          "internalType": "contract IDappRegistry",
          "name": "",
          "type": "address"
        }
      ],
      "stateMutability": "view",
      "type": "function"
    },
    {
      "inputs": [
        {
          "internalType": "address",
          "name": "assetAddress",
          "type": "address"
        },
        {
          "internalType": "uint256",
          "name": "amount",
          "type": "uint256"
        }
      ],
      "name": "exceedsMaxLoanAmount",
      "outputs": [
        {
          "internalType": "bool",
          "name": "",
          "type": "bool"
        }
      ],
      "stateMutability": "view",
      "type": "function"
    },
    {
      "inputs": [
        {
          "internalType": "address",
          "name": "assetAddress",
          "type": "address"
        }
      ],
      "name": "getCTokenAddress",
      "outputs": [
        {
          "internalType": "address",
          "name": "",
          "type": "address"
        }
      ],
      "stateMutability": "view",
      "type": "function"
    },
    {
      "inputs": [],
      "name": "getCollateralBufferValue",
      "outputs": [
        {
          "internalType": "uint256",
          "name": "value",
          "type": "uint256"
        }
      ],
      "stateMutability": "view",
      "type": "function"
    },
    {
      "inputs": [],
      "name": "getLiquidateEthPriceValue",
      "outputs": [
        {
          "internalType": "uint256",
          "name": "value",
          "type": "uint256"
        }
      ],
      "stateMutability": "view",
      "type": "function"
    },
    {
      "inputs": [],
      "name": "getMaximumLoanDurationValue",
      "outputs": [
        {
          "internalType": "uint256",
          "name": "value",
          "type": "uint256"
        }
      ],
      "stateMutability": "view",
      "type": "function"
    },
    {
      "inputs": [],
      "name": "getMaximumToleranceValue",
      "outputs": [
        {
          "internalType": "uint256",
          "name": "value",
          "type": "uint256"
        }
      ],
      "stateMutability": "view",
      "type": "function"
    },
    {
      "inputs": [],
      "name": "getOverCollateralizedBufferValue",
      "outputs": [
        {
          "internalType": "uint256",
          "name": "value",
          "type": "uint256"
        }
      ],
      "stateMutability": "view",
      "type": "function"
    },
    {
      "inputs": [
        {
          "internalType": "bytes32",
          "name": "settingName",
          "type": "bytes32"
        }
      ],
      "name": "getPlatformSetting",
      "outputs": [
        {
          "components": [
            {
              "internalType": "uint256",
              "name": "value",
              "type": "uint256"
            },
            {
              "internalType": "uint256",
              "name": "min",
              "type": "uint256"
            },
            {
              "internalType": "uint256",
              "name": "max",
              "type": "uint256"
            },
            {
              "internalType": "bool",
              "name": "exists",
              "type": "bool"
            }
          ],
          "internalType": "struct PlatformSettingsLib.PlatformSetting",
          "name": "",
          "type": "tuple"
        }
      ],
      "stateMutability": "view",
      "type": "function"
    },
    {
      "inputs": [],
      "name": "getRequestLoanTermsRateLimitValue",
      "outputs": [
        {
          "internalType": "uint256",
          "name": "value",
          "type": "uint256"
        }
      ],
      "stateMutability": "view",
      "type": "function"
    },
    {
      "inputs": [],
      "name": "getRequiredSubmissionsPercentageValue",
      "outputs": [
        {
          "internalType": "uint256",
          "name": "value",
          "type": "uint256"
        }
      ],
      "stateMutability": "view",
      "type": "function"
    },
    {
      "inputs": [],
      "name": "getResponseExpiryLengthValue",
      "outputs": [
        {
          "internalType": "uint256",
          "name": "value",
          "type": "uint256"
        }
      ],
      "stateMutability": "view",
      "type": "function"
    },
    {
      "inputs": [],
      "name": "getSafetyIntervalValue",
      "outputs": [
        {
          "internalType": "uint256",
          "name": "value",
          "type": "uint256"
        }
      ],
      "stateMutability": "view",
      "type": "function"
    },
    {
      "inputs": [],
      "name": "getTermsExpiryTimeValue",
      "outputs": [
        {
          "internalType": "uint256",
          "name": "value",
          "type": "uint256"
        }
      ],
      "stateMutability": "view",
      "type": "function"
    },
    {
      "inputs": [],
      "name": "getUniswapV2RouterAddress",
      "outputs": [
        {
          "internalType": "address",
          "name": "",
          "type": "address"
        }
      ],
      "stateMutability": "view",
      "type": "function"
    },
    {
      "inputs": [
        {
          "internalType": "address",
          "name": "account",
          "type": "address"
        }
      ],
      "name": "hasAuthorization",
      "outputs": [
        {
          "internalType": "bool",
          "name": "",
          "type": "bool"
        }
      ],
      "stateMutability": "view",
      "type": "function"
    },
    {
      "inputs": [
        {
          "internalType": "bytes32",
          "name": "settingName",
          "type": "bytes32"
        }
      ],
      "name": "hasPlatformSetting",
      "outputs": [
        {
          "internalType": "bool",
          "name": "",
          "type": "bool"
        }
      ],
      "stateMutability": "view",
      "type": "function"
    },
    {
      "inputs": [],
      "name": "implementationStored",
      "outputs": [
        {
          "internalType": "address",
          "name": "",
          "type": "address"
        }
      ],
      "stateMutability": "view",
      "type": "function"
    },
    {
      "inputs": [],
      "name": "initDynamicProxyLogic",
      "outputs": [
        {
          "internalType": "address",
          "name": "",
          "type": "address"
        }
      ],
      "stateMutability": "view",
      "type": "function"
    },
    {
      "inputs": [
        {
          "internalType": "address",
          "name": "wethTokenAddress",
          "type": "address"
        },
        {
          "internalType": "address",
          "name": "cethTokenAddress",
          "type": "address"
        },
        {
          "internalType": "address",
          "name": "initDynamicProxyAddress",
          "type": "address"
        },
        {
          "internalType": "address",
          "name": "uniswapV2RouterAddress",
          "type": "address"
        }
      ],
      "name": "initialize",
      "outputs": [],
      "stateMutability": "nonpayable",
      "type": "function"
    },
    {
      "inputs": [],
      "name": "isPaused",
      "outputs": [
        {
          "internalType": "bool",
          "name": "",
          "type": "bool"
        }
      ],
      "stateMutability": "view",
      "type": "function"
    },
    {
      "inputs": [
        {
          "internalType": "address",
          "name": "account",
          "type": "address"
        }
      ],
      "name": "isPauser",
      "outputs": [
        {
          "internalType": "bool",
          "name": "",
          "type": "bool"
        }
      ],
      "stateMutability": "view",
      "type": "function"
    },
    {
      "inputs": [],
      "name": "isPlatformRestricted",
      "outputs": [
        {
          "internalType": "bool",
          "name": "",
          "type": "bool"
        }
      ],
      "stateMutability": "view",
      "type": "function"
    },
    {
      "inputs": [
        {
          "internalType": "address",
          "name": "",
          "type": "address"
        }
      ],
      "name": "lendingPoolPaused",
      "outputs": [
        {
          "internalType": "bool",
          "name": "",
          "type": "bool"
        }
      ],
      "stateMutability": "view",
      "type": "function"
    },
    {
      "inputs": [],
      "name": "logicName",
      "outputs": [
        {
          "internalType": "bytes32",
          "name": "",
          "type": "bytes32"
        }
      ],
      "stateMutability": "view",
      "type": "function"
    },
    {
      "inputs": [],
      "name": "logicRegistry",
      "outputs": [
        {
          "internalType": "contract LogicVersionsRegistryInterface",
          "name": "",
          "type": "address"
        }
      ],
      "stateMutability": "view",
      "type": "function"
    },
    {
      "inputs": [],
      "name": "marketFactory",
      "outputs": [
        {
          "internalType": "contract IMarketFactory",
          "name": "",
          "type": "address"
        }
      ],
      "stateMutability": "view",
      "type": "function"
    },
    {
      "inputs": [],
      "name": "pause",
      "outputs": [],
      "stateMutability": "nonpayable",
      "type": "function"
    },
    {
      "inputs": [
        {
          "internalType": "address",
          "name": "lendingPoolAddress",
          "type": "address"
        }
      ],
      "name": "pauseLendingPool",
      "outputs": [],
      "stateMutability": "nonpayable",
      "type": "function"
    },
    {
      "inputs": [],
      "name": "paused",
      "outputs": [
        {
          "internalType": "bool",
          "name": "",
          "type": "bool"
        }
      ],
      "stateMutability": "view",
      "type": "function"
    },
    {
      "inputs": [],
      "name": "platformRestricted",
      "outputs": [
        {
          "internalType": "bool",
          "name": "",
          "type": "bool"
        }
      ],
      "stateMutability": "view",
      "type": "function"
    },
    {
      "inputs": [
        {
          "internalType": "bytes32",
          "name": "settingName",
          "type": "bytes32"
        }
      ],
      "name": "platformSettings",
      "outputs": [
        {
          "components": [
            {
              "internalType": "uint256",
              "name": "value",
              "type": "uint256"
            },
            {
              "internalType": "uint256",
              "name": "min",
              "type": "uint256"
            },
            {
              "internalType": "uint256",
              "name": "max",
              "type": "uint256"
            },
            {
              "internalType": "bool",
              "name": "exists",
              "type": "bool"
            }
          ],
          "internalType": "struct PlatformSettingsLib.PlatformSetting",
          "name": "",
          "type": "tuple"
        }
      ],
      "stateMutability": "view",
      "type": "function"
    },
    {
      "inputs": [],
      "name": "priceAggregator",
      "outputs": [
        {
          "internalType": "contract IPriceAggregator",
          "name": "",
          "type": "address"
        }
      ],
      "stateMutability": "view",
      "type": "function"
    },
    {
      "inputs": [
        {
          "internalType": "address",
          "name": "addressToRemove",
          "type": "address"
        }
      ],
      "name": "removeAuthorizedAddress",
      "outputs": [],
      "stateMutability": "nonpayable",
      "type": "function"
    },
    {
      "inputs": [
        {
          "internalType": "address",
          "name": "account",
          "type": "address"
        }
      ],
      "name": "removePauser",
      "outputs": [],
      "stateMutability": "nonpayable",
      "type": "function"
    },
    {
      "inputs": [
        {
          "internalType": "bytes32",
          "name": "settingName",
          "type": "bytes32"
        }
      ],
      "name": "removePlatformSetting",
      "outputs": [],
      "stateMutability": "nonpayable",
      "type": "function"
    },
    {
      "inputs": [],
      "name": "renouncePauser",
      "outputs": [],
      "stateMutability": "nonpayable",
      "type": "function"
    },
    {
      "inputs": [
        {
          "internalType": "address",
          "name": "account",
          "type": "address"
        }
      ],
      "name": "requireAuthorization",
      "outputs": [],
      "stateMutability": "view",
      "type": "function"
    },
    {
      "inputs": [
        {
          "internalType": "address",
          "name": "account",
          "type": "address"
        }
      ],
      "name": "requirePauserRole",
      "outputs": [],
      "stateMutability": "view",
      "type": "function"
    },
    {
      "inputs": [
        {
          "internalType": "bool",
          "name": "restriction",
          "type": "bool"
        }
      ],
      "name": "restrictPlatform",
      "outputs": [],
      "stateMutability": "nonpayable",
      "type": "function"
    },
    {
      "inputs": [],
      "name": "settings",
      "outputs": [
        {
          "internalType": "contract SettingsInterface",
          "name": "",
          "type": "address"
        }
      ],
      "stateMutability": "view",
      "type": "function"
    },
    {
      "inputs": [],
      "name": "strictDynamic",
      "outputs": [
        {
          "internalType": "bool",
          "name": "",
          "type": "bool"
        }
      ],
      "stateMutability": "view",
      "type": "function"
    },
    {
      "inputs": [],
      "name": "unpause",
      "outputs": [],
      "stateMutability": "nonpayable",
      "type": "function"
    },
    {
      "inputs": [
        {
          "internalType": "address",
          "name": "lendingPoolAddress",
          "type": "address"
        }
      ],
      "name": "unpauseLendingPool",
      "outputs": [],
      "stateMutability": "nonpayable",
      "type": "function"
    },
    {
      "inputs": [
        {
          "internalType": "bytes32",
          "name": "settingName",
          "type": "bytes32"
        },
        {
          "internalType": "uint256",
          "name": "newValue",
          "type": "uint256"
        }
      ],
      "name": "updatePlatformSetting",
      "outputs": [],
      "stateMutability": "nonpayable",
      "type": "function"
    },
    {
      "inputs": [
        {
          "internalType": "address",
          "name": "newImplementation",
          "type": "address"
        }
      ],
      "name": "upgradeProxyTo",
      "outputs": [],
      "stateMutability": "nonpayable",
      "type": "function"
    }
  ],
  "transactionHash": "0x12d5bd58e253f1461a2919d0a9969377e86dd5ca1e5bb31e11833730fade48b6",
  "args": [],
  "solcInputHash": "0c80e7fb8aff27a671cb2892ea4bafd6",
  "bytecode": "0x608060405234801561001057600080fd5b506127d4806100206000396000f3fe608060405234801561001057600080fd5b50600436106103835760003560e01c806370712939116101de578063ce1991291161010f578063e154e9a4116100ad578063f4f0d9731161007c578063f4f0d97314610a72578063f8c8765e14610ab9578063fbedbe5c14610acc578063fde3066b14610adf57610383565b8063e154e9a4146109a2578063eb0febe7146109af578063f09d223b146109ff578063f19e207e14610a4f57610383565b8063d8756fea116100e9578063d8756fea146108f5578063dd54d2e414610938578063de0ca1661461097c578063e06174e41461098f57610383565b8063ce1991291461088d578063cfa8bb93146108a0578063d10a0aec146108e257610383565b80639dec88b91161017c578063ad21879e11610156578063ad21879e14610849578063b187bd261461085c578063b3076d0014610867578063c095ea271461087a57610383565b80639dec88b9146107dc578063a734f06e146107ef578063a832221e1461083657610383565b80638456cb59116101b85780638456cb591461072b5780638e0c06301461073357806391c3ecde1461074557806393d748241461079b57610383565b806370712939146106f257806374b7b6a61461070557806382dc1ec41461071857610383565b806342f1181e116102b857806362f9ed77116102565780636b2c0f55116102305780636b2c0f55146106815780636c14b1e0146106945780636eade577146106d75780636ef8d66d146106ea57610383565b806362f9ed771461064857806369ff77441461065b5780636a3a61cd1461066e57610383565b80634f8654bc116102925780634f8654bc146105ca57806354409f2b146105e257806355dbd8eb146106285780635c975abb1461063b57610383565b806342f1181e1461055c57806346fbf68e1461056f5780634ab45d331461058257610383565b806326c7bd931161032557806337c3eedc116102ff57806337c3eedc1461050b5780633968efa41461051e5780633b668321146105315780633f4ba83a1461055457610383565b806326c7bd93146104dc5780632c26486d146104ef5780633078fff5146104f857610383565b80631be0ed37116103615780631be0ed37146104445780631eb83d541461045957806325b77330146104615780632653f3d4146104bb57610383565b8063040141e51461038857806306ae7095146103e95780631362fee7146103fc575b600080fd5b6b574554485f4144445245535360a01b60005260126020527f4313b310adb7b74abd601d72edd3e81f7294a3ae2cb4c73a4206799537c38794546001600160a01b03165b6040516001600160a01b0390911681526020015b60405180910390f35b6019546103cc906001600160a01b031681565b61040f61040a3660046125e6565b610b2a565b6040516103e0919081518152602080830151908201526040808301519082015260609182015115159181019190915260800190565b610457610452366004612480565b610ba1565b005b610457610ceb565b7f526571756573744c6f616e5465726d73526174654c696d69740000000000000060005260116020527f8b49ba942105c73ae4db3a69a7a4b5bdd4cbbc2ce85689f8943c44896b8c73b9545b6040519081526020016103e0565b6104cc601c54610100900460ff1690565b60405190151581526020016103e0565b6103cc6104ea366004612480565b610dba565b6104ad60015481565b6018546103cc906001600160a01b031681565b6000546103cc906001600160a01b031681565b61045761052c366004612480565b610e3e565b6104cc61053f366004612480565b600f6020526000908152604090205460ff1681565b6104576110b0565b61045761056a366004612480565b61115d565b6104cc61057d366004612480565b611209565b6b434554485f4144445245535360a01b60005260126020527fa7065b607596bfc46fc5db4e558b9056b48b7ed7d1edc6e6f53df0cb6231bb7b546001600160a01b03166103cc565b6002546103cc9061010090046001600160a01b031681565b7226b0bc34b6bab6a637b0b7223ab930ba34b7b760691b60005260116020527fbb5cc45f237407bba10b14d95026f430e44d58f263b35ca8035dd8c50b559f9c546104ad565b610457610636366004612480565b611216565b601c546104cc9060ff1681565b6104576106563660046125e6565b611295565b6104cc610669366004612513565b61130f565b61045761067c366004612480565b61139b565b61045761068f366004612480565b6113f6565b6f21b7b63630ba32b930b6213ab33332b960811b60005260116020527faae8a9013ceb0073d694bf51199ea6d8222a879591d84f2c191fad596f238201546104ad565b6104576106e536600461253e565b611424565b61045761147e565b610457610700366004612480565b611489565b6104cc6107133660046125e6565b6114f9565b610457610726366004612480565b61150e565b61045761153c565b601c546104cc90610100900460ff1681565b79496e697469616c697a6561626c6544796e616d696350726f787960301b60005260126020527f824feb82766997d88ccf9c9a4c881f3223c5075b6c9944dc8ce85468f12fdaba546001600160a01b03166103cc565b6d14d859995d1e525b9d195c9d985b60921b60005260116020527f59afe39de89bc57c298effb520c7390a97335cffeb2d8c8a1c376ca0e02c29bd546104ad565b6104576107ea36600461261f565b6115c1565b6a4554485f4144445245535360a81b60005260126020527f6450f1819ccc3a75d126452f77fba0ccf92ebc9819a16b5cdd42574d1fe53a09546001600160a01b03166103cc565b6104576108443660046125ae565b611698565b6104cc610857366004612480565b611713565b601c5460ff166104cc565b6010546103cc906001600160a01b031681565b610457610888366004612480565b611743565b61040f61089b3660046125e6565b61177b565b6e5465726d7345787069727954696d6560881b60005260116020527fc88aee6210a7d37f14c68d2de071818225848c3b07463dbf318b5b9949d74302546104ad565b6104576108f03660046125fe565b6117b1565b6f4d6178696d756d546f6c6572616e636560801b60005260116020527fe16325649cb338cad21a36f8dc14a867f68e009aa528c2b060339d766155bd2f546104ad565b704c6971756964617465457468507269636560781b60005260116020527ff9039ac5157a92ccb3b70c5639829f39a7714fe81cdca57a2d97fffaa7155444546104ad565b6017546103cc906001600160a01b031681565b6004546103cc906001600160a01b031681565b6002546104cc9060ff1681565b7f52657175697265645375626d697373696f6e7350657263656e7461676500000060005260116020527f7bb3595ccb6c0c47a9b4ce7e74a65a03f493097999d1a733aab364ae0c9149ee546104ad565b7f4f766572436f6c6c61746572616c697a6564427566666572000000000000000060005260116020527fb063af8affa47193f1c1aeb71f387d524261e50105221276b9856a4af4ca33a0546104ad565b6104cc610a5d366004612480565b601a6020526000908152604090205460ff1681565b730a4cae6e0dedce6ca8af0e0d2e4f298cadccee8d60631b60005260116020527fb11a270e0ce8fb081a13503c4717ef08f6eef0538eacbdfb1685689d79e36c0f546104ad565b610457610ac73660046124b8565b611833565b610457610ada366004612480565b611a7b565b6e2ab734b9bbb0b82b192937baba32b960891b60005260126020527ff5158fe980e76ad38cf15641a6c2daeb9512ba27beeb842ec95889cad8915712546001600160a01b03166103cc565b610b5760405180608001604052806000815260200160008152602001600081526020016000151581525090565b5060009081526011602090815260409182902082516080810184528154815260018201549281019290925260028101549282019290925260039091015460ff161515606082015290565b610baa33611209565b610bcf5760405162461bcd60e51b8152600401610bc6906126d7565b60405180910390fd5b601c5460ff1615610bf25760405162461bcd60e51b8152600401610bc6906126fb565b60408051808201909152601881527713115391125391d7d413d3d317d254d7d49154555254915160421b6020820152610c35906001600160a01b03831690611bb8565b6001600160a01b0381166000908152600f602052604090205460ff1615610c9e5760405162461bcd60e51b815260206004820152601b60248201527f4c454e44494e475f504f4f4c5f414c52454144595f50415553454400000000006044820152606401610bc6565b6001600160a01b0381166000818152600f6020526040808220805460ff191660011790555133917fff7b62e2b5984471f0fb76a23e84a0d6f2e5c3e8818a929948190ce967a2fc2e91a350565b60008054600154604051638b51f58b60e01b81526001600160a01b0390921691638b51f58b91610d219160040190815260200190565b60606040518083038186803b158015610d3957600080fd5b505afa158015610d4d573d6000803e3d6000fd5b505050506040513d601f19601f82011682018060405250810190610d719190612650565b6002549093506001600160a01b0380851661010090920416149150610db390505760028054610100600160a81b0319166101006001600160a01b038416021790555b5043600355565b6010546040516326c7bd9360e01b81526001600160a01b03838116600483015260009216906326c7bd939060240160206040518083038186803b158015610e0057600080fd5b505afa158015610e14573d6000803e3d6000fd5b505050506040513d601f19601f82011682018060405250810190610e38919061249c565b92915050565b60408051600481526024810182526020810180516001600160e01b031663a59a997360e01b179052905160009182913391610e7891612688565b600060405180830381855afa9150503d8060008114610eb3576040519150601f19603f3d011682016040523d82523d6000602084013e610eb8565b606091505b509150915081610eff5760405162461bcd60e51b815260206004820152601260248201527104641494c45445f4645544348494e475f4c560741b6044820152606401610bc6565b600081806020019051810190610f15919061249c565b9050601960009054906101000a90046001600160a01b03166001600160a01b031663ecb96fe66040518163ffffffff1660e01b8152600401602060405180830381600087803b158015610f6757600080fd5b505af1158015610f7b573d6000803e3d6000fd5b505050506040513d601f19601f82011682018060405250810190610f9f919061249c565b604051631a7a7ed560e11b81526001600160a01b03838116600483015233602483015291909116906334f4fdaa9060440160206040518083038186803b158015610fe857600080fd5b505afa158015610ffc573d6000803e3d6000fd5b505050506040513d601f19601f8201168201806040525081019061102091906125ca565b61105f5760405162461bcd60e51b815260206004820152601060248201526f43414c4c45525f4e4f545f4c4f414e5360801b6044820152606401610bc6565b6001600160a01b0384166000818152601a6020526040808220805460ff19166001179055513392917f7221372411f0405c58b7b48e3951c448bb594dad75f79bf6aefa69af430d606291a350505050565b6110b933611209565b6110d55760405162461bcd60e51b8152600401610bc6906126d7565b601c5460ff1661111d5760405162461bcd60e51b8152602060048201526013602482015272141310551193d49357d393d517d4105554d151606a1b6044820152606401610bc6565b601c805460ff191690556040513381527f5db9ee0a495bf2e6ff9c91a7834c1ba4fdd244a5e8aa4e537bd38aeae4b073aa906020015b60405180910390a1565b61116633611209565b8061117b57506017546001600160a01b031633145b6111bb5760405162461bcd60e51b815260206004820152601160248201527021a0a62622a92fa727aa2fa820aaa9a2a960791b6044820152606401610bc6565b6001600160a01b0381166000818152601a6020526040808220805460ff19166001179055513392917f7221372411f0405c58b7b48e3951c448bb594dad75f79bf6aefa69af430d606291a350565b6000610e38601b83611be0565b6000546001600160a01b031633146112695760405162461bcd60e51b81526020600482015260166024820152754d5553545f42455f4c4f4749435f524547495354525960501b6044820152606401610bc6565b600280546001600160a01b0390921661010002610100600160a81b031990921691909117905543600355565b61129e33611209565b6112ba5760405162461bcd60e51b8152600401610bc6906126d7565b60008181526011602052604090208054906112d490611c63565b604051818152339083907f441e6d4e0fa187867205bff50ab3fdf95c4612c241878b3f50d93a1256669dc99060200160405180910390a35050565b601054604051631a7fddd160e21b81526001600160a01b0384811660048301526024820184905260009216906369ff77449060440160206040518083038186803b15801561135c57600080fd5b505afa158015611370573d6000803e3d6000fd5b505050506040513d601f19601f8201168201806040525081019061139491906125ca565b9392505050565b601c54610100900460ff1615806113b657506113b681611713565b6113f35760405162461bcd60e51b815260206004820152600e60248201526d1393d517d055551213d49256915160921b6044820152606401610bc6565b50565b6113ff33611209565b61141b5760405162461bcd60e51b8152600401610bc6906126d7565b6113f381611c8a565b60005b818110156114795761146783838381811061145257634e487b7160e01b600052603260045260246000fd5b905060200201602081019061056a9190612480565b8061147181612754565b915050611427565b505050565b61148733611c8a565b565b61149233611209565b6114ae5760405162461bcd60e51b8152600401610bc6906126d7565b6001600160a01b0381166000818152601a6020526040808220805460ff19169055513392917f203a04209f1ae06508132ac82e6ad3b28d9e9ba11f97cc9934b4d9e6a83dd24e91a350565b600061150482610b2a565b6060015192915050565b61151733611209565b6115335760405162461bcd60e51b8152600401610bc6906126d7565b6113f381611ccc565b61154533611209565b6115615760405162461bcd60e51b8152600401610bc6906126d7565b601c5460ff16156115845760405162461bcd60e51b8152600401610bc6906126fb565b601c805460ff191660011790556040513381527f62e78cea01bee320cd4e420270b5ea74000d11b0c9f74754ebdbfc544b05a25890602001611153565b6115ca33611209565b6115e65760405162461bcd60e51b8152600401610bc6906126d7565b836116335760405162461bcd60e51b815260206004820152601d60248201527f53455454494e475f4e414d455f4d5553545f42455f50524f56494445440000006044820152606401610bc6565b600084815260116020526040902061164d90848484611d0e565b6040805184815260208101849052908101829052339085907f88608f5277d08a47d0b5c4911811b474510dfcb1e303b13120b4fdd013ee4feb9060600160405180910390a350505050565b6116a133611209565b6116bd5760405162461bcd60e51b8152600401610bc6906126d7565b601c80548215156101000261ff001990911617905560405133907f9a8a686aa374e3c964e707566deb1d0ef1fda94567495b4767063063de913ff59061170890841515815260200190565b60405180910390a250565b600061171e82611209565b80610e385750506001600160a01b03166000908152601a602052604090205460ff1690565b61174c81611209565b8061175f57506001600160a01b03811630145b6113f35760405162461bcd60e51b8152600401610bc6906126d7565b6117a860405180608001604052806000815260200160008152602001600081526020016000151581525090565b610e3882610b2a565b6117ba33611209565b6117d65760405162461bcd60e51b8152600401610bc6906126d7565b60008281526011602052604081206117ee9083611ddd565b6040805182815260208101859052919250339185917ff5d6988acb4a237a95feb459c3b5d7f95ad15acfe26d31cd4bf88b8b1ec792de910160405180910390a3505050565b6001600160a01b0384163b61188a5760405162461bcd60e51b815260206004820152601d60248201527f574554485f414444524553535f4d5553545f42455f434f4e54524143540000006044820152606401610bc6565b61189333611ccc565b61189c30611ede565b6118a66012611f48565b6118c460126e2ab734b9bbb0b82b192937baba32b960891b83611f90565b6118ed601279496e697469616c697a6561626c6544796e616d696350726f787960301b84611f90565b61191b60126a4554485f4144445245535360a81b73eeeeeeeeeeeeeeeeeeeeeeeeeeeeeeeeeeeeeeee611f90565b61193660126b574554485f4144445245535360a01b86611f90565b61195160126b434554485f4144445245535360a01b85611f90565b61197a7f599609e43baa8eabc45e909838d53694643ee218ebf1b4b7a321791b1b9a9081612028565b601080546001600160a01b0319166001600160a01b03929092169190911790556119c37f07c07ac62f597e1517b9ca2d2dc733939f20c4a6a5b6c36d6aff1c068b02ef56612028565b601880546001600160a01b0319166001600160a01b0392909216919091179055611a0c7fa4f29ceeed4ecb3f2f06609c28eaaa349ebfbba614dd16a110a8e814679d83b5612028565b601780546001600160a01b0319166001600160a01b0392909216919091179055611a557f976538aefd7128b69f5f7f601a5b179c5958a761edc91aed8b6e2f26f6ce8ab2612028565b601980546001600160a01b0319166001600160a01b039290921691909117905550505050565b611a8433611209565b611aa05760405162461bcd60e51b8152600401610bc6906126d7565b601c5460ff1615611ac35760405162461bcd60e51b8152600401610bc6906126fb565b60408051808201909152601881527713115391125391d7d413d3d317d254d7d49154555254915160421b6020820152611b06906001600160a01b03831690611bb8565b6001600160a01b0381166000908152600f602052604090205460ff16611b6e5760405162461bcd60e51b815260206004820152601a60248201527f4c454e44494e475f504f4f4c5f49535f4e4f545f5041555345440000000000006044820152606401610bc6565b6001600160a01b0381166000818152600f6020526040808220805460ff191690555133917fc55a972437581d7d7bfd8729cdde06ee7e788e1a407b4cfdc6a0330d04b391f191a350565b806001600160a01b0383166114795760405162461bcd60e51b8152600401610bc691906126a4565b60006001600160a01b038216611c435760405162461bcd60e51b815260206004820152602260248201527f526f6c65733a206163636f756e7420697320746865207a65726f206164647265604482015261737360f01b6064820152608401610bc6565b506001600160a01b03166000908152602091909152604090205460ff1690565b611c6c81612196565b6000808255600182018190556002820155600301805460ff19169055565b611c95601b826121ea565b6040516001600160a01b038216907fcd265ebaf09df2871cc7bd4133404a235ba12eff2041bb89d9c714a2621c7c7e90600090a250565b611cd7601b8261226c565b6040516001600160a01b038216907f6719d08c1888103bea251a4ed56406bd0c3e69723c8a1686e017e7bbe159b6f890600090a250565b611d17846122e8565b81831015611d675760405162461bcd60e51b815260206004820152601b60248201527f56414c55455f4d5553545f42455f4754455f4d494e5f56414c554500000000006044820152606401610bc6565b80831115611db75760405162461bcd60e51b815260206004820152601b60248201527f56414c55455f4d5553545f42455f4c54455f4d41585f56414c554500000000006044820152606401610bc6565b91835560018084019190915560028301919091556003909101805460ff19169091179055565b6000611de883612196565b8254821415611e2e5760405162461bcd60e51b8152602060048201526012602482015271139155d7d59053155157d49154555254915160721b6044820152606401610bc6565b8260010154821015611e825760405162461bcd60e51b815260206004820152601f60248201527f4e45575f56414c55455f4d5553545f42455f4754455f4d494e5f56414c5545006044820152606401610bc6565b8260020154821115611ed65760405162461bcd60e51b815260206004820152601f60248201527f4e45575f56414c55455f4d5553545f42455f4c54455f4d41585f56414c5545006044820152606401610bc6565b508154915590565b60408051808201909152601981527f53455454494e47535f4d5553545f42455f50524f5649444544000000000000006020820152611f26906001600160a01b03831690611bb8565b600480546001600160a01b0319166001600160a01b0392909216919091179055565b611f518161233d565b7fd2a9b5158cff4d129f58e3e9cb6a13e2414f0ef74f94537777267284c43bba3b6000908152600490910160205260409020805460ff19166001179055565b611f99836123b6565b6000828152602084905260409020546001600160a01b0382811691161415611ffa5760405162461bcd60e51b8152602060048201526014602482015273139155d7d05111149154d4d7d49154555254915160621b6044820152606401610bc6565b60009182526020929092526040902080546001600160a01b0319166001600160a01b03909216919091179055565b79496e697469616c697a6561626c6544796e616d696350726f787960301b600090815260126020527f824feb82766997d88ccf9c9a4c881f3223c5075b6c9944dc8ce85468f12fdaba54612084906001600160a01b031661242e565b600080546040516307397e5b60e51b81526001600160a01b0391821660048201526024810186905260448101929092529192509082169063e72fcb6090606401600060405180830381600087803b1580156120de57600080fd5b505af11580156120f2573d6000803e3d6000fd5b505060408051600481526024810182526020810180516001600160e01b031663204a7f0760e21b1790529051600093506001600160a01b03851692506121389190612688565b6000604051808303816000865af19150503d8060008114612175576040519150601f19603f3d011682016040523d82523d6000602084013e61217a565b606091505b5050905080612190576040513d806000833e8082fd5b50919050565b600381015460ff166113f35760405162461bcd60e51b815260206004820152601b60248201527f504c4154464f524d5f53455454494e475f4e4f545f45584953545300000000006044820152606401610bc6565b6121f48282611be0565b61224a5760405162461bcd60e51b815260206004820152602160248201527f526f6c65733a206163636f756e7420646f6573206e6f74206861766520726f6c6044820152606560f81b6064820152608401610bc6565b6001600160a01b0316600090815260209190915260409020805460ff19169055565b6122768282611be0565b156122c35760405162461bcd60e51b815260206004820152601f60248201527f526f6c65733a206163636f756e7420616c72656164792068617320726f6c65006044820152606401610bc6565b6001600160a01b0316600090815260209190915260409020805460ff19166001179055565b600381015460ff16156113f35760405162461bcd60e51b815260206004820152601f60248201527f504c4154464f524d5f53455454494e475f414c52454144595f455849535453006044820152606401610bc6565b7fd2a9b5158cff4d129f58e3e9cb6a13e2414f0ef74f94537777267284c43bba3b600090815260048201602052604090205460ff16156113f35760405162461bcd60e51b815260206004820152601460248201527343414348455f414c52454144595f45584953545360601b6044820152606401610bc6565b7fd2a9b5158cff4d129f58e3e9cb6a13e2414f0ef74f94537777267284c43bba3b600090815260048201602052604090205460ff166113f35760405162461bcd60e51b815260206004820152601460248201527310d050d21157d113d154d7d393d517d1561254d560621b6044820152606401610bc6565b6000808260601b9050604051733d602d80600a3d3981f3363d3d373d3d3d363d7360601b81528160148201526e5af43d82803e903d91602b57fd5bf360881b60288201526037816000f0949350505050565b600060208284031215612491578081fd5b81356113948161277b565b6000602082840312156124ad578081fd5b81516113948161277b565b600080600080608085870312156124cd578283fd5b84356124d88161277b565b935060208501356124e88161277b565b925060408501356124f88161277b565b915060608501356125088161277b565b939692955090935050565b60008060408385031215612525578182fd5b82356125308161277b565b946020939093013593505050565b60008060208385031215612550578182fd5b823567ffffffffffffffff80821115612567578384fd5b818501915085601f83011261257a578384fd5b813581811115612588578485fd5b8660208260051b850101111561259c578485fd5b60209290920196919550909350505050565b6000602082840312156125bf578081fd5b813561139481612790565b6000602082840312156125db578081fd5b815161139481612790565b6000602082840312156125f7578081fd5b5035919050565b60008060408385031215612610578182fd5b50508035926020909101359150565b60008060008060808587031215612634578384fd5b5050823594602084013594506040840135936060013592509050565b600080600060608486031215612664578283fd5b8351925060208401519150604084015161267d8161277b565b809150509250925092565b6000825161269a818460208701612724565b9190910192915050565b60006020825282518060208401526126c3816040850160208701612724565b601f01601f19169190910160400192915050565b6020808252600a90820152692727aa2fa820aaa9a2a960b11b604082015260600190565b6020808252600f908201526e141310551193d49357d4105554d151608a1b604082015260600190565b60005b8381101561273f578181015183820152602001612727565b8381111561274e576000848401525b50505050565b600060001982141561277457634e487b7160e01b81526011600452602481fd5b5060010190565b6001600160a01b03811681146113f357600080fd5b80151581146113f357600080fdfea264697066735822122055d05f09995f40b4656b7e89bba32fb6d483a0bf300c17147477aff3f65842b364736f6c63430008030033",
  "devdoc": {
    "author": "develop@teller.finance",
    "details": "The platform settings functions (create, update, and remove) don't include the whenNotPaused() modifier because we might need to use them in both cases (when the platform is paused and not paused). Example: - There is a potential issue and before analyzing it, we pause the platform to avoid funds losses. Finally, as result of the analysis, we decided to update a platform setting (or create a new one for the cloud nodes). In this scenario, if the modifier is present, we couldn't update the setting (because the platform is paused).",
    "kind": "dev",
    "methods": {
      "_updateImplementationStored()": {
        "details": "It uses the LogicVersionsRegistry contract to get the logic address or the cached address if valid.It caches the current logic address for the proxy to reduce gas on subsequent calls within the same block."
      },
      "addAuthorizedAddress(address)": {
        "params": {
          "addressToAdd": "The wallet address of the user being authorized"
        }
      },
      "addAuthorizedAddressList(address[])": {
        "params": {
          "addressesToAdd": "The list of wallet addresses being authorized"
        }
      },
      "createPlatformSetting(bytes32,uint256,uint256,uint256)": {
        "params": {
          "maxValue": "the max value for the setting.",
          "minValue": "the min value for the setting.",
          "settingName": "setting name to create.",
          "value": "the initial value for the given setting name."
        }
      },
      "exceedsMaxLoanAmount(address,uint256)": {
        "params": {
          "amount": "amount to test.",
          "assetAddress": "asset address to test the setting."
        },
        "returns": {
          "_0": "true if amount exceeds current max loan amout. Otherwise it returns false."
        }
      },
      "getCTokenAddress(address)": {
        "params": {
          "assetAddress": "token address."
        },
        "returns": {
          "_0": "the cToken address for a given asset address."
        }
      },
      "getCollateralBufferValue()": {
        "returns": {
          "value": "the current value."
        }
      },
      "getLiquidateEthPriceValue()": {
        "returns": {
          "value": "the current value."
        }
      },
      "getMaximumLoanDurationValue()": {
        "returns": {
          "value": "the current value."
        }
      },
      "getMaximumToleranceValue()": {
        "returns": {
          "value": "the current value."
        }
      },
      "getOverCollateralizedBufferValue()": {
        "returns": {
          "value": "the current value."
        }
      },
      "getRequestLoanTermsRateLimitValue()": {
        "returns": {
          "value": "the current value."
        }
      },
      "getRequiredSubmissionsPercentageValue()": {
        "returns": {
          "value": "the current value."
        }
      },
      "getResponseExpiryLengthValue()": {
        "returns": {
          "value": "the current value."
        }
      },
      "getSafetyIntervalValue()": {
        "returns": {
          "value": "the current value."
        }
      },
      "getTermsExpiryTimeValue()": {
        "returns": {
          "value": "the current value."
        }
      },
      "hasAuthorization(address)": {
        "params": {
          "account": "The account address to check for"
        },
        "returns": {
          "_0": "True if account has authorization, false if it does not"
        }
      },
      "hasPlatformSetting(bytes32)": {
        "params": {
          "settingName": "setting name to test."
        },
        "returns": {
          "_0": "true if the setting is already configured. Otherwise it returns false."
        }
      },
      "initialize(address,address,address,address)": {
        "params": {
          "cethTokenAddress": "compound CETH token address.",
          "initDynamicProxyAddress": "Address of a deployed InitializeableDynamicProxy contract.",
          "uniswapV2RouterAddress": "Address of the UniswapV2Router instance to use for the platform.",
          "wethTokenAddress": "canonical WETH token address."
        }
      },
      "isPaused()": {
        "returns": {
          "_0": "true if platform is paused. Otherwise it returns false."
        }
      },
      "isPauser(address)": {
        "params": {
          "account": "account to test."
        },
        "returns": {
          "_0": "true if account has the pauser role. Otherwise it returns false."
        }
      },
      "isPlatformRestricted()": {
        "returns": {
          "_0": "bool True if the platform is restricted, false if not"
        }
      },
      "pause()": {
        "details": "Called by a pauser to pause, triggers stopped state."
      },
      "pauseLendingPool(address)": {
        "params": {
          "lendingPoolAddress": "lending pool address to pause."
        }
      },
      "removeAuthorizedAddress(address)": {
        "params": {
          "addressToRemove": "The wallet address of the user being unauthorized"
        }
      },
      "removePlatformSetting(bytes32)": {
        "params": {
          "settingName": "to remove."
        }
      },
      "requireAuthorization(address)": {
        "details": "Checks if an account address has authorization or proxy contract is registered.",
        "params": {
          "account": "account to test."
        }
      },
      "requirePauserRole(address)": {
        "params": {
          "account": "account to test."
        }
      },
      "restrictPlatform(bool)": {
        "params": {
          "restriction": "Bool turning the resitriction on or off"
        }
      },
      "unpause()": {
        "details": "Called by a pauser to unpause, returns to normal state."
      },
      "unpauseLendingPool(address)": {
        "params": {
          "lendingPoolAddress": "lending pool address to unpause."
        }
      },
      "updatePlatformSetting(bytes32,uint256)": {
        "params": {
          "newValue": "the new value to set.",
          "settingName": "setting name to update."
        }
      }
    },
    "stateVariables": {
      "COLLATERAL_BUFFER_SETTING": {
        "details": "The setting name for the collateral buffer.The collateral buffer is a safety buffer above the required collateral amount to liquidate a loan. It is required to ensure the loan does not get liquidated immediately after the loan is taken out if the value of the collateral asset deposited drops drastically.It represents the percentage value (with 2 decimal places) of a collateral buffer. e.g.: collateral buffer at 100% is stored as 10000."
      },
      "LIQUIDATE_ETH_PRICE_SETTING": {
        "details": "The setting name for the liquidate ETH price settings.It represents the percentage value (with 2 decimal places) to liquidate loans. i.e. an ETH liquidation price at 95% is stored as 9500"
      },
      "MAXIMUM_LOAN_DURATION_SETTING": {
        "details": "The setting name for the maximum loan duration settings.The maximum loan duration setting is defined in seconds. Loans will not be given for timespans larger than the one specified here."
      },
      "MAXIMUM_TOLERANCE_SETTING": {
        "details": "The setting name for the maximum tolerance settings.This is the maximum tolerance for the values submitted (by nodes) when they are aggregated (average). It is used in the consensus mechanisms.This is a percentage value with 2 decimal places. i.e. maximumTolerance of 325 => tolerance of 3.25% => 0.0325 of value i.e. maximumTolerance of 0 => It means all the values submitted must be equals.The max value is 100% => 10000"
      },
      "OVER_COLLATERALIZED_BUFFER_SETTING": {
        "details": "The setting name for the over collateralized buffer.The over collateralized buffer is the minimum required collateral ratio in order for a loan to be taken out without an Escrow contract and for the funds to go to the borrower's EOA (external overridely owned account).It represents the percentage value (with 2 decimal places) of a over collateralized buffer. e.g.: over collateralized buffer at 130% is stored as 13000."
      },
      "REQUEST_LOAN_TERMS_RATE_LIMIT_SETTING": {
        "details": "The setting name for the request loan terms rate limit settings.The request loan terms rate limit setting is defined in seconds."
      },
      "REQUIRED_SUBMISSIONS_PERCENTAGE_SETTING": {
        "details": "The setting name for the required subsmission settings.This is the minimum percentage of node responses that will be required by the platform to either take out a loan, and to claim accrued interest. If the number of node responses are less than the ones specified here, the loan or accrued interest claim request will be rejected by the platform"
      },
      "RESPONSE_EXPIRY_LENGTH_SETTING": {
        "details": "The setting name for the response expiry length settings.This is the maximum time (in seconds) a node has to submit a response. After that time, the response is considered expired and will not be accepted by the protocol."
      },
      "SAFETY_INTERVAL_SETTING": {
        "details": "The setting name for the safety interval settings.This is the minimum time you need to wait (in seconds) between the last time you deposit collateral and you take out the loan.It is used to avoid potential attacks using Flash Loans (AAVE) or Flash Swaps (Uniswap V2)."
      },
      "TERMS_EXPIRY_TIME_SETTING": {
        "details": "The setting name for the term expiry time settings.This represents the time (in seconds) that loan terms will be available after requesting them.After this time, the loan terms will expire and the borrower will need to request it again."
      },
      "_platformSettings": {
        "details": "This mapping represents the platform settings where: - The key is the platform setting name. - The value is the platform setting. It includes the value, minimum and maximum values."
      },
      "cacheStorage": {
        "details": "It holds storage values that can be set in a storage slot."
      }
    },
    "version": 1
  },
  "userdoc": {
    "events": {
      "AuthorizationGranted(address,address)": {
        "notice": "This event is emitted when an address is given authorization"
      },
      "AuthorizationRevoked(address,address)": {
        "notice": "This event is emitted when an address has authorization revoked"
      },
      "LendingPoolPaused(address,address)": {
        "notice": "This event is emitted when a lending pool is paused."
      },
      "LendingPoolUnpaused(address,address)": {
        "notice": "This event is emitted when a lending pool is unpaused."
      },
      "PlatformRestricted(bool,address)": {
        "notice": "This event is emitted when the platform restriction is switched"
      },
      "PlatformSettingCreated(bytes32,address,uint256,uint256,uint256)": {
        "notice": "This event is emitted when a new platform setting is created."
      },
      "PlatformSettingRemoved(bytes32,uint256,address)": {
        "notice": "This event is emitted when a current platform setting is removed."
      },
      "PlatformSettingUpdated(bytes32,address,uint256,uint256)": {
        "notice": "This event is emitted when a platform setting is updated."
      }
    },
    "kind": "user",
    "methods": {
      "CETH_ADDRESS()": {
        "notice": "It returns the address of the Compound CETH token."
      },
      "ETH_ADDRESS()": {
        "notice": "It returns the the platform ETH address."
      },
      "WETH_ADDRESS()": {
        "notice": "It returns the address of the WETH token."
      },
      "_updateImplementationStored()": {
        "notice": "Updates the current implementation logic address for the stored logic name."
      },
      "addAuthorizedAddress(address)": {
        "notice": "Adds a wallet address to the list of authorized wallets"
      },
      "addAuthorizedAddressList(address[])": {
        "notice": "Adds a list of wallet addresses to the list of authorized wallets"
      },
      "assetSettings()": {
        "notice": "It is the global instance of the AssetSettings contract."
      },
      "authorizedAddresses(address)": {
        "notice": "This mapping represents the list of wallet addresses that are allowed to interact with the protocol - The key is belongs to the user's wallet address - The value is a boolean flag indicating if the address has permissions"
      },
      "createPlatformSetting(bytes32,uint256,uint256,uint256)": {
        "notice": "It creates a new platform setting given a setting name, value, min and max values."
      },
      "dappRegistry()": {
        "notice": "It is the global instance of the dapp registry."
      },
      "exceedsMaxLoanAmount(address,uint256)": {
        "notice": "Tests whether amount exceeds the current maximum loan amount for a specific asset settings."
      },
      "getCTokenAddress(address)": {
        "notice": "Gets the cToken address for a given asset address."
      },
      "getCollateralBufferValue()": {
        "notice": "It gets the current \"CollateralBuffer\" setting's value"
      },
      "getLiquidateEthPriceValue()": {
        "notice": "It gets the current \"LiquidateEthPrice\" setting's value"
      },
      "getMaximumLoanDurationValue()": {
        "notice": "It gets the current \"MaximumLoanDuration\" setting's value"
      },
      "getMaximumToleranceValue()": {
        "notice": "It gets the current \"MaximumTolerance\" setting's value"
      },
      "getOverCollateralizedBufferValue()": {
        "notice": "It gets the current \"OverCollateralizedBuffer\" setting's value"
      },
      "getRequestLoanTermsRateLimitValue()": {
        "notice": "It gets the current \"RequestLoanTermsRateLimit\" setting's value"
      },
      "getRequiredSubmissionsPercentageValue()": {
        "notice": "It gets the current \"RequiredSubmissionsPercentage\" setting's value"
      },
      "getResponseExpiryLengthValue()": {
        "notice": "It gets the current \"ResponseExpiryLength\" setting's value"
      },
      "getSafetyIntervalValue()": {
        "notice": "It gets the current \"SafetyInterval\" setting's value"
      },
      "getTermsExpiryTimeValue()": {
        "notice": "It gets the current \"TermsExpiryTime\" setting's value"
      },
      "getUniswapV2RouterAddress()": {
        "notice": "It returns the address of the UniswapV2Router."
      },
      "hasAuthorization(address)": {
        "notice": "Tests whether an account has authorization"
      },
      "hasPlatformSetting(bytes32)": {
        "notice": "It tests whether a setting name is already configured."
      },
      "implementationStored()": {
        "notice": "It stores the last known logic address locally to reduce gas costs."
      },
      "initDynamicProxyLogic()": {
        "notice": "It returns the address of the InitializeableDynamicProxy contract."
      },
      "initialize(address,address,address,address)": {
        "notice": "It initializes this settings contract instance."
      },
      "isPaused()": {
        "notice": "It gets whether the platform is paused or not."
      },
      "isPauser(address)": {
        "notice": "Tests whether an account has the pauser role."
      },
      "isPlatformRestricted()": {
        "notice": "Returns whether the platform is restricted or not"
      },
      "lendingPoolPaused(address)": {
        "notice": "It represents a mapping to identify the lending pools paused and not paused. i.e.: address(lending pool) => true or false."
      },
      "logicName()": {
        "notice": "It represent the logic name (key) used for this proxy."
      },
      "logicRegistry()": {
        "notice": "It returns the logic registry that is used to determine the implementation logic for this proxy."
      },
      "marketFactory()": {
        "notice": "It is the global instance of the MarketFactory contract."
      },
      "pauseLendingPool(address)": {
        "notice": "It pauses a specific lending pool."
      },
      "paused()": {
        "notice": "Flag pausing the use of the Protocol"
      },
      "platformRestricted()": {
        "notice": "Flag restricting the use of the Protocol to authorizedAddress"
      },
      "priceAggregator()": {
        "notice": "It is the global instance of the PriceAggregator contract."
      },
      "removeAuthorizedAddress(address)": {
        "notice": "Removes a wallet address from the list of authorized wallets"
      },
      "removePlatformSetting(bytes32)": {
        "notice": "Removes a current platform setting given a setting name."
      },
      "requireAuthorization(address)": {
        "notice": "Requires an account to have platform authorization."
      },
      "requirePauserRole(address)": {
        "notice": "Requires an account to have the pauser role."
      },
      "restrictPlatform(bool)": {
        "notice": "Restricts the use of the Teller protocol to authorized wallet addresses only"
      },
      "settings()": {
        "notice": "It holds the platform Settings instance."
      },
      "strictDynamic()": {
        "notice": "Boolean indicating if the proxy must check the registry for a new implementation."
      },
      "unpauseLendingPool(address)": {
        "notice": "It unpauses a specific lending pool."
      },
      "updatePlatformSetting(bytes32,uint256)": {
        "notice": "It updates an existent platform setting given a setting name.It only allows to update the value (not the min or max values).In case you need to update the min or max values, you need to remove it, and create it again."
      },
      "upgradeProxyTo(address)": {
        "notice": "It updates a proxy's cached implementation address.It must only be called by the LogicVersionsRegistry for non strict DynamicProxy"
      }
    },
    "notice": "This contract manages the configuration of the platform.",
    "version": 1
  },
  "storageLayout": {
    "storage": [
      {
        "astId": 13960,
        "contract": "contracts/base/settings/Settings.sol:Settings",
        "label": "logicRegistry",
        "offset": 0,
        "slot": "0",
        "type": "t_contract(LogicVersionsRegistryInterface)14789"
      },
      {
        "astId": 13963,
        "contract": "contracts/base/settings/Settings.sol:Settings",
        "label": "logicName",
        "offset": 0,
        "slot": "1",
        "type": "t_bytes32"
      },
      {
        "astId": 13966,
        "contract": "contracts/base/settings/Settings.sol:Settings",
        "label": "strictDynamic",
        "offset": 0,
        "slot": "2",
        "type": "t_bool"
      },
      {
        "astId": 13969,
        "contract": "contracts/base/settings/Settings.sol:Settings",
        "label": "implementationStored",
        "offset": 1,
        "slot": "2",
        "type": "t_address"
      },
      {
        "astId": 13972,
        "contract": "contracts/base/settings/Settings.sol:Settings",
        "label": "_implementationBlockUpdated",
        "offset": 0,
        "slot": "3",
        "type": "t_uint256"
      },
      {
        "astId": 1898,
        "contract": "contracts/base/settings/Settings.sol:Settings",
        "label": "settings",
        "offset": 0,
        "slot": "4",
        "type": "t_contract(SettingsInterface)15153"
      },
      {
        "astId": 1903,
        "contract": "contracts/base/settings/Settings.sol:Settings",
        "label": "__gap",
        "offset": 0,
        "slot": "5",
        "type": "t_array(t_uint256)10_storage"
      },
      {
        "astId": 12255,
        "contract": "contracts/base/settings/Settings.sol:Settings",
        "label": "lendingPoolPaused",
        "offset": 0,
        "slot": "15",
        "type": "t_mapping(t_address,t_bool)"
      },
      {
        "astId": 12260,
        "contract": "contracts/base/settings/Settings.sol:Settings",
        "label": "assetSettings",
        "offset": 0,
        "slot": "16",
        "type": "t_contract(AssetSettingsInterface)14175"
      },
      {
        "astId": 12266,
        "contract": "contracts/base/settings/Settings.sol:Settings",
        "label": "_platformSettings",
        "offset": 0,
        "slot": "17",
        "type": "t_mapping(t_bytes32,t_struct(PlatformSetting)18901_storage)"
      },
      {
        "astId": 12270,
        "contract": "contracts/base/settings/Settings.sol:Settings",
        "label": "cacheStorage",
        "offset": 0,
        "slot": "18",
        "type": "t_struct(Cache)17788_storage"
      },
      {
        "astId": 12275,
        "contract": "contracts/base/settings/Settings.sol:Settings",
        "label": "dappRegistry",
        "offset": 0,
        "slot": "23",
        "type": "t_contract(IDappRegistry)14267"
      },
      {
        "astId": 12280,
        "contract": "contracts/base/settings/Settings.sol:Settings",
        "label": "priceAggregator",
        "offset": 0,
        "slot": "24",
        "type": "t_contract(IPriceAggregator)14467"
      },
      {
        "astId": 12285,
        "contract": "contracts/base/settings/Settings.sol:Settings",
        "label": "marketFactory",
        "offset": 0,
        "slot": "25",
        "type": "t_contract(IMarketFactory)14327"
      },
      {
        "astId": 12290,
        "contract": "contracts/base/settings/Settings.sol:Settings",
        "label": "authorizedAddresses",
        "offset": 0,
        "slot": "26",
        "type": "t_mapping(t_address,t_bool)"
      },
      {
        "astId": 12293,
        "contract": "contracts/base/settings/Settings.sol:Settings",
        "label": "_pausers",
        "offset": 0,
        "slot": "27",
        "type": "t_struct(Role)16488_storage"
      },
      {
        "astId": 12296,
        "contract": "contracts/base/settings/Settings.sol:Settings",
        "label": "paused",
        "offset": 0,
        "slot": "28",
        "type": "t_bool"
      },
      {
        "astId": 12299,
        "contract": "contracts/base/settings/Settings.sol:Settings",
        "label": "platformRestricted",
        "offset": 1,
        "slot": "28",
        "type": "t_bool"
      }
    ],
    "types": {
      "t_address": {
        "encoding": "inplace",
        "label": "address",
        "numberOfBytes": "20"
      },
      "t_array(t_uint256)10_storage": {
        "base": "t_uint256",
        "encoding": "inplace",
        "label": "uint256[10]",
        "numberOfBytes": "320"
      },
      "t_bool": {
        "encoding": "inplace",
        "label": "bool",
        "numberOfBytes": "1"
      },
      "t_bytes32": {
        "encoding": "inplace",
        "label": "bytes32",
        "numberOfBytes": "32"
      },
      "t_contract(AssetSettingsInterface)14175": {
        "encoding": "inplace",
        "label": "contract AssetSettingsInterface",
        "numberOfBytes": "20"
      },
      "t_contract(IDappRegistry)14267": {
        "encoding": "inplace",
        "label": "contract IDappRegistry",
        "numberOfBytes": "20"
      },
      "t_contract(IMarketFactory)14327": {
        "encoding": "inplace",
        "label": "contract IMarketFactory",
        "numberOfBytes": "20"
      },
      "t_contract(IPriceAggregator)14467": {
        "encoding": "inplace",
        "label": "contract IPriceAggregator",
        "numberOfBytes": "20"
      },
      "t_contract(LogicVersionsRegistryInterface)14789": {
        "encoding": "inplace",
        "label": "contract LogicVersionsRegistryInterface",
        "numberOfBytes": "20"
      },
      "t_contract(SettingsInterface)15153": {
        "encoding": "inplace",
        "label": "contract SettingsInterface",
        "numberOfBytes": "20"
      },
      "t_int256": {
        "encoding": "inplace",
        "label": "int256",
        "numberOfBytes": "32"
      },
      "t_mapping(t_address,t_bool)": {
        "encoding": "mapping",
        "key": "t_address",
        "label": "mapping(address => bool)",
        "numberOfBytes": "32",
        "value": "t_bool"
      },
      "t_mapping(t_bytes32,t_address)": {
        "encoding": "mapping",
        "key": "t_bytes32",
        "label": "mapping(bytes32 => address)",
        "numberOfBytes": "32",
        "value": "t_address"
      },
      "t_mapping(t_bytes32,t_bool)": {
        "encoding": "mapping",
        "key": "t_bytes32",
        "label": "mapping(bytes32 => bool)",
        "numberOfBytes": "32",
        "value": "t_bool"
      },
      "t_mapping(t_bytes32,t_bytes32)": {
        "encoding": "mapping",
        "key": "t_bytes32",
        "label": "mapping(bytes32 => bytes32)",
        "numberOfBytes": "32",
        "value": "t_bytes32"
      },
      "t_mapping(t_bytes32,t_int256)": {
        "encoding": "mapping",
        "key": "t_bytes32",
        "label": "mapping(bytes32 => int256)",
        "numberOfBytes": "32",
        "value": "t_int256"
      },
      "t_mapping(t_bytes32,t_struct(PlatformSetting)18901_storage)": {
        "encoding": "mapping",
        "key": "t_bytes32",
        "label": "mapping(bytes32 => struct PlatformSettingsLib.PlatformSetting)",
        "numberOfBytes": "32",
        "value": "t_struct(PlatformSetting)18901_storage"
      },
      "t_mapping(t_bytes32,t_uint256)": {
        "encoding": "mapping",
        "key": "t_bytes32",
        "label": "mapping(bytes32 => uint256)",
        "numberOfBytes": "32",
        "value": "t_uint256"
      },
      "t_struct(Cache)17788_storage": {
        "encoding": "inplace",
        "label": "struct CacheLib.Cache",
        "members": [
          {
            "astId": 17771,
            "contract": "contracts/base/settings/Settings.sol:Settings",
            "label": "addresses",
            "offset": 0,
            "slot": "0",
            "type": "t_mapping(t_bytes32,t_address)"
          },
          {
            "astId": 17775,
            "contract": "contracts/base/settings/Settings.sol:Settings",
            "label": "uints",
            "offset": 0,
            "slot": "1",
            "type": "t_mapping(t_bytes32,t_uint256)"
          },
          {
            "astId": 17779,
            "contract": "contracts/base/settings/Settings.sol:Settings",
            "label": "ints",
            "offset": 0,
            "slot": "2",
            "type": "t_mapping(t_bytes32,t_int256)"
          },
          {
            "astId": 17783,
            "contract": "contracts/base/settings/Settings.sol:Settings",
            "label": "bites",
            "offset": 0,
            "slot": "3",
            "type": "t_mapping(t_bytes32,t_bytes32)"
          },
          {
            "astId": 17787,
            "contract": "contracts/base/settings/Settings.sol:Settings",
            "label": "bools",
            "offset": 0,
            "slot": "4",
            "type": "t_mapping(t_bytes32,t_bool)"
          }
        ],
        "numberOfBytes": "160"
      },
      "t_struct(PlatformSetting)18901_storage": {
        "encoding": "inplace",
        "label": "struct PlatformSettingsLib.PlatformSetting",
        "members": [
          {
            "astId": 18894,
            "contract": "contracts/base/settings/Settings.sol:Settings",
            "label": "value",
            "offset": 0,
            "slot": "0",
            "type": "t_uint256"
          },
          {
            "astId": 18896,
            "contract": "contracts/base/settings/Settings.sol:Settings",
            "label": "min",
            "offset": 0,
            "slot": "1",
            "type": "t_uint256"
          },
          {
            "astId": 18898,
            "contract": "contracts/base/settings/Settings.sol:Settings",
            "label": "max",
            "offset": 0,
            "slot": "2",
            "type": "t_uint256"
          },
          {
            "astId": 18900,
            "contract": "contracts/base/settings/Settings.sol:Settings",
            "label": "exists",
            "offset": 0,
            "slot": "3",
            "type": "t_bool"
          }
        ],
        "numberOfBytes": "128"
      },
      "t_struct(Role)16488_storage": {
        "encoding": "inplace",
        "label": "struct Roles.Role",
        "members": [
          {
            "astId": 16487,
            "contract": "contracts/base/settings/Settings.sol:Settings",
            "label": "bearer",
            "offset": 0,
            "slot": "0",
            "type": "t_mapping(t_address,t_bool)"
          }
        ],
        "numberOfBytes": "32"
      },
      "t_uint256": {
        "encoding": "inplace",
        "label": "uint256",
        "numberOfBytes": "32"
      }
    }
  }
}