{
  "address": "0xB2405cafD73b6a45314fE59eDBb63AeF06B1D1E7",
  "abi": [
    {
      "inputs": [
        {
          "components": [
            {
              "internalType": "address",
              "name": "logic",
              "type": "address"
            },
            {
              "internalType": "bytes32",
              "name": "logicName",
              "type": "bytes32"
            }
          ],
          "internalType": "struct TellerCommon.CreateLogicVersionRequest[]",
          "name": "initialLogicVersions",
          "type": "tuple[]"
        }
      ],
      "stateMutability": "nonpayable",
      "type": "constructor"
    },
    {
      "stateMutability": "payable",
      "type": "fallback"
    },
    {
      "inputs": [],
      "name": "_updateImplementationStored",
      "outputs": [],
      "stateMutability": "nonpayable",
      "type": "function"
    },
    {
      "inputs": [],
      "name": "implementation",
      "outputs": [
        {
          "internalType": "address",
          "name": "",
          "type": "address"
        }
      ],
      "stateMutability": "view",
      "type": "function"
    },
    {
      "inputs": [],
      "name": "implementationStored",
      "outputs": [
        {
          "internalType": "address",
          "name": "",
          "type": "address"
        }
      ],
      "stateMutability": "view",
      "type": "function"
    },
    {
      "inputs": [],
      "name": "logicName",
      "outputs": [
        {
          "internalType": "bytes32",
          "name": "",
          "type": "bytes32"
        }
      ],
      "stateMutability": "view",
      "type": "function"
    },
    {
      "inputs": [],
      "name": "logicRegistry",
      "outputs": [
        {
          "internalType": "contract LogicVersionsRegistryInterface",
          "name": "",
          "type": "address"
        }
      ],
      "stateMutability": "view",
      "type": "function"
    },
    {
      "inputs": [],
      "name": "strictDynamic",
      "outputs": [
        {
          "internalType": "bool",
          "name": "",
          "type": "bool"
        }
      ],
      "stateMutability": "view",
      "type": "function"
    },
    {
      "inputs": [
        {
          "internalType": "address",
          "name": "newImplementation",
          "type": "address"
        }
      ],
      "name": "upgradeProxyTo",
      "outputs": [],
      "stateMutability": "nonpayable",
      "type": "function"
    },
    {
      "stateMutability": "payable",
      "type": "receive"
    }
  ],
  "transactionHash": "0x8587ac21469c0123b99119484a849e3aba7aeec3af72bea61c5a7cfc826824c4",
  "args": [
    [
      {
        "logic": "0x9950dfE1ECD267FFD3559C2abA93Ef7787c45E53",
        "logicName": "0xe8211998bb257be214c7b0997830cd295066cc6adf46c8dea63a2079d60c88d3"
      },
      {
        "logic": "0xaA0eFc22508787A01eFCD9Bd4e10dFE7483dA7d1",
        "logicName": "0x599609e43baa8eabc45e909838d53694643ee218ebf1b4b7a321791b1b9a9081"
      },
      {
        "logic": "0x0685cB90c0Bdfb06679Be579508D429b63D9f485",
        "logicName": "0x0056904c0a65f3334119fcaee501fcf2401815b36cf85b134c2d27cfb887af78"
      },
      {
        "logic": "0x44ac4fD8f69f8FD2eeac0E2723F79A2BF26e397F",
        "logicName": "0x07c07ac62f597e1517b9ca2d2dc733939f20c4a6a5b6c36d6aff1c068b02ef56"
      },
      {
        "logic": "0xDe908Fd51535abA241B68dAFffC09A20b80DA026",
        "logicName": "0x5a5b13020b37630499f0a1edfebcc493a1caf9c034ea95b0bbead43875fba6ce"
      },
      {
        "logic": "0x77940a6e7C800bf8d909d568A59E47cb7c7b2d95",
        "logicName": "0x698a3c07617049c2f15d3f96333af3d44fbf5976ff9ca8e1df2e46ac61ce155a"
      },
      {
        "logic": "0x4b6C2263c94b7E5d16d0548DA328075E177F957A",
        "logicName": "0x87ff11116505b975498f87d319b3b9d631d98e48aa48a4655041faecc8d805ac"
      },
      {
        "logic": "0xBa08917fC27CD008eB244D8EAf2c66030eA596a2",
        "logicName": "0x5abf8f18cd2250f0e913a42d02d425f52ecab18635cec6156973ec60716bcdc8"
      },
      {
        "logic": "0xcC98f12a88Bf5Cb0AC0D79b81E4c60719Ce23F29",
        "logicName": "0x2c7abbef8c67109c83a9854286f6a8cac8bb0a5f8078b0fcf7c7307a1dcdf5b8"
      },
      {
        "logic": "0xfd7f9D58340DC9849e46752314a6A85d24446bbF",
        "logicName": "0x99c45e8ee5dde061ced9c812089094fbd28a020e7e37f2851198887e5ca64985"
      },
      {
        "logic": "0x40d6Cab1722fF9A0C5bBf5Fb00141C427039fE4a",
        "logicName": "0xa4f29ceeed4ecb3f2f06609c28eaaa349ebfbba614dd16a110a8e814679d83b5"
      },
      {
        "logic": "0x629812CEfd43A00D34101F9A218d518b11B0bd1F",
        "logicName": "0x976538aefd7128b69f5f7f601a5b179c5958a761edc91aed8b6e2f26f6ce8ab2"
      },
      {
        "logic": "0x60FD8B742dFc3f9c51C436EE15a1341886199791",
        "logicName": "0xb9bc528025c382c0c8143814a1df5b62366b6d562d71f58bf61651b823f98094"
      },
      {
        "logic": "0xb72717Ad0e150399b47183AB0613b2098296b53c",
        "logicName": "0x633877326f788b432ae18574047f885f3a28507d3b0ce743893f430eef658aed"
      },
      {
        "logic": "0x2c06A917921eA2f1AB18AE7bb85A2d4Ef3E5BC50",
        "logicName": "0xef50e911f20d49dcb807433e2e1465d94afd9f7f667a7a9bf79ebb3b1d0d51c3"
      },
      {
        "logic": "0x32Cd9474007782d4EECDd320284E3a9851aE353f",
        "logicName": "0x26d5e2e1cb692ef0e307b41d1be5956ec845ee19c6ec33f6ec0eecd0c67cfb65"
      },
      {
        "logic": "0xe3a22D5FB394c9137993404aC01a1E6208694b90",
        "logicName": "0x734f908d3e053e01e0db23bfa263f7fe75637377744696152acefed8fd9db07e"
      },
      {
        "logic": "0x3B6a45031041BAd9E3217D817Dccf92CD525Ad27",
        "logicName": "0xb9acdc78d83e2ccba862e252a2ff8178ac2791d9cfa1bbb55cbf6a505e48a04c"
      }
    ]
  ],
  "solcInputHash": "0c80e7fb8aff27a671cb2892ea4bafd6",
  "bytecode": "0x608060405234801561001057600080fd5b5060405162001ab538038062001ab583398101604081905261003191610203565b60405161003d906101d9565b604051809103906000f080158015610059573d6000803e3d6000fd5b50600080546001600160a01b0319166001600160a01b039290921691821790556040516332b0723b60e11b8152636560e4769061009c9033908590600401610308565b600060405180830381600087803b1580156100b657600080fd5b505af11580156100ca573d6000803e3d6000fd5b50507fe8211998bb257be214c7b0997830cd295066cc6adf46c8dea63a2079d60c88d360015550506002805460ff1916905561010461010a565b506103b3565b60008054600154604051638b51f58b60e01b81526001600160a01b0390921691638b51f58b916101409160040190815260200190565b60606040518083038186803b15801561015857600080fd5b505afa15801561016c573d6000803e3d6000fd5b505050506040513d601f19601f8201168201806040525081019061019091906102d4565b6002549093506001600160a01b03808516610100909204161491506101d290505760028054610100600160a81b0319166101006001600160a01b038416021790555b5043600355565b611142806200097383390190565b80516001600160a01b03811681146101fe57600080fd5b919050565b60006020808385031215610215578182fd5b82516001600160401b038082111561022b578384fd5b818501915085601f83011261023e578384fd5b8151818111156102505761025061039d565b61025e848260051b0161036d565b8181528481019250838501600683901b8501860189101561027d578687fd5b8694505b828510156102c857604080828b031215610299578788fd5b6102a28161036d565b6102ab836101e7565b815282880151888201528552600195909501949386019301610281565b50979650505050505050565b6000806000606084860312156102e8578182fd5b83519250602084015191506102ff604085016101e7565b90509250925092565b6001600160a01b0383811682526040602080840182905284518483018190526000938683019290916060870190865b8181101561035e578551805186168452840151848401529483019491860191600101610337565b50909998505050505050505050565b604051601f8201601f191681016001600160401b03811182821017156103955761039561039d565b604052919050565b634e487b7160e01b600052604160045260246000fd5b6105b080620003c36000396000f3fe6080604052600436106100745760003560e01c80634f8654bc1161004e5780634f8654bc1461010157806355dbd8eb146101265780635c60da1b14610146578063e154e9a41461015b57610083565b80631eb83d541461008b5780632c26486d146100a057806337c3eedc146100c957610083565b3661008357610081610185565b005b610081610185565b34801561009757600080fd5b5061008161019f565b3480156100ac57600080fd5b506100b660015481565b6040519081526020015b60405180910390f35b3480156100d557600080fd5b506000546100e9906001600160a01b031681565b6040516001600160a01b0390911681526020016100c0565b34801561010d57600080fd5b506002546100e99061010090046001600160a01b031681565b34801561013257600080fd5b506100816101413660046104aa565b61026e565b34801561015257600080fd5b506100e96102f1565b34801561016757600080fd5b506002546101759060ff1681565b60405190151581526020016100c0565b61018d610301565b61019d6101986103a0565b6103aa565b565b60008054600154604051638b51f58b60e01b81526001600160a01b0390921691638b51f58b916101d59160040190815260200190565b60606040518083038186803b1580156101ed57600080fd5b505afa158015610201573d6000803e3d6000fd5b505050506040513d601f19601f8201168201806040525081019061022591906104cd565b6002549093506001600160a01b038085166101009092041614915061026790505760028054610100600160a81b0319166101006001600160a01b038416021790555b5043600355565b6000546001600160a01b031633146102c55760405162461bcd60e51b81526020600482015260166024820152754d5553545f42455f4c4f4749435f524547495354525960501b604482015260640160405180910390fd5b600280546001600160a01b0390921661010002610100600160a81b031990921691909117905543600355565b60006102fb6103a0565b90505b90565b60025460ff168015610321575043600354603261031e919061053e565b11155b1561019d5760408051600481526024810182526020810180516001600160e01b03166307ae0f5560e21b1790529051309161035b91610505565b600060405180830381855af49150503d8060008114610396576040519150601f19603f3d011682016040523d82523d6000602084013e61039b565b606091505b505050565b60006102fb6103ce565b3660008037600080366000845af43d6000803e8080156103c9573d6000f35b3d6000fd5b60006103d8610483565b1561046e5760008054600154604051638b51f58b60e01b81526001600160a01b0390921691638b51f58b916104139160040190815260200190565b60606040518083038186803b15801561042b57600080fd5b505afa15801561043f573d6000803e3d6000fd5b505050506040513d601f19601f8201168201806040525081019061046391906104cd565b93506102fe92505050565b5060025461010090046001600160a01b031690565b60025460009060ff1680156102fb57504360035460016104a3919061053e565b1115905090565b6000602082840312156104bb578081fd5b81356104c681610562565b9392505050565b6000806000606084860312156104e1578182fd5b835192506020840151915060408401516104fa81610562565b809150509250925092565b60008251815b81811015610525576020818601810151858301520161050b565b818111156105335782828501525b509190910192915050565b6000821982111561055d57634e487b7160e01b81526011600452602481fd5b500190565b6001600160a01b038116811461057757600080fd5b5056fea26469706673582212208772fef30de142817dbde65b56536097bb1f7f888799feae7c4456d4c6a8b5b064736f6c63430008030033608060405234801561001057600080fd5b50611122806100206000396000f3fe608060405234801561001057600080fd5b50600436106100935760003560e01c80638da5cb5b116100665780638da5cb5b14610140578063b28f5abb1461016b578063cb8e2d9e1461018e578063e7dadafd146101a1578063f2fde38b146101b457610093565b80630e6c4d38146100985780635fd8a08a146100ad5780636560e476146100c05780638b51f58b146100d3575b600080fd5b6100ab6100a6366004610e6a565b6101c7565b005b6100ab6100bb366004610e2a565b610259565b6100ab6100ce366004610dd9565b6102de565b6101176100e1366004610efa565b600090815260016020818152604080842080549381015484865260029091019092529092205490926001600160a01b0390911690565b6040805193845260208401929092526001600160a01b0316908201526060015b60405180910390f35b600054610153906001600160a01b031681565b6040516001600160a01b039091168152602001610137565b61017e610179366004610efa565b610395565b6040519015158152602001610137565b6100ab61019c366004610f2a565b6103b0565b6100ab6101af366004610f65565b6103e5565b6100ab6101c2366004610dbf565b61048e565b6000546001600160a01b031633146101fa5760405162461bcd60e51b81526004016101f190611041565b60405180910390fd5b6102558282808060200260200160405190810160405280939291908181526020016000905b8282101561024b5761023c60608302860136819003810190610fc0565b8152602001906001019061021f565b50505050506104da565b5050565b6000546001600160a01b031633146102835760405162461bcd60e51b81526004016101f190611041565b6102558282808060200260200160405190810160405280939291908181526020016000905b828210156102d4576102c560408302860136819003810190610f86565b815260200190600101906102a8565b5050505050610584565b6000546001600160a01b0316156103265760405162461bcd60e51b815260206004820152600c60248201526b1053149150511657d253925560a21b60448201526064016101f1565b600080546001600160a01b0319166001600160a01b038516178155604080516020848102820181019092528381526103909290918591859182919085015b828210156102d45761038160408302860136819003810190610f86565b81526020019060010190610364565b505050565b60008181526001602052604090206003015460ff165b919050565b6000546001600160a01b031633146103da5760405162461bcd60e51b81526004016101f190611041565b610390838383610602565b6000546001600160a01b0316331461040f5760405162461bcd60e51b81526004016101f190611041565b60008281526001602052604081208190819061042b9085610943565b604080516001600160a01b0380851682528316602082015290810184905260608101889052929550909350915085907ffad7bb59662a3fdf43c11a59641c6acad1c447212d1c451412bc5d18faa1aaa49060800160405180910390a25050505050565b6000546001600160a01b031633146104b85760405162461bcd60e51b81526004016101f190611041565b600080546001600160a01b0319166001600160a01b0392909216919091179055565b60005b81518110156102555761057282828151811061050957634e487b7160e01b600052603260045260246000fd5b60200260200101516020015183838151811061053557634e487b7160e01b600052603260045260246000fd5b60200260200101516000015184848151811061056157634e487b7160e01b600052603260045260246000fd5b602002602001015160400151610602565b8061057c816110bb565b9150506104dd565b60005b8151811015610255576105f08282815181106105b357634e487b7160e01b600052603260045260246000fd5b6020026020010151602001518383815181106105df57634e487b7160e01b600052603260045260246000fd5b602002602001015160000151610a2b565b806105fa816110bb565b915050610587565b6001600160a01b038116156108c35760408051600481526024810182526020810180516001600160e01b03166338553a6960e21b179052905160009182916001600160a01b0385169161065491611008565b600060405180830381855afa9150503d806000811461068f576040519150601f19603f3d011682016040523d82523d6000602084013e610694565b606091505b50915091508180156106b55750808060200190518101906106b59190610eda565b6106f85760405162461bcd60e51b815260206004820152601460248201527350524f58595f5354524943545f44594e414d494360601b60448201526064016101f1565b60408051600481526024810182526020810180516001600160e01b0316632c26486d60e01b17905290516001600160a01b0385169161073691611008565b600060405180830381855afa9150503d8060008114610771576040519150601f19603f3d011682016040523d82523d6000602084013e610776565b606091505b50909250905081801561079b575084818060200190518101906107999190610f12565b145b6107dd5760405162461bcd60e51b81526020600482015260136024820152724d49534d415443485f4c4f4749435f4e414d4560681b60448201526064016101f1565b6040516001600160a01b03858116602483015284169060440160408051601f198184030181529181526020820180516001600160e01b03166355dbd8eb60e01b1790525161082b9190611008565b6000604051808303816000865af19150503d8060008114610868576040519150601f19603f3d011682016040523d82523d6000602084013e61086d565b606091505b505080925050816108c05760405162461bcd60e51b815260206004820152601a60248201527f4641494c45445f544f5f4449524543544c595f5550475241444500000000000060448201526064016101f1565b50505b6000838152600160205260408120819081906108df9086610ad9565b604080516001600160a01b0380861682528a16602082015290810183905260608101829052929550909350915086907f0599dc284af9eacdf296a3641636f76519a08e90a2b18f2bd2ccab49ae6cc4869060800160405180910390a2505050505050565b600080600061095185610c0f565b84548414156109a25760405162461bcd60e51b815260206004820152601c60248201527f43555252454e545f56455253494f4e5f4d5553545f42455f444946460000000060448201526064016101f1565b83856001015410156109f65760405162461bcd60e51b815260206004820152601a60248201527f56455253494f4e5f4d5553545f42455f4c54455f4c415445535400000000000060448201526064016101f1565b5050825460008181526002850160205260408082205485835291205493909455936001600160a01b0393841693909216919050565b81610a785760405162461bcd60e51b815260206004820152601b60248201527f4c4f4749435f4e414d455f4d5553545f42455f50524f5649444544000000000060448201526064016101f1565b6000828152600160205260409020610a909082610c59565b806001600160a01b0316827f8d6a306bb015034aa12c6b749d7d2e703b66086a3a89f3989bdaacafd0934fd36000604051610acd91815260200190565b60405180910390a35050565b6000806000610ae785610c0f565b845460009081526002860160205260409020546001600160a01b0385811691161415610b4a5760405162461bcd60e51b8152602060048201526012602482015271139155d7d313d1d250d7d49154555254915160721b60448201526064016101f1565b6001600160a01b0384163b610b9a5760405162461bcd60e51b81526020600482015260166024820152751313d1d250d7d35554d517d09157d0d3d395149050d560521b60448201526064016101f1565b845460008181526002870160205260409020546001808801546001600160a01b039092169550919350610bcc91610cff565b8086556001860181905560008181526002909601602052604090952080546001600160a01b0319166001600160a01b039590951694909417909355909390929150565b600381015460ff16610c565760405162461bcd60e51b815260206004820152601060248201526f4c4f4749435f4e4f545f45584953545360801b60448201526064016101f1565b50565b610c6282610d12565b6001600160a01b0381163b610cb25760405162461bcd60e51b81526020600482015260166024820152751313d1d250d7d35554d517d09157d0d3d395149050d560521b60448201526064016101f1565b6000808355600180840182905581805260028401602052604090912080546001600160a01b0319166001600160a01b0393909316929092179091556003909101805460ff19169091179055565b6000610d0b82846110a3565b9392505050565b600381015460ff1615610c565760405162461bcd60e51b81526020600482015260146024820152734c4f4749435f414c52454144595f45584953545360601b60448201526064016101f1565b80356001600160a01b03811681146103ab57600080fd5b60008083601f840112610d86578182fd5b50813567ffffffffffffffff811115610d9d578182fd5b6020830191508360208260061b8501011115610db857600080fd5b9250929050565b600060208284031215610dd0578081fd5b610d0b82610d5e565b600080600060408486031215610ded578182fd5b610df684610d5e565b9250602084013567ffffffffffffffff811115610e11578283fd5b610e1d86828701610d75565b9497909650939450505050565b60008060208385031215610e3c578182fd5b823567ffffffffffffffff811115610e52578283fd5b610e5e85828601610d75565b90969095509350505050565b60008060208385031215610e7c578182fd5b823567ffffffffffffffff80821115610e93578384fd5b818501915085601f830112610ea6578384fd5b813581811115610eb4578485fd5b866020606083028501011115610ec8578485fd5b60209290920196919550909350505050565b600060208284031215610eeb578081fd5b81518015158114610d0b578182fd5b600060208284031215610f0b578081fd5b5035919050565b600060208284031215610f23578081fd5b5051919050565b600080600060608486031215610f3e578283fd5b83359250610f4e60208501610d5e565b9150610f5c60408501610d5e565b90509250925092565b60008060408385031215610f77578182fd5b50508035926020909101359150565b600060408284031215610f97578081fd5b610fa16040611064565b610faa83610d5e565b8152602083013560208201528091505092915050565b600060608284031215610fd1578081fd5b610fdb6060611064565b610fe483610d5e565b815260208301356020820152610ffc60408401610d5e565b60408201529392505050565b60008251815b81811015611028576020818601810151858301520161100e565b818111156110365782828501525b509190910192915050565b6020808252600990820152682727aa2fa7aba722a960b91b604082015260600190565b604051601f8201601f1916810167ffffffffffffffff8111828210171561109b57634e487b7160e01b600052604160045260246000fd5b604052919050565b600082198211156110b6576110b66110d6565b500190565b60006000198214156110cf576110cf6110d6565b5060010190565b634e487b7160e01b600052601160045260246000fdfea2646970667358221220dc5e0d895b903de450d64640813c90297ba6809ba7b6545e8455b45489fd53b064736f6c63430008030033",
  "devdoc": {
    "author": "develop@teller.finance",
    "kind": "dev",
    "methods": {
      "_updateImplementationStored()": {
        "details": "It uses the LogicVersionsRegistry contract to get the logic address or the cached address if valid.It caches the current logic address for the proxy to reduce gas on subsequent calls within the same block."
      },
      "constructor": {
        "params": {
          "initialLogicVersions": "list of the logic versions to create."
        }
      },
      "implementation()": {
        "returns": {
          "_0": "Address of the current implementation"
        }
      }
    },
    "version": 1
  },
  "userdoc": {
    "kind": "user",
    "methods": {
      "_updateImplementationStored()": {
        "notice": "Updates the current implementation logic address for the stored logic name."
      },
      "constructor": {
        "notice": "It creates the LogicVersionsRegistry that will be used for the platform and create initial logic versions."
      },
      "implementation()": {
        "notice": "Returns the current implementation."
      },
      "implementationStored()": {
        "notice": "It stores the last known logic address locally to reduce gas costs."
      },
      "logicName()": {
        "notice": "It represent the logic name (key) used for this proxy."
      },
      "logicRegistry()": {
        "notice": "It returns the logic registry that is used to determine the implementation logic for this proxy."
      },
      "strictDynamic()": {
        "notice": "Boolean indicating if the proxy must check the registry for a new implementation."
      },
      "upgradeProxyTo(address)": {
        "notice": "It updates a proxy's cached implementation address.It must only be called by the LogicVersionsRegistry for non strict DynamicProxy"
      }
    },
    "notice": "It is a dynamic proxy contract for any contract. It uses the logic versions registry to get a logic contract address.It extends BaseUpgradeable to get access to the settings.",
    "version": 1
  },
  "storageLayout": {
    "storage": [
      {
        "astId": 13960,
        "contract": "contracts/base/proxies/SettingsDynamicProxy.sol:SettingsDynamicProxy",
        "label": "logicRegistry",
        "offset": 0,
        "slot": "0",
        "type": "t_contract(LogicVersionsRegistryInterface)14789"
      },
      {
        "astId": 13963,
        "contract": "contracts/base/proxies/SettingsDynamicProxy.sol:SettingsDynamicProxy",
        "label": "logicName",
        "offset": 0,
        "slot": "1",
        "type": "t_bytes32"
      },
      {
        "astId": 13966,
        "contract": "contracts/base/proxies/SettingsDynamicProxy.sol:SettingsDynamicProxy",
        "label": "strictDynamic",
        "offset": 0,
        "slot": "2",
        "type": "t_bool"
      },
      {
        "astId": 13969,
        "contract": "contracts/base/proxies/SettingsDynamicProxy.sol:SettingsDynamicProxy",
        "label": "implementationStored",
        "offset": 1,
        "slot": "2",
        "type": "t_address"
      },
      {
        "astId": 13972,
        "contract": "contracts/base/proxies/SettingsDynamicProxy.sol:SettingsDynamicProxy",
        "label": "_implementationBlockUpdated",
        "offset": 0,
        "slot": "3",
        "type": "t_uint256"
      }
    ],
    "types": {
      "t_address": {
        "encoding": "inplace",
        "label": "address",
        "numberOfBytes": "20"
      },
      "t_bool": {
        "encoding": "inplace",
        "label": "bool",
        "numberOfBytes": "1"
      },
      "t_bytes32": {
        "encoding": "inplace",
        "label": "bytes32",
        "numberOfBytes": "32"
      },
      "t_contract(LogicVersionsRegistryInterface)14789": {
        "encoding": "inplace",
        "label": "contract LogicVersionsRegistryInterface",
        "numberOfBytes": "20"
      },
      "t_uint256": {
        "encoding": "inplace",
        "label": "uint256",
        "numberOfBytes": "32"
      }
    }
  }
}