{
  "address": "0xc3cB507553f192879c74879102fBB80286bcf12F",
  "abi": [
    {
      "inputs": [
        {
          "internalType": "address",
          "name": "asset",
          "type": "address"
        },
        {
          "internalType": "address",
          "name": "account",
          "type": "address"
        }
      ],
      "name": "addSigner",
      "outputs": [],
      "stateMutability": "nonpayable",
      "type": "function"
    },
    {
      "inputs": [
        {
          "internalType": "address",
          "name": "asset",
          "type": "address"
        },
        {
          "internalType": "address[]",
          "name": "accounts",
          "type": "address[]"
        }
      ],
      "name": "addSigners",
      "outputs": [],
      "stateMutability": "nonpayable",
      "type": "function"
    },
    {
      "inputs": [
        {
          "internalType": "address",
          "name": "asset",
          "type": "address"
        },
        {
          "internalType": "address",
          "name": "account",
          "type": "address"
        }
      ],
      "name": "isSigner",
      "outputs": [
        {
          "internalType": "bool",
          "name": "isSigner_",
          "type": "bool"
        }
      ],
      "stateMutability": "view",
      "type": "function"
    }
  ],
  "artifactName": "SignersFacet",
  "transactionHash": "0x2cb9616ad363764e5ab7355eea260863a0e4afe8253e958d7eebd0015346dd68",
  "args": [],
  "solcInputHash": "7646e63ef89d3687a032672685314b8f",
  "bytecode": "0x608060405234801561001057600080fd5b5061036d806100206000396000f3fe608060405234801561001057600080fd5b50600436106100415760003560e01c80632239f5561461004657806346efd16c1461005b57806378b248e41461006e575b600080fd5b61005961005436600461025d565b610095565b005b61005961006936600461028f565b6100a3565b61008161007c36600461025d565b610104565b604051901515815260200160405180910390f35b61009f828261014c565b5050565b60005b818110156100fe576100ec848484848181106100d257634e487b7160e01b600052603260045260246000fd5b90506020020160208101906100e79190610243565b61014c565b806100f681610310565b9150506100a6565b50505050565b6001600160a01b03821660009081527f0553069f1f0518e59f8623c18c83a1f987f2a0544d563e98dd803a7078142a8e6020526040812061014590836101a0565b9392505050565b6101568282610104565b61009f576001600160a01b03821660009081527f0553069f1f0518e59f8623c18c83a1f987f2a0544d563e98dd803a7078142a8e6020526040902061019b90826101c8565b505050565b6001600160a01b03811660009081526001830160205260408120541515610145565b92915050565b6000610145836001600160a01b038416600081815260018301602052604081205461021f575081546001818101845560008481526020808220909301849055845484825282860190935260409020919091556101c2565b5060006101c2565b80356001600160a01b038116811461023e57600080fd5b919050565b600060208284031215610254578081fd5b61014582610227565b6000806040838503121561026f578081fd5b61027883610227565b915061028660208401610227565b90509250929050565b6000806000604084860312156102a3578081fd5b6102ac84610227565b9250602084013567ffffffffffffffff808211156102c8578283fd5b818601915086601f8301126102db578283fd5b8135818111156102e9578384fd5b8760208260051b85010111156102fd578384fd5b6020830194508093505050509250925092565b600060001982141561033057634e487b7160e01b81526011600452602481fd5b506001019056fea2646970667358221220284daa946367354e1fce52676aa85fd1d246b0d9011c7d0511b68a435a7a85ad64736f6c63430008030033",
  "history": [
    {
      "address": "0x5503066A836Df524F8871cbb84c4290F7d65bB60",
      "abi": [
        {
          "inputs": [
            {
              "internalType": "address",
              "name": "asset",
              "type": "address"
            },
            {
              "internalType": "address",
              "name": "account",
              "type": "address"
            }
          ],
          "name": "addSigner",
          "outputs": [],
          "stateMutability": "nonpayable",
          "type": "function"
        },
        {
          "inputs": [
            {
              "internalType": "address",
              "name": "asset",
              "type": "address"
            },
            {
              "internalType": "address[]",
              "name": "accounts",
              "type": "address[]"
            }
          ],
          "name": "addSigners",
          "outputs": [],
          "stateMutability": "nonpayable",
          "type": "function"
        },
        {
          "inputs": [
            {
              "internalType": "address",
              "name": "asset",
              "type": "address"
            },
            {
              "internalType": "address",
              "name": "account",
              "type": "address"
            }
          ],
          "name": "isSigner",
          "outputs": [
            {
              "internalType": "bool",
              "name": "isSigner_",
              "type": "bool"
            }
          ],
          "stateMutability": "view",
          "type": "function"
        }
      ],
      "artifactName": "SignersFacet",
      "transactionHash": "0x5246f3aa90c8b3cef48ca5e0326a4db79e95b29e08359be8da7ef9f3c84c09c4",
      "receipt": {
        "to": null,
        "from": "0xAFe87013dc96edE1E116a288D80FcaA0eFFE5fe5",
        "contractAddress": "0x5503066A836Df524F8871cbb84c4290F7d65bB60",
        "transactionIndex": 0,
        "gasUsed": "242576",
        "logsBloom": "0x00000000000000000000000000000000000000000000000000000000000000000000000000000000000000000000000000000000000000000000000000000000000000000000000000000000000000000000000000000000000000000000000000000000000000000000000000000000000000000000000000000000000000000000000000000000000000000000000000000000000000000000000000000000000000000000000000000000000000000000000000000000000000000000000000000000000000000000000000000000000000000000000000000000000000000000000000000000000000000000000000000000000000000000000000000000",
        "blockHash": "0xe1b85fedbc584efd39ee0087fabda57aea00f2831c7719b2991720f8db4ea34d",
        "transactionHash": "0x5246f3aa90c8b3cef48ca5e0326a4db79e95b29e08359be8da7ef9f3c84c09c4",
        "logs": [],
        "blockNumber": 25103796,
        "cumulativeGasUsed": "242576",
        "status": 1,
        "byzantium": true
      },
      "args": [],
      "solcInputHash": "dc3b3c0336b59a4fae33a8cd036a81b5",
      "metadata": "{\"compiler\":{\"version\":\"0.8.3+commit.8d00100c\"},\"language\":\"Solidity\",\"output\":{\"abi\":[{\"inputs\":[{\"internalType\":\"address\",\"name\":\"asset\",\"type\":\"address\"},{\"internalType\":\"address\",\"name\":\"account\",\"type\":\"address\"}],\"name\":\"addSigner\",\"outputs\":[],\"stateMutability\":\"nonpayable\",\"type\":\"function\"},{\"inputs\":[{\"internalType\":\"address\",\"name\":\"asset\",\"type\":\"address\"},{\"internalType\":\"address[]\",\"name\":\"accounts\",\"type\":\"address[]\"}],\"name\":\"addSigners\",\"outputs\":[],\"stateMutability\":\"nonpayable\",\"type\":\"function\"},{\"inputs\":[{\"internalType\":\"address\",\"name\":\"asset\",\"type\":\"address\"},{\"internalType\":\"address\",\"name\":\"account\",\"type\":\"address\"}],\"name\":\"isSigner\",\"outputs\":[{\"internalType\":\"bool\",\"name\":\"isSigner_\",\"type\":\"bool\"}],\"stateMutability\":\"view\",\"type\":\"function\"}],\"devdoc\":{\"kind\":\"dev\",\"methods\":{\"addSigner(address,address)\":{\"details\":\"The sender must be the owner.It throws a require error if the sender is not the owner.\",\"params\":{\"account\":\"address to add.\",\"asset\":\"Token address to add signers for.\"}},\"addSigners(address,address[])\":{\"details\":\"The sender must be the owner.It throws a require error if the sender is not the owner.\",\"params\":{\"accounts\":\"addresses to add.\",\"asset\":\"Token address to add signers for.\"}}},\"version\":1},\"userdoc\":{\"kind\":\"user\",\"methods\":{\"addSigner(address,address)\":{\"notice\":\"It adds a new account as a signer.\"},\"addSigners(address,address[])\":{\"notice\":\"It adds a list of account as signers.\"}},\"version\":1}},\"settings\":{\"compilationTarget\":{\"contracts/market/SignersFacet.sol\":\"SignersFacet\"},\"evmVersion\":\"istanbul\",\"libraries\":{},\"metadata\":{\"bytecodeHash\":\"ipfs\",\"useLiteralContent\":true},\"optimizer\":{\"enabled\":true,\"runs\":200},\"remappings\":[]},\"sources\":{\"@openzeppelin/contracts-upgradeable/proxy/utils/Initializable.sol\":{\"content\":\"// SPDX-License-Identifier: MIT\\n\\n// solhint-disable-next-line compiler-version\\npragma solidity ^0.8.0;\\n\\n/**\\n * @dev This is a base contract to aid in writing upgradeable contracts, or any kind of contract that will be deployed\\n * behind a proxy. Since a proxied contract can't have a constructor, it's common to move constructor logic to an\\n * external initializer function, usually called `initialize`. It then becomes necessary to protect this initializer\\n * function so it can only be called once. The {initializer} modifier provided by this contract will have this effect.\\n *\\n * TIP: To avoid leaving the proxy in an uninitialized state, the initializer function should be called as early as\\n * possible by providing the encoded function call as the `_data` argument to {ERC1967Proxy-constructor}.\\n *\\n * CAUTION: When used with inheritance, manual care must be taken to not invoke a parent initializer twice, or to ensure\\n * that all initializers are idempotent. This is not verified automatically as constructors are by Solidity.\\n */\\nabstract contract Initializable {\\n\\n    /**\\n     * @dev Indicates that the contract has been initialized.\\n     */\\n    bool private _initialized;\\n\\n    /**\\n     * @dev Indicates that the contract is in the process of being initialized.\\n     */\\n    bool private _initializing;\\n\\n    /**\\n     * @dev Modifier to protect an initializer function from being invoked twice.\\n     */\\n    modifier initializer() {\\n        require(_initializing || !_initialized, \\\"Initializable: contract is already initialized\\\");\\n\\n        bool isTopLevelCall = !_initializing;\\n        if (isTopLevelCall) {\\n            _initializing = true;\\n            _initialized = true;\\n        }\\n\\n        _;\\n\\n        if (isTopLevelCall) {\\n            _initializing = false;\\n        }\\n    }\\n}\\n\",\"keccak256\":\"0x67d2f282a9678e58e878a0b774041ba7a01e2740a262aea97a3f681339914713\",\"license\":\"MIT\"},\"@openzeppelin/contracts-upgradeable/token/ERC20/ERC20Upgradeable.sol\":{\"content\":\"// SPDX-License-Identifier: MIT\\n\\npragma solidity ^0.8.0;\\n\\nimport \\\"./IERC20Upgradeable.sol\\\";\\nimport \\\"./extensions/IERC20MetadataUpgradeable.sol\\\";\\nimport \\\"../../utils/ContextUpgradeable.sol\\\";\\nimport \\\"../../proxy/utils/Initializable.sol\\\";\\n\\n/**\\n * @dev Implementation of the {IERC20} interface.\\n *\\n * This implementation is agnostic to the way tokens are created. This means\\n * that a supply mechanism has to be added in a derived contract using {_mint}.\\n * For a generic mechanism see {ERC20PresetMinterPauser}.\\n *\\n * TIP: For a detailed writeup see our guide\\n * https://forum.zeppelin.solutions/t/how-to-implement-erc20-supply-mechanisms/226[How\\n * to implement supply mechanisms].\\n *\\n * We have followed general OpenZeppelin guidelines: functions revert instead\\n * of returning `false` on failure. This behavior is nonetheless conventional\\n * and does not conflict with the expectations of ERC20 applications.\\n *\\n * Additionally, an {Approval} event is emitted on calls to {transferFrom}.\\n * This allows applications to reconstruct the allowance for all accounts just\\n * by listening to said events. Other implementations of the EIP may not emit\\n * these events, as it isn't required by the specification.\\n *\\n * Finally, the non-standard {decreaseAllowance} and {increaseAllowance}\\n * functions have been added to mitigate the well-known issues around setting\\n * allowances. See {IERC20-approve}.\\n */\\ncontract ERC20Upgradeable is Initializable, ContextUpgradeable, IERC20Upgradeable, IERC20MetadataUpgradeable {\\n    mapping (address => uint256) private _balances;\\n\\n    mapping (address => mapping (address => uint256)) private _allowances;\\n\\n    uint256 private _totalSupply;\\n\\n    string private _name;\\n    string private _symbol;\\n\\n    /**\\n     * @dev Sets the values for {name} and {symbol}.\\n     *\\n     * The defaut value of {decimals} is 18. To select a different value for\\n     * {decimals} you should overload it.\\n     *\\n     * All two of these values are immutable: they can only be set once during\\n     * construction.\\n     */\\n    function __ERC20_init(string memory name_, string memory symbol_) internal initializer {\\n        __Context_init_unchained();\\n        __ERC20_init_unchained(name_, symbol_);\\n    }\\n\\n    function __ERC20_init_unchained(string memory name_, string memory symbol_) internal initializer {\\n        _name = name_;\\n        _symbol = symbol_;\\n    }\\n\\n    /**\\n     * @dev Returns the name of the token.\\n     */\\n    function name() public view virtual override returns (string memory) {\\n        return _name;\\n    }\\n\\n    /**\\n     * @dev Returns the symbol of the token, usually a shorter version of the\\n     * name.\\n     */\\n    function symbol() public view virtual override returns (string memory) {\\n        return _symbol;\\n    }\\n\\n    /**\\n     * @dev Returns the number of decimals used to get its user representation.\\n     * For example, if `decimals` equals `2`, a balance of `505` tokens should\\n     * be displayed to a user as `5,05` (`505 / 10 ** 2`).\\n     *\\n     * Tokens usually opt for a value of 18, imitating the relationship between\\n     * Ether and Wei. This is the value {ERC20} uses, unless this function is\\n     * overridden;\\n     *\\n     * NOTE: This information is only used for _display_ purposes: it in\\n     * no way affects any of the arithmetic of the contract, including\\n     * {IERC20-balanceOf} and {IERC20-transfer}.\\n     */\\n    function decimals() public view virtual override returns (uint8) {\\n        return 18;\\n    }\\n\\n    /**\\n     * @dev See {IERC20-totalSupply}.\\n     */\\n    function totalSupply() public view virtual override returns (uint256) {\\n        return _totalSupply;\\n    }\\n\\n    /**\\n     * @dev See {IERC20-balanceOf}.\\n     */\\n    function balanceOf(address account) public view virtual override returns (uint256) {\\n        return _balances[account];\\n    }\\n\\n    /**\\n     * @dev See {IERC20-transfer}.\\n     *\\n     * Requirements:\\n     *\\n     * - `recipient` cannot be the zero address.\\n     * - the caller must have a balance of at least `amount`.\\n     */\\n    function transfer(address recipient, uint256 amount) public virtual override returns (bool) {\\n        _transfer(_msgSender(), recipient, amount);\\n        return true;\\n    }\\n\\n    /**\\n     * @dev See {IERC20-allowance}.\\n     */\\n    function allowance(address owner, address spender) public view virtual override returns (uint256) {\\n        return _allowances[owner][spender];\\n    }\\n\\n    /**\\n     * @dev See {IERC20-approve}.\\n     *\\n     * Requirements:\\n     *\\n     * - `spender` cannot be the zero address.\\n     */\\n    function approve(address spender, uint256 amount) public virtual override returns (bool) {\\n        _approve(_msgSender(), spender, amount);\\n        return true;\\n    }\\n\\n    /**\\n     * @dev See {IERC20-transferFrom}.\\n     *\\n     * Emits an {Approval} event indicating the updated allowance. This is not\\n     * required by the EIP. See the note at the beginning of {ERC20}.\\n     *\\n     * Requirements:\\n     *\\n     * - `sender` and `recipient` cannot be the zero address.\\n     * - `sender` must have a balance of at least `amount`.\\n     * - the caller must have allowance for ``sender``'s tokens of at least\\n     * `amount`.\\n     */\\n    function transferFrom(address sender, address recipient, uint256 amount) public virtual override returns (bool) {\\n        _transfer(sender, recipient, amount);\\n\\n        uint256 currentAllowance = _allowances[sender][_msgSender()];\\n        require(currentAllowance >= amount, \\\"ERC20: transfer amount exceeds allowance\\\");\\n        _approve(sender, _msgSender(), currentAllowance - amount);\\n\\n        return true;\\n    }\\n\\n    /**\\n     * @dev Atomically increases the allowance granted to `spender` by the caller.\\n     *\\n     * This is an alternative to {approve} that can be used as a mitigation for\\n     * problems described in {IERC20-approve}.\\n     *\\n     * Emits an {Approval} event indicating the updated allowance.\\n     *\\n     * Requirements:\\n     *\\n     * - `spender` cannot be the zero address.\\n     */\\n    function increaseAllowance(address spender, uint256 addedValue) public virtual returns (bool) {\\n        _approve(_msgSender(), spender, _allowances[_msgSender()][spender] + addedValue);\\n        return true;\\n    }\\n\\n    /**\\n     * @dev Atomically decreases the allowance granted to `spender` by the caller.\\n     *\\n     * This is an alternative to {approve} that can be used as a mitigation for\\n     * problems described in {IERC20-approve}.\\n     *\\n     * Emits an {Approval} event indicating the updated allowance.\\n     *\\n     * Requirements:\\n     *\\n     * - `spender` cannot be the zero address.\\n     * - `spender` must have allowance for the caller of at least\\n     * `subtractedValue`.\\n     */\\n    function decreaseAllowance(address spender, uint256 subtractedValue) public virtual returns (bool) {\\n        uint256 currentAllowance = _allowances[_msgSender()][spender];\\n        require(currentAllowance >= subtractedValue, \\\"ERC20: decreased allowance below zero\\\");\\n        _approve(_msgSender(), spender, currentAllowance - subtractedValue);\\n\\n        return true;\\n    }\\n\\n    /**\\n     * @dev Moves tokens `amount` from `sender` to `recipient`.\\n     *\\n     * This is internal function is equivalent to {transfer}, and can be used to\\n     * e.g. implement automatic token fees, slashing mechanisms, etc.\\n     *\\n     * Emits a {Transfer} event.\\n     *\\n     * Requirements:\\n     *\\n     * - `sender` cannot be the zero address.\\n     * - `recipient` cannot be the zero address.\\n     * - `sender` must have a balance of at least `amount`.\\n     */\\n    function _transfer(address sender, address recipient, uint256 amount) internal virtual {\\n        require(sender != address(0), \\\"ERC20: transfer from the zero address\\\");\\n        require(recipient != address(0), \\\"ERC20: transfer to the zero address\\\");\\n\\n        _beforeTokenTransfer(sender, recipient, amount);\\n\\n        uint256 senderBalance = _balances[sender];\\n        require(senderBalance >= amount, \\\"ERC20: transfer amount exceeds balance\\\");\\n        _balances[sender] = senderBalance - amount;\\n        _balances[recipient] += amount;\\n\\n        emit Transfer(sender, recipient, amount);\\n    }\\n\\n    /** @dev Creates `amount` tokens and assigns them to `account`, increasing\\n     * the total supply.\\n     *\\n     * Emits a {Transfer} event with `from` set to the zero address.\\n     *\\n     * Requirements:\\n     *\\n     * - `to` cannot be the zero address.\\n     */\\n    function _mint(address account, uint256 amount) internal virtual {\\n        require(account != address(0), \\\"ERC20: mint to the zero address\\\");\\n\\n        _beforeTokenTransfer(address(0), account, amount);\\n\\n        _totalSupply += amount;\\n        _balances[account] += amount;\\n        emit Transfer(address(0), account, amount);\\n    }\\n\\n    /**\\n     * @dev Destroys `amount` tokens from `account`, reducing the\\n     * total supply.\\n     *\\n     * Emits a {Transfer} event with `to` set to the zero address.\\n     *\\n     * Requirements:\\n     *\\n     * - `account` cannot be the zero address.\\n     * - `account` must have at least `amount` tokens.\\n     */\\n    function _burn(address account, uint256 amount) internal virtual {\\n        require(account != address(0), \\\"ERC20: burn from the zero address\\\");\\n\\n        _beforeTokenTransfer(account, address(0), amount);\\n\\n        uint256 accountBalance = _balances[account];\\n        require(accountBalance >= amount, \\\"ERC20: burn amount exceeds balance\\\");\\n        _balances[account] = accountBalance - amount;\\n        _totalSupply -= amount;\\n\\n        emit Transfer(account, address(0), amount);\\n    }\\n\\n    /**\\n     * @dev Sets `amount` as the allowance of `spender` over the `owner` s tokens.\\n     *\\n     * This internal function is equivalent to `approve`, and can be used to\\n     * e.g. set automatic allowances for certain subsystems, etc.\\n     *\\n     * Emits an {Approval} event.\\n     *\\n     * Requirements:\\n     *\\n     * - `owner` cannot be the zero address.\\n     * - `spender` cannot be the zero address.\\n     */\\n    function _approve(address owner, address spender, uint256 amount) internal virtual {\\n        require(owner != address(0), \\\"ERC20: approve from the zero address\\\");\\n        require(spender != address(0), \\\"ERC20: approve to the zero address\\\");\\n\\n        _allowances[owner][spender] = amount;\\n        emit Approval(owner, spender, amount);\\n    }\\n\\n    /**\\n     * @dev Hook that is called before any transfer of tokens. This includes\\n     * minting and burning.\\n     *\\n     * Calling conditions:\\n     *\\n     * - when `from` and `to` are both non-zero, `amount` of ``from``'s tokens\\n     * will be to transferred to `to`.\\n     * - when `from` is zero, `amount` tokens will be minted for `to`.\\n     * - when `to` is zero, `amount` of ``from``'s tokens will be burned.\\n     * - `from` and `to` are never both zero.\\n     *\\n     * To learn more about hooks, head to xref:ROOT:extending-contracts.adoc#using-hooks[Using Hooks].\\n     */\\n    function _beforeTokenTransfer(address from, address to, uint256 amount) internal virtual { }\\n    uint256[45] private __gap;\\n}\\n\",\"keccak256\":\"0x9c2d7425f3343ea340d6ea67e9d90109d4d846bb013c2572096ec88c9e74946b\",\"license\":\"MIT\"},\"@openzeppelin/contracts-upgradeable/token/ERC20/IERC20Upgradeable.sol\":{\"content\":\"// SPDX-License-Identifier: MIT\\n\\npragma solidity ^0.8.0;\\n\\n/**\\n * @dev Interface of the ERC20 standard as defined in the EIP.\\n */\\ninterface IERC20Upgradeable {\\n    /**\\n     * @dev Returns the amount of tokens in existence.\\n     */\\n    function totalSupply() external view returns (uint256);\\n\\n    /**\\n     * @dev Returns the amount of tokens owned by `account`.\\n     */\\n    function balanceOf(address account) external view returns (uint256);\\n\\n    /**\\n     * @dev Moves `amount` tokens from the caller's account to `recipient`.\\n     *\\n     * Returns a boolean value indicating whether the operation succeeded.\\n     *\\n     * Emits a {Transfer} event.\\n     */\\n    function transfer(address recipient, uint256 amount) external returns (bool);\\n\\n    /**\\n     * @dev Returns the remaining number of tokens that `spender` will be\\n     * allowed to spend on behalf of `owner` through {transferFrom}. This is\\n     * zero by default.\\n     *\\n     * This value changes when {approve} or {transferFrom} are called.\\n     */\\n    function allowance(address owner, address spender) external view returns (uint256);\\n\\n    /**\\n     * @dev Sets `amount` as the allowance of `spender` over the caller's tokens.\\n     *\\n     * Returns a boolean value indicating whether the operation succeeded.\\n     *\\n     * IMPORTANT: Beware that changing an allowance with this method brings the risk\\n     * that someone may use both the old and the new allowance by unfortunate\\n     * transaction ordering. One possible solution to mitigate this race\\n     * condition is to first reduce the spender's allowance to 0 and set the\\n     * desired value afterwards:\\n     * https://github.com/ethereum/EIPs/issues/20#issuecomment-263524729\\n     *\\n     * Emits an {Approval} event.\\n     */\\n    function approve(address spender, uint256 amount) external returns (bool);\\n\\n    /**\\n     * @dev Moves `amount` tokens from `sender` to `recipient` using the\\n     * allowance mechanism. `amount` is then deducted from the caller's\\n     * allowance.\\n     *\\n     * Returns a boolean value indicating whether the operation succeeded.\\n     *\\n     * Emits a {Transfer} event.\\n     */\\n    function transferFrom(address sender, address recipient, uint256 amount) external returns (bool);\\n\\n    /**\\n     * @dev Emitted when `value` tokens are moved from one account (`from`) to\\n     * another (`to`).\\n     *\\n     * Note that `value` may be zero.\\n     */\\n    event Transfer(address indexed from, address indexed to, uint256 value);\\n\\n    /**\\n     * @dev Emitted when the allowance of a `spender` for an `owner` is set by\\n     * a call to {approve}. `value` is the new allowance.\\n     */\\n    event Approval(address indexed owner, address indexed spender, uint256 value);\\n}\\n\",\"keccak256\":\"0x8d4a0f2b5b760b5e2c19ed3c108d83897a4dfd5bfed97a93867918df19191e5e\",\"license\":\"MIT\"},\"@openzeppelin/contracts-upgradeable/token/ERC20/extensions/IERC20MetadataUpgradeable.sol\":{\"content\":\"// SPDX-License-Identifier: MIT\\n\\npragma solidity ^0.8.0;\\n\\nimport \\\"../IERC20Upgradeable.sol\\\";\\n\\n/**\\n * @dev Interface for the optional metadata functions from the ERC20 standard.\\n *\\n * _Available since v4.1._\\n */\\ninterface IERC20MetadataUpgradeable is IERC20Upgradeable {\\n    /**\\n     * @dev Returns the name of the token.\\n     */\\n    function name() external view returns (string memory);\\n\\n    /**\\n     * @dev Returns the symbol of the token.\\n     */\\n    function symbol() external view returns (string memory);\\n\\n    /**\\n     * @dev Returns the decimals places of the token.\\n     */\\n    function decimals() external view returns (uint8);\\n}\\n\",\"keccak256\":\"0x6795c369a4eefa78468e38966f7851fbc2dda5e5b9ccd3fa2b45970e2e4d3abd\",\"license\":\"MIT\"},\"@openzeppelin/contracts-upgradeable/utils/ContextUpgradeable.sol\":{\"content\":\"// SPDX-License-Identifier: MIT\\n\\npragma solidity ^0.8.0;\\nimport \\\"../proxy/utils/Initializable.sol\\\";\\n\\n/*\\n * @dev Provides information about the current execution context, including the\\n * sender of the transaction and its data. While these are generally available\\n * via msg.sender and msg.data, they should not be accessed in such a direct\\n * manner, since when dealing with meta-transactions the account sending and\\n * paying for execution may not be the actual sender (as far as an application\\n * is concerned).\\n *\\n * This contract is only required for intermediate, library-like contracts.\\n */\\nabstract contract ContextUpgradeable is Initializable {\\n    function __Context_init() internal initializer {\\n        __Context_init_unchained();\\n    }\\n\\n    function __Context_init_unchained() internal initializer {\\n    }\\n    function _msgSender() internal view virtual returns (address) {\\n        return msg.sender;\\n    }\\n\\n    function _msgData() internal view virtual returns (bytes calldata) {\\n        this; // silence state mutability warning without generating bytecode - see https://github.com/ethereum/solidity/issues/2691\\n        return msg.data;\\n    }\\n    uint256[50] private __gap;\\n}\\n\",\"keccak256\":\"0x8e9eb503de1189f50c5f16fef327da310b11898d6b9ab3ca937df07c35233b9e\",\"license\":\"MIT\"},\"@openzeppelin/contracts/token/ERC20/ERC20.sol\":{\"content\":\"// SPDX-License-Identifier: MIT\\n\\npragma solidity ^0.8.0;\\n\\nimport \\\"./IERC20.sol\\\";\\nimport \\\"./extensions/IERC20Metadata.sol\\\";\\nimport \\\"../../utils/Context.sol\\\";\\n\\n/**\\n * @dev Implementation of the {IERC20} interface.\\n *\\n * This implementation is agnostic to the way tokens are created. This means\\n * that a supply mechanism has to be added in a derived contract using {_mint}.\\n * For a generic mechanism see {ERC20PresetMinterPauser}.\\n *\\n * TIP: For a detailed writeup see our guide\\n * https://forum.zeppelin.solutions/t/how-to-implement-erc20-supply-mechanisms/226[How\\n * to implement supply mechanisms].\\n *\\n * We have followed general OpenZeppelin guidelines: functions revert instead\\n * of returning `false` on failure. This behavior is nonetheless conventional\\n * and does not conflict with the expectations of ERC20 applications.\\n *\\n * Additionally, an {Approval} event is emitted on calls to {transferFrom}.\\n * This allows applications to reconstruct the allowance for all accounts just\\n * by listening to said events. Other implementations of the EIP may not emit\\n * these events, as it isn't required by the specification.\\n *\\n * Finally, the non-standard {decreaseAllowance} and {increaseAllowance}\\n * functions have been added to mitigate the well-known issues around setting\\n * allowances. See {IERC20-approve}.\\n */\\ncontract ERC20 is Context, IERC20, IERC20Metadata {\\n    mapping (address => uint256) private _balances;\\n\\n    mapping (address => mapping (address => uint256)) private _allowances;\\n\\n    uint256 private _totalSupply;\\n\\n    string private _name;\\n    string private _symbol;\\n\\n    /**\\n     * @dev Sets the values for {name} and {symbol}.\\n     *\\n     * The defaut value of {decimals} is 18. To select a different value for\\n     * {decimals} you should overload it.\\n     *\\n     * All two of these values are immutable: they can only be set once during\\n     * construction.\\n     */\\n    constructor (string memory name_, string memory symbol_) {\\n        _name = name_;\\n        _symbol = symbol_;\\n    }\\n\\n    /**\\n     * @dev Returns the name of the token.\\n     */\\n    function name() public view virtual override returns (string memory) {\\n        return _name;\\n    }\\n\\n    /**\\n     * @dev Returns the symbol of the token, usually a shorter version of the\\n     * name.\\n     */\\n    function symbol() public view virtual override returns (string memory) {\\n        return _symbol;\\n    }\\n\\n    /**\\n     * @dev Returns the number of decimals used to get its user representation.\\n     * For example, if `decimals` equals `2`, a balance of `505` tokens should\\n     * be displayed to a user as `5,05` (`505 / 10 ** 2`).\\n     *\\n     * Tokens usually opt for a value of 18, imitating the relationship between\\n     * Ether and Wei. This is the value {ERC20} uses, unless this function is\\n     * overridden;\\n     *\\n     * NOTE: This information is only used for _display_ purposes: it in\\n     * no way affects any of the arithmetic of the contract, including\\n     * {IERC20-balanceOf} and {IERC20-transfer}.\\n     */\\n    function decimals() public view virtual override returns (uint8) {\\n        return 18;\\n    }\\n\\n    /**\\n     * @dev See {IERC20-totalSupply}.\\n     */\\n    function totalSupply() public view virtual override returns (uint256) {\\n        return _totalSupply;\\n    }\\n\\n    /**\\n     * @dev See {IERC20-balanceOf}.\\n     */\\n    function balanceOf(address account) public view virtual override returns (uint256) {\\n        return _balances[account];\\n    }\\n\\n    /**\\n     * @dev See {IERC20-transfer}.\\n     *\\n     * Requirements:\\n     *\\n     * - `recipient` cannot be the zero address.\\n     * - the caller must have a balance of at least `amount`.\\n     */\\n    function transfer(address recipient, uint256 amount) public virtual override returns (bool) {\\n        _transfer(_msgSender(), recipient, amount);\\n        return true;\\n    }\\n\\n    /**\\n     * @dev See {IERC20-allowance}.\\n     */\\n    function allowance(address owner, address spender) public view virtual override returns (uint256) {\\n        return _allowances[owner][spender];\\n    }\\n\\n    /**\\n     * @dev See {IERC20-approve}.\\n     *\\n     * Requirements:\\n     *\\n     * - `spender` cannot be the zero address.\\n     */\\n    function approve(address spender, uint256 amount) public virtual override returns (bool) {\\n        _approve(_msgSender(), spender, amount);\\n        return true;\\n    }\\n\\n    /**\\n     * @dev See {IERC20-transferFrom}.\\n     *\\n     * Emits an {Approval} event indicating the updated allowance. This is not\\n     * required by the EIP. See the note at the beginning of {ERC20}.\\n     *\\n     * Requirements:\\n     *\\n     * - `sender` and `recipient` cannot be the zero address.\\n     * - `sender` must have a balance of at least `amount`.\\n     * - the caller must have allowance for ``sender``'s tokens of at least\\n     * `amount`.\\n     */\\n    function transferFrom(address sender, address recipient, uint256 amount) public virtual override returns (bool) {\\n        _transfer(sender, recipient, amount);\\n\\n        uint256 currentAllowance = _allowances[sender][_msgSender()];\\n        require(currentAllowance >= amount, \\\"ERC20: transfer amount exceeds allowance\\\");\\n        _approve(sender, _msgSender(), currentAllowance - amount);\\n\\n        return true;\\n    }\\n\\n    /**\\n     * @dev Atomically increases the allowance granted to `spender` by the caller.\\n     *\\n     * This is an alternative to {approve} that can be used as a mitigation for\\n     * problems described in {IERC20-approve}.\\n     *\\n     * Emits an {Approval} event indicating the updated allowance.\\n     *\\n     * Requirements:\\n     *\\n     * - `spender` cannot be the zero address.\\n     */\\n    function increaseAllowance(address spender, uint256 addedValue) public virtual returns (bool) {\\n        _approve(_msgSender(), spender, _allowances[_msgSender()][spender] + addedValue);\\n        return true;\\n    }\\n\\n    /**\\n     * @dev Atomically decreases the allowance granted to `spender` by the caller.\\n     *\\n     * This is an alternative to {approve} that can be used as a mitigation for\\n     * problems described in {IERC20-approve}.\\n     *\\n     * Emits an {Approval} event indicating the updated allowance.\\n     *\\n     * Requirements:\\n     *\\n     * - `spender` cannot be the zero address.\\n     * - `spender` must have allowance for the caller of at least\\n     * `subtractedValue`.\\n     */\\n    function decreaseAllowance(address spender, uint256 subtractedValue) public virtual returns (bool) {\\n        uint256 currentAllowance = _allowances[_msgSender()][spender];\\n        require(currentAllowance >= subtractedValue, \\\"ERC20: decreased allowance below zero\\\");\\n        _approve(_msgSender(), spender, currentAllowance - subtractedValue);\\n\\n        return true;\\n    }\\n\\n    /**\\n     * @dev Moves tokens `amount` from `sender` to `recipient`.\\n     *\\n     * This is internal function is equivalent to {transfer}, and can be used to\\n     * e.g. implement automatic token fees, slashing mechanisms, etc.\\n     *\\n     * Emits a {Transfer} event.\\n     *\\n     * Requirements:\\n     *\\n     * - `sender` cannot be the zero address.\\n     * - `recipient` cannot be the zero address.\\n     * - `sender` must have a balance of at least `amount`.\\n     */\\n    function _transfer(address sender, address recipient, uint256 amount) internal virtual {\\n        require(sender != address(0), \\\"ERC20: transfer from the zero address\\\");\\n        require(recipient != address(0), \\\"ERC20: transfer to the zero address\\\");\\n\\n        _beforeTokenTransfer(sender, recipient, amount);\\n\\n        uint256 senderBalance = _balances[sender];\\n        require(senderBalance >= amount, \\\"ERC20: transfer amount exceeds balance\\\");\\n        _balances[sender] = senderBalance - amount;\\n        _balances[recipient] += amount;\\n\\n        emit Transfer(sender, recipient, amount);\\n    }\\n\\n    /** @dev Creates `amount` tokens and assigns them to `account`, increasing\\n     * the total supply.\\n     *\\n     * Emits a {Transfer} event with `from` set to the zero address.\\n     *\\n     * Requirements:\\n     *\\n     * - `to` cannot be the zero address.\\n     */\\n    function _mint(address account, uint256 amount) internal virtual {\\n        require(account != address(0), \\\"ERC20: mint to the zero address\\\");\\n\\n        _beforeTokenTransfer(address(0), account, amount);\\n\\n        _totalSupply += amount;\\n        _balances[account] += amount;\\n        emit Transfer(address(0), account, amount);\\n    }\\n\\n    /**\\n     * @dev Destroys `amount` tokens from `account`, reducing the\\n     * total supply.\\n     *\\n     * Emits a {Transfer} event with `to` set to the zero address.\\n     *\\n     * Requirements:\\n     *\\n     * - `account` cannot be the zero address.\\n     * - `account` must have at least `amount` tokens.\\n     */\\n    function _burn(address account, uint256 amount) internal virtual {\\n        require(account != address(0), \\\"ERC20: burn from the zero address\\\");\\n\\n        _beforeTokenTransfer(account, address(0), amount);\\n\\n        uint256 accountBalance = _balances[account];\\n        require(accountBalance >= amount, \\\"ERC20: burn amount exceeds balance\\\");\\n        _balances[account] = accountBalance - amount;\\n        _totalSupply -= amount;\\n\\n        emit Transfer(account, address(0), amount);\\n    }\\n\\n    /**\\n     * @dev Sets `amount` as the allowance of `spender` over the `owner` s tokens.\\n     *\\n     * This internal function is equivalent to `approve`, and can be used to\\n     * e.g. set automatic allowances for certain subsystems, etc.\\n     *\\n     * Emits an {Approval} event.\\n     *\\n     * Requirements:\\n     *\\n     * - `owner` cannot be the zero address.\\n     * - `spender` cannot be the zero address.\\n     */\\n    function _approve(address owner, address spender, uint256 amount) internal virtual {\\n        require(owner != address(0), \\\"ERC20: approve from the zero address\\\");\\n        require(spender != address(0), \\\"ERC20: approve to the zero address\\\");\\n\\n        _allowances[owner][spender] = amount;\\n        emit Approval(owner, spender, amount);\\n    }\\n\\n    /**\\n     * @dev Hook that is called before any transfer of tokens. This includes\\n     * minting and burning.\\n     *\\n     * Calling conditions:\\n     *\\n     * - when `from` and `to` are both non-zero, `amount` of ``from``'s tokens\\n     * will be to transferred to `to`.\\n     * - when `from` is zero, `amount` tokens will be minted for `to`.\\n     * - when `to` is zero, `amount` of ``from``'s tokens will be burned.\\n     * - `from` and `to` are never both zero.\\n     *\\n     * To learn more about hooks, head to xref:ROOT:extending-contracts.adoc#using-hooks[Using Hooks].\\n     */\\n    function _beforeTokenTransfer(address from, address to, uint256 amount) internal virtual { }\\n}\\n\",\"keccak256\":\"0xfeccdcbf67b2006a715e5af1a4c7556004d95b2806552b5cc54e46e8eb7e887b\",\"license\":\"MIT\"},\"@openzeppelin/contracts/token/ERC20/IERC20.sol\":{\"content\":\"// SPDX-License-Identifier: MIT\\n\\npragma solidity ^0.8.0;\\n\\n/**\\n * @dev Interface of the ERC20 standard as defined in the EIP.\\n */\\ninterface IERC20 {\\n    /**\\n     * @dev Returns the amount of tokens in existence.\\n     */\\n    function totalSupply() external view returns (uint256);\\n\\n    /**\\n     * @dev Returns the amount of tokens owned by `account`.\\n     */\\n    function balanceOf(address account) external view returns (uint256);\\n\\n    /**\\n     * @dev Moves `amount` tokens from the caller's account to `recipient`.\\n     *\\n     * Returns a boolean value indicating whether the operation succeeded.\\n     *\\n     * Emits a {Transfer} event.\\n     */\\n    function transfer(address recipient, uint256 amount) external returns (bool);\\n\\n    /**\\n     * @dev Returns the remaining number of tokens that `spender` will be\\n     * allowed to spend on behalf of `owner` through {transferFrom}. This is\\n     * zero by default.\\n     *\\n     * This value changes when {approve} or {transferFrom} are called.\\n     */\\n    function allowance(address owner, address spender) external view returns (uint256);\\n\\n    /**\\n     * @dev Sets `amount` as the allowance of `spender` over the caller's tokens.\\n     *\\n     * Returns a boolean value indicating whether the operation succeeded.\\n     *\\n     * IMPORTANT: Beware that changing an allowance with this method brings the risk\\n     * that someone may use both the old and the new allowance by unfortunate\\n     * transaction ordering. One possible solution to mitigate this race\\n     * condition is to first reduce the spender's allowance to 0 and set the\\n     * desired value afterwards:\\n     * https://github.com/ethereum/EIPs/issues/20#issuecomment-263524729\\n     *\\n     * Emits an {Approval} event.\\n     */\\n    function approve(address spender, uint256 amount) external returns (bool);\\n\\n    /**\\n     * @dev Moves `amount` tokens from `sender` to `recipient` using the\\n     * allowance mechanism. `amount` is then deducted from the caller's\\n     * allowance.\\n     *\\n     * Returns a boolean value indicating whether the operation succeeded.\\n     *\\n     * Emits a {Transfer} event.\\n     */\\n    function transferFrom(address sender, address recipient, uint256 amount) external returns (bool);\\n\\n    /**\\n     * @dev Emitted when `value` tokens are moved from one account (`from`) to\\n     * another (`to`).\\n     *\\n     * Note that `value` may be zero.\\n     */\\n    event Transfer(address indexed from, address indexed to, uint256 value);\\n\\n    /**\\n     * @dev Emitted when the allowance of a `spender` for an `owner` is set by\\n     * a call to {approve}. `value` is the new allowance.\\n     */\\n    event Approval(address indexed owner, address indexed spender, uint256 value);\\n}\\n\",\"keccak256\":\"0xf8e8d118a7a8b2e134181f7da655f6266aa3a0f9134b2605747139fcb0c5d835\",\"license\":\"MIT\"},\"@openzeppelin/contracts/token/ERC20/extensions/IERC20Metadata.sol\":{\"content\":\"// SPDX-License-Identifier: MIT\\n\\npragma solidity ^0.8.0;\\n\\nimport \\\"../IERC20.sol\\\";\\n\\n/**\\n * @dev Interface for the optional metadata functions from the ERC20 standard.\\n *\\n * _Available since v4.1._\\n */\\ninterface IERC20Metadata is IERC20 {\\n    /**\\n     * @dev Returns the name of the token.\\n     */\\n    function name() external view returns (string memory);\\n\\n    /**\\n     * @dev Returns the symbol of the token.\\n     */\\n    function symbol() external view returns (string memory);\\n\\n    /**\\n     * @dev Returns the decimals places of the token.\\n     */\\n    function decimals() external view returns (uint8);\\n}\\n\",\"keccak256\":\"0x83fe24f5c04a56091e50f4a345ff504c8bff658a76d4c43b16878c8f940c53b2\",\"license\":\"MIT\"},\"@openzeppelin/contracts/utils/Context.sol\":{\"content\":\"// SPDX-License-Identifier: MIT\\n\\npragma solidity ^0.8.0;\\n\\n/*\\n * @dev Provides information about the current execution context, including the\\n * sender of the transaction and its data. While these are generally available\\n * via msg.sender and msg.data, they should not be accessed in such a direct\\n * manner, since when dealing with meta-transactions the account sending and\\n * paying for execution may not be the actual sender (as far as an application\\n * is concerned).\\n *\\n * This contract is only required for intermediate, library-like contracts.\\n */\\nabstract contract Context {\\n    function _msgSender() internal view virtual returns (address) {\\n        return msg.sender;\\n    }\\n\\n    function _msgData() internal view virtual returns (bytes calldata) {\\n        this; // silence state mutability warning without generating bytecode - see https://github.com/ethereum/solidity/issues/2691\\n        return msg.data;\\n    }\\n}\\n\",\"keccak256\":\"0xf930d2df426bfcfc1f7415be724f04081c96f4fb9ec8d0e3a521c07692dface0\",\"license\":\"MIT\"},\"@openzeppelin/contracts/utils/Counters.sol\":{\"content\":\"// SPDX-License-Identifier: MIT\\n\\npragma solidity ^0.8.0;\\n\\n/**\\n * @title Counters\\n * @author Matt Condon (@shrugs)\\n * @dev Provides counters that can only be incremented or decremented by one. This can be used e.g. to track the number\\n * of elements in a mapping, issuing ERC721 ids, or counting request ids.\\n *\\n * Include with `using Counters for Counters.Counter;`\\n */\\nlibrary Counters {\\n    struct Counter {\\n        // This variable should never be directly accessed by users of the library: interactions must be restricted to\\n        // the library's function. As of Solidity v0.5.2, this cannot be enforced, though there is a proposal to add\\n        // this feature: see https://github.com/ethereum/solidity/issues/4637\\n        uint256 _value; // default: 0\\n    }\\n\\n    function current(Counter storage counter) internal view returns (uint256) {\\n        return counter._value;\\n    }\\n\\n    function increment(Counter storage counter) internal {\\n        unchecked {\\n            counter._value += 1;\\n        }\\n    }\\n\\n    function decrement(Counter storage counter) internal {\\n        uint256 value = counter._value;\\n        require(value > 0, \\\"Counter: decrement overflow\\\");\\n        unchecked {\\n            counter._value = value - 1;\\n        }\\n    }\\n}\\n\",\"keccak256\":\"0x62d306ff0499a11913bc60b5939eec619509b5c67b30e86ebf8b8bda0b7a7fee\",\"license\":\"MIT\"},\"@openzeppelin/contracts/utils/math/SafeMath.sol\":{\"content\":\"// SPDX-License-Identifier: MIT\\n\\npragma solidity ^0.8.0;\\n\\n// CAUTION\\n// This version of SafeMath should only be used with Solidity 0.8 or later,\\n// because it relies on the compiler's built in overflow checks.\\n\\n/**\\n * @dev Wrappers over Solidity's arithmetic operations.\\n *\\n * NOTE: `SafeMath` is no longer needed starting with Solidity 0.8. The compiler\\n * now has built in overflow checking.\\n */\\nlibrary SafeMath {\\n    /**\\n     * @dev Returns the addition of two unsigned integers, with an overflow flag.\\n     *\\n     * _Available since v3.4._\\n     */\\n    function tryAdd(uint256 a, uint256 b) internal pure returns (bool, uint256) {\\n        unchecked {\\n            uint256 c = a + b;\\n            if (c < a) return (false, 0);\\n            return (true, c);\\n        }\\n    }\\n\\n    /**\\n     * @dev Returns the substraction of two unsigned integers, with an overflow flag.\\n     *\\n     * _Available since v3.4._\\n     */\\n    function trySub(uint256 a, uint256 b) internal pure returns (bool, uint256) {\\n        unchecked {\\n            if (b > a) return (false, 0);\\n            return (true, a - b);\\n        }\\n    }\\n\\n    /**\\n     * @dev Returns the multiplication of two unsigned integers, with an overflow flag.\\n     *\\n     * _Available since v3.4._\\n     */\\n    function tryMul(uint256 a, uint256 b) internal pure returns (bool, uint256) {\\n        unchecked {\\n            // Gas optimization: this is cheaper than requiring 'a' not being zero, but the\\n            // benefit is lost if 'b' is also tested.\\n            // See: https://github.com/OpenZeppelin/openzeppelin-contracts/pull/522\\n            if (a == 0) return (true, 0);\\n            uint256 c = a * b;\\n            if (c / a != b) return (false, 0);\\n            return (true, c);\\n        }\\n    }\\n\\n    /**\\n     * @dev Returns the division of two unsigned integers, with a division by zero flag.\\n     *\\n     * _Available since v3.4._\\n     */\\n    function tryDiv(uint256 a, uint256 b) internal pure returns (bool, uint256) {\\n        unchecked {\\n            if (b == 0) return (false, 0);\\n            return (true, a / b);\\n        }\\n    }\\n\\n    /**\\n     * @dev Returns the remainder of dividing two unsigned integers, with a division by zero flag.\\n     *\\n     * _Available since v3.4._\\n     */\\n    function tryMod(uint256 a, uint256 b) internal pure returns (bool, uint256) {\\n        unchecked {\\n            if (b == 0) return (false, 0);\\n            return (true, a % b);\\n        }\\n    }\\n\\n    /**\\n     * @dev Returns the addition of two unsigned integers, reverting on\\n     * overflow.\\n     *\\n     * Counterpart to Solidity's `+` operator.\\n     *\\n     * Requirements:\\n     *\\n     * - Addition cannot overflow.\\n     */\\n    function add(uint256 a, uint256 b) internal pure returns (uint256) {\\n        return a + b;\\n    }\\n\\n    /**\\n     * @dev Returns the subtraction of two unsigned integers, reverting on\\n     * overflow (when the result is negative).\\n     *\\n     * Counterpart to Solidity's `-` operator.\\n     *\\n     * Requirements:\\n     *\\n     * - Subtraction cannot overflow.\\n     */\\n    function sub(uint256 a, uint256 b) internal pure returns (uint256) {\\n        return a - b;\\n    }\\n\\n    /**\\n     * @dev Returns the multiplication of two unsigned integers, reverting on\\n     * overflow.\\n     *\\n     * Counterpart to Solidity's `*` operator.\\n     *\\n     * Requirements:\\n     *\\n     * - Multiplication cannot overflow.\\n     */\\n    function mul(uint256 a, uint256 b) internal pure returns (uint256) {\\n        return a * b;\\n    }\\n\\n    /**\\n     * @dev Returns the integer division of two unsigned integers, reverting on\\n     * division by zero. The result is rounded towards zero.\\n     *\\n     * Counterpart to Solidity's `/` operator.\\n     *\\n     * Requirements:\\n     *\\n     * - The divisor cannot be zero.\\n     */\\n    function div(uint256 a, uint256 b) internal pure returns (uint256) {\\n        return a / b;\\n    }\\n\\n    /**\\n     * @dev Returns the remainder of dividing two unsigned integers. (unsigned integer modulo),\\n     * reverting when dividing by zero.\\n     *\\n     * Counterpart to Solidity's `%` operator. This function uses a `revert`\\n     * opcode (which leaves remaining gas untouched) while Solidity uses an\\n     * invalid opcode to revert (consuming all remaining gas).\\n     *\\n     * Requirements:\\n     *\\n     * - The divisor cannot be zero.\\n     */\\n    function mod(uint256 a, uint256 b) internal pure returns (uint256) {\\n        return a % b;\\n    }\\n\\n    /**\\n     * @dev Returns the subtraction of two unsigned integers, reverting with custom message on\\n     * overflow (when the result is negative).\\n     *\\n     * CAUTION: This function is deprecated because it requires allocating memory for the error\\n     * message unnecessarily. For custom revert reasons use {trySub}.\\n     *\\n     * Counterpart to Solidity's `-` operator.\\n     *\\n     * Requirements:\\n     *\\n     * - Subtraction cannot overflow.\\n     */\\n    function sub(uint256 a, uint256 b, string memory errorMessage) internal pure returns (uint256) {\\n        unchecked {\\n            require(b <= a, errorMessage);\\n            return a - b;\\n        }\\n    }\\n\\n    /**\\n     * @dev Returns the integer division of two unsigned integers, reverting with custom message on\\n     * division by zero. The result is rounded towards zero.\\n     *\\n     * Counterpart to Solidity's `%` operator. This function uses a `revert`\\n     * opcode (which leaves remaining gas untouched) while Solidity uses an\\n     * invalid opcode to revert (consuming all remaining gas).\\n     *\\n     * Counterpart to Solidity's `/` operator. Note: this function uses a\\n     * `revert` opcode (which leaves remaining gas untouched) while Solidity\\n     * uses an invalid opcode to revert (consuming all remaining gas).\\n     *\\n     * Requirements:\\n     *\\n     * - The divisor cannot be zero.\\n     */\\n    function div(uint256 a, uint256 b, string memory errorMessage) internal pure returns (uint256) {\\n        unchecked {\\n            require(b > 0, errorMessage);\\n            return a / b;\\n        }\\n    }\\n\\n    /**\\n     * @dev Returns the remainder of dividing two unsigned integers. (unsigned integer modulo),\\n     * reverting with custom message when dividing by zero.\\n     *\\n     * CAUTION: This function is deprecated because it requires allocating memory for the error\\n     * message unnecessarily. For custom revert reasons use {tryMod}.\\n     *\\n     * Counterpart to Solidity's `%` operator. This function uses a `revert`\\n     * opcode (which leaves remaining gas untouched) while Solidity uses an\\n     * invalid opcode to revert (consuming all remaining gas).\\n     *\\n     * Requirements:\\n     *\\n     * - The divisor cannot be zero.\\n     */\\n    function mod(uint256 a, uint256 b, string memory errorMessage) internal pure returns (uint256) {\\n        unchecked {\\n            require(b > 0, errorMessage);\\n            return a % b;\\n        }\\n    }\\n}\\n\",\"keccak256\":\"0x2526b7c6a366fc211bbc176078ab02b83833e7682abcc5b3bed9d700b34e2a3e\",\"license\":\"MIT\"},\"@openzeppelin/contracts/utils/structs/EnumerableSet.sol\":{\"content\":\"// SPDX-License-Identifier: MIT\\n\\npragma solidity ^0.8.0;\\n\\n/**\\n * @dev Library for managing\\n * https://en.wikipedia.org/wiki/Set_(abstract_data_type)[sets] of primitive\\n * types.\\n *\\n * Sets have the following properties:\\n *\\n * - Elements are added, removed, and checked for existence in constant time\\n * (O(1)).\\n * - Elements are enumerated in O(n). No guarantees are made on the ordering.\\n *\\n * ```\\n * contract Example {\\n *     // Add the library methods\\n *     using EnumerableSet for EnumerableSet.AddressSet;\\n *\\n *     // Declare a set state variable\\n *     EnumerableSet.AddressSet private mySet;\\n * }\\n * ```\\n *\\n * As of v3.3.0, sets of type `bytes32` (`Bytes32Set`), `address` (`AddressSet`)\\n * and `uint256` (`UintSet`) are supported.\\n */\\nlibrary EnumerableSet {\\n    // To implement this library for multiple types with as little code\\n    // repetition as possible, we write it in terms of a generic Set type with\\n    // bytes32 values.\\n    // The Set implementation uses private functions, and user-facing\\n    // implementations (such as AddressSet) are just wrappers around the\\n    // underlying Set.\\n    // This means that we can only create new EnumerableSets for types that fit\\n    // in bytes32.\\n\\n    struct Set {\\n        // Storage of set values\\n        bytes32[] _values;\\n\\n        // Position of the value in the `values` array, plus 1 because index 0\\n        // means a value is not in the set.\\n        mapping (bytes32 => uint256) _indexes;\\n    }\\n\\n    /**\\n     * @dev Add a value to a set. O(1).\\n     *\\n     * Returns true if the value was added to the set, that is if it was not\\n     * already present.\\n     */\\n    function _add(Set storage set, bytes32 value) private returns (bool) {\\n        if (!_contains(set, value)) {\\n            set._values.push(value);\\n            // The value is stored at length-1, but we add 1 to all indexes\\n            // and use 0 as a sentinel value\\n            set._indexes[value] = set._values.length;\\n            return true;\\n        } else {\\n            return false;\\n        }\\n    }\\n\\n    /**\\n     * @dev Removes a value from a set. O(1).\\n     *\\n     * Returns true if the value was removed from the set, that is if it was\\n     * present.\\n     */\\n    function _remove(Set storage set, bytes32 value) private returns (bool) {\\n        // We read and store the value's index to prevent multiple reads from the same storage slot\\n        uint256 valueIndex = set._indexes[value];\\n\\n        if (valueIndex != 0) { // Equivalent to contains(set, value)\\n            // To delete an element from the _values array in O(1), we swap the element to delete with the last one in\\n            // the array, and then remove the last element (sometimes called as 'swap and pop').\\n            // This modifies the order of the array, as noted in {at}.\\n\\n            uint256 toDeleteIndex = valueIndex - 1;\\n            uint256 lastIndex = set._values.length - 1;\\n\\n            // When the value to delete is the last one, the swap operation is unnecessary. However, since this occurs\\n            // so rarely, we still do the swap anyway to avoid the gas cost of adding an 'if' statement.\\n\\n            bytes32 lastvalue = set._values[lastIndex];\\n\\n            // Move the last value to the index where the value to delete is\\n            set._values[toDeleteIndex] = lastvalue;\\n            // Update the index for the moved value\\n            set._indexes[lastvalue] = valueIndex; // Replace lastvalue's index to valueIndex\\n\\n            // Delete the slot where the moved value was stored\\n            set._values.pop();\\n\\n            // Delete the index for the deleted slot\\n            delete set._indexes[value];\\n\\n            return true;\\n        } else {\\n            return false;\\n        }\\n    }\\n\\n    /**\\n     * @dev Returns true if the value is in the set. O(1).\\n     */\\n    function _contains(Set storage set, bytes32 value) private view returns (bool) {\\n        return set._indexes[value] != 0;\\n    }\\n\\n    /**\\n     * @dev Returns the number of values on the set. O(1).\\n     */\\n    function _length(Set storage set) private view returns (uint256) {\\n        return set._values.length;\\n    }\\n\\n   /**\\n    * @dev Returns the value stored at position `index` in the set. O(1).\\n    *\\n    * Note that there are no guarantees on the ordering of values inside the\\n    * array, and it may change when more values are added or removed.\\n    *\\n    * Requirements:\\n    *\\n    * - `index` must be strictly less than {length}.\\n    */\\n    function _at(Set storage set, uint256 index) private view returns (bytes32) {\\n        require(set._values.length > index, \\\"EnumerableSet: index out of bounds\\\");\\n        return set._values[index];\\n    }\\n\\n    // Bytes32Set\\n\\n    struct Bytes32Set {\\n        Set _inner;\\n    }\\n\\n    /**\\n     * @dev Add a value to a set. O(1).\\n     *\\n     * Returns true if the value was added to the set, that is if it was not\\n     * already present.\\n     */\\n    function add(Bytes32Set storage set, bytes32 value) internal returns (bool) {\\n        return _add(set._inner, value);\\n    }\\n\\n    /**\\n     * @dev Removes a value from a set. O(1).\\n     *\\n     * Returns true if the value was removed from the set, that is if it was\\n     * present.\\n     */\\n    function remove(Bytes32Set storage set, bytes32 value) internal returns (bool) {\\n        return _remove(set._inner, value);\\n    }\\n\\n    /**\\n     * @dev Returns true if the value is in the set. O(1).\\n     */\\n    function contains(Bytes32Set storage set, bytes32 value) internal view returns (bool) {\\n        return _contains(set._inner, value);\\n    }\\n\\n    /**\\n     * @dev Returns the number of values in the set. O(1).\\n     */\\n    function length(Bytes32Set storage set) internal view returns (uint256) {\\n        return _length(set._inner);\\n    }\\n\\n   /**\\n    * @dev Returns the value stored at position `index` in the set. O(1).\\n    *\\n    * Note that there are no guarantees on the ordering of values inside the\\n    * array, and it may change when more values are added or removed.\\n    *\\n    * Requirements:\\n    *\\n    * - `index` must be strictly less than {length}.\\n    */\\n    function at(Bytes32Set storage set, uint256 index) internal view returns (bytes32) {\\n        return _at(set._inner, index);\\n    }\\n\\n    // AddressSet\\n\\n    struct AddressSet {\\n        Set _inner;\\n    }\\n\\n    /**\\n     * @dev Add a value to a set. O(1).\\n     *\\n     * Returns true if the value was added to the set, that is if it was not\\n     * already present.\\n     */\\n    function add(AddressSet storage set, address value) internal returns (bool) {\\n        return _add(set._inner, bytes32(uint256(uint160(value))));\\n    }\\n\\n    /**\\n     * @dev Removes a value from a set. O(1).\\n     *\\n     * Returns true if the value was removed from the set, that is if it was\\n     * present.\\n     */\\n    function remove(AddressSet storage set, address value) internal returns (bool) {\\n        return _remove(set._inner, bytes32(uint256(uint160(value))));\\n    }\\n\\n    /**\\n     * @dev Returns true if the value is in the set. O(1).\\n     */\\n    function contains(AddressSet storage set, address value) internal view returns (bool) {\\n        return _contains(set._inner, bytes32(uint256(uint160(value))));\\n    }\\n\\n    /**\\n     * @dev Returns the number of values in the set. O(1).\\n     */\\n    function length(AddressSet storage set) internal view returns (uint256) {\\n        return _length(set._inner);\\n    }\\n\\n   /**\\n    * @dev Returns the value stored at position `index` in the set. O(1).\\n    *\\n    * Note that there are no guarantees on the ordering of values inside the\\n    * array, and it may change when more values are added or removed.\\n    *\\n    * Requirements:\\n    *\\n    * - `index` must be strictly less than {length}.\\n    */\\n    function at(AddressSet storage set, uint256 index) internal view returns (address) {\\n        return address(uint160(uint256(_at(set._inner, index))));\\n    }\\n\\n\\n    // UintSet\\n\\n    struct UintSet {\\n        Set _inner;\\n    }\\n\\n    /**\\n     * @dev Add a value to a set. O(1).\\n     *\\n     * Returns true if the value was added to the set, that is if it was not\\n     * already present.\\n     */\\n    function add(UintSet storage set, uint256 value) internal returns (bool) {\\n        return _add(set._inner, bytes32(value));\\n    }\\n\\n    /**\\n     * @dev Removes a value from a set. O(1).\\n     *\\n     * Returns true if the value was removed from the set, that is if it was\\n     * present.\\n     */\\n    function remove(UintSet storage set, uint256 value) internal returns (bool) {\\n        return _remove(set._inner, bytes32(value));\\n    }\\n\\n    /**\\n     * @dev Returns true if the value is in the set. O(1).\\n     */\\n    function contains(UintSet storage set, uint256 value) internal view returns (bool) {\\n        return _contains(set._inner, bytes32(value));\\n    }\\n\\n    /**\\n     * @dev Returns the number of values on the set. O(1).\\n     */\\n    function length(UintSet storage set) internal view returns (uint256) {\\n        return _length(set._inner);\\n    }\\n\\n   /**\\n    * @dev Returns the value stored at position `index` in the set. O(1).\\n    *\\n    * Note that there are no guarantees on the ordering of values inside the\\n    * array, and it may change when more values are added or removed.\\n    *\\n    * Requirements:\\n    *\\n    * - `index` must be strictly less than {length}.\\n    */\\n    function at(UintSet storage set, uint256 index) internal view returns (uint256) {\\n        return uint256(_at(set._inner, index));\\n    }\\n}\\n\",\"keccak256\":\"0x4878ef6c288f4cef3c2a288d32cc548c648831cc55503ad3d9a581ed3b93aad9\",\"license\":\"MIT\"},\"contracts/contexts2/access-control/roles/RolesFacet.sol\":{\"content\":\"// SPDX-License-Identifier: MIT\\npragma solidity ^0.8.0;\\n\\nimport { RolesMods } from \\\"./RolesMods.sol\\\";\\nimport { RolesLib } from \\\"./RolesLib.sol\\\";\\nimport { ADMIN } from \\\"../../../shared/roles.sol\\\";\\n\\ncontract RolesFacet is RolesMods {\\n    /**\\n     * @notice Checks if an account has a specific role.\\n     * @param role Encoding of the role to check.\\n     * @param account Address to check the {role} for.\\n     */\\n    function hasRole(bytes32 role, address account)\\n        external\\n        view\\n        returns (bool)\\n    {\\n        return RolesLib.hasRole(role, account);\\n    }\\n\\n    /**\\n     * @notice Grants an account a new role.\\n     * @param role Encoding of the role to give.\\n     * @param account Address to give the {role} to.\\n     *\\n     * Requirements:\\n     *  - Sender must be role admin.\\n     */\\n    function grantRole(bytes32 role, address account)\\n        external\\n        authorized(ADMIN, msg.sender)\\n    {\\n        RolesLib.grantRole(role, account);\\n    }\\n\\n    /**\\n     * @notice Removes a role from an account.\\n     * @param role Encoding of the role to remove.\\n     * @param account Address to remove the {role} from.\\n     *\\n     * Requirements:\\n     *  - Sender must be role admin.\\n     */\\n    function revokeRole(bytes32 role, address account)\\n        external\\n        authorized(ADMIN, msg.sender)\\n    {\\n        RolesLib.revokeRole(role, account);\\n    }\\n\\n    /**\\n     * @notice Removes a role from the sender.\\n     * @param role Encoding of the role to remove.\\n     */\\n    function renounceRole(bytes32 role) external {\\n        RolesLib.revokeRole(role, msg.sender);\\n    }\\n}\\n\",\"keccak256\":\"0x3d02fb1286754a6da3419c81632d23e9444b1fe8cd64283e15fcb07a9b201815\",\"license\":\"MIT\"},\"contracts/contexts2/access-control/roles/RolesLib.sol\":{\"content\":\"// SPDX-License-Identifier: MIT\\npragma solidity ^0.8.0;\\n\\nimport { AccessControlStorageLib, AccessControlStorage } from \\\"../storage.sol\\\";\\n\\nlibrary RolesLib {\\n    function s() private pure returns (AccessControlStorage storage) {\\n        return AccessControlStorageLib.store();\\n    }\\n\\n    /**\\n     * @dev Emitted when `account` is granted `role`.\\n     */\\n    event RoleGranted(\\n        bytes32 indexed role,\\n        address indexed account,\\n        address indexed sender\\n    );\\n\\n    /**\\n     * @dev Emitted when `account` is revoked `role`.\\n     */\\n    event RoleRevoked(\\n        bytes32 indexed role,\\n        address indexed account,\\n        address indexed sender\\n    );\\n\\n    /**\\n     * @notice Checks if an account has a specific role.\\n     */\\n    function hasRole(bytes32 role, address account)\\n        internal\\n        view\\n        returns (bool)\\n    {\\n        return s().roles[role][account];\\n    }\\n\\n    /**\\n     * @dev Gives an account a new role.\\n     * @dev Should only use when circumventing admin checking.\\n     * @dev If account already has the role, no event is emitted.\\n     * @param role Encoding of the role to give.\\n     * @param account Address to give the {role} to.\\n     */\\n    function grantRole(bytes32 role, address account) internal {\\n        if (hasRole(role, account)) return;\\n        s().roles[role][account] = true;\\n        emit RoleGranted(role, account, msg.sender);\\n    }\\n\\n    /**\\n     * @dev Removes a role from an account.\\n     * @dev Should only use when circumventing admin checking.\\n     * @dev If account does not already have the role, no event is emitted.\\n     * @param role Encoding of the role to remove.\\n     * @param account Address to remove the {role} from.\\n     */\\n    function revokeRole(bytes32 role, address account) internal {\\n        if (!hasRole(role, account)) return;\\n        s().roles[role][account] = false;\\n        emit RoleRevoked(role, account, msg.sender);\\n    }\\n}\\n\",\"keccak256\":\"0x36d0f5db441d2c3db7ee04d84c88ce9b14251cff4387702e96965c51acd1bc84\",\"license\":\"MIT\"},\"contracts/contexts2/access-control/roles/RolesMods.sol\":{\"content\":\"// SPDX-License-Identifier: MIT\\npragma solidity ^0.8.0;\\n\\nimport { RolesLib } from \\\"./RolesLib.sol\\\";\\n\\nabstract contract RolesMods {\\n    /**\\n     * @notice Requires that the {account} has {role}\\n     * @param role Encoding of the role to check.\\n     * @param account Address to check the {role} for.\\n     */\\n    modifier authorized(bytes32 role, address account) {\\n        require(\\n            RolesLib.hasRole(role, account),\\n            \\\"AccessControl: not authorized\\\"\\n        );\\n        _;\\n    }\\n}\\n\",\"keccak256\":\"0x25eeaba823d4fc9c52d82a77cfdb409550ad985fc49b30a5560c1f313c1ca905\",\"license\":\"MIT\"},\"contracts/contexts2/access-control/storage.sol\":{\"content\":\"// SPDX-License-Identifier: MIT\\npragma solidity ^0.8.0;\\n\\nstruct AccessControlStorage {\\n    mapping(bytes32 => mapping(address => bool)) roles;\\n    mapping(address => address) owners;\\n    mapping(bytes32 => bool) entered;\\n}\\n\\nbytes32 constant ACCESS_CONTROL_POS = keccak256(\\n    \\\"teller.access_control.storage\\\"\\n);\\n\\nlibrary AccessControlStorageLib {\\n    function store() internal pure returns (AccessControlStorage storage s) {\\n        bytes32 pos = ACCESS_CONTROL_POS;\\n        assembly {\\n            s.slot := pos\\n        }\\n    }\\n}\\n\",\"keccak256\":\"0xf667fb8d6beb59fc6f37d60ada6b811b5861512fedc661c483b9eca042e96112\",\"license\":\"MIT\"},\"contracts/escrow/escrow/ILoansEscrow.sol\":{\"content\":\"// SPDX-License-Identifier: MIT\\npragma solidity ^0.8.0;\\n\\ninterface ILoansEscrow {\\n    function init() external;\\n\\n    function callDapp(address dappAddress, bytes calldata dappData)\\n        external\\n        returns (bytes memory);\\n\\n    function setTokenAllowance(address token, address spender) external;\\n\\n    function claimToken(\\n        address token,\\n        address to,\\n        uint256 amount\\n    ) external;\\n}\\n\",\"keccak256\":\"0xdaa338698014e6c00edf7a2aca49026a047e253cbe7fc392a73f5f63a063a7f9\",\"license\":\"MIT\"},\"contracts/lending/ttoken/ITToken.sol\":{\"content\":\"// SPDX-License-Identifier: MIT\\npragma solidity ^0.8.0;\\n\\n// Contracts\\nimport {\\n    ERC20Upgradeable\\n} from \\\"@openzeppelin/contracts-upgradeable/token/ERC20/ERC20Upgradeable.sol\\\";\\nimport { ERC20 } from \\\"@openzeppelin/contracts/token/ERC20/ERC20.sol\\\";\\nimport {\\n    RolesFacet\\n} from \\\"../../contexts2/access-control/roles/RolesFacet.sol\\\";\\n\\n/**\\n * @notice This contract acts as an interface for the Teller token (TToken).\\n *\\n * @author develop@teller.finance\\n */\\nabstract contract ITToken is ERC20Upgradeable, RolesFacet {\\n    /**\\n     * @notice This event is emitted when an user deposits tokens into the pool.\\n     */\\n    event Mint(\\n        address indexed sender,\\n        uint256 tTokenAmount,\\n        uint256 underlyingAmount\\n    );\\n\\n    /**\\n     * @notice This event is emitted when an user withdraws tokens from the pool.\\n     */\\n    event Redeem(\\n        address indexed sender,\\n        uint256 tTokenAmount,\\n        uint256 underlyingAmount\\n    );\\n\\n    /**\\n     * @notice The token that is the underlying assets for this Teller token.\\n     */\\n    function underlying() external view virtual returns (ERC20);\\n\\n    /**\\n     * @notice The balance of an {account} denoted in underlying value.\\n     * @param account Address to calculate the underlying balance.\\n     */\\n    function balanceOfUnderlying(address account)\\n        external\\n        virtual\\n        returns (uint256 balance_);\\n\\n    /**\\n     * @notice It calculates the current exchange rate for a whole Teller Token based of the underlying token balance.\\n     * @return rate_ The current exchange rate.\\n     */\\n    function exchangeRate() external virtual returns (uint256 rate_);\\n\\n    /**\\n     * @notice Redeem supplied Teller token underlying value.\\n     * @return totalSupply_ The total value of the underlying token managed by the LP.\\n     */\\n    function totalUnderlyingSupply()\\n        external\\n        virtual\\n        returns (uint256 totalSupply_);\\n\\n    /**\\n     * @notice It calculates the market state values across a given markets.\\n     * @notice Returns values that represent the global state across the market.\\n     * @return totalSupplied Total amount of the underlying asset supplied.\\n     * @return totalBorrowed Total amount borrowed through loans.\\n     * @return totalRepaid The total amount repaid till the current timestamp.\\n     * @return totalInterestRepaid The total amount interest repaid till the current timestamp.\\n     * @return totalOnLoan Total amount currently deployed in loans.\\n     */\\n    function getMarketState()\\n        external\\n        virtual\\n        returns (\\n            uint256 totalSupplied,\\n            uint256 totalBorrowed,\\n            uint256 totalRepaid,\\n            uint256 totalInterestRepaid,\\n            uint256 totalOnLoan\\n        );\\n\\n    /**\\n     * @notice Calculates the current Total Value Locked, denoted in the underlying asset, in the Teller Token pool.\\n     * @return tvl_ The value locked in the pool.\\n     *\\n     * Note: This value includes the amount that is on loan (including ones that were sent to EOAs).\\n     */\\n    function currentTVL() external virtual returns (uint256 tvl_);\\n\\n    /**\\n     * @notice It validates whether supply to debt (StD) ratio is valid including the loan amount.\\n     * @param newLoanAmount the new loan amount to consider o the StD ratio.\\n     * @return ratio_ Whether debt ratio for lending pool is valid.\\n     */\\n    function debtRatioFor(uint256 newLoanAmount)\\n        external\\n        virtual\\n        returns (uint16 ratio_);\\n\\n    /**\\n     * @notice Called by the Teller Diamond contract when a loan has been taken out and requires funds.\\n     * @param recipient The account to send the funds to.\\n     * @param amount Funds requested to fulfil the loan.\\n     */\\n    function fundLoan(address recipient, uint256 amount) external virtual;\\n\\n    /**\\n     * @notice Called by the Teller Diamond contract when a loan has been repaid.\\n     * @param amount Funds deposited back into the pool to repay the principal amount of a loan.\\n     * @param interestAmount Interest value paid into the pool from a loan.\\n     */\\n    function repayLoan(uint256 amount, uint256 interestAmount) external virtual;\\n\\n    /**\\n     * @notice Increase account supply of specified token amount.\\n     * @param amount The amount of underlying tokens to use to mint.\\n     */\\n    function mint(uint256 amount)\\n        external\\n        virtual\\n        returns (uint256 mintAmount_);\\n\\n    /**\\n     * @notice Redeem supplied Teller token underlying value.\\n     * @param amount The amount of Teller tokens to redeem.\\n     */\\n    function redeem(uint256 amount) external virtual;\\n\\n    /**\\n     * @notice Redeem supplied underlying value.\\n     * @param amount The amount of underlying tokens to redeem.\\n     */\\n    function redeemUnderlying(uint256 amount) external virtual;\\n\\n    /**\\n     * @notice Rebalances the funds controlled by Teller Token according to the current strategy.\\n     *\\n     * See {TTokenStrategy}.\\n     */\\n    function rebalance() external virtual;\\n\\n    /**\\n     * @notice Sets a new strategy to use for balancing funds.\\n     * @param strategy Address to the new strategy contract. Must implement the {ITTokenStrategy} interface.\\n     * @param initData Optional data to initialize the strategy.\\n     *\\n     * Requirements:\\n     *  - Sender must have ADMIN role\\n     */\\n    function setStrategy(address strategy, bytes calldata initData)\\n        external\\n        virtual;\\n\\n    /**\\n     * @notice Gets the strategy used for balancing funds.\\n     */\\n    function getStrategy() external view virtual returns (address);\\n\\n    /**\\n     * @notice Sets the restricted state of the platform.\\n     */\\n    function restrict(bool state) external virtual;\\n\\n    function initialize(address admin, address underlying) external virtual;\\n}\\n\",\"keccak256\":\"0xe6515c78e0277edbed82aa6926df727afd216379dd0bfbbb790222654c858499\",\"license\":\"MIT\"},\"contracts/market/SignersFacet.sol\":{\"content\":\"// SPDX-License-Identifier: MIT\\npragma solidity ^0.8.0;\\n\\n// Storage\\nimport { MarketStorageLib } from \\\"../storage/market.sol\\\";\\n\\n// Libraries\\nimport {\\n    EnumerableSet\\n} from \\\"@openzeppelin/contracts/utils/structs/EnumerableSet.sol\\\";\\n\\ncontract SignersFacet {\\n    /**\\n     * @notice It adds a new account as a signer.\\n     * @param asset Token address to add signers for.\\n     * @param account address to add.\\n     * @dev The sender must be the owner.\\n     * @dev It throws a require error if the sender is not the owner.\\n     */\\n    function addSigner(address asset, address account) external {\\n        _addSigner(asset, account);\\n    }\\n\\n    /**\\n     * @notice It adds a list of account as signers.\\n     * @param asset Token address to add signers for.\\n     * @param accounts addresses to add.\\n     * @dev The sender must be the owner.\\n     * @dev It throws a require error if the sender is not the owner.\\n     */\\n    function addSigners(address asset, address[] calldata accounts) external {\\n        for (uint256 i; i < accounts.length; i++) {\\n            _addSigner(asset, accounts[i]);\\n        }\\n    }\\n\\n    function _addSigner(address asset, address account) internal {\\n        if (!isSigner(asset, account)) {\\n            EnumerableSet.add(MarketStorageLib.store().signers[asset], account);\\n        }\\n    }\\n\\n    function isSigner(address asset, address account)\\n        public\\n        view\\n        returns (bool isSigner_)\\n    {\\n        isSigner_ = EnumerableSet.contains(\\n            MarketStorageLib.store().signers[asset],\\n            account\\n        );\\n    }\\n}\\n\",\"keccak256\":\"0x24591667ba1d84d819b9acff66fbf7b6f5c5a377a73f04fd466b91158cb85d56\",\"license\":\"MIT\"},\"contracts/market/collateral/ICollateralEscrow.sol\":{\"content\":\"// SPDX-License-Identifier: MIT\\npragma solidity ^0.8.0;\\n\\ninterface ICollateralEscrow {\\n    function init(address tokenAddress, bool isWETH) external;\\n\\n    function deposit(uint256 loanID, uint256 amount) external payable;\\n\\n    function withdraw(\\n        uint256 loanID,\\n        uint256 amount,\\n        address payable receiver\\n    ) external;\\n\\n    function loanSupply(uint256 loanID) external view returns (uint256 supply_);\\n\\n    function totalSupply() external view returns (uint256 supply_);\\n}\\n\",\"keccak256\":\"0x3c83593b5521e85c7f62076b41869cd5a762b34523ac39fc23b4ea1b9042aa59\",\"license\":\"MIT\"},\"contracts/shared/libraries/NumbersLib.sol\":{\"content\":\"// SPDX-License-Identifier: MIT\\npragma solidity ^0.8.0;\\n\\n/**\\n * @dev Utility library for uint256 numbers\\n *\\n * @author develop@teller.finance\\n */\\nlibrary NumbersLib {\\n    /**\\n     * @dev It represents 100% with 2 decimal places.\\n     */\\n    uint256 internal constant ONE_HUNDRED_PERCENT = 10000;\\n\\n    /**\\n     * @notice Returns a percentage value of a number.\\n     * @param self The number to get a percentage of.\\n     * @param percentage The percentage value to calculate with 2 decimal places (10000 = 100%).\\n     */\\n    function percent(uint256 self, uint16 percentage)\\n        internal\\n        pure\\n        returns (uint256)\\n    {\\n        return (self * uint256(percentage)) / ONE_HUNDRED_PERCENT;\\n    }\\n\\n    function percent(int256 self, uint256 percentage)\\n        internal\\n        pure\\n        returns (int256)\\n    {\\n        return (self * int256(percentage)) / int256(ONE_HUNDRED_PERCENT);\\n    }\\n\\n    function abs(int256 self) internal pure returns (uint256) {\\n        return self >= 0 ? uint256(self) : uint256(-1 * self);\\n    }\\n\\n    /**\\n     * @notice Returns a ratio percentage of {num1} to {num2}.\\n     * @param num1 The number used to get the ratio for.\\n     * @param num2 The number used to get the ratio from.\\n     * @return Ratio percentage with 2 decimal places (10000 = 100%).\\n     */\\n    function ratioOf(uint256 num1, uint256 num2)\\n        internal\\n        pure\\n        returns (uint16)\\n    {\\n        return num2 == 0 ? 0 : uint16((num1 * ONE_HUNDRED_PERCENT) / num2);\\n    }\\n}\\n\",\"keccak256\":\"0x998aefaf4edbe7b0cb41032750b65b3822b4bec0fec3ee5b396f8fb73b5e9e03\",\"license\":\"MIT\"},\"contracts/shared/libraries/NumbersList.sol\":{\"content\":\"// SPDX-License-Identifier: MIT\\npragma solidity ^0.8.0;\\n\\nimport \\\"@openzeppelin/contracts/utils/math/SafeMath.sol\\\";\\nimport \\\"./NumbersLib.sol\\\";\\n\\n/**\\n * @dev Utility library of inline functions on NumbersList.Values\\n *\\n * @author develop@teller.finance\\n */\\nlibrary NumbersList {\\n    using NumbersLib for uint256;\\n\\n    // Holds values to calculate the threshold of a list of numbers\\n    struct Values {\\n        uint256 count; // The total number of numbers added\\n        uint256 max; // The maximum number that was added\\n        uint256 min; // The minimum number that was added\\n        uint256 sum; // The total sum of the numbers that were added\\n    }\\n\\n    /**\\n     * @dev Add to the sum while keeping track of min and max values\\n     * @param self The Value this function was called on\\n     * @param newValue Number to increment sum by\\n     */\\n    function addValue(Values memory self, uint256 newValue) internal pure {\\n        if (self.max < newValue) {\\n            self.max = newValue;\\n        }\\n        if (self.min > newValue || self.count == 0) {\\n            self.min = newValue;\\n        }\\n        self.sum = self.sum + (newValue);\\n        self.count = self.count + 1;\\n    }\\n\\n    /**\\n     * @param self The Value this function was called on\\n     * @return the number of times the sum has updated\\n     */\\n    function valuesCount(Values memory self) internal pure returns (uint256) {\\n        return self.count;\\n    }\\n\\n    /**\\n     * @dev Checks if the sum has been changed\\n     * @param self The Value this function was called on\\n     * @return boolean\\n     */\\n    function isEmpty(Values memory self) internal pure returns (bool) {\\n        return valuesCount(self) == 0;\\n    }\\n\\n    /**\\n     * @param self The Value this function was called on\\n     * @return the average number that was used to calculate the sum\\n     */\\n    function getAverage(Values memory self) internal pure returns (uint256) {\\n        return isEmpty(self) ? 0 : self.sum / (valuesCount(self));\\n    }\\n\\n    /**\\n     * @dev Checks if the min and max numbers are within the acceptable tolerance\\n     * @param self The Value this function was called on\\n     * @param tolerancePercentage Acceptable tolerance percentage as a whole number\\n     * The percentage should be entered with 2 decimal places. e.g. 2.5% should be entered as 250.\\n     * @return boolean\\n     */\\n    function isWithinTolerance(Values memory self, uint16 tolerancePercentage)\\n        internal\\n        pure\\n        returns (bool)\\n    {\\n        if (isEmpty(self)) {\\n            return false;\\n        }\\n        uint256 average = getAverage(self);\\n        uint256 toleranceAmount = average.percent(tolerancePercentage);\\n\\n        uint256 minTolerance = average - toleranceAmount;\\n        if (self.min < minTolerance) {\\n            return false;\\n        }\\n\\n        uint256 maxTolerance = average + toleranceAmount;\\n        if (self.max > maxTolerance) {\\n            return false;\\n        }\\n        return true;\\n    }\\n}\\n\",\"keccak256\":\"0xfd64d3765eb776aaebf1c6eeb8af33ad4a9bd89bad676300542086c1fefd44da\",\"license\":\"MIT\"},\"contracts/shared/roles.sol\":{\"content\":\"// SPDX-License-Identifier: MIT\\npragma solidity ^0.8.0;\\n\\nbytes32 constant ADMIN = keccak256(\\\"ADMIN\\\");\\nbytes32 constant PAUSER = keccak256(\\\"PAUSER\\\");\\nbytes32 constant AUTHORIZED = keccak256(\\\"AUTHORIZED\\\");\\n\",\"keccak256\":\"0x0888cf40ea019be9f0ee94cb8af1e030454c28f8c6512db9d89ed027fe21f18f\",\"license\":\"MIT\"},\"contracts/storage/market.sol\":{\"content\":\"// SPDX-License-Identifier: MIT\\npragma solidity ^0.8.0;\\n\\n// Libraries\\nimport { Counters } from \\\"@openzeppelin/contracts/utils/Counters.sol\\\";\\nimport {\\n    EnumerableSet\\n} from \\\"@openzeppelin/contracts/utils/structs/EnumerableSet.sol\\\";\\nimport \\\"../shared/libraries/NumbersList.sol\\\";\\n\\n// Interfaces\\nimport { ILoansEscrow } from \\\"../escrow/escrow/ILoansEscrow.sol\\\";\\nimport { ICollateralEscrow } from \\\"../market/collateral/ICollateralEscrow.sol\\\";\\nimport { ITToken } from \\\"../lending/ttoken/ITToken.sol\\\";\\n\\nstruct LoanTerms {\\n    // Max size the loan max be taken out with\\n    uint256 maxLoanAmount;\\n    // The timestamp at which the loan terms expire, after which if the loan is not yet active, cannot be taken out\\n    uint32 termsExpiry;\\n}\\n\\nenum LoanStatus { NonExistent, TermsSet, Active, Closed, Liquidated }\\n\\nstruct Loan {\\n    // Account that owns the loan\\n    address payable borrower;\\n    // The asset lent out for the loan\\n    address lendingToken;\\n    // The token used as collateral for the loan\\n    address collateralToken;\\n    // The total amount of the loan size taken out\\n    uint256 borrowedAmount;\\n    // The id of the loan for internal tracking\\n    uint128 id;\\n    // How long in seconds until the loan must be repaid\\n    uint32 duration;\\n    // The timestamp at which the loan became active\\n    uint32 loanStartTime;\\n    // The interest rate given for repaying the loan\\n    uint16 interestRate;\\n    // Ratio used to determine amount of collateral required based on the collateral asset price\\n    uint16 collateralRatio;\\n    // The status of the loan\\n    LoanStatus status;\\n}\\n\\nstruct LoanDebt {\\n    // The total amount of the loan taken out by the borrower, reduces on loan repayments\\n    uint256 principalOwed;\\n    // The total interest owed by the borrower for the loan, reduces on loan repayments\\n    uint256 interestOwed;\\n}\\n\\n/**\\n * @notice Borrower request object to take out a loan\\n * @param borrower The wallet address of the borrower\\n * @param assetAddress The address of the asset for the requested loan\\n * @param amount The amount of tokens requested by the borrower for the loan\\n * @param requestNonce The nonce of the borrower wallet address required for authentication\\n * @param duration The length of time in seconds that the loan has been requested for\\n * @param requestTime The timestamp at which the loan was requested\\n */\\nstruct LoanRequest {\\n    address payable borrower;\\n    address assetAddress;\\n    uint256 amount;\\n    uint32 requestNonce;\\n    uint32 duration;\\n    uint32 requestTime;\\n}\\n\\n/**\\n * @notice Borrower response object to take out a loan\\n * @param signer The wallet address of the signer validating the interest request of the lender\\n * @param assetAddress The address of the asset for the requested loan\\n * @param maxLoanAmount The largest amount of tokens that can be taken out in the loan by the borrower\\n * @param responseTime The timestamp at which the response was sent\\n * @param interestRate The signed interest rate generated by the signer's Credit Risk Algorithm (CRA)\\n * @param collateralRatio The ratio of collateral to loan amount that is generated by the signer's Credit Risk Algorithm (CRA)\\n * @param signature The signature generated by the signer in the format of the above Signature struct\\n */\\nstruct LoanResponse {\\n    address signer;\\n    address assetAddress;\\n    uint256 maxLoanAmount;\\n    uint32 responseTime;\\n    uint16 interestRate;\\n    uint16 collateralRatio;\\n    Signature signature;\\n}\\n\\n/**\\n * @notice Represents a user signature\\n * @param v The recovery identifier represented by the last byte of a ECDSA signature as an int\\n * @param r The random point x-coordinate of the signature respresented by the first 32 bytes of the generated ECDSA signature\\n * @param s The signature proof represented by the second 32 bytes of the generated ECDSA signature\\n */\\nstruct Signature {\\n    uint8 v;\\n    bytes32 r;\\n    bytes32 s;\\n}\\n\\nstruct MarketStorage {\\n    // Holds the index for the next loan ID\\n    Counters.Counter loanIDCounter;\\n    // Maps loanIDs to loan data\\n    mapping(uint256 => Loan) loans;\\n    // Maps loanID to loan debt (total owed left)\\n    mapping(uint256 => LoanDebt) loanDebt;\\n    // Maps loanID to loan terms\\n    mapping(uint256 => LoanTerms) loanTerms;\\n    // Maps loanIDs to escrow address to list of held tokens\\n    mapping(uint256 => ILoansEscrow) loanEscrows;\\n    // Maps loanIDs to list of tokens owned by a loan escrow\\n    mapping(uint256 => EnumerableSet.AddressSet) escrowTokens;\\n    // Maps collateral token address to a LoanCollateralEscrow that hold collateral funds\\n    mapping(address => ICollateralEscrow) collateralEscrows;\\n    // Maps accounts to owned loan IDs\\n    mapping(address => uint128[]) borrowerLoans;\\n    // Maps lending token to overall amount of interest collected from loans\\n    mapping(address => ITToken) tTokens;\\n    // Maps lending token to list of signer addresses who are only ones allowed to verify loan requests\\n    mapping(address => EnumerableSet.AddressSet) signers;\\n    // Maps lending token to list of allowed collateral tokens\\n    mapping(address => EnumerableSet.AddressSet) collateralTokens;\\n}\\n\\nbytes32 constant MARKET_STORAGE_POS = keccak256(\\\"teller.market.storage\\\");\\n\\nlibrary MarketStorageLib {\\n    function store() internal pure returns (MarketStorage storage s) {\\n        bytes32 pos = MARKET_STORAGE_POS;\\n        assembly {\\n            s.slot := pos\\n        }\\n    }\\n}\\n\",\"keccak256\":\"0x5f3fdba19ae8040e2007affe422527b7dca58ba424df33ba4dd9cb08d83d00de\",\"license\":\"MIT\"}},\"version\":1}",
      "bytecode": "0x608060405234801561001057600080fd5b5061036d806100206000396000f3fe608060405234801561001057600080fd5b50600436106100415760003560e01c80632239f5561461004657806346efd16c1461005b57806378b248e41461006e575b600080fd5b61005961005436600461025d565b610095565b005b61005961006936600461028f565b6100a3565b61008161007c36600461025d565b610104565b604051901515815260200160405180910390f35b61009f828261014c565b5050565b60005b818110156100fe576100ec848484848181106100d257634e487b7160e01b600052603260045260246000fd5b90506020020160208101906100e79190610243565b61014c565b806100f681610310565b9150506100a6565b50505050565b6001600160a01b03821660009081527f0553069f1f0518e59f8623c18c83a1f987f2a0544d563e98dd803a7078142a8e6020526040812061014590836101a0565b9392505050565b6101568282610104565b61009f576001600160a01b03821660009081527f0553069f1f0518e59f8623c18c83a1f987f2a0544d563e98dd803a7078142a8e6020526040902061019b90826101c8565b505050565b6001600160a01b03811660009081526001830160205260408120541515610145565b92915050565b6000610145836001600160a01b038416600081815260018301602052604081205461021f575081546001818101845560008481526020808220909301849055845484825282860190935260409020919091556101c2565b5060006101c2565b80356001600160a01b038116811461023e57600080fd5b919050565b600060208284031215610254578081fd5b61014582610227565b6000806040838503121561026f578081fd5b61027883610227565b915061028660208401610227565b90509250929050565b6000806000604084860312156102a3578081fd5b6102ac84610227565b9250602084013567ffffffffffffffff808211156102c8578283fd5b818601915086601f8301126102db578283fd5b8135818111156102e9578384fd5b8760208260051b85010111156102fd578384fd5b6020830194508093505050509250925092565b600060001982141561033057634e487b7160e01b81526011600452602481fd5b506001019056fea264697066735822122055e0173e70ad15595be5846ea5299e2f587d970d3ea5daed0c0d2f6ae13730a064736f6c63430008030033",
      "deployedBytecode": "0x608060405234801561001057600080fd5b50600436106100415760003560e01c80632239f5561461004657806346efd16c1461005b57806378b248e41461006e575b600080fd5b61005961005436600461025d565b610095565b005b61005961006936600461028f565b6100a3565b61008161007c36600461025d565b610104565b604051901515815260200160405180910390f35b61009f828261014c565b5050565b60005b818110156100fe576100ec848484848181106100d257634e487b7160e01b600052603260045260246000fd5b90506020020160208101906100e79190610243565b61014c565b806100f681610310565b9150506100a6565b50505050565b6001600160a01b03821660009081527f0553069f1f0518e59f8623c18c83a1f987f2a0544d563e98dd803a7078142a8e6020526040812061014590836101a0565b9392505050565b6101568282610104565b61009f576001600160a01b03821660009081527f0553069f1f0518e59f8623c18c83a1f987f2a0544d563e98dd803a7078142a8e6020526040902061019b90826101c8565b505050565b6001600160a01b03811660009081526001830160205260408120541515610145565b92915050565b6000610145836001600160a01b038416600081815260018301602052604081205461021f575081546001818101845560008481526020808220909301849055845484825282860190935260409020919091556101c2565b5060006101c2565b80356001600160a01b038116811461023e57600080fd5b919050565b600060208284031215610254578081fd5b61014582610227565b6000806040838503121561026f578081fd5b61027883610227565b915061028660208401610227565b90509250929050565b6000806000604084860312156102a3578081fd5b6102ac84610227565b9250602084013567ffffffffffffffff808211156102c8578283fd5b818601915086601f8301126102db578283fd5b8135818111156102e9578384fd5b8760208260051b85010111156102fd578384fd5b6020830194508093505050509250925092565b600060001982141561033057634e487b7160e01b81526011600452602481fd5b506001019056fea264697066735822122055e0173e70ad15595be5846ea5299e2f587d970d3ea5daed0c0d2f6ae13730a064736f6c63430008030033",
      "devdoc": {
        "kind": "dev",
        "methods": {
          "addSigner(address,address)": {
            "details": "The sender must be the owner.It throws a require error if the sender is not the owner.",
            "params": {
              "account": "address to add.",
              "asset": "Token address to add signers for."
            }
          },
          "addSigners(address,address[])": {
            "details": "The sender must be the owner.It throws a require error if the sender is not the owner.",
            "params": {
              "accounts": "addresses to add.",
              "asset": "Token address to add signers for."
            }
          }
        },
        "version": 1
      },
      "userdoc": {
        "kind": "user",
        "methods": {
          "addSigner(address,address)": {
            "notice": "It adds a new account as a signer."
          },
          "addSigners(address,address[])": {
            "notice": "It adds a list of account as signers."
          }
        },
        "version": 1
      },
      "storageLayout": {
        "storage": [],
        "types": null
      }
    }
  ],
  "devdoc": {
    "kind": "dev",
    "methods": {
      "addSigner(address,address)": {
        "details": "The sender must be the owner.It throws a require error if the sender is not the owner.",
        "params": {
          "account": "address to add.",
          "asset": "Token address to add signers for."
        }
      },
      "addSigners(address,address[])": {
        "details": "The sender must be the owner.It throws a require error if the sender is not the owner.",
        "params": {
          "accounts": "addresses to add.",
          "asset": "Token address to add signers for."
        }
      },
      "isSigner(address,address)": {
        "params": {
          "account": "the account to check in the list of the asset's signers",
          "asset": "the asset to check for if the signer exists"
        }
      }
    },
    "version": 1
  },
  "userdoc": {
    "kind": "user",
    "methods": {
      "addSigner(address,address)": {
        "notice": "It adds a new account as a signer."
      },
      "addSigners(address,address[])": {
        "notice": "It adds a list of account as signers."
      },
      "isSigner(address,address)": {
        "notice": "it checks if an account is already in the list of the asset's signers"
      }
    },
    "version": 1
  },
  "storageLayout": {
    "storage": [],
    "types": null
  }
}