{
  "address": "0x7360904A663B9Cb66baB538F406C04D8da86229d",
  "abi": [
    {
      "anonymous": false,
      "inputs": [
        {
          "indexed": true,
          "internalType": "address",
          "name": "owner",
          "type": "address"
        },
        {
          "indexed": true,
          "internalType": "address",
          "name": "approved",
          "type": "address"
        },
        {
          "indexed": true,
          "internalType": "uint256",
          "name": "tokenId",
          "type": "uint256"
        }
      ],
      "name": "Approval",
      "type": "event"
    },
    {
      "anonymous": false,
      "inputs": [
        {
          "indexed": true,
          "internalType": "address",
          "name": "owner",
          "type": "address"
        },
        {
          "indexed": true,
          "internalType": "address",
          "name": "operator",
          "type": "address"
        },
        {
          "indexed": false,
          "internalType": "bool",
          "name": "approved",
          "type": "bool"
        }
      ],
      "name": "ApprovalForAll",
      "type": "event"
    },
    {
      "anonymous": false,
      "inputs": [
        {
          "indexed": true,
          "internalType": "bytes32",
          "name": "role",
          "type": "bytes32"
        },
        {
          "indexed": true,
          "internalType": "bytes32",
          "name": "previousAdminRole",
          "type": "bytes32"
        },
        {
          "indexed": true,
          "internalType": "bytes32",
          "name": "newAdminRole",
          "type": "bytes32"
        }
      ],
      "name": "RoleAdminChanged",
      "type": "event"
    },
    {
      "anonymous": false,
      "inputs": [
        {
          "indexed": true,
          "internalType": "bytes32",
          "name": "role",
          "type": "bytes32"
        },
        {
          "indexed": true,
          "internalType": "address",
          "name": "account",
          "type": "address"
        },
        {
          "indexed": true,
          "internalType": "address",
          "name": "sender",
          "type": "address"
        }
      ],
      "name": "RoleGranted",
      "type": "event"
    },
    {
      "anonymous": false,
      "inputs": [
        {
          "indexed": true,
          "internalType": "bytes32",
          "name": "role",
          "type": "bytes32"
        },
        {
          "indexed": true,
          "internalType": "address",
          "name": "account",
          "type": "address"
        },
        {
          "indexed": true,
          "internalType": "address",
          "name": "sender",
          "type": "address"
        }
      ],
      "name": "RoleRevoked",
      "type": "event"
    },
    {
      "anonymous": false,
      "inputs": [
        {
          "indexed": true,
          "internalType": "address",
          "name": "from",
          "type": "address"
        },
        {
          "indexed": true,
          "internalType": "address",
          "name": "to",
          "type": "address"
        },
        {
          "indexed": true,
          "internalType": "uint256",
          "name": "tokenId",
          "type": "uint256"
        }
      ],
      "name": "Transfer",
      "type": "event"
    },
    {
      "inputs": [],
      "name": "ADMIN",
      "outputs": [
        {
          "internalType": "bytes32",
          "name": "",
          "type": "bytes32"
        }
      ],
      "stateMutability": "view",
      "type": "function"
    },
    {
      "inputs": [],
      "name": "DEFAULT_ADMIN_ROLE",
      "outputs": [
        {
          "internalType": "bytes32",
          "name": "",
          "type": "bytes32"
        }
      ],
      "stateMutability": "view",
      "type": "function"
    },
    {
      "inputs": [],
      "name": "MINTER",
      "outputs": [
        {
          "internalType": "bytes32",
          "name": "",
          "type": "bytes32"
        }
      ],
      "stateMutability": "view",
      "type": "function"
    },
    {
      "inputs": [
        {
          "internalType": "address",
          "name": "minter",
          "type": "address"
        }
      ],
      "name": "addMinter",
      "outputs": [],
      "stateMutability": "nonpayable",
      "type": "function"
    },
    {
      "inputs": [
        {
          "components": [
            {
              "internalType": "uint256",
              "name": "baseLoanSize",
              "type": "uint256"
            },
            {
              "internalType": "string[]",
              "name": "hashes",
              "type": "string[]"
            },
            {
              "internalType": "address",
              "name": "contributionAsset",
              "type": "address"
            },
            {
              "internalType": "uint256",
              "name": "contributionSize",
              "type": "uint256"
            },
            {
              "internalType": "uint8",
              "name": "contributionMultiplier",
              "type": "uint8"
            }
          ],
          "internalType": "struct ITellerNFT.Tier",
          "name": "newTier",
          "type": "tuple"
        }
      ],
      "name": "addTier",
      "outputs": [],
      "stateMutability": "nonpayable",
      "type": "function"
    },
    {
      "inputs": [
        {
          "internalType": "address",
          "name": "to",
          "type": "address"
        },
        {
          "internalType": "uint256",
          "name": "tokenId",
          "type": "uint256"
        }
      ],
      "name": "approve",
      "outputs": [],
      "stateMutability": "nonpayable",
      "type": "function"
    },
    {
      "inputs": [
        {
          "internalType": "address",
          "name": "owner",
          "type": "address"
        }
      ],
      "name": "balanceOf",
      "outputs": [
        {
          "internalType": "uint256",
          "name": "",
          "type": "uint256"
        }
      ],
      "stateMutability": "view",
      "type": "function"
    },
    {
      "inputs": [],
      "name": "contractURI",
      "outputs": [
        {
          "internalType": "string",
          "name": "",
          "type": "string"
        }
      ],
      "stateMutability": "view",
      "type": "function"
    },
    {
      "inputs": [
        {
          "internalType": "uint256",
          "name": "tokenId",
          "type": "uint256"
        }
      ],
      "name": "getApproved",
      "outputs": [
        {
          "internalType": "address",
          "name": "",
          "type": "address"
        }
      ],
      "stateMutability": "view",
      "type": "function"
    },
    {
      "inputs": [
        {
          "internalType": "address",
          "name": "owner",
          "type": "address"
        }
      ],
      "name": "getOwnedTokens",
      "outputs": [
        {
          "internalType": "uint256[]",
          "name": "owned_",
          "type": "uint256[]"
        }
      ],
      "stateMutability": "view",
      "type": "function"
    },
    {
      "inputs": [
        {
          "internalType": "bytes32",
          "name": "role",
          "type": "bytes32"
        }
      ],
      "name": "getRoleAdmin",
      "outputs": [
        {
          "internalType": "bytes32",
          "name": "",
          "type": "bytes32"
        }
      ],
      "stateMutability": "view",
      "type": "function"
    },
    {
      "inputs": [
        {
          "internalType": "uint256",
          "name": "index",
          "type": "uint256"
        }
      ],
      "name": "getTier",
      "outputs": [
        {
          "components": [
            {
              "internalType": "uint256",
              "name": "baseLoanSize",
              "type": "uint256"
            },
            {
              "internalType": "string[]",
              "name": "hashes",
              "type": "string[]"
            },
            {
              "internalType": "address",
              "name": "contributionAsset",
              "type": "address"
            },
            {
              "internalType": "uint256",
              "name": "contributionSize",
              "type": "uint256"
            },
            {
              "internalType": "uint8",
              "name": "contributionMultiplier",
              "type": "uint8"
            }
          ],
          "internalType": "struct ITellerNFT.Tier",
          "name": "tier_",
          "type": "tuple"
        }
      ],
      "stateMutability": "view",
      "type": "function"
    },
    {
      "inputs": [
        {
          "internalType": "uint256",
          "name": "tierIndex",
          "type": "uint256"
        }
      ],
      "name": "getTierHashes",
      "outputs": [
        {
          "internalType": "string[]",
          "name": "hashes_",
          "type": "string[]"
        }
      ],
      "stateMutability": "view",
      "type": "function"
    },
    {
      "inputs": [
        {
          "internalType": "uint256",
          "name": "tokenId",
          "type": "uint256"
        }
      ],
      "name": "getTokenTier",
      "outputs": [
        {
          "internalType": "uint256",
          "name": "index_",
          "type": "uint256"
        },
        {
          "components": [
            {
              "internalType": "uint256",
              "name": "baseLoanSize",
              "type": "uint256"
            },
            {
              "internalType": "string[]",
              "name": "hashes",
              "type": "string[]"
            },
            {
              "internalType": "address",
              "name": "contributionAsset",
              "type": "address"
            },
            {
              "internalType": "uint256",
              "name": "contributionSize",
              "type": "uint256"
            },
            {
              "internalType": "uint8",
              "name": "contributionMultiplier",
              "type": "uint8"
            }
          ],
          "internalType": "struct ITellerNFT.Tier",
          "name": "tier_",
          "type": "tuple"
        }
      ],
      "stateMutability": "view",
      "type": "function"
    },
    {
      "inputs": [
        {
          "internalType": "bytes32",
          "name": "role",
          "type": "bytes32"
        },
        {
          "internalType": "address",
          "name": "account",
          "type": "address"
        }
      ],
      "name": "grantRole",
      "outputs": [],
      "stateMutability": "nonpayable",
      "type": "function"
    },
    {
      "inputs": [
        {
          "internalType": "bytes32",
          "name": "role",
          "type": "bytes32"
        },
        {
          "internalType": "address",
          "name": "account",
          "type": "address"
        }
      ],
      "name": "hasRole",
      "outputs": [
        {
          "internalType": "bool",
          "name": "",
          "type": "bool"
        }
      ],
      "stateMutability": "view",
      "type": "function"
    },
    {
      "inputs": [
        {
          "internalType": "address[]",
          "name": "minters",
          "type": "address[]"
        }
      ],
      "name": "initialize",
      "outputs": [],
      "stateMutability": "nonpayable",
      "type": "function"
    },
    {
      "inputs": [
        {
          "internalType": "address",
          "name": "owner",
          "type": "address"
        },
        {
          "internalType": "address",
          "name": "operator",
          "type": "address"
        }
      ],
      "name": "isApprovedForAll",
      "outputs": [
        {
          "internalType": "bool",
          "name": "",
          "type": "bool"
        }
      ],
      "stateMutability": "view",
      "type": "function"
    },
    {
      "inputs": [
        {
          "internalType": "uint256",
          "name": "tierIndex",
          "type": "uint256"
        },
        {
          "internalType": "address",
          "name": "owner",
          "type": "address"
        }
      ],
      "name": "mint",
      "outputs": [],
      "stateMutability": "nonpayable",
      "type": "function"
    },
    {
      "inputs": [],
      "name": "name",
      "outputs": [
        {
          "internalType": "string",
          "name": "",
          "type": "string"
        }
      ],
      "stateMutability": "view",
      "type": "function"
    },
    {
      "inputs": [
        {
          "internalType": "uint256",
          "name": "tokenId",
          "type": "uint256"
        }
      ],
      "name": "ownerOf",
      "outputs": [
        {
          "internalType": "address",
          "name": "",
          "type": "address"
        }
      ],
      "stateMutability": "view",
      "type": "function"
    },
    {
      "inputs": [
        {
          "internalType": "address",
          "name": "minter",
          "type": "address"
        }
      ],
      "name": "removeMinter",
      "outputs": [],
      "stateMutability": "nonpayable",
      "type": "function"
    },
    {
      "inputs": [
        {
          "internalType": "bytes32",
          "name": "role",
          "type": "bytes32"
        },
        {
          "internalType": "address",
          "name": "account",
          "type": "address"
        }
      ],
      "name": "renounceRole",
      "outputs": [],
      "stateMutability": "nonpayable",
      "type": "function"
    },
    {
      "inputs": [
        {
          "internalType": "bytes32",
          "name": "role",
          "type": "bytes32"
        },
        {
          "internalType": "address",
          "name": "account",
          "type": "address"
        }
      ],
      "name": "revokeRole",
      "outputs": [],
      "stateMutability": "nonpayable",
      "type": "function"
    },
    {
      "inputs": [
        {
          "internalType": "address",
          "name": "from",
          "type": "address"
        },
        {
          "internalType": "address",
          "name": "to",
          "type": "address"
        },
        {
          "internalType": "uint256",
          "name": "tokenId",
          "type": "uint256"
        }
      ],
      "name": "safeTransferFrom",
      "outputs": [],
      "stateMutability": "nonpayable",
      "type": "function"
    },
    {
      "inputs": [
        {
          "internalType": "address",
          "name": "from",
          "type": "address"
        },
        {
          "internalType": "address",
          "name": "to",
          "type": "address"
        },
        {
          "internalType": "uint256",
          "name": "tokenId",
          "type": "uint256"
        },
        {
          "internalType": "bytes",
          "name": "_data",
          "type": "bytes"
        }
      ],
      "name": "safeTransferFrom",
      "outputs": [],
      "stateMutability": "nonpayable",
      "type": "function"
    },
    {
      "inputs": [
        {
          "internalType": "address",
          "name": "operator",
          "type": "address"
        },
        {
          "internalType": "bool",
          "name": "approved",
          "type": "bool"
        }
      ],
      "name": "setApprovalForAll",
      "outputs": [],
      "stateMutability": "nonpayable",
      "type": "function"
    },
    {
      "inputs": [
        {
          "internalType": "string",
          "name": "contractURIHash",
          "type": "string"
        }
      ],
      "name": "setContractURIHash",
      "outputs": [],
      "stateMutability": "nonpayable",
      "type": "function"
    },
    {
      "inputs": [
        {
          "internalType": "bytes4",
          "name": "interfaceId",
          "type": "bytes4"
        }
      ],
      "name": "supportsInterface",
      "outputs": [
        {
          "internalType": "bool",
          "name": "",
          "type": "bool"
        }
      ],
      "stateMutability": "view",
      "type": "function"
    },
    {
      "inputs": [],
      "name": "symbol",
      "outputs": [
        {
          "internalType": "string",
          "name": "",
          "type": "string"
        }
      ],
      "stateMutability": "view",
      "type": "function"
    },
    {
      "inputs": [
        {
          "internalType": "uint256",
          "name": "tokenId",
          "type": "uint256"
        }
      ],
      "name": "tokenURI",
      "outputs": [
        {
          "internalType": "string",
          "name": "",
          "type": "string"
        }
      ],
      "stateMutability": "view",
      "type": "function"
    },
    {
      "inputs": [
        {
          "internalType": "address",
          "name": "from",
          "type": "address"
        },
        {
          "internalType": "address",
          "name": "to",
          "type": "address"
        },
        {
          "internalType": "uint256",
          "name": "tokenId",
          "type": "uint256"
        }
      ],
      "name": "transferFrom",
      "outputs": [],
      "stateMutability": "nonpayable",
      "type": "function"
    }
  ],
  "artifactName": "TellerNFT",
  "transactionHash": "0x3b315ac2abcfd5b80e6d102509d02e4c51d351397b8b782cd8521e055bfa189d",
  "args": [],
  "solcInputHash": "dc3b3c0336b59a4fae33a8cd036a81b5",
  "bytecode": "0x608060405234801561001057600080fd5b50612e6e806100206000396000f3fe608060405234801561001057600080fd5b50600436106101f05760003560e01c806395d89b411161010f578063c87b56dd116100a2578063d9d6165511610071578063d9d616551461047e578063e8a3d4851461049e578063e985e9c5146104a6578063fe6d8124146104e2576101f0565b8063c87b56dd14610425578063cbee53a314610438578063cf932b7c14610458578063d547741f1461046b576101f0565b8063a22cb465116100de578063a22cb465146103cb578063b88d4fde146103de578063baedc1c4146103f1578063c26b265f14610404576101f0565b806395d89b4114610395578063983b2d561461039d578063a217fddf146103b0578063a224cee7146103b8576101f0565b80633092afd5116101875780636352211e116101565780636352211e1461034957806370a082311461035c57806391d148541461036f57806394bf804d14610382576101f0565b80633092afd5146102f057806336568abe1461030357806342842e0e146103165780634f062c5a14610329576101f0565b806323b872dd116101c357806323b872dd14610272578063248a9ca3146102855780632a0acc6a146102b65780632f2ff15d146102dd576101f0565b806301ffc9a7146101f557806306fdde031461021d578063081812fc14610232578063095ea7b31461025d575b600080fd5b610208610203366004612719565b6104f7565b60405190151581526020015b60405180910390f35b610225610533565b6040516102149190612aef565b6102456102403660046126df565b6105c5565b6040516001600160a01b039091168152602001610214565b61027061026b366004612646565b61065f565b005b610270610280366004612558565b610775565b6102a86102933660046126df565b60009081526097602052604090206001015490565b604051908152602001610214565b6102a87fdf8b4c520ffe197c5343c6f5aec59570151ef9a492f2c624fd45ddde6135ec4281565b6102706102eb3660046126f7565b6107a6565b6102706102fe36600461250c565b6107cd565b6102706103113660046126f7565b61081c565b610270610324366004612558565b61089a565b61033c6103373660046126df565b6108b5565b6040516102149190612c22565b6102456103573660046126df565b6109ef565b6102a861036a36600461250c565b610a66565b61020861037d3660046126f7565b610aed565b610270610390366004612883565b610b1a565b610225610b8e565b6102706103ab36600461250c565b610b9d565b6102a8600081565b6102706103c636600461266f565b610be9565b6102706103d936600461260c565b610d6c565b6102706103ec366004612593565b610e3e565b6102706103ff366004612751565b610e76565b6104176104123660046126df565b610ef6565b604051610214929190612c35565b6102256104333660046126df565b611036565b61044b6104463660046126df565b61110c565b6040516102149190612a4a565b610270610466366004612784565b6111fb565b6102706104793660046126f7565b6112c6565b61049161048c36600461250c565b6112ec565b6040516102149190612aab565b6102256113bc565b6102086104b4366004612526565b6001600160a01b039182166000908152606a6020908152604080832093909416825291909152205460ff1690565b6102a8600080516020612dc983398151915281565b60006001600160e01b03198216630d04cfd960e21b148061051c575061051c826113cb565b8061052b575061052b8261141b565b90505b919050565b60606065805461054290612d10565b80601f016020809104026020016040519081016040528092919081815260200182805461056e90612d10565b80156105bb5780601f10610590576101008083540402835291602001916105bb565b820191906000526020600020905b81548152906001019060200180831161059e57829003601f168201915b5050505050905090565b6000818152606760205260408120546001600160a01b03166106435760405162461bcd60e51b815260206004820152602c60248201527f4552433732313a20617070726f76656420717565727920666f72206e6f6e657860448201526b34b9ba32b73a103a37b5b2b760a11b60648201526084015b60405180910390fd5b506000908152606960205260409020546001600160a01b031690565b600061066a826109ef565b9050806001600160a01b0316836001600160a01b031614156106d85760405162461bcd60e51b815260206004820152602160248201527f4552433732313a20617070726f76616c20746f2063757272656e74206f776e656044820152603960f91b606482015260840161063a565b336001600160a01b03821614806106f457506106f481336104b4565b6107665760405162461bcd60e51b815260206004820152603860248201527f4552433732313a20617070726f76652063616c6c6572206973206e6f74206f7760448201527f6e6572206e6f7220617070726f76656420666f7220616c6c0000000000000000606482015260840161063a565b6107708383611440565b505050565b61077f33826114ae565b61079b5760405162461bcd60e51b815260040161063a90612bd1565b6107708383836115a5565b6000828152609760205260409020600101546107c381335b6115ba565b610770838361161e565b6107e5600080516020612dc98339815191523361037d565b6108015760405162461bcd60e51b815260040161063a90612b54565b610819600080516020612dc9833981519152826112c6565b50565b6001600160a01b038116331461088c5760405162461bcd60e51b815260206004820152602f60248201527f416363657373436f6e74726f6c3a2063616e206f6e6c792072656e6f756e636560448201526e103937b632b9903337b91039b2b63360891b606482015260840161063a565b61089682826116a4565b5050565b61077083838360405180602001604052806000815250610e3e565b6108bd6122e7565b60cb60008381526020019081526020016000206040518060a00160405290816000820154815260200160018201805480602002602001604051908101604052809291908181526020016000905b828210156109b657838290600052602060002001805461092990612d10565b80601f016020809104026020016040519081016040528092919081815260200182805461095590612d10565b80156109a25780601f10610977576101008083540402835291602001916109a2565b820191906000526020600020905b81548152906001019060200180831161098557829003601f168201915b50505050508152602001906001019061090a565b5050509082525060028201546001600160a01b031660208201526003820154604082015260049091015460ff1660609091015292915050565b6000818152606760205260408120546001600160a01b03168061052b5760405162461bcd60e51b815260206004820152602960248201527f4552433732313a206f776e657220717565727920666f72206e6f6e657869737460448201526832b73a103a37b5b2b760b91b606482015260840161063a565b60006001600160a01b038216610ad15760405162461bcd60e51b815260206004820152602a60248201527f4552433732313a2062616c616e636520717565727920666f7220746865207a65604482015269726f206164647265737360b01b606482015260840161063a565b506001600160a01b031660009081526068602052604090205490565b60008281526097602090815260408083206001600160a01b038516845290915290205460ff165b92915050565b610b32600080516020612dc98339815191523361037d565b610b4e5760405162461bcd60e51b815260040161063a90612b54565b6000610b5960ca5490565b9050610b6960ca80546001019055565b610b73828261170b565b600081815260cc602052604090208390556107708282611725565b60606066805461054290612d10565b610bb5600080516020612dc98339815191523361037d565b610bd15760405162461bcd60e51b815260040161063a90612b54565b610819600080516020612dc983398151915282611787565b600054610100900460ff1680610c02575060005460ff16155b610c1e5760405162461bcd60e51b815260040161063a90612b83565b600054610100900460ff16158015610c40576000805461ffff19166101011790555b610c886040518060400160405280600a81526020016915195b1b195c8813919560b21b815250604051806040016040528060048152602001631513919560e21b815250611791565b610c90611818565b60005b82811015610cf957610ce7600080516020612dc9833981519152858584818110610ccd57634e487b7160e01b600052603260045260246000fd5b9050602002016020810190610ce2919061250c565b611787565b80610cf181612d4b565b915050610c93565b50604051806060016040528060228152602001612e17602291398051610d279160ce91602090910190612322565b506040518060600160405280602e8152602001612de9602e91398051610d559160cf91602090910190612322565b508015610770576000805461ff0019169055505050565b6001600160a01b038216331415610dc55760405162461bcd60e51b815260206004820152601960248201527f4552433732313a20617070726f766520746f2063616c6c657200000000000000604482015260640161063a565b336000818152606a602090815260408083206001600160a01b0387168085529252909120805460ff1916841515179055906001600160a01b03167f17307eab39ab6107e8899845ad3d59bd9653f200f220920489ca2b5937696c3183604051610e32911515815260200190565b60405180910390a35050565b610e4833836114ae565b610e645760405162461bcd60e51b815260040161063a90612bd1565b610e708484848461189b565b50505050565b610ea07fdf8b4c520ffe197c5343c6f5aec59570151ef9a492f2c624fd45ddde6135ec423361037d565b610ee35760405162461bcd60e51b81526020600482015260146024820152732a32b63632b927232a1d103737ba1030b236b4b760611b604482015260640161063a565b80516108969060cf906020840190612322565b6000610f006122e7565b600083815260cc602090815260408083205480845260cb8352818420825160a0810184528154815260018201805485518188028101880190965280865293985090959194868101949391929084015b82821015610ffb578382906000526020600020018054610f6e90612d10565b80601f0160208091040260200160405190810160405280929190818152602001828054610f9a90612d10565b8015610fe75780601f10610fbc57610100808354040283529160200191610fe7565b820191906000526020600020905b815481529060010190602001808311610fca57829003601f168201915b505050505081526020019060010190610f4f565b5050509082525060028201546001600160a01b031660208201526003820154604082015260049091015460ff16606090910152919391925050565b6000818152606760205260409020546060906001600160a01b03166110b05760405162461bcd60e51b815260206004820152602a60248201527f54656c6c65724e46543a2055524920717565727920666f72206e6f6e657869736044820152693a32b73a103a37b5b2b760b11b606482015260840161063a565b60006110ba6118ce565b905060008151116110da5760405180602001604052806000815250611105565b806110e4846118dd565b6040516020016110f5929190612969565b6040516020818303038152906040525b9392505050565b606060cb6000838152602001908152602001600020600101805480602002602001604051908101604052809291908181526020016000905b828210156111f057838290600052602060002001805461116390612d10565b80601f016020809104026020016040519081016040528092919081815260200182805461118f90612d10565b80156111dc5780601f106111b1576101008083540402835291602001916111dc565b820191906000526020600020905b8154815290600101906020018083116111bf57829003601f168201915b505050505081526020019060010190611144565b505050509050919050565b611213600080516020612dc98339815191523361037d565b61122f5760405162461bcd60e51b815260040161063a90612b54565b600060cb600061123e60c95490565b81526020808201929092526040016000208351815583820151805191935061126d9260018501929101906123a6565b5060408201516002820180546001600160a01b0319166001600160a01b0390921691909117905560608201516003820155608082015160048201805460ff191660ff90921691909117905560c980546001019055610896565b6000828152609760205260409020600101546112e281336107be565b61077083836116a4565b6001600160a01b038116600090815260cd60205260409020606090611310816119c7565b67ffffffffffffffff81111561133657634e487b7160e01b600052604160045260246000fd5b60405190808252806020026020018201604052801561135f578160200160208202803683370190505b50915060005b82518110156113b55761137882826119d1565b83828151811061139857634e487b7160e01b600052603260045260246000fd5b6020908102919091010152806113ad81612d4b565b915050611365565b5050919050565b606060cf805461054290612d10565b60006001600160e01b031982166380ac58cd60e01b14806113fc57506001600160e01b03198216635b5e139f60e01b145b8061052b57506301ffc9a760e01b6001600160e01b031983161461052b565b60006001600160e01b03198216637965db0b60e01b148061052b575061052b826113cb565b600081815260696020526040902080546001600160a01b0319166001600160a01b0384169081179091558190611475826109ef565b6001600160a01b03167f8c5be1e5ebec7d5bd14f71427d1e84f3dd0314c0f7b2291e5b200ac8c7c3b92560405160405180910390a45050565b6000818152606760205260408120546001600160a01b03166115275760405162461bcd60e51b815260206004820152602c60248201527f4552433732313a206f70657261746f7220717565727920666f72206e6f6e657860448201526b34b9ba32b73a103a37b5b2b760a11b606482015260840161063a565b6000611532836109ef565b9050806001600160a01b0316846001600160a01b0316148061156d5750836001600160a01b0316611562846105c5565b6001600160a01b0316145b8061159d57506001600160a01b038082166000908152606a602090815260408083209388168352929052205460ff165b949350505050565b6115af8282611725565b6107708383836119dd565b6115c48282610aed565b610896576115dc816001600160a01b03166014611b7d565b6115e7836020611b7d565b6040516020016115f8929190612998565b60408051601f198184030181529082905262461bcd60e51b825261063a91600401612aef565b6116288282610aed565b6108965760008281526097602090815260408083206001600160a01b03851684529091529020805460ff191660011790556116603390565b6001600160a01b0316816001600160a01b0316837f2f8788117e7eff1d82e926ec794901d17c78024a50270940304540a733656f0d60405160405180910390a45050565b6116ae8282610aed565b156108965760008281526097602090815260408083206001600160a01b0385168085529252808320805460ff1916905551339285917ff6391f5c32d9c69d2a47ea670b442974b53935d1edc7fd64eb21e047a839171b9190a45050565b610896828260405180602001604052806000815250611d5f565b6000611730826109ef565b90506001600160a01b03811615611765576001600160a01b038116600090815260cd602052604090206117639083611d92565b505b6001600160a01b038316600090815260cd60205260409020610e709083611d9e565b610896828261161e565b600054610100900460ff16806117aa575060005460ff16155b6117c65760405162461bcd60e51b815260040161063a90612b83565b600054610100900460ff161580156117e8576000805461ffff19166101011790555b6117f0611daa565b6117f8611daa565b6118028383611e14565b8015610770576000805461ff0019169055505050565b600054610100900460ff1680611831575060005460ff16155b61184d5760405162461bcd60e51b815260040161063a90612b83565b600054610100900460ff1615801561186f576000805461ffff19166101011790555b611877611daa565b61187f611daa565b611887611daa565b8015610819576000805461ff001916905550565b6118a68484846115a5565b6118b284848484611e92565b610e705760405162461bcd60e51b815260040161063a90612b02565b606060ce805461054290612d10565b600081815260cc6020908152604080832054835260cb9091529020600101805460609190819061190e908590611f9f565b8154811061192c57634e487b7160e01b600052603260045260246000fd5b90600052602060002001805461194190612d10565b80601f016020809104026020016040519081016040528092919081815260200182805461196d90612d10565b80156119ba5780601f1061198f576101008083540402835291602001916119ba565b820191906000526020600020905b81548152906001019060200180831161199d57829003601f168201915b5050505050915050919050565b600061052b825490565b60006111058383611fab565b826001600160a01b03166119f0826109ef565b6001600160a01b031614611a585760405162461bcd60e51b815260206004820152602960248201527f4552433732313a207472616e73666572206f6620746f6b656e2074686174206960448201526839903737ba1037bbb760b91b606482015260840161063a565b6001600160a01b038216611aba5760405162461bcd60e51b8152602060048201526024808201527f4552433732313a207472616e7366657220746f20746865207a65726f206164646044820152637265737360e01b606482015260840161063a565b611ac5600082611440565b6001600160a01b0383166000908152606860205260408120805460019290611aee908490612cb6565b90915550506001600160a01b0382166000908152606860205260408120805460019290611b1c908490612c7f565b909155505060008181526067602052604080822080546001600160a01b0319166001600160a01b0386811691821790925591518493918716917fddf252ad1be2c89b69c2b068fc378daa952ba7f163c4a11628f55a4df523b3ef91a4505050565b60606000611b8c836002612c97565b611b97906002612c7f565b67ffffffffffffffff811115611bbd57634e487b7160e01b600052604160045260246000fd5b6040519080825280601f01601f191660200182016040528015611be7576020820181803683370190505b509050600360fc1b81600081518110611c1057634e487b7160e01b600052603260045260246000fd5b60200101906001600160f81b031916908160001a905350600f60fb1b81600181518110611c4d57634e487b7160e01b600052603260045260246000fd5b60200101906001600160f81b031916908160001a9053506000611c71846002612c97565b611c7c906001612c7f565b90505b6001811115611d10576f181899199a1a9b1b9c1cb0b131b232b360811b85600f1660108110611cbe57634e487b7160e01b600052603260045260246000fd5b1a60f81b828281518110611ce257634e487b7160e01b600052603260045260246000fd5b60200101906001600160f81b031916908160001a90535060049490941c93611d0981612cf9565b9050611c7f565b5083156111055760405162461bcd60e51b815260206004820181905260248201527f537472696e67733a20686578206c656e67746820696e73756666696369656e74604482015260640161063a565b611d69838361203f565b611d766000848484611e92565b6107705760405162461bcd60e51b815260040161063a90612b02565b60006111058383612181565b60006111058383612298565b600054610100900460ff1680611dc3575060005460ff16155b611ddf5760405162461bcd60e51b815260040161063a90612b83565b600054610100900460ff16158015611887576000805461ffff19166101011790558015610819576000805461ff001916905550565b600054610100900460ff1680611e2d575060005460ff16155b611e495760405162461bcd60e51b815260040161063a90612b83565b600054610100900460ff16158015611e6b576000805461ffff19166101011790555b8251611e7e906065906020860190612322565b508151610d55906066906020850190612322565b60006001600160a01b0384163b15611f9457604051630a85bd0160e11b81526001600160a01b0385169063150b7a0290611ed6903390899088908890600401612a0d565b602060405180830381600087803b158015611ef057600080fd5b505af1925050508015611f20575060408051601f3d908101601f19168201909252611f1d91810190612735565b60015b611f7a573d808015611f4e576040519150601f19603f3d011682016040523d82523d6000602084013e611f53565b606091505b508051611f725760405162461bcd60e51b815260040161063a90612b02565b805181602001fd5b6001600160e01b031916630a85bd0160e11b14905061159d565b506001949350505050565b60006111058284612d66565b815460009082106120095760405162461bcd60e51b815260206004820152602260248201527f456e756d657261626c655365743a20696e646578206f7574206f6620626f756e604482015261647360f01b606482015260840161063a565b82600001828154811061202c57634e487b7160e01b600052603260045260246000fd5b9060005260206000200154905092915050565b6001600160a01b0382166120955760405162461bcd60e51b815260206004820181905260248201527f4552433732313a206d696e7420746f20746865207a65726f2061646472657373604482015260640161063a565b6000818152606760205260409020546001600160a01b0316156120fa5760405162461bcd60e51b815260206004820152601c60248201527f4552433732313a20746f6b656e20616c7265616479206d696e74656400000000604482015260640161063a565b6001600160a01b0382166000908152606860205260408120805460019290612123908490612c7f565b909155505060008181526067602052604080822080546001600160a01b0319166001600160a01b03861690811790915590518392907fddf252ad1be2c89b69c2b068fc378daa952ba7f163c4a11628f55a4df523b3ef908290a45050565b6000818152600183016020526040812054801561228e5760006121a5600183612cb6565b85549091506000906121b990600190612cb6565b905060008660000182815481106121e057634e487b7160e01b600052603260045260246000fd5b906000526020600020015490508087600001848154811061221157634e487b7160e01b600052603260045260246000fd5b60009182526020808320909101929092558281526001890190915260409020849055865487908061225257634e487b7160e01b600052603160045260246000fd5b60019003818190600052602060002001600090559055866001016000878152602001908152602001600020600090556001945050505050610b14565b6000915050610b14565b60008181526001830160205260408120546122df57508154600181810184556000848152602080822090930184905584548482528286019093526040902091909155610b14565b506000610b14565b6040518060a00160405280600081526020016060815260200160006001600160a01b0316815260200160008152602001600060ff1681525090565b82805461232e90612d10565b90600052602060002090601f0160209004810192826123505760008555612396565b82601f1061236957805160ff1916838001178555612396565b82800160010185558215612396579182015b8281111561239657825182559160200191906001019061237b565b506123a29291506123ff565b5090565b8280548282559060005260206000209081019282156123f3579160200282015b828111156123f357825180516123e3918491602090910190612322565b50916020019190600101906123c6565b506123a2929150612414565b5b808211156123a25760008155600101612400565b808211156123a25760006124288282612431565b50600101612414565b50805461243d90612d10565b6000825580601f1061244f5750610819565b601f01602090049060005260206000209081019061081991906123ff565b600067ffffffffffffffff83111561248757612487612d9c565b61249a601f8401601f1916602001612c4e565b90508281528383830111156124ae57600080fd5b828260208301376000602084830101529392505050565b80356001600160a01b038116811461052e57600080fd5b600082601f8301126124ec578081fd5b6111058383356020850161246d565b803560ff8116811461052e57600080fd5b60006020828403121561251d578081fd5b611105826124c5565b60008060408385031215612538578081fd5b612541836124c5565b915061254f602084016124c5565b90509250929050565b60008060006060848603121561256c578081fd5b612575846124c5565b9250612583602085016124c5565b9150604084013590509250925092565b600080600080608085870312156125a8578081fd5b6125b1856124c5565b93506125bf602086016124c5565b925060408501359150606085013567ffffffffffffffff8111156125e1578182fd5b8501601f810187136125f1578182fd5b6126008782356020840161246d565b91505092959194509250565b6000806040838503121561261e578182fd5b612627836124c5565b91506020830135801515811461263b578182fd5b809150509250929050565b60008060408385031215612658578182fd5b612661836124c5565b946020939093013593505050565b60008060208385031215612681578182fd5b823567ffffffffffffffff80821115612698578384fd5b818501915085601f8301126126ab578384fd5b8135818111156126b9578485fd5b8660208260051b85010111156126cd578485fd5b60209290920196919550909350505050565b6000602082840312156126f0578081fd5b5035919050565b60008060408385031215612709578081fd5b8235915061254f602084016124c5565b60006020828403121561272a578081fd5b813561110581612db2565b600060208284031215612746578081fd5b815161110581612db2565b600060208284031215612762578081fd5b813567ffffffffffffffff811115612778578182fd5b61159d848285016124dc565b60006020808385031215612796578182fd5b823567ffffffffffffffff808211156127ad578384fd5b9084019060a082870312156127c0578384fd5b6127ca60a0612c4e565b8235815283830135828111156127de578586fd5b8301601f810188136127ee578586fd5b80358381111561280057612800612d9c565b61280e868260051b01612c4e565b8181528681019450828701885b83811015612844576128328c8a84358801016124dc565b8752958801959088019060010161281b565b505083870152506128599050604084016124c5565b604082015260608301356060820152612874608084016124fb565b60808201529695505050505050565b60008060408385031215612709578182fd5b600081518084526128ad816020860160208601612ccd565b601f01601f19169290920160200192915050565b600060a083018251845260208084015160a08287015282815180855260c08801915060c08160051b89010194508383019250855b818110156129235760bf19898703018352612911868551612895565b955092840192918401916001016128f5565b5050505050604083015161294260408601826001600160a01b03169052565b50606083015160608501526080830151612961608086018260ff169052565b509392505050565b6000835161297b818460208801612ccd565b83519083019061298f818360208801612ccd565b01949350505050565b60007f416363657373436f6e74726f6c3a206163636f756e7420000000000000000000825283516129d0816017850160208801612ccd565b7001034b99036b4b9b9b4b733903937b6329607d1b6017918401918201528351612a01816028840160208801612ccd565b01602801949350505050565b6001600160a01b0385811682528416602082015260408101839052608060608201819052600090612a4090830184612895565b9695505050505050565b6000602080830181845280855180835260408601915060408160051b8701019250838701855b82811015612a9e57603f19888603018452612a8c858351612895565b94509285019290850190600101612a70565b5092979650505050505050565b6020808252825182820181905260009190848201906040850190845b81811015612ae357835183529284019291840191600101612ac7565b50909695505050505050565b6000602082526111056020830184612895565b60208082526032908201527f4552433732313a207472616e7366657220746f206e6f6e20455243373231526560408201527131b2b4bb32b91034b6b83632b6b2b73a32b960711b606082015260800190565b6020808252601590820152742a32b63632b927232a1d103737ba1036b4b73a32b960591b604082015260600190565b6020808252602e908201527f496e697469616c697a61626c653a20636f6e747261637420697320616c72656160408201526d191e481a5b9a5d1a585b1a5e995960921b606082015260800190565b60208082526031908201527f4552433732313a207472616e736665722063616c6c6572206973206e6f74206f6040820152701ddb995c881b9bdc88185c1c1c9bdd9959607a1b606082015260800190565b60006020825261110560208301846128c1565b60008382526040602083015261159d60408301846128c1565b604051601f8201601f1916810167ffffffffffffffff81118282101715612c7757612c77612d9c565b604052919050565b60008219821115612c9257612c92612d86565b500190565b6000816000190483118215151615612cb157612cb1612d86565b500290565b600082821015612cc857612cc8612d86565b500390565b60005b83811015612ce8578181015183820152602001612cd0565b83811115610e705750506000910152565b600081612d0857612d08612d86565b506000190190565b600181811c90821680612d2457607f821691505b60208210811415612d4557634e487b7160e01b600052602260045260246000fd5b50919050565b6000600019821415612d5f57612d5f612d86565b5060010190565b600082612d8157634e487b7160e01b81526012600452602481fd5b500690565b634e487b7160e01b600052601160045260246000fd5b634e487b7160e01b600052604160045260246000fd5b6001600160e01b03198116811461081957600080fdfef0887ba65ee2024ea881d91b74c2450ef19e1557f03bed3ea9f16b037cbe2dc9516d5741665146467770747a5255436446326342464a686342326766484a4d64375451743634645a5579736b335268747470733a2f2f676174657761792e70696e6174612e636c6f75642f697066732fa2646970667358221220ef9c9af9051aa90556e51fc04194a5bb58557464075cc9e54594ff22da002ed364736f6c63430008030033",
  "devdoc": {
    "author": "develop@teller.finance",
    "kind": "dev",
    "methods": {
      "addTier((uint256,string[],address,uint256,uint8))": {
        "details": "It auto increments the index of the next tier to add.",
        "params": {
          "newTier": "Information about the new tier to add. Requirements:  - Caller must have the {MINTER} role"
        }
      },
      "approve(address,uint256)": {
        "details": "See {IERC721-approve}."
      },
      "balanceOf(address)": {
        "details": "See {IERC721-balanceOf}."
      },
      "getApproved(uint256)": {
        "details": "See {IERC721-getApproved}."
      },
      "getOwnedTokens(address)": {
        "details": "It uses a EnumerableSet to store values and loops over each element to add to the array.Can be costly if calling within a contract for address with many tokens."
      },
      "getRoleAdmin(bytes32)": {
        "details": "Returns the admin role that controls `role`. See {grantRole} and {revokeRole}. To change a role's admin, use {_setRoleAdmin}."
      },
      "getTier(uint256)": {
        "params": {
          "index": "Tier index to get info."
        }
      },
      "getTierHashes(uint256)": {
        "details": "It uses a EnumerableSet to store values and loops over each element to add to the array.Can be costly if calling within a contract for address with many tokens."
      },
      "getTokenTier(uint256)": {
        "params": {
          "tokenId": "ID of the token to get Tier info."
        }
      },
      "grantRole(bytes32,address)": {
        "details": "Grants `role` to `account`. If `account` had not been already granted `role`, emits a {RoleGranted} event. Requirements: - the caller must have ``role``'s admin role."
      },
      "hasRole(bytes32,address)": {
        "details": "Returns `true` if `account` has been granted `role`."
      },
      "initialize(address[])": {
        "params": {
          "minters": "The addresses that should allowed to mint tokens."
        }
      },
      "isApprovedForAll(address,address)": {
        "details": "See {IERC721-isApprovedForAll}."
      },
      "mint(uint256,address)": {
        "params": {
          "owner": "The owner of the new token. Requirements:  - Caller must be an authorized minter",
          "tierIndex": "Tier to mint token on."
        }
      },
      "name()": {
        "details": "See {IERC721Metadata-name}."
      },
      "ownerOf(uint256)": {
        "details": "See {IERC721-ownerOf}."
      },
      "renounceRole(bytes32,address)": {
        "details": "Revokes `role` from the calling account. Roles are often managed via {grantRole} and {revokeRole}: this function's purpose is to provide a mechanism for accounts to lose their privileges if they are compromised (such as when a trusted device is misplaced). If the calling account had been granted `role`, emits a {RoleRevoked} event. Requirements: - the caller must be `account`."
      },
      "revokeRole(bytes32,address)": {
        "details": "Revokes `role` from `account`. If `account` had been granted `role`, emits a {RoleRevoked} event. Requirements: - the caller must have ``role``'s admin role."
      },
      "safeTransferFrom(address,address,uint256)": {
        "details": "See {IERC721-safeTransferFrom}."
      },
      "safeTransferFrom(address,address,uint256,bytes)": {
        "details": "See {IERC721-safeTransferFrom}."
      },
      "setApprovalForAll(address,bool)": {
        "details": "See {IERC721-setApprovalForAll}."
      },
      "setContractURIHash(string)": {
        "params": {
          "contractURIHash": "The hash to the initial contract level metadata."
        }
      },
      "symbol()": {
        "details": "See {IERC721Metadata-symbol}."
      },
      "transferFrom(address,address,uint256)": {
        "details": "See {IERC721-transferFrom}."
      }
    },
    "version": 1
  },
  "userdoc": {
    "kind": "user",
    "methods": {
      "addTier((uint256,string[],address,uint256,uint8))": {
        "notice": "Adds a new Tier to be minted with the given information."
      },
      "contractURI()": {
        "notice": "The contract metadata URI."
      },
      "getOwnedTokens(address)": {
        "notice": "It returns an array of token IDs owned by an address."
      },
      "getTier(uint256)": {
        "notice": "It returns information about a Tier for a token ID."
      },
      "getTierHashes(uint256)": {
        "notice": "It returns an array of token IDs owned by an address."
      },
      "getTokenTier(uint256)": {
        "notice": "It returns information about a Tier for a token ID."
      },
      "initialize(address[])": {
        "notice": "Initializes the TellerNFT."
      },
      "mint(uint256,address)": {
        "notice": "It mints a new token for a Tier index."
      },
      "setContractURIHash(string)": {
        "notice": "Sets the contract level metadata URI hash."
      },
      "tokenURI(uint256)": {
        "notice": "The token URI is based on the token ID."
      }
    },
    "notice": "This contract is used by borrowers to call Dapp functions (using delegate calls).This contract should only be constructed using it's upgradeable Proxy contract.In order to call a Dapp function, the Dapp must be added in the DappRegistry instance.",
    "version": 1
  },
  "storageLayout": {
    "storage": [
      {
        "astId": 635,
        "contract": "contracts/nft/TellerNFT.sol:TellerNFT",
        "label": "_initialized",
        "offset": 0,
        "slot": "0",
        "type": "t_bool"
      },
      {
        "astId": 638,
        "contract": "contracts/nft/TellerNFT.sol:TellerNFT",
        "label": "_initializing",
        "offset": 1,
        "slot": "0",
        "type": "t_bool"
      },
      {
        "astId": 2833,
        "contract": "contracts/nft/TellerNFT.sol:TellerNFT",
        "label": "__gap",
        "offset": 0,
        "slot": "1",
        "type": "t_array(t_uint256)50_storage"
      },
      {
        "astId": 3082,
        "contract": "contracts/nft/TellerNFT.sol:TellerNFT",
        "label": "__gap",
        "offset": 0,
        "slot": "51",
        "type": "t_array(t_uint256)50_storage"
      },
      {
        "astId": 1565,
        "contract": "contracts/nft/TellerNFT.sol:TellerNFT",
        "label": "_name",
        "offset": 0,
        "slot": "101",
        "type": "t_string_storage"
      },
      {
        "astId": 1567,
        "contract": "contracts/nft/TellerNFT.sol:TellerNFT",
        "label": "_symbol",
        "offset": 0,
        "slot": "102",
        "type": "t_string_storage"
      },
      {
        "astId": 1571,
        "contract": "contracts/nft/TellerNFT.sol:TellerNFT",
        "label": "_owners",
        "offset": 0,
        "slot": "103",
        "type": "t_mapping(t_uint256,t_address)"
      },
      {
        "astId": 1575,
        "contract": "contracts/nft/TellerNFT.sol:TellerNFT",
        "label": "_balances",
        "offset": 0,
        "slot": "104",
        "type": "t_mapping(t_address,t_uint256)"
      },
      {
        "astId": 1579,
        "contract": "contracts/nft/TellerNFT.sol:TellerNFT",
        "label": "_tokenApprovals",
        "offset": 0,
        "slot": "105",
        "type": "t_mapping(t_uint256,t_address)"
      },
      {
        "astId": 1585,
        "contract": "contracts/nft/TellerNFT.sol:TellerNFT",
        "label": "_operatorApprovals",
        "offset": 0,
        "slot": "106",
        "type": "t_mapping(t_address,t_mapping(t_address,t_bool))"
      },
      {
        "astId": 2383,
        "contract": "contracts/nft/TellerNFT.sol:TellerNFT",
        "label": "__gap",
        "offset": 0,
        "slot": "107",
        "type": "t_array(t_uint256)44_storage"
      },
      {
        "astId": 189,
        "contract": "contracts/nft/TellerNFT.sol:TellerNFT",
        "label": "_roles",
        "offset": 0,
        "slot": "151",
        "type": "t_mapping(t_bytes32,t_struct(RoleData)184_storage)"
      },
      {
        "astId": 497,
        "contract": "contracts/nft/TellerNFT.sol:TellerNFT",
        "label": "__gap",
        "offset": 0,
        "slot": "152",
        "type": "t_array(t_uint256)49_storage"
      },
      {
        "astId": 16911,
        "contract": "contracts/nft/TellerNFT.sol:TellerNFT",
        "label": "_tierCounter",
        "offset": 0,
        "slot": "201",
        "type": "t_struct(Counter)5088_storage"
      },
      {
        "astId": 16914,
        "contract": "contracts/nft/TellerNFT.sol:TellerNFT",
        "label": "_tokenCounter",
        "offset": 0,
        "slot": "202",
        "type": "t_struct(Counter)5088_storage"
      },
      {
        "astId": 16919,
        "contract": "contracts/nft/TellerNFT.sol:TellerNFT",
        "label": "_tiers",
        "offset": 0,
        "slot": "203",
        "type": "t_mapping(t_uint256,t_struct(Tier)16649_storage)"
      },
      {
        "astId": 16923,
        "contract": "contracts/nft/TellerNFT.sol:TellerNFT",
        "label": "_tokenTier",
        "offset": 0,
        "slot": "204",
        "type": "t_mapping(t_uint256,t_uint256)"
      },
      {
        "astId": 16928,
        "contract": "contracts/nft/TellerNFT.sol:TellerNFT",
        "label": "_ownerTokenIDs",
        "offset": 0,
        "slot": "205",
        "type": "t_mapping(t_address,t_struct(UintSet)6696_storage)"
      },
      {
        "astId": 16930,
        "contract": "contracts/nft/TellerNFT.sol:TellerNFT",
        "label": "_metadataBaseURI",
        "offset": 0,
        "slot": "206",
        "type": "t_string_storage"
      },
      {
        "astId": 16932,
        "contract": "contracts/nft/TellerNFT.sol:TellerNFT",
        "label": "_contractURIHash",
        "offset": 0,
        "slot": "207",
        "type": "t_string_storage"
      }
    ],
    "types": {
      "t_address": {
        "encoding": "inplace",
        "label": "address",
        "numberOfBytes": "20"
      },
      "t_array(t_bytes32)dyn_storage": {
        "base": "t_bytes32",
        "encoding": "dynamic_array",
        "label": "bytes32[]",
        "numberOfBytes": "32"
      },
      "t_array(t_string_storage)dyn_storage": {
        "base": "t_string_storage",
        "encoding": "dynamic_array",
        "label": "string[]",
        "numberOfBytes": "32"
      },
      "t_array(t_uint256)44_storage": {
        "base": "t_uint256",
        "encoding": "inplace",
        "label": "uint256[44]",
        "numberOfBytes": "1408"
      },
      "t_array(t_uint256)49_storage": {
        "base": "t_uint256",
        "encoding": "inplace",
        "label": "uint256[49]",
        "numberOfBytes": "1568"
      },
      "t_array(t_uint256)50_storage": {
        "base": "t_uint256",
        "encoding": "inplace",
        "label": "uint256[50]",
        "numberOfBytes": "1600"
      },
      "t_bool": {
        "encoding": "inplace",
        "label": "bool",
        "numberOfBytes": "1"
      },
      "t_bytes32": {
        "encoding": "inplace",
        "label": "bytes32",
        "numberOfBytes": "32"
      },
      "t_mapping(t_address,t_bool)": {
        "encoding": "mapping",
        "key": "t_address",
        "label": "mapping(address => bool)",
        "numberOfBytes": "32",
        "value": "t_bool"
      },
      "t_mapping(t_address,t_mapping(t_address,t_bool))": {
        "encoding": "mapping",
        "key": "t_address",
        "label": "mapping(address => mapping(address => bool))",
        "numberOfBytes": "32",
        "value": "t_mapping(t_address,t_bool)"
      },
      "t_mapping(t_address,t_struct(UintSet)6696_storage)": {
        "encoding": "mapping",
        "key": "t_address",
        "label": "mapping(address => struct EnumerableSet.UintSet)",
        "numberOfBytes": "32",
        "value": "t_struct(UintSet)6696_storage"
      },
      "t_mapping(t_address,t_uint256)": {
        "encoding": "mapping",
        "key": "t_address",
        "label": "mapping(address => uint256)",
        "numberOfBytes": "32",
        "value": "t_uint256"
      },
      "t_mapping(t_bytes32,t_struct(RoleData)184_storage)": {
        "encoding": "mapping",
        "key": "t_bytes32",
        "label": "mapping(bytes32 => struct AccessControlUpgradeable.RoleData)",
        "numberOfBytes": "32",
        "value": "t_struct(RoleData)184_storage"
      },
      "t_mapping(t_bytes32,t_uint256)": {
        "encoding": "mapping",
        "key": "t_bytes32",
        "label": "mapping(bytes32 => uint256)",
        "numberOfBytes": "32",
        "value": "t_uint256"
      },
      "t_mapping(t_uint256,t_address)": {
        "encoding": "mapping",
        "key": "t_uint256",
        "label": "mapping(uint256 => address)",
        "numberOfBytes": "32",
        "value": "t_address"
      },
      "t_mapping(t_uint256,t_struct(Tier)16649_storage)": {
        "encoding": "mapping",
        "key": "t_uint256",
        "label": "mapping(uint256 => struct ITellerNFT.Tier)",
        "numberOfBytes": "32",
        "value": "t_struct(Tier)16649_storage"
      },
      "t_mapping(t_uint256,t_uint256)": {
        "encoding": "mapping",
        "key": "t_uint256",
        "label": "mapping(uint256 => uint256)",
        "numberOfBytes": "32",
        "value": "t_uint256"
      },
      "t_string_storage": {
        "encoding": "bytes",
        "label": "string",
        "numberOfBytes": "32"
      },
      "t_struct(Counter)5088_storage": {
        "encoding": "inplace",
        "label": "struct Counters.Counter",
        "members": [
          {
            "astId": 5087,
            "contract": "contracts/nft/TellerNFT.sol:TellerNFT",
            "label": "_value",
            "offset": 0,
            "slot": "0",
            "type": "t_uint256"
          }
        ],
        "numberOfBytes": "32"
      },
      "t_struct(RoleData)184_storage": {
        "encoding": "inplace",
        "label": "struct AccessControlUpgradeable.RoleData",
        "members": [
          {
            "astId": 181,
            "contract": "contracts/nft/TellerNFT.sol:TellerNFT",
            "label": "members",
            "offset": 0,
            "slot": "0",
            "type": "t_mapping(t_address,t_bool)"
          },
          {
            "astId": 183,
            "contract": "contracts/nft/TellerNFT.sol:TellerNFT",
            "label": "adminRole",
            "offset": 0,
            "slot": "1",
            "type": "t_bytes32"
          }
        ],
        "numberOfBytes": "64"
      },
      "t_struct(Set)6294_storage": {
        "encoding": "inplace",
        "label": "struct EnumerableSet.Set",
        "members": [
          {
            "astId": 6289,
            "contract": "contracts/nft/TellerNFT.sol:TellerNFT",
            "label": "_values",
            "offset": 0,
            "slot": "0",
            "type": "t_array(t_bytes32)dyn_storage"
          },
          {
            "astId": 6293,
            "contract": "contracts/nft/TellerNFT.sol:TellerNFT",
            "label": "_indexes",
            "offset": 0,
            "slot": "1",
            "type": "t_mapping(t_bytes32,t_uint256)"
          }
        ],
        "numberOfBytes": "64"
      },
      "t_struct(Tier)16649_storage": {
        "encoding": "inplace",
        "label": "struct ITellerNFT.Tier",
        "members": [
          {
            "astId": 16639,
            "contract": "contracts/nft/TellerNFT.sol:TellerNFT",
            "label": "baseLoanSize",
            "offset": 0,
            "slot": "0",
            "type": "t_uint256"
          },
          {
            "astId": 16642,
            "contract": "contracts/nft/TellerNFT.sol:TellerNFT",
            "label": "hashes",
            "offset": 0,
            "slot": "1",
            "type": "t_array(t_string_storage)dyn_storage"
          },
          {
            "astId": 16644,
            "contract": "contracts/nft/TellerNFT.sol:TellerNFT",
            "label": "contributionAsset",
            "offset": 0,
            "slot": "2",
            "type": "t_address"
          },
          {
            "astId": 16646,
            "contract": "contracts/nft/TellerNFT.sol:TellerNFT",
            "label": "contributionSize",
            "offset": 0,
            "slot": "3",
            "type": "t_uint256"
          },
          {
            "astId": 16648,
            "contract": "contracts/nft/TellerNFT.sol:TellerNFT",
            "label": "contributionMultiplier",
            "offset": 0,
            "slot": "4",
            "type": "t_uint8"
          }
        ],
        "numberOfBytes": "160"
      },
      "t_struct(UintSet)6696_storage": {
        "encoding": "inplace",
        "label": "struct EnumerableSet.UintSet",
        "members": [
          {
            "astId": 6695,
            "contract": "contracts/nft/TellerNFT.sol:TellerNFT",
            "label": "_inner",
            "offset": 0,
            "slot": "0",
            "type": "t_struct(Set)6294_storage"
          }
        ],
        "numberOfBytes": "64"
      },
      "t_uint256": {
        "encoding": "inplace",
        "label": "uint256",
        "numberOfBytes": "32"
      },
      "t_uint8": {
        "encoding": "inplace",
        "label": "uint8",
        "numberOfBytes": "1"
      }
    }
  }
}