{
  "address": "0x2A16A01bB5a3e0D9696D3bBA883C2683f390a1A3",
  "abi": [
    {
      "anonymous": false,
      "inputs": [
        {
          "indexed": true,
          "internalType": "address",
          "name": "account",
          "type": "address"
        },
        {
          "indexed": true,
          "internalType": "address",
          "name": "operator",
          "type": "address"
        },
        {
          "indexed": false,
          "internalType": "bool",
          "name": "approved",
          "type": "bool"
        }
      ],
      "name": "ApprovalForAll",
      "type": "event"
    },
    {
      "anonymous": false,
      "inputs": [
        {
          "indexed": true,
          "internalType": "bytes32",
          "name": "role",
          "type": "bytes32"
        },
        {
          "indexed": true,
          "internalType": "bytes32",
          "name": "previousAdminRole",
          "type": "bytes32"
        },
        {
          "indexed": true,
          "internalType": "bytes32",
          "name": "newAdminRole",
          "type": "bytes32"
        }
      ],
      "name": "RoleAdminChanged",
      "type": "event"
    },
    {
      "anonymous": false,
      "inputs": [
        {
          "indexed": true,
          "internalType": "bytes32",
          "name": "role",
          "type": "bytes32"
        },
        {
          "indexed": true,
          "internalType": "address",
          "name": "account",
          "type": "address"
        },
        {
          "indexed": true,
          "internalType": "address",
          "name": "sender",
          "type": "address"
        }
      ],
      "name": "RoleGranted",
      "type": "event"
    },
    {
      "anonymous": false,
      "inputs": [
        {
          "indexed": true,
          "internalType": "bytes32",
          "name": "role",
          "type": "bytes32"
        },
        {
          "indexed": true,
          "internalType": "address",
          "name": "account",
          "type": "address"
        },
        {
          "indexed": true,
          "internalType": "address",
          "name": "sender",
          "type": "address"
        }
      ],
      "name": "RoleRevoked",
      "type": "event"
    },
    {
      "anonymous": false,
      "inputs": [
        {
          "indexed": true,
          "internalType": "address",
          "name": "operator",
          "type": "address"
        },
        {
          "indexed": true,
          "internalType": "address",
          "name": "from",
          "type": "address"
        },
        {
          "indexed": true,
          "internalType": "address",
          "name": "to",
          "type": "address"
        },
        {
          "indexed": false,
          "internalType": "uint256[]",
          "name": "ids",
          "type": "uint256[]"
        },
        {
          "indexed": false,
          "internalType": "uint256[]",
          "name": "values",
          "type": "uint256[]"
        }
      ],
      "name": "TransferBatch",
      "type": "event"
    },
    {
      "anonymous": false,
      "inputs": [
        {
          "indexed": true,
          "internalType": "address",
          "name": "operator",
          "type": "address"
        },
        {
          "indexed": true,
          "internalType": "address",
          "name": "from",
          "type": "address"
        },
        {
          "indexed": true,
          "internalType": "address",
          "name": "to",
          "type": "address"
        },
        {
          "indexed": false,
          "internalType": "uint256",
          "name": "id",
          "type": "uint256"
        },
        {
          "indexed": false,
          "internalType": "uint256",
          "name": "value",
          "type": "uint256"
        }
      ],
      "name": "TransferSingle",
      "type": "event"
    },
    {
      "anonymous": false,
      "inputs": [
        {
          "indexed": false,
          "internalType": "string",
          "name": "value",
          "type": "string"
        },
        {
          "indexed": true,
          "internalType": "uint256",
          "name": "id",
          "type": "uint256"
        }
      ],
      "name": "URI",
      "type": "event"
    },
    {
      "inputs": [],
      "name": "ADMIN",
      "outputs": [
        {
          "internalType": "bytes32",
          "name": "",
          "type": "bytes32"
        }
      ],
      "stateMutability": "view",
      "type": "function"
    },
    {
      "inputs": [],
      "name": "DEFAULT_ADMIN_ROLE",
      "outputs": [
        {
          "internalType": "bytes32",
          "name": "",
          "type": "bytes32"
        }
      ],
      "stateMutability": "view",
      "type": "function"
    },
    {
      "inputs": [],
      "name": "DICT",
      "outputs": [
        {
          "internalType": "contract TellerNFTDictionary",
          "name": "",
          "type": "address"
        }
      ],
      "stateMutability": "view",
      "type": "function"
    },
    {
      "inputs": [],
      "name": "MINTER",
      "outputs": [
        {
          "internalType": "bytes32",
          "name": "",
          "type": "bytes32"
        }
      ],
      "stateMutability": "view",
      "type": "function"
    },
    {
      "inputs": [],
      "name": "V1",
      "outputs": [
        {
          "internalType": "address",
          "name": "",
          "type": "address"
        }
      ],
      "stateMutability": "view",
      "type": "function"
    },
    {
      "inputs": [
        {
          "internalType": "address",
          "name": "account",
          "type": "address"
        },
        {
          "internalType": "uint256",
          "name": "id",
          "type": "uint256"
        }
      ],
      "name": "balanceOf",
      "outputs": [
        {
          "internalType": "uint256",
          "name": "",
          "type": "uint256"
        }
      ],
      "stateMutability": "view",
      "type": "function"
    },
    {
      "inputs": [
        {
          "internalType": "address[]",
          "name": "accounts",
          "type": "address[]"
        },
        {
          "internalType": "uint256[]",
          "name": "ids",
          "type": "uint256[]"
        }
      ],
      "name": "balanceOfBatch",
      "outputs": [
        {
          "internalType": "uint256[]",
          "name": "",
          "type": "uint256[]"
        }
      ],
      "stateMutability": "view",
      "type": "function"
    },
    {
      "inputs": [],
      "name": "contractURI",
      "outputs": [
        {
          "internalType": "string",
          "name": "",
          "type": "string"
        }
      ],
      "stateMutability": "view",
      "type": "function"
    },
    {
      "inputs": [
        {
          "internalType": "uint256",
          "name": "_tokenId",
          "type": "uint256"
        }
      ],
      "name": "convertV1TokenId",
      "outputs": [
        {
          "internalType": "uint256",
          "name": "tokenId_",
          "type": "uint256"
        }
      ],
      "stateMutability": "view",
      "type": "function"
    },
    {
      "inputs": [
        {
          "components": [
            {
              "internalType": "uint256",
              "name": "baseLoanSize",
              "type": "uint256"
            },
            {
              "internalType": "address",
              "name": "contributionAsset",
              "type": "address"
            },
            {
              "internalType": "uint256",
              "name": "contributionSize",
              "type": "uint256"
            },
            {
              "internalType": "uint16",
              "name": "contributionMultiplier",
              "type": "uint16"
            }
          ],
          "internalType": "struct TellerNFT_V2.Tier[]",
          "name": "newTiers",
          "type": "tuple[]"
        },
        {
          "internalType": "string[][]",
          "name": "tierHashes",
          "type": "string[][]"
        }
      ],
      "name": "createTiers",
      "outputs": [],
      "stateMutability": "nonpayable",
      "type": "function"
    },
    {
      "inputs": [],
      "name": "diamond",
      "outputs": [
        {
          "internalType": "address",
          "name": "",
          "type": "address"
        }
      ],
      "stateMutability": "view",
      "type": "function"
    },
    {
      "inputs": [
        {
          "internalType": "address",
          "name": "owner",
          "type": "address"
        }
      ],
      "name": "getOwnedTokens",
      "outputs": [
        {
          "internalType": "uint256[]",
          "name": "owned_",
          "type": "uint256[]"
        }
      ],
      "stateMutability": "view",
      "type": "function"
    },
    {
      "inputs": [
        {
          "internalType": "bytes32",
          "name": "role",
          "type": "bytes32"
        }
      ],
      "name": "getRoleAdmin",
      "outputs": [
        {
          "internalType": "bytes32",
          "name": "",
          "type": "bytes32"
        }
      ],
      "stateMutability": "view",
      "type": "function"
    },
    {
      "inputs": [
        {
          "internalType": "uint256",
          "name": "tokenId",
          "type": "uint256"
        }
      ],
      "name": "getTokenTierId",
      "outputs": [
        {
          "internalType": "uint128",
          "name": "tierId_",
          "type": "uint128"
        },
        {
          "internalType": "uint128",
          "name": "tierTokenId_",
          "type": "uint128"
        }
      ],
      "stateMutability": "view",
      "type": "function"
    },
    {
      "inputs": [
        {
          "internalType": "bytes32",
          "name": "role",
          "type": "bytes32"
        },
        {
          "internalType": "address",
          "name": "account",
          "type": "address"
        }
      ],
      "name": "grantRole",
      "outputs": [],
      "stateMutability": "nonpayable",
      "type": "function"
    },
    {
      "inputs": [
        {
          "internalType": "bytes32",
          "name": "role",
          "type": "bytes32"
        },
        {
          "internalType": "address",
          "name": "account",
          "type": "address"
        }
      ],
      "name": "hasRole",
      "outputs": [
        {
          "internalType": "bool",
          "name": "",
          "type": "bool"
        }
      ],
      "stateMutability": "view",
      "type": "function"
    },
    {
      "inputs": [
        {
          "internalType": "bytes",
          "name": "data",
          "type": "bytes"
        }
      ],
      "name": "initialize",
      "outputs": [],
      "stateMutability": "nonpayable",
      "type": "function"
    },
    {
      "inputs": [
        {
          "internalType": "address",
          "name": "account",
          "type": "address"
        },
        {
          "internalType": "address",
          "name": "operator",
          "type": "address"
        }
      ],
      "name": "isApprovedForAll",
      "outputs": [
        {
          "internalType": "bool",
          "name": "",
          "type": "bool"
        }
      ],
      "stateMutability": "view",
      "type": "function"
    },
    {
      "inputs": [
        {
          "internalType": "address",
          "name": "owner",
          "type": "address"
        },
        {
          "internalType": "uint128",
          "name": "tierIndex",
          "type": "uint128"
        },
        {
          "internalType": "uint128",
          "name": "amount",
          "type": "uint128"
        }
      ],
      "name": "mint",
      "outputs": [],
      "stateMutability": "nonpayable",
      "type": "function"
    },
    {
      "inputs": [],
      "name": "name",
      "outputs": [
        {
          "internalType": "string",
          "name": "",
          "type": "string"
        }
      ],
      "stateMutability": "view",
      "type": "function"
    },
    {
      "inputs": [
        {
          "internalType": "address",
          "name": "operator",
          "type": "address"
        },
        {
          "internalType": "address",
          "name": "from",
          "type": "address"
        },
        {
          "internalType": "uint256",
          "name": "tokenId",
          "type": "uint256"
        },
        {
          "internalType": "bytes",
          "name": "data",
          "type": "bytes"
        }
      ],
      "name": "onERC721Received",
      "outputs": [
        {
          "internalType": "bytes4",
          "name": "",
          "type": "bytes4"
        }
      ],
      "stateMutability": "nonpayable",
      "type": "function"
    },
    {
      "inputs": [
        {
          "internalType": "bytes32",
          "name": "role",
          "type": "bytes32"
        },
        {
          "internalType": "address",
          "name": "account",
          "type": "address"
        }
      ],
      "name": "renounceRole",
      "outputs": [],
      "stateMutability": "nonpayable",
      "type": "function"
    },
    {
      "inputs": [
        {
          "internalType": "bytes32",
          "name": "role",
          "type": "bytes32"
        },
        {
          "internalType": "address",
          "name": "account",
          "type": "address"
        }
      ],
      "name": "revokeRole",
      "outputs": [],
      "stateMutability": "nonpayable",
      "type": "function"
    },
    {
      "inputs": [
        {
          "internalType": "address",
          "name": "from",
          "type": "address"
        },
        {
          "internalType": "address",
          "name": "to",
          "type": "address"
        },
        {
          "internalType": "uint256[]",
          "name": "ids",
          "type": "uint256[]"
        },
        {
          "internalType": "uint256[]",
          "name": "amounts",
          "type": "uint256[]"
        },
        {
          "internalType": "bytes",
          "name": "data",
          "type": "bytes"
        }
      ],
      "name": "safeBatchTransferFrom",
      "outputs": [],
      "stateMutability": "nonpayable",
      "type": "function"
    },
    {
      "inputs": [
        {
          "internalType": "address",
          "name": "from",
          "type": "address"
        },
        {
          "internalType": "address",
          "name": "to",
          "type": "address"
        },
        {
          "internalType": "uint256",
          "name": "id",
          "type": "uint256"
        },
        {
          "internalType": "uint256",
          "name": "amount",
          "type": "uint256"
        },
        {
          "internalType": "bytes",
          "name": "data",
          "type": "bytes"
        }
      ],
      "name": "safeTransferFrom",
      "outputs": [],
      "stateMutability": "nonpayable",
      "type": "function"
    },
    {
      "inputs": [
        {
          "internalType": "address",
          "name": "operator",
          "type": "address"
        },
        {
          "internalType": "bool",
          "name": "approved",
          "type": "bool"
        }
      ],
      "name": "setApprovalForAll",
      "outputs": [],
      "stateMutability": "nonpayable",
      "type": "function"
    },
    {
      "inputs": [
        {
          "internalType": "string",
          "name": "contractURIHash",
          "type": "string"
        }
      ],
      "name": "setContractURIHash",
      "outputs": [],
      "stateMutability": "nonpayable",
      "type": "function"
    },
    {
      "inputs": [
        {
          "internalType": "string",
          "name": "newURI",
          "type": "string"
        }
      ],
      "name": "setURI",
      "outputs": [],
      "stateMutability": "nonpayable",
      "type": "function"
    },
    {
      "inputs": [
        {
          "internalType": "bytes4",
          "name": "interfaceId",
          "type": "bytes4"
        }
      ],
      "name": "supportsInterface",
      "outputs": [
        {
          "internalType": "bool",
          "name": "",
          "type": "bool"
        }
      ],
      "stateMutability": "view",
      "type": "function"
    },
    {
      "inputs": [],
      "name": "symbol",
      "outputs": [
        {
          "internalType": "string",
          "name": "",
          "type": "string"
        }
      ],
      "stateMutability": "view",
      "type": "function"
    },
    {
      "inputs": [],
      "name": "tierCount",
      "outputs": [
        {
          "internalType": "uint128",
          "name": "",
          "type": "uint128"
        }
      ],
      "stateMutability": "view",
      "type": "function"
    },
    {
      "inputs": [
        {
          "internalType": "uint128",
          "name": "",
          "type": "uint128"
        }
      ],
      "name": "tierTokenCount",
      "outputs": [
        {
          "internalType": "uint256",
          "name": "",
          "type": "uint256"
        }
      ],
      "stateMutability": "view",
      "type": "function"
    },
    {
      "inputs": [
        {
          "internalType": "uint256",
          "name": "",
          "type": "uint256"
        }
      ],
      "name": "tiers",
      "outputs": [
        {
          "internalType": "uint256",
          "name": "baseLoanSize",
          "type": "uint256"
        },
        {
          "internalType": "address",
          "name": "contributionAsset",
          "type": "address"
        },
        {
          "internalType": "uint256",
          "name": "contributionSize",
          "type": "uint256"
        },
        {
          "internalType": "uint16",
          "name": "contributionMultiplier",
          "type": "uint16"
        }
      ],
      "stateMutability": "view",
      "type": "function"
    },
    {
      "inputs": [
        {
          "internalType": "uint256",
          "name": "tokenId",
          "type": "uint256"
        }
      ],
      "name": "tokenBaseLoanSize",
      "outputs": [
        {
          "internalType": "uint256",
          "name": "",
          "type": "uint256"
        }
      ],
      "stateMutability": "view",
      "type": "function"
    },
    {
      "inputs": [
        {
          "internalType": "uint256",
          "name": "tokenId",
          "type": "uint256"
        }
      ],
      "name": "tokenContributionAsset",
      "outputs": [
        {
          "internalType": "address",
          "name": "",
          "type": "address"
        }
      ],
      "stateMutability": "view",
      "type": "function"
    },
    {
      "inputs": [
        {
          "internalType": "uint256",
          "name": "tokenId",
          "type": "uint256"
        }
      ],
      "name": "tokenContributionMultiplier",
      "outputs": [
        {
          "internalType": "uint16",
          "name": "",
          "type": "uint16"
        }
      ],
      "stateMutability": "view",
      "type": "function"
    },
    {
      "inputs": [
        {
          "internalType": "uint256",
          "name": "tokenId",
          "type": "uint256"
        }
      ],
      "name": "tokenContributionSize",
      "outputs": [
        {
          "internalType": "uint256",
          "name": "",
          "type": "uint256"
        }
      ],
      "stateMutability": "view",
      "type": "function"
    },
    {
      "inputs": [],
      "name": "totalSupply",
      "outputs": [
        {
          "internalType": "uint256",
          "name": "",
          "type": "uint256"
        }
      ],
      "stateMutability": "view",
      "type": "function"
    },
    {
      "inputs": [
        {
          "internalType": "uint256",
          "name": "tokenId",
          "type": "uint256"
        }
      ],
      "name": "uri",
      "outputs": [
        {
          "internalType": "string",
          "name": "",
          "type": "string"
        }
      ],
      "stateMutability": "view",
      "type": "function"
    }
  ],
  "artifactName": "MainnetTellerNFT",
  "transactionHash": "0x3be92b2186fb015dfebe3569d3a3e7a190d65d49065555512b4b2ccd8cf58388",
  "args": [],
  "solcInputHash": "2f48200b1837e05d9756a8e8b45c14c8",
  "bytecode": "0x608060405234801561001057600080fd5b506135d6806100206000396000f3fe608060405234801561001057600080fd5b506004361061023b5760003560e01c806362a572331161013b578063c6ab0dc7116100b8578063e985e9c51161007c578063e985e9c514610612578063f0b7db4e1461064e578063f242432a14610669578063f40898ef1461067c578063fe6d81241461068f57600080fd5b8063c6ab0dc7146105b1578063ccca55f6146105d1578063d547741f146105e4578063d9d61655146105f7578063e8a3d4851461060a57600080fd5b806396b55f7d116100ff57806396b55f7d146105455780639762287014610570578063a217fddf14610583578063a22cb4651461058b578063baedc1c41461059e57600080fd5b806362a57233146104a357806363905160146104c95780636ca6b9a7146104dc57806391d148541461050f57806395d89b411461052257600080fd5b8063248a9ca3116101c957806336568abe1161018d57806336568abe1461040f5780633ee569bf146104225780633f5976d514610455578063439fab91146104705780634e1273f41461048357600080fd5b8063248a9ca31461039e57806324db57f8146103c15780632a0acc6a146103d45780632eb2c2d6146103e95780632f2ff15d146103fc57600080fd5b8063039af9eb11610210578063039af9eb146102b157806306fdde03146103205780630e89341c14610356578063150b7a021461036957806318160ddd1461039557600080fd5b806284c79514610240578062fdd58e1461026657806301ffc9a71461027957806302fe53051461029c575b600080fd5b61025361024e366004612c5b565b6106a4565b6040519081526020015b60405180910390f35b610253610274366004612ada565b6106d3565b61028c610287366004612c95565b61076f565b604051901515815260200161025d565b6102af6102aa366004612d0c565b61077a565b005b6102f46102bf366004612c5b565b60ca60205260009081526040902080546001820154600283015460039093015491926001600160a01b039091169161ffff1684565b604080519485526001600160a01b0390931660208501529183015261ffff16606082015260800161025d565b6103496040518060400160405280600a81526020016915195b1b195c8813919560b21b81525081565b60405161025d91906130a4565b610349610364366004612c5b565b6107a0565b61037c610377366004612990565b6107e1565b6040516001600160e01b0319909116815260200161025d565b61025360c95481565b6102536103ac366004612c5b565b60009081526097602052604090206001015490565b6102536103cf366004612c5b565b610875565b61025360008051602061358183398151915281565b6102af6103f73660046128eb565b6108a1565b6102af61040a366004612c73565b610938565b6102af61041d366004612c73565b610963565b61043d732ceb85a2402c94305526ab108e7597a102d6c17581565b6040516001600160a01b03909116815260200161025d565b61043d7372733102ab139fb0367cc29d492c955a7c73607981565b6102af61047e366004612ccd565b6109dd565b610496610491366004612b3d565b610ace565b60405161025d9190613063565b6104b66104b1366004612c5b565b610c2f565b60405161ffff909116815260200161025d565b6102536104d7366004612c5b565b610c62565b6104ef6104ea366004612c5b565b610d67565b604080516001600160801b0393841681529290911660208301520161025d565b61028c61051d366004612c73565b610d7d565b610349604051806040016040528060048152602001631513919560e21b81525081565b60cb54610558906001600160801b031681565b6040516001600160801b03909116815260200161025d565b6102af61057e366004612a98565b610da8565b610253600081565b6102af610599366004612a5e565b610e15565b6102af6105ac366004612d0c565b610eec565b6102536105bf366004612dce565b60cc6020526000908152604090205481565b6102af6105df366004612b9d565b610f18565b6102af6105f2366004612c73565b611005565b61049661060536600461289f565b61102b565b6103496110fa565b61028c6106203660046128b9565b6001600160a01b03918216600090815260666020908152604080832093909416825291909152205460ff1690565b61043d73c14d994fe7c5858c93936cc3bd42bb9467d6fb2c81565b6102af6106773660046129fc565b61112d565b61043d61068a366004612c5b565b6111b4565b61025360008051602061351183398151915281565b6000806106b0836111ec565b506001600160801b0316600090815260ca60205260409020600201549392505050565b60006001600160a01b0383166107445760405162461bcd60e51b815260206004820152602b60248201527f455243313135353a2062616c616e636520717565727920666f7220746865207a60448201526a65726f206164647265737360a81b60648201526084015b60405180910390fd5b5060008181526065602090815260408083206001600160a01b03861684529091529020545b92915050565b60006107698261121b565b6000805160206135818339815191526107938133611240565b61079c826112a4565b5050565b60606107ab826112b7565b600083815260ce602090815260409182902091516107cb93929101612e9c565b6040516020818303038152906040529050919050565b600033732ceb85a2402c94305526ab108e7597a102d6c17514156108635760006001600160a01b03861673c14d994fe7c5858c93936cc3bd42bb9467d6fb2c14156108395761083283850185612c5b565b9050610845565b61084285610c62565b90505b610861868260016040518060200160405280600081525061134b565b505b50630a85bd0160e11b95945050505050565b600080610881836111ec565b506001600160801b0316600090815260ca60205260409020549392505050565b6001600160a01b0385163314806108bd57506108bd8533610620565b6109245760405162461bcd60e51b815260206004820152603260248201527f455243313135353a207472616e736665722063616c6c6572206973206e6f74206044820152711bdddb995c881b9bdc88185c1c1c9bdd995960721b606482015260840161073b565b610931858585858561137e565b5050505050565b6000828152609760205260409020600101546109548133611240565b61095e838361140b565b505050565b6001600160a01b03811633146109d35760405162461bcd60e51b815260206004820152602f60248201527f416363657373436f6e74726f6c3a2063616e206f6e6c792072656e6f756e636560448201526e103937b632b9903337b91039b2b63360891b606482015260840161073b565b61079c8282611491565b600054610100900460ff16806109f6575060005460ff16155b610a125760405162461bcd60e51b815260040161073b90613144565b600054610100900460ff16158015610a34576000805461ffff19166101011790555b610a5560405180606001604052806022815260200161355f602291396114f8565b610a5d61157d565b610a7560008051602061358183398151915280611601565b610a8d60008051602061358183398151915233611655565b610aae6040518060600160405280602e8152602001613531602e9139610eec565b610ab8838361165f565b801561095e576000805461ff0019169055505050565b60608151835114610b335760405162461bcd60e51b815260206004820152602960248201527f455243313135353a206163636f756e747320616e6420696473206c656e677468604482015268040dad2e6dac2e8c6d60bb1b606482015260840161073b565b600083516001600160401b03811115610b5c57634e487b7160e01b600052604160045260246000fd5b604051908082528060200260200182016040528015610b85578160200160208202803683370190505b50905060005b8451811015610c2757610bec858281518110610bb757634e487b7160e01b600052603260045260246000fd5b6020026020010151858381518110610bdf57634e487b7160e01b600052603260045260246000fd5b60200260200101516106d3565b828281518110610c0c57634e487b7160e01b600052603260045260246000fd5b6020908102919091010152610c20816133e8565b9050610b8b565b509392505050565b600080610c3b836111ec565b506001600160801b0316600090815260ca602052604090206003015461ffff169392505050565b60405163d300133960e01b81526004810182905260009060cf907372733102ab139fb0367cc29d492c955a7c7360799063d30013399060240160006040518083038186803b158015610cb357600080fd5b505afa158015610cc7573d6000803e3d6000fd5b505050506040513d6000823e601f3d908101601f19168201604052610cef9190810190612d51565b604051610cfc9190612e80565b9081526020016040518091039020549050610d1681611761565b610d625760405162461bcd60e51b815260206004820152601b60248201527f54656c6c65724e46543a20696e76616c696420746f6b656e2049440000000000604482015260640161073b565b919050565b600080610d73836111ec565b9094909350915050565b60009182526097602090815260408084206001600160a01b0393909316845291905290205460ff1690565b600080516020613511833981519152610dc18133611240565b6001600160801b038316600090815260cc6020526040812054610def908590610dea9043613403565b611787565b90506109318582856001600160801b03166040518060200160405280600081525061134b565b336001600160a01b0383161415610e805760405162461bcd60e51b815260206004820152602960248201527f455243313135353a2073657474696e6720617070726f76616c20737461747573604482015268103337b91039b2b63360b91b606482015260840161073b565b3360008181526066602090815260408083206001600160a01b03871680855290835292819020805460ff191686151590811790915590519081529192917f17307eab39ab6107e8899845ad3d59bd9653f200f220920489ca2b5937696c31910160405180910390a35050565b600080516020613581833981519152610f058133611240565b815161095e9060d09060208501906125db565b600080516020613581833981519152610f318133611240565b838214610f805760405162461bcd60e51b815260206004820152601d60248201527f54656c6c65723a206172726179206c656e677468206d69736d61746368000000604482015260640161073b565b60005b84811015610ffd57610feb868683818110610fae57634e487b7160e01b600052603260045260246000fd5b905060800201858584818110610fd457634e487b7160e01b600052603260045260246000fd5b9050602002810190610fe691906131dc565b6117ba565b80610ff5816133e8565b915050610f83565b505050505050565b6000828152609760205260409020600101546110218133611240565b61095e8383611491565b6001600160a01b038116600090815260cd6020526040902060609061104f8161197f565b6001600160401b0381111561107457634e487b7160e01b600052604160045260246000fd5b60405190808252806020026020018201604052801561109d578160200160208202803683370190505b50915060005b82518110156110f3576110b68282611989565b8382815181106110d657634e487b7160e01b600052603260045260246000fd5b6020908102919091010152806110eb816133e8565b9150506110a3565b5050919050565b606061110660006112b7565b60d0604051602001611119929190612e9c565b604051602081830303815290604052905090565b6001600160a01b03851633148061114957506111498533610620565b6111a75760405162461bcd60e51b815260206004820152602960248201527f455243313135353a2063616c6c6572206973206e6f74206f776e6572206e6f7260448201526808185c1c1c9bdd995960ba1b606482015260840161073b565b6109318585858585611995565b6000806111c0836111ec565b506001600160801b0316600090815260ca60205260409020600101546001600160a01b03169392505050565b6000806112036111fe612710856132c9565b6119b6565b91506112146111fe61271085613403565b9050915091565b60006001600160e01b03198216637965db0b60e01b1480610769575061076982611a23565b61124a8282610d7d565b61079c57611262816001600160a01b03166014611a73565b61126d836020611a73565b60405160200161127e929190612f4b565b60408051601f198184030181529082905262461bcd60e51b825261073b916004016130a4565b805161079c9060679060208401906125db565b6060606780546112c69061335a565b80601f01602080910402602001604051908101604052809291908181526020018280546112f29061335a565b801561133f5780601f106113145761010080835404028352916020019161133f565b820191906000526020600020905b81548152906001019060200180831161132257829003601f168201915b50505050509050919050565b61135784848484611c54565b6113618484611d60565b8160c9600082825461137391906132b1565b909155505050505050565b61138b8585858585611d82565b60005b8351811015610ffd576113c8868583815181106113bb57634e487b7160e01b600052603260045260246000fd5b6020026020010151611f76565b6113f9858583815181106113ec57634e487b7160e01b600052603260045260246000fd5b6020026020010151611d60565b80611403816133e8565b91505061138e565b6114158282610d7d565b61079c5760008281526097602090815260408083206001600160a01b03851684529091529020805460ff1916600117905561144d3390565b6001600160a01b0316816001600160a01b0316837f2f8788117e7eff1d82e926ec794901d17c78024a50270940304540a733656f0d60405160405180910390a45050565b61149b8282610d7d565b1561079c5760008281526097602090815260408083206001600160a01b0385168085529252808320805460ff1916905551339285917ff6391f5c32d9c69d2a47ea670b442974b53935d1edc7fd64eb21e047a839171b9190a45050565b600054610100900460ff1680611511575060005460ff16155b61152d5760405162461bcd60e51b815260040161073b90613144565b600054610100900460ff1615801561154f576000805461ffff19166101011790555b611557611fa6565b61155f611fa6565b61156882612010565b801561079c576000805461ff00191690555050565b600054610100900460ff1680611596575060005460ff16155b6115b25760405162461bcd60e51b815260040161073b90613144565b600054610100900460ff161580156115d4576000805461ffff19166101011790555b6115dc611fa6565b6115e4611fa6565b6115ec611fa6565b80156115fe576000805461ff00191690555b50565b600082815260976020526040902060010154819060405184907fbd79b86ffe0ab8e8776151514217cd7cacd52c909f66475c3af44e129f0b00ff90600090a460009182526097602052604090912060010155565b61079c828261140b565b600054610100900460ff1680611678575060005460ff16155b6116945760405162461bcd60e51b815260040161073b90613144565b600054610100900460ff161580156116b6576000805461ffff19166101011790555b60006116c483850185612b03565b90506116ec600080516020613511833981519152600080516020613581833981519152611601565b60005b81518110156117495761173760008051602061351183398151915283838151811061172a57634e487b7160e01b600052603260045260246000fd5b6020026020010151611655565b80611741816133e8565b9150506116ef565b5050801561095e576000805461ff0019169055505050565b600081815260ce60205260408120805482919061177d9061335a565b9050119050919050565b600061179e6127106001600160801b0385166132dd565b90506117b36001600160801b038316826132b1565b9392505050565b60cb80546001600160801b03169060006117d3836133c1565b82546101009290920a6001600160801b0381810219909316918316021790915560cb5416600090815260ca602090815260409182902086358155925061181d91860190860161289f565b6001820180546001600160a01b0319166001600160a01b0392909216919091179055604084013560028201556118596080850160608601612de8565b60038201805461ffff191661ffff9290921691909117905560cb546001600160801b0316600090815260cc602052604081208390555b6001600160801b0381168311156109315760cb546000906118b9906001600160801b031683611787565b90508484836001600160801b03168181106118e457634e487b7160e01b600052603260045260246000fd5b90506020028101906118f69190613223565b600083815260ce6020526040902061190f92909161265b565b508060cf8686856001600160801b031681811061193c57634e487b7160e01b600052603260045260246000fd5b905060200281019061194e9190613223565b60405161195c929190612e70565b908152604051908190036020019020555080611977816133c1565b91505061188f565b6000610769825490565b60006117b38383612070565b6119a285858585856120a8565b6119ac8584611f76565b6109318484611d60565b60006001600160801b03821115611a1f5760405162461bcd60e51b815260206004820152602760248201527f53616665436173743a2076616c756520646f65736e27742066697420696e20316044820152663238206269747360c81b606482015260840161073b565b5090565b60006001600160e01b03198216636cdb3d1360e11b1480611a5457506001600160e01b031982166303a24d0760e21b145b8061076957506301ffc9a760e01b6001600160e01b0319831614610769565b60606000611a828360026132dd565b611a8d9060026132b1565b6001600160401b03811115611ab257634e487b7160e01b600052604160045260246000fd5b6040519080825280601f01601f191660200182016040528015611adc576020820181803683370190505b509050600360fc1b81600081518110611b0557634e487b7160e01b600052603260045260246000fd5b60200101906001600160f81b031916908160001a905350600f60fb1b81600181518110611b4257634e487b7160e01b600052603260045260246000fd5b60200101906001600160f81b031916908160001a9053506000611b668460026132dd565b611b719060016132b1565b90505b6001811115611c05576f181899199a1a9b1b9c1cb0b131b232b360811b85600f1660108110611bb357634e487b7160e01b600052603260045260246000fd5b1a60f81b828281518110611bd757634e487b7160e01b600052603260045260246000fd5b60200101906001600160f81b031916908160001a90535060049490941c93611bfe81613343565b9050611b74565b5083156117b35760405162461bcd60e51b815260206004820181905260248201527f537472696e67733a20686578206c656e67746820696e73756666696369656e74604482015260640161073b565b6001600160a01b038416611cb45760405162461bcd60e51b815260206004820152602160248201527f455243313135353a206d696e7420746f20746865207a65726f206164647265736044820152607360f81b606482015260840161073b565b33611cce81600087611cc5886121c9565b610931886121c9565b60008481526065602090815260408083206001600160a01b038916845290915281208054859290611d009084906132b1565b909155505060408051858152602081018590526001600160a01b0380881692600092918516917fc3d58168c5ae7397731d063d5bbf3d657854427343f4c083240f7aacaa2d0f62910160405180910390a461093181600087878787612222565b6001600160a01b038216600090815260cd6020526040902061095e908261238d565b8151835114611de45760405162461bcd60e51b815260206004820152602860248201527f455243313135353a2069647320616e6420616d6f756e7473206c656e677468206044820152670dad2e6dac2e8c6d60c31b606482015260840161073b565b6001600160a01b038416611e0a5760405162461bcd60e51b815260040161073b906130ff565b3360005b8451811015611f10576000858281518110611e3957634e487b7160e01b600052603260045260246000fd5b602002602001015190506000858381518110611e6557634e487b7160e01b600052603260045260246000fd5b60209081029190910181015160008481526065835260408082206001600160a01b038e168352909352919091205490915081811015611eb65760405162461bcd60e51b815260040161073b90613192565b60008381526065602090815260408083206001600160a01b038e8116855292528083208585039055908b16825281208054849290611ef59084906132b1565b9250508190555050505080611f09906133e8565b9050611e0e565b50846001600160a01b0316866001600160a01b0316826001600160a01b03167f4a39dc06d4c0dbc64b70af90fd698a233a518aa5d07e595d983b8c0526c8f7fb8787604051611f60929190613076565b60405180910390a4610ffd818787878787612399565b611f8082826106d3565b61079c576001600160a01b038216600090815260cd6020526040902061095e9082612463565b600054610100900460ff1680611fbf575060005460ff16155b611fdb5760405162461bcd60e51b815260040161073b90613144565b600054610100900460ff161580156115ec576000805461ffff191661010117905580156115fe576000805461ff001916905550565b600054610100900460ff1680612029575060005460ff16155b6120455760405162461bcd60e51b815260040161073b90613144565b600054610100900460ff16158015612067576000805461ffff19166101011790555b611568826112a4565b600082600001828154811061209557634e487b7160e01b600052603260045260246000fd5b9060005260206000200154905092915050565b6001600160a01b0384166120ce5760405162461bcd60e51b815260040161073b906130ff565b336120de818787611cc5886121c9565b60008481526065602090815260408083206001600160a01b038a168452909152902054838110156121215760405162461bcd60e51b815260040161073b90613192565b60008581526065602090815260408083206001600160a01b038b81168552925280832087850390559088168252812080548692906121609084906132b1565b909155505060408051868152602081018690526001600160a01b03808916928a821692918616917fc3d58168c5ae7397731d063d5bbf3d657854427343f4c083240f7aacaa2d0f62910160405180910390a46121c0828888888888612222565b50505050505050565b6040805160018082528183019092526060916000919060208083019080368337019050509050828160008151811061221157634e487b7160e01b600052603260045260246000fd5b602090810291909101015292915050565b6001600160a01b0384163b15610ffd5760405163f23a6e6160e01b81526001600160a01b0385169063f23a6e6190612266908990899088908890889060040161301e565b602060405180830381600087803b15801561228057600080fd5b505af19250505080156122b0575060408051601f3d908101601f191682019092526122ad91810190612cb1565b60015b61235d576122bc613459565b806308c379a014156122f657506122d1613471565b806122dc57506122f8565b8060405162461bcd60e51b815260040161073b91906130a4565b505b60405162461bcd60e51b815260206004820152603460248201527f455243313135353a207472616e7366657220746f206e6f6e20455243313135356044820152732932b1b2b4bb32b91034b6b83632b6b2b73a32b960611b606482015260840161073b565b6001600160e01b0319811663f23a6e6160e01b146121c05760405162461bcd60e51b815260040161073b906130b7565b60006117b3838361246f565b6001600160a01b0384163b15610ffd5760405163bc197c8160e01b81526001600160a01b0385169063bc197c81906123dd9089908990889088908890600401612fc0565b602060405180830381600087803b1580156123f757600080fd5b505af1925050508015612427575060408051601f3d908101601f1916820190925261242491810190612cb1565b60015b612433576122bc613459565b6001600160e01b0319811663bc197c8160e01b146121c05760405162461bcd60e51b815260040161073b906130b7565b60006117b383836124be565b60008181526001830160205260408120546124b657508154600181810184556000848152602080822090930184905584548482528286019093526040902091909155610769565b506000610769565b600081815260018301602052604081205480156125d15760006124e26001836132fc565b85549091506000906124f6906001906132fc565b905081811461257757600086600001828154811061252457634e487b7160e01b600052603260045260246000fd5b906000526020600020015490508087600001848154811061255557634e487b7160e01b600052603260045260246000fd5b6000918252602080832090910192909255918252600188019052604090208390555b855486908061259657634e487b7160e01b600052603160045260246000fd5b600190038181906000526020600020016000905590558560010160008681526020019081526020016000206000905560019350505050610769565b6000915050610769565b8280546125e79061335a565b90600052602060002090601f016020900481019282612609576000855561264f565b82601f1061262257805160ff191683800117855561264f565b8280016001018555821561264f579182015b8281111561264f578251825591602001919060010190612634565b50611a1f9291506126cf565b8280546126679061335a565b90600052602060002090601f016020900481019282612689576000855561264f565b82601f106126a25782800160ff1982351617855561264f565b8280016001018555821561264f579182015b8281111561264f5782358255916020019190600101906126b4565b5b80821115611a1f57600081556001016126d0565b60006126ef8361328a565b6040516126fc8282613395565b80925084815285858501111561271157600080fd5b8484602083013760006020868301015250509392505050565b80356001600160a01b0381168114610d6257600080fd5b600082601f830112612751578081fd5b8135602061275e82613267565b60405161276b8282613395565b8381528281019150858301600585901b8701840188101561278a578586fd5b855b858110156127af5761279d8261272a565b8452928401929084019060010161278c565b5090979650505050505050565b600082601f8301126127cc578081fd5b813560206127d982613267565b6040516127e68282613395565b8381528281019150858301600585901b87018401881015612805578586fd5b855b858110156127af57813584529284019290840190600101612807565b60008083601f840112612834578182fd5b5081356001600160401b0381111561284a578182fd5b60208301915083602082850101111561286257600080fd5b9250929050565b600082601f830112612879578081fd5b6117b3838335602085016126e4565b80356001600160801b0381168114610d6257600080fd5b6000602082840312156128b0578081fd5b6117b38261272a565b600080604083850312156128cb578081fd5b6128d48361272a565b91506128e26020840161272a565b90509250929050565b600080600080600060a08688031215612902578081fd5b61290b8661272a565b94506129196020870161272a565b935060408601356001600160401b0380821115612934578283fd5b61294089838a016127bc565b94506060880135915080821115612955578283fd5b61296189838a016127bc565b93506080880135915080821115612976578283fd5b5061298388828901612869565b9150509295509295909350565b6000806000806000608086880312156129a7578081fd5b6129b08661272a565b94506129be6020870161272a565b93506040860135925060608601356001600160401b038111156129df578182fd5b6129eb88828901612823565b969995985093965092949392505050565b600080600080600060a08688031215612a13578283fd5b612a1c8661272a565b9450612a2a6020870161272a565b9350604086013592506060860135915060808601356001600160401b03811115612a52578182fd5b61298388828901612869565b60008060408385031215612a70578182fd5b612a798361272a565b915060208301358015158114612a8d578182fd5b809150509250929050565b600080600060608486031215612aac578081fd5b612ab58461272a565b9250612ac360208501612888565b9150612ad160408501612888565b90509250925092565b60008060408385031215612aec578182fd5b612af58361272a565b946020939093013593505050565b600060208284031215612b14578081fd5b81356001600160401b03811115612b29578182fd5b612b3584828501612741565b949350505050565b60008060408385031215612b4f578182fd5b82356001600160401b0380821115612b65578384fd5b612b7186838701612741565b93506020850135915080821115612b86578283fd5b50612b93858286016127bc565b9150509250929050565b60008060008060408587031215612bb2578182fd5b84356001600160401b0380821115612bc8578384fd5b818701915087601f830112612bdb578384fd5b813581811115612be9578485fd5b8860208260071b8501011115612bfd578485fd5b602092830196509450908601359080821115612c17578384fd5b818701915087601f830112612c2a578384fd5b813581811115612c38578485fd5b8860208260051b8501011115612c4c578485fd5b95989497505060200194505050565b600060208284031215612c6c578081fd5b5035919050565b60008060408385031215612c85578182fd5b823591506128e26020840161272a565b600060208284031215612ca6578081fd5b81356117b3816134fa565b600060208284031215612cc2578081fd5b81516117b3816134fa565b60008060208385031215612cdf578182fd5b82356001600160401b03811115612cf4578283fd5b612d0085828601612823565b90969095509350505050565b600060208284031215612d1d578081fd5b81356001600160401b03811115612d32578182fd5b8201601f81018413612d42578182fd5b612b35848235602084016126e4565b600060208284031215612d62578081fd5b81516001600160401b03811115612d77578182fd5b8201601f81018413612d87578182fd5b8051612d928161328a565b604051612d9f8282613395565b828152866020848601011115612db3578485fd5b612dc4836020830160208701613313565b9695505050505050565b600060208284031215612ddf578081fd5b6117b382612888565b600060208284031215612df9578081fd5b813561ffff811681146117b3578182fd5b6000815180845260208085019450808401835b83811015612e3957815187529582019590820190600101612e1d565b509495945050505050565b60008151808452612e5c816020860160208601613313565b601f01601f19169290920160200192915050565b8183823760009101908152919050565b60008251612e92818460208701613313565b9190910192915050565b600083516020612eaf8285838901613313565b8454918401918390600181811c9080831680612ecc57607f831692505b858310811415612eea57634e487b7160e01b88526022600452602488fd5b808015612efe5760018114612f0f57612f3b565b60ff19851688528388019550612f3b565b60008b815260209020895b85811015612f335781548a820152908401908801612f1a565b505083880195505b50939a9950505050505050505050565b7f416363657373436f6e74726f6c3a206163636f756e7420000000000000000000815260008351612f83816017850160208801613313565b7001034b99036b4b9b9b4b733903937b6329607d1b6017918401918201528351612fb4816028840160208801613313565b01602801949350505050565b6001600160a01b0386811682528516602082015260a060408201819052600090612fec90830186612e0a565b8281036060840152612ffe8186612e0a565b905082810360808401526130128185612e44565b98975050505050505050565b6001600160a01b03868116825285166020820152604081018490526060810183905260a06080820181905260009061305890830184612e44565b979650505050505050565b6020815260006117b36020830184612e0a565b6040815260006130896040830185612e0a565b828103602084015261309b8185612e0a565b95945050505050565b6020815260006117b36020830184612e44565b60208082526028908201527f455243313135353a204552433131353552656365697665722072656a656374656040820152676420746f6b656e7360c01b606082015260800190565b60208082526025908201527f455243313135353a207472616e7366657220746f20746865207a65726f206164604082015264647265737360d81b606082015260800190565b6020808252602e908201527f496e697469616c697a61626c653a20636f6e747261637420697320616c72656160408201526d191e481a5b9a5d1a585b1a5e995960921b606082015260800190565b6020808252602a908201527f455243313135353a20696e73756666696369656e742062616c616e636520666f60408201526939103a3930b739b332b960b11b606082015260800190565b6000808335601e198436030181126131f2578283fd5b8301803591506001600160401b0382111561320b578283fd5b6020019150600581901b360382131561286257600080fd5b6000808335601e19843603018112613239578283fd5b8301803591506001600160401b03821115613252578283fd5b60200191503681900382131561286257600080fd5b60006001600160401b0382111561328057613280613443565b5060051b60200190565b60006001600160401b038211156132a3576132a3613443565b50601f01601f191660200190565b600082198211156132c4576132c4613417565b500190565b6000826132d8576132d861342d565b500490565b60008160001904831182151516156132f7576132f7613417565b500290565b60008282101561330e5761330e613417565b500390565b60005b8381101561332e578181015183820152602001613316565b8381111561333d576000848401525b50505050565b60008161335257613352613417565b506000190190565b600181811c9082168061336e57607f821691505b6020821081141561338f57634e487b7160e01b600052602260045260246000fd5b50919050565b601f8201601f191681016001600160401b03811182821017156133ba576133ba613443565b6040525050565b60006001600160801b03808316818114156133de576133de613417565b6001019392505050565b60006000198214156133fc576133fc613417565b5060010190565b6000826134125761341261342d565b500690565b634e487b7160e01b600052601160045260246000fd5b634e487b7160e01b600052601260045260246000fd5b634e487b7160e01b600052604160045260246000fd5b600060033d111561346e57600481823e5160e01c5b90565b600060443d101561347f5790565b6040516003193d81016004833e81513d6001600160401b0381602484011181841117156134ae57505050505090565b82850191508151818111156134c65750505050505090565b843d87010160208285010111156134e05750505050505090565b6134ef60208286010187613395565b509095945050505050565b6001600160e01b0319811681146115fe57600080fdfef0887ba65ee2024ea881d91b74c2450ef19e1557f03bed3ea9f16b037cbe2dc9516d5741665146467770747a5255436446326342464a686342326766484a4d64375451743634645a5579736b335268747470733a2f2f676174657761792e70696e6174612e636c6f75642f697066732fdf8b4c520ffe197c5343c6f5aec59570151ef9a492f2c624fd45ddde6135ec42a26469706673582212207389bfcac5717a3a7647390832d605caf653c7607fa48255aa9adbc0c12ae81864736f6c63430008040033",
  "devdoc": {
    "kind": "dev",
    "methods": {
      "balanceOf(address,uint256)": {
        "details": "See {IERC1155-balanceOf}. Requirements: - `account` cannot be the zero address."
      },
      "balanceOfBatch(address[],uint256[])": {
        "details": "See {IERC1155-balanceOfBatch}. Requirements: - `accounts` and `ids` must have the same length."
      },
      "contractURI()": {
        "returns": {
          "_0": "the contract URI hash"
        }
      },
      "convertV1TokenId(uint256)": {
        "params": {
          "_tokenId": "the tokenId to look up"
        }
      },
      "createTiers((uint256,address,uint256,uint16)[],string[][])": {
        "details": "It auto increments the index of the next tier to add.",
        "params": {
          "newTiers": "Information about the new tiers to add.",
          "tierHashes": "Metadata hashes belonging to the tiers. Requirements:  - Caller must have the {ADMIN} role"
        }
      },
      "getOwnedTokens(address)": {
        "details": "It uses a EnumerableSet to store values and loops over each element to add to the array.Can be costly if calling within a contract for address with many tokens.",
        "returns": {
          "owned_": "the array of tokenIDs owned by the address"
        }
      },
      "getRoleAdmin(bytes32)": {
        "details": "Returns the admin role that controls `role`. See {grantRole} and {revokeRole}. To change a role's admin, use {_setRoleAdmin}."
      },
      "getTokenTierId(uint256)": {
        "params": {
          "tokenId": "ID of the token to get Tier info."
        },
        "returns": {
          "tierId_": "the index of the tier the tokenId belongs to",
          "tierTokenId_": "the tokenId in tier"
        }
      },
      "grantRole(bytes32,address)": {
        "details": "Grants `role` to `account`. If `account` had not been already granted `role`, emits a {RoleGranted} event. Requirements: - the caller must have ``role``'s admin role."
      },
      "hasRole(bytes32,address)": {
        "details": "Returns `true` if `account` has been granted `role`."
      },
      "initialize(bytes)": {
        "params": {
          "data": "Bytes to init the token with."
        }
      },
      "isApprovedForAll(address,address)": {
        "details": "See {IERC1155-isApprovedForAll}."
      },
      "mint(address,uint128,uint128)": {
        "params": {
          "owner": "The owner of the new token. Requirements:  - Caller must be an authorized minter",
          "tierIndex": "Tier to mint token on."
        }
      },
      "onERC721Received(address,address,uint256,bytes)": {
        "details": "Whenever an {IERC721} `tokenId` token is transferred to this contract via {IERC721-safeTransferFrom} by `operator` from `from`, this function is called. It must return its Solidity selector to confirm the token transfer. If any other value is returned or the interface is not implemented by the recipient, the transfer will be reverted. The selector can be obtained in Solidity with `IERC721.onERC721Received.selector`."
      },
      "renounceRole(bytes32,address)": {
        "details": "Revokes `role` from the calling account. Roles are often managed via {grantRole} and {revokeRole}: this function's purpose is to provide a mechanism for accounts to lose their privileges if they are compromised (such as when a trusted device is misplaced). If the calling account had been granted `role`, emits a {RoleRevoked} event. Requirements: - the caller must be `account`."
      },
      "revokeRole(bytes32,address)": {
        "details": "Revokes `role` from `account`. If `account` had been granted `role`, emits a {RoleRevoked} event. Requirements: - the caller must have ``role``'s admin role."
      },
      "safeBatchTransferFrom(address,address,uint256[],uint256[],bytes)": {
        "details": "See {IERC1155-safeBatchTransferFrom}."
      },
      "safeTransferFrom(address,address,uint256,uint256,bytes)": {
        "details": "See {IERC1155-safeTransferFrom}."
      },
      "setApprovalForAll(address,bool)": {
        "details": "See {IERC1155-setApprovalForAll}."
      },
      "setContractURIHash(string)": {
        "params": {
          "contractURIHash": "The hash to the initial contract level metadata."
        }
      },
      "setURI(string)": {
        "details": "See {_setURI}. Requirements: - `newURI` must be prepended with a forward slash (/)"
      },
      "supportsInterface(bytes4)": {
        "params": {
          "interfaceId": "the identifier of the interface"
        },
        "returns": {
          "_0": "bool stating whether or not our interface is supported"
        }
      },
      "tokenBaseLoanSize(uint256)": {
        "params": {
          "tokenId": "ID of the token to get info."
        }
      },
      "tokenContributionAsset(uint256)": {
        "params": {
          "tokenId": "ID of the token to get info."
        }
      },
      "tokenContributionMultiplier(uint256)": {
        "params": {
          "tokenId": "ID of the token to get info."
        }
      },
      "tokenContributionSize(uint256)": {
        "params": {
          "tokenId": "ID of the token to get info."
        }
      },
      "uri(uint256)": {
        "details": "See {IERC1155MetadataURI-uri}. This implementation returns the same URI for *all* token types. It relies on the token type ID substitution mechanism https://eips.ethereum.org/EIPS/eip-1155#metadata[defined in the EIP]. Clients calling this function must replace the `\\{id\\}` substring with the actual token type ID."
      }
    },
    "version": 1
  },
  "userdoc": {
    "kind": "user",
    "methods": {
      "contractURI()": {
        "notice": "The contract metadata URI."
      },
      "convertV1TokenId(uint256)": {
        "notice": "it performs a reverse look up on by finding our ID using the tokenURI hash using the NFT dictionary. Required that the token id exists"
      },
      "createTiers((uint256,address,uint256,uint16)[],string[][])": {
        "notice": "Creates new Tiers to be minted with the given information."
      },
      "getOwnedTokens(address)": {
        "notice": "It returns an array of token IDs owned by an address."
      },
      "getTokenTierId(uint256)": {
        "notice": "It returns information about a Tier for a token ID."
      },
      "initialize(bytes)": {
        "notice": "Initializes the TellerNFT."
      },
      "mint(address,uint128,uint128)": {
        "notice": "It mints a new token for a Tier index."
      },
      "setContractURIHash(string)": {
        "notice": "Sets the contract level metadata URI hash."
      },
      "supportsInterface(bytes4)": {
        "notice": "checks if an interface is supported by ITellerNFT or AccessControlUpgradeable"
      },
      "tokenBaseLoanSize(uint256)": {
        "notice": "It returns Base Loan Size for a token ID."
      },
      "tokenContributionAsset(uint256)": {
        "notice": "It returns Contribution Asset for a token ID."
      },
      "tokenContributionMultiplier(uint256)": {
        "notice": "It returns Contribution Multiplier for a token ID."
      },
      "tokenContributionSize(uint256)": {
        "notice": "It returns Contribution Size for a token ID."
      }
    },
    "version": 1
  },
  "storageLayout": {
    "storage": [
      {
        "astId": 5253,
        "contract": "contracts/nft/mainnet/MainnetTellerNFT.sol:MainnetTellerNFT",
        "label": "_initialized",
        "offset": 0,
        "slot": "0",
        "type": "t_bool"
      },
      {
        "astId": 5256,
        "contract": "contracts/nft/mainnet/MainnetTellerNFT.sol:MainnetTellerNFT",
        "label": "_initializing",
        "offset": 1,
        "slot": "0",
        "type": "t_bool"
      },
      {
        "astId": 8778,
        "contract": "contracts/nft/mainnet/MainnetTellerNFT.sol:MainnetTellerNFT",
        "label": "__gap",
        "offset": 0,
        "slot": "1",
        "type": "t_array(t_uint256)50_storage"
      },
      {
        "astId": 9027,
        "contract": "contracts/nft/mainnet/MainnetTellerNFT.sol:MainnetTellerNFT",
        "label": "__gap",
        "offset": 0,
        "slot": "51",
        "type": "t_array(t_uint256)50_storage"
      },
      {
        "astId": 5322,
        "contract": "contracts/nft/mainnet/MainnetTellerNFT.sol:MainnetTellerNFT",
        "label": "_balances",
        "offset": 0,
        "slot": "101",
        "type": "t_mapping(t_uint256,t_mapping(t_address,t_uint256))"
      },
      {
        "astId": 5328,
        "contract": "contracts/nft/mainnet/MainnetTellerNFT.sol:MainnetTellerNFT",
        "label": "_operatorApprovals",
        "offset": 0,
        "slot": "102",
        "type": "t_mapping(t_address,t_mapping(t_address,t_bool))"
      },
      {
        "astId": 5330,
        "contract": "contracts/nft/mainnet/MainnetTellerNFT.sol:MainnetTellerNFT",
        "label": "_uri",
        "offset": 0,
        "slot": "103",
        "type": "t_string_storage"
      },
      {
        "astId": 6404,
        "contract": "contracts/nft/mainnet/MainnetTellerNFT.sol:MainnetTellerNFT",
        "label": "__gap",
        "offset": 0,
        "slot": "104",
        "type": "t_array(t_uint256)47_storage"
      },
      {
        "astId": 4813,
        "contract": "contracts/nft/mainnet/MainnetTellerNFT.sol:MainnetTellerNFT",
        "label": "_roles",
        "offset": 0,
        "slot": "151",
        "type": "t_mapping(t_bytes32,t_struct(RoleData)4808_storage)"
      },
      {
        "astId": 5121,
        "contract": "contracts/nft/mainnet/MainnetTellerNFT.sol:MainnetTellerNFT",
        "label": "__gap",
        "offset": 0,
        "slot": "152",
        "type": "t_array(t_uint256)49_storage"
      },
      {
        "astId": 24851,
        "contract": "contracts/nft/mainnet/MainnetTellerNFT.sol:MainnetTellerNFT",
        "label": "totalSupply",
        "offset": 0,
        "slot": "201",
        "type": "t_uint256"
      },
      {
        "astId": 24856,
        "contract": "contracts/nft/mainnet/MainnetTellerNFT.sol:MainnetTellerNFT",
        "label": "tiers",
        "offset": 0,
        "slot": "202",
        "type": "t_mapping(t_uint256,t_struct(Tier)24849_storage)"
      },
      {
        "astId": 24858,
        "contract": "contracts/nft/mainnet/MainnetTellerNFT.sol:MainnetTellerNFT",
        "label": "tierCount",
        "offset": 0,
        "slot": "203",
        "type": "t_uint128"
      },
      {
        "astId": 24862,
        "contract": "contracts/nft/mainnet/MainnetTellerNFT.sol:MainnetTellerNFT",
        "label": "tierTokenCount",
        "offset": 0,
        "slot": "204",
        "type": "t_mapping(t_uint128,t_uint256)"
      },
      {
        "astId": 24867,
        "contract": "contracts/nft/mainnet/MainnetTellerNFT.sol:MainnetTellerNFT",
        "label": "_ownedTokenIds",
        "offset": 0,
        "slot": "205",
        "type": "t_mapping(t_address,t_struct(UintSet)12792_storage)"
      },
      {
        "astId": 24871,
        "contract": "contracts/nft/mainnet/MainnetTellerNFT.sol:MainnetTellerNFT",
        "label": "_idToUriHash",
        "offset": 0,
        "slot": "206",
        "type": "t_mapping(t_uint256,t_string_storage)"
      },
      {
        "astId": 24875,
        "contract": "contracts/nft/mainnet/MainnetTellerNFT.sol:MainnetTellerNFT",
        "label": "_uriHashToId",
        "offset": 0,
        "slot": "207",
        "type": "t_mapping(t_string_memory_ptr,t_uint256)"
      },
      {
        "astId": 24877,
        "contract": "contracts/nft/mainnet/MainnetTellerNFT.sol:MainnetTellerNFT",
        "label": "_contractURIHash",
        "offset": 0,
        "slot": "208",
        "type": "t_string_storage"
      }
    ],
    "types": {
      "t_address": {
        "encoding": "inplace",
        "label": "address",
        "numberOfBytes": "20"
      },
      "t_array(t_bytes32)dyn_storage": {
        "base": "t_bytes32",
        "encoding": "dynamic_array",
        "label": "bytes32[]",
        "numberOfBytes": "32"
      },
      "t_array(t_uint256)47_storage": {
        "base": "t_uint256",
        "encoding": "inplace",
        "label": "uint256[47]",
        "numberOfBytes": "1504"
      },
      "t_array(t_uint256)49_storage": {
        "base": "t_uint256",
        "encoding": "inplace",
        "label": "uint256[49]",
        "numberOfBytes": "1568"
      },
      "t_array(t_uint256)50_storage": {
        "base": "t_uint256",
        "encoding": "inplace",
        "label": "uint256[50]",
        "numberOfBytes": "1600"
      },
      "t_bool": {
        "encoding": "inplace",
        "label": "bool",
        "numberOfBytes": "1"
      },
      "t_bytes32": {
        "encoding": "inplace",
        "label": "bytes32",
        "numberOfBytes": "32"
      },
      "t_mapping(t_address,t_bool)": {
        "encoding": "mapping",
        "key": "t_address",
        "label": "mapping(address => bool)",
        "numberOfBytes": "32",
        "value": "t_bool"
      },
      "t_mapping(t_address,t_mapping(t_address,t_bool))": {
        "encoding": "mapping",
        "key": "t_address",
        "label": "mapping(address => mapping(address => bool))",
        "numberOfBytes": "32",
        "value": "t_mapping(t_address,t_bool)"
      },
      "t_mapping(t_address,t_struct(UintSet)12792_storage)": {
        "encoding": "mapping",
        "key": "t_address",
        "label": "mapping(address => struct EnumerableSet.UintSet)",
        "numberOfBytes": "32",
        "value": "t_struct(UintSet)12792_storage"
      },
      "t_mapping(t_address,t_uint256)": {
        "encoding": "mapping",
        "key": "t_address",
        "label": "mapping(address => uint256)",
        "numberOfBytes": "32",
        "value": "t_uint256"
      },
      "t_mapping(t_bytes32,t_struct(RoleData)4808_storage)": {
        "encoding": "mapping",
        "key": "t_bytes32",
        "label": "mapping(bytes32 => struct AccessControlUpgradeable.RoleData)",
        "numberOfBytes": "32",
        "value": "t_struct(RoleData)4808_storage"
      },
      "t_mapping(t_bytes32,t_uint256)": {
        "encoding": "mapping",
        "key": "t_bytes32",
        "label": "mapping(bytes32 => uint256)",
        "numberOfBytes": "32",
        "value": "t_uint256"
      },
      "t_mapping(t_string_memory_ptr,t_uint256)": {
        "encoding": "mapping",
        "key": "t_string_memory_ptr",
        "label": "mapping(string => uint256)",
        "numberOfBytes": "32",
        "value": "t_uint256"
      },
      "t_mapping(t_uint128,t_uint256)": {
        "encoding": "mapping",
        "key": "t_uint128",
        "label": "mapping(uint128 => uint256)",
        "numberOfBytes": "32",
        "value": "t_uint256"
      },
      "t_mapping(t_uint256,t_mapping(t_address,t_uint256))": {
        "encoding": "mapping",
        "key": "t_uint256",
        "label": "mapping(uint256 => mapping(address => uint256))",
        "numberOfBytes": "32",
        "value": "t_mapping(t_address,t_uint256)"
      },
      "t_mapping(t_uint256,t_string_storage)": {
        "encoding": "mapping",
        "key": "t_uint256",
        "label": "mapping(uint256 => string)",
        "numberOfBytes": "32",
        "value": "t_string_storage"
      },
      "t_mapping(t_uint256,t_struct(Tier)24849_storage)": {
        "encoding": "mapping",
        "key": "t_uint256",
        "label": "mapping(uint256 => struct TellerNFT_V2.Tier)",
        "numberOfBytes": "32",
        "value": "t_struct(Tier)24849_storage"
      },
      "t_string_memory_ptr": {
        "encoding": "bytes",
        "label": "string",
        "numberOfBytes": "32"
      },
      "t_string_storage": {
        "encoding": "bytes",
        "label": "string",
        "numberOfBytes": "32"
      },
      "t_struct(RoleData)4808_storage": {
        "encoding": "inplace",
        "label": "struct AccessControlUpgradeable.RoleData",
        "members": [
          {
            "astId": 4805,
            "contract": "contracts/nft/mainnet/MainnetTellerNFT.sol:MainnetTellerNFT",
            "label": "members",
            "offset": 0,
            "slot": "0",
            "type": "t_mapping(t_address,t_bool)"
          },
          {
            "astId": 4807,
            "contract": "contracts/nft/mainnet/MainnetTellerNFT.sol:MainnetTellerNFT",
            "label": "adminRole",
            "offset": 0,
            "slot": "1",
            "type": "t_bytes32"
          }
        ],
        "numberOfBytes": "64"
      },
      "t_struct(Set)12394_storage": {
        "encoding": "inplace",
        "label": "struct EnumerableSet.Set",
        "members": [
          {
            "astId": 12389,
            "contract": "contracts/nft/mainnet/MainnetTellerNFT.sol:MainnetTellerNFT",
            "label": "_values",
            "offset": 0,
            "slot": "0",
            "type": "t_array(t_bytes32)dyn_storage"
          },
          {
            "astId": 12393,
            "contract": "contracts/nft/mainnet/MainnetTellerNFT.sol:MainnetTellerNFT",
            "label": "_indexes",
            "offset": 0,
            "slot": "1",
            "type": "t_mapping(t_bytes32,t_uint256)"
          }
        ],
        "numberOfBytes": "64"
      },
      "t_struct(Tier)24849_storage": {
        "encoding": "inplace",
        "label": "struct TellerNFT_V2.Tier",
        "members": [
          {
            "astId": 24842,
            "contract": "contracts/nft/mainnet/MainnetTellerNFT.sol:MainnetTellerNFT",
            "label": "baseLoanSize",
            "offset": 0,
            "slot": "0",
            "type": "t_uint256"
          },
          {
            "astId": 24844,
            "contract": "contracts/nft/mainnet/MainnetTellerNFT.sol:MainnetTellerNFT",
            "label": "contributionAsset",
            "offset": 0,
            "slot": "1",
            "type": "t_address"
          },
          {
            "astId": 24846,
            "contract": "contracts/nft/mainnet/MainnetTellerNFT.sol:MainnetTellerNFT",
            "label": "contributionSize",
            "offset": 0,
            "slot": "2",
            "type": "t_uint256"
          },
          {
            "astId": 24848,
            "contract": "contracts/nft/mainnet/MainnetTellerNFT.sol:MainnetTellerNFT",
            "label": "contributionMultiplier",
            "offset": 0,
            "slot": "3",
            "type": "t_uint16"
          }
        ],
        "numberOfBytes": "128"
      },
      "t_struct(UintSet)12792_storage": {
        "encoding": "inplace",
        "label": "struct EnumerableSet.UintSet",
        "members": [
          {
            "astId": 12791,
            "contract": "contracts/nft/mainnet/MainnetTellerNFT.sol:MainnetTellerNFT",
            "label": "_inner",
            "offset": 0,
            "slot": "0",
            "type": "t_struct(Set)12394_storage"
          }
        ],
        "numberOfBytes": "64"
      },
      "t_uint128": {
        "encoding": "inplace",
        "label": "uint128",
        "numberOfBytes": "16"
      },
      "t_uint16": {
        "encoding": "inplace",
        "label": "uint16",
        "numberOfBytes": "2"
      },
      "t_uint256": {
        "encoding": "inplace",
        "label": "uint256",
        "numberOfBytes": "32"
      }
    }
  }
}