{
  "address": "0xA0DBaBE1C4B98DfBDb8a19e9b9b2d221f0C4fA07",
  "abi": [
    {
      "anonymous": false,
      "inputs": [
        {
          "indexed": true,
          "internalType": "address",
          "name": "owner",
          "type": "address"
        },
        {
          "indexed": true,
          "internalType": "address",
          "name": "approved",
          "type": "address"
        },
        {
          "indexed": true,
          "internalType": "uint256",
          "name": "tokenId",
          "type": "uint256"
        }
      ],
      "name": "Approval",
      "type": "event"
    },
    {
      "anonymous": false,
      "inputs": [
        {
          "indexed": true,
          "internalType": "address",
          "name": "owner",
          "type": "address"
        },
        {
          "indexed": true,
          "internalType": "address",
          "name": "operator",
          "type": "address"
        },
        {
          "indexed": false,
          "internalType": "bool",
          "name": "approved",
          "type": "bool"
        }
      ],
      "name": "ApprovalForAll",
      "type": "event"
    },
    {
      "anonymous": false,
      "inputs": [
        {
          "indexed": true,
          "internalType": "bytes32",
          "name": "role",
          "type": "bytes32"
        },
        {
          "indexed": true,
          "internalType": "bytes32",
          "name": "previousAdminRole",
          "type": "bytes32"
        },
        {
          "indexed": true,
          "internalType": "bytes32",
          "name": "newAdminRole",
          "type": "bytes32"
        }
      ],
      "name": "RoleAdminChanged",
      "type": "event"
    },
    {
      "anonymous": false,
      "inputs": [
        {
          "indexed": true,
          "internalType": "bytes32",
          "name": "role",
          "type": "bytes32"
        },
        {
          "indexed": true,
          "internalType": "address",
          "name": "account",
          "type": "address"
        },
        {
          "indexed": true,
          "internalType": "address",
          "name": "sender",
          "type": "address"
        }
      ],
      "name": "RoleGranted",
      "type": "event"
    },
    {
      "anonymous": false,
      "inputs": [
        {
          "indexed": true,
          "internalType": "bytes32",
          "name": "role",
          "type": "bytes32"
        },
        {
          "indexed": true,
          "internalType": "address",
          "name": "account",
          "type": "address"
        },
        {
          "indexed": true,
          "internalType": "address",
          "name": "sender",
          "type": "address"
        }
      ],
      "name": "RoleRevoked",
      "type": "event"
    },
    {
      "anonymous": false,
      "inputs": [
        {
          "indexed": true,
          "internalType": "address",
          "name": "from",
          "type": "address"
        },
        {
          "indexed": true,
          "internalType": "address",
          "name": "to",
          "type": "address"
        },
        {
          "indexed": true,
          "internalType": "uint256",
          "name": "tokenId",
          "type": "uint256"
        }
      ],
      "name": "Transfer",
      "type": "event"
    },
    {
      "inputs": [],
      "name": "ADMIN",
      "outputs": [
        {
          "internalType": "bytes32",
          "name": "",
          "type": "bytes32"
        }
      ],
      "stateMutability": "view",
      "type": "function"
    },
    {
      "inputs": [],
      "name": "DEFAULT_ADMIN_ROLE",
      "outputs": [
        {
          "internalType": "bytes32",
          "name": "",
          "type": "bytes32"
        }
      ],
      "stateMutability": "view",
      "type": "function"
    },
    {
      "inputs": [],
      "name": "MINTER",
      "outputs": [
        {
          "internalType": "bytes32",
          "name": "",
          "type": "bytes32"
        }
      ],
      "stateMutability": "view",
      "type": "function"
    },
    {
      "inputs": [
        {
          "internalType": "address",
          "name": "minter",
          "type": "address"
        }
      ],
      "name": "addMinter",
      "outputs": [],
      "stateMutability": "nonpayable",
      "type": "function"
    },
    {
      "inputs": [
        {
          "components": [
            {
              "internalType": "uint256",
              "name": "baseLoanSize",
              "type": "uint256"
            },
            {
              "internalType": "string[]",
              "name": "hashes",
              "type": "string[]"
            },
            {
              "internalType": "address",
              "name": "contributionAsset",
              "type": "address"
            },
            {
              "internalType": "uint256",
              "name": "contributionSize",
              "type": "uint256"
            },
            {
              "internalType": "uint8",
              "name": "contributionMultiplier",
              "type": "uint8"
            }
          ],
          "internalType": "struct ITellerNFT.Tier",
          "name": "newTier",
          "type": "tuple"
        }
      ],
      "name": "addTier",
      "outputs": [],
      "stateMutability": "nonpayable",
      "type": "function"
    },
    {
      "inputs": [
        {
          "internalType": "address",
          "name": "to",
          "type": "address"
        },
        {
          "internalType": "uint256",
          "name": "tokenId",
          "type": "uint256"
        }
      ],
      "name": "approve",
      "outputs": [],
      "stateMutability": "nonpayable",
      "type": "function"
    },
    {
      "inputs": [
        {
          "internalType": "address",
          "name": "owner",
          "type": "address"
        }
      ],
      "name": "balanceOf",
      "outputs": [
        {
          "internalType": "uint256",
          "name": "",
          "type": "uint256"
        }
      ],
      "stateMutability": "view",
      "type": "function"
    },
    {
      "inputs": [],
      "name": "contractURI",
      "outputs": [
        {
          "internalType": "string",
          "name": "",
          "type": "string"
        }
      ],
      "stateMutability": "view",
      "type": "function"
    },
    {
      "inputs": [
        {
          "internalType": "uint256",
          "name": "tokenId",
          "type": "uint256"
        }
      ],
      "name": "getApproved",
      "outputs": [
        {
          "internalType": "address",
          "name": "",
          "type": "address"
        }
      ],
      "stateMutability": "view",
      "type": "function"
    },
    {
      "inputs": [
        {
          "internalType": "address",
          "name": "owner",
          "type": "address"
        }
      ],
      "name": "getOwnedTokens",
      "outputs": [
        {
          "internalType": "uint256[]",
          "name": "owned_",
          "type": "uint256[]"
        }
      ],
      "stateMutability": "view",
      "type": "function"
    },
    {
      "inputs": [
        {
          "internalType": "bytes32",
          "name": "role",
          "type": "bytes32"
        }
      ],
      "name": "getRoleAdmin",
      "outputs": [
        {
          "internalType": "bytes32",
          "name": "",
          "type": "bytes32"
        }
      ],
      "stateMutability": "view",
      "type": "function"
    },
    {
      "inputs": [
        {
          "internalType": "uint256",
          "name": "index",
          "type": "uint256"
        }
      ],
      "name": "getTier",
      "outputs": [
        {
          "components": [
            {
              "internalType": "uint256",
              "name": "baseLoanSize",
              "type": "uint256"
            },
            {
              "internalType": "string[]",
              "name": "hashes",
              "type": "string[]"
            },
            {
              "internalType": "address",
              "name": "contributionAsset",
              "type": "address"
            },
            {
              "internalType": "uint256",
              "name": "contributionSize",
              "type": "uint256"
            },
            {
              "internalType": "uint8",
              "name": "contributionMultiplier",
              "type": "uint8"
            }
          ],
          "internalType": "struct ITellerNFT.Tier",
          "name": "tier_",
          "type": "tuple"
        }
      ],
      "stateMutability": "view",
      "type": "function"
    },
    {
      "inputs": [
        {
          "internalType": "uint256",
          "name": "tierIndex",
          "type": "uint256"
        }
      ],
      "name": "getTierHashes",
      "outputs": [
        {
          "internalType": "string[]",
          "name": "hashes_",
          "type": "string[]"
        }
      ],
      "stateMutability": "view",
      "type": "function"
    },
    {
      "inputs": [
        {
          "internalType": "uint256",
          "name": "tokenId",
          "type": "uint256"
        }
      ],
      "name": "getTokenTier",
      "outputs": [
        {
          "internalType": "uint256",
          "name": "index_",
          "type": "uint256"
        },
        {
          "components": [
            {
              "internalType": "uint256",
              "name": "baseLoanSize",
              "type": "uint256"
            },
            {
              "internalType": "string[]",
              "name": "hashes",
              "type": "string[]"
            },
            {
              "internalType": "address",
              "name": "contributionAsset",
              "type": "address"
            },
            {
              "internalType": "uint256",
              "name": "contributionSize",
              "type": "uint256"
            },
            {
              "internalType": "uint8",
              "name": "contributionMultiplier",
              "type": "uint8"
            }
          ],
          "internalType": "struct ITellerNFT.Tier",
          "name": "tier_",
          "type": "tuple"
        }
      ],
      "stateMutability": "view",
      "type": "function"
    },
    {
      "inputs": [
        {
          "internalType": "bytes32",
          "name": "role",
          "type": "bytes32"
        },
        {
          "internalType": "address",
          "name": "account",
          "type": "address"
        }
      ],
      "name": "grantRole",
      "outputs": [],
      "stateMutability": "nonpayable",
      "type": "function"
    },
    {
      "inputs": [
        {
          "internalType": "bytes32",
          "name": "role",
          "type": "bytes32"
        },
        {
          "internalType": "address",
          "name": "account",
          "type": "address"
        }
      ],
      "name": "hasRole",
      "outputs": [
        {
          "internalType": "bool",
          "name": "",
          "type": "bool"
        }
      ],
      "stateMutability": "view",
      "type": "function"
    },
    {
      "inputs": [
        {
          "internalType": "address[]",
          "name": "minters",
          "type": "address[]"
        }
      ],
      "name": "initialize",
      "outputs": [],
      "stateMutability": "nonpayable",
      "type": "function"
    },
    {
      "inputs": [
        {
          "internalType": "address",
          "name": "owner",
          "type": "address"
        },
        {
          "internalType": "address",
          "name": "operator",
          "type": "address"
        }
      ],
      "name": "isApprovedForAll",
      "outputs": [
        {
          "internalType": "bool",
          "name": "",
          "type": "bool"
        }
      ],
      "stateMutability": "view",
      "type": "function"
    },
    {
      "inputs": [
        {
          "internalType": "uint256",
          "name": "tierIndex",
          "type": "uint256"
        },
        {
          "internalType": "address",
          "name": "owner",
          "type": "address"
        }
      ],
      "name": "mint",
      "outputs": [],
      "stateMutability": "nonpayable",
      "type": "function"
    },
    {
      "inputs": [],
      "name": "name",
      "outputs": [
        {
          "internalType": "string",
          "name": "",
          "type": "string"
        }
      ],
      "stateMutability": "view",
      "type": "function"
    },
    {
      "inputs": [
        {
          "internalType": "uint256",
          "name": "tokenId",
          "type": "uint256"
        }
      ],
      "name": "ownerOf",
      "outputs": [
        {
          "internalType": "address",
          "name": "",
          "type": "address"
        }
      ],
      "stateMutability": "view",
      "type": "function"
    },
    {
      "inputs": [
        {
          "internalType": "address",
          "name": "minter",
          "type": "address"
        }
      ],
      "name": "removeMinter",
      "outputs": [],
      "stateMutability": "nonpayable",
      "type": "function"
    },
    {
      "inputs": [
        {
          "internalType": "bytes32",
          "name": "role",
          "type": "bytes32"
        },
        {
          "internalType": "address",
          "name": "account",
          "type": "address"
        }
      ],
      "name": "renounceRole",
      "outputs": [],
      "stateMutability": "nonpayable",
      "type": "function"
    },
    {
      "inputs": [
        {
          "internalType": "bytes32",
          "name": "role",
          "type": "bytes32"
        },
        {
          "internalType": "address",
          "name": "account",
          "type": "address"
        }
      ],
      "name": "revokeRole",
      "outputs": [],
      "stateMutability": "nonpayable",
      "type": "function"
    },
    {
      "inputs": [
        {
          "internalType": "address",
          "name": "from",
          "type": "address"
        },
        {
          "internalType": "address",
          "name": "to",
          "type": "address"
        },
        {
          "internalType": "uint256",
          "name": "tokenId",
          "type": "uint256"
        }
      ],
      "name": "safeTransferFrom",
      "outputs": [],
      "stateMutability": "nonpayable",
      "type": "function"
    },
    {
      "inputs": [
        {
          "internalType": "address",
          "name": "from",
          "type": "address"
        },
        {
          "internalType": "address",
          "name": "to",
          "type": "address"
        },
        {
          "internalType": "uint256",
          "name": "tokenId",
          "type": "uint256"
        },
        {
          "internalType": "bytes",
          "name": "_data",
          "type": "bytes"
        }
      ],
      "name": "safeTransferFrom",
      "outputs": [],
      "stateMutability": "nonpayable",
      "type": "function"
    },
    {
      "inputs": [
        {
          "internalType": "address",
          "name": "operator",
          "type": "address"
        },
        {
          "internalType": "bool",
          "name": "approved",
          "type": "bool"
        }
      ],
      "name": "setApprovalForAll",
      "outputs": [],
      "stateMutability": "nonpayable",
      "type": "function"
    },
    {
      "inputs": [
        {
          "internalType": "string",
          "name": "contractURIHash",
          "type": "string"
        }
      ],
      "name": "setContractURIHash",
      "outputs": [],
      "stateMutability": "nonpayable",
      "type": "function"
    },
    {
      "inputs": [
        {
          "internalType": "bytes4",
          "name": "interfaceId",
          "type": "bytes4"
        }
      ],
      "name": "supportsInterface",
      "outputs": [
        {
          "internalType": "bool",
          "name": "",
          "type": "bool"
        }
      ],
      "stateMutability": "view",
      "type": "function"
    },
    {
      "inputs": [],
      "name": "symbol",
      "outputs": [
        {
          "internalType": "string",
          "name": "",
          "type": "string"
        }
      ],
      "stateMutability": "view",
      "type": "function"
    },
    {
      "inputs": [
        {
          "internalType": "uint256",
          "name": "tokenId",
          "type": "uint256"
        }
      ],
      "name": "tokenURI",
      "outputs": [
        {
          "internalType": "string",
          "name": "",
          "type": "string"
        }
      ],
      "stateMutability": "view",
      "type": "function"
    },
    {
      "inputs": [
        {
          "internalType": "address",
          "name": "from",
          "type": "address"
        },
        {
          "internalType": "address",
          "name": "to",
          "type": "address"
        },
        {
          "internalType": "uint256",
          "name": "tokenId",
          "type": "uint256"
        }
      ],
      "name": "transferFrom",
      "outputs": [],
      "stateMutability": "nonpayable",
      "type": "function"
    }
  ],
  "artifactName": "TellerNFT",
  "transactionHash": "0x710413978124bd9de81895d45a44a4ef29e7ed5d36889bf3adf7e4bd61c620f3",
  "args": [],
  "solcInputHash": "2f48200b1837e05d9756a8e8b45c14c8",
  "bytecode": "0x608060405234801561001057600080fd5b50612e52806100206000396000f3fe608060405234801561001057600080fd5b50600436106101f05760003560e01c806395d89b411161010f578063c87b56dd116100a2578063d9d6165511610071578063d9d616551461047e578063e8a3d4851461049e578063e985e9c5146104a6578063fe6d8124146104e257600080fd5b8063c87b56dd14610425578063cbee53a314610438578063cf932b7c14610458578063d547741f1461046b57600080fd5b8063a22cb465116100de578063a22cb465146103cb578063b88d4fde146103de578063baedc1c4146103f1578063c26b265f1461040457600080fd5b806395d89b4114610395578063983b2d561461039d578063a217fddf146103b0578063a224cee7146103b857600080fd5b80633092afd5116101875780636352211e116101565780636352211e1461034957806370a082311461035c57806391d148541461036f57806394bf804d1461038257600080fd5b80633092afd5146102f057806336568abe1461030357806342842e0e146103165780634f062c5a1461032957600080fd5b806323b872dd116101c357806323b872dd14610272578063248a9ca3146102855780632a0acc6a146102b65780632f2ff15d146102dd57600080fd5b806301ffc9a7146101f557806306fdde031461021d578063081812fc14610232578063095ea7b31461025d575b600080fd5b6102086102033660046126b3565b6104f7565b60405190151581526020015b60405180910390f35b610225610531565b6040516102149190612aaa565b610245610240366004612679565b6105c3565b6040516001600160a01b039091168152602001610214565b61027061026b3660046125e0565b61065d565b005b6102706102803660046124f2565b610773565b6102a8610293366004612679565b60009081526097602052604090206001015490565b604051908152602001610214565b6102a87fdf8b4c520ffe197c5343c6f5aec59570151ef9a492f2c624fd45ddde6135ec4281565b6102706102eb366004612691565b6107a4565b6102706102fe3660046124a6565b6107ca565b610270610311366004612691565b610819565b6102706103243660046124f2565b610897565b61033c610337366004612679565b6108b2565b6040516102149190612bdd565b610245610357366004612679565b6109ec565b6102a861036a3660046124a6565b610a63565b61020861037d366004612691565b610aea565b61027061039036600461283e565b610b15565b610225610b89565b6102706103ab3660046124a6565b610b98565b6102a8600081565b6102706103c6366004612609565b610be4565b6102706103d93660046125a6565b610d67565b6102706103ec36600461252d565b610e2c565b6102706103ff3660046126eb565b610e64565b610417610412366004612679565b610ee4565b604051610214929190612bf0565b610225610433366004612679565b611024565b61044b610446366004612679565b6110fa565b6040516102149190612a05565b61027061046636600461271e565b6111e9565b610270610479366004612691565b6112b3565b61049161048c3660046124a6565b6112d9565b6040516102149190612a66565b6102256113a9565b6102086104b43660046124c0565b6001600160a01b039182166000908152606a6020908152604080832093909416825291909152205460ff1690565b6102a8600080516020612dad83398151915281565b60006001600160e01b03198216630d04cfd960e21b148061051c575061051c826113b8565b8061052b575061052b82611408565b92915050565b60606065805461054090612cf4565b80601f016020809104026020016040519081016040528092919081815260200182805461056c90612cf4565b80156105b95780601f1061058e576101008083540402835291602001916105b9565b820191906000526020600020905b81548152906001019060200180831161059c57829003601f168201915b5050505050905090565b6000818152606760205260408120546001600160a01b03166106415760405162461bcd60e51b815260206004820152602c60248201527f4552433732313a20617070726f76656420717565727920666f72206e6f6e657860448201526b34b9ba32b73a103a37b5b2b760a11b60648201526084015b60405180910390fd5b506000908152606960205260409020546001600160a01b031690565b6000610668826109ec565b9050806001600160a01b0316836001600160a01b031614156106d65760405162461bcd60e51b815260206004820152602160248201527f4552433732313a20617070726f76616c20746f2063757272656e74206f776e656044820152603960f91b6064820152608401610638565b336001600160a01b03821614806106f257506106f281336104b4565b6107645760405162461bcd60e51b815260206004820152603860248201527f4552433732313a20617070726f76652063616c6c6572206973206e6f74206f7760448201527f6e6572206e6f7220617070726f76656420666f7220616c6c00000000000000006064820152608401610638565b61076e838361142d565b505050565b61077d338261149b565b6107995760405162461bcd60e51b815260040161063890612b8c565b61076e838383611592565b6000828152609760205260409020600101546107c081336115a7565b61076e838361160b565b6107e2600080516020612dad83398151915233610aea565b6107fe5760405162461bcd60e51b815260040161063890612b0f565b610816600080516020612dad833981519152826112b3565b50565b6001600160a01b03811633146108895760405162461bcd60e51b815260206004820152602f60248201527f416363657373436f6e74726f6c3a2063616e206f6e6c792072656e6f756e636560448201526e103937b632b9903337b91039b2b63360891b6064820152608401610638565b6108938282611691565b5050565b61076e83838360405180602001604052806000815250610e2c565b6108ba61227e565b60cb60008381526020019081526020016000206040518060a00160405290816000820154815260200160018201805480602002602001604051908101604052809291908181526020016000905b828210156109b357838290600052602060002001805461092690612cf4565b80601f016020809104026020016040519081016040528092919081815260200182805461095290612cf4565b801561099f5780601f106109745761010080835404028352916020019161099f565b820191906000526020600020905b81548152906001019060200180831161098257829003601f168201915b505050505081526020019060010190610907565b5050509082525060028201546001600160a01b031660208201526003820154604082015260049091015460ff1660609091015292915050565b6000818152606760205260408120546001600160a01b03168061052b5760405162461bcd60e51b815260206004820152602960248201527f4552433732313a206f776e657220717565727920666f72206e6f6e657869737460448201526832b73a103a37b5b2b760b91b6064820152608401610638565b60006001600160a01b038216610ace5760405162461bcd60e51b815260206004820152602a60248201527f4552433732313a2062616c616e636520717565727920666f7220746865207a65604482015269726f206164647265737360b01b6064820152608401610638565b506001600160a01b031660009081526068602052604090205490565b60009182526097602090815260408084206001600160a01b0393909316845291905290205460ff1690565b610b2d600080516020612dad83398151915233610aea565b610b495760405162461bcd60e51b815260040161063890612b0f565b6000610b5460ca5490565b9050610b6460ca80546001019055565b610b6e82826116f8565b600081815260cc6020526040902083905561076e8282611712565b60606066805461054090612cf4565b610bb0600080516020612dad83398151915233610aea565b610bcc5760405162461bcd60e51b815260040161063890612b0f565b610816600080516020612dad83398151915282611774565b600054610100900460ff1680610bfd575060005460ff16155b610c195760405162461bcd60e51b815260040161063890612b3e565b600054610100900460ff16158015610c3b576000805461ffff19166101011790555b610c836040518060400160405280600a81526020016915195b1b195c8813919560b21b815250604051806040016040528060048152602001631513919560e21b81525061177e565b610c8b611805565b60005b82811015610cf457610ce2600080516020612dad833981519152858584818110610cc857634e487b7160e01b600052603260045260246000fd5b9050602002016020810190610cdd91906124a6565b611774565b80610cec81612d2f565b915050610c8e565b50604051806060016040528060228152602001612dfb602291398051610d229160ce916020909101906122b9565b506040518060600160405280602e8152602001612dcd602e91398051610d509160cf916020909101906122b9565b50801561076e576000805461ff0019169055505050565b6001600160a01b038216331415610dc05760405162461bcd60e51b815260206004820152601960248201527f4552433732313a20617070726f766520746f2063616c6c6572000000000000006044820152606401610638565b336000818152606a602090815260408083206001600160a01b03871680855290835292819020805460ff191686151590811790915590519081529192917f17307eab39ab6107e8899845ad3d59bd9653f200f220920489ca2b5937696c31910160405180910390a35050565b610e36338361149b565b610e525760405162461bcd60e51b815260040161063890612b8c565b610e5e84848484611888565b50505050565b610e8e7fdf8b4c520ffe197c5343c6f5aec59570151ef9a492f2c624fd45ddde6135ec4233610aea565b610ed15760405162461bcd60e51b81526020600482015260146024820152732a32b63632b927232a1d103737ba1030b236b4b760611b6044820152606401610638565b80516108939060cf9060208401906122b9565b6000610eee61227e565b600083815260cc602090815260408083205480845260cb8352818420825160a0810184528154815260018201805485518188028101880190965280865293985090959194868101949391929084015b82821015610fe9578382906000526020600020018054610f5c90612cf4565b80601f0160208091040260200160405190810160405280929190818152602001828054610f8890612cf4565b8015610fd55780601f10610faa57610100808354040283529160200191610fd5565b820191906000526020600020905b815481529060010190602001808311610fb857829003601f168201915b505050505081526020019060010190610f3d565b5050509082525060028201546001600160a01b031660208201526003820154604082015260049091015460ff16606090910152919391925050565b6000818152606760205260409020546060906001600160a01b031661109e5760405162461bcd60e51b815260206004820152602a60248201527f54656c6c65724e46543a2055524920717565727920666f72206e6f6e657869736044820152693a32b73a103a37b5b2b760b11b6064820152608401610638565b60006110a86118bb565b905060008151116110c857604051806020016040528060008152506110f3565b806110d2846118ca565b6040516020016110e3929190612924565b6040516020818303038152906040525b9392505050565b606060cb6000838152602001908152602001600020600101805480602002602001604051908101604052809291908181526020016000905b828210156111de57838290600052602060002001805461115190612cf4565b80601f016020809104026020016040519081016040528092919081815260200182805461117d90612cf4565b80156111ca5780601f1061119f576101008083540402835291602001916111ca565b820191906000526020600020905b8154815290600101906020018083116111ad57829003601f168201915b505050505081526020019060010190611132565b505050509050919050565b611201600080516020612dad83398151915233610aea565b61121d5760405162461bcd60e51b815260040161063890612b0f565b600060cb600061122c60c95490565b81526020808201929092526040016000208351815583820151805191935061125b92600185019291019061233d565b5060408201516002820180546001600160a01b0319166001600160a01b0390921691909117905560608201516003820155608082015160048201805460ff191660ff90921691909117905560c9805460010190555050565b6000828152609760205260409020600101546112cf81336115a7565b61076e8383611691565b6001600160a01b038116600090815260cd602052604090206060906112fd816119b4565b67ffffffffffffffff81111561132357634e487b7160e01b600052604160045260246000fd5b60405190808252806020026020018201604052801561134c578160200160208202803683370190505b50915060005b82518110156113a25761136582826119be565b83828151811061138557634e487b7160e01b600052603260045260246000fd5b60209081029190910101528061139a81612d2f565b915050611352565b5050919050565b606060cf805461054090612cf4565b60006001600160e01b031982166380ac58cd60e01b14806113e957506001600160e01b03198216635b5e139f60e01b145b8061052b57506301ffc9a760e01b6001600160e01b031983161461052b565b60006001600160e01b03198216637965db0b60e01b148061052b575061052b826113b8565b600081815260696020526040902080546001600160a01b0319166001600160a01b0384169081179091558190611462826109ec565b6001600160a01b03167f8c5be1e5ebec7d5bd14f71427d1e84f3dd0314c0f7b2291e5b200ac8c7c3b92560405160405180910390a45050565b6000818152606760205260408120546001600160a01b03166115145760405162461bcd60e51b815260206004820152602c60248201527f4552433732313a206f70657261746f7220717565727920666f72206e6f6e657860448201526b34b9ba32b73a103a37b5b2b760a11b6064820152608401610638565b600061151f836109ec565b9050806001600160a01b0316846001600160a01b0316148061155a5750836001600160a01b031661154f846105c3565b6001600160a01b0316145b8061158a57506001600160a01b038082166000908152606a602090815260408083209388168352929052205460ff165b949350505050565b61159c8282611712565b61076e8383836119ca565b6115b18282610aea565b610893576115c9816001600160a01b03166014611b6a565b6115d4836020611b6a565b6040516020016115e5929190612953565b60408051601f198184030181529082905262461bcd60e51b825261063891600401612aaa565b6116158282610aea565b6108935760008281526097602090815260408083206001600160a01b03851684529091529020805460ff1916600117905561164d3390565b6001600160a01b0316816001600160a01b0316837f2f8788117e7eff1d82e926ec794901d17c78024a50270940304540a733656f0d60405160405180910390a45050565b61169b8282610aea565b156108935760008281526097602090815260408083206001600160a01b0385168085529252808320805460ff1916905551339285917ff6391f5c32d9c69d2a47ea670b442974b53935d1edc7fd64eb21e047a839171b9190a45050565b610893828260405180602001604052806000815250611d4c565b600061171d826109ec565b90506001600160a01b03811615611752576001600160a01b038116600090815260cd602052604090206117509083611d7f565b505b6001600160a01b038316600090815260cd60205260409020610e5e9083611d8b565b610893828261160b565b600054610100900460ff1680611797575060005460ff16155b6117b35760405162461bcd60e51b815260040161063890612b3e565b600054610100900460ff161580156117d5576000805461ffff19166101011790555b6117dd611d97565b6117e5611d97565b6117ef8383611e01565b801561076e576000805461ff0019169055505050565b600054610100900460ff168061181e575060005460ff16155b61183a5760405162461bcd60e51b815260040161063890612b3e565b600054610100900460ff1615801561185c576000805461ffff19166101011790555b611864611d97565b61186c611d97565b611874611d97565b8015610816576000805461ff001916905550565b611893848484611592565b61189f84848484611e7f565b610e5e5760405162461bcd60e51b815260040161063890612abd565b606060ce805461054090612cf4565b600081815260cc6020908152604080832054835260cb909152902060010180546060919081906118fb908590611f8c565b8154811061191957634e487b7160e01b600052603260045260246000fd5b90600052602060002001805461192e90612cf4565b80601f016020809104026020016040519081016040528092919081815260200182805461195a90612cf4565b80156119a75780601f1061197c576101008083540402835291602001916119a7565b820191906000526020600020905b81548152906001019060200180831161198a57829003601f168201915b5050505050915050919050565b600061052b825490565b60006110f38383611f98565b826001600160a01b03166119dd826109ec565b6001600160a01b031614611a455760405162461bcd60e51b815260206004820152602960248201527f4552433732313a207472616e73666572206f6620746f6b656e2074686174206960448201526839903737ba1037bbb760b91b6064820152608401610638565b6001600160a01b038216611aa75760405162461bcd60e51b8152602060048201526024808201527f4552433732313a207472616e7366657220746f20746865207a65726f206164646044820152637265737360e01b6064820152608401610638565b611ab260008261142d565b6001600160a01b0383166000908152606860205260408120805460019290611adb908490612c9a565b90915550506001600160a01b0382166000908152606860205260408120805460019290611b09908490612c63565b909155505060008181526067602052604080822080546001600160a01b0319166001600160a01b0386811691821790925591518493918716917fddf252ad1be2c89b69c2b068fc378daa952ba7f163c4a11628f55a4df523b3ef91a4505050565b60606000611b79836002612c7b565b611b84906002612c63565b67ffffffffffffffff811115611baa57634e487b7160e01b600052604160045260246000fd5b6040519080825280601f01601f191660200182016040528015611bd4576020820181803683370190505b509050600360fc1b81600081518110611bfd57634e487b7160e01b600052603260045260246000fd5b60200101906001600160f81b031916908160001a905350600f60fb1b81600181518110611c3a57634e487b7160e01b600052603260045260246000fd5b60200101906001600160f81b031916908160001a9053506000611c5e846002612c7b565b611c69906001612c63565b90505b6001811115611cfd576f181899199a1a9b1b9c1cb0b131b232b360811b85600f1660108110611cab57634e487b7160e01b600052603260045260246000fd5b1a60f81b828281518110611ccf57634e487b7160e01b600052603260045260246000fd5b60200101906001600160f81b031916908160001a90535060049490941c93611cf681612cdd565b9050611c6c565b5083156110f35760405162461bcd60e51b815260206004820181905260248201527f537472696e67733a20686578206c656e67746820696e73756666696369656e746044820152606401610638565b611d568383611fd0565b611d636000848484611e7f565b61076e5760405162461bcd60e51b815260040161063890612abd565b60006110f38383612112565b60006110f3838361222f565b600054610100900460ff1680611db0575060005460ff16155b611dcc5760405162461bcd60e51b815260040161063890612b3e565b600054610100900460ff16158015611874576000805461ffff19166101011790558015610816576000805461ff001916905550565b600054610100900460ff1680611e1a575060005460ff16155b611e365760405162461bcd60e51b815260040161063890612b3e565b600054610100900460ff16158015611e58576000805461ffff19166101011790555b8251611e6b9060659060208601906122b9565b508151610d509060669060208501906122b9565b60006001600160a01b0384163b15611f8157604051630a85bd0160e11b81526001600160a01b0385169063150b7a0290611ec39033908990889088906004016129c8565b602060405180830381600087803b158015611edd57600080fd5b505af1925050508015611f0d575060408051601f3d908101601f19168201909252611f0a918101906126cf565b60015b611f67573d808015611f3b576040519150601f19603f3d011682016040523d82523d6000602084013e611f40565b606091505b508051611f5f5760405162461bcd60e51b815260040161063890612abd565b805181602001fd5b6001600160e01b031916630a85bd0160e11b14905061158a565b506001949350505050565b60006110f38284612d4a565b6000826000018281548110611fbd57634e487b7160e01b600052603260045260246000fd5b9060005260206000200154905092915050565b6001600160a01b0382166120265760405162461bcd60e51b815260206004820181905260248201527f4552433732313a206d696e7420746f20746865207a65726f20616464726573736044820152606401610638565b6000818152606760205260409020546001600160a01b03161561208b5760405162461bcd60e51b815260206004820152601c60248201527f4552433732313a20746f6b656e20616c7265616479206d696e746564000000006044820152606401610638565b6001600160a01b03821660009081526068602052604081208054600192906120b4908490612c63565b909155505060008181526067602052604080822080546001600160a01b0319166001600160a01b03861690811790915590518392907fddf252ad1be2c89b69c2b068fc378daa952ba7f163c4a11628f55a4df523b3ef908290a45050565b60008181526001830160205260408120548015612225576000612136600183612c9a565b855490915060009061214a90600190612c9a565b90508181146121cb57600086600001828154811061217857634e487b7160e01b600052603260045260246000fd5b90600052602060002001549050808760000184815481106121a957634e487b7160e01b600052603260045260246000fd5b6000918252602080832090910192909255918252600188019052604090208390555b85548690806121ea57634e487b7160e01b600052603160045260246000fd5b60019003818190600052602060002001600090559055856001016000868152602001908152602001600020600090556001935050505061052b565b600091505061052b565b60008181526001830160205260408120546122765750815460018181018455600084815260208082209093018490558454848252828601909352604090209190915561052b565b50600061052b565b6040518060a00160405280600081526020016060815260200160006001600160a01b0316815260200160008152602001600060ff1681525090565b8280546122c590612cf4565b90600052602060002090601f0160209004810192826122e7576000855561232d565b82601f1061230057805160ff191683800117855561232d565b8280016001018555821561232d579182015b8281111561232d578251825591602001919060010190612312565b50612339929150612396565b5090565b82805482825590600052602060002090810192821561238a579160200282015b8281111561238a578251805161237a9184916020909101906122b9565b509160200191906001019061235d565b506123399291506123ab565b5b808211156123395760008155600101612397565b808211156123395760006123bf82826123c8565b506001016123ab565b5080546123d490612cf4565b6000825580601f106123e4575050565b601f0160209004906000526020600020908101906108169190612396565b600067ffffffffffffffff83111561241c5761241c612d80565b61242f601f8401601f1916602001612c32565b905082815283838301111561244357600080fd5b828260208301376000602084830101529392505050565b80356001600160a01b038116811461247157600080fd5b919050565b600082601f830112612486578081fd5b6110f383833560208501612402565b803560ff8116811461247157600080fd5b6000602082840312156124b7578081fd5b6110f38261245a565b600080604083850312156124d2578081fd5b6124db8361245a565b91506124e96020840161245a565b90509250929050565b600080600060608486031215612506578081fd5b61250f8461245a565b925061251d6020850161245a565b9150604084013590509250925092565b60008060008060808587031215612542578081fd5b61254b8561245a565b93506125596020860161245a565b925060408501359150606085013567ffffffffffffffff81111561257b578182fd5b8501601f8101871361258b578182fd5b61259a87823560208401612402565b91505092959194509250565b600080604083850312156125b8578182fd5b6125c18361245a565b9150602083013580151581146125d5578182fd5b809150509250929050565b600080604083850312156125f2578182fd5b6125fb8361245a565b946020939093013593505050565b6000806020838503121561261b578182fd5b823567ffffffffffffffff80821115612632578384fd5b818501915085601f830112612645578384fd5b813581811115612653578485fd5b8660208260051b8501011115612667578485fd5b60209290920196919550909350505050565b60006020828403121561268a578081fd5b5035919050565b600080604083850312156126a3578081fd5b823591506124e96020840161245a565b6000602082840312156126c4578081fd5b81356110f381612d96565b6000602082840312156126e0578081fd5b81516110f381612d96565b6000602082840312156126fc578081fd5b813567ffffffffffffffff811115612712578182fd5b61158a84828501612476565b60006020808385031215612730578182fd5b823567ffffffffffffffff80821115612747578384fd5b9084019060a0828703121561275a578384fd5b612762612c09565b823581528383013582811115612776578586fd5b8301601f81018813612786578586fd5b80358381111561279857612798612d80565b8060051b6127a7878201612c32565b828152878101908489018386018a018d10156127c1578a8bfd5b8a93505b848410156127fe578035888111156127db578b8cfd5b6127e98e8c838a0101612476565b845250600193909301929189019189016127c5565b508589015250612814925050506040840161245a565b60408201526060830135606082015261282f60808401612495565b60808201529695505050505050565b600080604083850312156126a3578182fd5b60008151808452612868816020860160208601612cb1565b601f01601f19169290920160200192915050565b600060a083018251845260208084015160a08287015282815180855260c08801915060c08160051b89010194508383019250855b818110156128de5760bf198987030183526128cc868551612850565b955092840192918401916001016128b0565b505050505060408301516128fd60408601826001600160a01b03169052565b5060608301516060850152608083015161291c608086018260ff169052565b509392505050565b60008351612936818460208801612cb1565b83519083019061294a818360208801612cb1565b01949350505050565b7f416363657373436f6e74726f6c3a206163636f756e742000000000000000000081526000835161298b816017850160208801612cb1565b7001034b99036b4b9b9b4b733903937b6329607d1b60179184019182015283516129bc816028840160208801612cb1565b01602801949350505050565b6001600160a01b03858116825284166020820152604081018390526080606082018190526000906129fb90830184612850565b9695505050505050565b6000602080830181845280855180835260408601915060408160051b8701019250838701855b82811015612a5957603f19888603018452612a47858351612850565b94509285019290850190600101612a2b565b5092979650505050505050565b6020808252825182820181905260009190848201906040850190845b81811015612a9e57835183529284019291840191600101612a82565b50909695505050505050565b6020815260006110f36020830184612850565b60208082526032908201527f4552433732313a207472616e7366657220746f206e6f6e20455243373231526560408201527131b2b4bb32b91034b6b83632b6b2b73a32b960711b606082015260800190565b6020808252601590820152742a32b63632b927232a1d103737ba1036b4b73a32b960591b604082015260600190565b6020808252602e908201527f496e697469616c697a61626c653a20636f6e747261637420697320616c72656160408201526d191e481a5b9a5d1a585b1a5e995960921b606082015260800190565b60208082526031908201527f4552433732313a207472616e736665722063616c6c6572206973206e6f74206f6040820152701ddb995c881b9bdc88185c1c1c9bdd9959607a1b606082015260800190565b6020815260006110f3602083018461287c565b82815260406020820152600061158a604083018461287c565b60405160a0810167ffffffffffffffff81118282101715612c2c57612c2c612d80565b60405290565b604051601f8201601f1916810167ffffffffffffffff81118282101715612c5b57612c5b612d80565b604052919050565b60008219821115612c7657612c76612d6a565b500190565b6000816000190483118215151615612c9557612c95612d6a565b500290565b600082821015612cac57612cac612d6a565b500390565b60005b83811015612ccc578181015183820152602001612cb4565b83811115610e5e5750506000910152565b600081612cec57612cec612d6a565b506000190190565b600181811c90821680612d0857607f821691505b60208210811415612d2957634e487b7160e01b600052602260045260246000fd5b50919050565b6000600019821415612d4357612d43612d6a565b5060010190565b600082612d6557634e487b7160e01b81526012600452602481fd5b500690565b634e487b7160e01b600052601160045260246000fd5b634e487b7160e01b600052604160045260246000fd5b6001600160e01b03198116811461081657600080fdfef0887ba65ee2024ea881d91b74c2450ef19e1557f03bed3ea9f16b037cbe2dc9516d5741665146467770747a5255436446326342464a686342326766484a4d64375451743634645a5579736b335268747470733a2f2f676174657761792e70696e6174612e636c6f75642f697066732fa2646970667358221220d2d4b2dd82844b437768ee91385f8d8f1a08003bb198c8b0b7ddacbc2519a8e864736f6c63430008040033",
  "devdoc": {
    "author": "develop@teller.finance",
    "kind": "dev",
    "methods": {
      "addMinter(address)": {
        "params": {
          "minter": "the address of the minter to add to the role of MINTER"
        }
      },
      "addTier((uint256,string[],address,uint256,uint8))": {
        "details": "It auto increments the index of the next tier to add.",
        "params": {
          "newTier": "Information about the new tier to add. Requirements:  - Caller must have the {MINTER} role"
        }
      },
      "approve(address,uint256)": {
        "details": "See {IERC721-approve}."
      },
      "balanceOf(address)": {
        "details": "See {IERC721-balanceOf}."
      },
      "contractURI()": {
        "returns": {
          "_0": "the contract URI hash"
        }
      },
      "getApproved(uint256)": {
        "details": "See {IERC721-getApproved}."
      },
      "getOwnedTokens(address)": {
        "details": "It uses a EnumerableSet to store values and loops over each element to add to the array.Can be costly if calling within a contract for address with many tokens.",
        "returns": {
          "owned_": "the array of tokenIDs owned by the address"
        }
      },
      "getRoleAdmin(bytes32)": {
        "details": "Returns the admin role that controls `role`. See {grantRole} and {revokeRole}. To change a role's admin, use {_setRoleAdmin}."
      },
      "getTier(uint256)": {
        "params": {
          "index": "Tier index to get info."
        },
        "returns": {
          "tier_": "the tier which belongs to the respective index"
        }
      },
      "getTierHashes(uint256)": {
        "params": {
          "tierIndex": "the tier index to get the tier hashes"
        },
        "returns": {
          "hashes_": "all the tokenID hashes"
        }
      },
      "getTokenTier(uint256)": {
        "params": {
          "tokenId": "ID of the token to get Tier info."
        },
        "returns": {
          "index_": "the index of the tier the tokenID belongs in",
          "tier_": "the tier where the tokenID belongs in"
        }
      },
      "grantRole(bytes32,address)": {
        "details": "Grants `role` to `account`. If `account` had not been already granted `role`, emits a {RoleGranted} event. Requirements: - the caller must have ``role``'s admin role."
      },
      "hasRole(bytes32,address)": {
        "details": "Returns `true` if `account` has been granted `role`."
      },
      "initialize(address[])": {
        "params": {
          "minters": "The addresses that should allowed to mint tokens."
        }
      },
      "isApprovedForAll(address,address)": {
        "details": "See {IERC721-isApprovedForAll}."
      },
      "mint(uint256,address)": {
        "params": {
          "owner": "The owner of the new token. Requirements:  - Caller must be an authorized minter",
          "tierIndex": "Tier to mint token on."
        }
      },
      "name()": {
        "details": "See {IERC721Metadata-name}."
      },
      "ownerOf(uint256)": {
        "details": "See {IERC721-ownerOf}."
      },
      "removeMinter(address)": {
        "params": {
          "minter": "the address of the minter"
        }
      },
      "renounceRole(bytes32,address)": {
        "details": "Revokes `role` from the calling account. Roles are often managed via {grantRole} and {revokeRole}: this function's purpose is to provide a mechanism for accounts to lose their privileges if they are compromised (such as when a trusted device is misplaced). If the calling account had been granted `role`, emits a {RoleRevoked} event. Requirements: - the caller must be `account`."
      },
      "revokeRole(bytes32,address)": {
        "details": "Revokes `role` from `account`. If `account` had been granted `role`, emits a {RoleRevoked} event. Requirements: - the caller must have ``role``'s admin role."
      },
      "safeTransferFrom(address,address,uint256)": {
        "details": "See {IERC721-safeTransferFrom}."
      },
      "safeTransferFrom(address,address,uint256,bytes)": {
        "details": "See {IERC721-safeTransferFrom}."
      },
      "setApprovalForAll(address,bool)": {
        "details": "See {IERC721-setApprovalForAll}."
      },
      "setContractURIHash(string)": {
        "params": {
          "contractURIHash": "The hash to the initial contract level metadata."
        }
      },
      "supportsInterface(bytes4)": {
        "params": {
          "interfaceId": "the identifier of the interface"
        },
        "returns": {
          "_0": "bool stating whether or not our interface is supported"
        }
      },
      "symbol()": {
        "details": "See {IERC721Metadata-symbol}."
      },
      "tokenURI(uint256)": {
        "params": {
          "tokenId": "the token identifier that returns the hash of the baseURI and the tokenURI hash"
        },
        "returns": {
          "_0": "the tokenURI"
        }
      },
      "transferFrom(address,address,uint256)": {
        "details": "See {IERC721-transferFrom}."
      }
    },
    "version": 1
  },
  "userdoc": {
    "kind": "user",
    "methods": {
      "addMinter(address)": {
        "notice": "it adds the minter to the rule"
      },
      "addTier((uint256,string[],address,uint256,uint8))": {
        "notice": "Adds a new Tier to be minted with the given information."
      },
      "contractURI()": {
        "notice": "The contract metadata URI."
      },
      "getOwnedTokens(address)": {
        "notice": "It returns an array of token IDs owned by an address."
      },
      "getTier(uint256)": {
        "notice": "It returns information about a Tier for a token ID."
      },
      "getTierHashes(uint256)": {
        "notice": "It returns an array of hashes in a tier"
      },
      "getTokenTier(uint256)": {
        "notice": "It returns information about a Tier for a token ID."
      },
      "initialize(address[])": {
        "notice": "Initializes the TellerNFT."
      },
      "mint(uint256,address)": {
        "notice": "It mints a new token for a Tier index."
      },
      "removeMinter(address)": {
        "notice": "it removes the minter by revoking the role of the address assigned to MINTER"
      },
      "setContractURIHash(string)": {
        "notice": "Sets the contract level metadata URI hash."
      },
      "supportsInterface(bytes4)": {
        "notice": "checks if an interface is supported by ITellerNFT, ERC721Upgradeable or AccessControlUpgradeable"
      },
      "tokenURI(uint256)": {
        "notice": "The token URI is based on the token ID."
      }
    },
    "notice": "This contract is used by borrowers to call Dapp functions (using delegate calls).This contract should only be constructed using it's upgradeable Proxy contract.In order to call a Dapp function, the Dapp must be added in the DappRegistry instance.",
    "version": 1
  },
  "storageLayout": {
    "storage": [
      {
        "astId": 5253,
        "contract": "contracts/nft/TellerNFT.sol:TellerNFT",
        "label": "_initialized",
        "offset": 0,
        "slot": "0",
        "type": "t_bool"
      },
      {
        "astId": 5256,
        "contract": "contracts/nft/TellerNFT.sol:TellerNFT",
        "label": "_initializing",
        "offset": 1,
        "slot": "0",
        "type": "t_bool"
      },
      {
        "astId": 8778,
        "contract": "contracts/nft/TellerNFT.sol:TellerNFT",
        "label": "__gap",
        "offset": 0,
        "slot": "1",
        "type": "t_array(t_uint256)50_storage"
      },
      {
        "astId": 9027,
        "contract": "contracts/nft/TellerNFT.sol:TellerNFT",
        "label": "__gap",
        "offset": 0,
        "slot": "51",
        "type": "t_array(t_uint256)50_storage"
      },
      {
        "astId": 7512,
        "contract": "contracts/nft/TellerNFT.sol:TellerNFT",
        "label": "_name",
        "offset": 0,
        "slot": "101",
        "type": "t_string_storage"
      },
      {
        "astId": 7514,
        "contract": "contracts/nft/TellerNFT.sol:TellerNFT",
        "label": "_symbol",
        "offset": 0,
        "slot": "102",
        "type": "t_string_storage"
      },
      {
        "astId": 7518,
        "contract": "contracts/nft/TellerNFT.sol:TellerNFT",
        "label": "_owners",
        "offset": 0,
        "slot": "103",
        "type": "t_mapping(t_uint256,t_address)"
      },
      {
        "astId": 7522,
        "contract": "contracts/nft/TellerNFT.sol:TellerNFT",
        "label": "_balances",
        "offset": 0,
        "slot": "104",
        "type": "t_mapping(t_address,t_uint256)"
      },
      {
        "astId": 7526,
        "contract": "contracts/nft/TellerNFT.sol:TellerNFT",
        "label": "_tokenApprovals",
        "offset": 0,
        "slot": "105",
        "type": "t_mapping(t_uint256,t_address)"
      },
      {
        "astId": 7532,
        "contract": "contracts/nft/TellerNFT.sol:TellerNFT",
        "label": "_operatorApprovals",
        "offset": 0,
        "slot": "106",
        "type": "t_mapping(t_address,t_mapping(t_address,t_bool))"
      },
      {
        "astId": 8330,
        "contract": "contracts/nft/TellerNFT.sol:TellerNFT",
        "label": "__gap",
        "offset": 0,
        "slot": "107",
        "type": "t_array(t_uint256)44_storage"
      },
      {
        "astId": 4813,
        "contract": "contracts/nft/TellerNFT.sol:TellerNFT",
        "label": "_roles",
        "offset": 0,
        "slot": "151",
        "type": "t_mapping(t_bytes32,t_struct(RoleData)4808_storage)"
      },
      {
        "astId": 5121,
        "contract": "contracts/nft/TellerNFT.sol:TellerNFT",
        "label": "__gap",
        "offset": 0,
        "slot": "152",
        "type": "t_array(t_uint256)49_storage"
      },
      {
        "astId": 23758,
        "contract": "contracts/nft/TellerNFT.sol:TellerNFT",
        "label": "_tierCounter",
        "offset": 0,
        "slot": "201",
        "type": "t_struct(Counter)11056_storage"
      },
      {
        "astId": 23761,
        "contract": "contracts/nft/TellerNFT.sol:TellerNFT",
        "label": "_tokenCounter",
        "offset": 0,
        "slot": "202",
        "type": "t_struct(Counter)11056_storage"
      },
      {
        "astId": 23766,
        "contract": "contracts/nft/TellerNFT.sol:TellerNFT",
        "label": "_tiers",
        "offset": 0,
        "slot": "203",
        "type": "t_mapping(t_uint256,t_struct(Tier)23265_storage)"
      },
      {
        "astId": 23770,
        "contract": "contracts/nft/TellerNFT.sol:TellerNFT",
        "label": "_tokenTier",
        "offset": 0,
        "slot": "204",
        "type": "t_mapping(t_uint256,t_uint256)"
      },
      {
        "astId": 23775,
        "contract": "contracts/nft/TellerNFT.sol:TellerNFT",
        "label": "_ownerTokenIDs",
        "offset": 0,
        "slot": "205",
        "type": "t_mapping(t_address,t_struct(UintSet)12792_storage)"
      },
      {
        "astId": 23777,
        "contract": "contracts/nft/TellerNFT.sol:TellerNFT",
        "label": "_metadataBaseURI",
        "offset": 0,
        "slot": "206",
        "type": "t_string_storage"
      },
      {
        "astId": 23779,
        "contract": "contracts/nft/TellerNFT.sol:TellerNFT",
        "label": "_contractURIHash",
        "offset": 0,
        "slot": "207",
        "type": "t_string_storage"
      }
    ],
    "types": {
      "t_address": {
        "encoding": "inplace",
        "label": "address",
        "numberOfBytes": "20"
      },
      "t_array(t_bytes32)dyn_storage": {
        "base": "t_bytes32",
        "encoding": "dynamic_array",
        "label": "bytes32[]",
        "numberOfBytes": "32"
      },
      "t_array(t_string_storage)dyn_storage": {
        "base": "t_string_storage",
        "encoding": "dynamic_array",
        "label": "string[]",
        "numberOfBytes": "32"
      },
      "t_array(t_uint256)44_storage": {
        "base": "t_uint256",
        "encoding": "inplace",
        "label": "uint256[44]",
        "numberOfBytes": "1408"
      },
      "t_array(t_uint256)49_storage": {
        "base": "t_uint256",
        "encoding": "inplace",
        "label": "uint256[49]",
        "numberOfBytes": "1568"
      },
      "t_array(t_uint256)50_storage": {
        "base": "t_uint256",
        "encoding": "inplace",
        "label": "uint256[50]",
        "numberOfBytes": "1600"
      },
      "t_bool": {
        "encoding": "inplace",
        "label": "bool",
        "numberOfBytes": "1"
      },
      "t_bytes32": {
        "encoding": "inplace",
        "label": "bytes32",
        "numberOfBytes": "32"
      },
      "t_mapping(t_address,t_bool)": {
        "encoding": "mapping",
        "key": "t_address",
        "label": "mapping(address => bool)",
        "numberOfBytes": "32",
        "value": "t_bool"
      },
      "t_mapping(t_address,t_mapping(t_address,t_bool))": {
        "encoding": "mapping",
        "key": "t_address",
        "label": "mapping(address => mapping(address => bool))",
        "numberOfBytes": "32",
        "value": "t_mapping(t_address,t_bool)"
      },
      "t_mapping(t_address,t_struct(UintSet)12792_storage)": {
        "encoding": "mapping",
        "key": "t_address",
        "label": "mapping(address => struct EnumerableSet.UintSet)",
        "numberOfBytes": "32",
        "value": "t_struct(UintSet)12792_storage"
      },
      "t_mapping(t_address,t_uint256)": {
        "encoding": "mapping",
        "key": "t_address",
        "label": "mapping(address => uint256)",
        "numberOfBytes": "32",
        "value": "t_uint256"
      },
      "t_mapping(t_bytes32,t_struct(RoleData)4808_storage)": {
        "encoding": "mapping",
        "key": "t_bytes32",
        "label": "mapping(bytes32 => struct AccessControlUpgradeable.RoleData)",
        "numberOfBytes": "32",
        "value": "t_struct(RoleData)4808_storage"
      },
      "t_mapping(t_bytes32,t_uint256)": {
        "encoding": "mapping",
        "key": "t_bytes32",
        "label": "mapping(bytes32 => uint256)",
        "numberOfBytes": "32",
        "value": "t_uint256"
      },
      "t_mapping(t_uint256,t_address)": {
        "encoding": "mapping",
        "key": "t_uint256",
        "label": "mapping(uint256 => address)",
        "numberOfBytes": "32",
        "value": "t_address"
      },
      "t_mapping(t_uint256,t_struct(Tier)23265_storage)": {
        "encoding": "mapping",
        "key": "t_uint256",
        "label": "mapping(uint256 => struct ITellerNFT.Tier)",
        "numberOfBytes": "32",
        "value": "t_struct(Tier)23265_storage"
      },
      "t_mapping(t_uint256,t_uint256)": {
        "encoding": "mapping",
        "key": "t_uint256",
        "label": "mapping(uint256 => uint256)",
        "numberOfBytes": "32",
        "value": "t_uint256"
      },
      "t_string_storage": {
        "encoding": "bytes",
        "label": "string",
        "numberOfBytes": "32"
      },
      "t_struct(Counter)11056_storage": {
        "encoding": "inplace",
        "label": "struct Counters.Counter",
        "members": [
          {
            "astId": 11055,
            "contract": "contracts/nft/TellerNFT.sol:TellerNFT",
            "label": "_value",
            "offset": 0,
            "slot": "0",
            "type": "t_uint256"
          }
        ],
        "numberOfBytes": "32"
      },
      "t_struct(RoleData)4808_storage": {
        "encoding": "inplace",
        "label": "struct AccessControlUpgradeable.RoleData",
        "members": [
          {
            "astId": 4805,
            "contract": "contracts/nft/TellerNFT.sol:TellerNFT",
            "label": "members",
            "offset": 0,
            "slot": "0",
            "type": "t_mapping(t_address,t_bool)"
          },
          {
            "astId": 4807,
            "contract": "contracts/nft/TellerNFT.sol:TellerNFT",
            "label": "adminRole",
            "offset": 0,
            "slot": "1",
            "type": "t_bytes32"
          }
        ],
        "numberOfBytes": "64"
      },
      "t_struct(Set)12394_storage": {
        "encoding": "inplace",
        "label": "struct EnumerableSet.Set",
        "members": [
          {
            "astId": 12389,
            "contract": "contracts/nft/TellerNFT.sol:TellerNFT",
            "label": "_values",
            "offset": 0,
            "slot": "0",
            "type": "t_array(t_bytes32)dyn_storage"
          },
          {
            "astId": 12393,
            "contract": "contracts/nft/TellerNFT.sol:TellerNFT",
            "label": "_indexes",
            "offset": 0,
            "slot": "1",
            "type": "t_mapping(t_bytes32,t_uint256)"
          }
        ],
        "numberOfBytes": "64"
      },
      "t_struct(Tier)23265_storage": {
        "encoding": "inplace",
        "label": "struct ITellerNFT.Tier",
        "members": [
          {
            "astId": 23255,
            "contract": "contracts/nft/TellerNFT.sol:TellerNFT",
            "label": "baseLoanSize",
            "offset": 0,
            "slot": "0",
            "type": "t_uint256"
          },
          {
            "astId": 23258,
            "contract": "contracts/nft/TellerNFT.sol:TellerNFT",
            "label": "hashes",
            "offset": 0,
            "slot": "1",
            "type": "t_array(t_string_storage)dyn_storage"
          },
          {
            "astId": 23260,
            "contract": "contracts/nft/TellerNFT.sol:TellerNFT",
            "label": "contributionAsset",
            "offset": 0,
            "slot": "2",
            "type": "t_address"
          },
          {
            "astId": 23262,
            "contract": "contracts/nft/TellerNFT.sol:TellerNFT",
            "label": "contributionSize",
            "offset": 0,
            "slot": "3",
            "type": "t_uint256"
          },
          {
            "astId": 23264,
            "contract": "contracts/nft/TellerNFT.sol:TellerNFT",
            "label": "contributionMultiplier",
            "offset": 0,
            "slot": "4",
            "type": "t_uint8"
          }
        ],
        "numberOfBytes": "160"
      },
      "t_struct(UintSet)12792_storage": {
        "encoding": "inplace",
        "label": "struct EnumerableSet.UintSet",
        "members": [
          {
            "astId": 12791,
            "contract": "contracts/nft/TellerNFT.sol:TellerNFT",
            "label": "_inner",
            "offset": 0,
            "slot": "0",
            "type": "t_struct(Set)12394_storage"
          }
        ],
        "numberOfBytes": "64"
      },
      "t_uint256": {
        "encoding": "inplace",
        "label": "uint256",
        "numberOfBytes": "32"
      },
      "t_uint8": {
        "encoding": "inplace",
        "label": "uint8",
        "numberOfBytes": "1"
      }
    }
  }
}