{
  "address": "0xA845d81D415FF7122460e7eBb64a5CBA7c40eC1F",
  "abi": [
    {
      "anonymous": false,
      "inputs": [
        {
          "indexed": true,
          "internalType": "string",
          "name": "strategyName",
          "type": "string"
        },
        {
          "indexed": false,
          "internalType": "address",
          "name": "investmentAsset",
          "type": "address"
        },
        {
          "indexed": true,
          "internalType": "address",
          "name": "sender",
          "type": "address"
        }
      ],
      "name": "StrategyInitialized",
      "type": "event"
    },
    {
      "anonymous": false,
      "inputs": [
        {
          "indexed": true,
          "internalType": "string",
          "name": "strategyName",
          "type": "string"
        },
        {
          "indexed": true,
          "internalType": "address",
          "name": "sender",
          "type": "address"
        }
      ],
      "name": "StrategyRebalanced",
      "type": "event"
    },
    {
      "inputs": [],
      "name": "NAME",
      "outputs": [
        {
          "internalType": "string",
          "name": "",
          "type": "string"
        }
      ],
      "stateMutability": "view",
      "type": "function"
    },
    {
      "inputs": [
        {
          "internalType": "address",
          "name": "cTokenAddress",
          "type": "address"
        },
        {
          "internalType": "uint16",
          "name": "balanceRatioMin",
          "type": "uint16"
        },
        {
          "internalType": "uint16",
          "name": "balanceRatioMax",
          "type": "uint16"
        }
      ],
      "name": "init",
      "outputs": [],
      "stateMutability": "nonpayable",
      "type": "function"
    },
    {
      "inputs": [],
      "name": "rebalance",
      "outputs": [],
      "stateMutability": "nonpayable",
      "type": "function"
    },
    {
      "inputs": [
        {
          "internalType": "bytes4",
          "name": "interfaceId",
          "type": "bytes4"
        }
      ],
      "name": "supportsInterface",
      "outputs": [
        {
          "internalType": "bool",
          "name": "",
          "type": "bool"
        }
      ],
      "stateMutability": "view",
      "type": "function"
    },
    {
      "inputs": [],
      "name": "totalUnderlyingSupply",
      "outputs": [
        {
          "internalType": "uint256",
          "name": "",
          "type": "uint256"
        }
      ],
      "stateMutability": "nonpayable",
      "type": "function"
    },
    {
      "inputs": [
        {
          "internalType": "uint256",
          "name": "amount",
          "type": "uint256"
        }
      ],
      "name": "withdraw",
      "outputs": [],
      "stateMutability": "nonpayable",
      "type": "function"
    }
  ],
  "artifactName": "TTokenCompoundStrategy_1",
  "transactionHash": "0xdfb2d1c76acdb8309807d2cf2932f7cce4d05639232de5975f84ea0ecd7f8ea6",
  "args": [],
  "solcInputHash": "2f48200b1837e05d9756a8e8b45c14c8",
  "bytecode": "0x608060405234801561001057600080fd5b5061109e806100206000396000f3fe608060405234801561001057600080fd5b50600436106100625760003560e01c806301ffc9a71461006757806307748e421461008f578063143a08d4146100a45780632e1a7d4d146100ba5780637d7c2a1c146100cd578063a3f4df7e146100d5575b600080fd5b61007a610075366004610ea0565b610113565b60405190151581526020015b60405180910390f35b6100a261009d366004610e31565b61014a565b005b6100ac6102b7565b604051908152602001610086565b6100a26100c8366004610ec8565b6103ec565b6100a2610414565b61010660405180604001604052806012815260200171436f6d706f756e6453747261746567795f3160701b81525081565b6040516100869190610f14565b60006301ffc9a760e01b6001600160e01b03198316148061014457506001600160e01b0319821663475c5f8560e01b145b92915050565b8161ffff168161ffff16116101d75760405162461bcd60e51b815260206004820152604260248201527f54656c6c65723a204d617820726174696f2062616c616e63652073686f756c6460448201527f2062652067726561746572207468616e204d696e20726174696f2062616c616e606482015261636560f01b608482015260a4015b60405180910390fd5b600080516020611049833981519152805461ffff838116600160a01b02600163ffff000160a01b03199092166001600160a01b03871617600160b01b918616919091021761ffff60a01b191617905561022e61070a565b6001600160a01b031660405180604001604052806012815260200171436f6d706f756e6453747261746567795f3160701b81525060405161026f9190610ef8565b6040519081900381206001600160a01b0386168252907fac3f0cbcb75d3174f0f26cd9fdfa8304faf42b33fdc5fcea53eb3948986e1ab79060200160405180910390a3505050565b600060008051602061104983398151915254604051633af9e66960e01b81523060048201526001600160a01b0390911690633af9e66990602401602060405180830381600087803b15801561030b57600080fd5b505af115801561031f573d6000803e3d6000fd5b505050506040513d601f19601f820116820180604052508101906103439190610ee0565b7ff72b349e2c69862bdc86afd2a363bf16c24bd97d10f7ac9d49f7e2eedebba2b4546040516370a0823160e01b81523060048201526001600160a01b03909116906370a082319060240160206040518083038186803b1580156103a557600080fd5b505afa1580156103b9573d6000803e3d6000fd5b505050506040513d601f19601f820116820180604052508101906103dd9190610ee0565b6103e79190610f6d565b905090565b6000806103f7610767565b50915091508282101561040f5761040f8383836108ad565b505050565b6000806000610421610767565b92509250925061043c60008051602061104983398151915290565b5461ffff600160a01b9091048116908216111561066e576000600260008051602061104983398151915254600160b01b900461ffff16600080516020611049833981519152546104979190600160a01b900461ffff16610f47565b6104a19190610f85565b905060006104b86104b28587610f6d565b83610a27565b905060006104c68287610fd9565b90506105157ff72b349e2c69862bdc86afd2a363bf16c24bd97d10f7ac9d49f7e2eedebba2b4546001600160a01b0316600080516020611049833981519152546001600160a01b031683610a4b565b60006000805160206110498339815191525460405163140e25ad60e31b8152600481018490526001600160a01b039091169063a0712d6890602401602060405180830381600087803b15801561056a57600080fd5b505af115801561057e573d6000803e3d6000fd5b505050506040513d601f19601f820116820180604052508101906105a29190610ee0565b146106015760405162461bcd60e51b815260206004820152602960248201527f54656c6c65723a205374726174656779206465706f736974206572726f72202d6044820152680810dbdb5c1bdd5b9960ba1b60648201526084016101ce565b6040805180820182526012815271436f6d706f756e6453747261746567795f3160701b60208201529051339161063691610ef8565b604051908190038120907f6fdf209766b5dcac078a26790f7b3adf9db4e6e47d7bd8b84b754d0aff00d9e890600090a3505050505050565b6000805160206110498339815191525461ffff600160b01b9091048116908216101561040f576106a0600084846108ad565b6040805180820182526012815271436f6d706f756e6453747261746567795f3160701b6020820152905133916106d591610ef8565b604051908190038120907f6fdf209766b5dcac078a26790f7b3adf9db4e6e47d7bd8b84b754d0aff00d9e890600090a3505050565b60003330141561076157600080368080601f0160208091040260200160405190810160405280939291908181526020018383808284376000920191909152505050503601516001600160a01b031691506107649050565b50335b90565b600080807ff72b349e2c69862bdc86afd2a363bf16c24bd97d10f7ac9d49f7e2eedebba2b4546040516370a0823160e01b81523060048201526001600160a01b03909116906370a082319060240160206040518083038186803b1580156107cd57600080fd5b505afa1580156107e1573d6000803e3d6000fd5b505050506040513d601f19601f820116820180604052508101906108059190610ee0565b925060008051602061104983398151915254604051633af9e66960e01b81523060048201526001600160a01b0390911690633af9e66990602401602060405180830381600087803b15801561085957600080fd5b505af115801561086d573d6000803e3d6000fd5b505050506040513d601f19601f820116820180604052508101906108919190610ee0565b91506108a6836108a18482610f6d565b610b34565b9050909192565b6000600260008051602061104983398151915254600160b01b900461ffff16600080516020611049833981519152546108f19190600160a01b900461ffff16610f47565b6108fb9190610f85565b905060006109178561090d8587610f6d565b6104b29190610fd9565b90506000846109268784610f6d565b6109309190610fd9565b905060006000805160206110498339815191525460405163852a12e360e01b8152600481018490526001600160a01b039091169063852a12e390602401602060405180830381600087803b15801561098757600080fd5b505af115801561099b573d6000803e3d6000fd5b505050506040513d601f19601f820116820180604052508101906109bf9190610ee0565b14610a1f5760405162461bcd60e51b815260206004820152602a60248201527f54656c6c65723a205374726174656779207769746864726177206572726f72206044820152690b4810dbdb5c1bdd5b9960b21b60648201526084016101ce565b505050505050565b6000612710610a3a61ffff841685610fba565b610a449190610fa6565b9392505050565b604051636eb1769f60e11b81523060048201526001600160a01b038381166024830152600091839186169063dd62ed3e9060440160206040518083038186803b158015610a9757600080fd5b505afa158015610aab573d6000803e3d6000fd5b505050506040513d601f19601f82011682018060405250810190610acf9190610ee0565b610ad99190610f6d565b604080516001600160a01b038616602482015260448082018490528251808303909101815260649091019091526020810180516001600160e01b031663095ea7b360e01b179052909150610b2e908590610b69565b50505050565b60008115610b6057610b5b82610b4c61271086610fba565b610b569190610fa6565b610c3b565b610a44565b50600092915050565b6000610bbe826040518060400160405280602081526020017f5361666545524332303a206c6f772d6c6576656c2063616c6c206661696c6564815250856001600160a01b0316610ca29092919063ffffffff16565b80519091501561040f5780806020019051810190610bdc9190610e80565b61040f5760405162461bcd60e51b815260206004820152602a60248201527f5361666545524332303a204552433230206f7065726174696f6e20646964206e6044820152691bdd081cdd58d8d9595960b21b60648201526084016101ce565b600061ffff821115610c9e5760405162461bcd60e51b815260206004820152602660248201527f53616665436173743a2076616c756520646f65736e27742066697420696e203160448201526536206269747360d01b60648201526084016101ce565b5090565b6060610cb18484600085610cb9565b949350505050565b606082471015610d1a5760405162461bcd60e51b815260206004820152602660248201527f416464726573733a20696e73756666696369656e742062616c616e636520666f6044820152651c8818d85b1b60d21b60648201526084016101ce565b843b610d685760405162461bcd60e51b815260206004820152601d60248201527f416464726573733a2063616c6c20746f206e6f6e2d636f6e747261637400000060448201526064016101ce565b600080866001600160a01b03168587604051610d849190610ef8565b60006040518083038185875af1925050503d8060008114610dc1576040519150601f19603f3d011682016040523d82523d6000602084013e610dc6565b606091505b5091509150610dd6828286610de1565b979650505050505050565b60608315610df0575081610a44565b825115610e005782518084602001fd5b8160405162461bcd60e51b81526004016101ce9190610f14565b803561ffff81168114610e2c57600080fd5b919050565b600080600060608486031215610e45578283fd5b83356001600160a01b0381168114610e5b578384fd5b9250610e6960208501610e1a565b9150610e7760408501610e1a565b90509250925092565b600060208284031215610e91578081fd5b81518015158114610a44578182fd5b600060208284031215610eb1578081fd5b81356001600160e01b031981168114610a44578182fd5b600060208284031215610ed9578081fd5b5035919050565b600060208284031215610ef1578081fd5b5051919050565b60008251610f0a818460208701610ff0565b9190910192915050565b6020815260008251806020840152610f33816040850160208701610ff0565b601f01601f19169190910160400192915050565b600061ffff808316818516808303821115610f6457610f6461101c565b01949350505050565b60008219821115610f8057610f8061101c565b500190565b600061ffff80841680610f9a57610f9a611032565b92169190910492915050565b600082610fb557610fb5611032565b500490565b6000816000190483118215151615610fd457610fd461101c565b500290565b600082821015610feb57610feb61101c565b500390565b60005b8381101561100b578181015183820152602001610ff3565b83811115610b2e5750506000910152565b634e487b7160e01b600052601160045260246000fd5b634e487b7160e01b600052601260045260246000fdfed3587eaf1ad651488a9caa8b9da3f6a00a087652e2f69c943fec67c95f1cd7cca2646970667358221220c3b823b4644899e48c66b4f410fde354aefee8e1abf2a3a2f417f8d3a5e61fe464736f6c63430008040033",
  "devdoc": {
    "kind": "dev",
    "methods": {
      "init(address,uint16,uint16)": {
        "details": "Note that the balanceRatio percentages have to be scaled by ONE_HUNDRED_PERCENT",
        "params": {
          "balanceRatioMax": "Percentage indicating the _ limit of underlying token balance should remain on the TToken",
          "balanceRatioMin": "Percentage indicating the _ limit of underlying token balance should remain on the TToken",
          "cTokenAddress": "Address of the Compound token that has the same underlying asset as the TToken."
        }
      },
      "supportsInterface(bytes4)": {
        "params": {
          "interfaceId": "Id of the interface in question"
        }
      },
      "totalUnderlyingSupply()": {
        "returns": {
          "_0": "uint256 the underlying supply"
        }
      },
      "withdraw(uint256)": {
        "params": {
          "amount": "Amount of underlying tokens that must be available."
        }
      }
    },
    "stateVariables": {
      "compoundStore": {
        "details": "it creates a reference to the Compound storage"
      },
      "tokenStore": {
        "details": "it creates a reference to the TToken storage"
      }
    },
    "version": 1
  },
  "userdoc": {
    "events": {
      "StrategyInitialized(string,address,address)": {
        "notice": "This event is emitted when the underlying assets are rebalanced as directed by the set investment strategy."
      },
      "StrategyRebalanced(string,address)": {
        "notice": "This event is emitted when the underlying assets are rebalanced as directed by the set investment strategy."
      }
    },
    "kind": "user",
    "methods": {
      "init(address,uint16,uint16)": {
        "notice": "Sets the Compound token that should be used to manage the underlying Teller Token asset."
      },
      "rebalance()": {
        "notice": "Rebalances the underlying asset held by the Teller Token. This strategy looks at the ratio of held underlying asset balance and balance deposited into Compound. Based on the store {balanceRatioMin} and {balanceRatioMax} values, will deposit (storedRatio > balanceRatioMax) or withdraw to keep the ratio within that range."
      },
      "supportsInterface(bytes4)": {
        "notice": "it checks if interface is supported according to the ERC165 standard"
      },
      "totalUnderlyingSupply()": {
        "notice": "it returns the total supply of an underlying asset in a Teller token."
      },
      "withdraw(uint256)": {
        "notice": "Rebalances the TToken funds by indicating a minimum {amount} of underlying tokens that must be present  after the call.If the minimum amount is present, no rebalance happens."
      }
    },
    "version": 1
  },
  "storageLayout": {
    "storage": [
      {
        "astId": 5253,
        "contract": "contracts/lending/ttoken/strategies/compound/TTokenCompoundStrategy_1.sol:TTokenCompoundStrategy_1",
        "label": "_initialized",
        "offset": 0,
        "slot": "0",
        "type": "t_bool"
      },
      {
        "astId": 5256,
        "contract": "contracts/lending/ttoken/strategies/compound/TTokenCompoundStrategy_1.sol:TTokenCompoundStrategy_1",
        "label": "_initializing",
        "offset": 1,
        "slot": "0",
        "type": "t_bool"
      },
      {
        "astId": 8778,
        "contract": "contracts/lending/ttoken/strategies/compound/TTokenCompoundStrategy_1.sol:TTokenCompoundStrategy_1",
        "label": "__gap",
        "offset": 0,
        "slot": "1",
        "type": "t_array(t_uint256)50_storage"
      }
    ],
    "types": {
      "t_array(t_uint256)50_storage": {
        "base": "t_uint256",
        "encoding": "inplace",
        "label": "uint256[50]",
        "numberOfBytes": "1600"
      },
      "t_bool": {
        "encoding": "inplace",
        "label": "bool",
        "numberOfBytes": "1"
      },
      "t_uint256": {
        "encoding": "inplace",
        "label": "uint256",
        "numberOfBytes": "32"
      }
    }
  }
}