{
  "address": "0x00a00F70faCf7b8154048cAe5dFA6157C49cc391",
  "abi": [
    {
      "anonymous": false,
      "inputs": [
        {
          "indexed": true,
          "internalType": "address",
          "name": "owner",
          "type": "address"
        },
        {
          "indexed": true,
          "internalType": "address",
          "name": "spender",
          "type": "address"
        },
        {
          "indexed": false,
          "internalType": "uint256",
          "name": "value",
          "type": "uint256"
        }
      ],
      "name": "Approval",
      "type": "event"
    },
    {
      "anonymous": false,
      "inputs": [
        {
          "indexed": true,
          "internalType": "address",
          "name": "sender",
          "type": "address"
        },
        {
          "indexed": false,
          "internalType": "uint256",
          "name": "tTokenAmount",
          "type": "uint256"
        },
        {
          "indexed": false,
          "internalType": "uint256",
          "name": "underlyingAmount",
          "type": "uint256"
        }
      ],
      "name": "Mint",
      "type": "event"
    },
    {
      "anonymous": false,
      "inputs": [
        {
          "indexed": true,
          "internalType": "address",
          "name": "sender",
          "type": "address"
        },
        {
          "indexed": false,
          "internalType": "uint256",
          "name": "tTokenAmount",
          "type": "uint256"
        },
        {
          "indexed": false,
          "internalType": "uint256",
          "name": "underlyingAmount",
          "type": "uint256"
        }
      ],
      "name": "Redeem",
      "type": "event"
    },
    {
      "anonymous": false,
      "inputs": [
        {
          "indexed": true,
          "internalType": "address",
          "name": "from",
          "type": "address"
        },
        {
          "indexed": true,
          "internalType": "address",
          "name": "to",
          "type": "address"
        },
        {
          "indexed": false,
          "internalType": "uint256",
          "name": "value",
          "type": "uint256"
        }
      ],
      "name": "Transfer",
      "type": "event"
    },
    {
      "inputs": [
        {
          "internalType": "address",
          "name": "owner",
          "type": "address"
        },
        {
          "internalType": "address",
          "name": "spender",
          "type": "address"
        }
      ],
      "name": "allowance",
      "outputs": [
        {
          "internalType": "uint256",
          "name": "",
          "type": "uint256"
        }
      ],
      "stateMutability": "view",
      "type": "function"
    },
    {
      "inputs": [
        {
          "internalType": "address",
          "name": "spender",
          "type": "address"
        },
        {
          "internalType": "uint256",
          "name": "amount",
          "type": "uint256"
        }
      ],
      "name": "approve",
      "outputs": [
        {
          "internalType": "bool",
          "name": "",
          "type": "bool"
        }
      ],
      "stateMutability": "nonpayable",
      "type": "function"
    },
    {
      "inputs": [
        {
          "internalType": "address",
          "name": "account",
          "type": "address"
        }
      ],
      "name": "balanceOf",
      "outputs": [
        {
          "internalType": "uint256",
          "name": "",
          "type": "uint256"
        }
      ],
      "stateMutability": "view",
      "type": "function"
    },
    {
      "inputs": [
        {
          "internalType": "address",
          "name": "account",
          "type": "address"
        }
      ],
      "name": "balanceOfUnderlying",
      "outputs": [
        {
          "internalType": "uint256",
          "name": "",
          "type": "uint256"
        }
      ],
      "stateMutability": "nonpayable",
      "type": "function"
    },
    {
      "inputs": [],
      "name": "currentTVL",
      "outputs": [
        {
          "internalType": "uint256",
          "name": "tvl_",
          "type": "uint256"
        }
      ],
      "stateMutability": "nonpayable",
      "type": "function"
    },
    {
      "inputs": [
        {
          "internalType": "uint256",
          "name": "newLoanAmount",
          "type": "uint256"
        }
      ],
      "name": "debtRatioFor",
      "outputs": [
        {
          "internalType": "uint16",
          "name": "ratio_",
          "type": "uint16"
        }
      ],
      "stateMutability": "nonpayable",
      "type": "function"
    },
    {
      "inputs": [],
      "name": "decimals",
      "outputs": [
        {
          "internalType": "uint8",
          "name": "",
          "type": "uint8"
        }
      ],
      "stateMutability": "view",
      "type": "function"
    },
    {
      "inputs": [
        {
          "internalType": "address",
          "name": "spender",
          "type": "address"
        },
        {
          "internalType": "uint256",
          "name": "subtractedValue",
          "type": "uint256"
        }
      ],
      "name": "decreaseAllowance",
      "outputs": [
        {
          "internalType": "bool",
          "name": "",
          "type": "bool"
        }
      ],
      "stateMutability": "nonpayable",
      "type": "function"
    },
    {
      "inputs": [],
      "name": "exchangeRate",
      "outputs": [
        {
          "internalType": "uint256",
          "name": "rate_",
          "type": "uint256"
        }
      ],
      "stateMutability": "nonpayable",
      "type": "function"
    },
    {
      "inputs": [
        {
          "internalType": "address",
          "name": "recipient",
          "type": "address"
        },
        {
          "internalType": "uint256",
          "name": "amount",
          "type": "uint256"
        }
      ],
      "name": "fundLoan",
      "outputs": [],
      "stateMutability": "nonpayable",
      "type": "function"
    },
    {
      "inputs": [],
      "name": "getMarketState",
      "outputs": [
        {
          "internalType": "uint256",
          "name": "totalSupplied",
          "type": "uint256"
        },
        {
          "internalType": "uint256",
          "name": "totalBorrowed",
          "type": "uint256"
        },
        {
          "internalType": "uint256",
          "name": "totalRepaid",
          "type": "uint256"
        },
        {
          "internalType": "uint256",
          "name": "totalInterestRepaid",
          "type": "uint256"
        },
        {
          "internalType": "uint256",
          "name": "totalOnLoan",
          "type": "uint256"
        }
      ],
      "stateMutability": "nonpayable",
      "type": "function"
    },
    {
      "inputs": [],
      "name": "getStrategy",
      "outputs": [
        {
          "internalType": "address",
          "name": "",
          "type": "address"
        }
      ],
      "stateMutability": "view",
      "type": "function"
    },
    {
      "inputs": [
        {
          "internalType": "bytes32",
          "name": "role",
          "type": "bytes32"
        },
        {
          "internalType": "address",
          "name": "account",
          "type": "address"
        }
      ],
      "name": "grantRole",
      "outputs": [],
      "stateMutability": "nonpayable",
      "type": "function"
    },
    {
      "inputs": [
        {
          "internalType": "bytes32",
          "name": "role",
          "type": "bytes32"
        },
        {
          "internalType": "address",
          "name": "account",
          "type": "address"
        }
      ],
      "name": "hasRole",
      "outputs": [
        {
          "internalType": "bool",
          "name": "",
          "type": "bool"
        }
      ],
      "stateMutability": "view",
      "type": "function"
    },
    {
      "inputs": [
        {
          "internalType": "address",
          "name": "spender",
          "type": "address"
        },
        {
          "internalType": "uint256",
          "name": "addedValue",
          "type": "uint256"
        }
      ],
      "name": "increaseAllowance",
      "outputs": [
        {
          "internalType": "bool",
          "name": "",
          "type": "bool"
        }
      ],
      "stateMutability": "nonpayable",
      "type": "function"
    },
    {
      "inputs": [
        {
          "internalType": "address",
          "name": "admin",
          "type": "address"
        },
        {
          "internalType": "address",
          "name": "underlying",
          "type": "address"
        }
      ],
      "name": "initialize",
      "outputs": [],
      "stateMutability": "nonpayable",
      "type": "function"
    },
    {
      "inputs": [
        {
          "internalType": "uint256",
          "name": "amount",
          "type": "uint256"
        }
      ],
      "name": "mint",
      "outputs": [
        {
          "internalType": "uint256",
          "name": "",
          "type": "uint256"
        }
      ],
      "stateMutability": "nonpayable",
      "type": "function"
    },
    {
      "inputs": [],
      "name": "name",
      "outputs": [
        {
          "internalType": "string",
          "name": "",
          "type": "string"
        }
      ],
      "stateMutability": "view",
      "type": "function"
    },
    {
      "inputs": [],
      "name": "rebalance",
      "outputs": [],
      "stateMutability": "nonpayable",
      "type": "function"
    },
    {
      "inputs": [
        {
          "internalType": "uint256",
          "name": "amount",
          "type": "uint256"
        }
      ],
      "name": "redeem",
      "outputs": [],
      "stateMutability": "nonpayable",
      "type": "function"
    },
    {
      "inputs": [
        {
          "internalType": "uint256",
          "name": "amount",
          "type": "uint256"
        }
      ],
      "name": "redeemUnderlying",
      "outputs": [],
      "stateMutability": "nonpayable",
      "type": "function"
    },
    {
      "inputs": [
        {
          "internalType": "bytes32",
          "name": "role",
          "type": "bytes32"
        }
      ],
      "name": "renounceRole",
      "outputs": [],
      "stateMutability": "nonpayable",
      "type": "function"
    },
    {
      "inputs": [
        {
          "internalType": "uint256",
          "name": "amount",
          "type": "uint256"
        },
        {
          "internalType": "uint256",
          "name": "interestAmount",
          "type": "uint256"
        }
      ],
      "name": "repayLoan",
      "outputs": [],
      "stateMutability": "nonpayable",
      "type": "function"
    },
    {
      "inputs": [
        {
          "internalType": "bool",
          "name": "state",
          "type": "bool"
        }
      ],
      "name": "restrict",
      "outputs": [],
      "stateMutability": "nonpayable",
      "type": "function"
    },
    {
      "inputs": [
        {
          "internalType": "bytes32",
          "name": "role",
          "type": "bytes32"
        },
        {
          "internalType": "address",
          "name": "account",
          "type": "address"
        }
      ],
      "name": "revokeRole",
      "outputs": [],
      "stateMutability": "nonpayable",
      "type": "function"
    },
    {
      "inputs": [
        {
          "internalType": "address",
          "name": "strategy",
          "type": "address"
        },
        {
          "internalType": "bytes",
          "name": "initData",
          "type": "bytes"
        }
      ],
      "name": "setStrategy",
      "outputs": [],
      "stateMutability": "nonpayable",
      "type": "function"
    },
    {
      "inputs": [],
      "name": "symbol",
      "outputs": [
        {
          "internalType": "string",
          "name": "",
          "type": "string"
        }
      ],
      "stateMutability": "view",
      "type": "function"
    },
    {
      "inputs": [],
      "name": "totalSupply",
      "outputs": [
        {
          "internalType": "uint256",
          "name": "",
          "type": "uint256"
        }
      ],
      "stateMutability": "view",
      "type": "function"
    },
    {
      "inputs": [],
      "name": "totalUnderlyingSupply",
      "outputs": [
        {
          "internalType": "uint256",
          "name": "",
          "type": "uint256"
        }
      ],
      "stateMutability": "nonpayable",
      "type": "function"
    },
    {
      "inputs": [
        {
          "internalType": "address",
          "name": "recipient",
          "type": "address"
        },
        {
          "internalType": "uint256",
          "name": "amount",
          "type": "uint256"
        }
      ],
      "name": "transfer",
      "outputs": [
        {
          "internalType": "bool",
          "name": "",
          "type": "bool"
        }
      ],
      "stateMutability": "nonpayable",
      "type": "function"
    },
    {
      "inputs": [
        {
          "internalType": "address",
          "name": "sender",
          "type": "address"
        },
        {
          "internalType": "address",
          "name": "recipient",
          "type": "address"
        },
        {
          "internalType": "uint256",
          "name": "amount",
          "type": "uint256"
        }
      ],
      "name": "transferFrom",
      "outputs": [
        {
          "internalType": "bool",
          "name": "",
          "type": "bool"
        }
      ],
      "stateMutability": "nonpayable",
      "type": "function"
    },
    {
      "inputs": [],
      "name": "underlying",
      "outputs": [
        {
          "internalType": "contract ERC20",
          "name": "",
          "type": "address"
        }
      ],
      "stateMutability": "view",
      "type": "function"
    }
  ],
  "artifactName": "TToken_V1",
  "transactionHash": "0x5810c649dcfac46a4801032944f248b52bcf48b6ee8b5bb59182c49e37d7ae88",
  "args": [],
  "solcInputHash": "dc3b3c0336b59a4fae33a8cd036a81b5",
  "bytecode": "0x608060405234801561001057600080fd5b50612948806100206000396000f3fe608060405234801561001057600080fd5b50600436106101f05760003560e01c80638a700b531161010f578063be71e66c116100a2578063db006a7511610071578063db006a751461042e578063dd62ed3e14610441578063e920b1e11461047a578063ecfd35191461048d576101f0565b8063be71e66c146103c5578063d547741f146103d8578063d8165743146103eb578063d8774d991461041b576101f0565b8063a0712d68116100de578063a0712d6814610384578063a457c2d714610397578063a9059cbb146103aa578063a95411e0146103bd576101f0565b80638a700b53146103435780638bb9c5bf1461035657806391d148541461036957806395d89b411461037c576101f0565b806339509351116101875780636f307dc3116101565780636f307dc3146102f757806370a08231146102ff5780637d7c2a1c14610328578063852a12e314610330576101f0565b806339509351146102b65780633af9e669146102c95780633ba0b9a9146102dc578063485cc955146102e4576101f0565b806318160ddd116101c357806318160ddd1461026c57806323b872dd146102745780632f2ff15d14610287578063313ce5671461029c576101f0565b806306fdde03146101f557806307da060314610213578063095ea7b314610233578063143a08d414610256575b600080fd5b6101fd6104b3565b60405161020a9190612655565b60405180910390f35b61021b610546565b6040516001600160a01b03909116815260200161020a565b61024661024136600461244e565b610562565b604051901515815260200161020a565b61025e610579565b60405190815260200161020a565b60355461025e565b610246610282366004612395565b6105cc565b61029a6102953660046124c7565b610684565b005b6102a46106ca565b60405160ff909116815260200161020a565b6102466102c436600461244e565b6106e0565b61025e6102d7366004612349565b610717565b61025e610749565b61029a6102f2366004612363565b610794565b61021b610b1a565b61025e61030d366004612349565b6001600160a01b031660009081526033602052604090205490565b61029a610b33565b61029a61033e3660046124af565b610b68565b61029a61035136600461259f565b610c27565b61029a6103643660046124af565b610ca4565b6102466103773660046124c7565b610cae565b6101fd610cba565b61025e6103923660046124af565b610cc9565b6102466103a536600461244e565b610eed565b6102466103b836600461244e565b610f88565b61025e610f95565b61029a6103d33660046123d0565b610fd9565b61029a6103e63660046124c7565b6110fe565b6103f361113e565b604080519586526020860194909452928401919091526060830152608082015260a00161020a565b61029a610429366004612477565b61118d565b61029a61043c3660046124af565b6111ea565b61025e61044f366004612363565b6001600160a01b03918216600090815260346020908152604080832093909416825291909152205490565b61029a61048836600461244e565b6112a3565b6104a061049b3660046124af565b611403565b60405161ffff909116815260200161020a565b6060603680546104c290612836565b80601f01602080910402602001604051908101604052809291908181526020018280546104ee90612836565b801561053b5780601f106105105761010080835404028352916020019161053b565b820191906000526020600020905b81548152906001019060200180831161051e57829003601f168201915b505050505090505b90565b6000610550611464565b600101546001600160a01b0316905090565b600061056f338484611488565b5060015b92915050565b6040805160048152602481019091526020810180516001600160e01b031663050e823560e21b17905260009081906105b0906115ad565b9050808060200190518101906105c69190612587565b91505090565b60006105d98484846115cd565b6001600160a01b0384166000908152603460209081526040808320338452909152902054828110156106635760405162461bcd60e51b815260206004820152602860248201527f45524332303a207472616e7366657220616d6f756e74206578636565647320616044820152676c6c6f77616e636560c01b60648201526084015b60405180910390fd5b610677853361067286856127f3565b611488565b60019150505b9392505050565b6000805160206128f38339815191523361069e82826117a5565b6106ba5760405162461bcd60e51b815260040161065a90612688565b6106c484846117d9565b50505050565b60006106d4611464565b6005015460ff16905090565b3360008181526034602090815260408083206001600160a01b0387168452909152812054909161056f91859061067290869061279c565b6001600160a01b0381166000908152603360205260408120546107419061073c610749565b611856565b90505b919050565b600061075460355490565b6107675750670de0b6b3a7640000610543565b603554670de0b6b3a764000061077b610f95565b61078591906127d4565b61078f91906127b4565b905090565b600054610100900460ff16806107ad575060005460ff16155b6107c95760405162461bcd60e51b815260040161065a90612704565b600054610100900460ff161580156107eb576000805461ffff19166101011790555b333b6108395760405162461bcd60e51b815260206004820152601f60248201527f54656c6c65723a20636f6e74726f6c6c6572206e6f7420636f6e747261637400604482015260640161065a565b813b6108955760405162461bcd60e51b815260206004820152602560248201527f54656c6c65723a20756e6465726c79696e6720746f6b656e206e6f7420636f6e6044820152641d1c9858dd60da1b606482015260840161065a565b6108ad6000805160206128ac833981519152336117d9565b6108c56000805160206128f3833981519152846117d9565b816108ce611464565b80546001600160a01b0319166001600160a01b0392909216919091179055610a406108f7611464565b54604080516306fdde0360e01b815290516001600160a01b03909216916306fdde0391600480820192600092909190829003018186803b15801561093a57600080fd5b505afa15801561094e573d6000803e3d6000fd5b505050506040513d6000823e601f3d908101601f1916820160405261097691908101906124e9565b60405160200161098691906125fd565b60405160208183030381529060405261099d611464565b54604080516395d89b4160e01b815290516001600160a01b03909216916395d89b4191600480820192600092909190829003018186803b1580156109e057600080fd5b505afa1580156109f4573d6000803e3d6000fd5b505050506040513d6000823e601f3d908101601f19168201604052610a1c91908101906124e9565b604051602001610a2c919061262c565b604051602081830303815290604052611875565b610a48611464565b546040805163313ce56760e01b815290516001600160a01b039092169163313ce56791600480820192602092909190829003018186803b158015610a8b57600080fd5b505afa158015610a9f573d6000803e3d6000fd5b505050506040513d601f19601f82011682018060405250810190610ac391906125c0565b610acb611464565b600501805460ff191660ff929092169190911790556001610aea611464565b60050180549115156101000261ff00199092169190911790558015610b15576000805461ff00191690555b505050565b6000610b24611464565b546001600160a01b0316905090565b6040805160048152602481019091526020810180516001600160e01b0316631f5f0a8760e21b179052610b65906115ad565b50565b60008111610bb45760405162461bcd60e51b8152602060048201526019602482015278054656c6c65723a2063616e6e6f74207769746864726177203603c1b604482015260640161065a565b610bbc610579565b811115610bdb5760405162461bcd60e51b815260040161065a90612752565b6000610be5610749565b90506000610bf383836118f4565b9050610bfe3361030d565b811115610c1d5760405162461bcd60e51b815260040161065a906126bf565b610b158184611909565b6000805160206128ac83398151915233610c4182826117a5565b610c5d5760405162461bcd60e51b815260040161065a90612688565b83610c66611464565b6003016000828254610c78919061279c565b90915550839050610c87611464565b6004016000828254610c99919061279c565b909155505050505050565b610b65813361198e565b600061067d83836117a5565b6060603780546104c290612836565b6000610cd3611464565b60050154610100900460ff161580610cfe5750610cfe6000805160206128ac833981519152336117a5565b610d4a5760405162461bcd60e51b815260206004820152601b60248201527f54656c6c65723a20706c6174666f726d20726573747269637465640000000000604482015260640161065a565b60008211610d925760405162461bcd60e51b8152602060048201526015602482015274054656c6c65723a2063616e6e6f74206d696e74203605c1b604482015260640161065a565b610d9a611464565b546001600160a01b03166370a08231336040516001600160e01b031960e084901b1681526001600160a01b03909116600482015260240160206040518083038186803b158015610de957600080fd5b505afa158015610dfd573d6000803e3d6000fd5b505050506040513d601f19601f82011682018060405250810190610e219190612587565b821115610e705760405162461bcd60e51b815260206004820152601f60248201527f54656c6c65723a20696e73756666696369656e7420756e6465726c79696e6700604482015260640161065a565b6000610e8383610e7e610749565b6118f4565b9050610ea2610e90611464565b546001600160a01b0316333086611a0a565b610eac3382611a75565b604080518281526020810185905233917f4c209b5fc8ad50758f13e2e1088ba56a560dff690a1c6fef26394f4c03821c4f910160405180910390a292915050565b3360009081526034602090815260408083206001600160a01b038616845290915281205482811015610f6f5760405162461bcd60e51b815260206004820152602560248201527f45524332303a2064656372656173656420616c6c6f77616e63652062656c6f77604482015264207a65726f60d81b606482015260840161065a565b610f7e338561067286856127f3565b5060019392505050565b600061056f3384846115cd565b6000610f9f610579565b610fa9908261279c565b9050610fb3611464565b60020154610fc1908261279c565b9050610fcb611464565b6003015461078f90826127f3565b6000805160206128f383398151915233610ff382826117a5565b61100f5760405162461bcd60e51b815260040161065a90612688565b6110208563475c5f8560e01b611b54565b6110865760405162461bcd60e51b815260206004820152603160248201527f54656c6c65723a20737472617465677920646f6573206e6f7420737570706f7260448201527074204954546f6b656e537472617465677960781b606482015260840161065a565b8461108f611464565b60010180546001600160a01b0319166001600160a01b039290921691909117905582156110f7576110f584848080601f0160208091040260200160405190810160405280939291908181526020018383808284376000920191909152506115ad92505050565b505b5050505050565b6000805160206128f38339815191523361111882826117a5565b6111345760405162461bcd60e51b815260040161065a90612688565b6106c4848461198e565b600080600080600061114e610579565b9450611158611464565b600201549350611166611464565b600301549250611174611464565b60040154915061118483856127f3565b90509091929394565b6000805160206128f3833981519152336111a782826117a5565b6111c35760405162461bcd60e51b815260040161065a90612688565b826111cc611464565b60050180549115156101000261ff0019909216919091179055505050565b600081116112365760405162461bcd60e51b8152602060048201526019602482015278054656c6c65723a2063616e6e6f74207769746864726177203603c1b604482015260640161065a565b61123f3361030d565b81111561125e5760405162461bcd60e51b815260040161065a906126bf565b600061126c8261073c610749565b9050611276610579565b8111156112955760405162461bcd60e51b815260040161065a90612752565b61129f8282611909565b5050565b6000805160206128ac833981519152336112bd82826117a5565b6112d95760405162461bcd60e51b815260040161065a90612688565b60006112e3611464565b546040516370a0823160e01b81523060048201526001600160a01b03909116906370a082319060240160206040518083038186803b15801561132457600080fd5b505afa158015611338573d6000803e3d6000fd5b505050506040513d601f19601f8201168201806040525081019061135c9190612587565b9050838110156113c6576113c4632e1a7d4d60e01b61137b83876127f3565b60405160240161138d91815260200190565b60408051601f198184030181529190526020810180516001600160e01b03166001600160e01b0319909316929092179091526115ad565b505b836113cf611464565b60020160008282546113e1919061279c565b909155506110f790506113f2611464565b546001600160a01b03168686611b70565b60008061140e611464565b6003015461141a611464565b6002015461142891906127f3565b9050600081611435610579565b61143f919061279c565b9050801561145d5761145a611454858461279c565b82611ba0565b92505b5050919050565b7ff72b349e2c69862bdc86afd2a363bf16c24bd97d10f7ac9d49f7e2eedebba2b490565b6001600160a01b0383166114ea5760405162461bcd60e51b8152602060048201526024808201527f45524332303a20617070726f76652066726f6d20746865207a65726f206164646044820152637265737360e01b606482015260840161065a565b6001600160a01b03821661154b5760405162461bcd60e51b815260206004820152602260248201527f45524332303a20617070726f766520746f20746865207a65726f206164647265604482015261737360f01b606482015260840161065a565b6001600160a01b0383811660008181526034602090815260408083209487168084529482529182902085905590518481527f8c5be1e5ebec7d5bd14f71427d1e84f3dd0314c0f7b2291e5b200ac8c7c3b92591015b60405180910390a3505050565b60606107416115ba611464565b600101546001600160a01b031683611bcd565b6001600160a01b0383166116315760405162461bcd60e51b815260206004820152602560248201527f45524332303a207472616e736665722066726f6d20746865207a65726f206164604482015264647265737360d81b606482015260840161065a565b6001600160a01b0382166116935760405162461bcd60e51b815260206004820152602360248201527f45524332303a207472616e7366657220746f20746865207a65726f206164647260448201526265737360e81b606482015260840161065a565b6001600160a01b0383166000908152603360205260409020548181101561170b5760405162461bcd60e51b815260206004820152602660248201527f45524332303a207472616e7366657220616d6f756e7420657863656564732062604482015265616c616e636560d01b606482015260840161065a565b61171582826127f3565b6001600160a01b03808616600090815260336020526040808220939093559085168152908120805484929061174b90849061279c565b92505081905550826001600160a01b0316846001600160a01b03167fddf252ad1be2c89b69c2b068fc378daa952ba7f163c4a11628f55a4df523b3ef8460405161179791815260200190565b60405180910390a350505050565b60006117af611bf2565b6000938452602090815260408085206001600160a01b039490941685529290525090205460ff1690565b6117e382826117a5565b156117ed5761129f565b60016117f7611bf2565b6000848152602091825260408082206001600160a01b0386168084529352808220805460ff1916941515949094179093559151339285917f2f8788117e7eff1d82e926ec794901d17c78024a50270940304540a733656f0d9190a45050565b6000670de0b6b3a764000061186b83856127d4565b61067d91906127b4565b600054610100900460ff168061188e575060005460ff16155b6118aa5760405162461bcd60e51b815260040161065a90612704565b600054610100900460ff161580156118cc576000805461ffff19166101011790555b6118d4611c1a565b6118de8383611c85565b8015610b15576000805461ff0019169055505050565b60008161186b670de0b6b3a7640000856127d4565b6119133383611d1a565b6040516024810182905261193290632e1a7d4d60e01b9060440161138d565b5061194f61193e611464565b546001600160a01b03163383611b70565b604080518381526020810183905233917fe5b754fb1abb7f01b499791d0b820ae3b6af3424ac1c59768edb53f4ec31a929910160405180910390a25050565b61199882826117a5565b6119a15761129f565b60006119ab611bf2565b6000848152602091825260408082206001600160a01b0386168084529352808220805460ff1916941515949094179093559151339285917ff6391f5c32d9c69d2a47ea670b442974b53935d1edc7fd64eb21e047a839171b9190a45050565b6040516001600160a01b03808516602483015283166044820152606481018290526106c49085906323b872dd60e01b906084015b60408051601f198184030181529190526020810180516001600160e01b03166001600160e01b031990931692909217909152611e69565b6001600160a01b038216611acb5760405162461bcd60e51b815260206004820152601f60248201527f45524332303a206d696e7420746f20746865207a65726f206164647265737300604482015260640161065a565b8060356000828254611add919061279c565b90915550506001600160a01b03821660009081526033602052604081208054839290611b0a90849061279c565b90915550506040518181526001600160a01b038316906000907fddf252ad1be2c89b69c2b068fc378daa952ba7f163c4a11628f55a4df523b3ef9060200160405180910390a35050565b6000611b5f83611f3b565b801561067d575061067d8383611f6e565b6040516001600160a01b038316602482015260448101829052610b1590849063a9059cbb60e01b90606401611a3e565b60008115611bc45781611bb5612710856127d4565b611bbf91906127b4565b61067d565b50600092915050565b606061067d83836040518060600160405280602781526020016128cc60279139612057565b60007f7b305b6be5f275f648d05716597c483d754c2a242bd605feba3c64fb8536053461078f565b600054610100900460ff1680611c33575060005460ff16155b611c4f5760405162461bcd60e51b815260040161065a90612704565b600054610100900460ff16158015611c71576000805461ffff19166101011790555b8015610b65576000805461ff001916905550565b600054610100900460ff1680611c9e575060005460ff16155b611cba5760405162461bcd60e51b815260040161065a90612704565b600054610100900460ff16158015611cdc576000805461ffff19166101011790555b8251611cef906036906020860190612299565b508151611d03906037906020850190612299565b508015610b15576000805461ff0019169055505050565b6001600160a01b038216611d7a5760405162461bcd60e51b815260206004820152602160248201527f45524332303a206275726e2066726f6d20746865207a65726f206164647265736044820152607360f81b606482015260840161065a565b6001600160a01b03821660009081526033602052604090205481811015611dee5760405162461bcd60e51b815260206004820152602260248201527f45524332303a206275726e20616d6f756e7420657863656564732062616c616e604482015261636560f01b606482015260840161065a565b611df882826127f3565b6001600160a01b03841660009081526033602052604081209190915560358054849290611e269084906127f3565b90915550506040518281526000906001600160a01b038516907fddf252ad1be2c89b69c2b068fc378daa952ba7f163c4a11628f55a4df523b3ef906020016115a0565b6000611ebe826040518060400160405280602081526020017f5361666545524332303a206c6f772d6c6576656c2063616c6c206661696c6564815250856001600160a01b03166121219092919063ffffffff16565b805190915015610b155780806020019051810190611edc9190612493565b610b155760405162461bcd60e51b815260206004820152602a60248201527f5361666545524332303a204552433230206f7065726174696f6e20646964206e6044820152691bdd081cdd58d8d9595960b21b606482015260840161065a565b6000611f4e826301ffc9a760e01b611f6e565b80156107415750611f67826001600160e01b0319611f6e565b1592915050565b604080516001600160e01b0319831660248083019190915282518083039091018152604490910182526020810180516001600160e01b03166301ffc9a760e01b179052905160009190829081906001600160a01b0387169061753090611fd59086906125e1565b6000604051808303818686fa925050503d8060008114612011576040519150601f19603f3d011682016040523d82523d6000602084013e612016565b606091505b50915091506020815110156120315760009350505050610573565b81801561204d57508080602001905181019061204d9190612493565b9695505050505050565b6060833b6120b65760405162461bcd60e51b815260206004820152602660248201527f416464726573733a2064656c65676174652063616c6c20746f206e6f6e2d636f6044820152651b9d1c9858dd60d21b606482015260840161065a565b600080856001600160a01b0316856040516120d191906125e1565b600060405180830381855af49150503d806000811461210c576040519150601f19603f3d011682016040523d82523d6000602084013e612111565b606091505b509150915061204d828286612138565b60606121308484600085612171565b949350505050565b6060831561214757508161067d565b8251156121575782518084602001fd5b8160405162461bcd60e51b815260040161065a9190612655565b6060824710156121d25760405162461bcd60e51b815260206004820152602660248201527f416464726573733a20696e73756666696369656e742062616c616e636520666f6044820152651c8818d85b1b60d21b606482015260840161065a565b843b6122205760405162461bcd60e51b815260206004820152601d60248201527f416464726573733a2063616c6c20746f206e6f6e2d636f6e7472616374000000604482015260640161065a565b600080866001600160a01b0316858760405161223c91906125e1565b60006040518083038185875af1925050503d8060008114612279576040519150601f19603f3d011682016040523d82523d6000602084013e61227e565b606091505b509150915061228e828286612138565b979650505050505050565b8280546122a590612836565b90600052602060002090601f0160209004810192826122c7576000855561230d565b82601f106122e057805160ff191683800117855561230d565b8280016001018555821561230d579182015b8281111561230d5782518255916020019190600101906122f2565b5061231992915061231d565b5090565b5b80821115612319576000815560010161231e565b80356001600160a01b038116811461074457600080fd5b60006020828403121561235a578081fd5b61067d82612332565b60008060408385031215612375578081fd5b61237e83612332565b915061238c60208401612332565b90509250929050565b6000806000606084860312156123a9578081fd5b6123b284612332565b92506123c060208501612332565b9150604084013590509250925092565b6000806000604084860312156123e4578283fd5b6123ed84612332565b9250602084013567ffffffffffffffff80821115612409578384fd5b818601915086601f83011261241c578384fd5b81358181111561242a578485fd5b87602082850101111561243b578485fd5b6020830194508093505050509250925092565b60008060408385031215612460578182fd5b61246983612332565b946020939093013593505050565b600060208284031215612488578081fd5b813561067d8161289d565b6000602082840312156124a4578081fd5b815161067d8161289d565b6000602082840312156124c0578081fd5b5035919050565b600080604083850312156124d9578182fd5b8235915061238c60208401612332565b6000602082840312156124fa578081fd5b815167ffffffffffffffff80821115612511578283fd5b818401915084601f830112612524578283fd5b81518181111561253657612536612887565b604051601f8201601f19908116603f0116810190838211818310171561255e5761255e612887565b81604052828152876020848701011115612576578586fd5b61228e83602083016020880161280a565b600060208284031215612598578081fd5b5051919050565b600080604083850312156125b1578182fd5b50508035926020909101359150565b6000602082840312156125d1578081fd5b815160ff8116811461067d578182fd5b600082516125f381846020870161280a565b9190910192915050565b60006602a32b63632b9160cd1b8252825161261f81600785016020870161280a565b9190910160070192915050565b6000601d60fa1b8252825161264881600185016020870161280a565b9190910160010192915050565b600060208252825180602084015261267481604085016020870161280a565b601f01601f19169190910160400192915050565b6020808252601d908201527f416363657373436f6e74726f6c3a206e6f7420617574686f72697a6564000000604082015260600190565b60208082526025908201527f54656c6c65723a2072656465656d20616d6f756e7420657863656564732062616040820152646c616e636560d81b606082015260800190565b6020808252602e908201527f496e697469616c697a61626c653a20636f6e747261637420697320616c72656160408201526d191e481a5b9a5d1a585b1a5e995960921b606082015260800190565b6020808252602a908201527f54656c6c65723a2072656465656d2074746f6b656e206c70206e6f7420656e6f60408201526975676820737570706c7960b01b606082015260800190565b600082198211156127af576127af612871565b500190565b6000826127cf57634e487b7160e01b81526012600452602481fd5b500490565b60008160001904831182151516156127ee576127ee612871565b500290565b60008282101561280557612805612871565b500390565b60005b8381101561282557818101518382015260200161280d565b838111156106c45750506000910152565b600181811c9082168061284a57607f821691505b6020821081141561286b57634e487b7160e01b600052602260045260246000fd5b50919050565b634e487b7160e01b600052601160045260246000fd5b634e487b7160e01b600052604160045260246000fd5b8015158114610b6557600080fdfe70546d1c92f8c2132ae23a23f5177aa8526356051c7510df99f50e012d221529416464726573733a206c6f772d6c6576656c2064656c65676174652063616c6c206661696c6564df8b4c520ffe197c5343c6f5aec59570151ef9a492f2c624fd45ddde6135ec42a2646970667358221220d0248a19cf27f725fb8be21f595bbe55c3218d689dfef92b2dd112fb090d5c0364736f6c63430008030033",
  "devdoc": {
    "author": "develop@teller.finance",
    "kind": "dev",
    "methods": {
      "allowance(address,address)": {
        "details": "See {IERC20-allowance}."
      },
      "approve(address,uint256)": {
        "details": "See {IERC20-approve}. Requirements: - `spender` cannot be the zero address."
      },
      "balanceOf(address)": {
        "details": "See {IERC20-balanceOf}."
      },
      "balanceOfUnderlying(address)": {
        "params": {
          "account": "Address to calculate the underlying balance."
        }
      },
      "currentTVL()": {
        "returns": {
          "tvl_": "The value locked in the pool. Note: This value includes the amount that is on loan (including ones that were sent to EOAs)."
        }
      },
      "debtRatioFor(uint256)": {
        "params": {
          "newLoanAmount": "the new loan amount to consider o the StD ratio."
        },
        "returns": {
          "ratio_": "Whether debt ratio for lending pool is valid."
        }
      },
      "decimals()": {
        "details": "Returns the number of decimals used to get its user representation. For example, if `decimals` equals `2`, a balance of `505` tokens should be displayed to a user as `5,05` (`505 / 10 ** 2`). Tokens usually opt for a value of 18, imitating the relationship between Ether and Wei. This is the value {ERC20} uses, unless this function is overridden; NOTE: This information is only used for _display_ purposes: it in no way affects any of the arithmetic of the contract, including {IERC20-balanceOf} and {IERC20-transfer}."
      },
      "decreaseAllowance(address,uint256)": {
        "details": "Atomically decreases the allowance granted to `spender` by the caller. This is an alternative to {approve} that can be used as a mitigation for problems described in {IERC20-approve}. Emits an {Approval} event indicating the updated allowance. Requirements: - `spender` cannot be the zero address. - `spender` must have allowance for the caller of at least `subtractedValue`."
      },
      "exchangeRate()": {
        "returns": {
          "rate_": "The current exchange rate."
        }
      },
      "fundLoan(address,uint256)": {
        "params": {
          "amount": "Funds requested to fulfil the loan.",
          "recipient": "The account to send the funds to."
        }
      },
      "getMarketState()": {
        "returns": {
          "totalBorrowed": "Total amount borrowed through loans.",
          "totalInterestRepaid": "The total amount interest repaid till the current timestamp.",
          "totalOnLoan": "Total amount currently deployed in loans.",
          "totalRepaid": "The total amount repaid till the current timestamp.",
          "totalSupplied": "Total amount of the underlying asset supplied."
        }
      },
      "grantRole(bytes32,address)": {
        "params": {
          "account": "Address to give the {role} to. Requirements:  - Sender must be role admin.",
          "role": "Encoding of the role to give."
        }
      },
      "hasRole(bytes32,address)": {
        "params": {
          "account": "Address to check the {role} for.",
          "role": "Encoding of the role to check."
        }
      },
      "increaseAllowance(address,uint256)": {
        "details": "Atomically increases the allowance granted to `spender` by the caller. This is an alternative to {approve} that can be used as a mitigation for problems described in {IERC20-approve}. Emits an {Approval} event indicating the updated allowance. Requirements: - `spender` cannot be the zero address."
      },
      "mint(uint256)": {
        "params": {
          "amount": "The amount of underlying tokens to use to mint."
        },
        "returns": {
          "_0": "Amount of TTokens minted."
        }
      },
      "name()": {
        "details": "Returns the name of the token."
      },
      "redeem(uint256)": {
        "params": {
          "amount": "The amount of Teller tokens to redeem."
        }
      },
      "redeemUnderlying(uint256)": {
        "params": {
          "amount": "The amount of underlying tokens to redeem."
        }
      },
      "renounceRole(bytes32)": {
        "params": {
          "role": "Encoding of the role to remove."
        }
      },
      "repayLoan(uint256,uint256)": {
        "params": {
          "amount": "Funds deposited back into the pool to repay the principal amount of a loan.",
          "interestAmount": "Interest value paid into the pool from a loan."
        }
      },
      "revokeRole(bytes32,address)": {
        "params": {
          "account": "Address to remove the {role} from. Requirements:  - Sender must be role admin.",
          "role": "Encoding of the role to remove."
        }
      },
      "setStrategy(address,bytes)": {
        "params": {
          "initData": "Optional data to initialize the strategy. Requirements:  - Sender must have ADMIN role",
          "strategy": "Address to the new strategy contract. Must implement the {ITTokenStrategy} interface."
        }
      },
      "symbol()": {
        "details": "Returns the symbol of the token, usually a shorter version of the name."
      },
      "totalSupply()": {
        "details": "See {IERC20-totalSupply}."
      },
      "totalUnderlyingSupply()": {
        "returns": {
          "_0": "totalSupply_ the total supply denoted in the underlying asset."
        }
      },
      "transfer(address,uint256)": {
        "details": "See {IERC20-transfer}. Requirements: - `recipient` cannot be the zero address. - the caller must have a balance of at least `amount`."
      },
      "transferFrom(address,address,uint256)": {
        "details": "See {IERC20-transferFrom}. Emits an {Approval} event indicating the updated allowance. This is not required by the EIP. See the note at the beginning of {ERC20}. Requirements: - `sender` and `recipient` cannot be the zero address. - `sender` must have a balance of at least `amount`. - the caller must have allowance for ``sender``'s tokens of at least `amount`."
      }
    },
    "version": 1
  },
  "userdoc": {
    "events": {
      "Mint(address,uint256,uint256)": {
        "notice": "This event is emitted when an user deposits tokens into the pool."
      },
      "Redeem(address,uint256,uint256)": {
        "notice": "This event is emitted when an user withdraws tokens from the pool."
      }
    },
    "kind": "user",
    "methods": {
      "balanceOfUnderlying(address)": {
        "notice": "The balance of an {account} denoted in underlying value."
      },
      "currentTVL()": {
        "notice": "Calculates the current Total Value Locked, denoted in the underlying asset, in the Teller Token pool."
      },
      "debtRatioFor(uint256)": {
        "notice": "It validates whether supply to debt (StD) ratio is valid including the loan amount."
      },
      "exchangeRate()": {
        "notice": "It calculates the current exchange rate for a whole Teller Token based of the underlying token balance."
      },
      "fundLoan(address,uint256)": {
        "notice": "Called by the Teller Diamond contract when a loan has been taken out and requires funds."
      },
      "getMarketState()": {
        "notice": "It calculates the market state values across a given markets.Returns values that represent the global state across the market."
      },
      "getStrategy()": {
        "notice": "Gets the strategy used for balancing funds."
      },
      "grantRole(bytes32,address)": {
        "notice": "Grants an account a new role."
      },
      "hasRole(bytes32,address)": {
        "notice": "Checks if an account has a specific role."
      },
      "initialize(address,address)": {
        "notice": "Initializes the Teller token"
      },
      "mint(uint256)": {
        "notice": "Deposit underlying token amount into LP and mint tokens."
      },
      "rebalance()": {
        "notice": "Rebalances the funds controlled by Teller Token according to the current strategy. See {TTokenStrategy}."
      },
      "redeem(uint256)": {
        "notice": "Redeem supplied Teller token underlying value."
      },
      "redeemUnderlying(uint256)": {
        "notice": "Redeem supplied underlying value."
      },
      "renounceRole(bytes32)": {
        "notice": "Removes a role from the sender."
      },
      "repayLoan(uint256,uint256)": {
        "notice": "Called by the Teller Diamond contract when a loan has been repaid."
      },
      "restrict(bool)": {
        "notice": "Sets the restricted state of the platform."
      },
      "revokeRole(bytes32,address)": {
        "notice": "Removes a role from an account."
      },
      "setStrategy(address,bytes)": {
        "notice": "Sets a new strategy to use for balancing funds."
      },
      "totalUnderlyingSupply()": {
        "notice": "It calculates the total supply of the underlying asset."
      },
      "underlying()": {
        "notice": "The token that is the underlying assets for this Teller token."
      }
    },
    "notice": "This contract represents a lending pool for an asset within Teller protocol.",
    "version": 1
  },
  "storageLayout": {
    "storage": [
      {
        "astId": 635,
        "contract": "contracts/lending/ttoken/TToken_V1.sol:TToken_V1",
        "label": "_initialized",
        "offset": 0,
        "slot": "0",
        "type": "t_bool"
      },
      {
        "astId": 638,
        "contract": "contracts/lending/ttoken/TToken_V1.sol:TToken_V1",
        "label": "_initializing",
        "offset": 1,
        "slot": "0",
        "type": "t_bool"
      },
      {
        "astId": 2833,
        "contract": "contracts/lending/ttoken/TToken_V1.sol:TToken_V1",
        "label": "__gap",
        "offset": 0,
        "slot": "1",
        "type": "t_array(t_uint256)50_storage"
      },
      {
        "astId": 694,
        "contract": "contracts/lending/ttoken/TToken_V1.sol:TToken_V1",
        "label": "_balances",
        "offset": 0,
        "slot": "51",
        "type": "t_mapping(t_address,t_uint256)"
      },
      {
        "astId": 700,
        "contract": "contracts/lending/ttoken/TToken_V1.sol:TToken_V1",
        "label": "_allowances",
        "offset": 0,
        "slot": "52",
        "type": "t_mapping(t_address,t_mapping(t_address,t_uint256))"
      },
      {
        "astId": 702,
        "contract": "contracts/lending/ttoken/TToken_V1.sol:TToken_V1",
        "label": "_totalSupply",
        "offset": 0,
        "slot": "53",
        "type": "t_uint256"
      },
      {
        "astId": 704,
        "contract": "contracts/lending/ttoken/TToken_V1.sol:TToken_V1",
        "label": "_name",
        "offset": 0,
        "slot": "54",
        "type": "t_string_storage"
      },
      {
        "astId": 706,
        "contract": "contracts/lending/ttoken/TToken_V1.sol:TToken_V1",
        "label": "_symbol",
        "offset": 0,
        "slot": "55",
        "type": "t_string_storage"
      },
      {
        "astId": 1208,
        "contract": "contracts/lending/ttoken/TToken_V1.sol:TToken_V1",
        "label": "__gap",
        "offset": 0,
        "slot": "56",
        "type": "t_array(t_uint256)45_storage"
      }
    ],
    "types": {
      "t_address": {
        "encoding": "inplace",
        "label": "address",
        "numberOfBytes": "20"
      },
      "t_array(t_uint256)45_storage": {
        "base": "t_uint256",
        "encoding": "inplace",
        "label": "uint256[45]",
        "numberOfBytes": "1440"
      },
      "t_array(t_uint256)50_storage": {
        "base": "t_uint256",
        "encoding": "inplace",
        "label": "uint256[50]",
        "numberOfBytes": "1600"
      },
      "t_bool": {
        "encoding": "inplace",
        "label": "bool",
        "numberOfBytes": "1"
      },
      "t_mapping(t_address,t_mapping(t_address,t_uint256))": {
        "encoding": "mapping",
        "key": "t_address",
        "label": "mapping(address => mapping(address => uint256))",
        "numberOfBytes": "32",
        "value": "t_mapping(t_address,t_uint256)"
      },
      "t_mapping(t_address,t_uint256)": {
        "encoding": "mapping",
        "key": "t_address",
        "label": "mapping(address => uint256)",
        "numberOfBytes": "32",
        "value": "t_uint256"
      },
      "t_string_storage": {
        "encoding": "bytes",
        "label": "string",
        "numberOfBytes": "32"
      },
      "t_uint256": {
        "encoding": "inplace",
        "label": "uint256",
        "numberOfBytes": "32"
      }
    }
  }
}