{
  "address": "0xfd7f9D58340DC9849e46752314a6A85d24446bbF",
  "abi": [
    {
      "inputs": [
        {
          "internalType": "address[]",
          "name": "path",
          "type": "address[]"
        },
        {
          "internalType": "uint256",
          "name": "sourceAmount",
          "type": "uint256"
        },
        {
          "internalType": "uint256",
          "name": "minDestination",
          "type": "uint256"
        },
        {
          "internalType": "address",
          "name": "v2RouterAddress",
          "type": "address"
        }
      ],
      "name": "swapWithRouter",
      "outputs": [
        {
          "internalType": "uint256",
          "name": "",
          "type": "uint256"
        }
      ],
      "stateMutability": "nonpayable",
      "type": "function"
    }
  ],
  "transactionHash": "0xfa9f158c5f65a1efa0fce65316e71db4864acd6c0d12f5fccb9ee921a34b06a6",
  "args": [],
  "solcInputHash": "0c80e7fb8aff27a671cb2892ea4bafd6",
  "bytecode": "0x608060405234801561001057600080fd5b50610948806100206000396000f3fe608060405234801561001057600080fd5b506004361061002b5760003560e01c8063efcbb09214610030575b600080fd5b61004361003e3660046105eb565b610055565b60405190815260200160405180910390f35b60006002855110156100a35760405162461bcd60e51b815260206004820152601260248201527115539257d410551217d513d3d7d4d213d49560721b60448201526064015b60405180910390fd5b6000856000815181106100c657634e487b7160e01b600052603260045260246000fd5b60200260200101519050600086600188516100e191906108a3565b815181106100ff57634e487b7160e01b600052603260045260246000fd5b60200260200101519050806001600160a01b0316826001600160a01b0316141561015e5760405162461bcd60e51b815260206004820152601060248201526f554e495f5352435f4453545f53414d4560801b604482015260640161009a565b6101726001600160a01b0383168588610289565b6040516338ed173960e01b81526000906001600160a01b038616906338ed1739906101a9908a908a908d90309042906004016107c6565b600060405180830381600087803b1580156101c357600080fd5b505af11580156101d7573d6000803e3d6000fd5b505050506040513d6000823e601f3d908101601f191682016040526101ff91908101906106ac565b905087518151146102475760405162461bcd60e51b8152602060048201526012602482015271554e495f4552524f525f5357415050494e4760701b604482015260640161009a565b806001825161025691906108a3565b8151811061027457634e487b7160e01b600052603260045260246000fd5b60200260200101519350505050949350505050565b604051636eb1769f60e11b81523060048201526001600160a01b038381166024830152600091839186169063dd62ed3e9060440160206040518083038186803b1580156102d557600080fd5b505afa1580156102e9573d6000803e3d6000fd5b505050506040513d601f19601f8201168201806040525081019061030d919061075f565b610317919061088b565b604080516001600160a01b038616602482015260448082018490528251808303909101815260649091019091526020810180516001600160e01b031663095ea7b360e01b17905290915061036c908590610372565b50505050565b60006103c7826040518060400160405280602081526020017f5361666545524332303a206c6f772d6c6576656c2063616c6c206661696c6564815250856001600160a01b03166104499092919063ffffffff16565b80519091501561044457808060200190518101906103e5919061073f565b6104445760405162461bcd60e51b815260206004820152602a60248201527f5361666545524332303a204552433230206f7065726174696f6e20646964206e6044820152691bdd081cdd58d8d9595960b21b606482015260840161009a565b505050565b60606104588484600085610462565b90505b9392505050565b6060824710156104c35760405162461bcd60e51b815260206004820152602660248201527f416464726573733a20696e73756666696369656e742062616c616e636520666f6044820152651c8818d85b1b60d21b606482015260840161009a565b6104cc85610591565b6105185760405162461bcd60e51b815260206004820152601d60248201527f416464726573733a2063616c6c20746f206e6f6e2d636f6e7472616374000000604482015260640161009a565b600080866001600160a01b031685876040516105349190610777565b60006040518083038185875af1925050503d8060008114610571576040519150601f19603f3d011682016040523d82523d6000602084013e610576565b606091505b509150915061058682828661059b565b979650505050505050565b803b15155b919050565b606083156105aa57508161045b565b8251156105ba5782518084602001fd5b8160405162461bcd60e51b815260040161009a9190610793565b80356001600160a01b038116811461059657600080fd5b60008060008060808587031215610600578384fd5b843567ffffffffffffffff811115610616578485fd5b8501601f81018713610626578485fd5b8035602061063b61063683610867565b610836565b8083825282820191508285018b848660051b880101111561065a57898afd5b8995505b848610156106835761066f816105d4565b83526001959095019491830191830161065e565b5097505087013594505050604085013591506106a1606086016105d4565b905092959194509250565b600060208083850312156106be578182fd5b825167ffffffffffffffff8111156106d4578283fd5b8301601f810185136106e4578283fd5b80516106f261063682610867565b80828252848201915084840188868560051b8701011115610711578687fd5b8694505b83851015610733578051835260019490940193918501918501610715565b50979650505050505050565b600060208284031215610750578081fd5b8151801515811461045b578182fd5b600060208284031215610770578081fd5b5051919050565b600082516107898184602087016108ba565b9190910192915050565b60006020825282518060208401526107b28160408501602087016108ba565b601f01601f19169190910160400192915050565b600060a082018783526020878185015260a0604085015281875180845260c0860191508289019350845b818110156108155784516001600160a01b0316835293830193918301916001016107f0565b50506001600160a01b03969096166060850152505050608001529392505050565b604051601f8201601f1916810167ffffffffffffffff8111828210171561085f5761085f6108fc565b604052919050565b600067ffffffffffffffff821115610881576108816108fc565b5060051b60200190565b6000821982111561089e5761089e6108e6565b500190565b6000828210156108b5576108b56108e6565b500390565b60005b838110156108d55781810151838201526020016108bd565b8381111561036c5750506000910152565b634e487b7160e01b600052601160045260246000fd5b634e487b7160e01b600052604160045260246000fdfea2646970667358221220eaded4731656f1ca9959dc069d00c1666eec560c870714a222dd0d60435c9fe764736f6c63430008030033",
  "devdoc": {
    "author": "develop@teller.finance",
    "kind": "dev",
    "methods": {
      "swapWithRouter(address[],uint256,uint256,address)": {
        "params": {
          "minDestination": "The minimum amount of output tokens that must be received for the transaction not to revert.",
          "path": "An array of token addresses. path.length must be >= 2. Pools for each consecutive pair of addresses must exist and have liquidity.",
          "sourceAmount": "amount of source token to swap.",
          "v2RouterAddress": "The UniswapV2Router router address to use."
        },
        "returns": {
          "_0": "uint256 The destination amount that was acquired from the swap."
        }
      }
    },
    "version": 1
  },
  "userdoc": {
    "kind": "user",
    "methods": {
      "swapWithRouter(address[],uint256,uint256,address)": {
        "notice": "Swaps tokens using a given UniswapV2Router."
      }
    },
    "notice": "This contract is used to swap tokens on Uniswap.",
    "version": 1
  },
  "storageLayout": {
    "storage": [],
    "types": null
  }
}