{
  "address": "0xb72717Ad0e150399b47183AB0613b2098296b53c",
  "abi": [
    {
      "anonymous": false,
      "inputs": [
        {
          "indexed": false,
          "internalType": "address",
          "name": "tokenAddress",
          "type": "address"
        },
        {
          "indexed": false,
          "internalType": "uint256",
          "name": "index",
          "type": "uint256"
        }
      ],
      "name": "TokenAdded",
      "type": "event"
    },
    {
      "anonymous": false,
      "inputs": [
        {
          "indexed": false,
          "internalType": "address",
          "name": "tokenAddress",
          "type": "address"
        },
        {
          "indexed": false,
          "internalType": "uint256",
          "name": "index",
          "type": "uint256"
        }
      ],
      "name": "TokenRemoved",
      "type": "event"
    },
    {
      "anonymous": false,
      "inputs": [
        {
          "indexed": true,
          "internalType": "address",
          "name": "sourceToken",
          "type": "address"
        },
        {
          "indexed": true,
          "internalType": "address",
          "name": "destinationToken",
          "type": "address"
        },
        {
          "indexed": false,
          "internalType": "uint256",
          "name": "sourceAmount",
          "type": "uint256"
        },
        {
          "indexed": false,
          "internalType": "uint256",
          "name": "destinationAmount",
          "type": "uint256"
        }
      ],
      "name": "UniswapSwapped",
      "type": "event"
    },
    {
      "inputs": [],
      "name": "_updateImplementationStored",
      "outputs": [],
      "stateMutability": "nonpayable",
      "type": "function"
    },
    {
      "inputs": [],
      "name": "borrower",
      "outputs": [
        {
          "internalType": "address",
          "name": "",
          "type": "address"
        }
      ],
      "stateMutability": "view",
      "type": "function"
    },
    {
      "inputs": [],
      "name": "getTokens",
      "outputs": [
        {
          "internalType": "address[]",
          "name": "",
          "type": "address[]"
        }
      ],
      "stateMutability": "view",
      "type": "function"
    },
    {
      "inputs": [],
      "name": "implementationStored",
      "outputs": [
        {
          "internalType": "address",
          "name": "",
          "type": "address"
        }
      ],
      "stateMutability": "view",
      "type": "function"
    },
    {
      "inputs": [],
      "name": "lendingPool",
      "outputs": [
        {
          "internalType": "address",
          "name": "",
          "type": "address"
        }
      ],
      "stateMutability": "view",
      "type": "function"
    },
    {
      "inputs": [],
      "name": "lendingToken",
      "outputs": [
        {
          "internalType": "address",
          "name": "",
          "type": "address"
        }
      ],
      "stateMutability": "view",
      "type": "function"
    },
    {
      "inputs": [],
      "name": "loanID",
      "outputs": [
        {
          "internalType": "uint256",
          "name": "",
          "type": "uint256"
        }
      ],
      "stateMutability": "view",
      "type": "function"
    },
    {
      "inputs": [],
      "name": "loanManager",
      "outputs": [
        {
          "internalType": "contract ILoans",
          "name": "",
          "type": "address"
        }
      ],
      "stateMutability": "view",
      "type": "function"
    },
    {
      "inputs": [],
      "name": "logicName",
      "outputs": [
        {
          "internalType": "bytes32",
          "name": "",
          "type": "bytes32"
        }
      ],
      "stateMutability": "view",
      "type": "function"
    },
    {
      "inputs": [],
      "name": "logicRegistry",
      "outputs": [
        {
          "internalType": "contract LogicVersionsRegistryInterface",
          "name": "",
          "type": "address"
        }
      ],
      "stateMutability": "view",
      "type": "function"
    },
    {
      "inputs": [],
      "name": "settings",
      "outputs": [
        {
          "internalType": "contract SettingsInterface",
          "name": "",
          "type": "address"
        }
      ],
      "stateMutability": "view",
      "type": "function"
    },
    {
      "inputs": [],
      "name": "strictDynamic",
      "outputs": [
        {
          "internalType": "bool",
          "name": "",
          "type": "bool"
        }
      ],
      "stateMutability": "view",
      "type": "function"
    },
    {
      "inputs": [
        {
          "internalType": "address[]",
          "name": "path",
          "type": "address[]"
        },
        {
          "internalType": "uint256",
          "name": "sourceAmount",
          "type": "uint256"
        },
        {
          "internalType": "uint256",
          "name": "minDestination",
          "type": "uint256"
        }
      ],
      "name": "swap",
      "outputs": [],
      "stateMutability": "nonpayable",
      "type": "function"
    },
    {
      "inputs": [
        {
          "internalType": "address",
          "name": "newImplementation",
          "type": "address"
        }
      ],
      "name": "upgradeProxyTo",
      "outputs": [],
      "stateMutability": "nonpayable",
      "type": "function"
    }
  ],
  "transactionHash": "0x82888e0cb7b5e290ce02cd14f795bc845be54c377221fb5ff5699bcd3e1f14f9",
  "args": [],
  "solcInputHash": "0c80e7fb8aff27a671cb2892ea4bafd6",
  "bytecode": "0x608060405234801561001057600080fd5b506110e0806100206000396000f3fe608060405234801561001057600080fd5b50600436106100ea5760003560e01c80637df1f1b91161008c578063aaaca55811610066578063aaaca558146101c2578063b3ccbcfe146101d5578063e06174e4146101e8578063e154e9a4146101fb576100ea565b80637df1f1b914610187578063a59a99731461019a578063aa6ca808146101ad576100ea565b806337c3eedc116100c857806337c3eedc1461011e5780633f3e37e4146101495780634f8654bc1461015c57806355dbd8eb14610174576100ea565b80631eb83d54146100ef578063215b0dc6146100f95780632c26486d14610115575b600080fd5b6100f7610218565b005b61010260115481565b6040519081526020015b60405180910390f35b61010260015481565b600054610131906001600160a01b031681565b6040516001600160a01b03909116815260200161010c565b6100f7610157366004610e05565b6102e7565b6002546101319061010090046001600160a01b031681565b6100f7610182366004610dc6565b61045d565b601354610131906001600160a01b031681565b601054610131906001600160a01b031681565b6101b56104dc565b60405161010c9190610fab565b601254610131906001600160a01b031681565b600f54610131906001600160a01b031681565b600454610131906001600160a01b031681565b6002546102089060ff1681565b604051901515815260200161010c565b60008054600154604051638b51f58b60e01b81526001600160a01b0390921691638b51f58b9161024e9160040190815260200190565b60606040518083038186803b15801561026657600080fd5b505afa15801561027a573d6000803e3d6000fd5b505050506040513d601f19601f8201168201806040525081019061029e9190610f14565b6002549093506001600160a01b03808516610100909204161491506102e090505760028054610100600160a81b0319166101006001600160a01b038416021790555b5043600355565b6013546001600160a01b031633146103355760405162461bcd60e51b815260206004820152600c60248201526b2727aa2fa127a92927aba2a960a11b60448201526064015b60405180910390fd5b6000610342848484610541565b90506103758460008151811061036857634e487b7160e01b600052603260045260246000fd5b60200260200101516105d4565b6103a584600186516103879190611029565b8151811061036857634e487b7160e01b600052603260045260246000fd5b83600185516103b49190611029565b815181106103d257634e487b7160e01b600052603260045260246000fd5b60200260200101516001600160a01b03168460008151811061040457634e487b7160e01b600052603260045260246000fd5b60200260200101516001600160a01b03167f1bb1e73a9804d75cf23770eb841f89d3179041febf415b046d77b318d3b5530d858460405161044f929190918252602082015260400190565b60405180910390a350505050565b6000546001600160a01b031633146104b05760405162461bcd60e51b81526020600482015260166024820152754d5553545f42455f4c4f4749435f524547495354525960501b604482015260640161032c565b600280546001600160a01b0390921661010002610100600160a81b031990921691909117905543600355565b6060601460000180548060200260200160405190810160405280929190818152602001828054801561053757602002820191906000526020600020905b81546001600160a01b03168152600190910190602001808311610519575b5050505050905090565b600480546040805163fde3066b60e01b8152905160009384936001600160a01b03169263fde3066b9281830192602092829003018186803b15801561058557600080fd5b505afa158015610599573d6000803e3d6000fd5b505050506040513d601f19601f820116820180604052508101906105bd9190610de9565b90506105cb858585846106a9565b95945050505050565b6000806105e2601484610a90565b9150915060006105f184610afd565b1115610650578161064b57610607601484610b7f565b50604080516001600160a01b0385168152602081018390527ff4c563a3ea86ff1f4275e8c207df0375a51963f2b831b7bf4da8be938d92876c910160405180910390a15b6106a4565b81156106a457610661601482610c85565b604080516001600160a01b0385168152602081018390527fbe9bb4bdca0a094babd75e3a98b1d2e2390633430d0a2f6e2b9970e2ee03fb2e910160405180910390a15b505050565b6004805460408051633078fff560e01b8152905160009384936001600160a01b031692633078fff59281830192602092829003018186803b1580156106ed57600080fd5b505afa158015610701573d6000803e3d6000fd5b505050506040513d601f19601f820116820180604052508101906107259190610de9565b9050806001600160a01b03166375151b638760008151811061075757634e487b7160e01b600052603260045260246000fd5b60200260200101516040518263ffffffff1660e01b815260040161078a91906001600160a01b0391909116815260200190565b60206040518083038186803b1580156107a257600080fd5b505afa1580156107b6573d6000803e3d6000fd5b505050506040513d601f19601f820116820180604052508101906107da9190610edc565b61081e5760405162461bcd60e51b815260206004820152601560248201527415539257d4d490d7d393d517d4d5541413d4951151605a1b604482015260640161032c565b806001600160a01b03166375151b63876001895161083c9190611029565b8151811061085a57634e487b7160e01b600052603260045260246000fd5b60200260200101516040518263ffffffff1660e01b815260040161088d91906001600160a01b0391909116815260200190565b60206040518083038186803b1580156108a557600080fd5b505afa1580156108b9573d6000803e3d6000fd5b505050506040513d601f19601f820116820180604052508101906108dd9190610edc565b6109215760405162461bcd60e51b815260206004820152601560248201527415539257d114d517d393d517d4d5541413d4951151605a1b604482015260640161032c565b60008054604051638b51f58b60e01b81527f99c45e8ee5dde061ced9c812089094fbd28a020e7e37f2851198887e5ca6498560048201526001600160a01b0390911690638b51f58b9060240160606040518083038186803b15801561098557600080fd5b505afa158015610999573d6000803e3d6000fd5b505050506040513d601f19601f820116820180604052508101906109bd9190610f14565b92505050600080826001600160a01b0316898989896040516024016109e59493929190610fbe565b60408051601f198184030181529181526020820180516001600160e01b03166377e5d84960e11b17905251610a1a9190610f8f565b600060405180830381855af49150503d8060008114610a55576040519150601f19603f3d011682016040523d82523d6000602084013e610a5a565b606091505b50915091506000821415610a6f573d60208201fd5b80806020019051810190610a839190610efc565b9998505050505050505050565b8154600090819015610af657506001600160a01b03821660008181526001850160205260409020548454909190859083908110610add57634e487b7160e01b600052603260045260246000fd5b6000918252602090912001546001600160a01b03161491505b9250929050565b6040516370a0823160e01b81523060048201526000906001600160a01b038316906370a082319060240160206040518083038186803b158015610b3f57600080fd5b505afa158015610b53573d6000803e3d6000fd5b505050506040513d601f19601f82011682018060405250810190610b779190610efc565b90505b919050565b6000610bd26040518060400160405280601981526020017f454d5054595f414444524553535f4e4f545f414c4c4f57454400000000000000815250836001600160a01b0316610c9390919063ffffffff16565b6000610bde8484610a90565b5090508015610c205760405162461bcd60e51b815260206004820152600e60248201526d414444524553535f45584953545360901b604482015260640161032c565b83546001808201865560008681526020902090910180546001600160a01b0319166001600160a01b038616179055610c56855490565b610c609190611029565b6001600160a01b03909316600090815260019094016020525050604090912081905590565b610c8f8282610cbb565b5050565b806001600160a01b0383166106a45760405162461bcd60e51b815260040161032c9190610ff6565b81548110610cc857610c8f565b8154610cd690600190611029565b8114610d775781548290610cec90600190611029565b81548110610d0a57634e487b7160e01b600052603260045260246000fd5b9060005260206000200160009054906101000a90046001600160a01b0316828281548110610d4857634e487b7160e01b600052603260045260246000fd5b9060005260206000200160006101000a8154816001600160a01b0302191690836001600160a01b031602179055505b81805480610d9557634e487b7160e01b600052603160045260246000fd5b600082815260209020810160001990810180546001600160a01b03191690550190555050565b8035610b7a81611092565b600060208284031215610dd7578081fd5b8135610de281611092565b9392505050565b600060208284031215610dfa578081fd5b8151610de281611092565b600080600060608486031215610e19578182fd5b833567ffffffffffffffff80821115610e30578384fd5b818601915086601f830112610e43578384fd5b8135602082821115610e5757610e5761107c565b8160051b604051601f19603f83011681018181108682111715610e7c57610e7c61107c565b604052838152828101945085830182870184018c1015610e9a578889fd5b8896505b84871015610ec357610eaf81610dbb565b865260019690960195948301948301610e9e565b509a918901359950506040909701359695505050505050565b600060208284031215610eed578081fd5b81518015158114610de2578182fd5b600060208284031215610f0d578081fd5b5051919050565b600080600060608486031215610f28578283fd5b83519250602084015191506040840151610f4181611092565b809150509250925092565b6000815180845260208085019450808401835b83811015610f845781516001600160a01b031687529582019590820190600101610f5f565b509495945050505050565b60008251610fa181846020870161104c565b9190910192915050565b600060208252610de26020830184610f4c565b600060808252610fd16080830187610f4c565b60208301959095525060408101929092526001600160a01b0316606090910152919050565b600060208252825180602084015261101581604085016020870161104c565b601f01601f19169190910160400192915050565b60008282101561104757634e487b7160e01b81526011600452602481fd5b500390565b60005b8381101561106757818101518382015260200161104f565b83811115611076576000848401525b50505050565b634e487b7160e01b600052604160045260246000fd5b6001600160a01b03811681146110a757600080fd5b5056fea264697066735822122040f091affadceb219ad5aeb760112344790b75dbe6a61f1a26bcb42ad6c7c92164736f6c63430008030033",
  "devdoc": {
    "author": "develop@teller.finance",
    "kind": "dev",
    "methods": {
      "_updateImplementationStored()": {
        "details": "It uses the LogicVersionsRegistry contract to get the logic address or the cached address if valid.It caches the current logic address for the proxy to reduce gas on subsequent calls within the same block."
      },
      "getTokens()": {
        "returns": {
          "_0": "The list of all tokens held by this contract."
        }
      },
      "swap(address[],uint256,uint256)": {
        "params": {
          "minDestination": "The minimum amount of output tokens that must be received for the transaction not to revert.",
          "path": "An array of token addresses. path.length must be >= 2. Pools for each consecutive pair of addresses must exist and have liquidity.",
          "sourceAmount": "amount of source token to swap."
        }
      }
    },
    "version": 1
  },
  "userdoc": {
    "events": {
      "TokenAdded(address,uint256)": {
        "notice": "This event is emitted when a new token is added to this Escrow."
      },
      "TokenRemoved(address,uint256)": {
        "notice": "This event is emitted when a new token is removed from this Escrow."
      },
      "UniswapSwapped(address,address,uint256,uint256)": {
        "notice": "Event emmitted every time a successful swap has taken place."
      }
    },
    "kind": "user",
    "methods": {
      "_updateImplementationStored()": {
        "notice": "Updates the current implementation logic address for the stored logic name."
      },
      "borrower()": {
        "notice": "Holds the borrower's address that owns this Escrow loan."
      },
      "getTokens()": {
        "notice": "Returns an array of token addresses, for which this Escrow contract has a balance."
      },
      "implementationStored()": {
        "notice": "It stores the last known logic address locally to reduce gas costs."
      },
      "lendingPool()": {
        "notice": "Holds the address of the LendingPool used for this Escrow loan."
      },
      "lendingToken()": {
        "notice": "Holds the token that this Escrow loan was taken out with."
      },
      "loanID()": {
        "notice": "Holds the loan ID of the loan for this Escrow in the LoansManager contract."
      },
      "loanManager()": {
        "notice": "Holds the instance of the associated LoanManager contract for this Escrow loan."
      },
      "logicName()": {
        "notice": "It represent the logic name (key) used for this proxy."
      },
      "logicRegistry()": {
        "notice": "It returns the logic registry that is used to determine the implementation logic for this proxy."
      },
      "settings()": {
        "notice": "It holds the platform Settings instance."
      },
      "strictDynamic()": {
        "notice": "Boolean indicating if the proxy must check the registry for a new implementation."
      },
      "swap(address[],uint256,uint256)": {
        "notice": "Swaps ETH/Tokens for Tokens/ETH using different Uniswap v2 Router 02 methods."
      },
      "upgradeProxyTo(address)": {
        "notice": "It updates a proxy's cached implementation address.It must only be called by the LogicVersionsRegistry for non strict DynamicProxy"
      }
    },
    "notice": "This contract is used to define Uniswap dApp actions available. All dapp actions are invoked via delegatecalls from Escrow contract, so this contract's state is really Escrow.",
    "version": 1
  },
  "storageLayout": {
    "storage": [
      {
        "astId": 13960,
        "contract": "contracts/base/escrow/dapps/UniswapDapp.sol:UniswapDapp",
        "label": "logicRegistry",
        "offset": 0,
        "slot": "0",
        "type": "t_contract(LogicVersionsRegistryInterface)14789"
      },
      {
        "astId": 13963,
        "contract": "contracts/base/escrow/dapps/UniswapDapp.sol:UniswapDapp",
        "label": "logicName",
        "offset": 0,
        "slot": "1",
        "type": "t_bytes32"
      },
      {
        "astId": 13966,
        "contract": "contracts/base/escrow/dapps/UniswapDapp.sol:UniswapDapp",
        "label": "strictDynamic",
        "offset": 0,
        "slot": "2",
        "type": "t_bool"
      },
      {
        "astId": 13969,
        "contract": "contracts/base/escrow/dapps/UniswapDapp.sol:UniswapDapp",
        "label": "implementationStored",
        "offset": 1,
        "slot": "2",
        "type": "t_address"
      },
      {
        "astId": 13972,
        "contract": "contracts/base/escrow/dapps/UniswapDapp.sol:UniswapDapp",
        "label": "_implementationBlockUpdated",
        "offset": 0,
        "slot": "3",
        "type": "t_uint256"
      },
      {
        "astId": 1898,
        "contract": "contracts/base/escrow/dapps/UniswapDapp.sol:UniswapDapp",
        "label": "settings",
        "offset": 0,
        "slot": "4",
        "type": "t_contract(SettingsInterface)15153"
      },
      {
        "astId": 1903,
        "contract": "contracts/base/escrow/dapps/UniswapDapp.sol:UniswapDapp",
        "label": "__gap",
        "offset": 0,
        "slot": "5",
        "type": "t_array(t_uint256)10_storage"
      },
      {
        "astId": 4821,
        "contract": "contracts/base/escrow/dapps/UniswapDapp.sol:UniswapDapp",
        "label": "loanManager",
        "offset": 0,
        "slot": "15",
        "type": "t_contract(ILoans)15763"
      },
      {
        "astId": 4824,
        "contract": "contracts/base/escrow/dapps/UniswapDapp.sol:UniswapDapp",
        "label": "lendingPool",
        "offset": 0,
        "slot": "16",
        "type": "t_address"
      },
      {
        "astId": 4827,
        "contract": "contracts/base/escrow/dapps/UniswapDapp.sol:UniswapDapp",
        "label": "loanID",
        "offset": 0,
        "slot": "17",
        "type": "t_uint256"
      },
      {
        "astId": 4830,
        "contract": "contracts/base/escrow/dapps/UniswapDapp.sol:UniswapDapp",
        "label": "lendingToken",
        "offset": 0,
        "slot": "18",
        "type": "t_address"
      },
      {
        "astId": 4833,
        "contract": "contracts/base/escrow/dapps/UniswapDapp.sol:UniswapDapp",
        "label": "borrower",
        "offset": 0,
        "slot": "19",
        "type": "t_address"
      },
      {
        "astId": 4836,
        "contract": "contracts/base/escrow/dapps/UniswapDapp.sol:UniswapDapp",
        "label": "tokens",
        "offset": 0,
        "slot": "20",
        "type": "t_struct(AddressArray)17340_storage"
      }
    ],
    "types": {
      "t_address": {
        "encoding": "inplace",
        "label": "address",
        "numberOfBytes": "20"
      },
      "t_array(t_address)dyn_storage": {
        "base": "t_address",
        "encoding": "dynamic_array",
        "label": "address[]",
        "numberOfBytes": "32"
      },
      "t_array(t_uint256)10_storage": {
        "base": "t_uint256",
        "encoding": "inplace",
        "label": "uint256[10]",
        "numberOfBytes": "320"
      },
      "t_bool": {
        "encoding": "inplace",
        "label": "bool",
        "numberOfBytes": "1"
      },
      "t_bytes32": {
        "encoding": "inplace",
        "label": "bytes32",
        "numberOfBytes": "32"
      },
      "t_contract(ILoans)15763": {
        "encoding": "inplace",
        "label": "contract ILoans",
        "numberOfBytes": "20"
      },
      "t_contract(LogicVersionsRegistryInterface)14789": {
        "encoding": "inplace",
        "label": "contract LogicVersionsRegistryInterface",
        "numberOfBytes": "20"
      },
      "t_contract(SettingsInterface)15153": {
        "encoding": "inplace",
        "label": "contract SettingsInterface",
        "numberOfBytes": "20"
      },
      "t_mapping(t_address,t_uint256)": {
        "encoding": "mapping",
        "key": "t_address",
        "label": "mapping(address => uint256)",
        "numberOfBytes": "32",
        "value": "t_uint256"
      },
      "t_struct(AddressArray)17340_storage": {
        "encoding": "inplace",
        "label": "struct AddressArrayLib.AddressArray",
        "members": [
          {
            "astId": 17335,
            "contract": "contracts/base/escrow/dapps/UniswapDapp.sol:UniswapDapp",
            "label": "array",
            "offset": 0,
            "slot": "0",
            "type": "t_array(t_address)dyn_storage"
          },
          {
            "astId": 17339,
            "contract": "contracts/base/escrow/dapps/UniswapDapp.sol:UniswapDapp",
            "label": "indices",
            "offset": 0,
            "slot": "1",
            "type": "t_mapping(t_address,t_uint256)"
          }
        ],
        "numberOfBytes": "64"
      },
      "t_uint256": {
        "encoding": "inplace",
        "label": "uint256",
        "numberOfBytes": "32"
      }
    }
  }
}